{
  "_format": "hh-sol-artifact-1",
  "contractName": "WeightedPool2TokensFactory",
  "sourceName": "contracts/WeightedPool2TokensFactory.sol",
  "abi": [
    {
      "inputs": [
        {
          "internalType": "contract IVault",
          "name": "vault",
          "type": "address"
        },
        {
          "internalType": "address",
          "name": "defaultPoolOwner",
          "type": "address"
        }
      ],
      "stateMutability": "nonpayable",
      "type": "constructor"
    },
    {
      "anonymous": false,
      "inputs": [
        {
          "indexed": true,
          "internalType": "address",
          "name": "pool",
          "type": "address"
        }
      ],
      "name": "PoolCreated",
      "type": "event"
    },
    {
      "inputs": [
        {
          "internalType": "string",
          "name": "name",
          "type": "string"
        },
        {
          "internalType": "string",
          "name": "symbol",
          "type": "string"
        },
        {
          "internalType": "contract IERC20[]",
          "name": "tokens",
          "type": "address[]"
        },
        {
          "internalType": "uint256[]",
          "name": "weights",
          "type": "uint256[]"
        },
        {
          "internalType": "uint256",
          "name": "swapFeePercentage",
          "type": "uint256"
        },
        {
          "internalType": "bool",
          "name": "oracleEnabled",
          "type": "bool"
        }
      ],
      "name": "create",
      "outputs": [
        {
          "internalType": "address",
          "name": "",
          "type": "address"
        }
      ],
      "stateMutability": "nonpayable",
      "type": "function"
    },
    {
      "inputs": [],
      "name": "getDefaultPoolOwner",
      "outputs": [
        {
          "internalType": "address",
          "name": "",
          "type": "address"
        }
      ],
      "stateMutability": "view",
      "type": "function"
    },
    {
      "inputs": [],
      "name": "getPauseConfiguration",
      "outputs": [
        {
          "internalType": "uint256",
          "name": "pauseWindowDuration",
          "type": "uint256"
        },
        {
          "internalType": "uint256",
          "name": "bufferPeriodDuration",
          "type": "uint256"
        }
      ],
      "stateMutability": "view",
      "type": "function"
    },
    {
      "inputs": [],
      "name": "getVault",
      "outputs": [
        {
          "internalType": "contract IVault",
          "name": "",
          "type": "address"
        }
      ],
      "stateMutability": "view",
      "type": "function"
    },
    {
      "inputs": [
        {
          "internalType": "address",
          "name": "pool",
          "type": "address"
        }
      ],
      "name": "isPoolFromFactory",
      "outputs": [
        {
          "internalType": "bool",
          "name": "",
          "type": "bool"
        }
      ],
      "stateMutability": "view",
      "type": "function"
    },
    {
      "inputs": [
        {
          "internalType": "address",
          "name": "newOwner",
          "type": "address"
        }
      ],
      "name": "setDefaultPoolOwner",
      "outputs": [
        {
          "internalType": "address",
          "name": "",
          "type": "address"
        }
      ],
      "stateMutability": "nonpayable",
      "type": "function"
    }
  ],
  "bytecode": "0x60c060405234801561001057600080fd5b5060405161600238038061600283398101604081905261002f9161006f565b60609190911b6001600160601b031916608052600080546001600160a01b0319166001600160a01b039092169190911790556276a700420160a0526100c0565b60008060408385031215610081578182fd5b825161008c816100a8565b602084015190925061009d816100a8565b809150509250929050565b6001600160a01b03811681146100bd57600080fd5b50565b60805160601c60a051615f176100eb6000398061025a52806102845250806102f35250615f176000f3fe60806040523480156200001157600080fd5b50600436106200006a5760003560e01c806315aa63c4146200006f5780632da47c40146200009e5780636634b75314620000b85780637ff52b0114620000de5780638d928af814620000e8578063d7dcf18b14620000f2575b600080fd5b620000866200008036600462000559565b62000109565b60405162000095919062000689565b60405180910390f35b620000a862000254565b60405162000095929190620007e4565b620000cf620000c936600462000533565b620002c0565b6040516200009591906200069d565b62000086620002e2565b62000086620002f1565b620000866200010336600462000533565b62000315565b60008060006200011862000254565b91509150600060405180610180016040528062000134620002f1565b6001600160a01b031681526020018b81526020018a8152602001896000815181106200015c57fe5b60200260200101516001600160a01b03168152602001896001815181106200018057fe5b60200260200101516001600160a01b0316815260200188600081518110620001a457fe5b6020026020010151815260200188600181518110620001bf57fe5b602002602001015181526020018781526020018481526020018381526020018615158152602001620001f0620002e2565b6001600160a01b031681525090506000816040516200020f90620003cb565b6200021b9190620006f0565b604051809103906000f08015801562000238573d6000803e3d6000fd5b50905062000246816200037c565b9a9950505050505050505050565b600080427f0000000000000000000000000000000000000000000000000000000000000000811015620002b257807f000000000000000000000000000000000000000000000000000000000000000003925062278d009150620002bb565b60009250600091505b509091565b6001600160a01b03811660009081526001602052604090205460ff165b919050565b6000546001600160a01b031690565b7f000000000000000000000000000000000000000000000000000000000000000090565b60008062000322620002e2565b9050336001600160a01b03821614620003585760405162461bcd60e51b81526004016200034f90620006a8565b60405180910390fd5b5050600080546001600160a01b0319166001600160a01b0392831617908190551690565b6001600160a01b0381166000818152600160208190526040808320805460ff1916909217909155517f83a48fbcfc991335314e74d0496aab6a1987e992ddc85dddbcc4d6dd6ef2e9fc9190a250565b615694806200084e83390190565b600082601f830112620003ea578081fd5b8135602062000403620003fd8362000816565b620007f2565b828152818101908583018385028701840188101562000420578586fd5b855b858110156200044b578135620004388162000834565b8452928401929084019060010162000422565b5090979650505050505050565b600082601f83011262000469578081fd5b813560206200047c620003fd8362000816565b828152818101908583018385028701840188101562000499578586fd5b855b858110156200044b578135845292840192908401906001016200049b565b80358015158114620002dd57600080fd5b600082601f830112620004db578081fd5b81356001600160401b03811115620004ef57fe5b62000504601f8201601f1916602001620007f2565b81815284602083860101111562000519578283fd5b816020850160208301379081016020019190915292915050565b60006020828403121562000545578081fd5b8135620005528162000834565b9392505050565b60008060008060008060c0878903121562000572578182fd5b86356001600160401b038082111562000589578384fd5b620005978a838b01620004ca565b97506020890135915080821115620005ad578384fd5b620005bb8a838b01620004ca565b96506040890135915080821115620005d1578384fd5b620005df8a838b01620003d9565b95506060890135915080821115620005f5578384fd5b506200060489828a0162000458565b935050608087013591506200061c60a08801620004b9565b90509295509295509295565b6001600160a01b03169052565b15159052565b60008151808452815b81811015620006625760208185018101518683018201520162000644565b81811115620006745782602083870101525b50601f01601f19169290920160200192915050565b6001600160a01b0391909116815260200190565b901515815260200190565b60208082526028908201527f4d6573736167652053656e646572204973206e6f742044656661756c7420506f60408201526737b61027bbb732b960c11b606082015260800190565b6000602082526200070660208301845162000628565b6020830151610180806040850152620007246101a08501836200063b565b91506040850151601f198584030160608601526200074383826200063b565b92505060608501516200075a608086018262000628565b5060808501516200076f60a086018262000628565b5060a085015160c085015260c085015160e085015260e0850151610100818187015280870151915050610120818187015280870151915050610140818187015280870151915050610160620007c78187018362000635565b8601519050620007da8583018262000628565b5090949350505050565b918252602082015260400190565b6040518181016001600160401b03811182821017156200080e57fe5b604052919050565b60006001600160401b038211156200082a57fe5b5060209081020190565b6001600160a01b03811681146200084a57600080fd5b5056fe6102a06040527f6e71edae12b1b97f4d1f60370fef10105fa2faae0126114a169c64845d6126c9610120523480156200003757600080fd5b5060405162005694380380620056948339810160408190526200005a9162000818565b61010081810151610120830151602080850151604080870151815180830190925260018252603160f81b8285019081526101608901513360805260601b6001600160601b03191660a052835194840194852060c052915190912060e0527f8b73c3c69bb8fe3d512ecc4cf759cc79239f7b179b0ffacaa9a75d522b39400f909552805193949293909291620000f39160039190620006a1565b50805162000109906004906020840190620006a1565b50620001219150506276a7008311156101946200040c565b6200013562278d008211156101956200040c565b42909101610140818152910161016052810151620001539062000421565b60e081015162000163906200047d565b80516040516309b2760f60e01b81526000916001600160a01b0316906309b2760f90620001969060029060040162000a17565b602060405180830381600087803b158015620001b157600080fd5b505af1158015620001c6573d6000803e3d6000fd5b505050506040513d601f19601f82011682018060405250810190620001ec9190620007ff565b60408051600280825260608201835292935060009290916020830190803683370190505090508260600151816000815181106200022557fe5b60200260200101906001600160a01b031690816001600160a01b0316815250508260800151816001815181106200025857fe5b6001600160a01b0392831660209182029290920101528351166366a9c7d283836002604051908082528060200260200182016040528015620002a4578160200160208202803683370190505b506040518463ffffffff1660e01b8152600401620002c5939291906200097d565b600060405180830381600087803b158015620002e057600080fd5b505af1158015620002f5573d6000803e3d6000fd5b505084516001600160601b0319606091821b8116610180526101a08690528187018051831b82166101c052608088015190921b166101e052516200033c92509050620004fb565b6102605260808301516200035090620004fb565b6102805260a08301516200037190662386f26fc10000111561012e6200040c565b62000393662386f26fc100008460c00151101561012e6200040c60201b60201c565b6000620003b78460c001518560a001516200059f60201b620011851790919060201c565b9050620003d1670de0b6b3a764000082146101346200040c565b60a0840180516102005260c085018051610220525190511015620003f7576001620003fa565b60005b60ff16610240525062000a5992505050565b816200041d576200041d81620005ba565b5050565b6200043d816008546200060d60201b620011971790919060201c565b6008556040517f3e350b41e86a8e10f804ade6d35340d620be35569cc75ac943e8bb14ab80ead1906200047290839062000972565b60405180910390a150565b6200049264e8d4a5100082101560cb6200040c565b620004aa67016345785d8a000082111560ca6200040c565b620004c6816008546200062c60201b620011a51790919060201c565b6008556040517fa9ba3ffe0b6c366b81232caab38605a0699ad5398d6cce76f91ee809e322dafc906200047290839062000a2c565b600080826001600160a01b031663313ce5676040518163ffffffff1660e01b815260040160206040518083038186803b1580156200053857600080fd5b505afa1580156200054d573d6000803e3d6000fd5b505050506040513d601f19601f820116820180604052508101906200057391906200094f565b60ff1690506000620005926012836200064b60201b620011b31760201c565b600a0a925050505b919050565b6000828201620005b384821015836200040c565b9392505050565b62461bcd60e51b6000908152602060045260076024526642414c23000030600a808404818106603090810160081b95839006959095019082900491820690940160101b939093010160c81b604452606490fd5b6000620005b3826055856200066360201b620011c9179092919060201c565b6000620005b3826056856200068c60201b620011f0179092919060201c565b60006200065d8383111560016200040c565b50900390565b60006001821b19841682846200067b5760006200067e565b60015b60ff16901b17949350505050565b6001600160401b03811b1992909216911b1790565b828054600181600116156101000203166002900490600052602060002090601f016020900481019282620006d9576000855562000724565b82601f10620006f457805160ff191683800117855562000724565b8280016001018555821562000724579182015b828111156200072457825182559160200191906001019062000707565b506200073292915062000736565b5090565b5b8082111562000732576000815560010162000737565b80516001600160a01b03811681146200059a57600080fd5b805180151581146200059a57600080fd5b600082601f83011262000787578081fd5b81516001600160401b038111156200079b57fe5b6020620007b1601f8301601f1916820162000a35565b8281528582848701011115620007c5578384fd5b835b83811015620007e4578581018301518282018401528201620007c7565b83811115620007f557848385840101525b5095945050505050565b60006020828403121562000811578081fd5b5051919050565b6000602082840312156200082a578081fd5b81516001600160401b038082111562000841578283fd5b818401915061018080838703121562000858578384fd5b620008638162000a35565b905062000870836200074d565b815260208301518281111562000884578485fd5b620008928782860162000776565b602083015250604083015182811115620008aa578485fd5b620008b88782860162000776565b604083015250620008cc606084016200074d565b6060820152620008df608084016200074d565b608082015260a0838101519082015260c0808401519082015260e080840151908201526101008084015190820152610120808401519082015261014091506200092a82840162000765565b828201526101609150620009408284016200074d565b91810191909152949350505050565b60006020828403121562000961578081fd5b815160ff81168114620005b3578182fd5b901515815260200190565b60006060820185835260206060818501528186518084526080860191508288019350845b81811015620009c85784516001600160a01b031683529383019391830191600101620009a1565b505084810360408601528551808252908201925081860190845b8181101562000a095782516001600160a01b031685529383019391830191600101620009e2565b509298975050505050505050565b602081016003831062000a2657fe5b91905290565b90815260200190565b6040518181016001600160401b038111828210171562000a5157fe5b604052919050565b60805160a05160601c60c05160e051610100516101205161014051610160516101805160601c6101a0516101c05160601c6101e05160601c6102005161022051610240516102605161028051614b6362000b3160003980611cab525080611cd2525080612969528061299d52806129d9525080611cff5280611d9b525080611d265280611d795280611dc952505080610c2a5250806107c8525080610b7852508061135c525080611338525080610edf525080611652525080611694525080611673525080610b54525080610adf5250614b636000f3fe608060405234801561001057600080fd5b50600436106102085760003560e01c806374f3b0091161011b578063aaabadc5116100a8578063aaabadc514610463578063b10be7391461046b578063b48b5b401461047e578063c0ff1a1514610486578063d505accf1461048e578063d5c096c4146104a1578063d73dd623146104b4578063dd62ed3e146104c7578063f89f27ed146104da578063ffd088eb146104e257610208565b806374f3b009146103b65780637ecebe00146103d7578063851c1bb3146103ea57806387ec6817146103fd578063893d20e8146104105780638d928af81461042557806395d89b411461042d5780639b02cdde146104355780639d2c110c1461043d578063a9059cbb1461045057610208565b806338e9922e1161019957806338e9922e146102e457806338fff2d0146102f75780634a6b0b15146102ff57806355c67628146103195780636028bfd41461032157806360d1507c146103425780636618846314610368578063679aefce1461037b5780636b8432391461038357806370a08231146103a357610208565b806306fdde031461020d578063095ea7b31461022b57806316c38b3c1461024b57806318160ddd146102605780631c0de051146102755780631dccd8301461028c57806323b872dd146102ac578063292c914a146102bf578063313ce567146102c75780633644e515146102dc575b600080fd5b6102156104ea565b6040516102229190614a23565b60405180910390f35b61023e6102393660046141aa565b610580565b6040516102229190614900565b61025e61025936600461443e565b610597565b005b6102686105ab565b6040516102229190614923565b61027d6105b1565b6040516102229392919061490b565b61029f61029a366004614370565b6105da565b60405161022291906148c8565b61023e6102ba3660046140f5565b6106e2565b61025e610765565b6102cf610799565b6040516102229190614a8f565b61026861079e565b61025e6102f23660046147db565b6107ad565b6102686107c6565b6103076107ea565b604051610222969594939291906149f9565b610268610845565b61033461032f366004614476565b610852565b604051610222929190614a76565b6103556103503660046147db565b610883565b60405161022297969594939291906149c9565b61023e6103763660046141aa565b6108cc565b610268610926565b6103966103913660046142a0565b61094b565b6040516102229190614884565b6102686103b13660046140a1565b6109fc565b6103c96103c4366004614476565b610a1b565b6040516102229291906148db565b6102686103e53660046140a1565b610ac0565b6102686103f8366004614572565b610adb565b61033461040b366004614476565b610b2d565b610418610b52565b6040516102229190614870565b610418610b76565b610215610b9a565b610268610bfb565b61026861044b3660046146e5565b610c01565b61023e61045e3660046141aa565b610db0565b610418610dbd565b6102686104793660046146c9565b610dc7565b610268610de9565b610268610def565b61025e61049c366004614135565b610eaa565b6103c96104af366004614476565b610ff3565b61023e6104c23660046141aa565b611113565b6102686104d53660046140bd565b611149565b61029f611174565b61026861117e565b60038054604080516020601f60026000196101006001881615020190951694909404938401819004810282018101909252828152606093909290918301828280156105765780601f1061054b57610100808354040283529160200191610576565b820191906000526020600020905b81548152906001019060200180831161055957829003601f168201915b5050505050905090565b600061058d338484611205565b5060015b92915050565b61059f61126d565b6105a88161129b565b50565b60025490565b60008060006105be611319565b1592506105c9611336565b91506105d361135a565b9050909192565b606081516001600160401b03811180156105f357600080fd5b5060405190808252806020026020018201604052801561061d578160200160208202803683370190505b509050600061062d60085461137e565b9050610637613f7e565b60005b84518110156106da5784818151811061064f57fe5b6020026020010151915061066d82602001516000141561013c61138b565b6000610688836000015185856020015186604001510161139d565b9050600061069f846000015186866040015161139d565b90506106b98460200151838303816106b357fe5b056114e3565b8684815181106106c557fe5b6020908102919091010152505060010161063a565b505050919050565b6001600160a01b038316600081815260016020908152604080832033808552925282205491926107209114806107185750838210155b61019761138b565b61072b8585856114f6565b336001600160a01b0386161480159061074657506000198114155b15610758576107588533858403611205565b60019150505b9392505050565b61076d6115b3565b61077561126d565b61077f60016115c6565b60006107896105ab565b111561079757610797611606565b565b601290565b60006107a861164e565b905090565b6107b561126d565b6107bd6115b3565b6105a8816116eb565b7f000000000000000000000000000000000000000000000000000000000000000090565b6000806000806000806000600854905061080381611754565b965061080e81611760565b95506108198161176d565b94506108248161137e565b935061082f8161177a565b925061083a81611787565b915050909192939495565b60006107a8600854611787565b6000606061086286516002611794565b610877898989898989896117a161185b6118d9565b97509795505050505050565b600080600080600080600061089e610400891061013b61138b565b60006108a9896119f7565b90506108b481611a09565b959f949e50929c50909a509850965090945092505050565b3360009081526001602090815260408083206001600160a01b03861684529091528120548083106109085761090333856000611205565b61091c565b61091c338561091784876111b3565b611205565b5060019392505050565b60006107a86109336105ab565b61094561093e610def565b6002611a6c565b90611a90565b606081516001600160401b038111801561096457600080fd5b5060405190808252806020026020018201604052801561098e578160200160208202803683370190505b509050600061099e60085461137e565b90506109a8613fa0565b60005b84518110156106da578481815181106109c057fe5b602002602001015191506109dd826000015184846020015161139d565b8482815181106109e957fe5b60209081029190910101526001016109ab565b6001600160a01b0381166000908152602081905260409020545b919050565b60608088610a45610a2a610b76565b6001600160a01b0316336001600160a01b03161460cd61138b565b610a5a610a506107c6565b82146101f461138b565b610a6387611ae1565b6000806000610a778d8d8d8d8d8d8d6117a1565b925092509250610a878c84611b43565b610a908261185b565b610a998161185b565b610aa1611319565b15610aae57610aae611606565b909c909b509950505050505050505050565b6001600160a01b031660009081526005602052604090205490565b60007f000000000000000000000000000000000000000000000000000000000000000082604051602001610b1092919061482d565b604051602081830303815290604052805190602001209050919050565b60006060610b3d86516002611794565b61087789898989898989611bc4611c446118d9565b7f000000000000000000000000000000000000000000000000000000000000000090565b7f000000000000000000000000000000000000000000000000000000000000000090565b60048054604080516020601f60026000196101006001881615020190951694909404938401819004810282018101909252828152606093909290918301828280156105765780601f1061054b57610100808354040283529160200191610576565b60095490565b6000610c0b6115b3565b8360800151610c1b610a2a610b76565b610c26610a506107c6565b60007f00000000000000000000000000000000000000000000000000000000000000006001600160a01b031686602001516001600160a01b03161490506000610c6e82611ca2565b90506000610c7c8315611ca2565b90506000610c8984611cf6565b90506000610c978515611cf6565b9050610ca38985611d4a565b9850610caf8884611d4a565b9750610cd88a60a0015186610cc45789610cc6565b8a5b87610cd1578b610cd3565b8a5b611d56565b60008a516001811115610ce757fe5b1415610d55576000610d05610cfa610845565b60608d015190611e5c565b9050610d27610d21828d606001516111b390919063ffffffff16565b86611d4a565b60608c01526000610d3b8c8c8c8787611ea0565b9050610d478186611ebf565b985050505050505050610da8565b610d638a6060015184611d4a565b60608b01526000610d778b8b8b8686611ecb565b9050610d838186611ede565b9050610d9f610d98610d93610845565b611eea565b8290611f10565b97505050505050505b509392505050565b600061058d3384846114f6565b60006107a8611f52565b600080610dde83610dd960085461137e565b611fcc565b905061075e816114e3565b61040090565b600080610dfa610b76565b6001600160a01b031663f94d4668610e106107c6565b6040518263ffffffff1660e01b8152600401610e2c9190614923565b60006040518083038186803b158015610e4457600080fd5b505afa158015610e58573d6000803e3d6000fd5b505050506040513d6000823e601f3d908101601f19168201604052610e8091908101906141d5565b50915050610e8d81611ae1565b6000610e97612003565b9050610ea38183612072565b9250505090565b610eb88442111560d161138b565b6001600160a01b0387166000908152600560209081526040808320549051909291610f0f917f0000000000000000000000000000000000000000000000000000000000000000918c918c918c9188918d910161494b565b6040516020818303038152906040528051906020012090506000610f32826120e4565b9050600060018288888860405160008152602001604052604051610f5994939291906149ab565b6020604051602081039080840390855afa158015610f7b573d6000803e3d6000fd5b5050604051601f1901519150610fbd90506001600160a01b03821615801590610fb557508b6001600160a01b0316826001600160a01b0316145b6101f861138b565b6001600160a01b038b166000908152600560205260409020600185019055610fe68b8b8b611205565b5050505050505050505050565b60608088611002610a2a610b76565b61100d610a506107c6565b6110156115b3565b600061101f6105ab565b61108f5761102f8b8b8b88612100565b94509050611044620f424082101560cc61138b565b6110526000620f4240612189565b61106189620f42408303612189565b61106a84611c44565b60408051600280825260608201835290916020830190803683370190505092506110fd565b61109888611ae1565b6110cb87896000815181106110a957fe5b60200260200101518a6001815181106110be57fe5b6020026020010151611d56565b6110da8b8b8b8b8b8b8b611bc4565b909550935090506110eb8982612189565b6110f484611c44565b6110fd8361185b565b611105611606565b505097509795505050505050565b3360008181526001602090815260408083206001600160a01b0387168452909152812054909161058d9185906109179086611185565b6001600160a01b03918216600090815260016020908152604080832093909416825291909152205490565b60606107a8612003565b6201de2090565b600082820161075e848210158361138b565b600061075e838360556111c9565b600061075e838360566111f0565b60006111c383831115600161138b565b50900390565b60006001821b19841682846111df5760006111e2565b60015b60ff16901b17949350505050565b6001600160401b03811b1992909216911b1790565b6001600160a01b0380841660008181526001602090815260408083209487168084529490915290819020849055517f8c5be1e5ebec7d5bd14f71427d1e84f3dd0314c0f7b2291e5b200ac8c7c3b92590611260908590614923565b60405180910390a3505050565b60006112846000356001600160e01b031916610adb565b90506105a8611293823361220d565b61019161138b565b80156112bb576112b66112ac611336565b421061019361138b565b6112d0565b6112d06112c661135a565b42106101a961138b565b6006805460ff19168215151790556040517f9e3a5e37224532dea67b89face185703738a228a6e8a23dee546960180d3be649061130e908390614900565b60405180910390a150565b600061132361135a565b4211806107a857505060065460ff161590565b7f000000000000000000000000000000000000000000000000000000000000000090565b7f000000000000000000000000000000000000000000000000000000000000000090565b600061059182604b6122fd565b816113995761139981612305565b5050565b60006113ae8242101561013861138b565b4282900360006113bd856119f7565b905060006113ca82612358565b90506113db6000821161013961138b565b82811161140757808303806113f0848a612364565b026113fb848a6123a8565b0194505050505061075e565b6000611412876123ec565b9050600061141f826119f7565b9050600061142c82612358565b905061143d6000821161013961138b565b61144c8682111561013a61138b565b505060008061145b86846123f9565b91509150600061146a83612358565b61147383612358565b03905080156114cb576000611488848d6123a8565b611492848e6123a8565b03905060006114a085612358565b8903905082818302816114af57fe5b056114ba868f6123a8565b01995050505050505050505061075e565b6114d5838c6123a8565b97505050505050505061075e565b6000610591655af3107a400083026124ac565b6001600160a01b03831660009081526020819052604090205461151e8282101561019661138b565b6115356001600160a01b038416151561019961138b565b6001600160a01b038085166000908152602081905260408082208585039055918516815220546115659083611185565b6001600160a01b038085166000818152602081905260409081902093909355915190861690600080516020614b0e833981519152906115a5908690614923565b60405180910390a350505050565b6107976115be611319565b61019261138b565b6008546115d39082611197565b6008556040517f3e350b41e86a8e10f804ade6d35340d620be35569cc75ac943e8bb14ab80ead19061130e908390614900565b6008546116128161177a565b156105a85761162c611625600954612887565b82906128cb565b905061164861164161163c6105ab565b612887565b82906128d8565b60085550565b60007f00000000000000000000000000000000000000000000000000000000000000007f00000000000000000000000000000000000000000000000000000000000000007f00000000000000000000000000000000000000000000000000000000000000006116bb6128e6565b306040516020016116d095949392919061497f565b60405160208183030381529060405280519060200120905090565b6116fe64e8d4a5100082101560cb61138b565b61171467016345785d8a000082111560ca61138b565b60085461172190826111a5565b6008556040517fa9ba3ffe0b6c366b81232caab38605a0699ad5398d6cce76f91ee809e322dafc9061130e908390614923565b600061059182826128ea565b60006105918260166128ea565b600061059182602c612911565b600061059182605561291b565b6000610591826056612925565b611399818314606761138b565b600060608060006117b0612003565b90506117ba611319565b15611802576117d087896000815181106110a957fe5b60006117dc828a612072565b90506117ed8983600954848b612932565b92506117fc89846111b3612a17565b50611823565b60408051600280825260608201835290916020830190803683370190505091505b61182e888287612aa9565b909450925061184088846111b3612a17565b61184a8189612072565b600955509750975097945050505050565b6118828160008151811061186b57fe5b602002602001015161187d6001611ca2565b612b16565b8160008151811061188f57fe5b6020026020010181815250506118bd816001815181106118ab57fe5b602002602001015161187d6000611ca2565b816001815181106118ca57fe5b60200260200101818152505050565b333014611997576000306001600160a01b03166000366040516118fd929190614845565b6000604051808303816000865af19150503d806000811461193a576040519150601f19603f3d011682016040523d82523d6000602084013e61193f565b606091505b50509050806000811461194e57fe5b60046000803e6000516001600160e01b0319166343adbafb60e01b8114611979573d6000803e3d6000fd5b506020600460003e604060205260243d03602460403e601c3d016000f35b6119a086611ae1565b6000806119b68b8b8b8b8b8b8b8b63ffffffff16565b50915091506119c8818463ffffffff16565b8051601f1982018390526343adbafb603f1983015260200260231982016044820181fd5b505050505050505050565b60009081526007602052604090205490565b6000806000806000806000611a1d88612b36565b9650611a2888612b43565b9550611a3388612b50565b9450611a3e88612b5d565b9350611a4988612b6a565b9250611a5488612b77565b9150611a5f88612358565b9050919395979092949650565b600082820261075e841580611a89575083858381611a8657fe5b04145b600361138b565b6000611a9f821515600461138b565b82611aac57506000610591565b670de0b6b3a764000083810290611acf90858381611ac657fe5b0414600561138b565b828181611ad857fe5b04915050610591565b611b0881600081518110611af157fe5b6020026020010151611b036001611ca2565b611a6c565b81600081518110611b1557fe5b6020026020010181815250506118bd81600181518110611b3157fe5b6020026020010151611b036000611ca2565b6001600160a01b038216600090815260208190526040902054611b6b8282101561019661138b565b6001600160a01b03831660009081526020819052604090208282039055600254611b9590836111b3565b6002556040516000906001600160a01b03851690600080516020614b0e83398151915290611260908690614923565b60006060806000611bd3612003565b90506000611be1828a612072565b90506000611bf48a84600954858c612932565b9050611c038a826111b3612a17565b600080611c118c868b612b84565b91509150611c228c82611185612a17565b611c2c858d612072565b600955909e909d50909b509950505050505050505050565b611c6b81600081518110611c5457fe5b6020026020010151611c666001611ca2565b612bde565b81600081518110611c7857fe5b6020026020010181815250506118bd81600181518110611c9457fe5b6020026020010151611c6660005b600081611ccf577f0000000000000000000000000000000000000000000000000000000000000000610591565b507f0000000000000000000000000000000000000000000000000000000000000000919050565b600081611d23577f0000000000000000000000000000000000000000000000000000000000000000610591565b507f0000000000000000000000000000000000000000000000000000000000000000919050565b600061075e8383611a6c565b600854611d628161177a565b8015611d6d57508343115b15611e56576000611dc07f0000000000000000000000000000000000000000000000000000000000000000857f000000000000000000000000000000000000000000000000000000000000000086612c11565b90506000611df77f000000000000000000000000000000000000000000000000000000000000000086611df286611760565b612c46565b90506000611e048461137e565b90506000611e118561176d565b90506000611e2a82848787611e258b611754565b612c62565b90508083146119ec57611e3d8682612cb9565b9550611e498642612cc7565b6008819055955050505050505b50505050565b6000828202611e76841580611a89575083858381611a8657fe5b80611e85576000915050610591565b670de0b6b3a764000060001982015b04600101915050610591565b6000611eb3858486858a60600151612cd5565b90505b95945050505050565b600061075e8383612b16565b6000611eb3858486858a60600151612d50565b600061075e8383612bde565b6000670de0b6b3a76400008210611f02576000610591565b50670de0b6b3a76400000390565b6000611f1f821515600461138b565b82611f2c57506000610591565b670de0b6b3a764000083810290611f4690858381611ac657fe5b826001820381611e9457fe5b6000611f5c610b76565b6001600160a01b031663aaabadc56040518163ffffffff1660e01b815260040160206040518083038186803b158015611f9457600080fd5b505afa158015611fa8573d6000803e3d6000fd5b505050506040513d601f19601f820116820180604052508101906107a8919061459a565b600080611fd8836119f7565b9050611ff16000611fe883612358565b1161013961138b565b611ffb8185612364565b949350505050565b604080516002808252606080830184529260009291906020830190803683370190505090506120326001611cf6565b8160008151811061203f57fe5b6020026020010181815250506120556000611cf6565b8160018151811061206257fe5b6020908102919091010152905090565b670de0b6b3a764000060005b83518110156120d4576120ca6120c385838151811061209957fe5b60200260200101518584815181106120ad57fe5b6020026020010151612dc690919063ffffffff16565b8390612e15565b915060010161207e565b506105916000821161013761138b565b60006120ee61164e565b82604051602001610b10929190614855565b60006060600061210f84612e41565b905061212a600082600281111561212257fe5b1460ce61138b565b600061213585612e57565b905061214381516002611794565b61214c81611ae1565b6000612156612003565b905060006121648284612072565b90506000612173826002611a6c565b6009929092555099919850909650505050505050565b6001600160a01b0382166000908152602081905260409020546121ac9082611185565b6001600160a01b0383166000908152602081905260409020556002546121d29082611185565b6002556040516001600160a01b03831690600090600080516020614b0e83398151915290612201908590614923565b60405180910390a35050565b600073ba1ba1ba1ba1ba1ba1ba1ba1ba1ba1ba1ba1ba1b61222c610b52565b6001600160a01b031614158015612247575061224783612e6d565b1561226f57612254610b52565b6001600160a01b0316336001600160a01b0316149050610591565b612277611f52565b6001600160a01b0316639be2a8848484306040518463ffffffff1660e01b81526004016122a69392919061492c565b60206040518083038186803b1580156122be57600080fd5b505afa1580156122d2573d6000803e3d6000fd5b505050506040513d601f19601f820116820180604052508101906122f6919061445a565b9050610591565b1c6103ff1690565b62461bcd60e51b6000908152602060045260076024526642414c23000030600a808404818106603090810160081b95839006959095019082900491820690940160101b939093010160c81b604452606490fd5b60006105918282612911565b60008082600281111561237357fe5b1415612382576122f683612b36565b600182600281111561239057fe5b141561239f576122f683612b50565b6122f683612b6a565b6000808260028111156123b757fe5b14156123c6576122f683612b43565b60018260028111156123d457fe5b14156123e3576122f683612b5d565b6122f683612b77565b6000610591826001612e87565b600080806103ff8180805b8385116124705760028585010461241b818a612e87565b9350612426846119f7565b925061243183612358565b9150898210156124465780600101955061246a565b898211156124595760018103945061246a565b8283975097505050505050506124a5565b50612404565b88811061248e5761248861248384612e98565b6119f7565b8261249b565b8161249b612483856123ec565b9650965050505050505b9250929050565b60006124db680238fd42c5cf03ffff1983121580156124d4575068070c1cc73b00c800008313155b600961138b565b600082121561250e576124f0826000036124ac565b6a0c097ce7bc90715b34b9f160241b8161250657fe5b059050610a16565b60006806f05b59d3b2000000831261254c57506806f05b59d3b1ffffff199091019072195e54c5dd42177f53a27172fa9ec63026282760241b612582565b6803782dace9d9000000831261257e57506803782dace9d8ffffff19909101906b1425982cf597cd205cef7380612582565b5060015b6064929092029168056bc75e2d6310000068ad78ebc5ac6200000084126125d25768ad78ebc5ac61ffffff199093019268056bc75e2d631000006e01855144814a7ff805980ff008400082020590505b6856bc75e2d631000000841261260e576856bc75e2d630ffffff199093019268056bc75e2d631000006b02df0ab5a80a22c61ab5a70082020590505b682b5e3af16b18800000841261264857682b5e3af16b187fffff199093019268056bc75e2d63100000693f1fce3da636ea5cf85082020590505b6815af1d78b58c4000008412612682576815af1d78b58c3fffff199093019268056bc75e2d63100000690127fa27722cc06cc5e282020590505b680ad78ebc5ac620000084126126bb57680ad78ebc5ac61fffff199093019268056bc75e2d6310000068280e60114edb805d0382020590505b68056bc75e2d6310000084126126f45768056bc75e2d630fffff199093019268056bc75e2d63100000680ebc5fb4174612111082020590505b6802b5e3af16b1880000841261272d576802b5e3af16b187ffff199093019268056bc75e2d631000006808f00f760a4b2db55d82020590505b68015af1d78b58c4000084126127665768015af1d78b58c3ffff199093019268056bc75e2d631000006806f5f177578893793782020590505b68056bc75e2d631000008481019085906002908280020505918201919050600368056bc75e2d631000008783020505918201919050600468056bc75e2d631000008783020505918201919050600568056bc75e2d631000008783020505918201919050600668056bc75e2d631000008783020505918201919050600768056bc75e2d631000008783020505918201919050600868056bc75e2d631000008783020505918201919050600968056bc75e2d631000008783020505918201919050600a68056bc75e2d631000008783020505918201919050600b68056bc75e2d631000008783020505918201919050600c68056bc75e2d631000008783020505918201919050606468056bc75e2d63100000848402058502059695505050505050565b60008061289383612ea5565b9050655af3107a4000600082136128b257652d79883d200082036128bc565b652d79883d200082015b816128c357fe5b059392505050565b600061075e838383612f01565b600061075e83836016612f01565b4690565b600082821c623fffff16621fffff81136129045780611ffb565b623fffff19179392505050565b1c637fffffff1690565b1c60019081161490565b1c6001600160401b031690565b6040805160028082526060808301845292600092919060208301908036833701905050905082612963579050611eb6565b6129d6877f00000000000000000000000000000000000000000000000000000000000000008151811061299257fe5b6020026020010151877f0000000000000000000000000000000000000000000000000000000000000000815181106129c657fe5b6020026020010151878787612f18565b817f000000000000000000000000000000000000000000000000000000000000000081518110612a0257fe5b60209081029190910101529695505050505050565b612a4d83600081518110612a2757fe5b602002602001015183600081518110612a3c57fe5b60200260200101518363ffffffff16565b83600081518110612a5a57fe5b602002602001018181525050612a8b83600181518110612a7657fe5b602002602001015183600181518110612a3c57fe5b83600181518110612a9857fe5b602002602001018181525050505050565b600060606000612ab884612e41565b90506000816002811115612ac857fe5b1415612ae357612ad9868686612f90565b9250925050612b0e565b6001816002811115612af157fe5b1415612b0157612ad98685613041565b612ad9868686613073565b505b935093915050565b6000612b25821515600461138b565b818381612b2e57fe5b049392505050565b60006105918260ea6128ea565b60006105918260b56130de565b600061059182609f6128ea565b600061059182606a6130de565b60006105918260546128ea565b600061059182601f6130de565b600060606000612b9384612e41565b90506001816002811115612ba357fe5b1415612bb457612ad9868686613111565b6002816002811115612bc257fe5b1415612bd357612ad9868686613167565b612b0c610136612305565b6000612bed821515600461138b565b82612bfa57506000610591565b816001840381612c0657fe5b046001019050610591565b600080612c31612c218486611f10565b612c2b8789611f10565b90611f10565b9050612c3c81612887565b9695505050505050565b600080612c5661163c8587611f10565b92909203949350505050565b600080612c7e85858542612c758b6119f7565b939291906131eb565b9050607842889003101580612c935786612c9c565b612c9c876123ec565b600081815260076020526040902092909255509695505050505050565b600061075e8383604b61323d565b600061075e8383602c61324d565b6000612cf7612cec87670429d069189e0000612e15565b83111561013061138b565b6000612d038784611185565b90506000612d118883611f10565b90506000612d1f8887611a90565b90506000612d2d838361325f565b9050612d42612d3b82611eea565b8990612e15565b9a9950505050505050505050565b6000612d72612d6785670429d069189e0000612e15565b83111561013161138b565b6000612d88612d8186856111b3565b8690611f10565b90506000612d968588611f10565b90506000612da4838361325f565b90506000612dba82670de0b6b3a76400006111b3565b9050612d428a82611e5c565b600080612dd3848461328b565b90506000612ded612de683612710611e5c565b6001611185565b905080821015612e0257600092505050610591565b612e0c82826111b3565b92505050610591565b6000828202612e2f841580611a89575083858381611a8657fe5b670de0b6b3a764000090049392505050565b60008180602001905181019061059191906145b6565b60608180602001905181019061075e919061467b565b6000612e7f631c74c91760e11b610adb565b909114919050565b60006104008383015b069392505050565b600061059182600161338c565b6000612eb560008313606461138b565b670c7d713b49da000082138015612ed35750670f43fc2c04ee000082125b15612ef157670de0b6b3a7640000612eea8361339b565b8161250657fe5b612efa826134b9565b9050610a16565b623fffff828116821b90821b198416179392505050565b6000838311612f2957506000611eb6565b6000612f358585611f10565b90506000612f4b670de0b6b3a764000088611a90565b9050612f5f826709b6e64a8ec60000613852565b91506000612f6d838361325f565b90506000612f84612f7d83611eea565b8b90612e15565b9050612d428187612e15565b60006060612f9c6115b3565b600080612fa885613869565b91509150612fba60028210606461138b565b60408051600280825260608201835260009260208301908036833701905050905061301c888381518110612fea57fe5b6020026020010151888481518110612ffe57fe5b60200260200101518561300f6105ab565b613017610845565b61388b565b81838151811061302857fe5b6020908102919091010152919791965090945050505050565b60006060600061305084613942565b9050600061306686836130616105ab565b613958565b9196919550909350505050565b6000606061307f6115b3565b60008061308b85613a09565b9150915061309b82516002611794565b6130a482611ae1565b60006130c18888856130b46105ab565b6130bc610845565b613a21565b90506130d18282111560cf61138b565b9791965090945050505050565b600082821c661fffffffffffff16660fffffffffffff81136131005780611ffb565b661fffffffffffff19179392505050565b6000606060008061312185613a09565b9150915061313182516002611794565b61313a82611ae1565b600061315788888561314a6105ab565b613152610845565b613c4b565b90506130d18282101560d061138b565b6000606060008061317785613869565b9150915061318960028210606461138b565b60408051600280825260608201835260009260208301908036833701905050905061301c8883815181106131b957fe5b60200260200101518884815181106131cd57fe5b6020026020010151856131de6105ab565b6131e6610845565b613e5a565b6000806131f787612358565b83039050600081870261320989612b43565b019050600082870261321a8a612b5d565b019050600083870261322b8b612b77565b019050612d4289848a858b868c613efc565b6103ff811b1992909216911b1790565b637fffffff811b1992909216911b1790565b60008061326c848461328b565b9050600061327f612de683612710611e5c565b9050611eb68282611185565b6000816132a15750670de0b6b3a7640000610591565b826132ae57506000610591565b6132bf600160ff1b8410600661138b565b826132e5770bce5086492111aea88f4bb1ca6bcf584181ea8059f765328410600761138b565b826000670c7d713b49da0000831380156133065750670f43fc2c04ee000083125b1561333d5760006133168461339b565b9050670de0b6b3a764000080820784020583670de0b6b3a76400008305020191505061334b565b81613347846134b9565b0290505b670de0b6b3a76400009005613383680238fd42c5cf03ffff19821280159061337c575068070c1cc73b00c800008213155b600861138b565b612c3c816124ac565b60006104008284038101612e90565b670de0b6b3a7640000026000806a0c097ce7bc90715b34b9f160241b808401906ec097ce7bc90715b34b9f0fffffffff19850102816133d657fe5b05905060006a0c097ce7bc90715b34b9f160241b82800205905081806a0c097ce7bc90715b34b9f160241b81840205915060038205016a0c097ce7bc90715b34b9f160241b82840205915060058205016a0c097ce7bc90715b34b9f160241b82840205915060078205016a0c097ce7bc90715b34b9f160241b82840205915060098205016a0c097ce7bc90715b34b9f160241b828402059150600b8205016a0c097ce7bc90715b34b9f160241b828402059150600d8205016a0c097ce7bc90715b34b9f160241b828402059150600f826002919005919091010295945050505050565b6000670de0b6b3a76400008212156134f5576134eb826a0c097ce7bc90715b34b9f160241b816134e557fe5b056134b9565b6000039050610a16565b6000775803bcc5cb9634ba4cfb2213f784019318ed4dcb6017880f60361b83126135405772195e54c5dd42177f53a27172fa9ec63026282760241b830592506806f05b59d3b2000000015b73011798004d755d3c8bc8e03204cf44619e0000008312613578576b1425982cf597cd205cef7380830592506803782dace9d9000000015b606492830292026e01855144814a7ff805980ff008400083126135c0576e01855144814a7ff805980ff008400068056bc75e2d63100000840205925068ad78ebc5ac62000000015b6b02df0ab5a80a22c61ab5a70083126135fb576b02df0ab5a80a22c61ab5a70068056bc75e2d6310000084020592506856bc75e2d631000000015b693f1fce3da636ea5cf850831261363257693f1fce3da636ea5cf85068056bc75e2d631000008402059250682b5e3af16b18800000015b690127fa27722cc06cc5e2831261366957690127fa27722cc06cc5e268056bc75e2d6310000084020592506815af1d78b58c400000015b68280e60114edb805d03831261369e5768280e60114edb805d0368056bc75e2d631000008402059250680ad78ebc5ac6200000015b680ebc5fb4174612111083126136c957680ebc5fb4174612111068056bc75e2d631000009384020592015b6808f00f760a4b2db55d83126136fe576808f00f760a4b2db55d68056bc75e2d6310000084020592506802b5e3af16b1880000015b6806f5f17757889379378312613733576806f5f177578893793768056bc75e2d63100000840205925068015af1d78b58c40000015b6806248f33704b2866038312613767576806248f33704b28660368056bc75e2d63100000840205925067ad78ebc5ac620000015b6805c548670b9510e7ac831261379b576805c548670b9510e7ac68056bc75e2d6310000084020592506756bc75e2d6310000015b600068056bc75e2d63100000840168056bc75e2d6310000080860302816137be57fe5b059050600068056bc75e2d63100000828002059050818068056bc75e2d63100000818402059150600382050168056bc75e2d63100000828402059150600582050168056bc75e2d63100000828402059150600782050168056bc75e2d63100000828402059150600982050168056bc75e2d63100000828402059150600b820501600202606485820105979650505050505050565b600081831015613862578161075e565b5090919050565b600080828060200190518101906138809190614645565b909590945092505050565b60008061389c84612c2b81886111b3565b90506138b56709b6e64a8ec6000082101561013261138b565b60006138d36138cc670de0b6b3a764000089611a90565b839061325f565b905060006138ea6138e383611eea565b8a90612e15565b905060006138f789611eea565b905060006139058383611e5c565b9050600061391384836111b3565b905061393261392b6139248a611eea565b8490612e15565b8290611185565b9c9b505050505050505050505050565b60008180602001905181019061075e9190614618565b606060006139668484611a90565b9050600085516001600160401b038111801561398157600080fd5b506040519080825280602002602001820160405280156139ab578160200160208202803683370190505b50905060005b86518110156139ff576139e0838883815181106139ca57fe5b6020026020010151612e1590919063ffffffff16565b8282815181106139ec57fe5b60209081029190910101526001016139b1565b5095945050505050565b606060008280602001905181019061388091906145d2565b60008084516001600160401b0381118015613a3b57600080fd5b50604051908082528060200260200182016040528015613a65578160200160208202803683370190505b5090506000805b8851811015613b2a57613ac5898281518110613a8457fe5b6020026020010151612c2b898481518110613a9b57fe5b60200260200101518c8581518110613aaf57fe5b60200260200101516111b390919063ffffffff16565b838281518110613ad157fe5b602002602001018181525050613b20613b19898381518110613aef57fe5b6020026020010151858481518110613b0357fe5b6020026020010151611e5c90919063ffffffff16565b8390611185565b9150600101613a6c565b50670de0b6b3a764000060005b8951811015613c2a576000848281518110613b4e57fe5b6020026020010151841115613bac576000613b77613b6b86611eea565b8d85815181106139ca57fe5b90506000613b8b828c8681518110613aaf57fe5b9050613ba3613b19613b9c8b611eea565b8390611f10565b92505050613bc3565b888281518110613bb857fe5b602002602001015190505b6000613bec8c8481518110613bd457fe5b6020026020010151610945848f8781518110613aaf57fe5b9050613c1e613c178c8581518110613c0057fe5b602002602001015183612dc690919063ffffffff16565b8590612e15565b93505050600101613b37565b50613c3e613c3782611eea565b8790611e5c565b9998505050505050505050565b60008084516001600160401b0381118015613c6557600080fd5b50604051908082528060200260200182016040528015613c8f578160200160208202803683370190505b5090506000805b8851811015613d3757613cef898281518110613cae57fe5b6020026020010151610945898481518110613cc557fe5b60200260200101518c8581518110613cd957fe5b602002602001015161118590919063ffffffff16565b838281518110613cfb57fe5b602002602001018181525050613d2d613b19898381518110613d1957fe5b60200260200101518584815181106139ca57fe5b9150600101613c96565b50670de0b6b3a764000060005b8951811015613e1857600083858381518110613d5c57fe5b60200260200101511115613db8576000613d81613b6b86670de0b6b3a76400006111b3565b90506000613d95828c8681518110613aaf57fe5b9050613daf613b196120c3670de0b6b3a76400008c6111b3565b92505050613dcf565b888281518110613dc457fe5b602002602001015190505b6000613df88c8481518110613de057fe5b6020026020010151610945848f8781518110613cd957fe5b9050613e0c613c178c8581518110613c0057fe5b93505050600101613d44565b50670de0b6b3a76400008110613e4e57613e44613e3d82670de0b6b3a76400006111b3565b8790612e15565b9350505050611eb6565b60009350505050611eb6565b600080613e6b84612c2b8188611185565b9050613e846729a2241af62c000082111561013361138b565b6000613e9b6138cc670de0b6b3a764000089611f10565b90506000613ebb613eb483670de0b6b3a76400006111b3565b8a90611e5c565b90506000613ec889611eea565b90506000613ed68383611e5c565b90506000613ee484836111b3565b905061393261392b613ef58a611eea565b8490611f10565b6000613f088282613f5c565b613f1384601f613f60565b613f1e866054613f71565b613f2988606a613f60565b613f348a609f613f71565b613f3f8c60b5613f60565b613f4a8e60ea613f71565b17171717171798975050505050505050565b1b90565b661fffffffffffff91909116901b90565b623fffff91909116901b90565b6040805160608101909152806000815260200160008152602001600081525090565b604080518082019091526000808252602082015290565b8035610a1681614add565b600082601f830112613fd2578081fd5b81516020613fe7613fe283614ac0565b614a9d565b8281528181019085830183850287018401881015614003578586fd5b855b8581101561402157815184529284019290840190600101614005565b5090979650505050505050565b600082601f83011261403e578081fd5b81356001600160401b0381111561405157fe5b614064601f8201601f1916602001614a9d565b818152846020838601011115614078578283fd5b816020850160208301379081016020019190915292915050565b803560028110610a1657600080fd5b6000602082840312156140b2578081fd5b813561075e81614add565b600080604083850312156140cf578081fd5b82356140da81614add565b915060208301356140ea81614add565b809150509250929050565b600080600060608486031215614109578081fd5b833561411481614add565b9250602084013561412481614add565b929592945050506040919091013590565b600080600080600080600060e0888a03121561414f578485fd5b873561415a81614add565b9650602088013561416a81614add565b95506040880135945060608801359350608088013560ff8116811461418d578384fd5b9699959850939692959460a0840135945060c09093013592915050565b600080604083850312156141bc578182fd5b82356141c781614add565b946020939093013593505050565b6000806000606084860312156141e9578081fd5b83516001600160401b03808211156141ff578283fd5b818601915086601f830112614212578283fd5b81516020614222613fe283614ac0565b82815281810190858301838502870184018c101561423e578788fd5b8796505b8487101561426957805161425581614add565b835260019690960195918301918301614242565b5091890151919750909350505080821115614282578283fd5b5061428f86828701613fc2565b925050604084015190509250925092565b600060208083850312156142b2578182fd5b82356001600160401b03808211156142c8578384fd5b818501915085601f8301126142db578384fd5b81356142e9613fe282614ac0565b818152848101908486016040808502870188018b1015614307578889fd5b8896505b848710156143615780828c031215614321578889fd5b8051818101818110888211171561433457fe5b8252823561434181614b00565b81528289013589820152845260019690960195928701929081019061430b565b50909998505050505050505050565b60006020808385031215614382578182fd5b82356001600160401b0380821115614398578384fd5b818501915085601f8301126143ab578384fd5b81356143b9613fe282614ac0565b818152848101908486016060808502870188018b10156143d7578889fd5b8896505b848710156143615780828c0312156143f1578889fd5b60408051828101818110898211171561440657fe5b8252833561441381614b00565b8152838a01358a820152818401359181019190915284526001969096019592870192908101906143db565b60006020828403121561444f578081fd5b813561075e81614af2565b60006020828403121561446b578081fd5b815161075e81614af2565b600080600080600080600060e0888a031215614490578081fd5b873596506020808901356144a381614add565b965060408901356144b381614add565b955060608901356001600160401b03808211156144ce578384fd5b818b0191508b601f8301126144e1578384fd5b81356144ef613fe282614ac0565b8082825285820191508585018f87888602880101111561450d578788fd5b8795505b8386101561452f578035835260019590950194918601918601614511565b509850505060808b0135955060a08b0135945060c08b0135925080831115614555578384fd5b50506145638a828b0161402e565b91505092959891949750929550565b600060208284031215614583578081fd5b81356001600160e01b03198116811461075e578182fd5b6000602082840312156145ab578081fd5b815161075e81614add565b6000602082840312156145c7578081fd5b815161075e81614b00565b6000806000606084860312156145e6578081fd5b83516145f181614b00565b60208501519093506001600160401b0381111561460c578182fd5b61428f86828701613fc2565b6000806040838503121561462a578182fd5b825161463581614b00565b6020939093015192949293505050565b600080600060608486031215614659578081fd5b835161466481614b00565b602085015160409095015190969495509392505050565b6000806040838503121561468d578182fd5b825161469881614b00565b60208401519092506001600160401b038111156146b3578182fd5b6146bf85828601613fc2565b9150509250929050565b6000602082840312156146da578081fd5b813561075e81614b00565b6000806000606084860312156146f9578081fd5b83356001600160401b038082111561470f578283fd5b8186019150610120808389031215614725578384fd5b61472e81614a9d565b905061473983614092565b815261474760208401613fb7565b602082015261475860408401613fb7565b6040820152606083013560608201526080830135608082015260a083013560a082015261478760c08401613fb7565b60c082015261479860e08401613fb7565b60e082015261010080840135838111156147b0578586fd5b6147bc8a82870161402e565b9183019190915250976020870135975060409096013595945050505050565b6000602082840312156147ec578081fd5b5035919050565b6000815180845260208085019450808401835b8381101561482257815187529582019590820190600101614806565b509495945050505050565b9182526001600160e01b031916602082015260240190565b6000828483379101908152919050565b61190160f01b81526002810192909252602282015260420190565b6001600160a01b0391909116815260200190565b6020808252825182820181905260009190848201906040850190845b818110156148bc578351835292840192918401916001016148a0565b50909695505050505050565b60006020825261075e60208301846147f3565b6000604082526148ee60408301856147f3565b8281036020840152611eb681856147f3565b901515815260200190565b92151583526020830191909152604082015260600190565b90815260200190565b9283526001600160a01b03918216602084015216604082015260600190565b9586526001600160a01b0394851660208701529290931660408501526060840152608083019190915260a082015260c00190565b9485526020850193909352604084019190915260608301526001600160a01b0316608082015260a00190565b93845260ff9290921660208401526040830152606082015260800190565b968752602087019590955260408601939093526060850191909152608084015260a083015260c082015260e00190565b9586526020860194909452604085019290925260608401521515608083015260a082015260c00190565b6000602080835283518082850152825b81811015614a4f57858101830151858201604001528201614a33565b81811115614a605783604083870101525b50601f01601f1916929092016040019392505050565b600083825260406020830152611ffb60408301846147f3565b60ff91909116815260200190565b6040518181016001600160401b0381118282101715614ab857fe5b604052919050565b60006001600160401b03821115614ad357fe5b5060209081020190565b6001600160a01b03811681146105a857600080fd5b80151581146105a857600080fd5b600381106105a857600080fdfeddf252ad1be2c89b69c2b068fc378daa952ba7f163c4a11628f55a4df523b3efa26469706673582212205f95957477edb2dc883fe620a1c236494e3365f3b9ca1a38f0080786c8515b8764736f6c63430007060033a2646970667358221220984d1bcc3415be20e4816f389261b5163d1154b75738e0cfb5dce2698c7d2ac664736f6c63430007060033",
  "linkReferences": {},
  "deployedLinkReferences": {}
}