{"contracts/veWAVE.sol":{"ve":{"abi":[{"inputs":[{"internalType":"address","name":"token_addr","type":"address"}],"stateMutability":"nonpayable","type":"constructor"},{"anonymous":false,"inputs":[{"indexed":true,"internalType":"address","name":"owner","type":"address"},{"indexed":true,"internalType":"address","name":"approved","type":"address"},{"indexed":true,"internalType":"uint256","name":"tokenId","type":"uint256"}],"name":"Approval","type":"event"},{"anonymous":false,"inputs":[{"indexed":true,"internalType":"address","name":"owner","type":"address"},{"indexed":true,"internalType":"address","name":"operator","type":"address"},{"indexed":false,"internalType":"bool","name":"approved","type":"bool"}],"name":"ApprovalForAll","type":"event"},{"anonymous":false,"inputs":[{"indexed":true,"internalType":"address","name":"provider","type":"address"},{"indexed":false,"internalType":"uint256","name":"tokenId","type":"uint256"},{"indexed":false,"internalType":"uint256","name":"value","type":"uint256"},{"indexed":true,"internalType":"uint256","name":"locktime","type":"uint256"},{"indexed":false,"internalType":"enum ve.DepositType","name":"deposit_type","type":"uint8"},{"indexed":false,"internalType":"uint256","name":"ts","type":"uint256"}],"name":"Deposit","type":"event"},{"anonymous":false,"inputs":[{"indexed":true,"internalType":"address","name":"user","type":"address"},{"indexed":false,"internalType":"uint256","name":"vestingInAmount","type":"uint256"},{"indexed":false,"internalType":"uint256","name":"mintedAmount","type":"uint256"}],"name":"Enter","type":"event"},{"anonymous":false,"inputs":[{"indexed":true,"internalType":"address","name":"user","type":"address"},{"indexed":false,"internalType":"uint256","name":"vestingOutAmount","type":"uint256"},{"indexed":false,"internalType":"uint256","name":"burnedAmount","type":"uint256"}],"name":"Leave","type":"event"},{"anonymous":false,"inputs":[{"indexed":false,"internalType":"uint256","name":"amount","type":"uint256"}],"name":"ShareRevenue","type":"event"},{"anonymous":false,"inputs":[{"indexed":false,"internalType":"uint256","name":"prevSupply","type":"uint256"},{"indexed":false,"internalType":"uint256","name":"supply","type":"uint256"}],"name":"Supply","type":"event"},{"anonymous":false,"inputs":[{"indexed":true,"internalType":"address","name":"from","type":"address"},{"indexed":true,"internalType":"address","name":"to","type":"address"},{"indexed":true,"internalType":"uint256","name":"tokenId","type":"uint256"}],"name":"Transfer","type":"event"},{"anonymous":false,"inputs":[{"indexed":true,"internalType":"address","name":"provider","type":"address"},{"indexed":false,"internalType":"uint256","name":"tokenId","type":"uint256"},{"indexed":false,"internalType":"uint256","name":"value","type":"uint256"},{"indexed":false,"internalType":"uint256","name":"ts","type":"uint256"}],"name":"Withdraw","type":"event"},{"inputs":[{"internalType":"uint256","name":"_tokenId","type":"uint256"}],"name":"abstain","outputs":[],"stateMutability":"nonpayable","type":"function"},{"inputs":[{"internalType":"address","name":"_approved","type":"address"},{"internalType":"uint256","name":"_tokenId","type":"uint256"}],"name":"approve","outputs":[],"stateMutability":"nonpayable","type":"function"},{"inputs":[{"internalType":"uint256","name":"_tokenId","type":"uint256"}],"name":"attach","outputs":[],"stateMutability":"nonpayable","type":"function"},{"inputs":[{"internalType":"uint256","name":"","type":"uint256"}],"name":"attachments","outputs":[{"internalType":"uint256","name":"","type":"uint256"}],"stateMutability":"view","type":"function"},{"inputs":[{"internalType":"address","name":"_owner","type":"address"}],"name":"balanceOf","outputs":[{"internalType":"uint256","name":"","type":"uint256"}],"stateMutability":"view","type":"function"},{"inputs":[{"internalType":"uint256","name":"_tokenId","type":"uint256"},{"internalType":"uint256","name":"_block","type":"uint256"}],"name":"balanceOfAtNFT","outputs":[{"internalType":"uint256","name":"","type":"uint256"}],"stateMutability":"view","type":"function"},{"inputs":[{"internalType":"uint256","name":"_tokenId","type":"uint256"}],"name":"balanceOfNFT","outputs":[{"internalType":"uint256","name":"","type":"uint256"}],"stateMutability":"view","type":"function"},{"inputs":[{"internalType":"uint256","name":"_tokenId","type":"uint256"},{"internalType":"uint256","name":"_t","type":"uint256"}],"name":"balanceOfNFTAt","outputs":[{"internalType":"uint256","name":"","type":"uint256"}],"stateMutability":"view","type":"function"},{"inputs":[],"name":"block_number","outputs":[{"internalType":"uint256","name":"","type":"uint256"}],"stateMutability":"view","type":"function"},{"inputs":[],"name":"checkpoint","outputs":[],"stateMutability":"nonpayable","type":"function"},{"inputs":[{"internalType":"uint256","name":"_value","type":"uint256"},{"internalType":"uint256","name":"_lock_duration","type":"uint256"}],"name":"create_lock","outputs":[{"internalType":"uint256","name":"","type":"uint256"}],"stateMutability":"nonpayable","type":"function"},{"inputs":[],"name":"decimals","outputs":[{"internalType":"uint8","name":"","type":"uint8"}],"stateMutability":"view","type":"function"},{"inputs":[{"internalType":"uint256","name":"_tokenId","type":"uint256"}],"name":"detach","outputs":[],"stateMutability":"nonpayable","type":"function"},{"inputs":[],"name":"epoch","outputs":[{"internalType":"uint256","name":"","type":"uint256"}],"stateMutability":"view","type":"function"},{"inputs":[{"internalType":"uint256","name":"_tokenId","type":"uint256"}],"name":"getApproved","outputs":[{"internalType":"address","name":"","type":"address"}],"stateMutability":"view","type":"function"},{"inputs":[{"internalType":"uint256","name":"_tokenId","type":"uint256"}],"name":"get_last_user_slope","outputs":[{"internalType":"int128","name":"","type":"int128"}],"stateMutability":"view","type":"function"},{"inputs":[{"internalType":"uint256","name":"_tokenId","type":"uint256"},{"internalType":"uint256","name":"_lock_duration","type":"uint256"}],"name":"increase_unlock_time","outputs":[],"stateMutability":"nonpayable","type":"function"},{"inputs":[{"internalType":"address","name":"_owner","type":"address"},{"internalType":"address","name":"_operator","type":"address"}],"name":"isApprovedForAll","outputs":[{"internalType":"bool","name":"","type":"bool"}],"stateMutability":"view","type":"function"},{"inputs":[{"internalType":"address","name":"_spender","type":"address"},{"internalType":"uint256","name":"_tokenId","type":"uint256"}],"name":"isApprovedOrOwner","outputs":[{"internalType":"bool","name":"","type":"bool"}],"stateMutability":"view","type":"function"},{"inputs":[{"internalType":"uint256","name":"_tokenId","type":"uint256"}],"name":"leave","outputs":[],"stateMutability":"nonpayable","type":"function"},{"inputs":[{"internalType":"uint256","name":"","type":"uint256"}],"name":"locked","outputs":[{"internalType":"int128","name":"amount","type":"int128"},{"internalType":"uint256","name":"end","type":"uint256"}],"stateMutability":"view","type":"function"},{"inputs":[{"internalType":"uint256","name":"_tokenId","type":"uint256"}],"name":"locked__end","outputs":[{"internalType":"uint256","name":"","type":"uint256"}],"stateMutability":"view","type":"function"},{"inputs":[{"internalType":"uint256","name":"_tokenId","type":"uint256"}],"name":"locking","outputs":[{"internalType":"int256","name":"","type":"int256"}],"stateMutability":"view","type":"function"},{"inputs":[{"internalType":"uint256","name":"_from","type":"uint256"},{"internalType":"uint256","name":"_to","type":"uint256"}],"name":"merge","outputs":[],"stateMutability":"nonpayable","type":"function"},{"inputs":[],"name":"name","outputs":[{"internalType":"string","name":"","type":"string"}],"stateMutability":"view","type":"function"},{"inputs":[{"internalType":"uint256","name":"_tokenId","type":"uint256"}],"name":"ownerOf","outputs":[{"internalType":"address","name":"","type":"address"}],"stateMutability":"view","type":"function"},{"inputs":[{"internalType":"uint256","name":"","type":"uint256"}],"name":"ownership_change","outputs":[{"internalType":"uint256","name":"","type":"uint256"}],"stateMutability":"view","type":"function"},{"inputs":[{"internalType":"uint256","name":"","type":"uint256"}],"name":"point_history","outputs":[{"internalType":"int128","name":"bias","type":"int128"},{"internalType":"int128","name":"slope","type":"int128"},{"internalType":"uint256","name":"ts","type":"uint256"},{"internalType":"uint256","name":"blk","type":"uint256"}],"stateMutability":"view","type":"function"},{"inputs":[{"internalType":"address","name":"_from","type":"address"},{"internalType":"address","name":"_to","type":"address"},{"internalType":"uint256","name":"_tokenId","type":"uint256"}],"name":"safeTransferFrom","outputs":[],"stateMutability":"nonpayable","type":"function"},{"inputs":[{"internalType":"address","name":"_from","type":"address"},{"internalType":"address","name":"_to","type":"address"},{"internalType":"uint256","name":"_tokenId","type":"uint256"},{"internalType":"bytes","name":"_data","type":"bytes"}],"name":"safeTransferFrom","outputs":[],"stateMutability":"nonpayable","type":"function"},{"inputs":[{"internalType":"address","name":"_operator","type":"address"},{"internalType":"bool","name":"_approved","type":"bool"}],"name":"setApprovalForAll","outputs":[],"stateMutability":"nonpayable","type":"function"},{"inputs":[{"internalType":"address","name":"_voter","type":"address"}],"name":"setVoter","outputs":[],"stateMutability":"nonpayable","type":"function"},{"inputs":[{"internalType":"uint256","name":"","type":"uint256"}],"name":"slope_changes","outputs":[{"internalType":"int128","name":"","type":"int128"}],"stateMutability":"view","type":"function"},{"inputs":[],"name":"supply","outputs":[{"internalType":"uint256","name":"","type":"uint256"}],"stateMutability":"view","type":"function"},{"inputs":[{"internalType":"bytes4","name":"_interfaceID","type":"bytes4"}],"name":"supportsInterface","outputs":[{"internalType":"bool","name":"","type":"bool"}],"stateMutability":"view","type":"function"},{"inputs":[],"name":"symbol","outputs":[{"internalType":"string","name":"","type":"string"}],"stateMutability":"view","type":"function"},{"inputs":[],"name":"token","outputs":[{"internalType":"address","name":"","type":"address"}],"stateMutability":"view","type":"function"},{"inputs":[{"internalType":"address","name":"_owner","type":"address"},{"internalType":"uint256","name":"_tokenIndex","type":"uint256"}],"name":"tokenOfOwnerByIndex","outputs":[{"internalType":"uint256","name":"","type":"uint256"}],"stateMutability":"view","type":"function"},{"inputs":[{"internalType":"uint256","name":"_tokenId","type":"uint256"}],"name":"tokenURI","outputs":[{"internalType":"string","name":"","type":"string"}],"stateMutability":"view","type":"function"},{"inputs":[],"name":"totalSupply","outputs":[{"internalType":"uint256","name":"","type":"uint256"}],"stateMutability":"view","type":"function"},{"inputs":[{"internalType":"uint256","name":"_block","type":"uint256"}],"name":"totalSupplyAt","outputs":[{"internalType":"uint256","name":"","type":"uint256"}],"stateMutability":"view","type":"function"},{"inputs":[{"internalType":"uint256","name":"t","type":"uint256"}],"name":"totalSupplyAtT","outputs":[{"internalType":"uint256","name":"","type":"uint256"}],"stateMutability":"view","type":"function"},{"inputs":[{"internalType":"address","name":"_from","type":"address"},{"internalType":"address","name":"_to","type":"address"},{"internalType":"uint256","name":"_tokenId","type":"uint256"}],"name":"transferFrom","outputs":[],"stateMutability":"nonpayable","type":"function"},{"inputs":[{"internalType":"uint256","name":"","type":"uint256"}],"name":"user_point_epoch","outputs":[{"internalType":"uint256","name":"","type":"uint256"}],"stateMutability":"view","type":"function"},{"inputs":[{"internalType":"uint256","name":"","type":"uint256"},{"internalType":"uint256","name":"","type":"uint256"}],"name":"user_point_history","outputs":[{"internalType":"int128","name":"bias","type":"int128"},{"internalType":"int128","name":"slope","type":"int128"},{"internalType":"uint256","name":"ts","type":"uint256"},{"internalType":"uint256","name":"blk","type":"uint256"}],"stateMutability":"view","type":"function"},{"inputs":[{"internalType":"uint256","name":"_tokenId","type":"uint256"},{"internalType":"uint256","name":"_idx","type":"uint256"}],"name":"user_point_history__ts","outputs":[{"internalType":"uint256","name":"","type":"uint256"}],"stateMutability":"view","type":"function"},{"inputs":[],"name":"version","outputs":[{"internalType":"string","name":"","type":"string"}],"stateMutability":"view","type":"function"},{"inputs":[{"internalType":"uint256","name":"","type":"uint256"}],"name":"voted","outputs":[{"internalType":"bool","name":"","type":"bool"}],"stateMutability":"view","type":"function"},{"inputs":[],"name":"voter","outputs":[{"internalType":"address","name":"","type":"address"}],"stateMutability":"view","type":"function"},{"inputs":[{"internalType":"uint256","name":"_tokenId","type":"uint256"}],"name":"voting","outputs":[],"stateMutability":"nonpayable","type":"function"}],"evm":{"bytecode":{"linkReferences":{},"object":"60a06040526013805460ff191660011790553480156200001e57600080fd5b5060405162003bc538038062003bc5833981016040819052620000419162000181565b6001600160a01b038116608052600a80546001600160a01b03191633179055437f17ef568e3e12ab5b9c7254a8d58478811de00f9e6eb34345acd53bf8fd09d3ee55427f17ef568e3e12ab5b9c7254a8d58478811de00f9e6eb34345acd53bf8fd09d3ed5560126020527f6afebfa21c417411ab7392a59bbb98ec35612153c5e8aeb3f64f4e016707b77a805460ff1990811660019081179092557fdf428ce7b59746cf2e618e63c6311d427105f2c3dc163ff0902907dea1728df58054821683179055635b5e139f60e01b60009081527fc0e00dda16840520b43384d85650edbbad8e5afcb041d20f42eb5aea304558cd80549092169092179055600b546040519091309160008051602062003ba5833981519152908290a4600b54604051600090309060008051602062003ba5833981519152908390a450620001b3565b6000602082840312156200019457600080fd5b81516001600160a01b0381168114620001ac57600080fd5b9392505050565b6080516139c1620001e46000396000818161084801528181610c8401528181611878015261268101526139c16000f3fe608060405234801561001057600080fd5b50600436106102d65760003560e01c80637119748411610182578063c1f0fb9f116100e9578063e441135c116100a2578063f8a057631161007c578063f8a057631461080c578063fbd3a29d14610830578063fc0c546a14610843578063fd4a77f11461086a57600080fd5b8063e441135c1461079d578063e7e242d4146107bd578063e985e9c5146107d057600080fd5b8063c1f0fb9f1461070b578063c2c4c5c11461071e578063c87b56dd14610726578063d1c2babb14610739578063d1febfb91461074c578063e0514aba1461078a57600080fd5b8063986b7d8a1161013b578063986b7d8a1461063b578063a22cb4651461064e578063a4d855df14610661578063b45a3c0e14610674578063b88d4fde146106bc578063ba693242146106cf57600080fd5b806371197484146105c65780638c2c9baf146105e95780638fbb38ff146105fc578063900cf0cf1461061f57806395d89b4114610334578063981b24d01461062857600080fd5b8063313ce5671161024157806354fd4d50116101fa57806367dfd4c9116101d457806367dfd4c91461056d5780636f5488371461058057806370a08231146105a05780637116c60c146105b357600080fd5b806354fd4d501461050d5780636352211e1461053157806365fc38731461055a57600080fd5b8063313ce5671461048157806342842e0e1461049b578063430c2081146104ae578063461f711c146104c157806346c96aac146104e75780634bc2a657146104fa57600080fd5b80631376f3da116102935780631376f3da146103dc57806318160ddd146104175780631c984bc31461041f57806323b872dd1461043257806325a58b56146104455780632f745c591461044b57600080fd5b806301ffc9a7146102db578063047fc9aa1461031d57806306fdde0314610334578063081812fc14610366578063095ea7b3146103a75780630d6a2033146103bc575b600080fd5b6103086102e9366004612ebc565b6001600160e01b03191660009081526012602052604090205460ff1690565b60405190151581526020015b60405180910390f35b61032660005481565b604051908152602001610314565b6103596040518060400160405280600681526020016576655741564560d01b81525081565b6040516103149190612f31565b61038f610374366004612f44565b6000908152600d60205260409020546001600160a01b031690565b6040516001600160a01b039091168152602001610314565b6103ba6103b5366004612f79565b61087d565b005b6103266103ca366004612f44565b60086020526000908152604090205481565b6103ef6103ea366004612fa3565b610966565b60408051600f95860b81529390940b6020840152928201526060810191909152608001610314565b6103266109ad565b61032661042d366004612fa3565b6109bd565b6103ba610440366004612fc5565b6109f0565b43610326565b610326610459366004612f79565b6001600160a01b03919091166000908152600f60209081526040808320938352929052205490565b610489601281565b60405160ff9091168152602001610314565b6103ba6104a9366004612fc5565b610a01565b6103086104bc366004612f79565b610a1c565b6104d46104cf366004612f44565b610a2f565b604051600f9190910b8152602001610314565b600a5461038f906001600160a01b031681565b6103ba610508366004613001565b610a72565b610359604051806040016040528060058152602001640312e302e360dc1b81525081565b61038f61053f366004612f44565b6000908152600c60205260409020546001600160a01b031690565b610326610568366004612fa3565b610aab565b6103ba61057b366004612f44565b610aed565b61032661058e366004612f44565b60026020526000908152604090205481565b6103266105ae366004613001565b610de2565b6103266105c1366004612f44565b610e00565b6104d46105d4366004612f44565b600760205260009081526040902054600f0b81565b6103266105f7366004612fa3565b610e60565b61030861060a366004612f44565b60096020526000908152604090205460ff1681565b61032660035481565b610326610636366004612f44565b610e6c565b6103ba610649366004612f44565b61100e565b6103ba61065c36600461302a565b611052565b6103ba61066f366004612fa3565b6110d7565b6106a2610682366004612f44565b60016020819052600091825260409091208054910154600f9190910b9082565b60408051600f9390930b8352602083019190915201610314565b6103ba6106ca366004613077565b6112b8565b6103266106dd366004612f44565b60009081526001602081815260409283902083518085019094528054600f0b80855292015492019190915290565b6103ba610719366004612f44565b6113e5565b6103ba611414565b610359610734366004612f44565b611454565b6103ba610747366004612fa3565b611501565b6103ef61075a366004612f44565b600460205260009081526040902080546001820154600290920154600f82810b93600160801b909304900b919084565b610326610798366004612fa3565b61166c565b6103266107ab366004612f44565b60066020526000908152604090205481565b6103266107cb366004612f44565b611678565b6103086107de366004613153565b6001600160a01b03918216600090815260116020908152604080832093909416825291909152205460ff1690565b61032661081a366004612f44565b6000908152600160208190526040909120015490565b6103ba61083e366004612f44565b6116a0565b61038f7f000000000000000000000000000000000000000000000000000000000000000081565b6103ba610878366004612f44565b6116d1565b6000818152600c60205260409020546001600160a01b03168061089f57600080fd5b806001600160a01b0316836001600160a01b031614156108be57600080fd5b6000828152600c60209081526040808320546001600160a01b0385811685526011845282852033808752945291909320549216149060ff1681806108ff5750805b61090857600080fd5b6000848152600d602052604080822080546001600160a01b0319166001600160a01b0389811691821790925591518793918716917f8c5be1e5ebec7d5bd14f71427d1e84f3dd0314c0f7b2291e5b200ac8c7c3b92591a45050505050565b600560205281600052604060002081633b9aca00811061098557600080fd5b6003020180546001820154600290920154600f82810b9550600160801b90920490910b925084565b60006109b842610e00565b905090565b600082815260056020526040812082633b9aca0081106109df576109df613186565b600302016001015490505b92915050565b6109fc83838333611703565b505050565b6109fc838383604051806020016040528060008152506112b8565b6000610a2883836117c9565b9392505050565b6000818152600660209081526040808320546005909252822081633b9aca008110610a5c57610a5c613186565b6003020154600160801b9004600f0b9392505050565b600a546001600160a01b03163314610a8957600080fd5b600a80546001600160a01b0319166001600160a01b0392909216919091179055565b60135460009060ff16600114610ac057600080fd5b6013805460ff19166002179055610ad883833361182f565b90506013805460ff1916600117905592915050565b60135460ff16600114610aff57600080fd5b6013805460ff19166002179055610b1633826117c9565b610b2257610b2261319c565b600081815260086020526040902054158015610b4d575060008181526009602052604090205460ff16155b610b725760405162461bcd60e51b8152600401610b69906131b2565b60405180910390fd5b60008181526001602081815260409283902083518085019094528054600f0b845290910154908201819052421015610be55760405162461bcd60e51b8152602060048201526016602482015275546865206c6f636b206469646e27742065787069726560501b6044820152606401610b69565b805160408051808201825260008082526020808301828152878352600191829052938220925183546001600160801b0319166001600160801b039091161783559251919092015554600f9190910b90610c3e82826131ea565b600081905550610c68848460405180604001604052806000600f0b81526020016000815250611a50565b60405163a9059cbb60e01b8152336004820152602481018390527f00000000000000000000000000000000000000000000000000000000000000006001600160a01b03169063a9059cbb906044016020604051808303816000875af1158015610cd5573d6000803e3d6000fd5b505050506040513d601f19601f82011682018060405250810190610cf99190613201565b610d0557610d0561319c565b610d0e8461206d565b60408051858152602081018490524281830152905133917f02f25270a4d87bea75db541cdfe559334a275b4a233520ed6c0a2429667cca94919081900360600190a2604080518381526001602082015233917f0f0f7f8153c6d63a5696720d4cc434e56bb5ac1cf8c791ed9c180defb6e92153910160405180910390a27f5e2aa66efd74cce82b21852e317e5490d9ecc9e6bb953ae24d90851258cc2f5c81610db784826131ea565b6040805192835260208301919091520160405180910390a150506013805460ff191660011790555050565b6001600160a01b0381166000908152600e60205260408120546109ea565b600354600081815260046020908152604080832081516080810183528154600f81810b8352600160801b909104900b93810193909352600181015491830191909152600201546060820152909190610e58818561212c565b949350505050565b6000610a28838361222e565b600043821115610e7e57610e7e61319c565b6003546000610e8d8483612506565b600081815260046020908152604080832081516080810183528154600f81810b8352600160801b909104900b9381019390935260018101549183019190915260020154606082015291925083831015610f9c576000600481610ef086600161321e565b8152602080820192909252604090810160002081516080810183528154600f81810b8352600160801b909104900b9381019390935260018101549183019190915260020154606080830182905285015191925014610f965782606001518160600151610f5c91906131ea565b83604001518260400151610f7091906131ea565b6060850151610f7f908a6131ea565b610f899190613236565b610f93919061326b565b91505b50610feb565b43826060015114610feb576060820151610fb690436131ea565b6040830151610fc590426131ea565b6060840151610fd490896131ea565b610fde9190613236565b610fe8919061326b565b90505b61100482828460400151610fff919061321e565b61212c565b9695505050505050565b600a546001600160a01b0316331461102557600080fd5b600081815260086020526040902054611040906001906131ea565b60009182526008602052604090912055565b6001600160a01b03821633141561106b5761106b61319c565b3360008181526011602090815260408083206001600160a01b03871680855290835292819020805460ff191686151590811790915590519081529192917f17307eab39ab6107e8899845ad3d59bd9653f200f220920489ca2b5937696c31910160405180910390a35050565b60135460ff166001146110e957600080fd5b6013805460ff1916600217905561110033836117c9565b61110c5761110c61319c565b600082815260016020818152604080842081518083019092528054600f0b825290920154908201529062093a8080611144854261321e565b61114e919061326b565b6111589190613236565b90504282602001511161119c5760405162461bcd60e51b815260206004820152600c60248201526b131bd8dac8195e1c1a5c995960a21b6044820152606401610b69565b60008260000151600f0b136111e75760405162461bcd60e51b8152602060048201526011602482015270139bdd1a1a5b99c81a5cc81b1bd8dad959607a1b6044820152606401610b69565b8160200151811161123a5760405162461bcd60e51b815260206004820152601f60248201527f43616e206f6e6c7920696e637265617365206c6f636b206475726174696f6e006044820152606401610b69565b61124762f142804261321e565b8111156112965760405162461bcd60e51b815260206004820152601f60248201527f566f74696e67206c6f636b2063616e2062652036206d6f6e746873206d6178006044820152606401610b69565b6112a584600083856003612590565b50506013805460ff191660011790555050565b6112c484848433611703565b823b156113df57604051630a85bd0160e11b81526001600160a01b0384169063150b7a02906112fd90339088908790879060040161327f565b6020604051808303816000875af1925050508015611338575060408051601f3d908101601f19168201909252611335918101906132b2565b60015b6113dd573d808015611366576040519150601f19603f3d011682016040523d82523d6000602084013e61136b565b606091505b5080516113d55760405162461bcd60e51b815260206004820152603260248201527f4552433732313a207472616e7366657220746f206e6f6e20455243373231526560448201527131b2b4bb32b91034b6b83632b6b2b73a32b960711b6064820152608401610b69565b805181602001fd5b505b50505050565b600a546001600160a01b031633146113fc57600080fd5b6000908152600960205260409020805460ff19169055565b611452600060405180604001604052806000600f0b8152602001600081525060405180604001604052806000600f0b81526020016000815250611a50565b565b6000818152600c60205260409020546060906001600160a01b03166114bb5760405162461bcd60e51b815260206004820152601b60248201527f517565727920666f72206e6f6e6578697374656e7420746f6b656e00000000006044820152606401610b69565b60008281526001602081815260409283902083518085019094528054600f0b84529091015490820152610a28836114f28142612795565b60208401518451600f0b612867565b60008281526008602052604090205415801561152c575060008281526009602052604090205460ff16155b6115485760405162461bcd60e51b8152600401610b69906131b2565b8082141561155557600080fd5b61155f33836117c9565b61156857600080fd5b61157233826117c9565b61157b57600080fd5b6000828152600160208181526040808420815180830183528154600f90810b82529185015481850190815287875285855283872084518086019095528054840b855290950154938301849052805194519095929490910b9211156115e35782602001516115e9565b83602001515b604080518082018252600080825260208083018281528b83526001808352858420945185546001600160801b0319166001600160801b03909116178555905193019290925582518084019093528083529082015290915061164d9087908690611a50565b6116568661206d565b611664858383866004612590565b505050505050565b6000610a288383612795565b60008181526002602052604081205443141561169657506000919050565b6109ea8242612795565b600a546001600160a01b031633146116b757600080fd5b60008181526008602052604090205461104090600161321e565b600a546001600160a01b031633146116e857600080fd5b6000908152600960205260409020805460ff19166001179055565b60008281526008602052604090205415801561172e575060008281526009602052604090205460ff16155b61174a5760405162461bcd60e51b8152600401610b69906131b2565b61175481836117c9565b61175d57600080fd5b611767848361299e565b6117718483612a05565b61177b8383612a86565b6000828152600260205260408082204390555183916001600160a01b0380871692908816917fddf252ad1be2c89b69c2b068fc378daa952ba7f163c4a11628f55a4df523b3ef91a450505050565b6000818152600c6020908152604080832054600d8352818420546001600160a01b039182168086526011855283862088841680885295529285205492938085149392909116149060ff16828061181c5750815b806118245750805b979650505050505050565b60008062093a8080611841864261321e565b61184b919061326b565b6118559190613236565b6040516370a0823160e01b81523060048201529091506000906001600160a01b037f000000000000000000000000000000000000000000000000000000000000000016906370a0823190602401602060405180830381865afa1580156118bf573d6000803e3d6000fd5b505050506040513d601f19601f820116820180604052508101906118e391906132cf565b905060006118ef6109ad565b905060008115806118fe575082155b1561190a575086611925565b600083611917848b613236565b611921919061326b565b9150505b6000881161193257600080fd5b4284116119905760405162461bcd60e51b815260206004820152602660248201527f43616e206f6e6c79206c6f636b20756e74696c2074696d6520696e207468652060448201526566757475726560d01b6064820152608401610b69565b61199d62f142804261321e565b8411156119ec5760405162461bcd60e51b815260206004820152601f60248201527f566f74696e67206c6f636b2063616e2062652036206d6f6e746873206d6178006044820152606401610b69565b600b600081546119fb906132e8565b90915550600b54611a0c8782612b1c565b5060008181526001602081815260409283902083518085019094528054600f0b845282015490830152611a449183918c918991612590565b9450610a289350505050565b60408051608081018252600080825260208201819052918101829052606081019190915260408051608081018252600080825260208201819052918101829052606081019190915260035460009081908715611bba57428760200151118015611ac0575060008760000151600f0b135b15611b04578651611ad59062f1428090613303565b600f0b602080870191909152870151611aef9042906131ea565b8560200151611afe9190613341565b600f0b85525b428660200151118015611b1e575060008660000151600f0b135b15611b62578551611b339062f1428090613303565b600f0b602080860191909152860151611b4d9042906131ea565b8460200151611b5c9190613341565b600f0b84525b602080880151600090815260078252604090205490870151600f9190910b935015611bba57866020015186602001511415611b9f57829150611bba565b602080870151600090815260079091526040902054600f0b91505b604080516080810182526000808252602082015242918101919091524360608201528115611c2f575060008181526004602090815260409182902082516080810184528154600f81810b8352600160801b909104900b9281019290925260018101549282019290925260029091015460608201525b604081015181600042831015611c7c576040840151611c4e90426131ea565b6060850151611c5d90436131ea565b611c6f90670de0b6b3a7640000613236565b611c79919061326b565b90505b600062093a80611c8c818661326b565b611c969190613236565b905060005b60ff811015611e1157611cb162093a808361321e565b9150600042831115611cc557429250611cd9565b50600082815260076020526040902054600f0b5b611ce386846131ea565b8760200151611cf29190613341565b87518890611d019083906133d6565b600f0b905250602087018051829190611d1b908390613426565b600f90810b90915288516000910b12159050611d3657600087525b60008760200151600f0b1215611d4e57600060208801525b60408088018490528501519295508592670de0b6b3a764000090611d7290856131ea565b611d7c9086613236565b611d86919061326b565b8560600151611d95919061321e565b6060880152611da560018961321e565b975042831415611dbb5750436060870152611e11565b6000888152600460209081526040918290208951918a01516001600160801b03908116600160801b029216919091178155908801516001820155606088015160029091015550611e0a816132e8565b9050611c9b565b505060038590558b15611e9c5788602001518860200151611e3291906133d6565b84602001818151611e439190613426565b600f0b90525088518851611e5791906133d6565b84518590611e66908390613426565b600f90810b90915260208601516000910b12159050611e8757600060208501525b60008460000151600f0b1215611e9c57600084525b6000858152600460209081526040918290208651918701516001600160801b03908116600160801b02921691909117815590850151600182015560608501516002909101558b1561205f57428b602001511115611f54576020890151611f029088613426565b96508a602001518a602001511415611f26576020880151611f2390886133d6565b96505b60208b810151600090815260079091526040902080546001600160801b0319166001600160801b0389161790555b428a602001511115611faf578a602001518a602001511115611faf576020880151611f7f90876133d6565b60208b810151600090815260079091526040902080546001600160801b0319166001600160801b03831617905595505b60008c815260066020526040812054611fc990600161321e565b905080600660008f815260200190815260200160002081905550428960400181815250504389606001818152505088600560008f815260200190815260200160002082633b9aca00811061201f5761201f613186565b825160208401516001600160801b03908116600160801b029116176003919091029190910190815560408201516001820155606090910151600290910155505b505050505050505050505050565b61207733826117c9565b6120c35760405162461bcd60e51b815260206004820181905260248201527f63616c6c6572206973206e6f74206f776e6572206e6f7220617070726f7665646044820152606401610b69565b6000818152600c60205260408120546001600160a01b0316906120e6908361087d565b6120f03383612a05565b60405182906000906001600160a01b038416907fddf252ad1be2c89b69c2b068fc378daa952ba7f163c4a11628f55a4df523b3ef908390a45050565b600080839050600062093a80808360400151612148919061326b565b6121529190613236565b905060005b60ff8110156122065761216d62093a808361321e565b915060008583111561218157859250612195565b50600082815260076020526040902054600f0b5b60408401516121a490846131ea565b84602001516121b39190613341565b845185906121c29083906133d6565b600f0b905250828614156121d65750612206565b80846020018181516121e89190613426565b600f0b90525050604083018290526121ff816132e8565b9050612157565b5060008260000151600f0b121561221c57600082525b50516001600160801b03169392505050565b6000438211156122405761224061319c565b600083815260066020526040812054815b60808110156122e457818310612266576122e4565b60006002612274848661321e565b61227f90600161321e565b612289919061326b565b6000888152600560205260409020909150869082633b9aca0081106122b0576122b0613186565b6003020160020154116122c5578093506122d3565b6122d06001826131ea565b92505b506122dd816132e8565b9050612251565b50600085815260056020526040812083633b9aca00811061230757612307613186565b604080516080810182526003928302939093018054600f81810b8652600160801b909104900b60208501526001810154918401919091526002015460608301525490915060006123578783612506565b600081815260046020908152604080832081516080810183528154600f81810b8352600160801b909104900b9381019390935260018101549183019190915260020154606082015291925080848410156124365760006004816123bb87600161321e565b8152602080820192909252604090810160002081516080810183528154600f81810b8352600160801b909104900b9381019390935260018101549183019190915260020154606080830182905286015191925061241891906131ea565b92508360400151816040015161242e91906131ea565b91505061245a565b606083015161244590436131ea565b915082604001514261245791906131ea565b90505b60408301518215612497578284606001518c61247691906131ea565b6124809084613236565b61248a919061326b565b612494908261321e565b90505b60408701516124a690826131ea565b87602001516124b59190613341565b875188906124c49083906133d6565b600f90810b90915288516000910b1290506124f457505093516001600160801b031696506109ea95505050505050565b600099505050505050505050506109ea565b60008082815b60808110156125865781831061252157612586565b6000600261252f848661321e565b61253a90600161321e565b612544919061326b565b600081815260046020526040902060020154909150871061256757809350612575565b6125726001826131ea565b92505b5061257f816132e8565b905061250c565b5090949350505050565b600054829061259f868261321e565b6000908155604080518082019091528181526020810191909152825160208085015190830152600f0b81528251879084906125db908390613426565b600f0b90525085156125ef57602083018690525b6000888152600160208181526040909220855181546001600160801b0319166001600160801b039091161781559185015191015561262e888285611a50565b3387158015906126505750600485600481111561264d5761264d613475565b14155b156126fa576040516323b872dd60e01b81526001600160a01b038281166004830152306024830152604482018a90527f000000000000000000000000000000000000000000000000000000000000000016906323b872dd906064016020604051808303816000875af11580156126ca573d6000803e3d6000fd5b505050506040513d601f19601f820116820180604052508101906126ee9190613201565b6126fa576126fa61319c565b8360200151816001600160a01b03167fff04ccafc360e16b67d682d17bd9503c4c6b9a131f6be6325762dc9ffc7de6248b8b894260405161273e949392919061348b565b60405180910390a37f5e2aa66efd74cce82b21852e317e5490d9ecc9e6bb953ae24d90851258cc2f5c836127728a8261321e565b6040805192835260208301919091520160405180910390a1505050505050505050565b600082815260066020526040812054806127b35760009150506109ea565b600084815260056020526040812082633b9aca0081106127d5576127d5613186565b60408051608081018252600392909202929092018054600f81810b8452600160801b909104900b60208301526001810154928201839052600201546060820152915061282190856134c9565b81602001516128309190613341565b8151829061283f9083906133d6565b600f90810b90915282516000910b1215905061285a57600081525b51600f0b91506109ea9050565b606060405180610120016040528060fd815260200161384f60fd913990508061288f86612b7f565b6040516020016128a0929190613508565b6040516020818303038152906040529050806128bb85612b7f565b6040516020016128cc929190613584565b6040516020818303038152906040529050806128e784612b7f565b6040516020016128f8929190613604565b60405160208183030381529060405290508061291383612b7f565b604051602001612924929190613685565b6040516020818303038152906040529050600061297161294387612b7f565b61294c84612c7d565b60405160200161295d9291906136e0565b604051602081830303815290604052612c7d565b90508060405160200161298491906137f5565b604051602081830303815290604052915050949350505050565b6000818152600c60205260409020546001600160a01b038381169116146129c7576129c761319c565b6000818152600d60205260409020546001600160a01b031615612a01576000818152600d6020526040902080546001600160a01b03191690555b5050565b6000818152600c60205260409020546001600160a01b03838116911614612a2e57612a2e61319c565b6000818152600c6020526040902080546001600160a01b0319169055612a548282612de3565b6001600160a01b0382166000908152600e60205260408120805460019290612a7d9084906131ea565b90915550505050565b6000818152600c60205260409020546001600160a01b031615612aab57612aab61319c565b6000818152600c6020908152604080832080546001600160a01b0319166001600160a01b038716908117909155808452600e8084528285208054600f865284872081885286528487208890558787526010865293862093909355908452909152805460019290612a7d90849061321e565b60006001600160a01b038316612b3457612b3461319c565b612b3e8383612a86565b60405182906001600160a01b038516906000907fddf252ad1be2c89b69c2b068fc378daa952ba7f163c4a11628f55a4df523b3ef908290a450600192915050565b606081612ba35750506040805180820190915260018152600360fc1b602082015290565b8160005b8115612bcd5780612bb7816132e8565b9150612bc69050600a8361326b565b9150612ba7565b60008167ffffffffffffffff811115612be857612be8613061565b6040519080825280601f01601f191660200182016040528015612c12576020820181803683370190505b5090505b8415610e5857612c276001836131ea565b9150612c34600a8661383a565b612c3f90603061321e565b60f81b818381518110612c5457612c54613186565b60200101906001600160f81b031916908160001a905350612c76600a8661326b565b9450612c16565b805160609080612c9d575050604080516020810190915260008152919050565b60006003612cac83600261321e565b612cb6919061326b565b612cc1906004613236565b90506000612cd082602061321e565b67ffffffffffffffff811115612ce857612ce8613061565b6040519080825280601f01601f191660200182016040528015612d12576020820181803683370190505b509050600060405180606001604052806040815260200161394c604091399050600181016020830160005b86811015612d9e576003818a01810151603f601282901c8116860151600c83901c8216870151600684901c831688015192909316870151600891821b60ff94851601821b92841692909201901b91160160e01b835260049092019101612d3d565b506003860660018114612db85760028114612dc957612dd5565b613d3d60f01b600119830152612dd5565b603d60f81b6000198301525b505050918152949350505050565b6001600160a01b0382166000908152600e6020526040812054612e08906001906131ea565b60008381526010602052604090205490915080821415612e58576001600160a01b0384166000908152600f60209081526040808320858452825280832083905585835260109091528120556113df565b6001600160a01b03939093166000908152600f602090815260408083209383529281528282208054868452848420819055835260109091528282209490945592839055908252812055565b6001600160e01b031981168114612eb957600080fd5b50565b600060208284031215612ece57600080fd5b8135610a2881612ea3565b60005b83811015612ef4578181015183820152602001612edc565b838111156113df5750506000910152565b60008151808452612f1d816020860160208601612ed9565b601f01601f19169290920160200192915050565b602081526000610a286020830184612f05565b600060208284031215612f5657600080fd5b5035919050565b80356001600160a01b0381168114612f7457600080fd5b919050565b60008060408385031215612f8c57600080fd5b612f9583612f5d565b946020939093013593505050565b60008060408385031215612fb657600080fd5b50508035926020909101359150565b600080600060608486031215612fda57600080fd5b612fe384612f5d565b9250612ff160208501612f5d565b9150604084013590509250925092565b60006020828403121561301357600080fd5b610a2882612f5d565b8015158114612eb957600080fd5b6000806040838503121561303d57600080fd5b61304683612f5d565b915060208301356130568161301c565b809150509250929050565b634e487b7160e01b600052604160045260246000fd5b6000806000806080858703121561308d57600080fd5b61309685612f5d565b93506130a460208601612f5d565b925060408501359150606085013567ffffffffffffffff808211156130c857600080fd5b818701915087601f8301126130dc57600080fd5b8135818111156130ee576130ee613061565b604051601f8201601f19908116603f0116810190838211818310171561311657613116613061565b816040528281528a602084870101111561312f57600080fd5b82602086016020830137600060208483010152809550505050505092959194509250565b6000806040838503121561316657600080fd5b61316f83612f5d565b915061317d60208401612f5d565b90509250929050565b634e487b7160e01b600052603260045260246000fd5b634e487b7160e01b600052600160045260246000fd5b602080825260089082015267185d1d1858da195960c21b604082015260600190565b634e487b7160e01b600052601160045260246000fd5b6000828210156131fc576131fc6131d4565b500390565b60006020828403121561321357600080fd5b8151610a288161301c565b60008219821115613231576132316131d4565b500190565b6000816000190483118215151615613250576132506131d4565b500290565b634e487b7160e01b600052601260045260246000fd5b60008261327a5761327a613255565b500490565b6001600160a01b038581168252841660208201526040810183905260806060820181905260009061100490830184612f05565b6000602082840312156132c457600080fd5b8151610a2881612ea3565b6000602082840312156132e157600080fd5b5051919050565b60006000198214156132fc576132fc6131d4565b5060010190565b600081600f0b83600f0b8061331a5761331a613255565b60016001607f1b0319821460001982141615613338576133386131d4565b90059392505050565b600081600f0b83600f0b60016001607f1b03600082136000841383830485118282161615613371576133716131d4565b60016001607f1b03196000851282811687830587121615613394576133946131d4565b600087129250858205871284841616156133b0576133b06131d4565b858505871281841616156133c6576133c66131d4565b5050509290910295945050505050565b600081600f0b83600f0b600081128160016001607f1b031901831281151615613401576134016131d4565b8160016001607f1b0301831381161561341c5761341c6131d4565b5090039392505050565b600081600f0b83600f0b600082128260016001607f1b0303821381151615613450576134506131d4565b8260016001607f1b031903821281161561346c5761346c6131d4565b50019392505050565b634e487b7160e01b600052602160045260246000fd5b8481526020810184905260808101600584106134b757634e487b7160e01b600052602160045260246000fd5b60408201939093526060015292915050565b60008083128015600160ff1b8501841216156134e7576134e76131d4565b6001600160ff1b0384018313811615613502576135026131d4565b50500390565b6000835161351a818460208801612ed9565b6503a37b5b2b7160d51b908301908152835161353d816006840160208801612ed9565b7f3c2f746578743e3c7465787420783d2231302220793d2234302220636c61737360069290910191820152671e913130b9b2911f60c11b6026820152602e01949350505050565b60008351613596818460208801612ed9565b6903130b630b731b2a7b3160b51b90830190815283516135bd81600a840160208801612ed9565b7f3c2f746578743e3c7465787420783d2231302220793d2236302220636c617373600a9290910191820152671e913130b9b2911f60c11b602a820152603201949350505050565b60008351613616818460208801612ed9565b6a03637b1b5b2b22fb2b732160ad1b908301908152835161363e81600b840160208801612ed9565b7f3c2f746578743e3c7465787420783d2231302220793d2238302220636c617373600b9290910191820152671e913130b9b2911f60c11b602b820152603301949350505050565b60008351613697818460208801612ed9565b6503b30b63ab2960d51b90830190815283516136ba816006840160208801612ed9565b6c1e17ba32bc3a1f1e17b9bb339f60991b60069290910191820152601301949350505050565b6f7b226e616d65223a20226c6f636b202360801b8152825160009061370c816010850160208801612ed9565b7f222c20226465736372697074696f6e223a2022536f6c69646c79206c6f636b736010918401918201527f2c2063616e206265207573656420746f20626f6f73742067617567652079696560308201527f6c64732c20766f7465206f6e20746f6b656e20656d697373696f6e2c20616e6460508201527f207265636569766520627269626573222c2022696d616765223a2022646174616070820152750e9a5b5859d94bdcdd99cade1b5b0ed8985cd94d8d0b60521b609082015283516137da8160a6840160208801612ed9565b61227d60f01b60a6929091019182015260a801949350505050565b7f646174613a6170706c69636174696f6e2f6a736f6e3b6261736536342c00000081526000825161382d81601d850160208701612ed9565b91909101601d0192915050565b60008261384957613849613255565b50069056fe3c73766720786d6c6e733d22687474703a2f2f7777772e77332e6f72672f323030302f73766722207072657365727665417370656374526174696f3d22784d696e594d696e206d656574222076696577426f783d223020302033353020333530223e3c7374796c653e2e62617365207b2066696c6c3a2077686974653b20666f6e742d66616d696c793a2073657269663b20666f6e742d73697a653a20313470783b207d3c2f7374796c653e3c726563742077696474683d223130302522206865696768743d2231303025222066696c6c3d22626c61636b22202f3e3c7465787420783d2231302220793d2232302220636c6173733d2262617365223e4142434445464748494a4b4c4d4e4f505152535455565758595a6162636465666768696a6b6c6d6e6f707172737475767778797a303132333435363738392b2fa264697066735822122063d223aaa9cbf795f0c7c382ec4afe752cb5179853a2da3206b6f2c4c2f996ac64736f6c634300080b0033ddf252ad1be2c89b69c2b068fc378daa952ba7f163c4a11628f55a4df523b3ef","opcodes":"PUSH1 0xA0 PUSH1 0x40 MSTORE PUSH1 0x13 DUP1 SLOAD PUSH1 0xFF NOT AND PUSH1 0x1 OR SWAP1 SSTORE CALLVALUE DUP1 ISZERO PUSH3 0x1E JUMPI PUSH1 0x0 DUP1 REVERT JUMPDEST POP PUSH1 0x40 MLOAD PUSH3 0x3BC5 CODESIZE SUB DUP1 PUSH3 0x3BC5 DUP4 CODECOPY DUP2 ADD PUSH1 0x40 DUP2 SWAP1 MSTORE PUSH3 0x41 SWAP2 PUSH3 0x181 JUMP JUMPDEST PUSH1 0x1 PUSH1 0x1 PUSH1 0xA0 SHL SUB DUP2 AND PUSH1 0x80 MSTORE PUSH1 0xA DUP1 SLOAD PUSH1 0x1 PUSH1 0x1 PUSH1 0xA0 SHL SUB NOT AND CALLER OR SWAP1 SSTORE NUMBER PUSH32 0x17EF568E3E12AB5B9C7254A8D58478811DE00F9E6EB34345ACD53BF8FD09D3EE SSTORE TIMESTAMP PUSH32 0x17EF568E3E12AB5B9C7254A8D58478811DE00F9E6EB34345ACD53BF8FD09D3ED SSTORE PUSH1 0x12 PUSH1 0x20 MSTORE PUSH32 0x6AFEBFA21C417411AB7392A59BBB98EC35612153C5E8AEB3F64F4E016707B77A DUP1 SLOAD PUSH1 0xFF NOT SWAP1 DUP2 AND PUSH1 0x1 SWAP1 DUP2 OR SWAP1 SWAP3 SSTORE PUSH32 0xDF428CE7B59746CF2E618E63C6311D427105F2C3DC163FF0902907DEA1728DF5 DUP1 SLOAD DUP3 AND DUP4 OR SWAP1 SSTORE PUSH4 0x5B5E139F PUSH1 0xE0 SHL PUSH1 0x0 SWAP1 DUP2 MSTORE PUSH32 0xC0E00DDA16840520B43384D85650EDBBAD8E5AFCB041D20F42EB5AEA304558CD DUP1 SLOAD SWAP1 SWAP3 AND SWAP1 SWAP3 OR SWAP1 SSTORE PUSH1 0xB SLOAD PUSH1 0x40 MLOAD SWAP1 SWAP2 ADDRESS SWAP2 PUSH1 0x0 DUP1 MLOAD PUSH1 0x20 PUSH3 0x3BA5 DUP4 CODECOPY DUP2 MLOAD SWAP2 MSTORE SWAP1 DUP3 SWAP1 LOG4 PUSH1 0xB SLOAD PUSH1 0x40 MLOAD PUSH1 0x0 SWAP1 ADDRESS SWAP1 PUSH1 0x0 DUP1 MLOAD PUSH1 0x20 PUSH3 0x3BA5 DUP4 CODECOPY DUP2 MLOAD SWAP2 MSTORE SWAP1 DUP4 SWAP1 LOG4 POP PUSH3 0x1B3 JUMP JUMPDEST PUSH1 0x0 PUSH1 0x20 DUP3 DUP5 SUB SLT ISZERO PUSH3 0x194 JUMPI PUSH1 0x0 DUP1 REVERT JUMPDEST DUP2 MLOAD PUSH1 0x1 PUSH1 0x1 PUSH1 0xA0 SHL SUB DUP2 AND DUP2 EQ PUSH3 0x1AC JUMPI PUSH1 0x0 DUP1 REVERT JUMPDEST SWAP4 SWAP3 POP POP POP JUMP JUMPDEST PUSH1 0x80 MLOAD PUSH2 0x39C1 PUSH3 0x1E4 PUSH1 0x0 CODECOPY PUSH1 0x0 DUP2 DUP2 PUSH2 0x848 ADD MSTORE DUP2 DUP2 PUSH2 0xC84 ADD MSTORE DUP2 DUP2 PUSH2 0x1878 ADD MSTORE PUSH2 0x2681 ADD MSTORE PUSH2 0x39C1 PUSH1 0x0 RETURN INVALID PUSH1 0x80 PUSH1 0x40 MSTORE CALLVALUE DUP1 ISZERO PUSH2 0x10 JUMPI PUSH1 0x0 DUP1 REVERT JUMPDEST POP PUSH1 0x4 CALLDATASIZE LT PUSH2 0x2D6 JUMPI PUSH1 0x0 CALLDATALOAD PUSH1 0xE0 SHR DUP1 PUSH4 0x71197484 GT PUSH2 0x182 JUMPI DUP1 PUSH4 0xC1F0FB9F GT PUSH2 0xE9 JUMPI DUP1 PUSH4 0xE441135C GT PUSH2 0xA2 JUMPI DUP1 PUSH4 0xF8A05763 GT PUSH2 0x7C JUMPI DUP1 PUSH4 0xF8A05763 EQ PUSH2 0x80C JUMPI DUP1 PUSH4 0xFBD3A29D EQ PUSH2 0x830 JUMPI DUP1 PUSH4 0xFC0C546A EQ PUSH2 0x843 JUMPI DUP1 PUSH4 0xFD4A77F1 EQ PUSH2 0x86A JUMPI PUSH1 0x0 DUP1 REVERT JUMPDEST DUP1 PUSH4 0xE441135C EQ PUSH2 0x79D JUMPI DUP1 PUSH4 0xE7E242D4 EQ PUSH2 0x7BD JUMPI DUP1 PUSH4 0xE985E9C5 EQ PUSH2 0x7D0 JUMPI PUSH1 0x0 DUP1 REVERT JUMPDEST DUP1 PUSH4 0xC1F0FB9F EQ PUSH2 0x70B JUMPI DUP1 PUSH4 0xC2C4C5C1 EQ PUSH2 0x71E JUMPI DUP1 PUSH4 0xC87B56DD EQ PUSH2 0x726 JUMPI DUP1 PUSH4 0xD1C2BABB EQ PUSH2 0x739 JUMPI DUP1 PUSH4 0xD1FEBFB9 EQ PUSH2 0x74C JUMPI DUP1 PUSH4 0xE0514ABA EQ PUSH2 0x78A JUMPI PUSH1 0x0 DUP1 REVERT JUMPDEST DUP1 PUSH4 0x986B7D8A GT PUSH2 0x13B JUMPI DUP1 PUSH4 0x986B7D8A EQ PUSH2 0x63B JUMPI DUP1 PUSH4 0xA22CB465 EQ PUSH2 0x64E JUMPI DUP1 PUSH4 0xA4D855DF EQ PUSH2 0x661 JUMPI DUP1 PUSH4 0xB45A3C0E EQ PUSH2 0x674 JUMPI DUP1 PUSH4 0xB88D4FDE EQ PUSH2 0x6BC JUMPI DUP1 PUSH4 0xBA693242 EQ PUSH2 0x6CF JUMPI PUSH1 0x0 DUP1 REVERT JUMPDEST DUP1 PUSH4 0x71197484 EQ PUSH2 0x5C6 JUMPI DUP1 PUSH4 0x8C2C9BAF EQ PUSH2 0x5E9 JUMPI DUP1 PUSH4 0x8FBB38FF EQ PUSH2 0x5FC JUMPI DUP1 PUSH4 0x900CF0CF EQ PUSH2 0x61F JUMPI DUP1 PUSH4 0x95D89B41 EQ PUSH2 0x334 JUMPI DUP1 PUSH4 0x981B24D0 EQ PUSH2 0x628 JUMPI PUSH1 0x0 DUP1 REVERT JUMPDEST DUP1 PUSH4 0x313CE567 GT PUSH2 0x241 JUMPI DUP1 PUSH4 0x54FD4D50 GT PUSH2 0x1FA JUMPI DUP1 PUSH4 0x67DFD4C9 GT PUSH2 0x1D4 JUMPI DUP1 PUSH4 0x67DFD4C9 EQ PUSH2 0x56D JUMPI DUP1 PUSH4 0x6F548837 EQ PUSH2 0x580 JUMPI DUP1 PUSH4 0x70A08231 EQ PUSH2 0x5A0 JUMPI DUP1 PUSH4 0x7116C60C EQ PUSH2 0x5B3 JUMPI PUSH1 0x0 DUP1 REVERT JUMPDEST DUP1 PUSH4 0x54FD4D50 EQ PUSH2 0x50D JUMPI DUP1 PUSH4 0x6352211E EQ PUSH2 0x531 JUMPI DUP1 PUSH4 0x65FC3873 EQ PUSH2 0x55A JUMPI PUSH1 0x0 DUP1 REVERT JUMPDEST DUP1 PUSH4 0x313CE567 EQ PUSH2 0x481 JUMPI DUP1 PUSH4 0x42842E0E EQ PUSH2 0x49B JUMPI DUP1 PUSH4 0x430C2081 EQ PUSH2 0x4AE JUMPI DUP1 PUSH4 0x461F711C EQ PUSH2 0x4C1 JUMPI DUP1 PUSH4 0x46C96AAC EQ PUSH2 0x4E7 JUMPI DUP1 PUSH4 0x4BC2A657 EQ PUSH2 0x4FA JUMPI PUSH1 0x0 DUP1 REVERT JUMPDEST DUP1 PUSH4 0x1376F3DA GT PUSH2 0x293 JUMPI DUP1 PUSH4 0x1376F3DA EQ PUSH2 0x3DC JUMPI DUP1 PUSH4 0x18160DDD EQ PUSH2 0x417 JUMPI DUP1 PUSH4 0x1C984BC3 EQ PUSH2 0x41F JUMPI DUP1 PUSH4 0x23B872DD EQ PUSH2 0x432 JUMPI DUP1 PUSH4 0x25A58B56 EQ PUSH2 0x445 JUMPI DUP1 PUSH4 0x2F745C59 EQ PUSH2 0x44B JUMPI PUSH1 0x0 DUP1 REVERT JUMPDEST DUP1 PUSH4 0x1FFC9A7 EQ PUSH2 0x2DB JUMPI DUP1 PUSH4 0x47FC9AA EQ PUSH2 0x31D JUMPI DUP1 PUSH4 0x6FDDE03 EQ PUSH2 0x334 JUMPI DUP1 PUSH4 0x81812FC EQ PUSH2 0x366 JUMPI DUP1 PUSH4 0x95EA7B3 EQ PUSH2 0x3A7 JUMPI DUP1 PUSH4 0xD6A2033 EQ PUSH2 0x3BC JUMPI JUMPDEST PUSH1 0x0 DUP1 REVERT JUMPDEST PUSH2 0x308 PUSH2 0x2E9 CALLDATASIZE PUSH1 0x4 PUSH2 0x2EBC JUMP JUMPDEST PUSH1 0x1 PUSH1 0x1 PUSH1 0xE0 SHL SUB NOT AND PUSH1 0x0 SWAP1 DUP2 MSTORE PUSH1 0x12 PUSH1 0x20 MSTORE PUSH1 0x40 SWAP1 KECCAK256 SLOAD PUSH1 0xFF AND SWAP1 JUMP JUMPDEST PUSH1 0x40 MLOAD SWAP1 ISZERO ISZERO DUP2 MSTORE PUSH1 0x20 ADD JUMPDEST PUSH1 0x40 MLOAD DUP1 SWAP2 SUB SWAP1 RETURN JUMPDEST PUSH2 0x326 PUSH1 0x0 SLOAD DUP2 JUMP JUMPDEST PUSH1 0x40 MLOAD SWAP1 DUP2 MSTORE PUSH1 0x20 ADD PUSH2 0x314 JUMP JUMPDEST PUSH2 0x359 PUSH1 0x40 MLOAD DUP1 PUSH1 0x40 ADD PUSH1 0x40 MSTORE DUP1 PUSH1 0x6 DUP2 MSTORE PUSH1 0x20 ADD PUSH6 0x766557415645 PUSH1 0xD0 SHL DUP2 MSTORE POP DUP2 JUMP JUMPDEST PUSH1 0x40 MLOAD PUSH2 0x314 SWAP2 SWAP1 PUSH2 0x2F31 JUMP JUMPDEST PUSH2 0x38F PUSH2 0x374 CALLDATASIZE PUSH1 0x4 PUSH2 0x2F44 JUMP JUMPDEST PUSH1 0x0 SWAP1 DUP2 MSTORE PUSH1 0xD PUSH1 0x20 MSTORE PUSH1 0x40 SWAP1 KECCAK256 SLOAD PUSH1 0x1 PUSH1 0x1 PUSH1 0xA0 SHL SUB AND SWAP1 JUMP JUMPDEST PUSH1 0x40 MLOAD PUSH1 0x1 PUSH1 0x1 PUSH1 0xA0 SHL SUB SWAP1 SWAP2 AND DUP2 MSTORE PUSH1 0x20 ADD PUSH2 0x314 JUMP JUMPDEST PUSH2 0x3BA PUSH2 0x3B5 CALLDATASIZE PUSH1 0x4 PUSH2 0x2F79 JUMP JUMPDEST PUSH2 0x87D JUMP JUMPDEST STOP JUMPDEST PUSH2 0x326 PUSH2 0x3CA CALLDATASIZE PUSH1 0x4 PUSH2 0x2F44 JUMP JUMPDEST PUSH1 0x8 PUSH1 0x20 MSTORE PUSH1 0x0 SWAP1 DUP2 MSTORE PUSH1 0x40 SWAP1 KECCAK256 SLOAD DUP2 JUMP JUMPDEST PUSH2 0x3EF PUSH2 0x3EA CALLDATASIZE PUSH1 0x4 PUSH2 0x2FA3 JUMP JUMPDEST PUSH2 0x966 JUMP JUMPDEST PUSH1 0x40 DUP1 MLOAD PUSH1 0xF SWAP6 DUP7 SIGNEXTEND DUP2 MSTORE SWAP4 SWAP1 SWAP5 SIGNEXTEND PUSH1 0x20 DUP5 ADD MSTORE SWAP3 DUP3 ADD MSTORE PUSH1 0x60 DUP2 ADD SWAP2 SWAP1 SWAP2 MSTORE PUSH1 0x80 ADD PUSH2 0x314 JUMP JUMPDEST PUSH2 0x326 PUSH2 0x9AD JUMP JUMPDEST PUSH2 0x326 PUSH2 0x42D CALLDATASIZE PUSH1 0x4 PUSH2 0x2FA3 JUMP JUMPDEST PUSH2 0x9BD JUMP JUMPDEST PUSH2 0x3BA PUSH2 0x440 CALLDATASIZE PUSH1 0x4 PUSH2 0x2FC5 JUMP JUMPDEST PUSH2 0x9F0 JUMP JUMPDEST NUMBER PUSH2 0x326 JUMP JUMPDEST PUSH2 0x326 PUSH2 0x459 CALLDATASIZE PUSH1 0x4 PUSH2 0x2F79 JUMP JUMPDEST PUSH1 0x1 PUSH1 0x1 PUSH1 0xA0 SHL SUB SWAP2 SWAP1 SWAP2 AND PUSH1 0x0 SWAP1 DUP2 MSTORE PUSH1 0xF PUSH1 0x20 SWAP1 DUP2 MSTORE PUSH1 0x40 DUP1 DUP4 KECCAK256 SWAP4 DUP4 MSTORE SWAP3 SWAP1 MSTORE KECCAK256 SLOAD SWAP1 JUMP JUMPDEST PUSH2 0x489 PUSH1 0x12 DUP2 JUMP JUMPDEST PUSH1 0x40 MLOAD PUSH1 0xFF SWAP1 SWAP2 AND DUP2 MSTORE PUSH1 0x20 ADD PUSH2 0x314 JUMP JUMPDEST PUSH2 0x3BA PUSH2 0x4A9 CALLDATASIZE PUSH1 0x4 PUSH2 0x2FC5 JUMP JUMPDEST PUSH2 0xA01 JUMP JUMPDEST PUSH2 0x308 PUSH2 0x4BC CALLDATASIZE PUSH1 0x4 PUSH2 0x2F79 JUMP JUMPDEST PUSH2 0xA1C JUMP JUMPDEST PUSH2 0x4D4 PUSH2 0x4CF CALLDATASIZE PUSH1 0x4 PUSH2 0x2F44 JUMP JUMPDEST PUSH2 0xA2F JUMP JUMPDEST PUSH1 0x40 MLOAD PUSH1 0xF SWAP2 SWAP1 SWAP2 SIGNEXTEND DUP2 MSTORE PUSH1 0x20 ADD PUSH2 0x314 JUMP JUMPDEST PUSH1 0xA SLOAD PUSH2 0x38F SWAP1 PUSH1 0x1 PUSH1 0x1 PUSH1 0xA0 SHL SUB AND DUP2 JUMP JUMPDEST PUSH2 0x3BA PUSH2 0x508 CALLDATASIZE PUSH1 0x4 PUSH2 0x3001 JUMP JUMPDEST PUSH2 0xA72 JUMP JUMPDEST PUSH2 0x359 PUSH1 0x40 MLOAD DUP1 PUSH1 0x40 ADD PUSH1 0x40 MSTORE DUP1 PUSH1 0x5 DUP2 MSTORE PUSH1 0x20 ADD PUSH5 0x312E302E3 PUSH1 0xDC SHL DUP2 MSTORE POP DUP2 JUMP JUMPDEST PUSH2 0x38F PUSH2 0x53F CALLDATASIZE PUSH1 0x4 PUSH2 0x2F44 JUMP JUMPDEST PUSH1 0x0 SWAP1 DUP2 MSTORE PUSH1 0xC PUSH1 0x20 MSTORE PUSH1 0x40 SWAP1 KECCAK256 SLOAD PUSH1 0x1 PUSH1 0x1 PUSH1 0xA0 SHL SUB AND SWAP1 JUMP JUMPDEST PUSH2 0x326 PUSH2 0x568 CALLDATASIZE PUSH1 0x4 PUSH2 0x2FA3 JUMP JUMPDEST PUSH2 0xAAB JUMP JUMPDEST PUSH2 0x3BA PUSH2 0x57B CALLDATASIZE PUSH1 0x4 PUSH2 0x2F44 JUMP JUMPDEST PUSH2 0xAED JUMP JUMPDEST PUSH2 0x326 PUSH2 0x58E CALLDATASIZE PUSH1 0x4 PUSH2 0x2F44 JUMP JUMPDEST PUSH1 0x2 PUSH1 0x20 MSTORE PUSH1 0x0 SWAP1 DUP2 MSTORE PUSH1 0x40 SWAP1 KECCAK256 SLOAD DUP2 JUMP JUMPDEST PUSH2 0x326 PUSH2 0x5AE CALLDATASIZE PUSH1 0x4 PUSH2 0x3001 JUMP JUMPDEST PUSH2 0xDE2 JUMP JUMPDEST PUSH2 0x326 PUSH2 0x5C1 CALLDATASIZE PUSH1 0x4 PUSH2 0x2F44 JUMP JUMPDEST PUSH2 0xE00 JUMP JUMPDEST PUSH2 0x4D4 PUSH2 0x5D4 CALLDATASIZE PUSH1 0x4 PUSH2 0x2F44 JUMP JUMPDEST PUSH1 0x7 PUSH1 0x20 MSTORE PUSH1 0x0 SWAP1 DUP2 MSTORE PUSH1 0x40 SWAP1 KECCAK256 SLOAD PUSH1 0xF SIGNEXTEND DUP2 JUMP JUMPDEST PUSH2 0x326 PUSH2 0x5F7 CALLDATASIZE PUSH1 0x4 PUSH2 0x2FA3 JUMP JUMPDEST PUSH2 0xE60 JUMP JUMPDEST PUSH2 0x308 PUSH2 0x60A CALLDATASIZE PUSH1 0x4 PUSH2 0x2F44 JUMP JUMPDEST PUSH1 0x9 PUSH1 0x20 MSTORE PUSH1 0x0 SWAP1 DUP2 MSTORE PUSH1 0x40 SWAP1 KECCAK256 SLOAD PUSH1 0xFF AND DUP2 JUMP JUMPDEST PUSH2 0x326 PUSH1 0x3 SLOAD DUP2 JUMP JUMPDEST PUSH2 0x326 PUSH2 0x636 CALLDATASIZE PUSH1 0x4 PUSH2 0x2F44 JUMP JUMPDEST PUSH2 0xE6C JUMP JUMPDEST PUSH2 0x3BA PUSH2 0x649 CALLDATASIZE PUSH1 0x4 PUSH2 0x2F44 JUMP JUMPDEST PUSH2 0x100E JUMP JUMPDEST PUSH2 0x3BA PUSH2 0x65C CALLDATASIZE PUSH1 0x4 PUSH2 0x302A JUMP JUMPDEST PUSH2 0x1052 JUMP JUMPDEST PUSH2 0x3BA PUSH2 0x66F CALLDATASIZE PUSH1 0x4 PUSH2 0x2FA3 JUMP JUMPDEST PUSH2 0x10D7 JUMP JUMPDEST PUSH2 0x6A2 PUSH2 0x682 CALLDATASIZE PUSH1 0x4 PUSH2 0x2F44 JUMP JUMPDEST PUSH1 0x1 PUSH1 0x20 DUP2 SWAP1 MSTORE PUSH1 0x0 SWAP2 DUP3 MSTORE PUSH1 0x40 SWAP1 SWAP2 KECCAK256 DUP1 SLOAD SWAP2 ADD SLOAD PUSH1 0xF SWAP2 SWAP1 SWAP2 SIGNEXTEND SWAP1 DUP3 JUMP JUMPDEST PUSH1 0x40 DUP1 MLOAD PUSH1 0xF SWAP4 SWAP1 SWAP4 SIGNEXTEND DUP4 MSTORE PUSH1 0x20 DUP4 ADD SWAP2 SWAP1 SWAP2 MSTORE ADD PUSH2 0x314 JUMP JUMPDEST PUSH2 0x3BA PUSH2 0x6CA CALLDATASIZE PUSH1 0x4 PUSH2 0x3077 JUMP JUMPDEST PUSH2 0x12B8 JUMP JUMPDEST PUSH2 0x326 PUSH2 0x6DD CALLDATASIZE PUSH1 0x4 PUSH2 0x2F44 JUMP JUMPDEST PUSH1 0x0 SWAP1 DUP2 MSTORE PUSH1 0x1 PUSH1 0x20 DUP2 DUP2 MSTORE PUSH1 0x40 SWAP3 DUP4 SWAP1 KECCAK256 DUP4 MLOAD DUP1 DUP6 ADD SWAP1 SWAP5 MSTORE DUP1 SLOAD PUSH1 0xF SIGNEXTEND DUP1 DUP6 MSTORE SWAP3 ADD SLOAD SWAP3 ADD SWAP2 SWAP1 SWAP2 MSTORE SWAP1 JUMP JUMPDEST PUSH2 0x3BA PUSH2 0x719 CALLDATASIZE PUSH1 0x4 PUSH2 0x2F44 JUMP JUMPDEST PUSH2 0x13E5 JUMP JUMPDEST PUSH2 0x3BA PUSH2 0x1414 JUMP JUMPDEST PUSH2 0x359 PUSH2 0x734 CALLDATASIZE PUSH1 0x4 PUSH2 0x2F44 JUMP JUMPDEST PUSH2 0x1454 JUMP JUMPDEST PUSH2 0x3BA PUSH2 0x747 CALLDATASIZE PUSH1 0x4 PUSH2 0x2FA3 JUMP JUMPDEST PUSH2 0x1501 JUMP JUMPDEST PUSH2 0x3EF PUSH2 0x75A CALLDATASIZE PUSH1 0x4 PUSH2 0x2F44 JUMP JUMPDEST PUSH1 0x4 PUSH1 0x20 MSTORE PUSH1 0x0 SWAP1 DUP2 MSTORE PUSH1 0x40 SWAP1 KECCAK256 DUP1 SLOAD PUSH1 0x1 DUP3 ADD SLOAD PUSH1 0x2 SWAP1 SWAP3 ADD SLOAD PUSH1 0xF DUP3 DUP2 SIGNEXTEND SWAP4 PUSH1 0x1 PUSH1 0x80 SHL SWAP1 SWAP4 DIV SWAP1 SIGNEXTEND SWAP2 SWAP1 DUP5 JUMP JUMPDEST PUSH2 0x326 PUSH2 0x798 CALLDATASIZE PUSH1 0x4 PUSH2 0x2FA3 JUMP JUMPDEST PUSH2 0x166C JUMP JUMPDEST PUSH2 0x326 PUSH2 0x7AB CALLDATASIZE PUSH1 0x4 PUSH2 0x2F44 JUMP JUMPDEST PUSH1 0x6 PUSH1 0x20 MSTORE PUSH1 0x0 SWAP1 DUP2 MSTORE PUSH1 0x40 SWAP1 KECCAK256 SLOAD DUP2 JUMP JUMPDEST PUSH2 0x326 PUSH2 0x7CB CALLDATASIZE PUSH1 0x4 PUSH2 0x2F44 JUMP JUMPDEST PUSH2 0x1678 JUMP JUMPDEST PUSH2 0x308 PUSH2 0x7DE CALLDATASIZE PUSH1 0x4 PUSH2 0x3153 JUMP JUMPDEST PUSH1 0x1 PUSH1 0x1 PUSH1 0xA0 SHL SUB SWAP2 DUP3 AND PUSH1 0x0 SWAP1 DUP2 MSTORE PUSH1 0x11 PUSH1 0x20 SWAP1 DUP2 MSTORE PUSH1 0x40 DUP1 DUP4 KECCAK256 SWAP4 SWAP1 SWAP5 AND DUP3 MSTORE SWAP2 SWAP1 SWAP2 MSTORE KECCAK256 SLOAD PUSH1 0xFF AND SWAP1 JUMP JUMPDEST PUSH2 0x326 PUSH2 0x81A CALLDATASIZE PUSH1 0x4 PUSH2 0x2F44 JUMP JUMPDEST PUSH1 0x0 SWAP1 DUP2 MSTORE PUSH1 0x1 PUSH1 0x20 DUP2 SWAP1 MSTORE PUSH1 0x40 SWAP1 SWAP2 KECCAK256 ADD SLOAD SWAP1 JUMP JUMPDEST PUSH2 0x3BA PUSH2 0x83E CALLDATASIZE PUSH1 0x4 PUSH2 0x2F44 JUMP JUMPDEST PUSH2 0x16A0 JUMP JUMPDEST PUSH2 0x38F PUSH32 0x0 DUP2 JUMP JUMPDEST PUSH2 0x3BA PUSH2 0x878 CALLDATASIZE PUSH1 0x4 PUSH2 0x2F44 JUMP JUMPDEST PUSH2 0x16D1 JUMP JUMPDEST PUSH1 0x0 DUP2 DUP2 MSTORE PUSH1 0xC PUSH1 0x20 MSTORE PUSH1 0x40 SWAP1 KECCAK256 SLOAD PUSH1 0x1 PUSH1 0x1 PUSH1 0xA0 SHL SUB AND DUP1 PUSH2 0x89F JUMPI PUSH1 0x0 DUP1 REVERT JUMPDEST DUP1 PUSH1 0x1 PUSH1 0x1 PUSH1 0xA0 SHL SUB AND DUP4 PUSH1 0x1 PUSH1 0x1 PUSH1 0xA0 SHL SUB AND EQ ISZERO PUSH2 0x8BE JUMPI PUSH1 0x0 DUP1 REVERT JUMPDEST PUSH1 0x0 DUP3 DUP2 MSTORE PUSH1 0xC PUSH1 0x20 SWAP1 DUP2 MSTORE PUSH1 0x40 DUP1 DUP4 KECCAK256 SLOAD PUSH1 0x1 PUSH1 0x1 PUSH1 0xA0 SHL SUB DUP6 DUP2 AND DUP6 MSTORE PUSH1 0x11 DUP5 MSTORE DUP3 DUP6 KECCAK256 CALLER DUP1 DUP8 MSTORE SWAP5 MSTORE SWAP2 SWAP1 SWAP4 KECCAK256 SLOAD SWAP3 AND EQ SWAP1 PUSH1 0xFF AND DUP2 DUP1 PUSH2 0x8FF JUMPI POP DUP1 JUMPDEST PUSH2 0x908 JUMPI PUSH1 0x0 DUP1 REVERT JUMPDEST PUSH1 0x0 DUP5 DUP2 MSTORE PUSH1 0xD PUSH1 0x20 MSTORE PUSH1 0x40 DUP1 DUP3 KECCAK256 DUP1 SLOAD PUSH1 0x1 PUSH1 0x1 PUSH1 0xA0 SHL SUB NOT AND PUSH1 0x1 PUSH1 0x1 PUSH1 0xA0 SHL SUB DUP10 DUP2 AND SWAP2 DUP3 OR SWAP1 SWAP3 SSTORE SWAP2 MLOAD DUP8 SWAP4 SWAP2 DUP8 AND SWAP2 PUSH32 0x8C5BE1E5EBEC7D5BD14F71427D1E84F3DD0314C0F7B2291E5B200AC8C7C3B925 SWAP2 LOG4 POP POP POP POP POP JUMP JUMPDEST PUSH1 0x5 PUSH1 0x20 MSTORE DUP2 PUSH1 0x0 MSTORE PUSH1 0x40 PUSH1 0x0 KECCAK256 DUP2 PUSH4 0x3B9ACA00 DUP2 LT PUSH2 0x985 JUMPI PUSH1 0x0 DUP1 REVERT JUMPDEST PUSH1 0x3 MUL ADD DUP1 SLOAD PUSH1 0x1 DUP3 ADD SLOAD PUSH1 0x2 SWAP1 SWAP3 ADD SLOAD PUSH1 0xF DUP3 DUP2 SIGNEXTEND SWAP6 POP PUSH1 0x1 PUSH1 0x80 SHL SWAP1 SWAP3 DIV SWAP1 SWAP2 SIGNEXTEND SWAP3 POP DUP5 JUMP JUMPDEST PUSH1 0x0 PUSH2 0x9B8 TIMESTAMP PUSH2 0xE00 JUMP JUMPDEST SWAP1 POP SWAP1 JUMP JUMPDEST PUSH1 0x0 DUP3 DUP2 MSTORE PUSH1 0x5 PUSH1 0x20 MSTORE PUSH1 0x40 DUP2 KECCAK256 DUP3 PUSH4 0x3B9ACA00 DUP2 LT PUSH2 0x9DF JUMPI PUSH2 0x9DF PUSH2 0x3186 JUMP JUMPDEST PUSH1 0x3 MUL ADD PUSH1 0x1 ADD SLOAD SWAP1 POP JUMPDEST SWAP3 SWAP2 POP POP JUMP JUMPDEST PUSH2 0x9FC DUP4 DUP4 DUP4 CALLER PUSH2 0x1703 JUMP JUMPDEST POP POP POP JUMP JUMPDEST PUSH2 0x9FC DUP4 DUP4 DUP4 PUSH1 0x40 MLOAD DUP1 PUSH1 0x20 ADD PUSH1 0x40 MSTORE DUP1 PUSH1 0x0 DUP2 MSTORE POP PUSH2 0x12B8 JUMP JUMPDEST PUSH1 0x0 PUSH2 0xA28 DUP4 DUP4 PUSH2 0x17C9 JUMP JUMPDEST SWAP4 SWAP3 POP POP POP JUMP JUMPDEST PUSH1 0x0 DUP2 DUP2 MSTORE PUSH1 0x6 PUSH1 0x20 SWAP1 DUP2 MSTORE PUSH1 0x40 DUP1 DUP4 KECCAK256 SLOAD PUSH1 0x5 SWAP1 SWAP3 MSTORE DUP3 KECCAK256 DUP2 PUSH4 0x3B9ACA00 DUP2 LT PUSH2 0xA5C JUMPI PUSH2 0xA5C PUSH2 0x3186 JUMP JUMPDEST PUSH1 0x3 MUL ADD SLOAD PUSH1 0x1 PUSH1 0x80 SHL SWAP1 DIV PUSH1 0xF SIGNEXTEND SWAP4 SWAP3 POP POP POP JUMP JUMPDEST PUSH1 0xA SLOAD PUSH1 0x1 PUSH1 0x1 PUSH1 0xA0 SHL SUB AND CALLER EQ PUSH2 0xA89 JUMPI PUSH1 0x0 DUP1 REVERT JUMPDEST PUSH1 0xA DUP1 SLOAD PUSH1 0x1 PUSH1 0x1 PUSH1 0xA0 SHL SUB NOT AND PUSH1 0x1 PUSH1 0x1 PUSH1 0xA0 SHL SUB SWAP3 SWAP1 SWAP3 AND SWAP2 SWAP1 SWAP2 OR SWAP1 SSTORE JUMP JUMPDEST PUSH1 0x13 SLOAD PUSH1 0x0 SWAP1 PUSH1 0xFF AND PUSH1 0x1 EQ PUSH2 0xAC0 JUMPI PUSH1 0x0 DUP1 REVERT JUMPDEST PUSH1 0x13 DUP1 SLOAD PUSH1 0xFF NOT AND PUSH1 0x2 OR SWAP1 SSTORE PUSH2 0xAD8 DUP4 DUP4 CALLER PUSH2 0x182F JUMP JUMPDEST SWAP1 POP PUSH1 0x13 DUP1 SLOAD PUSH1 0xFF NOT AND PUSH1 0x1 OR SWAP1 SSTORE SWAP3 SWAP2 POP POP JUMP JUMPDEST PUSH1 0x13 SLOAD PUSH1 0xFF AND PUSH1 0x1 EQ PUSH2 0xAFF JUMPI PUSH1 0x0 DUP1 REVERT JUMPDEST PUSH1 0x13 DUP1 SLOAD PUSH1 0xFF NOT AND PUSH1 0x2 OR SWAP1 SSTORE PUSH2 0xB16 CALLER DUP3 PUSH2 0x17C9 JUMP JUMPDEST PUSH2 0xB22 JUMPI PUSH2 0xB22 PUSH2 0x319C JUMP JUMPDEST PUSH1 0x0 DUP2 DUP2 MSTORE PUSH1 0x8 PUSH1 0x20 MSTORE PUSH1 0x40 SWAP1 KECCAK256 SLOAD ISZERO DUP1 ISZERO PUSH2 0xB4D JUMPI POP PUSH1 0x0 DUP2 DUP2 MSTORE PUSH1 0x9 PUSH1 0x20 MSTORE PUSH1 0x40 SWAP1 KECCAK256 SLOAD PUSH1 0xFF AND ISZERO JUMPDEST PUSH2 0xB72 JUMPI PUSH1 0x40 MLOAD PUSH3 0x461BCD PUSH1 0xE5 SHL DUP2 MSTORE PUSH1 0x4 ADD PUSH2 0xB69 SWAP1 PUSH2 0x31B2 JUMP JUMPDEST PUSH1 0x40 MLOAD DUP1 SWAP2 SUB SWAP1 REVERT JUMPDEST PUSH1 0x0 DUP2 DUP2 MSTORE PUSH1 0x1 PUSH1 0x20 DUP2 DUP2 MSTORE PUSH1 0x40 SWAP3 DUP4 SWAP1 KECCAK256 DUP4 MLOAD DUP1 DUP6 ADD SWAP1 SWAP5 MSTORE DUP1 SLOAD PUSH1 0xF SIGNEXTEND DUP5 MSTORE SWAP1 SWAP2 ADD SLOAD SWAP1 DUP3 ADD DUP2 SWAP1 MSTORE TIMESTAMP LT ISZERO PUSH2 0xBE5 JUMPI PUSH1 0x40 MLOAD PUSH3 0x461BCD PUSH1 0xE5 SHL DUP2 MSTORE PUSH1 0x20 PUSH1 0x4 DUP3 ADD MSTORE PUSH1 0x16 PUSH1 0x24 DUP3 ADD MSTORE PUSH22 0x546865206C6F636B206469646E277420657870697265 PUSH1 0x50 SHL PUSH1 0x44 DUP3 ADD MSTORE PUSH1 0x64 ADD PUSH2 0xB69 JUMP JUMPDEST DUP1 MLOAD PUSH1 0x40 DUP1 MLOAD DUP1 DUP3 ADD DUP3 MSTORE PUSH1 0x0 DUP1 DUP3 MSTORE PUSH1 0x20 DUP1 DUP4 ADD DUP3 DUP2 MSTORE DUP8 DUP4 MSTORE PUSH1 0x1 SWAP2 DUP3 SWAP1 MSTORE SWAP4 DUP3 KECCAK256 SWAP3 MLOAD DUP4 SLOAD PUSH1 0x1 PUSH1 0x1 PUSH1 0x80 SHL SUB NOT AND PUSH1 0x1 PUSH1 0x1 PUSH1 0x80 SHL SUB SWAP1 SWAP2 AND OR DUP4 SSTORE SWAP3 MLOAD SWAP2 SWAP1 SWAP3 ADD SSTORE SLOAD PUSH1 0xF SWAP2 SWAP1 SWAP2 SIGNEXTEND SWAP1 PUSH2 0xC3E DUP3 DUP3 PUSH2 0x31EA JUMP JUMPDEST PUSH1 0x0 DUP2 SWAP1 SSTORE POP PUSH2 0xC68 DUP5 DUP5 PUSH1 0x40 MLOAD DUP1 PUSH1 0x40 ADD PUSH1 0x40 MSTORE DUP1 PUSH1 0x0 PUSH1 0xF SIGNEXTEND DUP2 MSTORE PUSH1 0x20 ADD PUSH1 0x0 DUP2 MSTORE POP PUSH2 0x1A50 JUMP JUMPDEST PUSH1 0x40 MLOAD PUSH4 0xA9059CBB PUSH1 0xE0 SHL DUP2 MSTORE CALLER PUSH1 0x4 DUP3 ADD MSTORE PUSH1 0x24 DUP2 ADD DUP4 SWAP1 MSTORE PUSH32 0x0 PUSH1 0x1 PUSH1 0x1 PUSH1 0xA0 SHL SUB AND SWAP1 PUSH4 0xA9059CBB SWAP1 PUSH1 0x44 ADD PUSH1 0x20 PUSH1 0x40 MLOAD DUP1 DUP4 SUB DUP2 PUSH1 0x0 DUP8 GAS CALL ISZERO DUP1 ISZERO PUSH2 0xCD5 JUMPI RETURNDATASIZE PUSH1 0x0 DUP1 RETURNDATACOPY RETURNDATASIZE PUSH1 0x0 REVERT JUMPDEST POP POP POP POP PUSH1 0x40 MLOAD RETURNDATASIZE PUSH1 0x1F NOT PUSH1 0x1F DUP3 ADD AND DUP3 ADD DUP1 PUSH1 0x40 MSTORE POP DUP2 ADD SWAP1 PUSH2 0xCF9 SWAP2 SWAP1 PUSH2 0x3201 JUMP JUMPDEST PUSH2 0xD05 JUMPI PUSH2 0xD05 PUSH2 0x319C JUMP JUMPDEST PUSH2 0xD0E DUP5 PUSH2 0x206D JUMP JUMPDEST PUSH1 0x40 DUP1 MLOAD DUP6 DUP2 MSTORE PUSH1 0x20 DUP2 ADD DUP5 SWAP1 MSTORE TIMESTAMP DUP2 DUP4 ADD MSTORE SWAP1 MLOAD CALLER SWAP2 PUSH32 0x2F25270A4D87BEA75DB541CDFE559334A275B4A233520ED6C0A2429667CCA94 SWAP2 SWAP1 DUP2 SWAP1 SUB PUSH1 0x60 ADD SWAP1 LOG2 PUSH1 0x40 DUP1 MLOAD DUP4 DUP2 MSTORE PUSH1 0x1 PUSH1 0x20 DUP3 ADD MSTORE CALLER SWAP2 PUSH32 0xF0F7F8153C6D63A5696720D4CC434E56BB5AC1CF8C791ED9C180DEFB6E92153 SWAP2 ADD PUSH1 0x40 MLOAD DUP1 SWAP2 SUB SWAP1 LOG2 PUSH32 0x5E2AA66EFD74CCE82B21852E317E5490D9ECC9E6BB953AE24D90851258CC2F5C DUP2 PUSH2 0xDB7 DUP5 DUP3 PUSH2 0x31EA JUMP JUMPDEST PUSH1 0x40 DUP1 MLOAD SWAP3 DUP4 MSTORE PUSH1 0x20 DUP4 ADD SWAP2 SWAP1 SWAP2 MSTORE ADD PUSH1 0x40 MLOAD DUP1 SWAP2 SUB SWAP1 LOG1 POP POP PUSH1 0x13 DUP1 SLOAD PUSH1 0xFF NOT AND PUSH1 0x1 OR SWAP1 SSTORE POP POP JUMP JUMPDEST PUSH1 0x1 PUSH1 0x1 PUSH1 0xA0 SHL SUB DUP2 AND PUSH1 0x0 SWAP1 DUP2 MSTORE PUSH1 0xE PUSH1 0x20 MSTORE PUSH1 0x40 DUP2 KECCAK256 SLOAD PUSH2 0x9EA JUMP JUMPDEST PUSH1 0x3 SLOAD PUSH1 0x0 DUP2 DUP2 MSTORE PUSH1 0x4 PUSH1 0x20 SWAP1 DUP2 MSTORE PUSH1 0x40 DUP1 DUP4 KECCAK256 DUP2 MLOAD PUSH1 0x80 DUP2 ADD DUP4 MSTORE DUP2 SLOAD PUSH1 0xF DUP2 DUP2 SIGNEXTEND DUP4 MSTORE PUSH1 0x1 PUSH1 0x80 SHL SWAP1 SWAP2 DIV SWAP1 SIGNEXTEND SWAP4 DUP2 ADD SWAP4 SWAP1 SWAP4 MSTORE PUSH1 0x1 DUP2 ADD SLOAD SWAP2 DUP4 ADD SWAP2 SWAP1 SWAP2 MSTORE PUSH1 0x2 ADD SLOAD PUSH1 0x60 DUP3 ADD MSTORE SWAP1 SWAP2 SWAP1 PUSH2 0xE58 DUP2 DUP6 PUSH2 0x212C JUMP JUMPDEST SWAP5 SWAP4 POP POP POP POP JUMP JUMPDEST PUSH1 0x0 PUSH2 0xA28 DUP4 DUP4 PUSH2 0x222E JUMP JUMPDEST PUSH1 0x0 NUMBER DUP3 GT ISZERO PUSH2 0xE7E JUMPI PUSH2 0xE7E PUSH2 0x319C JUMP JUMPDEST PUSH1 0x3 SLOAD PUSH1 0x0 PUSH2 0xE8D DUP5 DUP4 PUSH2 0x2506 JUMP JUMPDEST PUSH1 0x0 DUP2 DUP2 MSTORE PUSH1 0x4 PUSH1 0x20 SWAP1 DUP2 MSTORE PUSH1 0x40 DUP1 DUP4 KECCAK256 DUP2 MLOAD PUSH1 0x80 DUP2 ADD DUP4 MSTORE DUP2 SLOAD PUSH1 0xF DUP2 DUP2 SIGNEXTEND DUP4 MSTORE PUSH1 0x1 PUSH1 0x80 SHL SWAP1 SWAP2 DIV SWAP1 SIGNEXTEND SWAP4 DUP2 ADD SWAP4 SWAP1 SWAP4 MSTORE PUSH1 0x1 DUP2 ADD SLOAD SWAP2 DUP4 ADD SWAP2 SWAP1 SWAP2 MSTORE PUSH1 0x2 ADD SLOAD PUSH1 0x60 DUP3 ADD MSTORE SWAP2 SWAP3 POP DUP4 DUP4 LT ISZERO PUSH2 0xF9C JUMPI PUSH1 0x0 PUSH1 0x4 DUP2 PUSH2 0xEF0 DUP7 PUSH1 0x1 PUSH2 0x321E JUMP JUMPDEST DUP2 MSTORE PUSH1 0x20 DUP1 DUP3 ADD SWAP3 SWAP1 SWAP3 MSTORE PUSH1 0x40 SWAP1 DUP2 ADD PUSH1 0x0 KECCAK256 DUP2 MLOAD PUSH1 0x80 DUP2 ADD DUP4 MSTORE DUP2 SLOAD PUSH1 0xF DUP2 DUP2 SIGNEXTEND DUP4 MSTORE PUSH1 0x1 PUSH1 0x80 SHL SWAP1 SWAP2 DIV SWAP1 SIGNEXTEND SWAP4 DUP2 ADD SWAP4 SWAP1 SWAP4 MSTORE PUSH1 0x1 DUP2 ADD SLOAD SWAP2 DUP4 ADD SWAP2 SWAP1 SWAP2 MSTORE PUSH1 0x2 ADD SLOAD PUSH1 0x60 DUP1 DUP4 ADD DUP3 SWAP1 MSTORE DUP6 ADD MLOAD SWAP2 SWAP3 POP EQ PUSH2 0xF96 JUMPI DUP3 PUSH1 0x60 ADD MLOAD DUP2 PUSH1 0x60 ADD MLOAD PUSH2 0xF5C SWAP2 SWAP1 PUSH2 0x31EA JUMP JUMPDEST DUP4 PUSH1 0x40 ADD MLOAD DUP3 PUSH1 0x40 ADD MLOAD PUSH2 0xF70 SWAP2 SWAP1 PUSH2 0x31EA JUMP JUMPDEST PUSH1 0x60 DUP6 ADD MLOAD PUSH2 0xF7F SWAP1 DUP11 PUSH2 0x31EA JUMP JUMPDEST PUSH2 0xF89 SWAP2 SWAP1 PUSH2 0x3236 JUMP JUMPDEST PUSH2 0xF93 SWAP2 SWAP1 PUSH2 0x326B JUMP JUMPDEST SWAP2 POP JUMPDEST POP PUSH2 0xFEB JUMP JUMPDEST NUMBER DUP3 PUSH1 0x60 ADD MLOAD EQ PUSH2 0xFEB JUMPI PUSH1 0x60 DUP3 ADD MLOAD PUSH2 0xFB6 SWAP1 NUMBER PUSH2 0x31EA JUMP JUMPDEST PUSH1 0x40 DUP4 ADD MLOAD PUSH2 0xFC5 SWAP1 TIMESTAMP PUSH2 0x31EA JUMP JUMPDEST PUSH1 0x60 DUP5 ADD MLOAD PUSH2 0xFD4 SWAP1 DUP10 PUSH2 0x31EA JUMP JUMPDEST PUSH2 0xFDE SWAP2 SWAP1 PUSH2 0x3236 JUMP JUMPDEST PUSH2 0xFE8 SWAP2 SWAP1 PUSH2 0x326B JUMP JUMPDEST SWAP1 POP JUMPDEST PUSH2 0x1004 DUP3 DUP3 DUP5 PUSH1 0x40 ADD MLOAD PUSH2 0xFFF SWAP2 SWAP1 PUSH2 0x321E JUMP JUMPDEST PUSH2 0x212C JUMP JUMPDEST SWAP7 SWAP6 POP POP POP POP POP POP JUMP JUMPDEST PUSH1 0xA SLOAD PUSH1 0x1 PUSH1 0x1 PUSH1 0xA0 SHL SUB AND CALLER EQ PUSH2 0x1025 JUMPI PUSH1 0x0 DUP1 REVERT JUMPDEST PUSH1 0x0 DUP2 DUP2 MSTORE PUSH1 0x8 PUSH1 0x20 MSTORE PUSH1 0x40 SWAP1 KECCAK256 SLOAD PUSH2 0x1040 SWAP1 PUSH1 0x1 SWAP1 PUSH2 0x31EA JUMP JUMPDEST PUSH1 0x0 SWAP2 DUP3 MSTORE PUSH1 0x8 PUSH1 0x20 MSTORE PUSH1 0x40 SWAP1 SWAP2 KECCAK256 SSTORE JUMP JUMPDEST PUSH1 0x1 PUSH1 0x1 PUSH1 0xA0 SHL SUB DUP3 AND CALLER EQ ISZERO PUSH2 0x106B JUMPI PUSH2 0x106B PUSH2 0x319C JUMP JUMPDEST CALLER PUSH1 0x0 DUP2 DUP2 MSTORE PUSH1 0x11 PUSH1 0x20 SWAP1 DUP2 MSTORE PUSH1 0x40 DUP1 DUP4 KECCAK256 PUSH1 0x1 PUSH1 0x1 PUSH1 0xA0 SHL SUB DUP8 AND DUP1 DUP6 MSTORE SWAP1 DUP4 MSTORE SWAP3 DUP2 SWAP1 KECCAK256 DUP1 SLOAD PUSH1 0xFF NOT AND DUP7 ISZERO ISZERO SWAP1 DUP2 OR SWAP1 SWAP2 SSTORE SWAP1 MLOAD SWAP1 DUP2 MSTORE SWAP2 SWAP3 SWAP2 PUSH32 0x17307EAB39AB6107E8899845AD3D59BD9653F200F220920489CA2B5937696C31 SWAP2 ADD PUSH1 0x40 MLOAD DUP1 SWAP2 SUB SWAP1 LOG3 POP POP JUMP JUMPDEST PUSH1 0x13 SLOAD PUSH1 0xFF AND PUSH1 0x1 EQ PUSH2 0x10E9 JUMPI PUSH1 0x0 DUP1 REVERT JUMPDEST PUSH1 0x13 DUP1 SLOAD PUSH1 0xFF NOT AND PUSH1 0x2 OR SWAP1 SSTORE PUSH2 0x1100 CALLER DUP4 PUSH2 0x17C9 JUMP JUMPDEST PUSH2 0x110C JUMPI PUSH2 0x110C PUSH2 0x319C JUMP JUMPDEST PUSH1 0x0 DUP3 DUP2 MSTORE PUSH1 0x1 PUSH1 0x20 DUP2 DUP2 MSTORE PUSH1 0x40 DUP1 DUP5 KECCAK256 DUP2 MLOAD DUP1 DUP4 ADD SWAP1 SWAP3 MSTORE DUP1 SLOAD PUSH1 0xF SIGNEXTEND DUP3 MSTORE SWAP1 SWAP3 ADD SLOAD SWAP1 DUP3 ADD MSTORE SWAP1 PUSH3 0x93A80 DUP1 PUSH2 0x1144 DUP6 TIMESTAMP PUSH2 0x321E JUMP JUMPDEST PUSH2 0x114E SWAP2 SWAP1 PUSH2 0x326B JUMP JUMPDEST PUSH2 0x1158 SWAP2 SWAP1 PUSH2 0x3236 JUMP JUMPDEST SWAP1 POP TIMESTAMP DUP3 PUSH1 0x20 ADD MLOAD GT PUSH2 0x119C JUMPI PUSH1 0x40 MLOAD PUSH3 0x461BCD PUSH1 0xE5 SHL DUP2 MSTORE PUSH1 0x20 PUSH1 0x4 DUP3 ADD MSTORE PUSH1 0xC PUSH1 0x24 DUP3 ADD MSTORE PUSH12 0x131BD8DAC8195E1C1A5C9959 PUSH1 0xA2 SHL PUSH1 0x44 DUP3 ADD MSTORE PUSH1 0x64 ADD PUSH2 0xB69 JUMP JUMPDEST PUSH1 0x0 DUP3 PUSH1 0x0 ADD MLOAD PUSH1 0xF SIGNEXTEND SGT PUSH2 0x11E7 JUMPI PUSH1 0x40 MLOAD PUSH3 0x461BCD PUSH1 0xE5 SHL DUP2 MSTORE PUSH1 0x20 PUSH1 0x4 DUP3 ADD MSTORE PUSH1 0x11 PUSH1 0x24 DUP3 ADD MSTORE PUSH17 0x139BDD1A1A5B99C81A5CC81B1BD8DAD959 PUSH1 0x7A SHL PUSH1 0x44 DUP3 ADD MSTORE PUSH1 0x64 ADD PUSH2 0xB69 JUMP JUMPDEST DUP2 PUSH1 0x20 ADD MLOAD DUP2 GT PUSH2 0x123A JUMPI PUSH1 0x40 MLOAD PUSH3 0x461BCD PUSH1 0xE5 SHL DUP2 MSTORE PUSH1 0x20 PUSH1 0x4 DUP3 ADD MSTORE PUSH1 0x1F PUSH1 0x24 DUP3 ADD MSTORE PUSH32 0x43616E206F6E6C7920696E637265617365206C6F636B206475726174696F6E00 PUSH1 0x44 DUP3 ADD MSTORE PUSH1 0x64 ADD PUSH2 0xB69 JUMP JUMPDEST PUSH2 0x1247 PUSH3 0xF14280 TIMESTAMP PUSH2 0x321E JUMP JUMPDEST DUP2 GT ISZERO PUSH2 0x1296 JUMPI PUSH1 0x40 MLOAD PUSH3 0x461BCD PUSH1 0xE5 SHL DUP2 MSTORE PUSH1 0x20 PUSH1 0x4 DUP3 ADD MSTORE PUSH1 0x1F PUSH1 0x24 DUP3 ADD MSTORE PUSH32 0x566F74696E67206C6F636B2063616E2062652036206D6F6E746873206D617800 PUSH1 0x44 DUP3 ADD MSTORE PUSH1 0x64 ADD PUSH2 0xB69 JUMP JUMPDEST PUSH2 0x12A5 DUP5 PUSH1 0x0 DUP4 DUP6 PUSH1 0x3 PUSH2 0x2590 JUMP JUMPDEST POP POP PUSH1 0x13 DUP1 SLOAD PUSH1 0xFF NOT AND PUSH1 0x1 OR SWAP1 SSTORE POP POP JUMP JUMPDEST PUSH2 0x12C4 DUP5 DUP5 DUP5 CALLER PUSH2 0x1703 JUMP JUMPDEST DUP3 EXTCODESIZE ISZERO PUSH2 0x13DF JUMPI PUSH1 0x40 MLOAD PUSH4 0xA85BD01 PUSH1 0xE1 SHL DUP2 MSTORE PUSH1 0x1 PUSH1 0x1 PUSH1 0xA0 SHL SUB DUP5 AND SWAP1 PUSH4 0x150B7A02 SWAP1 PUSH2 0x12FD SWAP1 CALLER SWAP1 DUP9 SWAP1 DUP8 SWAP1 DUP8 SWAP1 PUSH1 0x4 ADD PUSH2 0x327F JUMP JUMPDEST PUSH1 0x20 PUSH1 0x40 MLOAD DUP1 DUP4 SUB DUP2 PUSH1 0x0 DUP8 GAS CALL SWAP3 POP POP POP DUP1 ISZERO PUSH2 0x1338 JUMPI POP PUSH1 0x40 DUP1 MLOAD PUSH1 0x1F RETURNDATASIZE SWAP1 DUP2 ADD PUSH1 0x1F NOT AND DUP3 ADD SWAP1 SWAP3 MSTORE PUSH2 0x1335 SWAP2 DUP2 ADD SWAP1 PUSH2 0x32B2 JUMP JUMPDEST PUSH1 0x1 JUMPDEST PUSH2 0x13DD JUMPI RETURNDATASIZE DUP1 DUP1 ISZERO PUSH2 0x1366 JUMPI PUSH1 0x40 MLOAD SWAP2 POP PUSH1 0x1F NOT PUSH1 0x3F RETURNDATASIZE ADD AND DUP3 ADD PUSH1 0x40 MSTORE RETURNDATASIZE DUP3 MSTORE RETURNDATASIZE PUSH1 0x0 PUSH1 0x20 DUP5 ADD RETURNDATACOPY PUSH2 0x136B JUMP JUMPDEST PUSH1 0x60 SWAP2 POP JUMPDEST POP DUP1 MLOAD PUSH2 0x13D5 JUMPI PUSH1 0x40 MLOAD PUSH3 0x461BCD PUSH1 0xE5 SHL DUP2 MSTORE PUSH1 0x20 PUSH1 0x4 DUP3 ADD MSTORE PUSH1 0x32 PUSH1 0x24 DUP3 ADD MSTORE PUSH32 0x4552433732313A207472616E7366657220746F206E6F6E204552433732315265 PUSH1 0x44 DUP3 ADD MSTORE PUSH18 0x31B2B4BB32B91034B6B83632B6B2B73A32B9 PUSH1 0x71 SHL PUSH1 0x64 DUP3 ADD MSTORE PUSH1 0x84 ADD PUSH2 0xB69 JUMP JUMPDEST DUP1 MLOAD DUP2 PUSH1 0x20 ADD REVERT JUMPDEST POP JUMPDEST POP POP POP POP JUMP JUMPDEST PUSH1 0xA SLOAD PUSH1 0x1 PUSH1 0x1 PUSH1 0xA0 SHL SUB AND CALLER EQ PUSH2 0x13FC JUMPI PUSH1 0x0 DUP1 REVERT JUMPDEST PUSH1 0x0 SWAP1 DUP2 MSTORE PUSH1 0x9 PUSH1 0x20 MSTORE PUSH1 0x40 SWAP1 KECCAK256 DUP1 SLOAD PUSH1 0xFF NOT AND SWAP1 SSTORE JUMP JUMPDEST PUSH2 0x1452 PUSH1 0x0 PUSH1 0x40 MLOAD DUP1 PUSH1 0x40 ADD PUSH1 0x40 MSTORE DUP1 PUSH1 0x0 PUSH1 0xF SIGNEXTEND DUP2 MSTORE PUSH1 0x20 ADD PUSH1 0x0 DUP2 MSTORE POP PUSH1 0x40 MLOAD DUP1 PUSH1 0x40 ADD PUSH1 0x40 MSTORE DUP1 PUSH1 0x0 PUSH1 0xF SIGNEXTEND DUP2 MSTORE PUSH1 0x20 ADD PUSH1 0x0 DUP2 MSTORE POP PUSH2 0x1A50 JUMP JUMPDEST JUMP JUMPDEST PUSH1 0x0 DUP2 DUP2 MSTORE PUSH1 0xC PUSH1 0x20 MSTORE PUSH1 0x40 SWAP1 KECCAK256 SLOAD PUSH1 0x60 SWAP1 PUSH1 0x1 PUSH1 0x1 PUSH1 0xA0 SHL SUB AND PUSH2 0x14BB JUMPI PUSH1 0x40 MLOAD PUSH3 0x461BCD PUSH1 0xE5 SHL DUP2 MSTORE PUSH1 0x20 PUSH1 0x4 DUP3 ADD MSTORE PUSH1 0x1B PUSH1 0x24 DUP3 ADD MSTORE PUSH32 0x517565727920666F72206E6F6E6578697374656E7420746F6B656E0000000000 PUSH1 0x44 DUP3 ADD MSTORE PUSH1 0x64 ADD PUSH2 0xB69 JUMP JUMPDEST PUSH1 0x0 DUP3 DUP2 MSTORE PUSH1 0x1 PUSH1 0x20 DUP2 DUP2 MSTORE PUSH1 0x40 SWAP3 DUP4 SWAP1 KECCAK256 DUP4 MLOAD DUP1 DUP6 ADD SWAP1 SWAP5 MSTORE DUP1 SLOAD PUSH1 0xF SIGNEXTEND DUP5 MSTORE SWAP1 SWAP2 ADD SLOAD SWAP1 DUP3 ADD MSTORE PUSH2 0xA28 DUP4 PUSH2 0x14F2 DUP2 TIMESTAMP PUSH2 0x2795 JUMP JUMPDEST PUSH1 0x20 DUP5 ADD MLOAD DUP5 MLOAD PUSH1 0xF SIGNEXTEND PUSH2 0x2867 JUMP JUMPDEST PUSH1 0x0 DUP3 DUP2 MSTORE PUSH1 0x8 PUSH1 0x20 MSTORE PUSH1 0x40 SWAP1 KECCAK256 SLOAD ISZERO DUP1 ISZERO PUSH2 0x152C JUMPI POP PUSH1 0x0 DUP3 DUP2 MSTORE PUSH1 0x9 PUSH1 0x20 MSTORE PUSH1 0x40 SWAP1 KECCAK256 SLOAD PUSH1 0xFF AND ISZERO JUMPDEST PUSH2 0x1548 JUMPI PUSH1 0x40 MLOAD PUSH3 0x461BCD PUSH1 0xE5 SHL DUP2 MSTORE PUSH1 0x4 ADD PUSH2 0xB69 SWAP1 PUSH2 0x31B2 JUMP JUMPDEST DUP1 DUP3 EQ ISZERO PUSH2 0x1555 JUMPI PUSH1 0x0 DUP1 REVERT JUMPDEST PUSH2 0x155F CALLER DUP4 PUSH2 0x17C9 JUMP JUMPDEST PUSH2 0x1568 JUMPI PUSH1 0x0 DUP1 REVERT JUMPDEST PUSH2 0x1572 CALLER DUP3 PUSH2 0x17C9 JUMP JUMPDEST PUSH2 0x157B JUMPI PUSH1 0x0 DUP1 REVERT JUMPDEST PUSH1 0x0 DUP3 DUP2 MSTORE PUSH1 0x1 PUSH1 0x20 DUP2 DUP2 MSTORE PUSH1 0x40 DUP1 DUP5 KECCAK256 DUP2 MLOAD DUP1 DUP4 ADD DUP4 MSTORE DUP2 SLOAD PUSH1 0xF SWAP1 DUP2 SIGNEXTEND DUP3 MSTORE SWAP2 DUP6 ADD SLOAD DUP2 DUP6 ADD SWAP1 DUP2 MSTORE DUP8 DUP8 MSTORE DUP6 DUP6 MSTORE DUP4 DUP8 KECCAK256 DUP5 MLOAD DUP1 DUP7 ADD SWAP1 SWAP6 MSTORE DUP1 SLOAD DUP5 SIGNEXTEND DUP6 MSTORE SWAP1 SWAP6 ADD SLOAD SWAP4 DUP4 ADD DUP5 SWAP1 MSTORE DUP1 MLOAD SWAP5 MLOAD SWAP1 SWAP6 SWAP3 SWAP5 SWAP1 SWAP2 SIGNEXTEND SWAP3 GT ISZERO PUSH2 0x15E3 JUMPI DUP3 PUSH1 0x20 ADD MLOAD PUSH2 0x15E9 JUMP JUMPDEST DUP4 PUSH1 0x20 ADD MLOAD JUMPDEST PUSH1 0x40 DUP1 MLOAD DUP1 DUP3 ADD DUP3 MSTORE PUSH1 0x0 DUP1 DUP3 MSTORE PUSH1 0x20 DUP1 DUP4 ADD DUP3 DUP2 MSTORE DUP12 DUP4 MSTORE PUSH1 0x1 DUP1 DUP4 MSTORE DUP6 DUP5 KECCAK256 SWAP5 MLOAD DUP6 SLOAD PUSH1 0x1 PUSH1 0x1 PUSH1 0x80 SHL SUB NOT AND PUSH1 0x1 PUSH1 0x1 PUSH1 0x80 SHL SUB SWAP1 SWAP2 AND OR DUP6 SSTORE SWAP1 MLOAD SWAP4 ADD SWAP3 SWAP1 SWAP3 SSTORE DUP3 MLOAD DUP1 DUP5 ADD SWAP1 SWAP4 MSTORE DUP1 DUP4 MSTORE SWAP1 DUP3 ADD MSTORE SWAP1 SWAP2 POP PUSH2 0x164D SWAP1 DUP8 SWAP1 DUP7 SWAP1 PUSH2 0x1A50 JUMP JUMPDEST PUSH2 0x1656 DUP7 PUSH2 0x206D JUMP JUMPDEST PUSH2 0x1664 DUP6 DUP4 DUP4 DUP7 PUSH1 0x4 PUSH2 0x2590 JUMP JUMPDEST POP POP POP POP POP POP JUMP JUMPDEST PUSH1 0x0 PUSH2 0xA28 DUP4 DUP4 PUSH2 0x2795 JUMP JUMPDEST PUSH1 0x0 DUP2 DUP2 MSTORE PUSH1 0x2 PUSH1 0x20 MSTORE PUSH1 0x40 DUP2 KECCAK256 SLOAD NUMBER EQ ISZERO PUSH2 0x1696 JUMPI POP PUSH1 0x0 SWAP2 SWAP1 POP JUMP JUMPDEST PUSH2 0x9EA DUP3 TIMESTAMP PUSH2 0x2795 JUMP JUMPDEST PUSH1 0xA SLOAD PUSH1 0x1 PUSH1 0x1 PUSH1 0xA0 SHL SUB AND CALLER EQ PUSH2 0x16B7 JUMPI PUSH1 0x0 DUP1 REVERT JUMPDEST PUSH1 0x0 DUP2 DUP2 MSTORE PUSH1 0x8 PUSH1 0x20 MSTORE PUSH1 0x40 SWAP1 KECCAK256 SLOAD PUSH2 0x1040 SWAP1 PUSH1 0x1 PUSH2 0x321E JUMP JUMPDEST PUSH1 0xA SLOAD PUSH1 0x1 PUSH1 0x1 PUSH1 0xA0 SHL SUB AND CALLER EQ PUSH2 0x16E8 JUMPI PUSH1 0x0 DUP1 REVERT JUMPDEST PUSH1 0x0 SWAP1 DUP2 MSTORE PUSH1 0x9 PUSH1 0x20 MSTORE PUSH1 0x40 SWAP1 KECCAK256 DUP1 SLOAD PUSH1 0xFF NOT AND PUSH1 0x1 OR SWAP1 SSTORE JUMP JUMPDEST PUSH1 0x0 DUP3 DUP2 MSTORE PUSH1 0x8 PUSH1 0x20 MSTORE PUSH1 0x40 SWAP1 KECCAK256 SLOAD ISZERO DUP1 ISZERO PUSH2 0x172E JUMPI POP PUSH1 0x0 DUP3 DUP2 MSTORE PUSH1 0x9 PUSH1 0x20 MSTORE PUSH1 0x40 SWAP1 KECCAK256 SLOAD PUSH1 0xFF AND ISZERO JUMPDEST PUSH2 0x174A JUMPI PUSH1 0x40 MLOAD PUSH3 0x461BCD PUSH1 0xE5 SHL DUP2 MSTORE PUSH1 0x4 ADD PUSH2 0xB69 SWAP1 PUSH2 0x31B2 JUMP JUMPDEST PUSH2 0x1754 DUP2 DUP4 PUSH2 0x17C9 JUMP JUMPDEST PUSH2 0x175D JUMPI PUSH1 0x0 DUP1 REVERT JUMPDEST PUSH2 0x1767 DUP5 DUP4 PUSH2 0x299E JUMP JUMPDEST PUSH2 0x1771 DUP5 DUP4 PUSH2 0x2A05 JUMP JUMPDEST PUSH2 0x177B DUP4 DUP4 PUSH2 0x2A86 JUMP JUMPDEST PUSH1 0x0 DUP3 DUP2 MSTORE PUSH1 0x2 PUSH1 0x20 MSTORE PUSH1 0x40 DUP1 DUP3 KECCAK256 NUMBER SWAP1 SSTORE MLOAD DUP4 SWAP2 PUSH1 0x1 PUSH1 0x1 PUSH1 0xA0 SHL SUB DUP1 DUP8 AND SWAP3 SWAP1 DUP9 AND SWAP2 PUSH32 0xDDF252AD1BE2C89B69C2B068FC378DAA952BA7F163C4A11628F55A4DF523B3EF SWAP2 LOG4 POP POP POP POP JUMP JUMPDEST PUSH1 0x0 DUP2 DUP2 MSTORE PUSH1 0xC PUSH1 0x20 SWAP1 DUP2 MSTORE PUSH1 0x40 DUP1 DUP4 KECCAK256 SLOAD PUSH1 0xD DUP4 MSTORE DUP2 DUP5 KECCAK256 SLOAD PUSH1 0x1 PUSH1 0x1 PUSH1 0xA0 SHL SUB SWAP2 DUP3 AND DUP1 DUP7 MSTORE PUSH1 0x11 DUP6 MSTORE DUP4 DUP7 KECCAK256 DUP9 DUP5 AND DUP1 DUP9 MSTORE SWAP6 MSTORE SWAP3 DUP6 KECCAK256 SLOAD SWAP3 SWAP4 DUP1 DUP6 EQ SWAP4 SWAP3 SWAP1 SWAP2 AND EQ SWAP1 PUSH1 0xFF AND DUP3 DUP1 PUSH2 0x181C JUMPI POP DUP2 JUMPDEST DUP1 PUSH2 0x1824 JUMPI POP DUP1 JUMPDEST SWAP8 SWAP7 POP POP POP POP POP POP POP JUMP JUMPDEST PUSH1 0x0 DUP1 PUSH3 0x93A80 DUP1 PUSH2 0x1841 DUP7 TIMESTAMP PUSH2 0x321E JUMP JUMPDEST PUSH2 0x184B SWAP2 SWAP1 PUSH2 0x326B JUMP JUMPDEST PUSH2 0x1855 SWAP2 SWAP1 PUSH2 0x3236 JUMP JUMPDEST PUSH1 0x40 MLOAD PUSH4 0x70A08231 PUSH1 0xE0 SHL DUP2 MSTORE ADDRESS PUSH1 0x4 DUP3 ADD MSTORE SWAP1 SWAP2 POP PUSH1 0x0 SWAP1 PUSH1 0x1 PUSH1 0x1 PUSH1 0xA0 SHL SUB PUSH32 0x0 AND SWAP1 PUSH4 0x70A08231 SWAP1 PUSH1 0x24 ADD PUSH1 0x20 PUSH1 0x40 MLOAD DUP1 DUP4 SUB DUP2 DUP7 GAS STATICCALL ISZERO DUP1 ISZERO PUSH2 0x18BF JUMPI RETURNDATASIZE PUSH1 0x0 DUP1 RETURNDATACOPY RETURNDATASIZE PUSH1 0x0 REVERT JUMPDEST POP POP POP POP PUSH1 0x40 MLOAD RETURNDATASIZE PUSH1 0x1F NOT PUSH1 0x1F DUP3 ADD AND DUP3 ADD DUP1 PUSH1 0x40 MSTORE POP DUP2 ADD SWAP1 PUSH2 0x18E3 SWAP2 SWAP1 PUSH2 0x32CF JUMP JUMPDEST SWAP1 POP PUSH1 0x0 PUSH2 0x18EF PUSH2 0x9AD JUMP JUMPDEST SWAP1 POP PUSH1 0x0 DUP2 ISZERO DUP1 PUSH2 0x18FE JUMPI POP DUP3 ISZERO JUMPDEST ISZERO PUSH2 0x190A JUMPI POP DUP7 PUSH2 0x1925 JUMP JUMPDEST PUSH1 0x0 DUP4 PUSH2 0x1917 DUP5 DUP12 PUSH2 0x3236 JUMP JUMPDEST PUSH2 0x1921 SWAP2 SWAP1 PUSH2 0x326B JUMP JUMPDEST SWAP2 POP POP JUMPDEST PUSH1 0x0 DUP9 GT PUSH2 0x1932 JUMPI PUSH1 0x0 DUP1 REVERT JUMPDEST TIMESTAMP DUP5 GT PUSH2 0x1990 JUMPI PUSH1 0x40 MLOAD PUSH3 0x461BCD PUSH1 0xE5 SHL DUP2 MSTORE PUSH1 0x20 PUSH1 0x4 DUP3 ADD MSTORE PUSH1 0x26 PUSH1 0x24 DUP3 ADD MSTORE PUSH32 0x43616E206F6E6C79206C6F636B20756E74696C2074696D6520696E2074686520 PUSH1 0x44 DUP3 ADD MSTORE PUSH6 0x667574757265 PUSH1 0xD0 SHL PUSH1 0x64 DUP3 ADD MSTORE PUSH1 0x84 ADD PUSH2 0xB69 JUMP JUMPDEST PUSH2 0x199D PUSH3 0xF14280 TIMESTAMP PUSH2 0x321E JUMP JUMPDEST DUP5 GT ISZERO PUSH2 0x19EC JUMPI PUSH1 0x40 MLOAD PUSH3 0x461BCD PUSH1 0xE5 SHL DUP2 MSTORE PUSH1 0x20 PUSH1 0x4 DUP3 ADD MSTORE PUSH1 0x1F PUSH1 0x24 DUP3 ADD MSTORE PUSH32 0x566F74696E67206C6F636B2063616E2062652036206D6F6E746873206D617800 PUSH1 0x44 DUP3 ADD MSTORE PUSH1 0x64 ADD PUSH2 0xB69 JUMP JUMPDEST PUSH1 0xB PUSH1 0x0 DUP2 SLOAD PUSH2 0x19FB SWAP1 PUSH2 0x32E8 JUMP JUMPDEST SWAP1 SWAP2 SSTORE POP PUSH1 0xB SLOAD PUSH2 0x1A0C DUP8 DUP3 PUSH2 0x2B1C JUMP JUMPDEST POP PUSH1 0x0 DUP2 DUP2 MSTORE PUSH1 0x1 PUSH1 0x20 DUP2 DUP2 MSTORE PUSH1 0x40 SWAP3 DUP4 SWAP1 KECCAK256 DUP4 MLOAD DUP1 DUP6 ADD SWAP1 SWAP5 MSTORE DUP1 SLOAD PUSH1 0xF SIGNEXTEND DUP5 MSTORE DUP3 ADD SLOAD SWAP1 DUP4 ADD MSTORE PUSH2 0x1A44 SWAP2 DUP4 SWAP2 DUP13 SWAP2 DUP10 SWAP2 PUSH2 0x2590 JUMP JUMPDEST SWAP5 POP PUSH2 0xA28 SWAP4 POP POP POP POP JUMP JUMPDEST PUSH1 0x40 DUP1 MLOAD PUSH1 0x80 DUP2 ADD DUP3 MSTORE PUSH1 0x0 DUP1 DUP3 MSTORE PUSH1 0x20 DUP3 ADD DUP2 SWAP1 MSTORE SWAP2 DUP2 ADD DUP3 SWAP1 MSTORE PUSH1 0x60 DUP2 ADD SWAP2 SWAP1 SWAP2 MSTORE PUSH1 0x40 DUP1 MLOAD PUSH1 0x80 DUP2 ADD DUP3 MSTORE PUSH1 0x0 DUP1 DUP3 MSTORE PUSH1 0x20 DUP3 ADD DUP2 SWAP1 MSTORE SWAP2 DUP2 ADD DUP3 SWAP1 MSTORE PUSH1 0x60 DUP2 ADD SWAP2 SWAP1 SWAP2 MSTORE PUSH1 0x3 SLOAD PUSH1 0x0 SWAP1 DUP2 SWAP1 DUP8 ISZERO PUSH2 0x1BBA JUMPI TIMESTAMP DUP8 PUSH1 0x20 ADD MLOAD GT DUP1 ISZERO PUSH2 0x1AC0 JUMPI POP PUSH1 0x0 DUP8 PUSH1 0x0 ADD MLOAD PUSH1 0xF SIGNEXTEND SGT JUMPDEST ISZERO PUSH2 0x1B04 JUMPI DUP7 MLOAD PUSH2 0x1AD5 SWAP1 PUSH3 0xF14280 SWAP1 PUSH2 0x3303 JUMP JUMPDEST PUSH1 0xF SIGNEXTEND PUSH1 0x20 DUP1 DUP8 ADD SWAP2 SWAP1 SWAP2 MSTORE DUP8 ADD MLOAD PUSH2 0x1AEF SWAP1 TIMESTAMP SWAP1 PUSH2 0x31EA JUMP JUMPDEST DUP6 PUSH1 0x20 ADD MLOAD PUSH2 0x1AFE SWAP2 SWAP1 PUSH2 0x3341 JUMP JUMPDEST PUSH1 0xF SIGNEXTEND DUP6 MSTORE JUMPDEST TIMESTAMP DUP7 PUSH1 0x20 ADD MLOAD GT DUP1 ISZERO PUSH2 0x1B1E JUMPI POP PUSH1 0x0 DUP7 PUSH1 0x0 ADD MLOAD PUSH1 0xF SIGNEXTEND SGT JUMPDEST ISZERO PUSH2 0x1B62 JUMPI DUP6 MLOAD PUSH2 0x1B33 SWAP1 PUSH3 0xF14280 SWAP1 PUSH2 0x3303 JUMP JUMPDEST PUSH1 0xF SIGNEXTEND PUSH1 0x20 DUP1 DUP7 ADD SWAP2 SWAP1 SWAP2 MSTORE DUP7 ADD MLOAD PUSH2 0x1B4D SWAP1 TIMESTAMP SWAP1 PUSH2 0x31EA JUMP JUMPDEST DUP5 PUSH1 0x20 ADD MLOAD PUSH2 0x1B5C SWAP2 SWAP1 PUSH2 0x3341 JUMP JUMPDEST PUSH1 0xF SIGNEXTEND DUP5 MSTORE JUMPDEST PUSH1 0x20 DUP1 DUP9 ADD MLOAD PUSH1 0x0 SWAP1 DUP2 MSTORE PUSH1 0x7 DUP3 MSTORE PUSH1 0x40 SWAP1 KECCAK256 SLOAD SWAP1 DUP8 ADD MLOAD PUSH1 0xF SWAP2 SWAP1 SWAP2 SIGNEXTEND SWAP4 POP ISZERO PUSH2 0x1BBA JUMPI DUP7 PUSH1 0x20 ADD MLOAD DUP7 PUSH1 0x20 ADD MLOAD EQ ISZERO PUSH2 0x1B9F JUMPI DUP3 SWAP2 POP PUSH2 0x1BBA JUMP JUMPDEST PUSH1 0x20 DUP1 DUP8 ADD MLOAD PUSH1 0x0 SWAP1 DUP2 MSTORE PUSH1 0x7 SWAP1 SWAP2 MSTORE PUSH1 0x40 SWAP1 KECCAK256 SLOAD PUSH1 0xF SIGNEXTEND SWAP2 POP JUMPDEST PUSH1 0x40 DUP1 MLOAD PUSH1 0x80 DUP2 ADD DUP3 MSTORE PUSH1 0x0 DUP1 DUP3 MSTORE PUSH1 0x20 DUP3 ADD MSTORE TIMESTAMP SWAP2 DUP2 ADD SWAP2 SWAP1 SWAP2 MSTORE NUMBER PUSH1 0x60 DUP3 ADD MSTORE DUP2 ISZERO PUSH2 0x1C2F JUMPI POP PUSH1 0x0 DUP2 DUP2 MSTORE PUSH1 0x4 PUSH1 0x20 SWAP1 DUP2 MSTORE PUSH1 0x40 SWAP2 DUP3 SWAP1 KECCAK256 DUP3 MLOAD PUSH1 0x80 DUP2 ADD DUP5 MSTORE DUP2 SLOAD PUSH1 0xF DUP2 DUP2 SIGNEXTEND DUP4 MSTORE PUSH1 0x1 PUSH1 0x80 SHL SWAP1 SWAP2 DIV SWAP1 SIGNEXTEND SWAP3 DUP2 ADD SWAP3 SWAP1 SWAP3 MSTORE PUSH1 0x1 DUP2 ADD SLOAD SWAP3 DUP3 ADD SWAP3 SWAP1 SWAP3 MSTORE PUSH1 0x2 SWAP1 SWAP2 ADD SLOAD PUSH1 0x60 DUP3 ADD MSTORE JUMPDEST PUSH1 0x40 DUP2 ADD MLOAD DUP2 PUSH1 0x0 TIMESTAMP DUP4 LT ISZERO PUSH2 0x1C7C JUMPI PUSH1 0x40 DUP5 ADD MLOAD PUSH2 0x1C4E SWAP1 TIMESTAMP PUSH2 0x31EA JUMP JUMPDEST PUSH1 0x60 DUP6 ADD MLOAD PUSH2 0x1C5D SWAP1 NUMBER PUSH2 0x31EA JUMP JUMPDEST PUSH2 0x1C6F SWAP1 PUSH8 0xDE0B6B3A7640000 PUSH2 0x3236 JUMP JUMPDEST PUSH2 0x1C79 SWAP2 SWAP1 PUSH2 0x326B JUMP JUMPDEST SWAP1 POP JUMPDEST PUSH1 0x0 PUSH3 0x93A80 PUSH2 0x1C8C DUP2 DUP7 PUSH2 0x326B JUMP JUMPDEST PUSH2 0x1C96 SWAP2 SWAP1 PUSH2 0x3236 JUMP JUMPDEST SWAP1 POP PUSH1 0x0 JUMPDEST PUSH1 0xFF DUP2 LT ISZERO PUSH2 0x1E11 JUMPI PUSH2 0x1CB1 PUSH3 0x93A80 DUP4 PUSH2 0x321E JUMP JUMPDEST SWAP2 POP PUSH1 0x0 TIMESTAMP DUP4 GT ISZERO PUSH2 0x1CC5 JUMPI TIMESTAMP SWAP3 POP PUSH2 0x1CD9 JUMP JUMPDEST POP PUSH1 0x0 DUP3 DUP2 MSTORE PUSH1 0x7 PUSH1 0x20 MSTORE PUSH1 0x40 SWAP1 KECCAK256 SLOAD PUSH1 0xF SIGNEXTEND JUMPDEST PUSH2 0x1CE3 DUP7 DUP5 PUSH2 0x31EA JUMP JUMPDEST DUP8 PUSH1 0x20 ADD MLOAD PUSH2 0x1CF2 SWAP2 SWAP1 PUSH2 0x3341 JUMP JUMPDEST DUP8 MLOAD DUP9 SWAP1 PUSH2 0x1D01 SWAP1 DUP4 SWAP1 PUSH2 0x33D6 JUMP JUMPDEST PUSH1 0xF SIGNEXTEND SWAP1 MSTORE POP PUSH1 0x20 DUP8 ADD DUP1 MLOAD DUP3 SWAP2 SWAP1 PUSH2 0x1D1B SWAP1 DUP4 SWAP1 PUSH2 0x3426 JUMP JUMPDEST PUSH1 0xF SWAP1 DUP2 SIGNEXTEND SWAP1 SWAP2 MSTORE DUP9 MLOAD PUSH1 0x0 SWAP2 SIGNEXTEND SLT ISZERO SWAP1 POP PUSH2 0x1D36 JUMPI PUSH1 0x0 DUP8 MSTORE JUMPDEST PUSH1 0x0 DUP8 PUSH1 0x20 ADD MLOAD PUSH1 0xF SIGNEXTEND SLT ISZERO PUSH2 0x1D4E JUMPI PUSH1 0x0 PUSH1 0x20 DUP9 ADD MSTORE JUMPDEST PUSH1 0x40 DUP1 DUP9 ADD DUP5 SWAP1 MSTORE DUP6 ADD MLOAD SWAP3 SWAP6 POP DUP6 SWAP3 PUSH8 0xDE0B6B3A7640000 SWAP1 PUSH2 0x1D72 SWAP1 DUP6 PUSH2 0x31EA JUMP JUMPDEST PUSH2 0x1D7C SWAP1 DUP7 PUSH2 0x3236 JUMP JUMPDEST PUSH2 0x1D86 SWAP2 SWAP1 PUSH2 0x326B JUMP JUMPDEST DUP6 PUSH1 0x60 ADD MLOAD PUSH2 0x1D95 SWAP2 SWAP1 PUSH2 0x321E JUMP JUMPDEST PUSH1 0x60 DUP9 ADD MSTORE PUSH2 0x1DA5 PUSH1 0x1 DUP10 PUSH2 0x321E JUMP JUMPDEST SWAP8 POP TIMESTAMP DUP4 EQ ISZERO PUSH2 0x1DBB JUMPI POP NUMBER PUSH1 0x60 DUP8 ADD MSTORE PUSH2 0x1E11 JUMP JUMPDEST PUSH1 0x0 DUP9 DUP2 MSTORE PUSH1 0x4 PUSH1 0x20 SWAP1 DUP2 MSTORE PUSH1 0x40 SWAP2 DUP3 SWAP1 KECCAK256 DUP10 MLOAD SWAP2 DUP11 ADD MLOAD PUSH1 0x1 PUSH1 0x1 PUSH1 0x80 SHL SUB SWAP1 DUP2 AND PUSH1 0x1 PUSH1 0x80 SHL MUL SWAP3 AND SWAP2 SWAP1 SWAP2 OR DUP2 SSTORE SWAP1 DUP9 ADD MLOAD PUSH1 0x1 DUP3 ADD SSTORE PUSH1 0x60 DUP9 ADD MLOAD PUSH1 0x2 SWAP1 SWAP2 ADD SSTORE POP PUSH2 0x1E0A DUP2 PUSH2 0x32E8 JUMP JUMPDEST SWAP1 POP PUSH2 0x1C9B JUMP JUMPDEST POP POP PUSH1 0x3 DUP6 SWAP1 SSTORE DUP12 ISZERO PUSH2 0x1E9C JUMPI DUP9 PUSH1 0x20 ADD MLOAD DUP9 PUSH1 0x20 ADD MLOAD PUSH2 0x1E32 SWAP2 SWAP1 PUSH2 0x33D6 JUMP JUMPDEST DUP5 PUSH1 0x20 ADD DUP2 DUP2 MLOAD PUSH2 0x1E43 SWAP2 SWAP1 PUSH2 0x3426 JUMP JUMPDEST PUSH1 0xF SIGNEXTEND SWAP1 MSTORE POP DUP9 MLOAD DUP9 MLOAD PUSH2 0x1E57 SWAP2 SWAP1 PUSH2 0x33D6 JUMP JUMPDEST DUP5 MLOAD DUP6 SWAP1 PUSH2 0x1E66 SWAP1 DUP4 SWAP1 PUSH2 0x3426 JUMP JUMPDEST PUSH1 0xF SWAP1 DUP2 SIGNEXTEND SWAP1 SWAP2 MSTORE PUSH1 0x20 DUP7 ADD MLOAD PUSH1 0x0 SWAP2 SIGNEXTEND SLT ISZERO SWAP1 POP PUSH2 0x1E87 JUMPI PUSH1 0x0 PUSH1 0x20 DUP6 ADD MSTORE JUMPDEST PUSH1 0x0 DUP5 PUSH1 0x0 ADD MLOAD PUSH1 0xF SIGNEXTEND SLT ISZERO PUSH2 0x1E9C JUMPI PUSH1 0x0 DUP5 MSTORE JUMPDEST PUSH1 0x0 DUP6 DUP2 MSTORE PUSH1 0x4 PUSH1 0x20 SWAP1 DUP2 MSTORE PUSH1 0x40 SWAP2 DUP3 SWAP1 KECCAK256 DUP7 MLOAD SWAP2 DUP8 ADD MLOAD PUSH1 0x1 PUSH1 0x1 PUSH1 0x80 SHL SUB SWAP1 DUP2 AND PUSH1 0x1 PUSH1 0x80 SHL MUL SWAP3 AND SWAP2 SWAP1 SWAP2 OR DUP2 SSTORE SWAP1 DUP6 ADD MLOAD PUSH1 0x1 DUP3 ADD SSTORE PUSH1 0x60 DUP6 ADD MLOAD PUSH1 0x2 SWAP1 SWAP2 ADD SSTORE DUP12 ISZERO PUSH2 0x205F JUMPI TIMESTAMP DUP12 PUSH1 0x20 ADD MLOAD GT ISZERO PUSH2 0x1F54 JUMPI PUSH1 0x20 DUP10 ADD MLOAD PUSH2 0x1F02 SWAP1 DUP9 PUSH2 0x3426 JUMP JUMPDEST SWAP7 POP DUP11 PUSH1 0x20 ADD MLOAD DUP11 PUSH1 0x20 ADD MLOAD EQ ISZERO PUSH2 0x1F26 JUMPI PUSH1 0x20 DUP9 ADD MLOAD PUSH2 0x1F23 SWAP1 DUP9 PUSH2 0x33D6 JUMP JUMPDEST SWAP7 POP JUMPDEST PUSH1 0x20 DUP12 DUP2 ADD MLOAD PUSH1 0x0 SWAP1 DUP2 MSTORE PUSH1 0x7 SWAP1 SWAP2 MSTORE PUSH1 0x40 SWAP1 KECCAK256 DUP1 SLOAD PUSH1 0x1 PUSH1 0x1 PUSH1 0x80 SHL SUB NOT AND PUSH1 0x1 PUSH1 0x1 PUSH1 0x80 SHL SUB DUP10 AND OR SWAP1 SSTORE JUMPDEST TIMESTAMP DUP11 PUSH1 0x20 ADD MLOAD GT ISZERO PUSH2 0x1FAF JUMPI DUP11 PUSH1 0x20 ADD MLOAD DUP11 PUSH1 0x20 ADD MLOAD GT ISZERO PUSH2 0x1FAF JUMPI PUSH1 0x20 DUP9 ADD MLOAD PUSH2 0x1F7F SWAP1 DUP8 PUSH2 0x33D6 JUMP JUMPDEST PUSH1 0x20 DUP12 DUP2 ADD MLOAD PUSH1 0x0 SWAP1 DUP2 MSTORE PUSH1 0x7 SWAP1 SWAP2 MSTORE PUSH1 0x40 SWAP1 KECCAK256 DUP1 SLOAD PUSH1 0x1 PUSH1 0x1 PUSH1 0x80 SHL SUB NOT AND PUSH1 0x1 PUSH1 0x1 PUSH1 0x80 SHL SUB DUP4 AND OR SWAP1 SSTORE SWAP6 POP JUMPDEST PUSH1 0x0 DUP13 DUP2 MSTORE PUSH1 0x6 PUSH1 0x20 MSTORE PUSH1 0x40 DUP2 KECCAK256 SLOAD PUSH2 0x1FC9 SWAP1 PUSH1 0x1 PUSH2 0x321E JUMP JUMPDEST SWAP1 POP DUP1 PUSH1 0x6 PUSH1 0x0 DUP16 DUP2 MSTORE PUSH1 0x20 ADD SWAP1 DUP2 MSTORE PUSH1 0x20 ADD PUSH1 0x0 KECCAK256 DUP2 SWAP1 SSTORE POP TIMESTAMP DUP10 PUSH1 0x40 ADD DUP2 DUP2 MSTORE POP POP NUMBER DUP10 PUSH1 0x60 ADD DUP2 DUP2 MSTORE POP POP DUP9 PUSH1 0x5 PUSH1 0x0 DUP16 DUP2 MSTORE PUSH1 0x20 ADD SWAP1 DUP2 MSTORE PUSH1 0x20 ADD PUSH1 0x0 KECCAK256 DUP3 PUSH4 0x3B9ACA00 DUP2 LT PUSH2 0x201F JUMPI PUSH2 0x201F PUSH2 0x3186 JUMP JUMPDEST DUP3 MLOAD PUSH1 0x20 DUP5 ADD MLOAD PUSH1 0x1 PUSH1 0x1 PUSH1 0x80 SHL SUB SWAP1 DUP2 AND PUSH1 0x1 PUSH1 0x80 SHL MUL SWAP2 AND OR PUSH1 0x3 SWAP2 SWAP1 SWAP2 MUL SWAP2 SWAP1 SWAP2 ADD SWAP1 DUP2 SSTORE PUSH1 0x40 DUP3 ADD MLOAD PUSH1 0x1 DUP3 ADD SSTORE PUSH1 0x60 SWAP1 SWAP2 ADD MLOAD PUSH1 0x2 SWAP1 SWAP2 ADD SSTORE POP JUMPDEST POP POP POP POP POP POP POP POP POP POP POP POP JUMP JUMPDEST PUSH2 0x2077 CALLER DUP3 PUSH2 0x17C9 JUMP JUMPDEST PUSH2 0x20C3 JUMPI PUSH1 0x40 MLOAD PUSH3 0x461BCD PUSH1 0xE5 SHL DUP2 MSTORE PUSH1 0x20 PUSH1 0x4 DUP3 ADD DUP2 SWAP1 MSTORE PUSH1 0x24 DUP3 ADD MSTORE PUSH32 0x63616C6C6572206973206E6F74206F776E6572206E6F7220617070726F766564 PUSH1 0x44 DUP3 ADD MSTORE PUSH1 0x64 ADD PUSH2 0xB69 JUMP JUMPDEST PUSH1 0x0 DUP2 DUP2 MSTORE PUSH1 0xC PUSH1 0x20 MSTORE PUSH1 0x40 DUP2 KECCAK256 SLOAD PUSH1 0x1 PUSH1 0x1 PUSH1 0xA0 SHL SUB AND SWAP1 PUSH2 0x20E6 SWAP1 DUP4 PUSH2 0x87D JUMP JUMPDEST PUSH2 0x20F0 CALLER DUP4 PUSH2 0x2A05 JUMP JUMPDEST PUSH1 0x40 MLOAD DUP3 SWAP1 PUSH1 0x0 SWAP1 PUSH1 0x1 PUSH1 0x1 PUSH1 0xA0 SHL SUB DUP5 AND SWAP1 PUSH32 0xDDF252AD1BE2C89B69C2B068FC378DAA952BA7F163C4A11628F55A4DF523B3EF SWAP1 DUP4 SWAP1 LOG4 POP POP JUMP JUMPDEST PUSH1 0x0 DUP1 DUP4 SWAP1 POP PUSH1 0x0 PUSH3 0x93A80 DUP1 DUP4 PUSH1 0x40 ADD MLOAD PUSH2 0x2148 SWAP2 SWAP1 PUSH2 0x326B JUMP JUMPDEST PUSH2 0x2152 SWAP2 SWAP1 PUSH2 0x3236 JUMP JUMPDEST SWAP1 POP PUSH1 0x0 JUMPDEST PUSH1 0xFF DUP2 LT ISZERO PUSH2 0x2206 JUMPI PUSH2 0x216D PUSH3 0x93A80 DUP4 PUSH2 0x321E JUMP JUMPDEST SWAP2 POP PUSH1 0x0 DUP6 DUP4 GT ISZERO PUSH2 0x2181 JUMPI DUP6 SWAP3 POP PUSH2 0x2195 JUMP JUMPDEST POP PUSH1 0x0 DUP3 DUP2 MSTORE PUSH1 0x7 PUSH1 0x20 MSTORE PUSH1 0x40 SWAP1 KECCAK256 SLOAD PUSH1 0xF SIGNEXTEND JUMPDEST PUSH1 0x40 DUP5 ADD MLOAD PUSH2 0x21A4 SWAP1 DUP5 PUSH2 0x31EA JUMP JUMPDEST DUP5 PUSH1 0x20 ADD MLOAD PUSH2 0x21B3 SWAP2 SWAP1 PUSH2 0x3341 JUMP JUMPDEST DUP5 MLOAD DUP6 SWAP1 PUSH2 0x21C2 SWAP1 DUP4 SWAP1 PUSH2 0x33D6 JUMP JUMPDEST PUSH1 0xF SIGNEXTEND SWAP1 MSTORE POP DUP3 DUP7 EQ ISZERO PUSH2 0x21D6 JUMPI POP PUSH2 0x2206 JUMP JUMPDEST DUP1 DUP5 PUSH1 0x20 ADD DUP2 DUP2 MLOAD PUSH2 0x21E8 SWAP2 SWAP1 PUSH2 0x3426 JUMP JUMPDEST PUSH1 0xF SIGNEXTEND SWAP1 MSTORE POP POP PUSH1 0x40 DUP4 ADD DUP3 SWAP1 MSTORE PUSH2 0x21FF DUP2 PUSH2 0x32E8 JUMP JUMPDEST SWAP1 POP PUSH2 0x2157 JUMP JUMPDEST POP PUSH1 0x0 DUP3 PUSH1 0x0 ADD MLOAD PUSH1 0xF SIGNEXTEND SLT ISZERO PUSH2 0x221C JUMPI PUSH1 0x0 DUP3 MSTORE JUMPDEST POP MLOAD PUSH1 0x1 PUSH1 0x1 PUSH1 0x80 SHL SUB AND SWAP4 SWAP3 POP POP POP JUMP JUMPDEST PUSH1 0x0 NUMBER DUP3 GT ISZERO PUSH2 0x2240 JUMPI PUSH2 0x2240 PUSH2 0x319C JUMP JUMPDEST PUSH1 0x0 DUP4 DUP2 MSTORE PUSH1 0x6 PUSH1 0x20 MSTORE PUSH1 0x40 DUP2 KECCAK256 SLOAD DUP2 JUMPDEST PUSH1 0x80 DUP2 LT ISZERO PUSH2 0x22E4 JUMPI DUP2 DUP4 LT PUSH2 0x2266 JUMPI PUSH2 0x22E4 JUMP JUMPDEST PUSH1 0x0 PUSH1 0x2 PUSH2 0x2274 DUP5 DUP7 PUSH2 0x321E JUMP JUMPDEST PUSH2 0x227F SWAP1 PUSH1 0x1 PUSH2 0x321E JUMP JUMPDEST PUSH2 0x2289 SWAP2 SWAP1 PUSH2 0x326B JUMP JUMPDEST PUSH1 0x0 DUP9 DUP2 MSTORE PUSH1 0x5 PUSH1 0x20 MSTORE PUSH1 0x40 SWAP1 KECCAK256 SWAP1 SWAP2 POP DUP7 SWAP1 DUP3 PUSH4 0x3B9ACA00 DUP2 LT PUSH2 0x22B0 JUMPI PUSH2 0x22B0 PUSH2 0x3186 JUMP JUMPDEST PUSH1 0x3 MUL ADD PUSH1 0x2 ADD SLOAD GT PUSH2 0x22C5 JUMPI DUP1 SWAP4 POP PUSH2 0x22D3 JUMP JUMPDEST PUSH2 0x22D0 PUSH1 0x1 DUP3 PUSH2 0x31EA JUMP JUMPDEST SWAP3 POP JUMPDEST POP PUSH2 0x22DD DUP2 PUSH2 0x32E8 JUMP JUMPDEST SWAP1 POP PUSH2 0x2251 JUMP JUMPDEST POP PUSH1 0x0 DUP6 DUP2 MSTORE PUSH1 0x5 PUSH1 0x20 MSTORE PUSH1 0x40 DUP2 KECCAK256 DUP4 PUSH4 0x3B9ACA00 DUP2 LT PUSH2 0x2307 JUMPI PUSH2 0x2307 PUSH2 0x3186 JUMP JUMPDEST PUSH1 0x40 DUP1 MLOAD PUSH1 0x80 DUP2 ADD DUP3 MSTORE PUSH1 0x3 SWAP3 DUP4 MUL SWAP4 SWAP1 SWAP4 ADD DUP1 SLOAD PUSH1 0xF DUP2 DUP2 SIGNEXTEND DUP7 MSTORE PUSH1 0x1 PUSH1 0x80 SHL SWAP1 SWAP2 DIV SWAP1 SIGNEXTEND PUSH1 0x20 DUP6 ADD MSTORE PUSH1 0x1 DUP2 ADD SLOAD SWAP2 DUP5 ADD SWAP2 SWAP1 SWAP2 MSTORE PUSH1 0x2 ADD SLOAD PUSH1 0x60 DUP4 ADD MSTORE SLOAD SWAP1 SWAP2 POP PUSH1 0x0 PUSH2 0x2357 DUP8 DUP4 PUSH2 0x2506 JUMP JUMPDEST PUSH1 0x0 DUP2 DUP2 MSTORE PUSH1 0x4 PUSH1 0x20 SWAP1 DUP2 MSTORE PUSH1 0x40 DUP1 DUP4 KECCAK256 DUP2 MLOAD PUSH1 0x80 DUP2 ADD DUP4 MSTORE DUP2 SLOAD PUSH1 0xF DUP2 DUP2 SIGNEXTEND DUP4 MSTORE PUSH1 0x1 PUSH1 0x80 SHL SWAP1 SWAP2 DIV SWAP1 SIGNEXTEND SWAP4 DUP2 ADD SWAP4 SWAP1 SWAP4 MSTORE PUSH1 0x1 DUP2 ADD SLOAD SWAP2 DUP4 ADD SWAP2 SWAP1 SWAP2 MSTORE PUSH1 0x2 ADD SLOAD PUSH1 0x60 DUP3 ADD MSTORE SWAP2 SWAP3 POP DUP1 DUP5 DUP5 LT ISZERO PUSH2 0x2436 JUMPI PUSH1 0x0 PUSH1 0x4 DUP2 PUSH2 0x23BB DUP8 PUSH1 0x1 PUSH2 0x321E JUMP JUMPDEST DUP2 MSTORE PUSH1 0x20 DUP1 DUP3 ADD SWAP3 SWAP1 SWAP3 MSTORE PUSH1 0x40 SWAP1 DUP2 ADD PUSH1 0x0 KECCAK256 DUP2 MLOAD PUSH1 0x80 DUP2 ADD DUP4 MSTORE DUP2 SLOAD PUSH1 0xF DUP2 DUP2 SIGNEXTEND DUP4 MSTORE PUSH1 0x1 PUSH1 0x80 SHL SWAP1 SWAP2 DIV SWAP1 SIGNEXTEND SWAP4 DUP2 ADD SWAP4 SWAP1 SWAP4 MSTORE PUSH1 0x1 DUP2 ADD SLOAD SWAP2 DUP4 ADD SWAP2 SWAP1 SWAP2 MSTORE PUSH1 0x2 ADD SLOAD PUSH1 0x60 DUP1 DUP4 ADD DUP3 SWAP1 MSTORE DUP7 ADD MLOAD SWAP2 SWAP3 POP PUSH2 0x2418 SWAP2 SWAP1 PUSH2 0x31EA JUMP JUMPDEST SWAP3 POP DUP4 PUSH1 0x40 ADD MLOAD DUP2 PUSH1 0x40 ADD MLOAD PUSH2 0x242E SWAP2 SWAP1 PUSH2 0x31EA JUMP JUMPDEST SWAP2 POP POP PUSH2 0x245A JUMP JUMPDEST PUSH1 0x60 DUP4 ADD MLOAD PUSH2 0x2445 SWAP1 NUMBER PUSH2 0x31EA JUMP JUMPDEST SWAP2 POP DUP3 PUSH1 0x40 ADD MLOAD TIMESTAMP PUSH2 0x2457 SWAP2 SWAP1 PUSH2 0x31EA JUMP JUMPDEST SWAP1 POP JUMPDEST PUSH1 0x40 DUP4 ADD MLOAD DUP3 ISZERO PUSH2 0x2497 JUMPI DUP3 DUP5 PUSH1 0x60 ADD MLOAD DUP13 PUSH2 0x2476 SWAP2 SWAP1 PUSH2 0x31EA JUMP JUMPDEST PUSH2 0x2480 SWAP1 DUP5 PUSH2 0x3236 JUMP JUMPDEST PUSH2 0x248A SWAP2 SWAP1 PUSH2 0x326B JUMP JUMPDEST PUSH2 0x2494 SWAP1 DUP3 PUSH2 0x321E JUMP JUMPDEST SWAP1 POP JUMPDEST PUSH1 0x40 DUP8 ADD MLOAD PUSH2 0x24A6 SWAP1 DUP3 PUSH2 0x31EA JUMP JUMPDEST DUP8 PUSH1 0x20 ADD MLOAD PUSH2 0x24B5 SWAP2 SWAP1 PUSH2 0x3341 JUMP JUMPDEST DUP8 MLOAD DUP9 SWAP1 PUSH2 0x24C4 SWAP1 DUP4 SWAP1 PUSH2 0x33D6 JUMP JUMPDEST PUSH1 0xF SWAP1 DUP2 SIGNEXTEND SWAP1 SWAP2 MSTORE DUP9 MLOAD PUSH1 0x0 SWAP2 SIGNEXTEND SLT SWAP1 POP PUSH2 0x24F4 JUMPI POP POP SWAP4 MLOAD PUSH1 0x1 PUSH1 0x1 PUSH1 0x80 SHL SUB AND SWAP7 POP PUSH2 0x9EA SWAP6 POP POP POP POP POP POP JUMP JUMPDEST PUSH1 0x0 SWAP10 POP POP POP POP POP POP POP POP POP POP PUSH2 0x9EA JUMP JUMPDEST PUSH1 0x0 DUP1 DUP3 DUP2 JUMPDEST PUSH1 0x80 DUP2 LT ISZERO PUSH2 0x2586 JUMPI DUP2 DUP4 LT PUSH2 0x2521 JUMPI PUSH2 0x2586 JUMP JUMPDEST PUSH1 0x0 PUSH1 0x2 PUSH2 0x252F DUP5 DUP7 PUSH2 0x321E JUMP JUMPDEST PUSH2 0x253A SWAP1 PUSH1 0x1 PUSH2 0x321E JUMP JUMPDEST PUSH2 0x2544 SWAP2 SWAP1 PUSH2 0x326B JUMP JUMPDEST PUSH1 0x0 DUP2 DUP2 MSTORE PUSH1 0x4 PUSH1 0x20 MSTORE PUSH1 0x40 SWAP1 KECCAK256 PUSH1 0x2 ADD SLOAD SWAP1 SWAP2 POP DUP8 LT PUSH2 0x2567 JUMPI DUP1 SWAP4 POP PUSH2 0x2575 JUMP JUMPDEST PUSH2 0x2572 PUSH1 0x1 DUP3 PUSH2 0x31EA JUMP JUMPDEST SWAP3 POP JUMPDEST POP PUSH2 0x257F DUP2 PUSH2 0x32E8 JUMP JUMPDEST SWAP1 POP PUSH2 0x250C JUMP JUMPDEST POP SWAP1 SWAP5 SWAP4 POP POP POP POP JUMP JUMPDEST PUSH1 0x0 SLOAD DUP3 SWAP1 PUSH2 0x259F DUP7 DUP3 PUSH2 0x321E JUMP JUMPDEST PUSH1 0x0 SWAP1 DUP2 SSTORE PUSH1 0x40 DUP1 MLOAD DUP1 DUP3 ADD SWAP1 SWAP2 MSTORE DUP2 DUP2 MSTORE PUSH1 0x20 DUP2 ADD SWAP2 SWAP1 SWAP2 MSTORE DUP3 MLOAD PUSH1 0x20 DUP1 DUP6 ADD MLOAD SWAP1 DUP4 ADD MSTORE PUSH1 0xF SIGNEXTEND DUP2 MSTORE DUP3 MLOAD DUP8 SWAP1 DUP5 SWAP1 PUSH2 0x25DB SWAP1 DUP4 SWAP1 PUSH2 0x3426 JUMP JUMPDEST PUSH1 0xF SIGNEXTEND SWAP1 MSTORE POP DUP6 ISZERO PUSH2 0x25EF JUMPI PUSH1 0x20 DUP4 ADD DUP7 SWAP1 MSTORE JUMPDEST PUSH1 0x0 DUP9 DUP2 MSTORE PUSH1 0x1 PUSH1 0x20 DUP2 DUP2 MSTORE PUSH1 0x40 SWAP1 SWAP3 KECCAK256 DUP6 MLOAD DUP2 SLOAD PUSH1 0x1 PUSH1 0x1 PUSH1 0x80 SHL SUB NOT AND PUSH1 0x1 PUSH1 0x1 PUSH1 0x80 SHL SUB SWAP1 SWAP2 AND OR DUP2 SSTORE SWAP2 DUP6 ADD MLOAD SWAP2 ADD SSTORE PUSH2 0x262E DUP9 DUP3 DUP6 PUSH2 0x1A50 JUMP JUMPDEST CALLER DUP8 ISZERO DUP1 ISZERO SWAP1 PUSH2 0x2650 JUMPI POP PUSH1 0x4 DUP6 PUSH1 0x4 DUP2 GT ISZERO PUSH2 0x264D JUMPI PUSH2 0x264D PUSH2 0x3475 JUMP JUMPDEST EQ ISZERO JUMPDEST ISZERO PUSH2 0x26FA JUMPI PUSH1 0x40 MLOAD PUSH4 0x23B872DD PUSH1 0xE0 SHL DUP2 MSTORE PUSH1 0x1 PUSH1 0x1 PUSH1 0xA0 SHL SUB DUP3 DUP2 AND PUSH1 0x4 DUP4 ADD MSTORE ADDRESS PUSH1 0x24 DUP4 ADD MSTORE PUSH1 0x44 DUP3 ADD DUP11 SWAP1 MSTORE PUSH32 0x0 AND SWAP1 PUSH4 0x23B872DD SWAP1 PUSH1 0x64 ADD PUSH1 0x20 PUSH1 0x40 MLOAD DUP1 DUP4 SUB DUP2 PUSH1 0x0 DUP8 GAS CALL ISZERO DUP1 ISZERO PUSH2 0x26CA JUMPI RETURNDATASIZE PUSH1 0x0 DUP1 RETURNDATACOPY RETURNDATASIZE PUSH1 0x0 REVERT JUMPDEST POP POP POP POP PUSH1 0x40 MLOAD RETURNDATASIZE PUSH1 0x1F NOT PUSH1 0x1F DUP3 ADD AND DUP3 ADD DUP1 PUSH1 0x40 MSTORE POP DUP2 ADD SWAP1 PUSH2 0x26EE SWAP2 SWAP1 PUSH2 0x3201 JUMP JUMPDEST PUSH2 0x26FA JUMPI PUSH2 0x26FA PUSH2 0x319C JUMP JUMPDEST DUP4 PUSH1 0x20 ADD MLOAD DUP2 PUSH1 0x1 PUSH1 0x1 PUSH1 0xA0 SHL SUB AND PUSH32 0xFF04CCAFC360E16B67D682D17BD9503C4C6B9A131F6BE6325762DC9FFC7DE624 DUP12 DUP12 DUP10 TIMESTAMP PUSH1 0x40 MLOAD PUSH2 0x273E SWAP5 SWAP4 SWAP3 SWAP2 SWAP1 PUSH2 0x348B JUMP JUMPDEST PUSH1 0x40 MLOAD DUP1 SWAP2 SUB SWAP1 LOG3 PUSH32 0x5E2AA66EFD74CCE82B21852E317E5490D9ECC9E6BB953AE24D90851258CC2F5C DUP4 PUSH2 0x2772 DUP11 DUP3 PUSH2 0x321E JUMP JUMPDEST PUSH1 0x40 DUP1 MLOAD SWAP3 DUP4 MSTORE PUSH1 0x20 DUP4 ADD SWAP2 SWAP1 SWAP2 MSTORE ADD PUSH1 0x40 MLOAD DUP1 SWAP2 SUB SWAP1 LOG1 POP POP POP POP POP POP POP POP POP JUMP JUMPDEST PUSH1 0x0 DUP3 DUP2 MSTORE PUSH1 0x6 PUSH1 0x20 MSTORE PUSH1 0x40 DUP2 KECCAK256 SLOAD DUP1 PUSH2 0x27B3 JUMPI PUSH1 0x0 SWAP2 POP POP PUSH2 0x9EA JUMP JUMPDEST PUSH1 0x0 DUP5 DUP2 MSTORE PUSH1 0x5 PUSH1 0x20 MSTORE PUSH1 0x40 DUP2 KECCAK256 DUP3 PUSH4 0x3B9ACA00 DUP2 LT PUSH2 0x27D5 JUMPI PUSH2 0x27D5 PUSH2 0x3186 JUMP JUMPDEST PUSH1 0x40 DUP1 MLOAD PUSH1 0x80 DUP2 ADD DUP3 MSTORE PUSH1 0x3 SWAP3 SWAP1 SWAP3 MUL SWAP3 SWAP1 SWAP3 ADD DUP1 SLOAD PUSH1 0xF DUP2 DUP2 SIGNEXTEND DUP5 MSTORE PUSH1 0x1 PUSH1 0x80 SHL SWAP1 SWAP2 DIV SWAP1 SIGNEXTEND PUSH1 0x20 DUP4 ADD MSTORE PUSH1 0x1 DUP2 ADD SLOAD SWAP3 DUP3 ADD DUP4 SWAP1 MSTORE PUSH1 0x2 ADD SLOAD PUSH1 0x60 DUP3 ADD MSTORE SWAP2 POP PUSH2 0x2821 SWAP1 DUP6 PUSH2 0x34C9 JUMP JUMPDEST DUP2 PUSH1 0x20 ADD MLOAD PUSH2 0x2830 SWAP2 SWAP1 PUSH2 0x3341 JUMP JUMPDEST DUP2 MLOAD DUP3 SWAP1 PUSH2 0x283F SWAP1 DUP4 SWAP1 PUSH2 0x33D6 JUMP JUMPDEST PUSH1 0xF SWAP1 DUP2 SIGNEXTEND SWAP1 SWAP2 MSTORE DUP3 MLOAD PUSH1 0x0 SWAP2 SIGNEXTEND SLT ISZERO SWAP1 POP PUSH2 0x285A JUMPI PUSH1 0x0 DUP2 MSTORE JUMPDEST MLOAD PUSH1 0xF SIGNEXTEND SWAP2 POP PUSH2 0x9EA SWAP1 POP JUMP JUMPDEST PUSH1 0x60 PUSH1 0x40 MLOAD DUP1 PUSH2 0x120 ADD PUSH1 0x40 MSTORE DUP1 PUSH1 0xFD DUP2 MSTORE PUSH1 0x20 ADD PUSH2 0x384F PUSH1 0xFD SWAP2 CODECOPY SWAP1 POP DUP1 PUSH2 0x288F DUP7 PUSH2 0x2B7F JUMP JUMPDEST PUSH1 0x40 MLOAD PUSH1 0x20 ADD PUSH2 0x28A0 SWAP3 SWAP2 SWAP1 PUSH2 0x3508 JUMP JUMPDEST PUSH1 0x40 MLOAD PUSH1 0x20 DUP2 DUP4 SUB SUB DUP2 MSTORE SWAP1 PUSH1 0x40 MSTORE SWAP1 POP DUP1 PUSH2 0x28BB DUP6 PUSH2 0x2B7F JUMP JUMPDEST PUSH1 0x40 MLOAD PUSH1 0x20 ADD PUSH2 0x28CC SWAP3 SWAP2 SWAP1 PUSH2 0x3584 JUMP JUMPDEST PUSH1 0x40 MLOAD PUSH1 0x20 DUP2 DUP4 SUB SUB DUP2 MSTORE SWAP1 PUSH1 0x40 MSTORE SWAP1 POP DUP1 PUSH2 0x28E7 DUP5 PUSH2 0x2B7F JUMP JUMPDEST PUSH1 0x40 MLOAD PUSH1 0x20 ADD PUSH2 0x28F8 SWAP3 SWAP2 SWAP1 PUSH2 0x3604 JUMP JUMPDEST PUSH1 0x40 MLOAD PUSH1 0x20 DUP2 DUP4 SUB SUB DUP2 MSTORE SWAP1 PUSH1 0x40 MSTORE SWAP1 POP DUP1 PUSH2 0x2913 DUP4 PUSH2 0x2B7F JUMP JUMPDEST PUSH1 0x40 MLOAD PUSH1 0x20 ADD PUSH2 0x2924 SWAP3 SWAP2 SWAP1 PUSH2 0x3685 JUMP JUMPDEST PUSH1 0x40 MLOAD PUSH1 0x20 DUP2 DUP4 SUB SUB DUP2 MSTORE SWAP1 PUSH1 0x40 MSTORE SWAP1 POP PUSH1 0x0 PUSH2 0x2971 PUSH2 0x2943 DUP8 PUSH2 0x2B7F JUMP JUMPDEST PUSH2 0x294C DUP5 PUSH2 0x2C7D JUMP JUMPDEST PUSH1 0x40 MLOAD PUSH1 0x20 ADD PUSH2 0x295D SWAP3 SWAP2 SWAP1 PUSH2 0x36E0 JUMP JUMPDEST PUSH1 0x40 MLOAD PUSH1 0x20 DUP2 DUP4 SUB SUB DUP2 MSTORE SWAP1 PUSH1 0x40 MSTORE PUSH2 0x2C7D JUMP JUMPDEST SWAP1 POP DUP1 PUSH1 0x40 MLOAD PUSH1 0x20 ADD PUSH2 0x2984 SWAP2 SWAP1 PUSH2 0x37F5 JUMP JUMPDEST PUSH1 0x40 MLOAD PUSH1 0x20 DUP2 DUP4 SUB SUB DUP2 MSTORE SWAP1 PUSH1 0x40 MSTORE SWAP2 POP POP SWAP5 SWAP4 POP POP POP POP JUMP JUMPDEST PUSH1 0x0 DUP2 DUP2 MSTORE PUSH1 0xC PUSH1 0x20 MSTORE PUSH1 0x40 SWAP1 KECCAK256 SLOAD PUSH1 0x1 PUSH1 0x1 PUSH1 0xA0 SHL SUB DUP4 DUP2 AND SWAP2 AND EQ PUSH2 0x29C7 JUMPI PUSH2 0x29C7 PUSH2 0x319C JUMP JUMPDEST PUSH1 0x0 DUP2 DUP2 MSTORE PUSH1 0xD PUSH1 0x20 MSTORE PUSH1 0x40 SWAP1 KECCAK256 SLOAD PUSH1 0x1 PUSH1 0x1 PUSH1 0xA0 SHL SUB AND ISZERO PUSH2 0x2A01 JUMPI PUSH1 0x0 DUP2 DUP2 MSTORE PUSH1 0xD PUSH1 0x20 MSTORE PUSH1 0x40 SWAP1 KECCAK256 DUP1 SLOAD PUSH1 0x1 PUSH1 0x1 PUSH1 0xA0 SHL SUB NOT AND SWAP1 SSTORE JUMPDEST POP POP JUMP JUMPDEST PUSH1 0x0 DUP2 DUP2 MSTORE PUSH1 0xC PUSH1 0x20 MSTORE PUSH1 0x40 SWAP1 KECCAK256 SLOAD PUSH1 0x1 PUSH1 0x1 PUSH1 0xA0 SHL SUB DUP4 DUP2 AND SWAP2 AND EQ PUSH2 0x2A2E JUMPI PUSH2 0x2A2E PUSH2 0x319C JUMP JUMPDEST PUSH1 0x0 DUP2 DUP2 MSTORE PUSH1 0xC PUSH1 0x20 MSTORE PUSH1 0x40 SWAP1 KECCAK256 DUP1 SLOAD PUSH1 0x1 PUSH1 0x1 PUSH1 0xA0 SHL SUB NOT AND SWAP1 SSTORE PUSH2 0x2A54 DUP3 DUP3 PUSH2 0x2DE3 JUMP JUMPDEST PUSH1 0x1 PUSH1 0x1 PUSH1 0xA0 SHL SUB DUP3 AND PUSH1 0x0 SWAP1 DUP2 MSTORE PUSH1 0xE PUSH1 0x20 MSTORE PUSH1 0x40 DUP2 KECCAK256 DUP1 SLOAD PUSH1 0x1 SWAP3 SWAP1 PUSH2 0x2A7D SWAP1 DUP5 SWAP1 PUSH2 0x31EA JUMP JUMPDEST SWAP1 SWAP2 SSTORE POP POP POP POP JUMP JUMPDEST PUSH1 0x0 DUP2 DUP2 MSTORE PUSH1 0xC PUSH1 0x20 MSTORE PUSH1 0x40 SWAP1 KECCAK256 SLOAD PUSH1 0x1 PUSH1 0x1 PUSH1 0xA0 SHL SUB AND ISZERO PUSH2 0x2AAB JUMPI PUSH2 0x2AAB PUSH2 0x319C JUMP JUMPDEST PUSH1 0x0 DUP2 DUP2 MSTORE PUSH1 0xC PUSH1 0x20 SWAP1 DUP2 MSTORE PUSH1 0x40 DUP1 DUP4 KECCAK256 DUP1 SLOAD PUSH1 0x1 PUSH1 0x1 PUSH1 0xA0 SHL SUB NOT AND PUSH1 0x1 PUSH1 0x1 PUSH1 0xA0 SHL SUB DUP8 AND SWAP1 DUP2 OR SWAP1 SWAP2 SSTORE DUP1 DUP5 MSTORE PUSH1 0xE DUP1 DUP5 MSTORE DUP3 DUP6 KECCAK256 DUP1 SLOAD PUSH1 0xF DUP7 MSTORE DUP5 DUP8 KECCAK256 DUP2 DUP9 MSTORE DUP7 MSTORE DUP5 DUP8 KECCAK256 DUP9 SWAP1 SSTORE DUP8 DUP8 MSTORE PUSH1 0x10 DUP7 MSTORE SWAP4 DUP7 KECCAK256 SWAP4 SWAP1 SWAP4 SSTORE SWAP1 DUP5 MSTORE SWAP1 SWAP2 MSTORE DUP1 SLOAD PUSH1 0x1 SWAP3 SWAP1 PUSH2 0x2A7D SWAP1 DUP5 SWAP1 PUSH2 0x321E JUMP JUMPDEST PUSH1 0x0 PUSH1 0x1 PUSH1 0x1 PUSH1 0xA0 SHL SUB DUP4 AND PUSH2 0x2B34 JUMPI PUSH2 0x2B34 PUSH2 0x319C JUMP JUMPDEST PUSH2 0x2B3E DUP4 DUP4 PUSH2 0x2A86 JUMP JUMPDEST PUSH1 0x40 MLOAD DUP3 SWAP1 PUSH1 0x1 PUSH1 0x1 PUSH1 0xA0 SHL SUB DUP6 AND SWAP1 PUSH1 0x0 SWAP1 PUSH32 0xDDF252AD1BE2C89B69C2B068FC378DAA952BA7F163C4A11628F55A4DF523B3EF SWAP1 DUP3 SWAP1 LOG4 POP PUSH1 0x1 SWAP3 SWAP2 POP POP JUMP JUMPDEST PUSH1 0x60 DUP2 PUSH2 0x2BA3 JUMPI POP POP PUSH1 0x40 DUP1 MLOAD DUP1 DUP3 ADD SWAP1 SWAP2 MSTORE PUSH1 0x1 DUP2 MSTORE PUSH1 0x3 PUSH1 0xFC SHL PUSH1 0x20 DUP3 ADD MSTORE SWAP1 JUMP JUMPDEST DUP2 PUSH1 0x0 JUMPDEST DUP2 ISZERO PUSH2 0x2BCD JUMPI DUP1 PUSH2 0x2BB7 DUP2 PUSH2 0x32E8 JUMP JUMPDEST SWAP2 POP PUSH2 0x2BC6 SWAP1 POP PUSH1 0xA DUP4 PUSH2 0x326B JUMP JUMPDEST SWAP2 POP PUSH2 0x2BA7 JUMP JUMPDEST PUSH1 0x0 DUP2 PUSH8 0xFFFFFFFFFFFFFFFF DUP2 GT ISZERO PUSH2 0x2BE8 JUMPI PUSH2 0x2BE8 PUSH2 0x3061 JUMP JUMPDEST PUSH1 0x40 MLOAD SWAP1 DUP1 DUP3 MSTORE DUP1 PUSH1 0x1F ADD PUSH1 0x1F NOT AND PUSH1 0x20 ADD DUP3 ADD PUSH1 0x40 MSTORE DUP1 ISZERO PUSH2 0x2C12 JUMPI PUSH1 0x20 DUP3 ADD DUP2 DUP1 CALLDATASIZE DUP4 CALLDATACOPY ADD SWAP1 POP JUMPDEST POP SWAP1 POP JUMPDEST DUP5 ISZERO PUSH2 0xE58 JUMPI PUSH2 0x2C27 PUSH1 0x1 DUP4 PUSH2 0x31EA JUMP JUMPDEST SWAP2 POP PUSH2 0x2C34 PUSH1 0xA DUP7 PUSH2 0x383A JUMP JUMPDEST PUSH2 0x2C3F SWAP1 PUSH1 0x30 PUSH2 0x321E JUMP JUMPDEST PUSH1 0xF8 SHL DUP2 DUP4 DUP2 MLOAD DUP2 LT PUSH2 0x2C54 JUMPI PUSH2 0x2C54 PUSH2 0x3186 JUMP JUMPDEST PUSH1 0x20 ADD ADD SWAP1 PUSH1 0x1 PUSH1 0x1 PUSH1 0xF8 SHL SUB NOT AND SWAP1 DUP2 PUSH1 0x0 BYTE SWAP1 MSTORE8 POP PUSH2 0x2C76 PUSH1 0xA DUP7 PUSH2 0x326B JUMP JUMPDEST SWAP5 POP PUSH2 0x2C16 JUMP JUMPDEST DUP1 MLOAD PUSH1 0x60 SWAP1 DUP1 PUSH2 0x2C9D JUMPI POP POP PUSH1 0x40 DUP1 MLOAD PUSH1 0x20 DUP2 ADD SWAP1 SWAP2 MSTORE PUSH1 0x0 DUP2 MSTORE SWAP2 SWAP1 POP JUMP JUMPDEST PUSH1 0x0 PUSH1 0x3 PUSH2 0x2CAC DUP4 PUSH1 0x2 PUSH2 0x321E JUMP JUMPDEST PUSH2 0x2CB6 SWAP2 SWAP1 PUSH2 0x326B JUMP JUMPDEST PUSH2 0x2CC1 SWAP1 PUSH1 0x4 PUSH2 0x3236 JUMP JUMPDEST SWAP1 POP PUSH1 0x0 PUSH2 0x2CD0 DUP3 PUSH1 0x20 PUSH2 0x321E JUMP JUMPDEST PUSH8 0xFFFFFFFFFFFFFFFF DUP2 GT ISZERO PUSH2 0x2CE8 JUMPI PUSH2 0x2CE8 PUSH2 0x3061 JUMP JUMPDEST PUSH1 0x40 MLOAD SWAP1 DUP1 DUP3 MSTORE DUP1 PUSH1 0x1F ADD PUSH1 0x1F NOT AND PUSH1 0x20 ADD DUP3 ADD PUSH1 0x40 MSTORE DUP1 ISZERO PUSH2 0x2D12 JUMPI PUSH1 0x20 DUP3 ADD DUP2 DUP1 CALLDATASIZE DUP4 CALLDATACOPY ADD SWAP1 POP JUMPDEST POP SWAP1 POP PUSH1 0x0 PUSH1 0x40 MLOAD DUP1 PUSH1 0x60 ADD PUSH1 0x40 MSTORE DUP1 PUSH1 0x40 DUP2 MSTORE PUSH1 0x20 ADD PUSH2 0x394C PUSH1 0x40 SWAP2 CODECOPY SWAP1 POP PUSH1 0x1 DUP2 ADD PUSH1 0x20 DUP4 ADD PUSH1 0x0 JUMPDEST DUP7 DUP2 LT ISZERO PUSH2 0x2D9E JUMPI PUSH1 0x3 DUP2 DUP11 ADD DUP2 ADD MLOAD PUSH1 0x3F PUSH1 0x12 DUP3 SWAP1 SHR DUP2 AND DUP7 ADD MLOAD PUSH1 0xC DUP4 SWAP1 SHR DUP3 AND DUP8 ADD MLOAD PUSH1 0x6 DUP5 SWAP1 SHR DUP4 AND DUP9 ADD MLOAD SWAP3 SWAP1 SWAP4 AND DUP8 ADD MLOAD PUSH1 0x8 SWAP2 DUP3 SHL PUSH1 0xFF SWAP5 DUP6 AND ADD DUP3 SHL SWAP3 DUP5 AND SWAP3 SWAP1 SWAP3 ADD SWAP1 SHL SWAP2 AND ADD PUSH1 0xE0 SHL DUP4 MSTORE PUSH1 0x4 SWAP1 SWAP3 ADD SWAP2 ADD PUSH2 0x2D3D JUMP JUMPDEST POP PUSH1 0x3 DUP7 MOD PUSH1 0x1 DUP2 EQ PUSH2 0x2DB8 JUMPI PUSH1 0x2 DUP2 EQ PUSH2 0x2DC9 JUMPI PUSH2 0x2DD5 JUMP JUMPDEST PUSH2 0x3D3D PUSH1 0xF0 SHL PUSH1 0x1 NOT DUP4 ADD MSTORE PUSH2 0x2DD5 JUMP JUMPDEST PUSH1 0x3D PUSH1 0xF8 SHL PUSH1 0x0 NOT DUP4 ADD MSTORE JUMPDEST POP POP POP SWAP2 DUP2 MSTORE SWAP5 SWAP4 POP POP POP POP JUMP JUMPDEST PUSH1 0x1 PUSH1 0x1 PUSH1 0xA0 SHL SUB DUP3 AND PUSH1 0x0 SWAP1 DUP2 MSTORE PUSH1 0xE PUSH1 0x20 MSTORE PUSH1 0x40 DUP2 KECCAK256 SLOAD PUSH2 0x2E08 SWAP1 PUSH1 0x1 SWAP1 PUSH2 0x31EA JUMP JUMPDEST PUSH1 0x0 DUP4 DUP2 MSTORE PUSH1 0x10 PUSH1 0x20 MSTORE PUSH1 0x40 SWAP1 KECCAK256 SLOAD SWAP1 SWAP2 POP DUP1 DUP3 EQ ISZERO PUSH2 0x2E58 JUMPI PUSH1 0x1 PUSH1 0x1 PUSH1 0xA0 SHL SUB DUP5 AND PUSH1 0x0 SWAP1 DUP2 MSTORE PUSH1 0xF PUSH1 0x20 SWAP1 DUP2 MSTORE PUSH1 0x40 DUP1 DUP4 KECCAK256 DUP6 DUP5 MSTORE DUP3 MSTORE DUP1 DUP4 KECCAK256 DUP4 SWAP1 SSTORE DUP6 DUP4 MSTORE PUSH1 0x10 SWAP1 SWAP2 MSTORE DUP2 KECCAK256 SSTORE PUSH2 0x13DF JUMP JUMPDEST PUSH1 0x1 PUSH1 0x1 PUSH1 0xA0 SHL SUB SWAP4 SWAP1 SWAP4 AND PUSH1 0x0 SWAP1 DUP2 MSTORE PUSH1 0xF PUSH1 0x20 SWAP1 DUP2 MSTORE PUSH1 0x40 DUP1 DUP4 KECCAK256 SWAP4 DUP4 MSTORE SWAP3 DUP2 MSTORE DUP3 DUP3 KECCAK256 DUP1 SLOAD DUP7 DUP5 MSTORE DUP5 DUP5 KECCAK256 DUP2 SWAP1 SSTORE DUP4 MSTORE PUSH1 0x10 SWAP1 SWAP2 MSTORE DUP3 DUP3 KECCAK256 SWAP5 SWAP1 SWAP5 SSTORE SWAP3 DUP4 SWAP1 SSTORE SWAP1 DUP3 MSTORE DUP2 KECCAK256 SSTORE JUMP JUMPDEST PUSH1 0x1 PUSH1 0x1 PUSH1 0xE0 SHL SUB NOT DUP2 AND DUP2 EQ PUSH2 0x2EB9 JUMPI PUSH1 0x0 DUP1 REVERT JUMPDEST POP JUMP JUMPDEST PUSH1 0x0 PUSH1 0x20 DUP3 DUP5 SUB SLT ISZERO PUSH2 0x2ECE JUMPI PUSH1 0x0 DUP1 REVERT JUMPDEST DUP2 CALLDATALOAD PUSH2 0xA28 DUP2 PUSH2 0x2EA3 JUMP JUMPDEST PUSH1 0x0 JUMPDEST DUP4 DUP2 LT ISZERO PUSH2 0x2EF4 JUMPI DUP2 DUP2 ADD MLOAD DUP4 DUP3 ADD MSTORE PUSH1 0x20 ADD PUSH2 0x2EDC JUMP JUMPDEST DUP4 DUP2 GT ISZERO PUSH2 0x13DF JUMPI POP POP PUSH1 0x0 SWAP2 ADD MSTORE JUMP JUMPDEST PUSH1 0x0 DUP2 MLOAD DUP1 DUP5 MSTORE PUSH2 0x2F1D DUP2 PUSH1 0x20 DUP7 ADD PUSH1 0x20 DUP7 ADD PUSH2 0x2ED9 JUMP JUMPDEST PUSH1 0x1F ADD PUSH1 0x1F NOT AND SWAP3 SWAP1 SWAP3 ADD PUSH1 0x20 ADD SWAP3 SWAP2 POP POP JUMP JUMPDEST PUSH1 0x20 DUP2 MSTORE PUSH1 0x0 PUSH2 0xA28 PUSH1 0x20 DUP4 ADD DUP5 PUSH2 0x2F05 JUMP JUMPDEST PUSH1 0x0 PUSH1 0x20 DUP3 DUP5 SUB SLT ISZERO PUSH2 0x2F56 JUMPI PUSH1 0x0 DUP1 REVERT JUMPDEST POP CALLDATALOAD SWAP2 SWAP1 POP JUMP JUMPDEST DUP1 CALLDATALOAD PUSH1 0x1 PUSH1 0x1 PUSH1 0xA0 SHL SUB DUP2 AND DUP2 EQ PUSH2 0x2F74 JUMPI PUSH1 0x0 DUP1 REVERT JUMPDEST SWAP2 SWAP1 POP JUMP JUMPDEST PUSH1 0x0 DUP1 PUSH1 0x40 DUP4 DUP6 SUB SLT ISZERO PUSH2 0x2F8C JUMPI PUSH1 0x0 DUP1 REVERT JUMPDEST PUSH2 0x2F95 DUP4 PUSH2 0x2F5D JUMP JUMPDEST SWAP5 PUSH1 0x20 SWAP4 SWAP1 SWAP4 ADD CALLDATALOAD SWAP4 POP POP POP JUMP JUMPDEST PUSH1 0x0 DUP1 PUSH1 0x40 DUP4 DUP6 SUB SLT ISZERO PUSH2 0x2FB6 JUMPI PUSH1 0x0 DUP1 REVERT JUMPDEST POP POP DUP1 CALLDATALOAD SWAP3 PUSH1 0x20 SWAP1 SWAP2 ADD CALLDATALOAD SWAP2 POP JUMP JUMPDEST PUSH1 0x0 DUP1 PUSH1 0x0 PUSH1 0x60 DUP5 DUP7 SUB SLT ISZERO PUSH2 0x2FDA JUMPI PUSH1 0x0 DUP1 REVERT JUMPDEST PUSH2 0x2FE3 DUP5 PUSH2 0x2F5D JUMP JUMPDEST SWAP3 POP PUSH2 0x2FF1 PUSH1 0x20 DUP6 ADD PUSH2 0x2F5D JUMP JUMPDEST SWAP2 POP PUSH1 0x40 DUP5 ADD CALLDATALOAD SWAP1 POP SWAP3 POP SWAP3 POP SWAP3 JUMP JUMPDEST PUSH1 0x0 PUSH1 0x20 DUP3 DUP5 SUB SLT ISZERO PUSH2 0x3013 JUMPI PUSH1 0x0 DUP1 REVERT JUMPDEST PUSH2 0xA28 DUP3 PUSH2 0x2F5D JUMP JUMPDEST DUP1 ISZERO ISZERO DUP2 EQ PUSH2 0x2EB9 JUMPI PUSH1 0x0 DUP1 REVERT JUMPDEST PUSH1 0x0 DUP1 PUSH1 0x40 DUP4 DUP6 SUB SLT ISZERO PUSH2 0x303D JUMPI PUSH1 0x0 DUP1 REVERT JUMPDEST PUSH2 0x3046 DUP4 PUSH2 0x2F5D JUMP JUMPDEST SWAP2 POP PUSH1 0x20 DUP4 ADD CALLDATALOAD PUSH2 0x3056 DUP2 PUSH2 0x301C JUMP JUMPDEST DUP1 SWAP2 POP POP SWAP3 POP SWAP3 SWAP1 POP JUMP JUMPDEST PUSH4 0x4E487B71 PUSH1 0xE0 SHL PUSH1 0x0 MSTORE PUSH1 0x41 PUSH1 0x4 MSTORE PUSH1 0x24 PUSH1 0x0 REVERT JUMPDEST PUSH1 0x0 DUP1 PUSH1 0x0 DUP1 PUSH1 0x80 DUP6 DUP8 SUB SLT ISZERO PUSH2 0x308D JUMPI PUSH1 0x0 DUP1 REVERT JUMPDEST PUSH2 0x3096 DUP6 PUSH2 0x2F5D JUMP JUMPDEST SWAP4 POP PUSH2 0x30A4 PUSH1 0x20 DUP7 ADD PUSH2 0x2F5D JUMP JUMPDEST SWAP3 POP PUSH1 0x40 DUP6 ADD CALLDATALOAD SWAP2 POP PUSH1 0x60 DUP6 ADD CALLDATALOAD PUSH8 0xFFFFFFFFFFFFFFFF DUP1 DUP3 GT ISZERO PUSH2 0x30C8 JUMPI PUSH1 0x0 DUP1 REVERT JUMPDEST DUP2 DUP8 ADD SWAP2 POP DUP8 PUSH1 0x1F DUP4 ADD SLT PUSH2 0x30DC JUMPI PUSH1 0x0 DUP1 REVERT JUMPDEST DUP2 CALLDATALOAD DUP2 DUP2 GT ISZERO PUSH2 0x30EE JUMPI PUSH2 0x30EE PUSH2 0x3061 JUMP JUMPDEST PUSH1 0x40 MLOAD PUSH1 0x1F DUP3 ADD PUSH1 0x1F NOT SWAP1 DUP2 AND PUSH1 0x3F ADD AND DUP2 ADD SWAP1 DUP4 DUP3 GT DUP2 DUP4 LT OR ISZERO PUSH2 0x3116 JUMPI PUSH2 0x3116 PUSH2 0x3061 JUMP JUMPDEST DUP2 PUSH1 0x40 MSTORE DUP3 DUP2 MSTORE DUP11 PUSH1 0x20 DUP5 DUP8 ADD ADD GT ISZERO PUSH2 0x312F JUMPI PUSH1 0x0 DUP1 REVERT JUMPDEST DUP3 PUSH1 0x20 DUP7 ADD PUSH1 0x20 DUP4 ADD CALLDATACOPY PUSH1 0x0 PUSH1 0x20 DUP5 DUP4 ADD ADD MSTORE DUP1 SWAP6 POP POP POP POP POP POP SWAP3 SWAP6 SWAP2 SWAP5 POP SWAP3 POP JUMP JUMPDEST PUSH1 0x0 DUP1 PUSH1 0x40 DUP4 DUP6 SUB SLT ISZERO PUSH2 0x3166 JUMPI PUSH1 0x0 DUP1 REVERT JUMPDEST PUSH2 0x316F DUP4 PUSH2 0x2F5D JUMP JUMPDEST SWAP2 POP PUSH2 0x317D PUSH1 0x20 DUP5 ADD PUSH2 0x2F5D JUMP JUMPDEST SWAP1 POP SWAP3 POP SWAP3 SWAP1 POP JUMP JUMPDEST PUSH4 0x4E487B71 PUSH1 0xE0 SHL PUSH1 0x0 MSTORE PUSH1 0x32 PUSH1 0x4 MSTORE PUSH1 0x24 PUSH1 0x0 REVERT JUMPDEST PUSH4 0x4E487B71 PUSH1 0xE0 SHL PUSH1 0x0 MSTORE PUSH1 0x1 PUSH1 0x4 MSTORE PUSH1 0x24 PUSH1 0x0 REVERT JUMPDEST PUSH1 0x20 DUP1 DUP3 MSTORE PUSH1 0x8 SWAP1 DUP3 ADD MSTORE PUSH8 0x185D1D1858DA1959 PUSH1 0xC2 SHL PUSH1 0x40 DUP3 ADD MSTORE PUSH1 0x60 ADD SWAP1 JUMP JUMPDEST PUSH4 0x4E487B71 PUSH1 0xE0 SHL PUSH1 0x0 MSTORE PUSH1 0x11 PUSH1 0x4 MSTORE PUSH1 0x24 PUSH1 0x0 REVERT JUMPDEST PUSH1 0x0 DUP3 DUP3 LT ISZERO PUSH2 0x31FC JUMPI PUSH2 0x31FC PUSH2 0x31D4 JUMP JUMPDEST POP SUB SWAP1 JUMP JUMPDEST PUSH1 0x0 PUSH1 0x20 DUP3 DUP5 SUB SLT ISZERO PUSH2 0x3213 JUMPI PUSH1 0x0 DUP1 REVERT JUMPDEST DUP2 MLOAD PUSH2 0xA28 DUP2 PUSH2 0x301C JUMP JUMPDEST PUSH1 0x0 DUP3 NOT DUP3 GT ISZERO PUSH2 0x3231 JUMPI PUSH2 0x3231 PUSH2 0x31D4 JUMP JUMPDEST POP ADD SWAP1 JUMP JUMPDEST PUSH1 0x0 DUP2 PUSH1 0x0 NOT DIV DUP4 GT DUP3 ISZERO ISZERO AND ISZERO PUSH2 0x3250 JUMPI PUSH2 0x3250 PUSH2 0x31D4 JUMP JUMPDEST POP MUL SWAP1 JUMP JUMPDEST PUSH4 0x4E487B71 PUSH1 0xE0 SHL PUSH1 0x0 MSTORE PUSH1 0x12 PUSH1 0x4 MSTORE PUSH1 0x24 PUSH1 0x0 REVERT JUMPDEST PUSH1 0x0 DUP3 PUSH2 0x327A JUMPI PUSH2 0x327A PUSH2 0x3255 JUMP JUMPDEST POP DIV SWAP1 JUMP JUMPDEST PUSH1 0x1 PUSH1 0x1 PUSH1 0xA0 SHL SUB DUP6 DUP2 AND DUP3 MSTORE DUP5 AND PUSH1 0x20 DUP3 ADD MSTORE PUSH1 0x40 DUP2 ADD DUP4 SWAP1 MSTORE PUSH1 0x80 PUSH1 0x60 DUP3 ADD DUP2 SWAP1 MSTORE PUSH1 0x0 SWAP1 PUSH2 0x1004 SWAP1 DUP4 ADD DUP5 PUSH2 0x2F05 JUMP JUMPDEST PUSH1 0x0 PUSH1 0x20 DUP3 DUP5 SUB SLT ISZERO PUSH2 0x32C4 JUMPI PUSH1 0x0 DUP1 REVERT JUMPDEST DUP2 MLOAD PUSH2 0xA28 DUP2 PUSH2 0x2EA3 JUMP JUMPDEST PUSH1 0x0 PUSH1 0x20 DUP3 DUP5 SUB SLT ISZERO PUSH2 0x32E1 JUMPI PUSH1 0x0 DUP1 REVERT JUMPDEST POP MLOAD SWAP2 SWAP1 POP JUMP JUMPDEST PUSH1 0x0 PUSH1 0x0 NOT DUP3 EQ ISZERO PUSH2 0x32FC JUMPI PUSH2 0x32FC PUSH2 0x31D4 JUMP JUMPDEST POP PUSH1 0x1 ADD SWAP1 JUMP JUMPDEST PUSH1 0x0 DUP2 PUSH1 0xF SIGNEXTEND DUP4 PUSH1 0xF SIGNEXTEND DUP1 PUSH2 0x331A JUMPI PUSH2 0x331A PUSH2 0x3255 JUMP JUMPDEST PUSH1 0x1 PUSH1 0x1 PUSH1 0x7F SHL SUB NOT DUP3 EQ PUSH1 0x0 NOT DUP3 EQ AND ISZERO PUSH2 0x3338 JUMPI PUSH2 0x3338 PUSH2 0x31D4 JUMP JUMPDEST SWAP1 SDIV SWAP4 SWAP3 POP POP POP JUMP JUMPDEST PUSH1 0x0 DUP2 PUSH1 0xF SIGNEXTEND DUP4 PUSH1 0xF SIGNEXTEND PUSH1 0x1 PUSH1 0x1 PUSH1 0x7F SHL SUB PUSH1 0x0 DUP3 SGT PUSH1 0x0 DUP5 SGT DUP4 DUP4 DIV DUP6 GT DUP3 DUP3 AND AND ISZERO PUSH2 0x3371 JUMPI PUSH2 0x3371 PUSH2 0x31D4 JUMP JUMPDEST PUSH1 0x1 PUSH1 0x1 PUSH1 0x7F SHL SUB NOT PUSH1 0x0 DUP6 SLT DUP3 DUP2 AND DUP8 DUP4 SDIV DUP8 SLT AND ISZERO PUSH2 0x3394 JUMPI PUSH2 0x3394 PUSH2 0x31D4 JUMP JUMPDEST PUSH1 0x0 DUP8 SLT SWAP3 POP DUP6 DUP3 SDIV DUP8 SLT DUP5 DUP5 AND AND ISZERO PUSH2 0x33B0 JUMPI PUSH2 0x33B0 PUSH2 0x31D4 JUMP JUMPDEST DUP6 DUP6 SDIV DUP8 SLT DUP2 DUP5 AND AND ISZERO PUSH2 0x33C6 JUMPI PUSH2 0x33C6 PUSH2 0x31D4 JUMP JUMPDEST POP POP POP SWAP3 SWAP1 SWAP2 MUL SWAP6 SWAP5 POP POP POP POP POP JUMP JUMPDEST PUSH1 0x0 DUP2 PUSH1 0xF SIGNEXTEND DUP4 PUSH1 0xF SIGNEXTEND PUSH1 0x0 DUP2 SLT DUP2 PUSH1 0x1 PUSH1 0x1 PUSH1 0x7F SHL SUB NOT ADD DUP4 SLT DUP2 ISZERO AND ISZERO PUSH2 0x3401 JUMPI PUSH2 0x3401 PUSH2 0x31D4 JUMP JUMPDEST DUP2 PUSH1 0x1 PUSH1 0x1 PUSH1 0x7F SHL SUB ADD DUP4 SGT DUP2 AND ISZERO PUSH2 0x341C JUMPI PUSH2 0x341C PUSH2 0x31D4 JUMP JUMPDEST POP SWAP1 SUB SWAP4 SWAP3 POP POP POP JUMP JUMPDEST PUSH1 0x0 DUP2 PUSH1 0xF SIGNEXTEND DUP4 PUSH1 0xF SIGNEXTEND PUSH1 0x0 DUP3 SLT DUP3 PUSH1 0x1 PUSH1 0x1 PUSH1 0x7F SHL SUB SUB DUP3 SGT DUP2 ISZERO AND ISZERO PUSH2 0x3450 JUMPI PUSH2 0x3450 PUSH2 0x31D4 JUMP JUMPDEST DUP3 PUSH1 0x1 PUSH1 0x1 PUSH1 0x7F SHL SUB NOT SUB DUP3 SLT DUP2 AND ISZERO PUSH2 0x346C JUMPI PUSH2 0x346C PUSH2 0x31D4 JUMP JUMPDEST POP ADD SWAP4 SWAP3 POP POP POP JUMP JUMPDEST PUSH4 0x4E487B71 PUSH1 0xE0 SHL PUSH1 0x0 MSTORE PUSH1 0x21 PUSH1 0x4 MSTORE PUSH1 0x24 PUSH1 0x0 REVERT JUMPDEST DUP5 DUP2 MSTORE PUSH1 0x20 DUP2 ADD DUP5 SWAP1 MSTORE PUSH1 0x80 DUP2 ADD PUSH1 0x5 DUP5 LT PUSH2 0x34B7 JUMPI PUSH4 0x4E487B71 PUSH1 0xE0 SHL PUSH1 0x0 MSTORE PUSH1 0x21 PUSH1 0x4 MSTORE PUSH1 0x24 PUSH1 0x0 REVERT JUMPDEST PUSH1 0x40 DUP3 ADD SWAP4 SWAP1 SWAP4 MSTORE PUSH1 0x60 ADD MSTORE SWAP3 SWAP2 POP POP JUMP JUMPDEST PUSH1 0x0 DUP1 DUP4 SLT DUP1 ISZERO PUSH1 0x1 PUSH1 0xFF SHL DUP6 ADD DUP5 SLT AND ISZERO PUSH2 0x34E7 JUMPI PUSH2 0x34E7 PUSH2 0x31D4 JUMP JUMPDEST PUSH1 0x1 PUSH1 0x1 PUSH1 0xFF SHL SUB DUP5 ADD DUP4 SGT DUP2 AND ISZERO PUSH2 0x3502 JUMPI PUSH2 0x3502 PUSH2 0x31D4 JUMP JUMPDEST POP POP SUB SWAP1 JUMP JUMPDEST PUSH1 0x0 DUP4 MLOAD PUSH2 0x351A DUP2 DUP5 PUSH1 0x20 DUP9 ADD PUSH2 0x2ED9 JUMP JUMPDEST PUSH6 0x3A37B5B2B71 PUSH1 0xD5 SHL SWAP1 DUP4 ADD SWAP1 DUP2 MSTORE DUP4 MLOAD PUSH2 0x353D DUP2 PUSH1 0x6 DUP5 ADD PUSH1 0x20 DUP9 ADD PUSH2 0x2ED9 JUMP JUMPDEST PUSH32 0x3C2F746578743E3C7465787420783D2231302220793D2234302220636C617373 PUSH1 0x6 SWAP3 SWAP1 SWAP2 ADD SWAP2 DUP3 ADD MSTORE PUSH8 0x1E913130B9B2911F PUSH1 0xC1 SHL PUSH1 0x26 DUP3 ADD MSTORE PUSH1 0x2E ADD SWAP5 SWAP4 POP POP POP POP JUMP JUMPDEST PUSH1 0x0 DUP4 MLOAD PUSH2 0x3596 DUP2 DUP5 PUSH1 0x20 DUP9 ADD PUSH2 0x2ED9 JUMP JUMPDEST PUSH10 0x3130B630B731B2A7B31 PUSH1 0xB5 SHL SWAP1 DUP4 ADD SWAP1 DUP2 MSTORE DUP4 MLOAD PUSH2 0x35BD DUP2 PUSH1 0xA DUP5 ADD PUSH1 0x20 DUP9 ADD PUSH2 0x2ED9 JUMP JUMPDEST PUSH32 0x3C2F746578743E3C7465787420783D2231302220793D2236302220636C617373 PUSH1 0xA SWAP3 SWAP1 SWAP2 ADD SWAP2 DUP3 ADD MSTORE PUSH8 0x1E913130B9B2911F PUSH1 0xC1 SHL PUSH1 0x2A DUP3 ADD MSTORE PUSH1 0x32 ADD SWAP5 SWAP4 POP POP POP POP JUMP JUMPDEST PUSH1 0x0 DUP4 MLOAD PUSH2 0x3616 DUP2 DUP5 PUSH1 0x20 DUP9 ADD PUSH2 0x2ED9 JUMP JUMPDEST PUSH11 0x3637B1B5B2B22FB2B7321 PUSH1 0xAD SHL SWAP1 DUP4 ADD SWAP1 DUP2 MSTORE DUP4 MLOAD PUSH2 0x363E DUP2 PUSH1 0xB DUP5 ADD PUSH1 0x20 DUP9 ADD PUSH2 0x2ED9 JUMP JUMPDEST PUSH32 0x3C2F746578743E3C7465787420783D2231302220793D2238302220636C617373 PUSH1 0xB SWAP3 SWAP1 SWAP2 ADD SWAP2 DUP3 ADD MSTORE PUSH8 0x1E913130B9B2911F PUSH1 0xC1 SHL PUSH1 0x2B DUP3 ADD MSTORE PUSH1 0x33 ADD SWAP5 SWAP4 POP POP POP POP JUMP JUMPDEST PUSH1 0x0 DUP4 MLOAD PUSH2 0x3697 DUP2 DUP5 PUSH1 0x20 DUP9 ADD PUSH2 0x2ED9 JUMP JUMPDEST PUSH6 0x3B30B63AB29 PUSH1 0xD5 SHL SWAP1 DUP4 ADD SWAP1 DUP2 MSTORE DUP4 MLOAD PUSH2 0x36BA DUP2 PUSH1 0x6 DUP5 ADD PUSH1 0x20 DUP9 ADD PUSH2 0x2ED9 JUMP JUMPDEST PUSH13 0x1E17BA32BC3A1F1E17B9BB339F PUSH1 0x99 SHL PUSH1 0x6 SWAP3 SWAP1 SWAP2 ADD SWAP2 DUP3 ADD MSTORE PUSH1 0x13 ADD SWAP5 SWAP4 POP POP POP POP JUMP JUMPDEST PUSH16 0x7B226E616D65223A20226C6F636B2023 PUSH1 0x80 SHL DUP2 MSTORE DUP3 MLOAD PUSH1 0x0 SWAP1 PUSH2 0x370C DUP2 PUSH1 0x10 DUP6 ADD PUSH1 0x20 DUP9 ADD PUSH2 0x2ED9 JUMP JUMPDEST PUSH32 0x222C20226465736372697074696F6E223A2022536F6C69646C79206C6F636B73 PUSH1 0x10 SWAP2 DUP5 ADD SWAP2 DUP3 ADD MSTORE PUSH32 0x2C2063616E206265207573656420746F20626F6F737420676175676520796965 PUSH1 0x30 DUP3 ADD MSTORE PUSH32 0x6C64732C20766F7465206F6E20746F6B656E20656D697373696F6E2C20616E64 PUSH1 0x50 DUP3 ADD MSTORE PUSH32 0x207265636569766520627269626573222C2022696D616765223A202264617461 PUSH1 0x70 DUP3 ADD MSTORE PUSH22 0xE9A5B5859D94BDCDD99CADE1B5B0ED8985CD94D8D0B PUSH1 0x52 SHL PUSH1 0x90 DUP3 ADD MSTORE DUP4 MLOAD PUSH2 0x37DA DUP2 PUSH1 0xA6 DUP5 ADD PUSH1 0x20 DUP9 ADD PUSH2 0x2ED9 JUMP JUMPDEST PUSH2 0x227D PUSH1 0xF0 SHL PUSH1 0xA6 SWAP3 SWAP1 SWAP2 ADD SWAP2 DUP3 ADD MSTORE PUSH1 0xA8 ADD SWAP5 SWAP4 POP POP POP POP JUMP JUMPDEST PUSH32 0x646174613A6170706C69636174696F6E2F6A736F6E3B6261736536342C000000 DUP2 MSTORE PUSH1 0x0 DUP3 MLOAD PUSH2 0x382D DUP2 PUSH1 0x1D DUP6 ADD PUSH1 0x20 DUP8 ADD PUSH2 0x2ED9 JUMP JUMPDEST SWAP2 SWAP1 SWAP2 ADD PUSH1 0x1D ADD SWAP3 SWAP2 POP POP JUMP JUMPDEST PUSH1 0x0 DUP3 PUSH2 0x3849 JUMPI PUSH2 0x3849 PUSH2 0x3255 JUMP JUMPDEST POP MOD SWAP1 JUMP INVALID EXTCODECOPY PUSH20 0x766720786D6C6E733D22687474703A2F2F777777 0x2E PUSH24 0x332E6F72672F323030302F73766722207072657365727665 COINBASE PUSH20 0x70656374526174696F3D22784D696E594D696E20 PUSH14 0x656574222076696577426F783D22 ADDRESS KECCAK256 ADDRESS KECCAK256 CALLER CALLDATALOAD ADDRESS KECCAK256 CALLER CALLDATALOAD ADDRESS 0x22 RETURNDATACOPY EXTCODECOPY PUSH20 0x74796C653E2E62617365207B2066696C6C3A2077 PUSH9 0x6974653B20666F6E74 0x2D PUSH7 0x616D696C793A20 PUSH20 0x657269663B20666F6E742D73697A653A20313470 PUSH25 0x3B207D3C2F7374796C653E3C726563742077696474683D2231 ADDRESS ADDRESS 0x25 0x22 KECCAK256 PUSH9 0x65696768743D223130 ADDRESS 0x25 0x22 KECCAK256 PUSH7 0x696C6C3D22626C PUSH2 0x636B 0x22 KECCAK256 0x2F RETURNDATACOPY EXTCODECOPY PUSH21 0x65787420783D2231302220793D2232302220636C61 PUSH20 0x733D2262617365223E4142434445464748494A4B 0x4C 0x4D 0x4E 0x4F POP MLOAD MSTORE MSTORE8 SLOAD SSTORE JUMP JUMPI PC MSIZE GAS PUSH2 0x6263 PUSH5 0x6566676869 PUSH11 0x6B6C6D6E6F707172737475 PUSH23 0x7778797A303132333435363738392B2FA2646970667358 0x22 SLT KECCAK256 PUSH4 0xD223AAA9 0xCB 0xF7 SWAP6 CREATE 0xC7 0xC3 DUP3 0xEC 0x4A INVALID PUSH22 0x2CB5179853A2DA3206B6F2C4C2F996AC64736F6C6343 STOP ADDMOD SIGNEXTEND STOP CALLER 0xDD CALLCODE MSTORE 0xAD SHL 0xE2 0xC8 SWAP12 PUSH10 0xC2B068FC378DAA952BA7 CALL PUSH4 0xC4A11628 CREATE2 GAS 0x4D CREATE2 0x23 0xB3 0xEF "},"methodIdentifiers":{"abstain(uint256)":"c1f0fb9f","approve(address,uint256)":"095ea7b3","attach(uint256)":"fbd3a29d","attachments(uint256)":"0d6a2033","balanceOf(address)":"70a08231","balanceOfAtNFT(uint256,uint256)":"8c2c9baf","balanceOfNFT(uint256)":"e7e242d4","balanceOfNFTAt(uint256,uint256)":"e0514aba","block_number()":"25a58b56","checkpoint()":"c2c4c5c1","create_lock(uint256,uint256)":"65fc3873","decimals()":"313ce567","detach(uint256)":"986b7d8a","epoch()":"900cf0cf","getApproved(uint256)":"081812fc","get_last_user_slope(uint256)":"461f711c","increase_unlock_time(uint256,uint256)":"a4d855df","isApprovedForAll(address,address)":"e985e9c5","isApprovedOrOwner(address,uint256)":"430c2081","leave(uint256)":"67dfd4c9","locked(uint256)":"b45a3c0e","locked__end(uint256)":"f8a05763","locking(uint256)":"ba693242","merge(uint256,uint256)":"d1c2babb","name()":"06fdde03","ownerOf(uint256)":"6352211e","ownership_change(uint256)":"6f548837","point_history(uint256)":"d1febfb9","safeTransferFrom(address,address,uint256)":"42842e0e","safeTransferFrom(address,address,uint256,bytes)":"b88d4fde","setApprovalForAll(address,bool)":"a22cb465","setVoter(address)":"4bc2a657","slope_changes(uint256)":"71197484","supply()":"047fc9aa","supportsInterface(bytes4)":"01ffc9a7","symbol()":"95d89b41","token()":"fc0c546a","tokenOfOwnerByIndex(address,uint256)":"2f745c59","tokenURI(uint256)":"c87b56dd","totalSupply()":"18160ddd","totalSupplyAt(uint256)":"981b24d0","totalSupplyAtT(uint256)":"7116c60c","transferFrom(address,address,uint256)":"23b872dd","user_point_epoch(uint256)":"e441135c","user_point_history(uint256,uint256)":"1376f3da","user_point_history__ts(uint256,uint256)":"1c984bc3","version()":"54fd4d50","voted(uint256)":"8fbb38ff","voter()":"46c96aac","voting(uint256)":"fd4a77f1"}}}}}