{"contracts/BatchRelayerLibrary.sol":{"BatchRelayerLibrary":{"abi":[{"inputs":[{"internalType":"contract IVault","name":"vault","type":"address"},{"internalType":"contract IERC20","name":"wstETH","type":"address"}],"stateMutability":"nonpayable","type":"constructor"},{"inputs":[{"internalType":"contract IERC20","name":"token","type":"address"},{"internalType":"uint256","name":"amount","type":"uint256"}],"name":"approveVault","outputs":[],"stateMutability":"nonpayable","type":"function"},{"inputs":[{"internalType":"enum IVault.SwapKind","name":"kind","type":"uint8"},{"components":[{"internalType":"bytes32","name":"poolId","type":"bytes32"},{"internalType":"uint256","name":"assetInIndex","type":"uint256"},{"internalType":"uint256","name":"assetOutIndex","type":"uint256"},{"internalType":"uint256","name":"amount","type":"uint256"},{"internalType":"bytes","name":"userData","type":"bytes"}],"internalType":"struct IVault.BatchSwapStep[]","name":"swaps","type":"tuple[]"},{"internalType":"contract IAsset[]","name":"assets","type":"address[]"},{"components":[{"internalType":"address","name":"sender","type":"address"},{"internalType":"bool","name":"fromInternalBalance","type":"bool"},{"internalType":"address payable","name":"recipient","type":"address"},{"internalType":"bool","name":"toInternalBalance","type":"bool"}],"internalType":"struct IVault.FundManagement","name":"funds","type":"tuple"},{"internalType":"int256[]","name":"limits","type":"int256[]"},{"internalType":"uint256","name":"deadline","type":"uint256"},{"internalType":"uint256","name":"value","type":"uint256"},{"components":[{"internalType":"uint256","name":"index","type":"uint256"},{"internalType":"uint256","name":"key","type":"uint256"}],"internalType":"struct VaultActions.OutputReference[]","name":"outputReferences","type":"tuple[]"}],"name":"batchSwap","outputs":[{"internalType":"int256[]","name":"","type":"int256[]"}],"stateMutability":"payable","type":"function"},{"inputs":[{"internalType":"bytes32","name":"poolId","type":"bytes32"},{"internalType":"enum VaultActions.PoolKind","name":"kind","type":"uint8"},{"internalType":"address","name":"sender","type":"address"},{"internalType":"address payable","name":"recipient","type":"address"},{"components":[{"internalType":"contract IAsset[]","name":"assets","type":"address[]"},{"internalType":"uint256[]","name":"minAmountsOut","type":"uint256[]"},{"internalType":"bytes","name":"userData","type":"bytes"},{"internalType":"bool","name":"toInternalBalance","type":"bool"}],"internalType":"struct IVault.ExitPoolRequest","name":"request","type":"tuple"},{"components":[{"internalType":"uint256","name":"index","type":"uint256"},{"internalType":"uint256","name":"key","type":"uint256"}],"internalType":"struct VaultActions.OutputReference[]","name":"outputReferences","type":"tuple[]"}],"name":"exitPool","outputs":[],"stateMutability":"payable","type":"function"},{"inputs":[],"name":"getEntrypoint","outputs":[{"internalType":"contract IBalancerRelayer","name":"","type":"address"}],"stateMutability":"view","type":"function"},{"inputs":[],"name":"getVault","outputs":[{"internalType":"contract IVault","name":"","type":"address"}],"stateMutability":"view","type":"function"},{"inputs":[{"internalType":"bytes32","name":"poolId","type":"bytes32"},{"internalType":"enum VaultActions.PoolKind","name":"kind","type":"uint8"},{"internalType":"address","name":"sender","type":"address"},{"internalType":"address","name":"recipient","type":"address"},{"components":[{"internalType":"contract IAsset[]","name":"assets","type":"address[]"},{"internalType":"uint256[]","name":"maxAmountsIn","type":"uint256[]"},{"internalType":"bytes","name":"userData","type":"bytes"},{"internalType":"bool","name":"fromInternalBalance","type":"bool"}],"internalType":"struct IVault.JoinPoolRequest","name":"request","type":"tuple"},{"internalType":"uint256","name":"value","type":"uint256"},{"internalType":"uint256","name":"outputReference","type":"uint256"}],"name":"joinPool","outputs":[],"stateMutability":"payable","type":"function"},{"inputs":[{"components":[{"internalType":"enum IVault.UserBalanceOpKind","name":"kind","type":"uint8"},{"internalType":"contract IAsset","name":"asset","type":"address"},{"internalType":"uint256","name":"amount","type":"uint256"},{"internalType":"address","name":"sender","type":"address"},{"internalType":"address payable","name":"recipient","type":"address"}],"internalType":"struct IVault.UserBalanceOp[]","name":"ops","type":"tuple[]"},{"internalType":"uint256","name":"value","type":"uint256"}],"name":"manageUserBalance","outputs":[],"stateMutability":"payable","type":"function"},{"inputs":[{"internalType":"address","name":"relayer","type":"address"},{"internalType":"bool","name":"approved","type":"bool"},{"internalType":"bytes","name":"authorisation","type":"bytes"}],"name":"setRelayerApproval","outputs":[],"stateMutability":"payable","type":"function"},{"inputs":[{"internalType":"address","name":"recipient","type":"address"},{"internalType":"uint256","name":"amount","type":"uint256"},{"internalType":"uint256","name":"outputReference","type":"uint256"}],"name":"stakeETH","outputs":[],"stateMutability":"payable","type":"function"},{"inputs":[{"internalType":"address","name":"recipient","type":"address"},{"internalType":"uint256","name":"amount","type":"uint256"},{"internalType":"uint256","name":"outputReference","type":"uint256"}],"name":"stakeETHAndWrap","outputs":[],"stateMutability":"payable","type":"function"},{"inputs":[{"components":[{"internalType":"bytes32","name":"poolId","type":"bytes32"},{"internalType":"enum IVault.SwapKind","name":"kind","type":"uint8"},{"internalType":"contract IAsset","name":"assetIn","type":"address"},{"internalType":"contract IAsset","name":"assetOut","type":"address"},{"internalType":"uint256","name":"amount","type":"uint256"},{"internalType":"bytes","name":"userData","type":"bytes"}],"internalType":"struct IVault.SingleSwap","name":"singleSwap","type":"tuple"},{"components":[{"internalType":"address","name":"sender","type":"address"},{"internalType":"bool","name":"fromInternalBalance","type":"bool"},{"internalType":"address payable","name":"recipient","type":"address"},{"internalType":"bool","name":"toInternalBalance","type":"bool"}],"internalType":"struct IVault.FundManagement","name":"funds","type":"tuple"},{"internalType":"uint256","name":"limit","type":"uint256"},{"internalType":"uint256","name":"deadline","type":"uint256"},{"internalType":"uint256","name":"value","type":"uint256"},{"internalType":"uint256","name":"outputReference","type":"uint256"}],"name":"swap","outputs":[{"internalType":"uint256","name":"","type":"uint256"}],"stateMutability":"payable","type":"function"},{"inputs":[{"internalType":"contract IStaticATokenLM","name":"staticToken","type":"address"},{"internalType":"address","name":"sender","type":"address"},{"internalType":"address","name":"recipient","type":"address"},{"internalType":"uint256","name":"amount","type":"uint256"},{"internalType":"bool","name":"toUnderlying","type":"bool"},{"internalType":"uint256","name":"outputReference","type":"uint256"}],"name":"unwrapAaveStaticToken","outputs":[],"stateMutability":"payable","type":"function"},{"inputs":[{"internalType":"address","name":"sender","type":"address"},{"internalType":"address","name":"recipient","type":"address"},{"internalType":"uint256","name":"amount","type":"uint256"},{"internalType":"uint256","name":"outputReference","type":"uint256"}],"name":"unwrapWstETH","outputs":[],"stateMutability":"payable","type":"function"},{"inputs":[{"internalType":"contract IERC20Permit","name":"token","type":"address"},{"internalType":"address","name":"owner","type":"address"},{"internalType":"uint256","name":"value","type":"uint256"},{"internalType":"uint256","name":"deadline","type":"uint256"},{"internalType":"uint8","name":"v","type":"uint8"},{"internalType":"bytes32","name":"r","type":"bytes32"},{"internalType":"bytes32","name":"s","type":"bytes32"}],"name":"vaultPermit","outputs":[],"stateMutability":"payable","type":"function"},{"inputs":[{"internalType":"contract IERC20PermitDAI","name":"token","type":"address"},{"internalType":"address","name":"holder","type":"address"},{"internalType":"uint256","name":"nonce","type":"uint256"},{"internalType":"uint256","name":"expiry","type":"uint256"},{"internalType":"bool","name":"allowed","type":"bool"},{"internalType":"uint8","name":"v","type":"uint8"},{"internalType":"bytes32","name":"r","type":"bytes32"},{"internalType":"bytes32","name":"s","type":"bytes32"}],"name":"vaultPermitDAI","outputs":[],"stateMutability":"payable","type":"function"},{"inputs":[{"internalType":"contract IStaticATokenLM","name":"staticToken","type":"address"},{"internalType":"address","name":"sender","type":"address"},{"internalType":"address","name":"recipient","type":"address"},{"internalType":"uint256","name":"amount","type":"uint256"},{"internalType":"bool","name":"fromUnderlying","type":"bool"},{"internalType":"uint256","name":"outputReference","type":"uint256"}],"name":"wrapAaveDynamicToken","outputs":[],"stateMutability":"payable","type":"function"},{"inputs":[{"internalType":"address","name":"sender","type":"address"},{"internalType":"address","name":"recipient","type":"address"},{"internalType":"uint256","name":"amount","type":"uint256"},{"internalType":"uint256","name":"outputReference","type":"uint256"}],"name":"wrapStETH","outputs":[],"stateMutability":"payable","type":"function"}],"evm":{"bytecode":{"linkReferences":{},"object":"6101406040527fae1dc54057af8e8e5ce068cdd4383149c7efcb30e8fb95b592ee1594367fb50960e0523480156200003657600080fd5b506040516200413d3803806200413d8339810160408190526200005991620001fa565b8082806001600160a01b031663ad5c46486040518163ffffffff1660e01b815260040160206040518083038186803b1580156200009557600080fd5b505afa158015620000aa573d6000803e3d6000fd5b505050506040513d601f19601f82011682018060405250810190620000d0919062000238565b6001600160601b0319606091821b81166080529082901b1660a05260405181903090620000fd90620001ec565b6200010a9291906200025e565b604051809103906000f08015801562000127573d6000803e3d6000fd5b5060601b6001600160601b03191660c052506001600160a01b03811662000150576000620001c7565b806001600160a01b031663c1fe3e486040518163ffffffff1660e01b8152600401602060405180830381600087803b1580156200018c57600080fd5b505af1158015620001a1573d6000803e3d6000fd5b505050506040513d601f19601f82011682018060405250810190620001c7919062000238565b6001600160601b0319606091821b81166101005291901b166101205250620002919050565b6106998062003aa483390190565b600080604083850312156200020d578182fd5b82516200021a8162000278565b60208401519092506200022d8162000278565b809150509250929050565b6000602082840312156200024a578081fd5b8151620002578162000278565b9392505050565b6001600160a01b0392831681529116602082015260400190565b6001600160a01b03811681146200028e57600080fd5b50565b60805160601c60a05160601c60c05160601c60e0516101005160601c6101205160601c61378362000321600039806102bc5280610350528061039d528061071452806107ab528061085b528061196152806119a05250806106ab52806106e7528061092352806109e95280611a50525080611df3525080610ed1525080610fa4528061104e5250506137836000f3fe6080604052600436106100fe5760003560e01c806380db15bd11610095578063959fc17a11610064578063959fc17a1461021d578063b6d2473714610230578063d80952d514610250578063db4c0e9114610263578063ecc0263714610276576100fe565b806380db15bd146101cf5780638d64cfbc146101e25780638d928af8146101f55780638fe4624f1461020a576100fe565b80632e6272ea116100d15780632e6272ea14610167578063433b0865146101875780637ab6e03c1461019a5780637fd0e5d5146101ad576100fe565b80631089e5e31461010357806318369446146101185780631c982441146101415780632cbec84e14610154575b600080fd5b610116610111366004612765565b610289565b005b61012b610126366004612c9f565b610446565b6040516101389190613284565b60405180910390f35b61011661014f366004612694565b610653565b610116610162366004612765565b610905565b61017a610175366004612d99565b610a20565b604051610138919061369b565b610116610195366004612b5a565b610b4d565b6101166101a8366004612b5a565b610dca565b3480156101b957600080fd5b506101c2610ecf565b60405161013891906130fe565b6101166101dd3660046126d9565b610ef3565b6101166101f0366004612aa6565b610fd2565b34801561020157600080fd5b506101c261104c565b610116610218366004612999565b611070565b61011661022b366004612a26565b611275565b34801561023c57600080fd5b5061011661024b366004612b2f565b6112f2565b61011661025e3660046128f3565b61137e565b610116610271366004612694565b611909565b610116610284366004612828565b611a87565b61029282611b7f565b156102a3576102a082611b97565b91505b60405162b0e38960e81b81526000906001600160a01b037f0000000000000000000000000000000000000000000000000000000000000000169063b0e38900906102f190869060040161369b565b60206040518083038186803b15801561030957600080fd5b505afa15801561031d573d6000803e3d6000fd5b505050506040513d601f19601f820116820180604052508101906103419190612e90565b90506103766001600160a01b037f00000000000000000000000000000000000000000000000000000000000000001684611bb1565b6001600160a01b03841630146104285760405163a9059cbb60e01b81526001600160a01b037f0000000000000000000000000000000000000000000000000000000000000000169063a9059cbb906103d4908790859060040161321c565b602060405180830381600087803b1580156103ee57600080fd5b505af1158015610402573d6000803e3d6000fd5b505050506040513d601f19601f8201168201806040525081019061042691906128d7565b505b61043182611b7f565b15610440576104408282611c2b565b50505050565b60603361045660208a018a612678565b6001600160a01b0316148061047f57503061047460208a018a612678565b6001600160a01b0316145b6104a45760405162461bcd60e51b815260040161049b90613578565b60405180910390fd5b60005b8b518110156105095760008c82815181106104be57fe5b60200260200101516060015190506104d581611b7f565b15610500576104e381611b97565b8d83815181106104ef57fe5b602002602001015160600181815250505b506001016104a7565b50600061051461104c565b6001600160a01b031663945bcec9868f8f8f8f8f8f8f8f6040518a63ffffffff1660e01b815260040161054e98979695949392919061348e565b6000604051808303818588803b15801561056757600080fd5b505af115801561057b573d6000803e3d6000fd5b50505050506040513d6000823e601f3d908101601f191682016040526105a49190810190612799565b905060005b83811015610642576105cf8585838181106105c057fe5b90506040020160200135611b7f565b6105eb5760405162461bcd60e51b815260040161049b906135d9565b61063a8585838181106105fa57fe5b905060400201602001356106358488888681811061061457fe5b905060400201600001358151811061062857fe5b6020026020010151611c3e565b611c2b565b6001016105a9565b509c9b505050505050505050505050565b61065c82611b7f565b1561066d5761066a82611b97565b91505b6001600160a01b03841630146106d0576001600160a01b03841633146106a55760405162461bcd60e51b815260040161049b90613578565b6106d0847f000000000000000000000000000000000000000000000000000000000000000084611c58565b60405163095ea7b360e01b81526001600160a01b037f0000000000000000000000000000000000000000000000000000000000000000169063095ea7b39061073e907f000000000000000000000000000000000000000000000000000000000000000090869060040161321c565b602060405180830381600087803b15801561075857600080fd5b505af115801561076c573d6000803e3d6000fd5b505050506040513d601f19601f8201168201806040525081019061079091906128d7565b50604051630ea598cb60e41b81526000906001600160a01b037f0000000000000000000000000000000000000000000000000000000000000000169063ea598cb0906107e090869060040161369b565b602060405180830381600087803b1580156107fa57600080fd5b505af115801561080e573d6000803e3d6000fd5b505050506040513d601f19601f820116820180604052508101906108329190612e90565b90506001600160a01b03841630146108e65760405163a9059cbb60e01b81526001600160a01b037f0000000000000000000000000000000000000000000000000000000000000000169063a9059cbb90610892908790859060040161321c565b602060405180830381600087803b1580156108ac57600080fd5b505af11580156108c0573d6000803e3d6000fd5b505050506040513d601f19601f820116820180604052508101906108e491906128d7565b505b6108ef82611b7f565b156108fe576108fe8282611c2b565b5050505050565b61090e82611b7f565b1561091f5761091c82611b97565b91505b60007f00000000000000000000000000000000000000000000000000000000000000006001600160a01b031663a1903eab84306040518363ffffffff1660e01b815260040161096e91906130fe565b6020604051808303818588803b15801561098757600080fd5b505af115801561099b573d6000803e3d6000fd5b50505050506040513d601f19601f820116820180604052508101906109c09190612e90565b90506001600160a01b03841630146104285760405163a9059cbb60e01b81526001600160a01b037f0000000000000000000000000000000000000000000000000000000000000000169063a9059cbb906103d4908790859060040161321c565b600033610a306020880188612678565b6001600160a01b03161480610a59575030610a4e6020880188612678565b6001600160a01b0316145b610a755760405162461bcd60e51b815260040161049b90613578565b610a828760800151611b7f565b15610a9a57610a948760800151611b97565b60808801525b6000610aa461104c565b6001600160a01b03166352bbbe29858a8a8a8a6040518663ffffffff1660e01b8152600401610ad69493929190613610565b6020604051808303818588803b158015610aef57600080fd5b505af1158015610b03573d6000803e3d6000fd5b50505050506040513d601f19601f82011682018060405250810190610b289190612e90565b9050610b3383611b7f565b15610b4257610b428382611c2b565b979650505050505050565b610b5683611b7f565b15610b6757610b6483611b97565b92505b600082610be657866001600160a01b03166351c0e0616040518163ffffffff1660e01b8152600401602060405180830381600087803b158015610ba957600080fd5b505af1158015610bbd573d6000803e3d6000fd5b505050506040513d601f19601f82011682018060405250810190610be19190612b13565b610c59565b866001600160a01b0316634800d97f6040518163ffffffff1660e01b8152600401602060405180830381600087803b158015610c2157600080fd5b505af1158015610c35573d6000803e3d6000fd5b505050506040513d601f19601f82011682018060405250810190610c599190612b13565b90506001600160a01b0386163014610c9e576001600160a01b0386163314610c935760405162461bcd60e51b815260040161049b90613578565b610c9e868286611c58565b60405163095ea7b360e01b81526001600160a01b0382169063095ea7b390610ccc908a90889060040161321c565b602060405180830381600087803b158015610ce657600080fd5b505af1158015610cfa573d6000803e3d6000fd5b505050506040513d601f19601f82011682018060405250810190610d1e91906128d7565b50604051632f2cab8760e01b81526000906001600160a01b03891690632f2cab8790610d54908990899086908a90600401613258565b602060405180830381600087803b158015610d6e57600080fd5b505af1158015610d82573d6000803e3d6000fd5b505050506040513d601f19601f82011682018060405250810190610da69190612e90565b9050610db183611b7f565b15610dc057610dc08382611c2b565b5050505050505050565b610dd383611b7f565b15610de457610de183611b97565b92505b6001600160a01b0385163014610e27576001600160a01b0385163314610e1c5760405162461bcd60e51b815260040161049b90613578565b610e27858785611c58565b60405163ead5d35960e01b81526000906001600160a01b0388169063ead5d35990610e5a90889088908890600401613235565b6040805180830381600087803b158015610e7357600080fd5b505af1158015610e87573d6000803e3d6000fd5b505050506040513d601f19601f82011682018060405250810190610eab9190612ea8565b915050610eb782611b7f565b15610ec657610ec68282611c2b565b50505050505050565b7f000000000000000000000000000000000000000000000000000000000000000090565b6001600160a01b038416301480610f08575082155b610f245760405162461bcd60e51b815260040161049b906135a2565b600063fa6e671d60e01b338686604051602401610f4393929190613112565b60408051601f19818403018152918152602080830180516001600160e01b03166001600160e01b03199095169490941790935251610f859286918691016130cb565b60408051601f198184030181529190529050610fca6001600160a01b037f00000000000000000000000000000000000000000000000000000000000000001682611cf4565b505050505050565b866001600160a01b031663d505accf87610fea61104c565b88888888886040518863ffffffff1660e01b815260040161101197969594939291906131db565b600060405180830381600087803b15801561102b57600080fd5b505af115801561103f573d6000803e3d6000fd5b5050505050505050505050565b7f000000000000000000000000000000000000000000000000000000000000000090565b6001600160a01b03851633148061108f57506001600160a01b03851630145b6110ab5760405162461bcd60e51b815260040161049b90613578565b60006110b688611d6b565b905060006110c383611b7f565b6110ce57600061114a565b6040516370a0823160e01b81526001600160a01b038316906370a08231906110fa9089906004016130fe565b60206040518083038186803b15801561111257600080fd5b505afa158015611126573d6000803e3d6000fd5b505050506040513d601f19601f8201168201806040525081019061114a9190612e90565b905061115a888660400151611d71565b604086015261116761104c565b6001600160a01b031663b95cac28858b8a8a8a6040518663ffffffff1660e01b815260040161119994939291906133e8565b6000604051808303818588803b1580156111b257600080fd5b505af11580156111c6573d6000803e3d6000fd5b50505050506111d483611b7f565b1561126a576040516370a0823160e01b81526000906001600160a01b038416906370a0823190611208908a906004016130fe565b60206040518083038186803b15801561122057600080fd5b505afa158015611234573d6000803e3d6000fd5b505050506040513d601f19601f820116820180604052508101906112589190612e90565b9050611268846106358385611d9f565b505b505050505050505050565b876001600160a01b0316638fcbaf0c8861128d61104c565b8989898989896040518963ffffffff1660e01b81526004016112b6989796959493929190613192565b600060405180830381600087803b1580156112d057600080fd5b505af11580156112e4573d6000803e3d6000fd5b505050505050505050505050565b816001600160a01b031663095ea7b361130961104c565b836040518363ffffffff1660e01b815260040161132792919061321c565b602060405180830381600087803b15801561134157600080fd5b505af1158015611355573d6000803e3d6000fd5b505050506040513d601f19601f8201168201806040525081019061137991906128d7565b505050565b6001600160a01b03851633148061139d57506001600160a01b03851630145b6113b95760405162461bcd60e51b815260040161049b90613578565b6000816001600160401b03811180156113d157600080fd5b506040519080825280602002602001820160405280156113fb578160200160208202803683370190505b5090506000826001600160401b038111801561141657600080fd5b50604051908082528060200260200182016040528015611440578160200160208202803683370190505b50905060005b838110156115b05761145d8585838181106105c057fe5b6114795760405162461bcd60e51b815260040161049b906135d9565b855160009086868481811061148a57fe5b905060400201600001358151811061149e57fe5b602002602001015190508660600151156114ec576114bb81611db5565b8483815181106114c757fe5b60200260200101906001600160a01b031690816001600160a01b0316815250506115a7565b6114f581611db8565b6115825761150281611db5565b6001600160a01b03166370a08231896040518263ffffffff1660e01b815260040161152d91906130fe565b60206040518083038186803b15801561154557600080fd5b505afa158015611559573d6000803e3d6000fd5b505050506040513d601f19601f8201168201806040525081019061157d9190612e90565b61158e565b876001600160a01b0316315b83838151811061159a57fe5b6020026020010181815250505b50600101611446565b50846060015115611647576115c361104c565b6001600160a01b0316630f5a6efa87846040518363ffffffff1660e01b81526004016115f0929190613136565b60006040518083038186803b15801561160857600080fd5b505afa15801561161c573d6000803e3d6000fd5b505050506040513d6000823e601f3d908101601f19168201604052611644919081019061289d565b90505b611655888660400151611dc5565b604086015261166261104c565b6001600160a01b0316638bdb39138a8989896040518563ffffffff1660e01b815260040161169394939291906133e8565b600060405180830381600087803b1580156116ad57600080fd5b505af11580156116c1573d6000803e3d6000fd5b5060009250859150506001600160401b03811180156116df57600080fd5b50604051908082528060200260200182016040528015611709578160200160208202803683370190505b5090508560600151156117a65761171e61104c565b6001600160a01b0316630f5a6efa88856040518363ffffffff1660e01b815260040161174b929190613136565b60006040518083038186803b15801561176357600080fd5b505afa158015611777573d6000803e3d6000fd5b505050506040513d6000823e601f3d908101601f1916820160405261179f919081019061289d565b90506118a4565b60005b848110156118a25786516000908787848181106117c257fe5b90506040020160000135815181106117d657fe5b602002602001015190506117e981611db8565b611876576117f681611db5565b6001600160a01b03166370a082318a6040518263ffffffff1660e01b815260040161182191906130fe565b60206040518083038186803b15801561183957600080fd5b505afa15801561184d573d6000803e3d6000fd5b505050506040513d601f19601f820116820180604052508101906118719190612e90565b611882565b886001600160a01b0316315b83838151811061188e57fe5b6020908102919091010152506001016117a9565b505b60005b8481101561103f576119018686838181106118be57fe5b905060400201602001356106358584815181106118d757fe5b60200260200101518585815181106118eb57fe5b6020026020010151611d9f90919063ffffffff16565b6001016118a7565b61191282611b7f565b156119235761192082611b97565b91505b6001600160a01b0384163014611986576001600160a01b038416331461195b5760405162461bcd60e51b815260040161049b90613578565b611986847f000000000000000000000000000000000000000000000000000000000000000084611c58565b604051636f074d1f60e11b81526000906001600160a01b037f0000000000000000000000000000000000000000000000000000000000000000169063de0e9a3e906119d590869060040161369b565b602060405180830381600087803b1580156119ef57600080fd5b505af1158015611a03573d6000803e3d6000fd5b505050506040513d601f19601f82011682018060405250810190611a279190612e90565b90506001600160a01b03841630146108e65760405163a9059cbb60e01b81526001600160a01b037f0000000000000000000000000000000000000000000000000000000000000000169063a9059cbb90610892908790859060040161321c565b60005b82811015611b1b5733848483818110611a9f57fe5b905060a002016060016020810190611ab79190612678565b6001600160a01b03161480611af7575030848483818110611ad457fe5b905060a002016060016020810190611aec9190612678565b6001600160a01b0316145b611b135760405162461bcd60e51b815260040161049b90613578565b600101611a8a565b50611b2461104c565b6001600160a01b0316630e8e3e848285856040518463ffffffff1660e01b8152600401611b529291906132c8565b6000604051808303818588803b158015611b6b57600080fd5b505af1158015610dc0573d6000803e3d6000fd5b610ba160f41b6001600160f01b03198216145b919050565b600080611ba383611dec565b805460009091559392505050565b611bc0814710156101a3611e42565b6000826001600160a01b031682604051611bd990611db5565b60006040518083038185875af1925050503d8060008114611c16576040519150601f19603f3d011682016040523d82523d6000602084013e611c1b565b606091505b50509050611379816101a4611e42565b6000611c3683611dec565b919091555050565b6000808213611c505781600003611c52565b815b92915050565b80611c6257611379565b604080516001808252818301909252600091602080830190803683370190505090508281600081518110611c9257fe5b6001600160a01b0392909216602092830291909101909101526040805160018082528183019092526000918160200160208202803683370190505090508281600081518110611cdd57fe5b6020026020010181815250506108fe858383611e54565b6060600080846001600160a01b031684604051611d1191906130af565b6000604051808303816000865af19150503d8060008114611d4e576040519150601f19603f3d011682016040523d82523d6000602084013e611d53565b606091505b5091509150611d628282611f8d565b95945050505050565b60601c90565b60606000838015611d7e57fe5b1415611d9457611d8d82611fb7565b9050611c52565b611c52610136611ff4565b6000611daf838311156001611e42565b50900390565b90565b6001600160a01b03161590565b60606000838015611dd257fe5b1415611de157611d8d82612047565b611c52610150611ff4565b60006001827f0000000000000000000000000000000000000000000000000000000000000000604051602001611e239291906130f0565b60408051808303601f1901815291905280516020909101200392915050565b81611e5057611e5081611ff4565b5050565b600082516001600160401b0381118015611e6d57600080fd5b50604051908082528060200260200182016040528015611ea757816020015b611e94612261565b815260200190600190039081611e8c5790505b50905060005b8351811015611f3f576040805160a081019091528060038152602001858381518110611ed557fe5b60200260200101516001600160a01b03168152602001848381518110611ef757fe5b60200260200101518152602001866001600160a01b03168152602001306001600160a01b0316815250828281518110611f2c57fe5b6020908102919091010152600101611ead565b50611f4861104c565b6001600160a01b0316630e8e3e84826040518263ffffffff1660e01b8152600401611f739190613363565b600060405180830381600087803b158015611b6b57600080fd5b60608215611f9c575080611c52565b815115611fac5781518083602001fd5b611c526101ae611ff4565b60606000611fc483612090565b90506001816003811115611fd457fe5b1415611feb57611fe3836120a6565b915050611b92565b82915050611b92565b62461bcd60e51b6000908152602060045260076024526642414c23000030600a808404818106603090810160081b95839006959095019082900491820690940160101b939093010160c81b604452606490fd5b6060600061205483612090565b9050600081600381111561206457fe5b141561207357611fe383612154565b600181600381111561208157fe5b1415611feb57611fe3836121b7565b600081806020019051810190611c529190612bc9565b60606000806120b48461220a565b915091506000805b835181101561211a5760008482815181106120d357fe5b602002602001015190506120e681611b7f565b15612111576120f481611b97565b85838151811061210057fe5b602002602001018181525050600192505b506001016120bc565b50806121265784611d62565b6001838360405160200161213c9392919061345c565b60405160208183030381529060405295945050505050565b60606000806121628461222d565b9150915061216f82611b7f565b156121ad5761217d82611b97565b9150600082826040516020016121959392919061343b565b60405160208183030381529060405292505050611b92565b8392505050611b92565b606060006121c483612244565b90506121cf81611b7f565b15611feb576121dd81611b97565b90506001816040516020016121f3929190613424565b604051602081830303815290604052915050611b92565b60606000828060200190518101906122229190612c48565b909590945092505050565b600080828060200190518101906122229190612c12565b60008180602001905181019061225a9190612be5565b9392505050565b6040805160a081019091528060008152600060208201819052604082018190526060820181905260809091015290565b8035611b928161371d565b60008083601f8401126122ad578182fd5b5081356001600160401b038111156122c3578182fd5b60208301915083602080830285010111156122dd57600080fd5b9250929050565b600082601f8301126122f4578081fd5b81356020612309612304836136c7565b6136a4565b8281528181019085830183850287018401881015612325578586fd5b855b8581101561234c57813561233a8161371d565b84529284019290840190600101612327565b5090979650505050505050565b600082601f830112612369578081fd5b81356020612379612304836136c7565b82815281810190858301855b8581101561234c578135880160a080601f19838d030112156123a5578889fd5b604080518281016001600160401b0382821081831117156123c257fe5b8184528a8601358352838601358b840152606091508186013584840152608093508386013582840152848601359450808511156123fd578c8dfd5b505061240d8d8a85870101612529565b91810191909152865250509284019290840190600101612385565b60008083601f840112612439578182fd5b5081356001600160401b0381111561244f578182fd5b6020830191508360206040830285010111156122dd57600080fd5b600082601f83011261247a578081fd5b8135602061248a612304836136c7565b82815281810190858301838502870184018810156124a6578586fd5b855b8581101561234c578135845292840192908401906001016124a8565b600082601f8301126124d4578081fd5b815160206124e4612304836136c7565b8281528181019085830183850287018401881015612500578586fd5b855b8581101561234c57815184529284019290840190600101612502565b8035611b9281613732565b600082601f830112612539578081fd5b81356001600160401b0381111561254c57fe5b61255f601f8201601f19166020016136a4565b818152846020838601011115612573578283fd5b816020850160208301379081016020019190915292915050565b803560018110611b9257600080fd5b803560028110611b9257600080fd5b6000608082840312156125bc578081fd5b6125c660806136a4565b905081356001600160401b03808211156125df57600080fd5b6125eb858386016122e4565b8352602084013591508082111561260157600080fd5b61260d8583860161246a565b6020840152604084013591508082111561262657600080fd5b5061263384828501612529565b6040830152506126456060830161251e565b606082015292915050565b600060808284031215612661578081fd5b50919050565b803560ff81168114611b9257600080fd5b600060208284031215612689578081fd5b813561225a8161371d565b600080600080608085870312156126a9578283fd5b84356126b48161371d565b935060208501356126c48161371d565b93969395505050506040820135916060013590565b600080600080606085870312156126ee578182fd5b84356126f98161371d565b9350602085013561270981613732565b925060408501356001600160401b0380821115612724578384fd5b818701915087601f830112612737578384fd5b813581811115612745578485fd5b886020828501011115612756578485fd5b95989497505060200194505050565b600080600060608486031215612779578081fd5b83356127848161371d565b95602085013595506040909401359392505050565b600060208083850312156127ab578182fd5b82516001600160401b038111156127c0578283fd5b8301601f810185136127d0578283fd5b80516127de612304826136c7565b81815283810190838501858402850186018910156127fa578687fd5b8694505b8385101561281c5780518352600194909401939185019185016127fe565b50979650505050505050565b60008060006040848603121561283c578081fd5b83356001600160401b0380821115612852578283fd5b818601915086601f830112612865578283fd5b813581811115612873578384fd5b87602060a083028501011115612887578384fd5b6020928301989097509590910135949350505050565b6000602082840312156128ae578081fd5b81516001600160401b038111156128c3578182fd5b6128cf848285016124c4565b949350505050565b6000602082840312156128e8578081fd5b815161225a81613732565b600080600080600080600060c0888a03121561290d578485fd5b8735965061291d6020890161258d565b9550604088013561292d8161371d565b9450606088013561293d8161371d565b935060808801356001600160401b0380821115612958578485fd5b6129648b838c016125ab565b945060a08a0135915080821115612979578384fd5b506129868a828b01612428565b989b979a50959850939692959293505050565b600080600080600080600060e0888a0312156129b3578081fd5b873596506129c36020890161258d565b955060408801356129d38161371d565b945060608801356129e38161371d565b935060808801356001600160401b038111156129fd578182fd5b612a098a828b016125ab565b93505060a0880135915060c0880135905092959891949750929550565b600080600080600080600080610100898b031215612a42578182fd5b8835612a4d8161371d565b97506020890135612a5d8161371d565b965060408901359550606089013594506080890135612a7b81613732565b9350612a8960a08a01612667565b925060c0890135915060e089013590509295985092959890939650565b600080600080600080600060e0888a031215612ac0578081fd5b8735612acb8161371d565b96506020880135612adb8161371d565b95506040880135945060608801359350612af760808901612667565b925060a0880135915060c0880135905092959891949750929550565b600060208284031215612b24578081fd5b815161225a8161371d565b60008060408385031215612b41578182fd5b8235612b4c8161371d565b946020939093013593505050565b60008060008060008060c08789031215612b72578384fd5b8635612b7d8161371d565b95506020870135612b8d8161371d565b94506040870135612b9d8161371d565b9350606087013592506080870135612bb481613732565b8092505060a087013590509295509295509295565b600060208284031215612bda578081fd5b815161225a81613740565b60008060408385031215612bf7578182fd5b8251612c0281613740565b6020939093015192949293505050565b600080600060608486031215612c26578081fd5b8351612c3181613740565b602085015160409095015190969495509392505050565b600080600060608486031215612c5c578081fd5b8351612c6781613740565b60208501519093506001600160401b03811115612c82578182fd5b612c8e868287016124c4565b925050604084015190509250925092565b60008060008060008060008060008060006101608c8e031215612cc0578485fd5b612cc98c61259c565b9a506001600160401b038060208e01351115612ce3578586fd5b612cf38e60208f01358f01612359565b9a508060408e01351115612d05578586fd5b612d158e60408f01358f0161229c565b909a509850612d278e60608f01612650565b97508060e08e01351115612d39578586fd5b612d498e60e08f01358f0161229c565b90975095506101008d013594506101208d013593506101408d0135811015612d6f578283fd5b50612d818d6101408e01358e01612428565b81935080925050509295989b509295989b9093969950565b6000806000806000806101208789031215612db2578384fd5b86356001600160401b0380821115612dc8578586fd5b9088019060c0828b031215612ddb578586fd5b60405160c081018181108382111715612df057fe5b60405282358152612e036020840161259c565b6020820152612e1460408401612291565b6040820152612e2560608401612291565b60608201526080830135608082015260a083013582811115612e45578788fd5b612e518c828601612529565b60a083015250809850505050612e6a8860208901612650565b959895975050505060a08401359360c08101359360e08201359350610100909101359150565b600060208284031215612ea1578081fd5b5051919050565b60008060408385031215612eba578182fd5b505080516020909101519092909150565b6001600160a01b03169052565b60008284526020808501945082825b85811015612f15578135612efa8161371d565b6001600160a01b031687529582019590820190600101612ee7565b509495945050505050565b60008284526020808501945082825b85811015612f1557813587529582019590820190600101612f2f565b6000815180845260208085019450808401835b83811015612f1557815187529582019590820190600101612f5e565b15159052565b60008151808452612f988160208601602086016136e4565b601f01601f19169290920160200192915050565b60028110612fb657fe5b9052565b8051608080845281519084018190526000916020919082019060a0860190845b81811015612fff5783516001600160a01b031683529284019291840191600101612fda565b5050828501519150858103838701526130188183612f4b565b92505050604083015184820360408601526130338282612f80565b91505060608301516130486060860182612f7a565b509392505050565b803561305b8161371d565b6001600160a01b03908116835260208201359061307782613732565b901515602084015260408201359061308e8261371d565b16604083015260608101356130a281613732565b8015156060840152505050565b600082516130c18184602087016136e4565b9190910192915050565b600084516130dd8184602089016136e4565b8201838582379092019182525092915050565b918252602082015260400190565b6001600160a01b0391909116815260200190565b6001600160a01b039384168152919092166020820152901515604082015260600190565b6001600160a01b038381168252604060208084018290528451918401829052600092858201929091906060860190855b81811015613184578551851683529483019491830191600101613166565b509098975050505050505050565b6001600160a01b039889168152969097166020870152604086019490945260608501929092521515608084015260ff1660a083015260c082015260e08101919091526101000190565b6001600160a01b0397881681529590961660208601526040850193909352606084019190915260ff16608083015260a082015260c081019190915260e00190565b6001600160a01b03929092168252602082015260400190565b6001600160a01b0393909316835260208301919091521515604082015260600190565b6001600160a01b03949094168452602084019290925261ffff1660408301521515606082015260800190565b6020808252825182820181905260009190848201906040850190845b818110156132bc578351835292840192918401916001016132a0565b50909695505050505050565b6020808252818101839052600090604080840186845b8781101561234c5781356132f181613740565b6132fa81613710565b8352818501356133098161371d565b6001600160a01b03908116848701528285013585850152606090818401356133308161371d565b16908401526080613342838201612291565b61334e82860182612ecb565b505060a09283019291909101906001016132de565b602080825282518282018190526000919060409081850190868401855b828110156133db578151805161339581613710565b8552808701516001600160a01b03908116888701528682015187870152606080830151821690870152608091820151169085015260a09093019290850190600101613380565b5091979650505050505050565b8481526001600160a01b0384811660208301528316604082015260806060820181905260009061341a90830184612fba565b9695505050505050565b6040810161343184613710565b9281526020015290565b6060810161344885613710565b938152602081019290925260409091015290565b600061346785613710565b8482526060602083015261347e6060830185612f4b565b9050826040830152949350505050565b60006101208083016134a0848d612fac565b6020848101929092528a5190819052610140808501928281028601909101918c8201855b828110156135275787850361013f190186528151805186528481015185870152604080820151908701526060808201519087015260809081015160a09187018290529061351381880183612f80565b9786019796505050908301906001016134c4565b50505050838103604085015261353e818a8c612ed8565b91505061354e6060840188613050565b82810360e0840152613561818688612f20565b915050826101008301529998505050505050505050565b60208082526010908201526f24b731b7b93932b1ba1039b2b73232b960811b604082015260600190565b6020808252601f908201527f52656c617965722063616e206f6e6c7920617070726f766520697473656c6600604082015260600190565b60208082526019908201527f696e76616c696420636861696e6564207265666572656e636500000000000000604082015260600190565b600060e08252855160e08301526020860151613630610100840182612fac565b5060408601516001600160a01b03908116610120840152606087015116610140830152608086015161016083015260a086015160c06101808401526136796101a0840182612f80565b9150506136896020830186613050565b60a082019390935260c0015292915050565b90815260200190565b6040518181016001600160401b03811182821017156136bf57fe5b604052919050565b60006001600160401b038211156136da57fe5b5060209081020190565b60005b838110156136ff5781810151838201526020016136e7565b838111156104405750506000910152565b6004811061371a57fe5b50565b6001600160a01b038116811461371a57600080fd5b801515811461371a57600080fd5b6004811061371a57600080fdfea264697066735822122050961a04dab6138172e4348d5915864d9726991858a0d5437e950299c76da46c64736f6c6343000706003360c060405234801561001057600080fd5b5060405161069938038061069983398101604081905261002f91610052565b60016000556001600160601b0319606092831b8116608052911b1660a0526100a3565b60008060408385031215610064578182fd5b825161006f8161008b565b60208401519092506100808161008b565b809150509250929050565b6001600160a01b03811681146100a057600080fd5b50565b60805160601c60a05160601c6105c56100d46000398060ef52806101f5525080604b528061011352506105c56000f3fe6080604052600436106100385760003560e01c80637678922e1461007b5780638d928af8146100a6578063ac9650d8146100bb57610076565b3661007657610074336001600160a01b037f000000000000000000000000000000000000000000000000000000000000000016146102066100db565b005b600080fd5b34801561008757600080fd5b506100906100ed565b60405161009d9190610487565b60405180910390f35b3480156100b257600080fd5b50610090610111565b6100ce6100c93660046103f9565b610135565b60405161009d919061049b565b816100e9576100e981610254565b5050565b7f000000000000000000000000000000000000000000000000000000000000000090565b7f000000000000000000000000000000000000000000000000000000000000000090565b606061013f6102a7565b8167ffffffffffffffff8111801561015657600080fd5b5060405190808252806020026020018201604052801561018a57816020015b60608152602001906001900390816101755790505b50905060005b8281101561023d5761021e8484838181106101a757fe5b90506020028101906101b99190610513565b8080601f016020809104026020016040519081016040528093929190818152602001838380828437600092019190915250506001600160a01b037f000000000000000000000000000000000000000000000000000000000000000016929150506102c0565b82828151811061022a57fe5b6020908102919091010152600101610190565b50610246610335565b61024e610349565b92915050565b62461bcd60e51b6000908152602060045260076024526642414c23000030600a808404818106603090810160081b95839006959095019082900491820690940160101b939093010160c81b604452606490fd5b6102b9600260005414156101906100db565b6002600055565b6060600080846001600160a01b0316846040516102dd9190610468565b600060405180830381855af49150503d8060008114610318576040519150601f19603f3d011682016040523d82523d6000602084013e61031d565b606091505b509150915061032c8282610350565b95945050505050565b47801561034657610346338261037a565b50565b6001600055565b6060821561035f57508061024e565b81511561036f5781518083602001fd5b61024e6101ae610254565b610389814710156101a36100db565b6000826001600160a01b0316826040516103a290610484565b60006040518083038185875af1925050503d80600081146103df576040519150601f19603f3d011682016040523d82523d6000602084013e6103e4565b606091505b505090506103f4816101a46100db565b505050565b6000806020838503121561040b578182fd5b823567ffffffffffffffff80821115610422578384fd5b818501915085601f830112610435578384fd5b813581811115610443578485fd5b8660208083028501011115610456578485fd5b60209290920196919550909350505050565b6000825161047a81846020870161055f565b9190910192915050565b90565b6001600160a01b0391909116815260200190565b6000602080830181845280855180835260408601915060408482028701019250838701855b8281101561050657878503603f19018452815180518087526104e7818989018a850161055f565b601f01601f1916959095018601945092850192908501906001016104c0565b5092979650505050505050565b6000808335601e19843603018112610529578283fd5b83018035915067ffffffffffffffff821115610543578283fd5b60200191503681900382131561055857600080fd5b9250929050565b60005b8381101561057a578181015183820152602001610562565b83811115610589576000848401525b5050505056fea2646970667358221220159dd672d42e9f3feb72b160544bf67f46239124a7de8c39682e3bee515f86ff64736f6c63430007060033","opcodes":"PUSH2 0x140 PUSH1 0x40 MSTORE PUSH32 0xAE1DC54057AF8E8E5CE068CDD4383149C7EFCB30E8FB95B592EE1594367FB509 PUSH1 0xE0 MSTORE CALLVALUE DUP1 ISZERO PUSH3 0x36 JUMPI PUSH1 0x0 DUP1 REVERT JUMPDEST POP PUSH1 0x40 MLOAD PUSH3 0x413D CODESIZE SUB DUP1 PUSH3 0x413D DUP4 CODECOPY DUP2 ADD PUSH1 0x40 DUP2 SWAP1 MSTORE PUSH3 0x59 SWAP2 PUSH3 0x1FA JUMP JUMPDEST DUP1 DUP3 DUP1 PUSH1 0x1 PUSH1 0x1 PUSH1 0xA0 SHL SUB AND PUSH4 0xAD5C4648 PUSH1 0x40 MLOAD DUP2 PUSH4 0xFFFFFFFF AND PUSH1 0xE0 SHL DUP2 MSTORE PUSH1 0x4 ADD PUSH1 0x20 PUSH1 0x40 MLOAD DUP1 DUP4 SUB DUP2 DUP7 DUP1 EXTCODESIZE ISZERO DUP1 ISZERO PUSH3 0x95 JUMPI PUSH1 0x0 DUP1 REVERT JUMPDEST POP GAS STATICCALL ISZERO DUP1 ISZERO PUSH3 0xAA JUMPI RETURNDATASIZE PUSH1 0x0 DUP1 RETURNDATACOPY RETURNDATASIZE PUSH1 0x0 REVERT JUMPDEST POP POP POP POP PUSH1 0x40 MLOAD RETURNDATASIZE PUSH1 0x1F NOT PUSH1 0x1F DUP3 ADD AND DUP3 ADD DUP1 PUSH1 0x40 MSTORE POP DUP2 ADD SWAP1 PUSH3 0xD0 SWAP2 SWAP1 PUSH3 0x238 JUMP JUMPDEST PUSH1 0x1 PUSH1 0x1 PUSH1 0x60 SHL SUB NOT PUSH1 0x60 SWAP2 DUP3 SHL DUP2 AND PUSH1 0x80 MSTORE SWAP1 DUP3 SWAP1 SHL AND PUSH1 0xA0 MSTORE PUSH1 0x40 MLOAD DUP2 SWAP1 ADDRESS SWAP1 PUSH3 0xFD SWAP1 PUSH3 0x1EC JUMP JUMPDEST PUSH3 0x10A SWAP3 SWAP2 SWAP1 PUSH3 0x25E JUMP JUMPDEST PUSH1 0x40 MLOAD DUP1 SWAP2 SUB SWAP1 PUSH1 0x0 CREATE DUP1 ISZERO DUP1 ISZERO PUSH3 0x127 JUMPI RETURNDATASIZE PUSH1 0x0 DUP1 RETURNDATACOPY RETURNDATASIZE PUSH1 0x0 REVERT JUMPDEST POP PUSH1 0x60 SHL PUSH1 0x1 PUSH1 0x1 PUSH1 0x60 SHL SUB NOT AND PUSH1 0xC0 MSTORE POP PUSH1 0x1 PUSH1 0x1 PUSH1 0xA0 SHL SUB DUP2 AND PUSH3 0x150 JUMPI PUSH1 0x0 PUSH3 0x1C7 JUMP JUMPDEST DUP1 PUSH1 0x1 PUSH1 0x1 PUSH1 0xA0 SHL SUB AND PUSH4 0xC1FE3E48 PUSH1 0x40 MLOAD DUP2 PUSH4 0xFFFFFFFF AND PUSH1 0xE0 SHL DUP2 MSTORE PUSH1 0x4 ADD PUSH1 0x20 PUSH1 0x40 MLOAD DUP1 DUP4 SUB DUP2 PUSH1 0x0 DUP8 DUP1 EXTCODESIZE ISZERO DUP1 ISZERO PUSH3 0x18C JUMPI PUSH1 0x0 DUP1 REVERT JUMPDEST POP GAS CALL ISZERO DUP1 ISZERO PUSH3 0x1A1 JUMPI RETURNDATASIZE PUSH1 0x0 DUP1 RETURNDATACOPY RETURNDATASIZE PUSH1 0x0 REVERT JUMPDEST POP POP POP POP PUSH1 0x40 MLOAD RETURNDATASIZE PUSH1 0x1F NOT PUSH1 0x1F DUP3 ADD AND DUP3 ADD DUP1 PUSH1 0x40 MSTORE POP DUP2 ADD SWAP1 PUSH3 0x1C7 SWAP2 SWAP1 PUSH3 0x238 JUMP JUMPDEST PUSH1 0x1 PUSH1 0x1 PUSH1 0x60 SHL SUB NOT PUSH1 0x60 SWAP2 DUP3 SHL DUP2 AND PUSH2 0x100 MSTORE SWAP2 SWAP1 SHL AND PUSH2 0x120 MSTORE POP PUSH3 0x291 SWAP1 POP JUMP JUMPDEST PUSH2 0x699 DUP1 PUSH3 0x3AA4 DUP4 CODECOPY ADD SWAP1 JUMP JUMPDEST PUSH1 0x0 DUP1 PUSH1 0x40 DUP4 DUP6 SUB SLT ISZERO PUSH3 0x20D JUMPI DUP2 DUP3 REVERT JUMPDEST DUP3 MLOAD PUSH3 0x21A DUP2 PUSH3 0x278 JUMP JUMPDEST PUSH1 0x20 DUP5 ADD MLOAD SWAP1 SWAP3 POP PUSH3 0x22D DUP2 PUSH3 0x278 JUMP JUMPDEST DUP1 SWAP2 POP POP SWAP3 POP SWAP3 SWAP1 POP JUMP JUMPDEST PUSH1 0x0 PUSH1 0x20 DUP3 DUP5 SUB SLT ISZERO PUSH3 0x24A JUMPI DUP1 DUP2 REVERT JUMPDEST DUP2 MLOAD PUSH3 0x257 DUP2 PUSH3 0x278 JUMP JUMPDEST SWAP4 SWAP3 POP POP POP JUMP JUMPDEST PUSH1 0x1 PUSH1 0x1 PUSH1 0xA0 SHL SUB SWAP3 DUP4 AND DUP2 MSTORE SWAP2 AND PUSH1 0x20 DUP3 ADD MSTORE PUSH1 0x40 ADD SWAP1 JUMP JUMPDEST PUSH1 0x1 PUSH1 0x1 PUSH1 0xA0 SHL SUB DUP2 AND DUP2 EQ PUSH3 0x28E JUMPI PUSH1 0x0 DUP1 REVERT JUMPDEST POP JUMP JUMPDEST PUSH1 0x80 MLOAD PUSH1 0x60 SHR PUSH1 0xA0 MLOAD PUSH1 0x60 SHR PUSH1 0xC0 MLOAD PUSH1 0x60 SHR PUSH1 0xE0 MLOAD PUSH2 0x100 MLOAD PUSH1 0x60 SHR PUSH2 0x120 MLOAD PUSH1 0x60 SHR PUSH2 0x3783 PUSH3 0x321 PUSH1 0x0 CODECOPY DUP1 PUSH2 0x2BC MSTORE DUP1 PUSH2 0x350 MSTORE DUP1 PUSH2 0x39D MSTORE DUP1 PUSH2 0x714 MSTORE DUP1 PUSH2 0x7AB MSTORE DUP1 PUSH2 0x85B MSTORE DUP1 PUSH2 0x1961 MSTORE DUP1 PUSH2 0x19A0 MSTORE POP DUP1 PUSH2 0x6AB MSTORE DUP1 PUSH2 0x6E7 MSTORE DUP1 PUSH2 0x923 MSTORE DUP1 PUSH2 0x9E9 MSTORE DUP1 PUSH2 0x1A50 MSTORE POP DUP1 PUSH2 0x1DF3 MSTORE POP DUP1 PUSH2 0xED1 MSTORE POP DUP1 PUSH2 0xFA4 MSTORE DUP1 PUSH2 0x104E MSTORE POP POP PUSH2 0x3783 PUSH1 0x0 RETURN INVALID PUSH1 0x80 PUSH1 0x40 MSTORE PUSH1 0x4 CALLDATASIZE LT PUSH2 0xFE JUMPI PUSH1 0x0 CALLDATALOAD PUSH1 0xE0 SHR DUP1 PUSH4 0x80DB15BD GT PUSH2 0x95 JUMPI DUP1 PUSH4 0x959FC17A GT PUSH2 0x64 JUMPI DUP1 PUSH4 0x959FC17A EQ PUSH2 0x21D JUMPI DUP1 PUSH4 0xB6D24737 EQ PUSH2 0x230 JUMPI DUP1 PUSH4 0xD80952D5 EQ PUSH2 0x250 JUMPI DUP1 PUSH4 0xDB4C0E91 EQ PUSH2 0x263 JUMPI DUP1 PUSH4 0xECC02637 EQ PUSH2 0x276 JUMPI PUSH2 0xFE JUMP JUMPDEST DUP1 PUSH4 0x80DB15BD EQ PUSH2 0x1CF JUMPI DUP1 PUSH4 0x8D64CFBC EQ PUSH2 0x1E2 JUMPI DUP1 PUSH4 0x8D928AF8 EQ PUSH2 0x1F5 JUMPI DUP1 PUSH4 0x8FE4624F EQ PUSH2 0x20A JUMPI PUSH2 0xFE JUMP JUMPDEST DUP1 PUSH4 0x2E6272EA GT PUSH2 0xD1 JUMPI DUP1 PUSH4 0x2E6272EA EQ PUSH2 0x167 JUMPI DUP1 PUSH4 0x433B0865 EQ PUSH2 0x187 JUMPI DUP1 PUSH4 0x7AB6E03C EQ PUSH2 0x19A JUMPI DUP1 PUSH4 0x7FD0E5D5 EQ PUSH2 0x1AD JUMPI PUSH2 0xFE JUMP JUMPDEST DUP1 PUSH4 0x1089E5E3 EQ PUSH2 0x103 JUMPI DUP1 PUSH4 0x18369446 EQ PUSH2 0x118 JUMPI DUP1 PUSH4 0x1C982441 EQ PUSH2 0x141 JUMPI DUP1 PUSH4 0x2CBEC84E EQ PUSH2 0x154 JUMPI JUMPDEST PUSH1 0x0 DUP1 REVERT JUMPDEST PUSH2 0x116 PUSH2 0x111 CALLDATASIZE PUSH1 0x4 PUSH2 0x2765 JUMP JUMPDEST PUSH2 0x289 JUMP JUMPDEST STOP JUMPDEST PUSH2 0x12B PUSH2 0x126 CALLDATASIZE PUSH1 0x4 PUSH2 0x2C9F JUMP JUMPDEST PUSH2 0x446 JUMP JUMPDEST PUSH1 0x40 MLOAD PUSH2 0x138 SWAP2 SWAP1 PUSH2 0x3284 JUMP JUMPDEST PUSH1 0x40 MLOAD DUP1 SWAP2 SUB SWAP1 RETURN JUMPDEST PUSH2 0x116 PUSH2 0x14F CALLDATASIZE PUSH1 0x4 PUSH2 0x2694 JUMP JUMPDEST PUSH2 0x653 JUMP JUMPDEST PUSH2 0x116 PUSH2 0x162 CALLDATASIZE PUSH1 0x4 PUSH2 0x2765 JUMP JUMPDEST PUSH2 0x905 JUMP JUMPDEST PUSH2 0x17A PUSH2 0x175 CALLDATASIZE PUSH1 0x4 PUSH2 0x2D99 JUMP JUMPDEST PUSH2 0xA20 JUMP JUMPDEST PUSH1 0x40 MLOAD PUSH2 0x138 SWAP2 SWAP1 PUSH2 0x369B JUMP JUMPDEST PUSH2 0x116 PUSH2 0x195 CALLDATASIZE PUSH1 0x4 PUSH2 0x2B5A JUMP JUMPDEST PUSH2 0xB4D JUMP JUMPDEST PUSH2 0x116 PUSH2 0x1A8 CALLDATASIZE PUSH1 0x4 PUSH2 0x2B5A JUMP JUMPDEST PUSH2 0xDCA JUMP JUMPDEST CALLVALUE DUP1 ISZERO PUSH2 0x1B9 JUMPI PUSH1 0x0 DUP1 REVERT JUMPDEST POP PUSH2 0x1C2 PUSH2 0xECF JUMP JUMPDEST PUSH1 0x40 MLOAD PUSH2 0x138 SWAP2 SWAP1 PUSH2 0x30FE JUMP JUMPDEST PUSH2 0x116 PUSH2 0x1DD CALLDATASIZE PUSH1 0x4 PUSH2 0x26D9 JUMP JUMPDEST PUSH2 0xEF3 JUMP JUMPDEST PUSH2 0x116 PUSH2 0x1F0 CALLDATASIZE PUSH1 0x4 PUSH2 0x2AA6 JUMP JUMPDEST PUSH2 0xFD2 JUMP JUMPDEST CALLVALUE DUP1 ISZERO PUSH2 0x201 JUMPI PUSH1 0x0 DUP1 REVERT JUMPDEST POP PUSH2 0x1C2 PUSH2 0x104C JUMP JUMPDEST PUSH2 0x116 PUSH2 0x218 CALLDATASIZE PUSH1 0x4 PUSH2 0x2999 JUMP JUMPDEST PUSH2 0x1070 JUMP JUMPDEST PUSH2 0x116 PUSH2 0x22B CALLDATASIZE PUSH1 0x4 PUSH2 0x2A26 JUMP JUMPDEST PUSH2 0x1275 JUMP JUMPDEST CALLVALUE DUP1 ISZERO PUSH2 0x23C JUMPI PUSH1 0x0 DUP1 REVERT JUMPDEST POP PUSH2 0x116 PUSH2 0x24B CALLDATASIZE PUSH1 0x4 PUSH2 0x2B2F JUMP JUMPDEST PUSH2 0x12F2 JUMP JUMPDEST PUSH2 0x116 PUSH2 0x25E CALLDATASIZE PUSH1 0x4 PUSH2 0x28F3 JUMP JUMPDEST PUSH2 0x137E JUMP JUMPDEST PUSH2 0x116 PUSH2 0x271 CALLDATASIZE PUSH1 0x4 PUSH2 0x2694 JUMP JUMPDEST PUSH2 0x1909 JUMP JUMPDEST PUSH2 0x116 PUSH2 0x284 CALLDATASIZE PUSH1 0x4 PUSH2 0x2828 JUMP JUMPDEST PUSH2 0x1A87 JUMP JUMPDEST PUSH2 0x292 DUP3 PUSH2 0x1B7F JUMP JUMPDEST ISZERO PUSH2 0x2A3 JUMPI PUSH2 0x2A0 DUP3 PUSH2 0x1B97 JUMP JUMPDEST SWAP2 POP JUMPDEST PUSH1 0x40 MLOAD PUSH3 0xB0E389 PUSH1 0xE8 SHL DUP2 MSTORE PUSH1 0x0 SWAP1 PUSH1 0x1 PUSH1 0x1 PUSH1 0xA0 SHL SUB PUSH32 0x0 AND SWAP1 PUSH4 0xB0E38900 SWAP1 PUSH2 0x2F1 SWAP1 DUP7 SWAP1 PUSH1 0x4 ADD PUSH2 0x369B JUMP JUMPDEST PUSH1 0x20 PUSH1 0x40 MLOAD DUP1 DUP4 SUB DUP2 DUP7 DUP1 EXTCODESIZE ISZERO DUP1 ISZERO PUSH2 0x309 JUMPI PUSH1 0x0 DUP1 REVERT JUMPDEST POP GAS STATICCALL ISZERO DUP1 ISZERO PUSH2 0x31D JUMPI RETURNDATASIZE PUSH1 0x0 DUP1 RETURNDATACOPY RETURNDATASIZE PUSH1 0x0 REVERT JUMPDEST POP POP POP POP PUSH1 0x40 MLOAD RETURNDATASIZE PUSH1 0x1F NOT PUSH1 0x1F DUP3 ADD AND DUP3 ADD DUP1 PUSH1 0x40 MSTORE POP DUP2 ADD SWAP1 PUSH2 0x341 SWAP2 SWAP1 PUSH2 0x2E90 JUMP JUMPDEST SWAP1 POP PUSH2 0x376 PUSH1 0x1 PUSH1 0x1 PUSH1 0xA0 SHL SUB PUSH32 0x0 AND DUP5 PUSH2 0x1BB1 JUMP JUMPDEST PUSH1 0x1 PUSH1 0x1 PUSH1 0xA0 SHL SUB DUP5 AND ADDRESS EQ PUSH2 0x428 JUMPI PUSH1 0x40 MLOAD PUSH4 0xA9059CBB PUSH1 0xE0 SHL DUP2 MSTORE PUSH1 0x1 PUSH1 0x1 PUSH1 0xA0 SHL SUB PUSH32 0x0 AND SWAP1 PUSH4 0xA9059CBB SWAP1 PUSH2 0x3D4 SWAP1 DUP8 SWAP1 DUP6 SWAP1 PUSH1 0x4 ADD PUSH2 0x321C JUMP JUMPDEST PUSH1 0x20 PUSH1 0x40 MLOAD DUP1 DUP4 SUB DUP2 PUSH1 0x0 DUP8 DUP1 EXTCODESIZE ISZERO DUP1 ISZERO PUSH2 0x3EE JUMPI PUSH1 0x0 DUP1 REVERT JUMPDEST POP GAS CALL ISZERO DUP1 ISZERO PUSH2 0x402 JUMPI RETURNDATASIZE PUSH1 0x0 DUP1 RETURNDATACOPY RETURNDATASIZE PUSH1 0x0 REVERT JUMPDEST POP POP POP POP PUSH1 0x40 MLOAD RETURNDATASIZE PUSH1 0x1F NOT PUSH1 0x1F DUP3 ADD AND DUP3 ADD DUP1 PUSH1 0x40 MSTORE POP DUP2 ADD SWAP1 PUSH2 0x426 SWAP2 SWAP1 PUSH2 0x28D7 JUMP JUMPDEST POP JUMPDEST PUSH2 0x431 DUP3 PUSH2 0x1B7F JUMP JUMPDEST ISZERO PUSH2 0x440 JUMPI PUSH2 0x440 DUP3 DUP3 PUSH2 0x1C2B JUMP JUMPDEST POP POP POP POP JUMP JUMPDEST PUSH1 0x60 CALLER PUSH2 0x456 PUSH1 0x20 DUP11 ADD DUP11 PUSH2 0x2678 JUMP JUMPDEST PUSH1 0x1 PUSH1 0x1 PUSH1 0xA0 SHL SUB AND EQ DUP1 PUSH2 0x47F JUMPI POP ADDRESS PUSH2 0x474 PUSH1 0x20 DUP11 ADD DUP11 PUSH2 0x2678 JUMP JUMPDEST PUSH1 0x1 PUSH1 0x1 PUSH1 0xA0 SHL SUB AND EQ JUMPDEST PUSH2 0x4A4 JUMPI PUSH1 0x40 MLOAD PUSH3 0x461BCD PUSH1 0xE5 SHL DUP2 MSTORE PUSH1 0x4 ADD PUSH2 0x49B SWAP1 PUSH2 0x3578 JUMP JUMPDEST PUSH1 0x40 MLOAD DUP1 SWAP2 SUB SWAP1 REVERT JUMPDEST PUSH1 0x0 JUMPDEST DUP12 MLOAD DUP2 LT ISZERO PUSH2 0x509 JUMPI PUSH1 0x0 DUP13 DUP3 DUP2 MLOAD DUP2 LT PUSH2 0x4BE JUMPI INVALID JUMPDEST PUSH1 0x20 MUL PUSH1 0x20 ADD ADD MLOAD PUSH1 0x60 ADD MLOAD SWAP1 POP PUSH2 0x4D5 DUP2 PUSH2 0x1B7F JUMP JUMPDEST ISZERO PUSH2 0x500 JUMPI PUSH2 0x4E3 DUP2 PUSH2 0x1B97 JUMP JUMPDEST DUP14 DUP4 DUP2 MLOAD DUP2 LT PUSH2 0x4EF JUMPI INVALID JUMPDEST PUSH1 0x20 MUL PUSH1 0x20 ADD ADD MLOAD PUSH1 0x60 ADD DUP2 DUP2 MSTORE POP POP JUMPDEST POP PUSH1 0x1 ADD PUSH2 0x4A7 JUMP JUMPDEST POP PUSH1 0x0 PUSH2 0x514 PUSH2 0x104C JUMP JUMPDEST PUSH1 0x1 PUSH1 0x1 PUSH1 0xA0 SHL SUB AND PUSH4 0x945BCEC9 DUP7 DUP16 DUP16 DUP16 DUP16 DUP16 DUP16 DUP16 DUP16 PUSH1 0x40 MLOAD DUP11 PUSH4 0xFFFFFFFF AND PUSH1 0xE0 SHL DUP2 MSTORE PUSH1 0x4 ADD PUSH2 0x54E SWAP9 SWAP8 SWAP7 SWAP6 SWAP5 SWAP4 SWAP3 SWAP2 SWAP1 PUSH2 0x348E JUMP JUMPDEST PUSH1 0x0 PUSH1 0x40 MLOAD DUP1 DUP4 SUB DUP2 DUP6 DUP9 DUP1 EXTCODESIZE ISZERO DUP1 ISZERO PUSH2 0x567 JUMPI PUSH1 0x0 DUP1 REVERT JUMPDEST POP GAS CALL ISZERO DUP1 ISZERO PUSH2 0x57B JUMPI RETURNDATASIZE PUSH1 0x0 DUP1 RETURNDATACOPY RETURNDATASIZE PUSH1 0x0 REVERT JUMPDEST POP POP POP POP POP PUSH1 0x40 MLOAD RETURNDATASIZE PUSH1 0x0 DUP3 RETURNDATACOPY PUSH1 0x1F RETURNDATASIZE SWAP1 DUP2 ADD PUSH1 0x1F NOT AND DUP3 ADD PUSH1 0x40 MSTORE PUSH2 0x5A4 SWAP2 SWAP1 DUP2 ADD SWAP1 PUSH2 0x2799 JUMP JUMPDEST SWAP1 POP PUSH1 0x0 JUMPDEST DUP4 DUP2 LT ISZERO PUSH2 0x642 JUMPI PUSH2 0x5CF DUP6 DUP6 DUP4 DUP2 DUP2 LT PUSH2 0x5C0 JUMPI INVALID JUMPDEST SWAP1 POP PUSH1 0x40 MUL ADD PUSH1 0x20 ADD CALLDATALOAD PUSH2 0x1B7F JUMP JUMPDEST PUSH2 0x5EB JUMPI PUSH1 0x40 MLOAD PUSH3 0x461BCD PUSH1 0xE5 SHL DUP2 MSTORE PUSH1 0x4 ADD PUSH2 0x49B SWAP1 PUSH2 0x35D9 JUMP JUMPDEST PUSH2 0x63A DUP6 DUP6 DUP4 DUP2 DUP2 LT PUSH2 0x5FA JUMPI INVALID JUMPDEST SWAP1 POP PUSH1 0x40 MUL ADD PUSH1 0x20 ADD CALLDATALOAD PUSH2 0x635 DUP5 DUP9 DUP9 DUP7 DUP2 DUP2 LT PUSH2 0x614 JUMPI INVALID JUMPDEST SWAP1 POP PUSH1 0x40 MUL ADD PUSH1 0x0 ADD CALLDATALOAD DUP2 MLOAD DUP2 LT PUSH2 0x628 JUMPI INVALID JUMPDEST PUSH1 0x20 MUL PUSH1 0x20 ADD ADD MLOAD PUSH2 0x1C3E JUMP JUMPDEST PUSH2 0x1C2B JUMP JUMPDEST PUSH1 0x1 ADD PUSH2 0x5A9 JUMP JUMPDEST POP SWAP13 SWAP12 POP POP POP POP POP POP POP POP POP POP POP POP JUMP JUMPDEST PUSH2 0x65C DUP3 PUSH2 0x1B7F JUMP JUMPDEST ISZERO PUSH2 0x66D JUMPI PUSH2 0x66A DUP3 PUSH2 0x1B97 JUMP JUMPDEST SWAP2 POP JUMPDEST PUSH1 0x1 PUSH1 0x1 PUSH1 0xA0 SHL SUB DUP5 AND ADDRESS EQ PUSH2 0x6D0 JUMPI PUSH1 0x1 PUSH1 0x1 PUSH1 0xA0 SHL SUB DUP5 AND CALLER EQ PUSH2 0x6A5 JUMPI PUSH1 0x40 MLOAD PUSH3 0x461BCD PUSH1 0xE5 SHL DUP2 MSTORE PUSH1 0x4 ADD PUSH2 0x49B SWAP1 PUSH2 0x3578 JUMP JUMPDEST PUSH2 0x6D0 DUP5 PUSH32 0x0 DUP5 PUSH2 0x1C58 JUMP JUMPDEST PUSH1 0x40 MLOAD PUSH4 0x95EA7B3 PUSH1 0xE0 SHL DUP2 MSTORE PUSH1 0x1 PUSH1 0x1 PUSH1 0xA0 SHL SUB PUSH32 0x0 AND SWAP1 PUSH4 0x95EA7B3 SWAP1 PUSH2 0x73E SWAP1 PUSH32 0x0 SWAP1 DUP7 SWAP1 PUSH1 0x4 ADD PUSH2 0x321C JUMP JUMPDEST PUSH1 0x20 PUSH1 0x40 MLOAD DUP1 DUP4 SUB DUP2 PUSH1 0x0 DUP8 DUP1 EXTCODESIZE ISZERO DUP1 ISZERO PUSH2 0x758 JUMPI PUSH1 0x0 DUP1 REVERT JUMPDEST POP GAS CALL ISZERO DUP1 ISZERO PUSH2 0x76C JUMPI RETURNDATASIZE PUSH1 0x0 DUP1 RETURNDATACOPY RETURNDATASIZE PUSH1 0x0 REVERT JUMPDEST POP POP POP POP PUSH1 0x40 MLOAD RETURNDATASIZE PUSH1 0x1F NOT PUSH1 0x1F DUP3 ADD AND DUP3 ADD DUP1 PUSH1 0x40 MSTORE POP DUP2 ADD SWAP1 PUSH2 0x790 SWAP2 SWAP1 PUSH2 0x28D7 JUMP JUMPDEST POP PUSH1 0x40 MLOAD PUSH4 0xEA598CB PUSH1 0xE4 SHL DUP2 MSTORE PUSH1 0x0 SWAP1 PUSH1 0x1 PUSH1 0x1 PUSH1 0xA0 SHL SUB PUSH32 0x0 AND SWAP1 PUSH4 0xEA598CB0 SWAP1 PUSH2 0x7E0 SWAP1 DUP7 SWAP1 PUSH1 0x4 ADD PUSH2 0x369B JUMP JUMPDEST PUSH1 0x20 PUSH1 0x40 MLOAD DUP1 DUP4 SUB DUP2 PUSH1 0x0 DUP8 DUP1 EXTCODESIZE ISZERO DUP1 ISZERO PUSH2 0x7FA JUMPI PUSH1 0x0 DUP1 REVERT JUMPDEST POP GAS CALL ISZERO DUP1 ISZERO PUSH2 0x80E JUMPI RETURNDATASIZE PUSH1 0x0 DUP1 RETURNDATACOPY RETURNDATASIZE PUSH1 0x0 REVERT JUMPDEST POP POP POP POP PUSH1 0x40 MLOAD RETURNDATASIZE PUSH1 0x1F NOT PUSH1 0x1F DUP3 ADD AND DUP3 ADD DUP1 PUSH1 0x40 MSTORE POP DUP2 ADD SWAP1 PUSH2 0x832 SWAP2 SWAP1 PUSH2 0x2E90 JUMP JUMPDEST SWAP1 POP PUSH1 0x1 PUSH1 0x1 PUSH1 0xA0 SHL SUB DUP5 AND ADDRESS EQ PUSH2 0x8E6 JUMPI PUSH1 0x40 MLOAD PUSH4 0xA9059CBB PUSH1 0xE0 SHL DUP2 MSTORE PUSH1 0x1 PUSH1 0x1 PUSH1 0xA0 SHL SUB PUSH32 0x0 AND SWAP1 PUSH4 0xA9059CBB SWAP1 PUSH2 0x892 SWAP1 DUP8 SWAP1 DUP6 SWAP1 PUSH1 0x4 ADD PUSH2 0x321C JUMP JUMPDEST PUSH1 0x20 PUSH1 0x40 MLOAD DUP1 DUP4 SUB DUP2 PUSH1 0x0 DUP8 DUP1 EXTCODESIZE ISZERO DUP1 ISZERO PUSH2 0x8AC JUMPI PUSH1 0x0 DUP1 REVERT JUMPDEST POP GAS CALL ISZERO DUP1 ISZERO PUSH2 0x8C0 JUMPI RETURNDATASIZE PUSH1 0x0 DUP1 RETURNDATACOPY RETURNDATASIZE PUSH1 0x0 REVERT JUMPDEST POP POP POP POP PUSH1 0x40 MLOAD RETURNDATASIZE PUSH1 0x1F NOT PUSH1 0x1F DUP3 ADD AND DUP3 ADD DUP1 PUSH1 0x40 MSTORE POP DUP2 ADD SWAP1 PUSH2 0x8E4 SWAP2 SWAP1 PUSH2 0x28D7 JUMP JUMPDEST POP JUMPDEST PUSH2 0x8EF DUP3 PUSH2 0x1B7F JUMP JUMPDEST ISZERO PUSH2 0x8FE JUMPI PUSH2 0x8FE DUP3 DUP3 PUSH2 0x1C2B JUMP JUMPDEST POP POP POP POP POP JUMP JUMPDEST PUSH2 0x90E DUP3 PUSH2 0x1B7F JUMP JUMPDEST ISZERO PUSH2 0x91F JUMPI PUSH2 0x91C DUP3 PUSH2 0x1B97 JUMP JUMPDEST SWAP2 POP JUMPDEST PUSH1 0x0 PUSH32 0x0 PUSH1 0x1 PUSH1 0x1 PUSH1 0xA0 SHL SUB AND PUSH4 0xA1903EAB DUP5 ADDRESS PUSH1 0x40 MLOAD DUP4 PUSH4 0xFFFFFFFF AND PUSH1 0xE0 SHL DUP2 MSTORE PUSH1 0x4 ADD PUSH2 0x96E SWAP2 SWAP1 PUSH2 0x30FE JUMP JUMPDEST PUSH1 0x20 PUSH1 0x40 MLOAD DUP1 DUP4 SUB DUP2 DUP6 DUP9 DUP1 EXTCODESIZE ISZERO DUP1 ISZERO PUSH2 0x987 JUMPI PUSH1 0x0 DUP1 REVERT JUMPDEST POP GAS CALL ISZERO DUP1 ISZERO PUSH2 0x99B JUMPI RETURNDATASIZE PUSH1 0x0 DUP1 RETURNDATACOPY RETURNDATASIZE PUSH1 0x0 REVERT JUMPDEST POP POP POP POP POP PUSH1 0x40 MLOAD RETURNDATASIZE PUSH1 0x1F NOT PUSH1 0x1F DUP3 ADD AND DUP3 ADD DUP1 PUSH1 0x40 MSTORE POP DUP2 ADD SWAP1 PUSH2 0x9C0 SWAP2 SWAP1 PUSH2 0x2E90 JUMP JUMPDEST SWAP1 POP PUSH1 0x1 PUSH1 0x1 PUSH1 0xA0 SHL SUB DUP5 AND ADDRESS EQ PUSH2 0x428 JUMPI PUSH1 0x40 MLOAD PUSH4 0xA9059CBB PUSH1 0xE0 SHL DUP2 MSTORE PUSH1 0x1 PUSH1 0x1 PUSH1 0xA0 SHL SUB PUSH32 0x0 AND SWAP1 PUSH4 0xA9059CBB SWAP1 PUSH2 0x3D4 SWAP1 DUP8 SWAP1 DUP6 SWAP1 PUSH1 0x4 ADD PUSH2 0x321C JUMP JUMPDEST PUSH1 0x0 CALLER PUSH2 0xA30 PUSH1 0x20 DUP9 ADD DUP9 PUSH2 0x2678 JUMP JUMPDEST PUSH1 0x1 PUSH1 0x1 PUSH1 0xA0 SHL SUB AND EQ DUP1 PUSH2 0xA59 JUMPI POP ADDRESS PUSH2 0xA4E PUSH1 0x20 DUP9 ADD DUP9 PUSH2 0x2678 JUMP JUMPDEST PUSH1 0x1 PUSH1 0x1 PUSH1 0xA0 SHL SUB AND EQ JUMPDEST PUSH2 0xA75 JUMPI PUSH1 0x40 MLOAD PUSH3 0x461BCD PUSH1 0xE5 SHL DUP2 MSTORE PUSH1 0x4 ADD PUSH2 0x49B SWAP1 PUSH2 0x3578 JUMP JUMPDEST PUSH2 0xA82 DUP8 PUSH1 0x80 ADD MLOAD PUSH2 0x1B7F JUMP JUMPDEST ISZERO PUSH2 0xA9A JUMPI PUSH2 0xA94 DUP8 PUSH1 0x80 ADD MLOAD PUSH2 0x1B97 JUMP JUMPDEST PUSH1 0x80 DUP9 ADD MSTORE JUMPDEST PUSH1 0x0 PUSH2 0xAA4 PUSH2 0x104C JUMP JUMPDEST PUSH1 0x1 PUSH1 0x1 PUSH1 0xA0 SHL SUB AND PUSH4 0x52BBBE29 DUP6 DUP11 DUP11 DUP11 DUP11 PUSH1 0x40 MLOAD DUP7 PUSH4 0xFFFFFFFF AND PUSH1 0xE0 SHL DUP2 MSTORE PUSH1 0x4 ADD PUSH2 0xAD6 SWAP5 SWAP4 SWAP3 SWAP2 SWAP1 PUSH2 0x3610 JUMP JUMPDEST PUSH1 0x20 PUSH1 0x40 MLOAD DUP1 DUP4 SUB DUP2 DUP6 DUP9 DUP1 EXTCODESIZE ISZERO DUP1 ISZERO PUSH2 0xAEF JUMPI PUSH1 0x0 DUP1 REVERT JUMPDEST POP GAS CALL ISZERO DUP1 ISZERO PUSH2 0xB03 JUMPI RETURNDATASIZE PUSH1 0x0 DUP1 RETURNDATACOPY RETURNDATASIZE PUSH1 0x0 REVERT JUMPDEST POP POP POP POP POP PUSH1 0x40 MLOAD RETURNDATASIZE PUSH1 0x1F NOT PUSH1 0x1F DUP3 ADD AND DUP3 ADD DUP1 PUSH1 0x40 MSTORE POP DUP2 ADD SWAP1 PUSH2 0xB28 SWAP2 SWAP1 PUSH2 0x2E90 JUMP JUMPDEST SWAP1 POP PUSH2 0xB33 DUP4 PUSH2 0x1B7F JUMP JUMPDEST ISZERO PUSH2 0xB42 JUMPI PUSH2 0xB42 DUP4 DUP3 PUSH2 0x1C2B JUMP JUMPDEST SWAP8 SWAP7 POP POP POP POP POP POP POP JUMP JUMPDEST PUSH2 0xB56 DUP4 PUSH2 0x1B7F JUMP JUMPDEST ISZERO PUSH2 0xB67 JUMPI PUSH2 0xB64 DUP4 PUSH2 0x1B97 JUMP JUMPDEST SWAP3 POP JUMPDEST PUSH1 0x0 DUP3 PUSH2 0xBE6 JUMPI DUP7 PUSH1 0x1 PUSH1 0x1 PUSH1 0xA0 SHL SUB AND PUSH4 0x51C0E061 PUSH1 0x40 MLOAD DUP2 PUSH4 0xFFFFFFFF AND PUSH1 0xE0 SHL DUP2 MSTORE PUSH1 0x4 ADD PUSH1 0x20 PUSH1 0x40 MLOAD DUP1 DUP4 SUB DUP2 PUSH1 0x0 DUP8 DUP1 EXTCODESIZE ISZERO DUP1 ISZERO PUSH2 0xBA9 JUMPI PUSH1 0x0 DUP1 REVERT JUMPDEST POP GAS CALL ISZERO DUP1 ISZERO PUSH2 0xBBD JUMPI RETURNDATASIZE PUSH1 0x0 DUP1 RETURNDATACOPY RETURNDATASIZE PUSH1 0x0 REVERT JUMPDEST POP POP POP POP PUSH1 0x40 MLOAD RETURNDATASIZE PUSH1 0x1F NOT PUSH1 0x1F DUP3 ADD AND DUP3 ADD DUP1 PUSH1 0x40 MSTORE POP DUP2 ADD SWAP1 PUSH2 0xBE1 SWAP2 SWAP1 PUSH2 0x2B13 JUMP JUMPDEST PUSH2 0xC59 JUMP JUMPDEST DUP7 PUSH1 0x1 PUSH1 0x1 PUSH1 0xA0 SHL SUB AND PUSH4 0x4800D97F PUSH1 0x40 MLOAD DUP2 PUSH4 0xFFFFFFFF AND PUSH1 0xE0 SHL DUP2 MSTORE PUSH1 0x4 ADD PUSH1 0x20 PUSH1 0x40 MLOAD DUP1 DUP4 SUB DUP2 PUSH1 0x0 DUP8 DUP1 EXTCODESIZE ISZERO DUP1 ISZERO PUSH2 0xC21 JUMPI PUSH1 0x0 DUP1 REVERT JUMPDEST POP GAS CALL ISZERO DUP1 ISZERO PUSH2 0xC35 JUMPI RETURNDATASIZE PUSH1 0x0 DUP1 RETURNDATACOPY RETURNDATASIZE PUSH1 0x0 REVERT JUMPDEST POP POP POP POP PUSH1 0x40 MLOAD RETURNDATASIZE PUSH1 0x1F NOT PUSH1 0x1F DUP3 ADD AND DUP3 ADD DUP1 PUSH1 0x40 MSTORE POP DUP2 ADD SWAP1 PUSH2 0xC59 SWAP2 SWAP1 PUSH2 0x2B13 JUMP JUMPDEST SWAP1 POP PUSH1 0x1 PUSH1 0x1 PUSH1 0xA0 SHL SUB DUP7 AND ADDRESS EQ PUSH2 0xC9E JUMPI PUSH1 0x1 PUSH1 0x1 PUSH1 0xA0 SHL SUB DUP7 AND CALLER EQ PUSH2 0xC93 JUMPI PUSH1 0x40 MLOAD PUSH3 0x461BCD PUSH1 0xE5 SHL DUP2 MSTORE PUSH1 0x4 ADD PUSH2 0x49B SWAP1 PUSH2 0x3578 JUMP JUMPDEST PUSH2 0xC9E DUP7 DUP3 DUP7 PUSH2 0x1C58 JUMP JUMPDEST PUSH1 0x40 MLOAD PUSH4 0x95EA7B3 PUSH1 0xE0 SHL DUP2 MSTORE PUSH1 0x1 PUSH1 0x1 PUSH1 0xA0 SHL SUB DUP3 AND SWAP1 PUSH4 0x95EA7B3 SWAP1 PUSH2 0xCCC SWAP1 DUP11 SWAP1 DUP9 SWAP1 PUSH1 0x4 ADD PUSH2 0x321C JUMP JUMPDEST PUSH1 0x20 PUSH1 0x40 MLOAD DUP1 DUP4 SUB DUP2 PUSH1 0x0 DUP8 DUP1 EXTCODESIZE ISZERO DUP1 ISZERO PUSH2 0xCE6 JUMPI PUSH1 0x0 DUP1 REVERT JUMPDEST POP GAS CALL ISZERO DUP1 ISZERO PUSH2 0xCFA JUMPI RETURNDATASIZE PUSH1 0x0 DUP1 RETURNDATACOPY RETURNDATASIZE PUSH1 0x0 REVERT JUMPDEST POP POP POP POP PUSH1 0x40 MLOAD RETURNDATASIZE PUSH1 0x1F NOT PUSH1 0x1F DUP3 ADD AND DUP3 ADD DUP1 PUSH1 0x40 MSTORE POP DUP2 ADD SWAP1 PUSH2 0xD1E SWAP2 SWAP1 PUSH2 0x28D7 JUMP JUMPDEST POP PUSH1 0x40 MLOAD PUSH4 0x2F2CAB87 PUSH1 0xE0 SHL DUP2 MSTORE PUSH1 0x0 SWAP1 PUSH1 0x1 PUSH1 0x1 PUSH1 0xA0 SHL SUB DUP10 AND SWAP1 PUSH4 0x2F2CAB87 SWAP1 PUSH2 0xD54 SWAP1 DUP10 SWAP1 DUP10 SWAP1 DUP7 SWAP1 DUP11 SWAP1 PUSH1 0x4 ADD PUSH2 0x3258 JUMP JUMPDEST PUSH1 0x20 PUSH1 0x40 MLOAD DUP1 DUP4 SUB DUP2 PUSH1 0x0 DUP8 DUP1 EXTCODESIZE ISZERO DUP1 ISZERO PUSH2 0xD6E JUMPI PUSH1 0x0 DUP1 REVERT JUMPDEST POP GAS CALL ISZERO DUP1 ISZERO PUSH2 0xD82 JUMPI RETURNDATASIZE PUSH1 0x0 DUP1 RETURNDATACOPY RETURNDATASIZE PUSH1 0x0 REVERT JUMPDEST POP POP POP POP PUSH1 0x40 MLOAD RETURNDATASIZE PUSH1 0x1F NOT PUSH1 0x1F DUP3 ADD AND DUP3 ADD DUP1 PUSH1 0x40 MSTORE POP DUP2 ADD SWAP1 PUSH2 0xDA6 SWAP2 SWAP1 PUSH2 0x2E90 JUMP JUMPDEST SWAP1 POP PUSH2 0xDB1 DUP4 PUSH2 0x1B7F JUMP JUMPDEST ISZERO PUSH2 0xDC0 JUMPI PUSH2 0xDC0 DUP4 DUP3 PUSH2 0x1C2B JUMP JUMPDEST POP POP POP POP POP POP POP POP JUMP JUMPDEST PUSH2 0xDD3 DUP4 PUSH2 0x1B7F JUMP JUMPDEST ISZERO PUSH2 0xDE4 JUMPI PUSH2 0xDE1 DUP4 PUSH2 0x1B97 JUMP JUMPDEST SWAP3 POP JUMPDEST PUSH1 0x1 PUSH1 0x1 PUSH1 0xA0 SHL SUB DUP6 AND ADDRESS EQ PUSH2 0xE27 JUMPI PUSH1 0x1 PUSH1 0x1 PUSH1 0xA0 SHL SUB DUP6 AND CALLER EQ PUSH2 0xE1C JUMPI PUSH1 0x40 MLOAD PUSH3 0x461BCD PUSH1 0xE5 SHL DUP2 MSTORE PUSH1 0x4 ADD PUSH2 0x49B SWAP1 PUSH2 0x3578 JUMP JUMPDEST PUSH2 0xE27 DUP6 DUP8 DUP6 PUSH2 0x1C58 JUMP JUMPDEST PUSH1 0x40 MLOAD PUSH4 0xEAD5D359 PUSH1 0xE0 SHL DUP2 MSTORE PUSH1 0x0 SWAP1 PUSH1 0x1 PUSH1 0x1 PUSH1 0xA0 SHL SUB DUP9 AND SWAP1 PUSH4 0xEAD5D359 SWAP1 PUSH2 0xE5A SWAP1 DUP9 SWAP1 DUP9 SWAP1 DUP9 SWAP1 PUSH1 0x4 ADD PUSH2 0x3235 JUMP JUMPDEST PUSH1 0x40 DUP1 MLOAD DUP1 DUP4 SUB DUP2 PUSH1 0x0 DUP8 DUP1 EXTCODESIZE ISZERO DUP1 ISZERO PUSH2 0xE73 JUMPI PUSH1 0x0 DUP1 REVERT JUMPDEST POP GAS CALL ISZERO DUP1 ISZERO PUSH2 0xE87 JUMPI RETURNDATASIZE PUSH1 0x0 DUP1 RETURNDATACOPY RETURNDATASIZE PUSH1 0x0 REVERT JUMPDEST POP POP POP POP PUSH1 0x40 MLOAD RETURNDATASIZE PUSH1 0x1F NOT PUSH1 0x1F DUP3 ADD AND DUP3 ADD DUP1 PUSH1 0x40 MSTORE POP DUP2 ADD SWAP1 PUSH2 0xEAB SWAP2 SWAP1 PUSH2 0x2EA8 JUMP JUMPDEST SWAP2 POP POP PUSH2 0xEB7 DUP3 PUSH2 0x1B7F JUMP JUMPDEST ISZERO PUSH2 0xEC6 JUMPI PUSH2 0xEC6 DUP3 DUP3 PUSH2 0x1C2B JUMP JUMPDEST POP POP POP POP POP POP POP JUMP JUMPDEST PUSH32 0x0 SWAP1 JUMP JUMPDEST PUSH1 0x1 PUSH1 0x1 PUSH1 0xA0 SHL SUB DUP5 AND ADDRESS EQ DUP1 PUSH2 0xF08 JUMPI POP DUP3 ISZERO JUMPDEST PUSH2 0xF24 JUMPI PUSH1 0x40 MLOAD PUSH3 0x461BCD PUSH1 0xE5 SHL DUP2 MSTORE PUSH1 0x4 ADD PUSH2 0x49B SWAP1 PUSH2 0x35A2 JUMP JUMPDEST PUSH1 0x0 PUSH4 0xFA6E671D PUSH1 0xE0 SHL CALLER DUP7 DUP7 PUSH1 0x40 MLOAD PUSH1 0x24 ADD PUSH2 0xF43 SWAP4 SWAP3 SWAP2 SWAP1 PUSH2 0x3112 JUMP JUMPDEST PUSH1 0x40 DUP1 MLOAD PUSH1 0x1F NOT DUP2 DUP5 SUB ADD DUP2 MSTORE SWAP2 DUP2 MSTORE PUSH1 0x20 DUP1 DUP4 ADD DUP1 MLOAD PUSH1 0x1 PUSH1 0x1 PUSH1 0xE0 SHL SUB AND PUSH1 0x1 PUSH1 0x1 PUSH1 0xE0 SHL SUB NOT SWAP1 SWAP6 AND SWAP5 SWAP1 SWAP5 OR SWAP1 SWAP4 MSTORE MLOAD PUSH2 0xF85 SWAP3 DUP7 SWAP2 DUP7 SWAP2 ADD PUSH2 0x30CB JUMP JUMPDEST PUSH1 0x40 DUP1 MLOAD PUSH1 0x1F NOT DUP2 DUP5 SUB ADD DUP2 MSTORE SWAP2 SWAP1 MSTORE SWAP1 POP PUSH2 0xFCA PUSH1 0x1 PUSH1 0x1 PUSH1 0xA0 SHL SUB PUSH32 0x0 AND DUP3 PUSH2 0x1CF4 JUMP JUMPDEST POP POP POP POP POP POP JUMP JUMPDEST DUP7 PUSH1 0x1 PUSH1 0x1 PUSH1 0xA0 SHL SUB AND PUSH4 0xD505ACCF DUP8 PUSH2 0xFEA PUSH2 0x104C JUMP JUMPDEST DUP9 DUP9 DUP9 DUP9 DUP9 PUSH1 0x40 MLOAD DUP9 PUSH4 0xFFFFFFFF AND PUSH1 0xE0 SHL DUP2 MSTORE PUSH1 0x4 ADD PUSH2 0x1011 SWAP8 SWAP7 SWAP6 SWAP5 SWAP4 SWAP3 SWAP2 SWAP1 PUSH2 0x31DB JUMP JUMPDEST PUSH1 0x0 PUSH1 0x40 MLOAD DUP1 DUP4 SUB DUP2 PUSH1 0x0 DUP8 DUP1 EXTCODESIZE ISZERO DUP1 ISZERO PUSH2 0x102B JUMPI PUSH1 0x0 DUP1 REVERT JUMPDEST POP GAS CALL ISZERO DUP1 ISZERO PUSH2 0x103F JUMPI RETURNDATASIZE PUSH1 0x0 DUP1 RETURNDATACOPY RETURNDATASIZE PUSH1 0x0 REVERT JUMPDEST POP POP POP POP POP POP POP POP POP POP POP JUMP JUMPDEST PUSH32 0x0 SWAP1 JUMP JUMPDEST PUSH1 0x1 PUSH1 0x1 PUSH1 0xA0 SHL SUB DUP6 AND CALLER EQ DUP1 PUSH2 0x108F JUMPI POP PUSH1 0x1 PUSH1 0x1 PUSH1 0xA0 SHL SUB DUP6 AND ADDRESS EQ JUMPDEST PUSH2 0x10AB JUMPI PUSH1 0x40 MLOAD PUSH3 0x461BCD PUSH1 0xE5 SHL DUP2 MSTORE PUSH1 0x4 ADD PUSH2 0x49B SWAP1 PUSH2 0x3578 JUMP JUMPDEST PUSH1 0x0 PUSH2 0x10B6 DUP9 PUSH2 0x1D6B JUMP JUMPDEST SWAP1 POP PUSH1 0x0 PUSH2 0x10C3 DUP4 PUSH2 0x1B7F JUMP JUMPDEST PUSH2 0x10CE JUMPI PUSH1 0x0 PUSH2 0x114A JUMP JUMPDEST PUSH1 0x40 MLOAD PUSH4 0x70A08231 PUSH1 0xE0 SHL DUP2 MSTORE PUSH1 0x1 PUSH1 0x1 PUSH1 0xA0 SHL SUB DUP4 AND SWAP1 PUSH4 0x70A08231 SWAP1 PUSH2 0x10FA SWAP1 DUP10 SWAP1 PUSH1 0x4 ADD PUSH2 0x30FE JUMP JUMPDEST PUSH1 0x20 PUSH1 0x40 MLOAD DUP1 DUP4 SUB DUP2 DUP7 DUP1 EXTCODESIZE ISZERO DUP1 ISZERO PUSH2 0x1112 JUMPI PUSH1 0x0 DUP1 REVERT JUMPDEST POP GAS STATICCALL ISZERO DUP1 ISZERO PUSH2 0x1126 JUMPI RETURNDATASIZE PUSH1 0x0 DUP1 RETURNDATACOPY RETURNDATASIZE PUSH1 0x0 REVERT JUMPDEST POP POP POP POP PUSH1 0x40 MLOAD RETURNDATASIZE PUSH1 0x1F NOT PUSH1 0x1F DUP3 ADD AND DUP3 ADD DUP1 PUSH1 0x40 MSTORE POP DUP2 ADD SWAP1 PUSH2 0x114A SWAP2 SWAP1 PUSH2 0x2E90 JUMP JUMPDEST SWAP1 POP PUSH2 0x115A DUP9 DUP7 PUSH1 0x40 ADD MLOAD PUSH2 0x1D71 JUMP JUMPDEST PUSH1 0x40 DUP7 ADD MSTORE PUSH2 0x1167 PUSH2 0x104C JUMP JUMPDEST PUSH1 0x1 PUSH1 0x1 PUSH1 0xA0 SHL SUB AND PUSH4 0xB95CAC28 DUP6 DUP12 DUP11 DUP11 DUP11 PUSH1 0x40 MLOAD DUP7 PUSH4 0xFFFFFFFF AND PUSH1 0xE0 SHL DUP2 MSTORE PUSH1 0x4 ADD PUSH2 0x1199 SWAP5 SWAP4 SWAP3 SWAP2 SWAP1 PUSH2 0x33E8 JUMP JUMPDEST PUSH1 0x0 PUSH1 0x40 MLOAD DUP1 DUP4 SUB DUP2 DUP6 DUP9 DUP1 EXTCODESIZE ISZERO DUP1 ISZERO PUSH2 0x11B2 JUMPI PUSH1 0x0 DUP1 REVERT JUMPDEST POP GAS CALL ISZERO DUP1 ISZERO PUSH2 0x11C6 JUMPI RETURNDATASIZE PUSH1 0x0 DUP1 RETURNDATACOPY RETURNDATASIZE PUSH1 0x0 REVERT JUMPDEST POP POP POP POP POP PUSH2 0x11D4 DUP4 PUSH2 0x1B7F JUMP JUMPDEST ISZERO PUSH2 0x126A JUMPI PUSH1 0x40 MLOAD PUSH4 0x70A08231 PUSH1 0xE0 SHL DUP2 MSTORE PUSH1 0x0 SWAP1 PUSH1 0x1 PUSH1 0x1 PUSH1 0xA0 SHL SUB DUP5 AND SWAP1 PUSH4 0x70A08231 SWAP1 PUSH2 0x1208 SWAP1 DUP11 SWAP1 PUSH1 0x4 ADD PUSH2 0x30FE JUMP JUMPDEST PUSH1 0x20 PUSH1 0x40 MLOAD DUP1 DUP4 SUB DUP2 DUP7 DUP1 EXTCODESIZE ISZERO DUP1 ISZERO PUSH2 0x1220 JUMPI PUSH1 0x0 DUP1 REVERT JUMPDEST POP GAS STATICCALL ISZERO DUP1 ISZERO PUSH2 0x1234 JUMPI RETURNDATASIZE PUSH1 0x0 DUP1 RETURNDATACOPY RETURNDATASIZE PUSH1 0x0 REVERT JUMPDEST POP POP POP POP PUSH1 0x40 MLOAD RETURNDATASIZE PUSH1 0x1F NOT PUSH1 0x1F DUP3 ADD AND DUP3 ADD DUP1 PUSH1 0x40 MSTORE POP DUP2 ADD SWAP1 PUSH2 0x1258 SWAP2 SWAP1 PUSH2 0x2E90 JUMP JUMPDEST SWAP1 POP PUSH2 0x1268 DUP5 PUSH2 0x635 DUP4 DUP6 PUSH2 0x1D9F JUMP JUMPDEST POP JUMPDEST POP POP POP POP POP POP POP POP POP JUMP JUMPDEST DUP8 PUSH1 0x1 PUSH1 0x1 PUSH1 0xA0 SHL SUB AND PUSH4 0x8FCBAF0C DUP9 PUSH2 0x128D PUSH2 0x104C JUMP JUMPDEST DUP10 DUP10 DUP10 DUP10 DUP10 DUP10 PUSH1 0x40 MLOAD DUP10 PUSH4 0xFFFFFFFF AND PUSH1 0xE0 SHL DUP2 MSTORE PUSH1 0x4 ADD PUSH2 0x12B6 SWAP9 SWAP8 SWAP7 SWAP6 SWAP5 SWAP4 SWAP3 SWAP2 SWAP1 PUSH2 0x3192 JUMP JUMPDEST PUSH1 0x0 PUSH1 0x40 MLOAD DUP1 DUP4 SUB DUP2 PUSH1 0x0 DUP8 DUP1 EXTCODESIZE ISZERO DUP1 ISZERO PUSH2 0x12D0 JUMPI PUSH1 0x0 DUP1 REVERT JUMPDEST POP GAS CALL ISZERO DUP1 ISZERO PUSH2 0x12E4 JUMPI RETURNDATASIZE PUSH1 0x0 DUP1 RETURNDATACOPY RETURNDATASIZE PUSH1 0x0 REVERT JUMPDEST POP POP POP POP POP POP POP POP POP POP POP POP JUMP JUMPDEST DUP2 PUSH1 0x1 PUSH1 0x1 PUSH1 0xA0 SHL SUB AND PUSH4 0x95EA7B3 PUSH2 0x1309 PUSH2 0x104C JUMP JUMPDEST DUP4 PUSH1 0x40 MLOAD DUP4 PUSH4 0xFFFFFFFF AND PUSH1 0xE0 SHL DUP2 MSTORE PUSH1 0x4 ADD PUSH2 0x1327 SWAP3 SWAP2 SWAP1 PUSH2 0x321C JUMP JUMPDEST PUSH1 0x20 PUSH1 0x40 MLOAD DUP1 DUP4 SUB DUP2 PUSH1 0x0 DUP8 DUP1 EXTCODESIZE ISZERO DUP1 ISZERO PUSH2 0x1341 JUMPI PUSH1 0x0 DUP1 REVERT JUMPDEST POP GAS CALL ISZERO DUP1 ISZERO PUSH2 0x1355 JUMPI RETURNDATASIZE PUSH1 0x0 DUP1 RETURNDATACOPY RETURNDATASIZE PUSH1 0x0 REVERT JUMPDEST POP POP POP POP PUSH1 0x40 MLOAD RETURNDATASIZE PUSH1 0x1F NOT PUSH1 0x1F DUP3 ADD AND DUP3 ADD DUP1 PUSH1 0x40 MSTORE POP DUP2 ADD SWAP1 PUSH2 0x1379 SWAP2 SWAP1 PUSH2 0x28D7 JUMP JUMPDEST POP POP POP JUMP JUMPDEST PUSH1 0x1 PUSH1 0x1 PUSH1 0xA0 SHL SUB DUP6 AND CALLER EQ DUP1 PUSH2 0x139D JUMPI POP PUSH1 0x1 PUSH1 0x1 PUSH1 0xA0 SHL SUB DUP6 AND ADDRESS EQ JUMPDEST PUSH2 0x13B9 JUMPI PUSH1 0x40 MLOAD PUSH3 0x461BCD PUSH1 0xE5 SHL DUP2 MSTORE PUSH1 0x4 ADD PUSH2 0x49B SWAP1 PUSH2 0x3578 JUMP JUMPDEST PUSH1 0x0 DUP2 PUSH1 0x1 PUSH1 0x1 PUSH1 0x40 SHL SUB DUP2 GT DUP1 ISZERO PUSH2 0x13D1 JUMPI PUSH1 0x0 DUP1 REVERT JUMPDEST POP PUSH1 0x40 MLOAD SWAP1 DUP1 DUP3 MSTORE DUP1 PUSH1 0x20 MUL PUSH1 0x20 ADD DUP3 ADD PUSH1 0x40 MSTORE DUP1 ISZERO PUSH2 0x13FB JUMPI DUP2 PUSH1 0x20 ADD PUSH1 0x20 DUP3 MUL DUP1 CALLDATASIZE DUP4 CALLDATACOPY ADD SWAP1 POP JUMPDEST POP SWAP1 POP PUSH1 0x0 DUP3 PUSH1 0x1 PUSH1 0x1 PUSH1 0x40 SHL SUB DUP2 GT DUP1 ISZERO PUSH2 0x1416 JUMPI PUSH1 0x0 DUP1 REVERT JUMPDEST POP PUSH1 0x40 MLOAD SWAP1 DUP1 DUP3 MSTORE DUP1 PUSH1 0x20 MUL PUSH1 0x20 ADD DUP3 ADD PUSH1 0x40 MSTORE DUP1 ISZERO PUSH2 0x1440 JUMPI DUP2 PUSH1 0x20 ADD PUSH1 0x20 DUP3 MUL DUP1 CALLDATASIZE DUP4 CALLDATACOPY ADD SWAP1 POP JUMPDEST POP SWAP1 POP PUSH1 0x0 JUMPDEST DUP4 DUP2 LT ISZERO PUSH2 0x15B0 JUMPI PUSH2 0x145D DUP6 DUP6 DUP4 DUP2 DUP2 LT PUSH2 0x5C0 JUMPI INVALID JUMPDEST PUSH2 0x1479 JUMPI PUSH1 0x40 MLOAD PUSH3 0x461BCD PUSH1 0xE5 SHL DUP2 MSTORE PUSH1 0x4 ADD PUSH2 0x49B SWAP1 PUSH2 0x35D9 JUMP JUMPDEST DUP6 MLOAD PUSH1 0x0 SWAP1 DUP7 DUP7 DUP5 DUP2 DUP2 LT PUSH2 0x148A JUMPI INVALID JUMPDEST SWAP1 POP PUSH1 0x40 MUL ADD PUSH1 0x0 ADD CALLDATALOAD DUP2 MLOAD DUP2 LT PUSH2 0x149E JUMPI INVALID JUMPDEST PUSH1 0x20 MUL PUSH1 0x20 ADD ADD MLOAD SWAP1 POP DUP7 PUSH1 0x60 ADD MLOAD ISZERO PUSH2 0x14EC JUMPI PUSH2 0x14BB DUP2 PUSH2 0x1DB5 JUMP JUMPDEST DUP5 DUP4 DUP2 MLOAD DUP2 LT PUSH2 0x14C7 JUMPI INVALID JUMPDEST PUSH1 0x20 MUL PUSH1 0x20 ADD ADD SWAP1 PUSH1 0x1 PUSH1 0x1 PUSH1 0xA0 SHL SUB AND SWAP1 DUP2 PUSH1 0x1 PUSH1 0x1 PUSH1 0xA0 SHL SUB AND DUP2 MSTORE POP POP PUSH2 0x15A7 JUMP JUMPDEST PUSH2 0x14F5 DUP2 PUSH2 0x1DB8 JUMP JUMPDEST PUSH2 0x1582 JUMPI PUSH2 0x1502 DUP2 PUSH2 0x1DB5 JUMP JUMPDEST PUSH1 0x1 PUSH1 0x1 PUSH1 0xA0 SHL SUB AND PUSH4 0x70A08231 DUP10 PUSH1 0x40 MLOAD DUP3 PUSH4 0xFFFFFFFF AND PUSH1 0xE0 SHL DUP2 MSTORE PUSH1 0x4 ADD PUSH2 0x152D SWAP2 SWAP1 PUSH2 0x30FE JUMP JUMPDEST PUSH1 0x20 PUSH1 0x40 MLOAD DUP1 DUP4 SUB DUP2 DUP7 DUP1 EXTCODESIZE ISZERO DUP1 ISZERO PUSH2 0x1545 JUMPI PUSH1 0x0 DUP1 REVERT JUMPDEST POP GAS STATICCALL ISZERO DUP1 ISZERO PUSH2 0x1559 JUMPI RETURNDATASIZE PUSH1 0x0 DUP1 RETURNDATACOPY RETURNDATASIZE PUSH1 0x0 REVERT JUMPDEST POP POP POP POP PUSH1 0x40 MLOAD RETURNDATASIZE PUSH1 0x1F NOT PUSH1 0x1F DUP3 ADD AND DUP3 ADD DUP1 PUSH1 0x40 MSTORE POP DUP2 ADD SWAP1 PUSH2 0x157D SWAP2 SWAP1 PUSH2 0x2E90 JUMP JUMPDEST PUSH2 0x158E JUMP JUMPDEST DUP8 PUSH1 0x1 PUSH1 0x1 PUSH1 0xA0 SHL SUB AND BALANCE JUMPDEST DUP4 DUP4 DUP2 MLOAD DUP2 LT PUSH2 0x159A JUMPI INVALID JUMPDEST PUSH1 0x20 MUL PUSH1 0x20 ADD ADD DUP2 DUP2 MSTORE POP POP JUMPDEST POP PUSH1 0x1 ADD PUSH2 0x1446 JUMP JUMPDEST POP DUP5 PUSH1 0x60 ADD MLOAD ISZERO PUSH2 0x1647 JUMPI PUSH2 0x15C3 PUSH2 0x104C JUMP JUMPDEST PUSH1 0x1 PUSH1 0x1 PUSH1 0xA0 SHL SUB AND PUSH4 0xF5A6EFA DUP8 DUP5 PUSH1 0x40 MLOAD DUP4 PUSH4 0xFFFFFFFF AND PUSH1 0xE0 SHL DUP2 MSTORE PUSH1 0x4 ADD PUSH2 0x15F0 SWAP3 SWAP2 SWAP1 PUSH2 0x3136 JUMP JUMPDEST PUSH1 0x0 PUSH1 0x40 MLOAD DUP1 DUP4 SUB DUP2 DUP7 DUP1 EXTCODESIZE ISZERO DUP1 ISZERO PUSH2 0x1608 JUMPI PUSH1 0x0 DUP1 REVERT JUMPDEST POP GAS STATICCALL ISZERO DUP1 ISZERO PUSH2 0x161C JUMPI RETURNDATASIZE PUSH1 0x0 DUP1 RETURNDATACOPY RETURNDATASIZE PUSH1 0x0 REVERT JUMPDEST POP POP POP POP PUSH1 0x40 MLOAD RETURNDATASIZE PUSH1 0x0 DUP3 RETURNDATACOPY PUSH1 0x1F RETURNDATASIZE SWAP1 DUP2 ADD PUSH1 0x1F NOT AND DUP3 ADD PUSH1 0x40 MSTORE PUSH2 0x1644 SWAP2 SWAP1 DUP2 ADD SWAP1 PUSH2 0x289D JUMP JUMPDEST SWAP1 POP JUMPDEST PUSH2 0x1655 DUP9 DUP7 PUSH1 0x40 ADD MLOAD PUSH2 0x1DC5 JUMP JUMPDEST PUSH1 0x40 DUP7 ADD MSTORE PUSH2 0x1662 PUSH2 0x104C JUMP JUMPDEST PUSH1 0x1 PUSH1 0x1 PUSH1 0xA0 SHL SUB AND PUSH4 0x8BDB3913 DUP11 DUP10 DUP10 DUP10 PUSH1 0x40 MLOAD DUP6 PUSH4 0xFFFFFFFF AND PUSH1 0xE0 SHL DUP2 MSTORE PUSH1 0x4 ADD PUSH2 0x1693 SWAP5 SWAP4 SWAP3 SWAP2 SWAP1 PUSH2 0x33E8 JUMP JUMPDEST PUSH1 0x0 PUSH1 0x40 MLOAD DUP1 DUP4 SUB DUP2 PUSH1 0x0 DUP8 DUP1 EXTCODESIZE ISZERO DUP1 ISZERO PUSH2 0x16AD JUMPI PUSH1 0x0 DUP1 REVERT JUMPDEST POP GAS CALL ISZERO DUP1 ISZERO PUSH2 0x16C1 JUMPI RETURNDATASIZE PUSH1 0x0 DUP1 RETURNDATACOPY RETURNDATASIZE PUSH1 0x0 REVERT JUMPDEST POP PUSH1 0x0 SWAP3 POP DUP6 SWAP2 POP POP PUSH1 0x1 PUSH1 0x1 PUSH1 0x40 SHL SUB DUP2 GT DUP1 ISZERO PUSH2 0x16DF JUMPI PUSH1 0x0 DUP1 REVERT JUMPDEST POP PUSH1 0x40 MLOAD SWAP1 DUP1 DUP3 MSTORE DUP1 PUSH1 0x20 MUL PUSH1 0x20 ADD DUP3 ADD PUSH1 0x40 MSTORE DUP1 ISZERO PUSH2 0x1709 JUMPI DUP2 PUSH1 0x20 ADD PUSH1 0x20 DUP3 MUL DUP1 CALLDATASIZE DUP4 CALLDATACOPY ADD SWAP1 POP JUMPDEST POP SWAP1 POP DUP6 PUSH1 0x60 ADD MLOAD ISZERO PUSH2 0x17A6 JUMPI PUSH2 0x171E PUSH2 0x104C JUMP JUMPDEST PUSH1 0x1 PUSH1 0x1 PUSH1 0xA0 SHL SUB AND PUSH4 0xF5A6EFA DUP9 DUP6 PUSH1 0x40 MLOAD DUP4 PUSH4 0xFFFFFFFF AND PUSH1 0xE0 SHL DUP2 MSTORE PUSH1 0x4 ADD PUSH2 0x174B SWAP3 SWAP2 SWAP1 PUSH2 0x3136 JUMP JUMPDEST PUSH1 0x0 PUSH1 0x40 MLOAD DUP1 DUP4 SUB DUP2 DUP7 DUP1 EXTCODESIZE ISZERO DUP1 ISZERO PUSH2 0x1763 JUMPI PUSH1 0x0 DUP1 REVERT JUMPDEST POP GAS STATICCALL ISZERO DUP1 ISZERO PUSH2 0x1777 JUMPI RETURNDATASIZE PUSH1 0x0 DUP1 RETURNDATACOPY RETURNDATASIZE PUSH1 0x0 REVERT JUMPDEST POP POP POP POP PUSH1 0x40 MLOAD RETURNDATASIZE PUSH1 0x0 DUP3 RETURNDATACOPY PUSH1 0x1F RETURNDATASIZE SWAP1 DUP2 ADD PUSH1 0x1F NOT AND DUP3 ADD PUSH1 0x40 MSTORE PUSH2 0x179F SWAP2 SWAP1 DUP2 ADD SWAP1 PUSH2 0x289D JUMP JUMPDEST SWAP1 POP PUSH2 0x18A4 JUMP JUMPDEST PUSH1 0x0 JUMPDEST DUP5 DUP2 LT ISZERO PUSH2 0x18A2 JUMPI DUP7 MLOAD PUSH1 0x0 SWAP1 DUP8 DUP8 DUP5 DUP2 DUP2 LT PUSH2 0x17C2 JUMPI INVALID JUMPDEST SWAP1 POP PUSH1 0x40 MUL ADD PUSH1 0x0 ADD CALLDATALOAD DUP2 MLOAD DUP2 LT PUSH2 0x17D6 JUMPI INVALID JUMPDEST PUSH1 0x20 MUL PUSH1 0x20 ADD ADD MLOAD SWAP1 POP PUSH2 0x17E9 DUP2 PUSH2 0x1DB8 JUMP JUMPDEST PUSH2 0x1876 JUMPI PUSH2 0x17F6 DUP2 PUSH2 0x1DB5 JUMP JUMPDEST PUSH1 0x1 PUSH1 0x1 PUSH1 0xA0 SHL SUB AND PUSH4 0x70A08231 DUP11 PUSH1 0x40 MLOAD DUP3 PUSH4 0xFFFFFFFF AND PUSH1 0xE0 SHL DUP2 MSTORE PUSH1 0x4 ADD PUSH2 0x1821 SWAP2 SWAP1 PUSH2 0x30FE JUMP JUMPDEST PUSH1 0x20 PUSH1 0x40 MLOAD DUP1 DUP4 SUB DUP2 DUP7 DUP1 EXTCODESIZE ISZERO DUP1 ISZERO PUSH2 0x1839 JUMPI PUSH1 0x0 DUP1 REVERT JUMPDEST POP GAS STATICCALL ISZERO DUP1 ISZERO PUSH2 0x184D JUMPI RETURNDATASIZE PUSH1 0x0 DUP1 RETURNDATACOPY RETURNDATASIZE PUSH1 0x0 REVERT JUMPDEST POP POP POP POP PUSH1 0x40 MLOAD RETURNDATASIZE PUSH1 0x1F NOT PUSH1 0x1F DUP3 ADD AND DUP3 ADD DUP1 PUSH1 0x40 MSTORE POP DUP2 ADD SWAP1 PUSH2 0x1871 SWAP2 SWAP1 PUSH2 0x2E90 JUMP JUMPDEST PUSH2 0x1882 JUMP JUMPDEST DUP9 PUSH1 0x1 PUSH1 0x1 PUSH1 0xA0 SHL SUB AND BALANCE JUMPDEST DUP4 DUP4 DUP2 MLOAD DUP2 LT PUSH2 0x188E JUMPI INVALID JUMPDEST PUSH1 0x20 SWAP1 DUP2 MUL SWAP2 SWAP1 SWAP2 ADD ADD MSTORE POP PUSH1 0x1 ADD PUSH2 0x17A9 JUMP JUMPDEST POP JUMPDEST PUSH1 0x0 JUMPDEST DUP5 DUP2 LT ISZERO PUSH2 0x103F JUMPI PUSH2 0x1901 DUP7 DUP7 DUP4 DUP2 DUP2 LT PUSH2 0x18BE JUMPI INVALID JUMPDEST SWAP1 POP PUSH1 0x40 MUL ADD PUSH1 0x20 ADD CALLDATALOAD PUSH2 0x635 DUP6 DUP5 DUP2 MLOAD DUP2 LT PUSH2 0x18D7 JUMPI INVALID JUMPDEST PUSH1 0x20 MUL PUSH1 0x20 ADD ADD MLOAD DUP6 DUP6 DUP2 MLOAD DUP2 LT PUSH2 0x18EB JUMPI INVALID JUMPDEST PUSH1 0x20 MUL PUSH1 0x20 ADD ADD MLOAD PUSH2 0x1D9F SWAP1 SWAP2 SWAP1 PUSH4 0xFFFFFFFF AND JUMP JUMPDEST PUSH1 0x1 ADD PUSH2 0x18A7 JUMP JUMPDEST PUSH2 0x1912 DUP3 PUSH2 0x1B7F JUMP JUMPDEST ISZERO PUSH2 0x1923 JUMPI PUSH2 0x1920 DUP3 PUSH2 0x1B97 JUMP JUMPDEST SWAP2 POP JUMPDEST PUSH1 0x1 PUSH1 0x1 PUSH1 0xA0 SHL SUB DUP5 AND ADDRESS EQ PUSH2 0x1986 JUMPI PUSH1 0x1 PUSH1 0x1 PUSH1 0xA0 SHL SUB DUP5 AND CALLER EQ PUSH2 0x195B JUMPI PUSH1 0x40 MLOAD PUSH3 0x461BCD PUSH1 0xE5 SHL DUP2 MSTORE PUSH1 0x4 ADD PUSH2 0x49B SWAP1 PUSH2 0x3578 JUMP JUMPDEST PUSH2 0x1986 DUP5 PUSH32 0x0 DUP5 PUSH2 0x1C58 JUMP JUMPDEST PUSH1 0x40 MLOAD PUSH4 0x6F074D1F PUSH1 0xE1 SHL DUP2 MSTORE PUSH1 0x0 SWAP1 PUSH1 0x1 PUSH1 0x1 PUSH1 0xA0 SHL SUB PUSH32 0x0 AND SWAP1 PUSH4 0xDE0E9A3E SWAP1 PUSH2 0x19D5 SWAP1 DUP7 SWAP1 PUSH1 0x4 ADD PUSH2 0x369B JUMP JUMPDEST PUSH1 0x20 PUSH1 0x40 MLOAD DUP1 DUP4 SUB DUP2 PUSH1 0x0 DUP8 DUP1 EXTCODESIZE ISZERO DUP1 ISZERO PUSH2 0x19EF JUMPI PUSH1 0x0 DUP1 REVERT JUMPDEST POP GAS CALL ISZERO DUP1 ISZERO PUSH2 0x1A03 JUMPI RETURNDATASIZE PUSH1 0x0 DUP1 RETURNDATACOPY RETURNDATASIZE PUSH1 0x0 REVERT JUMPDEST POP POP POP POP PUSH1 0x40 MLOAD RETURNDATASIZE PUSH1 0x1F NOT PUSH1 0x1F DUP3 ADD AND DUP3 ADD DUP1 PUSH1 0x40 MSTORE POP DUP2 ADD SWAP1 PUSH2 0x1A27 SWAP2 SWAP1 PUSH2 0x2E90 JUMP JUMPDEST SWAP1 POP PUSH1 0x1 PUSH1 0x1 PUSH1 0xA0 SHL SUB DUP5 AND ADDRESS EQ PUSH2 0x8E6 JUMPI PUSH1 0x40 MLOAD PUSH4 0xA9059CBB PUSH1 0xE0 SHL DUP2 MSTORE PUSH1 0x1 PUSH1 0x1 PUSH1 0xA0 SHL SUB PUSH32 0x0 AND SWAP1 PUSH4 0xA9059CBB SWAP1 PUSH2 0x892 SWAP1 DUP8 SWAP1 DUP6 SWAP1 PUSH1 0x4 ADD PUSH2 0x321C JUMP JUMPDEST PUSH1 0x0 JUMPDEST DUP3 DUP2 LT ISZERO PUSH2 0x1B1B JUMPI CALLER DUP5 DUP5 DUP4 DUP2 DUP2 LT PUSH2 0x1A9F JUMPI INVALID JUMPDEST SWAP1 POP PUSH1 0xA0 MUL ADD PUSH1 0x60 ADD PUSH1 0x20 DUP2 ADD SWAP1 PUSH2 0x1AB7 SWAP2 SWAP1 PUSH2 0x2678 JUMP JUMPDEST PUSH1 0x1 PUSH1 0x1 PUSH1 0xA0 SHL SUB AND EQ DUP1 PUSH2 0x1AF7 JUMPI POP ADDRESS DUP5 DUP5 DUP4 DUP2 DUP2 LT PUSH2 0x1AD4 JUMPI INVALID JUMPDEST SWAP1 POP PUSH1 0xA0 MUL ADD PUSH1 0x60 ADD PUSH1 0x20 DUP2 ADD SWAP1 PUSH2 0x1AEC SWAP2 SWAP1 PUSH2 0x2678 JUMP JUMPDEST PUSH1 0x1 PUSH1 0x1 PUSH1 0xA0 SHL SUB AND EQ JUMPDEST PUSH2 0x1B13 JUMPI PUSH1 0x40 MLOAD PUSH3 0x461BCD PUSH1 0xE5 SHL DUP2 MSTORE PUSH1 0x4 ADD PUSH2 0x49B SWAP1 PUSH2 0x3578 JUMP JUMPDEST PUSH1 0x1 ADD PUSH2 0x1A8A JUMP JUMPDEST POP PUSH2 0x1B24 PUSH2 0x104C JUMP JUMPDEST PUSH1 0x1 PUSH1 0x1 PUSH1 0xA0 SHL SUB AND PUSH4 0xE8E3E84 DUP3 DUP6 DUP6 PUSH1 0x40 MLOAD DUP5 PUSH4 0xFFFFFFFF AND PUSH1 0xE0 SHL DUP2 MSTORE PUSH1 0x4 ADD PUSH2 0x1B52 SWAP3 SWAP2 SWAP1 PUSH2 0x32C8 JUMP JUMPDEST PUSH1 0x0 PUSH1 0x40 MLOAD DUP1 DUP4 SUB DUP2 DUP6 DUP9 DUP1 EXTCODESIZE ISZERO DUP1 ISZERO PUSH2 0x1B6B JUMPI PUSH1 0x0 DUP1 REVERT JUMPDEST POP GAS CALL ISZERO DUP1 ISZERO PUSH2 0xDC0 JUMPI RETURNDATASIZE PUSH1 0x0 DUP1 RETURNDATACOPY RETURNDATASIZE PUSH1 0x0 REVERT JUMPDEST PUSH2 0xBA1 PUSH1 0xF4 SHL PUSH1 0x1 PUSH1 0x1 PUSH1 0xF0 SHL SUB NOT DUP3 AND EQ JUMPDEST SWAP2 SWAP1 POP JUMP JUMPDEST PUSH1 0x0 DUP1 PUSH2 0x1BA3 DUP4 PUSH2 0x1DEC JUMP JUMPDEST DUP1 SLOAD PUSH1 0x0 SWAP1 SWAP2 SSTORE SWAP4 SWAP3 POP POP POP JUMP JUMPDEST PUSH2 0x1BC0 DUP2 SELFBALANCE LT ISZERO PUSH2 0x1A3 PUSH2 0x1E42 JUMP JUMPDEST PUSH1 0x0 DUP3 PUSH1 0x1 PUSH1 0x1 PUSH1 0xA0 SHL SUB AND DUP3 PUSH1 0x40 MLOAD PUSH2 0x1BD9 SWAP1 PUSH2 0x1DB5 JUMP JUMPDEST PUSH1 0x0 PUSH1 0x40 MLOAD DUP1 DUP4 SUB DUP2 DUP6 DUP8 GAS CALL SWAP3 POP POP POP RETURNDATASIZE DUP1 PUSH1 0x0 DUP2 EQ PUSH2 0x1C16 JUMPI PUSH1 0x40 MLOAD SWAP2 POP PUSH1 0x1F NOT PUSH1 0x3F RETURNDATASIZE ADD AND DUP3 ADD PUSH1 0x40 MSTORE RETURNDATASIZE DUP3 MSTORE RETURNDATASIZE PUSH1 0x0 PUSH1 0x20 DUP5 ADD RETURNDATACOPY PUSH2 0x1C1B JUMP JUMPDEST PUSH1 0x60 SWAP2 POP JUMPDEST POP POP SWAP1 POP PUSH2 0x1379 DUP2 PUSH2 0x1A4 PUSH2 0x1E42 JUMP JUMPDEST PUSH1 0x0 PUSH2 0x1C36 DUP4 PUSH2 0x1DEC JUMP JUMPDEST SWAP2 SWAP1 SWAP2 SSTORE POP POP JUMP JUMPDEST PUSH1 0x0 DUP1 DUP3 SGT PUSH2 0x1C50 JUMPI DUP2 PUSH1 0x0 SUB PUSH2 0x1C52 JUMP JUMPDEST DUP2 JUMPDEST SWAP3 SWAP2 POP POP JUMP JUMPDEST DUP1 PUSH2 0x1C62 JUMPI PUSH2 0x1379 JUMP JUMPDEST PUSH1 0x40 DUP1 MLOAD PUSH1 0x1 DUP1 DUP3 MSTORE DUP2 DUP4 ADD SWAP1 SWAP3 MSTORE PUSH1 0x0 SWAP2 PUSH1 0x20 DUP1 DUP4 ADD SWAP1 DUP1 CALLDATASIZE DUP4 CALLDATACOPY ADD SWAP1 POP POP SWAP1 POP DUP3 DUP2 PUSH1 0x0 DUP2 MLOAD DUP2 LT PUSH2 0x1C92 JUMPI INVALID JUMPDEST PUSH1 0x1 PUSH1 0x1 PUSH1 0xA0 SHL SUB SWAP3 SWAP1 SWAP3 AND PUSH1 0x20 SWAP3 DUP4 MUL SWAP2 SWAP1 SWAP2 ADD SWAP1 SWAP2 ADD MSTORE PUSH1 0x40 DUP1 MLOAD PUSH1 0x1 DUP1 DUP3 MSTORE DUP2 DUP4 ADD SWAP1 SWAP3 MSTORE PUSH1 0x0 SWAP2 DUP2 PUSH1 0x20 ADD PUSH1 0x20 DUP3 MUL DUP1 CALLDATASIZE DUP4 CALLDATACOPY ADD SWAP1 POP POP SWAP1 POP DUP3 DUP2 PUSH1 0x0 DUP2 MLOAD DUP2 LT PUSH2 0x1CDD JUMPI INVALID JUMPDEST PUSH1 0x20 MUL PUSH1 0x20 ADD ADD DUP2 DUP2 MSTORE POP POP PUSH2 0x8FE DUP6 DUP4 DUP4 PUSH2 0x1E54 JUMP JUMPDEST PUSH1 0x60 PUSH1 0x0 DUP1 DUP5 PUSH1 0x1 PUSH1 0x1 PUSH1 0xA0 SHL SUB AND DUP5 PUSH1 0x40 MLOAD PUSH2 0x1D11 SWAP2 SWAP1 PUSH2 0x30AF JUMP JUMPDEST PUSH1 0x0 PUSH1 0x40 MLOAD DUP1 DUP4 SUB DUP2 PUSH1 0x0 DUP7 GAS CALL SWAP2 POP POP RETURNDATASIZE DUP1 PUSH1 0x0 DUP2 EQ PUSH2 0x1D4E JUMPI PUSH1 0x40 MLOAD SWAP2 POP PUSH1 0x1F NOT PUSH1 0x3F RETURNDATASIZE ADD AND DUP3 ADD PUSH1 0x40 MSTORE RETURNDATASIZE DUP3 MSTORE RETURNDATASIZE PUSH1 0x0 PUSH1 0x20 DUP5 ADD RETURNDATACOPY PUSH2 0x1D53 JUMP JUMPDEST PUSH1 0x60 SWAP2 POP JUMPDEST POP SWAP2 POP SWAP2 POP PUSH2 0x1D62 DUP3 DUP3 PUSH2 0x1F8D JUMP JUMPDEST SWAP6 SWAP5 POP POP POP POP POP JUMP JUMPDEST PUSH1 0x60 SHR SWAP1 JUMP JUMPDEST PUSH1 0x60 PUSH1 0x0 DUP4 DUP1 ISZERO PUSH2 0x1D7E JUMPI INVALID JUMPDEST EQ ISZERO PUSH2 0x1D94 JUMPI PUSH2 0x1D8D DUP3 PUSH2 0x1FB7 JUMP JUMPDEST SWAP1 POP PUSH2 0x1C52 JUMP JUMPDEST PUSH2 0x1C52 PUSH2 0x136 PUSH2 0x1FF4 JUMP JUMPDEST PUSH1 0x0 PUSH2 0x1DAF DUP4 DUP4 GT ISZERO PUSH1 0x1 PUSH2 0x1E42 JUMP JUMPDEST POP SWAP1 SUB SWAP1 JUMP JUMPDEST SWAP1 JUMP JUMPDEST PUSH1 0x1 PUSH1 0x1 PUSH1 0xA0 SHL SUB AND ISZERO SWAP1 JUMP JUMPDEST PUSH1 0x60 PUSH1 0x0 DUP4 DUP1 ISZERO PUSH2 0x1DD2 JUMPI INVALID JUMPDEST EQ ISZERO PUSH2 0x1DE1 JUMPI PUSH2 0x1D8D DUP3 PUSH2 0x2047 JUMP JUMPDEST PUSH2 0x1C52 PUSH2 0x150 PUSH2 0x1FF4 JUMP JUMPDEST PUSH1 0x0 PUSH1 0x1 DUP3 PUSH32 0x0 PUSH1 0x40 MLOAD PUSH1 0x20 ADD PUSH2 0x1E23 SWAP3 SWAP2 SWAP1 PUSH2 0x30F0 JUMP JUMPDEST PUSH1 0x40 DUP1 MLOAD DUP1 DUP4 SUB PUSH1 0x1F NOT ADD DUP2 MSTORE SWAP2 SWAP1 MSTORE DUP1 MLOAD PUSH1 0x20 SWAP1 SWAP2 ADD KECCAK256 SUB SWAP3 SWAP2 POP POP JUMP JUMPDEST DUP2 PUSH2 0x1E50 JUMPI PUSH2 0x1E50 DUP2 PUSH2 0x1FF4 JUMP JUMPDEST POP POP JUMP JUMPDEST PUSH1 0x0 DUP3 MLOAD PUSH1 0x1 PUSH1 0x1 PUSH1 0x40 SHL SUB DUP2 GT DUP1 ISZERO PUSH2 0x1E6D JUMPI PUSH1 0x0 DUP1 REVERT JUMPDEST POP PUSH1 0x40 MLOAD SWAP1 DUP1 DUP3 MSTORE DUP1 PUSH1 0x20 MUL PUSH1 0x20 ADD DUP3 ADD PUSH1 0x40 MSTORE DUP1 ISZERO PUSH2 0x1EA7 JUMPI DUP2 PUSH1 0x20 ADD JUMPDEST PUSH2 0x1E94 PUSH2 0x2261 JUMP JUMPDEST DUP2 MSTORE PUSH1 0x20 ADD SWAP1 PUSH1 0x1 SWAP1 SUB SWAP1 DUP2 PUSH2 0x1E8C JUMPI SWAP1 POP JUMPDEST POP SWAP1 POP PUSH1 0x0 JUMPDEST DUP4 MLOAD DUP2 LT ISZERO PUSH2 0x1F3F JUMPI PUSH1 0x40 DUP1 MLOAD PUSH1 0xA0 DUP2 ADD SWAP1 SWAP2 MSTORE DUP1 PUSH1 0x3 DUP2 MSTORE PUSH1 0x20 ADD DUP6 DUP4 DUP2 MLOAD DUP2 LT PUSH2 0x1ED5 JUMPI INVALID JUMPDEST PUSH1 0x20 MUL PUSH1 0x20 ADD ADD MLOAD PUSH1 0x1 PUSH1 0x1 PUSH1 0xA0 SHL SUB AND DUP2 MSTORE PUSH1 0x20 ADD DUP5 DUP4 DUP2 MLOAD DUP2 LT PUSH2 0x1EF7 JUMPI INVALID JUMPDEST PUSH1 0x20 MUL PUSH1 0x20 ADD ADD MLOAD DUP2 MSTORE PUSH1 0x20 ADD DUP7 PUSH1 0x1 PUSH1 0x1 PUSH1 0xA0 SHL SUB AND DUP2 MSTORE PUSH1 0x20 ADD ADDRESS PUSH1 0x1 PUSH1 0x1 PUSH1 0xA0 SHL SUB AND DUP2 MSTORE POP DUP3 DUP3 DUP2 MLOAD DUP2 LT PUSH2 0x1F2C JUMPI INVALID JUMPDEST PUSH1 0x20 SWAP1 DUP2 MUL SWAP2 SWAP1 SWAP2 ADD ADD MSTORE PUSH1 0x1 ADD PUSH2 0x1EAD JUMP JUMPDEST POP PUSH2 0x1F48 PUSH2 0x104C JUMP JUMPDEST PUSH1 0x1 PUSH1 0x1 PUSH1 0xA0 SHL SUB AND PUSH4 0xE8E3E84 DUP3 PUSH1 0x40 MLOAD DUP3 PUSH4 0xFFFFFFFF AND PUSH1 0xE0 SHL DUP2 MSTORE PUSH1 0x4 ADD PUSH2 0x1F73 SWAP2 SWAP1 PUSH2 0x3363 JUMP JUMPDEST PUSH1 0x0 PUSH1 0x40 MLOAD DUP1 DUP4 SUB DUP2 PUSH1 0x0 DUP8 DUP1 EXTCODESIZE ISZERO DUP1 ISZERO PUSH2 0x1B6B JUMPI PUSH1 0x0 DUP1 REVERT JUMPDEST PUSH1 0x60 DUP3 ISZERO PUSH2 0x1F9C JUMPI POP DUP1 PUSH2 0x1C52 JUMP JUMPDEST DUP2 MLOAD ISZERO PUSH2 0x1FAC JUMPI DUP2 MLOAD DUP1 DUP4 PUSH1 0x20 ADD REVERT JUMPDEST PUSH2 0x1C52 PUSH2 0x1AE PUSH2 0x1FF4 JUMP JUMPDEST PUSH1 0x60 PUSH1 0x0 PUSH2 0x1FC4 DUP4 PUSH2 0x2090 JUMP JUMPDEST SWAP1 POP PUSH1 0x1 DUP2 PUSH1 0x3 DUP2 GT ISZERO PUSH2 0x1FD4 JUMPI INVALID JUMPDEST EQ ISZERO PUSH2 0x1FEB JUMPI PUSH2 0x1FE3 DUP4 PUSH2 0x20A6 JUMP JUMPDEST SWAP2 POP POP PUSH2 0x1B92 JUMP JUMPDEST DUP3 SWAP2 POP POP PUSH2 0x1B92 JUMP JUMPDEST PUSH3 0x461BCD PUSH1 0xE5 SHL PUSH1 0x0 SWAP1 DUP2 MSTORE PUSH1 0x20 PUSH1 0x4 MSTORE PUSH1 0x7 PUSH1 0x24 MSTORE PUSH7 0x42414C23000030 PUSH1 0xA DUP1 DUP5 DIV DUP2 DUP2 MOD PUSH1 0x30 SWAP1 DUP2 ADD PUSH1 0x8 SHL SWAP6 DUP4 SWAP1 MOD SWAP6 SWAP1 SWAP6 ADD SWAP1 DUP3 SWAP1 DIV SWAP2 DUP3 MOD SWAP1 SWAP5 ADD PUSH1 0x10 SHL SWAP4 SWAP1 SWAP4 ADD ADD PUSH1 0xC8 SHL PUSH1 0x44 MSTORE PUSH1 0x64 SWAP1 REVERT JUMPDEST PUSH1 0x60 PUSH1 0x0 PUSH2 0x2054 DUP4 PUSH2 0x2090 JUMP JUMPDEST SWAP1 POP PUSH1 0x0 DUP2 PUSH1 0x3 DUP2 GT ISZERO PUSH2 0x2064 JUMPI INVALID JUMPDEST EQ ISZERO PUSH2 0x2073 JUMPI PUSH2 0x1FE3 DUP4 PUSH2 0x2154 JUMP JUMPDEST PUSH1 0x1 DUP2 PUSH1 0x3 DUP2 GT ISZERO PUSH2 0x2081 JUMPI INVALID JUMPDEST EQ ISZERO PUSH2 0x1FEB JUMPI PUSH2 0x1FE3 DUP4 PUSH2 0x21B7 JUMP JUMPDEST PUSH1 0x0 DUP2 DUP1 PUSH1 0x20 ADD SWAP1 MLOAD DUP2 ADD SWAP1 PUSH2 0x1C52 SWAP2 SWAP1 PUSH2 0x2BC9 JUMP JUMPDEST PUSH1 0x60 PUSH1 0x0 DUP1 PUSH2 0x20B4 DUP5 PUSH2 0x220A JUMP JUMPDEST SWAP2 POP SWAP2 POP PUSH1 0x0 DUP1 JUMPDEST DUP4 MLOAD DUP2 LT ISZERO PUSH2 0x211A JUMPI PUSH1 0x0 DUP5 DUP3 DUP2 MLOAD DUP2 LT PUSH2 0x20D3 JUMPI INVALID JUMPDEST PUSH1 0x20 MUL PUSH1 0x20 ADD ADD MLOAD SWAP1 POP PUSH2 0x20E6 DUP2 PUSH2 0x1B7F JUMP JUMPDEST ISZERO PUSH2 0x2111 JUMPI PUSH2 0x20F4 DUP2 PUSH2 0x1B97 JUMP JUMPDEST DUP6 DUP4 DUP2 MLOAD DUP2 LT PUSH2 0x2100 JUMPI INVALID JUMPDEST PUSH1 0x20 MUL PUSH1 0x20 ADD ADD DUP2 DUP2 MSTORE POP POP PUSH1 0x1 SWAP3 POP JUMPDEST POP PUSH1 0x1 ADD PUSH2 0x20BC JUMP JUMPDEST POP DUP1 PUSH2 0x2126 JUMPI DUP5 PUSH2 0x1D62 JUMP JUMPDEST PUSH1 0x1 DUP4 DUP4 PUSH1 0x40 MLOAD PUSH1 0x20 ADD PUSH2 0x213C SWAP4 SWAP3 SWAP2 SWAP1 PUSH2 0x345C JUMP JUMPDEST PUSH1 0x40 MLOAD PUSH1 0x20 DUP2 DUP4 SUB SUB DUP2 MSTORE SWAP1 PUSH1 0x40 MSTORE SWAP6 SWAP5 POP POP POP POP POP JUMP JUMPDEST PUSH1 0x60 PUSH1 0x0 DUP1 PUSH2 0x2162 DUP5 PUSH2 0x222D JUMP JUMPDEST SWAP2 POP SWAP2 POP PUSH2 0x216F DUP3 PUSH2 0x1B7F JUMP JUMPDEST ISZERO PUSH2 0x21AD JUMPI PUSH2 0x217D DUP3 PUSH2 0x1B97 JUMP JUMPDEST SWAP2 POP PUSH1 0x0 DUP3 DUP3 PUSH1 0x40 MLOAD PUSH1 0x20 ADD PUSH2 0x2195 SWAP4 SWAP3 SWAP2 SWAP1 PUSH2 0x343B JUMP JUMPDEST PUSH1 0x40 MLOAD PUSH1 0x20 DUP2 DUP4 SUB SUB DUP2 MSTORE SWAP1 PUSH1 0x40 MSTORE SWAP3 POP POP POP PUSH2 0x1B92 JUMP JUMPDEST DUP4 SWAP3 POP POP POP PUSH2 0x1B92 JUMP JUMPDEST PUSH1 0x60 PUSH1 0x0 PUSH2 0x21C4 DUP4 PUSH2 0x2244 JUMP JUMPDEST SWAP1 POP PUSH2 0x21CF DUP2 PUSH2 0x1B7F JUMP JUMPDEST ISZERO PUSH2 0x1FEB JUMPI PUSH2 0x21DD DUP2 PUSH2 0x1B97 JUMP JUMPDEST SWAP1 POP PUSH1 0x1 DUP2 PUSH1 0x40 MLOAD PUSH1 0x20 ADD PUSH2 0x21F3 SWAP3 SWAP2 SWAP1 PUSH2 0x3424 JUMP JUMPDEST PUSH1 0x40 MLOAD PUSH1 0x20 DUP2 DUP4 SUB SUB DUP2 MSTORE SWAP1 PUSH1 0x40 MSTORE SWAP2 POP POP PUSH2 0x1B92 JUMP JUMPDEST PUSH1 0x60 PUSH1 0x0 DUP3 DUP1 PUSH1 0x20 ADD SWAP1 MLOAD DUP2 ADD SWAP1 PUSH2 0x2222 SWAP2 SWAP1 PUSH2 0x2C48 JUMP JUMPDEST SWAP1 SWAP6 SWAP1 SWAP5 POP SWAP3 POP POP POP JUMP JUMPDEST PUSH1 0x0 DUP1 DUP3 DUP1 PUSH1 0x20 ADD SWAP1 MLOAD DUP2 ADD SWAP1 PUSH2 0x2222 SWAP2 SWAP1 PUSH2 0x2C12 JUMP JUMPDEST PUSH1 0x0 DUP2 DUP1 PUSH1 0x20 ADD SWAP1 MLOAD DUP2 ADD SWAP1 PUSH2 0x225A SWAP2 SWAP1 PUSH2 0x2BE5 JUMP JUMPDEST SWAP4 SWAP3 POP POP POP JUMP JUMPDEST PUSH1 0x40 DUP1 MLOAD PUSH1 0xA0 DUP2 ADD SWAP1 SWAP2 MSTORE DUP1 PUSH1 0x0 DUP2 MSTORE PUSH1 0x0 PUSH1 0x20 DUP3 ADD DUP2 SWAP1 MSTORE PUSH1 0x40 DUP3 ADD DUP2 SWAP1 MSTORE PUSH1 0x60 DUP3 ADD DUP2 SWAP1 MSTORE PUSH1 0x80 SWAP1 SWAP2 ADD MSTORE SWAP1 JUMP JUMPDEST DUP1 CALLDATALOAD PUSH2 0x1B92 DUP2 PUSH2 0x371D JUMP JUMPDEST PUSH1 0x0 DUP1 DUP4 PUSH1 0x1F DUP5 ADD SLT PUSH2 0x22AD JUMPI DUP2 DUP3 REVERT JUMPDEST POP DUP2 CALLDATALOAD PUSH1 0x1 PUSH1 0x1 PUSH1 0x40 SHL SUB DUP2 GT ISZERO PUSH2 0x22C3 JUMPI DUP2 DUP3 REVERT JUMPDEST PUSH1 0x20 DUP4 ADD SWAP2 POP DUP4 PUSH1 0x20 DUP1 DUP4 MUL DUP6 ADD ADD GT ISZERO PUSH2 0x22DD JUMPI PUSH1 0x0 DUP1 REVERT JUMPDEST SWAP3 POP SWAP3 SWAP1 POP JUMP JUMPDEST PUSH1 0x0 DUP3 PUSH1 0x1F DUP4 ADD SLT PUSH2 0x22F4 JUMPI DUP1 DUP2 REVERT JUMPDEST DUP2 CALLDATALOAD PUSH1 0x20 PUSH2 0x2309 PUSH2 0x2304 DUP4 PUSH2 0x36C7 JUMP JUMPDEST PUSH2 0x36A4 JUMP JUMPDEST DUP3 DUP2 MSTORE DUP2 DUP2 ADD SWAP1 DUP6 DUP4 ADD DUP4 DUP6 MUL DUP8 ADD DUP5 ADD DUP9 LT ISZERO PUSH2 0x2325 JUMPI DUP6 DUP7 REVERT JUMPDEST DUP6 JUMPDEST DUP6 DUP2 LT ISZERO PUSH2 0x234C JUMPI DUP2 CALLDATALOAD PUSH2 0x233A DUP2 PUSH2 0x371D JUMP JUMPDEST DUP5 MSTORE SWAP3 DUP5 ADD SWAP3 SWAP1 DUP5 ADD SWAP1 PUSH1 0x1 ADD PUSH2 0x2327 JUMP JUMPDEST POP SWAP1 SWAP8 SWAP7 POP POP POP POP POP POP POP JUMP JUMPDEST PUSH1 0x0 DUP3 PUSH1 0x1F DUP4 ADD SLT PUSH2 0x2369 JUMPI DUP1 DUP2 REVERT JUMPDEST DUP2 CALLDATALOAD PUSH1 0x20 PUSH2 0x2379 PUSH2 0x2304 DUP4 PUSH2 0x36C7 JUMP JUMPDEST DUP3 DUP2 MSTORE DUP2 DUP2 ADD SWAP1 DUP6 DUP4 ADD DUP6 JUMPDEST DUP6 DUP2 LT ISZERO PUSH2 0x234C JUMPI DUP2 CALLDATALOAD DUP9 ADD PUSH1 0xA0 DUP1 PUSH1 0x1F NOT DUP4 DUP14 SUB ADD SLT ISZERO PUSH2 0x23A5 JUMPI DUP9 DUP10 REVERT JUMPDEST PUSH1 0x40 DUP1 MLOAD DUP3 DUP2 ADD PUSH1 0x1 PUSH1 0x1 PUSH1 0x40 SHL SUB DUP3 DUP3 LT DUP2 DUP4 GT OR ISZERO PUSH2 0x23C2 JUMPI INVALID JUMPDEST DUP2 DUP5 MSTORE DUP11 DUP7 ADD CALLDATALOAD DUP4 MSTORE DUP4 DUP7 ADD CALLDATALOAD DUP12 DUP5 ADD MSTORE PUSH1 0x60 SWAP2 POP DUP2 DUP7 ADD CALLDATALOAD DUP5 DUP5 ADD MSTORE PUSH1 0x80 SWAP4 POP DUP4 DUP7 ADD CALLDATALOAD DUP3 DUP5 ADD MSTORE DUP5 DUP7 ADD CALLDATALOAD SWAP5 POP DUP1 DUP6 GT ISZERO PUSH2 0x23FD JUMPI DUP13 DUP14 REVERT JUMPDEST POP POP PUSH2 0x240D DUP14 DUP11 DUP6 DUP8 ADD ADD PUSH2 0x2529 JUMP JUMPDEST SWAP2 DUP2 ADD SWAP2 SWAP1 SWAP2 MSTORE DUP7 MSTORE POP POP SWAP3 DUP5 ADD SWAP3 SWAP1 DUP5 ADD SWAP1 PUSH1 0x1 ADD PUSH2 0x2385 JUMP JUMPDEST PUSH1 0x0 DUP1 DUP4 PUSH1 0x1F DUP5 ADD SLT PUSH2 0x2439 JUMPI DUP2 DUP3 REVERT JUMPDEST POP DUP2 CALLDATALOAD PUSH1 0x1 PUSH1 0x1 PUSH1 0x40 SHL SUB DUP2 GT ISZERO PUSH2 0x244F JUMPI DUP2 DUP3 REVERT JUMPDEST PUSH1 0x20 DUP4 ADD SWAP2 POP DUP4 PUSH1 0x20 PUSH1 0x40 DUP4 MUL DUP6 ADD ADD GT ISZERO PUSH2 0x22DD JUMPI PUSH1 0x0 DUP1 REVERT JUMPDEST PUSH1 0x0 DUP3 PUSH1 0x1F DUP4 ADD SLT PUSH2 0x247A JUMPI DUP1 DUP2 REVERT JUMPDEST DUP2 CALLDATALOAD PUSH1 0x20 PUSH2 0x248A PUSH2 0x2304 DUP4 PUSH2 0x36C7 JUMP JUMPDEST DUP3 DUP2 MSTORE DUP2 DUP2 ADD SWAP1 DUP6 DUP4 ADD DUP4 DUP6 MUL DUP8 ADD DUP5 ADD DUP9 LT ISZERO PUSH2 0x24A6 JUMPI DUP6 DUP7 REVERT JUMPDEST DUP6 JUMPDEST DUP6 DUP2 LT ISZERO PUSH2 0x234C JUMPI DUP2 CALLDATALOAD DUP5 MSTORE SWAP3 DUP5 ADD SWAP3 SWAP1 DUP5 ADD SWAP1 PUSH1 0x1 ADD PUSH2 0x24A8 JUMP JUMPDEST PUSH1 0x0 DUP3 PUSH1 0x1F DUP4 ADD SLT PUSH2 0x24D4 JUMPI DUP1 DUP2 REVERT JUMPDEST DUP2 MLOAD PUSH1 0x20 PUSH2 0x24E4 PUSH2 0x2304 DUP4 PUSH2 0x36C7 JUMP JUMPDEST DUP3 DUP2 MSTORE DUP2 DUP2 ADD SWAP1 DUP6 DUP4 ADD DUP4 DUP6 MUL DUP8 ADD DUP5 ADD DUP9 LT ISZERO PUSH2 0x2500 JUMPI DUP6 DUP7 REVERT JUMPDEST DUP6 JUMPDEST DUP6 DUP2 LT ISZERO PUSH2 0x234C JUMPI DUP2 MLOAD DUP5 MSTORE SWAP3 DUP5 ADD SWAP3 SWAP1 DUP5 ADD SWAP1 PUSH1 0x1 ADD PUSH2 0x2502 JUMP JUMPDEST DUP1 CALLDATALOAD PUSH2 0x1B92 DUP2 PUSH2 0x3732 JUMP JUMPDEST PUSH1 0x0 DUP3 PUSH1 0x1F DUP4 ADD SLT PUSH2 0x2539 JUMPI DUP1 DUP2 REVERT JUMPDEST DUP2 CALLDATALOAD PUSH1 0x1 PUSH1 0x1 PUSH1 0x40 SHL SUB DUP2 GT ISZERO PUSH2 0x254C JUMPI INVALID JUMPDEST PUSH2 0x255F PUSH1 0x1F DUP3 ADD PUSH1 0x1F NOT AND PUSH1 0x20 ADD PUSH2 0x36A4 JUMP JUMPDEST DUP2 DUP2 MSTORE DUP5 PUSH1 0x20 DUP4 DUP7 ADD ADD GT ISZERO PUSH2 0x2573 JUMPI DUP3 DUP4 REVERT JUMPDEST DUP2 PUSH1 0x20 DUP6 ADD PUSH1 0x20 DUP4 ADD CALLDATACOPY SWAP1 DUP2 ADD PUSH1 0x20 ADD SWAP2 SWAP1 SWAP2 MSTORE SWAP3 SWAP2 POP POP JUMP JUMPDEST DUP1 CALLDATALOAD PUSH1 0x1 DUP2 LT PUSH2 0x1B92 JUMPI PUSH1 0x0 DUP1 REVERT JUMPDEST DUP1 CALLDATALOAD PUSH1 0x2 DUP2 LT PUSH2 0x1B92 JUMPI PUSH1 0x0 DUP1 REVERT JUMPDEST PUSH1 0x0 PUSH1 0x80 DUP3 DUP5 SUB SLT ISZERO PUSH2 0x25BC JUMPI DUP1 DUP2 REVERT JUMPDEST PUSH2 0x25C6 PUSH1 0x80 PUSH2 0x36A4 JUMP JUMPDEST SWAP1 POP DUP2 CALLDATALOAD PUSH1 0x1 PUSH1 0x1 PUSH1 0x40 SHL SUB DUP1 DUP3 GT ISZERO PUSH2 0x25DF JUMPI PUSH1 0x0 DUP1 REVERT JUMPDEST PUSH2 0x25EB DUP6 DUP4 DUP7 ADD PUSH2 0x22E4 JUMP JUMPDEST DUP4 MSTORE PUSH1 0x20 DUP5 ADD CALLDATALOAD SWAP2 POP DUP1 DUP3 GT ISZERO PUSH2 0x2601 JUMPI PUSH1 0x0 DUP1 REVERT JUMPDEST PUSH2 0x260D DUP6 DUP4 DUP7 ADD PUSH2 0x246A JUMP JUMPDEST PUSH1 0x20 DUP5 ADD MSTORE PUSH1 0x40 DUP5 ADD CALLDATALOAD SWAP2 POP DUP1 DUP3 GT ISZERO PUSH2 0x2626 JUMPI PUSH1 0x0 DUP1 REVERT JUMPDEST POP PUSH2 0x2633 DUP5 DUP3 DUP6 ADD PUSH2 0x2529 JUMP JUMPDEST PUSH1 0x40 DUP4 ADD MSTORE POP PUSH2 0x2645 PUSH1 0x60 DUP4 ADD PUSH2 0x251E JUMP JUMPDEST PUSH1 0x60 DUP3 ADD MSTORE SWAP3 SWAP2 POP POP JUMP JUMPDEST PUSH1 0x0 PUSH1 0x80 DUP3 DUP5 SUB SLT ISZERO PUSH2 0x2661 JUMPI DUP1 DUP2 REVERT JUMPDEST POP SWAP2 SWAP1 POP JUMP JUMPDEST DUP1 CALLDATALOAD PUSH1 0xFF DUP2 AND DUP2 EQ PUSH2 0x1B92 JUMPI PUSH1 0x0 DUP1 REVERT JUMPDEST PUSH1 0x0 PUSH1 0x20 DUP3 DUP5 SUB SLT ISZERO PUSH2 0x2689 JUMPI DUP1 DUP2 REVERT JUMPDEST DUP2 CALLDATALOAD PUSH2 0x225A DUP2 PUSH2 0x371D JUMP JUMPDEST PUSH1 0x0 DUP1 PUSH1 0x0 DUP1 PUSH1 0x80 DUP6 DUP8 SUB SLT ISZERO PUSH2 0x26A9 JUMPI DUP3 DUP4 REVERT JUMPDEST DUP5 CALLDATALOAD PUSH2 0x26B4 DUP2 PUSH2 0x371D JUMP JUMPDEST SWAP4 POP PUSH1 0x20 DUP6 ADD CALLDATALOAD PUSH2 0x26C4 DUP2 PUSH2 0x371D JUMP JUMPDEST SWAP4 SWAP7 SWAP4 SWAP6 POP POP POP POP PUSH1 0x40 DUP3 ADD CALLDATALOAD SWAP2 PUSH1 0x60 ADD CALLDATALOAD SWAP1 JUMP JUMPDEST PUSH1 0x0 DUP1 PUSH1 0x0 DUP1 PUSH1 0x60 DUP6 DUP8 SUB SLT ISZERO PUSH2 0x26EE JUMPI DUP2 DUP3 REVERT JUMPDEST DUP5 CALLDATALOAD PUSH2 0x26F9 DUP2 PUSH2 0x371D JUMP JUMPDEST SWAP4 POP PUSH1 0x20 DUP6 ADD CALLDATALOAD PUSH2 0x2709 DUP2 PUSH2 0x3732 JUMP JUMPDEST SWAP3 POP PUSH1 0x40 DUP6 ADD CALLDATALOAD PUSH1 0x1 PUSH1 0x1 PUSH1 0x40 SHL SUB DUP1 DUP3 GT ISZERO PUSH2 0x2724 JUMPI DUP4 DUP5 REVERT JUMPDEST DUP2 DUP8 ADD SWAP2 POP DUP8 PUSH1 0x1F DUP4 ADD SLT PUSH2 0x2737 JUMPI DUP4 DUP5 REVERT JUMPDEST DUP2 CALLDATALOAD DUP2 DUP2 GT ISZERO PUSH2 0x2745 JUMPI DUP5 DUP6 REVERT JUMPDEST DUP9 PUSH1 0x20 DUP3 DUP6 ADD ADD GT ISZERO PUSH2 0x2756 JUMPI DUP5 DUP6 REVERT JUMPDEST SWAP6 SWAP9 SWAP5 SWAP8 POP POP PUSH1 0x20 ADD SWAP5 POP POP POP JUMP JUMPDEST PUSH1 0x0 DUP1 PUSH1 0x0 PUSH1 0x60 DUP5 DUP7 SUB SLT ISZERO PUSH2 0x2779 JUMPI DUP1 DUP2 REVERT JUMPDEST DUP4 CALLDATALOAD PUSH2 0x2784 DUP2 PUSH2 0x371D JUMP JUMPDEST SWAP6 PUSH1 0x20 DUP6 ADD CALLDATALOAD SWAP6 POP PUSH1 0x40 SWAP1 SWAP5 ADD CALLDATALOAD SWAP4 SWAP3 POP POP POP JUMP JUMPDEST PUSH1 0x0 PUSH1 0x20 DUP1 DUP4 DUP6 SUB SLT ISZERO PUSH2 0x27AB JUMPI DUP2 DUP3 REVERT JUMPDEST DUP3 MLOAD PUSH1 0x1 PUSH1 0x1 PUSH1 0x40 SHL SUB DUP2 GT ISZERO PUSH2 0x27C0 JUMPI DUP3 DUP4 REVERT JUMPDEST DUP4 ADD PUSH1 0x1F DUP2 ADD DUP6 SGT PUSH2 0x27D0 JUMPI DUP3 DUP4 REVERT JUMPDEST DUP1 MLOAD PUSH2 0x27DE PUSH2 0x2304 DUP3 PUSH2 0x36C7 JUMP JUMPDEST DUP2 DUP2 MSTORE DUP4 DUP2 ADD SWAP1 DUP4 DUP6 ADD DUP6 DUP5 MUL DUP6 ADD DUP7 ADD DUP10 LT ISZERO PUSH2 0x27FA JUMPI DUP7 DUP8 REVERT JUMPDEST DUP7 SWAP5 POP JUMPDEST DUP4 DUP6 LT ISZERO PUSH2 0x281C JUMPI DUP1 MLOAD DUP4 MSTORE PUSH1 0x1 SWAP5 SWAP1 SWAP5 ADD SWAP4 SWAP2 DUP6 ADD SWAP2 DUP6 ADD PUSH2 0x27FE JUMP JUMPDEST POP SWAP8 SWAP7 POP POP POP POP POP POP POP JUMP JUMPDEST PUSH1 0x0 DUP1 PUSH1 0x0 PUSH1 0x40 DUP5 DUP7 SUB SLT ISZERO PUSH2 0x283C JUMPI DUP1 DUP2 REVERT JUMPDEST DUP4 CALLDATALOAD PUSH1 0x1 PUSH1 0x1 PUSH1 0x40 SHL SUB DUP1 DUP3 GT ISZERO PUSH2 0x2852 JUMPI DUP3 DUP4 REVERT JUMPDEST DUP2 DUP7 ADD SWAP2 POP DUP7 PUSH1 0x1F DUP4 ADD SLT PUSH2 0x2865 JUMPI DUP3 DUP4 REVERT JUMPDEST DUP2 CALLDATALOAD DUP2 DUP2 GT ISZERO PUSH2 0x2873 JUMPI DUP4 DUP5 REVERT JUMPDEST DUP8 PUSH1 0x20 PUSH1 0xA0 DUP4 MUL DUP6 ADD ADD GT ISZERO PUSH2 0x2887 JUMPI DUP4 DUP5 REVERT JUMPDEST PUSH1 0x20 SWAP3 DUP4 ADD SWAP9 SWAP1 SWAP8 POP SWAP6 SWAP1 SWAP2 ADD CALLDATALOAD SWAP5 SWAP4 POP POP POP POP JUMP JUMPDEST PUSH1 0x0 PUSH1 0x20 DUP3 DUP5 SUB SLT ISZERO PUSH2 0x28AE JUMPI DUP1 DUP2 REVERT JUMPDEST DUP2 MLOAD PUSH1 0x1 PUSH1 0x1 PUSH1 0x40 SHL SUB DUP2 GT ISZERO PUSH2 0x28C3 JUMPI DUP2 DUP3 REVERT JUMPDEST PUSH2 0x28CF DUP5 DUP3 DUP6 ADD PUSH2 0x24C4 JUMP JUMPDEST SWAP5 SWAP4 POP POP POP POP JUMP JUMPDEST PUSH1 0x0 PUSH1 0x20 DUP3 DUP5 SUB SLT ISZERO PUSH2 0x28E8 JUMPI DUP1 DUP2 REVERT JUMPDEST DUP2 MLOAD PUSH2 0x225A DUP2 PUSH2 0x3732 JUMP JUMPDEST PUSH1 0x0 DUP1 PUSH1 0x0 DUP1 PUSH1 0x0 DUP1 PUSH1 0x0 PUSH1 0xC0 DUP9 DUP11 SUB SLT ISZERO PUSH2 0x290D JUMPI DUP5 DUP6 REVERT JUMPDEST DUP8 CALLDATALOAD SWAP7 POP PUSH2 0x291D PUSH1 0x20 DUP10 ADD PUSH2 0x258D JUMP JUMPDEST SWAP6 POP PUSH1 0x40 DUP9 ADD CALLDATALOAD PUSH2 0x292D DUP2 PUSH2 0x371D JUMP JUMPDEST SWAP5 POP PUSH1 0x60 DUP9 ADD CALLDATALOAD PUSH2 0x293D DUP2 PUSH2 0x371D JUMP JUMPDEST SWAP4 POP PUSH1 0x80 DUP9 ADD CALLDATALOAD PUSH1 0x1 PUSH1 0x1 PUSH1 0x40 SHL SUB DUP1 DUP3 GT ISZERO PUSH2 0x2958 JUMPI DUP5 DUP6 REVERT JUMPDEST PUSH2 0x2964 DUP12 DUP4 DUP13 ADD PUSH2 0x25AB JUMP JUMPDEST SWAP5 POP PUSH1 0xA0 DUP11 ADD CALLDATALOAD SWAP2 POP DUP1 DUP3 GT ISZERO PUSH2 0x2979 JUMPI DUP4 DUP5 REVERT JUMPDEST POP PUSH2 0x2986 DUP11 DUP3 DUP12 ADD PUSH2 0x2428 JUMP JUMPDEST SWAP9 SWAP12 SWAP8 SWAP11 POP SWAP6 SWAP9 POP SWAP4 SWAP7 SWAP3 SWAP6 SWAP3 SWAP4 POP POP POP JUMP JUMPDEST PUSH1 0x0 DUP1 PUSH1 0x0 DUP1 PUSH1 0x0 DUP1 PUSH1 0x0 PUSH1 0xE0 DUP9 DUP11 SUB SLT ISZERO PUSH2 0x29B3 JUMPI DUP1 DUP2 REVERT JUMPDEST DUP8 CALLDATALOAD SWAP7 POP PUSH2 0x29C3 PUSH1 0x20 DUP10 ADD PUSH2 0x258D JUMP JUMPDEST SWAP6 POP PUSH1 0x40 DUP9 ADD CALLDATALOAD PUSH2 0x29D3 DUP2 PUSH2 0x371D JUMP JUMPDEST SWAP5 POP PUSH1 0x60 DUP9 ADD CALLDATALOAD PUSH2 0x29E3 DUP2 PUSH2 0x371D JUMP JUMPDEST SWAP4 POP PUSH1 0x80 DUP9 ADD CALLDATALOAD PUSH1 0x1 PUSH1 0x1 PUSH1 0x40 SHL SUB DUP2 GT ISZERO PUSH2 0x29FD JUMPI DUP2 DUP3 REVERT JUMPDEST PUSH2 0x2A09 DUP11 DUP3 DUP12 ADD PUSH2 0x25AB JUMP JUMPDEST SWAP4 POP POP PUSH1 0xA0 DUP9 ADD CALLDATALOAD SWAP2 POP PUSH1 0xC0 DUP9 ADD CALLDATALOAD SWAP1 POP SWAP3 SWAP6 SWAP9 SWAP2 SWAP5 SWAP8 POP SWAP3 SWAP6 POP JUMP JUMPDEST PUSH1 0x0 DUP1 PUSH1 0x0 DUP1 PUSH1 0x0 DUP1 PUSH1 0x0 DUP1 PUSH2 0x100 DUP10 DUP12 SUB SLT ISZERO PUSH2 0x2A42 JUMPI DUP2 DUP3 REVERT JUMPDEST DUP9 CALLDATALOAD PUSH2 0x2A4D DUP2 PUSH2 0x371D JUMP JUMPDEST SWAP8 POP PUSH1 0x20 DUP10 ADD CALLDATALOAD PUSH2 0x2A5D DUP2 PUSH2 0x371D JUMP JUMPDEST SWAP7 POP PUSH1 0x40 DUP10 ADD CALLDATALOAD SWAP6 POP PUSH1 0x60 DUP10 ADD CALLDATALOAD SWAP5 POP PUSH1 0x80 DUP10 ADD CALLDATALOAD PUSH2 0x2A7B DUP2 PUSH2 0x3732 JUMP JUMPDEST SWAP4 POP PUSH2 0x2A89 PUSH1 0xA0 DUP11 ADD PUSH2 0x2667 JUMP JUMPDEST SWAP3 POP PUSH1 0xC0 DUP10 ADD CALLDATALOAD SWAP2 POP PUSH1 0xE0 DUP10 ADD CALLDATALOAD SWAP1 POP SWAP3 SWAP6 SWAP9 POP SWAP3 SWAP6 SWAP9 SWAP1 SWAP4 SWAP7 POP JUMP JUMPDEST PUSH1 0x0 DUP1 PUSH1 0x0 DUP1 PUSH1 0x0 DUP1 PUSH1 0x0 PUSH1 0xE0 DUP9 DUP11 SUB SLT ISZERO PUSH2 0x2AC0 JUMPI DUP1 DUP2 REVERT JUMPDEST DUP8 CALLDATALOAD PUSH2 0x2ACB DUP2 PUSH2 0x371D JUMP JUMPDEST SWAP7 POP PUSH1 0x20 DUP9 ADD CALLDATALOAD PUSH2 0x2ADB DUP2 PUSH2 0x371D JUMP JUMPDEST SWAP6 POP PUSH1 0x40 DUP9 ADD CALLDATALOAD SWAP5 POP PUSH1 0x60 DUP9 ADD CALLDATALOAD SWAP4 POP PUSH2 0x2AF7 PUSH1 0x80 DUP10 ADD PUSH2 0x2667 JUMP JUMPDEST SWAP3 POP PUSH1 0xA0 DUP9 ADD CALLDATALOAD SWAP2 POP PUSH1 0xC0 DUP9 ADD CALLDATALOAD SWAP1 POP SWAP3 SWAP6 SWAP9 SWAP2 SWAP5 SWAP8 POP SWAP3 SWAP6 POP JUMP JUMPDEST PUSH1 0x0 PUSH1 0x20 DUP3 DUP5 SUB SLT ISZERO PUSH2 0x2B24 JUMPI DUP1 DUP2 REVERT JUMPDEST DUP2 MLOAD PUSH2 0x225A DUP2 PUSH2 0x371D JUMP JUMPDEST PUSH1 0x0 DUP1 PUSH1 0x40 DUP4 DUP6 SUB SLT ISZERO PUSH2 0x2B41 JUMPI DUP2 DUP3 REVERT JUMPDEST DUP3 CALLDATALOAD PUSH2 0x2B4C DUP2 PUSH2 0x371D JUMP JUMPDEST SWAP5 PUSH1 0x20 SWAP4 SWAP1 SWAP4 ADD CALLDATALOAD SWAP4 POP POP POP JUMP JUMPDEST PUSH1 0x0 DUP1 PUSH1 0x0 DUP1 PUSH1 0x0 DUP1 PUSH1 0xC0 DUP8 DUP10 SUB SLT ISZERO PUSH2 0x2B72 JUMPI DUP4 DUP5 REVERT JUMPDEST DUP7 CALLDATALOAD PUSH2 0x2B7D DUP2 PUSH2 0x371D JUMP JUMPDEST SWAP6 POP PUSH1 0x20 DUP8 ADD CALLDATALOAD PUSH2 0x2B8D DUP2 PUSH2 0x371D JUMP JUMPDEST SWAP5 POP PUSH1 0x40 DUP8 ADD CALLDATALOAD PUSH2 0x2B9D DUP2 PUSH2 0x371D JUMP JUMPDEST SWAP4 POP PUSH1 0x60 DUP8 ADD CALLDATALOAD SWAP3 POP PUSH1 0x80 DUP8 ADD CALLDATALOAD PUSH2 0x2BB4 DUP2 PUSH2 0x3732 JUMP JUMPDEST DUP1 SWAP3 POP POP PUSH1 0xA0 DUP8 ADD CALLDATALOAD SWAP1 POP SWAP3 SWAP6 POP SWAP3 SWAP6 POP SWAP3 SWAP6 JUMP JUMPDEST PUSH1 0x0 PUSH1 0x20 DUP3 DUP5 SUB SLT ISZERO PUSH2 0x2BDA JUMPI DUP1 DUP2 REVERT JUMPDEST DUP2 MLOAD PUSH2 0x225A DUP2 PUSH2 0x3740 JUMP JUMPDEST PUSH1 0x0 DUP1 PUSH1 0x40 DUP4 DUP6 SUB SLT ISZERO PUSH2 0x2BF7 JUMPI DUP2 DUP3 REVERT JUMPDEST DUP3 MLOAD PUSH2 0x2C02 DUP2 PUSH2 0x3740 JUMP JUMPDEST PUSH1 0x20 SWAP4 SWAP1 SWAP4 ADD MLOAD SWAP3 SWAP5 SWAP3 SWAP4 POP POP POP JUMP JUMPDEST PUSH1 0x0 DUP1 PUSH1 0x0 PUSH1 0x60 DUP5 DUP7 SUB SLT ISZERO PUSH2 0x2C26 JUMPI DUP1 DUP2 REVERT JUMPDEST DUP4 MLOAD PUSH2 0x2C31 DUP2 PUSH2 0x3740 JUMP JUMPDEST PUSH1 0x20 DUP6 ADD MLOAD PUSH1 0x40 SWAP1 SWAP6 ADD MLOAD SWAP1 SWAP7 SWAP5 SWAP6 POP SWAP4 SWAP3 POP POP POP JUMP JUMPDEST PUSH1 0x0 DUP1 PUSH1 0x0 PUSH1 0x60 DUP5 DUP7 SUB SLT ISZERO PUSH2 0x2C5C JUMPI DUP1 DUP2 REVERT JUMPDEST DUP4 MLOAD PUSH2 0x2C67 DUP2 PUSH2 0x3740 JUMP JUMPDEST PUSH1 0x20 DUP6 ADD MLOAD SWAP1 SWAP4 POP PUSH1 0x1 PUSH1 0x1 PUSH1 0x40 SHL SUB DUP2 GT ISZERO PUSH2 0x2C82 JUMPI DUP2 DUP3 REVERT JUMPDEST PUSH2 0x2C8E DUP7 DUP3 DUP8 ADD PUSH2 0x24C4 JUMP JUMPDEST SWAP3 POP POP PUSH1 0x40 DUP5 ADD MLOAD SWAP1 POP SWAP3 POP SWAP3 POP SWAP3 JUMP JUMPDEST PUSH1 0x0 DUP1 PUSH1 0x0 DUP1 PUSH1 0x0 DUP1 PUSH1 0x0 DUP1 PUSH1 0x0 DUP1 PUSH1 0x0 PUSH2 0x160 DUP13 DUP15 SUB SLT ISZERO PUSH2 0x2CC0 JUMPI DUP5 DUP6 REVERT JUMPDEST PUSH2 0x2CC9 DUP13 PUSH2 0x259C JUMP JUMPDEST SWAP11 POP PUSH1 0x1 PUSH1 0x1 PUSH1 0x40 SHL SUB DUP1 PUSH1 0x20 DUP15 ADD CALLDATALOAD GT ISZERO PUSH2 0x2CE3 JUMPI DUP6 DUP7 REVERT JUMPDEST PUSH2 0x2CF3 DUP15 PUSH1 0x20 DUP16 ADD CALLDATALOAD DUP16 ADD PUSH2 0x2359 JUMP JUMPDEST SWAP11 POP DUP1 PUSH1 0x40 DUP15 ADD CALLDATALOAD GT ISZERO PUSH2 0x2D05 JUMPI DUP6 DUP7 REVERT JUMPDEST PUSH2 0x2D15 DUP15 PUSH1 0x40 DUP16 ADD CALLDATALOAD DUP16 ADD PUSH2 0x229C JUMP JUMPDEST SWAP1 SWAP11 POP SWAP9 POP PUSH2 0x2D27 DUP15 PUSH1 0x60 DUP16 ADD PUSH2 0x2650 JUMP JUMPDEST SWAP8 POP DUP1 PUSH1 0xE0 DUP15 ADD CALLDATALOAD GT ISZERO PUSH2 0x2D39 JUMPI DUP6 DUP7 REVERT JUMPDEST PUSH2 0x2D49 DUP15 PUSH1 0xE0 DUP16 ADD CALLDATALOAD DUP16 ADD PUSH2 0x229C JUMP JUMPDEST SWAP1 SWAP8 POP SWAP6 POP PUSH2 0x100 DUP14 ADD CALLDATALOAD SWAP5 POP PUSH2 0x120 DUP14 ADD CALLDATALOAD SWAP4 POP PUSH2 0x140 DUP14 ADD CALLDATALOAD DUP2 LT ISZERO PUSH2 0x2D6F JUMPI DUP3 DUP4 REVERT JUMPDEST POP PUSH2 0x2D81 DUP14 PUSH2 0x140 DUP15 ADD CALLDATALOAD DUP15 ADD PUSH2 0x2428 JUMP JUMPDEST DUP2 SWAP4 POP DUP1 SWAP3 POP POP POP SWAP3 SWAP6 SWAP9 SWAP12 POP SWAP3 SWAP6 SWAP9 SWAP12 SWAP1 SWAP4 SWAP7 SWAP10 POP JUMP JUMPDEST PUSH1 0x0 DUP1 PUSH1 0x0 DUP1 PUSH1 0x0 DUP1 PUSH2 0x120 DUP8 DUP10 SUB SLT ISZERO PUSH2 0x2DB2 JUMPI DUP4 DUP5 REVERT JUMPDEST DUP7 CALLDATALOAD PUSH1 0x1 PUSH1 0x1 PUSH1 0x40 SHL SUB DUP1 DUP3 GT ISZERO PUSH2 0x2DC8 JUMPI DUP6 DUP7 REVERT JUMPDEST SWAP1 DUP9 ADD SWAP1 PUSH1 0xC0 DUP3 DUP12 SUB SLT ISZERO PUSH2 0x2DDB JUMPI DUP6 DUP7 REVERT JUMPDEST PUSH1 0x40 MLOAD PUSH1 0xC0 DUP2 ADD DUP2 DUP2 LT DUP4 DUP3 GT OR ISZERO PUSH2 0x2DF0 JUMPI INVALID JUMPDEST PUSH1 0x40 MSTORE DUP3 CALLDATALOAD DUP2 MSTORE PUSH2 0x2E03 PUSH1 0x20 DUP5 ADD PUSH2 0x259C JUMP JUMPDEST PUSH1 0x20 DUP3 ADD MSTORE PUSH2 0x2E14 PUSH1 0x40 DUP5 ADD PUSH2 0x2291 JUMP JUMPDEST PUSH1 0x40 DUP3 ADD MSTORE PUSH2 0x2E25 PUSH1 0x60 DUP5 ADD PUSH2 0x2291 JUMP JUMPDEST PUSH1 0x60 DUP3 ADD MSTORE PUSH1 0x80 DUP4 ADD CALLDATALOAD PUSH1 0x80 DUP3 ADD MSTORE PUSH1 0xA0 DUP4 ADD CALLDATALOAD DUP3 DUP2 GT ISZERO PUSH2 0x2E45 JUMPI DUP8 DUP9 REVERT JUMPDEST PUSH2 0x2E51 DUP13 DUP3 DUP7 ADD PUSH2 0x2529 JUMP JUMPDEST PUSH1 0xA0 DUP4 ADD MSTORE POP DUP1 SWAP9 POP POP POP POP PUSH2 0x2E6A DUP9 PUSH1 0x20 DUP10 ADD PUSH2 0x2650 JUMP JUMPDEST SWAP6 SWAP9 SWAP6 SWAP8 POP POP POP POP PUSH1 0xA0 DUP5 ADD CALLDATALOAD SWAP4 PUSH1 0xC0 DUP2 ADD CALLDATALOAD SWAP4 PUSH1 0xE0 DUP3 ADD CALLDATALOAD SWAP4 POP PUSH2 0x100 SWAP1 SWAP2 ADD CALLDATALOAD SWAP2 POP JUMP JUMPDEST PUSH1 0x0 PUSH1 0x20 DUP3 DUP5 SUB SLT ISZERO PUSH2 0x2EA1 JUMPI DUP1 DUP2 REVERT JUMPDEST POP MLOAD SWAP2 SWAP1 POP JUMP JUMPDEST PUSH1 0x0 DUP1 PUSH1 0x40 DUP4 DUP6 SUB SLT ISZERO PUSH2 0x2EBA JUMPI DUP2 DUP3 REVERT JUMPDEST POP POP DUP1 MLOAD PUSH1 0x20 SWAP1 SWAP2 ADD MLOAD SWAP1 SWAP3 SWAP1 SWAP2 POP JUMP JUMPDEST PUSH1 0x1 PUSH1 0x1 PUSH1 0xA0 SHL SUB AND SWAP1 MSTORE JUMP JUMPDEST PUSH1 0x0 DUP3 DUP5 MSTORE PUSH1 0x20 DUP1 DUP6 ADD SWAP5 POP DUP3 DUP3 JUMPDEST DUP6 DUP2 LT ISZERO PUSH2 0x2F15 JUMPI DUP2 CALLDATALOAD PUSH2 0x2EFA DUP2 PUSH2 0x371D JUMP JUMPDEST PUSH1 0x1 PUSH1 0x1 PUSH1 0xA0 SHL SUB AND DUP8 MSTORE SWAP6 DUP3 ADD SWAP6 SWAP1 DUP3 ADD SWAP1 PUSH1 0x1 ADD PUSH2 0x2EE7 JUMP JUMPDEST POP SWAP5 SWAP6 SWAP5 POP POP POP POP POP JUMP JUMPDEST PUSH1 0x0 DUP3 DUP5 MSTORE PUSH1 0x20 DUP1 DUP6 ADD SWAP5 POP DUP3 DUP3 JUMPDEST DUP6 DUP2 LT ISZERO PUSH2 0x2F15 JUMPI DUP2 CALLDATALOAD DUP8 MSTORE SWAP6 DUP3 ADD SWAP6 SWAP1 DUP3 ADD SWAP1 PUSH1 0x1 ADD PUSH2 0x2F2F JUMP JUMPDEST PUSH1 0x0 DUP2 MLOAD DUP1 DUP5 MSTORE PUSH1 0x20 DUP1 DUP6 ADD SWAP5 POP DUP1 DUP5 ADD DUP4 JUMPDEST DUP4 DUP2 LT ISZERO PUSH2 0x2F15 JUMPI DUP2 MLOAD DUP8 MSTORE SWAP6 DUP3 ADD SWAP6 SWAP1 DUP3 ADD SWAP1 PUSH1 0x1 ADD PUSH2 0x2F5E JUMP JUMPDEST ISZERO ISZERO SWAP1 MSTORE JUMP JUMPDEST PUSH1 0x0 DUP2 MLOAD DUP1 DUP5 MSTORE PUSH2 0x2F98 DUP2 PUSH1 0x20 DUP7 ADD PUSH1 0x20 DUP7 ADD PUSH2 0x36E4 JUMP JUMPDEST PUSH1 0x1F ADD PUSH1 0x1F NOT AND SWAP3 SWAP1 SWAP3 ADD PUSH1 0x20 ADD SWAP3 SWAP2 POP POP JUMP JUMPDEST PUSH1 0x2 DUP2 LT PUSH2 0x2FB6 JUMPI INVALID JUMPDEST SWAP1 MSTORE JUMP JUMPDEST DUP1 MLOAD PUSH1 0x80 DUP1 DUP5 MSTORE DUP2 MLOAD SWAP1 DUP5 ADD DUP2 SWAP1 MSTORE PUSH1 0x0 SWAP2 PUSH1 0x20 SWAP2 SWAP1 DUP3 ADD SWAP1 PUSH1 0xA0 DUP7 ADD SWAP1 DUP5 JUMPDEST DUP2 DUP2 LT ISZERO PUSH2 0x2FFF JUMPI DUP4 MLOAD PUSH1 0x1 PUSH1 0x1 PUSH1 0xA0 SHL SUB AND DUP4 MSTORE SWAP3 DUP5 ADD SWAP3 SWAP2 DUP5 ADD SWAP2 PUSH1 0x1 ADD PUSH2 0x2FDA JUMP JUMPDEST POP POP DUP3 DUP6 ADD MLOAD SWAP2 POP DUP6 DUP2 SUB DUP4 DUP8 ADD MSTORE PUSH2 0x3018 DUP2 DUP4 PUSH2 0x2F4B JUMP JUMPDEST SWAP3 POP POP POP PUSH1 0x40 DUP4 ADD MLOAD DUP5 DUP3 SUB PUSH1 0x40 DUP7 ADD MSTORE PUSH2 0x3033 DUP3 DUP3 PUSH2 0x2F80 JUMP JUMPDEST SWAP2 POP POP PUSH1 0x60 DUP4 ADD MLOAD PUSH2 0x3048 PUSH1 0x60 DUP7 ADD DUP3 PUSH2 0x2F7A JUMP JUMPDEST POP SWAP4 SWAP3 POP POP POP JUMP JUMPDEST DUP1 CALLDATALOAD PUSH2 0x305B DUP2 PUSH2 0x371D JUMP JUMPDEST PUSH1 0x1 PUSH1 0x1 PUSH1 0xA0 SHL SUB SWAP1 DUP2 AND DUP4 MSTORE PUSH1 0x20 DUP3 ADD CALLDATALOAD SWAP1 PUSH2 0x3077 DUP3 PUSH2 0x3732 JUMP JUMPDEST SWAP1 ISZERO ISZERO PUSH1 0x20 DUP5 ADD MSTORE PUSH1 0x40 DUP3 ADD CALLDATALOAD SWAP1 PUSH2 0x308E DUP3 PUSH2 0x371D JUMP JUMPDEST AND PUSH1 0x40 DUP4 ADD MSTORE PUSH1 0x60 DUP2 ADD CALLDATALOAD PUSH2 0x30A2 DUP2 PUSH2 0x3732 JUMP JUMPDEST DUP1 ISZERO ISZERO PUSH1 0x60 DUP5 ADD MSTORE POP POP POP JUMP JUMPDEST PUSH1 0x0 DUP3 MLOAD PUSH2 0x30C1 DUP2 DUP5 PUSH1 0x20 DUP8 ADD PUSH2 0x36E4 JUMP JUMPDEST SWAP2 SWAP1 SWAP2 ADD SWAP3 SWAP2 POP POP JUMP JUMPDEST PUSH1 0x0 DUP5 MLOAD PUSH2 0x30DD DUP2 DUP5 PUSH1 0x20 DUP10 ADD PUSH2 0x36E4 JUMP JUMPDEST DUP3 ADD DUP4 DUP6 DUP3 CALLDATACOPY SWAP1 SWAP3 ADD SWAP2 DUP3 MSTORE POP SWAP3 SWAP2 POP POP JUMP JUMPDEST SWAP2 DUP3 MSTORE PUSH1 0x20 DUP3 ADD MSTORE PUSH1 0x40 ADD SWAP1 JUMP JUMPDEST PUSH1 0x1 PUSH1 0x1 PUSH1 0xA0 SHL SUB SWAP2 SWAP1 SWAP2 AND DUP2 MSTORE PUSH1 0x20 ADD SWAP1 JUMP JUMPDEST PUSH1 0x1 PUSH1 0x1 PUSH1 0xA0 SHL SUB SWAP4 DUP5 AND DUP2 MSTORE SWAP2 SWAP1 SWAP3 AND PUSH1 0x20 DUP3 ADD MSTORE SWAP1 ISZERO ISZERO PUSH1 0x40 DUP3 ADD MSTORE PUSH1 0x60 ADD SWAP1 JUMP JUMPDEST PUSH1 0x1 PUSH1 0x1 PUSH1 0xA0 SHL SUB DUP4 DUP2 AND DUP3 MSTORE PUSH1 0x40 PUSH1 0x20 DUP1 DUP5 ADD DUP3 SWAP1 MSTORE DUP5 MLOAD SWAP2 DUP5 ADD DUP3 SWAP1 MSTORE PUSH1 0x0 SWAP3 DUP6 DUP3 ADD SWAP3 SWAP1 SWAP2 SWAP1 PUSH1 0x60 DUP7 ADD SWAP1 DUP6 JUMPDEST DUP2 DUP2 LT ISZERO PUSH2 0x3184 JUMPI DUP6 MLOAD DUP6 AND DUP4 MSTORE SWAP5 DUP4 ADD SWAP5 SWAP2 DUP4 ADD SWAP2 PUSH1 0x1 ADD PUSH2 0x3166 JUMP JUMPDEST POP SWAP1 SWAP9 SWAP8 POP POP POP POP POP POP POP POP JUMP JUMPDEST PUSH1 0x1 PUSH1 0x1 PUSH1 0xA0 SHL SUB SWAP9 DUP10 AND DUP2 MSTORE SWAP7 SWAP1 SWAP8 AND PUSH1 0x20 DUP8 ADD MSTORE PUSH1 0x40 DUP7 ADD SWAP5 SWAP1 SWAP5 MSTORE PUSH1 0x60 DUP6 ADD SWAP3 SWAP1 SWAP3 MSTORE ISZERO ISZERO PUSH1 0x80 DUP5 ADD MSTORE PUSH1 0xFF AND PUSH1 0xA0 DUP4 ADD MSTORE PUSH1 0xC0 DUP3 ADD MSTORE PUSH1 0xE0 DUP2 ADD SWAP2 SWAP1 SWAP2 MSTORE PUSH2 0x100 ADD SWAP1 JUMP JUMPDEST PUSH1 0x1 PUSH1 0x1 PUSH1 0xA0 SHL SUB SWAP8 DUP9 AND DUP2 MSTORE SWAP6 SWAP1 SWAP7 AND PUSH1 0x20 DUP7 ADD MSTORE PUSH1 0x40 DUP6 ADD SWAP4 SWAP1 SWAP4 MSTORE PUSH1 0x60 DUP5 ADD SWAP2 SWAP1 SWAP2 MSTORE PUSH1 0xFF AND PUSH1 0x80 DUP4 ADD MSTORE PUSH1 0xA0 DUP3 ADD MSTORE PUSH1 0xC0 DUP2 ADD SWAP2 SWAP1 SWAP2 MSTORE PUSH1 0xE0 ADD SWAP1 JUMP JUMPDEST PUSH1 0x1 PUSH1 0x1 PUSH1 0xA0 SHL SUB SWAP3 SWAP1 SWAP3 AND DUP3 MSTORE PUSH1 0x20 DUP3 ADD MSTORE PUSH1 0x40 ADD SWAP1 JUMP JUMPDEST PUSH1 0x1 PUSH1 0x1 PUSH1 0xA0 SHL SUB SWAP4 SWAP1 SWAP4 AND DUP4 MSTORE PUSH1 0x20 DUP4 ADD SWAP2 SWAP1 SWAP2 MSTORE ISZERO ISZERO PUSH1 0x40 DUP3 ADD MSTORE PUSH1 0x60 ADD SWAP1 JUMP JUMPDEST PUSH1 0x1 PUSH1 0x1 PUSH1 0xA0 SHL SUB SWAP5 SWAP1 SWAP5 AND DUP5 MSTORE PUSH1 0x20 DUP5 ADD SWAP3 SWAP1 SWAP3 MSTORE PUSH2 0xFFFF AND PUSH1 0x40 DUP4 ADD MSTORE ISZERO ISZERO PUSH1 0x60 DUP3 ADD MSTORE PUSH1 0x80 ADD SWAP1 JUMP JUMPDEST PUSH1 0x20 DUP1 DUP3 MSTORE DUP3 MLOAD DUP3 DUP3 ADD DUP2 SWAP1 MSTORE PUSH1 0x0 SWAP2 SWAP1 DUP5 DUP3 ADD SWAP1 PUSH1 0x40 DUP6 ADD SWAP1 DUP5 JUMPDEST DUP2 DUP2 LT ISZERO PUSH2 0x32BC JUMPI DUP4 MLOAD DUP4 MSTORE SWAP3 DUP5 ADD SWAP3 SWAP2 DUP5 ADD SWAP2 PUSH1 0x1 ADD PUSH2 0x32A0 JUMP JUMPDEST POP SWAP1 SWAP7 SWAP6 POP POP POP POP POP POP JUMP JUMPDEST PUSH1 0x20 DUP1 DUP3 MSTORE DUP2 DUP2 ADD DUP4 SWAP1 MSTORE PUSH1 0x0 SWAP1 PUSH1 0x40 DUP1 DUP5 ADD DUP7 DUP5 JUMPDEST DUP8 DUP2 LT ISZERO PUSH2 0x234C JUMPI DUP2 CALLDATALOAD PUSH2 0x32F1 DUP2 PUSH2 0x3740 JUMP JUMPDEST PUSH2 0x32FA DUP2 PUSH2 0x3710 JUMP JUMPDEST DUP4 MSTORE DUP2 DUP6 ADD CALLDATALOAD PUSH2 0x3309 DUP2 PUSH2 0x371D JUMP JUMPDEST PUSH1 0x1 PUSH1 0x1 PUSH1 0xA0 SHL SUB SWAP1 DUP2 AND DUP5 DUP8 ADD MSTORE DUP3 DUP6 ADD CALLDATALOAD DUP6 DUP6 ADD MSTORE PUSH1 0x60 SWAP1 DUP2 DUP5 ADD CALLDATALOAD PUSH2 0x3330 DUP2 PUSH2 0x371D JUMP JUMPDEST AND SWAP1 DUP5 ADD MSTORE PUSH1 0x80 PUSH2 0x3342 DUP4 DUP3 ADD PUSH2 0x2291 JUMP JUMPDEST PUSH2 0x334E DUP3 DUP7 ADD DUP3 PUSH2 0x2ECB JUMP JUMPDEST POP POP PUSH1 0xA0 SWAP3 DUP4 ADD SWAP3 SWAP2 SWAP1 SWAP2 ADD SWAP1 PUSH1 0x1 ADD PUSH2 0x32DE JUMP JUMPDEST PUSH1 0x20 DUP1 DUP3 MSTORE DUP3 MLOAD DUP3 DUP3 ADD DUP2 SWAP1 MSTORE PUSH1 0x0 SWAP2 SWAP1 PUSH1 0x40 SWAP1 DUP2 DUP6 ADD SWAP1 DUP7 DUP5 ADD DUP6 JUMPDEST DUP3 DUP2 LT ISZERO PUSH2 0x33DB JUMPI DUP2 MLOAD DUP1 MLOAD PUSH2 0x3395 DUP2 PUSH2 0x3710 JUMP JUMPDEST DUP6 MSTORE DUP1 DUP8 ADD MLOAD PUSH1 0x1 PUSH1 0x1 PUSH1 0xA0 SHL SUB SWAP1 DUP2 AND DUP9 DUP8 ADD MSTORE DUP7 DUP3 ADD MLOAD DUP8 DUP8 ADD MSTORE PUSH1 0x60 DUP1 DUP4 ADD MLOAD DUP3 AND SWAP1 DUP8 ADD MSTORE PUSH1 0x80 SWAP2 DUP3 ADD MLOAD AND SWAP1 DUP6 ADD MSTORE PUSH1 0xA0 SWAP1 SWAP4 ADD SWAP3 SWAP1 DUP6 ADD SWAP1 PUSH1 0x1 ADD PUSH2 0x3380 JUMP JUMPDEST POP SWAP2 SWAP8 SWAP7 POP POP POP POP POP POP POP JUMP JUMPDEST DUP5 DUP2 MSTORE PUSH1 0x1 PUSH1 0x1 PUSH1 0xA0 SHL SUB DUP5 DUP2 AND PUSH1 0x20 DUP4 ADD MSTORE DUP4 AND PUSH1 0x40 DUP3 ADD MSTORE PUSH1 0x80 PUSH1 0x60 DUP3 ADD DUP2 SWAP1 MSTORE PUSH1 0x0 SWAP1 PUSH2 0x341A SWAP1 DUP4 ADD DUP5 PUSH2 0x2FBA JUMP JUMPDEST SWAP7 SWAP6 POP POP POP POP POP POP JUMP JUMPDEST PUSH1 0x40 DUP2 ADD PUSH2 0x3431 DUP5 PUSH2 0x3710 JUMP JUMPDEST SWAP3 DUP2 MSTORE PUSH1 0x20 ADD MSTORE SWAP1 JUMP JUMPDEST PUSH1 0x60 DUP2 ADD PUSH2 0x3448 DUP6 PUSH2 0x3710 JUMP JUMPDEST SWAP4 DUP2 MSTORE PUSH1 0x20 DUP2 ADD SWAP3 SWAP1 SWAP3 MSTORE PUSH1 0x40 SWAP1 SWAP2 ADD MSTORE SWAP1 JUMP JUMPDEST PUSH1 0x0 PUSH2 0x3467 DUP6 PUSH2 0x3710 JUMP JUMPDEST DUP5 DUP3 MSTORE PUSH1 0x60 PUSH1 0x20 DUP4 ADD MSTORE PUSH2 0x347E PUSH1 0x60 DUP4 ADD DUP6 PUSH2 0x2F4B JUMP JUMPDEST SWAP1 POP DUP3 PUSH1 0x40 DUP4 ADD MSTORE SWAP5 SWAP4 POP POP POP POP JUMP JUMPDEST PUSH1 0x0 PUSH2 0x120 DUP1 DUP4 ADD PUSH2 0x34A0 DUP5 DUP14 PUSH2 0x2FAC JUMP JUMPDEST PUSH1 0x20 DUP5 DUP2 ADD SWAP3 SWAP1 SWAP3 MSTORE DUP11 MLOAD SWAP1 DUP2 SWAP1 MSTORE PUSH2 0x140 DUP1 DUP6 ADD SWAP3 DUP3 DUP2 MUL DUP7 ADD SWAP1 SWAP2 ADD SWAP2 DUP13 DUP3 ADD DUP6 JUMPDEST DUP3 DUP2 LT ISZERO PUSH2 0x3527 JUMPI DUP8 DUP6 SUB PUSH2 0x13F NOT ADD DUP7 MSTORE DUP2 MLOAD DUP1 MLOAD DUP7 MSTORE DUP5 DUP2 ADD MLOAD DUP6 DUP8 ADD MSTORE PUSH1 0x40 DUP1 DUP3 ADD MLOAD SWAP1 DUP8 ADD MSTORE PUSH1 0x60 DUP1 DUP3 ADD MLOAD SWAP1 DUP8 ADD MSTORE PUSH1 0x80 SWAP1 DUP2 ADD MLOAD PUSH1 0xA0 SWAP2 DUP8 ADD DUP3 SWAP1 MSTORE SWAP1 PUSH2 0x3513 DUP2 DUP9 ADD DUP4 PUSH2 0x2F80 JUMP JUMPDEST SWAP8 DUP7 ADD SWAP8 SWAP7 POP POP POP SWAP1 DUP4 ADD SWAP1 PUSH1 0x1 ADD PUSH2 0x34C4 JUMP JUMPDEST POP POP POP POP DUP4 DUP2 SUB PUSH1 0x40 DUP6 ADD MSTORE PUSH2 0x353E DUP2 DUP11 DUP13 PUSH2 0x2ED8 JUMP JUMPDEST SWAP2 POP POP PUSH2 0x354E PUSH1 0x60 DUP5 ADD DUP9 PUSH2 0x3050 JUMP JUMPDEST DUP3 DUP2 SUB PUSH1 0xE0 DUP5 ADD MSTORE PUSH2 0x3561 DUP2 DUP7 DUP9 PUSH2 0x2F20 JUMP JUMPDEST SWAP2 POP POP DUP3 PUSH2 0x100 DUP4 ADD MSTORE SWAP10 SWAP9 POP POP POP POP POP POP POP POP POP JUMP JUMPDEST PUSH1 0x20 DUP1 DUP3 MSTORE PUSH1 0x10 SWAP1 DUP3 ADD MSTORE PUSH16 0x24B731B7B93932B1BA1039B2B73232B9 PUSH1 0x81 SHL PUSH1 0x40 DUP3 ADD MSTORE PUSH1 0x60 ADD SWAP1 JUMP JUMPDEST PUSH1 0x20 DUP1 DUP3 MSTORE PUSH1 0x1F SWAP1 DUP3 ADD MSTORE PUSH32 0x52656C617965722063616E206F6E6C7920617070726F766520697473656C6600 PUSH1 0x40 DUP3 ADD MSTORE PUSH1 0x60 ADD SWAP1 JUMP JUMPDEST PUSH1 0x20 DUP1 DUP3 MSTORE PUSH1 0x19 SWAP1 DUP3 ADD MSTORE PUSH32 0x696E76616C696420636861696E6564207265666572656E636500000000000000 PUSH1 0x40 DUP3 ADD MSTORE PUSH1 0x60 ADD SWAP1 JUMP JUMPDEST PUSH1 0x0 PUSH1 0xE0 DUP3 MSTORE DUP6 MLOAD PUSH1 0xE0 DUP4 ADD MSTORE PUSH1 0x20 DUP7 ADD MLOAD PUSH2 0x3630 PUSH2 0x100 DUP5 ADD DUP3 PUSH2 0x2FAC JUMP JUMPDEST POP PUSH1 0x40 DUP7 ADD MLOAD PUSH1 0x1 PUSH1 0x1 PUSH1 0xA0 SHL SUB SWAP1 DUP2 AND PUSH2 0x120 DUP5 ADD MSTORE PUSH1 0x60 DUP8 ADD MLOAD AND PUSH2 0x140 DUP4 ADD MSTORE PUSH1 0x80 DUP7 ADD MLOAD PUSH2 0x160 DUP4 ADD MSTORE PUSH1 0xA0 DUP7 ADD MLOAD PUSH1 0xC0 PUSH2 0x180 DUP5 ADD MSTORE PUSH2 0x3679 PUSH2 0x1A0 DUP5 ADD DUP3 PUSH2 0x2F80 JUMP JUMPDEST SWAP2 POP POP PUSH2 0x3689 PUSH1 0x20 DUP4 ADD DUP7 PUSH2 0x3050 JUMP JUMPDEST PUSH1 0xA0 DUP3 ADD SWAP4 SWAP1 SWAP4 MSTORE PUSH1 0xC0 ADD MSTORE SWAP3 SWAP2 POP POP JUMP JUMPDEST SWAP1 DUP2 MSTORE PUSH1 0x20 ADD SWAP1 JUMP JUMPDEST PUSH1 0x40 MLOAD DUP2 DUP2 ADD PUSH1 0x1 PUSH1 0x1 PUSH1 0x40 SHL SUB DUP2 GT DUP3 DUP3 LT OR ISZERO PUSH2 0x36BF JUMPI INVALID JUMPDEST PUSH1 0x40 MSTORE SWAP2 SWAP1 POP JUMP JUMPDEST PUSH1 0x0 PUSH1 0x1 PUSH1 0x1 PUSH1 0x40 SHL SUB DUP3 GT ISZERO PUSH2 0x36DA JUMPI INVALID JUMPDEST POP PUSH1 0x20 SWAP1 DUP2 MUL ADD SWAP1 JUMP JUMPDEST PUSH1 0x0 JUMPDEST DUP4 DUP2 LT ISZERO PUSH2 0x36FF JUMPI DUP2 DUP2 ADD MLOAD DUP4 DUP3 ADD MSTORE PUSH1 0x20 ADD PUSH2 0x36E7 JUMP JUMPDEST DUP4 DUP2 GT ISZERO PUSH2 0x440 JUMPI POP POP PUSH1 0x0 SWAP2 ADD MSTORE JUMP JUMPDEST PUSH1 0x4 DUP2 LT PUSH2 0x371A JUMPI INVALID JUMPDEST POP JUMP JUMPDEST PUSH1 0x1 PUSH1 0x1 PUSH1 0xA0 SHL SUB DUP2 AND DUP2 EQ PUSH2 0x371A JUMPI PUSH1 0x0 DUP1 REVERT JUMPDEST DUP1 ISZERO ISZERO DUP2 EQ PUSH2 0x371A JUMPI PUSH1 0x0 DUP1 REVERT JUMPDEST PUSH1 0x4 DUP2 LT PUSH2 0x371A JUMPI PUSH1 0x0 DUP1 REVERT INVALID LOG2 PUSH5 0x6970667358 0x22 SLT KECCAK256 POP SWAP7 BYTE DIV 0xDA 0xB6 SGT DUP2 PUSH19 0xE4348D5915864D9726991858A0D5437E950299 0xC7 PUSH14 0xA46C64736F6C6343000706003360 0xC0 PUSH1 0x40 MSTORE CALLVALUE DUP1 ISZERO PUSH2 0x10 JUMPI PUSH1 0x0 DUP1 REVERT JUMPDEST POP PUSH1 0x40 MLOAD PUSH2 0x699 CODESIZE SUB DUP1 PUSH2 0x699 DUP4 CODECOPY DUP2 ADD PUSH1 0x40 DUP2 SWAP1 MSTORE PUSH2 0x2F SWAP2 PUSH2 0x52 JUMP JUMPDEST PUSH1 0x1 PUSH1 0x0 SSTORE PUSH1 0x1 PUSH1 0x1 PUSH1 0x60 SHL SUB NOT PUSH1 0x60 SWAP3 DUP4 SHL DUP2 AND PUSH1 0x80 MSTORE SWAP2 SHL AND PUSH1 0xA0 MSTORE PUSH2 0xA3 JUMP JUMPDEST PUSH1 0x0 DUP1 PUSH1 0x40 DUP4 DUP6 SUB SLT ISZERO PUSH2 0x64 JUMPI DUP2 DUP3 REVERT JUMPDEST DUP3 MLOAD PUSH2 0x6F DUP2 PUSH2 0x8B JUMP JUMPDEST PUSH1 0x20 DUP5 ADD MLOAD SWAP1 SWAP3 POP PUSH2 0x80 DUP2 PUSH2 0x8B JUMP JUMPDEST DUP1 SWAP2 POP POP SWAP3 POP SWAP3 SWAP1 POP JUMP JUMPDEST PUSH1 0x1 PUSH1 0x1 PUSH1 0xA0 SHL SUB DUP2 AND DUP2 EQ PUSH2 0xA0 JUMPI PUSH1 0x0 DUP1 REVERT JUMPDEST POP JUMP JUMPDEST PUSH1 0x80 MLOAD PUSH1 0x60 SHR PUSH1 0xA0 MLOAD PUSH1 0x60 SHR PUSH2 0x5C5 PUSH2 0xD4 PUSH1 0x0 CODECOPY DUP1 PUSH1 0xEF MSTORE DUP1 PUSH2 0x1F5 MSTORE POP DUP1 PUSH1 0x4B MSTORE DUP1 PUSH2 0x113 MSTORE POP PUSH2 0x5C5 PUSH1 0x0 RETURN INVALID PUSH1 0x80 PUSH1 0x40 MSTORE PUSH1 0x4 CALLDATASIZE LT PUSH2 0x38 JUMPI PUSH1 0x0 CALLDATALOAD PUSH1 0xE0 SHR DUP1 PUSH4 0x7678922E EQ PUSH2 0x7B JUMPI DUP1 PUSH4 0x8D928AF8 EQ PUSH2 0xA6 JUMPI DUP1 PUSH4 0xAC9650D8 EQ PUSH2 0xBB JUMPI PUSH2 0x76 JUMP JUMPDEST CALLDATASIZE PUSH2 0x76 JUMPI PUSH2 0x74 CALLER PUSH1 0x1 PUSH1 0x1 PUSH1 0xA0 SHL SUB PUSH32 0x0 AND EQ PUSH2 0x206 PUSH2 0xDB JUMP JUMPDEST STOP JUMPDEST PUSH1 0x0 DUP1 REVERT JUMPDEST CALLVALUE DUP1 ISZERO PUSH2 0x87 JUMPI PUSH1 0x0 DUP1 REVERT JUMPDEST POP PUSH2 0x90 PUSH2 0xED JUMP JUMPDEST PUSH1 0x40 MLOAD PUSH2 0x9D SWAP2 SWAP1 PUSH2 0x487 JUMP JUMPDEST PUSH1 0x40 MLOAD DUP1 SWAP2 SUB SWAP1 RETURN JUMPDEST CALLVALUE DUP1 ISZERO PUSH2 0xB2 JUMPI PUSH1 0x0 DUP1 REVERT JUMPDEST POP PUSH2 0x90 PUSH2 0x111 JUMP JUMPDEST PUSH2 0xCE PUSH2 0xC9 CALLDATASIZE PUSH1 0x4 PUSH2 0x3F9 JUMP JUMPDEST PUSH2 0x135 JUMP JUMPDEST PUSH1 0x40 MLOAD PUSH2 0x9D SWAP2 SWAP1 PUSH2 0x49B JUMP JUMPDEST DUP2 PUSH2 0xE9 JUMPI PUSH2 0xE9 DUP2 PUSH2 0x254 JUMP JUMPDEST POP POP JUMP JUMPDEST PUSH32 0x0 SWAP1 JUMP JUMPDEST PUSH32 0x0 SWAP1 JUMP JUMPDEST PUSH1 0x60 PUSH2 0x13F PUSH2 0x2A7 JUMP JUMPDEST DUP2 PUSH8 0xFFFFFFFFFFFFFFFF DUP2 GT DUP1 ISZERO PUSH2 0x156 JUMPI PUSH1 0x0 DUP1 REVERT JUMPDEST POP PUSH1 0x40 MLOAD SWAP1 DUP1 DUP3 MSTORE DUP1 PUSH1 0x20 MUL PUSH1 0x20 ADD DUP3 ADD PUSH1 0x40 MSTORE DUP1 ISZERO PUSH2 0x18A JUMPI DUP2 PUSH1 0x20 ADD JUMPDEST PUSH1 0x60 DUP2 MSTORE PUSH1 0x20 ADD SWAP1 PUSH1 0x1 SWAP1 SUB SWAP1 DUP2 PUSH2 0x175 JUMPI SWAP1 POP JUMPDEST POP SWAP1 POP PUSH1 0x0 JUMPDEST DUP3 DUP2 LT ISZERO PUSH2 0x23D JUMPI PUSH2 0x21E DUP5 DUP5 DUP4 DUP2 DUP2 LT PUSH2 0x1A7 JUMPI INVALID JUMPDEST SWAP1 POP PUSH1 0x20 MUL DUP2 ADD SWAP1 PUSH2 0x1B9 SWAP2 SWAP1 PUSH2 0x513 JUMP JUMPDEST DUP1 DUP1 PUSH1 0x1F ADD PUSH1 0x20 DUP1 SWAP2 DIV MUL PUSH1 0x20 ADD PUSH1 0x40 MLOAD SWAP1 DUP2 ADD PUSH1 0x40 MSTORE DUP1 SWAP4 SWAP3 SWAP2 SWAP1 DUP2 DUP2 MSTORE PUSH1 0x20 ADD DUP4 DUP4 DUP1 DUP3 DUP5 CALLDATACOPY PUSH1 0x0 SWAP3 ADD SWAP2 SWAP1 SWAP2 MSTORE POP POP PUSH1 0x1 PUSH1 0x1 PUSH1 0xA0 SHL SUB PUSH32 0x0 AND SWAP3 SWAP2 POP POP PUSH2 0x2C0 JUMP JUMPDEST DUP3 DUP3 DUP2 MLOAD DUP2 LT PUSH2 0x22A JUMPI INVALID JUMPDEST PUSH1 0x20 SWAP1 DUP2 MUL SWAP2 SWAP1 SWAP2 ADD ADD MSTORE PUSH1 0x1 ADD PUSH2 0x190 JUMP JUMPDEST POP PUSH2 0x246 PUSH2 0x335 JUMP JUMPDEST PUSH2 0x24E PUSH2 0x349 JUMP JUMPDEST SWAP3 SWAP2 POP POP JUMP JUMPDEST PUSH3 0x461BCD PUSH1 0xE5 SHL PUSH1 0x0 SWAP1 DUP2 MSTORE PUSH1 0x20 PUSH1 0x4 MSTORE PUSH1 0x7 PUSH1 0x24 MSTORE PUSH7 0x42414C23000030 PUSH1 0xA DUP1 DUP5 DIV DUP2 DUP2 MOD PUSH1 0x30 SWAP1 DUP2 ADD PUSH1 0x8 SHL SWAP6 DUP4 SWAP1 MOD SWAP6 SWAP1 SWAP6 ADD SWAP1 DUP3 SWAP1 DIV SWAP2 DUP3 MOD SWAP1 SWAP5 ADD PUSH1 0x10 SHL SWAP4 SWAP1 SWAP4 ADD ADD PUSH1 0xC8 SHL PUSH1 0x44 MSTORE PUSH1 0x64 SWAP1 REVERT JUMPDEST PUSH2 0x2B9 PUSH1 0x2 PUSH1 0x0 SLOAD EQ ISZERO PUSH2 0x190 PUSH2 0xDB JUMP JUMPDEST PUSH1 0x2 PUSH1 0x0 SSTORE JUMP JUMPDEST PUSH1 0x60 PUSH1 0x0 DUP1 DUP5 PUSH1 0x1 PUSH1 0x1 PUSH1 0xA0 SHL SUB AND DUP5 PUSH1 0x40 MLOAD PUSH2 0x2DD SWAP2 SWAP1 PUSH2 0x468 JUMP JUMPDEST PUSH1 0x0 PUSH1 0x40 MLOAD DUP1 DUP4 SUB DUP2 DUP6 GAS DELEGATECALL SWAP2 POP POP RETURNDATASIZE DUP1 PUSH1 0x0 DUP2 EQ PUSH2 0x318 JUMPI PUSH1 0x40 MLOAD SWAP2 POP PUSH1 0x1F NOT PUSH1 0x3F RETURNDATASIZE ADD AND DUP3 ADD PUSH1 0x40 MSTORE RETURNDATASIZE DUP3 MSTORE RETURNDATASIZE PUSH1 0x0 PUSH1 0x20 DUP5 ADD RETURNDATACOPY PUSH2 0x31D JUMP JUMPDEST PUSH1 0x60 SWAP2 POP JUMPDEST POP SWAP2 POP SWAP2 POP PUSH2 0x32C DUP3 DUP3 PUSH2 0x350 JUMP JUMPDEST SWAP6 SWAP5 POP POP POP POP POP JUMP JUMPDEST SELFBALANCE DUP1 ISZERO PUSH2 0x346 JUMPI PUSH2 0x346 CALLER DUP3 PUSH2 0x37A JUMP JUMPDEST POP JUMP JUMPDEST PUSH1 0x1 PUSH1 0x0 SSTORE JUMP JUMPDEST PUSH1 0x60 DUP3 ISZERO PUSH2 0x35F JUMPI POP DUP1 PUSH2 0x24E JUMP JUMPDEST DUP2 MLOAD ISZERO PUSH2 0x36F JUMPI DUP2 MLOAD DUP1 DUP4 PUSH1 0x20 ADD REVERT JUMPDEST PUSH2 0x24E PUSH2 0x1AE PUSH2 0x254 JUMP JUMPDEST PUSH2 0x389 DUP2 SELFBALANCE LT ISZERO PUSH2 0x1A3 PUSH2 0xDB JUMP JUMPDEST PUSH1 0x0 DUP3 PUSH1 0x1 PUSH1 0x1 PUSH1 0xA0 SHL SUB AND DUP3 PUSH1 0x40 MLOAD PUSH2 0x3A2 SWAP1 PUSH2 0x484 JUMP JUMPDEST PUSH1 0x0 PUSH1 0x40 MLOAD DUP1 DUP4 SUB DUP2 DUP6 DUP8 GAS CALL SWAP3 POP POP POP RETURNDATASIZE DUP1 PUSH1 0x0 DUP2 EQ PUSH2 0x3DF JUMPI PUSH1 0x40 MLOAD SWAP2 POP PUSH1 0x1F NOT PUSH1 0x3F RETURNDATASIZE ADD AND DUP3 ADD PUSH1 0x40 MSTORE RETURNDATASIZE DUP3 MSTORE RETURNDATASIZE PUSH1 0x0 PUSH1 0x20 DUP5 ADD RETURNDATACOPY PUSH2 0x3E4 JUMP JUMPDEST PUSH1 0x60 SWAP2 POP JUMPDEST POP POP SWAP1 POP PUSH2 0x3F4 DUP2 PUSH2 0x1A4 PUSH2 0xDB JUMP JUMPDEST POP POP POP JUMP JUMPDEST PUSH1 0x0 DUP1 PUSH1 0x20 DUP4 DUP6 SUB SLT ISZERO PUSH2 0x40B JUMPI DUP2 DUP3 REVERT JUMPDEST DUP3 CALLDATALOAD PUSH8 0xFFFFFFFFFFFFFFFF DUP1 DUP3 GT ISZERO PUSH2 0x422 JUMPI DUP4 DUP5 REVERT JUMPDEST DUP2 DUP6 ADD SWAP2 POP DUP6 PUSH1 0x1F DUP4 ADD SLT PUSH2 0x435 JUMPI DUP4 DUP5 REVERT JUMPDEST DUP2 CALLDATALOAD DUP2 DUP2 GT ISZERO PUSH2 0x443 JUMPI DUP5 DUP6 REVERT JUMPDEST DUP7 PUSH1 0x20 DUP1 DUP4 MUL DUP6 ADD ADD GT ISZERO PUSH2 0x456 JUMPI DUP5 DUP6 REVERT JUMPDEST PUSH1 0x20 SWAP3 SWAP1 SWAP3 ADD SWAP7 SWAP2 SWAP6 POP SWAP1 SWAP4 POP POP POP POP JUMP JUMPDEST PUSH1 0x0 DUP3 MLOAD PUSH2 0x47A DUP2 DUP5 PUSH1 0x20 DUP8 ADD PUSH2 0x55F JUMP JUMPDEST SWAP2 SWAP1 SWAP2 ADD SWAP3 SWAP2 POP POP JUMP JUMPDEST SWAP1 JUMP JUMPDEST PUSH1 0x1 PUSH1 0x1 PUSH1 0xA0 SHL SUB SWAP2 SWAP1 SWAP2 AND DUP2 MSTORE PUSH1 0x20 ADD SWAP1 JUMP JUMPDEST PUSH1 0x0 PUSH1 0x20 DUP1 DUP4 ADD DUP2 DUP5 MSTORE DUP1 DUP6 MLOAD DUP1 DUP4 MSTORE PUSH1 0x40 DUP7 ADD SWAP2 POP PUSH1 0x40 DUP5 DUP3 MUL DUP8 ADD ADD SWAP3 POP DUP4 DUP8 ADD DUP6 JUMPDEST DUP3 DUP2 LT ISZERO PUSH2 0x506 JUMPI DUP8 DUP6 SUB PUSH1 0x3F NOT ADD DUP5 MSTORE DUP2 MLOAD DUP1 MLOAD DUP1 DUP8 MSTORE PUSH2 0x4E7 DUP2 DUP10 DUP10 ADD DUP11 DUP6 ADD PUSH2 0x55F JUMP JUMPDEST PUSH1 0x1F ADD PUSH1 0x1F NOT AND SWAP6 SWAP1 SWAP6 ADD DUP7 ADD SWAP5 POP SWAP3 DUP6 ADD SWAP3 SWAP1 DUP6 ADD SWAP1 PUSH1 0x1 ADD PUSH2 0x4C0 JUMP JUMPDEST POP SWAP3 SWAP8 SWAP7 POP POP POP POP POP POP POP JUMP JUMPDEST PUSH1 0x0 DUP1 DUP4 CALLDATALOAD PUSH1 0x1E NOT DUP5 CALLDATASIZE SUB ADD DUP2 SLT PUSH2 0x529 JUMPI DUP3 DUP4 REVERT JUMPDEST DUP4 ADD DUP1 CALLDATALOAD SWAP2 POP PUSH8 0xFFFFFFFFFFFFFFFF DUP3 GT ISZERO PUSH2 0x543 JUMPI DUP3 DUP4 REVERT JUMPDEST PUSH1 0x20 ADD SWAP2 POP CALLDATASIZE DUP2 SWAP1 SUB DUP3 SGT ISZERO PUSH2 0x558 JUMPI PUSH1 0x0 DUP1 REVERT JUMPDEST SWAP3 POP SWAP3 SWAP1 POP JUMP JUMPDEST PUSH1 0x0 JUMPDEST DUP4 DUP2 LT ISZERO PUSH2 0x57A JUMPI DUP2 DUP2 ADD MLOAD DUP4 DUP3 ADD MSTORE PUSH1 0x20 ADD PUSH2 0x562 JUMP JUMPDEST DUP4 DUP2 GT ISZERO PUSH2 0x589 JUMPI PUSH1 0x0 DUP5 DUP5 ADD MSTORE JUMPDEST POP POP POP POP JUMP INVALID LOG2 PUSH5 0x6970667358 0x22 SLT KECCAK256 ISZERO SWAP14 0xD6 PUSH19 0xD42E9F3FEB72B160544BF67F46239124A7DE8C CODECOPY PUSH9 0x2E3BEE515F86FF6473 PUSH16 0x6C634300070600330000000000000000 "},"methodIdentifiers":{"approveVault(address,uint256)":"b6d24737","batchSwap(uint8,(bytes32,uint256,uint256,uint256,bytes)[],address[],(address,bool,address,bool),int256[],uint256,uint256,(uint256,uint256)[])":"18369446","exitPool(bytes32,uint8,address,address,(address[],uint256[],bytes,bool),(uint256,uint256)[])":"d80952d5","getEntrypoint()":"7fd0e5d5","getVault()":"8d928af8","joinPool(bytes32,uint8,address,address,(address[],uint256[],bytes,bool),uint256,uint256)":"8fe4624f","manageUserBalance((uint8,address,uint256,address,address)[],uint256)":"ecc02637","setRelayerApproval(address,bool,bytes)":"80db15bd","stakeETH(address,uint256,uint256)":"2cbec84e","stakeETHAndWrap(address,uint256,uint256)":"1089e5e3","swap((bytes32,uint8,address,address,uint256,bytes),(address,bool,address,bool),uint256,uint256,uint256,uint256)":"2e6272ea","unwrapAaveStaticToken(address,address,address,uint256,bool,uint256)":"7ab6e03c","unwrapWstETH(address,address,uint256,uint256)":"db4c0e91","vaultPermit(address,address,uint256,uint256,uint8,bytes32,bytes32)":"8d64cfbc","vaultPermitDAI(address,address,uint256,uint256,bool,uint8,bytes32,bytes32)":"959fc17a","wrapAaveDynamicToken(address,address,address,uint256,bool,uint256)":"433b0865","wrapStETH(address,address,uint256,uint256)":"1c982441"}}}}}