{"contracts/BatchRelayerLibrary.sol":{"BalancerRelayer":{"abi":[{"inputs":[{"internalType":"contract IVault","name":"vault","type":"address"},{"internalType":"address","name":"libraryAddress","type":"address"}],"stateMutability":"nonpayable","type":"constructor"},{"inputs":[],"name":"getLibrary","outputs":[{"internalType":"address","name":"","type":"address"}],"stateMutability":"view","type":"function"},{"inputs":[],"name":"getVault","outputs":[{"internalType":"contract IVault","name":"","type":"address"}],"stateMutability":"view","type":"function"},{"inputs":[{"internalType":"bytes[]","name":"data","type":"bytes[]"}],"name":"multicall","outputs":[{"internalType":"bytes[]","name":"results","type":"bytes[]"}],"stateMutability":"payable","type":"function"},{"stateMutability":"payable","type":"receive"}],"evm":{"bytecode":{"linkReferences":{},"object":"60c060405234801561001057600080fd5b5060405161069938038061069983398101604081905261002f91610052565b60016000556001600160601b0319606092831b8116608052911b1660a0526100a3565b60008060408385031215610064578182fd5b825161006f8161008b565b60208401519092506100808161008b565b809150509250929050565b6001600160a01b03811681146100a057600080fd5b50565b60805160601c60a05160601c6105c56100d46000398060ef52806101f5525080604b528061011352506105c56000f3fe6080604052600436106100385760003560e01c80637678922e1461007b5780638d928af8146100a6578063ac9650d8146100bb57610076565b3661007657610074336001600160a01b037f000000000000000000000000000000000000000000000000000000000000000016146102066100db565b005b600080fd5b34801561008757600080fd5b506100906100ed565b60405161009d9190610487565b60405180910390f35b3480156100b257600080fd5b50610090610111565b6100ce6100c93660046103f9565b610135565b60405161009d919061049b565b816100e9576100e981610254565b5050565b7f000000000000000000000000000000000000000000000000000000000000000090565b7f000000000000000000000000000000000000000000000000000000000000000090565b606061013f6102a7565b8167ffffffffffffffff8111801561015657600080fd5b5060405190808252806020026020018201604052801561018a57816020015b60608152602001906001900390816101755790505b50905060005b8281101561023d5761021e8484838181106101a757fe5b90506020028101906101b99190610513565b8080601f016020809104026020016040519081016040528093929190818152602001838380828437600092019190915250506001600160a01b037f000000000000000000000000000000000000000000000000000000000000000016929150506102c0565b82828151811061022a57fe5b6020908102919091010152600101610190565b50610246610335565b61024e610349565b92915050565b62461bcd60e51b6000908152602060045260076024526642414c23000030600a808404818106603090810160081b95839006959095019082900491820690940160101b939093010160c81b604452606490fd5b6102b9600260005414156101906100db565b6002600055565b6060600080846001600160a01b0316846040516102dd9190610468565b600060405180830381855af49150503d8060008114610318576040519150601f19603f3d011682016040523d82523d6000602084013e61031d565b606091505b509150915061032c8282610350565b95945050505050565b47801561034657610346338261037a565b50565b6001600055565b6060821561035f57508061024e565b81511561036f5781518083602001fd5b61024e6101ae610254565b610389814710156101a36100db565b6000826001600160a01b0316826040516103a290610484565b60006040518083038185875af1925050503d80600081146103df576040519150601f19603f3d011682016040523d82523d6000602084013e6103e4565b606091505b505090506103f4816101a46100db565b505050565b6000806020838503121561040b578182fd5b823567ffffffffffffffff80821115610422578384fd5b818501915085601f830112610435578384fd5b813581811115610443578485fd5b8660208083028501011115610456578485fd5b60209290920196919550909350505050565b6000825161047a81846020870161055f565b9190910192915050565b90565b6001600160a01b0391909116815260200190565b6000602080830181845280855180835260408601915060408482028701019250838701855b8281101561050657878503603f19018452815180518087526104e7818989018a850161055f565b601f01601f1916959095018601945092850192908501906001016104c0565b5092979650505050505050565b6000808335601e19843603018112610529578283fd5b83018035915067ffffffffffffffff821115610543578283fd5b60200191503681900382131561055857600080fd5b9250929050565b60005b8381101561057a578181015183820152602001610562565b83811115610589576000848401525b5050505056fea2646970667358221220159dd672d42e9f3feb72b160544bf67f46239124a7de8c39682e3bee515f86ff64736f6c63430007060033","opcodes":"PUSH1 0xC0 PUSH1 0x40 MSTORE CALLVALUE DUP1 ISZERO PUSH2 0x10 JUMPI PUSH1 0x0 DUP1 REVERT JUMPDEST POP PUSH1 0x40 MLOAD PUSH2 0x699 CODESIZE SUB DUP1 PUSH2 0x699 DUP4 CODECOPY DUP2 ADD PUSH1 0x40 DUP2 SWAP1 MSTORE PUSH2 0x2F SWAP2 PUSH2 0x52 JUMP JUMPDEST PUSH1 0x1 PUSH1 0x0 SSTORE PUSH1 0x1 PUSH1 0x1 PUSH1 0x60 SHL SUB NOT PUSH1 0x60 SWAP3 DUP4 SHL DUP2 AND PUSH1 0x80 MSTORE SWAP2 SHL AND PUSH1 0xA0 MSTORE PUSH2 0xA3 JUMP JUMPDEST PUSH1 0x0 DUP1 PUSH1 0x40 DUP4 DUP6 SUB SLT ISZERO PUSH2 0x64 JUMPI DUP2 DUP3 REVERT JUMPDEST DUP3 MLOAD PUSH2 0x6F DUP2 PUSH2 0x8B JUMP JUMPDEST PUSH1 0x20 DUP5 ADD MLOAD SWAP1 SWAP3 POP PUSH2 0x80 DUP2 PUSH2 0x8B JUMP JUMPDEST DUP1 SWAP2 POP POP SWAP3 POP SWAP3 SWAP1 POP JUMP JUMPDEST PUSH1 0x1 PUSH1 0x1 PUSH1 0xA0 SHL SUB DUP2 AND DUP2 EQ PUSH2 0xA0 JUMPI PUSH1 0x0 DUP1 REVERT JUMPDEST POP JUMP JUMPDEST PUSH1 0x80 MLOAD PUSH1 0x60 SHR PUSH1 0xA0 MLOAD PUSH1 0x60 SHR PUSH2 0x5C5 PUSH2 0xD4 PUSH1 0x0 CODECOPY DUP1 PUSH1 0xEF MSTORE DUP1 PUSH2 0x1F5 MSTORE POP DUP1 PUSH1 0x4B MSTORE DUP1 PUSH2 0x113 MSTORE POP PUSH2 0x5C5 PUSH1 0x0 RETURN INVALID PUSH1 0x80 PUSH1 0x40 MSTORE PUSH1 0x4 CALLDATASIZE LT PUSH2 0x38 JUMPI PUSH1 0x0 CALLDATALOAD PUSH1 0xE0 SHR DUP1 PUSH4 0x7678922E EQ PUSH2 0x7B JUMPI DUP1 PUSH4 0x8D928AF8 EQ PUSH2 0xA6 JUMPI DUP1 PUSH4 0xAC9650D8 EQ PUSH2 0xBB JUMPI PUSH2 0x76 JUMP JUMPDEST CALLDATASIZE PUSH2 0x76 JUMPI PUSH2 0x74 CALLER PUSH1 0x1 PUSH1 0x1 PUSH1 0xA0 SHL SUB PUSH32 0x0 AND EQ PUSH2 0x206 PUSH2 0xDB JUMP JUMPDEST STOP JUMPDEST PUSH1 0x0 DUP1 REVERT JUMPDEST CALLVALUE DUP1 ISZERO PUSH2 0x87 JUMPI PUSH1 0x0 DUP1 REVERT JUMPDEST POP PUSH2 0x90 PUSH2 0xED JUMP JUMPDEST PUSH1 0x40 MLOAD PUSH2 0x9D SWAP2 SWAP1 PUSH2 0x487 JUMP JUMPDEST PUSH1 0x40 MLOAD DUP1 SWAP2 SUB SWAP1 RETURN JUMPDEST CALLVALUE DUP1 ISZERO PUSH2 0xB2 JUMPI PUSH1 0x0 DUP1 REVERT JUMPDEST POP PUSH2 0x90 PUSH2 0x111 JUMP JUMPDEST PUSH2 0xCE PUSH2 0xC9 CALLDATASIZE PUSH1 0x4 PUSH2 0x3F9 JUMP JUMPDEST PUSH2 0x135 JUMP JUMPDEST PUSH1 0x40 MLOAD PUSH2 0x9D SWAP2 SWAP1 PUSH2 0x49B JUMP JUMPDEST DUP2 PUSH2 0xE9 JUMPI PUSH2 0xE9 DUP2 PUSH2 0x254 JUMP JUMPDEST POP POP JUMP JUMPDEST PUSH32 0x0 SWAP1 JUMP JUMPDEST PUSH32 0x0 SWAP1 JUMP JUMPDEST PUSH1 0x60 PUSH2 0x13F PUSH2 0x2A7 JUMP JUMPDEST DUP2 PUSH8 0xFFFFFFFFFFFFFFFF DUP2 GT DUP1 ISZERO PUSH2 0x156 JUMPI PUSH1 0x0 DUP1 REVERT JUMPDEST POP PUSH1 0x40 MLOAD SWAP1 DUP1 DUP3 MSTORE DUP1 PUSH1 0x20 MUL PUSH1 0x20 ADD DUP3 ADD PUSH1 0x40 MSTORE DUP1 ISZERO PUSH2 0x18A JUMPI DUP2 PUSH1 0x20 ADD JUMPDEST PUSH1 0x60 DUP2 MSTORE PUSH1 0x20 ADD SWAP1 PUSH1 0x1 SWAP1 SUB SWAP1 DUP2 PUSH2 0x175 JUMPI SWAP1 POP JUMPDEST POP SWAP1 POP PUSH1 0x0 JUMPDEST DUP3 DUP2 LT ISZERO PUSH2 0x23D JUMPI PUSH2 0x21E DUP5 DUP5 DUP4 DUP2 DUP2 LT PUSH2 0x1A7 JUMPI INVALID JUMPDEST SWAP1 POP PUSH1 0x20 MUL DUP2 ADD SWAP1 PUSH2 0x1B9 SWAP2 SWAP1 PUSH2 0x513 JUMP JUMPDEST DUP1 DUP1 PUSH1 0x1F ADD PUSH1 0x20 DUP1 SWAP2 DIV MUL PUSH1 0x20 ADD PUSH1 0x40 MLOAD SWAP1 DUP2 ADD PUSH1 0x40 MSTORE DUP1 SWAP4 SWAP3 SWAP2 SWAP1 DUP2 DUP2 MSTORE PUSH1 0x20 ADD DUP4 DUP4 DUP1 DUP3 DUP5 CALLDATACOPY PUSH1 0x0 SWAP3 ADD SWAP2 SWAP1 SWAP2 MSTORE POP POP PUSH1 0x1 PUSH1 0x1 PUSH1 0xA0 SHL SUB PUSH32 0x0 AND SWAP3 SWAP2 POP POP PUSH2 0x2C0 JUMP JUMPDEST DUP3 DUP3 DUP2 MLOAD DUP2 LT PUSH2 0x22A JUMPI INVALID JUMPDEST PUSH1 0x20 SWAP1 DUP2 MUL SWAP2 SWAP1 SWAP2 ADD ADD MSTORE PUSH1 0x1 ADD PUSH2 0x190 JUMP JUMPDEST POP PUSH2 0x246 PUSH2 0x335 JUMP JUMPDEST PUSH2 0x24E PUSH2 0x349 JUMP JUMPDEST SWAP3 SWAP2 POP POP JUMP JUMPDEST PUSH3 0x461BCD PUSH1 0xE5 SHL PUSH1 0x0 SWAP1 DUP2 MSTORE PUSH1 0x20 PUSH1 0x4 MSTORE PUSH1 0x7 PUSH1 0x24 MSTORE PUSH7 0x42414C23000030 PUSH1 0xA DUP1 DUP5 DIV DUP2 DUP2 MOD PUSH1 0x30 SWAP1 DUP2 ADD PUSH1 0x8 SHL SWAP6 DUP4 SWAP1 MOD SWAP6 SWAP1 SWAP6 ADD SWAP1 DUP3 SWAP1 DIV SWAP2 DUP3 MOD SWAP1 SWAP5 ADD PUSH1 0x10 SHL SWAP4 SWAP1 SWAP4 ADD ADD PUSH1 0xC8 SHL PUSH1 0x44 MSTORE PUSH1 0x64 SWAP1 REVERT JUMPDEST PUSH2 0x2B9 PUSH1 0x2 PUSH1 0x0 SLOAD EQ ISZERO PUSH2 0x190 PUSH2 0xDB JUMP JUMPDEST PUSH1 0x2 PUSH1 0x0 SSTORE JUMP JUMPDEST PUSH1 0x60 PUSH1 0x0 DUP1 DUP5 PUSH1 0x1 PUSH1 0x1 PUSH1 0xA0 SHL SUB AND DUP5 PUSH1 0x40 MLOAD PUSH2 0x2DD SWAP2 SWAP1 PUSH2 0x468 JUMP JUMPDEST PUSH1 0x0 PUSH1 0x40 MLOAD DUP1 DUP4 SUB DUP2 DUP6 GAS DELEGATECALL SWAP2 POP POP RETURNDATASIZE DUP1 PUSH1 0x0 DUP2 EQ PUSH2 0x318 JUMPI PUSH1 0x40 MLOAD SWAP2 POP PUSH1 0x1F NOT PUSH1 0x3F RETURNDATASIZE ADD AND DUP3 ADD PUSH1 0x40 MSTORE RETURNDATASIZE DUP3 MSTORE RETURNDATASIZE PUSH1 0x0 PUSH1 0x20 DUP5 ADD RETURNDATACOPY PUSH2 0x31D JUMP JUMPDEST PUSH1 0x60 SWAP2 POP JUMPDEST POP SWAP2 POP SWAP2 POP PUSH2 0x32C DUP3 DUP3 PUSH2 0x350 JUMP JUMPDEST SWAP6 SWAP5 POP POP POP POP POP JUMP JUMPDEST SELFBALANCE DUP1 ISZERO PUSH2 0x346 JUMPI PUSH2 0x346 CALLER DUP3 PUSH2 0x37A JUMP JUMPDEST POP JUMP JUMPDEST PUSH1 0x1 PUSH1 0x0 SSTORE JUMP JUMPDEST PUSH1 0x60 DUP3 ISZERO PUSH2 0x35F JUMPI POP DUP1 PUSH2 0x24E JUMP JUMPDEST DUP2 MLOAD ISZERO PUSH2 0x36F JUMPI DUP2 MLOAD DUP1 DUP4 PUSH1 0x20 ADD REVERT JUMPDEST PUSH2 0x24E PUSH2 0x1AE PUSH2 0x254 JUMP JUMPDEST PUSH2 0x389 DUP2 SELFBALANCE LT ISZERO PUSH2 0x1A3 PUSH2 0xDB JUMP JUMPDEST PUSH1 0x0 DUP3 PUSH1 0x1 PUSH1 0x1 PUSH1 0xA0 SHL SUB AND DUP3 PUSH1 0x40 MLOAD PUSH2 0x3A2 SWAP1 PUSH2 0x484 JUMP JUMPDEST PUSH1 0x0 PUSH1 0x40 MLOAD DUP1 DUP4 SUB DUP2 DUP6 DUP8 GAS CALL SWAP3 POP POP POP RETURNDATASIZE DUP1 PUSH1 0x0 DUP2 EQ PUSH2 0x3DF JUMPI PUSH1 0x40 MLOAD SWAP2 POP PUSH1 0x1F NOT PUSH1 0x3F RETURNDATASIZE ADD AND DUP3 ADD PUSH1 0x40 MSTORE RETURNDATASIZE DUP3 MSTORE RETURNDATASIZE PUSH1 0x0 PUSH1 0x20 DUP5 ADD RETURNDATACOPY PUSH2 0x3E4 JUMP JUMPDEST PUSH1 0x60 SWAP2 POP JUMPDEST POP POP SWAP1 POP PUSH2 0x3F4 DUP2 PUSH2 0x1A4 PUSH2 0xDB JUMP JUMPDEST POP POP POP JUMP JUMPDEST PUSH1 0x0 DUP1 PUSH1 0x20 DUP4 DUP6 SUB SLT ISZERO PUSH2 0x40B JUMPI DUP2 DUP3 REVERT JUMPDEST DUP3 CALLDATALOAD PUSH8 0xFFFFFFFFFFFFFFFF DUP1 DUP3 GT ISZERO PUSH2 0x422 JUMPI DUP4 DUP5 REVERT JUMPDEST DUP2 DUP6 ADD SWAP2 POP DUP6 PUSH1 0x1F DUP4 ADD SLT PUSH2 0x435 JUMPI DUP4 DUP5 REVERT JUMPDEST DUP2 CALLDATALOAD DUP2 DUP2 GT ISZERO PUSH2 0x443 JUMPI DUP5 DUP6 REVERT JUMPDEST DUP7 PUSH1 0x20 DUP1 DUP4 MUL DUP6 ADD ADD GT ISZERO PUSH2 0x456 JUMPI DUP5 DUP6 REVERT JUMPDEST PUSH1 0x20 SWAP3 SWAP1 SWAP3 ADD SWAP7 SWAP2 SWAP6 POP SWAP1 SWAP4 POP POP POP POP JUMP JUMPDEST PUSH1 0x0 DUP3 MLOAD PUSH2 0x47A DUP2 DUP5 PUSH1 0x20 DUP8 ADD PUSH2 0x55F JUMP JUMPDEST SWAP2 SWAP1 SWAP2 ADD SWAP3 SWAP2 POP POP JUMP JUMPDEST SWAP1 JUMP JUMPDEST PUSH1 0x1 PUSH1 0x1 PUSH1 0xA0 SHL SUB SWAP2 SWAP1 SWAP2 AND DUP2 MSTORE PUSH1 0x20 ADD SWAP1 JUMP JUMPDEST PUSH1 0x0 PUSH1 0x20 DUP1 DUP4 ADD DUP2 DUP5 MSTORE DUP1 DUP6 MLOAD DUP1 DUP4 MSTORE PUSH1 0x40 DUP7 ADD SWAP2 POP PUSH1 0x40 DUP5 DUP3 MUL DUP8 ADD ADD SWAP3 POP DUP4 DUP8 ADD DUP6 JUMPDEST DUP3 DUP2 LT ISZERO PUSH2 0x506 JUMPI DUP8 DUP6 SUB PUSH1 0x3F NOT ADD DUP5 MSTORE DUP2 MLOAD DUP1 MLOAD DUP1 DUP8 MSTORE PUSH2 0x4E7 DUP2 DUP10 DUP10 ADD DUP11 DUP6 ADD PUSH2 0x55F JUMP JUMPDEST PUSH1 0x1F ADD PUSH1 0x1F NOT AND SWAP6 SWAP1 SWAP6 ADD DUP7 ADD SWAP5 POP SWAP3 DUP6 ADD SWAP3 SWAP1 DUP6 ADD SWAP1 PUSH1 0x1 ADD PUSH2 0x4C0 JUMP JUMPDEST POP SWAP3 SWAP8 SWAP7 POP POP POP POP POP POP POP JUMP JUMPDEST PUSH1 0x0 DUP1 DUP4 CALLDATALOAD PUSH1 0x1E NOT DUP5 CALLDATASIZE SUB ADD DUP2 SLT PUSH2 0x529 JUMPI DUP3 DUP4 REVERT JUMPDEST DUP4 ADD DUP1 CALLDATALOAD SWAP2 POP PUSH8 0xFFFFFFFFFFFFFFFF DUP3 GT ISZERO PUSH2 0x543 JUMPI DUP3 DUP4 REVERT JUMPDEST PUSH1 0x20 ADD SWAP2 POP CALLDATASIZE DUP2 SWAP1 SUB DUP3 SGT ISZERO PUSH2 0x558 JUMPI PUSH1 0x0 DUP1 REVERT JUMPDEST SWAP3 POP SWAP3 SWAP1 POP JUMP JUMPDEST PUSH1 0x0 JUMPDEST DUP4 DUP2 LT ISZERO PUSH2 0x57A JUMPI DUP2 DUP2 ADD MLOAD DUP4 DUP3 ADD MSTORE PUSH1 0x20 ADD PUSH2 0x562 JUMP JUMPDEST DUP4 DUP2 GT ISZERO PUSH2 0x589 JUMPI PUSH1 0x0 DUP5 DUP5 ADD MSTORE JUMPDEST POP POP POP POP JUMP INVALID LOG2 PUSH5 0x6970667358 0x22 SLT KECCAK256 ISZERO SWAP14 0xD6 PUSH19 0xD42E9F3FEB72B160544BF67F46239124A7DE8C CODECOPY PUSH9 0x2E3BEE515F86FF6473 PUSH16 0x6C634300070600330000000000000000 "},"methodIdentifiers":{"getLibrary()":"7678922e","getVault()":"8d928af8","multicall(bytes[])":"ac9650d8"}}}}}