{"contracts/WeightedPoolFactory.sol":{"FactoryWidePauseWindow":{"abi":[{"inputs":[],"stateMutability":"nonpayable","type":"constructor"},{"inputs":[],"name":"getPauseConfiguration","outputs":[{"internalType":"uint256","name":"pauseWindowDuration","type":"uint256"},{"internalType":"uint256","name":"bufferPeriodDuration","type":"uint256"}],"stateMutability":"view","type":"function"}],"evm":{"bytecode":{"linkReferences":{},"object":"60a060405234801561001057600080fd5b50426276a7000160805260805160f461003560003980604e52806076525060f46000f3fe6080604052348015600f57600080fd5b506004361060285760003560e01c80632da47c4014602d575b600080fd5b60336048565b604051603f92919060b0565b60405180910390f35b600080427f000000000000000000000000000000000000000000000000000000000000000081101560a257807f000000000000000000000000000000000000000000000000000000000000000003925062278d00915060ab565b60009250600091505b509091565b91825260208201526040019056fea2646970667358221220ac302671473041aecc6245274053d581c850500210d1d7fe227c9b4b642d813364736f6c63430007060033","opcodes":"PUSH1 0xA0 PUSH1 0x40 MSTORE CALLVALUE DUP1 ISZERO PUSH2 0x10 JUMPI PUSH1 0x0 DUP1 REVERT JUMPDEST POP TIMESTAMP PUSH3 0x76A700 ADD PUSH1 0x80 MSTORE PUSH1 0x80 MLOAD PUSH1 0xF4 PUSH2 0x35 PUSH1 0x0 CODECOPY DUP1 PUSH1 0x4E MSTORE DUP1 PUSH1 0x76 MSTORE POP PUSH1 0xF4 PUSH1 0x0 RETURN INVALID PUSH1 0x80 PUSH1 0x40 MSTORE CALLVALUE DUP1 ISZERO PUSH1 0xF JUMPI PUSH1 0x0 DUP1 REVERT JUMPDEST POP PUSH1 0x4 CALLDATASIZE LT PUSH1 0x28 JUMPI PUSH1 0x0 CALLDATALOAD PUSH1 0xE0 SHR DUP1 PUSH4 0x2DA47C40 EQ PUSH1 0x2D JUMPI JUMPDEST PUSH1 0x0 DUP1 REVERT JUMPDEST PUSH1 0x33 PUSH1 0x48 JUMP JUMPDEST PUSH1 0x40 MLOAD PUSH1 0x3F SWAP3 SWAP2 SWAP1 PUSH1 0xB0 JUMP JUMPDEST PUSH1 0x40 MLOAD DUP1 SWAP2 SUB SWAP1 RETURN JUMPDEST PUSH1 0x0 DUP1 TIMESTAMP PUSH32 0x0 DUP2 LT ISZERO PUSH1 0xA2 JUMPI DUP1 PUSH32 0x0 SUB SWAP3 POP PUSH3 0x278D00 SWAP2 POP PUSH1 0xAB JUMP JUMPDEST PUSH1 0x0 SWAP3 POP PUSH1 0x0 SWAP2 POP JUMPDEST POP SWAP1 SWAP2 JUMP JUMPDEST SWAP2 DUP3 MSTORE PUSH1 0x20 DUP3 ADD MSTORE PUSH1 0x40 ADD SWAP1 JUMP INVALID LOG2 PUSH5 0x6970667358 0x22 SLT KECCAK256 0xAC ADDRESS 0x26 PUSH18 0x473041AECC6245274053D581C850500210D1 0xD7 INVALID 0x22 PUSH29 0x9B4B642D813364736F6C63430007060033000000000000000000000000 "},"methodIdentifiers":{"getPauseConfiguration()":"2da47c40"}}}}}