{"contracts/WeightedPoolFactory.sol":{"BalancerPoolToken":{"abi":[{"inputs":[{"internalType":"string","name":"tokenName","type":"string"},{"internalType":"string","name":"tokenSymbol","type":"string"}],"stateMutability":"nonpayable","type":"constructor"},{"anonymous":false,"inputs":[{"indexed":true,"internalType":"address","name":"owner","type":"address"},{"indexed":true,"internalType":"address","name":"spender","type":"address"},{"indexed":false,"internalType":"uint256","name":"value","type":"uint256"}],"name":"Approval","type":"event"},{"anonymous":false,"inputs":[{"indexed":true,"internalType":"address","name":"from","type":"address"},{"indexed":true,"internalType":"address","name":"to","type":"address"},{"indexed":false,"internalType":"uint256","name":"value","type":"uint256"}],"name":"Transfer","type":"event"},{"inputs":[],"name":"DOMAIN_SEPARATOR","outputs":[{"internalType":"bytes32","name":"","type":"bytes32"}],"stateMutability":"view","type":"function"},{"inputs":[{"internalType":"address","name":"owner","type":"address"},{"internalType":"address","name":"spender","type":"address"}],"name":"allowance","outputs":[{"internalType":"uint256","name":"","type":"uint256"}],"stateMutability":"view","type":"function"},{"inputs":[{"internalType":"address","name":"spender","type":"address"},{"internalType":"uint256","name":"amount","type":"uint256"}],"name":"approve","outputs":[{"internalType":"bool","name":"","type":"bool"}],"stateMutability":"nonpayable","type":"function"},{"inputs":[{"internalType":"address","name":"account","type":"address"}],"name":"balanceOf","outputs":[{"internalType":"uint256","name":"","type":"uint256"}],"stateMutability":"view","type":"function"},{"inputs":[],"name":"decimals","outputs":[{"internalType":"uint8","name":"","type":"uint8"}],"stateMutability":"pure","type":"function"},{"inputs":[{"internalType":"address","name":"spender","type":"address"},{"internalType":"uint256","name":"amount","type":"uint256"}],"name":"decreaseApproval","outputs":[{"internalType":"bool","name":"","type":"bool"}],"stateMutability":"nonpayable","type":"function"},{"inputs":[{"internalType":"address","name":"spender","type":"address"},{"internalType":"uint256","name":"amount","type":"uint256"}],"name":"increaseApproval","outputs":[{"internalType":"bool","name":"","type":"bool"}],"stateMutability":"nonpayable","type":"function"},{"inputs":[],"name":"name","outputs":[{"internalType":"string","name":"","type":"string"}],"stateMutability":"view","type":"function"},{"inputs":[{"internalType":"address","name":"owner","type":"address"}],"name":"nonces","outputs":[{"internalType":"uint256","name":"","type":"uint256"}],"stateMutability":"view","type":"function"},{"inputs":[{"internalType":"address","name":"owner","type":"address"},{"internalType":"address","name":"spender","type":"address"},{"internalType":"uint256","name":"value","type":"uint256"},{"internalType":"uint256","name":"deadline","type":"uint256"},{"internalType":"uint8","name":"v","type":"uint8"},{"internalType":"bytes32","name":"r","type":"bytes32"},{"internalType":"bytes32","name":"s","type":"bytes32"}],"name":"permit","outputs":[],"stateMutability":"nonpayable","type":"function"},{"inputs":[],"name":"symbol","outputs":[{"internalType":"string","name":"","type":"string"}],"stateMutability":"view","type":"function"},{"inputs":[],"name":"totalSupply","outputs":[{"internalType":"uint256","name":"","type":"uint256"}],"stateMutability":"view","type":"function"},{"inputs":[{"internalType":"address","name":"recipient","type":"address"},{"internalType":"uint256","name":"amount","type":"uint256"}],"name":"transfer","outputs":[{"internalType":"bool","name":"","type":"bool"}],"stateMutability":"nonpayable","type":"function"},{"inputs":[{"internalType":"address","name":"sender","type":"address"},{"internalType":"address","name":"recipient","type":"address"},{"internalType":"uint256","name":"amount","type":"uint256"}],"name":"transferFrom","outputs":[{"internalType":"bool","name":"","type":"bool"}],"stateMutability":"nonpayable","type":"function"}],"evm":{"bytecode":{"linkReferences":{},"object":"6101006040527f6e71edae12b1b97f4d1f60370fef10105fa2faae0126114a169c64845d6126c960e0523480156200003657600080fd5b5060405162000dd238038062000dd2833981016040819052620000599162000220565b6040805180820190915260018152603160f81b602080830191825284519085019081206080529151902060a0527f8b73c3c69bb8fe3d512ecc4cf759cc79239f7b179b0ffacaa9a75d522b39400f60c0528251620000ba91600391620000d9565b508051620000d0906004906020840190620000d9565b50505062000287565b828054600181600116156101000203166002900490600052602060002090601f0160209004810192826200011157600085556200015c565b82601f106200012c57805160ff19168380011785556200015c565b828001600101855582156200015c579182015b828111156200015c5782518255916020019190600101906200013f565b506200016a9291506200016e565b5090565b5b808211156200016a57600081556001016200016f565b600082601f83011262000196578081fd5b81516001600160401b0380821115620001ab57fe5b6040516020601f8401601f1916820181018381118382101715620001cb57fe5b6040528382528584018101871015620001e2578485fd5b8492505b83831015620002055785830181015182840182015291820191620001e6565b838311156200021657848185840101525b5095945050505050565b6000806040838503121562000233578182fd5b82516001600160401b03808211156200024a578384fd5b620002588683870162000185565b935060208501519150808211156200026e578283fd5b506200027d8582860162000185565b9150509250929050565b60805160a05160c05160e051610b15620002bd6000398061047f5250806107415250806107835250806107625250610b156000f3fe608060405234801561001057600080fd5b50600436106100ea5760003560e01c806370a082311161008c578063a9059cbb11610066578063a9059cbb146101b3578063d505accf146101c6578063d73dd623146101db578063dd62ed3e146101ee576100ea565b806370a08231146101855780637ecebe001461019857806395d89b41146101ab576100ea565b806323b872dd116100c857806323b872dd14610142578063313ce567146101555780633644e5151461016a5780636618846314610172576100ea565b806306fdde03146100ef578063095ea7b31461010d57806318160ddd1461012d575b600080fd5b6100f7610201565b6040516101049190610a7e565b60405180910390f35b61012061011b3660046109a8565b610297565b60405161010491906109ec565b6101356102ad565b60405161010491906109f7565b6101206101503660046108fc565b6102b3565b61015d610334565b6040516101049190610ad1565b610135610339565b6101206101803660046109a8565b610348565b6101356101933660046108b0565b6103a2565b6101356101a63660046108b0565b6103c1565b6100f76103dc565b6101206101c13660046109a8565b61043d565b6101d96101d4366004610937565b61044a565b005b6101206101e93660046109a8565b610593565b6101356101fc3660046108ca565b6105c9565b60038054604080516020601f600260001961010060018816150201909516949094049384018190048102820181019092528281526060939092909183018282801561028d5780601f106102625761010080835404028352916020019161028d565b820191906000526020600020905b81548152906001019060200180831161027057829003601f168201915b5050505050905090565b60006102a43384846105f4565b50600192915050565b60025490565b6001600160a01b038316600081815260016020908152604080832033808552925282205491926102f19114806102e95750838210155b61019761065c565b6102fc85858561066e565b336001600160a01b0386161480159061031757506000198114155b156103295761032985338584036105f4565b506001949350505050565b601290565b600061034361073d565b905090565b3360009081526001602090815260408083206001600160a01b03861684529091528120548083106103845761037f338560006105f4565b610398565b610398338561039384876107da565b6105f4565b5060019392505050565b6001600160a01b0381166000908152602081905260409020545b919050565b6001600160a01b031660009081526005602052604090205490565b60048054604080516020601f600260001961010060018816150201909516949094049384018190048102820181019092528281526060939092909183018282801561028d5780601f106102625761010080835404028352916020019161028d565b60006102a433848461066e565b6104588442111560d161065c565b6001600160a01b03871660009081526005602090815260408083205490519092916104af917f0000000000000000000000000000000000000000000000000000000000000000918c918c918c9188918d9101610a00565b60405160208183030381529060405280519060200120905060006104d2826107f0565b90506000600182888888604051600081526020016040526040516104f99493929190610a60565b6020604051602081039080840390855afa15801561051b573d6000803e3d6000fd5b5050604051601f190151915061055d90506001600160a01b0382161580159061055557508b6001600160a01b0316826001600160a01b0316145b6101f861065c565b6001600160a01b038b1660009081526005602052604090206001850190556105868b8b8b6105f4565b5050505050505050505050565b3360008181526001602090815260408083206001600160a01b038716845290915281205490916102a49185906103939086610829565b6001600160a01b03918216600090815260016020908152604080832093909416825291909152205490565b6001600160a01b0380841660008181526001602090815260408083209487168084529490915290819020849055517f8c5be1e5ebec7d5bd14f71427d1e84f3dd0314c0f7b2291e5b200ac8c7c3b9259061064f9085906109f7565b60405180910390a3505050565b8161066a5761066a81610842565b5050565b6001600160a01b0383166000908152602081905260409020546106968282101561019661065c565b6106ad6001600160a01b038416151561019961065c565b6001600160a01b038085166000908152602081905260408082208585039055918516815220546106dd9083610829565b6001600160a01b0380851660008181526020819052604090819020939093559151908616907fddf252ad1be2c89b69c2b068fc378daa952ba7f163c4a11628f55a4df523b3ef9061072f9086906109f7565b60405180910390a350505050565b60007f00000000000000000000000000000000000000000000000000000000000000007f00000000000000000000000000000000000000000000000000000000000000007f00000000000000000000000000000000000000000000000000000000000000006107aa610895565b306040516020016107bf959493929190610a34565b60405160208183030381529060405280519060200120905090565b60006107ea83831115600161065c565b50900390565b60006107fa61073d565b8260405160200161080c9291906109d1565b604051602081830303815290604052805190602001209050919050565b600082820161083b848210158361065c565b9392505050565b62461bcd60e51b6000908152602060045260076024526642414c23000030600a808404818106603090810160081b95839006959095019082900491820690940160101b939093010160c81b604452606490fd5b4690565b80356001600160a01b03811681146103bc57600080fd5b6000602082840312156108c1578081fd5b61083b82610899565b600080604083850312156108dc578081fd5b6108e583610899565b91506108f360208401610899565b90509250929050565b600080600060608486031215610910578081fd5b61091984610899565b925061092760208501610899565b9150604084013590509250925092565b600080600080600080600060e0888a031215610951578283fd5b61095a88610899565b965061096860208901610899565b95506040880135945060608801359350608088013560ff8116811461098b578384fd5b9699959850939692959460a0840135945060c09093013592915050565b600080604083850312156109ba578182fd5b6109c383610899565b946020939093013593505050565b61190160f01b81526002810192909252602282015260420190565b901515815260200190565b90815260200190565b9586526001600160a01b0394851660208701529290931660408501526060840152608083019190915260a082015260c00190565b9485526020850193909352604084019190915260608301526001600160a01b0316608082015260a00190565b93845260ff9290921660208401526040830152606082015260800190565b6000602080835283518082850152825b81811015610aaa57858101830151858201604001528201610a8e565b81811115610abb5783604083870101525b50601f01601f1916929092016040019392505050565b60ff9190911681526020019056fea26469706673582212207d248a8909a63cfbc7edeafb6aa55b5a1b82a2963796719008cf1f1adde8ebcb64736f6c63430007060033","opcodes":"PUSH2 0x100 PUSH1 0x40 MSTORE PUSH32 0x6E71EDAE12B1B97F4D1F60370FEF10105FA2FAAE0126114A169C64845D6126C9 PUSH1 0xE0 MSTORE CALLVALUE DUP1 ISZERO PUSH3 0x36 JUMPI PUSH1 0x0 DUP1 REVERT JUMPDEST POP PUSH1 0x40 MLOAD PUSH3 0xDD2 CODESIZE SUB DUP1 PUSH3 0xDD2 DUP4 CODECOPY DUP2 ADD PUSH1 0x40 DUP2 SWAP1 MSTORE PUSH3 0x59 SWAP2 PUSH3 0x220 JUMP JUMPDEST PUSH1 0x40 DUP1 MLOAD DUP1 DUP3 ADD SWAP1 SWAP2 MSTORE PUSH1 0x1 DUP2 MSTORE PUSH1 0x31 PUSH1 0xF8 SHL PUSH1 0x20 DUP1 DUP4 ADD SWAP2 DUP3 MSTORE DUP5 MLOAD SWAP1 DUP6 ADD SWAP1 DUP2 KECCAK256 PUSH1 0x80 MSTORE SWAP2 MLOAD SWAP1 KECCAK256 PUSH1 0xA0 MSTORE PUSH32 0x8B73C3C69BB8FE3D512ECC4CF759CC79239F7B179B0FFACAA9A75D522B39400F PUSH1 0xC0 MSTORE DUP3 MLOAD PUSH3 0xBA SWAP2 PUSH1 0x3 SWAP2 PUSH3 0xD9 JUMP JUMPDEST POP DUP1 MLOAD PUSH3 0xD0 SWAP1 PUSH1 0x4 SWAP1 PUSH1 0x20 DUP5 ADD SWAP1 PUSH3 0xD9 JUMP JUMPDEST POP POP POP PUSH3 0x287 JUMP JUMPDEST DUP3 DUP1 SLOAD PUSH1 0x1 DUP2 PUSH1 0x1 AND ISZERO PUSH2 0x100 MUL SUB AND PUSH1 0x2 SWAP1 DIV SWAP1 PUSH1 0x0 MSTORE PUSH1 0x20 PUSH1 0x0 KECCAK256 SWAP1 PUSH1 0x1F ADD PUSH1 0x20 SWAP1 DIV DUP2 ADD SWAP3 DUP3 PUSH3 0x111 JUMPI PUSH1 0x0 DUP6 SSTORE PUSH3 0x15C JUMP JUMPDEST DUP3 PUSH1 0x1F LT PUSH3 0x12C JUMPI DUP1 MLOAD PUSH1 0xFF NOT AND DUP4 DUP1 ADD OR DUP6 SSTORE PUSH3 0x15C JUMP JUMPDEST DUP3 DUP1 ADD PUSH1 0x1 ADD DUP6 SSTORE DUP3 ISZERO PUSH3 0x15C JUMPI SWAP2 DUP3 ADD JUMPDEST DUP3 DUP2 GT ISZERO PUSH3 0x15C JUMPI DUP3 MLOAD DUP3 SSTORE SWAP2 PUSH1 0x20 ADD SWAP2 SWAP1 PUSH1 0x1 ADD SWAP1 PUSH3 0x13F JUMP JUMPDEST POP PUSH3 0x16A SWAP3 SWAP2 POP PUSH3 0x16E JUMP JUMPDEST POP SWAP1 JUMP JUMPDEST JUMPDEST DUP1 DUP3 GT ISZERO PUSH3 0x16A JUMPI PUSH1 0x0 DUP2 SSTORE PUSH1 0x1 ADD PUSH3 0x16F JUMP JUMPDEST PUSH1 0x0 DUP3 PUSH1 0x1F DUP4 ADD SLT PUSH3 0x196 JUMPI DUP1 DUP2 REVERT JUMPDEST DUP2 MLOAD PUSH1 0x1 PUSH1 0x1 PUSH1 0x40 SHL SUB DUP1 DUP3 GT ISZERO PUSH3 0x1AB JUMPI INVALID JUMPDEST PUSH1 0x40 MLOAD PUSH1 0x20 PUSH1 0x1F DUP5 ADD PUSH1 0x1F NOT AND DUP3 ADD DUP2 ADD DUP4 DUP2 GT DUP4 DUP3 LT OR ISZERO PUSH3 0x1CB JUMPI INVALID JUMPDEST PUSH1 0x40 MSTORE DUP4 DUP3 MSTORE DUP6 DUP5 ADD DUP2 ADD DUP8 LT ISZERO PUSH3 0x1E2 JUMPI DUP5 DUP6 REVERT JUMPDEST DUP5 SWAP3 POP JUMPDEST DUP4 DUP4 LT ISZERO PUSH3 0x205 JUMPI DUP6 DUP4 ADD DUP2 ADD MLOAD DUP3 DUP5 ADD DUP3 ADD MSTORE SWAP2 DUP3 ADD SWAP2 PUSH3 0x1E6 JUMP JUMPDEST DUP4 DUP4 GT ISZERO PUSH3 0x216 JUMPI DUP5 DUP2 DUP6 DUP5 ADD ADD MSTORE JUMPDEST POP SWAP6 SWAP5 POP POP POP POP POP JUMP JUMPDEST PUSH1 0x0 DUP1 PUSH1 0x40 DUP4 DUP6 SUB SLT ISZERO PUSH3 0x233 JUMPI DUP2 DUP3 REVERT JUMPDEST DUP3 MLOAD PUSH1 0x1 PUSH1 0x1 PUSH1 0x40 SHL SUB DUP1 DUP3 GT ISZERO PUSH3 0x24A JUMPI DUP4 DUP5 REVERT JUMPDEST PUSH3 0x258 DUP7 DUP4 DUP8 ADD PUSH3 0x185 JUMP JUMPDEST SWAP4 POP PUSH1 0x20 DUP6 ADD MLOAD SWAP2 POP DUP1 DUP3 GT ISZERO PUSH3 0x26E JUMPI DUP3 DUP4 REVERT JUMPDEST POP PUSH3 0x27D DUP6 DUP3 DUP7 ADD PUSH3 0x185 JUMP JUMPDEST SWAP2 POP POP SWAP3 POP SWAP3 SWAP1 POP JUMP JUMPDEST PUSH1 0x80 MLOAD PUSH1 0xA0 MLOAD PUSH1 0xC0 MLOAD PUSH1 0xE0 MLOAD PUSH2 0xB15 PUSH3 0x2BD PUSH1 0x0 CODECOPY DUP1 PUSH2 0x47F MSTORE POP DUP1 PUSH2 0x741 MSTORE POP DUP1 PUSH2 0x783 MSTORE POP DUP1 PUSH2 0x762 MSTORE POP PUSH2 0xB15 PUSH1 0x0 RETURN INVALID PUSH1 0x80 PUSH1 0x40 MSTORE CALLVALUE DUP1 ISZERO PUSH2 0x10 JUMPI PUSH1 0x0 DUP1 REVERT JUMPDEST POP PUSH1 0x4 CALLDATASIZE LT PUSH2 0xEA JUMPI PUSH1 0x0 CALLDATALOAD PUSH1 0xE0 SHR DUP1 PUSH4 0x70A08231 GT PUSH2 0x8C JUMPI DUP1 PUSH4 0xA9059CBB GT PUSH2 0x66 JUMPI DUP1 PUSH4 0xA9059CBB EQ PUSH2 0x1B3 JUMPI DUP1 PUSH4 0xD505ACCF EQ PUSH2 0x1C6 JUMPI DUP1 PUSH4 0xD73DD623 EQ PUSH2 0x1DB JUMPI DUP1 PUSH4 0xDD62ED3E EQ PUSH2 0x1EE JUMPI PUSH2 0xEA JUMP JUMPDEST DUP1 PUSH4 0x70A08231 EQ PUSH2 0x185 JUMPI DUP1 PUSH4 0x7ECEBE00 EQ PUSH2 0x198 JUMPI DUP1 PUSH4 0x95D89B41 EQ PUSH2 0x1AB JUMPI PUSH2 0xEA JUMP JUMPDEST DUP1 PUSH4 0x23B872DD GT PUSH2 0xC8 JUMPI DUP1 PUSH4 0x23B872DD EQ PUSH2 0x142 JUMPI DUP1 PUSH4 0x313CE567 EQ PUSH2 0x155 JUMPI DUP1 PUSH4 0x3644E515 EQ PUSH2 0x16A JUMPI DUP1 PUSH4 0x66188463 EQ PUSH2 0x172 JUMPI PUSH2 0xEA JUMP JUMPDEST DUP1 PUSH4 0x6FDDE03 EQ PUSH2 0xEF JUMPI DUP1 PUSH4 0x95EA7B3 EQ PUSH2 0x10D JUMPI DUP1 PUSH4 0x18160DDD EQ PUSH2 0x12D JUMPI JUMPDEST PUSH1 0x0 DUP1 REVERT JUMPDEST PUSH2 0xF7 PUSH2 0x201 JUMP JUMPDEST PUSH1 0x40 MLOAD PUSH2 0x104 SWAP2 SWAP1 PUSH2 0xA7E JUMP JUMPDEST PUSH1 0x40 MLOAD DUP1 SWAP2 SUB SWAP1 RETURN JUMPDEST PUSH2 0x120 PUSH2 0x11B CALLDATASIZE PUSH1 0x4 PUSH2 0x9A8 JUMP JUMPDEST PUSH2 0x297 JUMP JUMPDEST PUSH1 0x40 MLOAD PUSH2 0x104 SWAP2 SWAP1 PUSH2 0x9EC JUMP JUMPDEST PUSH2 0x135 PUSH2 0x2AD JUMP JUMPDEST PUSH1 0x40 MLOAD PUSH2 0x104 SWAP2 SWAP1 PUSH2 0x9F7 JUMP JUMPDEST PUSH2 0x120 PUSH2 0x150 CALLDATASIZE PUSH1 0x4 PUSH2 0x8FC JUMP JUMPDEST PUSH2 0x2B3 JUMP JUMPDEST PUSH2 0x15D PUSH2 0x334 JUMP JUMPDEST PUSH1 0x40 MLOAD PUSH2 0x104 SWAP2 SWAP1 PUSH2 0xAD1 JUMP JUMPDEST PUSH2 0x135 PUSH2 0x339 JUMP JUMPDEST PUSH2 0x120 PUSH2 0x180 CALLDATASIZE PUSH1 0x4 PUSH2 0x9A8 JUMP JUMPDEST PUSH2 0x348 JUMP JUMPDEST PUSH2 0x135 PUSH2 0x193 CALLDATASIZE PUSH1 0x4 PUSH2 0x8B0 JUMP JUMPDEST PUSH2 0x3A2 JUMP JUMPDEST PUSH2 0x135 PUSH2 0x1A6 CALLDATASIZE PUSH1 0x4 PUSH2 0x8B0 JUMP JUMPDEST PUSH2 0x3C1 JUMP JUMPDEST PUSH2 0xF7 PUSH2 0x3DC JUMP JUMPDEST PUSH2 0x120 PUSH2 0x1C1 CALLDATASIZE PUSH1 0x4 PUSH2 0x9A8 JUMP JUMPDEST PUSH2 0x43D JUMP JUMPDEST PUSH2 0x1D9 PUSH2 0x1D4 CALLDATASIZE PUSH1 0x4 PUSH2 0x937 JUMP JUMPDEST PUSH2 0x44A JUMP JUMPDEST STOP JUMPDEST PUSH2 0x120 PUSH2 0x1E9 CALLDATASIZE PUSH1 0x4 PUSH2 0x9A8 JUMP JUMPDEST PUSH2 0x593 JUMP JUMPDEST PUSH2 0x135 PUSH2 0x1FC CALLDATASIZE PUSH1 0x4 PUSH2 0x8CA JUMP JUMPDEST PUSH2 0x5C9 JUMP JUMPDEST PUSH1 0x3 DUP1 SLOAD PUSH1 0x40 DUP1 MLOAD PUSH1 0x20 PUSH1 0x1F PUSH1 0x2 PUSH1 0x0 NOT PUSH2 0x100 PUSH1 0x1 DUP9 AND ISZERO MUL ADD SWAP1 SWAP6 AND SWAP5 SWAP1 SWAP5 DIV SWAP4 DUP5 ADD DUP2 SWAP1 DIV DUP2 MUL DUP3 ADD DUP2 ADD SWAP1 SWAP3 MSTORE DUP3 DUP2 MSTORE PUSH1 0x60 SWAP4 SWAP1 SWAP3 SWAP1 SWAP2 DUP4 ADD DUP3 DUP3 DUP1 ISZERO PUSH2 0x28D JUMPI DUP1 PUSH1 0x1F LT PUSH2 0x262 JUMPI PUSH2 0x100 DUP1 DUP4 SLOAD DIV MUL DUP4 MSTORE SWAP2 PUSH1 0x20 ADD SWAP2 PUSH2 0x28D JUMP JUMPDEST DUP3 ADD SWAP2 SWAP1 PUSH1 0x0 MSTORE PUSH1 0x20 PUSH1 0x0 KECCAK256 SWAP1 JUMPDEST DUP2 SLOAD DUP2 MSTORE SWAP1 PUSH1 0x1 ADD SWAP1 PUSH1 0x20 ADD DUP1 DUP4 GT PUSH2 0x270 JUMPI DUP3 SWAP1 SUB PUSH1 0x1F AND DUP3 ADD SWAP2 JUMPDEST POP POP POP POP POP SWAP1 POP SWAP1 JUMP JUMPDEST PUSH1 0x0 PUSH2 0x2A4 CALLER DUP5 DUP5 PUSH2 0x5F4 JUMP JUMPDEST POP PUSH1 0x1 SWAP3 SWAP2 POP POP JUMP JUMPDEST PUSH1 0x2 SLOAD SWAP1 JUMP JUMPDEST PUSH1 0x1 PUSH1 0x1 PUSH1 0xA0 SHL SUB DUP4 AND PUSH1 0x0 DUP2 DUP2 MSTORE PUSH1 0x1 PUSH1 0x20 SWAP1 DUP2 MSTORE PUSH1 0x40 DUP1 DUP4 KECCAK256 CALLER DUP1 DUP6 MSTORE SWAP3 MSTORE DUP3 KECCAK256 SLOAD SWAP2 SWAP3 PUSH2 0x2F1 SWAP2 EQ DUP1 PUSH2 0x2E9 JUMPI POP DUP4 DUP3 LT ISZERO JUMPDEST PUSH2 0x197 PUSH2 0x65C JUMP JUMPDEST PUSH2 0x2FC DUP6 DUP6 DUP6 PUSH2 0x66E JUMP JUMPDEST CALLER PUSH1 0x1 PUSH1 0x1 PUSH1 0xA0 SHL SUB DUP7 AND EQ DUP1 ISZERO SWAP1 PUSH2 0x317 JUMPI POP PUSH1 0x0 NOT DUP2 EQ ISZERO JUMPDEST ISZERO PUSH2 0x329 JUMPI PUSH2 0x329 DUP6 CALLER DUP6 DUP5 SUB PUSH2 0x5F4 JUMP JUMPDEST POP PUSH1 0x1 SWAP5 SWAP4 POP POP POP POP JUMP JUMPDEST PUSH1 0x12 SWAP1 JUMP JUMPDEST PUSH1 0x0 PUSH2 0x343 PUSH2 0x73D JUMP JUMPDEST SWAP1 POP SWAP1 JUMP JUMPDEST CALLER PUSH1 0x0 SWAP1 DUP2 MSTORE PUSH1 0x1 PUSH1 0x20 SWAP1 DUP2 MSTORE PUSH1 0x40 DUP1 DUP4 KECCAK256 PUSH1 0x1 PUSH1 0x1 PUSH1 0xA0 SHL SUB DUP7 AND DUP5 MSTORE SWAP1 SWAP2 MSTORE DUP2 KECCAK256 SLOAD DUP1 DUP4 LT PUSH2 0x384 JUMPI PUSH2 0x37F CALLER DUP6 PUSH1 0x0 PUSH2 0x5F4 JUMP JUMPDEST PUSH2 0x398 JUMP JUMPDEST PUSH2 0x398 CALLER DUP6 PUSH2 0x393 DUP5 DUP8 PUSH2 0x7DA JUMP JUMPDEST PUSH2 0x5F4 JUMP JUMPDEST POP PUSH1 0x1 SWAP4 SWAP3 POP POP POP JUMP JUMPDEST PUSH1 0x1 PUSH1 0x1 PUSH1 0xA0 SHL SUB DUP2 AND PUSH1 0x0 SWAP1 DUP2 MSTORE PUSH1 0x20 DUP2 SWAP1 MSTORE PUSH1 0x40 SWAP1 KECCAK256 SLOAD JUMPDEST SWAP2 SWAP1 POP JUMP JUMPDEST PUSH1 0x1 PUSH1 0x1 PUSH1 0xA0 SHL SUB AND PUSH1 0x0 SWAP1 DUP2 MSTORE PUSH1 0x5 PUSH1 0x20 MSTORE PUSH1 0x40 SWAP1 KECCAK256 SLOAD SWAP1 JUMP JUMPDEST PUSH1 0x4 DUP1 SLOAD PUSH1 0x40 DUP1 MLOAD PUSH1 0x20 PUSH1 0x1F PUSH1 0x2 PUSH1 0x0 NOT PUSH2 0x100 PUSH1 0x1 DUP9 AND ISZERO MUL ADD SWAP1 SWAP6 AND SWAP5 SWAP1 SWAP5 DIV SWAP4 DUP5 ADD DUP2 SWAP1 DIV DUP2 MUL DUP3 ADD DUP2 ADD SWAP1 SWAP3 MSTORE DUP3 DUP2 MSTORE PUSH1 0x60 SWAP4 SWAP1 SWAP3 SWAP1 SWAP2 DUP4 ADD DUP3 DUP3 DUP1 ISZERO PUSH2 0x28D JUMPI DUP1 PUSH1 0x1F LT PUSH2 0x262 JUMPI PUSH2 0x100 DUP1 DUP4 SLOAD DIV MUL DUP4 MSTORE SWAP2 PUSH1 0x20 ADD SWAP2 PUSH2 0x28D JUMP JUMPDEST PUSH1 0x0 PUSH2 0x2A4 CALLER DUP5 DUP5 PUSH2 0x66E JUMP JUMPDEST PUSH2 0x458 DUP5 TIMESTAMP GT ISZERO PUSH1 0xD1 PUSH2 0x65C JUMP JUMPDEST PUSH1 0x1 PUSH1 0x1 PUSH1 0xA0 SHL SUB DUP8 AND PUSH1 0x0 SWAP1 DUP2 MSTORE PUSH1 0x5 PUSH1 0x20 SWAP1 DUP2 MSTORE PUSH1 0x40 DUP1 DUP4 KECCAK256 SLOAD SWAP1 MLOAD SWAP1 SWAP3 SWAP2 PUSH2 0x4AF SWAP2 PUSH32 0x0 SWAP2 DUP13 SWAP2 DUP13 SWAP2 DUP13 SWAP2 DUP9 SWAP2 DUP14 SWAP2 ADD PUSH2 0xA00 JUMP JUMPDEST PUSH1 0x40 MLOAD PUSH1 0x20 DUP2 DUP4 SUB SUB DUP2 MSTORE SWAP1 PUSH1 0x40 MSTORE DUP1 MLOAD SWAP1 PUSH1 0x20 ADD KECCAK256 SWAP1 POP PUSH1 0x0 PUSH2 0x4D2 DUP3 PUSH2 0x7F0 JUMP JUMPDEST SWAP1 POP PUSH1 0x0 PUSH1 0x1 DUP3 DUP9 DUP9 DUP9 PUSH1 0x40 MLOAD PUSH1 0x0 DUP2 MSTORE PUSH1 0x20 ADD PUSH1 0x40 MSTORE PUSH1 0x40 MLOAD PUSH2 0x4F9 SWAP5 SWAP4 SWAP3 SWAP2 SWAP1 PUSH2 0xA60 JUMP JUMPDEST PUSH1 0x20 PUSH1 0x40 MLOAD PUSH1 0x20 DUP2 SUB SWAP1 DUP1 DUP5 SUB SWAP1 DUP6 GAS STATICCALL ISZERO DUP1 ISZERO PUSH2 0x51B JUMPI RETURNDATASIZE PUSH1 0x0 DUP1 RETURNDATACOPY RETURNDATASIZE PUSH1 0x0 REVERT JUMPDEST POP POP PUSH1 0x40 MLOAD PUSH1 0x1F NOT ADD MLOAD SWAP2 POP PUSH2 0x55D SWAP1 POP PUSH1 0x1 PUSH1 0x1 PUSH1 0xA0 SHL SUB DUP3 AND ISZERO DUP1 ISZERO SWAP1 PUSH2 0x555 JUMPI POP DUP12 PUSH1 0x1 PUSH1 0x1 PUSH1 0xA0 SHL SUB AND DUP3 PUSH1 0x1 PUSH1 0x1 PUSH1 0xA0 SHL SUB AND EQ JUMPDEST PUSH2 0x1F8 PUSH2 0x65C JUMP JUMPDEST PUSH1 0x1 PUSH1 0x1 PUSH1 0xA0 SHL SUB DUP12 AND PUSH1 0x0 SWAP1 DUP2 MSTORE PUSH1 0x5 PUSH1 0x20 MSTORE PUSH1 0x40 SWAP1 KECCAK256 PUSH1 0x1 DUP6 ADD SWAP1 SSTORE PUSH2 0x586 DUP12 DUP12 DUP12 PUSH2 0x5F4 JUMP JUMPDEST POP POP POP POP POP POP POP POP POP POP POP JUMP JUMPDEST CALLER PUSH1 0x0 DUP2 DUP2 MSTORE PUSH1 0x1 PUSH1 0x20 SWAP1 DUP2 MSTORE PUSH1 0x40 DUP1 DUP4 KECCAK256 PUSH1 0x1 PUSH1 0x1 PUSH1 0xA0 SHL SUB DUP8 AND DUP5 MSTORE SWAP1 SWAP2 MSTORE DUP2 KECCAK256 SLOAD SWAP1 SWAP2 PUSH2 0x2A4 SWAP2 DUP6 SWAP1 PUSH2 0x393 SWAP1 DUP7 PUSH2 0x829 JUMP JUMPDEST PUSH1 0x1 PUSH1 0x1 PUSH1 0xA0 SHL SUB SWAP2 DUP3 AND PUSH1 0x0 SWAP1 DUP2 MSTORE PUSH1 0x1 PUSH1 0x20 SWAP1 DUP2 MSTORE PUSH1 0x40 DUP1 DUP4 KECCAK256 SWAP4 SWAP1 SWAP5 AND DUP3 MSTORE SWAP2 SWAP1 SWAP2 MSTORE KECCAK256 SLOAD SWAP1 JUMP JUMPDEST PUSH1 0x1 PUSH1 0x1 PUSH1 0xA0 SHL SUB DUP1 DUP5 AND PUSH1 0x0 DUP2 DUP2 MSTORE PUSH1 0x1 PUSH1 0x20 SWAP1 DUP2 MSTORE PUSH1 0x40 DUP1 DUP4 KECCAK256 SWAP5 DUP8 AND DUP1 DUP5 MSTORE SWAP5 SWAP1 SWAP2 MSTORE SWAP1 DUP2 SWAP1 KECCAK256 DUP5 SWAP1 SSTORE MLOAD PUSH32 0x8C5BE1E5EBEC7D5BD14F71427D1E84F3DD0314C0F7B2291E5B200AC8C7C3B925 SWAP1 PUSH2 0x64F SWAP1 DUP6 SWAP1 PUSH2 0x9F7 JUMP JUMPDEST PUSH1 0x40 MLOAD DUP1 SWAP2 SUB SWAP1 LOG3 POP POP POP JUMP JUMPDEST DUP2 PUSH2 0x66A JUMPI PUSH2 0x66A DUP2 PUSH2 0x842 JUMP JUMPDEST POP POP JUMP JUMPDEST PUSH1 0x1 PUSH1 0x1 PUSH1 0xA0 SHL SUB DUP4 AND PUSH1 0x0 SWAP1 DUP2 MSTORE PUSH1 0x20 DUP2 SWAP1 MSTORE PUSH1 0x40 SWAP1 KECCAK256 SLOAD PUSH2 0x696 DUP3 DUP3 LT ISZERO PUSH2 0x196 PUSH2 0x65C JUMP JUMPDEST PUSH2 0x6AD PUSH1 0x1 PUSH1 0x1 PUSH1 0xA0 SHL SUB DUP5 AND ISZERO ISZERO PUSH2 0x199 PUSH2 0x65C JUMP JUMPDEST PUSH1 0x1 PUSH1 0x1 PUSH1 0xA0 SHL SUB DUP1 DUP6 AND PUSH1 0x0 SWAP1 DUP2 MSTORE PUSH1 0x20 DUP2 SWAP1 MSTORE PUSH1 0x40 DUP1 DUP3 KECCAK256 DUP6 DUP6 SUB SWAP1 SSTORE SWAP2 DUP6 AND DUP2 MSTORE KECCAK256 SLOAD PUSH2 0x6DD SWAP1 DUP4 PUSH2 0x829 JUMP JUMPDEST PUSH1 0x1 PUSH1 0x1 PUSH1 0xA0 SHL SUB DUP1 DUP6 AND PUSH1 0x0 DUP2 DUP2 MSTORE PUSH1 0x20 DUP2 SWAP1 MSTORE PUSH1 0x40 SWAP1 DUP2 SWAP1 KECCAK256 SWAP4 SWAP1 SWAP4 SSTORE SWAP2 MLOAD SWAP1 DUP7 AND SWAP1 PUSH32 0xDDF252AD1BE2C89B69C2B068FC378DAA952BA7F163C4A11628F55A4DF523B3EF SWAP1 PUSH2 0x72F SWAP1 DUP7 SWAP1 PUSH2 0x9F7 JUMP JUMPDEST PUSH1 0x40 MLOAD DUP1 SWAP2 SUB SWAP1 LOG3 POP POP POP POP JUMP JUMPDEST PUSH1 0x0 PUSH32 0x0 PUSH32 0x0 PUSH32 0x0 PUSH2 0x7AA PUSH2 0x895 JUMP JUMPDEST ADDRESS PUSH1 0x40 MLOAD PUSH1 0x20 ADD PUSH2 0x7BF SWAP6 SWAP5 SWAP4 SWAP3 SWAP2 SWAP1 PUSH2 0xA34 JUMP JUMPDEST PUSH1 0x40 MLOAD PUSH1 0x20 DUP2 DUP4 SUB SUB DUP2 MSTORE SWAP1 PUSH1 0x40 MSTORE DUP1 MLOAD SWAP1 PUSH1 0x20 ADD KECCAK256 SWAP1 POP SWAP1 JUMP JUMPDEST PUSH1 0x0 PUSH2 0x7EA DUP4 DUP4 GT ISZERO PUSH1 0x1 PUSH2 0x65C JUMP JUMPDEST POP SWAP1 SUB SWAP1 JUMP JUMPDEST PUSH1 0x0 PUSH2 0x7FA PUSH2 0x73D JUMP JUMPDEST DUP3 PUSH1 0x40 MLOAD PUSH1 0x20 ADD PUSH2 0x80C SWAP3 SWAP2 SWAP1 PUSH2 0x9D1 JUMP JUMPDEST PUSH1 0x40 MLOAD PUSH1 0x20 DUP2 DUP4 SUB SUB DUP2 MSTORE SWAP1 PUSH1 0x40 MSTORE DUP1 MLOAD SWAP1 PUSH1 0x20 ADD KECCAK256 SWAP1 POP SWAP2 SWAP1 POP JUMP JUMPDEST PUSH1 0x0 DUP3 DUP3 ADD PUSH2 0x83B DUP5 DUP3 LT ISZERO DUP4 PUSH2 0x65C JUMP JUMPDEST SWAP4 SWAP3 POP POP POP JUMP JUMPDEST PUSH3 0x461BCD PUSH1 0xE5 SHL PUSH1 0x0 SWAP1 DUP2 MSTORE PUSH1 0x20 PUSH1 0x4 MSTORE PUSH1 0x7 PUSH1 0x24 MSTORE PUSH7 0x42414C23000030 PUSH1 0xA DUP1 DUP5 DIV DUP2 DUP2 MOD PUSH1 0x30 SWAP1 DUP2 ADD PUSH1 0x8 SHL SWAP6 DUP4 SWAP1 MOD SWAP6 SWAP1 SWAP6 ADD SWAP1 DUP3 SWAP1 DIV SWAP2 DUP3 MOD SWAP1 SWAP5 ADD PUSH1 0x10 SHL SWAP4 SWAP1 SWAP4 ADD ADD PUSH1 0xC8 SHL PUSH1 0x44 MSTORE PUSH1 0x64 SWAP1 REVERT JUMPDEST CHAINID SWAP1 JUMP JUMPDEST DUP1 CALLDATALOAD PUSH1 0x1 PUSH1 0x1 PUSH1 0xA0 SHL SUB DUP2 AND DUP2 EQ PUSH2 0x3BC JUMPI PUSH1 0x0 DUP1 REVERT JUMPDEST PUSH1 0x0 PUSH1 0x20 DUP3 DUP5 SUB SLT ISZERO PUSH2 0x8C1 JUMPI DUP1 DUP2 REVERT JUMPDEST PUSH2 0x83B DUP3 PUSH2 0x899 JUMP JUMPDEST PUSH1 0x0 DUP1 PUSH1 0x40 DUP4 DUP6 SUB SLT ISZERO PUSH2 0x8DC JUMPI DUP1 DUP2 REVERT JUMPDEST PUSH2 0x8E5 DUP4 PUSH2 0x899 JUMP JUMPDEST SWAP2 POP PUSH2 0x8F3 PUSH1 0x20 DUP5 ADD PUSH2 0x899 JUMP JUMPDEST SWAP1 POP SWAP3 POP SWAP3 SWAP1 POP JUMP JUMPDEST PUSH1 0x0 DUP1 PUSH1 0x0 PUSH1 0x60 DUP5 DUP7 SUB SLT ISZERO PUSH2 0x910 JUMPI DUP1 DUP2 REVERT JUMPDEST PUSH2 0x919 DUP5 PUSH2 0x899 JUMP JUMPDEST SWAP3 POP PUSH2 0x927 PUSH1 0x20 DUP6 ADD PUSH2 0x899 JUMP JUMPDEST SWAP2 POP PUSH1 0x40 DUP5 ADD CALLDATALOAD SWAP1 POP SWAP3 POP SWAP3 POP SWAP3 JUMP JUMPDEST PUSH1 0x0 DUP1 PUSH1 0x0 DUP1 PUSH1 0x0 DUP1 PUSH1 0x0 PUSH1 0xE0 DUP9 DUP11 SUB SLT ISZERO PUSH2 0x951 JUMPI DUP3 DUP4 REVERT JUMPDEST PUSH2 0x95A DUP9 PUSH2 0x899 JUMP JUMPDEST SWAP7 POP PUSH2 0x968 PUSH1 0x20 DUP10 ADD PUSH2 0x899 JUMP JUMPDEST SWAP6 POP PUSH1 0x40 DUP9 ADD CALLDATALOAD SWAP5 POP PUSH1 0x60 DUP9 ADD CALLDATALOAD SWAP4 POP PUSH1 0x80 DUP9 ADD CALLDATALOAD PUSH1 0xFF DUP2 AND DUP2 EQ PUSH2 0x98B JUMPI DUP4 DUP5 REVERT JUMPDEST SWAP7 SWAP10 SWAP6 SWAP9 POP SWAP4 SWAP7 SWAP3 SWAP6 SWAP5 PUSH1 0xA0 DUP5 ADD CALLDATALOAD SWAP5 POP PUSH1 0xC0 SWAP1 SWAP4 ADD CALLDATALOAD SWAP3 SWAP2 POP POP JUMP JUMPDEST PUSH1 0x0 DUP1 PUSH1 0x40 DUP4 DUP6 SUB SLT ISZERO PUSH2 0x9BA JUMPI DUP2 DUP3 REVERT JUMPDEST PUSH2 0x9C3 DUP4 PUSH2 0x899 JUMP JUMPDEST SWAP5 PUSH1 0x20 SWAP4 SWAP1 SWAP4 ADD CALLDATALOAD SWAP4 POP POP POP JUMP JUMPDEST PUSH2 0x1901 PUSH1 0xF0 SHL DUP2 MSTORE PUSH1 0x2 DUP2 ADD SWAP3 SWAP1 SWAP3 MSTORE PUSH1 0x22 DUP3 ADD MSTORE PUSH1 0x42 ADD SWAP1 JUMP JUMPDEST SWAP1 ISZERO ISZERO DUP2 MSTORE PUSH1 0x20 ADD SWAP1 JUMP JUMPDEST SWAP1 DUP2 MSTORE PUSH1 0x20 ADD SWAP1 JUMP JUMPDEST SWAP6 DUP7 MSTORE PUSH1 0x1 PUSH1 0x1 PUSH1 0xA0 SHL SUB SWAP5 DUP6 AND PUSH1 0x20 DUP8 ADD MSTORE SWAP3 SWAP1 SWAP4 AND PUSH1 0x40 DUP6 ADD MSTORE PUSH1 0x60 DUP5 ADD MSTORE PUSH1 0x80 DUP4 ADD SWAP2 SWAP1 SWAP2 MSTORE PUSH1 0xA0 DUP3 ADD MSTORE PUSH1 0xC0 ADD SWAP1 JUMP JUMPDEST SWAP5 DUP6 MSTORE PUSH1 0x20 DUP6 ADD SWAP4 SWAP1 SWAP4 MSTORE PUSH1 0x40 DUP5 ADD SWAP2 SWAP1 SWAP2 MSTORE PUSH1 0x60 DUP4 ADD MSTORE PUSH1 0x1 PUSH1 0x1 PUSH1 0xA0 SHL SUB AND PUSH1 0x80 DUP3 ADD MSTORE PUSH1 0xA0 ADD SWAP1 JUMP JUMPDEST SWAP4 DUP5 MSTORE PUSH1 0xFF SWAP3 SWAP1 SWAP3 AND PUSH1 0x20 DUP5 ADD MSTORE PUSH1 0x40 DUP4 ADD MSTORE PUSH1 0x60 DUP3 ADD MSTORE PUSH1 0x80 ADD SWAP1 JUMP JUMPDEST PUSH1 0x0 PUSH1 0x20 DUP1 DUP4 MSTORE DUP4 MLOAD DUP1 DUP3 DUP6 ADD MSTORE DUP3 JUMPDEST DUP2 DUP2 LT ISZERO PUSH2 0xAAA JUMPI DUP6 DUP2 ADD DUP4 ADD MLOAD DUP6 DUP3 ADD PUSH1 0x40 ADD MSTORE DUP3 ADD PUSH2 0xA8E JUMP JUMPDEST DUP2 DUP2 GT ISZERO PUSH2 0xABB JUMPI DUP4 PUSH1 0x40 DUP4 DUP8 ADD ADD MSTORE JUMPDEST POP PUSH1 0x1F ADD PUSH1 0x1F NOT AND SWAP3 SWAP1 SWAP3 ADD PUSH1 0x40 ADD SWAP4 SWAP3 POP POP POP JUMP JUMPDEST PUSH1 0xFF SWAP2 SWAP1 SWAP2 AND DUP2 MSTORE PUSH1 0x20 ADD SWAP1 JUMP INVALID LOG2 PUSH5 0x6970667358 0x22 SLT KECCAK256 PUSH30 0x248A8909A63CFBC7EDEAFB6AA55B5A1B82A2963796719008CF1F1ADDE8EB 0xCB PUSH5 0x736F6C6343 STOP SMOD MOD STOP CALLER "},"methodIdentifiers":{"DOMAIN_SEPARATOR()":"3644e515","allowance(address,address)":"dd62ed3e","approve(address,uint256)":"095ea7b3","balanceOf(address)":"70a08231","decimals()":"313ce567","decreaseApproval(address,uint256)":"66188463","increaseApproval(address,uint256)":"d73dd623","name()":"06fdde03","nonces(address)":"7ecebe00","permit(address,address,uint256,uint256,uint8,bytes32,bytes32)":"d505accf","symbol()":"95d89b41","totalSupply()":"18160ddd","transfer(address,uint256)":"a9059cbb","transferFrom(address,address,uint256)":"23b872dd"}}}}}