{
  "_format": "hh-sol-artifact-1",
  "contractName": "CompoundLinearPool",
  "sourceName": "contracts/CompoundLinearPoolFactory.sol",
  "abi": [
    {
      "inputs": [
        {
          "internalType": "contract IVault",
          "name": "vault",
          "type": "address"
        },
        {
          "internalType": "string",
          "name": "name",
          "type": "string"
        },
        {
          "internalType": "string",
          "name": "symbol",
          "type": "string"
        },
        {
          "internalType": "contract IERC20",
          "name": "mainToken",
          "type": "address"
        },
        {
          "internalType": "contract IERC20",
          "name": "wrappedToken",
          "type": "address"
        },
        {
          "internalType": "uint256",
          "name": "upperTarget",
          "type": "uint256"
        },
        {
          "internalType": "uint256",
          "name": "swapFeePercentage",
          "type": "uint256"
        },
        {
          "internalType": "uint256",
          "name": "pauseWindowDuration",
          "type": "uint256"
        },
        {
          "internalType": "uint256",
          "name": "bufferPeriodDuration",
          "type": "uint256"
        },
        {
          "internalType": "address",
          "name": "owner",
          "type": "address"
        }
      ],
      "stateMutability": "nonpayable",
      "type": "constructor"
    },
    {
      "anonymous": false,
      "inputs": [
        {
          "indexed": true,
          "internalType": "address",
          "name": "owner",
          "type": "address"
        },
        {
          "indexed": true,
          "internalType": "address",
          "name": "spender",
          "type": "address"
        },
        {
          "indexed": false,
          "internalType": "uint256",
          "name": "value",
          "type": "uint256"
        }
      ],
      "name": "Approval",
      "type": "event"
    },
    {
      "anonymous": false,
      "inputs": [
        {
          "indexed": false,
          "internalType": "bool",
          "name": "paused",
          "type": "bool"
        }
      ],
      "name": "PausedStateChanged",
      "type": "event"
    },
    {
      "anonymous": false,
      "inputs": [
        {
          "indexed": false,
          "internalType": "uint256",
          "name": "swapFeePercentage",
          "type": "uint256"
        }
      ],
      "name": "SwapFeePercentageChanged",
      "type": "event"
    },
    {
      "anonymous": false,
      "inputs": [
        {
          "indexed": true,
          "internalType": "contract IERC20",
          "name": "token",
          "type": "address"
        },
        {
          "indexed": false,
          "internalType": "uint256",
          "name": "lowerTarget",
          "type": "uint256"
        },
        {
          "indexed": false,
          "internalType": "uint256",
          "name": "upperTarget",
          "type": "uint256"
        }
      ],
      "name": "TargetsSet",
      "type": "event"
    },
    {
      "anonymous": false,
      "inputs": [
        {
          "indexed": true,
          "internalType": "address",
          "name": "from",
          "type": "address"
        },
        {
          "indexed": true,
          "internalType": "address",
          "name": "to",
          "type": "address"
        },
        {
          "indexed": false,
          "internalType": "uint256",
          "name": "value",
          "type": "uint256"
        }
      ],
      "name": "Transfer",
      "type": "event"
    },
    {
      "inputs": [],
      "name": "DOMAIN_SEPARATOR",
      "outputs": [
        {
          "internalType": "bytes32",
          "name": "",
          "type": "bytes32"
        }
      ],
      "stateMutability": "view",
      "type": "function"
    },
    {
      "inputs": [
        {
          "internalType": "address",
          "name": "owner",
          "type": "address"
        },
        {
          "internalType": "address",
          "name": "spender",
          "type": "address"
        }
      ],
      "name": "allowance",
      "outputs": [
        {
          "internalType": "uint256",
          "name": "",
          "type": "uint256"
        }
      ],
      "stateMutability": "view",
      "type": "function"
    },
    {
      "inputs": [
        {
          "internalType": "address",
          "name": "spender",
          "type": "address"
        },
        {
          "internalType": "uint256",
          "name": "amount",
          "type": "uint256"
        }
      ],
      "name": "approve",
      "outputs": [
        {
          "internalType": "bool",
          "name": "",
          "type": "bool"
        }
      ],
      "stateMutability": "nonpayable",
      "type": "function"
    },
    {
      "inputs": [
        {
          "internalType": "address",
          "name": "account",
          "type": "address"
        }
      ],
      "name": "balanceOf",
      "outputs": [
        {
          "internalType": "uint256",
          "name": "",
          "type": "uint256"
        }
      ],
      "stateMutability": "view",
      "type": "function"
    },
    {
      "inputs": [],
      "name": "decimals",
      "outputs": [
        {
          "internalType": "uint8",
          "name": "",
          "type": "uint8"
        }
      ],
      "stateMutability": "view",
      "type": "function"
    },
    {
      "inputs": [
        {
          "internalType": "address",
          "name": "spender",
          "type": "address"
        },
        {
          "internalType": "uint256",
          "name": "amount",
          "type": "uint256"
        }
      ],
      "name": "decreaseAllowance",
      "outputs": [
        {
          "internalType": "bool",
          "name": "",
          "type": "bool"
        }
      ],
      "stateMutability": "nonpayable",
      "type": "function"
    },
    {
      "inputs": [
        {
          "internalType": "bytes4",
          "name": "selector",
          "type": "bytes4"
        }
      ],
      "name": "getActionId",
      "outputs": [
        {
          "internalType": "bytes32",
          "name": "",
          "type": "bytes32"
        }
      ],
      "stateMutability": "view",
      "type": "function"
    },
    {
      "inputs": [],
      "name": "getAuthorizer",
      "outputs": [
        {
          "internalType": "contract IAuthorizer",
          "name": "",
          "type": "address"
        }
      ],
      "stateMutability": "view",
      "type": "function"
    },
    {
      "inputs": [],
      "name": "getBptIndex",
      "outputs": [
        {
          "internalType": "uint256",
          "name": "",
          "type": "uint256"
        }
      ],
      "stateMutability": "view",
      "type": "function"
    },
    {
      "inputs": [],
      "name": "getMainIndex",
      "outputs": [
        {
          "internalType": "uint256",
          "name": "",
          "type": "uint256"
        }
      ],
      "stateMutability": "view",
      "type": "function"
    },
    {
      "inputs": [],
      "name": "getMainToken",
      "outputs": [
        {
          "internalType": "address",
          "name": "",
          "type": "address"
        }
      ],
      "stateMutability": "view",
      "type": "function"
    },
    {
      "inputs": [],
      "name": "getOwner",
      "outputs": [
        {
          "internalType": "address",
          "name": "",
          "type": "address"
        }
      ],
      "stateMutability": "view",
      "type": "function"
    },
    {
      "inputs": [],
      "name": "getPausedState",
      "outputs": [
        {
          "internalType": "bool",
          "name": "paused",
          "type": "bool"
        },
        {
          "internalType": "uint256",
          "name": "pauseWindowEndTime",
          "type": "uint256"
        },
        {
          "internalType": "uint256",
          "name": "bufferPeriodEndTime",
          "type": "uint256"
        }
      ],
      "stateMutability": "view",
      "type": "function"
    },
    {
      "inputs": [],
      "name": "getPoolId",
      "outputs": [
        {
          "internalType": "bytes32",
          "name": "",
          "type": "bytes32"
        }
      ],
      "stateMutability": "view",
      "type": "function"
    },
    {
      "inputs": [],
      "name": "getRate",
      "outputs": [
        {
          "internalType": "uint256",
          "name": "",
          "type": "uint256"
        }
      ],
      "stateMutability": "view",
      "type": "function"
    },
    {
      "inputs": [],
      "name": "getScalingFactors",
      "outputs": [
        {
          "internalType": "uint256[]",
          "name": "",
          "type": "uint256[]"
        }
      ],
      "stateMutability": "view",
      "type": "function"
    },
    {
      "inputs": [],
      "name": "getSwapFeePercentage",
      "outputs": [
        {
          "internalType": "uint256",
          "name": "",
          "type": "uint256"
        }
      ],
      "stateMutability": "view",
      "type": "function"
    },
    {
      "inputs": [],
      "name": "getTargets",
      "outputs": [
        {
          "internalType": "uint256",
          "name": "lowerTarget",
          "type": "uint256"
        },
        {
          "internalType": "uint256",
          "name": "upperTarget",
          "type": "uint256"
        }
      ],
      "stateMutability": "view",
      "type": "function"
    },
    {
      "inputs": [],
      "name": "getVault",
      "outputs": [
        {
          "internalType": "contract IVault",
          "name": "",
          "type": "address"
        }
      ],
      "stateMutability": "view",
      "type": "function"
    },
    {
      "inputs": [],
      "name": "getVirtualSupply",
      "outputs": [
        {
          "internalType": "uint256",
          "name": "",
          "type": "uint256"
        }
      ],
      "stateMutability": "view",
      "type": "function"
    },
    {
      "inputs": [],
      "name": "getWrappedIndex",
      "outputs": [
        {
          "internalType": "uint256",
          "name": "",
          "type": "uint256"
        }
      ],
      "stateMutability": "view",
      "type": "function"
    },
    {
      "inputs": [],
      "name": "getWrappedToken",
      "outputs": [
        {
          "internalType": "address",
          "name": "",
          "type": "address"
        }
      ],
      "stateMutability": "view",
      "type": "function"
    },
    {
      "inputs": [],
      "name": "getWrappedTokenRate",
      "outputs": [
        {
          "internalType": "uint256",
          "name": "",
          "type": "uint256"
        }
      ],
      "stateMutability": "view",
      "type": "function"
    },
    {
      "inputs": [
        {
          "internalType": "address",
          "name": "spender",
          "type": "address"
        },
        {
          "internalType": "uint256",
          "name": "addedValue",
          "type": "uint256"
        }
      ],
      "name": "increaseAllowance",
      "outputs": [
        {
          "internalType": "bool",
          "name": "",
          "type": "bool"
        }
      ],
      "stateMutability": "nonpayable",
      "type": "function"
    },
    {
      "inputs": [],
      "name": "initialize",
      "outputs": [],
      "stateMutability": "nonpayable",
      "type": "function"
    },
    {
      "inputs": [],
      "name": "name",
      "outputs": [
        {
          "internalType": "string",
          "name": "",
          "type": "string"
        }
      ],
      "stateMutability": "view",
      "type": "function"
    },
    {
      "inputs": [
        {
          "internalType": "address",
          "name": "owner",
          "type": "address"
        }
      ],
      "name": "nonces",
      "outputs": [
        {
          "internalType": "uint256",
          "name": "",
          "type": "uint256"
        }
      ],
      "stateMutability": "view",
      "type": "function"
    },
    {
      "inputs": [
        {
          "internalType": "bytes32",
          "name": "poolId",
          "type": "bytes32"
        },
        {
          "internalType": "address",
          "name": "sender",
          "type": "address"
        },
        {
          "internalType": "address",
          "name": "recipient",
          "type": "address"
        },
        {
          "internalType": "uint256[]",
          "name": "balances",
          "type": "uint256[]"
        },
        {
          "internalType": "uint256",
          "name": "lastChangeBlock",
          "type": "uint256"
        },
        {
          "internalType": "uint256",
          "name": "protocolSwapFeePercentage",
          "type": "uint256"
        },
        {
          "internalType": "bytes",
          "name": "userData",
          "type": "bytes"
        }
      ],
      "name": "onExitPool",
      "outputs": [
        {
          "internalType": "uint256[]",
          "name": "",
          "type": "uint256[]"
        },
        {
          "internalType": "uint256[]",
          "name": "",
          "type": "uint256[]"
        }
      ],
      "stateMutability": "nonpayable",
      "type": "function"
    },
    {
      "inputs": [
        {
          "internalType": "bytes32",
          "name": "poolId",
          "type": "bytes32"
        },
        {
          "internalType": "address",
          "name": "sender",
          "type": "address"
        },
        {
          "internalType": "address",
          "name": "recipient",
          "type": "address"
        },
        {
          "internalType": "uint256[]",
          "name": "balances",
          "type": "uint256[]"
        },
        {
          "internalType": "uint256",
          "name": "lastChangeBlock",
          "type": "uint256"
        },
        {
          "internalType": "uint256",
          "name": "protocolSwapFeePercentage",
          "type": "uint256"
        },
        {
          "internalType": "bytes",
          "name": "userData",
          "type": "bytes"
        }
      ],
      "name": "onJoinPool",
      "outputs": [
        {
          "internalType": "uint256[]",
          "name": "",
          "type": "uint256[]"
        },
        {
          "internalType": "uint256[]",
          "name": "",
          "type": "uint256[]"
        }
      ],
      "stateMutability": "nonpayable",
      "type": "function"
    },
    {
      "inputs": [
        {
          "components": [
            {
              "internalType": "enum IVault.SwapKind",
              "name": "kind",
              "type": "uint8"
            },
            {
              "internalType": "contract IERC20",
              "name": "tokenIn",
              "type": "address"
            },
            {
              "internalType": "contract IERC20",
              "name": "tokenOut",
              "type": "address"
            },
            {
              "internalType": "uint256",
              "name": "amount",
              "type": "uint256"
            },
            {
              "internalType": "bytes32",
              "name": "poolId",
              "type": "bytes32"
            },
            {
              "internalType": "uint256",
              "name": "lastChangeBlock",
              "type": "uint256"
            },
            {
              "internalType": "address",
              "name": "from",
              "type": "address"
            },
            {
              "internalType": "address",
              "name": "to",
              "type": "address"
            },
            {
              "internalType": "bytes",
              "name": "userData",
              "type": "bytes"
            }
          ],
          "internalType": "struct IPoolSwapStructs.SwapRequest",
          "name": "request",
          "type": "tuple"
        },
        {
          "internalType": "uint256[]",
          "name": "balances",
          "type": "uint256[]"
        },
        {
          "internalType": "uint256",
          "name": "indexIn",
          "type": "uint256"
        },
        {
          "internalType": "uint256",
          "name": "indexOut",
          "type": "uint256"
        }
      ],
      "name": "onSwap",
      "outputs": [
        {
          "internalType": "uint256",
          "name": "",
          "type": "uint256"
        }
      ],
      "stateMutability": "view",
      "type": "function"
    },
    {
      "inputs": [
        {
          "internalType": "address",
          "name": "owner",
          "type": "address"
        },
        {
          "internalType": "address",
          "name": "spender",
          "type": "address"
        },
        {
          "internalType": "uint256",
          "name": "value",
          "type": "uint256"
        },
        {
          "internalType": "uint256",
          "name": "deadline",
          "type": "uint256"
        },
        {
          "internalType": "uint8",
          "name": "v",
          "type": "uint8"
        },
        {
          "internalType": "bytes32",
          "name": "r",
          "type": "bytes32"
        },
        {
          "internalType": "bytes32",
          "name": "s",
          "type": "bytes32"
        }
      ],
      "name": "permit",
      "outputs": [],
      "stateMutability": "nonpayable",
      "type": "function"
    },
    {
      "inputs": [
        {
          "internalType": "bytes32",
          "name": "poolId",
          "type": "bytes32"
        },
        {
          "internalType": "address",
          "name": "sender",
          "type": "address"
        },
        {
          "internalType": "address",
          "name": "recipient",
          "type": "address"
        },
        {
          "internalType": "uint256[]",
          "name": "balances",
          "type": "uint256[]"
        },
        {
          "internalType": "uint256",
          "name": "lastChangeBlock",
          "type": "uint256"
        },
        {
          "internalType": "uint256",
          "name": "protocolSwapFeePercentage",
          "type": "uint256"
        },
        {
          "internalType": "bytes",
          "name": "userData",
          "type": "bytes"
        }
      ],
      "name": "queryExit",
      "outputs": [
        {
          "internalType": "uint256",
          "name": "bptIn",
          "type": "uint256"
        },
        {
          "internalType": "uint256[]",
          "name": "amountsOut",
          "type": "uint256[]"
        }
      ],
      "stateMutability": "nonpayable",
      "type": "function"
    },
    {
      "inputs": [
        {
          "internalType": "bytes32",
          "name": "poolId",
          "type": "bytes32"
        },
        {
          "internalType": "address",
          "name": "sender",
          "type": "address"
        },
        {
          "internalType": "address",
          "name": "recipient",
          "type": "address"
        },
        {
          "internalType": "uint256[]",
          "name": "balances",
          "type": "uint256[]"
        },
        {
          "internalType": "uint256",
          "name": "lastChangeBlock",
          "type": "uint256"
        },
        {
          "internalType": "uint256",
          "name": "protocolSwapFeePercentage",
          "type": "uint256"
        },
        {
          "internalType": "bytes",
          "name": "userData",
          "type": "bytes"
        }
      ],
      "name": "queryJoin",
      "outputs": [
        {
          "internalType": "uint256",
          "name": "bptOut",
          "type": "uint256"
        },
        {
          "internalType": "uint256[]",
          "name": "amountsIn",
          "type": "uint256[]"
        }
      ],
      "stateMutability": "nonpayable",
      "type": "function"
    },
    {
      "inputs": [
        {
          "internalType": "contract IERC20",
          "name": "token",
          "type": "address"
        },
        {
          "internalType": "bytes",
          "name": "poolConfig",
          "type": "bytes"
        }
      ],
      "name": "setAssetManagerPoolConfig",
      "outputs": [],
      "stateMutability": "nonpayable",
      "type": "function"
    },
    {
      "inputs": [
        {
          "internalType": "bool",
          "name": "paused",
          "type": "bool"
        }
      ],
      "name": "setPaused",
      "outputs": [],
      "stateMutability": "nonpayable",
      "type": "function"
    },
    {
      "inputs": [
        {
          "internalType": "uint256",
          "name": "swapFeePercentage",
          "type": "uint256"
        }
      ],
      "name": "setSwapFeePercentage",
      "outputs": [],
      "stateMutability": "nonpayable",
      "type": "function"
    },
    {
      "inputs": [
        {
          "internalType": "uint256",
          "name": "newLowerTarget",
          "type": "uint256"
        },
        {
          "internalType": "uint256",
          "name": "newUpperTarget",
          "type": "uint256"
        }
      ],
      "name": "setTargets",
      "outputs": [],
      "stateMutability": "nonpayable",
      "type": "function"
    },
    {
      "inputs": [],
      "name": "symbol",
      "outputs": [
        {
          "internalType": "string",
          "name": "",
          "type": "string"
        }
      ],
      "stateMutability": "view",
      "type": "function"
    },
    {
      "inputs": [],
      "name": "totalSupply",
      "outputs": [
        {
          "internalType": "uint256",
          "name": "",
          "type": "uint256"
        }
      ],
      "stateMutability": "view",
      "type": "function"
    },
    {
      "inputs": [
        {
          "internalType": "address",
          "name": "recipient",
          "type": "address"
        },
        {
          "internalType": "uint256",
          "name": "amount",
          "type": "uint256"
        }
      ],
      "name": "transfer",
      "outputs": [
        {
          "internalType": "bool",
          "name": "",
          "type": "bool"
        }
      ],
      "stateMutability": "nonpayable",
      "type": "function"
    },
    {
      "inputs": [
        {
          "internalType": "address",
          "name": "sender",
          "type": "address"
        },
        {
          "internalType": "address",
          "name": "recipient",
          "type": "address"
        },
        {
          "internalType": "uint256",
          "name": "amount",
          "type": "uint256"
        }
      ],
      "name": "transferFrom",
      "outputs": [
        {
          "internalType": "bool",
          "name": "",
          "type": "bool"
        }
      ],
      "stateMutability": "nonpayable",
      "type": "function"
    }
  ],
  "bytecode": "0x6102c06040527f6e71edae12b1b97f4d1f60370fef10105fa2faae0126114a169c64845d6126c9610120523480156200003757600080fd5b5060405162005181380380620051818339810160408190526200005a9162000c0e565b898989898989898989898960008a8a620000768b8b306200050f565b6040805160038082526080820190925290602082016060803683370190505089898989828289898d8280604051806040016040528060018152602001603160f81b81525085858a336001600160a01b031660001b806080818152505050806001600160a01b031660a0816001600160a01b031660601b815250505081600390805190602001906200010992919062000a59565b5080516200011f90600490602084019062000a59565b505060058054601260ff1990911617905550815160209283012060c052805191012060e052507f8b73c3c69bb8fe3d512ecc4cf759cc79239f7b179b0ffacaa9a75d522b39400f6101005260601b6001600160601b03191661014052506200019290506276a700831115610194620005de565b620001a662278d00821115610195620005de565b4290910161016081905201610180528551620001c8906002111560c8620005de565b620001e2620001d6620005f3565b8751111560c9620005de565b620001f886620005f860201b620013361760201c565b620002038462000604565b6040516309b2760f60e01b81526000906001600160a01b038c16906309b2760f9062000234908d9060040162000da6565b602060405180830381600087803b1580156200024f57600080fd5b505af115801562000264573d6000803e3d6000fd5b505050506040513d601f19601f820116820180604052508101906200028a919062000bf5565b604051633354e3e960e11b81529091506001600160a01b038c16906366a9c7d290620002bf9084908b908b9060040162000d0c565b600060405180830381600087803b158015620002da57600080fd5b505af1158015620002ef573d6000803e3d6000fd5b50505050806101a081815250505050505050505050505050866001600160a01b03166101c0816001600160a01b031660601b81525050856001600160a01b03166101e0816001600160a01b031660601b8152505060008060006200035b8a8a306200069060201b60201c565b610200819052610220839052610240829052919450925090506200037f8a62000786565b610260526200038e8962000786565b610280526000620003a18b828b6200085a565b5050505050505050505050505050856001600160a01b03166102a0816001600160a01b031660601b815250506200045d866001600160a01b0316636f307dc36040518163ffffffff1660e01b815260040160206040518083038186803b1580156200040b57600080fd5b505afa15801562000420573d6000803e3d6000fd5b505050506040513d601f19601f8201168201806040525081019062000446919062000bad565b6001600160a01b03898116911614610208620005de565b856001600160a01b031663fe9c44ae6040518163ffffffff1660e01b815260040160206040518083038186803b1580156200049757600080fd5b505afa158015620004ac573d6000803e3d6000fd5b505050506040513d601f19601f82011682018060405250810190620004d2919062000bd3565b1515600114620004ff5760405162461bcd60e51b8152600401620004f69062000dbb565b60405180910390fd5b5050505050505050505062000e1f565b6060600080806200052287878762000690565b60408051600380825260808201909252939650919450925060208201606080368337019050509350868484815181106200055857fe5b60200260200101906001600160a01b031690816001600160a01b031681525050858483815181106200058657fe5b60200260200101906001600160a01b031690816001600160a01b03168152505084848281518110620005b457fe5b60200260200101906001600160a01b031690816001600160a01b0316815250505050509392505050565b81620005ef57620005ef8162000908565b5050565b600390565b80620005ef816200095b565b6200061964e8d4a5100082101560cb620005de565b6200063167016345785d8a000082111560ca620005de565b620006508160c0600854620009e860201b62001340179092919060201c565b6008556040517fa9ba3ffe0b6c366b81232caab38605a0699ad5398d6cce76f91ee809e322dafc906200068590839062000df2565b60405180910390a150565b6000806000846001600160a01b0316866001600160a01b031610156200071957836001600160a01b0316856001600160a01b03161015620006dc5750600091506001905060026200077d565b836001600160a01b0316866001600160a01b03161015620007085750600091506002905060016200077d565b50600191506002905060006200077d565b846001600160a01b0316846001600160a01b03161015620007455750600291506001905060006200077d565b856001600160a01b0316846001600160a01b03161015620007715750600291506000905060016200077d565b50600191506000905060025b93509350939050565b60006001600160a01b038216301415620007aa5750670de0b6b3a764000062000855565b6000826001600160a01b031663313ce5676040518163ffffffff1660e01b815260040160206040518083038186803b158015620007e657600080fd5b505afa158015620007fb573d6000803e3d6000fd5b505050506040513d601f19601f8201168201806040525081019062000821919062000ce9565b60ff169050600062000840601283620009fd60201b620013551760201c565b905080600a0a670de0b6b3a764000002925050505b919050565b6200086b8183111561014c620005de565b620008836001600160601b0382111561014d620005de565b620008be6200089f82606062000a1560201b6200136b1760201c565b620008b784600062000a1560201b6200136b1760201c565b1762000a19565b826001600160a01b03167fd0e27a0d0c2cb09280fa5e4487315455b32afcdcf012dc35b6ef2a0e3c4d12808383604051620008fb92919062000dfb565b60405180910390a2505050565b62461bcd60e51b6000908152602060045260076024526642414c23000030600a808404818106603090810160081b95839006959095019082900491820690940160101b939093010160c81b604452606490fd5b6002815110156200096c57620009e5565b6000816000815181106200097c57fe5b602002602001015190506000600190505b8251811015620009e2576000838281518110620009a657fe5b60200260200101519050620009d7816001600160a01b0316846001600160a01b0316106065620005de60201b60201c565b91506001016200098d565b50505b50565b6001600160401b03811b1992909216911b1790565b600062000a0f838311156001620005de565b50900390565b1b90565b62000a3881600060085462000a3e60201b6200136f179092919060201c565b60085550565b6001600160c01b03828116821b90821b198416179392505050565b828054600181600116156101000203166002900490600052602060002090601f01602090048101928262000a91576000855562000adc565b82601f1062000aac57805160ff191683800117855562000adc565b8280016001018555821562000adc579182015b8281111562000adc57825182559160200191906001019062000abf565b5062000aea92915062000aee565b5090565b5b8082111562000aea576000815560010162000aef565b8051620008558162000e09565b600082601f83011262000b23578081fd5b81516001600160401b038082111562000b3857fe5b6040516020601f8401601f191682018101838111838210171562000b5857fe5b604052838252858401810187101562000b6f578485fd5b8492505b8383101562000b92578583018101518284018201529182019162000b73565b8383111562000ba357848185840101525b5095945050505050565b60006020828403121562000bbf578081fd5b815162000bcc8162000e09565b9392505050565b60006020828403121562000be5578081fd5b8151801515811462000bcc578182fd5b60006020828403121562000c07578081fd5b5051919050565b6000806000806000806000806000806101408b8d03121562000c2e578586fd5b62000c398b62000b05565b60208c0151909a506001600160401b038082111562000c56578788fd5b62000c648e838f0162000b12565b9a5060408d015191508082111562000c7a578788fd5b5062000c898d828e0162000b12565b98505062000c9a60608c0162000b05565b965062000caa60808c0162000b05565b955060a08b0151945060c08b0151935060e08b015192506101008b0151915062000cd86101208c0162000b05565b90509295989b9194979a5092959850565b60006020828403121562000cfb578081fd5b815160ff8116811462000bcc578182fd5b60006060820185835260206060818501528186518084526080860191508288019350845b8181101562000d575784516001600160a01b03168352938301939183019160010162000d30565b505084810360408601528551808252908201925081860190845b8181101562000d985782516001600160a01b03168552938301939183019160010162000d71565b509298975050505050505050565b602081016003831062000db557fe5b91905290565b6020808252601a908201527f57726170706564546f6b656e206973206e6f742043546f6b656e000000000000604082015260600190565b90815260200190565b918252602082015260400190565b6001600160a01b0381168114620009e557600080fd5b60805160a05160601c60c05160e05161010051610120516101405160601c61016051610180516101a0516101c05160601c6101e05160601c61020051610220516102405161026051610280516102a05160601c61418362000ffe6000398061227e52806123135250806114395250806113d552806121ca5250806106e35280610a72528061146152806125ba528061276a52806128c15280612a335280612bcf5280612d265250806108735280610a3852806113f75280611a62528061258652806126ef5280612736528061284b528061288d52806129ff5280612b595280612b9b5280612cb05280612cf2525080610ab35280610c7c5280610d6352806112b752806114a2528061210f52806125f152806127a152806128f85280612a6a5280612c065280612d5d5280612f425280612f7a52508061130a52806115bd528061168952806121f0528061253b528061267b52806129b55280612ae55250806108975280610ee4528061157452806116405280611a98528061218f52806124fc528061261d52806127d752806129765280612a965280612c3c52508061081452508061183352508061180f525080610e23525080610f9a525080611927525080611969525080611948525080610dff525080610d8952506141836000f3fe608060405234801561001057600080fd5b50600436106102135760003560e01c8063679aefce1161012657806395d89b41116100b357806395d89b41146104295780639f11080e14610431578063a457c2d714610444578063a9059cbb14610457578063aaabadc51461046a578063d505accf14610472578063d5c096c414610485578063dd62ed3e14610498578063de82cd34146104ab578063f174e241146104b3578063f5431aa8146104bb57610213565b8063679aefce1461039457806370a082311461039c57806374f3b009146103af5780637ecebe00146103d05780638129fc1c146103e357806382687a56146103eb578063851c1bb3146103f357806387ec681714610406578063893d20e8146104195780638d928af81461042157610213565b80633644e515116101a45780633644e515146102ef57806338e9922e146102f757806338fff2d01461030a57806339509351146103125780634d64cd74146103255780634de046d51461032d57806350dd6ed91461034257806355c67628146103555780636028bfd41461035d57806363fe3b561461037e57610213565b806301ec954a1461021857806306fdde0314610241578063095ea7b31461025657806316b8d6ff1461027657806316c38b3c1461027e57806318160ddd146102935780631c0de0511461029b5780631dd746ea146102b257806323b872dd146102c7578063313ce567146102da575b600080fd5b61022b610226366004613bdd565b6104c3565b6040516102389190613ee0565b60405180910390f35b610249610633565b6040516102389190614073565b610269610264366004613937565b6106ca565b6040516102389190613ebd565b61022b6106e1565b61029161028c366004613a2d565b610705565b005b61022b610719565b6102a361071f565b60405161023893929190613ec8565b6102ba610748565b6040516102389190613e85565b6102696102d5366004613887565b610757565b6102e26107cd565b60405161023891906140ad565b61022b6107d6565b610291610305366004613cf6565b6107e0565b61022b610812565b610269610320366004613937565b610836565b61022b610871565b610335610895565b6040516102389190613e71565b610291610350366004613b4b565b6108b9565b61022b6108d7565b61037061036b366004613a65565b6108e8565b604051610238929190614086565b61038661091f565b60405161023892919061409f565b61022b61094d565b61022b6103aa366004613833565b610afb565b6103c26103bd366004613a65565b610b1a565b604051610238929190613e98565b61022b6103de366004613833565b610b98565b610291610bb3565b61022b610d61565b61022b610401366004613b07565b610d85565b610370610414366004613a65565b610dd7565b610335610dfd565b610335610e21565b610249610e45565b61029161043f366004613d26565b610ea6565b610269610452366004613937565b610f10565b610269610465366004613937565b610f4e565b610335610f5b565b6102916104803660046138c7565b610f65565b6103c2610493366004613a65565b6110ae565b61022b6104a636600461384f565b6111dd565b61022b61121a565b610335611308565b61022b61132c565b600084608001516104f06104d5610e21565b6001600160a01b0316336001600160a01b03161460cd61138a565b6105056104fb610812565b82146101f461138a565b61050d611398565b6105276003851080156105205750600384105b606461138a565b60006105316113ad565b905061053d86826114db565b60008061054861091f565b91509150600060405180606001604052806105616108d7565b815260208101859052604001839052905060008a51600181111561058157fe5b14156105e5576105a88a60600151858a8151811061059b57fe5b602002602001015161153c565b60608b015260006105ba8b8b84611548565b90506105d981868a815181106105cc57fe5b602002602001015161160f565b9650505050505061062a565b6105f98a6060015185898151811061059b57fe5b60608b0152600061060b8b8b8461161b565b90506105d981868b8151811061061d57fe5b60200260200101516116d0565b50949350505050565b60038054604080516020601f60026000196101006001881615020190951694909404938401819004810282018101909252828152606093909290918301828280156106bf5780601f10610694576101008083540402835291602001916106bf565b820191906000526020600020905b8154815290600101906020018083116106a257829003601f168201915b505050505090505b90565b60006106d73384846116dc565b5060015b92915050565b7f000000000000000000000000000000000000000000000000000000000000000090565b61070d611744565b61071681611772565b50565b60025490565b600080600061072c6117f0565b15925061073761180d565b9150610741611831565b9050909192565b60606107526113ad565b905090565b60008061076485336111dd565b9050610788336001600160a01b03871614806107805750838210155b61019e61138a565b610793858585611855565b336001600160a01b038616148015906107ae57506000198114155b156107c0576107c085338584036116dc565b60019150505b9392505050565b60055460ff1690565b6000610752611923565b6000806107eb61091f565b915091506108046107fc83836119c0565b61014f61138a565b61080d83611ad8565b505050565b7f000000000000000000000000000000000000000000000000000000000000000090565b3360008181526001602090815260408083206001600160a01b038716845290915281205490916106d791859061086c9086611af1565b6116dc565b7f000000000000000000000000000000000000000000000000000000000000000090565b7f000000000000000000000000000000000000000000000000000000000000000090565b6108c1611744565b6108c9611398565b6108d38282611b03565b5050565b6008546000906107529060c0611bca565b600060606108fe86516108f9611bd7565b611bdc565b61091389898989898989611be9611c8c611ced565b97509795505050505050565b600080600061092c611e0f565b9050610939816000611e15565b9250610946816060611e15565b9150509091565b600080610958610812565b90506000610964610e21565b6001600160a01b031663f94d4668836040518263ffffffff1660e01b815260040161098f9190613ee0565b60006040518083038186803b1580156109a757600080fd5b505afa1580156109bb573d6000803e3d6000fd5b505050506040513d6000823e601f3d908101601f191682016040526109e39190810190613962565b509150506109f8816109f36113ad565b6114db565b600080610a0361091f565b9150915060006040518060600160405280610a1c6108d7565b81526020018481526020018381525090506000610aa8610a6f867f000000000000000000000000000000000000000000000000000000000000000081518110610a6157fe5b602002602001015184611e22565b867f000000000000000000000000000000000000000000000000000000000000000081518110610a9b57fe5b6020026020010151611e83565b9050610af0610ae9867f000000000000000000000000000000000000000000000000000000000000000081518110610adc57fe5b6020026020010151611e8f565b8290611e9b565b965050505050505090565b6001600160a01b0381166000908152602081905260409020545b919050565b60608088610b296104d5610e21565b610b346104fb610812565b6000610b3e6113ad565b9050610b4a88826114db565b6000806000610b5f8e8e8e8e8e8e8a8f611be9565b925092509250610b6f8d84611ef2565b610b798285611c8c565b610b838185611c8c565b909550935050505b5097509795505050505050565b6001600160a01b031660009081526006602052604090205490565b6000610bbd610812565b90506000610bc9610e21565b6001600160a01b031663f94d4668836040518263ffffffff1660e01b8152600401610bf49190613ee0565b60006040518083038186803b158015610c0c57600080fd5b505afa158015610c20573d6000803e3d6000fd5b505050506040513d6000823e601f3d908101601f19168201604052610c489190810190613962565b50506040805160038082526080820190925291925060009190602082016060803683370190505090506001600160701b03817f000000000000000000000000000000000000000000000000000000000000000081518110610ca557fe5b60200260200101818152505060006040518060800160405280610cc7856106c7565b8152602001838152602001604051806020016040528060008152508152602001600015158152509050610cf8610e21565b6001600160a01b031663b95cac28853030856040518563ffffffff1660e01b8152600401610d299493929190613f08565b600060405180830381600087803b158015610d4357600080fd5b505af1158015610d57573d6000803e3d6000fd5b5050505050505050565b7f000000000000000000000000000000000000000000000000000000000000000090565b60007f000000000000000000000000000000000000000000000000000000000000000082604051602001610dba929190613e2e565b604051602081830303815290604052805190602001209050919050565b60006060610de886516108f9611bd7565b61091389898989898989611efc611f1a611ced565b7f000000000000000000000000000000000000000000000000000000000000000090565b7f000000000000000000000000000000000000000000000000000000000000000090565b60048054604080516020601f60026000196101006001881615020190951694909404938401819004810282018101909252828152606093909290918301828280156106bf5780601f10610694576101008083540402835291602001916106bf565b610eae611744565b600080610eb961091f565b91509150610eca6107fc83836119c0565b610edf610ed785856119c0565b61015761138a565b610f0a7f00000000000000000000000000000000000000000000000000000000000000008585611f7b565b50505050565b600080610f1d33856111dd565b9050808310610f3757610f32338560006116dc565b610f44565b610f4433858584036116dc565b5060019392505050565b60006106d7338484611855565b6000610752612007565b610f738442111560d161138a565b6001600160a01b0387166000908152600660209081526040808320549051909291610fca917f0000000000000000000000000000000000000000000000000000000000000000918c918c918c9188918d9101613fc5565b6040516020818303038152906040528051906020012090506000610fed82612081565b90506000600182888888604051600081526020016040526040516110149493929190614055565b6020604051602081039080840390855afa158015611036573d6000803e3d6000fd5b5050604051601f190151915061107890506001600160a01b0382161580159061107057508b6001600160a01b0316826001600160a01b0316145b6101f861138a565b6001600160a01b038b1660009081526006602052604090206001850190556110a18b8b8b6116dc565b5050505050505050505050565b606080886110bd6104d5610e21565b6110c86104fb610812565b60006110d26113ad565b90506110dc610719565b61118d576000806110f08d8d8d868b61209d565b915091506111096110ff612151565b83101560cc61138a565b61111b6000611116612151565b612156565b61112e8b611127612151565b8403612156565b6111388184611f1a565b80611141611bd7565b6001600160401b038111801561115657600080fd5b50604051908082528060200260200182016040528015611180578160200160208202803683370190505b5095509550505050610b8b565b61119788826114db565b60008060006111ac8e8e8e8e8e8e8a8f611efc565b9250925092506111bc8c84612156565b6111c68285611f1a565b6111d08185611c8c565b9095509350610b8b915050565b60006111e7610e21565b6001600160a01b0316826001600160a01b0316141561120957506000196106db565b6112138383612160565b90506106db565b600080611225610e21565b6001600160a01b031663f94d466861123b610812565b6040518263ffffffff1660e01b81526004016112579190613ee0565b60006040518083038186803b15801561126f57600080fd5b505afa158015611283573d6000803e3d6000fd5b505050506040513d6000823e601f3d908101601f191682016040526112ab9190810190613962565b5091505060006112f6827f0000000000000000000000000000000000000000000000000000000000000000815181106112e057fe5b60200260200101516112f13061218b565b61153c565b905061130181612265565b9250505090565b7f000000000000000000000000000000000000000000000000000000000000000090565b6000610752612279565b806108d3816123f3565b6001600160401b03811b1992909216911b1790565b600061136583831115600161138a565b50900390565b1b90565b6001600160c01b03828116821b90821b198416179392505050565b816108d3576108d38161246c565b6113ab6113a36117f0565b61019261138a565b565b60408051600380825260808201909252606091600091906020820184803683370190505090507f0000000000000000000000000000000000000000000000000000000000000000817f00000000000000000000000000000000000000000000000000000000000000008151811061142057fe5b60200260200101818152505061145e611437612279565b7f0000000000000000000000000000000000000000000000000000000000000000906124bf565b817f00000000000000000000000000000000000000000000000000000000000000008151811061148a57fe5b602002602001018181525050670de0b6b3a7640000817f0000000000000000000000000000000000000000000000000000000000000000815181106114cb57fe5b6020908102919091010152905090565b60005b6114e6611bd7565b81101561080d5761151d8382815181106114fc57fe5b602002602001015183838151811061151057fe5b60200260200101516124bf565b83828151811061152957fe5b60209081029190910101526001016114de565b60006107c683836124bf565b60208301516000906001600160a01b03163014156115725761156b8484846124f5565b90506107c6565b7f00000000000000000000000000000000000000000000000000000000000000006001600160a01b031684602001516001600160a01b031614156115bb5761156b848484612674565b7f00000000000000000000000000000000000000000000000000000000000000006001600160a01b031684602001516001600160a01b031614156116045761156b8484846127d0565b6107c661013561246c565b60006107c68383612927565b60408301516000906001600160a01b031630141561163e5761156b84848461296f565b7f00000000000000000000000000000000000000000000000000000000000000006001600160a01b031684604001516001600160a01b031614156116875761156b848484612ade565b7f00000000000000000000000000000000000000000000000000000000000000006001600160a01b031684604001516001600160a01b031614156116045761156b848484612c35565b60006107c68383611e9b565b6001600160a01b0380841660008181526001602090815260408083209487168084529490915290819020849055517f8c5be1e5ebec7d5bd14f71427d1e84f3dd0314c0f7b2291e5b200ac8c7c3b92590611737908590613ee0565b60405180910390a3505050565b600061175b6000356001600160e01b031916610d85565b905061071661176a8233612d8c565b61019161138a565b80156117925761178d61178361180d565b421061019361138a565b6117a7565b6117a761179d611831565b42106101a961138a565b6007805460ff19168215151790556040517f9e3a5e37224532dea67b89face185703738a228a6e8a23dee546960180d3be64906117e5908390613ebd565b60405180910390a150565b60006117fa611831565b42118061075257505060075460ff161590565b7f000000000000000000000000000000000000000000000000000000000000000090565b7f000000000000000000000000000000000000000000000000000000000000000090565b61186c6001600160a01b038416151561019861138a565b6118836001600160a01b038316151561019961138a565b61188e83838361080d565b6001600160a01b0383166000908152602081905260409020546118b490826101a0612e75565b6001600160a01b0380851660009081526020819052604080822093909355908416815220546118e39082611af1565b6001600160a01b03808416600081815260208190526040908190209390935591519085169060008051602061412e83398151915290611737908590613ee0565b60007f00000000000000000000000000000000000000000000000000000000000000007f00000000000000000000000000000000000000000000000000000000000000007f0000000000000000000000000000000000000000000000000000000000000000611990612e8b565b306040516020016119a5959493929190613ff9565b60405160208183030381529060405280519060200120905090565b6000806119cb610812565b905060006119d7610e21565b6001600160a01b031663f94d4668836040518263ffffffff1660e01b8152600401611a029190613ee0565b60006040518083038186803b158015611a1a57600080fd5b505afa158015611a2e573d6000803e3d6000fd5b505050506040513d6000823e601f3d908101601f19168201604052611a569190810190613962565b509150506000611abc827f000000000000000000000000000000000000000000000000000000000000000081518110611a8b57fe5b60200260200101516112f17f000000000000000000000000000000000000000000000000000000000000000061218b565b9050858110158015611ace5750848111155b9695505050505050565b611ae0611744565b611ae8611398565b61071681612e8f565b60008282016107c6848210158361138a565b6000611b0d610812565b90506000611b19610e21565b6001600160a01b031663b05f8e4883866040518363ffffffff1660e01b8152600401611b4692919061403e565b60806040518083038186803b158015611b5e57600080fd5b505afa158015611b72573d6000803e3d6000fd5b505050506040513d601f19601f82011682018060405250810190611b969190613d47565b604051630639cdb560e21b81529094506001600160a01b03851693506318e736d49250610d29915085908790600401614025565b1c6001600160401b031690565b600390565b6108d3818314606761138a565b60006060806000611bf985612efa565b90506000818015611c0657fe5b14611c1b57611c1661014e61246c565b611c7d565b611c23612f10565b611c2d8986612f24565b9094509250611c3a611bd7565b6001600160401b0381118015611c4f57600080fd5b50604051908082528060200260200182016040528015611c79578160200160208202803683370190505b5091505b50985098509895505050505050565b60005b611c97611bd7565b81101561080d57611cce838281518110611cad57fe5b6020026020010151838381518110611cc157fe5b6020026020010151612927565b838281518110611cda57fe5b6020908102919091010152600101611c8f565b333014611dab576000306001600160a01b0316600036604051611d11929190613e46565b6000604051808303816000865af19150503d8060008114611d4e576040519150601f19603f3d011682016040523d82523d6000602084013e611d53565b606091505b505090508060008114611d6257fe5b60046000803e6000516001600160e01b0319166343adbafb60e01b8114611d8d573d6000803e3d6000fd5b506020600460003e604060205260243d03602460403e601c3d016000f35b6000611db56113ad565b9050611dc187826114db565b600080611dd88c8c8c8c8c8c898d8d63ffffffff16565b5091509150611deb81848663ffffffff16565b8051601f1982018390526343adbafb603f1983015260200260231982016044820181fd5b60085490565b1c6001600160601b031690565b60008160200151831015611e5b5781516020830151600091611e4791869003906124bf565b9050611e538482611355565b9150506106db565b81604001518311611e6d5750816106db565b81516040830151600091611e47918603906124bf565b60006107c68383611af1565b6001600160701b030390565b6000611eaa821515600461138a565b82611eb7575060006106db565b670de0b6b3a764000083810290611eda90858381611ed157fe5b0414600561138a565b826001820381611ee657fe5b046001019150506106db565b6108d38282612fab565b6000606080611f0c61014e61246c565b985098509895505050505050565b60005b611f25611bd7565b81101561080d57611f5c838281518110611f3b57fe5b6020026020010151838381518110611f4f57fe5b6020026020010151611e9b565b838281518110611f6857fe5b6020908102919091010152600101611f1d565b611f8a8183111561014c61138a565b611fa06001600160601b0382111561014d61138a565b611fbf611fae82606061136b565b611fb984600061136b565b17613055565b826001600160a01b03167fd0e27a0d0c2cb09280fa5e4487315455b32afcdcf012dc35b6ef2a0e3c4d12808383604051611ffa92919061409f565b60405180910390a2505050565b6000612011610e21565b6001600160a01b031663aaabadc56040518163ffffffff1660e01b815260040160206040518083038186803b15801561204957600080fd5b505afa15801561205d573d6000803e3d6000fd5b505050506040513d601f19601f820116820180604052508101906107529190613b2f565b600061208b611923565b82604051602001610dba929190613e56565b600060606120a9611398565b6120c06001600160a01b038716301461015661138a565b6120d76001600160a01b038616301461015661138a565b604080516003808252608082019092526001600160701b039160009190602082016060803683370190505090506001600160701b03817f00000000000000000000000000000000000000000000000000000000000000008151811061213857fe5b6020908102919091010152909890975095505050505050565b600090565b6108d3828261306a565b6001600160a01b03918216600090815260016020908152604080832093909416825291909152205490565b60007f00000000000000000000000000000000000000000000000000000000000000006001600160a01b0316826001600160a01b031614156121ee57507f0000000000000000000000000000000000000000000000000000000000000000610b15565b7f00000000000000000000000000000000000000000000000000000000000000006001600160a01b0316826001600160a01b0316141561223a57612233611437612279565b9050610b15565b6001600160a01b03821630141561225a5750670de0b6b3a7640000610b15565b610b1561013561246c565b60006106db82612273610719565b90611355565b6000807f00000000000000000000000000000000000000000000000000000000000000006001600160a01b031663313ce5676040518163ffffffff1660e01b815260040160206040518083038186803b1580156122d557600080fd5b505afa1580156122e9573d6000803e3d6000fd5b505050506040513d601f19601f8201168201806040525081019061230d9190613d87565b905060007f00000000000000000000000000000000000000000000000000000000000000006001600160a01b031663182df0f56040518163ffffffff1660e01b815260040160206040518083038186803b15801561236a57600080fd5b505afa15801561237e573d6000803e3d6000fd5b505050506040513d601f19601f820116820180604052508101906123a29190613d0e565b905060128260ff1611156123cc576012820360ff16600a0a81816123c257fe5b04925050506106c7565b60128260ff1610156123ed578160120360ff16600a0a8102925050506106c7565b91505090565b60028151101561240257610716565b60008160008151811061241157fe5b602002602001015190506000600190505b825181101561080d57600083828151811061243957fe5b60200260200101519050612462816001600160a01b0316846001600160a01b031610606561138a565b9150600101612422565b62461bcd60e51b6000908152602060045260076024526642414c23000030600a808404818106603090810160081b95839006959095019082900491820690940160101b939093010160c81b604452606490fd5b60008282026124e38415806124dc5750838583816124d957fe5b04145b600361138a565b670de0b6b3a764000090049392505050565b600061257b7f00000000000000000000000000000000000000000000000000000000000000006001600160a01b031685604001516001600160a01b0316148061257357507f00000000000000000000000000000000000000000000000000000000000000006001600160a01b031685604001516001600160a01b0316145b61013561138a565b61266c8460600151847f0000000000000000000000000000000000000000000000000000000000000000815181106125af57fe5b6020026020010151857f0000000000000000000000000000000000000000000000000000000000000000815181106125e357fe5b602002602001015161261a877f000000000000000000000000000000000000000000000000000000000000000081518110610adc57fe5b867f00000000000000000000000000000000000000000000000000000000000000006001600160a01b03168a604001516001600160a01b031614612660576130e6612664565b6131465b63ffffffff16565b949350505050565b60006126d07f00000000000000000000000000000000000000000000000000000000000000006001600160a01b031685604001516001600160a01b03161480612573575060408501516001600160a01b0316301461013561138a565b60408401516001600160a01b0316301461272b576127268460600151847f00000000000000000000000000000000000000000000000000000000000000008151811061271857fe5b6020026020010151846131af565b61266c565b61266c8460600151847f00000000000000000000000000000000000000000000000000000000000000008151811061275f57fe5b6020026020010151857f00000000000000000000000000000000000000000000000000000000000000008151811061279357fe5b60200260200101516127ca877f000000000000000000000000000000000000000000000000000000000000000081518110610adc57fe5b866131df565b600061282c7f00000000000000000000000000000000000000000000000000000000000000006001600160a01b031685604001516001600160a01b03161480612573575060408501516001600160a01b0316301461013561138a565b60408401516001600160a01b03163014612882576127268460600151847f00000000000000000000000000000000000000000000000000000000000000008151811061287457fe5b602002602001015184613245565b61266c8460600151847f0000000000000000000000000000000000000000000000000000000000000000815181106128b657fe5b6020026020010151857f0000000000000000000000000000000000000000000000000000000000000000815181106128ea57fe5b6020026020010151612921877f000000000000000000000000000000000000000000000000000000000000000081518110610adc57fe5b86613285565b6000612936821515600461138a565b82612943575060006106db565b670de0b6b3a76400008381029061295d90858381611ed157fe5b82818161296657fe5b049150506106db565b60006129f47f00000000000000000000000000000000000000000000000000000000000000006001600160a01b031685602001516001600160a01b0316148061257357507f00000000000000000000000000000000000000000000000000000000000000006001600160a01b031685602001516001600160a01b03161461013561138a565b61266c8460600151847f000000000000000000000000000000000000000000000000000000000000000081518110612a2857fe5b6020026020010151857f000000000000000000000000000000000000000000000000000000000000000081518110612a5c57fe5b6020026020010151612a93877f000000000000000000000000000000000000000000000000000000000000000081518110610adc57fe5b867f00000000000000000000000000000000000000000000000000000000000000006001600160a01b03168a602001516001600160a01b031614612ad9576132ec612664565b613343565b6000612b3a7f00000000000000000000000000000000000000000000000000000000000000006001600160a01b031685602001516001600160a01b03161480612573575060208501516001600160a01b0316301461013561138a565b60208401516001600160a01b03163014612b90576127268460600151847f000000000000000000000000000000000000000000000000000000000000000081518110612b8257fe5b6020026020010151846133ad565b61266c8460600151847f000000000000000000000000000000000000000000000000000000000000000081518110612bc457fe5b6020026020010151857f000000000000000000000000000000000000000000000000000000000000000081518110612bf857fe5b6020026020010151612c2f877f000000000000000000000000000000000000000000000000000000000000000081518110610adc57fe5b866133d7565b6000612c917f00000000000000000000000000000000000000000000000000000000000000006001600160a01b031685602001516001600160a01b03161480612573575060208501516001600160a01b0316301461013561138a565b60208401516001600160a01b03163014612ce7576127268460600151847f000000000000000000000000000000000000000000000000000000000000000081518110612cd957fe5b602002602001015184613426565b61266c8460600151847f000000000000000000000000000000000000000000000000000000000000000081518110612d1b57fe5b6020026020010151857f000000000000000000000000000000000000000000000000000000000000000081518110612d4f57fe5b6020026020010151612d86877f000000000000000000000000000000000000000000000000000000000000000081518110610adc57fe5b8661345b565b600073ba1ba1ba1ba1ba1ba1ba1ba1ba1ba1ba1ba1ba1b612dab610dfd565b6001600160a01b031614158015612dc65750612dc6836134af565b15612dee57612dd3610dfd565b6001600160a01b0316336001600160a01b03161490506106db565b612df6612007565b6001600160a01b0316639be2a8848484306040518463ffffffff1660e01b8152600401612e2593929190613ee9565b60206040518083038186803b158015612e3d57600080fd5b505afa158015612e51573d6000803e3d6000fd5b505050506040513d601f19601f820116820180604052508101906112139190613a49565b6000612e84848411158361138a565b5050900390565b4690565b612ea264e8d4a5100082101560cb61138a565b612eb867016345785d8a000082111560ca61138a565b600854612ec7908260c0611340565b6008556040517fa9ba3ffe0b6c366b81232caab38605a0699ad5398d6cce76f91ee809e322dafc906117e5908390613ee0565b6000818060200190518101906106db9190613b98565b6113ab612f1b6117f0565b156101af61138a565b600060606000612f33846134d2565b90506000612f9e8683612f78897f000000000000000000000000000000000000000000000000000000000000000081518110612f6b57fe5b6020026020010151612265565b7f00000000000000000000000000000000000000000000000000000000000000006134e8565b9196919550909350505050565b612fc26001600160a01b038316151561019b61138a565b612fce8260008361080d565b6001600160a01b038216600090815260208190526040902054612ff490826101a1612e75565b6001600160a01b03831660009081526020819052604090205560025461301a90826135a3565b6002556040516000906001600160a01b0384169060008051602061412e83398151915290613049908590613ee0565b60405180910390a35050565b6008546130649082600061136f565b60085550565b6130766000838361080d565b6002546130839082611af1565b6002556001600160a01b0382166000908152602081905260409020546130a99082611af1565b6001600160a01b03831660008181526020819052604080822093909355915190919060008051602061412e83398151915290613049908590613ee0565b6000806130f38684611e22565b905060006131018287611e83565b9050600061310f868a611355565b9050600061312a8461227361312485876135b1565b8a6135cb565b90506131368882611355565b9450505050505b95945050505050565b6000806131538684611e22565b905060006131618287611e83565b90506000613178613172838b6135b1565b876135fe565b905060006131868483611355565b90506000613194828861361e565b90506131a08a82611355565b9b9a5050505050505050505050565b6000806131bc8484611e22565b905060006131d36131cd8688611af1565b85611e22565b9050611ace8183611355565b6000826131f7576131f08683611e22565b905061313d565b60006132038684611e22565b905060006132146131cd888a611af1565b905060006132228284611355565b905060006132308489611e83565b905061313661323f88846135b1565b826135fe565b6000806132528484611e22565b905060006132608287611355565b9050600061326e828661361e565b905061327a8682611355565b979650505050505050565b60008261329357508461313d565b600061329f8684611e22565b905060006132ad8287611e83565b905060006132bb878a611af1565b905060006132c98483611e83565b905060006132e06132da89846135b1565b856135fe565b90506131a08189611355565b6000826132fa57508461313d565b60006133068684611e22565b905060006133148287611e83565b90506000613322868a611af1565b905060006133378461227361312485876135b1565b90506131368189611355565b600082613354576131f0868361361e565b60006133608684611e22565b9050600061336e8287611e83565b9050600061338561337f838b6135b1565b876135cb565b905060006133938483611af1565b905060006133a1828861361e565b90506131a0818b611355565b6000806133ba8484611e22565b905060006133cb6131cd8688611355565b9050611ace8282611355565b6000806133e48684611e22565b905060006133f56131cd888a611355565b905060006134038383611355565b905060006134118489611e83565b905061313661342088846135b1565b826135cb565b6000806134338484611e22565b905060006134418287611af1565b9050600061344f828661361e565b905061327a8187611355565b6000806134688684611e22565b905060006134768287611e83565b90506000613484878a611355565b905060006134928483611e83565b905060006134a36132da89846135b1565b90506131a08882611355565b60006134c1634f88840760e11b610d85565b8214806106db57506106db826136ae565b6000818060200190518101906107c69190613bb2565b606060006134f68585612927565b9050600086516001600160401b038111801561351157600080fd5b5060405190808252806020026020018201604052801561353b578160200160208202803683370190505b50905060005b875181101561359857848114613590576135778389838151811061356157fe5b60200260200101516124bf90919063ffffffff16565b82828151811061358357fe5b6020026020010181815250505b600101613541565b509695505050505050565b60006107c683836001612e75565b60008282026107c68415806124dc5750838583816124d957fe5b60006135da821515600461138a565b826135e7575060006106db565b8160018403816135f357fe5b0460010190506106db565b600061360d821515600461138a565b81838161361657fe5b049392505050565b600081602001518310156136675781516112139061364590670de0b6b3a764000090611af1565b602084015184516136619161365a91906124bf565b8690611af1565b90612927565b816040015183116136795750816106db565b81516112139061369290670de0b6b3a764000090611355565b60408401518451613661916136a791906124bf565b8690611355565b60006136c0631c74c91760e11b610d85565b8214806106db57506136d86350dd6ed960e01b610d85565b909114919050565b8035610b15816140fb565b600082601f8301126136fb578081fd5b8135602061371061370b836140de565b6140bb565b828152818101908583018385028701840188101561372c578586fd5b855b8581101561374a5781358452928401929084019060010161372e565b5090979650505050505050565b600082601f830112613767578081fd5b8151602061377761370b836140de565b8281528181019085830183850287018401881015613793578586fd5b855b8581101561374a57815184529284019290840190600101613795565b600082601f8301126137c1578081fd5b81356001600160401b038111156137d457fe5b6137e7601f8201601f19166020016140bb565b8181528460208386010111156137fb578283fd5b816020850160208301379081016020019190915292915050565b805160018110610b1557600080fd5b803560028110610b1557600080fd5b600060208284031215613844578081fd5b81356107c6816140fb565b60008060408385031215613861578081fd5b823561386c816140fb565b9150602083013561387c816140fb565b809150509250929050565b60008060006060848603121561389b578081fd5b83356138a6816140fb565b925060208401356138b6816140fb565b929592945050506040919091013590565b600080600080600080600060e0888a0312156138e1578485fd5b87356138ec816140fb565b965060208801356138fc816140fb565b95506040880135945060608801359350608088013561391a8161411e565b9699959850939692959460a0840135945060c09093013592915050565b60008060408385031215613949578182fd5b8235613954816140fb565b946020939093013593505050565b600080600060608486031215613976578081fd5b83516001600160401b038082111561398c578283fd5b818601915086601f83011261399f578283fd5b815160206139af61370b836140de565b82815281810190858301838502870184018c10156139cb578788fd5b8796505b848710156139f65780516139e2816140fb565b8352600196909601959183019183016139cf565b5091890151919750909350505080821115613a0f578283fd5b50613a1c86828701613757565b925050604084015190509250925092565b600060208284031215613a3e578081fd5b81356107c681614110565b600060208284031215613a5a578081fd5b81516107c681614110565b600080600080600080600060e0888a031215613a7f578081fd5b873596506020880135613a91816140fb565b95506040880135613aa1816140fb565b945060608801356001600160401b0380821115613abc578283fd5b613ac88b838c016136eb565b955060808a0135945060a08a0135935060c08a0135915080821115613aeb578283fd5b50613af88a828b016137b1565b91505092959891949750929550565b600060208284031215613b18578081fd5b81356001600160e01b0319811681146107c6578182fd5b600060208284031215613b40578081fd5b81516107c6816140fb565b60008060408385031215613b5d578182fd5b8235613b68816140fb565b915060208301356001600160401b03811115613b82578182fd5b613b8e858286016137b1565b9150509250929050565b600060208284031215613ba9578081fd5b6107c682613815565b60008060408385031215613bc4578182fd5b613bcd83613815565b9150602083015190509250929050565b60008060008060808587031215613bf2578182fd5b84356001600160401b0380821115613c08578384fd5b818701915061012080838a031215613c1e578485fd5b613c27816140bb565b9050613c3283613824565b8152613c40602084016136e0565b6020820152613c51604084016136e0565b6040820152606083013560608201526080830135608082015260a083013560a0820152613c8060c084016136e0565b60c0820152613c9160e084016136e0565b60e08201526101008084013583811115613ca9578687fd5b613cb58b8287016137b1565b828401525050809650506020870135915080821115613cd2578384fd5b50613cdf878288016136eb565b949794965050505060408301359260600135919050565b600060208284031215613d07578081fd5b5035919050565b600060208284031215613d1f578081fd5b5051919050565b60008060408385031215613d38578182fd5b50508035926020909101359150565b60008060008060808587031215613d5c578182fd5b8451935060208501519250604085015191506060850151613d7c816140fb565b939692955090935050565b600060208284031215613d98578081fd5b81516107c68161411e565b6000815180845260208085019450808401835b83811015613dd257815187529582019590820190600101613db6565b509495945050505050565b15159052565b60008151808452815b81811015613e0857602081850181015186830182015201613dec565b81811115613e195782602083870101525b50601f01601f19169290920160200192915050565b9182526001600160e01b031916602082015260240190565b6000828483379101908152919050565b61190160f01b81526002810192909252602282015260420190565b6001600160a01b0391909116815260200190565b6000602082526107c66020830184613da3565b600060408252613eab6040830185613da3565b828103602084015261313d8185613da3565b901515815260200190565b92151583526020830191909152604082015260600190565b90815260200190565b9283526001600160a01b03918216602084015216604082015260600190565b6000858252602060018060a01b0380871682850152808616604085015260806060850152610100840185516080808701528181518084526101208801915085830193508692505b80831015613f7157835185168252928501926001929092019190850190613f4f565b50848801519450607f199350838782030160a0880152613f918186613da3565b94505050506040850151818584030160c0860152613faf8382613de3565b92505050606084015161359860e0850182613ddd565b9586526001600160a01b0394851660208701529290931660408501526060840152608083019190915260a082015260c00190565b9485526020850193909352604084019190915260608301526001600160a01b0316608082015260a00190565b60008382526040602083015261266c6040830184613de3565b9182526001600160a01b0316602082015260400190565b93845260ff9290921660208401526040830152606082015260800190565b6000602082526107c66020830184613de3565b60008382526040602083015261266c6040830184613da3565b918252602082015260400190565b60ff91909116815260200190565b6040518181016001600160401b03811182821017156140d657fe5b604052919050565b60006001600160401b038211156140f157fe5b5060209081020190565b6001600160a01b038116811461071657600080fd5b801515811461071657600080fd5b60ff8116811461071657600080fdfeddf252ad1be2c89b69c2b068fc378daa952ba7f163c4a11628f55a4df523b3efa264697066735822122020dcd9ce36920ac1ae4a46ff01ce9d059233798336fdae5b7f6e322b6dd2b35064736f6c63430007060033",
  "linkReferences": {},
  "deployedLinkReferences": {}
}