{
  "_format": "hh-sol-artifact-1",
  "contractName": "LinearPoolFactory",
  "sourceName": "contracts/CompoundLinearPoolFactory.sol",
  "abi": [
    {
      "inputs": [
        {
          "internalType": "contract IVault",
          "name": "vault",
          "type": "address"
        },
        {
          "internalType": "address",
          "name": "defaultPoolOwner",
          "type": "address"
        }
      ],
      "stateMutability": "nonpayable",
      "type": "constructor"
    },
    {
      "anonymous": false,
      "inputs": [
        {
          "indexed": true,
          "internalType": "address",
          "name": "pool",
          "type": "address"
        }
      ],
      "name": "PoolCreated",
      "type": "event"
    },
    {
      "inputs": [
        {
          "internalType": "string",
          "name": "name",
          "type": "string"
        },
        {
          "internalType": "string",
          "name": "symbol",
          "type": "string"
        },
        {
          "internalType": "contract IERC20",
          "name": "mainToken",
          "type": "address"
        },
        {
          "internalType": "contract IERC20",
          "name": "wrappedToken",
          "type": "address"
        },
        {
          "internalType": "uint256",
          "name": "upperTarget",
          "type": "uint256"
        },
        {
          "internalType": "uint256",
          "name": "swapFeePercentage",
          "type": "uint256"
        }
      ],
      "name": "create",
      "outputs": [
        {
          "internalType": "contract LinearPool",
          "name": "",
          "type": "address"
        }
      ],
      "stateMutability": "nonpayable",
      "type": "function"
    },
    {
      "inputs": [],
      "name": "getCreationCode",
      "outputs": [
        {
          "internalType": "bytes",
          "name": "",
          "type": "bytes"
        }
      ],
      "stateMutability": "view",
      "type": "function"
    },
    {
      "inputs": [],
      "name": "getCreationCodeContracts",
      "outputs": [
        {
          "internalType": "address",
          "name": "contractA",
          "type": "address"
        },
        {
          "internalType": "address",
          "name": "contractB",
          "type": "address"
        }
      ],
      "stateMutability": "view",
      "type": "function"
    },
    {
      "inputs": [],
      "name": "getDefaultPoolOwner",
      "outputs": [
        {
          "internalType": "address",
          "name": "",
          "type": "address"
        }
      ],
      "stateMutability": "view",
      "type": "function"
    },
    {
      "inputs": [],
      "name": "getPauseConfiguration",
      "outputs": [
        {
          "internalType": "uint256",
          "name": "pauseWindowDuration",
          "type": "uint256"
        },
        {
          "internalType": "uint256",
          "name": "bufferPeriodDuration",
          "type": "uint256"
        }
      ],
      "stateMutability": "view",
      "type": "function"
    },
    {
      "inputs": [],
      "name": "getVault",
      "outputs": [
        {
          "internalType": "contract IVault",
          "name": "",
          "type": "address"
        }
      ],
      "stateMutability": "view",
      "type": "function"
    },
    {
      "inputs": [
        {
          "internalType": "address",
          "name": "pool",
          "type": "address"
        }
      ],
      "name": "isPoolFromFactory",
      "outputs": [
        {
          "internalType": "bool",
          "name": "",
          "type": "bool"
        }
      ],
      "stateMutability": "view",
      "type": "function"
    }
  ],
  "bytecode": "0x6101406040523480156200001257600080fd5b5060405162005c8738038062005c878339810160408190526200003591620001e6565b81604051806020016200004890620001d8565b601f1982820381018352601f9091011660405280518390829060006002820460a081905280830360e08190528185529091508362000092816200011c602090811b620002f917901c565b60601b6001600160601b0319166080528285018051838252620000c1826200011c602090811b620002f917901c565b606090811b6001600160601b031990811660c0529690935290529690961b909116610100525050600080546001600160a01b0319166001600160a01b03929092169190911790555050506276a700420161012052506200023d565b80517f602038038060206000396000f3fefefefefefefefefefefefefefefefefefefe808352600091602081018484f090845291506200016a6001600160a01b03831615156101ac62000170565b50919050565b816200018157620001818162000185565b5050565b62461bcd60e51b6000908152602060045260076024526642414c23000030600a808404818106603090810160081b95839006959095019082900491820690940160101b939093010160c81b604452606490fd5b6151ed8062000a9a83390190565b60008060408385031215620001f9578182fd5b8251620002068162000224565b6020840151909250620002198162000224565b809150509250929050565b6001600160a01b03811681146200023a57600080fd5b50565b60805160601c60a05160c05160601c60e0516101005160601c610120516107fb6200029f6000398061018652806101af5250806102d752508061035352508061015d52806103cf52508061037452508061013c52806103ab52506107fb6000f3fe608060405234801561001057600080fd5b506004361061007c5760003560e01c80636634b7531161005b5780636634b753146100cb57806374dcc7a4146100eb5780637ff52b011461010b5780638d928af8146101135761007c565b8062c194db14610081578063174481fa1461009f5780632da47c40146100b5575b600080fd5b61008961011b565b6040516100969190610711565b60405180910390f35b6100a761013a565b6040516100969291906106ec565b6100bd610180565b60405161009692919061079f565b6100de6100d93660046105d9565b6101ea565b6040516100969190610706565b6100fe6100f93660046105f5565b610208565b60405161009691906106d8565b6100fe6102c6565b6100fe6102d5565b60606101356040518060200160405280600081525061034b565b905090565b7f00000000000000000000000000000000000000000000000000000000000000007f00000000000000000000000000000000000000000000000000000000000000009091565b600080427f00000000000000000000000000000000000000000000000000000000000000008110156101dc57807f000000000000000000000000000000000000000000000000000000000000000003925062278d0091506101e5565b60009250600091505b509091565b6001600160a01b031660009081526001602052604090205460ff1690565b6000806000610215610180565b9150915060006102636102266102d5565b8b8b8b8b8b8b8a8a6102366102c6565b60405160200161024f9a99989796959493929190610724565b604051602081830303815290604052610424565b9050806001600160a01b0316638129fc1c6040518163ffffffff1660e01b8152600401600060405180830381600087803b1580156102a057600080fd5b505af11580156102b4573d6000803e3d6000fd5b50929c9b505050505050505050505050565b6000546001600160a01b031690565b7f000000000000000000000000000000000000000000000000000000000000000090565b80517f602038038060206000396000f3fefefefefefefefefefefefefefefefefefefe808352600091602081018484f090845291506103456001600160a01b03831615156101ac610487565b50919050565b8051604080517f00000000000000000000000000000000000000000000000000000000000000007f0000000000000000000000000000000000000000000000000000000000000000818101858101848101602090810190965280855293957f00000000000000000000000000000000000000000000000000000000000000009592947f000000000000000000000000000000000000000000000000000000000000000094938801866000828a3c846000888301883c5060208981019089850101610416818386610499565b505050505050505050919050565b600080610430836104d7565b6001600160a01b0381166000818152600160208190526040808320805460ff19169092179091555192935090917f83a48fbcfc991335314e74d0496aab6a1987e992ddc85dddbcc4d6dd6ef2e9fc9190a292915050565b816104955761049581610511565b5050565b5b602081106104b9578151835260209283019290910190601f190161049a565b905182516020929092036101000a6000190180199091169116179052565b6000806104e38361034b565b905060008151602083016000f090506001600160a01b03811661050a573d6000803e3d6000fd5b9392505050565b62461bcd60e51b6000908152602060045260076024526642414c23000030600a808404818106603090810160081b95839006959095019082900491820690940160101b939093010160c81b604452606490fd5b600082601f830112610574578081fd5b813567ffffffffffffffff8082111561058957fe5b604051601f8301601f1916810160200182811182821017156105a757fe5b6040528281528483016020018610156105be578384fd5b82602086016020830137918201602001929092529392505050565b6000602082840312156105ea578081fd5b813561050a816107ad565b60008060008060008060c0878903121561060d578182fd5b863567ffffffffffffffff80821115610624578384fd5b6106308a838b01610564565b97506020890135915080821115610645578384fd5b5061065289828a01610564565b9550506040870135610663816107ad565b93506060870135610673816107ad565b9598949750929560808101359460a0909101359350915050565b60008151808452815b818110156106b257602081850181015186830182015201610696565b818111156106c35782602083870101525b50601f01601f19169290920160200192915050565b6001600160a01b0391909116815260200190565b6001600160a01b0392831681529116602082015260400190565b901515815260200190565b60006020825261050a602083018461068d565b6001600160a01b038b811682526101406020830181905260009161074a8483018e61068d565b9150838203604085015261075e828d61068d565b9a811660608501529889166080840152505060a081019590955260c085019390935260e0840191909152610100830152909116610120909101529392505050565b918252602082015260400190565b6001600160a01b03811681146107c257600080fd5b5056fea2646970667358221220791ce2af5b7d866dc3d49d7a4d9da80bd5ecb43ed10e8e12d3122f698bec124264736f6c634300070600336102c06040527f6e71edae12b1b97f4d1f60370fef10105fa2faae0126114a169c64845d6126c9610120523480156200003757600080fd5b50604051620051ed380380620051ed8339810160408190526200005a9162000c0e565b898989898989898989898960008a8a620000768b8b306200050f565b6040805160038082526080820190925290602082016060803683370190505089898989828289898d8280604051806040016040528060018152602001603160f81b81525085858a336001600160a01b031660001b806080818152505050806001600160a01b031660a0816001600160a01b031660601b815250505081600390805190602001906200010992919062000a59565b5080516200011f90600490602084019062000a59565b505060058054601260ff1990911617905550815160209283012060c052805191012060e052507f8b73c3c69bb8fe3d512ecc4cf759cc79239f7b179b0ffacaa9a75d522b39400f6101005260601b6001600160601b03191661014052506200019290506276a700831115610194620005de565b620001a662278d00821115610195620005de565b4290910161016081905201610180528551620001c8906002111560c8620005de565b620001e2620001d6620005f3565b8751111560c9620005de565b620001f886620005f860201b620013771760201c565b620002038462000604565b6040516309b2760f60e01b81526000906001600160a01b038c16906309b2760f9062000234908d9060040162000da6565b602060405180830381600087803b1580156200024f57600080fd5b505af115801562000264573d6000803e3d6000fd5b505050506040513d601f19601f820116820180604052508101906200028a919062000bf5565b604051633354e3e960e11b81529091506001600160a01b038c16906366a9c7d290620002bf9084908b908b9060040162000d0c565b600060405180830381600087803b158015620002da57600080fd5b505af1158015620002ef573d6000803e3d6000fd5b50505050806101a081815250505050505050505050505050866001600160a01b03166101c0816001600160a01b031660601b81525050856001600160a01b03166101e0816001600160a01b031660601b8152505060008060006200035b8a8a306200069060201b60201c565b610200819052610220839052610240829052919450925090506200037f8a62000786565b610260526200038e8962000786565b610280526000620003a18b828b6200085a565b5050505050505050505050505050856001600160a01b03166102a0816001600160a01b031660601b815250506200045d866001600160a01b0316636f307dc36040518163ffffffff1660e01b815260040160206040518083038186803b1580156200040b57600080fd5b505afa15801562000420573d6000803e3d6000fd5b505050506040513d601f19601f8201168201806040525081019062000446919062000bad565b6001600160a01b03898116911614610208620005de565b856001600160a01b031663fe9c44ae6040518163ffffffff1660e01b815260040160206040518083038186803b1580156200049757600080fd5b505afa158015620004ac573d6000803e3d6000fd5b505050506040513d601f19601f82011682018060405250810190620004d2919062000bd3565b1515600114620004ff5760405162461bcd60e51b8152600401620004f69062000dbb565b60405180910390fd5b5050505050505050505062000e1f565b6060600080806200052287878762000690565b60408051600380825260808201909252939650919450925060208201606080368337019050509350868484815181106200055857fe5b60200260200101906001600160a01b031690816001600160a01b031681525050858483815181106200058657fe5b60200260200101906001600160a01b031690816001600160a01b03168152505084848281518110620005b457fe5b60200260200101906001600160a01b031690816001600160a01b0316815250505050509392505050565b81620005ef57620005ef8162000908565b5050565b600390565b80620005ef816200095b565b6200061964e8d4a5100082101560cb620005de565b6200063167016345785d8a000082111560ca620005de565b620006508160c0600854620009e860201b62001381179092919060201c565b6008556040517fa9ba3ffe0b6c366b81232caab38605a0699ad5398d6cce76f91ee809e322dafc906200068590839062000df2565b60405180910390a150565b6000806000846001600160a01b0316866001600160a01b031610156200071957836001600160a01b0316856001600160a01b03161015620006dc5750600091506001905060026200077d565b836001600160a01b0316866001600160a01b03161015620007085750600091506002905060016200077d565b50600191506002905060006200077d565b846001600160a01b0316846001600160a01b03161015620007455750600291506001905060006200077d565b856001600160a01b0316846001600160a01b03161015620007715750600291506000905060016200077d565b50600191506000905060025b93509350939050565b60006001600160a01b038216301415620007aa5750670de0b6b3a764000062000855565b6000826001600160a01b031663313ce5676040518163ffffffff1660e01b815260040160206040518083038186803b158015620007e657600080fd5b505afa158015620007fb573d6000803e3d6000fd5b505050506040513d601f19601f8201168201806040525081019062000821919062000ce9565b60ff169050600062000840601283620009fd60201b620013971760201c565b905080600a0a670de0b6b3a764000002925050505b919050565b6200086b8183111561014c620005de565b620008836001600160601b0382111561014d620005de565b620008be6200089f82606062000a1560201b620013ad1760201c565b620008b784600062000a1560201b620013ad1760201c565b1762000a19565b826001600160a01b03167fd0e27a0d0c2cb09280fa5e4487315455b32afcdcf012dc35b6ef2a0e3c4d12808383604051620008fb92919062000dfb565b60405180910390a2505050565b62461bcd60e51b6000908152602060045260076024526642414c23000030600a808404818106603090810160081b95839006959095019082900491820690940160101b939093010160c81b604452606490fd5b6002815110156200096c57620009e5565b6000816000815181106200097c57fe5b602002602001015190506000600190505b8251811015620009e2576000838281518110620009a657fe5b60200260200101519050620009d7816001600160a01b0316846001600160a01b0316106065620005de60201b60201c565b91506001016200098d565b50505b50565b6001600160401b03811b1992909216911b1790565b600062000a0f838311156001620005de565b50900390565b1b90565b62000a3881600060085462000a3e60201b620013b1179092919060201c565b60085550565b6001600160c01b03828116821b90821b198416179392505050565b828054600181600116156101000203166002900490600052602060002090601f01602090048101928262000a91576000855562000adc565b82601f1062000aac57805160ff191683800117855562000adc565b8280016001018555821562000adc579182015b8281111562000adc57825182559160200191906001019062000abf565b5062000aea92915062000aee565b5090565b5b8082111562000aea576000815560010162000aef565b8051620008558162000e09565b600082601f83011262000b23578081fd5b81516001600160401b038082111562000b3857fe5b6040516020601f8401601f191682018101838111838210171562000b5857fe5b604052838252858401810187101562000b6f578485fd5b8492505b8383101562000b92578583018101518284018201529182019162000b73565b8383111562000ba357848185840101525b5095945050505050565b60006020828403121562000bbf578081fd5b815162000bcc8162000e09565b9392505050565b60006020828403121562000be5578081fd5b8151801515811462000bcc578182fd5b60006020828403121562000c07578081fd5b5051919050565b6000806000806000806000806000806101408b8d03121562000c2e578586fd5b62000c398b62000b05565b60208c0151909a506001600160401b038082111562000c56578788fd5b62000c648e838f0162000b12565b9a5060408d015191508082111562000c7a578788fd5b5062000c898d828e0162000b12565b98505062000c9a60608c0162000b05565b965062000caa60808c0162000b05565b955060a08b0151945060c08b0151935060e08b015192506101008b0151915062000cd86101208c0162000b05565b90509295989b9194979a5092959850565b60006020828403121562000cfb578081fd5b815160ff8116811462000bcc578182fd5b60006060820185835260206060818501528186518084526080860191508288019350845b8181101562000d575784516001600160a01b03168352938301939183019160010162000d30565b505084810360408601528551808252908201925081860190845b8181101562000d985782516001600160a01b03168552938301939183019160010162000d71565b509298975050505050505050565b602081016003831062000db557fe5b91905290565b6020808252601a908201527f57726170706564546f6b656e206973206e6f742043546f6b656e000000000000604082015260600190565b90815260200190565b918252602082015260400190565b6001600160a01b0381168114620009e557600080fd5b60805160a05160601c60c05160e05161010051610120516101405160601c61016051610180516101a0516101c05160601c6101e05160601c61020051610220516102405161026051610280516102a05160601c6141ef62000ffe600039806122de528061237352508061147b525080611417528061222a5250806107235280610ab252806114a3528061261a52806127ca52806129215280612a935280612c2f5280612d865250806108b35280610a7852806114395280611ab652806125e6528061274f528061279652806128ab52806128ed5280612a5f5280612bb95280612bfb5280612d105280612d52525080610af35280610cbc5280610da352806112f852806114e4528061216f5280612651528061280152806129585280612aca5280612c665280612dbd5280612fa25280612fda52508061134b52806115ff52806116cb5280612250528061259b52806126db5280612a155280612b455250806108d75280610f2452806115b652806116825280611aec52806121ef528061255c528061267d528061283752806129d65280612af65280612c9c525080610854525080611875525080611851525080610e63525080610fda52508061197b5250806119bd52508061199c525080610e3f525080610dc952506141ef6000f3fe608060405234801561001057600080fd5b50600436106102535760003560e01c8063679aefce1161014657806395d89b41116100c3578063d505accf11610087578063d505accf146104b2578063d5c096c4146104c5578063dd62ed3e146104d8578063de82cd34146104eb578063f174e241146104f3578063f5431aa8146104fb57610253565b806395d89b41146104695780639f11080e14610471578063a457c2d714610484578063a9059cbb14610497578063aaabadc5146104aa57610253565b806382687a561161010a57806382687a561461042b578063851c1bb31461043357806387ec681714610446578063893d20e8146104595780638d928af81461046157610253565b8063679aefce146103d457806370a08231146103dc57806374f3b009146103ef5780637ecebe00146104105780638129fc1c1461042357610253565b80633644e515116101d45780634de046d5116101985780634de046d51461036d57806350dd6ed91461038257806355c67628146103955780636028bfd41461039d57806363fe3b56146103be57610253565b80633644e5151461032f57806338e9922e1461033757806338fff2d01461034a57806339509351146103525780634d64cd741461036557610253565b806318160ddd1161021b57806318160ddd146102d35780631c0de051146102db5780631dd746ea146102f257806323b872dd14610307578063313ce5671461031a57610253565b806301ec954a1461025857806306fdde0314610281578063095ea7b31461029657806316b8d6ff146102b657806316c38b3c146102be575b600080fd5b61026b610266366004613c66565b610503565b6040516102789190613f6a565b60405180910390f35b610289610673565b60405161027891906140fd565b6102a96102a43660046139bd565b61070a565b6040516102789190613f47565b61026b610721565b6102d16102cc366004613ab4565b610745565b005b61026b610759565b6102e361075f565b60405161027893929190613f52565b6102fa610788565b6040516102789190613f0f565b6102a961031536600461390d565b610797565b61032261080d565b6040516102789190614137565b61026b610816565b6102d1610345366004613d80565b610820565b61026b610852565b6102a96103603660046139bd565b610876565b61026b6108b1565b6103756108d5565b6040516102789190613efb565b6102d1610390366004613bd3565b6108f9565b61026b610917565b6103b06103ab366004613aec565b610928565b604051610278929190614110565b6103c661095f565b604051610278929190614129565b61026b61098d565b61026b6103ea3660046138b9565b610b3b565b6104026103fd366004613aec565b610b5a565b604051610278929190613f22565b61026b61041e3660046138b9565b610bd8565b6102d1610bf3565b61026b610da1565b61026b610441366004613b8f565b610dc5565b6103b0610454366004613aec565b610e17565b610375610e3d565b610375610e61565b610289610e85565b6102d161047f366004613db0565b610ee6565b6102a96104923660046139bd565b610f50565b6102a96104a53660046139bd565b610f8e565b610375610f9b565b6102d16104c036600461394d565b610fa5565b6104026104d3366004613aec565b6110ee565b61026b6104e63660046138d5565b61121e565b61026b61125b565b610375611349565b61026b61136d565b60008460800151610530610515610e61565b6001600160a01b0316336001600160a01b03161460cd6113cc565b61054561053b610852565b82146101f46113cc565b61054d6113da565b6105676003851080156105605750600384105b60646113cc565b60006105716113ef565b905061057d868261151d565b60008061058861095f565b91509150600060405180606001604052806105a1610917565b815260208101859052604001839052905060008a5160018111156105c157fe5b1415610625576105e88a60600151858a815181106105db57fe5b602002602001015161157e565b60608b015260006105fa8b8b8461158a565b905061061981868a8151811061060c57fe5b6020026020010151611651565b9650505050505061066a565b6106398a606001518589815181106105db57fe5b60608b0152600061064b8b8b8461165d565b905061061981868b8151811061065d57fe5b6020026020010151611712565b50949350505050565b60038054604080516020601f60026000196101006001881615020190951694909404938401819004810282018101909252828152606093909290918301828280156106ff5780601f106106d4576101008083540402835291602001916106ff565b820191906000526020600020905b8154815290600101906020018083116106e257829003601f168201915b505050505090505b90565b600061071733848461171e565b5060015b92915050565b7f000000000000000000000000000000000000000000000000000000000000000090565b61074d611786565b610756816117b4565b50565b60025490565b600080600061076c611832565b15925061077761184f565b9150610781611873565b9050909192565b60606107926113ef565b905090565b6000806107a4853361121e565b90506107c8336001600160a01b03871614806107c05750838210155b61019e6113cc565b6107d3858585611897565b336001600160a01b038616148015906107ee57506000198114155b1561080057610800853385840361171e565b60019150505b9392505050565b60055460ff1690565b6000610792611977565b60008061082b61095f565b9150915061084461083c8383611a14565b61014f6113cc565b61084d83611b2c565b505050565b7f000000000000000000000000000000000000000000000000000000000000000090565b3360008181526001602090815260408083206001600160a01b038716845290915281205490916107179185906108ac9086611b45565b61171e565b7f000000000000000000000000000000000000000000000000000000000000000090565b7f000000000000000000000000000000000000000000000000000000000000000090565b610901611786565b6109096113da565b6109138282611b57565b5050565b6008546000906107929060c0611c1e565b6000606061093e8651610939611c2c565b611c31565b61095389898989898989611c3e611ce2611d43565b97509795505050505050565b600080600061096c611e65565b9050610979816000611e6b565b9250610986816060611e6b565b9150509091565b600080610998610852565b905060006109a4610e61565b6001600160a01b031663f94d4668836040518263ffffffff1660e01b81526004016109cf9190613f6a565b60006040518083038186803b1580156109e757600080fd5b505afa1580156109fb573d6000803e3d6000fd5b505050506040513d6000823e601f3d908101601f19168201604052610a2391908101906139e8565b50915050610a3881610a336113ef565b61151d565b600080610a4361095f565b9150915060006040518060600160405280610a5c610917565b81526020018481526020018381525090506000610ae8610aaf867f000000000000000000000000000000000000000000000000000000000000000081518110610aa157fe5b602002602001015184611e7d565b867f000000000000000000000000000000000000000000000000000000000000000081518110610adb57fe5b6020026020010151611ede565b9050610b30610b29867f000000000000000000000000000000000000000000000000000000000000000081518110610b1c57fe5b6020026020010151611eea565b8290611ef6565b965050505050505090565b6001600160a01b0381166000908152602081905260409020545b919050565b60608088610b69610515610e61565b610b7461053b610852565b6000610b7e6113ef565b9050610b8a888261151d565b6000806000610b9f8e8e8e8e8e8e8a8f611c3e565b925092509250610baf8d84611f4d565b610bb98285611ce2565b610bc38185611ce2565b909550935050505b5097509795505050505050565b6001600160a01b031660009081526006602052604090205490565b6000610bfd610852565b90506000610c09610e61565b6001600160a01b031663f94d4668836040518263ffffffff1660e01b8152600401610c349190613f6a565b60006040518083038186803b158015610c4c57600080fd5b505afa158015610c60573d6000803e3d6000fd5b505050506040513d6000823e601f3d908101601f19168201604052610c8891908101906139e8565b50506040805160038082526080820190925291925060009190602082016060803683370190505090506001600160701b03817f000000000000000000000000000000000000000000000000000000000000000081518110610ce557fe5b60200260200101818152505060006040518060800160405280610d0785610707565b8152602001838152602001604051806020016040528060008152508152602001600015158152509050610d38610e61565b6001600160a01b031663b95cac28853030856040518563ffffffff1660e01b8152600401610d699493929190613f92565b600060405180830381600087803b158015610d8357600080fd5b505af1158015610d97573d6000803e3d6000fd5b5050505050505050565b7f000000000000000000000000000000000000000000000000000000000000000090565b60007f000000000000000000000000000000000000000000000000000000000000000082604051602001610dfa929190613eb8565b604051602081830303815290604052805190602001209050919050565b60006060610e288651610939611c2c565b61095389898989898989611f57611f75611d43565b7f000000000000000000000000000000000000000000000000000000000000000090565b7f000000000000000000000000000000000000000000000000000000000000000090565b60048054604080516020601f60026000196101006001881615020190951694909404938401819004810282018101909252828152606093909290918301828280156106ff5780601f106106d4576101008083540402835291602001916106ff565b610eee611786565b600080610ef961095f565b91509150610f0a61083c8383611a14565b610f1f610f178585611a14565b6101576113cc565b610f4a7f00000000000000000000000000000000000000000000000000000000000000008585611fd6565b50505050565b600080610f5d338561121e565b9050808310610f7757610f723385600061171e565b610f84565b610f84338585840361171e565b5060019392505050565b6000610717338484611897565b6000610792612067565b610fb38442111560d16113cc565b6001600160a01b038716600090815260066020908152604080832054905190929161100a917f0000000000000000000000000000000000000000000000000000000000000000918c918c918c9188918d910161404f565b604051602081830303815290604052805190602001209050600061102d826120e1565b905060006001828888886040516000815260200160405260405161105494939291906140df565b6020604051602081039080840390855afa158015611076573d6000803e3d6000fd5b5050604051601f19015191506110b890506001600160a01b038216158015906110b057508b6001600160a01b0316826001600160a01b0316145b6101f86113cc565b6001600160a01b038b1660009081526006602052604090206001850190556110e18b8b8b61171e565b5050505050505050505050565b606080886110fd610515610e61565b61110861053b610852565b60006111126113ef565b905061111c610759565b6111ce576000806111308d8d8d868b6120fd565b9150915061114961113f6121b1565b83101560cc6113cc565b61115b60006111566121b1565b6121b6565b61116e8b6111676121b1565b84036121b6565b6111788184611f75565b80611181611c2c565b67ffffffffffffffff8111801561119757600080fd5b506040519080825280602002602001820160405280156111c1578160200160208202803683370190505b5095509550505050610bcb565b6111d8888261151d565b60008060006111ed8e8e8e8e8e8e8a8f611f57565b9250925092506111fd8c846121b6565b6112078285611f75565b6112118185611ce2565b9095509350610bcb915050565b6000611228610e61565b6001600160a01b0316826001600160a01b0316141561124a575060001961071b565b61125483836121c0565b905061071b565b600080611266610e61565b6001600160a01b031663f94d466861127c610852565b6040518263ffffffff1660e01b81526004016112989190613f6a565b60006040518083038186803b1580156112b057600080fd5b505afa1580156112c4573d6000803e3d6000fd5b505050506040513d6000823e601f3d908101601f191682016040526112ec91908101906139e8565b509150506000611337827f00000000000000000000000000000000000000000000000000000000000000008151811061132157fe5b6020026020010151611332306121eb565b61157e565b9050611342816122c5565b9250505090565b7f000000000000000000000000000000000000000000000000000000000000000090565b60006107926122d9565b8061091381612453565b67ffffffffffffffff811b1992909216911b1790565b60006113a78383111560016113cc565b50900390565b1b90565b6001600160c01b03828116821b90821b198416179392505050565b8161091357610913816124cc565b6113ed6113e5611832565b6101926113cc565b565b60408051600380825260808201909252606091600091906020820184803683370190505090507f0000000000000000000000000000000000000000000000000000000000000000817f00000000000000000000000000000000000000000000000000000000000000008151811061146257fe5b6020026020010181815250506114a06114796122d9565b7f00000000000000000000000000000000000000000000000000000000000000009061251f565b817f0000000000000000000000000000000000000000000000000000000000000000815181106114cc57fe5b602002602001018181525050670de0b6b3a7640000817f00000000000000000000000000000000000000000000000000000000000000008151811061150d57fe5b6020908102919091010152905090565b60005b611528611c2c565b81101561084d5761155f83828151811061153e57fe5b602002602001015183838151811061155257fe5b602002602001015161251f565b83828151811061156b57fe5b6020908102919091010152600101611520565b6000610806838361251f565b60208301516000906001600160a01b03163014156115b4576115ad848484612555565b9050610806565b7f00000000000000000000000000000000000000000000000000000000000000006001600160a01b031684602001516001600160a01b031614156115fd576115ad8484846126d4565b7f00000000000000000000000000000000000000000000000000000000000000006001600160a01b031684602001516001600160a01b03161415611646576115ad848484612830565b6108066101356124cc565b60006108068383612987565b60408301516000906001600160a01b0316301415611680576115ad8484846129cf565b7f00000000000000000000000000000000000000000000000000000000000000006001600160a01b031684604001516001600160a01b031614156116c9576115ad848484612b3e565b7f00000000000000000000000000000000000000000000000000000000000000006001600160a01b031684604001516001600160a01b03161415611646576115ad848484612c95565b60006108068383611ef6565b6001600160a01b0380841660008181526001602090815260408083209487168084529490915290819020849055517f8c5be1e5ebec7d5bd14f71427d1e84f3dd0314c0f7b2291e5b200ac8c7c3b92590611779908590613f6a565b60405180910390a3505050565b600061179d6000356001600160e01b031916610dc5565b90506107566117ac8233612dec565b6101916113cc565b80156117d4576117cf6117c561184f565b42106101936113cc565b6117e9565b6117e96117df611873565b42106101a96113cc565b6007805460ff19168215151790556040517f9e3a5e37224532dea67b89face185703738a228a6e8a23dee546960180d3be6490611827908390613f47565b60405180910390a150565b600061183c611873565b42118061079257505060075460ff161590565b7f000000000000000000000000000000000000000000000000000000000000000090565b7f000000000000000000000000000000000000000000000000000000000000000090565b6118ae6001600160a01b03841615156101986113cc565b6118c56001600160a01b03831615156101996113cc565b6118d083838361084d565b6001600160a01b0383166000908152602081905260409020546118f690826101a0612ed5565b6001600160a01b0380851660009081526020819052604080822093909355908416815220546119259082611b45565b6001600160a01b0380841660008181526020819052604090819020939093559151908516907fddf252ad1be2c89b69c2b068fc378daa952ba7f163c4a11628f55a4df523b3ef90611779908590613f6a565b60007f00000000000000000000000000000000000000000000000000000000000000007f00000000000000000000000000000000000000000000000000000000000000007f00000000000000000000000000000000000000000000000000000000000000006119e4612eeb565b306040516020016119f9959493929190614083565b60405160208183030381529060405280519060200120905090565b600080611a1f610852565b90506000611a2b610e61565b6001600160a01b031663f94d4668836040518263ffffffff1660e01b8152600401611a569190613f6a565b60006040518083038186803b158015611a6e57600080fd5b505afa158015611a82573d6000803e3d6000fd5b505050506040513d6000823e601f3d908101601f19168201604052611aaa91908101906139e8565b509150506000611b10827f000000000000000000000000000000000000000000000000000000000000000081518110611adf57fe5b60200260200101516113327f00000000000000000000000000000000000000000000000000000000000000006121eb565b9050858110158015611b225750848111155b9695505050505050565b611b34611786565b611b3c6113da565b61075681612eef565b600082820161080684821015836113cc565b6000611b61610852565b90506000611b6d610e61565b6001600160a01b031663b05f8e4883866040518363ffffffff1660e01b8152600401611b9a9291906140c8565b60806040518083038186803b158015611bb257600080fd5b505afa158015611bc6573d6000803e3d6000fd5b505050506040513d601f19601f82011682018060405250810190611bea9190613dd1565b604051630639cdb560e21b81529094506001600160a01b03851693506318e736d49250610d699150859087906004016140af565b1c67ffffffffffffffff1690565b600390565b61091381831460676113cc565b60006060806000611c4e85612f5a565b90506000818015611c5b57fe5b14611c7057611c6b61014e6124cc565b611cd3565b611c78612f70565b611c828986612f84565b9094509250611c8f611c2c565b67ffffffffffffffff81118015611ca557600080fd5b50604051908082528060200260200182016040528015611ccf578160200160208202803683370190505b5091505b50985098509895505050505050565b60005b611ced611c2c565b81101561084d57611d24838281518110611d0357fe5b6020026020010151838381518110611d1757fe5b6020026020010151612987565b838281518110611d3057fe5b6020908102919091010152600101611ce5565b333014611e01576000306001600160a01b0316600036604051611d67929190613ed0565b6000604051808303816000865af19150503d8060008114611da4576040519150601f19603f3d011682016040523d82523d6000602084013e611da9565b606091505b505090508060008114611db857fe5b60046000803e6000516001600160e01b0319166343adbafb60e01b8114611de3573d6000803e3d6000fd5b506020600460003e604060205260243d03602460403e601c3d016000f35b6000611e0b6113ef565b9050611e17878261151d565b600080611e2e8c8c8c8c8c8c898d8d63ffffffff16565b5091509150611e4181848663ffffffff16565b8051601f1982018390526343adbafb603f1983015260200260231982016044820181fd5b60085490565b1c6bffffffffffffffffffffffff1690565b60008160200151831015611eb65781516020830151600091611ea2918690039061251f565b9050611eae8482611397565b91505061071b565b81604001518311611ec857508161071b565b81516040830151600091611ea29186039061251f565b60006108068383611b45565b6001600160701b030390565b6000611f0582151560046113cc565b82611f125750600061071b565b670de0b6b3a764000083810290611f3590858381611f2c57fe5b041460056113cc565b826001820381611f4157fe5b0460010191505061071b565b610913828261300b565b6000606080611f6761014e6124cc565b985098509895505050505050565b60005b611f80611c2c565b81101561084d57611fb7838281518110611f9657fe5b6020026020010151838381518110611faa57fe5b6020026020010151611ef6565b838281518110611fc357fe5b6020908102919091010152600101611f78565b611fe58183111561014c6113cc565b6120006bffffffffffffffffffffffff82111561014d6113cc565b61201f61200e8260606113ad565b6120198460006113ad565b176130c7565b826001600160a01b03167fd0e27a0d0c2cb09280fa5e4487315455b32afcdcf012dc35b6ef2a0e3c4d1280838360405161205a929190614129565b60405180910390a2505050565b6000612071610e61565b6001600160a01b031663aaabadc56040518163ffffffff1660e01b815260040160206040518083038186803b1580156120a957600080fd5b505afa1580156120bd573d6000803e3d6000fd5b505050506040513d601f19601f820116820180604052508101906107929190613bb7565b60006120eb611977565b82604051602001610dfa929190613ee0565b600060606121096113da565b6121206001600160a01b03871630146101566113cc565b6121376001600160a01b03861630146101566113cc565b604080516003808252608082019092526001600160701b039160009190602082016060803683370190505090506001600160701b03817f00000000000000000000000000000000000000000000000000000000000000008151811061219857fe5b6020908102919091010152909890975095505050505050565b600090565b61091382826130dc565b6001600160a01b03918216600090815260016020908152604080832093909416825291909152205490565b60007f00000000000000000000000000000000000000000000000000000000000000006001600160a01b0316826001600160a01b0316141561224e57507f0000000000000000000000000000000000000000000000000000000000000000610b55565b7f00000000000000000000000000000000000000000000000000000000000000006001600160a01b0316826001600160a01b0316141561229a576122936114796122d9565b9050610b55565b6001600160a01b0382163014156122ba5750670de0b6b3a7640000610b55565b610b556101356124cc565b600061071b826122d3610759565b90611397565b6000807f00000000000000000000000000000000000000000000000000000000000000006001600160a01b031663313ce5676040518163ffffffff1660e01b815260040160206040518083038186803b15801561233557600080fd5b505afa158015612349573d6000803e3d6000fd5b505050506040513d601f19601f8201168201806040525081019061236d9190613e11565b905060007f00000000000000000000000000000000000000000000000000000000000000006001600160a01b031663182df0f56040518163ffffffff1660e01b815260040160206040518083038186803b1580156123ca57600080fd5b505afa1580156123de573d6000803e3d6000fd5b505050506040513d601f19601f820116820180604052508101906124029190613d98565b905060128260ff16111561242c576012820360ff16600a0a818161242257fe5b0492505050610707565b60128260ff16101561244d578160120360ff16600a0a810292505050610707565b91505090565b60028151101561246257610756565b60008160008151811061247157fe5b602002602001015190506000600190505b825181101561084d57600083828151811061249957fe5b602002602001015190506124c2816001600160a01b0316846001600160a01b03161060656113cc565b9150600101612482565b62461bcd60e51b6000908152602060045260076024526642414c23000030600a808404818106603090810160081b95839006959095019082900491820690940160101b939093010160c81b604452606490fd5b600082820261254384158061253c57508385838161253957fe5b04145b60036113cc565b670de0b6b3a764000090049392505050565b60006125db7f00000000000000000000000000000000000000000000000000000000000000006001600160a01b031685604001516001600160a01b031614806125d357507f00000000000000000000000000000000000000000000000000000000000000006001600160a01b031685604001516001600160a01b0316145b6101356113cc565b6126cc8460600151847f00000000000000000000000000000000000000000000000000000000000000008151811061260f57fe5b6020026020010151857f00000000000000000000000000000000000000000000000000000000000000008151811061264357fe5b602002602001015161267a877f000000000000000000000000000000000000000000000000000000000000000081518110610b1c57fe5b867f00000000000000000000000000000000000000000000000000000000000000006001600160a01b03168a604001516001600160a01b0316146126c05761316a6126c4565b6131ca5b63ffffffff16565b949350505050565b60006127307f00000000000000000000000000000000000000000000000000000000000000006001600160a01b031685604001516001600160a01b031614806125d3575060408501516001600160a01b031630146101356113cc565b60408401516001600160a01b0316301461278b576127868460600151847f00000000000000000000000000000000000000000000000000000000000000008151811061277857fe5b602002602001015184613233565b6126cc565b6126cc8460600151847f0000000000000000000000000000000000000000000000000000000000000000815181106127bf57fe5b6020026020010151857f0000000000000000000000000000000000000000000000000000000000000000815181106127f357fe5b602002602001015161282a877f000000000000000000000000000000000000000000000000000000000000000081518110610b1c57fe5b86613263565b600061288c7f00000000000000000000000000000000000000000000000000000000000000006001600160a01b031685604001516001600160a01b031614806125d3575060408501516001600160a01b031630146101356113cc565b60408401516001600160a01b031630146128e2576127868460600151847f0000000000000000000000000000000000000000000000000000000000000000815181106128d457fe5b6020026020010151846132c9565b6126cc8460600151847f00000000000000000000000000000000000000000000000000000000000000008151811061291657fe5b6020026020010151857f00000000000000000000000000000000000000000000000000000000000000008151811061294a57fe5b6020026020010151612981877f000000000000000000000000000000000000000000000000000000000000000081518110610b1c57fe5b86613309565b600061299682151560046113cc565b826129a35750600061071b565b670de0b6b3a7640000838102906129bd90858381611f2c57fe5b8281816129c657fe5b0491505061071b565b6000612a547f00000000000000000000000000000000000000000000000000000000000000006001600160a01b031685602001516001600160a01b031614806125d357507f00000000000000000000000000000000000000000000000000000000000000006001600160a01b031685602001516001600160a01b0316146101356113cc565b6126cc8460600151847f000000000000000000000000000000000000000000000000000000000000000081518110612a8857fe5b6020026020010151857f000000000000000000000000000000000000000000000000000000000000000081518110612abc57fe5b6020026020010151612af3877f000000000000000000000000000000000000000000000000000000000000000081518110610b1c57fe5b867f00000000000000000000000000000000000000000000000000000000000000006001600160a01b03168a602001516001600160a01b031614612b39576133706126c4565b6133c7565b6000612b9a7f00000000000000000000000000000000000000000000000000000000000000006001600160a01b031685602001516001600160a01b031614806125d3575060208501516001600160a01b031630146101356113cc565b60208401516001600160a01b03163014612bf0576127868460600151847f000000000000000000000000000000000000000000000000000000000000000081518110612be257fe5b602002602001015184613431565b6126cc8460600151847f000000000000000000000000000000000000000000000000000000000000000081518110612c2457fe5b6020026020010151857f000000000000000000000000000000000000000000000000000000000000000081518110612c5857fe5b6020026020010151612c8f877f000000000000000000000000000000000000000000000000000000000000000081518110610b1c57fe5b8661345b565b6000612cf17f00000000000000000000000000000000000000000000000000000000000000006001600160a01b031685602001516001600160a01b031614806125d3575060208501516001600160a01b031630146101356113cc565b60208401516001600160a01b03163014612d47576127868460600151847f000000000000000000000000000000000000000000000000000000000000000081518110612d3957fe5b6020026020010151846134aa565b6126cc8460600151847f000000000000000000000000000000000000000000000000000000000000000081518110612d7b57fe5b6020026020010151857f000000000000000000000000000000000000000000000000000000000000000081518110612daf57fe5b6020026020010151612de6877f000000000000000000000000000000000000000000000000000000000000000081518110610b1c57fe5b866134df565b600073ba1ba1ba1ba1ba1ba1ba1ba1ba1ba1ba1ba1ba1b612e0b610e3d565b6001600160a01b031614158015612e265750612e2683613533565b15612e4e57612e33610e3d565b6001600160a01b0316336001600160a01b031614905061071b565b612e56612067565b6001600160a01b0316639be2a8848484306040518463ffffffff1660e01b8152600401612e8593929190613f73565b60206040518083038186803b158015612e9d57600080fd5b505afa158015612eb1573d6000803e3d6000fd5b505050506040513d601f19601f820116820180604052508101906112549190613ad0565b6000612ee484841115836113cc565b5050900390565b4690565b612f0264e8d4a5100082101560cb6113cc565b612f1867016345785d8a000082111560ca6113cc565b600854612f27908260c0611381565b6008556040517fa9ba3ffe0b6c366b81232caab38605a0699ad5398d6cce76f91ee809e322dafc90611827908390613f6a565b60008180602001905181019061071b9190613c21565b6113ed612f7b611832565b156101af6113cc565b600060606000612f9384613556565b90506000612ffe8683612fd8897f000000000000000000000000000000000000000000000000000000000000000081518110612fcb57fe5b60200260200101516122c5565b7f000000000000000000000000000000000000000000000000000000000000000061356c565b9196919550909350505050565b6130226001600160a01b038316151561019b6113cc565b61302e8260008361084d565b6001600160a01b03821660009081526020819052604090205461305490826101a1612ed5565b6001600160a01b03831660009081526020819052604090205560025461307a9082613628565b6002556040516000906001600160a01b038416907fddf252ad1be2c89b69c2b068fc378daa952ba7f163c4a11628f55a4df523b3ef906130bb908590613f6a565b60405180910390a35050565b6008546130d6908260006113b1565b60085550565b6130e86000838361084d565b6002546130f59082611b45565b6002556001600160a01b03821660009081526020819052604090205461311b9082611b45565b6001600160a01b0383166000818152602081905260408082209390935591519091907fddf252ad1be2c89b69c2b068fc378daa952ba7f163c4a11628f55a4df523b3ef906130bb908590613f6a565b6000806131778684611e7d565b905060006131858287611ede565b90506000613193868a611397565b905060006131ae846122d36131a88587613636565b8a613650565b90506131ba8882611397565b9450505050505b95945050505050565b6000806131d78684611e7d565b905060006131e58287611ede565b905060006131fc6131f6838b613636565b87613683565b9050600061320a8483611397565b9050600061321882886136a3565b90506132248a82611397565b9b9a5050505050505050505050565b6000806132408484611e7d565b905060006132576132518688611b45565b85611e7d565b9050611b228183611397565b60008261327b576132748683611e7d565b90506131c1565b60006132878684611e7d565b90506000613298613251888a611b45565b905060006132a68284611397565b905060006132b48489611ede565b90506131ba6132c38884613636565b82613683565b6000806132d68484611e7d565b905060006132e48287611397565b905060006132f282866136a3565b90506132fe8682611397565b979650505050505050565b6000826133175750846131c1565b60006133238684611e7d565b905060006133318287611ede565b9050600061333f878a611b45565b9050600061334d8483611ede565b9050600061336461335e8984613636565b85613683565b90506132248189611397565b60008261337e5750846131c1565b600061338a8684611e7d565b905060006133988287611ede565b905060006133a6868a611b45565b905060006133bb846122d36131a88587613636565b90506131ba8189611397565b6000826133d85761327486836136a3565b60006133e48684611e7d565b905060006133f28287611ede565b90506000613409613403838b613636565b87613650565b905060006134178483611b45565b9050600061342582886136a3565b9050613224818b611397565b60008061343e8484611e7d565b9050600061344f6132518688611397565b9050611b228282611397565b6000806134688684611e7d565b90506000613479613251888a611397565b905060006134878383611397565b905060006134958489611ede565b90506131ba6134a48884613636565b82613650565b6000806134b78484611e7d565b905060006134c58287611b45565b905060006134d382866136a3565b90506132fe8187611397565b6000806134ec8684611e7d565b905060006134fa8287611ede565b90506000613508878a611397565b905060006135168483611ede565b9050600061352761335e8984613636565b90506132248882611397565b6000613545634f88840760e11b610dc5565b82148061071b575061071b82613733565b6000818060200190518101906108069190613c3b565b6060600061357a8585612987565b90506000865167ffffffffffffffff8111801561359657600080fd5b506040519080825280602002602001820160405280156135c0578160200160208202803683370190505b50905060005b875181101561361d57848114613615576135fc838983815181106135e657fe5b602002602001015161251f90919063ffffffff16565b82828151811061360857fe5b6020026020010181815250505b6001016135c6565b509695505050505050565b600061080683836001612ed5565b600082820261080684158061253c57508385838161253957fe5b600061365f82151560046113cc565b8261366c5750600061071b565b81600184038161367857fe5b04600101905061071b565b600061369282151560046113cc565b81838161369b57fe5b049392505050565b600081602001518310156136ec578151611254906136ca90670de0b6b3a764000090611b45565b602084015184516136e6916136df919061251f565b8690611b45565b90612987565b816040015183116136fe57508161071b565b81516112549061371790670de0b6b3a764000090611397565b604084015184516136e69161372c919061251f565b8690611397565b6000613745631c74c91760e11b610dc5565b82148061071b575061375d6350dd6ed960e01b610dc5565b909114919050565b8035610b5581614187565b600082601f830112613780578081fd5b8135602061379561379083614169565b614145565b82815281810190858301838502870184018810156137b1578586fd5b855b858110156137cf578135845292840192908401906001016137b3565b5090979650505050505050565b600082601f8301126137ec578081fd5b815160206137fc61379083614169565b8281528181019085830183850287018401881015613818578586fd5b855b858110156137cf5781518452928401929084019060010161381a565b600082601f830112613846578081fd5b813567ffffffffffffffff81111561385a57fe5b61386d601f8201601f1916602001614145565b818152846020838601011115613881578283fd5b816020850160208301379081016020019190915292915050565b805160018110610b5557600080fd5b803560028110610b5557600080fd5b6000602082840312156138ca578081fd5b813561080681614187565b600080604083850312156138e7578081fd5b82356138f281614187565b9150602083013561390281614187565b809150509250929050565b600080600060608486031215613921578081fd5b833561392c81614187565b9250602084013561393c81614187565b929592945050506040919091013590565b600080600080600080600060e0888a031215613967578485fd5b873561397281614187565b9650602088013561398281614187565b9550604088013594506060880135935060808801356139a0816141aa565b9699959850939692959460a0840135945060c09093013592915050565b600080604083850312156139cf578182fd5b82356139da81614187565b946020939093013593505050565b6000806000606084860312156139fc578081fd5b835167ffffffffffffffff80821115613a13578283fd5b818601915086601f830112613a26578283fd5b81516020613a3661379083614169565b82815281810190858301838502870184018c1015613a52578788fd5b8796505b84871015613a7d578051613a6981614187565b835260019690960195918301918301613a56565b5091890151919750909350505080821115613a96578283fd5b50613aa3868287016137dc565b925050604084015190509250925092565b600060208284031215613ac5578081fd5b81356108068161419c565b600060208284031215613ae1578081fd5b81516108068161419c565b600080600080600080600060e0888a031215613b06578081fd5b873596506020880135613b1881614187565b95506040880135613b2881614187565b9450606088013567ffffffffffffffff80821115613b44578283fd5b613b508b838c01613770565b955060808a0135945060a08a0135935060c08a0135915080821115613b73578283fd5b50613b808a828b01613836565b91505092959891949750929550565b600060208284031215613ba0578081fd5b81356001600160e01b031981168114610806578182fd5b600060208284031215613bc8578081fd5b815161080681614187565b60008060408385031215613be5578182fd5b8235613bf081614187565b9150602083013567ffffffffffffffff811115613c0b578182fd5b613c1785828601613836565b9150509250929050565b600060208284031215613c32578081fd5b6108068261389b565b60008060408385031215613c4d578182fd5b613c568361389b565b9150602083015190509250929050565b60008060008060808587031215613c7b578182fd5b843567ffffffffffffffff80821115613c92578384fd5b818701915061012080838a031215613ca8578485fd5b613cb181614145565b9050613cbc836138aa565b8152613cca60208401613765565b6020820152613cdb60408401613765565b6040820152606083013560608201526080830135608082015260a083013560a0820152613d0a60c08401613765565b60c0820152613d1b60e08401613765565b60e08201526101008084013583811115613d33578687fd5b613d3f8b828701613836565b828401525050809650506020870135915080821115613d5c578384fd5b50613d6987828801613770565b949794965050505060408301359260600135919050565b600060208284031215613d91578081fd5b5035919050565b600060208284031215613da9578081fd5b5051919050565b60008060408385031215613dc2578182fd5b50508035926020909101359150565b60008060008060808587031215613de6578182fd5b8451935060208501519250604085015191506060850151613e0681614187565b939692955090935050565b600060208284031215613e22578081fd5b8151610806816141aa565b6000815180845260208085019450808401835b83811015613e5c57815187529582019590820190600101613e40565b509495945050505050565b15159052565b60008151808452815b81811015613e9257602081850181015186830182015201613e76565b81811115613ea35782602083870101525b50601f01601f19169290920160200192915050565b9182526001600160e01b031916602082015260240190565b6000828483379101908152919050565b61190160f01b81526002810192909252602282015260420190565b6001600160a01b0391909116815260200190565b6000602082526108066020830184613e2d565b600060408252613f356040830185613e2d565b82810360208401526131c18185613e2d565b901515815260200190565b92151583526020830191909152604082015260600190565b90815260200190565b9283526001600160a01b03918216602084015216604082015260600190565b6000858252602060018060a01b0380871682850152808616604085015260806060850152610100840185516080808701528181518084526101208801915085830193508692505b80831015613ffb57835185168252928501926001929092019190850190613fd9565b50848801519450607f199350838782030160a088015261401b8186613e2d565b94505050506040850151818584030160c08601526140398382613e6d565b92505050606084015161361d60e0850182613e67565b9586526001600160a01b0394851660208701529290931660408501526060840152608083019190915260a082015260c00190565b9485526020850193909352604084019190915260608301526001600160a01b0316608082015260a00190565b6000838252604060208301526126cc6040830184613e6d565b9182526001600160a01b0316602082015260400190565b93845260ff9290921660208401526040830152606082015260800190565b6000602082526108066020830184613e6d565b6000838252604060208301526126cc6040830184613e2d565b918252602082015260400190565b60ff91909116815260200190565b60405181810167ffffffffffffffff8111828210171561416157fe5b604052919050565b600067ffffffffffffffff82111561417d57fe5b5060209081020190565b6001600160a01b038116811461075657600080fd5b801515811461075657600080fd5b60ff8116811461075657600080fdfea2646970667358221220af1d129ed2231169d65dbb7aff212be90e32422d3b857cf881d30c73daeb61e364736f6c63430007060033",
  "linkReferences": {},
  "deployedLinkReferences": {}
}