{
  "_format": "hh-sol-artifact-1",
  "contractName": "WAVEMasterChef",
  "sourceName": "contracts/EmissionDistributor.sol",
  "abi": [
    {
      "inputs": [
        {
          "internalType": "contract WAVEToken",
          "name": "_wave",
          "type": "address"
        },
        {
          "internalType": "address",
          "name": "_treasuryAddress",
          "type": "address"
        },
        {
          "internalType": "uint256",
          "name": "_wavePerBlock",
          "type": "uint256"
        },
        {
          "internalType": "uint256",
          "name": "_startBlock",
          "type": "uint256"
        }
      ],
      "stateMutability": "nonpayable",
      "type": "constructor"
    },
    {
      "anonymous": false,
      "inputs": [
        {
          "indexed": true,
          "internalType": "address",
          "name": "user",
          "type": "address"
        },
        {
          "indexed": true,
          "internalType": "uint256",
          "name": "pid",
          "type": "uint256"
        },
        {
          "indexed": false,
          "internalType": "uint256",
          "name": "amount",
          "type": "uint256"
        },
        {
          "indexed": true,
          "internalType": "address",
          "name": "to",
          "type": "address"
        }
      ],
      "name": "Deposit",
      "type": "event"
    },
    {
      "anonymous": false,
      "inputs": [
        {
          "indexed": true,
          "internalType": "address",
          "name": "user",
          "type": "address"
        },
        {
          "indexed": true,
          "internalType": "uint256",
          "name": "pid",
          "type": "uint256"
        },
        {
          "indexed": false,
          "internalType": "uint256",
          "name": "amount",
          "type": "uint256"
        },
        {
          "indexed": true,
          "internalType": "address",
          "name": "to",
          "type": "address"
        }
      ],
      "name": "EmergencyWithdraw",
      "type": "event"
    },
    {
      "anonymous": false,
      "inputs": [
        {
          "indexed": true,
          "internalType": "address",
          "name": "user",
          "type": "address"
        },
        {
          "indexed": true,
          "internalType": "uint256",
          "name": "pid",
          "type": "uint256"
        },
        {
          "indexed": false,
          "internalType": "uint256",
          "name": "amount",
          "type": "uint256"
        }
      ],
      "name": "Harvest",
      "type": "event"
    },
    {
      "anonymous": false,
      "inputs": [
        {
          "indexed": true,
          "internalType": "uint256",
          "name": "pid",
          "type": "uint256"
        },
        {
          "indexed": false,
          "internalType": "uint256",
          "name": "allocPoint",
          "type": "uint256"
        },
        {
          "indexed": true,
          "internalType": "contract IERC20",
          "name": "lpToken",
          "type": "address"
        },
        {
          "indexed": true,
          "internalType": "contract IRewarder",
          "name": "rewarder",
          "type": "address"
        }
      ],
      "name": "LogPoolAddition",
      "type": "event"
    },
    {
      "anonymous": false,
      "inputs": [
        {
          "indexed": true,
          "internalType": "uint256",
          "name": "pid",
          "type": "uint256"
        },
        {
          "indexed": false,
          "internalType": "uint256",
          "name": "allocPoint",
          "type": "uint256"
        },
        {
          "indexed": true,
          "internalType": "contract IRewarder",
          "name": "rewarder",
          "type": "address"
        },
        {
          "indexed": false,
          "internalType": "bool",
          "name": "overwrite",
          "type": "bool"
        }
      ],
      "name": "LogSetPool",
      "type": "event"
    },
    {
      "anonymous": false,
      "inputs": [
        {
          "indexed": true,
          "internalType": "uint256",
          "name": "pid",
          "type": "uint256"
        },
        {
          "indexed": false,
          "internalType": "uint256",
          "name": "lastRewardBlock",
          "type": "uint256"
        },
        {
          "indexed": false,
          "internalType": "uint256",
          "name": "lpSupply",
          "type": "uint256"
        },
        {
          "indexed": false,
          "internalType": "uint256",
          "name": "accWAVEPerShare",
          "type": "uint256"
        }
      ],
      "name": "LogUpdatePool",
      "type": "event"
    },
    {
      "anonymous": false,
      "inputs": [
        {
          "indexed": true,
          "internalType": "address",
          "name": "previousOwner",
          "type": "address"
        },
        {
          "indexed": true,
          "internalType": "address",
          "name": "newOwner",
          "type": "address"
        }
      ],
      "name": "OwnershipTransferred",
      "type": "event"
    },
    {
      "anonymous": false,
      "inputs": [
        {
          "indexed": true,
          "internalType": "address",
          "name": "oldAddress",
          "type": "address"
        },
        {
          "indexed": true,
          "internalType": "address",
          "name": "newAddress",
          "type": "address"
        }
      ],
      "name": "SetTreasuryAddress",
      "type": "event"
    },
    {
      "anonymous": false,
      "inputs": [
        {
          "indexed": true,
          "internalType": "address",
          "name": "user",
          "type": "address"
        },
        {
          "indexed": false,
          "internalType": "uint256",
          "name": "_wavePerSec",
          "type": "uint256"
        }
      ],
      "name": "UpdateEmissionRate",
      "type": "event"
    },
    {
      "anonymous": false,
      "inputs": [
        {
          "indexed": true,
          "internalType": "address",
          "name": "user",
          "type": "address"
        },
        {
          "indexed": true,
          "internalType": "uint256",
          "name": "pid",
          "type": "uint256"
        },
        {
          "indexed": false,
          "internalType": "uint256",
          "name": "amount",
          "type": "uint256"
        },
        {
          "indexed": true,
          "internalType": "address",
          "name": "to",
          "type": "address"
        }
      ],
      "name": "Withdraw",
      "type": "event"
    },
    {
      "inputs": [],
      "name": "POOL_PERCENTAGE",
      "outputs": [
        {
          "internalType": "uint256",
          "name": "",
          "type": "uint256"
        }
      ],
      "stateMutability": "view",
      "type": "function"
    },
    {
      "inputs": [],
      "name": "TREASURY_PERCENTAGE",
      "outputs": [
        {
          "internalType": "uint256",
          "name": "",
          "type": "uint256"
        }
      ],
      "stateMutability": "view",
      "type": "function"
    },
    {
      "inputs": [
        {
          "internalType": "uint256",
          "name": "_allocPoint",
          "type": "uint256"
        },
        {
          "internalType": "contract IERC20",
          "name": "_lpToken",
          "type": "address"
        },
        {
          "internalType": "contract IRewarder",
          "name": "_rewarder",
          "type": "address"
        }
      ],
      "name": "add",
      "outputs": [],
      "stateMutability": "nonpayable",
      "type": "function"
    },
    {
      "inputs": [
        {
          "internalType": "uint256",
          "name": "_pid",
          "type": "uint256"
        },
        {
          "internalType": "uint256",
          "name": "_amount",
          "type": "uint256"
        },
        {
          "internalType": "address",
          "name": "_to",
          "type": "address"
        }
      ],
      "name": "deposit",
      "outputs": [],
      "stateMutability": "nonpayable",
      "type": "function"
    },
    {
      "inputs": [
        {
          "internalType": "uint256",
          "name": "_pid",
          "type": "uint256"
        },
        {
          "internalType": "address",
          "name": "_to",
          "type": "address"
        }
      ],
      "name": "emergencyWithdraw",
      "outputs": [],
      "stateMutability": "nonpayable",
      "type": "function"
    },
    {
      "inputs": [
        {
          "internalType": "uint256",
          "name": "_pid",
          "type": "uint256"
        },
        {
          "internalType": "address",
          "name": "_to",
          "type": "address"
        }
      ],
      "name": "harvest",
      "outputs": [],
      "stateMutability": "nonpayable",
      "type": "function"
    },
    {
      "inputs": [
        {
          "internalType": "uint256[]",
          "name": "_pids",
          "type": "uint256[]"
        },
        {
          "internalType": "address",
          "name": "_to",
          "type": "address"
        }
      ],
      "name": "harvestAll",
      "outputs": [],
      "stateMutability": "nonpayable",
      "type": "function"
    },
    {
      "inputs": [
        {
          "internalType": "uint256",
          "name": "",
          "type": "uint256"
        }
      ],
      "name": "lpTokens",
      "outputs": [
        {
          "internalType": "contract IERC20",
          "name": "",
          "type": "address"
        }
      ],
      "stateMutability": "view",
      "type": "function"
    },
    {
      "inputs": [
        {
          "internalType": "uint256[]",
          "name": "pids",
          "type": "uint256[]"
        }
      ],
      "name": "massUpdatePools",
      "outputs": [],
      "stateMutability": "nonpayable",
      "type": "function"
    },
    {
      "inputs": [],
      "name": "owner",
      "outputs": [
        {
          "internalType": "address",
          "name": "",
          "type": "address"
        }
      ],
      "stateMutability": "view",
      "type": "function"
    },
    {
      "inputs": [
        {
          "internalType": "uint256",
          "name": "_pid",
          "type": "uint256"
        },
        {
          "internalType": "address",
          "name": "_user",
          "type": "address"
        }
      ],
      "name": "pendingWAVE",
      "outputs": [
        {
          "internalType": "uint256",
          "name": "pending",
          "type": "uint256"
        }
      ],
      "stateMutability": "view",
      "type": "function"
    },
    {
      "inputs": [
        {
          "internalType": "uint256",
          "name": "",
          "type": "uint256"
        }
      ],
      "name": "poolInfo",
      "outputs": [
        {
          "internalType": "uint256",
          "name": "allocPoint",
          "type": "uint256"
        },
        {
          "internalType": "uint256",
          "name": "lastRewardBlock",
          "type": "uint256"
        },
        {
          "internalType": "uint256",
          "name": "accWAVEPerShare",
          "type": "uint256"
        }
      ],
      "stateMutability": "view",
      "type": "function"
    },
    {
      "inputs": [],
      "name": "poolLength",
      "outputs": [
        {
          "internalType": "uint256",
          "name": "",
          "type": "uint256"
        }
      ],
      "stateMutability": "view",
      "type": "function"
    },
    {
      "inputs": [],
      "name": "renounceOwnership",
      "outputs": [],
      "stateMutability": "nonpayable",
      "type": "function"
    },
    {
      "inputs": [
        {
          "internalType": "uint256",
          "name": "",
          "type": "uint256"
        }
      ],
      "name": "rewarder",
      "outputs": [
        {
          "internalType": "contract IRewarder",
          "name": "",
          "type": "address"
        }
      ],
      "stateMutability": "view",
      "type": "function"
    },
    {
      "inputs": [
        {
          "internalType": "uint256",
          "name": "_pid",
          "type": "uint256"
        },
        {
          "internalType": "uint256",
          "name": "_allocPoint",
          "type": "uint256"
        },
        {
          "internalType": "contract IRewarder",
          "name": "_rewarder",
          "type": "address"
        },
        {
          "internalType": "bool",
          "name": "overwrite",
          "type": "bool"
        }
      ],
      "name": "set",
      "outputs": [],
      "stateMutability": "nonpayable",
      "type": "function"
    },
    {
      "inputs": [],
      "name": "startBlock",
      "outputs": [
        {
          "internalType": "uint256",
          "name": "",
          "type": "uint256"
        }
      ],
      "stateMutability": "view",
      "type": "function"
    },
    {
      "inputs": [],
      "name": "totalAllocPoint",
      "outputs": [
        {
          "internalType": "uint256",
          "name": "",
          "type": "uint256"
        }
      ],
      "stateMutability": "view",
      "type": "function"
    },
    {
      "inputs": [
        {
          "internalType": "address",
          "name": "newOwner",
          "type": "address"
        }
      ],
      "name": "transferOwnership",
      "outputs": [],
      "stateMutability": "nonpayable",
      "type": "function"
    },
    {
      "inputs": [
        {
          "internalType": "address",
          "name": "_treasuryAddress",
          "type": "address"
        }
      ],
      "name": "treasury",
      "outputs": [],
      "stateMutability": "nonpayable",
      "type": "function"
    },
    {
      "inputs": [],
      "name": "treasuryAddress",
      "outputs": [
        {
          "internalType": "address",
          "name": "",
          "type": "address"
        }
      ],
      "stateMutability": "view",
      "type": "function"
    },
    {
      "inputs": [
        {
          "internalType": "uint256",
          "name": "_wavePerBlock",
          "type": "uint256"
        }
      ],
      "name": "updateEmissionRate",
      "outputs": [],
      "stateMutability": "nonpayable",
      "type": "function"
    },
    {
      "inputs": [
        {
          "internalType": "uint256",
          "name": "_pid",
          "type": "uint256"
        }
      ],
      "name": "updatePool",
      "outputs": [
        {
          "components": [
            {
              "internalType": "uint256",
              "name": "allocPoint",
              "type": "uint256"
            },
            {
              "internalType": "uint256",
              "name": "lastRewardBlock",
              "type": "uint256"
            },
            {
              "internalType": "uint256",
              "name": "accWAVEPerShare",
              "type": "uint256"
            }
          ],
          "internalType": "struct WAVEMasterChef.PoolInfo",
          "name": "pool",
          "type": "tuple"
        }
      ],
      "stateMutability": "nonpayable",
      "type": "function"
    },
    {
      "inputs": [
        {
          "internalType": "uint256",
          "name": "",
          "type": "uint256"
        },
        {
          "internalType": "address",
          "name": "",
          "type": "address"
        }
      ],
      "name": "userInfo",
      "outputs": [
        {
          "internalType": "uint256",
          "name": "amount",
          "type": "uint256"
        },
        {
          "internalType": "uint256",
          "name": "rewardDebt",
          "type": "uint256"
        }
      ],
      "stateMutability": "view",
      "type": "function"
    },
    {
      "inputs": [],
      "name": "wave",
      "outputs": [
        {
          "internalType": "contract WAVEToken",
          "name": "",
          "type": "address"
        }
      ],
      "stateMutability": "view",
      "type": "function"
    },
    {
      "inputs": [],
      "name": "wavePerBlock",
      "outputs": [
        {
          "internalType": "uint256",
          "name": "",
          "type": "uint256"
        }
      ],
      "stateMutability": "view",
      "type": "function"
    },
    {
      "inputs": [
        {
          "internalType": "uint256",
          "name": "_pid",
          "type": "uint256"
        },
        {
          "internalType": "uint256",
          "name": "_amount",
          "type": "uint256"
        },
        {
          "internalType": "address",
          "name": "_to",
          "type": "address"
        }
      ],
      "name": "withdrawAndHarvest",
      "outputs": [],
      "stateMutability": "nonpayable",
      "type": "function"
    }
  ],
  "bytecode": "0x60806040526000600a553480156200001657600080fd5b5060405162003e5438038062003e5483398181016040528101906200003c919062000255565b6200005c620000506200014460201b60201c565b6200014c60201b60201c565b6753444835ec580000821115620000aa576040517f08c379a0000000000000000000000000000000000000000000000000000000008152600401620000a190620002ee565b60405180910390fd5b83600160006101000a81548173ffffffffffffffffffffffffffffffffffffffff021916908373ffffffffffffffffffffffffffffffffffffffff16021790555082600260006101000a81548173ffffffffffffffffffffffffffffffffffffffff021916908373ffffffffffffffffffffffffffffffffffffffff1602179055508160038190555080600b819055505050505062000415565b600033905090565b60008060009054906101000a900473ffffffffffffffffffffffffffffffffffffffff169050816000806101000a81548173ffffffffffffffffffffffffffffffffffffffff021916908373ffffffffffffffffffffffffffffffffffffffff1602179055508173ffffffffffffffffffffffffffffffffffffffff168173ffffffffffffffffffffffffffffffffffffffff167f8be0079c531659141344cd1fd0a4f28419497f9722a3daafe3b4186f6b6457e060405160405180910390a35050565b6000815190506200022181620003c7565b92915050565b6000815190506200023881620003e1565b92915050565b6000815190506200024f81620003fb565b92915050565b6000806000806080858703121562000272576200027162000373565b5b6000620002828782880162000227565b9450506020620002958782880162000210565b9350506040620002a8878288016200023e565b9250506060620002bb878288016200023e565b91505092959194509250565b6000620002d660328362000310565b9150620002e38262000378565b604082019050919050565b600060208201905081810360008301526200030981620002c7565b9050919050565b600082825260208201905092915050565b60006200032e8262000349565b9050919050565b6000620003428262000321565b9050919050565b600073ffffffffffffffffffffffffffffffffffffffff82169050919050565b6000819050919050565b600080fd5b7f6d6178696d756d20656d697373696f6e2072617465206f66203620776176652060008201527f70657220626c6f636b2065786365656465640000000000000000000000000000602082015250565b620003d28162000321565b8114620003de57600080fd5b50565b620003ec8162000335565b8114620003f857600080fd5b50565b620004068162000369565b81146200041257600080fd5b50565b613a2f80620004256000396000f3fe608060405234801561001057600080fd5b50600436106101a95760003560e01c806357a5b58c116100f9578063ab7de09811610097578063c346253d11610071578063c346253d14610497578063c5f956af146104c7578063d1abb907146104e5578063f2fde38b14610501576101a9565b8063ab7de0981461042d578063ab83a0af14610449578063c079421414610467576101a9565b806388bba42f116100d357806388bba42f146103a65780638da5cb5b146103c25780638dbdbe6d146103e057806393f1a40b146103fc576101a9565b806357a5b58c146103625780636fe15b441461037e578063715018a61461039c576101a9565b80631bb5e2dc1161016657806339e5f4ff1161014057806339e5f4ff146102da57806348cd4cb1146102f85780634bf37df61461031657806351eb05a614610332576101a9565b80631bb5e2dc146102725780632d809cb6146102a25780632f940c70146102be576101a9565b8063081e3eda146101ae5780630ba84cd2146101cc5780631526fe27146101e8578063173b31d81461021a57806317caf6f11461023857806318fccc7614610256575b600080fd5b6101b661051d565b6040516101c391906131a4565b60405180910390f35b6101e660048036038101906101e19190612ad8565b61052a565b005b61020260048036038101906101fd9190612ad8565b610649565b6040516102119392919061330a565b60405180910390f35b610222610683565b60405161022f91906131a4565b60405180910390f35b610240610688565b60405161024d91906131a4565b60405180910390f35b610270600480360381019061026b9190612b32565b61068e565b005b61028c60048036038101906102879190612ad8565b61088f565b6040516102999190612fb6565b60405180910390f35b6102bc60048036038101906102b791906129d1565b6108ce565b005b6102d860048036038101906102d39190612b32565b610a0a565b005b6102e2610c3d565b6040516102ef91906131a4565b60405180910390f35b610300610c43565b60405161030d91906131a4565b60405180910390f35b610330600480360381019061032b9190612a4b565b610c49565b005b61034c60048036038101906103479190612ad8565b610d09565b6040516103599190613189565b60405180910390f35b61037c600480360381019061037791906129fe565b6110c9565b005b610386611116565b6040516103939190612fec565b60405180910390f35b6103a461113c565b005b6103c060048036038101906103bb9190612c18565b6111c4565b005b6103ca611432565b6040516103d79190612f3b565b60405180910390f35b6103fa60048036038101906103f59190612bc5565b61145b565b005b61041660048036038101906104119190612b32565b6116d4565b6040516104249291906132e1565b60405180910390f35b61044760048036038101906104429190612b72565b611705565b005b610451611a86565b60405161045e91906131a4565b60405180910390f35b610481600480360381019061047c9190612b32565b611a8c565b60405161048e91906131a4565b60405180910390f35b6104b160048036038101906104ac9190612ad8565b611cbd565b6040516104be9190612fd1565b60405180910390f35b6104cf611cfc565b6040516104dc9190612f3b565b60405180910390f35b6104ff60048036038101906104fa9190612bc5565b611d22565b005b61051b600480360381019061051691906129d1565b612072565b005b6000600480549050905090565b61053261216a565b73ffffffffffffffffffffffffffffffffffffffff16610550611432565b73ffffffffffffffffffffffffffffffffffffffff16146105a6576040517f08c379a000000000000000000000000000000000000000000000000000000000815260040161059d90613089565b60405180910390fd5b6753444835ec5800008111156105f1576040517f08c379a00000000000000000000000000000000000000000000000000000000081526004016105e8906130a9565b60405180910390fd5b806003819055503373ffffffffffffffffffffffffffffffffffffffff167fe2492e003bbe8afa53088b406f0c1cb5d9e280370fc72a74cf116ffd343c40538260405161063e91906131a4565b60405180910390a250565b6004818154811061065957600080fd5b90600052602060002090600302016000915090508060000154908060010154908060020154905083565b607c81565b600a5481565b600061069983610d09565b905060006009600085815260200190815260200160002060003373ffffffffffffffffffffffffffffffffffffffff1673ffffffffffffffffffffffffffffffffffffffff1681526020019081526020016000209050600064e8d4a510008360400151836000015461070b91906133fa565b61071591906133c9565b905060008260010154826107299190613454565b90508183600101819055506000811115610748576107478582612172565b5b60006008878154811061075e5761075d61363a565b5b9060005260206000200160009054906101000a900473ffffffffffffffffffffffffffffffffffffffff169050600073ffffffffffffffffffffffffffffffffffffffff168173ffffffffffffffffffffffffffffffffffffffff1614610837578073ffffffffffffffffffffffffffffffffffffffff16630f0b0ed88833898689600001546040518663ffffffff1660e01b8152600401610804959493929190613265565b600060405180830381600087803b15801561081e57600080fd5b505af1158015610832573d6000803e3d6000fd5b505050505b863373ffffffffffffffffffffffffffffffffffffffff167f71bab65ced2e5750775a0613be067df48ef06cf92a496ebf7663ae06609249548460405161087e91906131a4565b60405180910390a350505050505050565b6005818154811061089f57600080fd5b906000526020600020016000915054906101000a900473ffffffffffffffffffffffffffffffffffffffff1681565b6108d661216a565b73ffffffffffffffffffffffffffffffffffffffff166108f4611432565b73ffffffffffffffffffffffffffffffffffffffff161461094a576040517f08c379a000000000000000000000000000000000000000000000000000000000815260040161094190613089565b60405180910390fd5b80600260006101000a81548173ffffffffffffffffffffffffffffffffffffffff021916908373ffffffffffffffffffffffffffffffffffffffff1602179055508073ffffffffffffffffffffffffffffffffffffffff16600260009054906101000a900473ffffffffffffffffffffffffffffffffffffffff1673ffffffffffffffffffffffffffffffffffffffff167f61885cdba916be748ff3e3f6f15e4206153b8ea3b7acabade9d04b4063a8351060405160405180910390a350565b60006009600084815260200190815260200160002060003373ffffffffffffffffffffffffffffffffffffffff1673ffffffffffffffffffffffffffffffffffffffff16815260200190815260200160002090506000816000015490506000826000018190555060008260010181905550600060088581548110610a9157610a9061363a565b5b9060005260206000200160009054906101000a900473ffffffffffffffffffffffffffffffffffffffff169050600073ffffffffffffffffffffffffffffffffffffffff168173ffffffffffffffffffffffffffffffffffffffff1614610b67578073ffffffffffffffffffffffffffffffffffffffff16630f0b0ed88633876000806040518663ffffffff1660e01b8152600401610b349594939291906131bf565b600060405180830381600087803b158015610b4e57600080fd5b505af1158015610b62573d6000803e3d6000fd5b505050505b610bd0848360058881548110610b8057610b7f61363a565b5b9060005260206000200160009054906101000a900473ffffffffffffffffffffffffffffffffffffffff1673ffffffffffffffffffffffffffffffffffffffff166123949092919063ffffffff16565b8373ffffffffffffffffffffffffffffffffffffffff16853373ffffffffffffffffffffffffffffffffffffffff167f2cac5e20e1541d836381527a43f651851e302817b71dc8e810284e69210c1c6b85604051610c2e91906131a4565b60405180910390a45050505050565b61036c81565b600b5481565b60005b83839050811015610d0357600060096000868685818110610c7057610c6f61363a565b5b90506020020135815260200190815260200160002060003373ffffffffffffffffffffffffffffffffffffffff1673ffffffffffffffffffffffffffffffffffffffff168152602001908152602001600020600001541115610cf057610cef848483818110610ce257610ce161363a565b5b905060200201358361068e565b5b8080610cfb90613593565b915050610c4c565b50505050565b610d116128c7565b60048281548110610d2557610d2461363a565b5b90600052602060002090600302016040518060600160405290816000820154815260200160018201548152602001600282015481525050905080602001514211156110c457600060058381548110610d8057610d7f61363a565b5b9060005260206000200160009054906101000a900473ffffffffffffffffffffffffffffffffffffffff1673ffffffffffffffffffffffffffffffffffffffff166370a08231306040518263ffffffff1660e01b8152600401610de39190612f3b565b60206040518083038186803b158015610dfb57600080fd5b505afa158015610e0f573d6000803e3d6000fd5b505050506040513d601f19601f82011682018060405250810190610e339190612b05565b90506000811115611030576000826020015142610e509190613454565b90506000600a54846000015160035484610e6a91906133fa565b610e7491906133fa565b610e7e91906133c9565b905060006103e861036c83610e9391906133fa565b610e9d91906133c9565b9050600160009054906101000a900473ffffffffffffffffffffffffffffffffffffffff1673ffffffffffffffffffffffffffffffffffffffff166340c10f19600260009054906101000a900473ffffffffffffffffffffffffffffffffffffffff166103e8607c86610f1091906133fa565b610f1a91906133c9565b6040518363ffffffff1660e01b8152600401610f37929190612f8d565b600060405180830381600087803b158015610f5157600080fd5b505af1158015610f65573d6000803e3d6000fd5b50505050600160009054906101000a900473ffffffffffffffffffffffffffffffffffffffff1673ffffffffffffffffffffffffffffffffffffffff166340c10f1930836040518363ffffffff1660e01b8152600401610fc6929190612f8d565b600060405180830381600087803b158015610fe057600080fd5b505af1158015610ff4573d6000803e3d6000fd5b505050508364e8d4a510008261100a91906133fa565b61101491906133c9565b85604001516110239190613373565b8560400181815250505050505b42826020018181525050816004848154811061104f5761104e61363a565b5b9060005260206000209060030201600082015181600001556020820151816001015560408201518160020155905050827fcb7325664a4a3b7c7223eefc492a97ca4fdf94d46884621e5a8fae5a04b2b9d283602001518385604001516040516110ba9392919061330a565b60405180910390a2505b919050565b600082829050905060005b81811015611110576110fe8484838181106110f2576110f161363a565b5b90506020020135610d09565b508061110990613593565b90506110d4565b50505050565b600160009054906101000a900473ffffffffffffffffffffffffffffffffffffffff1681565b61114461216a565b73ffffffffffffffffffffffffffffffffffffffff16611162611432565b73ffffffffffffffffffffffffffffffffffffffff16146111b8576040517f08c379a00000000000000000000000000000000000000000000000000000000081526004016111af90613089565b60405180910390fd5b6111c2600061241a565b565b6111cc61216a565b73ffffffffffffffffffffffffffffffffffffffff166111ea611432565b73ffffffffffffffffffffffffffffffffffffffff1614611240576040517f08c379a000000000000000000000000000000000000000000000000000000000815260040161123790613089565b60405180910390fd5b611249826124de565b806112805750600073ffffffffffffffffffffffffffffffffffffffff168273ffffffffffffffffffffffffffffffffffffffff16145b6112bf576040517f08c379a00000000000000000000000000000000000000000000000000000000081526004016112b690613109565b60405180910390fd5b82600485815481106112d4576112d361363a565b5b906000526020600020906003020160000154600a546112f39190613454565b6112fd9190613373565b600a8190555082600485815481106113185761131761363a565b5b90600052602060002090600302016000018190555080156113915781600885815481106113485761134761363a565b5b9060005260206000200160006101000a81548173ffffffffffffffffffffffffffffffffffffffff021916908373ffffffffffffffffffffffffffffffffffffffff1602179055505b806113da57600884815481106113aa576113a961363a565b5b9060005260206000200160009054906101000a900473ffffffffffffffffffffffffffffffffffffffff166113dc565b815b73ffffffffffffffffffffffffffffffffffffffff16847f95895a6ab1df54420d241b55243258a33e61b2194db66c1179ec521aae8e186585846040516114249291906132b8565b60405180910390a350505050565b60008060009054906101000a900473ffffffffffffffffffffffffffffffffffffffff16905090565b600061146684610d09565b905060006009600086815260200190815260200160002060008473ffffffffffffffffffffffffffffffffffffffff1673ffffffffffffffffffffffffffffffffffffffff16815260200190815260200160002090508381600001546114cc9190613373565b816000018190555064e8d4a510008260400151856114ea91906133fa565b6114f491906133c9565b81600101546115039190613373565b81600101819055506000600886815481106115215761152061363a565b5b9060005260206000200160009054906101000a900473ffffffffffffffffffffffffffffffffffffffff169050600073ffffffffffffffffffffffffffffffffffffffff168173ffffffffffffffffffffffffffffffffffffffff16146115fb578073ffffffffffffffffffffffffffffffffffffffff16630f0b0ed8878687600087600001546040518663ffffffff1660e01b81526004016115c8959493929190613212565b600060405180830381600087803b1580156115e257600080fd5b505af11580156115f6573d6000803e3d6000fd5b505050505b61166633308760058a815481106116155761161461363a565b5b9060005260206000200160009054906101000a900473ffffffffffffffffffffffffffffffffffffffff1673ffffffffffffffffffffffffffffffffffffffff166124f1909392919063ffffffff16565b8373ffffffffffffffffffffffffffffffffffffffff16863373ffffffffffffffffffffffffffffffffffffffff167f02d7e648dd130fc184d383e55bb126ac4c9c60e8f94bf05acdf557ba2d540b47886040516116c491906131a4565b60405180910390a4505050505050565b6009602052816000526040600020602052806000526040600020600091509150508060000154908060010154905082565b61170d61216a565b73ffffffffffffffffffffffffffffffffffffffff1661172b611432565b73ffffffffffffffffffffffffffffffffffffffff1614611781576040517f08c379a000000000000000000000000000000000000000000000000000000000815260040161177890613089565b60405180910390fd5b61178a826124de565b6117c9576040517f08c379a00000000000000000000000000000000000000000000000000000000081526004016117c0906130c9565b60405180910390fd5b6117d2816124de565b806118095750600073ffffffffffffffffffffffffffffffffffffffff168173ffffffffffffffffffffffffffffffffffffffff16145b611848576040517f08c379a000000000000000000000000000000000000000000000000000000000815260040161183f90613129565b60405180910390fd5b61185c82600661257a90919063ffffffff16565b1561189c576040517f08c379a000000000000000000000000000000000000000000000000000000000815260040161189390613069565b60405180910390fd5b6000600b5442116118af57600b546118b1565b425b905083600a546118c19190613373565b600a819055506005839080600181540180825580915050600190039060005260206000200160009091909190916101000a81548173ffffffffffffffffffffffffffffffffffffffff021916908373ffffffffffffffffffffffffffffffffffffffff16021790555061193e8360066125aa90919063ffffffff16565b506008829080600181540180825580915050600190039060005260206000200160009091909190916101000a81548173ffffffffffffffffffffffffffffffffffffffff021916908373ffffffffffffffffffffffffffffffffffffffff160217905550600460405180606001604052808681526020018381526020016000815250908060018154018082558091505060019003906000526020600020906003020160009091909190915060008201518160000155602082015181600101556040820151816002015550508173ffffffffffffffffffffffffffffffffffffffff168373ffffffffffffffffffffffffffffffffffffffff166001600580549050611a499190613454565b7f81ee0f8c5c46e2cb41984886f77a84181724abb86c32a5f6de539b07509d45e587604051611a7891906131a4565b60405180910390a450505050565b60035481565b60008060048481548110611aa357611aa261363a565b5b9060005260206000209060030201905060006009600086815260200190815260200160002060008573ffffffffffffffffffffffffffffffffffffffff1673ffffffffffffffffffffffffffffffffffffffff1681526020019081526020016000209050600082600201549050600060058781548110611b2657611b2561363a565b5b9060005260206000200160009054906101000a900473ffffffffffffffffffffffffffffffffffffffff1673ffffffffffffffffffffffffffffffffffffffff166370a08231306040518263ffffffff1660e01b8152600401611b899190612f3b565b60206040518083038186803b158015611ba157600080fd5b505afa158015611bb5573d6000803e3d6000fd5b505050506040513d601f19601f82011682018060405250810190611bd99190612b05565b9050836001015442118015611bef575060008114155b15611c82576000846001015442611c069190613454565b90506000600a54866000015460035484611c2091906133fa565b611c2a91906133fa565b611c3491906133c9565b905060006103e861036c83611c4991906133fa565b611c5391906133c9565b90508364e8d4a5100082611c6791906133fa565b611c7191906133c9565b85611c7c9190613373565b94505050505b826001015464e8d4a51000838560000154611c9d91906133fa565b611ca791906133c9565b611cb19190613454565b94505050505092915050565b60088181548110611ccd57600080fd5b906000526020600020016000915054906101000a900473ffffffffffffffffffffffffffffffffffffffff1681565b600260009054906101000a900473ffffffffffffffffffffffffffffffffffffffff1681565b6000611d2d84610d09565b905060006009600086815260200190815260200160002060003373ffffffffffffffffffffffffffffffffffffffff1673ffffffffffffffffffffffffffffffffffffffff16815260200190815260200160002090508060000154841115611dca576040517f08c379a0000000000000000000000000000000000000000000000000000000008152600401611dc190613149565b60405180910390fd5b600064e8d4a5100083604001518360000154611de691906133fa565b611df091906133c9565b90506000826001015482611e049190613454565b905064e8d4a51000846040015187611e1c91906133fa565b611e2691906133c9565b82611e319190613454565b8360010181905550858360000154611e499190613454565b8360000181905550611e5b8582612172565b600060088881548110611e7157611e7061363a565b5b9060005260206000200160009054906101000a900473ffffffffffffffffffffffffffffffffffffffff169050600073ffffffffffffffffffffffffffffffffffffffff168173ffffffffffffffffffffffffffffffffffffffff1614611f4a578073ffffffffffffffffffffffffffffffffffffffff16630f0b0ed88933898689600001546040518663ffffffff1660e01b8152600401611f17959493929190613265565b600060405180830381600087803b158015611f3157600080fd5b505af1158015611f45573d6000803e3d6000fd5b505050505b611fb3868860058b81548110611f6357611f6261363a565b5b9060005260206000200160009054906101000a900473ffffffffffffffffffffffffffffffffffffffff1673ffffffffffffffffffffffffffffffffffffffff166123949092919063ffffffff16565b8573ffffffffffffffffffffffffffffffffffffffff16883373ffffffffffffffffffffffffffffffffffffffff167f8166bf25f8a2b7ed3c85049207da4358d16edbed977d23fa2ee6f0dde3ec21328a60405161201191906131a4565b60405180910390a4873373ffffffffffffffffffffffffffffffffffffffff167f71bab65ced2e5750775a0613be067df48ef06cf92a496ebf7663ae06609249548460405161206091906131a4565b60405180910390a35050505050505050565b61207a61216a565b73ffffffffffffffffffffffffffffffffffffffff16612098611432565b73ffffffffffffffffffffffffffffffffffffffff16146120ee576040517f08c379a00000000000000000000000000000000000000000000000000000000081526004016120e590613089565b60405180910390fd5b600073ffffffffffffffffffffffffffffffffffffffff168173ffffffffffffffffffffffffffffffffffffffff16141561215e576040517f08c379a000000000000000000000000000000000000000000000000000000000815260040161215590613029565b60405180910390fd5b6121678161241a565b50565b600033905090565b6000600160009054906101000a900473ffffffffffffffffffffffffffffffffffffffff1673ffffffffffffffffffffffffffffffffffffffff166370a08231306040518263ffffffff1660e01b81526004016121cf9190612f3b565b60206040518083038186803b1580156121e757600080fd5b505afa1580156121fb573d6000803e3d6000fd5b505050506040513d601f19601f8201168201806040525081019061221f9190612b05565b9050808211156122de57600160009054906101000a900473ffffffffffffffffffffffffffffffffffffffff1673ffffffffffffffffffffffffffffffffffffffff1663a9059cbb84836040518363ffffffff1660e01b8152600401612286929190612f8d565b602060405180830381600087803b1580156122a057600080fd5b505af11580156122b4573d6000803e3d6000fd5b505050506040513d601f19601f820116820180604052508101906122d89190612aab565b5061238f565b600160009054906101000a900473ffffffffffffffffffffffffffffffffffffffff1673ffffffffffffffffffffffffffffffffffffffff1663a9059cbb84846040518363ffffffff1660e01b815260040161233b929190612f8d565b602060405180830381600087803b15801561235557600080fd5b505af1158015612369573d6000803e3d6000fd5b505050506040513d601f19601f8201168201806040525081019061238d9190612aab565b505b505050565b6124158363a9059cbb60e01b84846040516024016123b3929190612f8d565b604051602081830303815290604052907bffffffffffffffffffffffffffffffffffffffffffffffffffffffff19166020820180517bffffffffffffffffffffffffffffffffffffffffffffffffffffffff83818316178352505050506125da565b505050565b60008060009054906101000a900473ffffffffffffffffffffffffffffffffffffffff169050816000806101000a81548173ffffffffffffffffffffffffffffffffffffffff021916908373ffffffffffffffffffffffffffffffffffffffff1602179055508173ffffffffffffffffffffffffffffffffffffffff168173ffffffffffffffffffffffffffffffffffffffff167f8be0079c531659141344cd1fd0a4f28419497f9722a3daafe3b4186f6b6457e060405160405180910390a35050565b600080823b905060008111915050919050565b612574846323b872dd60e01b85858560405160240161251293929190612f56565b604051602081830303815290604052907bffffffffffffffffffffffffffffffffffffffffffffffffffffffff19166020820180517bffffffffffffffffffffffffffffffffffffffffffffffffffffffff83818316178352505050506125da565b50505050565b60006125a2836000018373ffffffffffffffffffffffffffffffffffffffff1660001b6126a1565b905092915050565b60006125d2836000018373ffffffffffffffffffffffffffffffffffffffff1660001b6126c4565b905092915050565b600061263c826040518060400160405280602081526020017f5361666545524332303a206c6f772d6c6576656c2063616c6c206661696c65648152508573ffffffffffffffffffffffffffffffffffffffff166127349092919063ffffffff16565b905060008151111561269c578080602001905181019061265c9190612aab565b61269b576040517f08c379a000000000000000000000000000000000000000000000000000000000815260040161269290613169565b60405180910390fd5b5b505050565b600080836001016000848152602001908152602001600020541415905092915050565b60006126d083836126a1565b61272957826000018290806001815401808255809150506001900390600052602060002001600090919091909150558260000180549050836001016000848152602001908152602001600020819055506001905061272e565b600090505b92915050565b6060612743848460008561274c565b90509392505050565b606082471015612791576040517f08c379a000000000000000000000000000000000000000000000000000000000815260040161278890613049565b60405180910390fd5b61279a856124de565b6127d9576040517f08c379a00000000000000000000000000000000000000000000000000000000081526004016127d0906130e9565b60405180910390fd5b6000808673ffffffffffffffffffffffffffffffffffffffff1685876040516128029190612f24565b60006040518083038185875af1925050503d806000811461283f576040519150601f19603f3d011682016040523d82523d6000602084013e612844565b606091505b5091509150612854828286612860565b92505050949350505050565b60608315612870578290506128c0565b6000835111156128835782518084602001fd5b816040517f08c379a00000000000000000000000000000000000000000000000000000000081526004016128b79190613007565b60405180910390fd5b9392505050565b60405180606001604052806000815260200160008152602001600081525090565b6000813590506128f781613986565b92915050565b60008083601f8401126129135761291261366e565b5b8235905067ffffffffffffffff8111156129305761292f613669565b5b60208301915083602082028301111561294c5761294b613673565b5b9250929050565b6000813590506129628161399d565b92915050565b6000815190506129778161399d565b92915050565b60008135905061298c816139b4565b92915050565b6000813590506129a1816139cb565b92915050565b6000813590506129b6816139e2565b92915050565b6000815190506129cb816139e2565b92915050565b6000602082840312156129e7576129e661367d565b5b60006129f5848285016128e8565b91505092915050565b60008060208385031215612a1557612a1461367d565b5b600083013567ffffffffffffffff811115612a3357612a32613678565b5b612a3f858286016128fd565b92509250509250929050565b600080600060408486031215612a6457612a6361367d565b5b600084013567ffffffffffffffff811115612a8257612a81613678565b5b612a8e868287016128fd565b93509350506020612aa1868287016128e8565b9150509250925092565b600060208284031215612ac157612ac061367d565b5b6000612acf84828501612968565b91505092915050565b600060208284031215612aee57612aed61367d565b5b6000612afc848285016129a7565b91505092915050565b600060208284031215612b1b57612b1a61367d565b5b6000612b29848285016129bc565b91505092915050565b60008060408385031215612b4957612b4861367d565b5b6000612b57858286016129a7565b9250506020612b68858286016128e8565b9150509250929050565b600080600060608486031215612b8b57612b8a61367d565b5b6000612b99868287016129a7565b9350506020612baa8682870161297d565b9250506040612bbb86828701612992565b9150509250925092565b600080600060608486031215612bde57612bdd61367d565b5b6000612bec868287016129a7565b9350506020612bfd868287016129a7565b9250506040612c0e868287016128e8565b9150509250925092565b60008060008060808587031215612c3257612c3161367d565b5b6000612c40878288016129a7565b9450506020612c51878288016129a7565b9350506040612c6287828801612992565b9250506060612c7387828801612953565b91505092959194509250565b612c8881613488565b82525050565b612c978161349a565b82525050565b6000612ca882613341565b612cb28185613357565b9350612cc2818560208601613560565b80840191505092915050565b612cd7816134f4565b82525050565b612ce681613506565b82525050565b612cf581613518565b82525050565b612d048161352a565b82525050565b6000612d158261334c565b612d1f8185613362565b9350612d2f818560208601613560565b612d3881613682565b840191505092915050565b6000612d50602683613362565b9150612d5b82613693565b604082019050919050565b6000612d73602683613362565b9150612d7e826136e2565b604082019050919050565b6000612d96601583613362565b9150612da182613731565b602082019050919050565b6000612db9602083613362565b9150612dc48261375a565b602082019050919050565b6000612ddc603283613362565b9150612de782613783565b604082019050919050565b6000612dff602683613362565b9150612e0a826137d2565b604082019050919050565b6000612e22601d83613362565b9150612e2d82613821565b602082019050919050565b6000612e45602683613362565b9150612e508261384a565b604082019050919050565b6000612e68602683613362565b9150612e7382613899565b604082019050919050565b6000612e8b602383613362565b9150612e96826138e8565b604082019050919050565b6000612eae602a83613362565b9150612eb982613937565b604082019050919050565b606082016000820151612eda6000850182612f06565b506020820151612eed6020850182612f06565b506040820151612f006040850182612f06565b50505050565b612f0f816134ea565b82525050565b612f1e816134ea565b82525050565b6000612f308284612c9d565b915081905092915050565b6000602082019050612f506000830184612c7f565b92915050565b6000606082019050612f6b6000830186612c7f565b612f786020830185612c7f565b612f856040830184612f15565b949350505050565b6000604082019050612fa26000830185612c7f565b612faf6020830184612f15565b9392505050565b6000602082019050612fcb6000830184612cce565b92915050565b6000602082019050612fe66000830184612cdd565b92915050565b60006020820190506130016000830184612cec565b92915050565b600060208201905081810360008301526130218184612d0a565b905092915050565b6000602082019050818103600083015261304281612d43565b9050919050565b6000602082019050818103600083015261306281612d66565b9050919050565b6000602082019050818103600083015261308281612d89565b9050919050565b600060208201905081810360008301526130a281612dac565b9050919050565b600060208201905081810360008301526130c281612dcf565b9050919050565b600060208201905081810360008301526130e281612df2565b9050919050565b6000602082019050818103600083015261310281612e15565b9050919050565b6000602082019050818103600083015261312281612e38565b9050919050565b6000602082019050818103600083015261314281612e5b565b9050919050565b6000602082019050818103600083015261316281612e7e565b9050919050565b6000602082019050818103600083015261318281612ea1565b9050919050565b600060608201905061319e6000830184612ec4565b92915050565b60006020820190506131b96000830184612f15565b92915050565b600060a0820190506131d46000830188612f15565b6131e16020830187612c7f565b6131ee6040830186612c7f565b6131fb6060830185612cfb565b6132086080830184612cfb565b9695505050505050565b600060a0820190506132276000830188612f15565b6132346020830187612c7f565b6132416040830186612c7f565b61324e6060830185612cfb565b61325b6080830184612f15565b9695505050505050565b600060a08201905061327a6000830188612f15565b6132876020830187612c7f565b6132946040830186612c7f565b6132a16060830185612f15565b6132ae6080830184612f15565b9695505050505050565b60006040820190506132cd6000830185612f15565b6132da6020830184612c8e565b9392505050565b60006040820190506132f66000830185612f15565b6133036020830184612f15565b9392505050565b600060608201905061331f6000830186612f15565b61332c6020830185612f15565b6133396040830184612f15565b949350505050565b600081519050919050565b600081519050919050565b600081905092915050565b600082825260208201905092915050565b600061337e826134ea565b9150613389836134ea565b9250827fffffffffffffffffffffffffffffffffffffffffffffffffffffffffffffffff038211156133be576133bd6135dc565b5b828201905092915050565b60006133d4826134ea565b91506133df836134ea565b9250826133ef576133ee61360b565b5b828204905092915050565b6000613405826134ea565b9150613410836134ea565b9250817fffffffffffffffffffffffffffffffffffffffffffffffffffffffffffffffff0483118215151615613449576134486135dc565b5b828202905092915050565b600061345f826134ea565b915061346a836134ea565b92508282101561347d5761347c6135dc565b5b828203905092915050565b6000613493826134ca565b9050919050565b60008115159050919050565b60006134b182613488565b9050919050565b60006134c382613488565b9050919050565b600073ffffffffffffffffffffffffffffffffffffffff82169050919050565b6000819050919050565b60006134ff8261353c565b9050919050565b60006135118261353c565b9050919050565b60006135238261353c565b9050919050565b6000613535826134ea565b9050919050565b60006135478261354e565b9050919050565b6000613559826134ca565b9050919050565b60005b8381101561357e578082015181840152602081019050613563565b8381111561358d576000848401525b50505050565b600061359e826134ea565b91507fffffffffffffffffffffffffffffffffffffffffffffffffffffffffffffffff8214156135d1576135d06135dc565b5b600182019050919050565b7f4e487b7100000000000000000000000000000000000000000000000000000000600052601160045260246000fd5b7f4e487b7100000000000000000000000000000000000000000000000000000000600052601260045260246000fd5b7f4e487b7100000000000000000000000000000000000000000000000000000000600052603260045260246000fd5b600080fd5b600080fd5b600080fd5b600080fd5b600080fd5b6000601f19601f8301169050919050565b7f4f776e61626c653a206e6577206f776e657220697320746865207a65726f206160008201527f6464726573730000000000000000000000000000000000000000000000000000602082015250565b7f416464726573733a20696e73756666696369656e742062616c616e636520666f60008201527f722063616c6c0000000000000000000000000000000000000000000000000000602082015250565b7f6164643a204c5020616c72656164792061646465640000000000000000000000600082015250565b7f4f776e61626c653a2063616c6c6572206973206e6f7420746865206f776e6572600082015250565b7f6d6178696d756d20656d697373696f6e2072617465206f66203620776176652060008201527f70657220626c6f636b2065786365656465640000000000000000000000000000602082015250565b7f6164643a204c5020746f6b656e206d75737420626520612076616c696420636f60008201527f6e74726163740000000000000000000000000000000000000000000000000000602082015250565b7f416464726573733a2063616c6c20746f206e6f6e2d636f6e7472616374000000600082015250565b7f7365743a207265776172646572206d75737420626520636f6e7472616374206f60008201527f72207a65726f0000000000000000000000000000000000000000000000000000602082015250565b7f6164643a207265776172646572206d75737420626520636f6e7472616374206f60008201527f72207a65726f0000000000000000000000000000000000000000000000000000602082015250565b7f63616e6e6f74207769746864726177206d6f7265207468616e206465706f736960008201527f7465640000000000000000000000000000000000000000000000000000000000602082015250565b7f5361666545524332303a204552433230206f7065726174696f6e20646964206e60008201527f6f74207375636365656400000000000000000000000000000000000000000000602082015250565b61398f81613488565b811461399a57600080fd5b50565b6139a68161349a565b81146139b157600080fd5b50565b6139bd816134a6565b81146139c857600080fd5b50565b6139d4816134b8565b81146139df57600080fd5b50565b6139eb816134ea565b81146139f657600080fd5b5056fea26469706673582212206487029de25cab2a7f81f5a43a894920129ca6ff6d72ef0d514519ed0e4326d064736f6c63430008070033",
  "linkReferences": {},
  "deployedLinkReferences": {}
}