{
  "_format": "hh-sol-artifact-1",
  "contractName": "BalancerHelpers",
  "sourceName": "contracts/BalancerHelpers.sol",
  "abi": [
    {
      "inputs": [
        {
          "internalType": "contract IVault",
          "name": "_vault",
          "type": "address"
        }
      ],
      "stateMutability": "nonpayable",
      "type": "constructor"
    },
    {
      "inputs": [
        {
          "internalType": "bytes32",
          "name": "poolId",
          "type": "bytes32"
        },
        {
          "internalType": "address",
          "name": "sender",
          "type": "address"
        },
        {
          "internalType": "address",
          "name": "recipient",
          "type": "address"
        },
        {
          "components": [
            {
              "internalType": "contract IAsset[]",
              "name": "assets",
              "type": "address[]"
            },
            {
              "internalType": "uint256[]",
              "name": "minAmountsOut",
              "type": "uint256[]"
            },
            {
              "internalType": "bytes",
              "name": "userData",
              "type": "bytes"
            },
            {
              "internalType": "bool",
              "name": "toInternalBalance",
              "type": "bool"
            }
          ],
          "internalType": "struct IVault.ExitPoolRequest",
          "name": "request",
          "type": "tuple"
        }
      ],
      "name": "queryExit",
      "outputs": [
        {
          "internalType": "uint256",
          "name": "bptIn",
          "type": "uint256"
        },
        {
          "internalType": "uint256[]",
          "name": "amountsOut",
          "type": "uint256[]"
        }
      ],
      "stateMutability": "nonpayable",
      "type": "function"
    },
    {
      "inputs": [
        {
          "internalType": "bytes32",
          "name": "poolId",
          "type": "bytes32"
        },
        {
          "internalType": "address",
          "name": "sender",
          "type": "address"
        },
        {
          "internalType": "address",
          "name": "recipient",
          "type": "address"
        },
        {
          "components": [
            {
              "internalType": "contract IAsset[]",
              "name": "assets",
              "type": "address[]"
            },
            {
              "internalType": "uint256[]",
              "name": "maxAmountsIn",
              "type": "uint256[]"
            },
            {
              "internalType": "bytes",
              "name": "userData",
              "type": "bytes"
            },
            {
              "internalType": "bool",
              "name": "fromInternalBalance",
              "type": "bool"
            }
          ],
          "internalType": "struct IVault.JoinPoolRequest",
          "name": "request",
          "type": "tuple"
        }
      ],
      "name": "queryJoin",
      "outputs": [
        {
          "internalType": "uint256",
          "name": "bptOut",
          "type": "uint256"
        },
        {
          "internalType": "uint256[]",
          "name": "amountsIn",
          "type": "uint256[]"
        }
      ],
      "stateMutability": "nonpayable",
      "type": "function"
    },
    {
      "inputs": [],
      "name": "vault",
      "outputs": [
        {
          "internalType": "contract IVault",
          "name": "",
          "type": "address"
        }
      ],
      "stateMutability": "view",
      "type": "function"
    }
  ],
  "bytecode": "0x60c060405234801561001057600080fd5b50604051610e6c380380610e6c83398101604081905261002f916100bf565b806001600160a01b031663ad5c46486040518163ffffffff1660e01b815260040160206040518083038186803b15801561006857600080fd5b505afa15801561007c573d6000803e3d6000fd5b505050506040513d601f19601f820116820180604052508101906100a091906100bf565b6001600160601b0319606091821b811660805291901b1660a0526100fa565b6000602082840312156100d0578081fd5b81516100db816100e2565b9392505050565b6001600160a01b03811681146100f757600080fd5b50565b60805160601c60a05160601c610d3161013b6000398060a05280610155528061030152806103b6528061049652806104e35250806107425250610d316000f3fe608060405234801561001057600080fd5b50600436106100415760003560e01c80639ebbf05d14610046578063c7b2c52c14610070578063fbfa77cf14610083575b600080fd5b610059610054366004610ab0565b610098565b604051610067929190610c80565b60405180910390f35b61005961007e366004610ab0565b6102f9565b61008b610494565b6040516100679190610c6c565b6000606060007f00000000000000000000000000000000000000000000000000000000000000006001600160a01b031663f6c00927886040518263ffffffff1660e01b81526004016100ea9190610bd4565b604080518083038186803b15801561010157600080fd5b505afa158015610115573d6000803e3d6000fd5b505050506040513d601f19601f8201168201806040525081019061013991906109a8565b50905060008061014d8987600001516104b8565b9150915060007f00000000000000000000000000000000000000000000000000000000000000006001600160a01b031663d2946c2b6040518163ffffffff1660e01b815260040160206040518083038186803b1580156101ac57600080fd5b505afa1580156101c0573d6000803e3d6000fd5b505050506040513d601f19601f820116820180604052508101906101e49190610b1a565b9050836001600160a01b03166387ec68178b8b8b8787876001600160a01b03166355c676286040518163ffffffff1660e01b815260040160206040518083038186803b15801561023357600080fd5b505afa158015610247573d6000803e3d6000fd5b505050506040513d601f19601f8201168201806040525081019061026b9190610b3d565b8e604001516040518863ffffffff1660e01b81526004016102929796959493929190610bdd565b600060405180830381600087803b1580156102ac57600080fd5b505af11580156102c0573d6000803e3d6000fd5b505050506040513d6000823e601f3d908101601f191682016040526102e89190810190610b55565b909b909a5098505050505050505050565b6000606060007f00000000000000000000000000000000000000000000000000000000000000006001600160a01b031663f6c00927886040518263ffffffff1660e01b815260040161034b9190610bd4565b604080518083038186803b15801561036257600080fd5b505afa158015610376573d6000803e3d6000fd5b505050506040513d601f19601f8201168201806040525081019061039a91906109a8565b5090506000806103ae8987600001516104b8565b9150915060007f00000000000000000000000000000000000000000000000000000000000000006001600160a01b031663d2946c2b6040518163ffffffff1660e01b815260040160206040518083038186803b15801561040d57600080fd5b505afa158015610421573d6000803e3d6000fd5b505050506040513d601f19601f820116820180604052508101906104459190610b1a565b9050836001600160a01b0316636028bfd48b8b8b8787876001600160a01b03166355c676286040518163ffffffff1660e01b815260040160206040518083038186803b15801561023357600080fd5b7f000000000000000000000000000000000000000000000000000000000000000081565b60606000606060006104c9856105ed565b604051631f29a8cd60e31b81529091506001600160a01b037f0000000000000000000000000000000000000000000000000000000000000000169063f94d466890610518908990600401610bd4565b60006040518083038186803b15801561053057600080fd5b505afa158015610544573d6000803e3d6000fd5b505050506040513d6000823e601f3d908101601f1916820160405261056c91908101906109e4565b825184519297509095509193506105839190610693565b60005b82518110156105e357600083828151811061059d57fe5b602002602001015190506105da8383815181106105b657fe5b60200260200101516001600160a01b0316826001600160a01b0316146102086106a4565b50600101610586565b5050509250929050565b60606000825167ffffffffffffffff8111801561060957600080fd5b50604051908082528060200260200182016040528015610633578160200160208202803683370190505b50905060005b835181101561068a5761065e84828151811061065157fe5b60200260200101516106b2565b82828151811061066a57fe5b6001600160a01b0390921660209283029190910190910152600101610639565b5090505b919050565b6106a081831460676106a4565b5050565b816106a0576106a0816106dd565b60006106bd82610730565b6106cf576106ca8261073d565b6106d7565b6106d7610740565b92915050565b62461bcd60e51b6000908152602060045260076024526642414c23000030600a808404818106603090810160081b95839006959095019082900491820690940160101b939093010160c81b604452606490fd5b6001600160a01b03161590565b90565b7f000000000000000000000000000000000000000000000000000000000000000090565b600082601f830112610774578081fd5b8135602061078961078483610cc5565b610ca1565b82815281810190858301838502870184018810156107a5578586fd5b855b858110156107cc5781356107ba81610ce3565b845292840192908401906001016107a7565b5090979650505050505050565b600082601f8301126107e9578081fd5b813560206107f961078483610cc5565b8281528181019085830183850287018401881015610815578586fd5b855b858110156107cc57813584529284019290840190600101610817565b600082601f830112610843578081fd5b8151602061085361078483610cc5565b828152818101908583018385028701840188101561086f578586fd5b855b858110156107cc57815184529284019290840190600101610871565b8035801515811461068e57600080fd5b600082601f8301126108ad578081fd5b813567ffffffffffffffff8111156108c157fe5b6108d4601f8201601f1916602001610ca1565b8181528460208386010111156108e8578283fd5b816020850160208301379081016020019190915292915050565b600060808284031215610913578081fd5b61091d6080610ca1565b9050813567ffffffffffffffff8082111561093757600080fd5b61094385838601610764565b8352602084013591508082111561095957600080fd5b610965858386016107d9565b6020840152604084013591508082111561097e57600080fd5b5061098b8482850161089d565b60408301525061099d6060830161088d565b606082015292915050565b600080604083850312156109ba578182fd5b82516109c581610ce3565b6020840151909250600381106109d9578182fd5b809150509250929050565b6000806000606084860312156109f8578081fd5b835167ffffffffffffffff80821115610a0f578283fd5b818601915086601f830112610a22578283fd5b81516020610a3261078483610cc5565b82815281810190858301838502870184018c1015610a4e578788fd5b8796505b84871015610a79578051610a6581610ce3565b835260019690960195918301918301610a52565b5091890151919750909350505080821115610a92578283fd5b50610a9f86828701610833565b925050604084015190509250925092565b60008060008060808587031215610ac5578182fd5b843593506020850135610ad781610ce3565b92506040850135610ae781610ce3565b9150606085013567ffffffffffffffff811115610b02578182fd5b610b0e87828801610902565b91505092959194509250565b600060208284031215610b2b578081fd5b8151610b3681610ce3565b9392505050565b600060208284031215610b4e578081fd5b5051919050565b60008060408385031215610b67578182fd5b82519150602083015167ffffffffffffffff811115610b84578182fd5b610b9085828601610833565b9150509250929050565b6000815180845260208085019450808401835b83811015610bc957815187529582019590820190600101610bad565b509495945050505050565b90815260200190565b6000888252602060018060a01b03808a168285015280891660408501525060e06060840152610c0f60e0840188610b9a565b8660808501528560a085015283810360c08501528451808252835b81811015610c45578681018401518382018501528301610c2a565b81811115610c5557848483850101525b50601f01601f191601019998505050505050505050565b6001600160a01b0391909116815260200190565b600083825260406020830152610c996040830184610b9a565b949350505050565b60405181810167ffffffffffffffff81118282101715610cbd57fe5b604052919050565b600067ffffffffffffffff821115610cd957fe5b5060209081020190565b6001600160a01b0381168114610cf857600080fd5b5056fea26469706673582212202b6597d4178ce20a016db1100e705a7aa0f05c5dcfe905330c5b5f927cc0e14464736f6c63430007060033",
  "linkReferences": {},
  "deployedLinkReferences": {}
}