{
  "_format": "hh-sol-artifact-1",
  "contractName": "BalancerRelayer",
  "sourceName": "contracts/BalancerHelpers.sol",
  "abi": [
    {
      "inputs": [
        {
          "internalType": "contract IVault",
          "name": "vault",
          "type": "address"
        },
        {
          "internalType": "address",
          "name": "libraryAddress",
          "type": "address"
        }
      ],
      "stateMutability": "nonpayable",
      "type": "constructor"
    },
    {
      "inputs": [],
      "name": "getLibrary",
      "outputs": [
        {
          "internalType": "address",
          "name": "",
          "type": "address"
        }
      ],
      "stateMutability": "view",
      "type": "function"
    },
    {
      "inputs": [
        {
          "internalType": "bytes[]",
          "name": "data",
          "type": "bytes[]"
        }
      ],
      "name": "multicall",
      "outputs": [
        {
          "internalType": "bytes[]",
          "name": "results",
          "type": "bytes[]"
        }
      ],
      "stateMutability": "payable",
      "type": "function"
    },
    {
      "stateMutability": "payable",
      "type": "receive"
    }
  ],
  "bytecode": "0x60c060405234801561001057600080fd5b5060405161065038038061065083398101604081905261002f91610052565b60016000556001600160601b0319606092831b8116608052911b1660a0526100a3565b60008060408385031215610064578182fd5b825161006f8161008b565b60208401519092506100808161008b565b809150509250929050565b6001600160a01b03811681146100a057600080fd5b50565b60805160601c60a05160601c6105816100cf6000398060cf52806101b1525080604052506105816000f3fe60806040526004361061002d5760003560e01c80637678922e14610070578063ac9650d81461009b5761006b565b3661006b57610069336001600160a01b037f000000000000000000000000000000000000000000000000000000000000000016146102066100bb565b005b600080fd5b34801561007c57600080fd5b506100856100cd565b6040516100929190610443565b60405180910390f35b6100ae6100a93660046103b5565b6100f1565b6040516100929190610457565b816100c9576100c981610210565b5050565b7f000000000000000000000000000000000000000000000000000000000000000090565b60606100fb610263565b8167ffffffffffffffff8111801561011257600080fd5b5060405190808252806020026020018201604052801561014657816020015b60608152602001906001900390816101315790505b50905060005b828110156101f9576101da84848381811061016357fe5b905060200281019061017591906104cf565b8080601f016020809104026020016040519081016040528093929190818152602001838380828437600092019190915250506001600160a01b037f0000000000000000000000000000000000000000000000000000000000000000169291505061027c565b8282815181106101e657fe5b602090810291909101015260010161014c565b506102026102f1565b61020a610305565b92915050565b62461bcd60e51b6000908152602060045260076024526642414c23000030600a808404818106603090810160081b95839006959095019082900491820690940160101b939093010160c81b604452606490fd5b610275600260005414156101906100bb565b6002600055565b6060600080846001600160a01b0316846040516102999190610424565b600060405180830381855af49150503d80600081146102d4576040519150601f19603f3d011682016040523d82523d6000602084013e6102d9565b606091505b50915091506102e8828261030c565b95945050505050565b478015610302576103023382610336565b50565b6001600055565b6060821561031b57508061020a565b81511561032b5781518083602001fd5b61020a6101ae610210565b610345814710156101a36100bb565b6000826001600160a01b03168260405161035e90610440565b60006040518083038185875af1925050503d806000811461039b576040519150601f19603f3d011682016040523d82523d6000602084013e6103a0565b606091505b505090506103b0816101a46100bb565b505050565b600080602083850312156103c7578182fd5b823567ffffffffffffffff808211156103de578384fd5b818501915085601f8301126103f1578384fd5b8135818111156103ff578485fd5b8660208083028501011115610412578485fd5b60209290920196919550909350505050565b6000825161043681846020870161051b565b9190910192915050565b90565b6001600160a01b0391909116815260200190565b6000602080830181845280855180835260408601915060408482028701019250838701855b828110156104c257878503603f19018452815180518087526104a3818989018a850161051b565b601f01601f19169590950186019450928501929085019060010161047c565b5092979650505050505050565b6000808335601e198436030181126104e5578283fd5b83018035915067ffffffffffffffff8211156104ff578283fd5b60200191503681900382131561051457600080fd5b9250929050565b60005b8381101561053657818101518382015260200161051e565b83811115610545576000848401525b5050505056fea2646970667358221220b8fc3b4bcf18c321c679a4ee73f3030606030b75859b92427ce8cd69e516f8c964736f6c63430007060033",
  "linkReferences": {},
  "deployedLinkReferences": {}
}