{
  "_format": "hh-sol-artifact-1",
  "contractName": "BaseRelayerLibrary",
  "sourceName": "contracts/BalancerHelpers.sol",
  "abi": [
    {
      "inputs": [
        {
          "internalType": "contract IVault",
          "name": "vault",
          "type": "address"
        }
      ],
      "stateMutability": "nonpayable",
      "type": "constructor"
    },
    {
      "inputs": [],
      "name": "getEntrypoint",
      "outputs": [
        {
          "internalType": "contract IBalancerRelayer",
          "name": "",
          "type": "address"
        }
      ],
      "stateMutability": "view",
      "type": "function"
    },
    {
      "inputs": [],
      "name": "getVault",
      "outputs": [
        {
          "internalType": "contract IVault",
          "name": "",
          "type": "address"
        }
      ],
      "stateMutability": "view",
      "type": "function"
    },
    {
      "inputs": [
        {
          "internalType": "address",
          "name": "relayer",
          "type": "address"
        },
        {
          "internalType": "bool",
          "name": "approved",
          "type": "bool"
        },
        {
          "internalType": "bytes",
          "name": "authorisation",
          "type": "bytes"
        }
      ],
      "name": "setRelayerApproval",
      "outputs": [],
      "stateMutability": "payable",
      "type": "function"
    }
  ],
  "bytecode": "0x6101006040527fae1dc54057af8e8e5ce068cdd4383149c7efcb30e8fb95b592ee1594367fb50960e05234801561003557600080fd5b50604051610c47380380610c478339810160408190526100549161013b565b806001600160a01b031663ad5c46486040518163ffffffff1660e01b815260040160206040518083038186803b15801561008d57600080fd5b505afa1580156100a1573d6000803e3d6000fd5b505050506040513d601f19601f820116820180604052508101906100c5919061013b565b6001600160601b0319606091821b81166080529082901b1660a052604051819030906100f09061012e565b6100fb92919061015e565b604051809103906000f080158015610117573d6000803e3d6000fd5b5060601b6001600160601b03191660c05250610190565b610650806105f783390190565b60006020828403121561014c578081fd5b815161015781610178565b9392505050565b6001600160a01b0392831681529116602082015260400190565b6001600160a01b038116811461018d57600080fd5b50565b60805160601c60a05160601c60c05160601c60e05161042f6101c86000395080609052508061016c528061019c52505061042f6000f3fe6080604052600436106100345760003560e01c80637fd0e5d51461003957806380db15bd146100645780638d928af814610079575b600080fd5b34801561004557600080fd5b5061004e61008e565b60405161005b91906103ae565b60405180910390f35b610077610072366004610285565b6100b2565b005b34801561008557600080fd5b5061004e61019a565b7f000000000000000000000000000000000000000000000000000000000000000090565b6001600160a01b0384163014806100c7575082155b6100ec5760405162461bcd60e51b81526004016100e3906103c2565b60405180910390fd5b600063fa6e671d60e01b33868660405160240161010b9392919061038a565b60408051601f19818403018152918152602080830180516001600160e01b03166001600160e01b0319909516949094179093525161014d92869186910161036d565b60408051601f1981840301815291905290506101926001600160a01b037f000000000000000000000000000000000000000000000000000000000000000016826101be565b505050505050565b7f000000000000000000000000000000000000000000000000000000000000000090565b6060600080846001600160a01b0316846040516101db919061035a565b6000604051808303816000865af19150503d8060008114610218576040519150601f19603f3d011682016040523d82523d6000602084013e61021d565b606091505b509150915061022c8282610237565b925050505b92915050565b60608215610246575080610231565b8151156102565781518083602001fd5b62461bcd60e51b600090815260206004908152600760245266042414c233433360cc1b60445261023191606490fd5b6000806000806060858703121561029a578384fd5b84356001600160a01b03811681146102b0578485fd5b9350602085013580151581146102c4578384fd5b9250604085013567ffffffffffffffff808211156102e0578384fd5b818701915087601f8301126102f3578384fd5b813581811115610301578485fd5b886020828501011115610312578485fd5b95989497505060200194505050565b60008151815b818110156103415760208185018101518683015201610327565b8181111561034f5782828601525b509290920192915050565b60006103668284610321565b9392505050565b60006103798286610321565b838582379092019182525092915050565b6001600160a01b039384168152919092166020820152901515604082015260600190565b6001600160a01b0391909116815260200190565b6020808252601f908201527f52656c617965722063616e206f6e6c7920617070726f766520697473656c660060408201526060019056fea2646970667358221220127e9faf07531f2e81cc6f3f91446344047e31ca04af1b2ab3b628951bb2309264736f6c6343000706003360c060405234801561001057600080fd5b5060405161065038038061065083398101604081905261002f91610052565b60016000556001600160601b0319606092831b8116608052911b1660a0526100a3565b60008060408385031215610064578182fd5b825161006f8161008b565b60208401519092506100808161008b565b809150509250929050565b6001600160a01b03811681146100a057600080fd5b50565b60805160601c60a05160601c6105816100cf6000398060cf52806101b1525080604052506105816000f3fe60806040526004361061002d5760003560e01c80637678922e14610070578063ac9650d81461009b5761006b565b3661006b57610069336001600160a01b037f000000000000000000000000000000000000000000000000000000000000000016146102066100bb565b005b600080fd5b34801561007c57600080fd5b506100856100cd565b6040516100929190610443565b60405180910390f35b6100ae6100a93660046103b5565b6100f1565b6040516100929190610457565b816100c9576100c981610210565b5050565b7f000000000000000000000000000000000000000000000000000000000000000090565b60606100fb610263565b8167ffffffffffffffff8111801561011257600080fd5b5060405190808252806020026020018201604052801561014657816020015b60608152602001906001900390816101315790505b50905060005b828110156101f9576101da84848381811061016357fe5b905060200281019061017591906104cf565b8080601f016020809104026020016040519081016040528093929190818152602001838380828437600092019190915250506001600160a01b037f0000000000000000000000000000000000000000000000000000000000000000169291505061027c565b8282815181106101e657fe5b602090810291909101015260010161014c565b506102026102f1565b61020a610305565b92915050565b62461bcd60e51b6000908152602060045260076024526642414c23000030600a808404818106603090810160081b95839006959095019082900491820690940160101b939093010160c81b604452606490fd5b610275600260005414156101906100bb565b6002600055565b6060600080846001600160a01b0316846040516102999190610424565b600060405180830381855af49150503d80600081146102d4576040519150601f19603f3d011682016040523d82523d6000602084013e6102d9565b606091505b50915091506102e8828261030c565b95945050505050565b478015610302576103023382610336565b50565b6001600055565b6060821561031b57508061020a565b81511561032b5781518083602001fd5b61020a6101ae610210565b610345814710156101a36100bb565b6000826001600160a01b03168260405161035e90610440565b60006040518083038185875af1925050503d806000811461039b576040519150601f19603f3d011682016040523d82523d6000602084013e6103a0565b606091505b505090506103b0816101a46100bb565b505050565b600080602083850312156103c7578182fd5b823567ffffffffffffffff808211156103de578384fd5b818501915085601f8301126103f1578384fd5b8135818111156103ff578485fd5b8660208083028501011115610412578485fd5b60209290920196919550909350505050565b6000825161043681846020870161051b565b9190910192915050565b90565b6001600160a01b0391909116815260200190565b6000602080830181845280855180835260408601915060408482028701019250838701855b828110156104c257878503603f19018452815180518087526104a3818989018a850161051b565b601f01601f19169590950186019450928501929085019060010161047c565b5092979650505050505050565b6000808335601e198436030181126104e5578283fd5b83018035915067ffffffffffffffff8211156104ff578283fd5b60200191503681900382131561051457600080fd5b9250929050565b60005b8381101561053657818101518382015260200161051e565b83811115610545576000848401525b5050505056fea26469706673582212205aa049a5499b2171d0cc62b35f8719518fee4634799422501cb98a88964bca0264736f6c63430007060033",
  "linkReferences": {},
  "deployedLinkReferences": {}
}