{
  "_format": "hh-sol-artifact-1",
  "contractName": "BalancerPoolToken",
  "sourceName": "contracts/StablePoolFactory.sol",
  "abi": [
    {
      "inputs": [
        {
          "internalType": "string",
          "name": "tokenName",
          "type": "string"
        },
        {
          "internalType": "string",
          "name": "tokenSymbol",
          "type": "string"
        }
      ],
      "stateMutability": "nonpayable",
      "type": "constructor"
    },
    {
      "anonymous": false,
      "inputs": [
        {
          "indexed": true,
          "internalType": "address",
          "name": "owner",
          "type": "address"
        },
        {
          "indexed": true,
          "internalType": "address",
          "name": "spender",
          "type": "address"
        },
        {
          "indexed": false,
          "internalType": "uint256",
          "name": "value",
          "type": "uint256"
        }
      ],
      "name": "Approval",
      "type": "event"
    },
    {
      "anonymous": false,
      "inputs": [
        {
          "indexed": true,
          "internalType": "address",
          "name": "from",
          "type": "address"
        },
        {
          "indexed": true,
          "internalType": "address",
          "name": "to",
          "type": "address"
        },
        {
          "indexed": false,
          "internalType": "uint256",
          "name": "value",
          "type": "uint256"
        }
      ],
      "name": "Transfer",
      "type": "event"
    },
    {
      "inputs": [],
      "name": "DOMAIN_SEPARATOR",
      "outputs": [
        {
          "internalType": "bytes32",
          "name": "",
          "type": "bytes32"
        }
      ],
      "stateMutability": "view",
      "type": "function"
    },
    {
      "inputs": [
        {
          "internalType": "address",
          "name": "owner",
          "type": "address"
        },
        {
          "internalType": "address",
          "name": "spender",
          "type": "address"
        }
      ],
      "name": "allowance",
      "outputs": [
        {
          "internalType": "uint256",
          "name": "",
          "type": "uint256"
        }
      ],
      "stateMutability": "view",
      "type": "function"
    },
    {
      "inputs": [
        {
          "internalType": "address",
          "name": "spender",
          "type": "address"
        },
        {
          "internalType": "uint256",
          "name": "amount",
          "type": "uint256"
        }
      ],
      "name": "approve",
      "outputs": [
        {
          "internalType": "bool",
          "name": "",
          "type": "bool"
        }
      ],
      "stateMutability": "nonpayable",
      "type": "function"
    },
    {
      "inputs": [
        {
          "internalType": "address",
          "name": "account",
          "type": "address"
        }
      ],
      "name": "balanceOf",
      "outputs": [
        {
          "internalType": "uint256",
          "name": "",
          "type": "uint256"
        }
      ],
      "stateMutability": "view",
      "type": "function"
    },
    {
      "inputs": [],
      "name": "decimals",
      "outputs": [
        {
          "internalType": "uint8",
          "name": "",
          "type": "uint8"
        }
      ],
      "stateMutability": "view",
      "type": "function"
    },
    {
      "inputs": [
        {
          "internalType": "address",
          "name": "spender",
          "type": "address"
        },
        {
          "internalType": "uint256",
          "name": "amount",
          "type": "uint256"
        }
      ],
      "name": "decreaseAllowance",
      "outputs": [
        {
          "internalType": "bool",
          "name": "",
          "type": "bool"
        }
      ],
      "stateMutability": "nonpayable",
      "type": "function"
    },
    {
      "inputs": [
        {
          "internalType": "address",
          "name": "spender",
          "type": "address"
        },
        {
          "internalType": "uint256",
          "name": "addedValue",
          "type": "uint256"
        }
      ],
      "name": "increaseAllowance",
      "outputs": [
        {
          "internalType": "bool",
          "name": "",
          "type": "bool"
        }
      ],
      "stateMutability": "nonpayable",
      "type": "function"
    },
    {
      "inputs": [],
      "name": "name",
      "outputs": [
        {
          "internalType": "string",
          "name": "",
          "type": "string"
        }
      ],
      "stateMutability": "view",
      "type": "function"
    },
    {
      "inputs": [
        {
          "internalType": "address",
          "name": "owner",
          "type": "address"
        }
      ],
      "name": "nonces",
      "outputs": [
        {
          "internalType": "uint256",
          "name": "",
          "type": "uint256"
        }
      ],
      "stateMutability": "view",
      "type": "function"
    },
    {
      "inputs": [
        {
          "internalType": "address",
          "name": "owner",
          "type": "address"
        },
        {
          "internalType": "address",
          "name": "spender",
          "type": "address"
        },
        {
          "internalType": "uint256",
          "name": "value",
          "type": "uint256"
        },
        {
          "internalType": "uint256",
          "name": "deadline",
          "type": "uint256"
        },
        {
          "internalType": "uint8",
          "name": "v",
          "type": "uint8"
        },
        {
          "internalType": "bytes32",
          "name": "r",
          "type": "bytes32"
        },
        {
          "internalType": "bytes32",
          "name": "s",
          "type": "bytes32"
        }
      ],
      "name": "permit",
      "outputs": [],
      "stateMutability": "nonpayable",
      "type": "function"
    },
    {
      "inputs": [],
      "name": "symbol",
      "outputs": [
        {
          "internalType": "string",
          "name": "",
          "type": "string"
        }
      ],
      "stateMutability": "view",
      "type": "function"
    },
    {
      "inputs": [],
      "name": "totalSupply",
      "outputs": [
        {
          "internalType": "uint256",
          "name": "",
          "type": "uint256"
        }
      ],
      "stateMutability": "view",
      "type": "function"
    },
    {
      "inputs": [
        {
          "internalType": "address",
          "name": "recipient",
          "type": "address"
        },
        {
          "internalType": "uint256",
          "name": "amount",
          "type": "uint256"
        }
      ],
      "name": "transfer",
      "outputs": [
        {
          "internalType": "bool",
          "name": "",
          "type": "bool"
        }
      ],
      "stateMutability": "nonpayable",
      "type": "function"
    },
    {
      "inputs": [
        {
          "internalType": "address",
          "name": "sender",
          "type": "address"
        },
        {
          "internalType": "address",
          "name": "recipient",
          "type": "address"
        },
        {
          "internalType": "uint256",
          "name": "amount",
          "type": "uint256"
        }
      ],
      "name": "transferFrom",
      "outputs": [
        {
          "internalType": "bool",
          "name": "",
          "type": "bool"
        }
      ],
      "stateMutability": "nonpayable",
      "type": "function"
    }
  ],
  "bytecode": "0x6101006040527f6e71edae12b1b97f4d1f60370fef10105fa2faae0126114a169c64845d6126c960e0523480156200003657600080fd5b5060405162000de438038062000de483398101604081905262000059916200023c565b8180604051806040016040528060018152602001603160f81b815250848481600390805190602001906200008f929190620000f5565b508051620000a5906004906020840190620000f5565b50506005805460ff19166012179055508151602092830120608052805191012060a05250507f8b73c3c69bb8fe3d512ecc4cf759cc79239f7b179b0ffacaa9a75d522b39400f60c05250620002a3565b828054600181600116156101000203166002900490600052602060002090601f0160209004810192826200012d576000855562000178565b82601f106200014857805160ff191683800117855562000178565b8280016001018555821562000178579182015b82811115620001785782518255916020019190600101906200015b565b50620001869291506200018a565b5090565b5b808211156200018657600081556001016200018b565b600082601f830112620001b2578081fd5b81516001600160401b0380821115620001c757fe5b6040516020601f8401601f1916820181018381118382101715620001e757fe5b6040528382528584018101871015620001fe578485fd5b8492505b8383101562000221578583018101518284018201529182019162000202565b838311156200023257848185840101525b5095945050505050565b600080604083850312156200024f578182fd5b82516001600160401b038082111562000266578384fd5b6200027486838701620001a1565b935060208501519150808211156200028a578283fd5b506200029985828601620001a1565b9150509250929050565b60805160a05160c05160e051610b0b620002d9600039806104955250806107325250806107745250806107535250610b0b6000f3fe608060405234801561001057600080fd5b50600436106100ea5760003560e01c806370a082311161008c578063a457c2d711610066578063a457c2d7146101b3578063a9059cbb146101c6578063d505accf146101d9578063dd62ed3e146101ee576100ea565b806370a08231146101855780637ecebe001461019857806395d89b41146101ab576100ea565b806323b872dd116100c857806323b872dd14610142578063313ce567146101555780633644e5151461016a5780633950935114610172576100ea565b806306fdde03146100ef578063095ea7b31461010d57806318160ddd1461012d575b600080fd5b6100f7610201565b6040516101049190610a74565b60405180910390f35b61012061011b36600461099e565b610297565b60405161010491906109e2565b6101356102ad565b60405161010491906109ed565b6101206101503660046108f2565b6102b3565b61015d610327565b6040516101049190610ac7565b610135610330565b61012061018036600461099e565b61033f565b6101356101933660046108a6565b61037a565b6101356101a63660046108a6565b610399565b6100f76103b4565b6101206101c136600461099e565b610415565b6101206101d436600461099e565b610453565b6101ec6101e736600461092d565b610460565b005b6101356101fc3660046108c0565b6105a9565b60038054604080516020601f600260001961010060018816150201909516949094049384018190048102820181019092528281526060939092909183018282801561028d5780601f106102625761010080835404028352916020019161028d565b820191906000526020600020905b81548152906001019060200180831161027057829003601f168201915b5050505050905090565b60006102a43384846105d4565b50600192915050565b60025490565b6000806102c085336105a9565b90506102e4336001600160a01b03871614806102dc5750838210155b61019e61063c565b6102ef85858561064e565b336001600160a01b0386161480159061030a57506000198114155b1561031c5761031c85338584036105d4565b506001949350505050565b60055460ff1690565b600061033a61072e565b905090565b3360008181526001602090815260408083206001600160a01b038716845290915281205490916102a491859061037590866107cb565b6105d4565b6001600160a01b0381166000908152602081905260409020545b919050565b6001600160a01b031660009081526006602052604090205490565b60048054604080516020601f600260001961010060018816150201909516949094049384018190048102820181019092528281526060939092909183018282801561028d5780601f106102625761010080835404028352916020019161028d565b60008061042233856105a9565b905080831061043c57610437338560006105d4565b610449565b61044933858584036105d4565b5060019392505050565b60006102a433848461064e565b61046e8442111560d161063c565b6001600160a01b03871660009081526006602090815260408083205490519092916104c5917f0000000000000000000000000000000000000000000000000000000000000000918c918c918c9188918d91016109f6565b60405160208183030381529060405280519060200120905060006104e8826107e4565b905060006001828888886040516000815260200160405260405161050f9493929190610a56565b6020604051602081039080840390855afa158015610531573d6000803e3d6000fd5b5050604051601f190151915061057390506001600160a01b0382161580159061056b57508b6001600160a01b0316826001600160a01b0316145b6101f861063c565b6001600160a01b038b16600090815260066020526040902060018501905561059c8b8b8b6105d4565b5050505050505050505050565b6001600160a01b03918216600090815260016020908152604080832093909416825291909152205490565b6001600160a01b0380841660008181526001602090815260408083209487168084529490915290819020849055517f8c5be1e5ebec7d5bd14f71427d1e84f3dd0314c0f7b2291e5b200ac8c7c3b9259061062f9085906109ed565b60405180910390a3505050565b8161064a5761064a8161081d565b5050565b6106656001600160a01b038416151561019861063c565b61067c6001600160a01b038316151561019961063c565b610687838383610870565b6001600160a01b0383166000908152602081905260409020546106ad90826101a0610875565b6001600160a01b0380851660009081526020819052604080822093909355908416815220546106dc90826107cb565b6001600160a01b0380841660008181526020819052604090819020939093559151908516907fddf252ad1be2c89b69c2b068fc378daa952ba7f163c4a11628f55a4df523b3ef9061062f9085906109ed565b60007f00000000000000000000000000000000000000000000000000000000000000007f00000000000000000000000000000000000000000000000000000000000000007f000000000000000000000000000000000000000000000000000000000000000061079b61088b565b306040516020016107b0959493929190610a2a565b60405160208183030381529060405280519060200120905090565b60008282016107dd848210158361063c565b9392505050565b60006107ee61072e565b826040516020016108009291906109c7565b604051602081830303815290604052805190602001209050919050565b62461bcd60e51b6000908152602060045260076024526642414c23000030600a808404818106603090810160081b95839006959095019082900491820690940160101b939093010160c81b604452606490fd5b505050565b6000610884848411158361063c565b5050900390565b4690565b80356001600160a01b038116811461039457600080fd5b6000602082840312156108b7578081fd5b6107dd8261088f565b600080604083850312156108d2578081fd5b6108db8361088f565b91506108e96020840161088f565b90509250929050565b600080600060608486031215610906578081fd5b61090f8461088f565b925061091d6020850161088f565b9150604084013590509250925092565b600080600080600080600060e0888a031215610947578283fd5b6109508861088f565b965061095e6020890161088f565b95506040880135945060608801359350608088013560ff81168114610981578384fd5b9699959850939692959460a0840135945060c09093013592915050565b600080604083850312156109b0578182fd5b6109b98361088f565b946020939093013593505050565b61190160f01b81526002810192909252602282015260420190565b901515815260200190565b90815260200190565b9586526001600160a01b0394851660208701529290931660408501526060840152608083019190915260a082015260c00190565b9485526020850193909352604084019190915260608301526001600160a01b0316608082015260a00190565b93845260ff9290921660208401526040830152606082015260800190565b6000602080835283518082850152825b81811015610aa057858101830151858201604001528201610a84565b81811115610ab15783604083870101525b50601f01601f1916929092016040019392505050565b60ff9190911681526020019056fea2646970667358221220fe6d908e730f9f8fa03a0c2d11a3b25e7daee9e07903f0b5c5a98bd3efe2b5d264736f6c63430007060033",
  "linkReferences": {},
  "deployedLinkReferences": {}
}