{
  "_format": "hh-sol-artifact-1",
  "contractName": "MockStableMath",
  "sourceName": "contracts/StablePoolFactory.sol",
  "abi": [
    {
      "inputs": [
        {
          "internalType": "uint256",
          "name": "amp",
          "type": "uint256"
        },
        {
          "internalType": "uint256[]",
          "name": "balances",
          "type": "uint256[]"
        },
        {
          "internalType": "uint256[]",
          "name": "amountsOut",
          "type": "uint256[]"
        },
        {
          "internalType": "uint256",
          "name": "bptTotalSupply",
          "type": "uint256"
        },
        {
          "internalType": "uint256",
          "name": "swapFee",
          "type": "uint256"
        }
      ],
      "name": "bptInForExactTokensOut",
      "outputs": [
        {
          "internalType": "uint256",
          "name": "",
          "type": "uint256"
        }
      ],
      "stateMutability": "pure",
      "type": "function"
    },
    {
      "inputs": [
        {
          "internalType": "uint256",
          "name": "amp",
          "type": "uint256"
        },
        {
          "internalType": "uint256[]",
          "name": "balances",
          "type": "uint256[]"
        },
        {
          "internalType": "uint256",
          "name": "lastInvariant",
          "type": "uint256"
        },
        {
          "internalType": "uint256",
          "name": "tokenIndex",
          "type": "uint256"
        },
        {
          "internalType": "uint256",
          "name": "protocolSwapFeePercentage",
          "type": "uint256"
        }
      ],
      "name": "calculateDueTokenProtocolSwapFeeAmount",
      "outputs": [
        {
          "internalType": "uint256",
          "name": "",
          "type": "uint256"
        }
      ],
      "stateMutability": "pure",
      "type": "function"
    },
    {
      "inputs": [
        {
          "internalType": "uint256",
          "name": "amp",
          "type": "uint256"
        },
        {
          "internalType": "uint256[]",
          "name": "balances",
          "type": "uint256[]"
        },
        {
          "internalType": "uint256",
          "name": "tokenIndex",
          "type": "uint256"
        },
        {
          "internalType": "uint256",
          "name": "bptAmountIn",
          "type": "uint256"
        },
        {
          "internalType": "uint256",
          "name": "bptTotalSupply",
          "type": "uint256"
        },
        {
          "internalType": "uint256",
          "name": "swapFee",
          "type": "uint256"
        }
      ],
      "name": "exactBPTInForTokenOut",
      "outputs": [
        {
          "internalType": "uint256",
          "name": "",
          "type": "uint256"
        }
      ],
      "stateMutability": "pure",
      "type": "function"
    },
    {
      "inputs": [
        {
          "internalType": "uint256[]",
          "name": "balances",
          "type": "uint256[]"
        },
        {
          "internalType": "uint256",
          "name": "bptAmountIn",
          "type": "uint256"
        },
        {
          "internalType": "uint256",
          "name": "bptTotalSupply",
          "type": "uint256"
        }
      ],
      "name": "exactBPTInForTokensOut",
      "outputs": [
        {
          "internalType": "uint256[]",
          "name": "",
          "type": "uint256[]"
        }
      ],
      "stateMutability": "pure",
      "type": "function"
    },
    {
      "inputs": [
        {
          "internalType": "uint256",
          "name": "amp",
          "type": "uint256"
        },
        {
          "internalType": "uint256[]",
          "name": "balances",
          "type": "uint256[]"
        },
        {
          "internalType": "uint256[]",
          "name": "amountsIn",
          "type": "uint256[]"
        },
        {
          "internalType": "uint256",
          "name": "bptTotalSupply",
          "type": "uint256"
        },
        {
          "internalType": "uint256",
          "name": "swapFee",
          "type": "uint256"
        }
      ],
      "name": "exactTokensInForBPTOut",
      "outputs": [
        {
          "internalType": "uint256",
          "name": "",
          "type": "uint256"
        }
      ],
      "stateMutability": "pure",
      "type": "function"
    },
    {
      "inputs": [
        {
          "internalType": "uint256",
          "name": "amp",
          "type": "uint256"
        },
        {
          "internalType": "uint256[]",
          "name": "balances",
          "type": "uint256[]"
        },
        {
          "internalType": "uint256",
          "name": "tokenIndexIn",
          "type": "uint256"
        },
        {
          "internalType": "uint256",
          "name": "tokenIndexOut",
          "type": "uint256"
        },
        {
          "internalType": "uint256",
          "name": "tokenAmountOut",
          "type": "uint256"
        }
      ],
      "name": "inGivenOut",
      "outputs": [
        {
          "internalType": "uint256",
          "name": "",
          "type": "uint256"
        }
      ],
      "stateMutability": "pure",
      "type": "function"
    },
    {
      "inputs": [
        {
          "internalType": "uint256",
          "name": "amp",
          "type": "uint256"
        },
        {
          "internalType": "uint256[]",
          "name": "balances",
          "type": "uint256[]"
        },
        {
          "internalType": "bool",
          "name": "roundUp",
          "type": "bool"
        }
      ],
      "name": "invariant",
      "outputs": [
        {
          "internalType": "uint256",
          "name": "",
          "type": "uint256"
        }
      ],
      "stateMutability": "pure",
      "type": "function"
    },
    {
      "inputs": [
        {
          "internalType": "uint256",
          "name": "amp",
          "type": "uint256"
        },
        {
          "internalType": "uint256[]",
          "name": "balances",
          "type": "uint256[]"
        },
        {
          "internalType": "uint256",
          "name": "tokenIndexIn",
          "type": "uint256"
        },
        {
          "internalType": "uint256",
          "name": "tokenIndexOut",
          "type": "uint256"
        },
        {
          "internalType": "uint256",
          "name": "tokenAmountIn",
          "type": "uint256"
        }
      ],
      "name": "outGivenIn",
      "outputs": [
        {
          "internalType": "uint256",
          "name": "",
          "type": "uint256"
        }
      ],
      "stateMutability": "pure",
      "type": "function"
    },
    {
      "inputs": [
        {
          "internalType": "uint256",
          "name": "amp",
          "type": "uint256"
        },
        {
          "internalType": "uint256[]",
          "name": "balances",
          "type": "uint256[]"
        },
        {
          "internalType": "uint256",
          "name": "tokenIndex",
          "type": "uint256"
        },
        {
          "internalType": "uint256",
          "name": "bptAmountOut",
          "type": "uint256"
        },
        {
          "internalType": "uint256",
          "name": "bptTotalSupply",
          "type": "uint256"
        },
        {
          "internalType": "uint256",
          "name": "swapFee",
          "type": "uint256"
        }
      ],
      "name": "tokenInForExactBPTOut",
      "outputs": [
        {
          "internalType": "uint256",
          "name": "",
          "type": "uint256"
        }
      ],
      "stateMutability": "pure",
      "type": "function"
    }
  ],
  "bytecode": "0x608060405234801561001057600080fd5b5061142b806100206000396000f3fe608060405234801561001057600080fd5b50600436106100835760003560e01c80631c855fa61461008857806332fec905146100b1578063405de978146100d15780636fc82f29146100e45780639cd91d3f146100f7578063a89d42591461010a578063cf1b8c8c1461011d578063db7ad3f214610130578063fe2dd7ba14610143575b600080fd5b61009b6100963660046111c0565b610156565b6040516100a891906113a8565b60405180910390f35b6100c46100bf366004611286565b61016d565b6040516100a891906113ec565b6100c46100df366004611341565b61017a565b6100c46100f236600461120b565b610195565b6100c46101053660046112e2565b6101b0565b6100c461011836600461120b565b6101bf565b6100c461012b366004611341565b6101ce565b6100c461013e3660046112e2565b6101de565b6100c46101513660046112e2565b6101ed565b60606101638484846101fc565b90505b9392505050565b60006101638484846102ad565b600061018a878787878787610449565b979650505050505050565b60006101a4868686868661057b565b90505b95945050505050565b60006101a4868686868661083d565b60006101a486868686866108eb565b600061018a878787878787610b65565b60006101a48686868686610c2c565b60006101a48686868686610c9a565b6060600061020a8484610d2c565b9050600085516001600160401b038111801561022557600080fd5b5060405190808252806020026020018201604052801561024f578160200160208202803683370190505b50905060005b86518110156102a3576102848388838151811061026e57fe5b6020026020010151610d7f90919063ffffffff16565b82828151811061029057fe5b6020908102919091010152600101610255565b5095945050505050565b81516000908190815b818110156102ee576102e48682815181106102cd57fe5b602002602001015184610db590919063ffffffff16565b92506001016102b6565b50816102ff57600092505050610166565b600082878302825b60ff811015610431576000858a60008151811061032057fe5b60200260200101510290506000600190505b868110156103745761036a61036361035d848e858151811061035057fe5b6020026020010151610dc7565b89610dc7565b868c610de1565b9150600101610332565b508394506103e76103b661039d61039461038e878c610dc7565b85610dc7565b6103e88d610de1565b6103b06103aa8a89610dc7565b88610dc7565b90610db5565b6103e16103d46103ca6103e8880386610dc7565b6103e88e15610de1565b6103b08a60010189610dc7565b8b610de1565b93508484111561040f5760018585031161040a5783975050505050505050610166565b610428565b6001848603116104285783975050505050505050610166565b50600101610307565b5061043d610142610e01565b50505050509392505050565b600080610458888860016102ad565b9050600061047a826104748761046e818b610db5565b90610e54565b90610ea2565b9050600061048a8a8a848b610ede565b905060006104b48a8a8151811061049d57fe5b60200260200101518361109490919063ffffffff16565b90506000805b8b518110156104f3576104e98c82815181106104d257fe5b602002602001015183610db590919063ffffffff16565b91506001016104ba565b50600061051c828d8d8151811061050657fe5b6020026020010151610d2c90919063ffffffff16565b90506000610529826110aa565b905060006105378583610ea2565b905060006105458683611094565b905061056661055f83670de0b6b3a76400008e9003610e54565b8290610db5565b99505050505050505050509695505050505050565b600080805b86518110156105a2576105988782815181106104d257fe5b9150600101610580565b50600085516001600160401b03811180156105bc57600080fd5b506040519080825280602002602001820160405280156105e6578160200160208202803683370190505b5090506000805b885181101561069d576000610608858b848151811061050657fe5b90506106608a838151811061061957fe5b602002602001015161065a8b858151811061063057fe5b60200260200101518d868151811061064457fe5b6020026020010151610db590919063ffffffff16565b90610d2c565b84838151811061066c57fe5b60200260200101818152505061069261068b8286858151811061026e57fe5b8490610db5565b9250506001016105ed565b50600088516001600160401b03811180156106b757600080fd5b506040519080825280602002602001820160405280156106e1578160200160208202803683370190505b50905060005b89518110156107cb576000838583815181106106ff57fe5b6020026020010151111561078457600061073061072486670de0b6b3a7640000611094565b8d858151811061026e57fe5b9050600061075a828d868151811061074457fe5b602002602001015161109490919063ffffffff16565b905061077b61077482670de0b6b3a76400008d9003610d7f565b8390610db5565b9250505061079b565b89828151811061079057fe5b602002602001015190505b6107ab818c848151811061064457fe5b8383815181106107b757fe5b6020908102919091010152506001016106e7565b5060006107da8b8b60016102ad565b905060006107ea8c8460006102ad565b905060006107f88284610d2c565b9050670de0b6b3a764000081111561082d5761081f8a670de0b6b3a763ffff198301610d7f565b9750505050505050506101a7565b60009750505050505050506101a7565b60008061084c878760016102ad565b905061085e8387868151811061074457fe5b86858151811061086a57fe5b602002602001018181525050600061088488888489610ede565b90508387868151811061089357fe5b6020026020010151018786815181106108a857fe5b6020026020010181815250506108df60016103b08989815181106108c857fe5b60200260200101518461109490919063ffffffff16565b98975050505050505050565b600080805b8651811015610912576109088782815181106104d257fe5b91506001016108f0565b50600085516001600160401b038111801561092c57600080fd5b50604051908082528060200260200182016040528015610956578160200160208202803683370190505b5090506000805b8851811015610a1657600061098e858b848151811061097857fe5b6020026020010151610e5490919063ffffffff16565b90506109ca8a838151811061099f57fe5b602002602001015161046e8b85815181106109b657fe5b60200260200101518d868151811061074457fe5b8483815181106109d657fe5b602002602001018181525050610a0b61068b828685815181106109f557fe5b6020026020010151610ea290919063ffffffff16565b92505060010161095d565b50600088516001600160401b0381118015610a3057600080fd5b50604051908082528060200260200182016040528015610a5a578160200160208202803683370190505b50905060005b8951811015610b12576000848281518110610a7757fe5b6020026020010151841115610acb576000610a94610724866110aa565b90506000610aa8828d868151811061074457fe5b9050610ac261077482670de0b6b3a76400008d9003610e54565b92505050610ae2565b898281518110610ad757fe5b602002602001015190505b610af2818c848151811061074457fe5b838381518110610afe57fe5b602090810291909101015250600101610a60565b506000610b218b8b60016102ad565b90506000610b318c8460006102ad565b90506000610b3f8284610d2c565b9050610b54610b4d826110aa565b8b90610ea2565b9d9c50505050505050505050505050565b600080610b74888860016102ad565b90506000610b8a826104748761046e818b611094565b90506000610b9a8a8a848b610ede565b90506000610bae828b8b8151811061074457fe5b90506000805b8b51811015610bd657610bcc8c82815181106104d257fe5b9150600101610bb4565b506000610be9828d8d8151811061050657fe5b90506000610bf6826110aa565b90506000610c048583610ea2565b90506000610c128683611094565b905061056661055f83670de0b6b3a76400008e9003610d7f565b600080610c3b87878787610ede565b905080868581518110610c4a57fe5b602002602001015111610c615760009150506101a7565b600081878681518110610c7057fe5b60200260200101510390506108df670de0b6b3a764000061065a8684610d7f90919063ffffffff16565b600080610ca9878760016102ad565b9050610cbb8387878151811061064457fe5b868681518110610cc757fe5b6020026020010181815250506000610ce188888488610ede565b905083878781518110610cf057fe5b602002602001015103878781518110610d0557fe5b6020026020010181815250506108df6001610d26838a898151811061074457fe5b90611094565b6000610d3b82151560046110d0565b82610d4857506000610d79565b670de0b6b3a764000083810290610d6b90858381610d6257fe5b041460056110d0565b828181610d7457fe5b049150505b92915050565b6000828202610da3841580610d9c575083858381610d9957fe5b04145b60036110d0565b670de0b6b3a764000090049392505050565b600082820161016684821015836110d0565b6000828202610166841580610d9c575083858381610d9957fe5b600081610df757610df284846110e2565b610163565b6101638484611102565b62461bcd60e51b6000908152602060045260076024526642414c23000030600a808404818106603090810160081b95839006959095019082900491820690940160101b939093010160c81b604452606490fd5b6000610e6382151560046110d0565b82610e7057506000610d79565b670de0b6b3a764000083810290610e8a90858381610d6257fe5b826001820381610e9657fe5b04600101915050610d79565b6000828202610ebc841580610d9c575083858381610d9957fe5b80610ecb576000915050610d79565b670de0b6b3a76400006000198201610e96565b600080845186029050600085600081518110610ef657fe5b602002602001015190506000865187600081518110610f1157fe5b60200260200101510290506000600190505b8751811015610f6a57610f4f610f49610f42848b858151811061035057fe5b8a51610dc7565b886110e2565b9150610f608882815181106102cd57fe5b9250600101610f23565b50868581518110610f7757fe5b6020026020010151820391506000610f8f8788610dc7565b90506000610fc0610fb4610fac84610fa78988610dc7565b611102565b6103e8610dc7565b8a898151811061035057fe5b90506000610fdb610fd4610fac8b896110e2565b8690610db5565b9050600080610ff7610fed8686610db5565b610fa78d86610db5565b905060005b60ff8110156110775781925061102c611019866103b08586610dc7565b610fa78e610d26886103b0886002610dc7565b915082821115611055576001838303116110505750975061108c9650505050505050565b61106f565b60018284031161106f5750975061108c9650505050505050565b600101610ffc565b50611083610142610e01565b50505050505050505b949350505050565b60006110a48383111560016110d0565b50900390565b6000670de0b6b3a764000082106110c2576000610d79565b50670de0b6b3a76400000390565b816110de576110de81610e01565b5050565b60006110f182151560046110d0565b8183816110fa57fe5b049392505050565b600061111182151560046110d0565b8261111e57506000610d79565b81600184038161112a57fe5b046001019050610d79565b600082601f830112611145578081fd5b813560206001600160401b038083111561115b57fe5b8183026040518382820101818110848211171561117457fe5b60405284815283810192508684018288018501891015611192578687fd5b8692505b858310156111b4578035845292840192600192909201918401611196565b50979650505050505050565b6000806000606084860312156111d4578283fd5b83356001600160401b038111156111e9578384fd5b6111f586828701611135565b9660208601359650604090950135949350505050565b600080600080600060a08688031215611222578081fd5b8535945060208601356001600160401b038082111561123f578283fd5b61124b89838a01611135565b95506040880135915080821115611260578283fd5b5061126d88828901611135565b9598949750949560608101359550608001359392505050565b60008060006060848603121561129a578283fd5b8335925060208401356001600160401b038111156112b6578283fd5b6112c286828701611135565b925050604084013580151581146112d7578182fd5b809150509250925092565b600080600080600060a086880312156112f9578081fd5b8535945060208601356001600160401b03811115611315578182fd5b61132188828901611135565b959895975050505060408401359360608101359360809091013592509050565b60008060008060008060c08789031215611359578081fd5b8635955060208701356001600160401b03811115611375578182fd5b61138189828a01611135565b96999698505050506040850135946060810135946080820135945060a09091013592509050565b6020808252825182820181905260009190848201906040850190845b818110156113e0578351835292840192918401916001016113c4565b50909695505050505050565b9081526020019056fea26469706673582212204fafbb3b0f7f4d0bb3cb602790f55ba487f0fe829dfa929a230bbe94d1568e1964736f6c63430007060033",
  "linkReferences": {},
  "deployedLinkReferences": {}
}