{
  "_format": "hh-sol-artifact-1",
  "contractName": "StablePool",
  "sourceName": "contracts/StablePoolFactory.sol",
  "abi": [
    {
      "inputs": [
        {
          "internalType": "contract IVault",
          "name": "vault",
          "type": "address"
        },
        {
          "internalType": "string",
          "name": "name",
          "type": "string"
        },
        {
          "internalType": "string",
          "name": "symbol",
          "type": "string"
        },
        {
          "internalType": "contract IERC20[]",
          "name": "tokens",
          "type": "address[]"
        },
        {
          "internalType": "uint256",
          "name": "amplificationParameter",
          "type": "uint256"
        },
        {
          "internalType": "uint256",
          "name": "swapFeePercentage",
          "type": "uint256"
        },
        {
          "internalType": "uint256",
          "name": "pauseWindowDuration",
          "type": "uint256"
        },
        {
          "internalType": "uint256",
          "name": "bufferPeriodDuration",
          "type": "uint256"
        },
        {
          "internalType": "address",
          "name": "owner",
          "type": "address"
        }
      ],
      "stateMutability": "nonpayable",
      "type": "constructor"
    },
    {
      "anonymous": false,
      "inputs": [
        {
          "indexed": false,
          "internalType": "uint256",
          "name": "startValue",
          "type": "uint256"
        },
        {
          "indexed": false,
          "internalType": "uint256",
          "name": "endValue",
          "type": "uint256"
        },
        {
          "indexed": false,
          "internalType": "uint256",
          "name": "startTime",
          "type": "uint256"
        },
        {
          "indexed": false,
          "internalType": "uint256",
          "name": "endTime",
          "type": "uint256"
        }
      ],
      "name": "AmpUpdateStarted",
      "type": "event"
    },
    {
      "anonymous": false,
      "inputs": [
        {
          "indexed": false,
          "internalType": "uint256",
          "name": "currentValue",
          "type": "uint256"
        }
      ],
      "name": "AmpUpdateStopped",
      "type": "event"
    },
    {
      "anonymous": false,
      "inputs": [
        {
          "indexed": true,
          "internalType": "address",
          "name": "owner",
          "type": "address"
        },
        {
          "indexed": true,
          "internalType": "address",
          "name": "spender",
          "type": "address"
        },
        {
          "indexed": false,
          "internalType": "uint256",
          "name": "value",
          "type": "uint256"
        }
      ],
      "name": "Approval",
      "type": "event"
    },
    {
      "anonymous": false,
      "inputs": [
        {
          "indexed": false,
          "internalType": "bool",
          "name": "paused",
          "type": "bool"
        }
      ],
      "name": "PausedStateChanged",
      "type": "event"
    },
    {
      "anonymous": false,
      "inputs": [
        {
          "indexed": false,
          "internalType": "uint256",
          "name": "swapFeePercentage",
          "type": "uint256"
        }
      ],
      "name": "SwapFeePercentageChanged",
      "type": "event"
    },
    {
      "anonymous": false,
      "inputs": [
        {
          "indexed": true,
          "internalType": "address",
          "name": "from",
          "type": "address"
        },
        {
          "indexed": true,
          "internalType": "address",
          "name": "to",
          "type": "address"
        },
        {
          "indexed": false,
          "internalType": "uint256",
          "name": "value",
          "type": "uint256"
        }
      ],
      "name": "Transfer",
      "type": "event"
    },
    {
      "inputs": [],
      "name": "DOMAIN_SEPARATOR",
      "outputs": [
        {
          "internalType": "bytes32",
          "name": "",
          "type": "bytes32"
        }
      ],
      "stateMutability": "view",
      "type": "function"
    },
    {
      "inputs": [
        {
          "internalType": "address",
          "name": "owner",
          "type": "address"
        },
        {
          "internalType": "address",
          "name": "spender",
          "type": "address"
        }
      ],
      "name": "allowance",
      "outputs": [
        {
          "internalType": "uint256",
          "name": "",
          "type": "uint256"
        }
      ],
      "stateMutability": "view",
      "type": "function"
    },
    {
      "inputs": [
        {
          "internalType": "address",
          "name": "spender",
          "type": "address"
        },
        {
          "internalType": "uint256",
          "name": "amount",
          "type": "uint256"
        }
      ],
      "name": "approve",
      "outputs": [
        {
          "internalType": "bool",
          "name": "",
          "type": "bool"
        }
      ],
      "stateMutability": "nonpayable",
      "type": "function"
    },
    {
      "inputs": [
        {
          "internalType": "address",
          "name": "account",
          "type": "address"
        }
      ],
      "name": "balanceOf",
      "outputs": [
        {
          "internalType": "uint256",
          "name": "",
          "type": "uint256"
        }
      ],
      "stateMutability": "view",
      "type": "function"
    },
    {
      "inputs": [],
      "name": "decimals",
      "outputs": [
        {
          "internalType": "uint8",
          "name": "",
          "type": "uint8"
        }
      ],
      "stateMutability": "view",
      "type": "function"
    },
    {
      "inputs": [
        {
          "internalType": "address",
          "name": "spender",
          "type": "address"
        },
        {
          "internalType": "uint256",
          "name": "amount",
          "type": "uint256"
        }
      ],
      "name": "decreaseAllowance",
      "outputs": [
        {
          "internalType": "bool",
          "name": "",
          "type": "bool"
        }
      ],
      "stateMutability": "nonpayable",
      "type": "function"
    },
    {
      "inputs": [
        {
          "internalType": "bytes4",
          "name": "selector",
          "type": "bytes4"
        }
      ],
      "name": "getActionId",
      "outputs": [
        {
          "internalType": "bytes32",
          "name": "",
          "type": "bytes32"
        }
      ],
      "stateMutability": "view",
      "type": "function"
    },
    {
      "inputs": [],
      "name": "getAmplificationParameter",
      "outputs": [
        {
          "internalType": "uint256",
          "name": "value",
          "type": "uint256"
        },
        {
          "internalType": "bool",
          "name": "isUpdating",
          "type": "bool"
        },
        {
          "internalType": "uint256",
          "name": "precision",
          "type": "uint256"
        }
      ],
      "stateMutability": "view",
      "type": "function"
    },
    {
      "inputs": [],
      "name": "getAuthorizer",
      "outputs": [
        {
          "internalType": "contract IAuthorizer",
          "name": "",
          "type": "address"
        }
      ],
      "stateMutability": "view",
      "type": "function"
    },
    {
      "inputs": [],
      "name": "getOwner",
      "outputs": [
        {
          "internalType": "address",
          "name": "",
          "type": "address"
        }
      ],
      "stateMutability": "view",
      "type": "function"
    },
    {
      "inputs": [],
      "name": "getPausedState",
      "outputs": [
        {
          "internalType": "bool",
          "name": "paused",
          "type": "bool"
        },
        {
          "internalType": "uint256",
          "name": "pauseWindowEndTime",
          "type": "uint256"
        },
        {
          "internalType": "uint256",
          "name": "bufferPeriodEndTime",
          "type": "uint256"
        }
      ],
      "stateMutability": "view",
      "type": "function"
    },
    {
      "inputs": [],
      "name": "getPoolId",
      "outputs": [
        {
          "internalType": "bytes32",
          "name": "",
          "type": "bytes32"
        }
      ],
      "stateMutability": "view",
      "type": "function"
    },
    {
      "inputs": [],
      "name": "getRate",
      "outputs": [
        {
          "internalType": "uint256",
          "name": "",
          "type": "uint256"
        }
      ],
      "stateMutability": "view",
      "type": "function"
    },
    {
      "inputs": [],
      "name": "getSwapFeePercentage",
      "outputs": [
        {
          "internalType": "uint256",
          "name": "",
          "type": "uint256"
        }
      ],
      "stateMutability": "view",
      "type": "function"
    },
    {
      "inputs": [],
      "name": "getVault",
      "outputs": [
        {
          "internalType": "contract IVault",
          "name": "",
          "type": "address"
        }
      ],
      "stateMutability": "view",
      "type": "function"
    },
    {
      "inputs": [
        {
          "internalType": "address",
          "name": "spender",
          "type": "address"
        },
        {
          "internalType": "uint256",
          "name": "addedValue",
          "type": "uint256"
        }
      ],
      "name": "increaseAllowance",
      "outputs": [
        {
          "internalType": "bool",
          "name": "",
          "type": "bool"
        }
      ],
      "stateMutability": "nonpayable",
      "type": "function"
    },
    {
      "inputs": [],
      "name": "name",
      "outputs": [
        {
          "internalType": "string",
          "name": "",
          "type": "string"
        }
      ],
      "stateMutability": "view",
      "type": "function"
    },
    {
      "inputs": [
        {
          "internalType": "address",
          "name": "owner",
          "type": "address"
        }
      ],
      "name": "nonces",
      "outputs": [
        {
          "internalType": "uint256",
          "name": "",
          "type": "uint256"
        }
      ],
      "stateMutability": "view",
      "type": "function"
    },
    {
      "inputs": [
        {
          "internalType": "bytes32",
          "name": "poolId",
          "type": "bytes32"
        },
        {
          "internalType": "address",
          "name": "sender",
          "type": "address"
        },
        {
          "internalType": "address",
          "name": "recipient",
          "type": "address"
        },
        {
          "internalType": "uint256[]",
          "name": "balances",
          "type": "uint256[]"
        },
        {
          "internalType": "uint256",
          "name": "lastChangeBlock",
          "type": "uint256"
        },
        {
          "internalType": "uint256",
          "name": "protocolSwapFeePercentage",
          "type": "uint256"
        },
        {
          "internalType": "bytes",
          "name": "userData",
          "type": "bytes"
        }
      ],
      "name": "onExitPool",
      "outputs": [
        {
          "internalType": "uint256[]",
          "name": "",
          "type": "uint256[]"
        },
        {
          "internalType": "uint256[]",
          "name": "",
          "type": "uint256[]"
        }
      ],
      "stateMutability": "nonpayable",
      "type": "function"
    },
    {
      "inputs": [
        {
          "internalType": "bytes32",
          "name": "poolId",
          "type": "bytes32"
        },
        {
          "internalType": "address",
          "name": "sender",
          "type": "address"
        },
        {
          "internalType": "address",
          "name": "recipient",
          "type": "address"
        },
        {
          "internalType": "uint256[]",
          "name": "balances",
          "type": "uint256[]"
        },
        {
          "internalType": "uint256",
          "name": "lastChangeBlock",
          "type": "uint256"
        },
        {
          "internalType": "uint256",
          "name": "protocolSwapFeePercentage",
          "type": "uint256"
        },
        {
          "internalType": "bytes",
          "name": "userData",
          "type": "bytes"
        }
      ],
      "name": "onJoinPool",
      "outputs": [
        {
          "internalType": "uint256[]",
          "name": "",
          "type": "uint256[]"
        },
        {
          "internalType": "uint256[]",
          "name": "",
          "type": "uint256[]"
        }
      ],
      "stateMutability": "nonpayable",
      "type": "function"
    },
    {
      "inputs": [
        {
          "components": [
            {
              "internalType": "enum IVault.SwapKind",
              "name": "kind",
              "type": "uint8"
            },
            {
              "internalType": "contract IERC20",
              "name": "tokenIn",
              "type": "address"
            },
            {
              "internalType": "contract IERC20",
              "name": "tokenOut",
              "type": "address"
            },
            {
              "internalType": "uint256",
              "name": "amount",
              "type": "uint256"
            },
            {
              "internalType": "bytes32",
              "name": "poolId",
              "type": "bytes32"
            },
            {
              "internalType": "uint256",
              "name": "lastChangeBlock",
              "type": "uint256"
            },
            {
              "internalType": "address",
              "name": "from",
              "type": "address"
            },
            {
              "internalType": "address",
              "name": "to",
              "type": "address"
            },
            {
              "internalType": "bytes",
              "name": "userData",
              "type": "bytes"
            }
          ],
          "internalType": "struct IPoolSwapStructs.SwapRequest",
          "name": "swapRequest",
          "type": "tuple"
        },
        {
          "internalType": "uint256[]",
          "name": "balances",
          "type": "uint256[]"
        },
        {
          "internalType": "uint256",
          "name": "indexIn",
          "type": "uint256"
        },
        {
          "internalType": "uint256",
          "name": "indexOut",
          "type": "uint256"
        }
      ],
      "name": "onSwap",
      "outputs": [
        {
          "internalType": "uint256",
          "name": "",
          "type": "uint256"
        }
      ],
      "stateMutability": "view",
      "type": "function"
    },
    {
      "inputs": [
        {
          "components": [
            {
              "internalType": "enum IVault.SwapKind",
              "name": "kind",
              "type": "uint8"
            },
            {
              "internalType": "contract IERC20",
              "name": "tokenIn",
              "type": "address"
            },
            {
              "internalType": "contract IERC20",
              "name": "tokenOut",
              "type": "address"
            },
            {
              "internalType": "uint256",
              "name": "amount",
              "type": "uint256"
            },
            {
              "internalType": "bytes32",
              "name": "poolId",
              "type": "bytes32"
            },
            {
              "internalType": "uint256",
              "name": "lastChangeBlock",
              "type": "uint256"
            },
            {
              "internalType": "address",
              "name": "from",
              "type": "address"
            },
            {
              "internalType": "address",
              "name": "to",
              "type": "address"
            },
            {
              "internalType": "bytes",
              "name": "userData",
              "type": "bytes"
            }
          ],
          "internalType": "struct IPoolSwapStructs.SwapRequest",
          "name": "request",
          "type": "tuple"
        },
        {
          "internalType": "uint256",
          "name": "balanceTokenIn",
          "type": "uint256"
        },
        {
          "internalType": "uint256",
          "name": "balanceTokenOut",
          "type": "uint256"
        }
      ],
      "name": "onSwap",
      "outputs": [
        {
          "internalType": "uint256",
          "name": "",
          "type": "uint256"
        }
      ],
      "stateMutability": "view",
      "type": "function"
    },
    {
      "inputs": [
        {
          "internalType": "address",
          "name": "owner",
          "type": "address"
        },
        {
          "internalType": "address",
          "name": "spender",
          "type": "address"
        },
        {
          "internalType": "uint256",
          "name": "value",
          "type": "uint256"
        },
        {
          "internalType": "uint256",
          "name": "deadline",
          "type": "uint256"
        },
        {
          "internalType": "uint8",
          "name": "v",
          "type": "uint8"
        },
        {
          "internalType": "bytes32",
          "name": "r",
          "type": "bytes32"
        },
        {
          "internalType": "bytes32",
          "name": "s",
          "type": "bytes32"
        }
      ],
      "name": "permit",
      "outputs": [],
      "stateMutability": "nonpayable",
      "type": "function"
    },
    {
      "inputs": [
        {
          "internalType": "bytes32",
          "name": "poolId",
          "type": "bytes32"
        },
        {
          "internalType": "address",
          "name": "sender",
          "type": "address"
        },
        {
          "internalType": "address",
          "name": "recipient",
          "type": "address"
        },
        {
          "internalType": "uint256[]",
          "name": "balances",
          "type": "uint256[]"
        },
        {
          "internalType": "uint256",
          "name": "lastChangeBlock",
          "type": "uint256"
        },
        {
          "internalType": "uint256",
          "name": "protocolSwapFeePercentage",
          "type": "uint256"
        },
        {
          "internalType": "bytes",
          "name": "userData",
          "type": "bytes"
        }
      ],
      "name": "queryExit",
      "outputs": [
        {
          "internalType": "uint256",
          "name": "bptIn",
          "type": "uint256"
        },
        {
          "internalType": "uint256[]",
          "name": "amountsOut",
          "type": "uint256[]"
        }
      ],
      "stateMutability": "nonpayable",
      "type": "function"
    },
    {
      "inputs": [
        {
          "internalType": "bytes32",
          "name": "poolId",
          "type": "bytes32"
        },
        {
          "internalType": "address",
          "name": "sender",
          "type": "address"
        },
        {
          "internalType": "address",
          "name": "recipient",
          "type": "address"
        },
        {
          "internalType": "uint256[]",
          "name": "balances",
          "type": "uint256[]"
        },
        {
          "internalType": "uint256",
          "name": "lastChangeBlock",
          "type": "uint256"
        },
        {
          "internalType": "uint256",
          "name": "protocolSwapFeePercentage",
          "type": "uint256"
        },
        {
          "internalType": "bytes",
          "name": "userData",
          "type": "bytes"
        }
      ],
      "name": "queryJoin",
      "outputs": [
        {
          "internalType": "uint256",
          "name": "bptOut",
          "type": "uint256"
        },
        {
          "internalType": "uint256[]",
          "name": "amountsIn",
          "type": "uint256[]"
        }
      ],
      "stateMutability": "nonpayable",
      "type": "function"
    },
    {
      "inputs": [
        {
          "internalType": "contract IERC20",
          "name": "token",
          "type": "address"
        },
        {
          "internalType": "bytes",
          "name": "poolConfig",
          "type": "bytes"
        }
      ],
      "name": "setAssetManagerPoolConfig",
      "outputs": [],
      "stateMutability": "nonpayable",
      "type": "function"
    },
    {
      "inputs": [
        {
          "internalType": "bool",
          "name": "paused",
          "type": "bool"
        }
      ],
      "name": "setPaused",
      "outputs": [],
      "stateMutability": "nonpayable",
      "type": "function"
    },
    {
      "inputs": [
        {
          "internalType": "uint256",
          "name": "swapFeePercentage",
          "type": "uint256"
        }
      ],
      "name": "setSwapFeePercentage",
      "outputs": [],
      "stateMutability": "nonpayable",
      "type": "function"
    },
    {
      "inputs": [
        {
          "internalType": "uint256",
          "name": "rawEndValue",
          "type": "uint256"
        },
        {
          "internalType": "uint256",
          "name": "endTime",
          "type": "uint256"
        }
      ],
      "name": "startAmplificationParameterUpdate",
      "outputs": [],
      "stateMutability": "nonpayable",
      "type": "function"
    },
    {
      "inputs": [],
      "name": "stopAmplificationParameterUpdate",
      "outputs": [],
      "stateMutability": "nonpayable",
      "type": "function"
    },
    {
      "inputs": [],
      "name": "symbol",
      "outputs": [
        {
          "internalType": "string",
          "name": "",
          "type": "string"
        }
      ],
      "stateMutability": "view",
      "type": "function"
    },
    {
      "inputs": [],
      "name": "totalSupply",
      "outputs": [
        {
          "internalType": "uint256",
          "name": "",
          "type": "uint256"
        }
      ],
      "stateMutability": "view",
      "type": "function"
    },
    {
      "inputs": [
        {
          "internalType": "address",
          "name": "recipient",
          "type": "address"
        },
        {
          "internalType": "uint256",
          "name": "amount",
          "type": "uint256"
        }
      ],
      "name": "transfer",
      "outputs": [
        {
          "internalType": "bool",
          "name": "",
          "type": "bool"
        }
      ],
      "stateMutability": "nonpayable",
      "type": "function"
    },
    {
      "inputs": [
        {
          "internalType": "address",
          "name": "sender",
          "type": "address"
        },
        {
          "internalType": "address",
          "name": "recipient",
          "type": "address"
        },
        {
          "internalType": "uint256",
          "name": "amount",
          "type": "uint256"
        }
      ],
      "name": "transferFrom",
      "outputs": [
        {
          "internalType": "bool",
          "name": "",
          "type": "bool"
        }
      ],
      "stateMutability": "nonpayable",
      "type": "function"
    }
  ],
  "bytecode": "0x6103e06040527f6e71edae12b1b97f4d1f60370fef10105fa2faae0126114a169c64845d6126c9610120523480156200003757600080fd5b5060405162005405380380620054058339810160408190526200005a9162000bfc565b8886516002146200006d57600062000070565b60025b8989898a516001600160401b03811180156200008b57600080fd5b50604051908082528060200260200182016040528015620000b6578160200160208202803683370190505b506040805180820190915260018152603160f81b602080830191909152336080526001600160601b031960608a901b1660a05285518c928c928c928c92859285928c928c92849283929183918691620001159160039185019062000a14565b5080516200012b90600490602084019062000a14565b50506005805460ff1916601217905550815160209283012060c052805191012060e05250507f8b73c3c69bb8fe3d512ecc4cf759cc79239f7b179b0ffacaa9a75d522b39400f61010052506200018a6276a70083111561019462000699565b6200019e62278d0082111561019562000699565b4290910161014081905201610160528551620001c0906002111560c862000699565b620001d860088751111560c96200069960201b60201c565b620001ee86620006ae60201b62000ec61760201c565b620001f984620006ba565b6040516309b2760f60e01b81526000906001600160a01b038c16906309b2760f906200022a908d9060040162000d94565b602060405180830381600087803b1580156200024557600080fd5b505af11580156200025a573d6000803e3d6000fd5b505050506040513d601f19601f8201168201806040525081019062000280919062000be3565b604051633354e3e960e11b81529091506001600160a01b038c16906366a9c7d290620002b59084908b908b9060040162000cfa565b600060405180830381600087803b158015620002d057600080fd5b505af1158015620002e5573d6000803e3d6000fd5b505088516001600160601b031960608f901b16610180526101a08490526101c0819052915050806200031957600062000330565b876000815181106200032757fe5b60200260200101515b60601b6001600160601b0319166101e052600181116200035257600062000369565b876001815181106200036057fe5b60200260200101515b60601b6001600160601b03191661020052600281116200038b576000620003a2565b876002815181106200039957fe5b60200260200101515b60601b6001600160601b0319166102205260038111620003c4576000620003db565b87600381518110620003d257fe5b60200260200101515b60601b6001600160601b0319166102405260048111620003fd57600062000414565b876004815181106200040b57fe5b60200260200101515b60601b6001600160601b0319166102605260058111620004365760006200044d565b876005815181106200044457fe5b60200260200101515b60601b6001600160601b03191661028052600681116200046f57600062000486565b876006815181106200047d57fe5b60200260200101515b60601b6001600160601b0319166102a05260078111620004a8576000620004bf565b87600781518110620004b657fe5b60200260200101515b60601b6001600160601b0319166102c05280620004de57600062000504565b6200050488600081518110620004f057fe5b60200260200101516200072960201b60201c565b6102e05260018111620005195760006200052b565b6200052b88600181518110620004f057fe5b61030052600281116200054057600062000552565b6200055288600281518110620004f057fe5b61032052600381116200056757600062000579565b6200057988600381518110620004f057fe5b61034052600481116200058e576000620005a0565b620005a088600481518110620004f057fe5b6103605260058111620005b5576000620005c7565b620005c788600581518110620004f057fe5b6103805260068111620005dc576000620005ee565b620005ee88600681518110620004f057fe5b6103a052600781116200060357600062000615565b6200061588600781518110620004f057fe5b6103c05250508f516200063c9a5060051015985061012f9750506200069995505050505050565b6200064e600186101561012c62000699565b6200066161138886111561012d62000699565b60006200067c866103e8620007da60201b62000ed01760201c565b9050620006898162000809565b5050505050505050505062000e07565b81620006aa57620006aa8162000848565b5050565b80620006aa816200089b565b620006cf64e8d4a5100082101560cb62000699565b620006e767016345785d8a000082111560ca62000699565b60088190556040517fa9ba3ffe0b6c366b81232caab38605a0699ad5398d6cce76f91ee809e322dafc906200071e90839062000da9565b60405180910390a150565b600080826001600160a01b031663313ce5676040518163ffffffff1660e01b815260040160206040518083038186803b1580156200076657600080fd5b505afa1580156200077b573d6000803e3d6000fd5b505050506040513d601f19601f82011682018060405250810190620007a1919062000cd7565b60ff1690506000620007c06012836200092860201b62000ef41760201c565b905080600a0a670de0b6b3a764000002925050505b919050565b600082820262000802841580620007fa575083858381620007f757fe5b04145b600362000699565b9392505050565b620008178180428062000940565b7fa0d01593e47e69d07e0ccd87bece09411e07dd1ed40ca8f2e7af2976542a0233816040516200071e919062000da9565b62461bcd60e51b6000908152602060045260076024526642414c23000030600a808404818106603090810160081b95839006959095019082900491820690940160101b939093010160c81b604452606490fd5b600281511015620008ac5762000925565b600081600081518110620008bc57fe5b602002602001015190506000600190505b825181101562000922576000838281518110620008e657fe5b6020026020010151905062000917816001600160a01b0316846001600160a01b03161060656200069960201b60201c565b9150600101620008cd565b50505b50565b60006200093a83831115600162000699565b50900390565b62000961816001600160401b031660c062000a1060201b62000f0a1760201c565b62000982836001600160401b0316608062000a1060201b62000f0a1760201c565b620009a3856001600160401b0316604062000a1060201b62000f0a1760201c565b620009c4876001600160401b0316600062000a1060201b62000f0a1760201c565b1717176009556040517f1835882ee7a34ac194f717a35e09bb1d24c82a3b9d854ab6c9749525b714cdf29062000a0290869086908690869062000db2565b60405180910390a150505050565b1b90565b828054600181600116156101000203166002900490600052602060002090601f01602090048101928262000a4c576000855562000a97565b82601f1062000a6757805160ff191683800117855562000a97565b8280016001018555821562000a97579182015b8281111562000a9757825182559160200191906001019062000a7a565b5062000aa592915062000aa9565b5090565b5b8082111562000aa5576000815560010162000aaa565b8051620007d58162000df1565b600082601f83011262000ade578081fd5b815160206001600160401b0382111562000af457fe5b80820262000b0482820162000dcd565b83815282810190868401838801850189101562000b1f578687fd5b8693505b8584101562000b4e57805162000b398162000df1565b83526001939093019291840191840162000b23565b50979650505050505050565b600082601f83011262000b6b578081fd5b81516001600160401b0381111562000b7f57fe5b602062000b95601f8301601f1916820162000dcd565b828152858284870101111562000ba9578384fd5b835b8381101562000bc857858101830151828201840152820162000bab565b8381111562000bd957848385840101525b5095945050505050565b60006020828403121562000bf5578081fd5b5051919050565b60008060008060008060008060006101208a8c03121562000c1b578485fd5b62000c268a62000ac0565b60208b01519099506001600160401b038082111562000c43578687fd5b62000c518d838e0162000b5a565b995060408c015191508082111562000c67578687fd5b62000c758d838e0162000b5a565b985060608c015191508082111562000c8b578687fd5b5062000c9a8c828d0162000acd565b96505060808a0151945060a08a0151935060c08a0151925060e08a0151915062000cc86101008b0162000ac0565b90509295985092959850929598565b60006020828403121562000ce9578081fd5b815160ff8116811462000802578182fd5b60006060820185835260206060818501528186518084526080860191508288019350845b8181101562000d455784516001600160a01b03168352938301939183019160010162000d1e565b505084810360408601528551808252908201925081860190845b8181101562000d865782516001600160a01b03168552938301939183019160010162000d5f565b509298975050505050505050565b602081016003831062000da357fe5b91905290565b90815260200190565b93845260208401929092526040830152606082015260800190565b6040518181016001600160401b038111828210171562000de957fe5b604052919050565b6001600160a01b03811681146200092557600080fd5b60805160a05160601c60c05160e051610100516101205161014051610160516101805160601c6101a0516101c0516101e05160601c6102005160601c6102205160601c6102405160601c6102605160601c6102805160601c6102a05160601c6102c05160601c6102e05161030051610320516103405161036051610380516103a0516103c05161449762000f6e6000398061118d528061208752508061114a52806120265250806111075280611fc55250806110c45280611f645250806110815280611f0352508061103e5280611ea2525080610ffb5280611e41525080610faa5280611de052508061204c525080611feb525080611f8a525080611f29525080611ec8525080611e67525080611e06525080611da55280612996525080610f10525080610719525080610a445250806113fd5250806113d9525080610c38525080611640525080611682525080611661525080610a205250806109aa52506144976000f3fe608060405234801561001057600080fd5b50600436106101c65760003560e01c80636daccffa116100fa57806395d89b411161009d57806395d89b41146103b35780639d2c110c146103bb578063a457c2d7146103ce578063a9059cbb146103e1578063aaabadc5146103f4578063d505accf146103fc578063d5c096c41461040f578063dd62ed3e14610422578063eb0f24d614610435576101c6565b80636daccffa1461031257806370a082311461032957806374f3b0091461033c5780637ecebe001461035d578063851c1bb31461037057806387ec681714610383578063893d20e8146103965780638d928af8146103ab576101c6565b8063313ce5671161016d578063313ce567146102835780633644e5151461029857806338e9922e146102a057806338fff2d0146102b357806339509351146102bb57806350dd6ed9146102ce57806355c67628146102e15780636028bfd4146102e9578063679aefce1461030a576101c6565b806301ec954a146101cb57806306fdde03146101f4578063095ea7b31461020957806316c38b3c1461022957806318160ddd1461023e5780631c0de0511461024657806323b872dd1461025d5780632f1a0bc914610270575b600080fd5b6101de6101d9366004614038565b61043d565b6040516101eb9190614290565b60405180910390f35b6101fc61049c565b6040516101eb9190614366565b61021c610217366004613cce565b610533565b6040516101eb919061426d565b61023c610237366004613dc4565b61054a565b005b6101de61055e565b61024e610564565b6040516101eb93929190614278565b61021c61026b366004613c19565b61058d565b61023c61027e36600461410b565b610603565b61028b6106e6565b6040516101eb91906143c3565b6101de6106ef565b61023c6102ae3660046140f3565b6106fe565b6101de610717565b61021c6102c9366004613cce565b61073b565b61023c6102dc366004613ee2565b610776565b6101de610794565b6102fc6102f7366004613dfc565b61079a565b6040516101eb929190614379565b6101de6107d1565b61031a6108ae565b6040516101eb93929190614392565b6101de610337366004613bc5565b6108c9565b61034f61034a366004613dfc565b6108e8565b6040516101eb929190614248565b6101de61036b366004613bc5565b61098b565b6101de61037e366004613e9e565b6109a6565b6102fc610391366004613dfc565b6109f8565b61039e610a1e565b6040516101eb9190614234565b61039e610a42565b6101fc610a66565b6101de6103c93660046140a8565b610ac7565b61021c6103dc366004613cce565b610bae565b61021c6103ef366004613cce565b610bec565b61039e610bf9565b61023c61040a366004613c59565b610c03565b61034f61041d366004613dfc565b610d4c565b6101de610430366004613be1565b610e6f565b61023c610e9a565b6000610451838361044c610f0e565b610f32565b600061045b610f4f565b905060008651600181111561046c57fe5b146104835761047e86868686856111cb565b610490565b6104908686868685611242565b9150505b949350505050565b60038054604080516020601f60026000196101006001881615020190951694909404938401819004810282018101909252828152606093909290918301828280156105285780601f106104fd57610100808354040283529160200191610528565b820191906000526020600020905b81548152906001019060200180831161050b57829003601f168201915b505050505090505b90565b60006105403384846112a6565b5060015b92915050565b61055261130e565b61055b8161133c565b50565b60025490565b60008060006105716113ba565b15925061057c6113d7565b91506105866113fb565b9050909192565b60008061059a8533610e6f565b90506105be336001600160a01b03871614806105b65750838210155b61019e61141f565b6105c985858561142d565b336001600160a01b038616148015906105e457506000198114155b156105f6576105f685338584036112a6565b60019150505b9392505050565b61060b61130e565b61061b600183101561012c61141f565b61062c61138883111561012d61141f565b60006106388242610ef4565b905061064c6201518082101561013d61141f565b6000806106576114fb565b91509150610668811561013e61141f565b6000610676866103e8610ed0565b905060008382116106a5576106a06106916201518086610ed0565b61069b8488610ed0565b61156f565b6106bf565b6106bf6106b56201518084610ed0565b61069b8688610ed0565b90506106d1600282111561013f61141f565b6106dd848342896115a2565b50505050505050565b60055460ff1690565b60006106f961163c565b905090565b61070661130e565b61070e6116d9565b61055b816116ee565b7f000000000000000000000000000000000000000000000000000000000000000090565b3360008181526001602090815260408083206001600160a01b03871684529091528120549091610540918590610771908661174c565b6112a6565b61077e61130e565b6107866116d9565b610790828261175e565b5050565b60085490565b600060606107b086516107ab610f0e565b61185d565b6107c58989898989898961186a61190d61196e565b97509795505050505050565b6000806107dc610a42565b6001600160a01b031663f94d46686107f2610717565b6040518263ffffffff1660e01b815260040161080e9190614290565b60006040518083038186803b15801561082657600080fd5b505afa15801561083a573d6000803e3d6000fd5b505050506040513d6000823e601f3d908101601f191682016040526108629190810190613cf9565b5091505060006108706114fb565b5090506108848261087f610f4f565b611a90565b600061089282846000611af1565b90506108a661089f61055e565b8290611c8d565b935050505090565b60008060006108bb6114fb565b90949093506103e892509050565b6001600160a01b0381166000908152602081905260409020545b919050565b606080886109126108f7610a42565b6001600160a01b0316336001600160a01b03161460cd61141f565b61092761091d610717565b82146101f461141f565b6000610931610f4f565b905061093d8882611a90565b60008060006109528e8e8e8e8e8e8a8f61186a565b9250925092506109628d84611cde565b61096c828561190d565b610976818561190d565b909550935050505b5097509795505050505050565b6001600160a01b031660009081526006602052604090205490565b60007f0000000000000000000000000000000000000000000000000000000000000000826040516020016109db9291906141f1565b604051602081830303815290604052805190602001209050919050565b60006060610a0986516107ab610f0e565b6107c589898989898989611ce8611d4061196e565b7f000000000000000000000000000000000000000000000000000000000000000090565b7f000000000000000000000000000000000000000000000000000000000000000090565b60048054604080516020601f60026000196101006001881615020190951694909404938401819004810282018101909252828152606093909290918301828280156105285780601f106104fd57610100808354040283529160200191610528565b600080610ad78560200151611da1565b90506000610ae88660400151611da1565b9050600086516001811115610af957fe5b1415610b5f57610b0c86606001516120b6565b6060870152610b1b85836120da565b9450610b2784826120da565b9350610b378660600151836120da565b60608701526000610b498787876120e6565b9050610b55818361212a565b93505050506105fc565b610b6985836120da565b9450610b7584826120da565b9350610b858660600151826120da565b60608701526000610b97878787612136565b9050610ba38184612165565b9050610b5581612171565b600080610bbb3385610e6f565b9050808310610bd557610bd0338560006112a6565b610be2565b610be233858584036112a6565b5060019392505050565b600061054033848461142d565b60006106f961219a565b610c118442111560d161141f565b6001600160a01b0387166000908152600660209081526040808320549051909291610c68917f0000000000000000000000000000000000000000000000000000000000000000918c918c918c9188918d91016142b8565b6040516020818303038152906040528051906020012090506000610c8b82612214565b9050600060018288888860405160008152602001604052604051610cb29493929190614348565b6020604051602081039080840390855afa158015610cd4573d6000803e3d6000fd5b5050604051601f1901519150610d1690506001600160a01b03821615801590610d0e57508b6001600160a01b0316826001600160a01b0316145b6101f861141f565b6001600160a01b038b166000908152600660205260409020600185019055610d3f8b8b8b6112a6565b5050505050505050505050565b60608088610d5b6108f7610a42565b610d6661091d610717565b6000610d70610f4f565b9050610d7a61055e565b610e1f57600080610d8e8d8d8d868b612230565b91509150610da3620f424083101560cc61141f565b610db16000620f42406122bf565b610dc08b620f424084036122bf565b610dca8184611d40565b80610dd3610f0e565b6001600160401b0381118015610de857600080fd5b50604051908082528060200260200182016040528015610e12578160200160208202803683370190505b509550955050505061097e565b610e298882611a90565b6000806000610e3e8e8e8e8e8e8e8a8f611ce8565b925092509250610e4e8c846122bf565b610e588285611d40565b610e62818561190d565b909550935061097e915050565b6001600160a01b03918216600090815260016020908152604080832093909416825291909152205490565b610ea261130e565b600080610ead6114fb565b91509150610ebd8161014061141f565b610790826122c9565b8061079081612304565b60008282026105fc841580610eed575083858381610eea57fe5b04145b600361141f565b6000610f0483831115600161141f565b50900390565b1b90565b7f000000000000000000000000000000000000000000000000000000000000000090565b610f4a8184108015610f4357508183105b606461141f565b505050565b60606000610f5b610f0e565b90506000816001600160401b0381118015610f7557600080fd5b50604051908082528060200260200182016040528015610f9f578160200160208202803683370190505b5090508115610fe7577f000000000000000000000000000000000000000000000000000000000000000081600081518110610fd657fe5b602002602001018181525050610ff0565b91506105309050565b6001821115610fe7577f00000000000000000000000000000000000000000000000000000000000000008160018151811061102757fe5b6020026020010181815250506002821115610fe7577f00000000000000000000000000000000000000000000000000000000000000008160028151811061106a57fe5b6020026020010181815250506003821115610fe7577f0000000000000000000000000000000000000000000000000000000000000000816003815181106110ad57fe5b6020026020010181815250506004821115610fe7577f0000000000000000000000000000000000000000000000000000000000000000816004815181106110f057fe5b6020026020010181815250506005821115610fe7577f00000000000000000000000000000000000000000000000000000000000000008160058151811061113357fe5b6020026020010181815250506006821115610fe7577f00000000000000000000000000000000000000000000000000000000000000008160068151811061117657fe5b6020026020010181815250506007821115610fe7577f0000000000000000000000000000000000000000000000000000000000000000816007815181106111b957fe5b60200260200101818152505091505090565b60006111d78583611a90565b6111f886606001518385815181106111eb57fe5b60200260200101516120da565b6060870152600061120b8787878761237d565b905061122a8184878151811061121d57fe5b6020026020010151612165565b905061123581612171565b9150505b95945050505050565b600061125186606001516120b6565b60608701526112608583611a90565b61127486606001518386815181106111eb57fe5b60608701526000611287878787876123a7565b90506112358184868151811061129957fe5b602002602001015161212a565b6001600160a01b0380841660008181526001602090815260408083209487168084529490915290819020849055517f8c5be1e5ebec7d5bd14f71427d1e84f3dd0314c0f7b2291e5b200ac8c7c3b92590611301908590614290565b60405180910390a3505050565b60006113256000356001600160e01b0319166109a6565b905061055b61133482336123d1565b61019161141f565b801561135c5761135761134d6113d7565b421061019361141f565b611371565b6113716113676113fb565b42106101a961141f565b6007805460ff19168215151790556040517f9e3a5e37224532dea67b89face185703738a228a6e8a23dee546960180d3be64906113af90839061426d565b60405180910390a150565b60006113c46113fb565b4211806106f957505060075460ff161590565b7f000000000000000000000000000000000000000000000000000000000000000090565b7f000000000000000000000000000000000000000000000000000000000000000090565b8161079057610790816124c1565b6114446001600160a01b038416151561019861141f565b61145b6001600160a01b038316151561019961141f565b611466838383610f4a565b6001600160a01b03831660009081526020819052604090205461148c90826101a0612514565b6001600160a01b0380851660009081526020819052604080822093909355908416815220546114bb908261174c565b6001600160a01b03808416600081815260208190526040908190209390935591519085169060008051602061444283398151915290611301908590614290565b60008060008060008061150c61252a565b93509350935093508042101561155f57600194508383111561154357818103824203858503028161153957fe5b048401955061155a565b818103824203848603028161155457fe5b04840395505b611567565b600094508295505b505050509091565b600061157e821515600461141f565b8261158b57506000610544565b81600184038161159757fe5b046001019050610544565b6115b6816001600160401b031660c0610f0a565b6115ca836001600160401b03166080610f0a565b6115de856001600160401b03166040610f0a565b6115f2876001600160401b03166000610f0a565b1717176009556040517f1835882ee7a34ac194f717a35e09bb1d24c82a3b9d854ab6c9749525b714cdf29061162e9086908690869086906143a8565b60405180910390a150505050565b60007f00000000000000000000000000000000000000000000000000000000000000007f00000000000000000000000000000000000000000000000000000000000000007f00000000000000000000000000000000000000000000000000000000000000006116a9612581565b306040516020016116be9594939291906142ec565b60405160208183030381529060405280519060200120905090565b6116ec6116e46113ba565b61019261141f565b565b61170164e8d4a5100082101560cb61141f565b61171767016345785d8a000082111560ca61141f565b60088190556040517fa9ba3ffe0b6c366b81232caab38605a0699ad5398d6cce76f91ee809e322dafc906113af908390614290565b60008282016105fc848210158361141f565b6000611768610717565b90506000611774610a42565b6001600160a01b031663b05f8e4883866040518363ffffffff1660e01b81526004016117a1929190614331565b60806040518083038186803b1580156117b957600080fd5b505afa1580156117cd573d6000803e3d6000fd5b505050506040513d601f19601f820116820180604052508101906117f1919061412c565b604051630639cdb560e21b81529094506001600160a01b03851693506318e736d49250611825915085908790600401614318565b600060405180830381600087803b15801561183f57600080fd5b505af1158015611853573d6000803e3d6000fd5b5050505050505050565b610790818314606761141f565b60006060806118776113ba565b1561189a576118868887612585565b90506118958882610ef4612672565b6118e5565b6118a2610f0e565b6001600160401b03811180156118b757600080fd5b506040519080825280602002602001820160405280156118e1578160200160208202803683370190505b5090505b6118f08886866126dd565b90935091506118ff8883612749565b985098509895505050505050565b60005b611918610f0e565b811015610f4a5761194f83828151811061192e57fe5b602002602001015183838151811061194257fe5b6020026020010151611c8d565b83828151811061195b57fe5b6020908102919091010152600101611910565b333014611a2c576000306001600160a01b0316600036604051611992929190614209565b6000604051808303816000865af19150503d80600081146119cf576040519150601f19603f3d011682016040523d82523d6000602084013e6119d4565b606091505b5050905080600081146119e357fe5b60046000803e6000516001600160e01b0319166343adbafb60e01b8114611a0e573d6000803e3d6000fd5b506020600460003e604060205260243d03602460403e601c3d016000f35b6000611a36610f4f565b9050611a428782611a90565b600080611a598c8c8c8c8c8c898d8d63ffffffff16565b5091509150611a6c81848663ffffffff16565b8051601f1982018390526343adbafb603f1983015260200260231982016044820181fd5b60005b611a9b610f0e565b811015610f4a57611ad2838281518110611ab157fe5b6020026020010151838381518110611ac557fe5b6020026020010151612778565b838281518110611ade57fe5b6020908102919091010152600101611a93565b81516000908190815b81811015611b3257611b28868281518110611b1157fe5b60200260200101518461174c90919063ffffffff16565b9250600101611afa565b5081611b43576000925050506105fc565b600082878302825b60ff811015611c75576000858a600081518110611b6457fe5b60200260200101510290506000600190505b86811015611bb857611bae611ba7611ba1848e8581518110611b9457fe5b6020026020010151610ed0565b89610ed0565b868c6127a4565b9150600101611b76565b50839450611c2b611bfa611be1611bd8611bd2878c610ed0565b85610ed0565b6103e88d6127a4565b611bf4611bee8a89610ed0565b88610ed0565b9061174c565b611c25611c18611c0e6103e8880386610ed0565b6103e88e156127a4565b611bf48a60010189610ed0565b8b6127a4565b935084841115611c5357600185850311611c4e57839750505050505050506105fc565b611c6c565b600184860311611c6c57839750505050505050506105fc565b50600101611b4b565b50611c816101426124c1565b50505050509392505050565b6000611c9c821515600461141f565b82611ca957506000610544565b670de0b6b3a764000083810290611ccc90858381611cc357fe5b0414600561141f565b828181611cd557fe5b04915050610544565b61079082826127c4565b6000606080611cf56116d9565b6000611d018988612585565b9050611d108982610ef4612672565b600080611d1e8b898961286e565b91509150611d2c8b826128c7565b909d909c50909a5098505050505050505050565b60005b611d4b610f0e565b811015610f4a57611d82838281518110611d6157fe5b6020026020010151838381518110611d7557fe5b60200260200101516128d4565b838281518110611d8e57fe5b6020908102919091010152600101611d43565b60007f00000000000000000000000000000000000000000000000000000000000000006001600160a01b0316826001600160a01b03161415611e0457507f00000000000000000000000000000000000000000000000000000000000000006108e3565b7f00000000000000000000000000000000000000000000000000000000000000006001600160a01b0316826001600160a01b03161415611e6557507f00000000000000000000000000000000000000000000000000000000000000006108e3565b7f00000000000000000000000000000000000000000000000000000000000000006001600160a01b0316826001600160a01b03161415611ec657507f00000000000000000000000000000000000000000000000000000000000000006108e3565b7f00000000000000000000000000000000000000000000000000000000000000006001600160a01b0316826001600160a01b03161415611f2757507f00000000000000000000000000000000000000000000000000000000000000006108e3565b7f00000000000000000000000000000000000000000000000000000000000000006001600160a01b0316826001600160a01b03161415611f8857507f00000000000000000000000000000000000000000000000000000000000000006108e3565b7f00000000000000000000000000000000000000000000000000000000000000006001600160a01b0316826001600160a01b03161415611fe957507f00000000000000000000000000000000000000000000000000000000000000006108e3565b7f00000000000000000000000000000000000000000000000000000000000000006001600160a01b0316826001600160a01b0316141561204a57507f00000000000000000000000000000000000000000000000000000000000000006108e3565b7f00000000000000000000000000000000000000000000000000000000000000006001600160a01b0316826001600160a01b031614156120ab57507f00000000000000000000000000000000000000000000000000000000000000006108e3565b6108e36101356124c1565b6000806120ce6008548461292290919063ffffffff16565b90506105fc8382610ef4565b60006105fc8383612778565b60006120fd6120f3610f0e565b60021460d261141f565b600080600061210d87878761295e565b92509250925061211f878484846123a7565b979650505050505050565b60006105fc8383611c8d565b60006121436120f3610f0e565b600080600061215387878761295e565b92509250925061211f8784848461237d565b60006105fc83836128d4565b6000610544612193600854670de0b6b3a7640000610ef490919063ffffffff16565b83906128d4565b60006121a4610a42565b6001600160a01b031663aaabadc56040518163ffffffff1660e01b815260040160206040518083038186803b1580156121dc57600080fd5b505afa1580156121f0573d6000803e3d6000fd5b505050506040513d601f19601f820116820180604052508101906106f99190613ec6565b600061221e61163c565b826040516020016109db929190614219565b6000606061223c6116d9565b600061224784612a4b565b9050612262600082600281111561225a57fe5b1460ce61141f565b600061226d85612a61565b905061227c81516107ab610f0e565b6122868187611a90565b60006122906114fb565b50905060006122a182846001611af1565b9050806122ae8184612a77565b9b929a509198505050505050505050565b6107908282612a82565b6122d5818242426115a2565b7fa0d01593e47e69d07e0ccd87bece09411e07dd1ed40ca8f2e7af2976542a0233816040516113af9190614290565b6002815110156123135761055b565b60008160008151811061232257fe5b602002602001015190506000600190505b8251811015610f4a57600083828151811061234a57fe5b60200260200101519050612373816001600160a01b0316846001600160a01b031610606561141f565b9150600101612333565b60006123876116d9565b60006123916114fb565b509050600061211f828787878b60600151612afe565b60006123b16116d9565b60006123bb6114fb565b509050600061211f828787878b60600151612bc2565b600073ba1ba1ba1ba1ba1ba1ba1ba1ba1ba1ba1ba1ba1b6123f0610a1e565b6001600160a01b03161415801561240b575061240b83612c6a565b1561243357612418610a1e565b6001600160a01b0316336001600160a01b0316149050610544565b61243b61219a565b6001600160a01b0316639be2a8848484306040518463ffffffff1660e01b815260040161246a93929190614299565b60206040518083038186803b15801561248257600080fd5b505afa158015612496573d6000803e3d6000fd5b505050506040513d601f19601f820116820180604052508101906124ba9190613de0565b9050610544565b62461bcd60e51b6000908152602060045260076024526642414c23000030600a808404818106603090810160081b95839006959095019082900491820690940160101b939093010160c81b604452606490fd5b6000612523848411158361141f565b5050900390565b6000806000806125466000600954612ca690919063ffffffff16565b600954909450612557906040612ca6565b600954909350612568906080612ca6565b6009549092506125799060c0612ca6565b905090919293565b4690565b60606000612591610f0e565b6001600160401b03811180156125a657600080fd5b506040519080825280602002602001820160405280156125d0578160200160208202803683370190505b509050826125df579050610544565b600080856000815181106125ef57fe5b602002602001015190506000600190505b612608610f0e565b81101561263f57600087828151811061261d57fe5b6020026020010151905082811115612636578193508092505b50600101612600565b50612651600b5487600a548589612cb3565b83838151811061265d57fe5b60209081029190910101525090949350505050565b60005b61267d610f0e565b8110156126d7576126b884828151811061269357fe5b60200260200101518483815181106126a757fe5b60200260200101518463ffffffff16565b8482815181106126c457fe5b6020908102919091010152600101612675565b50505050565b6000606060006126ec84612a4b565b905060008160028111156126fc57fe5b14156127165761270c8685612d27565b9250925050612741565b600181600281111561272457fe5b14156127345761270c8685612dec565b61270c868686612e1e565b505b935093915050565b6127568282610ef4612672565b60006127606114fb565b509050610f4a61277282856001611af1565b82612a77565b6000828202612792841580610eed575083858381610eea57fe5b670de0b6b3a764000090049392505050565b6000816127ba576127b58484612e94565b610494565b610494848461156f565b6127db6001600160a01b038316151561019b61141f565b6127e782600083610f4a565b6001600160a01b03821660009081526020819052604090205461280d90826101a1612514565b6001600160a01b0383166000908152602081905260409020556002546128339082612eb4565b6002556040516000906001600160a01b0384169060008051602061444283398151915290612862908590614290565b60405180910390a35050565b60006060600061287d84612a4b565b9050600181600281111561288d57fe5b141561289e5761270c868686612ec2565b60028160028111156128ac57fe5b14156128bc5761270c8685612f27565b61273f6101366124c1565b612756828261174c612672565b60006128e3821515600461141f565b826128f057506000610544565b670de0b6b3a76400008381029061290a90858381611cc357fe5b82600182038161291657fe5b04600101915050610544565b600082820261293c841580610eed575083858381610eea57fe5b8061294b576000915050610544565b670de0b6b3a76400006000198201612916565b6040805160028082526060828101909352600091829181602001602082028036833701905050925085602001516001600160a01b03167f00000000000000000000000000000000000000000000000000000000000000006001600160a01b03161415612a0557600091506001905084836000815181106129da57fe5b60200260200101818152505083836001815181106129f457fe5b602002602001018181525050612a42565b60009050600191508383600081518110612a1b57fe5b6020026020010181815250508483600181518110612a3557fe5b6020026020010181815250505b93509350939050565b6000818060200190518101906105449190613f2f565b6060818060200190518101906105fc9190613ff4565b600a91909155600b55565b612a8e60008383610f4a565b600254612a9b908261174c565b6002556001600160a01b038216600090815260208190526040902054612ac1908261174c565b6001600160a01b03831660008181526020819052604080822093909355915190919060008051602061444283398151915290612862908590614290565b600080612b0d87876001611af1565b9050612b3583878681518110612b1f57fe5b6020026020010151610ef490919063ffffffff16565b868581518110612b4157fe5b6020026020010181815250506000612b5b88888489612fb6565b905083878681518110612b6a57fe5b602002602001015101878681518110612b7f57fe5b602002602001018181525050612bb66001611bf4898981518110612b9f57fe5b602002602001015184610ef490919063ffffffff16565b98975050505050505050565b600080612bd187876001611af1565b9050612bf983878781518110612be357fe5b602002602001015161174c90919063ffffffff16565b868681518110612c0557fe5b6020026020010181815250506000612c1f88888488612fb6565b905083878781518110612c2e57fe5b602002602001015103878781518110612c4357fe5b602002602001018181525050612bb66001612c64838a8981518110612b1f57fe5b90610ef4565b6000612c7c632f1a0bc960e01b6109a6565b821480612c975750612c94637587926b60e11b6109a6565b82145b80610544575061054482613166565b1c6001600160401b031690565b600080612cc287878787612fb6565b905080868581518110612cd157fe5b602002602001015111612ce8576000915050611239565b600081878681518110612cf757fe5b6020026020010151039050612bb6670de0b6b3a7640000612d21868461277890919063ffffffff16565b90611c8d565b60006060612d336116d9565b600080612d3f85613198565b91509150612d57612d4e610f0e565b8210606461141f565b6000612d61610f0e565b6001600160401b0381118015612d7657600080fd5b50604051908082528060200260200182016040528015612da0578160200160208202803683370190505b5090506000612dad6114fb565b509050612dc781898587612dbf61055e565b6008546131ba565b828481518110612dd357fe5b6020908102919091010152509196919550909350505050565b600060606000612dfb846132d6565b90506000612e118683612e0c61055e565b6132ec565b9196919550909350505050565b60006060612e2a6116d9565b600080612e368561339d565b91509150612e4782516107ab610f0e565b612e518287611a90565b6000612e5b6114fb565b5090506000612e76828a86612e6e61055e565b6008546133b5565b9050612e868382111560cf61141f565b989297509195505050505050565b6000612ea3821515600461141f565b818381612eac57fe5b049392505050565b60006105fc83836001612514565b60006060600080612ed28561339d565b91509150612ee8612ee1610f0e565b835161185d565b612ef28287611a90565b6000612efc6114fb565b5090506000612f17828a86612f0f61055e565b600854613649565b9050612e868382101560d061141f565b60006060600080612f3785613198565b91509150612f46612d4e610f0e565b6000612f50610f0e565b6001600160401b0381118015612f6557600080fd5b50604051908082528060200260200182016040528015612f8f578160200160208202803683370190505b5090506000612f9c6114fb565b509050612dc781898587612fae61055e565b6008546138bf565b600080845186029050600085600081518110612fce57fe5b602002602001015190506000865187600081518110612fe957fe5b60200260200101510290506000600190505b87518110156130425761302761302161301a848b8581518110611b9457fe5b8a51610ed0565b88612e94565b9150613038888281518110611b1157fe5b9250600101612ffb565b5086858151811061304f57fe5b60200260200101518203915060006130678788610ed0565b9050600061309361308761307f8461069b8988610ed0565b6103e8610ed0565b8a8981518110611b9457fe5b905060006130ae6130a761307f8b89612e94565b869061174c565b90506000806130ca6130c0868661174c565b61069b8d8661174c565b905060005b60ff81101561314a578192506130ff6130ec86611bf48586610ed0565b61069b8e612c6488611bf4886002610ed0565b91508282111561312857600183830311613123575097506104949650505050505050565b613142565b600182840311613142575097506104949650505050505050565b6001016130cf565b506131566101426124c1565b5050505050505050949350505050565b6000613178631c74c91760e11b6109a6565b82148061054457506131906350dd6ed960e01b6109a6565b909114919050565b600080828060200190518101906131af9190613fbe565b909590945092505050565b6000806131c988886001611af1565b905060006131eb826131e5876131df818b610ef4565b906128d4565b90612922565b905060006131fb8a8a848b612fb6565b9050600061320f828b8b81518110612b1f57fe5b90506000805b8b5181101561324e576132448c828151811061322d57fe5b60200260200101518361174c90919063ffffffff16565b9150600101613215565b506000613277828d8d8151811061326157fe5b6020026020010151611c8d90919063ffffffff16565b905060006132848261399c565b905060006132928583612922565b905060006132a08683610ef4565b90506132c16132ba83670de0b6b3a76400008e9003612778565b829061174c565b99505050505050505050509695505050505050565b6000818060200190518101906105fc9190613f91565b606060006132fa8484611c8d565b9050600085516001600160401b038111801561331557600080fd5b5060405190808252806020026020018201604052801561333f578160200160208202803683370190505b50905060005b8651811015613393576133748388838151811061335e57fe5b602002602001015161277890919063ffffffff16565b82828151811061338057fe5b6020908102919091010152600101613345565b5095945050505050565b60606000828060200190518101906131af9190613f4b565b600080805b86518110156133dc576133d287828151811061322d57fe5b91506001016133ba565b50600085516001600160401b03811180156133f657600080fd5b50604051908082528060200260200182016040528015613420578160200160208202803683370190505b5090506000805b88518110156134e7576000613458858b848151811061344257fe5b60200260200101516128d490919063ffffffff16565b90506134948a838151811061346957fe5b60200260200101516131df8b858151811061348057fe5b60200260200101518d8681518110612b1f57fe5b8483815181106134a057fe5b6020026020010181815250506134dc6134d5828685815181106134bf57fe5b602002602001015161292290919063ffffffff16565b849061174c565b925050600101613427565b50600088516001600160401b038111801561350157600080fd5b5060405190808252806020026020018201604052801561352b578160200160208202803683370190505b50905060005b89518110156135f657600084828151811061354857fe5b60200260200101518411156135af5760006135716135658661399c565b8d858151811061335e57fe5b90506000613585828d8681518110612b1f57fe5b90506135a661359f82670de0b6b3a76400008d90036128d4565b839061174c565b925050506135c6565b8982815181106135bb57fe5b602002602001015190505b6135d6818c8481518110612b1f57fe5b8383815181106135e257fe5b602090810291909101015250600101613531565b5060006136058b8b6001611af1565b905060006136158c846000611af1565b905060006136238284611c8d565b90506136386136318261399c565b8b90612922565b9d9c50505050505050505050505050565b600080805b86518110156136705761366687828151811061322d57fe5b915060010161364e565b50600085516001600160401b038111801561368a57600080fd5b506040519080825280602002602001820160405280156136b4578160200160208202803683370190505b5090506000805b88518110156137485760006136d6858b848151811061326157fe5b90506137128a83815181106136e757fe5b6020026020010151612d218b85815181106136fe57fe5b60200260200101518d8681518110612be357fe5b84838151811061371e57fe5b60200260200101818152505061373d6134d58286858151811061335e57fe5b9250506001016136bb565b50600088516001600160401b038111801561376257600080fd5b5060405190808252806020026020018201604052801561378c578160200160208202803683370190505b50905060005b895181101561384d576000838583815181106137aa57fe5b602002602001015111156138065760006137cf61356586670de0b6b3a7640000610ef4565b905060006137e3828d8681518110612b1f57fe5b90506137fd61359f82670de0b6b3a76400008d9003612778565b9250505061381d565b89828151811061381257fe5b602002602001015190505b61382d818c8481518110612be357fe5b83838151811061383957fe5b602090810291909101015250600101613792565b50600061385c8b8b6001611af1565b9050600061386c8c846000611af1565b9050600061387a8284611c8d565b9050670de0b6b3a76400008111156138af576138a18a670de0b6b3a763ffff198301612778565b975050505050505050611239565b6000975050505050505050611239565b6000806138ce88886001611af1565b905060006138e4826131e5876131df818b61174c565b905060006138f48a8a848b612fb6565b9050600061391e8a8a8151811061390757fe5b602002602001015183610ef490919063ffffffff16565b90506000805b8b518110156139465761393c8c828151811061322d57fe5b9150600101613924565b506000613959828d8d8151811061326157fe5b905060006139668261399c565b905060006139748583612922565b905060006139828683610ef4565b90506132c16132ba83670de0b6b3a76400008e90036128d4565b6000670de0b6b3a764000082106139b4576000610544565b50670de0b6b3a76400000390565b80356108e381614411565b600082601f8301126139dd578081fd5b813560206139f26139ed836143f4565b6143d1565b8281528181019085830183850287018401881015613a0e578586fd5b855b85811015613a2c57813584529284019290840190600101613a10565b5090979650505050505050565b600082601f830112613a49578081fd5b81516020613a596139ed836143f4565b8281528181019085830183850287018401881015613a75578586fd5b855b85811015613a2c57815184529284019290840190600101613a77565b600082601f830112613aa3578081fd5b81356001600160401b03811115613ab657fe5b613ac9601f8201601f19166020016143d1565b818152846020838601011115613add578283fd5b816020850160208301379081016020019190915292915050565b8035600281106108e357600080fd5b6000610120808385031215613b19578182fd5b613b22816143d1565b915050613b2e82613af7565b8152613b3c602083016139c2565b6020820152613b4d604083016139c2565b6040820152606082013560608201526080820135608082015260a082013560a0820152613b7c60c083016139c2565b60c0820152613b8d60e083016139c2565b60e0820152610100808301356001600160401b03811115613bad57600080fd5b613bb985828601613a93565b82840152505092915050565b600060208284031215613bd6578081fd5b81356105fc81614411565b60008060408385031215613bf3578081fd5b8235613bfe81614411565b91506020830135613c0e81614411565b809150509250929050565b600080600060608486031215613c2d578081fd5b8335613c3881614411565b92506020840135613c4881614411565b929592945050506040919091013590565b600080600080600080600060e0888a031215613c73578485fd5b8735613c7e81614411565b96506020880135613c8e81614411565b95506040880135945060608801359350608088013560ff81168114613cb1578384fd5b9699959850939692959460a0840135945060c09093013592915050565b60008060408385031215613ce0578182fd5b8235613ceb81614411565b946020939093013593505050565b600080600060608486031215613d0d578081fd5b83516001600160401b0380821115613d23578283fd5b818601915086601f830112613d36578283fd5b81516020613d466139ed836143f4565b82815281810190858301838502870184018c1015613d62578788fd5b8796505b84871015613d8d578051613d7981614411565b835260019690960195918301918301613d66565b5091890151919750909350505080821115613da6578283fd5b50613db386828701613a39565b925050604084015190509250925092565b600060208284031215613dd5578081fd5b81356105fc81614426565b600060208284031215613df1578081fd5b81516105fc81614426565b600080600080600080600060e0888a031215613e16578081fd5b873596506020880135613e2881614411565b95506040880135613e3881614411565b945060608801356001600160401b0380821115613e53578283fd5b613e5f8b838c016139cd565b955060808a0135945060a08a0135935060c08a0135915080821115613e82578283fd5b50613e8f8a828b01613a93565b91505092959891949750929550565b600060208284031215613eaf578081fd5b81356001600160e01b0319811681146105fc578182fd5b600060208284031215613ed7578081fd5b81516105fc81614411565b60008060408385031215613ef4578182fd5b8235613eff81614411565b915060208301356001600160401b03811115613f19578182fd5b613f2585828601613a93565b9150509250929050565b600060208284031215613f40578081fd5b81516105fc81614434565b600080600060608486031215613f5f578081fd5b8351613f6a81614434565b60208501519093506001600160401b03811115613f85578182fd5b613db386828701613a39565b60008060408385031215613fa3578182fd5b8251613fae81614434565b6020939093015192949293505050565b600080600060608486031215613fd2578081fd5b8351613fdd81614434565b602085015160409095015190969495509392505050565b60008060408385031215614006578182fd5b825161401181614434565b60208401519092506001600160401b0381111561402c578182fd5b613f2585828601613a39565b6000806000806080858703121561404d578182fd5b84356001600160401b0380821115614063578384fd5b61406f88838901613b06565b95506020870135915080821115614084578384fd5b50614091878288016139cd565b949794965050505060408301359260600135919050565b6000806000606084860312156140bc578081fd5b83356001600160401b038111156140d1578182fd5b6140dd86828701613b06565b9660208601359650604090950135949350505050565b600060208284031215614104578081fd5b5035919050565b6000806040838503121561411d578182fd5b50508035926020909101359150565b60008060008060808587031215614141578182fd5b845193506020850151925060408501519150606085015161416181614411565b939692955090935050565b6000815180845260208085019450808401835b8381101561419b5781518752958201959082019060010161417f565b509495945050505050565b60008151808452815b818110156141cb576020818501810151868301820152016141af565b818111156141dc5782602083870101525b50601f01601f19169290920160200192915050565b9182526001600160e01b031916602082015260240190565b6000828483379101908152919050565b61190160f01b81526002810192909252602282015260420190565b6001600160a01b0391909116815260200190565b60006040825261425b604083018561416c565b8281036020840152611239818561416c565b901515815260200190565b92151583526020830191909152604082015260600190565b90815260200190565b9283526001600160a01b03918216602084015216604082015260600190565b9586526001600160a01b0394851660208701529290931660408501526060840152608083019190915260a082015260c00190565b9485526020850193909352604084019190915260608301526001600160a01b0316608082015260a00190565b60008382526040602083015261049460408301846141a6565b9182526001600160a01b0316602082015260400190565b93845260ff9290921660208401526040830152606082015260800190565b6000602082526105fc60208301846141a6565b600083825260406020830152610494604083018461416c565b9283529015156020830152604082015260600190565b93845260208401929092526040830152606082015260800190565b60ff91909116815260200190565b6040518181016001600160401b03811182821017156143ec57fe5b604052919050565b60006001600160401b0382111561440757fe5b5060209081020190565b6001600160a01b038116811461055b57600080fd5b801515811461055b57600080fd5b6003811061055b57600080fdfeddf252ad1be2c89b69c2b068fc378daa952ba7f163c4a11628f55a4df523b3efa2646970667358221220f17bbb5781b34fdeacc058f586233bae3c588fb99efc65680dcb76ede85b856364736f6c63430007060033",
  "linkReferences": {},
  "deployedLinkReferences": {}
}