{
  "_format": "hh-sol-artifact-1",
  "contractName": "WAVEBar",
  "sourceName": "contracts/veWAVE.sol",
  "abi": [
    {
      "inputs": [
        {
          "internalType": "contract IERC20",
          "name": "_vestingToken",
          "type": "address"
        }
      ],
      "stateMutability": "nonpayable",
      "type": "constructor"
    },
    {
      "anonymous": false,
      "inputs": [
        {
          "indexed": true,
          "internalType": "address",
          "name": "owner",
          "type": "address"
        },
        {
          "indexed": true,
          "internalType": "address",
          "name": "spender",
          "type": "address"
        },
        {
          "indexed": false,
          "internalType": "uint256",
          "name": "value",
          "type": "uint256"
        }
      ],
      "name": "Approval",
      "type": "event"
    },
    {
      "anonymous": false,
      "inputs": [
        {
          "indexed": true,
          "internalType": "address",
          "name": "user",
          "type": "address"
        },
        {
          "indexed": false,
          "internalType": "uint256",
          "name": "vestingInAmount",
          "type": "uint256"
        },
        {
          "indexed": false,
          "internalType": "uint256",
          "name": "mintedAmount",
          "type": "uint256"
        }
      ],
      "name": "Enter",
      "type": "event"
    },
    {
      "anonymous": false,
      "inputs": [
        {
          "indexed": true,
          "internalType": "address",
          "name": "user",
          "type": "address"
        },
        {
          "indexed": false,
          "internalType": "uint256",
          "name": "vestingOutAmount",
          "type": "uint256"
        },
        {
          "indexed": false,
          "internalType": "uint256",
          "name": "burnedAmount",
          "type": "uint256"
        }
      ],
      "name": "Leave",
      "type": "event"
    },
    {
      "anonymous": false,
      "inputs": [
        {
          "indexed": false,
          "internalType": "uint256",
          "name": "amount",
          "type": "uint256"
        }
      ],
      "name": "ShareRevenue",
      "type": "event"
    },
    {
      "anonymous": false,
      "inputs": [
        {
          "indexed": true,
          "internalType": "address",
          "name": "from",
          "type": "address"
        },
        {
          "indexed": true,
          "internalType": "address",
          "name": "to",
          "type": "address"
        },
        {
          "indexed": false,
          "internalType": "uint256",
          "name": "value",
          "type": "uint256"
        }
      ],
      "name": "Transfer",
      "type": "event"
    },
    {
      "inputs": [
        {
          "internalType": "address",
          "name": "owner",
          "type": "address"
        },
        {
          "internalType": "address",
          "name": "spender",
          "type": "address"
        }
      ],
      "name": "allowance",
      "outputs": [
        {
          "internalType": "uint256",
          "name": "",
          "type": "uint256"
        }
      ],
      "stateMutability": "view",
      "type": "function"
    },
    {
      "inputs": [
        {
          "internalType": "address",
          "name": "spender",
          "type": "address"
        },
        {
          "internalType": "uint256",
          "name": "amount",
          "type": "uint256"
        }
      ],
      "name": "approve",
      "outputs": [
        {
          "internalType": "bool",
          "name": "",
          "type": "bool"
        }
      ],
      "stateMutability": "nonpayable",
      "type": "function"
    },
    {
      "inputs": [
        {
          "internalType": "address",
          "name": "account",
          "type": "address"
        }
      ],
      "name": "balanceOf",
      "outputs": [
        {
          "internalType": "uint256",
          "name": "",
          "type": "uint256"
        }
      ],
      "stateMutability": "view",
      "type": "function"
    },
    {
      "inputs": [],
      "name": "decimals",
      "outputs": [
        {
          "internalType": "uint8",
          "name": "",
          "type": "uint8"
        }
      ],
      "stateMutability": "view",
      "type": "function"
    },
    {
      "inputs": [
        {
          "internalType": "address",
          "name": "spender",
          "type": "address"
        },
        {
          "internalType": "uint256",
          "name": "subtractedValue",
          "type": "uint256"
        }
      ],
      "name": "decreaseAllowance",
      "outputs": [
        {
          "internalType": "bool",
          "name": "",
          "type": "bool"
        }
      ],
      "stateMutability": "nonpayable",
      "type": "function"
    },
    {
      "inputs": [
        {
          "internalType": "uint256",
          "name": "_amount",
          "type": "uint256"
        }
      ],
      "name": "enter",
      "outputs": [],
      "stateMutability": "nonpayable",
      "type": "function"
    },
    {
      "inputs": [
        {
          "internalType": "address",
          "name": "spender",
          "type": "address"
        },
        {
          "internalType": "uint256",
          "name": "addedValue",
          "type": "uint256"
        }
      ],
      "name": "increaseAllowance",
      "outputs": [
        {
          "internalType": "bool",
          "name": "",
          "type": "bool"
        }
      ],
      "stateMutability": "nonpayable",
      "type": "function"
    },
    {
      "inputs": [
        {
          "internalType": "uint256",
          "name": "_shareOfveWAVE",
          "type": "uint256"
        }
      ],
      "name": "leave",
      "outputs": [],
      "stateMutability": "nonpayable",
      "type": "function"
    },
    {
      "inputs": [],
      "name": "name",
      "outputs": [
        {
          "internalType": "string",
          "name": "",
          "type": "string"
        }
      ],
      "stateMutability": "view",
      "type": "function"
    },
    {
      "inputs": [
        {
          "internalType": "uint256",
          "name": "_amount",
          "type": "uint256"
        }
      ],
      "name": "shareRevenue",
      "outputs": [],
      "stateMutability": "nonpayable",
      "type": "function"
    },
    {
      "inputs": [],
      "name": "symbol",
      "outputs": [
        {
          "internalType": "string",
          "name": "",
          "type": "string"
        }
      ],
      "stateMutability": "view",
      "type": "function"
    },
    {
      "inputs": [],
      "name": "totalSupply",
      "outputs": [
        {
          "internalType": "uint256",
          "name": "",
          "type": "uint256"
        }
      ],
      "stateMutability": "view",
      "type": "function"
    },
    {
      "inputs": [
        {
          "internalType": "address",
          "name": "recipient",
          "type": "address"
        },
        {
          "internalType": "uint256",
          "name": "amount",
          "type": "uint256"
        }
      ],
      "name": "transfer",
      "outputs": [
        {
          "internalType": "bool",
          "name": "",
          "type": "bool"
        }
      ],
      "stateMutability": "nonpayable",
      "type": "function"
    },
    {
      "inputs": [
        {
          "internalType": "address",
          "name": "sender",
          "type": "address"
        },
        {
          "internalType": "address",
          "name": "recipient",
          "type": "address"
        },
        {
          "internalType": "uint256",
          "name": "amount",
          "type": "uint256"
        }
      ],
      "name": "transferFrom",
      "outputs": [
        {
          "internalType": "bool",
          "name": "",
          "type": "bool"
        }
      ],
      "stateMutability": "nonpayable",
      "type": "function"
    },
    {
      "inputs": [],
      "name": "vestingToken",
      "outputs": [
        {
          "internalType": "contract IERC20",
          "name": "",
          "type": "address"
        }
      ],
      "stateMutability": "view",
      "type": "function"
    }
  ],
  "bytecode": "0x60806040523480156200001157600080fd5b5060405162002402380380620024028339818101604052810190620000379190620001e6565b6040518060400160405280601881526020017f566f74696e67457363726f776564576176654c656e67746800000000000000008152506040518060400160405280600681526020017f76655741564500000000000000000000000000000000000000000000000000008152508160039080519060200190620000bb9291906200011f565b508060049080519060200190620000d49291906200011f565b50505080600560006101000a81548173ffffffffffffffffffffffffffffffffffffffff021916908373ffffffffffffffffffffffffffffffffffffffff16021790555050620002e4565b8280546200012d9062000260565b90600052602060002090601f0160209004810192826200015157600085556200019d565b82601f106200016c57805160ff19168380011785556200019d565b828001600101855582156200019d579182015b828111156200019c5782518255916020019190600101906200017f565b5b509050620001ac9190620001b0565b5090565b5b80821115620001cb576000816000905550600101620001b1565b5090565b600081519050620001e081620002ca565b92915050565b600060208284031215620001ff57620001fe620002c5565b5b60006200020f84828501620001cf565b91505092915050565b6000620002258262000240565b9050919050565b6000620002398262000218565b9050919050565b600073ffffffffffffffffffffffffffffffffffffffff82169050919050565b600060028204905060018216806200027957607f821691505b6020821081141562000290576200028f62000296565b5b50919050565b7f4e487b7100000000000000000000000000000000000000000000000000000000600052602260045260246000fd5b600080fd5b620002d5816200022c565b8114620002e157600080fd5b50565b61210e80620002f46000396000f3fe608060405234801561001057600080fd5b50600436106100f55760003560e01c80633950935111610097578063a457c2d711610066578063a457c2d714610288578063a59f3e0c146102b8578063a9059cbb146102d4578063dd62ed3e14610304576100f5565b806339509351146101ee57806367dfd4c91461021e57806370a082311461023a57806395d89b411461026a576100f5565b806318160ddd116100d357806318160ddd1461016457806319d152fa1461018257806323b872dd146101a0578063313ce567146101d0576100f5565b806306fdde03146100fa578063095ea7b314610118578063139e41e414610148575b600080fd5b610102610334565b60405161010f919061191e565b60405180910390f35b610132600480360381019061012d91906115c4565b6103c6565b60405161013f91906118e8565b60405180910390f35b610162600480360381019061015d9190611631565b6103e4565b005b61016c6104d0565b6040516101799190611a80565b60405180910390f35b61018a6104da565b6040516101979190611903565b60405180910390f35b6101ba60048036038101906101b59190611571565b610500565b6040516101c791906118e8565b60405180910390f35b6101d86105f8565b6040516101e59190611ac4565b60405180910390f35b610208600480360381019061020391906115c4565b610601565b60405161021591906118e8565b60405180910390f35b61023860048036038101906102339190611631565b6106ad565b005b610254600480360381019061024f9190611504565b61089d565b6040516102619190611a80565b60405180910390f35b6102726108e5565b60405161027f919061191e565b60405180910390f35b6102a2600480360381019061029d91906115c4565b610977565b6040516102af91906118e8565b60405180910390f35b6102d260048036038101906102cd9190611631565b610a62565b005b6102ee60048036038101906102e991906115c4565b610c76565b6040516102fb91906118e8565b60405180910390f35b61031e60048036038101906103199190611531565b610c94565b60405161032b9190611a80565b60405180910390f35b60606003805461034390611cce565b80601f016020809104026020016040519081016040528092919081815260200182805461036f90611cce565b80156103bc5780601f10610391576101008083540402835291602001916103bc565b820191906000526020600020905b81548152906001019060200180831161039f57829003601f168201915b5050505050905090565b60006103da6103d3610d1b565b8484610d23565b6001905092915050565b600560009054906101000a900473ffffffffffffffffffffffffffffffffffffffff1673ffffffffffffffffffffffffffffffffffffffff166323b872dd3330846040518463ffffffff1660e01b815260040161044393929190611888565b602060405180830381600087803b15801561045d57600080fd5b505af1158015610471573d6000803e3d6000fd5b505050506040513d601f19601f820116820180604052508101906104959190611604565b507f8345132cbbbde83001e783cdfdd5190dedc863ae82cae7abe302b22322a60274816040516104c59190611a80565b60405180910390a150565b6000600254905090565b600560009054906101000a900473ffffffffffffffffffffffffffffffffffffffff1681565b600061050d848484610eee565b6000600160008673ffffffffffffffffffffffffffffffffffffffff1673ffffffffffffffffffffffffffffffffffffffff1681526020019081526020016000206000610558610d1b565b73ffffffffffffffffffffffffffffffffffffffff1673ffffffffffffffffffffffffffffffffffffffff168152602001908152602001600020549050828110156105d8576040517f08c379a00000000000000000000000000000000000000000000000000000000081526004016105cf906119c0565b60405180910390fd5b6105ec856105e4610d1b565b858403610d23565b60019150509392505050565b60006012905090565b60006106a361060e610d1b565b84846001600061061c610d1b565b73ffffffffffffffffffffffffffffffffffffffff1673ffffffffffffffffffffffffffffffffffffffff16815260200190815260200160002060008873ffffffffffffffffffffffffffffffffffffffff1673ffffffffffffffffffffffffffffffffffffffff1681526020019081526020016000205461069e9190611afb565b610d23565b6001905092915050565b600081111561089a576000600560009054906101000a900473ffffffffffffffffffffffffffffffffffffffff1673ffffffffffffffffffffffffffffffffffffffff166370a08231306040518263ffffffff1660e01b8152600401610713919061186d565b60206040518083038186803b15801561072b57600080fd5b505afa15801561073f573d6000803e3d6000fd5b505050506040513d601f19601f82011682018060405250810190610763919061165e565b9050600061076f6104d0565b905060008183856107809190611b82565b61078a9190611b51565b9050610796338561116f565b600560009054906101000a900473ffffffffffffffffffffffffffffffffffffffff1673ffffffffffffffffffffffffffffffffffffffff1663a9059cbb33836040518363ffffffff1660e01b81526004016107f39291906118bf565b602060405180830381600087803b15801561080d57600080fd5b505af1158015610821573d6000803e3d6000fd5b505050506040513d601f19601f820116820180604052508101906108459190611604565b503373ffffffffffffffffffffffffffffffffffffffff167f0f0f7f8153c6d63a5696720d4cc434e56bb5ac1cf8c791ed9c180defb6e92153828660405161088e929190611a9b565b60405180910390a25050505b50565b60008060008373ffffffffffffffffffffffffffffffffffffffff1673ffffffffffffffffffffffffffffffffffffffff168152602001908152602001600020549050919050565b6060600480546108f490611cce565b80601f016020809104026020016040519081016040528092919081815260200182805461092090611cce565b801561096d5780601f106109425761010080835404028352916020019161096d565b820191906000526020600020905b81548152906001019060200180831161095057829003601f168201915b5050505050905090565b60008060016000610986610d1b565b73ffffffffffffffffffffffffffffffffffffffff1673ffffffffffffffffffffffffffffffffffffffff16815260200190815260200160002060008573ffffffffffffffffffffffffffffffffffffffff1673ffffffffffffffffffffffffffffffffffffffff16815260200190815260200160002054905082811015610a43576040517f08c379a0000000000000000000000000000000000000000000000000000000008152600401610a3a90611a40565b60405180910390fd5b610a57610a4e610d1b565b85858403610d23565b600191505092915050565b6000811115610c73576000600560009054906101000a900473ffffffffffffffffffffffffffffffffffffffff1673ffffffffffffffffffffffffffffffffffffffff166370a08231306040518263ffffffff1660e01b8152600401610ac8919061186d565b60206040518083038186803b158015610ae057600080fd5b505afa158015610af4573d6000803e3d6000fd5b505050506040513d601f19601f82011682018060405250810190610b18919061165e565b90506000610b246104d0565b9050600560009054906101000a900473ffffffffffffffffffffffffffffffffffffffff1673ffffffffffffffffffffffffffffffffffffffff166323b872dd3330866040518463ffffffff1660e01b8152600401610b8593929190611888565b602060405180830381600087803b158015610b9f57600080fd5b505af1158015610bb3573d6000803e3d6000fd5b505050506040513d601f19601f82011682018060405250810190610bd79190611604565b50600080821480610be85750600083145b15610bf557839050610c15565b6000838386610c049190611b82565b610c0e9190611b51565b9050809150505b610c1f3382611346565b3373ffffffffffffffffffffffffffffffffffffffff167f5087fbec8bdd9b358f62d89babb5f4dd44f8576230a9520c90e3407d6f4dd1fb8583604051610c67929190611a9b565b60405180910390a25050505b50565b6000610c8a610c83610d1b565b8484610eee565b6001905092915050565b6000600160008473ffffffffffffffffffffffffffffffffffffffff1673ffffffffffffffffffffffffffffffffffffffff16815260200190815260200160002060008373ffffffffffffffffffffffffffffffffffffffff1673ffffffffffffffffffffffffffffffffffffffff16815260200190815260200160002054905092915050565b600033905090565b600073ffffffffffffffffffffffffffffffffffffffff168373ffffffffffffffffffffffffffffffffffffffff161415610d93576040517f08c379a0000000000000000000000000000000000000000000000000000000008152600401610d8a90611a20565b60405180910390fd5b600073ffffffffffffffffffffffffffffffffffffffff168273ffffffffffffffffffffffffffffffffffffffff161415610e03576040517f08c379a0000000000000000000000000000000000000000000000000000000008152600401610dfa90611980565b60405180910390fd5b80600160008573ffffffffffffffffffffffffffffffffffffffff1673ffffffffffffffffffffffffffffffffffffffff16815260200190815260200160002060008473ffffffffffffffffffffffffffffffffffffffff1673ffffffffffffffffffffffffffffffffffffffff168152602001908152602001600020819055508173ffffffffffffffffffffffffffffffffffffffff168373ffffffffffffffffffffffffffffffffffffffff167f8c5be1e5ebec7d5bd14f71427d1e84f3dd0314c0f7b2291e5b200ac8c7c3b92583604051610ee19190611a80565b60405180910390a3505050565b600073ffffffffffffffffffffffffffffffffffffffff168373ffffffffffffffffffffffffffffffffffffffff161415610f5e576040517f08c379a0000000000000000000000000000000000000000000000000000000008152600401610f5590611a00565b60405180910390fd5b600073ffffffffffffffffffffffffffffffffffffffff168273ffffffffffffffffffffffffffffffffffffffff161415610fce576040517f08c379a0000000000000000000000000000000000000000000000000000000008152600401610fc590611940565b60405180910390fd5b610fd98383836114a6565b60008060008573ffffffffffffffffffffffffffffffffffffffff1673ffffffffffffffffffffffffffffffffffffffff1681526020019081526020016000205490508181101561105f576040517f08c379a0000000000000000000000000000000000000000000000000000000008152600401611056906119a0565b60405180910390fd5b8181036000808673ffffffffffffffffffffffffffffffffffffffff1673ffffffffffffffffffffffffffffffffffffffff16815260200190815260200160002081905550816000808573ffffffffffffffffffffffffffffffffffffffff1673ffffffffffffffffffffffffffffffffffffffff16815260200190815260200160002060008282546110f29190611afb565b925050819055508273ffffffffffffffffffffffffffffffffffffffff168473ffffffffffffffffffffffffffffffffffffffff167fddf252ad1be2c89b69c2b068fc378daa952ba7f163c4a11628f55a4df523b3ef846040516111569190611a80565b60405180910390a36111698484846114ab565b50505050565b600073ffffffffffffffffffffffffffffffffffffffff168273ffffffffffffffffffffffffffffffffffffffff1614156111df576040517f08c379a00000000000000000000000000000000000000000000000000000000081526004016111d6906119e0565b60405180910390fd5b6111eb826000836114a6565b60008060008473ffffffffffffffffffffffffffffffffffffffff1673ffffffffffffffffffffffffffffffffffffffff16815260200190815260200160002054905081811015611271576040517f08c379a000000000000000000000000000000000000000000000000000000000815260040161126890611960565b60405180910390fd5b8181036000808573ffffffffffffffffffffffffffffffffffffffff1673ffffffffffffffffffffffffffffffffffffffff1681526020019081526020016000208190555081600260008282546112c89190611bdc565b92505081905550600073ffffffffffffffffffffffffffffffffffffffff168373ffffffffffffffffffffffffffffffffffffffff167fddf252ad1be2c89b69c2b068fc378daa952ba7f163c4a11628f55a4df523b3ef8460405161132d9190611a80565b60405180910390a3611341836000846114ab565b505050565b600073ffffffffffffffffffffffffffffffffffffffff168273ffffffffffffffffffffffffffffffffffffffff1614156113b6576040517f08c379a00000000000000000000000000000000000000000000000000000000081526004016113ad90611a60565b60405180910390fd5b6113c2600083836114a6565b80600260008282546113d49190611afb565b92505081905550806000808473ffffffffffffffffffffffffffffffffffffffff1673ffffffffffffffffffffffffffffffffffffffff16815260200190815260200160002060008282546114299190611afb565b925050819055508173ffffffffffffffffffffffffffffffffffffffff16600073ffffffffffffffffffffffffffffffffffffffff167fddf252ad1be2c89b69c2b068fc378daa952ba7f163c4a11628f55a4df523b3ef8360405161148e9190611a80565b60405180910390a36114a2600083836114ab565b5050565b505050565b505050565b6000813590506114bf81612093565b92915050565b6000815190506114d4816120aa565b92915050565b6000813590506114e9816120c1565b92915050565b6000815190506114fe816120c1565b92915050565b60006020828403121561151a57611519611d8d565b5b6000611528848285016114b0565b91505092915050565b6000806040838503121561154857611547611d8d565b5b6000611556858286016114b0565b9250506020611567858286016114b0565b9150509250929050565b60008060006060848603121561158a57611589611d8d565b5b6000611598868287016114b0565b93505060206115a9868287016114b0565b92505060406115ba868287016114da565b9150509250925092565b600080604083850312156115db576115da611d8d565b5b60006115e9858286016114b0565b92505060206115fa858286016114da565b9150509250929050565b60006020828403121561161a57611619611d8d565b5b6000611628848285016114c5565b91505092915050565b60006020828403121561164757611646611d8d565b5b6000611655848285016114da565b91505092915050565b60006020828403121561167457611673611d8d565b5b6000611682848285016114ef565b91505092915050565b61169481611c10565b82525050565b6116a381611c22565b82525050565b6116b281611c65565b82525050565b60006116c382611adf565b6116cd8185611aea565b93506116dd818560208601611c9b565b6116e681611d92565b840191505092915050565b60006116fe602383611aea565b915061170982611da3565b604082019050919050565b6000611721602283611aea565b915061172c82611df2565b604082019050919050565b6000611744602283611aea565b915061174f82611e41565b604082019050919050565b6000611767602683611aea565b915061177282611e90565b604082019050919050565b600061178a602883611aea565b915061179582611edf565b604082019050919050565b60006117ad602183611aea565b91506117b882611f2e565b604082019050919050565b60006117d0602583611aea565b91506117db82611f7d565b604082019050919050565b60006117f3602483611aea565b91506117fe82611fcc565b604082019050919050565b6000611816602583611aea565b91506118218261201b565b604082019050919050565b6000611839601f83611aea565b91506118448261206a565b602082019050919050565b61185881611c4e565b82525050565b61186781611c58565b82525050565b6000602082019050611882600083018461168b565b92915050565b600060608201905061189d600083018661168b565b6118aa602083018561168b565b6118b7604083018461184f565b949350505050565b60006040820190506118d4600083018561168b565b6118e1602083018461184f565b9392505050565b60006020820190506118fd600083018461169a565b92915050565b600060208201905061191860008301846116a9565b92915050565b6000602082019050818103600083015261193881846116b8565b905092915050565b60006020820190508181036000830152611959816116f1565b9050919050565b6000602082019050818103600083015261197981611714565b9050919050565b6000602082019050818103600083015261199981611737565b9050919050565b600060208201905081810360008301526119b98161175a565b9050919050565b600060208201905081810360008301526119d98161177d565b9050919050565b600060208201905081810360008301526119f9816117a0565b9050919050565b60006020820190508181036000830152611a19816117c3565b9050919050565b60006020820190508181036000830152611a39816117e6565b9050919050565b60006020820190508181036000830152611a5981611809565b9050919050565b60006020820190508181036000830152611a798161182c565b9050919050565b6000602082019050611a95600083018461184f565b92915050565b6000604082019050611ab0600083018561184f565b611abd602083018461184f565b9392505050565b6000602082019050611ad9600083018461185e565b92915050565b600081519050919050565b600082825260208201905092915050565b6000611b0682611c4e565b9150611b1183611c4e565b9250827fffffffffffffffffffffffffffffffffffffffffffffffffffffffffffffffff03821115611b4657611b45611d00565b5b828201905092915050565b6000611b5c82611c4e565b9150611b6783611c4e565b925082611b7757611b76611d2f565b5b828204905092915050565b6000611b8d82611c4e565b9150611b9883611c4e565b9250817fffffffffffffffffffffffffffffffffffffffffffffffffffffffffffffffff0483118215151615611bd157611bd0611d00565b5b828202905092915050565b6000611be782611c4e565b9150611bf283611c4e565b925082821015611c0557611c04611d00565b5b828203905092915050565b6000611c1b82611c2e565b9050919050565b60008115159050919050565b600073ffffffffffffffffffffffffffffffffffffffff82169050919050565b6000819050919050565b600060ff82169050919050565b6000611c7082611c77565b9050919050565b6000611c8282611c89565b9050919050565b6000611c9482611c2e565b9050919050565b60005b83811015611cb9578082015181840152602081019050611c9e565b83811115611cc8576000848401525b50505050565b60006002820490506001821680611ce657607f821691505b60208210811415611cfa57611cf9611d5e565b5b50919050565b7f4e487b7100000000000000000000000000000000000000000000000000000000600052601160045260246000fd5b7f4e487b7100000000000000000000000000000000000000000000000000000000600052601260045260246000fd5b7f4e487b7100000000000000000000000000000000000000000000000000000000600052602260045260246000fd5b600080fd5b6000601f19601f8301169050919050565b7f45524332303a207472616e7366657220746f20746865207a65726f206164647260008201527f6573730000000000000000000000000000000000000000000000000000000000602082015250565b7f45524332303a206275726e20616d6f756e7420657863656564732062616c616e60008201527f6365000000000000000000000000000000000000000000000000000000000000602082015250565b7f45524332303a20617070726f766520746f20746865207a65726f20616464726560008201527f7373000000000000000000000000000000000000000000000000000000000000602082015250565b7f45524332303a207472616e7366657220616d6f756e742065786365656473206260008201527f616c616e63650000000000000000000000000000000000000000000000000000602082015250565b7f45524332303a207472616e7366657220616d6f756e742065786365656473206160008201527f6c6c6f77616e6365000000000000000000000000000000000000000000000000602082015250565b7f45524332303a206275726e2066726f6d20746865207a65726f2061646472657360008201527f7300000000000000000000000000000000000000000000000000000000000000602082015250565b7f45524332303a207472616e736665722066726f6d20746865207a65726f20616460008201527f6472657373000000000000000000000000000000000000000000000000000000602082015250565b7f45524332303a20617070726f76652066726f6d20746865207a65726f2061646460008201527f7265737300000000000000000000000000000000000000000000000000000000602082015250565b7f45524332303a2064656372656173656420616c6c6f77616e63652062656c6f7760008201527f207a65726f000000000000000000000000000000000000000000000000000000602082015250565b7f45524332303a206d696e7420746f20746865207a65726f206164647265737300600082015250565b61209c81611c10565b81146120a757600080fd5b50565b6120b381611c22565b81146120be57600080fd5b50565b6120ca81611c4e565b81146120d557600080fd5b5056fea2646970667358221220090fd645068bdfe3dc877908237cf41671f65dc129812b059beff3b9bb129b4864736f6c63430008070033",
  "linkReferences": {},
  "deployedLinkReferences": {}
}