{
  "_format": "hh-sol-artifact-1",
  "contractName": "AaveLinearPoolFactory",
  "sourceName": "contracts/AaveLinearPoolFactory.sol",
  "abi": [
    {
      "inputs": [
        {
          "internalType": "contract IVault",
          "name": "vault",
          "type": "address"
        },
        {
          "internalType": "address",
          "name": "defaultPoolOwner",
          "type": "address"
        }
      ],
      "stateMutability": "nonpayable",
      "type": "constructor"
    },
    {
      "anonymous": false,
      "inputs": [
        {
          "indexed": true,
          "internalType": "address",
          "name": "pool",
          "type": "address"
        }
      ],
      "name": "PoolCreated",
      "type": "event"
    },
    {
      "inputs": [
        {
          "internalType": "string",
          "name": "name",
          "type": "string"
        },
        {
          "internalType": "string",
          "name": "symbol",
          "type": "string"
        },
        {
          "internalType": "contract IERC20",
          "name": "mainToken",
          "type": "address"
        },
        {
          "internalType": "contract IERC20",
          "name": "wrappedToken",
          "type": "address"
        },
        {
          "internalType": "uint256",
          "name": "upperTarget",
          "type": "uint256"
        },
        {
          "internalType": "uint256",
          "name": "swapFeePercentage",
          "type": "uint256"
        }
      ],
      "name": "create",
      "outputs": [
        {
          "internalType": "contract LinearPool",
          "name": "",
          "type": "address"
        }
      ],
      "stateMutability": "nonpayable",
      "type": "function"
    },
    {
      "inputs": [],
      "name": "getCreationCode",
      "outputs": [
        {
          "internalType": "bytes",
          "name": "",
          "type": "bytes"
        }
      ],
      "stateMutability": "view",
      "type": "function"
    },
    {
      "inputs": [],
      "name": "getCreationCodeContracts",
      "outputs": [
        {
          "internalType": "address",
          "name": "contractA",
          "type": "address"
        },
        {
          "internalType": "address",
          "name": "contractB",
          "type": "address"
        }
      ],
      "stateMutability": "view",
      "type": "function"
    },
    {
      "inputs": [],
      "name": "getDefaultPoolOwner",
      "outputs": [
        {
          "internalType": "address",
          "name": "",
          "type": "address"
        }
      ],
      "stateMutability": "view",
      "type": "function"
    },
    {
      "inputs": [],
      "name": "getPauseConfiguration",
      "outputs": [
        {
          "internalType": "uint256",
          "name": "pauseWindowDuration",
          "type": "uint256"
        },
        {
          "internalType": "uint256",
          "name": "bufferPeriodDuration",
          "type": "uint256"
        }
      ],
      "stateMutability": "view",
      "type": "function"
    },
    {
      "inputs": [],
      "name": "getVault",
      "outputs": [
        {
          "internalType": "contract IVault",
          "name": "",
          "type": "address"
        }
      ],
      "stateMutability": "view",
      "type": "function"
    },
    {
      "inputs": [
        {
          "internalType": "address",
          "name": "pool",
          "type": "address"
        }
      ],
      "name": "isPoolFromFactory",
      "outputs": [
        {
          "internalType": "bool",
          "name": "",
          "type": "bool"
        }
      ],
      "stateMutability": "view",
      "type": "function"
    }
  ],
  "bytecode": "0x6101406040523480156200001257600080fd5b5060405162005b1038038062005b108339810160408190526200003591620001e6565b81604051806020016200004890620001d8565b601f1982820381018352601f9091011660405280518390829060006002820460a081905280830360e08190528185529091508362000092816200011c602090811b620002f917901c565b60601b6001600160601b0319166080528285018051838252620000c1826200011c602090811b620002f917901c565b606090811b6001600160601b031990811660c0529690935290529690961b909116610100525050600080546001600160a01b0319166001600160a01b03929092169190911790555050506276a700420161012052506200023d565b80517f602038038060206000396000f3fefefefefefefefefefefefefefefefefefefe808352600091602081018484f090845291506200016a6001600160a01b03831615156101ac62000170565b50919050565b816200018157620001818162000185565b5050565b62461bcd60e51b6000908152602060045260076024526642414c23000030600a808404818106603090810160081b95839006959095019082900491820690940160101b939093010160c81b604452606490fd5b6150768062000a9a83390190565b60008060408385031215620001f9578182fd5b8251620002068162000224565b6020840151909250620002198162000224565b809150509250929050565b6001600160a01b03811681146200023a57600080fd5b50565b60805160601c60a05160c05160601c60e0516101005160601c610120516107fb6200029f6000398061018652806101af5250806102d752508061035352508061015d52806103cf52508061037452508061013c52806103ab52506107fb6000f3fe608060405234801561001057600080fd5b506004361061007c5760003560e01c80636634b7531161005b5780636634b753146100cb57806374dcc7a4146100eb5780637ff52b011461010b5780638d928af8146101135761007c565b8062c194db14610081578063174481fa1461009f5780632da47c40146100b5575b600080fd5b61008961011b565b6040516100969190610711565b60405180910390f35b6100a761013a565b6040516100969291906106ec565b6100bd610180565b60405161009692919061079f565b6100de6100d93660046105d9565b6101ea565b6040516100969190610706565b6100fe6100f93660046105f5565b610208565b60405161009691906106d8565b6100fe6102c6565b6100fe6102d5565b60606101356040518060200160405280600081525061034b565b905090565b7f00000000000000000000000000000000000000000000000000000000000000007f00000000000000000000000000000000000000000000000000000000000000009091565b600080427f00000000000000000000000000000000000000000000000000000000000000008110156101dc57807f000000000000000000000000000000000000000000000000000000000000000003925062278d0091506101e5565b60009250600091505b509091565b6001600160a01b031660009081526001602052604090205460ff1690565b6000806000610215610180565b9150915060006102636102266102d5565b8b8b8b8b8b8b8a8a6102366102c6565b60405160200161024f9a99989796959493929190610724565b604051602081830303815290604052610424565b9050806001600160a01b0316638129fc1c6040518163ffffffff1660e01b8152600401600060405180830381600087803b1580156102a057600080fd5b505af11580156102b4573d6000803e3d6000fd5b50929c9b505050505050505050505050565b6000546001600160a01b031690565b7f000000000000000000000000000000000000000000000000000000000000000090565b80517f602038038060206000396000f3fefefefefefefefefefefefefefefefefefefe808352600091602081018484f090845291506103456001600160a01b03831615156101ac610487565b50919050565b8051604080517f00000000000000000000000000000000000000000000000000000000000000007f0000000000000000000000000000000000000000000000000000000000000000818101858101848101602090810190965280855293957f00000000000000000000000000000000000000000000000000000000000000009592947f000000000000000000000000000000000000000000000000000000000000000094938801866000828a3c846000888301883c5060208981019089850101610416818386610499565b505050505050505050919050565b600080610430836104d7565b6001600160a01b0381166000818152600160208190526040808320805460ff19169092179091555192935090917f83a48fbcfc991335314e74d0496aab6a1987e992ddc85dddbcc4d6dd6ef2e9fc9190a292915050565b816104955761049581610511565b5050565b5b602081106104b9578151835260209283019290910190601f190161049a565b905182516020929092036101000a6000190180199091169116179052565b6000806104e38361034b565b905060008151602083016000f090506001600160a01b03811661050a573d6000803e3d6000fd5b9392505050565b62461bcd60e51b6000908152602060045260076024526642414c23000030600a808404818106603090810160081b95839006959095019082900491820690940160101b939093010160c81b604452606490fd5b600082601f830112610574578081fd5b813567ffffffffffffffff8082111561058957fe5b604051601f8301601f1916810160200182811182821017156105a757fe5b6040528281528483016020018610156105be578384fd5b82602086016020830137918201602001929092529392505050565b6000602082840312156105ea578081fd5b813561050a816107ad565b60008060008060008060c0878903121561060d578182fd5b863567ffffffffffffffff80821115610624578384fd5b6106308a838b01610564565b97506020890135915080821115610645578384fd5b5061065289828a01610564565b9550506040870135610663816107ad565b93506060870135610673816107ad565b9598949750929560808101359460a0909101359350915050565b60008151808452815b818110156106b257602081850181015186830182015201610696565b818111156106c35782602083870101525b50601f01601f19169290920160200192915050565b6001600160a01b0391909116815260200190565b6001600160a01b0392831681529116602082015260400190565b901515815260200190565b60006020825261050a602083018461068d565b6001600160a01b038b811682526101406020830181905260009161074a8483018e61068d565b9150838203604085015261075e828d61068d565b9a811660608501529889166080840152505060a081019590955260c085019390935260e0840191909152610100830152909116610120909101529392505050565b918252602082015260400190565b6001600160a01b03811681146107c257600080fd5b5056fea2646970667358221220be970d9deadd714a351f5fd25ffb213227866b09f43de5ac3b862f9cf5e4d1c964736f6c634300070600336102c06040527f6e71edae12b1b97f4d1f60370fef10105fa2faae0126114a169c64845d6126c9610120523480156200003757600080fd5b5060405162005076380380620050768339810160408190526200005a9162000bbe565b898989898989898989898960008a8a620000768b8b30620004e1565b6040805160038082526080820190925290602082016060803683370190505089898989828289898d8280604051806040016040528060018152602001603160f81b81525085858a336001600160a01b031660001b806080818152505050806001600160a01b031660a0816001600160a01b031660601b815250505081600390805190602001906200010992919062000a2b565b5080516200011f90600490602084019062000a2b565b505060058054601260ff1990911617905550815160209283012060c052805191012060e052507f8b73c3c69bb8fe3d512ecc4cf759cc79239f7b179b0ffacaa9a75d522b39400f6101005260601b6001600160601b03191661014052506200019290506276a700831115610194620005b0565b620001a662278d00821115610195620005b0565b4290910161016081905201610180528551620001c8906002111560c8620005b0565b620001e2620001d6620005c5565b8751111560c9620005b0565b620001f886620005ca60201b620013761760201c565b6200020384620005d6565b6040516309b2760f60e01b81526000906001600160a01b038c16906309b2760f9062000234908d9060040162000d56565b602060405180830381600087803b1580156200024f57600080fd5b505af115801562000264573d6000803e3d6000fd5b505050506040513d601f19601f820116820180604052508101906200028a919062000ba5565b604051633354e3e960e11b81529091506001600160a01b038c16906366a9c7d290620002bf9084908b908b9060040162000cbc565b600060405180830381600087803b158015620002da57600080fd5b505af1158015620002ef573d6000803e3d6000fd5b50505050806101a081815250505050505050505050505050866001600160a01b03166101c0816001600160a01b031660601b81525050856001600160a01b03166101e0816001600160a01b031660601b8152505060008060006200035b8a8a306200066260201b60201c565b610200819052610220839052610240829052919450925090506200037f8a62000758565b610260526200038e8962000758565b610280526000620003a18b828b6200082c565b5050505050505050505050505050856001600160a01b031663b4dcfc776040518163ffffffff1660e01b815260040160206040518083038186803b158015620003e957600080fd5b505afa158015620003fe573d6000803e3d6000fd5b505050506040513d601f19601f8201168201806040525081019062000424919062000b7f565b6001600160a01b03166102a0816001600160a01b031660601b81525050620004d1866001600160a01b0316634800d97f6040518163ffffffff1660e01b815260040160206040518083038186803b1580156200047f57600080fd5b505afa15801562000494573d6000803e3d6000fd5b505050506040513d601f19601f82011682018060405250810190620004ba919062000b7f565b6001600160a01b03898116911614610208620005b0565b5050505050505050505062000d98565b606060008080620004f487878762000662565b60408051600380825260808201909252939650919450925060208201606080368337019050509350868484815181106200052a57fe5b60200260200101906001600160a01b031690816001600160a01b031681525050858483815181106200055857fe5b60200260200101906001600160a01b031690816001600160a01b031681525050848482815181106200058657fe5b60200260200101906001600160a01b031690816001600160a01b0316815250505050509392505050565b81620005c157620005c181620008da565b5050565b600390565b80620005c1816200092d565b620005eb64e8d4a5100082101560cb620005b0565b6200060367016345785d8a000082111560ca620005b0565b620006228160c0600854620009ba60201b62001380179092919060201c565b6008556040517fa9ba3ffe0b6c366b81232caab38605a0699ad5398d6cce76f91ee809e322dafc906200065790839062000d6b565b60405180910390a150565b6000806000846001600160a01b0316866001600160a01b03161015620006eb57836001600160a01b0316856001600160a01b03161015620006ae5750600091506001905060026200074f565b836001600160a01b0316866001600160a01b03161015620006da5750600091506002905060016200074f565b50600191506002905060006200074f565b846001600160a01b0316846001600160a01b03161015620007175750600291506001905060006200074f565b856001600160a01b0316846001600160a01b03161015620007435750600291506000905060016200074f565b50600191506000905060025b93509350939050565b60006001600160a01b0382163014156200077c5750670de0b6b3a764000062000827565b6000826001600160a01b031663313ce5676040518163ffffffff1660e01b815260040160206040518083038186803b158015620007b857600080fd5b505afa158015620007cd573d6000803e3d6000fd5b505050506040513d601f19601f82011682018060405250810190620007f3919062000c99565b60ff169050600062000812601283620009cf60201b620013961760201c565b905080600a0a670de0b6b3a764000002925050505b919050565b6200083d8183111561014c620005b0565b620008556001600160601b0382111561014d620005b0565b6200089062000871826060620009e760201b620013ac1760201c565b62000889846000620009e760201b620013ac1760201c565b17620009eb565b826001600160a01b03167fd0e27a0d0c2cb09280fa5e4487315455b32afcdcf012dc35b6ef2a0e3c4d12808383604051620008cd92919062000d74565b60405180910390a2505050565b62461bcd60e51b6000908152602060045260076024526642414c23000030600a808404818106603090810160081b95839006959095019082900491820690940160101b939093010160c81b604452606490fd5b6002815110156200093e57620009b7565b6000816000815181106200094e57fe5b602002602001015190506000600190505b8251811015620009b45760008382815181106200097857fe5b60200260200101519050620009a9816001600160a01b0316846001600160a01b0316106065620005b060201b60201c565b91506001016200095f565b50505b50565b6001600160401b03811b1992909216911b1790565b6000620009e1838311156001620005b0565b50900390565b1b90565b62000a0a81600060085462000a1060201b620013b0179092919060201c565b60085550565b6001600160c01b03828116821b90821b198416179392505050565b828054600181600116156101000203166002900490600052602060002090601f01602090048101928262000a63576000855562000aae565b82601f1062000a7e57805160ff191683800117855562000aae565b8280016001018555821562000aae579182015b8281111562000aae57825182559160200191906001019062000a91565b5062000abc92915062000ac0565b5090565b5b8082111562000abc576000815560010162000ac1565b8051620008278162000d82565b600082601f83011262000af5578081fd5b81516001600160401b038082111562000b0a57fe5b6040516020601f8401601f191682018101838111838210171562000b2a57fe5b604052838252858401810187101562000b41578485fd5b8492505b8383101562000b64578583018101518284018201529182019162000b45565b8383111562000b7557848185840101525b5095945050505050565b60006020828403121562000b91578081fd5b815162000b9e8162000d82565b9392505050565b60006020828403121562000bb7578081fd5b5051919050565b6000806000806000806000806000806101408b8d03121562000bde578586fd5b62000be98b62000ad7565b60208c0151909a506001600160401b038082111562000c06578788fd5b62000c148e838f0162000ae4565b9a5060408d015191508082111562000c2a578788fd5b5062000c398d828e0162000ae4565b98505062000c4a60608c0162000ad7565b965062000c5a60808c0162000ad7565b955060a08b0151945060c08b0151935060e08b015192506101008b0151915062000c886101208c0162000ad7565b90509295989b9194979a5092959850565b60006020828403121562000cab578081fd5b815160ff8116811462000b9e578182fd5b60006060820185835260206060818501528186518084526080860191508288019350845b8181101562000d075784516001600160a01b03168352938301939183019160010162000ce0565b505084810360408601528551808252908201925081860190845b8181101562000d485782516001600160a01b03168552938301939183019160010162000d21565b509298975050505050505050565b602081016003831062000d6557fe5b91905290565b90815260200190565b918252602082015260400190565b6001600160a01b0381168114620009b757600080fd5b60805160a05160601c60c05160e05161010051610120516101405160601c61016051610180516101a0516101c05160601c6101e05160601c61020051610220516102405161026051610280516102a05160601c61410462000f72600039806122e052508061147a525080611416528061222c5250806107225280610ab152806114a252806125555280612705528061285c52806129ce5280612b6a5280612cc15250806108b25280610a7752806114385280611ab55280612521528061268a52806126d152806127e65280612828528061299a5280612af45280612b365280612c4b5280612c8d525080610af25280610cbb5280610da252806112f752806114e35280612171528061258c528061273c52806128935280612a055280612ba15280612cf85280612edd5280612f1552508061134a52806115fe52806116ca528061225252806124d6528061261652806129505280612a805250806108d65280610f2352806115b552806116815280611aeb52806121f1528061249752806125b8528061277252806129115280612a315280612bd7525080610853525080611874525080611850525080610e62525080610fd952508061197a5250806119bc52508061199b525080610e3e525080610dc852506141046000f3fe608060405234801561001057600080fd5b50600436106102535760003560e01c8063679aefce1161014657806395d89b41116100c3578063d505accf11610087578063d505accf146104b2578063d5c096c4146104c5578063dd62ed3e146104d8578063de82cd34146104eb578063f174e241146104f3578063f5431aa8146104fb57610253565b806395d89b41146104695780639f11080e14610471578063a457c2d714610484578063a9059cbb14610497578063aaabadc5146104aa57610253565b806382687a561161010a57806382687a561461042b578063851c1bb31461043357806387ec681714610446578063893d20e8146104595780638d928af81461046157610253565b8063679aefce146103d457806370a08231146103dc57806374f3b009146103ef5780637ecebe00146104105780638129fc1c1461042357610253565b80633644e515116101d45780634de046d5116101985780634de046d51461036d57806350dd6ed91461038257806355c67628146103955780636028bfd41461039d57806363fe3b56146103be57610253565b80633644e5151461032f57806338e9922e1461033757806338fff2d01461034a57806339509351146103525780634d64cd741461036557610253565b806318160ddd1161021b57806318160ddd146102d35780631c0de051146102db5780631dd746ea146102f257806323b872dd14610307578063313ce5671461031a57610253565b806301ec954a1461025857806306fdde0314610281578063095ea7b31461029657806316b8d6ff146102b657806316c38b3c146102be575b600080fd5b61026b610266366004613ba6565b610503565b6040516102789190613e8e565b60405180910390f35b610289610673565b6040516102789190614021565b6102a96102a43660046138fd565b610709565b6040516102789190613e6b565b61026b610720565b6102d16102cc3660046139f4565b610744565b005b61026b610758565b6102e361075e565b60405161027893929190613e76565b6102fa610787565b6040516102789190613e33565b6102a9610315366004613848565b610796565b61032261080c565b604051610278919061405b565b61026b610815565b6102d1610345366004613cc0565b61081f565b61026b610851565b6102a96103603660046138fd565b610875565b61026b6108b0565b6103756108d4565b6040516102789190613e1f565b6102d1610390366004613b13565b6108f8565b61026b610916565b6103b06103ab366004613a2c565b610927565b604051610278929190614034565b6103c661095e565b60405161027892919061404d565b61026b61098c565b61026b6103ea3660046137f4565b610b3a565b6104026103fd366004613a2c565b610b59565b604051610278929190613e46565b61026b61041e3660046137f4565b610bd7565b6102d1610bf2565b61026b610da0565b61026b610441366004613acf565b610dc4565b6103b0610454366004613a2c565b610e16565b610375610e3c565b610375610e60565b610289610e84565b6102d161047f366004613cf0565b610ee5565b6102a96104923660046138fd565b610f4f565b6102a96104a53660046138fd565b610f8d565b610375610f9a565b6102d16104c0366004613888565b610fa4565b6104026104d3366004613a2c565b6110ed565b61026b6104e6366004613810565b61121d565b61026b61125a565b610375611348565b61026b61136c565b60008460800151610530610515610e60565b6001600160a01b0316336001600160a01b03161460cd6113cb565b61054561053b610851565b82146101f46113cb565b61054d6113d9565b6105676003851080156105605750600384105b60646113cb565b60006105716113ee565b905061057d868261151c565b60008061058861095e565b91509150600060405180606001604052806105a1610916565b815260208101859052604001839052905060008a5160018111156105c157fe5b1415610625576105e88a60600151858a815181106105db57fe5b602002602001015161157d565b60608b015260006105fa8b8b84611589565b905061061981868a8151811061060c57fe5b6020026020010151611650565b9650505050505061066a565b6106398a606001518589815181106105db57fe5b60608b0152600061064b8b8b8461165c565b905061061981868b8151811061065d57fe5b6020026020010151611711565b50949350505050565b60038054604080516020601f60026000196101006001881615020190951694909404938401819004810282018101909252828152606093909290918301828280156106ff5780601f106106d4576101008083540402835291602001916106ff565b820191906000526020600020905b8154815290600101906020018083116106e257829003601f168201915b5050505050905090565b600061071633848461171d565b5060015b92915050565b7f000000000000000000000000000000000000000000000000000000000000000090565b61074c611785565b610755816117b3565b50565b60025490565b600080600061076b611831565b15925061077661184e565b9150610780611872565b9050909192565b60606107916113ee565b905090565b6000806107a3853361121d565b90506107c7336001600160a01b03871614806107bf5750838210155b61019e6113cb565b6107d2858585611896565b336001600160a01b038616148015906107ed57506000198114155b156107ff576107ff853385840361171d565b60019150505b9392505050565b60055460ff1690565b6000610791611976565b60008061082a61095e565b9150915061084361083b8383611a13565b61014f6113cb565b61084c83611b2b565b505050565b7f000000000000000000000000000000000000000000000000000000000000000090565b3360008181526001602090815260408083206001600160a01b038716845290915281205490916107169185906108ab9086611b44565b61171d565b7f000000000000000000000000000000000000000000000000000000000000000090565b7f000000000000000000000000000000000000000000000000000000000000000090565b610900611785565b6109086113d9565b6109128282611b56565b5050565b6008546000906107919060c0611c1d565b6000606061093d8651610938611c2b565b611c30565b61095289898989898989611c3d611ce1611d42565b97509795505050505050565b600080600061096b611e64565b9050610978816000611e6a565b9250610985816060611e6a565b9150509091565b600080610997610851565b905060006109a3610e60565b6001600160a01b031663f94d4668836040518263ffffffff1660e01b81526004016109ce9190613e8e565b60006040518083038186803b1580156109e657600080fd5b505afa1580156109fa573d6000803e3d6000fd5b505050506040513d6000823e601f3d908101601f19168201604052610a229190810190613928565b50915050610a3781610a326113ee565b61151c565b600080610a4261095e565b9150915060006040518060600160405280610a5b610916565b81526020018481526020018381525090506000610ae7610aae867f000000000000000000000000000000000000000000000000000000000000000081518110610aa057fe5b602002602001015184611e7c565b867f000000000000000000000000000000000000000000000000000000000000000081518110610ada57fe5b6020026020010151611edd565b9050610b2f610b28867f000000000000000000000000000000000000000000000000000000000000000081518110610b1b57fe5b6020026020010151611ee9565b8290611ef5565b965050505050505090565b6001600160a01b0381166000908152602081905260409020545b919050565b60608088610b68610515610e60565b610b7361053b610851565b6000610b7d6113ee565b9050610b89888261151c565b6000806000610b9e8e8e8e8e8e8e8a8f611c3d565b925092509250610bae8d84611f4c565b610bb88285611ce1565b610bc28185611ce1565b909550935050505b5097509795505050505050565b6001600160a01b031660009081526006602052604090205490565b6000610bfc610851565b90506000610c08610e60565b6001600160a01b031663f94d4668836040518263ffffffff1660e01b8152600401610c339190613e8e565b60006040518083038186803b158015610c4b57600080fd5b505afa158015610c5f573d6000803e3d6000fd5b505050506040513d6000823e601f3d908101601f19168201604052610c879190810190613928565b50506040805160038082526080820190925291925060009190602082016060803683370190505090506001600160701b03817f000000000000000000000000000000000000000000000000000000000000000081518110610ce457fe5b60200260200101818152505060006040518060800160405280610d0685611f56565b8152602001838152602001604051806020016040528060008152508152602001600015158152509050610d37610e60565b6001600160a01b031663b95cac28853030856040518563ffffffff1660e01b8152600401610d689493929190613eb6565b600060405180830381600087803b158015610d8257600080fd5b505af1158015610d96573d6000803e3d6000fd5b5050505050505050565b7f000000000000000000000000000000000000000000000000000000000000000090565b60007f000000000000000000000000000000000000000000000000000000000000000082604051602001610df9929190613ddc565b604051602081830303815290604052805190602001209050919050565b60006060610e278651610938611c2b565b61095289898989898989611f59611f77611d42565b7f000000000000000000000000000000000000000000000000000000000000000090565b7f000000000000000000000000000000000000000000000000000000000000000090565b60048054604080516020601f60026000196101006001881615020190951694909404938401819004810282018101909252828152606093909290918301828280156106ff5780601f106106d4576101008083540402835291602001916106ff565b610eed611785565b600080610ef861095e565b91509150610f0961083b8383611a13565b610f1e610f168585611a13565b6101576113cb565b610f497f00000000000000000000000000000000000000000000000000000000000000008585611fd8565b50505050565b600080610f5c338561121d565b9050808310610f7657610f713385600061171d565b610f83565b610f83338585840361171d565b5060019392505050565b6000610716338484611896565b6000610791612069565b610fb28442111560d16113cb565b6001600160a01b0387166000908152600660209081526040808320549051909291611009917f0000000000000000000000000000000000000000000000000000000000000000918c918c918c9188918d9101613f73565b604051602081830303815290604052805190602001209050600061102c826120e3565b90506000600182888888604051600081526020016040526040516110539493929190614003565b6020604051602081039080840390855afa158015611075573d6000803e3d6000fd5b5050604051601f19015191506110b790506001600160a01b038216158015906110af57508b6001600160a01b0316826001600160a01b0316145b6101f86113cb565b6001600160a01b038b1660009081526006602052604090206001850190556110e08b8b8b61171d565b5050505050505050505050565b606080886110fc610515610e60565b61110761053b610851565b60006111116113ee565b905061111b610758565b6111cd5760008061112f8d8d8d868b6120ff565b9150915061114861113e6121b3565b83101560cc6113cb565b61115a60006111556121b3565b6121b8565b61116d8b6111666121b3565b84036121b8565b6111778184611f77565b80611180611c2b565b67ffffffffffffffff8111801561119657600080fd5b506040519080825280602002602001820160405280156111c0578160200160208202803683370190505b5095509550505050610bca565b6111d7888261151c565b60008060006111ec8e8e8e8e8e8e8a8f611f59565b9250925092506111fc8c846121b8565b6112068285611f77565b6112108185611ce1565b9095509350610bca915050565b6000611227610e60565b6001600160a01b0316826001600160a01b03161415611249575060001961071a565b61125383836121c2565b905061071a565b600080611265610e60565b6001600160a01b031663f94d466861127b610851565b6040518263ffffffff1660e01b81526004016112979190613e8e565b60006040518083038186803b1580156112af57600080fd5b505afa1580156112c3573d6000803e3d6000fd5b505050506040513d6000823e601f3d908101601f191682016040526112eb9190810190613928565b509150506000611336827f00000000000000000000000000000000000000000000000000000000000000008151811061132057fe5b6020026020010151611331306121ed565b61157d565b9050611341816122c7565b9250505090565b7f000000000000000000000000000000000000000000000000000000000000000090565b60006107916122db565b806109128161238e565b67ffffffffffffffff811b1992909216911b1790565b60006113a68383111560016113cb565b50900390565b1b90565b6001600160c01b03828116821b90821b198416179392505050565b816109125761091281612407565b6113ec6113e4611831565b6101926113cb565b565b60408051600380825260808201909252606091600091906020820184803683370190505090507f0000000000000000000000000000000000000000000000000000000000000000817f00000000000000000000000000000000000000000000000000000000000000008151811061146157fe5b60200260200101818152505061149f6114786122db565b7f00000000000000000000000000000000000000000000000000000000000000009061245a565b817f0000000000000000000000000000000000000000000000000000000000000000815181106114cb57fe5b602002602001018181525050670de0b6b3a7640000817f00000000000000000000000000000000000000000000000000000000000000008151811061150c57fe5b6020908102919091010152905090565b60005b611527611c2b565b81101561084c5761155e83828151811061153d57fe5b602002602001015183838151811061155157fe5b602002602001015161245a565b83828151811061156a57fe5b602090810291909101015260010161151f565b6000610805838361245a565b60208301516000906001600160a01b03163014156115b3576115ac848484612490565b9050610805565b7f00000000000000000000000000000000000000000000000000000000000000006001600160a01b031684602001516001600160a01b031614156115fc576115ac84848461260f565b7f00000000000000000000000000000000000000000000000000000000000000006001600160a01b031684602001516001600160a01b03161415611645576115ac84848461276b565b610805610135612407565b600061080583836128c2565b60408301516000906001600160a01b031630141561167f576115ac84848461290a565b7f00000000000000000000000000000000000000000000000000000000000000006001600160a01b031684604001516001600160a01b031614156116c8576115ac848484612a79565b7f00000000000000000000000000000000000000000000000000000000000000006001600160a01b031684604001516001600160a01b03161415611645576115ac848484612bd0565b60006108058383611ef5565b6001600160a01b0380841660008181526001602090815260408083209487168084529490915290819020849055517f8c5be1e5ebec7d5bd14f71427d1e84f3dd0314c0f7b2291e5b200ac8c7c3b92590611778908590613e8e565b60405180910390a3505050565b600061179c6000356001600160e01b031916610dc4565b90506107556117ab8233612d27565b6101916113cb565b80156117d3576117ce6117c461184e565b42106101936113cb565b6117e8565b6117e86117de611872565b42106101a96113cb565b6007805460ff19168215151790556040517f9e3a5e37224532dea67b89face185703738a228a6e8a23dee546960180d3be6490611826908390613e6b565b60405180910390a150565b600061183b611872565b42118061079157505060075460ff161590565b7f000000000000000000000000000000000000000000000000000000000000000090565b7f000000000000000000000000000000000000000000000000000000000000000090565b6118ad6001600160a01b03841615156101986113cb565b6118c46001600160a01b03831615156101996113cb565b6118cf83838361084c565b6001600160a01b0383166000908152602081905260409020546118f590826101a0612e10565b6001600160a01b0380851660009081526020819052604080822093909355908416815220546119249082611b44565b6001600160a01b0380841660008181526020819052604090819020939093559151908516907fddf252ad1be2c89b69c2b068fc378daa952ba7f163c4a11628f55a4df523b3ef90611778908590613e8e565b60007f00000000000000000000000000000000000000000000000000000000000000007f00000000000000000000000000000000000000000000000000000000000000007f00000000000000000000000000000000000000000000000000000000000000006119e3612e26565b306040516020016119f8959493929190613fa7565b60405160208183030381529060405280519060200120905090565b600080611a1e610851565b90506000611a2a610e60565b6001600160a01b031663f94d4668836040518263ffffffff1660e01b8152600401611a559190613e8e565b60006040518083038186803b158015611a6d57600080fd5b505afa158015611a81573d6000803e3d6000fd5b505050506040513d6000823e601f3d908101601f19168201604052611aa99190810190613928565b509150506000611b0f827f000000000000000000000000000000000000000000000000000000000000000081518110611ade57fe5b60200260200101516113317f00000000000000000000000000000000000000000000000000000000000000006121ed565b9050858110158015611b215750848111155b9695505050505050565b611b33611785565b611b3b6113d9565b61075581612e2a565b600082820161080584821015836113cb565b6000611b60610851565b90506000611b6c610e60565b6001600160a01b031663b05f8e4883866040518363ffffffff1660e01b8152600401611b99929190613fec565b60806040518083038186803b158015611bb157600080fd5b505afa158015611bc5573d6000803e3d6000fd5b505050506040513d601f19601f82011682018060405250810190611be99190613d11565b604051630639cdb560e21b81529094506001600160a01b03851693506318e736d49250610d68915085908790600401613fd3565b1c67ffffffffffffffff1690565b600390565b61091281831460676113cb565b60006060806000611c4d85612e95565b90506000818015611c5a57fe5b14611c6f57611c6a61014e612407565b611cd2565b611c77612eab565b611c818986612ebf565b9094509250611c8e611c2b565b67ffffffffffffffff81118015611ca457600080fd5b50604051908082528060200260200182016040528015611cce578160200160208202803683370190505b5091505b50985098509895505050505050565b60005b611cec611c2b565b81101561084c57611d23838281518110611d0257fe5b6020026020010151838381518110611d1657fe5b60200260200101516128c2565b838281518110611d2f57fe5b6020908102919091010152600101611ce4565b333014611e00576000306001600160a01b0316600036604051611d66929190613df4565b6000604051808303816000865af19150503d8060008114611da3576040519150601f19603f3d011682016040523d82523d6000602084013e611da8565b606091505b505090508060008114611db757fe5b60046000803e6000516001600160e01b0319166343adbafb60e01b8114611de2573d6000803e3d6000fd5b506020600460003e604060205260243d03602460403e601c3d016000f35b6000611e0a6113ee565b9050611e16878261151c565b600080611e2d8c8c8c8c8c8c898d8d63ffffffff16565b5091509150611e4081848663ffffffff16565b8051601f1982018390526343adbafb603f1983015260200260231982016044820181fd5b60085490565b1c6bffffffffffffffffffffffff1690565b60008160200151831015611eb55781516020830151600091611ea1918690039061245a565b9050611ead8482611396565b91505061071a565b81604001518311611ec757508161071a565b81516040830151600091611ea19186039061245a565b60006108058383611b44565b6001600160701b030390565b6000611f0482151560046113cb565b82611f115750600061071a565b670de0b6b3a764000083810290611f3490858381611f2b57fe5b041460056113cb565b826001820381611f4057fe5b0460010191505061071a565b6109128282612f46565b90565b6000606080611f6961014e612407565b985098509895505050505050565b60005b611f82611c2b565b81101561084c57611fb9838281518110611f9857fe5b6020026020010151838381518110611fac57fe5b6020026020010151611ef5565b838281518110611fc557fe5b6020908102919091010152600101611f7a565b611fe78183111561014c6113cb565b6120026bffffffffffffffffffffffff82111561014d6113cb565b6120216120108260606113ac565b61201b8460006113ac565b17613002565b826001600160a01b03167fd0e27a0d0c2cb09280fa5e4487315455b32afcdcf012dc35b6ef2a0e3c4d1280838360405161205c92919061404d565b60405180910390a2505050565b6000612073610e60565b6001600160a01b031663aaabadc56040518163ffffffff1660e01b815260040160206040518083038186803b1580156120ab57600080fd5b505afa1580156120bf573d6000803e3d6000fd5b505050506040513d601f19601f820116820180604052508101906107919190613af7565b60006120ed611976565b82604051602001610df9929190613e04565b6000606061210b6113d9565b6121226001600160a01b03871630146101566113cb565b6121396001600160a01b03861630146101566113cb565b604080516003808252608082019092526001600160701b039160009190602082016060803683370190505090506001600160701b03817f00000000000000000000000000000000000000000000000000000000000000008151811061219a57fe5b6020908102919091010152909890975095505050505050565b600090565b6109128282613017565b6001600160a01b03918216600090815260016020908152604080832093909416825291909152205490565b60007f00000000000000000000000000000000000000000000000000000000000000006001600160a01b0316826001600160a01b0316141561225057507f0000000000000000000000000000000000000000000000000000000000000000610b54565b7f00000000000000000000000000000000000000000000000000000000000000006001600160a01b0316826001600160a01b0316141561229c576122956114786122db565b9050610b54565b6001600160a01b0382163014156122bc5750670de0b6b3a7640000610b54565b610b54610135612407565b600061071a826122d5610758565b90611396565b6000807f00000000000000000000000000000000000000000000000000000000000000006001600160a01b031663d15e00536123156108d4565b6040518263ffffffff1660e01b81526004016123319190613e1f565b60206040518083038186803b15801561234957600080fd5b505afa15801561235d573d6000803e3d6000fd5b505050506040513d601f19601f820116820180604052508101906123819190613cd8565b633b9aca00900492915050565b60028151101561239d57610755565b6000816000815181106123ac57fe5b602002602001015190506000600190505b825181101561084c5760008382815181106123d457fe5b602002602001015190506123fd816001600160a01b0316846001600160a01b03161060656113cb565b91506001016123bd565b62461bcd60e51b6000908152602060045260076024526642414c23000030600a808404818106603090810160081b95839006959095019082900491820690940160101b939093010160c81b604452606490fd5b600082820261247e84158061247757508385838161247457fe5b04145b60036113cb565b670de0b6b3a764000090049392505050565b60006125167f00000000000000000000000000000000000000000000000000000000000000006001600160a01b031685604001516001600160a01b0316148061250e57507f00000000000000000000000000000000000000000000000000000000000000006001600160a01b031685604001516001600160a01b0316145b6101356113cb565b6126078460600151847f00000000000000000000000000000000000000000000000000000000000000008151811061254a57fe5b6020026020010151857f00000000000000000000000000000000000000000000000000000000000000008151811061257e57fe5b60200260200101516125b5877f000000000000000000000000000000000000000000000000000000000000000081518110610b1b57fe5b867f00000000000000000000000000000000000000000000000000000000000000006001600160a01b03168a604001516001600160a01b0316146125fb576130a56125ff565b6131055b63ffffffff16565b949350505050565b600061266b7f00000000000000000000000000000000000000000000000000000000000000006001600160a01b031685604001516001600160a01b0316148061250e575060408501516001600160a01b031630146101356113cb565b60408401516001600160a01b031630146126c6576126c18460600151847f0000000000000000000000000000000000000000000000000000000000000000815181106126b357fe5b60200260200101518461316e565b612607565b6126078460600151847f0000000000000000000000000000000000000000000000000000000000000000815181106126fa57fe5b6020026020010151857f00000000000000000000000000000000000000000000000000000000000000008151811061272e57fe5b6020026020010151612765877f000000000000000000000000000000000000000000000000000000000000000081518110610b1b57fe5b8661319e565b60006127c77f00000000000000000000000000000000000000000000000000000000000000006001600160a01b031685604001516001600160a01b0316148061250e575060408501516001600160a01b031630146101356113cb565b60408401516001600160a01b0316301461281d576126c18460600151847f00000000000000000000000000000000000000000000000000000000000000008151811061280f57fe5b602002602001015184613204565b6126078460600151847f00000000000000000000000000000000000000000000000000000000000000008151811061285157fe5b6020026020010151857f00000000000000000000000000000000000000000000000000000000000000008151811061288557fe5b60200260200101516128bc877f000000000000000000000000000000000000000000000000000000000000000081518110610b1b57fe5b86613244565b60006128d182151560046113cb565b826128de5750600061071a565b670de0b6b3a7640000838102906128f890858381611f2b57fe5b82818161290157fe5b0491505061071a565b600061298f7f00000000000000000000000000000000000000000000000000000000000000006001600160a01b031685602001516001600160a01b0316148061250e57507f00000000000000000000000000000000000000000000000000000000000000006001600160a01b031685602001516001600160a01b0316146101356113cb565b6126078460600151847f0000000000000000000000000000000000000000000000000000000000000000815181106129c357fe5b6020026020010151857f0000000000000000000000000000000000000000000000000000000000000000815181106129f757fe5b6020026020010151612a2e877f000000000000000000000000000000000000000000000000000000000000000081518110610b1b57fe5b867f00000000000000000000000000000000000000000000000000000000000000006001600160a01b03168a602001516001600160a01b031614612a74576132ab6125ff565b613302565b6000612ad57f00000000000000000000000000000000000000000000000000000000000000006001600160a01b031685602001516001600160a01b0316148061250e575060208501516001600160a01b031630146101356113cb565b60208401516001600160a01b03163014612b2b576126c18460600151847f000000000000000000000000000000000000000000000000000000000000000081518110612b1d57fe5b60200260200101518461336c565b6126078460600151847f000000000000000000000000000000000000000000000000000000000000000081518110612b5f57fe5b6020026020010151857f000000000000000000000000000000000000000000000000000000000000000081518110612b9357fe5b6020026020010151612bca877f000000000000000000000000000000000000000000000000000000000000000081518110610b1b57fe5b86613396565b6000612c2c7f00000000000000000000000000000000000000000000000000000000000000006001600160a01b031685602001516001600160a01b0316148061250e575060208501516001600160a01b031630146101356113cb565b60208401516001600160a01b03163014612c82576126c18460600151847f000000000000000000000000000000000000000000000000000000000000000081518110612c7457fe5b6020026020010151846133e5565b6126078460600151847f000000000000000000000000000000000000000000000000000000000000000081518110612cb657fe5b6020026020010151857f000000000000000000000000000000000000000000000000000000000000000081518110612cea57fe5b6020026020010151612d21877f000000000000000000000000000000000000000000000000000000000000000081518110610b1b57fe5b8661341a565b600073ba1ba1ba1ba1ba1ba1ba1ba1ba1ba1ba1ba1ba1b612d46610e3c565b6001600160a01b031614158015612d615750612d618361346e565b15612d8957612d6e610e3c565b6001600160a01b0316336001600160a01b031614905061071a565b612d91612069565b6001600160a01b0316639be2a8848484306040518463ffffffff1660e01b8152600401612dc093929190613e97565b60206040518083038186803b158015612dd857600080fd5b505afa158015612dec573d6000803e3d6000fd5b505050506040513d601f19601f820116820180604052508101906112539190613a10565b6000612e1f84841115836113cb565b5050900390565b4690565b612e3d64e8d4a5100082101560cb6113cb565b612e5367016345785d8a000082111560ca6113cb565b600854612e62908260c0611380565b6008556040517fa9ba3ffe0b6c366b81232caab38605a0699ad5398d6cce76f91ee809e322dafc90611826908390613e8e565b60008180602001905181019061071a9190613b61565b6113ec612eb6611831565b156101af6113cb565b600060606000612ece84613491565b90506000612f398683612f13897f000000000000000000000000000000000000000000000000000000000000000081518110612f0657fe5b60200260200101516122c7565b7f00000000000000000000000000000000000000000000000000000000000000006134a7565b9196919550909350505050565b612f5d6001600160a01b038316151561019b6113cb565b612f698260008361084c565b6001600160a01b038216600090815260208190526040902054612f8f90826101a1612e10565b6001600160a01b038316600090815260208190526040902055600254612fb59082613563565b6002556040516000906001600160a01b038416907fddf252ad1be2c89b69c2b068fc378daa952ba7f163c4a11628f55a4df523b3ef90612ff6908590613e8e565b60405180910390a35050565b600854613011908260006113b0565b60085550565b6130236000838361084c565b6002546130309082611b44565b6002556001600160a01b0382166000908152602081905260409020546130569082611b44565b6001600160a01b0383166000818152602081905260408082209390935591519091907fddf252ad1be2c89b69c2b068fc378daa952ba7f163c4a11628f55a4df523b3ef90612ff6908590613e8e565b6000806130b28684611e7c565b905060006130c08287611edd565b905060006130ce868a611396565b905060006130e9846122d56130e38587613571565b8a61358b565b90506130f58882611396565b9450505050505b95945050505050565b6000806131128684611e7c565b905060006131208287611edd565b90506000613137613131838b613571565b876135be565b905060006131458483611396565b9050600061315382886135de565b905061315f8a82611396565b9b9a5050505050505050505050565b60008061317b8484611e7c565b9050600061319261318c8688611b44565b85611e7c565b9050611b218183611396565b6000826131b6576131af8683611e7c565b90506130fc565b60006131c28684611e7c565b905060006131d361318c888a611b44565b905060006131e18284611396565b905060006131ef8489611edd565b90506130f56131fe8884613571565b826135be565b6000806132118484611e7c565b9050600061321f8287611396565b9050600061322d82866135de565b90506132398682611396565b979650505050505050565b6000826132525750846130fc565b600061325e8684611e7c565b9050600061326c8287611edd565b9050600061327a878a611b44565b905060006132888483611edd565b9050600061329f6132998984613571565b856135be565b905061315f8189611396565b6000826132b95750846130fc565b60006132c58684611e7c565b905060006132d38287611edd565b905060006132e1868a611b44565b905060006132f6846122d56130e38587613571565b90506130f58189611396565b600082613313576131af86836135de565b600061331f8684611e7c565b9050600061332d8287611edd565b9050600061334461333e838b613571565b8761358b565b905060006133528483611b44565b9050600061336082886135de565b905061315f818b611396565b6000806133798484611e7c565b9050600061338a61318c8688611396565b9050611b218282611396565b6000806133a38684611e7c565b905060006133b461318c888a611396565b905060006133c28383611396565b905060006133d08489611edd565b90506130f56133df8884613571565b8261358b565b6000806133f28484611e7c565b905060006134008287611b44565b9050600061340e82866135de565b90506132398187611396565b6000806134278684611e7c565b905060006134358287611edd565b90506000613443878a611396565b905060006134518483611edd565b905060006134626132998984613571565b905061315f8882611396565b6000613480634f88840760e11b610dc4565b82148061071a575061071a8261366e565b6000818060200190518101906108059190613b7b565b606060006134b585856128c2565b90506000865167ffffffffffffffff811180156134d157600080fd5b506040519080825280602002602001820160405280156134fb578160200160208202803683370190505b50905060005b875181101561355857848114613550576135378389838151811061352157fe5b602002602001015161245a90919063ffffffff16565b82828151811061354357fe5b6020026020010181815250505b600101613501565b509695505050505050565b600061080583836001612e10565b600082820261080584158061247757508385838161247457fe5b600061359a82151560046113cb565b826135a75750600061071a565b8160018403816135b357fe5b04600101905061071a565b60006135cd82151560046113cb565b8183816135d657fe5b049392505050565b600081602001518310156136275781516112539061360590670de0b6b3a764000090611b44565b602084015184516136219161361a919061245a565b8690611b44565b906128c2565b8160400151831161363957508161071a565b81516112539061365290670de0b6b3a764000090611396565b6040840151845161362191613667919061245a565b8690611396565b6000613680631c74c91760e11b610dc4565b82148061071a57506136986350dd6ed960e01b610dc4565b909114919050565b8035610b54816140ab565b600082601f8301126136bb578081fd5b813560206136d06136cb8361408d565b614069565b82815281810190858301838502870184018810156136ec578586fd5b855b8581101561370a578135845292840192908401906001016136ee565b5090979650505050505050565b600082601f830112613727578081fd5b815160206137376136cb8361408d565b8281528181019085830183850287018401881015613753578586fd5b855b8581101561370a57815184529284019290840190600101613755565b600082601f830112613781578081fd5b813567ffffffffffffffff81111561379557fe5b6137a8601f8201601f1916602001614069565b8181528460208386010111156137bc578283fd5b816020850160208301379081016020019190915292915050565b805160018110610b5457600080fd5b803560028110610b5457600080fd5b600060208284031215613805578081fd5b8135610805816140ab565b60008060408385031215613822578081fd5b823561382d816140ab565b9150602083013561383d816140ab565b809150509250929050565b60008060006060848603121561385c578081fd5b8335613867816140ab565b92506020840135613877816140ab565b929592945050506040919091013590565b600080600080600080600060e0888a0312156138a2578485fd5b87356138ad816140ab565b965060208801356138bd816140ab565b95506040880135945060608801359350608088013560ff811681146138e0578384fd5b9699959850939692959460a0840135945060c09093013592915050565b6000806040838503121561390f578182fd5b823561391a816140ab565b946020939093013593505050565b60008060006060848603121561393c578081fd5b835167ffffffffffffffff80821115613953578283fd5b818601915086601f830112613966578283fd5b815160206139766136cb8361408d565b82815281810190858301838502870184018c1015613992578788fd5b8796505b848710156139bd5780516139a9816140ab565b835260019690960195918301918301613996565b50918901519197509093505050808211156139d6578283fd5b506139e386828701613717565b925050604084015190509250925092565b600060208284031215613a05578081fd5b8135610805816140c0565b600060208284031215613a21578081fd5b8151610805816140c0565b600080600080600080600060e0888a031215613a46578081fd5b873596506020880135613a58816140ab565b95506040880135613a68816140ab565b9450606088013567ffffffffffffffff80821115613a84578283fd5b613a908b838c016136ab565b955060808a0135945060a08a0135935060c08a0135915080821115613ab3578283fd5b50613ac08a828b01613771565b91505092959891949750929550565b600060208284031215613ae0578081fd5b81356001600160e01b031981168114610805578182fd5b600060208284031215613b08578081fd5b8151610805816140ab565b60008060408385031215613b25578182fd5b8235613b30816140ab565b9150602083013567ffffffffffffffff811115613b4b578182fd5b613b5785828601613771565b9150509250929050565b600060208284031215613b72578081fd5b610805826137d6565b60008060408385031215613b8d578182fd5b613b96836137d6565b9150602083015190509250929050565b60008060008060808587031215613bbb578182fd5b843567ffffffffffffffff80821115613bd2578384fd5b818701915061012080838a031215613be8578485fd5b613bf181614069565b9050613bfc836137e5565b8152613c0a602084016136a0565b6020820152613c1b604084016136a0565b6040820152606083013560608201526080830135608082015260a083013560a0820152613c4a60c084016136a0565b60c0820152613c5b60e084016136a0565b60e08201526101008084013583811115613c73578687fd5b613c7f8b828701613771565b828401525050809650506020870135915080821115613c9c578384fd5b50613ca9878288016136ab565b949794965050505060408301359260600135919050565b600060208284031215613cd1578081fd5b5035919050565b600060208284031215613ce9578081fd5b5051919050565b60008060408385031215613d02578182fd5b50508035926020909101359150565b60008060008060808587031215613d26578182fd5b8451935060208501519250604085015191506060850151613d46816140ab565b939692955090935050565b6000815180845260208085019450808401835b83811015613d8057815187529582019590820190600101613d64565b509495945050505050565b15159052565b60008151808452815b81811015613db657602081850181015186830182015201613d9a565b81811115613dc75782602083870101525b50601f01601f19169290920160200192915050565b9182526001600160e01b031916602082015260240190565b6000828483379101908152919050565b61190160f01b81526002810192909252602282015260420190565b6001600160a01b0391909116815260200190565b6000602082526108056020830184613d51565b600060408252613e596040830185613d51565b82810360208401526130fc8185613d51565b901515815260200190565b92151583526020830191909152604082015260600190565b90815260200190565b9283526001600160a01b03918216602084015216604082015260600190565b6000858252602060018060a01b0380871682850152808616604085015260806060850152610100840185516080808701528181518084526101208801915085830193508692505b80831015613f1f57835185168252928501926001929092019190850190613efd565b50848801519450607f199350838782030160a0880152613f3f8186613d51565b94505050506040850151818584030160c0860152613f5d8382613d91565b92505050606084015161355860e0850182613d8b565b9586526001600160a01b0394851660208701529290931660408501526060840152608083019190915260a082015260c00190565b9485526020850193909352604084019190915260608301526001600160a01b0316608082015260a00190565b6000838252604060208301526126076040830184613d91565b9182526001600160a01b0316602082015260400190565b93845260ff9290921660208401526040830152606082015260800190565b6000602082526108056020830184613d91565b6000838252604060208301526126076040830184613d51565b918252602082015260400190565b60ff91909116815260200190565b60405181810167ffffffffffffffff8111828210171561408557fe5b604052919050565b600067ffffffffffffffff8211156140a157fe5b5060209081020190565b6001600160a01b038116811461075557600080fd5b801515811461075557600080fdfea264697066735822122090e6623bd7b682a9cca68462828092df92cac19f6081ff634d7ff9c0b88ad51564736f6c63430007060033",
  "linkReferences": {},
  "deployedLinkReferences": {}
}