{
	"contracts/CooperProxy.sol": {
		"CopperProxy": {
			"abi": [
				{
					"inputs": [
						{
							"internalType": "uint256",
							"name": "feeBPS",
							"type": "uint256"
						},
						{
							"internalType": "address",
							"name": "feeRecipient",
							"type": "address"
						},
						{
							"internalType": "address",
							"name": "LBPFactoryAddress",
							"type": "address"
						}
					],
					"stateMutability": "nonpayable",
					"type": "constructor"
				},
				{
					"anonymous": false,
					"inputs": [
						{
							"indexed": false,
							"internalType": "address",
							"name": "previousRecipient",
							"type": "address"
						},
						{
							"indexed": false,
							"internalType": "address",
							"name": "newRecipient",
							"type": "address"
						}
					],
					"name": "ChangedFeeRecipient",
					"type": "event"
				},
				{
					"anonymous": false,
					"inputs": [
						{
							"indexed": true,
							"internalType": "address",
							"name": "pool",
							"type": "address"
						},
						{
							"indexed": false,
							"internalType": "address[]",
							"name": "tokens",
							"type": "address[]"
						},
						{
							"indexed": false,
							"internalType": "uint256[]",
							"name": "minAmountsOut",
							"type": "uint256[]"
						},
						{
							"indexed": false,
							"internalType": "bytes",
							"name": "userData",
							"type": "bytes"
						}
					],
					"name": "ExitedPool",
					"type": "event"
				},
				{
					"anonymous": false,
					"inputs": [
						{
							"indexed": true,
							"internalType": "address",
							"name": "pool",
							"type": "address"
						},
						{
							"indexed": false,
							"internalType": "uint256",
							"name": "startTime",
							"type": "uint256"
						},
						{
							"indexed": false,
							"internalType": "uint256",
							"name": "endTime",
							"type": "uint256"
						},
						{
							"indexed": false,
							"internalType": "uint256[]",
							"name": "endWeights",
							"type": "uint256[]"
						}
					],
					"name": "GradualWeightUpdateScheduled",
					"type": "event"
				},
				{
					"anonymous": false,
					"inputs": [
						{
							"indexed": true,
							"internalType": "address",
							"name": "pool",
							"type": "address"
						},
						{
							"indexed": false,
							"internalType": "address[]",
							"name": "tokens",
							"type": "address[]"
						},
						{
							"indexed": false,
							"internalType": "uint256[]",
							"name": "amounts",
							"type": "uint256[]"
						},
						{
							"indexed": false,
							"internalType": "bytes",
							"name": "userData",
							"type": "bytes"
						}
					],
					"name": "JoinedPool",
					"type": "event"
				},
				{
					"anonymous": false,
					"inputs": [
						{
							"indexed": true,
							"internalType": "address",
							"name": "previousOwner",
							"type": "address"
						},
						{
							"indexed": true,
							"internalType": "address",
							"name": "newOwner",
							"type": "address"
						}
					],
					"name": "OwnershipTransferred",
					"type": "event"
				},
				{
					"anonymous": false,
					"inputs": [
						{
							"indexed": true,
							"internalType": "address",
							"name": "pool",
							"type": "address"
						},
						{
							"indexed": false,
							"internalType": "bytes32",
							"name": "poolId",
							"type": "bytes32"
						},
						{
							"indexed": false,
							"internalType": "string",
							"name": "name",
							"type": "string"
						},
						{
							"indexed": false,
							"internalType": "string",
							"name": "symbol",
							"type": "string"
						},
						{
							"indexed": false,
							"internalType": "address[]",
							"name": "tokens",
							"type": "address[]"
						},
						{
							"indexed": false,
							"internalType": "uint256[]",
							"name": "weights",
							"type": "uint256[]"
						},
						{
							"indexed": false,
							"internalType": "uint256",
							"name": "swapFeePercentage",
							"type": "uint256"
						},
						{
							"indexed": false,
							"internalType": "address",
							"name": "owner",
							"type": "address"
						},
						{
							"indexed": false,
							"internalType": "bool",
							"name": "swapEnabledOnStart",
							"type": "bool"
						}
					],
					"name": "PoolCreated",
					"type": "event"
				},
				{
					"anonymous": false,
					"inputs": [
						{
							"indexed": false,
							"internalType": "address",
							"name": "token",
							"type": "address"
						},
						{
							"indexed": false,
							"internalType": "address",
							"name": "to",
							"type": "address"
						},
						{
							"indexed": false,
							"internalType": "uint256",
							"name": "balance",
							"type": "uint256"
						}
					],
					"name": "Skimmed",
					"type": "event"
				},
				{
					"anonymous": false,
					"inputs": [
						{
							"indexed": true,
							"internalType": "address",
							"name": "pool",
							"type": "address"
						},
						{
							"indexed": false,
							"internalType": "bool",
							"name": "swapEnabled",
							"type": "bool"
						}
					],
					"name": "SwapEnabledSet",
					"type": "event"
				},
				{
					"anonymous": false,
					"inputs": [
						{
							"indexed": true,
							"internalType": "address",
							"name": "pool",
							"type": "address"
						},
						{
							"indexed": false,
							"internalType": "address",
							"name": "token",
							"type": "address"
						},
						{
							"indexed": false,
							"internalType": "address",
							"name": "feeRecipient",
							"type": "address"
						},
						{
							"indexed": false,
							"internalType": "uint256",
							"name": "feeAmount",
							"type": "uint256"
						}
					],
					"name": "TransferedFee",
					"type": "event"
				},
				{
					"anonymous": false,
					"inputs": [
						{
							"indexed": true,
							"internalType": "address",
							"name": "pool",
							"type": "address"
						},
						{
							"indexed": false,
							"internalType": "address",
							"name": "previousOwner",
							"type": "address"
						},
						{
							"indexed": false,
							"internalType": "address",
							"name": "newOwner",
							"type": "address"
						}
					],
					"name": "TransferedPoolOwnership",
					"type": "event"
				},
				{
					"anonymous": false,
					"inputs": [
						{
							"indexed": true,
							"internalType": "address",
							"name": "pool",
							"type": "address"
						},
						{
							"indexed": false,
							"internalType": "address",
							"name": "token",
							"type": "address"
						},
						{
							"indexed": false,
							"internalType": "address",
							"name": "to",
							"type": "address"
						},
						{
							"indexed": false,
							"internalType": "uint256",
							"name": "amount",
							"type": "uint256"
						}
					],
					"name": "TransferedToken",
					"type": "event"
				},
				{
					"inputs": [],
					"name": "VAULT",
					"outputs": [
						{
							"internalType": "address",
							"name": "",
							"type": "address"
						}
					],
					"stateMutability": "view",
					"type": "function"
				},
				{
					"inputs": [],
					"name": "_LBPFactoryAddress",
					"outputs": [
						{
							"internalType": "address",
							"name": "",
							"type": "address"
						}
					],
					"stateMutability": "view",
					"type": "function"
				},
				{
					"inputs": [],
					"name": "_feeBPS",
					"outputs": [
						{
							"internalType": "uint256",
							"name": "",
							"type": "uint256"
						}
					],
					"stateMutability": "view",
					"type": "function"
				},
				{
					"inputs": [],
					"name": "_feeRecipient",
					"outputs": [
						{
							"internalType": "address",
							"name": "",
							"type": "address"
						}
					],
					"stateMutability": "view",
					"type": "function"
				},
				{
					"inputs": [
						{
							"internalType": "address",
							"name": "newRecipient",
							"type": "address"
						}
					],
					"name": "changeFeeRecipient",
					"outputs": [],
					"stateMutability": "nonpayable",
					"type": "function"
				},
				{
					"inputs": [
						{
							"components": [
								{
									"internalType": "string",
									"name": "name",
									"type": "string"
								},
								{
									"internalType": "string",
									"name": "symbol",
									"type": "string"
								},
								{
									"internalType": "address[]",
									"name": "tokens",
									"type": "address[]"
								},
								{
									"internalType": "uint256[]",
									"name": "amounts",
									"type": "uint256[]"
								},
								{
									"internalType": "uint256[]",
									"name": "weights",
									"type": "uint256[]"
								},
								{
									"internalType": "uint256[]",
									"name": "endWeights",
									"type": "uint256[]"
								},
								{
									"internalType": "bool",
									"name": "isCorrectOrder",
									"type": "bool"
								},
								{
									"internalType": "uint256",
									"name": "swapFeePercentage",
									"type": "uint256"
								},
								{
									"internalType": "bytes",
									"name": "userData",
									"type": "bytes"
								},
								{
									"internalType": "uint256",
									"name": "startTime",
									"type": "uint256"
								},
								{
									"internalType": "uint256",
									"name": "endTime",
									"type": "uint256"
								}
							],
							"internalType": "struct CopperProxy.PoolConfig",
							"name": "poolConfig",
							"type": "tuple"
						}
					],
					"name": "createAuction",
					"outputs": [
						{
							"internalType": "address",
							"name": "",
							"type": "address"
						}
					],
					"stateMutability": "nonpayable",
					"type": "function"
				},
				{
					"inputs": [
						{
							"internalType": "address",
							"name": "pool",
							"type": "address"
						},
						{
							"internalType": "uint256[]",
							"name": "minAmountsOut",
							"type": "uint256[]"
						},
						{
							"internalType": "uint256",
							"name": "maxBPTTokenOut",
							"type": "uint256"
						}
					],
					"name": "exitPool",
					"outputs": [],
					"stateMutability": "nonpayable",
					"type": "function"
				},
				{
					"inputs": [
						{
							"internalType": "address",
							"name": "pool",
							"type": "address"
						}
					],
					"name": "getBPTTokenBalance",
					"outputs": [
						{
							"internalType": "uint256",
							"name": "bptBalance",
							"type": "uint256"
						}
					],
					"stateMutability": "view",
					"type": "function"
				},
				{
					"inputs": [
						{
							"internalType": "uint256",
							"name": "index",
							"type": "uint256"
						}
					],
					"name": "getPoolAt",
					"outputs": [
						{
							"internalType": "address",
							"name": "pool",
							"type": "address"
						}
					],
					"stateMutability": "view",
					"type": "function"
				},
				{
					"inputs": [
						{
							"internalType": "address",
							"name": "pool",
							"type": "address"
						}
					],
					"name": "getPoolData",
					"outputs": [
						{
							"components": [
								{
									"internalType": "address",
									"name": "owner",
									"type": "address"
								},
								{
									"internalType": "bool",
									"name": "isCorrectOrder",
									"type": "bool"
								},
								{
									"internalType": "uint256",
									"name": "fundTokenInputAmount",
									"type": "uint256"
								}
							],
							"internalType": "struct CopperProxy.PoolData",
							"name": "poolData",
							"type": "tuple"
						}
					],
					"stateMutability": "view",
					"type": "function"
				},
				{
					"inputs": [],
					"name": "getPools",
					"outputs": [
						{
							"internalType": "address[]",
							"name": "pools",
							"type": "address[]"
						}
					],
					"stateMutability": "view",
					"type": "function"
				},
				{
					"inputs": [
						{
							"internalType": "address",
							"name": "pool",
							"type": "address"
						}
					],
					"name": "isPool",
					"outputs": [
						{
							"internalType": "bool",
							"name": "valid",
							"type": "bool"
						}
					],
					"stateMutability": "view",
					"type": "function"
				},
				{
					"inputs": [],
					"name": "owner",
					"outputs": [
						{
							"internalType": "address",
							"name": "",
							"type": "address"
						}
					],
					"stateMutability": "view",
					"type": "function"
				},
				{
					"inputs": [],
					"name": "poolCount",
					"outputs": [
						{
							"internalType": "uint256",
							"name": "count",
							"type": "uint256"
						}
					],
					"stateMutability": "view",
					"type": "function"
				},
				{
					"inputs": [],
					"name": "renounceOwnership",
					"outputs": [],
					"stateMutability": "nonpayable",
					"type": "function"
				},
				{
					"inputs": [
						{
							"internalType": "address",
							"name": "pool",
							"type": "address"
						},
						{
							"internalType": "bool",
							"name": "swapEnabled",
							"type": "bool"
						}
					],
					"name": "setSwapEnabled",
					"outputs": [],
					"stateMutability": "nonpayable",
					"type": "function"
				},
				{
					"inputs": [
						{
							"internalType": "address",
							"name": "token",
							"type": "address"
						},
						{
							"internalType": "address",
							"name": "recipient",
							"type": "address"
						}
					],
					"name": "skim",
					"outputs": [],
					"stateMutability": "nonpayable",
					"type": "function"
				},
				{
					"inputs": [
						{
							"internalType": "address",
							"name": "newOwner",
							"type": "address"
						}
					],
					"name": "transferOwnership",
					"outputs": [],
					"stateMutability": "nonpayable",
					"type": "function"
				},
				{
					"inputs": [
						{
							"internalType": "address",
							"name": "pool",
							"type": "address"
						},
						{
							"internalType": "address",
							"name": "newOwner",
							"type": "address"
						}
					],
					"name": "transferPoolOwnership",
					"outputs": [],
					"stateMutability": "nonpayable",
					"type": "function"
				}
			],
			"devdoc": {
				"kind": "dev",
				"methods": {
					"owner()": {
						"details": "Returns the address of the current owner."
					},
					"renounceOwnership()": {
						"details": "Leaves the contract without owner. It will not be possible to call `onlyOwner` functions anymore. Can only be called by the current owner. NOTE: Renouncing ownership will leave the contract without an owner, thereby removing any functionality that is only available to the owner."
					},
					"transferOwnership(address)": {
						"details": "Transfers ownership of the contract to a new account (`newOwner`). Can only be called by the current owner."
					}
				},
				"title": "CopperProxy",
				"version": 1
			},
			"evm": {
				"assembly": "    /* \"contracts/CooperProxy.sol\":21649:31144  contract CopperProxy is Ownable {... */\n  mstore(0x40, 0xc0)\n    /* \"contracts/CooperProxy.sol\":22187:22421  constructor(... */\n  callvalue\n  dup1\n  iszero\n  tag_1\n  jumpi\n  0x00\n  dup1\n  revert\ntag_1:\n  pop\n  mload(0x40)\n  sub(codesize, bytecodeSize)\n  dup1\n  bytecodeSize\n  dup4\n  codecopy\n  dup2\n  add\n  0x40\n  dup2\n  swap1\n  mstore\n  tag_2\n  swap2\n  tag_3\n  jump\t// in\ntag_2:\n    /* \"contracts/CooperProxy.sol\":18517:18540  _setOwner(_msgSender()) */\n  tag_7\n    /* \"contracts/CooperProxy.sol\":17556:17566  msg.sender */\n  caller\n    /* \"contracts/CooperProxy.sol\":18517:18526  _setOwner */\n  tag_10\n    /* \"contracts/CooperProxy.sol\":18517:18540  _setOwner(_msgSender()) */\n  jump\t// in\ntag_7:\n    /* \"contracts/CooperProxy.sol\":22309:22325  _feeBPS = feeBPS */\n  0xa0\n  swap3\n  swap1\n  swap3\n  mstore\n    /* \"contracts/CooperProxy.sol\":22336:22349  _feeRecipient */\n  0x04\n    /* \"contracts/CooperProxy.sol\":22336:22364  _feeRecipient = feeRecipient */\n  dup1\n  sload\n  not(sub(shl(0xa0, 0x01), 0x01))\n  and\n  sub(shl(0xa0, 0x01), 0x01)\n  swap3\n  dup4\n  and\n  or\n  swap1\n  sstore\n    /* \"contracts/CooperProxy.sol\":22375:22413  _LBPFactoryAddress = LBPFactoryAddress */\n  and\n  0x80\n  mstore\n    /* \"contracts/CooperProxy.sol\":21649:31144  contract CopperProxy is Ownable {... */\n  jump(tag_16)\n    /* \"contracts/CooperProxy.sol\":19729:19902  function _setOwner(address newOwner) private {... */\ntag_10:\n    /* \"contracts/CooperProxy.sol\":19785:19801  address oldOwner */\n  0x00\n    /* \"contracts/CooperProxy.sol\":19804:19810  _owner */\n  dup1\n  sload\n  sub(shl(0xa0, 0x01), 0x01)\n    /* \"contracts/CooperProxy.sol\":19821:19838  _owner = newOwner */\n  dup4\n  dup2\n  and\n  not(sub(shl(0xa0, 0x01), 0x01))\n  dup4\n  and\n  dup2\n  or\n  dup5\n  sstore\n    /* \"contracts/CooperProxy.sol\":19854:19894  OwnershipTransferred(oldOwner, newOwner) */\n  mload(0x40)\n    /* \"contracts/CooperProxy.sol\":19804:19810  _owner */\n  swap2\n  swap1\n  swap3\n  and\n  swap3\n  dup4\n  swap2\n    /* \"contracts/CooperProxy.sol\":19854:19894  OwnershipTransferred(oldOwner, newOwner) */\n  0x8be0079c531659141344cd1fd0a4f28419497f9722a3daafe3b4186f6b6457e0\n  swap2\n    /* \"contracts/CooperProxy.sol\":19785:19801  address oldOwner */\n  swap1\n    /* \"contracts/CooperProxy.sol\":19854:19894  OwnershipTransferred(oldOwner, newOwner) */\n  log3\n    /* \"contracts/CooperProxy.sol\":19774:19902  {... */\n  pop\n    /* \"contracts/CooperProxy.sol\":19729:19902  function _setOwner(address newOwner) private {... */\n  pop\n  jump\t// out\n    /* \"#utility.yul\":14:191   */\ntag_15:\n    /* \"#utility.yul\":93:106   */\n  dup1\n  mload\n  sub(shl(0xa0, 0x01), 0x01)\n    /* \"#utility.yul\":135:166   */\n  dup2\n  and\n    /* \"#utility.yul\":125:167   */\n  dup2\n  eq\n    /* \"#utility.yul\":115:185   */\n  tag_18\n  jumpi\n    /* \"#utility.yul\":181:182   */\n  0x00\n    /* \"#utility.yul\":178:179   */\n  dup1\n    /* \"#utility.yul\":171:183   */\n  revert\n    /* \"#utility.yul\":115:185   */\ntag_18:\n    /* \"#utility.yul\":14:191   */\n  swap2\n  swap1\n  pop\n  jump\t// out\n    /* \"#utility.yul\":196:550   */\ntag_3:\n    /* \"#utility.yul\":284:290   */\n  0x00\n    /* \"#utility.yul\":292:298   */\n  dup1\n    /* \"#utility.yul\":300:306   */\n  0x00\n    /* \"#utility.yul\":353:355   */\n  0x60\n    /* \"#utility.yul\":341:350   */\n  dup5\n    /* \"#utility.yul\":332:339   */\n  dup7\n    /* \"#utility.yul\":328:351   */\n  sub\n    /* \"#utility.yul\":324:356   */\n  slt\n    /* \"#utility.yul\":321:373   */\n  iszero\n  tag_20\n  jumpi\n    /* \"#utility.yul\":369:370   */\n  0x00\n    /* \"#utility.yul\":366:367   */\n  dup1\n    /* \"#utility.yul\":359:371   */\n  revert\n    /* \"#utility.yul\":321:373   */\ntag_20:\n    /* \"#utility.yul\":398:407   */\n  dup4\n    /* \"#utility.yul\":392:408   */\n  mload\n    /* \"#utility.yul\":382:408   */\n  swap3\n  pop\n    /* \"#utility.yul\":427:476   */\n  tag_21\n    /* \"#utility.yul\":472:474   */\n  0x20\n    /* \"#utility.yul\":461:470   */\n  dup6\n    /* \"#utility.yul\":457:475   */\n  add\n    /* \"#utility.yul\":427:476   */\n  tag_15\n  jump\t// in\ntag_21:\n    /* \"#utility.yul\":417:476   */\n  swap2\n  pop\n    /* \"#utility.yul\":495:544   */\n  tag_22\n    /* \"#utility.yul\":540:542   */\n  0x40\n    /* \"#utility.yul\":529:538   */\n  dup6\n    /* \"#utility.yul\":525:543   */\n  add\n    /* \"#utility.yul\":495:544   */\n  tag_15\n  jump\t// in\ntag_22:\n    /* \"#utility.yul\":485:544   */\n  swap1\n  pop\n    /* \"#utility.yul\":196:550   */\n  swap3\n  pop\n  swap3\n  pop\n  swap3\n  jump\t// out\ntag_16:\n    /* \"contracts/CooperProxy.sol\":21649:31144  contract CopperProxy is Ownable {... */\n  mload(0x80)\n  mload(0xa0)\n  codecopy(0x00, dataOffset(sub_0), dataSize(sub_0))\n  0x00\n  assignImmutable(\"0x94b72f6d5810c90c68ea7d7f52a48aba033cd0249ea1144a4588f2256d6f57ff\")\n  0x00\n  assignImmutable(\"0xcc1cf32daa775edd624f71ddb0d100d39c31c65becb67e6d2e7789fa58c10fe0\")\n  return(0x00, dataSize(sub_0))\nstop\n\nsub_0: assembly {\n        /* \"contracts/CooperProxy.sol\":21649:31144  contract CopperProxy is Ownable {... */\n      mstore(0x40, 0x80)\n      callvalue\n      dup1\n      iszero\n      tag_1\n      jumpi\n      0x00\n      dup1\n      revert\n    tag_1:\n      pop\n      jumpi(tag_2, lt(calldatasize, 0x04))\n      shr(0xe0, calldataload(0x00))\n      dup1\n      0x673a2a1f\n      gt\n      tag_22\n      jumpi\n      dup1\n      0xa342f238\n      gt\n      tag_23\n      jumpi\n      dup1\n      0xa342f238\n      eq\n      tag_17\n      jumpi\n      dup1\n      0xcac626bb\n      eq\n      tag_18\n      jumpi\n      dup1\n      0xee9ee0e4\n      eq\n      tag_19\n      jumpi\n      dup1\n      0xf2fde38b\n      eq\n      tag_20\n      jumpi\n      dup1\n      0xf525cb68\n      eq\n      tag_21\n      jumpi\n      0x00\n      dup1\n      revert\n    tag_23:\n      dup1\n      0x673a2a1f\n      eq\n      tag_12\n      jumpi\n      dup1\n      0x712b772f\n      eq\n      tag_13\n      jumpi\n      dup1\n      0x715018a6\n      eq\n      tag_14\n      jumpi\n      dup1\n      0x8da5cb5b\n      eq\n      tag_15\n      jumpi\n      dup1\n      0x9c37ebb6\n      eq\n      tag_16\n      jumpi\n      0x00\n      dup1\n      revert\n    tag_22:\n      dup1\n      0x23604071\n      gt\n      tag_24\n      jumpi\n      dup1\n      0x23604071\n      eq\n      tag_7\n      jumpi\n      dup1\n      0x411557d1\n      eq\n      tag_8\n      jumpi\n      dup1\n      0x46cf3e6e\n      eq\n      tag_9\n      jumpi\n      dup1\n      0x51d48cea\n      eq\n      tag_10\n      jumpi\n      dup1\n      0x5b16ebb7\n      eq\n      tag_11\n      jumpi\n      0x00\n      dup1\n      revert\n    tag_24:\n      dup1\n      0x01b1aff6\n      eq\n      tag_3\n      jumpi\n      dup1\n      0x0563cd7c\n      eq\n      tag_4\n      jumpi\n      dup1\n      0x05ea2183\n      eq\n      tag_5\n      jumpi\n      dup1\n      0x13d21cdf\n      eq\n      tag_6\n      jumpi\n    tag_2:\n      0x00\n      dup1\n      revert\n        /* \"contracts/CooperProxy.sol\":22061:22104  address public immutable _LBPFactoryAddress */\n    tag_3:\n      tag_25\n      immutable(\"0xcc1cf32daa775edd624f71ddb0d100d39c31c65becb67e6d2e7789fa58c10fe0\")\n      dup2\n      jump\n    tag_25:\n      mload(0x40)\n      sub(shl(0xa0, 0x01), 0x01)\n        /* \"#utility.yul\":178:210   */\n      swap1\n      swap2\n      and\n        /* \"#utility.yul\":160:211   */\n      dup2\n      mstore\n        /* \"#utility.yul\":148:150   */\n      0x20\n        /* \"#utility.yul\":133:151   */\n      add\n        /* \"contracts/CooperProxy.sol\":22061:22104  address public immutable _LBPFactoryAddress */\n    tag_27:\n      mload(0x40)\n      dup1\n      swap2\n      sub\n      swap1\n      return\n        /* \"contracts/CooperProxy.sol\":28087:30557  function exitPool(address pool, uint256[] calldata minAmountsOut, uint256 maxBPTTokenOut) external onlyPoolOwner(pool) {... */\n    tag_4:\n      tag_29\n      tag_30\n      calldatasize\n      0x04\n      tag_31\n      jump\t// in\n    tag_30:\n      tag_32\n      jump\t// in\n    tag_29:\n      stop\n        /* \"contracts/CooperProxy.sol\":23967:24080  function getPoolAt(uint256 index) external view returns (address pool) {... */\n    tag_5:\n      tag_25\n      tag_34\n      calldatasize\n      0x04\n      tag_35\n      jump\t// in\n    tag_34:\n      tag_36\n      jump\t// in\n        /* \"contracts/CooperProxy.sol\":24204:24329  function getPoolData(address pool) external view returns (PoolData memory poolData) {... */\n    tag_6:\n      tag_38\n      tag_39\n      calldatasize\n      0x04\n      tag_40\n      jump\t// in\n    tag_39:\n      0x40\n      dup1\n      mload\n      0x60\n      dup2\n      add\n      dup3\n      mstore\n      0x00\n      dup1\n      dup3\n      mstore\n      0x20\n      dup3\n      add\n      dup2\n      swap1\n      mstore\n      swap2\n      dup2\n      add\n      swap2\n      swap1\n      swap2\n      mstore\n      pop\n      sub(shl(0xa0, 0x01), 0x01)\n        /* \"contracts/CooperProxy.sol\":24306:24321  _poolData[pool] */\n      swap1\n      dup2\n      and\n      0x00\n      swap1\n      dup2\n      mstore\n        /* \"contracts/CooperProxy.sol\":24306:24315  _poolData */\n      0x01\n        /* \"contracts/CooperProxy.sol\":24306:24321  _poolData[pool] */\n      0x20\n      dup2\n      dup2\n      mstore\n      0x40\n      swap3\n      dup4\n      swap1\n      keccak256\n        /* \"contracts/CooperProxy.sol\":24299:24321  return _poolData[pool] */\n      dup4\n      mload\n      0x60\n      dup2\n      add\n      dup6\n      mstore\n      dup2\n      sload\n      swap6\n      dup7\n      and\n      dup2\n      mstore\n      shl(0xa0, 0x01)\n      swap1\n      swap6\n      div\n      0xff\n      and\n      iszero\n      iszero\n      swap2\n      dup6\n      add\n      swap2\n      swap1\n      swap2\n      mstore\n      add\n      sload\n      swap1\n      dup3\n      add\n      mstore\n      swap1\n        /* \"contracts/CooperProxy.sol\":24204:24329  function getPoolData(address pool) external view returns (PoolData memory poolData) {... */\n      jump\n    tag_38:\n      0x40\n      dup1\n      mload\n        /* \"#utility.yul\":1934:1947   */\n      dup3\n      mload\n      sub(shl(0xa0, 0x01), 0x01)\n        /* \"#utility.yul\":1930:1969   */\n      and\n        /* \"#utility.yul\":1912:1970   */\n      dup2\n      mstore\n        /* \"#utility.yul\":2040:2044   */\n      0x20\n        /* \"#utility.yul\":2028:2045   */\n      dup1\n      dup5\n      add\n        /* \"#utility.yul\":2022:2046   */\n      mload\n        /* \"#utility.yul\":2015:2047   */\n      iszero\n        /* \"#utility.yul\":2008:2048   */\n      iszero\n        /* \"#utility.yul\":1986:2006   */\n      swap1\n      dup3\n      add\n        /* \"#utility.yul\":1979:2049   */\n      mstore\n        /* \"#utility.yul\":2093:2110   */\n      swap2\n      dup2\n      add\n        /* \"#utility.yul\":2087:2111   */\n      mload\n        /* \"#utility.yul\":2065:2085   */\n      swap1\n      dup3\n      add\n        /* \"#utility.yul\":2058:2112   */\n      mstore\n        /* \"#utility.yul\":1900:1902   */\n      0x60\n        /* \"#utility.yul\":1885:1903   */\n      add\n        /* \"contracts/CooperProxy.sol\":24204:24329  function getPoolData(address pool) external view returns (PoolData memory poolData) {... */\n      tag_27\n        /* \"#utility.yul\":1714:2118   */\n      jump\n        /* \"contracts/CooperProxy.sol\":30565:30809  function changeFeeRecipient(address newRecipient) external onlyOwner {... */\n    tag_7:\n      tag_29\n      tag_45\n      calldatasize\n      0x04\n      tag_40\n      jump\t// in\n    tag_45:\n      tag_46\n      jump\t// in\n        /* \"contracts/CooperProxy.sol\":21971:22054  address public constant VAULT = address(0x20dd72Ed959b6147912C2e529F0a0C651c33c9ce) */\n    tag_8:\n      tag_25\n        /* \"contracts/CooperProxy.sol\":22011:22053  0x20dd72Ed959b6147912C2e529F0a0C651c33c9ce */\n      0x20dd72ed959b6147912c2e529f0a0c651c33c9ce\n        /* \"contracts/CooperProxy.sol\":21971:22054  address public constant VAULT = address(0x20dd72Ed959b6147912C2e529F0a0C651c33c9ce) */\n      dup2\n      jump\n        /* \"contracts/CooperProxy.sol\":24832:27096  function createAuction(PoolConfig memory poolConfig) external returns (address) {... */\n    tag_9:\n      tag_25\n      tag_51\n      calldatasize\n      0x04\n      tag_52\n      jump\t// in\n    tag_51:\n      tag_53\n      jump\t// in\n        /* \"contracts/CooperProxy.sol\":27104:27294  function setSwapEnabled(address pool, bool swapEnabled) external onlyPoolOwner(pool) {... */\n    tag_10:\n      tag_29\n      tag_56\n      calldatasize\n      0x04\n      tag_57\n      jump\t// in\n    tag_56:\n      tag_58\n      jump\t// in\n        /* \"contracts/CooperProxy.sol\":23739:23851  function isPool(address pool) external view returns (bool valid) {... */\n    tag_11:\n      tag_59\n      tag_60\n      calldatasize\n      0x04\n      tag_40\n      jump\t// in\n    tag_60:\n      tag_61\n      jump\t// in\n    tag_59:\n      mload(0x40)\n        /* \"#utility.yul\":7746:7760   */\n      swap1\n      iszero\n        /* \"#utility.yul\":7739:7761   */\n      iszero\n        /* \"#utility.yul\":7721:7762   */\n      dup2\n      mstore\n        /* \"#utility.yul\":7709:7711   */\n      0x20\n        /* \"#utility.yul\":7694:7712   */\n      add\n        /* \"contracts/CooperProxy.sol\":23739:23851  function isPool(address pool) external view returns (bool valid) {... */\n      tag_27\n        /* \"#utility.yul\":7581:7768   */\n      jump\n        /* \"contracts/CooperProxy.sol\":24088:24196  function getPools() external view returns (address[] memory pools) {... */\n    tag_12:\n      tag_64\n      tag_65\n      jump\t// in\n    tag_64:\n      mload(0x40)\n      tag_27\n      swap2\n      swap1\n      tag_67\n      jump\t// in\n        /* \"contracts/CooperProxy.sol\":30817:31141  function skim(address token, address recipient) external onlyOwner {... */\n    tag_13:\n      tag_29\n      tag_69\n      calldatasize\n      0x04\n      tag_70\n      jump\t// in\n    tag_69:\n      tag_71\n      jump\t// in\n        /* \"contracts/CooperProxy.sol\":19280:19374  function renounceOwnership() public virtual onlyOwner {... */\n    tag_14:\n      tag_29\n      tag_73\n      jump\t// in\n        /* \"contracts/CooperProxy.sol\":18629:18716  function owner() public view virtual returns (address) {... */\n    tag_15:\n        /* \"contracts/CooperProxy.sol\":18675:18682  address */\n      0x00\n        /* \"contracts/CooperProxy.sol\":18702:18708  _owner */\n      sload\n      sub(shl(0xa0, 0x01), 0x01)\n      and\n        /* \"contracts/CooperProxy.sol\":18629:18716  function owner() public view virtual returns (address) {... */\n      jump(tag_25)\n        /* \"contracts/CooperProxy.sol\":22111:22143  uint256 public immutable _feeBPS */\n    tag_16:\n      tag_77\n      immutable(\"0x94b72f6d5810c90c68ea7d7f52a48aba033cd0249ea1144a4588f2256d6f57ff\")\n      dup2\n      jump\n    tag_77:\n      mload(0x40)\n        /* \"#utility.yul\":9044:9069   */\n      swap1\n      dup2\n      mstore\n        /* \"#utility.yul\":9032:9034   */\n      0x20\n        /* \"#utility.yul\":9017:9035   */\n      add\n        /* \"contracts/CooperProxy.sol\":22111:22143  uint256 public immutable _feeBPS */\n      tag_27\n        /* \"#utility.yul\":8898:9075   */\n      jump\n        /* \"contracts/CooperProxy.sol\":22150:22178  address public _feeRecipient */\n    tag_17:\n      sload(0x04)\n      tag_25\n      swap1\n      sub(shl(0xa0, 0x01), 0x01)\n      and\n      dup2\n      jump\n        /* \"contracts/CooperProxy.sol\":24337:24485  function getBPTTokenBalance(address pool) external view returns (uint256 bptBalance) {... */\n    tag_18:\n      tag_77\n      tag_85\n      calldatasize\n      0x04\n      tag_40\n      jump\t// in\n    tag_85:\n      tag_86\n      jump\t// in\n        /* \"contracts/CooperProxy.sol\":27302:27571  function transferPoolOwnership(address pool, address newOwner) external onlyPoolOwner(pool) {... */\n    tag_19:\n      tag_29\n      tag_89\n      calldatasize\n      0x04\n      tag_70\n      jump\t// in\n    tag_89:\n      tag_90\n      jump\t// in\n        /* \"contracts/CooperProxy.sol\":19529:19721  function transferOwnership(address newOwner) public virtual onlyOwner {... */\n    tag_20:\n      tag_29\n      tag_92\n      calldatasize\n      0x04\n      tag_40\n      jump\t// in\n    tag_92:\n      tag_93\n      jump\t// in\n        /* \"contracts/CooperProxy.sol\":23859:23959  function poolCount() external view returns (uint256 count) {... */\n    tag_21:\n      tag_77\n      tag_95\n      jump\t// in\n        /* \"contracts/CooperProxy.sol\":28087:30557  function exitPool(address pool, uint256[] calldata minAmountsOut, uint256 maxBPTTokenOut) external onlyPoolOwner(pool) {... */\n    tag_32:\n      sub(shl(0xa0, 0x01), 0x01)\n        /* \"contracts/CooperProxy.sol\":23679:23694  _poolData[pool] */\n      dup5\n      dup2\n      and\n      0x00\n      swap1\n      dup2\n      mstore\n        /* \"contracts/CooperProxy.sol\":23679:23688  _poolData */\n      0x01\n        /* \"contracts/CooperProxy.sol\":23679:23694  _poolData[pool] */\n      0x20\n      mstore\n      0x40\n      swap1\n      keccak256\n        /* \"contracts/CooperProxy.sol\":23679:23700  _poolData[pool].owner */\n      sload\n        /* \"contracts/CooperProxy.sol\":23679:23694  _poolData[pool] */\n      dup6\n      swap2\n        /* \"contracts/CooperProxy.sol\":23679:23700  _poolData[pool].owner */\n      and\n        /* \"contracts/CooperProxy.sol\":23665:23675  msg.sender */\n      caller\n        /* \"contracts/CooperProxy.sol\":23665:23700  msg.sender == _poolData[pool].owner */\n      eq\n        /* \"contracts/CooperProxy.sol\":23657:23711  require(msg.sender == _poolData[pool].owner, \"!owner\") */\n      tag_98\n      jumpi\n      mload(0x40)\n      shl(0xe5, 0x461bcd)\n      dup2\n      mstore\n      0x04\n      add\n      tag_99\n      swap1\n      tag_100\n      jump\t// in\n    tag_99:\n      mload(0x40)\n      dup1\n      swap2\n      sub\n      swap1\n      revert\n    tag_98:\n        /* \"contracts/CooperProxy.sol\":28246:28260  bytes32 poolId */\n      0x00\n        /* \"contracts/CooperProxy.sol\":28267:28271  pool */\n      dup6\n      sub(shl(0xa0, 0x01), 0x01)\n        /* \"contracts/CooperProxy.sol\":28263:28282  LBP(pool).getPoolId */\n      and\n      0x38fff2d0\n        /* \"contracts/CooperProxy.sol\":28263:28284  LBP(pool).getPoolId() */\n      mload(0x40)\n      dup2\n      0xffffffff\n      and\n      0xe0\n      shl\n      dup2\n      mstore\n      0x04\n      add\n      0x20\n      mload(0x40)\n      dup1\n      dup4\n      sub\n      dup2\n      0x00\n      dup8\n      gas\n      call\n      iszero\n      dup1\n      iszero\n      tag_103\n      jumpi\n      returndatasize\n      0x00\n      dup1\n      returndatacopy\n      revert(0x00, returndatasize)\n    tag_103:\n      pop\n      pop\n      pop\n      pop\n      mload(0x40)\n      returndatasize\n      not(0x1f)\n      0x1f\n      dup3\n      add\n      and\n      dup3\n      add\n      dup1\n      0x40\n      mstore\n      pop\n      dup2\n      add\n      swap1\n      tag_104\n      swap2\n      swap1\n      tag_105\n      jump\t// in\n    tag_104:\n        /* \"contracts/CooperProxy.sol\":28331:28365  Vault(VAULT).getPoolTokens(poolId) */\n      mload(0x40)\n      shl(0xe3, 0x1f29a8cd)\n      dup2\n      mstore\n      0x04\n      dup2\n      add\n        /* \"#utility.yul\":9044:9069   */\n      dup3\n      swap1\n      mstore\n        /* \"contracts/CooperProxy.sol\":28246:28284  bytes32 poolId = LBP(pool).getPoolId() */\n      swap1\n      swap2\n      pop\n        /* \"contracts/CooperProxy.sol\":28296:28323  address[] memory poolTokens */\n      0x00\n      swap1\n        /* \"contracts/CooperProxy.sol\":22011:22053  0x20dd72Ed959b6147912C2e529F0a0C651c33c9ce */\n      0x20dd72ed959b6147912c2e529f0a0c651c33c9ce\n      swap1\n        /* \"contracts/CooperProxy.sol\":28331:28357  Vault(VAULT).getPoolTokens */\n      0xf94d4668\n      swap1\n        /* \"#utility.yul\":9017:9035   */\n      0x24\n      add\n        /* \"contracts/CooperProxy.sol\":28331:28365  Vault(VAULT).getPoolTokens(poolId) */\n      0x00\n      mload(0x40)\n      dup1\n      dup4\n      sub\n      dup2\n      dup7\n      gas\n      staticcall\n      iszero\n      dup1\n      iszero\n      tag_109\n      jumpi\n      returndatasize\n      0x00\n      dup1\n      returndatacopy\n      revert(0x00, returndatasize)\n    tag_109:\n      pop\n      pop\n      pop\n      pop\n      mload(0x40)\n      returndatasize\n      0x00\n      dup3\n      returndatacopy\n      0x1f\n      returndatasize\n      swap1\n      dup2\n      add\n      not(0x1f)\n      and\n      dup3\n      add\n      0x40\n      mstore\n      tag_110\n      swap2\n      swap1\n      dup2\n      add\n      swap1\n      tag_111\n      jump\t// in\n    tag_110:\n      pop\n      pop\n        /* \"contracts/CooperProxy.sol\":28384:28401  poolTokens.length */\n      dup1\n      mload\n        /* \"contracts/CooperProxy.sol\":28295:28365  (address[] memory poolTokens, , ) = Vault(VAULT).getPoolTokens(poolId) */\n      swap1\n      swap2\n      pop\n        /* \"contracts/CooperProxy.sol\":28384:28425  poolTokens.length == minAmountsOut.length */\n      dup6\n      eq\n        /* \"contracts/CooperProxy.sol\":28376:28450  require(poolTokens.length == minAmountsOut.length, \"invalid input length\") */\n      tag_112\n      jumpi\n      mload(0x40)\n      shl(0xe5, 0x461bcd)\n      dup2\n      mstore\n        /* \"#utility.yul\":11926:11928   */\n      0x20\n        /* \"contracts/CooperProxy.sol\":28376:28450  require(poolTokens.length == minAmountsOut.length, \"invalid input length\") */\n      0x04\n      dup3\n      add\n        /* \"#utility.yul\":11908:11929   */\n      mstore\n        /* \"#utility.yul\":11965:11967   */\n      0x14\n        /* \"#utility.yul\":11945:11963   */\n      0x24\n      dup3\n      add\n        /* \"#utility.yul\":11938:11968   */\n      mstore\n      shl(0x63, 0x0d2dcecc2d8d2c840d2dce0eae840d8cadccee8d)\n        /* \"#utility.yul\":11984:12002   */\n      0x44\n      dup3\n      add\n        /* \"#utility.yul\":11977:12027   */\n      mstore\n        /* \"#utility.yul\":12044:12062   */\n      0x64\n      add\n        /* \"contracts/CooperProxy.sol\":28376:28450  require(poolTokens.length == minAmountsOut.length, \"invalid input length\") */\n      tag_99\n        /* \"#utility.yul\":11724:12068   */\n      jump\n        /* \"contracts/CooperProxy.sol\":28376:28450  require(poolTokens.length == minAmountsOut.length, \"invalid input length\") */\n    tag_112:\n      sub(shl(0xa0, 0x01), 0x01)\n        /* \"contracts/CooperProxy.sol\":28488:28503  _poolData[pool] */\n      dup8\n      dup2\n      and\n        /* \"contracts/CooperProxy.sol\":28461:28485  PoolData memory poolData */\n      0x00\n        /* \"contracts/CooperProxy.sol\":28488:28503  _poolData[pool] */\n      dup2\n      dup2\n      mstore\n        /* \"contracts/CooperProxy.sol\":28488:28497  _poolData */\n      0x01\n        /* \"contracts/CooperProxy.sol\":28488:28503  _poolData[pool] */\n      0x20\n      dup2\n      dup2\n      mstore\n      0x40\n      dup1\n      dup5\n      keccak256\n        /* \"contracts/CooperProxy.sol\":28461:28503  PoolData memory poolData = _poolData[pool] */\n      dup2\n      mload\n      0x60\n      dup2\n      add\n      dup4\n      mstore\n      dup2\n      sload\n      swap8\n      dup9\n      and\n      dup2\n      mstore\n      shl(0xa0, 0x01)\n      swap1\n      swap8\n      div\n      0xff\n      and\n      iszero\n      iszero\n      swap3\n      dup8\n      add\n      swap3\n      swap1\n      swap3\n      mstore\n      swap2\n      add\n      sload\n      dup5\n      dup3\n      add\n      mstore\n        /* \"contracts/CooperProxy.sol\":28617:28654  IERC20(pool).balanceOf(address(this)) */\n      mload\n      shl(0xe0, 0x70a08231)\n      dup2\n      mstore\n        /* \"contracts/CooperProxy.sol\":28648:28652  this */\n      address\n        /* \"contracts/CooperProxy.sol\":28617:28654  IERC20(pool).balanceOf(address(this)) */\n      0x04\n      dup3\n      add\n        /* \"#utility.yul\":160:211   */\n      mstore\n        /* \"contracts/CooperProxy.sol\":28461:28485  PoolData memory poolData */\n      swap1\n      swap2\n      dup3\n      swap2\n        /* \"contracts/CooperProxy.sol\":28617:28639  IERC20(pool).balanceOf */\n      0x70a08231\n      swap1\n        /* \"#utility.yul\":133:151   */\n      0x24\n      add\n        /* \"contracts/CooperProxy.sol\":28617:28654  IERC20(pool).balanceOf(address(this)) */\n      0x20\n      mload(0x40)\n      dup1\n      dup4\n      sub\n      dup2\n      dup7\n      gas\n      staticcall\n      iszero\n      dup1\n      iszero\n      tag_117\n      jumpi\n      returndatasize\n      0x00\n      dup1\n      returndatacopy\n      revert(0x00, returndatasize)\n    tag_117:\n      pop\n      pop\n      pop\n      pop\n      mload(0x40)\n      returndatasize\n      not(0x1f)\n      0x1f\n      dup3\n      add\n      and\n      dup3\n      add\n      dup1\n      0x40\n      mstore\n      pop\n      dup2\n      add\n      swap1\n      tag_118\n      swap2\n      swap1\n      tag_105\n      jump\t// in\n    tag_118:\n        /* \"contracts/CooperProxy.sol\":28596:28654  uint256 bptBalance = IERC20(pool).balanceOf(address(this)) */\n      swap1\n      pop\n        /* \"contracts/CooperProxy.sol\":28691:28701  bptBalance */\n      dup1\n        /* \"contracts/CooperProxy.sol\":28673:28687  maxBPTTokenOut */\n      dup8\n        /* \"contracts/CooperProxy.sol\":28673:28701  maxBPTTokenOut <= bptBalance */\n      gt\n      iszero\n        /* \"contracts/CooperProxy.sol\":28665:28733  require(maxBPTTokenOut <= bptBalance, \"Not enough BPT token amount\") */\n      tag_120\n      jumpi\n      mload(0x40)\n      shl(0xe5, 0x461bcd)\n      dup2\n      mstore\n        /* \"#utility.yul\":12464:12466   */\n      0x20\n        /* \"contracts/CooperProxy.sol\":28665:28733  require(maxBPTTokenOut <= bptBalance, \"Not enough BPT token amount\") */\n      0x04\n      dup3\n      add\n        /* \"#utility.yul\":12446:12467   */\n      mstore\n        /* \"#utility.yul\":12503:12505   */\n      0x1b\n        /* \"#utility.yul\":12483:12501   */\n      0x24\n      dup3\n      add\n        /* \"#utility.yul\":12476:12506   */\n      mstore\n        /* \"#utility.yul\":12542:12571   */\n      0x4e6f7420656e6f7567682042505420746f6b656e20616d6f756e740000000000\n        /* \"#utility.yul\":12522:12540   */\n      0x44\n      dup3\n      add\n        /* \"#utility.yul\":12515:12572   */\n      mstore\n        /* \"#utility.yul\":12589:12607   */\n      0x64\n      add\n        /* \"contracts/CooperProxy.sol\":28665:28733  require(maxBPTTokenOut <= bptBalance, \"Not enough BPT token amount\") */\n      tag_99\n        /* \"#utility.yul\":12262:12613   */\n      jump\n        /* \"contracts/CooperProxy.sol\":28665:28733  require(maxBPTTokenOut <= bptBalance, \"Not enough BPT token amount\") */\n    tag_120:\n        /* \"contracts/CooperProxy.sol\":28765:28766  0 */\n      0x00\n        /* \"contracts/CooperProxy.sol\":28752:28762  bptBalance */\n      dup2\n        /* \"contracts/CooperProxy.sol\":28752:28766  bptBalance > 0 */\n      gt\n        /* \"contracts/CooperProxy.sol\":28744:28783  require(bptBalance > 0, \"invalid pool\") */\n      tag_123\n      jumpi\n      mload(0x40)\n      shl(0xe5, 0x461bcd)\n      dup2\n      mstore\n        /* \"#utility.yul\":12820:12822   */\n      0x20\n        /* \"contracts/CooperProxy.sol\":28744:28783  require(bptBalance > 0, \"invalid pool\") */\n      0x04\n      dup3\n      add\n        /* \"#utility.yul\":12802:12823   */\n      mstore\n        /* \"#utility.yul\":12859:12861   */\n      0x0c\n        /* \"#utility.yul\":12839:12857   */\n      0x24\n      dup3\n      add\n        /* \"#utility.yul\":12832:12862   */\n      mstore\n      shl(0xa2, 0x1a5b9d985b1a59081c1bdbdb)\n        /* \"#utility.yul\":12878:12896   */\n      0x44\n      dup3\n      add\n        /* \"#utility.yul\":12871:12913   */\n      mstore\n        /* \"#utility.yul\":12930:12948   */\n      0x64\n      add\n        /* \"contracts/CooperProxy.sol\":28744:28783  require(bptBalance > 0, \"invalid pool\") */\n      tag_99\n        /* \"#utility.yul\":12618:12954   */\n      jump\n        /* \"contracts/CooperProxy.sol\":28744:28783  require(bptBalance > 0, \"invalid pool\") */\n    tag_123:\n        /* \"contracts/CooperProxy.sol\":28798:28817  maxBPTTokenOut == 0 */\n      dup7\n        /* \"contracts/CooperProxy.sol\":28794:28928  if (maxBPTTokenOut == 0 ) {... */\n      tag_126\n      jumpi\n        /* \"contracts/CooperProxy.sol\":28847:28857  bptBalance */\n      dup1\n        /* \"contracts/CooperProxy.sol\":28835:28857  bptToBurn = bptBalance */\n      swap2\n      pop\n        /* \"contracts/CooperProxy.sol\":28794:28928  if (maxBPTTokenOut == 0 ) {... */\n      jump(tag_127)\n    tag_126:\n        /* \"contracts/CooperProxy.sol\":28902:28916  maxBPTTokenOut */\n      dup7\n        /* \"contracts/CooperProxy.sol\":28890:28916  bptToBurn = maxBPTTokenOut */\n      swap2\n      pop\n        /* \"contracts/CooperProxy.sol\":28794:28928  if (maxBPTTokenOut == 0 ) {... */\n    tag_127:\n        /* \"contracts/CooperProxy.sol\":28940:28961  bytes memory userData */\n      0x00\n        /* \"contracts/CooperProxy.sol\":28975:29011  ExitKind.EXACT_BPT_IN_FOR_TOKENS_OUT */\n      0x01\n        /* \"contracts/CooperProxy.sol\":29013:29022  bptToBurn */\n      dup4\n        /* \"contracts/CooperProxy.sol\":28964:29023  abi.encode(ExitKind.EXACT_BPT_IN_FOR_TOKENS_OUT, bptToBurn) */\n      add(0x20, mload(0x40))\n      tag_128\n      swap3\n      swap2\n      swap1\n      tag_129\n      jump\t// in\n    tag_128:\n      mload(0x40)\n      0x20\n      dup2\n      dup4\n      sub\n      sub\n      dup2\n      mstore\n      swap1\n      0x40\n      mstore\n        /* \"contracts/CooperProxy.sol\":28940:29023  bytes memory userData = abi.encode(ExitKind.EXACT_BPT_IN_FOR_TOKENS_OUT, bptToBurn) */\n      swap1\n      pop\n        /* \"contracts/CooperProxy.sol\":29034:29074  Vault.ExitPoolRequest memory exitRequest */\n      0x00\n        /* \"contracts/CooperProxy.sol\":29077:29142  Vault.ExitPoolRequest(poolTokens, minAmountsOut, userData, false) */\n      mload(0x40)\n      dup1\n      0x80\n      add\n      0x40\n      mstore\n      dup1\n        /* \"contracts/CooperProxy.sol\":29099:29109  poolTokens */\n      dup8\n        /* \"contracts/CooperProxy.sol\":29077:29142  Vault.ExitPoolRequest(poolTokens, minAmountsOut, userData, false) */\n      dup2\n      mstore\n      0x20\n      add\n        /* \"contracts/CooperProxy.sol\":29111:29124  minAmountsOut */\n      dup13\n      dup13\n        /* \"contracts/CooperProxy.sol\":29077:29142  Vault.ExitPoolRequest(poolTokens, minAmountsOut, userData, false) */\n      dup1\n      dup1\n      0x20\n      mul\n      0x20\n      add\n      mload(0x40)\n      swap1\n      dup2\n      add\n      0x40\n      mstore\n      dup1\n      swap4\n      swap3\n      swap2\n      swap1\n      dup2\n      dup2\n      mstore\n      0x20\n      add\n      dup4\n      dup4\n      0x20\n      mul\n      dup1\n      dup3\n      dup5\n      calldatacopy\n      0x00\n      swap3\n      add\n      dup3\n      swap1\n      mstore\n      pop\n      swap4\n      dup6\n      mstore\n      pop\n      pop\n      pop\n      0x20\n      dup3\n      add\n      dup6\n      swap1\n      mstore\n      0x40\n      swap2\n      dup3\n      add\n      mstore\n        /* \"contracts/CooperProxy.sol\":29208:29289  Vault(VAULT).exitPool(poolId, address(this), payable(address(this)), exitRequest) */\n      mload\n      shl(0xe0, 0x8bdb3913)\n      dup2\n      mstore\n        /* \"contracts/CooperProxy.sol\":29034:29142  Vault.ExitPoolRequest memory exitRequest = Vault.ExitPoolRequest(poolTokens, minAmountsOut, userData, false) */\n      swap1\n      swap2\n      pop\n        /* \"contracts/CooperProxy.sol\":22011:22053  0x20dd72Ed959b6147912C2e529F0a0C651c33c9ce */\n      0x20dd72ed959b6147912c2e529f0a0c651c33c9ce\n      swap1\n        /* \"contracts/CooperProxy.sol\":29208:29229  Vault(VAULT).exitPool */\n      0x8bdb3913\n      swap1\n        /* \"contracts/CooperProxy.sol\":29208:29289  Vault(VAULT).exitPool(poolId, address(this), payable(address(this)), exitRequest) */\n      tag_130\n      swap1\n        /* \"contracts/CooperProxy.sol\":29230:29236  poolId */\n      dup11\n      swap1\n        /* \"contracts/CooperProxy.sol\":29246:29250  this */\n      address\n      swap1\n      dup2\n      swap1\n        /* \"contracts/CooperProxy.sol\":29034:29142  Vault.ExitPoolRequest memory exitRequest = Vault.ExitPoolRequest(poolTokens, minAmountsOut, userData, false) */\n      dup8\n      swap1\n        /* \"contracts/CooperProxy.sol\":29208:29289  Vault(VAULT).exitPool(poolId, address(this), payable(address(this)), exitRequest) */\n      0x04\n      add\n      tag_131\n      jump\t// in\n    tag_130:\n      0x00\n      mload(0x40)\n      dup1\n      dup4\n      sub\n      dup2\n      0x00\n      dup8\n      dup1\n      extcodesize\n      iszero\n      dup1\n      iszero\n      tag_132\n      jumpi\n      0x00\n      dup1\n      revert\n    tag_132:\n      pop\n      gas\n      call\n      iszero\n      dup1\n      iszero\n      tag_134\n      jumpi\n      returndatasize\n      0x00\n      dup1\n      returndatacopy\n      revert(0x00, returndatasize)\n    tag_134:\n      pop\n      pop\n      pop\n      pop\n        /* \"contracts/CooperProxy.sol\":29316:29320  pool */\n      dup12\n      sub(shl(0xa0, 0x01), 0x01)\n        /* \"contracts/CooperProxy.sol\":29305:29358  ExitedPool(pool, poolTokens, minAmountsOut, userData) */\n      and\n      0xfbbb3d684cc731f4eff666c8534337f397ecf7937c1ed574f8626f6cb718cc01\n        /* \"contracts/CooperProxy.sol\":29322:29332  poolTokens */\n      dup8\n        /* \"contracts/CooperProxy.sol\":29334:29347  minAmountsOut */\n      dup14\n      dup14\n        /* \"contracts/CooperProxy.sol\":29349:29357  userData */\n      dup7\n        /* \"contracts/CooperProxy.sol\":29305:29358  ExitedPool(pool, poolTokens, minAmountsOut, userData) */\n      mload(0x40)\n      tag_135\n      swap5\n      swap4\n      swap3\n      swap2\n      swap1\n      tag_136\n      jump\t// in\n    tag_135:\n      mload(0x40)\n      dup1\n      swap2\n      sub\n      swap1\n      log2\n        /* \"contracts/CooperProxy.sol\":29426:29443  address fundToken */\n      0x00\n        /* \"contracts/CooperProxy.sol\":29446:29456  poolTokens */\n      dup7\n        /* \"contracts/CooperProxy.sol\":29457:29465  poolData */\n      dup7\n        /* \"contracts/CooperProxy.sol\":29457:29480  poolData.isCorrectOrder */\n      0x20\n      add\n      mload\n        /* \"contracts/CooperProxy.sol\":29457:29488  poolData.isCorrectOrder ? 0 : 1 */\n      tag_137\n      jumpi\n        /* \"contracts/CooperProxy.sol\":29487:29488  1 */\n      0x01\n        /* \"contracts/CooperProxy.sol\":29457:29488  poolData.isCorrectOrder ? 0 : 1 */\n      jump(tag_138)\n    tag_137:\n        /* \"contracts/CooperProxy.sol\":29483:29484  0 */\n      0x00\n        /* \"contracts/CooperProxy.sol\":29457:29488  poolData.isCorrectOrder ? 0 : 1 */\n    tag_138:\n        /* \"contracts/CooperProxy.sol\":29446:29489  poolTokens[poolData.isCorrectOrder ? 0 : 1] */\n      0xff\n      and\n      dup2\n      mload\n      dup2\n      lt\n      tag_140\n      jumpi\n      tag_140\n      tag_141\n      jump\t// in\n    tag_140:\n      0x20\n      swap1\n      dup2\n      mul\n      swap2\n      swap1\n      swap2\n      add\n      add\n      mload\n        /* \"contracts/CooperProxy.sol\":29527:29569  IERC20(fundToken).balanceOf(address(this)) */\n      mload(0x40)\n      shl(0xe0, 0x70a08231)\n      dup2\n      mstore\n        /* \"contracts/CooperProxy.sol\":29563:29567  this */\n      address\n        /* \"contracts/CooperProxy.sol\":29527:29569  IERC20(fundToken).balanceOf(address(this)) */\n      0x04\n      dup3\n      add\n        /* \"#utility.yul\":160:211   */\n      mstore\n        /* \"contracts/CooperProxy.sol\":29446:29489  poolTokens[poolData.isCorrectOrder ? 0 : 1] */\n      swap1\n      swap2\n      pop\n        /* \"contracts/CooperProxy.sol\":29500:29524  uint256 fundTokenBalance */\n      0x00\n      swap1\n      sub(shl(0xa0, 0x01), 0x01)\n        /* \"contracts/CooperProxy.sol\":29527:29554  IERC20(fundToken).balanceOf */\n      dup4\n      and\n      swap1\n      0x70a08231\n      swap1\n        /* \"#utility.yul\":133:151   */\n      0x24\n      add\n        /* \"contracts/CooperProxy.sol\":29527:29569  IERC20(fundToken).balanceOf(address(this)) */\n      0x20\n      mload(0x40)\n      dup1\n      dup4\n      sub\n      dup2\n      dup7\n      gas\n      staticcall\n      iszero\n      dup1\n      iszero\n      tag_144\n      jumpi\n      returndatasize\n      0x00\n      dup1\n      returndatacopy\n      revert(0x00, returndatasize)\n    tag_144:\n      pop\n      pop\n      pop\n      pop\n      mload(0x40)\n      returndatasize\n      not(0x1f)\n      0x1f\n      dup3\n      add\n      and\n      dup3\n      add\n      dup1\n      0x40\n      mstore\n      pop\n      dup2\n      add\n      swap1\n      tag_145\n      swap2\n      swap1\n      tag_105\n      jump\t// in\n    tag_145:\n        /* \"contracts/CooperProxy.sol\":29500:29569  uint256 fundTokenBalance = IERC20(fundToken).balanceOf(address(this)) */\n      swap1\n      pop\n        /* \"contracts/CooperProxy.sol\":29603:29611  poolData */\n      dup7\n        /* \"contracts/CooperProxy.sol\":29603:29632  poolData.fundTokenInputAmount */\n      0x40\n      add\n      mload\n        /* \"contracts/CooperProxy.sol\":29584:29600  fundTokenBalance */\n      dup2\n        /* \"contracts/CooperProxy.sol\":29584:29632  fundTokenBalance > poolData.fundTokenInputAmount */\n      gt\n        /* \"contracts/CooperProxy.sol\":29580:29907  if (fundTokenBalance > poolData.fundTokenInputAmount) {... */\n      iszero\n      tag_146\n      jumpi\n        /* \"contracts/CooperProxy.sol\":29649:29666  uint256 feeAmount */\n      0x00\n        /* \"contracts/CooperProxy.sol\":29734:29740  10_000 */\n      0x2710\n        /* \"contracts/CooperProxy.sol\":29723:29730  _feeBPS */\n      immutable(\"0x94b72f6d5810c90c68ea7d7f52a48aba033cd0249ea1144a4588f2256d6f57ff\")\n        /* \"contracts/CooperProxy.sol\":29690:29698  poolData */\n      dup10\n        /* \"contracts/CooperProxy.sol\":29690:29719  poolData.fundTokenInputAmount */\n      0x40\n      add\n      mload\n        /* \"contracts/CooperProxy.sol\":29671:29687  fundTokenBalance */\n      dup5\n        /* \"contracts/CooperProxy.sol\":29671:29719  fundTokenBalance - poolData.fundTokenInputAmount */\n      tag_147\n      swap2\n      swap1\n      tag_148\n      jump\t// in\n    tag_147:\n        /* \"contracts/CooperProxy.sol\":29670:29730  (fundTokenBalance - poolData.fundTokenInputAmount) * _feeBPS */\n      tag_149\n      swap2\n      swap1\n      tag_150\n      jump\t// in\n    tag_149:\n        /* \"contracts/CooperProxy.sol\":29669:29740  ((fundTokenBalance - poolData.fundTokenInputAmount) * _feeBPS) / 10_000 */\n      tag_151\n      swap2\n      swap1\n      tag_152\n      jump\t// in\n    tag_151:\n        /* \"contracts/CooperProxy.sol\":29794:29807  _feeRecipient */\n      sload(0x04)\n        /* \"contracts/CooperProxy.sol\":29649:29740  uint256 feeAmount = ((fundTokenBalance - poolData.fundTokenInputAmount) * _feeBPS) / 10_000 */\n      swap1\n      swap2\n      pop\n        /* \"contracts/CooperProxy.sol\":29755:29819  TransferHelper.safeTransfer(fundToken, _feeRecipient, feeAmount) */\n      tag_153\n      swap1\n        /* \"contracts/CooperProxy.sol\":29783:29792  fundToken */\n      dup5\n      swap1\n      sub(shl(0xa0, 0x01), 0x01)\n        /* \"contracts/CooperProxy.sol\":29794:29807  _feeRecipient */\n      and\n        /* \"contracts/CooperProxy.sol\":29649:29740  uint256 feeAmount = ((fundTokenBalance - poolData.fundTokenInputAmount) * _feeBPS) / 10_000 */\n      dup4\n        /* \"contracts/CooperProxy.sol\":29755:29782  TransferHelper.safeTransfer */\n      tag_154\n        /* \"contracts/CooperProxy.sol\":29755:29819  TransferHelper.safeTransfer(fundToken, _feeRecipient, feeAmount) */\n      jump\t// in\n    tag_153:\n        /* \"contracts/CooperProxy.sol\":29853:29857  pool */\n      dup15\n      sub(shl(0xa0, 0x01), 0x01)\n        /* \"contracts/CooperProxy.sol\":29839:29895  TransferedFee(pool, fundToken, _feeRecipient, feeAmount) */\n      and\n      0x52b4a48c36f647498ba38efeaed299eb5e0f7688e76359a58f55738ff7725af2\n        /* \"contracts/CooperProxy.sol\":29859:29868  fundToken */\n      dup5\n        /* \"contracts/CooperProxy.sol\":29870:29883  _feeRecipient */\n      0x04\n      0x00\n      swap1\n      sload\n      swap1\n      0x0100\n      exp\n      swap1\n      div\n      sub(shl(0xa0, 0x01), 0x01)\n      and\n        /* \"contracts/CooperProxy.sol\":29885:29894  feeAmount */\n      dup5\n        /* \"contracts/CooperProxy.sol\":29839:29895  TransferedFee(pool, fundToken, _feeRecipient, feeAmount) */\n      mload(0x40)\n      tag_155\n      swap4\n      swap3\n      swap2\n      swap1\n      tag_156\n      jump\t// in\n    tag_155:\n      mload(0x40)\n      dup1\n      swap2\n      sub\n      swap1\n      log2\n        /* \"contracts/CooperProxy.sol\":29634:29907  {... */\n      pop\n        /* \"contracts/CooperProxy.sol\":29580:29907  if (fundTokenBalance > poolData.fundTokenInputAmount) {... */\n    tag_146:\n        /* \"contracts/CooperProxy.sol\":29951:29976  uint256 firstTokenBalance */\n      0x00\n        /* \"contracts/CooperProxy.sol\":29986:29996  poolTokens */\n      dup9\n        /* \"contracts/CooperProxy.sol\":29997:29998  0 */\n      0x00\n        /* \"contracts/CooperProxy.sol\":29986:29999  poolTokens[0] */\n      dup2\n      mload\n      dup2\n      lt\n      tag_158\n      jumpi\n      tag_158\n      tag_141\n      jump\t// in\n    tag_158:\n      0x20\n      swap1\n      dup2\n      mul\n      swap2\n      swap1\n      swap2\n      add\n      add\n      mload\n        /* \"contracts/CooperProxy.sol\":29979:30025  IERC20(poolTokens[0]).balanceOf(address(this)) */\n      mload(0x40)\n      shl(0xe0, 0x70a08231)\n      dup2\n      mstore\n        /* \"contracts/CooperProxy.sol\":30019:30023  this */\n      address\n        /* \"contracts/CooperProxy.sol\":29979:30025  IERC20(poolTokens[0]).balanceOf(address(this)) */\n      0x04\n      dup3\n      add\n        /* \"#utility.yul\":160:211   */\n      mstore\n      sub(shl(0xa0, 0x01), 0x01)\n        /* \"contracts/CooperProxy.sol\":29979:30010  IERC20(poolTokens[0]).balanceOf */\n      swap1\n      swap2\n      and\n      swap1\n      0x70a08231\n      swap1\n        /* \"#utility.yul\":133:151   */\n      0x24\n      add\n        /* \"contracts/CooperProxy.sol\":29979:30025  IERC20(poolTokens[0]).balanceOf(address(this)) */\n      0x20\n      mload(0x40)\n      dup1\n      dup4\n      sub\n      dup2\n      dup7\n      gas\n      staticcall\n      iszero\n      dup1\n      iszero\n      tag_161\n      jumpi\n      returndatasize\n      0x00\n      dup1\n      returndatacopy\n      revert(0x00, returndatasize)\n    tag_161:\n      pop\n      pop\n      pop\n      pop\n      mload(0x40)\n      returndatasize\n      not(0x1f)\n      0x1f\n      dup3\n      add\n      and\n      dup3\n      add\n      dup1\n      0x40\n      mstore\n      pop\n      dup2\n      add\n      swap1\n      tag_162\n      swap2\n      swap1\n      tag_105\n      jump\t// in\n    tag_162:\n        /* \"contracts/CooperProxy.sol\":29951:30025  uint256 firstTokenBalance = IERC20(poolTokens[0]).balanceOf(address(this)) */\n      swap1\n      pop\n        /* \"contracts/CooperProxy.sol\":30036:30159  TransferHelper.safeTransfer(... */\n      tag_163\n        /* \"contracts/CooperProxy.sol\":30078:30088  poolTokens */\n      dup10\n        /* \"contracts/CooperProxy.sol\":30089:30090  0 */\n      0x00\n        /* \"contracts/CooperProxy.sol\":30078:30091  poolTokens[0] */\n      dup2\n      mload\n      dup2\n      lt\n      tag_165\n      jumpi\n      tag_165\n      tag_141\n      jump\t// in\n    tag_165:\n      0x20\n      mul\n      0x20\n      add\n      add\n      mload\n        /* \"contracts/CooperProxy.sol\":30106:30116  msg.sender */\n      caller\n        /* \"contracts/CooperProxy.sol\":30131:30148  firstTokenBalance */\n      dup4\n        /* \"contracts/CooperProxy.sol\":30036:30063  TransferHelper.safeTransfer */\n      tag_154\n        /* \"contracts/CooperProxy.sol\":30036:30159  TransferHelper.safeTransfer(... */\n      jump\t// in\n    tag_163:\n        /* \"contracts/CooperProxy.sol\":30191:30195  pool */\n      dup15\n      sub(shl(0xa0, 0x01), 0x01)\n        /* \"contracts/CooperProxy.sol\":30175:30242  TransferedToken(pool, poolTokens[0], msg.sender, firstTokenBalance) */\n      and\n      0x235d80db0a4b8dc1e99bba791b835d938cbc8cb023a88fdaba36aafd2aa9b276\n        /* \"contracts/CooperProxy.sol\":30197:30207  poolTokens */\n      dup11\n        /* \"contracts/CooperProxy.sol\":30208:30209  0 */\n      0x00\n        /* \"contracts/CooperProxy.sol\":30197:30210  poolTokens[0] */\n      dup2\n      mload\n      dup2\n      lt\n      tag_167\n      jumpi\n      tag_167\n      tag_141\n      jump\t// in\n    tag_167:\n      0x20\n      mul\n      0x20\n      add\n      add\n      mload\n        /* \"contracts/CooperProxy.sol\":30212:30222  msg.sender */\n      caller\n        /* \"contracts/CooperProxy.sol\":30224:30241  firstTokenBalance */\n      dup5\n        /* \"contracts/CooperProxy.sol\":30175:30242  TransferedToken(pool, poolTokens[0], msg.sender, firstTokenBalance) */\n      mload(0x40)\n      tag_168\n      swap4\n      swap3\n      swap2\n      swap1\n      tag_156\n      jump\t// in\n    tag_168:\n      mload(0x40)\n      dup1\n      swap2\n      sub\n      swap1\n      log2\n        /* \"contracts/CooperProxy.sol\":30255:30281  uint256 secondTokenBalance */\n      0x00\n        /* \"contracts/CooperProxy.sol\":30291:30301  poolTokens */\n      dup10\n        /* \"contracts/CooperProxy.sol\":30302:30303  1 */\n      0x01\n        /* \"contracts/CooperProxy.sol\":30291:30304  poolTokens[1] */\n      dup2\n      mload\n      dup2\n      lt\n      tag_170\n      jumpi\n      tag_170\n      tag_141\n      jump\t// in\n    tag_170:\n      0x20\n      swap1\n      dup2\n      mul\n      swap2\n      swap1\n      swap2\n      add\n      add\n      mload\n        /* \"contracts/CooperProxy.sol\":30284:30330  IERC20(poolTokens[1]).balanceOf(address(this)) */\n      mload(0x40)\n      shl(0xe0, 0x70a08231)\n      dup2\n      mstore\n        /* \"contracts/CooperProxy.sol\":30324:30328  this */\n      address\n        /* \"contracts/CooperProxy.sol\":30284:30330  IERC20(poolTokens[1]).balanceOf(address(this)) */\n      0x04\n      dup3\n      add\n        /* \"#utility.yul\":160:211   */\n      mstore\n      sub(shl(0xa0, 0x01), 0x01)\n        /* \"contracts/CooperProxy.sol\":30284:30315  IERC20(poolTokens[1]).balanceOf */\n      swap1\n      swap2\n      and\n      swap1\n      0x70a08231\n      swap1\n        /* \"#utility.yul\":133:151   */\n      0x24\n      add\n        /* \"contracts/CooperProxy.sol\":30284:30330  IERC20(poolTokens[1]).balanceOf(address(this)) */\n      0x20\n      mload(0x40)\n      dup1\n      dup4\n      sub\n      dup2\n      dup7\n      gas\n      staticcall\n      iszero\n      dup1\n      iszero\n      tag_173\n      jumpi\n      returndatasize\n      0x00\n      dup1\n      returndatacopy\n      revert(0x00, returndatasize)\n    tag_173:\n      pop\n      pop\n      pop\n      pop\n      mload(0x40)\n      returndatasize\n      not(0x1f)\n      0x1f\n      dup3\n      add\n      and\n      dup3\n      add\n      dup1\n      0x40\n      mstore\n      pop\n      dup2\n      add\n      swap1\n      tag_174\n      swap2\n      swap1\n      tag_105\n      jump\t// in\n    tag_174:\n        /* \"contracts/CooperProxy.sol\":30255:30330  uint256 secondTokenBalance = IERC20(poolTokens[1]).balanceOf(address(this)) */\n      swap1\n      pop\n        /* \"contracts/CooperProxy.sol\":30341:30465  TransferHelper.safeTransfer(... */\n      tag_175\n        /* \"contracts/CooperProxy.sol\":30383:30393  poolTokens */\n      dup11\n        /* \"contracts/CooperProxy.sol\":30394:30395  1 */\n      0x01\n        /* \"contracts/CooperProxy.sol\":30383:30396  poolTokens[1] */\n      dup2\n      mload\n      dup2\n      lt\n      tag_165\n      jumpi\n      tag_165\n      tag_141\n      jump\t// in\n        /* \"contracts/CooperProxy.sol\":30341:30465  TransferHelper.safeTransfer(... */\n    tag_175:\n        /* \"contracts/CooperProxy.sol\":30497:30501  pool */\n      dup16\n      sub(shl(0xa0, 0x01), 0x01)\n        /* \"contracts/CooperProxy.sol\":30481:30549  TransferedToken(pool, poolTokens[1], msg.sender, secondTokenBalance) */\n      and\n      0x235d80db0a4b8dc1e99bba791b835d938cbc8cb023a88fdaba36aafd2aa9b276\n        /* \"contracts/CooperProxy.sol\":30503:30513  poolTokens */\n      dup12\n        /* \"contracts/CooperProxy.sol\":30514:30515  1 */\n      0x01\n        /* \"contracts/CooperProxy.sol\":30503:30516  poolTokens[1] */\n      dup2\n      mload\n      dup2\n      lt\n      tag_179\n      jumpi\n      tag_179\n      tag_141\n      jump\t// in\n    tag_179:\n      0x20\n      mul\n      0x20\n      add\n      add\n      mload\n        /* \"contracts/CooperProxy.sol\":30518:30528  msg.sender */\n      caller\n        /* \"contracts/CooperProxy.sol\":30530:30548  secondTokenBalance */\n      dup5\n        /* \"contracts/CooperProxy.sol\":30481:30549  TransferedToken(pool, poolTokens[1], msg.sender, secondTokenBalance) */\n      mload(0x40)\n      tag_180\n      swap4\n      swap3\n      swap2\n      swap1\n      tag_156\n      jump\t// in\n    tag_180:\n      mload(0x40)\n      dup1\n      swap2\n      sub\n      swap1\n      log2\n        /* \"contracts/CooperProxy.sol\":28206:30557  {... */\n      pop\n      pop\n      pop\n      pop\n      pop\n      pop\n      pop\n      pop\n      pop\n      pop\n      pop\n        /* \"contracts/CooperProxy.sol\":28087:30557  function exitPool(address pool, uint256[] calldata minAmountsOut, uint256 maxBPTTokenOut) external onlyPoolOwner(pool) {... */\n      pop\n      pop\n      pop\n      pop\n      pop\n      jump\t// out\n        /* \"contracts/CooperProxy.sol\":23967:24080  function getPoolAt(uint256 index) external view returns (address pool) {... */\n    tag_36:\n        /* \"contracts/CooperProxy.sol\":24024:24036  address pool */\n      0x00\n        /* \"contracts/CooperProxy.sol\":24056:24072  _pools.at(index) */\n      tag_182\n        /* \"contracts/CooperProxy.sol\":24056:24062  _pools */\n      0x02\n        /* \"contracts/CooperProxy.sol\":24066:24071  index */\n      dup4\n        /* \"contracts/CooperProxy.sol\":24056:24065  _pools.at */\n      tag_183\n        /* \"contracts/CooperProxy.sol\":24056:24072  _pools.at(index) */\n      jump\t// in\n    tag_182:\n        /* \"contracts/CooperProxy.sol\":24049:24072  return _pools.at(index) */\n      swap3\n        /* \"contracts/CooperProxy.sol\":23967:24080  function getPoolAt(uint256 index) external view returns (address pool) {... */\n      swap2\n      pop\n      pop\n      jump\t// out\n        /* \"contracts/CooperProxy.sol\":30565:30809  function changeFeeRecipient(address newRecipient) external onlyOwner {... */\n    tag_46:\n        /* \"contracts/CooperProxy.sol\":18675:18682  address */\n      0x00\n        /* \"contracts/CooperProxy.sol\":18702:18708  _owner */\n      sload\n      sub(shl(0xa0, 0x01), 0x01)\n      and\n        /* \"contracts/CooperProxy.sol\":17556:17566  msg.sender */\n      caller\n        /* \"contracts/CooperProxy.sol\":18849:18872  owner() == _msgSender() */\n      eq\n        /* \"contracts/CooperProxy.sol\":18841:18909  require(owner() == _msgSender(), \"Ownable: caller is not the owner\") */\n      tag_191\n      jumpi\n      mload(0x40)\n      shl(0xe5, 0x461bcd)\n      dup2\n      mstore\n      0x04\n      add\n      tag_99\n      swap1\n      tag_193\n      jump\t// in\n    tag_191:\n        /* \"contracts/CooperProxy.sol\":30677:30690  _feeRecipient */\n      0x04\n      dup1\n      sload\n      sub(shl(0xa0, 0x01), 0x01)\n        /* \"contracts/CooperProxy.sol\":30701:30729  _feeRecipient = newRecipient */\n      dup4\n      dup2\n      and\n      not(sub(shl(0xa0, 0x01), 0x01))\n      dup4\n      and\n      dup2\n      or\n      swap1\n      swap4\n      sstore\n        /* \"contracts/CooperProxy.sol\":30745:30801  ChangedFeeRecipient(previousFeeReciepient, newRecipient) */\n      0x40\n      dup1\n      mload\n        /* \"contracts/CooperProxy.sol\":30677:30690  _feeRecipient */\n      swap2\n      swap1\n      swap3\n      and\n        /* \"#utility.yul\":18569:18603   */\n      dup1\n      dup3\n      mstore\n        /* \"#utility.yul\":18634:18636   */\n      0x20\n        /* \"#utility.yul\":18619:18637   */\n      dup3\n      add\n        /* \"#utility.yul\":18612:18655   */\n      swap4\n      swap1\n      swap4\n      mstore\n        /* \"contracts/CooperProxy.sol\":30745:30801  ChangedFeeRecipient(previousFeeReciepient, newRecipient) */\n      0xc335ca37f71e695337f94e5078421114aee3f4c5d97e824efaf8578318e5e8c8\n      swap2\n        /* \"#utility.yul\":18504:18522   */\n      add\n        /* \"contracts/CooperProxy.sol\":30745:30801  ChangedFeeRecipient(previousFeeReciepient, newRecipient) */\n      mload(0x40)\n      dup1\n      swap2\n      sub\n      swap1\n      log1\n        /* \"contracts/CooperProxy.sol\":30634:30809  {... */\n      pop\n        /* \"contracts/CooperProxy.sol\":30565:30809  function changeFeeRecipient(address newRecipient) external onlyOwner {... */\n      pop\n      jump\t// out\n        /* \"contracts/CooperProxy.sol\":24832:27096  function createAuction(PoolConfig memory poolConfig) external returns (address) {... */\n    tag_53:\n        /* \"contracts/CooperProxy.sol\":24903:24910  address */\n      0x00\n        /* \"contracts/CooperProxy.sol\":24979:24989  poolConfig */\n      dup2\n        /* \"contracts/CooperProxy.sol\":24979:24996  poolConfig.tokens */\n      0x40\n      add\n      mload\n        /* \"contracts/CooperProxy.sol\":24979:25003  poolConfig.tokens.length */\n      mload\n        /* \"contracts/CooperProxy.sol\":25007:25008  2 */\n      0x02\n        /* \"contracts/CooperProxy.sol\":24979:25008  poolConfig.tokens.length == 2 */\n      eq\n        /* \"contracts/CooperProxy.sol\":24971:25028  require(poolConfig.tokens.length == 2, \"only two tokens\") */\n      tag_198\n      jumpi\n      mload(0x40)\n      shl(0xe5, 0x461bcd)\n      dup2\n      mstore\n        /* \"#utility.yul\":18868:18870   */\n      0x20\n        /* \"contracts/CooperProxy.sol\":24971:25028  require(poolConfig.tokens.length == 2, \"only two tokens\") */\n      0x04\n      dup3\n      add\n        /* \"#utility.yul\":18850:18871   */\n      mstore\n        /* \"#utility.yul\":18907:18909   */\n      0x0f\n        /* \"#utility.yul\":18887:18905   */\n      0x24\n      dup3\n      add\n        /* \"#utility.yul\":18880:18910   */\n      mstore\n      shl(0x88, 0x6f6e6c792074776f20746f6b656e73)\n        /* \"#utility.yul\":18926:18944   */\n      0x44\n      dup3\n      add\n        /* \"#utility.yul\":18919:18964   */\n      mstore\n        /* \"#utility.yul\":18981:18999   */\n      0x64\n      add\n        /* \"contracts/CooperProxy.sol\":24971:25028  require(poolConfig.tokens.length == 2, \"only two tokens\") */\n      tag_99\n        /* \"#utility.yul\":18666:19005   */\n      jump\n        /* \"contracts/CooperProxy.sol\":24971:25028  require(poolConfig.tokens.length == 2, \"only two tokens\") */\n    tag_198:\n        /* \"contracts/CooperProxy.sol\":25039:25142  TransferHelper.safeTransferFrom(poolConfig.tokens[0], msg.sender, address(this), poolConfig.amounts[0]) */\n      tag_201\n        /* \"contracts/CooperProxy.sol\":25071:25081  poolConfig */\n      dup3\n        /* \"contracts/CooperProxy.sol\":25071:25088  poolConfig.tokens */\n      0x40\n      add\n      mload\n        /* \"contracts/CooperProxy.sol\":25089:25090  0 */\n      0x00\n        /* \"contracts/CooperProxy.sol\":25071:25091  poolConfig.tokens[0] */\n      dup2\n      mload\n      dup2\n      lt\n      tag_203\n      jumpi\n      tag_203\n      tag_141\n      jump\t// in\n    tag_203:\n      0x20\n      mul\n      0x20\n      add\n      add\n      mload\n        /* \"contracts/CooperProxy.sol\":25093:25103  msg.sender */\n      caller\n        /* \"contracts/CooperProxy.sol\":25113:25117  this */\n      address\n        /* \"contracts/CooperProxy.sol\":25120:25130  poolConfig */\n      dup6\n        /* \"contracts/CooperProxy.sol\":25120:25138  poolConfig.amounts */\n      0x60\n      add\n      mload\n        /* \"contracts/CooperProxy.sol\":25139:25140  0 */\n      0x00\n        /* \"contracts/CooperProxy.sol\":25120:25141  poolConfig.amounts[0] */\n      dup2\n      mload\n      dup2\n      lt\n      tag_205\n      jumpi\n      tag_205\n      tag_141\n      jump\t// in\n    tag_205:\n      0x20\n      mul\n      0x20\n      add\n      add\n      mload\n        /* \"contracts/CooperProxy.sol\":25039:25070  TransferHelper.safeTransferFrom */\n      tag_206\n        /* \"contracts/CooperProxy.sol\":25039:25142  TransferHelper.safeTransferFrom(poolConfig.tokens[0], msg.sender, address(this), poolConfig.amounts[0]) */\n      jump\t// in\n    tag_201:\n        /* \"contracts/CooperProxy.sol\":25153:25256  TransferHelper.safeTransferFrom(poolConfig.tokens[1], msg.sender, address(this), poolConfig.amounts[1]) */\n      tag_207\n        /* \"contracts/CooperProxy.sol\":25185:25195  poolConfig */\n      dup3\n        /* \"contracts/CooperProxy.sol\":25185:25202  poolConfig.tokens */\n      0x40\n      add\n      mload\n        /* \"contracts/CooperProxy.sol\":25203:25204  1 */\n      0x01\n        /* \"contracts/CooperProxy.sol\":25185:25205  poolConfig.tokens[1] */\n      dup2\n      mload\n      dup2\n      lt\n      tag_209\n      jumpi\n      tag_209\n      tag_141\n      jump\t// in\n    tag_209:\n      0x20\n      mul\n      0x20\n      add\n      add\n      mload\n        /* \"contracts/CooperProxy.sol\":25207:25217  msg.sender */\n      caller\n        /* \"contracts/CooperProxy.sol\":25227:25231  this */\n      address\n        /* \"contracts/CooperProxy.sol\":25234:25244  poolConfig */\n      dup6\n        /* \"contracts/CooperProxy.sol\":25234:25252  poolConfig.amounts */\n      0x60\n      add\n      mload\n        /* \"contracts/CooperProxy.sol\":25253:25254  1 */\n      0x01\n        /* \"contracts/CooperProxy.sol\":25234:25255  poolConfig.amounts[1] */\n      dup2\n      mload\n      dup2\n      lt\n      tag_205\n      jumpi\n      tag_205\n      tag_141\n      jump\t// in\n        /* \"contracts/CooperProxy.sol\":25153:25256  TransferHelper.safeTransferFrom(poolConfig.tokens[1], msg.sender, address(this), poolConfig.amounts[1]) */\n    tag_207:\n        /* \"contracts/CooperProxy.sol\":25267:25345  TransferHelper.safeApprove(poolConfig.tokens[0], VAULT, poolConfig.amounts[0]) */\n      tag_212\n        /* \"contracts/CooperProxy.sol\":25294:25304  poolConfig */\n      dup3\n        /* \"contracts/CooperProxy.sol\":25294:25311  poolConfig.tokens */\n      0x40\n      add\n      mload\n        /* \"contracts/CooperProxy.sol\":25312:25313  0 */\n      0x00\n        /* \"contracts/CooperProxy.sol\":25294:25314  poolConfig.tokens[0] */\n      dup2\n      mload\n      dup2\n      lt\n      tag_214\n      jumpi\n      tag_214\n      tag_141\n      jump\t// in\n    tag_214:\n      0x20\n      mul\n      0x20\n      add\n      add\n      mload\n        /* \"contracts/CooperProxy.sol\":22011:22053  0x20dd72Ed959b6147912C2e529F0a0C651c33c9ce */\n      0x20dd72ed959b6147912c2e529f0a0c651c33c9ce\n        /* \"contracts/CooperProxy.sol\":25323:25333  poolConfig */\n      dup5\n        /* \"contracts/CooperProxy.sol\":25323:25341  poolConfig.amounts */\n      0x60\n      add\n      mload\n        /* \"contracts/CooperProxy.sol\":25342:25343  0 */\n      0x00\n        /* \"contracts/CooperProxy.sol\":25323:25344  poolConfig.amounts[0] */\n      dup2\n      mload\n      dup2\n      lt\n      tag_216\n      jumpi\n      tag_216\n      tag_141\n      jump\t// in\n    tag_216:\n      0x20\n      mul\n      0x20\n      add\n      add\n      mload\n        /* \"contracts/CooperProxy.sol\":25267:25293  TransferHelper.safeApprove */\n      tag_217\n        /* \"contracts/CooperProxy.sol\":25267:25345  TransferHelper.safeApprove(poolConfig.tokens[0], VAULT, poolConfig.amounts[0]) */\n      jump\t// in\n    tag_212:\n        /* \"contracts/CooperProxy.sol\":25356:25434  TransferHelper.safeApprove(poolConfig.tokens[1], VAULT, poolConfig.amounts[1]) */\n      tag_218\n        /* \"contracts/CooperProxy.sol\":25383:25393  poolConfig */\n      dup3\n        /* \"contracts/CooperProxy.sol\":25383:25400  poolConfig.tokens */\n      0x40\n      add\n      mload\n        /* \"contracts/CooperProxy.sol\":25401:25402  1 */\n      0x01\n        /* \"contracts/CooperProxy.sol\":25383:25403  poolConfig.tokens[1] */\n      dup2\n      mload\n      dup2\n      lt\n      tag_220\n      jumpi\n      tag_220\n      tag_141\n      jump\t// in\n    tag_220:\n      0x20\n      mul\n      0x20\n      add\n      add\n      mload\n        /* \"contracts/CooperProxy.sol\":22011:22053  0x20dd72Ed959b6147912C2e529F0a0C651c33c9ce */\n      0x20dd72ed959b6147912c2e529f0a0c651c33c9ce\n        /* \"contracts/CooperProxy.sol\":25412:25422  poolConfig */\n      dup5\n        /* \"contracts/CooperProxy.sol\":25412:25430  poolConfig.amounts */\n      0x60\n      add\n      mload\n        /* \"contracts/CooperProxy.sol\":25431:25432  1 */\n      0x01\n        /* \"contracts/CooperProxy.sol\":25412:25433  poolConfig.amounts[1] */\n      dup2\n      mload\n      dup2\n      lt\n      tag_216\n      jumpi\n      tag_216\n      tag_141\n      jump\t// in\n        /* \"contracts/CooperProxy.sol\":25356:25434  TransferHelper.safeApprove(poolConfig.tokens[1], VAULT, poolConfig.amounts[1]) */\n    tag_218:\n        /* \"contracts/CooperProxy.sol\":25543:25558  poolConfig.name */\n      dup2\n      mload\n        /* \"contracts/CooperProxy.sol\":25573:25590  poolConfig.symbol */\n      0x20\n      dup4\n      add\n      mload\n        /* \"contracts/CooperProxy.sol\":25605:25622  poolConfig.tokens */\n      0x40\n      dup1\n      dup6\n      add\n      mload\n        /* \"contracts/CooperProxy.sol\":25637:25655  poolConfig.weights */\n      0x80\n      dup7\n      add\n      mload\n        /* \"contracts/CooperProxy.sol\":25670:25698  poolConfig.swapFeePercentage */\n      0xe0\n      dup8\n      add\n      mload\n        /* \"contracts/CooperProxy.sol\":25491:25811  LBPFactory(_LBPFactoryAddress).create(... */\n      swap3\n      mload\n      shl(0xe0, 0x23679719)\n      dup2\n      mstore\n        /* \"contracts/CooperProxy.sol\":25476:25488  address pool */\n      0x00\n      swap6\n      sub(shl(0xa0, 0x01), 0x01)\n        /* \"contracts/CooperProxy.sol\":25502:25520  _LBPFactoryAddress */\n      immutable(\"0xcc1cf32daa775edd624f71ddb0d100d39c31c65becb67e6d2e7789fa58c10fe0\")\n        /* \"contracts/CooperProxy.sol\":25491:25528  LBPFactory(_LBPFactoryAddress).create */\n      and\n      swap6\n      0x23679719\n      swap6\n        /* \"contracts/CooperProxy.sol\":25491:25811  LBPFactory(_LBPFactoryAddress).create(... */\n      tag_223\n      swap6\n        /* \"contracts/CooperProxy.sol\":25543:25558  poolConfig.name */\n      swap3\n      swap5\n        /* \"contracts/CooperProxy.sol\":25573:25590  poolConfig.symbol */\n      swap2\n      swap4\n        /* \"contracts/CooperProxy.sol\":25721:25725  this */\n      address\n      swap1\n        /* \"contracts/CooperProxy.sol\":25476:25488  address pool */\n      dup11\n      swap1\n        /* \"contracts/CooperProxy.sol\":25491:25811  LBPFactory(_LBPFactoryAddress).create(... */\n      0x04\n      add\n      tag_224\n      jump\t// in\n    tag_223:\n      0x20\n      mload(0x40)\n      dup1\n      dup4\n      sub\n      dup2\n      0x00\n      dup8\n      gas\n      call\n      iszero\n      dup1\n      iszero\n      tag_226\n      jumpi\n      returndatasize\n      0x00\n      dup1\n      returndatacopy\n      revert(0x00, returndatasize)\n    tag_226:\n      pop\n      pop\n      pop\n      pop\n      mload(0x40)\n      returndatasize\n      not(0x1f)\n      0x1f\n      dup3\n      add\n      and\n      dup3\n      add\n      dup1\n      0x40\n      mstore\n      pop\n      dup2\n      add\n      swap1\n      tag_227\n      swap2\n      swap1\n      tag_228\n      jump\t// in\n    tag_227:\n        /* \"contracts/CooperProxy.sol\":25476:25811  address pool = LBPFactory(_LBPFactoryAddress).create(... */\n      swap1\n      pop\n        /* \"contracts/CooperProxy.sol\":25824:25838  bytes32 poolId */\n      0x00\n        /* \"contracts/CooperProxy.sol\":25845:25849  pool */\n      dup2\n      sub(shl(0xa0, 0x01), 0x01)\n        /* \"contracts/CooperProxy.sol\":25841:25860  LBP(pool).getPoolId */\n      and\n      0x38fff2d0\n        /* \"contracts/CooperProxy.sol\":25841:25862  LBP(pool).getPoolId() */\n      mload(0x40)\n      dup2\n      0xffffffff\n      and\n      0xe0\n      shl\n      dup2\n      mstore\n      0x04\n      add\n      0x20\n      mload(0x40)\n      dup1\n      dup4\n      sub\n      dup2\n      0x00\n      dup8\n      gas\n      call\n      iszero\n      dup1\n      iszero\n      tag_230\n      jumpi\n      returndatasize\n      0x00\n      dup1\n      returndatacopy\n      revert(0x00, returndatasize)\n    tag_230:\n      pop\n      pop\n      pop\n      pop\n      mload(0x40)\n      returndatasize\n      not(0x1f)\n      0x1f\n      dup3\n      add\n      and\n      dup3\n      add\n      dup1\n      0x40\n      mstore\n      pop\n      dup2\n      add\n      swap1\n      tag_231\n      swap2\n      swap1\n      tag_105\n      jump\t// in\n    tag_231:\n        /* \"contracts/CooperProxy.sol\":25824:25862  bytes32 poolId = LBP(pool).getPoolId() */\n      swap1\n      pop\n        /* \"contracts/CooperProxy.sol\":25904:25908  pool */\n      dup2\n      sub(shl(0xa0, 0x01), 0x01)\n        /* \"contracts/CooperProxy.sol\":25878:26158  PoolCreated(... */\n      and\n      0x2b416ce78f01c3304331a3a35005ee09bfb64c878f2be9849fc9909101bc61ac\n        /* \"contracts/CooperProxy.sol\":25923:25929  poolId */\n      dup3\n        /* \"contracts/CooperProxy.sol\":25944:25954  poolConfig */\n      dup7\n        /* \"contracts/CooperProxy.sol\":25944:25959  poolConfig.name */\n      0x00\n      add\n      mload\n        /* \"contracts/CooperProxy.sol\":25974:25984  poolConfig */\n      dup8\n        /* \"contracts/CooperProxy.sol\":25974:25991  poolConfig.symbol */\n      0x20\n      add\n      mload\n        /* \"contracts/CooperProxy.sol\":26006:26016  poolConfig */\n      dup9\n        /* \"contracts/CooperProxy.sol\":26006:26023  poolConfig.tokens */\n      0x40\n      add\n      mload\n        /* \"contracts/CooperProxy.sol\":26038:26048  poolConfig */\n      dup10\n        /* \"contracts/CooperProxy.sol\":26038:26056  poolConfig.weights */\n      0x80\n      add\n      mload\n        /* \"contracts/CooperProxy.sol\":26071:26081  poolConfig */\n      dup11\n        /* \"contracts/CooperProxy.sol\":26071:26099  poolConfig.swapFeePercentage */\n      0xe0\n      add\n      mload\n        /* \"contracts/CooperProxy.sol\":26122:26126  this */\n      address\n        /* \"contracts/CooperProxy.sol\":26142:26147  false */\n      0x00\n        /* \"contracts/CooperProxy.sol\":25878:26158  PoolCreated(... */\n      mload(0x40)\n      tag_232\n      swap9\n      swap8\n      swap7\n      swap6\n      swap5\n      swap4\n      swap3\n      swap2\n      swap1\n      tag_233\n      jump\t// in\n    tag_232:\n      mload(0x40)\n      dup1\n      swap2\n      sub\n      swap1\n      log2\n        /* \"contracts/CooperProxy.sol\":26220:26372  PoolData(... */\n      mload(0x40)\n      dup1\n      0x60\n      add\n      0x40\n      mstore\n      dup1\n        /* \"contracts/CooperProxy.sol\":26243:26253  msg.sender */\n      caller\n      sub(shl(0xa0, 0x01), 0x01)\n        /* \"contracts/CooperProxy.sol\":26220:26372  PoolData(... */\n      and\n      dup2\n      mstore\n      0x20\n      add\n        /* \"contracts/CooperProxy.sol\":26268:26278  poolConfig */\n      dup6\n        /* \"contracts/CooperProxy.sol\":26268:26293  poolConfig.isCorrectOrder */\n      0xc0\n      add\n      mload\n        /* \"contracts/CooperProxy.sol\":26220:26372  PoolData(... */\n      iszero\n      iszero\n      dup2\n      mstore\n      0x20\n      add\n        /* \"contracts/CooperProxy.sol\":26308:26318  poolConfig */\n      dup6\n        /* \"contracts/CooperProxy.sol\":26308:26326  poolConfig.amounts */\n      0x60\n      add\n      mload\n        /* \"contracts/CooperProxy.sol\":26327:26337  poolConfig */\n      dup7\n        /* \"contracts/CooperProxy.sol\":26327:26352  poolConfig.isCorrectOrder */\n      0xc0\n      add\n      mload\n        /* \"contracts/CooperProxy.sol\":26327:26360  poolConfig.isCorrectOrder ? 0 : 1 */\n      tag_234\n      jumpi\n        /* \"contracts/CooperProxy.sol\":26359:26360  1 */\n      0x01\n        /* \"contracts/CooperProxy.sol\":26327:26360  poolConfig.isCorrectOrder ? 0 : 1 */\n      jump(tag_235)\n    tag_234:\n        /* \"contracts/CooperProxy.sol\":26355:26356  0 */\n      0x00\n        /* \"contracts/CooperProxy.sol\":26327:26360  poolConfig.isCorrectOrder ? 0 : 1 */\n    tag_235:\n        /* \"contracts/CooperProxy.sol\":26308:26361  poolConfig.amounts[poolConfig.isCorrectOrder ? 0 : 1] */\n      0xff\n      and\n      dup2\n      mload\n      dup2\n      lt\n      tag_237\n      jumpi\n      tag_237\n      tag_141\n      jump\t// in\n    tag_237:\n      0x20\n      swap1\n      dup2\n      mul\n      swap2\n      swap1\n      swap2\n      add\n      dup2\n      add\n      mload\n        /* \"contracts/CooperProxy.sol\":26220:26372  PoolData(... */\n      swap1\n      swap2\n      mstore\n      sub(shl(0xa0, 0x01), 0x01)\n        /* \"contracts/CooperProxy.sol\":26202:26217  _poolData[pool] */\n      dup1\n      dup6\n      and\n      0x00\n      swap1\n      dup2\n      mstore\n        /* \"contracts/CooperProxy.sol\":26202:26211  _poolData */\n      0x01\n        /* \"contracts/CooperProxy.sol\":26202:26217  _poolData[pool] */\n      dup1\n      dup5\n      mstore\n      0x40\n      swap2\n      dup3\n      swap1\n      keccak256\n        /* \"contracts/CooperProxy.sol\":26202:26372  _poolData[pool] = PoolData(... */\n      dup6\n      mload\n      dup2\n      sload\n      swap6\n      dup8\n      add\n      mload\n      iszero\n      iszero\n      shl(0xa0, 0x01)\n      mul\n      not(sub(shl(0xa8, 0x01), 0x01))\n      swap1\n      swap7\n      and\n      swap5\n      and\n      swap4\n      swap1\n      swap4\n      or\n      swap4\n      swap1\n      swap4\n      or\n      dup3\n      sstore\n      swap3\n      swap1\n      swap3\n      add\n      mload\n      swap2\n      add\n      sstore\n        /* \"contracts/CooperProxy.sol\":26391:26407  _pools.add(pool) */\n      tag_238\n        /* \"contracts/CooperProxy.sol\":26391:26397  _pools */\n      0x02\n        /* \"contracts/CooperProxy.sol\":26212:26216  pool */\n      dup4\n        /* \"contracts/CooperProxy.sol\":26391:26401  _pools.add */\n      tag_239\n        /* \"contracts/CooperProxy.sol\":26391:26407  _pools.add(pool) */\n      jump\t// in\n    tag_238:\n        /* \"contracts/CooperProxy.sol\":26383:26426  require(_pools.add(pool), \"exists already\") */\n      tag_240\n      jumpi\n      mload(0x40)\n      shl(0xe5, 0x461bcd)\n      dup2\n      mstore\n        /* \"#utility.yul\":21656:21658   */\n      0x20\n        /* \"contracts/CooperProxy.sol\":26383:26426  require(_pools.add(pool), \"exists already\") */\n      0x04\n      dup3\n      add\n        /* \"#utility.yul\":21638:21659   */\n      mstore\n        /* \"#utility.yul\":21695:21697   */\n      0x0e\n        /* \"#utility.yul\":21675:21693   */\n      0x24\n      dup3\n      add\n        /* \"#utility.yul\":21668:21698   */\n      mstore\n      shl(0x90, 0x65786973747320616c7265616479)\n        /* \"#utility.yul\":21714:21732   */\n      0x44\n      dup3\n      add\n        /* \"#utility.yul\":21707:21751   */\n      mstore\n        /* \"#utility.yul\":21768:21786   */\n      0x64\n      add\n        /* \"contracts/CooperProxy.sol\":26383:26426  require(_pools.add(pool), \"exists already\") */\n      tag_99\n        /* \"#utility.yul\":21454:21792   */\n      jump\n        /* \"contracts/CooperProxy.sol\":26383:26426  require(_pools.add(pool), \"exists already\") */\n    tag_240:\n        /* \"contracts/CooperProxy.sol\":26615:26703  Vault.JoinPoolRequest(poolConfig.tokens, poolConfig.amounts, poolConfig.userData, false) */\n      0x40\n      dup1\n      mload\n      0x80\n      dup2\n      add\n      dup3\n      mstore\n        /* \"contracts/CooperProxy.sol\":26637:26654  poolConfig.tokens */\n      dup6\n      dup3\n      add\n      mload\n        /* \"contracts/CooperProxy.sol\":26615:26703  Vault.JoinPoolRequest(poolConfig.tokens, poolConfig.amounts, poolConfig.userData, false) */\n      dup2\n      mstore\n        /* \"contracts/CooperProxy.sol\":26656:26674  poolConfig.amounts */\n      0x60\n      dup1\n      dup8\n      add\n      mload\n        /* \"contracts/CooperProxy.sol\":26615:26703  Vault.JoinPoolRequest(poolConfig.tokens, poolConfig.amounts, poolConfig.userData, false) */\n      0x20\n      dup4\n      add\n      mstore\n        /* \"contracts/CooperProxy.sol\":26676:26695  poolConfig.userData */\n      0x0100\n      dup8\n      add\n      mload\n        /* \"contracts/CooperProxy.sol\":26615:26703  Vault.JoinPoolRequest(poolConfig.tokens, poolConfig.amounts, poolConfig.userData, false) */\n      dup3\n      dup5\n      add\n      mstore\n      0x00\n      swap1\n      dup3\n      add\n      mstore\n        /* \"contracts/CooperProxy.sol\":26479:26714  Vault(VAULT).joinPool(... */\n      swap1\n      mload\n      shl(0xe3, 0x172b9585)\n      dup2\n      mstore\n        /* \"contracts/CooperProxy.sol\":22011:22053  0x20dd72Ed959b6147912C2e529F0a0C651c33c9ce */\n      0x20dd72ed959b6147912c2e529f0a0c651c33c9ce\n      swap2\n        /* \"contracts/CooperProxy.sol\":26479:26500  Vault(VAULT).joinPool */\n      0xb95cac28\n      swap2\n        /* \"contracts/CooperProxy.sol\":26479:26714  Vault(VAULT).joinPool(... */\n      tag_243\n      swap2\n        /* \"contracts/CooperProxy.sol\":26515:26521  poolId */\n      dup6\n      swap2\n        /* \"contracts/CooperProxy.sol\":26544:26548  this */\n      address\n      swap2\n      dup3\n      swap2\n        /* \"contracts/CooperProxy.sol\":26479:26714  Vault(VAULT).joinPool(... */\n      0x04\n      add\n      tag_131\n      jump\t// in\n    tag_243:\n      0x00\n      mload(0x40)\n      dup1\n      dup4\n      sub\n      dup2\n      0x00\n      dup8\n      dup1\n      extcodesize\n      iszero\n      dup1\n      iszero\n      tag_245\n      jumpi\n      0x00\n      dup1\n      revert\n    tag_245:\n      pop\n      gas\n      call\n      iszero\n      dup1\n      iszero\n      tag_247\n      jumpi\n      returndatasize\n      0x00\n      dup1\n      returndatacopy\n      revert(0x00, returndatasize)\n    tag_247:\n      pop\n      pop\n      pop\n      pop\n        /* \"contracts/CooperProxy.sol\":26741:26745  pool */\n      dup2\n      sub(shl(0xa0, 0x01), 0x01)\n        /* \"contracts/CooperProxy.sol\":26730:26806  JoinedPool(pool, poolConfig.tokens, poolConfig.amounts, poolConfig.userData) */\n      and\n      0x5dcdc6c8b7b09c26d0c867e99f2b7389b69d982aa8f10b1373f84667a8f58b35\n        /* \"contracts/CooperProxy.sol\":26747:26757  poolConfig */\n      dup6\n        /* \"contracts/CooperProxy.sol\":26747:26764  poolConfig.tokens */\n      0x40\n      add\n      mload\n        /* \"contracts/CooperProxy.sol\":26766:26776  poolConfig */\n      dup7\n        /* \"contracts/CooperProxy.sol\":26766:26784  poolConfig.amounts */\n      0x60\n      add\n      mload\n        /* \"contracts/CooperProxy.sol\":26786:26796  poolConfig */\n      dup8\n        /* \"contracts/CooperProxy.sol\":26786:26805  poolConfig.userData */\n      0x0100\n      add\n      mload\n        /* \"contracts/CooperProxy.sol\":26730:26806  JoinedPool(pool, poolConfig.tokens, poolConfig.amounts, poolConfig.userData) */\n      mload(0x40)\n      tag_248\n      swap4\n      swap3\n      swap2\n      swap1\n      tag_249\n      jump\t// in\n    tag_248:\n      mload(0x40)\n      dup1\n      swap2\n      sub\n      swap1\n      log2\n        /* \"contracts/CooperProxy.sol\":26856:26860  pool */\n      dup2\n      sub(shl(0xa0, 0x01), 0x01)\n        /* \"contracts/CooperProxy.sol\":26852:26884  LBP(pool).updateWeightsGradually */\n      and\n      0x3e569205\n        /* \"contracts/CooperProxy.sol\":26885:26895  poolConfig */\n      dup6\n        /* \"contracts/CooperProxy.sol\":26885:26905  poolConfig.startTime */\n      0x0120\n      add\n      mload\n        /* \"contracts/CooperProxy.sol\":26907:26917  poolConfig */\n      dup7\n        /* \"contracts/CooperProxy.sol\":26907:26925  poolConfig.endTime */\n      0x0140\n      add\n      mload\n        /* \"contracts/CooperProxy.sol\":26927:26937  poolConfig */\n      dup8\n        /* \"contracts/CooperProxy.sol\":26927:26948  poolConfig.endWeights */\n      0xa0\n      add\n      mload\n        /* \"contracts/CooperProxy.sol\":26852:26949  LBP(pool).updateWeightsGradually(poolConfig.startTime, poolConfig.endTime, poolConfig.endWeights) */\n      mload(0x40)\n      dup5\n      0xffffffff\n      and\n      0xe0\n      shl\n      dup2\n      mstore\n      0x04\n      add\n      tag_250\n      swap4\n      swap3\n      swap2\n      swap1\n      tag_251\n      jump\t// in\n    tag_250:\n      0x00\n      mload(0x40)\n      dup1\n      dup4\n      sub\n      dup2\n      0x00\n      dup8\n      dup1\n      extcodesize\n      iszero\n      dup1\n      iszero\n      tag_252\n      jumpi\n      0x00\n      dup1\n      revert\n    tag_252:\n      pop\n      gas\n      call\n      iszero\n      dup1\n      iszero\n      tag_254\n      jumpi\n      returndatasize\n      0x00\n      dup1\n      returndatacopy\n      revert(0x00, returndatasize)\n    tag_254:\n      pop\n      pop\n      pop\n      pop\n        /* \"contracts/CooperProxy.sol\":26994:26998  pool */\n      dup2\n      sub(shl(0xa0, 0x01), 0x01)\n        /* \"contracts/CooperProxy.sol\":26965:27064  GradualWeightUpdateScheduled(pool, poolConfig.startTime, poolConfig.endTime, poolConfig.endWeights) */\n      and\n      0x5b604c3eb0508fc702242270d353c7673f02b609e03862e244766785e39c278c\n        /* \"contracts/CooperProxy.sol\":27000:27010  poolConfig */\n      dup6\n        /* \"contracts/CooperProxy.sol\":27000:27020  poolConfig.startTime */\n      0x0120\n      add\n      mload\n        /* \"contracts/CooperProxy.sol\":27022:27032  poolConfig */\n      dup7\n        /* \"contracts/CooperProxy.sol\":27022:27040  poolConfig.endTime */\n      0x0140\n      add\n      mload\n        /* \"contracts/CooperProxy.sol\":27042:27052  poolConfig */\n      dup8\n        /* \"contracts/CooperProxy.sol\":27042:27063  poolConfig.endWeights */\n      0xa0\n      add\n      mload\n        /* \"contracts/CooperProxy.sol\":26965:27064  GradualWeightUpdateScheduled(pool, poolConfig.startTime, poolConfig.endTime, poolConfig.endWeights) */\n      mload(0x40)\n      tag_255\n      swap4\n      swap3\n      swap2\n      swap1\n      tag_251\n      jump\t// in\n    tag_255:\n      mload(0x40)\n      dup1\n      swap2\n      sub\n      swap1\n      log2\n      pop\n        /* \"contracts/CooperProxy.sol\":27084:27088  pool */\n      swap3\n        /* \"contracts/CooperProxy.sol\":24832:27096  function createAuction(PoolConfig memory poolConfig) external returns (address) {... */\n      swap2\n      pop\n      pop\n      jump\t// out\n        /* \"contracts/CooperProxy.sol\":27104:27294  function setSwapEnabled(address pool, bool swapEnabled) external onlyPoolOwner(pool) {... */\n    tag_58:\n      sub(shl(0xa0, 0x01), 0x01)\n        /* \"contracts/CooperProxy.sol\":23679:23694  _poolData[pool] */\n      dup3\n      dup2\n      and\n      0x00\n      swap1\n      dup2\n      mstore\n        /* \"contracts/CooperProxy.sol\":23679:23688  _poolData */\n      0x01\n        /* \"contracts/CooperProxy.sol\":23679:23694  _poolData[pool] */\n      0x20\n      mstore\n      0x40\n      swap1\n      keccak256\n        /* \"contracts/CooperProxy.sol\":23679:23700  _poolData[pool].owner */\n      sload\n        /* \"contracts/CooperProxy.sol\":23679:23694  _poolData[pool] */\n      dup4\n      swap2\n        /* \"contracts/CooperProxy.sol\":23679:23700  _poolData[pool].owner */\n      and\n        /* \"contracts/CooperProxy.sol\":23665:23675  msg.sender */\n      caller\n        /* \"contracts/CooperProxy.sol\":23665:23700  msg.sender == _poolData[pool].owner */\n      eq\n        /* \"contracts/CooperProxy.sol\":23657:23711  require(msg.sender == _poolData[pool].owner, \"!owner\") */\n      tag_257\n      jumpi\n      mload(0x40)\n      shl(0xe5, 0x461bcd)\n      dup2\n      mstore\n      0x04\n      add\n      tag_99\n      swap1\n      tag_100\n      jump\t// in\n    tag_257:\n        /* \"contracts/CooperProxy.sol\":27200:27237  LBP(pool).setSwapEnabled(swapEnabled) */\n      mload(0x40)\n      shl(0xe2, 0x3806be4b)\n      dup2\n      mstore\n        /* \"#utility.yul\":7746:7760   */\n      dup3\n      iszero\n        /* \"#utility.yul\":7739:7761   */\n      iszero\n        /* \"contracts/CooperProxy.sol\":27200:27237  LBP(pool).setSwapEnabled(swapEnabled) */\n      0x04\n      dup3\n      add\n        /* \"#utility.yul\":7721:7762   */\n      mstore\n      sub(shl(0xa0, 0x01), 0x01)\n        /* \"contracts/CooperProxy.sol\":27200:27224  LBP(pool).setSwapEnabled */\n      dup5\n      and\n      swap1\n      0xe01af92c\n      swap1\n        /* \"#utility.yul\":7694:7712   */\n      0x24\n      add\n        /* \"contracts/CooperProxy.sol\":27200:27237  LBP(pool).setSwapEnabled(swapEnabled) */\n      0x00\n      mload(0x40)\n      dup1\n      dup4\n      sub\n      dup2\n      0x00\n      dup8\n      dup1\n      extcodesize\n      iszero\n      dup1\n      iszero\n      tag_261\n      jumpi\n      0x00\n      dup1\n      revert\n    tag_261:\n      pop\n      gas\n      call\n      iszero\n      dup1\n      iszero\n      tag_263\n      jumpi\n      returndatasize\n      0x00\n      dup1\n      returndatacopy\n      revert(0x00, returndatasize)\n    tag_263:\n      pop\n      pop\n      pop\n      pop\n        /* \"contracts/CooperProxy.sol\":27268:27272  pool */\n      dup3\n      sub(shl(0xa0, 0x01), 0x01)\n        /* \"contracts/CooperProxy.sol\":27253:27286  SwapEnabledSet(pool, swapEnabled) */\n      and\n      0xdc5bc5b27f91cbe9bad8b85e20c9519fb6d126629108f16d474af76579696ea9\n        /* \"contracts/CooperProxy.sol\":27274:27285  swapEnabled */\n      dup4\n        /* \"contracts/CooperProxy.sol\":27253:27286  SwapEnabledSet(pool, swapEnabled) */\n      mload(0x40)\n      tag_264\n      swap2\n        /* \"#utility.yul\":7746:7760   */\n      iszero\n        /* \"#utility.yul\":7739:7761   */\n      iszero\n        /* \"#utility.yul\":7721:7762   */\n      dup2\n      mstore\n        /* \"#utility.yul\":7709:7711   */\n      0x20\n        /* \"#utility.yul\":7694:7712   */\n      add\n      swap1\n        /* \"#utility.yul\":7581:7768   */\n      jump\n        /* \"contracts/CooperProxy.sol\":27253:27286  SwapEnabledSet(pool, swapEnabled) */\n    tag_264:\n      mload(0x40)\n      dup1\n      swap2\n      sub\n      swap1\n      log2\n        /* \"contracts/CooperProxy.sol\":27104:27294  function setSwapEnabled(address pool, bool swapEnabled) external onlyPoolOwner(pool) {... */\n      pop\n      pop\n      pop\n      jump\t// out\n        /* \"contracts/CooperProxy.sol\":23739:23851  function isPool(address pool) external view returns (bool valid) {... */\n    tag_61:\n        /* \"contracts/CooperProxy.sol\":23792:23802  bool valid */\n      0x00\n        /* \"contracts/CooperProxy.sol\":23822:23843  _pools.contains(pool) */\n      tag_182\n        /* \"contracts/CooperProxy.sol\":23822:23828  _pools */\n      0x02\n        /* \"contracts/CooperProxy.sol\":23838:23842  pool */\n      dup4\n        /* \"contracts/CooperProxy.sol\":23822:23837  _pools.contains */\n      tag_267\n        /* \"contracts/CooperProxy.sol\":23822:23843  _pools.contains(pool) */\n      jump\t// in\n        /* \"contracts/CooperProxy.sol\":24088:24196  function getPools() external view returns (address[] memory pools) {... */\n    tag_65:\n        /* \"contracts/CooperProxy.sol\":24131:24153  address[] memory pools */\n      0x60\n        /* \"contracts/CooperProxy.sol\":24173:24188  _pools.values() */\n      tag_269\n        /* \"contracts/CooperProxy.sol\":24173:24179  _pools */\n      0x02\n        /* \"contracts/CooperProxy.sol\":24173:24186  _pools.values */\n      tag_270\n        /* \"contracts/CooperProxy.sol\":24173:24188  _pools.values() */\n      jump\t// in\n    tag_269:\n        /* \"contracts/CooperProxy.sol\":24166:24188  return _pools.values() */\n      swap1\n      pop\n        /* \"contracts/CooperProxy.sol\":24088:24196  function getPools() external view returns (address[] memory pools) {... */\n      swap1\n      jump\t// out\n        /* \"contracts/CooperProxy.sol\":30817:31141  function skim(address token, address recipient) external onlyOwner {... */\n    tag_71:\n        /* \"contracts/CooperProxy.sol\":18675:18682  address */\n      0x00\n        /* \"contracts/CooperProxy.sol\":18702:18708  _owner */\n      sload\n      sub(shl(0xa0, 0x01), 0x01)\n      and\n        /* \"contracts/CooperProxy.sol\":17556:17566  msg.sender */\n      caller\n        /* \"contracts/CooperProxy.sol\":18849:18872  owner() == _msgSender() */\n      eq\n        /* \"contracts/CooperProxy.sol\":18841:18909  require(owner() == _msgSender(), \"Ownable: caller is not the owner\") */\n      tag_274\n      jumpi\n      mload(0x40)\n      shl(0xe5, 0x461bcd)\n      dup2\n      mstore\n      0x04\n      add\n      tag_99\n      swap1\n      tag_193\n      jump\t// in\n    tag_274:\n        /* \"contracts/CooperProxy.sol\":30904:30926  _pools.contains(token) */\n      tag_277\n        /* \"contracts/CooperProxy.sol\":30904:30910  _pools */\n      0x02\n        /* \"contracts/CooperProxy.sol\":30920:30925  token */\n      dup4\n        /* \"contracts/CooperProxy.sol\":30904:30919  _pools.contains */\n      tag_267\n        /* \"contracts/CooperProxy.sol\":30904:30926  _pools.contains(token) */\n      jump\t// in\n    tag_277:\n        /* \"contracts/CooperProxy.sol\":30903:30926  !_pools.contains(token) */\n      iszero\n        /* \"contracts/CooperProxy.sol\":30895:30951  require(!_pools.contains(token), \"can't skim LBP token\") */\n      tag_278\n      jumpi\n      mload(0x40)\n      shl(0xe5, 0x461bcd)\n      dup2\n      mstore\n        /* \"#utility.yul\":23593:23595   */\n      0x20\n        /* \"contracts/CooperProxy.sol\":30895:30951  require(!_pools.contains(token), \"can't skim LBP token\") */\n      0x04\n      dup3\n      add\n        /* \"#utility.yul\":23575:23596   */\n      mstore\n        /* \"#utility.yul\":23632:23634   */\n      0x14\n        /* \"#utility.yul\":23612:23630   */\n      0x24\n      dup3\n      add\n        /* \"#utility.yul\":23605:23635   */\n      mstore\n      shl(0x61, 0x31b0b713ba1039b5b4b690262128103a37b5b2b7)\n        /* \"#utility.yul\":23651:23669   */\n      0x44\n      dup3\n      add\n        /* \"#utility.yul\":23644:23694   */\n      mstore\n        /* \"#utility.yul\":23711:23729   */\n      0x64\n      add\n        /* \"contracts/CooperProxy.sol\":30895:30951  require(!_pools.contains(token), \"can't skim LBP token\") */\n      tag_99\n        /* \"#utility.yul\":23391:23735   */\n      jump\n        /* \"contracts/CooperProxy.sol\":30895:30951  require(!_pools.contains(token), \"can't skim LBP token\") */\n    tag_278:\n        /* \"contracts/CooperProxy.sol\":30980:31018  IERC20(token).balanceOf(address(this)) */\n      mload(0x40)\n      shl(0xe0, 0x70a08231)\n      dup2\n      mstore\n        /* \"contracts/CooperProxy.sol\":31012:31016  this */\n      address\n        /* \"contracts/CooperProxy.sol\":30980:31018  IERC20(token).balanceOf(address(this)) */\n      0x04\n      dup3\n      add\n        /* \"#utility.yul\":160:211   */\n      mstore\n        /* \"contracts/CooperProxy.sol\":30962:30977  uint256 balance */\n      0x00\n      swap1\n      sub(shl(0xa0, 0x01), 0x01)\n        /* \"contracts/CooperProxy.sol\":30980:31003  IERC20(token).balanceOf */\n      dup5\n      and\n      swap1\n      0x70a08231\n      swap1\n        /* \"#utility.yul\":133:151   */\n      0x24\n      add\n        /* \"contracts/CooperProxy.sol\":30980:31018  IERC20(token).balanceOf(address(this)) */\n      0x20\n      mload(0x40)\n      dup1\n      dup4\n      sub\n      dup2\n      dup7\n      gas\n      staticcall\n      iszero\n      dup1\n      iszero\n      tag_283\n      jumpi\n      returndatasize\n      0x00\n      dup1\n      returndatacopy\n      revert(0x00, returndatasize)\n    tag_283:\n      pop\n      pop\n      pop\n      pop\n      mload(0x40)\n      returndatasize\n      not(0x1f)\n      0x1f\n      dup3\n      add\n      and\n      dup3\n      add\n      dup1\n      0x40\n      mstore\n      pop\n      dup2\n      add\n      swap1\n      tag_284\n      swap2\n      swap1\n      tag_105\n      jump\t// in\n    tag_284:\n        /* \"contracts/CooperProxy.sol\":30962:31018  uint256 balance = IERC20(token).balanceOf(address(this)) */\n      swap1\n      pop\n        /* \"contracts/CooperProxy.sol\":31029:31083  TransferHelper.safeTransfer(token, recipient, balance) */\n      tag_285\n        /* \"contracts/CooperProxy.sol\":31057:31062  token */\n      dup4\n        /* \"contracts/CooperProxy.sol\":31064:31073  recipient */\n      dup4\n        /* \"contracts/CooperProxy.sol\":31075:31082  balance */\n      dup4\n        /* \"contracts/CooperProxy.sol\":31029:31056  TransferHelper.safeTransfer */\n      tag_154\n        /* \"contracts/CooperProxy.sol\":31029:31083  TransferHelper.safeTransfer(token, recipient, balance) */\n      jump\t// in\n    tag_285:\n        /* \"contracts/CooperProxy.sol\":31099:31133  Skimmed(token, recipient, balance) */\n      0x0cfb7d414a57e3fd35da9f4b61341e65026c225646228ba0262d9264f541c32e\n        /* \"contracts/CooperProxy.sol\":31107:31112  token */\n      dup4\n        /* \"contracts/CooperProxy.sol\":31114:31123  recipient */\n      dup4\n        /* \"contracts/CooperProxy.sol\":31125:31132  balance */\n      dup4\n        /* \"contracts/CooperProxy.sol\":31099:31133  Skimmed(token, recipient, balance) */\n      mload(0x40)\n      tag_286\n      swap4\n      swap3\n      swap2\n      swap1\n      tag_156\n      jump\t// in\n    tag_286:\n      mload(0x40)\n      dup1\n      swap2\n      sub\n      swap1\n      log1\n        /* \"contracts/CooperProxy.sol\":30884:31141  {... */\n      pop\n        /* \"contracts/CooperProxy.sol\":30817:31141  function skim(address token, address recipient) external onlyOwner {... */\n      pop\n      pop\n      jump\t// out\n        /* \"contracts/CooperProxy.sol\":19280:19374  function renounceOwnership() public virtual onlyOwner {... */\n    tag_73:\n        /* \"contracts/CooperProxy.sol\":18675:18682  address */\n      0x00\n        /* \"contracts/CooperProxy.sol\":18702:18708  _owner */\n      sload\n      sub(shl(0xa0, 0x01), 0x01)\n      and\n        /* \"contracts/CooperProxy.sol\":17556:17566  msg.sender */\n      caller\n        /* \"contracts/CooperProxy.sol\":18849:18872  owner() == _msgSender() */\n      eq\n        /* \"contracts/CooperProxy.sol\":18841:18909  require(owner() == _msgSender(), \"Ownable: caller is not the owner\") */\n      tag_290\n      jumpi\n      mload(0x40)\n      shl(0xe5, 0x461bcd)\n      dup2\n      mstore\n      0x04\n      add\n      tag_99\n      swap1\n      tag_193\n      jump\t// in\n    tag_290:\n        /* \"contracts/CooperProxy.sol\":19345:19366  _setOwner(address(0)) */\n      tag_293\n        /* \"contracts/CooperProxy.sol\":19363:19364  0 */\n      0x00\n        /* \"contracts/CooperProxy.sol\":19345:19354  _setOwner */\n      tag_294\n        /* \"contracts/CooperProxy.sol\":19345:19366  _setOwner(address(0)) */\n      jump\t// in\n    tag_293:\n        /* \"contracts/CooperProxy.sol\":19280:19374  function renounceOwnership() public virtual onlyOwner {... */\n      jump\t// out\n        /* \"contracts/CooperProxy.sol\":24337:24485  function getBPTTokenBalance(address pool) external view returns (uint256 bptBalance) {... */\n    tag_86:\n        /* \"contracts/CooperProxy.sol\":24440:24477  IERC20(pool).balanceOf(address(this)) */\n      mload(0x40)\n      shl(0xe0, 0x70a08231)\n      dup2\n      mstore\n        /* \"contracts/CooperProxy.sol\":24471:24475  this */\n      address\n        /* \"contracts/CooperProxy.sol\":24440:24477  IERC20(pool).balanceOf(address(this)) */\n      0x04\n      dup3\n      add\n        /* \"#utility.yul\":160:211   */\n      mstore\n        /* \"contracts/CooperProxy.sol\":24402:24420  uint256 bptBalance */\n      0x00\n      swap1\n      sub(shl(0xa0, 0x01), 0x01)\n        /* \"contracts/CooperProxy.sol\":24440:24462  IERC20(pool).balanceOf */\n      dup4\n      and\n      swap1\n      0x70a08231\n      swap1\n        /* \"#utility.yul\":133:151   */\n      0x24\n      add\n        /* \"contracts/CooperProxy.sol\":24440:24477  IERC20(pool).balanceOf(address(this)) */\n      0x20\n      mload(0x40)\n      dup1\n      dup4\n      sub\n      dup2\n      dup7\n      gas\n      staticcall\n      iszero\n      dup1\n      iszero\n      tag_299\n      jumpi\n      returndatasize\n      0x00\n      dup1\n      returndatacopy\n      revert(0x00, returndatasize)\n    tag_299:\n      pop\n      pop\n      pop\n      pop\n      mload(0x40)\n      returndatasize\n      not(0x1f)\n      0x1f\n      dup3\n      add\n      and\n      dup3\n      add\n      dup1\n      0x40\n      mstore\n      pop\n      dup2\n      add\n      swap1\n      tag_182\n      swap2\n      swap1\n      tag_105\n      jump\t// in\n        /* \"contracts/CooperProxy.sol\":27302:27571  function transferPoolOwnership(address pool, address newOwner) external onlyPoolOwner(pool) {... */\n    tag_90:\n      sub(shl(0xa0, 0x01), 0x01)\n        /* \"contracts/CooperProxy.sol\":23679:23694  _poolData[pool] */\n      dup3\n      dup2\n      and\n      0x00\n      swap1\n      dup2\n      mstore\n        /* \"contracts/CooperProxy.sol\":23679:23688  _poolData */\n      0x01\n        /* \"contracts/CooperProxy.sol\":23679:23694  _poolData[pool] */\n      0x20\n      mstore\n      0x40\n      swap1\n      keccak256\n        /* \"contracts/CooperProxy.sol\":23679:23700  _poolData[pool].owner */\n      sload\n        /* \"contracts/CooperProxy.sol\":23679:23694  _poolData[pool] */\n      dup4\n      swap2\n        /* \"contracts/CooperProxy.sol\":23679:23700  _poolData[pool].owner */\n      and\n        /* \"contracts/CooperProxy.sol\":23665:23675  msg.sender */\n      caller\n        /* \"contracts/CooperProxy.sol\":23665:23700  msg.sender == _poolData[pool].owner */\n      eq\n        /* \"contracts/CooperProxy.sol\":23657:23711  require(msg.sender == _poolData[pool].owner, \"!owner\") */\n      tag_302\n      jumpi\n      mload(0x40)\n      shl(0xe5, 0x461bcd)\n      dup2\n      mstore\n      0x04\n      add\n      tag_99\n      swap1\n      tag_100\n      jump\t// in\n    tag_302:\n      sub(shl(0xa0, 0x01), 0x01)\n        /* \"contracts/CooperProxy.sol\":27429:27444  _poolData[pool] */\n      dup4\n      dup2\n      and\n        /* \"contracts/CooperProxy.sol\":27405:27426  address previousOwner */\n      0x00\n        /* \"contracts/CooperProxy.sol\":27429:27444  _poolData[pool] */\n      dup2\n      dup2\n      mstore\n        /* \"contracts/CooperProxy.sol\":27429:27438  _poolData */\n      0x01\n        /* \"contracts/CooperProxy.sol\":27429:27444  _poolData[pool] */\n      0x20\n      swap1\n      dup2\n      mstore\n      0x40\n      swap2\n      dup3\n      swap1\n      keccak256\n        /* \"contracts/CooperProxy.sol\":27429:27450  _poolData[pool].owner */\n      dup1\n      sload\n        /* \"contracts/CooperProxy.sol\":27461:27493  _poolData[pool].owner = newOwner */\n      dup8\n      dup7\n      and\n      not(sub(shl(0xa0, 0x01), 0x01))\n      dup3\n      and\n      dup2\n      or\n      swap1\n      swap3\n      sstore\n        /* \"contracts/CooperProxy.sol\":27509:27563  TransferedPoolOwnership(pool, previousOwner, newOwner) */\n      dup4\n      mload\n        /* \"contracts/CooperProxy.sol\":27429:27450  _poolData[pool].owner */\n      swap6\n      and\n        /* \"#utility.yul\":18569:18603   */\n      dup1\n      dup7\n      mstore\n        /* \"#utility.yul\":18619:18637   */\n      swap2\n      dup6\n      add\n        /* \"#utility.yul\":18612:18655   */\n      mstore\n        /* \"contracts/CooperProxy.sol\":27429:27450  _poolData[pool].owner */\n      swap3\n        /* \"contracts/CooperProxy.sol\":27509:27563  TransferedPoolOwnership(pool, previousOwner, newOwner) */\n      0x794fb907c01822765502a338368bdc2f31ef538f609dcc19be5629fee0cedcd8\n      swap2\n        /* \"#utility.yul\":18504:18522   */\n      add\n        /* \"contracts/CooperProxy.sol\":27509:27563  TransferedPoolOwnership(pool, previousOwner, newOwner) */\n      mload(0x40)\n      dup1\n      swap2\n      sub\n      swap1\n      log2\n        /* \"contracts/CooperProxy.sol\":27394:27571  {... */\n      pop\n        /* \"contracts/CooperProxy.sol\":27302:27571  function transferPoolOwnership(address pool, address newOwner) external onlyPoolOwner(pool) {... */\n      pop\n      pop\n      pop\n      jump\t// out\n        /* \"contracts/CooperProxy.sol\":19529:19721  function transferOwnership(address newOwner) public virtual onlyOwner {... */\n    tag_93:\n        /* \"contracts/CooperProxy.sol\":18675:18682  address */\n      0x00\n        /* \"contracts/CooperProxy.sol\":18702:18708  _owner */\n      sload\n      sub(shl(0xa0, 0x01), 0x01)\n      and\n        /* \"contracts/CooperProxy.sol\":17556:17566  msg.sender */\n      caller\n        /* \"contracts/CooperProxy.sol\":18849:18872  owner() == _msgSender() */\n      eq\n        /* \"contracts/CooperProxy.sol\":18841:18909  require(owner() == _msgSender(), \"Ownable: caller is not the owner\") */\n      tag_309\n      jumpi\n      mload(0x40)\n      shl(0xe5, 0x461bcd)\n      dup2\n      mstore\n      0x04\n      add\n      tag_99\n      swap1\n      tag_193\n      jump\t// in\n    tag_309:\n      sub(shl(0xa0, 0x01), 0x01)\n        /* \"contracts/CooperProxy.sol\":19618:19640  newOwner != address(0) */\n      dup2\n      and\n        /* \"contracts/CooperProxy.sol\":19610:19683  require(newOwner != address(0), \"Ownable: new owner is the zero address\") */\n      tag_312\n      jumpi\n      mload(0x40)\n      shl(0xe5, 0x461bcd)\n      dup2\n      mstore\n        /* \"#utility.yul\":23942:23944   */\n      0x20\n        /* \"contracts/CooperProxy.sol\":19610:19683  require(newOwner != address(0), \"Ownable: new owner is the zero address\") */\n      0x04\n      dup3\n      add\n        /* \"#utility.yul\":23924:23945   */\n      mstore\n        /* \"#utility.yul\":23981:23983   */\n      0x26\n        /* \"#utility.yul\":23961:23979   */\n      0x24\n      dup3\n      add\n        /* \"#utility.yul\":23954:23984   */\n      mstore\n        /* \"#utility.yul\":24020:24054   */\n      0x4f776e61626c653a206e6577206f776e657220697320746865207a65726f2061\n        /* \"#utility.yul\":24000:24018   */\n      0x44\n      dup3\n      add\n        /* \"#utility.yul\":23993:24055   */\n      mstore\n      shl(0xd0, 0x646472657373)\n        /* \"#utility.yul\":24071:24089   */\n      0x64\n      dup3\n      add\n        /* \"#utility.yul\":24064:24100   */\n      mstore\n        /* \"#utility.yul\":24117:24136   */\n      0x84\n      add\n        /* \"contracts/CooperProxy.sol\":19610:19683  require(newOwner != address(0), \"Ownable: new owner is the zero address\") */\n      tag_99\n        /* \"#utility.yul\":23740:24142   */\n      jump\n        /* \"contracts/CooperProxy.sol\":19610:19683  require(newOwner != address(0), \"Ownable: new owner is the zero address\") */\n    tag_312:\n        /* \"contracts/CooperProxy.sol\":19694:19713  _setOwner(newOwner) */\n      tag_315\n        /* \"contracts/CooperProxy.sol\":19704:19712  newOwner */\n      dup2\n        /* \"contracts/CooperProxy.sol\":19694:19703  _setOwner */\n      tag_294\n        /* \"contracts/CooperProxy.sol\":19694:19713  _setOwner(newOwner) */\n      jump\t// in\n    tag_315:\n        /* \"contracts/CooperProxy.sol\":19529:19721  function transferOwnership(address newOwner) public virtual onlyOwner {... */\n      pop\n      jump\t// out\n        /* \"contracts/CooperProxy.sol\":23859:23959  function poolCount() external view returns (uint256 count) {... */\n    tag_95:\n        /* \"contracts/CooperProxy.sol\":23903:23916  uint256 count */\n      0x00\n        /* \"contracts/CooperProxy.sol\":23936:23951  _pools.length() */\n      tag_269\n        /* \"contracts/CooperProxy.sol\":23936:23942  _pools */\n      0x02\n        /* \"contracts/CooperProxy.sol\":23936:23949  _pools.length */\n      tag_318\n        /* \"contracts/CooperProxy.sol\":23936:23951  _pools.length() */\n      jump\t// in\n        /* \"contracts/CooperProxy.sol\":511:960  function safeTransfer(... */\n    tag_154:\n        /* \"contracts/CooperProxy.sol\":743:788  abi.encodeWithSelector(0xa9059cbb, to, value) */\n      0x40\n      dup1\n      mload\n      sub(shl(0xa0, 0x01), 0x01)\n        /* \"#utility.yul\":24339:24371   */\n      dup5\n      dup2\n      and\n        /* \"contracts/CooperProxy.sol\":743:788  abi.encodeWithSelector(0xa9059cbb, to, value) */\n      0x24\n      dup4\n      add\n        /* \"#utility.yul\":24321:24372   */\n      mstore\n        /* \"#utility.yul\":24388:24406   */\n      0x44\n      dup1\n      dup4\n      add\n        /* \"#utility.yul\":24381:24415   */\n      dup6\n      swap1\n      mstore\n        /* \"contracts/CooperProxy.sol\":743:788  abi.encodeWithSelector(0xa9059cbb, to, value) */\n      dup4\n      mload\n      dup1\n      dup5\n      sub\n      swap1\n      swap2\n      add\n      dup2\n      mstore\n        /* \"#utility.yul\":24294:24312   */\n      0x64\n      swap1\n      swap3\n      add\n        /* \"contracts/CooperProxy.sol\":743:788  abi.encodeWithSelector(0xa9059cbb, to, value) */\n      dup4\n      mstore\n      0x20\n      dup3\n      add\n      dup1\n      mload\n      sub(shl(0xe0, 0x01), 0x01)\n      and\n      shl(0xe0, 0xa9059cbb)\n      or\n      swap1\n      mstore\n        /* \"contracts/CooperProxy.sol\":732:789  token.call(abi.encodeWithSelector(0xa9059cbb, to, value)) */\n      swap2\n      mload\n      0x00\n      swap3\n      dup4\n      swap3\n        /* \"contracts/CooperProxy.sol\":732:742  token.call */\n      swap1\n      dup8\n      and\n      swap2\n        /* \"contracts/CooperProxy.sol\":732:789  token.call(abi.encodeWithSelector(0xa9059cbb, to, value)) */\n      tag_322\n      swap2\n        /* \"contracts/CooperProxy.sol\":743:788  abi.encodeWithSelector(0xa9059cbb, to, value) */\n      swap1\n        /* \"contracts/CooperProxy.sol\":732:789  token.call(abi.encodeWithSelector(0xa9059cbb, to, value)) */\n      tag_323\n      jump\t// in\n    tag_322:\n      0x00\n      mload(0x40)\n      dup1\n      dup4\n      sub\n      dup2\n      0x00\n      dup7\n      gas\n      call\n      swap2\n      pop\n      pop\n      returndatasize\n      dup1\n      0x00\n      dup2\n      eq\n      tag_326\n      jumpi\n      mload(0x40)\n      swap2\n      pop\n      and(add(returndatasize, 0x3f), not(0x1f))\n      dup3\n      add\n      0x40\n      mstore\n      returndatasize\n      dup3\n      mstore\n      returndatasize\n      0x00\n      0x20\n      dup5\n      add\n      returndatacopy\n      jump(tag_325)\n    tag_326:\n      0x60\n      swap2\n      pop\n    tag_325:\n      pop\n        /* \"contracts/CooperProxy.sol\":696:789  (bool success, bytes memory data) = token.call(abi.encodeWithSelector(0xa9059cbb, to, value)) */\n      swap2\n      pop\n      swap2\n      pop\n        /* \"contracts/CooperProxy.sol\":822:829  success */\n      dup2\n        /* \"contracts/CooperProxy.sol\":822:879  success && (data.length == 0 || abi.decode(data, (bool))) */\n      dup1\n      iszero\n      tag_329\n      jumpi\n      pop\n        /* \"contracts/CooperProxy.sol\":834:845  data.length */\n      dup1\n      mload\n        /* \"contracts/CooperProxy.sol\":834:850  data.length == 0 */\n      iszero\n      dup1\n        /* \"contracts/CooperProxy.sol\":834:878  data.length == 0 || abi.decode(data, (bool)) */\n      tag_329\n      jumpi\n      pop\n        /* \"contracts/CooperProxy.sol\":865:869  data */\n      dup1\n        /* \"contracts/CooperProxy.sol\":854:878  abi.decode(data, (bool)) */\n      dup1\n      0x20\n      add\n      swap1\n      mload\n      dup2\n      add\n      swap1\n      tag_329\n      swap2\n      swap1\n      tag_330\n      jump\t// in\n    tag_329:\n        /* \"contracts/CooperProxy.sol\":800:952  require(... */\n      tag_331\n      jumpi\n      mload(0x40)\n      shl(0xe5, 0x461bcd)\n      dup2\n      mstore\n        /* \"#utility.yul\":25157:25159   */\n      0x20\n        /* \"contracts/CooperProxy.sol\":800:952  require(... */\n      0x04\n      dup3\n      add\n        /* \"#utility.yul\":25139:25160   */\n      mstore\n        /* \"#utility.yul\":25196:25198   */\n      0x2d\n        /* \"#utility.yul\":25176:25194   */\n      0x24\n      dup3\n      add\n        /* \"#utility.yul\":25169:25199   */\n      mstore\n        /* \"#utility.yul\":25235:25269   */\n      0x5472616e7366657248656c7065723a3a736166655472616e736665723a207472\n        /* \"#utility.yul\":25215:25233   */\n      0x44\n      dup3\n      add\n        /* \"#utility.yul\":25208:25270   */\n      mstore\n      shl(0x9a, 0x185b9cd9995c8819985a5b1959)\n        /* \"#utility.yul\":25286:25304   */\n      0x64\n      dup3\n      add\n        /* \"#utility.yul\":25279:25322   */\n      mstore\n        /* \"#utility.yul\":25339:25358   */\n      0x84\n      add\n        /* \"contracts/CooperProxy.sol\":800:952  require(... */\n      tag_99\n        /* \"#utility.yul\":24955:25364   */\n      jump\n        /* \"contracts/CooperProxy.sol\":800:952  require(... */\n    tag_331:\n        /* \"contracts/CooperProxy.sol\":618:960  {... */\n      pop\n      pop\n        /* \"contracts/CooperProxy.sol\":511:960  function safeTransfer(... */\n      pop\n      pop\n      pop\n      jump\t// out\n        /* \"contracts/CooperProxy.sol\":13500:13658  function at(AddressSet storage set, uint256 index) internal view returns (address) {... */\n    tag_183:\n        /* \"contracts/CooperProxy.sol\":13574:13581  address */\n      0x00\n        /* \"contracts/CooperProxy.sol\":13625:13647  _at(set._inner, index) */\n      tag_335\n        /* \"contracts/CooperProxy.sol\":13629:13632  set */\n      dup4\n        /* \"contracts/CooperProxy.sol\":13641:13646  index */\n      dup4\n        /* \"contracts/CooperProxy.sol\":13625:13628  _at */\n      tag_336\n        /* \"contracts/CooperProxy.sol\":13625:13647  _at(set._inner, index) */\n      jump\t// in\n    tag_335:\n        /* \"contracts/CooperProxy.sol\":13617:13648  uint256(_at(set._inner, index)) */\n      swap4\n        /* \"contracts/CooperProxy.sol\":13500:13658  function at(AddressSet storage set, uint256 index) internal view returns (address) {... */\n      swap3\n      pop\n      pop\n      pop\n      jump\t// out\n        /* \"contracts/CooperProxy.sol\":968:1466  function safeTransferFrom(... */\n    tag_206:\n        /* \"contracts/CooperProxy.sol\":1193:1205  bool success */\n      0x00\n        /* \"contracts/CooperProxy.sol\":1207:1224  bytes memory data */\n      dup1\n        /* \"contracts/CooperProxy.sol\":1228:1233  token */\n      dup6\n      sub(shl(0xa0, 0x01), 0x01)\n        /* \"contracts/CooperProxy.sol\":1228:1238  token.call */\n      and\n        /* \"contracts/CooperProxy.sol\":1262:1272  0x23b872dd */\n      0x23b872dd\n        /* \"contracts/CooperProxy.sol\":1274:1278  from */\n      dup7\n        /* \"contracts/CooperProxy.sol\":1280:1282  to */\n      dup7\n        /* \"contracts/CooperProxy.sol\":1284:1289  value */\n      dup7\n        /* \"contracts/CooperProxy.sol\":1239:1290  abi.encodeWithSelector(0x23b872dd, from, to, value) */\n      add(0x24, mload(0x40))\n      tag_339\n      swap4\n      swap3\n      swap2\n      swap1\n      tag_156\n      jump\t// in\n    tag_339:\n      mload(0x40)\n      0x20\n      dup2\n      dup4\n      sub\n      sub\n      dup2\n      mstore\n      swap1\n      0x40\n      mstore\n      swap1\n      0xe0\n      shl\n      0x20\n      dup3\n      add\n      dup1\n      mload\n      sub(shl(0xe0, 0x01), 0x01)\n      dup4\n      dup2\n      dup4\n      and\n      or\n      dup4\n      mstore\n      pop\n      pop\n      pop\n      pop\n        /* \"contracts/CooperProxy.sol\":1228:1291  token.call(abi.encodeWithSelector(0x23b872dd, from, to, value)) */\n      mload(0x40)\n      tag_340\n      swap2\n      swap1\n      tag_323\n      jump\t// in\n    tag_340:\n      0x00\n      mload(0x40)\n      dup1\n      dup4\n      sub\n      dup2\n      0x00\n      dup7\n      gas\n      call\n      swap2\n      pop\n      pop\n      returndatasize\n      dup1\n      0x00\n      dup2\n      eq\n      tag_343\n      jumpi\n      mload(0x40)\n      swap2\n      pop\n      and(add(returndatasize, 0x3f), not(0x1f))\n      dup3\n      add\n      0x40\n      mstore\n      returndatasize\n      dup3\n      mstore\n      returndatasize\n      0x00\n      0x20\n      dup5\n      add\n      returndatacopy\n      jump(tag_342)\n    tag_343:\n      0x60\n      swap2\n      pop\n    tag_342:\n      pop\n        /* \"contracts/CooperProxy.sol\":1192:1291  (bool success, bytes memory data) = token.call(abi.encodeWithSelector(0x23b872dd, from, to, value)) */\n      swap2\n      pop\n      swap2\n      pop\n        /* \"contracts/CooperProxy.sol\":1324:1331  success */\n      dup2\n        /* \"contracts/CooperProxy.sol\":1324:1381  success && (data.length == 0 || abi.decode(data, (bool))) */\n      dup1\n      iszero\n      tag_346\n      jumpi\n      pop\n        /* \"contracts/CooperProxy.sol\":1336:1347  data.length */\n      dup1\n      mload\n        /* \"contracts/CooperProxy.sol\":1336:1352  data.length == 0 */\n      iszero\n      dup1\n        /* \"contracts/CooperProxy.sol\":1336:1380  data.length == 0 || abi.decode(data, (bool)) */\n      tag_346\n      jumpi\n      pop\n        /* \"contracts/CooperProxy.sol\":1367:1371  data */\n      dup1\n        /* \"contracts/CooperProxy.sol\":1356:1380  abi.decode(data, (bool)) */\n      dup1\n      0x20\n      add\n      swap1\n      mload\n      dup2\n      add\n      swap1\n      tag_346\n      swap2\n      swap1\n      tag_330\n      jump\t// in\n    tag_346:\n        /* \"contracts/CooperProxy.sol\":1302:1458  require(... */\n      tag_347\n      jumpi\n      mload(0x40)\n      shl(0xe5, 0x461bcd)\n      dup2\n      mstore\n        /* \"#utility.yul\":25571:25573   */\n      0x20\n        /* \"contracts/CooperProxy.sol\":1302:1458  require(... */\n      0x04\n      dup3\n      add\n        /* \"#utility.yul\":25553:25574   */\n      mstore\n        /* \"#utility.yul\":25610:25612   */\n      0x31\n        /* \"#utility.yul\":25590:25608   */\n      0x24\n      dup3\n      add\n        /* \"#utility.yul\":25583:25613   */\n      mstore\n        /* \"#utility.yul\":25649:25683   */\n      0x5472616e7366657248656c7065723a3a7472616e7366657246726f6d3a207472\n        /* \"#utility.yul\":25629:25647   */\n      0x44\n      dup3\n      add\n        /* \"#utility.yul\":25622:25684   */\n      mstore\n      shl(0x7a, 0x185b9cd9995c919c9bdb4819985a5b1959)\n        /* \"#utility.yul\":25700:25718   */\n      0x64\n      dup3\n      add\n        /* \"#utility.yul\":25693:25740   */\n      mstore\n        /* \"#utility.yul\":25757:25776   */\n      0x84\n      add\n        /* \"contracts/CooperProxy.sol\":1302:1458  require(... */\n      tag_99\n        /* \"#utility.yul\":25369:25782   */\n      jump\n        /* \"contracts/CooperProxy.sol\":1302:1458  require(... */\n    tag_347:\n        /* \"contracts/CooperProxy.sol\":1102:1466  {... */\n      pop\n      pop\n        /* \"contracts/CooperProxy.sol\":968:1466  function safeTransferFrom(... */\n      pop\n      pop\n      pop\n      pop\n      jump\t// out\n        /* \"contracts/CooperProxy.sol\":58:503  function safeApprove(... */\n    tag_217:\n        /* \"contracts/CooperProxy.sol\":288:333  abi.encodeWithSelector(0x095ea7b3, to, value) */\n      0x40\n      dup1\n      mload\n      sub(shl(0xa0, 0x01), 0x01)\n        /* \"#utility.yul\":24339:24371   */\n      dup5\n      dup2\n      and\n        /* \"contracts/CooperProxy.sol\":288:333  abi.encodeWithSelector(0x095ea7b3, to, value) */\n      0x24\n      dup4\n      add\n        /* \"#utility.yul\":24321:24372   */\n      mstore\n        /* \"#utility.yul\":24388:24406   */\n      0x44\n      dup1\n      dup4\n      add\n        /* \"#utility.yul\":24381:24415   */\n      dup6\n      swap1\n      mstore\n        /* \"contracts/CooperProxy.sol\":288:333  abi.encodeWithSelector(0x095ea7b3, to, value) */\n      dup4\n      mload\n      dup1\n      dup5\n      sub\n      swap1\n      swap2\n      add\n      dup2\n      mstore\n        /* \"#utility.yul\":24294:24312   */\n      0x64\n      swap1\n      swap3\n      add\n        /* \"contracts/CooperProxy.sol\":288:333  abi.encodeWithSelector(0x095ea7b3, to, value) */\n      dup4\n      mstore\n      0x20\n      dup3\n      add\n      dup1\n      mload\n      sub(shl(0xe0, 0x01), 0x01)\n      and\n      shl(0xe0, 0x095ea7b3)\n      or\n      swap1\n      mstore\n        /* \"contracts/CooperProxy.sol\":277:334  token.call(abi.encodeWithSelector(0x095ea7b3, to, value)) */\n      swap2\n      mload\n      0x00\n      swap3\n      dup4\n      swap3\n        /* \"contracts/CooperProxy.sol\":277:287  token.call */\n      swap1\n      dup8\n      and\n      swap2\n        /* \"contracts/CooperProxy.sol\":277:334  token.call(abi.encodeWithSelector(0x095ea7b3, to, value)) */\n      tag_352\n      swap2\n        /* \"contracts/CooperProxy.sol\":288:333  abi.encodeWithSelector(0x095ea7b3, to, value) */\n      swap1\n        /* \"contracts/CooperProxy.sol\":277:334  token.call(abi.encodeWithSelector(0x095ea7b3, to, value)) */\n      tag_323\n      jump\t// in\n    tag_352:\n      0x00\n      mload(0x40)\n      dup1\n      dup4\n      sub\n      dup2\n      0x00\n      dup7\n      gas\n      call\n      swap2\n      pop\n      pop\n      returndatasize\n      dup1\n      0x00\n      dup2\n      eq\n      tag_355\n      jumpi\n      mload(0x40)\n      swap2\n      pop\n      and(add(returndatasize, 0x3f), not(0x1f))\n      dup3\n      add\n      0x40\n      mstore\n      returndatasize\n      dup3\n      mstore\n      returndatasize\n      0x00\n      0x20\n      dup5\n      add\n      returndatacopy\n      jump(tag_354)\n    tag_355:\n      0x60\n      swap2\n      pop\n    tag_354:\n      pop\n        /* \"contracts/CooperProxy.sol\":241:334  (bool success, bytes memory data) = token.call(abi.encodeWithSelector(0x095ea7b3, to, value)) */\n      swap2\n      pop\n      swap2\n      pop\n        /* \"contracts/CooperProxy.sol\":367:374  success */\n      dup2\n        /* \"contracts/CooperProxy.sol\":367:424  success && (data.length == 0 || abi.decode(data, (bool))) */\n      dup1\n      iszero\n      tag_358\n      jumpi\n      pop\n        /* \"contracts/CooperProxy.sol\":379:390  data.length */\n      dup1\n      mload\n        /* \"contracts/CooperProxy.sol\":379:395  data.length == 0 */\n      iszero\n      dup1\n        /* \"contracts/CooperProxy.sol\":379:423  data.length == 0 || abi.decode(data, (bool)) */\n      tag_358\n      jumpi\n      pop\n        /* \"contracts/CooperProxy.sol\":410:414  data */\n      dup1\n        /* \"contracts/CooperProxy.sol\":399:423  abi.decode(data, (bool)) */\n      dup1\n      0x20\n      add\n      swap1\n      mload\n      dup2\n      add\n      swap1\n      tag_358\n      swap2\n      swap1\n      tag_330\n      jump\t// in\n    tag_358:\n        /* \"contracts/CooperProxy.sol\":345:495  require(... */\n      tag_331\n      jumpi\n      mload(0x40)\n      shl(0xe5, 0x461bcd)\n      dup2\n      mstore\n        /* \"#utility.yul\":25989:25991   */\n      0x20\n        /* \"contracts/CooperProxy.sol\":345:495  require(... */\n      0x04\n      dup3\n      add\n        /* \"#utility.yul\":25971:25992   */\n      mstore\n        /* \"#utility.yul\":26028:26030   */\n      0x2b\n        /* \"#utility.yul\":26008:26026   */\n      0x24\n      dup3\n      add\n        /* \"#utility.yul\":26001:26031   */\n      mstore\n        /* \"#utility.yul\":26067:26101   */\n      0x5472616e7366657248656c7065723a3a73616665417070726f76653a20617070\n        /* \"#utility.yul\":26047:26065   */\n      0x44\n      dup3\n      add\n        /* \"#utility.yul\":26040:26102   */\n      mstore\n      shl(0xaa, 0x1c9bdd994819985a5b1959)\n        /* \"#utility.yul\":26118:26136   */\n      0x64\n      dup3\n      add\n        /* \"#utility.yul\":26111:26152   */\n      mstore\n        /* \"#utility.yul\":26169:26188   */\n      0x84\n      add\n        /* \"contracts/CooperProxy.sol\":345:495  require(... */\n      tag_99\n        /* \"#utility.yul\":25787:26194   */\n      jump\n        /* \"contracts/CooperProxy.sol\":12204:12356  function add(AddressSet storage set, address value) internal returns (bool) {... */\n    tag_239:\n        /* \"contracts/CooperProxy.sol\":12274:12278  bool */\n      0x00\n        /* \"contracts/CooperProxy.sol\":12298:12348  _add(set._inner, bytes32(uint256(uint160(value)))) */\n      tag_335\n        /* \"contracts/CooperProxy.sol\":12303:12306  set */\n      dup4\n      sub(shl(0xa0, 0x01), 0x01)\n        /* \"contracts/CooperProxy.sol\":12323:12346  uint256(uint160(value)) */\n      dup5\n      and\n        /* \"contracts/CooperProxy.sol\":12298:12302  _add */\n      tag_364\n        /* \"contracts/CooperProxy.sol\":12298:12348  _add(set._inner, bytes32(uint256(uint160(value)))) */\n      jump\t// in\n        /* \"contracts/CooperProxy.sol\":12776:12943  function contains(AddressSet storage set, address value) internal view returns (bool) {... */\n    tag_267:\n      sub(shl(0xa0, 0x01), 0x01)\n        /* \"contracts/CooperProxy.sol\":12910:12933  uint256(uint160(value)) */\n      dup2\n      and\n        /* \"contracts/CooperProxy.sol\":12856:12860  bool */\n      0x00\n        /* \"contracts/CooperProxy.sol\":8312:8331  set._indexes[value] */\n      swap1\n      dup2\n      mstore\n        /* \"contracts/CooperProxy.sol\":8312:8324  set._indexes */\n      0x01\n      dup4\n      add\n        /* \"contracts/CooperProxy.sol\":8312:8331  set._indexes[value] */\n      0x20\n      mstore\n      0x40\n      dup2\n      keccak256\n      sload\n        /* \"contracts/CooperProxy.sol\":8312:8336  set._indexes[value] != 0 */\n      iszero\n      iszero\n        /* \"contracts/CooperProxy.sol\":12880:12935  _contains(set._inner, bytes32(uint256(uint160(value)))) */\n      tag_335\n        /* \"contracts/CooperProxy.sol\":8215:8344  function _contains(Set storage set, bytes32 value) private view returns (bool) {... */\n      jump\n        /* \"contracts/CooperProxy.sol\":14208:14474  function values(AddressSet storage set) internal view returns (address[] memory) {... */\n    tag_270:\n        /* \"contracts/CooperProxy.sol\":14271:14287  address[] memory */\n      0x60\n        /* \"contracts/CooperProxy.sol\":14300:14322  bytes32[] memory store */\n      0x00\n        /* \"contracts/CooperProxy.sol\":14325:14344  _values(set._inner) */\n      tag_335\n        /* \"contracts/CooperProxy.sol\":14333:14336  set */\n      dup4\n        /* \"contracts/CooperProxy.sol\":14325:14332  _values */\n      tag_370\n        /* \"contracts/CooperProxy.sol\":14325:14344  _values(set._inner) */\n      jump\t// in\n        /* \"contracts/CooperProxy.sol\":19729:19902  function _setOwner(address newOwner) private {... */\n    tag_294:\n        /* \"contracts/CooperProxy.sol\":19785:19801  address oldOwner */\n      0x00\n        /* \"contracts/CooperProxy.sol\":19804:19810  _owner */\n      dup1\n      sload\n      sub(shl(0xa0, 0x01), 0x01)\n        /* \"contracts/CooperProxy.sol\":19821:19838  _owner = newOwner */\n      dup4\n      dup2\n      and\n      not(sub(shl(0xa0, 0x01), 0x01))\n      dup4\n      and\n      dup2\n      or\n      dup5\n      sstore\n        /* \"contracts/CooperProxy.sol\":19854:19894  OwnershipTransferred(oldOwner, newOwner) */\n      mload(0x40)\n        /* \"contracts/CooperProxy.sol\":19804:19810  _owner */\n      swap2\n      swap1\n      swap3\n      and\n      swap3\n      dup4\n      swap2\n        /* \"contracts/CooperProxy.sol\":19854:19894  OwnershipTransferred(oldOwner, newOwner) */\n      0x8be0079c531659141344cd1fd0a4f28419497f9722a3daafe3b4186f6b6457e0\n      swap2\n        /* \"contracts/CooperProxy.sol\":19785:19801  address oldOwner */\n      swap1\n        /* \"contracts/CooperProxy.sol\":19854:19894  OwnershipTransferred(oldOwner, newOwner) */\n      log3\n        /* \"contracts/CooperProxy.sol\":19774:19902  {... */\n      pop\n        /* \"contracts/CooperProxy.sol\":19729:19902  function _setOwner(address newOwner) private {... */\n      pop\n      jump\t// out\n        /* \"contracts/CooperProxy.sol\":13029:13146  function length(AddressSet storage set) internal view returns (uint256) {... */\n    tag_318:\n        /* \"contracts/CooperProxy.sol\":13092:13099  uint256 */\n      0x00\n        /* \"contracts/CooperProxy.sol\":13119:13138  _length(set._inner) */\n      tag_182\n        /* \"contracts/CooperProxy.sol\":13127:13130  set */\n      dup3\n        /* \"contracts/CooperProxy.sol\":8513:8531  set._values.length */\n      sload\n      swap1\n        /* \"contracts/CooperProxy.sol\":8430:8539  function _length(Set storage set) private view returns (uint256) {... */\n      jump\n        /* \"contracts/CooperProxy.sol\":8893:9013  function _at(Set storage set, uint256 index) private view returns (bytes32) {... */\n    tag_336:\n        /* \"contracts/CooperProxy.sol\":8960:8967  bytes32 */\n      0x00\n        /* \"contracts/CooperProxy.sol\":8987:8990  set */\n      dup3\n        /* \"contracts/CooperProxy.sol\":8987:8998  set._values */\n      0x00\n      add\n        /* \"contracts/CooperProxy.sol\":8999:9004  index */\n      dup3\n        /* \"contracts/CooperProxy.sol\":8987:9005  set._values[index] */\n      dup2\n      sload\n      dup2\n      lt\n      tag_377\n      jumpi\n      tag_377\n      tag_141\n      jump\t// in\n    tag_377:\n      swap1\n      0x00\n      mstore\n      keccak256(0x00, 0x20)\n      add\n      sload\n        /* \"contracts/CooperProxy.sol\":8980:9005  return set._values[index] */\n      swap1\n      pop\n        /* \"contracts/CooperProxy.sol\":8893:9013  function _at(Set storage set, uint256 index) private view returns (bytes32) {... */\n      swap3\n      swap2\n      pop\n      pop\n      jump\t// out\n        /* \"contracts/CooperProxy.sol\":6119:6533  function _add(Set storage set, bytes32 value) private returns (bool) {... */\n    tag_364:\n        /* \"contracts/CooperProxy.sol\":6182:6186  bool */\n      0x00\n        /* \"contracts/CooperProxy.sol\":8312:8331  set._indexes[value] */\n      dup2\n      dup2\n      mstore\n        /* \"contracts/CooperProxy.sol\":8312:8324  set._indexes */\n      0x01\n      dup4\n      add\n        /* \"contracts/CooperProxy.sol\":8312:8331  set._indexes[value] */\n      0x20\n      mstore\n      0x40\n      dup2\n      keccak256\n      sload\n        /* \"contracts/CooperProxy.sol\":6199:6526  if (!_contains(set, value)) {... */\n      tag_381\n      jumpi\n      pop\n        /* \"contracts/CooperProxy.sol\":6242:6265  set._values.push(value) */\n      dup2\n      sload\n      0x01\n      dup2\n      dup2\n      add\n      dup5\n      sstore\n        /* \"contracts/CooperProxy.sol\":6242:6253  set._values */\n      0x00\n        /* \"contracts/CooperProxy.sol\":6242:6265  set._values.push(value) */\n      dup5\n      dup2\n      mstore\n      0x20\n      dup1\n      dup3\n      keccak256\n      swap1\n      swap4\n      add\n      dup5\n      swap1\n      sstore\n        /* \"contracts/CooperProxy.sol\":6425:6443  set._values.length */\n      dup5\n      sload\n        /* \"contracts/CooperProxy.sol\":6403:6422  set._indexes[value] */\n      dup5\n      dup3\n      mstore\n        /* \"contracts/CooperProxy.sol\":6403:6415  set._indexes */\n      dup3\n      dup7\n      add\n        /* \"contracts/CooperProxy.sol\":6403:6422  set._indexes[value] */\n      swap1\n      swap4\n      mstore\n      0x40\n      swap1\n      keccak256\n        /* \"contracts/CooperProxy.sol\":6403:6443  set._indexes[value] = set._values.length */\n      swap2\n      swap1\n      swap2\n      sstore\n        /* \"contracts/CooperProxy.sol\":6458:6469  return true */\n      jump(tag_182)\n        /* \"contracts/CooperProxy.sol\":6199:6526  if (!_contains(set, value)) {... */\n    tag_381:\n      pop\n        /* \"contracts/CooperProxy.sol\":6509:6514  false */\n      0x00\n        /* \"contracts/CooperProxy.sol\":6502:6514  return false */\n      jump(tag_182)\n        /* \"contracts/CooperProxy.sol\":9563:9674  function _values(Set storage set) private view returns (bytes32[] memory) {... */\n    tag_370:\n        /* \"contracts/CooperProxy.sol\":9619:9635  bytes32[] memory */\n      0x60\n        /* \"contracts/CooperProxy.sol\":9655:9658  set */\n      dup2\n        /* \"contracts/CooperProxy.sol\":9655:9666  set._values */\n      0x00\n      add\n        /* \"contracts/CooperProxy.sol\":9648:9666  return set._values */\n      dup1\n      sload\n      dup1\n      0x20\n      mul\n      0x20\n      add\n      mload(0x40)\n      swap1\n      dup2\n      add\n      0x40\n      mstore\n      dup1\n      swap3\n      swap2\n      swap1\n      dup2\n      dup2\n      mstore\n      0x20\n      add\n      dup3\n      dup1\n      sload\n      dup1\n      iszero\n      tag_386\n      jumpi\n      0x20\n      mul\n      dup3\n      add\n      swap2\n      swap1\n      0x00\n      mstore\n      keccak256(0x00, 0x20)\n      swap1\n    tag_387:\n      dup2\n      sload\n      dup2\n      mstore\n      0x20\n      add\n      swap1\n      0x01\n      add\n      swap1\n      dup1\n      dup4\n      gt\n      tag_387\n      jumpi\n    tag_386:\n      pop\n      pop\n      pop\n      pop\n      pop\n      swap1\n      pop\n        /* \"contracts/CooperProxy.sol\":9563:9674  function _values(Set storage set) private view returns (bytes32[] memory) {... */\n      swap2\n      swap1\n      pop\n      jump\t// out\n        /* \"#utility.yul\":222:353   */\n    tag_389:\n      sub(shl(0xa0, 0x01), 0x01)\n        /* \"#utility.yul\":297:328   */\n      dup2\n      and\n        /* \"#utility.yul\":287:329   */\n      dup2\n      eq\n        /* \"#utility.yul\":277:347   */\n      tag_315\n      jumpi\n        /* \"#utility.yul\":343:344   */\n      0x00\n        /* \"#utility.yul\":340:341   */\n      dup1\n        /* \"#utility.yul\":333:345   */\n      revert\n        /* \"#utility.yul\":358:1176   */\n    tag_31:\n        /* \"#utility.yul\":462:468   */\n      0x00\n        /* \"#utility.yul\":470:476   */\n      dup1\n        /* \"#utility.yul\":478:484   */\n      0x00\n        /* \"#utility.yul\":486:492   */\n      dup1\n        /* \"#utility.yul\":539:541   */\n      0x60\n        /* \"#utility.yul\":527:536   */\n      dup6\n        /* \"#utility.yul\":518:525   */\n      dup8\n        /* \"#utility.yul\":514:537   */\n      sub\n        /* \"#utility.yul\":510:542   */\n      slt\n        /* \"#utility.yul\":507:559   */\n      iszero\n      tag_412\n      jumpi\n        /* \"#utility.yul\":555:556   */\n      0x00\n        /* \"#utility.yul\":552:553   */\n      dup1\n        /* \"#utility.yul\":545:557   */\n      revert\n        /* \"#utility.yul\":507:559   */\n    tag_412:\n        /* \"#utility.yul\":594:603   */\n      dup5\n        /* \"#utility.yul\":581:604   */\n      calldataload\n        /* \"#utility.yul\":613:644   */\n      tag_413\n        /* \"#utility.yul\":638:643   */\n      dup2\n        /* \"#utility.yul\":613:644   */\n      tag_389\n      jump\t// in\n    tag_413:\n        /* \"#utility.yul\":663:668   */\n      swap4\n      pop\n        /* \"#utility.yul\":719:721   */\n      0x20\n        /* \"#utility.yul\":704:722   */\n      dup6\n      add\n        /* \"#utility.yul\":691:723   */\n      calldataload\n        /* \"#utility.yul\":742:760   */\n      0xffffffffffffffff\n        /* \"#utility.yul\":772:786   */\n      dup1\n      dup3\n      gt\n        /* \"#utility.yul\":769:803   */\n      iszero\n      tag_414\n      jumpi\n        /* \"#utility.yul\":799:800   */\n      0x00\n        /* \"#utility.yul\":796:797   */\n      dup1\n        /* \"#utility.yul\":789:801   */\n      revert\n        /* \"#utility.yul\":769:803   */\n    tag_414:\n        /* \"#utility.yul\":837:843   */\n      dup2\n        /* \"#utility.yul\":826:835   */\n      dup8\n        /* \"#utility.yul\":822:844   */\n      add\n        /* \"#utility.yul\":812:844   */\n      swap2\n      pop\n        /* \"#utility.yul\":882:889   */\n      dup8\n        /* \"#utility.yul\":875:879   */\n      0x1f\n        /* \"#utility.yul\":871:873   */\n      dup4\n        /* \"#utility.yul\":867:880   */\n      add\n        /* \"#utility.yul\":863:890   */\n      slt\n        /* \"#utility.yul\":853:908   */\n      tag_415\n      jumpi\n        /* \"#utility.yul\":904:905   */\n      0x00\n        /* \"#utility.yul\":901:902   */\n      dup1\n        /* \"#utility.yul\":894:906   */\n      revert\n        /* \"#utility.yul\":853:908   */\n    tag_415:\n        /* \"#utility.yul\":944:946   */\n      dup2\n        /* \"#utility.yul\":931:947   */\n      calldataload\n        /* \"#utility.yul\":970:972   */\n      dup2\n        /* \"#utility.yul\":962:968   */\n      dup2\n        /* \"#utility.yul\":959:973   */\n      gt\n        /* \"#utility.yul\":956:990   */\n      iszero\n      tag_416\n      jumpi\n        /* \"#utility.yul\":986:987   */\n      0x00\n        /* \"#utility.yul\":983:984   */\n      dup1\n        /* \"#utility.yul\":976:988   */\n      revert\n        /* \"#utility.yul\":956:990   */\n    tag_416:\n        /* \"#utility.yul\":1039:1046   */\n      dup9\n        /* \"#utility.yul\":1034:1036   */\n      0x20\n        /* \"#utility.yul\":1024:1030   */\n      dup3\n        /* \"#utility.yul\":1021:1022   */\n      0x05\n        /* \"#utility.yul\":1017:1031   */\n      shl\n        /* \"#utility.yul\":1013:1015   */\n      dup6\n        /* \"#utility.yul\":1009:1032   */\n      add\n        /* \"#utility.yul\":1005:1037   */\n      add\n        /* \"#utility.yul\":1002:1047   */\n      gt\n        /* \"#utility.yul\":999:1064   */\n      iszero\n      tag_417\n      jumpi\n        /* \"#utility.yul\":1060:1061   */\n      0x00\n        /* \"#utility.yul\":1057:1058   */\n      dup1\n        /* \"#utility.yul\":1050:1062   */\n      revert\n        /* \"#utility.yul\":999:1064   */\n    tag_417:\n        /* \"#utility.yul\":358:1176   */\n      swap6\n      swap9\n        /* \"#utility.yul\":1091:1093   */\n      0x20\n        /* \"#utility.yul\":1083:1094   */\n      swap3\n      swap1\n      swap3\n      add\n      swap8\n      pop\n        /* \"#utility.yul\":1113:1119   */\n      swap5\n      swap6\n        /* \"#utility.yul\":1166:1168   */\n      0x40\n        /* \"#utility.yul\":1151:1169   */\n      add\n        /* \"#utility.yul\":1138:1170   */\n      calldataload\n      swap5\n      pop\n        /* \"#utility.yul\":358:1176   */\n      swap3\n      pop\n      pop\n      pop\n      jump\t// out\n        /* \"#utility.yul\":1181:1361   */\n    tag_35:\n        /* \"#utility.yul\":1240:1246   */\n      0x00\n        /* \"#utility.yul\":1293:1295   */\n      0x20\n        /* \"#utility.yul\":1281:1290   */\n      dup3\n        /* \"#utility.yul\":1272:1279   */\n      dup5\n        /* \"#utility.yul\":1268:1291   */\n      sub\n        /* \"#utility.yul\":1264:1296   */\n      slt\n        /* \"#utility.yul\":1261:1313   */\n      iszero\n      tag_419\n      jumpi\n        /* \"#utility.yul\":1309:1310   */\n      0x00\n        /* \"#utility.yul\":1306:1307   */\n      dup1\n        /* \"#utility.yul\":1299:1311   */\n      revert\n        /* \"#utility.yul\":1261:1313   */\n    tag_419:\n      pop\n        /* \"#utility.yul\":1332:1355   */\n      calldataload\n      swap2\n        /* \"#utility.yul\":1181:1361   */\n      swap1\n      pop\n      jump\t// out\n        /* \"#utility.yul\":1366:1613   */\n    tag_40:\n        /* \"#utility.yul\":1425:1431   */\n      0x00\n        /* \"#utility.yul\":1478:1480   */\n      0x20\n        /* \"#utility.yul\":1466:1475   */\n      dup3\n        /* \"#utility.yul\":1457:1464   */\n      dup5\n        /* \"#utility.yul\":1453:1476   */\n      sub\n        /* \"#utility.yul\":1449:1481   */\n      slt\n        /* \"#utility.yul\":1446:1498   */\n      iszero\n      tag_421\n      jumpi\n        /* \"#utility.yul\":1494:1495   */\n      0x00\n        /* \"#utility.yul\":1491:1492   */\n      dup1\n        /* \"#utility.yul\":1484:1496   */\n      revert\n        /* \"#utility.yul\":1446:1498   */\n    tag_421:\n        /* \"#utility.yul\":1533:1542   */\n      dup2\n        /* \"#utility.yul\":1520:1543   */\n      calldataload\n        /* \"#utility.yul\":1552:1583   */\n      tag_335\n        /* \"#utility.yul\":1577:1582   */\n      dup2\n        /* \"#utility.yul\":1552:1583   */\n      tag_389\n      jump\t// in\n        /* \"#utility.yul\":2123:2250   */\n    tag_391:\n        /* \"#utility.yul\":2184:2194   */\n      0x4e487b71\n        /* \"#utility.yul\":2179:2182   */\n      0xe0\n        /* \"#utility.yul\":2175:2195   */\n      shl\n        /* \"#utility.yul\":2172:2173   */\n      0x00\n        /* \"#utility.yul\":2165:2196   */\n      mstore\n        /* \"#utility.yul\":2215:2219   */\n      0x41\n        /* \"#utility.yul\":2212:2213   */\n      0x04\n        /* \"#utility.yul\":2205:2220   */\n      mstore\n        /* \"#utility.yul\":2239:2243   */\n      0x24\n        /* \"#utility.yul\":2236:2237   */\n      0x00\n        /* \"#utility.yul\":2229:2244   */\n      revert\n        /* \"#utility.yul\":2255:2510   */\n    tag_392:\n        /* \"#utility.yul\":2327:2329   */\n      0x40\n        /* \"#utility.yul\":2321:2330   */\n      mload\n        /* \"#utility.yul\":2369:2375   */\n      0x0160\n        /* \"#utility.yul\":2357:2376   */\n      dup2\n      add\n        /* \"#utility.yul\":2406:2424   */\n      0xffffffffffffffff\n        /* \"#utility.yul\":2391:2425   */\n      dup2\n      gt\n        /* \"#utility.yul\":2427:2449   */\n      dup3\n      dup3\n      lt\n        /* \"#utility.yul\":2388:2450   */\n      or\n        /* \"#utility.yul\":2385:2473   */\n      iszero\n      tag_428\n      jumpi\n        /* \"#utility.yul\":2453:2471   */\n      tag_428\n      tag_391\n      jump\t// in\n    tag_428:\n        /* \"#utility.yul\":2489:2491   */\n      0x40\n        /* \"#utility.yul\":2482:2504   */\n      mstore\n        /* \"#utility.yul\":2255:2510   */\n      swap1\n      jump\t// out\n        /* \"#utility.yul\":2515:2790   */\n    tag_393:\n        /* \"#utility.yul\":2586:2588   */\n      0x40\n        /* \"#utility.yul\":2580:2589   */\n      mload\n        /* \"#utility.yul\":2651:2653   */\n      0x1f\n        /* \"#utility.yul\":2632:2645   */\n      dup3\n      add\n      not(0x1f)\n        /* \"#utility.yul\":2628:2655   */\n      and\n        /* \"#utility.yul\":2616:2656   */\n      dup2\n      add\n        /* \"#utility.yul\":2686:2704   */\n      0xffffffffffffffff\n        /* \"#utility.yul\":2671:2705   */\n      dup2\n      gt\n        /* \"#utility.yul\":2707:2729   */\n      dup3\n      dup3\n      lt\n        /* \"#utility.yul\":2668:2730   */\n      or\n        /* \"#utility.yul\":2665:2753   */\n      iszero\n      tag_431\n      jumpi\n        /* \"#utility.yul\":2733:2751   */\n      tag_431\n      tag_391\n      jump\t// in\n    tag_431:\n        /* \"#utility.yul\":2769:2771   */\n      0x40\n        /* \"#utility.yul\":2762:2784   */\n      mstore\n        /* \"#utility.yul\":2515:2790   */\n      swap2\n      swap1\n      pop\n      jump\t// out\n        /* \"#utility.yul\":2795:3326   */\n    tag_394:\n        /* \"#utility.yul\":2838:2843   */\n      0x00\n        /* \"#utility.yul\":2891:2894   */\n      dup3\n        /* \"#utility.yul\":2884:2888   */\n      0x1f\n        /* \"#utility.yul\":2876:2882   */\n      dup4\n        /* \"#utility.yul\":2872:2889   */\n      add\n        /* \"#utility.yul\":2868:2895   */\n      slt\n        /* \"#utility.yul\":2858:2913   */\n      tag_433\n      jumpi\n        /* \"#utility.yul\":2909:2910   */\n      0x00\n        /* \"#utility.yul\":2906:2907   */\n      dup1\n        /* \"#utility.yul\":2899:2911   */\n      revert\n        /* \"#utility.yul\":2858:2913   */\n    tag_433:\n        /* \"#utility.yul\":2945:2951   */\n      dup2\n        /* \"#utility.yul\":2932:2952   */\n      calldataload\n        /* \"#utility.yul\":2971:2989   */\n      0xffffffffffffffff\n        /* \"#utility.yul\":2967:2969   */\n      dup2\n        /* \"#utility.yul\":2964:2990   */\n      gt\n        /* \"#utility.yul\":2961:3013   */\n      iszero\n      tag_435\n      jumpi\n        /* \"#utility.yul\":2993:3011   */\n      tag_435\n      tag_391\n      jump\t// in\n    tag_435:\n        /* \"#utility.yul\":3037:3092   */\n      tag_436\n        /* \"#utility.yul\":3080:3082   */\n      0x1f\n        /* \"#utility.yul\":3061:3074   */\n      dup3\n      add\n      not(0x1f)\n        /* \"#utility.yul\":3057:3084   */\n      and\n        /* \"#utility.yul\":3086:3090   */\n      0x20\n        /* \"#utility.yul\":3053:3091   */\n      add\n        /* \"#utility.yul\":3037:3092   */\n      tag_393\n      jump\t// in\n    tag_436:\n        /* \"#utility.yul\":3117:3119   */\n      dup2\n        /* \"#utility.yul\":3108:3115   */\n      dup2\n        /* \"#utility.yul\":3101:3120   */\n      mstore\n        /* \"#utility.yul\":3163:3166   */\n      dup5\n        /* \"#utility.yul\":3156:3160   */\n      0x20\n        /* \"#utility.yul\":3151:3153   */\n      dup4\n        /* \"#utility.yul\":3143:3149   */\n      dup7\n        /* \"#utility.yul\":3139:3154   */\n      add\n        /* \"#utility.yul\":3135:3161   */\n      add\n        /* \"#utility.yul\":3132:3167   */\n      gt\n        /* \"#utility.yul\":3129:3184   */\n      iszero\n      tag_437\n      jumpi\n        /* \"#utility.yul\":3180:3181   */\n      0x00\n        /* \"#utility.yul\":3177:3178   */\n      dup1\n        /* \"#utility.yul\":3170:3182   */\n      revert\n        /* \"#utility.yul\":3129:3184   */\n    tag_437:\n        /* \"#utility.yul\":3245:3247   */\n      dup2\n        /* \"#utility.yul\":3238:3242   */\n      0x20\n        /* \"#utility.yul\":3230:3236   */\n      dup6\n        /* \"#utility.yul\":3226:3243   */\n      add\n        /* \"#utility.yul\":3219:3223   */\n      0x20\n        /* \"#utility.yul\":3210:3217   */\n      dup4\n        /* \"#utility.yul\":3206:3224   */\n      add\n        /* \"#utility.yul\":3193:3248   */\n      calldatacopy\n        /* \"#utility.yul\":3293:3294   */\n      0x00\n        /* \"#utility.yul\":3268:3284   */\n      swap2\n      dup2\n      add\n        /* \"#utility.yul\":3286:3290   */\n      0x20\n        /* \"#utility.yul\":3264:3291   */\n      add\n        /* \"#utility.yul\":3257:3295   */\n      swap2\n      swap1\n      swap2\n      mstore\n        /* \"#utility.yul\":3272:3279   */\n      swap4\n        /* \"#utility.yul\":2795:3326   */\n      swap3\n      pop\n      pop\n      pop\n      jump\t// out\n        /* \"#utility.yul\":3331:3514   */\n    tag_395:\n        /* \"#utility.yul\":3391:3395   */\n      0x00\n        /* \"#utility.yul\":3424:3442   */\n      0xffffffffffffffff\n        /* \"#utility.yul\":3416:3422   */\n      dup3\n        /* \"#utility.yul\":3413:3443   */\n      gt\n        /* \"#utility.yul\":3410:3466   */\n      iszero\n      tag_440\n      jumpi\n        /* \"#utility.yul\":3446:3464   */\n      tag_440\n      tag_391\n      jump\t// in\n    tag_440:\n      pop\n        /* \"#utility.yul\":3491:3492   */\n      0x05\n        /* \"#utility.yul\":3487:3501   */\n      shl\n        /* \"#utility.yul\":3503:3507   */\n      0x20\n        /* \"#utility.yul\":3483:3508   */\n      add\n      swap1\n        /* \"#utility.yul\":3331:3514   */\n      jump\t// out\n        /* \"#utility.yul\":3519:4256   */\n    tag_396:\n        /* \"#utility.yul\":3573:3578   */\n      0x00\n        /* \"#utility.yul\":3626:3629   */\n      dup3\n        /* \"#utility.yul\":3619:3623   */\n      0x1f\n        /* \"#utility.yul\":3611:3617   */\n      dup4\n        /* \"#utility.yul\":3607:3624   */\n      add\n        /* \"#utility.yul\":3603:3630   */\n      slt\n        /* \"#utility.yul\":3593:3648   */\n      tag_442\n      jumpi\n        /* \"#utility.yul\":3644:3645   */\n      0x00\n        /* \"#utility.yul\":3641:3642   */\n      dup1\n        /* \"#utility.yul\":3634:3646   */\n      revert\n        /* \"#utility.yul\":3593:3648   */\n    tag_442:\n        /* \"#utility.yul\":3680:3686   */\n      dup2\n        /* \"#utility.yul\":3667:3687   */\n      calldataload\n        /* \"#utility.yul\":3706:3710   */\n      0x20\n        /* \"#utility.yul\":3730:3790   */\n      tag_443\n        /* \"#utility.yul\":3746:3789   */\n      tag_444\n        /* \"#utility.yul\":3786:3788   */\n      dup4\n        /* \"#utility.yul\":3746:3789   */\n      tag_395\n      jump\t// in\n    tag_444:\n        /* \"#utility.yul\":3730:3790   */\n      tag_393\n      jump\t// in\n    tag_443:\n        /* \"#utility.yul\":3824:3839   */\n      dup3\n      dup2\n      mstore\n        /* \"#utility.yul\":3910:3911   */\n      0x05\n        /* \"#utility.yul\":3906:3916   */\n      swap3\n      swap1\n      swap3\n      shl\n        /* \"#utility.yul\":3894:3917   */\n      dup5\n      add\n        /* \"#utility.yul\":3890:3922   */\n      dup2\n      add\n      swap2\n        /* \"#utility.yul\":3855:3867   */\n      dup2\n      dup2\n      add\n      swap1\n        /* \"#utility.yul\":3934:3949   */\n      dup7\n      dup5\n      gt\n        /* \"#utility.yul\":3931:3966   */\n      iszero\n      tag_445\n      jumpi\n        /* \"#utility.yul\":3962:3963   */\n      0x00\n        /* \"#utility.yul\":3959:3960   */\n      dup1\n        /* \"#utility.yul\":3952:3964   */\n      revert\n        /* \"#utility.yul\":3931:3966   */\n    tag_445:\n        /* \"#utility.yul\":3998:4000   */\n      dup3\n        /* \"#utility.yul\":3990:3996   */\n      dup7\n        /* \"#utility.yul\":3986:4001   */\n      add\n        /* \"#utility.yul\":4010:4227   */\n    tag_446:\n        /* \"#utility.yul\":4026:4032   */\n      dup5\n        /* \"#utility.yul\":4021:4024   */\n      dup2\n        /* \"#utility.yul\":4018:4033   */\n      lt\n        /* \"#utility.yul\":4010:4227   */\n      iszero\n      tag_448\n      jumpi\n        /* \"#utility.yul\":4106:4109   */\n      dup1\n        /* \"#utility.yul\":4093:4110   */\n      calldataload\n        /* \"#utility.yul\":4123:4154   */\n      tag_449\n        /* \"#utility.yul\":4148:4153   */\n      dup2\n        /* \"#utility.yul\":4123:4154   */\n      tag_389\n      jump\t// in\n    tag_449:\n        /* \"#utility.yul\":4167:4185   */\n      dup4\n      mstore\n        /* \"#utility.yul\":4205:4217   */\n      swap2\n      dup4\n      add\n      swap2\n        /* \"#utility.yul\":4043:4055   */\n      dup4\n      add\n        /* \"#utility.yul\":4010:4227   */\n      jump(tag_446)\n    tag_448:\n      pop\n        /* \"#utility.yul\":4245:4250   */\n      swap7\n        /* \"#utility.yul\":3519:4256   */\n      swap6\n      pop\n      pop\n      pop\n      pop\n      pop\n      pop\n      jump\t// out\n        /* \"#utility.yul\":4261:4923   */\n    tag_397:\n        /* \"#utility.yul\":4315:4320   */\n      0x00\n        /* \"#utility.yul\":4368:4371   */\n      dup3\n        /* \"#utility.yul\":4361:4365   */\n      0x1f\n        /* \"#utility.yul\":4353:4359   */\n      dup4\n        /* \"#utility.yul\":4349:4366   */\n      add\n        /* \"#utility.yul\":4345:4372   */\n      slt\n        /* \"#utility.yul\":4335:4390   */\n      tag_451\n      jumpi\n        /* \"#utility.yul\":4386:4387   */\n      0x00\n        /* \"#utility.yul\":4383:4384   */\n      dup1\n        /* \"#utility.yul\":4376:4388   */\n      revert\n        /* \"#utility.yul\":4335:4390   */\n    tag_451:\n        /* \"#utility.yul\":4422:4428   */\n      dup2\n        /* \"#utility.yul\":4409:4429   */\n      calldataload\n        /* \"#utility.yul\":4448:4452   */\n      0x20\n        /* \"#utility.yul\":4472:4532   */\n      tag_452\n        /* \"#utility.yul\":4488:4531   */\n      tag_444\n        /* \"#utility.yul\":4528:4530   */\n      dup4\n        /* \"#utility.yul\":4488:4531   */\n      tag_395\n      jump\t// in\n        /* \"#utility.yul\":4472:4532   */\n    tag_452:\n        /* \"#utility.yul\":4566:4581   */\n      dup3\n      dup2\n      mstore\n        /* \"#utility.yul\":4652:4653   */\n      0x05\n        /* \"#utility.yul\":4648:4658   */\n      swap3\n      swap1\n      swap3\n      shl\n        /* \"#utility.yul\":4636:4659   */\n      dup5\n      add\n        /* \"#utility.yul\":4632:4664   */\n      dup2\n      add\n      swap2\n        /* \"#utility.yul\":4597:4609   */\n      dup2\n      dup2\n      add\n      swap1\n        /* \"#utility.yul\":4676:4691   */\n      dup7\n      dup5\n      gt\n        /* \"#utility.yul\":4673:4708   */\n      iszero\n      tag_454\n      jumpi\n        /* \"#utility.yul\":4704:4705   */\n      0x00\n        /* \"#utility.yul\":4701:4702   */\n      dup1\n        /* \"#utility.yul\":4694:4706   */\n      revert\n        /* \"#utility.yul\":4673:4708   */\n    tag_454:\n        /* \"#utility.yul\":4740:4742   */\n      dup3\n        /* \"#utility.yul\":4732:4738   */\n      dup7\n        /* \"#utility.yul\":4728:4743   */\n      add\n        /* \"#utility.yul\":4752:4894   */\n    tag_455:\n        /* \"#utility.yul\":4768:4774   */\n      dup5\n        /* \"#utility.yul\":4763:4766   */\n      dup2\n        /* \"#utility.yul\":4760:4775   */\n      lt\n        /* \"#utility.yul\":4752:4894   */\n      iszero\n      tag_448\n      jumpi\n        /* \"#utility.yul\":4834:4851   */\n      dup1\n      calldataload\n        /* \"#utility.yul\":4822:4852   */\n      dup4\n      mstore\n        /* \"#utility.yul\":4872:4884   */\n      swap2\n      dup4\n      add\n      swap2\n        /* \"#utility.yul\":4785:4797   */\n      dup4\n      add\n        /* \"#utility.yul\":4752:4894   */\n      jump(tag_455)\n        /* \"#utility.yul\":4928:5046   */\n    tag_398:\n        /* \"#utility.yul\":5014:5019   */\n      dup1\n        /* \"#utility.yul\":5007:5020   */\n      iszero\n        /* \"#utility.yul\":5000:5021   */\n      iszero\n        /* \"#utility.yul\":4993:4998   */\n      dup2\n        /* \"#utility.yul\":4990:5022   */\n      eq\n        /* \"#utility.yul\":4980:5040   */\n      tag_315\n      jumpi\n        /* \"#utility.yul\":5036:5037   */\n      0x00\n        /* \"#utility.yul\":5033:5034   */\n      dup1\n        /* \"#utility.yul\":5026:5038   */\n      revert\n        /* \"#utility.yul\":5051:5179   */\n    tag_399:\n        /* \"#utility.yul\":5116:5136   */\n      dup1\n      calldataload\n        /* \"#utility.yul\":5145:5173   */\n      tag_461\n        /* \"#utility.yul\":5116:5136   */\n      dup2\n        /* \"#utility.yul\":5145:5173   */\n      tag_398\n      jump\t// in\n    tag_461:\n        /* \"#utility.yul\":5051:5179   */\n      swap2\n      swap1\n      pop\n      jump\t// out\n        /* \"#utility.yul\":5184:7189   */\n    tag_52:\n        /* \"#utility.yul\":5271:5277   */\n      0x00\n        /* \"#utility.yul\":5324:5326   */\n      0x20\n        /* \"#utility.yul\":5312:5321   */\n      dup3\n        /* \"#utility.yul\":5303:5310   */\n      dup5\n        /* \"#utility.yul\":5299:5322   */\n      sub\n        /* \"#utility.yul\":5295:5327   */\n      slt\n        /* \"#utility.yul\":5292:5344   */\n      iszero\n      tag_463\n      jumpi\n        /* \"#utility.yul\":5340:5341   */\n      0x00\n        /* \"#utility.yul\":5337:5338   */\n      dup1\n        /* \"#utility.yul\":5330:5342   */\n      revert\n        /* \"#utility.yul\":5292:5344   */\n    tag_463:\n        /* \"#utility.yul\":5380:5389   */\n      dup2\n        /* \"#utility.yul\":5367:5390   */\n      calldataload\n        /* \"#utility.yul\":5409:5427   */\n      0xffffffffffffffff\n        /* \"#utility.yul\":5450:5452   */\n      dup1\n        /* \"#utility.yul\":5442:5448   */\n      dup3\n        /* \"#utility.yul\":5439:5453   */\n      gt\n        /* \"#utility.yul\":5436:5470   */\n      iszero\n      tag_464\n      jumpi\n        /* \"#utility.yul\":5466:5467   */\n      0x00\n        /* \"#utility.yul\":5463:5464   */\n      dup1\n        /* \"#utility.yul\":5456:5468   */\n      revert\n        /* \"#utility.yul\":5436:5470   */\n    tag_464:\n        /* \"#utility.yul\":5489:5511   */\n      swap1\n      dup4\n      add\n      swap1\n        /* \"#utility.yul\":5545:5551   */\n      0x0160\n        /* \"#utility.yul\":5527:5543   */\n      dup3\n      dup7\n      sub\n        /* \"#utility.yul\":5523:5552   */\n      slt\n        /* \"#utility.yul\":5520:5569   */\n      iszero\n      tag_465\n      jumpi\n        /* \"#utility.yul\":5565:5566   */\n      0x00\n        /* \"#utility.yul\":5562:5563   */\n      dup1\n        /* \"#utility.yul\":5555:5567   */\n      revert\n        /* \"#utility.yul\":5520:5569   */\n    tag_465:\n        /* \"#utility.yul\":5591:5613   */\n      tag_466\n      tag_392\n      jump\t// in\n    tag_466:\n        /* \"#utility.yul\":5651:5653   */\n      dup3\n        /* \"#utility.yul\":5638:5654   */\n      calldataload\n        /* \"#utility.yul\":5679:5681   */\n      dup3\n        /* \"#utility.yul\":5669:5677   */\n      dup2\n        /* \"#utility.yul\":5666:5682   */\n      gt\n        /* \"#utility.yul\":5663:5699   */\n      iszero\n      tag_467\n      jumpi\n        /* \"#utility.yul\":5695:5696   */\n      0x00\n        /* \"#utility.yul\":5692:5693   */\n      dup1\n        /* \"#utility.yul\":5685:5697   */\n      revert\n        /* \"#utility.yul\":5663:5699   */\n    tag_467:\n        /* \"#utility.yul\":5722:5767   */\n      tag_468\n        /* \"#utility.yul\":5759:5766   */\n      dup8\n        /* \"#utility.yul\":5748:5756   */\n      dup3\n        /* \"#utility.yul\":5744:5746   */\n      dup7\n        /* \"#utility.yul\":5740:5757   */\n      add\n        /* \"#utility.yul\":5722:5767   */\n      tag_394\n      jump\t// in\n    tag_468:\n        /* \"#utility.yul\":5715:5720   */\n      dup3\n        /* \"#utility.yul\":5708:5768   */\n      mstore\n      pop\n        /* \"#utility.yul\":5814:5816   */\n      0x20\n        /* \"#utility.yul\":5810:5812   */\n      dup4\n        /* \"#utility.yul\":5806:5817   */\n      add\n        /* \"#utility.yul\":5793:5818   */\n      calldataload\n        /* \"#utility.yul\":5843:5845   */\n      dup3\n        /* \"#utility.yul\":5833:5841   */\n      dup2\n        /* \"#utility.yul\":5830:5846   */\n      gt\n        /* \"#utility.yul\":5827:5863   */\n      iszero\n      tag_469\n      jumpi\n        /* \"#utility.yul\":5859:5860   */\n      0x00\n        /* \"#utility.yul\":5856:5857   */\n      dup1\n        /* \"#utility.yul\":5849:5861   */\n      revert\n        /* \"#utility.yul\":5827:5863   */\n    tag_469:\n        /* \"#utility.yul\":5895:5940   */\n      tag_470\n        /* \"#utility.yul\":5932:5939   */\n      dup8\n        /* \"#utility.yul\":5921:5929   */\n      dup3\n        /* \"#utility.yul\":5917:5919   */\n      dup7\n        /* \"#utility.yul\":5913:5930   */\n      add\n        /* \"#utility.yul\":5895:5940   */\n      tag_394\n      jump\t// in\n    tag_470:\n        /* \"#utility.yul\":5890:5892   */\n      0x20\n        /* \"#utility.yul\":5883:5888   */\n      dup4\n        /* \"#utility.yul\":5879:5893   */\n      add\n        /* \"#utility.yul\":5872:5941   */\n      mstore\n      pop\n        /* \"#utility.yul\":5987:5989   */\n      0x40\n        /* \"#utility.yul\":5983:5985   */\n      dup4\n        /* \"#utility.yul\":5979:5990   */\n      add\n        /* \"#utility.yul\":5966:5991   */\n      calldataload\n        /* \"#utility.yul\":6016:6018   */\n      dup3\n        /* \"#utility.yul\":6006:6014   */\n      dup2\n        /* \"#utility.yul\":6003:6019   */\n      gt\n        /* \"#utility.yul\":6000:6036   */\n      iszero\n      tag_471\n      jumpi\n        /* \"#utility.yul\":6032:6033   */\n      0x00\n        /* \"#utility.yul\":6029:6030   */\n      dup1\n        /* \"#utility.yul\":6022:6034   */\n      revert\n        /* \"#utility.yul\":6000:6036   */\n    tag_471:\n        /* \"#utility.yul\":6068:6124   */\n      tag_472\n        /* \"#utility.yul\":6116:6123   */\n      dup8\n        /* \"#utility.yul\":6105:6113   */\n      dup3\n        /* \"#utility.yul\":6101:6103   */\n      dup7\n        /* \"#utility.yul\":6097:6114   */\n      add\n        /* \"#utility.yul\":6068:6124   */\n      tag_396\n      jump\t// in\n    tag_472:\n        /* \"#utility.yul\":6063:6065   */\n      0x40\n        /* \"#utility.yul\":6056:6061   */\n      dup4\n        /* \"#utility.yul\":6052:6066   */\n      add\n        /* \"#utility.yul\":6045:6125   */\n      mstore\n      pop\n        /* \"#utility.yul\":6171:6173   */\n      0x60\n        /* \"#utility.yul\":6167:6169   */\n      dup4\n        /* \"#utility.yul\":6163:6174   */\n      add\n        /* \"#utility.yul\":6150:6175   */\n      calldataload\n        /* \"#utility.yul\":6200:6202   */\n      dup3\n        /* \"#utility.yul\":6190:6198   */\n      dup2\n        /* \"#utility.yul\":6187:6203   */\n      gt\n        /* \"#utility.yul\":6184:6220   */\n      iszero\n      tag_473\n      jumpi\n        /* \"#utility.yul\":6216:6217   */\n      0x00\n        /* \"#utility.yul\":6213:6214   */\n      dup1\n        /* \"#utility.yul\":6206:6218   */\n      revert\n        /* \"#utility.yul\":6184:6220   */\n    tag_473:\n        /* \"#utility.yul\":6252:6308   */\n      tag_474\n        /* \"#utility.yul\":6300:6307   */\n      dup8\n        /* \"#utility.yul\":6289:6297   */\n      dup3\n        /* \"#utility.yul\":6285:6287   */\n      dup7\n        /* \"#utility.yul\":6281:6298   */\n      add\n        /* \"#utility.yul\":6252:6308   */\n      tag_397\n      jump\t// in\n    tag_474:\n        /* \"#utility.yul\":6247:6249   */\n      0x60\n        /* \"#utility.yul\":6240:6245   */\n      dup4\n        /* \"#utility.yul\":6236:6250   */\n      add\n        /* \"#utility.yul\":6229:6309   */\n      mstore\n      pop\n        /* \"#utility.yul\":6355:6358   */\n      0x80\n        /* \"#utility.yul\":6351:6353   */\n      dup4\n        /* \"#utility.yul\":6347:6359   */\n      add\n        /* \"#utility.yul\":6334:6360   */\n      calldataload\n        /* \"#utility.yul\":6385:6387   */\n      dup3\n        /* \"#utility.yul\":6375:6383   */\n      dup2\n        /* \"#utility.yul\":6372:6388   */\n      gt\n        /* \"#utility.yul\":6369:6405   */\n      iszero\n      tag_475\n      jumpi\n        /* \"#utility.yul\":6401:6402   */\n      0x00\n        /* \"#utility.yul\":6398:6399   */\n      dup1\n        /* \"#utility.yul\":6391:6403   */\n      revert\n        /* \"#utility.yul\":6369:6405   */\n    tag_475:\n        /* \"#utility.yul\":6438:6494   */\n      tag_476\n        /* \"#utility.yul\":6486:6493   */\n      dup8\n        /* \"#utility.yul\":6475:6483   */\n      dup3\n        /* \"#utility.yul\":6471:6473   */\n      dup7\n        /* \"#utility.yul\":6467:6484   */\n      add\n        /* \"#utility.yul\":6438:6494   */\n      tag_397\n      jump\t// in\n    tag_476:\n        /* \"#utility.yul\":6432:6435   */\n      0x80\n        /* \"#utility.yul\":6425:6430   */\n      dup4\n        /* \"#utility.yul\":6421:6436   */\n      add\n        /* \"#utility.yul\":6414:6495   */\n      mstore\n      pop\n        /* \"#utility.yul\":6541:6544   */\n      0xa0\n        /* \"#utility.yul\":6537:6539   */\n      dup4\n        /* \"#utility.yul\":6533:6545   */\n      add\n        /* \"#utility.yul\":6520:6546   */\n      calldataload\n        /* \"#utility.yul\":6571:6573   */\n      dup3\n        /* \"#utility.yul\":6561:6569   */\n      dup2\n        /* \"#utility.yul\":6558:6574   */\n      gt\n        /* \"#utility.yul\":6555:6591   */\n      iszero\n      tag_477\n      jumpi\n        /* \"#utility.yul\":6587:6588   */\n      0x00\n        /* \"#utility.yul\":6584:6585   */\n      dup1\n        /* \"#utility.yul\":6577:6589   */\n      revert\n        /* \"#utility.yul\":6555:6591   */\n    tag_477:\n        /* \"#utility.yul\":6624:6680   */\n      tag_478\n        /* \"#utility.yul\":6672:6679   */\n      dup8\n        /* \"#utility.yul\":6661:6669   */\n      dup3\n        /* \"#utility.yul\":6657:6659   */\n      dup7\n        /* \"#utility.yul\":6653:6670   */\n      add\n        /* \"#utility.yul\":6624:6680   */\n      tag_397\n      jump\t// in\n    tag_478:\n        /* \"#utility.yul\":6618:6621   */\n      0xa0\n        /* \"#utility.yul\":6611:6616   */\n      dup4\n        /* \"#utility.yul\":6607:6622   */\n      add\n        /* \"#utility.yul\":6600:6681   */\n      mstore\n      pop\n        /* \"#utility.yul\":6714:6743   */\n      tag_479\n        /* \"#utility.yul\":6738:6741   */\n      0xc0\n        /* \"#utility.yul\":6734:6736   */\n      dup5\n        /* \"#utility.yul\":6730:6742   */\n      add\n        /* \"#utility.yul\":6714:6743   */\n      tag_399\n      jump\t// in\n    tag_479:\n        /* \"#utility.yul\":6708:6711   */\n      0xc0\n        /* \"#utility.yul\":6701:6706   */\n      dup3\n        /* \"#utility.yul\":6697:6712   */\n      add\n        /* \"#utility.yul\":6690:6744   */\n      mstore\n        /* \"#utility.yul\":6798:6801   */\n      0xe0\n        /* \"#utility.yul\":6794:6796   */\n      dup4\n        /* \"#utility.yul\":6790:6802   */\n      add\n        /* \"#utility.yul\":6777:6803   */\n      calldataload\n        /* \"#utility.yul\":6771:6774   */\n      0xe0\n        /* \"#utility.yul\":6764:6769   */\n      dup3\n        /* \"#utility.yul\":6760:6775   */\n      add\n        /* \"#utility.yul\":6753:6804   */\n      mstore\n        /* \"#utility.yul\":6823:6826   */\n      0x0100\n        /* \"#utility.yul\":6872:6874   */\n      dup1\n        /* \"#utility.yul\":6868:6870   */\n      dup5\n        /* \"#utility.yul\":6864:6875   */\n      add\n        /* \"#utility.yul\":6851:6876   */\n      calldataload\n        /* \"#utility.yul\":6901:6903   */\n      dup4\n        /* \"#utility.yul\":6891:6899   */\n      dup2\n        /* \"#utility.yul\":6888:6904   */\n      gt\n        /* \"#utility.yul\":6885:6921   */\n      iszero\n      tag_480\n      jumpi\n        /* \"#utility.yul\":6917:6918   */\n      0x00\n        /* \"#utility.yul\":6914:6915   */\n      dup1\n        /* \"#utility.yul\":6907:6919   */\n      revert\n        /* \"#utility.yul\":6885:6921   */\n    tag_480:\n        /* \"#utility.yul\":6953:6998   */\n      tag_481\n        /* \"#utility.yul\":6990:6997   */\n      dup9\n        /* \"#utility.yul\":6979:6987   */\n      dup3\n        /* \"#utility.yul\":6975:6977   */\n      dup8\n        /* \"#utility.yul\":6971:6988   */\n      add\n        /* \"#utility.yul\":6953:6998   */\n      tag_394\n      jump\t// in\n    tag_481:\n        /* \"#utility.yul\":6937:6951   */\n      swap2\n      dup4\n      add\n        /* \"#utility.yul\":6930:6999   */\n      swap2\n      swap1\n      swap2\n      mstore\n      pop\n        /* \"#utility.yul\":7018:7021   */\n      0x0120\n        /* \"#utility.yul\":7066:7077   */\n      dup4\n      dup2\n      add\n        /* \"#utility.yul\":7053:7078   */\n      calldataload\n        /* \"#utility.yul\":7037:7051   */\n      swap1\n      dup3\n      add\n        /* \"#utility.yul\":7030:7079   */\n      mstore\n        /* \"#utility.yul\":7098:7101   */\n      0x0140\n        /* \"#utility.yul\":7146:7157   */\n      swap3\n      dup4\n      add\n        /* \"#utility.yul\":7133:7158   */\n      calldataload\n        /* \"#utility.yul\":7117:7131   */\n      swap3\n      dup2\n      add\n        /* \"#utility.yul\":7110:7159   */\n      swap3\n      swap1\n      swap3\n      mstore\n      pop\n        /* \"#utility.yul\":6941:6946   */\n      swap4\n        /* \"#utility.yul\":5184:7189   */\n      swap3\n      pop\n      pop\n      pop\n      jump\t// out\n        /* \"#utility.yul\":7194:7576   */\n    tag_57:\n        /* \"#utility.yul\":7259:7265   */\n      0x00\n        /* \"#utility.yul\":7267:7273   */\n      dup1\n        /* \"#utility.yul\":7320:7322   */\n      0x40\n        /* \"#utility.yul\":7308:7317   */\n      dup4\n        /* \"#utility.yul\":7299:7306   */\n      dup6\n        /* \"#utility.yul\":7295:7318   */\n      sub\n        /* \"#utility.yul\":7291:7323   */\n      slt\n        /* \"#utility.yul\":7288:7340   */\n      iszero\n      tag_483\n      jumpi\n        /* \"#utility.yul\":7336:7337   */\n      0x00\n        /* \"#utility.yul\":7333:7334   */\n      dup1\n        /* \"#utility.yul\":7326:7338   */\n      revert\n        /* \"#utility.yul\":7288:7340   */\n    tag_483:\n        /* \"#utility.yul\":7375:7384   */\n      dup3\n        /* \"#utility.yul\":7362:7385   */\n      calldataload\n        /* \"#utility.yul\":7394:7425   */\n      tag_484\n        /* \"#utility.yul\":7419:7424   */\n      dup2\n        /* \"#utility.yul\":7394:7425   */\n      tag_389\n      jump\t// in\n    tag_484:\n        /* \"#utility.yul\":7444:7449   */\n      swap2\n      pop\n        /* \"#utility.yul\":7501:7503   */\n      0x20\n        /* \"#utility.yul\":7486:7504   */\n      dup4\n      add\n        /* \"#utility.yul\":7473:7505   */\n      calldataload\n        /* \"#utility.yul\":7514:7544   */\n      tag_485\n        /* \"#utility.yul\":7473:7505   */\n      dup2\n        /* \"#utility.yul\":7514:7544   */\n      tag_398\n      jump\t// in\n    tag_485:\n        /* \"#utility.yul\":7563:7570   */\n      dup1\n        /* \"#utility.yul\":7553:7570   */\n      swap2\n      pop\n      pop\n        /* \"#utility.yul\":7194:7576   */\n      swap3\n      pop\n      swap3\n      swap1\n      pop\n      jump\t// out\n        /* \"#utility.yul\":7773:8234   */\n    tag_400:\n        /* \"#utility.yul\":7826:7829   */\n      0x00\n        /* \"#utility.yul\":7864:7869   */\n      dup2\n        /* \"#utility.yul\":7858:7870   */\n      mload\n        /* \"#utility.yul\":7891:7897   */\n      dup1\n        /* \"#utility.yul\":7886:7889   */\n      dup5\n        /* \"#utility.yul\":7879:7898   */\n      mstore\n        /* \"#utility.yul\":7917:7921   */\n      0x20\n        /* \"#utility.yul\":7946:7948   */\n      dup1\n        /* \"#utility.yul\":7941:7944   */\n      dup6\n        /* \"#utility.yul\":7937:7949   */\n      add\n        /* \"#utility.yul\":7930:7949   */\n      swap5\n      pop\n        /* \"#utility.yul\":7983:7985   */\n      dup1\n        /* \"#utility.yul\":7976:7981   */\n      dup5\n        /* \"#utility.yul\":7972:7986   */\n      add\n        /* \"#utility.yul\":8004:8005   */\n      0x00\n        /* \"#utility.yul\":8014:8209   */\n    tag_488:\n        /* \"#utility.yul\":8028:8034   */\n      dup4\n        /* \"#utility.yul\":8025:8026   */\n      dup2\n        /* \"#utility.yul\":8022:8035   */\n      lt\n        /* \"#utility.yul\":8014:8209   */\n      iszero\n      tag_490\n      jumpi\n        /* \"#utility.yul\":8093:8106   */\n      dup2\n      mload\n      sub(shl(0xa0, 0x01), 0x01)\n        /* \"#utility.yul\":8089:8128   */\n      and\n        /* \"#utility.yul\":8077:8129   */\n      dup8\n      mstore\n        /* \"#utility.yul\":8149:8161   */\n      swap6\n      dup3\n      add\n      swap6\n        /* \"#utility.yul\":8184:8199   */\n      swap1\n      dup3\n      add\n      swap1\n        /* \"#utility.yul\":8125:8126   */\n      0x01\n        /* \"#utility.yul\":8043:8052   */\n      add\n        /* \"#utility.yul\":8014:8209   */\n      jump(tag_488)\n    tag_490:\n      pop\n        /* \"#utility.yul\":8225:8228   */\n      swap5\n      swap6\n        /* \"#utility.yul\":7773:8234   */\n      swap5\n      pop\n      pop\n      pop\n      pop\n      pop\n      jump\t// out\n        /* \"#utility.yul\":8239:8500   */\n    tag_67:\n        /* \"#utility.yul\":8418:8420   */\n      0x20\n        /* \"#utility.yul\":8407:8416   */\n      dup2\n        /* \"#utility.yul\":8400:8421   */\n      mstore\n        /* \"#utility.yul\":8381:8385   */\n      0x00\n        /* \"#utility.yul\":8438:8494   */\n      tag_335\n        /* \"#utility.yul\":8490:8492   */\n      0x20\n        /* \"#utility.yul\":8479:8488   */\n      dup4\n        /* \"#utility.yul\":8475:8493   */\n      add\n        /* \"#utility.yul\":8467:8473   */\n      dup5\n        /* \"#utility.yul\":8438:8494   */\n      tag_400\n      jump\t// in\n        /* \"#utility.yul\":8505:8893   */\n    tag_70:\n        /* \"#utility.yul\":8573:8579   */\n      0x00\n        /* \"#utility.yul\":8581:8587   */\n      dup1\n        /* \"#utility.yul\":8634:8636   */\n      0x40\n        /* \"#utility.yul\":8622:8631   */\n      dup4\n        /* \"#utility.yul\":8613:8620   */\n      dup6\n        /* \"#utility.yul\":8609:8632   */\n      sub\n        /* \"#utility.yul\":8605:8637   */\n      slt\n        /* \"#utility.yul\":8602:8654   */\n      iszero\n      tag_494\n      jumpi\n        /* \"#utility.yul\":8650:8651   */\n      0x00\n        /* \"#utility.yul\":8647:8648   */\n      dup1\n        /* \"#utility.yul\":8640:8652   */\n      revert\n        /* \"#utility.yul\":8602:8654   */\n    tag_494:\n        /* \"#utility.yul\":8689:8698   */\n      dup3\n        /* \"#utility.yul\":8676:8699   */\n      calldataload\n        /* \"#utility.yul\":8708:8739   */\n      tag_495\n        /* \"#utility.yul\":8733:8738   */\n      dup2\n        /* \"#utility.yul\":8708:8739   */\n      tag_389\n      jump\t// in\n    tag_495:\n        /* \"#utility.yul\":8758:8763   */\n      swap2\n      pop\n        /* \"#utility.yul\":8815:8817   */\n      0x20\n        /* \"#utility.yul\":8800:8818   */\n      dup4\n      add\n        /* \"#utility.yul\":8787:8819   */\n      calldataload\n        /* \"#utility.yul\":8828:8861   */\n      tag_485\n        /* \"#utility.yul\":8787:8819   */\n      dup2\n        /* \"#utility.yul\":8828:8861   */\n      tag_389\n      jump\t// in\n        /* \"#utility.yul\":9080:9409   */\n    tag_100:\n        /* \"#utility.yul\":9282:9284   */\n      0x20\n        /* \"#utility.yul\":9264:9285   */\n      dup1\n      dup3\n      mstore\n        /* \"#utility.yul\":9321:9322   */\n      0x06\n        /* \"#utility.yul\":9301:9319   */\n      swap1\n      dup3\n      add\n        /* \"#utility.yul\":9294:9323   */\n      mstore\n      shl(0xd1, 0x10b7bbb732b9)\n        /* \"#utility.yul\":9354:9356   */\n      0x40\n        /* \"#utility.yul\":9339:9357   */\n      dup3\n      add\n        /* \"#utility.yul\":9332:9368   */\n      mstore\n        /* \"#utility.yul\":9400:9402   */\n      0x60\n        /* \"#utility.yul\":9385:9403   */\n      add\n      swap1\n        /* \"#utility.yul\":9080:9409   */\n      jump\t// out\n        /* \"#utility.yul\":9414:9598   */\n    tag_105:\n        /* \"#utility.yul\":9484:9490   */\n      0x00\n        /* \"#utility.yul\":9537:9539   */\n      0x20\n        /* \"#utility.yul\":9525:9534   */\n      dup3\n        /* \"#utility.yul\":9516:9523   */\n      dup5\n        /* \"#utility.yul\":9512:9535   */\n      sub\n        /* \"#utility.yul\":9508:9540   */\n      slt\n        /* \"#utility.yul\":9505:9557   */\n      iszero\n      tag_500\n      jumpi\n        /* \"#utility.yul\":9553:9554   */\n      0x00\n        /* \"#utility.yul\":9550:9551   */\n      dup1\n        /* \"#utility.yul\":9543:9555   */\n      revert\n        /* \"#utility.yul\":9505:9557   */\n    tag_500:\n      pop\n        /* \"#utility.yul\":9576:9592   */\n      mload\n      swap2\n        /* \"#utility.yul\":9414:9598   */\n      swap1\n      pop\n      jump\t// out\n        /* \"#utility.yul\":9785:10444   */\n    tag_401:\n        /* \"#utility.yul\":9850:9855   */\n      0x00\n        /* \"#utility.yul\":9903:9906   */\n      dup3\n        /* \"#utility.yul\":9896:9900   */\n      0x1f\n        /* \"#utility.yul\":9888:9894   */\n      dup4\n        /* \"#utility.yul\":9884:9901   */\n      add\n        /* \"#utility.yul\":9880:9907   */\n      slt\n        /* \"#utility.yul\":9870:9925   */\n      tag_503\n      jumpi\n        /* \"#utility.yul\":9921:9922   */\n      0x00\n        /* \"#utility.yul\":9918:9919   */\n      dup1\n        /* \"#utility.yul\":9911:9923   */\n      revert\n        /* \"#utility.yul\":9870:9925   */\n    tag_503:\n        /* \"#utility.yul\":9950:9956   */\n      dup2\n        /* \"#utility.yul\":9944:9957   */\n      mload\n        /* \"#utility.yul\":9976:9980   */\n      0x20\n        /* \"#utility.yul\":10000:10060   */\n      tag_504\n        /* \"#utility.yul\":10016:10059   */\n      tag_444\n        /* \"#utility.yul\":10056:10058   */\n      dup4\n        /* \"#utility.yul\":10016:10059   */\n      tag_395\n      jump\t// in\n        /* \"#utility.yul\":10000:10060   */\n    tag_504:\n        /* \"#utility.yul\":10094:10109   */\n      dup3\n      dup2\n      mstore\n        /* \"#utility.yul\":10180:10181   */\n      0x05\n        /* \"#utility.yul\":10176:10186   */\n      swap3\n      swap1\n      swap3\n      shl\n        /* \"#utility.yul\":10164:10187   */\n      dup5\n      add\n        /* \"#utility.yul\":10160:10192   */\n      dup2\n      add\n      swap2\n        /* \"#utility.yul\":10125:10137   */\n      dup2\n      dup2\n      add\n      swap1\n        /* \"#utility.yul\":10204:10219   */\n      dup7\n      dup5\n      gt\n        /* \"#utility.yul\":10201:10236   */\n      iszero\n      tag_506\n      jumpi\n        /* \"#utility.yul\":10232:10233   */\n      0x00\n        /* \"#utility.yul\":10229:10230   */\n      dup1\n        /* \"#utility.yul\":10222:10234   */\n      revert\n        /* \"#utility.yul\":10201:10236   */\n    tag_506:\n        /* \"#utility.yul\":10268:10270   */\n      dup3\n        /* \"#utility.yul\":10260:10266   */\n      dup7\n        /* \"#utility.yul\":10256:10271   */\n      add\n        /* \"#utility.yul\":10280:10415   */\n    tag_507:\n        /* \"#utility.yul\":10296:10302   */\n      dup5\n        /* \"#utility.yul\":10291:10294   */\n      dup2\n        /* \"#utility.yul\":10288:10303   */\n      lt\n        /* \"#utility.yul\":10280:10415   */\n      iszero\n      tag_448\n      jumpi\n        /* \"#utility.yul\":10362:10372   */\n      dup1\n      mload\n        /* \"#utility.yul\":10350:10373   */\n      dup4\n      mstore\n        /* \"#utility.yul\":10393:10405   */\n      swap2\n      dup4\n      add\n      swap2\n        /* \"#utility.yul\":10313:10325   */\n      dup4\n      add\n        /* \"#utility.yul\":10280:10415   */\n      jump(tag_507)\n        /* \"#utility.yul\":10449:11719   */\n    tag_111:\n        /* \"#utility.yul\":10587:10593   */\n      0x00\n        /* \"#utility.yul\":10595:10601   */\n      dup1\n        /* \"#utility.yul\":10603:10609   */\n      0x00\n        /* \"#utility.yul\":10656:10658   */\n      0x60\n        /* \"#utility.yul\":10644:10653   */\n      dup5\n        /* \"#utility.yul\":10635:10642   */\n      dup7\n        /* \"#utility.yul\":10631:10654   */\n      sub\n        /* \"#utility.yul\":10627:10659   */\n      slt\n        /* \"#utility.yul\":10624:10676   */\n      iszero\n      tag_511\n      jumpi\n        /* \"#utility.yul\":10672:10673   */\n      0x00\n        /* \"#utility.yul\":10669:10670   */\n      dup1\n        /* \"#utility.yul\":10662:10674   */\n      revert\n        /* \"#utility.yul\":10624:10676   */\n    tag_511:\n        /* \"#utility.yul\":10705:10714   */\n      dup4\n        /* \"#utility.yul\":10699:10715   */\n      mload\n        /* \"#utility.yul\":10734:10752   */\n      0xffffffffffffffff\n        /* \"#utility.yul\":10775:10777   */\n      dup1\n        /* \"#utility.yul\":10767:10773   */\n      dup3\n        /* \"#utility.yul\":10764:10778   */\n      gt\n        /* \"#utility.yul\":10761:10795   */\n      iszero\n      tag_512\n      jumpi\n        /* \"#utility.yul\":10791:10792   */\n      0x00\n        /* \"#utility.yul\":10788:10789   */\n      dup1\n        /* \"#utility.yul\":10781:10793   */\n      revert\n        /* \"#utility.yul\":10761:10795   */\n    tag_512:\n        /* \"#utility.yul\":10829:10835   */\n      dup2\n        /* \"#utility.yul\":10818:10827   */\n      dup7\n        /* \"#utility.yul\":10814:10836   */\n      add\n        /* \"#utility.yul\":10804:10836   */\n      swap2\n      pop\n        /* \"#utility.yul\":10874:10881   */\n      dup7\n        /* \"#utility.yul\":10867:10871   */\n      0x1f\n        /* \"#utility.yul\":10863:10865   */\n      dup4\n        /* \"#utility.yul\":10859:10872   */\n      add\n        /* \"#utility.yul\":10855:10882   */\n      slt\n        /* \"#utility.yul\":10845:10900   */\n      tag_513\n      jumpi\n        /* \"#utility.yul\":10896:10897   */\n      0x00\n        /* \"#utility.yul\":10893:10894   */\n      dup1\n        /* \"#utility.yul\":10886:10898   */\n      revert\n        /* \"#utility.yul\":10845:10900   */\n    tag_513:\n        /* \"#utility.yul\":10925:10927   */\n      dup2\n        /* \"#utility.yul\":10919:10928   */\n      mload\n        /* \"#utility.yul\":10947:10951   */\n      0x20\n        /* \"#utility.yul\":10971:11031   */\n      tag_514\n        /* \"#utility.yul\":10987:11030   */\n      tag_444\n        /* \"#utility.yul\":11027:11029   */\n      dup4\n        /* \"#utility.yul\":10987:11030   */\n      tag_395\n      jump\t// in\n        /* \"#utility.yul\":10971:11031   */\n    tag_514:\n        /* \"#utility.yul\":11065:11080   */\n      dup3\n      dup2\n      mstore\n        /* \"#utility.yul\":11147:11148   */\n      0x05\n        /* \"#utility.yul\":11143:11153   */\n      swap3\n      swap1\n      swap3\n      shl\n        /* \"#utility.yul\":11135:11154   */\n      dup5\n      add\n        /* \"#utility.yul\":11131:11159   */\n      dup2\n      add\n      swap2\n        /* \"#utility.yul\":11096:11108   */\n      dup2\n      dup2\n      add\n      swap1\n        /* \"#utility.yul\":11171:11190   */\n      dup11\n      dup5\n      gt\n        /* \"#utility.yul\":11168:11207   */\n      iszero\n      tag_516\n      jumpi\n        /* \"#utility.yul\":11203:11204   */\n      0x00\n        /* \"#utility.yul\":11200:11201   */\n      dup1\n        /* \"#utility.yul\":11193:11205   */\n      revert\n        /* \"#utility.yul\":11168:11207   */\n    tag_516:\n        /* \"#utility.yul\":11227:11238   */\n      swap5\n      dup3\n      add\n      swap5\n        /* \"#utility.yul\":11247:11457   */\n    tag_517:\n        /* \"#utility.yul\":11263:11269   */\n      dup4\n        /* \"#utility.yul\":11258:11261   */\n      dup7\n        /* \"#utility.yul\":11255:11270   */\n      lt\n        /* \"#utility.yul\":11247:11457   */\n      iszero\n      tag_519\n      jumpi\n        /* \"#utility.yul\":11336:11339   */\n      dup6\n        /* \"#utility.yul\":11330:11340   */\n      mload\n        /* \"#utility.yul\":11353:11384   */\n      tag_520\n        /* \"#utility.yul\":11378:11383   */\n      dup2\n        /* \"#utility.yul\":11353:11384   */\n      tag_389\n      jump\t// in\n    tag_520:\n        /* \"#utility.yul\":11397:11415   */\n      dup3\n      mstore\n        /* \"#utility.yul\":11280:11292   */\n      swap5\n      dup3\n      add\n      swap5\n        /* \"#utility.yul\":11435:11447   */\n      swap1\n      dup3\n      add\n      swap1\n        /* \"#utility.yul\":11247:11457   */\n      jump(tag_517)\n    tag_519:\n        /* \"#utility.yul\":11512:11530   */\n      swap2\n      dup10\n      add\n        /* \"#utility.yul\":11506:11531   */\n      mload\n        /* \"#utility.yul\":11476:11481   */\n      swap2\n      swap8\n      pop\n        /* \"#utility.yul\":11506:11531   */\n      swap1\n      swap4\n      pop\n      pop\n      pop\n        /* \"#utility.yul\":11543:11559   */\n      dup1\n      dup3\n      gt\n        /* \"#utility.yul\":11540:11576   */\n      iszero\n      tag_521\n      jumpi\n        /* \"#utility.yul\":11572:11573   */\n      0x00\n        /* \"#utility.yul\":11569:11570   */\n      dup1\n        /* \"#utility.yul\":11562:11574   */\n      revert\n        /* \"#utility.yul\":11540:11576   */\n    tag_521:\n      pop\n        /* \"#utility.yul\":11595:11669   */\n      tag_522\n        /* \"#utility.yul\":11661:11668   */\n      dup7\n        /* \"#utility.yul\":11650:11658   */\n      dup3\n        /* \"#utility.yul\":11639:11648   */\n      dup8\n        /* \"#utility.yul\":11635:11659   */\n      add\n        /* \"#utility.yul\":11595:11669   */\n      tag_401\n      jump\t// in\n    tag_522:\n        /* \"#utility.yul\":11585:11669   */\n      swap3\n      pop\n      pop\n        /* \"#utility.yul\":11709:11711   */\n      0x40\n        /* \"#utility.yul\":11698:11707   */\n      dup5\n        /* \"#utility.yul\":11694:11712   */\n      add\n        /* \"#utility.yul\":11688:11713   */\n      mload\n        /* \"#utility.yul\":11678:11713   */\n      swap1\n      pop\n        /* \"#utility.yul\":10449:11719   */\n      swap3\n      pop\n      swap3\n      pop\n      swap3\n      jump\t// out\n        /* \"#utility.yul\":12959:13371   */\n    tag_129:\n        /* \"#utility.yul\":13132:13134   */\n      0x40\n        /* \"#utility.yul\":13117:13135   */\n      dup2\n      add\n        /* \"#utility.yul\":13165:13166   */\n      0x03\n        /* \"#utility.yul\":13154:13167   */\n      dup5\n      lt\n        /* \"#utility.yul\":13144:13288   */\n      tag_529\n      jumpi\n        /* \"#utility.yul\":13210:13220   */\n      0x4e487b71\n        /* \"#utility.yul\":13205:13208   */\n      0xe0\n        /* \"#utility.yul\":13201:13221   */\n      shl\n        /* \"#utility.yul\":13198:13199   */\n      0x00\n        /* \"#utility.yul\":13191:13222   */\n      mstore\n        /* \"#utility.yul\":13245:13249   */\n      0x21\n        /* \"#utility.yul\":13242:13243   */\n      0x04\n        /* \"#utility.yul\":13235:13250   */\n      mstore\n        /* \"#utility.yul\":13273:13277   */\n      0x24\n        /* \"#utility.yul\":13270:13271   */\n      0x00\n        /* \"#utility.yul\":13263:13278   */\n      revert\n        /* \"#utility.yul\":13144:13288   */\n    tag_529:\n        /* \"#utility.yul\":13297:13322   */\n      swap3\n      dup2\n      mstore\n        /* \"#utility.yul\":13353:13355   */\n      0x20\n        /* \"#utility.yul\":13338:13356   */\n      add\n        /* \"#utility.yul\":13331:13365   */\n      mstore\n        /* \"#utility.yul\":12959:13371   */\n      swap1\n      jump\t// out\n        /* \"#utility.yul\":13376:13811   */\n    tag_402:\n        /* \"#utility.yul\":13429:13432   */\n      0x00\n        /* \"#utility.yul\":13467:13472   */\n      dup2\n        /* \"#utility.yul\":13461:13473   */\n      mload\n        /* \"#utility.yul\":13494:13500   */\n      dup1\n        /* \"#utility.yul\":13489:13492   */\n      dup5\n        /* \"#utility.yul\":13482:13501   */\n      mstore\n        /* \"#utility.yul\":13520:13524   */\n      0x20\n        /* \"#utility.yul\":13549:13551   */\n      dup1\n        /* \"#utility.yul\":13544:13547   */\n      dup6\n        /* \"#utility.yul\":13540:13552   */\n      add\n        /* \"#utility.yul\":13533:13552   */\n      swap5\n      pop\n        /* \"#utility.yul\":13586:13588   */\n      dup1\n        /* \"#utility.yul\":13579:13584   */\n      dup5\n        /* \"#utility.yul\":13575:13589   */\n      add\n        /* \"#utility.yul\":13607:13608   */\n      0x00\n        /* \"#utility.yul\":13617:13786   */\n    tag_531:\n        /* \"#utility.yul\":13631:13637   */\n      dup4\n        /* \"#utility.yul\":13628:13629   */\n      dup2\n        /* \"#utility.yul\":13625:13638   */\n      lt\n        /* \"#utility.yul\":13617:13786   */\n      iszero\n      tag_490\n      jumpi\n        /* \"#utility.yul\":13692:13705   */\n      dup2\n      mload\n        /* \"#utility.yul\":13680:13706   */\n      dup8\n      mstore\n        /* \"#utility.yul\":13726:13738   */\n      swap6\n      dup3\n      add\n      swap6\n        /* \"#utility.yul\":13761:13776   */\n      swap1\n      dup3\n      add\n      swap1\n        /* \"#utility.yul\":13653:13654   */\n      0x01\n        /* \"#utility.yul\":13646:13655   */\n      add\n        /* \"#utility.yul\":13617:13786   */\n      jump(tag_531)\n        /* \"#utility.yul\":13816:14074   */\n    tag_403:\n        /* \"#utility.yul\":13888:13889   */\n      0x00\n        /* \"#utility.yul\":13898:14011   */\n    tag_535:\n        /* \"#utility.yul\":13912:13918   */\n      dup4\n        /* \"#utility.yul\":13909:13910   */\n      dup2\n        /* \"#utility.yul\":13906:13919   */\n      lt\n        /* \"#utility.yul\":13898:14011   */\n      iszero\n      tag_537\n      jumpi\n        /* \"#utility.yul\":13988:13999   */\n      dup2\n      dup2\n      add\n        /* \"#utility.yul\":13982:14000   */\n      mload\n        /* \"#utility.yul\":13969:13980   */\n      dup4\n      dup3\n      add\n        /* \"#utility.yul\":13962:14001   */\n      mstore\n        /* \"#utility.yul\":13934:13936   */\n      0x20\n        /* \"#utility.yul\":13927:13937   */\n      add\n        /* \"#utility.yul\":13898:14011   */\n      jump(tag_535)\n    tag_537:\n        /* \"#utility.yul\":14029:14035   */\n      dup4\n        /* \"#utility.yul\":14026:14027   */\n      dup2\n        /* \"#utility.yul\":14023:14036   */\n      gt\n        /* \"#utility.yul\":14020:14068   */\n      iszero\n      tag_538\n      jumpi\n        /* \"#utility.yul\":14064:14065   */\n      0x00\n        /* \"#utility.yul\":14055:14061   */\n      dup5\n        /* \"#utility.yul\":14050:14053   */\n      dup5\n        /* \"#utility.yul\":14046:14062   */\n      add\n        /* \"#utility.yul\":14039:14066   */\n      mstore\n        /* \"#utility.yul\":14020:14068   */\n    tag_538:\n      pop\n        /* \"#utility.yul\":13816:14074   */\n      pop\n      pop\n      pop\n      jump\t// out\n        /* \"#utility.yul\":14079:14336   */\n    tag_404:\n        /* \"#utility.yul\":14120:14123   */\n      0x00\n        /* \"#utility.yul\":14158:14163   */\n      dup2\n        /* \"#utility.yul\":14152:14164   */\n      mload\n        /* \"#utility.yul\":14185:14191   */\n      dup1\n        /* \"#utility.yul\":14180:14183   */\n      dup5\n        /* \"#utility.yul\":14173:14192   */\n      mstore\n        /* \"#utility.yul\":14201:14264   */\n      tag_540\n        /* \"#utility.yul\":14257:14263   */\n      dup2\n        /* \"#utility.yul\":14250:14254   */\n      0x20\n        /* \"#utility.yul\":14245:14248   */\n      dup7\n        /* \"#utility.yul\":14241:14255   */\n      add\n        /* \"#utility.yul\":14234:14238   */\n      0x20\n        /* \"#utility.yul\":14227:14232   */\n      dup7\n        /* \"#utility.yul\":14223:14239   */\n      add\n        /* \"#utility.yul\":14201:14264   */\n      tag_403\n      jump\t// in\n    tag_540:\n        /* \"#utility.yul\":14318:14320   */\n      0x1f\n        /* \"#utility.yul\":14297:14312   */\n      add\n      not(0x1f)\n        /* \"#utility.yul\":14293:14322   */\n      and\n        /* \"#utility.yul\":14284:14323   */\n      swap3\n      swap1\n      swap3\n      add\n        /* \"#utility.yul\":14325:14329   */\n      0x20\n        /* \"#utility.yul\":14280:14330   */\n      add\n      swap3\n        /* \"#utility.yul\":14079:14336   */\n      swap2\n      pop\n      pop\n      jump\t// out\n        /* \"#utility.yul\":14341:15410   */\n    tag_405:\n        /* \"#utility.yul\":14472:14484   */\n      dup1\n      mload\n        /* \"#utility.yul\":14438:14442   */\n      0x80\n        /* \"#utility.yul\":14493:14510   */\n      dup1\n      dup5\n      mstore\n        /* \"#utility.yul\":14559:14578   */\n      dup2\n      mload\n        /* \"#utility.yul\":14429:14443   */\n      swap1\n      dup5\n      add\n        /* \"#utility.yul\":14587:14607   */\n      dup2\n      swap1\n      mstore\n        /* \"#utility.yul\":14399:14402   */\n      0x00\n      swap2\n        /* \"#utility.yul\":14657:14661   */\n      0x20\n      swap2\n        /* \"#utility.yul\":14684:14705   */\n      swap1\n      dup3\n      add\n      swap1\n        /* \"#utility.yul\":14634:14637   */\n      0xa0\n        /* \"#utility.yul\":14625:14638   */\n      dup7\n      add\n      swap1\n        /* \"#utility.yul\":14399:14402   */\n      dup5\n        /* \"#utility.yul\":14733:14934   */\n    tag_542:\n        /* \"#utility.yul\":14747:14753   */\n      dup2\n        /* \"#utility.yul\":14744:14745   */\n      dup2\n        /* \"#utility.yul\":14741:14754   */\n      lt\n        /* \"#utility.yul\":14733:14934   */\n      iszero\n      tag_544\n      jumpi\n        /* \"#utility.yul\":14814:14827   */\n      dup4\n      mload\n      sub(shl(0xa0, 0x01), 0x01)\n        /* \"#utility.yul\":14810:14849   */\n      and\n        /* \"#utility.yul\":14796:14850   */\n      dup4\n      mstore\n        /* \"#utility.yul\":14909:14924   */\n      swap3\n      dup5\n      add\n      swap3\n        /* \"#utility.yul\":14872:14886   */\n      swap2\n      dup5\n      add\n      swap2\n        /* \"#utility.yul\":14846:14847   */\n      0x01\n        /* \"#utility.yul\":14762:14771   */\n      add\n        /* \"#utility.yul\":14733:14934   */\n      jump(tag_542)\n    tag_544:\n        /* \"#utility.yul\":14737:14740   */\n      pop\n      pop\n        /* \"#utility.yul\":14982:14984   */\n      dup3\n        /* \"#utility.yul\":14975:14980   */\n      dup6\n        /* \"#utility.yul\":14971:14985   */\n      add\n        /* \"#utility.yul\":14965:14986   */\n      mload\n        /* \"#utility.yul\":14943:14986   */\n      swap2\n      pop\n        /* \"#utility.yul\":15027:15030   */\n      dup6\n        /* \"#utility.yul\":15020:15025   */\n      dup2\n        /* \"#utility.yul\":15016:15031   */\n      sub\n        /* \"#utility.yul\":15011:15013   */\n      dup4\n        /* \"#utility.yul\":15006:15009   */\n      dup8\n        /* \"#utility.yul\":15002:15014   */\n      add\n        /* \"#utility.yul\":14995:15032   */\n      mstore\n        /* \"#utility.yul\":15055:15106   */\n      tag_545\n        /* \"#utility.yul\":15100:15105   */\n      dup2\n        /* \"#utility.yul\":15084:15098   */\n      dup4\n        /* \"#utility.yul\":15055:15106   */\n      tag_402\n      jump\t// in\n    tag_545:\n        /* \"#utility.yul\":15041:15106   */\n      swap3\n      pop\n      pop\n      pop\n        /* \"#utility.yul\":15154:15158   */\n      0x40\n        /* \"#utility.yul\":15147:15152   */\n      dup4\n        /* \"#utility.yul\":15143:15159   */\n      add\n        /* \"#utility.yul\":15137:15160   */\n      mload\n        /* \"#utility.yul\":15204:15207   */\n      dup5\n        /* \"#utility.yul\":15196:15202   */\n      dup3\n        /* \"#utility.yul\":15192:15208   */\n      sub\n        /* \"#utility.yul\":15185:15189   */\n      0x40\n        /* \"#utility.yul\":15180:15183   */\n      dup7\n        /* \"#utility.yul\":15176:15190   */\n      add\n        /* \"#utility.yul\":15169:15209   */\n      mstore\n        /* \"#utility.yul\":15232:15272   */\n      tag_546\n        /* \"#utility.yul\":15265:15271   */\n      dup3\n        /* \"#utility.yul\":15249:15263   */\n      dup3\n        /* \"#utility.yul\":15232:15272   */\n      tag_404\n      jump\t// in\n    tag_546:\n        /* \"#utility.yul\":15218:15272   */\n      swap2\n      pop\n      pop\n        /* \"#utility.yul\":15320:15324   */\n      0x60\n        /* \"#utility.yul\":15313:15318   */\n      dup4\n        /* \"#utility.yul\":15309:15325   */\n      add\n        /* \"#utility.yul\":15303:15326   */\n      mload\n        /* \"#utility.yul\":15335:15382   */\n      tag_547\n        /* \"#utility.yul\":15376:15380   */\n      0x60\n        /* \"#utility.yul\":15371:15374   */\n      dup7\n        /* \"#utility.yul\":15367:15381   */\n      add\n        /* \"#utility.yul\":15351:15365   */\n      dup3\n        /* \"#utility.yul\":1688:1701   */\n      iszero\n        /* \"#utility.yul\":1681:1702   */\n      iszero\n        /* \"#utility.yul\":1669:1703   */\n      swap1\n      mstore\n        /* \"#utility.yul\":1618:1709   */\n      jump\n        /* \"#utility.yul\":15335:15382   */\n    tag_547:\n      pop\n        /* \"#utility.yul\":15398:15404   */\n      swap4\n        /* \"#utility.yul\":14341:15410   */\n      swap3\n      pop\n      pop\n      pop\n      jump\t// out\n        /* \"#utility.yul\":15415:15976   */\n    tag_131:\n        /* \"#utility.yul\":15684:15709   */\n      dup5\n      dup2\n      mstore\n      sub(shl(0xa0, 0x01), 0x01)\n        /* \"#utility.yul\":15783:15798   */\n      dup5\n      dup2\n      and\n        /* \"#utility.yul\":15778:15780   */\n      0x20\n        /* \"#utility.yul\":15763:15781   */\n      dup4\n      add\n        /* \"#utility.yul\":15756:15799   */\n      mstore\n        /* \"#utility.yul\":15835:15850   */\n      dup4\n      and\n        /* \"#utility.yul\":15830:15832   */\n      0x40\n        /* \"#utility.yul\":15815:15833   */\n      dup3\n      add\n        /* \"#utility.yul\":15808:15851   */\n      mstore\n        /* \"#utility.yul\":15887:15890   */\n      0x80\n        /* \"#utility.yul\":15882:15884   */\n      0x60\n        /* \"#utility.yul\":15867:15885   */\n      dup3\n      add\n        /* \"#utility.yul\":15860:15891   */\n      dup2\n      swap1\n      mstore\n        /* \"#utility.yul\":15665:15669   */\n      0x00\n      swap1\n        /* \"#utility.yul\":15908:15970   */\n      tag_549\n      swap1\n        /* \"#utility.yul\":15950:15969   */\n      dup4\n      add\n        /* \"#utility.yul\":15942:15948   */\n      dup5\n        /* \"#utility.yul\":15908:15970   */\n      tag_405\n      jump\t// in\n    tag_549:\n        /* \"#utility.yul\":15900:15970   */\n      swap7\n        /* \"#utility.yul\":15415:15976   */\n      swap6\n      pop\n      pop\n      pop\n      pop\n      pop\n      pop\n      jump\t// out\n        /* \"#utility.yul\":15981:16822   */\n    tag_136:\n        /* \"#utility.yul\":16294:16296   */\n      0x60\n        /* \"#utility.yul\":16283:16292   */\n      dup2\n        /* \"#utility.yul\":16276:16297   */\n      mstore\n        /* \"#utility.yul\":16257:16261   */\n      0x00\n        /* \"#utility.yul\":16320:16376   */\n      tag_551\n        /* \"#utility.yul\":16372:16374   */\n      0x60\n        /* \"#utility.yul\":16361:16370   */\n      dup4\n        /* \"#utility.yul\":16357:16375   */\n      add\n        /* \"#utility.yul\":16349:16355   */\n      dup8\n        /* \"#utility.yul\":16320:16376   */\n      tag_400\n      jump\t// in\n    tag_551:\n        /* \"#utility.yul\":16412:16434   */\n      dup3\n      dup2\n      sub\n        /* \"#utility.yul\":16407:16409   */\n      0x20\n        /* \"#utility.yul\":16392:16410   */\n      dup5\n      add\n        /* \"#utility.yul\":16385:16435   */\n      mstore\n        /* \"#utility.yul\":16444:16466   */\n      dup5\n      dup2\n      mstore\n      sub(shl(0xfb, 0x01), 0x01)\n        /* \"#utility.yul\":16478:16509   */\n      dup6\n      gt\n        /* \"#utility.yul\":16475:16526   */\n      iszero\n      tag_552\n      jumpi\n        /* \"#utility.yul\":16522:16523   */\n      0x00\n        /* \"#utility.yul\":16519:16520   */\n      dup1\n        /* \"#utility.yul\":16512:16524   */\n      revert\n        /* \"#utility.yul\":16475:16526   */\n    tag_552:\n        /* \"#utility.yul\":16556:16562   */\n      dup5\n        /* \"#utility.yul\":16553:16554   */\n      0x05\n        /* \"#utility.yul\":16549:16563   */\n      shl\n        /* \"#utility.yul\":16610:16616   */\n      dup1\n        /* \"#utility.yul\":16602:16608   */\n      dup8\n        /* \"#utility.yul\":16597:16599   */\n      0x20\n        /* \"#utility.yul\":16589:16595   */\n      dup5\n        /* \"#utility.yul\":16585:16600   */\n      add\n        /* \"#utility.yul\":16572:16617   */\n      calldatacopy\n        /* \"#utility.yul\":16648:16654   */\n      dup1\n        /* \"#utility.yul\":16640:16646   */\n      dup3\n        /* \"#utility.yul\":16636:16655   */\n      add\n        /* \"#utility.yul\":16626:16655   */\n      swap2\n      pop\n      pop\n        /* \"#utility.yul\":16682:16684   */\n      0x20\n        /* \"#utility.yul\":16678:16680   */\n      dup2\n        /* \"#utility.yul\":16674:16685   */\n      add\n        /* \"#utility.yul\":16705:16706   */\n      0x00\n        /* \"#utility.yul\":16701:16703   */\n      dup2\n        /* \"#utility.yul\":16694:16707   */\n      mstore\n        /* \"#utility.yul\":16767:16769   */\n      0x20\n        /* \"#utility.yul\":16755:16764   */\n      dup5\n        /* \"#utility.yul\":16751:16753   */\n      dup4\n        /* \"#utility.yul\":16747:16765   */\n      sub\n        /* \"#utility.yul\":16743:16770   */\n      add\n        /* \"#utility.yul\":16738:16740   */\n      0x40\n        /* \"#utility.yul\":16727:16736   */\n      dup6\n        /* \"#utility.yul\":16723:16741   */\n      add\n        /* \"#utility.yul\":16716:16771   */\n      mstore\n        /* \"#utility.yul\":16788:16816   */\n      tag_553\n        /* \"#utility.yul\":16813:16815   */\n      dup2\n        /* \"#utility.yul\":16805:16811   */\n      dup7\n        /* \"#utility.yul\":16788:16816   */\n      tag_404\n      jump\t// in\n    tag_553:\n        /* \"#utility.yul\":16780:16816   */\n      swap9\n        /* \"#utility.yul\":15981:16822   */\n      swap8\n      pop\n      pop\n      pop\n      pop\n      pop\n      pop\n      pop\n      pop\n      jump\t// out\n        /* \"#utility.yul\":16827:16954   */\n    tag_141:\n        /* \"#utility.yul\":16888:16898   */\n      0x4e487b71\n        /* \"#utility.yul\":16883:16886   */\n      0xe0\n        /* \"#utility.yul\":16879:16899   */\n      shl\n        /* \"#utility.yul\":16876:16877   */\n      0x00\n        /* \"#utility.yul\":16869:16900   */\n      mstore\n        /* \"#utility.yul\":16919:16923   */\n      0x32\n        /* \"#utility.yul\":16916:16917   */\n      0x04\n        /* \"#utility.yul\":16909:16924   */\n      mstore\n        /* \"#utility.yul\":16943:16947   */\n      0x24\n        /* \"#utility.yul\":16940:16941   */\n      0x00\n        /* \"#utility.yul\":16933:16948   */\n      revert\n        /* \"#utility.yul\":16959:17086   */\n    tag_406:\n        /* \"#utility.yul\":17020:17030   */\n      0x4e487b71\n        /* \"#utility.yul\":17015:17018   */\n      0xe0\n        /* \"#utility.yul\":17011:17031   */\n      shl\n        /* \"#utility.yul\":17008:17009   */\n      0x00\n        /* \"#utility.yul\":17001:17032   */\n      mstore\n        /* \"#utility.yul\":17051:17055   */\n      0x11\n        /* \"#utility.yul\":17048:17049   */\n      0x04\n        /* \"#utility.yul\":17041:17056   */\n      mstore\n        /* \"#utility.yul\":17075:17079   */\n      0x24\n        /* \"#utility.yul\":17072:17073   */\n      0x00\n        /* \"#utility.yul\":17065:17080   */\n      revert\n        /* \"#utility.yul\":17091:17216   */\n    tag_148:\n        /* \"#utility.yul\":17131:17135   */\n      0x00\n        /* \"#utility.yul\":17159:17160   */\n      dup3\n        /* \"#utility.yul\":17156:17157   */\n      dup3\n        /* \"#utility.yul\":17153:17161   */\n      lt\n        /* \"#utility.yul\":17150:17184   */\n      iszero\n      tag_558\n      jumpi\n        /* \"#utility.yul\":17164:17182   */\n      tag_558\n      tag_406\n      jump\t// in\n    tag_558:\n      pop\n        /* \"#utility.yul\":17201:17210   */\n      sub\n      swap1\n        /* \"#utility.yul\":17091:17216   */\n      jump\t// out\n        /* \"#utility.yul\":17221:17389   */\n    tag_150:\n        /* \"#utility.yul\":17261:17268   */\n      0x00\n        /* \"#utility.yul\":17327:17328   */\n      dup2\n        /* \"#utility.yul\":17323:17324   */\n      0x00\n        /* \"#utility.yul\":17319:17325   */\n      not\n        /* \"#utility.yul\":17315:17329   */\n      div\n        /* \"#utility.yul\":17312:17313   */\n      dup4\n        /* \"#utility.yul\":17309:17330   */\n      gt\n        /* \"#utility.yul\":17304:17305   */\n      dup3\n        /* \"#utility.yul\":17297:17306   */\n      iszero\n        /* \"#utility.yul\":17290:17307   */\n      iszero\n        /* \"#utility.yul\":17286:17331   */\n      and\n        /* \"#utility.yul\":17283:17354   */\n      iszero\n      tag_561\n      jumpi\n        /* \"#utility.yul\":17334:17352   */\n      tag_561\n      tag_406\n      jump\t// in\n    tag_561:\n      pop\n        /* \"#utility.yul\":17374:17383   */\n      mul\n      swap1\n        /* \"#utility.yul\":17221:17389   */\n      jump\t// out\n        /* \"#utility.yul\":17394:17611   */\n    tag_152:\n        /* \"#utility.yul\":17434:17435   */\n      0x00\n        /* \"#utility.yul\":17460:17461   */\n      dup3\n        /* \"#utility.yul\":17450:17582   */\n      tag_563\n      jumpi\n        /* \"#utility.yul\":17504:17514   */\n      0x4e487b71\n        /* \"#utility.yul\":17499:17502   */\n      0xe0\n        /* \"#utility.yul\":17495:17515   */\n      shl\n        /* \"#utility.yul\":17492:17493   */\n      0x00\n        /* \"#utility.yul\":17485:17516   */\n      mstore\n        /* \"#utility.yul\":17539:17543   */\n      0x12\n        /* \"#utility.yul\":17536:17537   */\n      0x04\n        /* \"#utility.yul\":17529:17544   */\n      mstore\n        /* \"#utility.yul\":17567:17571   */\n      0x24\n        /* \"#utility.yul\":17564:17565   */\n      0x00\n        /* \"#utility.yul\":17557:17572   */\n      revert\n        /* \"#utility.yul\":17450:17582   */\n    tag_563:\n      pop\n        /* \"#utility.yul\":17596:17605   */\n      div\n      swap1\n        /* \"#utility.yul\":17394:17611   */\n      jump\t// out\n        /* \"#utility.yul\":17616:17991   */\n    tag_156:\n      sub(shl(0xa0, 0x01), 0x01)\n        /* \"#utility.yul\":17874:17889   */\n      swap4\n      dup5\n      and\n        /* \"#utility.yul\":17856:17890   */\n      dup2\n      mstore\n        /* \"#utility.yul\":17926:17941   */\n      swap2\n      swap1\n      swap3\n      and\n        /* \"#utility.yul\":17921:17923   */\n      0x20\n        /* \"#utility.yul\":17906:17924   */\n      dup3\n      add\n        /* \"#utility.yul\":17899:17942   */\n      mstore\n        /* \"#utility.yul\":17973:17975   */\n      0x40\n        /* \"#utility.yul\":17958:17976   */\n      dup2\n      add\n        /* \"#utility.yul\":17951:17985   */\n      swap2\n      swap1\n      swap2\n      mstore\n        /* \"#utility.yul\":17806:17808   */\n      0x60\n        /* \"#utility.yul\":17791:17809   */\n      add\n      swap1\n        /* \"#utility.yul\":17616:17991   */\n      jump\t// out\n        /* \"#utility.yul\":17996:18352   */\n    tag_193:\n        /* \"#utility.yul\":18198:18200   */\n      0x20\n        /* \"#utility.yul\":18180:18201   */\n      dup1\n      dup3\n      mstore\n        /* \"#utility.yul\":18217:18235   */\n      dup2\n      dup2\n      add\n        /* \"#utility.yul\":18210:18240   */\n      mstore\n        /* \"#utility.yul\":18276:18310   */\n      0x4f776e61626c653a2063616c6c6572206973206e6f7420746865206f776e6572\n        /* \"#utility.yul\":18271:18273   */\n      0x40\n        /* \"#utility.yul\":18256:18274   */\n      dup3\n      add\n        /* \"#utility.yul\":18249:18311   */\n      mstore\n        /* \"#utility.yul\":18343:18345   */\n      0x60\n        /* \"#utility.yul\":18328:18346   */\n      add\n      swap1\n        /* \"#utility.yul\":17996:18352   */\n      jump\t// out\n        /* \"#utility.yul\":19010:20053   */\n    tag_224:\n        /* \"#utility.yul\":19441:19444   */\n      0xe0\n        /* \"#utility.yul\":19430:19439   */\n      dup2\n        /* \"#utility.yul\":19423:19445   */\n      mstore\n        /* \"#utility.yul\":19404:19408   */\n      0x00\n        /* \"#utility.yul\":19468:19513   */\n      tag_569\n        /* \"#utility.yul\":19508:19511   */\n      0xe0\n        /* \"#utility.yul\":19497:19506   */\n      dup4\n        /* \"#utility.yul\":19493:19512   */\n      add\n        /* \"#utility.yul\":19485:19491   */\n      dup11\n        /* \"#utility.yul\":19468:19513   */\n      tag_404\n      jump\t// in\n    tag_569:\n        /* \"#utility.yul\":19561:19570   */\n      dup3\n        /* \"#utility.yul\":19553:19559   */\n      dup2\n        /* \"#utility.yul\":19549:19571   */\n      sub\n        /* \"#utility.yul\":19544:19546   */\n      0x20\n        /* \"#utility.yul\":19533:19542   */\n      dup5\n        /* \"#utility.yul\":19529:19547   */\n      add\n        /* \"#utility.yul\":19522:19572   */\n      mstore\n        /* \"#utility.yul\":19595:19627   */\n      tag_570\n        /* \"#utility.yul\":19620:19626   */\n      dup2\n        /* \"#utility.yul\":19612:19618   */\n      dup11\n        /* \"#utility.yul\":19595:19627   */\n      tag_404\n      jump\t// in\n    tag_570:\n        /* \"#utility.yul\":19581:19627   */\n      swap1\n      pop\n        /* \"#utility.yul\":19675:19684   */\n      dup3\n        /* \"#utility.yul\":19667:19673   */\n      dup2\n        /* \"#utility.yul\":19663:19685   */\n      sub\n        /* \"#utility.yul\":19658:19660   */\n      0x40\n        /* \"#utility.yul\":19647:19656   */\n      dup5\n        /* \"#utility.yul\":19643:19661   */\n      add\n        /* \"#utility.yul\":19636:19686   */\n      mstore\n        /* \"#utility.yul\":19709:19753   */\n      tag_571\n        /* \"#utility.yul\":19746:19752   */\n      dup2\n        /* \"#utility.yul\":19738:19744   */\n      dup10\n        /* \"#utility.yul\":19709:19753   */\n      tag_400\n      jump\t// in\n    tag_571:\n        /* \"#utility.yul\":19695:19753   */\n      swap1\n      pop\n        /* \"#utility.yul\":19801:19810   */\n      dup3\n        /* \"#utility.yul\":19793:19799   */\n      dup2\n        /* \"#utility.yul\":19789:19811   */\n      sub\n        /* \"#utility.yul\":19784:19786   */\n      0x60\n        /* \"#utility.yul\":19773:19782   */\n      dup5\n        /* \"#utility.yul\":19769:19787   */\n      add\n        /* \"#utility.yul\":19762:19812   */\n      mstore\n        /* \"#utility.yul\":19829:19873   */\n      tag_572\n        /* \"#utility.yul\":19866:19872   */\n      dup2\n        /* \"#utility.yul\":19858:19864   */\n      dup9\n        /* \"#utility.yul\":19829:19873   */\n      tag_402\n      jump\t// in\n    tag_572:\n        /* \"#utility.yul\":19904:19907   */\n      0x80\n        /* \"#utility.yul\":19889:19908   */\n      dup5\n      add\n        /* \"#utility.yul\":19882:19917   */\n      swap7\n      swap1\n      swap7\n      mstore\n      pop\n      pop\n      sub(shl(0xa0, 0x01), 0x01)\n        /* \"#utility.yul\":19954:19986   */\n      swap3\n      swap1\n      swap3\n      and\n        /* \"#utility.yul\":19974:19977   */\n      0xa0\n        /* \"#utility.yul\":19933:19952   */\n      dup4\n      add\n        /* \"#utility.yul\":19926:19987   */\n      mstore\n        /* \"#utility.yul\":20031:20045   */\n      iszero\n        /* \"#utility.yul\":20024:20046   */\n      iszero\n        /* \"#utility.yul\":20018:20021   */\n      0xc0\n        /* \"#utility.yul\":20003:20022   */\n      swap1\n      swap2\n      add\n        /* \"#utility.yul\":19996:20047   */\n      mstore\n        /* \"#utility.yul\":19821:19873   */\n      swap5\n        /* \"#utility.yul\":19010:20053   */\n      swap4\n      pop\n      pop\n      pop\n      pop\n      jump\t// out\n        /* \"#utility.yul\":20058:20309   */\n    tag_228:\n        /* \"#utility.yul\":20128:20134   */\n      0x00\n        /* \"#utility.yul\":20181:20183   */\n      0x20\n        /* \"#utility.yul\":20169:20178   */\n      dup3\n        /* \"#utility.yul\":20160:20167   */\n      dup5\n        /* \"#utility.yul\":20156:20179   */\n      sub\n        /* \"#utility.yul\":20152:20184   */\n      slt\n        /* \"#utility.yul\":20149:20201   */\n      iszero\n      tag_574\n      jumpi\n        /* \"#utility.yul\":20197:20198   */\n      0x00\n        /* \"#utility.yul\":20194:20195   */\n      dup1\n        /* \"#utility.yul\":20187:20199   */\n      revert\n        /* \"#utility.yul\":20149:20201   */\n    tag_574:\n        /* \"#utility.yul\":20229:20238   */\n      dup2\n        /* \"#utility.yul\":20223:20239   */\n      mload\n        /* \"#utility.yul\":20248:20279   */\n      tag_335\n        /* \"#utility.yul\":20273:20278   */\n      dup2\n        /* \"#utility.yul\":20248:20279   */\n      tag_389\n      jump\t// in\n        /* \"#utility.yul\":20314:21449   */\n    tag_233:\n        /* \"#utility.yul\":20736:20740   */\n      0x00\n        /* \"#utility.yul\":20765:20768   */\n      0x0100\n        /* \"#utility.yul\":20795:20801   */\n      dup11\n        /* \"#utility.yul\":20784:20793   */\n      dup4\n        /* \"#utility.yul\":20777:20802   */\n      mstore\n        /* \"#utility.yul\":20838:20840   */\n      dup1\n        /* \"#utility.yul\":20833:20835   */\n      0x20\n        /* \"#utility.yul\":20822:20831   */\n      dup5\n        /* \"#utility.yul\":20818:20836   */\n      add\n        /* \"#utility.yul\":20811:20841   */\n      mstore\n        /* \"#utility.yul\":20864:20908   */\n      tag_577\n        /* \"#utility.yul\":20904:20906   */\n      dup2\n        /* \"#utility.yul\":20893:20902   */\n      dup5\n        /* \"#utility.yul\":20889:20907   */\n      add\n        /* \"#utility.yul\":20881:20887   */\n      dup12\n        /* \"#utility.yul\":20864:20908   */\n      tag_404\n      jump\t// in\n    tag_577:\n        /* \"#utility.yul\":20850:20908   */\n      swap1\n      pop\n        /* \"#utility.yul\":20956:20965   */\n      dup3\n        /* \"#utility.yul\":20948:20954   */\n      dup2\n        /* \"#utility.yul\":20944:20966   */\n      sub\n        /* \"#utility.yul\":20939:20941   */\n      0x40\n        /* \"#utility.yul\":20928:20937   */\n      dup5\n        /* \"#utility.yul\":20924:20942   */\n      add\n        /* \"#utility.yul\":20917:20967   */\n      mstore\n        /* \"#utility.yul\":20990:21022   */\n      tag_578\n        /* \"#utility.yul\":21015:21021   */\n      dup2\n        /* \"#utility.yul\":21007:21013   */\n      dup11\n        /* \"#utility.yul\":20990:21022   */\n      tag_404\n      jump\t// in\n    tag_578:\n        /* \"#utility.yul\":20976:21022   */\n      swap1\n      pop\n        /* \"#utility.yul\":21070:21079   */\n      dup3\n        /* \"#utility.yul\":21062:21068   */\n      dup2\n        /* \"#utility.yul\":21058:21080   */\n      sub\n        /* \"#utility.yul\":21053:21055   */\n      0x60\n        /* \"#utility.yul\":21042:21051   */\n      dup5\n        /* \"#utility.yul\":21038:21056   */\n      add\n        /* \"#utility.yul\":21031:21081   */\n      mstore\n        /* \"#utility.yul\":21104:21148   */\n      tag_579\n        /* \"#utility.yul\":21141:21147   */\n      dup2\n        /* \"#utility.yul\":21133:21139   */\n      dup10\n        /* \"#utility.yul\":21104:21148   */\n      tag_400\n      jump\t// in\n    tag_579:\n        /* \"#utility.yul\":21090:21148   */\n      swap1\n      pop\n        /* \"#utility.yul\":21197:21206   */\n      dup3\n        /* \"#utility.yul\":21189:21195   */\n      dup2\n        /* \"#utility.yul\":21185:21207   */\n      sub\n        /* \"#utility.yul\":21179:21182   */\n      0x80\n        /* \"#utility.yul\":21168:21177   */\n      dup5\n        /* \"#utility.yul\":21164:21183   */\n      add\n        /* \"#utility.yul\":21157:21208   */\n      mstore\n        /* \"#utility.yul\":21225:21269   */\n      tag_580\n        /* \"#utility.yul\":21262:21268   */\n      dup2\n        /* \"#utility.yul\":21254:21260   */\n      dup9\n        /* \"#utility.yul\":21225:21269   */\n      tag_402\n      jump\t// in\n    tag_580:\n        /* \"#utility.yul\":21300:21303   */\n      0xa0\n        /* \"#utility.yul\":21285:21304   */\n      dup5\n      add\n        /* \"#utility.yul\":21278:21313   */\n      swap7\n      swap1\n      swap7\n      mstore\n      pop\n      pop\n      sub(shl(0xa0, 0x01), 0x01)\n        /* \"#utility.yul\":21350:21382   */\n      swap3\n      swap1\n      swap3\n      and\n        /* \"#utility.yul\":21344:21347   */\n      0xc0\n        /* \"#utility.yul\":21329:21348   */\n      dup4\n      add\n        /* \"#utility.yul\":21322:21383   */\n      mstore\n        /* \"#utility.yul\":21427:21441   */\n      iszero\n        /* \"#utility.yul\":21420:21442   */\n      iszero\n        /* \"#utility.yul\":21414:21417   */\n      0xe0\n        /* \"#utility.yul\":21399:21418   */\n      swap1\n      swap2\n      add\n        /* \"#utility.yul\":21392:21443   */\n      mstore\n        /* \"#utility.yul\":21217:21269   */\n      swap6\n        /* \"#utility.yul\":20314:21449   */\n      swap5\n      pop\n      pop\n      pop\n      pop\n      pop\n      jump\t// out\n        /* \"#utility.yul\":22353:22978   */\n    tag_249:\n        /* \"#utility.yul\":22656:22658   */\n      0x60\n        /* \"#utility.yul\":22645:22654   */\n      dup2\n        /* \"#utility.yul\":22638:22659   */\n      mstore\n        /* \"#utility.yul\":22619:22623   */\n      0x00\n        /* \"#utility.yul\":22682:22738   */\n      tag_585\n        /* \"#utility.yul\":22734:22736   */\n      0x60\n        /* \"#utility.yul\":22723:22732   */\n      dup4\n        /* \"#utility.yul\":22719:22737   */\n      add\n        /* \"#utility.yul\":22711:22717   */\n      dup7\n        /* \"#utility.yul\":22682:22738   */\n      tag_400\n      jump\t// in\n    tag_585:\n        /* \"#utility.yul\":22786:22795   */\n      dup3\n        /* \"#utility.yul\":22778:22784   */\n      dup2\n        /* \"#utility.yul\":22774:22796   */\n      sub\n        /* \"#utility.yul\":22769:22771   */\n      0x20\n        /* \"#utility.yul\":22758:22767   */\n      dup5\n        /* \"#utility.yul\":22754:22772   */\n      add\n        /* \"#utility.yul\":22747:22797   */\n      mstore\n        /* \"#utility.yul\":22820:22864   */\n      tag_586\n        /* \"#utility.yul\":22857:22863   */\n      dup2\n        /* \"#utility.yul\":22849:22855   */\n      dup7\n        /* \"#utility.yul\":22820:22864   */\n      tag_402\n      jump\t// in\n    tag_586:\n        /* \"#utility.yul\":22806:22864   */\n      swap1\n      pop\n        /* \"#utility.yul\":22912:22921   */\n      dup3\n        /* \"#utility.yul\":22904:22910   */\n      dup2\n        /* \"#utility.yul\":22900:22922   */\n      sub\n        /* \"#utility.yul\":22895:22897   */\n      0x40\n        /* \"#utility.yul\":22884:22893   */\n      dup5\n        /* \"#utility.yul\":22880:22898   */\n      add\n        /* \"#utility.yul\":22873:22923   */\n      mstore\n        /* \"#utility.yul\":22940:22972   */\n      tag_549\n        /* \"#utility.yul\":22965:22971   */\n      dup2\n        /* \"#utility.yul\":22957:22963   */\n      dup6\n        /* \"#utility.yul\":22940:22972   */\n      tag_404\n      jump\t// in\n        /* \"#utility.yul\":22983:23386   */\n    tag_251:\n        /* \"#utility.yul\":23218:23224   */\n      dup4\n        /* \"#utility.yul\":23207:23216   */\n      dup2\n        /* \"#utility.yul\":23200:23225   */\n      mstore\n        /* \"#utility.yul\":23261:23267   */\n      dup3\n        /* \"#utility.yul\":23256:23258   */\n      0x20\n        /* \"#utility.yul\":23245:23254   */\n      dup3\n        /* \"#utility.yul\":23241:23259   */\n      add\n        /* \"#utility.yul\":23234:23268   */\n      mstore\n        /* \"#utility.yul\":23304:23306   */\n      0x60\n        /* \"#utility.yul\":23299:23301   */\n      0x40\n        /* \"#utility.yul\":23288:23297   */\n      dup3\n        /* \"#utility.yul\":23284:23302   */\n      add\n        /* \"#utility.yul\":23277:23307   */\n      mstore\n        /* \"#utility.yul\":23181:23185   */\n      0x00\n        /* \"#utility.yul\":23324:23380   */\n      tag_589\n        /* \"#utility.yul\":23376:23378   */\n      0x60\n        /* \"#utility.yul\":23365:23374   */\n      dup4\n        /* \"#utility.yul\":23361:23379   */\n      add\n        /* \"#utility.yul\":23353:23359   */\n      dup5\n        /* \"#utility.yul\":23324:23380   */\n      tag_402\n      jump\t// in\n    tag_589:\n        /* \"#utility.yul\":23316:23380   */\n      swap6\n        /* \"#utility.yul\":22983:23386   */\n      swap5\n      pop\n      pop\n      pop\n      pop\n      pop\n      jump\t// out\n        /* \"#utility.yul\":24426:24700   */\n    tag_323:\n        /* \"#utility.yul\":24555:24558   */\n      0x00\n        /* \"#utility.yul\":24593:24599   */\n      dup3\n        /* \"#utility.yul\":24587:24600   */\n      mload\n        /* \"#utility.yul\":24609:24662   */\n      tag_594\n        /* \"#utility.yul\":24655:24661   */\n      dup2\n        /* \"#utility.yul\":24650:24653   */\n      dup5\n        /* \"#utility.yul\":24643:24647   */\n      0x20\n        /* \"#utility.yul\":24635:24641   */\n      dup8\n        /* \"#utility.yul\":24631:24648   */\n      add\n        /* \"#utility.yul\":24609:24662   */\n      tag_403\n      jump\t// in\n    tag_594:\n        /* \"#utility.yul\":24678:24694   */\n      swap2\n      swap1\n      swap2\n      add\n      swap3\n        /* \"#utility.yul\":24426:24700   */\n      swap2\n      pop\n      pop\n      jump\t// out\n        /* \"#utility.yul\":24705:24950   */\n    tag_330:\n        /* \"#utility.yul\":24772:24778   */\n      0x00\n        /* \"#utility.yul\":24825:24827   */\n      0x20\n        /* \"#utility.yul\":24813:24822   */\n      dup3\n        /* \"#utility.yul\":24804:24811   */\n      dup5\n        /* \"#utility.yul\":24800:24823   */\n      sub\n        /* \"#utility.yul\":24796:24828   */\n      slt\n        /* \"#utility.yul\":24793:24845   */\n      iszero\n      tag_596\n      jumpi\n        /* \"#utility.yul\":24841:24842   */\n      0x00\n        /* \"#utility.yul\":24838:24839   */\n      dup1\n        /* \"#utility.yul\":24831:24843   */\n      revert\n        /* \"#utility.yul\":24793:24845   */\n    tag_596:\n        /* \"#utility.yul\":24873:24882   */\n      dup2\n        /* \"#utility.yul\":24867:24883   */\n      mload\n        /* \"#utility.yul\":24892:24920   */\n      tag_335\n        /* \"#utility.yul\":24914:24919   */\n      dup2\n        /* \"#utility.yul\":24892:24920   */\n      tag_398\n      jump\t// in\n\n    auxdata: 0xa26469706673582212208c8026d1b907d029dfe6950b6311177149901d0bc5b81ae11c8065169353d9bb64736f6c634300080a0033\n}\n",
				"bytecode": {
					"linkReferences": {},
					"object": "60c06040523480156200001157600080fd5b50604051620026d4380380620026d48339810160408190526200003491620000d8565b6200003f336200006b565b60a092909252600480546001600160a01b0319166001600160a01b039283161790551660805262000119565b600080546001600160a01b038381166001600160a01b0319831681178455604051919092169283917f8be0079c531659141344cd1fd0a4f28419497f9722a3daafe3b4186f6b6457e09190a35050565b80516001600160a01b0381168114620000d357600080fd5b919050565b600080600060608486031215620000ee57600080fd5b835192506200010060208501620000bb565b91506200011060408501620000bb565b90509250925092565b60805160a0516125876200014d600039600081816102f1015261081a01526000818161012b0152610d3801526125876000f3fe608060405234801561001057600080fd5b50600436106101215760003560e01c8063673a2a1f116100ad578063a342f23811610071578063a342f23814610321578063cac626bb14610334578063ee9ee0e414610347578063f2fde38b1461035a578063f525cb681461036d57600080fd5b8063673a2a1f146102ab578063712b772f146102c0578063715018a6146102d35780638da5cb5b146102db5780639c37ebb6146102ec57600080fd5b806323604071116100f45780632360407114610234578063411557d11461024757806346cf3e6e1461026257806351d48cea146102755780635b16ebb71461028857600080fd5b806301b1aff6146101265780630563cd7c1461016a57806305ea21831461017f57806313d21cdf14610192575b600080fd5b61014d7f000000000000000000000000000000000000000000000000000000000000000081565b6040516001600160a01b0390911681526020015b60405180910390f35b61017d610178366004611a79565b610375565b005b61014d61018d366004611b07565b610af5565b6102076101a0366004611b20565b6040805160608101825260008082526020820181905291810191909152506001600160a01b03908116600090815260016020818152604092839020835160608101855281549586168152600160a01b90950460ff1615159185019190915201549082015290565b6040805182516001600160a01b031681526020808401511515908201529181015190820152606001610161565b61017d610242366004611b20565b610b08565b61014d7320dd72ed959b6147912c2e529f0a0c651c33c9ce81565b61014d610270366004611d2f565b610b93565b61017d610283366004611eac565b61112a565b61029b610296366004611b20565b61120a565b6040519015158152602001610161565b6102b3611217565b6040516101619190611f29565b61017d6102ce366004611f3c565b611228565b61017d611359565b6000546001600160a01b031661014d565b6103137f000000000000000000000000000000000000000000000000000000000000000081565b604051908152602001610161565b60045461014d906001600160a01b031681565b610313610342366004611b20565b61138f565b61017d610355366004611f3c565b6113fa565b61017d610368366004611b20565b6114a4565b61031361153f565b6001600160a01b0384811660009081526001602052604090205485911633146103b95760405162461bcd60e51b81526004016103b090611f6a565b60405180910390fd5b6000856001600160a01b03166338fff2d06040518163ffffffff1660e01b81526004016020604051808303816000875af11580156103fb573d6000803e3d6000fd5b505050506040513d601f19601f8201168201806040525081019061041f9190611f8a565b604051631f29a8cd60e31b8152600481018290529091506000907320dd72ed959b6147912c2e529f0a0c651c33c9ce9063f94d466890602401600060405180830381865afa158015610475573d6000803e3d6000fd5b505050506040513d6000823e601f3d908101601f1916820160405261049d9190810190611ffe565b5050805190915085146104e95760405162461bcd60e51b81526020600482015260146024820152730d2dcecc2d8d2c840d2dce0eae840d8cadccee8d60631b60448201526064016103b0565b6001600160a01b038781166000818152600160208181526040808420815160608101835281549788168152600160a01b90970460ff1615159287019290925291015484820152516370a0823160e01b8152306004820152909182916370a0823190602401602060405180830381865afa15801561056a573d6000803e3d6000fd5b505050506040513d601f19601f8201168201806040525081019061058e9190611f8a565b9050808711156105e05760405162461bcd60e51b815260206004820152601b60248201527f4e6f7420656e6f7567682042505420746f6b656e20616d6f756e74000000000060448201526064016103b0565b6000811161061f5760405162461bcd60e51b815260206004820152600c60248201526b1a5b9d985b1a59081c1bdbdb60a21b60448201526064016103b0565b8661062c57809150610630565b8691505b60006001836040516020016106469291906120cc565b6040516020818303038152906040529050600060405180608001604052808781526020018c8c8080602002602001604051908101604052809392919081815260200183836020028082843760009201829052509385525050506020820185905260409182015251638bdb391360e01b81529091507320dd72ed959b6147912c2e529f0a0c651c33c9ce90638bdb3913906106ea908a9030908190879060040161221b565b600060405180830381600087803b15801561070457600080fd5b505af1158015610718573d6000803e3d6000fd5b505050508b6001600160a01b03167ffbbb3d684cc731f4eff666c8534337f397ecf7937c1ed574f8626f6cb718cc01878d8d8660405161075b9493929190612257565b60405180910390a26000868660200151610776576001610779565b60005b60ff168151811061078c5761078c6122c3565b60209081029190910101516040516370a0823160e01b81523060048201529091506000906001600160a01b038316906370a0823190602401602060405180830381865afa1580156107e1573d6000803e3d6000fd5b505050506040513d601f19601f820116820180604052508101906108059190611f8a565b905086604001518111156108d45760006127107f000000000000000000000000000000000000000000000000000000000000000089604001518461084991906122ef565b6108539190612306565b61085d9190612325565b6004549091506108789084906001600160a01b03168361154b565b8e6001600160a01b03167f52b4a48c36f647498ba38efeaed299eb5e0f7688e76359a58f55738ff7725af284600460009054906101000a90046001600160a01b0316846040516108ca93929190612347565b60405180910390a2505b6000886000815181106108e9576108e96122c3565b60209081029190910101516040516370a0823160e01b81523060048201526001600160a01b03909116906370a0823190602401602060405180830381865afa158015610939573d6000803e3d6000fd5b505050506040513d601f19601f8201168201806040525081019061095d9190611f8a565b905061098489600081518110610975576109756122c3565b6020026020010151338361154b565b8e6001600160a01b03167f235d80db0a4b8dc1e99bba791b835d938cbc8cb023a88fdaba36aafd2aa9b2768a6000815181106109c2576109c26122c3565b602002602001015133846040516109db93929190612347565b60405180910390a26000896001815181106109f8576109f86122c3565b60209081029190910101516040516370a0823160e01b81523060048201526001600160a01b03909116906370a0823190602401602060405180830381865afa158015610a48573d6000803e3d6000fd5b505050506040513d601f19601f82011682018060405250810190610a6c9190611f8a565b9050610a848a600181518110610975576109756122c3565b8f6001600160a01b03167f235d80db0a4b8dc1e99bba791b835d938cbc8cb023a88fdaba36aafd2aa9b2768b600181518110610ac257610ac26122c3565b60200260200101513384604051610adb93929190612347565b60405180910390a250505050505050505050505050505050565b6000610b0260028361167c565b92915050565b6000546001600160a01b03163314610b325760405162461bcd60e51b81526004016103b09061236b565b600480546001600160a01b038381166001600160a01b031983168117909355604080519190921680825260208201939093527fc335ca37f71e695337f94e5078421114aee3f4c5d97e824efaf8578318e5e8c8910160405180910390a15050565b6000816040015151600214610bdc5760405162461bcd60e51b815260206004820152600f60248201526e6f6e6c792074776f20746f6b656e7360881b60448201526064016103b0565b610c248260400151600081518110610bf657610bf66122c3565b602002602001015133308560600151600081518110610c1757610c176122c3565b602002602001015161168f565b610c5f8260400151600181518110610c3e57610c3e6122c3565b602002602001015133308560600151600181518110610c1757610c176122c3565b610cba8260400151600081518110610c7957610c796122c3565b60200260200101517320dd72ed959b6147912c2e529f0a0c651c33c9ce8460600151600081518110610cad57610cad6122c3565b60200260200101516117c9565b610d088260400151600181518110610cd457610cd46122c3565b60200260200101517320dd72ed959b6147912c2e529f0a0c651c33c9ce8460600151600181518110610cad57610cad6122c3565b81516020830151604080850151608086015160e08701519251632367971960e01b81526000956001600160a01b037f00000000000000000000000000000000000000000000000000000000000000001695632367971995610d73959294919330908a906004016123a0565b6020604051808303816000875af1158015610d92573d6000803e3d6000fd5b505050506040513d601f19601f82011682018060405250810190610db69190612418565b90506000816001600160a01b03166338fff2d06040518163ffffffff1660e01b81526004016020604051808303816000875af1158015610dfa573d6000803e3d6000fd5b505050506040513d601f19601f82011682018060405250810190610e1e9190611f8a565b9050816001600160a01b03167f2b416ce78f01c3304331a3a35005ee09bfb64c878f2be9849fc9909101bc61ac8286600001518760200151886040015189608001518a60e00151306000604051610e7c989796959493929190612435565b60405180910390a26040518060600160405280336001600160a01b031681526020018560c001511515815260200185606001518660c00151610ebf576001610ec2565b60005b60ff1681518110610ed557610ed56122c3565b6020908102919091018101519091526001600160a01b038085166000908152600180845260409182902085518154958701511515600160a01b026001600160a81b03199096169416939093179390931782559290920151910155610f3a6002836118f1565b610f775760405162461bcd60e51b815260206004820152600e60248201526d65786973747320616c726561647960901b60448201526064016103b0565b60408051608081018252858201518152606080870151602083015261010087015182840152600090820152905163172b958560e31b81527320dd72ed959b6147912c2e529f0a0c651c33c9ce9163b95cac2891610fdc9185913091829160040161221b565b600060405180830381600087803b158015610ff657600080fd5b505af115801561100a573d6000803e3d6000fd5b50505050816001600160a01b03167f5dcdc6c8b7b09c26d0c867e99f2b7389b69d982aa8f10b1373f84667a8f58b3585604001518660600151876101000151604051611058939291906124b7565b60405180910390a2816001600160a01b0316633e5692058561012001518661014001518760a001516040518463ffffffff1660e01b815260040161109e939291906124f0565b600060405180830381600087803b1580156110b857600080fd5b505af11580156110cc573d6000803e3d6000fd5b50505050816001600160a01b03167f5b604c3eb0508fc702242270d353c7673f02b609e03862e244766785e39c278c8561012001518661014001518760a0015160405161111b939291906124f0565b60405180910390a25092915050565b6001600160a01b0382811660009081526001602052604090205483911633146111655760405162461bcd60e51b81526004016103b090611f6a565b604051633806be4b60e21b815282151560048201526001600160a01b0384169063e01af92c90602401600060405180830381600087803b1580156111a857600080fd5b505af11580156111bc573d6000803e3d6000fd5b50505050826001600160a01b03167fdc5bc5b27f91cbe9bad8b85e20c9519fb6d126629108f16d474af76579696ea9836040516111fd911515815260200190565b60405180910390a2505050565b6000610b02600283611906565b60606112236002611928565b905090565b6000546001600160a01b031633146112525760405162461bcd60e51b81526004016103b09061236b565b61125d600283611906565b156112a15760405162461bcd60e51b815260206004820152601460248201527331b0b713ba1039b5b4b690262128103a37b5b2b760611b60448201526064016103b0565b6040516370a0823160e01b81523060048201526000906001600160a01b038416906370a0823190602401602060405180830381865afa1580156112e8573d6000803e3d6000fd5b505050506040513d601f19601f8201168201806040525081019061130c9190611f8a565b905061131983838361154b565b7f0cfb7d414a57e3fd35da9f4b61341e65026c225646228ba0262d9264f541c32e83838360405161134c93929190612347565b60405180910390a1505050565b6000546001600160a01b031633146113835760405162461bcd60e51b81526004016103b09061236b565b61138d6000611935565b565b6040516370a0823160e01b81523060048201526000906001600160a01b038316906370a0823190602401602060405180830381865afa1580156113d6573d6000803e3d6000fd5b505050506040513d601f19601f82011682018060405250810190610b029190611f8a565b6001600160a01b0382811660009081526001602052604090205483911633146114355760405162461bcd60e51b81526004016103b090611f6a565b6001600160a01b0383811660008181526001602090815260409182902080548786166001600160a01b0319821681179092558351951680865291850152927f794fb907c01822765502a338368bdc2f31ef538f609dcc19be5629fee0cedcd8910160405180910390a250505050565b6000546001600160a01b031633146114ce5760405162461bcd60e51b81526004016103b09061236b565b6001600160a01b0381166115335760405162461bcd60e51b815260206004820152602660248201527f4f776e61626c653a206e6577206f776e657220697320746865207a65726f206160448201526564647265737360d01b60648201526084016103b0565b61153c81611935565b50565b60006112236002611985565b604080516001600160a01b038481166024830152604480830185905283518084039091018152606490920183526020820180516001600160e01b031663a9059cbb60e01b17905291516000928392908716916115a79190612518565b6000604051808303816000865af19150503d80600081146115e4576040519150601f19603f3d011682016040523d82523d6000602084013e6115e9565b606091505b50915091508180156116135750805115806116135750808060200190518101906116139190612534565b6116755760405162461bcd60e51b815260206004820152602d60248201527f5472616e7366657248656c7065723a3a736166655472616e736665723a20747260448201526c185b9cd9995c8819985a5b1959609a1b60648201526084016103b0565b5050505050565b6000611688838361198f565b9392505050565b600080856001600160a01b03166323b872dd8686866040516024016116b693929190612347565b6040516020818303038152906040529060e01b6020820180516001600160e01b0383818316178352505050506040516116ef9190612518565b6000604051808303816000865af19150503d806000811461172c576040519150601f19603f3d011682016040523d82523d6000602084013e611731565b606091505b509150915081801561175b57508051158061175b57508080602001905181019061175b9190612534565b6117c15760405162461bcd60e51b815260206004820152603160248201527f5472616e7366657248656c7065723a3a7472616e7366657246726f6d3a207472604482015270185b9cd9995c919c9bdb4819985a5b1959607a1b60648201526084016103b0565b505050505050565b604080516001600160a01b038481166024830152604480830185905283518084039091018152606490920183526020820180516001600160e01b031663095ea7b360e01b17905291516000928392908716916118259190612518565b6000604051808303816000865af19150503d8060008114611862576040519150601f19603f3d011682016040523d82523d6000602084013e611867565b606091505b50915091508180156118915750805115806118915750808060200190518101906118919190612534565b6116755760405162461bcd60e51b815260206004820152602b60248201527f5472616e7366657248656c7065723a3a73616665417070726f76653a2061707060448201526a1c9bdd994819985a5b195960aa1b60648201526084016103b0565b6000611688836001600160a01b0384166119b9565b6001600160a01b03811660009081526001830160205260408120541515611688565b6060600061168883611a08565b600080546001600160a01b038381166001600160a01b0319831681178455604051919092169283917f8be0079c531659141344cd1fd0a4f28419497f9722a3daafe3b4186f6b6457e09190a35050565b6000610b02825490565b60008260000182815481106119a6576119a66122c3565b9060005260206000200154905092915050565b6000818152600183016020526040812054611a0057508154600181810184556000848152602080822090930184905584548482528286019093526040902091909155610b02565b506000610b02565b606081600001805480602002602001604051908101604052809291908181526020018280548015611a5857602002820191906000526020600020905b815481526020019060010190808311611a44575b50505050509050919050565b6001600160a01b038116811461153c57600080fd5b60008060008060608587031215611a8f57600080fd5b8435611a9a81611a64565b9350602085013567ffffffffffffffff80821115611ab757600080fd5b818701915087601f830112611acb57600080fd5b813581811115611ada57600080fd5b8860208260051b8501011115611aef57600080fd5b95986020929092019750949560400135945092505050565b600060208284031215611b1957600080fd5b5035919050565b600060208284031215611b3257600080fd5b813561168881611a64565b634e487b7160e01b600052604160045260246000fd5b604051610160810167ffffffffffffffff81118282101715611b7757611b77611b3d565b60405290565b604051601f8201601f1916810167ffffffffffffffff81118282101715611ba657611ba6611b3d565b604052919050565b600082601f830112611bbf57600080fd5b813567ffffffffffffffff811115611bd957611bd9611b3d565b611bec601f8201601f1916602001611b7d565b818152846020838601011115611c0157600080fd5b816020850160208301376000918101602001919091529392505050565b600067ffffffffffffffff821115611c3857611c38611b3d565b5060051b60200190565b600082601f830112611c5357600080fd5b81356020611c68611c6383611c1e565b611b7d565b82815260059290921b84018101918181019086841115611c8757600080fd5b8286015b84811015611cab578035611c9e81611a64565b8352918301918301611c8b565b509695505050505050565b600082601f830112611cc757600080fd5b81356020611cd7611c6383611c1e565b82815260059290921b84018101918181019086841115611cf657600080fd5b8286015b84811015611cab5780358352918301918301611cfa565b801515811461153c57600080fd5b8035611d2a81611d11565b919050565b600060208284031215611d4157600080fd5b813567ffffffffffffffff80821115611d5957600080fd5b908301906101608286031215611d6e57600080fd5b611d76611b53565b823582811115611d8557600080fd5b611d9187828601611bae565b825250602083013582811115611da657600080fd5b611db287828601611bae565b602083015250604083013582811115611dca57600080fd5b611dd687828601611c42565b604083015250606083013582811115611dee57600080fd5b611dfa87828601611cb6565b606083015250608083013582811115611e1257600080fd5b611e1e87828601611cb6565b60808301525060a083013582811115611e3657600080fd5b611e4287828601611cb6565b60a083015250611e5460c08401611d1f565b60c082015260e083013560e08201526101008084013583811115611e7757600080fd5b611e8388828701611bae565b918301919091525061012083810135908201526101409283013592810192909252509392505050565b60008060408385031215611ebf57600080fd5b8235611eca81611a64565b91506020830135611eda81611d11565b809150509250929050565b600081518084526020808501945080840160005b83811015611f1e5781516001600160a01b031687529582019590820190600101611ef9565b509495945050505050565b6020815260006116886020830184611ee5565b60008060408385031215611f4f57600080fd5b8235611f5a81611a64565b91506020830135611eda81611a64565b60208082526006908201526510b7bbb732b960d11b604082015260600190565b600060208284031215611f9c57600080fd5b5051919050565b600082601f830112611fb457600080fd5b81516020611fc4611c6383611c1e565b82815260059290921b84018101918181019086841115611fe357600080fd5b8286015b84811015611cab5780518352918301918301611fe7565b60008060006060848603121561201357600080fd5b835167ffffffffffffffff8082111561202b57600080fd5b818601915086601f83011261203f57600080fd5b8151602061204f611c6383611c1e565b82815260059290921b8401810191818101908a84111561206e57600080fd5b948201945b8386101561209557855161208681611a64565b82529482019490820190612073565b918901519197509093505050808211156120ae57600080fd5b506120bb86828701611fa3565b925050604084015190509250925092565b60408101600384106120ee57634e487b7160e01b600052602160045260246000fd5b9281526020015290565b600081518084526020808501945080840160005b83811015611f1e5781518752958201959082019060010161210c565b60005b8381101561214357818101518382015260200161212b565b83811115612152576000848401525b50505050565b60008151808452612170816020860160208601612128565b601f01601f19169290920160200192915050565b8051608080845281519084018190526000916020919082019060a0860190845b818110156121c95783516001600160a01b0316835292840192918401916001016121a4565b5050828501519150858103838701526121e281836120f8565b92505050604083015184820360408601526121fd8282612158565b9150506060830151612213606086018215159052565b509392505050565b8481526001600160a01b0384811660208301528316604082015260806060820181905260009061224d90830184612184565b9695505050505050565b60608152600061226a6060830187611ee5565b82810360208401528481526001600160fb1b0385111561228957600080fd5b8460051b80876020840137808201915050602081016000815260208483030160408501526122b78186612158565b98975050505050505050565b634e487b7160e01b600052603260045260246000fd5b634e487b7160e01b600052601160045260246000fd5b600082821015612301576123016122d9565b500390565b6000816000190483118215151615612320576123206122d9565b500290565b60008261234257634e487b7160e01b600052601260045260246000fd5b500490565b6001600160a01b039384168152919092166020820152604081019190915260600190565b6020808252818101527f4f776e61626c653a2063616c6c6572206973206e6f7420746865206f776e6572604082015260600190565b60e0815260006123b360e083018a612158565b82810360208401526123c5818a612158565b905082810360408401526123d98189611ee5565b905082810360608401526123ed81886120f8565b608084019690965250506001600160a01b039290921660a0830152151560c090910152949350505050565b60006020828403121561242a57600080fd5b815161168881611a64565b60006101008a835280602084015261244f8184018b612158565b90508281036040840152612463818a612158565b905082810360608401526124778189611ee5565b9050828103608084015261248b81886120f8565b60a084019690965250506001600160a01b039290921660c0830152151560e09091015295945050505050565b6060815260006124ca6060830186611ee5565b82810360208401526124dc81866120f8565b9050828103604084015261224d8185612158565b83815282602082015260606040820152600061250f60608301846120f8565b95945050505050565b6000825161252a818460208701612128565b9190910192915050565b60006020828403121561254657600080fd5b815161168881611d1156fea26469706673582212208c8026d1b907d029dfe6950b6311177149901d0bc5b81ae11c8065169353d9bb64736f6c634300080a0033",
					"opcodes": "PUSH1 0xC0 PUSH1 0x40 MSTORE CALLVALUE DUP1 ISZERO PUSH3 0x11 JUMPI PUSH1 0x0 DUP1 REVERT JUMPDEST POP PUSH1 0x40 MLOAD PUSH3 0x26D4 CODESIZE SUB DUP1 PUSH3 0x26D4 DUP4 CODECOPY DUP2 ADD PUSH1 0x40 DUP2 SWAP1 MSTORE PUSH3 0x34 SWAP2 PUSH3 0xD8 JUMP JUMPDEST PUSH3 0x3F CALLER PUSH3 0x6B JUMP JUMPDEST PUSH1 0xA0 SWAP3 SWAP1 SWAP3 MSTORE PUSH1 0x4 DUP1 SLOAD PUSH1 0x1 PUSH1 0x1 PUSH1 0xA0 SHL SUB NOT AND PUSH1 0x1 PUSH1 0x1 PUSH1 0xA0 SHL SUB SWAP3 DUP4 AND OR SWAP1 SSTORE AND PUSH1 0x80 MSTORE PUSH3 0x119 JUMP JUMPDEST PUSH1 0x0 DUP1 SLOAD PUSH1 0x1 PUSH1 0x1 PUSH1 0xA0 SHL SUB DUP4 DUP2 AND PUSH1 0x1 PUSH1 0x1 PUSH1 0xA0 SHL SUB NOT DUP4 AND DUP2 OR DUP5 SSTORE PUSH1 0x40 MLOAD SWAP2 SWAP1 SWAP3 AND SWAP3 DUP4 SWAP2 PUSH32 0x8BE0079C531659141344CD1FD0A4F28419497F9722A3DAAFE3B4186F6B6457E0 SWAP2 SWAP1 LOG3 POP POP JUMP JUMPDEST DUP1 MLOAD PUSH1 0x1 PUSH1 0x1 PUSH1 0xA0 SHL SUB DUP2 AND DUP2 EQ PUSH3 0xD3 JUMPI PUSH1 0x0 DUP1 REVERT JUMPDEST SWAP2 SWAP1 POP JUMP JUMPDEST PUSH1 0x0 DUP1 PUSH1 0x0 PUSH1 0x60 DUP5 DUP7 SUB SLT ISZERO PUSH3 0xEE JUMPI PUSH1 0x0 DUP1 REVERT JUMPDEST DUP4 MLOAD SWAP3 POP PUSH3 0x100 PUSH1 0x20 DUP6 ADD PUSH3 0xBB JUMP JUMPDEST SWAP2 POP PUSH3 0x110 PUSH1 0x40 DUP6 ADD PUSH3 0xBB JUMP JUMPDEST SWAP1 POP SWAP3 POP SWAP3 POP SWAP3 JUMP JUMPDEST PUSH1 0x80 MLOAD PUSH1 0xA0 MLOAD PUSH2 0x2587 PUSH3 0x14D PUSH1 0x0 CODECOPY PUSH1 0x0 DUP2 DUP2 PUSH2 0x2F1 ADD MSTORE PUSH2 0x81A ADD MSTORE PUSH1 0x0 DUP2 DUP2 PUSH2 0x12B ADD MSTORE PUSH2 0xD38 ADD MSTORE PUSH2 0x2587 PUSH1 0x0 RETURN INVALID PUSH1 0x80 PUSH1 0x40 MSTORE CALLVALUE DUP1 ISZERO PUSH2 0x10 JUMPI PUSH1 0x0 DUP1 REVERT JUMPDEST POP PUSH1 0x4 CALLDATASIZE LT PUSH2 0x121 JUMPI PUSH1 0x0 CALLDATALOAD PUSH1 0xE0 SHR DUP1 PUSH4 0x673A2A1F GT PUSH2 0xAD JUMPI DUP1 PUSH4 0xA342F238 GT PUSH2 0x71 JUMPI DUP1 PUSH4 0xA342F238 EQ PUSH2 0x321 JUMPI DUP1 PUSH4 0xCAC626BB EQ PUSH2 0x334 JUMPI DUP1 PUSH4 0xEE9EE0E4 EQ PUSH2 0x347 JUMPI DUP1 PUSH4 0xF2FDE38B EQ PUSH2 0x35A JUMPI DUP1 PUSH4 0xF525CB68 EQ PUSH2 0x36D JUMPI PUSH1 0x0 DUP1 REVERT JUMPDEST DUP1 PUSH4 0x673A2A1F EQ PUSH2 0x2AB JUMPI DUP1 PUSH4 0x712B772F EQ PUSH2 0x2C0 JUMPI DUP1 PUSH4 0x715018A6 EQ PUSH2 0x2D3 JUMPI DUP1 PUSH4 0x8DA5CB5B EQ PUSH2 0x2DB JUMPI DUP1 PUSH4 0x9C37EBB6 EQ PUSH2 0x2EC JUMPI PUSH1 0x0 DUP1 REVERT JUMPDEST DUP1 PUSH4 0x23604071 GT PUSH2 0xF4 JUMPI DUP1 PUSH4 0x23604071 EQ PUSH2 0x234 JUMPI DUP1 PUSH4 0x411557D1 EQ PUSH2 0x247 JUMPI DUP1 PUSH4 0x46CF3E6E EQ PUSH2 0x262 JUMPI DUP1 PUSH4 0x51D48CEA EQ PUSH2 0x275 JUMPI DUP1 PUSH4 0x5B16EBB7 EQ PUSH2 0x288 JUMPI PUSH1 0x0 DUP1 REVERT JUMPDEST DUP1 PUSH4 0x1B1AFF6 EQ PUSH2 0x126 JUMPI DUP1 PUSH4 0x563CD7C EQ PUSH2 0x16A JUMPI DUP1 PUSH4 0x5EA2183 EQ PUSH2 0x17F JUMPI DUP1 PUSH4 0x13D21CDF EQ PUSH2 0x192 JUMPI JUMPDEST PUSH1 0x0 DUP1 REVERT JUMPDEST PUSH2 0x14D PUSH32 0x0 DUP2 JUMP JUMPDEST PUSH1 0x40 MLOAD PUSH1 0x1 PUSH1 0x1 PUSH1 0xA0 SHL SUB SWAP1 SWAP2 AND DUP2 MSTORE PUSH1 0x20 ADD JUMPDEST PUSH1 0x40 MLOAD DUP1 SWAP2 SUB SWAP1 RETURN JUMPDEST PUSH2 0x17D PUSH2 0x178 CALLDATASIZE PUSH1 0x4 PUSH2 0x1A79 JUMP JUMPDEST PUSH2 0x375 JUMP JUMPDEST STOP JUMPDEST PUSH2 0x14D PUSH2 0x18D CALLDATASIZE PUSH1 0x4 PUSH2 0x1B07 JUMP JUMPDEST PUSH2 0xAF5 JUMP JUMPDEST PUSH2 0x207 PUSH2 0x1A0 CALLDATASIZE PUSH1 0x4 PUSH2 0x1B20 JUMP JUMPDEST PUSH1 0x40 DUP1 MLOAD PUSH1 0x60 DUP2 ADD DUP3 MSTORE PUSH1 0x0 DUP1 DUP3 MSTORE PUSH1 0x20 DUP3 ADD DUP2 SWAP1 MSTORE SWAP2 DUP2 ADD SWAP2 SWAP1 SWAP2 MSTORE POP PUSH1 0x1 PUSH1 0x1 PUSH1 0xA0 SHL SUB SWAP1 DUP2 AND PUSH1 0x0 SWAP1 DUP2 MSTORE PUSH1 0x1 PUSH1 0x20 DUP2 DUP2 MSTORE PUSH1 0x40 SWAP3 DUP4 SWAP1 KECCAK256 DUP4 MLOAD PUSH1 0x60 DUP2 ADD DUP6 MSTORE DUP2 SLOAD SWAP6 DUP7 AND DUP2 MSTORE PUSH1 0x1 PUSH1 0xA0 SHL SWAP1 SWAP6 DIV PUSH1 0xFF AND ISZERO ISZERO SWAP2 DUP6 ADD SWAP2 SWAP1 SWAP2 MSTORE ADD SLOAD SWAP1 DUP3 ADD MSTORE SWAP1 JUMP JUMPDEST PUSH1 0x40 DUP1 MLOAD DUP3 MLOAD PUSH1 0x1 PUSH1 0x1 PUSH1 0xA0 SHL SUB AND DUP2 MSTORE PUSH1 0x20 DUP1 DUP5 ADD MLOAD ISZERO ISZERO SWAP1 DUP3 ADD MSTORE SWAP2 DUP2 ADD MLOAD SWAP1 DUP3 ADD MSTORE PUSH1 0x60 ADD PUSH2 0x161 JUMP JUMPDEST PUSH2 0x17D PUSH2 0x242 CALLDATASIZE PUSH1 0x4 PUSH2 0x1B20 JUMP JUMPDEST PUSH2 0xB08 JUMP JUMPDEST PUSH2 0x14D PUSH20 0x20DD72ED959B6147912C2E529F0A0C651C33C9CE DUP2 JUMP JUMPDEST PUSH2 0x14D PUSH2 0x270 CALLDATASIZE PUSH1 0x4 PUSH2 0x1D2F JUMP JUMPDEST PUSH2 0xB93 JUMP JUMPDEST PUSH2 0x17D PUSH2 0x283 CALLDATASIZE PUSH1 0x4 PUSH2 0x1EAC JUMP JUMPDEST PUSH2 0x112A JUMP JUMPDEST PUSH2 0x29B PUSH2 0x296 CALLDATASIZE PUSH1 0x4 PUSH2 0x1B20 JUMP JUMPDEST PUSH2 0x120A JUMP JUMPDEST PUSH1 0x40 MLOAD SWAP1 ISZERO ISZERO DUP2 MSTORE PUSH1 0x20 ADD PUSH2 0x161 JUMP JUMPDEST PUSH2 0x2B3 PUSH2 0x1217 JUMP JUMPDEST PUSH1 0x40 MLOAD PUSH2 0x161 SWAP2 SWAP1 PUSH2 0x1F29 JUMP JUMPDEST PUSH2 0x17D PUSH2 0x2CE CALLDATASIZE PUSH1 0x4 PUSH2 0x1F3C JUMP JUMPDEST PUSH2 0x1228 JUMP JUMPDEST PUSH2 0x17D PUSH2 0x1359 JUMP JUMPDEST PUSH1 0x0 SLOAD PUSH1 0x1 PUSH1 0x1 PUSH1 0xA0 SHL SUB AND PUSH2 0x14D JUMP JUMPDEST PUSH2 0x313 PUSH32 0x0 DUP2 JUMP JUMPDEST PUSH1 0x40 MLOAD SWAP1 DUP2 MSTORE PUSH1 0x20 ADD PUSH2 0x161 JUMP JUMPDEST PUSH1 0x4 SLOAD PUSH2 0x14D SWAP1 PUSH1 0x1 PUSH1 0x1 PUSH1 0xA0 SHL SUB AND DUP2 JUMP JUMPDEST PUSH2 0x313 PUSH2 0x342 CALLDATASIZE PUSH1 0x4 PUSH2 0x1B20 JUMP JUMPDEST PUSH2 0x138F JUMP JUMPDEST PUSH2 0x17D PUSH2 0x355 CALLDATASIZE PUSH1 0x4 PUSH2 0x1F3C JUMP JUMPDEST PUSH2 0x13FA JUMP JUMPDEST PUSH2 0x17D PUSH2 0x368 CALLDATASIZE PUSH1 0x4 PUSH2 0x1B20 JUMP JUMPDEST PUSH2 0x14A4 JUMP JUMPDEST PUSH2 0x313 PUSH2 0x153F JUMP JUMPDEST PUSH1 0x1 PUSH1 0x1 PUSH1 0xA0 SHL SUB DUP5 DUP2 AND PUSH1 0x0 SWAP1 DUP2 MSTORE PUSH1 0x1 PUSH1 0x20 MSTORE PUSH1 0x40 SWAP1 KECCAK256 SLOAD DUP6 SWAP2 AND CALLER EQ PUSH2 0x3B9 JUMPI PUSH1 0x40 MLOAD PUSH3 0x461BCD PUSH1 0xE5 SHL DUP2 MSTORE PUSH1 0x4 ADD PUSH2 0x3B0 SWAP1 PUSH2 0x1F6A JUMP JUMPDEST PUSH1 0x40 MLOAD DUP1 SWAP2 SUB SWAP1 REVERT JUMPDEST PUSH1 0x0 DUP6 PUSH1 0x1 PUSH1 0x1 PUSH1 0xA0 SHL SUB AND PUSH4 0x38FFF2D0 PUSH1 0x40 MLOAD DUP2 PUSH4 0xFFFFFFFF AND PUSH1 0xE0 SHL DUP2 MSTORE PUSH1 0x4 ADD PUSH1 0x20 PUSH1 0x40 MLOAD DUP1 DUP4 SUB DUP2 PUSH1 0x0 DUP8 GAS CALL ISZERO DUP1 ISZERO PUSH2 0x3FB JUMPI RETURNDATASIZE PUSH1 0x0 DUP1 RETURNDATACOPY RETURNDATASIZE PUSH1 0x0 REVERT JUMPDEST POP POP POP POP PUSH1 0x40 MLOAD RETURNDATASIZE PUSH1 0x1F NOT PUSH1 0x1F DUP3 ADD AND DUP3 ADD DUP1 PUSH1 0x40 MSTORE POP DUP2 ADD SWAP1 PUSH2 0x41F SWAP2 SWAP1 PUSH2 0x1F8A JUMP JUMPDEST PUSH1 0x40 MLOAD PUSH4 0x1F29A8CD PUSH1 0xE3 SHL DUP2 MSTORE PUSH1 0x4 DUP2 ADD DUP3 SWAP1 MSTORE SWAP1 SWAP2 POP PUSH1 0x0 SWAP1 PUSH20 0x20DD72ED959B6147912C2E529F0A0C651C33C9CE SWAP1 PUSH4 0xF94D4668 SWAP1 PUSH1 0x24 ADD PUSH1 0x0 PUSH1 0x40 MLOAD DUP1 DUP4 SUB DUP2 DUP7 GAS STATICCALL ISZERO DUP1 ISZERO PUSH2 0x475 JUMPI RETURNDATASIZE PUSH1 0x0 DUP1 RETURNDATACOPY RETURNDATASIZE PUSH1 0x0 REVERT JUMPDEST POP POP POP POP PUSH1 0x40 MLOAD RETURNDATASIZE PUSH1 0x0 DUP3 RETURNDATACOPY PUSH1 0x1F RETURNDATASIZE SWAP1 DUP2 ADD PUSH1 0x1F NOT AND DUP3 ADD PUSH1 0x40 MSTORE PUSH2 0x49D SWAP2 SWAP1 DUP2 ADD SWAP1 PUSH2 0x1FFE JUMP JUMPDEST POP POP DUP1 MLOAD SWAP1 SWAP2 POP DUP6 EQ PUSH2 0x4E9 JUMPI PUSH1 0x40 MLOAD PUSH3 0x461BCD PUSH1 0xE5 SHL DUP2 MSTORE PUSH1 0x20 PUSH1 0x4 DUP3 ADD MSTORE PUSH1 0x14 PUSH1 0x24 DUP3 ADD MSTORE PUSH20 0xD2DCECC2D8D2C840D2DCE0EAE840D8CADCCEE8D PUSH1 0x63 SHL PUSH1 0x44 DUP3 ADD MSTORE PUSH1 0x64 ADD PUSH2 0x3B0 JUMP JUMPDEST PUSH1 0x1 PUSH1 0x1 PUSH1 0xA0 SHL SUB DUP8 DUP2 AND PUSH1 0x0 DUP2 DUP2 MSTORE PUSH1 0x1 PUSH1 0x20 DUP2 DUP2 MSTORE PUSH1 0x40 DUP1 DUP5 KECCAK256 DUP2 MLOAD PUSH1 0x60 DUP2 ADD DUP4 MSTORE DUP2 SLOAD SWAP8 DUP9 AND DUP2 MSTORE PUSH1 0x1 PUSH1 0xA0 SHL SWAP1 SWAP8 DIV PUSH1 0xFF AND ISZERO ISZERO SWAP3 DUP8 ADD SWAP3 SWAP1 SWAP3 MSTORE SWAP2 ADD SLOAD DUP5 DUP3 ADD MSTORE MLOAD PUSH4 0x70A08231 PUSH1 0xE0 SHL DUP2 MSTORE ADDRESS PUSH1 0x4 DUP3 ADD MSTORE SWAP1 SWAP2 DUP3 SWAP2 PUSH4 0x70A08231 SWAP1 PUSH1 0x24 ADD PUSH1 0x20 PUSH1 0x40 MLOAD DUP1 DUP4 SUB DUP2 DUP7 GAS STATICCALL ISZERO DUP1 ISZERO PUSH2 0x56A JUMPI RETURNDATASIZE PUSH1 0x0 DUP1 RETURNDATACOPY RETURNDATASIZE PUSH1 0x0 REVERT JUMPDEST POP POP POP POP PUSH1 0x40 MLOAD RETURNDATASIZE PUSH1 0x1F NOT PUSH1 0x1F DUP3 ADD AND DUP3 ADD DUP1 PUSH1 0x40 MSTORE POP DUP2 ADD SWAP1 PUSH2 0x58E SWAP2 SWAP1 PUSH2 0x1F8A JUMP JUMPDEST SWAP1 POP DUP1 DUP8 GT ISZERO PUSH2 0x5E0 JUMPI PUSH1 0x40 MLOAD PUSH3 0x461BCD PUSH1 0xE5 SHL DUP2 MSTORE PUSH1 0x20 PUSH1 0x4 DUP3 ADD MSTORE PUSH1 0x1B PUSH1 0x24 DUP3 ADD MSTORE PUSH32 0x4E6F7420656E6F7567682042505420746F6B656E20616D6F756E740000000000 PUSH1 0x44 DUP3 ADD MSTORE PUSH1 0x64 ADD PUSH2 0x3B0 JUMP JUMPDEST PUSH1 0x0 DUP2 GT PUSH2 0x61F JUMPI PUSH1 0x40 MLOAD PUSH3 0x461BCD PUSH1 0xE5 SHL DUP2 MSTORE PUSH1 0x20 PUSH1 0x4 DUP3 ADD MSTORE PUSH1 0xC PUSH1 0x24 DUP3 ADD MSTORE PUSH12 0x1A5B9D985B1A59081C1BDBDB PUSH1 0xA2 SHL PUSH1 0x44 DUP3 ADD MSTORE PUSH1 0x64 ADD PUSH2 0x3B0 JUMP JUMPDEST DUP7 PUSH2 0x62C JUMPI DUP1 SWAP2 POP PUSH2 0x630 JUMP JUMPDEST DUP7 SWAP2 POP JUMPDEST PUSH1 0x0 PUSH1 0x1 DUP4 PUSH1 0x40 MLOAD PUSH1 0x20 ADD PUSH2 0x646 SWAP3 SWAP2 SWAP1 PUSH2 0x20CC JUMP JUMPDEST PUSH1 0x40 MLOAD PUSH1 0x20 DUP2 DUP4 SUB SUB DUP2 MSTORE SWAP1 PUSH1 0x40 MSTORE SWAP1 POP PUSH1 0x0 PUSH1 0x40 MLOAD DUP1 PUSH1 0x80 ADD PUSH1 0x40 MSTORE DUP1 DUP8 DUP2 MSTORE PUSH1 0x20 ADD DUP13 DUP13 DUP1 DUP1 PUSH1 0x20 MUL PUSH1 0x20 ADD PUSH1 0x40 MLOAD SWAP1 DUP2 ADD PUSH1 0x40 MSTORE DUP1 SWAP4 SWAP3 SWAP2 SWAP1 DUP2 DUP2 MSTORE PUSH1 0x20 ADD DUP4 DUP4 PUSH1 0x20 MUL DUP1 DUP3 DUP5 CALLDATACOPY PUSH1 0x0 SWAP3 ADD DUP3 SWAP1 MSTORE POP SWAP4 DUP6 MSTORE POP POP POP PUSH1 0x20 DUP3 ADD DUP6 SWAP1 MSTORE PUSH1 0x40 SWAP2 DUP3 ADD MSTORE MLOAD PUSH4 0x8BDB3913 PUSH1 0xE0 SHL DUP2 MSTORE SWAP1 SWAP2 POP PUSH20 0x20DD72ED959B6147912C2E529F0A0C651C33C9CE SWAP1 PUSH4 0x8BDB3913 SWAP1 PUSH2 0x6EA SWAP1 DUP11 SWAP1 ADDRESS SWAP1 DUP2 SWAP1 DUP8 SWAP1 PUSH1 0x4 ADD PUSH2 0x221B JUMP JUMPDEST PUSH1 0x0 PUSH1 0x40 MLOAD DUP1 DUP4 SUB DUP2 PUSH1 0x0 DUP8 DUP1 EXTCODESIZE ISZERO DUP1 ISZERO PUSH2 0x704 JUMPI PUSH1 0x0 DUP1 REVERT JUMPDEST POP GAS CALL ISZERO DUP1 ISZERO PUSH2 0x718 JUMPI RETURNDATASIZE PUSH1 0x0 DUP1 RETURNDATACOPY RETURNDATASIZE PUSH1 0x0 REVERT JUMPDEST POP POP POP POP DUP12 PUSH1 0x1 PUSH1 0x1 PUSH1 0xA0 SHL SUB AND PUSH32 0xFBBB3D684CC731F4EFF666C8534337F397ECF7937C1ED574F8626F6CB718CC01 DUP8 DUP14 DUP14 DUP7 PUSH1 0x40 MLOAD PUSH2 0x75B SWAP5 SWAP4 SWAP3 SWAP2 SWAP1 PUSH2 0x2257 JUMP JUMPDEST PUSH1 0x40 MLOAD DUP1 SWAP2 SUB SWAP1 LOG2 PUSH1 0x0 DUP7 DUP7 PUSH1 0x20 ADD MLOAD PUSH2 0x776 JUMPI PUSH1 0x1 PUSH2 0x779 JUMP JUMPDEST PUSH1 0x0 JUMPDEST PUSH1 0xFF AND DUP2 MLOAD DUP2 LT PUSH2 0x78C JUMPI PUSH2 0x78C PUSH2 0x22C3 JUMP JUMPDEST PUSH1 0x20 SWAP1 DUP2 MUL SWAP2 SWAP1 SWAP2 ADD ADD MLOAD PUSH1 0x40 MLOAD PUSH4 0x70A08231 PUSH1 0xE0 SHL DUP2 MSTORE ADDRESS PUSH1 0x4 DUP3 ADD MSTORE SWAP1 SWAP2 POP PUSH1 0x0 SWAP1 PUSH1 0x1 PUSH1 0x1 PUSH1 0xA0 SHL SUB DUP4 AND SWAP1 PUSH4 0x70A08231 SWAP1 PUSH1 0x24 ADD PUSH1 0x20 PUSH1 0x40 MLOAD DUP1 DUP4 SUB DUP2 DUP7 GAS STATICCALL ISZERO DUP1 ISZERO PUSH2 0x7E1 JUMPI RETURNDATASIZE PUSH1 0x0 DUP1 RETURNDATACOPY RETURNDATASIZE PUSH1 0x0 REVERT JUMPDEST POP POP POP POP PUSH1 0x40 MLOAD RETURNDATASIZE PUSH1 0x1F NOT PUSH1 0x1F DUP3 ADD AND DUP3 ADD DUP1 PUSH1 0x40 MSTORE POP DUP2 ADD SWAP1 PUSH2 0x805 SWAP2 SWAP1 PUSH2 0x1F8A JUMP JUMPDEST SWAP1 POP DUP7 PUSH1 0x40 ADD MLOAD DUP2 GT ISZERO PUSH2 0x8D4 JUMPI PUSH1 0x0 PUSH2 0x2710 PUSH32 0x0 DUP10 PUSH1 0x40 ADD MLOAD DUP5 PUSH2 0x849 SWAP2 SWAP1 PUSH2 0x22EF JUMP JUMPDEST PUSH2 0x853 SWAP2 SWAP1 PUSH2 0x2306 JUMP JUMPDEST PUSH2 0x85D SWAP2 SWAP1 PUSH2 0x2325 JUMP JUMPDEST PUSH1 0x4 SLOAD SWAP1 SWAP2 POP PUSH2 0x878 SWAP1 DUP5 SWAP1 PUSH1 0x1 PUSH1 0x1 PUSH1 0xA0 SHL SUB AND DUP4 PUSH2 0x154B JUMP JUMPDEST DUP15 PUSH1 0x1 PUSH1 0x1 PUSH1 0xA0 SHL SUB AND PUSH32 0x52B4A48C36F647498BA38EFEAED299EB5E0F7688E76359A58F55738FF7725AF2 DUP5 PUSH1 0x4 PUSH1 0x0 SWAP1 SLOAD SWAP1 PUSH2 0x100 EXP SWAP1 DIV PUSH1 0x1 PUSH1 0x1 PUSH1 0xA0 SHL SUB AND DUP5 PUSH1 0x40 MLOAD PUSH2 0x8CA SWAP4 SWAP3 SWAP2 SWAP1 PUSH2 0x2347 JUMP JUMPDEST PUSH1 0x40 MLOAD DUP1 SWAP2 SUB SWAP1 LOG2 POP JUMPDEST PUSH1 0x0 DUP9 PUSH1 0x0 DUP2 MLOAD DUP2 LT PUSH2 0x8E9 JUMPI PUSH2 0x8E9 PUSH2 0x22C3 JUMP JUMPDEST PUSH1 0x20 SWAP1 DUP2 MUL SWAP2 SWAP1 SWAP2 ADD ADD MLOAD PUSH1 0x40 MLOAD PUSH4 0x70A08231 PUSH1 0xE0 SHL DUP2 MSTORE ADDRESS PUSH1 0x4 DUP3 ADD MSTORE PUSH1 0x1 PUSH1 0x1 PUSH1 0xA0 SHL SUB SWAP1 SWAP2 AND SWAP1 PUSH4 0x70A08231 SWAP1 PUSH1 0x24 ADD PUSH1 0x20 PUSH1 0x40 MLOAD DUP1 DUP4 SUB DUP2 DUP7 GAS STATICCALL ISZERO DUP1 ISZERO PUSH2 0x939 JUMPI RETURNDATASIZE PUSH1 0x0 DUP1 RETURNDATACOPY RETURNDATASIZE PUSH1 0x0 REVERT JUMPDEST POP POP POP POP PUSH1 0x40 MLOAD RETURNDATASIZE PUSH1 0x1F NOT PUSH1 0x1F DUP3 ADD AND DUP3 ADD DUP1 PUSH1 0x40 MSTORE POP DUP2 ADD SWAP1 PUSH2 0x95D SWAP2 SWAP1 PUSH2 0x1F8A JUMP JUMPDEST SWAP1 POP PUSH2 0x984 DUP10 PUSH1 0x0 DUP2 MLOAD DUP2 LT PUSH2 0x975 JUMPI PUSH2 0x975 PUSH2 0x22C3 JUMP JUMPDEST PUSH1 0x20 MUL PUSH1 0x20 ADD ADD MLOAD CALLER DUP4 PUSH2 0x154B JUMP JUMPDEST DUP15 PUSH1 0x1 PUSH1 0x1 PUSH1 0xA0 SHL SUB AND PUSH32 0x235D80DB0A4B8DC1E99BBA791B835D938CBC8CB023A88FDABA36AAFD2AA9B276 DUP11 PUSH1 0x0 DUP2 MLOAD DUP2 LT PUSH2 0x9C2 JUMPI PUSH2 0x9C2 PUSH2 0x22C3 JUMP JUMPDEST PUSH1 0x20 MUL PUSH1 0x20 ADD ADD MLOAD CALLER DUP5 PUSH1 0x40 MLOAD PUSH2 0x9DB SWAP4 SWAP3 SWAP2 SWAP1 PUSH2 0x2347 JUMP JUMPDEST PUSH1 0x40 MLOAD DUP1 SWAP2 SUB SWAP1 LOG2 PUSH1 0x0 DUP10 PUSH1 0x1 DUP2 MLOAD DUP2 LT PUSH2 0x9F8 JUMPI PUSH2 0x9F8 PUSH2 0x22C3 JUMP JUMPDEST PUSH1 0x20 SWAP1 DUP2 MUL SWAP2 SWAP1 SWAP2 ADD ADD MLOAD PUSH1 0x40 MLOAD PUSH4 0x70A08231 PUSH1 0xE0 SHL DUP2 MSTORE ADDRESS PUSH1 0x4 DUP3 ADD MSTORE PUSH1 0x1 PUSH1 0x1 PUSH1 0xA0 SHL SUB SWAP1 SWAP2 AND SWAP1 PUSH4 0x70A08231 SWAP1 PUSH1 0x24 ADD PUSH1 0x20 PUSH1 0x40 MLOAD DUP1 DUP4 SUB DUP2 DUP7 GAS STATICCALL ISZERO DUP1 ISZERO PUSH2 0xA48 JUMPI RETURNDATASIZE PUSH1 0x0 DUP1 RETURNDATACOPY RETURNDATASIZE PUSH1 0x0 REVERT JUMPDEST POP POP POP POP PUSH1 0x40 MLOAD RETURNDATASIZE PUSH1 0x1F NOT PUSH1 0x1F DUP3 ADD AND DUP3 ADD DUP1 PUSH1 0x40 MSTORE POP DUP2 ADD SWAP1 PUSH2 0xA6C SWAP2 SWAP1 PUSH2 0x1F8A JUMP JUMPDEST SWAP1 POP PUSH2 0xA84 DUP11 PUSH1 0x1 DUP2 MLOAD DUP2 LT PUSH2 0x975 JUMPI PUSH2 0x975 PUSH2 0x22C3 JUMP JUMPDEST DUP16 PUSH1 0x1 PUSH1 0x1 PUSH1 0xA0 SHL SUB AND PUSH32 0x235D80DB0A4B8DC1E99BBA791B835D938CBC8CB023A88FDABA36AAFD2AA9B276 DUP12 PUSH1 0x1 DUP2 MLOAD DUP2 LT PUSH2 0xAC2 JUMPI PUSH2 0xAC2 PUSH2 0x22C3 JUMP JUMPDEST PUSH1 0x20 MUL PUSH1 0x20 ADD ADD MLOAD CALLER DUP5 PUSH1 0x40 MLOAD PUSH2 0xADB SWAP4 SWAP3 SWAP2 SWAP1 PUSH2 0x2347 JUMP JUMPDEST PUSH1 0x40 MLOAD DUP1 SWAP2 SUB SWAP1 LOG2 POP POP POP POP POP POP POP POP POP POP POP POP POP POP POP POP JUMP JUMPDEST PUSH1 0x0 PUSH2 0xB02 PUSH1 0x2 DUP4 PUSH2 0x167C JUMP JUMPDEST SWAP3 SWAP2 POP POP JUMP JUMPDEST PUSH1 0x0 SLOAD PUSH1 0x1 PUSH1 0x1 PUSH1 0xA0 SHL SUB AND CALLER EQ PUSH2 0xB32 JUMPI PUSH1 0x40 MLOAD PUSH3 0x461BCD PUSH1 0xE5 SHL DUP2 MSTORE PUSH1 0x4 ADD PUSH2 0x3B0 SWAP1 PUSH2 0x236B JUMP JUMPDEST PUSH1 0x4 DUP1 SLOAD PUSH1 0x1 PUSH1 0x1 PUSH1 0xA0 SHL SUB DUP4 DUP2 AND PUSH1 0x1 PUSH1 0x1 PUSH1 0xA0 SHL SUB NOT DUP4 AND DUP2 OR SWAP1 SWAP4 SSTORE PUSH1 0x40 DUP1 MLOAD SWAP2 SWAP1 SWAP3 AND DUP1 DUP3 MSTORE PUSH1 0x20 DUP3 ADD SWAP4 SWAP1 SWAP4 MSTORE PUSH32 0xC335CA37F71E695337F94E5078421114AEE3F4C5D97E824EFAF8578318E5E8C8 SWAP2 ADD PUSH1 0x40 MLOAD DUP1 SWAP2 SUB SWAP1 LOG1 POP POP JUMP JUMPDEST PUSH1 0x0 DUP2 PUSH1 0x40 ADD MLOAD MLOAD PUSH1 0x2 EQ PUSH2 0xBDC JUMPI PUSH1 0x40 MLOAD PUSH3 0x461BCD PUSH1 0xE5 SHL DUP2 MSTORE PUSH1 0x20 PUSH1 0x4 DUP3 ADD MSTORE PUSH1 0xF PUSH1 0x24 DUP3 ADD MSTORE PUSH15 0x6F6E6C792074776F20746F6B656E73 PUSH1 0x88 SHL PUSH1 0x44 DUP3 ADD MSTORE PUSH1 0x64 ADD PUSH2 0x3B0 JUMP JUMPDEST PUSH2 0xC24 DUP3 PUSH1 0x40 ADD MLOAD PUSH1 0x0 DUP2 MLOAD DUP2 LT PUSH2 0xBF6 JUMPI PUSH2 0xBF6 PUSH2 0x22C3 JUMP JUMPDEST PUSH1 0x20 MUL PUSH1 0x20 ADD ADD MLOAD CALLER ADDRESS DUP6 PUSH1 0x60 ADD MLOAD PUSH1 0x0 DUP2 MLOAD DUP2 LT PUSH2 0xC17 JUMPI PUSH2 0xC17 PUSH2 0x22C3 JUMP JUMPDEST PUSH1 0x20 MUL PUSH1 0x20 ADD ADD MLOAD PUSH2 0x168F JUMP JUMPDEST PUSH2 0xC5F DUP3 PUSH1 0x40 ADD MLOAD PUSH1 0x1 DUP2 MLOAD DUP2 LT PUSH2 0xC3E JUMPI PUSH2 0xC3E PUSH2 0x22C3 JUMP JUMPDEST PUSH1 0x20 MUL PUSH1 0x20 ADD ADD MLOAD CALLER ADDRESS DUP6 PUSH1 0x60 ADD MLOAD PUSH1 0x1 DUP2 MLOAD DUP2 LT PUSH2 0xC17 JUMPI PUSH2 0xC17 PUSH2 0x22C3 JUMP JUMPDEST PUSH2 0xCBA DUP3 PUSH1 0x40 ADD MLOAD PUSH1 0x0 DUP2 MLOAD DUP2 LT PUSH2 0xC79 JUMPI PUSH2 0xC79 PUSH2 0x22C3 JUMP JUMPDEST PUSH1 0x20 MUL PUSH1 0x20 ADD ADD MLOAD PUSH20 0x20DD72ED959B6147912C2E529F0A0C651C33C9CE DUP5 PUSH1 0x60 ADD MLOAD PUSH1 0x0 DUP2 MLOAD DUP2 LT PUSH2 0xCAD JUMPI PUSH2 0xCAD PUSH2 0x22C3 JUMP JUMPDEST PUSH1 0x20 MUL PUSH1 0x20 ADD ADD MLOAD PUSH2 0x17C9 JUMP JUMPDEST PUSH2 0xD08 DUP3 PUSH1 0x40 ADD MLOAD PUSH1 0x1 DUP2 MLOAD DUP2 LT PUSH2 0xCD4 JUMPI PUSH2 0xCD4 PUSH2 0x22C3 JUMP JUMPDEST PUSH1 0x20 MUL PUSH1 0x20 ADD ADD MLOAD PUSH20 0x20DD72ED959B6147912C2E529F0A0C651C33C9CE DUP5 PUSH1 0x60 ADD MLOAD PUSH1 0x1 DUP2 MLOAD DUP2 LT PUSH2 0xCAD JUMPI PUSH2 0xCAD PUSH2 0x22C3 JUMP JUMPDEST DUP2 MLOAD PUSH1 0x20 DUP4 ADD MLOAD PUSH1 0x40 DUP1 DUP6 ADD MLOAD PUSH1 0x80 DUP7 ADD MLOAD PUSH1 0xE0 DUP8 ADD MLOAD SWAP3 MLOAD PUSH4 0x23679719 PUSH1 0xE0 SHL DUP2 MSTORE PUSH1 0x0 SWAP6 PUSH1 0x1 PUSH1 0x1 PUSH1 0xA0 SHL SUB PUSH32 0x0 AND SWAP6 PUSH4 0x23679719 SWAP6 PUSH2 0xD73 SWAP6 SWAP3 SWAP5 SWAP2 SWAP4 ADDRESS SWAP1 DUP11 SWAP1 PUSH1 0x4 ADD PUSH2 0x23A0 JUMP JUMPDEST PUSH1 0x20 PUSH1 0x40 MLOAD DUP1 DUP4 SUB DUP2 PUSH1 0x0 DUP8 GAS CALL ISZERO DUP1 ISZERO PUSH2 0xD92 JUMPI RETURNDATASIZE PUSH1 0x0 DUP1 RETURNDATACOPY RETURNDATASIZE PUSH1 0x0 REVERT JUMPDEST POP POP POP POP PUSH1 0x40 MLOAD RETURNDATASIZE PUSH1 0x1F NOT PUSH1 0x1F DUP3 ADD AND DUP3 ADD DUP1 PUSH1 0x40 MSTORE POP DUP2 ADD SWAP1 PUSH2 0xDB6 SWAP2 SWAP1 PUSH2 0x2418 JUMP JUMPDEST SWAP1 POP PUSH1 0x0 DUP2 PUSH1 0x1 PUSH1 0x1 PUSH1 0xA0 SHL SUB AND PUSH4 0x38FFF2D0 PUSH1 0x40 MLOAD DUP2 PUSH4 0xFFFFFFFF AND PUSH1 0xE0 SHL DUP2 MSTORE PUSH1 0x4 ADD PUSH1 0x20 PUSH1 0x40 MLOAD DUP1 DUP4 SUB DUP2 PUSH1 0x0 DUP8 GAS CALL ISZERO DUP1 ISZERO PUSH2 0xDFA JUMPI RETURNDATASIZE PUSH1 0x0 DUP1 RETURNDATACOPY RETURNDATASIZE PUSH1 0x0 REVERT JUMPDEST POP POP POP POP PUSH1 0x40 MLOAD RETURNDATASIZE PUSH1 0x1F NOT PUSH1 0x1F DUP3 ADD AND DUP3 ADD DUP1 PUSH1 0x40 MSTORE POP DUP2 ADD SWAP1 PUSH2 0xE1E SWAP2 SWAP1 PUSH2 0x1F8A JUMP JUMPDEST SWAP1 POP DUP2 PUSH1 0x1 PUSH1 0x1 PUSH1 0xA0 SHL SUB AND PUSH32 0x2B416CE78F01C3304331A3A35005EE09BFB64C878F2BE9849FC9909101BC61AC DUP3 DUP7 PUSH1 0x0 ADD MLOAD DUP8 PUSH1 0x20 ADD MLOAD DUP9 PUSH1 0x40 ADD MLOAD DUP10 PUSH1 0x80 ADD MLOAD DUP11 PUSH1 0xE0 ADD MLOAD ADDRESS PUSH1 0x0 PUSH1 0x40 MLOAD PUSH2 0xE7C SWAP9 SWAP8 SWAP7 SWAP6 SWAP5 SWAP4 SWAP3 SWAP2 SWAP1 PUSH2 0x2435 JUMP JUMPDEST PUSH1 0x40 MLOAD DUP1 SWAP2 SUB SWAP1 LOG2 PUSH1 0x40 MLOAD DUP1 PUSH1 0x60 ADD PUSH1 0x40 MSTORE DUP1 CALLER PUSH1 0x1 PUSH1 0x1 PUSH1 0xA0 SHL SUB AND DUP2 MSTORE PUSH1 0x20 ADD DUP6 PUSH1 0xC0 ADD MLOAD ISZERO ISZERO DUP2 MSTORE PUSH1 0x20 ADD DUP6 PUSH1 0x60 ADD MLOAD DUP7 PUSH1 0xC0 ADD MLOAD PUSH2 0xEBF JUMPI PUSH1 0x1 PUSH2 0xEC2 JUMP JUMPDEST PUSH1 0x0 JUMPDEST PUSH1 0xFF AND DUP2 MLOAD DUP2 LT PUSH2 0xED5 JUMPI PUSH2 0xED5 PUSH2 0x22C3 JUMP JUMPDEST PUSH1 0x20 SWAP1 DUP2 MUL SWAP2 SWAP1 SWAP2 ADD DUP2 ADD MLOAD SWAP1 SWAP2 MSTORE PUSH1 0x1 PUSH1 0x1 PUSH1 0xA0 SHL SUB DUP1 DUP6 AND PUSH1 0x0 SWAP1 DUP2 MSTORE PUSH1 0x1 DUP1 DUP5 MSTORE PUSH1 0x40 SWAP2 DUP3 SWAP1 KECCAK256 DUP6 MLOAD DUP2 SLOAD SWAP6 DUP8 ADD MLOAD ISZERO ISZERO PUSH1 0x1 PUSH1 0xA0 SHL MUL PUSH1 0x1 PUSH1 0x1 PUSH1 0xA8 SHL SUB NOT SWAP1 SWAP7 AND SWAP5 AND SWAP4 SWAP1 SWAP4 OR SWAP4 SWAP1 SWAP4 OR DUP3 SSTORE SWAP3 SWAP1 SWAP3 ADD MLOAD SWAP2 ADD SSTORE PUSH2 0xF3A PUSH1 0x2 DUP4 PUSH2 0x18F1 JUMP JUMPDEST PUSH2 0xF77 JUMPI PUSH1 0x40 MLOAD PUSH3 0x461BCD PUSH1 0xE5 SHL DUP2 MSTORE PUSH1 0x20 PUSH1 0x4 DUP3 ADD MSTORE PUSH1 0xE PUSH1 0x24 DUP3 ADD MSTORE PUSH14 0x65786973747320616C7265616479 PUSH1 0x90 SHL PUSH1 0x44 DUP3 ADD MSTORE PUSH1 0x64 ADD PUSH2 0x3B0 JUMP JUMPDEST PUSH1 0x40 DUP1 MLOAD PUSH1 0x80 DUP2 ADD DUP3 MSTORE DUP6 DUP3 ADD MLOAD DUP2 MSTORE PUSH1 0x60 DUP1 DUP8 ADD MLOAD PUSH1 0x20 DUP4 ADD MSTORE PUSH2 0x100 DUP8 ADD MLOAD DUP3 DUP5 ADD MSTORE PUSH1 0x0 SWAP1 DUP3 ADD MSTORE SWAP1 MLOAD PUSH4 0x172B9585 PUSH1 0xE3 SHL DUP2 MSTORE PUSH20 0x20DD72ED959B6147912C2E529F0A0C651C33C9CE SWAP2 PUSH4 0xB95CAC28 SWAP2 PUSH2 0xFDC SWAP2 DUP6 SWAP2 ADDRESS SWAP2 DUP3 SWAP2 PUSH1 0x4 ADD PUSH2 0x221B JUMP JUMPDEST PUSH1 0x0 PUSH1 0x40 MLOAD DUP1 DUP4 SUB DUP2 PUSH1 0x0 DUP8 DUP1 EXTCODESIZE ISZERO DUP1 ISZERO PUSH2 0xFF6 JUMPI PUSH1 0x0 DUP1 REVERT JUMPDEST POP GAS CALL ISZERO DUP1 ISZERO PUSH2 0x100A JUMPI RETURNDATASIZE PUSH1 0x0 DUP1 RETURNDATACOPY RETURNDATASIZE PUSH1 0x0 REVERT JUMPDEST POP POP POP POP DUP2 PUSH1 0x1 PUSH1 0x1 PUSH1 0xA0 SHL SUB AND PUSH32 0x5DCDC6C8B7B09C26D0C867E99F2B7389B69D982AA8F10B1373F84667A8F58B35 DUP6 PUSH1 0x40 ADD MLOAD DUP7 PUSH1 0x60 ADD MLOAD DUP8 PUSH2 0x100 ADD MLOAD PUSH1 0x40 MLOAD PUSH2 0x1058 SWAP4 SWAP3 SWAP2 SWAP1 PUSH2 0x24B7 JUMP JUMPDEST PUSH1 0x40 MLOAD DUP1 SWAP2 SUB SWAP1 LOG2 DUP2 PUSH1 0x1 PUSH1 0x1 PUSH1 0xA0 SHL SUB AND PUSH4 0x3E569205 DUP6 PUSH2 0x120 ADD MLOAD DUP7 PUSH2 0x140 ADD MLOAD DUP8 PUSH1 0xA0 ADD MLOAD PUSH1 0x40 MLOAD DUP5 PUSH4 0xFFFFFFFF AND PUSH1 0xE0 SHL DUP2 MSTORE PUSH1 0x4 ADD PUSH2 0x109E SWAP4 SWAP3 SWAP2 SWAP1 PUSH2 0x24F0 JUMP JUMPDEST PUSH1 0x0 PUSH1 0x40 MLOAD DUP1 DUP4 SUB DUP2 PUSH1 0x0 DUP8 DUP1 EXTCODESIZE ISZERO DUP1 ISZERO PUSH2 0x10B8 JUMPI PUSH1 0x0 DUP1 REVERT JUMPDEST POP GAS CALL ISZERO DUP1 ISZERO PUSH2 0x10CC JUMPI RETURNDATASIZE PUSH1 0x0 DUP1 RETURNDATACOPY RETURNDATASIZE PUSH1 0x0 REVERT JUMPDEST POP POP POP POP DUP2 PUSH1 0x1 PUSH1 0x1 PUSH1 0xA0 SHL SUB AND PUSH32 0x5B604C3EB0508FC702242270D353C7673F02B609E03862E244766785E39C278C DUP6 PUSH2 0x120 ADD MLOAD DUP7 PUSH2 0x140 ADD MLOAD DUP8 PUSH1 0xA0 ADD MLOAD PUSH1 0x40 MLOAD PUSH2 0x111B SWAP4 SWAP3 SWAP2 SWAP1 PUSH2 0x24F0 JUMP JUMPDEST PUSH1 0x40 MLOAD DUP1 SWAP2 SUB SWAP1 LOG2 POP SWAP3 SWAP2 POP POP JUMP JUMPDEST PUSH1 0x1 PUSH1 0x1 PUSH1 0xA0 SHL SUB DUP3 DUP2 AND PUSH1 0x0 SWAP1 DUP2 MSTORE PUSH1 0x1 PUSH1 0x20 MSTORE PUSH1 0x40 SWAP1 KECCAK256 SLOAD DUP4 SWAP2 AND CALLER EQ PUSH2 0x1165 JUMPI PUSH1 0x40 MLOAD PUSH3 0x461BCD PUSH1 0xE5 SHL DUP2 MSTORE PUSH1 0x4 ADD PUSH2 0x3B0 SWAP1 PUSH2 0x1F6A JUMP JUMPDEST PUSH1 0x40 MLOAD PUSH4 0x3806BE4B PUSH1 0xE2 SHL DUP2 MSTORE DUP3 ISZERO ISZERO PUSH1 0x4 DUP3 ADD MSTORE PUSH1 0x1 PUSH1 0x1 PUSH1 0xA0 SHL SUB DUP5 AND SWAP1 PUSH4 0xE01AF92C SWAP1 PUSH1 0x24 ADD PUSH1 0x0 PUSH1 0x40 MLOAD DUP1 DUP4 SUB DUP2 PUSH1 0x0 DUP8 DUP1 EXTCODESIZE ISZERO DUP1 ISZERO PUSH2 0x11A8 JUMPI PUSH1 0x0 DUP1 REVERT JUMPDEST POP GAS CALL ISZERO DUP1 ISZERO PUSH2 0x11BC JUMPI RETURNDATASIZE PUSH1 0x0 DUP1 RETURNDATACOPY RETURNDATASIZE PUSH1 0x0 REVERT JUMPDEST POP POP POP POP DUP3 PUSH1 0x1 PUSH1 0x1 PUSH1 0xA0 SHL SUB AND PUSH32 0xDC5BC5B27F91CBE9BAD8B85E20C9519FB6D126629108F16D474AF76579696EA9 DUP4 PUSH1 0x40 MLOAD PUSH2 0x11FD SWAP2 ISZERO ISZERO DUP2 MSTORE PUSH1 0x20 ADD SWAP1 JUMP JUMPDEST PUSH1 0x40 MLOAD DUP1 SWAP2 SUB SWAP1 LOG2 POP POP POP JUMP JUMPDEST PUSH1 0x0 PUSH2 0xB02 PUSH1 0x2 DUP4 PUSH2 0x1906 JUMP JUMPDEST PUSH1 0x60 PUSH2 0x1223 PUSH1 0x2 PUSH2 0x1928 JUMP JUMPDEST SWAP1 POP SWAP1 JUMP JUMPDEST PUSH1 0x0 SLOAD PUSH1 0x1 PUSH1 0x1 PUSH1 0xA0 SHL SUB AND CALLER EQ PUSH2 0x1252 JUMPI PUSH1 0x40 MLOAD PUSH3 0x461BCD PUSH1 0xE5 SHL DUP2 MSTORE PUSH1 0x4 ADD PUSH2 0x3B0 SWAP1 PUSH2 0x236B JUMP JUMPDEST PUSH2 0x125D PUSH1 0x2 DUP4 PUSH2 0x1906 JUMP JUMPDEST ISZERO PUSH2 0x12A1 JUMPI PUSH1 0x40 MLOAD PUSH3 0x461BCD PUSH1 0xE5 SHL DUP2 MSTORE PUSH1 0x20 PUSH1 0x4 DUP3 ADD MSTORE PUSH1 0x14 PUSH1 0x24 DUP3 ADD MSTORE PUSH20 0x31B0B713BA1039B5B4B690262128103A37B5B2B7 PUSH1 0x61 SHL PUSH1 0x44 DUP3 ADD MSTORE PUSH1 0x64 ADD PUSH2 0x3B0 JUMP JUMPDEST PUSH1 0x40 MLOAD PUSH4 0x70A08231 PUSH1 0xE0 SHL DUP2 MSTORE ADDRESS PUSH1 0x4 DUP3 ADD MSTORE PUSH1 0x0 SWAP1 PUSH1 0x1 PUSH1 0x1 PUSH1 0xA0 SHL SUB DUP5 AND SWAP1 PUSH4 0x70A08231 SWAP1 PUSH1 0x24 ADD PUSH1 0x20 PUSH1 0x40 MLOAD DUP1 DUP4 SUB DUP2 DUP7 GAS STATICCALL ISZERO DUP1 ISZERO PUSH2 0x12E8 JUMPI RETURNDATASIZE PUSH1 0x0 DUP1 RETURNDATACOPY RETURNDATASIZE PUSH1 0x0 REVERT JUMPDEST POP POP POP POP PUSH1 0x40 MLOAD RETURNDATASIZE PUSH1 0x1F NOT PUSH1 0x1F DUP3 ADD AND DUP3 ADD DUP1 PUSH1 0x40 MSTORE POP DUP2 ADD SWAP1 PUSH2 0x130C SWAP2 SWAP1 PUSH2 0x1F8A JUMP JUMPDEST SWAP1 POP PUSH2 0x1319 DUP4 DUP4 DUP4 PUSH2 0x154B JUMP JUMPDEST PUSH32 0xCFB7D414A57E3FD35DA9F4B61341E65026C225646228BA0262D9264F541C32E DUP4 DUP4 DUP4 PUSH1 0x40 MLOAD PUSH2 0x134C SWAP4 SWAP3 SWAP2 SWAP1 PUSH2 0x2347 JUMP JUMPDEST PUSH1 0x40 MLOAD DUP1 SWAP2 SUB SWAP1 LOG1 POP POP POP JUMP JUMPDEST PUSH1 0x0 SLOAD PUSH1 0x1 PUSH1 0x1 PUSH1 0xA0 SHL SUB AND CALLER EQ PUSH2 0x1383 JUMPI PUSH1 0x40 MLOAD PUSH3 0x461BCD PUSH1 0xE5 SHL DUP2 MSTORE PUSH1 0x4 ADD PUSH2 0x3B0 SWAP1 PUSH2 0x236B JUMP JUMPDEST PUSH2 0x138D PUSH1 0x0 PUSH2 0x1935 JUMP JUMPDEST JUMP JUMPDEST PUSH1 0x40 MLOAD PUSH4 0x70A08231 PUSH1 0xE0 SHL DUP2 MSTORE ADDRESS PUSH1 0x4 DUP3 ADD MSTORE PUSH1 0x0 SWAP1 PUSH1 0x1 PUSH1 0x1 PUSH1 0xA0 SHL SUB DUP4 AND SWAP1 PUSH4 0x70A08231 SWAP1 PUSH1 0x24 ADD PUSH1 0x20 PUSH1 0x40 MLOAD DUP1 DUP4 SUB DUP2 DUP7 GAS STATICCALL ISZERO DUP1 ISZERO PUSH2 0x13D6 JUMPI RETURNDATASIZE PUSH1 0x0 DUP1 RETURNDATACOPY RETURNDATASIZE PUSH1 0x0 REVERT JUMPDEST POP POP POP POP PUSH1 0x40 MLOAD RETURNDATASIZE PUSH1 0x1F NOT PUSH1 0x1F DUP3 ADD AND DUP3 ADD DUP1 PUSH1 0x40 MSTORE POP DUP2 ADD SWAP1 PUSH2 0xB02 SWAP2 SWAP1 PUSH2 0x1F8A JUMP JUMPDEST PUSH1 0x1 PUSH1 0x1 PUSH1 0xA0 SHL SUB DUP3 DUP2 AND PUSH1 0x0 SWAP1 DUP2 MSTORE PUSH1 0x1 PUSH1 0x20 MSTORE PUSH1 0x40 SWAP1 KECCAK256 SLOAD DUP4 SWAP2 AND CALLER EQ PUSH2 0x1435 JUMPI PUSH1 0x40 MLOAD PUSH3 0x461BCD PUSH1 0xE5 SHL DUP2 MSTORE PUSH1 0x4 ADD PUSH2 0x3B0 SWAP1 PUSH2 0x1F6A JUMP JUMPDEST PUSH1 0x1 PUSH1 0x1 PUSH1 0xA0 SHL SUB DUP4 DUP2 AND PUSH1 0x0 DUP2 DUP2 MSTORE PUSH1 0x1 PUSH1 0x20 SWAP1 DUP2 MSTORE PUSH1 0x40 SWAP2 DUP3 SWAP1 KECCAK256 DUP1 SLOAD DUP8 DUP7 AND PUSH1 0x1 PUSH1 0x1 PUSH1 0xA0 SHL SUB NOT DUP3 AND DUP2 OR SWAP1 SWAP3 SSTORE DUP4 MLOAD SWAP6 AND DUP1 DUP7 MSTORE SWAP2 DUP6 ADD MSTORE SWAP3 PUSH32 0x794FB907C01822765502A338368BDC2F31EF538F609DCC19BE5629FEE0CEDCD8 SWAP2 ADD PUSH1 0x40 MLOAD DUP1 SWAP2 SUB SWAP1 LOG2 POP POP POP POP JUMP JUMPDEST PUSH1 0x0 SLOAD PUSH1 0x1 PUSH1 0x1 PUSH1 0xA0 SHL SUB AND CALLER EQ PUSH2 0x14CE JUMPI PUSH1 0x40 MLOAD PUSH3 0x461BCD PUSH1 0xE5 SHL DUP2 MSTORE PUSH1 0x4 ADD PUSH2 0x3B0 SWAP1 PUSH2 0x236B JUMP JUMPDEST PUSH1 0x1 PUSH1 0x1 PUSH1 0xA0 SHL SUB DUP2 AND PUSH2 0x1533 JUMPI PUSH1 0x40 MLOAD PUSH3 0x461BCD PUSH1 0xE5 SHL DUP2 MSTORE PUSH1 0x20 PUSH1 0x4 DUP3 ADD MSTORE PUSH1 0x26 PUSH1 0x24 DUP3 ADD MSTORE PUSH32 0x4F776E61626C653A206E6577206F776E657220697320746865207A65726F2061 PUSH1 0x44 DUP3 ADD MSTORE PUSH6 0x646472657373 PUSH1 0xD0 SHL PUSH1 0x64 DUP3 ADD MSTORE PUSH1 0x84 ADD PUSH2 0x3B0 JUMP JUMPDEST PUSH2 0x153C DUP2 PUSH2 0x1935 JUMP JUMPDEST POP JUMP JUMPDEST PUSH1 0x0 PUSH2 0x1223 PUSH1 0x2 PUSH2 0x1985 JUMP JUMPDEST PUSH1 0x40 DUP1 MLOAD PUSH1 0x1 PUSH1 0x1 PUSH1 0xA0 SHL SUB DUP5 DUP2 AND PUSH1 0x24 DUP4 ADD MSTORE PUSH1 0x44 DUP1 DUP4 ADD DUP6 SWAP1 MSTORE DUP4 MLOAD DUP1 DUP5 SUB SWAP1 SWAP2 ADD DUP2 MSTORE PUSH1 0x64 SWAP1 SWAP3 ADD DUP4 MSTORE PUSH1 0x20 DUP3 ADD DUP1 MLOAD PUSH1 0x1 PUSH1 0x1 PUSH1 0xE0 SHL SUB AND PUSH4 0xA9059CBB PUSH1 0xE0 SHL OR SWAP1 MSTORE SWAP2 MLOAD PUSH1 0x0 SWAP3 DUP4 SWAP3 SWAP1 DUP8 AND SWAP2 PUSH2 0x15A7 SWAP2 SWAP1 PUSH2 0x2518 JUMP JUMPDEST PUSH1 0x0 PUSH1 0x40 MLOAD DUP1 DUP4 SUB DUP2 PUSH1 0x0 DUP7 GAS CALL SWAP2 POP POP RETURNDATASIZE DUP1 PUSH1 0x0 DUP2 EQ PUSH2 0x15E4 JUMPI PUSH1 0x40 MLOAD SWAP2 POP PUSH1 0x1F NOT PUSH1 0x3F RETURNDATASIZE ADD AND DUP3 ADD PUSH1 0x40 MSTORE RETURNDATASIZE DUP3 MSTORE RETURNDATASIZE PUSH1 0x0 PUSH1 0x20 DUP5 ADD RETURNDATACOPY PUSH2 0x15E9 JUMP JUMPDEST PUSH1 0x60 SWAP2 POP JUMPDEST POP SWAP2 POP SWAP2 POP DUP2 DUP1 ISZERO PUSH2 0x1613 JUMPI POP DUP1 MLOAD ISZERO DUP1 PUSH2 0x1613 JUMPI POP DUP1 DUP1 PUSH1 0x20 ADD SWAP1 MLOAD DUP2 ADD SWAP1 PUSH2 0x1613 SWAP2 SWAP1 PUSH2 0x2534 JUMP JUMPDEST PUSH2 0x1675 JUMPI PUSH1 0x40 MLOAD PUSH3 0x461BCD PUSH1 0xE5 SHL DUP2 MSTORE PUSH1 0x20 PUSH1 0x4 DUP3 ADD MSTORE PUSH1 0x2D PUSH1 0x24 DUP3 ADD MSTORE PUSH32 0x5472616E7366657248656C7065723A3A736166655472616E736665723A207472 PUSH1 0x44 DUP3 ADD MSTORE PUSH13 0x185B9CD9995C8819985A5B1959 PUSH1 0x9A SHL PUSH1 0x64 DUP3 ADD MSTORE PUSH1 0x84 ADD PUSH2 0x3B0 JUMP JUMPDEST POP POP POP POP POP JUMP JUMPDEST PUSH1 0x0 PUSH2 0x1688 DUP4 DUP4 PUSH2 0x198F JUMP JUMPDEST SWAP4 SWAP3 POP POP POP JUMP JUMPDEST PUSH1 0x0 DUP1 DUP6 PUSH1 0x1 PUSH1 0x1 PUSH1 0xA0 SHL SUB AND PUSH4 0x23B872DD DUP7 DUP7 DUP7 PUSH1 0x40 MLOAD PUSH1 0x24 ADD PUSH2 0x16B6 SWAP4 SWAP3 SWAP2 SWAP1 PUSH2 0x2347 JUMP JUMPDEST PUSH1 0x40 MLOAD PUSH1 0x20 DUP2 DUP4 SUB SUB DUP2 MSTORE SWAP1 PUSH1 0x40 MSTORE SWAP1 PUSH1 0xE0 SHL PUSH1 0x20 DUP3 ADD DUP1 MLOAD PUSH1 0x1 PUSH1 0x1 PUSH1 0xE0 SHL SUB DUP4 DUP2 DUP4 AND OR DUP4 MSTORE POP POP POP POP PUSH1 0x40 MLOAD PUSH2 0x16EF SWAP2 SWAP1 PUSH2 0x2518 JUMP JUMPDEST PUSH1 0x0 PUSH1 0x40 MLOAD DUP1 DUP4 SUB DUP2 PUSH1 0x0 DUP7 GAS CALL SWAP2 POP POP RETURNDATASIZE DUP1 PUSH1 0x0 DUP2 EQ PUSH2 0x172C JUMPI PUSH1 0x40 MLOAD SWAP2 POP PUSH1 0x1F NOT PUSH1 0x3F RETURNDATASIZE ADD AND DUP3 ADD PUSH1 0x40 MSTORE RETURNDATASIZE DUP3 MSTORE RETURNDATASIZE PUSH1 0x0 PUSH1 0x20 DUP5 ADD RETURNDATACOPY PUSH2 0x1731 JUMP JUMPDEST PUSH1 0x60 SWAP2 POP JUMPDEST POP SWAP2 POP SWAP2 POP DUP2 DUP1 ISZERO PUSH2 0x175B JUMPI POP DUP1 MLOAD ISZERO DUP1 PUSH2 0x175B JUMPI POP DUP1 DUP1 PUSH1 0x20 ADD SWAP1 MLOAD DUP2 ADD SWAP1 PUSH2 0x175B SWAP2 SWAP1 PUSH2 0x2534 JUMP JUMPDEST PUSH2 0x17C1 JUMPI PUSH1 0x40 MLOAD PUSH3 0x461BCD PUSH1 0xE5 SHL DUP2 MSTORE PUSH1 0x20 PUSH1 0x4 DUP3 ADD MSTORE PUSH1 0x31 PUSH1 0x24 DUP3 ADD MSTORE PUSH32 0x5472616E7366657248656C7065723A3A7472616E7366657246726F6D3A207472 PUSH1 0x44 DUP3 ADD MSTORE PUSH17 0x185B9CD9995C919C9BDB4819985A5B1959 PUSH1 0x7A SHL PUSH1 0x64 DUP3 ADD MSTORE PUSH1 0x84 ADD PUSH2 0x3B0 JUMP JUMPDEST POP POP POP POP POP POP JUMP JUMPDEST PUSH1 0x40 DUP1 MLOAD PUSH1 0x1 PUSH1 0x1 PUSH1 0xA0 SHL SUB DUP5 DUP2 AND PUSH1 0x24 DUP4 ADD MSTORE PUSH1 0x44 DUP1 DUP4 ADD DUP6 SWAP1 MSTORE DUP4 MLOAD DUP1 DUP5 SUB SWAP1 SWAP2 ADD DUP2 MSTORE PUSH1 0x64 SWAP1 SWAP3 ADD DUP4 MSTORE PUSH1 0x20 DUP3 ADD DUP1 MLOAD PUSH1 0x1 PUSH1 0x1 PUSH1 0xE0 SHL SUB AND PUSH4 0x95EA7B3 PUSH1 0xE0 SHL OR SWAP1 MSTORE SWAP2 MLOAD PUSH1 0x0 SWAP3 DUP4 SWAP3 SWAP1 DUP8 AND SWAP2 PUSH2 0x1825 SWAP2 SWAP1 PUSH2 0x2518 JUMP JUMPDEST PUSH1 0x0 PUSH1 0x40 MLOAD DUP1 DUP4 SUB DUP2 PUSH1 0x0 DUP7 GAS CALL SWAP2 POP POP RETURNDATASIZE DUP1 PUSH1 0x0 DUP2 EQ PUSH2 0x1862 JUMPI PUSH1 0x40 MLOAD SWAP2 POP PUSH1 0x1F NOT PUSH1 0x3F RETURNDATASIZE ADD AND DUP3 ADD PUSH1 0x40 MSTORE RETURNDATASIZE DUP3 MSTORE RETURNDATASIZE PUSH1 0x0 PUSH1 0x20 DUP5 ADD RETURNDATACOPY PUSH2 0x1867 JUMP JUMPDEST PUSH1 0x60 SWAP2 POP JUMPDEST POP SWAP2 POP SWAP2 POP DUP2 DUP1 ISZERO PUSH2 0x1891 JUMPI POP DUP1 MLOAD ISZERO DUP1 PUSH2 0x1891 JUMPI POP DUP1 DUP1 PUSH1 0x20 ADD SWAP1 MLOAD DUP2 ADD SWAP1 PUSH2 0x1891 SWAP2 SWAP1 PUSH2 0x2534 JUMP JUMPDEST PUSH2 0x1675 JUMPI PUSH1 0x40 MLOAD PUSH3 0x461BCD PUSH1 0xE5 SHL DUP2 MSTORE PUSH1 0x20 PUSH1 0x4 DUP3 ADD MSTORE PUSH1 0x2B PUSH1 0x24 DUP3 ADD MSTORE PUSH32 0x5472616E7366657248656C7065723A3A73616665417070726F76653A20617070 PUSH1 0x44 DUP3 ADD MSTORE PUSH11 0x1C9BDD994819985A5B1959 PUSH1 0xAA SHL PUSH1 0x64 DUP3 ADD MSTORE PUSH1 0x84 ADD PUSH2 0x3B0 JUMP JUMPDEST PUSH1 0x0 PUSH2 0x1688 DUP4 PUSH1 0x1 PUSH1 0x1 PUSH1 0xA0 SHL SUB DUP5 AND PUSH2 0x19B9 JUMP JUMPDEST PUSH1 0x1 PUSH1 0x1 PUSH1 0xA0 SHL SUB DUP2 AND PUSH1 0x0 SWAP1 DUP2 MSTORE PUSH1 0x1 DUP4 ADD PUSH1 0x20 MSTORE PUSH1 0x40 DUP2 KECCAK256 SLOAD ISZERO ISZERO PUSH2 0x1688 JUMP JUMPDEST PUSH1 0x60 PUSH1 0x0 PUSH2 0x1688 DUP4 PUSH2 0x1A08 JUMP JUMPDEST PUSH1 0x0 DUP1 SLOAD PUSH1 0x1 PUSH1 0x1 PUSH1 0xA0 SHL SUB DUP4 DUP2 AND PUSH1 0x1 PUSH1 0x1 PUSH1 0xA0 SHL SUB NOT DUP4 AND DUP2 OR DUP5 SSTORE PUSH1 0x40 MLOAD SWAP2 SWAP1 SWAP3 AND SWAP3 DUP4 SWAP2 PUSH32 0x8BE0079C531659141344CD1FD0A4F28419497F9722A3DAAFE3B4186F6B6457E0 SWAP2 SWAP1 LOG3 POP POP JUMP JUMPDEST PUSH1 0x0 PUSH2 0xB02 DUP3 SLOAD SWAP1 JUMP JUMPDEST PUSH1 0x0 DUP3 PUSH1 0x0 ADD DUP3 DUP2 SLOAD DUP2 LT PUSH2 0x19A6 JUMPI PUSH2 0x19A6 PUSH2 0x22C3 JUMP JUMPDEST SWAP1 PUSH1 0x0 MSTORE PUSH1 0x20 PUSH1 0x0 KECCAK256 ADD SLOAD SWAP1 POP SWAP3 SWAP2 POP POP JUMP JUMPDEST PUSH1 0x0 DUP2 DUP2 MSTORE PUSH1 0x1 DUP4 ADD PUSH1 0x20 MSTORE PUSH1 0x40 DUP2 KECCAK256 SLOAD PUSH2 0x1A00 JUMPI POP DUP2 SLOAD PUSH1 0x1 DUP2 DUP2 ADD DUP5 SSTORE PUSH1 0x0 DUP5 DUP2 MSTORE PUSH1 0x20 DUP1 DUP3 KECCAK256 SWAP1 SWAP4 ADD DUP5 SWAP1 SSTORE DUP5 SLOAD DUP5 DUP3 MSTORE DUP3 DUP7 ADD SWAP1 SWAP4 MSTORE PUSH1 0x40 SWAP1 KECCAK256 SWAP2 SWAP1 SWAP2 SSTORE PUSH2 0xB02 JUMP JUMPDEST POP PUSH1 0x0 PUSH2 0xB02 JUMP JUMPDEST PUSH1 0x60 DUP2 PUSH1 0x0 ADD DUP1 SLOAD DUP1 PUSH1 0x20 MUL PUSH1 0x20 ADD PUSH1 0x40 MLOAD SWAP1 DUP2 ADD PUSH1 0x40 MSTORE DUP1 SWAP3 SWAP2 SWAP1 DUP2 DUP2 MSTORE PUSH1 0x20 ADD DUP3 DUP1 SLOAD DUP1 ISZERO PUSH2 0x1A58 JUMPI PUSH1 0x20 MUL DUP3 ADD SWAP2 SWAP1 PUSH1 0x0 MSTORE PUSH1 0x20 PUSH1 0x0 KECCAK256 SWAP1 JUMPDEST DUP2 SLOAD DUP2 MSTORE PUSH1 0x20 ADD SWAP1 PUSH1 0x1 ADD SWAP1 DUP1 DUP4 GT PUSH2 0x1A44 JUMPI JUMPDEST POP POP POP POP POP SWAP1 POP SWAP2 SWAP1 POP JUMP JUMPDEST PUSH1 0x1 PUSH1 0x1 PUSH1 0xA0 SHL SUB DUP2 AND DUP2 EQ PUSH2 0x153C JUMPI PUSH1 0x0 DUP1 REVERT JUMPDEST PUSH1 0x0 DUP1 PUSH1 0x0 DUP1 PUSH1 0x60 DUP6 DUP8 SUB SLT ISZERO PUSH2 0x1A8F JUMPI PUSH1 0x0 DUP1 REVERT JUMPDEST DUP5 CALLDATALOAD PUSH2 0x1A9A DUP2 PUSH2 0x1A64 JUMP JUMPDEST SWAP4 POP PUSH1 0x20 DUP6 ADD CALLDATALOAD PUSH8 0xFFFFFFFFFFFFFFFF DUP1 DUP3 GT ISZERO PUSH2 0x1AB7 JUMPI PUSH1 0x0 DUP1 REVERT JUMPDEST DUP2 DUP8 ADD SWAP2 POP DUP8 PUSH1 0x1F DUP4 ADD SLT PUSH2 0x1ACB JUMPI PUSH1 0x0 DUP1 REVERT JUMPDEST DUP2 CALLDATALOAD DUP2 DUP2 GT ISZERO PUSH2 0x1ADA JUMPI PUSH1 0x0 DUP1 REVERT JUMPDEST DUP9 PUSH1 0x20 DUP3 PUSH1 0x5 SHL DUP6 ADD ADD GT ISZERO PUSH2 0x1AEF JUMPI PUSH1 0x0 DUP1 REVERT JUMPDEST SWAP6 SWAP9 PUSH1 0x20 SWAP3 SWAP1 SWAP3 ADD SWAP8 POP SWAP5 SWAP6 PUSH1 0x40 ADD CALLDATALOAD SWAP5 POP SWAP3 POP POP POP JUMP JUMPDEST PUSH1 0x0 PUSH1 0x20 DUP3 DUP5 SUB SLT ISZERO PUSH2 0x1B19 JUMPI PUSH1 0x0 DUP1 REVERT JUMPDEST POP CALLDATALOAD SWAP2 SWAP1 POP JUMP JUMPDEST PUSH1 0x0 PUSH1 0x20 DUP3 DUP5 SUB SLT ISZERO PUSH2 0x1B32 JUMPI PUSH1 0x0 DUP1 REVERT JUMPDEST DUP2 CALLDATALOAD PUSH2 0x1688 DUP2 PUSH2 0x1A64 JUMP JUMPDEST PUSH4 0x4E487B71 PUSH1 0xE0 SHL PUSH1 0x0 MSTORE PUSH1 0x41 PUSH1 0x4 MSTORE PUSH1 0x24 PUSH1 0x0 REVERT JUMPDEST PUSH1 0x40 MLOAD PUSH2 0x160 DUP2 ADD PUSH8 0xFFFFFFFFFFFFFFFF DUP2 GT DUP3 DUP3 LT OR ISZERO PUSH2 0x1B77 JUMPI PUSH2 0x1B77 PUSH2 0x1B3D JUMP JUMPDEST PUSH1 0x40 MSTORE SWAP1 JUMP JUMPDEST PUSH1 0x40 MLOAD PUSH1 0x1F DUP3 ADD PUSH1 0x1F NOT AND DUP2 ADD PUSH8 0xFFFFFFFFFFFFFFFF DUP2 GT DUP3 DUP3 LT OR ISZERO PUSH2 0x1BA6 JUMPI PUSH2 0x1BA6 PUSH2 0x1B3D JUMP JUMPDEST PUSH1 0x40 MSTORE SWAP2 SWAP1 POP JUMP JUMPDEST PUSH1 0x0 DUP3 PUSH1 0x1F DUP4 ADD SLT PUSH2 0x1BBF JUMPI PUSH1 0x0 DUP1 REVERT JUMPDEST DUP2 CALLDATALOAD PUSH8 0xFFFFFFFFFFFFFFFF DUP2 GT ISZERO PUSH2 0x1BD9 JUMPI PUSH2 0x1BD9 PUSH2 0x1B3D JUMP JUMPDEST PUSH2 0x1BEC PUSH1 0x1F DUP3 ADD PUSH1 0x1F NOT AND PUSH1 0x20 ADD PUSH2 0x1B7D JUMP JUMPDEST DUP2 DUP2 MSTORE DUP5 PUSH1 0x20 DUP4 DUP7 ADD ADD GT ISZERO PUSH2 0x1C01 JUMPI PUSH1 0x0 DUP1 REVERT JUMPDEST DUP2 PUSH1 0x20 DUP6 ADD PUSH1 0x20 DUP4 ADD CALLDATACOPY PUSH1 0x0 SWAP2 DUP2 ADD PUSH1 0x20 ADD SWAP2 SWAP1 SWAP2 MSTORE SWAP4 SWAP3 POP POP POP JUMP JUMPDEST PUSH1 0x0 PUSH8 0xFFFFFFFFFFFFFFFF DUP3 GT ISZERO PUSH2 0x1C38 JUMPI PUSH2 0x1C38 PUSH2 0x1B3D JUMP JUMPDEST POP PUSH1 0x5 SHL PUSH1 0x20 ADD SWAP1 JUMP JUMPDEST PUSH1 0x0 DUP3 PUSH1 0x1F DUP4 ADD SLT PUSH2 0x1C53 JUMPI PUSH1 0x0 DUP1 REVERT JUMPDEST DUP2 CALLDATALOAD PUSH1 0x20 PUSH2 0x1C68 PUSH2 0x1C63 DUP4 PUSH2 0x1C1E JUMP JUMPDEST PUSH2 0x1B7D JUMP JUMPDEST DUP3 DUP2 MSTORE PUSH1 0x5 SWAP3 SWAP1 SWAP3 SHL DUP5 ADD DUP2 ADD SWAP2 DUP2 DUP2 ADD SWAP1 DUP7 DUP5 GT ISZERO PUSH2 0x1C87 JUMPI PUSH1 0x0 DUP1 REVERT JUMPDEST DUP3 DUP7 ADD JUMPDEST DUP5 DUP2 LT ISZERO PUSH2 0x1CAB JUMPI DUP1 CALLDATALOAD PUSH2 0x1C9E DUP2 PUSH2 0x1A64 JUMP JUMPDEST DUP4 MSTORE SWAP2 DUP4 ADD SWAP2 DUP4 ADD PUSH2 0x1C8B JUMP JUMPDEST POP SWAP7 SWAP6 POP POP POP POP POP POP JUMP JUMPDEST PUSH1 0x0 DUP3 PUSH1 0x1F DUP4 ADD SLT PUSH2 0x1CC7 JUMPI PUSH1 0x0 DUP1 REVERT JUMPDEST DUP2 CALLDATALOAD PUSH1 0x20 PUSH2 0x1CD7 PUSH2 0x1C63 DUP4 PUSH2 0x1C1E JUMP JUMPDEST DUP3 DUP2 MSTORE PUSH1 0x5 SWAP3 SWAP1 SWAP3 SHL DUP5 ADD DUP2 ADD SWAP2 DUP2 DUP2 ADD SWAP1 DUP7 DUP5 GT ISZERO PUSH2 0x1CF6 JUMPI PUSH1 0x0 DUP1 REVERT JUMPDEST DUP3 DUP7 ADD JUMPDEST DUP5 DUP2 LT ISZERO PUSH2 0x1CAB JUMPI DUP1 CALLDATALOAD DUP4 MSTORE SWAP2 DUP4 ADD SWAP2 DUP4 ADD PUSH2 0x1CFA JUMP JUMPDEST DUP1 ISZERO ISZERO DUP2 EQ PUSH2 0x153C JUMPI PUSH1 0x0 DUP1 REVERT JUMPDEST DUP1 CALLDATALOAD PUSH2 0x1D2A DUP2 PUSH2 0x1D11 JUMP JUMPDEST SWAP2 SWAP1 POP JUMP JUMPDEST PUSH1 0x0 PUSH1 0x20 DUP3 DUP5 SUB SLT ISZERO PUSH2 0x1D41 JUMPI PUSH1 0x0 DUP1 REVERT JUMPDEST DUP2 CALLDATALOAD PUSH8 0xFFFFFFFFFFFFFFFF DUP1 DUP3 GT ISZERO PUSH2 0x1D59 JUMPI PUSH1 0x0 DUP1 REVERT JUMPDEST SWAP1 DUP4 ADD SWAP1 PUSH2 0x160 DUP3 DUP7 SUB SLT ISZERO PUSH2 0x1D6E JUMPI PUSH1 0x0 DUP1 REVERT JUMPDEST PUSH2 0x1D76 PUSH2 0x1B53 JUMP JUMPDEST DUP3 CALLDATALOAD DUP3 DUP2 GT ISZERO PUSH2 0x1D85 JUMPI PUSH1 0x0 DUP1 REVERT JUMPDEST PUSH2 0x1D91 DUP8 DUP3 DUP7 ADD PUSH2 0x1BAE JUMP JUMPDEST DUP3 MSTORE POP PUSH1 0x20 DUP4 ADD CALLDATALOAD DUP3 DUP2 GT ISZERO PUSH2 0x1DA6 JUMPI PUSH1 0x0 DUP1 REVERT JUMPDEST PUSH2 0x1DB2 DUP8 DUP3 DUP7 ADD PUSH2 0x1BAE JUMP JUMPDEST PUSH1 0x20 DUP4 ADD MSTORE POP PUSH1 0x40 DUP4 ADD CALLDATALOAD DUP3 DUP2 GT ISZERO PUSH2 0x1DCA JUMPI PUSH1 0x0 DUP1 REVERT JUMPDEST PUSH2 0x1DD6 DUP8 DUP3 DUP7 ADD PUSH2 0x1C42 JUMP JUMPDEST PUSH1 0x40 DUP4 ADD MSTORE POP PUSH1 0x60 DUP4 ADD CALLDATALOAD DUP3 DUP2 GT ISZERO PUSH2 0x1DEE JUMPI PUSH1 0x0 DUP1 REVERT JUMPDEST PUSH2 0x1DFA DUP8 DUP3 DUP7 ADD PUSH2 0x1CB6 JUMP JUMPDEST PUSH1 0x60 DUP4 ADD MSTORE POP PUSH1 0x80 DUP4 ADD CALLDATALOAD DUP3 DUP2 GT ISZERO PUSH2 0x1E12 JUMPI PUSH1 0x0 DUP1 REVERT JUMPDEST PUSH2 0x1E1E DUP8 DUP3 DUP7 ADD PUSH2 0x1CB6 JUMP JUMPDEST PUSH1 0x80 DUP4 ADD MSTORE POP PUSH1 0xA0 DUP4 ADD CALLDATALOAD DUP3 DUP2 GT ISZERO PUSH2 0x1E36 JUMPI PUSH1 0x0 DUP1 REVERT JUMPDEST PUSH2 0x1E42 DUP8 DUP3 DUP7 ADD PUSH2 0x1CB6 JUMP JUMPDEST PUSH1 0xA0 DUP4 ADD MSTORE POP PUSH2 0x1E54 PUSH1 0xC0 DUP5 ADD PUSH2 0x1D1F JUMP JUMPDEST PUSH1 0xC0 DUP3 ADD MSTORE PUSH1 0xE0 DUP4 ADD CALLDATALOAD PUSH1 0xE0 DUP3 ADD MSTORE PUSH2 0x100 DUP1 DUP5 ADD CALLDATALOAD DUP4 DUP2 GT ISZERO PUSH2 0x1E77 JUMPI PUSH1 0x0 DUP1 REVERT JUMPDEST PUSH2 0x1E83 DUP9 DUP3 DUP8 ADD PUSH2 0x1BAE JUMP JUMPDEST SWAP2 DUP4 ADD SWAP2 SWAP1 SWAP2 MSTORE POP PUSH2 0x120 DUP4 DUP2 ADD CALLDATALOAD SWAP1 DUP3 ADD MSTORE PUSH2 0x140 SWAP3 DUP4 ADD CALLDATALOAD SWAP3 DUP2 ADD SWAP3 SWAP1 SWAP3 MSTORE POP SWAP4 SWAP3 POP POP POP JUMP JUMPDEST PUSH1 0x0 DUP1 PUSH1 0x40 DUP4 DUP6 SUB SLT ISZERO PUSH2 0x1EBF JUMPI PUSH1 0x0 DUP1 REVERT JUMPDEST DUP3 CALLDATALOAD PUSH2 0x1ECA DUP2 PUSH2 0x1A64 JUMP JUMPDEST SWAP2 POP PUSH1 0x20 DUP4 ADD CALLDATALOAD PUSH2 0x1EDA DUP2 PUSH2 0x1D11 JUMP JUMPDEST DUP1 SWAP2 POP POP SWAP3 POP SWAP3 SWAP1 POP JUMP JUMPDEST PUSH1 0x0 DUP2 MLOAD DUP1 DUP5 MSTORE PUSH1 0x20 DUP1 DUP6 ADD SWAP5 POP DUP1 DUP5 ADD PUSH1 0x0 JUMPDEST DUP4 DUP2 LT ISZERO PUSH2 0x1F1E JUMPI DUP2 MLOAD PUSH1 0x1 PUSH1 0x1 PUSH1 0xA0 SHL SUB AND DUP8 MSTORE SWAP6 DUP3 ADD SWAP6 SWAP1 DUP3 ADD SWAP1 PUSH1 0x1 ADD PUSH2 0x1EF9 JUMP JUMPDEST POP SWAP5 SWAP6 SWAP5 POP POP POP POP POP JUMP JUMPDEST PUSH1 0x20 DUP2 MSTORE PUSH1 0x0 PUSH2 0x1688 PUSH1 0x20 DUP4 ADD DUP5 PUSH2 0x1EE5 JUMP JUMPDEST PUSH1 0x0 DUP1 PUSH1 0x40 DUP4 DUP6 SUB SLT ISZERO PUSH2 0x1F4F JUMPI PUSH1 0x0 DUP1 REVERT JUMPDEST DUP3 CALLDATALOAD PUSH2 0x1F5A DUP2 PUSH2 0x1A64 JUMP JUMPDEST SWAP2 POP PUSH1 0x20 DUP4 ADD CALLDATALOAD PUSH2 0x1EDA DUP2 PUSH2 0x1A64 JUMP JUMPDEST PUSH1 0x20 DUP1 DUP3 MSTORE PUSH1 0x6 SWAP1 DUP3 ADD MSTORE PUSH6 0x10B7BBB732B9 PUSH1 0xD1 SHL PUSH1 0x40 DUP3 ADD MSTORE PUSH1 0x60 ADD SWAP1 JUMP JUMPDEST PUSH1 0x0 PUSH1 0x20 DUP3 DUP5 SUB SLT ISZERO PUSH2 0x1F9C JUMPI PUSH1 0x0 DUP1 REVERT JUMPDEST POP MLOAD SWAP2 SWAP1 POP JUMP JUMPDEST PUSH1 0x0 DUP3 PUSH1 0x1F DUP4 ADD SLT PUSH2 0x1FB4 JUMPI PUSH1 0x0 DUP1 REVERT JUMPDEST DUP2 MLOAD PUSH1 0x20 PUSH2 0x1FC4 PUSH2 0x1C63 DUP4 PUSH2 0x1C1E JUMP JUMPDEST DUP3 DUP2 MSTORE PUSH1 0x5 SWAP3 SWAP1 SWAP3 SHL DUP5 ADD DUP2 ADD SWAP2 DUP2 DUP2 ADD SWAP1 DUP7 DUP5 GT ISZERO PUSH2 0x1FE3 JUMPI PUSH1 0x0 DUP1 REVERT JUMPDEST DUP3 DUP7 ADD JUMPDEST DUP5 DUP2 LT ISZERO PUSH2 0x1CAB JUMPI DUP1 MLOAD DUP4 MSTORE SWAP2 DUP4 ADD SWAP2 DUP4 ADD PUSH2 0x1FE7 JUMP JUMPDEST PUSH1 0x0 DUP1 PUSH1 0x0 PUSH1 0x60 DUP5 DUP7 SUB SLT ISZERO PUSH2 0x2013 JUMPI PUSH1 0x0 DUP1 REVERT JUMPDEST DUP4 MLOAD PUSH8 0xFFFFFFFFFFFFFFFF DUP1 DUP3 GT ISZERO PUSH2 0x202B JUMPI PUSH1 0x0 DUP1 REVERT JUMPDEST DUP2 DUP7 ADD SWAP2 POP DUP7 PUSH1 0x1F DUP4 ADD SLT PUSH2 0x203F JUMPI PUSH1 0x0 DUP1 REVERT JUMPDEST DUP2 MLOAD PUSH1 0x20 PUSH2 0x204F PUSH2 0x1C63 DUP4 PUSH2 0x1C1E JUMP JUMPDEST DUP3 DUP2 MSTORE PUSH1 0x5 SWAP3 SWAP1 SWAP3 SHL DUP5 ADD DUP2 ADD SWAP2 DUP2 DUP2 ADD SWAP1 DUP11 DUP5 GT ISZERO PUSH2 0x206E JUMPI PUSH1 0x0 DUP1 REVERT JUMPDEST SWAP5 DUP3 ADD SWAP5 JUMPDEST DUP4 DUP7 LT ISZERO PUSH2 0x2095 JUMPI DUP6 MLOAD PUSH2 0x2086 DUP2 PUSH2 0x1A64 JUMP JUMPDEST DUP3 MSTORE SWAP5 DUP3 ADD SWAP5 SWAP1 DUP3 ADD SWAP1 PUSH2 0x2073 JUMP JUMPDEST SWAP2 DUP10 ADD MLOAD SWAP2 SWAP8 POP SWAP1 SWAP4 POP POP POP DUP1 DUP3 GT ISZERO PUSH2 0x20AE JUMPI PUSH1 0x0 DUP1 REVERT JUMPDEST POP PUSH2 0x20BB DUP7 DUP3 DUP8 ADD PUSH2 0x1FA3 JUMP JUMPDEST SWAP3 POP POP PUSH1 0x40 DUP5 ADD MLOAD SWAP1 POP SWAP3 POP SWAP3 POP SWAP3 JUMP JUMPDEST PUSH1 0x40 DUP2 ADD PUSH1 0x3 DUP5 LT PUSH2 0x20EE JUMPI PUSH4 0x4E487B71 PUSH1 0xE0 SHL PUSH1 0x0 MSTORE PUSH1 0x21 PUSH1 0x4 MSTORE PUSH1 0x24 PUSH1 0x0 REVERT JUMPDEST SWAP3 DUP2 MSTORE PUSH1 0x20 ADD MSTORE SWAP1 JUMP JUMPDEST PUSH1 0x0 DUP2 MLOAD DUP1 DUP5 MSTORE PUSH1 0x20 DUP1 DUP6 ADD SWAP5 POP DUP1 DUP5 ADD PUSH1 0x0 JUMPDEST DUP4 DUP2 LT ISZERO PUSH2 0x1F1E JUMPI DUP2 MLOAD DUP8 MSTORE SWAP6 DUP3 ADD SWAP6 SWAP1 DUP3 ADD SWAP1 PUSH1 0x1 ADD PUSH2 0x210C JUMP JUMPDEST PUSH1 0x0 JUMPDEST DUP4 DUP2 LT ISZERO PUSH2 0x2143 JUMPI DUP2 DUP2 ADD MLOAD DUP4 DUP3 ADD MSTORE PUSH1 0x20 ADD PUSH2 0x212B JUMP JUMPDEST DUP4 DUP2 GT ISZERO PUSH2 0x2152 JUMPI PUSH1 0x0 DUP5 DUP5 ADD MSTORE JUMPDEST POP POP POP POP JUMP JUMPDEST PUSH1 0x0 DUP2 MLOAD DUP1 DUP5 MSTORE PUSH2 0x2170 DUP2 PUSH1 0x20 DUP7 ADD PUSH1 0x20 DUP7 ADD PUSH2 0x2128 JUMP JUMPDEST PUSH1 0x1F ADD PUSH1 0x1F NOT AND SWAP3 SWAP1 SWAP3 ADD PUSH1 0x20 ADD SWAP3 SWAP2 POP POP JUMP JUMPDEST DUP1 MLOAD PUSH1 0x80 DUP1 DUP5 MSTORE DUP2 MLOAD SWAP1 DUP5 ADD DUP2 SWAP1 MSTORE PUSH1 0x0 SWAP2 PUSH1 0x20 SWAP2 SWAP1 DUP3 ADD SWAP1 PUSH1 0xA0 DUP7 ADD SWAP1 DUP5 JUMPDEST DUP2 DUP2 LT ISZERO PUSH2 0x21C9 JUMPI DUP4 MLOAD PUSH1 0x1 PUSH1 0x1 PUSH1 0xA0 SHL SUB AND DUP4 MSTORE SWAP3 DUP5 ADD SWAP3 SWAP2 DUP5 ADD SWAP2 PUSH1 0x1 ADD PUSH2 0x21A4 JUMP JUMPDEST POP POP DUP3 DUP6 ADD MLOAD SWAP2 POP DUP6 DUP2 SUB DUP4 DUP8 ADD MSTORE PUSH2 0x21E2 DUP2 DUP4 PUSH2 0x20F8 JUMP JUMPDEST SWAP3 POP POP POP PUSH1 0x40 DUP4 ADD MLOAD DUP5 DUP3 SUB PUSH1 0x40 DUP7 ADD MSTORE PUSH2 0x21FD DUP3 DUP3 PUSH2 0x2158 JUMP JUMPDEST SWAP2 POP POP PUSH1 0x60 DUP4 ADD MLOAD PUSH2 0x2213 PUSH1 0x60 DUP7 ADD DUP3 ISZERO ISZERO SWAP1 MSTORE JUMP JUMPDEST POP SWAP4 SWAP3 POP POP POP JUMP JUMPDEST DUP5 DUP2 MSTORE PUSH1 0x1 PUSH1 0x1 PUSH1 0xA0 SHL SUB DUP5 DUP2 AND PUSH1 0x20 DUP4 ADD MSTORE DUP4 AND PUSH1 0x40 DUP3 ADD MSTORE PUSH1 0x80 PUSH1 0x60 DUP3 ADD DUP2 SWAP1 MSTORE PUSH1 0x0 SWAP1 PUSH2 0x224D SWAP1 DUP4 ADD DUP5 PUSH2 0x2184 JUMP JUMPDEST SWAP7 SWAP6 POP POP POP POP POP POP JUMP JUMPDEST PUSH1 0x60 DUP2 MSTORE PUSH1 0x0 PUSH2 0x226A PUSH1 0x60 DUP4 ADD DUP8 PUSH2 0x1EE5 JUMP JUMPDEST DUP3 DUP2 SUB PUSH1 0x20 DUP5 ADD MSTORE DUP5 DUP2 MSTORE PUSH1 0x1 PUSH1 0x1 PUSH1 0xFB SHL SUB DUP6 GT ISZERO PUSH2 0x2289 JUMPI PUSH1 0x0 DUP1 REVERT JUMPDEST DUP5 PUSH1 0x5 SHL DUP1 DUP8 PUSH1 0x20 DUP5 ADD CALLDATACOPY DUP1 DUP3 ADD SWAP2 POP POP PUSH1 0x20 DUP2 ADD PUSH1 0x0 DUP2 MSTORE PUSH1 0x20 DUP5 DUP4 SUB ADD PUSH1 0x40 DUP6 ADD MSTORE PUSH2 0x22B7 DUP2 DUP7 PUSH2 0x2158 JUMP JUMPDEST SWAP9 SWAP8 POP POP POP POP POP POP POP POP JUMP JUMPDEST PUSH4 0x4E487B71 PUSH1 0xE0 SHL PUSH1 0x0 MSTORE PUSH1 0x32 PUSH1 0x4 MSTORE PUSH1 0x24 PUSH1 0x0 REVERT JUMPDEST PUSH4 0x4E487B71 PUSH1 0xE0 SHL PUSH1 0x0 MSTORE PUSH1 0x11 PUSH1 0x4 MSTORE PUSH1 0x24 PUSH1 0x0 REVERT JUMPDEST PUSH1 0x0 DUP3 DUP3 LT ISZERO PUSH2 0x2301 JUMPI PUSH2 0x2301 PUSH2 0x22D9 JUMP JUMPDEST POP SUB SWAP1 JUMP JUMPDEST PUSH1 0x0 DUP2 PUSH1 0x0 NOT DIV DUP4 GT DUP3 ISZERO ISZERO AND ISZERO PUSH2 0x2320 JUMPI PUSH2 0x2320 PUSH2 0x22D9 JUMP JUMPDEST POP MUL SWAP1 JUMP JUMPDEST PUSH1 0x0 DUP3 PUSH2 0x2342 JUMPI PUSH4 0x4E487B71 PUSH1 0xE0 SHL PUSH1 0x0 MSTORE PUSH1 0x12 PUSH1 0x4 MSTORE PUSH1 0x24 PUSH1 0x0 REVERT JUMPDEST POP DIV SWAP1 JUMP JUMPDEST PUSH1 0x1 PUSH1 0x1 PUSH1 0xA0 SHL SUB SWAP4 DUP5 AND DUP2 MSTORE SWAP2 SWAP1 SWAP3 AND PUSH1 0x20 DUP3 ADD MSTORE PUSH1 0x40 DUP2 ADD SWAP2 SWAP1 SWAP2 MSTORE PUSH1 0x60 ADD SWAP1 JUMP JUMPDEST PUSH1 0x20 DUP1 DUP3 MSTORE DUP2 DUP2 ADD MSTORE PUSH32 0x4F776E61626C653A2063616C6C6572206973206E6F7420746865206F776E6572 PUSH1 0x40 DUP3 ADD MSTORE PUSH1 0x60 ADD SWAP1 JUMP JUMPDEST PUSH1 0xE0 DUP2 MSTORE PUSH1 0x0 PUSH2 0x23B3 PUSH1 0xE0 DUP4 ADD DUP11 PUSH2 0x2158 JUMP JUMPDEST DUP3 DUP2 SUB PUSH1 0x20 DUP5 ADD MSTORE PUSH2 0x23C5 DUP2 DUP11 PUSH2 0x2158 JUMP JUMPDEST SWAP1 POP DUP3 DUP2 SUB PUSH1 0x40 DUP5 ADD MSTORE PUSH2 0x23D9 DUP2 DUP10 PUSH2 0x1EE5 JUMP JUMPDEST SWAP1 POP DUP3 DUP2 SUB PUSH1 0x60 DUP5 ADD MSTORE PUSH2 0x23ED DUP2 DUP9 PUSH2 0x20F8 JUMP JUMPDEST PUSH1 0x80 DUP5 ADD SWAP7 SWAP1 SWAP7 MSTORE POP POP PUSH1 0x1 PUSH1 0x1 PUSH1 0xA0 SHL SUB SWAP3 SWAP1 SWAP3 AND PUSH1 0xA0 DUP4 ADD MSTORE ISZERO ISZERO PUSH1 0xC0 SWAP1 SWAP2 ADD MSTORE SWAP5 SWAP4 POP POP POP POP JUMP JUMPDEST PUSH1 0x0 PUSH1 0x20 DUP3 DUP5 SUB SLT ISZERO PUSH2 0x242A JUMPI PUSH1 0x0 DUP1 REVERT JUMPDEST DUP2 MLOAD PUSH2 0x1688 DUP2 PUSH2 0x1A64 JUMP JUMPDEST PUSH1 0x0 PUSH2 0x100 DUP11 DUP4 MSTORE DUP1 PUSH1 0x20 DUP5 ADD MSTORE PUSH2 0x244F DUP2 DUP5 ADD DUP12 PUSH2 0x2158 JUMP JUMPDEST SWAP1 POP DUP3 DUP2 SUB PUSH1 0x40 DUP5 ADD MSTORE PUSH2 0x2463 DUP2 DUP11 PUSH2 0x2158 JUMP JUMPDEST SWAP1 POP DUP3 DUP2 SUB PUSH1 0x60 DUP5 ADD MSTORE PUSH2 0x2477 DUP2 DUP10 PUSH2 0x1EE5 JUMP JUMPDEST SWAP1 POP DUP3 DUP2 SUB PUSH1 0x80 DUP5 ADD MSTORE PUSH2 0x248B DUP2 DUP9 PUSH2 0x20F8 JUMP JUMPDEST PUSH1 0xA0 DUP5 ADD SWAP7 SWAP1 SWAP7 MSTORE POP POP PUSH1 0x1 PUSH1 0x1 PUSH1 0xA0 SHL SUB SWAP3 SWAP1 SWAP3 AND PUSH1 0xC0 DUP4 ADD MSTORE ISZERO ISZERO PUSH1 0xE0 SWAP1 SWAP2 ADD MSTORE SWAP6 SWAP5 POP POP POP POP POP JUMP JUMPDEST PUSH1 0x60 DUP2 MSTORE PUSH1 0x0 PUSH2 0x24CA PUSH1 0x60 DUP4 ADD DUP7 PUSH2 0x1EE5 JUMP JUMPDEST DUP3 DUP2 SUB PUSH1 0x20 DUP5 ADD MSTORE PUSH2 0x24DC DUP2 DUP7 PUSH2 0x20F8 JUMP JUMPDEST SWAP1 POP DUP3 DUP2 SUB PUSH1 0x40 DUP5 ADD MSTORE PUSH2 0x224D DUP2 DUP6 PUSH2 0x2158 JUMP JUMPDEST DUP4 DUP2 MSTORE DUP3 PUSH1 0x20 DUP3 ADD MSTORE PUSH1 0x60 PUSH1 0x40 DUP3 ADD MSTORE PUSH1 0x0 PUSH2 0x250F PUSH1 0x60 DUP4 ADD DUP5 PUSH2 0x20F8 JUMP JUMPDEST SWAP6 SWAP5 POP POP POP POP POP JUMP JUMPDEST PUSH1 0x0 DUP3 MLOAD PUSH2 0x252A DUP2 DUP5 PUSH1 0x20 DUP8 ADD PUSH2 0x2128 JUMP JUMPDEST SWAP2 SWAP1 SWAP2 ADD SWAP3 SWAP2 POP POP JUMP JUMPDEST PUSH1 0x0 PUSH1 0x20 DUP3 DUP5 SUB SLT ISZERO PUSH2 0x2546 JUMPI PUSH1 0x0 DUP1 REVERT JUMPDEST DUP2 MLOAD PUSH2 0x1688 DUP2 PUSH2 0x1D11 JUMP INVALID LOG2 PUSH5 0x6970667358 0x22 SLT KECCAK256 DUP13 DUP1 0x26 0xD1 0xB9 SMOD 0xD0 0x29 0xDF 0xE6 SWAP6 SIGNEXTEND PUSH4 0x11177149 SWAP1 SAR SIGNEXTEND 0xC5 0xB8 BYTE 0xE1 SHR DUP1 PUSH6 0x169353D9BB64 PUSH20 0x6F6C634300080A00330000000000000000000000 "
				},
				"gasEstimates": {
					"creation": {
						"codeDepositCost": "1921400",
						"executionCost": "infinite",
						"totalCost": "infinite"
					},
					"external": {
						"VAULT()": "250",
						"_LBPFactoryAddress()": "infinite",
						"_feeBPS()": "infinite",
						"_feeRecipient()": "2348",
						"changeFeeRecipient(address)": "28078",
						"createAuction((string,string,address[],uint256[],uint256[],uint256[],bool,uint256,bytes,uint256,uint256))": "infinite",
						"exitPool(address,uint256[],uint256)": "infinite",
						"getBPTTokenBalance(address)": "infinite",
						"getPoolAt(uint256)": "4751",
						"getPoolData(address)": "5028",
						"getPools()": "infinite",
						"isPool(address)": "infinite",
						"owner()": "2409",
						"poolCount()": "2480",
						"renounceOwnership()": "28181",
						"setSwapEnabled(address,bool)": "infinite",
						"skim(address,address)": "infinite",
						"transferOwnership(address)": "infinite",
						"transferPoolOwnership(address,address)": "infinite"
					}
				},
				"methodIdentifiers": {
					"VAULT()": "411557d1",
					"_LBPFactoryAddress()": "01b1aff6",
					"_feeBPS()": "9c37ebb6",
					"_feeRecipient()": "a342f238",
					"changeFeeRecipient(address)": "23604071",
					"createAuction((string,string,address[],uint256[],uint256[],uint256[],bool,uint256,bytes,uint256,uint256))": "46cf3e6e",
					"exitPool(address,uint256[],uint256)": "0563cd7c",
					"getBPTTokenBalance(address)": "cac626bb",
					"getPoolAt(uint256)": "05ea2183",
					"getPoolData(address)": "13d21cdf",
					"getPools()": "673a2a1f",
					"isPool(address)": "5b16ebb7",
					"owner()": "8da5cb5b",
					"poolCount()": "f525cb68",
					"renounceOwnership()": "715018a6",
					"setSwapEnabled(address,bool)": "51d48cea",
					"skim(address,address)": "712b772f",
					"transferOwnership(address)": "f2fde38b",
					"transferPoolOwnership(address,address)": "ee9ee0e4"
				}
			},
			"storageLayout": {
				"storage": [
					{
						"astId": 861,
						"contract": "contracts/CooperProxy.sol:CopperProxy",
						"label": "_owner",
						"offset": 0,
						"slot": "0",
						"type": "t_address"
					},
					{
						"astId": 1080,
						"contract": "contracts/CooperProxy.sol:CopperProxy",
						"label": "_poolData",
						"offset": 0,
						"slot": "1",
						"type": "t_mapping(t_address,t_struct(PoolData)1075_storage)"
					},
					{
						"astId": 1083,
						"contract": "contracts/CooperProxy.sol:CopperProxy",
						"label": "_pools",
						"offset": 0,
						"slot": "2",
						"type": "t_struct(AddressSet)547_storage"
					},
					{
						"astId": 1095,
						"contract": "contracts/CooperProxy.sol:CopperProxy",
						"label": "_feeRecipient",
						"offset": 0,
						"slot": "4",
						"type": "t_address"
					}
				],
				"types": {
					"t_address": {
						"encoding": "inplace",
						"label": "address",
						"numberOfBytes": "20"
					},
					"t_array(t_bytes32)dyn_storage": {
						"base": "t_bytes32",
						"encoding": "dynamic_array",
						"label": "bytes32[]",
						"numberOfBytes": "32"
					},
					"t_bool": {
						"encoding": "inplace",
						"label": "bool",
						"numberOfBytes": "1"
					},
					"t_bytes32": {
						"encoding": "inplace",
						"label": "bytes32",
						"numberOfBytes": "32"
					},
					"t_mapping(t_address,t_struct(PoolData)1075_storage)": {
						"encoding": "mapping",
						"key": "t_address",
						"label": "mapping(address => struct CopperProxy.PoolData)",
						"numberOfBytes": "32",
						"value": "t_struct(PoolData)1075_storage"
					},
					"t_mapping(t_bytes32,t_uint256)": {
						"encoding": "mapping",
						"key": "t_bytes32",
						"label": "mapping(bytes32 => uint256)",
						"numberOfBytes": "32",
						"value": "t_uint256"
					},
					"t_struct(AddressSet)547_storage": {
						"encoding": "inplace",
						"label": "struct EnumerableSet.AddressSet",
						"members": [
							{
								"astId": 546,
								"contract": "contracts/CooperProxy.sol:CopperProxy",
								"label": "_inner",
								"offset": 0,
								"slot": "0",
								"type": "t_struct(Set)246_storage"
							}
						],
						"numberOfBytes": "64"
					},
					"t_struct(PoolData)1075_storage": {
						"encoding": "inplace",
						"label": "struct CopperProxy.PoolData",
						"members": [
							{
								"astId": 1070,
								"contract": "contracts/CooperProxy.sol:CopperProxy",
								"label": "owner",
								"offset": 0,
								"slot": "0",
								"type": "t_address"
							},
							{
								"astId": 1072,
								"contract": "contracts/CooperProxy.sol:CopperProxy",
								"label": "isCorrectOrder",
								"offset": 20,
								"slot": "0",
								"type": "t_bool"
							},
							{
								"astId": 1074,
								"contract": "contracts/CooperProxy.sol:CopperProxy",
								"label": "fundTokenInputAmount",
								"offset": 0,
								"slot": "1",
								"type": "t_uint256"
							}
						],
						"numberOfBytes": "64"
					},
					"t_struct(Set)246_storage": {
						"encoding": "inplace",
						"label": "struct EnumerableSet.Set",
						"members": [
							{
								"astId": 241,
								"contract": "contracts/CooperProxy.sol:CopperProxy",
								"label": "_values",
								"offset": 0,
								"slot": "0",
								"type": "t_array(t_bytes32)dyn_storage"
							},
							{
								"astId": 245,
								"contract": "contracts/CooperProxy.sol:CopperProxy",
								"label": "_indexes",
								"offset": 0,
								"slot": "1",
								"type": "t_mapping(t_bytes32,t_uint256)"
							}
						],
						"numberOfBytes": "64"
					},
					"t_uint256": {
						"encoding": "inplace",
						"label": "uint256",
						"numberOfBytes": "32"
					}
				}
			},
			"userdoc": {
				"kind": "user",
				"methods": {
					"exitPool(address,uint256[],uint256)": {
						"notice": "Exit a pool, burn the BPT token and transfer back the tokens. If maxBPTTokenOut is passed as 0, the function will use the total balance available for the BPT token. If maxBPTTokenOut is between 0 and the total of BPT available, that will be the amount used to burn. maxBPTTokenOut must be grader or equal than 0"
					}
				},
				"notice": "This contract allows for simplified creation and management of Balancer LBPs It currently supports: - LBPs with 2 tokens - Withdrawl of the full liquidity at once - Charging a fee on the amount raised",
				"version": 1
			}
		}
	}
}