{
	"contracts/Authorizer.sol": {
		"Authorizer": {
			"abi": [
				{
					"inputs": [
						{
							"internalType": "address",
							"name": "admin",
							"type": "address"
						}
					],
					"stateMutability": "nonpayable",
					"type": "constructor"
				},
				{
					"anonymous": false,
					"inputs": [
						{
							"indexed": true,
							"internalType": "bytes32",
							"name": "role",
							"type": "bytes32"
						},
						{
							"indexed": true,
							"internalType": "bytes32",
							"name": "previousAdminRole",
							"type": "bytes32"
						},
						{
							"indexed": true,
							"internalType": "bytes32",
							"name": "newAdminRole",
							"type": "bytes32"
						}
					],
					"name": "RoleAdminChanged",
					"type": "event"
				},
				{
					"anonymous": false,
					"inputs": [
						{
							"indexed": true,
							"internalType": "bytes32",
							"name": "role",
							"type": "bytes32"
						},
						{
							"indexed": true,
							"internalType": "address",
							"name": "account",
							"type": "address"
						},
						{
							"indexed": true,
							"internalType": "address",
							"name": "sender",
							"type": "address"
						}
					],
					"name": "RoleGranted",
					"type": "event"
				},
				{
					"anonymous": false,
					"inputs": [
						{
							"indexed": true,
							"internalType": "bytes32",
							"name": "role",
							"type": "bytes32"
						},
						{
							"indexed": true,
							"internalType": "address",
							"name": "account",
							"type": "address"
						},
						{
							"indexed": true,
							"internalType": "address",
							"name": "sender",
							"type": "address"
						}
					],
					"name": "RoleRevoked",
					"type": "event"
				},
				{
					"inputs": [],
					"name": "DEFAULT_ADMIN_ROLE",
					"outputs": [
						{
							"internalType": "bytes32",
							"name": "",
							"type": "bytes32"
						}
					],
					"stateMutability": "view",
					"type": "function"
				},
				{
					"inputs": [
						{
							"internalType": "bytes32",
							"name": "actionId",
							"type": "bytes32"
						},
						{
							"internalType": "address",
							"name": "account",
							"type": "address"
						},
						{
							"internalType": "address",
							"name": "",
							"type": "address"
						}
					],
					"name": "canPerform",
					"outputs": [
						{
							"internalType": "bool",
							"name": "",
							"type": "bool"
						}
					],
					"stateMutability": "view",
					"type": "function"
				},
				{
					"inputs": [
						{
							"internalType": "bytes32",
							"name": "role",
							"type": "bytes32"
						}
					],
					"name": "getRoleAdmin",
					"outputs": [
						{
							"internalType": "bytes32",
							"name": "",
							"type": "bytes32"
						}
					],
					"stateMutability": "view",
					"type": "function"
				},
				{
					"inputs": [
						{
							"internalType": "bytes32",
							"name": "role",
							"type": "bytes32"
						},
						{
							"internalType": "uint256",
							"name": "index",
							"type": "uint256"
						}
					],
					"name": "getRoleMember",
					"outputs": [
						{
							"internalType": "address",
							"name": "",
							"type": "address"
						}
					],
					"stateMutability": "view",
					"type": "function"
				},
				{
					"inputs": [
						{
							"internalType": "bytes32",
							"name": "role",
							"type": "bytes32"
						}
					],
					"name": "getRoleMemberCount",
					"outputs": [
						{
							"internalType": "uint256",
							"name": "",
							"type": "uint256"
						}
					],
					"stateMutability": "view",
					"type": "function"
				},
				{
					"inputs": [
						{
							"internalType": "bytes32",
							"name": "role",
							"type": "bytes32"
						},
						{
							"internalType": "address",
							"name": "account",
							"type": "address"
						}
					],
					"name": "grantRole",
					"outputs": [],
					"stateMutability": "nonpayable",
					"type": "function"
				},
				{
					"inputs": [
						{
							"internalType": "bytes32[]",
							"name": "roles",
							"type": "bytes32[]"
						},
						{
							"internalType": "address",
							"name": "account",
							"type": "address"
						}
					],
					"name": "grantRoles",
					"outputs": [],
					"stateMutability": "nonpayable",
					"type": "function"
				},
				{
					"inputs": [
						{
							"internalType": "bytes32[]",
							"name": "roles",
							"type": "bytes32[]"
						},
						{
							"internalType": "address[]",
							"name": "accounts",
							"type": "address[]"
						}
					],
					"name": "grantRolesToMany",
					"outputs": [],
					"stateMutability": "nonpayable",
					"type": "function"
				},
				{
					"inputs": [
						{
							"internalType": "bytes32",
							"name": "role",
							"type": "bytes32"
						},
						{
							"internalType": "address",
							"name": "account",
							"type": "address"
						}
					],
					"name": "hasRole",
					"outputs": [
						{
							"internalType": "bool",
							"name": "",
							"type": "bool"
						}
					],
					"stateMutability": "view",
					"type": "function"
				},
				{
					"inputs": [
						{
							"internalType": "bytes32",
							"name": "role",
							"type": "bytes32"
						},
						{
							"internalType": "address",
							"name": "account",
							"type": "address"
						}
					],
					"name": "renounceRole",
					"outputs": [],
					"stateMutability": "nonpayable",
					"type": "function"
				},
				{
					"inputs": [
						{
							"internalType": "bytes32",
							"name": "role",
							"type": "bytes32"
						},
						{
							"internalType": "address",
							"name": "account",
							"type": "address"
						}
					],
					"name": "revokeRole",
					"outputs": [],
					"stateMutability": "nonpayable",
					"type": "function"
				},
				{
					"inputs": [
						{
							"internalType": "bytes32[]",
							"name": "roles",
							"type": "bytes32[]"
						},
						{
							"internalType": "address",
							"name": "account",
							"type": "address"
						}
					],
					"name": "revokeRoles",
					"outputs": [],
					"stateMutability": "nonpayable",
					"type": "function"
				},
				{
					"inputs": [
						{
							"internalType": "bytes32[]",
							"name": "roles",
							"type": "bytes32[]"
						},
						{
							"internalType": "address[]",
							"name": "accounts",
							"type": "address[]"
						}
					],
					"name": "revokeRolesFromMany",
					"outputs": [],
					"stateMutability": "nonpayable",
					"type": "function"
				}
			],
			"devdoc": {
				"details": "Basic Authorizer implementation, based on OpenZeppelin's Access Control. Users are allowed to perform actions if they have the role with the same identifier. In this sense, roles are not being truly used as such, since they each map to a single action identifier. This temporary implementation is expected to be replaced soon after launch by a more sophisticated one, able to manage permissions across multiple contracts and to natively handle timelocks.",
				"kind": "dev",
				"methods": {
					"getRoleAdmin(bytes32)": {
						"details": "Returns the admin role that controls `role`. See {grantRole} and {revokeRole}. To change a role's admin, use {_setRoleAdmin}."
					},
					"getRoleMember(bytes32,uint256)": {
						"details": "Returns one of the accounts that have `role`. `index` must be a value between 0 and {getRoleMemberCount}, non-inclusive. Role bearers are not sorted in any particular way, and their ordering may change at any point. WARNING: When using {getRoleMember} and {getRoleMemberCount}, make sure you perform all queries on the same block. See the following https://forum.openzeppelin.com/t/iterating-over-elements-on-enumerableset-in-openzeppelin-contracts/2296[forum post] for more information."
					},
					"getRoleMemberCount(bytes32)": {
						"details": "Returns the number of accounts that have `role`. Can be used together with {getRoleMember} to enumerate all bearers of a role."
					},
					"grantRole(bytes32,address)": {
						"details": "Grants `role` to `account`. If `account` had not been already granted `role`, emits a {RoleGranted} event. Requirements: - the caller must have ``role``'s admin role."
					},
					"grantRoles(bytes32[],address)": {
						"details": "Grants multiple roles to a single account."
					},
					"grantRolesToMany(bytes32[],address[])": {
						"details": "Grants roles to a list of accounts."
					},
					"hasRole(bytes32,address)": {
						"details": "Returns `true` if `account` has been granted `role`."
					},
					"renounceRole(bytes32,address)": {
						"details": "Revokes `role` from the calling account. Roles are often managed via {grantRole} and {revokeRole}: this function's purpose is to provide a mechanism for accounts to lose their privileges if they are compromised (such as when a trusted device is misplaced). If the calling account had been granted `role`, emits a {RoleRevoked} event. Requirements: - the caller must be `account`."
					},
					"revokeRole(bytes32,address)": {
						"details": "Revokes `role` from `account`. If `account` had already been granted `role`, emits a {RoleRevoked} event. Requirements: - the caller must have ``role``'s admin role."
					},
					"revokeRoles(bytes32[],address)": {
						"details": "Revokes multiple roles from a single account."
					},
					"revokeRolesFromMany(bytes32[],address[])": {
						"details": "Revokes roles from a list of accounts."
					}
				},
				"version": 1
			},
			"evm": {
				"assembly": "    /* \"contracts/Authorizer.sol\":27155:28836  contract Authorizer is AccessControl, IAuthorizer {\r... */\n  mstore(0x40, 0x80)\n    /* \"contracts/Authorizer.sol\":27212:27295  constructor(address admin) {\r... */\n  callvalue\n  dup1\n  iszero\n  tag_1\n  jumpi\n  0x00\n  dup1\n  revert\ntag_1:\n  pop\n  mload(0x40)\n  sub(codesize, bytecodeSize)\n  dup1\n  bytecodeSize\n  dup4\n  codecopy\n  dup2\n  dup2\n  add\n  0x40\n  mstore\n  0x20\n  dup2\n  lt\n  iszero\n  tag_2\n  jumpi\n  0x00\n  dup1\n  revert\ntag_2:\n  pop\n  mload\n    /* \"contracts/Authorizer.sol\":27250:27287  _setupRole(DEFAULT_ADMIN_ROLE, admin) */\n  tag_5\n    /* \"contracts/Authorizer.sol\":19515:19519  0x00 */\n  0x00\n    /* \"contracts/Authorizer.sol\":27212:27295  constructor(address admin) {\r... */\n  dup3\n    /* \"contracts/Authorizer.sol\":27250:27260  _setupRole */\n  tag_6\n    /* \"contracts/Authorizer.sol\":27250:27287  _setupRole(DEFAULT_ADMIN_ROLE, admin) */\n  jump\t// in\ntag_5:\n    /* \"contracts/Authorizer.sol\":27212:27295  constructor(address admin) {\r... */\n  pop\n    /* \"contracts/Authorizer.sol\":27155:28836  contract Authorizer is AccessControl, IAuthorizer {\r... */\n  jump(tag_7)\n    /* \"contracts/Authorizer.sol\":24426:24538  function _setupRole(bytes32 role, address account) internal virtual {\r... */\ntag_6:\n    /* \"contracts/Authorizer.sol\":24505:24530  _grantRole(role, account) */\n  tag_9\n    /* \"contracts/Authorizer.sol\":24516:24520  role */\n  dup3\n    /* \"contracts/Authorizer.sol\":24522:24529  account */\n  dup3\n    /* \"contracts/Authorizer.sol\":24505:24515  _grantRole */\n  tag_10\n    /* \"contracts/Authorizer.sol\":24505:24530  _grantRole(role, account) */\n  jump\t// in\ntag_9:\n    /* \"contracts/Authorizer.sol\":24426:24538  function _setupRole(bytes32 role, address account) internal virtual {\r... */\n  pop\n  pop\n  jump\t// out\n    /* \"contracts/Authorizer.sol\":24877:25063  function _grantRole(bytes32 role, address account) private {\r... */\ntag_10:\n    /* \"contracts/Authorizer.sol\":24951:24957  _roles */\n  0x00\n    /* \"contracts/Authorizer.sol\":24951:24963  _roles[role] */\n  dup3\n  dup2\n  mstore\n  0x20\n  dup2\n  dup2\n  mstore\n  0x40\n  swap1\n  swap2\n  keccak256\n    /* \"contracts/Authorizer.sol\":24951:24984  _roles[role].members.add(account) */\n  tag_12\n  swap2\n    /* \"contracts/Authorizer.sol\":24976:24983  account */\n  dup4\n  swap1\n    /* \"contracts/Authorizer.sol\":24951:24975  _roles[role].members.add */\n  tag_0_74\n  tag_13\n  dup3\n  shl\n  or\n    /* \"contracts/Authorizer.sol\":24951:24984  _roles[role].members.add(account) */\n  swap1\n  shr\n  jump\t// in\ntag_12:\n    /* \"contracts/Authorizer.sol\":24947:25056  if (_roles[role].members.add(account)) {\r... */\n  iszero\n  tag_9\n  jumpi\n    /* \"contracts/Authorizer.sol\":25006:25044  RoleGranted(role, account, msg.sender) */\n  mload(0x40)\n    /* \"contracts/Authorizer.sol\":25033:25043  msg.sender */\n  caller\n  swap1\n  sub(shl(0xa0, 0x01), 0x01)\n    /* \"contracts/Authorizer.sol\":25006:25044  RoleGranted(role, account, msg.sender) */\n  dup4\n  and\n  swap1\n    /* \"contracts/Authorizer.sol\":25018:25022  role */\n  dup5\n  swap1\n    /* \"contracts/Authorizer.sol\":25006:25044  RoleGranted(role, account, msg.sender) */\n  0x2f8788117e7eff1d82e926ec794901d17c78024a50270940304540a733656f0d\n  swap1\n  0x00\n  swap1\n  log4\n    /* \"contracts/Authorizer.sol\":24877:25063  function _grantRole(bytes32 role, address account) private {\r... */\n  pop\n  pop\n  jump\t// out\n    /* \"contracts/Authorizer.sol\":14275:14695  function add(AddressSet storage set, address value) internal returns (bool) {\r... */\ntag_13:\n    /* \"contracts/Authorizer.sol\":14345:14349  bool */\n  0x00\n    /* \"contracts/Authorizer.sol\":14367:14387  contains(set, value) */\n  tag_16\n    /* \"contracts/Authorizer.sol\":14376:14379  set */\n  dup4\n    /* \"contracts/Authorizer.sol\":14381:14386  value */\n  dup4\n    /* \"contracts/Authorizer.sol\":14367:14375  contains */\n  tag_17\n    /* \"contracts/Authorizer.sol\":14367:14387  contains(set, value) */\n  jump\t// in\ntag_16:\n    /* \"contracts/Authorizer.sol\":14362:14688  if (!contains(set, value)) {\r... */\n  tag_18\n  jumpi\n  pop\n    /* \"contracts/Authorizer.sol\":14404:14427  set._values.push(value) */\n  dup2\n  sload\n  0x01\n  dup1\n  dup3\n  add\n  dup5\n  sstore\n  0x00\n  dup5\n  dup2\n  mstore\n  0x20\n  dup1\n  dup3\n  keccak256\n  swap1\n  swap4\n  add\n  dup1\n  sload\n  not(sub(shl(0xa0, 0x01), 0x01))\n  and\n  sub(shl(0xa0, 0x01), 0x01)\n  dup7\n  and\n  swap1\n  dup2\n  or\n  swap1\n  swap2\n  sstore\n    /* \"contracts/Authorizer.sol\":14587:14605  set._values.length */\n  dup6\n  sload\n    /* \"contracts/Authorizer.sol\":14565:14584  set._indexes[value] */\n  swap1\n  dup3\n  mstore\n    /* \"contracts/Authorizer.sol\":14565:14577  set._indexes */\n  dup3\n  dup7\n  add\n    /* \"contracts/Authorizer.sol\":14565:14584  set._indexes[value] */\n  swap1\n  swap4\n  mstore\n  0x40\n  swap1\n  keccak256\n    /* \"contracts/Authorizer.sol\":14565:14605  set._indexes[value] = set._values.length */\n  swap2\n  swap1\n  swap2\n  sstore\n    /* \"contracts/Authorizer.sol\":14620:14631  return true */\n  jump(tag_20)\n    /* \"contracts/Authorizer.sol\":14362:14688  if (!contains(set, value)) {\r... */\ntag_18:\n  pop\n    /* \"contracts/Authorizer.sol\":14671:14676  false */\n  0x00\n    /* \"contracts/Authorizer.sol\":14362:14688  if (!contains(set, value)) {\r... */\ntag_20:\n    /* \"contracts/Authorizer.sol\":14275:14695  function add(AddressSet storage set, address value) internal returns (bool) {\r... */\n  swap3\n  swap2\n  pop\n  pop\n  jump\t// out\n    /* \"contracts/Authorizer.sol\":16521:16657  function contains(AddressSet storage set, address value) internal view returns (bool) {\r... */\ntag_17:\n  sub(shl(0xa0, 0x01), 0x01)\n    /* \"contracts/Authorizer.sol\":16625:16644  set._indexes[value] */\n  and\n    /* \"contracts/Authorizer.sol\":16601:16605  bool */\n  0x00\n    /* \"contracts/Authorizer.sol\":16625:16644  set._indexes[value] */\n  swap1\n  dup2\n  mstore\n    /* \"contracts/Authorizer.sol\":16625:16637  set._indexes */\n  0x01\n  swap2\n  swap1\n  swap2\n  add\n    /* \"contracts/Authorizer.sol\":16625:16644  set._indexes[value] */\n  0x20\n  mstore\n  0x40\n  swap1\n  keccak256\n  sload\n    /* \"contracts/Authorizer.sol\":16625:16649  set._indexes[value] != 0 */\n  iszero\n  iszero\n  swap1\n    /* \"contracts/Authorizer.sol\":16521:16657  function contains(AddressSet storage set, address value) internal view returns (bool) {\r... */\n  jump\t// out\n    /* \"contracts/Authorizer.sol\":27155:28836  contract Authorizer is AccessControl, IAuthorizer {\r... */\ntag_7:\n  dataSize(sub_0)\n  dup1\n  dataOffset(sub_0)\n  0x00\n  codecopy\n  0x00\n  return\nstop\n\nsub_0: assembly {\n        /* \"contracts/Authorizer.sol\":27155:28836  contract Authorizer is AccessControl, IAuthorizer {\r... */\n      mstore(0x40, 0x80)\n      callvalue\n      dup1\n      iszero\n      tag_1\n      jumpi\n      0x00\n      dup1\n      revert\n    tag_1:\n      pop\n      jumpi(tag_2, lt(calldatasize, 0x04))\n      shr(0xe0, calldataload(0x00))\n      dup1\n      0x988360a3\n      gt\n      tag_16\n      jumpi\n      dup1\n      0xa73cb2ab\n      gt\n      tag_17\n      jumpi\n      dup1\n      0xa73cb2ab\n      eq\n      tag_12\n      jumpi\n      dup1\n      0xca15c873\n      eq\n      tag_13\n      jumpi\n      dup1\n      0xd547741f\n      eq\n      tag_14\n      jumpi\n      dup1\n      0xfcd7627e\n      eq\n      tag_15\n      jumpi\n      jump(tag_2)\n    tag_17:\n      dup1\n      0x988360a3\n      eq\n      tag_9\n      jumpi\n      dup1\n      0x9be2a884\n      eq\n      tag_10\n      jumpi\n      dup1\n      0xa217fddf\n      eq\n      tag_11\n      jumpi\n      jump(tag_2)\n    tag_16:\n      dup1\n      0x18b2cde9\n      eq\n      tag_3\n      jumpi\n      dup1\n      0x248a9ca3\n      eq\n      tag_4\n      jumpi\n      dup1\n      0x2f2ff15d\n      eq\n      tag_5\n      jumpi\n      dup1\n      0x36568abe\n      eq\n      tag_6\n      jumpi\n      dup1\n      0x9010d07c\n      eq\n      tag_7\n      jumpi\n      dup1\n      0x91d14854\n      eq\n      tag_8\n      jumpi\n    tag_2:\n      0x00\n      dup1\n      revert\n        /* \"contracts/Authorizer.sol\":28546:28833  function revokeRolesFromMany(bytes32[] memory roles, address[] memory accounts) external {\r... */\n    tag_3:\n      tag_18\n      0x04\n      dup1\n      calldatasize\n      sub\n      0x40\n      dup2\n      lt\n      iszero\n      tag_19\n      jumpi\n      0x00\n      dup1\n      revert\n    tag_19:\n      dup2\n      add\n      swap1\n      0x20\n      dup2\n      add\n      dup2\n      calldataload\n      shl(0x20, 0x01)\n      dup2\n      gt\n      iszero\n      tag_20\n      jumpi\n      0x00\n      dup1\n      revert\n    tag_20:\n      dup3\n      add\n      dup4\n      0x20\n      dup3\n      add\n      gt\n      iszero\n      tag_21\n      jumpi\n      0x00\n      dup1\n      revert\n    tag_21:\n      dup1\n      calldataload\n      swap1\n      0x20\n      add\n      swap2\n      dup5\n      0x20\n      dup4\n      mul\n      dup5\n      add\n      gt\n      shl(0x20, 0x01)\n      dup4\n      gt\n      or\n      iszero\n      tag_22\n      jumpi\n      0x00\n      dup1\n      revert\n    tag_22:\n      swap2\n      swap1\n      dup1\n      dup1\n      0x20\n      mul\n      0x20\n      add\n      mload(0x40)\n      swap1\n      dup2\n      add\n      0x40\n      mstore\n      dup1\n      swap4\n      swap3\n      swap2\n      swap1\n      dup2\n      dup2\n      mstore\n      0x20\n      add\n      dup4\n      dup4\n      0x20\n      mul\n      dup1\n      dup3\n      dup5\n      calldatacopy\n      0x00\n      swap3\n      add\n      swap2\n      swap1\n      swap2\n      mstore\n      pop\n      swap3\n      swap6\n      swap5\n      swap4\n      0x20\n      dup2\n      add\n      swap4\n      pop\n      calldataload\n      swap2\n      pop\n      pop\n      shl(0x20, 0x01)\n      dup2\n      gt\n      iszero\n      tag_23\n      jumpi\n      0x00\n      dup1\n      revert\n    tag_23:\n      dup3\n      add\n      dup4\n      0x20\n      dup3\n      add\n      gt\n      iszero\n      tag_24\n      jumpi\n      0x00\n      dup1\n      revert\n    tag_24:\n      dup1\n      calldataload\n      swap1\n      0x20\n      add\n      swap2\n      dup5\n      0x20\n      dup4\n      mul\n      dup5\n      add\n      gt\n      shl(0x20, 0x01)\n      dup4\n      gt\n      or\n      iszero\n      tag_25\n      jumpi\n      0x00\n      dup1\n      revert\n    tag_25:\n      swap2\n      swap1\n      dup1\n      dup1\n      0x20\n      mul\n      0x20\n      add\n      mload(0x40)\n      swap1\n      dup2\n      add\n      0x40\n      mstore\n      dup1\n      swap4\n      swap3\n      swap2\n      swap1\n      dup2\n      dup2\n      mstore\n      0x20\n      add\n      dup4\n      dup4\n      0x20\n      mul\n      dup1\n      dup3\n      dup5\n      calldatacopy\n      0x00\n      swap3\n      add\n      swap2\n      swap1\n      swap2\n      mstore\n      pop\n      swap3\n      swap6\n      pop\n      tag_26\n      swap5\n      pop\n      pop\n      pop\n      pop\n      pop\n      jump\t// in\n    tag_18:\n      stop\n        /* \"contracts/Authorizer.sol\":22099:22213  function getRoleAdmin(bytes32 role) public view returns (bytes32) {\r... */\n    tag_4:\n      tag_27\n      0x04\n      dup1\n      calldatasize\n      sub\n      0x20\n      dup2\n      lt\n      iszero\n      tag_28\n      jumpi\n      0x00\n      dup1\n      revert\n    tag_28:\n      pop\n      calldataload\n      tag_29\n      jump\t// in\n    tag_27:\n      0x40\n      dup1\n      mload\n      swap2\n      dup3\n      mstore\n      mload\n      swap1\n      dup2\n      swap1\n      sub\n      0x20\n      add\n      swap1\n      return\n        /* \"contracts/Authorizer.sol\":22475:22681  function grantRole(bytes32 role, address account) public virtual {\r... */\n    tag_5:\n      tag_18\n      0x04\n      dup1\n      calldatasize\n      sub\n      0x40\n      dup2\n      lt\n      iszero\n      tag_31\n      jumpi\n      0x00\n      dup1\n      revert\n    tag_31:\n      pop\n      dup1\n      calldataload\n      swap1\n      0x20\n      add\n      calldataload\n      sub(shl(0xa0, 0x01), 0x01)\n      and\n      tag_32\n      jump\t// in\n        /* \"contracts/Authorizer.sol\":23650:23843  function renounceRole(bytes32 role, address account) public virtual {\r... */\n    tag_6:\n      tag_18\n      0x04\n      dup1\n      calldatasize\n      sub\n      0x40\n      dup2\n      lt\n      iszero\n      tag_34\n      jumpi\n      0x00\n      dup1\n      revert\n    tag_34:\n      pop\n      dup1\n      calldataload\n      swap1\n      0x20\n      add\n      calldataload\n      sub(shl(0xa0, 0x01), 0x01)\n      and\n      tag_35\n      jump\t// in\n        /* \"contracts/Authorizer.sol\":21772:21910  function getRoleMember(bytes32 role, uint256 index) public view returns (address) {\r... */\n    tag_7:\n      tag_36\n      0x04\n      dup1\n      calldatasize\n      sub\n      0x40\n      dup2\n      lt\n      iszero\n      tag_37\n      jumpi\n      0x00\n      dup1\n      revert\n    tag_37:\n      pop\n      dup1\n      calldataload\n      swap1\n      0x20\n      add\n      calldataload\n      tag_38\n      jump\t// in\n    tag_36:\n      0x40\n      dup1\n      mload\n      sub(shl(0xa0, 0x01), 0x01)\n      swap1\n      swap3\n      and\n      dup3\n      mstore\n      mload\n      swap1\n      dup2\n      swap1\n      sub\n      0x20\n      add\n      swap1\n      return\n        /* \"contracts/Authorizer.sol\":20725:20872  function hasRole(bytes32 role, address account) public view virtual returns (bool) {\r... */\n    tag_8:\n      tag_39\n      0x04\n      dup1\n      calldatasize\n      sub\n      0x40\n      dup2\n      lt\n      iszero\n      tag_40\n      jumpi\n      0x00\n      dup1\n      revert\n    tag_40:\n      pop\n      dup1\n      calldataload\n      swap1\n      0x20\n      add\n      calldataload\n      sub(shl(0xa0, 0x01), 0x01)\n      and\n      tag_41\n      jump\t// in\n    tag_39:\n      0x40\n      dup1\n      mload\n      swap2\n      iszero\n      iszero\n      dup3\n      mstore\n      mload\n      swap1\n      dup2\n      swap1\n      sub\n      0x20\n      add\n      swap1\n      return\n        /* \"contracts/Authorizer.sol\":28280:28468  function revokeRoles(bytes32[] memory roles, address account) external {\r... */\n    tag_9:\n      tag_18\n      0x04\n      dup1\n      calldatasize\n      sub\n      0x40\n      dup2\n      lt\n      iszero\n      tag_43\n      jumpi\n      0x00\n      dup1\n      revert\n    tag_43:\n      dup2\n      add\n      swap1\n      0x20\n      dup2\n      add\n      dup2\n      calldataload\n      shl(0x20, 0x01)\n      dup2\n      gt\n      iszero\n      tag_44\n      jumpi\n      0x00\n      dup1\n      revert\n    tag_44:\n      dup3\n      add\n      dup4\n      0x20\n      dup3\n      add\n      gt\n      iszero\n      tag_45\n      jumpi\n      0x00\n      dup1\n      revert\n    tag_45:\n      dup1\n      calldataload\n      swap1\n      0x20\n      add\n      swap2\n      dup5\n      0x20\n      dup4\n      mul\n      dup5\n      add\n      gt\n      shl(0x20, 0x01)\n      dup4\n      gt\n      or\n      iszero\n      tag_46\n      jumpi\n      0x00\n      dup1\n      revert\n    tag_46:\n      swap2\n      swap1\n      dup1\n      dup1\n      0x20\n      mul\n      0x20\n      add\n      mload(0x40)\n      swap1\n      dup2\n      add\n      0x40\n      mstore\n      dup1\n      swap4\n      swap3\n      swap2\n      swap1\n      dup2\n      dup2\n      mstore\n      0x20\n      add\n      dup4\n      dup4\n      0x20\n      mul\n      dup1\n      dup3\n      dup5\n      calldatacopy\n      0x00\n      swap3\n      add\n      swap2\n      swap1\n      swap2\n      mstore\n      pop\n      swap3\n      swap6\n      pop\n      pop\n      pop\n      swap1\n      calldataload\n      sub(shl(0xa0, 0x01), 0x01)\n      and\n      swap2\n      pop\n      tag_47\n      swap1\n      pop\n      jump\t// in\n        /* \"contracts/Authorizer.sol\":27303:27569  function canPerform(\r... */\n    tag_10:\n      tag_39\n      0x04\n      dup1\n      calldatasize\n      sub\n      0x60\n      dup2\n      lt\n      iszero\n      tag_49\n      jumpi\n      0x00\n      dup1\n      revert\n    tag_49:\n      pop\n      dup1\n      calldataload\n      swap1\n      sub(shl(0xa0, 0x01), 0x01)\n      0x20\n      dup3\n      add\n      calldataload\n      dup2\n      and\n      swap2\n      0x40\n      add\n      calldataload\n      and\n      tag_50\n      jump\t// in\n        /* \"contracts/Authorizer.sol\":19470:19519  bytes32 public constant DEFAULT_ADMIN_ROLE = 0x00 */\n    tag_11:\n      tag_27\n      tag_52\n      jump\t// in\n        /* \"contracts/Authorizer.sol\":27912:28195  function grantRolesToMany(bytes32[] memory roles, address[] memory accounts) external {\r... */\n    tag_12:\n      tag_18\n      0x04\n      dup1\n      calldatasize\n      sub\n      0x40\n      dup2\n      lt\n      iszero\n      tag_54\n      jumpi\n      0x00\n      dup1\n      revert\n    tag_54:\n      dup2\n      add\n      swap1\n      0x20\n      dup2\n      add\n      dup2\n      calldataload\n      shl(0x20, 0x01)\n      dup2\n      gt\n      iszero\n      tag_55\n      jumpi\n      0x00\n      dup1\n      revert\n    tag_55:\n      dup3\n      add\n      dup4\n      0x20\n      dup3\n      add\n      gt\n      iszero\n      tag_56\n      jumpi\n      0x00\n      dup1\n      revert\n    tag_56:\n      dup1\n      calldataload\n      swap1\n      0x20\n      add\n      swap2\n      dup5\n      0x20\n      dup4\n      mul\n      dup5\n      add\n      gt\n      shl(0x20, 0x01)\n      dup4\n      gt\n      or\n      iszero\n      tag_57\n      jumpi\n      0x00\n      dup1\n      revert\n    tag_57:\n      swap2\n      swap1\n      dup1\n      dup1\n      0x20\n      mul\n      0x20\n      add\n      mload(0x40)\n      swap1\n      dup2\n      add\n      0x40\n      mstore\n      dup1\n      swap4\n      swap3\n      swap2\n      swap1\n      dup2\n      dup2\n      mstore\n      0x20\n      add\n      dup4\n      dup4\n      0x20\n      mul\n      dup1\n      dup3\n      dup5\n      calldatacopy\n      0x00\n      swap3\n      add\n      swap2\n      swap1\n      swap2\n      mstore\n      pop\n      swap3\n      swap6\n      swap5\n      swap4\n      0x20\n      dup2\n      add\n      swap4\n      pop\n      calldataload\n      swap2\n      pop\n      pop\n      shl(0x20, 0x01)\n      dup2\n      gt\n      iszero\n      tag_58\n      jumpi\n      0x00\n      dup1\n      revert\n    tag_58:\n      dup3\n      add\n      dup4\n      0x20\n      dup3\n      add\n      gt\n      iszero\n      tag_59\n      jumpi\n      0x00\n      dup1\n      revert\n    tag_59:\n      dup1\n      calldataload\n      swap1\n      0x20\n      add\n      swap2\n      dup5\n      0x20\n      dup4\n      mul\n      dup5\n      add\n      gt\n      shl(0x20, 0x01)\n      dup4\n      gt\n      or\n      iszero\n      tag_60\n      jumpi\n      0x00\n      dup1\n      revert\n    tag_60:\n      swap2\n      swap1\n      dup1\n      dup1\n      0x20\n      mul\n      0x20\n      add\n      mload(0x40)\n      swap1\n      dup2\n      add\n      0x40\n      mstore\n      dup1\n      swap4\n      swap3\n      swap2\n      swap1\n      dup2\n      dup2\n      mstore\n      0x20\n      add\n      dup4\n      dup4\n      0x20\n      mul\n      dup1\n      dup3\n      dup5\n      calldatacopy\n      0x00\n      swap3\n      add\n      swap2\n      swap1\n      swap2\n      mstore\n      pop\n      swap3\n      swap6\n      pop\n      tag_61\n      swap5\n      pop\n      pop\n      pop\n      pop\n      pop\n      jump\t// in\n        /* \"contracts/Authorizer.sol\":21046:21173  function getRoleMemberCount(bytes32 role) public view returns (uint256) {\r... */\n    tag_13:\n      tag_27\n      0x04\n      dup1\n      calldatasize\n      sub\n      0x20\n      dup2\n      lt\n      iszero\n      tag_63\n      jumpi\n      0x00\n      dup1\n      revert\n    tag_63:\n      pop\n      calldataload\n      tag_64\n      jump\t// in\n        /* \"contracts/Authorizer.sol\":22934:23143  function revokeRole(bytes32 role, address account) public virtual {\r... */\n    tag_14:\n      tag_18\n      0x04\n      dup1\n      calldatasize\n      sub\n      0x40\n      dup2\n      lt\n      iszero\n      tag_66\n      jumpi\n      0x00\n      dup1\n      revert\n    tag_66:\n      pop\n      dup1\n      calldataload\n      swap1\n      0x20\n      add\n      calldataload\n      sub(shl(0xa0, 0x01), 0x01)\n      and\n      tag_67\n      jump\t// in\n        /* \"contracts/Authorizer.sol\":27651:27837  function grantRoles(bytes32[] memory roles, address account) external {\r... */\n    tag_15:\n      tag_18\n      0x04\n      dup1\n      calldatasize\n      sub\n      0x40\n      dup2\n      lt\n      iszero\n      tag_69\n      jumpi\n      0x00\n      dup1\n      revert\n    tag_69:\n      dup2\n      add\n      swap1\n      0x20\n      dup2\n      add\n      dup2\n      calldataload\n      shl(0x20, 0x01)\n      dup2\n      gt\n      iszero\n      tag_70\n      jumpi\n      0x00\n      dup1\n      revert\n    tag_70:\n      dup3\n      add\n      dup4\n      0x20\n      dup3\n      add\n      gt\n      iszero\n      tag_71\n      jumpi\n      0x00\n      dup1\n      revert\n    tag_71:\n      dup1\n      calldataload\n      swap1\n      0x20\n      add\n      swap2\n      dup5\n      0x20\n      dup4\n      mul\n      dup5\n      add\n      gt\n      shl(0x20, 0x01)\n      dup4\n      gt\n      or\n      iszero\n      tag_72\n      jumpi\n      0x00\n      dup1\n      revert\n    tag_72:\n      swap2\n      swap1\n      dup1\n      dup1\n      0x20\n      mul\n      0x20\n      add\n      mload(0x40)\n      swap1\n      dup2\n      add\n      0x40\n      mstore\n      dup1\n      swap4\n      swap3\n      swap2\n      swap1\n      dup2\n      dup2\n      mstore\n      0x20\n      add\n      dup4\n      dup4\n      0x20\n      mul\n      dup1\n      dup3\n      dup5\n      calldatacopy\n      0x00\n      swap3\n      add\n      swap2\n      swap1\n      swap2\n      mstore\n      pop\n      swap3\n      swap6\n      pop\n      pop\n      pop\n      swap1\n      calldataload\n      sub(shl(0xa0, 0x01), 0x01)\n      and\n      swap2\n      pop\n      tag_73\n      swap1\n      pop\n      jump\t// in\n        /* \"contracts/Authorizer.sol\":28546:28833  function revokeRolesFromMany(bytes32[] memory roles, address[] memory accounts) external {\r... */\n    tag_26:\n        /* \"contracts/Authorizer.sol\":28646:28712  InputHelpers.ensureInputLengthMatch(roles.length, accounts.length) */\n      tag_76\n        /* \"contracts/Authorizer.sol\":28682:28687  roles */\n      dup3\n        /* \"contracts/Authorizer.sol\":28682:28694  roles.length */\n      mload\n        /* \"contracts/Authorizer.sol\":28696:28704  accounts */\n      dup3\n        /* \"contracts/Authorizer.sol\":28696:28711  accounts.length */\n      mload\n        /* \"contracts/Authorizer.sol\":28646:28681  InputHelpers.ensureInputLengthMatch */\n      tag_77\n        /* \"contracts/Authorizer.sol\":28646:28712  InputHelpers.ensureInputLengthMatch(roles.length, accounts.length) */\n      jump\t// in\n    tag_76:\n        /* \"contracts/Authorizer.sol\":28728:28737  uint256 i */\n      0x00\n        /* \"contracts/Authorizer.sol\":28723:28826  for (uint256 i = 0; i < roles.length; i++) {\r... */\n    tag_78:\n        /* \"contracts/Authorizer.sol\":28747:28752  roles */\n      dup3\n        /* \"contracts/Authorizer.sol\":28747:28759  roles.length */\n      mload\n        /* \"contracts/Authorizer.sol\":28743:28744  i */\n      dup2\n        /* \"contracts/Authorizer.sol\":28743:28759  i < roles.length */\n      lt\n        /* \"contracts/Authorizer.sol\":28723:28826  for (uint256 i = 0; i < roles.length; i++) {\r... */\n      iszero\n      tag_79\n      jumpi\n        /* \"contracts/Authorizer.sol\":28781:28814  revokeRole(roles[i], accounts[i]) */\n      tag_81\n        /* \"contracts/Authorizer.sol\":28792:28797  roles */\n      dup4\n        /* \"contracts/Authorizer.sol\":28798:28799  i */\n      dup3\n        /* \"contracts/Authorizer.sol\":28792:28800  roles[i] */\n      dup2\n      mload\n      dup2\n      lt\n      tag_82\n      jumpi\n      invalid\n    tag_82:\n      0x20\n      mul\n      0x20\n      add\n      add\n      mload\n        /* \"contracts/Authorizer.sol\":28802:28810  accounts */\n      dup4\n        /* \"contracts/Authorizer.sol\":28811:28812  i */\n      dup4\n        /* \"contracts/Authorizer.sol\":28802:28813  accounts[i] */\n      dup2\n      mload\n      dup2\n      lt\n      tag_83\n      jumpi\n      invalid\n    tag_83:\n      0x20\n      mul\n      0x20\n      add\n      add\n      mload\n        /* \"contracts/Authorizer.sol\":28781:28791  revokeRole */\n      tag_67\n        /* \"contracts/Authorizer.sol\":28781:28814  revokeRole(roles[i], accounts[i]) */\n      jump\t// in\n    tag_81:\n        /* \"contracts/Authorizer.sol\":28761:28764  i++ */\n      0x01\n      add\n        /* \"contracts/Authorizer.sol\":28723:28826  for (uint256 i = 0; i < roles.length; i++) {\r... */\n      jump(tag_78)\n    tag_79:\n      pop\n        /* \"contracts/Authorizer.sol\":28546:28833  function revokeRolesFromMany(bytes32[] memory roles, address[] memory accounts) external {\r... */\n      pop\n      pop\n      jump\t// out\n        /* \"contracts/Authorizer.sol\":22099:22213  function getRoleAdmin(bytes32 role) public view returns (bytes32) {\r... */\n    tag_29:\n        /* \"contracts/Authorizer.sol\":22156:22163  bytes32 */\n      0x00\n        /* \"contracts/Authorizer.sol\":22183:22195  _roles[role] */\n      swap1\n      dup2\n      mstore\n      0x20\n      dup2\n      swap1\n      mstore\n      0x40\n      swap1\n      keccak256\n        /* \"contracts/Authorizer.sol\":22183:22205  _roles[role].adminRole */\n      0x02\n      add\n      sload\n      swap1\n        /* \"contracts/Authorizer.sol\":22099:22213  function getRoleAdmin(bytes32 role) public view returns (bytes32) {\r... */\n      jump\t// out\n        /* \"contracts/Authorizer.sol\":22475:22681  function grantRole(bytes32 role, address account) public virtual {\r... */\n    tag_32:\n        /* \"contracts/Authorizer.sol\":22568:22574  _roles */\n      0x00\n        /* \"contracts/Authorizer.sol\":22568:22580  _roles[role] */\n      dup3\n      dup2\n      mstore\n      0x20\n      dup2\n      swap1\n      mstore\n      0x40\n      swap1\n      keccak256\n        /* \"contracts/Authorizer.sol\":22568:22590  _roles[role].adminRole */\n      0x02\n      add\n      sload\n        /* \"contracts/Authorizer.sol\":22551:22635  _require(hasRole(_roles[role].adminRole, msg.sender), Errors.GRANT_SENDER_NOT_ADMIN) */\n      tag_86\n      swap1\n        /* \"contracts/Authorizer.sol\":22560:22603  hasRole(_roles[role].adminRole, msg.sender) */\n      tag_87\n      swap1\n        /* \"contracts/Authorizer.sol\":22592:22602  msg.sender */\n      caller\n        /* \"contracts/Authorizer.sol\":22560:22567  hasRole */\n      tag_41\n        /* \"contracts/Authorizer.sol\":22560:22603  hasRole(_roles[role].adminRole, msg.sender) */\n      jump\t// in\n    tag_87:\n        /* \"contracts/Authorizer.sol\":10703:10706  422 */\n      0x01a6\n        /* \"contracts/Authorizer.sol\":22551:22559  _require */\n      tag_88\n        /* \"contracts/Authorizer.sol\":22551:22635  _require(hasRole(_roles[role].adminRole, msg.sender), Errors.GRANT_SENDER_NOT_ADMIN) */\n      jump\t// in\n    tag_86:\n        /* \"contracts/Authorizer.sol\":22648:22673  _grantRole(role, account) */\n      tag_89\n        /* \"contracts/Authorizer.sol\":22659:22663  role */\n      dup3\n        /* \"contracts/Authorizer.sol\":22665:22672  account */\n      dup3\n        /* \"contracts/Authorizer.sol\":22648:22658  _grantRole */\n      tag_90\n        /* \"contracts/Authorizer.sol\":22648:22673  _grantRole(role, account) */\n      jump\t// in\n    tag_89:\n        /* \"contracts/Authorizer.sol\":22475:22681  function grantRole(bytes32 role, address account) public virtual {\r... */\n      pop\n      pop\n      jump\t// out\n        /* \"contracts/Authorizer.sol\":23650:23843  function renounceRole(bytes32 role, address account) public virtual {\r... */\n    tag_35:\n        /* \"contracts/Authorizer.sol\":23729:23796  _require(account == msg.sender, Errors.RENOUNCE_SENDER_NOT_ALLOWED) */\n      tag_92\n      sub(shl(0xa0, 0x01), 0x01)\n        /* \"contracts/Authorizer.sol\":23738:23759  account == msg.sender */\n      dup3\n      and\n        /* \"contracts/Authorizer.sol\":23749:23759  msg.sender */\n      caller\n        /* \"contracts/Authorizer.sol\":23738:23759  account == msg.sender */\n      eq\n        /* \"contracts/Authorizer.sol\":10831:10834  424 */\n      0x01a8\n        /* \"contracts/Authorizer.sol\":23729:23737  _require */\n      tag_88\n        /* \"contracts/Authorizer.sol\":23729:23796  _require(account == msg.sender, Errors.RENOUNCE_SENDER_NOT_ALLOWED) */\n      jump\t// in\n    tag_92:\n        /* \"contracts/Authorizer.sol\":23809:23835  _revokeRole(role, account) */\n      tag_89\n        /* \"contracts/Authorizer.sol\":23821:23825  role */\n      dup3\n        /* \"contracts/Authorizer.sol\":23827:23834  account */\n      dup3\n        /* \"contracts/Authorizer.sol\":23809:23820  _revokeRole */\n      tag_94\n        /* \"contracts/Authorizer.sol\":23809:23835  _revokeRole(role, account) */\n      jump\t// in\n        /* \"contracts/Authorizer.sol\":21772:21910  function getRoleMember(bytes32 role, uint256 index) public view returns (address) {\r... */\n    tag_38:\n        /* \"contracts/Authorizer.sol\":21845:21852  address */\n      0x00\n        /* \"contracts/Authorizer.sol\":21872:21884  _roles[role] */\n      dup3\n      dup2\n      mstore\n      0x20\n      dup2\n      swap1\n      mstore\n      0x40\n      dup2\n      keccak256\n        /* \"contracts/Authorizer.sol\":21872:21902  _roles[role].members.at(index) */\n      tag_96\n      swap1\n        /* \"contracts/Authorizer.sol\":21896:21901  index */\n      dup4\n        /* \"contracts/Authorizer.sol\":21872:21895  _roles[role].members.at */\n      tag_97\n        /* \"contracts/Authorizer.sol\":21872:21902  _roles[role].members.at(index) */\n      jump\t// in\n    tag_96:\n        /* \"contracts/Authorizer.sol\":21865:21902  return _roles[role].members.at(index) */\n      swap1\n      pop\n        /* \"contracts/Authorizer.sol\":21772:21910  function getRoleMember(bytes32 role, uint256 index) public view returns (address) {\r... */\n    tag_95:\n      swap3\n      swap2\n      pop\n      pop\n      jump\t// out\n        /* \"contracts/Authorizer.sol\":20725:20872  function hasRole(bytes32 role, address account) public view virtual returns (bool) {\r... */\n    tag_41:\n        /* \"contracts/Authorizer.sol\":20802:20806  bool */\n      0x00\n        /* \"contracts/Authorizer.sol\":20826:20838  _roles[role] */\n      dup3\n      dup2\n      mstore\n      0x20\n      dup2\n      swap1\n      mstore\n      0x40\n      dup2\n      keccak256\n        /* \"contracts/Authorizer.sol\":20826:20864  _roles[role].members.contains(account) */\n      tag_96\n      swap1\n        /* \"contracts/Authorizer.sol\":20856:20863  account */\n      dup4\n        /* \"contracts/Authorizer.sol\":20826:20855  _roles[role].members.contains */\n      tag_100\n        /* \"contracts/Authorizer.sol\":20826:20864  _roles[role].members.contains(account) */\n      jump\t// in\n        /* \"contracts/Authorizer.sol\":28280:28468  function revokeRoles(bytes32[] memory roles, address account) external {\r... */\n    tag_47:\n        /* \"contracts/Authorizer.sol\":28367:28376  uint256 i */\n      0x00\n        /* \"contracts/Authorizer.sol\":28362:28461  for (uint256 i = 0; i < roles.length; i++) {\r... */\n    tag_102:\n        /* \"contracts/Authorizer.sol\":28386:28391  roles */\n      dup3\n        /* \"contracts/Authorizer.sol\":28386:28398  roles.length */\n      mload\n        /* \"contracts/Authorizer.sol\":28382:28383  i */\n      dup2\n        /* \"contracts/Authorizer.sol\":28382:28398  i < roles.length */\n      lt\n        /* \"contracts/Authorizer.sol\":28362:28461  for (uint256 i = 0; i < roles.length; i++) {\r... */\n      iszero\n      tag_79\n      jumpi\n        /* \"contracts/Authorizer.sol\":28420:28449  revokeRole(roles[i], account) */\n      tag_105\n        /* \"contracts/Authorizer.sol\":28431:28436  roles */\n      dup4\n        /* \"contracts/Authorizer.sol\":28437:28438  i */\n      dup3\n        /* \"contracts/Authorizer.sol\":28431:28439  roles[i] */\n      dup2\n      mload\n      dup2\n      lt\n      tag_106\n      jumpi\n      invalid\n    tag_106:\n      0x20\n      mul\n      0x20\n      add\n      add\n      mload\n        /* \"contracts/Authorizer.sol\":28441:28448  account */\n      dup4\n        /* \"contracts/Authorizer.sol\":28420:28430  revokeRole */\n      tag_67\n        /* \"contracts/Authorizer.sol\":28420:28449  revokeRole(roles[i], account) */\n      jump\t// in\n    tag_105:\n        /* \"contracts/Authorizer.sol\":28400:28403  i++ */\n      0x01\n      add\n        /* \"contracts/Authorizer.sol\":28362:28461  for (uint256 i = 0; i < roles.length; i++) {\r... */\n      jump(tag_102)\n        /* \"contracts/Authorizer.sol\":27303:27569  function canPerform(\r... */\n    tag_50:\n        /* \"contracts/Authorizer.sol\":27431:27435  bool */\n      0x00\n        /* \"contracts/Authorizer.sol\":27521:27561  AccessControl.hasRole(actionId, account) */\n      tag_108\n        /* \"contracts/Authorizer.sol\":27543:27551  actionId */\n      dup5\n        /* \"contracts/Authorizer.sol\":27553:27560  account */\n      dup5\n        /* \"contracts/Authorizer.sol\":27521:27542  AccessControl.hasRole */\n      tag_41\n        /* \"contracts/Authorizer.sol\":27521:27561  AccessControl.hasRole(actionId, account) */\n      jump\t// in\n    tag_108:\n        /* \"contracts/Authorizer.sol\":27514:27561  return AccessControl.hasRole(actionId, account) */\n      swap5\n        /* \"contracts/Authorizer.sol\":27303:27569  function canPerform(\r... */\n      swap4\n      pop\n      pop\n      pop\n      pop\n      jump\t// out\n        /* \"contracts/Authorizer.sol\":19470:19519  bytes32 public constant DEFAULT_ADMIN_ROLE = 0x00 */\n    tag_52:\n        /* \"contracts/Authorizer.sol\":19515:19519  0x00 */\n      0x00\n        /* \"contracts/Authorizer.sol\":19470:19519  bytes32 public constant DEFAULT_ADMIN_ROLE = 0x00 */\n      dup2\n      jump\t// out\n        /* \"contracts/Authorizer.sol\":27912:28195  function grantRolesToMany(bytes32[] memory roles, address[] memory accounts) external {\r... */\n    tag_61:\n        /* \"contracts/Authorizer.sol\":28009:28075  InputHelpers.ensureInputLengthMatch(roles.length, accounts.length) */\n      tag_110\n        /* \"contracts/Authorizer.sol\":28045:28050  roles */\n      dup3\n        /* \"contracts/Authorizer.sol\":28045:28057  roles.length */\n      mload\n        /* \"contracts/Authorizer.sol\":28059:28067  accounts */\n      dup3\n        /* \"contracts/Authorizer.sol\":28059:28074  accounts.length */\n      mload\n        /* \"contracts/Authorizer.sol\":28009:28044  InputHelpers.ensureInputLengthMatch */\n      tag_77\n        /* \"contracts/Authorizer.sol\":28009:28075  InputHelpers.ensureInputLengthMatch(roles.length, accounts.length) */\n      jump\t// in\n    tag_110:\n        /* \"contracts/Authorizer.sol\":28091:28100  uint256 i */\n      0x00\n        /* \"contracts/Authorizer.sol\":28086:28188  for (uint256 i = 0; i < roles.length; i++) {\r... */\n    tag_111:\n        /* \"contracts/Authorizer.sol\":28110:28115  roles */\n      dup3\n        /* \"contracts/Authorizer.sol\":28110:28122  roles.length */\n      mload\n        /* \"contracts/Authorizer.sol\":28106:28107  i */\n      dup2\n        /* \"contracts/Authorizer.sol\":28106:28122  i < roles.length */\n      lt\n        /* \"contracts/Authorizer.sol\":28086:28188  for (uint256 i = 0; i < roles.length; i++) {\r... */\n      iszero\n      tag_79\n      jumpi\n        /* \"contracts/Authorizer.sol\":28144:28176  grantRole(roles[i], accounts[i]) */\n      tag_114\n        /* \"contracts/Authorizer.sol\":28154:28159  roles */\n      dup4\n        /* \"contracts/Authorizer.sol\":28160:28161  i */\n      dup3\n        /* \"contracts/Authorizer.sol\":28154:28162  roles[i] */\n      dup2\n      mload\n      dup2\n      lt\n      tag_115\n      jumpi\n      invalid\n    tag_115:\n      0x20\n      mul\n      0x20\n      add\n      add\n      mload\n        /* \"contracts/Authorizer.sol\":28164:28172  accounts */\n      dup4\n        /* \"contracts/Authorizer.sol\":28173:28174  i */\n      dup4\n        /* \"contracts/Authorizer.sol\":28164:28175  accounts[i] */\n      dup2\n      mload\n      dup2\n      lt\n      tag_116\n      jumpi\n      invalid\n    tag_116:\n      0x20\n      mul\n      0x20\n      add\n      add\n      mload\n        /* \"contracts/Authorizer.sol\":28144:28153  grantRole */\n      tag_32\n        /* \"contracts/Authorizer.sol\":28144:28176  grantRole(roles[i], accounts[i]) */\n      jump\t// in\n    tag_114:\n        /* \"contracts/Authorizer.sol\":28124:28127  i++ */\n      0x01\n      add\n        /* \"contracts/Authorizer.sol\":28086:28188  for (uint256 i = 0; i < roles.length; i++) {\r... */\n      jump(tag_111)\n        /* \"contracts/Authorizer.sol\":21046:21173  function getRoleMemberCount(bytes32 role) public view returns (uint256) {\r... */\n    tag_64:\n        /* \"contracts/Authorizer.sol\":21109:21116  uint256 */\n      0x00\n        /* \"contracts/Authorizer.sol\":21136:21148  _roles[role] */\n      dup2\n      dup2\n      mstore\n      0x20\n      dup2\n      swap1\n      mstore\n      0x40\n      dup2\n      keccak256\n        /* \"contracts/Authorizer.sol\":21136:21165  _roles[role].members.length() */\n      tag_95\n      swap1\n        /* \"contracts/Authorizer.sol\":21136:21163  _roles[role].members.length */\n      tag_119\n        /* \"contracts/Authorizer.sol\":21136:21165  _roles[role].members.length() */\n      jump\t// in\n        /* \"contracts/Authorizer.sol\":22934:23143  function revokeRole(bytes32 role, address account) public virtual {\r... */\n    tag_67:\n        /* \"contracts/Authorizer.sol\":23028:23034  _roles */\n      0x00\n        /* \"contracts/Authorizer.sol\":23028:23040  _roles[role] */\n      dup3\n      dup2\n      mstore\n      0x20\n      dup2\n      swap1\n      mstore\n      0x40\n      swap1\n      keccak256\n        /* \"contracts/Authorizer.sol\":23028:23050  _roles[role].adminRole */\n      0x02\n      add\n      sload\n        /* \"contracts/Authorizer.sol\":23011:23096  _require(hasRole(_roles[role].adminRole, msg.sender), Errors.REVOKE_SENDER_NOT_ADMIN) */\n      tag_92\n      swap1\n        /* \"contracts/Authorizer.sol\":23020:23063  hasRole(_roles[role].adminRole, msg.sender) */\n      tag_122\n      swap1\n        /* \"contracts/Authorizer.sol\":23052:23062  msg.sender */\n      caller\n        /* \"contracts/Authorizer.sol\":23020:23027  hasRole */\n      tag_41\n        /* \"contracts/Authorizer.sol\":23020:23063  hasRole(_roles[role].adminRole, msg.sender) */\n      jump\t// in\n    tag_122:\n        /* \"contracts/Authorizer.sol\":10765:10768  423 */\n      0x01a7\n        /* \"contracts/Authorizer.sol\":23011:23019  _require */\n      tag_88\n        /* \"contracts/Authorizer.sol\":23011:23096  _require(hasRole(_roles[role].adminRole, msg.sender), Errors.REVOKE_SENDER_NOT_ADMIN) */\n      jump\t// in\n        /* \"contracts/Authorizer.sol\":27651:27837  function grantRoles(bytes32[] memory roles, address account) external {\r... */\n    tag_73:\n        /* \"contracts/Authorizer.sol\":27737:27746  uint256 i */\n      0x00\n        /* \"contracts/Authorizer.sol\":27732:27830  for (uint256 i = 0; i < roles.length; i++) {\r... */\n    tag_125:\n        /* \"contracts/Authorizer.sol\":27756:27761  roles */\n      dup3\n        /* \"contracts/Authorizer.sol\":27756:27768  roles.length */\n      mload\n        /* \"contracts/Authorizer.sol\":27752:27753  i */\n      dup2\n        /* \"contracts/Authorizer.sol\":27752:27768  i < roles.length */\n      lt\n        /* \"contracts/Authorizer.sol\":27732:27830  for (uint256 i = 0; i < roles.length; i++) {\r... */\n      iszero\n      tag_79\n      jumpi\n        /* \"contracts/Authorizer.sol\":27790:27818  grantRole(roles[i], account) */\n      tag_128\n        /* \"contracts/Authorizer.sol\":27800:27805  roles */\n      dup4\n        /* \"contracts/Authorizer.sol\":27806:27807  i */\n      dup3\n        /* \"contracts/Authorizer.sol\":27800:27808  roles[i] */\n      dup2\n      mload\n      dup2\n      lt\n      tag_129\n      jumpi\n      invalid\n    tag_129:\n      0x20\n      mul\n      0x20\n      add\n      add\n      mload\n        /* \"contracts/Authorizer.sol\":27810:27817  account */\n      dup4\n        /* \"contracts/Authorizer.sol\":27790:27799  grantRole */\n      tag_32\n        /* \"contracts/Authorizer.sol\":27790:27818  grantRole(roles[i], account) */\n      jump\t// in\n    tag_128:\n        /* \"contracts/Authorizer.sol\":27770:27773  i++ */\n      0x01\n      add\n        /* \"contracts/Authorizer.sol\":27732:27830  for (uint256 i = 0; i < roles.length; i++) {\r... */\n      jump(tag_125)\n        /* \"contracts/Authorizer.sol\":14275:14695  function add(AddressSet storage set, address value) internal returns (bool) {\r... */\n    tag_74:\n        /* \"contracts/Authorizer.sol\":14345:14349  bool */\n      0x00\n        /* \"contracts/Authorizer.sol\":14367:14387  contains(set, value) */\n      tag_131\n        /* \"contracts/Authorizer.sol\":14376:14379  set */\n      dup4\n        /* \"contracts/Authorizer.sol\":14381:14386  value */\n      dup4\n        /* \"contracts/Authorizer.sol\":14367:14375  contains */\n      tag_100\n        /* \"contracts/Authorizer.sol\":14367:14387  contains(set, value) */\n      jump\t// in\n    tag_131:\n        /* \"contracts/Authorizer.sol\":14362:14688  if (!contains(set, value)) {\r... */\n      tag_132\n      jumpi\n      pop\n        /* \"contracts/Authorizer.sol\":14404:14427  set._values.push(value) */\n      dup2\n      sload\n      0x01\n      dup1\n      dup3\n      add\n      dup5\n      sstore\n      0x00\n      dup5\n      dup2\n      mstore\n      0x20\n      dup1\n      dup3\n      keccak256\n      swap1\n      swap4\n      add\n      dup1\n      sload\n      not(sub(shl(0xa0, 0x01), 0x01))\n      and\n      sub(shl(0xa0, 0x01), 0x01)\n      dup7\n      and\n      swap1\n      dup2\n      or\n      swap1\n      swap2\n      sstore\n        /* \"contracts/Authorizer.sol\":14587:14605  set._values.length */\n      dup6\n      sload\n        /* \"contracts/Authorizer.sol\":14565:14584  set._indexes[value] */\n      swap1\n      dup3\n      mstore\n        /* \"contracts/Authorizer.sol\":14565:14577  set._indexes */\n      dup3\n      dup7\n      add\n        /* \"contracts/Authorizer.sol\":14565:14584  set._indexes[value] */\n      swap1\n      swap4\n      mstore\n      0x40\n      swap1\n      keccak256\n        /* \"contracts/Authorizer.sol\":14565:14605  set._indexes[value] = set._values.length */\n      swap2\n      swap1\n      swap2\n      sstore\n        /* \"contracts/Authorizer.sol\":14620:14631  return true */\n      jump(tag_95)\n        /* \"contracts/Authorizer.sol\":14362:14688  if (!contains(set, value)) {\r... */\n    tag_132:\n      pop\n        /* \"contracts/Authorizer.sol\":14671:14676  false */\n      0x00\n        /* \"contracts/Authorizer.sol\":14664:14676  return false */\n      jump(tag_95)\n        /* \"contracts/Authorizer.sol\":25323:25456  function ensureInputLengthMatch(uint256 a, uint256 b) internal pure {\r... */\n    tag_77:\n        /* \"contracts/Authorizer.sol\":25402:25448  _require(a == b, Errors.INPUT_LENGTH_MISMATCH) */\n      tag_89\n        /* \"contracts/Authorizer.sol\":25416:25417  b */\n      dup2\n        /* \"contracts/Authorizer.sol\":25411:25412  a */\n      dup4\n        /* \"contracts/Authorizer.sol\":25411:25417  a == b */\n      eq\n        /* \"contracts/Authorizer.sol\":7927:7930  103 */\n      0x67\n        /* \"contracts/Authorizer.sol\":3714:3817  function _require(bool condition, uint256 errorCode) pure {\r... */\n    tag_88:\n        /* \"contracts/Authorizer.sol\":3784:3793  condition */\n      dup2\n        /* \"contracts/Authorizer.sol\":3779:3813  if (!condition) _revert(errorCode) */\n      tag_89\n      jumpi\n        /* \"contracts/Authorizer.sol\":3795:3813  _revert(errorCode) */\n      tag_89\n        /* \"contracts/Authorizer.sol\":3803:3812  errorCode */\n      dup2\n        /* \"contracts/Authorizer.sol\":3795:3802  _revert */\n      tag_140\n        /* \"contracts/Authorizer.sol\":3795:3813  _revert(errorCode) */\n      jump\t// in\n        /* \"contracts/Authorizer.sol\":24877:25063  function _grantRole(bytes32 role, address account) private {\r... */\n    tag_90:\n        /* \"contracts/Authorizer.sol\":24951:24957  _roles */\n      0x00\n        /* \"contracts/Authorizer.sol\":24951:24963  _roles[role] */\n      dup3\n      dup2\n      mstore\n      0x20\n      dup2\n      swap1\n      mstore\n      0x40\n      swap1\n      keccak256\n        /* \"contracts/Authorizer.sol\":24951:24984  _roles[role].members.add(account) */\n      tag_142\n      swap1\n        /* \"contracts/Authorizer.sol\":24976:24983  account */\n      dup3\n        /* \"contracts/Authorizer.sol\":24951:24975  _roles[role].members.add */\n      tag_74\n        /* \"contracts/Authorizer.sol\":24951:24984  _roles[role].members.add(account) */\n      jump\t// in\n    tag_142:\n        /* \"contracts/Authorizer.sol\":24947:25056  if (_roles[role].members.add(account)) {\r... */\n      iszero\n      tag_89\n      jumpi\n        /* \"contracts/Authorizer.sol\":25006:25044  RoleGranted(role, account, msg.sender) */\n      mload(0x40)\n        /* \"contracts/Authorizer.sol\":25033:25043  msg.sender */\n      caller\n      swap1\n      sub(shl(0xa0, 0x01), 0x01)\n        /* \"contracts/Authorizer.sol\":25006:25044  RoleGranted(role, account, msg.sender) */\n      dup4\n      and\n      swap1\n        /* \"contracts/Authorizer.sol\":25018:25022  role */\n      dup5\n      swap1\n        /* \"contracts/Authorizer.sol\":25006:25044  RoleGranted(role, account, msg.sender) */\n      0x2f8788117e7eff1d82e926ec794901d17c78024a50270940304540a733656f0d\n      swap1\n      0x00\n      swap1\n      log4\n        /* \"contracts/Authorizer.sol\":24877:25063  function _grantRole(bytes32 role, address account) private {\r... */\n      pop\n      pop\n      jump\t// out\n        /* \"contracts/Authorizer.sol\":25071:25261  function _revokeRole(bytes32 role, address account) private {\r... */\n    tag_94:\n        /* \"contracts/Authorizer.sol\":25146:25152  _roles */\n      0x00\n        /* \"contracts/Authorizer.sol\":25146:25158  _roles[role] */\n      dup3\n      dup2\n      mstore\n      0x20\n      dup2\n      swap1\n      mstore\n      0x40\n      swap1\n      keccak256\n        /* \"contracts/Authorizer.sol\":25146:25182  _roles[role].members.remove(account) */\n      tag_145\n      swap1\n        /* \"contracts/Authorizer.sol\":25174:25181  account */\n      dup3\n        /* \"contracts/Authorizer.sol\":25146:25173  _roles[role].members.remove */\n      tag_146\n        /* \"contracts/Authorizer.sol\":25146:25182  _roles[role].members.remove(account) */\n      jump\t// in\n    tag_145:\n        /* \"contracts/Authorizer.sol\":25142:25254  if (_roles[role].members.remove(account)) {\r... */\n      iszero\n      tag_89\n      jumpi\n        /* \"contracts/Authorizer.sol\":25204:25242  RoleRevoked(role, account, msg.sender) */\n      mload(0x40)\n        /* \"contracts/Authorizer.sol\":25231:25241  msg.sender */\n      caller\n      swap1\n      sub(shl(0xa0, 0x01), 0x01)\n        /* \"contracts/Authorizer.sol\":25204:25242  RoleRevoked(role, account, msg.sender) */\n      dup4\n      and\n      swap1\n        /* \"contracts/Authorizer.sol\":25216:25220  role */\n      dup5\n      swap1\n        /* \"contracts/Authorizer.sol\":25204:25242  RoleRevoked(role, account, msg.sender) */\n      0xf6391f5c32d9c69d2a47ea670b442974b53935d1edc7fd64eb21e047a839171b\n      swap1\n      0x00\n      swap1\n      log4\n        /* \"contracts/Authorizer.sol\":25071:25261  function _revokeRole(bytes32 role, address account) private {\r... */\n      pop\n      pop\n      jump\t// out\n        /* \"contracts/Authorizer.sol\":17213:17415  function at(AddressSet storage set, uint256 index) internal view returns (address) {\r... */\n    tag_97:\n        /* \"contracts/Authorizer.sol\":17316:17334  set._values.length */\n      dup2\n      sload\n        /* \"contracts/Authorizer.sol\":17287:17294  address */\n      0x00\n      swap1\n        /* \"contracts/Authorizer.sol\":17307:17365  _require(set._values.length > index, Errors.OUT_OF_BOUNDS) */\n      tag_149\n      swap1\n        /* \"contracts/Authorizer.sol\":17316:17342  set._values.length > index */\n      dup4\n      lt\n        /* \"contracts/Authorizer.sol\":7760:7763  100 */\n      0x64\n        /* \"contracts/Authorizer.sol\":17307:17315  _require */\n      tag_88\n        /* \"contracts/Authorizer.sol\":17307:17365  _require(set._values.length > index, Errors.OUT_OF_BOUNDS) */\n      jump\t// in\n    tag_149:\n        /* \"contracts/Authorizer.sol\":17383:17407  unchecked_at(set, index) */\n      tag_96\n        /* \"contracts/Authorizer.sol\":17396:17399  set */\n      dup4\n        /* \"contracts/Authorizer.sol\":17401:17406  index */\n      dup4\n        /* \"contracts/Authorizer.sol\":17383:17395  unchecked_at */\n      tag_151\n        /* \"contracts/Authorizer.sol\":17383:17407  unchecked_at(set, index) */\n      jump\t// in\n        /* \"contracts/Authorizer.sol\":16521:16657  function contains(AddressSet storage set, address value) internal view returns (bool) {\r... */\n    tag_100:\n      sub(shl(0xa0, 0x01), 0x01)\n        /* \"contracts/Authorizer.sol\":16625:16644  set._indexes[value] */\n      and\n        /* \"contracts/Authorizer.sol\":16601:16605  bool */\n      0x00\n        /* \"contracts/Authorizer.sol\":16625:16644  set._indexes[value] */\n      swap1\n      dup2\n      mstore\n        /* \"contracts/Authorizer.sol\":16625:16637  set._indexes */\n      0x01\n      swap2\n      swap1\n      swap2\n      add\n        /* \"contracts/Authorizer.sol\":16625:16644  set._indexes[value] */\n      0x20\n      mstore\n      0x40\n      swap1\n      keccak256\n      sload\n        /* \"contracts/Authorizer.sol\":16625:16649  set._indexes[value] != 0 */\n      iszero\n      iszero\n      swap1\n        /* \"contracts/Authorizer.sol\":16521:16657  function contains(AddressSet storage set, address value) internal view returns (bool) {\r... */\n      jump\t// out\n        /* \"contracts/Authorizer.sol\":16743:16859  function length(AddressSet storage set) internal view returns (uint256) {\r... */\n    tag_119:\n        /* \"contracts/Authorizer.sol\":16833:16851  set._values.length */\n      sload\n      swap1\n        /* \"contracts/Authorizer.sol\":16743:16859  function length(AddressSet storage set) internal view returns (uint256) {\r... */\n      jump\t// out\n        /* \"contracts/Authorizer.sol\":3929:7152  function _revert(uint256 errorCode) pure {\r... */\n    tag_140:\n      shl(0xe5, 0x461bcd)\n        /* \"contracts/Authorizer.sol\":6482:6485  0x0 */\n      0x00\n        /* \"contracts/Authorizer.sol\":6475:6554  mstore(0x0, 0x08c379a000000000000000000000000000000000000000000000000000000000) */\n      swap1\n      dup2\n      mstore\n        /* \"contracts/Authorizer.sol\":6695:6761  0x0000000000000000000000000000000000000000000000000000000000000020 */\n      0x20\n        /* \"contracts/Authorizer.sol\":6689:6693  0x04 */\n      0x04\n        /* \"contracts/Authorizer.sol\":6682:6762  mstore(0x04, 0x0000000000000000000000000000000000000000000000000000000000000020) */\n      mstore\n        /* \"contracts/Authorizer.sol\":6839:6840  7 */\n      0x07\n        /* \"contracts/Authorizer.sol\":6833:6837  0x24 */\n      0x24\n        /* \"contracts/Authorizer.sol\":6826:6841  mstore(0x24, 7) */\n      mstore\n        /* \"contracts/Authorizer.sol\":5885:5958  add(0x42414c23000000, add(add(units, shl(8, tenths)), shl(16, hundreds))) */\n      0x42414c23000030\n        /* \"contracts/Authorizer.sol\":5081:5083  10 */\n      0x0a\n        /* \"contracts/Authorizer.sol\":5116:5134  div(errorCode, 10) */\n      dup1\n      dup5\n      div\n        /* \"contracts/Authorizer.sol\":5162:5180  mod(errorCode, 10) */\n      dup2\n      dup2\n      mod\n        /* \"contracts/Authorizer.sol\":5086:5090  0x30 */\n      0x30\n        /* \"contracts/Authorizer.sol\":5158:5187  add(mod(errorCode, 10), 0x30) */\n      swap1\n      dup2\n      add\n        /* \"contracts/Authorizer.sol\":5926:5927  8 */\n      0x08\n        /* \"contracts/Authorizer.sol\":5922:5936  shl(8, tenths) */\n      shl\n        /* \"contracts/Authorizer.sol\":5066:5084  mod(errorCode, 10) */\n      swap6\n      dup4\n      swap1\n      mod\n        /* \"contracts/Authorizer.sol\":5911:5937  add(units, shl(8, tenths)) */\n      swap6\n      swap1\n      swap6\n      add\n        /* \"contracts/Authorizer.sol\":5212:5230  div(errorCode, 10) */\n      swap1\n      dup3\n      swap1\n      div\n        /* \"contracts/Authorizer.sol\":5260:5278  mod(errorCode, 10) */\n      swap2\n      dup3\n      mod\n        /* \"contracts/Authorizer.sol\":5256:5285  add(mod(errorCode, 10), 0x30) */\n      swap1\n      swap5\n      add\n        /* \"contracts/Authorizer.sol\":5943:5945  16 */\n      0x10\n        /* \"contracts/Authorizer.sol\":5939:5956  shl(16, hundreds) */\n      shl\n        /* \"contracts/Authorizer.sol\":5907:5957  add(add(units, shl(8, tenths)), shl(16, hundreds)) */\n      swap4\n      swap1\n      swap4\n      add\n        /* \"contracts/Authorizer.sol\":5885:5958  add(0x42414c23000000, add(add(units, shl(8, tenths)), shl(16, hundreds))) */\n      add\n        /* \"contracts/Authorizer.sol\":5880:5883  200 */\n      0xc8\n        /* \"contracts/Authorizer.sol\":5876:5959  shl(200, add(0x42414c23000000, add(add(units, shl(8, tenths)), shl(16, hundreds)))) */\n      shl\n        /* \"contracts/Authorizer.sol\":6908:6912  0x44 */\n      0x44\n        /* \"contracts/Authorizer.sol\":6901:6927  mstore(0x44, revertReason) */\n      mstore\n        /* \"contracts/Authorizer.sol\":7138:7141  100 */\n      0x64\n      swap1\n        /* \"contracts/Authorizer.sol\":7128:7142  revert(0, 100) */\n      revert\n        /* \"contracts/Authorizer.sol\":14871:16435  function remove(AddressSet storage set, address value) internal returns (bool) {\r... */\n    tag_146:\n      sub(shl(0xa0, 0x01), 0x01)\n        /* \"contracts/Authorizer.sol\":15083:15102  set._indexes[value] */\n      dup2\n      and\n        /* \"contracts/Authorizer.sol\":14944:14948  bool */\n      0x00\n        /* \"contracts/Authorizer.sol\":15083:15102  set._indexes[value] */\n      swap1\n      dup2\n      mstore\n        /* \"contracts/Authorizer.sol\":15083:15095  set._indexes */\n      0x01\n      dup4\n      add\n        /* \"contracts/Authorizer.sol\":15083:15102  set._indexes[value] */\n      0x20\n      mstore\n      0x40\n      dup2\n      keccak256\n      sload\n        /* \"contracts/Authorizer.sol\":15119:15134  valueIndex != 0 */\n      dup1\n      iszero\n        /* \"contracts/Authorizer.sol\":15115:16428  if (valueIndex != 0) {\r... */\n      tag_156\n      jumpi\n        /* \"contracts/Authorizer.sol\":15567:15585  set._values.length */\n      dup4\n      sload\n      not(0x00)\n        /* \"contracts/Authorizer.sol\":15518:15532  valueIndex - 1 */\n      dup1\n      dup4\n      add\n      swap2\n        /* \"contracts/Authorizer.sol\":15567:15589  set._values.length - 1 */\n      swap1\n      dup2\n      add\n      swap1\n        /* \"contracts/Authorizer.sol\":15494:15515  uint256 toDeleteIndex */\n      0x00\n      swap1\n        /* \"contracts/Authorizer.sol\":15567:15570  set */\n      dup8\n      swap1\n        /* \"contracts/Authorizer.sol\":15567:15589  set._values.length - 1 */\n      dup4\n      swap1\n        /* \"contracts/Authorizer.sol\":15854:15876  set._values[lastIndex] */\n      dup2\n      lt\n      tag_157\n      jumpi\n      invalid\n    tag_157:\n      0x00\n      swap2\n      dup3\n      mstore\n      0x20\n      swap1\n      swap2\n      keccak256\n      add\n      sload\n        /* \"contracts/Authorizer.sol\":15971:15997  set._values[toDeleteIndex] */\n      dup8\n      sload\n      sub(shl(0xa0, 0x01), 0x01)\n        /* \"contracts/Authorizer.sol\":15854:15876  set._values[lastIndex] */\n      swap1\n      swap2\n      and\n      swap2\n      pop\n      dup2\n      swap1\n        /* \"contracts/Authorizer.sol\":15971:15974  set */\n      dup9\n      swap1\n        /* \"contracts/Authorizer.sol\":15983:15996  toDeleteIndex */\n      dup6\n      swap1\n        /* \"contracts/Authorizer.sol\":15971:15997  set._values[toDeleteIndex] */\n      dup2\n      lt\n      tag_159\n      jumpi\n      invalid\n    tag_159:\n      0x00\n      swap2\n      dup3\n      mstore\n      0x20\n      dup1\n      dup4\n      keccak256\n      swap2\n      swap1\n      swap2\n      add\n        /* \"contracts/Authorizer.sol\":15971:16009  set._values[toDeleteIndex] = lastValue */\n      dup1\n      sload\n      not(sub(shl(0xa0, 0x01), 0x01))\n      and\n      sub(shl(0xa0, 0x01), 0x01)\n      swap5\n      dup6\n      and\n      or\n      swap1\n      sstore\n        /* \"contracts/Authorizer.sol\":16077:16100  set._indexes[lastValue] */\n      swap2\n      dup4\n      and\n      dup2\n      mstore\n      0x01\n        /* \"contracts/Authorizer.sol\":16077:16089  set._indexes */\n      dup10\n      dup2\n      add\n        /* \"contracts/Authorizer.sol\":16077:16100  set._indexes[lastValue] */\n      swap1\n      swap3\n      mstore\n      0x40\n      swap1\n      keccak256\n        /* \"contracts/Authorizer.sol\":16103:16120  toDeleteIndex + 1 */\n      swap1\n      dup5\n      add\n        /* \"contracts/Authorizer.sol\":16077:16120  set._indexes[lastValue] = toDeleteIndex + 1 */\n      swap1\n      sstore\n        /* \"contracts/Authorizer.sol\":16229:16246  set._values.pop() */\n      dup7\n      sload\n        /* \"contracts/Authorizer.sol\":16077:16089  set._indexes */\n      dup8\n      swap1\n        /* \"contracts/Authorizer.sol\":16229:16246  set._values.pop() */\n      dup1\n      tag_161\n      jumpi\n      invalid\n    tag_161:\n      0x00\n      dup3\n      dup2\n      mstore\n      0x20\n      dup1\n      dup3\n      keccak256\n      dup4\n      add\n      not(0x00)\n      swap1\n      dup2\n      add\n      dup1\n      sload\n      not(sub(shl(0xa0, 0x01), 0x01))\n      and\n      swap1\n      sstore\n      swap1\n      swap3\n      add\n      swap1\n      swap3\n      sstore\n      sub(shl(0xa0, 0x01), 0x01)\n        /* \"contracts/Authorizer.sol\":16324:16343  set._indexes[value] */\n      dup9\n      and\n      dup3\n      mstore\n        /* \"contracts/Authorizer.sol\":16229:16246  set._values.pop() */\n      0x01\n        /* \"contracts/Authorizer.sol\":16324:16336  set._indexes */\n      dup10\n      dup2\n      add\n        /* \"contracts/Authorizer.sol\":16324:16343  set._indexes[value] */\n      swap1\n      swap2\n      mstore\n      0x40\n      dup3\n      keccak256\n        /* \"contracts/Authorizer.sol\":16317:16343  delete set._indexes[value] */\n      swap2\n      swap1\n      swap2\n      sstore\n        /* \"contracts/Authorizer.sol\":16229:16246  set._values.pop() */\n      swap5\n      pop\n        /* \"contracts/Authorizer.sol\":16360:16371  return true */\n      tag_95\n      swap4\n      pop\n      pop\n      pop\n      pop\n      jump\n        /* \"contracts/Authorizer.sol\":15115:16428  if (valueIndex != 0) {\r... */\n    tag_156:\n        /* \"contracts/Authorizer.sol\":16411:16416  false */\n      0x00\n        /* \"contracts/Authorizer.sol\":16404:16416  return false */\n      swap2\n      pop\n      pop\n      jump(tag_95)\n        /* \"contracts/Authorizer.sol\":17736:17873  function unchecked_at(AddressSet storage set, uint256 index) internal view returns (address) {\r... */\n    tag_151:\n        /* \"contracts/Authorizer.sol\":17820:17827  address */\n      0x00\n        /* \"contracts/Authorizer.sol\":17847:17850  set */\n      dup3\n        /* \"contracts/Authorizer.sol\":17847:17858  set._values */\n      0x00\n      add\n        /* \"contracts/Authorizer.sol\":17859:17864  index */\n      dup3\n        /* \"contracts/Authorizer.sol\":17847:17865  set._values[index] */\n      dup2\n      sload\n      dup2\n      lt\n      tag_165\n      jumpi\n      invalid\n    tag_165:\n      0x00\n      swap2\n      dup3\n      mstore\n      0x20\n      swap1\n      swap2\n      keccak256\n      add\n      sload\n      sub(shl(0xa0, 0x01), 0x01)\n      and\n      swap4\n        /* \"contracts/Authorizer.sol\":17736:17873  function unchecked_at(AddressSet storage set, uint256 index) internal view returns (address) {\r... */\n      swap3\n      pop\n      pop\n      pop\n      jump\t// out\n\n    auxdata: 0xa26469706673582212203c9c741e14d3734f7720a21b66552bf4d7753c791f8e6122f5a4799b696178f164736f6c63430007060033\n}\n",
				"bytecode": {
					"linkReferences": {},
					"object": "608060405234801561001057600080fd5b50604051610c79380380610c798339818101604052602081101561003357600080fd5b5051610040600082610046565b5061013d565b6100508282610054565b5050565b6000828152602081815260409091206100769183906108036100b7821b17901c565b156100505760405133906001600160a01b0383169084907f2f8788117e7eff1d82e926ec794901d17c78024a50270940304540a733656f0d90600090a45050565b60006100c3838361011c565b61011257508154600180820184556000848152602080822090930180546001600160a01b0319166001600160a01b03861690811790915585549082528286019093526040902091909155610116565b5060005b92915050565b6001600160a01b031660009081526001919091016020526040902054151590565b610b2d8061014c6000396000f3fe608060405234801561001057600080fd5b50600436106100cf5760003560e01c8063988360a31161008c578063a73cb2ab11610066578063a73cb2ab146103e7578063ca15c8731461050a578063d547741f14610527578063fcd7627e14610553576100cf565b8063988360a3146102ff5780639be2a884146103ab578063a217fddf146103df576100cf565b806318b2cde9146100d4578063248a9ca3146101f95780632f2ff15d1461022857806336568abe146102545780639010d07c1461028057806391d14854146102bf575b600080fd5b6101f7600480360360408110156100ea57600080fd5b810190602081018135600160201b81111561010457600080fd5b82018360208201111561011657600080fd5b803590602001918460208302840111600160201b8311171561013757600080fd5b9190808060200260200160405190810160405280939291908181526020018383602002808284376000920191909152509295949360208101935035915050600160201b81111561018657600080fd5b82018360208201111561019857600080fd5b803590602001918460208302840111600160201b831117156101b957600080fd5b9190808060200260200160405190810160405280939291908181526020018383602002808284376000920191909152509295506105ff945050505050565b005b6102166004803603602081101561020f57600080fd5b5035610654565b60408051918252519081900360200190f35b6101f76004803603604081101561023e57600080fd5b50803590602001356001600160a01b0316610669565b6101f76004803603604081101561026a57600080fd5b50803590602001356001600160a01b031661069f565b6102a36004803603604081101561029657600080fd5b50803590602001356106c0565b604080516001600160a01b039092168252519081900360200190f35b6102eb600480360360408110156102d557600080fd5b50803590602001356001600160a01b03166106e1565b604080519115158252519081900360200190f35b6101f76004803603604081101561031557600080fd5b810190602081018135600160201b81111561032f57600080fd5b82018360208201111561034157600080fd5b803590602001918460208302840111600160201b8311171561036257600080fd5b919080806020026020016040519081016040528093929190818152602001838360200280828437600092019190915250929550505090356001600160a01b031691506106f99050565b6102eb600480360360608110156103c157600080fd5b508035906001600160a01b036020820135811691604001351661072a565b61021661073e565b6101f7600480360360408110156103fd57600080fd5b810190602081018135600160201b81111561041757600080fd5b82018360208201111561042957600080fd5b803590602001918460208302840111600160201b8311171561044a57600080fd5b9190808060200260200160405190810160405280939291908181526020018383602002808284376000920191909152509295949360208101935035915050600160201b81111561049957600080fd5b8201836020820111156104ab57600080fd5b803590602001918460208302840111600160201b831117156104cc57600080fd5b919080806020026020016040519081016040528093929190818152602001838360200280828437600092019190915250929550610743945050505050565b6102166004803603602081101561052057600080fd5b5035610793565b6101f76004803603604081101561053d57600080fd5b50803590602001356001600160a01b03166107aa565b6101f76004803603604081101561056957600080fd5b810190602081018135600160201b81111561058357600080fd5b82018360208201111561059557600080fd5b803590602001918460208302840111600160201b831117156105b657600080fd5b919080806020026020016040519081016040528093929190818152602001838360200280828437600092019190915250929550505090356001600160a01b031691506107d29050565b61060b82518251610866565b60005b825181101561064f5761064783828151811061062657fe5b602002602001015183838151811061063a57fe5b60200260200101516107aa565b60010161060e565b505050565b60009081526020819052604090206002015490565b6000828152602081905260409020600201546106919061068990336106e1565b6101a661086f565b61069b828261087d565b5050565b6106b66001600160a01b03821633146101a861086f565b61069b82826108d6565b60008281526020819052604081206106d8908361092f565b90505b92915050565b60008281526020819052604081206106d8908361094b565b60005b825181101561064f5761072283828151811061071457fe5b6020026020010151836107aa565b6001016106fc565b600061073684846106e1565b949350505050565b600081565b61074f82518251610866565b60005b825181101561064f5761078b83828151811061076a57fe5b602002602001015183838151811061077e57fe5b6020026020010151610669565b600101610752565b60008181526020819052604081206106db9061096c565b6000828152602081905260409020600201546106b6906107ca90336106e1565b6101a761086f565b60005b825181101561064f576107fb8382815181106107ed57fe5b602002602001015183610669565b6001016107d5565b600061080f838361094b565b61085e57508154600180820184556000848152602080822090930180546001600160a01b0319166001600160a01b038616908117909155855490825282860190935260409020919091556106db565b5060006106db565b61069b81831460675b8161069b5761069b81610970565b60008281526020819052604090206108959082610803565b1561069b5760405133906001600160a01b0383169084907f2f8788117e7eff1d82e926ec794901d17c78024a50270940304540a733656f0d90600090a45050565b60008281526020819052604090206108ee90826109c3565b1561069b5760405133906001600160a01b0383169084907ff6391f5c32d9c69d2a47ea670b442974b53935d1edc7fd64eb21e047a839171b90600090a45050565b8154600090610941908310606461086f565b6106d88383610aca565b6001600160a01b031660009081526001919091016020526040902054151590565b5490565b62461bcd60e51b6000908152602060045260076024526642414c23000030600a808404818106603090810160081b95839006959095019082900491820690940160101b939093010160c81b604452606490fd5b6001600160a01b03811660009081526001830160205260408120548015610ac05783546000198083019190810190600090879083908110610a0057fe5b60009182526020909120015487546001600160a01b0390911691508190889085908110610a2957fe5b600091825260208083209190910180546001600160a01b0319166001600160a01b03948516179055918316815260018981019092526040902090840190558654879080610a7257fe5b60008281526020808220830160001990810180546001600160a01b03191690559092019092556001600160a01b03881682526001898101909152604082209190915594506106db9350505050565b60009150506106db565b6000826000018281548110610adb57fe5b6000918252602090912001546001600160a01b0316939250505056fea26469706673582212203c9c741e14d3734f7720a21b66552bf4d7753c791f8e6122f5a4799b696178f164736f6c63430007060033",
					"opcodes": "PUSH1 0x80 PUSH1 0x40 MSTORE CALLVALUE DUP1 ISZERO PUSH2 0x10 JUMPI PUSH1 0x0 DUP1 REVERT JUMPDEST POP PUSH1 0x40 MLOAD PUSH2 0xC79 CODESIZE SUB DUP1 PUSH2 0xC79 DUP4 CODECOPY DUP2 DUP2 ADD PUSH1 0x40 MSTORE PUSH1 0x20 DUP2 LT ISZERO PUSH2 0x33 JUMPI PUSH1 0x0 DUP1 REVERT JUMPDEST POP MLOAD PUSH2 0x40 PUSH1 0x0 DUP3 PUSH2 0x46 JUMP JUMPDEST POP PUSH2 0x13D JUMP JUMPDEST PUSH2 0x50 DUP3 DUP3 PUSH2 0x54 JUMP JUMPDEST POP POP JUMP JUMPDEST PUSH1 0x0 DUP3 DUP2 MSTORE PUSH1 0x20 DUP2 DUP2 MSTORE PUSH1 0x40 SWAP1 SWAP2 KECCAK256 PUSH2 0x76 SWAP2 DUP4 SWAP1 PUSH2 0x803 PUSH2 0xB7 DUP3 SHL OR SWAP1 SHR JUMP JUMPDEST ISZERO PUSH2 0x50 JUMPI PUSH1 0x40 MLOAD CALLER SWAP1 PUSH1 0x1 PUSH1 0x1 PUSH1 0xA0 SHL SUB DUP4 AND SWAP1 DUP5 SWAP1 PUSH32 0x2F8788117E7EFF1D82E926EC794901D17C78024A50270940304540A733656F0D SWAP1 PUSH1 0x0 SWAP1 LOG4 POP POP JUMP JUMPDEST PUSH1 0x0 PUSH2 0xC3 DUP4 DUP4 PUSH2 0x11C JUMP JUMPDEST PUSH2 0x112 JUMPI POP DUP2 SLOAD PUSH1 0x1 DUP1 DUP3 ADD DUP5 SSTORE PUSH1 0x0 DUP5 DUP2 MSTORE PUSH1 0x20 DUP1 DUP3 KECCAK256 SWAP1 SWAP4 ADD DUP1 SLOAD PUSH1 0x1 PUSH1 0x1 PUSH1 0xA0 SHL SUB NOT AND PUSH1 0x1 PUSH1 0x1 PUSH1 0xA0 SHL SUB DUP7 AND SWAP1 DUP2 OR SWAP1 SWAP2 SSTORE DUP6 SLOAD SWAP1 DUP3 MSTORE DUP3 DUP7 ADD SWAP1 SWAP4 MSTORE PUSH1 0x40 SWAP1 KECCAK256 SWAP2 SWAP1 SWAP2 SSTORE PUSH2 0x116 JUMP JUMPDEST POP PUSH1 0x0 JUMPDEST SWAP3 SWAP2 POP POP JUMP JUMPDEST PUSH1 0x1 PUSH1 0x1 PUSH1 0xA0 SHL SUB AND PUSH1 0x0 SWAP1 DUP2 MSTORE PUSH1 0x1 SWAP2 SWAP1 SWAP2 ADD PUSH1 0x20 MSTORE PUSH1 0x40 SWAP1 KECCAK256 SLOAD ISZERO ISZERO SWAP1 JUMP JUMPDEST PUSH2 0xB2D DUP1 PUSH2 0x14C PUSH1 0x0 CODECOPY PUSH1 0x0 RETURN INVALID PUSH1 0x80 PUSH1 0x40 MSTORE CALLVALUE DUP1 ISZERO PUSH2 0x10 JUMPI PUSH1 0x0 DUP1 REVERT JUMPDEST POP PUSH1 0x4 CALLDATASIZE LT PUSH2 0xCF JUMPI PUSH1 0x0 CALLDATALOAD PUSH1 0xE0 SHR DUP1 PUSH4 0x988360A3 GT PUSH2 0x8C JUMPI DUP1 PUSH4 0xA73CB2AB GT PUSH2 0x66 JUMPI DUP1 PUSH4 0xA73CB2AB EQ PUSH2 0x3E7 JUMPI DUP1 PUSH4 0xCA15C873 EQ PUSH2 0x50A JUMPI DUP1 PUSH4 0xD547741F EQ PUSH2 0x527 JUMPI DUP1 PUSH4 0xFCD7627E EQ PUSH2 0x553 JUMPI PUSH2 0xCF JUMP JUMPDEST DUP1 PUSH4 0x988360A3 EQ PUSH2 0x2FF JUMPI DUP1 PUSH4 0x9BE2A884 EQ PUSH2 0x3AB JUMPI DUP1 PUSH4 0xA217FDDF EQ PUSH2 0x3DF JUMPI PUSH2 0xCF JUMP JUMPDEST DUP1 PUSH4 0x18B2CDE9 EQ PUSH2 0xD4 JUMPI DUP1 PUSH4 0x248A9CA3 EQ PUSH2 0x1F9 JUMPI DUP1 PUSH4 0x2F2FF15D EQ PUSH2 0x228 JUMPI DUP1 PUSH4 0x36568ABE EQ PUSH2 0x254 JUMPI DUP1 PUSH4 0x9010D07C EQ PUSH2 0x280 JUMPI DUP1 PUSH4 0x91D14854 EQ PUSH2 0x2BF JUMPI JUMPDEST PUSH1 0x0 DUP1 REVERT JUMPDEST PUSH2 0x1F7 PUSH1 0x4 DUP1 CALLDATASIZE SUB PUSH1 0x40 DUP2 LT ISZERO PUSH2 0xEA JUMPI PUSH1 0x0 DUP1 REVERT JUMPDEST DUP2 ADD SWAP1 PUSH1 0x20 DUP2 ADD DUP2 CALLDATALOAD PUSH1 0x1 PUSH1 0x20 SHL DUP2 GT ISZERO PUSH2 0x104 JUMPI PUSH1 0x0 DUP1 REVERT JUMPDEST DUP3 ADD DUP4 PUSH1 0x20 DUP3 ADD GT ISZERO PUSH2 0x116 JUMPI PUSH1 0x0 DUP1 REVERT JUMPDEST DUP1 CALLDATALOAD SWAP1 PUSH1 0x20 ADD SWAP2 DUP5 PUSH1 0x20 DUP4 MUL DUP5 ADD GT PUSH1 0x1 PUSH1 0x20 SHL DUP4 GT OR ISZERO PUSH2 0x137 JUMPI PUSH1 0x0 DUP1 REVERT JUMPDEST SWAP2 SWAP1 DUP1 DUP1 PUSH1 0x20 MUL PUSH1 0x20 ADD PUSH1 0x40 MLOAD SWAP1 DUP2 ADD PUSH1 0x40 MSTORE DUP1 SWAP4 SWAP3 SWAP2 SWAP1 DUP2 DUP2 MSTORE PUSH1 0x20 ADD DUP4 DUP4 PUSH1 0x20 MUL DUP1 DUP3 DUP5 CALLDATACOPY PUSH1 0x0 SWAP3 ADD SWAP2 SWAP1 SWAP2 MSTORE POP SWAP3 SWAP6 SWAP5 SWAP4 PUSH1 0x20 DUP2 ADD SWAP4 POP CALLDATALOAD SWAP2 POP POP PUSH1 0x1 PUSH1 0x20 SHL DUP2 GT ISZERO PUSH2 0x186 JUMPI PUSH1 0x0 DUP1 REVERT JUMPDEST DUP3 ADD DUP4 PUSH1 0x20 DUP3 ADD GT ISZERO PUSH2 0x198 JUMPI PUSH1 0x0 DUP1 REVERT JUMPDEST DUP1 CALLDATALOAD SWAP1 PUSH1 0x20 ADD SWAP2 DUP5 PUSH1 0x20 DUP4 MUL DUP5 ADD GT PUSH1 0x1 PUSH1 0x20 SHL DUP4 GT OR ISZERO PUSH2 0x1B9 JUMPI PUSH1 0x0 DUP1 REVERT JUMPDEST SWAP2 SWAP1 DUP1 DUP1 PUSH1 0x20 MUL PUSH1 0x20 ADD PUSH1 0x40 MLOAD SWAP1 DUP2 ADD PUSH1 0x40 MSTORE DUP1 SWAP4 SWAP3 SWAP2 SWAP1 DUP2 DUP2 MSTORE PUSH1 0x20 ADD DUP4 DUP4 PUSH1 0x20 MUL DUP1 DUP3 DUP5 CALLDATACOPY PUSH1 0x0 SWAP3 ADD SWAP2 SWAP1 SWAP2 MSTORE POP SWAP3 SWAP6 POP PUSH2 0x5FF SWAP5 POP POP POP POP POP JUMP JUMPDEST STOP JUMPDEST PUSH2 0x216 PUSH1 0x4 DUP1 CALLDATASIZE SUB PUSH1 0x20 DUP2 LT ISZERO PUSH2 0x20F JUMPI PUSH1 0x0 DUP1 REVERT JUMPDEST POP CALLDATALOAD PUSH2 0x654 JUMP JUMPDEST PUSH1 0x40 DUP1 MLOAD SWAP2 DUP3 MSTORE MLOAD SWAP1 DUP2 SWAP1 SUB PUSH1 0x20 ADD SWAP1 RETURN JUMPDEST PUSH2 0x1F7 PUSH1 0x4 DUP1 CALLDATASIZE SUB PUSH1 0x40 DUP2 LT ISZERO PUSH2 0x23E JUMPI PUSH1 0x0 DUP1 REVERT JUMPDEST POP DUP1 CALLDATALOAD SWAP1 PUSH1 0x20 ADD CALLDATALOAD PUSH1 0x1 PUSH1 0x1 PUSH1 0xA0 SHL SUB AND PUSH2 0x669 JUMP JUMPDEST PUSH2 0x1F7 PUSH1 0x4 DUP1 CALLDATASIZE SUB PUSH1 0x40 DUP2 LT ISZERO PUSH2 0x26A JUMPI PUSH1 0x0 DUP1 REVERT JUMPDEST POP DUP1 CALLDATALOAD SWAP1 PUSH1 0x20 ADD CALLDATALOAD PUSH1 0x1 PUSH1 0x1 PUSH1 0xA0 SHL SUB AND PUSH2 0x69F JUMP JUMPDEST PUSH2 0x2A3 PUSH1 0x4 DUP1 CALLDATASIZE SUB PUSH1 0x40 DUP2 LT ISZERO PUSH2 0x296 JUMPI PUSH1 0x0 DUP1 REVERT JUMPDEST POP DUP1 CALLDATALOAD SWAP1 PUSH1 0x20 ADD CALLDATALOAD PUSH2 0x6C0 JUMP JUMPDEST PUSH1 0x40 DUP1 MLOAD PUSH1 0x1 PUSH1 0x1 PUSH1 0xA0 SHL SUB SWAP1 SWAP3 AND DUP3 MSTORE MLOAD SWAP1 DUP2 SWAP1 SUB PUSH1 0x20 ADD SWAP1 RETURN JUMPDEST PUSH2 0x2EB PUSH1 0x4 DUP1 CALLDATASIZE SUB PUSH1 0x40 DUP2 LT ISZERO PUSH2 0x2D5 JUMPI PUSH1 0x0 DUP1 REVERT JUMPDEST POP DUP1 CALLDATALOAD SWAP1 PUSH1 0x20 ADD CALLDATALOAD PUSH1 0x1 PUSH1 0x1 PUSH1 0xA0 SHL SUB AND PUSH2 0x6E1 JUMP JUMPDEST PUSH1 0x40 DUP1 MLOAD SWAP2 ISZERO ISZERO DUP3 MSTORE MLOAD SWAP1 DUP2 SWAP1 SUB PUSH1 0x20 ADD SWAP1 RETURN JUMPDEST PUSH2 0x1F7 PUSH1 0x4 DUP1 CALLDATASIZE SUB PUSH1 0x40 DUP2 LT ISZERO PUSH2 0x315 JUMPI PUSH1 0x0 DUP1 REVERT JUMPDEST DUP2 ADD SWAP1 PUSH1 0x20 DUP2 ADD DUP2 CALLDATALOAD PUSH1 0x1 PUSH1 0x20 SHL DUP2 GT ISZERO PUSH2 0x32F JUMPI PUSH1 0x0 DUP1 REVERT JUMPDEST DUP3 ADD DUP4 PUSH1 0x20 DUP3 ADD GT ISZERO PUSH2 0x341 JUMPI PUSH1 0x0 DUP1 REVERT JUMPDEST DUP1 CALLDATALOAD SWAP1 PUSH1 0x20 ADD SWAP2 DUP5 PUSH1 0x20 DUP4 MUL DUP5 ADD GT PUSH1 0x1 PUSH1 0x20 SHL DUP4 GT OR ISZERO PUSH2 0x362 JUMPI PUSH1 0x0 DUP1 REVERT JUMPDEST SWAP2 SWAP1 DUP1 DUP1 PUSH1 0x20 MUL PUSH1 0x20 ADD PUSH1 0x40 MLOAD SWAP1 DUP2 ADD PUSH1 0x40 MSTORE DUP1 SWAP4 SWAP3 SWAP2 SWAP1 DUP2 DUP2 MSTORE PUSH1 0x20 ADD DUP4 DUP4 PUSH1 0x20 MUL DUP1 DUP3 DUP5 CALLDATACOPY PUSH1 0x0 SWAP3 ADD SWAP2 SWAP1 SWAP2 MSTORE POP SWAP3 SWAP6 POP POP POP SWAP1 CALLDATALOAD PUSH1 0x1 PUSH1 0x1 PUSH1 0xA0 SHL SUB AND SWAP2 POP PUSH2 0x6F9 SWAP1 POP JUMP JUMPDEST PUSH2 0x2EB PUSH1 0x4 DUP1 CALLDATASIZE SUB PUSH1 0x60 DUP2 LT ISZERO PUSH2 0x3C1 JUMPI PUSH1 0x0 DUP1 REVERT JUMPDEST POP DUP1 CALLDATALOAD SWAP1 PUSH1 0x1 PUSH1 0x1 PUSH1 0xA0 SHL SUB PUSH1 0x20 DUP3 ADD CALLDATALOAD DUP2 AND SWAP2 PUSH1 0x40 ADD CALLDATALOAD AND PUSH2 0x72A JUMP JUMPDEST PUSH2 0x216 PUSH2 0x73E JUMP JUMPDEST PUSH2 0x1F7 PUSH1 0x4 DUP1 CALLDATASIZE SUB PUSH1 0x40 DUP2 LT ISZERO PUSH2 0x3FD JUMPI PUSH1 0x0 DUP1 REVERT JUMPDEST DUP2 ADD SWAP1 PUSH1 0x20 DUP2 ADD DUP2 CALLDATALOAD PUSH1 0x1 PUSH1 0x20 SHL DUP2 GT ISZERO PUSH2 0x417 JUMPI PUSH1 0x0 DUP1 REVERT JUMPDEST DUP3 ADD DUP4 PUSH1 0x20 DUP3 ADD GT ISZERO PUSH2 0x429 JUMPI PUSH1 0x0 DUP1 REVERT JUMPDEST DUP1 CALLDATALOAD SWAP1 PUSH1 0x20 ADD SWAP2 DUP5 PUSH1 0x20 DUP4 MUL DUP5 ADD GT PUSH1 0x1 PUSH1 0x20 SHL DUP4 GT OR ISZERO PUSH2 0x44A JUMPI PUSH1 0x0 DUP1 REVERT JUMPDEST SWAP2 SWAP1 DUP1 DUP1 PUSH1 0x20 MUL PUSH1 0x20 ADD PUSH1 0x40 MLOAD SWAP1 DUP2 ADD PUSH1 0x40 MSTORE DUP1 SWAP4 SWAP3 SWAP2 SWAP1 DUP2 DUP2 MSTORE PUSH1 0x20 ADD DUP4 DUP4 PUSH1 0x20 MUL DUP1 DUP3 DUP5 CALLDATACOPY PUSH1 0x0 SWAP3 ADD SWAP2 SWAP1 SWAP2 MSTORE POP SWAP3 SWAP6 SWAP5 SWAP4 PUSH1 0x20 DUP2 ADD SWAP4 POP CALLDATALOAD SWAP2 POP POP PUSH1 0x1 PUSH1 0x20 SHL DUP2 GT ISZERO PUSH2 0x499 JUMPI PUSH1 0x0 DUP1 REVERT JUMPDEST DUP3 ADD DUP4 PUSH1 0x20 DUP3 ADD GT ISZERO PUSH2 0x4AB JUMPI PUSH1 0x0 DUP1 REVERT JUMPDEST DUP1 CALLDATALOAD SWAP1 PUSH1 0x20 ADD SWAP2 DUP5 PUSH1 0x20 DUP4 MUL DUP5 ADD GT PUSH1 0x1 PUSH1 0x20 SHL DUP4 GT OR ISZERO PUSH2 0x4CC JUMPI PUSH1 0x0 DUP1 REVERT JUMPDEST SWAP2 SWAP1 DUP1 DUP1 PUSH1 0x20 MUL PUSH1 0x20 ADD PUSH1 0x40 MLOAD SWAP1 DUP2 ADD PUSH1 0x40 MSTORE DUP1 SWAP4 SWAP3 SWAP2 SWAP1 DUP2 DUP2 MSTORE PUSH1 0x20 ADD DUP4 DUP4 PUSH1 0x20 MUL DUP1 DUP3 DUP5 CALLDATACOPY PUSH1 0x0 SWAP3 ADD SWAP2 SWAP1 SWAP2 MSTORE POP SWAP3 SWAP6 POP PUSH2 0x743 SWAP5 POP POP POP POP POP JUMP JUMPDEST PUSH2 0x216 PUSH1 0x4 DUP1 CALLDATASIZE SUB PUSH1 0x20 DUP2 LT ISZERO PUSH2 0x520 JUMPI PUSH1 0x0 DUP1 REVERT JUMPDEST POP CALLDATALOAD PUSH2 0x793 JUMP JUMPDEST PUSH2 0x1F7 PUSH1 0x4 DUP1 CALLDATASIZE SUB PUSH1 0x40 DUP2 LT ISZERO PUSH2 0x53D JUMPI PUSH1 0x0 DUP1 REVERT JUMPDEST POP DUP1 CALLDATALOAD SWAP1 PUSH1 0x20 ADD CALLDATALOAD PUSH1 0x1 PUSH1 0x1 PUSH1 0xA0 SHL SUB AND PUSH2 0x7AA JUMP JUMPDEST PUSH2 0x1F7 PUSH1 0x4 DUP1 CALLDATASIZE SUB PUSH1 0x40 DUP2 LT ISZERO PUSH2 0x569 JUMPI PUSH1 0x0 DUP1 REVERT JUMPDEST DUP2 ADD SWAP1 PUSH1 0x20 DUP2 ADD DUP2 CALLDATALOAD PUSH1 0x1 PUSH1 0x20 SHL DUP2 GT ISZERO PUSH2 0x583 JUMPI PUSH1 0x0 DUP1 REVERT JUMPDEST DUP3 ADD DUP4 PUSH1 0x20 DUP3 ADD GT ISZERO PUSH2 0x595 JUMPI PUSH1 0x0 DUP1 REVERT JUMPDEST DUP1 CALLDATALOAD SWAP1 PUSH1 0x20 ADD SWAP2 DUP5 PUSH1 0x20 DUP4 MUL DUP5 ADD GT PUSH1 0x1 PUSH1 0x20 SHL DUP4 GT OR ISZERO PUSH2 0x5B6 JUMPI PUSH1 0x0 DUP1 REVERT JUMPDEST SWAP2 SWAP1 DUP1 DUP1 PUSH1 0x20 MUL PUSH1 0x20 ADD PUSH1 0x40 MLOAD SWAP1 DUP2 ADD PUSH1 0x40 MSTORE DUP1 SWAP4 SWAP3 SWAP2 SWAP1 DUP2 DUP2 MSTORE PUSH1 0x20 ADD DUP4 DUP4 PUSH1 0x20 MUL DUP1 DUP3 DUP5 CALLDATACOPY PUSH1 0x0 SWAP3 ADD SWAP2 SWAP1 SWAP2 MSTORE POP SWAP3 SWAP6 POP POP POP SWAP1 CALLDATALOAD PUSH1 0x1 PUSH1 0x1 PUSH1 0xA0 SHL SUB AND SWAP2 POP PUSH2 0x7D2 SWAP1 POP JUMP JUMPDEST PUSH2 0x60B DUP3 MLOAD DUP3 MLOAD PUSH2 0x866 JUMP JUMPDEST PUSH1 0x0 JUMPDEST DUP3 MLOAD DUP2 LT ISZERO PUSH2 0x64F JUMPI PUSH2 0x647 DUP4 DUP3 DUP2 MLOAD DUP2 LT PUSH2 0x626 JUMPI INVALID JUMPDEST PUSH1 0x20 MUL PUSH1 0x20 ADD ADD MLOAD DUP4 DUP4 DUP2 MLOAD DUP2 LT PUSH2 0x63A JUMPI INVALID JUMPDEST PUSH1 0x20 MUL PUSH1 0x20 ADD ADD MLOAD PUSH2 0x7AA JUMP JUMPDEST PUSH1 0x1 ADD PUSH2 0x60E JUMP JUMPDEST POP POP POP JUMP JUMPDEST PUSH1 0x0 SWAP1 DUP2 MSTORE PUSH1 0x20 DUP2 SWAP1 MSTORE PUSH1 0x40 SWAP1 KECCAK256 PUSH1 0x2 ADD SLOAD SWAP1 JUMP JUMPDEST PUSH1 0x0 DUP3 DUP2 MSTORE PUSH1 0x20 DUP2 SWAP1 MSTORE PUSH1 0x40 SWAP1 KECCAK256 PUSH1 0x2 ADD SLOAD PUSH2 0x691 SWAP1 PUSH2 0x689 SWAP1 CALLER PUSH2 0x6E1 JUMP JUMPDEST PUSH2 0x1A6 PUSH2 0x86F JUMP JUMPDEST PUSH2 0x69B DUP3 DUP3 PUSH2 0x87D JUMP JUMPDEST POP POP JUMP JUMPDEST PUSH2 0x6B6 PUSH1 0x1 PUSH1 0x1 PUSH1 0xA0 SHL SUB DUP3 AND CALLER EQ PUSH2 0x1A8 PUSH2 0x86F JUMP JUMPDEST PUSH2 0x69B DUP3 DUP3 PUSH2 0x8D6 JUMP JUMPDEST PUSH1 0x0 DUP3 DUP2 MSTORE PUSH1 0x20 DUP2 SWAP1 MSTORE PUSH1 0x40 DUP2 KECCAK256 PUSH2 0x6D8 SWAP1 DUP4 PUSH2 0x92F JUMP JUMPDEST SWAP1 POP JUMPDEST SWAP3 SWAP2 POP POP JUMP JUMPDEST PUSH1 0x0 DUP3 DUP2 MSTORE PUSH1 0x20 DUP2 SWAP1 MSTORE PUSH1 0x40 DUP2 KECCAK256 PUSH2 0x6D8 SWAP1 DUP4 PUSH2 0x94B JUMP JUMPDEST PUSH1 0x0 JUMPDEST DUP3 MLOAD DUP2 LT ISZERO PUSH2 0x64F JUMPI PUSH2 0x722 DUP4 DUP3 DUP2 MLOAD DUP2 LT PUSH2 0x714 JUMPI INVALID JUMPDEST PUSH1 0x20 MUL PUSH1 0x20 ADD ADD MLOAD DUP4 PUSH2 0x7AA JUMP JUMPDEST PUSH1 0x1 ADD PUSH2 0x6FC JUMP JUMPDEST PUSH1 0x0 PUSH2 0x736 DUP5 DUP5 PUSH2 0x6E1 JUMP JUMPDEST SWAP5 SWAP4 POP POP POP POP JUMP JUMPDEST PUSH1 0x0 DUP2 JUMP JUMPDEST PUSH2 0x74F DUP3 MLOAD DUP3 MLOAD PUSH2 0x866 JUMP JUMPDEST PUSH1 0x0 JUMPDEST DUP3 MLOAD DUP2 LT ISZERO PUSH2 0x64F JUMPI PUSH2 0x78B DUP4 DUP3 DUP2 MLOAD DUP2 LT PUSH2 0x76A JUMPI INVALID JUMPDEST PUSH1 0x20 MUL PUSH1 0x20 ADD ADD MLOAD DUP4 DUP4 DUP2 MLOAD DUP2 LT PUSH2 0x77E JUMPI INVALID JUMPDEST PUSH1 0x20 MUL PUSH1 0x20 ADD ADD MLOAD PUSH2 0x669 JUMP JUMPDEST PUSH1 0x1 ADD PUSH2 0x752 JUMP JUMPDEST PUSH1 0x0 DUP2 DUP2 MSTORE PUSH1 0x20 DUP2 SWAP1 MSTORE PUSH1 0x40 DUP2 KECCAK256 PUSH2 0x6DB SWAP1 PUSH2 0x96C JUMP JUMPDEST PUSH1 0x0 DUP3 DUP2 MSTORE PUSH1 0x20 DUP2 SWAP1 MSTORE PUSH1 0x40 SWAP1 KECCAK256 PUSH1 0x2 ADD SLOAD PUSH2 0x6B6 SWAP1 PUSH2 0x7CA SWAP1 CALLER PUSH2 0x6E1 JUMP JUMPDEST PUSH2 0x1A7 PUSH2 0x86F JUMP JUMPDEST PUSH1 0x0 JUMPDEST DUP3 MLOAD DUP2 LT ISZERO PUSH2 0x64F JUMPI PUSH2 0x7FB DUP4 DUP3 DUP2 MLOAD DUP2 LT PUSH2 0x7ED JUMPI INVALID JUMPDEST PUSH1 0x20 MUL PUSH1 0x20 ADD ADD MLOAD DUP4 PUSH2 0x669 JUMP JUMPDEST PUSH1 0x1 ADD PUSH2 0x7D5 JUMP JUMPDEST PUSH1 0x0 PUSH2 0x80F DUP4 DUP4 PUSH2 0x94B JUMP JUMPDEST PUSH2 0x85E JUMPI POP DUP2 SLOAD PUSH1 0x1 DUP1 DUP3 ADD DUP5 SSTORE PUSH1 0x0 DUP5 DUP2 MSTORE PUSH1 0x20 DUP1 DUP3 KECCAK256 SWAP1 SWAP4 ADD DUP1 SLOAD PUSH1 0x1 PUSH1 0x1 PUSH1 0xA0 SHL SUB NOT AND PUSH1 0x1 PUSH1 0x1 PUSH1 0xA0 SHL SUB DUP7 AND SWAP1 DUP2 OR SWAP1 SWAP2 SSTORE DUP6 SLOAD SWAP1 DUP3 MSTORE DUP3 DUP7 ADD SWAP1 SWAP4 MSTORE PUSH1 0x40 SWAP1 KECCAK256 SWAP2 SWAP1 SWAP2 SSTORE PUSH2 0x6DB JUMP JUMPDEST POP PUSH1 0x0 PUSH2 0x6DB JUMP JUMPDEST PUSH2 0x69B DUP2 DUP4 EQ PUSH1 0x67 JUMPDEST DUP2 PUSH2 0x69B JUMPI PUSH2 0x69B DUP2 PUSH2 0x970 JUMP JUMPDEST PUSH1 0x0 DUP3 DUP2 MSTORE PUSH1 0x20 DUP2 SWAP1 MSTORE PUSH1 0x40 SWAP1 KECCAK256 PUSH2 0x895 SWAP1 DUP3 PUSH2 0x803 JUMP JUMPDEST ISZERO PUSH2 0x69B JUMPI PUSH1 0x40 MLOAD CALLER SWAP1 PUSH1 0x1 PUSH1 0x1 PUSH1 0xA0 SHL SUB DUP4 AND SWAP1 DUP5 SWAP1 PUSH32 0x2F8788117E7EFF1D82E926EC794901D17C78024A50270940304540A733656F0D SWAP1 PUSH1 0x0 SWAP1 LOG4 POP POP JUMP JUMPDEST PUSH1 0x0 DUP3 DUP2 MSTORE PUSH1 0x20 DUP2 SWAP1 MSTORE PUSH1 0x40 SWAP1 KECCAK256 PUSH2 0x8EE SWAP1 DUP3 PUSH2 0x9C3 JUMP JUMPDEST ISZERO PUSH2 0x69B JUMPI PUSH1 0x40 MLOAD CALLER SWAP1 PUSH1 0x1 PUSH1 0x1 PUSH1 0xA0 SHL SUB DUP4 AND SWAP1 DUP5 SWAP1 PUSH32 0xF6391F5C32D9C69D2A47EA670B442974B53935D1EDC7FD64EB21E047A839171B SWAP1 PUSH1 0x0 SWAP1 LOG4 POP POP JUMP JUMPDEST DUP2 SLOAD PUSH1 0x0 SWAP1 PUSH2 0x941 SWAP1 DUP4 LT PUSH1 0x64 PUSH2 0x86F JUMP JUMPDEST PUSH2 0x6D8 DUP4 DUP4 PUSH2 0xACA JUMP JUMPDEST PUSH1 0x1 PUSH1 0x1 PUSH1 0xA0 SHL SUB AND PUSH1 0x0 SWAP1 DUP2 MSTORE PUSH1 0x1 SWAP2 SWAP1 SWAP2 ADD PUSH1 0x20 MSTORE PUSH1 0x40 SWAP1 KECCAK256 SLOAD ISZERO ISZERO SWAP1 JUMP JUMPDEST SLOAD SWAP1 JUMP JUMPDEST PUSH3 0x461BCD PUSH1 0xE5 SHL PUSH1 0x0 SWAP1 DUP2 MSTORE PUSH1 0x20 PUSH1 0x4 MSTORE PUSH1 0x7 PUSH1 0x24 MSTORE PUSH7 0x42414C23000030 PUSH1 0xA DUP1 DUP5 DIV DUP2 DUP2 MOD PUSH1 0x30 SWAP1 DUP2 ADD PUSH1 0x8 SHL SWAP6 DUP4 SWAP1 MOD SWAP6 SWAP1 SWAP6 ADD SWAP1 DUP3 SWAP1 DIV SWAP2 DUP3 MOD SWAP1 SWAP5 ADD PUSH1 0x10 SHL SWAP4 SWAP1 SWAP4 ADD ADD PUSH1 0xC8 SHL PUSH1 0x44 MSTORE PUSH1 0x64 SWAP1 REVERT JUMPDEST PUSH1 0x1 PUSH1 0x1 PUSH1 0xA0 SHL SUB DUP2 AND PUSH1 0x0 SWAP1 DUP2 MSTORE PUSH1 0x1 DUP4 ADD PUSH1 0x20 MSTORE PUSH1 0x40 DUP2 KECCAK256 SLOAD DUP1 ISZERO PUSH2 0xAC0 JUMPI DUP4 SLOAD PUSH1 0x0 NOT DUP1 DUP4 ADD SWAP2 SWAP1 DUP2 ADD SWAP1 PUSH1 0x0 SWAP1 DUP8 SWAP1 DUP4 SWAP1 DUP2 LT PUSH2 0xA00 JUMPI INVALID JUMPDEST PUSH1 0x0 SWAP2 DUP3 MSTORE PUSH1 0x20 SWAP1 SWAP2 KECCAK256 ADD SLOAD DUP8 SLOAD PUSH1 0x1 PUSH1 0x1 PUSH1 0xA0 SHL SUB SWAP1 SWAP2 AND SWAP2 POP DUP2 SWAP1 DUP9 SWAP1 DUP6 SWAP1 DUP2 LT PUSH2 0xA29 JUMPI INVALID JUMPDEST PUSH1 0x0 SWAP2 DUP3 MSTORE PUSH1 0x20 DUP1 DUP4 KECCAK256 SWAP2 SWAP1 SWAP2 ADD DUP1 SLOAD PUSH1 0x1 PUSH1 0x1 PUSH1 0xA0 SHL SUB NOT AND PUSH1 0x1 PUSH1 0x1 PUSH1 0xA0 SHL SUB SWAP5 DUP6 AND OR SWAP1 SSTORE SWAP2 DUP4 AND DUP2 MSTORE PUSH1 0x1 DUP10 DUP2 ADD SWAP1 SWAP3 MSTORE PUSH1 0x40 SWAP1 KECCAK256 SWAP1 DUP5 ADD SWAP1 SSTORE DUP7 SLOAD DUP8 SWAP1 DUP1 PUSH2 0xA72 JUMPI INVALID JUMPDEST PUSH1 0x0 DUP3 DUP2 MSTORE PUSH1 0x20 DUP1 DUP3 KECCAK256 DUP4 ADD PUSH1 0x0 NOT SWAP1 DUP2 ADD DUP1 SLOAD PUSH1 0x1 PUSH1 0x1 PUSH1 0xA0 SHL SUB NOT AND SWAP1 SSTORE SWAP1 SWAP3 ADD SWAP1 SWAP3 SSTORE PUSH1 0x1 PUSH1 0x1 PUSH1 0xA0 SHL SUB DUP9 AND DUP3 MSTORE PUSH1 0x1 DUP10 DUP2 ADD SWAP1 SWAP2 MSTORE PUSH1 0x40 DUP3 KECCAK256 SWAP2 SWAP1 SWAP2 SSTORE SWAP5 POP PUSH2 0x6DB SWAP4 POP POP POP POP JUMP JUMPDEST PUSH1 0x0 SWAP2 POP POP PUSH2 0x6DB JUMP JUMPDEST PUSH1 0x0 DUP3 PUSH1 0x0 ADD DUP3 DUP2 SLOAD DUP2 LT PUSH2 0xADB JUMPI INVALID JUMPDEST PUSH1 0x0 SWAP2 DUP3 MSTORE PUSH1 0x20 SWAP1 SWAP2 KECCAK256 ADD SLOAD PUSH1 0x1 PUSH1 0x1 PUSH1 0xA0 SHL SUB AND SWAP4 SWAP3 POP POP POP JUMP INVALID LOG2 PUSH5 0x6970667358 0x22 SLT KECCAK256 EXTCODECOPY SWAP13 PUSH21 0x1E14D3734F7720A21B66552BF4D7753C791F8E6122 CREATE2 LOG4 PUSH26 0x9B696178F164736F6C6343000706003300000000000000000000 "
				},
				"gasEstimates": {
					"creation": {
						"codeDepositCost": "572200",
						"executionCost": "infinite",
						"totalCost": "infinite"
					},
					"external": {
						"DEFAULT_ADMIN_ROLE()": "265",
						"canPerform(bytes32,address,address)": "1412",
						"getRoleAdmin(bytes32)": "1138",
						"getRoleMember(bytes32,uint256)": "infinite",
						"getRoleMemberCount(bytes32)": "1190",
						"grantRole(bytes32,address)": "infinite",
						"grantRoles(bytes32[],address)": "infinite",
						"grantRolesToMany(bytes32[],address[])": "infinite",
						"hasRole(bytes32,address)": "1410",
						"renounceRole(bytes32,address)": "infinite",
						"revokeRole(bytes32,address)": "infinite",
						"revokeRoles(bytes32[],address)": "infinite",
						"revokeRolesFromMany(bytes32[],address[])": "infinite"
					}
				},
				"methodIdentifiers": {
					"DEFAULT_ADMIN_ROLE()": "a217fddf",
					"canPerform(bytes32,address,address)": "9be2a884",
					"getRoleAdmin(bytes32)": "248a9ca3",
					"getRoleMember(bytes32,uint256)": "9010d07c",
					"getRoleMemberCount(bytes32)": "ca15c873",
					"grantRole(bytes32,address)": "2f2ff15d",
					"grantRoles(bytes32[],address)": "fcd7627e",
					"grantRolesToMany(bytes32[],address[])": "a73cb2ab",
					"hasRole(bytes32,address)": "91d14854",
					"renounceRole(bytes32,address)": "36568abe",
					"revokeRole(bytes32,address)": "d547741f",
					"revokeRoles(bytes32[],address)": "988360a3",
					"revokeRolesFromMany(bytes32[],address[])": "18b2cde9"
				}
			},
			"storageLayout": {
				"storage": [
					{
						"astId": 624,
						"contract": "contracts/Authorizer.sol:Authorizer",
						"label": "_roles",
						"offset": 0,
						"slot": "0",
						"type": "t_mapping(t_bytes32,t_struct(RoleData)620_storage)"
					}
				],
				"types": {
					"t_address": {
						"encoding": "inplace",
						"label": "address",
						"numberOfBytes": "20"
					},
					"t_array(t_address)dyn_storage": {
						"base": "t_address",
						"encoding": "dynamic_array",
						"label": "address[]",
						"numberOfBytes": "32"
					},
					"t_bytes32": {
						"encoding": "inplace",
						"label": "bytes32",
						"numberOfBytes": "32"
					},
					"t_mapping(t_address,t_uint256)": {
						"encoding": "mapping",
						"key": "t_address",
						"label": "mapping(address => uint256)",
						"numberOfBytes": "32",
						"value": "t_uint256"
					},
					"t_mapping(t_bytes32,t_struct(RoleData)620_storage)": {
						"encoding": "mapping",
						"key": "t_bytes32",
						"label": "mapping(bytes32 => struct AccessControl.RoleData)",
						"numberOfBytes": "32",
						"value": "t_struct(RoleData)620_storage"
					},
					"t_struct(AddressSet)415_storage": {
						"encoding": "inplace",
						"label": "struct EnumerableSet.AddressSet",
						"members": [
							{
								"astId": 410,
								"contract": "contracts/Authorizer.sol:Authorizer",
								"label": "_values",
								"offset": 0,
								"slot": "0",
								"type": "t_array(t_address)dyn_storage"
							},
							{
								"astId": 414,
								"contract": "contracts/Authorizer.sol:Authorizer",
								"label": "_indexes",
								"offset": 0,
								"slot": "1",
								"type": "t_mapping(t_address,t_uint256)"
							}
						],
						"numberOfBytes": "64"
					},
					"t_struct(RoleData)620_storage": {
						"encoding": "inplace",
						"label": "struct AccessControl.RoleData",
						"members": [
							{
								"astId": 617,
								"contract": "contracts/Authorizer.sol:Authorizer",
								"label": "members",
								"offset": 0,
								"slot": "0",
								"type": "t_struct(AddressSet)415_storage"
							},
							{
								"astId": 619,
								"contract": "contracts/Authorizer.sol:Authorizer",
								"label": "adminRole",
								"offset": 0,
								"slot": "2",
								"type": "t_bytes32"
							}
						],
						"numberOfBytes": "96"
					},
					"t_uint256": {
						"encoding": "inplace",
						"label": "uint256",
						"numberOfBytes": "32"
					}
				}
			},
			"userdoc": {
				"kind": "user",
				"methods": {},
				"version": 1
			}
		}
	}
}