{
	"contracts/WVLTToken.sol": {
		"WVLTToken": {
			"abi": [
				{
					"anonymous": false,
					"inputs": [
						{
							"indexed": true,
							"internalType": "address",
							"name": "owner",
							"type": "address"
						},
						{
							"indexed": true,
							"internalType": "address",
							"name": "spender",
							"type": "address"
						},
						{
							"indexed": false,
							"internalType": "uint256",
							"name": "value",
							"type": "uint256"
						}
					],
					"name": "Approval",
					"type": "event"
				},
				{
					"anonymous": false,
					"inputs": [
						{
							"indexed": true,
							"internalType": "address",
							"name": "previousOwner",
							"type": "address"
						},
						{
							"indexed": true,
							"internalType": "address",
							"name": "newOwner",
							"type": "address"
						}
					],
					"name": "OwnershipTransferred",
					"type": "event"
				},
				{
					"anonymous": false,
					"inputs": [
						{
							"indexed": true,
							"internalType": "address",
							"name": "from",
							"type": "address"
						},
						{
							"indexed": true,
							"internalType": "address",
							"name": "to",
							"type": "address"
						},
						{
							"indexed": false,
							"internalType": "uint256",
							"name": "value",
							"type": "uint256"
						}
					],
					"name": "Transfer",
					"type": "event"
				},
				{
					"inputs": [],
					"name": "MAX_SUPPLY",
					"outputs": [
						{
							"internalType": "uint256",
							"name": "",
							"type": "uint256"
						}
					],
					"stateMutability": "view",
					"type": "function"
				},
				{
					"inputs": [
						{
							"internalType": "address",
							"name": "owner",
							"type": "address"
						},
						{
							"internalType": "address",
							"name": "spender",
							"type": "address"
						}
					],
					"name": "allowance",
					"outputs": [
						{
							"internalType": "uint256",
							"name": "",
							"type": "uint256"
						}
					],
					"stateMutability": "view",
					"type": "function"
				},
				{
					"inputs": [
						{
							"internalType": "address",
							"name": "spender",
							"type": "address"
						},
						{
							"internalType": "uint256",
							"name": "amount",
							"type": "uint256"
						}
					],
					"name": "approve",
					"outputs": [
						{
							"internalType": "bool",
							"name": "",
							"type": "bool"
						}
					],
					"stateMutability": "nonpayable",
					"type": "function"
				},
				{
					"inputs": [
						{
							"internalType": "address",
							"name": "account",
							"type": "address"
						}
					],
					"name": "balanceOf",
					"outputs": [
						{
							"internalType": "uint256",
							"name": "",
							"type": "uint256"
						}
					],
					"stateMutability": "view",
					"type": "function"
				},
				{
					"inputs": [],
					"name": "decimals",
					"outputs": [
						{
							"internalType": "uint8",
							"name": "",
							"type": "uint8"
						}
					],
					"stateMutability": "view",
					"type": "function"
				},
				{
					"inputs": [
						{
							"internalType": "address",
							"name": "spender",
							"type": "address"
						},
						{
							"internalType": "uint256",
							"name": "subtractedValue",
							"type": "uint256"
						}
					],
					"name": "decreaseAllowance",
					"outputs": [
						{
							"internalType": "bool",
							"name": "",
							"type": "bool"
						}
					],
					"stateMutability": "nonpayable",
					"type": "function"
				},
				{
					"inputs": [
						{
							"internalType": "address",
							"name": "spender",
							"type": "address"
						},
						{
							"internalType": "uint256",
							"name": "addedValue",
							"type": "uint256"
						}
					],
					"name": "increaseAllowance",
					"outputs": [
						{
							"internalType": "bool",
							"name": "",
							"type": "bool"
						}
					],
					"stateMutability": "nonpayable",
					"type": "function"
				},
				{
					"inputs": [
						{
							"internalType": "address",
							"name": "_to",
							"type": "address"
						},
						{
							"internalType": "uint256",
							"name": "_amount",
							"type": "uint256"
						}
					],
					"name": "mint",
					"outputs": [],
					"stateMutability": "nonpayable",
					"type": "function"
				},
				{
					"inputs": [],
					"name": "name",
					"outputs": [
						{
							"internalType": "string",
							"name": "",
							"type": "string"
						}
					],
					"stateMutability": "view",
					"type": "function"
				},
				{
					"inputs": [],
					"name": "owner",
					"outputs": [
						{
							"internalType": "address",
							"name": "",
							"type": "address"
						}
					],
					"stateMutability": "view",
					"type": "function"
				},
				{
					"inputs": [],
					"name": "renounceOwnership",
					"outputs": [],
					"stateMutability": "nonpayable",
					"type": "function"
				},
				{
					"inputs": [],
					"name": "symbol",
					"outputs": [
						{
							"internalType": "string",
							"name": "",
							"type": "string"
						}
					],
					"stateMutability": "view",
					"type": "function"
				},
				{
					"inputs": [],
					"name": "totalSupply",
					"outputs": [
						{
							"internalType": "uint256",
							"name": "",
							"type": "uint256"
						}
					],
					"stateMutability": "view",
					"type": "function"
				},
				{
					"inputs": [
						{
							"internalType": "address",
							"name": "recipient",
							"type": "address"
						},
						{
							"internalType": "uint256",
							"name": "amount",
							"type": "uint256"
						}
					],
					"name": "transfer",
					"outputs": [
						{
							"internalType": "bool",
							"name": "",
							"type": "bool"
						}
					],
					"stateMutability": "nonpayable",
					"type": "function"
				},
				{
					"inputs": [
						{
							"internalType": "address",
							"name": "sender",
							"type": "address"
						},
						{
							"internalType": "address",
							"name": "recipient",
							"type": "address"
						},
						{
							"internalType": "uint256",
							"name": "amount",
							"type": "uint256"
						}
					],
					"name": "transferFrom",
					"outputs": [
						{
							"internalType": "bool",
							"name": "",
							"type": "bool"
						}
					],
					"stateMutability": "nonpayable",
					"type": "function"
				},
				{
					"inputs": [
						{
							"internalType": "address",
							"name": "newOwner",
							"type": "address"
						}
					],
					"name": "transferOwnership",
					"outputs": [],
					"stateMutability": "nonpayable",
					"type": "function"
				}
			],
			"devdoc": {
				"kind": "dev",
				"methods": {
					"allowance(address,address)": {
						"details": "See {IERC20-allowance}."
					},
					"approve(address,uint256)": {
						"details": "See {IERC20-approve}. Requirements: - `spender` cannot be the zero address."
					},
					"balanceOf(address)": {
						"details": "See {IERC20-balanceOf}."
					},
					"decimals()": {
						"details": "Returns the number of decimals used to get its user representation. For example, if `decimals` equals `2`, a balance of `505` tokens should be displayed to a user as `5.05` (`505 / 10 ** 2`). Tokens usually opt for a value of 18, imitating the relationship between Ether and Wei. This is the value {ERC20} uses, unless this function is overridden; NOTE: This information is only used for _display_ purposes: it in no way affects any of the arithmetic of the contract, including {IERC20-balanceOf} and {IERC20-transfer}."
					},
					"decreaseAllowance(address,uint256)": {
						"details": "Atomically decreases the allowance granted to `spender` by the caller. This is an alternative to {approve} that can be used as a mitigation for problems described in {IERC20-approve}. Emits an {Approval} event indicating the updated allowance. Requirements: - `spender` cannot be the zero address. - `spender` must have allowance for the caller of at least `subtractedValue`."
					},
					"increaseAllowance(address,uint256)": {
						"details": "Atomically increases the allowance granted to `spender` by the caller. This is an alternative to {approve} that can be used as a mitigation for problems described in {IERC20-approve}. Emits an {Approval} event indicating the updated allowance. Requirements: - `spender` cannot be the zero address."
					},
					"name()": {
						"details": "Returns the name of the token."
					},
					"owner()": {
						"details": "Returns the address of the current owner."
					},
					"renounceOwnership()": {
						"details": "Leaves the contract without owner. It will not be possible to call `onlyOwner` functions anymore. Can only be called by the current owner. NOTE: Renouncing ownership will leave the contract without an owner, thereby removing any functionality that is only available to the owner."
					},
					"symbol()": {
						"details": "Returns the symbol of the token, usually a shorter version of the name."
					},
					"totalSupply()": {
						"details": "See {IERC20-totalSupply}."
					},
					"transfer(address,uint256)": {
						"details": "See {IERC20-transfer}. Requirements: - `recipient` cannot be the zero address. - the caller must have a balance of at least `amount`."
					},
					"transferFrom(address,address,uint256)": {
						"details": "See {IERC20-transferFrom}. Emits an {Approval} event indicating the updated allowance. This is not required by the EIP. See the note at the beginning of {ERC20}. Requirements: - `sender` and `recipient` cannot be the zero address. - `sender` must have a balance of at least `amount`. - the caller must have allowance for ``sender``'s tokens of at least `amount`."
					},
					"transferOwnership(address)": {
						"details": "Transfers ownership of the contract to a new account (`newOwner`). Can only be called by the current owner."
					}
				},
				"version": 1
			},
			"evm": {
				"assembly": "    /* \"contracts/WVLTToken.sol\":18885:19364  contract WVLTToken is ERC20(\"WVLTToken\", \"WVLT\"), Ownable {\r... */\n  mstore(0x40, 0x80)\n  callvalue\n  dup1\n  iszero\n  tag_1\n  jumpi\n  0x00\n  dup1\n  revert\ntag_1:\n  pop\n    /* \"contracts/WVLTToken.sol\":6026:6142  constructor(string memory name_, string memory symbol_) {\r... */\n  0x40\n  dup1\n  mload\n  dup1\n  dup3\n  add\n  dup3\n  mstore\n  0x09\n  dup2\n  mstore\n  shl(0xb9, 0x2bab262a2a37b5b2b7)\n  0x20\n  dup1\n  dup4\n  add\n  swap2\n  dup3\n  mstore\n  dup4\n  mload\n  dup1\n  dup6\n  add\n  swap1\n  swap5\n  mstore\n  0x04\n  dup5\n  mstore\n  shl(0xe2, 0x15d59315)\n  swap1\n  dup5\n  add\n  mstore\n    /* \"contracts/WVLTToken.sol\":6093:6106  _name = name_ */\n  dup2\n  mload\n    /* \"contracts/WVLTToken.sol\":6026:6142  constructor(string memory name_, string memory symbol_) {\r... */\n  swap2\n  swap3\n  swap2\n    /* \"contracts/WVLTToken.sol\":6093:6106  _name = name_ */\n  tag_5\n  swap2\n    /* \"contracts/WVLTToken.sol\":6093:6098  _name */\n  0x03\n  swap2\n    /* \"contracts/WVLTToken.sol\":6093:6106  _name = name_ */\n  tag_6\n  jump\t// in\ntag_5:\n  pop\n    /* \"contracts/WVLTToken.sol\":6117:6134  _symbol = symbol_ */\n  dup1\n  mload\n  tag_7\n  swap1\n    /* \"contracts/WVLTToken.sol\":6117:6124  _symbol */\n  0x04\n  swap1\n    /* \"contracts/WVLTToken.sol\":6117:6134  _symbol = symbol_ */\n  0x20\n  dup5\n  add\n  swap1\n  tag_6\n  jump\t// in\ntag_7:\n  pop\n    /* \"contracts/WVLTToken.sol\":6026:6142  constructor(string memory name_, string memory symbol_) {\r... */\n  pop\n  pop\n    /* \"contracts/WVLTToken.sol\":17430:17453  _setOwner(_msgSender()) */\n  tag_9\n    /* \"contracts/WVLTToken.sol\":17440:17452  _msgSender() */\n  tag_10\n    /* \"contracts/WVLTToken.sol\":17440:17450  _msgSender */\n  shl(0x20, tag_11)\n    /* \"contracts/WVLTToken.sol\":17440:17452  _msgSender() */\n  0x20\n  shr\n  jump\t// in\ntag_10:\n    /* \"contracts/WVLTToken.sol\":17430:17439  _setOwner */\n  tag_12\n    /* \"contracts/WVLTToken.sol\":17430:17453  _setOwner(_msgSender()) */\n  jump\t// in\ntag_9:\n    /* \"contracts/WVLTToken.sol\":18885:19364  contract WVLTToken is ERC20(\"WVLTToken\", \"WVLT\"), Ownable {\r... */\n  jump(tag_27)\n    /* \"contracts/WVLTToken.sol\":3993:4091  function _msgSender() internal view virtual returns (address) {\r... */\ntag_11:\n    /* \"contracts/WVLTToken.sol\":4073:4083  msg.sender */\n  caller\n  swap1\n    /* \"contracts/WVLTToken.sol\":3993:4091  function _msgSender() internal view virtual returns (address) {\r... */\n  jump\t// out\n    /* \"contracts/WVLTToken.sol\":18679:18852  function _setOwner(address newOwner) private {\r... */\ntag_12:\n    /* \"contracts/WVLTToken.sol\":18754:18760  _owner */\n  0x05\n  dup1\n  sload\n  sub(shl(0xa0, 0x01), 0x01)\n    /* \"contracts/WVLTToken.sol\":18771:18788  _owner = newOwner */\n  dup4\n  dup2\n  and\n  not(sub(shl(0xa0, 0x01), 0x01))\n  dup4\n  and\n  dup2\n  or\n  swap1\n  swap4\n  sstore\n    /* \"contracts/WVLTToken.sol\":18804:18844  OwnershipTransferred(oldOwner, newOwner) */\n  mload(0x40)\n    /* \"contracts/WVLTToken.sol\":18754:18760  _owner */\n  swap2\n  and\n  swap2\n    /* \"contracts/WVLTToken.sol\":18771:18788  _owner = newOwner */\n  swap1\n    /* \"contracts/WVLTToken.sol\":18754:18760  _owner */\n  dup3\n  swap1\n    /* \"contracts/WVLTToken.sol\":18804:18844  OwnershipTransferred(oldOwner, newOwner) */\n  0x8be0079c531659141344cd1fd0a4f28419497f9722a3daafe3b4186f6b6457e0\n  swap1\n    /* \"contracts/WVLTToken.sol\":18735:18751  address oldOwner */\n  0x00\n  swap1\n    /* \"contracts/WVLTToken.sol\":18804:18844  OwnershipTransferred(oldOwner, newOwner) */\n  log3\n    /* \"contracts/WVLTToken.sol\":18724:18852  {\r... */\n  pop\n    /* \"contracts/WVLTToken.sol\":18679:18852  function _setOwner(address newOwner) private {\r... */\n  pop\n  jump\t// out\n    /* \"contracts/WVLTToken.sol\":18885:19364  contract WVLTToken is ERC20(\"WVLTToken\", \"WVLT\"), Ownable {\r... */\ntag_6:\n  dup3\n  dup1\n  sload\n  tag_16\n  swap1\n  tag_17\n  jump\t// in\ntag_16:\n  swap1\n  0x00\n  mstore\n  keccak256(0x00, 0x20)\n  swap1\n  0x1f\n  add\n  0x20\n  swap1\n  div\n  dup2\n  add\n  swap3\n  dup3\n  tag_19\n  jumpi\n  0x00\n  dup6\n  sstore\n  jump(tag_22)\ntag_19:\n  dup3\n  0x1f\n  lt\n  tag_20\n  jumpi\n  dup1\n  mload\n  not(0xff)\n  and\n  dup4\n  dup1\n  add\n  or\n  dup6\n  sstore\n  jump(tag_22)\ntag_20:\n  dup3\n  dup1\n  add\n  0x01\n  add\n  dup6\n  sstore\n  dup3\n  iszero\n  tag_22\n  jumpi\n  swap2\n  dup3\n  add\ntag_21:\n  dup3\n  dup2\n  gt\n  iszero\n  tag_22\n  jumpi\n  dup3\n  mload\n  dup3\n  sstore\n  swap2\n  0x20\n  add\n  swap2\n  swap1\n  0x01\n  add\n  swap1\n  jump(tag_21)\ntag_22:\n  pop\n  tag_23\n  swap3\n  swap2\n  pop\n  tag_24\n  jump\t// in\ntag_23:\n  pop\n  swap1\n  jump\t// out\ntag_24:\ntag_25:\n  dup1\n  dup3\n  gt\n  iszero\n  tag_23\n  jumpi\n  0x00\n  dup2\n  sstore\n  0x01\n  add\n  jump(tag_25)\n    /* \"#utility.yul\":14:394   */\ntag_17:\n    /* \"#utility.yul\":93:94   */\n  0x01\n    /* \"#utility.yul\":89:101   */\n  dup2\n  dup2\n  shr\n  swap1\n    /* \"#utility.yul\":136:148   */\n  dup3\n  and\n  dup1\n    /* \"#utility.yul\":157:218   */\n  tag_29\n  jumpi\n    /* \"#utility.yul\":211:215   */\n  0x7f\n    /* \"#utility.yul\":203:209   */\n  dup3\n    /* \"#utility.yul\":199:216   */\n  and\n    /* \"#utility.yul\":189:216   */\n  swap2\n  pop\n    /* \"#utility.yul\":157:218   */\ntag_29:\n    /* \"#utility.yul\":264:266   */\n  0x20\n    /* \"#utility.yul\":256:262   */\n  dup3\n    /* \"#utility.yul\":253:267   */\n  lt\n    /* \"#utility.yul\":233:251   */\n  dup2\n    /* \"#utility.yul\":230:268   */\n  eq\n    /* \"#utility.yul\":227:388   */\n  iszero\n  tag_30\n  jumpi\n    /* \"#utility.yul\":310:320   */\n  0x4e487b71\n    /* \"#utility.yul\":305:308   */\n  0xe0\n    /* \"#utility.yul\":301:321   */\n  shl\n    /* \"#utility.yul\":298:299   */\n  0x00\n    /* \"#utility.yul\":291:322   */\n  mstore\n    /* \"#utility.yul\":345:349   */\n  0x22\n    /* \"#utility.yul\":342:343   */\n  0x04\n    /* \"#utility.yul\":335:350   */\n  mstore\n    /* \"#utility.yul\":373:377   */\n  0x24\n    /* \"#utility.yul\":370:371   */\n  0x00\n    /* \"#utility.yul\":363:378   */\n  revert\n    /* \"#utility.yul\":227:388   */\ntag_30:\n  pop\n    /* \"#utility.yul\":14:394   */\n  swap2\n  swap1\n  pop\n  jump\t// out\ntag_27:\n    /* \"contracts/WVLTToken.sol\":18885:19364  contract WVLTToken is ERC20(\"WVLTToken\", \"WVLT\"), Ownable {\r... */\n  dataSize(sub_0)\n  dup1\n  dataOffset(sub_0)\n  0x00\n  codecopy\n  0x00\n  return\nstop\n\nsub_0: assembly {\n        /* \"contracts/WVLTToken.sol\":18885:19364  contract WVLTToken is ERC20(\"WVLTToken\", \"WVLT\"), Ownable {\r... */\n      mstore(0x40, 0x80)\n      callvalue\n      dup1\n      iszero\n      tag_1\n      jumpi\n      0x00\n      dup1\n      revert\n    tag_1:\n      pop\n      jumpi(tag_2, lt(calldatasize, 0x04))\n      shr(0xe0, calldataload(0x00))\n      dup1\n      0x70a08231\n      gt\n      tag_19\n      jumpi\n      dup1\n      0xa457c2d7\n      gt\n      tag_20\n      jumpi\n      dup1\n      0xa457c2d7\n      eq\n      tag_15\n      jumpi\n      dup1\n      0xa9059cbb\n      eq\n      tag_16\n      jumpi\n      dup1\n      0xdd62ed3e\n      eq\n      tag_17\n      jumpi\n      dup1\n      0xf2fde38b\n      eq\n      tag_18\n      jumpi\n      0x00\n      dup1\n      revert\n    tag_20:\n      dup1\n      0x70a08231\n      eq\n      tag_11\n      jumpi\n      dup1\n      0x715018a6\n      eq\n      tag_12\n      jumpi\n      dup1\n      0x8da5cb5b\n      eq\n      tag_13\n      jumpi\n      dup1\n      0x95d89b41\n      eq\n      tag_14\n      jumpi\n      0x00\n      dup1\n      revert\n    tag_19:\n      dup1\n      0x313ce567\n      gt\n      tag_21\n      jumpi\n      dup1\n      0x313ce567\n      eq\n      tag_7\n      jumpi\n      dup1\n      0x32cb6b0c\n      eq\n      tag_8\n      jumpi\n      dup1\n      0x39509351\n      eq\n      tag_9\n      jumpi\n      dup1\n      0x40c10f19\n      eq\n      tag_10\n      jumpi\n      0x00\n      dup1\n      revert\n    tag_21:\n      dup1\n      0x06fdde03\n      eq\n      tag_3\n      jumpi\n      dup1\n      0x095ea7b3\n      eq\n      tag_4\n      jumpi\n      dup1\n      0x18160ddd\n      eq\n      tag_5\n      jumpi\n      dup1\n      0x23b872dd\n      eq\n      tag_6\n      jumpi\n    tag_2:\n      0x00\n      dup1\n      revert\n        /* \"contracts/WVLTToken.sol\":6212:6312  function name() public view virtual override returns (string memory) {\r... */\n    tag_3:\n      tag_22\n      tag_23\n      jump\t// in\n    tag_22:\n      mload(0x40)\n      tag_24\n      swap2\n      swap1\n      tag_25\n      jump\t// in\n    tag_24:\n      mload(0x40)\n      dup1\n      swap2\n      sub\n      swap1\n      return\n        /* \"contracts/WVLTToken.sol\":8520:8730  function approve(address spender, uint256 amount)\r... */\n    tag_4:\n      tag_26\n      tag_27\n      calldatasize\n      0x04\n      tag_28\n      jump\t// in\n    tag_27:\n      tag_29\n      jump\t// in\n    tag_26:\n      mload(0x40)\n        /* \"#utility.yul\":1613:1627   */\n      swap1\n      iszero\n        /* \"#utility.yul\":1606:1628   */\n      iszero\n        /* \"#utility.yul\":1588:1629   */\n      dup2\n      mstore\n        /* \"#utility.yul\":1576:1578   */\n      0x20\n        /* \"#utility.yul\":1561:1579   */\n      add\n        /* \"contracts/WVLTToken.sol\":8520:8730  function approve(address spender, uint256 amount)\r... */\n      tag_24\n        /* \"#utility.yul\":1448:1635   */\n      jump\n        /* \"contracts/WVLTToken.sol\":7332:7440  function totalSupply() public view virtual override returns (uint256) {\r... */\n    tag_5:\n        /* \"contracts/WVLTToken.sol\":7420:7432  _totalSupply */\n      sload(0x02)\n        /* \"contracts/WVLTToken.sol\":7332:7440  function totalSupply() public view virtual override returns (uint256) {\r... */\n    tag_32:\n      mload(0x40)\n        /* \"#utility.yul\":6761:6786   */\n      swap1\n      dup2\n      mstore\n        /* \"#utility.yul\":6749:6751   */\n      0x20\n        /* \"#utility.yul\":6734:6752   */\n      add\n        /* \"contracts/WVLTToken.sol\":7332:7440  function totalSupply() public view virtual override returns (uint256) {\r... */\n      tag_24\n        /* \"#utility.yul\":6615:6792   */\n      jump\n        /* \"contracts/WVLTToken.sol\":9212:9741  function transferFrom(\r... */\n    tag_6:\n      tag_26\n      tag_37\n      calldatasize\n      0x04\n      tag_38\n      jump\t// in\n    tag_37:\n      tag_39\n      jump\t// in\n        /* \"contracts/WVLTToken.sol\":7174:7267  function decimals() public view virtual override returns (uint8) {\r... */\n    tag_7:\n      mload(0x40)\n        /* \"contracts/WVLTToken.sol\":7257:7259  18 */\n      0x12\n        /* \"#utility.yul\":6939:6975   */\n      dup2\n      mstore\n        /* \"#utility.yul\":6927:6929   */\n      0x20\n        /* \"#utility.yul\":6912:6930   */\n      add\n        /* \"contracts/WVLTToken.sol\":7174:7267  function decimals() public view virtual override returns (uint8) {\r... */\n      tag_24\n        /* \"#utility.yul\":6797:6981   */\n      jump\n        /* \"contracts/WVLTToken.sol\":18950:19001  uint256 public constant MAX_SUPPLY = 100_000_000e18 */\n    tag_8:\n      tag_32\n        /* \"contracts/WVLTToken.sol\":18987:19001  100_000_000e18 */\n      0x52b7d2dcc80cd2e4000000\n        /* \"contracts/WVLTToken.sol\":18950:19001  uint256 public constant MAX_SUPPLY = 100_000_000e18 */\n      dup2\n      jump\n        /* \"contracts/WVLTToken.sol\":10150:10447  function increaseAllowance(address spender, uint256 addedValue)\r... */\n    tag_9:\n      tag_26\n      tag_49\n      calldatasize\n      0x04\n      tag_28\n      jump\t// in\n    tag_49:\n      tag_50\n      jump\t// in\n        /* \"contracts/WVLTToken.sol\":19128:19361  function mint(address _to, uint256 _amount) public onlyOwner {\r... */\n    tag_10:\n      tag_52\n      tag_53\n      calldatasize\n      0x04\n      tag_28\n      jump\t// in\n    tag_53:\n      tag_54\n      jump\t// in\n    tag_52:\n      stop\n        /* \"contracts/WVLTToken.sol\":7503:7680  function balanceOf(address account)\r... */\n    tag_11:\n      tag_32\n      tag_56\n      calldatasize\n      0x04\n      tag_57\n      jump\t// in\n    tag_56:\n      sub(shl(0xa0, 0x01), 0x01)\n        /* \"contracts/WVLTToken.sol\":7654:7672  _balances[account] */\n      and\n        /* \"contracts/WVLTToken.sol\":7622:7629  uint256 */\n      0x00\n        /* \"contracts/WVLTToken.sol\":7654:7672  _balances[account] */\n      swap1\n      dup2\n      mstore\n      0x20\n      dup2\n      swap1\n      mstore\n      0x40\n      swap1\n      keccak256\n      sload\n      swap1\n        /* \"contracts/WVLTToken.sol\":7503:7680  function balanceOf(address account)\r... */\n      jump\n        /* \"contracts/WVLTToken.sol\":18193:18287  function renounceOwnership() public virtual onlyOwner {\r... */\n    tag_12:\n      tag_52\n      tag_61\n      jump\t// in\n        /* \"contracts/WVLTToken.sol\":17542:17629  function owner() public view virtual returns (address) {\r... */\n    tag_13:\n        /* \"contracts/WVLTToken.sol\":17615:17621  _owner */\n      sload(0x05)\n        /* \"contracts/WVLTToken.sol\":17542:17629  function owner() public view virtual returns (address) {\r... */\n      mload(0x40)\n      sub(shl(0xa0, 0x01), 0x01)\n        /* \"contracts/WVLTToken.sol\":17615:17621  _owner */\n      swap1\n      swap2\n      and\n        /* \"#utility.yul\":1386:1437   */\n      dup2\n      mstore\n        /* \"#utility.yul\":1374:1376   */\n      0x20\n        /* \"#utility.yul\":1359:1377   */\n      add\n        /* \"contracts/WVLTToken.sol\":17542:17629  function owner() public view virtual returns (address) {\r... */\n      tag_24\n        /* \"#utility.yul\":1240:1443   */\n      jump\n        /* \"contracts/WVLTToken.sol\":6431:6535  function symbol() public view virtual override returns (string memory) {\r... */\n    tag_14:\n      tag_22\n      tag_67\n      jump\t// in\n        /* \"contracts/WVLTToken.sol\":10950:11432  function decreaseAllowance(address spender, uint256 subtractedValue)\r... */\n    tag_15:\n      tag_26\n      tag_70\n      calldatasize\n      0x04\n      tag_28\n      jump\t// in\n    tag_70:\n      tag_71\n      jump\t// in\n        /* \"contracts/WVLTToken.sol\":7893:8109  function transfer(address recipient, uint256 amount)\r... */\n    tag_16:\n      tag_26\n      tag_74\n      calldatasize\n      0x04\n      tag_28\n      jump\t// in\n    tag_74:\n      tag_75\n      jump\t// in\n        /* \"contracts/WVLTToken.sol\":8172:8373  function allowance(address owner, address spender)\r... */\n    tag_17:\n      tag_32\n      tag_78\n      calldatasize\n      0x04\n      tag_79\n      jump\t// in\n    tag_78:\n      sub(shl(0xa0, 0x01), 0x01)\n        /* \"contracts/WVLTToken.sol\":8338:8356  _allowances[owner] */\n      swap2\n      dup3\n      and\n        /* \"contracts/WVLTToken.sol\":8306:8313  uint256 */\n      0x00\n        /* \"contracts/WVLTToken.sol\":8338:8356  _allowances[owner] */\n      swap1\n      dup2\n      mstore\n        /* \"contracts/WVLTToken.sol\":8338:8349  _allowances */\n      0x01\n        /* \"contracts/WVLTToken.sol\":8338:8356  _allowances[owner] */\n      0x20\n      swap1\n      dup2\n      mstore\n      0x40\n      dup1\n      dup4\n      keccak256\n        /* \"contracts/WVLTToken.sol\":8338:8365  _allowances[owner][spender] */\n      swap4\n      swap1\n      swap5\n      and\n      dup3\n      mstore\n      swap2\n      swap1\n      swap2\n      mstore\n      keccak256\n      sload\n      swap1\n        /* \"contracts/WVLTToken.sol\":8172:8373  function allowance(address owner, address spender)\r... */\n      jump\n        /* \"contracts/WVLTToken.sol\":18442:18671  function transferOwnership(address newOwner) public virtual onlyOwner {\r... */\n    tag_18:\n      tag_52\n      tag_83\n      calldatasize\n      0x04\n      tag_57\n      jump\t// in\n    tag_83:\n      tag_84\n      jump\t// in\n        /* \"contracts/WVLTToken.sol\":6212:6312  function name() public view virtual override returns (string memory) {\r... */\n    tag_23:\n        /* \"contracts/WVLTToken.sol\":6266:6279  string memory */\n      0x60\n        /* \"contracts/WVLTToken.sol\":6299:6304  _name */\n      0x03\n        /* \"contracts/WVLTToken.sol\":6292:6304  return _name */\n      dup1\n      sload\n      tag_86\n      swap1\n      tag_87\n      jump\t// in\n    tag_86:\n      dup1\n      0x1f\n      add\n      0x20\n      dup1\n      swap2\n      div\n      mul\n      0x20\n      add\n      mload(0x40)\n      swap1\n      dup2\n      add\n      0x40\n      mstore\n      dup1\n      swap3\n      swap2\n      swap1\n      dup2\n      dup2\n      mstore\n      0x20\n      add\n      dup3\n      dup1\n      sload\n      tag_88\n      swap1\n      tag_87\n      jump\t// in\n    tag_88:\n      dup1\n      iszero\n      tag_89\n      jumpi\n      dup1\n      0x1f\n      lt\n      tag_90\n      jumpi\n      0x0100\n      dup1\n      dup4\n      sload\n      div\n      mul\n      dup4\n      mstore\n      swap2\n      0x20\n      add\n      swap2\n      jump(tag_89)\n    tag_90:\n      dup3\n      add\n      swap2\n      swap1\n      0x00\n      mstore\n      keccak256(0x00, 0x20)\n      swap1\n    tag_91:\n      dup2\n      sload\n      dup2\n      mstore\n      swap1\n      0x01\n      add\n      swap1\n      0x20\n      add\n      dup1\n      dup4\n      gt\n      tag_91\n      jumpi\n      dup3\n      swap1\n      sub\n      0x1f\n      and\n      dup3\n      add\n      swap2\n    tag_89:\n      pop\n      pop\n      pop\n      pop\n      pop\n      swap1\n      pop\n        /* \"contracts/WVLTToken.sol\":6212:6312  function name() public view virtual override returns (string memory) {\r... */\n      swap1\n      jump\t// out\n        /* \"contracts/WVLTToken.sol\":8520:8730  function approve(address spender, uint256 amount)\r... */\n    tag_29:\n        /* \"contracts/WVLTToken.sol\":8639:8643  bool */\n      0x00\n        /* \"contracts/WVLTToken.sol\":8661:8700  _approve(_msgSender(), spender, amount) */\n      tag_93\n        /* \"contracts/WVLTToken.sol\":4073:4083  msg.sender */\n      caller\n        /* \"contracts/WVLTToken.sol\":8684:8691  spender */\n      dup5\n        /* \"contracts/WVLTToken.sol\":8693:8699  amount */\n      dup5\n        /* \"contracts/WVLTToken.sol\":8661:8669  _approve */\n      tag_96\n        /* \"contracts/WVLTToken.sol\":8661:8700  _approve(_msgSender(), spender, amount) */\n      jump\t// in\n    tag_93:\n      pop\n        /* \"contracts/WVLTToken.sol\":8718:8722  true */\n      0x01\n        /* \"contracts/WVLTToken.sol\":8520:8730  function approve(address spender, uint256 amount)\r... */\n      swap3\n      swap2\n      pop\n      pop\n      jump\t// out\n        /* \"contracts/WVLTToken.sol\":9212:9741  function transferFrom(\r... */\n    tag_39:\n        /* \"contracts/WVLTToken.sol\":9352:9356  bool */\n      0x00\n        /* \"contracts/WVLTToken.sol\":9369:9405  _transfer(sender, recipient, amount) */\n      tag_99\n        /* \"contracts/WVLTToken.sol\":9379:9385  sender */\n      dup5\n        /* \"contracts/WVLTToken.sol\":9387:9396  recipient */\n      dup5\n        /* \"contracts/WVLTToken.sol\":9398:9404  amount */\n      dup5\n        /* \"contracts/WVLTToken.sol\":9369:9378  _transfer */\n      tag_100\n        /* \"contracts/WVLTToken.sol\":9369:9405  _transfer(sender, recipient, amount) */\n      jump\t// in\n    tag_99:\n      sub(shl(0xa0, 0x01), 0x01)\n        /* \"contracts/WVLTToken.sol\":9445:9464  _allowances[sender] */\n      dup5\n      and\n        /* \"contracts/WVLTToken.sol\":9418:9442  uint256 currentAllowance */\n      0x00\n        /* \"contracts/WVLTToken.sol\":9445:9464  _allowances[sender] */\n      swap1\n      dup2\n      mstore\n        /* \"contracts/WVLTToken.sol\":9445:9456  _allowances */\n      0x01\n        /* \"contracts/WVLTToken.sol\":9445:9464  _allowances[sender] */\n      0x20\n      swap1\n      dup2\n      mstore\n      0x40\n      dup1\n      dup4\n      keccak256\n        /* \"contracts/WVLTToken.sol\":4073:4083  msg.sender */\n      caller\n        /* \"contracts/WVLTToken.sol\":9445:9478  _allowances[sender][_msgSender()] */\n      dup5\n      mstore\n      swap1\n      swap2\n      mstore\n      swap1\n      keccak256\n      sload\n        /* \"contracts/WVLTToken.sol\":9511:9537  currentAllowance >= amount */\n      dup3\n      dup2\n      lt\n      iszero\n        /* \"contracts/WVLTToken.sol\":9489:9605  require(\r... */\n      tag_102\n      jumpi\n      mload(0x40)\n      shl(0xe5, 0x461bcd)\n      dup2\n      mstore\n        /* \"#utility.yul\":4470:4472   */\n      0x20\n        /* \"contracts/WVLTToken.sol\":9489:9605  require(\r... */\n      0x04\n      dup3\n      add\n        /* \"#utility.yul\":4452:4473   */\n      mstore\n        /* \"#utility.yul\":4509:4511   */\n      0x28\n        /* \"#utility.yul\":4489:4507   */\n      0x24\n      dup3\n      add\n        /* \"#utility.yul\":4482:4512   */\n      mstore\n        /* \"#utility.yul\":4548:4582   */\n      0x45524332303a207472616e7366657220616d6f756e7420657863656564732061\n        /* \"#utility.yul\":4528:4546   */\n      0x44\n      dup3\n      add\n        /* \"#utility.yul\":4521:4583   */\n      mstore\n      shl(0xc0, 0x6c6c6f77616e6365)\n        /* \"#utility.yul\":4599:4617   */\n      0x64\n      dup3\n      add\n        /* \"#utility.yul\":4592:4630   */\n      mstore\n        /* \"#utility.yul\":4647:4666   */\n      0x84\n      add\n        /* \"contracts/WVLTToken.sol\":9489:9605  require(\r... */\n    tag_103:\n      mload(0x40)\n      dup1\n      swap2\n      sub\n      swap1\n      revert\n    tag_102:\n        /* \"contracts/WVLTToken.sol\":9641:9698  _approve(sender, _msgSender(), currentAllowance - amount) */\n      tag_105\n        /* \"contracts/WVLTToken.sol\":9650:9656  sender */\n      dup6\n        /* \"contracts/WVLTToken.sol\":4073:4083  msg.sender */\n      caller\n        /* \"contracts/WVLTToken.sol\":9691:9697  amount */\n      dup6\n        /* \"contracts/WVLTToken.sol\":9672:9688  currentAllowance */\n      dup5\n        /* \"contracts/WVLTToken.sol\":9672:9697  currentAllowance - amount */\n      sub\n        /* \"contracts/WVLTToken.sol\":9641:9649  _approve */\n      tag_96\n        /* \"contracts/WVLTToken.sol\":9641:9698  _approve(sender, _msgSender(), currentAllowance - amount) */\n      jump\t// in\n    tag_105:\n      pop\n        /* \"contracts/WVLTToken.sol\":9729:9733  true */\n      0x01\n      swap5\n        /* \"contracts/WVLTToken.sol\":9212:9741  function transferFrom(\r... */\n      swap4\n      pop\n      pop\n      pop\n      pop\n      jump\t// out\n        /* \"contracts/WVLTToken.sol\":10150:10447  function increaseAllowance(address spender, uint256 addedValue)\r... */\n    tag_50:\n        /* \"contracts/WVLTToken.sol\":4073:4083  msg.sender */\n      caller\n        /* \"contracts/WVLTToken.sol\":10265:10269  bool */\n      0x00\n        /* \"contracts/WVLTToken.sol\":10359:10384  _allowances[_msgSender()] */\n      dup2\n      dup2\n      mstore\n        /* \"contracts/WVLTToken.sol\":10359:10370  _allowances */\n      0x01\n        /* \"contracts/WVLTToken.sol\":10359:10384  _allowances[_msgSender()] */\n      0x20\n      swap1\n      dup2\n      mstore\n      0x40\n      dup1\n      dup4\n      keccak256\n      sub(shl(0xa0, 0x01), 0x01)\n        /* \"contracts/WVLTToken.sol\":10359:10393  _allowances[_msgSender()][spender] */\n      dup8\n      and\n      dup5\n      mstore\n      swap1\n      swap2\n      mstore\n      dup2\n      keccak256\n      sload\n        /* \"contracts/WVLTToken.sol\":10265:10269  bool */\n      swap1\n      swap2\n        /* \"contracts/WVLTToken.sol\":10287:10417  _approve(\r... */\n      tag_93\n      swap2\n        /* \"contracts/WVLTToken.sol\":10337:10344  spender */\n      dup6\n      swap1\n        /* \"contracts/WVLTToken.sol\":10359:10406  _allowances[_msgSender()][spender] + addedValue */\n      tag_112\n      swap1\n        /* \"contracts/WVLTToken.sol\":10396:10406  addedValue */\n      dup7\n      swap1\n        /* \"contracts/WVLTToken.sol\":10359:10406  _allowances[_msgSender()][spender] + addedValue */\n      tag_113\n      jump\t// in\n    tag_112:\n        /* \"contracts/WVLTToken.sol\":10287:10295  _approve */\n      tag_96\n        /* \"contracts/WVLTToken.sol\":10287:10417  _approve(\r... */\n      jump\t// in\n        /* \"contracts/WVLTToken.sol\":19128:19361  function mint(address _to, uint256 _amount) public onlyOwner {\r... */\n    tag_54:\n        /* \"contracts/WVLTToken.sol\":17615:17621  _owner */\n      and(sub(shl(0xa0, 0x01), 0x01), sload(0x05))\n        /* \"contracts/WVLTToken.sol\":4073:4083  msg.sender */\n      caller\n        /* \"contracts/WVLTToken.sol\":17762:17785  owner() == _msgSender() */\n      eq\n        /* \"contracts/WVLTToken.sol\":17754:17822  require(owner() == _msgSender(), \"Ownable: caller is not the owner\") */\n      tag_117\n      jumpi\n      mload(0x40)\n      shl(0xe5, 0x461bcd)\n      dup2\n      mstore\n      0x04\n      add\n      tag_103\n      swap1\n      tag_119\n      jump\t// in\n    tag_117:\n        /* \"contracts/WVLTToken.sol\":18987:19001  100_000_000e18 */\n      0x52b7d2dcc80cd2e4000000\n        /* \"contracts/WVLTToken.sol\":19238:19245  _amount */\n      dup2\n        /* \"contracts/WVLTToken.sol\":19222:19235  totalSupply() */\n      tag_121\n        /* \"contracts/WVLTToken.sol\":7420:7432  _totalSupply */\n      sload(0x02)\n      swap1\n        /* \"contracts/WVLTToken.sol\":7332:7440  function totalSupply() public view virtual override returns (uint256) {\r... */\n      jump\n        /* \"contracts/WVLTToken.sol\":19222:19235  totalSupply() */\n    tag_121:\n        /* \"contracts/WVLTToken.sol\":19222:19245  totalSupply() + _amount */\n      tag_122\n      swap2\n      swap1\n      tag_113\n      jump\t// in\n    tag_122:\n        /* \"contracts/WVLTToken.sol\":19222:19259  totalSupply() + _amount <= MAX_SUPPLY */\n      gt\n      iszero\n        /* \"contracts/WVLTToken.sol\":19200:19323  require(\r... */\n      tag_123\n      jumpi\n      mload(0x40)\n      shl(0xe5, 0x461bcd)\n      dup2\n      mstore\n        /* \"#utility.yul\":4065:4067   */\n      0x20\n        /* \"contracts/WVLTToken.sol\":19200:19323  require(\r... */\n      0x04\n      dup3\n      add\n        /* \"#utility.yul\":4047:4068   */\n      mstore\n        /* \"#utility.yul\":4104:4106   */\n      0x24\n        /* \"#utility.yul\":4084:4102   */\n      dup1\n      dup3\n      add\n        /* \"#utility.yul\":4077:4107   */\n      mstore\n        /* \"#utility.yul\":4143:4177   */\n      0x57564c543a3a6d696e743a2063616e6e6f7420657863656564206d6178207375\n        /* \"#utility.yul\":4123:4141   */\n      0x44\n      dup3\n      add\n        /* \"#utility.yul\":4116:4178   */\n      mstore\n      shl(0xe0, 0x70706c79)\n        /* \"#utility.yul\":4194:4212   */\n      0x64\n      dup3\n      add\n        /* \"#utility.yul\":4187:4221   */\n      mstore\n        /* \"#utility.yul\":4238:4257   */\n      0x84\n      add\n        /* \"contracts/WVLTToken.sol\":19200:19323  require(\r... */\n      tag_103\n        /* \"#utility.yul\":3863:4263   */\n      jump\n        /* \"contracts/WVLTToken.sol\":19200:19323  require(\r... */\n    tag_123:\n        /* \"contracts/WVLTToken.sol\":19334:19353  _mint(_to, _amount) */\n      tag_126\n        /* \"contracts/WVLTToken.sol\":19340:19343  _to */\n      dup3\n        /* \"contracts/WVLTToken.sol\":19345:19352  _amount */\n      dup3\n        /* \"contracts/WVLTToken.sol\":19334:19339  _mint */\n      tag_127\n        /* \"contracts/WVLTToken.sol\":19334:19353  _mint(_to, _amount) */\n      jump\t// in\n    tag_126:\n        /* \"contracts/WVLTToken.sol\":19128:19361  function mint(address _to, uint256 _amount) public onlyOwner {\r... */\n      pop\n      pop\n      jump\t// out\n        /* \"contracts/WVLTToken.sol\":18193:18287  function renounceOwnership() public virtual onlyOwner {\r... */\n    tag_61:\n        /* \"contracts/WVLTToken.sol\":17615:17621  _owner */\n      and(sub(shl(0xa0, 0x01), 0x01), sload(0x05))\n        /* \"contracts/WVLTToken.sol\":4073:4083  msg.sender */\n      caller\n        /* \"contracts/WVLTToken.sol\":17762:17785  owner() == _msgSender() */\n      eq\n        /* \"contracts/WVLTToken.sol\":17754:17822  require(owner() == _msgSender(), \"Ownable: caller is not the owner\") */\n      tag_132\n      jumpi\n      mload(0x40)\n      shl(0xe5, 0x461bcd)\n      dup2\n      mstore\n      0x04\n      add\n      tag_103\n      swap1\n      tag_119\n      jump\t// in\n    tag_132:\n        /* \"contracts/WVLTToken.sol\":18258:18279  _setOwner(address(0)) */\n      tag_135\n        /* \"contracts/WVLTToken.sol\":18276:18277  0 */\n      0x00\n        /* \"contracts/WVLTToken.sol\":18258:18267  _setOwner */\n      tag_136\n        /* \"contracts/WVLTToken.sol\":18258:18279  _setOwner(address(0)) */\n      jump\t// in\n    tag_135:\n        /* \"contracts/WVLTToken.sol\":18193:18287  function renounceOwnership() public virtual onlyOwner {\r... */\n      jump\t// out\n        /* \"contracts/WVLTToken.sol\":6431:6535  function symbol() public view virtual override returns (string memory) {\r... */\n    tag_67:\n        /* \"contracts/WVLTToken.sol\":6487:6500  string memory */\n      0x60\n        /* \"contracts/WVLTToken.sol\":6520:6527  _symbol */\n      0x04\n        /* \"contracts/WVLTToken.sol\":6513:6527  return _symbol */\n      dup1\n      sload\n      tag_86\n      swap1\n      tag_87\n      jump\t// in\n        /* \"contracts/WVLTToken.sol\":10950:11432  function decreaseAllowance(address spender, uint256 subtractedValue)\r... */\n    tag_71:\n        /* \"contracts/WVLTToken.sol\":4073:4083  msg.sender */\n      caller\n        /* \"contracts/WVLTToken.sol\":11070:11074  bool */\n      0x00\n        /* \"contracts/WVLTToken.sol\":11119:11144  _allowances[_msgSender()] */\n      swap1\n      dup2\n      mstore\n        /* \"contracts/WVLTToken.sol\":11119:11130  _allowances */\n      0x01\n        /* \"contracts/WVLTToken.sol\":11119:11144  _allowances[_msgSender()] */\n      0x20\n      swap1\n      dup2\n      mstore\n      0x40\n      dup1\n      dup4\n      keccak256\n      sub(shl(0xa0, 0x01), 0x01)\n        /* \"contracts/WVLTToken.sol\":11119:11153  _allowances[_msgSender()][spender] */\n      dup7\n      and\n      dup5\n      mstore\n      swap1\n      swap2\n      mstore\n      dup2\n      keccak256\n      sload\n        /* \"contracts/WVLTToken.sol\":11186:11221  currentAllowance >= subtractedValue */\n      dup3\n      dup2\n      lt\n      iszero\n        /* \"contracts/WVLTToken.sol\":11164:11286  require(\r... */\n      tag_146\n      jumpi\n      mload(0x40)\n      shl(0xe5, 0x461bcd)\n      dup2\n      mstore\n        /* \"#utility.yul\":6051:6053   */\n      0x20\n        /* \"contracts/WVLTToken.sol\":11164:11286  require(\r... */\n      0x04\n      dup3\n      add\n        /* \"#utility.yul\":6033:6054   */\n      mstore\n        /* \"#utility.yul\":6090:6092   */\n      0x25\n        /* \"#utility.yul\":6070:6088   */\n      0x24\n      dup3\n      add\n        /* \"#utility.yul\":6063:6093   */\n      mstore\n        /* \"#utility.yul\":6129:6163   */\n      0x45524332303a2064656372656173656420616c6c6f77616e63652062656c6f77\n        /* \"#utility.yul\":6109:6127   */\n      0x44\n      dup3\n      add\n        /* \"#utility.yul\":6102:6164   */\n      mstore\n      shl(0xd8, 0x207a65726f)\n        /* \"#utility.yul\":6180:6198   */\n      0x64\n      dup3\n      add\n        /* \"#utility.yul\":6173:6208   */\n      mstore\n        /* \"#utility.yul\":6225:6244   */\n      0x84\n      add\n        /* \"contracts/WVLTToken.sol\":11164:11286  require(\r... */\n      tag_103\n        /* \"#utility.yul\":5849:6250   */\n      jump\n        /* \"contracts/WVLTToken.sol\":11164:11286  require(\r... */\n    tag_146:\n        /* \"contracts/WVLTToken.sol\":11322:11389  _approve(_msgSender(), spender, currentAllowance - subtractedValue) */\n      tag_149\n        /* \"contracts/WVLTToken.sol\":4073:4083  msg.sender */\n      caller\n        /* \"contracts/WVLTToken.sol\":11345:11352  spender */\n      dup6\n        /* \"contracts/WVLTToken.sol\":11373:11388  subtractedValue */\n      dup6\n        /* \"contracts/WVLTToken.sol\":11354:11370  currentAllowance */\n      dup5\n        /* \"contracts/WVLTToken.sol\":11354:11388  currentAllowance - subtractedValue */\n      sub\n        /* \"contracts/WVLTToken.sol\":11322:11330  _approve */\n      tag_96\n        /* \"contracts/WVLTToken.sol\":11322:11389  _approve(_msgSender(), spender, currentAllowance - subtractedValue) */\n      jump\t// in\n    tag_149:\n      pop\n        /* \"contracts/WVLTToken.sol\":11420:11424  true */\n      0x01\n      swap4\n        /* \"contracts/WVLTToken.sol\":10950:11432  function decreaseAllowance(address spender, uint256 subtractedValue)\r... */\n      swap3\n      pop\n      pop\n      pop\n      jump\t// out\n        /* \"contracts/WVLTToken.sol\":7893:8109  function transfer(address recipient, uint256 amount)\r... */\n    tag_75:\n        /* \"contracts/WVLTToken.sol\":8015:8019  bool */\n      0x00\n        /* \"contracts/WVLTToken.sol\":8037:8079  _transfer(_msgSender(), recipient, amount) */\n      tag_93\n        /* \"contracts/WVLTToken.sol\":4073:4083  msg.sender */\n      caller\n        /* \"contracts/WVLTToken.sol\":8061:8070  recipient */\n      dup5\n        /* \"contracts/WVLTToken.sol\":8072:8078  amount */\n      dup5\n        /* \"contracts/WVLTToken.sol\":8037:8046  _transfer */\n      tag_100\n        /* \"contracts/WVLTToken.sol\":8037:8079  _transfer(_msgSender(), recipient, amount) */\n      jump\t// in\n        /* \"contracts/WVLTToken.sol\":18442:18671  function transferOwnership(address newOwner) public virtual onlyOwner {\r... */\n    tag_84:\n        /* \"contracts/WVLTToken.sol\":17615:17621  _owner */\n      and(sub(shl(0xa0, 0x01), 0x01), sload(0x05))\n        /* \"contracts/WVLTToken.sol\":4073:4083  msg.sender */\n      caller\n        /* \"contracts/WVLTToken.sol\":17762:17785  owner() == _msgSender() */\n      eq\n        /* \"contracts/WVLTToken.sol\":17754:17822  require(owner() == _msgSender(), \"Ownable: caller is not the owner\") */\n      tag_158\n      jumpi\n      mload(0x40)\n      shl(0xe5, 0x461bcd)\n      dup2\n      mstore\n      0x04\n      add\n      tag_103\n      swap1\n      tag_119\n      jump\t// in\n    tag_158:\n      sub(shl(0xa0, 0x01), 0x01)\n        /* \"contracts/WVLTToken.sol\":18545:18567  newOwner != address(0) */\n      dup2\n      and\n        /* \"contracts/WVLTToken.sol\":18523:18633  require(\r... */\n      tag_161\n      jumpi\n      mload(0x40)\n      shl(0xe5, 0x461bcd)\n      dup2\n      mstore\n        /* \"#utility.yul\":2848:2850   */\n      0x20\n        /* \"contracts/WVLTToken.sol\":18523:18633  require(\r... */\n      0x04\n      dup3\n      add\n        /* \"#utility.yul\":2830:2851   */\n      mstore\n        /* \"#utility.yul\":2887:2889   */\n      0x26\n        /* \"#utility.yul\":2867:2885   */\n      0x24\n      dup3\n      add\n        /* \"#utility.yul\":2860:2890   */\n      mstore\n        /* \"#utility.yul\":2926:2960   */\n      0x4f776e61626c653a206e6577206f776e657220697320746865207a65726f2061\n        /* \"#utility.yul\":2906:2924   */\n      0x44\n      dup3\n      add\n        /* \"#utility.yul\":2899:2961   */\n      mstore\n      shl(0xd0, 0x646472657373)\n        /* \"#utility.yul\":2977:2995   */\n      0x64\n      dup3\n      add\n        /* \"#utility.yul\":2970:3006   */\n      mstore\n        /* \"#utility.yul\":3023:3042   */\n      0x84\n      add\n        /* \"contracts/WVLTToken.sol\":18523:18633  require(\r... */\n      tag_103\n        /* \"#utility.yul\":2646:3048   */\n      jump\n        /* \"contracts/WVLTToken.sol\":18523:18633  require(\r... */\n    tag_161:\n        /* \"contracts/WVLTToken.sol\":18644:18663  _setOwner(newOwner) */\n      tag_164\n        /* \"contracts/WVLTToken.sol\":18654:18662  newOwner */\n      dup2\n        /* \"contracts/WVLTToken.sol\":18644:18653  _setOwner */\n      tag_136\n        /* \"contracts/WVLTToken.sol\":18644:18663  _setOwner(newOwner) */\n      jump\t// in\n    tag_164:\n        /* \"contracts/WVLTToken.sol\":18442:18671  function transferOwnership(address newOwner) public virtual onlyOwner {\r... */\n      pop\n      jump\t// out\n        /* \"contracts/WVLTToken.sol\":14740:15120  function _approve(\r... */\n    tag_96:\n      sub(shl(0xa0, 0x01), 0x01)\n        /* \"contracts/WVLTToken.sol\":14876:14895  owner != address(0) */\n      dup4\n      and\n        /* \"contracts/WVLTToken.sol\":14868:14936  require(owner != address(0), \"ERC20: approve from the zero address\") */\n      tag_167\n      jumpi\n      mload(0x40)\n      shl(0xe5, 0x461bcd)\n      dup2\n      mstore\n        /* \"#utility.yul\":5646:5648   */\n      0x20\n        /* \"contracts/WVLTToken.sol\":14868:14936  require(owner != address(0), \"ERC20: approve from the zero address\") */\n      0x04\n      dup3\n      add\n        /* \"#utility.yul\":5628:5649   */\n      mstore\n        /* \"#utility.yul\":5685:5687   */\n      0x24\n        /* \"#utility.yul\":5665:5683   */\n      dup1\n      dup3\n      add\n        /* \"#utility.yul\":5658:5688   */\n      mstore\n        /* \"#utility.yul\":5724:5758   */\n      0x45524332303a20617070726f76652066726f6d20746865207a65726f20616464\n        /* \"#utility.yul\":5704:5722   */\n      0x44\n      dup3\n      add\n        /* \"#utility.yul\":5697:5759   */\n      mstore\n      shl(0xe0, 0x72657373)\n        /* \"#utility.yul\":5775:5793   */\n      0x64\n      dup3\n      add\n        /* \"#utility.yul\":5768:5802   */\n      mstore\n        /* \"#utility.yul\":5819:5838   */\n      0x84\n      add\n        /* \"contracts/WVLTToken.sol\":14868:14936  require(owner != address(0), \"ERC20: approve from the zero address\") */\n      tag_103\n        /* \"#utility.yul\":5444:5844   */\n      jump\n        /* \"contracts/WVLTToken.sol\":14868:14936  require(owner != address(0), \"ERC20: approve from the zero address\") */\n    tag_167:\n      sub(shl(0xa0, 0x01), 0x01)\n        /* \"contracts/WVLTToken.sol\":14955:14976  spender != address(0) */\n      dup3\n      and\n        /* \"contracts/WVLTToken.sol\":14947:15015  require(spender != address(0), \"ERC20: approve to the zero address\") */\n      tag_170\n      jumpi\n      mload(0x40)\n      shl(0xe5, 0x461bcd)\n      dup2\n      mstore\n        /* \"#utility.yul\":3255:3257   */\n      0x20\n        /* \"contracts/WVLTToken.sol\":14947:15015  require(spender != address(0), \"ERC20: approve to the zero address\") */\n      0x04\n      dup3\n      add\n        /* \"#utility.yul\":3237:3258   */\n      mstore\n        /* \"#utility.yul\":3294:3296   */\n      0x22\n        /* \"#utility.yul\":3274:3292   */\n      0x24\n      dup3\n      add\n        /* \"#utility.yul\":3267:3297   */\n      mstore\n        /* \"#utility.yul\":3333:3367   */\n      0x45524332303a20617070726f766520746f20746865207a65726f206164647265\n        /* \"#utility.yul\":3313:3331   */\n      0x44\n      dup3\n      add\n        /* \"#utility.yul\":3306:3368   */\n      mstore\n      shl(0xf0, 0x7373)\n        /* \"#utility.yul\":3384:3402   */\n      0x64\n      dup3\n      add\n        /* \"#utility.yul\":3377:3409   */\n      mstore\n        /* \"#utility.yul\":3426:3445   */\n      0x84\n      add\n        /* \"contracts/WVLTToken.sol\":14947:15015  require(spender != address(0), \"ERC20: approve to the zero address\") */\n      tag_103\n        /* \"#utility.yul\":3053:3451   */\n      jump\n        /* \"contracts/WVLTToken.sol\":14947:15015  require(spender != address(0), \"ERC20: approve to the zero address\") */\n    tag_170:\n      sub(shl(0xa0, 0x01), 0x01)\n        /* \"contracts/WVLTToken.sol\":15028:15046  _allowances[owner] */\n      dup4\n      dup2\n      and\n      0x00\n      dup2\n      dup2\n      mstore\n        /* \"contracts/WVLTToken.sol\":15028:15039  _allowances */\n      0x01\n        /* \"contracts/WVLTToken.sol\":15028:15046  _allowances[owner] */\n      0x20\n      swap1\n      dup2\n      mstore\n      0x40\n      dup1\n      dup4\n      keccak256\n        /* \"contracts/WVLTToken.sol\":15028:15055  _allowances[owner][spender] */\n      swap5\n      dup8\n      and\n      dup1\n      dup5\n      mstore\n      swap5\n      dup3\n      mstore\n      swap2\n      dup3\n      swap1\n      keccak256\n        /* \"contracts/WVLTToken.sol\":15028:15064  _allowances[owner][spender] = amount */\n      dup6\n      swap1\n      sstore\n        /* \"contracts/WVLTToken.sol\":15080:15112  Approval(owner, spender, amount) */\n      swap1\n      mload\n        /* \"#utility.yul\":6761:6786   */\n      dup5\n      dup2\n      mstore\n        /* \"contracts/WVLTToken.sol\":15080:15112  Approval(owner, spender, amount) */\n      0x8c5be1e5ebec7d5bd14f71427d1e84f3dd0314c0f7b2291e5b200ac8c7c3b925\n      swap2\n        /* \"#utility.yul\":6734:6752   */\n      add\n        /* \"contracts/WVLTToken.sol\":15080:15112  Approval(owner, spender, amount) */\n      mload(0x40)\n      dup1\n      swap2\n      sub\n      swap1\n      log3\n        /* \"contracts/WVLTToken.sol\":14740:15120  function _approve(\r... */\n      pop\n      pop\n      pop\n      jump\t// out\n        /* \"contracts/WVLTToken.sol\":11922:12692  function _transfer(\r... */\n    tag_100:\n      sub(shl(0xa0, 0x01), 0x01)\n        /* \"contracts/WVLTToken.sol\":12062:12082  sender != address(0) */\n      dup4\n      and\n        /* \"contracts/WVLTToken.sol\":12054:12124  require(sender != address(0), \"ERC20: transfer from the zero address\") */\n      tag_175\n      jumpi\n      mload(0x40)\n      shl(0xe5, 0x461bcd)\n      dup2\n      mstore\n        /* \"#utility.yul\":5240:5242   */\n      0x20\n        /* \"contracts/WVLTToken.sol\":12054:12124  require(sender != address(0), \"ERC20: transfer from the zero address\") */\n      0x04\n      dup3\n      add\n        /* \"#utility.yul\":5222:5243   */\n      mstore\n        /* \"#utility.yul\":5279:5281   */\n      0x25\n        /* \"#utility.yul\":5259:5277   */\n      0x24\n      dup3\n      add\n        /* \"#utility.yul\":5252:5282   */\n      mstore\n        /* \"#utility.yul\":5318:5352   */\n      0x45524332303a207472616e736665722066726f6d20746865207a65726f206164\n        /* \"#utility.yul\":5298:5316   */\n      0x44\n      dup3\n      add\n        /* \"#utility.yul\":5291:5353   */\n      mstore\n      shl(0xd8, 0x6472657373)\n        /* \"#utility.yul\":5369:5387   */\n      0x64\n      dup3\n      add\n        /* \"#utility.yul\":5362:5397   */\n      mstore\n        /* \"#utility.yul\":5414:5433   */\n      0x84\n      add\n        /* \"contracts/WVLTToken.sol\":12054:12124  require(sender != address(0), \"ERC20: transfer from the zero address\") */\n      tag_103\n        /* \"#utility.yul\":5038:5439   */\n      jump\n        /* \"contracts/WVLTToken.sol\":12054:12124  require(sender != address(0), \"ERC20: transfer from the zero address\") */\n    tag_175:\n      sub(shl(0xa0, 0x01), 0x01)\n        /* \"contracts/WVLTToken.sol\":12143:12166  recipient != address(0) */\n      dup3\n      and\n        /* \"contracts/WVLTToken.sol\":12135:12206  require(recipient != address(0), \"ERC20: transfer to the zero address\") */\n      tag_178\n      jumpi\n      mload(0x40)\n      shl(0xe5, 0x461bcd)\n      dup2\n      mstore\n        /* \"#utility.yul\":2444:2446   */\n      0x20\n        /* \"contracts/WVLTToken.sol\":12135:12206  require(recipient != address(0), \"ERC20: transfer to the zero address\") */\n      0x04\n      dup3\n      add\n        /* \"#utility.yul\":2426:2447   */\n      mstore\n        /* \"#utility.yul\":2483:2485   */\n      0x23\n        /* \"#utility.yul\":2463:2481   */\n      0x24\n      dup3\n      add\n        /* \"#utility.yul\":2456:2486   */\n      mstore\n        /* \"#utility.yul\":2522:2556   */\n      0x45524332303a207472616e7366657220746f20746865207a65726f2061646472\n        /* \"#utility.yul\":2502:2520   */\n      0x44\n      dup3\n      add\n        /* \"#utility.yul\":2495:2557   */\n      mstore\n      shl(0xe8, 0x657373)\n        /* \"#utility.yul\":2573:2591   */\n      0x64\n      dup3\n      add\n        /* \"#utility.yul\":2566:2599   */\n      mstore\n        /* \"#utility.yul\":2616:2635   */\n      0x84\n      add\n        /* \"contracts/WVLTToken.sol\":12135:12206  require(recipient != address(0), \"ERC20: transfer to the zero address\") */\n      tag_103\n        /* \"#utility.yul\":2242:2641   */\n      jump\n        /* \"contracts/WVLTToken.sol\":12135:12206  require(recipient != address(0), \"ERC20: transfer to the zero address\") */\n    tag_178:\n      sub(shl(0xa0, 0x01), 0x01)\n        /* \"contracts/WVLTToken.sol\":12303:12320  _balances[sender] */\n      dup4\n      and\n        /* \"contracts/WVLTToken.sol\":12279:12300  uint256 senderBalance */\n      0x00\n        /* \"contracts/WVLTToken.sol\":12303:12320  _balances[sender] */\n      swap1\n      dup2\n      mstore\n      0x20\n      dup2\n      swap1\n      mstore\n      0x40\n      swap1\n      keccak256\n      sload\n        /* \"contracts/WVLTToken.sol\":12353:12376  senderBalance >= amount */\n      dup2\n      dup2\n      lt\n      iszero\n        /* \"contracts/WVLTToken.sol\":12331:12442  require(\r... */\n      tag_183\n      jumpi\n      mload(0x40)\n      shl(0xe5, 0x461bcd)\n      dup2\n      mstore\n        /* \"#utility.yul\":3658:3660   */\n      0x20\n        /* \"contracts/WVLTToken.sol\":12331:12442  require(\r... */\n      0x04\n      dup3\n      add\n        /* \"#utility.yul\":3640:3661   */\n      mstore\n        /* \"#utility.yul\":3697:3699   */\n      0x26\n        /* \"#utility.yul\":3677:3695   */\n      0x24\n      dup3\n      add\n        /* \"#utility.yul\":3670:3700   */\n      mstore\n        /* \"#utility.yul\":3736:3770   */\n      0x45524332303a207472616e7366657220616d6f756e7420657863656564732062\n        /* \"#utility.yul\":3716:3734   */\n      0x44\n      dup3\n      add\n        /* \"#utility.yul\":3709:3771   */\n      mstore\n      shl(0xd0, 0x616c616e6365)\n        /* \"#utility.yul\":3787:3805   */\n      0x64\n      dup3\n      add\n        /* \"#utility.yul\":3780:3816   */\n      mstore\n        /* \"#utility.yul\":3833:3852   */\n      0x84\n      add\n        /* \"contracts/WVLTToken.sol\":12331:12442  require(\r... */\n      tag_103\n        /* \"#utility.yul\":3456:3858   */\n      jump\n        /* \"contracts/WVLTToken.sol\":12331:12442  require(\r... */\n    tag_183:\n      sub(shl(0xa0, 0x01), 0x01)\n        /* \"contracts/WVLTToken.sol\":12478:12495  _balances[sender] */\n      dup1\n      dup6\n      and\n        /* \"contracts/WVLTToken.sol\":12478:12487  _balances */\n      0x00\n        /* \"contracts/WVLTToken.sol\":12478:12495  _balances[sender] */\n      swap1\n      dup2\n      mstore\n      0x20\n      dup2\n      swap1\n      mstore\n      0x40\n      dup1\n      dup3\n      keccak256\n        /* \"contracts/WVLTToken.sol\":12498:12520  senderBalance - amount */\n      dup6\n      dup6\n      sub\n        /* \"contracts/WVLTToken.sol\":12478:12520  _balances[sender] = senderBalance - amount */\n      swap1\n      sstore\n        /* \"contracts/WVLTToken.sol\":12542:12562  _balances[recipient] */\n      swap2\n      dup6\n      and\n      dup2\n      mstore\n      swap1\n      dup2\n      keccak256\n        /* \"contracts/WVLTToken.sol\":12542:12572  _balances[recipient] += amount */\n      dup1\n      sload\n        /* \"contracts/WVLTToken.sol\":12514:12520  amount */\n      dup5\n      swap3\n        /* \"contracts/WVLTToken.sol\":12478:12487  _balances */\n      swap1\n        /* \"contracts/WVLTToken.sol\":12542:12572  _balances[recipient] += amount */\n      tag_186\n      swap1\n        /* \"contracts/WVLTToken.sol\":12514:12520  amount */\n      dup5\n      swap1\n        /* \"contracts/WVLTToken.sol\":12542:12572  _balances[recipient] += amount */\n      tag_113\n      jump\t// in\n    tag_186:\n      swap3\n      pop\n      pop\n      dup2\n      swap1\n      sstore\n      pop\n        /* \"contracts/WVLTToken.sol\":12607:12616  recipient */\n      dup3\n      sub(shl(0xa0, 0x01), 0x01)\n        /* \"contracts/WVLTToken.sol\":12590:12625  Transfer(sender, recipient, amount) */\n      and\n        /* \"contracts/WVLTToken.sol\":12599:12605  sender */\n      dup5\n      sub(shl(0xa0, 0x01), 0x01)\n        /* \"contracts/WVLTToken.sol\":12590:12625  Transfer(sender, recipient, amount) */\n      and\n      0xddf252ad1be2c89b69c2b068fc378daa952ba7f163c4a11628f55a4df523b3ef\n        /* \"contracts/WVLTToken.sol\":12618:12624  amount */\n      dup5\n        /* \"contracts/WVLTToken.sol\":12590:12625  Transfer(sender, recipient, amount) */\n      mload(0x40)\n      tag_187\n      swap2\n        /* \"#utility.yul\":6761:6786   */\n      dup2\n      mstore\n        /* \"#utility.yul\":6749:6751   */\n      0x20\n        /* \"#utility.yul\":6734:6752   */\n      add\n      swap1\n        /* \"#utility.yul\":6615:6792   */\n      jump\n        /* \"contracts/WVLTToken.sol\":12590:12625  Transfer(sender, recipient, amount) */\n    tag_187:\n      mload(0x40)\n      dup1\n      swap2\n      sub\n      swap1\n      log3\n        /* \"contracts/WVLTToken.sol\":12043:12692  {\r... */\n      pop\n        /* \"contracts/WVLTToken.sol\":11922:12692  function _transfer(\r... */\n      pop\n      pop\n      pop\n      jump\t// out\n        /* \"contracts/WVLTToken.sol\":12979:13378  function _mint(address account, uint256 amount) internal virtual {\r... */\n    tag_127:\n      sub(shl(0xa0, 0x01), 0x01)\n        /* \"contracts/WVLTToken.sol\":13063:13084  account != address(0) */\n      dup3\n      and\n        /* \"contracts/WVLTToken.sol\":13055:13120  require(account != address(0), \"ERC20: mint to the zero address\") */\n      tag_191\n      jumpi\n      mload(0x40)\n      shl(0xe5, 0x461bcd)\n      dup2\n      mstore\n        /* \"#utility.yul\":6457:6459   */\n      0x20\n        /* \"contracts/WVLTToken.sol\":13055:13120  require(account != address(0), \"ERC20: mint to the zero address\") */\n      0x04\n      dup3\n      add\n        /* \"#utility.yul\":6439:6460   */\n      mstore\n        /* \"#utility.yul\":6496:6498   */\n      0x1f\n        /* \"#utility.yul\":6476:6494   */\n      0x24\n      dup3\n      add\n        /* \"#utility.yul\":6469:6499   */\n      mstore\n        /* \"#utility.yul\":6535:6568   */\n      0x45524332303a206d696e7420746f20746865207a65726f206164647265737300\n        /* \"#utility.yul\":6515:6533   */\n      0x44\n      dup3\n      add\n        /* \"#utility.yul\":6508:6569   */\n      mstore\n        /* \"#utility.yul\":6586:6604   */\n      0x64\n      add\n        /* \"contracts/WVLTToken.sol\":13055:13120  require(account != address(0), \"ERC20: mint to the zero address\") */\n      tag_103\n        /* \"#utility.yul\":6255:6610   */\n      jump\n        /* \"contracts/WVLTToken.sol\":13055:13120  require(account != address(0), \"ERC20: mint to the zero address\") */\n    tag_191:\n        /* \"contracts/WVLTToken.sol\":13211:13217  amount */\n      dup1\n        /* \"contracts/WVLTToken.sol\":13195:13207  _totalSupply */\n      0x02\n      0x00\n        /* \"contracts/WVLTToken.sol\":13195:13217  _totalSupply += amount */\n      dup3\n      dup3\n      sload\n      tag_195\n      swap2\n      swap1\n      tag_113\n      jump\t// in\n    tag_195:\n      swap1\n      swap2\n      sstore\n      pop\n      pop\n      sub(shl(0xa0, 0x01), 0x01)\n        /* \"contracts/WVLTToken.sol\":13228:13246  _balances[account] */\n      dup3\n      and\n        /* \"contracts/WVLTToken.sol\":13228:13237  _balances */\n      0x00\n        /* \"contracts/WVLTToken.sol\":13228:13246  _balances[account] */\n      swap1\n      dup2\n      mstore\n      0x20\n      dup2\n      swap1\n      mstore\n      0x40\n      dup2\n      keccak256\n        /* \"contracts/WVLTToken.sol\":13228:13256  _balances[account] += amount */\n      dup1\n      sload\n        /* \"contracts/WVLTToken.sol\":13250:13256  amount */\n      dup4\n      swap3\n        /* \"contracts/WVLTToken.sol\":13228:13237  _balances */\n      swap1\n        /* \"contracts/WVLTToken.sol\":13228:13256  _balances[account] += amount */\n      tag_196\n      swap1\n        /* \"contracts/WVLTToken.sol\":13250:13256  amount */\n      dup5\n      swap1\n        /* \"contracts/WVLTToken.sol\":13228:13256  _balances[account] += amount */\n      tag_113\n      jump\t// in\n    tag_196:\n      swap1\n      swap2\n      sstore\n      pop\n      pop\n        /* \"contracts/WVLTToken.sol\":13272:13309  Transfer(address(0), account, amount) */\n      mload(0x40)\n        /* \"#utility.yul\":6761:6786   */\n      dup2\n      dup2\n      mstore\n      sub(shl(0xa0, 0x01), 0x01)\n        /* \"contracts/WVLTToken.sol\":13272:13309  Transfer(address(0), account, amount) */\n      dup4\n      and\n      swap1\n        /* \"contracts/WVLTToken.sol\":13289:13290  0 */\n      0x00\n      swap1\n        /* \"contracts/WVLTToken.sol\":13272:13309  Transfer(address(0), account, amount) */\n      0xddf252ad1be2c89b69c2b068fc378daa952ba7f163c4a11628f55a4df523b3ef\n      swap1\n        /* \"#utility.yul\":6749:6751   */\n      0x20\n        /* \"#utility.yul\":6734:6752   */\n      add\n        /* \"contracts/WVLTToken.sol\":13272:13309  Transfer(address(0), account, amount) */\n      mload(0x40)\n      dup1\n      swap2\n      sub\n      swap1\n      log3\n        /* \"contracts/WVLTToken.sol\":19128:19361  function mint(address _to, uint256 _amount) public onlyOwner {\r... */\n      pop\n      pop\n      jump\t// out\n        /* \"contracts/WVLTToken.sol\":18679:18852  function _setOwner(address newOwner) private {\r... */\n    tag_136:\n        /* \"contracts/WVLTToken.sol\":18754:18760  _owner */\n      0x05\n      dup1\n      sload\n      sub(shl(0xa0, 0x01), 0x01)\n        /* \"contracts/WVLTToken.sol\":18771:18788  _owner = newOwner */\n      dup4\n      dup2\n      and\n      not(sub(shl(0xa0, 0x01), 0x01))\n      dup4\n      and\n      dup2\n      or\n      swap1\n      swap4\n      sstore\n        /* \"contracts/WVLTToken.sol\":18804:18844  OwnershipTransferred(oldOwner, newOwner) */\n      mload(0x40)\n        /* \"contracts/WVLTToken.sol\":18754:18760  _owner */\n      swap2\n      and\n      swap2\n        /* \"contracts/WVLTToken.sol\":18771:18788  _owner = newOwner */\n      swap1\n        /* \"contracts/WVLTToken.sol\":18754:18760  _owner */\n      dup3\n      swap1\n        /* \"contracts/WVLTToken.sol\":18804:18844  OwnershipTransferred(oldOwner, newOwner) */\n      0x8be0079c531659141344cd1fd0a4f28419497f9722a3daafe3b4186f6b6457e0\n      swap1\n        /* \"contracts/WVLTToken.sol\":18735:18751  address oldOwner */\n      0x00\n      swap1\n        /* \"contracts/WVLTToken.sol\":18804:18844  OwnershipTransferred(oldOwner, newOwner) */\n      log3\n        /* \"contracts/WVLTToken.sol\":18724:18852  {\r... */\n      pop\n        /* \"contracts/WVLTToken.sol\":18679:18852  function _setOwner(address newOwner) private {\r... */\n      pop\n      jump\t// out\n        /* \"#utility.yul\":14:187   */\n    tag_203:\n        /* \"#utility.yul\":82:102   */\n      dup1\n      calldataload\n      sub(shl(0xa0, 0x01), 0x01)\n        /* \"#utility.yul\":131:162   */\n      dup2\n      and\n        /* \"#utility.yul\":121:163   */\n      dup2\n      eq\n        /* \"#utility.yul\":111:181   */\n      tag_205\n      jumpi\n        /* \"#utility.yul\":177:178   */\n      0x00\n        /* \"#utility.yul\":174:175   */\n      dup1\n        /* \"#utility.yul\":167:179   */\n      revert\n        /* \"#utility.yul\":111:181   */\n    tag_205:\n        /* \"#utility.yul\":14:187   */\n      swap2\n      swap1\n      pop\n      jump\t// out\n        /* \"#utility.yul\":192:378   */\n    tag_57:\n        /* \"#utility.yul\":251:257   */\n      0x00\n        /* \"#utility.yul\":304:306   */\n      0x20\n        /* \"#utility.yul\":292:301   */\n      dup3\n        /* \"#utility.yul\":283:290   */\n      dup5\n        /* \"#utility.yul\":279:302   */\n      sub\n        /* \"#utility.yul\":275:307   */\n      slt\n        /* \"#utility.yul\":272:324   */\n      iszero\n      tag_207\n      jumpi\n        /* \"#utility.yul\":320:321   */\n      0x00\n        /* \"#utility.yul\":317:318   */\n      dup1\n        /* \"#utility.yul\":310:322   */\n      revert\n        /* \"#utility.yul\":272:324   */\n    tag_207:\n        /* \"#utility.yul\":343:372   */\n      tag_208\n        /* \"#utility.yul\":362:371   */\n      dup3\n        /* \"#utility.yul\":343:372   */\n      tag_203\n      jump\t// in\n    tag_208:\n        /* \"#utility.yul\":333:372   */\n      swap4\n        /* \"#utility.yul\":192:378   */\n      swap3\n      pop\n      pop\n      pop\n      jump\t// out\n        /* \"#utility.yul\":383:643   */\n    tag_79:\n        /* \"#utility.yul\":451:457   */\n      0x00\n        /* \"#utility.yul\":459:465   */\n      dup1\n        /* \"#utility.yul\":512:514   */\n      0x40\n        /* \"#utility.yul\":500:509   */\n      dup4\n        /* \"#utility.yul\":491:498   */\n      dup6\n        /* \"#utility.yul\":487:510   */\n      sub\n        /* \"#utility.yul\":483:515   */\n      slt\n        /* \"#utility.yul\":480:532   */\n      iszero\n      tag_210\n      jumpi\n        /* \"#utility.yul\":528:529   */\n      0x00\n        /* \"#utility.yul\":525:526   */\n      dup1\n        /* \"#utility.yul\":518:530   */\n      revert\n        /* \"#utility.yul\":480:532   */\n    tag_210:\n        /* \"#utility.yul\":551:580   */\n      tag_211\n        /* \"#utility.yul\":570:579   */\n      dup4\n        /* \"#utility.yul\":551:580   */\n      tag_203\n      jump\t// in\n    tag_211:\n        /* \"#utility.yul\":541:580   */\n      swap2\n      pop\n        /* \"#utility.yul\":599:637   */\n      tag_212\n        /* \"#utility.yul\":633:635   */\n      0x20\n        /* \"#utility.yul\":622:631   */\n      dup5\n        /* \"#utility.yul\":618:636   */\n      add\n        /* \"#utility.yul\":599:637   */\n      tag_203\n      jump\t// in\n    tag_212:\n        /* \"#utility.yul\":589:637   */\n      swap1\n      pop\n        /* \"#utility.yul\":383:643   */\n      swap3\n      pop\n      swap3\n      swap1\n      pop\n      jump\t// out\n        /* \"#utility.yul\":648:976   */\n    tag_38:\n        /* \"#utility.yul\":725:731   */\n      0x00\n        /* \"#utility.yul\":733:739   */\n      dup1\n        /* \"#utility.yul\":741:747   */\n      0x00\n        /* \"#utility.yul\":794:796   */\n      0x60\n        /* \"#utility.yul\":782:791   */\n      dup5\n        /* \"#utility.yul\":773:780   */\n      dup7\n        /* \"#utility.yul\":769:792   */\n      sub\n        /* \"#utility.yul\":765:797   */\n      slt\n        /* \"#utility.yul\":762:814   */\n      iszero\n      tag_214\n      jumpi\n        /* \"#utility.yul\":810:811   */\n      0x00\n        /* \"#utility.yul\":807:808   */\n      dup1\n        /* \"#utility.yul\":800:812   */\n      revert\n        /* \"#utility.yul\":762:814   */\n    tag_214:\n        /* \"#utility.yul\":833:862   */\n      tag_215\n        /* \"#utility.yul\":852:861   */\n      dup5\n        /* \"#utility.yul\":833:862   */\n      tag_203\n      jump\t// in\n    tag_215:\n        /* \"#utility.yul\":823:862   */\n      swap3\n      pop\n        /* \"#utility.yul\":881:919   */\n      tag_216\n        /* \"#utility.yul\":915:917   */\n      0x20\n        /* \"#utility.yul\":904:913   */\n      dup6\n        /* \"#utility.yul\":900:918   */\n      add\n        /* \"#utility.yul\":881:919   */\n      tag_203\n      jump\t// in\n    tag_216:\n        /* \"#utility.yul\":871:919   */\n      swap2\n      pop\n        /* \"#utility.yul\":966:968   */\n      0x40\n        /* \"#utility.yul\":955:964   */\n      dup5\n        /* \"#utility.yul\":951:969   */\n      add\n        /* \"#utility.yul\":938:970   */\n      calldataload\n        /* \"#utility.yul\":928:970   */\n      swap1\n      pop\n        /* \"#utility.yul\":648:976   */\n      swap3\n      pop\n      swap3\n      pop\n      swap3\n      jump\t// out\n        /* \"#utility.yul\":981:1235   */\n    tag_28:\n        /* \"#utility.yul\":1049:1055   */\n      0x00\n        /* \"#utility.yul\":1057:1063   */\n      dup1\n        /* \"#utility.yul\":1110:1112   */\n      0x40\n        /* \"#utility.yul\":1098:1107   */\n      dup4\n        /* \"#utility.yul\":1089:1096   */\n      dup6\n        /* \"#utility.yul\":1085:1108   */\n      sub\n        /* \"#utility.yul\":1081:1113   */\n      slt\n        /* \"#utility.yul\":1078:1130   */\n      iszero\n      tag_218\n      jumpi\n        /* \"#utility.yul\":1126:1127   */\n      0x00\n        /* \"#utility.yul\":1123:1124   */\n      dup1\n        /* \"#utility.yul\":1116:1128   */\n      revert\n        /* \"#utility.yul\":1078:1130   */\n    tag_218:\n        /* \"#utility.yul\":1149:1178   */\n      tag_219\n        /* \"#utility.yul\":1168:1177   */\n      dup4\n        /* \"#utility.yul\":1149:1178   */\n      tag_203\n      jump\t// in\n    tag_219:\n        /* \"#utility.yul\":1139:1178   */\n      swap5\n        /* \"#utility.yul\":1225:1227   */\n      0x20\n        /* \"#utility.yul\":1210:1228   */\n      swap4\n      swap1\n      swap4\n      add\n        /* \"#utility.yul\":1197:1229   */\n      calldataload\n      swap4\n      pop\n      pop\n      pop\n        /* \"#utility.yul\":981:1235   */\n      jump\t// out\n        /* \"#utility.yul\":1640:2237   */\n    tag_25:\n        /* \"#utility.yul\":1752:1756   */\n      0x00\n        /* \"#utility.yul\":1781:1783   */\n      0x20\n        /* \"#utility.yul\":1810:1812   */\n      dup1\n        /* \"#utility.yul\":1799:1808   */\n      dup4\n        /* \"#utility.yul\":1792:1813   */\n      mstore\n        /* \"#utility.yul\":1842:1848   */\n      dup4\n        /* \"#utility.yul\":1836:1849   */\n      mload\n        /* \"#utility.yul\":1885:1891   */\n      dup1\n        /* \"#utility.yul\":1880:1882   */\n      dup3\n        /* \"#utility.yul\":1869:1878   */\n      dup6\n        /* \"#utility.yul\":1865:1883   */\n      add\n        /* \"#utility.yul\":1858:1892   */\n      mstore\n        /* \"#utility.yul\":1910:1911   */\n      0x00\n        /* \"#utility.yul\":1920:2060   */\n    tag_223:\n        /* \"#utility.yul\":1934:1940   */\n      dup2\n        /* \"#utility.yul\":1931:1932   */\n      dup2\n        /* \"#utility.yul\":1928:1941   */\n      lt\n        /* \"#utility.yul\":1920:2060   */\n      iszero\n      tag_225\n      jumpi\n        /* \"#utility.yul\":2029:2043   */\n      dup6\n      dup2\n      add\n        /* \"#utility.yul\":2025:2048   */\n      dup4\n      add\n        /* \"#utility.yul\":2019:2049   */\n      mload\n        /* \"#utility.yul\":1995:2012   */\n      dup6\n      dup3\n      add\n        /* \"#utility.yul\":2014:2016   */\n      0x40\n        /* \"#utility.yul\":1991:2017   */\n      add\n        /* \"#utility.yul\":1984:2050   */\n      mstore\n        /* \"#utility.yul\":1949:1959   */\n      dup3\n      add\n        /* \"#utility.yul\":1920:2060   */\n      jump(tag_223)\n    tag_225:\n        /* \"#utility.yul\":2078:2084   */\n      dup2\n        /* \"#utility.yul\":2075:2076   */\n      dup2\n        /* \"#utility.yul\":2072:2085   */\n      gt\n        /* \"#utility.yul\":2069:2160   */\n      iszero\n      tag_226\n      jumpi\n        /* \"#utility.yul\":2148:2149   */\n      0x00\n        /* \"#utility.yul\":2143:2145   */\n      0x40\n        /* \"#utility.yul\":2134:2140   */\n      dup4\n        /* \"#utility.yul\":2123:2132   */\n      dup8\n        /* \"#utility.yul\":2119:2141   */\n      add\n        /* \"#utility.yul\":2115:2146   */\n      add\n        /* \"#utility.yul\":2108:2150   */\n      mstore\n        /* \"#utility.yul\":2069:2160   */\n    tag_226:\n      pop\n        /* \"#utility.yul\":2221:2223   */\n      0x1f\n        /* \"#utility.yul\":2200:2215   */\n      add\n      not(0x1f)\n        /* \"#utility.yul\":2196:2225   */\n      and\n        /* \"#utility.yul\":2181:2226   */\n      swap3\n      swap1\n      swap3\n      add\n        /* \"#utility.yul\":2228:2230   */\n      0x40\n        /* \"#utility.yul\":2177:2231   */\n      add\n      swap4\n        /* \"#utility.yul\":1640:2237   */\n      swap3\n      pop\n      pop\n      pop\n      jump\t// out\n        /* \"#utility.yul\":4677:5033   */\n    tag_119:\n        /* \"#utility.yul\":4879:4881   */\n      0x20\n        /* \"#utility.yul\":4861:4882   */\n      dup1\n      dup3\n      mstore\n        /* \"#utility.yul\":4898:4916   */\n      dup2\n      dup2\n      add\n        /* \"#utility.yul\":4891:4921   */\n      mstore\n        /* \"#utility.yul\":4957:4991   */\n      0x4f776e61626c653a2063616c6c6572206973206e6f7420746865206f776e6572\n        /* \"#utility.yul\":4952:4954   */\n      0x40\n        /* \"#utility.yul\":4937:4955   */\n      dup3\n      add\n        /* \"#utility.yul\":4930:4992   */\n      mstore\n        /* \"#utility.yul\":5024:5026   */\n      0x60\n        /* \"#utility.yul\":5009:5027   */\n      add\n      swap1\n        /* \"#utility.yul\":4677:5033   */\n      jump\t// out\n        /* \"#utility.yul\":6986:7211   */\n    tag_113:\n        /* \"#utility.yul\":7026:7029   */\n      0x00\n        /* \"#utility.yul\":7057:7058   */\n      dup3\n        /* \"#utility.yul\":7053:7059   */\n      not\n        /* \"#utility.yul\":7050:7051   */\n      dup3\n        /* \"#utility.yul\":7047:7060   */\n      gt\n        /* \"#utility.yul\":7044:7180   */\n      iszero\n      tag_241\n      jumpi\n        /* \"#utility.yul\":7102:7112   */\n      0x4e487b71\n        /* \"#utility.yul\":7097:7100   */\n      0xe0\n        /* \"#utility.yul\":7093:7113   */\n      shl\n        /* \"#utility.yul\":7090:7091   */\n      0x00\n        /* \"#utility.yul\":7083:7114   */\n      mstore\n        /* \"#utility.yul\":7137:7141   */\n      0x11\n        /* \"#utility.yul\":7134:7135   */\n      0x04\n        /* \"#utility.yul\":7127:7142   */\n      mstore\n        /* \"#utility.yul\":7165:7169   */\n      0x24\n        /* \"#utility.yul\":7162:7163   */\n      0x00\n        /* \"#utility.yul\":7155:7170   */\n      revert\n        /* \"#utility.yul\":7044:7180   */\n    tag_241:\n      pop\n        /* \"#utility.yul\":7196:7205   */\n      add\n      swap1\n        /* \"#utility.yul\":6986:7211   */\n      jump\t// out\n        /* \"#utility.yul\":7216:7596   */\n    tag_87:\n        /* \"#utility.yul\":7295:7296   */\n      0x01\n        /* \"#utility.yul\":7291:7303   */\n      dup2\n      dup2\n      shr\n      swap1\n        /* \"#utility.yul\":7338:7350   */\n      dup3\n      and\n      dup1\n        /* \"#utility.yul\":7359:7420   */\n      tag_243\n      jumpi\n        /* \"#utility.yul\":7413:7417   */\n      0x7f\n        /* \"#utility.yul\":7405:7411   */\n      dup3\n        /* \"#utility.yul\":7401:7418   */\n      and\n        /* \"#utility.yul\":7391:7418   */\n      swap2\n      pop\n        /* \"#utility.yul\":7359:7420   */\n    tag_243:\n        /* \"#utility.yul\":7466:7468   */\n      0x20\n        /* \"#utility.yul\":7458:7464   */\n      dup3\n        /* \"#utility.yul\":7455:7469   */\n      lt\n        /* \"#utility.yul\":7435:7453   */\n      dup2\n        /* \"#utility.yul\":7432:7470   */\n      eq\n        /* \"#utility.yul\":7429:7590   */\n      iszero\n      tag_244\n      jumpi\n        /* \"#utility.yul\":7512:7522   */\n      0x4e487b71\n        /* \"#utility.yul\":7507:7510   */\n      0xe0\n        /* \"#utility.yul\":7503:7523   */\n      shl\n        /* \"#utility.yul\":7500:7501   */\n      0x00\n        /* \"#utility.yul\":7493:7524   */\n      mstore\n        /* \"#utility.yul\":7547:7551   */\n      0x22\n        /* \"#utility.yul\":7544:7545   */\n      0x04\n        /* \"#utility.yul\":7537:7552   */\n      mstore\n        /* \"#utility.yul\":7575:7579   */\n      0x24\n        /* \"#utility.yul\":7572:7573   */\n      0x00\n        /* \"#utility.yul\":7565:7580   */\n      revert\n        /* \"#utility.yul\":7429:7590   */\n    tag_244:\n      pop\n        /* \"#utility.yul\":7216:7596   */\n      swap2\n      swap1\n      pop\n      jump\t// out\n\n    auxdata: 0xa26469706673582212206f0d4ead56564f9a446013673affe383f05bfe1e18aa0e536b2adae5c27e71f464736f6c63430008070033\n}\n",
				"bytecode": {
					"linkReferences": {},
					"object": "60806040523480156200001157600080fd5b5060408051808201825260098152682bab262a2a37b5b2b760b91b60208083019182528351808501909452600484526315d5931560e21b9084015281519192916200005f91600391620000ee565b50805162000075906004906020840190620000ee565b505050620000926200008c6200009860201b60201c565b6200009c565b620001d1565b3390565b600580546001600160a01b038381166001600160a01b0319831681179093556040519116919082907f8be0079c531659141344cd1fd0a4f28419497f9722a3daafe3b4186f6b6457e090600090a35050565b828054620000fc9062000194565b90600052602060002090601f0160209004810192826200012057600085556200016b565b82601f106200013b57805160ff19168380011785556200016b565b828001600101855582156200016b579182015b828111156200016b5782518255916020019190600101906200014e565b50620001799291506200017d565b5090565b5b808211156200017957600081556001016200017e565b600181811c90821680620001a957607f821691505b60208210811415620001cb57634e487b7160e01b600052602260045260246000fd5b50919050565b610c6180620001e16000396000f3fe608060405234801561001057600080fd5b50600436106101005760003560e01c806370a0823111610097578063a457c2d711610066578063a457c2d714610208578063a9059cbb1461021b578063dd62ed3e1461022e578063f2fde38b1461026757600080fd5b806370a08231146101b4578063715018a6146101dd5780638da5cb5b146101e557806395d89b411461020057600080fd5b8063313ce567116100d3578063313ce5671461016b57806332cb6b0c1461017a578063395093511461018c57806340c10f191461019f57600080fd5b806306fdde0314610105578063095ea7b31461012357806318160ddd1461014657806323b872dd14610158575b600080fd5b61010d61027a565b60405161011a9190610b40565b60405180910390f35b610136610131366004610b16565b61030c565b604051901515815260200161011a565b6002545b60405190815260200161011a565b610136610166366004610ada565b610322565b6040516012815260200161011a565b61014a6a52b7d2dcc80cd2e400000081565b61013661019a366004610b16565b6103d1565b6101b26101ad366004610b16565b61040d565b005b61014a6101c2366004610a85565b6001600160a01b031660009081526020819052604090205490565b6101b26104bf565b6005546040516001600160a01b03909116815260200161011a565b61010d6104f5565b610136610216366004610b16565b610504565b610136610229366004610b16565b61059d565b61014a61023c366004610aa7565b6001600160a01b03918216600090815260016020908152604080832093909416825291909152205490565b6101b2610275366004610a85565b6105aa565b60606003805461028990610bf0565b80601f01602080910402602001604051908101604052809291908181526020018280546102b590610bf0565b80156103025780601f106102d757610100808354040283529160200191610302565b820191906000526020600020905b8154815290600101906020018083116102e557829003601f168201915b5050505050905090565b6000610319338484610645565b50600192915050565b600061032f848484610769565b6001600160a01b0384166000908152600160209081526040808320338452909152902054828110156103b95760405162461bcd60e51b815260206004820152602860248201527f45524332303a207472616e7366657220616d6f756e74206578636565647320616044820152676c6c6f77616e636560c01b60648201526084015b60405180910390fd5b6103c68533858403610645565b506001949350505050565b3360008181526001602090815260408083206001600160a01b03871684529091528120549091610319918590610408908690610bca565b610645565b6005546001600160a01b031633146104375760405162461bcd60e51b81526004016103b090610b95565b6a52b7d2dcc80cd2e40000008161044d60025490565b6104579190610bca565b11156104b15760405162461bcd60e51b8152602060048201526024808201527f57564c543a3a6d696e743a2063616e6e6f7420657863656564206d617820737560448201526370706c7960e01b60648201526084016103b0565b6104bb8282610938565b5050565b6005546001600160a01b031633146104e95760405162461bcd60e51b81526004016103b090610b95565b6104f36000610a17565b565b60606004805461028990610bf0565b3360009081526001602090815260408083206001600160a01b0386168452909152812054828110156105865760405162461bcd60e51b815260206004820152602560248201527f45524332303a2064656372656173656420616c6c6f77616e63652062656c6f77604482015264207a65726f60d81b60648201526084016103b0565b6105933385858403610645565b5060019392505050565b6000610319338484610769565b6005546001600160a01b031633146105d45760405162461bcd60e51b81526004016103b090610b95565b6001600160a01b0381166106395760405162461bcd60e51b815260206004820152602660248201527f4f776e61626c653a206e6577206f776e657220697320746865207a65726f206160448201526564647265737360d01b60648201526084016103b0565b61064281610a17565b50565b6001600160a01b0383166106a75760405162461bcd60e51b8152602060048201526024808201527f45524332303a20617070726f76652066726f6d20746865207a65726f206164646044820152637265737360e01b60648201526084016103b0565b6001600160a01b0382166107085760405162461bcd60e51b815260206004820152602260248201527f45524332303a20617070726f766520746f20746865207a65726f206164647265604482015261737360f01b60648201526084016103b0565b6001600160a01b0383811660008181526001602090815260408083209487168084529482529182902085905590518481527f8c5be1e5ebec7d5bd14f71427d1e84f3dd0314c0f7b2291e5b200ac8c7c3b925910160405180910390a3505050565b6001600160a01b0383166107cd5760405162461bcd60e51b815260206004820152602560248201527f45524332303a207472616e736665722066726f6d20746865207a65726f206164604482015264647265737360d81b60648201526084016103b0565b6001600160a01b03821661082f5760405162461bcd60e51b815260206004820152602360248201527f45524332303a207472616e7366657220746f20746865207a65726f206164647260448201526265737360e81b60648201526084016103b0565b6001600160a01b038316600090815260208190526040902054818110156108a75760405162461bcd60e51b815260206004820152602660248201527f45524332303a207472616e7366657220616d6f756e7420657863656564732062604482015265616c616e636560d01b60648201526084016103b0565b6001600160a01b038085166000908152602081905260408082208585039055918516815290812080548492906108de908490610bca565b92505081905550826001600160a01b0316846001600160a01b03167fddf252ad1be2c89b69c2b068fc378daa952ba7f163c4a11628f55a4df523b3ef8460405161092a91815260200190565b60405180910390a350505050565b6001600160a01b03821661098e5760405162461bcd60e51b815260206004820152601f60248201527f45524332303a206d696e7420746f20746865207a65726f20616464726573730060448201526064016103b0565b80600260008282546109a09190610bca565b90915550506001600160a01b038216600090815260208190526040812080548392906109cd908490610bca565b90915550506040518181526001600160a01b038316906000907fddf252ad1be2c89b69c2b068fc378daa952ba7f163c4a11628f55a4df523b3ef9060200160405180910390a35050565b600580546001600160a01b038381166001600160a01b0319831681179093556040519116919082907f8be0079c531659141344cd1fd0a4f28419497f9722a3daafe3b4186f6b6457e090600090a35050565b80356001600160a01b0381168114610a8057600080fd5b919050565b600060208284031215610a9757600080fd5b610aa082610a69565b9392505050565b60008060408385031215610aba57600080fd5b610ac383610a69565b9150610ad160208401610a69565b90509250929050565b600080600060608486031215610aef57600080fd5b610af884610a69565b9250610b0660208501610a69565b9150604084013590509250925092565b60008060408385031215610b2957600080fd5b610b3283610a69565b946020939093013593505050565b600060208083528351808285015260005b81811015610b6d57858101830151858201604001528201610b51565b81811115610b7f576000604083870101525b50601f01601f1916929092016040019392505050565b6020808252818101527f4f776e61626c653a2063616c6c6572206973206e6f7420746865206f776e6572604082015260600190565b60008219821115610beb57634e487b7160e01b600052601160045260246000fd5b500190565b600181811c90821680610c0457607f821691505b60208210811415610c2557634e487b7160e01b600052602260045260246000fd5b5091905056fea26469706673582212206f0d4ead56564f9a446013673affe383f05bfe1e18aa0e536b2adae5c27e71f464736f6c63430008070033",
					"opcodes": "PUSH1 0x80 PUSH1 0x40 MSTORE CALLVALUE DUP1 ISZERO PUSH3 0x11 JUMPI PUSH1 0x0 DUP1 REVERT JUMPDEST POP PUSH1 0x40 DUP1 MLOAD DUP1 DUP3 ADD DUP3 MSTORE PUSH1 0x9 DUP2 MSTORE PUSH9 0x2BAB262A2A37B5B2B7 PUSH1 0xB9 SHL PUSH1 0x20 DUP1 DUP4 ADD SWAP2 DUP3 MSTORE DUP4 MLOAD DUP1 DUP6 ADD SWAP1 SWAP5 MSTORE PUSH1 0x4 DUP5 MSTORE PUSH4 0x15D59315 PUSH1 0xE2 SHL SWAP1 DUP5 ADD MSTORE DUP2 MLOAD SWAP2 SWAP3 SWAP2 PUSH3 0x5F SWAP2 PUSH1 0x3 SWAP2 PUSH3 0xEE JUMP JUMPDEST POP DUP1 MLOAD PUSH3 0x75 SWAP1 PUSH1 0x4 SWAP1 PUSH1 0x20 DUP5 ADD SWAP1 PUSH3 0xEE JUMP JUMPDEST POP POP POP PUSH3 0x92 PUSH3 0x8C PUSH3 0x98 PUSH1 0x20 SHL PUSH1 0x20 SHR JUMP JUMPDEST PUSH3 0x9C JUMP JUMPDEST PUSH3 0x1D1 JUMP JUMPDEST CALLER SWAP1 JUMP JUMPDEST PUSH1 0x5 DUP1 SLOAD PUSH1 0x1 PUSH1 0x1 PUSH1 0xA0 SHL SUB DUP4 DUP2 AND PUSH1 0x1 PUSH1 0x1 PUSH1 0xA0 SHL SUB NOT DUP4 AND DUP2 OR SWAP1 SWAP4 SSTORE PUSH1 0x40 MLOAD SWAP2 AND SWAP2 SWAP1 DUP3 SWAP1 PUSH32 0x8BE0079C531659141344CD1FD0A4F28419497F9722A3DAAFE3B4186F6B6457E0 SWAP1 PUSH1 0x0 SWAP1 LOG3 POP POP JUMP JUMPDEST DUP3 DUP1 SLOAD PUSH3 0xFC SWAP1 PUSH3 0x194 JUMP JUMPDEST SWAP1 PUSH1 0x0 MSTORE PUSH1 0x20 PUSH1 0x0 KECCAK256 SWAP1 PUSH1 0x1F ADD PUSH1 0x20 SWAP1 DIV DUP2 ADD SWAP3 DUP3 PUSH3 0x120 JUMPI PUSH1 0x0 DUP6 SSTORE PUSH3 0x16B JUMP JUMPDEST DUP3 PUSH1 0x1F LT PUSH3 0x13B JUMPI DUP1 MLOAD PUSH1 0xFF NOT AND DUP4 DUP1 ADD OR DUP6 SSTORE PUSH3 0x16B JUMP JUMPDEST DUP3 DUP1 ADD PUSH1 0x1 ADD DUP6 SSTORE DUP3 ISZERO PUSH3 0x16B JUMPI SWAP2 DUP3 ADD JUMPDEST DUP3 DUP2 GT ISZERO PUSH3 0x16B JUMPI DUP3 MLOAD DUP3 SSTORE SWAP2 PUSH1 0x20 ADD SWAP2 SWAP1 PUSH1 0x1 ADD SWAP1 PUSH3 0x14E JUMP JUMPDEST POP PUSH3 0x179 SWAP3 SWAP2 POP PUSH3 0x17D JUMP JUMPDEST POP SWAP1 JUMP JUMPDEST JUMPDEST DUP1 DUP3 GT ISZERO PUSH3 0x179 JUMPI PUSH1 0x0 DUP2 SSTORE PUSH1 0x1 ADD PUSH3 0x17E JUMP JUMPDEST PUSH1 0x1 DUP2 DUP2 SHR SWAP1 DUP3 AND DUP1 PUSH3 0x1A9 JUMPI PUSH1 0x7F DUP3 AND SWAP2 POP JUMPDEST PUSH1 0x20 DUP3 LT DUP2 EQ ISZERO PUSH3 0x1CB JUMPI PUSH4 0x4E487B71 PUSH1 0xE0 SHL PUSH1 0x0 MSTORE PUSH1 0x22 PUSH1 0x4 MSTORE PUSH1 0x24 PUSH1 0x0 REVERT JUMPDEST POP SWAP2 SWAP1 POP JUMP JUMPDEST PUSH2 0xC61 DUP1 PUSH3 0x1E1 PUSH1 0x0 CODECOPY PUSH1 0x0 RETURN INVALID PUSH1 0x80 PUSH1 0x40 MSTORE CALLVALUE DUP1 ISZERO PUSH2 0x10 JUMPI PUSH1 0x0 DUP1 REVERT JUMPDEST POP PUSH1 0x4 CALLDATASIZE LT PUSH2 0x100 JUMPI PUSH1 0x0 CALLDATALOAD PUSH1 0xE0 SHR DUP1 PUSH4 0x70A08231 GT PUSH2 0x97 JUMPI DUP1 PUSH4 0xA457C2D7 GT PUSH2 0x66 JUMPI DUP1 PUSH4 0xA457C2D7 EQ PUSH2 0x208 JUMPI DUP1 PUSH4 0xA9059CBB EQ PUSH2 0x21B JUMPI DUP1 PUSH4 0xDD62ED3E EQ PUSH2 0x22E JUMPI DUP1 PUSH4 0xF2FDE38B EQ PUSH2 0x267 JUMPI PUSH1 0x0 DUP1 REVERT JUMPDEST DUP1 PUSH4 0x70A08231 EQ PUSH2 0x1B4 JUMPI DUP1 PUSH4 0x715018A6 EQ PUSH2 0x1DD JUMPI DUP1 PUSH4 0x8DA5CB5B EQ PUSH2 0x1E5 JUMPI DUP1 PUSH4 0x95D89B41 EQ PUSH2 0x200 JUMPI PUSH1 0x0 DUP1 REVERT JUMPDEST DUP1 PUSH4 0x313CE567 GT PUSH2 0xD3 JUMPI DUP1 PUSH4 0x313CE567 EQ PUSH2 0x16B JUMPI DUP1 PUSH4 0x32CB6B0C EQ PUSH2 0x17A JUMPI DUP1 PUSH4 0x39509351 EQ PUSH2 0x18C JUMPI DUP1 PUSH4 0x40C10F19 EQ PUSH2 0x19F JUMPI PUSH1 0x0 DUP1 REVERT JUMPDEST DUP1 PUSH4 0x6FDDE03 EQ PUSH2 0x105 JUMPI DUP1 PUSH4 0x95EA7B3 EQ PUSH2 0x123 JUMPI DUP1 PUSH4 0x18160DDD EQ PUSH2 0x146 JUMPI DUP1 PUSH4 0x23B872DD EQ PUSH2 0x158 JUMPI JUMPDEST PUSH1 0x0 DUP1 REVERT JUMPDEST PUSH2 0x10D PUSH2 0x27A JUMP JUMPDEST PUSH1 0x40 MLOAD PUSH2 0x11A SWAP2 SWAP1 PUSH2 0xB40 JUMP JUMPDEST PUSH1 0x40 MLOAD DUP1 SWAP2 SUB SWAP1 RETURN JUMPDEST PUSH2 0x136 PUSH2 0x131 CALLDATASIZE PUSH1 0x4 PUSH2 0xB16 JUMP JUMPDEST PUSH2 0x30C JUMP JUMPDEST PUSH1 0x40 MLOAD SWAP1 ISZERO ISZERO DUP2 MSTORE PUSH1 0x20 ADD PUSH2 0x11A JUMP JUMPDEST PUSH1 0x2 SLOAD JUMPDEST PUSH1 0x40 MLOAD SWAP1 DUP2 MSTORE PUSH1 0x20 ADD PUSH2 0x11A JUMP JUMPDEST PUSH2 0x136 PUSH2 0x166 CALLDATASIZE PUSH1 0x4 PUSH2 0xADA JUMP JUMPDEST PUSH2 0x322 JUMP JUMPDEST PUSH1 0x40 MLOAD PUSH1 0x12 DUP2 MSTORE PUSH1 0x20 ADD PUSH2 0x11A JUMP JUMPDEST PUSH2 0x14A PUSH11 0x52B7D2DCC80CD2E4000000 DUP2 JUMP JUMPDEST PUSH2 0x136 PUSH2 0x19A CALLDATASIZE PUSH1 0x4 PUSH2 0xB16 JUMP JUMPDEST PUSH2 0x3D1 JUMP JUMPDEST PUSH2 0x1B2 PUSH2 0x1AD CALLDATASIZE PUSH1 0x4 PUSH2 0xB16 JUMP JUMPDEST PUSH2 0x40D JUMP JUMPDEST STOP JUMPDEST PUSH2 0x14A PUSH2 0x1C2 CALLDATASIZE PUSH1 0x4 PUSH2 0xA85 JUMP JUMPDEST PUSH1 0x1 PUSH1 0x1 PUSH1 0xA0 SHL SUB AND PUSH1 0x0 SWAP1 DUP2 MSTORE PUSH1 0x20 DUP2 SWAP1 MSTORE PUSH1 0x40 SWAP1 KECCAK256 SLOAD SWAP1 JUMP JUMPDEST PUSH2 0x1B2 PUSH2 0x4BF JUMP JUMPDEST PUSH1 0x5 SLOAD PUSH1 0x40 MLOAD PUSH1 0x1 PUSH1 0x1 PUSH1 0xA0 SHL SUB SWAP1 SWAP2 AND DUP2 MSTORE PUSH1 0x20 ADD PUSH2 0x11A JUMP JUMPDEST PUSH2 0x10D PUSH2 0x4F5 JUMP JUMPDEST PUSH2 0x136 PUSH2 0x216 CALLDATASIZE PUSH1 0x4 PUSH2 0xB16 JUMP JUMPDEST PUSH2 0x504 JUMP JUMPDEST PUSH2 0x136 PUSH2 0x229 CALLDATASIZE PUSH1 0x4 PUSH2 0xB16 JUMP JUMPDEST PUSH2 0x59D JUMP JUMPDEST PUSH2 0x14A PUSH2 0x23C CALLDATASIZE PUSH1 0x4 PUSH2 0xAA7 JUMP JUMPDEST PUSH1 0x1 PUSH1 0x1 PUSH1 0xA0 SHL SUB SWAP2 DUP3 AND PUSH1 0x0 SWAP1 DUP2 MSTORE PUSH1 0x1 PUSH1 0x20 SWAP1 DUP2 MSTORE PUSH1 0x40 DUP1 DUP4 KECCAK256 SWAP4 SWAP1 SWAP5 AND DUP3 MSTORE SWAP2 SWAP1 SWAP2 MSTORE KECCAK256 SLOAD SWAP1 JUMP JUMPDEST PUSH2 0x1B2 PUSH2 0x275 CALLDATASIZE PUSH1 0x4 PUSH2 0xA85 JUMP JUMPDEST PUSH2 0x5AA JUMP JUMPDEST PUSH1 0x60 PUSH1 0x3 DUP1 SLOAD PUSH2 0x289 SWAP1 PUSH2 0xBF0 JUMP JUMPDEST DUP1 PUSH1 0x1F ADD PUSH1 0x20 DUP1 SWAP2 DIV MUL PUSH1 0x20 ADD PUSH1 0x40 MLOAD SWAP1 DUP2 ADD PUSH1 0x40 MSTORE DUP1 SWAP3 SWAP2 SWAP1 DUP2 DUP2 MSTORE PUSH1 0x20 ADD DUP3 DUP1 SLOAD PUSH2 0x2B5 SWAP1 PUSH2 0xBF0 JUMP JUMPDEST DUP1 ISZERO PUSH2 0x302 JUMPI DUP1 PUSH1 0x1F LT PUSH2 0x2D7 JUMPI PUSH2 0x100 DUP1 DUP4 SLOAD DIV MUL DUP4 MSTORE SWAP2 PUSH1 0x20 ADD SWAP2 PUSH2 0x302 JUMP JUMPDEST DUP3 ADD SWAP2 SWAP1 PUSH1 0x0 MSTORE PUSH1 0x20 PUSH1 0x0 KECCAK256 SWAP1 JUMPDEST DUP2 SLOAD DUP2 MSTORE SWAP1 PUSH1 0x1 ADD SWAP1 PUSH1 0x20 ADD DUP1 DUP4 GT PUSH2 0x2E5 JUMPI DUP3 SWAP1 SUB PUSH1 0x1F AND DUP3 ADD SWAP2 JUMPDEST POP POP POP POP POP SWAP1 POP SWAP1 JUMP JUMPDEST PUSH1 0x0 PUSH2 0x319 CALLER DUP5 DUP5 PUSH2 0x645 JUMP JUMPDEST POP PUSH1 0x1 SWAP3 SWAP2 POP POP JUMP JUMPDEST PUSH1 0x0 PUSH2 0x32F DUP5 DUP5 DUP5 PUSH2 0x769 JUMP JUMPDEST PUSH1 0x1 PUSH1 0x1 PUSH1 0xA0 SHL SUB DUP5 AND PUSH1 0x0 SWAP1 DUP2 MSTORE PUSH1 0x1 PUSH1 0x20 SWAP1 DUP2 MSTORE PUSH1 0x40 DUP1 DUP4 KECCAK256 CALLER DUP5 MSTORE SWAP1 SWAP2 MSTORE SWAP1 KECCAK256 SLOAD DUP3 DUP2 LT ISZERO PUSH2 0x3B9 JUMPI PUSH1 0x40 MLOAD PUSH3 0x461BCD PUSH1 0xE5 SHL DUP2 MSTORE PUSH1 0x20 PUSH1 0x4 DUP3 ADD MSTORE PUSH1 0x28 PUSH1 0x24 DUP3 ADD MSTORE PUSH32 0x45524332303A207472616E7366657220616D6F756E7420657863656564732061 PUSH1 0x44 DUP3 ADD MSTORE PUSH8 0x6C6C6F77616E6365 PUSH1 0xC0 SHL PUSH1 0x64 DUP3 ADD MSTORE PUSH1 0x84 ADD JUMPDEST PUSH1 0x40 MLOAD DUP1 SWAP2 SUB SWAP1 REVERT JUMPDEST PUSH2 0x3C6 DUP6 CALLER DUP6 DUP5 SUB PUSH2 0x645 JUMP JUMPDEST POP PUSH1 0x1 SWAP5 SWAP4 POP POP POP POP JUMP JUMPDEST CALLER PUSH1 0x0 DUP2 DUP2 MSTORE PUSH1 0x1 PUSH1 0x20 SWAP1 DUP2 MSTORE PUSH1 0x40 DUP1 DUP4 KECCAK256 PUSH1 0x1 PUSH1 0x1 PUSH1 0xA0 SHL SUB DUP8 AND DUP5 MSTORE SWAP1 SWAP2 MSTORE DUP2 KECCAK256 SLOAD SWAP1 SWAP2 PUSH2 0x319 SWAP2 DUP6 SWAP1 PUSH2 0x408 SWAP1 DUP7 SWAP1 PUSH2 0xBCA JUMP JUMPDEST PUSH2 0x645 JUMP JUMPDEST PUSH1 0x5 SLOAD PUSH1 0x1 PUSH1 0x1 PUSH1 0xA0 SHL SUB AND CALLER EQ PUSH2 0x437 JUMPI PUSH1 0x40 MLOAD PUSH3 0x461BCD PUSH1 0xE5 SHL DUP2 MSTORE PUSH1 0x4 ADD PUSH2 0x3B0 SWAP1 PUSH2 0xB95 JUMP JUMPDEST PUSH11 0x52B7D2DCC80CD2E4000000 DUP2 PUSH2 0x44D PUSH1 0x2 SLOAD SWAP1 JUMP JUMPDEST PUSH2 0x457 SWAP2 SWAP1 PUSH2 0xBCA JUMP JUMPDEST GT ISZERO PUSH2 0x4B1 JUMPI PUSH1 0x40 MLOAD PUSH3 0x461BCD PUSH1 0xE5 SHL DUP2 MSTORE PUSH1 0x20 PUSH1 0x4 DUP3 ADD MSTORE PUSH1 0x24 DUP1 DUP3 ADD MSTORE PUSH32 0x57564C543A3A6D696E743A2063616E6E6F7420657863656564206D6178207375 PUSH1 0x44 DUP3 ADD MSTORE PUSH4 0x70706C79 PUSH1 0xE0 SHL PUSH1 0x64 DUP3 ADD MSTORE PUSH1 0x84 ADD PUSH2 0x3B0 JUMP JUMPDEST PUSH2 0x4BB DUP3 DUP3 PUSH2 0x938 JUMP JUMPDEST POP POP JUMP JUMPDEST PUSH1 0x5 SLOAD PUSH1 0x1 PUSH1 0x1 PUSH1 0xA0 SHL SUB AND CALLER EQ PUSH2 0x4E9 JUMPI PUSH1 0x40 MLOAD PUSH3 0x461BCD PUSH1 0xE5 SHL DUP2 MSTORE PUSH1 0x4 ADD PUSH2 0x3B0 SWAP1 PUSH2 0xB95 JUMP JUMPDEST PUSH2 0x4F3 PUSH1 0x0 PUSH2 0xA17 JUMP JUMPDEST JUMP JUMPDEST PUSH1 0x60 PUSH1 0x4 DUP1 SLOAD PUSH2 0x289 SWAP1 PUSH2 0xBF0 JUMP JUMPDEST CALLER PUSH1 0x0 SWAP1 DUP2 MSTORE PUSH1 0x1 PUSH1 0x20 SWAP1 DUP2 MSTORE PUSH1 0x40 DUP1 DUP4 KECCAK256 PUSH1 0x1 PUSH1 0x1 PUSH1 0xA0 SHL SUB DUP7 AND DUP5 MSTORE SWAP1 SWAP2 MSTORE DUP2 KECCAK256 SLOAD DUP3 DUP2 LT ISZERO PUSH2 0x586 JUMPI PUSH1 0x40 MLOAD PUSH3 0x461BCD PUSH1 0xE5 SHL DUP2 MSTORE PUSH1 0x20 PUSH1 0x4 DUP3 ADD MSTORE PUSH1 0x25 PUSH1 0x24 DUP3 ADD MSTORE PUSH32 0x45524332303A2064656372656173656420616C6C6F77616E63652062656C6F77 PUSH1 0x44 DUP3 ADD MSTORE PUSH5 0x207A65726F PUSH1 0xD8 SHL PUSH1 0x64 DUP3 ADD MSTORE PUSH1 0x84 ADD PUSH2 0x3B0 JUMP JUMPDEST PUSH2 0x593 CALLER DUP6 DUP6 DUP5 SUB PUSH2 0x645 JUMP JUMPDEST POP PUSH1 0x1 SWAP4 SWAP3 POP POP POP JUMP JUMPDEST PUSH1 0x0 PUSH2 0x319 CALLER DUP5 DUP5 PUSH2 0x769 JUMP JUMPDEST PUSH1 0x5 SLOAD PUSH1 0x1 PUSH1 0x1 PUSH1 0xA0 SHL SUB AND CALLER EQ PUSH2 0x5D4 JUMPI PUSH1 0x40 MLOAD PUSH3 0x461BCD PUSH1 0xE5 SHL DUP2 MSTORE PUSH1 0x4 ADD PUSH2 0x3B0 SWAP1 PUSH2 0xB95 JUMP JUMPDEST PUSH1 0x1 PUSH1 0x1 PUSH1 0xA0 SHL SUB DUP2 AND PUSH2 0x639 JUMPI PUSH1 0x40 MLOAD PUSH3 0x461BCD PUSH1 0xE5 SHL DUP2 MSTORE PUSH1 0x20 PUSH1 0x4 DUP3 ADD MSTORE PUSH1 0x26 PUSH1 0x24 DUP3 ADD MSTORE PUSH32 0x4F776E61626C653A206E6577206F776E657220697320746865207A65726F2061 PUSH1 0x44 DUP3 ADD MSTORE PUSH6 0x646472657373 PUSH1 0xD0 SHL PUSH1 0x64 DUP3 ADD MSTORE PUSH1 0x84 ADD PUSH2 0x3B0 JUMP JUMPDEST PUSH2 0x642 DUP2 PUSH2 0xA17 JUMP JUMPDEST POP JUMP JUMPDEST PUSH1 0x1 PUSH1 0x1 PUSH1 0xA0 SHL SUB DUP4 AND PUSH2 0x6A7 JUMPI PUSH1 0x40 MLOAD PUSH3 0x461BCD PUSH1 0xE5 SHL DUP2 MSTORE PUSH1 0x20 PUSH1 0x4 DUP3 ADD MSTORE PUSH1 0x24 DUP1 DUP3 ADD MSTORE PUSH32 0x45524332303A20617070726F76652066726F6D20746865207A65726F20616464 PUSH1 0x44 DUP3 ADD MSTORE PUSH4 0x72657373 PUSH1 0xE0 SHL PUSH1 0x64 DUP3 ADD MSTORE PUSH1 0x84 ADD PUSH2 0x3B0 JUMP JUMPDEST PUSH1 0x1 PUSH1 0x1 PUSH1 0xA0 SHL SUB DUP3 AND PUSH2 0x708 JUMPI PUSH1 0x40 MLOAD PUSH3 0x461BCD PUSH1 0xE5 SHL DUP2 MSTORE PUSH1 0x20 PUSH1 0x4 DUP3 ADD MSTORE PUSH1 0x22 PUSH1 0x24 DUP3 ADD MSTORE PUSH32 0x45524332303A20617070726F766520746F20746865207A65726F206164647265 PUSH1 0x44 DUP3 ADD MSTORE PUSH2 0x7373 PUSH1 0xF0 SHL PUSH1 0x64 DUP3 ADD MSTORE PUSH1 0x84 ADD PUSH2 0x3B0 JUMP JUMPDEST PUSH1 0x1 PUSH1 0x1 PUSH1 0xA0 SHL SUB DUP4 DUP2 AND PUSH1 0x0 DUP2 DUP2 MSTORE PUSH1 0x1 PUSH1 0x20 SWAP1 DUP2 MSTORE PUSH1 0x40 DUP1 DUP4 KECCAK256 SWAP5 DUP8 AND DUP1 DUP5 MSTORE SWAP5 DUP3 MSTORE SWAP2 DUP3 SWAP1 KECCAK256 DUP6 SWAP1 SSTORE SWAP1 MLOAD DUP5 DUP2 MSTORE PUSH32 0x8C5BE1E5EBEC7D5BD14F71427D1E84F3DD0314C0F7B2291E5B200AC8C7C3B925 SWAP2 ADD PUSH1 0x40 MLOAD DUP1 SWAP2 SUB SWAP1 LOG3 POP POP POP JUMP JUMPDEST PUSH1 0x1 PUSH1 0x1 PUSH1 0xA0 SHL SUB DUP4 AND PUSH2 0x7CD JUMPI PUSH1 0x40 MLOAD PUSH3 0x461BCD PUSH1 0xE5 SHL DUP2 MSTORE PUSH1 0x20 PUSH1 0x4 DUP3 ADD MSTORE PUSH1 0x25 PUSH1 0x24 DUP3 ADD MSTORE PUSH32 0x45524332303A207472616E736665722066726F6D20746865207A65726F206164 PUSH1 0x44 DUP3 ADD MSTORE PUSH5 0x6472657373 PUSH1 0xD8 SHL PUSH1 0x64 DUP3 ADD MSTORE PUSH1 0x84 ADD PUSH2 0x3B0 JUMP JUMPDEST PUSH1 0x1 PUSH1 0x1 PUSH1 0xA0 SHL SUB DUP3 AND PUSH2 0x82F JUMPI PUSH1 0x40 MLOAD PUSH3 0x461BCD PUSH1 0xE5 SHL DUP2 MSTORE PUSH1 0x20 PUSH1 0x4 DUP3 ADD MSTORE PUSH1 0x23 PUSH1 0x24 DUP3 ADD MSTORE PUSH32 0x45524332303A207472616E7366657220746F20746865207A65726F2061646472 PUSH1 0x44 DUP3 ADD MSTORE PUSH3 0x657373 PUSH1 0xE8 SHL PUSH1 0x64 DUP3 ADD MSTORE PUSH1 0x84 ADD PUSH2 0x3B0 JUMP JUMPDEST PUSH1 0x1 PUSH1 0x1 PUSH1 0xA0 SHL SUB DUP4 AND PUSH1 0x0 SWAP1 DUP2 MSTORE PUSH1 0x20 DUP2 SWAP1 MSTORE PUSH1 0x40 SWAP1 KECCAK256 SLOAD DUP2 DUP2 LT ISZERO PUSH2 0x8A7 JUMPI PUSH1 0x40 MLOAD PUSH3 0x461BCD PUSH1 0xE5 SHL DUP2 MSTORE PUSH1 0x20 PUSH1 0x4 DUP3 ADD MSTORE PUSH1 0x26 PUSH1 0x24 DUP3 ADD MSTORE PUSH32 0x45524332303A207472616E7366657220616D6F756E7420657863656564732062 PUSH1 0x44 DUP3 ADD MSTORE PUSH6 0x616C616E6365 PUSH1 0xD0 SHL PUSH1 0x64 DUP3 ADD MSTORE PUSH1 0x84 ADD PUSH2 0x3B0 JUMP JUMPDEST PUSH1 0x1 PUSH1 0x1 PUSH1 0xA0 SHL SUB DUP1 DUP6 AND PUSH1 0x0 SWAP1 DUP2 MSTORE PUSH1 0x20 DUP2 SWAP1 MSTORE PUSH1 0x40 DUP1 DUP3 KECCAK256 DUP6 DUP6 SUB SWAP1 SSTORE SWAP2 DUP6 AND DUP2 MSTORE SWAP1 DUP2 KECCAK256 DUP1 SLOAD DUP5 SWAP3 SWAP1 PUSH2 0x8DE SWAP1 DUP5 SWAP1 PUSH2 0xBCA JUMP JUMPDEST SWAP3 POP POP DUP2 SWAP1 SSTORE POP DUP3 PUSH1 0x1 PUSH1 0x1 PUSH1 0xA0 SHL SUB AND DUP5 PUSH1 0x1 PUSH1 0x1 PUSH1 0xA0 SHL SUB AND PUSH32 0xDDF252AD1BE2C89B69C2B068FC378DAA952BA7F163C4A11628F55A4DF523B3EF DUP5 PUSH1 0x40 MLOAD PUSH2 0x92A SWAP2 DUP2 MSTORE PUSH1 0x20 ADD SWAP1 JUMP JUMPDEST PUSH1 0x40 MLOAD DUP1 SWAP2 SUB SWAP1 LOG3 POP POP POP POP JUMP JUMPDEST PUSH1 0x1 PUSH1 0x1 PUSH1 0xA0 SHL SUB DUP3 AND PUSH2 0x98E JUMPI PUSH1 0x40 MLOAD PUSH3 0x461BCD PUSH1 0xE5 SHL DUP2 MSTORE PUSH1 0x20 PUSH1 0x4 DUP3 ADD MSTORE PUSH1 0x1F PUSH1 0x24 DUP3 ADD MSTORE PUSH32 0x45524332303A206D696E7420746F20746865207A65726F206164647265737300 PUSH1 0x44 DUP3 ADD MSTORE PUSH1 0x64 ADD PUSH2 0x3B0 JUMP JUMPDEST DUP1 PUSH1 0x2 PUSH1 0x0 DUP3 DUP3 SLOAD PUSH2 0x9A0 SWAP2 SWAP1 PUSH2 0xBCA JUMP JUMPDEST SWAP1 SWAP2 SSTORE POP POP PUSH1 0x1 PUSH1 0x1 PUSH1 0xA0 SHL SUB DUP3 AND PUSH1 0x0 SWAP1 DUP2 MSTORE PUSH1 0x20 DUP2 SWAP1 MSTORE PUSH1 0x40 DUP2 KECCAK256 DUP1 SLOAD DUP4 SWAP3 SWAP1 PUSH2 0x9CD SWAP1 DUP5 SWAP1 PUSH2 0xBCA JUMP JUMPDEST SWAP1 SWAP2 SSTORE POP POP PUSH1 0x40 MLOAD DUP2 DUP2 MSTORE PUSH1 0x1 PUSH1 0x1 PUSH1 0xA0 SHL SUB DUP4 AND SWAP1 PUSH1 0x0 SWAP1 PUSH32 0xDDF252AD1BE2C89B69C2B068FC378DAA952BA7F163C4A11628F55A4DF523B3EF SWAP1 PUSH1 0x20 ADD PUSH1 0x40 MLOAD DUP1 SWAP2 SUB SWAP1 LOG3 POP POP JUMP JUMPDEST PUSH1 0x5 DUP1 SLOAD PUSH1 0x1 PUSH1 0x1 PUSH1 0xA0 SHL SUB DUP4 DUP2 AND PUSH1 0x1 PUSH1 0x1 PUSH1 0xA0 SHL SUB NOT DUP4 AND DUP2 OR SWAP1 SWAP4 SSTORE PUSH1 0x40 MLOAD SWAP2 AND SWAP2 SWAP1 DUP3 SWAP1 PUSH32 0x8BE0079C531659141344CD1FD0A4F28419497F9722A3DAAFE3B4186F6B6457E0 SWAP1 PUSH1 0x0 SWAP1 LOG3 POP POP JUMP JUMPDEST DUP1 CALLDATALOAD PUSH1 0x1 PUSH1 0x1 PUSH1 0xA0 SHL SUB DUP2 AND DUP2 EQ PUSH2 0xA80 JUMPI PUSH1 0x0 DUP1 REVERT JUMPDEST SWAP2 SWAP1 POP JUMP JUMPDEST PUSH1 0x0 PUSH1 0x20 DUP3 DUP5 SUB SLT ISZERO PUSH2 0xA97 JUMPI PUSH1 0x0 DUP1 REVERT JUMPDEST PUSH2 0xAA0 DUP3 PUSH2 0xA69 JUMP JUMPDEST SWAP4 SWAP3 POP POP POP JUMP JUMPDEST PUSH1 0x0 DUP1 PUSH1 0x40 DUP4 DUP6 SUB SLT ISZERO PUSH2 0xABA JUMPI PUSH1 0x0 DUP1 REVERT JUMPDEST PUSH2 0xAC3 DUP4 PUSH2 0xA69 JUMP JUMPDEST SWAP2 POP PUSH2 0xAD1 PUSH1 0x20 DUP5 ADD PUSH2 0xA69 JUMP JUMPDEST SWAP1 POP SWAP3 POP SWAP3 SWAP1 POP JUMP JUMPDEST PUSH1 0x0 DUP1 PUSH1 0x0 PUSH1 0x60 DUP5 DUP7 SUB SLT ISZERO PUSH2 0xAEF JUMPI PUSH1 0x0 DUP1 REVERT JUMPDEST PUSH2 0xAF8 DUP5 PUSH2 0xA69 JUMP JUMPDEST SWAP3 POP PUSH2 0xB06 PUSH1 0x20 DUP6 ADD PUSH2 0xA69 JUMP JUMPDEST SWAP2 POP PUSH1 0x40 DUP5 ADD CALLDATALOAD SWAP1 POP SWAP3 POP SWAP3 POP SWAP3 JUMP JUMPDEST PUSH1 0x0 DUP1 PUSH1 0x40 DUP4 DUP6 SUB SLT ISZERO PUSH2 0xB29 JUMPI PUSH1 0x0 DUP1 REVERT JUMPDEST PUSH2 0xB32 DUP4 PUSH2 0xA69 JUMP JUMPDEST SWAP5 PUSH1 0x20 SWAP4 SWAP1 SWAP4 ADD CALLDATALOAD SWAP4 POP POP POP JUMP JUMPDEST PUSH1 0x0 PUSH1 0x20 DUP1 DUP4 MSTORE DUP4 MLOAD DUP1 DUP3 DUP6 ADD MSTORE PUSH1 0x0 JUMPDEST DUP2 DUP2 LT ISZERO PUSH2 0xB6D JUMPI DUP6 DUP2 ADD DUP4 ADD MLOAD DUP6 DUP3 ADD PUSH1 0x40 ADD MSTORE DUP3 ADD PUSH2 0xB51 JUMP JUMPDEST DUP2 DUP2 GT ISZERO PUSH2 0xB7F JUMPI PUSH1 0x0 PUSH1 0x40 DUP4 DUP8 ADD ADD MSTORE JUMPDEST POP PUSH1 0x1F ADD PUSH1 0x1F NOT AND SWAP3 SWAP1 SWAP3 ADD PUSH1 0x40 ADD SWAP4 SWAP3 POP POP POP JUMP JUMPDEST PUSH1 0x20 DUP1 DUP3 MSTORE DUP2 DUP2 ADD MSTORE PUSH32 0x4F776E61626C653A2063616C6C6572206973206E6F7420746865206F776E6572 PUSH1 0x40 DUP3 ADD MSTORE PUSH1 0x60 ADD SWAP1 JUMP JUMPDEST PUSH1 0x0 DUP3 NOT DUP3 GT ISZERO PUSH2 0xBEB JUMPI PUSH4 0x4E487B71 PUSH1 0xE0 SHL PUSH1 0x0 MSTORE PUSH1 0x11 PUSH1 0x4 MSTORE PUSH1 0x24 PUSH1 0x0 REVERT JUMPDEST POP ADD SWAP1 JUMP JUMPDEST PUSH1 0x1 DUP2 DUP2 SHR SWAP1 DUP3 AND DUP1 PUSH2 0xC04 JUMPI PUSH1 0x7F DUP3 AND SWAP2 POP JUMPDEST PUSH1 0x20 DUP3 LT DUP2 EQ ISZERO PUSH2 0xC25 JUMPI PUSH4 0x4E487B71 PUSH1 0xE0 SHL PUSH1 0x0 MSTORE PUSH1 0x22 PUSH1 0x4 MSTORE PUSH1 0x24 PUSH1 0x0 REVERT JUMPDEST POP SWAP2 SWAP1 POP JUMP INVALID LOG2 PUSH5 0x6970667358 0x22 SLT KECCAK256 PUSH16 0xD4EAD56564F9A446013673AFFE383F0 JUMPDEST INVALID 0x1E XOR 0xAA 0xE MSTORE8 PUSH12 0x2ADAE5C27E71F464736F6C63 NUMBER STOP ADDMOD SMOD STOP CALLER "
				},
				"gasEstimates": {
					"creation": {
						"codeDepositCost": "633800",
						"executionCost": "infinite",
						"totalCost": "infinite"
					},
					"external": {
						"MAX_SUPPLY()": "240",
						"allowance(address,address)": "infinite",
						"approve(address,uint256)": "24642",
						"balanceOf(address)": "2563",
						"decimals()": "200",
						"decreaseAllowance(address,uint256)": "26910",
						"increaseAllowance(address,uint256)": "27001",
						"mint(address,uint256)": "infinite",
						"name()": "infinite",
						"owner()": "2368",
						"renounceOwnership()": "28162",
						"symbol()": "infinite",
						"totalSupply()": "2349",
						"transfer(address,uint256)": "51209",
						"transferFrom(address,address,uint256)": "infinite",
						"transferOwnership(address)": "28400"
					}
				},
				"methodIdentifiers": {
					"MAX_SUPPLY()": "32cb6b0c",
					"allowance(address,address)": "dd62ed3e",
					"approve(address,uint256)": "095ea7b3",
					"balanceOf(address)": "70a08231",
					"decimals()": "313ce567",
					"decreaseAllowance(address,uint256)": "a457c2d7",
					"increaseAllowance(address,uint256)": "39509351",
					"mint(address,uint256)": "40c10f19",
					"name()": "06fdde03",
					"owner()": "8da5cb5b",
					"renounceOwnership()": "715018a6",
					"symbol()": "95d89b41",
					"totalSupply()": "18160ddd",
					"transfer(address,uint256)": "a9059cbb",
					"transferFrom(address,address,uint256)": "23b872dd",
					"transferOwnership(address)": "f2fde38b"
				}
			},
			"storageLayout": {
				"storage": [
					{
						"astId": 133,
						"contract": "contracts/WVLTToken.sol:WVLTToken",
						"label": "_balances",
						"offset": 0,
						"slot": "0",
						"type": "t_mapping(t_address,t_uint256)"
					},
					{
						"astId": 139,
						"contract": "contracts/WVLTToken.sol:WVLTToken",
						"label": "_allowances",
						"offset": 0,
						"slot": "1",
						"type": "t_mapping(t_address,t_mapping(t_address,t_uint256))"
					},
					{
						"astId": 141,
						"contract": "contracts/WVLTToken.sol:WVLTToken",
						"label": "_totalSupply",
						"offset": 0,
						"slot": "2",
						"type": "t_uint256"
					},
					{
						"astId": 143,
						"contract": "contracts/WVLTToken.sol:WVLTToken",
						"label": "_name",
						"offset": 0,
						"slot": "3",
						"type": "t_string_storage"
					},
					{
						"astId": 145,
						"contract": "contracts/WVLTToken.sol:WVLTToken",
						"label": "_symbol",
						"offset": 0,
						"slot": "4",
						"type": "t_string_storage"
					},
					{
						"astId": 669,
						"contract": "contracts/WVLTToken.sol:WVLTToken",
						"label": "_owner",
						"offset": 0,
						"slot": "5",
						"type": "t_address"
					}
				],
				"types": {
					"t_address": {
						"encoding": "inplace",
						"label": "address",
						"numberOfBytes": "20"
					},
					"t_mapping(t_address,t_mapping(t_address,t_uint256))": {
						"encoding": "mapping",
						"key": "t_address",
						"label": "mapping(address => mapping(address => uint256))",
						"numberOfBytes": "32",
						"value": "t_mapping(t_address,t_uint256)"
					},
					"t_mapping(t_address,t_uint256)": {
						"encoding": "mapping",
						"key": "t_address",
						"label": "mapping(address => uint256)",
						"numberOfBytes": "32",
						"value": "t_uint256"
					},
					"t_string_storage": {
						"encoding": "bytes",
						"label": "string",
						"numberOfBytes": "32"
					},
					"t_uint256": {
						"encoding": "inplace",
						"label": "uint256",
						"numberOfBytes": "32"
					}
				}
			},
			"userdoc": {
				"kind": "user",
				"methods": {
					"mint(address,uint256)": {
						"notice": "Creates `_amount` token to `_to`. Must only be called by the owner (MasterChef)."
					}
				},
				"version": 1
			}
		}
	}
}