{
	"contracts/MasterChefOperator.sol": {
		"MasterChefOperator": {
			"abi": [
				{
					"inputs": [
						{
							"internalType": "contract Timelock",
							"name": "_timelock",
							"type": "address"
						},
						{
							"internalType": "address",
							"name": "_masterChef",
							"type": "address"
						},
						{
							"internalType": "address",
							"name": "admin",
							"type": "address"
						},
						{
							"internalType": "address",
							"name": "stagingAdmin",
							"type": "address"
						}
					],
					"stateMutability": "nonpayable",
					"type": "constructor"
				},
				{
					"anonymous": false,
					"inputs": [
						{
							"indexed": true,
							"internalType": "bytes32",
							"name": "role",
							"type": "bytes32"
						},
						{
							"indexed": true,
							"internalType": "bytes32",
							"name": "previousAdminRole",
							"type": "bytes32"
						},
						{
							"indexed": true,
							"internalType": "bytes32",
							"name": "newAdminRole",
							"type": "bytes32"
						}
					],
					"name": "RoleAdminChanged",
					"type": "event"
				},
				{
					"anonymous": false,
					"inputs": [
						{
							"indexed": true,
							"internalType": "bytes32",
							"name": "role",
							"type": "bytes32"
						},
						{
							"indexed": true,
							"internalType": "address",
							"name": "account",
							"type": "address"
						},
						{
							"indexed": true,
							"internalType": "address",
							"name": "sender",
							"type": "address"
						}
					],
					"name": "RoleGranted",
					"type": "event"
				},
				{
					"anonymous": false,
					"inputs": [
						{
							"indexed": true,
							"internalType": "bytes32",
							"name": "role",
							"type": "bytes32"
						},
						{
							"indexed": true,
							"internalType": "address",
							"name": "account",
							"type": "address"
						},
						{
							"indexed": true,
							"internalType": "address",
							"name": "sender",
							"type": "address"
						}
					],
					"name": "RoleRevoked",
					"type": "event"
				},
				{
					"inputs": [],
					"name": "COMMIT_ROLE",
					"outputs": [
						{
							"internalType": "bytes32",
							"name": "",
							"type": "bytes32"
						}
					],
					"stateMutability": "view",
					"type": "function"
				},
				{
					"inputs": [],
					"name": "DEFAULT_ADMIN_ROLE",
					"outputs": [
						{
							"internalType": "bytes32",
							"name": "",
							"type": "bytes32"
						}
					],
					"stateMutability": "view",
					"type": "function"
				},
				{
					"inputs": [],
					"name": "STAGE_ROLE",
					"outputs": [
						{
							"internalType": "bytes32",
							"name": "",
							"type": "bytes32"
						}
					],
					"stateMutability": "view",
					"type": "function"
				},
				{
					"inputs": [],
					"name": "acceptTimelockAdmin",
					"outputs": [],
					"stateMutability": "nonpayable",
					"type": "function"
				},
				{
					"inputs": [
						{
							"internalType": "address",
							"name": "target",
							"type": "address"
						},
						{
							"internalType": "uint256",
							"name": "value",
							"type": "uint256"
						},
						{
							"internalType": "string",
							"name": "signature",
							"type": "string"
						},
						{
							"internalType": "bytes",
							"name": "data",
							"type": "bytes"
						},
						{
							"internalType": "uint256",
							"name": "eta",
							"type": "uint256"
						}
					],
					"name": "cancelTransaction",
					"outputs": [],
					"stateMutability": "nonpayable",
					"type": "function"
				},
				{
					"inputs": [
						{
							"internalType": "uint256",
							"name": "beetsPerBlock",
							"type": "uint256"
						},
						{
							"internalType": "uint256",
							"name": "eta",
							"type": "uint256"
						},
						{
							"internalType": "enum MasterChefOperator.TransactionType",
							"name": "txType",
							"type": "uint8"
						}
					],
					"name": "commitEmissionChange",
					"outputs": [],
					"stateMutability": "nonpayable",
					"type": "function"
				},
				{
					"inputs": [
						{
							"internalType": "uint256",
							"name": "eta",
							"type": "uint256"
						},
						{
							"internalType": "enum MasterChefOperator.TransactionType",
							"name": "txType",
							"type": "uint8"
						}
					],
					"name": "commitFarmChanges",
					"outputs": [],
					"stateMutability": "nonpayable",
					"type": "function"
				},
				{
					"inputs": [
						{
							"internalType": "address",
							"name": "admin",
							"type": "address"
						},
						{
							"internalType": "uint256",
							"name": "eta",
							"type": "uint256"
						},
						{
							"internalType": "enum MasterChefOperator.TransactionType",
							"name": "txType",
							"type": "uint8"
						}
					],
					"name": "commitSetPendingTimelockAdmin",
					"outputs": [],
					"stateMutability": "nonpayable",
					"type": "function"
				},
				{
					"inputs": [
						{
							"internalType": "address",
							"name": "treasury",
							"type": "address"
						},
						{
							"internalType": "uint256",
							"name": "eta",
							"type": "uint256"
						},
						{
							"internalType": "enum MasterChefOperator.TransactionType",
							"name": "txType",
							"type": "uint8"
						}
					],
					"name": "commitSetTreasuryAddress",
					"outputs": [],
					"stateMutability": "nonpayable",
					"type": "function"
				},
				{
					"inputs": [
						{
							"internalType": "address",
							"name": "target",
							"type": "address"
						},
						{
							"internalType": "uint256",
							"name": "value",
							"type": "uint256"
						},
						{
							"internalType": "string",
							"name": "signature",
							"type": "string"
						},
						{
							"internalType": "bytes",
							"name": "data",
							"type": "bytes"
						},
						{
							"internalType": "uint256",
							"name": "eta",
							"type": "uint256"
						}
					],
					"name": "executeTransaction",
					"outputs": [
						{
							"internalType": "bytes",
							"name": "",
							"type": "bytes"
						}
					],
					"stateMutability": "payable",
					"type": "function"
				},
				{
					"inputs": [
						{
							"internalType": "uint256",
							"name": "",
							"type": "uint256"
						},
						{
							"internalType": "uint256",
							"name": "",
							"type": "uint256"
						}
					],
					"name": "farmAdditions",
					"outputs": [
						{
							"internalType": "contract IERC20",
							"name": "lpToken",
							"type": "address"
						},
						{
							"internalType": "uint256",
							"name": "allocationPoints",
							"type": "uint256"
						},
						{
							"internalType": "contract IRewarder",
							"name": "rewarder",
							"type": "address"
						}
					],
					"stateMutability": "view",
					"type": "function"
				},
				{
					"inputs": [
						{
							"internalType": "uint256",
							"name": "eta",
							"type": "uint256"
						}
					],
					"name": "farmAdditionsForEta",
					"outputs": [
						{
							"components": [
								{
									"internalType": "contract IERC20",
									"name": "lpToken",
									"type": "address"
								},
								{
									"internalType": "uint256",
									"name": "allocationPoints",
									"type": "uint256"
								},
								{
									"internalType": "contract IRewarder",
									"name": "rewarder",
									"type": "address"
								}
							],
							"internalType": "struct MasterChefOperator.FarmAddition[]",
							"name": "",
							"type": "tuple[]"
						}
					],
					"stateMutability": "view",
					"type": "function"
				},
				{
					"inputs": [
						{
							"internalType": "uint256",
							"name": "",
							"type": "uint256"
						},
						{
							"internalType": "uint256",
							"name": "",
							"type": "uint256"
						}
					],
					"name": "farmModifications",
					"outputs": [
						{
							"internalType": "uint256",
							"name": "pid",
							"type": "uint256"
						},
						{
							"internalType": "uint256",
							"name": "allocationPoints",
							"type": "uint256"
						},
						{
							"internalType": "contract IRewarder",
							"name": "rewarder",
							"type": "address"
						},
						{
							"internalType": "bool",
							"name": "overwriteRewarder",
							"type": "bool"
						}
					],
					"stateMutability": "view",
					"type": "function"
				},
				{
					"inputs": [
						{
							"internalType": "uint256",
							"name": "eta",
							"type": "uint256"
						}
					],
					"name": "farmModificationsForEta",
					"outputs": [
						{
							"components": [
								{
									"internalType": "uint256",
									"name": "pid",
									"type": "uint256"
								},
								{
									"internalType": "uint256",
									"name": "allocationPoints",
									"type": "uint256"
								},
								{
									"internalType": "contract IRewarder",
									"name": "rewarder",
									"type": "address"
								},
								{
									"internalType": "bool",
									"name": "overwriteRewarder",
									"type": "bool"
								}
							],
							"internalType": "struct MasterChefOperator.FarmModification[]",
							"name": "",
							"type": "tuple[]"
						}
					],
					"stateMutability": "view",
					"type": "function"
				},
				{
					"inputs": [
						{
							"internalType": "bytes32",
							"name": "role",
							"type": "bytes32"
						}
					],
					"name": "getRoleAdmin",
					"outputs": [
						{
							"internalType": "bytes32",
							"name": "",
							"type": "bytes32"
						}
					],
					"stateMutability": "view",
					"type": "function"
				},
				{
					"inputs": [
						{
							"internalType": "bytes32",
							"name": "role",
							"type": "bytes32"
						},
						{
							"internalType": "address",
							"name": "account",
							"type": "address"
						}
					],
					"name": "grantRole",
					"outputs": [],
					"stateMutability": "nonpayable",
					"type": "function"
				},
				{
					"inputs": [
						{
							"internalType": "bytes32",
							"name": "role",
							"type": "bytes32"
						},
						{
							"internalType": "address",
							"name": "account",
							"type": "address"
						}
					],
					"name": "hasRole",
					"outputs": [
						{
							"internalType": "bool",
							"name": "",
							"type": "bool"
						}
					],
					"stateMutability": "view",
					"type": "function"
				},
				{
					"inputs": [],
					"name": "masterChef",
					"outputs": [
						{
							"internalType": "address",
							"name": "",
							"type": "address"
						}
					],
					"stateMutability": "view",
					"type": "function"
				},
				{
					"inputs": [
						{
							"internalType": "address",
							"name": "target",
							"type": "address"
						},
						{
							"internalType": "uint256",
							"name": "value",
							"type": "uint256"
						},
						{
							"internalType": "string",
							"name": "signature",
							"type": "string"
						},
						{
							"internalType": "bytes",
							"name": "data",
							"type": "bytes"
						},
						{
							"internalType": "uint256",
							"name": "eta",
							"type": "uint256"
						}
					],
					"name": "queueTransaction",
					"outputs": [
						{
							"internalType": "bytes32",
							"name": "",
							"type": "bytes32"
						}
					],
					"stateMutability": "nonpayable",
					"type": "function"
				},
				{
					"inputs": [],
					"name": "queuedFarmChangeEtas",
					"outputs": [
						{
							"internalType": "uint256[]",
							"name": "",
							"type": "uint256[]"
						}
					],
					"stateMutability": "view",
					"type": "function"
				},
				{
					"inputs": [
						{
							"internalType": "bytes32",
							"name": "role",
							"type": "bytes32"
						},
						{
							"internalType": "address",
							"name": "account",
							"type": "address"
						}
					],
					"name": "renounceRole",
					"outputs": [],
					"stateMutability": "nonpayable",
					"type": "function"
				},
				{
					"inputs": [
						{
							"internalType": "bytes32",
							"name": "role",
							"type": "bytes32"
						},
						{
							"internalType": "address",
							"name": "account",
							"type": "address"
						}
					],
					"name": "revokeRole",
					"outputs": [],
					"stateMutability": "nonpayable",
					"type": "function"
				},
				{
					"inputs": [
						{
							"components": [
								{
									"internalType": "contract IERC20",
									"name": "lpToken",
									"type": "address"
								},
								{
									"internalType": "uint256",
									"name": "allocationPoints",
									"type": "uint256"
								},
								{
									"internalType": "contract IRewarder",
									"name": "rewarder",
									"type": "address"
								}
							],
							"internalType": "struct MasterChefOperator.FarmAddition[]",
							"name": "farmsToAdd",
							"type": "tuple[]"
						},
						{
							"internalType": "uint256",
							"name": "eta",
							"type": "uint256"
						}
					],
					"name": "stageFarmAdditions",
					"outputs": [],
					"stateMutability": "nonpayable",
					"type": "function"
				},
				{
					"inputs": [
						{
							"components": [
								{
									"internalType": "uint256",
									"name": "pid",
									"type": "uint256"
								},
								{
									"internalType": "uint256",
									"name": "allocationPoints",
									"type": "uint256"
								},
								{
									"internalType": "contract IRewarder",
									"name": "rewarder",
									"type": "address"
								},
								{
									"internalType": "bool",
									"name": "overwriteRewarder",
									"type": "bool"
								}
							],
							"internalType": "struct MasterChefOperator.FarmModification[]",
							"name": "farmsToEdit",
							"type": "tuple[]"
						},
						{
							"internalType": "uint256",
							"name": "eta",
							"type": "uint256"
						}
					],
					"name": "stageFarmModifications",
					"outputs": [],
					"stateMutability": "nonpayable",
					"type": "function"
				},
				{
					"inputs": [
						{
							"internalType": "bytes4",
							"name": "interfaceId",
							"type": "bytes4"
						}
					],
					"name": "supportsInterface",
					"outputs": [
						{
							"internalType": "bool",
							"name": "",
							"type": "bool"
						}
					],
					"stateMutability": "view",
					"type": "function"
				},
				{
					"inputs": [],
					"name": "timelock",
					"outputs": [
						{
							"internalType": "contract Timelock",
							"name": "",
							"type": "address"
						}
					],
					"stateMutability": "view",
					"type": "function"
				},
				{
					"inputs": [
						{
							"internalType": "uint256",
							"name": "",
							"type": "uint256"
						}
					],
					"name": "usedFarmChangeEtas",
					"outputs": [
						{
							"internalType": "bool",
							"name": "",
							"type": "bool"
						}
					],
					"stateMutability": "view",
					"type": "function"
				}
			],
			"devdoc": {
				"kind": "dev",
				"methods": {
					"getRoleAdmin(bytes32)": {
						"details": "Returns the admin role that controls `role`. See {grantRole} and {revokeRole}. To change a role's admin, use {_setRoleAdmin}."
					},
					"grantRole(bytes32,address)": {
						"details": "Grants `role` to `account`. If `account` had not been already granted `role`, emits a {RoleGranted} event. Requirements: - the caller must have ``role``'s admin role."
					},
					"hasRole(bytes32,address)": {
						"details": "Returns `true` if `account` has been granted `role`."
					},
					"renounceRole(bytes32,address)": {
						"details": "Revokes `role` from the calling account. Roles are often managed via {grantRole} and {revokeRole}: this function's purpose is to provide a mechanism for accounts to lose their privileges if they are compromised (such as when a trusted device is misplaced). If the calling account had been granted `role`, emits a {RoleRevoked} event. Requirements: - the caller must be `account`."
					},
					"revokeRole(bytes32,address)": {
						"details": "Revokes `role` from `account`. If `account` had been granted `role`, emits a {RoleRevoked} event. Requirements: - the caller must have ``role``'s admin role."
					},
					"supportsInterface(bytes4)": {
						"details": "See {IERC165-supportsInterface}."
					}
				},
				"version": 1
			},
			"evm": {
				"assembly": "    /* \"contracts/MasterChefOperator.sol\":38039:46417  contract MasterChefOperator is AccessControl {\r... */\n  mstore(0x40, 0xc0)\n    /* \"contracts/MasterChefOperator.sol\":39112:39455  constructor(\r... */\n  callvalue\n  dup1\n  iszero\n  tag_1\n  jumpi\n  0x00\n  dup1\n  revert\ntag_1:\n  pop\n  mload(0x40)\n  sub(codesize, bytecodeSize)\n  dup1\n  bytecodeSize\n  dup4\n  codecopy\n  dup2\n  add\n  0x40\n  dup2\n  swap1\n  mstore\n  tag_2\n  swap2\n  tag_3\n  jump\t// in\ntag_2:\n  not(sub(shl(0x60, 0x01), 0x01))\n    /* \"contracts/MasterChefOperator.sol\":39256:39276  timelock = _timelock */\n  0x60\n  dup6\n  dup2\n  shl\n  dup3\n  and\n  0x80\n  mstore\n    /* \"contracts/MasterChefOperator.sol\":39287:39311  masterChef = _masterChef */\n  dup5\n  swap1\n  shl\n  and\n  0xa0\n  mstore\n    /* \"contracts/MasterChefOperator.sol\":39322:39359  _setupRole(DEFAULT_ADMIN_ROLE, admin) */\n  tag_6\n    /* \"contracts/MasterChefOperator.sol\":10163:10167  0x00 */\n  0x00\n    /* \"contracts/MasterChefOperator.sol\":39353:39358  admin */\n  dup4\n    /* \"contracts/MasterChefOperator.sol\":39322:39332  _setupRole */\n  tag_7\n    /* \"contracts/MasterChefOperator.sol\":39322:39359  _setupRole(DEFAULT_ADMIN_ROLE, admin) */\n  jump\t// in\ntag_6:\n    /* \"contracts/MasterChefOperator.sol\":39370:39400  _setupRole(COMMIT_ROLE, admin) */\n  tag_8\n  0x00\n  dup1\n  mload\n  0x20\n  data_846a6eeaa8e17fb1d59b9d1ac80053a90c6e3388f7eba1375988b8c9cfe2950c\n  dup4\n  codecopy\n  dup2\n  mload\n  swap2\n  mstore\n    /* \"contracts/MasterChefOperator.sol\":39394:39399  admin */\n  dup4\n    /* \"contracts/MasterChefOperator.sol\":39370:39380  _setupRole */\n  tag_7\n    /* \"contracts/MasterChefOperator.sol\":39370:39400  _setupRole(COMMIT_ROLE, admin) */\n  jump\t// in\ntag_8:\n    /* \"contracts/MasterChefOperator.sol\":39411:39447  _setupRole(STAGE_ROLE, stagingAdmin) */\n  tag_9\n  0x00\n  dup1\n  mload\n  0x20\n  data_846a6eeaa8e17fb1d59b9d1ac80053a90c6e3388f7eba1375988b8c9cfe2950c\n  dup4\n  codecopy\n  dup2\n  mload\n  swap2\n  mstore\n    /* \"contracts/MasterChefOperator.sol\":39434:39446  stagingAdmin */\n  dup3\n    /* \"contracts/MasterChefOperator.sol\":39411:39421  _setupRole */\n  tag_7\n    /* \"contracts/MasterChefOperator.sol\":39411:39447  _setupRole(STAGE_ROLE, stagingAdmin) */\n  jump\t// in\ntag_9:\n    /* \"contracts/MasterChefOperator.sol\":39112:39455  constructor(\r... */\n  pop\n  pop\n  pop\n  pop\n    /* \"contracts/MasterChefOperator.sol\":38039:46417  contract MasterChefOperator is AccessControl {\r... */\n  jump(tag_22)\n    /* \"contracts/MasterChefOperator.sol\":14376:14488  function _setupRole(bytes32 role, address account) internal virtual {\r... */\ntag_7:\n    /* \"contracts/MasterChefOperator.sol\":14455:14480  _grantRole(role, account) */\n  tag_12\n    /* \"contracts/MasterChefOperator.sol\":14466:14470  role */\n  dup3\n    /* \"contracts/MasterChefOperator.sol\":14472:14479  account */\n  dup3\n    /* \"contracts/MasterChefOperator.sol\":14455:14465  _grantRole */\n  tag_13\n    /* \"contracts/MasterChefOperator.sol\":14455:14480  _grantRole(role, account) */\n  jump\t// in\ntag_12:\n    /* \"contracts/MasterChefOperator.sol\":14376:14488  function _setupRole(bytes32 role, address account) internal virtual {\r... */\n  pop\n  pop\n  jump\t// out\n    /* \"contracts/MasterChefOperator.sol\":14879:15108  function _grantRole(bytes32 role, address account) private {\r... */\ntag_13:\n    /* \"contracts/MasterChefOperator.sol\":11105:11109  bool */\n  0x00\n    /* \"contracts/MasterChefOperator.sol\":11129:11141  _roles[role] */\n  dup3\n  dup2\n  mstore\n  0x20\n  dup2\n  dup2\n  mstore\n  0x40\n  dup1\n  dup4\n  keccak256\n  sub(shl(0xa0, 0x01), 0x01)\n    /* \"contracts/MasterChefOperator.sol\":11129:11158  _roles[role].members[account] */\n  dup6\n  and\n  dup5\n  mstore\n  swap1\n  swap2\n  mstore\n  swap1\n  keccak256\n  sload\n  0xff\n  and\n    /* \"contracts/MasterChefOperator.sol\":14949:15101  if (!hasRole(role, account)) {\r... */\n  tag_12\n  jumpi\n    /* \"contracts/MasterChefOperator.sol\":14993:14999  _roles */\n  0x00\n    /* \"contracts/MasterChefOperator.sol\":14993:15005  _roles[role] */\n  dup3\n  dup2\n  mstore\n  0x20\n  dup2\n  dup2\n  mstore\n  0x40\n  dup1\n  dup4\n  keccak256\n  sub(shl(0xa0, 0x01), 0x01)\n    /* \"contracts/MasterChefOperator.sol\":14993:15022  _roles[role].members[account] */\n  dup6\n  and\n  dup5\n  mstore\n  swap1\n  swap2\n  mstore\n  swap1\n  keccak256\n    /* \"contracts/MasterChefOperator.sol\":14993:15029  _roles[role].members[account] = true */\n  dup1\n  sload\n  not(0xff)\n  and\n    /* \"contracts/MasterChefOperator.sol\":15025:15029  true */\n  0x01\n    /* \"contracts/MasterChefOperator.sol\":14993:15029  _roles[role].members[account] = true */\n  or\n  swap1\n  sstore\n    /* \"contracts/MasterChefOperator.sol\":15076:15088  _msgSender() */\n  tag_18\n    /* \"contracts/MasterChefOperator.sol\":4026:4036  msg.sender */\n  caller\n  swap1\n    /* \"contracts/MasterChefOperator.sol\":3946:4044  function _msgSender() internal view virtual returns (address) {\r... */\n  jump\n    /* \"contracts/MasterChefOperator.sol\":15076:15088  _msgSender() */\ntag_18:\n  sub(shl(0xa0, 0x01), 0x01)\n    /* \"contracts/MasterChefOperator.sol\":15049:15089  RoleGranted(role, account, _msgSender()) */\n  and\n    /* \"contracts/MasterChefOperator.sol\":15067:15074  account */\n  dup2\n  sub(shl(0xa0, 0x01), 0x01)\n    /* \"contracts/MasterChefOperator.sol\":15049:15089  RoleGranted(role, account, _msgSender()) */\n  and\n    /* \"contracts/MasterChefOperator.sol\":15061:15065  role */\n  dup4\n    /* \"contracts/MasterChefOperator.sol\":15049:15089  RoleGranted(role, account, _msgSender()) */\n  0x2f8788117e7eff1d82e926ec794901d17c78024a50270940304540a733656f0d\n  mload(0x40)\n  mload(0x40)\n  dup1\n  swap2\n  sub\n  swap1\n  log4\n    /* \"contracts/MasterChefOperator.sol\":14879:15108  function _grantRole(bytes32 role, address account) private {\r... */\n  pop\n  pop\n  jump\t// out\n    /* \"#utility.yul\":14:685   */\ntag_3:\n    /* \"#utility.yul\":128:134   */\n  0x00\n    /* \"#utility.yul\":136:142   */\n  dup1\n    /* \"#utility.yul\":144:150   */\n  0x00\n    /* \"#utility.yul\":152:158   */\n  dup1\n    /* \"#utility.yul\":205:208   */\n  0x80\n    /* \"#utility.yul\":193:202   */\n  dup6\n    /* \"#utility.yul\":184:191   */\n  dup8\n    /* \"#utility.yul\":180:203   */\n  sub\n    /* \"#utility.yul\":176:209   */\n  slt\n    /* \"#utility.yul\":173:226   */\n  iszero\n  tag_24\n  jumpi\n    /* \"#utility.yul\":222:223   */\n  0x00\n    /* \"#utility.yul\":219:220   */\n  dup1\n    /* \"#utility.yul\":212:224   */\n  revert\n    /* \"#utility.yul\":173:226   */\ntag_24:\n    /* \"#utility.yul\":254:263   */\n  dup5\n    /* \"#utility.yul\":248:264   */\n  mload\n    /* \"#utility.yul\":273:304   */\n  tag_25\n    /* \"#utility.yul\":298:303   */\n  dup2\n    /* \"#utility.yul\":273:304   */\n  tag_26\n  jump\t// in\ntag_25:\n    /* \"#utility.yul\":373:375   */\n  0x20\n    /* \"#utility.yul\":358:376   */\n  dup7\n  add\n    /* \"#utility.yul\":352:377   */\n  mload\n    /* \"#utility.yul\":323:328   */\n  swap1\n  swap5\n  pop\n    /* \"#utility.yul\":386:419   */\n  tag_27\n    /* \"#utility.yul\":352:377   */\n  dup2\n    /* \"#utility.yul\":386:419   */\n  tag_26\n  jump\t// in\ntag_27:\n    /* \"#utility.yul\":490:492   */\n  0x40\n    /* \"#utility.yul\":475:493   */\n  dup7\n  add\n    /* \"#utility.yul\":469:494   */\n  mload\n    /* \"#utility.yul\":438:445   */\n  swap1\n  swap4\n  pop\n    /* \"#utility.yul\":503:536   */\n  tag_28\n    /* \"#utility.yul\":469:494   */\n  dup2\n    /* \"#utility.yul\":503:536   */\n  tag_26\n  jump\t// in\ntag_28:\n    /* \"#utility.yul\":607:609   */\n  0x60\n    /* \"#utility.yul\":592:610   */\n  dup7\n  add\n    /* \"#utility.yul\":586:611   */\n  mload\n    /* \"#utility.yul\":555:562   */\n  swap1\n  swap3\n  pop\n    /* \"#utility.yul\":620:653   */\n  tag_29\n    /* \"#utility.yul\":586:611   */\n  dup2\n    /* \"#utility.yul\":620:653   */\n  tag_26\n  jump\t// in\ntag_29:\n    /* \"#utility.yul\":14:685   */\n  swap4\n  swap7\n  swap3\n  swap6\n  pop\n  swap1\n  swap4\n  pop\n  pop\n  jump\t// out\n    /* \"#utility.yul\":690:821   */\ntag_26:\n  sub(shl(0xa0, 0x01), 0x01)\n    /* \"#utility.yul\":765:796   */\n  dup2\n  and\n    /* \"#utility.yul\":755:797   */\n  dup2\n  eq\n    /* \"#utility.yul\":745:815   */\n  tag_31\n  jumpi\n    /* \"#utility.yul\":811:812   */\n  0x00\n    /* \"#utility.yul\":808:809   */\n  dup1\n    /* \"#utility.yul\":801:813   */\n  revert\n    /* \"#utility.yul\":745:815   */\ntag_31:\n    /* \"#utility.yul\":690:821   */\n  pop\n  jump\t// out\ntag_22:\n    /* \"contracts/MasterChefOperator.sol\":38039:46417  contract MasterChefOperator is AccessControl {\r... */\n  shr(0x60, mload(0x80))\n  shr(0x60, mload(0xa0))\n  codecopy(0x00, dataOffset(sub_0), dataSize(sub_0))\n  0x00\n  assignImmutable(\"0x07ac0c5d8088a739bcb4908eb6aa67ad83c795ff92b205d9f57b6d07690f5cbf\")\n  0x00\n  assignImmutable(\"0xe02cb3fdbbd2afb9a2d9b64c3250fe005c3b9649f25fb61eaba0b1e1e4ff8734\")\n  return(0x00, dataSize(sub_0))\nstop\ndata_846a6eeaa8e17fb1d59b9d1ac80053a90c6e3388f7eba1375988b8c9cfe2950c 9ca25149b3fbef66d98c546a0b372e96b9626f14ed669dd7ba430d3a8f225fd2\n\nsub_0: assembly {\n        /* \"contracts/MasterChefOperator.sol\":38039:46417  contract MasterChefOperator is AccessControl {\r... */\n      mstore(0x40, 0x80)\n      jumpi(tag_1, lt(calldatasize, 0x04))\n      shr(0xe0, calldataload(0x00))\n      dup1\n      0x5ffc71b8\n      gt\n      tag_29\n      jumpi\n      dup1\n      0xab698957\n      gt\n      tag_30\n      jumpi\n      dup1\n      0xd33219b4\n      gt\n      tag_31\n      jumpi\n      dup1\n      0xd33219b4\n      eq\n      tag_25\n      jumpi\n      dup1\n      0xd547741f\n      eq\n      tag_26\n      jumpi\n      dup1\n      0xeeaba75d\n      eq\n      tag_27\n      jumpi\n      dup1\n      0xfde9b226\n      eq\n      tag_28\n      jumpi\n      0x00\n      dup1\n      revert\n    tag_31:\n      dup1\n      0xab698957\n      eq\n      tag_22\n      jumpi\n      dup1\n      0xc8cc3cd8\n      eq\n      tag_23\n      jumpi\n      dup1\n      0xcae5984b\n      eq\n      tag_24\n      jumpi\n      0x00\n      dup1\n      revert\n    tag_30:\n      dup1\n      0x8a1d28f1\n      gt\n      tag_32\n      jumpi\n      dup1\n      0x8a1d28f1\n      eq\n      tag_18\n      jumpi\n      dup1\n      0x91d14854\n      eq\n      tag_19\n      jumpi\n      dup1\n      0x9c2826ef\n      eq\n      tag_20\n      jumpi\n      dup1\n      0xa217fddf\n      eq\n      tag_21\n      jumpi\n      0x00\n      dup1\n      revert\n    tag_32:\n      dup1\n      0x5ffc71b8\n      eq\n      tag_15\n      jumpi\n      dup1\n      0x6f3e6f34\n      eq\n      tag_16\n      jumpi\n      dup1\n      0x74d510f7\n      eq\n      tag_17\n      jumpi\n      0x00\n      dup1\n      revert\n    tag_29:\n      dup1\n      0x36568abe\n      gt\n      tag_33\n      jumpi\n      dup1\n      0x41065e0e\n      gt\n      tag_34\n      jumpi\n      dup1\n      0x41065e0e\n      eq\n      tag_11\n      jumpi\n      dup1\n      0x441e7d58\n      eq\n      tag_5\n      jumpi\n      dup1\n      0x575a86b2\n      eq\n      tag_13\n      jumpi\n      dup1\n      0x591fcdfe\n      eq\n      tag_14\n      jumpi\n      0x00\n      dup1\n      revert\n    tag_34:\n      dup1\n      0x36568abe\n      eq\n      tag_8\n      jumpi\n      dup1\n      0x3a66f901\n      eq\n      tag_9\n      jumpi\n      dup1\n      0x3b8505a3\n      eq\n      tag_10\n      jumpi\n      0x00\n      dup1\n      revert\n    tag_33:\n      dup1\n      0x01ffc9a7\n      eq\n      tag_2\n      jumpi\n      dup1\n      0x0825f38f\n      eq\n      tag_3\n      jumpi\n      dup1\n      0x248a9ca3\n      eq\n      tag_4\n      jumpi\n      dup1\n      0x25e06309\n      eq\n      tag_5\n      jumpi\n      dup1\n      0x2f2ff15d\n      eq\n      tag_6\n      jumpi\n      dup1\n      0x33c9ef9f\n      eq\n      tag_7\n      jumpi\n    tag_1:\n      0x00\n      dup1\n      revert\n        /* \"contracts/MasterChefOperator.sol\":10731:10935  function supportsInterface(bytes4 interfaceId) public view virtual override returns (bool) {\r... */\n    tag_2:\n      callvalue\n      dup1\n      iszero\n      tag_35\n      jumpi\n      0x00\n      dup1\n      revert\n    tag_35:\n      pop\n      tag_36\n      tag_37\n      calldatasize\n      0x04\n      tag_38\n      jump\t// in\n    tag_37:\n      tag_39\n      jump\t// in\n    tag_36:\n      mload(0x40)\n        /* \"#utility.yul\":14441:14455   */\n      swap1\n      iszero\n        /* \"#utility.yul\":14434:14456   */\n      iszero\n        /* \"#utility.yul\":14416:14457   */\n      dup2\n      mstore\n        /* \"#utility.yul\":14404:14406   */\n      0x20\n        /* \"#utility.yul\":14389:14407   */\n      add\n        /* \"contracts/MasterChefOperator.sol\":10731:10935  function supportsInterface(bytes4 interfaceId) public view virtual override returns (bool) {\r... */\n    tag_40:\n      mload(0x40)\n      dup1\n      swap2\n      sub\n      swap1\n      return\n        /* \"contracts/MasterChefOperator.sol\":45913:46231  function executeTransaction(\r... */\n    tag_3:\n      tag_42\n      tag_43\n      calldatasize\n      0x04\n      tag_44\n      jump\t// in\n    tag_43:\n      tag_45\n      jump\t// in\n    tag_42:\n      mload(0x40)\n      tag_40\n      swap2\n      swap1\n      tag_47\n      jump\t// in\n        /* \"contracts/MasterChefOperator.sol\":12142:12265  function getRoleAdmin(bytes32 role) public view override returns (bytes32) {\r... */\n    tag_4:\n      callvalue\n      dup1\n      iszero\n      tag_48\n      jumpi\n      0x00\n      dup1\n      revert\n    tag_48:\n      pop\n      tag_49\n      tag_50\n      calldatasize\n      0x04\n      tag_51\n      jump\t// in\n    tag_50:\n        /* \"contracts/MasterChefOperator.sol\":12208:12215  bytes32 */\n      0x00\n        /* \"contracts/MasterChefOperator.sol\":12235:12247  _roles[role] */\n      swap1\n      dup2\n      mstore\n      0x20\n      dup2\n      swap1\n      mstore\n      0x40\n      swap1\n      keccak256\n        /* \"contracts/MasterChefOperator.sol\":12235:12257  _roles[role].adminRole */\n      0x01\n      add\n      sload\n      swap1\n        /* \"contracts/MasterChefOperator.sol\":12142:12265  function getRoleAdmin(bytes32 role) public view override returns (bytes32) {\r... */\n      jump\n    tag_49:\n      mload(0x40)\n        /* \"#utility.yul\":14614:14639   */\n      swap1\n      dup2\n      mstore\n        /* \"#utility.yul\":14602:14604   */\n      0x20\n        /* \"#utility.yul\":14587:14605   */\n      add\n        /* \"contracts/MasterChefOperator.sol\":12142:12265  function getRoleAdmin(bytes32 role) public view override returns (bytes32) {\r... */\n      tag_40\n        /* \"#utility.yul\":14468:14645   */\n      jump\n        /* \"contracts/MasterChefOperator.sol\":38145:38237  bytes32 public constant STAGE_ROLE = keccak256(\"0x59AfAF89723614Cbf303D3D4CbABa2c7280Fe563\") */\n    tag_5:\n      callvalue\n      dup1\n      iszero\n      tag_55\n      jumpi\n      0x00\n      dup1\n      revert\n    tag_55:\n      pop\n      tag_49\n      0x00\n      dup1\n      mload\n      0x20\n      data_846a6eeaa8e17fb1d59b9d1ac80053a90c6e3388f7eba1375988b8c9cfe2950c\n      dup4\n      codecopy\n      dup2\n      mload\n      swap2\n      mstore\n      dup2\n      jump\n        /* \"contracts/MasterChefOperator.sol\":12527:12674  function grantRole(bytes32 role, address account) public virtual override onlyRole(getRoleAdmin(role)) {\r... */\n    tag_6:\n      callvalue\n      dup1\n      iszero\n      tag_59\n      jumpi\n      0x00\n      dup1\n      revert\n    tag_59:\n      pop\n      tag_60\n      tag_61\n      calldatasize\n      0x04\n      tag_62\n      jump\t// in\n    tag_61:\n      tag_63\n      jump\t// in\n    tag_60:\n      stop\n        /* \"contracts/MasterChefOperator.sol\":45125:45301  function farmModificationsForEta(uint256 eta)\r... */\n    tag_7:\n      callvalue\n      dup1\n      iszero\n      tag_64\n      jumpi\n      0x00\n      dup1\n      revert\n    tag_64:\n      pop\n      tag_65\n      tag_66\n      calldatasize\n      0x04\n      tag_51\n      jump\t// in\n    tag_66:\n      tag_68\n      jump\t// in\n    tag_65:\n      mload(0x40)\n      tag_40\n      swap2\n      swap1\n      tag_70\n      jump\t// in\n        /* \"contracts/MasterChefOperator.sol\":13575:13793  function renounceRole(bytes32 role, address account) public virtual override {\r... */\n    tag_8:\n      callvalue\n      dup1\n      iszero\n      tag_71\n      jumpi\n      0x00\n      dup1\n      revert\n    tag_71:\n      pop\n      tag_60\n      tag_73\n      calldatasize\n      0x04\n      tag_62\n      jump\t// in\n    tag_73:\n      tag_74\n      jump\t// in\n        /* \"contracts/MasterChefOperator.sol\":45311:45612  function queueTransaction(\r... */\n    tag_9:\n      callvalue\n      dup1\n      iszero\n      tag_75\n      jumpi\n      0x00\n      dup1\n      revert\n    tag_75:\n      pop\n      tag_49\n      tag_77\n      calldatasize\n      0x04\n      tag_44\n      jump\t// in\n    tag_77:\n      tag_78\n      jump\t// in\n        /* \"contracts/MasterChefOperator.sol\":41594:41880  function stageFarmAdditions(FarmAddition[] calldata farmsToAdd, uint256 eta)\r... */\n    tag_10:\n      callvalue\n      dup1\n      iszero\n      tag_80\n      jumpi\n      0x00\n      dup1\n      revert\n    tag_80:\n      pop\n      tag_60\n      tag_82\n      calldatasize\n      0x04\n      tag_83\n      jump\t// in\n    tag_82:\n      tag_84\n      jump\t// in\n        /* \"contracts/MasterChefOperator.sol\":44953:45117  function farmAdditionsForEta(uint256 eta)\r... */\n    tag_11:\n      callvalue\n      dup1\n      iszero\n      tag_85\n      jumpi\n      0x00\n      dup1\n      revert\n    tag_85:\n      pop\n      tag_86\n      tag_87\n      calldatasize\n      0x04\n      tag_51\n      jump\t// in\n    tag_87:\n      tag_88\n      jump\t// in\n    tag_86:\n      mload(0x40)\n      tag_40\n      swap2\n      swap1\n      tag_90\n      jump\t// in\n        /* \"contracts/MasterChefOperator.sol\":39068:39103  address public immutable masterChef */\n    tag_13:\n      callvalue\n      dup1\n      iszero\n      tag_95\n      jumpi\n      0x00\n      dup1\n      revert\n    tag_95:\n      pop\n      tag_96\n      immutable(\"0x07ac0c5d8088a739bcb4908eb6aa67ad83c795ff92b205d9f57b6d07690f5cbf\")\n      dup2\n      jump\n    tag_96:\n      mload(0x40)\n      sub(shl(0xa0, 0x01), 0x01)\n        /* \"#utility.yul\":7409:7441   */\n      swap1\n      swap2\n      and\n        /* \"#utility.yul\":7391:7442   */\n      dup2\n      mstore\n        /* \"#utility.yul\":7379:7381   */\n      0x20\n        /* \"#utility.yul\":7364:7382   */\n      add\n        /* \"contracts/MasterChefOperator.sol\":39068:39103  address public immutable masterChef */\n      tag_40\n        /* \"#utility.yul\":7245:7448   */\n      jump\n        /* \"contracts/MasterChefOperator.sol\":45620:45905  function cancelTransaction(\r... */\n    tag_14:\n      callvalue\n      dup1\n      iszero\n      tag_100\n      jumpi\n      0x00\n      dup1\n      revert\n    tag_100:\n      pop\n      tag_60\n      tag_102\n      calldatasize\n      0x04\n      tag_44\n      jump\t// in\n    tag_102:\n      tag_103\n      jump\t// in\n        /* \"contracts/MasterChefOperator.sol\":38793:38856  mapping(uint256 => FarmModification[]) public farmModifications */\n    tag_15:\n      callvalue\n      dup1\n      iszero\n      tag_104\n      jumpi\n      0x00\n      dup1\n      revert\n    tag_104:\n      pop\n      tag_105\n      tag_106\n      calldatasize\n      0x04\n      tag_107\n      jump\t// in\n    tag_106:\n      tag_108\n      jump\t// in\n    tag_105:\n      mload(0x40)\n      tag_40\n      swap5\n      swap4\n      swap3\n      swap2\n      swap1\n      tag_110\n      jump\t// in\n        /* \"contracts/MasterChefOperator.sol\":40253:40900  function commitSetTreasuryAddress(\r... */\n    tag_16:\n      callvalue\n      dup1\n      iszero\n      tag_111\n      jumpi\n      0x00\n      dup1\n      revert\n    tag_111:\n      pop\n      tag_60\n      tag_113\n      calldatasize\n      0x04\n      tag_114\n      jump\t// in\n    tag_113:\n      tag_115\n      jump\t// in\n        /* \"contracts/MasterChefOperator.sol\":44816:44945  function queuedFarmChangeEtas() external view returns (uint256[] memory) {\r... */\n    tag_17:\n      callvalue\n      dup1\n      iszero\n      tag_116\n      jumpi\n      0x00\n      dup1\n      revert\n    tag_116:\n      pop\n      tag_117\n      tag_118\n      jump\t// in\n    tag_117:\n      mload(0x40)\n      tag_40\n      swap2\n      swap1\n      tag_120\n      jump\t// in\n        /* \"contracts/MasterChefOperator.sol\":39574:40245  function commitSetPendingTimelockAdmin(\r... */\n    tag_18:\n      callvalue\n      dup1\n      iszero\n      tag_121\n      jumpi\n      0x00\n      dup1\n      revert\n    tag_121:\n      pop\n      tag_60\n      tag_123\n      calldatasize\n      0x04\n      tag_114\n      jump\t// in\n    tag_123:\n      tag_124\n      jump\t// in\n        /* \"contracts/MasterChefOperator.sol\":11027:11166  function hasRole(bytes32 role, address account) public view override returns (bool) {\r... */\n    tag_19:\n      callvalue\n      dup1\n      iszero\n      tag_125\n      jumpi\n      0x00\n      dup1\n      revert\n    tag_125:\n      pop\n      tag_36\n      tag_127\n      calldatasize\n      0x04\n      tag_62\n      jump\t// in\n    tag_127:\n      tag_128\n      jump\t// in\n        /* \"contracts/MasterChefOperator.sol\":40908:41586  function commitEmissionChange(\r... */\n    tag_20:\n      callvalue\n      dup1\n      iszero\n      tag_130\n      jumpi\n      0x00\n      dup1\n      revert\n    tag_130:\n      pop\n      tag_60\n      tag_132\n      calldatasize\n      0x04\n      tag_133\n      jump\t// in\n    tag_132:\n      tag_134\n      jump\t// in\n        /* \"contracts/MasterChefOperator.sol\":10118:10167  bytes32 public constant DEFAULT_ADMIN_ROLE = 0x00 */\n    tag_21:\n      callvalue\n      dup1\n      iszero\n      tag_135\n      jumpi\n      0x00\n      dup1\n      revert\n    tag_135:\n      pop\n      tag_49\n        /* \"contracts/MasterChefOperator.sol\":10163:10167  0x00 */\n      0x00\n        /* \"contracts/MasterChefOperator.sol\":10118:10167  bytes32 public constant DEFAULT_ADMIN_ROLE = 0x00 */\n      dup2\n      jump\n        /* \"contracts/MasterChefOperator.sol\":42190:42479  function commitFarmChanges(uint256 eta, TransactionType txType)\r... */\n    tag_22:\n      callvalue\n      dup1\n      iszero\n      tag_139\n      jumpi\n      0x00\n      dup1\n      revert\n    tag_139:\n      pop\n      tag_60\n      tag_141\n      calldatasize\n      0x04\n      tag_142\n      jump\t// in\n    tag_141:\n      tag_143\n      jump\t// in\n        /* \"contracts/MasterChefOperator.sol\":41888:42182  function stageFarmModifications(\r... */\n    tag_23:\n      callvalue\n      dup1\n      iszero\n      tag_144\n      jumpi\n      0x00\n      dup1\n      revert\n    tag_144:\n      pop\n      tag_60\n      tag_146\n      calldatasize\n      0x04\n      tag_147\n      jump\t// in\n    tag_146:\n      tag_148\n      jump\t// in\n        /* \"contracts/MasterChefOperator.sol\":38908:38958  mapping(uint256 => bool) public usedFarmChangeEtas */\n    tag_24:\n      callvalue\n      dup1\n      iszero\n      tag_149\n      jumpi\n      0x00\n      dup1\n      revert\n    tag_149:\n      pop\n      tag_36\n      tag_151\n      calldatasize\n      0x04\n      tag_51\n      jump\t// in\n    tag_151:\n      mstore(0x20, 0x03)\n      0x00\n      swap1\n      dup2\n      mstore\n      0x40\n      swap1\n      keccak256\n      sload\n      0xff\n      and\n      dup2\n      jump\n        /* \"contracts/MasterChefOperator.sol\":39027:39061  Timelock public immutable timelock */\n    tag_25:\n      callvalue\n      dup1\n      iszero\n      tag_154\n      jumpi\n      0x00\n      dup1\n      revert\n    tag_154:\n      pop\n      tag_96\n      immutable(\"0xe02cb3fdbbd2afb9a2d9b64c3250fe005c3b9649f25fb61eaba0b1e1e4ff8734\")\n      dup2\n      jump\n        /* \"contracts/MasterChefOperator.sol\":12919:13068  function revokeRole(bytes32 role, address account) public virtual override onlyRole(getRoleAdmin(role)) {\r... */\n    tag_26:\n      callvalue\n      dup1\n      iszero\n      tag_159\n      jumpi\n      0x00\n      dup1\n      revert\n    tag_159:\n      pop\n      tag_60\n      tag_161\n      calldatasize\n      0x04\n      tag_62\n      jump\t// in\n    tag_161:\n      tag_162\n      jump\t// in\n        /* \"contracts/MasterChefOperator.sol\":39463:39566  function acceptTimelockAdmin() external onlyRole(COMMIT_ROLE) {\r... */\n    tag_27:\n      callvalue\n      dup1\n      iszero\n      tag_163\n      jumpi\n      0x00\n      dup1\n      revert\n    tag_163:\n      pop\n      tag_60\n      tag_165\n      jump\t// in\n        /* \"contracts/MasterChefOperator.sol\":38731:38786  mapping(uint256 => FarmAddition[]) public farmAdditions */\n    tag_28:\n      callvalue\n      dup1\n      iszero\n      tag_166\n      jumpi\n      0x00\n      dup1\n      revert\n    tag_166:\n      pop\n      tag_167\n      tag_168\n      calldatasize\n      0x04\n      tag_107\n      jump\t// in\n    tag_168:\n      tag_169\n      jump\t// in\n    tag_167:\n      0x40\n      dup1\n      mload\n      sub(shl(0xa0, 0x01), 0x01)\n        /* \"#utility.yul\":15162:15177   */\n      swap5\n      dup6\n      and\n        /* \"#utility.yul\":15144:15178   */\n      dup2\n      mstore\n        /* \"#utility.yul\":15209:15211   */\n      0x20\n        /* \"#utility.yul\":15194:15212   */\n      dup2\n      add\n        /* \"#utility.yul\":15187:15221   */\n      swap4\n      swap1\n      swap4\n      mstore\n        /* \"#utility.yul\":15257:15272   */\n      swap3\n      and\n        /* \"#utility.yul\":15237:15255   */\n      swap2\n      dup2\n      add\n        /* \"#utility.yul\":15230:15273   */\n      swap2\n      swap1\n      swap2\n      mstore\n        /* \"#utility.yul\":15094:15096   */\n      0x60\n        /* \"#utility.yul\":15079:15097   */\n      add\n        /* \"contracts/MasterChefOperator.sol\":38731:38786  mapping(uint256 => FarmAddition[]) public farmAdditions */\n      tag_40\n        /* \"#utility.yul\":14872:15279   */\n      jump\n        /* \"contracts/MasterChefOperator.sol\":10731:10935  function supportsInterface(bytes4 interfaceId) public view virtual override returns (bool) {\r... */\n    tag_39:\n        /* \"contracts/MasterChefOperator.sol\":10816:10820  bool */\n      0x00\n      not(sub(shl(0xe0, 0x01), 0x01))\n        /* \"contracts/MasterChefOperator.sol\":10840:10887  interfaceId == type(IAccessControl).interfaceId */\n      dup3\n      and\n      shl(0xe0, 0x7965db0b)\n      eq\n      dup1\n        /* \"contracts/MasterChefOperator.sol\":10840:10927  interfaceId == type(IAccessControl).interfaceId || super.supportsInterface(interfaceId) */\n      tag_174\n      jumpi\n      pop\n      shl(0xe0, 0x01ffc9a7)\n      not(sub(shl(0xe0, 0x01), 0x01))\n        /* \"contracts/MasterChefOperator.sol\":9836:9876  interfaceId == type(IERC165).interfaceId */\n      dup4\n      and\n      eq\n        /* \"contracts/MasterChefOperator.sol\":10891:10927  super.supportsInterface(interfaceId) */\n    tag_174:\n        /* \"contracts/MasterChefOperator.sol\":10833:10927  return interfaceId == type(IAccessControl).interfaceId || super.supportsInterface(interfaceId) */\n      swap3\n        /* \"contracts/MasterChefOperator.sol\":10731:10935  function supportsInterface(bytes4 interfaceId) public view virtual override returns (bool) {\r... */\n      swap2\n      pop\n      pop\n      jump\t// out\n        /* \"contracts/MasterChefOperator.sol\":45913:46231  function executeTransaction(\r... */\n    tag_45:\n        /* \"contracts/MasterChefOperator.sol\":46127:46139  bytes memory */\n      0x60\n      0x00\n      dup1\n      mload\n      0x20\n      data_846a6eeaa8e17fb1d59b9d1ac80053a90c6e3388f7eba1375988b8c9cfe2950c\n      dup4\n      codecopy\n      dup2\n      mload\n      swap2\n      mstore\n        /* \"contracts/MasterChefOperator.sol\":10609:10639  _checkRole(role, _msgSender()) */\n      tag_177\n        /* \"contracts/MasterChefOperator.sol\":38282:38337  keccak256(\"0x59AfAF89723614Cbf303D3D4CbABa2c7280Fe563\") */\n      dup2\n        /* \"contracts/MasterChefOperator.sol\":4026:4036  msg.sender */\n      caller\n        /* \"contracts/MasterChefOperator.sol\":10609:10619  _checkRole */\n      tag_180\n        /* \"contracts/MasterChefOperator.sol\":10609:10639  _checkRole(role, _msgSender()) */\n      jump\t// in\n    tag_177:\n        /* \"contracts/MasterChefOperator.sol\":46159:46223  timelock.executeTransaction(target, value, signature, data, eta) */\n      mload(0x40)\n      shl(0xe0, 0x0825f38f)\n      dup2\n      mstore\n      sub(shl(0xa0, 0x01), 0x01)\n        /* \"contracts/MasterChefOperator.sol\":46159:46167  timelock */\n      immutable(\"0xe02cb3fdbbd2afb9a2d9b64c3250fe005c3b9649f25fb61eaba0b1e1e4ff8734\")\n        /* \"contracts/MasterChefOperator.sol\":46159:46186  timelock.executeTransaction */\n      and\n      swap1\n      0x0825f38f\n      swap1\n        /* \"contracts/MasterChefOperator.sol\":46159:46223  timelock.executeTransaction(target, value, signature, data, eta) */\n      tag_182\n      swap1\n        /* \"contracts/MasterChefOperator.sol\":46187:46193  target */\n      dup11\n      swap1\n        /* \"contracts/MasterChefOperator.sol\":46195:46200  value */\n      dup11\n      swap1\n        /* \"contracts/MasterChefOperator.sol\":46202:46211  signature */\n      dup11\n      swap1\n        /* \"contracts/MasterChefOperator.sol\":46213:46217  data */\n      dup11\n      swap1\n        /* \"contracts/MasterChefOperator.sol\":46219:46222  eta */\n      dup11\n      swap1\n        /* \"contracts/MasterChefOperator.sol\":46159:46223  timelock.executeTransaction(target, value, signature, data, eta) */\n      0x04\n      add\n      tag_183\n      jump\t// in\n    tag_182:\n      0x00\n      mload(0x40)\n      dup1\n      dup4\n      sub\n      dup2\n      0x00\n      dup8\n      dup1\n      extcodesize\n      iszero\n      dup1\n      iszero\n      tag_184\n      jumpi\n      0x00\n      dup1\n      revert\n    tag_184:\n      pop\n      gas\n      call\n      iszero\n      dup1\n      iszero\n      tag_186\n      jumpi\n      returndatasize\n      0x00\n      dup1\n      returndatacopy\n      revert(0x00, returndatasize)\n    tag_186:\n      pop\n      pop\n      pop\n      pop\n      mload(0x40)\n      returndatasize\n      0x00\n      dup3\n      returndatacopy\n      0x1f\n      returndatasize\n      swap1\n      dup2\n      add\n      not(0x1f)\n      and\n      dup3\n      add\n      0x40\n      mstore\n      tag_187\n      swap2\n      swap1\n      dup2\n      add\n      swap1\n      tag_188\n      jump\t// in\n    tag_187:\n        /* \"contracts/MasterChefOperator.sol\":46152:46223  return timelock.executeTransaction(target, value, signature, data, eta) */\n      swap8\n        /* \"contracts/MasterChefOperator.sol\":45913:46231  function executeTransaction(\r... */\n      swap7\n      pop\n      pop\n      pop\n      pop\n      pop\n      pop\n      pop\n      jump\t// out\n        /* \"contracts/MasterChefOperator.sol\":12527:12674  function grantRole(bytes32 role, address account) public virtual override onlyRole(getRoleAdmin(role)) {\r... */\n    tag_63:\n        /* \"contracts/MasterChefOperator.sol\":12208:12215  bytes32 */\n      0x00\n        /* \"contracts/MasterChefOperator.sol\":12235:12247  _roles[role] */\n      dup3\n      dup2\n      mstore\n      0x20\n      dup2\n      swap1\n      mstore\n      0x40\n      swap1\n      keccak256\n        /* \"contracts/MasterChefOperator.sol\":12235:12257  _roles[role].adminRole */\n      0x01\n      add\n      sload\n        /* \"contracts/MasterChefOperator.sol\":10609:10639  _checkRole(role, _msgSender()) */\n      tag_192\n        /* \"contracts/MasterChefOperator.sol\":10620:10624  role */\n      dup2\n        /* \"contracts/MasterChefOperator.sol\":4026:4036  msg.sender */\n      caller\n        /* \"contracts/MasterChefOperator.sol\":10609:10619  _checkRole */\n      tag_180\n        /* \"contracts/MasterChefOperator.sol\":10609:10639  _checkRole(role, _msgSender()) */\n      jump\t// in\n    tag_192:\n        /* \"contracts/MasterChefOperator.sol\":12641:12666  _grantRole(role, account) */\n      tag_195\n        /* \"contracts/MasterChefOperator.sol\":12652:12656  role */\n      dup4\n        /* \"contracts/MasterChefOperator.sol\":12658:12665  account */\n      dup4\n        /* \"contracts/MasterChefOperator.sol\":12641:12651  _grantRole */\n      tag_196\n        /* \"contracts/MasterChefOperator.sol\":12641:12666  _grantRole(role, account) */\n      jump\t// in\n    tag_195:\n        /* \"contracts/MasterChefOperator.sol\":12527:12674  function grantRole(bytes32 role, address account) public virtual override onlyRole(getRoleAdmin(role)) {\r... */\n      pop\n      pop\n      pop\n      jump\t// out\n        /* \"contracts/MasterChefOperator.sol\":45125:45301  function farmModificationsForEta(uint256 eta)\r... */\n    tag_68:\n        /* \"contracts/MasterChefOperator.sol\":45221:45246  FarmModification[] memory */\n      0x60\n        /* \"contracts/MasterChefOperator.sol\":45271:45288  farmModifications */\n      0x02\n        /* \"contracts/MasterChefOperator.sol\":45271:45293  farmModifications[eta] */\n      0x00\n        /* \"contracts/MasterChefOperator.sol\":45289:45292  eta */\n      dup4\n        /* \"contracts/MasterChefOperator.sol\":45271:45293  farmModifications[eta] */\n      dup2\n      mstore\n      0x20\n      add\n      swap1\n      dup2\n      mstore\n      0x20\n      add\n      0x00\n      keccak256\n        /* \"contracts/MasterChefOperator.sol\":45264:45293  return farmModifications[eta] */\n      dup1\n      sload\n      dup1\n      0x20\n      mul\n      0x20\n      add\n      mload(0x40)\n      swap1\n      dup2\n      add\n      0x40\n      mstore\n      dup1\n      swap3\n      swap2\n      swap1\n      dup2\n      dup2\n      mstore\n      0x20\n      add\n      0x00\n      swap1\n    tag_198:\n      dup3\n      dup3\n      lt\n      iszero\n      tag_199\n      jumpi\n      0x00\n      dup5\n      dup2\n      mstore\n      0x20\n      swap1\n      dup2\n      swap1\n      keccak256\n      0x40\n      dup1\n      mload\n      0x80\n      dup2\n      add\n      dup3\n      mstore\n      0x03\n      dup7\n      mul\n      swap1\n      swap3\n      add\n      dup1\n      sload\n      dup4\n      mstore\n      0x01\n      dup1\n      dup3\n      add\n      sload\n      dup5\n      dup7\n      add\n      mstore\n      0x02\n      swap1\n      swap2\n      add\n      sload\n      sub(shl(0xa0, 0x01), 0x01)\n      dup2\n      and\n      swap3\n      dup5\n      add\n      swap3\n      swap1\n      swap3\n      mstore\n      shl(0xa0, 0x01)\n      swap1\n      swap2\n      div\n      0xff\n      and\n      iszero\n      iszero\n      0x60\n      dup4\n      add\n      mstore\n      swap1\n      dup4\n      mstore\n      swap1\n      swap3\n      add\n      swap2\n      add\n      jump(tag_198)\n    tag_199:\n      pop\n      pop\n      pop\n      pop\n      swap1\n      pop\n        /* \"contracts/MasterChefOperator.sol\":45125:45301  function farmModificationsForEta(uint256 eta)\r... */\n      swap2\n      swap1\n      pop\n      jump\t// out\n        /* \"contracts/MasterChefOperator.sol\":13575:13793  function renounceRole(bytes32 role, address account) public virtual override {\r... */\n    tag_74:\n      sub(shl(0xa0, 0x01), 0x01)\n        /* \"contracts/MasterChefOperator.sol\":13671:13694  account == _msgSender() */\n      dup2\n      and\n        /* \"contracts/MasterChefOperator.sol\":4026:4036  msg.sender */\n      caller\n        /* \"contracts/MasterChefOperator.sol\":13671:13694  account == _msgSender() */\n      eq\n        /* \"contracts/MasterChefOperator.sol\":13663:13746  require(account == _msgSender(), \"AccessControl: can only renounce roles for self\") */\n      tag_203\n      jumpi\n      mload(0x40)\n      shl(0xe5, 0x461bcd)\n      dup2\n      mstore\n        /* \"#utility.yul\":16706:16708   */\n      0x20\n        /* \"contracts/MasterChefOperator.sol\":13663:13746  require(account == _msgSender(), \"AccessControl: can only renounce roles for self\") */\n      0x04\n      dup3\n      add\n        /* \"#utility.yul\":16688:16709   */\n      mstore\n        /* \"#utility.yul\":16745:16747   */\n      0x2f\n        /* \"#utility.yul\":16725:16743   */\n      0x24\n      dup3\n      add\n        /* \"#utility.yul\":16718:16748   */\n      mstore\n        /* \"#utility.yul\":16784:16818   */\n      0x416363657373436f6e74726f6c3a2063616e206f6e6c792072656e6f756e6365\n        /* \"#utility.yul\":16764:16782   */\n      0x44\n      dup3\n      add\n        /* \"#utility.yul\":16757:16819   */\n      mstore\n      shl(0x89, 0x103937b632b9903337b91039b2b633)\n        /* \"#utility.yul\":16835:16853   */\n      0x64\n      dup3\n      add\n        /* \"#utility.yul\":16828:16873   */\n      mstore\n        /* \"#utility.yul\":16890:16909   */\n      0x84\n      add\n        /* \"contracts/MasterChefOperator.sol\":13663:13746  require(account == _msgSender(), \"AccessControl: can only renounce roles for self\") */\n    tag_204:\n      mload(0x40)\n      dup1\n      swap2\n      sub\n      swap1\n      revert\n    tag_203:\n        /* \"contracts/MasterChefOperator.sol\":13759:13785  _revokeRole(role, account) */\n      tag_206\n        /* \"contracts/MasterChefOperator.sol\":13771:13775  role */\n      dup3\n        /* \"contracts/MasterChefOperator.sol\":13777:13784  account */\n      dup3\n        /* \"contracts/MasterChefOperator.sol\":13759:13770  _revokeRole */\n      tag_207\n        /* \"contracts/MasterChefOperator.sol\":13759:13785  _revokeRole(role, account) */\n      jump\t// in\n    tag_206:\n        /* \"contracts/MasterChefOperator.sol\":13575:13793  function renounceRole(bytes32 role, address account) public virtual override {\r... */\n      pop\n      pop\n      jump\t// out\n        /* \"contracts/MasterChefOperator.sol\":45311:45612  function queueTransaction(\r... */\n    tag_78:\n        /* \"contracts/MasterChefOperator.sol\":45515:45522  bytes32 */\n      0x00\n      0x00\n      dup1\n      mload\n      0x20\n      data_846a6eeaa8e17fb1d59b9d1ac80053a90c6e3388f7eba1375988b8c9cfe2950c\n      dup4\n      codecopy\n      dup2\n      mload\n      swap2\n      mstore\n        /* \"contracts/MasterChefOperator.sol\":10609:10639  _checkRole(role, _msgSender()) */\n      tag_209\n        /* \"contracts/MasterChefOperator.sol\":38282:38337  keccak256(\"0x59AfAF89723614Cbf303D3D4CbABa2c7280Fe563\") */\n      dup2\n        /* \"contracts/MasterChefOperator.sol\":4026:4036  msg.sender */\n      caller\n        /* \"contracts/MasterChefOperator.sol\":10609:10619  _checkRole */\n      tag_180\n        /* \"contracts/MasterChefOperator.sol\":10609:10639  _checkRole(role, _msgSender()) */\n      jump\t// in\n    tag_209:\n        /* \"contracts/MasterChefOperator.sol\":45542:45604  timelock.queueTransaction(target, value, signature, data, eta) */\n      mload(0x40)\n      shl(0xe0, 0x3a66f901)\n      dup2\n      mstore\n      sub(shl(0xa0, 0x01), 0x01)\n        /* \"contracts/MasterChefOperator.sol\":45542:45550  timelock */\n      immutable(\"0xe02cb3fdbbd2afb9a2d9b64c3250fe005c3b9649f25fb61eaba0b1e1e4ff8734\")\n        /* \"contracts/MasterChefOperator.sol\":45542:45567  timelock.queueTransaction */\n      and\n      swap1\n      0x3a66f901\n      swap1\n        /* \"contracts/MasterChefOperator.sol\":45542:45604  timelock.queueTransaction(target, value, signature, data, eta) */\n      tag_212\n      swap1\n        /* \"contracts/MasterChefOperator.sol\":45568:45574  target */\n      dup11\n      swap1\n        /* \"contracts/MasterChefOperator.sol\":45576:45581  value */\n      dup11\n      swap1\n        /* \"contracts/MasterChefOperator.sol\":45583:45592  signature */\n      dup11\n      swap1\n        /* \"contracts/MasterChefOperator.sol\":45594:45598  data */\n      dup11\n      swap1\n        /* \"contracts/MasterChefOperator.sol\":45600:45603  eta */\n      dup11\n      swap1\n        /* \"contracts/MasterChefOperator.sol\":45542:45604  timelock.queueTransaction(target, value, signature, data, eta) */\n      0x04\n      add\n      tag_183\n      jump\t// in\n    tag_212:\n      0x20\n      mload(0x40)\n      dup1\n      dup4\n      sub\n      dup2\n      0x00\n      dup8\n      dup1\n      extcodesize\n      iszero\n      dup1\n      iszero\n      tag_213\n      jumpi\n      0x00\n      dup1\n      revert\n    tag_213:\n      pop\n      gas\n      call\n      iszero\n      dup1\n      iszero\n      tag_215\n      jumpi\n      returndatasize\n      0x00\n      dup1\n      returndatacopy\n      revert(0x00, returndatasize)\n    tag_215:\n      pop\n      pop\n      pop\n      pop\n      mload(0x40)\n      returndatasize\n      not(0x1f)\n      0x1f\n      dup3\n      add\n      and\n      dup3\n      add\n      dup1\n      0x40\n      mstore\n      pop\n      dup2\n      add\n      swap1\n      tag_187\n      swap2\n      swap1\n      tag_217\n      jump\t// in\n        /* \"contracts/MasterChefOperator.sol\":41594:41880  function stageFarmAdditions(FarmAddition[] calldata farmsToAdd, uint256 eta)\r... */\n    tag_84:\n        /* \"contracts/MasterChefOperator.sol\":46292:46315  usedFarmChangeEtas[eta] */\n      0x00\n      dup2\n      dup2\n      mstore\n        /* \"contracts/MasterChefOperator.sol\":46292:46310  usedFarmChangeEtas */\n      0x03\n        /* \"contracts/MasterChefOperator.sol\":46292:46315  usedFarmChangeEtas[eta] */\n      0x20\n      mstore\n      0x40\n      swap1\n      keccak256\n      sload\n        /* \"contracts/MasterChefOperator.sol\":41709:41712  eta */\n      dup2\n      swap1\n        /* \"contracts/MasterChefOperator.sol\":46292:46315  usedFarmChangeEtas[eta] */\n      0xff\n      and\n        /* \"contracts/MasterChefOperator.sol\":46291:46315  !usedFarmChangeEtas[eta] */\n      iszero\n        /* \"contracts/MasterChefOperator.sol\":46283:46353  require(!usedFarmChangeEtas[eta], \"ETA already used, chose other eta\") */\n      tag_219\n      jumpi\n      mload(0x40)\n      shl(0xe5, 0x461bcd)\n      dup2\n      mstore\n      0x04\n      add\n      tag_204\n      swap1\n      tag_221\n      jump\t// in\n    tag_219:\n        /* \"contracts/MasterChefOperator.sol\":46364:46394  _queuedFarmChangeEtas.add(eta) */\n      tag_222\n        /* \"contracts/MasterChefOperator.sol\":46364:46385  _queuedFarmChangeEtas */\n      0x04\n        /* \"contracts/MasterChefOperator.sol\":46390:46393  eta */\n      dup3\n        /* \"contracts/MasterChefOperator.sol\":46364:46389  _queuedFarmChangeEtas.add */\n      tag_223\n        /* \"contracts/MasterChefOperator.sol\":46364:46394  _queuedFarmChangeEtas.add(eta) */\n      jump\t// in\n    tag_222:\n      pop\n      0x00\n      dup1\n      mload\n      0x20\n      data_846a6eeaa8e17fb1d59b9d1ac80053a90c6e3388f7eba1375988b8c9cfe2950c\n      dup4\n      codecopy\n      dup2\n      mload\n      swap2\n      mstore\n        /* \"contracts/MasterChefOperator.sol\":10609:10639  _checkRole(role, _msgSender()) */\n      tag_225\n        /* \"contracts/MasterChefOperator.sol\":38182:38237  keccak256(\"0x59AfAF89723614Cbf303D3D4CbABa2c7280Fe563\") */\n      dup2\n        /* \"contracts/MasterChefOperator.sol\":4026:4036  msg.sender */\n      caller\n        /* \"contracts/MasterChefOperator.sol\":10609:10619  _checkRole */\n      tag_180\n        /* \"contracts/MasterChefOperator.sol\":10609:10639  _checkRole(role, _msgSender()) */\n      jump\t// in\n    tag_225:\n        /* \"contracts/MasterChefOperator.sol\":41765:41774  uint256 i */\n      0x00\n        /* \"contracts/MasterChefOperator.sol\":41760:41873  for (uint256 i = 0; i < farmsToAdd.length; i++) {\r... */\n    tag_228:\n        /* \"contracts/MasterChefOperator.sol\":41780:41801  i < farmsToAdd.length */\n      dup5\n      dup2\n      lt\n        /* \"contracts/MasterChefOperator.sol\":41760:41873  for (uint256 i = 0; i < farmsToAdd.length; i++) {\r... */\n      iszero\n      tag_229\n      jumpi\n        /* \"contracts/MasterChefOperator.sol\":41823:41841  farmAdditions[eta] */\n      0x00\n      dup5\n      dup2\n      mstore\n        /* \"contracts/MasterChefOperator.sol\":41823:41836  farmAdditions */\n      0x01\n        /* \"contracts/MasterChefOperator.sol\":41823:41841  farmAdditions[eta] */\n      0x20\n      mstore\n      0x40\n      swap1\n      keccak256\n        /* \"contracts/MasterChefOperator.sol\":41847:41857  farmsToAdd */\n      dup7\n      dup7\n        /* \"contracts/MasterChefOperator.sol\":41858:41859  i */\n      dup4\n        /* \"contracts/MasterChefOperator.sol\":41847:41860  farmsToAdd[i] */\n      dup2\n      dup2\n      lt\n      tag_232\n      jumpi\n      tag_232\n      tag_233\n      jump\t// in\n    tag_232:\n        /* \"contracts/MasterChefOperator.sol\":41823:41861  farmAdditions[eta].push(farmsToAdd[i]) */\n      dup4\n      sload\n      0x01\n      dup2\n      add\n      dup6\n      sstore\n      0x00\n      swap5\n      dup6\n      mstore\n      0x20\n      swap1\n      swap5\n      keccak256\n        /* \"contracts/MasterChefOperator.sol\":41847:41860  farmsToAdd[i] */\n      0x60\n      swap1\n      swap2\n      mul\n      swap3\n      swap1\n      swap3\n      add\n      swap3\n        /* \"contracts/MasterChefOperator.sol\":41823:41861  farmAdditions[eta].push(farmsToAdd[i]) */\n      0x03\n      mul\n      swap1\n      swap2\n      add\n      swap1\n      pop\n      tag_235\n        /* \"contracts/MasterChefOperator.sol\":41847:41860  farmsToAdd[i] */\n      dup3\n        /* \"contracts/MasterChefOperator.sol\":41823:41861  farmAdditions[eta].push(farmsToAdd[i]) */\n      dup3\n      tag_236\n      jump\t// in\n    tag_235:\n      pop\n      pop\n        /* \"contracts/MasterChefOperator.sol\":41803:41806  i++ */\n      dup1\n      dup1\n      tag_237\n      swap1\n      tag_238\n      jump\t// in\n    tag_237:\n      swap2\n      pop\n      pop\n        /* \"contracts/MasterChefOperator.sol\":41760:41873  for (uint256 i = 0; i < farmsToAdd.length; i++) {\r... */\n      jump(tag_228)\n    tag_229:\n      pop\n        /* \"contracts/MasterChefOperator.sol\":46405:46406  _ */\n      pop\n        /* \"contracts/MasterChefOperator.sol\":41594:41880  function stageFarmAdditions(FarmAddition[] calldata farmsToAdd, uint256 eta)\r... */\n      pop\n      pop\n      pop\n      pop\n      jump\t// out\n        /* \"contracts/MasterChefOperator.sol\":44953:45117  function farmAdditionsForEta(uint256 eta)\r... */\n    tag_88:\n        /* \"contracts/MasterChefOperator.sol\":45045:45066  FarmAddition[] memory */\n      0x60\n        /* \"contracts/MasterChefOperator.sol\":45091:45104  farmAdditions */\n      0x01\n        /* \"contracts/MasterChefOperator.sol\":45091:45109  farmAdditions[eta] */\n      0x00\n        /* \"contracts/MasterChefOperator.sol\":45105:45108  eta */\n      dup4\n        /* \"contracts/MasterChefOperator.sol\":45091:45109  farmAdditions[eta] */\n      dup2\n      mstore\n      0x20\n      add\n      swap1\n      dup2\n      mstore\n      0x20\n      add\n      0x00\n      keccak256\n        /* \"contracts/MasterChefOperator.sol\":45084:45109  return farmAdditions[eta] */\n      dup1\n      sload\n      dup1\n      0x20\n      mul\n      0x20\n      add\n      mload(0x40)\n      swap1\n      dup2\n      add\n      0x40\n      mstore\n      dup1\n      swap3\n      swap2\n      swap1\n      dup2\n      dup2\n      mstore\n      0x20\n      add\n      0x00\n      swap1\n    tag_240:\n      dup3\n      dup3\n      lt\n      iszero\n      tag_199\n      jumpi\n      0x00\n      dup5\n      dup2\n      mstore\n      0x20\n      swap1\n      dup2\n      swap1\n      keccak256\n      0x40\n      dup1\n      mload\n      0x60\n      dup2\n      add\n      dup3\n      mstore\n      0x03\n      dup7\n      mul\n      swap1\n      swap3\n      add\n      dup1\n      sload\n      sub(shl(0xa0, 0x01), 0x01)\n      swap1\n      dup2\n      and\n      dup5\n      mstore\n      0x01\n      dup1\n      dup4\n      add\n      sload\n      dup6\n      dup8\n      add\n      mstore\n      0x02\n      swap1\n      swap3\n      add\n      sload\n      and\n      swap2\n      dup4\n      add\n      swap2\n      swap1\n      swap2\n      mstore\n      swap1\n      dup4\n      mstore\n      swap1\n      swap3\n      add\n      swap2\n      add\n      jump(tag_240)\n        /* \"contracts/MasterChefOperator.sol\":45620:45905  function cancelTransaction(\r... */\n    tag_103:\n      0x00\n      dup1\n      mload\n      0x20\n      data_846a6eeaa8e17fb1d59b9d1ac80053a90c6e3388f7eba1375988b8c9cfe2950c\n      dup4\n      codecopy\n      dup2\n      mload\n      swap2\n      mstore\n        /* \"contracts/MasterChefOperator.sol\":10609:10639  _checkRole(role, _msgSender()) */\n      tag_244\n        /* \"contracts/MasterChefOperator.sol\":38282:38337  keccak256(\"0x59AfAF89723614Cbf303D3D4CbABa2c7280Fe563\") */\n      dup2\n        /* \"contracts/MasterChefOperator.sol\":4026:4036  msg.sender */\n      caller\n        /* \"contracts/MasterChefOperator.sol\":10609:10619  _checkRole */\n      tag_180\n        /* \"contracts/MasterChefOperator.sol\":10609:10639  _checkRole(role, _msgSender()) */\n      jump\t// in\n    tag_244:\n        /* \"contracts/MasterChefOperator.sol\":45834:45897  timelock.cancelTransaction(target, value, signature, data, eta) */\n      mload(0x40)\n      shl(0xe1, 0x2c8fe6ff)\n      dup2\n      mstore\n      sub(shl(0xa0, 0x01), 0x01)\n        /* \"contracts/MasterChefOperator.sol\":45834:45842  timelock */\n      immutable(\"0xe02cb3fdbbd2afb9a2d9b64c3250fe005c3b9649f25fb61eaba0b1e1e4ff8734\")\n        /* \"contracts/MasterChefOperator.sol\":45834:45860  timelock.cancelTransaction */\n      and\n      swap1\n      0x591fcdfe\n      swap1\n        /* \"contracts/MasterChefOperator.sol\":45834:45897  timelock.cancelTransaction(target, value, signature, data, eta) */\n      tag_247\n      swap1\n        /* \"contracts/MasterChefOperator.sol\":45861:45867  target */\n      dup10\n      swap1\n        /* \"contracts/MasterChefOperator.sol\":45869:45874  value */\n      dup10\n      swap1\n        /* \"contracts/MasterChefOperator.sol\":45876:45885  signature */\n      dup10\n      swap1\n        /* \"contracts/MasterChefOperator.sol\":45887:45891  data */\n      dup10\n      swap1\n        /* \"contracts/MasterChefOperator.sol\":45893:45896  eta */\n      dup10\n      swap1\n        /* \"contracts/MasterChefOperator.sol\":45834:45897  timelock.cancelTransaction(target, value, signature, data, eta) */\n      0x04\n      add\n      tag_183\n      jump\t// in\n    tag_247:\n      0x00\n      mload(0x40)\n      dup1\n      dup4\n      sub\n      dup2\n      0x00\n      dup8\n      dup1\n      extcodesize\n      iszero\n      dup1\n      iszero\n      tag_248\n      jumpi\n      0x00\n      dup1\n      revert\n    tag_248:\n      pop\n      gas\n      call\n      iszero\n      dup1\n      iszero\n      tag_250\n      jumpi\n      returndatasize\n      0x00\n      dup1\n      returndatacopy\n      revert(0x00, returndatasize)\n    tag_250:\n      pop\n      pop\n      pop\n      pop\n        /* \"contracts/MasterChefOperator.sol\":45620:45905  function cancelTransaction(\r... */\n      pop\n      pop\n      pop\n      pop\n      pop\n      pop\n      jump\t// out\n        /* \"contracts/MasterChefOperator.sol\":38793:38856  mapping(uint256 => FarmModification[]) public farmModifications */\n    tag_108:\n      mstore(0x20, 0x02)\n      dup2\n      0x00\n      mstore\n      keccak256(0x00, 0x40)\n      dup2\n      dup2\n      sload\n      dup2\n      lt\n      tag_251\n      jumpi\n      0x00\n      dup1\n      revert\n    tag_251:\n      0x00\n      swap2\n      dup3\n      mstore\n      0x20\n      swap1\n      swap2\n      keccak256\n      0x03\n      swap1\n      swap2\n      mul\n      add\n      dup1\n      sload\n      0x01\n      dup3\n      add\n      sload\n      0x02\n      swap1\n      swap3\n      add\n      sload\n      swap1\n      swap4\n      pop\n      swap1\n      swap2\n      pop\n      sub(shl(0xa0, 0x01), 0x01)\n      dup2\n      and\n      swap1\n      shl(0xa0, 0x01)\n      swap1\n      div\n      0xff\n      and\n      dup5\n      jump\t// out\n        /* \"contracts/MasterChefOperator.sol\":40253:40900  function commitSetTreasuryAddress(\r... */\n    tag_115:\n      0x00\n      dup1\n      mload\n      0x20\n      data_846a6eeaa8e17fb1d59b9d1ac80053a90c6e3388f7eba1375988b8c9cfe2950c\n      dup4\n      codecopy\n      dup2\n      mload\n      swap2\n      mstore\n        /* \"contracts/MasterChefOperator.sol\":10609:10639  _checkRole(role, _msgSender()) */\n      tag_254\n        /* \"contracts/MasterChefOperator.sol\":38282:38337  keccak256(\"0x59AfAF89723614Cbf303D3D4CbABa2c7280Fe563\") */\n      dup2\n        /* \"contracts/MasterChefOperator.sol\":4026:4036  msg.sender */\n      caller\n        /* \"contracts/MasterChefOperator.sol\":10609:10619  _checkRole */\n      tag_180\n        /* \"contracts/MasterChefOperator.sol\":10609:10639  _checkRole(role, _msgSender()) */\n      jump\t// in\n    tag_254:\n        /* \"contracts/MasterChefOperator.sol\":40432:40453  TransactionType.QUEUE */\n      0x00\n        /* \"contracts/MasterChefOperator.sol\":40422:40428  txType */\n      dup3\n        /* \"contracts/MasterChefOperator.sol\":40422:40453  txType == TransactionType.QUEUE */\n      0x01\n      dup2\n      gt\n      iszero\n      tag_261\n      jumpi\n      tag_261\n      tag_259\n      jump\t// in\n    tag_261:\n      eq\n        /* \"contracts/MasterChefOperator.sol\":40418:40893  if (txType == TransactionType.QUEUE) {\r... */\n      iszero\n      tag_262\n      jumpi\n        /* \"contracts/MasterChefOperator.sol\":40601:40621  abi.encode(treasury) */\n      0x40\n      dup1\n      mload\n      sub(shl(0xa0, 0x01), 0x01)\n        /* \"#utility.yul\":7409:7441   */\n      dup7\n      dup2\n      and\n        /* \"contracts/MasterChefOperator.sol\":40601:40621  abi.encode(treasury) */\n      0x20\n      dup4\n      add\n        /* \"#utility.yul\":7391:7442   */\n      mstore\n        /* \"contracts/MasterChefOperator.sol\":40470:40478  timelock */\n      immutable(\"0xe02cb3fdbbd2afb9a2d9b64c3250fe005c3b9649f25fb61eaba0b1e1e4ff8734\")\n        /* \"contracts/MasterChefOperator.sol\":40470:40495  timelock.queueTransaction */\n      and\n      swap2\n      0x3a66f901\n      swap2\n        /* \"contracts/MasterChefOperator.sol\":40514:40524  masterChef */\n      immutable(\"0x07ac0c5d8088a739bcb4908eb6aa67ad83c795ff92b205d9f57b6d07690f5cbf\")\n      swap2\n        /* \"contracts/MasterChefOperator.sol\":40543:40544  0 */\n      0x00\n      swap2\n        /* \"#utility.yul\":7364:7382   */\n      add\n        /* \"contracts/MasterChefOperator.sol\":40601:40621  abi.encode(treasury) */\n      mload(0x40)\n      0x20\n      dup2\n      dup4\n      sub\n      sub\n      dup2\n      mstore\n      swap1\n      0x40\n      mstore\n        /* \"contracts/MasterChefOperator.sol\":40640:40643  eta */\n      dup8\n        /* \"contracts/MasterChefOperator.sol\":40470:40658  timelock.queueTransaction(\r... */\n      mload(0x40)\n      dup6\n      0xffffffff\n      and\n      0xe0\n      shl\n      dup2\n      mstore\n      0x04\n      add\n      tag_264\n      swap5\n      swap4\n      swap3\n      swap2\n      swap1\n      tag_265\n      jump\t// in\n    tag_264:\n      0x20\n      mload(0x40)\n      dup1\n      dup4\n      sub\n      dup2\n      0x00\n      dup8\n      dup1\n      extcodesize\n      iszero\n      dup1\n      iszero\n      tag_266\n      jumpi\n      0x00\n      dup1\n      revert\n    tag_266:\n      pop\n      gas\n      call\n      iszero\n      dup1\n      iszero\n      tag_268\n      jumpi\n      returndatasize\n      0x00\n      dup1\n      returndatacopy\n      revert(0x00, returndatasize)\n    tag_268:\n      pop\n      pop\n      pop\n      pop\n      mload(0x40)\n      returndatasize\n      not(0x1f)\n      0x1f\n      dup3\n      add\n      and\n      dup3\n      add\n      dup1\n      0x40\n      mstore\n      pop\n      dup2\n      add\n      swap1\n      tag_269\n      swap2\n      swap1\n      tag_217\n      jump\t// in\n    tag_269:\n      pop\n        /* \"contracts/MasterChefOperator.sol\":40418:40893  if (txType == TransactionType.QUEUE) {\r... */\n      jump(tag_270)\n    tag_262:\n        /* \"contracts/MasterChefOperator.sol\":40824:40844  abi.encode(treasury) */\n      0x40\n      dup1\n      mload\n      sub(shl(0xa0, 0x01), 0x01)\n        /* \"#utility.yul\":7409:7441   */\n      dup7\n      dup2\n      and\n        /* \"contracts/MasterChefOperator.sol\":40824:40844  abi.encode(treasury) */\n      0x20\n      dup4\n      add\n        /* \"#utility.yul\":7391:7442   */\n      mstore\n        /* \"contracts/MasterChefOperator.sol\":40691:40699  timelock */\n      immutable(\"0xe02cb3fdbbd2afb9a2d9b64c3250fe005c3b9649f25fb61eaba0b1e1e4ff8734\")\n        /* \"contracts/MasterChefOperator.sol\":40691:40718  timelock.executeTransaction */\n      and\n      swap2\n      0x0825f38f\n      swap2\n        /* \"contracts/MasterChefOperator.sol\":40737:40747  masterChef */\n      immutable(\"0x07ac0c5d8088a739bcb4908eb6aa67ad83c795ff92b205d9f57b6d07690f5cbf\")\n      swap2\n        /* \"contracts/MasterChefOperator.sol\":40766:40767  0 */\n      0x00\n      swap2\n        /* \"#utility.yul\":7364:7382   */\n      add\n        /* \"contracts/MasterChefOperator.sol\":40824:40844  abi.encode(treasury) */\n      mload(0x40)\n      0x20\n      dup2\n      dup4\n      sub\n      sub\n      dup2\n      mstore\n      swap1\n      0x40\n      mstore\n        /* \"contracts/MasterChefOperator.sol\":40863:40866  eta */\n      dup8\n        /* \"contracts/MasterChefOperator.sol\":40691:40881  timelock.executeTransaction(\r... */\n      mload(0x40)\n      dup6\n      0xffffffff\n      and\n      0xe0\n      shl\n      dup2\n      mstore\n      0x04\n      add\n      tag_272\n      swap5\n      swap4\n      swap3\n      swap2\n      swap1\n      tag_265\n      jump\t// in\n    tag_272:\n      0x00\n      mload(0x40)\n      dup1\n      dup4\n      sub\n      dup2\n      0x00\n      dup8\n      dup1\n      extcodesize\n      iszero\n      dup1\n      iszero\n      tag_273\n      jumpi\n      0x00\n      dup1\n      revert\n    tag_273:\n      pop\n      gas\n      call\n      iszero\n      dup1\n      iszero\n      tag_275\n      jumpi\n      returndatasize\n      0x00\n      dup1\n      returndatacopy\n      revert(0x00, returndatasize)\n    tag_275:\n      pop\n      pop\n      pop\n      pop\n      mload(0x40)\n      returndatasize\n      0x00\n      dup3\n      returndatacopy\n      0x1f\n      returndatasize\n      swap1\n      dup2\n      add\n      not(0x1f)\n      and\n      dup3\n      add\n      0x40\n      mstore\n      tag_276\n      swap2\n      swap1\n      dup2\n      add\n      swap1\n      tag_188\n      jump\t// in\n    tag_276:\n      pop\n        /* \"contracts/MasterChefOperator.sol\":40418:40893  if (txType == TransactionType.QUEUE) {\r... */\n    tag_270:\n        /* \"contracts/MasterChefOperator.sol\":40253:40900  function commitSetTreasuryAddress(\r... */\n      pop\n      pop\n      pop\n      pop\n      jump\t// out\n        /* \"contracts/MasterChefOperator.sol\":44816:44945  function queuedFarmChangeEtas() external view returns (uint256[] memory) {\r... */\n    tag_118:\n        /* \"contracts/MasterChefOperator.sol\":44871:44887  uint256[] memory */\n      0x60\n        /* \"contracts/MasterChefOperator.sol\":44907:44937  _queuedFarmChangeEtas.values() */\n      tag_278\n        /* \"contracts/MasterChefOperator.sol\":44907:44928  _queuedFarmChangeEtas */\n      0x04\n        /* \"contracts/MasterChefOperator.sol\":44907:44935  _queuedFarmChangeEtas.values */\n      tag_279\n        /* \"contracts/MasterChefOperator.sol\":44907:44937  _queuedFarmChangeEtas.values() */\n      jump\t// in\n    tag_278:\n        /* \"contracts/MasterChefOperator.sol\":44900:44937  return _queuedFarmChangeEtas.values() */\n      swap1\n      pop\n        /* \"contracts/MasterChefOperator.sol\":44816:44945  function queuedFarmChangeEtas() external view returns (uint256[] memory) {\r... */\n      swap1\n      jump\t// out\n        /* \"contracts/MasterChefOperator.sol\":39574:40245  function commitSetPendingTimelockAdmin(\r... */\n    tag_124:\n      0x00\n      dup1\n      mload\n      0x20\n      data_846a6eeaa8e17fb1d59b9d1ac80053a90c6e3388f7eba1375988b8c9cfe2950c\n      dup4\n      codecopy\n      dup2\n      mload\n      swap2\n      mstore\n        /* \"contracts/MasterChefOperator.sol\":10609:10639  _checkRole(role, _msgSender()) */\n      tag_281\n        /* \"contracts/MasterChefOperator.sol\":38282:38337  keccak256(\"0x59AfAF89723614Cbf303D3D4CbABa2c7280Fe563\") */\n      dup2\n        /* \"contracts/MasterChefOperator.sol\":4026:4036  msg.sender */\n      caller\n        /* \"contracts/MasterChefOperator.sol\":10609:10619  _checkRole */\n      tag_180\n        /* \"contracts/MasterChefOperator.sol\":10609:10639  _checkRole(role, _msgSender()) */\n      jump\t// in\n    tag_281:\n        /* \"contracts/MasterChefOperator.sol\":39755:39776  TransactionType.QUEUE */\n      0x00\n        /* \"contracts/MasterChefOperator.sol\":39745:39751  txType */\n      dup3\n        /* \"contracts/MasterChefOperator.sol\":39745:39776  txType == TransactionType.QUEUE */\n      0x01\n      dup2\n      gt\n      iszero\n      tag_287\n      jumpi\n      tag_287\n      tag_259\n      jump\t// in\n    tag_287:\n      eq\n        /* \"contracts/MasterChefOperator.sol\":39741:40238  if (txType == TransactionType.QUEUE) {\r... */\n      iszero\n      tag_288\n      jumpi\n        /* \"contracts/MasterChefOperator.sol\":39938:39955  abi.encode(admin) */\n      0x40\n      dup1\n      mload\n      sub(shl(0xa0, 0x01), 0x01)\n        /* \"#utility.yul\":7409:7441   */\n      dup7\n      dup2\n      and\n        /* \"contracts/MasterChefOperator.sol\":39938:39955  abi.encode(admin) */\n      0x20\n      dup4\n      add\n        /* \"#utility.yul\":7391:7442   */\n      mstore\n        /* \"contracts/MasterChefOperator.sol\":39793:39801  timelock */\n      immutable(\"0xe02cb3fdbbd2afb9a2d9b64c3250fe005c3b9649f25fb61eaba0b1e1e4ff8734\")\n        /* \"contracts/MasterChefOperator.sol\":39793:39818  timelock.queueTransaction */\n      swap1\n      dup2\n      and\n      swap3\n      0x3a66f901\n      swap3\n        /* \"contracts/MasterChefOperator.sol\":39873:39874  0 */\n      0x00\n      swap2\n        /* \"#utility.yul\":7364:7382   */\n      add\n        /* \"contracts/MasterChefOperator.sol\":39938:39955  abi.encode(admin) */\n      mload(0x40)\n      0x20\n      dup2\n      dup4\n      sub\n      sub\n      dup2\n      mstore\n      swap1\n      0x40\n      mstore\n        /* \"contracts/MasterChefOperator.sol\":39974:39977  eta */\n      dup8\n        /* \"contracts/MasterChefOperator.sol\":39793:39992  timelock.queueTransaction(\r... */\n      mload(0x40)\n      dup6\n      0xffffffff\n      and\n      0xe0\n      shl\n      dup2\n      mstore\n      0x04\n      add\n      tag_264\n      swap5\n      swap4\n      swap3\n      swap2\n      swap1\n      tag_291\n      jump\t// in\n        /* \"contracts/MasterChefOperator.sol\":39741:40238  if (txType == TransactionType.QUEUE) {\r... */\n    tag_288:\n        /* \"contracts/MasterChefOperator.sol\":40172:40189  abi.encode(admin) */\n      0x40\n      dup1\n      mload\n      sub(shl(0xa0, 0x01), 0x01)\n        /* \"#utility.yul\":7409:7441   */\n      dup7\n      dup2\n      and\n        /* \"contracts/MasterChefOperator.sol\":40172:40189  abi.encode(admin) */\n      0x20\n      dup4\n      add\n        /* \"#utility.yul\":7391:7442   */\n      mstore\n        /* \"contracts/MasterChefOperator.sol\":40025:40033  timelock */\n      immutable(\"0xe02cb3fdbbd2afb9a2d9b64c3250fe005c3b9649f25fb61eaba0b1e1e4ff8734\")\n        /* \"contracts/MasterChefOperator.sol\":40025:40052  timelock.executeTransaction */\n      swap1\n      dup2\n      and\n      swap3\n      0x0825f38f\n      swap3\n        /* \"contracts/MasterChefOperator.sol\":40107:40108  0 */\n      0x00\n      swap2\n        /* \"#utility.yul\":7364:7382   */\n      add\n        /* \"contracts/MasterChefOperator.sol\":40172:40189  abi.encode(admin) */\n      mload(0x40)\n      0x20\n      dup2\n      dup4\n      sub\n      sub\n      dup2\n      mstore\n      swap1\n      0x40\n      mstore\n        /* \"contracts/MasterChefOperator.sol\":40208:40211  eta */\n      dup8\n        /* \"contracts/MasterChefOperator.sol\":40025:40226  timelock.executeTransaction(\r... */\n      mload(0x40)\n      dup6\n      0xffffffff\n      and\n      0xe0\n      shl\n      dup2\n      mstore\n      0x04\n      add\n      tag_272\n      swap5\n      swap4\n      swap3\n      swap2\n      swap1\n      tag_291\n      jump\t// in\n        /* \"contracts/MasterChefOperator.sol\":11027:11166  function hasRole(bytes32 role, address account) public view override returns (bool) {\r... */\n    tag_128:\n        /* \"contracts/MasterChefOperator.sol\":11105:11109  bool */\n      0x00\n        /* \"contracts/MasterChefOperator.sol\":11129:11141  _roles[role] */\n      swap2\n      dup3\n      mstore\n      0x20\n      dup3\n      dup2\n      mstore\n      0x40\n      dup1\n      dup5\n      keccak256\n      sub(shl(0xa0, 0x01), 0x01)\n        /* \"contracts/MasterChefOperator.sol\":11129:11158  _roles[role].members[account] */\n      swap4\n      swap1\n      swap4\n      and\n      dup5\n      mstore\n      swap2\n      swap1\n      mstore\n      swap1\n      keccak256\n      sload\n      0xff\n      and\n      swap1\n        /* \"contracts/MasterChefOperator.sol\":11027:11166  function hasRole(bytes32 role, address account) public view override returns (bool) {\r... */\n      jump\t// out\n        /* \"contracts/MasterChefOperator.sol\":40908:41586  function commitEmissionChange(\r... */\n    tag_134:\n      0x00\n      dup1\n      mload\n      0x20\n      data_846a6eeaa8e17fb1d59b9d1ac80053a90c6e3388f7eba1375988b8c9cfe2950c\n      dup4\n      codecopy\n      dup2\n      mload\n      swap2\n      mstore\n        /* \"contracts/MasterChefOperator.sol\":10609:10639  _checkRole(role, _msgSender()) */\n      tag_305\n        /* \"contracts/MasterChefOperator.sol\":38282:38337  keccak256(\"0x59AfAF89723614Cbf303D3D4CbABa2c7280Fe563\") */\n      dup2\n        /* \"contracts/MasterChefOperator.sol\":4026:4036  msg.sender */\n      caller\n        /* \"contracts/MasterChefOperator.sol\":10609:10619  _checkRole */\n      tag_180\n        /* \"contracts/MasterChefOperator.sol\":10609:10639  _checkRole(role, _msgSender()) */\n      jump\t// in\n    tag_305:\n        /* \"contracts/MasterChefOperator.sol\":41088:41109  TransactionType.QUEUE */\n      0x00\n        /* \"contracts/MasterChefOperator.sol\":41078:41084  txType */\n      dup3\n        /* \"contracts/MasterChefOperator.sol\":41078:41109  txType == TransactionType.QUEUE */\n      0x01\n      dup2\n      gt\n      iszero\n      tag_311\n      jumpi\n      tag_311\n      tag_259\n      jump\t// in\n    tag_311:\n      eq\n        /* \"contracts/MasterChefOperator.sol\":41074:41579  if (txType == TransactionType.QUEUE) {\r... */\n      iszero\n      tag_312\n      jumpi\n        /* \"contracts/MasterChefOperator.sol\":41126:41134  timelock */\n      immutable(\"0xe02cb3fdbbd2afb9a2d9b64c3250fe005c3b9649f25fb61eaba0b1e1e4ff8734\")\n      sub(shl(0xa0, 0x01), 0x01)\n        /* \"contracts/MasterChefOperator.sol\":41126:41151  timelock.queueTransaction */\n      and\n      0x3a66f901\n        /* \"contracts/MasterChefOperator.sol\":41170:41180  masterChef */\n      immutable(\"0x07ac0c5d8088a739bcb4908eb6aa67ad83c795ff92b205d9f57b6d07690f5cbf\")\n        /* \"contracts/MasterChefOperator.sol\":41199:41200  0 */\n      0x00\n        /* \"contracts/MasterChefOperator.sol\":41278:41291  beetsPerBlock */\n      dup8\n        /* \"contracts/MasterChefOperator.sol\":41267:41292  abi.encode(beetsPerBlock) */\n      add(0x20, mload(0x40))\n      tag_313\n      swap2\n        /* \"#utility.yul\":14614:14639   */\n      dup2\n      mstore\n        /* \"#utility.yul\":14602:14604   */\n      0x20\n        /* \"#utility.yul\":14587:14605   */\n      add\n      swap1\n        /* \"#utility.yul\":14468:14645   */\n      jump\n        /* \"contracts/MasterChefOperator.sol\":41267:41292  abi.encode(beetsPerBlock) */\n    tag_313:\n      mload(0x40)\n      0x20\n      dup2\n      dup4\n      sub\n      sub\n      dup2\n      mstore\n      swap1\n      0x40\n      mstore\n        /* \"contracts/MasterChefOperator.sol\":41311:41314  eta */\n      dup8\n        /* \"contracts/MasterChefOperator.sol\":41126:41329  timelock.queueTransaction(\r... */\n      mload(0x40)\n      dup6\n      0xffffffff\n      and\n      0xe0\n      shl\n      dup2\n      mstore\n      0x04\n      add\n      tag_264\n      swap5\n      swap4\n      swap3\n      swap2\n      swap1\n      tag_316\n      jump\t// in\n        /* \"contracts/MasterChefOperator.sol\":41074:41579  if (txType == TransactionType.QUEUE) {\r... */\n    tag_312:\n        /* \"contracts/MasterChefOperator.sol\":41362:41370  timelock */\n      immutable(\"0xe02cb3fdbbd2afb9a2d9b64c3250fe005c3b9649f25fb61eaba0b1e1e4ff8734\")\n      sub(shl(0xa0, 0x01), 0x01)\n        /* \"contracts/MasterChefOperator.sol\":41362:41389  timelock.executeTransaction */\n      and\n      0x0825f38f\n        /* \"contracts/MasterChefOperator.sol\":41408:41418  masterChef */\n      immutable(\"0x07ac0c5d8088a739bcb4908eb6aa67ad83c795ff92b205d9f57b6d07690f5cbf\")\n        /* \"contracts/MasterChefOperator.sol\":41437:41438  0 */\n      0x00\n        /* \"contracts/MasterChefOperator.sol\":41516:41529  beetsPerBlock */\n      dup8\n        /* \"contracts/MasterChefOperator.sol\":41505:41530  abi.encode(beetsPerBlock) */\n      add(0x20, mload(0x40))\n      tag_322\n      swap2\n        /* \"#utility.yul\":14614:14639   */\n      dup2\n      mstore\n        /* \"#utility.yul\":14602:14604   */\n      0x20\n        /* \"#utility.yul\":14587:14605   */\n      add\n      swap1\n        /* \"#utility.yul\":14468:14645   */\n      jump\n        /* \"contracts/MasterChefOperator.sol\":41505:41530  abi.encode(beetsPerBlock) */\n    tag_322:\n      mload(0x40)\n      0x20\n      dup2\n      dup4\n      sub\n      sub\n      dup2\n      mstore\n      swap1\n      0x40\n      mstore\n        /* \"contracts/MasterChefOperator.sol\":41549:41552  eta */\n      dup8\n        /* \"contracts/MasterChefOperator.sol\":41362:41567  timelock.executeTransaction(\r... */\n      mload(0x40)\n      dup6\n      0xffffffff\n      and\n      0xe0\n      shl\n      dup2\n      mstore\n      0x04\n      add\n      tag_272\n      swap5\n      swap4\n      swap3\n      swap2\n      swap1\n      tag_316\n      jump\t// in\n        /* \"contracts/MasterChefOperator.sol\":42190:42479  function commitFarmChanges(uint256 eta, TransactionType txType)\r... */\n    tag_143:\n      0x00\n      dup1\n      mload\n      0x20\n      data_846a6eeaa8e17fb1d59b9d1ac80053a90c6e3388f7eba1375988b8c9cfe2950c\n      dup4\n      codecopy\n      dup2\n      mload\n      swap2\n      mstore\n        /* \"contracts/MasterChefOperator.sol\":10609:10639  _checkRole(role, _msgSender()) */\n      tag_329\n        /* \"contracts/MasterChefOperator.sol\":38282:38337  keccak256(\"0x59AfAF89723614Cbf303D3D4CbABa2c7280Fe563\") */\n      dup2\n        /* \"contracts/MasterChefOperator.sol\":4026:4036  msg.sender */\n      caller\n        /* \"contracts/MasterChefOperator.sol\":10609:10619  _checkRole */\n      tag_180\n        /* \"contracts/MasterChefOperator.sol\":10609:10639  _checkRole(role, _msgSender()) */\n      jump\t// in\n    tag_329:\n        /* \"contracts/MasterChefOperator.sol\":42333:42354  TransactionType.QUEUE */\n      0x00\n        /* \"contracts/MasterChefOperator.sol\":42323:42329  txType */\n      dup3\n        /* \"contracts/MasterChefOperator.sol\":42323:42354  txType == TransactionType.QUEUE */\n      0x01\n      dup2\n      gt\n      iszero\n      tag_335\n      jumpi\n      tag_335\n      tag_259\n      jump\t// in\n    tag_335:\n      eq\n        /* \"contracts/MasterChefOperator.sol\":42319:42472  if (txType == TransactionType.QUEUE) {\r... */\n      iszero\n      tag_336\n      jumpi\n        /* \"contracts/MasterChefOperator.sol\":42371:42398  queueFarmModifications(eta) */\n      tag_195\n        /* \"contracts/MasterChefOperator.sol\":42394:42397  eta */\n      dup4\n        /* \"contracts/MasterChefOperator.sol\":42371:42393  queueFarmModifications */\n      tag_338\n        /* \"contracts/MasterChefOperator.sol\":42371:42398  queueFarmModifications(eta) */\n      jump\t// in\n        /* \"contracts/MasterChefOperator.sol\":42319:42472  if (txType == TransactionType.QUEUE) {\r... */\n    tag_336:\n        /* \"contracts/MasterChefOperator.sol\":42431:42460  executeFarmModifications(eta) */\n      tag_195\n        /* \"contracts/MasterChefOperator.sol\":42456:42459  eta */\n      dup4\n        /* \"contracts/MasterChefOperator.sol\":42431:42455  executeFarmModifications */\n      tag_341\n        /* \"contracts/MasterChefOperator.sol\":42431:42460  executeFarmModifications(eta) */\n      jump\t// in\n        /* \"contracts/MasterChefOperator.sol\":41888:42182  function stageFarmModifications(\r... */\n    tag_148:\n        /* \"contracts/MasterChefOperator.sol\":46292:46315  usedFarmChangeEtas[eta] */\n      0x00\n      dup2\n      dup2\n      mstore\n        /* \"contracts/MasterChefOperator.sol\":46292:46310  usedFarmChangeEtas */\n      0x03\n        /* \"contracts/MasterChefOperator.sol\":46292:46315  usedFarmChangeEtas[eta] */\n      0x20\n      mstore\n      0x40\n      swap1\n      keccak256\n      sload\n        /* \"contracts/MasterChefOperator.sol\":42019:42022  eta */\n      dup2\n      swap1\n        /* \"contracts/MasterChefOperator.sol\":46292:46315  usedFarmChangeEtas[eta] */\n      0xff\n      and\n        /* \"contracts/MasterChefOperator.sol\":46291:46315  !usedFarmChangeEtas[eta] */\n      iszero\n        /* \"contracts/MasterChefOperator.sol\":46283:46353  require(!usedFarmChangeEtas[eta], \"ETA already used, chose other eta\") */\n      tag_343\n      jumpi\n      mload(0x40)\n      shl(0xe5, 0x461bcd)\n      dup2\n      mstore\n      0x04\n      add\n      tag_204\n      swap1\n      tag_221\n      jump\t// in\n    tag_343:\n        /* \"contracts/MasterChefOperator.sol\":46364:46394  _queuedFarmChangeEtas.add(eta) */\n      tag_345\n        /* \"contracts/MasterChefOperator.sol\":46364:46385  _queuedFarmChangeEtas */\n      0x04\n        /* \"contracts/MasterChefOperator.sol\":46390:46393  eta */\n      dup3\n        /* \"contracts/MasterChefOperator.sol\":46364:46389  _queuedFarmChangeEtas.add */\n      tag_223\n        /* \"contracts/MasterChefOperator.sol\":46364:46394  _queuedFarmChangeEtas.add(eta) */\n      jump\t// in\n    tag_345:\n      pop\n      0x00\n      dup1\n      mload\n      0x20\n      data_846a6eeaa8e17fb1d59b9d1ac80053a90c6e3388f7eba1375988b8c9cfe2950c\n      dup4\n      codecopy\n      dup2\n      mload\n      swap2\n      mstore\n        /* \"contracts/MasterChefOperator.sol\":10609:10639  _checkRole(role, _msgSender()) */\n      tag_347\n        /* \"contracts/MasterChefOperator.sol\":38182:38237  keccak256(\"0x59AfAF89723614Cbf303D3D4CbABa2c7280Fe563\") */\n      dup2\n        /* \"contracts/MasterChefOperator.sol\":4026:4036  msg.sender */\n      caller\n        /* \"contracts/MasterChefOperator.sol\":10609:10619  _checkRole */\n      tag_180\n        /* \"contracts/MasterChefOperator.sol\":10609:10639  _checkRole(role, _msgSender()) */\n      jump\t// in\n    tag_347:\n        /* \"contracts/MasterChefOperator.sol\":42061:42070  uint256 i */\n      0x00\n        /* \"contracts/MasterChefOperator.sol\":42056:42175  for (uint256 i = 0; i < farmsToEdit.length; i++) {\r... */\n    tag_350:\n        /* \"contracts/MasterChefOperator.sol\":42076:42098  i < farmsToEdit.length */\n      dup5\n      dup2\n      lt\n        /* \"contracts/MasterChefOperator.sol\":42056:42175  for (uint256 i = 0; i < farmsToEdit.length; i++) {\r... */\n      iszero\n      tag_229\n      jumpi\n        /* \"contracts/MasterChefOperator.sol\":42120:42142  farmModifications[eta] */\n      0x00\n      dup5\n      dup2\n      mstore\n        /* \"contracts/MasterChefOperator.sol\":42120:42137  farmModifications */\n      0x02\n        /* \"contracts/MasterChefOperator.sol\":42120:42142  farmModifications[eta] */\n      0x20\n      mstore\n      0x40\n      swap1\n      keccak256\n        /* \"contracts/MasterChefOperator.sol\":42148:42159  farmsToEdit */\n      dup7\n      dup7\n        /* \"contracts/MasterChefOperator.sol\":42160:42161  i */\n      dup4\n        /* \"contracts/MasterChefOperator.sol\":42148:42162  farmsToEdit[i] */\n      dup2\n      dup2\n      lt\n      tag_354\n      jumpi\n      tag_354\n      tag_233\n      jump\t// in\n    tag_354:\n        /* \"contracts/MasterChefOperator.sol\":42120:42163  farmModifications[eta].push(farmsToEdit[i]) */\n      dup4\n      sload\n      0x01\n      dup2\n      add\n      dup6\n      sstore\n      0x00\n      swap5\n      dup6\n      mstore\n      0x20\n      swap1\n      swap5\n      keccak256\n        /* \"contracts/MasterChefOperator.sol\":42148:42162  farmsToEdit[i] */\n      0x80\n      swap1\n      swap2\n      mul\n      swap3\n      swap1\n      swap3\n      add\n      swap3\n        /* \"contracts/MasterChefOperator.sol\":42120:42163  farmModifications[eta].push(farmsToEdit[i]) */\n      0x03\n      mul\n      swap1\n      swap2\n      add\n      swap1\n      pop\n      tag_356\n        /* \"contracts/MasterChefOperator.sol\":42148:42162  farmsToEdit[i] */\n      dup3\n        /* \"contracts/MasterChefOperator.sol\":42120:42163  farmModifications[eta].push(farmsToEdit[i]) */\n      dup3\n      tag_357\n      jump\t// in\n    tag_356:\n      pop\n      pop\n        /* \"contracts/MasterChefOperator.sol\":42100:42103  i++ */\n      dup1\n      dup1\n      tag_358\n      swap1\n      tag_238\n      jump\t// in\n    tag_358:\n      swap2\n      pop\n      pop\n        /* \"contracts/MasterChefOperator.sol\":42056:42175  for (uint256 i = 0; i < farmsToEdit.length; i++) {\r... */\n      jump(tag_350)\n        /* \"contracts/MasterChefOperator.sol\":12919:13068  function revokeRole(bytes32 role, address account) public virtual override onlyRole(getRoleAdmin(role)) {\r... */\n    tag_162:\n        /* \"contracts/MasterChefOperator.sol\":12208:12215  bytes32 */\n      0x00\n        /* \"contracts/MasterChefOperator.sol\":12235:12247  _roles[role] */\n      dup3\n      dup2\n      mstore\n      0x20\n      dup2\n      swap1\n      mstore\n      0x40\n      swap1\n      keccak256\n        /* \"contracts/MasterChefOperator.sol\":12235:12257  _roles[role].adminRole */\n      0x01\n      add\n      sload\n        /* \"contracts/MasterChefOperator.sol\":10609:10639  _checkRole(role, _msgSender()) */\n      tag_361\n        /* \"contracts/MasterChefOperator.sol\":10620:10624  role */\n      dup2\n        /* \"contracts/MasterChefOperator.sol\":4026:4036  msg.sender */\n      caller\n        /* \"contracts/MasterChefOperator.sol\":10609:10619  _checkRole */\n      tag_180\n        /* \"contracts/MasterChefOperator.sol\":10609:10639  _checkRole(role, _msgSender()) */\n      jump\t// in\n    tag_361:\n        /* \"contracts/MasterChefOperator.sol\":13034:13060  _revokeRole(role, account) */\n      tag_195\n        /* \"contracts/MasterChefOperator.sol\":13046:13050  role */\n      dup4\n        /* \"contracts/MasterChefOperator.sol\":13052:13059  account */\n      dup4\n        /* \"contracts/MasterChefOperator.sol\":13034:13045  _revokeRole */\n      tag_207\n        /* \"contracts/MasterChefOperator.sol\":13034:13060  _revokeRole(role, account) */\n      jump\t// in\n        /* \"contracts/MasterChefOperator.sol\":39463:39566  function acceptTimelockAdmin() external onlyRole(COMMIT_ROLE) {\r... */\n    tag_165:\n      0x00\n      dup1\n      mload\n      0x20\n      data_846a6eeaa8e17fb1d59b9d1ac80053a90c6e3388f7eba1375988b8c9cfe2950c\n      dup4\n      codecopy\n      dup2\n      mload\n      swap2\n      mstore\n        /* \"contracts/MasterChefOperator.sol\":10609:10639  _checkRole(role, _msgSender()) */\n      tag_366\n        /* \"contracts/MasterChefOperator.sol\":38282:38337  keccak256(\"0x59AfAF89723614Cbf303D3D4CbABa2c7280Fe563\") */\n      dup2\n        /* \"contracts/MasterChefOperator.sol\":4026:4036  msg.sender */\n      caller\n        /* \"contracts/MasterChefOperator.sol\":10609:10619  _checkRole */\n      tag_180\n        /* \"contracts/MasterChefOperator.sol\":10609:10639  _checkRole(role, _msgSender()) */\n      jump\t// in\n    tag_366:\n        /* \"contracts/MasterChefOperator.sol\":39536:39544  timelock */\n      immutable(\"0xe02cb3fdbbd2afb9a2d9b64c3250fe005c3b9649f25fb61eaba0b1e1e4ff8734\")\n      sub(shl(0xa0, 0x01), 0x01)\n        /* \"contracts/MasterChefOperator.sol\":39536:39556  timelock.acceptAdmin */\n      and\n      0x0e18b681\n        /* \"contracts/MasterChefOperator.sol\":39536:39558  timelock.acceptAdmin() */\n      mload(0x40)\n      dup2\n      0xffffffff\n      and\n      0xe0\n      shl\n      dup2\n      mstore\n      0x04\n      add\n      0x00\n      mload(0x40)\n      dup1\n      dup4\n      sub\n      dup2\n      0x00\n      dup8\n      dup1\n      extcodesize\n      iszero\n      dup1\n      iszero\n      tag_369\n      jumpi\n      0x00\n      dup1\n      revert\n    tag_369:\n      pop\n      gas\n      call\n      iszero\n      dup1\n      iszero\n      tag_276\n      jumpi\n      returndatasize\n      0x00\n      dup1\n      returndatacopy\n      revert(0x00, returndatasize)\n        /* \"contracts/MasterChefOperator.sol\":38731:38786  mapping(uint256 => FarmAddition[]) public farmAdditions */\n    tag_169:\n      mstore(0x20, 0x01)\n      dup2\n      0x00\n      mstore\n      keccak256(0x00, 0x40)\n      dup2\n      dup2\n      sload\n      dup2\n      lt\n      tag_372\n      jumpi\n      0x00\n      dup1\n      revert\n    tag_372:\n      0x00\n      swap2\n      dup3\n      mstore\n      0x20\n      swap1\n      swap2\n      keccak256\n      0x03\n      swap1\n      swap2\n      mul\n      add\n      dup1\n      sload\n      0x01\n      dup3\n      add\n      sload\n      0x02\n      swap1\n      swap3\n      add\n      sload\n      sub(shl(0xa0, 0x01), 0x01)\n      swap2\n      dup3\n      and\n      swap5\n      pop\n      swap2\n      swap3\n      pop\n      and\n      dup4\n      jump\t// out\n        /* \"contracts/MasterChefOperator.sol\":11456:11953  function _checkRole(bytes32 role, address account) internal view {\r... */\n    tag_180:\n        /* \"contracts/MasterChefOperator.sol\":11537:11559  hasRole(role, account) */\n      tag_377\n        /* \"contracts/MasterChefOperator.sol\":11545:11549  role */\n      dup3\n        /* \"contracts/MasterChefOperator.sol\":11551:11558  account */\n      dup3\n        /* \"contracts/MasterChefOperator.sol\":11537:11544  hasRole */\n      tag_128\n        /* \"contracts/MasterChefOperator.sol\":11537:11559  hasRole(role, account) */\n      jump\t// in\n    tag_377:\n        /* \"contracts/MasterChefOperator.sol\":11532:11946  if (!hasRole(role, account)) {\r... */\n      tag_206\n      jumpi\n        /* \"contracts/MasterChefOperator.sol\":11725:11766  Strings.toHexString(uint160(account), 20) */\n      tag_379\n        /* \"contracts/MasterChefOperator.sol\":11753:11760  account */\n      dup2\n      sub(shl(0xa0, 0x01), 0x01)\n        /* \"contracts/MasterChefOperator.sol\":11725:11766  Strings.toHexString(uint160(account), 20) */\n      and\n        /* \"contracts/MasterChefOperator.sol\":11763:11765  20 */\n      0x14\n        /* \"contracts/MasterChefOperator.sol\":11725:11744  Strings.toHexString */\n      tag_380\n        /* \"contracts/MasterChefOperator.sol\":11725:11766  Strings.toHexString(uint160(account), 20) */\n      jump\t// in\n    tag_379:\n        /* \"contracts/MasterChefOperator.sol\":11839:11877  Strings.toHexString(uint256(role), 32) */\n      tag_381\n        /* \"contracts/MasterChefOperator.sol\":11867:11871  role */\n      dup4\n        /* \"contracts/MasterChefOperator.sol\":11874:11876  32 */\n      0x20\n        /* \"contracts/MasterChefOperator.sol\":11839:11858  Strings.toHexString */\n      tag_380\n        /* \"contracts/MasterChefOperator.sol\":11839:11877  Strings.toHexString(uint256(role), 32) */\n      jump\t// in\n    tag_381:\n        /* \"contracts/MasterChefOperator.sol\":11630:11900  abi.encodePacked(\r... */\n      add(0x20, mload(0x40))\n      tag_382\n      swap3\n      swap2\n      swap1\n      tag_383\n      jump\t// in\n    tag_382:\n      0x40\n      dup1\n      mload\n      not(0x1f)\n      dup2\n      dup5\n      sub\n      add\n      dup2\n      mstore\n      swap1\n      dup3\n      swap1\n      mstore\n      shl(0xe5, 0x461bcd)\n        /* \"contracts/MasterChefOperator.sol\":11576:11934  revert(\r... */\n      dup3\n      mstore\n      tag_204\n      swap2\n      0x04\n      add\n      tag_47\n      jump\t// in\n        /* \"contracts/MasterChefOperator.sol\":14879:15108  function _grantRole(bytes32 role, address account) private {\r... */\n    tag_196:\n        /* \"contracts/MasterChefOperator.sol\":14954:14976  hasRole(role, account) */\n      tag_387\n        /* \"contracts/MasterChefOperator.sol\":14962:14966  role */\n      dup3\n        /* \"contracts/MasterChefOperator.sol\":14968:14975  account */\n      dup3\n        /* \"contracts/MasterChefOperator.sol\":14954:14961  hasRole */\n      tag_128\n        /* \"contracts/MasterChefOperator.sol\":14954:14976  hasRole(role, account) */\n      jump\t// in\n    tag_387:\n        /* \"contracts/MasterChefOperator.sol\":14949:15101  if (!hasRole(role, account)) {\r... */\n      tag_206\n      jumpi\n        /* \"contracts/MasterChefOperator.sol\":14993:14999  _roles */\n      0x00\n        /* \"contracts/MasterChefOperator.sol\":14993:15005  _roles[role] */\n      dup3\n      dup2\n      mstore\n      0x20\n      dup2\n      dup2\n      mstore\n      0x40\n      dup1\n      dup4\n      keccak256\n      sub(shl(0xa0, 0x01), 0x01)\n        /* \"contracts/MasterChefOperator.sol\":14993:15022  _roles[role].members[account] */\n      dup6\n      and\n      dup5\n      mstore\n      swap1\n      swap2\n      mstore\n      swap1\n      keccak256\n        /* \"contracts/MasterChefOperator.sol\":14993:15029  _roles[role].members[account] = true */\n      dup1\n      sload\n      not(0xff)\n      and\n        /* \"contracts/MasterChefOperator.sol\":15025:15029  true */\n      0x01\n        /* \"contracts/MasterChefOperator.sol\":14993:15029  _roles[role].members[account] = true */\n      or\n      swap1\n      sstore\n        /* \"contracts/MasterChefOperator.sol\":15076:15088  _msgSender() */\n      tag_389\n        /* \"contracts/MasterChefOperator.sol\":4026:4036  msg.sender */\n      caller\n      swap1\n        /* \"contracts/MasterChefOperator.sol\":3946:4044  function _msgSender() internal view virtual returns (address) {\r... */\n      jump\n        /* \"contracts/MasterChefOperator.sol\":15076:15088  _msgSender() */\n    tag_389:\n      sub(shl(0xa0, 0x01), 0x01)\n        /* \"contracts/MasterChefOperator.sol\":15049:15089  RoleGranted(role, account, _msgSender()) */\n      and\n        /* \"contracts/MasterChefOperator.sol\":15067:15074  account */\n      dup2\n      sub(shl(0xa0, 0x01), 0x01)\n        /* \"contracts/MasterChefOperator.sol\":15049:15089  RoleGranted(role, account, _msgSender()) */\n      and\n        /* \"contracts/MasterChefOperator.sol\":15061:15065  role */\n      dup4\n        /* \"contracts/MasterChefOperator.sol\":15049:15089  RoleGranted(role, account, _msgSender()) */\n      0x2f8788117e7eff1d82e926ec794901d17c78024a50270940304540a733656f0d\n      mload(0x40)\n      mload(0x40)\n      dup1\n      swap2\n      sub\n      swap1\n      log4\n        /* \"contracts/MasterChefOperator.sol\":14879:15108  function _grantRole(bytes32 role, address account) private {\r... */\n      pop\n      pop\n      jump\t// out\n        /* \"contracts/MasterChefOperator.sol\":15116:15346  function _revokeRole(bytes32 role, address account) private {\r... */\n    tag_207:\n        /* \"contracts/MasterChefOperator.sol\":15191:15213  hasRole(role, account) */\n      tag_391\n        /* \"contracts/MasterChefOperator.sol\":15199:15203  role */\n      dup3\n        /* \"contracts/MasterChefOperator.sol\":15205:15212  account */\n      dup3\n        /* \"contracts/MasterChefOperator.sol\":15191:15198  hasRole */\n      tag_128\n        /* \"contracts/MasterChefOperator.sol\":15191:15213  hasRole(role, account) */\n      jump\t// in\n    tag_391:\n        /* \"contracts/MasterChefOperator.sol\":15187:15339  if (hasRole(role, account)) {\r... */\n      iszero\n      tag_206\n      jumpi\n        /* \"contracts/MasterChefOperator.sol\":15262:15267  false */\n      0x00\n        /* \"contracts/MasterChefOperator.sol\":15230:15242  _roles[role] */\n      dup3\n      dup2\n      mstore\n      0x20\n      dup2\n      dup2\n      mstore\n      0x40\n      dup1\n      dup4\n      keccak256\n      sub(shl(0xa0, 0x01), 0x01)\n        /* \"contracts/MasterChefOperator.sol\":15230:15259  _roles[role].members[account] */\n      dup6\n      and\n      dup1\n      dup6\n      mstore\n      swap3\n      mstore\n      dup1\n      dup4\n      keccak256\n        /* \"contracts/MasterChefOperator.sol\":15230:15267  _roles[role].members[account] = false */\n      dup1\n      sload\n      not(0xff)\n      and\n      swap1\n      sstore\n        /* \"contracts/MasterChefOperator.sol\":15287:15327  RoleRevoked(role, account, _msgSender()) */\n      mload\n        /* \"contracts/MasterChefOperator.sol\":4026:4036  msg.sender */\n      caller\n      swap3\n        /* \"contracts/MasterChefOperator.sol\":15230:15242  _roles[role] */\n      dup6\n      swap2\n        /* \"contracts/MasterChefOperator.sol\":15287:15327  RoleRevoked(role, account, _msgSender()) */\n      0xf6391f5c32d9c69d2a47ea670b442974b53935d1edc7fd64eb21e047a839171b\n      swap2\n        /* \"contracts/MasterChefOperator.sol\":15262:15267  false */\n      swap1\n        /* \"contracts/MasterChefOperator.sol\":15287:15327  RoleRevoked(role, account, _msgSender()) */\n      log4\n        /* \"contracts/MasterChefOperator.sol\":15116:15346  function _revokeRole(bytes32 role, address account) private {\r... */\n      pop\n      pop\n      jump\t// out\n        /* \"contracts/MasterChefOperator.sol\":25574:25705  function add(UintSet storage set, uint256 value) internal returns (bool) {\r... */\n    tag_223:\n        /* \"contracts/MasterChefOperator.sol\":25641:25645  bool */\n      0x00\n        /* \"contracts/MasterChefOperator.sol\":25665:25697  _add(set._inner, bytes32(value)) */\n      tag_395\n        /* \"contracts/MasterChefOperator.sol\":25670:25673  set */\n      dup4\n        /* \"contracts/MasterChefOperator.sol\":25690:25695  value */\n      dup4\n        /* \"contracts/MasterChefOperator.sol\":25665:25669  _add */\n      tag_396\n        /* \"contracts/MasterChefOperator.sol\":25665:25697  _add(set._inner, bytes32(value)) */\n      jump\t// in\n    tag_395:\n        /* \"contracts/MasterChefOperator.sol\":25658:25697  return _add(set._inner, bytes32(value)) */\n      swap4\n        /* \"contracts/MasterChefOperator.sol\":25574:25705  function add(UintSet storage set, uint256 value) internal returns (bool) {\r... */\n      swap3\n      pop\n      pop\n      pop\n      jump\t// out\n        /* \"contracts/MasterChefOperator.sol\":27491:27754  function values(UintSet storage set) internal view returns (uint256[] memory) {\r... */\n    tag_279:\n        /* \"contracts/MasterChefOperator.sol\":27551:27567  uint256[] memory */\n      0x60\n        /* \"contracts/MasterChefOperator.sol\":27580:27602  bytes32[] memory store */\n      0x00\n        /* \"contracts/MasterChefOperator.sol\":27605:27624  _values(set._inner) */\n      tag_395\n        /* \"contracts/MasterChefOperator.sol\":27613:27616  set */\n      dup4\n        /* \"contracts/MasterChefOperator.sol\":27605:27612  _values */\n      tag_399\n        /* \"contracts/MasterChefOperator.sol\":27605:27624  _values(set._inner) */\n      jump\t// in\n        /* \"contracts/MasterChefOperator.sol\":42487:43661  function queueFarmModifications(uint256 eta) internal {\r... */\n    tag_338:\n        /* \"contracts/MasterChefOperator.sol\":42552:42590  FarmModification[] storage farmEditTxs */\n      0x00\n        /* \"contracts/MasterChefOperator.sol\":42593:42615  farmModifications[eta] */\n      dup2\n      dup2\n      mstore\n        /* \"contracts/MasterChefOperator.sol\":42593:42610  farmModifications */\n      0x02\n        /* \"contracts/MasterChefOperator.sol\":42593:42615  farmModifications[eta] */\n      0x20\n      mstore\n      0x40\n      dup2\n      keccak256\n      swap1\n        /* \"contracts/MasterChefOperator.sol\":42626:43111  for (uint256 i = 0; i < farmEditTxs.length; i++) {\r... */\n    tag_401:\n        /* \"contracts/MasterChefOperator.sol\":42650:42668  farmEditTxs.length */\n      dup2\n      sload\n        /* \"contracts/MasterChefOperator.sol\":42646:42668  i < farmEditTxs.length */\n      dup2\n      lt\n        /* \"contracts/MasterChefOperator.sol\":42626:43111  for (uint256 i = 0; i < farmEditTxs.length; i++) {\r... */\n      iszero\n      tag_402\n      jumpi\n        /* \"contracts/MasterChefOperator.sol\":42690:42698  timelock */\n      immutable(\"0xe02cb3fdbbd2afb9a2d9b64c3250fe005c3b9649f25fb61eaba0b1e1e4ff8734\")\n      sub(shl(0xa0, 0x01), 0x01)\n        /* \"contracts/MasterChefOperator.sol\":42690:42715  timelock.queueTransaction */\n      and\n      0x3a66f901\n        /* \"contracts/MasterChefOperator.sol\":42734:42744  masterChef */\n      immutable(\"0x07ac0c5d8088a739bcb4908eb6aa67ad83c795ff92b205d9f57b6d07690f5cbf\")\n        /* \"contracts/MasterChefOperator.sol\":42763:42764  0 */\n      0x00\n        /* \"contracts/MasterChefOperator.sol\":42870:42881  farmEditTxs */\n      dup6\n        /* \"contracts/MasterChefOperator.sol\":42882:42883  i */\n      dup6\n        /* \"contracts/MasterChefOperator.sol\":42870:42884  farmEditTxs[i] */\n      dup2\n      sload\n      dup2\n      lt\n      tag_405\n      jumpi\n      tag_405\n      tag_233\n      jump\t// in\n    tag_405:\n      swap1\n      0x00\n      mstore\n      keccak256(0x00, 0x20)\n      swap1\n      0x03\n      mul\n      add\n        /* \"contracts/MasterChefOperator.sol\":42870:42888  farmEditTxs[i].pid */\n      0x00\n      add\n      sload\n        /* \"contracts/MasterChefOperator.sol\":42911:42922  farmEditTxs */\n      dup7\n        /* \"contracts/MasterChefOperator.sol\":42923:42924  i */\n      dup7\n        /* \"contracts/MasterChefOperator.sol\":42911:42925  farmEditTxs[i] */\n      dup2\n      sload\n      dup2\n      lt\n      tag_408\n      jumpi\n      tag_408\n      tag_233\n      jump\t// in\n    tag_408:\n      swap1\n      0x00\n      mstore\n      keccak256(0x00, 0x20)\n      swap1\n      0x03\n      mul\n      add\n        /* \"contracts/MasterChefOperator.sol\":42911:42942  farmEditTxs[i].allocationPoints */\n      0x01\n      add\n      sload\n        /* \"contracts/MasterChefOperator.sol\":42965:42976  farmEditTxs */\n      dup8\n        /* \"contracts/MasterChefOperator.sol\":42977:42978  i */\n      dup8\n        /* \"contracts/MasterChefOperator.sol\":42965:42979  farmEditTxs[i] */\n      dup2\n      sload\n      dup2\n      lt\n      tag_411\n      jumpi\n      tag_411\n      tag_233\n      jump\t// in\n    tag_411:\n      swap1\n      0x00\n      mstore\n      keccak256(0x00, 0x20)\n      swap1\n      0x03\n      mul\n      add\n        /* \"contracts/MasterChefOperator.sol\":42965:42988  farmEditTxs[i].rewarder */\n      0x02\n      add\n      0x00\n      swap1\n      sload\n      swap1\n      0x0100\n      exp\n      swap1\n      div\n      sub(shl(0xa0, 0x01), 0x01)\n      and\n        /* \"contracts/MasterChefOperator.sol\":43011:43022  farmEditTxs */\n      dup9\n        /* \"contracts/MasterChefOperator.sol\":43023:43024  i */\n      dup9\n        /* \"contracts/MasterChefOperator.sol\":43011:43025  farmEditTxs[i] */\n      dup2\n      sload\n      dup2\n      lt\n      tag_414\n      jumpi\n      tag_414\n      tag_233\n      jump\t// in\n    tag_414:\n      swap1\n      0x00\n      mstore\n      keccak256(0x00, 0x20)\n      swap1\n      0x03\n      mul\n      add\n        /* \"contracts/MasterChefOperator.sol\":43011:43043  farmEditTxs[i].overwriteRewarder */\n      0x02\n      add\n      0x14\n      swap1\n      sload\n      swap1\n      0x0100\n      exp\n      swap1\n      div\n      0xff\n      and\n        /* \"contracts/MasterChefOperator.sol\":42837:43062  abi.encode(\r... */\n      add(0x20, mload(0x40))\n      tag_416\n      swap5\n      swap4\n      swap3\n      swap2\n      swap1\n      tag_110\n      jump\t// in\n    tag_416:\n      mload(0x40)\n      0x20\n      dup2\n      dup4\n      sub\n      sub\n      dup2\n      mstore\n      swap1\n      0x40\n      mstore\n        /* \"contracts/MasterChefOperator.sol\":43081:43084  eta */\n      dup8\n        /* \"contracts/MasterChefOperator.sol\":42690:43099  timelock.queueTransaction(\r... */\n      mload(0x40)\n      dup6\n      0xffffffff\n      and\n      0xe0\n      shl\n      dup2\n      mstore\n      0x04\n      add\n      tag_417\n      swap5\n      swap4\n      swap3\n      swap2\n      swap1\n      tag_418\n      jump\t// in\n    tag_417:\n      0x20\n      mload(0x40)\n      dup1\n      dup4\n      sub\n      dup2\n      0x00\n      dup8\n      dup1\n      extcodesize\n      iszero\n      dup1\n      iszero\n      tag_419\n      jumpi\n      0x00\n      dup1\n      revert\n    tag_419:\n      pop\n      gas\n      call\n      iszero\n      dup1\n      iszero\n      tag_421\n      jumpi\n      returndatasize\n      0x00\n      dup1\n      returndatacopy\n      revert(0x00, returndatasize)\n    tag_421:\n      pop\n      pop\n      pop\n      pop\n      mload(0x40)\n      returndatasize\n      not(0x1f)\n      0x1f\n      dup3\n      add\n      and\n      dup3\n      add\n      dup1\n      0x40\n      mstore\n      pop\n      dup2\n      add\n      swap1\n      tag_422\n      swap2\n      swap1\n      tag_217\n      jump\t// in\n    tag_422:\n      pop\n        /* \"contracts/MasterChefOperator.sol\":42670:42673  i++ */\n      dup1\n      tag_423\n      dup2\n      tag_238\n      jump\t// in\n    tag_423:\n      swap2\n      pop\n      pop\n        /* \"contracts/MasterChefOperator.sol\":42626:43111  for (uint256 i = 0; i < farmEditTxs.length; i++) {\r... */\n      jump(tag_401)\n    tag_402:\n      pop\n        /* \"contracts/MasterChefOperator.sol\":43121:43154  FarmAddition[] storage farmAddTxs */\n      0x00\n        /* \"contracts/MasterChefOperator.sol\":43157:43175  farmAdditions[eta] */\n      dup3\n      dup2\n      mstore\n        /* \"contracts/MasterChefOperator.sol\":43157:43170  farmAdditions */\n      0x01\n        /* \"contracts/MasterChefOperator.sol\":43157:43175  farmAdditions[eta] */\n      0x20\n      mstore\n      0x40\n      dup2\n      keccak256\n      swap1\n        /* \"contracts/MasterChefOperator.sol\":43186:43611  for (uint256 i = 0; i < farmAddTxs.length; i++) {\r... */\n    tag_424:\n        /* \"contracts/MasterChefOperator.sol\":43210:43227  farmAddTxs.length */\n      dup2\n      sload\n        /* \"contracts/MasterChefOperator.sol\":43206:43227  i < farmAddTxs.length */\n      dup2\n      lt\n        /* \"contracts/MasterChefOperator.sol\":43186:43611  for (uint256 i = 0; i < farmAddTxs.length; i++) {\r... */\n      iszero\n      tag_425\n      jumpi\n        /* \"contracts/MasterChefOperator.sol\":43249:43257  timelock */\n      immutable(\"0xe02cb3fdbbd2afb9a2d9b64c3250fe005c3b9649f25fb61eaba0b1e1e4ff8734\")\n      sub(shl(0xa0, 0x01), 0x01)\n        /* \"contracts/MasterChefOperator.sol\":43249:43274  timelock.queueTransaction */\n      and\n      0x3a66f901\n        /* \"contracts/MasterChefOperator.sol\":43293:43303  masterChef */\n      immutable(\"0x07ac0c5d8088a739bcb4908eb6aa67ad83c795ff92b205d9f57b6d07690f5cbf\")\n        /* \"contracts/MasterChefOperator.sol\":43322:43323  0 */\n      0x00\n        /* \"contracts/MasterChefOperator.sol\":43424:43434  farmAddTxs */\n      dup6\n        /* \"contracts/MasterChefOperator.sol\":43435:43436  i */\n      dup6\n        /* \"contracts/MasterChefOperator.sol\":43424:43437  farmAddTxs[i] */\n      dup2\n      sload\n      dup2\n      lt\n      tag_428\n      jumpi\n      tag_428\n      tag_233\n      jump\t// in\n    tag_428:\n      swap1\n      0x00\n      mstore\n      keccak256(0x00, 0x20)\n      swap1\n      0x03\n      mul\n      add\n        /* \"contracts/MasterChefOperator.sol\":43424:43454  farmAddTxs[i].allocationPoints */\n      0x01\n      add\n      sload\n        /* \"contracts/MasterChefOperator.sol\":43477:43487  farmAddTxs */\n      dup7\n        /* \"contracts/MasterChefOperator.sol\":43488:43489  i */\n      dup7\n        /* \"contracts/MasterChefOperator.sol\":43477:43490  farmAddTxs[i] */\n      dup2\n      sload\n      dup2\n      lt\n      tag_431\n      jumpi\n      tag_431\n      tag_233\n      jump\t// in\n    tag_431:\n      0x00\n      swap2\n      dup3\n      mstore\n      0x20\n      swap1\n      swap2\n      keccak256\n      0x03\n      swap1\n      swap2\n      mul\n      add\n        /* \"contracts/MasterChefOperator.sol\":43477:43498  farmAddTxs[i].lpToken */\n      sload\n        /* \"contracts/MasterChefOperator.sol\":43521:43534  farmAddTxs[i] */\n      dup8\n      sload\n      sub(shl(0xa0, 0x01), 0x01)\n        /* \"contracts/MasterChefOperator.sol\":43477:43498  farmAddTxs[i].lpToken */\n      swap1\n      swap2\n      and\n      swap1\n        /* \"contracts/MasterChefOperator.sol\":43521:43531  farmAddTxs */\n      dup9\n      swap1\n        /* \"contracts/MasterChefOperator.sol\":43532:43533  i */\n      dup9\n      swap1\n        /* \"contracts/MasterChefOperator.sol\":43521:43534  farmAddTxs[i] */\n      dup2\n      lt\n      tag_434\n      jumpi\n      tag_434\n      tag_233\n      jump\t// in\n    tag_434:\n      0x00\n      swap2\n      dup3\n      mstore\n      0x20\n      swap2\n      dup3\n      swap1\n      keccak256\n        /* \"contracts/MasterChefOperator.sol\":43521:43543  farmAddTxs[i].rewarder */\n      0x02\n        /* \"contracts/MasterChefOperator.sol\":43521:43534  farmAddTxs[i] */\n      0x03\n      swap1\n      swap3\n      mul\n      add\n        /* \"contracts/MasterChefOperator.sol\":43521:43543  farmAddTxs[i].rewarder */\n      add\n      sload\n        /* \"contracts/MasterChefOperator.sol\":43391:43562  abi.encode(\r... */\n      mload(0x40)\n      tag_436\n      swap5\n      swap4\n      swap3\n      sub(shl(0xa0, 0x01), 0x01)\n        /* \"contracts/MasterChefOperator.sol\":43521:43543  farmAddTxs[i].rewarder */\n      swap1\n      swap3\n      and\n      swap2\n        /* \"contracts/MasterChefOperator.sol\":43391:43562  abi.encode(\r... */\n      add\n        /* \"#utility.yul\":17336:17361   */\n      swap3\n      dup4\n      mstore\n      sub(shl(0xa0, 0x01), 0x01)\n        /* \"#utility.yul\":17435:17450   */\n      swap2\n      dup3\n      and\n        /* \"#utility.yul\":17430:17432   */\n      0x20\n        /* \"#utility.yul\":17415:17433   */\n      dup5\n      add\n        /* \"#utility.yul\":17408:17451   */\n      mstore\n        /* \"#utility.yul\":17487:17502   */\n      and\n        /* \"#utility.yul\":17482:17484   */\n      0x40\n        /* \"#utility.yul\":17467:17485   */\n      dup3\n      add\n        /* \"#utility.yul\":17460:17503   */\n      mstore\n        /* \"#utility.yul\":17324:17326   */\n      0x60\n        /* \"#utility.yul\":17309:17327   */\n      add\n      swap1\n        /* \"#utility.yul\":17102:17509   */\n      jump\n        /* \"contracts/MasterChefOperator.sol\":43391:43562  abi.encode(\r... */\n    tag_436:\n      mload(0x40)\n      0x20\n      dup2\n      dup4\n      sub\n      sub\n      dup2\n      mstore\n      swap1\n      0x40\n      mstore\n        /* \"contracts/MasterChefOperator.sol\":43581:43584  eta */\n      dup9\n        /* \"contracts/MasterChefOperator.sol\":43249:43599  timelock.queueTransaction(\r... */\n      mload(0x40)\n      dup6\n      0xffffffff\n      and\n      0xe0\n      shl\n      dup2\n      mstore\n      0x04\n      add\n      tag_438\n      swap5\n      swap4\n      swap3\n      swap2\n      swap1\n      tag_439\n      jump\t// in\n    tag_438:\n      0x20\n      mload(0x40)\n      dup1\n      dup4\n      sub\n      dup2\n      0x00\n      dup8\n      dup1\n      extcodesize\n      iszero\n      dup1\n      iszero\n      tag_440\n      jumpi\n      0x00\n      dup1\n      revert\n    tag_440:\n      pop\n      gas\n      call\n      iszero\n      dup1\n      iszero\n      tag_442\n      jumpi\n      returndatasize\n      0x00\n      dup1\n      returndatacopy\n      revert(0x00, returndatasize)\n    tag_442:\n      pop\n      pop\n      pop\n      pop\n      mload(0x40)\n      returndatasize\n      not(0x1f)\n      0x1f\n      dup3\n      add\n      and\n      dup3\n      add\n      dup1\n      0x40\n      mstore\n      pop\n      dup2\n      add\n      swap1\n      tag_443\n      swap2\n      swap1\n      tag_217\n      jump\t// in\n    tag_443:\n      pop\n        /* \"contracts/MasterChefOperator.sol\":43229:43232  i++ */\n      dup1\n      tag_444\n      dup2\n      tag_238\n      jump\t// in\n    tag_444:\n      swap2\n      pop\n      pop\n        /* \"contracts/MasterChefOperator.sol\":43186:43611  for (uint256 i = 0; i < farmAddTxs.length; i++) {\r... */\n      jump(tag_424)\n    tag_425:\n      pop\n      pop\n      pop\n        /* \"contracts/MasterChefOperator.sol\":43623:43646  usedFarmChangeEtas[eta] */\n      0x00\n      swap1\n      dup2\n      mstore\n        /* \"contracts/MasterChefOperator.sol\":43623:43641  usedFarmChangeEtas */\n      0x03\n        /* \"contracts/MasterChefOperator.sol\":43623:43646  usedFarmChangeEtas[eta] */\n      0x20\n      mstore\n      0x40\n      swap1\n      keccak256\n        /* \"contracts/MasterChefOperator.sol\":43623:43653  usedFarmChangeEtas[eta] = true */\n      dup1\n      sload\n      not(0xff)\n      and\n        /* \"contracts/MasterChefOperator.sol\":43649:43653  true */\n      0x01\n        /* \"contracts/MasterChefOperator.sol\":43623:43653  usedFarmChangeEtas[eta] = true */\n      or\n      swap1\n      sstore\n        /* \"contracts/MasterChefOperator.sol\":42487:43661  function queueFarmModifications(uint256 eta) internal {\r... */\n      jump\t// out\n        /* \"contracts/MasterChefOperator.sol\":43669:44808  function executeFarmModifications(uint256 eta) internal {\r... */\n    tag_341:\n        /* \"contracts/MasterChefOperator.sol\":43736:43774  FarmModification[] storage farmEditTxs */\n      0x00\n        /* \"contracts/MasterChefOperator.sol\":43777:43799  farmModifications[eta] */\n      dup2\n      dup2\n      mstore\n        /* \"contracts/MasterChefOperator.sol\":43777:43794  farmModifications */\n      0x02\n        /* \"contracts/MasterChefOperator.sol\":43777:43799  farmModifications[eta] */\n      0x20\n      mstore\n      0x40\n      dup2\n      keccak256\n      swap1\n        /* \"contracts/MasterChefOperator.sol\":43810:44297  for (uint256 i = 0; i < farmEditTxs.length; i++) {\r... */\n    tag_446:\n        /* \"contracts/MasterChefOperator.sol\":43834:43852  farmEditTxs.length */\n      dup2\n      sload\n        /* \"contracts/MasterChefOperator.sol\":43830:43852  i < farmEditTxs.length */\n      dup2\n      lt\n        /* \"contracts/MasterChefOperator.sol\":43810:44297  for (uint256 i = 0; i < farmEditTxs.length; i++) {\r... */\n      iszero\n      tag_447\n      jumpi\n        /* \"contracts/MasterChefOperator.sol\":43874:43882  timelock */\n      immutable(\"0xe02cb3fdbbd2afb9a2d9b64c3250fe005c3b9649f25fb61eaba0b1e1e4ff8734\")\n      sub(shl(0xa0, 0x01), 0x01)\n        /* \"contracts/MasterChefOperator.sol\":43874:43901  timelock.executeTransaction */\n      and\n      0x0825f38f\n        /* \"contracts/MasterChefOperator.sol\":43920:43930  masterChef */\n      immutable(\"0x07ac0c5d8088a739bcb4908eb6aa67ad83c795ff92b205d9f57b6d07690f5cbf\")\n        /* \"contracts/MasterChefOperator.sol\":43949:43950  0 */\n      0x00\n        /* \"contracts/MasterChefOperator.sol\":44056:44067  farmEditTxs */\n      dup6\n        /* \"contracts/MasterChefOperator.sol\":44068:44069  i */\n      dup6\n        /* \"contracts/MasterChefOperator.sol\":44056:44070  farmEditTxs[i] */\n      dup2\n      sload\n      dup2\n      lt\n      tag_450\n      jumpi\n      tag_450\n      tag_233\n      jump\t// in\n    tag_450:\n      swap1\n      0x00\n      mstore\n      keccak256(0x00, 0x20)\n      swap1\n      0x03\n      mul\n      add\n        /* \"contracts/MasterChefOperator.sol\":44056:44074  farmEditTxs[i].pid */\n      0x00\n      add\n      sload\n        /* \"contracts/MasterChefOperator.sol\":44097:44108  farmEditTxs */\n      dup7\n        /* \"contracts/MasterChefOperator.sol\":44109:44110  i */\n      dup7\n        /* \"contracts/MasterChefOperator.sol\":44097:44111  farmEditTxs[i] */\n      dup2\n      sload\n      dup2\n      lt\n      tag_453\n      jumpi\n      tag_453\n      tag_233\n      jump\t// in\n    tag_453:\n      swap1\n      0x00\n      mstore\n      keccak256(0x00, 0x20)\n      swap1\n      0x03\n      mul\n      add\n        /* \"contracts/MasterChefOperator.sol\":44097:44128  farmEditTxs[i].allocationPoints */\n      0x01\n      add\n      sload\n        /* \"contracts/MasterChefOperator.sol\":44151:44162  farmEditTxs */\n      dup8\n        /* \"contracts/MasterChefOperator.sol\":44163:44164  i */\n      dup8\n        /* \"contracts/MasterChefOperator.sol\":44151:44165  farmEditTxs[i] */\n      dup2\n      sload\n      dup2\n      lt\n      tag_456\n      jumpi\n      tag_456\n      tag_233\n      jump\t// in\n    tag_456:\n      swap1\n      0x00\n      mstore\n      keccak256(0x00, 0x20)\n      swap1\n      0x03\n      mul\n      add\n        /* \"contracts/MasterChefOperator.sol\":44151:44174  farmEditTxs[i].rewarder */\n      0x02\n      add\n      0x00\n      swap1\n      sload\n      swap1\n      0x0100\n      exp\n      swap1\n      div\n      sub(shl(0xa0, 0x01), 0x01)\n      and\n        /* \"contracts/MasterChefOperator.sol\":44197:44208  farmEditTxs */\n      dup9\n        /* \"contracts/MasterChefOperator.sol\":44209:44210  i */\n      dup9\n        /* \"contracts/MasterChefOperator.sol\":44197:44211  farmEditTxs[i] */\n      dup2\n      sload\n      dup2\n      lt\n      tag_459\n      jumpi\n      tag_459\n      tag_233\n      jump\t// in\n    tag_459:\n      swap1\n      0x00\n      mstore\n      keccak256(0x00, 0x20)\n      swap1\n      0x03\n      mul\n      add\n        /* \"contracts/MasterChefOperator.sol\":44197:44229  farmEditTxs[i].overwriteRewarder */\n      0x02\n      add\n      0x14\n      swap1\n      sload\n      swap1\n      0x0100\n      exp\n      swap1\n      div\n      0xff\n      and\n        /* \"contracts/MasterChefOperator.sol\":44023:44248  abi.encode(\r... */\n      add(0x20, mload(0x40))\n      tag_461\n      swap5\n      swap4\n      swap3\n      swap2\n      swap1\n      tag_110\n      jump\t// in\n    tag_461:\n      mload(0x40)\n      0x20\n      dup2\n      dup4\n      sub\n      sub\n      dup2\n      mstore\n      swap1\n      0x40\n      mstore\n        /* \"contracts/MasterChefOperator.sol\":44267:44270  eta */\n      dup8\n        /* \"contracts/MasterChefOperator.sol\":43874:44285  timelock.executeTransaction(\r... */\n      mload(0x40)\n      dup6\n      0xffffffff\n      and\n      0xe0\n      shl\n      dup2\n      mstore\n      0x04\n      add\n      tag_462\n      swap5\n      swap4\n      swap3\n      swap2\n      swap1\n      tag_418\n      jump\t// in\n    tag_462:\n      0x00\n      mload(0x40)\n      dup1\n      dup4\n      sub\n      dup2\n      0x00\n      dup8\n      dup1\n      extcodesize\n      iszero\n      dup1\n      iszero\n      tag_463\n      jumpi\n      0x00\n      dup1\n      revert\n    tag_463:\n      pop\n      gas\n      call\n      iszero\n      dup1\n      iszero\n      tag_465\n      jumpi\n      returndatasize\n      0x00\n      dup1\n      returndatacopy\n      revert(0x00, returndatasize)\n    tag_465:\n      pop\n      pop\n      pop\n      pop\n      mload(0x40)\n      returndatasize\n      0x00\n      dup3\n      returndatacopy\n      0x1f\n      returndatasize\n      swap1\n      dup2\n      add\n      not(0x1f)\n      and\n      dup3\n      add\n      0x40\n      mstore\n      tag_466\n      swap2\n      swap1\n      dup2\n      add\n      swap1\n      tag_188\n      jump\t// in\n    tag_466:\n      pop\n        /* \"contracts/MasterChefOperator.sol\":43854:43857  i++ */\n      dup1\n      tag_467\n      dup2\n      tag_238\n      jump\t// in\n    tag_467:\n      swap2\n      pop\n      pop\n        /* \"contracts/MasterChefOperator.sol\":43810:44297  for (uint256 i = 0; i < farmEditTxs.length; i++) {\r... */\n      jump(tag_446)\n    tag_447:\n      pop\n        /* \"contracts/MasterChefOperator.sol\":44309:44342  FarmAddition[] storage farmAddTxs */\n      0x00\n        /* \"contracts/MasterChefOperator.sol\":44345:44363  farmAdditions[eta] */\n      dup3\n      dup2\n      mstore\n        /* \"contracts/MasterChefOperator.sol\":44345:44358  farmAdditions */\n      0x01\n        /* \"contracts/MasterChefOperator.sol\":44345:44363  farmAdditions[eta] */\n      0x20\n      mstore\n      0x40\n      dup2\n      keccak256\n      swap1\n        /* \"contracts/MasterChefOperator.sol\":44374:44801  for (uint256 i = 0; i < farmAddTxs.length; i++) {\r... */\n    tag_468:\n        /* \"contracts/MasterChefOperator.sol\":44398:44415  farmAddTxs.length */\n      dup2\n      sload\n        /* \"contracts/MasterChefOperator.sol\":44394:44415  i < farmAddTxs.length */\n      dup2\n      lt\n        /* \"contracts/MasterChefOperator.sol\":44374:44801  for (uint256 i = 0; i < farmAddTxs.length; i++) {\r... */\n      iszero\n      tag_270\n      jumpi\n        /* \"contracts/MasterChefOperator.sol\":44437:44445  timelock */\n      immutable(\"0xe02cb3fdbbd2afb9a2d9b64c3250fe005c3b9649f25fb61eaba0b1e1e4ff8734\")\n      sub(shl(0xa0, 0x01), 0x01)\n        /* \"contracts/MasterChefOperator.sol\":44437:44464  timelock.executeTransaction */\n      and\n      0x0825f38f\n        /* \"contracts/MasterChefOperator.sol\":44483:44493  masterChef */\n      immutable(\"0x07ac0c5d8088a739bcb4908eb6aa67ad83c795ff92b205d9f57b6d07690f5cbf\")\n        /* \"contracts/MasterChefOperator.sol\":44512:44513  0 */\n      0x00\n        /* \"contracts/MasterChefOperator.sol\":44614:44624  farmAddTxs */\n      dup6\n        /* \"contracts/MasterChefOperator.sol\":44625:44626  i */\n      dup6\n        /* \"contracts/MasterChefOperator.sol\":44614:44627  farmAddTxs[i] */\n      dup2\n      sload\n      dup2\n      lt\n      tag_472\n      jumpi\n      tag_472\n      tag_233\n      jump\t// in\n    tag_472:\n      swap1\n      0x00\n      mstore\n      keccak256(0x00, 0x20)\n      swap1\n      0x03\n      mul\n      add\n        /* \"contracts/MasterChefOperator.sol\":44614:44644  farmAddTxs[i].allocationPoints */\n      0x01\n      add\n      sload\n        /* \"contracts/MasterChefOperator.sol\":44667:44677  farmAddTxs */\n      dup7\n        /* \"contracts/MasterChefOperator.sol\":44678:44679  i */\n      dup7\n        /* \"contracts/MasterChefOperator.sol\":44667:44680  farmAddTxs[i] */\n      dup2\n      sload\n      dup2\n      lt\n      tag_475\n      jumpi\n      tag_475\n      tag_233\n      jump\t// in\n    tag_475:\n      0x00\n      swap2\n      dup3\n      mstore\n      0x20\n      swap1\n      swap2\n      keccak256\n      0x03\n      swap1\n      swap2\n      mul\n      add\n        /* \"contracts/MasterChefOperator.sol\":44667:44688  farmAddTxs[i].lpToken */\n      sload\n        /* \"contracts/MasterChefOperator.sol\":44711:44724  farmAddTxs[i] */\n      dup8\n      sload\n      sub(shl(0xa0, 0x01), 0x01)\n        /* \"contracts/MasterChefOperator.sol\":44667:44688  farmAddTxs[i].lpToken */\n      swap1\n      swap2\n      and\n      swap1\n        /* \"contracts/MasterChefOperator.sol\":44711:44721  farmAddTxs */\n      dup9\n      swap1\n        /* \"contracts/MasterChefOperator.sol\":44722:44723  i */\n      dup9\n      swap1\n        /* \"contracts/MasterChefOperator.sol\":44711:44724  farmAddTxs[i] */\n      dup2\n      lt\n      tag_478\n      jumpi\n      tag_478\n      tag_233\n      jump\t// in\n    tag_478:\n      0x00\n      swap2\n      dup3\n      mstore\n      0x20\n      swap2\n      dup3\n      swap1\n      keccak256\n        /* \"contracts/MasterChefOperator.sol\":44711:44733  farmAddTxs[i].rewarder */\n      0x02\n        /* \"contracts/MasterChefOperator.sol\":44711:44724  farmAddTxs[i] */\n      0x03\n      swap1\n      swap3\n      mul\n      add\n        /* \"contracts/MasterChefOperator.sol\":44711:44733  farmAddTxs[i].rewarder */\n      add\n      sload\n        /* \"contracts/MasterChefOperator.sol\":44581:44752  abi.encode(\r... */\n      mload(0x40)\n      tag_480\n      swap5\n      swap4\n      swap3\n      sub(shl(0xa0, 0x01), 0x01)\n        /* \"contracts/MasterChefOperator.sol\":44711:44733  farmAddTxs[i].rewarder */\n      swap1\n      swap3\n      and\n      swap2\n        /* \"contracts/MasterChefOperator.sol\":44581:44752  abi.encode(\r... */\n      add\n        /* \"#utility.yul\":17336:17361   */\n      swap3\n      dup4\n      mstore\n      sub(shl(0xa0, 0x01), 0x01)\n        /* \"#utility.yul\":17435:17450   */\n      swap2\n      dup3\n      and\n        /* \"#utility.yul\":17430:17432   */\n      0x20\n        /* \"#utility.yul\":17415:17433   */\n      dup5\n      add\n        /* \"#utility.yul\":17408:17451   */\n      mstore\n        /* \"#utility.yul\":17487:17502   */\n      and\n        /* \"#utility.yul\":17482:17484   */\n      0x40\n        /* \"#utility.yul\":17467:17485   */\n      dup3\n      add\n        /* \"#utility.yul\":17460:17503   */\n      mstore\n        /* \"#utility.yul\":17324:17326   */\n      0x60\n        /* \"#utility.yul\":17309:17327   */\n      add\n      swap1\n        /* \"#utility.yul\":17102:17509   */\n      jump\n        /* \"contracts/MasterChefOperator.sol\":44581:44752  abi.encode(\r... */\n    tag_480:\n      mload(0x40)\n      0x20\n      dup2\n      dup4\n      sub\n      sub\n      dup2\n      mstore\n      swap1\n      0x40\n      mstore\n        /* \"contracts/MasterChefOperator.sol\":44771:44774  eta */\n      dup9\n        /* \"contracts/MasterChefOperator.sol\":44437:44789  timelock.executeTransaction(\r... */\n      mload(0x40)\n      dup6\n      0xffffffff\n      and\n      0xe0\n      shl\n      dup2\n      mstore\n      0x04\n      add\n      tag_481\n      swap5\n      swap4\n      swap3\n      swap2\n      swap1\n      tag_439\n      jump\t// in\n    tag_481:\n      0x00\n      mload(0x40)\n      dup1\n      dup4\n      sub\n      dup2\n      0x00\n      dup8\n      dup1\n      extcodesize\n      iszero\n      dup1\n      iszero\n      tag_482\n      jumpi\n      0x00\n      dup1\n      revert\n    tag_482:\n      pop\n      gas\n      call\n      iszero\n      dup1\n      iszero\n      tag_484\n      jumpi\n      returndatasize\n      0x00\n      dup1\n      returndatacopy\n      revert(0x00, returndatasize)\n    tag_484:\n      pop\n      pop\n      pop\n      pop\n      mload(0x40)\n      returndatasize\n      0x00\n      dup3\n      returndatacopy\n      0x1f\n      returndatasize\n      swap1\n      dup2\n      add\n      not(0x1f)\n      and\n      dup3\n      add\n      0x40\n      mstore\n      tag_485\n      swap2\n      swap1\n      dup2\n      add\n      swap1\n      tag_188\n      jump\t// in\n    tag_485:\n      pop\n        /* \"contracts/MasterChefOperator.sol\":44417:44420  i++ */\n      dup1\n      tag_486\n      dup2\n      tag_238\n      jump\t// in\n    tag_486:\n      swap2\n      pop\n      pop\n        /* \"contracts/MasterChefOperator.sol\":44374:44801  for (uint256 i = 0; i < farmAddTxs.length; i++) {\r... */\n      jump(tag_468)\n        /* \"contracts/MasterChefOperator.sol\":37581:38032  function toHexString(uint256 value, uint256 length) internal pure returns (string memory) {\r... */\n    tag_380:\n        /* \"contracts/MasterChefOperator.sol\":37656:37669  string memory */\n      0x60\n        /* \"contracts/MasterChefOperator.sol\":37682:37701  bytes memory buffer */\n      0x00\n        /* \"contracts/MasterChefOperator.sol\":37714:37724  2 * length */\n      tag_488\n        /* \"contracts/MasterChefOperator.sol\":37718:37724  length */\n      dup4\n        /* \"contracts/MasterChefOperator.sol\":37714:37715  2 */\n      0x02\n        /* \"contracts/MasterChefOperator.sol\":37714:37724  2 * length */\n      tag_489\n      jump\t// in\n    tag_488:\n        /* \"contracts/MasterChefOperator.sol\":37714:37728  2 * length + 2 */\n      tag_490\n      swap1\n        /* \"contracts/MasterChefOperator.sol\":37727:37728  2 */\n      0x02\n        /* \"contracts/MasterChefOperator.sol\":37714:37728  2 * length + 2 */\n      tag_491\n      jump\t// in\n    tag_490:\n        /* \"contracts/MasterChefOperator.sol\":37704:37729  new bytes(2 * length + 2) */\n      0xffffffffffffffff\n      dup2\n      gt\n      iszero\n      tag_493\n      jumpi\n      tag_493\n      tag_494\n      jump\t// in\n    tag_493:\n      mload(0x40)\n      swap1\n      dup1\n      dup3\n      mstore\n      dup1\n      0x1f\n      add\n      not(0x1f)\n      and\n      0x20\n      add\n      dup3\n      add\n      0x40\n      mstore\n      dup1\n      iszero\n      tag_495\n      jumpi\n      0x20\n      dup3\n      add\n      dup2\n      dup1\n      calldatasize\n      dup4\n      calldatacopy\n      add\n      swap1\n      pop\n    tag_495:\n      pop\n        /* \"contracts/MasterChefOperator.sol\":37682:37729  bytes memory buffer = new bytes(2 * length + 2) */\n      swap1\n      pop\n      shl(0xfc, 0x03)\n        /* \"contracts/MasterChefOperator.sol\":37740:37746  buffer */\n      dup2\n        /* \"contracts/MasterChefOperator.sol\":37747:37748  0 */\n      0x00\n        /* \"contracts/MasterChefOperator.sol\":37740:37749  buffer[0] */\n      dup2\n      mload\n      dup2\n      lt\n      tag_497\n      jumpi\n      tag_497\n      tag_233\n      jump\t// in\n    tag_497:\n      0x20\n      add\n      add\n        /* \"contracts/MasterChefOperator.sol\":37740:37755  buffer[0] = \"0\" */\n      swap1\n      not(sub(shl(0xf8, 0x01), 0x01))\n      and\n      swap1\n      dup2\n      0x00\n      byte\n      swap1\n      mstore8\n      pop\n      shl(0xfb, 0x0f)\n        /* \"contracts/MasterChefOperator.sol\":37766:37772  buffer */\n      dup2\n        /* \"contracts/MasterChefOperator.sol\":37773:37774  1 */\n      0x01\n        /* \"contracts/MasterChefOperator.sol\":37766:37775  buffer[1] */\n      dup2\n      mload\n      dup2\n      lt\n      tag_499\n      jumpi\n      tag_499\n      tag_233\n      jump\t// in\n    tag_499:\n      0x20\n      add\n      add\n        /* \"contracts/MasterChefOperator.sol\":37766:37781  buffer[1] = \"x\" */\n      swap1\n      not(sub(shl(0xf8, 0x01), 0x01))\n      and\n      swap1\n      dup2\n      0x00\n      byte\n      swap1\n      mstore8\n      pop\n        /* \"contracts/MasterChefOperator.sol\":37797:37806  uint256 i */\n      0x00\n        /* \"contracts/MasterChefOperator.sol\":37809:37819  2 * length */\n      tag_503\n        /* \"contracts/MasterChefOperator.sol\":37813:37819  length */\n      dup5\n        /* \"contracts/MasterChefOperator.sol\":37809:37810  2 */\n      0x02\n        /* \"contracts/MasterChefOperator.sol\":37809:37819  2 * length */\n      tag_489\n      jump\t// in\n    tag_503:\n        /* \"contracts/MasterChefOperator.sol\":37809:37823  2 * length + 1 */\n      tag_504\n      swap1\n        /* \"contracts/MasterChefOperator.sol\":37822:37823  1 */\n      0x01\n        /* \"contracts/MasterChefOperator.sol\":37809:37823  2 * length + 1 */\n      tag_491\n      jump\t// in\n    tag_504:\n        /* \"contracts/MasterChefOperator.sol\":37797:37823  uint256 i = 2 * length + 1 */\n      swap1\n      pop\n        /* \"contracts/MasterChefOperator.sol\":37792:37927  for (uint256 i = 2 * length + 1; i > 1; --i) {\r... */\n    tag_500:\n        /* \"contracts/MasterChefOperator.sol\":37829:37830  1 */\n      0x01\n        /* \"contracts/MasterChefOperator.sol\":37825:37826  i */\n      dup2\n        /* \"contracts/MasterChefOperator.sol\":37825:37830  i > 1 */\n      gt\n        /* \"contracts/MasterChefOperator.sol\":37792:37927  for (uint256 i = 2 * length + 1; i > 1; --i) {\r... */\n      iszero\n      tag_501\n      jumpi\n      shl(0x81, 0x181899199a1a9b1b9c1cb0b131b232b3)\n        /* \"contracts/MasterChefOperator.sol\":37877:37882  value */\n      dup6\n        /* \"contracts/MasterChefOperator.sol\":37885:37888  0xf */\n      0x0f\n        /* \"contracts/MasterChefOperator.sol\":37877:37888  value & 0xf */\n      and\n        /* \"contracts/MasterChefOperator.sol\":37864:37889  _HEX_SYMBOLS[value & 0xf] */\n      0x10\n      dup2\n      lt\n      tag_506\n      jumpi\n      tag_506\n      tag_233\n      jump\t// in\n    tag_506:\n      byte\n      0xf8\n      shl\n        /* \"contracts/MasterChefOperator.sol\":37852:37858  buffer */\n      dup3\n        /* \"contracts/MasterChefOperator.sol\":37859:37860  i */\n      dup3\n        /* \"contracts/MasterChefOperator.sol\":37852:37861  buffer[i] */\n      dup2\n      mload\n      dup2\n      lt\n      tag_508\n      jumpi\n      tag_508\n      tag_233\n      jump\t// in\n    tag_508:\n      0x20\n      add\n      add\n        /* \"contracts/MasterChefOperator.sol\":37852:37889  buffer[i] = _HEX_SYMBOLS[value & 0xf] */\n      swap1\n      not(sub(shl(0xf8, 0x01), 0x01))\n      and\n      swap1\n      dup2\n      0x00\n      byte\n      swap1\n      mstore8\n      pop\n        /* \"contracts/MasterChefOperator.sol\":37914:37915  4 */\n      0x04\n        /* \"contracts/MasterChefOperator.sol\":37904:37915  value >>= 4 */\n      swap5\n      swap1\n      swap5\n      shr\n      swap4\n        /* \"contracts/MasterChefOperator.sol\":37832:37835  --i */\n      tag_509\n      dup2\n      tag_510\n      jump\t// in\n    tag_509:\n      swap1\n      pop\n        /* \"contracts/MasterChefOperator.sol\":37792:37927  for (uint256 i = 2 * length + 1; i > 1; --i) {\r... */\n      jump(tag_500)\n    tag_501:\n      pop\n        /* \"contracts/MasterChefOperator.sol\":37945:37955  value == 0 */\n      dup4\n      iszero\n        /* \"contracts/MasterChefOperator.sol\":37937:37992  require(value == 0, \"Strings: hex length insufficient\") */\n      tag_395\n      jumpi\n      mload(0x40)\n      shl(0xe5, 0x461bcd)\n      dup2\n      mstore\n        /* \"#utility.yul\":15943:15945   */\n      0x20\n        /* \"contracts/MasterChefOperator.sol\":37937:37992  require(value == 0, \"Strings: hex length insufficient\") */\n      0x04\n      dup3\n      add\n        /* \"#utility.yul\":15925:15946   */\n      dup2\n      swap1\n      mstore\n        /* \"#utility.yul\":15962:15980   */\n      0x24\n      dup3\n      add\n        /* \"#utility.yul\":15955:15985   */\n      mstore\n        /* \"#utility.yul\":16021:16055   */\n      0x537472696e67733a20686578206c656e67746820696e73756666696369656e74\n        /* \"#utility.yul\":16001:16019   */\n      0x44\n      dup3\n      add\n        /* \"#utility.yul\":15994:16056   */\n      mstore\n        /* \"#utility.yul\":16073:16091   */\n      0x64\n      add\n        /* \"contracts/MasterChefOperator.sol\":37937:37992  require(value == 0, \"Strings: hex length insufficient\") */\n      tag_204\n        /* \"#utility.yul\":15741:16097   */\n      jump\n        /* \"contracts/MasterChefOperator.sol\":16971:17385  function _add(Set storage set, bytes32 value) private returns (bool) {\r... */\n    tag_396:\n        /* \"contracts/MasterChefOperator.sol\":17034:17038  bool */\n      0x00\n        /* \"contracts/MasterChefOperator.sol\":19164:19183  set._indexes[value] */\n      dup2\n      dup2\n      mstore\n        /* \"contracts/MasterChefOperator.sol\":19164:19176  set._indexes */\n      0x01\n      dup4\n      add\n        /* \"contracts/MasterChefOperator.sol\":19164:19183  set._indexes[value] */\n      0x20\n      mstore\n      0x40\n      dup2\n      keccak256\n      sload\n        /* \"contracts/MasterChefOperator.sol\":17051:17378  if (!_contains(set, value)) {\r... */\n      tag_517\n      jumpi\n      pop\n        /* \"contracts/MasterChefOperator.sol\":17094:17117  set._values.push(value) */\n      dup2\n      sload\n      0x01\n      dup2\n      dup2\n      add\n      dup5\n      sstore\n        /* \"contracts/MasterChefOperator.sol\":17094:17105  set._values */\n      0x00\n        /* \"contracts/MasterChefOperator.sol\":17094:17117  set._values.push(value) */\n      dup5\n      dup2\n      mstore\n      0x20\n      dup1\n      dup3\n      keccak256\n      swap1\n      swap4\n      add\n      dup5\n      swap1\n      sstore\n        /* \"contracts/MasterChefOperator.sol\":17277:17295  set._values.length */\n      dup5\n      sload\n        /* \"contracts/MasterChefOperator.sol\":17255:17274  set._indexes[value] */\n      dup5\n      dup3\n      mstore\n        /* \"contracts/MasterChefOperator.sol\":17255:17267  set._indexes */\n      dup3\n      dup7\n      add\n        /* \"contracts/MasterChefOperator.sol\":17255:17274  set._indexes[value] */\n      swap1\n      swap4\n      mstore\n      0x40\n      swap1\n      keccak256\n        /* \"contracts/MasterChefOperator.sol\":17255:17295  set._indexes[value] = set._values.length */\n      swap2\n      swap1\n      swap2\n      sstore\n        /* \"contracts/MasterChefOperator.sol\":17310:17321  return true */\n      jump(tag_174)\n        /* \"contracts/MasterChefOperator.sol\":17051:17378  if (!_contains(set, value)) {\r... */\n    tag_517:\n      pop\n        /* \"contracts/MasterChefOperator.sol\":17361:17366  false */\n      0x00\n        /* \"contracts/MasterChefOperator.sol\":17354:17366  return false */\n      jump(tag_174)\n        /* \"contracts/MasterChefOperator.sol\":20415:20526  function _values(Set storage set) private view returns (bytes32[] memory) {\r... */\n    tag_399:\n        /* \"contracts/MasterChefOperator.sol\":20471:20487  bytes32[] memory */\n      0x60\n        /* \"contracts/MasterChefOperator.sol\":20507:20510  set */\n      dup2\n        /* \"contracts/MasterChefOperator.sol\":20507:20518  set._values */\n      0x00\n      add\n        /* \"contracts/MasterChefOperator.sol\":20500:20518  return set._values */\n      dup1\n      sload\n      dup1\n      0x20\n      mul\n      0x20\n      add\n      mload(0x40)\n      swap1\n      dup2\n      add\n      0x40\n      mstore\n      dup1\n      swap3\n      swap2\n      swap1\n      dup2\n      dup2\n      mstore\n      0x20\n      add\n      dup3\n      dup1\n      sload\n      dup1\n      iszero\n      tag_521\n      jumpi\n      0x20\n      mul\n      dup3\n      add\n      swap2\n      swap1\n      0x00\n      mstore\n      keccak256(0x00, 0x20)\n      swap1\n    tag_522:\n      dup2\n      sload\n      dup2\n      mstore\n      0x20\n      add\n      swap1\n      0x01\n      add\n      swap1\n      dup1\n      dup4\n      gt\n      tag_522\n      jumpi\n    tag_521:\n      pop\n      pop\n      pop\n      pop\n      pop\n      swap1\n      pop\n        /* \"contracts/MasterChefOperator.sol\":20415:20526  function _values(Set storage set) private view returns (bytes32[] memory) {\r... */\n      swap2\n      swap1\n      pop\n      jump\t// out\n        /* \"#utility.yul\":14:350   */\n    tag_525:\n        /* \"#utility.yul\":78:83   */\n      0x00\n        /* \"#utility.yul\":107:159   */\n      tag_527\n        /* \"#utility.yul\":123:158   */\n      tag_528\n        /* \"#utility.yul\":151:157   */\n      dup5\n        /* \"#utility.yul\":123:158   */\n      tag_529\n      jump\t// in\n    tag_528:\n        /* \"#utility.yul\":107:159   */\n      tag_530\n      jump\t// in\n    tag_527:\n        /* \"#utility.yul\":98:159   */\n      swap1\n      pop\n        /* \"#utility.yul\":182:188   */\n      dup3\n        /* \"#utility.yul\":175:180   */\n      dup2\n        /* \"#utility.yul\":168:189   */\n      mstore\n        /* \"#utility.yul\":222:225   */\n      dup4\n        /* \"#utility.yul\":213:219   */\n      dup4\n        /* \"#utility.yul\":208:211   */\n      dup4\n        /* \"#utility.yul\":204:220   */\n      add\n        /* \"#utility.yul\":201:226   */\n      gt\n        /* \"#utility.yul\":198:243   */\n      iszero\n      tag_531\n      jumpi\n        /* \"#utility.yul\":239:240   */\n      0x00\n        /* \"#utility.yul\":236:237   */\n      dup1\n        /* \"#utility.yul\":229:241   */\n      revert\n        /* \"#utility.yul\":198:243   */\n    tag_531:\n        /* \"#utility.yul\":288:294   */\n      dup3\n        /* \"#utility.yul\":283:286   */\n      dup3\n        /* \"#utility.yul\":276:280   */\n      0x20\n        /* \"#utility.yul\":269:274   */\n      dup4\n        /* \"#utility.yul\":265:281   */\n      add\n        /* \"#utility.yul\":252:295   */\n      calldatacopy\n        /* \"#utility.yul\":342:343   */\n      0x00\n        /* \"#utility.yul\":335:339   */\n      0x20\n        /* \"#utility.yul\":326:332   */\n      dup5\n        /* \"#utility.yul\":319:324   */\n      dup4\n        /* \"#utility.yul\":315:333   */\n      add\n        /* \"#utility.yul\":311:340   */\n      add\n        /* \"#utility.yul\":304:344   */\n      mstore\n        /* \"#utility.yul\":14:350   */\n      swap4\n      swap3\n      pop\n      pop\n      pop\n      jump\t// out\n        /* \"#utility.yul\":355:511   */\n    tag_532:\n        /* \"#utility.yul\":436:456   */\n      dup1\n      calldataload\n        /* \"#utility.yul\":485:486   */\n      0x02\n        /* \"#utility.yul\":475:487   */\n      dup2\n      lt\n        /* \"#utility.yul\":465:505   */\n      tag_534\n      jumpi\n        /* \"#utility.yul\":501:502   */\n      0x00\n        /* \"#utility.yul\":498:499   */\n      dup1\n        /* \"#utility.yul\":491:503   */\n      revert\n        /* \"#utility.yul\":465:505   */\n    tag_534:\n        /* \"#utility.yul\":355:511   */\n      swap2\n      swap1\n      pop\n      jump\t// out\n        /* \"#utility.yul\":516:938   */\n    tag_114:\n        /* \"#utility.yul\":613:619   */\n      0x00\n        /* \"#utility.yul\":621:627   */\n      dup1\n        /* \"#utility.yul\":629:635   */\n      0x00\n        /* \"#utility.yul\":682:684   */\n      0x60\n        /* \"#utility.yul\":670:679   */\n      dup5\n        /* \"#utility.yul\":661:668   */\n      dup7\n        /* \"#utility.yul\":657:680   */\n      sub\n        /* \"#utility.yul\":653:685   */\n      slt\n        /* \"#utility.yul\":650:702   */\n      iszero\n      tag_536\n      jumpi\n        /* \"#utility.yul\":698:699   */\n      0x00\n        /* \"#utility.yul\":695:696   */\n      dup1\n        /* \"#utility.yul\":688:700   */\n      revert\n        /* \"#utility.yul\":650:702   */\n    tag_536:\n        /* \"#utility.yul\":737:746   */\n      dup4\n        /* \"#utility.yul\":724:747   */\n      calldataload\n        /* \"#utility.yul\":756:787   */\n      tag_537\n        /* \"#utility.yul\":781:786   */\n      dup2\n        /* \"#utility.yul\":756:787   */\n      tag_538\n      jump\t// in\n    tag_537:\n        /* \"#utility.yul\":806:811   */\n      swap3\n      pop\n        /* \"#utility.yul\":858:860   */\n      0x20\n        /* \"#utility.yul\":843:861   */\n      dup5\n      add\n        /* \"#utility.yul\":830:862   */\n      calldataload\n      swap2\n      pop\n        /* \"#utility.yul\":881:932   */\n      tag_539\n        /* \"#utility.yul\":928:930   */\n      0x40\n        /* \"#utility.yul\":913:931   */\n      dup6\n      add\n        /* \"#utility.yul\":881:932   */\n      tag_532\n      jump\t// in\n    tag_539:\n        /* \"#utility.yul\":871:932   */\n      swap1\n      pop\n        /* \"#utility.yul\":516:938   */\n      swap3\n      pop\n      swap3\n      pop\n      swap3\n      jump\t// out\n        /* \"#utility.yul\":943:2014   */\n    tag_44:\n        /* \"#utility.yul\":1057:1063   */\n      0x00\n        /* \"#utility.yul\":1065:1071   */\n      dup1\n        /* \"#utility.yul\":1073:1079   */\n      0x00\n        /* \"#utility.yul\":1081:1087   */\n      dup1\n        /* \"#utility.yul\":1089:1095   */\n      0x00\n        /* \"#utility.yul\":1142:1145   */\n      0xa0\n        /* \"#utility.yul\":1130:1139   */\n      dup7\n        /* \"#utility.yul\":1121:1128   */\n      dup9\n        /* \"#utility.yul\":1117:1140   */\n      sub\n        /* \"#utility.yul\":1113:1146   */\n      slt\n        /* \"#utility.yul\":1110:1163   */\n      iszero\n      tag_541\n      jumpi\n        /* \"#utility.yul\":1159:1160   */\n      0x00\n        /* \"#utility.yul\":1156:1157   */\n      dup1\n        /* \"#utility.yul\":1149:1161   */\n      revert\n        /* \"#utility.yul\":1110:1163   */\n    tag_541:\n        /* \"#utility.yul\":1198:1207   */\n      dup6\n        /* \"#utility.yul\":1185:1208   */\n      calldataload\n        /* \"#utility.yul\":1217:1248   */\n      tag_542\n        /* \"#utility.yul\":1242:1247   */\n      dup2\n        /* \"#utility.yul\":1217:1248   */\n      tag_538\n      jump\t// in\n    tag_542:\n        /* \"#utility.yul\":1267:1272   */\n      swap5\n      pop\n        /* \"#utility.yul\":1319:1321   */\n      0x20\n        /* \"#utility.yul\":1304:1322   */\n      dup7\n      add\n        /* \"#utility.yul\":1291:1323   */\n      calldataload\n      swap4\n      pop\n        /* \"#utility.yul\":1374:1376   */\n      0x40\n        /* \"#utility.yul\":1359:1377   */\n      dup7\n      add\n        /* \"#utility.yul\":1346:1378   */\n      calldataload\n        /* \"#utility.yul\":1397:1415   */\n      0xffffffffffffffff\n        /* \"#utility.yul\":1427:1441   */\n      dup1\n      dup3\n      gt\n        /* \"#utility.yul\":1424:1458   */\n      iszero\n      tag_543\n      jumpi\n        /* \"#utility.yul\":1454:1455   */\n      0x00\n        /* \"#utility.yul\":1451:1452   */\n      dup1\n        /* \"#utility.yul\":1444:1456   */\n      revert\n        /* \"#utility.yul\":1424:1458   */\n    tag_543:\n        /* \"#utility.yul\":1492:1498   */\n      dup2\n        /* \"#utility.yul\":1481:1490   */\n      dup9\n        /* \"#utility.yul\":1477:1499   */\n      add\n        /* \"#utility.yul\":1467:1499   */\n      swap2\n      pop\n        /* \"#utility.yul\":1537:1544   */\n      dup9\n        /* \"#utility.yul\":1530:1534   */\n      0x1f\n        /* \"#utility.yul\":1526:1528   */\n      dup4\n        /* \"#utility.yul\":1522:1535   */\n      add\n        /* \"#utility.yul\":1518:1545   */\n      slt\n        /* \"#utility.yul\":1508:1563   */\n      tag_544\n      jumpi\n        /* \"#utility.yul\":1559:1560   */\n      0x00\n        /* \"#utility.yul\":1556:1557   */\n      dup1\n        /* \"#utility.yul\":1549:1561   */\n      revert\n        /* \"#utility.yul\":1508:1563   */\n    tag_544:\n        /* \"#utility.yul\":1582:1655   */\n      tag_545\n        /* \"#utility.yul\":1647:1654   */\n      dup10\n        /* \"#utility.yul\":1642:1644   */\n      dup4\n        /* \"#utility.yul\":1629:1645   */\n      calldataload\n        /* \"#utility.yul\":1624:1626   */\n      0x20\n        /* \"#utility.yul\":1620:1622   */\n      dup6\n        /* \"#utility.yul\":1616:1627   */\n      add\n        /* \"#utility.yul\":1582:1655   */\n      tag_525\n      jump\t// in\n    tag_545:\n        /* \"#utility.yul\":1572:1655   */\n      swap5\n      pop\n        /* \"#utility.yul\":1708:1710   */\n      0x60\n        /* \"#utility.yul\":1697:1706   */\n      dup9\n        /* \"#utility.yul\":1693:1711   */\n      add\n        /* \"#utility.yul\":1680:1712   */\n      calldataload\n        /* \"#utility.yul\":1664:1712   */\n      swap2\n      pop\n        /* \"#utility.yul\":1737:1739   */\n      dup1\n        /* \"#utility.yul\":1727:1735   */\n      dup3\n        /* \"#utility.yul\":1724:1740   */\n      gt\n        /* \"#utility.yul\":1721:1757   */\n      iszero\n      tag_546\n      jumpi\n        /* \"#utility.yul\":1753:1754   */\n      0x00\n        /* \"#utility.yul\":1750:1751   */\n      dup1\n        /* \"#utility.yul\":1743:1755   */\n      revert\n        /* \"#utility.yul\":1721:1757   */\n    tag_546:\n      pop\n        /* \"#utility.yul\":1776:1800   */\n      dup7\n      add\n        /* \"#utility.yul\":1831:1835   */\n      0x1f\n        /* \"#utility.yul\":1823:1836   */\n      dup2\n      add\n        /* \"#utility.yul\":1819:1846   */\n      dup9\n      sgt\n        /* \"#utility.yul\":1809:1864   */\n      tag_547\n      jumpi\n        /* \"#utility.yul\":1860:1861   */\n      0x00\n        /* \"#utility.yul\":1857:1858   */\n      dup1\n        /* \"#utility.yul\":1850:1862   */\n      revert\n        /* \"#utility.yul\":1809:1864   */\n    tag_547:\n        /* \"#utility.yul\":1883:1956   */\n      tag_548\n        /* \"#utility.yul\":1948:1955   */\n      dup9\n        /* \"#utility.yul\":1943:1945   */\n      dup3\n        /* \"#utility.yul\":1930:1946   */\n      calldataload\n        /* \"#utility.yul\":1925:1927   */\n      0x20\n        /* \"#utility.yul\":1921:1923   */\n      dup5\n        /* \"#utility.yul\":1917:1928   */\n      add\n        /* \"#utility.yul\":1883:1956   */\n      tag_525\n      jump\t// in\n    tag_548:\n        /* \"#utility.yul\":943:2014   */\n      swap6\n      swap9\n      swap5\n      swap8\n      pop\n      swap3\n      swap6\n        /* \"#utility.yul\":2003:2006   */\n      0x80\n        /* \"#utility.yul\":1988:2007   */\n      add\n        /* \"#utility.yul\":1975:2008   */\n      calldataload\n      swap4\n        /* \"#utility.yul\":943:2014   */\n      swap3\n      pop\n      pop\n      pop\n      jump\t// out\n        /* \"#utility.yul\":2019:2743   */\n    tag_83:\n        /* \"#utility.yul\":2146:2152   */\n      0x00\n        /* \"#utility.yul\":2154:2160   */\n      dup1\n        /* \"#utility.yul\":2162:2168   */\n      0x00\n        /* \"#utility.yul\":2215:2217   */\n      0x40\n        /* \"#utility.yul\":2203:2212   */\n      dup5\n        /* \"#utility.yul\":2194:2201   */\n      dup7\n        /* \"#utility.yul\":2190:2213   */\n      sub\n        /* \"#utility.yul\":2186:2218   */\n      slt\n        /* \"#utility.yul\":2183:2235   */\n      iszero\n      tag_550\n      jumpi\n        /* \"#utility.yul\":2231:2232   */\n      0x00\n        /* \"#utility.yul\":2228:2229   */\n      dup1\n        /* \"#utility.yul\":2221:2233   */\n      revert\n        /* \"#utility.yul\":2183:2235   */\n    tag_550:\n        /* \"#utility.yul\":2271:2280   */\n      dup4\n        /* \"#utility.yul\":2258:2281   */\n      calldataload\n        /* \"#utility.yul\":2300:2318   */\n      0xffffffffffffffff\n        /* \"#utility.yul\":2341:2343   */\n      dup1\n        /* \"#utility.yul\":2333:2339   */\n      dup3\n        /* \"#utility.yul\":2330:2344   */\n      gt\n        /* \"#utility.yul\":2327:2361   */\n      iszero\n      tag_551\n      jumpi\n        /* \"#utility.yul\":2357:2358   */\n      0x00\n        /* \"#utility.yul\":2354:2355   */\n      dup1\n        /* \"#utility.yul\":2347:2359   */\n      revert\n        /* \"#utility.yul\":2327:2361   */\n    tag_551:\n        /* \"#utility.yul\":2395:2401   */\n      dup2\n        /* \"#utility.yul\":2384:2393   */\n      dup7\n        /* \"#utility.yul\":2380:2402   */\n      add\n        /* \"#utility.yul\":2370:2402   */\n      swap2\n      pop\n        /* \"#utility.yul\":2440:2447   */\n      dup7\n        /* \"#utility.yul\":2433:2437   */\n      0x1f\n        /* \"#utility.yul\":2429:2431   */\n      dup4\n        /* \"#utility.yul\":2425:2438   */\n      add\n        /* \"#utility.yul\":2421:2448   */\n      slt\n        /* \"#utility.yul\":2411:2466   */\n      tag_552\n      jumpi\n        /* \"#utility.yul\":2462:2463   */\n      0x00\n        /* \"#utility.yul\":2459:2460   */\n      dup1\n        /* \"#utility.yul\":2452:2464   */\n      revert\n        /* \"#utility.yul\":2411:2466   */\n    tag_552:\n        /* \"#utility.yul\":2502:2504   */\n      dup2\n        /* \"#utility.yul\":2489:2505   */\n      calldataload\n        /* \"#utility.yul\":2528:2530   */\n      dup2\n        /* \"#utility.yul\":2520:2526   */\n      dup2\n        /* \"#utility.yul\":2517:2531   */\n      gt\n        /* \"#utility.yul\":2514:2548   */\n      iszero\n      tag_553\n      jumpi\n        /* \"#utility.yul\":2544:2545   */\n      0x00\n        /* \"#utility.yul\":2541:2542   */\n      dup1\n        /* \"#utility.yul\":2534:2546   */\n      revert\n        /* \"#utility.yul\":2514:2548   */\n    tag_553:\n        /* \"#utility.yul\":2602:2609   */\n      dup8\n        /* \"#utility.yul\":2595:2599   */\n      0x20\n        /* \"#utility.yul\":2587:2591   */\n      0x60\n        /* \"#utility.yul\":2579:2585   */\n      dup4\n        /* \"#utility.yul\":2575:2592   */\n      mul\n        /* \"#utility.yul\":2571:2573   */\n      dup6\n        /* \"#utility.yul\":2567:2593   */\n      add\n        /* \"#utility.yul\":2563:2600   */\n      add\n        /* \"#utility.yul\":2560:2610   */\n      gt\n        /* \"#utility.yul\":2557:2627   */\n      iszero\n      tag_554\n      jumpi\n        /* \"#utility.yul\":2623:2624   */\n      0x00\n        /* \"#utility.yul\":2620:2621   */\n      dup1\n        /* \"#utility.yul\":2613:2625   */\n      revert\n        /* \"#utility.yul\":2557:2627   */\n    tag_554:\n        /* \"#utility.yul\":2654:2658   */\n      0x20\n        /* \"#utility.yul\":2646:2659   */\n      swap3\n      dup4\n      add\n      swap9\n        /* \"#utility.yul\":2678:2684   */\n      swap1\n      swap8\n      pop\n        /* \"#utility.yul\":2716:2736   */\n      swap6\n      swap1\n      swap2\n      add\n        /* \"#utility.yul\":2703:2737   */\n      calldataload\n      swap5\n        /* \"#utility.yul\":2019:2743   */\n      swap4\n      pop\n      pop\n      pop\n      pop\n      jump\t// out\n        /* \"#utility.yul\":2748:3473   */\n    tag_147:\n        /* \"#utility.yul\":2879:2885   */\n      0x00\n        /* \"#utility.yul\":2887:2893   */\n      dup1\n        /* \"#utility.yul\":2895:2901   */\n      0x00\n        /* \"#utility.yul\":2948:2950   */\n      0x40\n        /* \"#utility.yul\":2936:2945   */\n      dup5\n        /* \"#utility.yul\":2927:2934   */\n      dup7\n        /* \"#utility.yul\":2923:2946   */\n      sub\n        /* \"#utility.yul\":2919:2951   */\n      slt\n        /* \"#utility.yul\":2916:2968   */\n      iszero\n      tag_556\n      jumpi\n        /* \"#utility.yul\":2964:2965   */\n      0x00\n        /* \"#utility.yul\":2961:2962   */\n      dup1\n        /* \"#utility.yul\":2954:2966   */\n      revert\n        /* \"#utility.yul\":2916:2968   */\n    tag_556:\n        /* \"#utility.yul\":3004:3013   */\n      dup4\n        /* \"#utility.yul\":2991:3014   */\n      calldataload\n        /* \"#utility.yul\":3033:3051   */\n      0xffffffffffffffff\n        /* \"#utility.yul\":3074:3076   */\n      dup1\n        /* \"#utility.yul\":3066:3072   */\n      dup3\n        /* \"#utility.yul\":3063:3077   */\n      gt\n        /* \"#utility.yul\":3060:3094   */\n      iszero\n      tag_557\n      jumpi\n        /* \"#utility.yul\":3090:3091   */\n      0x00\n        /* \"#utility.yul\":3087:3088   */\n      dup1\n        /* \"#utility.yul\":3080:3092   */\n      revert\n        /* \"#utility.yul\":3060:3094   */\n    tag_557:\n        /* \"#utility.yul\":3128:3134   */\n      dup2\n        /* \"#utility.yul\":3117:3126   */\n      dup7\n        /* \"#utility.yul\":3113:3135   */\n      add\n        /* \"#utility.yul\":3103:3135   */\n      swap2\n      pop\n        /* \"#utility.yul\":3173:3180   */\n      dup7\n        /* \"#utility.yul\":3166:3170   */\n      0x1f\n        /* \"#utility.yul\":3162:3164   */\n      dup4\n        /* \"#utility.yul\":3158:3171   */\n      add\n        /* \"#utility.yul\":3154:3181   */\n      slt\n        /* \"#utility.yul\":3144:3199   */\n      tag_558\n      jumpi\n        /* \"#utility.yul\":3195:3196   */\n      0x00\n        /* \"#utility.yul\":3192:3193   */\n      dup1\n        /* \"#utility.yul\":3185:3197   */\n      revert\n        /* \"#utility.yul\":3144:3199   */\n    tag_558:\n        /* \"#utility.yul\":3235:3237   */\n      dup2\n        /* \"#utility.yul\":3222:3238   */\n      calldataload\n        /* \"#utility.yul\":3261:3263   */\n      dup2\n        /* \"#utility.yul\":3253:3259   */\n      dup2\n        /* \"#utility.yul\":3250:3264   */\n      gt\n        /* \"#utility.yul\":3247:3281   */\n      iszero\n      tag_559\n      jumpi\n        /* \"#utility.yul\":3277:3278   */\n      0x00\n        /* \"#utility.yul\":3274:3275   */\n      dup1\n        /* \"#utility.yul\":3267:3279   */\n      revert\n        /* \"#utility.yul\":3247:3281   */\n    tag_559:\n        /* \"#utility.yul\":3332:3339   */\n      dup8\n        /* \"#utility.yul\":3325:3329   */\n      0x20\n        /* \"#utility.yul\":3315:3321   */\n      dup3\n        /* \"#utility.yul\":3312:3313   */\n      0x07\n        /* \"#utility.yul\":3308:3322   */\n      shl\n        /* \"#utility.yul\":3304:3306   */\n      dup6\n        /* \"#utility.yul\":3300:3323   */\n      add\n        /* \"#utility.yul\":3296:3330   */\n      add\n        /* \"#utility.yul\":3293:3340   */\n      gt\n        /* \"#utility.yul\":3290:3357   */\n      iszero\n      tag_554\n      jumpi\n        /* \"#utility.yul\":3353:3354   */\n      0x00\n        /* \"#utility.yul\":3350:3351   */\n      dup1\n        /* \"#utility.yul\":3343:3355   */\n      revert\n        /* \"#utility.yul\":3478:3658   */\n    tag_51:\n        /* \"#utility.yul\":3537:3543   */\n      0x00\n        /* \"#utility.yul\":3590:3592   */\n      0x20\n        /* \"#utility.yul\":3578:3587   */\n      dup3\n        /* \"#utility.yul\":3569:3576   */\n      dup5\n        /* \"#utility.yul\":3565:3588   */\n      sub\n        /* \"#utility.yul\":3561:3593   */\n      slt\n        /* \"#utility.yul\":3558:3610   */\n      iszero\n      tag_562\n      jumpi\n        /* \"#utility.yul\":3606:3607   */\n      0x00\n        /* \"#utility.yul\":3603:3604   */\n      dup1\n        /* \"#utility.yul\":3596:3608   */\n      revert\n        /* \"#utility.yul\":3558:3610   */\n    tag_562:\n      pop\n        /* \"#utility.yul\":3629:3652   */\n      calldataload\n      swap2\n        /* \"#utility.yul\":3478:3658   */\n      swap1\n      pop\n      jump\t// out\n        /* \"#utility.yul\":3663:3847   */\n    tag_217:\n        /* \"#utility.yul\":3733:3739   */\n      0x00\n        /* \"#utility.yul\":3786:3788   */\n      0x20\n        /* \"#utility.yul\":3774:3783   */\n      dup3\n        /* \"#utility.yul\":3765:3772   */\n      dup5\n        /* \"#utility.yul\":3761:3784   */\n      sub\n        /* \"#utility.yul\":3757:3789   */\n      slt\n        /* \"#utility.yul\":3754:3806   */\n      iszero\n      tag_564\n      jumpi\n        /* \"#utility.yul\":3802:3803   */\n      0x00\n        /* \"#utility.yul\":3799:3800   */\n      dup1\n        /* \"#utility.yul\":3792:3804   */\n      revert\n        /* \"#utility.yul\":3754:3806   */\n    tag_564:\n      pop\n        /* \"#utility.yul\":3825:3841   */\n      mload\n      swap2\n        /* \"#utility.yul\":3663:3847   */\n      swap1\n      pop\n      jump\t// out\n        /* \"#utility.yul\":3852:4167   */\n    tag_62:\n        /* \"#utility.yul\":3920:3926   */\n      0x00\n        /* \"#utility.yul\":3928:3934   */\n      dup1\n        /* \"#utility.yul\":3981:3983   */\n      0x40\n        /* \"#utility.yul\":3969:3978   */\n      dup4\n        /* \"#utility.yul\":3960:3967   */\n      dup6\n        /* \"#utility.yul\":3956:3979   */\n      sub\n        /* \"#utility.yul\":3952:3984   */\n      slt\n        /* \"#utility.yul\":3949:4001   */\n      iszero\n      tag_566\n      jumpi\n        /* \"#utility.yul\":3997:3998   */\n      0x00\n        /* \"#utility.yul\":3994:3995   */\n      dup1\n        /* \"#utility.yul\":3987:3999   */\n      revert\n        /* \"#utility.yul\":3949:4001   */\n    tag_566:\n        /* \"#utility.yul\":4033:4042   */\n      dup3\n        /* \"#utility.yul\":4020:4043   */\n      calldataload\n        /* \"#utility.yul\":4010:4043   */\n      swap2\n      pop\n        /* \"#utility.yul\":4093:4095   */\n      0x20\n        /* \"#utility.yul\":4082:4091   */\n      dup4\n        /* \"#utility.yul\":4078:4096   */\n      add\n        /* \"#utility.yul\":4065:4097   */\n      calldataload\n        /* \"#utility.yul\":4106:4137   */\n      tag_567\n        /* \"#utility.yul\":4131:4136   */\n      dup2\n        /* \"#utility.yul\":4106:4137   */\n      tag_538\n      jump\t// in\n    tag_567:\n        /* \"#utility.yul\":4156:4161   */\n      dup1\n        /* \"#utility.yul\":4146:4161   */\n      swap2\n      pop\n      pop\n        /* \"#utility.yul\":3852:4167   */\n      swap3\n      pop\n      swap3\n      swap1\n      pop\n      jump\t// out\n        /* \"#utility.yul\":4172:4458   */\n    tag_38:\n        /* \"#utility.yul\":4230:4236   */\n      0x00\n        /* \"#utility.yul\":4283:4285   */\n      0x20\n        /* \"#utility.yul\":4271:4280   */\n      dup3\n        /* \"#utility.yul\":4262:4269   */\n      dup5\n        /* \"#utility.yul\":4258:4281   */\n      sub\n        /* \"#utility.yul\":4254:4286   */\n      slt\n        /* \"#utility.yul\":4251:4303   */\n      iszero\n      tag_569\n      jumpi\n        /* \"#utility.yul\":4299:4300   */\n      0x00\n        /* \"#utility.yul\":4296:4297   */\n      dup1\n        /* \"#utility.yul\":4289:4301   */\n      revert\n        /* \"#utility.yul\":4251:4303   */\n    tag_569:\n        /* \"#utility.yul\":4325:4348   */\n      dup2\n      calldataload\n      not(sub(shl(0xe0, 0x01), 0x01))\n        /* \"#utility.yul\":4377:4409   */\n      dup2\n      and\n        /* \"#utility.yul\":4367:4410   */\n      dup2\n      eq\n        /* \"#utility.yul\":4357:4428   */\n      tag_395\n      jumpi\n        /* \"#utility.yul\":4424:4425   */\n      0x00\n        /* \"#utility.yul\":4421:4422   */\n      dup1\n        /* \"#utility.yul\":4414:4426   */\n      revert\n        /* \"#utility.yul\":4463:5097   */\n    tag_188:\n        /* \"#utility.yul\":4542:4548   */\n      0x00\n        /* \"#utility.yul\":4595:4597   */\n      0x20\n        /* \"#utility.yul\":4583:4592   */\n      dup3\n        /* \"#utility.yul\":4574:4581   */\n      dup5\n        /* \"#utility.yul\":4570:4593   */\n      sub\n        /* \"#utility.yul\":4566:4598   */\n      slt\n        /* \"#utility.yul\":4563:4615   */\n      iszero\n      tag_572\n      jumpi\n        /* \"#utility.yul\":4611:4612   */\n      0x00\n        /* \"#utility.yul\":4608:4609   */\n      dup1\n        /* \"#utility.yul\":4601:4613   */\n      revert\n        /* \"#utility.yul\":4563:4615   */\n    tag_572:\n        /* \"#utility.yul\":4644:4653   */\n      dup2\n        /* \"#utility.yul\":4638:4654   */\n      mload\n        /* \"#utility.yul\":4677:4695   */\n      0xffffffffffffffff\n        /* \"#utility.yul\":4669:4675   */\n      dup2\n        /* \"#utility.yul\":4666:4696   */\n      gt\n        /* \"#utility.yul\":4663:4713   */\n      iszero\n      tag_573\n      jumpi\n        /* \"#utility.yul\":4709:4710   */\n      0x00\n        /* \"#utility.yul\":4706:4707   */\n      dup1\n        /* \"#utility.yul\":4699:4711   */\n      revert\n        /* \"#utility.yul\":4663:4713   */\n    tag_573:\n        /* \"#utility.yul\":4732:4754   */\n      dup3\n      add\n        /* \"#utility.yul\":4785:4789   */\n      0x1f\n        /* \"#utility.yul\":4777:4790   */\n      dup2\n      add\n        /* \"#utility.yul\":4773:4800   */\n      dup5\n      sgt\n        /* \"#utility.yul\":4763:4818   */\n      tag_574\n      jumpi\n        /* \"#utility.yul\":4814:4815   */\n      0x00\n        /* \"#utility.yul\":4811:4812   */\n      dup1\n        /* \"#utility.yul\":4804:4816   */\n      revert\n        /* \"#utility.yul\":4763:4818   */\n    tag_574:\n        /* \"#utility.yul\":4843:4845   */\n      dup1\n        /* \"#utility.yul\":4837:4846   */\n      mload\n        /* \"#utility.yul\":4868:4916   */\n      tag_575\n        /* \"#utility.yul\":4884:4915   */\n      tag_528\n        /* \"#utility.yul\":4912:4914   */\n      dup3\n        /* \"#utility.yul\":4884:4915   */\n      tag_529\n      jump\t// in\n        /* \"#utility.yul\":4868:4916   */\n    tag_575:\n        /* \"#utility.yul\":4939:4941   */\n      dup2\n        /* \"#utility.yul\":4932:4937   */\n      dup2\n        /* \"#utility.yul\":4925:4942   */\n      mstore\n        /* \"#utility.yul\":4979:4986   */\n      dup6\n        /* \"#utility.yul\":4974:4976   */\n      0x20\n        /* \"#utility.yul\":4969:4971   */\n      dup4\n        /* \"#utility.yul\":4965:4967   */\n      dup6\n        /* \"#utility.yul\":4961:4972   */\n      add\n        /* \"#utility.yul\":4957:4977   */\n      add\n        /* \"#utility.yul\":4954:4987   */\n      gt\n        /* \"#utility.yul\":4951:5004   */\n      iszero\n      tag_577\n      jumpi\n        /* \"#utility.yul\":5000:5001   */\n      0x00\n        /* \"#utility.yul\":4997:4998   */\n      dup1\n        /* \"#utility.yul\":4990:5002   */\n      revert\n        /* \"#utility.yul\":4951:5004   */\n    tag_577:\n        /* \"#utility.yul\":5013:5067   */\n      tag_578\n        /* \"#utility.yul\":5064:5066   */\n      dup3\n        /* \"#utility.yul\":5059:5061   */\n      0x20\n        /* \"#utility.yul\":5052:5057   */\n      dup4\n        /* \"#utility.yul\":5048:5062   */\n      add\n        /* \"#utility.yul\":5043:5045   */\n      0x20\n        /* \"#utility.yul\":5039:5041   */\n      dup7\n        /* \"#utility.yul\":5035:5046   */\n      add\n        /* \"#utility.yul\":5013:5067   */\n      tag_579\n      jump\t// in\n    tag_578:\n        /* \"#utility.yul\":5086:5091   */\n      swap6\n        /* \"#utility.yul\":4463:5097   */\n      swap5\n      pop\n      pop\n      pop\n      pop\n      pop\n      jump\t// out\n        /* \"#utility.yul\":5287:5574   */\n    tag_142:\n        /* \"#utility.yul\":5375:5381   */\n      0x00\n        /* \"#utility.yul\":5383:5389   */\n      dup1\n        /* \"#utility.yul\":5436:5438   */\n      0x40\n        /* \"#utility.yul\":5424:5433   */\n      dup4\n        /* \"#utility.yul\":5415:5422   */\n      dup6\n        /* \"#utility.yul\":5411:5434   */\n      sub\n        /* \"#utility.yul\":5407:5439   */\n      slt\n        /* \"#utility.yul\":5404:5456   */\n      iszero\n      tag_583\n      jumpi\n        /* \"#utility.yul\":5452:5453   */\n      0x00\n        /* \"#utility.yul\":5449:5450   */\n      dup1\n        /* \"#utility.yul\":5442:5454   */\n      revert\n        /* \"#utility.yul\":5404:5456   */\n    tag_583:\n        /* \"#utility.yul\":5488:5497   */\n      dup3\n        /* \"#utility.yul\":5475:5498   */\n      calldataload\n        /* \"#utility.yul\":5465:5498   */\n      swap2\n      pop\n        /* \"#utility.yul\":5517:5568   */\n      tag_584\n        /* \"#utility.yul\":5564:5566   */\n      0x20\n        /* \"#utility.yul\":5553:5562   */\n      dup5\n        /* \"#utility.yul\":5549:5567   */\n      add\n        /* \"#utility.yul\":5517:5568   */\n      tag_532\n      jump\t// in\n    tag_584:\n        /* \"#utility.yul\":5507:5568   */\n      swap1\n      pop\n        /* \"#utility.yul\":5287:5574   */\n      swap3\n      pop\n      swap3\n      swap1\n      pop\n      jump\t// out\n        /* \"#utility.yul\":5579:5827   */\n    tag_107:\n        /* \"#utility.yul\":5647:5653   */\n      0x00\n        /* \"#utility.yul\":5655:5661   */\n      dup1\n        /* \"#utility.yul\":5708:5710   */\n      0x40\n        /* \"#utility.yul\":5696:5705   */\n      dup4\n        /* \"#utility.yul\":5687:5694   */\n      dup6\n        /* \"#utility.yul\":5683:5706   */\n      sub\n        /* \"#utility.yul\":5679:5711   */\n      slt\n        /* \"#utility.yul\":5676:5728   */\n      iszero\n      tag_586\n      jumpi\n        /* \"#utility.yul\":5724:5725   */\n      0x00\n        /* \"#utility.yul\":5721:5722   */\n      dup1\n        /* \"#utility.yul\":5714:5726   */\n      revert\n        /* \"#utility.yul\":5676:5728   */\n    tag_586:\n      pop\n      pop\n        /* \"#utility.yul\":5747:5770   */\n      dup1\n      calldataload\n      swap3\n        /* \"#utility.yul\":5817:5819   */\n      0x20\n        /* \"#utility.yul\":5802:5820   */\n      swap1\n      swap2\n      add\n        /* \"#utility.yul\":5789:5821   */\n      calldataload\n      swap2\n      pop\n        /* \"#utility.yul\":5579:5827   */\n      jump\t// out\n        /* \"#utility.yul\":5832:6187   */\n    tag_133:\n        /* \"#utility.yul\":5929:5935   */\n      0x00\n        /* \"#utility.yul\":5937:5943   */\n      dup1\n        /* \"#utility.yul\":5945:5951   */\n      0x00\n        /* \"#utility.yul\":5998:6000   */\n      0x60\n        /* \"#utility.yul\":5986:5995   */\n      dup5\n        /* \"#utility.yul\":5977:5984   */\n      dup7\n        /* \"#utility.yul\":5973:5996   */\n      sub\n        /* \"#utility.yul\":5969:6001   */\n      slt\n        /* \"#utility.yul\":5966:6018   */\n      iszero\n      tag_588\n      jumpi\n        /* \"#utility.yul\":6014:6015   */\n      0x00\n        /* \"#utility.yul\":6011:6012   */\n      dup1\n        /* \"#utility.yul\":6004:6016   */\n      revert\n        /* \"#utility.yul\":5966:6018   */\n    tag_588:\n        /* \"#utility.yul\":6050:6059   */\n      dup4\n        /* \"#utility.yul\":6037:6060   */\n      calldataload\n        /* \"#utility.yul\":6027:6060   */\n      swap3\n      pop\n        /* \"#utility.yul\":6107:6109   */\n      0x20\n        /* \"#utility.yul\":6096:6105   */\n      dup5\n        /* \"#utility.yul\":6092:6110   */\n      add\n        /* \"#utility.yul\":6079:6111   */\n      calldataload\n        /* \"#utility.yul\":6069:6111   */\n      swap2\n      pop\n        /* \"#utility.yul\":6130:6181   */\n      tag_539\n        /* \"#utility.yul\":6177:6179   */\n      0x40\n        /* \"#utility.yul\":6166:6175   */\n      dup6\n        /* \"#utility.yul\":6162:6180   */\n      add\n        /* \"#utility.yul\":6130:6181   */\n      tag_532\n      jump\t// in\n        /* \"#utility.yul\":6192:6449   */\n    tag_590:\n        /* \"#utility.yul\":6233:6236   */\n      0x00\n        /* \"#utility.yul\":6271:6276   */\n      dup2\n        /* \"#utility.yul\":6265:6277   */\n      mload\n        /* \"#utility.yul\":6298:6304   */\n      dup1\n        /* \"#utility.yul\":6293:6296   */\n      dup5\n        /* \"#utility.yul\":6286:6305   */\n      mstore\n        /* \"#utility.yul\":6314:6377   */\n      tag_592\n        /* \"#utility.yul\":6370:6376   */\n      dup2\n        /* \"#utility.yul\":6363:6367   */\n      0x20\n        /* \"#utility.yul\":6358:6361   */\n      dup7\n        /* \"#utility.yul\":6354:6368   */\n      add\n        /* \"#utility.yul\":6347:6351   */\n      0x20\n        /* \"#utility.yul\":6340:6345   */\n      dup7\n        /* \"#utility.yul\":6336:6352   */\n      add\n        /* \"#utility.yul\":6314:6377   */\n      tag_579\n      jump\t// in\n    tag_592:\n        /* \"#utility.yul\":6431:6433   */\n      0x1f\n        /* \"#utility.yul\":6410:6425   */\n      add\n      not(0x1f)\n        /* \"#utility.yul\":6406:6435   */\n      and\n        /* \"#utility.yul\":6397:6436   */\n      swap3\n      swap1\n      swap3\n      add\n        /* \"#utility.yul\":6438:6442   */\n      0x20\n        /* \"#utility.yul\":6393:6443   */\n      add\n      swap3\n        /* \"#utility.yul\":6192:6449   */\n      swap2\n      pop\n      pop\n      jump\t// out\n        /* \"#utility.yul\":6454:7240   */\n    tag_383:\n        /* \"#utility.yul\":6865:6890   */\n      0x416363657373436f6e74726f6c3a206163636f756e7420000000000000000000\n        /* \"#utility.yul\":6860:6863   */\n      dup2\n        /* \"#utility.yul\":6853:6891   */\n      mstore\n        /* \"#utility.yul\":6835:6838   */\n      0x00\n        /* \"#utility.yul\":6920:6926   */\n      dup4\n        /* \"#utility.yul\":6914:6927   */\n      mload\n        /* \"#utility.yul\":6936:6998   */\n      tag_594\n        /* \"#utility.yul\":6991:6997   */\n      dup2\n        /* \"#utility.yul\":6986:6988   */\n      0x17\n        /* \"#utility.yul\":6981:6984   */\n      dup6\n        /* \"#utility.yul\":6977:6989   */\n      add\n        /* \"#utility.yul\":6970:6974   */\n      0x20\n        /* \"#utility.yul\":6962:6968   */\n      dup9\n        /* \"#utility.yul\":6958:6975   */\n      add\n        /* \"#utility.yul\":6936:6998   */\n      tag_579\n      jump\t// in\n    tag_594:\n      shl(0x7d, 0x01034b99036b4b9b9b4b733903937b6329)\n        /* \"#utility.yul\":7057:7059   */\n      0x17\n        /* \"#utility.yul\":7017:7033   */\n      swap2\n      dup5\n      add\n        /* \"#utility.yul\":7049:7060   */\n      swap2\n      dup3\n      add\n        /* \"#utility.yul\":7042:7082   */\n      mstore\n        /* \"#utility.yul\":7107:7120   */\n      dup4\n      mload\n        /* \"#utility.yul\":7129:7192   */\n      tag_595\n        /* \"#utility.yul\":7107:7120   */\n      dup2\n        /* \"#utility.yul\":7178:7180   */\n      0x28\n        /* \"#utility.yul\":7170:7181   */\n      dup5\n      add\n        /* \"#utility.yul\":7163:7167   */\n      0x20\n        /* \"#utility.yul\":7151:7168   */\n      dup9\n      add\n        /* \"#utility.yul\":7129:7192   */\n      tag_579\n      jump\t// in\n    tag_595:\n        /* \"#utility.yul\":7212:7229   */\n      add\n        /* \"#utility.yul\":7231:7233   */\n      0x28\n        /* \"#utility.yul\":7208:7234   */\n      add\n      swap5\n        /* \"#utility.yul\":6454:7240   */\n      swap4\n      pop\n      pop\n      pop\n      pop\n      jump\t// out\n        /* \"#utility.yul\":7453:8168   */\n    tag_316:\n        /* \"#utility.yul\":7822:7823   */\n      0x01\n        /* \"#utility.yul\":7818:7819   */\n      dup1\n        /* \"#utility.yul\":7813:7816   */\n      0xa0\n        /* \"#utility.yul\":7809:7820   */\n      shl\n        /* \"#utility.yul\":7805:7824   */\n      sub\n        /* \"#utility.yul\":7797:7803   */\n      dup6\n        /* \"#utility.yul\":7793:7825   */\n      and\n        /* \"#utility.yul\":7782:7791   */\n      dup2\n        /* \"#utility.yul\":7775:7826   */\n      mstore\n        /* \"#utility.yul\":7862:7868   */\n      dup4\n        /* \"#utility.yul\":7857:7859   */\n      0x20\n        /* \"#utility.yul\":7846:7855   */\n      dup3\n        /* \"#utility.yul\":7842:7860   */\n      add\n        /* \"#utility.yul\":7835:7869   */\n      mstore\n        /* \"#utility.yul\":7905:7908   */\n      0xa0\n        /* \"#utility.yul\":7900:7902   */\n      0x40\n        /* \"#utility.yul\":7889:7898   */\n      dup3\n        /* \"#utility.yul\":7885:7903   */\n      add\n        /* \"#utility.yul\":7878:7909   */\n      mstore\n        /* \"#utility.yul\":7946:7948   */\n      0x1b\n        /* \"#utility.yul\":7940:7943   */\n      0xa0\n        /* \"#utility.yul\":7929:7938   */\n      dup3\n        /* \"#utility.yul\":7925:7944   */\n      add\n        /* \"#utility.yul\":7918:7949   */\n      mstore\n        /* \"#utility.yul\":7986:8015   */\n      0x757064617465456d697373696f6e526174652875696e74323536290000000000\n        /* \"#utility.yul\":7980:7983   */\n      0xc0\n        /* \"#utility.yul\":7969:7978   */\n      dup3\n        /* \"#utility.yul\":7965:7984   */\n      add\n        /* \"#utility.yul\":7958:8016   */\n      mstore\n        /* \"#utility.yul\":8052:8055   */\n      0xe0\n        /* \"#utility.yul\":8047:8049   */\n      0x60\n        /* \"#utility.yul\":8036:8045   */\n      dup3\n        /* \"#utility.yul\":8032:8050   */\n      add\n        /* \"#utility.yul\":8025:8056   */\n      mstore\n        /* \"#utility.yul\":7756:7760   */\n      0x00\n        /* \"#utility.yul\":8073:8118   */\n      tag_598\n        /* \"#utility.yul\":8113:8116   */\n      0xe0\n        /* \"#utility.yul\":8102:8111   */\n      dup4\n        /* \"#utility.yul\":8098:8117   */\n      add\n        /* \"#utility.yul\":8090:8096   */\n      dup6\n        /* \"#utility.yul\":8073:8118   */\n      tag_590\n      jump\t// in\n    tag_598:\n        /* \"#utility.yul\":8065:8118   */\n      swap1\n      pop\n        /* \"#utility.yul\":8155:8161   */\n      dup3\n        /* \"#utility.yul\":8149:8152   */\n      0x80\n        /* \"#utility.yul\":8138:8147   */\n      dup4\n        /* \"#utility.yul\":8134:8153   */\n      add\n        /* \"#utility.yul\":8127:8162   */\n      mstore\n        /* \"#utility.yul\":7453:8168   */\n      swap6\n      swap5\n      pop\n      pop\n      pop\n      pop\n      pop\n      jump\t// out\n        /* \"#utility.yul\":8173:8878   */\n    tag_265:\n        /* \"#utility.yul\":8542:8543   */\n      0x01\n        /* \"#utility.yul\":8538:8539   */\n      dup1\n        /* \"#utility.yul\":8533:8536   */\n      0xa0\n        /* \"#utility.yul\":8529:8540   */\n      shl\n        /* \"#utility.yul\":8525:8544   */\n      sub\n        /* \"#utility.yul\":8517:8523   */\n      dup6\n        /* \"#utility.yul\":8513:8545   */\n      and\n        /* \"#utility.yul\":8502:8511   */\n      dup2\n        /* \"#utility.yul\":8495:8546   */\n      mstore\n        /* \"#utility.yul\":8582:8588   */\n      dup4\n        /* \"#utility.yul\":8577:8579   */\n      0x20\n        /* \"#utility.yul\":8566:8575   */\n      dup3\n        /* \"#utility.yul\":8562:8580   */\n      add\n        /* \"#utility.yul\":8555:8589   */\n      mstore\n        /* \"#utility.yul\":8625:8628   */\n      0xa0\n        /* \"#utility.yul\":8620:8622   */\n      0x40\n        /* \"#utility.yul\":8609:8618   */\n      dup3\n        /* \"#utility.yul\":8605:8623   */\n      add\n        /* \"#utility.yul\":8598:8629   */\n      mstore\n        /* \"#utility.yul\":8666:8668   */\n      0x11\n        /* \"#utility.yul\":8660:8663   */\n      0xa0\n        /* \"#utility.yul\":8649:8658   */\n      dup3\n        /* \"#utility.yul\":8645:8664   */\n      add\n        /* \"#utility.yul\":8638:8669   */\n      mstore\n      shl(0x78, 0x7472656173757279286164647265737329)\n        /* \"#utility.yul\":8700:8703   */\n      0xc0\n        /* \"#utility.yul\":8689:8698   */\n      dup3\n        /* \"#utility.yul\":8685:8704   */\n      add\n        /* \"#utility.yul\":8678:8726   */\n      mstore\n        /* \"#utility.yul\":8762:8765   */\n      0xe0\n        /* \"#utility.yul\":8757:8759   */\n      0x60\n        /* \"#utility.yul\":8746:8755   */\n      dup3\n        /* \"#utility.yul\":8742:8760   */\n      add\n        /* \"#utility.yul\":8735:8766   */\n      mstore\n        /* \"#utility.yul\":8476:8480   */\n      0x00\n        /* \"#utility.yul\":8783:8828   */\n      tag_598\n        /* \"#utility.yul\":8823:8826   */\n      0xe0\n        /* \"#utility.yul\":8812:8821   */\n      dup4\n        /* \"#utility.yul\":8808:8827   */\n      add\n        /* \"#utility.yul\":8800:8806   */\n      dup6\n        /* \"#utility.yul\":8783:8828   */\n      tag_590\n      jump\t// in\n        /* \"#utility.yul\":8883:9595   */\n    tag_291:\n        /* \"#utility.yul\":9252:9253   */\n      0x01\n        /* \"#utility.yul\":9248:9249   */\n      dup1\n        /* \"#utility.yul\":9243:9246   */\n      0xa0\n        /* \"#utility.yul\":9239:9250   */\n      shl\n        /* \"#utility.yul\":9235:9254   */\n      sub\n        /* \"#utility.yul\":9227:9233   */\n      dup6\n        /* \"#utility.yul\":9223:9255   */\n      and\n        /* \"#utility.yul\":9212:9221   */\n      dup2\n        /* \"#utility.yul\":9205:9256   */\n      mstore\n        /* \"#utility.yul\":9292:9298   */\n      dup4\n        /* \"#utility.yul\":9287:9289   */\n      0x20\n        /* \"#utility.yul\":9276:9285   */\n      dup3\n        /* \"#utility.yul\":9272:9290   */\n      add\n        /* \"#utility.yul\":9265:9299   */\n      mstore\n        /* \"#utility.yul\":9335:9338   */\n      0xa0\n        /* \"#utility.yul\":9330:9332   */\n      0x40\n        /* \"#utility.yul\":9319:9328   */\n      dup3\n        /* \"#utility.yul\":9315:9333   */\n      add\n        /* \"#utility.yul\":9308:9339   */\n      mstore\n        /* \"#utility.yul\":9376:9378   */\n      0x18\n        /* \"#utility.yul\":9370:9373   */\n      0xa0\n        /* \"#utility.yul\":9359:9368   */\n      dup3\n        /* \"#utility.yul\":9355:9374   */\n      add\n        /* \"#utility.yul\":9348:9379   */\n      mstore\n        /* \"#utility.yul\":9416:9442   */\n      0x73657450656e64696e6741646d696e2861646472657373290000000000000000\n        /* \"#utility.yul\":9410:9413   */\n      0xc0\n        /* \"#utility.yul\":9399:9408   */\n      dup3\n        /* \"#utility.yul\":9395:9414   */\n      add\n        /* \"#utility.yul\":9388:9443   */\n      mstore\n        /* \"#utility.yul\":9479:9482   */\n      0xe0\n        /* \"#utility.yul\":9474:9476   */\n      0x60\n        /* \"#utility.yul\":9463:9472   */\n      dup3\n        /* \"#utility.yul\":9459:9477   */\n      add\n        /* \"#utility.yul\":9452:9483   */\n      mstore\n        /* \"#utility.yul\":9186:9190   */\n      0x00\n        /* \"#utility.yul\":9500:9545   */\n      tag_598\n        /* \"#utility.yul\":9540:9543   */\n      0xe0\n        /* \"#utility.yul\":9529:9538   */\n      dup4\n        /* \"#utility.yul\":9525:9544   */\n      add\n        /* \"#utility.yul\":9517:9523   */\n      dup6\n        /* \"#utility.yul\":9500:9545   */\n      tag_590\n      jump\t// in\n        /* \"#utility.yul\":9600:10381   */\n    tag_418:\n        /* \"#utility.yul\":9969:9970   */\n      0x01\n        /* \"#utility.yul\":9965:9966   */\n      dup1\n        /* \"#utility.yul\":9960:9963   */\n      0xa0\n        /* \"#utility.yul\":9956:9967   */\n      shl\n        /* \"#utility.yul\":9952:9971   */\n      sub\n        /* \"#utility.yul\":9944:9950   */\n      dup6\n        /* \"#utility.yul\":9940:9972   */\n      and\n        /* \"#utility.yul\":9929:9938   */\n      dup2\n        /* \"#utility.yul\":9922:9973   */\n      mstore\n        /* \"#utility.yul\":10009:10015   */\n      dup4\n        /* \"#utility.yul\":10004:10006   */\n      0x20\n        /* \"#utility.yul\":9993:10002   */\n      dup3\n        /* \"#utility.yul\":9989:10007   */\n      add\n        /* \"#utility.yul\":9982:10016   */\n      mstore\n        /* \"#utility.yul\":10052:10055   */\n      0xa0\n        /* \"#utility.yul\":10047:10049   */\n      0x40\n        /* \"#utility.yul\":10036:10045   */\n      dup3\n        /* \"#utility.yul\":10032:10050   */\n      add\n        /* \"#utility.yul\":10025:10056   */\n      mstore\n        /* \"#utility.yul\":10093:10095   */\n      0x21\n        /* \"#utility.yul\":10087:10090   */\n      0xa0\n        /* \"#utility.yul\":10076:10085   */\n      dup3\n        /* \"#utility.yul\":10072:10091   */\n      add\n        /* \"#utility.yul\":10065:10096   */\n      mstore\n        /* \"#utility.yul\":10133:10167   */\n      0x7365742875696e743235362c75696e743235362c616464726573732c626f6f6c\n        /* \"#utility.yul\":10127:10130   */\n      0xc0\n        /* \"#utility.yul\":10116:10125   */\n      dup3\n        /* \"#utility.yul\":10112:10131   */\n      add\n        /* \"#utility.yul\":10105:10168   */\n      mstore\n      shl(0xf8, 0x29)\n        /* \"#utility.yul\":10199:10202   */\n      0xe0\n        /* \"#utility.yul\":10188:10197   */\n      dup3\n        /* \"#utility.yul\":10184:10203   */\n      add\n        /* \"#utility.yul\":10177:10209   */\n      mstore\n        /* \"#utility.yul\":9903:9907   */\n      0x00\n        /* \"#utility.yul\":10228:10231   */\n      0x0100\n        /* \"#utility.yul\":10267:10269   */\n      dup1\n        /* \"#utility.yul\":10262:10264   */\n      0x60\n        /* \"#utility.yul\":10251:10260   */\n      dup5\n        /* \"#utility.yul\":10247:10265   */\n      add\n        /* \"#utility.yul\":10240:10270   */\n      mstore\n        /* \"#utility.yul\":10287:10331   */\n      tag_604\n        /* \"#utility.yul\":10327:10329   */\n      dup2\n        /* \"#utility.yul\":10316:10325   */\n      dup5\n        /* \"#utility.yul\":10312:10330   */\n      add\n        /* \"#utility.yul\":10304:10310   */\n      dup7\n        /* \"#utility.yul\":10287:10331   */\n      tag_590\n      jump\t// in\n    tag_604:\n        /* \"#utility.yul\":10279:10331   */\n      swap2\n      pop\n      pop\n        /* \"#utility.yul\":10368:10374   */\n      dup3\n        /* \"#utility.yul\":10362:10365   */\n      0x80\n        /* \"#utility.yul\":10351:10360   */\n      dup4\n        /* \"#utility.yul\":10347:10366   */\n      add\n        /* \"#utility.yul\":10340:10375   */\n      mstore\n        /* \"#utility.yul\":9600:10381   */\n      swap6\n      swap5\n      pop\n      pop\n      pop\n      pop\n      pop\n      jump\t// out\n        /* \"#utility.yul\":10386:11102   */\n    tag_439:\n        /* \"#utility.yul\":10755:10756   */\n      0x01\n        /* \"#utility.yul\":10751:10752   */\n      dup1\n        /* \"#utility.yul\":10746:10749   */\n      0xa0\n        /* \"#utility.yul\":10742:10753   */\n      shl\n        /* \"#utility.yul\":10738:10757   */\n      sub\n        /* \"#utility.yul\":10730:10736   */\n      dup6\n        /* \"#utility.yul\":10726:10758   */\n      and\n        /* \"#utility.yul\":10715:10724   */\n      dup2\n        /* \"#utility.yul\":10708:10759   */\n      mstore\n        /* \"#utility.yul\":10795:10801   */\n      dup4\n        /* \"#utility.yul\":10790:10792   */\n      0x20\n        /* \"#utility.yul\":10779:10788   */\n      dup3\n        /* \"#utility.yul\":10775:10793   */\n      add\n        /* \"#utility.yul\":10768:10802   */\n      mstore\n        /* \"#utility.yul\":10838:10841   */\n      0xa0\n        /* \"#utility.yul\":10833:10835   */\n      0x40\n        /* \"#utility.yul\":10822:10831   */\n      dup3\n        /* \"#utility.yul\":10818:10836   */\n      add\n        /* \"#utility.yul\":10811:10842   */\n      mstore\n        /* \"#utility.yul\":10879:10881   */\n      0x1c\n        /* \"#utility.yul\":10873:10876   */\n      0xa0\n        /* \"#utility.yul\":10862:10871   */\n      dup3\n        /* \"#utility.yul\":10858:10877   */\n      add\n        /* \"#utility.yul\":10851:10882   */\n      mstore\n        /* \"#utility.yul\":10919:10949   */\n      0x6164642875696e743235362c616464726573732c616464726573732900000000\n        /* \"#utility.yul\":10913:10916   */\n      0xc0\n        /* \"#utility.yul\":10902:10911   */\n      dup3\n        /* \"#utility.yul\":10898:10917   */\n      add\n        /* \"#utility.yul\":10891:10950   */\n      mstore\n        /* \"#utility.yul\":10986:10989   */\n      0xe0\n        /* \"#utility.yul\":10981:10983   */\n      0x60\n        /* \"#utility.yul\":10970:10979   */\n      dup3\n        /* \"#utility.yul\":10966:10984   */\n      add\n        /* \"#utility.yul\":10959:10990   */\n      mstore\n        /* \"#utility.yul\":10689:10693   */\n      0x00\n        /* \"#utility.yul\":11007:11052   */\n      tag_598\n        /* \"#utility.yul\":11047:11050   */\n      0xe0\n        /* \"#utility.yul\":11036:11045   */\n      dup4\n        /* \"#utility.yul\":11032:11051   */\n      add\n        /* \"#utility.yul\":11024:11030   */\n      dup6\n        /* \"#utility.yul\":11007:11052   */\n      tag_590\n      jump\t// in\n        /* \"#utility.yul\":11107:11728   */\n    tag_183:\n        /* \"#utility.yul\":11415:11416   */\n      0x01\n        /* \"#utility.yul\":11411:11412   */\n      dup1\n        /* \"#utility.yul\":11406:11409   */\n      0xa0\n        /* \"#utility.yul\":11402:11413   */\n      shl\n        /* \"#utility.yul\":11398:11417   */\n      sub\n        /* \"#utility.yul\":11390:11396   */\n      dup7\n        /* \"#utility.yul\":11386:11418   */\n      and\n        /* \"#utility.yul\":11375:11384   */\n      dup2\n        /* \"#utility.yul\":11368:11419   */\n      mstore\n        /* \"#utility.yul\":11455:11461   */\n      dup5\n        /* \"#utility.yul\":11450:11452   */\n      0x20\n        /* \"#utility.yul\":11439:11448   */\n      dup3\n        /* \"#utility.yul\":11435:11453   */\n      add\n        /* \"#utility.yul\":11428:11462   */\n      mstore\n        /* \"#utility.yul\":11498:11501   */\n      0xa0\n        /* \"#utility.yul\":11493:11495   */\n      0x40\n        /* \"#utility.yul\":11482:11491   */\n      dup3\n        /* \"#utility.yul\":11478:11496   */\n      add\n        /* \"#utility.yul\":11471:11502   */\n      mstore\n        /* \"#utility.yul\":11349:11353   */\n      0x00\n        /* \"#utility.yul\":11525:11570   */\n      tag_608\n        /* \"#utility.yul\":11565:11568   */\n      0xa0\n        /* \"#utility.yul\":11554:11563   */\n      dup4\n        /* \"#utility.yul\":11550:11569   */\n      add\n        /* \"#utility.yul\":11542:11548   */\n      dup7\n        /* \"#utility.yul\":11525:11570   */\n      tag_590\n      jump\t// in\n    tag_608:\n        /* \"#utility.yul\":11618:11627   */\n      dup3\n        /* \"#utility.yul\":11610:11616   */\n      dup2\n        /* \"#utility.yul\":11606:11628   */\n      sub\n        /* \"#utility.yul\":11601:11603   */\n      0x60\n        /* \"#utility.yul\":11590:11599   */\n      dup5\n        /* \"#utility.yul\":11586:11604   */\n      add\n        /* \"#utility.yul\":11579:11629   */\n      mstore\n        /* \"#utility.yul\":11646:11678   */\n      tag_609\n        /* \"#utility.yul\":11671:11677   */\n      dup2\n        /* \"#utility.yul\":11663:11669   */\n      dup7\n        /* \"#utility.yul\":11646:11678   */\n      tag_590\n      jump\t// in\n    tag_609:\n        /* \"#utility.yul\":11638:11678   */\n      swap2\n      pop\n      pop\n        /* \"#utility.yul\":11715:11721   */\n      dup3\n        /* \"#utility.yul\":11709:11712   */\n      0x80\n        /* \"#utility.yul\":11698:11707   */\n      dup4\n        /* \"#utility.yul\":11694:11713   */\n      add\n        /* \"#utility.yul\":11687:11722   */\n      mstore\n        /* \"#utility.yul\":11107:11728   */\n      swap7\n      swap6\n      pop\n      pop\n      pop\n      pop\n      pop\n      pop\n      jump\t// out\n        /* \"#utility.yul\":11733:12646   */\n    tag_90:\n        /* \"#utility.yul\":11964:11966   */\n      0x20\n        /* \"#utility.yul\":12016:12037   */\n      dup1\n      dup3\n      mstore\n        /* \"#utility.yul\":12086:12099   */\n      dup3\n      mload\n        /* \"#utility.yul\":11989:12007   */\n      dup3\n      dup3\n      add\n        /* \"#utility.yul\":12108:12130   */\n      dup2\n      swap1\n      mstore\n        /* \"#utility.yul\":11935:11939   */\n      0x00\n      swap2\n        /* \"#utility.yul\":11964:11966   */\n      swap1\n        /* \"#utility.yul\":12149:12151   */\n      0x40\n      swap1\n        /* \"#utility.yul\":12167:12185   */\n      dup2\n      dup6\n      add\n      swap1\n        /* \"#utility.yul\":12208:12223   */\n      dup7\n      dup5\n      add\n        /* \"#utility.yul\":11935:11939   */\n      dup6\n        /* \"#utility.yul\":12251:12620   */\n    tag_611:\n        /* \"#utility.yul\":12265:12271   */\n      dup3\n        /* \"#utility.yul\":12262:12263   */\n      dup2\n        /* \"#utility.yul\":12259:12272   */\n      lt\n        /* \"#utility.yul\":12251:12620   */\n      iszero\n      tag_613\n      jumpi\n        /* \"#utility.yul\":12324:12337   */\n      dup2\n      mload\n        /* \"#utility.yul\":12408:12417   */\n      dup1\n      mload\n      sub(shl(0xa0, 0x01), 0x01)\n        /* \"#utility.yul\":12404:12422   */\n      swap1\n      dup2\n      and\n        /* \"#utility.yul\":12392:12423   */\n      dup7\n      mstore\n        /* \"#utility.yul\":12463:12474   */\n      dup8\n      dup3\n      add\n        /* \"#utility.yul\":12457:12475   */\n      mload\n        /* \"#utility.yul\":12443:12455   */\n      dup9\n      dup8\n      add\n        /* \"#utility.yul\":12436:12476   */\n      mstore\n        /* \"#utility.yul\":12520:12531   */\n      swap1\n      dup7\n      add\n        /* \"#utility.yul\":12514:12532   */\n      mload\n        /* \"#utility.yul\":12510:12537   */\n      and\n        /* \"#utility.yul\":12496:12508   */\n      dup6\n      dup6\n      add\n        /* \"#utility.yul\":12489:12538   */\n      mstore\n        /* \"#utility.yul\":12567:12571   */\n      0x60\n        /* \"#utility.yul\":12558:12572   */\n      swap1\n      swap4\n      add\n      swap3\n        /* \"#utility.yul\":12595:12610   */\n      swap1\n      dup6\n      add\n      swap1\n        /* \"#utility.yul\":12377:12378   */\n      0x01\n        /* \"#utility.yul\":12280:12289   */\n      add\n        /* \"#utility.yul\":12251:12620   */\n      jump(tag_611)\n    tag_613:\n      pop\n        /* \"#utility.yul\":12637:12640   */\n      swap2\n      swap8\n        /* \"#utility.yul\":11733:12646   */\n      swap7\n      pop\n      pop\n      pop\n      pop\n      pop\n      pop\n      pop\n      jump\t// out\n        /* \"#utility.yul\":12651:13634   */\n    tag_70:\n        /* \"#utility.yul\":12890:12892   */\n      0x20\n        /* \"#utility.yul\":12942:12963   */\n      dup1\n      dup3\n      mstore\n        /* \"#utility.yul\":13012:13025   */\n      dup3\n      mload\n        /* \"#utility.yul\":12915:12933   */\n      dup3\n      dup3\n      add\n        /* \"#utility.yul\":13034:13056   */\n      dup2\n      swap1\n      mstore\n        /* \"#utility.yul\":12861:12865   */\n      0x00\n      swap2\n        /* \"#utility.yul\":12890:12892   */\n      swap1\n        /* \"#utility.yul\":13075:13077   */\n      0x40\n      swap1\n        /* \"#utility.yul\":13093:13111   */\n      dup2\n      dup6\n      add\n      swap1\n        /* \"#utility.yul\":13134:13149   */\n      dup7\n      dup5\n      add\n        /* \"#utility.yul\":12861:12865   */\n      dup6\n        /* \"#utility.yul\":13177:13608   */\n    tag_615:\n        /* \"#utility.yul\":13191:13197   */\n      dup3\n        /* \"#utility.yul\":13188:13189   */\n      dup2\n        /* \"#utility.yul\":13185:13198   */\n      lt\n        /* \"#utility.yul\":13177:13608   */\n      iszero\n      tag_613\n      jumpi\n        /* \"#utility.yul\":13250:13263   */\n      dup2\n      mload\n        /* \"#utility.yul\":13288:13297   */\n      dup1\n      mload\n        /* \"#utility.yul\":13276:13298   */\n      dup6\n      mstore\n        /* \"#utility.yul\":13338:13349   */\n      dup7\n      dup2\n      add\n        /* \"#utility.yul\":13332:13350   */\n      mload\n        /* \"#utility.yul\":13318:13330   */\n      dup8\n      dup7\n      add\n        /* \"#utility.yul\":13311:13351   */\n      mstore\n        /* \"#utility.yul\":13395:13406   */\n      dup6\n      dup2\n      add\n        /* \"#utility.yul\":13389:13407   */\n      mload\n      sub(shl(0xa0, 0x01), 0x01)\n        /* \"#utility.yul\":13385:13429   */\n      and\n        /* \"#utility.yul\":13371:13383   */\n      dup7\n      dup7\n      add\n        /* \"#utility.yul\":13364:13430   */\n      mstore\n        /* \"#utility.yul\":13453:13457   */\n      0x60\n        /* \"#utility.yul\":13511:13522   */\n      swap1\n      dup2\n      add\n        /* \"#utility.yul\":13505:13523   */\n      mload\n        /* \"#utility.yul\":13498:13524   */\n      iszero\n        /* \"#utility.yul\":13491:13525   */\n      iszero\n        /* \"#utility.yul\":13477:13489   */\n      swap1\n      dup6\n      add\n        /* \"#utility.yul\":13470:13526   */\n      mstore\n        /* \"#utility.yul\":13555:13559   */\n      0x80\n        /* \"#utility.yul\":13546:13560   */\n      swap1\n      swap4\n      add\n      swap3\n        /* \"#utility.yul\":13583:13598   */\n      swap1\n      dup6\n      add\n      swap1\n        /* \"#utility.yul\":13426:13427   */\n      0x01\n        /* \"#utility.yul\":13206:13215   */\n      add\n        /* \"#utility.yul\":13177:13608   */\n      jump(tag_615)\n        /* \"#utility.yul\":13639:14271   */\n    tag_120:\n        /* \"#utility.yul\":13810:13812   */\n      0x20\n        /* \"#utility.yul\":13862:13883   */\n      dup1\n      dup3\n      mstore\n        /* \"#utility.yul\":13932:13945   */\n      dup3\n      mload\n        /* \"#utility.yul\":13835:13853   */\n      dup3\n      dup3\n      add\n        /* \"#utility.yul\":13954:13976   */\n      dup2\n      swap1\n      mstore\n        /* \"#utility.yul\":13781:13785   */\n      0x00\n      swap2\n        /* \"#utility.yul\":13810:13812   */\n      swap1\n        /* \"#utility.yul\":14033:14048   */\n      dup5\n      dup3\n      add\n      swap1\n        /* \"#utility.yul\":14007:14009   */\n      0x40\n        /* \"#utility.yul\":13992:14010   */\n      dup6\n      add\n      swap1\n        /* \"#utility.yul\":13781:13785   */\n      dup5\n        /* \"#utility.yul\":14076:14245   */\n    tag_619:\n        /* \"#utility.yul\":14090:14096   */\n      dup2\n        /* \"#utility.yul\":14087:14088   */\n      dup2\n        /* \"#utility.yul\":14084:14097   */\n      lt\n        /* \"#utility.yul\":14076:14245   */\n      iszero\n      tag_621\n      jumpi\n        /* \"#utility.yul\":14151:14164   */\n      dup4\n      mload\n        /* \"#utility.yul\":14139:14165   */\n      dup4\n      mstore\n        /* \"#utility.yul\":14220:14235   */\n      swap3\n      dup5\n      add\n      swap3\n        /* \"#utility.yul\":14185:14197   */\n      swap2\n      dup5\n      add\n      swap2\n        /* \"#utility.yul\":14112:14113   */\n      0x01\n        /* \"#utility.yul\":14105:14114   */\n      add\n        /* \"#utility.yul\":14076:14245   */\n      jump(tag_619)\n    tag_621:\n      pop\n        /* \"#utility.yul\":14262:14265   */\n      swap1\n      swap7\n        /* \"#utility.yul\":13639:14271   */\n      swap6\n      pop\n      pop\n      pop\n      pop\n      pop\n      pop\n      jump\t// out\n        /* \"#utility.yul\":14650:14867   */\n    tag_47:\n        /* \"#utility.yul\":14797:14799   */\n      0x20\n        /* \"#utility.yul\":14786:14795   */\n      dup2\n        /* \"#utility.yul\":14779:14800   */\n      mstore\n        /* \"#utility.yul\":14760:14764   */\n      0x00\n        /* \"#utility.yul\":14817:14861   */\n      tag_395\n        /* \"#utility.yul\":14857:14859   */\n      0x20\n        /* \"#utility.yul\":14846:14855   */\n      dup4\n        /* \"#utility.yul\":14842:14860   */\n      add\n        /* \"#utility.yul\":14834:14840   */\n      dup5\n        /* \"#utility.yul\":14817:14861   */\n      tag_590\n      jump\t// in\n        /* \"#utility.yul\":16102:16499   */\n    tag_221:\n        /* \"#utility.yul\":16304:16306   */\n      0x20\n        /* \"#utility.yul\":16286:16307   */\n      dup1\n      dup3\n      mstore\n        /* \"#utility.yul\":16343:16345   */\n      0x21\n        /* \"#utility.yul\":16323:16341   */\n      swap1\n      dup3\n      add\n        /* \"#utility.yul\":16316:16346   */\n      mstore\n        /* \"#utility.yul\":16382:16416   */\n      0x45544120616c726561647920757365642c2063686f7365206f74686572206574\n        /* \"#utility.yul\":16377:16379   */\n      0x40\n        /* \"#utility.yul\":16362:16380   */\n      dup3\n      add\n        /* \"#utility.yul\":16355:16417   */\n      mstore\n      shl(0xf8, 0x61)\n        /* \"#utility.yul\":16448:16450   */\n      0x60\n        /* \"#utility.yul\":16433:16451   */\n      dup3\n      add\n        /* \"#utility.yul\":16426:16457   */\n      mstore\n        /* \"#utility.yul\":16489:16492   */\n      0x80\n        /* \"#utility.yul\":16474:16493   */\n      add\n      swap1\n        /* \"#utility.yul\":16102:16499   */\n      jump\t// out\n        /* \"#utility.yul\":17514:17959   */\n    tag_110:\n        /* \"#utility.yul\":17757:17782   */\n      swap4\n      dup5\n      mstore\n        /* \"#utility.yul\":17813:17815   */\n      0x20\n        /* \"#utility.yul\":17798:17816   */\n      dup5\n      add\n        /* \"#utility.yul\":17791:17825   */\n      swap3\n      swap1\n      swap3\n      mstore\n      sub(shl(0xa0, 0x01), 0x01)\n        /* \"#utility.yul\":17861:17893   */\n      and\n        /* \"#utility.yul\":17856:17858   */\n      0x40\n        /* \"#utility.yul\":17841:17859   */\n      dup4\n      add\n        /* \"#utility.yul\":17834:17894   */\n      mstore\n        /* \"#utility.yul\":17937:17951   */\n      iszero\n        /* \"#utility.yul\":17930:17952   */\n      iszero\n        /* \"#utility.yul\":17925:17927   */\n      0x60\n        /* \"#utility.yul\":17910:17928   */\n      dup3\n      add\n        /* \"#utility.yul\":17903:17953   */\n      mstore\n        /* \"#utility.yul\":17744:17747   */\n      0x80\n        /* \"#utility.yul\":17729:17748   */\n      add\n      swap1\n        /* \"#utility.yul\":17514:17959   */\n      jump\t// out\n        /* \"#utility.yul\":17964:18239   */\n    tag_530:\n        /* \"#utility.yul\":18035:18037   */\n      0x40\n        /* \"#utility.yul\":18029:18038   */\n      mload\n        /* \"#utility.yul\":18100:18102   */\n      0x1f\n        /* \"#utility.yul\":18081:18094   */\n      dup3\n      add\n      not(0x1f)\n        /* \"#utility.yul\":18077:18104   */\n      and\n        /* \"#utility.yul\":18065:18105   */\n      dup2\n      add\n        /* \"#utility.yul\":18135:18153   */\n      0xffffffffffffffff\n        /* \"#utility.yul\":18120:18154   */\n      dup2\n      gt\n        /* \"#utility.yul\":18156:18178   */\n      dup3\n      dup3\n      lt\n        /* \"#utility.yul\":18117:18179   */\n      or\n        /* \"#utility.yul\":18114:18202   */\n      iszero\n      tag_638\n      jumpi\n        /* \"#utility.yul\":18182:18200   */\n      tag_638\n      tag_494\n      jump\t// in\n    tag_638:\n        /* \"#utility.yul\":18218:18220   */\n      0x40\n        /* \"#utility.yul\":18211:18233   */\n      mstore\n        /* \"#utility.yul\":17964:18239   */\n      swap2\n      swap1\n      pop\n      jump\t// out\n        /* \"#utility.yul\":18244:18430   */\n    tag_529:\n        /* \"#utility.yul\":18292:18296   */\n      0x00\n        /* \"#utility.yul\":18325:18343   */\n      0xffffffffffffffff\n        /* \"#utility.yul\":18317:18323   */\n      dup3\n        /* \"#utility.yul\":18314:18344   */\n      gt\n        /* \"#utility.yul\":18311:18367   */\n      iszero\n      tag_641\n      jumpi\n        /* \"#utility.yul\":18347:18365   */\n      tag_641\n      tag_494\n      jump\t// in\n    tag_641:\n      pop\n        /* \"#utility.yul\":18413:18415   */\n      0x1f\n        /* \"#utility.yul\":18392:18407   */\n      add\n      not(0x1f)\n        /* \"#utility.yul\":18388:18417   */\n      and\n        /* \"#utility.yul\":18419:18423   */\n      0x20\n        /* \"#utility.yul\":18384:18424   */\n      add\n      swap1\n        /* \"#utility.yul\":18244:18430   */\n      jump\t// out\n        /* \"#utility.yul\":18435:18563   */\n    tag_491:\n        /* \"#utility.yul\":18475:18478   */\n      0x00\n        /* \"#utility.yul\":18506:18507   */\n      dup3\n        /* \"#utility.yul\":18502:18508   */\n      not\n        /* \"#utility.yul\":18499:18500   */\n      dup3\n        /* \"#utility.yul\":18496:18509   */\n      gt\n        /* \"#utility.yul\":18493:18532   */\n      iszero\n      tag_644\n      jumpi\n        /* \"#utility.yul\":18512:18530   */\n      tag_644\n      tag_645\n      jump\t// in\n    tag_644:\n      pop\n        /* \"#utility.yul\":18548:18557   */\n      add\n      swap1\n        /* \"#utility.yul\":18435:18563   */\n      jump\t// out\n        /* \"#utility.yul\":18568:18736   */\n    tag_489:\n        /* \"#utility.yul\":18608:18615   */\n      0x00\n        /* \"#utility.yul\":18674:18675   */\n      dup2\n        /* \"#utility.yul\":18670:18671   */\n      0x00\n        /* \"#utility.yul\":18666:18672   */\n      not\n        /* \"#utility.yul\":18662:18676   */\n      div\n        /* \"#utility.yul\":18659:18660   */\n      dup4\n        /* \"#utility.yul\":18656:18677   */\n      gt\n        /* \"#utility.yul\":18651:18652   */\n      dup3\n        /* \"#utility.yul\":18644:18653   */\n      iszero\n        /* \"#utility.yul\":18637:18654   */\n      iszero\n        /* \"#utility.yul\":18633:18678   */\n      and\n        /* \"#utility.yul\":18630:18701   */\n      iszero\n      tag_648\n      jumpi\n        /* \"#utility.yul\":18681:18699   */\n      tag_648\n      tag_645\n      jump\t// in\n    tag_648:\n      pop\n        /* \"#utility.yul\":18721:18730   */\n      mul\n      swap1\n        /* \"#utility.yul\":18568:18736   */\n      jump\t// out\n        /* \"#utility.yul\":18741:18999   */\n    tag_579:\n        /* \"#utility.yul\":18813:18814   */\n      0x00\n        /* \"#utility.yul\":18823:18936   */\n    tag_650:\n        /* \"#utility.yul\":18837:18843   */\n      dup4\n        /* \"#utility.yul\":18834:18835   */\n      dup2\n        /* \"#utility.yul\":18831:18844   */\n      lt\n        /* \"#utility.yul\":18823:18936   */\n      iszero\n      tag_652\n      jumpi\n        /* \"#utility.yul\":18913:18924   */\n      dup2\n      dup2\n      add\n        /* \"#utility.yul\":18907:18925   */\n      mload\n        /* \"#utility.yul\":18894:18905   */\n      dup4\n      dup3\n      add\n        /* \"#utility.yul\":18887:18926   */\n      mstore\n        /* \"#utility.yul\":18859:18861   */\n      0x20\n        /* \"#utility.yul\":18852:18862   */\n      add\n        /* \"#utility.yul\":18823:18936   */\n      jump(tag_650)\n    tag_652:\n        /* \"#utility.yul\":18954:18960   */\n      dup4\n        /* \"#utility.yul\":18951:18952   */\n      dup2\n        /* \"#utility.yul\":18948:18961   */\n      gt\n        /* \"#utility.yul\":18945:18993   */\n      iszero\n      tag_270\n      jumpi\n      pop\n      pop\n        /* \"#utility.yul\":18989:18990   */\n      0x00\n        /* \"#utility.yul\":18971:18987   */\n      swap2\n      add\n        /* \"#utility.yul\":18964:18991   */\n      mstore\n        /* \"#utility.yul\":18741:18999   */\n      jump\t// out\n        /* \"#utility.yul\":19004:19140   */\n    tag_510:\n        /* \"#utility.yul\":19043:19046   */\n      0x00\n        /* \"#utility.yul\":19071:19076   */\n      dup2\n        /* \"#utility.yul\":19061:19100   */\n      tag_656\n      jumpi\n        /* \"#utility.yul\":19080:19098   */\n      tag_656\n      tag_645\n      jump\t// in\n    tag_656:\n      pop\n      not(0x00)\n        /* \"#utility.yul\":19116:19134   */\n      add\n      swap1\n        /* \"#utility.yul\":19004:19140   */\n      jump\t// out\n        /* \"#utility.yul\":19145:19280   */\n    tag_238:\n        /* \"#utility.yul\":19184:19187   */\n      0x00\n      not(0x00)\n        /* \"#utility.yul\":19205:19222   */\n      dup3\n      eq\n        /* \"#utility.yul\":19202:19245   */\n      iszero\n      tag_659\n      jumpi\n        /* \"#utility.yul\":19225:19243   */\n      tag_659\n      tag_645\n      jump\t// in\n    tag_659:\n      pop\n        /* \"#utility.yul\":19272:19273   */\n      0x01\n        /* \"#utility.yul\":19261:19274   */\n      add\n      swap1\n        /* \"#utility.yul\":19145:19280   */\n      jump\t// out\n        /* \"#utility.yul\":19285:19412   */\n    tag_645:\n        /* \"#utility.yul\":19346:19356   */\n      0x4e487b71\n        /* \"#utility.yul\":19341:19344   */\n      0xe0\n        /* \"#utility.yul\":19337:19357   */\n      shl\n        /* \"#utility.yul\":19334:19335   */\n      0x00\n        /* \"#utility.yul\":19327:19358   */\n      mstore\n        /* \"#utility.yul\":19377:19381   */\n      0x11\n        /* \"#utility.yul\":19374:19375   */\n      0x04\n        /* \"#utility.yul\":19367:19382   */\n      mstore\n        /* \"#utility.yul\":19401:19405   */\n      0x24\n        /* \"#utility.yul\":19398:19399   */\n      0x00\n        /* \"#utility.yul\":19391:19406   */\n      revert\n        /* \"#utility.yul\":19417:19544   */\n    tag_259:\n        /* \"#utility.yul\":19478:19488   */\n      0x4e487b71\n        /* \"#utility.yul\":19473:19476   */\n      0xe0\n        /* \"#utility.yul\":19469:19489   */\n      shl\n        /* \"#utility.yul\":19466:19467   */\n      0x00\n        /* \"#utility.yul\":19459:19490   */\n      mstore\n        /* \"#utility.yul\":19509:19513   */\n      0x21\n        /* \"#utility.yul\":19506:19507   */\n      0x04\n        /* \"#utility.yul\":19499:19514   */\n      mstore\n        /* \"#utility.yul\":19533:19537   */\n      0x24\n        /* \"#utility.yul\":19530:19531   */\n      0x00\n        /* \"#utility.yul\":19523:19538   */\n      revert\n        /* \"#utility.yul\":19549:19676   */\n    tag_233:\n        /* \"#utility.yul\":19610:19620   */\n      0x4e487b71\n        /* \"#utility.yul\":19605:19608   */\n      0xe0\n        /* \"#utility.yul\":19601:19621   */\n      shl\n        /* \"#utility.yul\":19598:19599   */\n      0x00\n        /* \"#utility.yul\":19591:19622   */\n      mstore\n        /* \"#utility.yul\":19641:19645   */\n      0x32\n        /* \"#utility.yul\":19638:19639   */\n      0x04\n        /* \"#utility.yul\":19631:19646   */\n      mstore\n        /* \"#utility.yul\":19665:19669   */\n      0x24\n        /* \"#utility.yul\":19662:19663   */\n      0x00\n        /* \"#utility.yul\":19655:19670   */\n      revert\n        /* \"#utility.yul\":19681:19808   */\n    tag_494:\n        /* \"#utility.yul\":19742:19752   */\n      0x4e487b71\n        /* \"#utility.yul\":19737:19740   */\n      0xe0\n        /* \"#utility.yul\":19733:19753   */\n      shl\n        /* \"#utility.yul\":19730:19731   */\n      0x00\n        /* \"#utility.yul\":19723:19754   */\n      mstore\n        /* \"#utility.yul\":19773:19777   */\n      0x41\n        /* \"#utility.yul\":19770:19771   */\n      0x04\n        /* \"#utility.yul\":19763:19778   */\n      mstore\n        /* \"#utility.yul\":19797:19801   */\n      0x24\n        /* \"#utility.yul\":19794:19795   */\n      0x00\n        /* \"#utility.yul\":19787:19802   */\n      revert\n        /* \"#utility.yul\":19813:20024   */\n    tag_664:\n        /* \"#utility.yul\":19933:19944   */\n      dup1\n      sload\n      not(sub(shl(0xa0, 0x01), 0x01))\n        /* \"#utility.yul\":19929:19983   */\n      and\n      sub(shl(0xa0, 0x01), 0x01)\n        /* \"#utility.yul\":19985:20016   */\n      swap3\n      swap1\n      swap3\n      and\n        /* \"#utility.yul\":19926:20017   */\n      swap2\n      swap1\n      swap2\n      or\n        /* \"#utility.yul\":19913:20018   */\n      swap1\n      sstore\n        /* \"#utility.yul\":19813:20024   */\n      jump\t// out\n        /* \"#utility.yul\":20029:20593   */\n    tag_236:\n        /* \"#utility.yul\":20204:20209   */\n      dup2\n        /* \"#utility.yul\":20191:20210   */\n      calldataload\n        /* \"#utility.yul\":20219:20252   */\n      tag_667\n        /* \"#utility.yul\":20244:20251   */\n      dup2\n        /* \"#utility.yul\":20219:20252   */\n      tag_538\n      jump\t// in\n    tag_667:\n        /* \"#utility.yul\":20261:20339   */\n      tag_668\n        /* \"#utility.yul\":20331:20338   */\n      dup2\n        /* \"#utility.yul\":20325:20329   */\n      dup4\n        /* \"#utility.yul\":20261:20339   */\n      tag_664\n      jump\t// in\n    tag_668:\n      pop\n        /* \"#utility.yul\":20393:20395   */\n      0x20\n        /* \"#utility.yul\":20386:20391   */\n      dup3\n        /* \"#utility.yul\":20382:20396   */\n      add\n        /* \"#utility.yul\":20369:20397   */\n      calldataload\n        /* \"#utility.yul\":20365:20366   */\n      0x01\n        /* \"#utility.yul\":20359:20363   */\n      dup3\n        /* \"#utility.yul\":20355:20367   */\n      add\n        /* \"#utility.yul\":20348:20398   */\n      sstore\n        /* \"#utility.yul\":20446:20448   */\n      0x40\n        /* \"#utility.yul\":20439:20444   */\n      dup3\n        /* \"#utility.yul\":20435:20449   */\n      add\n        /* \"#utility.yul\":20422:20450   */\n      calldataload\n        /* \"#utility.yul\":20459:20492   */\n      tag_669\n        /* \"#utility.yul\":20484:20491   */\n      dup2\n        /* \"#utility.yul\":20459:20492   */\n      tag_538\n      jump\t// in\n    tag_669:\n        /* \"#utility.yul\":20501:20587   */\n      tag_195\n        /* \"#utility.yul\":20579:20586   */\n      dup2\n        /* \"#utility.yul\":20575:20576   */\n      0x02\n        /* \"#utility.yul\":20569:20573   */\n      dup5\n        /* \"#utility.yul\":20565:20577   */\n      add\n        /* \"#utility.yul\":20501:20587   */\n      tag_664\n      jump\t// in\n        /* \"#utility.yul\":20598:21353   */\n    tag_357:\n        /* \"#utility.yul\":20779:20784   */\n      dup2\n        /* \"#utility.yul\":20766:20785   */\n      calldataload\n        /* \"#utility.yul\":20760:20764   */\n      dup2\n        /* \"#utility.yul\":20753:20786   */\n      sstore\n        /* \"#utility.yul\":20840:20842   */\n      0x20\n        /* \"#utility.yul\":20833:20838   */\n      dup3\n        /* \"#utility.yul\":20829:20843   */\n      add\n        /* \"#utility.yul\":20816:20844   */\n      calldataload\n        /* \"#utility.yul\":20812:20813   */\n      0x01\n        /* \"#utility.yul\":20806:20810   */\n      dup3\n        /* \"#utility.yul\":20802:20814   */\n      add\n        /* \"#utility.yul\":20795:20845   */\n      sstore\n        /* \"#utility.yul\":20882:20883   */\n      0x02\n        /* \"#utility.yul\":20876:20880   */\n      dup2\n        /* \"#utility.yul\":20872:20884   */\n      add\n        /* \"#utility.yul\":20932:20934   */\n      0x40\n        /* \"#utility.yul\":20925:20930   */\n      dup4\n        /* \"#utility.yul\":20921:20935   */\n      add\n        /* \"#utility.yul\":20908:20936   */\n      calldataload\n        /* \"#utility.yul\":20945:20978   */\n      tag_672\n        /* \"#utility.yul\":20970:20977   */\n      dup2\n        /* \"#utility.yul\":20945:20978   */\n      tag_538\n      jump\t// in\n    tag_672:\n        /* \"#utility.yul\":20987:21071   */\n      tag_673\n        /* \"#utility.yul\":21063:21070   */\n      dup2\n        /* \"#utility.yul\":21051:21061   */\n      dup4\n        /* \"#utility.yul\":20987:21071   */\n      tag_664\n      jump\t// in\n    tag_673:\n      pop\n        /* \"#utility.yul\":21119:21121   */\n      0x60\n        /* \"#utility.yul\":21112:21117   */\n      dup4\n        /* \"#utility.yul\":21108:21122   */\n      add\n        /* \"#utility.yul\":21095:21123   */\n      calldataload\n        /* \"#utility.yul\":21156:21163   */\n      dup1\n        /* \"#utility.yul\":21149:21164   */\n      iszero\n        /* \"#utility.yul\":21142:21165   */\n      iszero\n        /* \"#utility.yul\":21196:21198   */\n      dup1\n        /* \"#utility.yul\":21187:21194   */\n      dup3\n        /* \"#utility.yul\":21184:21199   */\n      eq\n        /* \"#utility.yul\":21174:21217   */\n      tag_674\n      jumpi\n        /* \"#utility.yul\":21213:21214   */\n      0x00\n        /* \"#utility.yul\":21210:21211   */\n      dup1\n        /* \"#utility.yul\":21203:21215   */\n      revert\n        /* \"#utility.yul\":21174:21217   */\n    tag_674:\n        /* \"#utility.yul\":21236:21253   */\n      dup3\n      sload\n      not(shl(0xa0, 0xff))\n        /* \"#utility.yul\":21284:21311   */\n      and\n        /* \"#utility.yul\":21335:21338   */\n      0xa0\n        /* \"#utility.yul\":21317:21329   */\n      swap2\n      swap1\n      swap2\n      shl\n      shl(0xa0, 0xff)\n        /* \"#utility.yul\":21313:21345   */\n      and\n        /* \"#utility.yul\":21281:21346   */\n      or\n        /* \"#utility.yul\":21262:21347   */\n      swap1\n      swap2\n      sstore\n      pop\n      pop\n      pop\n        /* \"#utility.yul\":20598:21353   */\n      jump\t// out\n        /* \"#utility.yul\":21358:21489   */\n    tag_538:\n      sub(shl(0xa0, 0x01), 0x01)\n        /* \"#utility.yul\":21433:21464   */\n      dup2\n      and\n        /* \"#utility.yul\":21423:21465   */\n      dup2\n      eq\n        /* \"#utility.yul\":21413:21483   */\n      tag_676\n      jumpi\n        /* \"#utility.yul\":21479:21480   */\n      0x00\n        /* \"#utility.yul\":21476:21477   */\n      dup1\n        /* \"#utility.yul\":21469:21481   */\n      revert\n        /* \"#utility.yul\":21413:21483   */\n    tag_676:\n        /* \"#utility.yul\":21358:21489   */\n      pop\n      jump\t// out\n    stop\n    data_846a6eeaa8e17fb1d59b9d1ac80053a90c6e3388f7eba1375988b8c9cfe2950c 9ca25149b3fbef66d98c546a0b372e96b9626f14ed669dd7ba430d3a8f225fd2\n\n    auxdata: 0xa26469706673582212209d27af68736f088768e67ac77250a20842e4342e50fea2755d5628ff722315cc64736f6c63430008070033\n}\n",
				"bytecode": {
					"linkReferences": {},
					"object": "60c06040523480156200001157600080fd5b50604051620029b4380380620029b483398101604081905262000034916200014b565b6001600160601b0319606085811b821660805284901b1660a0526200005b6000836200009b565b6200007660008051602062002994833981519152836200009b565b6200009160008051602062002994833981519152826200009b565b50505050620001cc565b620000a78282620000ab565b5050565b6000828152602081815260408083206001600160a01b038516845290915290205460ff16620000a7576000828152602081815260408083206001600160a01b03851684529091529020805460ff19166001179055620001073390565b6001600160a01b0316816001600160a01b0316837f2f8788117e7eff1d82e926ec794901d17c78024a50270940304540a733656f0d60405160405180910390a45050565b600080600080608085870312156200016257600080fd5b84516200016f81620001b3565b60208601519094506200018281620001b3565b60408601519093506200019581620001b3565b6060860151909250620001a881620001b3565b939692955090935050565b6001600160a01b0381168114620001c957600080fd5b50565b60805160601c60a05160601c612702620002926000396000818161034401528181610b8f01528181610c7901528181610edf01528181610f7301528181611391015281816115540152818161172201526118e9015260008181610507015281816106110152818161083701528181610a4f01528181610b6601528181610c5001528181610d8401528181610df601528181610eb001528181610f44015281816111200152818161136201528181611525015281816116f301526118ba01526127026000f3fe60806040526004361061019c5760003560e01c80635ffc71b8116100ec578063ab6989571161008a578063d33219b411610064578063d33219b4146104f5578063d547741f14610529578063eeaba75d14610549578063fde9b2261461055e57600080fd5b8063ab69895714610485578063c8cc3cd8146104a5578063cae5984b146104c557600080fd5b80638a1d28f1116100c65780638a1d28f11461041057806391d14854146104305780639c2826ef14610450578063a217fddf1461047057600080fd5b80635ffc71b81461039e5780636f3e6f34146103ce57806374d510f7146103ee57600080fd5b806336568abe1161015957806341065e0e1161013357806341065e0e14610305578063441e7d5814610234578063575a86b214610332578063591fcdfe1461037e57600080fd5b806336568abe146102a55780633a66f901146102c55780633b8505a3146102e557600080fd5b806301ffc9a7146101a15780630825f38f146101d6578063248a9ca3146101f657806325e06309146102345780632f2ff15d1461025657806333c9ef9f14610278575b600080fd5b3480156101ad57600080fd5b506101c16101bc366004611f1f565b6105a8565b60405190151581526020015b60405180910390f35b6101e96101e4366004611d2a565b6105df565b6040516101cd919061241c565b34801561020257600080fd5b50610226610211366004611ebd565b60009081526020819052604090206001015490565b6040519081526020016101cd565b34801561024057600080fd5b506102266000805160206126ad83398151915281565b34801561026257600080fd5b50610276610271366004611eef565b6106af565b005b34801561028457600080fd5b50610298610293366004611ebd565b6106da565b6040516101cd9190612376565b3480156102b157600080fd5b506102766102c0366004611eef565b610782565b3480156102d157600080fd5b506102266102e0366004611d2a565b610805565b3480156102f157600080fd5b50610276610300366004611ddd565b6108c6565b34801561031157600080fd5b50610325610320366004611ebd565b610992565b6040516101cd9190612310565b34801561033e57600080fd5b506103667f000000000000000000000000000000000000000000000000000000000000000081565b6040516001600160a01b0390911681526020016101cd565b34801561038a57600080fd5b50610276610399366004611d2a565b610a1f565b3480156103aa57600080fd5b506103be6103b9366004611fec565b610ac6565b6040516101cd9493929190612470565b3480156103da57600080fd5b506102766103e9366004611cec565b610b1d565b3480156103fa57600080fd5b50610403610d2a565b6040516101cd91906123d8565b34801561041c57600080fd5b5061027661042b366004611cec565b610d3b565b34801561043c57600080fd5b506101c161044b366004611eef565b610e52565b34801561045c57600080fd5b5061027661046b36600461200e565b610e7b565b34801561047c57600080fd5b50610226600081565b34801561049157600080fd5b506102766104a0366004611fc0565b610fd6565b3480156104b157600080fd5b506102766104c0366004611e58565b61101b565b3480156104d157600080fd5b506101c16104e0366004611ebd565b60036020526000908152604090205460ff1681565b34801561050157600080fd5b506103667f000000000000000000000000000000000000000000000000000000000000000081565b34801561053557600080fd5b50610276610544366004611eef565b6110df565b34801561055557600080fd5b50610276611105565b34801561056a57600080fd5b5061057e610579366004611fec565b61118d565b604080516001600160a01b03948516815260208101939093529216918101919091526060016101cd565b60006001600160e01b03198216637965db0b60e01b14806105d957506301ffc9a760e01b6001600160e01b03198316145b92915050565b60606000805160206126ad8339815191526105fa81336111da565b604051630825f38f60e01b81526001600160a01b037f00000000000000000000000000000000000000000000000000000000000000001690630825f38f9061064e908a908a908a908a908a906004016122c4565b600060405180830381600087803b15801561066857600080fd5b505af115801561067c573d6000803e3d6000fd5b505050506040513d6000823e601f3d908101601f191682016040526106a49190810190611f49565b979650505050505050565b6000828152602081905260409020600101546106cb81336111da565b6106d5838361123e565b505050565b606060026000838152602001908152602001600020805480602002602001604051908101604052809291908181526020016000905b82821015610777576000848152602090819020604080516080810182526003860290920180548352600180820154848601526002909101546001600160a01b03811692840192909252600160a01b90910460ff1615156060830152908352909201910161070f565b505050509050919050565b6001600160a01b03811633146107f75760405162461bcd60e51b815260206004820152602f60248201527f416363657373436f6e74726f6c3a2063616e206f6e6c792072656e6f756e636560448201526e103937b632b9903337b91039b2b63360891b60648201526084015b60405180910390fd5b61080182826112c2565b5050565b60006000805160206126ad83398151915261082081336111da565b604051633a66f90160e01b81526001600160a01b037f00000000000000000000000000000000000000000000000000000000000000001690633a66f90190610874908a908a908a908a908a906004016122c4565b602060405180830381600087803b15801561088e57600080fd5b505af11580156108a2573d6000803e3d6000fd5b505050506040513d601f19601f820116820180604052508101906106a49190611ed6565b600081815260036020526040902054819060ff16156108f75760405162461bcd60e51b81526004016107ee9061242f565b610902600482611327565b506000805160206126ad83398151915261091c81336111da565b60005b8481101561098a576000848152600160205260409020868683818110610947576109476125b0565b83546001810185556000948552602090942060609091029290920192600302909101905061097582826125fc565b5050808061098290612569565b91505061091f565b505050505050565b606060016000838152602001908152602001600020805480602002602001604051908101604052809291908181526020016000905b82821015610777576000848152602090819020604080516060810182526003860290920180546001600160a01b03908116845260018083015485870152600290920154169183019190915290835290920191016109c7565b6000805160206126ad833981519152610a3881336111da565b604051632c8fe6ff60e11b81526001600160a01b037f0000000000000000000000000000000000000000000000000000000000000000169063591fcdfe90610a8c90899089908990899089906004016122c4565b600060405180830381600087803b158015610aa657600080fd5b505af1158015610aba573d6000803e3d6000fd5b50505050505050505050565b60026020528160005260406000208181548110610ae257600080fd5b60009182526020909120600390910201805460018201546002909201549093509091506001600160a01b03811690600160a01b900460ff1684565b6000805160206126ad833981519152610b3681336111da565b6000826001811115610b4a57610b4a61259a565b1415610c3a57604080516001600160a01b0386811660208301527f00000000000000000000000000000000000000000000000000000000000000001691633a66f901917f00000000000000000000000000000000000000000000000000000000000000009160009101604051602081830303815290604052876040518563ffffffff1660e01b8152600401610be29493929190612147565b602060405180830381600087803b158015610bfc57600080fd5b505af1158015610c10573d6000803e3d6000fd5b505050506040513d601f19601f82011682018060405250810190610c349190611ed6565b50610d24565b604080516001600160a01b0386811660208301527f00000000000000000000000000000000000000000000000000000000000000001691630825f38f917f00000000000000000000000000000000000000000000000000000000000000009160009101604051602081830303815290604052876040518563ffffffff1660e01b8152600401610ccc9493929190612147565b600060405180830381600087803b158015610ce657600080fd5b505af1158015610cfa573d6000803e3d6000fd5b505050506040513d6000823e601f3d908101601f19168201604052610d229190810190611f49565b505b50505050565b6060610d36600461133a565b905090565b6000805160206126ad833981519152610d5481336111da565b6000826001811115610d6857610d6861259a565b1415610de057604080516001600160a01b0386811660208301527f000000000000000000000000000000000000000000000000000000000000000090811692633a66f9019260009101604051602081830303815290604052876040518563ffffffff1660e01b8152600401610be29493929190612196565b604080516001600160a01b0386811660208301527f000000000000000000000000000000000000000000000000000000000000000090811692630825f38f9260009101604051602081830303815290604052876040518563ffffffff1660e01b8152600401610ccc9493929190612196565b6000918252602082815260408084206001600160a01b0393909316845291905290205460ff1690565b6000805160206126ad833981519152610e9481336111da565b6000826001811115610ea857610ea861259a565b1415610f42577f00000000000000000000000000000000000000000000000000000000000000006001600160a01b0316633a66f9017f0000000000000000000000000000000000000000000000000000000000000000600087604051602001610f1391815260200190565b604051602081830303815290604052876040518563ffffffff1660e01b8152600401610be294939291906120db565b7f00000000000000000000000000000000000000000000000000000000000000006001600160a01b0316630825f38f7f0000000000000000000000000000000000000000000000000000000000000000600087604051602001610fa791815260200190565b604051602081830303815290604052876040518563ffffffff1660e01b8152600401610ccc94939291906120db565b6000805160206126ad833981519152610fef81336111da565b60008260018111156110035761100361259a565b1415611012576106d583611347565b6106d5836116d8565b600081815260036020526040902054819060ff161561104c5760405162461bcd60e51b81526004016107ee9061242f565b611057600482611327565b506000805160206126ad83398151915261107181336111da565b60005b8481101561098a57600084815260026020526040902086868381811061109c5761109c6125b0565b8354600181018555600094855260209094206080909102929092019260030290910190506110ca8282612637565b505080806110d790612569565b915050611074565b6000828152602081905260409020600101546110fb81336111da565b6106d583836112c2565b6000805160206126ad83398151915261111e81336111da565b7f00000000000000000000000000000000000000000000000000000000000000006001600160a01b0316630e18b6816040518163ffffffff1660e01b8152600401600060405180830381600087803b15801561117957600080fd5b505af1158015610d22573d6000803e3d6000fd5b600160205281600052604060002081815481106111a957600080fd5b60009182526020909120600390910201805460018201546002909201546001600160a01b0391821694509192501683565b6111e48282610e52565b610801576111fc816001600160a01b03166014611a53565b611207836020611a53565b604051602001611218929190612066565b60408051601f198184030181529082905262461bcd60e51b82526107ee9160040161241c565b6112488282610e52565b610801576000828152602081815260408083206001600160a01b03851684529091529020805460ff1916600117905561127e3390565b6001600160a01b0316816001600160a01b0316837f2f8788117e7eff1d82e926ec794901d17c78024a50270940304540a733656f0d60405160405180910390a45050565b6112cc8282610e52565b15610801576000828152602081815260408083206001600160a01b0385168085529252808320805460ff1916905551339285917ff6391f5c32d9c69d2a47ea670b442974b53935d1edc7fd64eb21e047a839171b9190a45050565b60006113338383611bef565b9392505050565b6060600061133383611c3e565b6000818152600260205260408120905b8154811015611509577f00000000000000000000000000000000000000000000000000000000000000006001600160a01b0316633a66f9017f000000000000000000000000000000000000000000000000000000000000000060008585815481106113c4576113c46125b0565b9060005260206000209060030201600001548686815481106113e8576113e86125b0565b90600052602060002090600302016001015487878154811061140c5761140c6125b0565b906000526020600020906003020160020160009054906101000a90046001600160a01b0316888881548110611443576114436125b0565b906000526020600020906003020160020160149054906101000a900460ff166040516020016114759493929190612470565b604051602081830303815290604052876040518563ffffffff1660e01b81526004016114a494939291906121f1565b602060405180830381600087803b1580156114be57600080fd5b505af11580156114d2573d6000803e3d6000fd5b505050506040513d601f19601f820116820180604052508101906114f69190611ed6565b508061150181612569565b915050611357565b506000828152600160205260408120905b81548110156116ba577f00000000000000000000000000000000000000000000000000000000000000006001600160a01b0316633a66f9017f00000000000000000000000000000000000000000000000000000000000000006000858581548110611587576115876125b0565b9060005260206000209060030201600101548686815481106115ab576115ab6125b0565b600091825260209091206003909102015487546001600160a01b03909116908890889081106115dc576115dc6125b0565b6000918252602091829020600260039092020101546040516116269493926001600160a01b0390921691019283526001600160a01b03918216602084015216604082015260600190565b604051602081830303815290604052886040518563ffffffff1660e01b81526004016116559493929190612269565b602060405180830381600087803b15801561166f57600080fd5b505af1158015611683573d6000803e3d6000fd5b505050506040513d601f19601f820116820180604052508101906116a79190611ed6565b50806116b281612569565b91505061151a565b5050506000908152600360205260409020805460ff19166001179055565b6000818152600260205260408120905b815481101561189e577f00000000000000000000000000000000000000000000000000000000000000006001600160a01b0316630825f38f7f00000000000000000000000000000000000000000000000000000000000000006000858581548110611755576117556125b0565b906000526020600020906003020160000154868681548110611779576117796125b0565b90600052602060002090600302016001015487878154811061179d5761179d6125b0565b906000526020600020906003020160020160009054906101000a90046001600160a01b03168888815481106117d4576117d46125b0565b906000526020600020906003020160020160149054906101000a900460ff166040516020016118069493929190612470565b604051602081830303815290604052876040518563ffffffff1660e01b815260040161183594939291906121f1565b600060405180830381600087803b15801561184f57600080fd5b505af1158015611863573d6000803e3d6000fd5b505050506040513d6000823e601f3d908101601f1916820160405261188b9190810190611f49565b508061189681612569565b9150506116e8565b506000828152600160205260408120905b8154811015610d24577f00000000000000000000000000000000000000000000000000000000000000006001600160a01b0316630825f38f7f0000000000000000000000000000000000000000000000000000000000000000600085858154811061191c5761191c6125b0565b906000526020600020906003020160010154868681548110611940576119406125b0565b600091825260209091206003909102015487546001600160a01b0390911690889088908110611971576119716125b0565b6000918252602091829020600260039092020101546040516119bb9493926001600160a01b0390921691019283526001600160a01b03918216602084015216604082015260600190565b604051602081830303815290604052886040518563ffffffff1660e01b81526004016119ea9493929190612269565b600060405180830381600087803b158015611a0457600080fd5b505af1158015611a18573d6000803e3d6000fd5b505050506040513d6000823e601f3d908101601f19168201604052611a409190810190611f49565b5080611a4b81612569565b9150506118af565b60606000611a62836002612507565b611a6d9060026124ef565b67ffffffffffffffff811115611a8557611a856125c6565b6040519080825280601f01601f191660200182016040528015611aaf576020820181803683370190505b509050600360fc1b81600081518110611aca57611aca6125b0565b60200101906001600160f81b031916908160001a905350600f60fb1b81600181518110611af957611af96125b0565b60200101906001600160f81b031916908160001a9053506000611b1d846002612507565b611b289060016124ef565b90505b6001811115611ba0576f181899199a1a9b1b9c1cb0b131b232b360811b85600f1660108110611b5c57611b5c6125b0565b1a60f81b828281518110611b7257611b726125b0565b60200101906001600160f81b031916908160001a90535060049490941c93611b9981612552565b9050611b2b565b5083156113335760405162461bcd60e51b815260206004820181905260248201527f537472696e67733a20686578206c656e67746820696e73756666696369656e7460448201526064016107ee565b6000818152600183016020526040812054611c36575081546001818101845560008481526020808220909301849055845484825282860190935260409020919091556105d9565b5060006105d9565b606081600001805480602002602001604051908101604052809291908181526020018280548015611c8e57602002820191906000526020600020905b815481526020019060010190808311611c7a575b50505050509050919050565b6000611cad611ca8846124c7565b612496565b9050828152838383011115611cc157600080fd5b828260208301376000602084830101529392505050565b803560028110611ce757600080fd5b919050565b600080600060608486031215611d0157600080fd5b8335611d0c81612694565b925060208401359150611d2160408501611cd8565b90509250925092565b600080600080600060a08688031215611d4257600080fd5b8535611d4d81612694565b945060208601359350604086013567ffffffffffffffff80821115611d7157600080fd5b818801915088601f830112611d8557600080fd5b611d9489833560208501611c9a565b94506060880135915080821115611daa57600080fd5b508601601f81018813611dbc57600080fd5b611dcb88823560208401611c9a565b95989497509295608001359392505050565b600080600060408486031215611df257600080fd5b833567ffffffffffffffff80821115611e0a57600080fd5b818601915086601f830112611e1e57600080fd5b813581811115611e2d57600080fd5b876020606083028501011115611e4257600080fd5b6020928301989097509590910135949350505050565b600080600060408486031215611e6d57600080fd5b833567ffffffffffffffff80821115611e8557600080fd5b818601915086601f830112611e9957600080fd5b813581811115611ea857600080fd5b8760208260071b8501011115611e4257600080fd5b600060208284031215611ecf57600080fd5b5035919050565b600060208284031215611ee857600080fd5b5051919050565b60008060408385031215611f0257600080fd5b823591506020830135611f1481612694565b809150509250929050565b600060208284031215611f3157600080fd5b81356001600160e01b03198116811461133357600080fd5b600060208284031215611f5b57600080fd5b815167ffffffffffffffff811115611f7257600080fd5b8201601f81018413611f8357600080fd5b8051611f91611ca8826124c7565b818152856020838501011115611fa657600080fd5b611fb7826020830160208601612526565b95945050505050565b60008060408385031215611fd357600080fd5b82359150611fe360208401611cd8565b90509250929050565b60008060408385031215611fff57600080fd5b50508035926020909101359150565b60008060006060848603121561202357600080fd5b8335925060208401359150611d2160408501611cd8565b60008151808452612052816020860160208601612526565b601f01601f19169290920160200192915050565b7f416363657373436f6e74726f6c3a206163636f756e742000000000000000000081526000835161209e816017850160208801612526565b7001034b99036b4b9b9b4b733903937b6329607d1b60179184019182015283516120cf816028840160208801612526565b01602801949350505050565b60018060a01b038516815283602082015260a06040820152601b60a08201527f757064617465456d697373696f6e526174652875696e7432353629000000000060c082015260e06060820152600061213660e083018561203a565b905082608083015295945050505050565b60018060a01b038516815283602082015260a06040820152601160a082015270747265617375727928616464726573732960781b60c082015260e06060820152600061213660e083018561203a565b60018060a01b038516815283602082015260a06040820152601860a08201527f73657450656e64696e6741646d696e286164647265737329000000000000000060c082015260e06060820152600061213660e083018561203a565b60018060a01b038516815283602082015260a06040820152602160a08201527f7365742875696e743235362c75696e743235362c616464726573732c626f6f6c60c0820152602960f81b60e082015260006101008060608401526122578184018661203a565b91505082608083015295945050505050565b60018060a01b038516815283602082015260a06040820152601c60a08201527f6164642875696e743235362c616464726573732c61646472657373290000000060c082015260e06060820152600061213660e083018561203a565b60018060a01b038616815284602082015260a0604082015260006122eb60a083018661203a565b82810360608401526122fd818661203a565b9150508260808301529695505050505050565b602080825282518282018190526000919060409081850190868401855b8281101561236957815180516001600160a01b03908116865287820151888701529086015116858501526060909301929085019060010161232d565b5091979650505050505050565b602080825282518282018190526000919060409081850190868401855b82811015612369578151805185528681015187860152858101516001600160a01b03168686015260609081015115159085015260809093019290850190600101612393565b6020808252825182820181905260009190848201906040850190845b81811015612410578351835292840192918401916001016123f4565b50909695505050505050565b602081526000611333602083018461203a565b60208082526021908201527f45544120616c726561647920757365642c2063686f7365206f746865722065746040820152606160f81b606082015260800190565b93845260208401929092526001600160a01b031660408301521515606082015260800190565b604051601f8201601f1916810167ffffffffffffffff811182821017156124bf576124bf6125c6565b604052919050565b600067ffffffffffffffff8211156124e1576124e16125c6565b50601f01601f191660200190565b6000821982111561250257612502612584565b500190565b600081600019048311821515161561252157612521612584565b500290565b60005b83811015612541578181015183820152602001612529565b83811115610d245750506000910152565b60008161256157612561612584565b506000190190565b600060001982141561257d5761257d612584565b5060010190565b634e487b7160e01b600052601160045260246000fd5b634e487b7160e01b600052602160045260246000fd5b634e487b7160e01b600052603260045260246000fd5b634e487b7160e01b600052604160045260246000fd5b80546001600160a01b0319166001600160a01b0392909216919091179055565b813561260781612694565b61261181836125dc565b5060208201356001820155604082013561262a81612694565b6106d581600284016125dc565b813581556020820135600182015560028101604083013561265781612694565b61266181836125dc565b50606083013580151580821461267657600080fd5b825460ff60a01b191660a09190911b60ff60a01b1617909155505050565b6001600160a01b03811681146126a957600080fd5b5056fe9ca25149b3fbef66d98c546a0b372e96b9626f14ed669dd7ba430d3a8f225fd2a26469706673582212209d27af68736f088768e67ac77250a20842e4342e50fea2755d5628ff722315cc64736f6c634300080700339ca25149b3fbef66d98c546a0b372e96b9626f14ed669dd7ba430d3a8f225fd2",
					"opcodes": "PUSH1 0xC0 PUSH1 0x40 MSTORE CALLVALUE DUP1 ISZERO PUSH3 0x11 JUMPI PUSH1 0x0 DUP1 REVERT JUMPDEST POP PUSH1 0x40 MLOAD PUSH3 0x29B4 CODESIZE SUB DUP1 PUSH3 0x29B4 DUP4 CODECOPY DUP2 ADD PUSH1 0x40 DUP2 SWAP1 MSTORE PUSH3 0x34 SWAP2 PUSH3 0x14B JUMP JUMPDEST PUSH1 0x1 PUSH1 0x1 PUSH1 0x60 SHL SUB NOT PUSH1 0x60 DUP6 DUP2 SHL DUP3 AND PUSH1 0x80 MSTORE DUP5 SWAP1 SHL AND PUSH1 0xA0 MSTORE PUSH3 0x5B PUSH1 0x0 DUP4 PUSH3 0x9B JUMP JUMPDEST PUSH3 0x76 PUSH1 0x0 DUP1 MLOAD PUSH1 0x20 PUSH3 0x2994 DUP4 CODECOPY DUP2 MLOAD SWAP2 MSTORE DUP4 PUSH3 0x9B JUMP JUMPDEST PUSH3 0x91 PUSH1 0x0 DUP1 MLOAD PUSH1 0x20 PUSH3 0x2994 DUP4 CODECOPY DUP2 MLOAD SWAP2 MSTORE DUP3 PUSH3 0x9B JUMP JUMPDEST POP POP POP POP PUSH3 0x1CC JUMP JUMPDEST PUSH3 0xA7 DUP3 DUP3 PUSH3 0xAB JUMP JUMPDEST POP POP JUMP JUMPDEST PUSH1 0x0 DUP3 DUP2 MSTORE PUSH1 0x20 DUP2 DUP2 MSTORE PUSH1 0x40 DUP1 DUP4 KECCAK256 PUSH1 0x1 PUSH1 0x1 PUSH1 0xA0 SHL SUB DUP6 AND DUP5 MSTORE SWAP1 SWAP2 MSTORE SWAP1 KECCAK256 SLOAD PUSH1 0xFF AND PUSH3 0xA7 JUMPI PUSH1 0x0 DUP3 DUP2 MSTORE PUSH1 0x20 DUP2 DUP2 MSTORE PUSH1 0x40 DUP1 DUP4 KECCAK256 PUSH1 0x1 PUSH1 0x1 PUSH1 0xA0 SHL SUB DUP6 AND DUP5 MSTORE SWAP1 SWAP2 MSTORE SWAP1 KECCAK256 DUP1 SLOAD PUSH1 0xFF NOT AND PUSH1 0x1 OR SWAP1 SSTORE PUSH3 0x107 CALLER SWAP1 JUMP JUMPDEST PUSH1 0x1 PUSH1 0x1 PUSH1 0xA0 SHL SUB AND DUP2 PUSH1 0x1 PUSH1 0x1 PUSH1 0xA0 SHL SUB AND DUP4 PUSH32 0x2F8788117E7EFF1D82E926EC794901D17C78024A50270940304540A733656F0D PUSH1 0x40 MLOAD PUSH1 0x40 MLOAD DUP1 SWAP2 SUB SWAP1 LOG4 POP POP JUMP JUMPDEST PUSH1 0x0 DUP1 PUSH1 0x0 DUP1 PUSH1 0x80 DUP6 DUP8 SUB SLT ISZERO PUSH3 0x162 JUMPI PUSH1 0x0 DUP1 REVERT JUMPDEST DUP5 MLOAD PUSH3 0x16F DUP2 PUSH3 0x1B3 JUMP JUMPDEST PUSH1 0x20 DUP7 ADD MLOAD SWAP1 SWAP5 POP PUSH3 0x182 DUP2 PUSH3 0x1B3 JUMP JUMPDEST PUSH1 0x40 DUP7 ADD MLOAD SWAP1 SWAP4 POP PUSH3 0x195 DUP2 PUSH3 0x1B3 JUMP JUMPDEST PUSH1 0x60 DUP7 ADD MLOAD SWAP1 SWAP3 POP PUSH3 0x1A8 DUP2 PUSH3 0x1B3 JUMP JUMPDEST SWAP4 SWAP7 SWAP3 SWAP6 POP SWAP1 SWAP4 POP POP JUMP JUMPDEST PUSH1 0x1 PUSH1 0x1 PUSH1 0xA0 SHL SUB DUP2 AND DUP2 EQ PUSH3 0x1C9 JUMPI PUSH1 0x0 DUP1 REVERT JUMPDEST POP JUMP JUMPDEST PUSH1 0x80 MLOAD PUSH1 0x60 SHR PUSH1 0xA0 MLOAD PUSH1 0x60 SHR PUSH2 0x2702 PUSH3 0x292 PUSH1 0x0 CODECOPY PUSH1 0x0 DUP2 DUP2 PUSH2 0x344 ADD MSTORE DUP2 DUP2 PUSH2 0xB8F ADD MSTORE DUP2 DUP2 PUSH2 0xC79 ADD MSTORE DUP2 DUP2 PUSH2 0xEDF ADD MSTORE DUP2 DUP2 PUSH2 0xF73 ADD MSTORE DUP2 DUP2 PUSH2 0x1391 ADD MSTORE DUP2 DUP2 PUSH2 0x1554 ADD MSTORE DUP2 DUP2 PUSH2 0x1722 ADD MSTORE PUSH2 0x18E9 ADD MSTORE PUSH1 0x0 DUP2 DUP2 PUSH2 0x507 ADD MSTORE DUP2 DUP2 PUSH2 0x611 ADD MSTORE DUP2 DUP2 PUSH2 0x837 ADD MSTORE DUP2 DUP2 PUSH2 0xA4F ADD MSTORE DUP2 DUP2 PUSH2 0xB66 ADD MSTORE DUP2 DUP2 PUSH2 0xC50 ADD MSTORE DUP2 DUP2 PUSH2 0xD84 ADD MSTORE DUP2 DUP2 PUSH2 0xDF6 ADD MSTORE DUP2 DUP2 PUSH2 0xEB0 ADD MSTORE DUP2 DUP2 PUSH2 0xF44 ADD MSTORE DUP2 DUP2 PUSH2 0x1120 ADD MSTORE DUP2 DUP2 PUSH2 0x1362 ADD MSTORE DUP2 DUP2 PUSH2 0x1525 ADD MSTORE DUP2 DUP2 PUSH2 0x16F3 ADD MSTORE PUSH2 0x18BA ADD MSTORE PUSH2 0x2702 PUSH1 0x0 RETURN INVALID PUSH1 0x80 PUSH1 0x40 MSTORE PUSH1 0x4 CALLDATASIZE LT PUSH2 0x19C JUMPI PUSH1 0x0 CALLDATALOAD PUSH1 0xE0 SHR DUP1 PUSH4 0x5FFC71B8 GT PUSH2 0xEC JUMPI DUP1 PUSH4 0xAB698957 GT PUSH2 0x8A JUMPI DUP1 PUSH4 0xD33219B4 GT PUSH2 0x64 JUMPI DUP1 PUSH4 0xD33219B4 EQ PUSH2 0x4F5 JUMPI DUP1 PUSH4 0xD547741F EQ PUSH2 0x529 JUMPI DUP1 PUSH4 0xEEABA75D EQ PUSH2 0x549 JUMPI DUP1 PUSH4 0xFDE9B226 EQ PUSH2 0x55E JUMPI PUSH1 0x0 DUP1 REVERT JUMPDEST DUP1 PUSH4 0xAB698957 EQ PUSH2 0x485 JUMPI DUP1 PUSH4 0xC8CC3CD8 EQ PUSH2 0x4A5 JUMPI DUP1 PUSH4 0xCAE5984B EQ PUSH2 0x4C5 JUMPI PUSH1 0x0 DUP1 REVERT JUMPDEST DUP1 PUSH4 0x8A1D28F1 GT PUSH2 0xC6 JUMPI DUP1 PUSH4 0x8A1D28F1 EQ PUSH2 0x410 JUMPI DUP1 PUSH4 0x91D14854 EQ PUSH2 0x430 JUMPI DUP1 PUSH4 0x9C2826EF EQ PUSH2 0x450 JUMPI DUP1 PUSH4 0xA217FDDF EQ PUSH2 0x470 JUMPI PUSH1 0x0 DUP1 REVERT JUMPDEST DUP1 PUSH4 0x5FFC71B8 EQ PUSH2 0x39E JUMPI DUP1 PUSH4 0x6F3E6F34 EQ PUSH2 0x3CE JUMPI DUP1 PUSH4 0x74D510F7 EQ PUSH2 0x3EE JUMPI PUSH1 0x0 DUP1 REVERT JUMPDEST DUP1 PUSH4 0x36568ABE GT PUSH2 0x159 JUMPI DUP1 PUSH4 0x41065E0E GT PUSH2 0x133 JUMPI DUP1 PUSH4 0x41065E0E EQ PUSH2 0x305 JUMPI DUP1 PUSH4 0x441E7D58 EQ PUSH2 0x234 JUMPI DUP1 PUSH4 0x575A86B2 EQ PUSH2 0x332 JUMPI DUP1 PUSH4 0x591FCDFE EQ PUSH2 0x37E JUMPI PUSH1 0x0 DUP1 REVERT JUMPDEST DUP1 PUSH4 0x36568ABE EQ PUSH2 0x2A5 JUMPI DUP1 PUSH4 0x3A66F901 EQ PUSH2 0x2C5 JUMPI DUP1 PUSH4 0x3B8505A3 EQ PUSH2 0x2E5 JUMPI PUSH1 0x0 DUP1 REVERT JUMPDEST DUP1 PUSH4 0x1FFC9A7 EQ PUSH2 0x1A1 JUMPI DUP1 PUSH4 0x825F38F EQ PUSH2 0x1D6 JUMPI DUP1 PUSH4 0x248A9CA3 EQ PUSH2 0x1F6 JUMPI DUP1 PUSH4 0x25E06309 EQ PUSH2 0x234 JUMPI DUP1 PUSH4 0x2F2FF15D EQ PUSH2 0x256 JUMPI DUP1 PUSH4 0x33C9EF9F EQ PUSH2 0x278 JUMPI JUMPDEST PUSH1 0x0 DUP1 REVERT JUMPDEST CALLVALUE DUP1 ISZERO PUSH2 0x1AD JUMPI PUSH1 0x0 DUP1 REVERT JUMPDEST POP PUSH2 0x1C1 PUSH2 0x1BC CALLDATASIZE PUSH1 0x4 PUSH2 0x1F1F JUMP JUMPDEST PUSH2 0x5A8 JUMP JUMPDEST PUSH1 0x40 MLOAD SWAP1 ISZERO ISZERO DUP2 MSTORE PUSH1 0x20 ADD JUMPDEST PUSH1 0x40 MLOAD DUP1 SWAP2 SUB SWAP1 RETURN JUMPDEST PUSH2 0x1E9 PUSH2 0x1E4 CALLDATASIZE PUSH1 0x4 PUSH2 0x1D2A JUMP JUMPDEST PUSH2 0x5DF JUMP JUMPDEST PUSH1 0x40 MLOAD PUSH2 0x1CD SWAP2 SWAP1 PUSH2 0x241C JUMP JUMPDEST CALLVALUE DUP1 ISZERO PUSH2 0x202 JUMPI PUSH1 0x0 DUP1 REVERT JUMPDEST POP PUSH2 0x226 PUSH2 0x211 CALLDATASIZE PUSH1 0x4 PUSH2 0x1EBD JUMP JUMPDEST PUSH1 0x0 SWAP1 DUP2 MSTORE PUSH1 0x20 DUP2 SWAP1 MSTORE PUSH1 0x40 SWAP1 KECCAK256 PUSH1 0x1 ADD SLOAD SWAP1 JUMP JUMPDEST PUSH1 0x40 MLOAD SWAP1 DUP2 MSTORE PUSH1 0x20 ADD PUSH2 0x1CD JUMP JUMPDEST CALLVALUE DUP1 ISZERO PUSH2 0x240 JUMPI PUSH1 0x0 DUP1 REVERT JUMPDEST POP PUSH2 0x226 PUSH1 0x0 DUP1 MLOAD PUSH1 0x20 PUSH2 0x26AD DUP4 CODECOPY DUP2 MLOAD SWAP2 MSTORE DUP2 JUMP JUMPDEST CALLVALUE DUP1 ISZERO PUSH2 0x262 JUMPI PUSH1 0x0 DUP1 REVERT JUMPDEST POP PUSH2 0x276 PUSH2 0x271 CALLDATASIZE PUSH1 0x4 PUSH2 0x1EEF JUMP JUMPDEST PUSH2 0x6AF JUMP JUMPDEST STOP JUMPDEST CALLVALUE DUP1 ISZERO PUSH2 0x284 JUMPI PUSH1 0x0 DUP1 REVERT JUMPDEST POP PUSH2 0x298 PUSH2 0x293 CALLDATASIZE PUSH1 0x4 PUSH2 0x1EBD JUMP JUMPDEST PUSH2 0x6DA JUMP JUMPDEST PUSH1 0x40 MLOAD PUSH2 0x1CD SWAP2 SWAP1 PUSH2 0x2376 JUMP JUMPDEST CALLVALUE DUP1 ISZERO PUSH2 0x2B1 JUMPI PUSH1 0x0 DUP1 REVERT JUMPDEST POP PUSH2 0x276 PUSH2 0x2C0 CALLDATASIZE PUSH1 0x4 PUSH2 0x1EEF JUMP JUMPDEST PUSH2 0x782 JUMP JUMPDEST CALLVALUE DUP1 ISZERO PUSH2 0x2D1 JUMPI PUSH1 0x0 DUP1 REVERT JUMPDEST POP PUSH2 0x226 PUSH2 0x2E0 CALLDATASIZE PUSH1 0x4 PUSH2 0x1D2A JUMP JUMPDEST PUSH2 0x805 JUMP JUMPDEST CALLVALUE DUP1 ISZERO PUSH2 0x2F1 JUMPI PUSH1 0x0 DUP1 REVERT JUMPDEST POP PUSH2 0x276 PUSH2 0x300 CALLDATASIZE PUSH1 0x4 PUSH2 0x1DDD JUMP JUMPDEST PUSH2 0x8C6 JUMP JUMPDEST CALLVALUE DUP1 ISZERO PUSH2 0x311 JUMPI PUSH1 0x0 DUP1 REVERT JUMPDEST POP PUSH2 0x325 PUSH2 0x320 CALLDATASIZE PUSH1 0x4 PUSH2 0x1EBD JUMP JUMPDEST PUSH2 0x992 JUMP JUMPDEST PUSH1 0x40 MLOAD PUSH2 0x1CD SWAP2 SWAP1 PUSH2 0x2310 JUMP JUMPDEST CALLVALUE DUP1 ISZERO PUSH2 0x33E JUMPI PUSH1 0x0 DUP1 REVERT JUMPDEST POP PUSH2 0x366 PUSH32 0x0 DUP2 JUMP JUMPDEST PUSH1 0x40 MLOAD PUSH1 0x1 PUSH1 0x1 PUSH1 0xA0 SHL SUB SWAP1 SWAP2 AND DUP2 MSTORE PUSH1 0x20 ADD PUSH2 0x1CD JUMP JUMPDEST CALLVALUE DUP1 ISZERO PUSH2 0x38A JUMPI PUSH1 0x0 DUP1 REVERT JUMPDEST POP PUSH2 0x276 PUSH2 0x399 CALLDATASIZE PUSH1 0x4 PUSH2 0x1D2A JUMP JUMPDEST PUSH2 0xA1F JUMP JUMPDEST CALLVALUE DUP1 ISZERO PUSH2 0x3AA JUMPI PUSH1 0x0 DUP1 REVERT JUMPDEST POP PUSH2 0x3BE PUSH2 0x3B9 CALLDATASIZE PUSH1 0x4 PUSH2 0x1FEC JUMP JUMPDEST PUSH2 0xAC6 JUMP JUMPDEST PUSH1 0x40 MLOAD PUSH2 0x1CD SWAP5 SWAP4 SWAP3 SWAP2 SWAP1 PUSH2 0x2470 JUMP JUMPDEST CALLVALUE DUP1 ISZERO PUSH2 0x3DA JUMPI PUSH1 0x0 DUP1 REVERT JUMPDEST POP PUSH2 0x276 PUSH2 0x3E9 CALLDATASIZE PUSH1 0x4 PUSH2 0x1CEC JUMP JUMPDEST PUSH2 0xB1D JUMP JUMPDEST CALLVALUE DUP1 ISZERO PUSH2 0x3FA JUMPI PUSH1 0x0 DUP1 REVERT JUMPDEST POP PUSH2 0x403 PUSH2 0xD2A JUMP JUMPDEST PUSH1 0x40 MLOAD PUSH2 0x1CD SWAP2 SWAP1 PUSH2 0x23D8 JUMP JUMPDEST CALLVALUE DUP1 ISZERO PUSH2 0x41C JUMPI PUSH1 0x0 DUP1 REVERT JUMPDEST POP PUSH2 0x276 PUSH2 0x42B CALLDATASIZE PUSH1 0x4 PUSH2 0x1CEC JUMP JUMPDEST PUSH2 0xD3B JUMP JUMPDEST CALLVALUE DUP1 ISZERO PUSH2 0x43C JUMPI PUSH1 0x0 DUP1 REVERT JUMPDEST POP PUSH2 0x1C1 PUSH2 0x44B CALLDATASIZE PUSH1 0x4 PUSH2 0x1EEF JUMP JUMPDEST PUSH2 0xE52 JUMP JUMPDEST CALLVALUE DUP1 ISZERO PUSH2 0x45C JUMPI PUSH1 0x0 DUP1 REVERT JUMPDEST POP PUSH2 0x276 PUSH2 0x46B CALLDATASIZE PUSH1 0x4 PUSH2 0x200E JUMP JUMPDEST PUSH2 0xE7B JUMP JUMPDEST CALLVALUE DUP1 ISZERO PUSH2 0x47C JUMPI PUSH1 0x0 DUP1 REVERT JUMPDEST POP PUSH2 0x226 PUSH1 0x0 DUP2 JUMP JUMPDEST CALLVALUE DUP1 ISZERO PUSH2 0x491 JUMPI PUSH1 0x0 DUP1 REVERT JUMPDEST POP PUSH2 0x276 PUSH2 0x4A0 CALLDATASIZE PUSH1 0x4 PUSH2 0x1FC0 JUMP JUMPDEST PUSH2 0xFD6 JUMP JUMPDEST CALLVALUE DUP1 ISZERO PUSH2 0x4B1 JUMPI PUSH1 0x0 DUP1 REVERT JUMPDEST POP PUSH2 0x276 PUSH2 0x4C0 CALLDATASIZE PUSH1 0x4 PUSH2 0x1E58 JUMP JUMPDEST PUSH2 0x101B JUMP JUMPDEST CALLVALUE DUP1 ISZERO PUSH2 0x4D1 JUMPI PUSH1 0x0 DUP1 REVERT JUMPDEST POP PUSH2 0x1C1 PUSH2 0x4E0 CALLDATASIZE PUSH1 0x4 PUSH2 0x1EBD JUMP JUMPDEST PUSH1 0x3 PUSH1 0x20 MSTORE PUSH1 0x0 SWAP1 DUP2 MSTORE PUSH1 0x40 SWAP1 KECCAK256 SLOAD PUSH1 0xFF AND DUP2 JUMP JUMPDEST CALLVALUE DUP1 ISZERO PUSH2 0x501 JUMPI PUSH1 0x0 DUP1 REVERT JUMPDEST POP PUSH2 0x366 PUSH32 0x0 DUP2 JUMP JUMPDEST CALLVALUE DUP1 ISZERO PUSH2 0x535 JUMPI PUSH1 0x0 DUP1 REVERT JUMPDEST POP PUSH2 0x276 PUSH2 0x544 CALLDATASIZE PUSH1 0x4 PUSH2 0x1EEF JUMP JUMPDEST PUSH2 0x10DF JUMP JUMPDEST CALLVALUE DUP1 ISZERO PUSH2 0x555 JUMPI PUSH1 0x0 DUP1 REVERT JUMPDEST POP PUSH2 0x276 PUSH2 0x1105 JUMP JUMPDEST CALLVALUE DUP1 ISZERO PUSH2 0x56A JUMPI PUSH1 0x0 DUP1 REVERT JUMPDEST POP PUSH2 0x57E PUSH2 0x579 CALLDATASIZE PUSH1 0x4 PUSH2 0x1FEC JUMP JUMPDEST PUSH2 0x118D JUMP JUMPDEST PUSH1 0x40 DUP1 MLOAD PUSH1 0x1 PUSH1 0x1 PUSH1 0xA0 SHL SUB SWAP5 DUP6 AND DUP2 MSTORE PUSH1 0x20 DUP2 ADD SWAP4 SWAP1 SWAP4 MSTORE SWAP3 AND SWAP2 DUP2 ADD SWAP2 SWAP1 SWAP2 MSTORE PUSH1 0x60 ADD PUSH2 0x1CD JUMP JUMPDEST PUSH1 0x0 PUSH1 0x1 PUSH1 0x1 PUSH1 0xE0 SHL SUB NOT DUP3 AND PUSH4 0x7965DB0B PUSH1 0xE0 SHL EQ DUP1 PUSH2 0x5D9 JUMPI POP PUSH4 0x1FFC9A7 PUSH1 0xE0 SHL PUSH1 0x1 PUSH1 0x1 PUSH1 0xE0 SHL SUB NOT DUP4 AND EQ JUMPDEST SWAP3 SWAP2 POP POP JUMP JUMPDEST PUSH1 0x60 PUSH1 0x0 DUP1 MLOAD PUSH1 0x20 PUSH2 0x26AD DUP4 CODECOPY DUP2 MLOAD SWAP2 MSTORE PUSH2 0x5FA DUP2 CALLER PUSH2 0x11DA JUMP JUMPDEST PUSH1 0x40 MLOAD PUSH4 0x825F38F PUSH1 0xE0 SHL DUP2 MSTORE PUSH1 0x1 PUSH1 0x1 PUSH1 0xA0 SHL SUB PUSH32 0x0 AND SWAP1 PUSH4 0x825F38F SWAP1 PUSH2 0x64E SWAP1 DUP11 SWAP1 DUP11 SWAP1 DUP11 SWAP1 DUP11 SWAP1 DUP11 SWAP1 PUSH1 0x4 ADD PUSH2 0x22C4 JUMP JUMPDEST PUSH1 0x0 PUSH1 0x40 MLOAD DUP1 DUP4 SUB DUP2 PUSH1 0x0 DUP8 DUP1 EXTCODESIZE ISZERO DUP1 ISZERO PUSH2 0x668 JUMPI PUSH1 0x0 DUP1 REVERT JUMPDEST POP GAS CALL ISZERO DUP1 ISZERO PUSH2 0x67C JUMPI RETURNDATASIZE PUSH1 0x0 DUP1 RETURNDATACOPY RETURNDATASIZE PUSH1 0x0 REVERT JUMPDEST POP POP POP POP PUSH1 0x40 MLOAD RETURNDATASIZE PUSH1 0x0 DUP3 RETURNDATACOPY PUSH1 0x1F RETURNDATASIZE SWAP1 DUP2 ADD PUSH1 0x1F NOT AND DUP3 ADD PUSH1 0x40 MSTORE PUSH2 0x6A4 SWAP2 SWAP1 DUP2 ADD SWAP1 PUSH2 0x1F49 JUMP JUMPDEST SWAP8 SWAP7 POP POP POP POP POP POP POP JUMP JUMPDEST PUSH1 0x0 DUP3 DUP2 MSTORE PUSH1 0x20 DUP2 SWAP1 MSTORE PUSH1 0x40 SWAP1 KECCAK256 PUSH1 0x1 ADD SLOAD PUSH2 0x6CB DUP2 CALLER PUSH2 0x11DA JUMP JUMPDEST PUSH2 0x6D5 DUP4 DUP4 PUSH2 0x123E JUMP JUMPDEST POP POP POP JUMP JUMPDEST PUSH1 0x60 PUSH1 0x2 PUSH1 0x0 DUP4 DUP2 MSTORE PUSH1 0x20 ADD SWAP1 DUP2 MSTORE PUSH1 0x20 ADD PUSH1 0x0 KECCAK256 DUP1 SLOAD DUP1 PUSH1 0x20 MUL PUSH1 0x20 ADD PUSH1 0x40 MLOAD SWAP1 DUP2 ADD PUSH1 0x40 MSTORE DUP1 SWAP3 SWAP2 SWAP1 DUP2 DUP2 MSTORE PUSH1 0x20 ADD PUSH1 0x0 SWAP1 JUMPDEST DUP3 DUP3 LT ISZERO PUSH2 0x777 JUMPI PUSH1 0x0 DUP5 DUP2 MSTORE PUSH1 0x20 SWAP1 DUP2 SWAP1 KECCAK256 PUSH1 0x40 DUP1 MLOAD PUSH1 0x80 DUP2 ADD DUP3 MSTORE PUSH1 0x3 DUP7 MUL SWAP1 SWAP3 ADD DUP1 SLOAD DUP4 MSTORE PUSH1 0x1 DUP1 DUP3 ADD SLOAD DUP5 DUP7 ADD MSTORE PUSH1 0x2 SWAP1 SWAP2 ADD SLOAD PUSH1 0x1 PUSH1 0x1 PUSH1 0xA0 SHL SUB DUP2 AND SWAP3 DUP5 ADD SWAP3 SWAP1 SWAP3 MSTORE PUSH1 0x1 PUSH1 0xA0 SHL SWAP1 SWAP2 DIV PUSH1 0xFF AND ISZERO ISZERO PUSH1 0x60 DUP4 ADD MSTORE SWAP1 DUP4 MSTORE SWAP1 SWAP3 ADD SWAP2 ADD PUSH2 0x70F JUMP JUMPDEST POP POP POP POP SWAP1 POP SWAP2 SWAP1 POP JUMP JUMPDEST PUSH1 0x1 PUSH1 0x1 PUSH1 0xA0 SHL SUB DUP2 AND CALLER EQ PUSH2 0x7F7 JUMPI PUSH1 0x40 MLOAD PUSH3 0x461BCD PUSH1 0xE5 SHL DUP2 MSTORE PUSH1 0x20 PUSH1 0x4 DUP3 ADD MSTORE PUSH1 0x2F PUSH1 0x24 DUP3 ADD MSTORE PUSH32 0x416363657373436F6E74726F6C3A2063616E206F6E6C792072656E6F756E6365 PUSH1 0x44 DUP3 ADD MSTORE PUSH15 0x103937B632B9903337B91039B2B633 PUSH1 0x89 SHL PUSH1 0x64 DUP3 ADD MSTORE PUSH1 0x84 ADD JUMPDEST PUSH1 0x40 MLOAD DUP1 SWAP2 SUB SWAP1 REVERT JUMPDEST PUSH2 0x801 DUP3 DUP3 PUSH2 0x12C2 JUMP JUMPDEST POP POP JUMP JUMPDEST PUSH1 0x0 PUSH1 0x0 DUP1 MLOAD PUSH1 0x20 PUSH2 0x26AD DUP4 CODECOPY DUP2 MLOAD SWAP2 MSTORE PUSH2 0x820 DUP2 CALLER PUSH2 0x11DA JUMP JUMPDEST PUSH1 0x40 MLOAD PUSH4 0x3A66F901 PUSH1 0xE0 SHL DUP2 MSTORE PUSH1 0x1 PUSH1 0x1 PUSH1 0xA0 SHL SUB PUSH32 0x0 AND SWAP1 PUSH4 0x3A66F901 SWAP1 PUSH2 0x874 SWAP1 DUP11 SWAP1 DUP11 SWAP1 DUP11 SWAP1 DUP11 SWAP1 DUP11 SWAP1 PUSH1 0x4 ADD PUSH2 0x22C4 JUMP JUMPDEST PUSH1 0x20 PUSH1 0x40 MLOAD DUP1 DUP4 SUB DUP2 PUSH1 0x0 DUP8 DUP1 EXTCODESIZE ISZERO DUP1 ISZERO PUSH2 0x88E JUMPI PUSH1 0x0 DUP1 REVERT JUMPDEST POP GAS CALL ISZERO DUP1 ISZERO PUSH2 0x8A2 JUMPI RETURNDATASIZE PUSH1 0x0 DUP1 RETURNDATACOPY RETURNDATASIZE PUSH1 0x0 REVERT JUMPDEST POP POP POP POP PUSH1 0x40 MLOAD RETURNDATASIZE PUSH1 0x1F NOT PUSH1 0x1F DUP3 ADD AND DUP3 ADD DUP1 PUSH1 0x40 MSTORE POP DUP2 ADD SWAP1 PUSH2 0x6A4 SWAP2 SWAP1 PUSH2 0x1ED6 JUMP JUMPDEST PUSH1 0x0 DUP2 DUP2 MSTORE PUSH1 0x3 PUSH1 0x20 MSTORE PUSH1 0x40 SWAP1 KECCAK256 SLOAD DUP2 SWAP1 PUSH1 0xFF AND ISZERO PUSH2 0x8F7 JUMPI PUSH1 0x40 MLOAD PUSH3 0x461BCD PUSH1 0xE5 SHL DUP2 MSTORE PUSH1 0x4 ADD PUSH2 0x7EE SWAP1 PUSH2 0x242F JUMP JUMPDEST PUSH2 0x902 PUSH1 0x4 DUP3 PUSH2 0x1327 JUMP JUMPDEST POP PUSH1 0x0 DUP1 MLOAD PUSH1 0x20 PUSH2 0x26AD DUP4 CODECOPY DUP2 MLOAD SWAP2 MSTORE PUSH2 0x91C DUP2 CALLER PUSH2 0x11DA JUMP JUMPDEST PUSH1 0x0 JUMPDEST DUP5 DUP2 LT ISZERO PUSH2 0x98A JUMPI PUSH1 0x0 DUP5 DUP2 MSTORE PUSH1 0x1 PUSH1 0x20 MSTORE PUSH1 0x40 SWAP1 KECCAK256 DUP7 DUP7 DUP4 DUP2 DUP2 LT PUSH2 0x947 JUMPI PUSH2 0x947 PUSH2 0x25B0 JUMP JUMPDEST DUP4 SLOAD PUSH1 0x1 DUP2 ADD DUP6 SSTORE PUSH1 0x0 SWAP5 DUP6 MSTORE PUSH1 0x20 SWAP1 SWAP5 KECCAK256 PUSH1 0x60 SWAP1 SWAP2 MUL SWAP3 SWAP1 SWAP3 ADD SWAP3 PUSH1 0x3 MUL SWAP1 SWAP2 ADD SWAP1 POP PUSH2 0x975 DUP3 DUP3 PUSH2 0x25FC JUMP JUMPDEST POP POP DUP1 DUP1 PUSH2 0x982 SWAP1 PUSH2 0x2569 JUMP JUMPDEST SWAP2 POP POP PUSH2 0x91F JUMP JUMPDEST POP POP POP POP POP POP JUMP JUMPDEST PUSH1 0x60 PUSH1 0x1 PUSH1 0x0 DUP4 DUP2 MSTORE PUSH1 0x20 ADD SWAP1 DUP2 MSTORE PUSH1 0x20 ADD PUSH1 0x0 KECCAK256 DUP1 SLOAD DUP1 PUSH1 0x20 MUL PUSH1 0x20 ADD PUSH1 0x40 MLOAD SWAP1 DUP2 ADD PUSH1 0x40 MSTORE DUP1 SWAP3 SWAP2 SWAP1 DUP2 DUP2 MSTORE PUSH1 0x20 ADD PUSH1 0x0 SWAP1 JUMPDEST DUP3 DUP3 LT ISZERO PUSH2 0x777 JUMPI PUSH1 0x0 DUP5 DUP2 MSTORE PUSH1 0x20 SWAP1 DUP2 SWAP1 KECCAK256 PUSH1 0x40 DUP1 MLOAD PUSH1 0x60 DUP2 ADD DUP3 MSTORE PUSH1 0x3 DUP7 MUL SWAP1 SWAP3 ADD DUP1 SLOAD PUSH1 0x1 PUSH1 0x1 PUSH1 0xA0 SHL SUB SWAP1 DUP2 AND DUP5 MSTORE PUSH1 0x1 DUP1 DUP4 ADD SLOAD DUP6 DUP8 ADD MSTORE PUSH1 0x2 SWAP1 SWAP3 ADD SLOAD AND SWAP2 DUP4 ADD SWAP2 SWAP1 SWAP2 MSTORE SWAP1 DUP4 MSTORE SWAP1 SWAP3 ADD SWAP2 ADD PUSH2 0x9C7 JUMP JUMPDEST PUSH1 0x0 DUP1 MLOAD PUSH1 0x20 PUSH2 0x26AD DUP4 CODECOPY DUP2 MLOAD SWAP2 MSTORE PUSH2 0xA38 DUP2 CALLER PUSH2 0x11DA JUMP JUMPDEST PUSH1 0x40 MLOAD PUSH4 0x2C8FE6FF PUSH1 0xE1 SHL DUP2 MSTORE PUSH1 0x1 PUSH1 0x1 PUSH1 0xA0 SHL SUB PUSH32 0x0 AND SWAP1 PUSH4 0x591FCDFE SWAP1 PUSH2 0xA8C SWAP1 DUP10 SWAP1 DUP10 SWAP1 DUP10 SWAP1 DUP10 SWAP1 DUP10 SWAP1 PUSH1 0x4 ADD PUSH2 0x22C4 JUMP JUMPDEST PUSH1 0x0 PUSH1 0x40 MLOAD DUP1 DUP4 SUB DUP2 PUSH1 0x0 DUP8 DUP1 EXTCODESIZE ISZERO DUP1 ISZERO PUSH2 0xAA6 JUMPI PUSH1 0x0 DUP1 REVERT JUMPDEST POP GAS CALL ISZERO DUP1 ISZERO PUSH2 0xABA JUMPI RETURNDATASIZE PUSH1 0x0 DUP1 RETURNDATACOPY RETURNDATASIZE PUSH1 0x0 REVERT JUMPDEST POP POP POP POP POP POP POP POP POP POP JUMP JUMPDEST PUSH1 0x2 PUSH1 0x20 MSTORE DUP2 PUSH1 0x0 MSTORE PUSH1 0x40 PUSH1 0x0 KECCAK256 DUP2 DUP2 SLOAD DUP2 LT PUSH2 0xAE2 JUMPI PUSH1 0x0 DUP1 REVERT JUMPDEST PUSH1 0x0 SWAP2 DUP3 MSTORE PUSH1 0x20 SWAP1 SWAP2 KECCAK256 PUSH1 0x3 SWAP1 SWAP2 MUL ADD DUP1 SLOAD PUSH1 0x1 DUP3 ADD SLOAD PUSH1 0x2 SWAP1 SWAP3 ADD SLOAD SWAP1 SWAP4 POP SWAP1 SWAP2 POP PUSH1 0x1 PUSH1 0x1 PUSH1 0xA0 SHL SUB DUP2 AND SWAP1 PUSH1 0x1 PUSH1 0xA0 SHL SWAP1 DIV PUSH1 0xFF AND DUP5 JUMP JUMPDEST PUSH1 0x0 DUP1 MLOAD PUSH1 0x20 PUSH2 0x26AD DUP4 CODECOPY DUP2 MLOAD SWAP2 MSTORE PUSH2 0xB36 DUP2 CALLER PUSH2 0x11DA JUMP JUMPDEST PUSH1 0x0 DUP3 PUSH1 0x1 DUP2 GT ISZERO PUSH2 0xB4A JUMPI PUSH2 0xB4A PUSH2 0x259A JUMP JUMPDEST EQ ISZERO PUSH2 0xC3A JUMPI PUSH1 0x40 DUP1 MLOAD PUSH1 0x1 PUSH1 0x1 PUSH1 0xA0 SHL SUB DUP7 DUP2 AND PUSH1 0x20 DUP4 ADD MSTORE PUSH32 0x0 AND SWAP2 PUSH4 0x3A66F901 SWAP2 PUSH32 0x0 SWAP2 PUSH1 0x0 SWAP2 ADD PUSH1 0x40 MLOAD PUSH1 0x20 DUP2 DUP4 SUB SUB DUP2 MSTORE SWAP1 PUSH1 0x40 MSTORE DUP8 PUSH1 0x40 MLOAD DUP6 PUSH4 0xFFFFFFFF AND PUSH1 0xE0 SHL DUP2 MSTORE PUSH1 0x4 ADD PUSH2 0xBE2 SWAP5 SWAP4 SWAP3 SWAP2 SWAP1 PUSH2 0x2147 JUMP JUMPDEST PUSH1 0x20 PUSH1 0x40 MLOAD DUP1 DUP4 SUB DUP2 PUSH1 0x0 DUP8 DUP1 EXTCODESIZE ISZERO DUP1 ISZERO PUSH2 0xBFC JUMPI PUSH1 0x0 DUP1 REVERT JUMPDEST POP GAS CALL ISZERO DUP1 ISZERO PUSH2 0xC10 JUMPI RETURNDATASIZE PUSH1 0x0 DUP1 RETURNDATACOPY RETURNDATASIZE PUSH1 0x0 REVERT JUMPDEST POP POP POP POP PUSH1 0x40 MLOAD RETURNDATASIZE PUSH1 0x1F NOT PUSH1 0x1F DUP3 ADD AND DUP3 ADD DUP1 PUSH1 0x40 MSTORE POP DUP2 ADD SWAP1 PUSH2 0xC34 SWAP2 SWAP1 PUSH2 0x1ED6 JUMP JUMPDEST POP PUSH2 0xD24 JUMP JUMPDEST PUSH1 0x40 DUP1 MLOAD PUSH1 0x1 PUSH1 0x1 PUSH1 0xA0 SHL SUB DUP7 DUP2 AND PUSH1 0x20 DUP4 ADD MSTORE PUSH32 0x0 AND SWAP2 PUSH4 0x825F38F SWAP2 PUSH32 0x0 SWAP2 PUSH1 0x0 SWAP2 ADD PUSH1 0x40 MLOAD PUSH1 0x20 DUP2 DUP4 SUB SUB DUP2 MSTORE SWAP1 PUSH1 0x40 MSTORE DUP8 PUSH1 0x40 MLOAD DUP6 PUSH4 0xFFFFFFFF AND PUSH1 0xE0 SHL DUP2 MSTORE PUSH1 0x4 ADD PUSH2 0xCCC SWAP5 SWAP4 SWAP3 SWAP2 SWAP1 PUSH2 0x2147 JUMP JUMPDEST PUSH1 0x0 PUSH1 0x40 MLOAD DUP1 DUP4 SUB DUP2 PUSH1 0x0 DUP8 DUP1 EXTCODESIZE ISZERO DUP1 ISZERO PUSH2 0xCE6 JUMPI PUSH1 0x0 DUP1 REVERT JUMPDEST POP GAS CALL ISZERO DUP1 ISZERO PUSH2 0xCFA JUMPI RETURNDATASIZE PUSH1 0x0 DUP1 RETURNDATACOPY RETURNDATASIZE PUSH1 0x0 REVERT JUMPDEST POP POP POP POP PUSH1 0x40 MLOAD RETURNDATASIZE PUSH1 0x0 DUP3 RETURNDATACOPY PUSH1 0x1F RETURNDATASIZE SWAP1 DUP2 ADD PUSH1 0x1F NOT AND DUP3 ADD PUSH1 0x40 MSTORE PUSH2 0xD22 SWAP2 SWAP1 DUP2 ADD SWAP1 PUSH2 0x1F49 JUMP JUMPDEST POP JUMPDEST POP POP POP POP JUMP JUMPDEST PUSH1 0x60 PUSH2 0xD36 PUSH1 0x4 PUSH2 0x133A JUMP JUMPDEST SWAP1 POP SWAP1 JUMP JUMPDEST PUSH1 0x0 DUP1 MLOAD PUSH1 0x20 PUSH2 0x26AD DUP4 CODECOPY DUP2 MLOAD SWAP2 MSTORE PUSH2 0xD54 DUP2 CALLER PUSH2 0x11DA JUMP JUMPDEST PUSH1 0x0 DUP3 PUSH1 0x1 DUP2 GT ISZERO PUSH2 0xD68 JUMPI PUSH2 0xD68 PUSH2 0x259A JUMP JUMPDEST EQ ISZERO PUSH2 0xDE0 JUMPI PUSH1 0x40 DUP1 MLOAD PUSH1 0x1 PUSH1 0x1 PUSH1 0xA0 SHL SUB DUP7 DUP2 AND PUSH1 0x20 DUP4 ADD MSTORE PUSH32 0x0 SWAP1 DUP2 AND SWAP3 PUSH4 0x3A66F901 SWAP3 PUSH1 0x0 SWAP2 ADD PUSH1 0x40 MLOAD PUSH1 0x20 DUP2 DUP4 SUB SUB DUP2 MSTORE SWAP1 PUSH1 0x40 MSTORE DUP8 PUSH1 0x40 MLOAD DUP6 PUSH4 0xFFFFFFFF AND PUSH1 0xE0 SHL DUP2 MSTORE PUSH1 0x4 ADD PUSH2 0xBE2 SWAP5 SWAP4 SWAP3 SWAP2 SWAP1 PUSH2 0x2196 JUMP JUMPDEST PUSH1 0x40 DUP1 MLOAD PUSH1 0x1 PUSH1 0x1 PUSH1 0xA0 SHL SUB DUP7 DUP2 AND PUSH1 0x20 DUP4 ADD MSTORE PUSH32 0x0 SWAP1 DUP2 AND SWAP3 PUSH4 0x825F38F SWAP3 PUSH1 0x0 SWAP2 ADD PUSH1 0x40 MLOAD PUSH1 0x20 DUP2 DUP4 SUB SUB DUP2 MSTORE SWAP1 PUSH1 0x40 MSTORE DUP8 PUSH1 0x40 MLOAD DUP6 PUSH4 0xFFFFFFFF AND PUSH1 0xE0 SHL DUP2 MSTORE PUSH1 0x4 ADD PUSH2 0xCCC SWAP5 SWAP4 SWAP3 SWAP2 SWAP1 PUSH2 0x2196 JUMP JUMPDEST PUSH1 0x0 SWAP2 DUP3 MSTORE PUSH1 0x20 DUP3 DUP2 MSTORE PUSH1 0x40 DUP1 DUP5 KECCAK256 PUSH1 0x1 PUSH1 0x1 PUSH1 0xA0 SHL SUB SWAP4 SWAP1 SWAP4 AND DUP5 MSTORE SWAP2 SWAP1 MSTORE SWAP1 KECCAK256 SLOAD PUSH1 0xFF AND SWAP1 JUMP JUMPDEST PUSH1 0x0 DUP1 MLOAD PUSH1 0x20 PUSH2 0x26AD DUP4 CODECOPY DUP2 MLOAD SWAP2 MSTORE PUSH2 0xE94 DUP2 CALLER PUSH2 0x11DA JUMP JUMPDEST PUSH1 0x0 DUP3 PUSH1 0x1 DUP2 GT ISZERO PUSH2 0xEA8 JUMPI PUSH2 0xEA8 PUSH2 0x259A JUMP JUMPDEST EQ ISZERO PUSH2 0xF42 JUMPI PUSH32 0x0 PUSH1 0x1 PUSH1 0x1 PUSH1 0xA0 SHL SUB AND PUSH4 0x3A66F901 PUSH32 0x0 PUSH1 0x0 DUP8 PUSH1 0x40 MLOAD PUSH1 0x20 ADD PUSH2 0xF13 SWAP2 DUP2 MSTORE PUSH1 0x20 ADD SWAP1 JUMP JUMPDEST PUSH1 0x40 MLOAD PUSH1 0x20 DUP2 DUP4 SUB SUB DUP2 MSTORE SWAP1 PUSH1 0x40 MSTORE DUP8 PUSH1 0x40 MLOAD DUP6 PUSH4 0xFFFFFFFF AND PUSH1 0xE0 SHL DUP2 MSTORE PUSH1 0x4 ADD PUSH2 0xBE2 SWAP5 SWAP4 SWAP3 SWAP2 SWAP1 PUSH2 0x20DB JUMP JUMPDEST PUSH32 0x0 PUSH1 0x1 PUSH1 0x1 PUSH1 0xA0 SHL SUB AND PUSH4 0x825F38F PUSH32 0x0 PUSH1 0x0 DUP8 PUSH1 0x40 MLOAD PUSH1 0x20 ADD PUSH2 0xFA7 SWAP2 DUP2 MSTORE PUSH1 0x20 ADD SWAP1 JUMP JUMPDEST PUSH1 0x40 MLOAD PUSH1 0x20 DUP2 DUP4 SUB SUB DUP2 MSTORE SWAP1 PUSH1 0x40 MSTORE DUP8 PUSH1 0x40 MLOAD DUP6 PUSH4 0xFFFFFFFF AND PUSH1 0xE0 SHL DUP2 MSTORE PUSH1 0x4 ADD PUSH2 0xCCC SWAP5 SWAP4 SWAP3 SWAP2 SWAP1 PUSH2 0x20DB JUMP JUMPDEST PUSH1 0x0 DUP1 MLOAD PUSH1 0x20 PUSH2 0x26AD DUP4 CODECOPY DUP2 MLOAD SWAP2 MSTORE PUSH2 0xFEF DUP2 CALLER PUSH2 0x11DA JUMP JUMPDEST PUSH1 0x0 DUP3 PUSH1 0x1 DUP2 GT ISZERO PUSH2 0x1003 JUMPI PUSH2 0x1003 PUSH2 0x259A JUMP JUMPDEST EQ ISZERO PUSH2 0x1012 JUMPI PUSH2 0x6D5 DUP4 PUSH2 0x1347 JUMP JUMPDEST PUSH2 0x6D5 DUP4 PUSH2 0x16D8 JUMP JUMPDEST PUSH1 0x0 DUP2 DUP2 MSTORE PUSH1 0x3 PUSH1 0x20 MSTORE PUSH1 0x40 SWAP1 KECCAK256 SLOAD DUP2 SWAP1 PUSH1 0xFF AND ISZERO PUSH2 0x104C JUMPI PUSH1 0x40 MLOAD PUSH3 0x461BCD PUSH1 0xE5 SHL DUP2 MSTORE PUSH1 0x4 ADD PUSH2 0x7EE SWAP1 PUSH2 0x242F JUMP JUMPDEST PUSH2 0x1057 PUSH1 0x4 DUP3 PUSH2 0x1327 JUMP JUMPDEST POP PUSH1 0x0 DUP1 MLOAD PUSH1 0x20 PUSH2 0x26AD DUP4 CODECOPY DUP2 MLOAD SWAP2 MSTORE PUSH2 0x1071 DUP2 CALLER PUSH2 0x11DA JUMP JUMPDEST PUSH1 0x0 JUMPDEST DUP5 DUP2 LT ISZERO PUSH2 0x98A JUMPI PUSH1 0x0 DUP5 DUP2 MSTORE PUSH1 0x2 PUSH1 0x20 MSTORE PUSH1 0x40 SWAP1 KECCAK256 DUP7 DUP7 DUP4 DUP2 DUP2 LT PUSH2 0x109C JUMPI PUSH2 0x109C PUSH2 0x25B0 JUMP JUMPDEST DUP4 SLOAD PUSH1 0x1 DUP2 ADD DUP6 SSTORE PUSH1 0x0 SWAP5 DUP6 MSTORE PUSH1 0x20 SWAP1 SWAP5 KECCAK256 PUSH1 0x80 SWAP1 SWAP2 MUL SWAP3 SWAP1 SWAP3 ADD SWAP3 PUSH1 0x3 MUL SWAP1 SWAP2 ADD SWAP1 POP PUSH2 0x10CA DUP3 DUP3 PUSH2 0x2637 JUMP JUMPDEST POP POP DUP1 DUP1 PUSH2 0x10D7 SWAP1 PUSH2 0x2569 JUMP JUMPDEST SWAP2 POP POP PUSH2 0x1074 JUMP JUMPDEST PUSH1 0x0 DUP3 DUP2 MSTORE PUSH1 0x20 DUP2 SWAP1 MSTORE PUSH1 0x40 SWAP1 KECCAK256 PUSH1 0x1 ADD SLOAD PUSH2 0x10FB DUP2 CALLER PUSH2 0x11DA JUMP JUMPDEST PUSH2 0x6D5 DUP4 DUP4 PUSH2 0x12C2 JUMP JUMPDEST PUSH1 0x0 DUP1 MLOAD PUSH1 0x20 PUSH2 0x26AD DUP4 CODECOPY DUP2 MLOAD SWAP2 MSTORE PUSH2 0x111E DUP2 CALLER PUSH2 0x11DA JUMP JUMPDEST PUSH32 0x0 PUSH1 0x1 PUSH1 0x1 PUSH1 0xA0 SHL SUB AND PUSH4 0xE18B681 PUSH1 0x40 MLOAD DUP2 PUSH4 0xFFFFFFFF AND PUSH1 0xE0 SHL DUP2 MSTORE PUSH1 0x4 ADD PUSH1 0x0 PUSH1 0x40 MLOAD DUP1 DUP4 SUB DUP2 PUSH1 0x0 DUP8 DUP1 EXTCODESIZE ISZERO DUP1 ISZERO PUSH2 0x1179 JUMPI PUSH1 0x0 DUP1 REVERT JUMPDEST POP GAS CALL ISZERO DUP1 ISZERO PUSH2 0xD22 JUMPI RETURNDATASIZE PUSH1 0x0 DUP1 RETURNDATACOPY RETURNDATASIZE PUSH1 0x0 REVERT JUMPDEST PUSH1 0x1 PUSH1 0x20 MSTORE DUP2 PUSH1 0x0 MSTORE PUSH1 0x40 PUSH1 0x0 KECCAK256 DUP2 DUP2 SLOAD DUP2 LT PUSH2 0x11A9 JUMPI PUSH1 0x0 DUP1 REVERT JUMPDEST PUSH1 0x0 SWAP2 DUP3 MSTORE PUSH1 0x20 SWAP1 SWAP2 KECCAK256 PUSH1 0x3 SWAP1 SWAP2 MUL ADD DUP1 SLOAD PUSH1 0x1 DUP3 ADD SLOAD PUSH1 0x2 SWAP1 SWAP3 ADD SLOAD PUSH1 0x1 PUSH1 0x1 PUSH1 0xA0 SHL SUB SWAP2 DUP3 AND SWAP5 POP SWAP2 SWAP3 POP AND DUP4 JUMP JUMPDEST PUSH2 0x11E4 DUP3 DUP3 PUSH2 0xE52 JUMP JUMPDEST PUSH2 0x801 JUMPI PUSH2 0x11FC DUP2 PUSH1 0x1 PUSH1 0x1 PUSH1 0xA0 SHL SUB AND PUSH1 0x14 PUSH2 0x1A53 JUMP JUMPDEST PUSH2 0x1207 DUP4 PUSH1 0x20 PUSH2 0x1A53 JUMP JUMPDEST PUSH1 0x40 MLOAD PUSH1 0x20 ADD PUSH2 0x1218 SWAP3 SWAP2 SWAP1 PUSH2 0x2066 JUMP JUMPDEST PUSH1 0x40 DUP1 MLOAD PUSH1 0x1F NOT DUP2 DUP5 SUB ADD DUP2 MSTORE SWAP1 DUP3 SWAP1 MSTORE PUSH3 0x461BCD PUSH1 0xE5 SHL DUP3 MSTORE PUSH2 0x7EE SWAP2 PUSH1 0x4 ADD PUSH2 0x241C JUMP JUMPDEST PUSH2 0x1248 DUP3 DUP3 PUSH2 0xE52 JUMP JUMPDEST PUSH2 0x801 JUMPI PUSH1 0x0 DUP3 DUP2 MSTORE PUSH1 0x20 DUP2 DUP2 MSTORE PUSH1 0x40 DUP1 DUP4 KECCAK256 PUSH1 0x1 PUSH1 0x1 PUSH1 0xA0 SHL SUB DUP6 AND DUP5 MSTORE SWAP1 SWAP2 MSTORE SWAP1 KECCAK256 DUP1 SLOAD PUSH1 0xFF NOT AND PUSH1 0x1 OR SWAP1 SSTORE PUSH2 0x127E CALLER SWAP1 JUMP JUMPDEST PUSH1 0x1 PUSH1 0x1 PUSH1 0xA0 SHL SUB AND DUP2 PUSH1 0x1 PUSH1 0x1 PUSH1 0xA0 SHL SUB AND DUP4 PUSH32 0x2F8788117E7EFF1D82E926EC794901D17C78024A50270940304540A733656F0D PUSH1 0x40 MLOAD PUSH1 0x40 MLOAD DUP1 SWAP2 SUB SWAP1 LOG4 POP POP JUMP JUMPDEST PUSH2 0x12CC DUP3 DUP3 PUSH2 0xE52 JUMP JUMPDEST ISZERO PUSH2 0x801 JUMPI PUSH1 0x0 DUP3 DUP2 MSTORE PUSH1 0x20 DUP2 DUP2 MSTORE PUSH1 0x40 DUP1 DUP4 KECCAK256 PUSH1 0x1 PUSH1 0x1 PUSH1 0xA0 SHL SUB DUP6 AND DUP1 DUP6 MSTORE SWAP3 MSTORE DUP1 DUP4 KECCAK256 DUP1 SLOAD PUSH1 0xFF NOT AND SWAP1 SSTORE MLOAD CALLER SWAP3 DUP6 SWAP2 PUSH32 0xF6391F5C32D9C69D2A47EA670B442974B53935D1EDC7FD64EB21E047A839171B SWAP2 SWAP1 LOG4 POP POP JUMP JUMPDEST PUSH1 0x0 PUSH2 0x1333 DUP4 DUP4 PUSH2 0x1BEF JUMP JUMPDEST SWAP4 SWAP3 POP POP POP JUMP JUMPDEST PUSH1 0x60 PUSH1 0x0 PUSH2 0x1333 DUP4 PUSH2 0x1C3E JUMP JUMPDEST PUSH1 0x0 DUP2 DUP2 MSTORE PUSH1 0x2 PUSH1 0x20 MSTORE PUSH1 0x40 DUP2 KECCAK256 SWAP1 JUMPDEST DUP2 SLOAD DUP2 LT ISZERO PUSH2 0x1509 JUMPI PUSH32 0x0 PUSH1 0x1 PUSH1 0x1 PUSH1 0xA0 SHL SUB AND PUSH4 0x3A66F901 PUSH32 0x0 PUSH1 0x0 DUP6 DUP6 DUP2 SLOAD DUP2 LT PUSH2 0x13C4 JUMPI PUSH2 0x13C4 PUSH2 0x25B0 JUMP JUMPDEST SWAP1 PUSH1 0x0 MSTORE PUSH1 0x20 PUSH1 0x0 KECCAK256 SWAP1 PUSH1 0x3 MUL ADD PUSH1 0x0 ADD SLOAD DUP7 DUP7 DUP2 SLOAD DUP2 LT PUSH2 0x13E8 JUMPI PUSH2 0x13E8 PUSH2 0x25B0 JUMP JUMPDEST SWAP1 PUSH1 0x0 MSTORE PUSH1 0x20 PUSH1 0x0 KECCAK256 SWAP1 PUSH1 0x3 MUL ADD PUSH1 0x1 ADD SLOAD DUP8 DUP8 DUP2 SLOAD DUP2 LT PUSH2 0x140C JUMPI PUSH2 0x140C PUSH2 0x25B0 JUMP JUMPDEST SWAP1 PUSH1 0x0 MSTORE PUSH1 0x20 PUSH1 0x0 KECCAK256 SWAP1 PUSH1 0x3 MUL ADD PUSH1 0x2 ADD PUSH1 0x0 SWAP1 SLOAD SWAP1 PUSH2 0x100 EXP SWAP1 DIV PUSH1 0x1 PUSH1 0x1 PUSH1 0xA0 SHL SUB AND DUP9 DUP9 DUP2 SLOAD DUP2 LT PUSH2 0x1443 JUMPI PUSH2 0x1443 PUSH2 0x25B0 JUMP JUMPDEST SWAP1 PUSH1 0x0 MSTORE PUSH1 0x20 PUSH1 0x0 KECCAK256 SWAP1 PUSH1 0x3 MUL ADD PUSH1 0x2 ADD PUSH1 0x14 SWAP1 SLOAD SWAP1 PUSH2 0x100 EXP SWAP1 DIV PUSH1 0xFF AND PUSH1 0x40 MLOAD PUSH1 0x20 ADD PUSH2 0x1475 SWAP5 SWAP4 SWAP3 SWAP2 SWAP1 PUSH2 0x2470 JUMP JUMPDEST PUSH1 0x40 MLOAD PUSH1 0x20 DUP2 DUP4 SUB SUB DUP2 MSTORE SWAP1 PUSH1 0x40 MSTORE DUP8 PUSH1 0x40 MLOAD DUP6 PUSH4 0xFFFFFFFF AND PUSH1 0xE0 SHL DUP2 MSTORE PUSH1 0x4 ADD PUSH2 0x14A4 SWAP5 SWAP4 SWAP3 SWAP2 SWAP1 PUSH2 0x21F1 JUMP JUMPDEST PUSH1 0x20 PUSH1 0x40 MLOAD DUP1 DUP4 SUB DUP2 PUSH1 0x0 DUP8 DUP1 EXTCODESIZE ISZERO DUP1 ISZERO PUSH2 0x14BE JUMPI PUSH1 0x0 DUP1 REVERT JUMPDEST POP GAS CALL ISZERO DUP1 ISZERO PUSH2 0x14D2 JUMPI RETURNDATASIZE PUSH1 0x0 DUP1 RETURNDATACOPY RETURNDATASIZE PUSH1 0x0 REVERT JUMPDEST POP POP POP POP PUSH1 0x40 MLOAD RETURNDATASIZE PUSH1 0x1F NOT PUSH1 0x1F DUP3 ADD AND DUP3 ADD DUP1 PUSH1 0x40 MSTORE POP DUP2 ADD SWAP1 PUSH2 0x14F6 SWAP2 SWAP1 PUSH2 0x1ED6 JUMP JUMPDEST POP DUP1 PUSH2 0x1501 DUP2 PUSH2 0x2569 JUMP JUMPDEST SWAP2 POP POP PUSH2 0x1357 JUMP JUMPDEST POP PUSH1 0x0 DUP3 DUP2 MSTORE PUSH1 0x1 PUSH1 0x20 MSTORE PUSH1 0x40 DUP2 KECCAK256 SWAP1 JUMPDEST DUP2 SLOAD DUP2 LT ISZERO PUSH2 0x16BA JUMPI PUSH32 0x0 PUSH1 0x1 PUSH1 0x1 PUSH1 0xA0 SHL SUB AND PUSH4 0x3A66F901 PUSH32 0x0 PUSH1 0x0 DUP6 DUP6 DUP2 SLOAD DUP2 LT PUSH2 0x1587 JUMPI PUSH2 0x1587 PUSH2 0x25B0 JUMP JUMPDEST SWAP1 PUSH1 0x0 MSTORE PUSH1 0x20 PUSH1 0x0 KECCAK256 SWAP1 PUSH1 0x3 MUL ADD PUSH1 0x1 ADD SLOAD DUP7 DUP7 DUP2 SLOAD DUP2 LT PUSH2 0x15AB JUMPI PUSH2 0x15AB PUSH2 0x25B0 JUMP JUMPDEST PUSH1 0x0 SWAP2 DUP3 MSTORE PUSH1 0x20 SWAP1 SWAP2 KECCAK256 PUSH1 0x3 SWAP1 SWAP2 MUL ADD SLOAD DUP8 SLOAD PUSH1 0x1 PUSH1 0x1 PUSH1 0xA0 SHL SUB SWAP1 SWAP2 AND SWAP1 DUP9 SWAP1 DUP9 SWAP1 DUP2 LT PUSH2 0x15DC JUMPI PUSH2 0x15DC PUSH2 0x25B0 JUMP JUMPDEST PUSH1 0x0 SWAP2 DUP3 MSTORE PUSH1 0x20 SWAP2 DUP3 SWAP1 KECCAK256 PUSH1 0x2 PUSH1 0x3 SWAP1 SWAP3 MUL ADD ADD SLOAD PUSH1 0x40 MLOAD PUSH2 0x1626 SWAP5 SWAP4 SWAP3 PUSH1 0x1 PUSH1 0x1 PUSH1 0xA0 SHL SUB SWAP1 SWAP3 AND SWAP2 ADD SWAP3 DUP4 MSTORE PUSH1 0x1 PUSH1 0x1 PUSH1 0xA0 SHL SUB SWAP2 DUP3 AND PUSH1 0x20 DUP5 ADD MSTORE AND PUSH1 0x40 DUP3 ADD MSTORE PUSH1 0x60 ADD SWAP1 JUMP JUMPDEST PUSH1 0x40 MLOAD PUSH1 0x20 DUP2 DUP4 SUB SUB DUP2 MSTORE SWAP1 PUSH1 0x40 MSTORE DUP9 PUSH1 0x40 MLOAD DUP6 PUSH4 0xFFFFFFFF AND PUSH1 0xE0 SHL DUP2 MSTORE PUSH1 0x4 ADD PUSH2 0x1655 SWAP5 SWAP4 SWAP3 SWAP2 SWAP1 PUSH2 0x2269 JUMP JUMPDEST PUSH1 0x20 PUSH1 0x40 MLOAD DUP1 DUP4 SUB DUP2 PUSH1 0x0 DUP8 DUP1 EXTCODESIZE ISZERO DUP1 ISZERO PUSH2 0x166F JUMPI PUSH1 0x0 DUP1 REVERT JUMPDEST POP GAS CALL ISZERO DUP1 ISZERO PUSH2 0x1683 JUMPI RETURNDATASIZE PUSH1 0x0 DUP1 RETURNDATACOPY RETURNDATASIZE PUSH1 0x0 REVERT JUMPDEST POP POP POP POP PUSH1 0x40 MLOAD RETURNDATASIZE PUSH1 0x1F NOT PUSH1 0x1F DUP3 ADD AND DUP3 ADD DUP1 PUSH1 0x40 MSTORE POP DUP2 ADD SWAP1 PUSH2 0x16A7 SWAP2 SWAP1 PUSH2 0x1ED6 JUMP JUMPDEST POP DUP1 PUSH2 0x16B2 DUP2 PUSH2 0x2569 JUMP JUMPDEST SWAP2 POP POP PUSH2 0x151A JUMP JUMPDEST POP POP POP PUSH1 0x0 SWAP1 DUP2 MSTORE PUSH1 0x3 PUSH1 0x20 MSTORE PUSH1 0x40 SWAP1 KECCAK256 DUP1 SLOAD PUSH1 0xFF NOT AND PUSH1 0x1 OR SWAP1 SSTORE JUMP JUMPDEST PUSH1 0x0 DUP2 DUP2 MSTORE PUSH1 0x2 PUSH1 0x20 MSTORE PUSH1 0x40 DUP2 KECCAK256 SWAP1 JUMPDEST DUP2 SLOAD DUP2 LT ISZERO PUSH2 0x189E JUMPI PUSH32 0x0 PUSH1 0x1 PUSH1 0x1 PUSH1 0xA0 SHL SUB AND PUSH4 0x825F38F PUSH32 0x0 PUSH1 0x0 DUP6 DUP6 DUP2 SLOAD DUP2 LT PUSH2 0x1755 JUMPI PUSH2 0x1755 PUSH2 0x25B0 JUMP JUMPDEST SWAP1 PUSH1 0x0 MSTORE PUSH1 0x20 PUSH1 0x0 KECCAK256 SWAP1 PUSH1 0x3 MUL ADD PUSH1 0x0 ADD SLOAD DUP7 DUP7 DUP2 SLOAD DUP2 LT PUSH2 0x1779 JUMPI PUSH2 0x1779 PUSH2 0x25B0 JUMP JUMPDEST SWAP1 PUSH1 0x0 MSTORE PUSH1 0x20 PUSH1 0x0 KECCAK256 SWAP1 PUSH1 0x3 MUL ADD PUSH1 0x1 ADD SLOAD DUP8 DUP8 DUP2 SLOAD DUP2 LT PUSH2 0x179D JUMPI PUSH2 0x179D PUSH2 0x25B0 JUMP JUMPDEST SWAP1 PUSH1 0x0 MSTORE PUSH1 0x20 PUSH1 0x0 KECCAK256 SWAP1 PUSH1 0x3 MUL ADD PUSH1 0x2 ADD PUSH1 0x0 SWAP1 SLOAD SWAP1 PUSH2 0x100 EXP SWAP1 DIV PUSH1 0x1 PUSH1 0x1 PUSH1 0xA0 SHL SUB AND DUP9 DUP9 DUP2 SLOAD DUP2 LT PUSH2 0x17D4 JUMPI PUSH2 0x17D4 PUSH2 0x25B0 JUMP JUMPDEST SWAP1 PUSH1 0x0 MSTORE PUSH1 0x20 PUSH1 0x0 KECCAK256 SWAP1 PUSH1 0x3 MUL ADD PUSH1 0x2 ADD PUSH1 0x14 SWAP1 SLOAD SWAP1 PUSH2 0x100 EXP SWAP1 DIV PUSH1 0xFF AND PUSH1 0x40 MLOAD PUSH1 0x20 ADD PUSH2 0x1806 SWAP5 SWAP4 SWAP3 SWAP2 SWAP1 PUSH2 0x2470 JUMP JUMPDEST PUSH1 0x40 MLOAD PUSH1 0x20 DUP2 DUP4 SUB SUB DUP2 MSTORE SWAP1 PUSH1 0x40 MSTORE DUP8 PUSH1 0x40 MLOAD DUP6 PUSH4 0xFFFFFFFF AND PUSH1 0xE0 SHL DUP2 MSTORE PUSH1 0x4 ADD PUSH2 0x1835 SWAP5 SWAP4 SWAP3 SWAP2 SWAP1 PUSH2 0x21F1 JUMP JUMPDEST PUSH1 0x0 PUSH1 0x40 MLOAD DUP1 DUP4 SUB DUP2 PUSH1 0x0 DUP8 DUP1 EXTCODESIZE ISZERO DUP1 ISZERO PUSH2 0x184F JUMPI PUSH1 0x0 DUP1 REVERT JUMPDEST POP GAS CALL ISZERO DUP1 ISZERO PUSH2 0x1863 JUMPI RETURNDATASIZE PUSH1 0x0 DUP1 RETURNDATACOPY RETURNDATASIZE PUSH1 0x0 REVERT JUMPDEST POP POP POP POP PUSH1 0x40 MLOAD RETURNDATASIZE PUSH1 0x0 DUP3 RETURNDATACOPY PUSH1 0x1F RETURNDATASIZE SWAP1 DUP2 ADD PUSH1 0x1F NOT AND DUP3 ADD PUSH1 0x40 MSTORE PUSH2 0x188B SWAP2 SWAP1 DUP2 ADD SWAP1 PUSH2 0x1F49 JUMP JUMPDEST POP DUP1 PUSH2 0x1896 DUP2 PUSH2 0x2569 JUMP JUMPDEST SWAP2 POP POP PUSH2 0x16E8 JUMP JUMPDEST POP PUSH1 0x0 DUP3 DUP2 MSTORE PUSH1 0x1 PUSH1 0x20 MSTORE PUSH1 0x40 DUP2 KECCAK256 SWAP1 JUMPDEST DUP2 SLOAD DUP2 LT ISZERO PUSH2 0xD24 JUMPI PUSH32 0x0 PUSH1 0x1 PUSH1 0x1 PUSH1 0xA0 SHL SUB AND PUSH4 0x825F38F PUSH32 0x0 PUSH1 0x0 DUP6 DUP6 DUP2 SLOAD DUP2 LT PUSH2 0x191C JUMPI PUSH2 0x191C PUSH2 0x25B0 JUMP JUMPDEST SWAP1 PUSH1 0x0 MSTORE PUSH1 0x20 PUSH1 0x0 KECCAK256 SWAP1 PUSH1 0x3 MUL ADD PUSH1 0x1 ADD SLOAD DUP7 DUP7 DUP2 SLOAD DUP2 LT PUSH2 0x1940 JUMPI PUSH2 0x1940 PUSH2 0x25B0 JUMP JUMPDEST PUSH1 0x0 SWAP2 DUP3 MSTORE PUSH1 0x20 SWAP1 SWAP2 KECCAK256 PUSH1 0x3 SWAP1 SWAP2 MUL ADD SLOAD DUP8 SLOAD PUSH1 0x1 PUSH1 0x1 PUSH1 0xA0 SHL SUB SWAP1 SWAP2 AND SWAP1 DUP9 SWAP1 DUP9 SWAP1 DUP2 LT PUSH2 0x1971 JUMPI PUSH2 0x1971 PUSH2 0x25B0 JUMP JUMPDEST PUSH1 0x0 SWAP2 DUP3 MSTORE PUSH1 0x20 SWAP2 DUP3 SWAP1 KECCAK256 PUSH1 0x2 PUSH1 0x3 SWAP1 SWAP3 MUL ADD ADD SLOAD PUSH1 0x40 MLOAD PUSH2 0x19BB SWAP5 SWAP4 SWAP3 PUSH1 0x1 PUSH1 0x1 PUSH1 0xA0 SHL SUB SWAP1 SWAP3 AND SWAP2 ADD SWAP3 DUP4 MSTORE PUSH1 0x1 PUSH1 0x1 PUSH1 0xA0 SHL SUB SWAP2 DUP3 AND PUSH1 0x20 DUP5 ADD MSTORE AND PUSH1 0x40 DUP3 ADD MSTORE PUSH1 0x60 ADD SWAP1 JUMP JUMPDEST PUSH1 0x40 MLOAD PUSH1 0x20 DUP2 DUP4 SUB SUB DUP2 MSTORE SWAP1 PUSH1 0x40 MSTORE DUP9 PUSH1 0x40 MLOAD DUP6 PUSH4 0xFFFFFFFF AND PUSH1 0xE0 SHL DUP2 MSTORE PUSH1 0x4 ADD PUSH2 0x19EA SWAP5 SWAP4 SWAP3 SWAP2 SWAP1 PUSH2 0x2269 JUMP JUMPDEST PUSH1 0x0 PUSH1 0x40 MLOAD DUP1 DUP4 SUB DUP2 PUSH1 0x0 DUP8 DUP1 EXTCODESIZE ISZERO DUP1 ISZERO PUSH2 0x1A04 JUMPI PUSH1 0x0 DUP1 REVERT JUMPDEST POP GAS CALL ISZERO DUP1 ISZERO PUSH2 0x1A18 JUMPI RETURNDATASIZE PUSH1 0x0 DUP1 RETURNDATACOPY RETURNDATASIZE PUSH1 0x0 REVERT JUMPDEST POP POP POP POP PUSH1 0x40 MLOAD RETURNDATASIZE PUSH1 0x0 DUP3 RETURNDATACOPY PUSH1 0x1F RETURNDATASIZE SWAP1 DUP2 ADD PUSH1 0x1F NOT AND DUP3 ADD PUSH1 0x40 MSTORE PUSH2 0x1A40 SWAP2 SWAP1 DUP2 ADD SWAP1 PUSH2 0x1F49 JUMP JUMPDEST POP DUP1 PUSH2 0x1A4B DUP2 PUSH2 0x2569 JUMP JUMPDEST SWAP2 POP POP PUSH2 0x18AF JUMP JUMPDEST PUSH1 0x60 PUSH1 0x0 PUSH2 0x1A62 DUP4 PUSH1 0x2 PUSH2 0x2507 JUMP JUMPDEST PUSH2 0x1A6D SWAP1 PUSH1 0x2 PUSH2 0x24EF JUMP JUMPDEST PUSH8 0xFFFFFFFFFFFFFFFF DUP2 GT ISZERO PUSH2 0x1A85 JUMPI PUSH2 0x1A85 PUSH2 0x25C6 JUMP JUMPDEST PUSH1 0x40 MLOAD SWAP1 DUP1 DUP3 MSTORE DUP1 PUSH1 0x1F ADD PUSH1 0x1F NOT AND PUSH1 0x20 ADD DUP3 ADD PUSH1 0x40 MSTORE DUP1 ISZERO PUSH2 0x1AAF JUMPI PUSH1 0x20 DUP3 ADD DUP2 DUP1 CALLDATASIZE DUP4 CALLDATACOPY ADD SWAP1 POP JUMPDEST POP SWAP1 POP PUSH1 0x3 PUSH1 0xFC SHL DUP2 PUSH1 0x0 DUP2 MLOAD DUP2 LT PUSH2 0x1ACA JUMPI PUSH2 0x1ACA PUSH2 0x25B0 JUMP JUMPDEST PUSH1 0x20 ADD ADD SWAP1 PUSH1 0x1 PUSH1 0x1 PUSH1 0xF8 SHL SUB NOT AND SWAP1 DUP2 PUSH1 0x0 BYTE SWAP1 MSTORE8 POP PUSH1 0xF PUSH1 0xFB SHL DUP2 PUSH1 0x1 DUP2 MLOAD DUP2 LT PUSH2 0x1AF9 JUMPI PUSH2 0x1AF9 PUSH2 0x25B0 JUMP JUMPDEST PUSH1 0x20 ADD ADD SWAP1 PUSH1 0x1 PUSH1 0x1 PUSH1 0xF8 SHL SUB NOT AND SWAP1 DUP2 PUSH1 0x0 BYTE SWAP1 MSTORE8 POP PUSH1 0x0 PUSH2 0x1B1D DUP5 PUSH1 0x2 PUSH2 0x2507 JUMP JUMPDEST PUSH2 0x1B28 SWAP1 PUSH1 0x1 PUSH2 0x24EF JUMP JUMPDEST SWAP1 POP JUMPDEST PUSH1 0x1 DUP2 GT ISZERO PUSH2 0x1BA0 JUMPI PUSH16 0x181899199A1A9B1B9C1CB0B131B232B3 PUSH1 0x81 SHL DUP6 PUSH1 0xF AND PUSH1 0x10 DUP2 LT PUSH2 0x1B5C JUMPI PUSH2 0x1B5C PUSH2 0x25B0 JUMP JUMPDEST BYTE PUSH1 0xF8 SHL DUP3 DUP3 DUP2 MLOAD DUP2 LT PUSH2 0x1B72 JUMPI PUSH2 0x1B72 PUSH2 0x25B0 JUMP JUMPDEST PUSH1 0x20 ADD ADD SWAP1 PUSH1 0x1 PUSH1 0x1 PUSH1 0xF8 SHL SUB NOT AND SWAP1 DUP2 PUSH1 0x0 BYTE SWAP1 MSTORE8 POP PUSH1 0x4 SWAP5 SWAP1 SWAP5 SHR SWAP4 PUSH2 0x1B99 DUP2 PUSH2 0x2552 JUMP JUMPDEST SWAP1 POP PUSH2 0x1B2B JUMP JUMPDEST POP DUP4 ISZERO PUSH2 0x1333 JUMPI PUSH1 0x40 MLOAD PUSH3 0x461BCD PUSH1 0xE5 SHL DUP2 MSTORE PUSH1 0x20 PUSH1 0x4 DUP3 ADD DUP2 SWAP1 MSTORE PUSH1 0x24 DUP3 ADD MSTORE PUSH32 0x537472696E67733A20686578206C656E67746820696E73756666696369656E74 PUSH1 0x44 DUP3 ADD MSTORE PUSH1 0x64 ADD PUSH2 0x7EE JUMP JUMPDEST PUSH1 0x0 DUP2 DUP2 MSTORE PUSH1 0x1 DUP4 ADD PUSH1 0x20 MSTORE PUSH1 0x40 DUP2 KECCAK256 SLOAD PUSH2 0x1C36 JUMPI POP DUP2 SLOAD PUSH1 0x1 DUP2 DUP2 ADD DUP5 SSTORE PUSH1 0x0 DUP5 DUP2 MSTORE PUSH1 0x20 DUP1 DUP3 KECCAK256 SWAP1 SWAP4 ADD DUP5 SWAP1 SSTORE DUP5 SLOAD DUP5 DUP3 MSTORE DUP3 DUP7 ADD SWAP1 SWAP4 MSTORE PUSH1 0x40 SWAP1 KECCAK256 SWAP2 SWAP1 SWAP2 SSTORE PUSH2 0x5D9 JUMP JUMPDEST POP PUSH1 0x0 PUSH2 0x5D9 JUMP JUMPDEST PUSH1 0x60 DUP2 PUSH1 0x0 ADD DUP1 SLOAD DUP1 PUSH1 0x20 MUL PUSH1 0x20 ADD PUSH1 0x40 MLOAD SWAP1 DUP2 ADD PUSH1 0x40 MSTORE DUP1 SWAP3 SWAP2 SWAP1 DUP2 DUP2 MSTORE PUSH1 0x20 ADD DUP3 DUP1 SLOAD DUP1 ISZERO PUSH2 0x1C8E JUMPI PUSH1 0x20 MUL DUP3 ADD SWAP2 SWAP1 PUSH1 0x0 MSTORE PUSH1 0x20 PUSH1 0x0 KECCAK256 SWAP1 JUMPDEST DUP2 SLOAD DUP2 MSTORE PUSH1 0x20 ADD SWAP1 PUSH1 0x1 ADD SWAP1 DUP1 DUP4 GT PUSH2 0x1C7A JUMPI JUMPDEST POP POP POP POP POP SWAP1 POP SWAP2 SWAP1 POP JUMP JUMPDEST PUSH1 0x0 PUSH2 0x1CAD PUSH2 0x1CA8 DUP5 PUSH2 0x24C7 JUMP JUMPDEST PUSH2 0x2496 JUMP JUMPDEST SWAP1 POP DUP3 DUP2 MSTORE DUP4 DUP4 DUP4 ADD GT ISZERO PUSH2 0x1CC1 JUMPI PUSH1 0x0 DUP1 REVERT JUMPDEST DUP3 DUP3 PUSH1 0x20 DUP4 ADD CALLDATACOPY PUSH1 0x0 PUSH1 0x20 DUP5 DUP4 ADD ADD MSTORE SWAP4 SWAP3 POP POP POP JUMP JUMPDEST DUP1 CALLDATALOAD PUSH1 0x2 DUP2 LT PUSH2 0x1CE7 JUMPI PUSH1 0x0 DUP1 REVERT JUMPDEST SWAP2 SWAP1 POP JUMP JUMPDEST PUSH1 0x0 DUP1 PUSH1 0x0 PUSH1 0x60 DUP5 DUP7 SUB SLT ISZERO PUSH2 0x1D01 JUMPI PUSH1 0x0 DUP1 REVERT JUMPDEST DUP4 CALLDATALOAD PUSH2 0x1D0C DUP2 PUSH2 0x2694 JUMP JUMPDEST SWAP3 POP PUSH1 0x20 DUP5 ADD CALLDATALOAD SWAP2 POP PUSH2 0x1D21 PUSH1 0x40 DUP6 ADD PUSH2 0x1CD8 JUMP JUMPDEST SWAP1 POP SWAP3 POP SWAP3 POP SWAP3 JUMP JUMPDEST PUSH1 0x0 DUP1 PUSH1 0x0 DUP1 PUSH1 0x0 PUSH1 0xA0 DUP7 DUP9 SUB SLT ISZERO PUSH2 0x1D42 JUMPI PUSH1 0x0 DUP1 REVERT JUMPDEST DUP6 CALLDATALOAD PUSH2 0x1D4D DUP2 PUSH2 0x2694 JUMP JUMPDEST SWAP5 POP PUSH1 0x20 DUP7 ADD CALLDATALOAD SWAP4 POP PUSH1 0x40 DUP7 ADD CALLDATALOAD PUSH8 0xFFFFFFFFFFFFFFFF DUP1 DUP3 GT ISZERO PUSH2 0x1D71 JUMPI PUSH1 0x0 DUP1 REVERT JUMPDEST DUP2 DUP9 ADD SWAP2 POP DUP9 PUSH1 0x1F DUP4 ADD SLT PUSH2 0x1D85 JUMPI PUSH1 0x0 DUP1 REVERT JUMPDEST PUSH2 0x1D94 DUP10 DUP4 CALLDATALOAD PUSH1 0x20 DUP6 ADD PUSH2 0x1C9A JUMP JUMPDEST SWAP5 POP PUSH1 0x60 DUP9 ADD CALLDATALOAD SWAP2 POP DUP1 DUP3 GT ISZERO PUSH2 0x1DAA JUMPI PUSH1 0x0 DUP1 REVERT JUMPDEST POP DUP7 ADD PUSH1 0x1F DUP2 ADD DUP9 SGT PUSH2 0x1DBC JUMPI PUSH1 0x0 DUP1 REVERT JUMPDEST PUSH2 0x1DCB DUP9 DUP3 CALLDATALOAD PUSH1 0x20 DUP5 ADD PUSH2 0x1C9A JUMP JUMPDEST SWAP6 SWAP9 SWAP5 SWAP8 POP SWAP3 SWAP6 PUSH1 0x80 ADD CALLDATALOAD SWAP4 SWAP3 POP POP POP JUMP JUMPDEST PUSH1 0x0 DUP1 PUSH1 0x0 PUSH1 0x40 DUP5 DUP7 SUB SLT ISZERO PUSH2 0x1DF2 JUMPI PUSH1 0x0 DUP1 REVERT JUMPDEST DUP4 CALLDATALOAD PUSH8 0xFFFFFFFFFFFFFFFF DUP1 DUP3 GT ISZERO PUSH2 0x1E0A JUMPI PUSH1 0x0 DUP1 REVERT JUMPDEST DUP2 DUP7 ADD SWAP2 POP DUP7 PUSH1 0x1F DUP4 ADD SLT PUSH2 0x1E1E JUMPI PUSH1 0x0 DUP1 REVERT JUMPDEST DUP2 CALLDATALOAD DUP2 DUP2 GT ISZERO PUSH2 0x1E2D JUMPI PUSH1 0x0 DUP1 REVERT JUMPDEST DUP8 PUSH1 0x20 PUSH1 0x60 DUP4 MUL DUP6 ADD ADD GT ISZERO PUSH2 0x1E42 JUMPI PUSH1 0x0 DUP1 REVERT JUMPDEST PUSH1 0x20 SWAP3 DUP4 ADD SWAP9 SWAP1 SWAP8 POP SWAP6 SWAP1 SWAP2 ADD CALLDATALOAD SWAP5 SWAP4 POP POP POP POP JUMP JUMPDEST PUSH1 0x0 DUP1 PUSH1 0x0 PUSH1 0x40 DUP5 DUP7 SUB SLT ISZERO PUSH2 0x1E6D JUMPI PUSH1 0x0 DUP1 REVERT JUMPDEST DUP4 CALLDATALOAD PUSH8 0xFFFFFFFFFFFFFFFF DUP1 DUP3 GT ISZERO PUSH2 0x1E85 JUMPI PUSH1 0x0 DUP1 REVERT JUMPDEST DUP2 DUP7 ADD SWAP2 POP DUP7 PUSH1 0x1F DUP4 ADD SLT PUSH2 0x1E99 JUMPI PUSH1 0x0 DUP1 REVERT JUMPDEST DUP2 CALLDATALOAD DUP2 DUP2 GT ISZERO PUSH2 0x1EA8 JUMPI PUSH1 0x0 DUP1 REVERT JUMPDEST DUP8 PUSH1 0x20 DUP3 PUSH1 0x7 SHL DUP6 ADD ADD GT ISZERO PUSH2 0x1E42 JUMPI PUSH1 0x0 DUP1 REVERT JUMPDEST PUSH1 0x0 PUSH1 0x20 DUP3 DUP5 SUB SLT ISZERO PUSH2 0x1ECF JUMPI PUSH1 0x0 DUP1 REVERT JUMPDEST POP CALLDATALOAD SWAP2 SWAP1 POP JUMP JUMPDEST PUSH1 0x0 PUSH1 0x20 DUP3 DUP5 SUB SLT ISZERO PUSH2 0x1EE8 JUMPI PUSH1 0x0 DUP1 REVERT JUMPDEST POP MLOAD SWAP2 SWAP1 POP JUMP JUMPDEST PUSH1 0x0 DUP1 PUSH1 0x40 DUP4 DUP6 SUB SLT ISZERO PUSH2 0x1F02 JUMPI PUSH1 0x0 DUP1 REVERT JUMPDEST DUP3 CALLDATALOAD SWAP2 POP PUSH1 0x20 DUP4 ADD CALLDATALOAD PUSH2 0x1F14 DUP2 PUSH2 0x2694 JUMP JUMPDEST DUP1 SWAP2 POP POP SWAP3 POP SWAP3 SWAP1 POP JUMP JUMPDEST PUSH1 0x0 PUSH1 0x20 DUP3 DUP5 SUB SLT ISZERO PUSH2 0x1F31 JUMPI PUSH1 0x0 DUP1 REVERT JUMPDEST DUP2 CALLDATALOAD PUSH1 0x1 PUSH1 0x1 PUSH1 0xE0 SHL SUB NOT DUP2 AND DUP2 EQ PUSH2 0x1333 JUMPI PUSH1 0x0 DUP1 REVERT JUMPDEST PUSH1 0x0 PUSH1 0x20 DUP3 DUP5 SUB SLT ISZERO PUSH2 0x1F5B JUMPI PUSH1 0x0 DUP1 REVERT JUMPDEST DUP2 MLOAD PUSH8 0xFFFFFFFFFFFFFFFF DUP2 GT ISZERO PUSH2 0x1F72 JUMPI PUSH1 0x0 DUP1 REVERT JUMPDEST DUP3 ADD PUSH1 0x1F DUP2 ADD DUP5 SGT PUSH2 0x1F83 JUMPI PUSH1 0x0 DUP1 REVERT JUMPDEST DUP1 MLOAD PUSH2 0x1F91 PUSH2 0x1CA8 DUP3 PUSH2 0x24C7 JUMP JUMPDEST DUP2 DUP2 MSTORE DUP6 PUSH1 0x20 DUP4 DUP6 ADD ADD GT ISZERO PUSH2 0x1FA6 JUMPI PUSH1 0x0 DUP1 REVERT JUMPDEST PUSH2 0x1FB7 DUP3 PUSH1 0x20 DUP4 ADD PUSH1 0x20 DUP7 ADD PUSH2 0x2526 JUMP JUMPDEST SWAP6 SWAP5 POP POP POP POP POP JUMP JUMPDEST PUSH1 0x0 DUP1 PUSH1 0x40 DUP4 DUP6 SUB SLT ISZERO PUSH2 0x1FD3 JUMPI PUSH1 0x0 DUP1 REVERT JUMPDEST DUP3 CALLDATALOAD SWAP2 POP PUSH2 0x1FE3 PUSH1 0x20 DUP5 ADD PUSH2 0x1CD8 JUMP JUMPDEST SWAP1 POP SWAP3 POP SWAP3 SWAP1 POP JUMP JUMPDEST PUSH1 0x0 DUP1 PUSH1 0x40 DUP4 DUP6 SUB SLT ISZERO PUSH2 0x1FFF JUMPI PUSH1 0x0 DUP1 REVERT JUMPDEST POP POP DUP1 CALLDATALOAD SWAP3 PUSH1 0x20 SWAP1 SWAP2 ADD CALLDATALOAD SWAP2 POP JUMP JUMPDEST PUSH1 0x0 DUP1 PUSH1 0x0 PUSH1 0x60 DUP5 DUP7 SUB SLT ISZERO PUSH2 0x2023 JUMPI PUSH1 0x0 DUP1 REVERT JUMPDEST DUP4 CALLDATALOAD SWAP3 POP PUSH1 0x20 DUP5 ADD CALLDATALOAD SWAP2 POP PUSH2 0x1D21 PUSH1 0x40 DUP6 ADD PUSH2 0x1CD8 JUMP JUMPDEST PUSH1 0x0 DUP2 MLOAD DUP1 DUP5 MSTORE PUSH2 0x2052 DUP2 PUSH1 0x20 DUP7 ADD PUSH1 0x20 DUP7 ADD PUSH2 0x2526 JUMP JUMPDEST PUSH1 0x1F ADD PUSH1 0x1F NOT AND SWAP3 SWAP1 SWAP3 ADD PUSH1 0x20 ADD SWAP3 SWAP2 POP POP JUMP JUMPDEST PUSH32 0x416363657373436F6E74726F6C3A206163636F756E7420000000000000000000 DUP2 MSTORE PUSH1 0x0 DUP4 MLOAD PUSH2 0x209E DUP2 PUSH1 0x17 DUP6 ADD PUSH1 0x20 DUP9 ADD PUSH2 0x2526 JUMP JUMPDEST PUSH17 0x1034B99036B4B9B9B4B733903937B6329 PUSH1 0x7D SHL PUSH1 0x17 SWAP2 DUP5 ADD SWAP2 DUP3 ADD MSTORE DUP4 MLOAD PUSH2 0x20CF DUP2 PUSH1 0x28 DUP5 ADD PUSH1 0x20 DUP9 ADD PUSH2 0x2526 JUMP JUMPDEST ADD PUSH1 0x28 ADD SWAP5 SWAP4 POP POP POP POP JUMP JUMPDEST PUSH1 0x1 DUP1 PUSH1 0xA0 SHL SUB DUP6 AND DUP2 MSTORE DUP4 PUSH1 0x20 DUP3 ADD MSTORE PUSH1 0xA0 PUSH1 0x40 DUP3 ADD MSTORE PUSH1 0x1B PUSH1 0xA0 DUP3 ADD MSTORE PUSH32 0x757064617465456D697373696F6E526174652875696E74323536290000000000 PUSH1 0xC0 DUP3 ADD MSTORE PUSH1 0xE0 PUSH1 0x60 DUP3 ADD MSTORE PUSH1 0x0 PUSH2 0x2136 PUSH1 0xE0 DUP4 ADD DUP6 PUSH2 0x203A JUMP JUMPDEST SWAP1 POP DUP3 PUSH1 0x80 DUP4 ADD MSTORE SWAP6 SWAP5 POP POP POP POP POP JUMP JUMPDEST PUSH1 0x1 DUP1 PUSH1 0xA0 SHL SUB DUP6 AND DUP2 MSTORE DUP4 PUSH1 0x20 DUP3 ADD MSTORE PUSH1 0xA0 PUSH1 0x40 DUP3 ADD MSTORE PUSH1 0x11 PUSH1 0xA0 DUP3 ADD MSTORE PUSH17 0x7472656173757279286164647265737329 PUSH1 0x78 SHL PUSH1 0xC0 DUP3 ADD MSTORE PUSH1 0xE0 PUSH1 0x60 DUP3 ADD MSTORE PUSH1 0x0 PUSH2 0x2136 PUSH1 0xE0 DUP4 ADD DUP6 PUSH2 0x203A JUMP JUMPDEST PUSH1 0x1 DUP1 PUSH1 0xA0 SHL SUB DUP6 AND DUP2 MSTORE DUP4 PUSH1 0x20 DUP3 ADD MSTORE PUSH1 0xA0 PUSH1 0x40 DUP3 ADD MSTORE PUSH1 0x18 PUSH1 0xA0 DUP3 ADD MSTORE PUSH32 0x73657450656E64696E6741646D696E2861646472657373290000000000000000 PUSH1 0xC0 DUP3 ADD MSTORE PUSH1 0xE0 PUSH1 0x60 DUP3 ADD MSTORE PUSH1 0x0 PUSH2 0x2136 PUSH1 0xE0 DUP4 ADD DUP6 PUSH2 0x203A JUMP JUMPDEST PUSH1 0x1 DUP1 PUSH1 0xA0 SHL SUB DUP6 AND DUP2 MSTORE DUP4 PUSH1 0x20 DUP3 ADD MSTORE PUSH1 0xA0 PUSH1 0x40 DUP3 ADD MSTORE PUSH1 0x21 PUSH1 0xA0 DUP3 ADD MSTORE PUSH32 0x7365742875696E743235362C75696E743235362C616464726573732C626F6F6C PUSH1 0xC0 DUP3 ADD MSTORE PUSH1 0x29 PUSH1 0xF8 SHL PUSH1 0xE0 DUP3 ADD MSTORE PUSH1 0x0 PUSH2 0x100 DUP1 PUSH1 0x60 DUP5 ADD MSTORE PUSH2 0x2257 DUP2 DUP5 ADD DUP7 PUSH2 0x203A JUMP JUMPDEST SWAP2 POP POP DUP3 PUSH1 0x80 DUP4 ADD MSTORE SWAP6 SWAP5 POP POP POP POP POP JUMP JUMPDEST PUSH1 0x1 DUP1 PUSH1 0xA0 SHL SUB DUP6 AND DUP2 MSTORE DUP4 PUSH1 0x20 DUP3 ADD MSTORE PUSH1 0xA0 PUSH1 0x40 DUP3 ADD MSTORE PUSH1 0x1C PUSH1 0xA0 DUP3 ADD MSTORE PUSH32 0x6164642875696E743235362C616464726573732C616464726573732900000000 PUSH1 0xC0 DUP3 ADD MSTORE PUSH1 0xE0 PUSH1 0x60 DUP3 ADD MSTORE PUSH1 0x0 PUSH2 0x2136 PUSH1 0xE0 DUP4 ADD DUP6 PUSH2 0x203A JUMP JUMPDEST PUSH1 0x1 DUP1 PUSH1 0xA0 SHL SUB DUP7 AND DUP2 MSTORE DUP5 PUSH1 0x20 DUP3 ADD MSTORE PUSH1 0xA0 PUSH1 0x40 DUP3 ADD MSTORE PUSH1 0x0 PUSH2 0x22EB PUSH1 0xA0 DUP4 ADD DUP7 PUSH2 0x203A JUMP JUMPDEST DUP3 DUP2 SUB PUSH1 0x60 DUP5 ADD MSTORE PUSH2 0x22FD DUP2 DUP7 PUSH2 0x203A JUMP JUMPDEST SWAP2 POP POP DUP3 PUSH1 0x80 DUP4 ADD MSTORE SWAP7 SWAP6 POP POP POP POP POP POP JUMP JUMPDEST PUSH1 0x20 DUP1 DUP3 MSTORE DUP3 MLOAD DUP3 DUP3 ADD DUP2 SWAP1 MSTORE PUSH1 0x0 SWAP2 SWAP1 PUSH1 0x40 SWAP1 DUP2 DUP6 ADD SWAP1 DUP7 DUP5 ADD DUP6 JUMPDEST DUP3 DUP2 LT ISZERO PUSH2 0x2369 JUMPI DUP2 MLOAD DUP1 MLOAD PUSH1 0x1 PUSH1 0x1 PUSH1 0xA0 SHL SUB SWAP1 DUP2 AND DUP7 MSTORE DUP8 DUP3 ADD MLOAD DUP9 DUP8 ADD MSTORE SWAP1 DUP7 ADD MLOAD AND DUP6 DUP6 ADD MSTORE PUSH1 0x60 SWAP1 SWAP4 ADD SWAP3 SWAP1 DUP6 ADD SWAP1 PUSH1 0x1 ADD PUSH2 0x232D JUMP JUMPDEST POP SWAP2 SWAP8 SWAP7 POP POP POP POP POP POP POP JUMP JUMPDEST PUSH1 0x20 DUP1 DUP3 MSTORE DUP3 MLOAD DUP3 DUP3 ADD DUP2 SWAP1 MSTORE PUSH1 0x0 SWAP2 SWAP1 PUSH1 0x40 SWAP1 DUP2 DUP6 ADD SWAP1 DUP7 DUP5 ADD DUP6 JUMPDEST DUP3 DUP2 LT ISZERO PUSH2 0x2369 JUMPI DUP2 MLOAD DUP1 MLOAD DUP6 MSTORE DUP7 DUP2 ADD MLOAD DUP8 DUP7 ADD MSTORE DUP6 DUP2 ADD MLOAD PUSH1 0x1 PUSH1 0x1 PUSH1 0xA0 SHL SUB AND DUP7 DUP7 ADD MSTORE PUSH1 0x60 SWAP1 DUP2 ADD MLOAD ISZERO ISZERO SWAP1 DUP6 ADD MSTORE PUSH1 0x80 SWAP1 SWAP4 ADD SWAP3 SWAP1 DUP6 ADD SWAP1 PUSH1 0x1 ADD PUSH2 0x2393 JUMP JUMPDEST PUSH1 0x20 DUP1 DUP3 MSTORE DUP3 MLOAD DUP3 DUP3 ADD DUP2 SWAP1 MSTORE PUSH1 0x0 SWAP2 SWAP1 DUP5 DUP3 ADD SWAP1 PUSH1 0x40 DUP6 ADD SWAP1 DUP5 JUMPDEST DUP2 DUP2 LT ISZERO PUSH2 0x2410 JUMPI DUP4 MLOAD DUP4 MSTORE SWAP3 DUP5 ADD SWAP3 SWAP2 DUP5 ADD SWAP2 PUSH1 0x1 ADD PUSH2 0x23F4 JUMP JUMPDEST POP SWAP1 SWAP7 SWAP6 POP POP POP POP POP POP JUMP JUMPDEST PUSH1 0x20 DUP2 MSTORE PUSH1 0x0 PUSH2 0x1333 PUSH1 0x20 DUP4 ADD DUP5 PUSH2 0x203A JUMP JUMPDEST PUSH1 0x20 DUP1 DUP3 MSTORE PUSH1 0x21 SWAP1 DUP3 ADD MSTORE PUSH32 0x45544120616C726561647920757365642C2063686F7365206F74686572206574 PUSH1 0x40 DUP3 ADD MSTORE PUSH1 0x61 PUSH1 0xF8 SHL PUSH1 0x60 DUP3 ADD MSTORE PUSH1 0x80 ADD SWAP1 JUMP JUMPDEST SWAP4 DUP5 MSTORE PUSH1 0x20 DUP5 ADD SWAP3 SWAP1 SWAP3 MSTORE PUSH1 0x1 PUSH1 0x1 PUSH1 0xA0 SHL SUB AND PUSH1 0x40 DUP4 ADD MSTORE ISZERO ISZERO PUSH1 0x60 DUP3 ADD MSTORE PUSH1 0x80 ADD SWAP1 JUMP JUMPDEST PUSH1 0x40 MLOAD PUSH1 0x1F DUP3 ADD PUSH1 0x1F NOT AND DUP2 ADD PUSH8 0xFFFFFFFFFFFFFFFF DUP2 GT DUP3 DUP3 LT OR ISZERO PUSH2 0x24BF JUMPI PUSH2 0x24BF PUSH2 0x25C6 JUMP JUMPDEST PUSH1 0x40 MSTORE SWAP2 SWAP1 POP JUMP JUMPDEST PUSH1 0x0 PUSH8 0xFFFFFFFFFFFFFFFF DUP3 GT ISZERO PUSH2 0x24E1 JUMPI PUSH2 0x24E1 PUSH2 0x25C6 JUMP JUMPDEST POP PUSH1 0x1F ADD PUSH1 0x1F NOT AND PUSH1 0x20 ADD SWAP1 JUMP JUMPDEST PUSH1 0x0 DUP3 NOT DUP3 GT ISZERO PUSH2 0x2502 JUMPI PUSH2 0x2502 PUSH2 0x2584 JUMP JUMPDEST POP ADD SWAP1 JUMP JUMPDEST PUSH1 0x0 DUP2 PUSH1 0x0 NOT DIV DUP4 GT DUP3 ISZERO ISZERO AND ISZERO PUSH2 0x2521 JUMPI PUSH2 0x2521 PUSH2 0x2584 JUMP JUMPDEST POP MUL SWAP1 JUMP JUMPDEST PUSH1 0x0 JUMPDEST DUP4 DUP2 LT ISZERO PUSH2 0x2541 JUMPI DUP2 DUP2 ADD MLOAD DUP4 DUP3 ADD MSTORE PUSH1 0x20 ADD PUSH2 0x2529 JUMP JUMPDEST DUP4 DUP2 GT ISZERO PUSH2 0xD24 JUMPI POP POP PUSH1 0x0 SWAP2 ADD MSTORE JUMP JUMPDEST PUSH1 0x0 DUP2 PUSH2 0x2561 JUMPI PUSH2 0x2561 PUSH2 0x2584 JUMP JUMPDEST POP PUSH1 0x0 NOT ADD SWAP1 JUMP JUMPDEST PUSH1 0x0 PUSH1 0x0 NOT DUP3 EQ ISZERO PUSH2 0x257D JUMPI PUSH2 0x257D PUSH2 0x2584 JUMP JUMPDEST POP PUSH1 0x1 ADD SWAP1 JUMP JUMPDEST PUSH4 0x4E487B71 PUSH1 0xE0 SHL PUSH1 0x0 MSTORE PUSH1 0x11 PUSH1 0x4 MSTORE PUSH1 0x24 PUSH1 0x0 REVERT JUMPDEST PUSH4 0x4E487B71 PUSH1 0xE0 SHL PUSH1 0x0 MSTORE PUSH1 0x21 PUSH1 0x4 MSTORE PUSH1 0x24 PUSH1 0x0 REVERT JUMPDEST PUSH4 0x4E487B71 PUSH1 0xE0 SHL PUSH1 0x0 MSTORE PUSH1 0x32 PUSH1 0x4 MSTORE PUSH1 0x24 PUSH1 0x0 REVERT JUMPDEST PUSH4 0x4E487B71 PUSH1 0xE0 SHL PUSH1 0x0 MSTORE PUSH1 0x41 PUSH1 0x4 MSTORE PUSH1 0x24 PUSH1 0x0 REVERT JUMPDEST DUP1 SLOAD PUSH1 0x1 PUSH1 0x1 PUSH1 0xA0 SHL SUB NOT AND PUSH1 0x1 PUSH1 0x1 PUSH1 0xA0 SHL SUB SWAP3 SWAP1 SWAP3 AND SWAP2 SWAP1 SWAP2 OR SWAP1 SSTORE JUMP JUMPDEST DUP2 CALLDATALOAD PUSH2 0x2607 DUP2 PUSH2 0x2694 JUMP JUMPDEST PUSH2 0x2611 DUP2 DUP4 PUSH2 0x25DC JUMP JUMPDEST POP PUSH1 0x20 DUP3 ADD CALLDATALOAD PUSH1 0x1 DUP3 ADD SSTORE PUSH1 0x40 DUP3 ADD CALLDATALOAD PUSH2 0x262A DUP2 PUSH2 0x2694 JUMP JUMPDEST PUSH2 0x6D5 DUP2 PUSH1 0x2 DUP5 ADD PUSH2 0x25DC JUMP JUMPDEST DUP2 CALLDATALOAD DUP2 SSTORE PUSH1 0x20 DUP3 ADD CALLDATALOAD PUSH1 0x1 DUP3 ADD SSTORE PUSH1 0x2 DUP2 ADD PUSH1 0x40 DUP4 ADD CALLDATALOAD PUSH2 0x2657 DUP2 PUSH2 0x2694 JUMP JUMPDEST PUSH2 0x2661 DUP2 DUP4 PUSH2 0x25DC JUMP JUMPDEST POP PUSH1 0x60 DUP4 ADD CALLDATALOAD DUP1 ISZERO ISZERO DUP1 DUP3 EQ PUSH2 0x2676 JUMPI PUSH1 0x0 DUP1 REVERT JUMPDEST DUP3 SLOAD PUSH1 0xFF PUSH1 0xA0 SHL NOT AND PUSH1 0xA0 SWAP2 SWAP1 SWAP2 SHL PUSH1 0xFF PUSH1 0xA0 SHL AND OR SWAP1 SWAP2 SSTORE POP POP POP JUMP JUMPDEST PUSH1 0x1 PUSH1 0x1 PUSH1 0xA0 SHL SUB DUP2 AND DUP2 EQ PUSH2 0x26A9 JUMPI PUSH1 0x0 DUP1 REVERT JUMPDEST POP JUMP INVALID SWAP13 LOG2 MLOAD 0x49 0xB3 0xFB 0xEF PUSH7 0xD98C546A0B372E SWAP7 0xB9 PUSH3 0x6F14ED PUSH7 0x9DD7BA430D3A8F 0x22 0x5F 0xD2 LOG2 PUSH5 0x6970667358 0x22 SLT KECCAK256 SWAP14 0x27 0xAF PUSH9 0x736F088768E67AC772 POP LOG2 ADDMOD TIMESTAMP 0xE4 CALLVALUE 0x2E POP INVALID LOG2 PUSH22 0x5D5628FF722315CC64736F6C634300080700339CA251 0x49 0xB3 0xFB 0xEF PUSH7 0xD98C546A0B372E SWAP7 0xB9 PUSH3 0x6F14ED PUSH7 0x9DD7BA430D3A8F 0x22 0x5F 0xD2 "
				},
				"gasEstimates": {
					"creation": {
						"codeDepositCost": "1997200",
						"executionCost": "infinite",
						"totalCost": "infinite"
					},
					"external": {
						"COMMIT_ROLE()": "infinite",
						"DEFAULT_ADMIN_ROLE()": "306",
						"STAGE_ROLE()": "infinite",
						"acceptTimelockAdmin()": "infinite",
						"cancelTransaction(address,uint256,string,bytes,uint256)": "infinite",
						"commitEmissionChange(uint256,uint256,uint8)": "infinite",
						"commitFarmChanges(uint256,uint8)": "infinite",
						"commitSetPendingTimelockAdmin(address,uint256,uint8)": "infinite",
						"commitSetTreasuryAddress(address,uint256,uint8)": "infinite",
						"executeTransaction(address,uint256,string,bytes,uint256)": "infinite",
						"farmAdditions(uint256,uint256)": "9122",
						"farmAdditionsForEta(uint256)": "infinite",
						"farmModifications(uint256,uint256)": "9111",
						"farmModificationsForEta(uint256)": "infinite",
						"getRoleAdmin(bytes32)": "2515",
						"grantRole(bytes32,address)": "infinite",
						"hasRole(bytes32,address)": "2717",
						"masterChef()": "infinite",
						"queueTransaction(address,uint256,string,bytes,uint256)": "infinite",
						"queuedFarmChangeEtas()": "infinite",
						"renounceRole(bytes32,address)": "29040",
						"revokeRole(bytes32,address)": "infinite",
						"stageFarmAdditions((address,uint256,address)[],uint256)": "infinite",
						"stageFarmModifications((uint256,uint256,address,bool)[],uint256)": "infinite",
						"supportsInterface(bytes4)": "450",
						"timelock()": "infinite",
						"usedFarmChangeEtas(uint256)": "2528"
					},
					"internal": {
						"executeFarmModifications(uint256)": "infinite",
						"queueFarmModifications(uint256)": "infinite"
					}
				},
				"methodIdentifiers": {
					"COMMIT_ROLE()": "441e7d58",
					"DEFAULT_ADMIN_ROLE()": "a217fddf",
					"STAGE_ROLE()": "25e06309",
					"acceptTimelockAdmin()": "eeaba75d",
					"cancelTransaction(address,uint256,string,bytes,uint256)": "591fcdfe",
					"commitEmissionChange(uint256,uint256,uint8)": "9c2826ef",
					"commitFarmChanges(uint256,uint8)": "ab698957",
					"commitSetPendingTimelockAdmin(address,uint256,uint8)": "8a1d28f1",
					"commitSetTreasuryAddress(address,uint256,uint8)": "6f3e6f34",
					"executeTransaction(address,uint256,string,bytes,uint256)": "0825f38f",
					"farmAdditions(uint256,uint256)": "fde9b226",
					"farmAdditionsForEta(uint256)": "41065e0e",
					"farmModifications(uint256,uint256)": "5ffc71b8",
					"farmModificationsForEta(uint256)": "33c9ef9f",
					"getRoleAdmin(bytes32)": "248a9ca3",
					"grantRole(bytes32,address)": "2f2ff15d",
					"hasRole(bytes32,address)": "91d14854",
					"masterChef()": "575a86b2",
					"queueTransaction(address,uint256,string,bytes,uint256)": "3a66f901",
					"queuedFarmChangeEtas()": "74d510f7",
					"renounceRole(bytes32,address)": "36568abe",
					"revokeRole(bytes32,address)": "d547741f",
					"stageFarmAdditions((address,uint256,address)[],uint256)": "3b8505a3",
					"stageFarmModifications((uint256,uint256,address,bool)[],uint256)": "c8cc3cd8",
					"supportsInterface(bytes4)": "01ffc9a7",
					"timelock()": "d33219b4",
					"usedFarmChangeEtas(uint256)": "cae5984b"
				}
			},
			"storageLayout": {
				"storage": [
					{
						"astId": 238,
						"contract": "contracts/MasterChefOperator.sol:MasterChefOperator",
						"label": "_roles",
						"offset": 0,
						"slot": "0",
						"type": "t_mapping(t_bytes32,t_struct(RoleData)233_storage)"
					},
					{
						"astId": 1865,
						"contract": "contracts/MasterChefOperator.sol:MasterChefOperator",
						"label": "farmAdditions",
						"offset": 0,
						"slot": "1",
						"type": "t_mapping(t_uint256,t_array(t_struct(FarmAddition)1856_storage)dyn_storage)"
					},
					{
						"astId": 1871,
						"contract": "contracts/MasterChefOperator.sol:MasterChefOperator",
						"label": "farmModifications",
						"offset": 0,
						"slot": "2",
						"type": "t_mapping(t_uint256,t_array(t_struct(FarmModification)1847_storage)dyn_storage)"
					},
					{
						"astId": 1875,
						"contract": "contracts/MasterChefOperator.sol:MasterChefOperator",
						"label": "usedFarmChangeEtas",
						"offset": 0,
						"slot": "3",
						"type": "t_mapping(t_uint256,t_bool)"
					},
					{
						"astId": 1878,
						"contract": "contracts/MasterChefOperator.sol:MasterChefOperator",
						"label": "_queuedFarmChangeEtas",
						"offset": 0,
						"slot": "4",
						"type": "t_struct(UintSet)987_storage"
					}
				],
				"types": {
					"t_address": {
						"encoding": "inplace",
						"label": "address",
						"numberOfBytes": "20"
					},
					"t_array(t_bytes32)dyn_storage": {
						"base": "t_bytes32",
						"encoding": "dynamic_array",
						"label": "bytes32[]",
						"numberOfBytes": "32"
					},
					"t_array(t_struct(FarmAddition)1856_storage)dyn_storage": {
						"base": "t_struct(FarmAddition)1856_storage",
						"encoding": "dynamic_array",
						"label": "struct MasterChefOperator.FarmAddition[]",
						"numberOfBytes": "32"
					},
					"t_array(t_struct(FarmModification)1847_storage)dyn_storage": {
						"base": "t_struct(FarmModification)1847_storage",
						"encoding": "dynamic_array",
						"label": "struct MasterChefOperator.FarmModification[]",
						"numberOfBytes": "32"
					},
					"t_bool": {
						"encoding": "inplace",
						"label": "bool",
						"numberOfBytes": "1"
					},
					"t_bytes32": {
						"encoding": "inplace",
						"label": "bytes32",
						"numberOfBytes": "32"
					},
					"t_contract(IERC20)177": {
						"encoding": "inplace",
						"label": "contract IERC20",
						"numberOfBytes": "20"
					},
					"t_contract(IRewarder)1620": {
						"encoding": "inplace",
						"label": "contract IRewarder",
						"numberOfBytes": "20"
					},
					"t_mapping(t_address,t_bool)": {
						"encoding": "mapping",
						"key": "t_address",
						"label": "mapping(address => bool)",
						"numberOfBytes": "32",
						"value": "t_bool"
					},
					"t_mapping(t_bytes32,t_struct(RoleData)233_storage)": {
						"encoding": "mapping",
						"key": "t_bytes32",
						"label": "mapping(bytes32 => struct AccessControl.RoleData)",
						"numberOfBytes": "32",
						"value": "t_struct(RoleData)233_storage"
					},
					"t_mapping(t_bytes32,t_uint256)": {
						"encoding": "mapping",
						"key": "t_bytes32",
						"label": "mapping(bytes32 => uint256)",
						"numberOfBytes": "32",
						"value": "t_uint256"
					},
					"t_mapping(t_uint256,t_array(t_struct(FarmAddition)1856_storage)dyn_storage)": {
						"encoding": "mapping",
						"key": "t_uint256",
						"label": "mapping(uint256 => struct MasterChefOperator.FarmAddition[])",
						"numberOfBytes": "32",
						"value": "t_array(t_struct(FarmAddition)1856_storage)dyn_storage"
					},
					"t_mapping(t_uint256,t_array(t_struct(FarmModification)1847_storage)dyn_storage)": {
						"encoding": "mapping",
						"key": "t_uint256",
						"label": "mapping(uint256 => struct MasterChefOperator.FarmModification[])",
						"numberOfBytes": "32",
						"value": "t_array(t_struct(FarmModification)1847_storage)dyn_storage"
					},
					"t_mapping(t_uint256,t_bool)": {
						"encoding": "mapping",
						"key": "t_uint256",
						"label": "mapping(uint256 => bool)",
						"numberOfBytes": "32",
						"value": "t_bool"
					},
					"t_struct(FarmAddition)1856_storage": {
						"encoding": "inplace",
						"label": "struct MasterChefOperator.FarmAddition",
						"members": [
							{
								"astId": 1850,
								"contract": "contracts/MasterChefOperator.sol:MasterChefOperator",
								"label": "lpToken",
								"offset": 0,
								"slot": "0",
								"type": "t_contract(IERC20)177"
							},
							{
								"astId": 1852,
								"contract": "contracts/MasterChefOperator.sol:MasterChefOperator",
								"label": "allocationPoints",
								"offset": 0,
								"slot": "1",
								"type": "t_uint256"
							},
							{
								"astId": 1855,
								"contract": "contracts/MasterChefOperator.sol:MasterChefOperator",
								"label": "rewarder",
								"offset": 0,
								"slot": "2",
								"type": "t_contract(IRewarder)1620"
							}
						],
						"numberOfBytes": "96"
					},
					"t_struct(FarmModification)1847_storage": {
						"encoding": "inplace",
						"label": "struct MasterChefOperator.FarmModification",
						"members": [
							{
								"astId": 1839,
								"contract": "contracts/MasterChefOperator.sol:MasterChefOperator",
								"label": "pid",
								"offset": 0,
								"slot": "0",
								"type": "t_uint256"
							},
							{
								"astId": 1841,
								"contract": "contracts/MasterChefOperator.sol:MasterChefOperator",
								"label": "allocationPoints",
								"offset": 0,
								"slot": "1",
								"type": "t_uint256"
							},
							{
								"astId": 1844,
								"contract": "contracts/MasterChefOperator.sol:MasterChefOperator",
								"label": "rewarder",
								"offset": 0,
								"slot": "2",
								"type": "t_contract(IRewarder)1620"
							},
							{
								"astId": 1846,
								"contract": "contracts/MasterChefOperator.sol:MasterChefOperator",
								"label": "overwriteRewarder",
								"offset": 20,
								"slot": "2",
								"type": "t_bool"
							}
						],
						"numberOfBytes": "96"
					},
					"t_struct(RoleData)233_storage": {
						"encoding": "inplace",
						"label": "struct AccessControl.RoleData",
						"members": [
							{
								"astId": 230,
								"contract": "contracts/MasterChefOperator.sol:MasterChefOperator",
								"label": "members",
								"offset": 0,
								"slot": "0",
								"type": "t_mapping(t_address,t_bool)"
							},
							{
								"astId": 232,
								"contract": "contracts/MasterChefOperator.sol:MasterChefOperator",
								"label": "adminRole",
								"offset": 0,
								"slot": "1",
								"type": "t_bytes32"
							}
						],
						"numberOfBytes": "64"
					},
					"t_struct(Set)529_storage": {
						"encoding": "inplace",
						"label": "struct EnumerableSet.Set",
						"members": [
							{
								"astId": 524,
								"contract": "contracts/MasterChefOperator.sol:MasterChefOperator",
								"label": "_values",
								"offset": 0,
								"slot": "0",
								"type": "t_array(t_bytes32)dyn_storage"
							},
							{
								"astId": 528,
								"contract": "contracts/MasterChefOperator.sol:MasterChefOperator",
								"label": "_indexes",
								"offset": 0,
								"slot": "1",
								"type": "t_mapping(t_bytes32,t_uint256)"
							}
						],
						"numberOfBytes": "64"
					},
					"t_struct(UintSet)987_storage": {
						"encoding": "inplace",
						"label": "struct EnumerableSet.UintSet",
						"members": [
							{
								"astId": 986,
								"contract": "contracts/MasterChefOperator.sol:MasterChefOperator",
								"label": "_inner",
								"offset": 0,
								"slot": "0",
								"type": "t_struct(Set)529_storage"
							}
						],
						"numberOfBytes": "64"
					},
					"t_uint256": {
						"encoding": "inplace",
						"label": "uint256",
						"numberOfBytes": "32"
					}
				}
			},
			"userdoc": {
				"kind": "user",
				"methods": {},
				"version": 1
			}
		}
	}
}