{
	"contracts/veWVLT.sol": {
		"WVLTBar": {
			"abi": [
				{
					"inputs": [
						{
							"internalType": "contract IERC20",
							"name": "_vestingToken",
							"type": "address"
						}
					],
					"stateMutability": "nonpayable",
					"type": "constructor"
				},
				{
					"anonymous": false,
					"inputs": [
						{
							"indexed": true,
							"internalType": "address",
							"name": "owner",
							"type": "address"
						},
						{
							"indexed": true,
							"internalType": "address",
							"name": "spender",
							"type": "address"
						},
						{
							"indexed": false,
							"internalType": "uint256",
							"name": "value",
							"type": "uint256"
						}
					],
					"name": "Approval",
					"type": "event"
				},
				{
					"anonymous": false,
					"inputs": [
						{
							"indexed": true,
							"internalType": "address",
							"name": "user",
							"type": "address"
						},
						{
							"indexed": false,
							"internalType": "uint256",
							"name": "vestingInAmount",
							"type": "uint256"
						},
						{
							"indexed": false,
							"internalType": "uint256",
							"name": "mintedAmount",
							"type": "uint256"
						}
					],
					"name": "Enter",
					"type": "event"
				},
				{
					"anonymous": false,
					"inputs": [
						{
							"indexed": true,
							"internalType": "address",
							"name": "user",
							"type": "address"
						},
						{
							"indexed": false,
							"internalType": "uint256",
							"name": "vestingOutAmount",
							"type": "uint256"
						},
						{
							"indexed": false,
							"internalType": "uint256",
							"name": "burnedAmount",
							"type": "uint256"
						}
					],
					"name": "Leave",
					"type": "event"
				},
				{
					"anonymous": false,
					"inputs": [
						{
							"indexed": false,
							"internalType": "uint256",
							"name": "amount",
							"type": "uint256"
						}
					],
					"name": "ShareRevenue",
					"type": "event"
				},
				{
					"anonymous": false,
					"inputs": [
						{
							"indexed": true,
							"internalType": "address",
							"name": "from",
							"type": "address"
						},
						{
							"indexed": true,
							"internalType": "address",
							"name": "to",
							"type": "address"
						},
						{
							"indexed": false,
							"internalType": "uint256",
							"name": "value",
							"type": "uint256"
						}
					],
					"name": "Transfer",
					"type": "event"
				},
				{
					"inputs": [
						{
							"internalType": "address",
							"name": "owner",
							"type": "address"
						},
						{
							"internalType": "address",
							"name": "spender",
							"type": "address"
						}
					],
					"name": "allowance",
					"outputs": [
						{
							"internalType": "uint256",
							"name": "",
							"type": "uint256"
						}
					],
					"stateMutability": "view",
					"type": "function"
				},
				{
					"inputs": [
						{
							"internalType": "address",
							"name": "spender",
							"type": "address"
						},
						{
							"internalType": "uint256",
							"name": "amount",
							"type": "uint256"
						}
					],
					"name": "approve",
					"outputs": [
						{
							"internalType": "bool",
							"name": "",
							"type": "bool"
						}
					],
					"stateMutability": "nonpayable",
					"type": "function"
				},
				{
					"inputs": [
						{
							"internalType": "address",
							"name": "account",
							"type": "address"
						}
					],
					"name": "balanceOf",
					"outputs": [
						{
							"internalType": "uint256",
							"name": "",
							"type": "uint256"
						}
					],
					"stateMutability": "view",
					"type": "function"
				},
				{
					"inputs": [],
					"name": "decimals",
					"outputs": [
						{
							"internalType": "uint8",
							"name": "",
							"type": "uint8"
						}
					],
					"stateMutability": "view",
					"type": "function"
				},
				{
					"inputs": [
						{
							"internalType": "address",
							"name": "spender",
							"type": "address"
						},
						{
							"internalType": "uint256",
							"name": "subtractedValue",
							"type": "uint256"
						}
					],
					"name": "decreaseAllowance",
					"outputs": [
						{
							"internalType": "bool",
							"name": "",
							"type": "bool"
						}
					],
					"stateMutability": "nonpayable",
					"type": "function"
				},
				{
					"inputs": [
						{
							"internalType": "uint256",
							"name": "_amount",
							"type": "uint256"
						}
					],
					"name": "enter",
					"outputs": [],
					"stateMutability": "nonpayable",
					"type": "function"
				},
				{
					"inputs": [
						{
							"internalType": "address",
							"name": "spender",
							"type": "address"
						},
						{
							"internalType": "uint256",
							"name": "addedValue",
							"type": "uint256"
						}
					],
					"name": "increaseAllowance",
					"outputs": [
						{
							"internalType": "bool",
							"name": "",
							"type": "bool"
						}
					],
					"stateMutability": "nonpayable",
					"type": "function"
				},
				{
					"inputs": [
						{
							"internalType": "uint256",
							"name": "_shareOfveWVLT",
							"type": "uint256"
						}
					],
					"name": "leave",
					"outputs": [],
					"stateMutability": "nonpayable",
					"type": "function"
				},
				{
					"inputs": [],
					"name": "name",
					"outputs": [
						{
							"internalType": "string",
							"name": "",
							"type": "string"
						}
					],
					"stateMutability": "view",
					"type": "function"
				},
				{
					"inputs": [
						{
							"internalType": "uint256",
							"name": "_amount",
							"type": "uint256"
						}
					],
					"name": "shareRevenue",
					"outputs": [],
					"stateMutability": "nonpayable",
					"type": "function"
				},
				{
					"inputs": [],
					"name": "symbol",
					"outputs": [
						{
							"internalType": "string",
							"name": "",
							"type": "string"
						}
					],
					"stateMutability": "view",
					"type": "function"
				},
				{
					"inputs": [],
					"name": "totalSupply",
					"outputs": [
						{
							"internalType": "uint256",
							"name": "",
							"type": "uint256"
						}
					],
					"stateMutability": "view",
					"type": "function"
				},
				{
					"inputs": [
						{
							"internalType": "address",
							"name": "recipient",
							"type": "address"
						},
						{
							"internalType": "uint256",
							"name": "amount",
							"type": "uint256"
						}
					],
					"name": "transfer",
					"outputs": [
						{
							"internalType": "bool",
							"name": "",
							"type": "bool"
						}
					],
					"stateMutability": "nonpayable",
					"type": "function"
				},
				{
					"inputs": [
						{
							"internalType": "address",
							"name": "sender",
							"type": "address"
						},
						{
							"internalType": "address",
							"name": "recipient",
							"type": "address"
						},
						{
							"internalType": "uint256",
							"name": "amount",
							"type": "uint256"
						}
					],
					"name": "transferFrom",
					"outputs": [
						{
							"internalType": "bool",
							"name": "",
							"type": "bool"
						}
					],
					"stateMutability": "nonpayable",
					"type": "function"
				},
				{
					"inputs": [],
					"name": "vestingToken",
					"outputs": [
						{
							"internalType": "contract IERC20",
							"name": "",
							"type": "address"
						}
					],
					"stateMutability": "view",
					"type": "function"
				}
			],
			"devdoc": {
				"kind": "dev",
				"methods": {
					"allowance(address,address)": {
						"details": "See {IERC20-allowance}."
					},
					"approve(address,uint256)": {
						"details": "See {IERC20-approve}. Requirements: - `spender` cannot be the zero address."
					},
					"balanceOf(address)": {
						"details": "See {IERC20-balanceOf}."
					},
					"decimals()": {
						"details": "Returns the number of decimals used to get its user representation. For example, if `decimals` equals `2`, a balance of `505` tokens should be displayed to a user as `5.05` (`505 / 10 ** 2`). Tokens usually opt for a value of 18, imitating the relationship between Ether and Wei. This is the value {ERC20} uses, unless this function is overridden; NOTE: This information is only used for _display_ purposes: it in no way affects any of the arithmetic of the contract, including {IERC20-balanceOf} and {IERC20-transfer}."
					},
					"decreaseAllowance(address,uint256)": {
						"details": "Atomically decreases the allowance granted to `spender` by the caller. This is an alternative to {approve} that can be used as a mitigation for problems described in {IERC20-approve}. Emits an {Approval} event indicating the updated allowance. Requirements: - `spender` cannot be the zero address. - `spender` must have allowance for the caller of at least `subtractedValue`."
					},
					"increaseAllowance(address,uint256)": {
						"details": "Atomically increases the allowance granted to `spender` by the caller. This is an alternative to {approve} that can be used as a mitigation for problems described in {IERC20-approve}. Emits an {Approval} event indicating the updated allowance. Requirements: - `spender` cannot be the zero address."
					},
					"name()": {
						"details": "Returns the name of the token."
					},
					"symbol()": {
						"details": "Returns the symbol of the token, usually a shorter version of the name."
					},
					"totalSupply()": {
						"details": "See {IERC20-totalSupply}."
					},
					"transfer(address,uint256)": {
						"details": "See {IERC20-transfer}. Requirements: - `recipient` cannot be the zero address. - the caller must have a balance of at least `amount`."
					},
					"transferFrom(address,address,uint256)": {
						"details": "See {IERC20-transferFrom}. Emits an {Approval} event indicating the updated allowance. This is not required by the EIP. See the note at the beginning of {ERC20}. Requirements: - `sender` and `recipient` cannot be the zero address. - `sender` must have a balance of at least `amount`. - the caller must have allowance for ``sender``'s tokens of at least `amount`."
					}
				},
				"version": 1
			},
			"evm": {
				"assembly": "    /* \"contracts/veWVLT.sol\":28008:30284  contract WVLTBar is ERC20(\"VotingEscrowedWaveLength\", \"veWVLT\") {\r... */\n  mstore(0x40, 0x80)\n    /* \"contracts/veWVLT.sol\":28435:28516  constructor(IERC20 _vestingToken) {\r... */\n  callvalue\n  dup1\n  iszero\n  tag_1\n  jumpi\n  0x00\n  dup1\n  revert\ntag_1:\n  pop\n  mload(0x40)\n  sub(codesize, bytecodeSize)\n  dup1\n  bytecodeSize\n  dup4\n  codecopy\n  dup2\n  add\n  0x40\n  dup2\n  swap1\n  mstore\n  tag_2\n  swap2\n  tag_3\n  jump\t// in\ntag_2:\n    /* \"contracts/veWVLT.sol\":5947:6063  constructor(string memory name_, string memory symbol_) {\r... */\n  0x40\n  dup1\n  mload\n  dup1\n  dup3\n  add\n  dup3\n  mstore\n  0x18\n  dup2\n  mstore\n  0x566f74696e67457363726f776564576176654c656e6774680000000000000000\n  0x20\n  dup1\n  dup4\n  add\n  swap2\n  dup3\n  mstore\n  dup4\n  mload\n  dup1\n  dup6\n  add\n  swap1\n  swap5\n  mstore\n  0x06\n  dup5\n  mstore\n  shl(0xd2, 0x1d9955d59315)\n  swap1\n  dup5\n  add\n  mstore\n    /* \"contracts/veWVLT.sol\":6014:6027  _name = name_ */\n  dup2\n  mload\n    /* \"contracts/veWVLT.sol\":5947:6063  constructor(string memory name_, string memory symbol_) {\r... */\n  swap2\n  swap3\n  swap2\n    /* \"contracts/veWVLT.sol\":6014:6027  _name = name_ */\n  tag_7\n  swap2\n    /* \"contracts/veWVLT.sol\":6014:6019  _name */\n  0x03\n  swap2\n    /* \"contracts/veWVLT.sol\":6014:6027  _name = name_ */\n  tag_8\n  jump\t// in\ntag_7:\n  pop\n    /* \"contracts/veWVLT.sol\":6038:6055  _symbol = symbol_ */\n  dup1\n  mload\n  tag_9\n  swap1\n    /* \"contracts/veWVLT.sol\":6038:6045  _symbol */\n  0x04\n  swap1\n    /* \"contracts/veWVLT.sol\":6038:6055  _symbol = symbol_ */\n  0x20\n  dup5\n  add\n  swap1\n  tag_8\n  jump\t// in\ntag_9:\n  pop\n  pop\n    /* \"contracts/veWVLT.sol\":28480:28492  vestingToken */\n  0x05\n    /* \"contracts/veWVLT.sol\":28480:28508  vestingToken = _vestingToken */\n  dup1\n  sload\n  not(sub(shl(0xa0, 0x01), 0x01))\n  and\n  sub(shl(0xa0, 0x01), 0x01)\n  swap4\n  swap1\n  swap4\n  and\n  swap3\n  swap1\n  swap3\n  or\n  swap1\n  swap2\n  sstore\n  pop\n    /* \"contracts/veWVLT.sol\":28008:30284  contract WVLTBar is ERC20(\"VotingEscrowedWaveLength\", \"veWVLT\") {\r... */\n  jump(tag_23)\ntag_8:\n  dup3\n  dup1\n  sload\n  tag_12\n  swap1\n  tag_13\n  jump\t// in\ntag_12:\n  swap1\n  0x00\n  mstore\n  keccak256(0x00, 0x20)\n  swap1\n  0x1f\n  add\n  0x20\n  swap1\n  div\n  dup2\n  add\n  swap3\n  dup3\n  tag_15\n  jumpi\n  0x00\n  dup6\n  sstore\n  jump(tag_18)\ntag_15:\n  dup3\n  0x1f\n  lt\n  tag_16\n  jumpi\n  dup1\n  mload\n  not(0xff)\n  and\n  dup4\n  dup1\n  add\n  or\n  dup6\n  sstore\n  jump(tag_18)\ntag_16:\n  dup3\n  dup1\n  add\n  0x01\n  add\n  dup6\n  sstore\n  dup3\n  iszero\n  tag_18\n  jumpi\n  swap2\n  dup3\n  add\ntag_17:\n  dup3\n  dup2\n  gt\n  iszero\n  tag_18\n  jumpi\n  dup3\n  mload\n  dup3\n  sstore\n  swap2\n  0x20\n  add\n  swap2\n  swap1\n  0x01\n  add\n  swap1\n  jump(tag_17)\ntag_18:\n  pop\n  tag_19\n  swap3\n  swap2\n  pop\n  tag_20\n  jump\t// in\ntag_19:\n  pop\n  swap1\n  jump\t// out\ntag_20:\ntag_21:\n  dup1\n  dup3\n  gt\n  iszero\n  tag_19\n  jumpi\n  0x00\n  dup2\n  sstore\n  0x01\n  add\n  jump(tag_21)\n    /* \"#utility.yul\":14:317   */\ntag_3:\n    /* \"#utility.yul\":97:103   */\n  0x00\n    /* \"#utility.yul\":150:152   */\n  0x20\n    /* \"#utility.yul\":138:147   */\n  dup3\n    /* \"#utility.yul\":129:136   */\n  dup5\n    /* \"#utility.yul\":125:148   */\n  sub\n    /* \"#utility.yul\":121:153   */\n  slt\n    /* \"#utility.yul\":118:170   */\n  iszero\n  tag_25\n  jumpi\n    /* \"#utility.yul\":166:167   */\n  0x00\n    /* \"#utility.yul\":163:164   */\n  dup1\n    /* \"#utility.yul\":156:168   */\n  revert\n    /* \"#utility.yul\":118:170   */\ntag_25:\n    /* \"#utility.yul\":192:208   */\n  dup2\n  mload\n  sub(shl(0xa0, 0x01), 0x01)\n    /* \"#utility.yul\":237:268   */\n  dup2\n  and\n    /* \"#utility.yul\":227:269   */\n  dup2\n  eq\n    /* \"#utility.yul\":217:287   */\n  tag_26\n  jumpi\n    /* \"#utility.yul\":283:284   */\n  0x00\n    /* \"#utility.yul\":280:281   */\n  dup1\n    /* \"#utility.yul\":273:285   */\n  revert\n    /* \"#utility.yul\":217:287   */\ntag_26:\n    /* \"#utility.yul\":306:311   */\n  swap4\n    /* \"#utility.yul\":14:317   */\n  swap3\n  pop\n  pop\n  pop\n  jump\t// out\n    /* \"#utility.yul\":322:702   */\ntag_13:\n    /* \"#utility.yul\":401:402   */\n  0x01\n    /* \"#utility.yul\":397:409   */\n  dup2\n  dup2\n  shr\n  swap1\n    /* \"#utility.yul\":444:456   */\n  dup3\n  and\n  dup1\n    /* \"#utility.yul\":465:526   */\n  tag_28\n  jumpi\n    /* \"#utility.yul\":519:523   */\n  0x7f\n    /* \"#utility.yul\":511:517   */\n  dup3\n    /* \"#utility.yul\":507:524   */\n  and\n    /* \"#utility.yul\":497:524   */\n  swap2\n  pop\n    /* \"#utility.yul\":465:526   */\ntag_28:\n    /* \"#utility.yul\":572:574   */\n  0x20\n    /* \"#utility.yul\":564:570   */\n  dup3\n    /* \"#utility.yul\":561:575   */\n  lt\n    /* \"#utility.yul\":541:559   */\n  dup2\n    /* \"#utility.yul\":538:576   */\n  eq\n    /* \"#utility.yul\":535:696   */\n  iszero\n  tag_29\n  jumpi\n    /* \"#utility.yul\":618:628   */\n  0x4e487b71\n    /* \"#utility.yul\":613:616   */\n  0xe0\n    /* \"#utility.yul\":609:629   */\n  shl\n    /* \"#utility.yul\":606:607   */\n  0x00\n    /* \"#utility.yul\":599:630   */\n  mstore\n    /* \"#utility.yul\":653:657   */\n  0x22\n    /* \"#utility.yul\":650:651   */\n  0x04\n    /* \"#utility.yul\":643:658   */\n  mstore\n    /* \"#utility.yul\":681:685   */\n  0x24\n    /* \"#utility.yul\":678:679   */\n  0x00\n    /* \"#utility.yul\":671:686   */\n  revert\n    /* \"#utility.yul\":535:696   */\ntag_29:\n  pop\n    /* \"#utility.yul\":322:702   */\n  swap2\n  swap1\n  pop\n  jump\t// out\ntag_23:\n    /* \"contracts/veWVLT.sol\":28008:30284  contract WVLTBar is ERC20(\"VotingEscrowedWaveLength\", \"veWVLT\") {\r... */\n  dataSize(sub_0)\n  dup1\n  dataOffset(sub_0)\n  0x00\n  codecopy\n  0x00\n  return\nstop\n\nsub_0: assembly {\n        /* \"contracts/veWVLT.sol\":28008:30284  contract WVLTBar is ERC20(\"VotingEscrowedWaveLength\", \"veWVLT\") {\r... */\n      mstore(0x40, 0x80)\n      callvalue\n      dup1\n      iszero\n      tag_1\n      jumpi\n      0x00\n      dup1\n      revert\n    tag_1:\n      pop\n      jumpi(tag_2, lt(calldatasize, 0x04))\n      shr(0xe0, calldataload(0x00))\n      dup1\n      0x39509351\n      gt\n      tag_18\n      jumpi\n      dup1\n      0xa457c2d7\n      gt\n      tag_19\n      jumpi\n      dup1\n      0xa457c2d7\n      eq\n      tag_14\n      jumpi\n      dup1\n      0xa59f3e0c\n      eq\n      tag_15\n      jumpi\n      dup1\n      0xa9059cbb\n      eq\n      tag_16\n      jumpi\n      dup1\n      0xdd62ed3e\n      eq\n      tag_17\n      jumpi\n      0x00\n      dup1\n      revert\n    tag_19:\n      dup1\n      0x39509351\n      eq\n      tag_10\n      jumpi\n      dup1\n      0x67dfd4c9\n      eq\n      tag_11\n      jumpi\n      dup1\n      0x70a08231\n      eq\n      tag_12\n      jumpi\n      dup1\n      0x95d89b41\n      eq\n      tag_13\n      jumpi\n      0x00\n      dup1\n      revert\n    tag_18:\n      dup1\n      0x18160ddd\n      gt\n      tag_20\n      jumpi\n      dup1\n      0x18160ddd\n      eq\n      tag_6\n      jumpi\n      dup1\n      0x19d152fa\n      eq\n      tag_7\n      jumpi\n      dup1\n      0x23b872dd\n      eq\n      tag_8\n      jumpi\n      dup1\n      0x313ce567\n      eq\n      tag_9\n      jumpi\n      0x00\n      dup1\n      revert\n    tag_20:\n      dup1\n      0x06fdde03\n      eq\n      tag_3\n      jumpi\n      dup1\n      0x095ea7b3\n      eq\n      tag_4\n      jumpi\n      dup1\n      0x139e41e4\n      eq\n      tag_5\n      jumpi\n    tag_2:\n      0x00\n      dup1\n      revert\n        /* \"contracts/veWVLT.sol\":6133:6233  function name() public view virtual override returns (string memory) {\r... */\n    tag_3:\n      tag_21\n      tag_22\n      jump\t// in\n    tag_21:\n      mload(0x40)\n      tag_23\n      swap2\n      swap1\n      tag_24\n      jump\t// in\n    tag_23:\n      mload(0x40)\n      dup1\n      swap2\n      sub\n      swap1\n      return\n        /* \"contracts/veWVLT.sol\":8300:8469  function approve(address spender, uint256 amount) public virtual override returns (bool) {\r... */\n    tag_4:\n      tag_25\n      tag_26\n      calldatasize\n      0x04\n      tag_27\n      jump\t// in\n    tag_26:\n      tag_28\n      jump\t// in\n    tag_25:\n      mload(0x40)\n        /* \"#utility.yul\":2928:2942   */\n      swap1\n      iszero\n        /* \"#utility.yul\":2921:2943   */\n      iszero\n        /* \"#utility.yul\":2903:2944   */\n      dup2\n      mstore\n        /* \"#utility.yul\":2891:2893   */\n      0x20\n        /* \"#utility.yul\":2876:2894   */\n      add\n        /* \"contracts/veWVLT.sol\":8300:8469  function approve(address spender, uint256 amount) public virtual override returns (bool) {\r... */\n      tag_23\n        /* \"#utility.yul\":2763:2950   */\n      jump\n        /* \"contracts/veWVLT.sol\":30116:30281  function shareRevenue(uint256 _amount) external {\r... */\n    tag_5:\n      tag_31\n      tag_32\n      calldatasize\n      0x04\n      tag_33\n      jump\t// in\n    tag_32:\n      tag_34\n      jump\t// in\n    tag_31:\n      stop\n        /* \"contracts/veWVLT.sol\":7253:7361  function totalSupply() public view virtual override returns (uint256) {\r... */\n    tag_6:\n        /* \"contracts/veWVLT.sol\":7341:7353  _totalSupply */\n      sload(0x02)\n        /* \"contracts/veWVLT.sol\":7253:7361  function totalSupply() public view virtual override returns (uint256) {\r... */\n    tag_35:\n      mload(0x40)\n        /* \"#utility.yul\":7929:7954   */\n      swap1\n      dup2\n      mstore\n        /* \"#utility.yul\":7917:7919   */\n      0x20\n        /* \"#utility.yul\":7902:7920   */\n      add\n        /* \"contracts/veWVLT.sol\":7253:7361  function totalSupply() public view virtual override returns (uint256) {\r... */\n      tag_23\n        /* \"#utility.yul\":7783:7960   */\n      jump\n        /* \"contracts/veWVLT.sol\":28114:28140  IERC20 public vestingToken */\n    tag_7:\n      sload(0x05)\n      tag_39\n      swap1\n      sub(shl(0xa0, 0x01), 0x01)\n      and\n      dup2\n      jump\n    tag_39:\n      mload(0x40)\n      sub(shl(0xa0, 0x01), 0x01)\n        /* \"#utility.yul\":2060:2092   */\n      swap1\n      swap2\n      and\n        /* \"#utility.yul\":2042:2093   */\n      dup2\n      mstore\n        /* \"#utility.yul\":2030:2032   */\n      0x20\n        /* \"#utility.yul\":2015:2033   */\n      add\n        /* \"contracts/veWVLT.sol\":28114:28140  IERC20 public vestingToken */\n      tag_23\n        /* \"#utility.yul\":1896:2099   */\n      jump\n        /* \"contracts/veWVLT.sol\":8951:9443  function transferFrom(\r... */\n    tag_8:\n      tag_25\n      tag_44\n      calldatasize\n      0x04\n      tag_45\n      jump\t// in\n    tag_44:\n      tag_46\n      jump\t// in\n        /* \"contracts/veWVLT.sol\":7095:7188  function decimals() public view virtual override returns (uint8) {\r... */\n    tag_9:\n      mload(0x40)\n        /* \"contracts/veWVLT.sol\":7178:7180  18 */\n      0x12\n        /* \"#utility.yul\":8360:8396   */\n      dup2\n      mstore\n        /* \"#utility.yul\":8348:8350   */\n      0x20\n        /* \"#utility.yul\":8333:8351   */\n      add\n        /* \"contracts/veWVLT.sol\":7095:7188  function decimals() public view virtual override returns (uint8) {\r... */\n      tag_23\n        /* \"#utility.yul\":8218:8402   */\n      jump\n        /* \"contracts/veWVLT.sol\":9852:10067  function increaseAllowance(address spender, uint256 addedValue) public virtual returns (bool) {\r... */\n    tag_10:\n      tag_25\n      tag_53\n      calldatasize\n      0x04\n      tag_27\n      jump\t// in\n    tag_53:\n      tag_54\n      jump\t// in\n        /* \"contracts/veWVLT.sol\":29493:30108  function leave(uint256 _shareOfveWVLT) external {\r... */\n    tag_11:\n      tag_31\n      tag_57\n      calldatasize\n      0x04\n      tag_33\n      jump\t// in\n    tag_57:\n      tag_58\n      jump\t// in\n        /* \"contracts/veWVLT.sol\":7424:7551  function balanceOf(address account) public view virtual override returns (uint256) {\r... */\n    tag_12:\n      tag_35\n      tag_60\n      calldatasize\n      0x04\n      tag_61\n      jump\t// in\n    tag_60:\n      sub(shl(0xa0, 0x01), 0x01)\n        /* \"contracts/veWVLT.sol\":7525:7543  _balances[account] */\n      and\n        /* \"contracts/veWVLT.sol\":7498:7505  uint256 */\n      0x00\n        /* \"contracts/veWVLT.sol\":7525:7543  _balances[account] */\n      swap1\n      dup2\n      mstore\n      0x20\n      dup2\n      swap1\n      mstore\n      0x40\n      swap1\n      keccak256\n      sload\n      swap1\n        /* \"contracts/veWVLT.sol\":7424:7551  function balanceOf(address account) public view virtual override returns (uint256) {\r... */\n      jump\n        /* \"contracts/veWVLT.sol\":6352:6456  function symbol() public view virtual override returns (string memory) {\r... */\n    tag_13:\n      tag_21\n      tag_65\n      jump\t// in\n        /* \"contracts/veWVLT.sol\":10570:10983  function decreaseAllowance(address spender, uint256 subtractedValue) public virtual returns (bool) {\r... */\n    tag_14:\n      tag_25\n      tag_68\n      calldatasize\n      0x04\n      tag_27\n      jump\t// in\n    tag_68:\n      tag_69\n      jump\t// in\n        /* \"contracts/veWVLT.sol\":28524:29485  function enter(uint256 _amount) external {\r... */\n    tag_15:\n      tag_31\n      tag_72\n      calldatasize\n      0x04\n      tag_33\n      jump\t// in\n    tag_72:\n      tag_73\n      jump\t// in\n        /* \"contracts/veWVLT.sol\":7764:7939  function transfer(address recipient, uint256 amount) public virtual override returns (bool) {\r... */\n    tag_16:\n      tag_25\n      tag_75\n      calldatasize\n      0x04\n      tag_27\n      jump\t// in\n    tag_75:\n      tag_76\n      jump\t// in\n        /* \"contracts/veWVLT.sol\":8002:8153  function allowance(address owner, address spender) public view virtual override returns (uint256) {\r... */\n    tag_17:\n      tag_35\n      tag_79\n      calldatasize\n      0x04\n      tag_80\n      jump\t// in\n    tag_79:\n      sub(shl(0xa0, 0x01), 0x01)\n        /* \"contracts/veWVLT.sol\":8118:8136  _allowances[owner] */\n      swap2\n      dup3\n      and\n        /* \"contracts/veWVLT.sol\":8091:8098  uint256 */\n      0x00\n        /* \"contracts/veWVLT.sol\":8118:8136  _allowances[owner] */\n      swap1\n      dup2\n      mstore\n        /* \"contracts/veWVLT.sol\":8118:8129  _allowances */\n      0x01\n        /* \"contracts/veWVLT.sol\":8118:8136  _allowances[owner] */\n      0x20\n      swap1\n      dup2\n      mstore\n      0x40\n      dup1\n      dup4\n      keccak256\n        /* \"contracts/veWVLT.sol\":8118:8145  _allowances[owner][spender] */\n      swap4\n      swap1\n      swap5\n      and\n      dup3\n      mstore\n      swap2\n      swap1\n      swap2\n      mstore\n      keccak256\n      sload\n      swap1\n        /* \"contracts/veWVLT.sol\":8002:8153  function allowance(address owner, address spender) public view virtual override returns (uint256) {\r... */\n      jump\n        /* \"contracts/veWVLT.sol\":6133:6233  function name() public view virtual override returns (string memory) {\r... */\n    tag_22:\n        /* \"contracts/veWVLT.sol\":6187:6200  string memory */\n      0x60\n        /* \"contracts/veWVLT.sol\":6220:6225  _name */\n      0x03\n        /* \"contracts/veWVLT.sol\":6213:6225  return _name */\n      dup1\n      sload\n      tag_84\n      swap1\n      tag_85\n      jump\t// in\n    tag_84:\n      dup1\n      0x1f\n      add\n      0x20\n      dup1\n      swap2\n      div\n      mul\n      0x20\n      add\n      mload(0x40)\n      swap1\n      dup2\n      add\n      0x40\n      mstore\n      dup1\n      swap3\n      swap2\n      swap1\n      dup2\n      dup2\n      mstore\n      0x20\n      add\n      dup3\n      dup1\n      sload\n      tag_86\n      swap1\n      tag_85\n      jump\t// in\n    tag_86:\n      dup1\n      iszero\n      tag_87\n      jumpi\n      dup1\n      0x1f\n      lt\n      tag_88\n      jumpi\n      0x0100\n      dup1\n      dup4\n      sload\n      div\n      mul\n      dup4\n      mstore\n      swap2\n      0x20\n      add\n      swap2\n      jump(tag_87)\n    tag_88:\n      dup3\n      add\n      swap2\n      swap1\n      0x00\n      mstore\n      keccak256(0x00, 0x20)\n      swap1\n    tag_89:\n      dup2\n      sload\n      dup2\n      mstore\n      swap1\n      0x01\n      add\n      swap1\n      0x20\n      add\n      dup1\n      dup4\n      gt\n      tag_89\n      jumpi\n      dup3\n      swap1\n      sub\n      0x1f\n      and\n      dup3\n      add\n      swap2\n    tag_87:\n      pop\n      pop\n      pop\n      pop\n      pop\n      swap1\n      pop\n        /* \"contracts/veWVLT.sol\":6133:6233  function name() public view virtual override returns (string memory) {\r... */\n      swap1\n      jump\t// out\n        /* \"contracts/veWVLT.sol\":8300:8469  function approve(address spender, uint256 amount) public virtual override returns (bool) {\r... */\n    tag_28:\n        /* \"contracts/veWVLT.sol\":8383:8387  bool */\n      0x00\n        /* \"contracts/veWVLT.sol\":8400:8439  _approve(_msgSender(), spender, amount) */\n      tag_91\n        /* \"contracts/veWVLT.sol\":3994:4004  msg.sender */\n      caller\n        /* \"contracts/veWVLT.sol\":8423:8430  spender */\n      dup5\n        /* \"contracts/veWVLT.sol\":8432:8438  amount */\n      dup5\n        /* \"contracts/veWVLT.sol\":8400:8408  _approve */\n      tag_94\n        /* \"contracts/veWVLT.sol\":8400:8439  _approve(_msgSender(), spender, amount) */\n      jump\t// in\n    tag_91:\n      pop\n        /* \"contracts/veWVLT.sol\":8457:8461  true */\n      0x01\n        /* \"contracts/veWVLT.sol\":8300:8469  function approve(address spender, uint256 amount) public virtual override returns (bool) {\r... */\n      swap3\n      swap2\n      pop\n      pop\n      jump\t// out\n        /* \"contracts/veWVLT.sol\":30116:30281  function shareRevenue(uint256 _amount) external {\r... */\n    tag_34:\n        /* \"contracts/veWVLT.sol\":30175:30187  vestingToken */\n      sload(0x05)\n        /* \"contracts/veWVLT.sol\":30175:30236  vestingToken.transferFrom(msg.sender, address(this), _amount) */\n      mload(0x40)\n      shl(0xe0, 0x23b872dd)\n      dup2\n      mstore\n        /* \"contracts/veWVLT.sol\":30201:30211  msg.sender */\n      caller\n        /* \"contracts/veWVLT.sol\":30175:30236  vestingToken.transferFrom(msg.sender, address(this), _amount) */\n      0x04\n      dup3\n      add\n        /* \"#utility.yul\":2344:2378   */\n      mstore\n        /* \"contracts/veWVLT.sol\":30221:30225  this */\n      address\n        /* \"#utility.yul\":2394:2412   */\n      0x24\n      dup3\n      add\n        /* \"#utility.yul\":2387:2430   */\n      mstore\n        /* \"#utility.yul\":2446:2464   */\n      0x44\n      dup2\n      add\n        /* \"#utility.yul\":2439:2473   */\n      dup4\n      swap1\n      mstore\n      sub(shl(0xa0, 0x01), 0x01)\n        /* \"contracts/veWVLT.sol\":30175:30187  vestingToken */\n      swap1\n      swap2\n      and\n      swap1\n        /* \"contracts/veWVLT.sol\":30175:30200  vestingToken.transferFrom */\n      0x23b872dd\n      swap1\n        /* \"#utility.yul\":2279:2297   */\n      0x64\n      add\n        /* \"contracts/veWVLT.sol\":30175:30236  vestingToken.transferFrom(msg.sender, address(this), _amount) */\n      0x20\n      mload(0x40)\n      dup1\n      dup4\n      sub\n      dup2\n      0x00\n      dup8\n      dup1\n      extcodesize\n      iszero\n      dup1\n      iszero\n      tag_98\n      jumpi\n      0x00\n      dup1\n      revert\n    tag_98:\n      pop\n      gas\n      call\n      iszero\n      dup1\n      iszero\n      tag_100\n      jumpi\n      returndatasize\n      0x00\n      dup1\n      returndatacopy\n      revert(0x00, returndatasize)\n    tag_100:\n      pop\n      pop\n      pop\n      pop\n      mload(0x40)\n      returndatasize\n      not(0x1f)\n      0x1f\n      dup3\n      add\n      and\n      dup3\n      add\n      dup1\n      0x40\n      mstore\n      pop\n      dup2\n      add\n      swap1\n      tag_101\n      swap2\n      swap1\n      tag_102\n      jump\t// in\n    tag_101:\n      pop\n        /* \"contracts/veWVLT.sol\":30252:30273  ShareRevenue(_amount) */\n      mload(0x40)\n        /* \"#utility.yul\":7929:7954   */\n      dup2\n      dup2\n      mstore\n        /* \"contracts/veWVLT.sol\":30252:30273  ShareRevenue(_amount) */\n      0x8345132cbbbde83001e783cdfdd5190dedc863ae82cae7abe302b22322a60274\n      swap1\n        /* \"#utility.yul\":7917:7919   */\n      0x20\n        /* \"#utility.yul\":7902:7920   */\n      add\n        /* \"contracts/veWVLT.sol\":30252:30273  ShareRevenue(_amount) */\n      mload(0x40)\n      dup1\n      swap2\n      sub\n      swap1\n      log1\n        /* \"contracts/veWVLT.sol\":30116:30281  function shareRevenue(uint256 _amount) external {\r... */\n      pop\n      jump\t// out\n        /* \"contracts/veWVLT.sol\":8951:9443  function transferFrom(\r... */\n    tag_46:\n        /* \"contracts/veWVLT.sol\":9091:9095  bool */\n      0x00\n        /* \"contracts/veWVLT.sol\":9108:9144  _transfer(sender, recipient, amount) */\n      tag_106\n        /* \"contracts/veWVLT.sol\":9118:9124  sender */\n      dup5\n        /* \"contracts/veWVLT.sol\":9126:9135  recipient */\n      dup5\n        /* \"contracts/veWVLT.sol\":9137:9143  amount */\n      dup5\n        /* \"contracts/veWVLT.sol\":9108:9117  _transfer */\n      tag_107\n        /* \"contracts/veWVLT.sol\":9108:9144  _transfer(sender, recipient, amount) */\n      jump\t// in\n    tag_106:\n      sub(shl(0xa0, 0x01), 0x01)\n        /* \"contracts/veWVLT.sol\":9184:9203  _allowances[sender] */\n      dup5\n      and\n        /* \"contracts/veWVLT.sol\":9157:9181  uint256 currentAllowance */\n      0x00\n        /* \"contracts/veWVLT.sol\":9184:9203  _allowances[sender] */\n      swap1\n      dup2\n      mstore\n        /* \"contracts/veWVLT.sol\":9184:9195  _allowances */\n      0x01\n        /* \"contracts/veWVLT.sol\":9184:9203  _allowances[sender] */\n      0x20\n      swap1\n      dup2\n      mstore\n      0x40\n      dup1\n      dup4\n      keccak256\n        /* \"contracts/veWVLT.sol\":3994:4004  msg.sender */\n      caller\n        /* \"contracts/veWVLT.sol\":9184:9217  _allowances[sender][_msgSender()] */\n      dup5\n      mstore\n      swap1\n      swap2\n      mstore\n      swap1\n      keccak256\n      sload\n        /* \"contracts/veWVLT.sol\":9236:9262  currentAllowance >= amount */\n      dup3\n      dup2\n      lt\n      iszero\n        /* \"contracts/veWVLT.sol\":9228:9307  require(currentAllowance >= amount, \"ERC20: transfer amount exceeds allowance\") */\n      tag_109\n      jumpi\n      mload(0x40)\n      shl(0xe5, 0x461bcd)\n      dup2\n      mstore\n        /* \"#utility.yul\":5597:5599   */\n      0x20\n        /* \"contracts/veWVLT.sol\":9228:9307  require(currentAllowance >= amount, \"ERC20: transfer amount exceeds allowance\") */\n      0x04\n      dup3\n      add\n        /* \"#utility.yul\":5579:5600   */\n      mstore\n        /* \"#utility.yul\":5636:5638   */\n      0x28\n        /* \"#utility.yul\":5616:5634   */\n      0x24\n      dup3\n      add\n        /* \"#utility.yul\":5609:5639   */\n      mstore\n        /* \"#utility.yul\":5675:5709   */\n      0x45524332303a207472616e7366657220616d6f756e7420657863656564732061\n        /* \"#utility.yul\":5655:5673   */\n      0x44\n      dup3\n      add\n        /* \"#utility.yul\":5648:5710   */\n      mstore\n      shl(0xc0, 0x6c6c6f77616e6365)\n        /* \"#utility.yul\":5726:5744   */\n      0x64\n      dup3\n      add\n        /* \"#utility.yul\":5719:5757   */\n      mstore\n        /* \"#utility.yul\":5774:5793   */\n      0x84\n      add\n        /* \"contracts/veWVLT.sol\":9228:9307  require(currentAllowance >= amount, \"ERC20: transfer amount exceeds allowance\") */\n    tag_110:\n      mload(0x40)\n      dup1\n      swap2\n      sub\n      swap1\n      revert\n    tag_109:\n        /* \"contracts/veWVLT.sol\":9343:9400  _approve(sender, _msgSender(), currentAllowance - amount) */\n      tag_112\n        /* \"contracts/veWVLT.sol\":9352:9358  sender */\n      dup6\n        /* \"contracts/veWVLT.sol\":3994:4004  msg.sender */\n      caller\n        /* \"contracts/veWVLT.sol\":9393:9399  amount */\n      dup6\n        /* \"contracts/veWVLT.sol\":9374:9390  currentAllowance */\n      dup5\n        /* \"contracts/veWVLT.sol\":9374:9399  currentAllowance - amount */\n      sub\n        /* \"contracts/veWVLT.sol\":9343:9351  _approve */\n      tag_94\n        /* \"contracts/veWVLT.sol\":9343:9400  _approve(sender, _msgSender(), currentAllowance - amount) */\n      jump\t// in\n    tag_112:\n      pop\n        /* \"contracts/veWVLT.sol\":9431:9435  true */\n      0x01\n      swap5\n        /* \"contracts/veWVLT.sol\":8951:9443  function transferFrom(\r... */\n      swap4\n      pop\n      pop\n      pop\n      pop\n      jump\t// out\n        /* \"contracts/veWVLT.sol\":9852:10067  function increaseAllowance(address spender, uint256 addedValue) public virtual returns (bool) {\r... */\n    tag_54:\n        /* \"contracts/veWVLT.sol\":3994:4004  msg.sender */\n      caller\n        /* \"contracts/veWVLT.sol\":9940:9944  bool */\n      0x00\n        /* \"contracts/veWVLT.sol\":9989:10014  _allowances[_msgSender()] */\n      dup2\n      dup2\n      mstore\n        /* \"contracts/veWVLT.sol\":9989:10000  _allowances */\n      0x01\n        /* \"contracts/veWVLT.sol\":9989:10014  _allowances[_msgSender()] */\n      0x20\n      swap1\n      dup2\n      mstore\n      0x40\n      dup1\n      dup4\n      keccak256\n      sub(shl(0xa0, 0x01), 0x01)\n        /* \"contracts/veWVLT.sol\":9989:10023  _allowances[_msgSender()][spender] */\n      dup8\n      and\n      dup5\n      mstore\n      swap1\n      swap2\n      mstore\n      dup2\n      keccak256\n      sload\n        /* \"contracts/veWVLT.sol\":9940:9944  bool */\n      swap1\n      swap2\n        /* \"contracts/veWVLT.sol\":9957:10037  _approve(_msgSender(), spender, _allowances[_msgSender()][spender] + addedValue) */\n      tag_91\n      swap2\n        /* \"contracts/veWVLT.sol\":9980:9987  spender */\n      dup6\n      swap1\n        /* \"contracts/veWVLT.sol\":9989:10036  _allowances[_msgSender()][spender] + addedValue */\n      tag_119\n      swap1\n        /* \"contracts/veWVLT.sol\":10026:10036  addedValue */\n      dup7\n      swap1\n        /* \"contracts/veWVLT.sol\":9989:10036  _allowances[_msgSender()][spender] + addedValue */\n      tag_120\n      jump\t// in\n    tag_119:\n        /* \"contracts/veWVLT.sol\":9957:9965  _approve */\n      tag_94\n        /* \"contracts/veWVLT.sol\":9957:10037  _approve(_msgSender(), spender, _allowances[_msgSender()][spender] + addedValue) */\n      jump\t// in\n        /* \"contracts/veWVLT.sol\":29493:30108  function leave(uint256 _shareOfveWVLT) external {\r... */\n    tag_58:\n        /* \"contracts/veWVLT.sol\":29556:29574  _shareOfveWVLT > 0 */\n      dup1\n      iszero\n        /* \"contracts/veWVLT.sol\":29552:30101  if (_shareOfveWVLT > 0) {\r... */\n      tag_122\n      jumpi\n        /* \"contracts/veWVLT.sol\":29624:29636  vestingToken */\n      sload(0x05)\n        /* \"contracts/veWVLT.sol\":29624:29693  vestingToken.balanceOf(\r... */\n      mload(0x40)\n      shl(0xe0, 0x70a08231)\n      dup2\n      mstore\n        /* \"contracts/veWVLT.sol\":29673:29677  this */\n      address\n        /* \"contracts/veWVLT.sol\":29624:29693  vestingToken.balanceOf(\r... */\n      0x04\n      dup3\n      add\n        /* \"#utility.yul\":2042:2093   */\n      mstore\n        /* \"contracts/veWVLT.sol\":29591:29621  uint256 totalVestedTokenSupply */\n      0x00\n      swap2\n      sub(shl(0xa0, 0x01), 0x01)\n        /* \"contracts/veWVLT.sol\":29624:29636  vestingToken */\n      and\n      swap1\n        /* \"contracts/veWVLT.sol\":29624:29646  vestingToken.balanceOf */\n      0x70a08231\n      swap1\n        /* \"#utility.yul\":2015:2033   */\n      0x24\n      add\n        /* \"contracts/veWVLT.sol\":29624:29693  vestingToken.balanceOf(\r... */\n      0x20\n      mload(0x40)\n      dup1\n      dup4\n      sub\n      dup2\n      dup7\n      dup1\n      extcodesize\n      iszero\n      dup1\n      iszero\n      tag_125\n      jumpi\n      0x00\n      dup1\n      revert\n    tag_125:\n      pop\n      gas\n      staticcall\n      iszero\n      dup1\n      iszero\n      tag_127\n      jumpi\n      returndatasize\n      0x00\n      dup1\n      returndatacopy\n      revert(0x00, returndatasize)\n    tag_127:\n      pop\n      pop\n      pop\n      pop\n      mload(0x40)\n      returndatasize\n      not(0x1f)\n      0x1f\n      dup3\n      add\n      and\n      dup3\n      add\n      dup1\n      0x40\n      mstore\n      pop\n      dup2\n      add\n      swap1\n      tag_128\n      swap2\n      swap1\n      tag_129\n      jump\t// in\n    tag_128:\n        /* \"contracts/veWVLT.sol\":29591:29693  uint256 totalVestedTokenSupply = vestingToken.balanceOf(\r... */\n      swap1\n      pop\n        /* \"contracts/veWVLT.sol\":29708:29727  uint256 totalveWVLT */\n      0x00\n        /* \"contracts/veWVLT.sol\":29730:29743  totalSupply() */\n      tag_130\n        /* \"contracts/veWVLT.sol\":7341:7353  _totalSupply */\n      sload(0x02)\n      swap1\n        /* \"contracts/veWVLT.sol\":7253:7361  function totalSupply() public view virtual override returns (uint256) {\r... */\n      jump\n        /* \"contracts/veWVLT.sol\":29730:29743  totalSupply() */\n    tag_130:\n        /* \"contracts/veWVLT.sol\":29708:29743  uint256 totalveWVLT = totalSupply() */\n      swap1\n      pop\n        /* \"contracts/veWVLT.sol\":29833:29847  uint256 amount */\n      0x00\n        /* \"contracts/veWVLT.sol\":29708:29743  uint256 totalveWVLT = totalSupply() */\n      dup2\n        /* \"contracts/veWVLT.sol\":29851:29890  _shareOfveWVLT * totalVestedTokenSupply */\n      tag_131\n        /* \"contracts/veWVLT.sol\":29868:29890  totalVestedTokenSupply */\n      dup5\n        /* \"contracts/veWVLT.sol\":29851:29865  _shareOfveWVLT */\n      dup7\n        /* \"contracts/veWVLT.sol\":29851:29890  _shareOfveWVLT * totalVestedTokenSupply */\n      tag_132\n      jump\t// in\n    tag_131:\n        /* \"contracts/veWVLT.sol\":29850:29922  (_shareOfveWVLT * totalVestedTokenSupply) /\r... */\n      tag_133\n      swap2\n      swap1\n      tag_134\n      jump\t// in\n    tag_133:\n        /* \"contracts/veWVLT.sol\":29833:29922  uint256 amount = (_shareOfveWVLT * totalVestedTokenSupply) /\r... */\n      swap1\n      pop\n        /* \"contracts/veWVLT.sol\":29937:29970  _burn(msg.sender, _shareOfveWVLT) */\n      tag_135\n        /* \"contracts/veWVLT.sol\":29943:29953  msg.sender */\n      caller\n        /* \"contracts/veWVLT.sol\":29955:29969  _shareOfveWVLT */\n      dup6\n        /* \"contracts/veWVLT.sol\":29937:29942  _burn */\n      tag_136\n        /* \"contracts/veWVLT.sol\":29937:29970  _burn(msg.sender, _shareOfveWVLT) */\n      jump\t// in\n    tag_135:\n        /* \"contracts/veWVLT.sol\":29985:29997  vestingToken */\n      sload(0x05)\n        /* \"contracts/veWVLT.sol\":29985:30026  vestingToken.transfer(msg.sender, amount) */\n      mload(0x40)\n      shl(0xe0, 0xa9059cbb)\n      dup2\n      mstore\n        /* \"contracts/veWVLT.sol\":30007:30017  msg.sender */\n      caller\n        /* \"contracts/veWVLT.sol\":29985:30026  vestingToken.transfer(msg.sender, amount) */\n      0x04\n      dup3\n      add\n        /* \"#utility.yul\":2658:2709   */\n      mstore\n        /* \"#utility.yul\":2725:2743   */\n      0x24\n      dup2\n      add\n        /* \"#utility.yul\":2718:2752   */\n      dup4\n      swap1\n      mstore\n      sub(shl(0xa0, 0x01), 0x01)\n        /* \"contracts/veWVLT.sol\":29985:29997  vestingToken */\n      swap1\n      swap2\n      and\n      swap1\n        /* \"contracts/veWVLT.sol\":29985:30006  vestingToken.transfer */\n      0xa9059cbb\n      swap1\n        /* \"#utility.yul\":2631:2649   */\n      0x44\n      add\n        /* \"contracts/veWVLT.sol\":29985:30026  vestingToken.transfer(msg.sender, amount) */\n      0x20\n      mload(0x40)\n      dup1\n      dup4\n      sub\n      dup2\n      0x00\n      dup8\n      dup1\n      extcodesize\n      iszero\n      dup1\n      iszero\n      tag_139\n      jumpi\n      0x00\n      dup1\n      revert\n    tag_139:\n      pop\n      gas\n      call\n      iszero\n      dup1\n      iszero\n      tag_141\n      jumpi\n      returndatasize\n      0x00\n      dup1\n      returndatacopy\n      revert(0x00, returndatasize)\n    tag_141:\n      pop\n      pop\n      pop\n      pop\n      mload(0x40)\n      returndatasize\n      not(0x1f)\n      0x1f\n      dup3\n      add\n      and\n      dup3\n      add\n      dup1\n      0x40\n      mstore\n      pop\n      dup2\n      add\n      swap1\n      tag_142\n      swap2\n      swap1\n      tag_102\n      jump\t// in\n    tag_142:\n      pop\n        /* \"contracts/veWVLT.sol\":30048:30089  Leave(msg.sender, amount, _shareOfveWVLT) */\n      0x40\n      dup1\n      mload\n        /* \"#utility.yul\":8139:8164   */\n      dup3\n      dup2\n      mstore\n        /* \"#utility.yul\":8195:8197   */\n      0x20\n        /* \"#utility.yul\":8180:8198   */\n      dup2\n      add\n        /* \"#utility.yul\":8173:8207   */\n      dup7\n      swap1\n      mstore\n        /* \"contracts/veWVLT.sol\":30054:30064  msg.sender */\n      caller\n      swap2\n        /* \"contracts/veWVLT.sol\":30048:30089  Leave(msg.sender, amount, _shareOfveWVLT) */\n      0x0f0f7f8153c6d63a5696720d4cc434e56bb5ac1cf8c791ed9c180defb6e92153\n      swap2\n        /* \"#utility.yul\":8112:8130   */\n      add\n        /* \"contracts/veWVLT.sol\":30048:30089  Leave(msg.sender, amount, _shareOfveWVLT) */\n    tag_143:\n      mload(0x40)\n      dup1\n      swap2\n      sub\n      swap1\n      log2\n        /* \"contracts/veWVLT.sol\":29576:30101  {\r... */\n      pop\n      pop\n      pop\n        /* \"contracts/veWVLT.sol\":29552:30101  if (_shareOfveWVLT > 0) {\r... */\n    tag_122:\n        /* \"contracts/veWVLT.sol\":29493:30108  function leave(uint256 _shareOfveWVLT) external {\r... */\n      pop\n      jump\t// out\n        /* \"contracts/veWVLT.sol\":6352:6456  function symbol() public view virtual override returns (string memory) {\r... */\n    tag_65:\n        /* \"contracts/veWVLT.sol\":6408:6421  string memory */\n      0x60\n        /* \"contracts/veWVLT.sol\":6441:6448  _symbol */\n      0x04\n        /* \"contracts/veWVLT.sol\":6434:6448  return _symbol */\n      dup1\n      sload\n      tag_84\n      swap1\n      tag_85\n      jump\t// in\n        /* \"contracts/veWVLT.sol\":10570:10983  function decreaseAllowance(address spender, uint256 subtractedValue) public virtual returns (bool) {\r... */\n    tag_69:\n        /* \"contracts/veWVLT.sol\":3994:4004  msg.sender */\n      caller\n        /* \"contracts/veWVLT.sol\":10663:10667  bool */\n      0x00\n        /* \"contracts/veWVLT.sol\":10707:10732  _allowances[_msgSender()] */\n      swap1\n      dup2\n      mstore\n        /* \"contracts/veWVLT.sol\":10707:10718  _allowances */\n      0x01\n        /* \"contracts/veWVLT.sol\":10707:10732  _allowances[_msgSender()] */\n      0x20\n      swap1\n      dup2\n      mstore\n      0x40\n      dup1\n      dup4\n      keccak256\n      sub(shl(0xa0, 0x01), 0x01)\n        /* \"contracts/veWVLT.sol\":10707:10741  _allowances[_msgSender()][spender] */\n      dup7\n      and\n      dup5\n      mstore\n      swap1\n      swap2\n      mstore\n      dup2\n      keccak256\n      sload\n        /* \"contracts/veWVLT.sol\":10760:10795  currentAllowance >= subtractedValue */\n      dup3\n      dup2\n      lt\n      iszero\n        /* \"contracts/veWVLT.sol\":10752:10837  require(currentAllowance >= subtractedValue, \"ERC20: decreased allowance below zero\") */\n      tag_154\n      jumpi\n      mload(0x40)\n      shl(0xe5, 0x461bcd)\n      dup2\n      mstore\n        /* \"#utility.yul\":7219:7221   */\n      0x20\n        /* \"contracts/veWVLT.sol\":10752:10837  require(currentAllowance >= subtractedValue, \"ERC20: decreased allowance below zero\") */\n      0x04\n      dup3\n      add\n        /* \"#utility.yul\":7201:7222   */\n      mstore\n        /* \"#utility.yul\":7258:7260   */\n      0x25\n        /* \"#utility.yul\":7238:7256   */\n      0x24\n      dup3\n      add\n        /* \"#utility.yul\":7231:7261   */\n      mstore\n        /* \"#utility.yul\":7297:7331   */\n      0x45524332303a2064656372656173656420616c6c6f77616e63652062656c6f77\n        /* \"#utility.yul\":7277:7295   */\n      0x44\n      dup3\n      add\n        /* \"#utility.yul\":7270:7332   */\n      mstore\n      shl(0xd8, 0x207a65726f)\n        /* \"#utility.yul\":7348:7366   */\n      0x64\n      dup3\n      add\n        /* \"#utility.yul\":7341:7376   */\n      mstore\n        /* \"#utility.yul\":7393:7412   */\n      0x84\n      add\n        /* \"contracts/veWVLT.sol\":10752:10837  require(currentAllowance >= subtractedValue, \"ERC20: decreased allowance below zero\") */\n      tag_110\n        /* \"#utility.yul\":7017:7418   */\n      jump\n        /* \"contracts/veWVLT.sol\":10752:10837  require(currentAllowance >= subtractedValue, \"ERC20: decreased allowance below zero\") */\n    tag_154:\n        /* \"contracts/veWVLT.sol\":10873:10940  _approve(_msgSender(), spender, currentAllowance - subtractedValue) */\n      tag_157\n        /* \"contracts/veWVLT.sol\":3994:4004  msg.sender */\n      caller\n        /* \"contracts/veWVLT.sol\":10896:10903  spender */\n      dup6\n        /* \"contracts/veWVLT.sol\":10924:10939  subtractedValue */\n      dup6\n        /* \"contracts/veWVLT.sol\":10905:10921  currentAllowance */\n      dup5\n        /* \"contracts/veWVLT.sol\":10905:10939  currentAllowance - subtractedValue */\n      sub\n        /* \"contracts/veWVLT.sol\":10873:10881  _approve */\n      tag_94\n        /* \"contracts/veWVLT.sol\":10873:10940  _approve(_msgSender(), spender, currentAllowance - subtractedValue) */\n      jump\t// in\n    tag_157:\n      pop\n        /* \"contracts/veWVLT.sol\":10971:10975  true */\n      0x01\n      swap4\n        /* \"contracts/veWVLT.sol\":10570:10983  function decreaseAllowance(address spender, uint256 subtractedValue) public virtual returns (bool) {\r... */\n      swap3\n      pop\n      pop\n      pop\n      jump\t// out\n        /* \"contracts/veWVLT.sol\":28524:29485  function enter(uint256 _amount) external {\r... */\n    tag_73:\n        /* \"contracts/veWVLT.sol\":28580:28591  _amount > 0 */\n      dup1\n      iszero\n        /* \"contracts/veWVLT.sol\":28576:29478  if (_amount > 0) {\r... */\n      tag_122\n      jumpi\n        /* \"contracts/veWVLT.sol\":28641:28653  vestingToken */\n      sload(0x05)\n        /* \"contracts/veWVLT.sol\":28641:28710  vestingToken.balanceOf(\r... */\n      mload(0x40)\n      shl(0xe0, 0x70a08231)\n      dup2\n      mstore\n        /* \"contracts/veWVLT.sol\":28690:28694  this */\n      address\n        /* \"contracts/veWVLT.sol\":28641:28710  vestingToken.balanceOf(\r... */\n      0x04\n      dup3\n      add\n        /* \"#utility.yul\":2042:2093   */\n      mstore\n        /* \"contracts/veWVLT.sol\":28608:28638  uint256 totalLockedTokenSupply */\n      0x00\n      swap2\n      sub(shl(0xa0, 0x01), 0x01)\n        /* \"contracts/veWVLT.sol\":28641:28653  vestingToken */\n      and\n      swap1\n        /* \"contracts/veWVLT.sol\":28641:28663  vestingToken.balanceOf */\n      0x70a08231\n      swap1\n        /* \"#utility.yul\":2015:2033   */\n      0x24\n      add\n        /* \"contracts/veWVLT.sol\":28641:28710  vestingToken.balanceOf(\r... */\n      0x20\n      mload(0x40)\n      dup1\n      dup4\n      sub\n      dup2\n      dup7\n      dup1\n      extcodesize\n      iszero\n      dup1\n      iszero\n      tag_162\n      jumpi\n      0x00\n      dup1\n      revert\n    tag_162:\n      pop\n      gas\n      staticcall\n      iszero\n      dup1\n      iszero\n      tag_164\n      jumpi\n      returndatasize\n      0x00\n      dup1\n      returndatacopy\n      revert(0x00, returndatasize)\n    tag_164:\n      pop\n      pop\n      pop\n      pop\n      mload(0x40)\n      returndatasize\n      not(0x1f)\n      0x1f\n      dup3\n      add\n      and\n      dup3\n      add\n      dup1\n      0x40\n      mstore\n      pop\n      dup2\n      add\n      swap1\n      tag_165\n      swap2\n      swap1\n      tag_129\n      jump\t// in\n    tag_165:\n        /* \"contracts/veWVLT.sol\":28608:28710  uint256 totalLockedTokenSupply = vestingToken.balanceOf(\r... */\n      swap1\n      pop\n        /* \"contracts/veWVLT.sol\":28727:28746  uint256 totalveWVLT */\n      0x00\n        /* \"contracts/veWVLT.sol\":28749:28762  totalSupply() */\n      tag_166\n        /* \"contracts/veWVLT.sol\":7341:7353  _totalSupply */\n      sload(0x02)\n      swap1\n        /* \"contracts/veWVLT.sol\":7253:7361  function totalSupply() public view virtual override returns (uint256) {\r... */\n      jump\n        /* \"contracts/veWVLT.sol\":28749:28762  totalSupply() */\n    tag_166:\n        /* \"contracts/veWVLT.sol\":28779:28791  vestingToken */\n      sload(0x05)\n        /* \"contracts/veWVLT.sol\":28779:28840  vestingToken.transferFrom(msg.sender, address(this), _amount) */\n      mload(0x40)\n      shl(0xe0, 0x23b872dd)\n      dup2\n      mstore\n        /* \"contracts/veWVLT.sol\":28805:28815  msg.sender */\n      caller\n        /* \"contracts/veWVLT.sol\":28779:28840  vestingToken.transferFrom(msg.sender, address(this), _amount) */\n      0x04\n      dup3\n      add\n        /* \"#utility.yul\":2344:2378   */\n      mstore\n        /* \"contracts/veWVLT.sol\":28825:28829  this */\n      address\n        /* \"#utility.yul\":2394:2412   */\n      0x24\n      dup3\n      add\n        /* \"#utility.yul\":2387:2430   */\n      mstore\n        /* \"#utility.yul\":2446:2464   */\n      0x44\n      dup2\n      add\n        /* \"#utility.yul\":2439:2473   */\n      dup7\n      swap1\n      mstore\n        /* \"contracts/veWVLT.sol\":28727:28762  uint256 totalveWVLT = totalSupply() */\n      swap2\n      swap3\n      pop\n      sub(shl(0xa0, 0x01), 0x01)\n        /* \"contracts/veWVLT.sol\":28779:28791  vestingToken */\n      and\n      swap1\n        /* \"contracts/veWVLT.sol\":28779:28804  vestingToken.transferFrom */\n      0x23b872dd\n      swap1\n        /* \"#utility.yul\":2279:2297   */\n      0x64\n      add\n        /* \"contracts/veWVLT.sol\":28779:28840  vestingToken.transferFrom(msg.sender, address(this), _amount) */\n      0x20\n      mload(0x40)\n      dup1\n      dup4\n      sub\n      dup2\n      0x00\n      dup8\n      dup1\n      extcodesize\n      iszero\n      dup1\n      iszero\n      tag_168\n      jumpi\n      0x00\n      dup1\n      revert\n    tag_168:\n      pop\n      gas\n      call\n      iszero\n      dup1\n      iszero\n      tag_170\n      jumpi\n      returndatasize\n      0x00\n      dup1\n      returndatacopy\n      revert(0x00, returndatasize)\n    tag_170:\n      pop\n      pop\n      pop\n      pop\n      mload(0x40)\n      returndatasize\n      not(0x1f)\n      0x1f\n      dup3\n      add\n      and\n      dup3\n      add\n      dup1\n      0x40\n      mstore\n      pop\n      dup2\n      add\n      swap1\n      tag_171\n      swap2\n      swap1\n      tag_102\n      jump\t// in\n    tag_171:\n      pop\n        /* \"contracts/veWVLT.sol\":28855:28873  uint256 mintAmount */\n      0x00\n        /* \"contracts/veWVLT.sol\":28962:28978  totalveWVLT == 0 */\n      dup2\n      iszero\n      dup1\n        /* \"contracts/veWVLT.sol\":28962:29009  totalveWVLT == 0 || totalLockedTokenSupply == 0 */\n      tag_172\n      jumpi\n      pop\n        /* \"contracts/veWVLT.sol\":28982:29009  totalLockedTokenSupply == 0 */\n      dup3\n      iszero\n        /* \"contracts/veWVLT.sol\":28962:29009  totalveWVLT == 0 || totalLockedTokenSupply == 0 */\n    tag_172:\n        /* \"contracts/veWVLT.sol\":28958:29365  if (totalveWVLT == 0 || totalLockedTokenSupply == 0) {\r... */\n      iszero\n      tag_173\n      jumpi\n      pop\n        /* \"contracts/veWVLT.sol\":29043:29050  _amount */\n      dup3\n        /* \"contracts/veWVLT.sol\":28958:29365  if (totalveWVLT == 0 || totalLockedTokenSupply == 0) {\r... */\n      jump(tag_174)\n    tag_173:\n        /* \"contracts/veWVLT.sol\":29209:29230  uint256 shareOfveWVLT */\n      0x00\n        /* \"contracts/veWVLT.sol\":29280:29302  totalLockedTokenSupply */\n      dup4\n        /* \"contracts/veWVLT.sol\":29234:29255  _amount * totalveWVLT */\n      tag_175\n        /* \"contracts/veWVLT.sol\":29244:29255  totalveWVLT */\n      dup5\n        /* \"contracts/veWVLT.sol\":29234:29241  _amount */\n      dup8\n        /* \"contracts/veWVLT.sol\":29234:29255  _amount * totalveWVLT */\n      tag_132\n      jump\t// in\n    tag_175:\n        /* \"contracts/veWVLT.sol\":29233:29302  (_amount * totalveWVLT) /\r... */\n      tag_176\n      swap2\n      swap1\n      tag_134\n      jump\t// in\n    tag_176:\n        /* \"contracts/veWVLT.sol\":29209:29302  uint256 shareOfveWVLT = (_amount * totalveWVLT) /\r... */\n      swap2\n      pop\n      pop\n        /* \"contracts/veWVLT.sol\":28958:29365  if (totalveWVLT == 0 || totalLockedTokenSupply == 0) {\r... */\n    tag_174:\n        /* \"contracts/veWVLT.sol\":29379:29408  _mint(msg.sender, mintAmount) */\n      tag_177\n        /* \"contracts/veWVLT.sol\":29385:29395  msg.sender */\n      caller\n        /* \"contracts/veWVLT.sol\":29397:29407  mintAmount */\n      dup3\n        /* \"contracts/veWVLT.sol\":29379:29384  _mint */\n      tag_178\n        /* \"contracts/veWVLT.sol\":29379:29408  _mint(msg.sender, mintAmount) */\n      jump\t// in\n    tag_177:\n        /* \"contracts/veWVLT.sol\":29428:29466  Enter(msg.sender, _amount, mintAmount) */\n      0x40\n      dup1\n      mload\n        /* \"#utility.yul\":8139:8164   */\n      dup6\n      dup2\n      mstore\n        /* \"#utility.yul\":8195:8197   */\n      0x20\n        /* \"#utility.yul\":8180:8198   */\n      dup2\n      add\n        /* \"#utility.yul\":8173:8207   */\n      dup4\n      swap1\n      mstore\n        /* \"contracts/veWVLT.sol\":29434:29444  msg.sender */\n      caller\n      swap2\n        /* \"contracts/veWVLT.sol\":29428:29466  Enter(msg.sender, _amount, mintAmount) */\n      0x5087fbec8bdd9b358f62d89babb5f4dd44f8576230a9520c90e3407d6f4dd1fb\n      swap2\n        /* \"#utility.yul\":8112:8130   */\n      add\n        /* \"contracts/veWVLT.sol\":29428:29466  Enter(msg.sender, _amount, mintAmount) */\n      tag_143\n        /* \"#utility.yul\":7965:8213   */\n      jump\n        /* \"contracts/veWVLT.sol\":7764:7939  function transfer(address recipient, uint256 amount) public virtual override returns (bool) {\r... */\n    tag_76:\n        /* \"contracts/veWVLT.sol\":7850:7854  bool */\n      0x00\n        /* \"contracts/veWVLT.sol\":7867:7909  _transfer(_msgSender(), recipient, amount) */\n      tag_91\n        /* \"contracts/veWVLT.sol\":3994:4004  msg.sender */\n      caller\n        /* \"contracts/veWVLT.sol\":7891:7900  recipient */\n      dup5\n        /* \"contracts/veWVLT.sol\":7902:7908  amount */\n      dup5\n        /* \"contracts/veWVLT.sol\":7867:7876  _transfer */\n      tag_107\n        /* \"contracts/veWVLT.sol\":7867:7909  _transfer(_msgSender(), recipient, amount) */\n      jump\t// in\n        /* \"contracts/veWVLT.sol\":14254:14634  function _approve(\r... */\n    tag_94:\n      sub(shl(0xa0, 0x01), 0x01)\n        /* \"contracts/veWVLT.sol\":14390:14409  owner != address(0) */\n      dup4\n      and\n        /* \"contracts/veWVLT.sol\":14382:14450  require(owner != address(0), \"ERC20: approve from the zero address\") */\n      tag_186\n      jumpi\n      mload(0x40)\n      shl(0xe5, 0x461bcd)\n      dup2\n      mstore\n        /* \"#utility.yul\":6814:6816   */\n      0x20\n        /* \"contracts/veWVLT.sol\":14382:14450  require(owner != address(0), \"ERC20: approve from the zero address\") */\n      0x04\n      dup3\n      add\n        /* \"#utility.yul\":6796:6817   */\n      mstore\n        /* \"#utility.yul\":6853:6855   */\n      0x24\n        /* \"#utility.yul\":6833:6851   */\n      dup1\n      dup3\n      add\n        /* \"#utility.yul\":6826:6856   */\n      mstore\n        /* \"#utility.yul\":6892:6926   */\n      0x45524332303a20617070726f76652066726f6d20746865207a65726f20616464\n        /* \"#utility.yul\":6872:6890   */\n      0x44\n      dup3\n      add\n        /* \"#utility.yul\":6865:6927   */\n      mstore\n      shl(0xe0, 0x72657373)\n        /* \"#utility.yul\":6943:6961   */\n      0x64\n      dup3\n      add\n        /* \"#utility.yul\":6936:6970   */\n      mstore\n        /* \"#utility.yul\":6987:7006   */\n      0x84\n      add\n        /* \"contracts/veWVLT.sol\":14382:14450  require(owner != address(0), \"ERC20: approve from the zero address\") */\n      tag_110\n        /* \"#utility.yul\":6612:7012   */\n      jump\n        /* \"contracts/veWVLT.sol\":14382:14450  require(owner != address(0), \"ERC20: approve from the zero address\") */\n    tag_186:\n      sub(shl(0xa0, 0x01), 0x01)\n        /* \"contracts/veWVLT.sol\":14469:14490  spender != address(0) */\n      dup3\n      and\n        /* \"contracts/veWVLT.sol\":14461:14529  require(spender != address(0), \"ERC20: approve to the zero address\") */\n      tag_189\n      jumpi\n      mload(0x40)\n      shl(0xe5, 0x461bcd)\n      dup2\n      mstore\n        /* \"#utility.yul\":4787:4789   */\n      0x20\n        /* \"contracts/veWVLT.sol\":14461:14529  require(spender != address(0), \"ERC20: approve to the zero address\") */\n      0x04\n      dup3\n      add\n        /* \"#utility.yul\":4769:4790   */\n      mstore\n        /* \"#utility.yul\":4826:4828   */\n      0x22\n        /* \"#utility.yul\":4806:4824   */\n      0x24\n      dup3\n      add\n        /* \"#utility.yul\":4799:4829   */\n      mstore\n        /* \"#utility.yul\":4865:4899   */\n      0x45524332303a20617070726f766520746f20746865207a65726f206164647265\n        /* \"#utility.yul\":4845:4863   */\n      0x44\n      dup3\n      add\n        /* \"#utility.yul\":4838:4900   */\n      mstore\n      shl(0xf0, 0x7373)\n        /* \"#utility.yul\":4916:4934   */\n      0x64\n      dup3\n      add\n        /* \"#utility.yul\":4909:4941   */\n      mstore\n        /* \"#utility.yul\":4958:4977   */\n      0x84\n      add\n        /* \"contracts/veWVLT.sol\":14461:14529  require(spender != address(0), \"ERC20: approve to the zero address\") */\n      tag_110\n        /* \"#utility.yul\":4585:4983   */\n      jump\n        /* \"contracts/veWVLT.sol\":14461:14529  require(spender != address(0), \"ERC20: approve to the zero address\") */\n    tag_189:\n      sub(shl(0xa0, 0x01), 0x01)\n        /* \"contracts/veWVLT.sol\":14542:14560  _allowances[owner] */\n      dup4\n      dup2\n      and\n      0x00\n      dup2\n      dup2\n      mstore\n        /* \"contracts/veWVLT.sol\":14542:14553  _allowances */\n      0x01\n        /* \"contracts/veWVLT.sol\":14542:14560  _allowances[owner] */\n      0x20\n      swap1\n      dup2\n      mstore\n      0x40\n      dup1\n      dup4\n      keccak256\n        /* \"contracts/veWVLT.sol\":14542:14569  _allowances[owner][spender] */\n      swap5\n      dup8\n      and\n      dup1\n      dup5\n      mstore\n      swap5\n      dup3\n      mstore\n      swap2\n      dup3\n      swap1\n      keccak256\n        /* \"contracts/veWVLT.sol\":14542:14578  _allowances[owner][spender] = amount */\n      dup6\n      swap1\n      sstore\n        /* \"contracts/veWVLT.sol\":14594:14626  Approval(owner, spender, amount) */\n      swap1\n      mload\n        /* \"#utility.yul\":7929:7954   */\n      dup5\n      dup2\n      mstore\n        /* \"contracts/veWVLT.sol\":14594:14626  Approval(owner, spender, amount) */\n      0x8c5be1e5ebec7d5bd14f71427d1e84f3dd0314c0f7b2291e5b200ac8c7c3b925\n      swap2\n        /* \"#utility.yul\":7902:7920   */\n      add\n        /* \"contracts/veWVLT.sol\":14594:14626  Approval(owner, spender, amount) */\n    tag_192:\n      mload(0x40)\n      dup1\n      swap2\n      sub\n      swap1\n      log3\n        /* \"contracts/veWVLT.sol\":14254:14634  function _approve(\r... */\n      pop\n      pop\n      pop\n      jump\t// out\n        /* \"contracts/veWVLT.sol\":11473:12206  function _transfer(\r... */\n    tag_107:\n      sub(shl(0xa0, 0x01), 0x01)\n        /* \"contracts/veWVLT.sol\":11613:11633  sender != address(0) */\n      dup4\n      and\n        /* \"contracts/veWVLT.sol\":11605:11675  require(sender != address(0), \"ERC20: transfer from the zero address\") */\n      tag_194\n      jumpi\n      mload(0x40)\n      shl(0xe5, 0x461bcd)\n      dup2\n      mstore\n        /* \"#utility.yul\":6408:6410   */\n      0x20\n        /* \"contracts/veWVLT.sol\":11605:11675  require(sender != address(0), \"ERC20: transfer from the zero address\") */\n      0x04\n      dup3\n      add\n        /* \"#utility.yul\":6390:6411   */\n      mstore\n        /* \"#utility.yul\":6447:6449   */\n      0x25\n        /* \"#utility.yul\":6427:6445   */\n      0x24\n      dup3\n      add\n        /* \"#utility.yul\":6420:6450   */\n      mstore\n        /* \"#utility.yul\":6486:6520   */\n      0x45524332303a207472616e736665722066726f6d20746865207a65726f206164\n        /* \"#utility.yul\":6466:6484   */\n      0x44\n      dup3\n      add\n        /* \"#utility.yul\":6459:6521   */\n      mstore\n      shl(0xd8, 0x6472657373)\n        /* \"#utility.yul\":6537:6555   */\n      0x64\n      dup3\n      add\n        /* \"#utility.yul\":6530:6565   */\n      mstore\n        /* \"#utility.yul\":6582:6601   */\n      0x84\n      add\n        /* \"contracts/veWVLT.sol\":11605:11675  require(sender != address(0), \"ERC20: transfer from the zero address\") */\n      tag_110\n        /* \"#utility.yul\":6206:6607   */\n      jump\n        /* \"contracts/veWVLT.sol\":11605:11675  require(sender != address(0), \"ERC20: transfer from the zero address\") */\n    tag_194:\n      sub(shl(0xa0, 0x01), 0x01)\n        /* \"contracts/veWVLT.sol\":11694:11717  recipient != address(0) */\n      dup3\n      and\n        /* \"contracts/veWVLT.sol\":11686:11757  require(recipient != address(0), \"ERC20: transfer to the zero address\") */\n      tag_197\n      jumpi\n      mload(0x40)\n      shl(0xe5, 0x461bcd)\n      dup2\n      mstore\n        /* \"#utility.yul\":3980:3982   */\n      0x20\n        /* \"contracts/veWVLT.sol\":11686:11757  require(recipient != address(0), \"ERC20: transfer to the zero address\") */\n      0x04\n      dup3\n      add\n        /* \"#utility.yul\":3962:3983   */\n      mstore\n        /* \"#utility.yul\":4019:4021   */\n      0x23\n        /* \"#utility.yul\":3999:4017   */\n      0x24\n      dup3\n      add\n        /* \"#utility.yul\":3992:4022   */\n      mstore\n        /* \"#utility.yul\":4058:4092   */\n      0x45524332303a207472616e7366657220746f20746865207a65726f2061646472\n        /* \"#utility.yul\":4038:4056   */\n      0x44\n      dup3\n      add\n        /* \"#utility.yul\":4031:4093   */\n      mstore\n      shl(0xe8, 0x657373)\n        /* \"#utility.yul\":4109:4127   */\n      0x64\n      dup3\n      add\n        /* \"#utility.yul\":4102:4135   */\n      mstore\n        /* \"#utility.yul\":4152:4171   */\n      0x84\n      add\n        /* \"contracts/veWVLT.sol\":11686:11757  require(recipient != address(0), \"ERC20: transfer to the zero address\") */\n      tag_110\n        /* \"#utility.yul\":3778:4177   */\n      jump\n        /* \"contracts/veWVLT.sol\":11686:11757  require(recipient != address(0), \"ERC20: transfer to the zero address\") */\n    tag_197:\n      sub(shl(0xa0, 0x01), 0x01)\n        /* \"contracts/veWVLT.sol\":11854:11871  _balances[sender] */\n      dup4\n      and\n        /* \"contracts/veWVLT.sol\":11830:11851  uint256 senderBalance */\n      0x00\n        /* \"contracts/veWVLT.sol\":11854:11871  _balances[sender] */\n      swap1\n      dup2\n      mstore\n      0x20\n      dup2\n      swap1\n      mstore\n      0x40\n      swap1\n      keccak256\n      sload\n        /* \"contracts/veWVLT.sol\":11890:11913  senderBalance >= amount */\n      dup2\n      dup2\n      lt\n      iszero\n        /* \"contracts/veWVLT.sol\":11882:11956  require(senderBalance >= amount, \"ERC20: transfer amount exceeds balance\") */\n      tag_202\n      jumpi\n      mload(0x40)\n      shl(0xe5, 0x461bcd)\n      dup2\n      mstore\n        /* \"#utility.yul\":5190:5192   */\n      0x20\n        /* \"contracts/veWVLT.sol\":11882:11956  require(senderBalance >= amount, \"ERC20: transfer amount exceeds balance\") */\n      0x04\n      dup3\n      add\n        /* \"#utility.yul\":5172:5193   */\n      mstore\n        /* \"#utility.yul\":5229:5231   */\n      0x26\n        /* \"#utility.yul\":5209:5227   */\n      0x24\n      dup3\n      add\n        /* \"#utility.yul\":5202:5232   */\n      mstore\n        /* \"#utility.yul\":5268:5302   */\n      0x45524332303a207472616e7366657220616d6f756e7420657863656564732062\n        /* \"#utility.yul\":5248:5266   */\n      0x44\n      dup3\n      add\n        /* \"#utility.yul\":5241:5303   */\n      mstore\n      shl(0xd0, 0x616c616e6365)\n        /* \"#utility.yul\":5319:5337   */\n      0x64\n      dup3\n      add\n        /* \"#utility.yul\":5312:5348   */\n      mstore\n        /* \"#utility.yul\":5365:5384   */\n      0x84\n      add\n        /* \"contracts/veWVLT.sol\":11882:11956  require(senderBalance >= amount, \"ERC20: transfer amount exceeds balance\") */\n      tag_110\n        /* \"#utility.yul\":4988:5390   */\n      jump\n        /* \"contracts/veWVLT.sol\":11882:11956  require(senderBalance >= amount, \"ERC20: transfer amount exceeds balance\") */\n    tag_202:\n      sub(shl(0xa0, 0x01), 0x01)\n        /* \"contracts/veWVLT.sol\":11992:12009  _balances[sender] */\n      dup1\n      dup6\n      and\n        /* \"contracts/veWVLT.sol\":11992:12001  _balances */\n      0x00\n        /* \"contracts/veWVLT.sol\":11992:12009  _balances[sender] */\n      swap1\n      dup2\n      mstore\n      0x20\n      dup2\n      swap1\n      mstore\n      0x40\n      dup1\n      dup3\n      keccak256\n        /* \"contracts/veWVLT.sol\":12012:12034  senderBalance - amount */\n      dup6\n      dup6\n      sub\n        /* \"contracts/veWVLT.sol\":11992:12034  _balances[sender] = senderBalance - amount */\n      swap1\n      sstore\n        /* \"contracts/veWVLT.sol\":12056:12076  _balances[recipient] */\n      swap2\n      dup6\n      and\n      dup2\n      mstore\n      swap1\n      dup2\n      keccak256\n        /* \"contracts/veWVLT.sol\":12056:12086  _balances[recipient] += amount */\n      dup1\n      sload\n        /* \"contracts/veWVLT.sol\":12028:12034  amount */\n      dup5\n      swap3\n        /* \"contracts/veWVLT.sol\":11992:12001  _balances */\n      swap1\n        /* \"contracts/veWVLT.sol\":12056:12086  _balances[recipient] += amount */\n      tag_205\n      swap1\n        /* \"contracts/veWVLT.sol\":12028:12034  amount */\n      dup5\n      swap1\n        /* \"contracts/veWVLT.sol\":12056:12086  _balances[recipient] += amount */\n      tag_120\n      jump\t// in\n    tag_205:\n      swap3\n      pop\n      pop\n      dup2\n      swap1\n      sstore\n      pop\n        /* \"contracts/veWVLT.sol\":12121:12130  recipient */\n      dup3\n      sub(shl(0xa0, 0x01), 0x01)\n        /* \"contracts/veWVLT.sol\":12104:12139  Transfer(sender, recipient, amount) */\n      and\n        /* \"contracts/veWVLT.sol\":12113:12119  sender */\n      dup5\n      sub(shl(0xa0, 0x01), 0x01)\n        /* \"contracts/veWVLT.sol\":12104:12139  Transfer(sender, recipient, amount) */\n      and\n      0xddf252ad1be2c89b69c2b068fc378daa952ba7f163c4a11628f55a4df523b3ef\n        /* \"contracts/veWVLT.sol\":12132:12138  amount */\n      dup5\n        /* \"contracts/veWVLT.sol\":12104:12139  Transfer(sender, recipient, amount) */\n      mload(0x40)\n      tag_206\n      swap2\n        /* \"#utility.yul\":7929:7954   */\n      dup2\n      mstore\n        /* \"#utility.yul\":7917:7919   */\n      0x20\n        /* \"#utility.yul\":7902:7920   */\n      add\n      swap1\n        /* \"#utility.yul\":7783:7960   */\n      jump\n        /* \"contracts/veWVLT.sol\":12104:12139  Transfer(sender, recipient, amount) */\n    tag_206:\n      mload(0x40)\n      dup1\n      swap2\n      sub\n      swap1\n      log3\n        /* \"contracts/veWVLT.sol\":11594:12206  {\r... */\n      pop\n        /* \"contracts/veWVLT.sol\":11473:12206  function _transfer(\r... */\n      pop\n      pop\n      pop\n      jump\t// out\n        /* \"contracts/veWVLT.sol\":13225:13816  function _burn(address account, uint256 amount) internal virtual {\r... */\n    tag_136:\n      sub(shl(0xa0, 0x01), 0x01)\n        /* \"contracts/veWVLT.sol\":13309:13330  account != address(0) */\n      dup3\n      and\n        /* \"contracts/veWVLT.sol\":13301:13368  require(account != address(0), \"ERC20: burn from the zero address\") */\n      tag_210\n      jumpi\n      mload(0x40)\n      shl(0xe5, 0x461bcd)\n      dup2\n      mstore\n        /* \"#utility.yul\":6006:6008   */\n      0x20\n        /* \"contracts/veWVLT.sol\":13301:13368  require(account != address(0), \"ERC20: burn from the zero address\") */\n      0x04\n      dup3\n      add\n        /* \"#utility.yul\":5988:6009   */\n      mstore\n        /* \"#utility.yul\":6045:6047   */\n      0x21\n        /* \"#utility.yul\":6025:6043   */\n      0x24\n      dup3\n      add\n        /* \"#utility.yul\":6018:6048   */\n      mstore\n        /* \"#utility.yul\":6084:6118   */\n      0x45524332303a206275726e2066726f6d20746865207a65726f20616464726573\n        /* \"#utility.yul\":6064:6082   */\n      0x44\n      dup3\n      add\n        /* \"#utility.yul\":6057:6119   */\n      mstore\n      shl(0xf8, 0x73)\n        /* \"#utility.yul\":6135:6153   */\n      0x64\n      dup3\n      add\n        /* \"#utility.yul\":6128:6159   */\n      mstore\n        /* \"#utility.yul\":6176:6195   */\n      0x84\n      add\n        /* \"contracts/veWVLT.sol\":13301:13368  require(account != address(0), \"ERC20: burn from the zero address\") */\n      tag_110\n        /* \"#utility.yul\":5804:6201   */\n      jump\n        /* \"contracts/veWVLT.sol\":13301:13368  require(account != address(0), \"ERC20: burn from the zero address\") */\n    tag_210:\n      sub(shl(0xa0, 0x01), 0x01)\n        /* \"contracts/veWVLT.sol\":13468:13486  _balances[account] */\n      dup3\n      and\n        /* \"contracts/veWVLT.sol\":13443:13465  uint256 accountBalance */\n      0x00\n        /* \"contracts/veWVLT.sol\":13468:13486  _balances[account] */\n      swap1\n      dup2\n      mstore\n      0x20\n      dup2\n      swap1\n      mstore\n      0x40\n      swap1\n      keccak256\n      sload\n        /* \"contracts/veWVLT.sol\":13505:13529  accountBalance >= amount */\n      dup2\n      dup2\n      lt\n      iszero\n        /* \"contracts/veWVLT.sol\":13497:13568  require(accountBalance >= amount, \"ERC20: burn amount exceeds balance\") */\n      tag_214\n      jumpi\n      mload(0x40)\n      shl(0xe5, 0x461bcd)\n      dup2\n      mstore\n        /* \"#utility.yul\":4384:4386   */\n      0x20\n        /* \"contracts/veWVLT.sol\":13497:13568  require(accountBalance >= amount, \"ERC20: burn amount exceeds balance\") */\n      0x04\n      dup3\n      add\n        /* \"#utility.yul\":4366:4387   */\n      mstore\n        /* \"#utility.yul\":4423:4425   */\n      0x22\n        /* \"#utility.yul\":4403:4421   */\n      0x24\n      dup3\n      add\n        /* \"#utility.yul\":4396:4426   */\n      mstore\n        /* \"#utility.yul\":4462:4496   */\n      0x45524332303a206275726e20616d6f756e7420657863656564732062616c616e\n        /* \"#utility.yul\":4442:4460   */\n      0x44\n      dup3\n      add\n        /* \"#utility.yul\":4435:4497   */\n      mstore\n      shl(0xf0, 0x6365)\n        /* \"#utility.yul\":4513:4531   */\n      0x64\n      dup3\n      add\n        /* \"#utility.yul\":4506:4538   */\n      mstore\n        /* \"#utility.yul\":4555:4574   */\n      0x84\n      add\n        /* \"contracts/veWVLT.sol\":13497:13568  require(accountBalance >= amount, \"ERC20: burn amount exceeds balance\") */\n      tag_110\n        /* \"#utility.yul\":4182:4580   */\n      jump\n        /* \"contracts/veWVLT.sol\":13497:13568  require(accountBalance >= amount, \"ERC20: burn amount exceeds balance\") */\n    tag_214:\n      sub(shl(0xa0, 0x01), 0x01)\n        /* \"contracts/veWVLT.sol\":13604:13622  _balances[account] */\n      dup4\n      and\n        /* \"contracts/veWVLT.sol\":13604:13613  _balances */\n      0x00\n        /* \"contracts/veWVLT.sol\":13604:13622  _balances[account] */\n      swap1\n      dup2\n      mstore\n      0x20\n      dup2\n      swap1\n      mstore\n      0x40\n      dup2\n      keccak256\n        /* \"contracts/veWVLT.sol\":13625:13648  accountBalance - amount */\n      dup4\n      dup4\n      sub\n        /* \"contracts/veWVLT.sol\":13604:13648  _balances[account] = accountBalance - amount */\n      swap1\n      sstore\n        /* \"contracts/veWVLT.sol\":13670:13682  _totalSupply */\n      0x02\n        /* \"contracts/veWVLT.sol\":13670:13692  _totalSupply -= amount */\n      dup1\n      sload\n        /* \"contracts/veWVLT.sol\":13642:13648  amount */\n      dup5\n      swap3\n        /* \"contracts/veWVLT.sol\":13604:13613  _balances */\n      swap1\n        /* \"contracts/veWVLT.sol\":13670:13692  _totalSupply -= amount */\n      tag_217\n      swap1\n        /* \"contracts/veWVLT.sol\":13642:13648  amount */\n      dup5\n      swap1\n        /* \"contracts/veWVLT.sol\":13670:13692  _totalSupply -= amount */\n      tag_218\n      jump\t// in\n    tag_217:\n      swap1\n      swap2\n      sstore\n      pop\n      pop\n        /* \"contracts/veWVLT.sol\":13710:13747  Transfer(account, address(0), amount) */\n      mload(0x40)\n        /* \"#utility.yul\":7929:7954   */\n      dup3\n      dup2\n      mstore\n        /* \"contracts/veWVLT.sol\":13736:13737  0 */\n      0x00\n      swap1\n      sub(shl(0xa0, 0x01), 0x01)\n        /* \"contracts/veWVLT.sol\":13710:13747  Transfer(account, address(0), amount) */\n      dup6\n      and\n      swap1\n      0xddf252ad1be2c89b69c2b068fc378daa952ba7f163c4a11628f55a4df523b3ef\n      swap1\n        /* \"#utility.yul\":7917:7919   */\n      0x20\n        /* \"#utility.yul\":7902:7920   */\n      add\n        /* \"contracts/veWVLT.sol\":13710:13747  Transfer(account, address(0), amount) */\n      tag_192\n        /* \"#utility.yul\":7783:7960   */\n      jump\n        /* \"contracts/veWVLT.sol\":12493:12892  function _mint(address account, uint256 amount) internal virtual {\r... */\n    tag_178:\n      sub(shl(0xa0, 0x01), 0x01)\n        /* \"contracts/veWVLT.sol\":12577:12598  account != address(0) */\n      dup3\n      and\n        /* \"contracts/veWVLT.sol\":12569:12634  require(account != address(0), \"ERC20: mint to the zero address\") */\n      tag_222\n      jumpi\n      mload(0x40)\n      shl(0xe5, 0x461bcd)\n      dup2\n      mstore\n        /* \"#utility.yul\":7625:7627   */\n      0x20\n        /* \"contracts/veWVLT.sol\":12569:12634  require(account != address(0), \"ERC20: mint to the zero address\") */\n      0x04\n      dup3\n      add\n        /* \"#utility.yul\":7607:7628   */\n      mstore\n        /* \"#utility.yul\":7664:7666   */\n      0x1f\n        /* \"#utility.yul\":7644:7662   */\n      0x24\n      dup3\n      add\n        /* \"#utility.yul\":7637:7667   */\n      mstore\n        /* \"#utility.yul\":7703:7736   */\n      0x45524332303a206d696e7420746f20746865207a65726f206164647265737300\n        /* \"#utility.yul\":7683:7701   */\n      0x44\n      dup3\n      add\n        /* \"#utility.yul\":7676:7737   */\n      mstore\n        /* \"#utility.yul\":7754:7772   */\n      0x64\n      add\n        /* \"contracts/veWVLT.sol\":12569:12634  require(account != address(0), \"ERC20: mint to the zero address\") */\n      tag_110\n        /* \"#utility.yul\":7423:7778   */\n      jump\n        /* \"contracts/veWVLT.sol\":12569:12634  require(account != address(0), \"ERC20: mint to the zero address\") */\n    tag_222:\n        /* \"contracts/veWVLT.sol\":12725:12731  amount */\n      dup1\n        /* \"contracts/veWVLT.sol\":12709:12721  _totalSupply */\n      0x02\n      0x00\n        /* \"contracts/veWVLT.sol\":12709:12731  _totalSupply += amount */\n      dup3\n      dup3\n      sload\n      tag_226\n      swap2\n      swap1\n      tag_120\n      jump\t// in\n    tag_226:\n      swap1\n      swap2\n      sstore\n      pop\n      pop\n      sub(shl(0xa0, 0x01), 0x01)\n        /* \"contracts/veWVLT.sol\":12742:12760  _balances[account] */\n      dup3\n      and\n        /* \"contracts/veWVLT.sol\":12742:12751  _balances */\n      0x00\n        /* \"contracts/veWVLT.sol\":12742:12760  _balances[account] */\n      swap1\n      dup2\n      mstore\n      0x20\n      dup2\n      swap1\n      mstore\n      0x40\n      dup2\n      keccak256\n        /* \"contracts/veWVLT.sol\":12742:12770  _balances[account] += amount */\n      dup1\n      sload\n        /* \"contracts/veWVLT.sol\":12764:12770  amount */\n      dup4\n      swap3\n        /* \"contracts/veWVLT.sol\":12742:12751  _balances */\n      swap1\n        /* \"contracts/veWVLT.sol\":12742:12770  _balances[account] += amount */\n      tag_227\n      swap1\n        /* \"contracts/veWVLT.sol\":12764:12770  amount */\n      dup5\n      swap1\n        /* \"contracts/veWVLT.sol\":12742:12770  _balances[account] += amount */\n      tag_120\n      jump\t// in\n    tag_227:\n      swap1\n      swap2\n      sstore\n      pop\n      pop\n        /* \"contracts/veWVLT.sol\":12786:12823  Transfer(address(0), account, amount) */\n      mload(0x40)\n        /* \"#utility.yul\":7929:7954   */\n      dup2\n      dup2\n      mstore\n      sub(shl(0xa0, 0x01), 0x01)\n        /* \"contracts/veWVLT.sol\":12786:12823  Transfer(address(0), account, amount) */\n      dup4\n      and\n      swap1\n        /* \"contracts/veWVLT.sol\":12803:12804  0 */\n      0x00\n      swap1\n        /* \"contracts/veWVLT.sol\":12786:12823  Transfer(address(0), account, amount) */\n      0xddf252ad1be2c89b69c2b068fc378daa952ba7f163c4a11628f55a4df523b3ef\n      swap1\n        /* \"#utility.yul\":7917:7919   */\n      0x20\n        /* \"#utility.yul\":7902:7920   */\n      add\n        /* \"contracts/veWVLT.sol\":12786:12823  Transfer(address(0), account, amount) */\n      mload(0x40)\n      dup1\n      swap2\n      sub\n      swap1\n      log3\n        /* \"contracts/veWVLT.sol\":12493:12892  function _mint(address account, uint256 amount) internal virtual {\r... */\n      pop\n      pop\n      jump\t// out\n        /* \"#utility.yul\":14:187   */\n    tag_233:\n        /* \"#utility.yul\":82:102   */\n      dup1\n      calldataload\n      sub(shl(0xa0, 0x01), 0x01)\n        /* \"#utility.yul\":131:162   */\n      dup2\n      and\n        /* \"#utility.yul\":121:163   */\n      dup2\n      eq\n        /* \"#utility.yul\":111:181   */\n      tag_235\n      jumpi\n        /* \"#utility.yul\":177:178   */\n      0x00\n        /* \"#utility.yul\":174:175   */\n      dup1\n        /* \"#utility.yul\":167:179   */\n      revert\n        /* \"#utility.yul\":111:181   */\n    tag_235:\n        /* \"#utility.yul\":14:187   */\n      swap2\n      swap1\n      pop\n      jump\t// out\n        /* \"#utility.yul\":192:378   */\n    tag_61:\n        /* \"#utility.yul\":251:257   */\n      0x00\n        /* \"#utility.yul\":304:306   */\n      0x20\n        /* \"#utility.yul\":292:301   */\n      dup3\n        /* \"#utility.yul\":283:290   */\n      dup5\n        /* \"#utility.yul\":279:302   */\n      sub\n        /* \"#utility.yul\":275:307   */\n      slt\n        /* \"#utility.yul\":272:324   */\n      iszero\n      tag_237\n      jumpi\n        /* \"#utility.yul\":320:321   */\n      0x00\n        /* \"#utility.yul\":317:318   */\n      dup1\n        /* \"#utility.yul\":310:322   */\n      revert\n        /* \"#utility.yul\":272:324   */\n    tag_237:\n        /* \"#utility.yul\":343:372   */\n      tag_238\n        /* \"#utility.yul\":362:371   */\n      dup3\n        /* \"#utility.yul\":343:372   */\n      tag_233\n      jump\t// in\n    tag_238:\n        /* \"#utility.yul\":333:372   */\n      swap4\n        /* \"#utility.yul\":192:378   */\n      swap3\n      pop\n      pop\n      pop\n      jump\t// out\n        /* \"#utility.yul\":383:643   */\n    tag_80:\n        /* \"#utility.yul\":451:457   */\n      0x00\n        /* \"#utility.yul\":459:465   */\n      dup1\n        /* \"#utility.yul\":512:514   */\n      0x40\n        /* \"#utility.yul\":500:509   */\n      dup4\n        /* \"#utility.yul\":491:498   */\n      dup6\n        /* \"#utility.yul\":487:510   */\n      sub\n        /* \"#utility.yul\":483:515   */\n      slt\n        /* \"#utility.yul\":480:532   */\n      iszero\n      tag_240\n      jumpi\n        /* \"#utility.yul\":528:529   */\n      0x00\n        /* \"#utility.yul\":525:526   */\n      dup1\n        /* \"#utility.yul\":518:530   */\n      revert\n        /* \"#utility.yul\":480:532   */\n    tag_240:\n        /* \"#utility.yul\":551:580   */\n      tag_241\n        /* \"#utility.yul\":570:579   */\n      dup4\n        /* \"#utility.yul\":551:580   */\n      tag_233\n      jump\t// in\n    tag_241:\n        /* \"#utility.yul\":541:580   */\n      swap2\n      pop\n        /* \"#utility.yul\":599:637   */\n      tag_242\n        /* \"#utility.yul\":633:635   */\n      0x20\n        /* \"#utility.yul\":622:631   */\n      dup5\n        /* \"#utility.yul\":618:636   */\n      add\n        /* \"#utility.yul\":599:637   */\n      tag_233\n      jump\t// in\n    tag_242:\n        /* \"#utility.yul\":589:637   */\n      swap1\n      pop\n        /* \"#utility.yul\":383:643   */\n      swap3\n      pop\n      swap3\n      swap1\n      pop\n      jump\t// out\n        /* \"#utility.yul\":648:976   */\n    tag_45:\n        /* \"#utility.yul\":725:731   */\n      0x00\n        /* \"#utility.yul\":733:739   */\n      dup1\n        /* \"#utility.yul\":741:747   */\n      0x00\n        /* \"#utility.yul\":794:796   */\n      0x60\n        /* \"#utility.yul\":782:791   */\n      dup5\n        /* \"#utility.yul\":773:780   */\n      dup7\n        /* \"#utility.yul\":769:792   */\n      sub\n        /* \"#utility.yul\":765:797   */\n      slt\n        /* \"#utility.yul\":762:814   */\n      iszero\n      tag_244\n      jumpi\n        /* \"#utility.yul\":810:811   */\n      0x00\n        /* \"#utility.yul\":807:808   */\n      dup1\n        /* \"#utility.yul\":800:812   */\n      revert\n        /* \"#utility.yul\":762:814   */\n    tag_244:\n        /* \"#utility.yul\":833:862   */\n      tag_245\n        /* \"#utility.yul\":852:861   */\n      dup5\n        /* \"#utility.yul\":833:862   */\n      tag_233\n      jump\t// in\n    tag_245:\n        /* \"#utility.yul\":823:862   */\n      swap3\n      pop\n        /* \"#utility.yul\":881:919   */\n      tag_246\n        /* \"#utility.yul\":915:917   */\n      0x20\n        /* \"#utility.yul\":904:913   */\n      dup6\n        /* \"#utility.yul\":900:918   */\n      add\n        /* \"#utility.yul\":881:919   */\n      tag_233\n      jump\t// in\n    tag_246:\n        /* \"#utility.yul\":871:919   */\n      swap2\n      pop\n        /* \"#utility.yul\":966:968   */\n      0x40\n        /* \"#utility.yul\":955:964   */\n      dup5\n        /* \"#utility.yul\":951:969   */\n      add\n        /* \"#utility.yul\":938:970   */\n      calldataload\n        /* \"#utility.yul\":928:970   */\n      swap1\n      pop\n        /* \"#utility.yul\":648:976   */\n      swap3\n      pop\n      swap3\n      pop\n      swap3\n      jump\t// out\n        /* \"#utility.yul\":981:1235   */\n    tag_27:\n        /* \"#utility.yul\":1049:1055   */\n      0x00\n        /* \"#utility.yul\":1057:1063   */\n      dup1\n        /* \"#utility.yul\":1110:1112   */\n      0x40\n        /* \"#utility.yul\":1098:1107   */\n      dup4\n        /* \"#utility.yul\":1089:1096   */\n      dup6\n        /* \"#utility.yul\":1085:1108   */\n      sub\n        /* \"#utility.yul\":1081:1113   */\n      slt\n        /* \"#utility.yul\":1078:1130   */\n      iszero\n      tag_248\n      jumpi\n        /* \"#utility.yul\":1126:1127   */\n      0x00\n        /* \"#utility.yul\":1123:1124   */\n      dup1\n        /* \"#utility.yul\":1116:1128   */\n      revert\n        /* \"#utility.yul\":1078:1130   */\n    tag_248:\n        /* \"#utility.yul\":1149:1178   */\n      tag_249\n        /* \"#utility.yul\":1168:1177   */\n      dup4\n        /* \"#utility.yul\":1149:1178   */\n      tag_233\n      jump\t// in\n    tag_249:\n        /* \"#utility.yul\":1139:1178   */\n      swap5\n        /* \"#utility.yul\":1225:1227   */\n      0x20\n        /* \"#utility.yul\":1210:1228   */\n      swap4\n      swap1\n      swap4\n      add\n        /* \"#utility.yul\":1197:1229   */\n      calldataload\n      swap4\n      pop\n      pop\n      pop\n        /* \"#utility.yul\":981:1235   */\n      jump\t// out\n        /* \"#utility.yul\":1240:1517   */\n    tag_102:\n        /* \"#utility.yul\":1307:1313   */\n      0x00\n        /* \"#utility.yul\":1360:1362   */\n      0x20\n        /* \"#utility.yul\":1348:1357   */\n      dup3\n        /* \"#utility.yul\":1339:1346   */\n      dup5\n        /* \"#utility.yul\":1335:1358   */\n      sub\n        /* \"#utility.yul\":1331:1363   */\n      slt\n        /* \"#utility.yul\":1328:1380   */\n      iszero\n      tag_251\n      jumpi\n        /* \"#utility.yul\":1376:1377   */\n      0x00\n        /* \"#utility.yul\":1373:1374   */\n      dup1\n        /* \"#utility.yul\":1366:1378   */\n      revert\n        /* \"#utility.yul\":1328:1380   */\n    tag_251:\n        /* \"#utility.yul\":1408:1417   */\n      dup2\n        /* \"#utility.yul\":1402:1418   */\n      mload\n        /* \"#utility.yul\":1461:1466   */\n      dup1\n        /* \"#utility.yul\":1454:1467   */\n      iszero\n        /* \"#utility.yul\":1447:1468   */\n      iszero\n        /* \"#utility.yul\":1440:1445   */\n      dup2\n        /* \"#utility.yul\":1437:1469   */\n      eq\n        /* \"#utility.yul\":1427:1487   */\n      tag_238\n      jumpi\n        /* \"#utility.yul\":1483:1484   */\n      0x00\n        /* \"#utility.yul\":1480:1481   */\n      dup1\n        /* \"#utility.yul\":1473:1485   */\n      revert\n        /* \"#utility.yul\":1522:1702   */\n    tag_33:\n        /* \"#utility.yul\":1581:1587   */\n      0x00\n        /* \"#utility.yul\":1634:1636   */\n      0x20\n        /* \"#utility.yul\":1622:1631   */\n      dup3\n        /* \"#utility.yul\":1613:1620   */\n      dup5\n        /* \"#utility.yul\":1609:1632   */\n      sub\n        /* \"#utility.yul\":1605:1637   */\n      slt\n        /* \"#utility.yul\":1602:1654   */\n      iszero\n      tag_254\n      jumpi\n        /* \"#utility.yul\":1650:1651   */\n      0x00\n        /* \"#utility.yul\":1647:1648   */\n      dup1\n        /* \"#utility.yul\":1640:1652   */\n      revert\n        /* \"#utility.yul\":1602:1654   */\n    tag_254:\n      pop\n        /* \"#utility.yul\":1673:1696   */\n      calldataload\n      swap2\n        /* \"#utility.yul\":1522:1702   */\n      swap1\n      pop\n      jump\t// out\n        /* \"#utility.yul\":1707:1891   */\n    tag_129:\n        /* \"#utility.yul\":1777:1783   */\n      0x00\n        /* \"#utility.yul\":1830:1832   */\n      0x20\n        /* \"#utility.yul\":1818:1827   */\n      dup3\n        /* \"#utility.yul\":1809:1816   */\n      dup5\n        /* \"#utility.yul\":1805:1828   */\n      sub\n        /* \"#utility.yul\":1801:1833   */\n      slt\n        /* \"#utility.yul\":1798:1850   */\n      iszero\n      tag_256\n      jumpi\n        /* \"#utility.yul\":1846:1847   */\n      0x00\n        /* \"#utility.yul\":1843:1844   */\n      dup1\n        /* \"#utility.yul\":1836:1848   */\n      revert\n        /* \"#utility.yul\":1798:1850   */\n    tag_256:\n      pop\n        /* \"#utility.yul\":1869:1885   */\n      mload\n      swap2\n        /* \"#utility.yul\":1707:1891   */\n      swap1\n      pop\n      jump\t// out\n        /* \"#utility.yul\":3176:3773   */\n    tag_24:\n        /* \"#utility.yul\":3288:3292   */\n      0x00\n        /* \"#utility.yul\":3317:3319   */\n      0x20\n        /* \"#utility.yul\":3346:3348   */\n      dup1\n        /* \"#utility.yul\":3335:3344   */\n      dup4\n        /* \"#utility.yul\":3328:3349   */\n      mstore\n        /* \"#utility.yul\":3378:3384   */\n      dup4\n        /* \"#utility.yul\":3372:3385   */\n      mload\n        /* \"#utility.yul\":3421:3427   */\n      dup1\n        /* \"#utility.yul\":3416:3418   */\n      dup3\n        /* \"#utility.yul\":3405:3414   */\n      dup6\n        /* \"#utility.yul\":3401:3419   */\n      add\n        /* \"#utility.yul\":3394:3428   */\n      mstore\n        /* \"#utility.yul\":3446:3447   */\n      0x00\n        /* \"#utility.yul\":3456:3596   */\n    tag_263:\n        /* \"#utility.yul\":3470:3476   */\n      dup2\n        /* \"#utility.yul\":3467:3468   */\n      dup2\n        /* \"#utility.yul\":3464:3477   */\n      lt\n        /* \"#utility.yul\":3456:3596   */\n      iszero\n      tag_265\n      jumpi\n        /* \"#utility.yul\":3565:3579   */\n      dup6\n      dup2\n      add\n        /* \"#utility.yul\":3561:3584   */\n      dup4\n      add\n        /* \"#utility.yul\":3555:3585   */\n      mload\n        /* \"#utility.yul\":3531:3548   */\n      dup6\n      dup3\n      add\n        /* \"#utility.yul\":3550:3552   */\n      0x40\n        /* \"#utility.yul\":3527:3553   */\n      add\n        /* \"#utility.yul\":3520:3586   */\n      mstore\n        /* \"#utility.yul\":3485:3495   */\n      dup3\n      add\n        /* \"#utility.yul\":3456:3596   */\n      jump(tag_263)\n    tag_265:\n        /* \"#utility.yul\":3614:3620   */\n      dup2\n        /* \"#utility.yul\":3611:3612   */\n      dup2\n        /* \"#utility.yul\":3608:3621   */\n      gt\n        /* \"#utility.yul\":3605:3696   */\n      iszero\n      tag_266\n      jumpi\n        /* \"#utility.yul\":3684:3685   */\n      0x00\n        /* \"#utility.yul\":3679:3681   */\n      0x40\n        /* \"#utility.yul\":3670:3676   */\n      dup4\n        /* \"#utility.yul\":3659:3668   */\n      dup8\n        /* \"#utility.yul\":3655:3677   */\n      add\n        /* \"#utility.yul\":3651:3682   */\n      add\n        /* \"#utility.yul\":3644:3686   */\n      mstore\n        /* \"#utility.yul\":3605:3696   */\n    tag_266:\n      pop\n        /* \"#utility.yul\":3757:3759   */\n      0x1f\n        /* \"#utility.yul\":3736:3751   */\n      add\n      not(0x1f)\n        /* \"#utility.yul\":3732:3761   */\n      and\n        /* \"#utility.yul\":3717:3762   */\n      swap3\n      swap1\n      swap3\n      add\n        /* \"#utility.yul\":3764:3766   */\n      0x40\n        /* \"#utility.yul\":3713:3767   */\n      add\n      swap4\n        /* \"#utility.yul\":3176:3773   */\n      swap3\n      pop\n      pop\n      pop\n      jump\t// out\n        /* \"#utility.yul\":8407:8535   */\n    tag_120:\n        /* \"#utility.yul\":8447:8450   */\n      0x00\n        /* \"#utility.yul\":8478:8479   */\n      dup3\n        /* \"#utility.yul\":8474:8480   */\n      not\n        /* \"#utility.yul\":8471:8472   */\n      dup3\n        /* \"#utility.yul\":8468:8481   */\n      gt\n        /* \"#utility.yul\":8465:8504   */\n      iszero\n      tag_282\n      jumpi\n        /* \"#utility.yul\":8484:8502   */\n      tag_282\n      tag_283\n      jump\t// in\n    tag_282:\n      pop\n        /* \"#utility.yul\":8520:8529   */\n      add\n      swap1\n        /* \"#utility.yul\":8407:8535   */\n      jump\t// out\n        /* \"#utility.yul\":8540:8757   */\n    tag_134:\n        /* \"#utility.yul\":8580:8581   */\n      0x00\n        /* \"#utility.yul\":8606:8607   */\n      dup3\n        /* \"#utility.yul\":8596:8728   */\n      tag_285\n      jumpi\n        /* \"#utility.yul\":8650:8660   */\n      0x4e487b71\n        /* \"#utility.yul\":8645:8648   */\n      0xe0\n        /* \"#utility.yul\":8641:8661   */\n      shl\n        /* \"#utility.yul\":8638:8639   */\n      0x00\n        /* \"#utility.yul\":8631:8662   */\n      mstore\n        /* \"#utility.yul\":8685:8689   */\n      0x12\n        /* \"#utility.yul\":8682:8683   */\n      0x04\n        /* \"#utility.yul\":8675:8690   */\n      mstore\n        /* \"#utility.yul\":8713:8717   */\n      0x24\n        /* \"#utility.yul\":8710:8711   */\n      0x00\n        /* \"#utility.yul\":8703:8718   */\n      revert\n        /* \"#utility.yul\":8596:8728   */\n    tag_285:\n      pop\n        /* \"#utility.yul\":8742:8751   */\n      div\n      swap1\n        /* \"#utility.yul\":8540:8757   */\n      jump\t// out\n        /* \"#utility.yul\":8762:8930   */\n    tag_132:\n        /* \"#utility.yul\":8802:8809   */\n      0x00\n        /* \"#utility.yul\":8868:8869   */\n      dup2\n        /* \"#utility.yul\":8864:8865   */\n      0x00\n        /* \"#utility.yul\":8860:8866   */\n      not\n        /* \"#utility.yul\":8856:8870   */\n      div\n        /* \"#utility.yul\":8853:8854   */\n      dup4\n        /* \"#utility.yul\":8850:8871   */\n      gt\n        /* \"#utility.yul\":8845:8846   */\n      dup3\n        /* \"#utility.yul\":8838:8847   */\n      iszero\n        /* \"#utility.yul\":8831:8848   */\n      iszero\n        /* \"#utility.yul\":8827:8872   */\n      and\n        /* \"#utility.yul\":8824:8895   */\n      iszero\n      tag_288\n      jumpi\n        /* \"#utility.yul\":8875:8893   */\n      tag_288\n      tag_283\n      jump\t// in\n    tag_288:\n      pop\n        /* \"#utility.yul\":8915:8924   */\n      mul\n      swap1\n        /* \"#utility.yul\":8762:8930   */\n      jump\t// out\n        /* \"#utility.yul\":8935:9060   */\n    tag_218:\n        /* \"#utility.yul\":8975:8979   */\n      0x00\n        /* \"#utility.yul\":9003:9004   */\n      dup3\n        /* \"#utility.yul\":9000:9001   */\n      dup3\n        /* \"#utility.yul\":8997:9005   */\n      lt\n        /* \"#utility.yul\":8994:9028   */\n      iszero\n      tag_291\n      jumpi\n        /* \"#utility.yul\":9008:9026   */\n      tag_291\n      tag_283\n      jump\t// in\n    tag_291:\n      pop\n        /* \"#utility.yul\":9045:9054   */\n      sub\n      swap1\n        /* \"#utility.yul\":8935:9060   */\n      jump\t// out\n        /* \"#utility.yul\":9065:9445   */\n    tag_85:\n        /* \"#utility.yul\":9144:9145   */\n      0x01\n        /* \"#utility.yul\":9140:9152   */\n      dup2\n      dup2\n      shr\n      swap1\n        /* \"#utility.yul\":9187:9199   */\n      dup3\n      and\n      dup1\n        /* \"#utility.yul\":9208:9269   */\n      tag_293\n      jumpi\n        /* \"#utility.yul\":9262:9266   */\n      0x7f\n        /* \"#utility.yul\":9254:9260   */\n      dup3\n        /* \"#utility.yul\":9250:9267   */\n      and\n        /* \"#utility.yul\":9240:9267   */\n      swap2\n      pop\n        /* \"#utility.yul\":9208:9269   */\n    tag_293:\n        /* \"#utility.yul\":9315:9317   */\n      0x20\n        /* \"#utility.yul\":9307:9313   */\n      dup3\n        /* \"#utility.yul\":9304:9318   */\n      lt\n        /* \"#utility.yul\":9284:9302   */\n      dup2\n        /* \"#utility.yul\":9281:9319   */\n      eq\n        /* \"#utility.yul\":9278:9439   */\n      iszero\n      tag_294\n      jumpi\n        /* \"#utility.yul\":9361:9371   */\n      0x4e487b71\n        /* \"#utility.yul\":9356:9359   */\n      0xe0\n        /* \"#utility.yul\":9352:9372   */\n      shl\n        /* \"#utility.yul\":9349:9350   */\n      0x00\n        /* \"#utility.yul\":9342:9373   */\n      mstore\n        /* \"#utility.yul\":9396:9400   */\n      0x22\n        /* \"#utility.yul\":9393:9394   */\n      0x04\n        /* \"#utility.yul\":9386:9401   */\n      mstore\n        /* \"#utility.yul\":9424:9428   */\n      0x24\n        /* \"#utility.yul\":9421:9422   */\n      0x00\n        /* \"#utility.yul\":9414:9429   */\n      revert\n        /* \"#utility.yul\":9278:9439   */\n    tag_294:\n      pop\n        /* \"#utility.yul\":9065:9445   */\n      swap2\n      swap1\n      pop\n      jump\t// out\n        /* \"#utility.yul\":9450:9577   */\n    tag_283:\n        /* \"#utility.yul\":9511:9521   */\n      0x4e487b71\n        /* \"#utility.yul\":9506:9509   */\n      0xe0\n        /* \"#utility.yul\":9502:9522   */\n      shl\n        /* \"#utility.yul\":9499:9500   */\n      0x00\n        /* \"#utility.yul\":9492:9523   */\n      mstore\n        /* \"#utility.yul\":9542:9546   */\n      0x11\n        /* \"#utility.yul\":9539:9540   */\n      0x04\n        /* \"#utility.yul\":9532:9547   */\n      mstore\n        /* \"#utility.yul\":9566:9570   */\n      0x24\n        /* \"#utility.yul\":9563:9564   */\n      0x00\n        /* \"#utility.yul\":9556:9571   */\n      revert\n\n    auxdata: 0xa26469706673582212200d336c994b1aa7951747d58adb7b21eb5e9534086f482f83c1cb85c1b8f7408364736f6c63430008070033\n}\n",
				"bytecode": {
					"linkReferences": {},
					"object": "60806040523480156200001157600080fd5b506040516200121a3803806200121a83398101604081905262000034916200017d565b604080518082018252601881527f566f74696e67457363726f776564576176654c656e67746800000000000000006020808301918252835180850190945260068452651d9955d5931560d21b9084015281519192916200009791600391620000d7565b508051620000ad906004906020840190620000d7565b5050600580546001600160a01b0319166001600160a01b03939093169290921790915550620001ec565b828054620000e590620001af565b90600052602060002090601f01602090048101928262000109576000855562000154565b82601f106200012457805160ff191683800117855562000154565b8280016001018555821562000154579182015b828111156200015457825182559160200191906001019062000137565b506200016292915062000166565b5090565b5b8082111562000162576000815560010162000167565b6000602082840312156200019057600080fd5b81516001600160a01b0381168114620001a857600080fd5b9392505050565b600181811c90821680620001c457607f821691505b60208210811415620001e657634e487b7160e01b600052602260045260246000fd5b50919050565b61101e80620001fc6000396000f3fe608060405234801561001057600080fd5b50600436106100f55760003560e01c80633950935111610097578063a457c2d711610066578063a457c2d714610206578063a59f3e0c14610219578063a9059cbb1461022c578063dd62ed3e1461023f57600080fd5b806339509351146101af57806367dfd4c9146101c257806370a08231146101d557806395d89b41146101fe57600080fd5b806318160ddd116100d357806318160ddd1461015057806319d152fa1461016257806323b872dd1461018d578063313ce567146101a057600080fd5b806306fdde03146100fa578063095ea7b314610118578063139e41e41461013b575b600080fd5b610102610278565b60405161010f9190610ed2565b60405180910390f35b61012b610126366004610e54565b61030a565b604051901515815260200161010f565b61014e610149366004610ea0565b610320565b005b6002545b60405190815260200161010f565b600554610175906001600160a01b031681565b6040516001600160a01b03909116815260200161010f565b61012b61019b366004610e18565b6103e1565b6040516012815260200161010f565b61012b6101bd366004610e54565b610490565b61014e6101d0366004610ea0565b6104cc565b6101546101e3366004610dc3565b6001600160a01b031660009081526020819052604090205490565b610102610648565b61012b610214366004610e54565b610657565b61014e610227366004610ea0565b6106f0565b61012b61023a366004610e54565b610881565b61015461024d366004610de5565b6001600160a01b03918216600090815260016020908152604080832093909416825291909152205490565b60606003805461028790610f97565b80601f01602080910402602001604051908101604052809291908181526020018280546102b390610f97565b80156103005780601f106102d557610100808354040283529160200191610300565b820191906000526020600020905b8154815290600101906020018083116102e357829003601f168201915b5050505050905090565b600061031733848461088e565b50600192915050565b6005546040516323b872dd60e01b8152336004820152306024820152604481018390526001600160a01b03909116906323b872dd90606401602060405180830381600087803b15801561037257600080fd5b505af1158015610386573d6000803e3d6000fd5b505050506040513d601f19601f820116820180604052508101906103aa9190610e7e565b506040518181527f8345132cbbbde83001e783cdfdd5190dedc863ae82cae7abe302b22322a602749060200160405180910390a150565b60006103ee8484846109b3565b6001600160a01b0384166000908152600160209081526040808320338452909152902054828110156104785760405162461bcd60e51b815260206004820152602860248201527f45524332303a207472616e7366657220616d6f756e74206578636565647320616044820152676c6c6f77616e636560c01b60648201526084015b60405180910390fd5b610485853385840361088e565b506001949350505050565b3360008181526001602090815260408083206001600160a01b038716845290915281205490916103179185906104c7908690610f27565b61088e565b8015610645576005546040516370a0823160e01b81523060048201526000916001600160a01b0316906370a082319060240160206040518083038186803b15801561051657600080fd5b505afa15801561052a573d6000803e3d6000fd5b505050506040513d601f19601f8201168201806040525081019061054e9190610eb9565b9050600061055b60025490565b905060008161056a8486610f61565b6105749190610f3f565b90506105803385610b82565b60055460405163a9059cbb60e01b8152336004820152602481018390526001600160a01b039091169063a9059cbb90604401602060405180830381600087803b1580156105cc57600080fd5b505af11580156105e0573d6000803e3d6000fd5b505050506040513d601f19601f820116820180604052508101906106049190610e7e565b50604080518281526020810186905233917f0f0f7f8153c6d63a5696720d4cc434e56bb5ac1cf8c791ed9c180defb6e9215391015b60405180910390a25050505b50565b60606004805461028790610f97565b3360009081526001602090815260408083206001600160a01b0386168452909152812054828110156106d95760405162461bcd60e51b815260206004820152602560248201527f45524332303a2064656372656173656420616c6c6f77616e63652062656c6f77604482015264207a65726f60d81b606482015260840161046f565b6106e6338585840361088e565b5060019392505050565b8015610645576005546040516370a0823160e01b81523060048201526000916001600160a01b0316906370a082319060240160206040518083038186803b15801561073a57600080fd5b505afa15801561074e573d6000803e3d6000fd5b505050506040513d601f19601f820116820180604052508101906107729190610eb9565b9050600061077f60025490565b6005546040516323b872dd60e01b8152336004820152306024820152604481018690529192506001600160a01b0316906323b872dd90606401602060405180830381600087803b1580156107d257600080fd5b505af11580156107e6573d6000803e3d6000fd5b505050506040513d601f19601f8201168201806040525081019061080a9190610e7e565b506000811580610818575082155b1561082457508261083f565b6000836108318487610f61565b61083b9190610f3f565b9150505b6108493382610cc8565b604080518581526020810183905233917f5087fbec8bdd9b358f62d89babb5f4dd44f8576230a9520c90e3407d6f4dd1fb9101610639565b60006103173384846109b3565b6001600160a01b0383166108f05760405162461bcd60e51b8152602060048201526024808201527f45524332303a20617070726f76652066726f6d20746865207a65726f206164646044820152637265737360e01b606482015260840161046f565b6001600160a01b0382166109515760405162461bcd60e51b815260206004820152602260248201527f45524332303a20617070726f766520746f20746865207a65726f206164647265604482015261737360f01b606482015260840161046f565b6001600160a01b0383811660008181526001602090815260408083209487168084529482529182902085905590518481527f8c5be1e5ebec7d5bd14f71427d1e84f3dd0314c0f7b2291e5b200ac8c7c3b92591015b60405180910390a3505050565b6001600160a01b038316610a175760405162461bcd60e51b815260206004820152602560248201527f45524332303a207472616e736665722066726f6d20746865207a65726f206164604482015264647265737360d81b606482015260840161046f565b6001600160a01b038216610a795760405162461bcd60e51b815260206004820152602360248201527f45524332303a207472616e7366657220746f20746865207a65726f206164647260448201526265737360e81b606482015260840161046f565b6001600160a01b03831660009081526020819052604090205481811015610af15760405162461bcd60e51b815260206004820152602660248201527f45524332303a207472616e7366657220616d6f756e7420657863656564732062604482015265616c616e636560d01b606482015260840161046f565b6001600160a01b03808516600090815260208190526040808220858503905591851681529081208054849290610b28908490610f27565b92505081905550826001600160a01b0316846001600160a01b03167fddf252ad1be2c89b69c2b068fc378daa952ba7f163c4a11628f55a4df523b3ef84604051610b7491815260200190565b60405180910390a350505050565b6001600160a01b038216610be25760405162461bcd60e51b815260206004820152602160248201527f45524332303a206275726e2066726f6d20746865207a65726f206164647265736044820152607360f81b606482015260840161046f565b6001600160a01b03821660009081526020819052604090205481811015610c565760405162461bcd60e51b815260206004820152602260248201527f45524332303a206275726e20616d6f756e7420657863656564732062616c616e604482015261636560f01b606482015260840161046f565b6001600160a01b0383166000908152602081905260408120838303905560028054849290610c85908490610f80565b90915550506040518281526000906001600160a01b038516907fddf252ad1be2c89b69c2b068fc378daa952ba7f163c4a11628f55a4df523b3ef906020016109a6565b6001600160a01b038216610d1e5760405162461bcd60e51b815260206004820152601f60248201527f45524332303a206d696e7420746f20746865207a65726f206164647265737300604482015260640161046f565b8060026000828254610d309190610f27565b90915550506001600160a01b03821660009081526020819052604081208054839290610d5d908490610f27565b90915550506040518181526001600160a01b038316906000907fddf252ad1be2c89b69c2b068fc378daa952ba7f163c4a11628f55a4df523b3ef9060200160405180910390a35050565b80356001600160a01b0381168114610dbe57600080fd5b919050565b600060208284031215610dd557600080fd5b610dde82610da7565b9392505050565b60008060408385031215610df857600080fd5b610e0183610da7565b9150610e0f60208401610da7565b90509250929050565b600080600060608486031215610e2d57600080fd5b610e3684610da7565b9250610e4460208501610da7565b9150604084013590509250925092565b60008060408385031215610e6757600080fd5b610e7083610da7565b946020939093013593505050565b600060208284031215610e9057600080fd5b81518015158114610dde57600080fd5b600060208284031215610eb257600080fd5b5035919050565b600060208284031215610ecb57600080fd5b5051919050565b600060208083528351808285015260005b81811015610eff57858101830151858201604001528201610ee3565b81811115610f11576000604083870101525b50601f01601f1916929092016040019392505050565b60008219821115610f3a57610f3a610fd2565b500190565b600082610f5c57634e487b7160e01b600052601260045260246000fd5b500490565b6000816000190483118215151615610f7b57610f7b610fd2565b500290565b600082821015610f9257610f92610fd2565b500390565b600181811c90821680610fab57607f821691505b60208210811415610fcc57634e487b7160e01b600052602260045260246000fd5b50919050565b634e487b7160e01b600052601160045260246000fdfea26469706673582212200d336c994b1aa7951747d58adb7b21eb5e9534086f482f83c1cb85c1b8f7408364736f6c63430008070033",
					"opcodes": "PUSH1 0x80 PUSH1 0x40 MSTORE CALLVALUE DUP1 ISZERO PUSH3 0x11 JUMPI PUSH1 0x0 DUP1 REVERT JUMPDEST POP PUSH1 0x40 MLOAD PUSH3 0x121A CODESIZE SUB DUP1 PUSH3 0x121A DUP4 CODECOPY DUP2 ADD PUSH1 0x40 DUP2 SWAP1 MSTORE PUSH3 0x34 SWAP2 PUSH3 0x17D JUMP JUMPDEST PUSH1 0x40 DUP1 MLOAD DUP1 DUP3 ADD DUP3 MSTORE PUSH1 0x18 DUP2 MSTORE PUSH32 0x566F74696E67457363726F776564576176654C656E6774680000000000000000 PUSH1 0x20 DUP1 DUP4 ADD SWAP2 DUP3 MSTORE DUP4 MLOAD DUP1 DUP6 ADD SWAP1 SWAP5 MSTORE PUSH1 0x6 DUP5 MSTORE PUSH6 0x1D9955D59315 PUSH1 0xD2 SHL SWAP1 DUP5 ADD MSTORE DUP2 MLOAD SWAP2 SWAP3 SWAP2 PUSH3 0x97 SWAP2 PUSH1 0x3 SWAP2 PUSH3 0xD7 JUMP JUMPDEST POP DUP1 MLOAD PUSH3 0xAD SWAP1 PUSH1 0x4 SWAP1 PUSH1 0x20 DUP5 ADD SWAP1 PUSH3 0xD7 JUMP JUMPDEST POP POP PUSH1 0x5 DUP1 SLOAD PUSH1 0x1 PUSH1 0x1 PUSH1 0xA0 SHL SUB NOT AND PUSH1 0x1 PUSH1 0x1 PUSH1 0xA0 SHL SUB SWAP4 SWAP1 SWAP4 AND SWAP3 SWAP1 SWAP3 OR SWAP1 SWAP2 SSTORE POP PUSH3 0x1EC JUMP JUMPDEST DUP3 DUP1 SLOAD PUSH3 0xE5 SWAP1 PUSH3 0x1AF JUMP JUMPDEST SWAP1 PUSH1 0x0 MSTORE PUSH1 0x20 PUSH1 0x0 KECCAK256 SWAP1 PUSH1 0x1F ADD PUSH1 0x20 SWAP1 DIV DUP2 ADD SWAP3 DUP3 PUSH3 0x109 JUMPI PUSH1 0x0 DUP6 SSTORE PUSH3 0x154 JUMP JUMPDEST DUP3 PUSH1 0x1F LT PUSH3 0x124 JUMPI DUP1 MLOAD PUSH1 0xFF NOT AND DUP4 DUP1 ADD OR DUP6 SSTORE PUSH3 0x154 JUMP JUMPDEST DUP3 DUP1 ADD PUSH1 0x1 ADD DUP6 SSTORE DUP3 ISZERO PUSH3 0x154 JUMPI SWAP2 DUP3 ADD JUMPDEST DUP3 DUP2 GT ISZERO PUSH3 0x154 JUMPI DUP3 MLOAD DUP3 SSTORE SWAP2 PUSH1 0x20 ADD SWAP2 SWAP1 PUSH1 0x1 ADD SWAP1 PUSH3 0x137 JUMP JUMPDEST POP PUSH3 0x162 SWAP3 SWAP2 POP PUSH3 0x166 JUMP JUMPDEST POP SWAP1 JUMP JUMPDEST JUMPDEST DUP1 DUP3 GT ISZERO PUSH3 0x162 JUMPI PUSH1 0x0 DUP2 SSTORE PUSH1 0x1 ADD PUSH3 0x167 JUMP JUMPDEST PUSH1 0x0 PUSH1 0x20 DUP3 DUP5 SUB SLT ISZERO PUSH3 0x190 JUMPI PUSH1 0x0 DUP1 REVERT JUMPDEST DUP2 MLOAD PUSH1 0x1 PUSH1 0x1 PUSH1 0xA0 SHL SUB DUP2 AND DUP2 EQ PUSH3 0x1A8 JUMPI PUSH1 0x0 DUP1 REVERT JUMPDEST SWAP4 SWAP3 POP POP POP JUMP JUMPDEST PUSH1 0x1 DUP2 DUP2 SHR SWAP1 DUP3 AND DUP1 PUSH3 0x1C4 JUMPI PUSH1 0x7F DUP3 AND SWAP2 POP JUMPDEST PUSH1 0x20 DUP3 LT DUP2 EQ ISZERO PUSH3 0x1E6 JUMPI PUSH4 0x4E487B71 PUSH1 0xE0 SHL PUSH1 0x0 MSTORE PUSH1 0x22 PUSH1 0x4 MSTORE PUSH1 0x24 PUSH1 0x0 REVERT JUMPDEST POP SWAP2 SWAP1 POP JUMP JUMPDEST PUSH2 0x101E DUP1 PUSH3 0x1FC PUSH1 0x0 CODECOPY PUSH1 0x0 RETURN INVALID PUSH1 0x80 PUSH1 0x40 MSTORE CALLVALUE DUP1 ISZERO PUSH2 0x10 JUMPI PUSH1 0x0 DUP1 REVERT JUMPDEST POP PUSH1 0x4 CALLDATASIZE LT PUSH2 0xF5 JUMPI PUSH1 0x0 CALLDATALOAD PUSH1 0xE0 SHR DUP1 PUSH4 0x39509351 GT PUSH2 0x97 JUMPI DUP1 PUSH4 0xA457C2D7 GT PUSH2 0x66 JUMPI DUP1 PUSH4 0xA457C2D7 EQ PUSH2 0x206 JUMPI DUP1 PUSH4 0xA59F3E0C EQ PUSH2 0x219 JUMPI DUP1 PUSH4 0xA9059CBB EQ PUSH2 0x22C JUMPI DUP1 PUSH4 0xDD62ED3E EQ PUSH2 0x23F JUMPI PUSH1 0x0 DUP1 REVERT JUMPDEST DUP1 PUSH4 0x39509351 EQ PUSH2 0x1AF JUMPI DUP1 PUSH4 0x67DFD4C9 EQ PUSH2 0x1C2 JUMPI DUP1 PUSH4 0x70A08231 EQ PUSH2 0x1D5 JUMPI DUP1 PUSH4 0x95D89B41 EQ PUSH2 0x1FE JUMPI PUSH1 0x0 DUP1 REVERT JUMPDEST DUP1 PUSH4 0x18160DDD GT PUSH2 0xD3 JUMPI DUP1 PUSH4 0x18160DDD EQ PUSH2 0x150 JUMPI DUP1 PUSH4 0x19D152FA EQ PUSH2 0x162 JUMPI DUP1 PUSH4 0x23B872DD EQ PUSH2 0x18D JUMPI DUP1 PUSH4 0x313CE567 EQ PUSH2 0x1A0 JUMPI PUSH1 0x0 DUP1 REVERT JUMPDEST DUP1 PUSH4 0x6FDDE03 EQ PUSH2 0xFA JUMPI DUP1 PUSH4 0x95EA7B3 EQ PUSH2 0x118 JUMPI DUP1 PUSH4 0x139E41E4 EQ PUSH2 0x13B JUMPI JUMPDEST PUSH1 0x0 DUP1 REVERT JUMPDEST PUSH2 0x102 PUSH2 0x278 JUMP JUMPDEST PUSH1 0x40 MLOAD PUSH2 0x10F SWAP2 SWAP1 PUSH2 0xED2 JUMP JUMPDEST PUSH1 0x40 MLOAD DUP1 SWAP2 SUB SWAP1 RETURN JUMPDEST PUSH2 0x12B PUSH2 0x126 CALLDATASIZE PUSH1 0x4 PUSH2 0xE54 JUMP JUMPDEST PUSH2 0x30A JUMP JUMPDEST PUSH1 0x40 MLOAD SWAP1 ISZERO ISZERO DUP2 MSTORE PUSH1 0x20 ADD PUSH2 0x10F JUMP JUMPDEST PUSH2 0x14E PUSH2 0x149 CALLDATASIZE PUSH1 0x4 PUSH2 0xEA0 JUMP JUMPDEST PUSH2 0x320 JUMP JUMPDEST STOP JUMPDEST PUSH1 0x2 SLOAD JUMPDEST PUSH1 0x40 MLOAD SWAP1 DUP2 MSTORE PUSH1 0x20 ADD PUSH2 0x10F JUMP JUMPDEST PUSH1 0x5 SLOAD PUSH2 0x175 SWAP1 PUSH1 0x1 PUSH1 0x1 PUSH1 0xA0 SHL SUB AND DUP2 JUMP JUMPDEST PUSH1 0x40 MLOAD PUSH1 0x1 PUSH1 0x1 PUSH1 0xA0 SHL SUB SWAP1 SWAP2 AND DUP2 MSTORE PUSH1 0x20 ADD PUSH2 0x10F JUMP JUMPDEST PUSH2 0x12B PUSH2 0x19B CALLDATASIZE PUSH1 0x4 PUSH2 0xE18 JUMP JUMPDEST PUSH2 0x3E1 JUMP JUMPDEST PUSH1 0x40 MLOAD PUSH1 0x12 DUP2 MSTORE PUSH1 0x20 ADD PUSH2 0x10F JUMP JUMPDEST PUSH2 0x12B PUSH2 0x1BD CALLDATASIZE PUSH1 0x4 PUSH2 0xE54 JUMP JUMPDEST PUSH2 0x490 JUMP JUMPDEST PUSH2 0x14E PUSH2 0x1D0 CALLDATASIZE PUSH1 0x4 PUSH2 0xEA0 JUMP JUMPDEST PUSH2 0x4CC JUMP JUMPDEST PUSH2 0x154 PUSH2 0x1E3 CALLDATASIZE PUSH1 0x4 PUSH2 0xDC3 JUMP JUMPDEST PUSH1 0x1 PUSH1 0x1 PUSH1 0xA0 SHL SUB AND PUSH1 0x0 SWAP1 DUP2 MSTORE PUSH1 0x20 DUP2 SWAP1 MSTORE PUSH1 0x40 SWAP1 KECCAK256 SLOAD SWAP1 JUMP JUMPDEST PUSH2 0x102 PUSH2 0x648 JUMP JUMPDEST PUSH2 0x12B PUSH2 0x214 CALLDATASIZE PUSH1 0x4 PUSH2 0xE54 JUMP JUMPDEST PUSH2 0x657 JUMP JUMPDEST PUSH2 0x14E PUSH2 0x227 CALLDATASIZE PUSH1 0x4 PUSH2 0xEA0 JUMP JUMPDEST PUSH2 0x6F0 JUMP JUMPDEST PUSH2 0x12B PUSH2 0x23A CALLDATASIZE PUSH1 0x4 PUSH2 0xE54 JUMP JUMPDEST PUSH2 0x881 JUMP JUMPDEST PUSH2 0x154 PUSH2 0x24D CALLDATASIZE PUSH1 0x4 PUSH2 0xDE5 JUMP JUMPDEST PUSH1 0x1 PUSH1 0x1 PUSH1 0xA0 SHL SUB SWAP2 DUP3 AND PUSH1 0x0 SWAP1 DUP2 MSTORE PUSH1 0x1 PUSH1 0x20 SWAP1 DUP2 MSTORE PUSH1 0x40 DUP1 DUP4 KECCAK256 SWAP4 SWAP1 SWAP5 AND DUP3 MSTORE SWAP2 SWAP1 SWAP2 MSTORE KECCAK256 SLOAD SWAP1 JUMP JUMPDEST PUSH1 0x60 PUSH1 0x3 DUP1 SLOAD PUSH2 0x287 SWAP1 PUSH2 0xF97 JUMP JUMPDEST DUP1 PUSH1 0x1F ADD PUSH1 0x20 DUP1 SWAP2 DIV MUL PUSH1 0x20 ADD PUSH1 0x40 MLOAD SWAP1 DUP2 ADD PUSH1 0x40 MSTORE DUP1 SWAP3 SWAP2 SWAP1 DUP2 DUP2 MSTORE PUSH1 0x20 ADD DUP3 DUP1 SLOAD PUSH2 0x2B3 SWAP1 PUSH2 0xF97 JUMP JUMPDEST DUP1 ISZERO PUSH2 0x300 JUMPI DUP1 PUSH1 0x1F LT PUSH2 0x2D5 JUMPI PUSH2 0x100 DUP1 DUP4 SLOAD DIV MUL DUP4 MSTORE SWAP2 PUSH1 0x20 ADD SWAP2 PUSH2 0x300 JUMP JUMPDEST DUP3 ADD SWAP2 SWAP1 PUSH1 0x0 MSTORE PUSH1 0x20 PUSH1 0x0 KECCAK256 SWAP1 JUMPDEST DUP2 SLOAD DUP2 MSTORE SWAP1 PUSH1 0x1 ADD SWAP1 PUSH1 0x20 ADD DUP1 DUP4 GT PUSH2 0x2E3 JUMPI DUP3 SWAP1 SUB PUSH1 0x1F AND DUP3 ADD SWAP2 JUMPDEST POP POP POP POP POP SWAP1 POP SWAP1 JUMP JUMPDEST PUSH1 0x0 PUSH2 0x317 CALLER DUP5 DUP5 PUSH2 0x88E JUMP JUMPDEST POP PUSH1 0x1 SWAP3 SWAP2 POP POP JUMP JUMPDEST PUSH1 0x5 SLOAD PUSH1 0x40 MLOAD PUSH4 0x23B872DD PUSH1 0xE0 SHL DUP2 MSTORE CALLER PUSH1 0x4 DUP3 ADD MSTORE ADDRESS PUSH1 0x24 DUP3 ADD MSTORE PUSH1 0x44 DUP2 ADD DUP4 SWAP1 MSTORE PUSH1 0x1 PUSH1 0x1 PUSH1 0xA0 SHL SUB SWAP1 SWAP2 AND SWAP1 PUSH4 0x23B872DD SWAP1 PUSH1 0x64 ADD PUSH1 0x20 PUSH1 0x40 MLOAD DUP1 DUP4 SUB DUP2 PUSH1 0x0 DUP8 DUP1 EXTCODESIZE ISZERO DUP1 ISZERO PUSH2 0x372 JUMPI PUSH1 0x0 DUP1 REVERT JUMPDEST POP GAS CALL ISZERO DUP1 ISZERO PUSH2 0x386 JUMPI RETURNDATASIZE PUSH1 0x0 DUP1 RETURNDATACOPY RETURNDATASIZE PUSH1 0x0 REVERT JUMPDEST POP POP POP POP PUSH1 0x40 MLOAD RETURNDATASIZE PUSH1 0x1F NOT PUSH1 0x1F DUP3 ADD AND DUP3 ADD DUP1 PUSH1 0x40 MSTORE POP DUP2 ADD SWAP1 PUSH2 0x3AA SWAP2 SWAP1 PUSH2 0xE7E JUMP JUMPDEST POP PUSH1 0x40 MLOAD DUP2 DUP2 MSTORE PUSH32 0x8345132CBBBDE83001E783CDFDD5190DEDC863AE82CAE7ABE302B22322A60274 SWAP1 PUSH1 0x20 ADD PUSH1 0x40 MLOAD DUP1 SWAP2 SUB SWAP1 LOG1 POP JUMP JUMPDEST PUSH1 0x0 PUSH2 0x3EE DUP5 DUP5 DUP5 PUSH2 0x9B3 JUMP JUMPDEST PUSH1 0x1 PUSH1 0x1 PUSH1 0xA0 SHL SUB DUP5 AND PUSH1 0x0 SWAP1 DUP2 MSTORE PUSH1 0x1 PUSH1 0x20 SWAP1 DUP2 MSTORE PUSH1 0x40 DUP1 DUP4 KECCAK256 CALLER DUP5 MSTORE SWAP1 SWAP2 MSTORE SWAP1 KECCAK256 SLOAD DUP3 DUP2 LT ISZERO PUSH2 0x478 JUMPI PUSH1 0x40 MLOAD PUSH3 0x461BCD PUSH1 0xE5 SHL DUP2 MSTORE PUSH1 0x20 PUSH1 0x4 DUP3 ADD MSTORE PUSH1 0x28 PUSH1 0x24 DUP3 ADD MSTORE PUSH32 0x45524332303A207472616E7366657220616D6F756E7420657863656564732061 PUSH1 0x44 DUP3 ADD MSTORE PUSH8 0x6C6C6F77616E6365 PUSH1 0xC0 SHL PUSH1 0x64 DUP3 ADD MSTORE PUSH1 0x84 ADD JUMPDEST PUSH1 0x40 MLOAD DUP1 SWAP2 SUB SWAP1 REVERT JUMPDEST PUSH2 0x485 DUP6 CALLER DUP6 DUP5 SUB PUSH2 0x88E JUMP JUMPDEST POP PUSH1 0x1 SWAP5 SWAP4 POP POP POP POP JUMP JUMPDEST CALLER PUSH1 0x0 DUP2 DUP2 MSTORE PUSH1 0x1 PUSH1 0x20 SWAP1 DUP2 MSTORE PUSH1 0x40 DUP1 DUP4 KECCAK256 PUSH1 0x1 PUSH1 0x1 PUSH1 0xA0 SHL SUB DUP8 AND DUP5 MSTORE SWAP1 SWAP2 MSTORE DUP2 KECCAK256 SLOAD SWAP1 SWAP2 PUSH2 0x317 SWAP2 DUP6 SWAP1 PUSH2 0x4C7 SWAP1 DUP7 SWAP1 PUSH2 0xF27 JUMP JUMPDEST PUSH2 0x88E JUMP JUMPDEST DUP1 ISZERO PUSH2 0x645 JUMPI PUSH1 0x5 SLOAD PUSH1 0x40 MLOAD PUSH4 0x70A08231 PUSH1 0xE0 SHL DUP2 MSTORE ADDRESS PUSH1 0x4 DUP3 ADD MSTORE PUSH1 0x0 SWAP2 PUSH1 0x1 PUSH1 0x1 PUSH1 0xA0 SHL SUB AND SWAP1 PUSH4 0x70A08231 SWAP1 PUSH1 0x24 ADD PUSH1 0x20 PUSH1 0x40 MLOAD DUP1 DUP4 SUB DUP2 DUP7 DUP1 EXTCODESIZE ISZERO DUP1 ISZERO PUSH2 0x516 JUMPI PUSH1 0x0 DUP1 REVERT JUMPDEST POP GAS STATICCALL ISZERO DUP1 ISZERO PUSH2 0x52A JUMPI RETURNDATASIZE PUSH1 0x0 DUP1 RETURNDATACOPY RETURNDATASIZE PUSH1 0x0 REVERT JUMPDEST POP POP POP POP PUSH1 0x40 MLOAD RETURNDATASIZE PUSH1 0x1F NOT PUSH1 0x1F DUP3 ADD AND DUP3 ADD DUP1 PUSH1 0x40 MSTORE POP DUP2 ADD SWAP1 PUSH2 0x54E SWAP2 SWAP1 PUSH2 0xEB9 JUMP JUMPDEST SWAP1 POP PUSH1 0x0 PUSH2 0x55B PUSH1 0x2 SLOAD SWAP1 JUMP JUMPDEST SWAP1 POP PUSH1 0x0 DUP2 PUSH2 0x56A DUP5 DUP7 PUSH2 0xF61 JUMP JUMPDEST PUSH2 0x574 SWAP2 SWAP1 PUSH2 0xF3F JUMP JUMPDEST SWAP1 POP PUSH2 0x580 CALLER DUP6 PUSH2 0xB82 JUMP JUMPDEST PUSH1 0x5 SLOAD PUSH1 0x40 MLOAD PUSH4 0xA9059CBB PUSH1 0xE0 SHL DUP2 MSTORE CALLER PUSH1 0x4 DUP3 ADD MSTORE PUSH1 0x24 DUP2 ADD DUP4 SWAP1 MSTORE PUSH1 0x1 PUSH1 0x1 PUSH1 0xA0 SHL SUB SWAP1 SWAP2 AND SWAP1 PUSH4 0xA9059CBB SWAP1 PUSH1 0x44 ADD PUSH1 0x20 PUSH1 0x40 MLOAD DUP1 DUP4 SUB DUP2 PUSH1 0x0 DUP8 DUP1 EXTCODESIZE ISZERO DUP1 ISZERO PUSH2 0x5CC JUMPI PUSH1 0x0 DUP1 REVERT JUMPDEST POP GAS CALL ISZERO DUP1 ISZERO PUSH2 0x5E0 JUMPI RETURNDATASIZE PUSH1 0x0 DUP1 RETURNDATACOPY RETURNDATASIZE PUSH1 0x0 REVERT JUMPDEST POP POP POP POP PUSH1 0x40 MLOAD RETURNDATASIZE PUSH1 0x1F NOT PUSH1 0x1F DUP3 ADD AND DUP3 ADD DUP1 PUSH1 0x40 MSTORE POP DUP2 ADD SWAP1 PUSH2 0x604 SWAP2 SWAP1 PUSH2 0xE7E JUMP JUMPDEST POP PUSH1 0x40 DUP1 MLOAD DUP3 DUP2 MSTORE PUSH1 0x20 DUP2 ADD DUP7 SWAP1 MSTORE CALLER SWAP2 PUSH32 0xF0F7F8153C6D63A5696720D4CC434E56BB5AC1CF8C791ED9C180DEFB6E92153 SWAP2 ADD JUMPDEST PUSH1 0x40 MLOAD DUP1 SWAP2 SUB SWAP1 LOG2 POP POP POP JUMPDEST POP JUMP JUMPDEST PUSH1 0x60 PUSH1 0x4 DUP1 SLOAD PUSH2 0x287 SWAP1 PUSH2 0xF97 JUMP JUMPDEST CALLER PUSH1 0x0 SWAP1 DUP2 MSTORE PUSH1 0x1 PUSH1 0x20 SWAP1 DUP2 MSTORE PUSH1 0x40 DUP1 DUP4 KECCAK256 PUSH1 0x1 PUSH1 0x1 PUSH1 0xA0 SHL SUB DUP7 AND DUP5 MSTORE SWAP1 SWAP2 MSTORE DUP2 KECCAK256 SLOAD DUP3 DUP2 LT ISZERO PUSH2 0x6D9 JUMPI PUSH1 0x40 MLOAD PUSH3 0x461BCD PUSH1 0xE5 SHL DUP2 MSTORE PUSH1 0x20 PUSH1 0x4 DUP3 ADD MSTORE PUSH1 0x25 PUSH1 0x24 DUP3 ADD MSTORE PUSH32 0x45524332303A2064656372656173656420616C6C6F77616E63652062656C6F77 PUSH1 0x44 DUP3 ADD MSTORE PUSH5 0x207A65726F PUSH1 0xD8 SHL PUSH1 0x64 DUP3 ADD MSTORE PUSH1 0x84 ADD PUSH2 0x46F JUMP JUMPDEST PUSH2 0x6E6 CALLER DUP6 DUP6 DUP5 SUB PUSH2 0x88E JUMP JUMPDEST POP PUSH1 0x1 SWAP4 SWAP3 POP POP POP JUMP JUMPDEST DUP1 ISZERO PUSH2 0x645 JUMPI PUSH1 0x5 SLOAD PUSH1 0x40 MLOAD PUSH4 0x70A08231 PUSH1 0xE0 SHL DUP2 MSTORE ADDRESS PUSH1 0x4 DUP3 ADD MSTORE PUSH1 0x0 SWAP2 PUSH1 0x1 PUSH1 0x1 PUSH1 0xA0 SHL SUB AND SWAP1 PUSH4 0x70A08231 SWAP1 PUSH1 0x24 ADD PUSH1 0x20 PUSH1 0x40 MLOAD DUP1 DUP4 SUB DUP2 DUP7 DUP1 EXTCODESIZE ISZERO DUP1 ISZERO PUSH2 0x73A JUMPI PUSH1 0x0 DUP1 REVERT JUMPDEST POP GAS STATICCALL ISZERO DUP1 ISZERO PUSH2 0x74E JUMPI RETURNDATASIZE PUSH1 0x0 DUP1 RETURNDATACOPY RETURNDATASIZE PUSH1 0x0 REVERT JUMPDEST POP POP POP POP PUSH1 0x40 MLOAD RETURNDATASIZE PUSH1 0x1F NOT PUSH1 0x1F DUP3 ADD AND DUP3 ADD DUP1 PUSH1 0x40 MSTORE POP DUP2 ADD SWAP1 PUSH2 0x772 SWAP2 SWAP1 PUSH2 0xEB9 JUMP JUMPDEST SWAP1 POP PUSH1 0x0 PUSH2 0x77F PUSH1 0x2 SLOAD SWAP1 JUMP JUMPDEST PUSH1 0x5 SLOAD PUSH1 0x40 MLOAD PUSH4 0x23B872DD PUSH1 0xE0 SHL DUP2 MSTORE CALLER PUSH1 0x4 DUP3 ADD MSTORE ADDRESS PUSH1 0x24 DUP3 ADD MSTORE PUSH1 0x44 DUP2 ADD DUP7 SWAP1 MSTORE SWAP2 SWAP3 POP PUSH1 0x1 PUSH1 0x1 PUSH1 0xA0 SHL SUB AND SWAP1 PUSH4 0x23B872DD SWAP1 PUSH1 0x64 ADD PUSH1 0x20 PUSH1 0x40 MLOAD DUP1 DUP4 SUB DUP2 PUSH1 0x0 DUP8 DUP1 EXTCODESIZE ISZERO DUP1 ISZERO PUSH2 0x7D2 JUMPI PUSH1 0x0 DUP1 REVERT JUMPDEST POP GAS CALL ISZERO DUP1 ISZERO PUSH2 0x7E6 JUMPI RETURNDATASIZE PUSH1 0x0 DUP1 RETURNDATACOPY RETURNDATASIZE PUSH1 0x0 REVERT JUMPDEST POP POP POP POP PUSH1 0x40 MLOAD RETURNDATASIZE PUSH1 0x1F NOT PUSH1 0x1F DUP3 ADD AND DUP3 ADD DUP1 PUSH1 0x40 MSTORE POP DUP2 ADD SWAP1 PUSH2 0x80A SWAP2 SWAP1 PUSH2 0xE7E JUMP JUMPDEST POP PUSH1 0x0 DUP2 ISZERO DUP1 PUSH2 0x818 JUMPI POP DUP3 ISZERO JUMPDEST ISZERO PUSH2 0x824 JUMPI POP DUP3 PUSH2 0x83F JUMP JUMPDEST PUSH1 0x0 DUP4 PUSH2 0x831 DUP5 DUP8 PUSH2 0xF61 JUMP JUMPDEST PUSH2 0x83B SWAP2 SWAP1 PUSH2 0xF3F JUMP JUMPDEST SWAP2 POP POP JUMPDEST PUSH2 0x849 CALLER DUP3 PUSH2 0xCC8 JUMP JUMPDEST PUSH1 0x40 DUP1 MLOAD DUP6 DUP2 MSTORE PUSH1 0x20 DUP2 ADD DUP4 SWAP1 MSTORE CALLER SWAP2 PUSH32 0x5087FBEC8BDD9B358F62D89BABB5F4DD44F8576230A9520C90E3407D6F4DD1FB SWAP2 ADD PUSH2 0x639 JUMP JUMPDEST PUSH1 0x0 PUSH2 0x317 CALLER DUP5 DUP5 PUSH2 0x9B3 JUMP JUMPDEST PUSH1 0x1 PUSH1 0x1 PUSH1 0xA0 SHL SUB DUP4 AND PUSH2 0x8F0 JUMPI PUSH1 0x40 MLOAD PUSH3 0x461BCD PUSH1 0xE5 SHL DUP2 MSTORE PUSH1 0x20 PUSH1 0x4 DUP3 ADD MSTORE PUSH1 0x24 DUP1 DUP3 ADD MSTORE PUSH32 0x45524332303A20617070726F76652066726F6D20746865207A65726F20616464 PUSH1 0x44 DUP3 ADD MSTORE PUSH4 0x72657373 PUSH1 0xE0 SHL PUSH1 0x64 DUP3 ADD MSTORE PUSH1 0x84 ADD PUSH2 0x46F JUMP JUMPDEST PUSH1 0x1 PUSH1 0x1 PUSH1 0xA0 SHL SUB DUP3 AND PUSH2 0x951 JUMPI PUSH1 0x40 MLOAD PUSH3 0x461BCD PUSH1 0xE5 SHL DUP2 MSTORE PUSH1 0x20 PUSH1 0x4 DUP3 ADD MSTORE PUSH1 0x22 PUSH1 0x24 DUP3 ADD MSTORE PUSH32 0x45524332303A20617070726F766520746F20746865207A65726F206164647265 PUSH1 0x44 DUP3 ADD MSTORE PUSH2 0x7373 PUSH1 0xF0 SHL PUSH1 0x64 DUP3 ADD MSTORE PUSH1 0x84 ADD PUSH2 0x46F JUMP JUMPDEST PUSH1 0x1 PUSH1 0x1 PUSH1 0xA0 SHL SUB DUP4 DUP2 AND PUSH1 0x0 DUP2 DUP2 MSTORE PUSH1 0x1 PUSH1 0x20 SWAP1 DUP2 MSTORE PUSH1 0x40 DUP1 DUP4 KECCAK256 SWAP5 DUP8 AND DUP1 DUP5 MSTORE SWAP5 DUP3 MSTORE SWAP2 DUP3 SWAP1 KECCAK256 DUP6 SWAP1 SSTORE SWAP1 MLOAD DUP5 DUP2 MSTORE PUSH32 0x8C5BE1E5EBEC7D5BD14F71427D1E84F3DD0314C0F7B2291E5B200AC8C7C3B925 SWAP2 ADD JUMPDEST PUSH1 0x40 MLOAD DUP1 SWAP2 SUB SWAP1 LOG3 POP POP POP JUMP JUMPDEST PUSH1 0x1 PUSH1 0x1 PUSH1 0xA0 SHL SUB DUP4 AND PUSH2 0xA17 JUMPI PUSH1 0x40 MLOAD PUSH3 0x461BCD PUSH1 0xE5 SHL DUP2 MSTORE PUSH1 0x20 PUSH1 0x4 DUP3 ADD MSTORE PUSH1 0x25 PUSH1 0x24 DUP3 ADD MSTORE PUSH32 0x45524332303A207472616E736665722066726F6D20746865207A65726F206164 PUSH1 0x44 DUP3 ADD MSTORE PUSH5 0x6472657373 PUSH1 0xD8 SHL PUSH1 0x64 DUP3 ADD MSTORE PUSH1 0x84 ADD PUSH2 0x46F JUMP JUMPDEST PUSH1 0x1 PUSH1 0x1 PUSH1 0xA0 SHL SUB DUP3 AND PUSH2 0xA79 JUMPI PUSH1 0x40 MLOAD PUSH3 0x461BCD PUSH1 0xE5 SHL DUP2 MSTORE PUSH1 0x20 PUSH1 0x4 DUP3 ADD MSTORE PUSH1 0x23 PUSH1 0x24 DUP3 ADD MSTORE PUSH32 0x45524332303A207472616E7366657220746F20746865207A65726F2061646472 PUSH1 0x44 DUP3 ADD MSTORE PUSH3 0x657373 PUSH1 0xE8 SHL PUSH1 0x64 DUP3 ADD MSTORE PUSH1 0x84 ADD PUSH2 0x46F JUMP JUMPDEST PUSH1 0x1 PUSH1 0x1 PUSH1 0xA0 SHL SUB DUP4 AND PUSH1 0x0 SWAP1 DUP2 MSTORE PUSH1 0x20 DUP2 SWAP1 MSTORE PUSH1 0x40 SWAP1 KECCAK256 SLOAD DUP2 DUP2 LT ISZERO PUSH2 0xAF1 JUMPI PUSH1 0x40 MLOAD PUSH3 0x461BCD PUSH1 0xE5 SHL DUP2 MSTORE PUSH1 0x20 PUSH1 0x4 DUP3 ADD MSTORE PUSH1 0x26 PUSH1 0x24 DUP3 ADD MSTORE PUSH32 0x45524332303A207472616E7366657220616D6F756E7420657863656564732062 PUSH1 0x44 DUP3 ADD MSTORE PUSH6 0x616C616E6365 PUSH1 0xD0 SHL PUSH1 0x64 DUP3 ADD MSTORE PUSH1 0x84 ADD PUSH2 0x46F JUMP JUMPDEST PUSH1 0x1 PUSH1 0x1 PUSH1 0xA0 SHL SUB DUP1 DUP6 AND PUSH1 0x0 SWAP1 DUP2 MSTORE PUSH1 0x20 DUP2 SWAP1 MSTORE PUSH1 0x40 DUP1 DUP3 KECCAK256 DUP6 DUP6 SUB SWAP1 SSTORE SWAP2 DUP6 AND DUP2 MSTORE SWAP1 DUP2 KECCAK256 DUP1 SLOAD DUP5 SWAP3 SWAP1 PUSH2 0xB28 SWAP1 DUP5 SWAP1 PUSH2 0xF27 JUMP JUMPDEST SWAP3 POP POP DUP2 SWAP1 SSTORE POP DUP3 PUSH1 0x1 PUSH1 0x1 PUSH1 0xA0 SHL SUB AND DUP5 PUSH1 0x1 PUSH1 0x1 PUSH1 0xA0 SHL SUB AND PUSH32 0xDDF252AD1BE2C89B69C2B068FC378DAA952BA7F163C4A11628F55A4DF523B3EF DUP5 PUSH1 0x40 MLOAD PUSH2 0xB74 SWAP2 DUP2 MSTORE PUSH1 0x20 ADD SWAP1 JUMP JUMPDEST PUSH1 0x40 MLOAD DUP1 SWAP2 SUB SWAP1 LOG3 POP POP POP POP JUMP JUMPDEST PUSH1 0x1 PUSH1 0x1 PUSH1 0xA0 SHL SUB DUP3 AND PUSH2 0xBE2 JUMPI PUSH1 0x40 MLOAD PUSH3 0x461BCD PUSH1 0xE5 SHL DUP2 MSTORE PUSH1 0x20 PUSH1 0x4 DUP3 ADD MSTORE PUSH1 0x21 PUSH1 0x24 DUP3 ADD MSTORE PUSH32 0x45524332303A206275726E2066726F6D20746865207A65726F20616464726573 PUSH1 0x44 DUP3 ADD MSTORE PUSH1 0x73 PUSH1 0xF8 SHL PUSH1 0x64 DUP3 ADD MSTORE PUSH1 0x84 ADD PUSH2 0x46F JUMP JUMPDEST PUSH1 0x1 PUSH1 0x1 PUSH1 0xA0 SHL SUB DUP3 AND PUSH1 0x0 SWAP1 DUP2 MSTORE PUSH1 0x20 DUP2 SWAP1 MSTORE PUSH1 0x40 SWAP1 KECCAK256 SLOAD DUP2 DUP2 LT ISZERO PUSH2 0xC56 JUMPI PUSH1 0x40 MLOAD PUSH3 0x461BCD PUSH1 0xE5 SHL DUP2 MSTORE PUSH1 0x20 PUSH1 0x4 DUP3 ADD MSTORE PUSH1 0x22 PUSH1 0x24 DUP3 ADD MSTORE PUSH32 0x45524332303A206275726E20616D6F756E7420657863656564732062616C616E PUSH1 0x44 DUP3 ADD MSTORE PUSH2 0x6365 PUSH1 0xF0 SHL PUSH1 0x64 DUP3 ADD MSTORE PUSH1 0x84 ADD PUSH2 0x46F JUMP JUMPDEST PUSH1 0x1 PUSH1 0x1 PUSH1 0xA0 SHL SUB DUP4 AND PUSH1 0x0 SWAP1 DUP2 MSTORE PUSH1 0x20 DUP2 SWAP1 MSTORE PUSH1 0x40 DUP2 KECCAK256 DUP4 DUP4 SUB SWAP1 SSTORE PUSH1 0x2 DUP1 SLOAD DUP5 SWAP3 SWAP1 PUSH2 0xC85 SWAP1 DUP5 SWAP1 PUSH2 0xF80 JUMP JUMPDEST SWAP1 SWAP2 SSTORE POP POP PUSH1 0x40 MLOAD DUP3 DUP2 MSTORE PUSH1 0x0 SWAP1 PUSH1 0x1 PUSH1 0x1 PUSH1 0xA0 SHL SUB DUP6 AND SWAP1 PUSH32 0xDDF252AD1BE2C89B69C2B068FC378DAA952BA7F163C4A11628F55A4DF523B3EF SWAP1 PUSH1 0x20 ADD PUSH2 0x9A6 JUMP JUMPDEST PUSH1 0x1 PUSH1 0x1 PUSH1 0xA0 SHL SUB DUP3 AND PUSH2 0xD1E JUMPI PUSH1 0x40 MLOAD PUSH3 0x461BCD PUSH1 0xE5 SHL DUP2 MSTORE PUSH1 0x20 PUSH1 0x4 DUP3 ADD MSTORE PUSH1 0x1F PUSH1 0x24 DUP3 ADD MSTORE PUSH32 0x45524332303A206D696E7420746F20746865207A65726F206164647265737300 PUSH1 0x44 DUP3 ADD MSTORE PUSH1 0x64 ADD PUSH2 0x46F JUMP JUMPDEST DUP1 PUSH1 0x2 PUSH1 0x0 DUP3 DUP3 SLOAD PUSH2 0xD30 SWAP2 SWAP1 PUSH2 0xF27 JUMP JUMPDEST SWAP1 SWAP2 SSTORE POP POP PUSH1 0x1 PUSH1 0x1 PUSH1 0xA0 SHL SUB DUP3 AND PUSH1 0x0 SWAP1 DUP2 MSTORE PUSH1 0x20 DUP2 SWAP1 MSTORE PUSH1 0x40 DUP2 KECCAK256 DUP1 SLOAD DUP4 SWAP3 SWAP1 PUSH2 0xD5D SWAP1 DUP5 SWAP1 PUSH2 0xF27 JUMP JUMPDEST SWAP1 SWAP2 SSTORE POP POP PUSH1 0x40 MLOAD DUP2 DUP2 MSTORE PUSH1 0x1 PUSH1 0x1 PUSH1 0xA0 SHL SUB DUP4 AND SWAP1 PUSH1 0x0 SWAP1 PUSH32 0xDDF252AD1BE2C89B69C2B068FC378DAA952BA7F163C4A11628F55A4DF523B3EF SWAP1 PUSH1 0x20 ADD PUSH1 0x40 MLOAD DUP1 SWAP2 SUB SWAP1 LOG3 POP POP JUMP JUMPDEST DUP1 CALLDATALOAD PUSH1 0x1 PUSH1 0x1 PUSH1 0xA0 SHL SUB DUP2 AND DUP2 EQ PUSH2 0xDBE JUMPI PUSH1 0x0 DUP1 REVERT JUMPDEST SWAP2 SWAP1 POP JUMP JUMPDEST PUSH1 0x0 PUSH1 0x20 DUP3 DUP5 SUB SLT ISZERO PUSH2 0xDD5 JUMPI PUSH1 0x0 DUP1 REVERT JUMPDEST PUSH2 0xDDE DUP3 PUSH2 0xDA7 JUMP JUMPDEST SWAP4 SWAP3 POP POP POP JUMP JUMPDEST PUSH1 0x0 DUP1 PUSH1 0x40 DUP4 DUP6 SUB SLT ISZERO PUSH2 0xDF8 JUMPI PUSH1 0x0 DUP1 REVERT JUMPDEST PUSH2 0xE01 DUP4 PUSH2 0xDA7 JUMP JUMPDEST SWAP2 POP PUSH2 0xE0F PUSH1 0x20 DUP5 ADD PUSH2 0xDA7 JUMP JUMPDEST SWAP1 POP SWAP3 POP SWAP3 SWAP1 POP JUMP JUMPDEST PUSH1 0x0 DUP1 PUSH1 0x0 PUSH1 0x60 DUP5 DUP7 SUB SLT ISZERO PUSH2 0xE2D JUMPI PUSH1 0x0 DUP1 REVERT JUMPDEST PUSH2 0xE36 DUP5 PUSH2 0xDA7 JUMP JUMPDEST SWAP3 POP PUSH2 0xE44 PUSH1 0x20 DUP6 ADD PUSH2 0xDA7 JUMP JUMPDEST SWAP2 POP PUSH1 0x40 DUP5 ADD CALLDATALOAD SWAP1 POP SWAP3 POP SWAP3 POP SWAP3 JUMP JUMPDEST PUSH1 0x0 DUP1 PUSH1 0x40 DUP4 DUP6 SUB SLT ISZERO PUSH2 0xE67 JUMPI PUSH1 0x0 DUP1 REVERT JUMPDEST PUSH2 0xE70 DUP4 PUSH2 0xDA7 JUMP JUMPDEST SWAP5 PUSH1 0x20 SWAP4 SWAP1 SWAP4 ADD CALLDATALOAD SWAP4 POP POP POP JUMP JUMPDEST PUSH1 0x0 PUSH1 0x20 DUP3 DUP5 SUB SLT ISZERO PUSH2 0xE90 JUMPI PUSH1 0x0 DUP1 REVERT JUMPDEST DUP2 MLOAD DUP1 ISZERO ISZERO DUP2 EQ PUSH2 0xDDE JUMPI PUSH1 0x0 DUP1 REVERT JUMPDEST PUSH1 0x0 PUSH1 0x20 DUP3 DUP5 SUB SLT ISZERO PUSH2 0xEB2 JUMPI PUSH1 0x0 DUP1 REVERT JUMPDEST POP CALLDATALOAD SWAP2 SWAP1 POP JUMP JUMPDEST PUSH1 0x0 PUSH1 0x20 DUP3 DUP5 SUB SLT ISZERO PUSH2 0xECB JUMPI PUSH1 0x0 DUP1 REVERT JUMPDEST POP MLOAD SWAP2 SWAP1 POP JUMP JUMPDEST PUSH1 0x0 PUSH1 0x20 DUP1 DUP4 MSTORE DUP4 MLOAD DUP1 DUP3 DUP6 ADD MSTORE PUSH1 0x0 JUMPDEST DUP2 DUP2 LT ISZERO PUSH2 0xEFF JUMPI DUP6 DUP2 ADD DUP4 ADD MLOAD DUP6 DUP3 ADD PUSH1 0x40 ADD MSTORE DUP3 ADD PUSH2 0xEE3 JUMP JUMPDEST DUP2 DUP2 GT ISZERO PUSH2 0xF11 JUMPI PUSH1 0x0 PUSH1 0x40 DUP4 DUP8 ADD ADD MSTORE JUMPDEST POP PUSH1 0x1F ADD PUSH1 0x1F NOT AND SWAP3 SWAP1 SWAP3 ADD PUSH1 0x40 ADD SWAP4 SWAP3 POP POP POP JUMP JUMPDEST PUSH1 0x0 DUP3 NOT DUP3 GT ISZERO PUSH2 0xF3A JUMPI PUSH2 0xF3A PUSH2 0xFD2 JUMP JUMPDEST POP ADD SWAP1 JUMP JUMPDEST PUSH1 0x0 DUP3 PUSH2 0xF5C JUMPI PUSH4 0x4E487B71 PUSH1 0xE0 SHL PUSH1 0x0 MSTORE PUSH1 0x12 PUSH1 0x4 MSTORE PUSH1 0x24 PUSH1 0x0 REVERT JUMPDEST POP DIV SWAP1 JUMP JUMPDEST PUSH1 0x0 DUP2 PUSH1 0x0 NOT DIV DUP4 GT DUP3 ISZERO ISZERO AND ISZERO PUSH2 0xF7B JUMPI PUSH2 0xF7B PUSH2 0xFD2 JUMP JUMPDEST POP MUL SWAP1 JUMP JUMPDEST PUSH1 0x0 DUP3 DUP3 LT ISZERO PUSH2 0xF92 JUMPI PUSH2 0xF92 PUSH2 0xFD2 JUMP JUMPDEST POP SUB SWAP1 JUMP JUMPDEST PUSH1 0x1 DUP2 DUP2 SHR SWAP1 DUP3 AND DUP1 PUSH2 0xFAB JUMPI PUSH1 0x7F DUP3 AND SWAP2 POP JUMPDEST PUSH1 0x20 DUP3 LT DUP2 EQ ISZERO PUSH2 0xFCC JUMPI PUSH4 0x4E487B71 PUSH1 0xE0 SHL PUSH1 0x0 MSTORE PUSH1 0x22 PUSH1 0x4 MSTORE PUSH1 0x24 PUSH1 0x0 REVERT JUMPDEST POP SWAP2 SWAP1 POP JUMP JUMPDEST PUSH4 0x4E487B71 PUSH1 0xE0 SHL PUSH1 0x0 MSTORE PUSH1 0x11 PUSH1 0x4 MSTORE PUSH1 0x24 PUSH1 0x0 REVERT INVALID LOG2 PUSH5 0x6970667358 0x22 SLT KECCAK256 0xD CALLER PUSH13 0x994B1AA7951747D58ADB7B21EB 0x5E SWAP6 CALLVALUE ADDMOD PUSH16 0x482F83C1CB85C1B8F7408364736F6C63 NUMBER STOP ADDMOD SMOD STOP CALLER "
				},
				"gasEstimates": {
					"creation": {
						"codeDepositCost": "825200",
						"executionCost": "infinite",
						"totalCost": "infinite"
					},
					"external": {
						"allowance(address,address)": "infinite",
						"approve(address,uint256)": "24643",
						"balanceOf(address)": "2607",
						"decimals()": "266",
						"decreaseAllowance(address,uint256)": "26911",
						"enter(uint256)": "infinite",
						"increaseAllowance(address,uint256)": "26958",
						"leave(uint256)": "infinite",
						"name()": "infinite",
						"shareRevenue(uint256)": "infinite",
						"symbol()": "infinite",
						"totalSupply()": "2304",
						"transfer(address,uint256)": "51231",
						"transferFrom(address,address,uint256)": "infinite",
						"vestingToken()": "2382"
					}
				},
				"methodIdentifiers": {
					"allowance(address,address)": "dd62ed3e",
					"approve(address,uint256)": "095ea7b3",
					"balanceOf(address)": "70a08231",
					"decimals()": "313ce567",
					"decreaseAllowance(address,uint256)": "a457c2d7",
					"enter(uint256)": "a59f3e0c",
					"increaseAllowance(address,uint256)": "39509351",
					"leave(uint256)": "67dfd4c9",
					"name()": "06fdde03",
					"shareRevenue(uint256)": "139e41e4",
					"symbol()": "95d89b41",
					"totalSupply()": "18160ddd",
					"transfer(address,uint256)": "a9059cbb",
					"transferFrom(address,address,uint256)": "23b872dd",
					"vestingToken()": "19d152fa"
				}
			},
			"storageLayout": {
				"storage": [
					{
						"astId": 133,
						"contract": "contracts/veWVLT.sol:WVLTBar",
						"label": "_balances",
						"offset": 0,
						"slot": "0",
						"type": "t_mapping(t_address,t_uint256)"
					},
					{
						"astId": 139,
						"contract": "contracts/veWVLT.sol:WVLTBar",
						"label": "_allowances",
						"offset": 0,
						"slot": "1",
						"type": "t_mapping(t_address,t_mapping(t_address,t_uint256))"
					},
					{
						"astId": 141,
						"contract": "contracts/veWVLT.sol:WVLTBar",
						"label": "_totalSupply",
						"offset": 0,
						"slot": "2",
						"type": "t_uint256"
					},
					{
						"astId": 143,
						"contract": "contracts/veWVLT.sol:WVLTBar",
						"label": "_name",
						"offset": 0,
						"slot": "3",
						"type": "t_string_storage"
					},
					{
						"astId": 145,
						"contract": "contracts/veWVLT.sol:WVLTBar",
						"label": "_symbol",
						"offset": 0,
						"slot": "4",
						"type": "t_string_storage"
					},
					{
						"astId": 1192,
						"contract": "contracts/veWVLT.sol:WVLTBar",
						"label": "vestingToken",
						"offset": 0,
						"slot": "5",
						"type": "t_contract(IERC20)77"
					}
				],
				"types": {
					"t_address": {
						"encoding": "inplace",
						"label": "address",
						"numberOfBytes": "20"
					},
					"t_contract(IERC20)77": {
						"encoding": "inplace",
						"label": "contract IERC20",
						"numberOfBytes": "20"
					},
					"t_mapping(t_address,t_mapping(t_address,t_uint256))": {
						"encoding": "mapping",
						"key": "t_address",
						"label": "mapping(address => mapping(address => uint256))",
						"numberOfBytes": "32",
						"value": "t_mapping(t_address,t_uint256)"
					},
					"t_mapping(t_address,t_uint256)": {
						"encoding": "mapping",
						"key": "t_address",
						"label": "mapping(address => uint256)",
						"numberOfBytes": "32",
						"value": "t_uint256"
					},
					"t_string_storage": {
						"encoding": "bytes",
						"label": "string",
						"numberOfBytes": "32"
					},
					"t_uint256": {
						"encoding": "inplace",
						"label": "uint256",
						"numberOfBytes": "32"
					}
				}
			},
			"userdoc": {
				"kind": "user",
				"methods": {},
				"version": 1
			}
		}
	}
}