{
  "_format": "hh-sol-artifact-1",
  "contractName": "MasterChefOperator",
  "sourceName": "contracts/MasterChefOperator.sol",
  "abi": [
    {
      "inputs": [
        {
          "internalType": "contract Timelock",
          "name": "_timelock",
          "type": "address"
        },
        {
          "internalType": "address",
          "name": "_masterChef",
          "type": "address"
        },
        {
          "internalType": "address",
          "name": "admin",
          "type": "address"
        },
        {
          "internalType": "address",
          "name": "stagingAdmin",
          "type": "address"
        }
      ],
      "stateMutability": "nonpayable",
      "type": "constructor"
    },
    {
      "anonymous": false,
      "inputs": [
        {
          "indexed": true,
          "internalType": "bytes32",
          "name": "role",
          "type": "bytes32"
        },
        {
          "indexed": true,
          "internalType": "bytes32",
          "name": "previousAdminRole",
          "type": "bytes32"
        },
        {
          "indexed": true,
          "internalType": "bytes32",
          "name": "newAdminRole",
          "type": "bytes32"
        }
      ],
      "name": "RoleAdminChanged",
      "type": "event"
    },
    {
      "anonymous": false,
      "inputs": [
        {
          "indexed": true,
          "internalType": "bytes32",
          "name": "role",
          "type": "bytes32"
        },
        {
          "indexed": true,
          "internalType": "address",
          "name": "account",
          "type": "address"
        },
        {
          "indexed": true,
          "internalType": "address",
          "name": "sender",
          "type": "address"
        }
      ],
      "name": "RoleGranted",
      "type": "event"
    },
    {
      "anonymous": false,
      "inputs": [
        {
          "indexed": true,
          "internalType": "bytes32",
          "name": "role",
          "type": "bytes32"
        },
        {
          "indexed": true,
          "internalType": "address",
          "name": "account",
          "type": "address"
        },
        {
          "indexed": true,
          "internalType": "address",
          "name": "sender",
          "type": "address"
        }
      ],
      "name": "RoleRevoked",
      "type": "event"
    },
    {
      "inputs": [],
      "name": "COMMIT_ROLE",
      "outputs": [
        {
          "internalType": "bytes32",
          "name": "",
          "type": "bytes32"
        }
      ],
      "stateMutability": "view",
      "type": "function"
    },
    {
      "inputs": [],
      "name": "DEFAULT_ADMIN_ROLE",
      "outputs": [
        {
          "internalType": "bytes32",
          "name": "",
          "type": "bytes32"
        }
      ],
      "stateMutability": "view",
      "type": "function"
    },
    {
      "inputs": [],
      "name": "STAGE_ROLE",
      "outputs": [
        {
          "internalType": "bytes32",
          "name": "",
          "type": "bytes32"
        }
      ],
      "stateMutability": "view",
      "type": "function"
    },
    {
      "inputs": [],
      "name": "acceptTimelockAdmin",
      "outputs": [],
      "stateMutability": "nonpayable",
      "type": "function"
    },
    {
      "inputs": [
        {
          "internalType": "address",
          "name": "target",
          "type": "address"
        },
        {
          "internalType": "uint256",
          "name": "value",
          "type": "uint256"
        },
        {
          "internalType": "string",
          "name": "signature",
          "type": "string"
        },
        {
          "internalType": "bytes",
          "name": "data",
          "type": "bytes"
        },
        {
          "internalType": "uint256",
          "name": "eta",
          "type": "uint256"
        }
      ],
      "name": "cancelTransaction",
      "outputs": [],
      "stateMutability": "nonpayable",
      "type": "function"
    },
    {
      "inputs": [
        {
          "internalType": "uint256",
          "name": "beetsPerBlock",
          "type": "uint256"
        },
        {
          "internalType": "uint256",
          "name": "eta",
          "type": "uint256"
        },
        {
          "internalType": "enum MasterChefOperator.TransactionType",
          "name": "txType",
          "type": "uint8"
        }
      ],
      "name": "commitEmissionChange",
      "outputs": [],
      "stateMutability": "nonpayable",
      "type": "function"
    },
    {
      "inputs": [
        {
          "internalType": "uint256",
          "name": "eta",
          "type": "uint256"
        },
        {
          "internalType": "enum MasterChefOperator.TransactionType",
          "name": "txType",
          "type": "uint8"
        }
      ],
      "name": "commitFarmChanges",
      "outputs": [],
      "stateMutability": "nonpayable",
      "type": "function"
    },
    {
      "inputs": [
        {
          "internalType": "address",
          "name": "admin",
          "type": "address"
        },
        {
          "internalType": "uint256",
          "name": "eta",
          "type": "uint256"
        },
        {
          "internalType": "enum MasterChefOperator.TransactionType",
          "name": "txType",
          "type": "uint8"
        }
      ],
      "name": "commitSetPendingTimelockAdmin",
      "outputs": [],
      "stateMutability": "nonpayable",
      "type": "function"
    },
    {
      "inputs": [
        {
          "internalType": "address",
          "name": "treasury",
          "type": "address"
        },
        {
          "internalType": "uint256",
          "name": "eta",
          "type": "uint256"
        },
        {
          "internalType": "enum MasterChefOperator.TransactionType",
          "name": "txType",
          "type": "uint8"
        }
      ],
      "name": "commitSetTreasuryAddress",
      "outputs": [],
      "stateMutability": "nonpayable",
      "type": "function"
    },
    {
      "inputs": [
        {
          "internalType": "address",
          "name": "target",
          "type": "address"
        },
        {
          "internalType": "uint256",
          "name": "value",
          "type": "uint256"
        },
        {
          "internalType": "string",
          "name": "signature",
          "type": "string"
        },
        {
          "internalType": "bytes",
          "name": "data",
          "type": "bytes"
        },
        {
          "internalType": "uint256",
          "name": "eta",
          "type": "uint256"
        }
      ],
      "name": "executeTransaction",
      "outputs": [
        {
          "internalType": "bytes",
          "name": "",
          "type": "bytes"
        }
      ],
      "stateMutability": "payable",
      "type": "function"
    },
    {
      "inputs": [
        {
          "internalType": "uint256",
          "name": "",
          "type": "uint256"
        },
        {
          "internalType": "uint256",
          "name": "",
          "type": "uint256"
        }
      ],
      "name": "farmAdditions",
      "outputs": [
        {
          "internalType": "contract IERC20",
          "name": "lpToken",
          "type": "address"
        },
        {
          "internalType": "uint256",
          "name": "allocationPoints",
          "type": "uint256"
        },
        {
          "internalType": "contract IRewarder",
          "name": "rewarder",
          "type": "address"
        }
      ],
      "stateMutability": "view",
      "type": "function"
    },
    {
      "inputs": [
        {
          "internalType": "uint256",
          "name": "eta",
          "type": "uint256"
        }
      ],
      "name": "farmAdditionsForEta",
      "outputs": [
        {
          "components": [
            {
              "internalType": "contract IERC20",
              "name": "lpToken",
              "type": "address"
            },
            {
              "internalType": "uint256",
              "name": "allocationPoints",
              "type": "uint256"
            },
            {
              "internalType": "contract IRewarder",
              "name": "rewarder",
              "type": "address"
            }
          ],
          "internalType": "struct MasterChefOperator.FarmAddition[]",
          "name": "",
          "type": "tuple[]"
        }
      ],
      "stateMutability": "view",
      "type": "function"
    },
    {
      "inputs": [
        {
          "internalType": "uint256",
          "name": "",
          "type": "uint256"
        },
        {
          "internalType": "uint256",
          "name": "",
          "type": "uint256"
        }
      ],
      "name": "farmModifications",
      "outputs": [
        {
          "internalType": "uint256",
          "name": "pid",
          "type": "uint256"
        },
        {
          "internalType": "uint256",
          "name": "allocationPoints",
          "type": "uint256"
        },
        {
          "internalType": "contract IRewarder",
          "name": "rewarder",
          "type": "address"
        },
        {
          "internalType": "bool",
          "name": "overwriteRewarder",
          "type": "bool"
        }
      ],
      "stateMutability": "view",
      "type": "function"
    },
    {
      "inputs": [
        {
          "internalType": "uint256",
          "name": "eta",
          "type": "uint256"
        }
      ],
      "name": "farmModificationsForEta",
      "outputs": [
        {
          "components": [
            {
              "internalType": "uint256",
              "name": "pid",
              "type": "uint256"
            },
            {
              "internalType": "uint256",
              "name": "allocationPoints",
              "type": "uint256"
            },
            {
              "internalType": "contract IRewarder",
              "name": "rewarder",
              "type": "address"
            },
            {
              "internalType": "bool",
              "name": "overwriteRewarder",
              "type": "bool"
            }
          ],
          "internalType": "struct MasterChefOperator.FarmModification[]",
          "name": "",
          "type": "tuple[]"
        }
      ],
      "stateMutability": "view",
      "type": "function"
    },
    {
      "inputs": [
        {
          "internalType": "bytes32",
          "name": "role",
          "type": "bytes32"
        }
      ],
      "name": "getRoleAdmin",
      "outputs": [
        {
          "internalType": "bytes32",
          "name": "",
          "type": "bytes32"
        }
      ],
      "stateMutability": "view",
      "type": "function"
    },
    {
      "inputs": [
        {
          "internalType": "bytes32",
          "name": "role",
          "type": "bytes32"
        },
        {
          "internalType": "address",
          "name": "account",
          "type": "address"
        }
      ],
      "name": "grantRole",
      "outputs": [],
      "stateMutability": "nonpayable",
      "type": "function"
    },
    {
      "inputs": [
        {
          "internalType": "bytes32",
          "name": "role",
          "type": "bytes32"
        },
        {
          "internalType": "address",
          "name": "account",
          "type": "address"
        }
      ],
      "name": "hasRole",
      "outputs": [
        {
          "internalType": "bool",
          "name": "",
          "type": "bool"
        }
      ],
      "stateMutability": "view",
      "type": "function"
    },
    {
      "inputs": [],
      "name": "masterChef",
      "outputs": [
        {
          "internalType": "address",
          "name": "",
          "type": "address"
        }
      ],
      "stateMutability": "view",
      "type": "function"
    },
    {
      "inputs": [
        {
          "internalType": "address",
          "name": "target",
          "type": "address"
        },
        {
          "internalType": "uint256",
          "name": "value",
          "type": "uint256"
        },
        {
          "internalType": "string",
          "name": "signature",
          "type": "string"
        },
        {
          "internalType": "bytes",
          "name": "data",
          "type": "bytes"
        },
        {
          "internalType": "uint256",
          "name": "eta",
          "type": "uint256"
        }
      ],
      "name": "queueTransaction",
      "outputs": [
        {
          "internalType": "bytes32",
          "name": "",
          "type": "bytes32"
        }
      ],
      "stateMutability": "nonpayable",
      "type": "function"
    },
    {
      "inputs": [],
      "name": "queuedFarmChangeEtas",
      "outputs": [
        {
          "internalType": "uint256[]",
          "name": "",
          "type": "uint256[]"
        }
      ],
      "stateMutability": "view",
      "type": "function"
    },
    {
      "inputs": [
        {
          "internalType": "bytes32",
          "name": "role",
          "type": "bytes32"
        },
        {
          "internalType": "address",
          "name": "account",
          "type": "address"
        }
      ],
      "name": "renounceRole",
      "outputs": [],
      "stateMutability": "nonpayable",
      "type": "function"
    },
    {
      "inputs": [
        {
          "internalType": "bytes32",
          "name": "role",
          "type": "bytes32"
        },
        {
          "internalType": "address",
          "name": "account",
          "type": "address"
        }
      ],
      "name": "revokeRole",
      "outputs": [],
      "stateMutability": "nonpayable",
      "type": "function"
    },
    {
      "inputs": [
        {
          "components": [
            {
              "internalType": "contract IERC20",
              "name": "lpToken",
              "type": "address"
            },
            {
              "internalType": "uint256",
              "name": "allocationPoints",
              "type": "uint256"
            },
            {
              "internalType": "contract IRewarder",
              "name": "rewarder",
              "type": "address"
            }
          ],
          "internalType": "struct MasterChefOperator.FarmAddition[]",
          "name": "farmsToAdd",
          "type": "tuple[]"
        },
        {
          "internalType": "uint256",
          "name": "eta",
          "type": "uint256"
        }
      ],
      "name": "stageFarmAdditions",
      "outputs": [],
      "stateMutability": "nonpayable",
      "type": "function"
    },
    {
      "inputs": [
        {
          "components": [
            {
              "internalType": "uint256",
              "name": "pid",
              "type": "uint256"
            },
            {
              "internalType": "uint256",
              "name": "allocationPoints",
              "type": "uint256"
            },
            {
              "internalType": "contract IRewarder",
              "name": "rewarder",
              "type": "address"
            },
            {
              "internalType": "bool",
              "name": "overwriteRewarder",
              "type": "bool"
            }
          ],
          "internalType": "struct MasterChefOperator.FarmModification[]",
          "name": "farmsToEdit",
          "type": "tuple[]"
        },
        {
          "internalType": "uint256",
          "name": "eta",
          "type": "uint256"
        }
      ],
      "name": "stageFarmModifications",
      "outputs": [],
      "stateMutability": "nonpayable",
      "type": "function"
    },
    {
      "inputs": [
        {
          "internalType": "bytes4",
          "name": "interfaceId",
          "type": "bytes4"
        }
      ],
      "name": "supportsInterface",
      "outputs": [
        {
          "internalType": "bool",
          "name": "",
          "type": "bool"
        }
      ],
      "stateMutability": "view",
      "type": "function"
    },
    {
      "inputs": [],
      "name": "timelock",
      "outputs": [
        {
          "internalType": "contract Timelock",
          "name": "",
          "type": "address"
        }
      ],
      "stateMutability": "view",
      "type": "function"
    },
    {
      "inputs": [
        {
          "internalType": "uint256",
          "name": "",
          "type": "uint256"
        }
      ],
      "name": "usedFarmChangeEtas",
      "outputs": [
        {
          "internalType": "bool",
          "name": "",
          "type": "bool"
        }
      ],
      "stateMutability": "view",
      "type": "function"
    }
  ],
  "bytecode": "0x60c06040523480156200001157600080fd5b5060405162004780380380620047808339818101604052810190620000379190620002cf565b8373ffffffffffffffffffffffffffffffffffffffff1660808173ffffffffffffffffffffffffffffffffffffffff1660601b815250508273ffffffffffffffffffffffffffffffffffffffff1660a08173ffffffffffffffffffffffffffffffffffffffff1660601b81525050620000ba6000801b836200012860201b60201c565b620000ec7f9ca25149b3fbef66d98c546a0b372e96b9626f14ed669dd7ba430d3a8f225fd2836200012860201b60201c565b6200011e7f9ca25149b3fbef66d98c546a0b372e96b9626f14ed669dd7ba430d3a8f225fd2826200012860201b60201c565b50505050620003d6565b6200013a82826200013e60201b60201c565b5050565b6200015082826200022f60201b60201c565b6200022b57600160008084815260200190815260200160002060000160008373ffffffffffffffffffffffffffffffffffffffff1673ffffffffffffffffffffffffffffffffffffffff16815260200190815260200160002060006101000a81548160ff021916908315150217905550620001d06200029960201b60201c565b73ffffffffffffffffffffffffffffffffffffffff168173ffffffffffffffffffffffffffffffffffffffff16837f2f8788117e7eff1d82e926ec794901d17c78024a50270940304540a733656f0d60405160405180910390a45b5050565b600080600084815260200190815260200160002060000160008373ffffffffffffffffffffffffffffffffffffffff1673ffffffffffffffffffffffffffffffffffffffff16815260200190815260200160002060009054906101000a900460ff16905092915050565b600033905090565b600081519050620002b281620003a2565b92915050565b600081519050620002c981620003bc565b92915050565b60008060008060808587031215620002ec57620002eb6200039d565b5b6000620002fc87828801620002b8565b94505060206200030f87828801620002a1565b93505060406200032287828801620002a1565b92505060606200033587828801620002a1565b91505092959194509250565b60006200034e826200037d565b9050919050565b600062000362826200037d565b9050919050565b6000620003768262000355565b9050919050565b600073ffffffffffffffffffffffffffffffffffffffff82169050919050565b600080fd5b620003ad8162000341565b8114620003b957600080fd5b50565b620003c78162000369565b8114620003d357600080fd5b50565b60805160601c60a05160601c6142d6620004aa60003960008181610d7c01528181610f8201528181611079015281816114a50152818161159c01528181611d2c01528181611f1b01528181612128015261231c01526000818161075e01528181610a3c01528181610dd201528181610f460152818161103d015281816111ab015281816111e7015281816112a2015281816112de015281816114690152818161156001528181611836015281816118b501528181611cf001528181611edf015281816120ec01526122e001526142d66000f3fe60806040526004361061019c5760003560e01c80635ffc71b8116100ec578063ab6989571161008a578063d33219b411610064578063d33219b414610604578063d547741f1461062f578063eeaba75d14610658578063fde9b2261461066f5761019c565b8063ab69895714610575578063c8cc3cd81461059e578063cae5984b146105c75761019c565b80638a1d28f1116100c65780638a1d28f1146104bb57806391d14854146104e45780639c2826ef14610521578063a217fddf1461054a5761019c565b80635ffc71b8146104275780636f3e6f341461046757806374d510f7146104905761019c565b806336568abe1161015957806341065e0e1161013357806341065e0e1461036b578063441e7d58146103a8578063575a86b2146103d3578063591fcdfe146103fe5761019c565b806336568abe146102dc5780633a66f901146103055780633b8505a3146103425761019c565b806301ffc9a7146101a15780630825f38f146101de578063248a9ca31461020e57806325e063091461024b5780632f2ff15d1461027657806333c9ef9f1461029f575b600080fd5b3480156101ad57600080fd5b506101c860048036038101906101c39190612ca3565b6106ae565b6040516101d591906135be565b60405180910390f35b6101f860048036038101906101f39190612a96565b610728565b60405161020591906135f4565b60405180910390f35b34801561021a57600080fd5b5061023560048036038101906102309190612c09565b610820565b60405161024291906135d9565b60405180910390f35b34801561025757600080fd5b5061026061083f565b60405161026d91906135d9565b60405180910390f35b34801561028257600080fd5b5061029d60048036038101906102989190612c63565b610863565b005b3480156102ab57600080fd5b506102c660048036038101906102c19190612d19565b61088c565b6040516102d3919061357a565b60405180910390f35b3480156102e857600080fd5b5061030360048036038101906102fe9190612c63565b610983565b005b34801561031157600080fd5b5061032c60048036038101906103279190612a96565b610a06565b60405161033991906135d9565b60405180910390f35b34801561034e57600080fd5b5061036960048036038101906103649190612b49565b610af9565b005b34801561037757600080fd5b50610392600480360381019061038d9190612d19565b610c2e565b60405161039f9190613558565b60405180910390f35b3480156103b457600080fd5b506103bd610d56565b6040516103ca91906135d9565b60405180910390f35b3480156103df57600080fd5b506103e8610d7a565b6040516103f59190613301565b60405180910390f35b34801561040a57600080fd5b5061042560048036038101906104209190612a96565b610d9e565b005b34801561043357600080fd5b5061044e60048036038101906104499190612d86565b610e6b565b60405161045e949392919061373c565b60405180910390f35b34801561047357600080fd5b5061048e60048036038101906104899190612a43565b610ee5565b005b34801561049c57600080fd5b506104a5611139565b6040516104b2919061359c565b60405180910390f35b3480156104c757600080fd5b506104e260048036038101906104dd9190612a43565b61114a565b005b3480156104f057600080fd5b5061050b60048036038101906105069190612c63565b61139e565b60405161051891906135be565b60405180910390f35b34801561052d57600080fd5b5061054860048036038101906105439190612dc6565b611408565b005b34801561055657600080fd5b5061055f61165c565b60405161056c91906135d9565b60405180910390f35b34801561058157600080fd5b5061059c60048036038101906105979190612d46565b611663565b005b3480156105aa57600080fd5b506105c560048036038101906105c09190612ba9565b6116df565b005b3480156105d357600080fd5b506105ee60048036038101906105e99190612d19565b611814565b6040516105fb91906135be565b60405180910390f35b34801561061057600080fd5b50610619611834565b604051610626919061364d565b60405180910390f35b34801561063b57600080fd5b5061065660048036038101906106519190612c63565b611858565b005b34801561066457600080fd5b5061066d611881565b005b34801561067b57600080fd5b5061069660048036038101906106919190612d86565b611936565b6040516106a593929190613616565b60405180910390f35b60007f7965db0b000000000000000000000000000000000000000000000000000000007bffffffffffffffffffffffffffffffffffffffffffffffffffffffff1916827bffffffffffffffffffffffffffffffffffffffffffffffffffffffff191614806107215750610720826119bd565b5b9050919050565b60607f9ca25149b3fbef66d98c546a0b372e96b9626f14ed669dd7ba430d3a8f225fd261075c81610757611a27565b611a2f565b7f000000000000000000000000000000000000000000000000000000000000000073ffffffffffffffffffffffffffffffffffffffff16630825f38f88888888886040518663ffffffff1660e01b81526004016107bd9594939291906134f7565b600060405180830381600087803b1580156107d757600080fd5b505af11580156107eb573d6000803e3d6000fd5b505050506040513d6000823e3d601f19601f820116820180604052508101906108149190612cd0565b91505095945050505050565b6000806000838152602001908152602001600020600101549050919050565b7f9ca25149b3fbef66d98c546a0b372e96b9626f14ed669dd7ba430d3a8f225fd281565b61086c82610820565b61087d81610878611a27565b611a2f565b6108878383611acc565b505050565b606060026000838152602001908152602001600020805480602002602001604051908101604052809291908181526020016000905b82821015610978578382906000526020600020906003020160405180608001604052908160008201548152602001600182015481526020016002820160009054906101000a900473ffffffffffffffffffffffffffffffffffffffff1673ffffffffffffffffffffffffffffffffffffffff1673ffffffffffffffffffffffffffffffffffffffff1681526020016002820160149054906101000a900460ff161515151581525050815260200190600101906108c1565b505050509050919050565b61098b611a27565b73ffffffffffffffffffffffffffffffffffffffff168173ffffffffffffffffffffffffffffffffffffffff16146109f8576040517f08c379a00000000000000000000000000000000000000000000000000000000081526004016109ef906136ca565b60405180910390fd5b610a028282611bac565b5050565b60007f9ca25149b3fbef66d98c546a0b372e96b9626f14ed669dd7ba430d3a8f225fd2610a3a81610a35611a27565b611a2f565b7f000000000000000000000000000000000000000000000000000000000000000073ffffffffffffffffffffffffffffffffffffffff16633a66f90188888888886040518663ffffffff1660e01b8152600401610a9b9594939291906134f7565b602060405180830381600087803b158015610ab557600080fd5b505af1158015610ac9573d6000803e3d6000fd5b505050506040513d601f19601f82011682018060405250810190610aed9190612c36565b91505095945050505050565b806003600082815260200190815260200160002060009054906101000a900460ff1615610b5b576040517f08c379a0000000000000000000000000000000000000000000000000000000008152600401610b52906136aa565b60405180910390fd5b610b6f816004611c8d90919063ffffffff16565b507f9ca25149b3fbef66d98c546a0b372e96b9626f14ed669dd7ba430d3a8f225fd2610ba281610b9d611a27565b611a2f565b60005b85859050811015610c265760016000858152602001908152602001600020868683818110610bd657610bd5613d65565b5b90506060020190806001815401808255809150506001900390600052602060002090600302016000909190919091508181610c11919061418d565b50508080610c1e90613cbe565b915050610ba5565b505050505050565b606060016000838152602001908152602001600020805480602002602001604051908101604052809291908181526020016000905b82821015610d4b57838290600052602060002090600302016040518060600160405290816000820160009054906101000a900473ffffffffffffffffffffffffffffffffffffffff1673ffffffffffffffffffffffffffffffffffffffff1673ffffffffffffffffffffffffffffffffffffffff168152602001600182015481526020016002820160009054906101000a900473ffffffffffffffffffffffffffffffffffffffff1673ffffffffffffffffffffffffffffffffffffffff1673ffffffffffffffffffffffffffffffffffffffff168152505081526020019060010190610c63565b505050509050919050565b7f9ca25149b3fbef66d98c546a0b372e96b9626f14ed669dd7ba430d3a8f225fd281565b7f000000000000000000000000000000000000000000000000000000000000000081565b7f9ca25149b3fbef66d98c546a0b372e96b9626f14ed669dd7ba430d3a8f225fd2610dd081610dcb611a27565b611a2f565b7f000000000000000000000000000000000000000000000000000000000000000073ffffffffffffffffffffffffffffffffffffffff1663591fcdfe87878787876040518663ffffffff1660e01b8152600401610e319594939291906134f7565b600060405180830381600087803b158015610e4b57600080fd5b505af1158015610e5f573d6000803e3d6000fd5b50505050505050505050565b60026020528160005260406000208181548110610e8757600080fd5b9060005260206000209060030201600091509150508060000154908060010154908060020160009054906101000a900473ffffffffffffffffffffffffffffffffffffffff16908060020160149054906101000a900460ff16905084565b7f9ca25149b3fbef66d98c546a0b372e96b9626f14ed669dd7ba430d3a8f225fd2610f1781610f12611a27565b611a2f565b60006001811115610f2b57610f2a613d36565b5b826001811115610f3e57610f3d613d36565b5b141561103b577f000000000000000000000000000000000000000000000000000000000000000073ffffffffffffffffffffffffffffffffffffffff16633a66f9017f0000000000000000000000000000000000000000000000000000000000000000600087604051602001610fb49190613301565b604051602081830303815290604052876040518563ffffffff1660e01b8152600401610fe3949392919061337b565b602060405180830381600087803b158015610ffd57600080fd5b505af1158015611011573d6000803e3d6000fd5b505050506040513d601f19601f820116820180604052508101906110359190612c36565b50611133565b7f000000000000000000000000000000000000000000000000000000000000000073ffffffffffffffffffffffffffffffffffffffff16630825f38f7f00000000000000000000000000000000000000000000000000000000000000006000876040516020016110ab9190613301565b604051602081830303815290604052876040518563ffffffff1660e01b81526004016110da949392919061337b565b600060405180830381600087803b1580156110f457600080fd5b505af1158015611108573d6000803e3d6000fd5b505050506040513d6000823e3d601f19601f820116820180604052508101906111319190612cd0565b505b50505050565b60606111456004611ca7565b905090565b7f9ca25149b3fbef66d98c546a0b372e96b9626f14ed669dd7ba430d3a8f225fd261117c81611177611a27565b611a2f565b600060018111156111905761118f613d36565b5b8260018111156111a3576111a2613d36565b5b14156112a0577f000000000000000000000000000000000000000000000000000000000000000073ffffffffffffffffffffffffffffffffffffffff16633a66f9017f00000000000000000000000000000000000000000000000000000000000000006000876040516020016112199190613301565b604051602081830303815290604052876040518563ffffffff1660e01b815260040161124894939291906133da565b602060405180830381600087803b15801561126257600080fd5b505af1158015611276573d6000803e3d6000fd5b505050506040513d601f19601f8201168201806040525081019061129a9190612c36565b50611398565b7f000000000000000000000000000000000000000000000000000000000000000073ffffffffffffffffffffffffffffffffffffffff16630825f38f7f00000000000000000000000000000000000000000000000000000000000000006000876040516020016113109190613301565b604051602081830303815290604052876040518563ffffffff1660e01b815260040161133f94939291906133da565b600060405180830381600087803b15801561135957600080fd5b505af115801561136d573d6000803e3d6000fd5b505050506040513d6000823e3d601f19601f820116820180604052508101906113969190612cd0565b505b50505050565b600080600084815260200190815260200160002060000160008373ffffffffffffffffffffffffffffffffffffffff1673ffffffffffffffffffffffffffffffffffffffff16815260200190815260200160002060009054906101000a900460ff16905092915050565b7f9ca25149b3fbef66d98c546a0b372e96b9626f14ed669dd7ba430d3a8f225fd261143a81611435611a27565b611a2f565b6000600181111561144e5761144d613d36565b5b82600181111561146157611460613d36565b5b141561155e577f000000000000000000000000000000000000000000000000000000000000000073ffffffffffffffffffffffffffffffffffffffff16633a66f9017f00000000000000000000000000000000000000000000000000000000000000006000876040516020016114d791906136ea565b604051602081830303815290604052876040518563ffffffff1660e01b8152600401611506949392919061331c565b602060405180830381600087803b15801561152057600080fd5b505af1158015611534573d6000803e3d6000fd5b505050506040513d601f19601f820116820180604052508101906115589190612c36565b50611656565b7f000000000000000000000000000000000000000000000000000000000000000073ffffffffffffffffffffffffffffffffffffffff16630825f38f7f00000000000000000000000000000000000000000000000000000000000000006000876040516020016115ce91906136ea565b604051602081830303815290604052876040518563ffffffff1660e01b81526004016115fd949392919061331c565b600060405180830381600087803b15801561161757600080fd5b505af115801561162b573d6000803e3d6000fd5b505050506040513d6000823e3d601f19601f820116820180604052508101906116549190612cd0565b505b50505050565b6000801b81565b7f9ca25149b3fbef66d98c546a0b372e96b9626f14ed669dd7ba430d3a8f225fd261169581611690611a27565b611a2f565b600060018111156116a9576116a8613d36565b5b8260018111156116bc576116bb613d36565b5b14156116d0576116cb83611cc8565b6116da565b6116d9836120c4565b5b505050565b806003600082815260200190815260200160002060009054906101000a900460ff1615611741576040517f08c379a0000000000000000000000000000000000000000000000000000000008152600401611738906136aa565b60405180910390fd5b611755816004611c8d90919063ffffffff16565b507f9ca25149b3fbef66d98c546a0b372e96b9626f14ed669dd7ba430d3a8f225fd261178881611783611a27565b611a2f565b60005b8585905081101561180c57600260008581526020019081526020016000208686838181106117bc576117bb613d65565b5b905060800201908060018154018082558091505060019003906000526020600020906003020160009091909190915081816117f7919061419b565b5050808061180490613cbe565b91505061178b565b505050505050565b60036020528060005260406000206000915054906101000a900460ff1681565b7f000000000000000000000000000000000000000000000000000000000000000081565b61186182610820565b6118728161186d611a27565b611a2f565b61187c8383611bac565b505050565b7f9ca25149b3fbef66d98c546a0b372e96b9626f14ed669dd7ba430d3a8f225fd26118b3816118ae611a27565b611a2f565b7f000000000000000000000000000000000000000000000000000000000000000073ffffffffffffffffffffffffffffffffffffffff16630e18b6816040518163ffffffff1660e01b8152600401600060405180830381600087803b15801561191b57600080fd5b505af115801561192f573d6000803e3d6000fd5b5050505050565b6001602052816000526040600020818154811061195257600080fd5b9060005260206000209060030201600091509150508060000160009054906101000a900473ffffffffffffffffffffffffffffffffffffffff16908060010154908060020160009054906101000a900473ffffffffffffffffffffffffffffffffffffffff16905083565b60007f01ffc9a7000000000000000000000000000000000000000000000000000000007bffffffffffffffffffffffffffffffffffffffffffffffffffffffff1916827bffffffffffffffffffffffffffffffffffffffffffffffffffffffff1916149050919050565b600033905090565b611a39828261139e565b611ac857611a5e8173ffffffffffffffffffffffffffffffffffffffff16601461249e565b611a6c8360001c602061249e565b604051602001611a7d9291906132c7565b6040516020818303038152906040526040517f08c379a0000000000000000000000000000000000000000000000000000000008152600401611abf9190613668565b60405180910390fd5b5050565b611ad6828261139e565b611ba857600160008084815260200190815260200160002060000160008373ffffffffffffffffffffffffffffffffffffffff1673ffffffffffffffffffffffffffffffffffffffff16815260200190815260200160002060006101000a81548160ff021916908315150217905550611b4d611a27565b73ffffffffffffffffffffffffffffffffffffffff168173ffffffffffffffffffffffffffffffffffffffff16837f2f8788117e7eff1d82e926ec794901d17c78024a50270940304540a733656f0d60405160405180910390a45b5050565b611bb6828261139e565b15611c8957600080600084815260200190815260200160002060000160008373ffffffffffffffffffffffffffffffffffffffff1673ffffffffffffffffffffffffffffffffffffffff16815260200190815260200160002060006101000a81548160ff021916908315150217905550611c2e611a27565b73ffffffffffffffffffffffffffffffffffffffff168173ffffffffffffffffffffffffffffffffffffffff16837ff6391f5c32d9c69d2a47ea670b442974b53935d1edc7fd64eb21e047a839171b60405160405180910390a45b5050565b6000611c9f836000018360001b6126da565b905092915050565b60606000611cb78360000161274a565b905060608190508092505050919050565b600060026000838152602001908152602001600020905060005b8180549050811015611eb6577f000000000000000000000000000000000000000000000000000000000000000073ffffffffffffffffffffffffffffffffffffffff16633a66f9017f00000000000000000000000000000000000000000000000000000000000000006000858581548110611d6057611d5f613d65565b5b906000526020600020906003020160000154868681548110611d8557611d84613d65565b5b906000526020600020906003020160010154878781548110611daa57611da9613d65565b5b906000526020600020906003020160020160009054906101000a900473ffffffffffffffffffffffffffffffffffffffff16888881548110611def57611dee613d65565b5b906000526020600020906003020160020160149054906101000a900460ff16604051602001611e21949392919061373c565b604051602081830303815290604052876040518563ffffffff1660e01b8152600401611e509493929190613439565b602060405180830381600087803b158015611e6a57600080fd5b505af1158015611e7e573d6000803e3d6000fd5b505050506040513d601f19601f82011682018060405250810190611ea29190612c36565b508080611eae90613cbe565b915050611ce2565b50600060016000848152602001908152602001600020905060005b8180549050811015612092577f000000000000000000000000000000000000000000000000000000000000000073ffffffffffffffffffffffffffffffffffffffff16633a66f9017f00000000000000000000000000000000000000000000000000000000000000006000858581548110611f4f57611f4e613d65565b5b906000526020600020906003020160010154868681548110611f7457611f73613d65565b5b906000526020600020906003020160000160009054906101000a900473ffffffffffffffffffffffffffffffffffffffff16878781548110611fb957611fb8613d65565b5b906000526020600020906003020160020160009054906101000a900473ffffffffffffffffffffffffffffffffffffffff16604051602001611ffd93929190613705565b604051602081830303815290604052886040518563ffffffff1660e01b815260040161202c9493929190613498565b602060405180830381600087803b15801561204657600080fd5b505af115801561205a573d6000803e3d6000fd5b505050506040513d601f19601f8201168201806040525081019061207e9190612c36565b50808061208a90613cbe565b915050611ed1565b5060016003600085815260200190815260200160002060006101000a81548160ff021916908315150217905550505050565b600060026000838152602001908152602001600020905060005b81805490508110156122b7577f000000000000000000000000000000000000000000000000000000000000000073ffffffffffffffffffffffffffffffffffffffff16630825f38f7f0000000000000000000000000000000000000000000000000000000000000000600085858154811061215c5761215b613d65565b5b90600052602060002090600302016000015486868154811061218157612180613d65565b5b9060005260206000209060030201600101548787815481106121a6576121a5613d65565b5b906000526020600020906003020160020160009054906101000a900473ffffffffffffffffffffffffffffffffffffffff168888815481106121eb576121ea613d65565b5b906000526020600020906003020160020160149054906101000a900460ff1660405160200161221d949392919061373c565b604051602081830303815290604052876040518563ffffffff1660e01b815260040161224c9493929190613439565b600060405180830381600087803b15801561226657600080fd5b505af115801561227a573d6000803e3d6000fd5b505050506040513d6000823e3d601f19601f820116820180604052508101906122a39190612cd0565b5080806122af90613cbe565b9150506120de565b50600060016000848152602001908152602001600020905060005b8180549050811015612498577f000000000000000000000000000000000000000000000000000000000000000073ffffffffffffffffffffffffffffffffffffffff16630825f38f7f000000000000000000000000000000000000000000000000000000000000000060008585815481106123505761234f613d65565b5b90600052602060002090600302016001015486868154811061237557612374613d65565b5b906000526020600020906003020160000160009054906101000a900473ffffffffffffffffffffffffffffffffffffffff168787815481106123ba576123b9613d65565b5b906000526020600020906003020160020160009054906101000a900473ffffffffffffffffffffffffffffffffffffffff166040516020016123fe93929190613705565b604051602081830303815290604052886040518563ffffffff1660e01b815260040161242d9493929190613498565b600060405180830381600087803b15801561244757600080fd5b505af115801561245b573d6000803e3d6000fd5b505050506040513d6000823e3d601f19601f820116820180604052508101906124849190612cd0565b50808061249090613cbe565b9150506122d2565b50505050565b6060600060028360026124b1919061394c565b6124bb91906138f6565b67ffffffffffffffff8111156124d4576124d3613d94565b5b6040519080825280601f01601f1916602001820160405280156125065781602001600182028036833780820191505090505b5090507f30000000000000000000000000000000000000000000000000000000000000008160008151811061253e5761253d613d65565b5b60200101907effffffffffffffffffffffffffffffffffffffffffffffffffffffffffffff1916908160001a9053507f7800000000000000000000000000000000000000000000000000000000000000816001815181106125a2576125a1613d65565b5b60200101907effffffffffffffffffffffffffffffffffffffffffffffffffffffffffffff1916908160001a905350600060018460026125e2919061394c565b6125ec91906138f6565b90505b600181111561268c577f3031323334353637383961626364656600000000000000000000000000000000600f86166010811061262e5761262d613d65565b5b1a60f81b82828151811061264557612644613d65565b5b60200101907effffffffffffffffffffffffffffffffffffffffffffffffffffffffffffff1916908160001a905350600485901c94508061268590613c63565b90506125ef565b50600084146126d0576040517f08c379a00000000000000000000000000000000000000000000000000000000081526004016126c79061368a565b60405180910390fd5b8091505092915050565b60006126e683836127a6565b61273f578260000182908060018154018082558091505060019003906000526020600020016000909190919091505582600001805490508360010160008481526020019081526020016000208190555060019050612744565b600090505b92915050565b60608160000180548060200260200160405190810160405280929190818152602001828054801561279a57602002820191906000526020600020905b815481526020019060010190808311612786575b50505050509050919050565b600080836001016000848152602001908152602001600020541415905092915050565b60006127dc6127d7846137a6565b613781565b9050828152602081018484840111156127f8576127f7613e52565b5b612803848285613b32565b509392505050565b600061281e612819846137a6565b613781565b90508281526020810184848401111561283a57612839613e52565b5b612845848285613b41565b509392505050565b600061286061285b846137d7565b613781565b90508281526020810184848401111561287c5761287b613e52565b5b612887848285613b32565b509392505050565b60008135905061289e816141ef565b92915050565b60008083601f8401126128ba576128b9613e48565b5b8235905067ffffffffffffffff8111156128d7576128d6613e43565b5b6020830191508360608202830111156128f3576128f2613e4d565b5b9250929050565b60008083601f8401126129105761290f613e48565b5b8235905067ffffffffffffffff81111561292d5761292c613e43565b5b60208301915083608082028301111561294957612948613e4d565b5b9250929050565b60008135905061295f8161421d565b92915050565b6000815190506129748161421d565b92915050565b60008135905061298981614234565b92915050565b600082601f8301126129a4576129a3613e48565b5b81356129b48482602086016127c9565b91505092915050565b600082601f8301126129d2576129d1613e48565b5b81516129e284826020860161280b565b91505092915050565b6000813590506129fa81614279565b92915050565b600082601f830112612a1557612a14613e48565b5b8135612a2584826020860161284d565b91505092915050565b600081359050612a3d81614289565b92915050565b600080600060608486031215612a5c57612a5b613e5c565b5b6000612a6a8682870161288f565b9350506020612a7b86828701612a2e565b9250506040612a8c868287016129eb565b9150509250925092565b600080600080600060a08688031215612ab257612ab1613e5c565b5b6000612ac08882890161288f565b9550506020612ad188828901612a2e565b945050604086013567ffffffffffffffff811115612af257612af1613e57565b5b612afe88828901612a00565b935050606086013567ffffffffffffffff811115612b1f57612b1e613e57565b5b612b2b8882890161298f565b9250506080612b3c88828901612a2e565b9150509295509295909350565b600080600060408486031215612b6257612b61613e5c565b5b600084013567ffffffffffffffff811115612b8057612b7f613e57565b5b612b8c868287016128a4565b93509350506020612b9f86828701612a2e565b9150509250925092565b600080600060408486031215612bc257612bc1613e5c565b5b600084013567ffffffffffffffff811115612be057612bdf613e57565b5b612bec868287016128fa565b93509350506020612bff86828701612a2e565b9150509250925092565b600060208284031215612c1f57612c1e613e5c565b5b6000612c2d84828501612950565b91505092915050565b600060208284031215612c4c57612c4b613e5c565b5b6000612c5a84828501612965565b91505092915050565b60008060408385031215612c7a57612c79613e5c565b5b6000612c8885828601612950565b9250506020612c998582860161288f565b9150509250929050565b600060208284031215612cb957612cb8613e5c565b5b6000612cc78482850161297a565b91505092915050565b600060208284031215612ce657612ce5613e5c565b5b600082015167ffffffffffffffff811115612d0457612d03613e57565b5b612d10848285016129bd565b91505092915050565b600060208284031215612d2f57612d2e613e5c565b5b6000612d3d84828501612a2e565b91505092915050565b60008060408385031215612d5d57612d5c613e5c565b5b6000612d6b85828601612a2e565b9250506020612d7c858286016129eb565b9150509250929050565b60008060408385031215612d9d57612d9c613e5c565b5b6000612dab85828601612a2e565b9250506020612dbc85828601612a2e565b9150509250929050565b600080600060608486031215612ddf57612dde613e5c565b5b6000612ded86828701612a2e565b9350506020612dfe86828701612a2e565b9250506040612e0f868287016129eb565b9150509250925092565b6000612e258383613212565b60608301905092915050565b6000612e3d8383613254565b60808301905092915050565b6000612e5583836132a9565b60208301905092915050565b612e6a816139a6565b82525050565b6000612e7b82613838565b612e858185613896565b9350612e9083613808565b8060005b83811015612ec1578151612ea88882612e19565b9750612eb38361386f565b925050600181019050612e94565b5085935050505092915050565b6000612ed982613843565b612ee381856138a7565b9350612eee83613818565b8060005b83811015612f1f578151612f068882612e31565b9750612f118361387c565b925050600181019050612ef2565b5085935050505092915050565b6000612f378261384e565b612f4181856138b8565b9350612f4c83613828565b8060005b83811015612f7d578151612f648882612e49565b9750612f6f83613889565b925050600181019050612f50565b5085935050505092915050565b612f93816139b8565b82525050565b612fa2816139b8565b82525050565b612fb1816139c4565b82525050565b6000612fc282613859565b612fcc81856138c9565b9350612fdc818560208601613b41565b612fe581613e61565b840191505092915050565b612ff981613a5a565b82525050565b61300881613a5a565b82525050565b61301781613a7e565b82525050565b61302681613a7e565b82525050565b61303581613aa2565b82525050565b61304481613ab4565b82525050565b600061305582613864565b61305f81856138da565b935061306f818560208601613b41565b61307881613e61565b840191505092915050565b600061308e82613864565b61309881856138eb565b93506130a8818560208601613b41565b80840191505092915050565b60006130c16020836138da565b91506130cc82613e8c565b602082019050919050565b60006130e4601b836138da565b91506130ef82613eb5565b602082019050919050565b60006131076011836138da565b915061311282613ede565b602082019050919050565b600061312a6018836138da565b915061313582613f07565b602082019050919050565b600061314d6021836138da565b915061315882613f30565b604082019050919050565b60006131706021836138da565b915061317b82613f7f565b604082019050919050565b6000613193601c836138da565b915061319e82613fce565b602082019050919050565b60006131b66017836138eb565b91506131c182613ff7565b601782019050919050565b60006131d96011836138eb565b91506131e482614020565b601182019050919050565b60006131fc602f836138da565b915061320782614049565b604082019050919050565b6060820160008201516132286000850182612ff0565b50602082015161323b60208501826132a9565b50604082015161324e604085018261300e565b50505050565b60808201600082015161326a60008501826132a9565b50602082015161327d60208501826132a9565b506040820151613290604085018261300e565b5060608201516132a36060850182612f8a565b50505050565b6132b281613a3e565b82525050565b6132c181613a3e565b82525050565b60006132d2826131a9565b91506132de8285613083565b91506132e9826131cc565b91506132f58284613083565b91508190509392505050565b60006020820190506133166000830184612e61565b92915050565b600060a0820190506133316000830187612e61565b61333e602083018661303b565b818103604083015261334f816130d7565b905081810360608301526133638185612fb7565b905061337260808301846132b8565b95945050505050565b600060a0820190506133906000830187612e61565b61339d602083018661303b565b81810360408301526133ae816130fa565b905081810360608301526133c28185612fb7565b90506133d160808301846132b8565b95945050505050565b600060a0820190506133ef6000830187612e61565b6133fc602083018661303b565b818103604083015261340d8161311d565b905081810360608301526134218185612fb7565b905061343060808301846132b8565b95945050505050565b600060a08201905061344e6000830187612e61565b61345b602083018661303b565b818103604083015261346c81613140565b905081810360608301526134808185612fb7565b905061348f60808301846132b8565b95945050505050565b600060a0820190506134ad6000830187612e61565b6134ba602083018661303b565b81810360408301526134cb81613186565b905081810360608301526134df8185612fb7565b90506134ee60808301846132b8565b95945050505050565b600060a08201905061350c6000830188612e61565b61351960208301876132b8565b818103604083015261352b818661304a565b9050818103606083015261353f8185612fb7565b905061354e60808301846132b8565b9695505050505050565b600060208201905081810360008301526135728184612e70565b905092915050565b600060208201905081810360008301526135948184612ece565b905092915050565b600060208201905081810360008301526135b68184612f2c565b905092915050565b60006020820190506135d36000830184612f99565b92915050565b60006020820190506135ee6000830184612fa8565b92915050565b6000602082019050818103600083015261360e8184612fb7565b905092915050565b600060608201905061362b6000830186612fff565b61363860208301856132b8565b613645604083018461301d565b949350505050565b6000602082019050613662600083018461302c565b92915050565b60006020820190508181036000830152613682818461304a565b905092915050565b600060208201905081810360008301526136a3816130b4565b9050919050565b600060208201905081810360008301526136c381613163565b9050919050565b600060208201905081810360008301526136e3816131ef565b9050919050565b60006020820190506136ff60008301846132b8565b92915050565b600060608201905061371a60008301866132b8565b6137276020830185612fff565b613734604083018461301d565b949350505050565b600060808201905061375160008301876132b8565b61375e60208301866132b8565b61376b604083018561301d565b6137786060830184612f99565b95945050505050565b600061378b61379c565b90506137978282613c8d565b919050565b6000604051905090565b600067ffffffffffffffff8211156137c1576137c0613d94565b5b6137ca82613e61565b9050602081019050919050565b600067ffffffffffffffff8211156137f2576137f1613d94565b5b6137fb82613e61565b9050602081019050919050565b6000819050602082019050919050565b6000819050602082019050919050565b6000819050602082019050919050565b600081519050919050565b600081519050919050565b600081519050919050565b600081519050919050565b600081519050919050565b6000602082019050919050565b6000602082019050919050565b6000602082019050919050565b600082825260208201905092915050565b600082825260208201905092915050565b600082825260208201905092915050565b600082825260208201905092915050565b600082825260208201905092915050565b600081905092915050565b600061390182613a3e565b915061390c83613a3e565b9250827fffffffffffffffffffffffffffffffffffffffffffffffffffffffffffffffff0382111561394157613940613d07565b5b828201905092915050565b600061395782613a3e565b915061396283613a3e565b9250817fffffffffffffffffffffffffffffffffffffffffffffffffffffffffffffffff048311821515161561399b5761399a613d07565b5b828202905092915050565b60006139b182613a1e565b9050919050565b60008115159050919050565b6000819050919050565b60007fffffffff0000000000000000000000000000000000000000000000000000000082169050919050565b6000613a05826139a6565b9050919050565b6000613a17826139a6565b9050919050565b600073ffffffffffffffffffffffffffffffffffffffff82169050919050565b6000819050919050565b6000613a53826139b8565b9050919050565b6000613a6582613ac6565b9050919050565b6000613a7782613aea565b9050919050565b6000613a8982613ac6565b9050919050565b6000613a9b82613afc565b9050919050565b6000613aad82613ad8565b9050919050565b6000613abf82613a3e565b9050919050565b6000613ad182613b0e565b9050919050565b6000613ae382613b0e565b9050919050565b6000613af582613b0e565b9050919050565b6000613b0782613b0e565b9050919050565b6000613b1982613a1e565b9050919050565b6000613b2b82613a3e565b9050919050565b82818337600083830152505050565b60005b83811015613b5f578082015181840152602081019050613b44565b83811115613b6e576000848401525b50505050565b600081016000830180613b8681613e01565b9050613b928184614147565b505050600181016020830180613ba781613e2d565b9050613bb381846141a9565b505050600281016040830180613bc881613e17565b9050613bd4818461416a565b5050505050565b600081016000830180613bed81613e2d565b9050613bf981846141a9565b505050600181016020830180613c0e81613e2d565b9050613c1a81846141a9565b505050600281016040830180613c2f81613e17565b9050613c3b818461416a565b505050600281016060830180613c5081613deb565b9050613c5c81846141cc565b5050505050565b6000613c6e82613a3e565b91506000821415613c8257613c81613d07565b5b600182039050919050565b613c9682613e61565b810181811067ffffffffffffffff82111715613cb557613cb4613d94565b5b80604052505050565b6000613cc982613a3e565b91507fffffffffffffffffffffffffffffffffffffffffffffffffffffffffffffffff821415613cfc57613cfb613d07565b5b600182019050919050565b7f4e487b7100000000000000000000000000000000000000000000000000000000600052601160045260246000fd5b7f4e487b7100000000000000000000000000000000000000000000000000000000600052602160045260246000fd5b7f4e487b7100000000000000000000000000000000000000000000000000000000600052603260045260246000fd5b7f4e487b7100000000000000000000000000000000000000000000000000000000600052604160045260246000fd5b6000819050919050565b6000819050919050565b6000819050919050565b6000819050919050565b60008135613df881614206565b80915050919050565b60008135613e0e8161424b565b80915050919050565b60008135613e2481614262565b80915050919050565b60008135613e3a81614289565b80915050919050565b600080fd5b600080fd5b600080fd5b600080fd5b600080fd5b600080fd5b6000601f19601f8301169050919050565b60008160001b9050919050565b60008160a01b9050919050565b7f537472696e67733a20686578206c656e67746820696e73756666696369656e74600082015250565b7f757064617465456d697373696f6e526174652875696e74323536290000000000600082015250565b7f7472656173757279286164647265737329000000000000000000000000000000600082015250565b7f73657450656e64696e6741646d696e2861646472657373290000000000000000600082015250565b7f7365742875696e743235362c75696e743235362c616464726573732c626f6f6c60008201527f2900000000000000000000000000000000000000000000000000000000000000602082015250565b7f45544120616c726561647920757365642c2063686f7365206f7468657220657460008201527f6100000000000000000000000000000000000000000000000000000000000000602082015250565b7f6164642875696e743235362c616464726573732c616464726573732900000000600082015250565b7f416363657373436f6e74726f6c3a206163636f756e7420000000000000000000600082015250565b7f206973206d697373696e6720726f6c6520000000000000000000000000000000600082015250565b7f416363657373436f6e74726f6c3a2063616e206f6e6c792072656e6f756e636560008201527f20726f6c657320666f722073656c660000000000000000000000000000000000602082015250565b600074ff00000000000000000000000000000000000000006140b984613e7f565b9350801983169250808416831791505092915050565b600073ffffffffffffffffffffffffffffffffffffffff6140ef84613e72565b9350801983169250808416831791505092915050565b60007fffffffffffffffffffffffffffffffffffffffffffffffffffffffffffffffff61413184613e72565b9350801983169250808416831791505092915050565b61415082613a6c565b61416361415c82613dcd565b83546140cf565b8255505050565b61417382613a90565b61418661417f82613dd7565b83546140cf565b8255505050565b6141978282613b74565b5050565b6141a58282613bdb565b5050565b6141b282613b20565b6141c56141be82613de1565b8354614105565b8255505050565b6141d582613a48565b6141e86141e182613dc3565b8354614098565b8255505050565b6141f8816139a6565b811461420357600080fd5b50565b61420f816139b8565b811461421a57600080fd5b50565b614226816139c4565b811461423157600080fd5b50565b61423d816139ce565b811461424857600080fd5b50565b614254816139fa565b811461425f57600080fd5b50565b61426b81613a0c565b811461427657600080fd5b50565b6002811061428657600080fd5b50565b61429281613a3e565b811461429d57600080fd5b5056fea2646970667358221220011ecb1c32284f7d8410214cef17951d14672540277e195b44e5750ab57d40ab64736f6c63430008070033",
  "linkReferences": {},
  "deployedLinkReferences": {}
}