{
  "_format": "hh-sol-artifact-1",
  "contractName": "BalancerPoolToken",
  "sourceName": "contracts/WeightedPoolFactory.sol",
  "abi": [
    {
      "inputs": [
        {
          "internalType": "string",
          "name": "tokenName",
          "type": "string"
        },
        {
          "internalType": "string",
          "name": "tokenSymbol",
          "type": "string"
        }
      ],
      "stateMutability": "nonpayable",
      "type": "constructor"
    },
    {
      "anonymous": false,
      "inputs": [
        {
          "indexed": true,
          "internalType": "address",
          "name": "owner",
          "type": "address"
        },
        {
          "indexed": true,
          "internalType": "address",
          "name": "spender",
          "type": "address"
        },
        {
          "indexed": false,
          "internalType": "uint256",
          "name": "value",
          "type": "uint256"
        }
      ],
      "name": "Approval",
      "type": "event"
    },
    {
      "anonymous": false,
      "inputs": [
        {
          "indexed": true,
          "internalType": "address",
          "name": "from",
          "type": "address"
        },
        {
          "indexed": true,
          "internalType": "address",
          "name": "to",
          "type": "address"
        },
        {
          "indexed": false,
          "internalType": "uint256",
          "name": "value",
          "type": "uint256"
        }
      ],
      "name": "Transfer",
      "type": "event"
    },
    {
      "inputs": [],
      "name": "DOMAIN_SEPARATOR",
      "outputs": [
        {
          "internalType": "bytes32",
          "name": "",
          "type": "bytes32"
        }
      ],
      "stateMutability": "view",
      "type": "function"
    },
    {
      "inputs": [
        {
          "internalType": "address",
          "name": "owner",
          "type": "address"
        },
        {
          "internalType": "address",
          "name": "spender",
          "type": "address"
        }
      ],
      "name": "allowance",
      "outputs": [
        {
          "internalType": "uint256",
          "name": "",
          "type": "uint256"
        }
      ],
      "stateMutability": "view",
      "type": "function"
    },
    {
      "inputs": [
        {
          "internalType": "address",
          "name": "spender",
          "type": "address"
        },
        {
          "internalType": "uint256",
          "name": "amount",
          "type": "uint256"
        }
      ],
      "name": "approve",
      "outputs": [
        {
          "internalType": "bool",
          "name": "",
          "type": "bool"
        }
      ],
      "stateMutability": "nonpayable",
      "type": "function"
    },
    {
      "inputs": [
        {
          "internalType": "address",
          "name": "account",
          "type": "address"
        }
      ],
      "name": "balanceOf",
      "outputs": [
        {
          "internalType": "uint256",
          "name": "",
          "type": "uint256"
        }
      ],
      "stateMutability": "view",
      "type": "function"
    },
    {
      "inputs": [],
      "name": "decimals",
      "outputs": [
        {
          "internalType": "uint8",
          "name": "",
          "type": "uint8"
        }
      ],
      "stateMutability": "pure",
      "type": "function"
    },
    {
      "inputs": [
        {
          "internalType": "address",
          "name": "spender",
          "type": "address"
        },
        {
          "internalType": "uint256",
          "name": "amount",
          "type": "uint256"
        }
      ],
      "name": "decreaseApproval",
      "outputs": [
        {
          "internalType": "bool",
          "name": "",
          "type": "bool"
        }
      ],
      "stateMutability": "nonpayable",
      "type": "function"
    },
    {
      "inputs": [
        {
          "internalType": "address",
          "name": "spender",
          "type": "address"
        },
        {
          "internalType": "uint256",
          "name": "amount",
          "type": "uint256"
        }
      ],
      "name": "increaseApproval",
      "outputs": [
        {
          "internalType": "bool",
          "name": "",
          "type": "bool"
        }
      ],
      "stateMutability": "nonpayable",
      "type": "function"
    },
    {
      "inputs": [],
      "name": "name",
      "outputs": [
        {
          "internalType": "string",
          "name": "",
          "type": "string"
        }
      ],
      "stateMutability": "view",
      "type": "function"
    },
    {
      "inputs": [
        {
          "internalType": "address",
          "name": "owner",
          "type": "address"
        }
      ],
      "name": "nonces",
      "outputs": [
        {
          "internalType": "uint256",
          "name": "",
          "type": "uint256"
        }
      ],
      "stateMutability": "view",
      "type": "function"
    },
    {
      "inputs": [
        {
          "internalType": "address",
          "name": "owner",
          "type": "address"
        },
        {
          "internalType": "address",
          "name": "spender",
          "type": "address"
        },
        {
          "internalType": "uint256",
          "name": "value",
          "type": "uint256"
        },
        {
          "internalType": "uint256",
          "name": "deadline",
          "type": "uint256"
        },
        {
          "internalType": "uint8",
          "name": "v",
          "type": "uint8"
        },
        {
          "internalType": "bytes32",
          "name": "r",
          "type": "bytes32"
        },
        {
          "internalType": "bytes32",
          "name": "s",
          "type": "bytes32"
        }
      ],
      "name": "permit",
      "outputs": [],
      "stateMutability": "nonpayable",
      "type": "function"
    },
    {
      "inputs": [],
      "name": "symbol",
      "outputs": [
        {
          "internalType": "string",
          "name": "",
          "type": "string"
        }
      ],
      "stateMutability": "view",
      "type": "function"
    },
    {
      "inputs": [],
      "name": "totalSupply",
      "outputs": [
        {
          "internalType": "uint256",
          "name": "",
          "type": "uint256"
        }
      ],
      "stateMutability": "view",
      "type": "function"
    },
    {
      "inputs": [
        {
          "internalType": "address",
          "name": "recipient",
          "type": "address"
        },
        {
          "internalType": "uint256",
          "name": "amount",
          "type": "uint256"
        }
      ],
      "name": "transfer",
      "outputs": [
        {
          "internalType": "bool",
          "name": "",
          "type": "bool"
        }
      ],
      "stateMutability": "nonpayable",
      "type": "function"
    },
    {
      "inputs": [
        {
          "internalType": "address",
          "name": "sender",
          "type": "address"
        },
        {
          "internalType": "address",
          "name": "recipient",
          "type": "address"
        },
        {
          "internalType": "uint256",
          "name": "amount",
          "type": "uint256"
        }
      ],
      "name": "transferFrom",
      "outputs": [
        {
          "internalType": "bool",
          "name": "",
          "type": "bool"
        }
      ],
      "stateMutability": "nonpayable",
      "type": "function"
    }
  ],
  "bytecode": "0x6101006040527f6e71edae12b1b97f4d1f60370fef10105fa2faae0126114a169c64845d6126c960e0523480156200003657600080fd5b5060405162000dd238038062000dd2833981016040819052620000599162000220565b6040805180820190915260018152603160f81b602080830191825284519085019081206080529151902060a0527f8b73c3c69bb8fe3d512ecc4cf759cc79239f7b179b0ffacaa9a75d522b39400f60c0528251620000ba91600391620000d9565b508051620000d0906004906020840190620000d9565b50505062000287565b828054600181600116156101000203166002900490600052602060002090601f0160209004810192826200011157600085556200015c565b82601f106200012c57805160ff19168380011785556200015c565b828001600101855582156200015c579182015b828111156200015c5782518255916020019190600101906200013f565b506200016a9291506200016e565b5090565b5b808211156200016a57600081556001016200016f565b600082601f83011262000196578081fd5b81516001600160401b0380821115620001ab57fe5b6040516020601f8401601f1916820181018381118382101715620001cb57fe5b6040528382528584018101871015620001e2578485fd5b8492505b83831015620002055785830181015182840182015291820191620001e6565b838311156200021657848185840101525b5095945050505050565b6000806040838503121562000233578182fd5b82516001600160401b03808211156200024a578384fd5b620002588683870162000185565b935060208501519150808211156200026e578283fd5b506200027d8582860162000185565b9150509250929050565b60805160a05160c05160e051610b15620002bd6000398061047f5250806107415250806107835250806107625250610b156000f3fe608060405234801561001057600080fd5b50600436106100ea5760003560e01c806370a082311161008c578063a9059cbb11610066578063a9059cbb146101b3578063d505accf146101c6578063d73dd623146101db578063dd62ed3e146101ee576100ea565b806370a08231146101855780637ecebe001461019857806395d89b41146101ab576100ea565b806323b872dd116100c857806323b872dd14610142578063313ce567146101555780633644e5151461016a5780636618846314610172576100ea565b806306fdde03146100ef578063095ea7b31461010d57806318160ddd1461012d575b600080fd5b6100f7610201565b6040516101049190610a7e565b60405180910390f35b61012061011b3660046109a8565b610297565b60405161010491906109ec565b6101356102ad565b60405161010491906109f7565b6101206101503660046108fc565b6102b3565b61015d610334565b6040516101049190610ad1565b610135610339565b6101206101803660046109a8565b610348565b6101356101933660046108b0565b6103a2565b6101356101a63660046108b0565b6103c1565b6100f76103dc565b6101206101c13660046109a8565b61043d565b6101d96101d4366004610937565b61044a565b005b6101206101e93660046109a8565b610593565b6101356101fc3660046108ca565b6105c9565b60038054604080516020601f600260001961010060018816150201909516949094049384018190048102820181019092528281526060939092909183018282801561028d5780601f106102625761010080835404028352916020019161028d565b820191906000526020600020905b81548152906001019060200180831161027057829003601f168201915b5050505050905090565b60006102a43384846105f4565b50600192915050565b60025490565b6001600160a01b038316600081815260016020908152604080832033808552925282205491926102f19114806102e95750838210155b61019761065c565b6102fc85858561066e565b336001600160a01b0386161480159061031757506000198114155b156103295761032985338584036105f4565b506001949350505050565b601290565b600061034361073d565b905090565b3360009081526001602090815260408083206001600160a01b03861684529091528120548083106103845761037f338560006105f4565b610398565b610398338561039384876107da565b6105f4565b5060019392505050565b6001600160a01b0381166000908152602081905260409020545b919050565b6001600160a01b031660009081526005602052604090205490565b60048054604080516020601f600260001961010060018816150201909516949094049384018190048102820181019092528281526060939092909183018282801561028d5780601f106102625761010080835404028352916020019161028d565b60006102a433848461066e565b6104588442111560d161065c565b6001600160a01b03871660009081526005602090815260408083205490519092916104af917f0000000000000000000000000000000000000000000000000000000000000000918c918c918c9188918d9101610a00565b60405160208183030381529060405280519060200120905060006104d2826107f0565b90506000600182888888604051600081526020016040526040516104f99493929190610a60565b6020604051602081039080840390855afa15801561051b573d6000803e3d6000fd5b5050604051601f190151915061055d90506001600160a01b0382161580159061055557508b6001600160a01b0316826001600160a01b0316145b6101f861065c565b6001600160a01b038b1660009081526005602052604090206001850190556105868b8b8b6105f4565b5050505050505050505050565b3360008181526001602090815260408083206001600160a01b038716845290915281205490916102a49185906103939086610829565b6001600160a01b03918216600090815260016020908152604080832093909416825291909152205490565b6001600160a01b0380841660008181526001602090815260408083209487168084529490915290819020849055517f8c5be1e5ebec7d5bd14f71427d1e84f3dd0314c0f7b2291e5b200ac8c7c3b9259061064f9085906109f7565b60405180910390a3505050565b8161066a5761066a81610842565b5050565b6001600160a01b0383166000908152602081905260409020546106968282101561019661065c565b6106ad6001600160a01b038416151561019961065c565b6001600160a01b038085166000908152602081905260408082208585039055918516815220546106dd9083610829565b6001600160a01b0380851660008181526020819052604090819020939093559151908616907fddf252ad1be2c89b69c2b068fc378daa952ba7f163c4a11628f55a4df523b3ef9061072f9086906109f7565b60405180910390a350505050565b60007f00000000000000000000000000000000000000000000000000000000000000007f00000000000000000000000000000000000000000000000000000000000000007f00000000000000000000000000000000000000000000000000000000000000006107aa610895565b306040516020016107bf959493929190610a34565b60405160208183030381529060405280519060200120905090565b60006107ea83831115600161065c565b50900390565b60006107fa61073d565b8260405160200161080c9291906109d1565b604051602081830303815290604052805190602001209050919050565b600082820161083b848210158361065c565b9392505050565b62461bcd60e51b6000908152602060045260076024526642414c23000030600a808404818106603090810160081b95839006959095019082900491820690940160101b939093010160c81b604452606490fd5b4690565b80356001600160a01b03811681146103bc57600080fd5b6000602082840312156108c1578081fd5b61083b82610899565b600080604083850312156108dc578081fd5b6108e583610899565b91506108f360208401610899565b90509250929050565b600080600060608486031215610910578081fd5b61091984610899565b925061092760208501610899565b9150604084013590509250925092565b600080600080600080600060e0888a031215610951578283fd5b61095a88610899565b965061096860208901610899565b95506040880135945060608801359350608088013560ff8116811461098b578384fd5b9699959850939692959460a0840135945060c09093013592915050565b600080604083850312156109ba578182fd5b6109c383610899565b946020939093013593505050565b61190160f01b81526002810192909252602282015260420190565b901515815260200190565b90815260200190565b9586526001600160a01b0394851660208701529290931660408501526060840152608083019190915260a082015260c00190565b9485526020850193909352604084019190915260608301526001600160a01b0316608082015260a00190565b93845260ff9290921660208401526040830152606082015260800190565b6000602080835283518082850152825b81811015610aaa57858101830151858201604001528201610a8e565b81811115610abb5783604083870101525b50601f01601f1916929092016040019392505050565b60ff9190911681526020019056fea26469706673582212207d248a8909a63cfbc7edeafb6aa55b5a1b82a2963796719008cf1f1adde8ebcb64736f6c63430007060033",
  "linkReferences": {},
  "deployedLinkReferences": {}
}