{
	"data": {
		"bytecode": {
			"linkReferences": {},
			"object": "6102c06040527f6e71edae12b1b97f4d1f60370fef10105fa2faae0126114a169c64845d6126c9610120523480156200003757600080fd5b50604051620051ed380380620051ed8339810160408190526200005a9162000c0e565b898989898989898989898960008a8a620000768b8b306200050f565b6040805160038082526080820190925290602082016060803683370190505089898989828289898d8280604051806040016040528060018152602001603160f81b81525085858a336001600160a01b031660001b806080818152505050806001600160a01b031660a0816001600160a01b031660601b815250505081600390805190602001906200010992919062000a59565b5080516200011f90600490602084019062000a59565b505060058054601260ff1990911617905550815160209283012060c052805191012060e052507f8b73c3c69bb8fe3d512ecc4cf759cc79239f7b179b0ffacaa9a75d522b39400f6101005260601b6001600160601b03191661014052506200019290506276a700831115610194620005de565b620001a662278d00821115610195620005de565b4290910161016081905201610180528551620001c8906002111560c8620005de565b620001e2620001d6620005f3565b8751111560c9620005de565b620001f886620005f860201b620013771760201c565b620002038462000604565b6040516309b2760f60e01b81526000906001600160a01b038c16906309b2760f9062000234908d9060040162000da6565b602060405180830381600087803b1580156200024f57600080fd5b505af115801562000264573d6000803e3d6000fd5b505050506040513d601f19601f820116820180604052508101906200028a919062000bf5565b604051633354e3e960e11b81529091506001600160a01b038c16906366a9c7d290620002bf9084908b908b9060040162000d0c565b600060405180830381600087803b158015620002da57600080fd5b505af1158015620002ef573d6000803e3d6000fd5b50505050806101a081815250505050505050505050505050866001600160a01b03166101c0816001600160a01b031660601b81525050856001600160a01b03166101e0816001600160a01b031660601b8152505060008060006200035b8a8a306200069060201b60201c565b610200819052610220839052610240829052919450925090506200037f8a62000786565b610260526200038e8962000786565b610280526000620003a18b828b6200085a565b5050505050505050505050505050856001600160a01b03166102a0816001600160a01b031660601b815250506200045d866001600160a01b0316636f307dc36040518163ffffffff1660e01b815260040160206040518083038186803b1580156200040b57600080fd5b505afa15801562000420573d6000803e3d6000fd5b505050506040513d601f19601f8201168201806040525081019062000446919062000bad565b6001600160a01b03898116911614610208620005de565b856001600160a01b031663fe9c44ae6040518163ffffffff1660e01b815260040160206040518083038186803b1580156200049757600080fd5b505afa158015620004ac573d6000803e3d6000fd5b505050506040513d601f19601f82011682018060405250810190620004d2919062000bd3565b1515600114620004ff5760405162461bcd60e51b8152600401620004f69062000dbb565b60405180910390fd5b5050505050505050505062000e1f565b6060600080806200052287878762000690565b60408051600380825260808201909252939650919450925060208201606080368337019050509350868484815181106200055857fe5b60200260200101906001600160a01b031690816001600160a01b031681525050858483815181106200058657fe5b60200260200101906001600160a01b031690816001600160a01b03168152505084848281518110620005b457fe5b60200260200101906001600160a01b031690816001600160a01b0316815250505050509392505050565b81620005ef57620005ef8162000908565b5050565b600390565b80620005ef816200095b565b6200061964e8d4a5100082101560cb620005de565b6200063167016345785d8a000082111560ca620005de565b620006508160c0600854620009e860201b62001381179092919060201c565b6008556040517fa9ba3ffe0b6c366b81232caab38605a0699ad5398d6cce76f91ee809e322dafc906200068590839062000df2565b60405180910390a150565b6000806000846001600160a01b0316866001600160a01b031610156200071957836001600160a01b0316856001600160a01b03161015620006dc5750600091506001905060026200077d565b836001600160a01b0316866001600160a01b03161015620007085750600091506002905060016200077d565b50600191506002905060006200077d565b846001600160a01b0316846001600160a01b03161015620007455750600291506001905060006200077d565b856001600160a01b0316846001600160a01b03161015620007715750600291506000905060016200077d565b50600191506000905060025b93509350939050565b60006001600160a01b038216301415620007aa5750670de0b6b3a764000062000855565b6000826001600160a01b031663313ce5676040518163ffffffff1660e01b815260040160206040518083038186803b158015620007e657600080fd5b505afa158015620007fb573d6000803e3d6000fd5b505050506040513d601f19601f8201168201806040525081019062000821919062000ce9565b60ff169050600062000840601283620009fd60201b620013971760201c565b905080600a0a670de0b6b3a764000002925050505b919050565b6200086b8183111561014c620005de565b620008836001600160601b0382111561014d620005de565b620008be6200089f82606062000a1560201b620013ad1760201c565b620008b784600062000a1560201b620013ad1760201c565b1762000a19565b826001600160a01b03167fd0e27a0d0c2cb09280fa5e4487315455b32afcdcf012dc35b6ef2a0e3c4d12808383604051620008fb92919062000dfb565b60405180910390a2505050565b62461bcd60e51b6000908152602060045260076024526642414c23000030600a808404818106603090810160081b95839006959095019082900491820690940160101b939093010160c81b604452606490fd5b6002815110156200096c57620009e5565b6000816000815181106200097c57fe5b602002602001015190506000600190505b8251811015620009e2576000838281518110620009a657fe5b60200260200101519050620009d7816001600160a01b0316846001600160a01b0316106065620005de60201b60201c565b91506001016200098d565b50505b50565b6001600160401b03811b1992909216911b1790565b600062000a0f838311156001620005de565b50900390565b1b90565b62000a3881600060085462000a3e60201b620013b1179092919060201c565b60085550565b6001600160c01b03828116821b90821b198416179392505050565b828054600181600116156101000203166002900490600052602060002090601f01602090048101928262000a91576000855562000adc565b82601f1062000aac57805160ff191683800117855562000adc565b8280016001018555821562000adc579182015b8281111562000adc57825182559160200191906001019062000abf565b5062000aea92915062000aee565b5090565b5b8082111562000aea576000815560010162000aef565b8051620008558162000e09565b600082601f83011262000b23578081fd5b81516001600160401b038082111562000b3857fe5b6040516020601f8401601f191682018101838111838210171562000b5857fe5b604052838252858401810187101562000b6f578485fd5b8492505b8383101562000b92578583018101518284018201529182019162000b73565b8383111562000ba357848185840101525b5095945050505050565b60006020828403121562000bbf578081fd5b815162000bcc8162000e09565b9392505050565b60006020828403121562000be5578081fd5b8151801515811462000bcc578182fd5b60006020828403121562000c07578081fd5b5051919050565b6000806000806000806000806000806101408b8d03121562000c2e578586fd5b62000c398b62000b05565b60208c0151909a506001600160401b038082111562000c56578788fd5b62000c648e838f0162000b12565b9a5060408d015191508082111562000c7a578788fd5b5062000c898d828e0162000b12565b98505062000c9a60608c0162000b05565b965062000caa60808c0162000b05565b955060a08b0151945060c08b0151935060e08b015192506101008b0151915062000cd86101208c0162000b05565b90509295989b9194979a5092959850565b60006020828403121562000cfb578081fd5b815160ff8116811462000bcc578182fd5b60006060820185835260206060818501528186518084526080860191508288019350845b8181101562000d575784516001600160a01b03168352938301939183019160010162000d30565b505084810360408601528551808252908201925081860190845b8181101562000d985782516001600160a01b03168552938301939183019160010162000d71565b509298975050505050505050565b602081016003831062000db557fe5b91905290565b6020808252601a908201527f57726170706564546f6b656e206973206e6f742043546f6b656e000000000000604082015260600190565b90815260200190565b918252602082015260400190565b6001600160a01b0381168114620009e557600080fd5b60805160a05160601c60c05160e05161010051610120516101405160601c61016051610180516101a0516101c05160601c6101e05160601c61020051610220516102405161026051610280516102a05160601c6141ef62000ffe600039806122de528061237352508061147b525080611417528061222a5250806107235280610ab252806114a3528061261a52806127ca52806129215280612a935280612c2f5280612d865250806108b35280610a7852806114395280611ab652806125e6528061274f528061279652806128ab52806128ed5280612a5f5280612bb95280612bfb5280612d105280612d52525080610af35280610cbc5280610da352806112f852806114e4528061216f5280612651528061280152806129585280612aca5280612c665280612dbd5280612fa25280612fda52508061134b52806115ff52806116cb5280612250528061259b52806126db5280612a155280612b455250806108d75280610f2452806115b652806116825280611aec52806121ef528061255c528061267d528061283752806129d65280612af65280612c9c525080610854525080611875525080611851525080610e63525080610fda52508061197b5250806119bd52508061199c525080610e3f525080610dc952506141ef6000f3fe608060405234801561001057600080fd5b50600436106102535760003560e01c8063679aefce1161014657806395d89b41116100c3578063d505accf11610087578063d505accf146104b2578063d5c096c4146104c5578063dd62ed3e146104d8578063de82cd34146104eb578063f174e241146104f3578063f5431aa8146104fb57610253565b806395d89b41146104695780639f11080e14610471578063a457c2d714610484578063a9059cbb14610497578063aaabadc5146104aa57610253565b806382687a561161010a57806382687a561461042b578063851c1bb31461043357806387ec681714610446578063893d20e8146104595780638d928af81461046157610253565b8063679aefce146103d457806370a08231146103dc57806374f3b009146103ef5780637ecebe00146104105780638129fc1c1461042357610253565b80633644e515116101d45780634de046d5116101985780634de046d51461036d57806350dd6ed91461038257806355c67628146103955780636028bfd41461039d57806363fe3b56146103be57610253565b80633644e5151461032f57806338e9922e1461033757806338fff2d01461034a57806339509351146103525780634d64cd741461036557610253565b806318160ddd1161021b57806318160ddd146102d35780631c0de051146102db5780631dd746ea146102f257806323b872dd14610307578063313ce5671461031a57610253565b806301ec954a1461025857806306fdde0314610281578063095ea7b31461029657806316b8d6ff146102b657806316c38b3c146102be575b600080fd5b61026b610266366004613c66565b610503565b6040516102789190613f6a565b60405180910390f35b610289610673565b60405161027891906140fd565b6102a96102a43660046139bd565b61070a565b6040516102789190613f47565b61026b610721565b6102d16102cc366004613ab4565b610745565b005b61026b610759565b6102e361075f565b60405161027893929190613f52565b6102fa610788565b6040516102789190613f0f565b6102a961031536600461390d565b610797565b61032261080d565b6040516102789190614137565b61026b610816565b6102d1610345366004613d80565b610820565b61026b610852565b6102a96103603660046139bd565b610876565b61026b6108b1565b6103756108d5565b6040516102789190613efb565b6102d1610390366004613bd3565b6108f9565b61026b610917565b6103b06103ab366004613aec565b610928565b604051610278929190614110565b6103c661095f565b604051610278929190614129565b61026b61098d565b61026b6103ea3660046138b9565b610b3b565b6104026103fd366004613aec565b610b5a565b604051610278929190613f22565b61026b61041e3660046138b9565b610bd8565b6102d1610bf3565b61026b610da1565b61026b610441366004613b8f565b610dc5565b6103b0610454366004613aec565b610e17565b610375610e3d565b610375610e61565b610289610e85565b6102d161047f366004613db0565b610ee6565b6102a96104923660046139bd565b610f50565b6102a96104a53660046139bd565b610f8e565b610375610f9b565b6102d16104c036600461394d565b610fa5565b6104026104d3366004613aec565b6110ee565b61026b6104e63660046138d5565b61121e565b61026b61125b565b610375611349565b61026b61136d565b60008460800151610530610515610e61565b6001600160a01b0316336001600160a01b03161460cd6113cc565b61054561053b610852565b82146101f46113cc565b61054d6113da565b6105676003851080156105605750600384105b60646113cc565b60006105716113ef565b905061057d868261151d565b60008061058861095f565b91509150600060405180606001604052806105a1610917565b815260208101859052604001839052905060008a5160018111156105c157fe5b1415610625576105e88a60600151858a815181106105db57fe5b602002602001015161157e565b60608b015260006105fa8b8b8461158a565b905061061981868a8151811061060c57fe5b6020026020010151611651565b9650505050505061066a565b6106398a606001518589815181106105db57fe5b60608b0152600061064b8b8b8461165d565b905061061981868b8151811061065d57fe5b6020026020010151611712565b50949350505050565b60038054604080516020601f60026000196101006001881615020190951694909404938401819004810282018101909252828152606093909290918301828280156106ff5780601f106106d4576101008083540402835291602001916106ff565b820191906000526020600020905b8154815290600101906020018083116106e257829003601f168201915b505050505090505b90565b600061071733848461171e565b5060015b92915050565b7f000000000000000000000000000000000000000000000000000000000000000090565b61074d611786565b610756816117b4565b50565b60025490565b600080600061076c611832565b15925061077761184f565b9150610781611873565b9050909192565b60606107926113ef565b905090565b6000806107a4853361121e565b90506107c8336001600160a01b03871614806107c05750838210155b61019e6113cc565b6107d3858585611897565b336001600160a01b038616148015906107ee57506000198114155b1561080057610800853385840361171e565b60019150505b9392505050565b60055460ff1690565b6000610792611977565b60008061082b61095f565b9150915061084461083c8383611a14565b61014f6113cc565b61084d83611b2c565b505050565b7f000000000000000000000000000000000000000000000000000000000000000090565b3360008181526001602090815260408083206001600160a01b038716845290915281205490916107179185906108ac9086611b45565b61171e565b7f000000000000000000000000000000000000000000000000000000000000000090565b7f000000000000000000000000000000000000000000000000000000000000000090565b610901611786565b6109096113da565b6109138282611b57565b5050565b6008546000906107929060c0611c1e565b6000606061093e8651610939611c2c565b611c31565b61095389898989898989611c3e611ce2611d43565b97509795505050505050565b600080600061096c611e65565b9050610979816000611e6b565b9250610986816060611e6b565b9150509091565b600080610998610852565b905060006109a4610e61565b6001600160a01b031663f94d4668836040518263ffffffff1660e01b81526004016109cf9190613f6a565b60006040518083038186803b1580156109e757600080fd5b505afa1580156109fb573d6000803e3d6000fd5b505050506040513d6000823e601f3d908101601f19168201604052610a2391908101906139e8565b50915050610a3881610a336113ef565b61151d565b600080610a4361095f565b9150915060006040518060600160405280610a5c610917565b81526020018481526020018381525090506000610ae8610aaf867f000000000000000000000000000000000000000000000000000000000000000081518110610aa157fe5b602002602001015184611e7d565b867f000000000000000000000000000000000000000000000000000000000000000081518110610adb57fe5b6020026020010151611ede565b9050610b30610b29867f000000000000000000000000000000000000000000000000000000000000000081518110610b1c57fe5b6020026020010151611eea565b8290611ef6565b965050505050505090565b6001600160a01b0381166000908152602081905260409020545b919050565b60608088610b69610515610e61565b610b7461053b610852565b6000610b7e6113ef565b9050610b8a888261151d565b6000806000610b9f8e8e8e8e8e8e8a8f611c3e565b925092509250610baf8d84611f4d565b610bb98285611ce2565b610bc38185611ce2565b909550935050505b5097509795505050505050565b6001600160a01b031660009081526006602052604090205490565b6000610bfd610852565b90506000610c09610e61565b6001600160a01b031663f94d4668836040518263ffffffff1660e01b8152600401610c349190613f6a565b60006040518083038186803b158015610c4c57600080fd5b505afa158015610c60573d6000803e3d6000fd5b505050506040513d6000823e601f3d908101601f19168201604052610c8891908101906139e8565b50506040805160038082526080820190925291925060009190602082016060803683370190505090506001600160701b03817f000000000000000000000000000000000000000000000000000000000000000081518110610ce557fe5b60200260200101818152505060006040518060800160405280610d0785610707565b8152602001838152602001604051806020016040528060008152508152602001600015158152509050610d38610e61565b6001600160a01b031663b95cac28853030856040518563ffffffff1660e01b8152600401610d699493929190613f92565b600060405180830381600087803b158015610d8357600080fd5b505af1158015610d97573d6000803e3d6000fd5b5050505050505050565b7f000000000000000000000000000000000000000000000000000000000000000090565b60007f000000000000000000000000000000000000000000000000000000000000000082604051602001610dfa929190613eb8565b604051602081830303815290604052805190602001209050919050565b60006060610e288651610939611c2c565b61095389898989898989611f57611f75611d43565b7f000000000000000000000000000000000000000000000000000000000000000090565b7f000000000000000000000000000000000000000000000000000000000000000090565b60048054604080516020601f60026000196101006001881615020190951694909404938401819004810282018101909252828152606093909290918301828280156106ff5780601f106106d4576101008083540402835291602001916106ff565b610eee611786565b600080610ef961095f565b91509150610f0a61083c8383611a14565b610f1f610f178585611a14565b6101576113cc565b610f4a7f00000000000000000000000000000000000000000000000000000000000000008585611fd6565b50505050565b600080610f5d338561121e565b9050808310610f7757610f723385600061171e565b610f84565b610f84338585840361171e565b5060019392505050565b6000610717338484611897565b6000610792612067565b610fb38442111560d16113cc565b6001600160a01b038716600090815260066020908152604080832054905190929161100a917f0000000000000000000000000000000000000000000000000000000000000000918c918c918c9188918d910161404f565b604051602081830303815290604052805190602001209050600061102d826120e1565b905060006001828888886040516000815260200160405260405161105494939291906140df565b6020604051602081039080840390855afa158015611076573d6000803e3d6000fd5b5050604051601f19015191506110b890506001600160a01b038216158015906110b057508b6001600160a01b0316826001600160a01b0316145b6101f86113cc565b6001600160a01b038b1660009081526006602052604090206001850190556110e18b8b8b61171e565b5050505050505050505050565b606080886110fd610515610e61565b61110861053b610852565b60006111126113ef565b905061111c610759565b6111ce576000806111308d8d8d868b6120fd565b9150915061114961113f6121b1565b83101560cc6113cc565b61115b60006111566121b1565b6121b6565b61116e8b6111676121b1565b84036121b6565b6111788184611f75565b80611181611c2c565b67ffffffffffffffff8111801561119757600080fd5b506040519080825280602002602001820160405280156111c1578160200160208202803683370190505b5095509550505050610bcb565b6111d8888261151d565b60008060006111ed8e8e8e8e8e8e8a8f611f57565b9250925092506111fd8c846121b6565b6112078285611f75565b6112118185611ce2565b9095509350610bcb915050565b6000611228610e61565b6001600160a01b0316826001600160a01b0316141561124a575060001961071b565b61125483836121c0565b905061071b565b600080611266610e61565b6001600160a01b031663f94d466861127c610852565b6040518263ffffffff1660e01b81526004016112989190613f6a565b60006040518083038186803b1580156112b057600080fd5b505afa1580156112c4573d6000803e3d6000fd5b505050506040513d6000823e601f3d908101601f191682016040526112ec91908101906139e8565b509150506000611337827f00000000000000000000000000000000000000000000000000000000000000008151811061132157fe5b6020026020010151611332306121eb565b61157e565b9050611342816122c5565b9250505090565b7f000000000000000000000000000000000000000000000000000000000000000090565b60006107926122d9565b8061091381612453565b67ffffffffffffffff811b1992909216911b1790565b60006113a78383111560016113cc565b50900390565b1b90565b6001600160c01b03828116821b90821b198416179392505050565b8161091357610913816124cc565b6113ed6113e5611832565b6101926113cc565b565b60408051600380825260808201909252606091600091906020820184803683370190505090507f0000000000000000000000000000000000000000000000000000000000000000817f00000000000000000000000000000000000000000000000000000000000000008151811061146257fe5b6020026020010181815250506114a06114796122d9565b7f00000000000000000000000000000000000000000000000000000000000000009061251f565b817f0000000000000000000000000000000000000000000000000000000000000000815181106114cc57fe5b602002602001018181525050670de0b6b3a7640000817f00000000000000000000000000000000000000000000000000000000000000008151811061150d57fe5b6020908102919091010152905090565b60005b611528611c2c565b81101561084d5761155f83828151811061153e57fe5b602002602001015183838151811061155257fe5b602002602001015161251f565b83828151811061156b57fe5b6020908102919091010152600101611520565b6000610806838361251f565b60208301516000906001600160a01b03163014156115b4576115ad848484612555565b9050610806565b7f00000000000000000000000000000000000000000000000000000000000000006001600160a01b031684602001516001600160a01b031614156115fd576115ad8484846126d4565b7f00000000000000000000000000000000000000000000000000000000000000006001600160a01b031684602001516001600160a01b03161415611646576115ad848484612830565b6108066101356124cc565b60006108068383612987565b60408301516000906001600160a01b0316301415611680576115ad8484846129cf565b7f00000000000000000000000000000000000000000000000000000000000000006001600160a01b031684604001516001600160a01b031614156116c9576115ad848484612b3e565b7f00000000000000000000000000000000000000000000000000000000000000006001600160a01b031684604001516001600160a01b03161415611646576115ad848484612c95565b60006108068383611ef6565b6001600160a01b0380841660008181526001602090815260408083209487168084529490915290819020849055517f8c5be1e5ebec7d5bd14f71427d1e84f3dd0314c0f7b2291e5b200ac8c7c3b92590611779908590613f6a565b60405180910390a3505050565b600061179d6000356001600160e01b031916610dc5565b90506107566117ac8233612dec565b6101916113cc565b80156117d4576117cf6117c561184f565b42106101936113cc565b6117e9565b6117e96117df611873565b42106101a96113cc565b6007805460ff19168215151790556040517f9e3a5e37224532dea67b89face185703738a228a6e8a23dee546960180d3be6490611827908390613f47565b60405180910390a150565b600061183c611873565b42118061079257505060075460ff161590565b7f000000000000000000000000000000000000000000000000000000000000000090565b7f000000000000000000000000000000000000000000000000000000000000000090565b6118ae6001600160a01b03841615156101986113cc565b6118c56001600160a01b03831615156101996113cc565b6118d083838361084d565b6001600160a01b0383166000908152602081905260409020546118f690826101a0612ed5565b6001600160a01b0380851660009081526020819052604080822093909355908416815220546119259082611b45565b6001600160a01b0380841660008181526020819052604090819020939093559151908516907fddf252ad1be2c89b69c2b068fc378daa952ba7f163c4a11628f55a4df523b3ef90611779908590613f6a565b60007f00000000000000000000000000000000000000000000000000000000000000007f00000000000000000000000000000000000000000000000000000000000000007f00000000000000000000000000000000000000000000000000000000000000006119e4612eeb565b306040516020016119f9959493929190614083565b60405160208183030381529060405280519060200120905090565b600080611a1f610852565b90506000611a2b610e61565b6001600160a01b031663f94d4668836040518263ffffffff1660e01b8152600401611a569190613f6a565b60006040518083038186803b158015611a6e57600080fd5b505afa158015611a82573d6000803e3d6000fd5b505050506040513d6000823e601f3d908101601f19168201604052611aaa91908101906139e8565b509150506000611b10827f000000000000000000000000000000000000000000000000000000000000000081518110611adf57fe5b60200260200101516113327f00000000000000000000000000000000000000000000000000000000000000006121eb565b9050858110158015611b225750848111155b9695505050505050565b611b34611786565b611b3c6113da565b61075681612eef565b600082820161080684821015836113cc565b6000611b61610852565b90506000611b6d610e61565b6001600160a01b031663b05f8e4883866040518363ffffffff1660e01b8152600401611b9a9291906140c8565b60806040518083038186803b158015611bb257600080fd5b505afa158015611bc6573d6000803e3d6000fd5b505050506040513d601f19601f82011682018060405250810190611bea9190613dd1565b604051630639cdb560e21b81529094506001600160a01b03851693506318e736d49250610d699150859087906004016140af565b1c67ffffffffffffffff1690565b600390565b61091381831460676113cc565b60006060806000611c4e85612f5a565b90506000818015611c5b57fe5b14611c7057611c6b61014e6124cc565b611cd3565b611c78612f70565b611c828986612f84565b9094509250611c8f611c2c565b67ffffffffffffffff81118015611ca557600080fd5b50604051908082528060200260200182016040528015611ccf578160200160208202803683370190505b5091505b50985098509895505050505050565b60005b611ced611c2c565b81101561084d57611d24838281518110611d0357fe5b6020026020010151838381518110611d1757fe5b6020026020010151612987565b838281518110611d3057fe5b6020908102919091010152600101611ce5565b333014611e01576000306001600160a01b0316600036604051611d67929190613ed0565b6000604051808303816000865af19150503d8060008114611da4576040519150601f19603f3d011682016040523d82523d6000602084013e611da9565b606091505b505090508060008114611db857fe5b60046000803e6000516001600160e01b0319166343adbafb60e01b8114611de3573d6000803e3d6000fd5b506020600460003e604060205260243d03602460403e601c3d016000f35b6000611e0b6113ef565b9050611e17878261151d565b600080611e2e8c8c8c8c8c8c898d8d63ffffffff16565b5091509150611e4181848663ffffffff16565b8051601f1982018390526343adbafb603f1983015260200260231982016044820181fd5b60085490565b1c6bffffffffffffffffffffffff1690565b60008160200151831015611eb65781516020830151600091611ea2918690039061251f565b9050611eae8482611397565b91505061071b565b81604001518311611ec857508161071b565b81516040830151600091611ea29186039061251f565b60006108068383611b45565b6001600160701b030390565b6000611f0582151560046113cc565b82611f125750600061071b565b670de0b6b3a764000083810290611f3590858381611f2c57fe5b041460056113cc565b826001820381611f4157fe5b0460010191505061071b565b610913828261300b565b6000606080611f6761014e6124cc565b985098509895505050505050565b60005b611f80611c2c565b81101561084d57611fb7838281518110611f9657fe5b6020026020010151838381518110611faa57fe5b6020026020010151611ef6565b838281518110611fc357fe5b6020908102919091010152600101611f78565b611fe58183111561014c6113cc565b6120006bffffffffffffffffffffffff82111561014d6113cc565b61201f61200e8260606113ad565b6120198460006113ad565b176130c7565b826001600160a01b03167fd0e27a0d0c2cb09280fa5e4487315455b32afcdcf012dc35b6ef2a0e3c4d1280838360405161205a929190614129565b60405180910390a2505050565b6000612071610e61565b6001600160a01b031663aaabadc56040518163ffffffff1660e01b815260040160206040518083038186803b1580156120a957600080fd5b505afa1580156120bd573d6000803e3d6000fd5b505050506040513d601f19601f820116820180604052508101906107929190613bb7565b60006120eb611977565b82604051602001610dfa929190613ee0565b600060606121096113da565b6121206001600160a01b03871630146101566113cc565b6121376001600160a01b03861630146101566113cc565b604080516003808252608082019092526001600160701b039160009190602082016060803683370190505090506001600160701b03817f00000000000000000000000000000000000000000000000000000000000000008151811061219857fe5b6020908102919091010152909890975095505050505050565b600090565b61091382826130dc565b6001600160a01b03918216600090815260016020908152604080832093909416825291909152205490565b60007f00000000000000000000000000000000000000000000000000000000000000006001600160a01b0316826001600160a01b0316141561224e57507f0000000000000000000000000000000000000000000000000000000000000000610b55565b7f00000000000000000000000000000000000000000000000000000000000000006001600160a01b0316826001600160a01b0316141561229a576122936114796122d9565b9050610b55565b6001600160a01b0382163014156122ba5750670de0b6b3a7640000610b55565b610b556101356124cc565b600061071b826122d3610759565b90611397565b6000807f00000000000000000000000000000000000000000000000000000000000000006001600160a01b031663313ce5676040518163ffffffff1660e01b815260040160206040518083038186803b15801561233557600080fd5b505afa158015612349573d6000803e3d6000fd5b505050506040513d601f19601f8201168201806040525081019061236d9190613e11565b905060007f00000000000000000000000000000000000000000000000000000000000000006001600160a01b031663182df0f56040518163ffffffff1660e01b815260040160206040518083038186803b1580156123ca57600080fd5b505afa1580156123de573d6000803e3d6000fd5b505050506040513d601f19601f820116820180604052508101906124029190613d98565b905060128260ff16111561242c576012820360ff16600a0a818161242257fe5b0492505050610707565b60128260ff16101561244d578160120360ff16600a0a810292505050610707565b91505090565b60028151101561246257610756565b60008160008151811061247157fe5b602002602001015190506000600190505b825181101561084d57600083828151811061249957fe5b602002602001015190506124c2816001600160a01b0316846001600160a01b03161060656113cc565b9150600101612482565b62461bcd60e51b6000908152602060045260076024526642414c23000030600a808404818106603090810160081b95839006959095019082900491820690940160101b939093010160c81b604452606490fd5b600082820261254384158061253c57508385838161253957fe5b04145b60036113cc565b670de0b6b3a764000090049392505050565b60006125db7f00000000000000000000000000000000000000000000000000000000000000006001600160a01b031685604001516001600160a01b031614806125d357507f00000000000000000000000000000000000000000000000000000000000000006001600160a01b031685604001516001600160a01b0316145b6101356113cc565b6126cc8460600151847f00000000000000000000000000000000000000000000000000000000000000008151811061260f57fe5b6020026020010151857f00000000000000000000000000000000000000000000000000000000000000008151811061264357fe5b602002602001015161267a877f000000000000000000000000000000000000000000000000000000000000000081518110610b1c57fe5b867f00000000000000000000000000000000000000000000000000000000000000006001600160a01b03168a604001516001600160a01b0316146126c05761316a6126c4565b6131ca5b63ffffffff16565b949350505050565b60006127307f00000000000000000000000000000000000000000000000000000000000000006001600160a01b031685604001516001600160a01b031614806125d3575060408501516001600160a01b031630146101356113cc565b60408401516001600160a01b0316301461278b576127868460600151847f00000000000000000000000000000000000000000000000000000000000000008151811061277857fe5b602002602001015184613233565b6126cc565b6126cc8460600151847f0000000000000000000000000000000000000000000000000000000000000000815181106127bf57fe5b6020026020010151857f0000000000000000000000000000000000000000000000000000000000000000815181106127f357fe5b602002602001015161282a877f000000000000000000000000000000000000000000000000000000000000000081518110610b1c57fe5b86613263565b600061288c7f00000000000000000000000000000000000000000000000000000000000000006001600160a01b031685604001516001600160a01b031614806125d3575060408501516001600160a01b031630146101356113cc565b60408401516001600160a01b031630146128e2576127868460600151847f0000000000000000000000000000000000000000000000000000000000000000815181106128d457fe5b6020026020010151846132c9565b6126cc8460600151847f00000000000000000000000000000000000000000000000000000000000000008151811061291657fe5b6020026020010151857f00000000000000000000000000000000000000000000000000000000000000008151811061294a57fe5b6020026020010151612981877f000000000000000000000000000000000000000000000000000000000000000081518110610b1c57fe5b86613309565b600061299682151560046113cc565b826129a35750600061071b565b670de0b6b3a7640000838102906129bd90858381611f2c57fe5b8281816129c657fe5b0491505061071b565b6000612a547f00000000000000000000000000000000000000000000000000000000000000006001600160a01b031685602001516001600160a01b031614806125d357507f00000000000000000000000000000000000000000000000000000000000000006001600160a01b031685602001516001600160a01b0316146101356113cc565b6126cc8460600151847f000000000000000000000000000000000000000000000000000000000000000081518110612a8857fe5b6020026020010151857f000000000000000000000000000000000000000000000000000000000000000081518110612abc57fe5b6020026020010151612af3877f000000000000000000000000000000000000000000000000000000000000000081518110610b1c57fe5b867f00000000000000000000000000000000000000000000000000000000000000006001600160a01b03168a602001516001600160a01b031614612b39576133706126c4565b6133c7565b6000612b9a7f00000000000000000000000000000000000000000000000000000000000000006001600160a01b031685602001516001600160a01b031614806125d3575060208501516001600160a01b031630146101356113cc565b60208401516001600160a01b03163014612bf0576127868460600151847f000000000000000000000000000000000000000000000000000000000000000081518110612be257fe5b602002602001015184613431565b6126cc8460600151847f000000000000000000000000000000000000000000000000000000000000000081518110612c2457fe5b6020026020010151857f000000000000000000000000000000000000000000000000000000000000000081518110612c5857fe5b6020026020010151612c8f877f000000000000000000000000000000000000000000000000000000000000000081518110610b1c57fe5b8661345b565b6000612cf17f00000000000000000000000000000000000000000000000000000000000000006001600160a01b031685602001516001600160a01b031614806125d3575060208501516001600160a01b031630146101356113cc565b60208401516001600160a01b03163014612d47576127868460600151847f000000000000000000000000000000000000000000000000000000000000000081518110612d3957fe5b6020026020010151846134aa565b6126cc8460600151847f000000000000000000000000000000000000000000000000000000000000000081518110612d7b57fe5b6020026020010151857f000000000000000000000000000000000000000000000000000000000000000081518110612daf57fe5b6020026020010151612de6877f000000000000000000000000000000000000000000000000000000000000000081518110610b1c57fe5b866134df565b600073ba1ba1ba1ba1ba1ba1ba1ba1ba1ba1ba1ba1ba1b612e0b610e3d565b6001600160a01b031614158015612e265750612e2683613533565b15612e4e57612e33610e3d565b6001600160a01b0316336001600160a01b031614905061071b565b612e56612067565b6001600160a01b0316639be2a8848484306040518463ffffffff1660e01b8152600401612e8593929190613f73565b60206040518083038186803b158015612e9d57600080fd5b505afa158015612eb1573d6000803e3d6000fd5b505050506040513d601f19601f820116820180604052508101906112549190613ad0565b6000612ee484841115836113cc565b5050900390565b4690565b612f0264e8d4a5100082101560cb6113cc565b612f1867016345785d8a000082111560ca6113cc565b600854612f27908260c0611381565b6008556040517fa9ba3ffe0b6c366b81232caab38605a0699ad5398d6cce76f91ee809e322dafc90611827908390613f6a565b60008180602001905181019061071b9190613c21565b6113ed612f7b611832565b156101af6113cc565b600060606000612f9384613556565b90506000612ffe8683612fd8897f000000000000000000000000000000000000000000000000000000000000000081518110612fcb57fe5b60200260200101516122c5565b7f000000000000000000000000000000000000000000000000000000000000000061356c565b9196919550909350505050565b6130226001600160a01b038316151561019b6113cc565b61302e8260008361084d565b6001600160a01b03821660009081526020819052604090205461305490826101a1612ed5565b6001600160a01b03831660009081526020819052604090205560025461307a9082613628565b6002556040516000906001600160a01b038416907fddf252ad1be2c89b69c2b068fc378daa952ba7f163c4a11628f55a4df523b3ef906130bb908590613f6a565b60405180910390a35050565b6008546130d6908260006113b1565b60085550565b6130e86000838361084d565b6002546130f59082611b45565b6002556001600160a01b03821660009081526020819052604090205461311b9082611b45565b6001600160a01b0383166000818152602081905260408082209390935591519091907fddf252ad1be2c89b69c2b068fc378daa952ba7f163c4a11628f55a4df523b3ef906130bb908590613f6a565b6000806131778684611e7d565b905060006131858287611ede565b90506000613193868a611397565b905060006131ae846122d36131a88587613636565b8a613650565b90506131ba8882611397565b9450505050505b95945050505050565b6000806131d78684611e7d565b905060006131e58287611ede565b905060006131fc6131f6838b613636565b87613683565b9050600061320a8483611397565b9050600061321882886136a3565b90506132248a82611397565b9b9a5050505050505050505050565b6000806132408484611e7d565b905060006132576132518688611b45565b85611e7d565b9050611b228183611397565b60008261327b576132748683611e7d565b90506131c1565b60006132878684611e7d565b90506000613298613251888a611b45565b905060006132a68284611397565b905060006132b48489611ede565b90506131ba6132c38884613636565b82613683565b6000806132d68484611e7d565b905060006132e48287611397565b905060006132f282866136a3565b90506132fe8682611397565b979650505050505050565b6000826133175750846131c1565b60006133238684611e7d565b905060006133318287611ede565b9050600061333f878a611b45565b9050600061334d8483611ede565b9050600061336461335e8984613636565b85613683565b90506132248189611397565b60008261337e5750846131c1565b600061338a8684611e7d565b905060006133988287611ede565b905060006133a6868a611b45565b905060006133bb846122d36131a88587613636565b90506131ba8189611397565b6000826133d85761327486836136a3565b60006133e48684611e7d565b905060006133f28287611ede565b90506000613409613403838b613636565b87613650565b905060006134178483611b45565b9050600061342582886136a3565b9050613224818b611397565b60008061343e8484611e7d565b9050600061344f6132518688611397565b9050611b228282611397565b6000806134688684611e7d565b90506000613479613251888a611397565b905060006134878383611397565b905060006134958489611ede565b90506131ba6134a48884613636565b82613650565b6000806134b78484611e7d565b905060006134c58287611b45565b905060006134d382866136a3565b90506132fe8187611397565b6000806134ec8684611e7d565b905060006134fa8287611ede565b90506000613508878a611397565b905060006135168483611ede565b9050600061352761335e8984613636565b90506132248882611397565b6000613545634f88840760e11b610dc5565b82148061071b575061071b82613733565b6000818060200190518101906108069190613c3b565b6060600061357a8585612987565b90506000865167ffffffffffffffff8111801561359657600080fd5b506040519080825280602002602001820160405280156135c0578160200160208202803683370190505b50905060005b875181101561361d57848114613615576135fc838983815181106135e657fe5b602002602001015161251f90919063ffffffff16565b82828151811061360857fe5b6020026020010181815250505b6001016135c6565b509695505050505050565b600061080683836001612ed5565b600082820261080684158061253c57508385838161253957fe5b600061365f82151560046113cc565b8261366c5750600061071b565b81600184038161367857fe5b04600101905061071b565b600061369282151560046113cc565b81838161369b57fe5b049392505050565b600081602001518310156136ec578151611254906136ca90670de0b6b3a764000090611b45565b602084015184516136e6916136df919061251f565b8690611b45565b90612987565b816040015183116136fe57508161071b565b81516112549061371790670de0b6b3a764000090611397565b604084015184516136e69161372c919061251f565b8690611397565b6000613745631c74c91760e11b610dc5565b82148061071b575061375d6350dd6ed960e01b610dc5565b909114919050565b8035610b5581614187565b600082601f830112613780578081fd5b8135602061379561379083614169565b614145565b82815281810190858301838502870184018810156137b1578586fd5b855b858110156137cf578135845292840192908401906001016137b3565b5090979650505050505050565b600082601f8301126137ec578081fd5b815160206137fc61379083614169565b8281528181019085830183850287018401881015613818578586fd5b855b858110156137cf5781518452928401929084019060010161381a565b600082601f830112613846578081fd5b813567ffffffffffffffff81111561385a57fe5b61386d601f8201601f1916602001614145565b818152846020838601011115613881578283fd5b816020850160208301379081016020019190915292915050565b805160018110610b5557600080fd5b803560028110610b5557600080fd5b6000602082840312156138ca578081fd5b813561080681614187565b600080604083850312156138e7578081fd5b82356138f281614187565b9150602083013561390281614187565b809150509250929050565b600080600060608486031215613921578081fd5b833561392c81614187565b9250602084013561393c81614187565b929592945050506040919091013590565b600080600080600080600060e0888a031215613967578485fd5b873561397281614187565b9650602088013561398281614187565b9550604088013594506060880135935060808801356139a0816141aa565b9699959850939692959460a0840135945060c09093013592915050565b600080604083850312156139cf578182fd5b82356139da81614187565b946020939093013593505050565b6000806000606084860312156139fc578081fd5b835167ffffffffffffffff80821115613a13578283fd5b818601915086601f830112613a26578283fd5b81516020613a3661379083614169565b82815281810190858301838502870184018c1015613a52578788fd5b8796505b84871015613a7d578051613a6981614187565b835260019690960195918301918301613a56565b5091890151919750909350505080821115613a96578283fd5b50613aa3868287016137dc565b925050604084015190509250925092565b600060208284031215613ac5578081fd5b81356108068161419c565b600060208284031215613ae1578081fd5b81516108068161419c565b600080600080600080600060e0888a031215613b06578081fd5b873596506020880135613b1881614187565b95506040880135613b2881614187565b9450606088013567ffffffffffffffff80821115613b44578283fd5b613b508b838c01613770565b955060808a0135945060a08a0135935060c08a0135915080821115613b73578283fd5b50613b808a828b01613836565b91505092959891949750929550565b600060208284031215613ba0578081fd5b81356001600160e01b031981168114610806578182fd5b600060208284031215613bc8578081fd5b815161080681614187565b60008060408385031215613be5578182fd5b8235613bf081614187565b9150602083013567ffffffffffffffff811115613c0b578182fd5b613c1785828601613836565b9150509250929050565b600060208284031215613c32578081fd5b6108068261389b565b60008060408385031215613c4d578182fd5b613c568361389b565b9150602083015190509250929050565b60008060008060808587031215613c7b578182fd5b843567ffffffffffffffff80821115613c92578384fd5b818701915061012080838a031215613ca8578485fd5b613cb181614145565b9050613cbc836138aa565b8152613cca60208401613765565b6020820152613cdb60408401613765565b6040820152606083013560608201526080830135608082015260a083013560a0820152613d0a60c08401613765565b60c0820152613d1b60e08401613765565b60e08201526101008084013583811115613d33578687fd5b613d3f8b828701613836565b828401525050809650506020870135915080821115613d5c578384fd5b50613d6987828801613770565b949794965050505060408301359260600135919050565b600060208284031215613d91578081fd5b5035919050565b600060208284031215613da9578081fd5b5051919050565b60008060408385031215613dc2578182fd5b50508035926020909101359150565b60008060008060808587031215613de6578182fd5b8451935060208501519250604085015191506060850151613e0681614187565b939692955090935050565b600060208284031215613e22578081fd5b8151610806816141aa565b6000815180845260208085019450808401835b83811015613e5c57815187529582019590820190600101613e40565b509495945050505050565b15159052565b60008151808452815b81811015613e9257602081850181015186830182015201613e76565b81811115613ea35782602083870101525b50601f01601f19169290920160200192915050565b9182526001600160e01b031916602082015260240190565b6000828483379101908152919050565b61190160f01b81526002810192909252602282015260420190565b6001600160a01b0391909116815260200190565b6000602082526108066020830184613e2d565b600060408252613f356040830185613e2d565b82810360208401526131c18185613e2d565b901515815260200190565b92151583526020830191909152604082015260600190565b90815260200190565b9283526001600160a01b03918216602084015216604082015260600190565b6000858252602060018060a01b0380871682850152808616604085015260806060850152610100840185516080808701528181518084526101208801915085830193508692505b80831015613ffb57835185168252928501926001929092019190850190613fd9565b50848801519450607f199350838782030160a088015261401b8186613e2d565b94505050506040850151818584030160c08601526140398382613e6d565b92505050606084015161361d60e0850182613e67565b9586526001600160a01b0394851660208701529290931660408501526060840152608083019190915260a082015260c00190565b9485526020850193909352604084019190915260608301526001600160a01b0316608082015260a00190565b6000838252604060208301526126cc6040830184613e6d565b9182526001600160a01b0316602082015260400190565b93845260ff9290921660208401526040830152606082015260800190565b6000602082526108066020830184613e6d565b6000838252604060208301526126cc6040830184613e2d565b918252602082015260400190565b60ff91909116815260200190565b60405181810167ffffffffffffffff8111828210171561416157fe5b604052919050565b600067ffffffffffffffff82111561417d57fe5b5060209081020190565b6001600160a01b038116811461075657600080fd5b801515811461075657600080fd5b60ff8116811461075657600080fdfea26469706673582212201bdbb8f2b5e36b41f3ad8e190786e5bb66193cc87d478462c18c5334437738d064736f6c63430007060033",
			"opcodes": "PUSH2 0x2C0 PUSH1 0x40 MSTORE PUSH32 0x6E71EDAE12B1B97F4D1F60370FEF10105FA2FAAE0126114A169C64845D6126C9 PUSH2 0x120 MSTORE CALLVALUE DUP1 ISZERO PUSH3 0x37 JUMPI PUSH1 0x0 DUP1 REVERT JUMPDEST POP PUSH1 0x40 MLOAD PUSH3 0x51ED CODESIZE SUB DUP1 PUSH3 0x51ED DUP4 CODECOPY DUP2 ADD PUSH1 0x40 DUP2 SWAP1 MSTORE PUSH3 0x5A SWAP2 PUSH3 0xC0E JUMP JUMPDEST DUP10 DUP10 DUP10 DUP10 DUP10 DUP10 DUP10 DUP10 DUP10 DUP10 DUP10 PUSH1 0x0 DUP11 DUP11 PUSH3 0x76 DUP12 DUP12 ADDRESS PUSH3 0x50F JUMP JUMPDEST PUSH1 0x40 DUP1 MLOAD PUSH1 0x3 DUP1 DUP3 MSTORE PUSH1 0x80 DUP3 ADD SWAP1 SWAP3 MSTORE SWAP1 PUSH1 0x20 DUP3 ADD PUSH1 0x60 DUP1 CALLDATASIZE DUP4 CALLDATACOPY ADD SWAP1 POP POP DUP10 DUP10 DUP10 DUP10 DUP3 DUP3 DUP10 DUP10 DUP14 DUP3 DUP1 PUSH1 0x40 MLOAD DUP1 PUSH1 0x40 ADD PUSH1 0x40 MSTORE DUP1 PUSH1 0x1 DUP2 MSTORE PUSH1 0x20 ADD PUSH1 0x31 PUSH1 0xF8 SHL DUP2 MSTORE POP DUP6 DUP6 DUP11 CALLER PUSH1 0x1 PUSH1 0x1 PUSH1 0xA0 SHL SUB AND PUSH1 0x0 SHL DUP1 PUSH1 0x80 DUP2 DUP2 MSTORE POP POP POP DUP1 PUSH1 0x1 PUSH1 0x1 PUSH1 0xA0 SHL SUB AND PUSH1 0xA0 DUP2 PUSH1 0x1 PUSH1 0x1 PUSH1 0xA0 SHL SUB AND PUSH1 0x60 SHL DUP2 MSTORE POP POP POP DUP2 PUSH1 0x3 SWAP1 DUP1 MLOAD SWAP1 PUSH1 0x20 ADD SWAP1 PUSH3 0x109 SWAP3 SWAP2 SWAP1 PUSH3 0xA59 JUMP JUMPDEST POP DUP1 MLOAD PUSH3 0x11F SWAP1 PUSH1 0x4 SWAP1 PUSH1 0x20 DUP5 ADD SWAP1 PUSH3 0xA59 JUMP JUMPDEST POP POP PUSH1 0x5 DUP1 SLOAD PUSH1 0x12 PUSH1 0xFF NOT SWAP1 SWAP2 AND OR SWAP1 SSTORE POP DUP2 MLOAD PUSH1 0x20 SWAP3 DUP4 ADD KECCAK256 PUSH1 0xC0 MSTORE DUP1 MLOAD SWAP2 ADD KECCAK256 PUSH1 0xE0 MSTORE POP PUSH32 0x8B73C3C69BB8FE3D512ECC4CF759CC79239F7B179B0FFACAA9A75D522B39400F PUSH2 0x100 MSTORE PUSH1 0x60 SHL PUSH1 0x1 PUSH1 0x1 PUSH1 0x60 SHL SUB NOT AND PUSH2 0x140 MSTORE POP PUSH3 0x192 SWAP1 POP PUSH3 0x76A700 DUP4 GT ISZERO PUSH2 0x194 PUSH3 0x5DE JUMP JUMPDEST PUSH3 0x1A6 PUSH3 0x278D00 DUP3 GT ISZERO PUSH2 0x195 PUSH3 0x5DE JUMP JUMPDEST TIMESTAMP SWAP1 SWAP2 ADD PUSH2 0x160 DUP2 SWAP1 MSTORE ADD PUSH2 0x180 MSTORE DUP6 MLOAD PUSH3 0x1C8 SWAP1 PUSH1 0x2 GT ISZERO PUSH1 0xC8 PUSH3 0x5DE JUMP JUMPDEST PUSH3 0x1E2 PUSH3 0x1D6 PUSH3 0x5F3 JUMP JUMPDEST DUP8 MLOAD GT ISZERO PUSH1 0xC9 PUSH3 0x5DE JUMP JUMPDEST PUSH3 0x1F8 DUP7 PUSH3 0x5F8 PUSH1 0x20 SHL PUSH3 0x1377 OR PUSH1 0x20 SHR JUMP JUMPDEST PUSH3 0x203 DUP5 PUSH3 0x604 JUMP JUMPDEST PUSH1 0x40 MLOAD PUSH4 0x9B2760F PUSH1 0xE0 SHL DUP2 MSTORE PUSH1 0x0 SWAP1 PUSH1 0x1 PUSH1 0x1 PUSH1 0xA0 SHL SUB DUP13 AND SWAP1 PUSH4 0x9B2760F SWAP1 PUSH3 0x234 SWAP1 DUP14 SWAP1 PUSH1 0x4 ADD PUSH3 0xDA6 JUMP JUMPDEST PUSH1 0x20 PUSH1 0x40 MLOAD DUP1 DUP4 SUB DUP2 PUSH1 0x0 DUP8 DUP1 EXTCODESIZE ISZERO DUP1 ISZERO PUSH3 0x24F JUMPI PUSH1 0x0 DUP1 REVERT JUMPDEST POP GAS CALL ISZERO DUP1 ISZERO PUSH3 0x264 JUMPI RETURNDATASIZE PUSH1 0x0 DUP1 RETURNDATACOPY RETURNDATASIZE PUSH1 0x0 REVERT JUMPDEST POP POP POP POP PUSH1 0x40 MLOAD RETURNDATASIZE PUSH1 0x1F NOT PUSH1 0x1F DUP3 ADD AND DUP3 ADD DUP1 PUSH1 0x40 MSTORE POP DUP2 ADD SWAP1 PUSH3 0x28A SWAP2 SWAP1 PUSH3 0xBF5 JUMP JUMPDEST PUSH1 0x40 MLOAD PUSH4 0x3354E3E9 PUSH1 0xE1 SHL DUP2 MSTORE SWAP1 SWAP2 POP PUSH1 0x1 PUSH1 0x1 PUSH1 0xA0 SHL SUB DUP13 AND SWAP1 PUSH4 0x66A9C7D2 SWAP1 PUSH3 0x2BF SWAP1 DUP5 SWAP1 DUP12 SWAP1 DUP12 SWAP1 PUSH1 0x4 ADD PUSH3 0xD0C JUMP JUMPDEST PUSH1 0x0 PUSH1 0x40 MLOAD DUP1 DUP4 SUB DUP2 PUSH1 0x0 DUP8 DUP1 EXTCODESIZE ISZERO DUP1 ISZERO PUSH3 0x2DA JUMPI PUSH1 0x0 DUP1 REVERT JUMPDEST POP GAS CALL ISZERO DUP1 ISZERO PUSH3 0x2EF JUMPI RETURNDATASIZE PUSH1 0x0 DUP1 RETURNDATACOPY RETURNDATASIZE PUSH1 0x0 REVERT JUMPDEST POP POP POP POP DUP1 PUSH2 0x1A0 DUP2 DUP2 MSTORE POP POP POP POP POP POP POP POP POP POP POP POP POP DUP7 PUSH1 0x1 PUSH1 0x1 PUSH1 0xA0 SHL SUB AND PUSH2 0x1C0 DUP2 PUSH1 0x1 PUSH1 0x1 PUSH1 0xA0 SHL SUB AND PUSH1 0x60 SHL DUP2 MSTORE POP POP DUP6 PUSH1 0x1 PUSH1 0x1 PUSH1 0xA0 SHL SUB AND PUSH2 0x1E0 DUP2 PUSH1 0x1 PUSH1 0x1 PUSH1 0xA0 SHL SUB AND PUSH1 0x60 SHL DUP2 MSTORE POP POP PUSH1 0x0 DUP1 PUSH1 0x0 PUSH3 0x35B DUP11 DUP11 ADDRESS PUSH3 0x690 PUSH1 0x20 SHL PUSH1 0x20 SHR JUMP JUMPDEST PUSH2 0x200 DUP2 SWAP1 MSTORE PUSH2 0x220 DUP4 SWAP1 MSTORE PUSH2 0x240 DUP3 SWAP1 MSTORE SWAP2 SWAP5 POP SWAP3 POP SWAP1 POP PUSH3 0x37F DUP11 PUSH3 0x786 JUMP JUMPDEST PUSH2 0x260 MSTORE PUSH3 0x38E DUP10 PUSH3 0x786 JUMP JUMPDEST PUSH2 0x280 MSTORE PUSH1 0x0 PUSH3 0x3A1 DUP12 DUP3 DUP12 PUSH3 0x85A JUMP JUMPDEST POP POP POP POP POP POP POP POP POP POP POP POP POP POP DUP6 PUSH1 0x1 PUSH1 0x1 PUSH1 0xA0 SHL SUB AND PUSH2 0x2A0 DUP2 PUSH1 0x1 PUSH1 0x1 PUSH1 0xA0 SHL SUB AND PUSH1 0x60 SHL DUP2 MSTORE POP POP PUSH3 0x45D DUP7 PUSH1 0x1 PUSH1 0x1 PUSH1 0xA0 SHL SUB AND PUSH4 0x6F307DC3 PUSH1 0x40 MLOAD DUP2 PUSH4 0xFFFFFFFF AND PUSH1 0xE0 SHL DUP2 MSTORE PUSH1 0x4 ADD PUSH1 0x20 PUSH1 0x40 MLOAD DUP1 DUP4 SUB DUP2 DUP7 DUP1 EXTCODESIZE ISZERO DUP1 ISZERO PUSH3 0x40B JUMPI PUSH1 0x0 DUP1 REVERT JUMPDEST POP GAS STATICCALL ISZERO DUP1 ISZERO PUSH3 0x420 JUMPI RETURNDATASIZE PUSH1 0x0 DUP1 RETURNDATACOPY RETURNDATASIZE PUSH1 0x0 REVERT JUMPDEST POP POP POP POP PUSH1 0x40 MLOAD RETURNDATASIZE PUSH1 0x1F NOT PUSH1 0x1F DUP3 ADD AND DUP3 ADD DUP1 PUSH1 0x40 MSTORE POP DUP2 ADD SWAP1 PUSH3 0x446 SWAP2 SWAP1 PUSH3 0xBAD JUMP JUMPDEST PUSH1 0x1 PUSH1 0x1 PUSH1 0xA0 SHL SUB DUP10 DUP2 AND SWAP2 AND EQ PUSH2 0x208 PUSH3 0x5DE JUMP JUMPDEST DUP6 PUSH1 0x1 PUSH1 0x1 PUSH1 0xA0 SHL SUB AND PUSH4 0xFE9C44AE PUSH1 0x40 MLOAD DUP2 PUSH4 0xFFFFFFFF AND PUSH1 0xE0 SHL DUP2 MSTORE PUSH1 0x4 ADD PUSH1 0x20 PUSH1 0x40 MLOAD DUP1 DUP4 SUB DUP2 DUP7 DUP1 EXTCODESIZE ISZERO DUP1 ISZERO PUSH3 0x497 JUMPI PUSH1 0x0 DUP1 REVERT JUMPDEST POP GAS STATICCALL ISZERO DUP1 ISZERO PUSH3 0x4AC JUMPI RETURNDATASIZE PUSH1 0x0 DUP1 RETURNDATACOPY RETURNDATASIZE PUSH1 0x0 REVERT JUMPDEST POP POP POP POP PUSH1 0x40 MLOAD RETURNDATASIZE PUSH1 0x1F NOT PUSH1 0x1F DUP3 ADD AND DUP3 ADD DUP1 PUSH1 0x40 MSTORE POP DUP2 ADD SWAP1 PUSH3 0x4D2 SWAP2 SWAP1 PUSH3 0xBD3 JUMP JUMPDEST ISZERO ISZERO PUSH1 0x1 EQ PUSH3 0x4FF JUMPI PUSH1 0x40 MLOAD PUSH3 0x461BCD PUSH1 0xE5 SHL DUP2 MSTORE PUSH1 0x4 ADD PUSH3 0x4F6 SWAP1 PUSH3 0xDBB JUMP JUMPDEST PUSH1 0x40 MLOAD DUP1 SWAP2 SUB SWAP1 REVERT JUMPDEST POP POP POP POP POP POP POP POP POP POP PUSH3 0xE1F JUMP JUMPDEST PUSH1 0x60 PUSH1 0x0 DUP1 DUP1 PUSH3 0x522 DUP8 DUP8 DUP8 PUSH3 0x690 JUMP JUMPDEST PUSH1 0x40 DUP1 MLOAD PUSH1 0x3 DUP1 DUP3 MSTORE PUSH1 0x80 DUP3 ADD SWAP1 SWAP3 MSTORE SWAP4 SWAP7 POP SWAP2 SWAP5 POP SWAP3 POP PUSH1 0x20 DUP3 ADD PUSH1 0x60 DUP1 CALLDATASIZE DUP4 CALLDATACOPY ADD SWAP1 POP POP SWAP4 POP DUP7 DUP5 DUP5 DUP2 MLOAD DUP2 LT PUSH3 0x558 JUMPI INVALID JUMPDEST PUSH1 0x20 MUL PUSH1 0x20 ADD ADD SWAP1 PUSH1 0x1 PUSH1 0x1 PUSH1 0xA0 SHL SUB AND SWAP1 DUP2 PUSH1 0x1 PUSH1 0x1 PUSH1 0xA0 SHL SUB AND DUP2 MSTORE POP POP DUP6 DUP5 DUP4 DUP2 MLOAD DUP2 LT PUSH3 0x586 JUMPI INVALID JUMPDEST PUSH1 0x20 MUL PUSH1 0x20 ADD ADD SWAP1 PUSH1 0x1 PUSH1 0x1 PUSH1 0xA0 SHL SUB AND SWAP1 DUP2 PUSH1 0x1 PUSH1 0x1 PUSH1 0xA0 SHL SUB AND DUP2 MSTORE POP POP DUP5 DUP5 DUP3 DUP2 MLOAD DUP2 LT PUSH3 0x5B4 JUMPI INVALID JUMPDEST PUSH1 0x20 MUL PUSH1 0x20 ADD ADD SWAP1 PUSH1 0x1 PUSH1 0x1 PUSH1 0xA0 SHL SUB AND SWAP1 DUP2 PUSH1 0x1 PUSH1 0x1 PUSH1 0xA0 SHL SUB AND DUP2 MSTORE POP POP POP POP POP SWAP4 SWAP3 POP POP POP JUMP JUMPDEST DUP2 PUSH3 0x5EF JUMPI PUSH3 0x5EF DUP2 PUSH3 0x908 JUMP JUMPDEST POP POP JUMP JUMPDEST PUSH1 0x3 SWAP1 JUMP JUMPDEST DUP1 PUSH3 0x5EF DUP2 PUSH3 0x95B JUMP JUMPDEST PUSH3 0x619 PUSH5 0xE8D4A51000 DUP3 LT ISZERO PUSH1 0xCB PUSH3 0x5DE JUMP JUMPDEST PUSH3 0x631 PUSH8 0x16345785D8A0000 DUP3 GT ISZERO PUSH1 0xCA PUSH3 0x5DE JUMP JUMPDEST PUSH3 0x650 DUP2 PUSH1 0xC0 PUSH1 0x8 SLOAD PUSH3 0x9E8 PUSH1 0x20 SHL PUSH3 0x1381 OR SWAP1 SWAP3 SWAP2 SWAP1 PUSH1 0x20 SHR JUMP JUMPDEST PUSH1 0x8 SSTORE PUSH1 0x40 MLOAD PUSH32 0xA9BA3FFE0B6C366B81232CAAB38605A0699AD5398D6CCE76F91EE809E322DAFC SWAP1 PUSH3 0x685 SWAP1 DUP4 SWAP1 PUSH3 0xDF2 JUMP JUMPDEST PUSH1 0x40 MLOAD DUP1 SWAP2 SUB SWAP1 LOG1 POP JUMP JUMPDEST PUSH1 0x0 DUP1 PUSH1 0x0 DUP5 PUSH1 0x1 PUSH1 0x1 PUSH1 0xA0 SHL SUB AND DUP7 PUSH1 0x1 PUSH1 0x1 PUSH1 0xA0 SHL SUB AND LT ISZERO PUSH3 0x719 JUMPI DUP4 PUSH1 0x1 PUSH1 0x1 PUSH1 0xA0 SHL SUB AND DUP6 PUSH1 0x1 PUSH1 0x1 PUSH1 0xA0 SHL SUB AND LT ISZERO PUSH3 0x6DC JUMPI POP PUSH1 0x0 SWAP2 POP PUSH1 0x1 SWAP1 POP PUSH1 0x2 PUSH3 0x77D JUMP JUMPDEST DUP4 PUSH1 0x1 PUSH1 0x1 PUSH1 0xA0 SHL SUB AND DUP7 PUSH1 0x1 PUSH1 0x1 PUSH1 0xA0 SHL SUB AND LT ISZERO PUSH3 0x708 JUMPI POP PUSH1 0x0 SWAP2 POP PUSH1 0x2 SWAP1 POP PUSH1 0x1 PUSH3 0x77D JUMP JUMPDEST POP PUSH1 0x1 SWAP2 POP PUSH1 0x2 SWAP1 POP PUSH1 0x0 PUSH3 0x77D JUMP JUMPDEST DUP5 PUSH1 0x1 PUSH1 0x1 PUSH1 0xA0 SHL SUB AND DUP5 PUSH1 0x1 PUSH1 0x1 PUSH1 0xA0 SHL SUB AND LT ISZERO PUSH3 0x745 JUMPI POP PUSH1 0x2 SWAP2 POP PUSH1 0x1 SWAP1 POP PUSH1 0x0 PUSH3 0x77D JUMP JUMPDEST DUP6 PUSH1 0x1 PUSH1 0x1 PUSH1 0xA0 SHL SUB AND DUP5 PUSH1 0x1 PUSH1 0x1 PUSH1 0xA0 SHL SUB AND LT ISZERO PUSH3 0x771 JUMPI POP PUSH1 0x2 SWAP2 POP PUSH1 0x0 SWAP1 POP PUSH1 0x1 PUSH3 0x77D JUMP JUMPDEST POP PUSH1 0x1 SWAP2 POP PUSH1 0x0 SWAP1 POP PUSH1 0x2 JUMPDEST SWAP4 POP SWAP4 POP SWAP4 SWAP1 POP JUMP JUMPDEST PUSH1 0x0 PUSH1 0x1 PUSH1 0x1 PUSH1 0xA0 SHL SUB DUP3 AND ADDRESS EQ ISZERO PUSH3 0x7AA JUMPI POP PUSH8 0xDE0B6B3A7640000 PUSH3 0x855 JUMP JUMPDEST PUSH1 0x0 DUP3 PUSH1 0x1 PUSH1 0x1 PUSH1 0xA0 SHL SUB AND PUSH4 0x313CE567 PUSH1 0x40 MLOAD DUP2 PUSH4 0xFFFFFFFF AND PUSH1 0xE0 SHL DUP2 MSTORE PUSH1 0x4 ADD PUSH1 0x20 PUSH1 0x40 MLOAD DUP1 DUP4 SUB DUP2 DUP7 DUP1 EXTCODESIZE ISZERO DUP1 ISZERO PUSH3 0x7E6 JUMPI PUSH1 0x0 DUP1 REVERT JUMPDEST POP GAS STATICCALL ISZERO DUP1 ISZERO PUSH3 0x7FB JUMPI RETURNDATASIZE PUSH1 0x0 DUP1 RETURNDATACOPY RETURNDATASIZE PUSH1 0x0 REVERT JUMPDEST POP POP POP POP PUSH1 0x40 MLOAD RETURNDATASIZE PUSH1 0x1F NOT PUSH1 0x1F DUP3 ADD AND DUP3 ADD DUP1 PUSH1 0x40 MSTORE POP DUP2 ADD SWAP1 PUSH3 0x821 SWAP2 SWAP1 PUSH3 0xCE9 JUMP JUMPDEST PUSH1 0xFF AND SWAP1 POP PUSH1 0x0 PUSH3 0x840 PUSH1 0x12 DUP4 PUSH3 0x9FD PUSH1 0x20 SHL PUSH3 0x1397 OR PUSH1 0x20 SHR JUMP JUMPDEST SWAP1 POP DUP1 PUSH1 0xA EXP PUSH8 0xDE0B6B3A7640000 MUL SWAP3 POP POP POP JUMPDEST SWAP2 SWAP1 POP JUMP JUMPDEST PUSH3 0x86B DUP2 DUP4 GT ISZERO PUSH2 0x14C PUSH3 0x5DE JUMP JUMPDEST PUSH3 0x883 PUSH1 0x1 PUSH1 0x1 PUSH1 0x60 SHL SUB DUP3 GT ISZERO PUSH2 0x14D PUSH3 0x5DE JUMP JUMPDEST PUSH3 0x8BE PUSH3 0x89F DUP3 PUSH1 0x60 PUSH3 0xA15 PUSH1 0x20 SHL PUSH3 0x13AD OR PUSH1 0x20 SHR JUMP JUMPDEST PUSH3 0x8B7 DUP5 PUSH1 0x0 PUSH3 0xA15 PUSH1 0x20 SHL PUSH3 0x13AD OR PUSH1 0x20 SHR JUMP JUMPDEST OR PUSH3 0xA19 JUMP JUMPDEST DUP3 PUSH1 0x1 PUSH1 0x1 PUSH1 0xA0 SHL SUB AND PUSH32 0xD0E27A0D0C2CB09280FA5E4487315455B32AFCDCF012DC35B6EF2A0E3C4D1280 DUP4 DUP4 PUSH1 0x40 MLOAD PUSH3 0x8FB SWAP3 SWAP2 SWAP1 PUSH3 0xDFB JUMP JUMPDEST PUSH1 0x40 MLOAD DUP1 SWAP2 SUB SWAP1 LOG2 POP POP POP JUMP JUMPDEST PUSH3 0x461BCD PUSH1 0xE5 SHL PUSH1 0x0 SWAP1 DUP2 MSTORE PUSH1 0x20 PUSH1 0x4 MSTORE PUSH1 0x7 PUSH1 0x24 MSTORE PUSH7 0x42414C23000030 PUSH1 0xA DUP1 DUP5 DIV DUP2 DUP2 MOD PUSH1 0x30 SWAP1 DUP2 ADD PUSH1 0x8 SHL SWAP6 DUP4 SWAP1 MOD SWAP6 SWAP1 SWAP6 ADD SWAP1 DUP3 SWAP1 DIV SWAP2 DUP3 MOD SWAP1 SWAP5 ADD PUSH1 0x10 SHL SWAP4 SWAP1 SWAP4 ADD ADD PUSH1 0xC8 SHL PUSH1 0x44 MSTORE PUSH1 0x64 SWAP1 REVERT JUMPDEST PUSH1 0x2 DUP2 MLOAD LT ISZERO PUSH3 0x96C JUMPI PUSH3 0x9E5 JUMP JUMPDEST PUSH1 0x0 DUP2 PUSH1 0x0 DUP2 MLOAD DUP2 LT PUSH3 0x97C JUMPI INVALID JUMPDEST PUSH1 0x20 MUL PUSH1 0x20 ADD ADD MLOAD SWAP1 POP PUSH1 0x0 PUSH1 0x1 SWAP1 POP JUMPDEST DUP3 MLOAD DUP2 LT ISZERO PUSH3 0x9E2 JUMPI PUSH1 0x0 DUP4 DUP3 DUP2 MLOAD DUP2 LT PUSH3 0x9A6 JUMPI INVALID JUMPDEST PUSH1 0x20 MUL PUSH1 0x20 ADD ADD MLOAD SWAP1 POP PUSH3 0x9D7 DUP2 PUSH1 0x1 PUSH1 0x1 PUSH1 0xA0 SHL SUB AND DUP5 PUSH1 0x1 PUSH1 0x1 PUSH1 0xA0 SHL SUB AND LT PUSH1 0x65 PUSH3 0x5DE PUSH1 0x20 SHL PUSH1 0x20 SHR JUMP JUMPDEST SWAP2 POP PUSH1 0x1 ADD PUSH3 0x98D JUMP JUMPDEST POP POP JUMPDEST POP JUMP JUMPDEST PUSH1 0x1 PUSH1 0x1 PUSH1 0x40 SHL SUB DUP2 SHL NOT SWAP3 SWAP1 SWAP3 AND SWAP2 SHL OR SWAP1 JUMP JUMPDEST PUSH1 0x0 PUSH3 0xA0F DUP4 DUP4 GT ISZERO PUSH1 0x1 PUSH3 0x5DE JUMP JUMPDEST POP SWAP1 SUB SWAP1 JUMP JUMPDEST SHL SWAP1 JUMP JUMPDEST PUSH3 0xA38 DUP2 PUSH1 0x0 PUSH1 0x8 SLOAD PUSH3 0xA3E PUSH1 0x20 SHL PUSH3 0x13B1 OR SWAP1 SWAP3 SWAP2 SWAP1 PUSH1 0x20 SHR JUMP JUMPDEST PUSH1 0x8 SSTORE POP JUMP JUMPDEST PUSH1 0x1 PUSH1 0x1 PUSH1 0xC0 SHL SUB DUP3 DUP2 AND DUP3 SHL SWAP1 DUP3 SHL NOT DUP5 AND OR SWAP4 SWAP3 POP POP POP JUMP JUMPDEST DUP3 DUP1 SLOAD PUSH1 0x1 DUP2 PUSH1 0x1 AND ISZERO PUSH2 0x100 MUL SUB AND PUSH1 0x2 SWAP1 DIV SWAP1 PUSH1 0x0 MSTORE PUSH1 0x20 PUSH1 0x0 KECCAK256 SWAP1 PUSH1 0x1F ADD PUSH1 0x20 SWAP1 DIV DUP2 ADD SWAP3 DUP3 PUSH3 0xA91 JUMPI PUSH1 0x0 DUP6 SSTORE PUSH3 0xADC JUMP JUMPDEST DUP3 PUSH1 0x1F LT PUSH3 0xAAC JUMPI DUP1 MLOAD PUSH1 0xFF NOT AND DUP4 DUP1 ADD OR DUP6 SSTORE PUSH3 0xADC JUMP JUMPDEST DUP3 DUP1 ADD PUSH1 0x1 ADD DUP6 SSTORE DUP3 ISZERO PUSH3 0xADC JUMPI SWAP2 DUP3 ADD JUMPDEST DUP3 DUP2 GT ISZERO PUSH3 0xADC JUMPI DUP3 MLOAD DUP3 SSTORE SWAP2 PUSH1 0x20 ADD SWAP2 SWAP1 PUSH1 0x1 ADD SWAP1 PUSH3 0xABF JUMP JUMPDEST POP PUSH3 0xAEA SWAP3 SWAP2 POP PUSH3 0xAEE JUMP JUMPDEST POP SWAP1 JUMP JUMPDEST JUMPDEST DUP1 DUP3 GT ISZERO PUSH3 0xAEA JUMPI PUSH1 0x0 DUP2 SSTORE PUSH1 0x1 ADD PUSH3 0xAEF JUMP JUMPDEST DUP1 MLOAD PUSH3 0x855 DUP2 PUSH3 0xE09 JUMP JUMPDEST PUSH1 0x0 DUP3 PUSH1 0x1F DUP4 ADD SLT PUSH3 0xB23 JUMPI DUP1 DUP2 REVERT JUMPDEST DUP2 MLOAD PUSH1 0x1 PUSH1 0x1 PUSH1 0x40 SHL SUB DUP1 DUP3 GT ISZERO PUSH3 0xB38 JUMPI INVALID JUMPDEST PUSH1 0x40 MLOAD PUSH1 0x20 PUSH1 0x1F DUP5 ADD PUSH1 0x1F NOT AND DUP3 ADD DUP2 ADD DUP4 DUP2 GT DUP4 DUP3 LT OR ISZERO PUSH3 0xB58 JUMPI INVALID JUMPDEST PUSH1 0x40 MSTORE DUP4 DUP3 MSTORE DUP6 DUP5 ADD DUP2 ADD DUP8 LT ISZERO PUSH3 0xB6F JUMPI DUP5 DUP6 REVERT JUMPDEST DUP5 SWAP3 POP JUMPDEST DUP4 DUP4 LT ISZERO PUSH3 0xB92 JUMPI DUP6 DUP4 ADD DUP2 ADD MLOAD DUP3 DUP5 ADD DUP3 ADD MSTORE SWAP2 DUP3 ADD SWAP2 PUSH3 0xB73 JUMP JUMPDEST DUP4 DUP4 GT ISZERO PUSH3 0xBA3 JUMPI DUP5 DUP2 DUP6 DUP5 ADD ADD MSTORE JUMPDEST POP SWAP6 SWAP5 POP POP POP POP POP JUMP JUMPDEST PUSH1 0x0 PUSH1 0x20 DUP3 DUP5 SUB SLT ISZERO PUSH3 0xBBF JUMPI DUP1 DUP2 REVERT JUMPDEST DUP2 MLOAD PUSH3 0xBCC DUP2 PUSH3 0xE09 JUMP JUMPDEST SWAP4 SWAP3 POP POP POP JUMP JUMPDEST PUSH1 0x0 PUSH1 0x20 DUP3 DUP5 SUB SLT ISZERO PUSH3 0xBE5 JUMPI DUP1 DUP2 REVERT JUMPDEST DUP2 MLOAD DUP1 ISZERO ISZERO DUP2 EQ PUSH3 0xBCC JUMPI DUP2 DUP3 REVERT JUMPDEST PUSH1 0x0 PUSH1 0x20 DUP3 DUP5 SUB SLT ISZERO PUSH3 0xC07 JUMPI DUP1 DUP2 REVERT JUMPDEST POP MLOAD SWAP2 SWAP1 POP JUMP JUMPDEST PUSH1 0x0 DUP1 PUSH1 0x0 DUP1 PUSH1 0x0 DUP1 PUSH1 0x0 DUP1 PUSH1 0x0 DUP1 PUSH2 0x140 DUP12 DUP14 SUB SLT ISZERO PUSH3 0xC2E JUMPI DUP6 DUP7 REVERT JUMPDEST PUSH3 0xC39 DUP12 PUSH3 0xB05 JUMP JUMPDEST PUSH1 0x20 DUP13 ADD MLOAD SWAP1 SWAP11 POP PUSH1 0x1 PUSH1 0x1 PUSH1 0x40 SHL SUB DUP1 DUP3 GT ISZERO PUSH3 0xC56 JUMPI DUP8 DUP9 REVERT JUMPDEST PUSH3 0xC64 DUP15 DUP4 DUP16 ADD PUSH3 0xB12 JUMP JUMPDEST SWAP11 POP PUSH1 0x40 DUP14 ADD MLOAD SWAP2 POP DUP1 DUP3 GT ISZERO PUSH3 0xC7A JUMPI DUP8 DUP9 REVERT JUMPDEST POP PUSH3 0xC89 DUP14 DUP3 DUP15 ADD PUSH3 0xB12 JUMP JUMPDEST SWAP9 POP POP PUSH3 0xC9A PUSH1 0x60 DUP13 ADD PUSH3 0xB05 JUMP JUMPDEST SWAP7 POP PUSH3 0xCAA PUSH1 0x80 DUP13 ADD PUSH3 0xB05 JUMP JUMPDEST SWAP6 POP PUSH1 0xA0 DUP12 ADD MLOAD SWAP5 POP PUSH1 0xC0 DUP12 ADD MLOAD SWAP4 POP PUSH1 0xE0 DUP12 ADD MLOAD SWAP3 POP PUSH2 0x100 DUP12 ADD MLOAD SWAP2 POP PUSH3 0xCD8 PUSH2 0x120 DUP13 ADD PUSH3 0xB05 JUMP JUMPDEST SWAP1 POP SWAP3 SWAP6 SWAP9 SWAP12 SWAP2 SWAP5 SWAP8 SWAP11 POP SWAP3 SWAP6 SWAP9 POP JUMP JUMPDEST PUSH1 0x0 PUSH1 0x20 DUP3 DUP5 SUB SLT ISZERO PUSH3 0xCFB JUMPI DUP1 DUP2 REVERT JUMPDEST DUP2 MLOAD PUSH1 0xFF DUP2 AND DUP2 EQ PUSH3 0xBCC JUMPI DUP2 DUP3 REVERT JUMPDEST PUSH1 0x0 PUSH1 0x60 DUP3 ADD DUP6 DUP4 MSTORE PUSH1 0x20 PUSH1 0x60 DUP2 DUP6 ADD MSTORE DUP2 DUP7 MLOAD DUP1 DUP5 MSTORE PUSH1 0x80 DUP7 ADD SWAP2 POP DUP3 DUP9 ADD SWAP4 POP DUP5 JUMPDEST DUP2 DUP2 LT ISZERO PUSH3 0xD57 JUMPI DUP5 MLOAD PUSH1 0x1 PUSH1 0x1 PUSH1 0xA0 SHL SUB AND DUP4 MSTORE SWAP4 DUP4 ADD SWAP4 SWAP2 DUP4 ADD SWAP2 PUSH1 0x1 ADD PUSH3 0xD30 JUMP JUMPDEST POP POP DUP5 DUP2 SUB PUSH1 0x40 DUP7 ADD MSTORE DUP6 MLOAD DUP1 DUP3 MSTORE SWAP1 DUP3 ADD SWAP3 POP DUP2 DUP7 ADD SWAP1 DUP5 JUMPDEST DUP2 DUP2 LT ISZERO PUSH3 0xD98 JUMPI DUP3 MLOAD PUSH1 0x1 PUSH1 0x1 PUSH1 0xA0 SHL SUB AND DUP6 MSTORE SWAP4 DUP4 ADD SWAP4 SWAP2 DUP4 ADD SWAP2 PUSH1 0x1 ADD PUSH3 0xD71 JUMP JUMPDEST POP SWAP3 SWAP9 SWAP8 POP POP POP POP POP POP POP POP JUMP JUMPDEST PUSH1 0x20 DUP2 ADD PUSH1 0x3 DUP4 LT PUSH3 0xDB5 JUMPI INVALID JUMPDEST SWAP2 SWAP1 MSTORE SWAP1 JUMP JUMPDEST PUSH1 0x20 DUP1 DUP3 MSTORE PUSH1 0x1A SWAP1 DUP3 ADD MSTORE PUSH32 0x57726170706564546F6B656E206973206E6F742043546F6B656E000000000000 PUSH1 0x40 DUP3 ADD MSTORE PUSH1 0x60 ADD SWAP1 JUMP JUMPDEST SWAP1 DUP2 MSTORE PUSH1 0x20 ADD SWAP1 JUMP JUMPDEST SWAP2 DUP3 MSTORE PUSH1 0x20 DUP3 ADD MSTORE PUSH1 0x40 ADD SWAP1 JUMP JUMPDEST PUSH1 0x1 PUSH1 0x1 PUSH1 0xA0 SHL SUB DUP2 AND DUP2 EQ PUSH3 0x9E5 JUMPI PUSH1 0x0 DUP1 REVERT JUMPDEST PUSH1 0x80 MLOAD PUSH1 0xA0 MLOAD PUSH1 0x60 SHR PUSH1 0xC0 MLOAD PUSH1 0xE0 MLOAD PUSH2 0x100 MLOAD PUSH2 0x120 MLOAD PUSH2 0x140 MLOAD PUSH1 0x60 SHR PUSH2 0x160 MLOAD PUSH2 0x180 MLOAD PUSH2 0x1A0 MLOAD PUSH2 0x1C0 MLOAD PUSH1 0x60 SHR PUSH2 0x1E0 MLOAD PUSH1 0x60 SHR PUSH2 0x200 MLOAD PUSH2 0x220 MLOAD PUSH2 0x240 MLOAD PUSH2 0x260 MLOAD PUSH2 0x280 MLOAD PUSH2 0x2A0 MLOAD PUSH1 0x60 SHR PUSH2 0x41EF PUSH3 0xFFE PUSH1 0x0 CODECOPY DUP1 PUSH2 0x22DE MSTORE DUP1 PUSH2 0x2373 MSTORE POP DUP1 PUSH2 0x147B MSTORE POP DUP1 PUSH2 0x1417 MSTORE DUP1 PUSH2 0x222A MSTORE POP DUP1 PUSH2 0x723 MSTORE DUP1 PUSH2 0xAB2 MSTORE DUP1 PUSH2 0x14A3 MSTORE DUP1 PUSH2 0x261A MSTORE DUP1 PUSH2 0x27CA MSTORE DUP1 PUSH2 0x2921 MSTORE DUP1 PUSH2 0x2A93 MSTORE DUP1 PUSH2 0x2C2F MSTORE DUP1 PUSH2 0x2D86 MSTORE POP DUP1 PUSH2 0x8B3 MSTORE DUP1 PUSH2 0xA78 MSTORE DUP1 PUSH2 0x1439 MSTORE DUP1 PUSH2 0x1AB6 MSTORE DUP1 PUSH2 0x25E6 MSTORE DUP1 PUSH2 0x274F MSTORE DUP1 PUSH2 0x2796 MSTORE DUP1 PUSH2 0x28AB MSTORE DUP1 PUSH2 0x28ED MSTORE DUP1 PUSH2 0x2A5F MSTORE DUP1 PUSH2 0x2BB9 MSTORE DUP1 PUSH2 0x2BFB MSTORE DUP1 PUSH2 0x2D10 MSTORE DUP1 PUSH2 0x2D52 MSTORE POP DUP1 PUSH2 0xAF3 MSTORE DUP1 PUSH2 0xCBC MSTORE DUP1 PUSH2 0xDA3 MSTORE DUP1 PUSH2 0x12F8 MSTORE DUP1 PUSH2 0x14E4 MSTORE DUP1 PUSH2 0x216F MSTORE DUP1 PUSH2 0x2651 MSTORE DUP1 PUSH2 0x2801 MSTORE DUP1 PUSH2 0x2958 MSTORE DUP1 PUSH2 0x2ACA MSTORE DUP1 PUSH2 0x2C66 MSTORE DUP1 PUSH2 0x2DBD MSTORE DUP1 PUSH2 0x2FA2 MSTORE DUP1 PUSH2 0x2FDA MSTORE POP DUP1 PUSH2 0x134B MSTORE DUP1 PUSH2 0x15FF MSTORE DUP1 PUSH2 0x16CB MSTORE DUP1 PUSH2 0x2250 MSTORE DUP1 PUSH2 0x259B MSTORE DUP1 PUSH2 0x26DB MSTORE DUP1 PUSH2 0x2A15 MSTORE DUP1 PUSH2 0x2B45 MSTORE POP DUP1 PUSH2 0x8D7 MSTORE DUP1 PUSH2 0xF24 MSTORE DUP1 PUSH2 0x15B6 MSTORE DUP1 PUSH2 0x1682 MSTORE DUP1 PUSH2 0x1AEC MSTORE DUP1 PUSH2 0x21EF MSTORE DUP1 PUSH2 0x255C MSTORE DUP1 PUSH2 0x267D MSTORE DUP1 PUSH2 0x2837 MSTORE DUP1 PUSH2 0x29D6 MSTORE DUP1 PUSH2 0x2AF6 MSTORE DUP1 PUSH2 0x2C9C MSTORE POP DUP1 PUSH2 0x854 MSTORE POP DUP1 PUSH2 0x1875 MSTORE POP DUP1 PUSH2 0x1851 MSTORE POP DUP1 PUSH2 0xE63 MSTORE POP DUP1 PUSH2 0xFDA MSTORE POP DUP1 PUSH2 0x197B MSTORE POP DUP1 PUSH2 0x19BD MSTORE POP DUP1 PUSH2 0x199C MSTORE POP DUP1 PUSH2 0xE3F MSTORE POP DUP1 PUSH2 0xDC9 MSTORE POP PUSH2 0x41EF PUSH1 0x0 RETURN INVALID PUSH1 0x80 PUSH1 0x40 MSTORE CALLVALUE DUP1 ISZERO PUSH2 0x10 JUMPI PUSH1 0x0 DUP1 REVERT JUMPDEST POP PUSH1 0x4 CALLDATASIZE LT PUSH2 0x253 JUMPI PUSH1 0x0 CALLDATALOAD PUSH1 0xE0 SHR DUP1 PUSH4 0x679AEFCE GT PUSH2 0x146 JUMPI DUP1 PUSH4 0x95D89B41 GT PUSH2 0xC3 JUMPI DUP1 PUSH4 0xD505ACCF GT PUSH2 0x87 JUMPI DUP1 PUSH4 0xD505ACCF EQ PUSH2 0x4B2 JUMPI DUP1 PUSH4 0xD5C096C4 EQ PUSH2 0x4C5 JUMPI DUP1 PUSH4 0xDD62ED3E EQ PUSH2 0x4D8 JUMPI DUP1 PUSH4 0xDE82CD34 EQ PUSH2 0x4EB JUMPI DUP1 PUSH4 0xF174E241 EQ PUSH2 0x4F3 JUMPI DUP1 PUSH4 0xF5431AA8 EQ PUSH2 0x4FB JUMPI PUSH2 0x253 JUMP JUMPDEST DUP1 PUSH4 0x95D89B41 EQ PUSH2 0x469 JUMPI DUP1 PUSH4 0x9F11080E EQ PUSH2 0x471 JUMPI DUP1 PUSH4 0xA457C2D7 EQ PUSH2 0x484 JUMPI DUP1 PUSH4 0xA9059CBB EQ PUSH2 0x497 JUMPI DUP1 PUSH4 0xAAABADC5 EQ PUSH2 0x4AA JUMPI PUSH2 0x253 JUMP JUMPDEST DUP1 PUSH4 0x82687A56 GT PUSH2 0x10A JUMPI DUP1 PUSH4 0x82687A56 EQ PUSH2 0x42B JUMPI DUP1 PUSH4 0x851C1BB3 EQ PUSH2 0x433 JUMPI DUP1 PUSH4 0x87EC6817 EQ PUSH2 0x446 JUMPI DUP1 PUSH4 0x893D20E8 EQ PUSH2 0x459 JUMPI DUP1 PUSH4 0x8D928AF8 EQ PUSH2 0x461 JUMPI PUSH2 0x253 JUMP JUMPDEST DUP1 PUSH4 0x679AEFCE EQ PUSH2 0x3D4 JUMPI DUP1 PUSH4 0x70A08231 EQ PUSH2 0x3DC JUMPI DUP1 PUSH4 0x74F3B009 EQ PUSH2 0x3EF JUMPI DUP1 PUSH4 0x7ECEBE00 EQ PUSH2 0x410 JUMPI DUP1 PUSH4 0x8129FC1C EQ PUSH2 0x423 JUMPI PUSH2 0x253 JUMP JUMPDEST DUP1 PUSH4 0x3644E515 GT PUSH2 0x1D4 JUMPI DUP1 PUSH4 0x4DE046D5 GT PUSH2 0x198 JUMPI DUP1 PUSH4 0x4DE046D5 EQ PUSH2 0x36D JUMPI DUP1 PUSH4 0x50DD6ED9 EQ PUSH2 0x382 JUMPI DUP1 PUSH4 0x55C67628 EQ PUSH2 0x395 JUMPI DUP1 PUSH4 0x6028BFD4 EQ PUSH2 0x39D JUMPI DUP1 PUSH4 0x63FE3B56 EQ PUSH2 0x3BE JUMPI PUSH2 0x253 JUMP JUMPDEST DUP1 PUSH4 0x3644E515 EQ PUSH2 0x32F JUMPI DUP1 PUSH4 0x38E9922E EQ PUSH2 0x337 JUMPI DUP1 PUSH4 0x38FFF2D0 EQ PUSH2 0x34A JUMPI DUP1 PUSH4 0x39509351 EQ PUSH2 0x352 JUMPI DUP1 PUSH4 0x4D64CD74 EQ PUSH2 0x365 JUMPI PUSH2 0x253 JUMP JUMPDEST DUP1 PUSH4 0x18160DDD GT PUSH2 0x21B JUMPI DUP1 PUSH4 0x18160DDD EQ PUSH2 0x2D3 JUMPI DUP1 PUSH4 0x1C0DE051 EQ PUSH2 0x2DB JUMPI DUP1 PUSH4 0x1DD746EA EQ PUSH2 0x2F2 JUMPI DUP1 PUSH4 0x23B872DD EQ PUSH2 0x307 JUMPI DUP1 PUSH4 0x313CE567 EQ PUSH2 0x31A JUMPI PUSH2 0x253 JUMP JUMPDEST DUP1 PUSH4 0x1EC954A EQ PUSH2 0x258 JUMPI DUP1 PUSH4 0x6FDDE03 EQ PUSH2 0x281 JUMPI DUP1 PUSH4 0x95EA7B3 EQ PUSH2 0x296 JUMPI DUP1 PUSH4 0x16B8D6FF EQ PUSH2 0x2B6 JUMPI DUP1 PUSH4 0x16C38B3C EQ PUSH2 0x2BE JUMPI JUMPDEST PUSH1 0x0 DUP1 REVERT JUMPDEST PUSH2 0x26B PUSH2 0x266 CALLDATASIZE PUSH1 0x4 PUSH2 0x3C66 JUMP JUMPDEST PUSH2 0x503 JUMP JUMPDEST PUSH1 0x40 MLOAD PUSH2 0x278 SWAP2 SWAP1 PUSH2 0x3F6A JUMP JUMPDEST PUSH1 0x40 MLOAD DUP1 SWAP2 SUB SWAP1 RETURN JUMPDEST PUSH2 0x289 PUSH2 0x673 JUMP JUMPDEST PUSH1 0x40 MLOAD PUSH2 0x278 SWAP2 SWAP1 PUSH2 0x40FD JUMP JUMPDEST PUSH2 0x2A9 PUSH2 0x2A4 CALLDATASIZE PUSH1 0x4 PUSH2 0x39BD JUMP JUMPDEST PUSH2 0x70A JUMP JUMPDEST PUSH1 0x40 MLOAD PUSH2 0x278 SWAP2 SWAP1 PUSH2 0x3F47 JUMP JUMPDEST PUSH2 0x26B PUSH2 0x721 JUMP JUMPDEST PUSH2 0x2D1 PUSH2 0x2CC CALLDATASIZE PUSH1 0x4 PUSH2 0x3AB4 JUMP JUMPDEST PUSH2 0x745 JUMP JUMPDEST STOP JUMPDEST PUSH2 0x26B PUSH2 0x759 JUMP JUMPDEST PUSH2 0x2E3 PUSH2 0x75F JUMP JUMPDEST PUSH1 0x40 MLOAD PUSH2 0x278 SWAP4 SWAP3 SWAP2 SWAP1 PUSH2 0x3F52 JUMP JUMPDEST PUSH2 0x2FA PUSH2 0x788 JUMP JUMPDEST PUSH1 0x40 MLOAD PUSH2 0x278 SWAP2 SWAP1 PUSH2 0x3F0F JUMP JUMPDEST PUSH2 0x2A9 PUSH2 0x315 CALLDATASIZE PUSH1 0x4 PUSH2 0x390D JUMP JUMPDEST PUSH2 0x797 JUMP JUMPDEST PUSH2 0x322 PUSH2 0x80D JUMP JUMPDEST PUSH1 0x40 MLOAD PUSH2 0x278 SWAP2 SWAP1 PUSH2 0x4137 JUMP JUMPDEST PUSH2 0x26B PUSH2 0x816 JUMP JUMPDEST PUSH2 0x2D1 PUSH2 0x345 CALLDATASIZE PUSH1 0x4 PUSH2 0x3D80 JUMP JUMPDEST PUSH2 0x820 JUMP JUMPDEST PUSH2 0x26B PUSH2 0x852 JUMP JUMPDEST PUSH2 0x2A9 PUSH2 0x360 CALLDATASIZE PUSH1 0x4 PUSH2 0x39BD JUMP JUMPDEST PUSH2 0x876 JUMP JUMPDEST PUSH2 0x26B PUSH2 0x8B1 JUMP JUMPDEST PUSH2 0x375 PUSH2 0x8D5 JUMP JUMPDEST PUSH1 0x40 MLOAD PUSH2 0x278 SWAP2 SWAP1 PUSH2 0x3EFB JUMP JUMPDEST PUSH2 0x2D1 PUSH2 0x390 CALLDATASIZE PUSH1 0x4 PUSH2 0x3BD3 JUMP JUMPDEST PUSH2 0x8F9 JUMP JUMPDEST PUSH2 0x26B PUSH2 0x917 JUMP JUMPDEST PUSH2 0x3B0 PUSH2 0x3AB CALLDATASIZE PUSH1 0x4 PUSH2 0x3AEC JUMP JUMPDEST PUSH2 0x928 JUMP JUMPDEST PUSH1 0x40 MLOAD PUSH2 0x278 SWAP3 SWAP2 SWAP1 PUSH2 0x4110 JUMP JUMPDEST PUSH2 0x3C6 PUSH2 0x95F JUMP JUMPDEST PUSH1 0x40 MLOAD PUSH2 0x278 SWAP3 SWAP2 SWAP1 PUSH2 0x4129 JUMP JUMPDEST PUSH2 0x26B PUSH2 0x98D JUMP JUMPDEST PUSH2 0x26B PUSH2 0x3EA CALLDATASIZE PUSH1 0x4 PUSH2 0x38B9 JUMP JUMPDEST PUSH2 0xB3B JUMP JUMPDEST PUSH2 0x402 PUSH2 0x3FD CALLDATASIZE PUSH1 0x4 PUSH2 0x3AEC JUMP JUMPDEST PUSH2 0xB5A JUMP JUMPDEST PUSH1 0x40 MLOAD PUSH2 0x278 SWAP3 SWAP2 SWAP1 PUSH2 0x3F22 JUMP JUMPDEST PUSH2 0x26B PUSH2 0x41E CALLDATASIZE PUSH1 0x4 PUSH2 0x38B9 JUMP JUMPDEST PUSH2 0xBD8 JUMP JUMPDEST PUSH2 0x2D1 PUSH2 0xBF3 JUMP JUMPDEST PUSH2 0x26B PUSH2 0xDA1 JUMP JUMPDEST PUSH2 0x26B PUSH2 0x441 CALLDATASIZE PUSH1 0x4 PUSH2 0x3B8F JUMP JUMPDEST PUSH2 0xDC5 JUMP JUMPDEST PUSH2 0x3B0 PUSH2 0x454 CALLDATASIZE PUSH1 0x4 PUSH2 0x3AEC JUMP JUMPDEST PUSH2 0xE17 JUMP JUMPDEST PUSH2 0x375 PUSH2 0xE3D JUMP JUMPDEST PUSH2 0x375 PUSH2 0xE61 JUMP JUMPDEST PUSH2 0x289 PUSH2 0xE85 JUMP JUMPDEST PUSH2 0x2D1 PUSH2 0x47F CALLDATASIZE PUSH1 0x4 PUSH2 0x3DB0 JUMP JUMPDEST PUSH2 0xEE6 JUMP JUMPDEST PUSH2 0x2A9 PUSH2 0x492 CALLDATASIZE PUSH1 0x4 PUSH2 0x39BD JUMP JUMPDEST PUSH2 0xF50 JUMP JUMPDEST PUSH2 0x2A9 PUSH2 0x4A5 CALLDATASIZE PUSH1 0x4 PUSH2 0x39BD JUMP JUMPDEST PUSH2 0xF8E JUMP JUMPDEST PUSH2 0x375 PUSH2 0xF9B JUMP JUMPDEST PUSH2 0x2D1 PUSH2 0x4C0 CALLDATASIZE PUSH1 0x4 PUSH2 0x394D JUMP JUMPDEST PUSH2 0xFA5 JUMP JUMPDEST PUSH2 0x402 PUSH2 0x4D3 CALLDATASIZE PUSH1 0x4 PUSH2 0x3AEC JUMP JUMPDEST PUSH2 0x10EE JUMP JUMPDEST PUSH2 0x26B PUSH2 0x4E6 CALLDATASIZE PUSH1 0x4 PUSH2 0x38D5 JUMP JUMPDEST PUSH2 0x121E JUMP JUMPDEST PUSH2 0x26B PUSH2 0x125B JUMP JUMPDEST PUSH2 0x375 PUSH2 0x1349 JUMP JUMPDEST PUSH2 0x26B PUSH2 0x136D JUMP JUMPDEST PUSH1 0x0 DUP5 PUSH1 0x80 ADD MLOAD PUSH2 0x530 PUSH2 0x515 PUSH2 0xE61 JUMP JUMPDEST PUSH1 0x1 PUSH1 0x1 PUSH1 0xA0 SHL SUB AND CALLER PUSH1 0x1 PUSH1 0x1 PUSH1 0xA0 SHL SUB AND EQ PUSH1 0xCD PUSH2 0x13CC JUMP JUMPDEST PUSH2 0x545 PUSH2 0x53B PUSH2 0x852 JUMP JUMPDEST DUP3 EQ PUSH2 0x1F4 PUSH2 0x13CC JUMP JUMPDEST PUSH2 0x54D PUSH2 0x13DA JUMP JUMPDEST PUSH2 0x567 PUSH1 0x3 DUP6 LT DUP1 ISZERO PUSH2 0x560 JUMPI POP PUSH1 0x3 DUP5 LT JUMPDEST PUSH1 0x64 PUSH2 0x13CC JUMP JUMPDEST PUSH1 0x0 PUSH2 0x571 PUSH2 0x13EF JUMP JUMPDEST SWAP1 POP PUSH2 0x57D DUP7 DUP3 PUSH2 0x151D JUMP JUMPDEST PUSH1 0x0 DUP1 PUSH2 0x588 PUSH2 0x95F JUMP JUMPDEST SWAP2 POP SWAP2 POP PUSH1 0x0 PUSH1 0x40 MLOAD DUP1 PUSH1 0x60 ADD PUSH1 0x40 MSTORE DUP1 PUSH2 0x5A1 PUSH2 0x917 JUMP JUMPDEST DUP2 MSTORE PUSH1 0x20 DUP2 ADD DUP6 SWAP1 MSTORE PUSH1 0x40 ADD DUP4 SWAP1 MSTORE SWAP1 POP PUSH1 0x0 DUP11 MLOAD PUSH1 0x1 DUP2 GT ISZERO PUSH2 0x5C1 JUMPI INVALID JUMPDEST EQ ISZERO PUSH2 0x625 JUMPI PUSH2 0x5E8 DUP11 PUSH1 0x60 ADD MLOAD DUP6 DUP11 DUP2 MLOAD DUP2 LT PUSH2 0x5DB JUMPI INVALID JUMPDEST PUSH1 0x20 MUL PUSH1 0x20 ADD ADD MLOAD PUSH2 0x157E JUMP JUMPDEST PUSH1 0x60 DUP12 ADD MSTORE PUSH1 0x0 PUSH2 0x5FA DUP12 DUP12 DUP5 PUSH2 0x158A JUMP JUMPDEST SWAP1 POP PUSH2 0x619 DUP2 DUP7 DUP11 DUP2 MLOAD DUP2 LT PUSH2 0x60C JUMPI INVALID JUMPDEST PUSH1 0x20 MUL PUSH1 0x20 ADD ADD MLOAD PUSH2 0x1651 JUMP JUMPDEST SWAP7 POP POP POP POP POP POP PUSH2 0x66A JUMP JUMPDEST PUSH2 0x639 DUP11 PUSH1 0x60 ADD MLOAD DUP6 DUP10 DUP2 MLOAD DUP2 LT PUSH2 0x5DB JUMPI INVALID JUMPDEST PUSH1 0x60 DUP12 ADD MSTORE PUSH1 0x0 PUSH2 0x64B DUP12 DUP12 DUP5 PUSH2 0x165D JUMP JUMPDEST SWAP1 POP PUSH2 0x619 DUP2 DUP7 DUP12 DUP2 MLOAD DUP2 LT PUSH2 0x65D JUMPI INVALID JUMPDEST PUSH1 0x20 MUL PUSH1 0x20 ADD ADD MLOAD PUSH2 0x1712 JUMP JUMPDEST POP SWAP5 SWAP4 POP POP POP POP JUMP JUMPDEST PUSH1 0x3 DUP1 SLOAD PUSH1 0x40 DUP1 MLOAD PUSH1 0x20 PUSH1 0x1F PUSH1 0x2 PUSH1 0x0 NOT PUSH2 0x100 PUSH1 0x1 DUP9 AND ISZERO MUL ADD SWAP1 SWAP6 AND SWAP5 SWAP1 SWAP5 DIV SWAP4 DUP5 ADD DUP2 SWAP1 DIV DUP2 MUL DUP3 ADD DUP2 ADD SWAP1 SWAP3 MSTORE DUP3 DUP2 MSTORE PUSH1 0x60 SWAP4 SWAP1 SWAP3 SWAP1 SWAP2 DUP4 ADD DUP3 DUP3 DUP1 ISZERO PUSH2 0x6FF JUMPI DUP1 PUSH1 0x1F LT PUSH2 0x6D4 JUMPI PUSH2 0x100 DUP1 DUP4 SLOAD DIV MUL DUP4 MSTORE SWAP2 PUSH1 0x20 ADD SWAP2 PUSH2 0x6FF JUMP JUMPDEST DUP3 ADD SWAP2 SWAP1 PUSH1 0x0 MSTORE PUSH1 0x20 PUSH1 0x0 KECCAK256 SWAP1 JUMPDEST DUP2 SLOAD DUP2 MSTORE SWAP1 PUSH1 0x1 ADD SWAP1 PUSH1 0x20 ADD DUP1 DUP4 GT PUSH2 0x6E2 JUMPI DUP3 SWAP1 SUB PUSH1 0x1F AND DUP3 ADD SWAP2 JUMPDEST POP POP POP POP POP SWAP1 POP JUMPDEST SWAP1 JUMP JUMPDEST PUSH1 0x0 PUSH2 0x717 CALLER DUP5 DUP5 PUSH2 0x171E JUMP JUMPDEST POP PUSH1 0x1 JUMPDEST SWAP3 SWAP2 POP POP JUMP JUMPDEST PUSH32 0x0 SWAP1 JUMP JUMPDEST PUSH2 0x74D PUSH2 0x1786 JUMP JUMPDEST PUSH2 0x756 DUP2 PUSH2 0x17B4 JUMP JUMPDEST POP JUMP JUMPDEST PUSH1 0x2 SLOAD SWAP1 JUMP JUMPDEST PUSH1 0x0 DUP1 PUSH1 0x0 PUSH2 0x76C PUSH2 0x1832 JUMP JUMPDEST ISZERO SWAP3 POP PUSH2 0x777 PUSH2 0x184F JUMP JUMPDEST SWAP2 POP PUSH2 0x781 PUSH2 0x1873 JUMP JUMPDEST SWAP1 POP SWAP1 SWAP2 SWAP3 JUMP JUMPDEST PUSH1 0x60 PUSH2 0x792 PUSH2 0x13EF JUMP JUMPDEST SWAP1 POP SWAP1 JUMP JUMPDEST PUSH1 0x0 DUP1 PUSH2 0x7A4 DUP6 CALLER PUSH2 0x121E JUMP JUMPDEST SWAP1 POP PUSH2 0x7C8 CALLER PUSH1 0x1 PUSH1 0x1 PUSH1 0xA0 SHL SUB DUP8 AND EQ DUP1 PUSH2 0x7C0 JUMPI POP DUP4 DUP3 LT ISZERO JUMPDEST PUSH2 0x19E PUSH2 0x13CC JUMP JUMPDEST PUSH2 0x7D3 DUP6 DUP6 DUP6 PUSH2 0x1897 JUMP JUMPDEST CALLER PUSH1 0x1 PUSH1 0x1 PUSH1 0xA0 SHL SUB DUP7 AND EQ DUP1 ISZERO SWAP1 PUSH2 0x7EE JUMPI POP PUSH1 0x0 NOT DUP2 EQ ISZERO JUMPDEST ISZERO PUSH2 0x800 JUMPI PUSH2 0x800 DUP6 CALLER DUP6 DUP5 SUB PUSH2 0x171E JUMP JUMPDEST PUSH1 0x1 SWAP2 POP POP JUMPDEST SWAP4 SWAP3 POP POP POP JUMP JUMPDEST PUSH1 0x5 SLOAD PUSH1 0xFF AND SWAP1 JUMP JUMPDEST PUSH1 0x0 PUSH2 0x792 PUSH2 0x1977 JUMP JUMPDEST PUSH1 0x0 DUP1 PUSH2 0x82B PUSH2 0x95F JUMP JUMPDEST SWAP2 POP SWAP2 POP PUSH2 0x844 PUSH2 0x83C DUP4 DUP4 PUSH2 0x1A14 JUMP JUMPDEST PUSH2 0x14F PUSH2 0x13CC JUMP JUMPDEST PUSH2 0x84D DUP4 PUSH2 0x1B2C JUMP JUMPDEST POP POP POP JUMP JUMPDEST PUSH32 0x0 SWAP1 JUMP JUMPDEST CALLER PUSH1 0x0 DUP2 DUP2 MSTORE PUSH1 0x1 PUSH1 0x20 SWAP1 DUP2 MSTORE PUSH1 0x40 DUP1 DUP4 KECCAK256 PUSH1 0x1 PUSH1 0x1 PUSH1 0xA0 SHL SUB DUP8 AND DUP5 MSTORE SWAP1 SWAP2 MSTORE DUP2 KECCAK256 SLOAD SWAP1 SWAP2 PUSH2 0x717 SWAP2 DUP6 SWAP1 PUSH2 0x8AC SWAP1 DUP7 PUSH2 0x1B45 JUMP JUMPDEST PUSH2 0x171E JUMP JUMPDEST PUSH32 0x0 SWAP1 JUMP JUMPDEST PUSH32 0x0 SWAP1 JUMP JUMPDEST PUSH2 0x901 PUSH2 0x1786 JUMP JUMPDEST PUSH2 0x909 PUSH2 0x13DA JUMP JUMPDEST PUSH2 0x913 DUP3 DUP3 PUSH2 0x1B57 JUMP JUMPDEST POP POP JUMP JUMPDEST PUSH1 0x8 SLOAD PUSH1 0x0 SWAP1 PUSH2 0x792 SWAP1 PUSH1 0xC0 PUSH2 0x1C1E JUMP JUMPDEST PUSH1 0x0 PUSH1 0x60 PUSH2 0x93E DUP7 MLOAD PUSH2 0x939 PUSH2 0x1C2C JUMP JUMPDEST PUSH2 0x1C31 JUMP JUMPDEST PUSH2 0x953 DUP10 DUP10 DUP10 DUP10 DUP10 DUP10 DUP10 PUSH2 0x1C3E PUSH2 0x1CE2 PUSH2 0x1D43 JUMP JUMPDEST SWAP8 POP SWAP8 SWAP6 POP POP POP POP POP POP JUMP JUMPDEST PUSH1 0x0 DUP1 PUSH1 0x0 PUSH2 0x96C PUSH2 0x1E65 JUMP JUMPDEST SWAP1 POP PUSH2 0x979 DUP2 PUSH1 0x0 PUSH2 0x1E6B JUMP JUMPDEST SWAP3 POP PUSH2 0x986 DUP2 PUSH1 0x60 PUSH2 0x1E6B JUMP JUMPDEST SWAP2 POP POP SWAP1 SWAP2 JUMP JUMPDEST PUSH1 0x0 DUP1 PUSH2 0x998 PUSH2 0x852 JUMP JUMPDEST SWAP1 POP PUSH1 0x0 PUSH2 0x9A4 PUSH2 0xE61 JUMP JUMPDEST PUSH1 0x1 PUSH1 0x1 PUSH1 0xA0 SHL SUB AND PUSH4 0xF94D4668 DUP4 PUSH1 0x40 MLOAD DUP3 PUSH4 0xFFFFFFFF AND PUSH1 0xE0 SHL DUP2 MSTORE PUSH1 0x4 ADD PUSH2 0x9CF SWAP2 SWAP1 PUSH2 0x3F6A JUMP JUMPDEST PUSH1 0x0 PUSH1 0x40 MLOAD DUP1 DUP4 SUB DUP2 DUP7 DUP1 EXTCODESIZE ISZERO DUP1 ISZERO PUSH2 0x9E7 JUMPI PUSH1 0x0 DUP1 REVERT JUMPDEST POP GAS STATICCALL ISZERO DUP1 ISZERO PUSH2 0x9FB JUMPI RETURNDATASIZE PUSH1 0x0 DUP1 RETURNDATACOPY RETURNDATASIZE PUSH1 0x0 REVERT JUMPDEST POP POP POP POP PUSH1 0x40 MLOAD RETURNDATASIZE PUSH1 0x0 DUP3 RETURNDATACOPY PUSH1 0x1F RETURNDATASIZE SWAP1 DUP2 ADD PUSH1 0x1F NOT AND DUP3 ADD PUSH1 0x40 MSTORE PUSH2 0xA23 SWAP2 SWAP1 DUP2 ADD SWAP1 PUSH2 0x39E8 JUMP JUMPDEST POP SWAP2 POP POP PUSH2 0xA38 DUP2 PUSH2 0xA33 PUSH2 0x13EF JUMP JUMPDEST PUSH2 0x151D JUMP JUMPDEST PUSH1 0x0 DUP1 PUSH2 0xA43 PUSH2 0x95F JUMP JUMPDEST SWAP2 POP SWAP2 POP PUSH1 0x0 PUSH1 0x40 MLOAD DUP1 PUSH1 0x60 ADD PUSH1 0x40 MSTORE DUP1 PUSH2 0xA5C PUSH2 0x917 JUMP JUMPDEST DUP2 MSTORE PUSH1 0x20 ADD DUP5 DUP2 MSTORE PUSH1 0x20 ADD DUP4 DUP2 MSTORE POP SWAP1 POP PUSH1 0x0 PUSH2 0xAE8 PUSH2 0xAAF DUP7 PUSH32 0x0 DUP2 MLOAD DUP2 LT PUSH2 0xAA1 JUMPI INVALID JUMPDEST PUSH1 0x20 MUL PUSH1 0x20 ADD ADD MLOAD DUP5 PUSH2 0x1E7D JUMP JUMPDEST DUP7 PUSH32 0x0 DUP2 MLOAD DUP2 LT PUSH2 0xADB JUMPI INVALID JUMPDEST PUSH1 0x20 MUL PUSH1 0x20 ADD ADD MLOAD PUSH2 0x1EDE JUMP JUMPDEST SWAP1 POP PUSH2 0xB30 PUSH2 0xB29 DUP7 PUSH32 0x0 DUP2 MLOAD DUP2 LT PUSH2 0xB1C JUMPI INVALID JUMPDEST PUSH1 0x20 MUL PUSH1 0x20 ADD ADD MLOAD PUSH2 0x1EEA JUMP JUMPDEST DUP3 SWAP1 PUSH2 0x1EF6 JUMP JUMPDEST SWAP7 POP POP POP POP POP POP POP SWAP1 JUMP JUMPDEST PUSH1 0x1 PUSH1 0x1 PUSH1 0xA0 SHL SUB DUP2 AND PUSH1 0x0 SWAP1 DUP2 MSTORE PUSH1 0x20 DUP2 SWAP1 MSTORE PUSH1 0x40 SWAP1 KECCAK256 SLOAD JUMPDEST SWAP2 SWAP1 POP JUMP JUMPDEST PUSH1 0x60 DUP1 DUP9 PUSH2 0xB69 PUSH2 0x515 PUSH2 0xE61 JUMP JUMPDEST PUSH2 0xB74 PUSH2 0x53B PUSH2 0x852 JUMP JUMPDEST PUSH1 0x0 PUSH2 0xB7E PUSH2 0x13EF JUMP JUMPDEST SWAP1 POP PUSH2 0xB8A DUP9 DUP3 PUSH2 0x151D JUMP JUMPDEST PUSH1 0x0 DUP1 PUSH1 0x0 PUSH2 0xB9F DUP15 DUP15 DUP15 DUP15 DUP15 DUP15 DUP11 DUP16 PUSH2 0x1C3E JUMP JUMPDEST SWAP3 POP SWAP3 POP SWAP3 POP PUSH2 0xBAF DUP14 DUP5 PUSH2 0x1F4D JUMP JUMPDEST PUSH2 0xBB9 DUP3 DUP6 PUSH2 0x1CE2 JUMP JUMPDEST PUSH2 0xBC3 DUP2 DUP6 PUSH2 0x1CE2 JUMP JUMPDEST SWAP1 SWAP6 POP SWAP4 POP POP POP JUMPDEST POP SWAP8 POP SWAP8 SWAP6 POP POP POP POP POP POP JUMP JUMPDEST PUSH1 0x1 PUSH1 0x1 PUSH1 0xA0 SHL SUB AND PUSH1 0x0 SWAP1 DUP2 MSTORE PUSH1 0x6 PUSH1 0x20 MSTORE PUSH1 0x40 SWAP1 KECCAK256 SLOAD SWAP1 JUMP JUMPDEST PUSH1 0x0 PUSH2 0xBFD PUSH2 0x852 JUMP JUMPDEST SWAP1 POP PUSH1 0x0 PUSH2 0xC09 PUSH2 0xE61 JUMP JUMPDEST PUSH1 0x1 PUSH1 0x1 PUSH1 0xA0 SHL SUB AND PUSH4 0xF94D4668 DUP4 PUSH1 0x40 MLOAD DUP3 PUSH4 0xFFFFFFFF AND PUSH1 0xE0 SHL DUP2 MSTORE PUSH1 0x4 ADD PUSH2 0xC34 SWAP2 SWAP1 PUSH2 0x3F6A JUMP JUMPDEST PUSH1 0x0 PUSH1 0x40 MLOAD DUP1 DUP4 SUB DUP2 DUP7 DUP1 EXTCODESIZE ISZERO DUP1 ISZERO PUSH2 0xC4C JUMPI PUSH1 0x0 DUP1 REVERT JUMPDEST POP GAS STATICCALL ISZERO DUP1 ISZERO PUSH2 0xC60 JUMPI RETURNDATASIZE PUSH1 0x0 DUP1 RETURNDATACOPY RETURNDATASIZE PUSH1 0x0 REVERT JUMPDEST POP POP POP POP PUSH1 0x40 MLOAD RETURNDATASIZE PUSH1 0x0 DUP3 RETURNDATACOPY PUSH1 0x1F RETURNDATASIZE SWAP1 DUP2 ADD PUSH1 0x1F NOT AND DUP3 ADD PUSH1 0x40 MSTORE PUSH2 0xC88 SWAP2 SWAP1 DUP2 ADD SWAP1 PUSH2 0x39E8 JUMP JUMPDEST POP POP PUSH1 0x40 DUP1 MLOAD PUSH1 0x3 DUP1 DUP3 MSTORE PUSH1 0x80 DUP3 ADD SWAP1 SWAP3 MSTORE SWAP2 SWAP3 POP PUSH1 0x0 SWAP2 SWAP1 PUSH1 0x20 DUP3 ADD PUSH1 0x60 DUP1 CALLDATASIZE DUP4 CALLDATACOPY ADD SWAP1 POP POP SWAP1 POP PUSH1 0x1 PUSH1 0x1 PUSH1 0x70 SHL SUB DUP2 PUSH32 0x0 DUP2 MLOAD DUP2 LT PUSH2 0xCE5 JUMPI INVALID JUMPDEST PUSH1 0x20 MUL PUSH1 0x20 ADD ADD DUP2 DUP2 MSTORE POP POP PUSH1 0x0 PUSH1 0x40 MLOAD DUP1 PUSH1 0x80 ADD PUSH1 0x40 MSTORE DUP1 PUSH2 0xD07 DUP6 PUSH2 0x707 JUMP JUMPDEST DUP2 MSTORE PUSH1 0x20 ADD DUP4 DUP2 MSTORE PUSH1 0x20 ADD PUSH1 0x40 MLOAD DUP1 PUSH1 0x20 ADD PUSH1 0x40 MSTORE DUP1 PUSH1 0x0 DUP2 MSTORE POP DUP2 MSTORE PUSH1 0x20 ADD PUSH1 0x0 ISZERO ISZERO DUP2 MSTORE POP SWAP1 POP PUSH2 0xD38 PUSH2 0xE61 JUMP JUMPDEST PUSH1 0x1 PUSH1 0x1 PUSH1 0xA0 SHL SUB AND PUSH4 0xB95CAC28 DUP6 ADDRESS ADDRESS DUP6 PUSH1 0x40 MLOAD DUP6 PUSH4 0xFFFFFFFF AND PUSH1 0xE0 SHL DUP2 MSTORE PUSH1 0x4 ADD PUSH2 0xD69 SWAP5 SWAP4 SWAP3 SWAP2 SWAP1 PUSH2 0x3F92 JUMP JUMPDEST PUSH1 0x0 PUSH1 0x40 MLOAD DUP1 DUP4 SUB DUP2 PUSH1 0x0 DUP8 DUP1 EXTCODESIZE ISZERO DUP1 ISZERO PUSH2 0xD83 JUMPI PUSH1 0x0 DUP1 REVERT JUMPDEST POP GAS CALL ISZERO DUP1 ISZERO PUSH2 0xD97 JUMPI RETURNDATASIZE PUSH1 0x0 DUP1 RETURNDATACOPY RETURNDATASIZE PUSH1 0x0 REVERT JUMPDEST POP POP POP POP POP POP POP POP JUMP JUMPDEST PUSH32 0x0 SWAP1 JUMP JUMPDEST PUSH1 0x0 PUSH32 0x0 DUP3 PUSH1 0x40 MLOAD PUSH1 0x20 ADD PUSH2 0xDFA SWAP3 SWAP2 SWAP1 PUSH2 0x3EB8 JUMP JUMPDEST PUSH1 0x40 MLOAD PUSH1 0x20 DUP2 DUP4 SUB SUB DUP2 MSTORE SWAP1 PUSH1 0x40 MSTORE DUP1 MLOAD SWAP1 PUSH1 0x20 ADD KECCAK256 SWAP1 POP SWAP2 SWAP1 POP JUMP JUMPDEST PUSH1 0x0 PUSH1 0x60 PUSH2 0xE28 DUP7 MLOAD PUSH2 0x939 PUSH2 0x1C2C JUMP JUMPDEST PUSH2 0x953 DUP10 DUP10 DUP10 DUP10 DUP10 DUP10 DUP10 PUSH2 0x1F57 PUSH2 0x1F75 PUSH2 0x1D43 JUMP JUMPDEST PUSH32 0x0 SWAP1 JUMP JUMPDEST PUSH32 0x0 SWAP1 JUMP JUMPDEST PUSH1 0x4 DUP1 SLOAD PUSH1 0x40 DUP1 MLOAD PUSH1 0x20 PUSH1 0x1F PUSH1 0x2 PUSH1 0x0 NOT PUSH2 0x100 PUSH1 0x1 DUP9 AND ISZERO MUL ADD SWAP1 SWAP6 AND SWAP5 SWAP1 SWAP5 DIV SWAP4 DUP5 ADD DUP2 SWAP1 DIV DUP2 MUL DUP3 ADD DUP2 ADD SWAP1 SWAP3 MSTORE DUP3 DUP2 MSTORE PUSH1 0x60 SWAP4 SWAP1 SWAP3 SWAP1 SWAP2 DUP4 ADD DUP3 DUP3 DUP1 ISZERO PUSH2 0x6FF JUMPI DUP1 PUSH1 0x1F LT PUSH2 0x6D4 JUMPI PUSH2 0x100 DUP1 DUP4 SLOAD DIV MUL DUP4 MSTORE SWAP2 PUSH1 0x20 ADD SWAP2 PUSH2 0x6FF JUMP JUMPDEST PUSH2 0xEEE PUSH2 0x1786 JUMP JUMPDEST PUSH1 0x0 DUP1 PUSH2 0xEF9 PUSH2 0x95F JUMP JUMPDEST SWAP2 POP SWAP2 POP PUSH2 0xF0A PUSH2 0x83C DUP4 DUP4 PUSH2 0x1A14 JUMP JUMPDEST PUSH2 0xF1F PUSH2 0xF17 DUP6 DUP6 PUSH2 0x1A14 JUMP JUMPDEST PUSH2 0x157 PUSH2 0x13CC JUMP JUMPDEST PUSH2 0xF4A PUSH32 0x0 DUP6 DUP6 PUSH2 0x1FD6 JUMP JUMPDEST POP POP POP POP JUMP JUMPDEST PUSH1 0x0 DUP1 PUSH2 0xF5D CALLER DUP6 PUSH2 0x121E JUMP JUMPDEST SWAP1 POP DUP1 DUP4 LT PUSH2 0xF77 JUMPI PUSH2 0xF72 CALLER DUP6 PUSH1 0x0 PUSH2 0x171E JUMP JUMPDEST PUSH2 0xF84 JUMP JUMPDEST PUSH2 0xF84 CALLER DUP6 DUP6 DUP5 SUB PUSH2 0x171E JUMP JUMPDEST POP PUSH1 0x1 SWAP4 SWAP3 POP POP POP JUMP JUMPDEST PUSH1 0x0 PUSH2 0x717 CALLER DUP5 DUP5 PUSH2 0x1897 JUMP JUMPDEST PUSH1 0x0 PUSH2 0x792 PUSH2 0x2067 JUMP JUMPDEST PUSH2 0xFB3 DUP5 TIMESTAMP GT ISZERO PUSH1 0xD1 PUSH2 0x13CC JUMP JUMPDEST PUSH1 0x1 PUSH1 0x1 PUSH1 0xA0 SHL SUB DUP8 AND PUSH1 0x0 SWAP1 DUP2 MSTORE PUSH1 0x6 PUSH1 0x20 SWAP1 DUP2 MSTORE PUSH1 0x40 DUP1 DUP4 KECCAK256 SLOAD SWAP1 MLOAD SWAP1 SWAP3 SWAP2 PUSH2 0x100A SWAP2 PUSH32 0x0 SWAP2 DUP13 SWAP2 DUP13 SWAP2 DUP13 SWAP2 DUP9 SWAP2 DUP14 SWAP2 ADD PUSH2 0x404F JUMP JUMPDEST PUSH1 0x40 MLOAD PUSH1 0x20 DUP2 DUP4 SUB SUB DUP2 MSTORE SWAP1 PUSH1 0x40 MSTORE DUP1 MLOAD SWAP1 PUSH1 0x20 ADD KECCAK256 SWAP1 POP PUSH1 0x0 PUSH2 0x102D DUP3 PUSH2 0x20E1 JUMP JUMPDEST SWAP1 POP PUSH1 0x0 PUSH1 0x1 DUP3 DUP9 DUP9 DUP9 PUSH1 0x40 MLOAD PUSH1 0x0 DUP2 MSTORE PUSH1 0x20 ADD PUSH1 0x40 MSTORE PUSH1 0x40 MLOAD PUSH2 0x1054 SWAP5 SWAP4 SWAP3 SWAP2 SWAP1 PUSH2 0x40DF JUMP JUMPDEST PUSH1 0x20 PUSH1 0x40 MLOAD PUSH1 0x20 DUP2 SUB SWAP1 DUP1 DUP5 SUB SWAP1 DUP6 GAS STATICCALL ISZERO DUP1 ISZERO PUSH2 0x1076 JUMPI RETURNDATASIZE PUSH1 0x0 DUP1 RETURNDATACOPY RETURNDATASIZE PUSH1 0x0 REVERT JUMPDEST POP POP PUSH1 0x40 MLOAD PUSH1 0x1F NOT ADD MLOAD SWAP2 POP PUSH2 0x10B8 SWAP1 POP PUSH1 0x1 PUSH1 0x1 PUSH1 0xA0 SHL SUB DUP3 AND ISZERO DUP1 ISZERO SWAP1 PUSH2 0x10B0 JUMPI POP DUP12 PUSH1 0x1 PUSH1 0x1 PUSH1 0xA0 SHL SUB AND DUP3 PUSH1 0x1 PUSH1 0x1 PUSH1 0xA0 SHL SUB AND EQ JUMPDEST PUSH2 0x1F8 PUSH2 0x13CC JUMP JUMPDEST PUSH1 0x1 PUSH1 0x1 PUSH1 0xA0 SHL SUB DUP12 AND PUSH1 0x0 SWAP1 DUP2 MSTORE PUSH1 0x6 PUSH1 0x20 MSTORE PUSH1 0x40 SWAP1 KECCAK256 PUSH1 0x1 DUP6 ADD SWAP1 SSTORE PUSH2 0x10E1 DUP12 DUP12 DUP12 PUSH2 0x171E JUMP JUMPDEST POP POP POP POP POP POP POP POP POP POP POP JUMP JUMPDEST PUSH1 0x60 DUP1 DUP9 PUSH2 0x10FD PUSH2 0x515 PUSH2 0xE61 JUMP JUMPDEST PUSH2 0x1108 PUSH2 0x53B PUSH2 0x852 JUMP JUMPDEST PUSH1 0x0 PUSH2 0x1112 PUSH2 0x13EF JUMP JUMPDEST SWAP1 POP PUSH2 0x111C PUSH2 0x759 JUMP JUMPDEST PUSH2 0x11CE JUMPI PUSH1 0x0 DUP1 PUSH2 0x1130 DUP14 DUP14 DUP14 DUP7 DUP12 PUSH2 0x20FD JUMP JUMPDEST SWAP2 POP SWAP2 POP PUSH2 0x1149 PUSH2 0x113F PUSH2 0x21B1 JUMP JUMPDEST DUP4 LT ISZERO PUSH1 0xCC PUSH2 0x13CC JUMP JUMPDEST PUSH2 0x115B PUSH1 0x0 PUSH2 0x1156 PUSH2 0x21B1 JUMP JUMPDEST PUSH2 0x21B6 JUMP JUMPDEST PUSH2 0x116E DUP12 PUSH2 0x1167 PUSH2 0x21B1 JUMP JUMPDEST DUP5 SUB PUSH2 0x21B6 JUMP JUMPDEST PUSH2 0x1178 DUP2 DUP5 PUSH2 0x1F75 JUMP JUMPDEST DUP1 PUSH2 0x1181 PUSH2 0x1C2C JUMP JUMPDEST PUSH8 0xFFFFFFFFFFFFFFFF DUP2 GT DUP1 ISZERO PUSH2 0x1197 JUMPI PUSH1 0x0 DUP1 REVERT JUMPDEST POP PUSH1 0x40 MLOAD SWAP1 DUP1 DUP3 MSTORE DUP1 PUSH1 0x20 MUL PUSH1 0x20 ADD DUP3 ADD PUSH1 0x40 MSTORE DUP1 ISZERO PUSH2 0x11C1 JUMPI DUP2 PUSH1 0x20 ADD PUSH1 0x20 DUP3 MUL DUP1 CALLDATASIZE DUP4 CALLDATACOPY ADD SWAP1 POP JUMPDEST POP SWAP6 POP SWAP6 POP POP POP POP PUSH2 0xBCB JUMP JUMPDEST PUSH2 0x11D8 DUP9 DUP3 PUSH2 0x151D JUMP JUMPDEST PUSH1 0x0 DUP1 PUSH1 0x0 PUSH2 0x11ED DUP15 DUP15 DUP15 DUP15 DUP15 DUP15 DUP11 DUP16 PUSH2 0x1F57 JUMP JUMPDEST SWAP3 POP SWAP3 POP SWAP3 POP PUSH2 0x11FD DUP13 DUP5 PUSH2 0x21B6 JUMP JUMPDEST PUSH2 0x1207 DUP3 DUP6 PUSH2 0x1F75 JUMP JUMPDEST PUSH2 0x1211 DUP2 DUP6 PUSH2 0x1CE2 JUMP JUMPDEST SWAP1 SWAP6 POP SWAP4 POP PUSH2 0xBCB SWAP2 POP POP JUMP JUMPDEST PUSH1 0x0 PUSH2 0x1228 PUSH2 0xE61 JUMP JUMPDEST PUSH1 0x1 PUSH1 0x1 PUSH1 0xA0 SHL SUB AND DUP3 PUSH1 0x1 PUSH1 0x1 PUSH1 0xA0 SHL SUB AND EQ ISZERO PUSH2 0x124A JUMPI POP PUSH1 0x0 NOT PUSH2 0x71B JUMP JUMPDEST PUSH2 0x1254 DUP4 DUP4 PUSH2 0x21C0 JUMP JUMPDEST SWAP1 POP PUSH2 0x71B JUMP JUMPDEST PUSH1 0x0 DUP1 PUSH2 0x1266 PUSH2 0xE61 JUMP JUMPDEST PUSH1 0x1 PUSH1 0x1 PUSH1 0xA0 SHL SUB AND PUSH4 0xF94D4668 PUSH2 0x127C PUSH2 0x852 JUMP JUMPDEST PUSH1 0x40 MLOAD DUP3 PUSH4 0xFFFFFFFF AND PUSH1 0xE0 SHL DUP2 MSTORE PUSH1 0x4 ADD PUSH2 0x1298 SWAP2 SWAP1 PUSH2 0x3F6A JUMP JUMPDEST PUSH1 0x0 PUSH1 0x40 MLOAD DUP1 DUP4 SUB DUP2 DUP7 DUP1 EXTCODESIZE ISZERO DUP1 ISZERO PUSH2 0x12B0 JUMPI PUSH1 0x0 DUP1 REVERT JUMPDEST POP GAS STATICCALL ISZERO DUP1 ISZERO PUSH2 0x12C4 JUMPI RETURNDATASIZE PUSH1 0x0 DUP1 RETURNDATACOPY RETURNDATASIZE PUSH1 0x0 REVERT JUMPDEST POP POP POP POP PUSH1 0x40 MLOAD RETURNDATASIZE PUSH1 0x0 DUP3 RETURNDATACOPY PUSH1 0x1F RETURNDATASIZE SWAP1 DUP2 ADD PUSH1 0x1F NOT AND DUP3 ADD PUSH1 0x40 MSTORE PUSH2 0x12EC SWAP2 SWAP1 DUP2 ADD SWAP1 PUSH2 0x39E8 JUMP JUMPDEST POP SWAP2 POP POP PUSH1 0x0 PUSH2 0x1337 DUP3 PUSH32 0x0 DUP2 MLOAD DUP2 LT PUSH2 0x1321 JUMPI INVALID JUMPDEST PUSH1 0x20 MUL PUSH1 0x20 ADD ADD MLOAD PUSH2 0x1332 ADDRESS PUSH2 0x21EB JUMP JUMPDEST PUSH2 0x157E JUMP JUMPDEST SWAP1 POP PUSH2 0x1342 DUP2 PUSH2 0x22C5 JUMP JUMPDEST SWAP3 POP POP POP SWAP1 JUMP JUMPDEST PUSH32 0x0 SWAP1 JUMP JUMPDEST PUSH1 0x0 PUSH2 0x792 PUSH2 0x22D9 JUMP JUMPDEST DUP1 PUSH2 0x913 DUP2 PUSH2 0x2453 JUMP JUMPDEST PUSH8 0xFFFFFFFFFFFFFFFF DUP2 SHL NOT SWAP3 SWAP1 SWAP3 AND SWAP2 SHL OR SWAP1 JUMP JUMPDEST PUSH1 0x0 PUSH2 0x13A7 DUP4 DUP4 GT ISZERO PUSH1 0x1 PUSH2 0x13CC JUMP JUMPDEST POP SWAP1 SUB SWAP1 JUMP JUMPDEST SHL SWAP1 JUMP JUMPDEST PUSH1 0x1 PUSH1 0x1 PUSH1 0xC0 SHL SUB DUP3 DUP2 AND DUP3 SHL SWAP1 DUP3 SHL NOT DUP5 AND OR SWAP4 SWAP3 POP POP POP JUMP JUMPDEST DUP2 PUSH2 0x913 JUMPI PUSH2 0x913 DUP2 PUSH2 0x24CC JUMP JUMPDEST PUSH2 0x13ED PUSH2 0x13E5 PUSH2 0x1832 JUMP JUMPDEST PUSH2 0x192 PUSH2 0x13CC JUMP JUMPDEST JUMP JUMPDEST PUSH1 0x40 DUP1 MLOAD PUSH1 0x3 DUP1 DUP3 MSTORE PUSH1 0x80 DUP3 ADD SWAP1 SWAP3 MSTORE PUSH1 0x60 SWAP2 PUSH1 0x0 SWAP2 SWAP1 PUSH1 0x20 DUP3 ADD DUP5 DUP1 CALLDATASIZE DUP4 CALLDATACOPY ADD SWAP1 POP POP SWAP1 POP PUSH32 0x0 DUP2 PUSH32 0x0 DUP2 MLOAD DUP2 LT PUSH2 0x1462 JUMPI INVALID JUMPDEST PUSH1 0x20 MUL PUSH1 0x20 ADD ADD DUP2 DUP2 MSTORE POP POP PUSH2 0x14A0 PUSH2 0x1479 PUSH2 0x22D9 JUMP JUMPDEST PUSH32 0x0 SWAP1 PUSH2 0x251F JUMP JUMPDEST DUP2 PUSH32 0x0 DUP2 MLOAD DUP2 LT PUSH2 0x14CC JUMPI INVALID JUMPDEST PUSH1 0x20 MUL PUSH1 0x20 ADD ADD DUP2 DUP2 MSTORE POP POP PUSH8 0xDE0B6B3A7640000 DUP2 PUSH32 0x0 DUP2 MLOAD DUP2 LT PUSH2 0x150D JUMPI INVALID JUMPDEST PUSH1 0x20 SWAP1 DUP2 MUL SWAP2 SWAP1 SWAP2 ADD ADD MSTORE SWAP1 POP SWAP1 JUMP JUMPDEST PUSH1 0x0 JUMPDEST PUSH2 0x1528 PUSH2 0x1C2C JUMP JUMPDEST DUP2 LT ISZERO PUSH2 0x84D JUMPI PUSH2 0x155F DUP4 DUP3 DUP2 MLOAD DUP2 LT PUSH2 0x153E JUMPI INVALID JUMPDEST PUSH1 0x20 MUL PUSH1 0x20 ADD ADD MLOAD DUP4 DUP4 DUP2 MLOAD DUP2 LT PUSH2 0x1552 JUMPI INVALID JUMPDEST PUSH1 0x20 MUL PUSH1 0x20 ADD ADD MLOAD PUSH2 0x251F JUMP JUMPDEST DUP4 DUP3 DUP2 MLOAD DUP2 LT PUSH2 0x156B JUMPI INVALID JUMPDEST PUSH1 0x20 SWAP1 DUP2 MUL SWAP2 SWAP1 SWAP2 ADD ADD MSTORE PUSH1 0x1 ADD PUSH2 0x1520 JUMP JUMPDEST PUSH1 0x0 PUSH2 0x806 DUP4 DUP4 PUSH2 0x251F JUMP JUMPDEST PUSH1 0x20 DUP4 ADD MLOAD PUSH1 0x0 SWAP1 PUSH1 0x1 PUSH1 0x1 PUSH1 0xA0 SHL SUB AND ADDRESS EQ ISZERO PUSH2 0x15B4 JUMPI PUSH2 0x15AD DUP5 DUP5 DUP5 PUSH2 0x2555 JUMP JUMPDEST SWAP1 POP PUSH2 0x806 JUMP JUMPDEST PUSH32 0x0 PUSH1 0x1 PUSH1 0x1 PUSH1 0xA0 SHL SUB AND DUP5 PUSH1 0x20 ADD MLOAD PUSH1 0x1 PUSH1 0x1 PUSH1 0xA0 SHL SUB AND EQ ISZERO PUSH2 0x15FD JUMPI PUSH2 0x15AD DUP5 DUP5 DUP5 PUSH2 0x26D4 JUMP JUMPDEST PUSH32 0x0 PUSH1 0x1 PUSH1 0x1 PUSH1 0xA0 SHL SUB AND DUP5 PUSH1 0x20 ADD MLOAD PUSH1 0x1 PUSH1 0x1 PUSH1 0xA0 SHL SUB AND EQ ISZERO PUSH2 0x1646 JUMPI PUSH2 0x15AD DUP5 DUP5 DUP5 PUSH2 0x2830 JUMP JUMPDEST PUSH2 0x806 PUSH2 0x135 PUSH2 0x24CC JUMP JUMPDEST PUSH1 0x0 PUSH2 0x806 DUP4 DUP4 PUSH2 0x2987 JUMP JUMPDEST PUSH1 0x40 DUP4 ADD MLOAD PUSH1 0x0 SWAP1 PUSH1 0x1 PUSH1 0x1 PUSH1 0xA0 SHL SUB AND ADDRESS EQ ISZERO PUSH2 0x1680 JUMPI PUSH2 0x15AD DUP5 DUP5 DUP5 PUSH2 0x29CF JUMP JUMPDEST PUSH32 0x0 PUSH1 0x1 PUSH1 0x1 PUSH1 0xA0 SHL SUB AND DUP5 PUSH1 0x40 ADD MLOAD PUSH1 0x1 PUSH1 0x1 PUSH1 0xA0 SHL SUB AND EQ ISZERO PUSH2 0x16C9 JUMPI PUSH2 0x15AD DUP5 DUP5 DUP5 PUSH2 0x2B3E JUMP JUMPDEST PUSH32 0x0 PUSH1 0x1 PUSH1 0x1 PUSH1 0xA0 SHL SUB AND DUP5 PUSH1 0x40 ADD MLOAD PUSH1 0x1 PUSH1 0x1 PUSH1 0xA0 SHL SUB AND EQ ISZERO PUSH2 0x1646 JUMPI PUSH2 0x15AD DUP5 DUP5 DUP5 PUSH2 0x2C95 JUMP JUMPDEST PUSH1 0x0 PUSH2 0x806 DUP4 DUP4 PUSH2 0x1EF6 JUMP JUMPDEST PUSH1 0x1 PUSH1 0x1 PUSH1 0xA0 SHL SUB DUP1 DUP5 AND PUSH1 0x0 DUP2 DUP2 MSTORE PUSH1 0x1 PUSH1 0x20 SWAP1 DUP2 MSTORE PUSH1 0x40 DUP1 DUP4 KECCAK256 SWAP5 DUP8 AND DUP1 DUP5 MSTORE SWAP5 SWAP1 SWAP2 MSTORE SWAP1 DUP2 SWAP1 KECCAK256 DUP5 SWAP1 SSTORE MLOAD PUSH32 0x8C5BE1E5EBEC7D5BD14F71427D1E84F3DD0314C0F7B2291E5B200AC8C7C3B925 SWAP1 PUSH2 0x1779 SWAP1 DUP6 SWAP1 PUSH2 0x3F6A JUMP JUMPDEST PUSH1 0x40 MLOAD DUP1 SWAP2 SUB SWAP1 LOG3 POP POP POP JUMP JUMPDEST PUSH1 0x0 PUSH2 0x179D PUSH1 0x0 CALLDATALOAD PUSH1 0x1 PUSH1 0x1 PUSH1 0xE0 SHL SUB NOT AND PUSH2 0xDC5 JUMP JUMPDEST SWAP1 POP PUSH2 0x756 PUSH2 0x17AC DUP3 CALLER PUSH2 0x2DEC JUMP JUMPDEST PUSH2 0x191 PUSH2 0x13CC JUMP JUMPDEST DUP1 ISZERO PUSH2 0x17D4 JUMPI PUSH2 0x17CF PUSH2 0x17C5 PUSH2 0x184F JUMP JUMPDEST TIMESTAMP LT PUSH2 0x193 PUSH2 0x13CC JUMP JUMPDEST PUSH2 0x17E9 JUMP JUMPDEST PUSH2 0x17E9 PUSH2 0x17DF PUSH2 0x1873 JUMP JUMPDEST TIMESTAMP LT PUSH2 0x1A9 PUSH2 0x13CC JUMP JUMPDEST PUSH1 0x7 DUP1 SLOAD PUSH1 0xFF NOT AND DUP3 ISZERO ISZERO OR SWAP1 SSTORE PUSH1 0x40 MLOAD PUSH32 0x9E3A5E37224532DEA67B89FACE185703738A228A6E8A23DEE546960180D3BE64 SWAP1 PUSH2 0x1827 SWAP1 DUP4 SWAP1 PUSH2 0x3F47 JUMP JUMPDEST PUSH1 0x40 MLOAD DUP1 SWAP2 SUB SWAP1 LOG1 POP JUMP JUMPDEST PUSH1 0x0 PUSH2 0x183C PUSH2 0x1873 JUMP JUMPDEST TIMESTAMP GT DUP1 PUSH2 0x792 JUMPI POP POP PUSH1 0x7 SLOAD PUSH1 0xFF AND ISZERO SWAP1 JUMP JUMPDEST PUSH32 0x0 SWAP1 JUMP JUMPDEST PUSH32 0x0 SWAP1 JUMP JUMPDEST PUSH2 0x18AE PUSH1 0x1 PUSH1 0x1 PUSH1 0xA0 SHL SUB DUP5 AND ISZERO ISZERO PUSH2 0x198 PUSH2 0x13CC JUMP JUMPDEST PUSH2 0x18C5 PUSH1 0x1 PUSH1 0x1 PUSH1 0xA0 SHL SUB DUP4 AND ISZERO ISZERO PUSH2 0x199 PUSH2 0x13CC JUMP JUMPDEST PUSH2 0x18D0 DUP4 DUP4 DUP4 PUSH2 0x84D JUMP JUMPDEST PUSH1 0x1 PUSH1 0x1 PUSH1 0xA0 SHL SUB DUP4 AND PUSH1 0x0 SWAP1 DUP2 MSTORE PUSH1 0x20 DUP2 SWAP1 MSTORE PUSH1 0x40 SWAP1 KECCAK256 SLOAD PUSH2 0x18F6 SWAP1 DUP3 PUSH2 0x1A0 PUSH2 0x2ED5 JUMP JUMPDEST PUSH1 0x1 PUSH1 0x1 PUSH1 0xA0 SHL SUB DUP1 DUP6 AND PUSH1 0x0 SWAP1 DUP2 MSTORE PUSH1 0x20 DUP2 SWAP1 MSTORE PUSH1 0x40 DUP1 DUP3 KECCAK256 SWAP4 SWAP1 SWAP4 SSTORE SWAP1 DUP5 AND DUP2 MSTORE KECCAK256 SLOAD PUSH2 0x1925 SWAP1 DUP3 PUSH2 0x1B45 JUMP JUMPDEST PUSH1 0x1 PUSH1 0x1 PUSH1 0xA0 SHL SUB DUP1 DUP5 AND PUSH1 0x0 DUP2 DUP2 MSTORE PUSH1 0x20 DUP2 SWAP1 MSTORE PUSH1 0x40 SWAP1 DUP2 SWAP1 KECCAK256 SWAP4 SWAP1 SWAP4 SSTORE SWAP2 MLOAD SWAP1 DUP6 AND SWAP1 PUSH32 0xDDF252AD1BE2C89B69C2B068FC378DAA952BA7F163C4A11628F55A4DF523B3EF SWAP1 PUSH2 0x1779 SWAP1 DUP6 SWAP1 PUSH2 0x3F6A JUMP JUMPDEST PUSH1 0x0 PUSH32 0x0 PUSH32 0x0 PUSH32 0x0 PUSH2 0x19E4 PUSH2 0x2EEB JUMP JUMPDEST ADDRESS PUSH1 0x40 MLOAD PUSH1 0x20 ADD PUSH2 0x19F9 SWAP6 SWAP5 SWAP4 SWAP3 SWAP2 SWAP1 PUSH2 0x4083 JUMP JUMPDEST PUSH1 0x40 MLOAD PUSH1 0x20 DUP2 DUP4 SUB SUB DUP2 MSTORE SWAP1 PUSH1 0x40 MSTORE DUP1 MLOAD SWAP1 PUSH1 0x20 ADD KECCAK256 SWAP1 POP SWAP1 JUMP JUMPDEST PUSH1 0x0 DUP1 PUSH2 0x1A1F PUSH2 0x852 JUMP JUMPDEST SWAP1 POP PUSH1 0x0 PUSH2 0x1A2B PUSH2 0xE61 JUMP JUMPDEST PUSH1 0x1 PUSH1 0x1 PUSH1 0xA0 SHL SUB AND PUSH4 0xF94D4668 DUP4 PUSH1 0x40 MLOAD DUP3 PUSH4 0xFFFFFFFF AND PUSH1 0xE0 SHL DUP2 MSTORE PUSH1 0x4 ADD PUSH2 0x1A56 SWAP2 SWAP1 PUSH2 0x3F6A JUMP JUMPDEST PUSH1 0x0 PUSH1 0x40 MLOAD DUP1 DUP4 SUB DUP2 DUP7 DUP1 EXTCODESIZE ISZERO DUP1 ISZERO PUSH2 0x1A6E JUMPI PUSH1 0x0 DUP1 REVERT JUMPDEST POP GAS STATICCALL ISZERO DUP1 ISZERO PUSH2 0x1A82 JUMPI RETURNDATASIZE PUSH1 0x0 DUP1 RETURNDATACOPY RETURNDATASIZE PUSH1 0x0 REVERT JUMPDEST POP POP POP POP PUSH1 0x40 MLOAD RETURNDATASIZE PUSH1 0x0 DUP3 RETURNDATACOPY PUSH1 0x1F RETURNDATASIZE SWAP1 DUP2 ADD PUSH1 0x1F NOT AND DUP3 ADD PUSH1 0x40 MSTORE PUSH2 0x1AAA SWAP2 SWAP1 DUP2 ADD SWAP1 PUSH2 0x39E8 JUMP JUMPDEST POP SWAP2 POP POP PUSH1 0x0 PUSH2 0x1B10 DUP3 PUSH32 0x0 DUP2 MLOAD DUP2 LT PUSH2 0x1ADF JUMPI INVALID JUMPDEST PUSH1 0x20 MUL PUSH1 0x20 ADD ADD MLOAD PUSH2 0x1332 PUSH32 0x0 PUSH2 0x21EB JUMP JUMPDEST SWAP1 POP DUP6 DUP2 LT ISZERO DUP1 ISZERO PUSH2 0x1B22 JUMPI POP DUP5 DUP2 GT ISZERO JUMPDEST SWAP7 SWAP6 POP POP POP POP POP POP JUMP JUMPDEST PUSH2 0x1B34 PUSH2 0x1786 JUMP JUMPDEST PUSH2 0x1B3C PUSH2 0x13DA JUMP JUMPDEST PUSH2 0x756 DUP2 PUSH2 0x2EEF JUMP JUMPDEST PUSH1 0x0 DUP3 DUP3 ADD PUSH2 0x806 DUP5 DUP3 LT ISZERO DUP4 PUSH2 0x13CC JUMP JUMPDEST PUSH1 0x0 PUSH2 0x1B61 PUSH2 0x852 JUMP JUMPDEST SWAP1 POP PUSH1 0x0 PUSH2 0x1B6D PUSH2 0xE61 JUMP JUMPDEST PUSH1 0x1 PUSH1 0x1 PUSH1 0xA0 SHL SUB AND PUSH4 0xB05F8E48 DUP4 DUP7 PUSH1 0x40 MLOAD DUP4 PUSH4 0xFFFFFFFF AND PUSH1 0xE0 SHL DUP2 MSTORE PUSH1 0x4 ADD PUSH2 0x1B9A SWAP3 SWAP2 SWAP1 PUSH2 0x40C8 JUMP JUMPDEST PUSH1 0x80 PUSH1 0x40 MLOAD DUP1 DUP4 SUB DUP2 DUP7 DUP1 EXTCODESIZE ISZERO DUP1 ISZERO PUSH2 0x1BB2 JUMPI PUSH1 0x0 DUP1 REVERT JUMPDEST POP GAS STATICCALL ISZERO DUP1 ISZERO PUSH2 0x1BC6 JUMPI RETURNDATASIZE PUSH1 0x0 DUP1 RETURNDATACOPY RETURNDATASIZE PUSH1 0x0 REVERT JUMPDEST POP POP POP POP PUSH1 0x40 MLOAD RETURNDATASIZE PUSH1 0x1F NOT PUSH1 0x1F DUP3 ADD AND DUP3 ADD DUP1 PUSH1 0x40 MSTORE POP DUP2 ADD SWAP1 PUSH2 0x1BEA SWAP2 SWAP1 PUSH2 0x3DD1 JUMP JUMPDEST PUSH1 0x40 MLOAD PUSH4 0x639CDB5 PUSH1 0xE2 SHL DUP2 MSTORE SWAP1 SWAP5 POP PUSH1 0x1 PUSH1 0x1 PUSH1 0xA0 SHL SUB DUP6 AND SWAP4 POP PUSH4 0x18E736D4 SWAP3 POP PUSH2 0xD69 SWAP2 POP DUP6 SWAP1 DUP8 SWAP1 PUSH1 0x4 ADD PUSH2 0x40AF JUMP JUMPDEST SHR PUSH8 0xFFFFFFFFFFFFFFFF AND SWAP1 JUMP JUMPDEST PUSH1 0x3 SWAP1 JUMP JUMPDEST PUSH2 0x913 DUP2 DUP4 EQ PUSH1 0x67 PUSH2 0x13CC JUMP JUMPDEST PUSH1 0x0 PUSH1 0x60 DUP1 PUSH1 0x0 PUSH2 0x1C4E DUP6 PUSH2 0x2F5A JUMP JUMPDEST SWAP1 POP PUSH1 0x0 DUP2 DUP1 ISZERO PUSH2 0x1C5B JUMPI INVALID JUMPDEST EQ PUSH2 0x1C70 JUMPI PUSH2 0x1C6B PUSH2 0x14E PUSH2 0x24CC JUMP JUMPDEST PUSH2 0x1CD3 JUMP JUMPDEST PUSH2 0x1C78 PUSH2 0x2F70 JUMP JUMPDEST PUSH2 0x1C82 DUP10 DUP7 PUSH2 0x2F84 JUMP JUMPDEST SWAP1 SWAP5 POP SWAP3 POP PUSH2 0x1C8F PUSH2 0x1C2C JUMP JUMPDEST PUSH8 0xFFFFFFFFFFFFFFFF DUP2 GT DUP1 ISZERO PUSH2 0x1CA5 JUMPI PUSH1 0x0 DUP1 REVERT JUMPDEST POP PUSH1 0x40 MLOAD SWAP1 DUP1 DUP3 MSTORE DUP1 PUSH1 0x20 MUL PUSH1 0x20 ADD DUP3 ADD PUSH1 0x40 MSTORE DUP1 ISZERO PUSH2 0x1CCF JUMPI DUP2 PUSH1 0x20 ADD PUSH1 0x20 DUP3 MUL DUP1 CALLDATASIZE DUP4 CALLDATACOPY ADD SWAP1 POP JUMPDEST POP SWAP2 POP JUMPDEST POP SWAP9 POP SWAP9 POP SWAP9 SWAP6 POP POP POP POP POP POP JUMP JUMPDEST PUSH1 0x0 JUMPDEST PUSH2 0x1CED PUSH2 0x1C2C JUMP JUMPDEST DUP2 LT ISZERO PUSH2 0x84D JUMPI PUSH2 0x1D24 DUP4 DUP3 DUP2 MLOAD DUP2 LT PUSH2 0x1D03 JUMPI INVALID JUMPDEST PUSH1 0x20 MUL PUSH1 0x20 ADD ADD MLOAD DUP4 DUP4 DUP2 MLOAD DUP2 LT PUSH2 0x1D17 JUMPI INVALID JUMPDEST PUSH1 0x20 MUL PUSH1 0x20 ADD ADD MLOAD PUSH2 0x2987 JUMP JUMPDEST DUP4 DUP3 DUP2 MLOAD DUP2 LT PUSH2 0x1D30 JUMPI INVALID JUMPDEST PUSH1 0x20 SWAP1 DUP2 MUL SWAP2 SWAP1 SWAP2 ADD ADD MSTORE PUSH1 0x1 ADD PUSH2 0x1CE5 JUMP JUMPDEST CALLER ADDRESS EQ PUSH2 0x1E01 JUMPI PUSH1 0x0 ADDRESS PUSH1 0x1 PUSH1 0x1 PUSH1 0xA0 SHL SUB AND PUSH1 0x0 CALLDATASIZE PUSH1 0x40 MLOAD PUSH2 0x1D67 SWAP3 SWAP2 SWAP1 PUSH2 0x3ED0 JUMP JUMPDEST PUSH1 0x0 PUSH1 0x40 MLOAD DUP1 DUP4 SUB DUP2 PUSH1 0x0 DUP7 GAS CALL SWAP2 POP POP RETURNDATASIZE DUP1 PUSH1 0x0 DUP2 EQ PUSH2 0x1DA4 JUMPI PUSH1 0x40 MLOAD SWAP2 POP PUSH1 0x1F NOT PUSH1 0x3F RETURNDATASIZE ADD AND DUP3 ADD PUSH1 0x40 MSTORE RETURNDATASIZE DUP3 MSTORE RETURNDATASIZE PUSH1 0x0 PUSH1 0x20 DUP5 ADD RETURNDATACOPY PUSH2 0x1DA9 JUMP JUMPDEST PUSH1 0x60 SWAP2 POP JUMPDEST POP POP SWAP1 POP DUP1 PUSH1 0x0 DUP2 EQ PUSH2 0x1DB8 JUMPI INVALID JUMPDEST PUSH1 0x4 PUSH1 0x0 DUP1 RETURNDATACOPY PUSH1 0x0 MLOAD PUSH1 0x1 PUSH1 0x1 PUSH1 0xE0 SHL SUB NOT AND PUSH4 0x43ADBAFB PUSH1 0xE0 SHL DUP2 EQ PUSH2 0x1DE3 JUMPI RETURNDATASIZE PUSH1 0x0 DUP1 RETURNDATACOPY RETURNDATASIZE PUSH1 0x0 REVERT JUMPDEST POP PUSH1 0x20 PUSH1 0x4 PUSH1 0x0 RETURNDATACOPY PUSH1 0x40 PUSH1 0x20 MSTORE PUSH1 0x24 RETURNDATASIZE SUB PUSH1 0x24 PUSH1 0x40 RETURNDATACOPY PUSH1 0x1C RETURNDATASIZE ADD PUSH1 0x0 RETURN JUMPDEST PUSH1 0x0 PUSH2 0x1E0B PUSH2 0x13EF JUMP JUMPDEST SWAP1 POP PUSH2 0x1E17 DUP8 DUP3 PUSH2 0x151D JUMP JUMPDEST PUSH1 0x0 DUP1 PUSH2 0x1E2E DUP13 DUP13 DUP13 DUP13 DUP13 DUP13 DUP10 DUP14 DUP14 PUSH4 0xFFFFFFFF AND JUMP JUMPDEST POP SWAP2 POP SWAP2 POP PUSH2 0x1E41 DUP2 DUP5 DUP7 PUSH4 0xFFFFFFFF AND JUMP JUMPDEST DUP1 MLOAD PUSH1 0x1F NOT DUP3 ADD DUP4 SWAP1 MSTORE PUSH4 0x43ADBAFB PUSH1 0x3F NOT DUP4 ADD MSTORE PUSH1 0x20 MUL PUSH1 0x23 NOT DUP3 ADD PUSH1 0x44 DUP3 ADD DUP2 REVERT JUMPDEST PUSH1 0x8 SLOAD SWAP1 JUMP JUMPDEST SHR PUSH12 0xFFFFFFFFFFFFFFFFFFFFFFFF AND SWAP1 JUMP JUMPDEST PUSH1 0x0 DUP2 PUSH1 0x20 ADD MLOAD DUP4 LT ISZERO PUSH2 0x1EB6 JUMPI DUP2 MLOAD PUSH1 0x20 DUP4 ADD MLOAD PUSH1 0x0 SWAP2 PUSH2 0x1EA2 SWAP2 DUP7 SWAP1 SUB SWAP1 PUSH2 0x251F JUMP JUMPDEST SWAP1 POP PUSH2 0x1EAE DUP5 DUP3 PUSH2 0x1397 JUMP JUMPDEST SWAP2 POP POP PUSH2 0x71B JUMP JUMPDEST DUP2 PUSH1 0x40 ADD MLOAD DUP4 GT PUSH2 0x1EC8 JUMPI POP DUP2 PUSH2 0x71B JUMP JUMPDEST DUP2 MLOAD PUSH1 0x40 DUP4 ADD MLOAD PUSH1 0x0 SWAP2 PUSH2 0x1EA2 SWAP2 DUP7 SUB SWAP1 PUSH2 0x251F JUMP JUMPDEST PUSH1 0x0 PUSH2 0x806 DUP4 DUP4 PUSH2 0x1B45 JUMP JUMPDEST PUSH1 0x1 PUSH1 0x1 PUSH1 0x70 SHL SUB SUB SWAP1 JUMP JUMPDEST PUSH1 0x0 PUSH2 0x1F05 DUP3 ISZERO ISZERO PUSH1 0x4 PUSH2 0x13CC JUMP JUMPDEST DUP3 PUSH2 0x1F12 JUMPI POP PUSH1 0x0 PUSH2 0x71B JUMP JUMPDEST PUSH8 0xDE0B6B3A7640000 DUP4 DUP2 MUL SWAP1 PUSH2 0x1F35 SWAP1 DUP6 DUP4 DUP2 PUSH2 0x1F2C JUMPI INVALID JUMPDEST DIV EQ PUSH1 0x5 PUSH2 0x13CC JUMP JUMPDEST DUP3 PUSH1 0x1 DUP3 SUB DUP2 PUSH2 0x1F41 JUMPI INVALID JUMPDEST DIV PUSH1 0x1 ADD SWAP2 POP POP PUSH2 0x71B JUMP JUMPDEST PUSH2 0x913 DUP3 DUP3 PUSH2 0x300B JUMP JUMPDEST PUSH1 0x0 PUSH1 0x60 DUP1 PUSH2 0x1F67 PUSH2 0x14E PUSH2 0x24CC JUMP JUMPDEST SWAP9 POP SWAP9 POP SWAP9 SWAP6 POP POP POP POP POP POP JUMP JUMPDEST PUSH1 0x0 JUMPDEST PUSH2 0x1F80 PUSH2 0x1C2C JUMP JUMPDEST DUP2 LT ISZERO PUSH2 0x84D JUMPI PUSH2 0x1FB7 DUP4 DUP3 DUP2 MLOAD DUP2 LT PUSH2 0x1F96 JUMPI INVALID JUMPDEST PUSH1 0x20 MUL PUSH1 0x20 ADD ADD MLOAD DUP4 DUP4 DUP2 MLOAD DUP2 LT PUSH2 0x1FAA JUMPI INVALID JUMPDEST PUSH1 0x20 MUL PUSH1 0x20 ADD ADD MLOAD PUSH2 0x1EF6 JUMP JUMPDEST DUP4 DUP3 DUP2 MLOAD DUP2 LT PUSH2 0x1FC3 JUMPI INVALID JUMPDEST PUSH1 0x20 SWAP1 DUP2 MUL SWAP2 SWAP1 SWAP2 ADD ADD MSTORE PUSH1 0x1 ADD PUSH2 0x1F78 JUMP JUMPDEST PUSH2 0x1FE5 DUP2 DUP4 GT ISZERO PUSH2 0x14C PUSH2 0x13CC JUMP JUMPDEST PUSH2 0x2000 PUSH12 0xFFFFFFFFFFFFFFFFFFFFFFFF DUP3 GT ISZERO PUSH2 0x14D PUSH2 0x13CC JUMP JUMPDEST PUSH2 0x201F PUSH2 0x200E DUP3 PUSH1 0x60 PUSH2 0x13AD JUMP JUMPDEST PUSH2 0x2019 DUP5 PUSH1 0x0 PUSH2 0x13AD JUMP JUMPDEST OR PUSH2 0x30C7 JUMP JUMPDEST DUP3 PUSH1 0x1 PUSH1 0x1 PUSH1 0xA0 SHL SUB AND PUSH32 0xD0E27A0D0C2CB09280FA5E4487315455B32AFCDCF012DC35B6EF2A0E3C4D1280 DUP4 DUP4 PUSH1 0x40 MLOAD PUSH2 0x205A SWAP3 SWAP2 SWAP1 PUSH2 0x4129 JUMP JUMPDEST PUSH1 0x40 MLOAD DUP1 SWAP2 SUB SWAP1 LOG2 POP POP POP JUMP JUMPDEST PUSH1 0x0 PUSH2 0x2071 PUSH2 0xE61 JUMP JUMPDEST PUSH1 0x1 PUSH1 0x1 PUSH1 0xA0 SHL SUB AND PUSH4 0xAAABADC5 PUSH1 0x40 MLOAD DUP2 PUSH4 0xFFFFFFFF AND PUSH1 0xE0 SHL DUP2 MSTORE PUSH1 0x4 ADD PUSH1 0x20 PUSH1 0x40 MLOAD DUP1 DUP4 SUB DUP2 DUP7 DUP1 EXTCODESIZE ISZERO DUP1 ISZERO PUSH2 0x20A9 JUMPI PUSH1 0x0 DUP1 REVERT JUMPDEST POP GAS STATICCALL ISZERO DUP1 ISZERO PUSH2 0x20BD JUMPI RETURNDATASIZE PUSH1 0x0 DUP1 RETURNDATACOPY RETURNDATASIZE PUSH1 0x0 REVERT JUMPDEST POP POP POP POP PUSH1 0x40 MLOAD RETURNDATASIZE PUSH1 0x1F NOT PUSH1 0x1F DUP3 ADD AND DUP3 ADD DUP1 PUSH1 0x40 MSTORE POP DUP2 ADD SWAP1 PUSH2 0x792 SWAP2 SWAP1 PUSH2 0x3BB7 JUMP JUMPDEST PUSH1 0x0 PUSH2 0x20EB PUSH2 0x1977 JUMP JUMPDEST DUP3 PUSH1 0x40 MLOAD PUSH1 0x20 ADD PUSH2 0xDFA SWAP3 SWAP2 SWAP1 PUSH2 0x3EE0 JUMP JUMPDEST PUSH1 0x0 PUSH1 0x60 PUSH2 0x2109 PUSH2 0x13DA JUMP JUMPDEST PUSH2 0x2120 PUSH1 0x1 PUSH1 0x1 PUSH1 0xA0 SHL SUB DUP8 AND ADDRESS EQ PUSH2 0x156 PUSH2 0x13CC JUMP JUMPDEST PUSH2 0x2137 PUSH1 0x1 PUSH1 0x1 PUSH1 0xA0 SHL SUB DUP7 AND ADDRESS EQ PUSH2 0x156 PUSH2 0x13CC JUMP JUMPDEST PUSH1 0x40 DUP1 MLOAD PUSH1 0x3 DUP1 DUP3 MSTORE PUSH1 0x80 DUP3 ADD SWAP1 SWAP3 MSTORE PUSH1 0x1 PUSH1 0x1 PUSH1 0x70 SHL SUB SWAP2 PUSH1 0x0 SWAP2 SWAP1 PUSH1 0x20 DUP3 ADD PUSH1 0x60 DUP1 CALLDATASIZE DUP4 CALLDATACOPY ADD SWAP1 POP POP SWAP1 POP PUSH1 0x1 PUSH1 0x1 PUSH1 0x70 SHL SUB DUP2 PUSH32 0x0 DUP2 MLOAD DUP2 LT PUSH2 0x2198 JUMPI INVALID JUMPDEST PUSH1 0x20 SWAP1 DUP2 MUL SWAP2 SWAP1 SWAP2 ADD ADD MSTORE SWAP1 SWAP9 SWAP1 SWAP8 POP SWAP6 POP POP POP POP POP POP JUMP JUMPDEST PUSH1 0x0 SWAP1 JUMP JUMPDEST PUSH2 0x913 DUP3 DUP3 PUSH2 0x30DC JUMP JUMPDEST PUSH1 0x1 PUSH1 0x1 PUSH1 0xA0 SHL SUB SWAP2 DUP3 AND PUSH1 0x0 SWAP1 DUP2 MSTORE PUSH1 0x1 PUSH1 0x20 SWAP1 DUP2 MSTORE PUSH1 0x40 DUP1 DUP4 KECCAK256 SWAP4 SWAP1 SWAP5 AND DUP3 MSTORE SWAP2 SWAP1 SWAP2 MSTORE KECCAK256 SLOAD SWAP1 JUMP JUMPDEST PUSH1 0x0 PUSH32 0x0 PUSH1 0x1 PUSH1 0x1 PUSH1 0xA0 SHL SUB AND DUP3 PUSH1 0x1 PUSH1 0x1 PUSH1 0xA0 SHL SUB AND EQ ISZERO PUSH2 0x224E JUMPI POP PUSH32 0x0 PUSH2 0xB55 JUMP JUMPDEST PUSH32 0x0 PUSH1 0x1 PUSH1 0x1 PUSH1 0xA0 SHL SUB AND DUP3 PUSH1 0x1 PUSH1 0x1 PUSH1 0xA0 SHL SUB AND EQ ISZERO PUSH2 0x229A JUMPI PUSH2 0x2293 PUSH2 0x1479 PUSH2 0x22D9 JUMP JUMPDEST SWAP1 POP PUSH2 0xB55 JUMP JUMPDEST PUSH1 0x1 PUSH1 0x1 PUSH1 0xA0 SHL SUB DUP3 AND ADDRESS EQ ISZERO PUSH2 0x22BA JUMPI POP PUSH8 0xDE0B6B3A7640000 PUSH2 0xB55 JUMP JUMPDEST PUSH2 0xB55 PUSH2 0x135 PUSH2 0x24CC JUMP JUMPDEST PUSH1 0x0 PUSH2 0x71B DUP3 PUSH2 0x22D3 PUSH2 0x759 JUMP JUMPDEST SWAP1 PUSH2 0x1397 JUMP JUMPDEST PUSH1 0x0 DUP1 PUSH32 0x0 PUSH1 0x1 PUSH1 0x1 PUSH1 0xA0 SHL SUB AND PUSH4 0x313CE567 PUSH1 0x40 MLOAD DUP2 PUSH4 0xFFFFFFFF AND PUSH1 0xE0 SHL DUP2 MSTORE PUSH1 0x4 ADD PUSH1 0x20 PUSH1 0x40 MLOAD DUP1 DUP4 SUB DUP2 DUP7 DUP1 EXTCODESIZE ISZERO DUP1 ISZERO PUSH2 0x2335 JUMPI PUSH1 0x0 DUP1 REVERT JUMPDEST POP GAS STATICCALL ISZERO DUP1 ISZERO PUSH2 0x2349 JUMPI RETURNDATASIZE PUSH1 0x0 DUP1 RETURNDATACOPY RETURNDATASIZE PUSH1 0x0 REVERT JUMPDEST POP POP POP POP PUSH1 0x40 MLOAD RETURNDATASIZE PUSH1 0x1F NOT PUSH1 0x1F DUP3 ADD AND DUP3 ADD DUP1 PUSH1 0x40 MSTORE POP DUP2 ADD SWAP1 PUSH2 0x236D SWAP2 SWAP1 PUSH2 0x3E11 JUMP JUMPDEST SWAP1 POP PUSH1 0x0 PUSH32 0x0 PUSH1 0x1 PUSH1 0x1 PUSH1 0xA0 SHL SUB AND PUSH4 0x182DF0F5 PUSH1 0x40 MLOAD DUP2 PUSH4 0xFFFFFFFF AND PUSH1 0xE0 SHL DUP2 MSTORE PUSH1 0x4 ADD PUSH1 0x20 PUSH1 0x40 MLOAD DUP1 DUP4 SUB DUP2 DUP7 DUP1 EXTCODESIZE ISZERO DUP1 ISZERO PUSH2 0x23CA JUMPI PUSH1 0x0 DUP1 REVERT JUMPDEST POP GAS STATICCALL ISZERO DUP1 ISZERO PUSH2 0x23DE JUMPI RETURNDATASIZE PUSH1 0x0 DUP1 RETURNDATACOPY RETURNDATASIZE PUSH1 0x0 REVERT JUMPDEST POP POP POP POP PUSH1 0x40 MLOAD RETURNDATASIZE PUSH1 0x1F NOT PUSH1 0x1F DUP3 ADD AND DUP3 ADD DUP1 PUSH1 0x40 MSTORE POP DUP2 ADD SWAP1 PUSH2 0x2402 SWAP2 SWAP1 PUSH2 0x3D98 JUMP JUMPDEST SWAP1 POP PUSH1 0x12 DUP3 PUSH1 0xFF AND GT ISZERO PUSH2 0x242C JUMPI PUSH1 0x12 DUP3 SUB PUSH1 0xFF AND PUSH1 0xA EXP DUP2 DUP2 PUSH2 0x2422 JUMPI INVALID JUMPDEST DIV SWAP3 POP POP POP PUSH2 0x707 JUMP JUMPDEST PUSH1 0x12 DUP3 PUSH1 0xFF AND LT ISZERO PUSH2 0x244D JUMPI DUP2 PUSH1 0x12 SUB PUSH1 0xFF AND PUSH1 0xA EXP DUP2 MUL SWAP3 POP POP POP PUSH2 0x707 JUMP JUMPDEST SWAP2 POP POP SWAP1 JUMP JUMPDEST PUSH1 0x2 DUP2 MLOAD LT ISZERO PUSH2 0x2462 JUMPI PUSH2 0x756 JUMP JUMPDEST PUSH1 0x0 DUP2 PUSH1 0x0 DUP2 MLOAD DUP2 LT PUSH2 0x2471 JUMPI INVALID JUMPDEST PUSH1 0x20 MUL PUSH1 0x20 ADD ADD MLOAD SWAP1 POP PUSH1 0x0 PUSH1 0x1 SWAP1 POP JUMPDEST DUP3 MLOAD DUP2 LT ISZERO PUSH2 0x84D JUMPI PUSH1 0x0 DUP4 DUP3 DUP2 MLOAD DUP2 LT PUSH2 0x2499 JUMPI INVALID JUMPDEST PUSH1 0x20 MUL PUSH1 0x20 ADD ADD MLOAD SWAP1 POP PUSH2 0x24C2 DUP2 PUSH1 0x1 PUSH1 0x1 PUSH1 0xA0 SHL SUB AND DUP5 PUSH1 0x1 PUSH1 0x1 PUSH1 0xA0 SHL SUB AND LT PUSH1 0x65 PUSH2 0x13CC JUMP JUMPDEST SWAP2 POP PUSH1 0x1 ADD PUSH2 0x2482 JUMP JUMPDEST PUSH3 0x461BCD PUSH1 0xE5 SHL PUSH1 0x0 SWAP1 DUP2 MSTORE PUSH1 0x20 PUSH1 0x4 MSTORE PUSH1 0x7 PUSH1 0x24 MSTORE PUSH7 0x42414C23000030 PUSH1 0xA DUP1 DUP5 DIV DUP2 DUP2 MOD PUSH1 0x30 SWAP1 DUP2 ADD PUSH1 0x8 SHL SWAP6 DUP4 SWAP1 MOD SWAP6 SWAP1 SWAP6 ADD SWAP1 DUP3 SWAP1 DIV SWAP2 DUP3 MOD SWAP1 SWAP5 ADD PUSH1 0x10 SHL SWAP4 SWAP1 SWAP4 ADD ADD PUSH1 0xC8 SHL PUSH1 0x44 MSTORE PUSH1 0x64 SWAP1 REVERT JUMPDEST PUSH1 0x0 DUP3 DUP3 MUL PUSH2 0x2543 DUP5 ISZERO DUP1 PUSH2 0x253C JUMPI POP DUP4 DUP6 DUP4 DUP2 PUSH2 0x2539 JUMPI INVALID JUMPDEST DIV EQ JUMPDEST PUSH1 0x3 PUSH2 0x13CC JUMP JUMPDEST PUSH8 0xDE0B6B3A7640000 SWAP1 DIV SWAP4 SWAP3 POP POP POP JUMP JUMPDEST PUSH1 0x0 PUSH2 0x25DB PUSH32 0x0 PUSH1 0x1 PUSH1 0x1 PUSH1 0xA0 SHL SUB AND DUP6 PUSH1 0x40 ADD MLOAD PUSH1 0x1 PUSH1 0x1 PUSH1 0xA0 SHL SUB AND EQ DUP1 PUSH2 0x25D3 JUMPI POP PUSH32 0x0 PUSH1 0x1 PUSH1 0x1 PUSH1 0xA0 SHL SUB AND DUP6 PUSH1 0x40 ADD MLOAD PUSH1 0x1 PUSH1 0x1 PUSH1 0xA0 SHL SUB AND EQ JUMPDEST PUSH2 0x135 PUSH2 0x13CC JUMP JUMPDEST PUSH2 0x26CC DUP5 PUSH1 0x60 ADD MLOAD DUP5 PUSH32 0x0 DUP2 MLOAD DUP2 LT PUSH2 0x260F JUMPI INVALID JUMPDEST PUSH1 0x20 MUL PUSH1 0x20 ADD ADD MLOAD DUP6 PUSH32 0x0 DUP2 MLOAD DUP2 LT PUSH2 0x2643 JUMPI INVALID JUMPDEST PUSH1 0x20 MUL PUSH1 0x20 ADD ADD MLOAD PUSH2 0x267A DUP8 PUSH32 0x0 DUP2 MLOAD DUP2 LT PUSH2 0xB1C JUMPI INVALID JUMPDEST DUP7 PUSH32 0x0 PUSH1 0x1 PUSH1 0x1 PUSH1 0xA0 SHL SUB AND DUP11 PUSH1 0x40 ADD MLOAD PUSH1 0x1 PUSH1 0x1 PUSH1 0xA0 SHL SUB AND EQ PUSH2 0x26C0 JUMPI PUSH2 0x316A PUSH2 0x26C4 JUMP JUMPDEST PUSH2 0x31CA JUMPDEST PUSH4 0xFFFFFFFF AND JUMP JUMPDEST SWAP5 SWAP4 POP POP POP POP JUMP JUMPDEST PUSH1 0x0 PUSH2 0x2730 PUSH32 0x0 PUSH1 0x1 PUSH1 0x1 PUSH1 0xA0 SHL SUB AND DUP6 PUSH1 0x40 ADD MLOAD PUSH1 0x1 PUSH1 0x1 PUSH1 0xA0 SHL SUB AND EQ DUP1 PUSH2 0x25D3 JUMPI POP PUSH1 0x40 DUP6 ADD MLOAD PUSH1 0x1 PUSH1 0x1 PUSH1 0xA0 SHL SUB AND ADDRESS EQ PUSH2 0x135 PUSH2 0x13CC JUMP JUMPDEST PUSH1 0x40 DUP5 ADD MLOAD PUSH1 0x1 PUSH1 0x1 PUSH1 0xA0 SHL SUB AND ADDRESS EQ PUSH2 0x278B JUMPI PUSH2 0x2786 DUP5 PUSH1 0x60 ADD MLOAD DUP5 PUSH32 0x0 DUP2 MLOAD DUP2 LT PUSH2 0x2778 JUMPI INVALID JUMPDEST PUSH1 0x20 MUL PUSH1 0x20 ADD ADD MLOAD DUP5 PUSH2 0x3233 JUMP JUMPDEST PUSH2 0x26CC JUMP JUMPDEST PUSH2 0x26CC DUP5 PUSH1 0x60 ADD MLOAD DUP5 PUSH32 0x0 DUP2 MLOAD DUP2 LT PUSH2 0x27BF JUMPI INVALID JUMPDEST PUSH1 0x20 MUL PUSH1 0x20 ADD ADD MLOAD DUP6 PUSH32 0x0 DUP2 MLOAD DUP2 LT PUSH2 0x27F3 JUMPI INVALID JUMPDEST PUSH1 0x20 MUL PUSH1 0x20 ADD ADD MLOAD PUSH2 0x282A DUP8 PUSH32 0x0 DUP2 MLOAD DUP2 LT PUSH2 0xB1C JUMPI INVALID JUMPDEST DUP7 PUSH2 0x3263 JUMP JUMPDEST PUSH1 0x0 PUSH2 0x288C PUSH32 0x0 PUSH1 0x1 PUSH1 0x1 PUSH1 0xA0 SHL SUB AND DUP6 PUSH1 0x40 ADD MLOAD PUSH1 0x1 PUSH1 0x1 PUSH1 0xA0 SHL SUB AND EQ DUP1 PUSH2 0x25D3 JUMPI POP PUSH1 0x40 DUP6 ADD MLOAD PUSH1 0x1 PUSH1 0x1 PUSH1 0xA0 SHL SUB AND ADDRESS EQ PUSH2 0x135 PUSH2 0x13CC JUMP JUMPDEST PUSH1 0x40 DUP5 ADD MLOAD PUSH1 0x1 PUSH1 0x1 PUSH1 0xA0 SHL SUB AND ADDRESS EQ PUSH2 0x28E2 JUMPI PUSH2 0x2786 DUP5 PUSH1 0x60 ADD MLOAD DUP5 PUSH32 0x0 DUP2 MLOAD DUP2 LT PUSH2 0x28D4 JUMPI INVALID JUMPDEST PUSH1 0x20 MUL PUSH1 0x20 ADD ADD MLOAD DUP5 PUSH2 0x32C9 JUMP JUMPDEST PUSH2 0x26CC DUP5 PUSH1 0x60 ADD MLOAD DUP5 PUSH32 0x0 DUP2 MLOAD DUP2 LT PUSH2 0x2916 JUMPI INVALID JUMPDEST PUSH1 0x20 MUL PUSH1 0x20 ADD ADD MLOAD DUP6 PUSH32 0x0 DUP2 MLOAD DUP2 LT PUSH2 0x294A JUMPI INVALID JUMPDEST PUSH1 0x20 MUL PUSH1 0x20 ADD ADD MLOAD PUSH2 0x2981 DUP8 PUSH32 0x0 DUP2 MLOAD DUP2 LT PUSH2 0xB1C JUMPI INVALID JUMPDEST DUP7 PUSH2 0x3309 JUMP JUMPDEST PUSH1 0x0 PUSH2 0x2996 DUP3 ISZERO ISZERO PUSH1 0x4 PUSH2 0x13CC JUMP JUMPDEST DUP3 PUSH2 0x29A3 JUMPI POP PUSH1 0x0 PUSH2 0x71B JUMP JUMPDEST PUSH8 0xDE0B6B3A7640000 DUP4 DUP2 MUL SWAP1 PUSH2 0x29BD SWAP1 DUP6 DUP4 DUP2 PUSH2 0x1F2C JUMPI INVALID JUMPDEST DUP3 DUP2 DUP2 PUSH2 0x29C6 JUMPI INVALID JUMPDEST DIV SWAP2 POP POP PUSH2 0x71B JUMP JUMPDEST PUSH1 0x0 PUSH2 0x2A54 PUSH32 0x0 PUSH1 0x1 PUSH1 0x1 PUSH1 0xA0 SHL SUB AND DUP6 PUSH1 0x20 ADD MLOAD PUSH1 0x1 PUSH1 0x1 PUSH1 0xA0 SHL SUB AND EQ DUP1 PUSH2 0x25D3 JUMPI POP PUSH32 0x0 PUSH1 0x1 PUSH1 0x1 PUSH1 0xA0 SHL SUB AND DUP6 PUSH1 0x20 ADD MLOAD PUSH1 0x1 PUSH1 0x1 PUSH1 0xA0 SHL SUB AND EQ PUSH2 0x135 PUSH2 0x13CC JUMP JUMPDEST PUSH2 0x26CC DUP5 PUSH1 0x60 ADD MLOAD DUP5 PUSH32 0x0 DUP2 MLOAD DUP2 LT PUSH2 0x2A88 JUMPI INVALID JUMPDEST PUSH1 0x20 MUL PUSH1 0x20 ADD ADD MLOAD DUP6 PUSH32 0x0 DUP2 MLOAD DUP2 LT PUSH2 0x2ABC JUMPI INVALID JUMPDEST PUSH1 0x20 MUL PUSH1 0x20 ADD ADD MLOAD PUSH2 0x2AF3 DUP8 PUSH32 0x0 DUP2 MLOAD DUP2 LT PUSH2 0xB1C JUMPI INVALID JUMPDEST DUP7 PUSH32 0x0 PUSH1 0x1 PUSH1 0x1 PUSH1 0xA0 SHL SUB AND DUP11 PUSH1 0x20 ADD MLOAD PUSH1 0x1 PUSH1 0x1 PUSH1 0xA0 SHL SUB AND EQ PUSH2 0x2B39 JUMPI PUSH2 0x3370 PUSH2 0x26C4 JUMP JUMPDEST PUSH2 0x33C7 JUMP JUMPDEST PUSH1 0x0 PUSH2 0x2B9A PUSH32 0x0 PUSH1 0x1 PUSH1 0x1 PUSH1 0xA0 SHL SUB AND DUP6 PUSH1 0x20 ADD MLOAD PUSH1 0x1 PUSH1 0x1 PUSH1 0xA0 SHL SUB AND EQ DUP1 PUSH2 0x25D3 JUMPI POP PUSH1 0x20 DUP6 ADD MLOAD PUSH1 0x1 PUSH1 0x1 PUSH1 0xA0 SHL SUB AND ADDRESS EQ PUSH2 0x135 PUSH2 0x13CC JUMP JUMPDEST PUSH1 0x20 DUP5 ADD MLOAD PUSH1 0x1 PUSH1 0x1 PUSH1 0xA0 SHL SUB AND ADDRESS EQ PUSH2 0x2BF0 JUMPI PUSH2 0x2786 DUP5 PUSH1 0x60 ADD MLOAD DUP5 PUSH32 0x0 DUP2 MLOAD DUP2 LT PUSH2 0x2BE2 JUMPI INVALID JUMPDEST PUSH1 0x20 MUL PUSH1 0x20 ADD ADD MLOAD DUP5 PUSH2 0x3431 JUMP JUMPDEST PUSH2 0x26CC DUP5 PUSH1 0x60 ADD MLOAD DUP5 PUSH32 0x0 DUP2 MLOAD DUP2 LT PUSH2 0x2C24 JUMPI INVALID JUMPDEST PUSH1 0x20 MUL PUSH1 0x20 ADD ADD MLOAD DUP6 PUSH32 0x0 DUP2 MLOAD DUP2 LT PUSH2 0x2C58 JUMPI INVALID JUMPDEST PUSH1 0x20 MUL PUSH1 0x20 ADD ADD MLOAD PUSH2 0x2C8F DUP8 PUSH32 0x0 DUP2 MLOAD DUP2 LT PUSH2 0xB1C JUMPI INVALID JUMPDEST DUP7 PUSH2 0x345B JUMP JUMPDEST PUSH1 0x0 PUSH2 0x2CF1 PUSH32 0x0 PUSH1 0x1 PUSH1 0x1 PUSH1 0xA0 SHL SUB AND DUP6 PUSH1 0x20 ADD MLOAD PUSH1 0x1 PUSH1 0x1 PUSH1 0xA0 SHL SUB AND EQ DUP1 PUSH2 0x25D3 JUMPI POP PUSH1 0x20 DUP6 ADD MLOAD PUSH1 0x1 PUSH1 0x1 PUSH1 0xA0 SHL SUB AND ADDRESS EQ PUSH2 0x135 PUSH2 0x13CC JUMP JUMPDEST PUSH1 0x20 DUP5 ADD MLOAD PUSH1 0x1 PUSH1 0x1 PUSH1 0xA0 SHL SUB AND ADDRESS EQ PUSH2 0x2D47 JUMPI PUSH2 0x2786 DUP5 PUSH1 0x60 ADD MLOAD DUP5 PUSH32 0x0 DUP2 MLOAD DUP2 LT PUSH2 0x2D39 JUMPI INVALID JUMPDEST PUSH1 0x20 MUL PUSH1 0x20 ADD ADD MLOAD DUP5 PUSH2 0x34AA JUMP JUMPDEST PUSH2 0x26CC DUP5 PUSH1 0x60 ADD MLOAD DUP5 PUSH32 0x0 DUP2 MLOAD DUP2 LT PUSH2 0x2D7B JUMPI INVALID JUMPDEST PUSH1 0x20 MUL PUSH1 0x20 ADD ADD MLOAD DUP6 PUSH32 0x0 DUP2 MLOAD DUP2 LT PUSH2 0x2DAF JUMPI INVALID JUMPDEST PUSH1 0x20 MUL PUSH1 0x20 ADD ADD MLOAD PUSH2 0x2DE6 DUP8 PUSH32 0x0 DUP2 MLOAD DUP2 LT PUSH2 0xB1C JUMPI INVALID JUMPDEST DUP7 PUSH2 0x34DF JUMP JUMPDEST PUSH1 0x0 PUSH20 0xBA1BA1BA1BA1BA1BA1BA1BA1BA1BA1BA1BA1BA1B PUSH2 0x2E0B PUSH2 0xE3D JUMP JUMPDEST PUSH1 0x1 PUSH1 0x1 PUSH1 0xA0 SHL SUB AND EQ ISZERO DUP1 ISZERO PUSH2 0x2E26 JUMPI POP PUSH2 0x2E26 DUP4 PUSH2 0x3533 JUMP JUMPDEST ISZERO PUSH2 0x2E4E JUMPI PUSH2 0x2E33 PUSH2 0xE3D JUMP JUMPDEST PUSH1 0x1 PUSH1 0x1 PUSH1 0xA0 SHL SUB AND CALLER PUSH1 0x1 PUSH1 0x1 PUSH1 0xA0 SHL SUB AND EQ SWAP1 POP PUSH2 0x71B JUMP JUMPDEST PUSH2 0x2E56 PUSH2 0x2067 JUMP JUMPDEST PUSH1 0x1 PUSH1 0x1 PUSH1 0xA0 SHL SUB AND PUSH4 0x9BE2A884 DUP5 DUP5 ADDRESS PUSH1 0x40 MLOAD DUP5 PUSH4 0xFFFFFFFF AND PUSH1 0xE0 SHL DUP2 MSTORE PUSH1 0x4 ADD PUSH2 0x2E85 SWAP4 SWAP3 SWAP2 SWAP1 PUSH2 0x3F73 JUMP JUMPDEST PUSH1 0x20 PUSH1 0x40 MLOAD DUP1 DUP4 SUB DUP2 DUP7 DUP1 EXTCODESIZE ISZERO DUP1 ISZERO PUSH2 0x2E9D JUMPI PUSH1 0x0 DUP1 REVERT JUMPDEST POP GAS STATICCALL ISZERO DUP1 ISZERO PUSH2 0x2EB1 JUMPI RETURNDATASIZE PUSH1 0x0 DUP1 RETURNDATACOPY RETURNDATASIZE PUSH1 0x0 REVERT JUMPDEST POP POP POP POP PUSH1 0x40 MLOAD RETURNDATASIZE PUSH1 0x1F NOT PUSH1 0x1F DUP3 ADD AND DUP3 ADD DUP1 PUSH1 0x40 MSTORE POP DUP2 ADD SWAP1 PUSH2 0x1254 SWAP2 SWAP1 PUSH2 0x3AD0 JUMP JUMPDEST PUSH1 0x0 PUSH2 0x2EE4 DUP5 DUP5 GT ISZERO DUP4 PUSH2 0x13CC JUMP JUMPDEST POP POP SWAP1 SUB SWAP1 JUMP JUMPDEST CHAINID SWAP1 JUMP JUMPDEST PUSH2 0x2F02 PUSH5 0xE8D4A51000 DUP3 LT ISZERO PUSH1 0xCB PUSH2 0x13CC JUMP JUMPDEST PUSH2 0x2F18 PUSH8 0x16345785D8A0000 DUP3 GT ISZERO PUSH1 0xCA PUSH2 0x13CC JUMP JUMPDEST PUSH1 0x8 SLOAD PUSH2 0x2F27 SWAP1 DUP3 PUSH1 0xC0 PUSH2 0x1381 JUMP JUMPDEST PUSH1 0x8 SSTORE PUSH1 0x40 MLOAD PUSH32 0xA9BA3FFE0B6C366B81232CAAB38605A0699AD5398D6CCE76F91EE809E322DAFC SWAP1 PUSH2 0x1827 SWAP1 DUP4 SWAP1 PUSH2 0x3F6A JUMP JUMPDEST PUSH1 0x0 DUP2 DUP1 PUSH1 0x20 ADD SWAP1 MLOAD DUP2 ADD SWAP1 PUSH2 0x71B SWAP2 SWAP1 PUSH2 0x3C21 JUMP JUMPDEST PUSH2 0x13ED PUSH2 0x2F7B PUSH2 0x1832 JUMP JUMPDEST ISZERO PUSH2 0x1AF PUSH2 0x13CC JUMP JUMPDEST PUSH1 0x0 PUSH1 0x60 PUSH1 0x0 PUSH2 0x2F93 DUP5 PUSH2 0x3556 JUMP JUMPDEST SWAP1 POP PUSH1 0x0 PUSH2 0x2FFE DUP7 DUP4 PUSH2 0x2FD8 DUP10 PUSH32 0x0 DUP2 MLOAD DUP2 LT PUSH2 0x2FCB JUMPI INVALID JUMPDEST PUSH1 0x20 MUL PUSH1 0x20 ADD ADD MLOAD PUSH2 0x22C5 JUMP JUMPDEST PUSH32 0x0 PUSH2 0x356C JUMP JUMPDEST SWAP2 SWAP7 SWAP2 SWAP6 POP SWAP1 SWAP4 POP POP POP POP JUMP JUMPDEST PUSH2 0x3022 PUSH1 0x1 PUSH1 0x1 PUSH1 0xA0 SHL SUB DUP4 AND ISZERO ISZERO PUSH2 0x19B PUSH2 0x13CC JUMP JUMPDEST PUSH2 0x302E DUP3 PUSH1 0x0 DUP4 PUSH2 0x84D JUMP JUMPDEST PUSH1 0x1 PUSH1 0x1 PUSH1 0xA0 SHL SUB DUP3 AND PUSH1 0x0 SWAP1 DUP2 MSTORE PUSH1 0x20 DUP2 SWAP1 MSTORE PUSH1 0x40 SWAP1 KECCAK256 SLOAD PUSH2 0x3054 SWAP1 DUP3 PUSH2 0x1A1 PUSH2 0x2ED5 JUMP JUMPDEST PUSH1 0x1 PUSH1 0x1 PUSH1 0xA0 SHL SUB DUP4 AND PUSH1 0x0 SWAP1 DUP2 MSTORE PUSH1 0x20 DUP2 SWAP1 MSTORE PUSH1 0x40 SWAP1 KECCAK256 SSTORE PUSH1 0x2 SLOAD PUSH2 0x307A SWAP1 DUP3 PUSH2 0x3628 JUMP JUMPDEST PUSH1 0x2 SSTORE PUSH1 0x40 MLOAD PUSH1 0x0 SWAP1 PUSH1 0x1 PUSH1 0x1 PUSH1 0xA0 SHL SUB DUP5 AND SWAP1 PUSH32 0xDDF252AD1BE2C89B69C2B068FC378DAA952BA7F163C4A11628F55A4DF523B3EF SWAP1 PUSH2 0x30BB SWAP1 DUP6 SWAP1 PUSH2 0x3F6A JUMP JUMPDEST PUSH1 0x40 MLOAD DUP1 SWAP2 SUB SWAP1 LOG3 POP POP JUMP JUMPDEST PUSH1 0x8 SLOAD PUSH2 0x30D6 SWAP1 DUP3 PUSH1 0x0 PUSH2 0x13B1 JUMP JUMPDEST PUSH1 0x8 SSTORE POP JUMP JUMPDEST PUSH2 0x30E8 PUSH1 0x0 DUP4 DUP4 PUSH2 0x84D JUMP JUMPDEST PUSH1 0x2 SLOAD PUSH2 0x30F5 SWAP1 DUP3 PUSH2 0x1B45 JUMP JUMPDEST PUSH1 0x2 SSTORE PUSH1 0x1 PUSH1 0x1 PUSH1 0xA0 SHL SUB DUP3 AND PUSH1 0x0 SWAP1 DUP2 MSTORE PUSH1 0x20 DUP2 SWAP1 MSTORE PUSH1 0x40 SWAP1 KECCAK256 SLOAD PUSH2 0x311B SWAP1 DUP3 PUSH2 0x1B45 JUMP JUMPDEST PUSH1 0x1 PUSH1 0x1 PUSH1 0xA0 SHL SUB DUP4 AND PUSH1 0x0 DUP2 DUP2 MSTORE PUSH1 0x20 DUP2 SWAP1 MSTORE PUSH1 0x40 DUP1 DUP3 KECCAK256 SWAP4 SWAP1 SWAP4 SSTORE SWAP2 MLOAD SWAP1 SWAP2 SWAP1 PUSH32 0xDDF252AD1BE2C89B69C2B068FC378DAA952BA7F163C4A11628F55A4DF523B3EF SWAP1 PUSH2 0x30BB SWAP1 DUP6 SWAP1 PUSH2 0x3F6A JUMP JUMPDEST PUSH1 0x0 DUP1 PUSH2 0x3177 DUP7 DUP5 PUSH2 0x1E7D JUMP JUMPDEST SWAP1 POP PUSH1 0x0 PUSH2 0x3185 DUP3 DUP8 PUSH2 0x1EDE JUMP JUMPDEST SWAP1 POP PUSH1 0x0 PUSH2 0x3193 DUP7 DUP11 PUSH2 0x1397 JUMP JUMPDEST SWAP1 POP PUSH1 0x0 PUSH2 0x31AE DUP5 PUSH2 0x22D3 PUSH2 0x31A8 DUP6 DUP8 PUSH2 0x3636 JUMP JUMPDEST DUP11 PUSH2 0x3650 JUMP JUMPDEST SWAP1 POP PUSH2 0x31BA DUP9 DUP3 PUSH2 0x1397 JUMP JUMPDEST SWAP5 POP POP POP POP POP JUMPDEST SWAP6 SWAP5 POP POP POP POP POP JUMP JUMPDEST PUSH1 0x0 DUP1 PUSH2 0x31D7 DUP7 DUP5 PUSH2 0x1E7D JUMP JUMPDEST SWAP1 POP PUSH1 0x0 PUSH2 0x31E5 DUP3 DUP8 PUSH2 0x1EDE JUMP JUMPDEST SWAP1 POP PUSH1 0x0 PUSH2 0x31FC PUSH2 0x31F6 DUP4 DUP12 PUSH2 0x3636 JUMP JUMPDEST DUP8 PUSH2 0x3683 JUMP JUMPDEST SWAP1 POP PUSH1 0x0 PUSH2 0x320A DUP5 DUP4 PUSH2 0x1397 JUMP JUMPDEST SWAP1 POP PUSH1 0x0 PUSH2 0x3218 DUP3 DUP9 PUSH2 0x36A3 JUMP JUMPDEST SWAP1 POP PUSH2 0x3224 DUP11 DUP3 PUSH2 0x1397 JUMP JUMPDEST SWAP12 SWAP11 POP POP POP POP POP POP POP POP POP POP POP JUMP JUMPDEST PUSH1 0x0 DUP1 PUSH2 0x3240 DUP5 DUP5 PUSH2 0x1E7D JUMP JUMPDEST SWAP1 POP PUSH1 0x0 PUSH2 0x3257 PUSH2 0x3251 DUP7 DUP9 PUSH2 0x1B45 JUMP JUMPDEST DUP6 PUSH2 0x1E7D JUMP JUMPDEST SWAP1 POP PUSH2 0x1B22 DUP2 DUP4 PUSH2 0x1397 JUMP JUMPDEST PUSH1 0x0 DUP3 PUSH2 0x327B JUMPI PUSH2 0x3274 DUP7 DUP4 PUSH2 0x1E7D JUMP JUMPDEST SWAP1 POP PUSH2 0x31C1 JUMP JUMPDEST PUSH1 0x0 PUSH2 0x3287 DUP7 DUP5 PUSH2 0x1E7D JUMP JUMPDEST SWAP1 POP PUSH1 0x0 PUSH2 0x3298 PUSH2 0x3251 DUP9 DUP11 PUSH2 0x1B45 JUMP JUMPDEST SWAP1 POP PUSH1 0x0 PUSH2 0x32A6 DUP3 DUP5 PUSH2 0x1397 JUMP JUMPDEST SWAP1 POP PUSH1 0x0 PUSH2 0x32B4 DUP5 DUP10 PUSH2 0x1EDE JUMP JUMPDEST SWAP1 POP PUSH2 0x31BA PUSH2 0x32C3 DUP9 DUP5 PUSH2 0x3636 JUMP JUMPDEST DUP3 PUSH2 0x3683 JUMP JUMPDEST PUSH1 0x0 DUP1 PUSH2 0x32D6 DUP5 DUP5 PUSH2 0x1E7D JUMP JUMPDEST SWAP1 POP PUSH1 0x0 PUSH2 0x32E4 DUP3 DUP8 PUSH2 0x1397 JUMP JUMPDEST SWAP1 POP PUSH1 0x0 PUSH2 0x32F2 DUP3 DUP7 PUSH2 0x36A3 JUMP JUMPDEST SWAP1 POP PUSH2 0x32FE DUP7 DUP3 PUSH2 0x1397 JUMP JUMPDEST SWAP8 SWAP7 POP POP POP POP POP POP POP JUMP JUMPDEST PUSH1 0x0 DUP3 PUSH2 0x3317 JUMPI POP DUP5 PUSH2 0x31C1 JUMP JUMPDEST PUSH1 0x0 PUSH2 0x3323 DUP7 DUP5 PUSH2 0x1E7D JUMP JUMPDEST SWAP1 POP PUSH1 0x0 PUSH2 0x3331 DUP3 DUP8 PUSH2 0x1EDE JUMP JUMPDEST SWAP1 POP PUSH1 0x0 PUSH2 0x333F DUP8 DUP11 PUSH2 0x1B45 JUMP JUMPDEST SWAP1 POP PUSH1 0x0 PUSH2 0x334D DUP5 DUP4 PUSH2 0x1EDE JUMP JUMPDEST SWAP1 POP PUSH1 0x0 PUSH2 0x3364 PUSH2 0x335E DUP10 DUP5 PUSH2 0x3636 JUMP JUMPDEST DUP6 PUSH2 0x3683 JUMP JUMPDEST SWAP1 POP PUSH2 0x3224 DUP2 DUP10 PUSH2 0x1397 JUMP JUMPDEST PUSH1 0x0 DUP3 PUSH2 0x337E JUMPI POP DUP5 PUSH2 0x31C1 JUMP JUMPDEST PUSH1 0x0 PUSH2 0x338A DUP7 DUP5 PUSH2 0x1E7D JUMP JUMPDEST SWAP1 POP PUSH1 0x0 PUSH2 0x3398 DUP3 DUP8 PUSH2 0x1EDE JUMP JUMPDEST SWAP1 POP PUSH1 0x0 PUSH2 0x33A6 DUP7 DUP11 PUSH2 0x1B45 JUMP JUMPDEST SWAP1 POP PUSH1 0x0 PUSH2 0x33BB DUP5 PUSH2 0x22D3 PUSH2 0x31A8 DUP6 DUP8 PUSH2 0x3636 JUMP JUMPDEST SWAP1 POP PUSH2 0x31BA DUP2 DUP10 PUSH2 0x1397 JUMP JUMPDEST PUSH1 0x0 DUP3 PUSH2 0x33D8 JUMPI PUSH2 0x3274 DUP7 DUP4 PUSH2 0x36A3 JUMP JUMPDEST PUSH1 0x0 PUSH2 0x33E4 DUP7 DUP5 PUSH2 0x1E7D JUMP JUMPDEST SWAP1 POP PUSH1 0x0 PUSH2 0x33F2 DUP3 DUP8 PUSH2 0x1EDE JUMP JUMPDEST SWAP1 POP PUSH1 0x0 PUSH2 0x3409 PUSH2 0x3403 DUP4 DUP12 PUSH2 0x3636 JUMP JUMPDEST DUP8 PUSH2 0x3650 JUMP JUMPDEST SWAP1 POP PUSH1 0x0 PUSH2 0x3417 DUP5 DUP4 PUSH2 0x1B45 JUMP JUMPDEST SWAP1 POP PUSH1 0x0 PUSH2 0x3425 DUP3 DUP9 PUSH2 0x36A3 JUMP JUMPDEST SWAP1 POP PUSH2 0x3224 DUP2 DUP12 PUSH2 0x1397 JUMP JUMPDEST PUSH1 0x0 DUP1 PUSH2 0x343E DUP5 DUP5 PUSH2 0x1E7D JUMP JUMPDEST SWAP1 POP PUSH1 0x0 PUSH2 0x344F PUSH2 0x3251 DUP7 DUP9 PUSH2 0x1397 JUMP JUMPDEST SWAP1 POP PUSH2 0x1B22 DUP3 DUP3 PUSH2 0x1397 JUMP JUMPDEST PUSH1 0x0 DUP1 PUSH2 0x3468 DUP7 DUP5 PUSH2 0x1E7D JUMP JUMPDEST SWAP1 POP PUSH1 0x0 PUSH2 0x3479 PUSH2 0x3251 DUP9 DUP11 PUSH2 0x1397 JUMP JUMPDEST SWAP1 POP PUSH1 0x0 PUSH2 0x3487 DUP4 DUP4 PUSH2 0x1397 JUMP JUMPDEST SWAP1 POP PUSH1 0x0 PUSH2 0x3495 DUP5 DUP10 PUSH2 0x1EDE JUMP JUMPDEST SWAP1 POP PUSH2 0x31BA PUSH2 0x34A4 DUP9 DUP5 PUSH2 0x3636 JUMP JUMPDEST DUP3 PUSH2 0x3650 JUMP JUMPDEST PUSH1 0x0 DUP1 PUSH2 0x34B7 DUP5 DUP5 PUSH2 0x1E7D JUMP JUMPDEST SWAP1 POP PUSH1 0x0 PUSH2 0x34C5 DUP3 DUP8 PUSH2 0x1B45 JUMP JUMPDEST SWAP1 POP PUSH1 0x0 PUSH2 0x34D3 DUP3 DUP7 PUSH2 0x36A3 JUMP JUMPDEST SWAP1 POP PUSH2 0x32FE DUP2 DUP8 PUSH2 0x1397 JUMP JUMPDEST PUSH1 0x0 DUP1 PUSH2 0x34EC DUP7 DUP5 PUSH2 0x1E7D JUMP JUMPDEST SWAP1 POP PUSH1 0x0 PUSH2 0x34FA DUP3 DUP8 PUSH2 0x1EDE JUMP JUMPDEST SWAP1 POP PUSH1 0x0 PUSH2 0x3508 DUP8 DUP11 PUSH2 0x1397 JUMP JUMPDEST SWAP1 POP PUSH1 0x0 PUSH2 0x3516 DUP5 DUP4 PUSH2 0x1EDE JUMP JUMPDEST SWAP1 POP PUSH1 0x0 PUSH2 0x3527 PUSH2 0x335E DUP10 DUP5 PUSH2 0x3636 JUMP JUMPDEST SWAP1 POP PUSH2 0x3224 DUP9 DUP3 PUSH2 0x1397 JUMP JUMPDEST PUSH1 0x0 PUSH2 0x3545 PUSH4 0x4F888407 PUSH1 0xE1 SHL PUSH2 0xDC5 JUMP JUMPDEST DUP3 EQ DUP1 PUSH2 0x71B JUMPI POP PUSH2 0x71B DUP3 PUSH2 0x3733 JUMP JUMPDEST PUSH1 0x0 DUP2 DUP1 PUSH1 0x20 ADD SWAP1 MLOAD DUP2 ADD SWAP1 PUSH2 0x806 SWAP2 SWAP1 PUSH2 0x3C3B JUMP JUMPDEST PUSH1 0x60 PUSH1 0x0 PUSH2 0x357A DUP6 DUP6 PUSH2 0x2987 JUMP JUMPDEST SWAP1 POP PUSH1 0x0 DUP7 MLOAD PUSH8 0xFFFFFFFFFFFFFFFF DUP2 GT DUP1 ISZERO PUSH2 0x3596 JUMPI PUSH1 0x0 DUP1 REVERT JUMPDEST POP PUSH1 0x40 MLOAD SWAP1 DUP1 DUP3 MSTORE DUP1 PUSH1 0x20 MUL PUSH1 0x20 ADD DUP3 ADD PUSH1 0x40 MSTORE DUP1 ISZERO PUSH2 0x35C0 JUMPI DUP2 PUSH1 0x20 ADD PUSH1 0x20 DUP3 MUL DUP1 CALLDATASIZE DUP4 CALLDATACOPY ADD SWAP1 POP JUMPDEST POP SWAP1 POP PUSH1 0x0 JUMPDEST DUP8 MLOAD DUP2 LT ISZERO PUSH2 0x361D JUMPI DUP5 DUP2 EQ PUSH2 0x3615 JUMPI PUSH2 0x35FC DUP4 DUP10 DUP4 DUP2 MLOAD DUP2 LT PUSH2 0x35E6 JUMPI INVALID JUMPDEST PUSH1 0x20 MUL PUSH1 0x20 ADD ADD MLOAD PUSH2 0x251F SWAP1 SWAP2 SWAP1 PUSH4 0xFFFFFFFF AND JUMP JUMPDEST DUP3 DUP3 DUP2 MLOAD DUP2 LT PUSH2 0x3608 JUMPI INVALID JUMPDEST PUSH1 0x20 MUL PUSH1 0x20 ADD ADD DUP2 DUP2 MSTORE POP POP JUMPDEST PUSH1 0x1 ADD PUSH2 0x35C6 JUMP JUMPDEST POP SWAP7 SWAP6 POP POP POP POP POP POP JUMP JUMPDEST PUSH1 0x0 PUSH2 0x806 DUP4 DUP4 PUSH1 0x1 PUSH2 0x2ED5 JUMP JUMPDEST PUSH1 0x0 DUP3 DUP3 MUL PUSH2 0x806 DUP5 ISZERO DUP1 PUSH2 0x253C JUMPI POP DUP4 DUP6 DUP4 DUP2 PUSH2 0x2539 JUMPI INVALID JUMPDEST PUSH1 0x0 PUSH2 0x365F DUP3 ISZERO ISZERO PUSH1 0x4 PUSH2 0x13CC JUMP JUMPDEST DUP3 PUSH2 0x366C JUMPI POP PUSH1 0x0 PUSH2 0x71B JUMP JUMPDEST DUP2 PUSH1 0x1 DUP5 SUB DUP2 PUSH2 0x3678 JUMPI INVALID JUMPDEST DIV PUSH1 0x1 ADD SWAP1 POP PUSH2 0x71B JUMP JUMPDEST PUSH1 0x0 PUSH2 0x3692 DUP3 ISZERO ISZERO PUSH1 0x4 PUSH2 0x13CC JUMP JUMPDEST DUP2 DUP4 DUP2 PUSH2 0x369B JUMPI INVALID JUMPDEST DIV SWAP4 SWAP3 POP POP POP JUMP JUMPDEST PUSH1 0x0 DUP2 PUSH1 0x20 ADD MLOAD DUP4 LT ISZERO PUSH2 0x36EC JUMPI DUP2 MLOAD PUSH2 0x1254 SWAP1 PUSH2 0x36CA SWAP1 PUSH8 0xDE0B6B3A7640000 SWAP1 PUSH2 0x1B45 JUMP JUMPDEST PUSH1 0x20 DUP5 ADD MLOAD DUP5 MLOAD PUSH2 0x36E6 SWAP2 PUSH2 0x36DF SWAP2 SWAP1 PUSH2 0x251F JUMP JUMPDEST DUP7 SWAP1 PUSH2 0x1B45 JUMP JUMPDEST SWAP1 PUSH2 0x2987 JUMP JUMPDEST DUP2 PUSH1 0x40 ADD MLOAD DUP4 GT PUSH2 0x36FE JUMPI POP DUP2 PUSH2 0x71B JUMP JUMPDEST DUP2 MLOAD PUSH2 0x1254 SWAP1 PUSH2 0x3717 SWAP1 PUSH8 0xDE0B6B3A7640000 SWAP1 PUSH2 0x1397 JUMP JUMPDEST PUSH1 0x40 DUP5 ADD MLOAD DUP5 MLOAD PUSH2 0x36E6 SWAP2 PUSH2 0x372C SWAP2 SWAP1 PUSH2 0x251F JUMP JUMPDEST DUP7 SWAP1 PUSH2 0x1397 JUMP JUMPDEST PUSH1 0x0 PUSH2 0x3745 PUSH4 0x1C74C917 PUSH1 0xE1 SHL PUSH2 0xDC5 JUMP JUMPDEST DUP3 EQ DUP1 PUSH2 0x71B JUMPI POP PUSH2 0x375D PUSH4 0x50DD6ED9 PUSH1 0xE0 SHL PUSH2 0xDC5 JUMP JUMPDEST SWAP1 SWAP2 EQ SWAP2 SWAP1 POP JUMP JUMPDEST DUP1 CALLDATALOAD PUSH2 0xB55 DUP2 PUSH2 0x4187 JUMP JUMPDEST PUSH1 0x0 DUP3 PUSH1 0x1F DUP4 ADD SLT PUSH2 0x3780 JUMPI DUP1 DUP2 REVERT JUMPDEST DUP2 CALLDATALOAD PUSH1 0x20 PUSH2 0x3795 PUSH2 0x3790 DUP4 PUSH2 0x4169 JUMP JUMPDEST PUSH2 0x4145 JUMP JUMPDEST DUP3 DUP2 MSTORE DUP2 DUP2 ADD SWAP1 DUP6 DUP4 ADD DUP4 DUP6 MUL DUP8 ADD DUP5 ADD DUP9 LT ISZERO PUSH2 0x37B1 JUMPI DUP6 DUP7 REVERT JUMPDEST DUP6 JUMPDEST DUP6 DUP2 LT ISZERO PUSH2 0x37CF JUMPI DUP2 CALLDATALOAD DUP5 MSTORE SWAP3 DUP5 ADD SWAP3 SWAP1 DUP5 ADD SWAP1 PUSH1 0x1 ADD PUSH2 0x37B3 JUMP JUMPDEST POP SWAP1 SWAP8 SWAP7 POP POP POP POP POP POP POP JUMP JUMPDEST PUSH1 0x0 DUP3 PUSH1 0x1F DUP4 ADD SLT PUSH2 0x37EC JUMPI DUP1 DUP2 REVERT JUMPDEST DUP2 MLOAD PUSH1 0x20 PUSH2 0x37FC PUSH2 0x3790 DUP4 PUSH2 0x4169 JUMP JUMPDEST DUP3 DUP2 MSTORE DUP2 DUP2 ADD SWAP1 DUP6 DUP4 ADD DUP4 DUP6 MUL DUP8 ADD DUP5 ADD DUP9 LT ISZERO PUSH2 0x3818 JUMPI DUP6 DUP7 REVERT JUMPDEST DUP6 JUMPDEST DUP6 DUP2 LT ISZERO PUSH2 0x37CF JUMPI DUP2 MLOAD DUP5 MSTORE SWAP3 DUP5 ADD SWAP3 SWAP1 DUP5 ADD SWAP1 PUSH1 0x1 ADD PUSH2 0x381A JUMP JUMPDEST PUSH1 0x0 DUP3 PUSH1 0x1F DUP4 ADD SLT PUSH2 0x3846 JUMPI DUP1 DUP2 REVERT JUMPDEST DUP2 CALLDATALOAD PUSH8 0xFFFFFFFFFFFFFFFF DUP2 GT ISZERO PUSH2 0x385A JUMPI INVALID JUMPDEST PUSH2 0x386D PUSH1 0x1F DUP3 ADD PUSH1 0x1F NOT AND PUSH1 0x20 ADD PUSH2 0x4145 JUMP JUMPDEST DUP2 DUP2 MSTORE DUP5 PUSH1 0x20 DUP4 DUP7 ADD ADD GT ISZERO PUSH2 0x3881 JUMPI DUP3 DUP4 REVERT JUMPDEST DUP2 PUSH1 0x20 DUP6 ADD PUSH1 0x20 DUP4 ADD CALLDATACOPY SWAP1 DUP2 ADD PUSH1 0x20 ADD SWAP2 SWAP1 SWAP2 MSTORE SWAP3 SWAP2 POP POP JUMP JUMPDEST DUP1 MLOAD PUSH1 0x1 DUP2 LT PUSH2 0xB55 JUMPI PUSH1 0x0 DUP1 REVERT JUMPDEST DUP1 CALLDATALOAD PUSH1 0x2 DUP2 LT PUSH2 0xB55 JUMPI PUSH1 0x0 DUP1 REVERT JUMPDEST PUSH1 0x0 PUSH1 0x20 DUP3 DUP5 SUB SLT ISZERO PUSH2 0x38CA JUMPI DUP1 DUP2 REVERT JUMPDEST DUP2 CALLDATALOAD PUSH2 0x806 DUP2 PUSH2 0x4187 JUMP JUMPDEST PUSH1 0x0 DUP1 PUSH1 0x40 DUP4 DUP6 SUB SLT ISZERO PUSH2 0x38E7 JUMPI DUP1 DUP2 REVERT JUMPDEST DUP3 CALLDATALOAD PUSH2 0x38F2 DUP2 PUSH2 0x4187 JUMP JUMPDEST SWAP2 POP PUSH1 0x20 DUP4 ADD CALLDATALOAD PUSH2 0x3902 DUP2 PUSH2 0x4187 JUMP JUMPDEST DUP1 SWAP2 POP POP SWAP3 POP SWAP3 SWAP1 POP JUMP JUMPDEST PUSH1 0x0 DUP1 PUSH1 0x0 PUSH1 0x60 DUP5 DUP7 SUB SLT ISZERO PUSH2 0x3921 JUMPI DUP1 DUP2 REVERT JUMPDEST DUP4 CALLDATALOAD PUSH2 0x392C DUP2 PUSH2 0x4187 JUMP JUMPDEST SWAP3 POP PUSH1 0x20 DUP5 ADD CALLDATALOAD PUSH2 0x393C DUP2 PUSH2 0x4187 JUMP JUMPDEST SWAP3 SWAP6 SWAP3 SWAP5 POP POP POP PUSH1 0x40 SWAP2 SWAP1 SWAP2 ADD CALLDATALOAD SWAP1 JUMP JUMPDEST PUSH1 0x0 DUP1 PUSH1 0x0 DUP1 PUSH1 0x0 DUP1 PUSH1 0x0 PUSH1 0xE0 DUP9 DUP11 SUB SLT ISZERO PUSH2 0x3967 JUMPI DUP5 DUP6 REVERT JUMPDEST DUP8 CALLDATALOAD PUSH2 0x3972 DUP2 PUSH2 0x4187 JUMP JUMPDEST SWAP7 POP PUSH1 0x20 DUP9 ADD CALLDATALOAD PUSH2 0x3982 DUP2 PUSH2 0x4187 JUMP JUMPDEST SWAP6 POP PUSH1 0x40 DUP9 ADD CALLDATALOAD SWAP5 POP PUSH1 0x60 DUP9 ADD CALLDATALOAD SWAP4 POP PUSH1 0x80 DUP9 ADD CALLDATALOAD PUSH2 0x39A0 DUP2 PUSH2 0x41AA JUMP JUMPDEST SWAP7 SWAP10 SWAP6 SWAP9 POP SWAP4 SWAP7 SWAP3 SWAP6 SWAP5 PUSH1 0xA0 DUP5 ADD CALLDATALOAD SWAP5 POP PUSH1 0xC0 SWAP1 SWAP4 ADD CALLDATALOAD SWAP3 SWAP2 POP POP JUMP JUMPDEST PUSH1 0x0 DUP1 PUSH1 0x40 DUP4 DUP6 SUB SLT ISZERO PUSH2 0x39CF JUMPI DUP2 DUP3 REVERT JUMPDEST DUP3 CALLDATALOAD PUSH2 0x39DA DUP2 PUSH2 0x4187 JUMP JUMPDEST SWAP5 PUSH1 0x20 SWAP4 SWAP1 SWAP4 ADD CALLDATALOAD SWAP4 POP POP POP JUMP JUMPDEST PUSH1 0x0 DUP1 PUSH1 0x0 PUSH1 0x60 DUP5 DUP7 SUB SLT ISZERO PUSH2 0x39FC JUMPI DUP1 DUP2 REVERT JUMPDEST DUP4 MLOAD PUSH8 0xFFFFFFFFFFFFFFFF DUP1 DUP3 GT ISZERO PUSH2 0x3A13 JUMPI DUP3 DUP4 REVERT JUMPDEST DUP2 DUP7 ADD SWAP2 POP DUP7 PUSH1 0x1F DUP4 ADD SLT PUSH2 0x3A26 JUMPI DUP3 DUP4 REVERT JUMPDEST DUP2 MLOAD PUSH1 0x20 PUSH2 0x3A36 PUSH2 0x3790 DUP4 PUSH2 0x4169 JUMP JUMPDEST DUP3 DUP2 MSTORE DUP2 DUP2 ADD SWAP1 DUP6 DUP4 ADD DUP4 DUP6 MUL DUP8 ADD DUP5 ADD DUP13 LT ISZERO PUSH2 0x3A52 JUMPI DUP8 DUP9 REVERT JUMPDEST DUP8 SWAP7 POP JUMPDEST DUP5 DUP8 LT ISZERO PUSH2 0x3A7D JUMPI DUP1 MLOAD PUSH2 0x3A69 DUP2 PUSH2 0x4187 JUMP JUMPDEST DUP4 MSTORE PUSH1 0x1 SWAP7 SWAP1 SWAP7 ADD SWAP6 SWAP2 DUP4 ADD SWAP2 DUP4 ADD PUSH2 0x3A56 JUMP JUMPDEST POP SWAP2 DUP10 ADD MLOAD SWAP2 SWAP8 POP SWAP1 SWAP4 POP POP POP DUP1 DUP3 GT ISZERO PUSH2 0x3A96 JUMPI DUP3 DUP4 REVERT JUMPDEST POP PUSH2 0x3AA3 DUP7 DUP3 DUP8 ADD PUSH2 0x37DC JUMP JUMPDEST SWAP3 POP POP PUSH1 0x40 DUP5 ADD MLOAD SWAP1 POP SWAP3 POP SWAP3 POP SWAP3 JUMP JUMPDEST PUSH1 0x0 PUSH1 0x20 DUP3 DUP5 SUB SLT ISZERO PUSH2 0x3AC5 JUMPI DUP1 DUP2 REVERT JUMPDEST DUP2 CALLDATALOAD PUSH2 0x806 DUP2 PUSH2 0x419C JUMP JUMPDEST PUSH1 0x0 PUSH1 0x20 DUP3 DUP5 SUB SLT ISZERO PUSH2 0x3AE1 JUMPI DUP1 DUP2 REVERT JUMPDEST DUP2 MLOAD PUSH2 0x806 DUP2 PUSH2 0x419C JUMP JUMPDEST PUSH1 0x0 DUP1 PUSH1 0x0 DUP1 PUSH1 0x0 DUP1 PUSH1 0x0 PUSH1 0xE0 DUP9 DUP11 SUB SLT ISZERO PUSH2 0x3B06 JUMPI DUP1 DUP2 REVERT JUMPDEST DUP8 CALLDATALOAD SWAP7 POP PUSH1 0x20 DUP9 ADD CALLDATALOAD PUSH2 0x3B18 DUP2 PUSH2 0x4187 JUMP JUMPDEST SWAP6 POP PUSH1 0x40 DUP9 ADD CALLDATALOAD PUSH2 0x3B28 DUP2 PUSH2 0x4187 JUMP JUMPDEST SWAP5 POP PUSH1 0x60 DUP9 ADD CALLDATALOAD PUSH8 0xFFFFFFFFFFFFFFFF DUP1 DUP3 GT ISZERO PUSH2 0x3B44 JUMPI DUP3 DUP4 REVERT JUMPDEST PUSH2 0x3B50 DUP12 DUP4 DUP13 ADD PUSH2 0x3770 JUMP JUMPDEST SWAP6 POP PUSH1 0x80 DUP11 ADD CALLDATALOAD SWAP5 POP PUSH1 0xA0 DUP11 ADD CALLDATALOAD SWAP4 POP PUSH1 0xC0 DUP11 ADD CALLDATALOAD SWAP2 POP DUP1 DUP3 GT ISZERO PUSH2 0x3B73 JUMPI DUP3 DUP4 REVERT JUMPDEST POP PUSH2 0x3B80 DUP11 DUP3 DUP12 ADD PUSH2 0x3836 JUMP JUMPDEST SWAP2 POP POP SWAP3 SWAP6 SWAP9 SWAP2 SWAP5 SWAP8 POP SWAP3 SWAP6 POP JUMP JUMPDEST PUSH1 0x0 PUSH1 0x20 DUP3 DUP5 SUB SLT ISZERO PUSH2 0x3BA0 JUMPI DUP1 DUP2 REVERT JUMPDEST DUP2 CALLDATALOAD PUSH1 0x1 PUSH1 0x1 PUSH1 0xE0 SHL SUB NOT DUP2 AND DUP2 EQ PUSH2 0x806 JUMPI DUP2 DUP3 REVERT JUMPDEST PUSH1 0x0 PUSH1 0x20 DUP3 DUP5 SUB SLT ISZERO PUSH2 0x3BC8 JUMPI DUP1 DUP2 REVERT JUMPDEST DUP2 MLOAD PUSH2 0x806 DUP2 PUSH2 0x4187 JUMP JUMPDEST PUSH1 0x0 DUP1 PUSH1 0x40 DUP4 DUP6 SUB SLT ISZERO PUSH2 0x3BE5 JUMPI DUP2 DUP3 REVERT JUMPDEST DUP3 CALLDATALOAD PUSH2 0x3BF0 DUP2 PUSH2 0x4187 JUMP JUMPDEST SWAP2 POP PUSH1 0x20 DUP4 ADD CALLDATALOAD PUSH8 0xFFFFFFFFFFFFFFFF DUP2 GT ISZERO PUSH2 0x3C0B JUMPI DUP2 DUP3 REVERT JUMPDEST PUSH2 0x3C17 DUP6 DUP3 DUP7 ADD PUSH2 0x3836 JUMP JUMPDEST SWAP2 POP POP SWAP3 POP SWAP3 SWAP1 POP JUMP JUMPDEST PUSH1 0x0 PUSH1 0x20 DUP3 DUP5 SUB SLT ISZERO PUSH2 0x3C32 JUMPI DUP1 DUP2 REVERT JUMPDEST PUSH2 0x806 DUP3 PUSH2 0x389B JUMP JUMPDEST PUSH1 0x0 DUP1 PUSH1 0x40 DUP4 DUP6 SUB SLT ISZERO PUSH2 0x3C4D JUMPI DUP2 DUP3 REVERT JUMPDEST PUSH2 0x3C56 DUP4 PUSH2 0x389B JUMP JUMPDEST SWAP2 POP PUSH1 0x20 DUP4 ADD MLOAD SWAP1 POP SWAP3 POP SWAP3 SWAP1 POP JUMP JUMPDEST PUSH1 0x0 DUP1 PUSH1 0x0 DUP1 PUSH1 0x80 DUP6 DUP8 SUB SLT ISZERO PUSH2 0x3C7B JUMPI DUP2 DUP3 REVERT JUMPDEST DUP5 CALLDATALOAD PUSH8 0xFFFFFFFFFFFFFFFF DUP1 DUP3 GT ISZERO PUSH2 0x3C92 JUMPI DUP4 DUP5 REVERT JUMPDEST DUP2 DUP8 ADD SWAP2 POP PUSH2 0x120 DUP1 DUP4 DUP11 SUB SLT ISZERO PUSH2 0x3CA8 JUMPI DUP5 DUP6 REVERT JUMPDEST PUSH2 0x3CB1 DUP2 PUSH2 0x4145 JUMP JUMPDEST SWAP1 POP PUSH2 0x3CBC DUP4 PUSH2 0x38AA JUMP JUMPDEST DUP2 MSTORE PUSH2 0x3CCA PUSH1 0x20 DUP5 ADD PUSH2 0x3765 JUMP JUMPDEST PUSH1 0x20 DUP3 ADD MSTORE PUSH2 0x3CDB PUSH1 0x40 DUP5 ADD PUSH2 0x3765 JUMP JUMPDEST PUSH1 0x40 DUP3 ADD MSTORE PUSH1 0x60 DUP4 ADD CALLDATALOAD PUSH1 0x60 DUP3 ADD MSTORE PUSH1 0x80 DUP4 ADD CALLDATALOAD PUSH1 0x80 DUP3 ADD MSTORE PUSH1 0xA0 DUP4 ADD CALLDATALOAD PUSH1 0xA0 DUP3 ADD MSTORE PUSH2 0x3D0A PUSH1 0xC0 DUP5 ADD PUSH2 0x3765 JUMP JUMPDEST PUSH1 0xC0 DUP3 ADD MSTORE PUSH2 0x3D1B PUSH1 0xE0 DUP5 ADD PUSH2 0x3765 JUMP JUMPDEST PUSH1 0xE0 DUP3 ADD MSTORE PUSH2 0x100 DUP1 DUP5 ADD CALLDATALOAD DUP4 DUP2 GT ISZERO PUSH2 0x3D33 JUMPI DUP7 DUP8 REVERT JUMPDEST PUSH2 0x3D3F DUP12 DUP3 DUP8 ADD PUSH2 0x3836 JUMP JUMPDEST DUP3 DUP5 ADD MSTORE POP POP DUP1 SWAP7 POP POP PUSH1 0x20 DUP8 ADD CALLDATALOAD SWAP2 POP DUP1 DUP3 GT ISZERO PUSH2 0x3D5C JUMPI DUP4 DUP5 REVERT JUMPDEST POP PUSH2 0x3D69 DUP8 DUP3 DUP9 ADD PUSH2 0x3770 JUMP JUMPDEST SWAP5 SWAP8 SWAP5 SWAP7 POP POP POP POP PUSH1 0x40 DUP4 ADD CALLDATALOAD SWAP3 PUSH1 0x60 ADD CALLDATALOAD SWAP2 SWAP1 POP JUMP JUMPDEST PUSH1 0x0 PUSH1 0x20 DUP3 DUP5 SUB SLT ISZERO PUSH2 0x3D91 JUMPI DUP1 DUP2 REVERT JUMPDEST POP CALLDATALOAD SWAP2 SWAP1 POP JUMP JUMPDEST PUSH1 0x0 PUSH1 0x20 DUP3 DUP5 SUB SLT ISZERO PUSH2 0x3DA9 JUMPI DUP1 DUP2 REVERT JUMPDEST POP MLOAD SWAP2 SWAP1 POP JUMP JUMPDEST PUSH1 0x0 DUP1 PUSH1 0x40 DUP4 DUP6 SUB SLT ISZERO PUSH2 0x3DC2 JUMPI DUP2 DUP3 REVERT JUMPDEST POP POP DUP1 CALLDATALOAD SWAP3 PUSH1 0x20 SWAP1 SWAP2 ADD CALLDATALOAD SWAP2 POP JUMP JUMPDEST PUSH1 0x0 DUP1 PUSH1 0x0 DUP1 PUSH1 0x80 DUP6 DUP8 SUB SLT ISZERO PUSH2 0x3DE6 JUMPI DUP2 DUP3 REVERT JUMPDEST DUP5 MLOAD SWAP4 POP PUSH1 0x20 DUP6 ADD MLOAD SWAP3 POP PUSH1 0x40 DUP6 ADD MLOAD SWAP2 POP PUSH1 0x60 DUP6 ADD MLOAD PUSH2 0x3E06 DUP2 PUSH2 0x4187 JUMP JUMPDEST SWAP4 SWAP7 SWAP3 SWAP6 POP SWAP1 SWAP4 POP POP JUMP JUMPDEST PUSH1 0x0 PUSH1 0x20 DUP3 DUP5 SUB SLT ISZERO PUSH2 0x3E22 JUMPI DUP1 DUP2 REVERT JUMPDEST DUP2 MLOAD PUSH2 0x806 DUP2 PUSH2 0x41AA JUMP JUMPDEST PUSH1 0x0 DUP2 MLOAD DUP1 DUP5 MSTORE PUSH1 0x20 DUP1 DUP6 ADD SWAP5 POP DUP1 DUP5 ADD DUP4 JUMPDEST DUP4 DUP2 LT ISZERO PUSH2 0x3E5C JUMPI DUP2 MLOAD DUP8 MSTORE SWAP6 DUP3 ADD SWAP6 SWAP1 DUP3 ADD SWAP1 PUSH1 0x1 ADD PUSH2 0x3E40 JUMP JUMPDEST POP SWAP5 SWAP6 SWAP5 POP POP POP POP POP JUMP JUMPDEST ISZERO ISZERO SWAP1 MSTORE JUMP JUMPDEST PUSH1 0x0 DUP2 MLOAD DUP1 DUP5 MSTORE DUP2 JUMPDEST DUP2 DUP2 LT ISZERO PUSH2 0x3E92 JUMPI PUSH1 0x20 DUP2 DUP6 ADD DUP2 ADD MLOAD DUP7 DUP4 ADD DUP3 ADD MSTORE ADD PUSH2 0x3E76 JUMP JUMPDEST DUP2 DUP2 GT ISZERO PUSH2 0x3EA3 JUMPI DUP3 PUSH1 0x20 DUP4 DUP8 ADD ADD MSTORE JUMPDEST POP PUSH1 0x1F ADD PUSH1 0x1F NOT AND SWAP3 SWAP1 SWAP3 ADD PUSH1 0x20 ADD SWAP3 SWAP2 POP POP JUMP JUMPDEST SWAP2 DUP3 MSTORE PUSH1 0x1 PUSH1 0x1 PUSH1 0xE0 SHL SUB NOT AND PUSH1 0x20 DUP3 ADD MSTORE PUSH1 0x24 ADD SWAP1 JUMP JUMPDEST PUSH1 0x0 DUP3 DUP5 DUP4 CALLDATACOPY SWAP2 ADD SWAP1 DUP2 MSTORE SWAP2 SWAP1 POP JUMP JUMPDEST PUSH2 0x1901 PUSH1 0xF0 SHL DUP2 MSTORE PUSH1 0x2 DUP2 ADD SWAP3 SWAP1 SWAP3 MSTORE PUSH1 0x22 DUP3 ADD MSTORE PUSH1 0x42 ADD SWAP1 JUMP JUMPDEST PUSH1 0x1 PUSH1 0x1 PUSH1 0xA0 SHL SUB SWAP2 SWAP1 SWAP2 AND DUP2 MSTORE PUSH1 0x20 ADD SWAP1 JUMP JUMPDEST PUSH1 0x0 PUSH1 0x20 DUP3 MSTORE PUSH2 0x806 PUSH1 0x20 DUP4 ADD DUP5 PUSH2 0x3E2D JUMP JUMPDEST PUSH1 0x0 PUSH1 0x40 DUP3 MSTORE PUSH2 0x3F35 PUSH1 0x40 DUP4 ADD DUP6 PUSH2 0x3E2D JUMP JUMPDEST DUP3 DUP2 SUB PUSH1 0x20 DUP5 ADD MSTORE PUSH2 0x31C1 DUP2 DUP6 PUSH2 0x3E2D JUMP JUMPDEST SWAP1 ISZERO ISZERO DUP2 MSTORE PUSH1 0x20 ADD SWAP1 JUMP JUMPDEST SWAP3 ISZERO ISZERO DUP4 MSTORE PUSH1 0x20 DUP4 ADD SWAP2 SWAP1 SWAP2 MSTORE PUSH1 0x40 DUP3 ADD MSTORE PUSH1 0x60 ADD SWAP1 JUMP JUMPDEST SWAP1 DUP2 MSTORE PUSH1 0x20 ADD SWAP1 JUMP JUMPDEST SWAP3 DUP4 MSTORE PUSH1 0x1 PUSH1 0x1 PUSH1 0xA0 SHL SUB SWAP2 DUP3 AND PUSH1 0x20 DUP5 ADD MSTORE AND PUSH1 0x40 DUP3 ADD MSTORE PUSH1 0x60 ADD SWAP1 JUMP JUMPDEST PUSH1 0x0 DUP6 DUP3 MSTORE PUSH1 0x20 PUSH1 0x1 DUP1 PUSH1 0xA0 SHL SUB DUP1 DUP8 AND DUP3 DUP6 ADD MSTORE DUP1 DUP7 AND PUSH1 0x40 DUP6 ADD MSTORE PUSH1 0x80 PUSH1 0x60 DUP6 ADD MSTORE PUSH2 0x100 DUP5 ADD DUP6 MLOAD PUSH1 0x80 DUP1 DUP8 ADD MSTORE DUP2 DUP2 MLOAD DUP1 DUP5 MSTORE PUSH2 0x120 DUP9 ADD SWAP2 POP DUP6 DUP4 ADD SWAP4 POP DUP7 SWAP3 POP JUMPDEST DUP1 DUP4 LT ISZERO PUSH2 0x3FFB JUMPI DUP4 MLOAD DUP6 AND DUP3 MSTORE SWAP3 DUP6 ADD SWAP3 PUSH1 0x1 SWAP3 SWAP1 SWAP3 ADD SWAP2 SWAP1 DUP6 ADD SWAP1 PUSH2 0x3FD9 JUMP JUMPDEST POP DUP5 DUP9 ADD MLOAD SWAP5 POP PUSH1 0x7F NOT SWAP4 POP DUP4 DUP8 DUP3 SUB ADD PUSH1 0xA0 DUP9 ADD MSTORE PUSH2 0x401B DUP2 DUP7 PUSH2 0x3E2D JUMP JUMPDEST SWAP5 POP POP POP POP PUSH1 0x40 DUP6 ADD MLOAD DUP2 DUP6 DUP5 SUB ADD PUSH1 0xC0 DUP7 ADD MSTORE PUSH2 0x4039 DUP4 DUP3 PUSH2 0x3E6D JUMP JUMPDEST SWAP3 POP POP POP PUSH1 0x60 DUP5 ADD MLOAD PUSH2 0x361D PUSH1 0xE0 DUP6 ADD DUP3 PUSH2 0x3E67 JUMP JUMPDEST SWAP6 DUP7 MSTORE PUSH1 0x1 PUSH1 0x1 PUSH1 0xA0 SHL SUB SWAP5 DUP6 AND PUSH1 0x20 DUP8 ADD MSTORE SWAP3 SWAP1 SWAP4 AND PUSH1 0x40 DUP6 ADD MSTORE PUSH1 0x60 DUP5 ADD MSTORE PUSH1 0x80 DUP4 ADD SWAP2 SWAP1 SWAP2 MSTORE PUSH1 0xA0 DUP3 ADD MSTORE PUSH1 0xC0 ADD SWAP1 JUMP JUMPDEST SWAP5 DUP6 MSTORE PUSH1 0x20 DUP6 ADD SWAP4 SWAP1 SWAP4 MSTORE PUSH1 0x40 DUP5 ADD SWAP2 SWAP1 SWAP2 MSTORE PUSH1 0x60 DUP4 ADD MSTORE PUSH1 0x1 PUSH1 0x1 PUSH1 0xA0 SHL SUB AND PUSH1 0x80 DUP3 ADD MSTORE PUSH1 0xA0 ADD SWAP1 JUMP JUMPDEST PUSH1 0x0 DUP4 DUP3 MSTORE PUSH1 0x40 PUSH1 0x20 DUP4 ADD MSTORE PUSH2 0x26CC PUSH1 0x40 DUP4 ADD DUP5 PUSH2 0x3E6D JUMP JUMPDEST SWAP2 DUP3 MSTORE PUSH1 0x1 PUSH1 0x1 PUSH1 0xA0 SHL SUB AND PUSH1 0x20 DUP3 ADD MSTORE PUSH1 0x40 ADD SWAP1 JUMP JUMPDEST SWAP4 DUP5 MSTORE PUSH1 0xFF SWAP3 SWAP1 SWAP3 AND PUSH1 0x20 DUP5 ADD MSTORE PUSH1 0x40 DUP4 ADD MSTORE PUSH1 0x60 DUP3 ADD MSTORE PUSH1 0x80 ADD SWAP1 JUMP JUMPDEST PUSH1 0x0 PUSH1 0x20 DUP3 MSTORE PUSH2 0x806 PUSH1 0x20 DUP4 ADD DUP5 PUSH2 0x3E6D JUMP JUMPDEST PUSH1 0x0 DUP4 DUP3 MSTORE PUSH1 0x40 PUSH1 0x20 DUP4 ADD MSTORE PUSH2 0x26CC PUSH1 0x40 DUP4 ADD DUP5 PUSH2 0x3E2D JUMP JUMPDEST SWAP2 DUP3 MSTORE PUSH1 0x20 DUP3 ADD MSTORE PUSH1 0x40 ADD SWAP1 JUMP JUMPDEST PUSH1 0xFF SWAP2 SWAP1 SWAP2 AND DUP2 MSTORE PUSH1 0x20 ADD SWAP1 JUMP JUMPDEST PUSH1 0x40 MLOAD DUP2 DUP2 ADD PUSH8 0xFFFFFFFFFFFFFFFF DUP2 GT DUP3 DUP3 LT OR ISZERO PUSH2 0x4161 JUMPI INVALID JUMPDEST PUSH1 0x40 MSTORE SWAP2 SWAP1 POP JUMP JUMPDEST PUSH1 0x0 PUSH8 0xFFFFFFFFFFFFFFFF DUP3 GT ISZERO PUSH2 0x417D JUMPI INVALID JUMPDEST POP PUSH1 0x20 SWAP1 DUP2 MUL ADD SWAP1 JUMP JUMPDEST PUSH1 0x1 PUSH1 0x1 PUSH1 0xA0 SHL SUB DUP2 AND DUP2 EQ PUSH2 0x756 JUMPI PUSH1 0x0 DUP1 REVERT JUMPDEST DUP1 ISZERO ISZERO DUP2 EQ PUSH2 0x756 JUMPI PUSH1 0x0 DUP1 REVERT JUMPDEST PUSH1 0xFF DUP2 AND DUP2 EQ PUSH2 0x756 JUMPI PUSH1 0x0 DUP1 REVERT INVALID LOG2 PUSH5 0x6970667358 0x22 SLT KECCAK256 SHL 0xDB 0xB8 CALLCODE 0xB5 0xE3 PUSH12 0x41F3AD8E190786E5BB66193C 0xC8 PUSH30 0x478462C18C5334437738D064736F6C634300070600330000000000000000 "
		},
		"gasEstimates": {
			"creation": {
				"codeDepositCost": "3375800",
				"executionCost": "infinite",
				"totalCost": "infinite"
			},
			"external": {
				"DOMAIN_SEPARATOR()": "infinite",
				"allowance(address,address)": "infinite",
				"approve(address,uint256)": "22572",
				"balanceOf(address)": "1344",
				"decimals()": "1180",
				"decreaseAllowance(address,uint256)": "infinite",
				"getActionId(bytes4)": "infinite",
				"getAuthorizer()": "infinite",
				"getBptIndex()": "infinite",
				"getMainIndex()": "infinite",
				"getMainToken()": "infinite",
				"getOwner()": "infinite",
				"getPausedState()": "infinite",
				"getPoolId()": "infinite",
				"getRate()": "infinite",
				"getScalingFactors()": "infinite",
				"getSwapFeePercentage()": "1170",
				"getTargets()": "infinite",
				"getVault()": "infinite",
				"getVirtualSupply()": "infinite",
				"getWrappedIndex()": "infinite",
				"getWrappedToken()": "infinite",
				"getWrappedTokenRate()": "infinite",
				"increaseAllowance(address,uint256)": "23672",
				"initialize()": "infinite",
				"name()": "infinite",
				"nonces(address)": "1376",
				"onExitPool(bytes32,address,address,uint256[],uint256,uint256,bytes)": "infinite",
				"onJoinPool(bytes32,address,address,uint256[],uint256,uint256,bytes)": "infinite",
				"onSwap((uint8,address,address,uint256,bytes32,uint256,address,address,bytes),uint256[],uint256,uint256)": "infinite",
				"permit(address,address,uint256,uint256,uint8,bytes32,bytes32)": "infinite",
				"queryExit(bytes32,address,address,uint256[],uint256,uint256,bytes)": "infinite",
				"queryJoin(bytes32,address,address,uint256[],uint256,uint256,bytes)": "infinite",
				"setAssetManagerPoolConfig(address,bytes)": "infinite",
				"setPaused(bool)": "infinite",
				"setSwapFeePercentage(uint256)": "infinite",
				"setTargets(uint256,uint256)": "infinite",
				"symbol()": "infinite",
				"totalSupply()": "1074",
				"transfer(address,uint256)": "infinite",
				"transferFrom(address,address,uint256)": "infinite"
			},
			"internal": {
				"_getWrappedTokenRate()": "infinite"
			}
		},
		"methodIdentifiers": {
			"DOMAIN_SEPARATOR()": "3644e515",
			"allowance(address,address)": "dd62ed3e",
			"approve(address,uint256)": "095ea7b3",
			"balanceOf(address)": "70a08231",
			"decimals()": "313ce567",
			"decreaseAllowance(address,uint256)": "a457c2d7",
			"getActionId(bytes4)": "851c1bb3",
			"getAuthorizer()": "aaabadc5",
			"getBptIndex()": "82687a56",
			"getMainIndex()": "4d64cd74",
			"getMainToken()": "4de046d5",
			"getOwner()": "893d20e8",
			"getPausedState()": "1c0de051",
			"getPoolId()": "38fff2d0",
			"getRate()": "679aefce",
			"getScalingFactors()": "1dd746ea",
			"getSwapFeePercentage()": "55c67628",
			"getTargets()": "63fe3b56",
			"getVault()": "8d928af8",
			"getVirtualSupply()": "de82cd34",
			"getWrappedIndex()": "16b8d6ff",
			"getWrappedToken()": "f174e241",
			"getWrappedTokenRate()": "f5431aa8",
			"increaseAllowance(address,uint256)": "39509351",
			"initialize()": "8129fc1c",
			"name()": "06fdde03",
			"nonces(address)": "7ecebe00",
			"onExitPool(bytes32,address,address,uint256[],uint256,uint256,bytes)": "74f3b009",
			"onJoinPool(bytes32,address,address,uint256[],uint256,uint256,bytes)": "d5c096c4",
			"onSwap((uint8,address,address,uint256,bytes32,uint256,address,address,bytes),uint256[],uint256,uint256)": "01ec954a",
			"permit(address,address,uint256,uint256,uint8,bytes32,bytes32)": "d505accf",
			"queryExit(bytes32,address,address,uint256[],uint256,uint256,bytes)": "6028bfd4",
			"queryJoin(bytes32,address,address,uint256[],uint256,uint256,bytes)": "87ec6817",
			"setAssetManagerPoolConfig(address,bytes)": "50dd6ed9",
			"setPaused(bool)": "16c38b3c",
			"setSwapFeePercentage(uint256)": "38e9922e",
			"setTargets(uint256,uint256)": "9f11080e",
			"symbol()": "95d89b41",
			"totalSupply()": "18160ddd",
			"transfer(address,uint256)": "a9059cbb",
			"transferFrom(address,address,uint256)": "23b872dd"
		}
	},
	"abi": [
		{
			"inputs": [
				{
					"internalType": "contract IVault",
					"name": "vault",
					"type": "address"
				},
				{
					"internalType": "string",
					"name": "name",
					"type": "string"
				},
				{
					"internalType": "string",
					"name": "symbol",
					"type": "string"
				},
				{
					"internalType": "contract IERC20",
					"name": "mainToken",
					"type": "address"
				},
				{
					"internalType": "contract IERC20",
					"name": "wrappedToken",
					"type": "address"
				},
				{
					"internalType": "uint256",
					"name": "upperTarget",
					"type": "uint256"
				},
				{
					"internalType": "uint256",
					"name": "swapFeePercentage",
					"type": "uint256"
				},
				{
					"internalType": "uint256",
					"name": "pauseWindowDuration",
					"type": "uint256"
				},
				{
					"internalType": "uint256",
					"name": "bufferPeriodDuration",
					"type": "uint256"
				},
				{
					"internalType": "address",
					"name": "owner",
					"type": "address"
				}
			],
			"stateMutability": "nonpayable",
			"type": "constructor"
		},
		{
			"anonymous": false,
			"inputs": [
				{
					"indexed": true,
					"internalType": "address",
					"name": "owner",
					"type": "address"
				},
				{
					"indexed": true,
					"internalType": "address",
					"name": "spender",
					"type": "address"
				},
				{
					"indexed": false,
					"internalType": "uint256",
					"name": "value",
					"type": "uint256"
				}
			],
			"name": "Approval",
			"type": "event"
		},
		{
			"anonymous": false,
			"inputs": [
				{
					"indexed": false,
					"internalType": "bool",
					"name": "paused",
					"type": "bool"
				}
			],
			"name": "PausedStateChanged",
			"type": "event"
		},
		{
			"anonymous": false,
			"inputs": [
				{
					"indexed": false,
					"internalType": "uint256",
					"name": "swapFeePercentage",
					"type": "uint256"
				}
			],
			"name": "SwapFeePercentageChanged",
			"type": "event"
		},
		{
			"anonymous": false,
			"inputs": [
				{
					"indexed": true,
					"internalType": "contract IERC20",
					"name": "token",
					"type": "address"
				},
				{
					"indexed": false,
					"internalType": "uint256",
					"name": "lowerTarget",
					"type": "uint256"
				},
				{
					"indexed": false,
					"internalType": "uint256",
					"name": "upperTarget",
					"type": "uint256"
				}
			],
			"name": "TargetsSet",
			"type": "event"
		},
		{
			"anonymous": false,
			"inputs": [
				{
					"indexed": true,
					"internalType": "address",
					"name": "from",
					"type": "address"
				},
				{
					"indexed": true,
					"internalType": "address",
					"name": "to",
					"type": "address"
				},
				{
					"indexed": false,
					"internalType": "uint256",
					"name": "value",
					"type": "uint256"
				}
			],
			"name": "Transfer",
			"type": "event"
		},
		{
			"inputs": [],
			"name": "DOMAIN_SEPARATOR",
			"outputs": [
				{
					"internalType": "bytes32",
					"name": "",
					"type": "bytes32"
				}
			],
			"stateMutability": "view",
			"type": "function"
		},
		{
			"inputs": [
				{
					"internalType": "address",
					"name": "owner",
					"type": "address"
				},
				{
					"internalType": "address",
					"name": "spender",
					"type": "address"
				}
			],
			"name": "allowance",
			"outputs": [
				{
					"internalType": "uint256",
					"name": "",
					"type": "uint256"
				}
			],
			"stateMutability": "view",
			"type": "function"
		},
		{
			"inputs": [
				{
					"internalType": "address",
					"name": "spender",
					"type": "address"
				},
				{
					"internalType": "uint256",
					"name": "amount",
					"type": "uint256"
				}
			],
			"name": "approve",
			"outputs": [
				{
					"internalType": "bool",
					"name": "",
					"type": "bool"
				}
			],
			"stateMutability": "nonpayable",
			"type": "function"
		},
		{
			"inputs": [
				{
					"internalType": "address",
					"name": "account",
					"type": "address"
				}
			],
			"name": "balanceOf",
			"outputs": [
				{
					"internalType": "uint256",
					"name": "",
					"type": "uint256"
				}
			],
			"stateMutability": "view",
			"type": "function"
		},
		{
			"inputs": [],
			"name": "decimals",
			"outputs": [
				{
					"internalType": "uint8",
					"name": "",
					"type": "uint8"
				}
			],
			"stateMutability": "view",
			"type": "function"
		},
		{
			"inputs": [
				{
					"internalType": "address",
					"name": "spender",
					"type": "address"
				},
				{
					"internalType": "uint256",
					"name": "amount",
					"type": "uint256"
				}
			],
			"name": "decreaseAllowance",
			"outputs": [
				{
					"internalType": "bool",
					"name": "",
					"type": "bool"
				}
			],
			"stateMutability": "nonpayable",
			"type": "function"
		},
		{
			"inputs": [
				{
					"internalType": "bytes4",
					"name": "selector",
					"type": "bytes4"
				}
			],
			"name": "getActionId",
			"outputs": [
				{
					"internalType": "bytes32",
					"name": "",
					"type": "bytes32"
				}
			],
			"stateMutability": "view",
			"type": "function"
		},
		{
			"inputs": [],
			"name": "getAuthorizer",
			"outputs": [
				{
					"internalType": "contract IAuthorizer",
					"name": "",
					"type": "address"
				}
			],
			"stateMutability": "view",
			"type": "function"
		},
		{
			"inputs": [],
			"name": "getBptIndex",
			"outputs": [
				{
					"internalType": "uint256",
					"name": "",
					"type": "uint256"
				}
			],
			"stateMutability": "view",
			"type": "function"
		},
		{
			"inputs": [],
			"name": "getMainIndex",
			"outputs": [
				{
					"internalType": "uint256",
					"name": "",
					"type": "uint256"
				}
			],
			"stateMutability": "view",
			"type": "function"
		},
		{
			"inputs": [],
			"name": "getMainToken",
			"outputs": [
				{
					"internalType": "address",
					"name": "",
					"type": "address"
				}
			],
			"stateMutability": "view",
			"type": "function"
		},
		{
			"inputs": [],
			"name": "getOwner",
			"outputs": [
				{
					"internalType": "address",
					"name": "",
					"type": "address"
				}
			],
			"stateMutability": "view",
			"type": "function"
		},
		{
			"inputs": [],
			"name": "getPausedState",
			"outputs": [
				{
					"internalType": "bool",
					"name": "paused",
					"type": "bool"
				},
				{
					"internalType": "uint256",
					"name": "pauseWindowEndTime",
					"type": "uint256"
				},
				{
					"internalType": "uint256",
					"name": "bufferPeriodEndTime",
					"type": "uint256"
				}
			],
			"stateMutability": "view",
			"type": "function"
		},
		{
			"inputs": [],
			"name": "getPoolId",
			"outputs": [
				{
					"internalType": "bytes32",
					"name": "",
					"type": "bytes32"
				}
			],
			"stateMutability": "view",
			"type": "function"
		},
		{
			"inputs": [],
			"name": "getRate",
			"outputs": [
				{
					"internalType": "uint256",
					"name": "",
					"type": "uint256"
				}
			],
			"stateMutability": "view",
			"type": "function"
		},
		{
			"inputs": [],
			"name": "getScalingFactors",
			"outputs": [
				{
					"internalType": "uint256[]",
					"name": "",
					"type": "uint256[]"
				}
			],
			"stateMutability": "view",
			"type": "function"
		},
		{
			"inputs": [],
			"name": "getSwapFeePercentage",
			"outputs": [
				{
					"internalType": "uint256",
					"name": "",
					"type": "uint256"
				}
			],
			"stateMutability": "view",
			"type": "function"
		},
		{
			"inputs": [],
			"name": "getTargets",
			"outputs": [
				{
					"internalType": "uint256",
					"name": "lowerTarget",
					"type": "uint256"
				},
				{
					"internalType": "uint256",
					"name": "upperTarget",
					"type": "uint256"
				}
			],
			"stateMutability": "view",
			"type": "function"
		},
		{
			"inputs": [],
			"name": "getVault",
			"outputs": [
				{
					"internalType": "contract IVault",
					"name": "",
					"type": "address"
				}
			],
			"stateMutability": "view",
			"type": "function"
		},
		{
			"inputs": [],
			"name": "getVirtualSupply",
			"outputs": [
				{
					"internalType": "uint256",
					"name": "",
					"type": "uint256"
				}
			],
			"stateMutability": "view",
			"type": "function"
		},
		{
			"inputs": [],
			"name": "getWrappedIndex",
			"outputs": [
				{
					"internalType": "uint256",
					"name": "",
					"type": "uint256"
				}
			],
			"stateMutability": "view",
			"type": "function"
		},
		{
			"inputs": [],
			"name": "getWrappedToken",
			"outputs": [
				{
					"internalType": "address",
					"name": "",
					"type": "address"
				}
			],
			"stateMutability": "view",
			"type": "function"
		},
		{
			"inputs": [],
			"name": "getWrappedTokenRate",
			"outputs": [
				{
					"internalType": "uint256",
					"name": "",
					"type": "uint256"
				}
			],
			"stateMutability": "view",
			"type": "function"
		},
		{
			"inputs": [
				{
					"internalType": "address",
					"name": "spender",
					"type": "address"
				},
				{
					"internalType": "uint256",
					"name": "addedValue",
					"type": "uint256"
				}
			],
			"name": "increaseAllowance",
			"outputs": [
				{
					"internalType": "bool",
					"name": "",
					"type": "bool"
				}
			],
			"stateMutability": "nonpayable",
			"type": "function"
		},
		{
			"inputs": [],
			"name": "initialize",
			"outputs": [],
			"stateMutability": "nonpayable",
			"type": "function"
		},
		{
			"inputs": [],
			"name": "name",
			"outputs": [
				{
					"internalType": "string",
					"name": "",
					"type": "string"
				}
			],
			"stateMutability": "view",
			"type": "function"
		},
		{
			"inputs": [
				{
					"internalType": "address",
					"name": "owner",
					"type": "address"
				}
			],
			"name": "nonces",
			"outputs": [
				{
					"internalType": "uint256",
					"name": "",
					"type": "uint256"
				}
			],
			"stateMutability": "view",
			"type": "function"
		},
		{
			"inputs": [
				{
					"internalType": "bytes32",
					"name": "poolId",
					"type": "bytes32"
				},
				{
					"internalType": "address",
					"name": "sender",
					"type": "address"
				},
				{
					"internalType": "address",
					"name": "recipient",
					"type": "address"
				},
				{
					"internalType": "uint256[]",
					"name": "balances",
					"type": "uint256[]"
				},
				{
					"internalType": "uint256",
					"name": "lastChangeBlock",
					"type": "uint256"
				},
				{
					"internalType": "uint256",
					"name": "protocolSwapFeePercentage",
					"type": "uint256"
				},
				{
					"internalType": "bytes",
					"name": "userData",
					"type": "bytes"
				}
			],
			"name": "onExitPool",
			"outputs": [
				{
					"internalType": "uint256[]",
					"name": "",
					"type": "uint256[]"
				},
				{
					"internalType": "uint256[]",
					"name": "",
					"type": "uint256[]"
				}
			],
			"stateMutability": "nonpayable",
			"type": "function"
		},
		{
			"inputs": [
				{
					"internalType": "bytes32",
					"name": "poolId",
					"type": "bytes32"
				},
				{
					"internalType": "address",
					"name": "sender",
					"type": "address"
				},
				{
					"internalType": "address",
					"name": "recipient",
					"type": "address"
				},
				{
					"internalType": "uint256[]",
					"name": "balances",
					"type": "uint256[]"
				},
				{
					"internalType": "uint256",
					"name": "lastChangeBlock",
					"type": "uint256"
				},
				{
					"internalType": "uint256",
					"name": "protocolSwapFeePercentage",
					"type": "uint256"
				},
				{
					"internalType": "bytes",
					"name": "userData",
					"type": "bytes"
				}
			],
			"name": "onJoinPool",
			"outputs": [
				{
					"internalType": "uint256[]",
					"name": "",
					"type": "uint256[]"
				},
				{
					"internalType": "uint256[]",
					"name": "",
					"type": "uint256[]"
				}
			],
			"stateMutability": "nonpayable",
			"type": "function"
		},
		{
			"inputs": [
				{
					"components": [
						{
							"internalType": "enum IVault.SwapKind",
							"name": "kind",
							"type": "uint8"
						},
						{
							"internalType": "contract IERC20",
							"name": "tokenIn",
							"type": "address"
						},
						{
							"internalType": "contract IERC20",
							"name": "tokenOut",
							"type": "address"
						},
						{
							"internalType": "uint256",
							"name": "amount",
							"type": "uint256"
						},
						{
							"internalType": "bytes32",
							"name": "poolId",
							"type": "bytes32"
						},
						{
							"internalType": "uint256",
							"name": "lastChangeBlock",
							"type": "uint256"
						},
						{
							"internalType": "address",
							"name": "from",
							"type": "address"
						},
						{
							"internalType": "address",
							"name": "to",
							"type": "address"
						},
						{
							"internalType": "bytes",
							"name": "userData",
							"type": "bytes"
						}
					],
					"internalType": "struct IPoolSwapStructs.SwapRequest",
					"name": "request",
					"type": "tuple"
				},
				{
					"internalType": "uint256[]",
					"name": "balances",
					"type": "uint256[]"
				},
				{
					"internalType": "uint256",
					"name": "indexIn",
					"type": "uint256"
				},
				{
					"internalType": "uint256",
					"name": "indexOut",
					"type": "uint256"
				}
			],
			"name": "onSwap",
			"outputs": [
				{
					"internalType": "uint256",
					"name": "",
					"type": "uint256"
				}
			],
			"stateMutability": "view",
			"type": "function"
		},
		{
			"inputs": [
				{
					"internalType": "address",
					"name": "owner",
					"type": "address"
				},
				{
					"internalType": "address",
					"name": "spender",
					"type": "address"
				},
				{
					"internalType": "uint256",
					"name": "value",
					"type": "uint256"
				},
				{
					"internalType": "uint256",
					"name": "deadline",
					"type": "uint256"
				},
				{
					"internalType": "uint8",
					"name": "v",
					"type": "uint8"
				},
				{
					"internalType": "bytes32",
					"name": "r",
					"type": "bytes32"
				},
				{
					"internalType": "bytes32",
					"name": "s",
					"type": "bytes32"
				}
			],
			"name": "permit",
			"outputs": [],
			"stateMutability": "nonpayable",
			"type": "function"
		},
		{
			"inputs": [
				{
					"internalType": "bytes32",
					"name": "poolId",
					"type": "bytes32"
				},
				{
					"internalType": "address",
					"name": "sender",
					"type": "address"
				},
				{
					"internalType": "address",
					"name": "recipient",
					"type": "address"
				},
				{
					"internalType": "uint256[]",
					"name": "balances",
					"type": "uint256[]"
				},
				{
					"internalType": "uint256",
					"name": "lastChangeBlock",
					"type": "uint256"
				},
				{
					"internalType": "uint256",
					"name": "protocolSwapFeePercentage",
					"type": "uint256"
				},
				{
					"internalType": "bytes",
					"name": "userData",
					"type": "bytes"
				}
			],
			"name": "queryExit",
			"outputs": [
				{
					"internalType": "uint256",
					"name": "bptIn",
					"type": "uint256"
				},
				{
					"internalType": "uint256[]",
					"name": "amountsOut",
					"type": "uint256[]"
				}
			],
			"stateMutability": "nonpayable",
			"type": "function"
		},
		{
			"inputs": [
				{
					"internalType": "bytes32",
					"name": "poolId",
					"type": "bytes32"
				},
				{
					"internalType": "address",
					"name": "sender",
					"type": "address"
				},
				{
					"internalType": "address",
					"name": "recipient",
					"type": "address"
				},
				{
					"internalType": "uint256[]",
					"name": "balances",
					"type": "uint256[]"
				},
				{
					"internalType": "uint256",
					"name": "lastChangeBlock",
					"type": "uint256"
				},
				{
					"internalType": "uint256",
					"name": "protocolSwapFeePercentage",
					"type": "uint256"
				},
				{
					"internalType": "bytes",
					"name": "userData",
					"type": "bytes"
				}
			],
			"name": "queryJoin",
			"outputs": [
				{
					"internalType": "uint256",
					"name": "bptOut",
					"type": "uint256"
				},
				{
					"internalType": "uint256[]",
					"name": "amountsIn",
					"type": "uint256[]"
				}
			],
			"stateMutability": "nonpayable",
			"type": "function"
		},
		{
			"inputs": [
				{
					"internalType": "contract IERC20",
					"name": "token",
					"type": "address"
				},
				{
					"internalType": "bytes",
					"name": "poolConfig",
					"type": "bytes"
				}
			],
			"name": "setAssetManagerPoolConfig",
			"outputs": [],
			"stateMutability": "nonpayable",
			"type": "function"
		},
		{
			"inputs": [
				{
					"internalType": "bool",
					"name": "paused",
					"type": "bool"
				}
			],
			"name": "setPaused",
			"outputs": [],
			"stateMutability": "nonpayable",
			"type": "function"
		},
		{
			"inputs": [
				{
					"internalType": "uint256",
					"name": "swapFeePercentage",
					"type": "uint256"
				}
			],
			"name": "setSwapFeePercentage",
			"outputs": [],
			"stateMutability": "nonpayable",
			"type": "function"
		},
		{
			"inputs": [
				{
					"internalType": "uint256",
					"name": "newLowerTarget",
					"type": "uint256"
				},
				{
					"internalType": "uint256",
					"name": "newUpperTarget",
					"type": "uint256"
				}
			],
			"name": "setTargets",
			"outputs": [],
			"stateMutability": "nonpayable",
			"type": "function"
		},
		{
			"inputs": [],
			"name": "symbol",
			"outputs": [
				{
					"internalType": "string",
					"name": "",
					"type": "string"
				}
			],
			"stateMutability": "view",
			"type": "function"
		},
		{
			"inputs": [],
			"name": "totalSupply",
			"outputs": [
				{
					"internalType": "uint256",
					"name": "",
					"type": "uint256"
				}
			],
			"stateMutability": "view",
			"type": "function"
		},
		{
			"inputs": [
				{
					"internalType": "address",
					"name": "recipient",
					"type": "address"
				},
				{
					"internalType": "uint256",
					"name": "amount",
					"type": "uint256"
				}
			],
			"name": "transfer",
			"outputs": [
				{
					"internalType": "bool",
					"name": "",
					"type": "bool"
				}
			],
			"stateMutability": "nonpayable",
			"type": "function"
		},
		{
			"inputs": [
				{
					"internalType": "address",
					"name": "sender",
					"type": "address"
				},
				{
					"internalType": "address",
					"name": "recipient",
					"type": "address"
				},
				{
					"internalType": "uint256",
					"name": "amount",
					"type": "uint256"
				}
			],
			"name": "transferFrom",
			"outputs": [
				{
					"internalType": "bool",
					"name": "",
					"type": "bool"
				}
			],
			"stateMutability": "nonpayable",
			"type": "function"
		}
	]
}