{
	"data": {
		"bytecode": {
			"linkReferences": {},
			"object": "6101406040523480156200001257600080fd5b5060405162006813380380620068138339810160408190526200003591620001c3565b80604051806020016200004890620001b5565b601f1982820381018352601f909101166040528051819060006002820460a081905280830360e0819052818552909150836200009081620000f9602090811b6200026d17901c565b60601b6001600160601b0319166080528285018051838252620000bf82620000f9602090811b6200026d17901c565b6001600160601b0319606091821b811660c0529690935290529590951b90911661010052505050426276a700016101205250620001f39050565b80517f602038038060206000396000f3fefefefefefefefefefefefefefefefefefefe808352600091602081018484f09084529150620001476001600160a01b03831615156101ac6200014d565b50919050565b816200015e576200015e8162000162565b5050565b62461bcd60e51b6000908152602060045260076024526642414c23000030600a808404818106603090810160081b95839006959095019082900491820690940160101b939093010160c81b604452606490fd5b615c608062000bb383390190565b600060208284031215620001d5578081fd5b81516001600160a01b0381168114620001ec578182fd5b9392505050565b60805160601c60a05160c05160601c60e0516101005160601c6101205161095e62000255600039806101c352806101ec52508061024b5250806102c752508061013a52806103435250806102e8525080610119528061031f525061095e6000f3fe608060405234801561001057600080fd5b50600436106100615760003560e01c8062c194db14610066578063174481fa14610084578063236797191461009a5780632da47c40146100ba5780636634b753146100d05780638d928af8146100f0575b600080fd5b61006e6100f8565b60405161007b91906107e4565b60405180910390f35b61008c610117565b60405161007b9291906107bf565b6100ad6100a8366004610640565b61015d565b60405161007b91906107ab565b6100c26101bd565b60405161007b9291906108c0565b6100e36100de366004610624565b610227565b60405161007b91906107d9565b6100ad610249565b6060610112604051806020016040528060008152506102bf565b905090565b7f00000000000000000000000000000000000000000000000000000000000000007f00000000000000000000000000000000000000000000000000000000000000009091565b600080600061016a6101bd565b915091506101af610179610249565b8b8b8b8b8b88888d8d60405160200161019b9a999897969594939291906107f7565b604051602081830303815290604052610398565b9a9950505050505050505050565b600080427f000000000000000000000000000000000000000000000000000000000000000081101561021957807f000000000000000000000000000000000000000000000000000000000000000003925062278d009150610222565b60009250600091505b509091565b6001600160a01b03811660009081526020819052604090205460ff165b919050565b7f000000000000000000000000000000000000000000000000000000000000000090565b80517f602038038060206000396000f3fefefefefefefefefefefefefefefefefefefe808352600091602081018484f090845291506102b96001600160a01b03831615156101ac6103f8565b50919050565b8051604080517f00000000000000000000000000000000000000000000000000000000000000007f0000000000000000000000000000000000000000000000000000000000000000818101858101848101602090810190965280855293957f00000000000000000000000000000000000000000000000000000000000000009592947f000000000000000000000000000000000000000000000000000000000000000094938801866000828a3c846000888301883c506020898101908985010161038a81838661040a565b505050505050505050919050565b6000806103a483610448565b6001600160a01b038116600081815260208190526040808220805460ff191660011790555192935090917f83a48fbcfc991335314e74d0496aab6a1987e992ddc85dddbcc4d6dd6ef2e9fc9190a292915050565b816104065761040681610482565b5050565b5b6020811061042a578151835260209283019290910190601f190161040b565b905182516020929092036101000a6000190180199091169116179052565b600080610454836102bf565b905060008151602083016000f090506001600160a01b03811661047b573d6000803e3d6000fd5b9392505050565b62461bcd60e51b6000908152602060045260076024526642414c23000030600a808404818106603090810160081b95839006959095019082900491820690940160101b939093010160c81b604452606490fd5b803561024481610910565b600082601f8301126104f0578081fd5b81356020610505610500836108f2565b6108ce565b8281528181019085830183850287018401881015610521578586fd5b855b8581101561054857813561053681610910565b84529284019290840190600101610523565b5090979650505050505050565b600082601f830112610565578081fd5b81356020610575610500836108f2565b8281528181019085830183850287018401881015610591578586fd5b855b8581101561054857813584529284019290840190600101610593565b8035801515811461024457600080fd5b600082601f8301126105cf578081fd5b813567ffffffffffffffff8111156105e357fe5b6105f6601f8201601f19166020016108ce565b81815284602083860101111561060a578283fd5b816020850160208301379081016020019190915292915050565b600060208284031215610635578081fd5b813561047b81610910565b600080600080600080600060e0888a03121561065a578283fd5b873567ffffffffffffffff80821115610671578485fd5b61067d8b838c016105bf565b985060208a0135915080821115610692578485fd5b61069e8b838c016105bf565b975060408a01359150808211156106b3578485fd5b6106bf8b838c016104e0565b965060608a01359150808211156106d4578485fd5b506106e18a828b01610555565b945050608088013592506106f760a089016104d5565b915061070560c089016105af565b905092959891949750929550565b6001600160a01b03169052565b6000815180845260208085019450808401835b8381101561074f57815187529582019590820190600101610733565b509495945050505050565b15159052565b60008151808452815b8181101561078557602081850181015186830182015201610769565b818111156107965782602083870101525b50601f01601f19169290920160200192915050565b6001600160a01b0391909116815260200190565b6001600160a01b0392831681529116602082015260400190565b901515815260200190565b60006020825261047b6020830184610760565b6001600160a01b038b8116825261014060208084018290526000929061081f8584018f610760565b92508483036040860152610833838e610760565b85810360608701528c51808252828e01945090820190855b8181101561086957855185168352948301949183019160010161084b565b5050858103608087015261087d818d610720565b9450505050508660a08301528560c08301528460e08301526108a3610100830185610713565b6108b161012083018461075a565b9b9a5050505050505050505050565b918252602082015260400190565b60405181810167ffffffffffffffff811182821017156108ea57fe5b604052919050565b600067ffffffffffffffff82111561090657fe5b5060209081020190565b6001600160a01b038116811461092557600080fd5b5056fea2646970667358221220c7f0680623264aac4c3bc481af671c53709e1ec3eda52e4ffb0885b6f26ed3bc64736f6c634300070600336102e06040527f6e71edae12b1b97f4d1f60370fef10105fa2faae0126114a169c64845d6126c9610120523480156200003757600080fd5b5060405162005c6038038062005c608339810160408190526200005a9162000d51565b898989898a516001600160401b03811180156200007657600080fd5b50604051908082528060200260200182016040528015620000a1578160200160208202803683370190505b5089898989888651600214620000b9576001620000bc565b60025b8989898989898989828289898180604051806040016040528060018152602001603160f81b815250848489336001600160a01b031660001b806080818152505050806001600160a01b031660a0816001600160a01b031660601b815250505081600390805190602001906200013392919062000b05565b5080516200014990600490602084019062000b05565b50506005805460ff1916601217905550815160209283012060c052805191012060e05250507f8b73c3c69bb8fe3d512ecc4cf759cc79239f7b179b0ffacaa9a75d522b39400f6101005250620001a86276a70083111561019462000511565b620001bc62278d0082111561019562000511565b4290910161014081905201610160528551620001de906002111560c862000511565b620001f8620001ec62000526565b8751111560c962000511565b6200020e866200052b60201b62000f6b1760201c565b620002198462000537565b6040516309b2760f60e01b81526000906001600160a01b038c16906309b2760f906200024a908d9060040162000f61565b602060405180830381600087803b1580156200026557600080fd5b505af11580156200027a573d6000803e3d6000fd5b505050506040513d601f19601f82011682018060405250810190620002a0919062000d38565b604051633354e3e960e11b81529091506001600160a01b038c16906366a9c7d290620002d59084908b908b9060040162000ec7565b600060405180830381600087803b158015620002f057600080fd5b505af115801562000305573d6000803e3d6000fd5b505050508a6001600160a01b0316610180816001600160a01b031660601b81525050806101a0818152505050505050505050505050505050505050505050506001600a819055506000875190506200036a818851620005c360201b62000f751760201c565b6101c0819052875188906000906200037e57fe5b60200260200101516001600160a01b03166101e0816001600160a01b031660601b8152505087600181518110620003b157fe5b60200260200101516001600160a01b0316610200816001600160a01b031660601b8152505060028111620003e7576000620003fe565b87600281518110620003f557fe5b60200260200101515b60601b6001600160601b03191661022052600381116200042057600062000437565b876003815181106200042e57fe5b60200260200101515b6001600160a01b0316610240816001600160a01b031660601b815250506200047a886000815181106200046657fe5b6020026020010151620005d260201b60201c565b6102605287516200049390899060019081106200046657fe5b6102805260028111620004a8576000620004ba565b620004ba886002815181106200046657fe5b6102a05260038111620004cf576000620004e1565b620004e1886003815181106200046657fe5b6102c05242620004f481808a8062000683565b620004ff8362000811565b50505050505050505050505062001017565b816200052257620005228162000865565b5050565b600490565b806200052281620008b8565b6200054c64e8d4a5100082101560cb62000511565b6200056467016345785d8a000082111560ca62000511565b620005838160c06008546200094560201b62000f82179092919060201c565b6008556040517fa9ba3ffe0b6c366b81232caab38605a0699ad5398d6cce76f91ee809e322dafc90620005b890839062000f76565b60405180910390a150565b62000522828214606762000511565b600080826001600160a01b031663313ce5676040518163ffffffff1660e01b815260040160206040518083038186803b1580156200060f57600080fd5b505afa15801562000624573d6000803e3d6000fd5b505050506040513d601f19601f820116820180604052508101906200064a919062000e5d565b60ff1690506000620006696012836200095a60201b62000f971760201c565b905080600a0a670de0b6b3a764000002925050505b919050565b600b546000805b835181101562000774576000848281518110620006a357fe5b60200260200101519050620006cb662386f26fc1000082101561012e6200051160201b60201c565b6200074c620006e5826200097760201b62000fad1760201c565b83601002608001620007376200071a8a87815181106200070157fe5b6020026020010151620009b860201b62000fcd1760201c565b86601f0260040189620009e560201b62000fe9179092919060201c565b620009f760201b62000ffb179092919060201c565b935062000768818462000a0760201b6200100b1790919060201c565b9250506001016200068a565b506200078d670de0b6b3a7640000821461013462000511565b620007c68560e0620007b18960c08762000a2260201b6200101d179092919060201c565b62000a2260201b6200101d179092919060201c565b600b556040517f0f3631f9dab08169d1db21c6dc5f32536fb2b0a6b9bb5330d71c52132f968be0906200080190889088908890889062000f7f565b60405180910390a1505050505050565b62000830816000600b5462000a3460201b6200102f179092919060201c565b600b556040517f5a9e84f78f7957cb4ed7478eb0fcad35ee4ecbe2e0f298420b28a3955392573f90620005b890839062000ebc565b62461bcd60e51b6000908152602060045260076024526642414c23000030600a808404818106603090810160081b95839006959095019082900491820690940160101b939093010160c81b604452606490fd5b600281511015620008c95762000942565b600081600081518110620008d957fe5b602002602001015190506000600190505b82518110156200093f5760008382815181106200090357fe5b6020026020010151905062000934816001600160a01b0316846001600160a01b03161060656200051160201b60201c565b9150600101620008ea565b50505b50565b6001600160401b03811b1992909216911b1790565b60006200096c83831115600162000511565b508082035b92915050565b600062000971670de0b6b3a7640000620009a461ffff80168562000a5d60201b620010561790919060201c565b62000ab260201b620010a41790919060201c565b600062000971670de0b6b3a7640000620009a4637fffffff8562000a5d60201b620010561790919060201c565b637fffffff811b1992909216911b1790565b61ffff811b1992909216911b1790565b600082820162000a1b848210158362000511565b9392505050565b63ffffffff811b1992909216911b1790565b60006001821b198416828462000a4c57600062000a4f565b60015b60ff16901b17949350505050565b600082820262000a8584158062000a7d57508385838162000a7a57fe5b04145b600362000511565b8062000a9657600091505062000971565b670de0b6b3a764000060001982015b0460010191505062000971565b600062000ac3821515600462000511565b8262000ad25750600062000971565b670de0b6b3a76400008381029062000af89085838162000aee57fe5b0414600562000511565b82600182038162000aa557fe5b828054600181600116156101000203166002900490600052602060002090601f01602090048101928262000b3d576000855562000b88565b82601f1062000b5857805160ff191683800117855562000b88565b8280016001018555821562000b88579182015b8281111562000b8857825182559160200191906001019062000b6b565b5062000b9692915062000b9a565b5090565b5b8082111562000b96576000815560010162000b9b565b80516200067e8162001001565b600082601f83011262000bcf578081fd5b8151602062000be862000be28362000fe3565b62000fbf565b828152818101908583018385028701840188101562000c05578586fd5b855b8581101562000c3057815162000c1d8162001001565b8452928401929084019060010162000c07565b5090979650505050505050565b600082601f83011262000c4e578081fd5b8151602062000c6162000be28362000fe3565b828152818101908583018385028701840188101562000c7e578586fd5b855b8581101562000c305781518452928401929084019060010162000c80565b805180151581146200067e57600080fd5b600082601f83011262000cc0578081fd5b81516001600160401b0381111562000cd457fe5b602062000cea601f8301601f1916820162000fbf565b828152858284870101111562000cfe578384fd5b835b8381101562000d1d57858101830151828201840152820162000d00565b8381111562000d2e57848385840101525b5095945050505050565b60006020828403121562000d4a578081fd5b5051919050565b6000806000806000806000806000806101408b8d03121562000d71578586fd5b62000d7c8b62000bb1565b60208c0151909a506001600160401b038082111562000d99578788fd5b62000da78e838f0162000caf565b9a5060408d015191508082111562000dbd578788fd5b62000dcb8e838f0162000caf565b995060608d015191508082111562000de1578788fd5b62000def8e838f0162000bbe565b985060808d015191508082111562000e05578788fd5b5062000e148d828e0162000c3d565b96505060a08b0151945060c08b0151935060e08b0151925062000e3b6101008c0162000bb1565b915062000e4c6101208c0162000c9e565b90509295989b9194979a5092959850565b60006020828403121562000e6f578081fd5b815160ff8116811462000a1b578182fd5b6000815180845260208085019450808401835b8381101562000eb15781518752958201959082019060010162000e93565b509495945050505050565b901515815260200190565b60006060820185835260206060818501528186518084526080860191508288019350845b8181101562000f125784516001600160a01b03168352938301939183019160010162000eeb565b505084810360408601528551808252908201925081860190845b8181101562000f535782516001600160a01b03168552938301939183019160010162000f2c565b509298975050505050505050565b602081016003831062000f7057fe5b91905290565b90815260200190565b60008582528460208301526080604083015262000fa0608083018562000e80565b828103606084015262000fb4818562000e80565b979650505050505050565b6040518181016001600160401b038111828210171562000fdb57fe5b604052919050565b60006001600160401b0382111562000ff757fe5b5060209081020190565b6001600160a01b03811681146200094257600080fd5b60805160a05160601c60c05160e051610100516101205161014051610160516101805160601c6101a0516101c0516101e05160601c6102005160601c6102205160601c6102405160601c61026051610280516102a0516102c051614b436200111d6000398061139a5280611ed95250806113575280611e785250806113145280611e175250806112c35280611db6525080611e9e5280612d94525080611e3d5280612d52525080611ddc5280612d10525080611d7b5280612cce5250806115fe52508061067a525080610a18525080611246525080611222525080610cd65250806114ca52508061150c5250806114eb5250806109f452508061097e5250614b436000f3fe608060405234801561001057600080fd5b50600436106102325760003560e01c806374f3b009116101305780639d2c110c116100b8578063d505accf1161007c578063d505accf14610482578063d5c096c414610495578063dd62ed3e146104a8578063e01af92c146104bb578063f89f27ed146104ce57610232565b80639d2c110c14610439578063a457c2d71461044c578063a9059cbb1461045f578063aaabadc514610472578063c0ff1a151461047a57610232565b806387ec6817116100ff57806387ec6817146103f9578063893d20e81461040c5780638d928af81461042157806395d89b41146104295780639b02cdde1461043157610232565b806374f3b0091461039b5780637beed220146103bc5780637ecebe00146103d3578063851c1bb3146103e657610232565b806338e9922e116101be57806350dd6ed91161018257806350dd6ed91461034457806355c67628146103575780636028bfd41461035f578063679aefce1461038057806370a082311461038857610232565b806338e9922e146102fb57806338fff2d01461030e57806339509351146103165780633e5692051461032957806347bc4d921461033c57610232565b80631c0de051116102055780631c0de0511461029f5780631dd746ea146102b657806323b872dd146102cb578063313ce567146102de5780633644e515146102f357610232565b806306fdde0314610237578063095ea7b31461025557806316c38b3c1461027557806318160ddd1461028a575b600080fd5b61023f6104d6565b60405161024c9190614a13565b60405180910390f35b610268610263366004614301565b61056d565b60405161024c919061491a565b6102886102833660046143f7565b610584565b005b610292610598565b60405161024c919061493d565b6102a761059e565b60405161024c93929190614925565b6102be6105c7565b60405161024c91906148e2565b6102686102d936600461424c565b6105d6565b6102e661064c565b60405161024c9190614a8f565b610292610655565b610288610309366004614761565b61065f565b610292610678565b610268610324366004614301565b61069c565b610288610337366004614779565b6106d7565b61026861073e565b610288610352366004614515565b61074e565b61029261076c565b61037261036d36600461442f565b61077d565b60405161024c929190614a26565b6102926107b4565b6102926103963660046141f8565b6107df565b6103ae6103a936600461442f565b6107fe565b60405161024c9291906148f5565b6103c46108a1565b60405161024c93929190614a3f565b6102926103e13660046141f8565b61095f565b6102926103f43660046144d1565b61097a565b61037261040736600461442f565b6109cc565b6104146109f2565b60405161024c91906148ce565b610414610a16565b61023f610a3a565b610292610a9b565b61029261044736600461466b565b610aa1565b61026861045a366004614301565b610b88565b61026861046d366004614301565b610bc6565b610414610bd3565b610292610bdd565b61028861049036600461428c565b610ca1565b6103ae6104a336600461442f565b610dea565b6102926104b6366004614214565b610f0d565b6102886104c93660046143f7565b610f38565b6102be610f61565b60038054604080516020601f60026000196101006001881615020190951694909404938401819004810282018101909252828152606093909290918301828280156105625780601f1061053757610100808354040283529160200191610562565b820191906000526020600020905b81548152906001019060200180831161054557829003601f168201915b505050505090505b90565b600061057a3384846110ef565b5060015b92915050565b61058c611157565b61059581611185565b50565b60025490565b60008060006105ab611203565b1592506105b6611220565b91506105c0611244565b9050909192565b60606105d1611268565b905090565b6000806105e38533610f0d565b9050610607336001600160a01b03871614806105ff5750838210155b61019e6113d8565b6106128585856113e6565b336001600160a01b0386161480159061062d57506000198114155b1561063f5761063f85338584036110ef565b60019150505b9392505050565b60055460ff1690565b60006105d16114c6565b610667611157565b61066f611563565b61059581611578565b7f000000000000000000000000000000000000000000000000000000000000000090565b3360008181526001602090815260408083206001600160a01b0387168452909152812054909161057a9185906106d2908661100b565b6110ef565b6106df611157565b6106e7611563565b6106ef6115e3565b6107016106fa6115fc565b8251610f75565b4261070c8185611620565b935061071d838511156101466113d8565b610730848461072a611637565b8561174a565b5061073961185f565b505050565b600b546000906105d19082611866565b610756611157565b61075e611563565b6107688282611870565b5050565b6008546000906105d19060c061196f565b60006060610793865161078e6115fc565b610f75565b6107a88989898989898961197c611a4a611aab565b97509795505050505050565b60006105d16107c1610598565b6107d96107cc610bdd565b6107d46115fc565b611bcd565b90611be7565b6001600160a01b0381166000908152602081905260409020545b919050565b6060808861082861080d610a16565b6001600160a01b0316336001600160a01b03161460cd6113d8565b61083d610833610678565b82146101f46113d8565b6000610847611268565b90506108538882611c2f565b60008060006108688e8e8e8e8e8e8a8f61197c565b9250925092506108788d84611c90565b6108828285611a4a565b61088c8185611a4a565b909550935050505b5097509795505050505050565b600b5460009081906060906108b78160c0611c9a565b93506108c48160e0611c9a565b925060006108d06115fc565b9050806001600160401b03811180156108e857600080fd5b50604051908082528060200260200182016040528015610912578160200160208202803683370190505b50925060005b81811015610957576109386109338460806010850201611ca4565b611cac565b84828151811061094457fe5b6020908102919091010152600101610918565b505050909192565b6001600160a01b031660009081526006602052604090205490565b60007f0000000000000000000000000000000000000000000000000000000000000000826040516020016109af92919061488b565b604051602081830303815290604052805190602001209050919050565b600060606109dd865161078e6115fc565b6107a889898989898989611cc6611d16611aab565b7f000000000000000000000000000000000000000000000000000000000000000090565b7f000000000000000000000000000000000000000000000000000000000000000090565b60048054604080516020601f60026000196101006001881615020190951694909404938401819004810282018101909252828152606093909290918301828280156105625780601f1061053757610100808354040283529160200191610562565b60095490565b600080610ab18560200151611d77565b90506000610ac28660400151611d77565b9050600086516001811115610ad357fe5b1415610b3957610ae68660600151611f08565b6060870152610af58583611f29565b9450610b018482611f29565b9350610b11866060015183611f29565b60608701526000610b23878787611f35565b9050610b2f8183611f5d565b9350505050610645565b610b438583611f29565b9450610b4f8482611f29565b9350610b5f866060015182611f29565b60608701526000610b71878787611f69565b9050610b7d8184611f81565b9050610b2f81611f8d565b600080610b953385610f0d565b9050808310610baf57610baa338560006110ef565b610bbc565b610bbc33858584036110ef565b5060019392505050565b600061057a3384846113e6565b60006105d1611fb3565b600080610be8610a16565b6001600160a01b031663f94d4668610bfe610678565b6040518263ffffffff1660e01b8152600401610c1a919061493d565b60006040518083038186803b158015610c3257600080fd5b505afa158015610c46573d6000803e3d6000fd5b505050506040513d6000823e601f3d908101601f19168201604052610c6e919081019061432c565b50915050610c8381610c7e611268565b611c2f565b6000610c8d61202d565b509050610c9a81836120ab565b9250505090565b610caf8442111560d16113d8565b6001600160a01b0387166000908152600660209081526040808320549051909291610d06917f0000000000000000000000000000000000000000000000000000000000000000918c918c918c9188918d9101614965565b6040516020818303038152906040528051906020012090506000610d298261211d565b9050600060018288888860405160008152602001604052604051610d5094939291906149f5565b6020604051602081039080840390855afa158015610d72573d6000803e3d6000fd5b5050604051601f1901519150610db490506001600160a01b03821615801590610dac57508b6001600160a01b0316826001600160a01b0316145b6101f86113d8565b6001600160a01b038b166000908152600660205260409020600185019055610ddd8b8b8b6110ef565b5050505050505050505050565b60608088610df961080d610a16565b610e04610833610678565b6000610e0e611268565b9050610e18610598565b610ebd57600080610e2c8d8d8d868b612139565b91509150610e41620f424083101560cc6113d8565b610e4f6000620f424061217f565b610e5e8b620f4240840361217f565b610e688184611d16565b80610e716115fc565b6001600160401b0381118015610e8657600080fd5b50604051908082528060200260200182016040528015610eb0578160200160208202803683370190505b5095509550505050610894565b610ec78882611c2f565b6000806000610edc8e8e8e8e8e8e8a8f611cc6565b925092509250610eec8c8461217f565b610ef68285611d16565b610f008185611a4a565b9095509350610894915050565b6001600160a01b03918216600090815260016020908152604080832093909416825291909152205490565b610f40611157565b610f48611563565b610f506115e3565b610f5981612189565b61059561185f565b60606105d1611637565b80610768816121cb565b61076881831460676113d8565b6001600160401b03811b1992909216911b1790565b6000610fa78383111560016113d8565b50900390565b600061057e670de0b6b3a7640000610fc78461ffff611056565b906110a4565b600061057e670de0b6b3a7640000610fc784637fffffff611056565b637fffffff811b1992909216911b1790565b61ffff811b1992909216911b1790565b600082820161064584821015836113d8565b63ffffffff811b1992909216911b1790565b60006001821b1984168284611045576000611048565b60015b60ff16901b17949350505050565b600082820261107a84158061107357508385838161107057fe5b04145b60036113d8565b8061108957600091505061057e565b670de0b6b3a764000060001982015b0460010191505061057e565b60006110b382151560046113d8565b826110c05750600061057e565b670de0b6b3a7640000838102906110e3908583816110da57fe5b041460056113d8565b82600182038161109857fe5b6001600160a01b0380841660008181526001602090815260408083209487168084529490915290819020849055517f8c5be1e5ebec7d5bd14f71427d1e84f3dd0314c0f7b2291e5b200ac8c7c3b9259061114a90859061493d565b60405180910390a3505050565b600061116e6000356001600160e01b03191661097a565b905061059561117d8233612244565b6101916113d8565b80156111a5576111a0611196611220565b42106101936113d8565b6111ba565b6111ba6111b0611244565b42106101a96113d8565b6007805460ff19168215151790556040517f9e3a5e37224532dea67b89face185703738a228a6e8a23dee546960180d3be64906111f890839061491a565b60405180910390a150565b600061120d611244565b4211806105d157505060075460ff161590565b7f000000000000000000000000000000000000000000000000000000000000000090565b7f000000000000000000000000000000000000000000000000000000000000000090565b606060006112746115fc565b90506000816001600160401b038111801561128e57600080fd5b506040519080825280602002602001820160405280156112b8578160200160208202803683370190505b5090508115611300577f0000000000000000000000000000000000000000000000000000000000000000816000815181106112ef57fe5b602002602001018181525050611309565b915061056a9050565b6001821115611300577f00000000000000000000000000000000000000000000000000000000000000008160018151811061134057fe5b6020026020010181815250506002821115611300577f00000000000000000000000000000000000000000000000000000000000000008160028151811061138357fe5b6020026020010181815250506003821115611300577f0000000000000000000000000000000000000000000000000000000000000000816003815181106113c657fe5b60200260200101818152505091505090565b816107685761076881612334565b6113fd6001600160a01b03841615156101986113d8565b6114146001600160a01b03831615156101996113d8565b61141f838383610739565b6001600160a01b03831660009081526020819052604090205461144590826101a0612387565b6001600160a01b038085166000908152602081905260408082209390935590841681522054611474908261100b565b6001600160a01b0380841660008181526020819052604090819020939093559151908516907fddf252ad1be2c89b69c2b068fc378daa952ba7f163c4a11628f55a4df523b3ef9061114a90859061493d565b60007f00000000000000000000000000000000000000000000000000000000000000007f00000000000000000000000000000000000000000000000000000000000000007f000000000000000000000000000000000000000000000000000000000000000061153361239d565b30604051602001611548959493929190614999565b60405160208183030381529060405280519060200120905090565b61157661156e611203565b6101926113d8565b565b61158b64e8d4a5100082101560cb6113d8565b6115a167016345785d8a000082111560ca6113d8565b6008546115b0908260c0610f82565b6008556040517fa9ba3ffe0b6c366b81232caab38605a0699ad5398d6cce76f91ee809e322dafc906111f890839061493d565b6115f56002600a5414156101906113d8565b6002600a55565b7f000000000000000000000000000000000000000000000000000000000000000090565b6000818310156116305781610645565b5090919050565b606060006116436115fc565b90506000816001600160401b038111801561165d57600080fd5b50604051908082528060200260200182016040528015611687578160200160208202803683370190505b50600b549091506116996000826123a1565b826000815181106116a657fe5b6020026020010181815250506116bd6001826123a1565b826001815181106116ca57fe5b60200260200101818152505082600214156116e95750915061056a9050565b6116f46002826123a1565b8260028151811061170157fe5b60200260200101818152505082600314156117205750915061056a9050565b61172b6003826123a1565b8260038151811061173857fe5b60209081029190910101525091505090565b600b546000805b83518110156117e657600084828151811061176857fe5b60200260200101519050611788662386f26fc1000082101561012e6113d8565b6117cf61179482610fad565b836010026080016117c86117ba8a87815181106117ad57fe5b6020026020010151610fcd565b88906004601f890201610fe9565b9190610ffb565b93506117db838261100b565b925050600101611751565b506117fd670de0b6b3a764000082146101346113d8565b6118168560e061180f858a60c061101d565b919061101d565b600b556040517f0f3631f9dab08169d1db21c6dc5f32536fb2b0a6b9bb5330d71c52132f968be09061184f908890889088908890614a5e565b60405180910390a1505050505050565b6001600a55565b1c60019081161490565b600061187a610678565b90506000611886610a16565b6001600160a01b031663b05f8e4883866040518363ffffffff1660e01b81526004016118b39291906149de565b60806040518083038186803b1580156118cb57600080fd5b505afa1580156118df573d6000803e3d6000fd5b505050506040513d601f19601f8201168201806040525081019061190391906147c6565b604051630639cdb560e21b81529094506001600160a01b03851693506318e736d492506119379150859087906004016149c5565b600060405180830381600087803b15801561195157600080fd5b505af1158015611965573d6000803e3d6000fd5b5050505050505050565b1c6001600160401b031690565b600060608060008061198c61202d565b91509150611998611203565b156119d05760006119a9838c6120ab565b90506119bb8b8484600954858e6123f7565b93506119ca8b85610f976124a6565b50611a1b565b6119d86115fc565b6001600160401b03811180156119ed57600080fd5b50604051908082528060200260200182016040528015611a17578160200160208202803683370190505b5092505b611a278a838989612511565b9095509350611a378a8584612580565b6009555050985098509895505050505050565b60005b611a556115fc565b81101561073957611a8c838281518110611a6b57fe5b6020026020010151838381518110611a7f57fe5b6020026020010151611be7565b838281518110611a9857fe5b6020908102919091010152600101611a4d565b333014611b69576000306001600160a01b0316600036604051611acf9291906148a3565b6000604051808303816000865af19150503d8060008114611b0c576040519150601f19603f3d011682016040523d82523d6000602084013e611b11565b606091505b505090508060008114611b2057fe5b60046000803e6000516001600160e01b0319166343adbafb60e01b8114611b4b573d6000803e3d6000fd5b506020600460003e604060205260243d03602460403e601c3d016000f35b6000611b73611268565b9050611b7f8782611c2f565b600080611b968c8c8c8c8c8c898d8d63ffffffff16565b5091509150611ba981848663ffffffff16565b8051601f1982018390526343adbafb603f1983015260200260231982016044820181fd5b600082820261064584158061107357508385838161107057fe5b6000611bf682151560046113d8565b82611c035750600061057e565b670de0b6b3a764000083810290611c1d908583816110da57fe5b828181611c2657fe5b0491505061057e565b60005b611c3a6115fc565b81101561073957611c71838281518110611c5057fe5b6020026020010151838381518110611c6457fe5b6020026020010151612599565b838281518110611c7d57fe5b6020908102919091010152600101611c32565b61076882826125c5565b1c63ffffffff1690565b1c61ffff1690565b600061057e61ffff610fc784670de0b6b3a7640000611056565b6000606080611cf2611cd66109f2565b6001600160a01b03168b6001600160a01b0316146101486113d8565b611d028b8b8b8b8b8b8b8b612681565b925092509250985098509895505050505050565b60005b611d216115fc565b81101561073957611d58838281518110611d3757fe5b6020026020010151838381518110611d4b57fe5b60200260200101516110a4565b838281518110611d6457fe5b6020908102919091010152600101611d19565b60007f00000000000000000000000000000000000000000000000000000000000000006001600160a01b0316826001600160a01b03161415611dda57507f00000000000000000000000000000000000000000000000000000000000000006107f9565b7f00000000000000000000000000000000000000000000000000000000000000006001600160a01b0316826001600160a01b03161415611e3b57507f00000000000000000000000000000000000000000000000000000000000000006107f9565b7f00000000000000000000000000000000000000000000000000000000000000006001600160a01b0316826001600160a01b03161415611e9c57507f00000000000000000000000000000000000000000000000000000000000000006107f9565b7f00000000000000000000000000000000000000000000000000000000000000006001600160a01b0316826001600160a01b03161415611efd57507f00000000000000000000000000000000000000000000000000000000000000006107f9565b6107f9610135612334565b600080611f1d611f1661076c565b8490611056565b90506106458382610f97565b60006106458383612599565b6000611f4a611f4261073e565b6101476113d8565b611f55848484612705565b949350505050565b60006106458383611be7565b6000611f76611f4261073e565b611f55848484612738565b600061064583836110a4565b600061057e611fac611f9d61076c565b670de0b6b3a764000090610f97565b83906110a4565b6000611fbd610a16565b6001600160a01b031663aaabadc56040518163ffffffff1660e01b815260040160206040518083038186803b158015611ff557600080fd5b505afa158015612009573d6000803e3d6000fd5b505050506040513d601f19601f820116820180604052508101906105d191906144f9565b60606000612039611637565b91506000905060008260008151811061204e57fe5b602002602001015190506000600190505b83518110156120a5578184828151811061207557fe5b6020026020010151111561209d5780925083818151811061209257fe5b602002602001015191505b60010161205f565b50509091565b670de0b6b3a764000060005b835181101561210d576121036120fc8583815181106120d257fe5b60200260200101518584815181106120e657fe5b602002602001015161276b90919063ffffffff16565b8390612599565b91506001016120b7565b5061057e600082116101376113d8565b60006121276114c6565b826040516020016109af9291906148b3565b600060606121646121486109f2565b6001600160a01b0316876001600160a01b0316146101486113d8565b61217187878787876127ba565b915091509550959350505050565b610768828261284e565b600b546121989082600061102f565b600b556040517f5a9e84f78f7957cb4ed7478eb0fcad35ee4ecbe2e0f298420b28a3955392573f906111f890839061491a565b6002815110156121da57610595565b6000816000815181106121e957fe5b602002602001015190506000600190505b825181101561073957600083828151811061221157fe5b6020026020010151905061223a816001600160a01b0316846001600160a01b03161060656113d8565b91506001016121fa565b600073ba1ba1ba1ba1ba1ba1ba1ba1ba1ba1ba1ba1ba1b6122636109f2565b6001600160a01b03161415801561227e575061227e836128dc565b156122a65761228b6109f2565b6001600160a01b0316336001600160a01b031614905061057e565b6122ae611fb3565b6001600160a01b0316639be2a8848484306040518463ffffffff1660e01b81526004016122dd93929190614946565b60206040518083038186803b1580156122f557600080fd5b505afa158015612309573d6000803e3d6000fd5b505050506040513d601f19601f8201168201806040525081019061232d9190614413565b905061057e565b62461bcd60e51b6000908152602060045260076024526642414c23000030600a808404818106603090810160081b95839006959095019082900491820690940160101b939093010160c81b604452606490fd5b600061239684841115836113d8565b5050900390565b4690565b6000806123bc6123b7846004601f880201612918565b612922565b905060006123d36109338560806010890201611ca4565b905060006123e08561293e565b90506123ed8383836129bd565b9695505050505050565b606060006124036115fc565b6001600160401b038111801561241857600080fd5b50604051908082528060200260200182016040528015612442578160200160208202803683370190505b509050826124515790506123ed565b61248488878151811061246057fe5b602002602001015188888151811061247457fe5b6020026020010151878787612a31565b81878151811061249057fe5b6020908102919091010152979650505050505050565b60005b6124b16115fc565b81101561250b576124ec8482815181106124c757fe5b60200260200101518483815181106124db57fe5b60200260200101518463ffffffff16565b8482815181106124f857fe5b60209081029190910101526001016124a9565b50505050565b60006060600061252084612ab9565b9050600081600281111561253057fe5b141561254b57612541878786612acf565b9250925050612577565b600181600281111561255957fe5b1415612569576125418785612bb1565b61254187878787612be3565b505b94509492505050565b600061258f8484610f976124a6565b611f5582856120ab565b60008282026125b384158061107357508385838161107057fe5b670de0b6b3a764000090049392505050565b6125dc6001600160a01b038316151561019b6113d8565b6125e882600083610739565b6001600160a01b03821660009081526020819052604090205461260e90826101a1612387565b6001600160a01b0383166000908152602081905260409020556002546126349082612c51565b6002556040516000906001600160a01b038416907fddf252ad1be2c89b69c2b068fc378daa952ba7f163c4a11628f55a4df523b3ef9061267590859061493d565b60405180910390a35050565b600060608061268e611563565b60008061269961202d565b9150915060006126a9838c6120ab565b905060006126bd8c8585600954868f6123f7565b90506126cc8c82610f976124a6565b6000806126db8e878d8d612c5f565b915091506126ea8e8288612cba565b60095590975095509350505050985098509895505050505050565b600061270f611563565b611f55836127208660200151612cc9565b8461272e8860400151612cc9565b8860600151612deb565b6000612742611563565b611f55836127538660200151612cc9565b846127618860400151612cc9565b8860600151612e58565b6000806127788484612ece565b9050600061279261278b83612710611056565b600161100b565b9050808210156127a75760009250505061057e565b6127b18282610f97565b9250505061057e565b600060606127c6611563565b60006127d184612ab9565b90506127ec60008260028111156127e457fe5b1460ce6113d8565b60006127f785612fcf565b90506128046106fa6115fc565b61280e8187611c2f565b600061281861202d565b509050600061282782846120ab565b90506000612837826107d46115fc565b600992909255509a91995090975050505050505050565b61285a60008383610739565b600254612867908261100b565b6002556001600160a01b03821660009081526020819052604090205461288d908261100b565b6001600160a01b0383166000818152602081905260408082209390935591519091907fddf252ad1be2c89b69c2b068fc378daa952ba7f163c4a11628f55a4df523b3ef9061267590859061493d565b60006128ee633806be4b60e21b61097a565b8214806129095750612906633e56920560e01b61097a565b82145b8061057e575061057e82612fe5565b1c637fffffff1690565b600061057e637fffffff610fc784670de0b6b3a7640000611056565b6000428161294d8460c0611c9a565b9050600061295c8560e0611c9a565b90508083111561297957670de0b6b3a764000093505050506107f9565b8183101561298d57600093505050506107f9565b81810382840381156129a8576129a38183611be7565b6129b2565b670de0b6b3a76400005b979650505050505050565b60008115806129cb57508284145b156129d7575082610645565b670de0b6b3a764000082106129ed575081610645565b82841115612a17576000612a0383858703612599565b9050612a0f8582610f97565b915050610645565b6000612a2583868603612599565b9050612a0f858261100b565b6000838311612a4257506000612ab0565b6000612a4e85856110a4565b90506000612a64670de0b6b3a764000088611be7565b9050612a78826709b6e64a8ec60000611620565b91506000612a868383613017565b90506000612a9d612a9683613043565b8b90612599565b9050612aa98187612599565b9450505050505b95945050505050565b60008180602001905181019061057e9190614562565b60006060612adb611563565b600080612ae785613069565b91509150612aff612af66115fc565b821060646113d8565b6000612b096115fc565b6001600160401b0381118015612b1e57600080fd5b50604051908082528060200260200182016040528015612b48578160200160208202803683370190505b509050612b8c888381518110612b5a57fe5b6020026020010151888481518110612b6e57fe5b602002602001015185612b7f610598565b612b8761076c565b61308b565b818381518110612b9857fe5b6020908102919091010152919791965090945050505050565b600060606000612bc08461314b565b90506000612bd68683612bd1610598565b613161565b9196919550909350505050565b60006060612bef611563565b600080612bfb85613212565b91509150612c0c825161078e6115fc565b612c168287611c2f565b6000612c33898985612c26610598565b612c2e61076c565b61322a565b9050612c438282111560cf6113d8565b989197509095505050505050565b600061064583836001612387565b600060606000612c6e84612ab9565b90506001816002811115612c7e57fe5b1415612c905761254187878787613456565b6002816002811115612c9e57fe5b1415612caf576125418787866134b3565b612575610136612334565b600061258f848461100b6124a6565b6000807f00000000000000000000000000000000000000000000000000000000000000006001600160a01b0316836001600160a01b03161415612d0e57506000612ddf565b7f00000000000000000000000000000000000000000000000000000000000000006001600160a01b0316836001600160a01b03161415612d5057506001612ddf565b7f00000000000000000000000000000000000000000000000000000000000000006001600160a01b0316836001600160a01b03161415612d9257506002612ddf565b7f00000000000000000000000000000000000000000000000000000000000000006001600160a01b0316836001600160a01b03161415612dd457506003612ddf565b612ddf610135612334565b61064581600b546123a1565b6000612e0d612e0287670429d069189e0000612599565b8311156101306113d8565b6000612e19878461100b565b90506000612e2788836110a4565b90506000612e358887611be7565b90506000612e438383613017565b9050612aa9612e5182613043565b8990612599565b6000612e7a612e6f85670429d069189e0000612599565b8311156101316113d8565b6000612e90612e898685610f97565b86906110a4565b90506000612e9e85886110a4565b90506000612eac8383613017565b90506000612ec282670de0b6b3a7640000610f97565b9050612aa98a82611056565b600081612ee45750670de0b6b3a764000061057e565b82612ef15750600061057e565b612f02600160ff1b841060066113d8565b82612f28770bce5086492111aea88f4bb1ca6bcf584181ea8059f76532841060076113d8565b826000670c7d713b49da000083138015612f495750670f43fc2c04ee000083125b15612f80576000612f598461355f565b9050670de0b6b3a764000080820784020583670de0b6b3a764000083050201915050612f8e565b81612f8a8461367d565b0290505b670de0b6b3a76400009005612fc6680238fd42c5cf03ffff198212801590612fbf575068070c1cc73b00c800008213155b60086113d8565b6123ed81613a1c565b6060818060200190518101906106459190614627565b6000612ff7631c74c91760e11b61097a565b82148061057e575061300f6350dd6ed960e01b61097a565b909114919050565b6000806130248484612ece565b9050600061303761278b83612710611056565b9050612ab0828261100b565b6000670de0b6b3a7640000821061305b57600061057e565b50670de0b6b3a76400000390565b6000808280602001905181019061308091906145f1565b909590945092505050565b60008061309c84610fc78188610f97565b90506130b56709b6e64a8ec600008210156101326113d8565b60006130d36130cc670de0b6b3a764000089611be7565b8390613017565b905060006130ea6130e383613043565b8a90612599565b905060006130f789613043565b905060006131058383611056565b905060006131138483610f97565b905061313b61313461312d670de0b6b3a76400008b610f97565b8490612599565b829061100b565b9c9b505050505050505050505050565b60008180602001905181019061064591906145c4565b6060600061316f8484611be7565b9050600085516001600160401b038111801561318a57600080fd5b506040519080825280602002602001820160405280156131b4578160200160208202803683370190505b50905060005b8651811015613208576131e9838883815181106131d357fe5b602002602001015161259990919063ffffffff16565b8282815181106131f557fe5b60209081029190910101526001016131ba565b5095945050505050565b6060600082806020019051810190613080919061457e565b60008084516001600160401b038111801561324457600080fd5b5060405190808252806020026020018201604052801561326e578160200160208202803683370190505b5090506000805b8851811015613333576132ce89828151811061328d57fe5b6020026020010151610fc78984815181106132a457fe5b60200260200101518c85815181106132b857fe5b6020026020010151610f9790919063ffffffff16565b8382815181106132da57fe5b6020026020010181815250506133296133228983815181106132f857fe5b602002602001015185848151811061330c57fe5b602002602001015161105690919063ffffffff16565b839061100b565b9150600101613275565b50670de0b6b3a764000060005b895181101561343557600084828151811061335757fe5b60200260200101518411156133b757600061338061337486613043565b8d85815181106131d357fe5b90506000613394828c86815181106132b857fe5b90506133ae613322611fac670de0b6b3a76400008c610f97565b925050506133ce565b8882815181106133c357fe5b602002602001015190505b60006133f78c84815181106133df57fe5b60200260200101516107d9848f87815181106132b857fe5b90506134296134228c858151811061340b57fe5b60200260200101518361276b90919063ffffffff16565b8590612599565b93505050600101613340565b5061344961344282613043565b8790611056565b9998505050505050505050565b6000606060008061346685613212565b9150915061347c6134756115fc565b8351610f75565b6134868287611c2f565b60006134a3898985613496610598565b61349e61076c565b613df9565b9050612c438282101560d06113d8565b600060606000806134c385613069565b915091506134d2612af66115fc565b60006134dc6115fc565b6001600160401b03811180156134f157600080fd5b5060405190808252806020026020018201604052801561351b578160200160208202803683370190505b509050612b8c88838151811061352d57fe5b602002602001015188848151811061354157fe5b602002602001015185613552610598565b61355a61076c565b614009565b670de0b6b3a7640000026000806a0c097ce7bc90715b34b9f160241b808401906ec097ce7bc90715b34b9f0fffffffff198501028161359a57fe5b05905060006a0c097ce7bc90715b34b9f160241b82800205905081806a0c097ce7bc90715b34b9f160241b81840205915060038205016a0c097ce7bc90715b34b9f160241b82840205915060058205016a0c097ce7bc90715b34b9f160241b82840205915060078205016a0c097ce7bc90715b34b9f160241b82840205915060098205016a0c097ce7bc90715b34b9f160241b828402059150600b8205016a0c097ce7bc90715b34b9f160241b828402059150600d8205016a0c097ce7bc90715b34b9f160241b828402059150600f826002919005919091010295945050505050565b6000670de0b6b3a76400008212156136b9576136af826a0c097ce7bc90715b34b9f160241b816136a957fe5b0561367d565b60000390506107f9565b60007e1600ef3172e58d2e933ec884fde10064c63b5372d805e203c0000000000000831261370a57770195e54c5dd42177f53a27172fa9ec630262827000000000830592506806f05b59d3b2000000015b73011798004d755d3c8bc8e03204cf44619e0000008312613742576b1425982cf597cd205cef7380830592506803782dace9d9000000015b606492830292026e01855144814a7ff805980ff0084000831261378a576e01855144814a7ff805980ff008400068056bc75e2d63100000840205925068ad78ebc5ac62000000015b6b02df0ab5a80a22c61ab5a70083126137c5576b02df0ab5a80a22c61ab5a70068056bc75e2d6310000084020592506856bc75e2d631000000015b693f1fce3da636ea5cf85083126137fc57693f1fce3da636ea5cf85068056bc75e2d631000008402059250682b5e3af16b18800000015b690127fa27722cc06cc5e2831261383357690127fa27722cc06cc5e268056bc75e2d6310000084020592506815af1d78b58c400000015b68280e60114edb805d0383126138685768280e60114edb805d0368056bc75e2d631000008402059250680ad78ebc5ac6200000015b680ebc5fb41746121110831261389357680ebc5fb4174612111068056bc75e2d631000009384020592015b6808f00f760a4b2db55d83126138c8576808f00f760a4b2db55d68056bc75e2d6310000084020592506802b5e3af16b1880000015b6806f5f177578893793783126138fd576806f5f177578893793768056bc75e2d63100000840205925068015af1d78b58c40000015b6806248f33704b2866038312613931576806248f33704b28660368056bc75e2d63100000840205925067ad78ebc5ac620000015b6805c548670b9510e7ac8312613965576805c548670b9510e7ac68056bc75e2d6310000084020592506756bc75e2d6310000015b600068056bc75e2d63100000840168056bc75e2d63100000808603028161398857fe5b059050600068056bc75e2d63100000828002059050818068056bc75e2d63100000818402059150600382050168056bc75e2d63100000828402059150600582050168056bc75e2d63100000828402059150600782050168056bc75e2d63100000828402059150600982050168056bc75e2d63100000828402059150600b820501600202606485820105979650505050505050565b6000613a4b680238fd42c5cf03ffff198312158015613a44575068070c1cc73b00c800008313155b60096113d8565b6000821215613a7e57613a6082600003613a1c565b6a0c097ce7bc90715b34b9f160241b81613a7657fe5b0590506107f9565b60006806f05b59d3b20000008312613abe57506806f05b59d3b1ffffff1990910190770195e54c5dd42177f53a27172fa9ec630262827000000000613af4565b6803782dace9d90000008312613af057506803782dace9d8ffffff19909101906b1425982cf597cd205cef7380613af4565b5060015b6064929092029168056bc75e2d6310000068ad78ebc5ac620000008412613b445768ad78ebc5ac61ffffff199093019268056bc75e2d631000006e01855144814a7ff805980ff008400082020590505b6856bc75e2d6310000008412613b80576856bc75e2d630ffffff199093019268056bc75e2d631000006b02df0ab5a80a22c61ab5a70082020590505b682b5e3af16b188000008412613bba57682b5e3af16b187fffff199093019268056bc75e2d63100000693f1fce3da636ea5cf85082020590505b6815af1d78b58c4000008412613bf4576815af1d78b58c3fffff199093019268056bc75e2d63100000690127fa27722cc06cc5e282020590505b680ad78ebc5ac62000008412613c2d57680ad78ebc5ac61fffff199093019268056bc75e2d6310000068280e60114edb805d0382020590505b68056bc75e2d631000008412613c665768056bc75e2d630fffff199093019268056bc75e2d63100000680ebc5fb4174612111082020590505b6802b5e3af16b18800008412613c9f576802b5e3af16b187ffff199093019268056bc75e2d631000006808f00f760a4b2db55d82020590505b68015af1d78b58c400008412613cd85768015af1d78b58c3ffff199093019268056bc75e2d631000006806f5f177578893793782020590505b68056bc75e2d631000008481019085906002908280020505918201919050600368056bc75e2d631000008783020505918201919050600468056bc75e2d631000008783020505918201919050600568056bc75e2d631000008783020505918201919050600668056bc75e2d631000008783020505918201919050600768056bc75e2d631000008783020505918201919050600868056bc75e2d631000008783020505918201919050600968056bc75e2d631000008783020505918201919050600a68056bc75e2d631000008783020505918201919050600b68056bc75e2d631000008783020505918201919050600c68056bc75e2d631000008783020505918201919050606468056bc75e2d63100000848402058502059695505050505050565b60008084516001600160401b0381118015613e1357600080fd5b50604051908082528060200260200182016040528015613e3d578160200160208202803683370190505b5090506000805b8851811015613ee557613e9d898281518110613e5c57fe5b60200260200101516107d9898481518110613e7357fe5b60200260200101518c8581518110613e8757fe5b602002602001015161100b90919063ffffffff16565b838281518110613ea957fe5b602002602001018181525050613edb613322898381518110613ec757fe5b60200260200101518584815181106131d357fe5b9150600101613e44565b50670de0b6b3a764000060005b8951811015613fc657600083858381518110613f0a57fe5b60200260200101511115613f66576000613f2f61337486670de0b6b3a7640000610f97565b90506000613f43828c86815181106132b857fe5b9050613f5d6133226120fc670de0b6b3a76400008c610f97565b92505050613f7d565b888281518110613f7257fe5b602002602001015190505b6000613fa68c8481518110613f8e57fe5b60200260200101516107d9848f8781518110613e8757fe5b9050613fba6134228c858151811061340b57fe5b93505050600101613ef2565b50670de0b6b3a7640000811115613ffd57613ff3613fec82670de0b6b3a7640000610f97565b8790612599565b9350505050612ab0565b60009350505050612ab0565b60008061401a84610fc7818861100b565b90506140336729a2241af62c00008211156101336113d8565b600061404a6130cc670de0b6b3a7640000896110a4565b9050600061406a61406383670de0b6b3a7640000610f97565b8a90611056565b9050600061407789613043565b905060006140858383611056565b905060006140938483610f97565b905061313b6131346140ad670de0b6b3a76400008b610f97565b84906110a4565b80356107f981614add565b600082601f8301126140cf578081fd5b813560206140e46140df83614ac0565b614a9d565b8281528181019085830183850287018401881015614100578586fd5b855b8581101561411e57813584529284019290840190600101614102565b5090979650505050505050565b600082601f83011261413b578081fd5b8151602061414b6140df83614ac0565b8281528181019085830183850287018401881015614167578586fd5b855b8581101561411e57815184529284019290840190600101614169565b600082601f830112614195578081fd5b81356001600160401b038111156141a857fe5b6141bb601f8201601f1916602001614a9d565b8181528460208386010111156141cf578283fd5b816020850160208301379081016020019190915292915050565b8035600281106107f957600080fd5b600060208284031215614209578081fd5b813561064581614add565b60008060408385031215614226578081fd5b823561423181614add565b9150602083013561424181614add565b809150509250929050565b600080600060608486031215614260578081fd5b833561426b81614add565b9250602084013561427b81614add565b929592945050506040919091013590565b600080600080600080600060e0888a0312156142a6578485fd5b87356142b181614add565b965060208801356142c181614add565b95506040880135945060608801359350608088013560ff811681146142e4578384fd5b9699959850939692959460a0840135945060c09093013592915050565b60008060408385031215614313578182fd5b823561431e81614add565b946020939093013593505050565b600080600060608486031215614340578081fd5b83516001600160401b0380821115614356578283fd5b818601915086601f830112614369578283fd5b815160206143796140df83614ac0565b82815281810190858301838502870184018c1015614395578788fd5b8796505b848710156143c05780516143ac81614add565b835260019690960195918301918301614399565b50918901519197509093505050808211156143d9578283fd5b506143e68682870161412b565b925050604084015190509250925092565b600060208284031215614408578081fd5b813561064581614af2565b600060208284031215614424578081fd5b815161064581614af2565b600080600080600080600060e0888a031215614449578081fd5b87359650602088013561445b81614add565b9550604088013561446b81614add565b945060608801356001600160401b0380821115614486578283fd5b6144928b838c016140bf565b955060808a0135945060a08a0135935060c08a01359150808211156144b5578283fd5b506144c28a828b01614185565b91505092959891949750929550565b6000602082840312156144e2578081fd5b81356001600160e01b031981168114610645578182fd5b60006020828403121561450a578081fd5b815161064581614add565b60008060408385031215614527578182fd5b823561453281614add565b915060208301356001600160401b0381111561454c578182fd5b61455885828601614185565b9150509250929050565b600060208284031215614573578081fd5b815161064581614b00565b600080600060608486031215614592578081fd5b835161459d81614b00565b60208501519093506001600160401b038111156145b8578182fd5b6143e68682870161412b565b600080604083850312156145d6578182fd5b82516145e181614b00565b6020939093015192949293505050565b600080600060608486031215614605578081fd5b835161461081614b00565b602085015160409095015190969495509392505050565b60008060408385031215614639578182fd5b825161464481614b00565b60208401519092506001600160401b0381111561465f578182fd5b6145588582860161412b565b60008060006060848603121561467f578081fd5b83356001600160401b0380821115614695578283fd5b81860191506101208083890312156146ab578384fd5b6146b481614a9d565b90506146bf836141e9565b81526146cd602084016140b4565b60208201526146de604084016140b4565b6040820152606083013560608201526080830135608082015260a083013560a082015261470d60c084016140b4565b60c082015261471e60e084016140b4565b60e08201526101008084013583811115614736578586fd5b6147428a828701614185565b9183019190915250976020870135975060409096013595945050505050565b600060208284031215614772578081fd5b5035919050565b60008060006060848603121561478d578081fd5b833592506020840135915060408401356001600160401b038111156147b0578182fd5b6147bc868287016140bf565b9150509250925092565b600080600080608085870312156147db578182fd5b84519350602085015192506040850151915060608501516147fb81614add565b939692955090935050565b6000815180845260208085019450808401835b8381101561483557815187529582019590820190600101614819565b509495945050505050565b60008151808452815b8181101561486557602081850181015186830182015201614849565b818111156148765782602083870101525b50601f01601f19169290920160200192915050565b9182526001600160e01b031916602082015260240190565b6000828483379101908152919050565b61190160f01b81526002810192909252602282015260420190565b6001600160a01b0391909116815260200190565b6000602082526106456020830184614806565b6000604082526149086040830185614806565b8281036020840152612ab08185614806565b901515815260200190565b92151583526020830191909152604082015260600190565b90815260200190565b9283526001600160a01b03918216602084015216604082015260600190565b9586526001600160a01b0394851660208701529290931660408501526060840152608083019190915260a082015260c00190565b9485526020850193909352604084019190915260608301526001600160a01b0316608082015260a00190565b600083825260406020830152611f556040830184614840565b9182526001600160a01b0316602082015260400190565b93845260ff9290921660208401526040830152606082015260800190565b6000602082526106456020830184614840565b600083825260406020830152611f556040830184614806565b600084825283602083015260606040830152612ab06060830184614806565b600085825284602083015260806040830152614a7d6080830185614806565b82810360608401526129b28185614806565b60ff91909116815260200190565b6040518181016001600160401b0381118282101715614ab857fe5b604052919050565b60006001600160401b03821115614ad357fe5b5060209081020190565b6001600160a01b038116811461059557600080fd5b801515811461059557600080fd5b6003811061059557600080fdfea2646970667358221220846fd0366be677adb8645ccc168a9c1c70b91ccd891fb66cc34cb470e8bf91ef64736f6c63430007060033",
			"opcodes": "PUSH2 0x140 PUSH1 0x40 MSTORE CALLVALUE DUP1 ISZERO PUSH3 0x12 JUMPI PUSH1 0x0 DUP1 REVERT JUMPDEST POP PUSH1 0x40 MLOAD PUSH3 0x6813 CODESIZE SUB DUP1 PUSH3 0x6813 DUP4 CODECOPY DUP2 ADD PUSH1 0x40 DUP2 SWAP1 MSTORE PUSH3 0x35 SWAP2 PUSH3 0x1C3 JUMP JUMPDEST DUP1 PUSH1 0x40 MLOAD DUP1 PUSH1 0x20 ADD PUSH3 0x48 SWAP1 PUSH3 0x1B5 JUMP JUMPDEST PUSH1 0x1F NOT DUP3 DUP3 SUB DUP2 ADD DUP4 MSTORE PUSH1 0x1F SWAP1 SWAP2 ADD AND PUSH1 0x40 MSTORE DUP1 MLOAD DUP2 SWAP1 PUSH1 0x0 PUSH1 0x2 DUP3 DIV PUSH1 0xA0 DUP2 SWAP1 MSTORE DUP1 DUP4 SUB PUSH1 0xE0 DUP2 SWAP1 MSTORE DUP2 DUP6 MSTORE SWAP1 SWAP2 POP DUP4 PUSH3 0x90 DUP2 PUSH3 0xF9 PUSH1 0x20 SWAP1 DUP2 SHL PUSH3 0x26D OR SWAP1 SHR JUMP JUMPDEST PUSH1 0x60 SHL PUSH1 0x1 PUSH1 0x1 PUSH1 0x60 SHL SUB NOT AND PUSH1 0x80 MSTORE DUP3 DUP6 ADD DUP1 MLOAD DUP4 DUP3 MSTORE PUSH3 0xBF DUP3 PUSH3 0xF9 PUSH1 0x20 SWAP1 DUP2 SHL PUSH3 0x26D OR SWAP1 SHR JUMP JUMPDEST PUSH1 0x1 PUSH1 0x1 PUSH1 0x60 SHL SUB NOT PUSH1 0x60 SWAP2 DUP3 SHL DUP2 AND PUSH1 0xC0 MSTORE SWAP7 SWAP1 SWAP4 MSTORE SWAP1 MSTORE SWAP6 SWAP1 SWAP6 SHL SWAP1 SWAP2 AND PUSH2 0x100 MSTORE POP POP POP TIMESTAMP PUSH3 0x76A700 ADD PUSH2 0x120 MSTORE POP PUSH3 0x1F3 SWAP1 POP JUMP JUMPDEST DUP1 MLOAD PUSH32 0x602038038060206000396000F3FEFEFEFEFEFEFEFEFEFEFEFEFEFEFEFEFEFEFE DUP1 DUP4 MSTORE PUSH1 0x0 SWAP2 PUSH1 0x20 DUP2 ADD DUP5 DUP5 CREATE SWAP1 DUP5 MSTORE SWAP2 POP PUSH3 0x147 PUSH1 0x1 PUSH1 0x1 PUSH1 0xA0 SHL SUB DUP4 AND ISZERO ISZERO PUSH2 0x1AC PUSH3 0x14D JUMP JUMPDEST POP SWAP2 SWAP1 POP JUMP JUMPDEST DUP2 PUSH3 0x15E JUMPI PUSH3 0x15E DUP2 PUSH3 0x162 JUMP JUMPDEST POP POP JUMP JUMPDEST PUSH3 0x461BCD PUSH1 0xE5 SHL PUSH1 0x0 SWAP1 DUP2 MSTORE PUSH1 0x20 PUSH1 0x4 MSTORE PUSH1 0x7 PUSH1 0x24 MSTORE PUSH7 0x42414C23000030 PUSH1 0xA DUP1 DUP5 DIV DUP2 DUP2 MOD PUSH1 0x30 SWAP1 DUP2 ADD PUSH1 0x8 SHL SWAP6 DUP4 SWAP1 MOD SWAP6 SWAP1 SWAP6 ADD SWAP1 DUP3 SWAP1 DIV SWAP2 DUP3 MOD SWAP1 SWAP5 ADD PUSH1 0x10 SHL SWAP4 SWAP1 SWAP4 ADD ADD PUSH1 0xC8 SHL PUSH1 0x44 MSTORE PUSH1 0x64 SWAP1 REVERT JUMPDEST PUSH2 0x5C60 DUP1 PUSH3 0xBB3 DUP4 CODECOPY ADD SWAP1 JUMP JUMPDEST PUSH1 0x0 PUSH1 0x20 DUP3 DUP5 SUB SLT ISZERO PUSH3 0x1D5 JUMPI DUP1 DUP2 REVERT JUMPDEST DUP2 MLOAD PUSH1 0x1 PUSH1 0x1 PUSH1 0xA0 SHL SUB DUP2 AND DUP2 EQ PUSH3 0x1EC JUMPI DUP2 DUP3 REVERT JUMPDEST SWAP4 SWAP3 POP POP POP JUMP JUMPDEST PUSH1 0x80 MLOAD PUSH1 0x60 SHR PUSH1 0xA0 MLOAD PUSH1 0xC0 MLOAD PUSH1 0x60 SHR PUSH1 0xE0 MLOAD PUSH2 0x100 MLOAD PUSH1 0x60 SHR PUSH2 0x120 MLOAD PUSH2 0x95E PUSH3 0x255 PUSH1 0x0 CODECOPY DUP1 PUSH2 0x1C3 MSTORE DUP1 PUSH2 0x1EC MSTORE POP DUP1 PUSH2 0x24B MSTORE POP DUP1 PUSH2 0x2C7 MSTORE POP DUP1 PUSH2 0x13A MSTORE DUP1 PUSH2 0x343 MSTORE POP DUP1 PUSH2 0x2E8 MSTORE POP DUP1 PUSH2 0x119 MSTORE DUP1 PUSH2 0x31F MSTORE POP PUSH2 0x95E PUSH1 0x0 RETURN INVALID PUSH1 0x80 PUSH1 0x40 MSTORE CALLVALUE DUP1 ISZERO PUSH2 0x10 JUMPI PUSH1 0x0 DUP1 REVERT JUMPDEST POP PUSH1 0x4 CALLDATASIZE LT PUSH2 0x61 JUMPI PUSH1 0x0 CALLDATALOAD PUSH1 0xE0 SHR DUP1 PUSH3 0xC194DB EQ PUSH2 0x66 JUMPI DUP1 PUSH4 0x174481FA EQ PUSH2 0x84 JUMPI DUP1 PUSH4 0x23679719 EQ PUSH2 0x9A JUMPI DUP1 PUSH4 0x2DA47C40 EQ PUSH2 0xBA JUMPI DUP1 PUSH4 0x6634B753 EQ PUSH2 0xD0 JUMPI DUP1 PUSH4 0x8D928AF8 EQ PUSH2 0xF0 JUMPI JUMPDEST PUSH1 0x0 DUP1 REVERT JUMPDEST PUSH2 0x6E PUSH2 0xF8 JUMP JUMPDEST PUSH1 0x40 MLOAD PUSH2 0x7B SWAP2 SWAP1 PUSH2 0x7E4 JUMP JUMPDEST PUSH1 0x40 MLOAD DUP1 SWAP2 SUB SWAP1 RETURN JUMPDEST PUSH2 0x8C PUSH2 0x117 JUMP JUMPDEST PUSH1 0x40 MLOAD PUSH2 0x7B SWAP3 SWAP2 SWAP1 PUSH2 0x7BF JUMP JUMPDEST PUSH2 0xAD PUSH2 0xA8 CALLDATASIZE PUSH1 0x4 PUSH2 0x640 JUMP JUMPDEST PUSH2 0x15D JUMP JUMPDEST PUSH1 0x40 MLOAD PUSH2 0x7B SWAP2 SWAP1 PUSH2 0x7AB JUMP JUMPDEST PUSH2 0xC2 PUSH2 0x1BD JUMP JUMPDEST PUSH1 0x40 MLOAD PUSH2 0x7B SWAP3 SWAP2 SWAP1 PUSH2 0x8C0 JUMP JUMPDEST PUSH2 0xE3 PUSH2 0xDE CALLDATASIZE PUSH1 0x4 PUSH2 0x624 JUMP JUMPDEST PUSH2 0x227 JUMP JUMPDEST PUSH1 0x40 MLOAD PUSH2 0x7B SWAP2 SWAP1 PUSH2 0x7D9 JUMP JUMPDEST PUSH2 0xAD PUSH2 0x249 JUMP JUMPDEST PUSH1 0x60 PUSH2 0x112 PUSH1 0x40 MLOAD DUP1 PUSH1 0x20 ADD PUSH1 0x40 MSTORE DUP1 PUSH1 0x0 DUP2 MSTORE POP PUSH2 0x2BF JUMP JUMPDEST SWAP1 POP SWAP1 JUMP JUMPDEST PUSH32 0x0 PUSH32 0x0 SWAP1 SWAP2 JUMP JUMPDEST PUSH1 0x0 DUP1 PUSH1 0x0 PUSH2 0x16A PUSH2 0x1BD JUMP JUMPDEST SWAP2 POP SWAP2 POP PUSH2 0x1AF PUSH2 0x179 PUSH2 0x249 JUMP JUMPDEST DUP12 DUP12 DUP12 DUP12 DUP12 DUP9 DUP9 DUP14 DUP14 PUSH1 0x40 MLOAD PUSH1 0x20 ADD PUSH2 0x19B SWAP11 SWAP10 SWAP9 SWAP8 SWAP7 SWAP6 SWAP5 SWAP4 SWAP3 SWAP2 SWAP1 PUSH2 0x7F7 JUMP JUMPDEST PUSH1 0x40 MLOAD PUSH1 0x20 DUP2 DUP4 SUB SUB DUP2 MSTORE SWAP1 PUSH1 0x40 MSTORE PUSH2 0x398 JUMP JUMPDEST SWAP11 SWAP10 POP POP POP POP POP POP POP POP POP POP JUMP JUMPDEST PUSH1 0x0 DUP1 TIMESTAMP PUSH32 0x0 DUP2 LT ISZERO PUSH2 0x219 JUMPI DUP1 PUSH32 0x0 SUB SWAP3 POP PUSH3 0x278D00 SWAP2 POP PUSH2 0x222 JUMP JUMPDEST PUSH1 0x0 SWAP3 POP PUSH1 0x0 SWAP2 POP JUMPDEST POP SWAP1 SWAP2 JUMP JUMPDEST PUSH1 0x1 PUSH1 0x1 PUSH1 0xA0 SHL SUB DUP2 AND PUSH1 0x0 SWAP1 DUP2 MSTORE PUSH1 0x20 DUP2 SWAP1 MSTORE PUSH1 0x40 SWAP1 KECCAK256 SLOAD PUSH1 0xFF AND JUMPDEST SWAP2 SWAP1 POP JUMP JUMPDEST PUSH32 0x0 SWAP1 JUMP JUMPDEST DUP1 MLOAD PUSH32 0x602038038060206000396000F3FEFEFEFEFEFEFEFEFEFEFEFEFEFEFEFEFEFEFE DUP1 DUP4 MSTORE PUSH1 0x0 SWAP2 PUSH1 0x20 DUP2 ADD DUP5 DUP5 CREATE SWAP1 DUP5 MSTORE SWAP2 POP PUSH2 0x2B9 PUSH1 0x1 PUSH1 0x1 PUSH1 0xA0 SHL SUB DUP4 AND ISZERO ISZERO PUSH2 0x1AC PUSH2 0x3F8 JUMP JUMPDEST POP SWAP2 SWAP1 POP JUMP JUMPDEST DUP1 MLOAD PUSH1 0x40 DUP1 MLOAD PUSH32 0x0 PUSH32 0x0 DUP2 DUP2 ADD DUP6 DUP2 ADD DUP5 DUP2 ADD PUSH1 0x20 SWAP1 DUP2 ADD SWAP1 SWAP7 MSTORE DUP1 DUP6 MSTORE SWAP4 SWAP6 PUSH32 0x0 SWAP6 SWAP3 SWAP5 PUSH32 0x0 SWAP5 SWAP4 DUP9 ADD DUP7 PUSH1 0x0 DUP3 DUP11 EXTCODECOPY DUP5 PUSH1 0x0 DUP9 DUP4 ADD DUP9 EXTCODECOPY POP PUSH1 0x20 DUP10 DUP2 ADD SWAP1 DUP10 DUP6 ADD ADD PUSH2 0x38A DUP2 DUP4 DUP7 PUSH2 0x40A JUMP JUMPDEST POP POP POP POP POP POP POP POP POP SWAP2 SWAP1 POP JUMP JUMPDEST PUSH1 0x0 DUP1 PUSH2 0x3A4 DUP4 PUSH2 0x448 JUMP JUMPDEST PUSH1 0x1 PUSH1 0x1 PUSH1 0xA0 SHL SUB DUP2 AND PUSH1 0x0 DUP2 DUP2 MSTORE PUSH1 0x20 DUP2 SWAP1 MSTORE PUSH1 0x40 DUP1 DUP3 KECCAK256 DUP1 SLOAD PUSH1 0xFF NOT AND PUSH1 0x1 OR SWAP1 SSTORE MLOAD SWAP3 SWAP4 POP SWAP1 SWAP2 PUSH32 0x83A48FBCFC991335314E74D0496AAB6A1987E992DDC85DDDBCC4D6DD6EF2E9FC SWAP2 SWAP1 LOG2 SWAP3 SWAP2 POP POP JUMP JUMPDEST DUP2 PUSH2 0x406 JUMPI PUSH2 0x406 DUP2 PUSH2 0x482 JUMP JUMPDEST POP POP JUMP JUMPDEST JUMPDEST PUSH1 0x20 DUP2 LT PUSH2 0x42A JUMPI DUP2 MLOAD DUP4 MSTORE PUSH1 0x20 SWAP3 DUP4 ADD SWAP3 SWAP1 SWAP2 ADD SWAP1 PUSH1 0x1F NOT ADD PUSH2 0x40B JUMP JUMPDEST SWAP1 MLOAD DUP3 MLOAD PUSH1 0x20 SWAP3 SWAP1 SWAP3 SUB PUSH2 0x100 EXP PUSH1 0x0 NOT ADD DUP1 NOT SWAP1 SWAP2 AND SWAP2 AND OR SWAP1 MSTORE JUMP JUMPDEST PUSH1 0x0 DUP1 PUSH2 0x454 DUP4 PUSH2 0x2BF JUMP JUMPDEST SWAP1 POP PUSH1 0x0 DUP2 MLOAD PUSH1 0x20 DUP4 ADD PUSH1 0x0 CREATE SWAP1 POP PUSH1 0x1 PUSH1 0x1 PUSH1 0xA0 SHL SUB DUP2 AND PUSH2 0x47B JUMPI RETURNDATASIZE PUSH1 0x0 DUP1 RETURNDATACOPY RETURNDATASIZE PUSH1 0x0 REVERT JUMPDEST SWAP4 SWAP3 POP POP POP JUMP JUMPDEST PUSH3 0x461BCD PUSH1 0xE5 SHL PUSH1 0x0 SWAP1 DUP2 MSTORE PUSH1 0x20 PUSH1 0x4 MSTORE PUSH1 0x7 PUSH1 0x24 MSTORE PUSH7 0x42414C23000030 PUSH1 0xA DUP1 DUP5 DIV DUP2 DUP2 MOD PUSH1 0x30 SWAP1 DUP2 ADD PUSH1 0x8 SHL SWAP6 DUP4 SWAP1 MOD SWAP6 SWAP1 SWAP6 ADD SWAP1 DUP3 SWAP1 DIV SWAP2 DUP3 MOD SWAP1 SWAP5 ADD PUSH1 0x10 SHL SWAP4 SWAP1 SWAP4 ADD ADD PUSH1 0xC8 SHL PUSH1 0x44 MSTORE PUSH1 0x64 SWAP1 REVERT JUMPDEST DUP1 CALLDATALOAD PUSH2 0x244 DUP2 PUSH2 0x910 JUMP JUMPDEST PUSH1 0x0 DUP3 PUSH1 0x1F DUP4 ADD SLT PUSH2 0x4F0 JUMPI DUP1 DUP2 REVERT JUMPDEST DUP2 CALLDATALOAD PUSH1 0x20 PUSH2 0x505 PUSH2 0x500 DUP4 PUSH2 0x8F2 JUMP JUMPDEST PUSH2 0x8CE JUMP JUMPDEST DUP3 DUP2 MSTORE DUP2 DUP2 ADD SWAP1 DUP6 DUP4 ADD DUP4 DUP6 MUL DUP8 ADD DUP5 ADD DUP9 LT ISZERO PUSH2 0x521 JUMPI DUP6 DUP7 REVERT JUMPDEST DUP6 JUMPDEST DUP6 DUP2 LT ISZERO PUSH2 0x548 JUMPI DUP2 CALLDATALOAD PUSH2 0x536 DUP2 PUSH2 0x910 JUMP JUMPDEST DUP5 MSTORE SWAP3 DUP5 ADD SWAP3 SWAP1 DUP5 ADD SWAP1 PUSH1 0x1 ADD PUSH2 0x523 JUMP JUMPDEST POP SWAP1 SWAP8 SWAP7 POP POP POP POP POP POP POP JUMP JUMPDEST PUSH1 0x0 DUP3 PUSH1 0x1F DUP4 ADD SLT PUSH2 0x565 JUMPI DUP1 DUP2 REVERT JUMPDEST DUP2 CALLDATALOAD PUSH1 0x20 PUSH2 0x575 PUSH2 0x500 DUP4 PUSH2 0x8F2 JUMP JUMPDEST DUP3 DUP2 MSTORE DUP2 DUP2 ADD SWAP1 DUP6 DUP4 ADD DUP4 DUP6 MUL DUP8 ADD DUP5 ADD DUP9 LT ISZERO PUSH2 0x591 JUMPI DUP6 DUP7 REVERT JUMPDEST DUP6 JUMPDEST DUP6 DUP2 LT ISZERO PUSH2 0x548 JUMPI DUP2 CALLDATALOAD DUP5 MSTORE SWAP3 DUP5 ADD SWAP3 SWAP1 DUP5 ADD SWAP1 PUSH1 0x1 ADD PUSH2 0x593 JUMP JUMPDEST DUP1 CALLDATALOAD DUP1 ISZERO ISZERO DUP2 EQ PUSH2 0x244 JUMPI PUSH1 0x0 DUP1 REVERT JUMPDEST PUSH1 0x0 DUP3 PUSH1 0x1F DUP4 ADD SLT PUSH2 0x5CF JUMPI DUP1 DUP2 REVERT JUMPDEST DUP2 CALLDATALOAD PUSH8 0xFFFFFFFFFFFFFFFF DUP2 GT ISZERO PUSH2 0x5E3 JUMPI INVALID JUMPDEST PUSH2 0x5F6 PUSH1 0x1F DUP3 ADD PUSH1 0x1F NOT AND PUSH1 0x20 ADD PUSH2 0x8CE JUMP JUMPDEST DUP2 DUP2 MSTORE DUP5 PUSH1 0x20 DUP4 DUP7 ADD ADD GT ISZERO PUSH2 0x60A JUMPI DUP3 DUP4 REVERT JUMPDEST DUP2 PUSH1 0x20 DUP6 ADD PUSH1 0x20 DUP4 ADD CALLDATACOPY SWAP1 DUP2 ADD PUSH1 0x20 ADD SWAP2 SWAP1 SWAP2 MSTORE SWAP3 SWAP2 POP POP JUMP JUMPDEST PUSH1 0x0 PUSH1 0x20 DUP3 DUP5 SUB SLT ISZERO PUSH2 0x635 JUMPI DUP1 DUP2 REVERT JUMPDEST DUP2 CALLDATALOAD PUSH2 0x47B DUP2 PUSH2 0x910 JUMP JUMPDEST PUSH1 0x0 DUP1 PUSH1 0x0 DUP1 PUSH1 0x0 DUP1 PUSH1 0x0 PUSH1 0xE0 DUP9 DUP11 SUB SLT ISZERO PUSH2 0x65A JUMPI DUP3 DUP4 REVERT JUMPDEST DUP8 CALLDATALOAD PUSH8 0xFFFFFFFFFFFFFFFF DUP1 DUP3 GT ISZERO PUSH2 0x671 JUMPI DUP5 DUP6 REVERT JUMPDEST PUSH2 0x67D DUP12 DUP4 DUP13 ADD PUSH2 0x5BF JUMP JUMPDEST SWAP9 POP PUSH1 0x20 DUP11 ADD CALLDATALOAD SWAP2 POP DUP1 DUP3 GT ISZERO PUSH2 0x692 JUMPI DUP5 DUP6 REVERT JUMPDEST PUSH2 0x69E DUP12 DUP4 DUP13 ADD PUSH2 0x5BF JUMP JUMPDEST SWAP8 POP PUSH1 0x40 DUP11 ADD CALLDATALOAD SWAP2 POP DUP1 DUP3 GT ISZERO PUSH2 0x6B3 JUMPI DUP5 DUP6 REVERT JUMPDEST PUSH2 0x6BF DUP12 DUP4 DUP13 ADD PUSH2 0x4E0 JUMP JUMPDEST SWAP7 POP PUSH1 0x60 DUP11 ADD CALLDATALOAD SWAP2 POP DUP1 DUP3 GT ISZERO PUSH2 0x6D4 JUMPI DUP5 DUP6 REVERT JUMPDEST POP PUSH2 0x6E1 DUP11 DUP3 DUP12 ADD PUSH2 0x555 JUMP JUMPDEST SWAP5 POP POP PUSH1 0x80 DUP9 ADD CALLDATALOAD SWAP3 POP PUSH2 0x6F7 PUSH1 0xA0 DUP10 ADD PUSH2 0x4D5 JUMP JUMPDEST SWAP2 POP PUSH2 0x705 PUSH1 0xC0 DUP10 ADD PUSH2 0x5AF JUMP JUMPDEST SWAP1 POP SWAP3 SWAP6 SWAP9 SWAP2 SWAP5 SWAP8 POP SWAP3 SWAP6 POP JUMP JUMPDEST PUSH1 0x1 PUSH1 0x1 PUSH1 0xA0 SHL SUB AND SWAP1 MSTORE JUMP JUMPDEST PUSH1 0x0 DUP2 MLOAD DUP1 DUP5 MSTORE PUSH1 0x20 DUP1 DUP6 ADD SWAP5 POP DUP1 DUP5 ADD DUP4 JUMPDEST DUP4 DUP2 LT ISZERO PUSH2 0x74F JUMPI DUP2 MLOAD DUP8 MSTORE SWAP6 DUP3 ADD SWAP6 SWAP1 DUP3 ADD SWAP1 PUSH1 0x1 ADD PUSH2 0x733 JUMP JUMPDEST POP SWAP5 SWAP6 SWAP5 POP POP POP POP POP JUMP JUMPDEST ISZERO ISZERO SWAP1 MSTORE JUMP JUMPDEST PUSH1 0x0 DUP2 MLOAD DUP1 DUP5 MSTORE DUP2 JUMPDEST DUP2 DUP2 LT ISZERO PUSH2 0x785 JUMPI PUSH1 0x20 DUP2 DUP6 ADD DUP2 ADD MLOAD DUP7 DUP4 ADD DUP3 ADD MSTORE ADD PUSH2 0x769 JUMP JUMPDEST DUP2 DUP2 GT ISZERO PUSH2 0x796 JUMPI DUP3 PUSH1 0x20 DUP4 DUP8 ADD ADD MSTORE JUMPDEST POP PUSH1 0x1F ADD PUSH1 0x1F NOT AND SWAP3 SWAP1 SWAP3 ADD PUSH1 0x20 ADD SWAP3 SWAP2 POP POP JUMP JUMPDEST PUSH1 0x1 PUSH1 0x1 PUSH1 0xA0 SHL SUB SWAP2 SWAP1 SWAP2 AND DUP2 MSTORE PUSH1 0x20 ADD SWAP1 JUMP JUMPDEST PUSH1 0x1 PUSH1 0x1 PUSH1 0xA0 SHL SUB SWAP3 DUP4 AND DUP2 MSTORE SWAP2 AND PUSH1 0x20 DUP3 ADD MSTORE PUSH1 0x40 ADD SWAP1 JUMP JUMPDEST SWAP1 ISZERO ISZERO DUP2 MSTORE PUSH1 0x20 ADD SWAP1 JUMP JUMPDEST PUSH1 0x0 PUSH1 0x20 DUP3 MSTORE PUSH2 0x47B PUSH1 0x20 DUP4 ADD DUP5 PUSH2 0x760 JUMP JUMPDEST PUSH1 0x1 PUSH1 0x1 PUSH1 0xA0 SHL SUB DUP12 DUP2 AND DUP3 MSTORE PUSH2 0x140 PUSH1 0x20 DUP1 DUP5 ADD DUP3 SWAP1 MSTORE PUSH1 0x0 SWAP3 SWAP1 PUSH2 0x81F DUP6 DUP5 ADD DUP16 PUSH2 0x760 JUMP JUMPDEST SWAP3 POP DUP5 DUP4 SUB PUSH1 0x40 DUP7 ADD MSTORE PUSH2 0x833 DUP4 DUP15 PUSH2 0x760 JUMP JUMPDEST DUP6 DUP2 SUB PUSH1 0x60 DUP8 ADD MSTORE DUP13 MLOAD DUP1 DUP3 MSTORE DUP3 DUP15 ADD SWAP5 POP SWAP1 DUP3 ADD SWAP1 DUP6 JUMPDEST DUP2 DUP2 LT ISZERO PUSH2 0x869 JUMPI DUP6 MLOAD DUP6 AND DUP4 MSTORE SWAP5 DUP4 ADD SWAP5 SWAP2 DUP4 ADD SWAP2 PUSH1 0x1 ADD PUSH2 0x84B JUMP JUMPDEST POP POP DUP6 DUP2 SUB PUSH1 0x80 DUP8 ADD MSTORE PUSH2 0x87D DUP2 DUP14 PUSH2 0x720 JUMP JUMPDEST SWAP5 POP POP POP POP POP DUP7 PUSH1 0xA0 DUP4 ADD MSTORE DUP6 PUSH1 0xC0 DUP4 ADD MSTORE DUP5 PUSH1 0xE0 DUP4 ADD MSTORE PUSH2 0x8A3 PUSH2 0x100 DUP4 ADD DUP6 PUSH2 0x713 JUMP JUMPDEST PUSH2 0x8B1 PUSH2 0x120 DUP4 ADD DUP5 PUSH2 0x75A JUMP JUMPDEST SWAP12 SWAP11 POP POP POP POP POP POP POP POP POP POP POP JUMP JUMPDEST SWAP2 DUP3 MSTORE PUSH1 0x20 DUP3 ADD MSTORE PUSH1 0x40 ADD SWAP1 JUMP JUMPDEST PUSH1 0x40 MLOAD DUP2 DUP2 ADD PUSH8 0xFFFFFFFFFFFFFFFF DUP2 GT DUP3 DUP3 LT OR ISZERO PUSH2 0x8EA JUMPI INVALID JUMPDEST PUSH1 0x40 MSTORE SWAP2 SWAP1 POP JUMP JUMPDEST PUSH1 0x0 PUSH8 0xFFFFFFFFFFFFFFFF DUP3 GT ISZERO PUSH2 0x906 JUMPI INVALID JUMPDEST POP PUSH1 0x20 SWAP1 DUP2 MUL ADD SWAP1 JUMP JUMPDEST PUSH1 0x1 PUSH1 0x1 PUSH1 0xA0 SHL SUB DUP2 AND DUP2 EQ PUSH2 0x925 JUMPI PUSH1 0x0 DUP1 REVERT JUMPDEST POP JUMP INVALID LOG2 PUSH5 0x6970667358 0x22 SLT KECCAK256 0xC7 CREATE PUSH9 0x623264AAC4C3BC481 0xAF PUSH8 0x1C53709E1EC3EDA5 0x2E 0x4F 0xFB ADDMOD DUP6 0xB6 CALLCODE PUSH15 0xD3BC64736F6C634300070600336102 0xE0 PUSH1 0x40 MSTORE PUSH32 0x6E71EDAE12B1B97F4D1F60370FEF10105FA2FAAE0126114A169C64845D6126C9 PUSH2 0x120 MSTORE CALLVALUE DUP1 ISZERO PUSH3 0x37 JUMPI PUSH1 0x0 DUP1 REVERT JUMPDEST POP PUSH1 0x40 MLOAD PUSH3 0x5C60 CODESIZE SUB DUP1 PUSH3 0x5C60 DUP4 CODECOPY DUP2 ADD PUSH1 0x40 DUP2 SWAP1 MSTORE PUSH3 0x5A SWAP2 PUSH3 0xD51 JUMP JUMPDEST DUP10 DUP10 DUP10 DUP10 DUP11 MLOAD PUSH1 0x1 PUSH1 0x1 PUSH1 0x40 SHL SUB DUP2 GT DUP1 ISZERO PUSH3 0x76 JUMPI PUSH1 0x0 DUP1 REVERT JUMPDEST POP PUSH1 0x40 MLOAD SWAP1 DUP1 DUP3 MSTORE DUP1 PUSH1 0x20 MUL PUSH1 0x20 ADD DUP3 ADD PUSH1 0x40 MSTORE DUP1 ISZERO PUSH3 0xA1 JUMPI DUP2 PUSH1 0x20 ADD PUSH1 0x20 DUP3 MUL DUP1 CALLDATASIZE DUP4 CALLDATACOPY ADD SWAP1 POP JUMPDEST POP DUP10 DUP10 DUP10 DUP10 DUP9 DUP7 MLOAD PUSH1 0x2 EQ PUSH3 0xB9 JUMPI PUSH1 0x1 PUSH3 0xBC JUMP JUMPDEST PUSH1 0x2 JUMPDEST DUP10 DUP10 DUP10 DUP10 DUP10 DUP10 DUP10 DUP10 DUP3 DUP3 DUP10 DUP10 DUP2 DUP1 PUSH1 0x40 MLOAD DUP1 PUSH1 0x40 ADD PUSH1 0x40 MSTORE DUP1 PUSH1 0x1 DUP2 MSTORE PUSH1 0x20 ADD PUSH1 0x31 PUSH1 0xF8 SHL DUP2 MSTORE POP DUP5 DUP5 DUP10 CALLER PUSH1 0x1 PUSH1 0x1 PUSH1 0xA0 SHL SUB AND PUSH1 0x0 SHL DUP1 PUSH1 0x80 DUP2 DUP2 MSTORE POP POP POP DUP1 PUSH1 0x1 PUSH1 0x1 PUSH1 0xA0 SHL SUB AND PUSH1 0xA0 DUP2 PUSH1 0x1 PUSH1 0x1 PUSH1 0xA0 SHL SUB AND PUSH1 0x60 SHL DUP2 MSTORE POP POP POP DUP2 PUSH1 0x3 SWAP1 DUP1 MLOAD SWAP1 PUSH1 0x20 ADD SWAP1 PUSH3 0x133 SWAP3 SWAP2 SWAP1 PUSH3 0xB05 JUMP JUMPDEST POP DUP1 MLOAD PUSH3 0x149 SWAP1 PUSH1 0x4 SWAP1 PUSH1 0x20 DUP5 ADD SWAP1 PUSH3 0xB05 JUMP JUMPDEST POP POP PUSH1 0x5 DUP1 SLOAD PUSH1 0xFF NOT AND PUSH1 0x12 OR SWAP1 SSTORE POP DUP2 MLOAD PUSH1 0x20 SWAP3 DUP4 ADD KECCAK256 PUSH1 0xC0 MSTORE DUP1 MLOAD SWAP2 ADD KECCAK256 PUSH1 0xE0 MSTORE POP POP PUSH32 0x8B73C3C69BB8FE3D512ECC4CF759CC79239F7B179B0FFACAA9A75D522B39400F PUSH2 0x100 MSTORE POP PUSH3 0x1A8 PUSH3 0x76A700 DUP4 GT ISZERO PUSH2 0x194 PUSH3 0x511 JUMP JUMPDEST PUSH3 0x1BC PUSH3 0x278D00 DUP3 GT ISZERO PUSH2 0x195 PUSH3 0x511 JUMP JUMPDEST TIMESTAMP SWAP1 SWAP2 ADD PUSH2 0x140 DUP2 SWAP1 MSTORE ADD PUSH2 0x160 MSTORE DUP6 MLOAD PUSH3 0x1DE SWAP1 PUSH1 0x2 GT ISZERO PUSH1 0xC8 PUSH3 0x511 JUMP JUMPDEST PUSH3 0x1F8 PUSH3 0x1EC PUSH3 0x526 JUMP JUMPDEST DUP8 MLOAD GT ISZERO PUSH1 0xC9 PUSH3 0x511 JUMP JUMPDEST PUSH3 0x20E DUP7 PUSH3 0x52B PUSH1 0x20 SHL PUSH3 0xF6B OR PUSH1 0x20 SHR JUMP JUMPDEST PUSH3 0x219 DUP5 PUSH3 0x537 JUMP JUMPDEST PUSH1 0x40 MLOAD PUSH4 0x9B2760F PUSH1 0xE0 SHL DUP2 MSTORE PUSH1 0x0 SWAP1 PUSH1 0x1 PUSH1 0x1 PUSH1 0xA0 SHL SUB DUP13 AND SWAP1 PUSH4 0x9B2760F SWAP1 PUSH3 0x24A SWAP1 DUP14 SWAP1 PUSH1 0x4 ADD PUSH3 0xF61 JUMP JUMPDEST PUSH1 0x20 PUSH1 0x40 MLOAD DUP1 DUP4 SUB DUP2 PUSH1 0x0 DUP8 DUP1 EXTCODESIZE ISZERO DUP1 ISZERO PUSH3 0x265 JUMPI PUSH1 0x0 DUP1 REVERT JUMPDEST POP GAS CALL ISZERO DUP1 ISZERO PUSH3 0x27A JUMPI RETURNDATASIZE PUSH1 0x0 DUP1 RETURNDATACOPY RETURNDATASIZE PUSH1 0x0 REVERT JUMPDEST POP POP POP POP PUSH1 0x40 MLOAD RETURNDATASIZE PUSH1 0x1F NOT PUSH1 0x1F DUP3 ADD AND DUP3 ADD DUP1 PUSH1 0x40 MSTORE POP DUP2 ADD SWAP1 PUSH3 0x2A0 SWAP2 SWAP1 PUSH3 0xD38 JUMP JUMPDEST PUSH1 0x40 MLOAD PUSH4 0x3354E3E9 PUSH1 0xE1 SHL DUP2 MSTORE SWAP1 SWAP2 POP PUSH1 0x1 PUSH1 0x1 PUSH1 0xA0 SHL SUB DUP13 AND SWAP1 PUSH4 0x66A9C7D2 SWAP1 PUSH3 0x2D5 SWAP1 DUP5 SWAP1 DUP12 SWAP1 DUP12 SWAP1 PUSH1 0x4 ADD PUSH3 0xEC7 JUMP JUMPDEST PUSH1 0x0 PUSH1 0x40 MLOAD DUP1 DUP4 SUB DUP2 PUSH1 0x0 DUP8 DUP1 EXTCODESIZE ISZERO DUP1 ISZERO PUSH3 0x2F0 JUMPI PUSH1 0x0 DUP1 REVERT JUMPDEST POP GAS CALL ISZERO DUP1 ISZERO PUSH3 0x305 JUMPI RETURNDATASIZE PUSH1 0x0 DUP1 RETURNDATACOPY RETURNDATASIZE PUSH1 0x0 REVERT JUMPDEST POP POP POP POP DUP11 PUSH1 0x1 PUSH1 0x1 PUSH1 0xA0 SHL SUB AND PUSH2 0x180 DUP2 PUSH1 0x1 PUSH1 0x1 PUSH1 0xA0 SHL SUB AND PUSH1 0x60 SHL DUP2 MSTORE POP POP DUP1 PUSH2 0x1A0 DUP2 DUP2 MSTORE POP POP POP POP POP POP POP POP POP POP POP POP POP POP POP POP POP POP POP POP POP POP PUSH1 0x1 PUSH1 0xA DUP2 SWAP1 SSTORE POP PUSH1 0x0 DUP8 MLOAD SWAP1 POP PUSH3 0x36A DUP2 DUP9 MLOAD PUSH3 0x5C3 PUSH1 0x20 SHL PUSH3 0xF75 OR PUSH1 0x20 SHR JUMP JUMPDEST PUSH2 0x1C0 DUP2 SWAP1 MSTORE DUP8 MLOAD DUP9 SWAP1 PUSH1 0x0 SWAP1 PUSH3 0x37E JUMPI INVALID JUMPDEST PUSH1 0x20 MUL PUSH1 0x20 ADD ADD MLOAD PUSH1 0x1 PUSH1 0x1 PUSH1 0xA0 SHL SUB AND PUSH2 0x1E0 DUP2 PUSH1 0x1 PUSH1 0x1 PUSH1 0xA0 SHL SUB AND PUSH1 0x60 SHL DUP2 MSTORE POP POP DUP8 PUSH1 0x1 DUP2 MLOAD DUP2 LT PUSH3 0x3B1 JUMPI INVALID JUMPDEST PUSH1 0x20 MUL PUSH1 0x20 ADD ADD MLOAD PUSH1 0x1 PUSH1 0x1 PUSH1 0xA0 SHL SUB AND PUSH2 0x200 DUP2 PUSH1 0x1 PUSH1 0x1 PUSH1 0xA0 SHL SUB AND PUSH1 0x60 SHL DUP2 MSTORE POP POP PUSH1 0x2 DUP2 GT PUSH3 0x3E7 JUMPI PUSH1 0x0 PUSH3 0x3FE JUMP JUMPDEST DUP8 PUSH1 0x2 DUP2 MLOAD DUP2 LT PUSH3 0x3F5 JUMPI INVALID JUMPDEST PUSH1 0x20 MUL PUSH1 0x20 ADD ADD MLOAD JUMPDEST PUSH1 0x60 SHL PUSH1 0x1 PUSH1 0x1 PUSH1 0x60 SHL SUB NOT AND PUSH2 0x220 MSTORE PUSH1 0x3 DUP2 GT PUSH3 0x420 JUMPI PUSH1 0x0 PUSH3 0x437 JUMP JUMPDEST DUP8 PUSH1 0x3 DUP2 MLOAD DUP2 LT PUSH3 0x42E JUMPI INVALID JUMPDEST PUSH1 0x20 MUL PUSH1 0x20 ADD ADD MLOAD JUMPDEST PUSH1 0x1 PUSH1 0x1 PUSH1 0xA0 SHL SUB AND PUSH2 0x240 DUP2 PUSH1 0x1 PUSH1 0x1 PUSH1 0xA0 SHL SUB AND PUSH1 0x60 SHL DUP2 MSTORE POP POP PUSH3 0x47A DUP9 PUSH1 0x0 DUP2 MLOAD DUP2 LT PUSH3 0x466 JUMPI INVALID JUMPDEST PUSH1 0x20 MUL PUSH1 0x20 ADD ADD MLOAD PUSH3 0x5D2 PUSH1 0x20 SHL PUSH1 0x20 SHR JUMP JUMPDEST PUSH2 0x260 MSTORE DUP8 MLOAD PUSH3 0x493 SWAP1 DUP10 SWAP1 PUSH1 0x1 SWAP1 DUP2 LT PUSH3 0x466 JUMPI INVALID JUMPDEST PUSH2 0x280 MSTORE PUSH1 0x2 DUP2 GT PUSH3 0x4A8 JUMPI PUSH1 0x0 PUSH3 0x4BA JUMP JUMPDEST PUSH3 0x4BA DUP9 PUSH1 0x2 DUP2 MLOAD DUP2 LT PUSH3 0x466 JUMPI INVALID JUMPDEST PUSH2 0x2A0 MSTORE PUSH1 0x3 DUP2 GT PUSH3 0x4CF JUMPI PUSH1 0x0 PUSH3 0x4E1 JUMP JUMPDEST PUSH3 0x4E1 DUP9 PUSH1 0x3 DUP2 MLOAD DUP2 LT PUSH3 0x466 JUMPI INVALID JUMPDEST PUSH2 0x2C0 MSTORE TIMESTAMP PUSH3 0x4F4 DUP2 DUP1 DUP11 DUP1 PUSH3 0x683 JUMP JUMPDEST PUSH3 0x4FF DUP4 PUSH3 0x811 JUMP JUMPDEST POP POP POP POP POP POP POP POP POP POP POP POP PUSH3 0x1017 JUMP JUMPDEST DUP2 PUSH3 0x522 JUMPI PUSH3 0x522 DUP2 PUSH3 0x865 JUMP JUMPDEST POP POP JUMP JUMPDEST PUSH1 0x4 SWAP1 JUMP JUMPDEST DUP1 PUSH3 0x522 DUP2 PUSH3 0x8B8 JUMP JUMPDEST PUSH3 0x54C PUSH5 0xE8D4A51000 DUP3 LT ISZERO PUSH1 0xCB PUSH3 0x511 JUMP JUMPDEST PUSH3 0x564 PUSH8 0x16345785D8A0000 DUP3 GT ISZERO PUSH1 0xCA PUSH3 0x511 JUMP JUMPDEST PUSH3 0x583 DUP2 PUSH1 0xC0 PUSH1 0x8 SLOAD PUSH3 0x945 PUSH1 0x20 SHL PUSH3 0xF82 OR SWAP1 SWAP3 SWAP2 SWAP1 PUSH1 0x20 SHR JUMP JUMPDEST PUSH1 0x8 SSTORE PUSH1 0x40 MLOAD PUSH32 0xA9BA3FFE0B6C366B81232CAAB38605A0699AD5398D6CCE76F91EE809E322DAFC SWAP1 PUSH3 0x5B8 SWAP1 DUP4 SWAP1 PUSH3 0xF76 JUMP JUMPDEST PUSH1 0x40 MLOAD DUP1 SWAP2 SUB SWAP1 LOG1 POP JUMP JUMPDEST PUSH3 0x522 DUP3 DUP3 EQ PUSH1 0x67 PUSH3 0x511 JUMP JUMPDEST PUSH1 0x0 DUP1 DUP3 PUSH1 0x1 PUSH1 0x1 PUSH1 0xA0 SHL SUB AND PUSH4 0x313CE567 PUSH1 0x40 MLOAD DUP2 PUSH4 0xFFFFFFFF AND PUSH1 0xE0 SHL DUP2 MSTORE PUSH1 0x4 ADD PUSH1 0x20 PUSH1 0x40 MLOAD DUP1 DUP4 SUB DUP2 DUP7 DUP1 EXTCODESIZE ISZERO DUP1 ISZERO PUSH3 0x60F JUMPI PUSH1 0x0 DUP1 REVERT JUMPDEST POP GAS STATICCALL ISZERO DUP1 ISZERO PUSH3 0x624 JUMPI RETURNDATASIZE PUSH1 0x0 DUP1 RETURNDATACOPY RETURNDATASIZE PUSH1 0x0 REVERT JUMPDEST POP POP POP POP PUSH1 0x40 MLOAD RETURNDATASIZE PUSH1 0x1F NOT PUSH1 0x1F DUP3 ADD AND DUP3 ADD DUP1 PUSH1 0x40 MSTORE POP DUP2 ADD SWAP1 PUSH3 0x64A SWAP2 SWAP1 PUSH3 0xE5D JUMP JUMPDEST PUSH1 0xFF AND SWAP1 POP PUSH1 0x0 PUSH3 0x669 PUSH1 0x12 DUP4 PUSH3 0x95A PUSH1 0x20 SHL PUSH3 0xF97 OR PUSH1 0x20 SHR JUMP JUMPDEST SWAP1 POP DUP1 PUSH1 0xA EXP PUSH8 0xDE0B6B3A7640000 MUL SWAP3 POP POP POP JUMPDEST SWAP2 SWAP1 POP JUMP JUMPDEST PUSH1 0xB SLOAD PUSH1 0x0 DUP1 JUMPDEST DUP4 MLOAD DUP2 LT ISZERO PUSH3 0x774 JUMPI PUSH1 0x0 DUP5 DUP3 DUP2 MLOAD DUP2 LT PUSH3 0x6A3 JUMPI INVALID JUMPDEST PUSH1 0x20 MUL PUSH1 0x20 ADD ADD MLOAD SWAP1 POP PUSH3 0x6CB PUSH7 0x2386F26FC10000 DUP3 LT ISZERO PUSH2 0x12E PUSH3 0x511 PUSH1 0x20 SHL PUSH1 0x20 SHR JUMP JUMPDEST PUSH3 0x74C PUSH3 0x6E5 DUP3 PUSH3 0x977 PUSH1 0x20 SHL PUSH3 0xFAD OR PUSH1 0x20 SHR JUMP JUMPDEST DUP4 PUSH1 0x10 MUL PUSH1 0x80 ADD PUSH3 0x737 PUSH3 0x71A DUP11 DUP8 DUP2 MLOAD DUP2 LT PUSH3 0x701 JUMPI INVALID JUMPDEST PUSH1 0x20 MUL PUSH1 0x20 ADD ADD MLOAD PUSH3 0x9B8 PUSH1 0x20 SHL PUSH3 0xFCD OR PUSH1 0x20 SHR JUMP JUMPDEST DUP7 PUSH1 0x1F MUL PUSH1 0x4 ADD DUP10 PUSH3 0x9E5 PUSH1 0x20 SHL PUSH3 0xFE9 OR SWAP1 SWAP3 SWAP2 SWAP1 PUSH1 0x20 SHR JUMP JUMPDEST PUSH3 0x9F7 PUSH1 0x20 SHL PUSH3 0xFFB OR SWAP1 SWAP3 SWAP2 SWAP1 PUSH1 0x20 SHR JUMP JUMPDEST SWAP4 POP PUSH3 0x768 DUP2 DUP5 PUSH3 0xA07 PUSH1 0x20 SHL PUSH3 0x100B OR SWAP1 SWAP2 SWAP1 PUSH1 0x20 SHR JUMP JUMPDEST SWAP3 POP POP PUSH1 0x1 ADD PUSH3 0x68A JUMP JUMPDEST POP PUSH3 0x78D PUSH8 0xDE0B6B3A7640000 DUP3 EQ PUSH2 0x134 PUSH3 0x511 JUMP JUMPDEST PUSH3 0x7C6 DUP6 PUSH1 0xE0 PUSH3 0x7B1 DUP10 PUSH1 0xC0 DUP8 PUSH3 0xA22 PUSH1 0x20 SHL PUSH3 0x101D OR SWAP1 SWAP3 SWAP2 SWAP1 PUSH1 0x20 SHR JUMP JUMPDEST PUSH3 0xA22 PUSH1 0x20 SHL PUSH3 0x101D OR SWAP1 SWAP3 SWAP2 SWAP1 PUSH1 0x20 SHR JUMP JUMPDEST PUSH1 0xB SSTORE PUSH1 0x40 MLOAD PUSH32 0xF3631F9DAB08169D1DB21C6DC5F32536FB2B0A6B9BB5330D71C52132F968BE0 SWAP1 PUSH3 0x801 SWAP1 DUP9 SWAP1 DUP9 SWAP1 DUP9 SWAP1 DUP9 SWAP1 PUSH3 0xF7F JUMP JUMPDEST PUSH1 0x40 MLOAD DUP1 SWAP2 SUB SWAP1 LOG1 POP POP POP POP POP POP JUMP JUMPDEST PUSH3 0x830 DUP2 PUSH1 0x0 PUSH1 0xB SLOAD PUSH3 0xA34 PUSH1 0x20 SHL PUSH3 0x102F OR SWAP1 SWAP3 SWAP2 SWAP1 PUSH1 0x20 SHR JUMP JUMPDEST PUSH1 0xB SSTORE PUSH1 0x40 MLOAD PUSH32 0x5A9E84F78F7957CB4ED7478EB0FCAD35EE4ECBE2E0F298420B28A3955392573F SWAP1 PUSH3 0x5B8 SWAP1 DUP4 SWAP1 PUSH3 0xEBC JUMP JUMPDEST PUSH3 0x461BCD PUSH1 0xE5 SHL PUSH1 0x0 SWAP1 DUP2 MSTORE PUSH1 0x20 PUSH1 0x4 MSTORE PUSH1 0x7 PUSH1 0x24 MSTORE PUSH7 0x42414C23000030 PUSH1 0xA DUP1 DUP5 DIV DUP2 DUP2 MOD PUSH1 0x30 SWAP1 DUP2 ADD PUSH1 0x8 SHL SWAP6 DUP4 SWAP1 MOD SWAP6 SWAP1 SWAP6 ADD SWAP1 DUP3 SWAP1 DIV SWAP2 DUP3 MOD SWAP1 SWAP5 ADD PUSH1 0x10 SHL SWAP4 SWAP1 SWAP4 ADD ADD PUSH1 0xC8 SHL PUSH1 0x44 MSTORE PUSH1 0x64 SWAP1 REVERT JUMPDEST PUSH1 0x2 DUP2 MLOAD LT ISZERO PUSH3 0x8C9 JUMPI PUSH3 0x942 JUMP JUMPDEST PUSH1 0x0 DUP2 PUSH1 0x0 DUP2 MLOAD DUP2 LT PUSH3 0x8D9 JUMPI INVALID JUMPDEST PUSH1 0x20 MUL PUSH1 0x20 ADD ADD MLOAD SWAP1 POP PUSH1 0x0 PUSH1 0x1 SWAP1 POP JUMPDEST DUP3 MLOAD DUP2 LT ISZERO PUSH3 0x93F JUMPI PUSH1 0x0 DUP4 DUP3 DUP2 MLOAD DUP2 LT PUSH3 0x903 JUMPI INVALID JUMPDEST PUSH1 0x20 MUL PUSH1 0x20 ADD ADD MLOAD SWAP1 POP PUSH3 0x934 DUP2 PUSH1 0x1 PUSH1 0x1 PUSH1 0xA0 SHL SUB AND DUP5 PUSH1 0x1 PUSH1 0x1 PUSH1 0xA0 SHL SUB AND LT PUSH1 0x65 PUSH3 0x511 PUSH1 0x20 SHL PUSH1 0x20 SHR JUMP JUMPDEST SWAP2 POP PUSH1 0x1 ADD PUSH3 0x8EA JUMP JUMPDEST POP POP JUMPDEST POP JUMP JUMPDEST PUSH1 0x1 PUSH1 0x1 PUSH1 0x40 SHL SUB DUP2 SHL NOT SWAP3 SWAP1 SWAP3 AND SWAP2 SHL OR SWAP1 JUMP JUMPDEST PUSH1 0x0 PUSH3 0x96C DUP4 DUP4 GT ISZERO PUSH1 0x1 PUSH3 0x511 JUMP JUMPDEST POP DUP1 DUP3 SUB JUMPDEST SWAP3 SWAP2 POP POP JUMP JUMPDEST PUSH1 0x0 PUSH3 0x971 PUSH8 0xDE0B6B3A7640000 PUSH3 0x9A4 PUSH2 0xFFFF DUP1 AND DUP6 PUSH3 0xA5D PUSH1 0x20 SHL PUSH3 0x1056 OR SWAP1 SWAP2 SWAP1 PUSH1 0x20 SHR JUMP JUMPDEST PUSH3 0xAB2 PUSH1 0x20 SHL PUSH3 0x10A4 OR SWAP1 SWAP2 SWAP1 PUSH1 0x20 SHR JUMP JUMPDEST PUSH1 0x0 PUSH3 0x971 PUSH8 0xDE0B6B3A7640000 PUSH3 0x9A4 PUSH4 0x7FFFFFFF DUP6 PUSH3 0xA5D PUSH1 0x20 SHL PUSH3 0x1056 OR SWAP1 SWAP2 SWAP1 PUSH1 0x20 SHR JUMP JUMPDEST PUSH4 0x7FFFFFFF DUP2 SHL NOT SWAP3 SWAP1 SWAP3 AND SWAP2 SHL OR SWAP1 JUMP JUMPDEST PUSH2 0xFFFF DUP2 SHL NOT SWAP3 SWAP1 SWAP3 AND SWAP2 SHL OR SWAP1 JUMP JUMPDEST PUSH1 0x0 DUP3 DUP3 ADD PUSH3 0xA1B DUP5 DUP3 LT ISZERO DUP4 PUSH3 0x511 JUMP JUMPDEST SWAP4 SWAP3 POP POP POP JUMP JUMPDEST PUSH4 0xFFFFFFFF DUP2 SHL NOT SWAP3 SWAP1 SWAP3 AND SWAP2 SHL OR SWAP1 JUMP JUMPDEST PUSH1 0x0 PUSH1 0x1 DUP3 SHL NOT DUP5 AND DUP3 DUP5 PUSH3 0xA4C JUMPI PUSH1 0x0 PUSH3 0xA4F JUMP JUMPDEST PUSH1 0x1 JUMPDEST PUSH1 0xFF AND SWAP1 SHL OR SWAP5 SWAP4 POP POP POP POP JUMP JUMPDEST PUSH1 0x0 DUP3 DUP3 MUL PUSH3 0xA85 DUP5 ISZERO DUP1 PUSH3 0xA7D JUMPI POP DUP4 DUP6 DUP4 DUP2 PUSH3 0xA7A JUMPI INVALID JUMPDEST DIV EQ JUMPDEST PUSH1 0x3 PUSH3 0x511 JUMP JUMPDEST DUP1 PUSH3 0xA96 JUMPI PUSH1 0x0 SWAP2 POP POP PUSH3 0x971 JUMP JUMPDEST PUSH8 0xDE0B6B3A7640000 PUSH1 0x0 NOT DUP3 ADD JUMPDEST DIV PUSH1 0x1 ADD SWAP2 POP POP PUSH3 0x971 JUMP JUMPDEST PUSH1 0x0 PUSH3 0xAC3 DUP3 ISZERO ISZERO PUSH1 0x4 PUSH3 0x511 JUMP JUMPDEST DUP3 PUSH3 0xAD2 JUMPI POP PUSH1 0x0 PUSH3 0x971 JUMP JUMPDEST PUSH8 0xDE0B6B3A7640000 DUP4 DUP2 MUL SWAP1 PUSH3 0xAF8 SWAP1 DUP6 DUP4 DUP2 PUSH3 0xAEE JUMPI INVALID JUMPDEST DIV EQ PUSH1 0x5 PUSH3 0x511 JUMP JUMPDEST DUP3 PUSH1 0x1 DUP3 SUB DUP2 PUSH3 0xAA5 JUMPI INVALID JUMPDEST DUP3 DUP1 SLOAD PUSH1 0x1 DUP2 PUSH1 0x1 AND ISZERO PUSH2 0x100 MUL SUB AND PUSH1 0x2 SWAP1 DIV SWAP1 PUSH1 0x0 MSTORE PUSH1 0x20 PUSH1 0x0 KECCAK256 SWAP1 PUSH1 0x1F ADD PUSH1 0x20 SWAP1 DIV DUP2 ADD SWAP3 DUP3 PUSH3 0xB3D JUMPI PUSH1 0x0 DUP6 SSTORE PUSH3 0xB88 JUMP JUMPDEST DUP3 PUSH1 0x1F LT PUSH3 0xB58 JUMPI DUP1 MLOAD PUSH1 0xFF NOT AND DUP4 DUP1 ADD OR DUP6 SSTORE PUSH3 0xB88 JUMP JUMPDEST DUP3 DUP1 ADD PUSH1 0x1 ADD DUP6 SSTORE DUP3 ISZERO PUSH3 0xB88 JUMPI SWAP2 DUP3 ADD JUMPDEST DUP3 DUP2 GT ISZERO PUSH3 0xB88 JUMPI DUP3 MLOAD DUP3 SSTORE SWAP2 PUSH1 0x20 ADD SWAP2 SWAP1 PUSH1 0x1 ADD SWAP1 PUSH3 0xB6B JUMP JUMPDEST POP PUSH3 0xB96 SWAP3 SWAP2 POP PUSH3 0xB9A JUMP JUMPDEST POP SWAP1 JUMP JUMPDEST JUMPDEST DUP1 DUP3 GT ISZERO PUSH3 0xB96 JUMPI PUSH1 0x0 DUP2 SSTORE PUSH1 0x1 ADD PUSH3 0xB9B JUMP JUMPDEST DUP1 MLOAD PUSH3 0x67E DUP2 PUSH3 0x1001 JUMP JUMPDEST PUSH1 0x0 DUP3 PUSH1 0x1F DUP4 ADD SLT PUSH3 0xBCF JUMPI DUP1 DUP2 REVERT JUMPDEST DUP2 MLOAD PUSH1 0x20 PUSH3 0xBE8 PUSH3 0xBE2 DUP4 PUSH3 0xFE3 JUMP JUMPDEST PUSH3 0xFBF JUMP JUMPDEST DUP3 DUP2 MSTORE DUP2 DUP2 ADD SWAP1 DUP6 DUP4 ADD DUP4 DUP6 MUL DUP8 ADD DUP5 ADD DUP9 LT ISZERO PUSH3 0xC05 JUMPI DUP6 DUP7 REVERT JUMPDEST DUP6 JUMPDEST DUP6 DUP2 LT ISZERO PUSH3 0xC30 JUMPI DUP2 MLOAD PUSH3 0xC1D DUP2 PUSH3 0x1001 JUMP JUMPDEST DUP5 MSTORE SWAP3 DUP5 ADD SWAP3 SWAP1 DUP5 ADD SWAP1 PUSH1 0x1 ADD PUSH3 0xC07 JUMP JUMPDEST POP SWAP1 SWAP8 SWAP7 POP POP POP POP POP POP POP JUMP JUMPDEST PUSH1 0x0 DUP3 PUSH1 0x1F DUP4 ADD SLT PUSH3 0xC4E JUMPI DUP1 DUP2 REVERT JUMPDEST DUP2 MLOAD PUSH1 0x20 PUSH3 0xC61 PUSH3 0xBE2 DUP4 PUSH3 0xFE3 JUMP JUMPDEST DUP3 DUP2 MSTORE DUP2 DUP2 ADD SWAP1 DUP6 DUP4 ADD DUP4 DUP6 MUL DUP8 ADD DUP5 ADD DUP9 LT ISZERO PUSH3 0xC7E JUMPI DUP6 DUP7 REVERT JUMPDEST DUP6 JUMPDEST DUP6 DUP2 LT ISZERO PUSH3 0xC30 JUMPI DUP2 MLOAD DUP5 MSTORE SWAP3 DUP5 ADD SWAP3 SWAP1 DUP5 ADD SWAP1 PUSH1 0x1 ADD PUSH3 0xC80 JUMP JUMPDEST DUP1 MLOAD DUP1 ISZERO ISZERO DUP2 EQ PUSH3 0x67E JUMPI PUSH1 0x0 DUP1 REVERT JUMPDEST PUSH1 0x0 DUP3 PUSH1 0x1F DUP4 ADD SLT PUSH3 0xCC0 JUMPI DUP1 DUP2 REVERT JUMPDEST DUP2 MLOAD PUSH1 0x1 PUSH1 0x1 PUSH1 0x40 SHL SUB DUP2 GT ISZERO PUSH3 0xCD4 JUMPI INVALID JUMPDEST PUSH1 0x20 PUSH3 0xCEA PUSH1 0x1F DUP4 ADD PUSH1 0x1F NOT AND DUP3 ADD PUSH3 0xFBF JUMP JUMPDEST DUP3 DUP2 MSTORE DUP6 DUP3 DUP5 DUP8 ADD ADD GT ISZERO PUSH3 0xCFE JUMPI DUP4 DUP5 REVERT JUMPDEST DUP4 JUMPDEST DUP4 DUP2 LT ISZERO PUSH3 0xD1D JUMPI DUP6 DUP2 ADD DUP4 ADD MLOAD DUP3 DUP3 ADD DUP5 ADD MSTORE DUP3 ADD PUSH3 0xD00 JUMP JUMPDEST DUP4 DUP2 GT ISZERO PUSH3 0xD2E JUMPI DUP5 DUP4 DUP6 DUP5 ADD ADD MSTORE JUMPDEST POP SWAP6 SWAP5 POP POP POP POP POP JUMP JUMPDEST PUSH1 0x0 PUSH1 0x20 DUP3 DUP5 SUB SLT ISZERO PUSH3 0xD4A JUMPI DUP1 DUP2 REVERT JUMPDEST POP MLOAD SWAP2 SWAP1 POP JUMP JUMPDEST PUSH1 0x0 DUP1 PUSH1 0x0 DUP1 PUSH1 0x0 DUP1 PUSH1 0x0 DUP1 PUSH1 0x0 DUP1 PUSH2 0x140 DUP12 DUP14 SUB SLT ISZERO PUSH3 0xD71 JUMPI DUP6 DUP7 REVERT JUMPDEST PUSH3 0xD7C DUP12 PUSH3 0xBB1 JUMP JUMPDEST PUSH1 0x20 DUP13 ADD MLOAD SWAP1 SWAP11 POP PUSH1 0x1 PUSH1 0x1 PUSH1 0x40 SHL SUB DUP1 DUP3 GT ISZERO PUSH3 0xD99 JUMPI DUP8 DUP9 REVERT JUMPDEST PUSH3 0xDA7 DUP15 DUP4 DUP16 ADD PUSH3 0xCAF JUMP JUMPDEST SWAP11 POP PUSH1 0x40 DUP14 ADD MLOAD SWAP2 POP DUP1 DUP3 GT ISZERO PUSH3 0xDBD JUMPI DUP8 DUP9 REVERT JUMPDEST PUSH3 0xDCB DUP15 DUP4 DUP16 ADD PUSH3 0xCAF JUMP JUMPDEST SWAP10 POP PUSH1 0x60 DUP14 ADD MLOAD SWAP2 POP DUP1 DUP3 GT ISZERO PUSH3 0xDE1 JUMPI DUP8 DUP9 REVERT JUMPDEST PUSH3 0xDEF DUP15 DUP4 DUP16 ADD PUSH3 0xBBE JUMP JUMPDEST SWAP9 POP PUSH1 0x80 DUP14 ADD MLOAD SWAP2 POP DUP1 DUP3 GT ISZERO PUSH3 0xE05 JUMPI DUP8 DUP9 REVERT JUMPDEST POP PUSH3 0xE14 DUP14 DUP3 DUP15 ADD PUSH3 0xC3D JUMP JUMPDEST SWAP7 POP POP PUSH1 0xA0 DUP12 ADD MLOAD SWAP5 POP PUSH1 0xC0 DUP12 ADD MLOAD SWAP4 POP PUSH1 0xE0 DUP12 ADD MLOAD SWAP3 POP PUSH3 0xE3B PUSH2 0x100 DUP13 ADD PUSH3 0xBB1 JUMP JUMPDEST SWAP2 POP PUSH3 0xE4C PUSH2 0x120 DUP13 ADD PUSH3 0xC9E JUMP JUMPDEST SWAP1 POP SWAP3 SWAP6 SWAP9 SWAP12 SWAP2 SWAP5 SWAP8 SWAP11 POP SWAP3 SWAP6 SWAP9 POP JUMP JUMPDEST PUSH1 0x0 PUSH1 0x20 DUP3 DUP5 SUB SLT ISZERO PUSH3 0xE6F JUMPI DUP1 DUP2 REVERT JUMPDEST DUP2 MLOAD PUSH1 0xFF DUP2 AND DUP2 EQ PUSH3 0xA1B JUMPI DUP2 DUP3 REVERT JUMPDEST PUSH1 0x0 DUP2 MLOAD DUP1 DUP5 MSTORE PUSH1 0x20 DUP1 DUP6 ADD SWAP5 POP DUP1 DUP5 ADD DUP4 JUMPDEST DUP4 DUP2 LT ISZERO PUSH3 0xEB1 JUMPI DUP2 MLOAD DUP8 MSTORE SWAP6 DUP3 ADD SWAP6 SWAP1 DUP3 ADD SWAP1 PUSH1 0x1 ADD PUSH3 0xE93 JUMP JUMPDEST POP SWAP5 SWAP6 SWAP5 POP POP POP POP POP JUMP JUMPDEST SWAP1 ISZERO ISZERO DUP2 MSTORE PUSH1 0x20 ADD SWAP1 JUMP JUMPDEST PUSH1 0x0 PUSH1 0x60 DUP3 ADD DUP6 DUP4 MSTORE PUSH1 0x20 PUSH1 0x60 DUP2 DUP6 ADD MSTORE DUP2 DUP7 MLOAD DUP1 DUP5 MSTORE PUSH1 0x80 DUP7 ADD SWAP2 POP DUP3 DUP9 ADD SWAP4 POP DUP5 JUMPDEST DUP2 DUP2 LT ISZERO PUSH3 0xF12 JUMPI DUP5 MLOAD PUSH1 0x1 PUSH1 0x1 PUSH1 0xA0 SHL SUB AND DUP4 MSTORE SWAP4 DUP4 ADD SWAP4 SWAP2 DUP4 ADD SWAP2 PUSH1 0x1 ADD PUSH3 0xEEB JUMP JUMPDEST POP POP DUP5 DUP2 SUB PUSH1 0x40 DUP7 ADD MSTORE DUP6 MLOAD DUP1 DUP3 MSTORE SWAP1 DUP3 ADD SWAP3 POP DUP2 DUP7 ADD SWAP1 DUP5 JUMPDEST DUP2 DUP2 LT ISZERO PUSH3 0xF53 JUMPI DUP3 MLOAD PUSH1 0x1 PUSH1 0x1 PUSH1 0xA0 SHL SUB AND DUP6 MSTORE SWAP4 DUP4 ADD SWAP4 SWAP2 DUP4 ADD SWAP2 PUSH1 0x1 ADD PUSH3 0xF2C JUMP JUMPDEST POP SWAP3 SWAP9 SWAP8 POP POP POP POP POP POP POP POP JUMP JUMPDEST PUSH1 0x20 DUP2 ADD PUSH1 0x3 DUP4 LT PUSH3 0xF70 JUMPI INVALID JUMPDEST SWAP2 SWAP1 MSTORE SWAP1 JUMP JUMPDEST SWAP1 DUP2 MSTORE PUSH1 0x20 ADD SWAP1 JUMP JUMPDEST PUSH1 0x0 DUP6 DUP3 MSTORE DUP5 PUSH1 0x20 DUP4 ADD MSTORE PUSH1 0x80 PUSH1 0x40 DUP4 ADD MSTORE PUSH3 0xFA0 PUSH1 0x80 DUP4 ADD DUP6 PUSH3 0xE80 JUMP JUMPDEST DUP3 DUP2 SUB PUSH1 0x60 DUP5 ADD MSTORE PUSH3 0xFB4 DUP2 DUP6 PUSH3 0xE80 JUMP JUMPDEST SWAP8 SWAP7 POP POP POP POP POP POP POP JUMP JUMPDEST PUSH1 0x40 MLOAD DUP2 DUP2 ADD PUSH1 0x1 PUSH1 0x1 PUSH1 0x40 SHL SUB DUP2 GT DUP3 DUP3 LT OR ISZERO PUSH3 0xFDB JUMPI INVALID JUMPDEST PUSH1 0x40 MSTORE SWAP2 SWAP1 POP JUMP JUMPDEST PUSH1 0x0 PUSH1 0x1 PUSH1 0x1 PUSH1 0x40 SHL SUB DUP3 GT ISZERO PUSH3 0xFF7 JUMPI INVALID JUMPDEST POP PUSH1 0x20 SWAP1 DUP2 MUL ADD SWAP1 JUMP JUMPDEST PUSH1 0x1 PUSH1 0x1 PUSH1 0xA0 SHL SUB DUP2 AND DUP2 EQ PUSH3 0x942 JUMPI PUSH1 0x0 DUP1 REVERT JUMPDEST PUSH1 0x80 MLOAD PUSH1 0xA0 MLOAD PUSH1 0x60 SHR PUSH1 0xC0 MLOAD PUSH1 0xE0 MLOAD PUSH2 0x100 MLOAD PUSH2 0x120 MLOAD PUSH2 0x140 MLOAD PUSH2 0x160 MLOAD PUSH2 0x180 MLOAD PUSH1 0x60 SHR PUSH2 0x1A0 MLOAD PUSH2 0x1C0 MLOAD PUSH2 0x1E0 MLOAD PUSH1 0x60 SHR PUSH2 0x200 MLOAD PUSH1 0x60 SHR PUSH2 0x220 MLOAD PUSH1 0x60 SHR PUSH2 0x240 MLOAD PUSH1 0x60 SHR PUSH2 0x260 MLOAD PUSH2 0x280 MLOAD PUSH2 0x2A0 MLOAD PUSH2 0x2C0 MLOAD PUSH2 0x4B43 PUSH3 0x111D PUSH1 0x0 CODECOPY DUP1 PUSH2 0x139A MSTORE DUP1 PUSH2 0x1ED9 MSTORE POP DUP1 PUSH2 0x1357 MSTORE DUP1 PUSH2 0x1E78 MSTORE POP DUP1 PUSH2 0x1314 MSTORE DUP1 PUSH2 0x1E17 MSTORE POP DUP1 PUSH2 0x12C3 MSTORE DUP1 PUSH2 0x1DB6 MSTORE POP DUP1 PUSH2 0x1E9E MSTORE DUP1 PUSH2 0x2D94 MSTORE POP DUP1 PUSH2 0x1E3D MSTORE DUP1 PUSH2 0x2D52 MSTORE POP DUP1 PUSH2 0x1DDC MSTORE DUP1 PUSH2 0x2D10 MSTORE POP DUP1 PUSH2 0x1D7B MSTORE DUP1 PUSH2 0x2CCE MSTORE POP DUP1 PUSH2 0x15FE MSTORE POP DUP1 PUSH2 0x67A MSTORE POP DUP1 PUSH2 0xA18 MSTORE POP DUP1 PUSH2 0x1246 MSTORE POP DUP1 PUSH2 0x1222 MSTORE POP DUP1 PUSH2 0xCD6 MSTORE POP DUP1 PUSH2 0x14CA MSTORE POP DUP1 PUSH2 0x150C MSTORE POP DUP1 PUSH2 0x14EB MSTORE POP DUP1 PUSH2 0x9F4 MSTORE POP DUP1 PUSH2 0x97E MSTORE POP PUSH2 0x4B43 PUSH1 0x0 RETURN INVALID PUSH1 0x80 PUSH1 0x40 MSTORE CALLVALUE DUP1 ISZERO PUSH2 0x10 JUMPI PUSH1 0x0 DUP1 REVERT JUMPDEST POP PUSH1 0x4 CALLDATASIZE LT PUSH2 0x232 JUMPI PUSH1 0x0 CALLDATALOAD PUSH1 0xE0 SHR DUP1 PUSH4 0x74F3B009 GT PUSH2 0x130 JUMPI DUP1 PUSH4 0x9D2C110C GT PUSH2 0xB8 JUMPI DUP1 PUSH4 0xD505ACCF GT PUSH2 0x7C JUMPI DUP1 PUSH4 0xD505ACCF EQ PUSH2 0x482 JUMPI DUP1 PUSH4 0xD5C096C4 EQ PUSH2 0x495 JUMPI DUP1 PUSH4 0xDD62ED3E EQ PUSH2 0x4A8 JUMPI DUP1 PUSH4 0xE01AF92C EQ PUSH2 0x4BB JUMPI DUP1 PUSH4 0xF89F27ED EQ PUSH2 0x4CE JUMPI PUSH2 0x232 JUMP JUMPDEST DUP1 PUSH4 0x9D2C110C EQ PUSH2 0x439 JUMPI DUP1 PUSH4 0xA457C2D7 EQ PUSH2 0x44C JUMPI DUP1 PUSH4 0xA9059CBB EQ PUSH2 0x45F JUMPI DUP1 PUSH4 0xAAABADC5 EQ PUSH2 0x472 JUMPI DUP1 PUSH4 0xC0FF1A15 EQ PUSH2 0x47A JUMPI PUSH2 0x232 JUMP JUMPDEST DUP1 PUSH4 0x87EC6817 GT PUSH2 0xFF JUMPI DUP1 PUSH4 0x87EC6817 EQ PUSH2 0x3F9 JUMPI DUP1 PUSH4 0x893D20E8 EQ PUSH2 0x40C JUMPI DUP1 PUSH4 0x8D928AF8 EQ PUSH2 0x421 JUMPI DUP1 PUSH4 0x95D89B41 EQ PUSH2 0x429 JUMPI DUP1 PUSH4 0x9B02CDDE EQ PUSH2 0x431 JUMPI PUSH2 0x232 JUMP JUMPDEST DUP1 PUSH4 0x74F3B009 EQ PUSH2 0x39B JUMPI DUP1 PUSH4 0x7BEED220 EQ PUSH2 0x3BC JUMPI DUP1 PUSH4 0x7ECEBE00 EQ PUSH2 0x3D3 JUMPI DUP1 PUSH4 0x851C1BB3 EQ PUSH2 0x3E6 JUMPI PUSH2 0x232 JUMP JUMPDEST DUP1 PUSH4 0x38E9922E GT PUSH2 0x1BE JUMPI DUP1 PUSH4 0x50DD6ED9 GT PUSH2 0x182 JUMPI DUP1 PUSH4 0x50DD6ED9 EQ PUSH2 0x344 JUMPI DUP1 PUSH4 0x55C67628 EQ PUSH2 0x357 JUMPI DUP1 PUSH4 0x6028BFD4 EQ PUSH2 0x35F JUMPI DUP1 PUSH4 0x679AEFCE EQ PUSH2 0x380 JUMPI DUP1 PUSH4 0x70A08231 EQ PUSH2 0x388 JUMPI PUSH2 0x232 JUMP JUMPDEST DUP1 PUSH4 0x38E9922E EQ PUSH2 0x2FB JUMPI DUP1 PUSH4 0x38FFF2D0 EQ PUSH2 0x30E JUMPI DUP1 PUSH4 0x39509351 EQ PUSH2 0x316 JUMPI DUP1 PUSH4 0x3E569205 EQ PUSH2 0x329 JUMPI DUP1 PUSH4 0x47BC4D92 EQ PUSH2 0x33C JUMPI PUSH2 0x232 JUMP JUMPDEST DUP1 PUSH4 0x1C0DE051 GT PUSH2 0x205 JUMPI DUP1 PUSH4 0x1C0DE051 EQ PUSH2 0x29F JUMPI DUP1 PUSH4 0x1DD746EA EQ PUSH2 0x2B6 JUMPI DUP1 PUSH4 0x23B872DD EQ PUSH2 0x2CB JUMPI DUP1 PUSH4 0x313CE567 EQ PUSH2 0x2DE JUMPI DUP1 PUSH4 0x3644E515 EQ PUSH2 0x2F3 JUMPI PUSH2 0x232 JUMP JUMPDEST DUP1 PUSH4 0x6FDDE03 EQ PUSH2 0x237 JUMPI DUP1 PUSH4 0x95EA7B3 EQ PUSH2 0x255 JUMPI DUP1 PUSH4 0x16C38B3C EQ PUSH2 0x275 JUMPI DUP1 PUSH4 0x18160DDD EQ PUSH2 0x28A JUMPI JUMPDEST PUSH1 0x0 DUP1 REVERT JUMPDEST PUSH2 0x23F PUSH2 0x4D6 JUMP JUMPDEST PUSH1 0x40 MLOAD PUSH2 0x24C SWAP2 SWAP1 PUSH2 0x4A13 JUMP JUMPDEST PUSH1 0x40 MLOAD DUP1 SWAP2 SUB SWAP1 RETURN JUMPDEST PUSH2 0x268 PUSH2 0x263 CALLDATASIZE PUSH1 0x4 PUSH2 0x4301 JUMP JUMPDEST PUSH2 0x56D JUMP JUMPDEST PUSH1 0x40 MLOAD PUSH2 0x24C SWAP2 SWAP1 PUSH2 0x491A JUMP JUMPDEST PUSH2 0x288 PUSH2 0x283 CALLDATASIZE PUSH1 0x4 PUSH2 0x43F7 JUMP JUMPDEST PUSH2 0x584 JUMP JUMPDEST STOP JUMPDEST PUSH2 0x292 PUSH2 0x598 JUMP JUMPDEST PUSH1 0x40 MLOAD PUSH2 0x24C SWAP2 SWAP1 PUSH2 0x493D JUMP JUMPDEST PUSH2 0x2A7 PUSH2 0x59E JUMP JUMPDEST PUSH1 0x40 MLOAD PUSH2 0x24C SWAP4 SWAP3 SWAP2 SWAP1 PUSH2 0x4925 JUMP JUMPDEST PUSH2 0x2BE PUSH2 0x5C7 JUMP JUMPDEST PUSH1 0x40 MLOAD PUSH2 0x24C SWAP2 SWAP1 PUSH2 0x48E2 JUMP JUMPDEST PUSH2 0x268 PUSH2 0x2D9 CALLDATASIZE PUSH1 0x4 PUSH2 0x424C JUMP JUMPDEST PUSH2 0x5D6 JUMP JUMPDEST PUSH2 0x2E6 PUSH2 0x64C JUMP JUMPDEST PUSH1 0x40 MLOAD PUSH2 0x24C SWAP2 SWAP1 PUSH2 0x4A8F JUMP JUMPDEST PUSH2 0x292 PUSH2 0x655 JUMP JUMPDEST PUSH2 0x288 PUSH2 0x309 CALLDATASIZE PUSH1 0x4 PUSH2 0x4761 JUMP JUMPDEST PUSH2 0x65F JUMP JUMPDEST PUSH2 0x292 PUSH2 0x678 JUMP JUMPDEST PUSH2 0x268 PUSH2 0x324 CALLDATASIZE PUSH1 0x4 PUSH2 0x4301 JUMP JUMPDEST PUSH2 0x69C JUMP JUMPDEST PUSH2 0x288 PUSH2 0x337 CALLDATASIZE PUSH1 0x4 PUSH2 0x4779 JUMP JUMPDEST PUSH2 0x6D7 JUMP JUMPDEST PUSH2 0x268 PUSH2 0x73E JUMP JUMPDEST PUSH2 0x288 PUSH2 0x352 CALLDATASIZE PUSH1 0x4 PUSH2 0x4515 JUMP JUMPDEST PUSH2 0x74E JUMP JUMPDEST PUSH2 0x292 PUSH2 0x76C JUMP JUMPDEST PUSH2 0x372 PUSH2 0x36D CALLDATASIZE PUSH1 0x4 PUSH2 0x442F JUMP JUMPDEST PUSH2 0x77D JUMP JUMPDEST PUSH1 0x40 MLOAD PUSH2 0x24C SWAP3 SWAP2 SWAP1 PUSH2 0x4A26 JUMP JUMPDEST PUSH2 0x292 PUSH2 0x7B4 JUMP JUMPDEST PUSH2 0x292 PUSH2 0x396 CALLDATASIZE PUSH1 0x4 PUSH2 0x41F8 JUMP JUMPDEST PUSH2 0x7DF JUMP JUMPDEST PUSH2 0x3AE PUSH2 0x3A9 CALLDATASIZE PUSH1 0x4 PUSH2 0x442F JUMP JUMPDEST PUSH2 0x7FE JUMP JUMPDEST PUSH1 0x40 MLOAD PUSH2 0x24C SWAP3 SWAP2 SWAP1 PUSH2 0x48F5 JUMP JUMPDEST PUSH2 0x3C4 PUSH2 0x8A1 JUMP JUMPDEST PUSH1 0x40 MLOAD PUSH2 0x24C SWAP4 SWAP3 SWAP2 SWAP1 PUSH2 0x4A3F JUMP JUMPDEST PUSH2 0x292 PUSH2 0x3E1 CALLDATASIZE PUSH1 0x4 PUSH2 0x41F8 JUMP JUMPDEST PUSH2 0x95F JUMP JUMPDEST PUSH2 0x292 PUSH2 0x3F4 CALLDATASIZE PUSH1 0x4 PUSH2 0x44D1 JUMP JUMPDEST PUSH2 0x97A JUMP JUMPDEST PUSH2 0x372 PUSH2 0x407 CALLDATASIZE PUSH1 0x4 PUSH2 0x442F JUMP JUMPDEST PUSH2 0x9CC JUMP JUMPDEST PUSH2 0x414 PUSH2 0x9F2 JUMP JUMPDEST PUSH1 0x40 MLOAD PUSH2 0x24C SWAP2 SWAP1 PUSH2 0x48CE JUMP JUMPDEST PUSH2 0x414 PUSH2 0xA16 JUMP JUMPDEST PUSH2 0x23F PUSH2 0xA3A JUMP JUMPDEST PUSH2 0x292 PUSH2 0xA9B JUMP JUMPDEST PUSH2 0x292 PUSH2 0x447 CALLDATASIZE PUSH1 0x4 PUSH2 0x466B JUMP JUMPDEST PUSH2 0xAA1 JUMP JUMPDEST PUSH2 0x268 PUSH2 0x45A CALLDATASIZE PUSH1 0x4 PUSH2 0x4301 JUMP JUMPDEST PUSH2 0xB88 JUMP JUMPDEST PUSH2 0x268 PUSH2 0x46D CALLDATASIZE PUSH1 0x4 PUSH2 0x4301 JUMP JUMPDEST PUSH2 0xBC6 JUMP JUMPDEST PUSH2 0x414 PUSH2 0xBD3 JUMP JUMPDEST PUSH2 0x292 PUSH2 0xBDD JUMP JUMPDEST PUSH2 0x288 PUSH2 0x490 CALLDATASIZE PUSH1 0x4 PUSH2 0x428C JUMP JUMPDEST PUSH2 0xCA1 JUMP JUMPDEST PUSH2 0x3AE PUSH2 0x4A3 CALLDATASIZE PUSH1 0x4 PUSH2 0x442F JUMP JUMPDEST PUSH2 0xDEA JUMP JUMPDEST PUSH2 0x292 PUSH2 0x4B6 CALLDATASIZE PUSH1 0x4 PUSH2 0x4214 JUMP JUMPDEST PUSH2 0xF0D JUMP JUMPDEST PUSH2 0x288 PUSH2 0x4C9 CALLDATASIZE PUSH1 0x4 PUSH2 0x43F7 JUMP JUMPDEST PUSH2 0xF38 JUMP JUMPDEST PUSH2 0x2BE PUSH2 0xF61 JUMP JUMPDEST PUSH1 0x3 DUP1 SLOAD PUSH1 0x40 DUP1 MLOAD PUSH1 0x20 PUSH1 0x1F PUSH1 0x2 PUSH1 0x0 NOT PUSH2 0x100 PUSH1 0x1 DUP9 AND ISZERO MUL ADD SWAP1 SWAP6 AND SWAP5 SWAP1 SWAP5 DIV SWAP4 DUP5 ADD DUP2 SWAP1 DIV DUP2 MUL DUP3 ADD DUP2 ADD SWAP1 SWAP3 MSTORE DUP3 DUP2 MSTORE PUSH1 0x60 SWAP4 SWAP1 SWAP3 SWAP1 SWAP2 DUP4 ADD DUP3 DUP3 DUP1 ISZERO PUSH2 0x562 JUMPI DUP1 PUSH1 0x1F LT PUSH2 0x537 JUMPI PUSH2 0x100 DUP1 DUP4 SLOAD DIV MUL DUP4 MSTORE SWAP2 PUSH1 0x20 ADD SWAP2 PUSH2 0x562 JUMP JUMPDEST DUP3 ADD SWAP2 SWAP1 PUSH1 0x0 MSTORE PUSH1 0x20 PUSH1 0x0 KECCAK256 SWAP1 JUMPDEST DUP2 SLOAD DUP2 MSTORE SWAP1 PUSH1 0x1 ADD SWAP1 PUSH1 0x20 ADD DUP1 DUP4 GT PUSH2 0x545 JUMPI DUP3 SWAP1 SUB PUSH1 0x1F AND DUP3 ADD SWAP2 JUMPDEST POP POP POP POP POP SWAP1 POP JUMPDEST SWAP1 JUMP JUMPDEST PUSH1 0x0 PUSH2 0x57A CALLER DUP5 DUP5 PUSH2 0x10EF JUMP JUMPDEST POP PUSH1 0x1 JUMPDEST SWAP3 SWAP2 POP POP JUMP JUMPDEST PUSH2 0x58C PUSH2 0x1157 JUMP JUMPDEST PUSH2 0x595 DUP2 PUSH2 0x1185 JUMP JUMPDEST POP JUMP JUMPDEST PUSH1 0x2 SLOAD SWAP1 JUMP JUMPDEST PUSH1 0x0 DUP1 PUSH1 0x0 PUSH2 0x5AB PUSH2 0x1203 JUMP JUMPDEST ISZERO SWAP3 POP PUSH2 0x5B6 PUSH2 0x1220 JUMP JUMPDEST SWAP2 POP PUSH2 0x5C0 PUSH2 0x1244 JUMP JUMPDEST SWAP1 POP SWAP1 SWAP2 SWAP3 JUMP JUMPDEST PUSH1 0x60 PUSH2 0x5D1 PUSH2 0x1268 JUMP JUMPDEST SWAP1 POP SWAP1 JUMP JUMPDEST PUSH1 0x0 DUP1 PUSH2 0x5E3 DUP6 CALLER PUSH2 0xF0D JUMP JUMPDEST SWAP1 POP PUSH2 0x607 CALLER PUSH1 0x1 PUSH1 0x1 PUSH1 0xA0 SHL SUB DUP8 AND EQ DUP1 PUSH2 0x5FF JUMPI POP DUP4 DUP3 LT ISZERO JUMPDEST PUSH2 0x19E PUSH2 0x13D8 JUMP JUMPDEST PUSH2 0x612 DUP6 DUP6 DUP6 PUSH2 0x13E6 JUMP JUMPDEST CALLER PUSH1 0x1 PUSH1 0x1 PUSH1 0xA0 SHL SUB DUP7 AND EQ DUP1 ISZERO SWAP1 PUSH2 0x62D JUMPI POP PUSH1 0x0 NOT DUP2 EQ ISZERO JUMPDEST ISZERO PUSH2 0x63F JUMPI PUSH2 0x63F DUP6 CALLER DUP6 DUP5 SUB PUSH2 0x10EF JUMP JUMPDEST PUSH1 0x1 SWAP2 POP POP JUMPDEST SWAP4 SWAP3 POP POP POP JUMP JUMPDEST PUSH1 0x5 SLOAD PUSH1 0xFF AND SWAP1 JUMP JUMPDEST PUSH1 0x0 PUSH2 0x5D1 PUSH2 0x14C6 JUMP JUMPDEST PUSH2 0x667 PUSH2 0x1157 JUMP JUMPDEST PUSH2 0x66F PUSH2 0x1563 JUMP JUMPDEST PUSH2 0x595 DUP2 PUSH2 0x1578 JUMP JUMPDEST PUSH32 0x0 SWAP1 JUMP JUMPDEST CALLER PUSH1 0x0 DUP2 DUP2 MSTORE PUSH1 0x1 PUSH1 0x20 SWAP1 DUP2 MSTORE PUSH1 0x40 DUP1 DUP4 KECCAK256 PUSH1 0x1 PUSH1 0x1 PUSH1 0xA0 SHL SUB DUP8 AND DUP5 MSTORE SWAP1 SWAP2 MSTORE DUP2 KECCAK256 SLOAD SWAP1 SWAP2 PUSH2 0x57A SWAP2 DUP6 SWAP1 PUSH2 0x6D2 SWAP1 DUP7 PUSH2 0x100B JUMP JUMPDEST PUSH2 0x10EF JUMP JUMPDEST PUSH2 0x6DF PUSH2 0x1157 JUMP JUMPDEST PUSH2 0x6E7 PUSH2 0x1563 JUMP JUMPDEST PUSH2 0x6EF PUSH2 0x15E3 JUMP JUMPDEST PUSH2 0x701 PUSH2 0x6FA PUSH2 0x15FC JUMP JUMPDEST DUP3 MLOAD PUSH2 0xF75 JUMP JUMPDEST TIMESTAMP PUSH2 0x70C DUP2 DUP6 PUSH2 0x1620 JUMP JUMPDEST SWAP4 POP PUSH2 0x71D DUP4 DUP6 GT ISZERO PUSH2 0x146 PUSH2 0x13D8 JUMP JUMPDEST PUSH2 0x730 DUP5 DUP5 PUSH2 0x72A PUSH2 0x1637 JUMP JUMPDEST DUP6 PUSH2 0x174A JUMP JUMPDEST POP PUSH2 0x739 PUSH2 0x185F JUMP JUMPDEST POP POP POP JUMP JUMPDEST PUSH1 0xB SLOAD PUSH1 0x0 SWAP1 PUSH2 0x5D1 SWAP1 DUP3 PUSH2 0x1866 JUMP JUMPDEST PUSH2 0x756 PUSH2 0x1157 JUMP JUMPDEST PUSH2 0x75E PUSH2 0x1563 JUMP JUMPDEST PUSH2 0x768 DUP3 DUP3 PUSH2 0x1870 JUMP JUMPDEST POP POP JUMP JUMPDEST PUSH1 0x8 SLOAD PUSH1 0x0 SWAP1 PUSH2 0x5D1 SWAP1 PUSH1 0xC0 PUSH2 0x196F JUMP JUMPDEST PUSH1 0x0 PUSH1 0x60 PUSH2 0x793 DUP7 MLOAD PUSH2 0x78E PUSH2 0x15FC JUMP JUMPDEST PUSH2 0xF75 JUMP JUMPDEST PUSH2 0x7A8 DUP10 DUP10 DUP10 DUP10 DUP10 DUP10 DUP10 PUSH2 0x197C PUSH2 0x1A4A PUSH2 0x1AAB JUMP JUMPDEST SWAP8 POP SWAP8 SWAP6 POP POP POP POP POP POP JUMP JUMPDEST PUSH1 0x0 PUSH2 0x5D1 PUSH2 0x7C1 PUSH2 0x598 JUMP JUMPDEST PUSH2 0x7D9 PUSH2 0x7CC PUSH2 0xBDD JUMP JUMPDEST PUSH2 0x7D4 PUSH2 0x15FC JUMP JUMPDEST PUSH2 0x1BCD JUMP JUMPDEST SWAP1 PUSH2 0x1BE7 JUMP JUMPDEST PUSH1 0x1 PUSH1 0x1 PUSH1 0xA0 SHL SUB DUP2 AND PUSH1 0x0 SWAP1 DUP2 MSTORE PUSH1 0x20 DUP2 SWAP1 MSTORE PUSH1 0x40 SWAP1 KECCAK256 SLOAD JUMPDEST SWAP2 SWAP1 POP JUMP JUMPDEST PUSH1 0x60 DUP1 DUP9 PUSH2 0x828 PUSH2 0x80D PUSH2 0xA16 JUMP JUMPDEST PUSH1 0x1 PUSH1 0x1 PUSH1 0xA0 SHL SUB AND CALLER PUSH1 0x1 PUSH1 0x1 PUSH1 0xA0 SHL SUB AND EQ PUSH1 0xCD PUSH2 0x13D8 JUMP JUMPDEST PUSH2 0x83D PUSH2 0x833 PUSH2 0x678 JUMP JUMPDEST DUP3 EQ PUSH2 0x1F4 PUSH2 0x13D8 JUMP JUMPDEST PUSH1 0x0 PUSH2 0x847 PUSH2 0x1268 JUMP JUMPDEST SWAP1 POP PUSH2 0x853 DUP9 DUP3 PUSH2 0x1C2F JUMP JUMPDEST PUSH1 0x0 DUP1 PUSH1 0x0 PUSH2 0x868 DUP15 DUP15 DUP15 DUP15 DUP15 DUP15 DUP11 DUP16 PUSH2 0x197C JUMP JUMPDEST SWAP3 POP SWAP3 POP SWAP3 POP PUSH2 0x878 DUP14 DUP5 PUSH2 0x1C90 JUMP JUMPDEST PUSH2 0x882 DUP3 DUP6 PUSH2 0x1A4A JUMP JUMPDEST PUSH2 0x88C DUP2 DUP6 PUSH2 0x1A4A JUMP JUMPDEST SWAP1 SWAP6 POP SWAP4 POP POP POP JUMPDEST POP SWAP8 POP SWAP8 SWAP6 POP POP POP POP POP POP JUMP JUMPDEST PUSH1 0xB SLOAD PUSH1 0x0 SWAP1 DUP2 SWAP1 PUSH1 0x60 SWAP1 PUSH2 0x8B7 DUP2 PUSH1 0xC0 PUSH2 0x1C9A JUMP JUMPDEST SWAP4 POP PUSH2 0x8C4 DUP2 PUSH1 0xE0 PUSH2 0x1C9A JUMP JUMPDEST SWAP3 POP PUSH1 0x0 PUSH2 0x8D0 PUSH2 0x15FC JUMP JUMPDEST SWAP1 POP DUP1 PUSH1 0x1 PUSH1 0x1 PUSH1 0x40 SHL SUB DUP2 GT DUP1 ISZERO PUSH2 0x8E8 JUMPI PUSH1 0x0 DUP1 REVERT JUMPDEST POP PUSH1 0x40 MLOAD SWAP1 DUP1 DUP3 MSTORE DUP1 PUSH1 0x20 MUL PUSH1 0x20 ADD DUP3 ADD PUSH1 0x40 MSTORE DUP1 ISZERO PUSH2 0x912 JUMPI DUP2 PUSH1 0x20 ADD PUSH1 0x20 DUP3 MUL DUP1 CALLDATASIZE DUP4 CALLDATACOPY ADD SWAP1 POP JUMPDEST POP SWAP3 POP PUSH1 0x0 JUMPDEST DUP2 DUP2 LT ISZERO PUSH2 0x957 JUMPI PUSH2 0x938 PUSH2 0x933 DUP5 PUSH1 0x80 PUSH1 0x10 DUP6 MUL ADD PUSH2 0x1CA4 JUMP JUMPDEST PUSH2 0x1CAC JUMP JUMPDEST DUP5 DUP3 DUP2 MLOAD DUP2 LT PUSH2 0x944 JUMPI INVALID JUMPDEST PUSH1 0x20 SWAP1 DUP2 MUL SWAP2 SWAP1 SWAP2 ADD ADD MSTORE PUSH1 0x1 ADD PUSH2 0x918 JUMP JUMPDEST POP POP POP SWAP1 SWAP2 SWAP3 JUMP JUMPDEST PUSH1 0x1 PUSH1 0x1 PUSH1 0xA0 SHL SUB AND PUSH1 0x0 SWAP1 DUP2 MSTORE PUSH1 0x6 PUSH1 0x20 MSTORE PUSH1 0x40 SWAP1 KECCAK256 SLOAD SWAP1 JUMP JUMPDEST PUSH1 0x0 PUSH32 0x0 DUP3 PUSH1 0x40 MLOAD PUSH1 0x20 ADD PUSH2 0x9AF SWAP3 SWAP2 SWAP1 PUSH2 0x488B JUMP JUMPDEST PUSH1 0x40 MLOAD PUSH1 0x20 DUP2 DUP4 SUB SUB DUP2 MSTORE SWAP1 PUSH1 0x40 MSTORE DUP1 MLOAD SWAP1 PUSH1 0x20 ADD KECCAK256 SWAP1 POP SWAP2 SWAP1 POP JUMP JUMPDEST PUSH1 0x0 PUSH1 0x60 PUSH2 0x9DD DUP7 MLOAD PUSH2 0x78E PUSH2 0x15FC JUMP JUMPDEST PUSH2 0x7A8 DUP10 DUP10 DUP10 DUP10 DUP10 DUP10 DUP10 PUSH2 0x1CC6 PUSH2 0x1D16 PUSH2 0x1AAB JUMP JUMPDEST PUSH32 0x0 SWAP1 JUMP JUMPDEST PUSH32 0x0 SWAP1 JUMP JUMPDEST PUSH1 0x4 DUP1 SLOAD PUSH1 0x40 DUP1 MLOAD PUSH1 0x20 PUSH1 0x1F PUSH1 0x2 PUSH1 0x0 NOT PUSH2 0x100 PUSH1 0x1 DUP9 AND ISZERO MUL ADD SWAP1 SWAP6 AND SWAP5 SWAP1 SWAP5 DIV SWAP4 DUP5 ADD DUP2 SWAP1 DIV DUP2 MUL DUP3 ADD DUP2 ADD SWAP1 SWAP3 MSTORE DUP3 DUP2 MSTORE PUSH1 0x60 SWAP4 SWAP1 SWAP3 SWAP1 SWAP2 DUP4 ADD DUP3 DUP3 DUP1 ISZERO PUSH2 0x562 JUMPI DUP1 PUSH1 0x1F LT PUSH2 0x537 JUMPI PUSH2 0x100 DUP1 DUP4 SLOAD DIV MUL DUP4 MSTORE SWAP2 PUSH1 0x20 ADD SWAP2 PUSH2 0x562 JUMP JUMPDEST PUSH1 0x9 SLOAD SWAP1 JUMP JUMPDEST PUSH1 0x0 DUP1 PUSH2 0xAB1 DUP6 PUSH1 0x20 ADD MLOAD PUSH2 0x1D77 JUMP JUMPDEST SWAP1 POP PUSH1 0x0 PUSH2 0xAC2 DUP7 PUSH1 0x40 ADD MLOAD PUSH2 0x1D77 JUMP JUMPDEST SWAP1 POP PUSH1 0x0 DUP7 MLOAD PUSH1 0x1 DUP2 GT ISZERO PUSH2 0xAD3 JUMPI INVALID JUMPDEST EQ ISZERO PUSH2 0xB39 JUMPI PUSH2 0xAE6 DUP7 PUSH1 0x60 ADD MLOAD PUSH2 0x1F08 JUMP JUMPDEST PUSH1 0x60 DUP8 ADD MSTORE PUSH2 0xAF5 DUP6 DUP4 PUSH2 0x1F29 JUMP JUMPDEST SWAP5 POP PUSH2 0xB01 DUP5 DUP3 PUSH2 0x1F29 JUMP JUMPDEST SWAP4 POP PUSH2 0xB11 DUP7 PUSH1 0x60 ADD MLOAD DUP4 PUSH2 0x1F29 JUMP JUMPDEST PUSH1 0x60 DUP8 ADD MSTORE PUSH1 0x0 PUSH2 0xB23 DUP8 DUP8 DUP8 PUSH2 0x1F35 JUMP JUMPDEST SWAP1 POP PUSH2 0xB2F DUP2 DUP4 PUSH2 0x1F5D JUMP JUMPDEST SWAP4 POP POP POP POP PUSH2 0x645 JUMP JUMPDEST PUSH2 0xB43 DUP6 DUP4 PUSH2 0x1F29 JUMP JUMPDEST SWAP5 POP PUSH2 0xB4F DUP5 DUP3 PUSH2 0x1F29 JUMP JUMPDEST SWAP4 POP PUSH2 0xB5F DUP7 PUSH1 0x60 ADD MLOAD DUP3 PUSH2 0x1F29 JUMP JUMPDEST PUSH1 0x60 DUP8 ADD MSTORE PUSH1 0x0 PUSH2 0xB71 DUP8 DUP8 DUP8 PUSH2 0x1F69 JUMP JUMPDEST SWAP1 POP PUSH2 0xB7D DUP2 DUP5 PUSH2 0x1F81 JUMP JUMPDEST SWAP1 POP PUSH2 0xB2F DUP2 PUSH2 0x1F8D JUMP JUMPDEST PUSH1 0x0 DUP1 PUSH2 0xB95 CALLER DUP6 PUSH2 0xF0D JUMP JUMPDEST SWAP1 POP DUP1 DUP4 LT PUSH2 0xBAF JUMPI PUSH2 0xBAA CALLER DUP6 PUSH1 0x0 PUSH2 0x10EF JUMP JUMPDEST PUSH2 0xBBC JUMP JUMPDEST PUSH2 0xBBC CALLER DUP6 DUP6 DUP5 SUB PUSH2 0x10EF JUMP JUMPDEST POP PUSH1 0x1 SWAP4 SWAP3 POP POP POP JUMP JUMPDEST PUSH1 0x0 PUSH2 0x57A CALLER DUP5 DUP5 PUSH2 0x13E6 JUMP JUMPDEST PUSH1 0x0 PUSH2 0x5D1 PUSH2 0x1FB3 JUMP JUMPDEST PUSH1 0x0 DUP1 PUSH2 0xBE8 PUSH2 0xA16 JUMP JUMPDEST PUSH1 0x1 PUSH1 0x1 PUSH1 0xA0 SHL SUB AND PUSH4 0xF94D4668 PUSH2 0xBFE PUSH2 0x678 JUMP JUMPDEST PUSH1 0x40 MLOAD DUP3 PUSH4 0xFFFFFFFF AND PUSH1 0xE0 SHL DUP2 MSTORE PUSH1 0x4 ADD PUSH2 0xC1A SWAP2 SWAP1 PUSH2 0x493D JUMP JUMPDEST PUSH1 0x0 PUSH1 0x40 MLOAD DUP1 DUP4 SUB DUP2 DUP7 DUP1 EXTCODESIZE ISZERO DUP1 ISZERO PUSH2 0xC32 JUMPI PUSH1 0x0 DUP1 REVERT JUMPDEST POP GAS STATICCALL ISZERO DUP1 ISZERO PUSH2 0xC46 JUMPI RETURNDATASIZE PUSH1 0x0 DUP1 RETURNDATACOPY RETURNDATASIZE PUSH1 0x0 REVERT JUMPDEST POP POP POP POP PUSH1 0x40 MLOAD RETURNDATASIZE PUSH1 0x0 DUP3 RETURNDATACOPY PUSH1 0x1F RETURNDATASIZE SWAP1 DUP2 ADD PUSH1 0x1F NOT AND DUP3 ADD PUSH1 0x40 MSTORE PUSH2 0xC6E SWAP2 SWAP1 DUP2 ADD SWAP1 PUSH2 0x432C JUMP JUMPDEST POP SWAP2 POP POP PUSH2 0xC83 DUP2 PUSH2 0xC7E PUSH2 0x1268 JUMP JUMPDEST PUSH2 0x1C2F JUMP JUMPDEST PUSH1 0x0 PUSH2 0xC8D PUSH2 0x202D JUMP JUMPDEST POP SWAP1 POP PUSH2 0xC9A DUP2 DUP4 PUSH2 0x20AB JUMP JUMPDEST SWAP3 POP POP POP SWAP1 JUMP JUMPDEST PUSH2 0xCAF DUP5 TIMESTAMP GT ISZERO PUSH1 0xD1 PUSH2 0x13D8 JUMP JUMPDEST PUSH1 0x1 PUSH1 0x1 PUSH1 0xA0 SHL SUB DUP8 AND PUSH1 0x0 SWAP1 DUP2 MSTORE PUSH1 0x6 PUSH1 0x20 SWAP1 DUP2 MSTORE PUSH1 0x40 DUP1 DUP4 KECCAK256 SLOAD SWAP1 MLOAD SWAP1 SWAP3 SWAP2 PUSH2 0xD06 SWAP2 PUSH32 0x0 SWAP2 DUP13 SWAP2 DUP13 SWAP2 DUP13 SWAP2 DUP9 SWAP2 DUP14 SWAP2 ADD PUSH2 0x4965 JUMP JUMPDEST PUSH1 0x40 MLOAD PUSH1 0x20 DUP2 DUP4 SUB SUB DUP2 MSTORE SWAP1 PUSH1 0x40 MSTORE DUP1 MLOAD SWAP1 PUSH1 0x20 ADD KECCAK256 SWAP1 POP PUSH1 0x0 PUSH2 0xD29 DUP3 PUSH2 0x211D JUMP JUMPDEST SWAP1 POP PUSH1 0x0 PUSH1 0x1 DUP3 DUP9 DUP9 DUP9 PUSH1 0x40 MLOAD PUSH1 0x0 DUP2 MSTORE PUSH1 0x20 ADD PUSH1 0x40 MSTORE PUSH1 0x40 MLOAD PUSH2 0xD50 SWAP5 SWAP4 SWAP3 SWAP2 SWAP1 PUSH2 0x49F5 JUMP JUMPDEST PUSH1 0x20 PUSH1 0x40 MLOAD PUSH1 0x20 DUP2 SUB SWAP1 DUP1 DUP5 SUB SWAP1 DUP6 GAS STATICCALL ISZERO DUP1 ISZERO PUSH2 0xD72 JUMPI RETURNDATASIZE PUSH1 0x0 DUP1 RETURNDATACOPY RETURNDATASIZE PUSH1 0x0 REVERT JUMPDEST POP POP PUSH1 0x40 MLOAD PUSH1 0x1F NOT ADD MLOAD SWAP2 POP PUSH2 0xDB4 SWAP1 POP PUSH1 0x1 PUSH1 0x1 PUSH1 0xA0 SHL SUB DUP3 AND ISZERO DUP1 ISZERO SWAP1 PUSH2 0xDAC JUMPI POP DUP12 PUSH1 0x1 PUSH1 0x1 PUSH1 0xA0 SHL SUB AND DUP3 PUSH1 0x1 PUSH1 0x1 PUSH1 0xA0 SHL SUB AND EQ JUMPDEST PUSH2 0x1F8 PUSH2 0x13D8 JUMP JUMPDEST PUSH1 0x1 PUSH1 0x1 PUSH1 0xA0 SHL SUB DUP12 AND PUSH1 0x0 SWAP1 DUP2 MSTORE PUSH1 0x6 PUSH1 0x20 MSTORE PUSH1 0x40 SWAP1 KECCAK256 PUSH1 0x1 DUP6 ADD SWAP1 SSTORE PUSH2 0xDDD DUP12 DUP12 DUP12 PUSH2 0x10EF JUMP JUMPDEST POP POP POP POP POP POP POP POP POP POP POP JUMP JUMPDEST PUSH1 0x60 DUP1 DUP9 PUSH2 0xDF9 PUSH2 0x80D PUSH2 0xA16 JUMP JUMPDEST PUSH2 0xE04 PUSH2 0x833 PUSH2 0x678 JUMP JUMPDEST PUSH1 0x0 PUSH2 0xE0E PUSH2 0x1268 JUMP JUMPDEST SWAP1 POP PUSH2 0xE18 PUSH2 0x598 JUMP JUMPDEST PUSH2 0xEBD JUMPI PUSH1 0x0 DUP1 PUSH2 0xE2C DUP14 DUP14 DUP14 DUP7 DUP12 PUSH2 0x2139 JUMP JUMPDEST SWAP2 POP SWAP2 POP PUSH2 0xE41 PUSH3 0xF4240 DUP4 LT ISZERO PUSH1 0xCC PUSH2 0x13D8 JUMP JUMPDEST PUSH2 0xE4F PUSH1 0x0 PUSH3 0xF4240 PUSH2 0x217F JUMP JUMPDEST PUSH2 0xE5E DUP12 PUSH3 0xF4240 DUP5 SUB PUSH2 0x217F JUMP JUMPDEST PUSH2 0xE68 DUP2 DUP5 PUSH2 0x1D16 JUMP JUMPDEST DUP1 PUSH2 0xE71 PUSH2 0x15FC JUMP JUMPDEST PUSH1 0x1 PUSH1 0x1 PUSH1 0x40 SHL SUB DUP2 GT DUP1 ISZERO PUSH2 0xE86 JUMPI PUSH1 0x0 DUP1 REVERT JUMPDEST POP PUSH1 0x40 MLOAD SWAP1 DUP1 DUP3 MSTORE DUP1 PUSH1 0x20 MUL PUSH1 0x20 ADD DUP3 ADD PUSH1 0x40 MSTORE DUP1 ISZERO PUSH2 0xEB0 JUMPI DUP2 PUSH1 0x20 ADD PUSH1 0x20 DUP3 MUL DUP1 CALLDATASIZE DUP4 CALLDATACOPY ADD SWAP1 POP JUMPDEST POP SWAP6 POP SWAP6 POP POP POP POP PUSH2 0x894 JUMP JUMPDEST PUSH2 0xEC7 DUP9 DUP3 PUSH2 0x1C2F JUMP JUMPDEST PUSH1 0x0 DUP1 PUSH1 0x0 PUSH2 0xEDC DUP15 DUP15 DUP15 DUP15 DUP15 DUP15 DUP11 DUP16 PUSH2 0x1CC6 JUMP JUMPDEST SWAP3 POP SWAP3 POP SWAP3 POP PUSH2 0xEEC DUP13 DUP5 PUSH2 0x217F JUMP JUMPDEST PUSH2 0xEF6 DUP3 DUP6 PUSH2 0x1D16 JUMP JUMPDEST PUSH2 0xF00 DUP2 DUP6 PUSH2 0x1A4A JUMP JUMPDEST SWAP1 SWAP6 POP SWAP4 POP PUSH2 0x894 SWAP2 POP POP JUMP JUMPDEST PUSH1 0x1 PUSH1 0x1 PUSH1 0xA0 SHL SUB SWAP2 DUP3 AND PUSH1 0x0 SWAP1 DUP2 MSTORE PUSH1 0x1 PUSH1 0x20 SWAP1 DUP2 MSTORE PUSH1 0x40 DUP1 DUP4 KECCAK256 SWAP4 SWAP1 SWAP5 AND DUP3 MSTORE SWAP2 SWAP1 SWAP2 MSTORE KECCAK256 SLOAD SWAP1 JUMP JUMPDEST PUSH2 0xF40 PUSH2 0x1157 JUMP JUMPDEST PUSH2 0xF48 PUSH2 0x1563 JUMP JUMPDEST PUSH2 0xF50 PUSH2 0x15E3 JUMP JUMPDEST PUSH2 0xF59 DUP2 PUSH2 0x2189 JUMP JUMPDEST PUSH2 0x595 PUSH2 0x185F JUMP JUMPDEST PUSH1 0x60 PUSH2 0x5D1 PUSH2 0x1637 JUMP JUMPDEST DUP1 PUSH2 0x768 DUP2 PUSH2 0x21CB JUMP JUMPDEST PUSH2 0x768 DUP2 DUP4 EQ PUSH1 0x67 PUSH2 0x13D8 JUMP JUMPDEST PUSH1 0x1 PUSH1 0x1 PUSH1 0x40 SHL SUB DUP2 SHL NOT SWAP3 SWAP1 SWAP3 AND SWAP2 SHL OR SWAP1 JUMP JUMPDEST PUSH1 0x0 PUSH2 0xFA7 DUP4 DUP4 GT ISZERO PUSH1 0x1 PUSH2 0x13D8 JUMP JUMPDEST POP SWAP1 SUB SWAP1 JUMP JUMPDEST PUSH1 0x0 PUSH2 0x57E PUSH8 0xDE0B6B3A7640000 PUSH2 0xFC7 DUP5 PUSH2 0xFFFF PUSH2 0x1056 JUMP JUMPDEST SWAP1 PUSH2 0x10A4 JUMP JUMPDEST PUSH1 0x0 PUSH2 0x57E PUSH8 0xDE0B6B3A7640000 PUSH2 0xFC7 DUP5 PUSH4 0x7FFFFFFF PUSH2 0x1056 JUMP JUMPDEST PUSH4 0x7FFFFFFF DUP2 SHL NOT SWAP3 SWAP1 SWAP3 AND SWAP2 SHL OR SWAP1 JUMP JUMPDEST PUSH2 0xFFFF DUP2 SHL NOT SWAP3 SWAP1 SWAP3 AND SWAP2 SHL OR SWAP1 JUMP JUMPDEST PUSH1 0x0 DUP3 DUP3 ADD PUSH2 0x645 DUP5 DUP3 LT ISZERO DUP4 PUSH2 0x13D8 JUMP JUMPDEST PUSH4 0xFFFFFFFF DUP2 SHL NOT SWAP3 SWAP1 SWAP3 AND SWAP2 SHL OR SWAP1 JUMP JUMPDEST PUSH1 0x0 PUSH1 0x1 DUP3 SHL NOT DUP5 AND DUP3 DUP5 PUSH2 0x1045 JUMPI PUSH1 0x0 PUSH2 0x1048 JUMP JUMPDEST PUSH1 0x1 JUMPDEST PUSH1 0xFF AND SWAP1 SHL OR SWAP5 SWAP4 POP POP POP POP JUMP JUMPDEST PUSH1 0x0 DUP3 DUP3 MUL PUSH2 0x107A DUP5 ISZERO DUP1 PUSH2 0x1073 JUMPI POP DUP4 DUP6 DUP4 DUP2 PUSH2 0x1070 JUMPI INVALID JUMPDEST DIV EQ JUMPDEST PUSH1 0x3 PUSH2 0x13D8 JUMP JUMPDEST DUP1 PUSH2 0x1089 JUMPI PUSH1 0x0 SWAP2 POP POP PUSH2 0x57E JUMP JUMPDEST PUSH8 0xDE0B6B3A7640000 PUSH1 0x0 NOT DUP3 ADD JUMPDEST DIV PUSH1 0x1 ADD SWAP2 POP POP PUSH2 0x57E JUMP JUMPDEST PUSH1 0x0 PUSH2 0x10B3 DUP3 ISZERO ISZERO PUSH1 0x4 PUSH2 0x13D8 JUMP JUMPDEST DUP3 PUSH2 0x10C0 JUMPI POP PUSH1 0x0 PUSH2 0x57E JUMP JUMPDEST PUSH8 0xDE0B6B3A7640000 DUP4 DUP2 MUL SWAP1 PUSH2 0x10E3 SWAP1 DUP6 DUP4 DUP2 PUSH2 0x10DA JUMPI INVALID JUMPDEST DIV EQ PUSH1 0x5 PUSH2 0x13D8 JUMP JUMPDEST DUP3 PUSH1 0x1 DUP3 SUB DUP2 PUSH2 0x1098 JUMPI INVALID JUMPDEST PUSH1 0x1 PUSH1 0x1 PUSH1 0xA0 SHL SUB DUP1 DUP5 AND PUSH1 0x0 DUP2 DUP2 MSTORE PUSH1 0x1 PUSH1 0x20 SWAP1 DUP2 MSTORE PUSH1 0x40 DUP1 DUP4 KECCAK256 SWAP5 DUP8 AND DUP1 DUP5 MSTORE SWAP5 SWAP1 SWAP2 MSTORE SWAP1 DUP2 SWAP1 KECCAK256 DUP5 SWAP1 SSTORE MLOAD PUSH32 0x8C5BE1E5EBEC7D5BD14F71427D1E84F3DD0314C0F7B2291E5B200AC8C7C3B925 SWAP1 PUSH2 0x114A SWAP1 DUP6 SWAP1 PUSH2 0x493D JUMP JUMPDEST PUSH1 0x40 MLOAD DUP1 SWAP2 SUB SWAP1 LOG3 POP POP POP JUMP JUMPDEST PUSH1 0x0 PUSH2 0x116E PUSH1 0x0 CALLDATALOAD PUSH1 0x1 PUSH1 0x1 PUSH1 0xE0 SHL SUB NOT AND PUSH2 0x97A JUMP JUMPDEST SWAP1 POP PUSH2 0x595 PUSH2 0x117D DUP3 CALLER PUSH2 0x2244 JUMP JUMPDEST PUSH2 0x191 PUSH2 0x13D8 JUMP JUMPDEST DUP1 ISZERO PUSH2 0x11A5 JUMPI PUSH2 0x11A0 PUSH2 0x1196 PUSH2 0x1220 JUMP JUMPDEST TIMESTAMP LT PUSH2 0x193 PUSH2 0x13D8 JUMP JUMPDEST PUSH2 0x11BA JUMP JUMPDEST PUSH2 0x11BA PUSH2 0x11B0 PUSH2 0x1244 JUMP JUMPDEST TIMESTAMP LT PUSH2 0x1A9 PUSH2 0x13D8 JUMP JUMPDEST PUSH1 0x7 DUP1 SLOAD PUSH1 0xFF NOT AND DUP3 ISZERO ISZERO OR SWAP1 SSTORE PUSH1 0x40 MLOAD PUSH32 0x9E3A5E37224532DEA67B89FACE185703738A228A6E8A23DEE546960180D3BE64 SWAP1 PUSH2 0x11F8 SWAP1 DUP4 SWAP1 PUSH2 0x491A JUMP JUMPDEST PUSH1 0x40 MLOAD DUP1 SWAP2 SUB SWAP1 LOG1 POP JUMP JUMPDEST PUSH1 0x0 PUSH2 0x120D PUSH2 0x1244 JUMP JUMPDEST TIMESTAMP GT DUP1 PUSH2 0x5D1 JUMPI POP POP PUSH1 0x7 SLOAD PUSH1 0xFF AND ISZERO SWAP1 JUMP JUMPDEST PUSH32 0x0 SWAP1 JUMP JUMPDEST PUSH32 0x0 SWAP1 JUMP JUMPDEST PUSH1 0x60 PUSH1 0x0 PUSH2 0x1274 PUSH2 0x15FC JUMP JUMPDEST SWAP1 POP PUSH1 0x0 DUP2 PUSH1 0x1 PUSH1 0x1 PUSH1 0x40 SHL SUB DUP2 GT DUP1 ISZERO PUSH2 0x128E JUMPI PUSH1 0x0 DUP1 REVERT JUMPDEST POP PUSH1 0x40 MLOAD SWAP1 DUP1 DUP3 MSTORE DUP1 PUSH1 0x20 MUL PUSH1 0x20 ADD DUP3 ADD PUSH1 0x40 MSTORE DUP1 ISZERO PUSH2 0x12B8 JUMPI DUP2 PUSH1 0x20 ADD PUSH1 0x20 DUP3 MUL DUP1 CALLDATASIZE DUP4 CALLDATACOPY ADD SWAP1 POP JUMPDEST POP SWAP1 POP DUP2 ISZERO PUSH2 0x1300 JUMPI PUSH32 0x0 DUP2 PUSH1 0x0 DUP2 MLOAD DUP2 LT PUSH2 0x12EF JUMPI INVALID JUMPDEST PUSH1 0x20 MUL PUSH1 0x20 ADD ADD DUP2 DUP2 MSTORE POP POP PUSH2 0x1309 JUMP JUMPDEST SWAP2 POP PUSH2 0x56A SWAP1 POP JUMP JUMPDEST PUSH1 0x1 DUP3 GT ISZERO PUSH2 0x1300 JUMPI PUSH32 0x0 DUP2 PUSH1 0x1 DUP2 MLOAD DUP2 LT PUSH2 0x1340 JUMPI INVALID JUMPDEST PUSH1 0x20 MUL PUSH1 0x20 ADD ADD DUP2 DUP2 MSTORE POP POP PUSH1 0x2 DUP3 GT ISZERO PUSH2 0x1300 JUMPI PUSH32 0x0 DUP2 PUSH1 0x2 DUP2 MLOAD DUP2 LT PUSH2 0x1383 JUMPI INVALID JUMPDEST PUSH1 0x20 MUL PUSH1 0x20 ADD ADD DUP2 DUP2 MSTORE POP POP PUSH1 0x3 DUP3 GT ISZERO PUSH2 0x1300 JUMPI PUSH32 0x0 DUP2 PUSH1 0x3 DUP2 MLOAD DUP2 LT PUSH2 0x13C6 JUMPI INVALID JUMPDEST PUSH1 0x20 MUL PUSH1 0x20 ADD ADD DUP2 DUP2 MSTORE POP POP SWAP2 POP POP SWAP1 JUMP JUMPDEST DUP2 PUSH2 0x768 JUMPI PUSH2 0x768 DUP2 PUSH2 0x2334 JUMP JUMPDEST PUSH2 0x13FD PUSH1 0x1 PUSH1 0x1 PUSH1 0xA0 SHL SUB DUP5 AND ISZERO ISZERO PUSH2 0x198 PUSH2 0x13D8 JUMP JUMPDEST PUSH2 0x1414 PUSH1 0x1 PUSH1 0x1 PUSH1 0xA0 SHL SUB DUP4 AND ISZERO ISZERO PUSH2 0x199 PUSH2 0x13D8 JUMP JUMPDEST PUSH2 0x141F DUP4 DUP4 DUP4 PUSH2 0x739 JUMP JUMPDEST PUSH1 0x1 PUSH1 0x1 PUSH1 0xA0 SHL SUB DUP4 AND PUSH1 0x0 SWAP1 DUP2 MSTORE PUSH1 0x20 DUP2 SWAP1 MSTORE PUSH1 0x40 SWAP1 KECCAK256 SLOAD PUSH2 0x1445 SWAP1 DUP3 PUSH2 0x1A0 PUSH2 0x2387 JUMP JUMPDEST PUSH1 0x1 PUSH1 0x1 PUSH1 0xA0 SHL SUB DUP1 DUP6 AND PUSH1 0x0 SWAP1 DUP2 MSTORE PUSH1 0x20 DUP2 SWAP1 MSTORE PUSH1 0x40 DUP1 DUP3 KECCAK256 SWAP4 SWAP1 SWAP4 SSTORE SWAP1 DUP5 AND DUP2 MSTORE KECCAK256 SLOAD PUSH2 0x1474 SWAP1 DUP3 PUSH2 0x100B JUMP JUMPDEST PUSH1 0x1 PUSH1 0x1 PUSH1 0xA0 SHL SUB DUP1 DUP5 AND PUSH1 0x0 DUP2 DUP2 MSTORE PUSH1 0x20 DUP2 SWAP1 MSTORE PUSH1 0x40 SWAP1 DUP2 SWAP1 KECCAK256 SWAP4 SWAP1 SWAP4 SSTORE SWAP2 MLOAD SWAP1 DUP6 AND SWAP1 PUSH32 0xDDF252AD1BE2C89B69C2B068FC378DAA952BA7F163C4A11628F55A4DF523B3EF SWAP1 PUSH2 0x114A SWAP1 DUP6 SWAP1 PUSH2 0x493D JUMP JUMPDEST PUSH1 0x0 PUSH32 0x0 PUSH32 0x0 PUSH32 0x0 PUSH2 0x1533 PUSH2 0x239D JUMP JUMPDEST ADDRESS PUSH1 0x40 MLOAD PUSH1 0x20 ADD PUSH2 0x1548 SWAP6 SWAP5 SWAP4 SWAP3 SWAP2 SWAP1 PUSH2 0x4999 JUMP JUMPDEST PUSH1 0x40 MLOAD PUSH1 0x20 DUP2 DUP4 SUB SUB DUP2 MSTORE SWAP1 PUSH1 0x40 MSTORE DUP1 MLOAD SWAP1 PUSH1 0x20 ADD KECCAK256 SWAP1 POP SWAP1 JUMP JUMPDEST PUSH2 0x1576 PUSH2 0x156E PUSH2 0x1203 JUMP JUMPDEST PUSH2 0x192 PUSH2 0x13D8 JUMP JUMPDEST JUMP JUMPDEST PUSH2 0x158B PUSH5 0xE8D4A51000 DUP3 LT ISZERO PUSH1 0xCB PUSH2 0x13D8 JUMP JUMPDEST PUSH2 0x15A1 PUSH8 0x16345785D8A0000 DUP3 GT ISZERO PUSH1 0xCA PUSH2 0x13D8 JUMP JUMPDEST PUSH1 0x8 SLOAD PUSH2 0x15B0 SWAP1 DUP3 PUSH1 0xC0 PUSH2 0xF82 JUMP JUMPDEST PUSH1 0x8 SSTORE PUSH1 0x40 MLOAD PUSH32 0xA9BA3FFE0B6C366B81232CAAB38605A0699AD5398D6CCE76F91EE809E322DAFC SWAP1 PUSH2 0x11F8 SWAP1 DUP4 SWAP1 PUSH2 0x493D JUMP JUMPDEST PUSH2 0x15F5 PUSH1 0x2 PUSH1 0xA SLOAD EQ ISZERO PUSH2 0x190 PUSH2 0x13D8 JUMP JUMPDEST PUSH1 0x2 PUSH1 0xA SSTORE JUMP JUMPDEST PUSH32 0x0 SWAP1 JUMP JUMPDEST PUSH1 0x0 DUP2 DUP4 LT ISZERO PUSH2 0x1630 JUMPI DUP2 PUSH2 0x645 JUMP JUMPDEST POP SWAP1 SWAP2 SWAP1 POP JUMP JUMPDEST PUSH1 0x60 PUSH1 0x0 PUSH2 0x1643 PUSH2 0x15FC JUMP JUMPDEST SWAP1 POP PUSH1 0x0 DUP2 PUSH1 0x1 PUSH1 0x1 PUSH1 0x40 SHL SUB DUP2 GT DUP1 ISZERO PUSH2 0x165D JUMPI PUSH1 0x0 DUP1 REVERT JUMPDEST POP PUSH1 0x40 MLOAD SWAP1 DUP1 DUP3 MSTORE DUP1 PUSH1 0x20 MUL PUSH1 0x20 ADD DUP3 ADD PUSH1 0x40 MSTORE DUP1 ISZERO PUSH2 0x1687 JUMPI DUP2 PUSH1 0x20 ADD PUSH1 0x20 DUP3 MUL DUP1 CALLDATASIZE DUP4 CALLDATACOPY ADD SWAP1 POP JUMPDEST POP PUSH1 0xB SLOAD SWAP1 SWAP2 POP PUSH2 0x1699 PUSH1 0x0 DUP3 PUSH2 0x23A1 JUMP JUMPDEST DUP3 PUSH1 0x0 DUP2 MLOAD DUP2 LT PUSH2 0x16A6 JUMPI INVALID JUMPDEST PUSH1 0x20 MUL PUSH1 0x20 ADD ADD DUP2 DUP2 MSTORE POP POP PUSH2 0x16BD PUSH1 0x1 DUP3 PUSH2 0x23A1 JUMP JUMPDEST DUP3 PUSH1 0x1 DUP2 MLOAD DUP2 LT PUSH2 0x16CA JUMPI INVALID JUMPDEST PUSH1 0x20 MUL PUSH1 0x20 ADD ADD DUP2 DUP2 MSTORE POP POP DUP3 PUSH1 0x2 EQ ISZERO PUSH2 0x16E9 JUMPI POP SWAP2 POP PUSH2 0x56A SWAP1 POP JUMP JUMPDEST PUSH2 0x16F4 PUSH1 0x2 DUP3 PUSH2 0x23A1 JUMP JUMPDEST DUP3 PUSH1 0x2 DUP2 MLOAD DUP2 LT PUSH2 0x1701 JUMPI INVALID JUMPDEST PUSH1 0x20 MUL PUSH1 0x20 ADD ADD DUP2 DUP2 MSTORE POP POP DUP3 PUSH1 0x3 EQ ISZERO PUSH2 0x1720 JUMPI POP SWAP2 POP PUSH2 0x56A SWAP1 POP JUMP JUMPDEST PUSH2 0x172B PUSH1 0x3 DUP3 PUSH2 0x23A1 JUMP JUMPDEST DUP3 PUSH1 0x3 DUP2 MLOAD DUP2 LT PUSH2 0x1738 JUMPI INVALID JUMPDEST PUSH1 0x20 SWAP1 DUP2 MUL SWAP2 SWAP1 SWAP2 ADD ADD MSTORE POP SWAP2 POP POP SWAP1 JUMP JUMPDEST PUSH1 0xB SLOAD PUSH1 0x0 DUP1 JUMPDEST DUP4 MLOAD DUP2 LT ISZERO PUSH2 0x17E6 JUMPI PUSH1 0x0 DUP5 DUP3 DUP2 MLOAD DUP2 LT PUSH2 0x1768 JUMPI INVALID JUMPDEST PUSH1 0x20 MUL PUSH1 0x20 ADD ADD MLOAD SWAP1 POP PUSH2 0x1788 PUSH7 0x2386F26FC10000 DUP3 LT ISZERO PUSH2 0x12E PUSH2 0x13D8 JUMP JUMPDEST PUSH2 0x17CF PUSH2 0x1794 DUP3 PUSH2 0xFAD JUMP JUMPDEST DUP4 PUSH1 0x10 MUL PUSH1 0x80 ADD PUSH2 0x17C8 PUSH2 0x17BA DUP11 DUP8 DUP2 MLOAD DUP2 LT PUSH2 0x17AD JUMPI INVALID JUMPDEST PUSH1 0x20 MUL PUSH1 0x20 ADD ADD MLOAD PUSH2 0xFCD JUMP JUMPDEST DUP9 SWAP1 PUSH1 0x4 PUSH1 0x1F DUP10 MUL ADD PUSH2 0xFE9 JUMP JUMPDEST SWAP2 SWAP1 PUSH2 0xFFB JUMP JUMPDEST SWAP4 POP PUSH2 0x17DB DUP4 DUP3 PUSH2 0x100B JUMP JUMPDEST SWAP3 POP POP PUSH1 0x1 ADD PUSH2 0x1751 JUMP JUMPDEST POP PUSH2 0x17FD PUSH8 0xDE0B6B3A7640000 DUP3 EQ PUSH2 0x134 PUSH2 0x13D8 JUMP JUMPDEST PUSH2 0x1816 DUP6 PUSH1 0xE0 PUSH2 0x180F DUP6 DUP11 PUSH1 0xC0 PUSH2 0x101D JUMP JUMPDEST SWAP2 SWAP1 PUSH2 0x101D JUMP JUMPDEST PUSH1 0xB SSTORE PUSH1 0x40 MLOAD PUSH32 0xF3631F9DAB08169D1DB21C6DC5F32536FB2B0A6B9BB5330D71C52132F968BE0 SWAP1 PUSH2 0x184F SWAP1 DUP9 SWAP1 DUP9 SWAP1 DUP9 SWAP1 DUP9 SWAP1 PUSH2 0x4A5E JUMP JUMPDEST PUSH1 0x40 MLOAD DUP1 SWAP2 SUB SWAP1 LOG1 POP POP POP POP POP POP JUMP JUMPDEST PUSH1 0x1 PUSH1 0xA SSTORE JUMP JUMPDEST SHR PUSH1 0x1 SWAP1 DUP2 AND EQ SWAP1 JUMP JUMPDEST PUSH1 0x0 PUSH2 0x187A PUSH2 0x678 JUMP JUMPDEST SWAP1 POP PUSH1 0x0 PUSH2 0x1886 PUSH2 0xA16 JUMP JUMPDEST PUSH1 0x1 PUSH1 0x1 PUSH1 0xA0 SHL SUB AND PUSH4 0xB05F8E48 DUP4 DUP7 PUSH1 0x40 MLOAD DUP4 PUSH4 0xFFFFFFFF AND PUSH1 0xE0 SHL DUP2 MSTORE PUSH1 0x4 ADD PUSH2 0x18B3 SWAP3 SWAP2 SWAP1 PUSH2 0x49DE JUMP JUMPDEST PUSH1 0x80 PUSH1 0x40 MLOAD DUP1 DUP4 SUB DUP2 DUP7 DUP1 EXTCODESIZE ISZERO DUP1 ISZERO PUSH2 0x18CB JUMPI PUSH1 0x0 DUP1 REVERT JUMPDEST POP GAS STATICCALL ISZERO DUP1 ISZERO PUSH2 0x18DF JUMPI RETURNDATASIZE PUSH1 0x0 DUP1 RETURNDATACOPY RETURNDATASIZE PUSH1 0x0 REVERT JUMPDEST POP POP POP POP PUSH1 0x40 MLOAD RETURNDATASIZE PUSH1 0x1F NOT PUSH1 0x1F DUP3 ADD AND DUP3 ADD DUP1 PUSH1 0x40 MSTORE POP DUP2 ADD SWAP1 PUSH2 0x1903 SWAP2 SWAP1 PUSH2 0x47C6 JUMP JUMPDEST PUSH1 0x40 MLOAD PUSH4 0x639CDB5 PUSH1 0xE2 SHL DUP2 MSTORE SWAP1 SWAP5 POP PUSH1 0x1 PUSH1 0x1 PUSH1 0xA0 SHL SUB DUP6 AND SWAP4 POP PUSH4 0x18E736D4 SWAP3 POP PUSH2 0x1937 SWAP2 POP DUP6 SWAP1 DUP8 SWAP1 PUSH1 0x4 ADD PUSH2 0x49C5 JUMP JUMPDEST PUSH1 0x0 PUSH1 0x40 MLOAD DUP1 DUP4 SUB DUP2 PUSH1 0x0 DUP8 DUP1 EXTCODESIZE ISZERO DUP1 ISZERO PUSH2 0x1951 JUMPI PUSH1 0x0 DUP1 REVERT JUMPDEST POP GAS CALL ISZERO DUP1 ISZERO PUSH2 0x1965 JUMPI RETURNDATASIZE PUSH1 0x0 DUP1 RETURNDATACOPY RETURNDATASIZE PUSH1 0x0 REVERT JUMPDEST POP POP POP POP POP POP POP POP JUMP JUMPDEST SHR PUSH1 0x1 PUSH1 0x1 PUSH1 0x40 SHL SUB AND SWAP1 JUMP JUMPDEST PUSH1 0x0 PUSH1 0x60 DUP1 PUSH1 0x0 DUP1 PUSH2 0x198C PUSH2 0x202D JUMP JUMPDEST SWAP2 POP SWAP2 POP PUSH2 0x1998 PUSH2 0x1203 JUMP JUMPDEST ISZERO PUSH2 0x19D0 JUMPI PUSH1 0x0 PUSH2 0x19A9 DUP4 DUP13 PUSH2 0x20AB JUMP JUMPDEST SWAP1 POP PUSH2 0x19BB DUP12 DUP5 DUP5 PUSH1 0x9 SLOAD DUP6 DUP15 PUSH2 0x23F7 JUMP JUMPDEST SWAP4 POP PUSH2 0x19CA DUP12 DUP6 PUSH2 0xF97 PUSH2 0x24A6 JUMP JUMPDEST POP PUSH2 0x1A1B JUMP JUMPDEST PUSH2 0x19D8 PUSH2 0x15FC JUMP JUMPDEST PUSH1 0x1 PUSH1 0x1 PUSH1 0x40 SHL SUB DUP2 GT DUP1 ISZERO PUSH2 0x19ED JUMPI PUSH1 0x0 DUP1 REVERT JUMPDEST POP PUSH1 0x40 MLOAD SWAP1 DUP1 DUP3 MSTORE DUP1 PUSH1 0x20 MUL PUSH1 0x20 ADD DUP3 ADD PUSH1 0x40 MSTORE DUP1 ISZERO PUSH2 0x1A17 JUMPI DUP2 PUSH1 0x20 ADD PUSH1 0x20 DUP3 MUL DUP1 CALLDATASIZE DUP4 CALLDATACOPY ADD SWAP1 POP JUMPDEST POP SWAP3 POP JUMPDEST PUSH2 0x1A27 DUP11 DUP4 DUP10 DUP10 PUSH2 0x2511 JUMP JUMPDEST SWAP1 SWAP6 POP SWAP4 POP PUSH2 0x1A37 DUP11 DUP6 DUP5 PUSH2 0x2580 JUMP JUMPDEST PUSH1 0x9 SSTORE POP POP SWAP9 POP SWAP9 POP SWAP9 SWAP6 POP POP POP POP POP POP JUMP JUMPDEST PUSH1 0x0 JUMPDEST PUSH2 0x1A55 PUSH2 0x15FC JUMP JUMPDEST DUP2 LT ISZERO PUSH2 0x739 JUMPI PUSH2 0x1A8C DUP4 DUP3 DUP2 MLOAD DUP2 LT PUSH2 0x1A6B JUMPI INVALID JUMPDEST PUSH1 0x20 MUL PUSH1 0x20 ADD ADD MLOAD DUP4 DUP4 DUP2 MLOAD DUP2 LT PUSH2 0x1A7F JUMPI INVALID JUMPDEST PUSH1 0x20 MUL PUSH1 0x20 ADD ADD MLOAD PUSH2 0x1BE7 JUMP JUMPDEST DUP4 DUP3 DUP2 MLOAD DUP2 LT PUSH2 0x1A98 JUMPI INVALID JUMPDEST PUSH1 0x20 SWAP1 DUP2 MUL SWAP2 SWAP1 SWAP2 ADD ADD MSTORE PUSH1 0x1 ADD PUSH2 0x1A4D JUMP JUMPDEST CALLER ADDRESS EQ PUSH2 0x1B69 JUMPI PUSH1 0x0 ADDRESS PUSH1 0x1 PUSH1 0x1 PUSH1 0xA0 SHL SUB AND PUSH1 0x0 CALLDATASIZE PUSH1 0x40 MLOAD PUSH2 0x1ACF SWAP3 SWAP2 SWAP1 PUSH2 0x48A3 JUMP JUMPDEST PUSH1 0x0 PUSH1 0x40 MLOAD DUP1 DUP4 SUB DUP2 PUSH1 0x0 DUP7 GAS CALL SWAP2 POP POP RETURNDATASIZE DUP1 PUSH1 0x0 DUP2 EQ PUSH2 0x1B0C JUMPI PUSH1 0x40 MLOAD SWAP2 POP PUSH1 0x1F NOT PUSH1 0x3F RETURNDATASIZE ADD AND DUP3 ADD PUSH1 0x40 MSTORE RETURNDATASIZE DUP3 MSTORE RETURNDATASIZE PUSH1 0x0 PUSH1 0x20 DUP5 ADD RETURNDATACOPY PUSH2 0x1B11 JUMP JUMPDEST PUSH1 0x60 SWAP2 POP JUMPDEST POP POP SWAP1 POP DUP1 PUSH1 0x0 DUP2 EQ PUSH2 0x1B20 JUMPI INVALID JUMPDEST PUSH1 0x4 PUSH1 0x0 DUP1 RETURNDATACOPY PUSH1 0x0 MLOAD PUSH1 0x1 PUSH1 0x1 PUSH1 0xE0 SHL SUB NOT AND PUSH4 0x43ADBAFB PUSH1 0xE0 SHL DUP2 EQ PUSH2 0x1B4B JUMPI RETURNDATASIZE PUSH1 0x0 DUP1 RETURNDATACOPY RETURNDATASIZE PUSH1 0x0 REVERT JUMPDEST POP PUSH1 0x20 PUSH1 0x4 PUSH1 0x0 RETURNDATACOPY PUSH1 0x40 PUSH1 0x20 MSTORE PUSH1 0x24 RETURNDATASIZE SUB PUSH1 0x24 PUSH1 0x40 RETURNDATACOPY PUSH1 0x1C RETURNDATASIZE ADD PUSH1 0x0 RETURN JUMPDEST PUSH1 0x0 PUSH2 0x1B73 PUSH2 0x1268 JUMP JUMPDEST SWAP1 POP PUSH2 0x1B7F DUP8 DUP3 PUSH2 0x1C2F JUMP JUMPDEST PUSH1 0x0 DUP1 PUSH2 0x1B96 DUP13 DUP13 DUP13 DUP13 DUP13 DUP13 DUP10 DUP14 DUP14 PUSH4 0xFFFFFFFF AND JUMP JUMPDEST POP SWAP2 POP SWAP2 POP PUSH2 0x1BA9 DUP2 DUP5 DUP7 PUSH4 0xFFFFFFFF AND JUMP JUMPDEST DUP1 MLOAD PUSH1 0x1F NOT DUP3 ADD DUP4 SWAP1 MSTORE PUSH4 0x43ADBAFB PUSH1 0x3F NOT DUP4 ADD MSTORE PUSH1 0x20 MUL PUSH1 0x23 NOT DUP3 ADD PUSH1 0x44 DUP3 ADD DUP2 REVERT JUMPDEST PUSH1 0x0 DUP3 DUP3 MUL PUSH2 0x645 DUP5 ISZERO DUP1 PUSH2 0x1073 JUMPI POP DUP4 DUP6 DUP4 DUP2 PUSH2 0x1070 JUMPI INVALID JUMPDEST PUSH1 0x0 PUSH2 0x1BF6 DUP3 ISZERO ISZERO PUSH1 0x4 PUSH2 0x13D8 JUMP JUMPDEST DUP3 PUSH2 0x1C03 JUMPI POP PUSH1 0x0 PUSH2 0x57E JUMP JUMPDEST PUSH8 0xDE0B6B3A7640000 DUP4 DUP2 MUL SWAP1 PUSH2 0x1C1D SWAP1 DUP6 DUP4 DUP2 PUSH2 0x10DA JUMPI INVALID JUMPDEST DUP3 DUP2 DUP2 PUSH2 0x1C26 JUMPI INVALID JUMPDEST DIV SWAP2 POP POP PUSH2 0x57E JUMP JUMPDEST PUSH1 0x0 JUMPDEST PUSH2 0x1C3A PUSH2 0x15FC JUMP JUMPDEST DUP2 LT ISZERO PUSH2 0x739 JUMPI PUSH2 0x1C71 DUP4 DUP3 DUP2 MLOAD DUP2 LT PUSH2 0x1C50 JUMPI INVALID JUMPDEST PUSH1 0x20 MUL PUSH1 0x20 ADD ADD MLOAD DUP4 DUP4 DUP2 MLOAD DUP2 LT PUSH2 0x1C64 JUMPI INVALID JUMPDEST PUSH1 0x20 MUL PUSH1 0x20 ADD ADD MLOAD PUSH2 0x2599 JUMP JUMPDEST DUP4 DUP3 DUP2 MLOAD DUP2 LT PUSH2 0x1C7D JUMPI INVALID JUMPDEST PUSH1 0x20 SWAP1 DUP2 MUL SWAP2 SWAP1 SWAP2 ADD ADD MSTORE PUSH1 0x1 ADD PUSH2 0x1C32 JUMP JUMPDEST PUSH2 0x768 DUP3 DUP3 PUSH2 0x25C5 JUMP JUMPDEST SHR PUSH4 0xFFFFFFFF AND SWAP1 JUMP JUMPDEST SHR PUSH2 0xFFFF AND SWAP1 JUMP JUMPDEST PUSH1 0x0 PUSH2 0x57E PUSH2 0xFFFF PUSH2 0xFC7 DUP5 PUSH8 0xDE0B6B3A7640000 PUSH2 0x1056 JUMP JUMPDEST PUSH1 0x0 PUSH1 0x60 DUP1 PUSH2 0x1CF2 PUSH2 0x1CD6 PUSH2 0x9F2 JUMP JUMPDEST PUSH1 0x1 PUSH1 0x1 PUSH1 0xA0 SHL SUB AND DUP12 PUSH1 0x1 PUSH1 0x1 PUSH1 0xA0 SHL SUB AND EQ PUSH2 0x148 PUSH2 0x13D8 JUMP JUMPDEST PUSH2 0x1D02 DUP12 DUP12 DUP12 DUP12 DUP12 DUP12 DUP12 DUP12 PUSH2 0x2681 JUMP JUMPDEST SWAP3 POP SWAP3 POP SWAP3 POP SWAP9 POP SWAP9 POP SWAP9 SWAP6 POP POP POP POP POP POP JUMP JUMPDEST PUSH1 0x0 JUMPDEST PUSH2 0x1D21 PUSH2 0x15FC JUMP JUMPDEST DUP2 LT ISZERO PUSH2 0x739 JUMPI PUSH2 0x1D58 DUP4 DUP3 DUP2 MLOAD DUP2 LT PUSH2 0x1D37 JUMPI INVALID JUMPDEST PUSH1 0x20 MUL PUSH1 0x20 ADD ADD MLOAD DUP4 DUP4 DUP2 MLOAD DUP2 LT PUSH2 0x1D4B JUMPI INVALID JUMPDEST PUSH1 0x20 MUL PUSH1 0x20 ADD ADD MLOAD PUSH2 0x10A4 JUMP JUMPDEST DUP4 DUP3 DUP2 MLOAD DUP2 LT PUSH2 0x1D64 JUMPI INVALID JUMPDEST PUSH1 0x20 SWAP1 DUP2 MUL SWAP2 SWAP1 SWAP2 ADD ADD MSTORE PUSH1 0x1 ADD PUSH2 0x1D19 JUMP JUMPDEST PUSH1 0x0 PUSH32 0x0 PUSH1 0x1 PUSH1 0x1 PUSH1 0xA0 SHL SUB AND DUP3 PUSH1 0x1 PUSH1 0x1 PUSH1 0xA0 SHL SUB AND EQ ISZERO PUSH2 0x1DDA JUMPI POP PUSH32 0x0 PUSH2 0x7F9 JUMP JUMPDEST PUSH32 0x0 PUSH1 0x1 PUSH1 0x1 PUSH1 0xA0 SHL SUB AND DUP3 PUSH1 0x1 PUSH1 0x1 PUSH1 0xA0 SHL SUB AND EQ ISZERO PUSH2 0x1E3B JUMPI POP PUSH32 0x0 PUSH2 0x7F9 JUMP JUMPDEST PUSH32 0x0 PUSH1 0x1 PUSH1 0x1 PUSH1 0xA0 SHL SUB AND DUP3 PUSH1 0x1 PUSH1 0x1 PUSH1 0xA0 SHL SUB AND EQ ISZERO PUSH2 0x1E9C JUMPI POP PUSH32 0x0 PUSH2 0x7F9 JUMP JUMPDEST PUSH32 0x0 PUSH1 0x1 PUSH1 0x1 PUSH1 0xA0 SHL SUB AND DUP3 PUSH1 0x1 PUSH1 0x1 PUSH1 0xA0 SHL SUB AND EQ ISZERO PUSH2 0x1EFD JUMPI POP PUSH32 0x0 PUSH2 0x7F9 JUMP JUMPDEST PUSH2 0x7F9 PUSH2 0x135 PUSH2 0x2334 JUMP JUMPDEST PUSH1 0x0 DUP1 PUSH2 0x1F1D PUSH2 0x1F16 PUSH2 0x76C JUMP JUMPDEST DUP5 SWAP1 PUSH2 0x1056 JUMP JUMPDEST SWAP1 POP PUSH2 0x645 DUP4 DUP3 PUSH2 0xF97 JUMP JUMPDEST PUSH1 0x0 PUSH2 0x645 DUP4 DUP4 PUSH2 0x2599 JUMP JUMPDEST PUSH1 0x0 PUSH2 0x1F4A PUSH2 0x1F42 PUSH2 0x73E JUMP JUMPDEST PUSH2 0x147 PUSH2 0x13D8 JUMP JUMPDEST PUSH2 0x1F55 DUP5 DUP5 DUP5 PUSH2 0x2705 JUMP JUMPDEST SWAP5 SWAP4 POP POP POP POP JUMP JUMPDEST PUSH1 0x0 PUSH2 0x645 DUP4 DUP4 PUSH2 0x1BE7 JUMP JUMPDEST PUSH1 0x0 PUSH2 0x1F76 PUSH2 0x1F42 PUSH2 0x73E JUMP JUMPDEST PUSH2 0x1F55 DUP5 DUP5 DUP5 PUSH2 0x2738 JUMP JUMPDEST PUSH1 0x0 PUSH2 0x645 DUP4 DUP4 PUSH2 0x10A4 JUMP JUMPDEST PUSH1 0x0 PUSH2 0x57E PUSH2 0x1FAC PUSH2 0x1F9D PUSH2 0x76C JUMP JUMPDEST PUSH8 0xDE0B6B3A7640000 SWAP1 PUSH2 0xF97 JUMP JUMPDEST DUP4 SWAP1 PUSH2 0x10A4 JUMP JUMPDEST PUSH1 0x0 PUSH2 0x1FBD PUSH2 0xA16 JUMP JUMPDEST PUSH1 0x1 PUSH1 0x1 PUSH1 0xA0 SHL SUB AND PUSH4 0xAAABADC5 PUSH1 0x40 MLOAD DUP2 PUSH4 0xFFFFFFFF AND PUSH1 0xE0 SHL DUP2 MSTORE PUSH1 0x4 ADD PUSH1 0x20 PUSH1 0x40 MLOAD DUP1 DUP4 SUB DUP2 DUP7 DUP1 EXTCODESIZE ISZERO DUP1 ISZERO PUSH2 0x1FF5 JUMPI PUSH1 0x0 DUP1 REVERT JUMPDEST POP GAS STATICCALL ISZERO DUP1 ISZERO PUSH2 0x2009 JUMPI RETURNDATASIZE PUSH1 0x0 DUP1 RETURNDATACOPY RETURNDATASIZE PUSH1 0x0 REVERT JUMPDEST POP POP POP POP PUSH1 0x40 MLOAD RETURNDATASIZE PUSH1 0x1F NOT PUSH1 0x1F DUP3 ADD AND DUP3 ADD DUP1 PUSH1 0x40 MSTORE POP DUP2 ADD SWAP1 PUSH2 0x5D1 SWAP2 SWAP1 PUSH2 0x44F9 JUMP JUMPDEST PUSH1 0x60 PUSH1 0x0 PUSH2 0x2039 PUSH2 0x1637 JUMP JUMPDEST SWAP2 POP PUSH1 0x0 SWAP1 POP PUSH1 0x0 DUP3 PUSH1 0x0 DUP2 MLOAD DUP2 LT PUSH2 0x204E JUMPI INVALID JUMPDEST PUSH1 0x20 MUL PUSH1 0x20 ADD ADD MLOAD SWAP1 POP PUSH1 0x0 PUSH1 0x1 SWAP1 POP JUMPDEST DUP4 MLOAD DUP2 LT ISZERO PUSH2 0x20A5 JUMPI DUP2 DUP5 DUP3 DUP2 MLOAD DUP2 LT PUSH2 0x2075 JUMPI INVALID JUMPDEST PUSH1 0x20 MUL PUSH1 0x20 ADD ADD MLOAD GT ISZERO PUSH2 0x209D JUMPI DUP1 SWAP3 POP DUP4 DUP2 DUP2 MLOAD DUP2 LT PUSH2 0x2092 JUMPI INVALID JUMPDEST PUSH1 0x20 MUL PUSH1 0x20 ADD ADD MLOAD SWAP2 POP JUMPDEST PUSH1 0x1 ADD PUSH2 0x205F JUMP JUMPDEST POP POP SWAP1 SWAP2 JUMP JUMPDEST PUSH8 0xDE0B6B3A7640000 PUSH1 0x0 JUMPDEST DUP4 MLOAD DUP2 LT ISZERO PUSH2 0x210D JUMPI PUSH2 0x2103 PUSH2 0x20FC DUP6 DUP4 DUP2 MLOAD DUP2 LT PUSH2 0x20D2 JUMPI INVALID JUMPDEST PUSH1 0x20 MUL PUSH1 0x20 ADD ADD MLOAD DUP6 DUP5 DUP2 MLOAD DUP2 LT PUSH2 0x20E6 JUMPI INVALID JUMPDEST PUSH1 0x20 MUL PUSH1 0x20 ADD ADD MLOAD PUSH2 0x276B SWAP1 SWAP2 SWAP1 PUSH4 0xFFFFFFFF AND JUMP JUMPDEST DUP4 SWAP1 PUSH2 0x2599 JUMP JUMPDEST SWAP2 POP PUSH1 0x1 ADD PUSH2 0x20B7 JUMP JUMPDEST POP PUSH2 0x57E PUSH1 0x0 DUP3 GT PUSH2 0x137 PUSH2 0x13D8 JUMP JUMPDEST PUSH1 0x0 PUSH2 0x2127 PUSH2 0x14C6 JUMP JUMPDEST DUP3 PUSH1 0x40 MLOAD PUSH1 0x20 ADD PUSH2 0x9AF SWAP3 SWAP2 SWAP1 PUSH2 0x48B3 JUMP JUMPDEST PUSH1 0x0 PUSH1 0x60 PUSH2 0x2164 PUSH2 0x2148 PUSH2 0x9F2 JUMP JUMPDEST PUSH1 0x1 PUSH1 0x1 PUSH1 0xA0 SHL SUB AND DUP8 PUSH1 0x1 PUSH1 0x1 PUSH1 0xA0 SHL SUB AND EQ PUSH2 0x148 PUSH2 0x13D8 JUMP JUMPDEST PUSH2 0x2171 DUP8 DUP8 DUP8 DUP8 DUP8 PUSH2 0x27BA JUMP JUMPDEST SWAP2 POP SWAP2 POP SWAP6 POP SWAP6 SWAP4 POP POP POP POP JUMP JUMPDEST PUSH2 0x768 DUP3 DUP3 PUSH2 0x284E JUMP JUMPDEST PUSH1 0xB SLOAD PUSH2 0x2198 SWAP1 DUP3 PUSH1 0x0 PUSH2 0x102F JUMP JUMPDEST PUSH1 0xB SSTORE PUSH1 0x40 MLOAD PUSH32 0x5A9E84F78F7957CB4ED7478EB0FCAD35EE4ECBE2E0F298420B28A3955392573F SWAP1 PUSH2 0x11F8 SWAP1 DUP4 SWAP1 PUSH2 0x491A JUMP JUMPDEST PUSH1 0x2 DUP2 MLOAD LT ISZERO PUSH2 0x21DA JUMPI PUSH2 0x595 JUMP JUMPDEST PUSH1 0x0 DUP2 PUSH1 0x0 DUP2 MLOAD DUP2 LT PUSH2 0x21E9 JUMPI INVALID JUMPDEST PUSH1 0x20 MUL PUSH1 0x20 ADD ADD MLOAD SWAP1 POP PUSH1 0x0 PUSH1 0x1 SWAP1 POP JUMPDEST DUP3 MLOAD DUP2 LT ISZERO PUSH2 0x739 JUMPI PUSH1 0x0 DUP4 DUP3 DUP2 MLOAD DUP2 LT PUSH2 0x2211 JUMPI INVALID JUMPDEST PUSH1 0x20 MUL PUSH1 0x20 ADD ADD MLOAD SWAP1 POP PUSH2 0x223A DUP2 PUSH1 0x1 PUSH1 0x1 PUSH1 0xA0 SHL SUB AND DUP5 PUSH1 0x1 PUSH1 0x1 PUSH1 0xA0 SHL SUB AND LT PUSH1 0x65 PUSH2 0x13D8 JUMP JUMPDEST SWAP2 POP PUSH1 0x1 ADD PUSH2 0x21FA JUMP JUMPDEST PUSH1 0x0 PUSH20 0xBA1BA1BA1BA1BA1BA1BA1BA1BA1BA1BA1BA1BA1B PUSH2 0x2263 PUSH2 0x9F2 JUMP JUMPDEST PUSH1 0x1 PUSH1 0x1 PUSH1 0xA0 SHL SUB AND EQ ISZERO DUP1 ISZERO PUSH2 0x227E JUMPI POP PUSH2 0x227E DUP4 PUSH2 0x28DC JUMP JUMPDEST ISZERO PUSH2 0x22A6 JUMPI PUSH2 0x228B PUSH2 0x9F2 JUMP JUMPDEST PUSH1 0x1 PUSH1 0x1 PUSH1 0xA0 SHL SUB AND CALLER PUSH1 0x1 PUSH1 0x1 PUSH1 0xA0 SHL SUB AND EQ SWAP1 POP PUSH2 0x57E JUMP JUMPDEST PUSH2 0x22AE PUSH2 0x1FB3 JUMP JUMPDEST PUSH1 0x1 PUSH1 0x1 PUSH1 0xA0 SHL SUB AND PUSH4 0x9BE2A884 DUP5 DUP5 ADDRESS PUSH1 0x40 MLOAD DUP5 PUSH4 0xFFFFFFFF AND PUSH1 0xE0 SHL DUP2 MSTORE PUSH1 0x4 ADD PUSH2 0x22DD SWAP4 SWAP3 SWAP2 SWAP1 PUSH2 0x4946 JUMP JUMPDEST PUSH1 0x20 PUSH1 0x40 MLOAD DUP1 DUP4 SUB DUP2 DUP7 DUP1 EXTCODESIZE ISZERO DUP1 ISZERO PUSH2 0x22F5 JUMPI PUSH1 0x0 DUP1 REVERT JUMPDEST POP GAS STATICCALL ISZERO DUP1 ISZERO PUSH2 0x2309 JUMPI RETURNDATASIZE PUSH1 0x0 DUP1 RETURNDATACOPY RETURNDATASIZE PUSH1 0x0 REVERT JUMPDEST POP POP POP POP PUSH1 0x40 MLOAD RETURNDATASIZE PUSH1 0x1F NOT PUSH1 0x1F DUP3 ADD AND DUP3 ADD DUP1 PUSH1 0x40 MSTORE POP DUP2 ADD SWAP1 PUSH2 0x232D SWAP2 SWAP1 PUSH2 0x4413 JUMP JUMPDEST SWAP1 POP PUSH2 0x57E JUMP JUMPDEST PUSH3 0x461BCD PUSH1 0xE5 SHL PUSH1 0x0 SWAP1 DUP2 MSTORE PUSH1 0x20 PUSH1 0x4 MSTORE PUSH1 0x7 PUSH1 0x24 MSTORE PUSH7 0x42414C23000030 PUSH1 0xA DUP1 DUP5 DIV DUP2 DUP2 MOD PUSH1 0x30 SWAP1 DUP2 ADD PUSH1 0x8 SHL SWAP6 DUP4 SWAP1 MOD SWAP6 SWAP1 SWAP6 ADD SWAP1 DUP3 SWAP1 DIV SWAP2 DUP3 MOD SWAP1 SWAP5 ADD PUSH1 0x10 SHL SWAP4 SWAP1 SWAP4 ADD ADD PUSH1 0xC8 SHL PUSH1 0x44 MSTORE PUSH1 0x64 SWAP1 REVERT JUMPDEST PUSH1 0x0 PUSH2 0x2396 DUP5 DUP5 GT ISZERO DUP4 PUSH2 0x13D8 JUMP JUMPDEST POP POP SWAP1 SUB SWAP1 JUMP JUMPDEST CHAINID SWAP1 JUMP JUMPDEST PUSH1 0x0 DUP1 PUSH2 0x23BC PUSH2 0x23B7 DUP5 PUSH1 0x4 PUSH1 0x1F DUP9 MUL ADD PUSH2 0x2918 JUMP JUMPDEST PUSH2 0x2922 JUMP JUMPDEST SWAP1 POP PUSH1 0x0 PUSH2 0x23D3 PUSH2 0x933 DUP6 PUSH1 0x80 PUSH1 0x10 DUP10 MUL ADD PUSH2 0x1CA4 JUMP JUMPDEST SWAP1 POP PUSH1 0x0 PUSH2 0x23E0 DUP6 PUSH2 0x293E JUMP JUMPDEST SWAP1 POP PUSH2 0x23ED DUP4 DUP4 DUP4 PUSH2 0x29BD JUMP JUMPDEST SWAP7 SWAP6 POP POP POP POP POP POP JUMP JUMPDEST PUSH1 0x60 PUSH1 0x0 PUSH2 0x2403 PUSH2 0x15FC JUMP JUMPDEST PUSH1 0x1 PUSH1 0x1 PUSH1 0x40 SHL SUB DUP2 GT DUP1 ISZERO PUSH2 0x2418 JUMPI PUSH1 0x0 DUP1 REVERT JUMPDEST POP PUSH1 0x40 MLOAD SWAP1 DUP1 DUP3 MSTORE DUP1 PUSH1 0x20 MUL PUSH1 0x20 ADD DUP3 ADD PUSH1 0x40 MSTORE DUP1 ISZERO PUSH2 0x2442 JUMPI DUP2 PUSH1 0x20 ADD PUSH1 0x20 DUP3 MUL DUP1 CALLDATASIZE DUP4 CALLDATACOPY ADD SWAP1 POP JUMPDEST POP SWAP1 POP DUP3 PUSH2 0x2451 JUMPI SWAP1 POP PUSH2 0x23ED JUMP JUMPDEST PUSH2 0x2484 DUP9 DUP8 DUP2 MLOAD DUP2 LT PUSH2 0x2460 JUMPI INVALID JUMPDEST PUSH1 0x20 MUL PUSH1 0x20 ADD ADD MLOAD DUP9 DUP9 DUP2 MLOAD DUP2 LT PUSH2 0x2474 JUMPI INVALID JUMPDEST PUSH1 0x20 MUL PUSH1 0x20 ADD ADD MLOAD DUP8 DUP8 DUP8 PUSH2 0x2A31 JUMP JUMPDEST DUP2 DUP8 DUP2 MLOAD DUP2 LT PUSH2 0x2490 JUMPI INVALID JUMPDEST PUSH1 0x20 SWAP1 DUP2 MUL SWAP2 SWAP1 SWAP2 ADD ADD MSTORE SWAP8 SWAP7 POP POP POP POP POP POP POP JUMP JUMPDEST PUSH1 0x0 JUMPDEST PUSH2 0x24B1 PUSH2 0x15FC JUMP JUMPDEST DUP2 LT ISZERO PUSH2 0x250B JUMPI PUSH2 0x24EC DUP5 DUP3 DUP2 MLOAD DUP2 LT PUSH2 0x24C7 JUMPI INVALID JUMPDEST PUSH1 0x20 MUL PUSH1 0x20 ADD ADD MLOAD DUP5 DUP4 DUP2 MLOAD DUP2 LT PUSH2 0x24DB JUMPI INVALID JUMPDEST PUSH1 0x20 MUL PUSH1 0x20 ADD ADD MLOAD DUP5 PUSH4 0xFFFFFFFF AND JUMP JUMPDEST DUP5 DUP3 DUP2 MLOAD DUP2 LT PUSH2 0x24F8 JUMPI INVALID JUMPDEST PUSH1 0x20 SWAP1 DUP2 MUL SWAP2 SWAP1 SWAP2 ADD ADD MSTORE PUSH1 0x1 ADD PUSH2 0x24A9 JUMP JUMPDEST POP POP POP POP JUMP JUMPDEST PUSH1 0x0 PUSH1 0x60 PUSH1 0x0 PUSH2 0x2520 DUP5 PUSH2 0x2AB9 JUMP JUMPDEST SWAP1 POP PUSH1 0x0 DUP2 PUSH1 0x2 DUP2 GT ISZERO PUSH2 0x2530 JUMPI INVALID JUMPDEST EQ ISZERO PUSH2 0x254B JUMPI PUSH2 0x2541 DUP8 DUP8 DUP7 PUSH2 0x2ACF JUMP JUMPDEST SWAP3 POP SWAP3 POP POP PUSH2 0x2577 JUMP JUMPDEST PUSH1 0x1 DUP2 PUSH1 0x2 DUP2 GT ISZERO PUSH2 0x2559 JUMPI INVALID JUMPDEST EQ ISZERO PUSH2 0x2569 JUMPI PUSH2 0x2541 DUP8 DUP6 PUSH2 0x2BB1 JUMP JUMPDEST PUSH2 0x2541 DUP8 DUP8 DUP8 DUP8 PUSH2 0x2BE3 JUMP JUMPDEST POP JUMPDEST SWAP5 POP SWAP5 SWAP3 POP POP POP JUMP JUMPDEST PUSH1 0x0 PUSH2 0x258F DUP5 DUP5 PUSH2 0xF97 PUSH2 0x24A6 JUMP JUMPDEST PUSH2 0x1F55 DUP3 DUP6 PUSH2 0x20AB JUMP JUMPDEST PUSH1 0x0 DUP3 DUP3 MUL PUSH2 0x25B3 DUP5 ISZERO DUP1 PUSH2 0x1073 JUMPI POP DUP4 DUP6 DUP4 DUP2 PUSH2 0x1070 JUMPI INVALID JUMPDEST PUSH8 0xDE0B6B3A7640000 SWAP1 DIV SWAP4 SWAP3 POP POP POP JUMP JUMPDEST PUSH2 0x25DC PUSH1 0x1 PUSH1 0x1 PUSH1 0xA0 SHL SUB DUP4 AND ISZERO ISZERO PUSH2 0x19B PUSH2 0x13D8 JUMP JUMPDEST PUSH2 0x25E8 DUP3 PUSH1 0x0 DUP4 PUSH2 0x739 JUMP JUMPDEST PUSH1 0x1 PUSH1 0x1 PUSH1 0xA0 SHL SUB DUP3 AND PUSH1 0x0 SWAP1 DUP2 MSTORE PUSH1 0x20 DUP2 SWAP1 MSTORE PUSH1 0x40 SWAP1 KECCAK256 SLOAD PUSH2 0x260E SWAP1 DUP3 PUSH2 0x1A1 PUSH2 0x2387 JUMP JUMPDEST PUSH1 0x1 PUSH1 0x1 PUSH1 0xA0 SHL SUB DUP4 AND PUSH1 0x0 SWAP1 DUP2 MSTORE PUSH1 0x20 DUP2 SWAP1 MSTORE PUSH1 0x40 SWAP1 KECCAK256 SSTORE PUSH1 0x2 SLOAD PUSH2 0x2634 SWAP1 DUP3 PUSH2 0x2C51 JUMP JUMPDEST PUSH1 0x2 SSTORE PUSH1 0x40 MLOAD PUSH1 0x0 SWAP1 PUSH1 0x1 PUSH1 0x1 PUSH1 0xA0 SHL SUB DUP5 AND SWAP1 PUSH32 0xDDF252AD1BE2C89B69C2B068FC378DAA952BA7F163C4A11628F55A4DF523B3EF SWAP1 PUSH2 0x2675 SWAP1 DUP6 SWAP1 PUSH2 0x493D JUMP JUMPDEST PUSH1 0x40 MLOAD DUP1 SWAP2 SUB SWAP1 LOG3 POP POP JUMP JUMPDEST PUSH1 0x0 PUSH1 0x60 DUP1 PUSH2 0x268E PUSH2 0x1563 JUMP JUMPDEST PUSH1 0x0 DUP1 PUSH2 0x2699 PUSH2 0x202D JUMP JUMPDEST SWAP2 POP SWAP2 POP PUSH1 0x0 PUSH2 0x26A9 DUP4 DUP13 PUSH2 0x20AB JUMP JUMPDEST SWAP1 POP PUSH1 0x0 PUSH2 0x26BD DUP13 DUP6 DUP6 PUSH1 0x9 SLOAD DUP7 DUP16 PUSH2 0x23F7 JUMP JUMPDEST SWAP1 POP PUSH2 0x26CC DUP13 DUP3 PUSH2 0xF97 PUSH2 0x24A6 JUMP JUMPDEST PUSH1 0x0 DUP1 PUSH2 0x26DB DUP15 DUP8 DUP14 DUP14 PUSH2 0x2C5F JUMP JUMPDEST SWAP2 POP SWAP2 POP PUSH2 0x26EA DUP15 DUP3 DUP9 PUSH2 0x2CBA JUMP JUMPDEST PUSH1 0x9 SSTORE SWAP1 SWAP8 POP SWAP6 POP SWAP4 POP POP POP POP SWAP9 POP SWAP9 POP SWAP9 SWAP6 POP POP POP POP POP POP JUMP JUMPDEST PUSH1 0x0 PUSH2 0x270F PUSH2 0x1563 JUMP JUMPDEST PUSH2 0x1F55 DUP4 PUSH2 0x2720 DUP7 PUSH1 0x20 ADD MLOAD PUSH2 0x2CC9 JUMP JUMPDEST DUP5 PUSH2 0x272E DUP9 PUSH1 0x40 ADD MLOAD PUSH2 0x2CC9 JUMP JUMPDEST DUP9 PUSH1 0x60 ADD MLOAD PUSH2 0x2DEB JUMP JUMPDEST PUSH1 0x0 PUSH2 0x2742 PUSH2 0x1563 JUMP JUMPDEST PUSH2 0x1F55 DUP4 PUSH2 0x2753 DUP7 PUSH1 0x20 ADD MLOAD PUSH2 0x2CC9 JUMP JUMPDEST DUP5 PUSH2 0x2761 DUP9 PUSH1 0x40 ADD MLOAD PUSH2 0x2CC9 JUMP JUMPDEST DUP9 PUSH1 0x60 ADD MLOAD PUSH2 0x2E58 JUMP JUMPDEST PUSH1 0x0 DUP1 PUSH2 0x2778 DUP5 DUP5 PUSH2 0x2ECE JUMP JUMPDEST SWAP1 POP PUSH1 0x0 PUSH2 0x2792 PUSH2 0x278B DUP4 PUSH2 0x2710 PUSH2 0x1056 JUMP JUMPDEST PUSH1 0x1 PUSH2 0x100B JUMP JUMPDEST SWAP1 POP DUP1 DUP3 LT ISZERO PUSH2 0x27A7 JUMPI PUSH1 0x0 SWAP3 POP POP POP PUSH2 0x57E JUMP JUMPDEST PUSH2 0x27B1 DUP3 DUP3 PUSH2 0xF97 JUMP JUMPDEST SWAP3 POP POP POP PUSH2 0x57E JUMP JUMPDEST PUSH1 0x0 PUSH1 0x60 PUSH2 0x27C6 PUSH2 0x1563 JUMP JUMPDEST PUSH1 0x0 PUSH2 0x27D1 DUP5 PUSH2 0x2AB9 JUMP JUMPDEST SWAP1 POP PUSH2 0x27EC PUSH1 0x0 DUP3 PUSH1 0x2 DUP2 GT ISZERO PUSH2 0x27E4 JUMPI INVALID JUMPDEST EQ PUSH1 0xCE PUSH2 0x13D8 JUMP JUMPDEST PUSH1 0x0 PUSH2 0x27F7 DUP6 PUSH2 0x2FCF JUMP JUMPDEST SWAP1 POP PUSH2 0x2804 PUSH2 0x6FA PUSH2 0x15FC JUMP JUMPDEST PUSH2 0x280E DUP2 DUP8 PUSH2 0x1C2F JUMP JUMPDEST PUSH1 0x0 PUSH2 0x2818 PUSH2 0x202D JUMP JUMPDEST POP SWAP1 POP PUSH1 0x0 PUSH2 0x2827 DUP3 DUP5 PUSH2 0x20AB JUMP JUMPDEST SWAP1 POP PUSH1 0x0 PUSH2 0x2837 DUP3 PUSH2 0x7D4 PUSH2 0x15FC JUMP JUMPDEST PUSH1 0x9 SWAP3 SWAP1 SWAP3 SSTORE POP SWAP11 SWAP2 SWAP10 POP SWAP1 SWAP8 POP POP POP POP POP POP POP POP JUMP JUMPDEST PUSH2 0x285A PUSH1 0x0 DUP4 DUP4 PUSH2 0x739 JUMP JUMPDEST PUSH1 0x2 SLOAD PUSH2 0x2867 SWAP1 DUP3 PUSH2 0x100B JUMP JUMPDEST PUSH1 0x2 SSTORE PUSH1 0x1 PUSH1 0x1 PUSH1 0xA0 SHL SUB DUP3 AND PUSH1 0x0 SWAP1 DUP2 MSTORE PUSH1 0x20 DUP2 SWAP1 MSTORE PUSH1 0x40 SWAP1 KECCAK256 SLOAD PUSH2 0x288D SWAP1 DUP3 PUSH2 0x100B JUMP JUMPDEST PUSH1 0x1 PUSH1 0x1 PUSH1 0xA0 SHL SUB DUP4 AND PUSH1 0x0 DUP2 DUP2 MSTORE PUSH1 0x20 DUP2 SWAP1 MSTORE PUSH1 0x40 DUP1 DUP3 KECCAK256 SWAP4 SWAP1 SWAP4 SSTORE SWAP2 MLOAD SWAP1 SWAP2 SWAP1 PUSH32 0xDDF252AD1BE2C89B69C2B068FC378DAA952BA7F163C4A11628F55A4DF523B3EF SWAP1 PUSH2 0x2675 SWAP1 DUP6 SWAP1 PUSH2 0x493D JUMP JUMPDEST PUSH1 0x0 PUSH2 0x28EE PUSH4 0x3806BE4B PUSH1 0xE2 SHL PUSH2 0x97A JUMP JUMPDEST DUP3 EQ DUP1 PUSH2 0x2909 JUMPI POP PUSH2 0x2906 PUSH4 0x3E569205 PUSH1 0xE0 SHL PUSH2 0x97A JUMP JUMPDEST DUP3 EQ JUMPDEST DUP1 PUSH2 0x57E JUMPI POP PUSH2 0x57E DUP3 PUSH2 0x2FE5 JUMP JUMPDEST SHR PUSH4 0x7FFFFFFF AND SWAP1 JUMP JUMPDEST PUSH1 0x0 PUSH2 0x57E PUSH4 0x7FFFFFFF PUSH2 0xFC7 DUP5 PUSH8 0xDE0B6B3A7640000 PUSH2 0x1056 JUMP JUMPDEST PUSH1 0x0 TIMESTAMP DUP2 PUSH2 0x294D DUP5 PUSH1 0xC0 PUSH2 0x1C9A JUMP JUMPDEST SWAP1 POP PUSH1 0x0 PUSH2 0x295C DUP6 PUSH1 0xE0 PUSH2 0x1C9A JUMP JUMPDEST SWAP1 POP DUP1 DUP4 GT ISZERO PUSH2 0x2979 JUMPI PUSH8 0xDE0B6B3A7640000 SWAP4 POP POP POP POP PUSH2 0x7F9 JUMP JUMPDEST DUP2 DUP4 LT ISZERO PUSH2 0x298D JUMPI PUSH1 0x0 SWAP4 POP POP POP POP PUSH2 0x7F9 JUMP JUMPDEST DUP2 DUP2 SUB DUP3 DUP5 SUB DUP2 ISZERO PUSH2 0x29A8 JUMPI PUSH2 0x29A3 DUP2 DUP4 PUSH2 0x1BE7 JUMP JUMPDEST PUSH2 0x29B2 JUMP JUMPDEST PUSH8 0xDE0B6B3A7640000 JUMPDEST SWAP8 SWAP7 POP POP POP POP POP POP POP JUMP JUMPDEST PUSH1 0x0 DUP2 ISZERO DUP1 PUSH2 0x29CB JUMPI POP DUP3 DUP5 EQ JUMPDEST ISZERO PUSH2 0x29D7 JUMPI POP DUP3 PUSH2 0x645 JUMP JUMPDEST PUSH8 0xDE0B6B3A7640000 DUP3 LT PUSH2 0x29ED JUMPI POP DUP2 PUSH2 0x645 JUMP JUMPDEST DUP3 DUP5 GT ISZERO PUSH2 0x2A17 JUMPI PUSH1 0x0 PUSH2 0x2A03 DUP4 DUP6 DUP8 SUB PUSH2 0x2599 JUMP JUMPDEST SWAP1 POP PUSH2 0x2A0F DUP6 DUP3 PUSH2 0xF97 JUMP JUMPDEST SWAP2 POP POP PUSH2 0x645 JUMP JUMPDEST PUSH1 0x0 PUSH2 0x2A25 DUP4 DUP7 DUP7 SUB PUSH2 0x2599 JUMP JUMPDEST SWAP1 POP PUSH2 0x2A0F DUP6 DUP3 PUSH2 0x100B JUMP JUMPDEST PUSH1 0x0 DUP4 DUP4 GT PUSH2 0x2A42 JUMPI POP PUSH1 0x0 PUSH2 0x2AB0 JUMP JUMPDEST PUSH1 0x0 PUSH2 0x2A4E DUP6 DUP6 PUSH2 0x10A4 JUMP JUMPDEST SWAP1 POP PUSH1 0x0 PUSH2 0x2A64 PUSH8 0xDE0B6B3A7640000 DUP9 PUSH2 0x1BE7 JUMP JUMPDEST SWAP1 POP PUSH2 0x2A78 DUP3 PUSH8 0x9B6E64A8EC60000 PUSH2 0x1620 JUMP JUMPDEST SWAP2 POP PUSH1 0x0 PUSH2 0x2A86 DUP4 DUP4 PUSH2 0x3017 JUMP JUMPDEST SWAP1 POP PUSH1 0x0 PUSH2 0x2A9D PUSH2 0x2A96 DUP4 PUSH2 0x3043 JUMP JUMPDEST DUP12 SWAP1 PUSH2 0x2599 JUMP JUMPDEST SWAP1 POP PUSH2 0x2AA9 DUP2 DUP8 PUSH2 0x2599 JUMP JUMPDEST SWAP5 POP POP POP POP POP JUMPDEST SWAP6 SWAP5 POP POP POP POP POP JUMP JUMPDEST PUSH1 0x0 DUP2 DUP1 PUSH1 0x20 ADD SWAP1 MLOAD DUP2 ADD SWAP1 PUSH2 0x57E SWAP2 SWAP1 PUSH2 0x4562 JUMP JUMPDEST PUSH1 0x0 PUSH1 0x60 PUSH2 0x2ADB PUSH2 0x1563 JUMP JUMPDEST PUSH1 0x0 DUP1 PUSH2 0x2AE7 DUP6 PUSH2 0x3069 JUMP JUMPDEST SWAP2 POP SWAP2 POP PUSH2 0x2AFF PUSH2 0x2AF6 PUSH2 0x15FC JUMP JUMPDEST DUP3 LT PUSH1 0x64 PUSH2 0x13D8 JUMP JUMPDEST PUSH1 0x0 PUSH2 0x2B09 PUSH2 0x15FC JUMP JUMPDEST PUSH1 0x1 PUSH1 0x1 PUSH1 0x40 SHL SUB DUP2 GT DUP1 ISZERO PUSH2 0x2B1E JUMPI PUSH1 0x0 DUP1 REVERT JUMPDEST POP PUSH1 0x40 MLOAD SWAP1 DUP1 DUP3 MSTORE DUP1 PUSH1 0x20 MUL PUSH1 0x20 ADD DUP3 ADD PUSH1 0x40 MSTORE DUP1 ISZERO PUSH2 0x2B48 JUMPI DUP2 PUSH1 0x20 ADD PUSH1 0x20 DUP3 MUL DUP1 CALLDATASIZE DUP4 CALLDATACOPY ADD SWAP1 POP JUMPDEST POP SWAP1 POP PUSH2 0x2B8C DUP9 DUP4 DUP2 MLOAD DUP2 LT PUSH2 0x2B5A JUMPI INVALID JUMPDEST PUSH1 0x20 MUL PUSH1 0x20 ADD ADD MLOAD DUP9 DUP5 DUP2 MLOAD DUP2 LT PUSH2 0x2B6E JUMPI INVALID JUMPDEST PUSH1 0x20 MUL PUSH1 0x20 ADD ADD MLOAD DUP6 PUSH2 0x2B7F PUSH2 0x598 JUMP JUMPDEST PUSH2 0x2B87 PUSH2 0x76C JUMP JUMPDEST PUSH2 0x308B JUMP JUMPDEST DUP2 DUP4 DUP2 MLOAD DUP2 LT PUSH2 0x2B98 JUMPI INVALID JUMPDEST PUSH1 0x20 SWAP1 DUP2 MUL SWAP2 SWAP1 SWAP2 ADD ADD MSTORE SWAP2 SWAP8 SWAP2 SWAP7 POP SWAP1 SWAP5 POP POP POP POP POP JUMP JUMPDEST PUSH1 0x0 PUSH1 0x60 PUSH1 0x0 PUSH2 0x2BC0 DUP5 PUSH2 0x314B JUMP JUMPDEST SWAP1 POP PUSH1 0x0 PUSH2 0x2BD6 DUP7 DUP4 PUSH2 0x2BD1 PUSH2 0x598 JUMP JUMPDEST PUSH2 0x3161 JUMP JUMPDEST SWAP2 SWAP7 SWAP2 SWAP6 POP SWAP1 SWAP4 POP POP POP POP JUMP JUMPDEST PUSH1 0x0 PUSH1 0x60 PUSH2 0x2BEF PUSH2 0x1563 JUMP JUMPDEST PUSH1 0x0 DUP1 PUSH2 0x2BFB DUP6 PUSH2 0x3212 JUMP JUMPDEST SWAP2 POP SWAP2 POP PUSH2 0x2C0C DUP3 MLOAD PUSH2 0x78E PUSH2 0x15FC JUMP JUMPDEST PUSH2 0x2C16 DUP3 DUP8 PUSH2 0x1C2F JUMP JUMPDEST PUSH1 0x0 PUSH2 0x2C33 DUP10 DUP10 DUP6 PUSH2 0x2C26 PUSH2 0x598 JUMP JUMPDEST PUSH2 0x2C2E PUSH2 0x76C JUMP JUMPDEST PUSH2 0x322A JUMP JUMPDEST SWAP1 POP PUSH2 0x2C43 DUP3 DUP3 GT ISZERO PUSH1 0xCF PUSH2 0x13D8 JUMP JUMPDEST SWAP9 SWAP2 SWAP8 POP SWAP1 SWAP6 POP POP POP POP POP POP JUMP JUMPDEST PUSH1 0x0 PUSH2 0x645 DUP4 DUP4 PUSH1 0x1 PUSH2 0x2387 JUMP JUMPDEST PUSH1 0x0 PUSH1 0x60 PUSH1 0x0 PUSH2 0x2C6E DUP5 PUSH2 0x2AB9 JUMP JUMPDEST SWAP1 POP PUSH1 0x1 DUP2 PUSH1 0x2 DUP2 GT ISZERO PUSH2 0x2C7E JUMPI INVALID JUMPDEST EQ ISZERO PUSH2 0x2C90 JUMPI PUSH2 0x2541 DUP8 DUP8 DUP8 DUP8 PUSH2 0x3456 JUMP JUMPDEST PUSH1 0x2 DUP2 PUSH1 0x2 DUP2 GT ISZERO PUSH2 0x2C9E JUMPI INVALID JUMPDEST EQ ISZERO PUSH2 0x2CAF JUMPI PUSH2 0x2541 DUP8 DUP8 DUP7 PUSH2 0x34B3 JUMP JUMPDEST PUSH2 0x2575 PUSH2 0x136 PUSH2 0x2334 JUMP JUMPDEST PUSH1 0x0 PUSH2 0x258F DUP5 DUP5 PUSH2 0x100B PUSH2 0x24A6 JUMP JUMPDEST PUSH1 0x0 DUP1 PUSH32 0x0 PUSH1 0x1 PUSH1 0x1 PUSH1 0xA0 SHL SUB AND DUP4 PUSH1 0x1 PUSH1 0x1 PUSH1 0xA0 SHL SUB AND EQ ISZERO PUSH2 0x2D0E JUMPI POP PUSH1 0x0 PUSH2 0x2DDF JUMP JUMPDEST PUSH32 0x0 PUSH1 0x1 PUSH1 0x1 PUSH1 0xA0 SHL SUB AND DUP4 PUSH1 0x1 PUSH1 0x1 PUSH1 0xA0 SHL SUB AND EQ ISZERO PUSH2 0x2D50 JUMPI POP PUSH1 0x1 PUSH2 0x2DDF JUMP JUMPDEST PUSH32 0x0 PUSH1 0x1 PUSH1 0x1 PUSH1 0xA0 SHL SUB AND DUP4 PUSH1 0x1 PUSH1 0x1 PUSH1 0xA0 SHL SUB AND EQ ISZERO PUSH2 0x2D92 JUMPI POP PUSH1 0x2 PUSH2 0x2DDF JUMP JUMPDEST PUSH32 0x0 PUSH1 0x1 PUSH1 0x1 PUSH1 0xA0 SHL SUB AND DUP4 PUSH1 0x1 PUSH1 0x1 PUSH1 0xA0 SHL SUB AND EQ ISZERO PUSH2 0x2DD4 JUMPI POP PUSH1 0x3 PUSH2 0x2DDF JUMP JUMPDEST PUSH2 0x2DDF PUSH2 0x135 PUSH2 0x2334 JUMP JUMPDEST PUSH2 0x645 DUP2 PUSH1 0xB SLOAD PUSH2 0x23A1 JUMP JUMPDEST PUSH1 0x0 PUSH2 0x2E0D PUSH2 0x2E02 DUP8 PUSH8 0x429D069189E0000 PUSH2 0x2599 JUMP JUMPDEST DUP4 GT ISZERO PUSH2 0x130 PUSH2 0x13D8 JUMP JUMPDEST PUSH1 0x0 PUSH2 0x2E19 DUP8 DUP5 PUSH2 0x100B JUMP JUMPDEST SWAP1 POP PUSH1 0x0 PUSH2 0x2E27 DUP9 DUP4 PUSH2 0x10A4 JUMP JUMPDEST SWAP1 POP PUSH1 0x0 PUSH2 0x2E35 DUP9 DUP8 PUSH2 0x1BE7 JUMP JUMPDEST SWAP1 POP PUSH1 0x0 PUSH2 0x2E43 DUP4 DUP4 PUSH2 0x3017 JUMP JUMPDEST SWAP1 POP PUSH2 0x2AA9 PUSH2 0x2E51 DUP3 PUSH2 0x3043 JUMP JUMPDEST DUP10 SWAP1 PUSH2 0x2599 JUMP JUMPDEST PUSH1 0x0 PUSH2 0x2E7A PUSH2 0x2E6F DUP6 PUSH8 0x429D069189E0000 PUSH2 0x2599 JUMP JUMPDEST DUP4 GT ISZERO PUSH2 0x131 PUSH2 0x13D8 JUMP JUMPDEST PUSH1 0x0 PUSH2 0x2E90 PUSH2 0x2E89 DUP7 DUP6 PUSH2 0xF97 JUMP JUMPDEST DUP7 SWAP1 PUSH2 0x10A4 JUMP JUMPDEST SWAP1 POP PUSH1 0x0 PUSH2 0x2E9E DUP6 DUP9 PUSH2 0x10A4 JUMP JUMPDEST SWAP1 POP PUSH1 0x0 PUSH2 0x2EAC DUP4 DUP4 PUSH2 0x3017 JUMP JUMPDEST SWAP1 POP PUSH1 0x0 PUSH2 0x2EC2 DUP3 PUSH8 0xDE0B6B3A7640000 PUSH2 0xF97 JUMP JUMPDEST SWAP1 POP PUSH2 0x2AA9 DUP11 DUP3 PUSH2 0x1056 JUMP JUMPDEST PUSH1 0x0 DUP2 PUSH2 0x2EE4 JUMPI POP PUSH8 0xDE0B6B3A7640000 PUSH2 0x57E JUMP JUMPDEST DUP3 PUSH2 0x2EF1 JUMPI POP PUSH1 0x0 PUSH2 0x57E JUMP JUMPDEST PUSH2 0x2F02 PUSH1 0x1 PUSH1 0xFF SHL DUP5 LT PUSH1 0x6 PUSH2 0x13D8 JUMP JUMPDEST DUP3 PUSH2 0x2F28 PUSH24 0xBCE5086492111AEA88F4BB1CA6BCF584181EA8059F76532 DUP5 LT PUSH1 0x7 PUSH2 0x13D8 JUMP JUMPDEST DUP3 PUSH1 0x0 PUSH8 0xC7D713B49DA0000 DUP4 SGT DUP1 ISZERO PUSH2 0x2F49 JUMPI POP PUSH8 0xF43FC2C04EE0000 DUP4 SLT JUMPDEST ISZERO PUSH2 0x2F80 JUMPI PUSH1 0x0 PUSH2 0x2F59 DUP5 PUSH2 0x355F JUMP JUMPDEST SWAP1 POP PUSH8 0xDE0B6B3A7640000 DUP1 DUP3 SMOD DUP5 MUL SDIV DUP4 PUSH8 0xDE0B6B3A7640000 DUP4 SDIV MUL ADD SWAP2 POP POP PUSH2 0x2F8E JUMP JUMPDEST DUP2 PUSH2 0x2F8A DUP5 PUSH2 0x367D JUMP JUMPDEST MUL SWAP1 POP JUMPDEST PUSH8 0xDE0B6B3A7640000 SWAP1 SDIV PUSH2 0x2FC6 PUSH9 0x238FD42C5CF03FFFF NOT DUP3 SLT DUP1 ISZERO SWAP1 PUSH2 0x2FBF JUMPI POP PUSH9 0x70C1CC73B00C80000 DUP3 SGT ISZERO JUMPDEST PUSH1 0x8 PUSH2 0x13D8 JUMP JUMPDEST PUSH2 0x23ED DUP2 PUSH2 0x3A1C JUMP JUMPDEST PUSH1 0x60 DUP2 DUP1 PUSH1 0x20 ADD SWAP1 MLOAD DUP2 ADD SWAP1 PUSH2 0x645 SWAP2 SWAP1 PUSH2 0x4627 JUMP JUMPDEST PUSH1 0x0 PUSH2 0x2FF7 PUSH4 0x1C74C917 PUSH1 0xE1 SHL PUSH2 0x97A JUMP JUMPDEST DUP3 EQ DUP1 PUSH2 0x57E JUMPI POP PUSH2 0x300F PUSH4 0x50DD6ED9 PUSH1 0xE0 SHL PUSH2 0x97A JUMP JUMPDEST SWAP1 SWAP2 EQ SWAP2 SWAP1 POP JUMP JUMPDEST PUSH1 0x0 DUP1 PUSH2 0x3024 DUP5 DUP5 PUSH2 0x2ECE JUMP JUMPDEST SWAP1 POP PUSH1 0x0 PUSH2 0x3037 PUSH2 0x278B DUP4 PUSH2 0x2710 PUSH2 0x1056 JUMP JUMPDEST SWAP1 POP PUSH2 0x2AB0 DUP3 DUP3 PUSH2 0x100B JUMP JUMPDEST PUSH1 0x0 PUSH8 0xDE0B6B3A7640000 DUP3 LT PUSH2 0x305B JUMPI PUSH1 0x0 PUSH2 0x57E JUMP JUMPDEST POP PUSH8 0xDE0B6B3A7640000 SUB SWAP1 JUMP JUMPDEST PUSH1 0x0 DUP1 DUP3 DUP1 PUSH1 0x20 ADD SWAP1 MLOAD DUP2 ADD SWAP1 PUSH2 0x3080 SWAP2 SWAP1 PUSH2 0x45F1 JUMP JUMPDEST SWAP1 SWAP6 SWAP1 SWAP5 POP SWAP3 POP POP POP JUMP JUMPDEST PUSH1 0x0 DUP1 PUSH2 0x309C DUP5 PUSH2 0xFC7 DUP2 DUP9 PUSH2 0xF97 JUMP JUMPDEST SWAP1 POP PUSH2 0x30B5 PUSH8 0x9B6E64A8EC60000 DUP3 LT ISZERO PUSH2 0x132 PUSH2 0x13D8 JUMP JUMPDEST PUSH1 0x0 PUSH2 0x30D3 PUSH2 0x30CC PUSH8 0xDE0B6B3A7640000 DUP10 PUSH2 0x1BE7 JUMP JUMPDEST DUP4 SWAP1 PUSH2 0x3017 JUMP JUMPDEST SWAP1 POP PUSH1 0x0 PUSH2 0x30EA PUSH2 0x30E3 DUP4 PUSH2 0x3043 JUMP JUMPDEST DUP11 SWAP1 PUSH2 0x2599 JUMP JUMPDEST SWAP1 POP PUSH1 0x0 PUSH2 0x30F7 DUP10 PUSH2 0x3043 JUMP JUMPDEST SWAP1 POP PUSH1 0x0 PUSH2 0x3105 DUP4 DUP4 PUSH2 0x1056 JUMP JUMPDEST SWAP1 POP PUSH1 0x0 PUSH2 0x3113 DUP5 DUP4 PUSH2 0xF97 JUMP JUMPDEST SWAP1 POP PUSH2 0x313B PUSH2 0x3134 PUSH2 0x312D PUSH8 0xDE0B6B3A7640000 DUP12 PUSH2 0xF97 JUMP JUMPDEST DUP5 SWAP1 PUSH2 0x2599 JUMP JUMPDEST DUP3 SWAP1 PUSH2 0x100B JUMP JUMPDEST SWAP13 SWAP12 POP POP POP POP POP POP POP POP POP POP POP POP JUMP JUMPDEST PUSH1 0x0 DUP2 DUP1 PUSH1 0x20 ADD SWAP1 MLOAD DUP2 ADD SWAP1 PUSH2 0x645 SWAP2 SWAP1 PUSH2 0x45C4 JUMP JUMPDEST PUSH1 0x60 PUSH1 0x0 PUSH2 0x316F DUP5 DUP5 PUSH2 0x1BE7 JUMP JUMPDEST SWAP1 POP PUSH1 0x0 DUP6 MLOAD PUSH1 0x1 PUSH1 0x1 PUSH1 0x40 SHL SUB DUP2 GT DUP1 ISZERO PUSH2 0x318A JUMPI PUSH1 0x0 DUP1 REVERT JUMPDEST POP PUSH1 0x40 MLOAD SWAP1 DUP1 DUP3 MSTORE DUP1 PUSH1 0x20 MUL PUSH1 0x20 ADD DUP3 ADD PUSH1 0x40 MSTORE DUP1 ISZERO PUSH2 0x31B4 JUMPI DUP2 PUSH1 0x20 ADD PUSH1 0x20 DUP3 MUL DUP1 CALLDATASIZE DUP4 CALLDATACOPY ADD SWAP1 POP JUMPDEST POP SWAP1 POP PUSH1 0x0 JUMPDEST DUP7 MLOAD DUP2 LT ISZERO PUSH2 0x3208 JUMPI PUSH2 0x31E9 DUP4 DUP9 DUP4 DUP2 MLOAD DUP2 LT PUSH2 0x31D3 JUMPI INVALID JUMPDEST PUSH1 0x20 MUL PUSH1 0x20 ADD ADD MLOAD PUSH2 0x2599 SWAP1 SWAP2 SWAP1 PUSH4 0xFFFFFFFF AND JUMP JUMPDEST DUP3 DUP3 DUP2 MLOAD DUP2 LT PUSH2 0x31F5 JUMPI INVALID JUMPDEST PUSH1 0x20 SWAP1 DUP2 MUL SWAP2 SWAP1 SWAP2 ADD ADD MSTORE PUSH1 0x1 ADD PUSH2 0x31BA JUMP JUMPDEST POP SWAP6 SWAP5 POP POP POP POP POP JUMP JUMPDEST PUSH1 0x60 PUSH1 0x0 DUP3 DUP1 PUSH1 0x20 ADD SWAP1 MLOAD DUP2 ADD SWAP1 PUSH2 0x3080 SWAP2 SWAP1 PUSH2 0x457E JUMP JUMPDEST PUSH1 0x0 DUP1 DUP5 MLOAD PUSH1 0x1 PUSH1 0x1 PUSH1 0x40 SHL SUB DUP2 GT DUP1 ISZERO PUSH2 0x3244 JUMPI PUSH1 0x0 DUP1 REVERT JUMPDEST POP PUSH1 0x40 MLOAD SWAP1 DUP1 DUP3 MSTORE DUP1 PUSH1 0x20 MUL PUSH1 0x20 ADD DUP3 ADD PUSH1 0x40 MSTORE DUP1 ISZERO PUSH2 0x326E JUMPI DUP2 PUSH1 0x20 ADD PUSH1 0x20 DUP3 MUL DUP1 CALLDATASIZE DUP4 CALLDATACOPY ADD SWAP1 POP JUMPDEST POP SWAP1 POP PUSH1 0x0 DUP1 JUMPDEST DUP9 MLOAD DUP2 LT ISZERO PUSH2 0x3333 JUMPI PUSH2 0x32CE DUP10 DUP3 DUP2 MLOAD DUP2 LT PUSH2 0x328D JUMPI INVALID JUMPDEST PUSH1 0x20 MUL PUSH1 0x20 ADD ADD MLOAD PUSH2 0xFC7 DUP10 DUP5 DUP2 MLOAD DUP2 LT PUSH2 0x32A4 JUMPI INVALID JUMPDEST PUSH1 0x20 MUL PUSH1 0x20 ADD ADD MLOAD DUP13 DUP6 DUP2 MLOAD DUP2 LT PUSH2 0x32B8 JUMPI INVALID JUMPDEST PUSH1 0x20 MUL PUSH1 0x20 ADD ADD MLOAD PUSH2 0xF97 SWAP1 SWAP2 SWAP1 PUSH4 0xFFFFFFFF AND JUMP JUMPDEST DUP4 DUP3 DUP2 MLOAD DUP2 LT PUSH2 0x32DA JUMPI INVALID JUMPDEST PUSH1 0x20 MUL PUSH1 0x20 ADD ADD DUP2 DUP2 MSTORE POP POP PUSH2 0x3329 PUSH2 0x3322 DUP10 DUP4 DUP2 MLOAD DUP2 LT PUSH2 0x32F8 JUMPI INVALID JUMPDEST PUSH1 0x20 MUL PUSH1 0x20 ADD ADD MLOAD DUP6 DUP5 DUP2 MLOAD DUP2 LT PUSH2 0x330C JUMPI INVALID JUMPDEST PUSH1 0x20 MUL PUSH1 0x20 ADD ADD MLOAD PUSH2 0x1056 SWAP1 SWAP2 SWAP1 PUSH4 0xFFFFFFFF AND JUMP JUMPDEST DUP4 SWAP1 PUSH2 0x100B JUMP JUMPDEST SWAP2 POP PUSH1 0x1 ADD PUSH2 0x3275 JUMP JUMPDEST POP PUSH8 0xDE0B6B3A7640000 PUSH1 0x0 JUMPDEST DUP10 MLOAD DUP2 LT ISZERO PUSH2 0x3435 JUMPI PUSH1 0x0 DUP5 DUP3 DUP2 MLOAD DUP2 LT PUSH2 0x3357 JUMPI INVALID JUMPDEST PUSH1 0x20 MUL PUSH1 0x20 ADD ADD MLOAD DUP5 GT ISZERO PUSH2 0x33B7 JUMPI PUSH1 0x0 PUSH2 0x3380 PUSH2 0x3374 DUP7 PUSH2 0x3043 JUMP JUMPDEST DUP14 DUP6 DUP2 MLOAD DUP2 LT PUSH2 0x31D3 JUMPI INVALID JUMPDEST SWAP1 POP PUSH1 0x0 PUSH2 0x3394 DUP3 DUP13 DUP7 DUP2 MLOAD DUP2 LT PUSH2 0x32B8 JUMPI INVALID JUMPDEST SWAP1 POP PUSH2 0x33AE PUSH2 0x3322 PUSH2 0x1FAC PUSH8 0xDE0B6B3A7640000 DUP13 PUSH2 0xF97 JUMP JUMPDEST SWAP3 POP POP POP PUSH2 0x33CE JUMP JUMPDEST DUP9 DUP3 DUP2 MLOAD DUP2 LT PUSH2 0x33C3 JUMPI INVALID JUMPDEST PUSH1 0x20 MUL PUSH1 0x20 ADD ADD MLOAD SWAP1 POP JUMPDEST PUSH1 0x0 PUSH2 0x33F7 DUP13 DUP5 DUP2 MLOAD DUP2 LT PUSH2 0x33DF JUMPI INVALID JUMPDEST PUSH1 0x20 MUL PUSH1 0x20 ADD ADD MLOAD PUSH2 0x7D9 DUP5 DUP16 DUP8 DUP2 MLOAD DUP2 LT PUSH2 0x32B8 JUMPI INVALID JUMPDEST SWAP1 POP PUSH2 0x3429 PUSH2 0x3422 DUP13 DUP6 DUP2 MLOAD DUP2 LT PUSH2 0x340B JUMPI INVALID JUMPDEST PUSH1 0x20 MUL PUSH1 0x20 ADD ADD MLOAD DUP4 PUSH2 0x276B SWAP1 SWAP2 SWAP1 PUSH4 0xFFFFFFFF AND JUMP JUMPDEST DUP6 SWAP1 PUSH2 0x2599 JUMP JUMPDEST SWAP4 POP POP POP PUSH1 0x1 ADD PUSH2 0x3340 JUMP JUMPDEST POP PUSH2 0x3449 PUSH2 0x3442 DUP3 PUSH2 0x3043 JUMP JUMPDEST DUP8 SWAP1 PUSH2 0x1056 JUMP JUMPDEST SWAP10 SWAP9 POP POP POP POP POP POP POP POP POP JUMP JUMPDEST PUSH1 0x0 PUSH1 0x60 PUSH1 0x0 DUP1 PUSH2 0x3466 DUP6 PUSH2 0x3212 JUMP JUMPDEST SWAP2 POP SWAP2 POP PUSH2 0x347C PUSH2 0x3475 PUSH2 0x15FC JUMP JUMPDEST DUP4 MLOAD PUSH2 0xF75 JUMP JUMPDEST PUSH2 0x3486 DUP3 DUP8 PUSH2 0x1C2F JUMP JUMPDEST PUSH1 0x0 PUSH2 0x34A3 DUP10 DUP10 DUP6 PUSH2 0x3496 PUSH2 0x598 JUMP JUMPDEST PUSH2 0x349E PUSH2 0x76C JUMP JUMPDEST PUSH2 0x3DF9 JUMP JUMPDEST SWAP1 POP PUSH2 0x2C43 DUP3 DUP3 LT ISZERO PUSH1 0xD0 PUSH2 0x13D8 JUMP JUMPDEST PUSH1 0x0 PUSH1 0x60 PUSH1 0x0 DUP1 PUSH2 0x34C3 DUP6 PUSH2 0x3069 JUMP JUMPDEST SWAP2 POP SWAP2 POP PUSH2 0x34D2 PUSH2 0x2AF6 PUSH2 0x15FC JUMP JUMPDEST PUSH1 0x0 PUSH2 0x34DC PUSH2 0x15FC JUMP JUMPDEST PUSH1 0x1 PUSH1 0x1 PUSH1 0x40 SHL SUB DUP2 GT DUP1 ISZERO PUSH2 0x34F1 JUMPI PUSH1 0x0 DUP1 REVERT JUMPDEST POP PUSH1 0x40 MLOAD SWAP1 DUP1 DUP3 MSTORE DUP1 PUSH1 0x20 MUL PUSH1 0x20 ADD DUP3 ADD PUSH1 0x40 MSTORE DUP1 ISZERO PUSH2 0x351B JUMPI DUP2 PUSH1 0x20 ADD PUSH1 0x20 DUP3 MUL DUP1 CALLDATASIZE DUP4 CALLDATACOPY ADD SWAP1 POP JUMPDEST POP SWAP1 POP PUSH2 0x2B8C DUP9 DUP4 DUP2 MLOAD DUP2 LT PUSH2 0x352D JUMPI INVALID JUMPDEST PUSH1 0x20 MUL PUSH1 0x20 ADD ADD MLOAD DUP9 DUP5 DUP2 MLOAD DUP2 LT PUSH2 0x3541 JUMPI INVALID JUMPDEST PUSH1 0x20 MUL PUSH1 0x20 ADD ADD MLOAD DUP6 PUSH2 0x3552 PUSH2 0x598 JUMP JUMPDEST PUSH2 0x355A PUSH2 0x76C JUMP JUMPDEST PUSH2 0x4009 JUMP JUMPDEST PUSH8 0xDE0B6B3A7640000 MUL PUSH1 0x0 DUP1 PUSH11 0xC097CE7BC90715B34B9F1 PUSH1 0x24 SHL DUP1 DUP5 ADD SWAP1 PUSH15 0xC097CE7BC90715B34B9F0FFFFFFFFF NOT DUP6 ADD MUL DUP2 PUSH2 0x359A JUMPI INVALID JUMPDEST SDIV SWAP1 POP PUSH1 0x0 PUSH11 0xC097CE7BC90715B34B9F1 PUSH1 0x24 SHL DUP3 DUP1 MUL SDIV SWAP1 POP DUP2 DUP1 PUSH11 0xC097CE7BC90715B34B9F1 PUSH1 0x24 SHL DUP2 DUP5 MUL SDIV SWAP2 POP PUSH1 0x3 DUP3 SDIV ADD PUSH11 0xC097CE7BC90715B34B9F1 PUSH1 0x24 SHL DUP3 DUP5 MUL SDIV SWAP2 POP PUSH1 0x5 DUP3 SDIV ADD PUSH11 0xC097CE7BC90715B34B9F1 PUSH1 0x24 SHL DUP3 DUP5 MUL SDIV SWAP2 POP PUSH1 0x7 DUP3 SDIV ADD PUSH11 0xC097CE7BC90715B34B9F1 PUSH1 0x24 SHL DUP3 DUP5 MUL SDIV SWAP2 POP PUSH1 0x9 DUP3 SDIV ADD PUSH11 0xC097CE7BC90715B34B9F1 PUSH1 0x24 SHL DUP3 DUP5 MUL SDIV SWAP2 POP PUSH1 0xB DUP3 SDIV ADD PUSH11 0xC097CE7BC90715B34B9F1 PUSH1 0x24 SHL DUP3 DUP5 MUL SDIV SWAP2 POP PUSH1 0xD DUP3 SDIV ADD PUSH11 0xC097CE7BC90715B34B9F1 PUSH1 0x24 SHL DUP3 DUP5 MUL SDIV SWAP2 POP PUSH1 0xF DUP3 PUSH1 0x2 SWAP2 SWAP1 SDIV SWAP2 SWAP1 SWAP2 ADD MUL SWAP6 SWAP5 POP POP POP POP POP JUMP JUMPDEST PUSH1 0x0 PUSH8 0xDE0B6B3A7640000 DUP3 SLT ISZERO PUSH2 0x36B9 JUMPI PUSH2 0x36AF DUP3 PUSH11 0xC097CE7BC90715B34B9F1 PUSH1 0x24 SHL DUP2 PUSH2 0x36A9 JUMPI INVALID JUMPDEST SDIV PUSH2 0x367D JUMP JUMPDEST PUSH1 0x0 SUB SWAP1 POP PUSH2 0x7F9 JUMP JUMPDEST PUSH1 0x0 PUSH31 0x1600EF3172E58D2E933EC884FDE10064C63B5372D805E203C0000000000000 DUP4 SLT PUSH2 0x370A JUMPI PUSH24 0x195E54C5DD42177F53A27172FA9EC630262827000000000 DUP4 SDIV SWAP3 POP PUSH9 0x6F05B59D3B2000000 ADD JUMPDEST PUSH20 0x11798004D755D3C8BC8E03204CF44619E000000 DUP4 SLT PUSH2 0x3742 JUMPI PUSH12 0x1425982CF597CD205CEF7380 DUP4 SDIV SWAP3 POP PUSH9 0x3782DACE9D9000000 ADD JUMPDEST PUSH1 0x64 SWAP3 DUP4 MUL SWAP3 MUL PUSH15 0x1855144814A7FF805980FF0084000 DUP4 SLT PUSH2 0x378A JUMPI PUSH15 0x1855144814A7FF805980FF0084000 PUSH9 0x56BC75E2D63100000 DUP5 MUL SDIV SWAP3 POP PUSH9 0xAD78EBC5AC62000000 ADD JUMPDEST PUSH12 0x2DF0AB5A80A22C61AB5A700 DUP4 SLT PUSH2 0x37C5 JUMPI PUSH12 0x2DF0AB5A80A22C61AB5A700 PUSH9 0x56BC75E2D63100000 DUP5 MUL SDIV SWAP3 POP PUSH9 0x56BC75E2D631000000 ADD JUMPDEST PUSH10 0x3F1FCE3DA636EA5CF850 DUP4 SLT PUSH2 0x37FC JUMPI PUSH10 0x3F1FCE3DA636EA5CF850 PUSH9 0x56BC75E2D63100000 DUP5 MUL SDIV SWAP3 POP PUSH9 0x2B5E3AF16B18800000 ADD JUMPDEST PUSH10 0x127FA27722CC06CC5E2 DUP4 SLT PUSH2 0x3833 JUMPI PUSH10 0x127FA27722CC06CC5E2 PUSH9 0x56BC75E2D63100000 DUP5 MUL SDIV SWAP3 POP PUSH9 0x15AF1D78B58C400000 ADD JUMPDEST PUSH9 0x280E60114EDB805D03 DUP4 SLT PUSH2 0x3868 JUMPI PUSH9 0x280E60114EDB805D03 PUSH9 0x56BC75E2D63100000 DUP5 MUL SDIV SWAP3 POP PUSH9 0xAD78EBC5AC6200000 ADD JUMPDEST PUSH9 0xEBC5FB41746121110 DUP4 SLT PUSH2 0x3893 JUMPI PUSH9 0xEBC5FB41746121110 PUSH9 0x56BC75E2D63100000 SWAP4 DUP5 MUL SDIV SWAP3 ADD JUMPDEST PUSH9 0x8F00F760A4B2DB55D DUP4 SLT PUSH2 0x38C8 JUMPI PUSH9 0x8F00F760A4B2DB55D PUSH9 0x56BC75E2D63100000 DUP5 MUL SDIV SWAP3 POP PUSH9 0x2B5E3AF16B1880000 ADD JUMPDEST PUSH9 0x6F5F1775788937937 DUP4 SLT PUSH2 0x38FD JUMPI PUSH9 0x6F5F1775788937937 PUSH9 0x56BC75E2D63100000 DUP5 MUL SDIV SWAP3 POP PUSH9 0x15AF1D78B58C40000 ADD JUMPDEST PUSH9 0x6248F33704B286603 DUP4 SLT PUSH2 0x3931 JUMPI PUSH9 0x6248F33704B286603 PUSH9 0x56BC75E2D63100000 DUP5 MUL SDIV SWAP3 POP PUSH8 0xAD78EBC5AC620000 ADD JUMPDEST PUSH9 0x5C548670B9510E7AC DUP4 SLT PUSH2 0x3965 JUMPI PUSH9 0x5C548670B9510E7AC PUSH9 0x56BC75E2D63100000 DUP5 MUL SDIV SWAP3 POP PUSH8 0x56BC75E2D6310000 ADD JUMPDEST PUSH1 0x0 PUSH9 0x56BC75E2D63100000 DUP5 ADD PUSH9 0x56BC75E2D63100000 DUP1 DUP7 SUB MUL DUP2 PUSH2 0x3988 JUMPI INVALID JUMPDEST SDIV SWAP1 POP PUSH1 0x0 PUSH9 0x56BC75E2D63100000 DUP3 DUP1 MUL SDIV SWAP1 POP DUP2 DUP1 PUSH9 0x56BC75E2D63100000 DUP2 DUP5 MUL SDIV SWAP2 POP PUSH1 0x3 DUP3 SDIV ADD PUSH9 0x56BC75E2D63100000 DUP3 DUP5 MUL SDIV SWAP2 POP PUSH1 0x5 DUP3 SDIV ADD PUSH9 0x56BC75E2D63100000 DUP3 DUP5 MUL SDIV SWAP2 POP PUSH1 0x7 DUP3 SDIV ADD PUSH9 0x56BC75E2D63100000 DUP3 DUP5 MUL SDIV SWAP2 POP PUSH1 0x9 DUP3 SDIV ADD PUSH9 0x56BC75E2D63100000 DUP3 DUP5 MUL SDIV SWAP2 POP PUSH1 0xB DUP3 SDIV ADD PUSH1 0x2 MUL PUSH1 0x64 DUP6 DUP3 ADD SDIV SWAP8 SWAP7 POP POP POP POP POP POP POP JUMP JUMPDEST PUSH1 0x0 PUSH2 0x3A4B PUSH9 0x238FD42C5CF03FFFF NOT DUP4 SLT ISZERO DUP1 ISZERO PUSH2 0x3A44 JUMPI POP PUSH9 0x70C1CC73B00C80000 DUP4 SGT ISZERO JUMPDEST PUSH1 0x9 PUSH2 0x13D8 JUMP JUMPDEST PUSH1 0x0 DUP3 SLT ISZERO PUSH2 0x3A7E JUMPI PUSH2 0x3A60 DUP3 PUSH1 0x0 SUB PUSH2 0x3A1C JUMP JUMPDEST PUSH11 0xC097CE7BC90715B34B9F1 PUSH1 0x24 SHL DUP2 PUSH2 0x3A76 JUMPI INVALID JUMPDEST SDIV SWAP1 POP PUSH2 0x7F9 JUMP JUMPDEST PUSH1 0x0 PUSH9 0x6F05B59D3B2000000 DUP4 SLT PUSH2 0x3ABE JUMPI POP PUSH9 0x6F05B59D3B1FFFFFF NOT SWAP1 SWAP2 ADD SWAP1 PUSH24 0x195E54C5DD42177F53A27172FA9EC630262827000000000 PUSH2 0x3AF4 JUMP JUMPDEST PUSH9 0x3782DACE9D9000000 DUP4 SLT PUSH2 0x3AF0 JUMPI POP PUSH9 0x3782DACE9D8FFFFFF NOT SWAP1 SWAP2 ADD SWAP1 PUSH12 0x1425982CF597CD205CEF7380 PUSH2 0x3AF4 JUMP JUMPDEST POP PUSH1 0x1 JUMPDEST PUSH1 0x64 SWAP3 SWAP1 SWAP3 MUL SWAP2 PUSH9 0x56BC75E2D63100000 PUSH9 0xAD78EBC5AC62000000 DUP5 SLT PUSH2 0x3B44 JUMPI PUSH9 0xAD78EBC5AC61FFFFFF NOT SWAP1 SWAP4 ADD SWAP3 PUSH9 0x56BC75E2D63100000 PUSH15 0x1855144814A7FF805980FF0084000 DUP3 MUL SDIV SWAP1 POP JUMPDEST PUSH9 0x56BC75E2D631000000 DUP5 SLT PUSH2 0x3B80 JUMPI PUSH9 0x56BC75E2D630FFFFFF NOT SWAP1 SWAP4 ADD SWAP3 PUSH9 0x56BC75E2D63100000 PUSH12 0x2DF0AB5A80A22C61AB5A700 DUP3 MUL SDIV SWAP1 POP JUMPDEST PUSH9 0x2B5E3AF16B18800000 DUP5 SLT PUSH2 0x3BBA JUMPI PUSH9 0x2B5E3AF16B187FFFFF NOT SWAP1 SWAP4 ADD SWAP3 PUSH9 0x56BC75E2D63100000 PUSH10 0x3F1FCE3DA636EA5CF850 DUP3 MUL SDIV SWAP1 POP JUMPDEST PUSH9 0x15AF1D78B58C400000 DUP5 SLT PUSH2 0x3BF4 JUMPI PUSH9 0x15AF1D78B58C3FFFFF NOT SWAP1 SWAP4 ADD SWAP3 PUSH9 0x56BC75E2D63100000 PUSH10 0x127FA27722CC06CC5E2 DUP3 MUL SDIV SWAP1 POP JUMPDEST PUSH9 0xAD78EBC5AC6200000 DUP5 SLT PUSH2 0x3C2D JUMPI PUSH9 0xAD78EBC5AC61FFFFF NOT SWAP1 SWAP4 ADD SWAP3 PUSH9 0x56BC75E2D63100000 PUSH9 0x280E60114EDB805D03 DUP3 MUL SDIV SWAP1 POP JUMPDEST PUSH9 0x56BC75E2D63100000 DUP5 SLT PUSH2 0x3C66 JUMPI PUSH9 0x56BC75E2D630FFFFF NOT SWAP1 SWAP4 ADD SWAP3 PUSH9 0x56BC75E2D63100000 PUSH9 0xEBC5FB41746121110 DUP3 MUL SDIV SWAP1 POP JUMPDEST PUSH9 0x2B5E3AF16B1880000 DUP5 SLT PUSH2 0x3C9F JUMPI PUSH9 0x2B5E3AF16B187FFFF NOT SWAP1 SWAP4 ADD SWAP3 PUSH9 0x56BC75E2D63100000 PUSH9 0x8F00F760A4B2DB55D DUP3 MUL SDIV SWAP1 POP JUMPDEST PUSH9 0x15AF1D78B58C40000 DUP5 SLT PUSH2 0x3CD8 JUMPI PUSH9 0x15AF1D78B58C3FFFF NOT SWAP1 SWAP4 ADD SWAP3 PUSH9 0x56BC75E2D63100000 PUSH9 0x6F5F1775788937937 DUP3 MUL SDIV SWAP1 POP JUMPDEST PUSH9 0x56BC75E2D63100000 DUP5 DUP2 ADD SWAP1 DUP6 SWAP1 PUSH1 0x2 SWAP1 DUP3 DUP1 MUL SDIV SDIV SWAP2 DUP3 ADD SWAP2 SWAP1 POP PUSH1 0x3 PUSH9 0x56BC75E2D63100000 DUP8 DUP4 MUL SDIV SDIV SWAP2 DUP3 ADD SWAP2 SWAP1 POP PUSH1 0x4 PUSH9 0x56BC75E2D63100000 DUP8 DUP4 MUL SDIV SDIV SWAP2 DUP3 ADD SWAP2 SWAP1 POP PUSH1 0x5 PUSH9 0x56BC75E2D63100000 DUP8 DUP4 MUL SDIV SDIV SWAP2 DUP3 ADD SWAP2 SWAP1 POP PUSH1 0x6 PUSH9 0x56BC75E2D63100000 DUP8 DUP4 MUL SDIV SDIV SWAP2 DUP3 ADD SWAP2 SWAP1 POP PUSH1 0x7 PUSH9 0x56BC75E2D63100000 DUP8 DUP4 MUL SDIV SDIV SWAP2 DUP3 ADD SWAP2 SWAP1 POP PUSH1 0x8 PUSH9 0x56BC75E2D63100000 DUP8 DUP4 MUL SDIV SDIV SWAP2 DUP3 ADD SWAP2 SWAP1 POP PUSH1 0x9 PUSH9 0x56BC75E2D63100000 DUP8 DUP4 MUL SDIV SDIV SWAP2 DUP3 ADD SWAP2 SWAP1 POP PUSH1 0xA PUSH9 0x56BC75E2D63100000 DUP8 DUP4 MUL SDIV SDIV SWAP2 DUP3 ADD SWAP2 SWAP1 POP PUSH1 0xB PUSH9 0x56BC75E2D63100000 DUP8 DUP4 MUL SDIV SDIV SWAP2 DUP3 ADD SWAP2 SWAP1 POP PUSH1 0xC PUSH9 0x56BC75E2D63100000 DUP8 DUP4 MUL SDIV SDIV SWAP2 DUP3 ADD SWAP2 SWAP1 POP PUSH1 0x64 PUSH9 0x56BC75E2D63100000 DUP5 DUP5 MUL SDIV DUP6 MUL SDIV SWAP7 SWAP6 POP POP POP POP POP POP JUMP JUMPDEST PUSH1 0x0 DUP1 DUP5 MLOAD PUSH1 0x1 PUSH1 0x1 PUSH1 0x40 SHL SUB DUP2 GT DUP1 ISZERO PUSH2 0x3E13 JUMPI PUSH1 0x0 DUP1 REVERT JUMPDEST POP PUSH1 0x40 MLOAD SWAP1 DUP1 DUP3 MSTORE DUP1 PUSH1 0x20 MUL PUSH1 0x20 ADD DUP3 ADD PUSH1 0x40 MSTORE DUP1 ISZERO PUSH2 0x3E3D JUMPI DUP2 PUSH1 0x20 ADD PUSH1 0x20 DUP3 MUL DUP1 CALLDATASIZE DUP4 CALLDATACOPY ADD SWAP1 POP JUMPDEST POP SWAP1 POP PUSH1 0x0 DUP1 JUMPDEST DUP9 MLOAD DUP2 LT ISZERO PUSH2 0x3EE5 JUMPI PUSH2 0x3E9D DUP10 DUP3 DUP2 MLOAD DUP2 LT PUSH2 0x3E5C JUMPI INVALID JUMPDEST PUSH1 0x20 MUL PUSH1 0x20 ADD ADD MLOAD PUSH2 0x7D9 DUP10 DUP5 DUP2 MLOAD DUP2 LT PUSH2 0x3E73 JUMPI INVALID JUMPDEST PUSH1 0x20 MUL PUSH1 0x20 ADD ADD MLOAD DUP13 DUP6 DUP2 MLOAD DUP2 LT PUSH2 0x3E87 JUMPI INVALID JUMPDEST PUSH1 0x20 MUL PUSH1 0x20 ADD ADD MLOAD PUSH2 0x100B SWAP1 SWAP2 SWAP1 PUSH4 0xFFFFFFFF AND JUMP JUMPDEST DUP4 DUP3 DUP2 MLOAD DUP2 LT PUSH2 0x3EA9 JUMPI INVALID JUMPDEST PUSH1 0x20 MUL PUSH1 0x20 ADD ADD DUP2 DUP2 MSTORE POP POP PUSH2 0x3EDB PUSH2 0x3322 DUP10 DUP4 DUP2 MLOAD DUP2 LT PUSH2 0x3EC7 JUMPI INVALID JUMPDEST PUSH1 0x20 MUL PUSH1 0x20 ADD ADD MLOAD DUP6 DUP5 DUP2 MLOAD DUP2 LT PUSH2 0x31D3 JUMPI INVALID JUMPDEST SWAP2 POP PUSH1 0x1 ADD PUSH2 0x3E44 JUMP JUMPDEST POP PUSH8 0xDE0B6B3A7640000 PUSH1 0x0 JUMPDEST DUP10 MLOAD DUP2 LT ISZERO PUSH2 0x3FC6 JUMPI PUSH1 0x0 DUP4 DUP6 DUP4 DUP2 MLOAD DUP2 LT PUSH2 0x3F0A JUMPI INVALID JUMPDEST PUSH1 0x20 MUL PUSH1 0x20 ADD ADD MLOAD GT ISZERO PUSH2 0x3F66 JUMPI PUSH1 0x0 PUSH2 0x3F2F PUSH2 0x3374 DUP7 PUSH8 0xDE0B6B3A7640000 PUSH2 0xF97 JUMP JUMPDEST SWAP1 POP PUSH1 0x0 PUSH2 0x3F43 DUP3 DUP13 DUP7 DUP2 MLOAD DUP2 LT PUSH2 0x32B8 JUMPI INVALID JUMPDEST SWAP1 POP PUSH2 0x3F5D PUSH2 0x3322 PUSH2 0x20FC PUSH8 0xDE0B6B3A7640000 DUP13 PUSH2 0xF97 JUMP JUMPDEST SWAP3 POP POP POP PUSH2 0x3F7D JUMP JUMPDEST DUP9 DUP3 DUP2 MLOAD DUP2 LT PUSH2 0x3F72 JUMPI INVALID JUMPDEST PUSH1 0x20 MUL PUSH1 0x20 ADD ADD MLOAD SWAP1 POP JUMPDEST PUSH1 0x0 PUSH2 0x3FA6 DUP13 DUP5 DUP2 MLOAD DUP2 LT PUSH2 0x3F8E JUMPI INVALID JUMPDEST PUSH1 0x20 MUL PUSH1 0x20 ADD ADD MLOAD PUSH2 0x7D9 DUP5 DUP16 DUP8 DUP2 MLOAD DUP2 LT PUSH2 0x3E87 JUMPI INVALID JUMPDEST SWAP1 POP PUSH2 0x3FBA PUSH2 0x3422 DUP13 DUP6 DUP2 MLOAD DUP2 LT PUSH2 0x340B JUMPI INVALID JUMPDEST SWAP4 POP POP POP PUSH1 0x1 ADD PUSH2 0x3EF2 JUMP JUMPDEST POP PUSH8 0xDE0B6B3A7640000 DUP2 GT ISZERO PUSH2 0x3FFD JUMPI PUSH2 0x3FF3 PUSH2 0x3FEC DUP3 PUSH8 0xDE0B6B3A7640000 PUSH2 0xF97 JUMP JUMPDEST DUP8 SWAP1 PUSH2 0x2599 JUMP JUMPDEST SWAP4 POP POP POP POP PUSH2 0x2AB0 JUMP JUMPDEST PUSH1 0x0 SWAP4 POP POP POP POP PUSH2 0x2AB0 JUMP JUMPDEST PUSH1 0x0 DUP1 PUSH2 0x401A DUP5 PUSH2 0xFC7 DUP2 DUP9 PUSH2 0x100B JUMP JUMPDEST SWAP1 POP PUSH2 0x4033 PUSH8 0x29A2241AF62C0000 DUP3 GT ISZERO PUSH2 0x133 PUSH2 0x13D8 JUMP JUMPDEST PUSH1 0x0 PUSH2 0x404A PUSH2 0x30CC PUSH8 0xDE0B6B3A7640000 DUP10 PUSH2 0x10A4 JUMP JUMPDEST SWAP1 POP PUSH1 0x0 PUSH2 0x406A PUSH2 0x4063 DUP4 PUSH8 0xDE0B6B3A7640000 PUSH2 0xF97 JUMP JUMPDEST DUP11 SWAP1 PUSH2 0x1056 JUMP JUMPDEST SWAP1 POP PUSH1 0x0 PUSH2 0x4077 DUP10 PUSH2 0x3043 JUMP JUMPDEST SWAP1 POP PUSH1 0x0 PUSH2 0x4085 DUP4 DUP4 PUSH2 0x1056 JUMP JUMPDEST SWAP1 POP PUSH1 0x0 PUSH2 0x4093 DUP5 DUP4 PUSH2 0xF97 JUMP JUMPDEST SWAP1 POP PUSH2 0x313B PUSH2 0x3134 PUSH2 0x40AD PUSH8 0xDE0B6B3A7640000 DUP12 PUSH2 0xF97 JUMP JUMPDEST DUP5 SWAP1 PUSH2 0x10A4 JUMP JUMPDEST DUP1 CALLDATALOAD PUSH2 0x7F9 DUP2 PUSH2 0x4ADD JUMP JUMPDEST PUSH1 0x0 DUP3 PUSH1 0x1F DUP4 ADD SLT PUSH2 0x40CF JUMPI DUP1 DUP2 REVERT JUMPDEST DUP2 CALLDATALOAD PUSH1 0x20 PUSH2 0x40E4 PUSH2 0x40DF DUP4 PUSH2 0x4AC0 JUMP JUMPDEST PUSH2 0x4A9D JUMP JUMPDEST DUP3 DUP2 MSTORE DUP2 DUP2 ADD SWAP1 DUP6 DUP4 ADD DUP4 DUP6 MUL DUP8 ADD DUP5 ADD DUP9 LT ISZERO PUSH2 0x4100 JUMPI DUP6 DUP7 REVERT JUMPDEST DUP6 JUMPDEST DUP6 DUP2 LT ISZERO PUSH2 0x411E JUMPI DUP2 CALLDATALOAD DUP5 MSTORE SWAP3 DUP5 ADD SWAP3 SWAP1 DUP5 ADD SWAP1 PUSH1 0x1 ADD PUSH2 0x4102 JUMP JUMPDEST POP SWAP1 SWAP8 SWAP7 POP POP POP POP POP POP POP JUMP JUMPDEST PUSH1 0x0 DUP3 PUSH1 0x1F DUP4 ADD SLT PUSH2 0x413B JUMPI DUP1 DUP2 REVERT JUMPDEST DUP2 MLOAD PUSH1 0x20 PUSH2 0x414B PUSH2 0x40DF DUP4 PUSH2 0x4AC0 JUMP JUMPDEST DUP3 DUP2 MSTORE DUP2 DUP2 ADD SWAP1 DUP6 DUP4 ADD DUP4 DUP6 MUL DUP8 ADD DUP5 ADD DUP9 LT ISZERO PUSH2 0x4167 JUMPI DUP6 DUP7 REVERT JUMPDEST DUP6 JUMPDEST DUP6 DUP2 LT ISZERO PUSH2 0x411E JUMPI DUP2 MLOAD DUP5 MSTORE SWAP3 DUP5 ADD SWAP3 SWAP1 DUP5 ADD SWAP1 PUSH1 0x1 ADD PUSH2 0x4169 JUMP JUMPDEST PUSH1 0x0 DUP3 PUSH1 0x1F DUP4 ADD SLT PUSH2 0x4195 JUMPI DUP1 DUP2 REVERT JUMPDEST DUP2 CALLDATALOAD PUSH1 0x1 PUSH1 0x1 PUSH1 0x40 SHL SUB DUP2 GT ISZERO PUSH2 0x41A8 JUMPI INVALID JUMPDEST PUSH2 0x41BB PUSH1 0x1F DUP3 ADD PUSH1 0x1F NOT AND PUSH1 0x20 ADD PUSH2 0x4A9D JUMP JUMPDEST DUP2 DUP2 MSTORE DUP5 PUSH1 0x20 DUP4 DUP7 ADD ADD GT ISZERO PUSH2 0x41CF JUMPI DUP3 DUP4 REVERT JUMPDEST DUP2 PUSH1 0x20 DUP6 ADD PUSH1 0x20 DUP4 ADD CALLDATACOPY SWAP1 DUP2 ADD PUSH1 0x20 ADD SWAP2 SWAP1 SWAP2 MSTORE SWAP3 SWAP2 POP POP JUMP JUMPDEST DUP1 CALLDATALOAD PUSH1 0x2 DUP2 LT PUSH2 0x7F9 JUMPI PUSH1 0x0 DUP1 REVERT JUMPDEST PUSH1 0x0 PUSH1 0x20 DUP3 DUP5 SUB SLT ISZERO PUSH2 0x4209 JUMPI DUP1 DUP2 REVERT JUMPDEST DUP2 CALLDATALOAD PUSH2 0x645 DUP2 PUSH2 0x4ADD JUMP JUMPDEST PUSH1 0x0 DUP1 PUSH1 0x40 DUP4 DUP6 SUB SLT ISZERO PUSH2 0x4226 JUMPI DUP1 DUP2 REVERT JUMPDEST DUP3 CALLDATALOAD PUSH2 0x4231 DUP2 PUSH2 0x4ADD JUMP JUMPDEST SWAP2 POP PUSH1 0x20 DUP4 ADD CALLDATALOAD PUSH2 0x4241 DUP2 PUSH2 0x4ADD JUMP JUMPDEST DUP1 SWAP2 POP POP SWAP3 POP SWAP3 SWAP1 POP JUMP JUMPDEST PUSH1 0x0 DUP1 PUSH1 0x0 PUSH1 0x60 DUP5 DUP7 SUB SLT ISZERO PUSH2 0x4260 JUMPI DUP1 DUP2 REVERT JUMPDEST DUP4 CALLDATALOAD PUSH2 0x426B DUP2 PUSH2 0x4ADD JUMP JUMPDEST SWAP3 POP PUSH1 0x20 DUP5 ADD CALLDATALOAD PUSH2 0x427B DUP2 PUSH2 0x4ADD JUMP JUMPDEST SWAP3 SWAP6 SWAP3 SWAP5 POP POP POP PUSH1 0x40 SWAP2 SWAP1 SWAP2 ADD CALLDATALOAD SWAP1 JUMP JUMPDEST PUSH1 0x0 DUP1 PUSH1 0x0 DUP1 PUSH1 0x0 DUP1 PUSH1 0x0 PUSH1 0xE0 DUP9 DUP11 SUB SLT ISZERO PUSH2 0x42A6 JUMPI DUP5 DUP6 REVERT JUMPDEST DUP8 CALLDATALOAD PUSH2 0x42B1 DUP2 PUSH2 0x4ADD JUMP JUMPDEST SWAP7 POP PUSH1 0x20 DUP9 ADD CALLDATALOAD PUSH2 0x42C1 DUP2 PUSH2 0x4ADD JUMP JUMPDEST SWAP6 POP PUSH1 0x40 DUP9 ADD CALLDATALOAD SWAP5 POP PUSH1 0x60 DUP9 ADD CALLDATALOAD SWAP4 POP PUSH1 0x80 DUP9 ADD CALLDATALOAD PUSH1 0xFF DUP2 AND DUP2 EQ PUSH2 0x42E4 JUMPI DUP4 DUP5 REVERT JUMPDEST SWAP7 SWAP10 SWAP6 SWAP9 POP SWAP4 SWAP7 SWAP3 SWAP6 SWAP5 PUSH1 0xA0 DUP5 ADD CALLDATALOAD SWAP5 POP PUSH1 0xC0 SWAP1 SWAP4 ADD CALLDATALOAD SWAP3 SWAP2 POP POP JUMP JUMPDEST PUSH1 0x0 DUP1 PUSH1 0x40 DUP4 DUP6 SUB SLT ISZERO PUSH2 0x4313 JUMPI DUP2 DUP3 REVERT JUMPDEST DUP3 CALLDATALOAD PUSH2 0x431E DUP2 PUSH2 0x4ADD JUMP JUMPDEST SWAP5 PUSH1 0x20 SWAP4 SWAP1 SWAP4 ADD CALLDATALOAD SWAP4 POP POP POP JUMP JUMPDEST PUSH1 0x0 DUP1 PUSH1 0x0 PUSH1 0x60 DUP5 DUP7 SUB SLT ISZERO PUSH2 0x4340 JUMPI DUP1 DUP2 REVERT JUMPDEST DUP4 MLOAD PUSH1 0x1 PUSH1 0x1 PUSH1 0x40 SHL SUB DUP1 DUP3 GT ISZERO PUSH2 0x4356 JUMPI DUP3 DUP4 REVERT JUMPDEST DUP2 DUP7 ADD SWAP2 POP DUP7 PUSH1 0x1F DUP4 ADD SLT PUSH2 0x4369 JUMPI DUP3 DUP4 REVERT JUMPDEST DUP2 MLOAD PUSH1 0x20 PUSH2 0x4379 PUSH2 0x40DF DUP4 PUSH2 0x4AC0 JUMP JUMPDEST DUP3 DUP2 MSTORE DUP2 DUP2 ADD SWAP1 DUP6 DUP4 ADD DUP4 DUP6 MUL DUP8 ADD DUP5 ADD DUP13 LT ISZERO PUSH2 0x4395 JUMPI DUP8 DUP9 REVERT JUMPDEST DUP8 SWAP7 POP JUMPDEST DUP5 DUP8 LT ISZERO PUSH2 0x43C0 JUMPI DUP1 MLOAD PUSH2 0x43AC DUP2 PUSH2 0x4ADD JUMP JUMPDEST DUP4 MSTORE PUSH1 0x1 SWAP7 SWAP1 SWAP7 ADD SWAP6 SWAP2 DUP4 ADD SWAP2 DUP4 ADD PUSH2 0x4399 JUMP JUMPDEST POP SWAP2 DUP10 ADD MLOAD SWAP2 SWAP8 POP SWAP1 SWAP4 POP POP POP DUP1 DUP3 GT ISZERO PUSH2 0x43D9 JUMPI DUP3 DUP4 REVERT JUMPDEST POP PUSH2 0x43E6 DUP7 DUP3 DUP8 ADD PUSH2 0x412B JUMP JUMPDEST SWAP3 POP POP PUSH1 0x40 DUP5 ADD MLOAD SWAP1 POP SWAP3 POP SWAP3 POP SWAP3 JUMP JUMPDEST PUSH1 0x0 PUSH1 0x20 DUP3 DUP5 SUB SLT ISZERO PUSH2 0x4408 JUMPI DUP1 DUP2 REVERT JUMPDEST DUP2 CALLDATALOAD PUSH2 0x645 DUP2 PUSH2 0x4AF2 JUMP JUMPDEST PUSH1 0x0 PUSH1 0x20 DUP3 DUP5 SUB SLT ISZERO PUSH2 0x4424 JUMPI DUP1 DUP2 REVERT JUMPDEST DUP2 MLOAD PUSH2 0x645 DUP2 PUSH2 0x4AF2 JUMP JUMPDEST PUSH1 0x0 DUP1 PUSH1 0x0 DUP1 PUSH1 0x0 DUP1 PUSH1 0x0 PUSH1 0xE0 DUP9 DUP11 SUB SLT ISZERO PUSH2 0x4449 JUMPI DUP1 DUP2 REVERT JUMPDEST DUP8 CALLDATALOAD SWAP7 POP PUSH1 0x20 DUP9 ADD CALLDATALOAD PUSH2 0x445B DUP2 PUSH2 0x4ADD JUMP JUMPDEST SWAP6 POP PUSH1 0x40 DUP9 ADD CALLDATALOAD PUSH2 0x446B DUP2 PUSH2 0x4ADD JUMP JUMPDEST SWAP5 POP PUSH1 0x60 DUP9 ADD CALLDATALOAD PUSH1 0x1 PUSH1 0x1 PUSH1 0x40 SHL SUB DUP1 DUP3 GT ISZERO PUSH2 0x4486 JUMPI DUP3 DUP4 REVERT JUMPDEST PUSH2 0x4492 DUP12 DUP4 DUP13 ADD PUSH2 0x40BF JUMP JUMPDEST SWAP6 POP PUSH1 0x80 DUP11 ADD CALLDATALOAD SWAP5 POP PUSH1 0xA0 DUP11 ADD CALLDATALOAD SWAP4 POP PUSH1 0xC0 DUP11 ADD CALLDATALOAD SWAP2 POP DUP1 DUP3 GT ISZERO PUSH2 0x44B5 JUMPI DUP3 DUP4 REVERT JUMPDEST POP PUSH2 0x44C2 DUP11 DUP3 DUP12 ADD PUSH2 0x4185 JUMP JUMPDEST SWAP2 POP POP SWAP3 SWAP6 SWAP9 SWAP2 SWAP5 SWAP8 POP SWAP3 SWAP6 POP JUMP JUMPDEST PUSH1 0x0 PUSH1 0x20 DUP3 DUP5 SUB SLT ISZERO PUSH2 0x44E2 JUMPI DUP1 DUP2 REVERT JUMPDEST DUP2 CALLDATALOAD PUSH1 0x1 PUSH1 0x1 PUSH1 0xE0 SHL SUB NOT DUP2 AND DUP2 EQ PUSH2 0x645 JUMPI DUP2 DUP3 REVERT JUMPDEST PUSH1 0x0 PUSH1 0x20 DUP3 DUP5 SUB SLT ISZERO PUSH2 0x450A JUMPI DUP1 DUP2 REVERT JUMPDEST DUP2 MLOAD PUSH2 0x645 DUP2 PUSH2 0x4ADD JUMP JUMPDEST PUSH1 0x0 DUP1 PUSH1 0x40 DUP4 DUP6 SUB SLT ISZERO PUSH2 0x4527 JUMPI DUP2 DUP3 REVERT JUMPDEST DUP3 CALLDATALOAD PUSH2 0x4532 DUP2 PUSH2 0x4ADD JUMP JUMPDEST SWAP2 POP PUSH1 0x20 DUP4 ADD CALLDATALOAD PUSH1 0x1 PUSH1 0x1 PUSH1 0x40 SHL SUB DUP2 GT ISZERO PUSH2 0x454C JUMPI DUP2 DUP3 REVERT JUMPDEST PUSH2 0x4558 DUP6 DUP3 DUP7 ADD PUSH2 0x4185 JUMP JUMPDEST SWAP2 POP POP SWAP3 POP SWAP3 SWAP1 POP JUMP JUMPDEST PUSH1 0x0 PUSH1 0x20 DUP3 DUP5 SUB SLT ISZERO PUSH2 0x4573 JUMPI DUP1 DUP2 REVERT JUMPDEST DUP2 MLOAD PUSH2 0x645 DUP2 PUSH2 0x4B00 JUMP JUMPDEST PUSH1 0x0 DUP1 PUSH1 0x0 PUSH1 0x60 DUP5 DUP7 SUB SLT ISZERO PUSH2 0x4592 JUMPI DUP1 DUP2 REVERT JUMPDEST DUP4 MLOAD PUSH2 0x459D DUP2 PUSH2 0x4B00 JUMP JUMPDEST PUSH1 0x20 DUP6 ADD MLOAD SWAP1 SWAP4 POP PUSH1 0x1 PUSH1 0x1 PUSH1 0x40 SHL SUB DUP2 GT ISZERO PUSH2 0x45B8 JUMPI DUP2 DUP3 REVERT JUMPDEST PUSH2 0x43E6 DUP7 DUP3 DUP8 ADD PUSH2 0x412B JUMP JUMPDEST PUSH1 0x0 DUP1 PUSH1 0x40 DUP4 DUP6 SUB SLT ISZERO PUSH2 0x45D6 JUMPI DUP2 DUP3 REVERT JUMPDEST DUP3 MLOAD PUSH2 0x45E1 DUP2 PUSH2 0x4B00 JUMP JUMPDEST PUSH1 0x20 SWAP4 SWAP1 SWAP4 ADD MLOAD SWAP3 SWAP5 SWAP3 SWAP4 POP POP POP JUMP JUMPDEST PUSH1 0x0 DUP1 PUSH1 0x0 PUSH1 0x60 DUP5 DUP7 SUB SLT ISZERO PUSH2 0x4605 JUMPI DUP1 DUP2 REVERT JUMPDEST DUP4 MLOAD PUSH2 0x4610 DUP2 PUSH2 0x4B00 JUMP JUMPDEST PUSH1 0x20 DUP6 ADD MLOAD PUSH1 0x40 SWAP1 SWAP6 ADD MLOAD SWAP1 SWAP7 SWAP5 SWAP6 POP SWAP4 SWAP3 POP POP POP JUMP JUMPDEST PUSH1 0x0 DUP1 PUSH1 0x40 DUP4 DUP6 SUB SLT ISZERO PUSH2 0x4639 JUMPI DUP2 DUP3 REVERT JUMPDEST DUP3 MLOAD PUSH2 0x4644 DUP2 PUSH2 0x4B00 JUMP JUMPDEST PUSH1 0x20 DUP5 ADD MLOAD SWAP1 SWAP3 POP PUSH1 0x1 PUSH1 0x1 PUSH1 0x40 SHL SUB DUP2 GT ISZERO PUSH2 0x465F JUMPI DUP2 DUP3 REVERT JUMPDEST PUSH2 0x4558 DUP6 DUP3 DUP7 ADD PUSH2 0x412B JUMP JUMPDEST PUSH1 0x0 DUP1 PUSH1 0x0 PUSH1 0x60 DUP5 DUP7 SUB SLT ISZERO PUSH2 0x467F JUMPI DUP1 DUP2 REVERT JUMPDEST DUP4 CALLDATALOAD PUSH1 0x1 PUSH1 0x1 PUSH1 0x40 SHL SUB DUP1 DUP3 GT ISZERO PUSH2 0x4695 JUMPI DUP3 DUP4 REVERT JUMPDEST DUP2 DUP7 ADD SWAP2 POP PUSH2 0x120 DUP1 DUP4 DUP10 SUB SLT ISZERO PUSH2 0x46AB JUMPI DUP4 DUP5 REVERT JUMPDEST PUSH2 0x46B4 DUP2 PUSH2 0x4A9D JUMP JUMPDEST SWAP1 POP PUSH2 0x46BF DUP4 PUSH2 0x41E9 JUMP JUMPDEST DUP2 MSTORE PUSH2 0x46CD PUSH1 0x20 DUP5 ADD PUSH2 0x40B4 JUMP JUMPDEST PUSH1 0x20 DUP3 ADD MSTORE PUSH2 0x46DE PUSH1 0x40 DUP5 ADD PUSH2 0x40B4 JUMP JUMPDEST PUSH1 0x40 DUP3 ADD MSTORE PUSH1 0x60 DUP4 ADD CALLDATALOAD PUSH1 0x60 DUP3 ADD MSTORE PUSH1 0x80 DUP4 ADD CALLDATALOAD PUSH1 0x80 DUP3 ADD MSTORE PUSH1 0xA0 DUP4 ADD CALLDATALOAD PUSH1 0xA0 DUP3 ADD MSTORE PUSH2 0x470D PUSH1 0xC0 DUP5 ADD PUSH2 0x40B4 JUMP JUMPDEST PUSH1 0xC0 DUP3 ADD MSTORE PUSH2 0x471E PUSH1 0xE0 DUP5 ADD PUSH2 0x40B4 JUMP JUMPDEST PUSH1 0xE0 DUP3 ADD MSTORE PUSH2 0x100 DUP1 DUP5 ADD CALLDATALOAD DUP4 DUP2 GT ISZERO PUSH2 0x4736 JUMPI DUP6 DUP7 REVERT JUMPDEST PUSH2 0x4742 DUP11 DUP3 DUP8 ADD PUSH2 0x4185 JUMP JUMPDEST SWAP2 DUP4 ADD SWAP2 SWAP1 SWAP2 MSTORE POP SWAP8 PUSH1 0x20 DUP8 ADD CALLDATALOAD SWAP8 POP PUSH1 0x40 SWAP1 SWAP7 ADD CALLDATALOAD SWAP6 SWAP5 POP POP POP POP POP JUMP JUMPDEST PUSH1 0x0 PUSH1 0x20 DUP3 DUP5 SUB SLT ISZERO PUSH2 0x4772 JUMPI DUP1 DUP2 REVERT JUMPDEST POP CALLDATALOAD SWAP2 SWAP1 POP JUMP JUMPDEST PUSH1 0x0 DUP1 PUSH1 0x0 PUSH1 0x60 DUP5 DUP7 SUB SLT ISZERO PUSH2 0x478D JUMPI DUP1 DUP2 REVERT JUMPDEST DUP4 CALLDATALOAD SWAP3 POP PUSH1 0x20 DUP5 ADD CALLDATALOAD SWAP2 POP PUSH1 0x40 DUP5 ADD CALLDATALOAD PUSH1 0x1 PUSH1 0x1 PUSH1 0x40 SHL SUB DUP2 GT ISZERO PUSH2 0x47B0 JUMPI DUP2 DUP3 REVERT JUMPDEST PUSH2 0x47BC DUP7 DUP3 DUP8 ADD PUSH2 0x40BF JUMP JUMPDEST SWAP2 POP POP SWAP3 POP SWAP3 POP SWAP3 JUMP JUMPDEST PUSH1 0x0 DUP1 PUSH1 0x0 DUP1 PUSH1 0x80 DUP6 DUP8 SUB SLT ISZERO PUSH2 0x47DB JUMPI DUP2 DUP3 REVERT JUMPDEST DUP5 MLOAD SWAP4 POP PUSH1 0x20 DUP6 ADD MLOAD SWAP3 POP PUSH1 0x40 DUP6 ADD MLOAD SWAP2 POP PUSH1 0x60 DUP6 ADD MLOAD PUSH2 0x47FB DUP2 PUSH2 0x4ADD JUMP JUMPDEST SWAP4 SWAP7 SWAP3 SWAP6 POP SWAP1 SWAP4 POP POP JUMP JUMPDEST PUSH1 0x0 DUP2 MLOAD DUP1 DUP5 MSTORE PUSH1 0x20 DUP1 DUP6 ADD SWAP5 POP DUP1 DUP5 ADD DUP4 JUMPDEST DUP4 DUP2 LT ISZERO PUSH2 0x4835 JUMPI DUP2 MLOAD DUP8 MSTORE SWAP6 DUP3 ADD SWAP6 SWAP1 DUP3 ADD SWAP1 PUSH1 0x1 ADD PUSH2 0x4819 JUMP JUMPDEST POP SWAP5 SWAP6 SWAP5 POP POP POP POP POP JUMP JUMPDEST PUSH1 0x0 DUP2 MLOAD DUP1 DUP5 MSTORE DUP2 JUMPDEST DUP2 DUP2 LT ISZERO PUSH2 0x4865 JUMPI PUSH1 0x20 DUP2 DUP6 ADD DUP2 ADD MLOAD DUP7 DUP4 ADD DUP3 ADD MSTORE ADD PUSH2 0x4849 JUMP JUMPDEST DUP2 DUP2 GT ISZERO PUSH2 0x4876 JUMPI DUP3 PUSH1 0x20 DUP4 DUP8 ADD ADD MSTORE JUMPDEST POP PUSH1 0x1F ADD PUSH1 0x1F NOT AND SWAP3 SWAP1 SWAP3 ADD PUSH1 0x20 ADD SWAP3 SWAP2 POP POP JUMP JUMPDEST SWAP2 DUP3 MSTORE PUSH1 0x1 PUSH1 0x1 PUSH1 0xE0 SHL SUB NOT AND PUSH1 0x20 DUP3 ADD MSTORE PUSH1 0x24 ADD SWAP1 JUMP JUMPDEST PUSH1 0x0 DUP3 DUP5 DUP4 CALLDATACOPY SWAP2 ADD SWAP1 DUP2 MSTORE SWAP2 SWAP1 POP JUMP JUMPDEST PUSH2 0x1901 PUSH1 0xF0 SHL DUP2 MSTORE PUSH1 0x2 DUP2 ADD SWAP3 SWAP1 SWAP3 MSTORE PUSH1 0x22 DUP3 ADD MSTORE PUSH1 0x42 ADD SWAP1 JUMP JUMPDEST PUSH1 0x1 PUSH1 0x1 PUSH1 0xA0 SHL SUB SWAP2 SWAP1 SWAP2 AND DUP2 MSTORE PUSH1 0x20 ADD SWAP1 JUMP JUMPDEST PUSH1 0x0 PUSH1 0x20 DUP3 MSTORE PUSH2 0x645 PUSH1 0x20 DUP4 ADD DUP5 PUSH2 0x4806 JUMP JUMPDEST PUSH1 0x0 PUSH1 0x40 DUP3 MSTORE PUSH2 0x4908 PUSH1 0x40 DUP4 ADD DUP6 PUSH2 0x4806 JUMP JUMPDEST DUP3 DUP2 SUB PUSH1 0x20 DUP5 ADD MSTORE PUSH2 0x2AB0 DUP2 DUP6 PUSH2 0x4806 JUMP JUMPDEST SWAP1 ISZERO ISZERO DUP2 MSTORE PUSH1 0x20 ADD SWAP1 JUMP JUMPDEST SWAP3 ISZERO ISZERO DUP4 MSTORE PUSH1 0x20 DUP4 ADD SWAP2 SWAP1 SWAP2 MSTORE PUSH1 0x40 DUP3 ADD MSTORE PUSH1 0x60 ADD SWAP1 JUMP JUMPDEST SWAP1 DUP2 MSTORE PUSH1 0x20 ADD SWAP1 JUMP JUMPDEST SWAP3 DUP4 MSTORE PUSH1 0x1 PUSH1 0x1 PUSH1 0xA0 SHL SUB SWAP2 DUP3 AND PUSH1 0x20 DUP5 ADD MSTORE AND PUSH1 0x40 DUP3 ADD MSTORE PUSH1 0x60 ADD SWAP1 JUMP JUMPDEST SWAP6 DUP7 MSTORE PUSH1 0x1 PUSH1 0x1 PUSH1 0xA0 SHL SUB SWAP5 DUP6 AND PUSH1 0x20 DUP8 ADD MSTORE SWAP3 SWAP1 SWAP4 AND PUSH1 0x40 DUP6 ADD MSTORE PUSH1 0x60 DUP5 ADD MSTORE PUSH1 0x80 DUP4 ADD SWAP2 SWAP1 SWAP2 MSTORE PUSH1 0xA0 DUP3 ADD MSTORE PUSH1 0xC0 ADD SWAP1 JUMP JUMPDEST SWAP5 DUP6 MSTORE PUSH1 0x20 DUP6 ADD SWAP4 SWAP1 SWAP4 MSTORE PUSH1 0x40 DUP5 ADD SWAP2 SWAP1 SWAP2 MSTORE PUSH1 0x60 DUP4 ADD MSTORE PUSH1 0x1 PUSH1 0x1 PUSH1 0xA0 SHL SUB AND PUSH1 0x80 DUP3 ADD MSTORE PUSH1 0xA0 ADD SWAP1 JUMP JUMPDEST PUSH1 0x0 DUP4 DUP3 MSTORE PUSH1 0x40 PUSH1 0x20 DUP4 ADD MSTORE PUSH2 0x1F55 PUSH1 0x40 DUP4 ADD DUP5 PUSH2 0x4840 JUMP JUMPDEST SWAP2 DUP3 MSTORE PUSH1 0x1 PUSH1 0x1 PUSH1 0xA0 SHL SUB AND PUSH1 0x20 DUP3 ADD MSTORE PUSH1 0x40 ADD SWAP1 JUMP JUMPDEST SWAP4 DUP5 MSTORE PUSH1 0xFF SWAP3 SWAP1 SWAP3 AND PUSH1 0x20 DUP5 ADD MSTORE PUSH1 0x40 DUP4 ADD MSTORE PUSH1 0x60 DUP3 ADD MSTORE PUSH1 0x80 ADD SWAP1 JUMP JUMPDEST PUSH1 0x0 PUSH1 0x20 DUP3 MSTORE PUSH2 0x645 PUSH1 0x20 DUP4 ADD DUP5 PUSH2 0x4840 JUMP JUMPDEST PUSH1 0x0 DUP4 DUP3 MSTORE PUSH1 0x40 PUSH1 0x20 DUP4 ADD MSTORE PUSH2 0x1F55 PUSH1 0x40 DUP4 ADD DUP5 PUSH2 0x4806 JUMP JUMPDEST PUSH1 0x0 DUP5 DUP3 MSTORE DUP4 PUSH1 0x20 DUP4 ADD MSTORE PUSH1 0x60 PUSH1 0x40 DUP4 ADD MSTORE PUSH2 0x2AB0 PUSH1 0x60 DUP4 ADD DUP5 PUSH2 0x4806 JUMP JUMPDEST PUSH1 0x0 DUP6 DUP3 MSTORE DUP5 PUSH1 0x20 DUP4 ADD MSTORE PUSH1 0x80 PUSH1 0x40 DUP4 ADD MSTORE PUSH2 0x4A7D PUSH1 0x80 DUP4 ADD DUP6 PUSH2 0x4806 JUMP JUMPDEST DUP3 DUP2 SUB PUSH1 0x60 DUP5 ADD MSTORE PUSH2 0x29B2 DUP2 DUP6 PUSH2 0x4806 JUMP JUMPDEST PUSH1 0xFF SWAP2 SWAP1 SWAP2 AND DUP2 MSTORE PUSH1 0x20 ADD SWAP1 JUMP JUMPDEST PUSH1 0x40 MLOAD DUP2 DUP2 ADD PUSH1 0x1 PUSH1 0x1 PUSH1 0x40 SHL SUB DUP2 GT DUP3 DUP3 LT OR ISZERO PUSH2 0x4AB8 JUMPI INVALID JUMPDEST PUSH1 0x40 MSTORE SWAP2 SWAP1 POP JUMP JUMPDEST PUSH1 0x0 PUSH1 0x1 PUSH1 0x1 PUSH1 0x40 SHL SUB DUP3 GT ISZERO PUSH2 0x4AD3 JUMPI INVALID JUMPDEST POP PUSH1 0x20 SWAP1 DUP2 MUL ADD SWAP1 JUMP JUMPDEST PUSH1 0x1 PUSH1 0x1 PUSH1 0xA0 SHL SUB DUP2 AND DUP2 EQ PUSH2 0x595 JUMPI PUSH1 0x0 DUP1 REVERT JUMPDEST DUP1 ISZERO ISZERO DUP2 EQ PUSH2 0x595 JUMPI PUSH1 0x0 DUP1 REVERT JUMPDEST PUSH1 0x3 DUP2 LT PUSH2 0x595 JUMPI PUSH1 0x0 DUP1 REVERT INVALID LOG2 PUSH5 0x6970667358 0x22 SLT KECCAK256 DUP5 PUSH16 0xD0366BE677ADB8645CCC168A9C1C70B9 SHR 0xCD DUP10 0x1F 0xB6 PUSH13 0xC34CB470E8BF91EF64736F6C63 NUMBER STOP SMOD MOD STOP CALLER "
		},
		"gasEstimates": {
			"creation": {
				"codeDepositCost": "479600",
				"executionCost": "infinite",
				"totalCost": "infinite"
			},
			"external": {
				"create(string,string,address[],uint256[],uint256,address,bool)": "infinite",
				"getCreationCode()": "infinite",
				"getCreationCodeContracts()": "infinite",
				"getPauseConfiguration()": "infinite",
				"getVault()": "infinite",
				"isPoolFromFactory(address)": "1354"
			}
		},
		"methodIdentifiers": {
			"create(string,string,address[],uint256[],uint256,address,bool)": "23679719",
			"getCreationCode()": "00c194db",
			"getCreationCodeContracts()": "174481fa",
			"getPauseConfiguration()": "2da47c40",
			"getVault()": "8d928af8",
			"isPoolFromFactory(address)": "6634b753"
		}
	},
	"abi": [
		{
			"inputs": [
				{
					"internalType": "contract IVault",
					"name": "vault",
					"type": "address"
				}
			],
			"stateMutability": "nonpayable",
			"type": "constructor"
		},
		{
			"anonymous": false,
			"inputs": [
				{
					"indexed": true,
					"internalType": "address",
					"name": "pool",
					"type": "address"
				}
			],
			"name": "PoolCreated",
			"type": "event"
		},
		{
			"inputs": [
				{
					"internalType": "string",
					"name": "name",
					"type": "string"
				},
				{
					"internalType": "string",
					"name": "symbol",
					"type": "string"
				},
				{
					"internalType": "contract IERC20[]",
					"name": "tokens",
					"type": "address[]"
				},
				{
					"internalType": "uint256[]",
					"name": "weights",
					"type": "uint256[]"
				},
				{
					"internalType": "uint256",
					"name": "swapFeePercentage",
					"type": "uint256"
				},
				{
					"internalType": "address",
					"name": "owner",
					"type": "address"
				},
				{
					"internalType": "bool",
					"name": "swapEnabledOnStart",
					"type": "bool"
				}
			],
			"name": "create",
			"outputs": [
				{
					"internalType": "address",
					"name": "",
					"type": "address"
				}
			],
			"stateMutability": "nonpayable",
			"type": "function"
		},
		{
			"inputs": [],
			"name": "getCreationCode",
			"outputs": [
				{
					"internalType": "bytes",
					"name": "",
					"type": "bytes"
				}
			],
			"stateMutability": "view",
			"type": "function"
		},
		{
			"inputs": [],
			"name": "getCreationCodeContracts",
			"outputs": [
				{
					"internalType": "address",
					"name": "contractA",
					"type": "address"
				},
				{
					"internalType": "address",
					"name": "contractB",
					"type": "address"
				}
			],
			"stateMutability": "view",
			"type": "function"
		},
		{
			"inputs": [],
			"name": "getPauseConfiguration",
			"outputs": [
				{
					"internalType": "uint256",
					"name": "pauseWindowDuration",
					"type": "uint256"
				},
				{
					"internalType": "uint256",
					"name": "bufferPeriodDuration",
					"type": "uint256"
				}
			],
			"stateMutability": "view",
			"type": "function"
		},
		{
			"inputs": [],
			"name": "getVault",
			"outputs": [
				{
					"internalType": "contract IVault",
					"name": "",
					"type": "address"
				}
			],
			"stateMutability": "view",
			"type": "function"
		},
		{
			"inputs": [
				{
					"internalType": "address",
					"name": "pool",
					"type": "address"
				}
			],
			"name": "isPoolFromFactory",
			"outputs": [
				{
					"internalType": "bool",
					"name": "",
					"type": "bool"
				}
			],
			"stateMutability": "view",
			"type": "function"
		}
	]
}