{
	"data": {
		"bytecode": {
			"linkReferences": {},
			"object": "60c06040523480156200001157600080fd5b50604051620029b4380380620029b483398101604081905262000034916200014b565b6001600160601b0319606085811b821660805284901b1660a0526200005b6000836200009b565b6200007660008051602062002994833981519152836200009b565b6200009160008051602062002994833981519152826200009b565b50505050620001cc565b620000a78282620000ab565b5050565b6000828152602081815260408083206001600160a01b038516845290915290205460ff16620000a7576000828152602081815260408083206001600160a01b03851684529091529020805460ff19166001179055620001073390565b6001600160a01b0316816001600160a01b0316837f2f8788117e7eff1d82e926ec794901d17c78024a50270940304540a733656f0d60405160405180910390a45050565b600080600080608085870312156200016257600080fd5b84516200016f81620001b3565b60208601519094506200018281620001b3565b60408601519093506200019581620001b3565b6060860151909250620001a881620001b3565b939692955090935050565b6001600160a01b0381168114620001c957600080fd5b50565b60805160601c60a05160601c612702620002926000396000818161034401528181610b8f01528181610c7901528181610edf01528181610f7301528181611391015281816115540152818161172201526118e9015260008181610507015281816106110152818161083701528181610a4f01528181610b6601528181610c5001528181610d8401528181610df601528181610eb001528181610f44015281816111200152818161136201528181611525015281816116f301526118ba01526127026000f3fe60806040526004361061019c5760003560e01c80635ffc71b8116100ec578063ab6989571161008a578063d33219b411610064578063d33219b4146104f5578063d547741f14610529578063eeaba75d14610549578063fde9b2261461055e57600080fd5b8063ab69895714610485578063c8cc3cd8146104a5578063cae5984b146104c557600080fd5b80638a1d28f1116100c65780638a1d28f11461041057806391d14854146104305780639c2826ef14610450578063a217fddf1461047057600080fd5b80635ffc71b81461039e5780636f3e6f34146103ce57806374d510f7146103ee57600080fd5b806336568abe1161015957806341065e0e1161013357806341065e0e14610305578063441e7d5814610234578063575a86b214610332578063591fcdfe1461037e57600080fd5b806336568abe146102a55780633a66f901146102c55780633b8505a3146102e557600080fd5b806301ffc9a7146101a15780630825f38f146101d6578063248a9ca3146101f657806325e06309146102345780632f2ff15d1461025657806333c9ef9f14610278575b600080fd5b3480156101ad57600080fd5b506101c16101bc366004611f1f565b6105a8565b60405190151581526020015b60405180910390f35b6101e96101e4366004611d2a565b6105df565b6040516101cd919061241c565b34801561020257600080fd5b50610226610211366004611ebd565b60009081526020819052604090206001015490565b6040519081526020016101cd565b34801561024057600080fd5b506102266000805160206126ad83398151915281565b34801561026257600080fd5b50610276610271366004611eef565b6106af565b005b34801561028457600080fd5b50610298610293366004611ebd565b6106da565b6040516101cd9190612376565b3480156102b157600080fd5b506102766102c0366004611eef565b610782565b3480156102d157600080fd5b506102266102e0366004611d2a565b610805565b3480156102f157600080fd5b50610276610300366004611ddd565b6108c6565b34801561031157600080fd5b50610325610320366004611ebd565b610992565b6040516101cd9190612310565b34801561033e57600080fd5b506103667f000000000000000000000000000000000000000000000000000000000000000081565b6040516001600160a01b0390911681526020016101cd565b34801561038a57600080fd5b50610276610399366004611d2a565b610a1f565b3480156103aa57600080fd5b506103be6103b9366004611fec565b610ac6565b6040516101cd9493929190612470565b3480156103da57600080fd5b506102766103e9366004611cec565b610b1d565b3480156103fa57600080fd5b50610403610d2a565b6040516101cd91906123d8565b34801561041c57600080fd5b5061027661042b366004611cec565b610d3b565b34801561043c57600080fd5b506101c161044b366004611eef565b610e52565b34801561045c57600080fd5b5061027661046b36600461200e565b610e7b565b34801561047c57600080fd5b50610226600081565b34801561049157600080fd5b506102766104a0366004611fc0565b610fd6565b3480156104b157600080fd5b506102766104c0366004611e58565b61101b565b3480156104d157600080fd5b506101c16104e0366004611ebd565b60036020526000908152604090205460ff1681565b34801561050157600080fd5b506103667f000000000000000000000000000000000000000000000000000000000000000081565b34801561053557600080fd5b50610276610544366004611eef565b6110df565b34801561055557600080fd5b50610276611105565b34801561056a57600080fd5b5061057e610579366004611fec565b61118d565b604080516001600160a01b03948516815260208101939093529216918101919091526060016101cd565b60006001600160e01b03198216637965db0b60e01b14806105d957506301ffc9a760e01b6001600160e01b03198316145b92915050565b60606000805160206126ad8339815191526105fa81336111da565b604051630825f38f60e01b81526001600160a01b037f00000000000000000000000000000000000000000000000000000000000000001690630825f38f9061064e908a908a908a908a908a906004016122c4565b600060405180830381600087803b15801561066857600080fd5b505af115801561067c573d6000803e3d6000fd5b505050506040513d6000823e601f3d908101601f191682016040526106a49190810190611f49565b979650505050505050565b6000828152602081905260409020600101546106cb81336111da565b6106d5838361123e565b505050565b606060026000838152602001908152602001600020805480602002602001604051908101604052809291908181526020016000905b82821015610777576000848152602090819020604080516080810182526003860290920180548352600180820154848601526002909101546001600160a01b03811692840192909252600160a01b90910460ff1615156060830152908352909201910161070f565b505050509050919050565b6001600160a01b03811633146107f75760405162461bcd60e51b815260206004820152602f60248201527f416363657373436f6e74726f6c3a2063616e206f6e6c792072656e6f756e636560448201526e103937b632b9903337b91039b2b63360891b60648201526084015b60405180910390fd5b61080182826112c2565b5050565b60006000805160206126ad83398151915261082081336111da565b604051633a66f90160e01b81526001600160a01b037f00000000000000000000000000000000000000000000000000000000000000001690633a66f90190610874908a908a908a908a908a906004016122c4565b602060405180830381600087803b15801561088e57600080fd5b505af11580156108a2573d6000803e3d6000fd5b505050506040513d601f19601f820116820180604052508101906106a49190611ed6565b600081815260036020526040902054819060ff16156108f75760405162461bcd60e51b81526004016107ee9061242f565b610902600482611327565b506000805160206126ad83398151915261091c81336111da565b60005b8481101561098a576000848152600160205260409020868683818110610947576109476125b0565b83546001810185556000948552602090942060609091029290920192600302909101905061097582826125fc565b5050808061098290612569565b91505061091f565b505050505050565b606060016000838152602001908152602001600020805480602002602001604051908101604052809291908181526020016000905b82821015610777576000848152602090819020604080516060810182526003860290920180546001600160a01b03908116845260018083015485870152600290920154169183019190915290835290920191016109c7565b6000805160206126ad833981519152610a3881336111da565b604051632c8fe6ff60e11b81526001600160a01b037f0000000000000000000000000000000000000000000000000000000000000000169063591fcdfe90610a8c90899089908990899089906004016122c4565b600060405180830381600087803b158015610aa657600080fd5b505af1158015610aba573d6000803e3d6000fd5b50505050505050505050565b60026020528160005260406000208181548110610ae257600080fd5b60009182526020909120600390910201805460018201546002909201549093509091506001600160a01b03811690600160a01b900460ff1684565b6000805160206126ad833981519152610b3681336111da565b6000826001811115610b4a57610b4a61259a565b1415610c3a57604080516001600160a01b0386811660208301527f00000000000000000000000000000000000000000000000000000000000000001691633a66f901917f00000000000000000000000000000000000000000000000000000000000000009160009101604051602081830303815290604052876040518563ffffffff1660e01b8152600401610be29493929190612147565b602060405180830381600087803b158015610bfc57600080fd5b505af1158015610c10573d6000803e3d6000fd5b505050506040513d601f19601f82011682018060405250810190610c349190611ed6565b50610d24565b604080516001600160a01b0386811660208301527f00000000000000000000000000000000000000000000000000000000000000001691630825f38f917f00000000000000000000000000000000000000000000000000000000000000009160009101604051602081830303815290604052876040518563ffffffff1660e01b8152600401610ccc9493929190612147565b600060405180830381600087803b158015610ce657600080fd5b505af1158015610cfa573d6000803e3d6000fd5b505050506040513d6000823e601f3d908101601f19168201604052610d229190810190611f49565b505b50505050565b6060610d36600461133a565b905090565b6000805160206126ad833981519152610d5481336111da565b6000826001811115610d6857610d6861259a565b1415610de057604080516001600160a01b0386811660208301527f000000000000000000000000000000000000000000000000000000000000000090811692633a66f9019260009101604051602081830303815290604052876040518563ffffffff1660e01b8152600401610be29493929190612196565b604080516001600160a01b0386811660208301527f000000000000000000000000000000000000000000000000000000000000000090811692630825f38f9260009101604051602081830303815290604052876040518563ffffffff1660e01b8152600401610ccc9493929190612196565b6000918252602082815260408084206001600160a01b0393909316845291905290205460ff1690565b6000805160206126ad833981519152610e9481336111da565b6000826001811115610ea857610ea861259a565b1415610f42577f00000000000000000000000000000000000000000000000000000000000000006001600160a01b0316633a66f9017f0000000000000000000000000000000000000000000000000000000000000000600087604051602001610f1391815260200190565b604051602081830303815290604052876040518563ffffffff1660e01b8152600401610be294939291906120db565b7f00000000000000000000000000000000000000000000000000000000000000006001600160a01b0316630825f38f7f0000000000000000000000000000000000000000000000000000000000000000600087604051602001610fa791815260200190565b604051602081830303815290604052876040518563ffffffff1660e01b8152600401610ccc94939291906120db565b6000805160206126ad833981519152610fef81336111da565b60008260018111156110035761100361259a565b1415611012576106d583611347565b6106d5836116d8565b600081815260036020526040902054819060ff161561104c5760405162461bcd60e51b81526004016107ee9061242f565b611057600482611327565b506000805160206126ad83398151915261107181336111da565b60005b8481101561098a57600084815260026020526040902086868381811061109c5761109c6125b0565b8354600181018555600094855260209094206080909102929092019260030290910190506110ca8282612637565b505080806110d790612569565b915050611074565b6000828152602081905260409020600101546110fb81336111da565b6106d583836112c2565b6000805160206126ad83398151915261111e81336111da565b7f00000000000000000000000000000000000000000000000000000000000000006001600160a01b0316630e18b6816040518163ffffffff1660e01b8152600401600060405180830381600087803b15801561117957600080fd5b505af1158015610d22573d6000803e3d6000fd5b600160205281600052604060002081815481106111a957600080fd5b60009182526020909120600390910201805460018201546002909201546001600160a01b0391821694509192501683565b6111e48282610e52565b610801576111fc816001600160a01b03166014611a53565b611207836020611a53565b604051602001611218929190612066565b60408051601f198184030181529082905262461bcd60e51b82526107ee9160040161241c565b6112488282610e52565b610801576000828152602081815260408083206001600160a01b03851684529091529020805460ff1916600117905561127e3390565b6001600160a01b0316816001600160a01b0316837f2f8788117e7eff1d82e926ec794901d17c78024a50270940304540a733656f0d60405160405180910390a45050565b6112cc8282610e52565b15610801576000828152602081815260408083206001600160a01b0385168085529252808320805460ff1916905551339285917ff6391f5c32d9c69d2a47ea670b442974b53935d1edc7fd64eb21e047a839171b9190a45050565b60006113338383611bef565b9392505050565b6060600061133383611c3e565b6000818152600260205260408120905b8154811015611509577f00000000000000000000000000000000000000000000000000000000000000006001600160a01b0316633a66f9017f000000000000000000000000000000000000000000000000000000000000000060008585815481106113c4576113c46125b0565b9060005260206000209060030201600001548686815481106113e8576113e86125b0565b90600052602060002090600302016001015487878154811061140c5761140c6125b0565b906000526020600020906003020160020160009054906101000a90046001600160a01b0316888881548110611443576114436125b0565b906000526020600020906003020160020160149054906101000a900460ff166040516020016114759493929190612470565b604051602081830303815290604052876040518563ffffffff1660e01b81526004016114a494939291906121f1565b602060405180830381600087803b1580156114be57600080fd5b505af11580156114d2573d6000803e3d6000fd5b505050506040513d601f19601f820116820180604052508101906114f69190611ed6565b508061150181612569565b915050611357565b506000828152600160205260408120905b81548110156116ba577f00000000000000000000000000000000000000000000000000000000000000006001600160a01b0316633a66f9017f00000000000000000000000000000000000000000000000000000000000000006000858581548110611587576115876125b0565b9060005260206000209060030201600101548686815481106115ab576115ab6125b0565b600091825260209091206003909102015487546001600160a01b03909116908890889081106115dc576115dc6125b0565b6000918252602091829020600260039092020101546040516116269493926001600160a01b0390921691019283526001600160a01b03918216602084015216604082015260600190565b604051602081830303815290604052886040518563ffffffff1660e01b81526004016116559493929190612269565b602060405180830381600087803b15801561166f57600080fd5b505af1158015611683573d6000803e3d6000fd5b505050506040513d601f19601f820116820180604052508101906116a79190611ed6565b50806116b281612569565b91505061151a565b5050506000908152600360205260409020805460ff19166001179055565b6000818152600260205260408120905b815481101561189e577f00000000000000000000000000000000000000000000000000000000000000006001600160a01b0316630825f38f7f00000000000000000000000000000000000000000000000000000000000000006000858581548110611755576117556125b0565b906000526020600020906003020160000154868681548110611779576117796125b0565b90600052602060002090600302016001015487878154811061179d5761179d6125b0565b906000526020600020906003020160020160009054906101000a90046001600160a01b03168888815481106117d4576117d46125b0565b906000526020600020906003020160020160149054906101000a900460ff166040516020016118069493929190612470565b604051602081830303815290604052876040518563ffffffff1660e01b815260040161183594939291906121f1565b600060405180830381600087803b15801561184f57600080fd5b505af1158015611863573d6000803e3d6000fd5b505050506040513d6000823e601f3d908101601f1916820160405261188b9190810190611f49565b508061189681612569565b9150506116e8565b506000828152600160205260408120905b8154811015610d24577f00000000000000000000000000000000000000000000000000000000000000006001600160a01b0316630825f38f7f0000000000000000000000000000000000000000000000000000000000000000600085858154811061191c5761191c6125b0565b906000526020600020906003020160010154868681548110611940576119406125b0565b600091825260209091206003909102015487546001600160a01b0390911690889088908110611971576119716125b0565b6000918252602091829020600260039092020101546040516119bb9493926001600160a01b0390921691019283526001600160a01b03918216602084015216604082015260600190565b604051602081830303815290604052886040518563ffffffff1660e01b81526004016119ea9493929190612269565b600060405180830381600087803b158015611a0457600080fd5b505af1158015611a18573d6000803e3d6000fd5b505050506040513d6000823e601f3d908101601f19168201604052611a409190810190611f49565b5080611a4b81612569565b9150506118af565b60606000611a62836002612507565b611a6d9060026124ef565b67ffffffffffffffff811115611a8557611a856125c6565b6040519080825280601f01601f191660200182016040528015611aaf576020820181803683370190505b509050600360fc1b81600081518110611aca57611aca6125b0565b60200101906001600160f81b031916908160001a905350600f60fb1b81600181518110611af957611af96125b0565b60200101906001600160f81b031916908160001a9053506000611b1d846002612507565b611b289060016124ef565b90505b6001811115611ba0576f181899199a1a9b1b9c1cb0b131b232b360811b85600f1660108110611b5c57611b5c6125b0565b1a60f81b828281518110611b7257611b726125b0565b60200101906001600160f81b031916908160001a90535060049490941c93611b9981612552565b9050611b2b565b5083156113335760405162461bcd60e51b815260206004820181905260248201527f537472696e67733a20686578206c656e67746820696e73756666696369656e7460448201526064016107ee565b6000818152600183016020526040812054611c36575081546001818101845560008481526020808220909301849055845484825282860190935260409020919091556105d9565b5060006105d9565b606081600001805480602002602001604051908101604052809291908181526020018280548015611c8e57602002820191906000526020600020905b815481526020019060010190808311611c7a575b50505050509050919050565b6000611cad611ca8846124c7565b612496565b9050828152838383011115611cc157600080fd5b828260208301376000602084830101529392505050565b803560028110611ce757600080fd5b919050565b600080600060608486031215611d0157600080fd5b8335611d0c81612694565b925060208401359150611d2160408501611cd8565b90509250925092565b600080600080600060a08688031215611d4257600080fd5b8535611d4d81612694565b945060208601359350604086013567ffffffffffffffff80821115611d7157600080fd5b818801915088601f830112611d8557600080fd5b611d9489833560208501611c9a565b94506060880135915080821115611daa57600080fd5b508601601f81018813611dbc57600080fd5b611dcb88823560208401611c9a565b95989497509295608001359392505050565b600080600060408486031215611df257600080fd5b833567ffffffffffffffff80821115611e0a57600080fd5b818601915086601f830112611e1e57600080fd5b813581811115611e2d57600080fd5b876020606083028501011115611e4257600080fd5b6020928301989097509590910135949350505050565b600080600060408486031215611e6d57600080fd5b833567ffffffffffffffff80821115611e8557600080fd5b818601915086601f830112611e9957600080fd5b813581811115611ea857600080fd5b8760208260071b8501011115611e4257600080fd5b600060208284031215611ecf57600080fd5b5035919050565b600060208284031215611ee857600080fd5b5051919050565b60008060408385031215611f0257600080fd5b823591506020830135611f1481612694565b809150509250929050565b600060208284031215611f3157600080fd5b81356001600160e01b03198116811461133357600080fd5b600060208284031215611f5b57600080fd5b815167ffffffffffffffff811115611f7257600080fd5b8201601f81018413611f8357600080fd5b8051611f91611ca8826124c7565b818152856020838501011115611fa657600080fd5b611fb7826020830160208601612526565b95945050505050565b60008060408385031215611fd357600080fd5b82359150611fe360208401611cd8565b90509250929050565b60008060408385031215611fff57600080fd5b50508035926020909101359150565b60008060006060848603121561202357600080fd5b8335925060208401359150611d2160408501611cd8565b60008151808452612052816020860160208601612526565b601f01601f19169290920160200192915050565b7f416363657373436f6e74726f6c3a206163636f756e742000000000000000000081526000835161209e816017850160208801612526565b7001034b99036b4b9b9b4b733903937b6329607d1b60179184019182015283516120cf816028840160208801612526565b01602801949350505050565b60018060a01b038516815283602082015260a06040820152601b60a08201527f757064617465456d697373696f6e526174652875696e7432353629000000000060c082015260e06060820152600061213660e083018561203a565b905082608083015295945050505050565b60018060a01b038516815283602082015260a06040820152601160a082015270747265617375727928616464726573732960781b60c082015260e06060820152600061213660e083018561203a565b60018060a01b038516815283602082015260a06040820152601860a08201527f73657450656e64696e6741646d696e286164647265737329000000000000000060c082015260e06060820152600061213660e083018561203a565b60018060a01b038516815283602082015260a06040820152602160a08201527f7365742875696e743235362c75696e743235362c616464726573732c626f6f6c60c0820152602960f81b60e082015260006101008060608401526122578184018661203a565b91505082608083015295945050505050565b60018060a01b038516815283602082015260a06040820152601c60a08201527f6164642875696e743235362c616464726573732c61646472657373290000000060c082015260e06060820152600061213660e083018561203a565b60018060a01b038616815284602082015260a0604082015260006122eb60a083018661203a565b82810360608401526122fd818661203a565b9150508260808301529695505050505050565b602080825282518282018190526000919060409081850190868401855b8281101561236957815180516001600160a01b03908116865287820151888701529086015116858501526060909301929085019060010161232d565b5091979650505050505050565b602080825282518282018190526000919060409081850190868401855b82811015612369578151805185528681015187860152858101516001600160a01b03168686015260609081015115159085015260809093019290850190600101612393565b6020808252825182820181905260009190848201906040850190845b81811015612410578351835292840192918401916001016123f4565b50909695505050505050565b602081526000611333602083018461203a565b60208082526021908201527f45544120616c726561647920757365642c2063686f7365206f746865722065746040820152606160f81b606082015260800190565b93845260208401929092526001600160a01b031660408301521515606082015260800190565b604051601f8201601f1916810167ffffffffffffffff811182821017156124bf576124bf6125c6565b604052919050565b600067ffffffffffffffff8211156124e1576124e16125c6565b50601f01601f191660200190565b6000821982111561250257612502612584565b500190565b600081600019048311821515161561252157612521612584565b500290565b60005b83811015612541578181015183820152602001612529565b83811115610d245750506000910152565b60008161256157612561612584565b506000190190565b600060001982141561257d5761257d612584565b5060010190565b634e487b7160e01b600052601160045260246000fd5b634e487b7160e01b600052602160045260246000fd5b634e487b7160e01b600052603260045260246000fd5b634e487b7160e01b600052604160045260246000fd5b80546001600160a01b0319166001600160a01b0392909216919091179055565b813561260781612694565b61261181836125dc565b5060208201356001820155604082013561262a81612694565b6106d581600284016125dc565b813581556020820135600182015560028101604083013561265781612694565b61266181836125dc565b50606083013580151580821461267657600080fd5b825460ff60a01b191660a09190911b60ff60a01b1617909155505050565b6001600160a01b03811681146126a957600080fd5b5056fe9ca25149b3fbef66d98c546a0b372e96b9626f14ed669dd7ba430d3a8f225fd2a26469706673582212209d27af68736f088768e67ac77250a20842e4342e50fea2755d5628ff722315cc64736f6c634300080700339ca25149b3fbef66d98c546a0b372e96b9626f14ed669dd7ba430d3a8f225fd2",
			"opcodes": "PUSH1 0xC0 PUSH1 0x40 MSTORE CALLVALUE DUP1 ISZERO PUSH3 0x11 JUMPI PUSH1 0x0 DUP1 REVERT JUMPDEST POP PUSH1 0x40 MLOAD PUSH3 0x29B4 CODESIZE SUB DUP1 PUSH3 0x29B4 DUP4 CODECOPY DUP2 ADD PUSH1 0x40 DUP2 SWAP1 MSTORE PUSH3 0x34 SWAP2 PUSH3 0x14B JUMP JUMPDEST PUSH1 0x1 PUSH1 0x1 PUSH1 0x60 SHL SUB NOT PUSH1 0x60 DUP6 DUP2 SHL DUP3 AND PUSH1 0x80 MSTORE DUP5 SWAP1 SHL AND PUSH1 0xA0 MSTORE PUSH3 0x5B PUSH1 0x0 DUP4 PUSH3 0x9B JUMP JUMPDEST PUSH3 0x76 PUSH1 0x0 DUP1 MLOAD PUSH1 0x20 PUSH3 0x2994 DUP4 CODECOPY DUP2 MLOAD SWAP2 MSTORE DUP4 PUSH3 0x9B JUMP JUMPDEST PUSH3 0x91 PUSH1 0x0 DUP1 MLOAD PUSH1 0x20 PUSH3 0x2994 DUP4 CODECOPY DUP2 MLOAD SWAP2 MSTORE DUP3 PUSH3 0x9B JUMP JUMPDEST POP POP POP POP PUSH3 0x1CC JUMP JUMPDEST PUSH3 0xA7 DUP3 DUP3 PUSH3 0xAB JUMP JUMPDEST POP POP JUMP JUMPDEST PUSH1 0x0 DUP3 DUP2 MSTORE PUSH1 0x20 DUP2 DUP2 MSTORE PUSH1 0x40 DUP1 DUP4 KECCAK256 PUSH1 0x1 PUSH1 0x1 PUSH1 0xA0 SHL SUB DUP6 AND DUP5 MSTORE SWAP1 SWAP2 MSTORE SWAP1 KECCAK256 SLOAD PUSH1 0xFF AND PUSH3 0xA7 JUMPI PUSH1 0x0 DUP3 DUP2 MSTORE PUSH1 0x20 DUP2 DUP2 MSTORE PUSH1 0x40 DUP1 DUP4 KECCAK256 PUSH1 0x1 PUSH1 0x1 PUSH1 0xA0 SHL SUB DUP6 AND DUP5 MSTORE SWAP1 SWAP2 MSTORE SWAP1 KECCAK256 DUP1 SLOAD PUSH1 0xFF NOT AND PUSH1 0x1 OR SWAP1 SSTORE PUSH3 0x107 CALLER SWAP1 JUMP JUMPDEST PUSH1 0x1 PUSH1 0x1 PUSH1 0xA0 SHL SUB AND DUP2 PUSH1 0x1 PUSH1 0x1 PUSH1 0xA0 SHL SUB AND DUP4 PUSH32 0x2F8788117E7EFF1D82E926EC794901D17C78024A50270940304540A733656F0D PUSH1 0x40 MLOAD PUSH1 0x40 MLOAD DUP1 SWAP2 SUB SWAP1 LOG4 POP POP JUMP JUMPDEST PUSH1 0x0 DUP1 PUSH1 0x0 DUP1 PUSH1 0x80 DUP6 DUP8 SUB SLT ISZERO PUSH3 0x162 JUMPI PUSH1 0x0 DUP1 REVERT JUMPDEST DUP5 MLOAD PUSH3 0x16F DUP2 PUSH3 0x1B3 JUMP JUMPDEST PUSH1 0x20 DUP7 ADD MLOAD SWAP1 SWAP5 POP PUSH3 0x182 DUP2 PUSH3 0x1B3 JUMP JUMPDEST PUSH1 0x40 DUP7 ADD MLOAD SWAP1 SWAP4 POP PUSH3 0x195 DUP2 PUSH3 0x1B3 JUMP JUMPDEST PUSH1 0x60 DUP7 ADD MLOAD SWAP1 SWAP3 POP PUSH3 0x1A8 DUP2 PUSH3 0x1B3 JUMP JUMPDEST SWAP4 SWAP7 SWAP3 SWAP6 POP SWAP1 SWAP4 POP POP JUMP JUMPDEST PUSH1 0x1 PUSH1 0x1 PUSH1 0xA0 SHL SUB DUP2 AND DUP2 EQ PUSH3 0x1C9 JUMPI PUSH1 0x0 DUP1 REVERT JUMPDEST POP JUMP JUMPDEST PUSH1 0x80 MLOAD PUSH1 0x60 SHR PUSH1 0xA0 MLOAD PUSH1 0x60 SHR PUSH2 0x2702 PUSH3 0x292 PUSH1 0x0 CODECOPY PUSH1 0x0 DUP2 DUP2 PUSH2 0x344 ADD MSTORE DUP2 DUP2 PUSH2 0xB8F ADD MSTORE DUP2 DUP2 PUSH2 0xC79 ADD MSTORE DUP2 DUP2 PUSH2 0xEDF ADD MSTORE DUP2 DUP2 PUSH2 0xF73 ADD MSTORE DUP2 DUP2 PUSH2 0x1391 ADD MSTORE DUP2 DUP2 PUSH2 0x1554 ADD MSTORE DUP2 DUP2 PUSH2 0x1722 ADD MSTORE PUSH2 0x18E9 ADD MSTORE PUSH1 0x0 DUP2 DUP2 PUSH2 0x507 ADD MSTORE DUP2 DUP2 PUSH2 0x611 ADD MSTORE DUP2 DUP2 PUSH2 0x837 ADD MSTORE DUP2 DUP2 PUSH2 0xA4F ADD MSTORE DUP2 DUP2 PUSH2 0xB66 ADD MSTORE DUP2 DUP2 PUSH2 0xC50 ADD MSTORE DUP2 DUP2 PUSH2 0xD84 ADD MSTORE DUP2 DUP2 PUSH2 0xDF6 ADD MSTORE DUP2 DUP2 PUSH2 0xEB0 ADD MSTORE DUP2 DUP2 PUSH2 0xF44 ADD MSTORE DUP2 DUP2 PUSH2 0x1120 ADD MSTORE DUP2 DUP2 PUSH2 0x1362 ADD MSTORE DUP2 DUP2 PUSH2 0x1525 ADD MSTORE DUP2 DUP2 PUSH2 0x16F3 ADD MSTORE PUSH2 0x18BA ADD MSTORE PUSH2 0x2702 PUSH1 0x0 RETURN INVALID PUSH1 0x80 PUSH1 0x40 MSTORE PUSH1 0x4 CALLDATASIZE LT PUSH2 0x19C JUMPI PUSH1 0x0 CALLDATALOAD PUSH1 0xE0 SHR DUP1 PUSH4 0x5FFC71B8 GT PUSH2 0xEC JUMPI DUP1 PUSH4 0xAB698957 GT PUSH2 0x8A JUMPI DUP1 PUSH4 0xD33219B4 GT PUSH2 0x64 JUMPI DUP1 PUSH4 0xD33219B4 EQ PUSH2 0x4F5 JUMPI DUP1 PUSH4 0xD547741F EQ PUSH2 0x529 JUMPI DUP1 PUSH4 0xEEABA75D EQ PUSH2 0x549 JUMPI DUP1 PUSH4 0xFDE9B226 EQ PUSH2 0x55E JUMPI PUSH1 0x0 DUP1 REVERT JUMPDEST DUP1 PUSH4 0xAB698957 EQ PUSH2 0x485 JUMPI DUP1 PUSH4 0xC8CC3CD8 EQ PUSH2 0x4A5 JUMPI DUP1 PUSH4 0xCAE5984B EQ PUSH2 0x4C5 JUMPI PUSH1 0x0 DUP1 REVERT JUMPDEST DUP1 PUSH4 0x8A1D28F1 GT PUSH2 0xC6 JUMPI DUP1 PUSH4 0x8A1D28F1 EQ PUSH2 0x410 JUMPI DUP1 PUSH4 0x91D14854 EQ PUSH2 0x430 JUMPI DUP1 PUSH4 0x9C2826EF EQ PUSH2 0x450 JUMPI DUP1 PUSH4 0xA217FDDF EQ PUSH2 0x470 JUMPI PUSH1 0x0 DUP1 REVERT JUMPDEST DUP1 PUSH4 0x5FFC71B8 EQ PUSH2 0x39E JUMPI DUP1 PUSH4 0x6F3E6F34 EQ PUSH2 0x3CE JUMPI DUP1 PUSH4 0x74D510F7 EQ PUSH2 0x3EE JUMPI PUSH1 0x0 DUP1 REVERT JUMPDEST DUP1 PUSH4 0x36568ABE GT PUSH2 0x159 JUMPI DUP1 PUSH4 0x41065E0E GT PUSH2 0x133 JUMPI DUP1 PUSH4 0x41065E0E EQ PUSH2 0x305 JUMPI DUP1 PUSH4 0x441E7D58 EQ PUSH2 0x234 JUMPI DUP1 PUSH4 0x575A86B2 EQ PUSH2 0x332 JUMPI DUP1 PUSH4 0x591FCDFE EQ PUSH2 0x37E JUMPI PUSH1 0x0 DUP1 REVERT JUMPDEST DUP1 PUSH4 0x36568ABE EQ PUSH2 0x2A5 JUMPI DUP1 PUSH4 0x3A66F901 EQ PUSH2 0x2C5 JUMPI DUP1 PUSH4 0x3B8505A3 EQ PUSH2 0x2E5 JUMPI PUSH1 0x0 DUP1 REVERT JUMPDEST DUP1 PUSH4 0x1FFC9A7 EQ PUSH2 0x1A1 JUMPI DUP1 PUSH4 0x825F38F EQ PUSH2 0x1D6 JUMPI DUP1 PUSH4 0x248A9CA3 EQ PUSH2 0x1F6 JUMPI DUP1 PUSH4 0x25E06309 EQ PUSH2 0x234 JUMPI DUP1 PUSH4 0x2F2FF15D EQ PUSH2 0x256 JUMPI DUP1 PUSH4 0x33C9EF9F EQ PUSH2 0x278 JUMPI JUMPDEST PUSH1 0x0 DUP1 REVERT JUMPDEST CALLVALUE DUP1 ISZERO PUSH2 0x1AD JUMPI PUSH1 0x0 DUP1 REVERT JUMPDEST POP PUSH2 0x1C1 PUSH2 0x1BC CALLDATASIZE PUSH1 0x4 PUSH2 0x1F1F JUMP JUMPDEST PUSH2 0x5A8 JUMP JUMPDEST PUSH1 0x40 MLOAD SWAP1 ISZERO ISZERO DUP2 MSTORE PUSH1 0x20 ADD JUMPDEST PUSH1 0x40 MLOAD DUP1 SWAP2 SUB SWAP1 RETURN JUMPDEST PUSH2 0x1E9 PUSH2 0x1E4 CALLDATASIZE PUSH1 0x4 PUSH2 0x1D2A JUMP JUMPDEST PUSH2 0x5DF JUMP JUMPDEST PUSH1 0x40 MLOAD PUSH2 0x1CD SWAP2 SWAP1 PUSH2 0x241C JUMP JUMPDEST CALLVALUE DUP1 ISZERO PUSH2 0x202 JUMPI PUSH1 0x0 DUP1 REVERT JUMPDEST POP PUSH2 0x226 PUSH2 0x211 CALLDATASIZE PUSH1 0x4 PUSH2 0x1EBD JUMP JUMPDEST PUSH1 0x0 SWAP1 DUP2 MSTORE PUSH1 0x20 DUP2 SWAP1 MSTORE PUSH1 0x40 SWAP1 KECCAK256 PUSH1 0x1 ADD SLOAD SWAP1 JUMP JUMPDEST PUSH1 0x40 MLOAD SWAP1 DUP2 MSTORE PUSH1 0x20 ADD PUSH2 0x1CD JUMP JUMPDEST CALLVALUE DUP1 ISZERO PUSH2 0x240 JUMPI PUSH1 0x0 DUP1 REVERT JUMPDEST POP PUSH2 0x226 PUSH1 0x0 DUP1 MLOAD PUSH1 0x20 PUSH2 0x26AD DUP4 CODECOPY DUP2 MLOAD SWAP2 MSTORE DUP2 JUMP JUMPDEST CALLVALUE DUP1 ISZERO PUSH2 0x262 JUMPI PUSH1 0x0 DUP1 REVERT JUMPDEST POP PUSH2 0x276 PUSH2 0x271 CALLDATASIZE PUSH1 0x4 PUSH2 0x1EEF JUMP JUMPDEST PUSH2 0x6AF JUMP JUMPDEST STOP JUMPDEST CALLVALUE DUP1 ISZERO PUSH2 0x284 JUMPI PUSH1 0x0 DUP1 REVERT JUMPDEST POP PUSH2 0x298 PUSH2 0x293 CALLDATASIZE PUSH1 0x4 PUSH2 0x1EBD JUMP JUMPDEST PUSH2 0x6DA JUMP JUMPDEST PUSH1 0x40 MLOAD PUSH2 0x1CD SWAP2 SWAP1 PUSH2 0x2376 JUMP JUMPDEST CALLVALUE DUP1 ISZERO PUSH2 0x2B1 JUMPI PUSH1 0x0 DUP1 REVERT JUMPDEST POP PUSH2 0x276 PUSH2 0x2C0 CALLDATASIZE PUSH1 0x4 PUSH2 0x1EEF JUMP JUMPDEST PUSH2 0x782 JUMP JUMPDEST CALLVALUE DUP1 ISZERO PUSH2 0x2D1 JUMPI PUSH1 0x0 DUP1 REVERT JUMPDEST POP PUSH2 0x226 PUSH2 0x2E0 CALLDATASIZE PUSH1 0x4 PUSH2 0x1D2A JUMP JUMPDEST PUSH2 0x805 JUMP JUMPDEST CALLVALUE DUP1 ISZERO PUSH2 0x2F1 JUMPI PUSH1 0x0 DUP1 REVERT JUMPDEST POP PUSH2 0x276 PUSH2 0x300 CALLDATASIZE PUSH1 0x4 PUSH2 0x1DDD JUMP JUMPDEST PUSH2 0x8C6 JUMP JUMPDEST CALLVALUE DUP1 ISZERO PUSH2 0x311 JUMPI PUSH1 0x0 DUP1 REVERT JUMPDEST POP PUSH2 0x325 PUSH2 0x320 CALLDATASIZE PUSH1 0x4 PUSH2 0x1EBD JUMP JUMPDEST PUSH2 0x992 JUMP JUMPDEST PUSH1 0x40 MLOAD PUSH2 0x1CD SWAP2 SWAP1 PUSH2 0x2310 JUMP JUMPDEST CALLVALUE DUP1 ISZERO PUSH2 0x33E JUMPI PUSH1 0x0 DUP1 REVERT JUMPDEST POP PUSH2 0x366 PUSH32 0x0 DUP2 JUMP JUMPDEST PUSH1 0x40 MLOAD PUSH1 0x1 PUSH1 0x1 PUSH1 0xA0 SHL SUB SWAP1 SWAP2 AND DUP2 MSTORE PUSH1 0x20 ADD PUSH2 0x1CD JUMP JUMPDEST CALLVALUE DUP1 ISZERO PUSH2 0x38A JUMPI PUSH1 0x0 DUP1 REVERT JUMPDEST POP PUSH2 0x276 PUSH2 0x399 CALLDATASIZE PUSH1 0x4 PUSH2 0x1D2A JUMP JUMPDEST PUSH2 0xA1F JUMP JUMPDEST CALLVALUE DUP1 ISZERO PUSH2 0x3AA JUMPI PUSH1 0x0 DUP1 REVERT JUMPDEST POP PUSH2 0x3BE PUSH2 0x3B9 CALLDATASIZE PUSH1 0x4 PUSH2 0x1FEC JUMP JUMPDEST PUSH2 0xAC6 JUMP JUMPDEST PUSH1 0x40 MLOAD PUSH2 0x1CD SWAP5 SWAP4 SWAP3 SWAP2 SWAP1 PUSH2 0x2470 JUMP JUMPDEST CALLVALUE DUP1 ISZERO PUSH2 0x3DA JUMPI PUSH1 0x0 DUP1 REVERT JUMPDEST POP PUSH2 0x276 PUSH2 0x3E9 CALLDATASIZE PUSH1 0x4 PUSH2 0x1CEC JUMP JUMPDEST PUSH2 0xB1D JUMP JUMPDEST CALLVALUE DUP1 ISZERO PUSH2 0x3FA JUMPI PUSH1 0x0 DUP1 REVERT JUMPDEST POP PUSH2 0x403 PUSH2 0xD2A JUMP JUMPDEST PUSH1 0x40 MLOAD PUSH2 0x1CD SWAP2 SWAP1 PUSH2 0x23D8 JUMP JUMPDEST CALLVALUE DUP1 ISZERO PUSH2 0x41C JUMPI PUSH1 0x0 DUP1 REVERT JUMPDEST POP PUSH2 0x276 PUSH2 0x42B CALLDATASIZE PUSH1 0x4 PUSH2 0x1CEC JUMP JUMPDEST PUSH2 0xD3B JUMP JUMPDEST CALLVALUE DUP1 ISZERO PUSH2 0x43C JUMPI PUSH1 0x0 DUP1 REVERT JUMPDEST POP PUSH2 0x1C1 PUSH2 0x44B CALLDATASIZE PUSH1 0x4 PUSH2 0x1EEF JUMP JUMPDEST PUSH2 0xE52 JUMP JUMPDEST CALLVALUE DUP1 ISZERO PUSH2 0x45C JUMPI PUSH1 0x0 DUP1 REVERT JUMPDEST POP PUSH2 0x276 PUSH2 0x46B CALLDATASIZE PUSH1 0x4 PUSH2 0x200E JUMP JUMPDEST PUSH2 0xE7B JUMP JUMPDEST CALLVALUE DUP1 ISZERO PUSH2 0x47C JUMPI PUSH1 0x0 DUP1 REVERT JUMPDEST POP PUSH2 0x226 PUSH1 0x0 DUP2 JUMP JUMPDEST CALLVALUE DUP1 ISZERO PUSH2 0x491 JUMPI PUSH1 0x0 DUP1 REVERT JUMPDEST POP PUSH2 0x276 PUSH2 0x4A0 CALLDATASIZE PUSH1 0x4 PUSH2 0x1FC0 JUMP JUMPDEST PUSH2 0xFD6 JUMP JUMPDEST CALLVALUE DUP1 ISZERO PUSH2 0x4B1 JUMPI PUSH1 0x0 DUP1 REVERT JUMPDEST POP PUSH2 0x276 PUSH2 0x4C0 CALLDATASIZE PUSH1 0x4 PUSH2 0x1E58 JUMP JUMPDEST PUSH2 0x101B JUMP JUMPDEST CALLVALUE DUP1 ISZERO PUSH2 0x4D1 JUMPI PUSH1 0x0 DUP1 REVERT JUMPDEST POP PUSH2 0x1C1 PUSH2 0x4E0 CALLDATASIZE PUSH1 0x4 PUSH2 0x1EBD JUMP JUMPDEST PUSH1 0x3 PUSH1 0x20 MSTORE PUSH1 0x0 SWAP1 DUP2 MSTORE PUSH1 0x40 SWAP1 KECCAK256 SLOAD PUSH1 0xFF AND DUP2 JUMP JUMPDEST CALLVALUE DUP1 ISZERO PUSH2 0x501 JUMPI PUSH1 0x0 DUP1 REVERT JUMPDEST POP PUSH2 0x366 PUSH32 0x0 DUP2 JUMP JUMPDEST CALLVALUE DUP1 ISZERO PUSH2 0x535 JUMPI PUSH1 0x0 DUP1 REVERT JUMPDEST POP PUSH2 0x276 PUSH2 0x544 CALLDATASIZE PUSH1 0x4 PUSH2 0x1EEF JUMP JUMPDEST PUSH2 0x10DF JUMP JUMPDEST CALLVALUE DUP1 ISZERO PUSH2 0x555 JUMPI PUSH1 0x0 DUP1 REVERT JUMPDEST POP PUSH2 0x276 PUSH2 0x1105 JUMP JUMPDEST CALLVALUE DUP1 ISZERO PUSH2 0x56A JUMPI PUSH1 0x0 DUP1 REVERT JUMPDEST POP PUSH2 0x57E PUSH2 0x579 CALLDATASIZE PUSH1 0x4 PUSH2 0x1FEC JUMP JUMPDEST PUSH2 0x118D JUMP JUMPDEST PUSH1 0x40 DUP1 MLOAD PUSH1 0x1 PUSH1 0x1 PUSH1 0xA0 SHL SUB SWAP5 DUP6 AND DUP2 MSTORE PUSH1 0x20 DUP2 ADD SWAP4 SWAP1 SWAP4 MSTORE SWAP3 AND SWAP2 DUP2 ADD SWAP2 SWAP1 SWAP2 MSTORE PUSH1 0x60 ADD PUSH2 0x1CD JUMP JUMPDEST PUSH1 0x0 PUSH1 0x1 PUSH1 0x1 PUSH1 0xE0 SHL SUB NOT DUP3 AND PUSH4 0x7965DB0B PUSH1 0xE0 SHL EQ DUP1 PUSH2 0x5D9 JUMPI POP PUSH4 0x1FFC9A7 PUSH1 0xE0 SHL PUSH1 0x1 PUSH1 0x1 PUSH1 0xE0 SHL SUB NOT DUP4 AND EQ JUMPDEST SWAP3 SWAP2 POP POP JUMP JUMPDEST PUSH1 0x60 PUSH1 0x0 DUP1 MLOAD PUSH1 0x20 PUSH2 0x26AD DUP4 CODECOPY DUP2 MLOAD SWAP2 MSTORE PUSH2 0x5FA DUP2 CALLER PUSH2 0x11DA JUMP JUMPDEST PUSH1 0x40 MLOAD PUSH4 0x825F38F PUSH1 0xE0 SHL DUP2 MSTORE PUSH1 0x1 PUSH1 0x1 PUSH1 0xA0 SHL SUB PUSH32 0x0 AND SWAP1 PUSH4 0x825F38F SWAP1 PUSH2 0x64E SWAP1 DUP11 SWAP1 DUP11 SWAP1 DUP11 SWAP1 DUP11 SWAP1 DUP11 SWAP1 PUSH1 0x4 ADD PUSH2 0x22C4 JUMP JUMPDEST PUSH1 0x0 PUSH1 0x40 MLOAD DUP1 DUP4 SUB DUP2 PUSH1 0x0 DUP8 DUP1 EXTCODESIZE ISZERO DUP1 ISZERO PUSH2 0x668 JUMPI PUSH1 0x0 DUP1 REVERT JUMPDEST POP GAS CALL ISZERO DUP1 ISZERO PUSH2 0x67C JUMPI RETURNDATASIZE PUSH1 0x0 DUP1 RETURNDATACOPY RETURNDATASIZE PUSH1 0x0 REVERT JUMPDEST POP POP POP POP PUSH1 0x40 MLOAD RETURNDATASIZE PUSH1 0x0 DUP3 RETURNDATACOPY PUSH1 0x1F RETURNDATASIZE SWAP1 DUP2 ADD PUSH1 0x1F NOT AND DUP3 ADD PUSH1 0x40 MSTORE PUSH2 0x6A4 SWAP2 SWAP1 DUP2 ADD SWAP1 PUSH2 0x1F49 JUMP JUMPDEST SWAP8 SWAP7 POP POP POP POP POP POP POP JUMP JUMPDEST PUSH1 0x0 DUP3 DUP2 MSTORE PUSH1 0x20 DUP2 SWAP1 MSTORE PUSH1 0x40 SWAP1 KECCAK256 PUSH1 0x1 ADD SLOAD PUSH2 0x6CB DUP2 CALLER PUSH2 0x11DA JUMP JUMPDEST PUSH2 0x6D5 DUP4 DUP4 PUSH2 0x123E JUMP JUMPDEST POP POP POP JUMP JUMPDEST PUSH1 0x60 PUSH1 0x2 PUSH1 0x0 DUP4 DUP2 MSTORE PUSH1 0x20 ADD SWAP1 DUP2 MSTORE PUSH1 0x20 ADD PUSH1 0x0 KECCAK256 DUP1 SLOAD DUP1 PUSH1 0x20 MUL PUSH1 0x20 ADD PUSH1 0x40 MLOAD SWAP1 DUP2 ADD PUSH1 0x40 MSTORE DUP1 SWAP3 SWAP2 SWAP1 DUP2 DUP2 MSTORE PUSH1 0x20 ADD PUSH1 0x0 SWAP1 JUMPDEST DUP3 DUP3 LT ISZERO PUSH2 0x777 JUMPI PUSH1 0x0 DUP5 DUP2 MSTORE PUSH1 0x20 SWAP1 DUP2 SWAP1 KECCAK256 PUSH1 0x40 DUP1 MLOAD PUSH1 0x80 DUP2 ADD DUP3 MSTORE PUSH1 0x3 DUP7 MUL SWAP1 SWAP3 ADD DUP1 SLOAD DUP4 MSTORE PUSH1 0x1 DUP1 DUP3 ADD SLOAD DUP5 DUP7 ADD MSTORE PUSH1 0x2 SWAP1 SWAP2 ADD SLOAD PUSH1 0x1 PUSH1 0x1 PUSH1 0xA0 SHL SUB DUP2 AND SWAP3 DUP5 ADD SWAP3 SWAP1 SWAP3 MSTORE PUSH1 0x1 PUSH1 0xA0 SHL SWAP1 SWAP2 DIV PUSH1 0xFF AND ISZERO ISZERO PUSH1 0x60 DUP4 ADD MSTORE SWAP1 DUP4 MSTORE SWAP1 SWAP3 ADD SWAP2 ADD PUSH2 0x70F JUMP JUMPDEST POP POP POP POP SWAP1 POP SWAP2 SWAP1 POP JUMP JUMPDEST PUSH1 0x1 PUSH1 0x1 PUSH1 0xA0 SHL SUB DUP2 AND CALLER EQ PUSH2 0x7F7 JUMPI PUSH1 0x40 MLOAD PUSH3 0x461BCD PUSH1 0xE5 SHL DUP2 MSTORE PUSH1 0x20 PUSH1 0x4 DUP3 ADD MSTORE PUSH1 0x2F PUSH1 0x24 DUP3 ADD MSTORE PUSH32 0x416363657373436F6E74726F6C3A2063616E206F6E6C792072656E6F756E6365 PUSH1 0x44 DUP3 ADD MSTORE PUSH15 0x103937B632B9903337B91039B2B633 PUSH1 0x89 SHL PUSH1 0x64 DUP3 ADD MSTORE PUSH1 0x84 ADD JUMPDEST PUSH1 0x40 MLOAD DUP1 SWAP2 SUB SWAP1 REVERT JUMPDEST PUSH2 0x801 DUP3 DUP3 PUSH2 0x12C2 JUMP JUMPDEST POP POP JUMP JUMPDEST PUSH1 0x0 PUSH1 0x0 DUP1 MLOAD PUSH1 0x20 PUSH2 0x26AD DUP4 CODECOPY DUP2 MLOAD SWAP2 MSTORE PUSH2 0x820 DUP2 CALLER PUSH2 0x11DA JUMP JUMPDEST PUSH1 0x40 MLOAD PUSH4 0x3A66F901 PUSH1 0xE0 SHL DUP2 MSTORE PUSH1 0x1 PUSH1 0x1 PUSH1 0xA0 SHL SUB PUSH32 0x0 AND SWAP1 PUSH4 0x3A66F901 SWAP1 PUSH2 0x874 SWAP1 DUP11 SWAP1 DUP11 SWAP1 DUP11 SWAP1 DUP11 SWAP1 DUP11 SWAP1 PUSH1 0x4 ADD PUSH2 0x22C4 JUMP JUMPDEST PUSH1 0x20 PUSH1 0x40 MLOAD DUP1 DUP4 SUB DUP2 PUSH1 0x0 DUP8 DUP1 EXTCODESIZE ISZERO DUP1 ISZERO PUSH2 0x88E JUMPI PUSH1 0x0 DUP1 REVERT JUMPDEST POP GAS CALL ISZERO DUP1 ISZERO PUSH2 0x8A2 JUMPI RETURNDATASIZE PUSH1 0x0 DUP1 RETURNDATACOPY RETURNDATASIZE PUSH1 0x0 REVERT JUMPDEST POP POP POP POP PUSH1 0x40 MLOAD RETURNDATASIZE PUSH1 0x1F NOT PUSH1 0x1F DUP3 ADD AND DUP3 ADD DUP1 PUSH1 0x40 MSTORE POP DUP2 ADD SWAP1 PUSH2 0x6A4 SWAP2 SWAP1 PUSH2 0x1ED6 JUMP JUMPDEST PUSH1 0x0 DUP2 DUP2 MSTORE PUSH1 0x3 PUSH1 0x20 MSTORE PUSH1 0x40 SWAP1 KECCAK256 SLOAD DUP2 SWAP1 PUSH1 0xFF AND ISZERO PUSH2 0x8F7 JUMPI PUSH1 0x40 MLOAD PUSH3 0x461BCD PUSH1 0xE5 SHL DUP2 MSTORE PUSH1 0x4 ADD PUSH2 0x7EE SWAP1 PUSH2 0x242F JUMP JUMPDEST PUSH2 0x902 PUSH1 0x4 DUP3 PUSH2 0x1327 JUMP JUMPDEST POP PUSH1 0x0 DUP1 MLOAD PUSH1 0x20 PUSH2 0x26AD DUP4 CODECOPY DUP2 MLOAD SWAP2 MSTORE PUSH2 0x91C DUP2 CALLER PUSH2 0x11DA JUMP JUMPDEST PUSH1 0x0 JUMPDEST DUP5 DUP2 LT ISZERO PUSH2 0x98A JUMPI PUSH1 0x0 DUP5 DUP2 MSTORE PUSH1 0x1 PUSH1 0x20 MSTORE PUSH1 0x40 SWAP1 KECCAK256 DUP7 DUP7 DUP4 DUP2 DUP2 LT PUSH2 0x947 JUMPI PUSH2 0x947 PUSH2 0x25B0 JUMP JUMPDEST DUP4 SLOAD PUSH1 0x1 DUP2 ADD DUP6 SSTORE PUSH1 0x0 SWAP5 DUP6 MSTORE PUSH1 0x20 SWAP1 SWAP5 KECCAK256 PUSH1 0x60 SWAP1 SWAP2 MUL SWAP3 SWAP1 SWAP3 ADD SWAP3 PUSH1 0x3 MUL SWAP1 SWAP2 ADD SWAP1 POP PUSH2 0x975 DUP3 DUP3 PUSH2 0x25FC JUMP JUMPDEST POP POP DUP1 DUP1 PUSH2 0x982 SWAP1 PUSH2 0x2569 JUMP JUMPDEST SWAP2 POP POP PUSH2 0x91F JUMP JUMPDEST POP POP POP POP POP POP JUMP JUMPDEST PUSH1 0x60 PUSH1 0x1 PUSH1 0x0 DUP4 DUP2 MSTORE PUSH1 0x20 ADD SWAP1 DUP2 MSTORE PUSH1 0x20 ADD PUSH1 0x0 KECCAK256 DUP1 SLOAD DUP1 PUSH1 0x20 MUL PUSH1 0x20 ADD PUSH1 0x40 MLOAD SWAP1 DUP2 ADD PUSH1 0x40 MSTORE DUP1 SWAP3 SWAP2 SWAP1 DUP2 DUP2 MSTORE PUSH1 0x20 ADD PUSH1 0x0 SWAP1 JUMPDEST DUP3 DUP3 LT ISZERO PUSH2 0x777 JUMPI PUSH1 0x0 DUP5 DUP2 MSTORE PUSH1 0x20 SWAP1 DUP2 SWAP1 KECCAK256 PUSH1 0x40 DUP1 MLOAD PUSH1 0x60 DUP2 ADD DUP3 MSTORE PUSH1 0x3 DUP7 MUL SWAP1 SWAP3 ADD DUP1 SLOAD PUSH1 0x1 PUSH1 0x1 PUSH1 0xA0 SHL SUB SWAP1 DUP2 AND DUP5 MSTORE PUSH1 0x1 DUP1 DUP4 ADD SLOAD DUP6 DUP8 ADD MSTORE PUSH1 0x2 SWAP1 SWAP3 ADD SLOAD AND SWAP2 DUP4 ADD SWAP2 SWAP1 SWAP2 MSTORE SWAP1 DUP4 MSTORE SWAP1 SWAP3 ADD SWAP2 ADD PUSH2 0x9C7 JUMP JUMPDEST PUSH1 0x0 DUP1 MLOAD PUSH1 0x20 PUSH2 0x26AD DUP4 CODECOPY DUP2 MLOAD SWAP2 MSTORE PUSH2 0xA38 DUP2 CALLER PUSH2 0x11DA JUMP JUMPDEST PUSH1 0x40 MLOAD PUSH4 0x2C8FE6FF PUSH1 0xE1 SHL DUP2 MSTORE PUSH1 0x1 PUSH1 0x1 PUSH1 0xA0 SHL SUB PUSH32 0x0 AND SWAP1 PUSH4 0x591FCDFE SWAP1 PUSH2 0xA8C SWAP1 DUP10 SWAP1 DUP10 SWAP1 DUP10 SWAP1 DUP10 SWAP1 DUP10 SWAP1 PUSH1 0x4 ADD PUSH2 0x22C4 JUMP JUMPDEST PUSH1 0x0 PUSH1 0x40 MLOAD DUP1 DUP4 SUB DUP2 PUSH1 0x0 DUP8 DUP1 EXTCODESIZE ISZERO DUP1 ISZERO PUSH2 0xAA6 JUMPI PUSH1 0x0 DUP1 REVERT JUMPDEST POP GAS CALL ISZERO DUP1 ISZERO PUSH2 0xABA JUMPI RETURNDATASIZE PUSH1 0x0 DUP1 RETURNDATACOPY RETURNDATASIZE PUSH1 0x0 REVERT JUMPDEST POP POP POP POP POP POP POP POP POP POP JUMP JUMPDEST PUSH1 0x2 PUSH1 0x20 MSTORE DUP2 PUSH1 0x0 MSTORE PUSH1 0x40 PUSH1 0x0 KECCAK256 DUP2 DUP2 SLOAD DUP2 LT PUSH2 0xAE2 JUMPI PUSH1 0x0 DUP1 REVERT JUMPDEST PUSH1 0x0 SWAP2 DUP3 MSTORE PUSH1 0x20 SWAP1 SWAP2 KECCAK256 PUSH1 0x3 SWAP1 SWAP2 MUL ADD DUP1 SLOAD PUSH1 0x1 DUP3 ADD SLOAD PUSH1 0x2 SWAP1 SWAP3 ADD SLOAD SWAP1 SWAP4 POP SWAP1 SWAP2 POP PUSH1 0x1 PUSH1 0x1 PUSH1 0xA0 SHL SUB DUP2 AND SWAP1 PUSH1 0x1 PUSH1 0xA0 SHL SWAP1 DIV PUSH1 0xFF AND DUP5 JUMP JUMPDEST PUSH1 0x0 DUP1 MLOAD PUSH1 0x20 PUSH2 0x26AD DUP4 CODECOPY DUP2 MLOAD SWAP2 MSTORE PUSH2 0xB36 DUP2 CALLER PUSH2 0x11DA JUMP JUMPDEST PUSH1 0x0 DUP3 PUSH1 0x1 DUP2 GT ISZERO PUSH2 0xB4A JUMPI PUSH2 0xB4A PUSH2 0x259A JUMP JUMPDEST EQ ISZERO PUSH2 0xC3A JUMPI PUSH1 0x40 DUP1 MLOAD PUSH1 0x1 PUSH1 0x1 PUSH1 0xA0 SHL SUB DUP7 DUP2 AND PUSH1 0x20 DUP4 ADD MSTORE PUSH32 0x0 AND SWAP2 PUSH4 0x3A66F901 SWAP2 PUSH32 0x0 SWAP2 PUSH1 0x0 SWAP2 ADD PUSH1 0x40 MLOAD PUSH1 0x20 DUP2 DUP4 SUB SUB DUP2 MSTORE SWAP1 PUSH1 0x40 MSTORE DUP8 PUSH1 0x40 MLOAD DUP6 PUSH4 0xFFFFFFFF AND PUSH1 0xE0 SHL DUP2 MSTORE PUSH1 0x4 ADD PUSH2 0xBE2 SWAP5 SWAP4 SWAP3 SWAP2 SWAP1 PUSH2 0x2147 JUMP JUMPDEST PUSH1 0x20 PUSH1 0x40 MLOAD DUP1 DUP4 SUB DUP2 PUSH1 0x0 DUP8 DUP1 EXTCODESIZE ISZERO DUP1 ISZERO PUSH2 0xBFC JUMPI PUSH1 0x0 DUP1 REVERT JUMPDEST POP GAS CALL ISZERO DUP1 ISZERO PUSH2 0xC10 JUMPI RETURNDATASIZE PUSH1 0x0 DUP1 RETURNDATACOPY RETURNDATASIZE PUSH1 0x0 REVERT JUMPDEST POP POP POP POP PUSH1 0x40 MLOAD RETURNDATASIZE PUSH1 0x1F NOT PUSH1 0x1F DUP3 ADD AND DUP3 ADD DUP1 PUSH1 0x40 MSTORE POP DUP2 ADD SWAP1 PUSH2 0xC34 SWAP2 SWAP1 PUSH2 0x1ED6 JUMP JUMPDEST POP PUSH2 0xD24 JUMP JUMPDEST PUSH1 0x40 DUP1 MLOAD PUSH1 0x1 PUSH1 0x1 PUSH1 0xA0 SHL SUB DUP7 DUP2 AND PUSH1 0x20 DUP4 ADD MSTORE PUSH32 0x0 AND SWAP2 PUSH4 0x825F38F SWAP2 PUSH32 0x0 SWAP2 PUSH1 0x0 SWAP2 ADD PUSH1 0x40 MLOAD PUSH1 0x20 DUP2 DUP4 SUB SUB DUP2 MSTORE SWAP1 PUSH1 0x40 MSTORE DUP8 PUSH1 0x40 MLOAD DUP6 PUSH4 0xFFFFFFFF AND PUSH1 0xE0 SHL DUP2 MSTORE PUSH1 0x4 ADD PUSH2 0xCCC SWAP5 SWAP4 SWAP3 SWAP2 SWAP1 PUSH2 0x2147 JUMP JUMPDEST PUSH1 0x0 PUSH1 0x40 MLOAD DUP1 DUP4 SUB DUP2 PUSH1 0x0 DUP8 DUP1 EXTCODESIZE ISZERO DUP1 ISZERO PUSH2 0xCE6 JUMPI PUSH1 0x0 DUP1 REVERT JUMPDEST POP GAS CALL ISZERO DUP1 ISZERO PUSH2 0xCFA JUMPI RETURNDATASIZE PUSH1 0x0 DUP1 RETURNDATACOPY RETURNDATASIZE PUSH1 0x0 REVERT JUMPDEST POP POP POP POP PUSH1 0x40 MLOAD RETURNDATASIZE PUSH1 0x0 DUP3 RETURNDATACOPY PUSH1 0x1F RETURNDATASIZE SWAP1 DUP2 ADD PUSH1 0x1F NOT AND DUP3 ADD PUSH1 0x40 MSTORE PUSH2 0xD22 SWAP2 SWAP1 DUP2 ADD SWAP1 PUSH2 0x1F49 JUMP JUMPDEST POP JUMPDEST POP POP POP POP JUMP JUMPDEST PUSH1 0x60 PUSH2 0xD36 PUSH1 0x4 PUSH2 0x133A JUMP JUMPDEST SWAP1 POP SWAP1 JUMP JUMPDEST PUSH1 0x0 DUP1 MLOAD PUSH1 0x20 PUSH2 0x26AD DUP4 CODECOPY DUP2 MLOAD SWAP2 MSTORE PUSH2 0xD54 DUP2 CALLER PUSH2 0x11DA JUMP JUMPDEST PUSH1 0x0 DUP3 PUSH1 0x1 DUP2 GT ISZERO PUSH2 0xD68 JUMPI PUSH2 0xD68 PUSH2 0x259A JUMP JUMPDEST EQ ISZERO PUSH2 0xDE0 JUMPI PUSH1 0x40 DUP1 MLOAD PUSH1 0x1 PUSH1 0x1 PUSH1 0xA0 SHL SUB DUP7 DUP2 AND PUSH1 0x20 DUP4 ADD MSTORE PUSH32 0x0 SWAP1 DUP2 AND SWAP3 PUSH4 0x3A66F901 SWAP3 PUSH1 0x0 SWAP2 ADD PUSH1 0x40 MLOAD PUSH1 0x20 DUP2 DUP4 SUB SUB DUP2 MSTORE SWAP1 PUSH1 0x40 MSTORE DUP8 PUSH1 0x40 MLOAD DUP6 PUSH4 0xFFFFFFFF AND PUSH1 0xE0 SHL DUP2 MSTORE PUSH1 0x4 ADD PUSH2 0xBE2 SWAP5 SWAP4 SWAP3 SWAP2 SWAP1 PUSH2 0x2196 JUMP JUMPDEST PUSH1 0x40 DUP1 MLOAD PUSH1 0x1 PUSH1 0x1 PUSH1 0xA0 SHL SUB DUP7 DUP2 AND PUSH1 0x20 DUP4 ADD MSTORE PUSH32 0x0 SWAP1 DUP2 AND SWAP3 PUSH4 0x825F38F SWAP3 PUSH1 0x0 SWAP2 ADD PUSH1 0x40 MLOAD PUSH1 0x20 DUP2 DUP4 SUB SUB DUP2 MSTORE SWAP1 PUSH1 0x40 MSTORE DUP8 PUSH1 0x40 MLOAD DUP6 PUSH4 0xFFFFFFFF AND PUSH1 0xE0 SHL DUP2 MSTORE PUSH1 0x4 ADD PUSH2 0xCCC SWAP5 SWAP4 SWAP3 SWAP2 SWAP1 PUSH2 0x2196 JUMP JUMPDEST PUSH1 0x0 SWAP2 DUP3 MSTORE PUSH1 0x20 DUP3 DUP2 MSTORE PUSH1 0x40 DUP1 DUP5 KECCAK256 PUSH1 0x1 PUSH1 0x1 PUSH1 0xA0 SHL SUB SWAP4 SWAP1 SWAP4 AND DUP5 MSTORE SWAP2 SWAP1 MSTORE SWAP1 KECCAK256 SLOAD PUSH1 0xFF AND SWAP1 JUMP JUMPDEST PUSH1 0x0 DUP1 MLOAD PUSH1 0x20 PUSH2 0x26AD DUP4 CODECOPY DUP2 MLOAD SWAP2 MSTORE PUSH2 0xE94 DUP2 CALLER PUSH2 0x11DA JUMP JUMPDEST PUSH1 0x0 DUP3 PUSH1 0x1 DUP2 GT ISZERO PUSH2 0xEA8 JUMPI PUSH2 0xEA8 PUSH2 0x259A JUMP JUMPDEST EQ ISZERO PUSH2 0xF42 JUMPI PUSH32 0x0 PUSH1 0x1 PUSH1 0x1 PUSH1 0xA0 SHL SUB AND PUSH4 0x3A66F901 PUSH32 0x0 PUSH1 0x0 DUP8 PUSH1 0x40 MLOAD PUSH1 0x20 ADD PUSH2 0xF13 SWAP2 DUP2 MSTORE PUSH1 0x20 ADD SWAP1 JUMP JUMPDEST PUSH1 0x40 MLOAD PUSH1 0x20 DUP2 DUP4 SUB SUB DUP2 MSTORE SWAP1 PUSH1 0x40 MSTORE DUP8 PUSH1 0x40 MLOAD DUP6 PUSH4 0xFFFFFFFF AND PUSH1 0xE0 SHL DUP2 MSTORE PUSH1 0x4 ADD PUSH2 0xBE2 SWAP5 SWAP4 SWAP3 SWAP2 SWAP1 PUSH2 0x20DB JUMP JUMPDEST PUSH32 0x0 PUSH1 0x1 PUSH1 0x1 PUSH1 0xA0 SHL SUB AND PUSH4 0x825F38F PUSH32 0x0 PUSH1 0x0 DUP8 PUSH1 0x40 MLOAD PUSH1 0x20 ADD PUSH2 0xFA7 SWAP2 DUP2 MSTORE PUSH1 0x20 ADD SWAP1 JUMP JUMPDEST PUSH1 0x40 MLOAD PUSH1 0x20 DUP2 DUP4 SUB SUB DUP2 MSTORE SWAP1 PUSH1 0x40 MSTORE DUP8 PUSH1 0x40 MLOAD DUP6 PUSH4 0xFFFFFFFF AND PUSH1 0xE0 SHL DUP2 MSTORE PUSH1 0x4 ADD PUSH2 0xCCC SWAP5 SWAP4 SWAP3 SWAP2 SWAP1 PUSH2 0x20DB JUMP JUMPDEST PUSH1 0x0 DUP1 MLOAD PUSH1 0x20 PUSH2 0x26AD DUP4 CODECOPY DUP2 MLOAD SWAP2 MSTORE PUSH2 0xFEF DUP2 CALLER PUSH2 0x11DA JUMP JUMPDEST PUSH1 0x0 DUP3 PUSH1 0x1 DUP2 GT ISZERO PUSH2 0x1003 JUMPI PUSH2 0x1003 PUSH2 0x259A JUMP JUMPDEST EQ ISZERO PUSH2 0x1012 JUMPI PUSH2 0x6D5 DUP4 PUSH2 0x1347 JUMP JUMPDEST PUSH2 0x6D5 DUP4 PUSH2 0x16D8 JUMP JUMPDEST PUSH1 0x0 DUP2 DUP2 MSTORE PUSH1 0x3 PUSH1 0x20 MSTORE PUSH1 0x40 SWAP1 KECCAK256 SLOAD DUP2 SWAP1 PUSH1 0xFF AND ISZERO PUSH2 0x104C JUMPI PUSH1 0x40 MLOAD PUSH3 0x461BCD PUSH1 0xE5 SHL DUP2 MSTORE PUSH1 0x4 ADD PUSH2 0x7EE SWAP1 PUSH2 0x242F JUMP JUMPDEST PUSH2 0x1057 PUSH1 0x4 DUP3 PUSH2 0x1327 JUMP JUMPDEST POP PUSH1 0x0 DUP1 MLOAD PUSH1 0x20 PUSH2 0x26AD DUP4 CODECOPY DUP2 MLOAD SWAP2 MSTORE PUSH2 0x1071 DUP2 CALLER PUSH2 0x11DA JUMP JUMPDEST PUSH1 0x0 JUMPDEST DUP5 DUP2 LT ISZERO PUSH2 0x98A JUMPI PUSH1 0x0 DUP5 DUP2 MSTORE PUSH1 0x2 PUSH1 0x20 MSTORE PUSH1 0x40 SWAP1 KECCAK256 DUP7 DUP7 DUP4 DUP2 DUP2 LT PUSH2 0x109C JUMPI PUSH2 0x109C PUSH2 0x25B0 JUMP JUMPDEST DUP4 SLOAD PUSH1 0x1 DUP2 ADD DUP6 SSTORE PUSH1 0x0 SWAP5 DUP6 MSTORE PUSH1 0x20 SWAP1 SWAP5 KECCAK256 PUSH1 0x80 SWAP1 SWAP2 MUL SWAP3 SWAP1 SWAP3 ADD SWAP3 PUSH1 0x3 MUL SWAP1 SWAP2 ADD SWAP1 POP PUSH2 0x10CA DUP3 DUP3 PUSH2 0x2637 JUMP JUMPDEST POP POP DUP1 DUP1 PUSH2 0x10D7 SWAP1 PUSH2 0x2569 JUMP JUMPDEST SWAP2 POP POP PUSH2 0x1074 JUMP JUMPDEST PUSH1 0x0 DUP3 DUP2 MSTORE PUSH1 0x20 DUP2 SWAP1 MSTORE PUSH1 0x40 SWAP1 KECCAK256 PUSH1 0x1 ADD SLOAD PUSH2 0x10FB DUP2 CALLER PUSH2 0x11DA JUMP JUMPDEST PUSH2 0x6D5 DUP4 DUP4 PUSH2 0x12C2 JUMP JUMPDEST PUSH1 0x0 DUP1 MLOAD PUSH1 0x20 PUSH2 0x26AD DUP4 CODECOPY DUP2 MLOAD SWAP2 MSTORE PUSH2 0x111E DUP2 CALLER PUSH2 0x11DA JUMP JUMPDEST PUSH32 0x0 PUSH1 0x1 PUSH1 0x1 PUSH1 0xA0 SHL SUB AND PUSH4 0xE18B681 PUSH1 0x40 MLOAD DUP2 PUSH4 0xFFFFFFFF AND PUSH1 0xE0 SHL DUP2 MSTORE PUSH1 0x4 ADD PUSH1 0x0 PUSH1 0x40 MLOAD DUP1 DUP4 SUB DUP2 PUSH1 0x0 DUP8 DUP1 EXTCODESIZE ISZERO DUP1 ISZERO PUSH2 0x1179 JUMPI PUSH1 0x0 DUP1 REVERT JUMPDEST POP GAS CALL ISZERO DUP1 ISZERO PUSH2 0xD22 JUMPI RETURNDATASIZE PUSH1 0x0 DUP1 RETURNDATACOPY RETURNDATASIZE PUSH1 0x0 REVERT JUMPDEST PUSH1 0x1 PUSH1 0x20 MSTORE DUP2 PUSH1 0x0 MSTORE PUSH1 0x40 PUSH1 0x0 KECCAK256 DUP2 DUP2 SLOAD DUP2 LT PUSH2 0x11A9 JUMPI PUSH1 0x0 DUP1 REVERT JUMPDEST PUSH1 0x0 SWAP2 DUP3 MSTORE PUSH1 0x20 SWAP1 SWAP2 KECCAK256 PUSH1 0x3 SWAP1 SWAP2 MUL ADD DUP1 SLOAD PUSH1 0x1 DUP3 ADD SLOAD PUSH1 0x2 SWAP1 SWAP3 ADD SLOAD PUSH1 0x1 PUSH1 0x1 PUSH1 0xA0 SHL SUB SWAP2 DUP3 AND SWAP5 POP SWAP2 SWAP3 POP AND DUP4 JUMP JUMPDEST PUSH2 0x11E4 DUP3 DUP3 PUSH2 0xE52 JUMP JUMPDEST PUSH2 0x801 JUMPI PUSH2 0x11FC DUP2 PUSH1 0x1 PUSH1 0x1 PUSH1 0xA0 SHL SUB AND PUSH1 0x14 PUSH2 0x1A53 JUMP JUMPDEST PUSH2 0x1207 DUP4 PUSH1 0x20 PUSH2 0x1A53 JUMP JUMPDEST PUSH1 0x40 MLOAD PUSH1 0x20 ADD PUSH2 0x1218 SWAP3 SWAP2 SWAP1 PUSH2 0x2066 JUMP JUMPDEST PUSH1 0x40 DUP1 MLOAD PUSH1 0x1F NOT DUP2 DUP5 SUB ADD DUP2 MSTORE SWAP1 DUP3 SWAP1 MSTORE PUSH3 0x461BCD PUSH1 0xE5 SHL DUP3 MSTORE PUSH2 0x7EE SWAP2 PUSH1 0x4 ADD PUSH2 0x241C JUMP JUMPDEST PUSH2 0x1248 DUP3 DUP3 PUSH2 0xE52 JUMP JUMPDEST PUSH2 0x801 JUMPI PUSH1 0x0 DUP3 DUP2 MSTORE PUSH1 0x20 DUP2 DUP2 MSTORE PUSH1 0x40 DUP1 DUP4 KECCAK256 PUSH1 0x1 PUSH1 0x1 PUSH1 0xA0 SHL SUB DUP6 AND DUP5 MSTORE SWAP1 SWAP2 MSTORE SWAP1 KECCAK256 DUP1 SLOAD PUSH1 0xFF NOT AND PUSH1 0x1 OR SWAP1 SSTORE PUSH2 0x127E CALLER SWAP1 JUMP JUMPDEST PUSH1 0x1 PUSH1 0x1 PUSH1 0xA0 SHL SUB AND DUP2 PUSH1 0x1 PUSH1 0x1 PUSH1 0xA0 SHL SUB AND DUP4 PUSH32 0x2F8788117E7EFF1D82E926EC794901D17C78024A50270940304540A733656F0D PUSH1 0x40 MLOAD PUSH1 0x40 MLOAD DUP1 SWAP2 SUB SWAP1 LOG4 POP POP JUMP JUMPDEST PUSH2 0x12CC DUP3 DUP3 PUSH2 0xE52 JUMP JUMPDEST ISZERO PUSH2 0x801 JUMPI PUSH1 0x0 DUP3 DUP2 MSTORE PUSH1 0x20 DUP2 DUP2 MSTORE PUSH1 0x40 DUP1 DUP4 KECCAK256 PUSH1 0x1 PUSH1 0x1 PUSH1 0xA0 SHL SUB DUP6 AND DUP1 DUP6 MSTORE SWAP3 MSTORE DUP1 DUP4 KECCAK256 DUP1 SLOAD PUSH1 0xFF NOT AND SWAP1 SSTORE MLOAD CALLER SWAP3 DUP6 SWAP2 PUSH32 0xF6391F5C32D9C69D2A47EA670B442974B53935D1EDC7FD64EB21E047A839171B SWAP2 SWAP1 LOG4 POP POP JUMP JUMPDEST PUSH1 0x0 PUSH2 0x1333 DUP4 DUP4 PUSH2 0x1BEF JUMP JUMPDEST SWAP4 SWAP3 POP POP POP JUMP JUMPDEST PUSH1 0x60 PUSH1 0x0 PUSH2 0x1333 DUP4 PUSH2 0x1C3E JUMP JUMPDEST PUSH1 0x0 DUP2 DUP2 MSTORE PUSH1 0x2 PUSH1 0x20 MSTORE PUSH1 0x40 DUP2 KECCAK256 SWAP1 JUMPDEST DUP2 SLOAD DUP2 LT ISZERO PUSH2 0x1509 JUMPI PUSH32 0x0 PUSH1 0x1 PUSH1 0x1 PUSH1 0xA0 SHL SUB AND PUSH4 0x3A66F901 PUSH32 0x0 PUSH1 0x0 DUP6 DUP6 DUP2 SLOAD DUP2 LT PUSH2 0x13C4 JUMPI PUSH2 0x13C4 PUSH2 0x25B0 JUMP JUMPDEST SWAP1 PUSH1 0x0 MSTORE PUSH1 0x20 PUSH1 0x0 KECCAK256 SWAP1 PUSH1 0x3 MUL ADD PUSH1 0x0 ADD SLOAD DUP7 DUP7 DUP2 SLOAD DUP2 LT PUSH2 0x13E8 JUMPI PUSH2 0x13E8 PUSH2 0x25B0 JUMP JUMPDEST SWAP1 PUSH1 0x0 MSTORE PUSH1 0x20 PUSH1 0x0 KECCAK256 SWAP1 PUSH1 0x3 MUL ADD PUSH1 0x1 ADD SLOAD DUP8 DUP8 DUP2 SLOAD DUP2 LT PUSH2 0x140C JUMPI PUSH2 0x140C PUSH2 0x25B0 JUMP JUMPDEST SWAP1 PUSH1 0x0 MSTORE PUSH1 0x20 PUSH1 0x0 KECCAK256 SWAP1 PUSH1 0x3 MUL ADD PUSH1 0x2 ADD PUSH1 0x0 SWAP1 SLOAD SWAP1 PUSH2 0x100 EXP SWAP1 DIV PUSH1 0x1 PUSH1 0x1 PUSH1 0xA0 SHL SUB AND DUP9 DUP9 DUP2 SLOAD DUP2 LT PUSH2 0x1443 JUMPI PUSH2 0x1443 PUSH2 0x25B0 JUMP JUMPDEST SWAP1 PUSH1 0x0 MSTORE PUSH1 0x20 PUSH1 0x0 KECCAK256 SWAP1 PUSH1 0x3 MUL ADD PUSH1 0x2 ADD PUSH1 0x14 SWAP1 SLOAD SWAP1 PUSH2 0x100 EXP SWAP1 DIV PUSH1 0xFF AND PUSH1 0x40 MLOAD PUSH1 0x20 ADD PUSH2 0x1475 SWAP5 SWAP4 SWAP3 SWAP2 SWAP1 PUSH2 0x2470 JUMP JUMPDEST PUSH1 0x40 MLOAD PUSH1 0x20 DUP2 DUP4 SUB SUB DUP2 MSTORE SWAP1 PUSH1 0x40 MSTORE DUP8 PUSH1 0x40 MLOAD DUP6 PUSH4 0xFFFFFFFF AND PUSH1 0xE0 SHL DUP2 MSTORE PUSH1 0x4 ADD PUSH2 0x14A4 SWAP5 SWAP4 SWAP3 SWAP2 SWAP1 PUSH2 0x21F1 JUMP JUMPDEST PUSH1 0x20 PUSH1 0x40 MLOAD DUP1 DUP4 SUB DUP2 PUSH1 0x0 DUP8 DUP1 EXTCODESIZE ISZERO DUP1 ISZERO PUSH2 0x14BE JUMPI PUSH1 0x0 DUP1 REVERT JUMPDEST POP GAS CALL ISZERO DUP1 ISZERO PUSH2 0x14D2 JUMPI RETURNDATASIZE PUSH1 0x0 DUP1 RETURNDATACOPY RETURNDATASIZE PUSH1 0x0 REVERT JUMPDEST POP POP POP POP PUSH1 0x40 MLOAD RETURNDATASIZE PUSH1 0x1F NOT PUSH1 0x1F DUP3 ADD AND DUP3 ADD DUP1 PUSH1 0x40 MSTORE POP DUP2 ADD SWAP1 PUSH2 0x14F6 SWAP2 SWAP1 PUSH2 0x1ED6 JUMP JUMPDEST POP DUP1 PUSH2 0x1501 DUP2 PUSH2 0x2569 JUMP JUMPDEST SWAP2 POP POP PUSH2 0x1357 JUMP JUMPDEST POP PUSH1 0x0 DUP3 DUP2 MSTORE PUSH1 0x1 PUSH1 0x20 MSTORE PUSH1 0x40 DUP2 KECCAK256 SWAP1 JUMPDEST DUP2 SLOAD DUP2 LT ISZERO PUSH2 0x16BA JUMPI PUSH32 0x0 PUSH1 0x1 PUSH1 0x1 PUSH1 0xA0 SHL SUB AND PUSH4 0x3A66F901 PUSH32 0x0 PUSH1 0x0 DUP6 DUP6 DUP2 SLOAD DUP2 LT PUSH2 0x1587 JUMPI PUSH2 0x1587 PUSH2 0x25B0 JUMP JUMPDEST SWAP1 PUSH1 0x0 MSTORE PUSH1 0x20 PUSH1 0x0 KECCAK256 SWAP1 PUSH1 0x3 MUL ADD PUSH1 0x1 ADD SLOAD DUP7 DUP7 DUP2 SLOAD DUP2 LT PUSH2 0x15AB JUMPI PUSH2 0x15AB PUSH2 0x25B0 JUMP JUMPDEST PUSH1 0x0 SWAP2 DUP3 MSTORE PUSH1 0x20 SWAP1 SWAP2 KECCAK256 PUSH1 0x3 SWAP1 SWAP2 MUL ADD SLOAD DUP8 SLOAD PUSH1 0x1 PUSH1 0x1 PUSH1 0xA0 SHL SUB SWAP1 SWAP2 AND SWAP1 DUP9 SWAP1 DUP9 SWAP1 DUP2 LT PUSH2 0x15DC JUMPI PUSH2 0x15DC PUSH2 0x25B0 JUMP JUMPDEST PUSH1 0x0 SWAP2 DUP3 MSTORE PUSH1 0x20 SWAP2 DUP3 SWAP1 KECCAK256 PUSH1 0x2 PUSH1 0x3 SWAP1 SWAP3 MUL ADD ADD SLOAD PUSH1 0x40 MLOAD PUSH2 0x1626 SWAP5 SWAP4 SWAP3 PUSH1 0x1 PUSH1 0x1 PUSH1 0xA0 SHL SUB SWAP1 SWAP3 AND SWAP2 ADD SWAP3 DUP4 MSTORE PUSH1 0x1 PUSH1 0x1 PUSH1 0xA0 SHL SUB SWAP2 DUP3 AND PUSH1 0x20 DUP5 ADD MSTORE AND PUSH1 0x40 DUP3 ADD MSTORE PUSH1 0x60 ADD SWAP1 JUMP JUMPDEST PUSH1 0x40 MLOAD PUSH1 0x20 DUP2 DUP4 SUB SUB DUP2 MSTORE SWAP1 PUSH1 0x40 MSTORE DUP9 PUSH1 0x40 MLOAD DUP6 PUSH4 0xFFFFFFFF AND PUSH1 0xE0 SHL DUP2 MSTORE PUSH1 0x4 ADD PUSH2 0x1655 SWAP5 SWAP4 SWAP3 SWAP2 SWAP1 PUSH2 0x2269 JUMP JUMPDEST PUSH1 0x20 PUSH1 0x40 MLOAD DUP1 DUP4 SUB DUP2 PUSH1 0x0 DUP8 DUP1 EXTCODESIZE ISZERO DUP1 ISZERO PUSH2 0x166F JUMPI PUSH1 0x0 DUP1 REVERT JUMPDEST POP GAS CALL ISZERO DUP1 ISZERO PUSH2 0x1683 JUMPI RETURNDATASIZE PUSH1 0x0 DUP1 RETURNDATACOPY RETURNDATASIZE PUSH1 0x0 REVERT JUMPDEST POP POP POP POP PUSH1 0x40 MLOAD RETURNDATASIZE PUSH1 0x1F NOT PUSH1 0x1F DUP3 ADD AND DUP3 ADD DUP1 PUSH1 0x40 MSTORE POP DUP2 ADD SWAP1 PUSH2 0x16A7 SWAP2 SWAP1 PUSH2 0x1ED6 JUMP JUMPDEST POP DUP1 PUSH2 0x16B2 DUP2 PUSH2 0x2569 JUMP JUMPDEST SWAP2 POP POP PUSH2 0x151A JUMP JUMPDEST POP POP POP PUSH1 0x0 SWAP1 DUP2 MSTORE PUSH1 0x3 PUSH1 0x20 MSTORE PUSH1 0x40 SWAP1 KECCAK256 DUP1 SLOAD PUSH1 0xFF NOT AND PUSH1 0x1 OR SWAP1 SSTORE JUMP JUMPDEST PUSH1 0x0 DUP2 DUP2 MSTORE PUSH1 0x2 PUSH1 0x20 MSTORE PUSH1 0x40 DUP2 KECCAK256 SWAP1 JUMPDEST DUP2 SLOAD DUP2 LT ISZERO PUSH2 0x189E JUMPI PUSH32 0x0 PUSH1 0x1 PUSH1 0x1 PUSH1 0xA0 SHL SUB AND PUSH4 0x825F38F PUSH32 0x0 PUSH1 0x0 DUP6 DUP6 DUP2 SLOAD DUP2 LT PUSH2 0x1755 JUMPI PUSH2 0x1755 PUSH2 0x25B0 JUMP JUMPDEST SWAP1 PUSH1 0x0 MSTORE PUSH1 0x20 PUSH1 0x0 KECCAK256 SWAP1 PUSH1 0x3 MUL ADD PUSH1 0x0 ADD SLOAD DUP7 DUP7 DUP2 SLOAD DUP2 LT PUSH2 0x1779 JUMPI PUSH2 0x1779 PUSH2 0x25B0 JUMP JUMPDEST SWAP1 PUSH1 0x0 MSTORE PUSH1 0x20 PUSH1 0x0 KECCAK256 SWAP1 PUSH1 0x3 MUL ADD PUSH1 0x1 ADD SLOAD DUP8 DUP8 DUP2 SLOAD DUP2 LT PUSH2 0x179D JUMPI PUSH2 0x179D PUSH2 0x25B0 JUMP JUMPDEST SWAP1 PUSH1 0x0 MSTORE PUSH1 0x20 PUSH1 0x0 KECCAK256 SWAP1 PUSH1 0x3 MUL ADD PUSH1 0x2 ADD PUSH1 0x0 SWAP1 SLOAD SWAP1 PUSH2 0x100 EXP SWAP1 DIV PUSH1 0x1 PUSH1 0x1 PUSH1 0xA0 SHL SUB AND DUP9 DUP9 DUP2 SLOAD DUP2 LT PUSH2 0x17D4 JUMPI PUSH2 0x17D4 PUSH2 0x25B0 JUMP JUMPDEST SWAP1 PUSH1 0x0 MSTORE PUSH1 0x20 PUSH1 0x0 KECCAK256 SWAP1 PUSH1 0x3 MUL ADD PUSH1 0x2 ADD PUSH1 0x14 SWAP1 SLOAD SWAP1 PUSH2 0x100 EXP SWAP1 DIV PUSH1 0xFF AND PUSH1 0x40 MLOAD PUSH1 0x20 ADD PUSH2 0x1806 SWAP5 SWAP4 SWAP3 SWAP2 SWAP1 PUSH2 0x2470 JUMP JUMPDEST PUSH1 0x40 MLOAD PUSH1 0x20 DUP2 DUP4 SUB SUB DUP2 MSTORE SWAP1 PUSH1 0x40 MSTORE DUP8 PUSH1 0x40 MLOAD DUP6 PUSH4 0xFFFFFFFF AND PUSH1 0xE0 SHL DUP2 MSTORE PUSH1 0x4 ADD PUSH2 0x1835 SWAP5 SWAP4 SWAP3 SWAP2 SWAP1 PUSH2 0x21F1 JUMP JUMPDEST PUSH1 0x0 PUSH1 0x40 MLOAD DUP1 DUP4 SUB DUP2 PUSH1 0x0 DUP8 DUP1 EXTCODESIZE ISZERO DUP1 ISZERO PUSH2 0x184F JUMPI PUSH1 0x0 DUP1 REVERT JUMPDEST POP GAS CALL ISZERO DUP1 ISZERO PUSH2 0x1863 JUMPI RETURNDATASIZE PUSH1 0x0 DUP1 RETURNDATACOPY RETURNDATASIZE PUSH1 0x0 REVERT JUMPDEST POP POP POP POP PUSH1 0x40 MLOAD RETURNDATASIZE PUSH1 0x0 DUP3 RETURNDATACOPY PUSH1 0x1F RETURNDATASIZE SWAP1 DUP2 ADD PUSH1 0x1F NOT AND DUP3 ADD PUSH1 0x40 MSTORE PUSH2 0x188B SWAP2 SWAP1 DUP2 ADD SWAP1 PUSH2 0x1F49 JUMP JUMPDEST POP DUP1 PUSH2 0x1896 DUP2 PUSH2 0x2569 JUMP JUMPDEST SWAP2 POP POP PUSH2 0x16E8 JUMP JUMPDEST POP PUSH1 0x0 DUP3 DUP2 MSTORE PUSH1 0x1 PUSH1 0x20 MSTORE PUSH1 0x40 DUP2 KECCAK256 SWAP1 JUMPDEST DUP2 SLOAD DUP2 LT ISZERO PUSH2 0xD24 JUMPI PUSH32 0x0 PUSH1 0x1 PUSH1 0x1 PUSH1 0xA0 SHL SUB AND PUSH4 0x825F38F PUSH32 0x0 PUSH1 0x0 DUP6 DUP6 DUP2 SLOAD DUP2 LT PUSH2 0x191C JUMPI PUSH2 0x191C PUSH2 0x25B0 JUMP JUMPDEST SWAP1 PUSH1 0x0 MSTORE PUSH1 0x20 PUSH1 0x0 KECCAK256 SWAP1 PUSH1 0x3 MUL ADD PUSH1 0x1 ADD SLOAD DUP7 DUP7 DUP2 SLOAD DUP2 LT PUSH2 0x1940 JUMPI PUSH2 0x1940 PUSH2 0x25B0 JUMP JUMPDEST PUSH1 0x0 SWAP2 DUP3 MSTORE PUSH1 0x20 SWAP1 SWAP2 KECCAK256 PUSH1 0x3 SWAP1 SWAP2 MUL ADD SLOAD DUP8 SLOAD PUSH1 0x1 PUSH1 0x1 PUSH1 0xA0 SHL SUB SWAP1 SWAP2 AND SWAP1 DUP9 SWAP1 DUP9 SWAP1 DUP2 LT PUSH2 0x1971 JUMPI PUSH2 0x1971 PUSH2 0x25B0 JUMP JUMPDEST PUSH1 0x0 SWAP2 DUP3 MSTORE PUSH1 0x20 SWAP2 DUP3 SWAP1 KECCAK256 PUSH1 0x2 PUSH1 0x3 SWAP1 SWAP3 MUL ADD ADD SLOAD PUSH1 0x40 MLOAD PUSH2 0x19BB SWAP5 SWAP4 SWAP3 PUSH1 0x1 PUSH1 0x1 PUSH1 0xA0 SHL SUB SWAP1 SWAP3 AND SWAP2 ADD SWAP3 DUP4 MSTORE PUSH1 0x1 PUSH1 0x1 PUSH1 0xA0 SHL SUB SWAP2 DUP3 AND PUSH1 0x20 DUP5 ADD MSTORE AND PUSH1 0x40 DUP3 ADD MSTORE PUSH1 0x60 ADD SWAP1 JUMP JUMPDEST PUSH1 0x40 MLOAD PUSH1 0x20 DUP2 DUP4 SUB SUB DUP2 MSTORE SWAP1 PUSH1 0x40 MSTORE DUP9 PUSH1 0x40 MLOAD DUP6 PUSH4 0xFFFFFFFF AND PUSH1 0xE0 SHL DUP2 MSTORE PUSH1 0x4 ADD PUSH2 0x19EA SWAP5 SWAP4 SWAP3 SWAP2 SWAP1 PUSH2 0x2269 JUMP JUMPDEST PUSH1 0x0 PUSH1 0x40 MLOAD DUP1 DUP4 SUB DUP2 PUSH1 0x0 DUP8 DUP1 EXTCODESIZE ISZERO DUP1 ISZERO PUSH2 0x1A04 JUMPI PUSH1 0x0 DUP1 REVERT JUMPDEST POP GAS CALL ISZERO DUP1 ISZERO PUSH2 0x1A18 JUMPI RETURNDATASIZE PUSH1 0x0 DUP1 RETURNDATACOPY RETURNDATASIZE PUSH1 0x0 REVERT JUMPDEST POP POP POP POP PUSH1 0x40 MLOAD RETURNDATASIZE PUSH1 0x0 DUP3 RETURNDATACOPY PUSH1 0x1F RETURNDATASIZE SWAP1 DUP2 ADD PUSH1 0x1F NOT AND DUP3 ADD PUSH1 0x40 MSTORE PUSH2 0x1A40 SWAP2 SWAP1 DUP2 ADD SWAP1 PUSH2 0x1F49 JUMP JUMPDEST POP DUP1 PUSH2 0x1A4B DUP2 PUSH2 0x2569 JUMP JUMPDEST SWAP2 POP POP PUSH2 0x18AF JUMP JUMPDEST PUSH1 0x60 PUSH1 0x0 PUSH2 0x1A62 DUP4 PUSH1 0x2 PUSH2 0x2507 JUMP JUMPDEST PUSH2 0x1A6D SWAP1 PUSH1 0x2 PUSH2 0x24EF JUMP JUMPDEST PUSH8 0xFFFFFFFFFFFFFFFF DUP2 GT ISZERO PUSH2 0x1A85 JUMPI PUSH2 0x1A85 PUSH2 0x25C6 JUMP JUMPDEST PUSH1 0x40 MLOAD SWAP1 DUP1 DUP3 MSTORE DUP1 PUSH1 0x1F ADD PUSH1 0x1F NOT AND PUSH1 0x20 ADD DUP3 ADD PUSH1 0x40 MSTORE DUP1 ISZERO PUSH2 0x1AAF JUMPI PUSH1 0x20 DUP3 ADD DUP2 DUP1 CALLDATASIZE DUP4 CALLDATACOPY ADD SWAP1 POP JUMPDEST POP SWAP1 POP PUSH1 0x3 PUSH1 0xFC SHL DUP2 PUSH1 0x0 DUP2 MLOAD DUP2 LT PUSH2 0x1ACA JUMPI PUSH2 0x1ACA PUSH2 0x25B0 JUMP JUMPDEST PUSH1 0x20 ADD ADD SWAP1 PUSH1 0x1 PUSH1 0x1 PUSH1 0xF8 SHL SUB NOT AND SWAP1 DUP2 PUSH1 0x0 BYTE SWAP1 MSTORE8 POP PUSH1 0xF PUSH1 0xFB SHL DUP2 PUSH1 0x1 DUP2 MLOAD DUP2 LT PUSH2 0x1AF9 JUMPI PUSH2 0x1AF9 PUSH2 0x25B0 JUMP JUMPDEST PUSH1 0x20 ADD ADD SWAP1 PUSH1 0x1 PUSH1 0x1 PUSH1 0xF8 SHL SUB NOT AND SWAP1 DUP2 PUSH1 0x0 BYTE SWAP1 MSTORE8 POP PUSH1 0x0 PUSH2 0x1B1D DUP5 PUSH1 0x2 PUSH2 0x2507 JUMP JUMPDEST PUSH2 0x1B28 SWAP1 PUSH1 0x1 PUSH2 0x24EF JUMP JUMPDEST SWAP1 POP JUMPDEST PUSH1 0x1 DUP2 GT ISZERO PUSH2 0x1BA0 JUMPI PUSH16 0x181899199A1A9B1B9C1CB0B131B232B3 PUSH1 0x81 SHL DUP6 PUSH1 0xF AND PUSH1 0x10 DUP2 LT PUSH2 0x1B5C JUMPI PUSH2 0x1B5C PUSH2 0x25B0 JUMP JUMPDEST BYTE PUSH1 0xF8 SHL DUP3 DUP3 DUP2 MLOAD DUP2 LT PUSH2 0x1B72 JUMPI PUSH2 0x1B72 PUSH2 0x25B0 JUMP JUMPDEST PUSH1 0x20 ADD ADD SWAP1 PUSH1 0x1 PUSH1 0x1 PUSH1 0xF8 SHL SUB NOT AND SWAP1 DUP2 PUSH1 0x0 BYTE SWAP1 MSTORE8 POP PUSH1 0x4 SWAP5 SWAP1 SWAP5 SHR SWAP4 PUSH2 0x1B99 DUP2 PUSH2 0x2552 JUMP JUMPDEST SWAP1 POP PUSH2 0x1B2B JUMP JUMPDEST POP DUP4 ISZERO PUSH2 0x1333 JUMPI PUSH1 0x40 MLOAD PUSH3 0x461BCD PUSH1 0xE5 SHL DUP2 MSTORE PUSH1 0x20 PUSH1 0x4 DUP3 ADD DUP2 SWAP1 MSTORE PUSH1 0x24 DUP3 ADD MSTORE PUSH32 0x537472696E67733A20686578206C656E67746820696E73756666696369656E74 PUSH1 0x44 DUP3 ADD MSTORE PUSH1 0x64 ADD PUSH2 0x7EE JUMP JUMPDEST PUSH1 0x0 DUP2 DUP2 MSTORE PUSH1 0x1 DUP4 ADD PUSH1 0x20 MSTORE PUSH1 0x40 DUP2 KECCAK256 SLOAD PUSH2 0x1C36 JUMPI POP DUP2 SLOAD PUSH1 0x1 DUP2 DUP2 ADD DUP5 SSTORE PUSH1 0x0 DUP5 DUP2 MSTORE PUSH1 0x20 DUP1 DUP3 KECCAK256 SWAP1 SWAP4 ADD DUP5 SWAP1 SSTORE DUP5 SLOAD DUP5 DUP3 MSTORE DUP3 DUP7 ADD SWAP1 SWAP4 MSTORE PUSH1 0x40 SWAP1 KECCAK256 SWAP2 SWAP1 SWAP2 SSTORE PUSH2 0x5D9 JUMP JUMPDEST POP PUSH1 0x0 PUSH2 0x5D9 JUMP JUMPDEST PUSH1 0x60 DUP2 PUSH1 0x0 ADD DUP1 SLOAD DUP1 PUSH1 0x20 MUL PUSH1 0x20 ADD PUSH1 0x40 MLOAD SWAP1 DUP2 ADD PUSH1 0x40 MSTORE DUP1 SWAP3 SWAP2 SWAP1 DUP2 DUP2 MSTORE PUSH1 0x20 ADD DUP3 DUP1 SLOAD DUP1 ISZERO PUSH2 0x1C8E JUMPI PUSH1 0x20 MUL DUP3 ADD SWAP2 SWAP1 PUSH1 0x0 MSTORE PUSH1 0x20 PUSH1 0x0 KECCAK256 SWAP1 JUMPDEST DUP2 SLOAD DUP2 MSTORE PUSH1 0x20 ADD SWAP1 PUSH1 0x1 ADD SWAP1 DUP1 DUP4 GT PUSH2 0x1C7A JUMPI JUMPDEST POP POP POP POP POP SWAP1 POP SWAP2 SWAP1 POP JUMP JUMPDEST PUSH1 0x0 PUSH2 0x1CAD PUSH2 0x1CA8 DUP5 PUSH2 0x24C7 JUMP JUMPDEST PUSH2 0x2496 JUMP JUMPDEST SWAP1 POP DUP3 DUP2 MSTORE DUP4 DUP4 DUP4 ADD GT ISZERO PUSH2 0x1CC1 JUMPI PUSH1 0x0 DUP1 REVERT JUMPDEST DUP3 DUP3 PUSH1 0x20 DUP4 ADD CALLDATACOPY PUSH1 0x0 PUSH1 0x20 DUP5 DUP4 ADD ADD MSTORE SWAP4 SWAP3 POP POP POP JUMP JUMPDEST DUP1 CALLDATALOAD PUSH1 0x2 DUP2 LT PUSH2 0x1CE7 JUMPI PUSH1 0x0 DUP1 REVERT JUMPDEST SWAP2 SWAP1 POP JUMP JUMPDEST PUSH1 0x0 DUP1 PUSH1 0x0 PUSH1 0x60 DUP5 DUP7 SUB SLT ISZERO PUSH2 0x1D01 JUMPI PUSH1 0x0 DUP1 REVERT JUMPDEST DUP4 CALLDATALOAD PUSH2 0x1D0C DUP2 PUSH2 0x2694 JUMP JUMPDEST SWAP3 POP PUSH1 0x20 DUP5 ADD CALLDATALOAD SWAP2 POP PUSH2 0x1D21 PUSH1 0x40 DUP6 ADD PUSH2 0x1CD8 JUMP JUMPDEST SWAP1 POP SWAP3 POP SWAP3 POP SWAP3 JUMP JUMPDEST PUSH1 0x0 DUP1 PUSH1 0x0 DUP1 PUSH1 0x0 PUSH1 0xA0 DUP7 DUP9 SUB SLT ISZERO PUSH2 0x1D42 JUMPI PUSH1 0x0 DUP1 REVERT JUMPDEST DUP6 CALLDATALOAD PUSH2 0x1D4D DUP2 PUSH2 0x2694 JUMP JUMPDEST SWAP5 POP PUSH1 0x20 DUP7 ADD CALLDATALOAD SWAP4 POP PUSH1 0x40 DUP7 ADD CALLDATALOAD PUSH8 0xFFFFFFFFFFFFFFFF DUP1 DUP3 GT ISZERO PUSH2 0x1D71 JUMPI PUSH1 0x0 DUP1 REVERT JUMPDEST DUP2 DUP9 ADD SWAP2 POP DUP9 PUSH1 0x1F DUP4 ADD SLT PUSH2 0x1D85 JUMPI PUSH1 0x0 DUP1 REVERT JUMPDEST PUSH2 0x1D94 DUP10 DUP4 CALLDATALOAD PUSH1 0x20 DUP6 ADD PUSH2 0x1C9A JUMP JUMPDEST SWAP5 POP PUSH1 0x60 DUP9 ADD CALLDATALOAD SWAP2 POP DUP1 DUP3 GT ISZERO PUSH2 0x1DAA JUMPI PUSH1 0x0 DUP1 REVERT JUMPDEST POP DUP7 ADD PUSH1 0x1F DUP2 ADD DUP9 SGT PUSH2 0x1DBC JUMPI PUSH1 0x0 DUP1 REVERT JUMPDEST PUSH2 0x1DCB DUP9 DUP3 CALLDATALOAD PUSH1 0x20 DUP5 ADD PUSH2 0x1C9A JUMP JUMPDEST SWAP6 SWAP9 SWAP5 SWAP8 POP SWAP3 SWAP6 PUSH1 0x80 ADD CALLDATALOAD SWAP4 SWAP3 POP POP POP JUMP JUMPDEST PUSH1 0x0 DUP1 PUSH1 0x0 PUSH1 0x40 DUP5 DUP7 SUB SLT ISZERO PUSH2 0x1DF2 JUMPI PUSH1 0x0 DUP1 REVERT JUMPDEST DUP4 CALLDATALOAD PUSH8 0xFFFFFFFFFFFFFFFF DUP1 DUP3 GT ISZERO PUSH2 0x1E0A JUMPI PUSH1 0x0 DUP1 REVERT JUMPDEST DUP2 DUP7 ADD SWAP2 POP DUP7 PUSH1 0x1F DUP4 ADD SLT PUSH2 0x1E1E JUMPI PUSH1 0x0 DUP1 REVERT JUMPDEST DUP2 CALLDATALOAD DUP2 DUP2 GT ISZERO PUSH2 0x1E2D JUMPI PUSH1 0x0 DUP1 REVERT JUMPDEST DUP8 PUSH1 0x20 PUSH1 0x60 DUP4 MUL DUP6 ADD ADD GT ISZERO PUSH2 0x1E42 JUMPI PUSH1 0x0 DUP1 REVERT JUMPDEST PUSH1 0x20 SWAP3 DUP4 ADD SWAP9 SWAP1 SWAP8 POP SWAP6 SWAP1 SWAP2 ADD CALLDATALOAD SWAP5 SWAP4 POP POP POP POP JUMP JUMPDEST PUSH1 0x0 DUP1 PUSH1 0x0 PUSH1 0x40 DUP5 DUP7 SUB SLT ISZERO PUSH2 0x1E6D JUMPI PUSH1 0x0 DUP1 REVERT JUMPDEST DUP4 CALLDATALOAD PUSH8 0xFFFFFFFFFFFFFFFF DUP1 DUP3 GT ISZERO PUSH2 0x1E85 JUMPI PUSH1 0x0 DUP1 REVERT JUMPDEST DUP2 DUP7 ADD SWAP2 POP DUP7 PUSH1 0x1F DUP4 ADD SLT PUSH2 0x1E99 JUMPI PUSH1 0x0 DUP1 REVERT JUMPDEST DUP2 CALLDATALOAD DUP2 DUP2 GT ISZERO PUSH2 0x1EA8 JUMPI PUSH1 0x0 DUP1 REVERT JUMPDEST DUP8 PUSH1 0x20 DUP3 PUSH1 0x7 SHL DUP6 ADD ADD GT ISZERO PUSH2 0x1E42 JUMPI PUSH1 0x0 DUP1 REVERT JUMPDEST PUSH1 0x0 PUSH1 0x20 DUP3 DUP5 SUB SLT ISZERO PUSH2 0x1ECF JUMPI PUSH1 0x0 DUP1 REVERT JUMPDEST POP CALLDATALOAD SWAP2 SWAP1 POP JUMP JUMPDEST PUSH1 0x0 PUSH1 0x20 DUP3 DUP5 SUB SLT ISZERO PUSH2 0x1EE8 JUMPI PUSH1 0x0 DUP1 REVERT JUMPDEST POP MLOAD SWAP2 SWAP1 POP JUMP JUMPDEST PUSH1 0x0 DUP1 PUSH1 0x40 DUP4 DUP6 SUB SLT ISZERO PUSH2 0x1F02 JUMPI PUSH1 0x0 DUP1 REVERT JUMPDEST DUP3 CALLDATALOAD SWAP2 POP PUSH1 0x20 DUP4 ADD CALLDATALOAD PUSH2 0x1F14 DUP2 PUSH2 0x2694 JUMP JUMPDEST DUP1 SWAP2 POP POP SWAP3 POP SWAP3 SWAP1 POP JUMP JUMPDEST PUSH1 0x0 PUSH1 0x20 DUP3 DUP5 SUB SLT ISZERO PUSH2 0x1F31 JUMPI PUSH1 0x0 DUP1 REVERT JUMPDEST DUP2 CALLDATALOAD PUSH1 0x1 PUSH1 0x1 PUSH1 0xE0 SHL SUB NOT DUP2 AND DUP2 EQ PUSH2 0x1333 JUMPI PUSH1 0x0 DUP1 REVERT JUMPDEST PUSH1 0x0 PUSH1 0x20 DUP3 DUP5 SUB SLT ISZERO PUSH2 0x1F5B JUMPI PUSH1 0x0 DUP1 REVERT JUMPDEST DUP2 MLOAD PUSH8 0xFFFFFFFFFFFFFFFF DUP2 GT ISZERO PUSH2 0x1F72 JUMPI PUSH1 0x0 DUP1 REVERT JUMPDEST DUP3 ADD PUSH1 0x1F DUP2 ADD DUP5 SGT PUSH2 0x1F83 JUMPI PUSH1 0x0 DUP1 REVERT JUMPDEST DUP1 MLOAD PUSH2 0x1F91 PUSH2 0x1CA8 DUP3 PUSH2 0x24C7 JUMP JUMPDEST DUP2 DUP2 MSTORE DUP6 PUSH1 0x20 DUP4 DUP6 ADD ADD GT ISZERO PUSH2 0x1FA6 JUMPI PUSH1 0x0 DUP1 REVERT JUMPDEST PUSH2 0x1FB7 DUP3 PUSH1 0x20 DUP4 ADD PUSH1 0x20 DUP7 ADD PUSH2 0x2526 JUMP JUMPDEST SWAP6 SWAP5 POP POP POP POP POP JUMP JUMPDEST PUSH1 0x0 DUP1 PUSH1 0x40 DUP4 DUP6 SUB SLT ISZERO PUSH2 0x1FD3 JUMPI PUSH1 0x0 DUP1 REVERT JUMPDEST DUP3 CALLDATALOAD SWAP2 POP PUSH2 0x1FE3 PUSH1 0x20 DUP5 ADD PUSH2 0x1CD8 JUMP JUMPDEST SWAP1 POP SWAP3 POP SWAP3 SWAP1 POP JUMP JUMPDEST PUSH1 0x0 DUP1 PUSH1 0x40 DUP4 DUP6 SUB SLT ISZERO PUSH2 0x1FFF JUMPI PUSH1 0x0 DUP1 REVERT JUMPDEST POP POP DUP1 CALLDATALOAD SWAP3 PUSH1 0x20 SWAP1 SWAP2 ADD CALLDATALOAD SWAP2 POP JUMP JUMPDEST PUSH1 0x0 DUP1 PUSH1 0x0 PUSH1 0x60 DUP5 DUP7 SUB SLT ISZERO PUSH2 0x2023 JUMPI PUSH1 0x0 DUP1 REVERT JUMPDEST DUP4 CALLDATALOAD SWAP3 POP PUSH1 0x20 DUP5 ADD CALLDATALOAD SWAP2 POP PUSH2 0x1D21 PUSH1 0x40 DUP6 ADD PUSH2 0x1CD8 JUMP JUMPDEST PUSH1 0x0 DUP2 MLOAD DUP1 DUP5 MSTORE PUSH2 0x2052 DUP2 PUSH1 0x20 DUP7 ADD PUSH1 0x20 DUP7 ADD PUSH2 0x2526 JUMP JUMPDEST PUSH1 0x1F ADD PUSH1 0x1F NOT AND SWAP3 SWAP1 SWAP3 ADD PUSH1 0x20 ADD SWAP3 SWAP2 POP POP JUMP JUMPDEST PUSH32 0x416363657373436F6E74726F6C3A206163636F756E7420000000000000000000 DUP2 MSTORE PUSH1 0x0 DUP4 MLOAD PUSH2 0x209E DUP2 PUSH1 0x17 DUP6 ADD PUSH1 0x20 DUP9 ADD PUSH2 0x2526 JUMP JUMPDEST PUSH17 0x1034B99036B4B9B9B4B733903937B6329 PUSH1 0x7D SHL PUSH1 0x17 SWAP2 DUP5 ADD SWAP2 DUP3 ADD MSTORE DUP4 MLOAD PUSH2 0x20CF DUP2 PUSH1 0x28 DUP5 ADD PUSH1 0x20 DUP9 ADD PUSH2 0x2526 JUMP JUMPDEST ADD PUSH1 0x28 ADD SWAP5 SWAP4 POP POP POP POP JUMP JUMPDEST PUSH1 0x1 DUP1 PUSH1 0xA0 SHL SUB DUP6 AND DUP2 MSTORE DUP4 PUSH1 0x20 DUP3 ADD MSTORE PUSH1 0xA0 PUSH1 0x40 DUP3 ADD MSTORE PUSH1 0x1B PUSH1 0xA0 DUP3 ADD MSTORE PUSH32 0x757064617465456D697373696F6E526174652875696E74323536290000000000 PUSH1 0xC0 DUP3 ADD MSTORE PUSH1 0xE0 PUSH1 0x60 DUP3 ADD MSTORE PUSH1 0x0 PUSH2 0x2136 PUSH1 0xE0 DUP4 ADD DUP6 PUSH2 0x203A JUMP JUMPDEST SWAP1 POP DUP3 PUSH1 0x80 DUP4 ADD MSTORE SWAP6 SWAP5 POP POP POP POP POP JUMP JUMPDEST PUSH1 0x1 DUP1 PUSH1 0xA0 SHL SUB DUP6 AND DUP2 MSTORE DUP4 PUSH1 0x20 DUP3 ADD MSTORE PUSH1 0xA0 PUSH1 0x40 DUP3 ADD MSTORE PUSH1 0x11 PUSH1 0xA0 DUP3 ADD MSTORE PUSH17 0x7472656173757279286164647265737329 PUSH1 0x78 SHL PUSH1 0xC0 DUP3 ADD MSTORE PUSH1 0xE0 PUSH1 0x60 DUP3 ADD MSTORE PUSH1 0x0 PUSH2 0x2136 PUSH1 0xE0 DUP4 ADD DUP6 PUSH2 0x203A JUMP JUMPDEST PUSH1 0x1 DUP1 PUSH1 0xA0 SHL SUB DUP6 AND DUP2 MSTORE DUP4 PUSH1 0x20 DUP3 ADD MSTORE PUSH1 0xA0 PUSH1 0x40 DUP3 ADD MSTORE PUSH1 0x18 PUSH1 0xA0 DUP3 ADD MSTORE PUSH32 0x73657450656E64696E6741646D696E2861646472657373290000000000000000 PUSH1 0xC0 DUP3 ADD MSTORE PUSH1 0xE0 PUSH1 0x60 DUP3 ADD MSTORE PUSH1 0x0 PUSH2 0x2136 PUSH1 0xE0 DUP4 ADD DUP6 PUSH2 0x203A JUMP JUMPDEST PUSH1 0x1 DUP1 PUSH1 0xA0 SHL SUB DUP6 AND DUP2 MSTORE DUP4 PUSH1 0x20 DUP3 ADD MSTORE PUSH1 0xA0 PUSH1 0x40 DUP3 ADD MSTORE PUSH1 0x21 PUSH1 0xA0 DUP3 ADD MSTORE PUSH32 0x7365742875696E743235362C75696E743235362C616464726573732C626F6F6C PUSH1 0xC0 DUP3 ADD MSTORE PUSH1 0x29 PUSH1 0xF8 SHL PUSH1 0xE0 DUP3 ADD MSTORE PUSH1 0x0 PUSH2 0x100 DUP1 PUSH1 0x60 DUP5 ADD MSTORE PUSH2 0x2257 DUP2 DUP5 ADD DUP7 PUSH2 0x203A JUMP JUMPDEST SWAP2 POP POP DUP3 PUSH1 0x80 DUP4 ADD MSTORE SWAP6 SWAP5 POP POP POP POP POP JUMP JUMPDEST PUSH1 0x1 DUP1 PUSH1 0xA0 SHL SUB DUP6 AND DUP2 MSTORE DUP4 PUSH1 0x20 DUP3 ADD MSTORE PUSH1 0xA0 PUSH1 0x40 DUP3 ADD MSTORE PUSH1 0x1C PUSH1 0xA0 DUP3 ADD MSTORE PUSH32 0x6164642875696E743235362C616464726573732C616464726573732900000000 PUSH1 0xC0 DUP3 ADD MSTORE PUSH1 0xE0 PUSH1 0x60 DUP3 ADD MSTORE PUSH1 0x0 PUSH2 0x2136 PUSH1 0xE0 DUP4 ADD DUP6 PUSH2 0x203A JUMP JUMPDEST PUSH1 0x1 DUP1 PUSH1 0xA0 SHL SUB DUP7 AND DUP2 MSTORE DUP5 PUSH1 0x20 DUP3 ADD MSTORE PUSH1 0xA0 PUSH1 0x40 DUP3 ADD MSTORE PUSH1 0x0 PUSH2 0x22EB PUSH1 0xA0 DUP4 ADD DUP7 PUSH2 0x203A JUMP JUMPDEST DUP3 DUP2 SUB PUSH1 0x60 DUP5 ADD MSTORE PUSH2 0x22FD DUP2 DUP7 PUSH2 0x203A JUMP JUMPDEST SWAP2 POP POP DUP3 PUSH1 0x80 DUP4 ADD MSTORE SWAP7 SWAP6 POP POP POP POP POP POP JUMP JUMPDEST PUSH1 0x20 DUP1 DUP3 MSTORE DUP3 MLOAD DUP3 DUP3 ADD DUP2 SWAP1 MSTORE PUSH1 0x0 SWAP2 SWAP1 PUSH1 0x40 SWAP1 DUP2 DUP6 ADD SWAP1 DUP7 DUP5 ADD DUP6 JUMPDEST DUP3 DUP2 LT ISZERO PUSH2 0x2369 JUMPI DUP2 MLOAD DUP1 MLOAD PUSH1 0x1 PUSH1 0x1 PUSH1 0xA0 SHL SUB SWAP1 DUP2 AND DUP7 MSTORE DUP8 DUP3 ADD MLOAD DUP9 DUP8 ADD MSTORE SWAP1 DUP7 ADD MLOAD AND DUP6 DUP6 ADD MSTORE PUSH1 0x60 SWAP1 SWAP4 ADD SWAP3 SWAP1 DUP6 ADD SWAP1 PUSH1 0x1 ADD PUSH2 0x232D JUMP JUMPDEST POP SWAP2 SWAP8 SWAP7 POP POP POP POP POP POP POP JUMP JUMPDEST PUSH1 0x20 DUP1 DUP3 MSTORE DUP3 MLOAD DUP3 DUP3 ADD DUP2 SWAP1 MSTORE PUSH1 0x0 SWAP2 SWAP1 PUSH1 0x40 SWAP1 DUP2 DUP6 ADD SWAP1 DUP7 DUP5 ADD DUP6 JUMPDEST DUP3 DUP2 LT ISZERO PUSH2 0x2369 JUMPI DUP2 MLOAD DUP1 MLOAD DUP6 MSTORE DUP7 DUP2 ADD MLOAD DUP8 DUP7 ADD MSTORE DUP6 DUP2 ADD MLOAD PUSH1 0x1 PUSH1 0x1 PUSH1 0xA0 SHL SUB AND DUP7 DUP7 ADD MSTORE PUSH1 0x60 SWAP1 DUP2 ADD MLOAD ISZERO ISZERO SWAP1 DUP6 ADD MSTORE PUSH1 0x80 SWAP1 SWAP4 ADD SWAP3 SWAP1 DUP6 ADD SWAP1 PUSH1 0x1 ADD PUSH2 0x2393 JUMP JUMPDEST PUSH1 0x20 DUP1 DUP3 MSTORE DUP3 MLOAD DUP3 DUP3 ADD DUP2 SWAP1 MSTORE PUSH1 0x0 SWAP2 SWAP1 DUP5 DUP3 ADD SWAP1 PUSH1 0x40 DUP6 ADD SWAP1 DUP5 JUMPDEST DUP2 DUP2 LT ISZERO PUSH2 0x2410 JUMPI DUP4 MLOAD DUP4 MSTORE SWAP3 DUP5 ADD SWAP3 SWAP2 DUP5 ADD SWAP2 PUSH1 0x1 ADD PUSH2 0x23F4 JUMP JUMPDEST POP SWAP1 SWAP7 SWAP6 POP POP POP POP POP POP JUMP JUMPDEST PUSH1 0x20 DUP2 MSTORE PUSH1 0x0 PUSH2 0x1333 PUSH1 0x20 DUP4 ADD DUP5 PUSH2 0x203A JUMP JUMPDEST PUSH1 0x20 DUP1 DUP3 MSTORE PUSH1 0x21 SWAP1 DUP3 ADD MSTORE PUSH32 0x45544120616C726561647920757365642C2063686F7365206F74686572206574 PUSH1 0x40 DUP3 ADD MSTORE PUSH1 0x61 PUSH1 0xF8 SHL PUSH1 0x60 DUP3 ADD MSTORE PUSH1 0x80 ADD SWAP1 JUMP JUMPDEST SWAP4 DUP5 MSTORE PUSH1 0x20 DUP5 ADD SWAP3 SWAP1 SWAP3 MSTORE PUSH1 0x1 PUSH1 0x1 PUSH1 0xA0 SHL SUB AND PUSH1 0x40 DUP4 ADD MSTORE ISZERO ISZERO PUSH1 0x60 DUP3 ADD MSTORE PUSH1 0x80 ADD SWAP1 JUMP JUMPDEST PUSH1 0x40 MLOAD PUSH1 0x1F DUP3 ADD PUSH1 0x1F NOT AND DUP2 ADD PUSH8 0xFFFFFFFFFFFFFFFF DUP2 GT DUP3 DUP3 LT OR ISZERO PUSH2 0x24BF JUMPI PUSH2 0x24BF PUSH2 0x25C6 JUMP JUMPDEST PUSH1 0x40 MSTORE SWAP2 SWAP1 POP JUMP JUMPDEST PUSH1 0x0 PUSH8 0xFFFFFFFFFFFFFFFF DUP3 GT ISZERO PUSH2 0x24E1 JUMPI PUSH2 0x24E1 PUSH2 0x25C6 JUMP JUMPDEST POP PUSH1 0x1F ADD PUSH1 0x1F NOT AND PUSH1 0x20 ADD SWAP1 JUMP JUMPDEST PUSH1 0x0 DUP3 NOT DUP3 GT ISZERO PUSH2 0x2502 JUMPI PUSH2 0x2502 PUSH2 0x2584 JUMP JUMPDEST POP ADD SWAP1 JUMP JUMPDEST PUSH1 0x0 DUP2 PUSH1 0x0 NOT DIV DUP4 GT DUP3 ISZERO ISZERO AND ISZERO PUSH2 0x2521 JUMPI PUSH2 0x2521 PUSH2 0x2584 JUMP JUMPDEST POP MUL SWAP1 JUMP JUMPDEST PUSH1 0x0 JUMPDEST DUP4 DUP2 LT ISZERO PUSH2 0x2541 JUMPI DUP2 DUP2 ADD MLOAD DUP4 DUP3 ADD MSTORE PUSH1 0x20 ADD PUSH2 0x2529 JUMP JUMPDEST DUP4 DUP2 GT ISZERO PUSH2 0xD24 JUMPI POP POP PUSH1 0x0 SWAP2 ADD MSTORE JUMP JUMPDEST PUSH1 0x0 DUP2 PUSH2 0x2561 JUMPI PUSH2 0x2561 PUSH2 0x2584 JUMP JUMPDEST POP PUSH1 0x0 NOT ADD SWAP1 JUMP JUMPDEST PUSH1 0x0 PUSH1 0x0 NOT DUP3 EQ ISZERO PUSH2 0x257D JUMPI PUSH2 0x257D PUSH2 0x2584 JUMP JUMPDEST POP PUSH1 0x1 ADD SWAP1 JUMP JUMPDEST PUSH4 0x4E487B71 PUSH1 0xE0 SHL PUSH1 0x0 MSTORE PUSH1 0x11 PUSH1 0x4 MSTORE PUSH1 0x24 PUSH1 0x0 REVERT JUMPDEST PUSH4 0x4E487B71 PUSH1 0xE0 SHL PUSH1 0x0 MSTORE PUSH1 0x21 PUSH1 0x4 MSTORE PUSH1 0x24 PUSH1 0x0 REVERT JUMPDEST PUSH4 0x4E487B71 PUSH1 0xE0 SHL PUSH1 0x0 MSTORE PUSH1 0x32 PUSH1 0x4 MSTORE PUSH1 0x24 PUSH1 0x0 REVERT JUMPDEST PUSH4 0x4E487B71 PUSH1 0xE0 SHL PUSH1 0x0 MSTORE PUSH1 0x41 PUSH1 0x4 MSTORE PUSH1 0x24 PUSH1 0x0 REVERT JUMPDEST DUP1 SLOAD PUSH1 0x1 PUSH1 0x1 PUSH1 0xA0 SHL SUB NOT AND PUSH1 0x1 PUSH1 0x1 PUSH1 0xA0 SHL SUB SWAP3 SWAP1 SWAP3 AND SWAP2 SWAP1 SWAP2 OR SWAP1 SSTORE JUMP JUMPDEST DUP2 CALLDATALOAD PUSH2 0x2607 DUP2 PUSH2 0x2694 JUMP JUMPDEST PUSH2 0x2611 DUP2 DUP4 PUSH2 0x25DC JUMP JUMPDEST POP PUSH1 0x20 DUP3 ADD CALLDATALOAD PUSH1 0x1 DUP3 ADD SSTORE PUSH1 0x40 DUP3 ADD CALLDATALOAD PUSH2 0x262A DUP2 PUSH2 0x2694 JUMP JUMPDEST PUSH2 0x6D5 DUP2 PUSH1 0x2 DUP5 ADD PUSH2 0x25DC JUMP JUMPDEST DUP2 CALLDATALOAD DUP2 SSTORE PUSH1 0x20 DUP3 ADD CALLDATALOAD PUSH1 0x1 DUP3 ADD SSTORE PUSH1 0x2 DUP2 ADD PUSH1 0x40 DUP4 ADD CALLDATALOAD PUSH2 0x2657 DUP2 PUSH2 0x2694 JUMP JUMPDEST PUSH2 0x2661 DUP2 DUP4 PUSH2 0x25DC JUMP JUMPDEST POP PUSH1 0x60 DUP4 ADD CALLDATALOAD DUP1 ISZERO ISZERO DUP1 DUP3 EQ PUSH2 0x2676 JUMPI PUSH1 0x0 DUP1 REVERT JUMPDEST DUP3 SLOAD PUSH1 0xFF PUSH1 0xA0 SHL NOT AND PUSH1 0xA0 SWAP2 SWAP1 SWAP2 SHL PUSH1 0xFF PUSH1 0xA0 SHL AND OR SWAP1 SWAP2 SSTORE POP POP POP JUMP JUMPDEST PUSH1 0x1 PUSH1 0x1 PUSH1 0xA0 SHL SUB DUP2 AND DUP2 EQ PUSH2 0x26A9 JUMPI PUSH1 0x0 DUP1 REVERT JUMPDEST POP JUMP INVALID SWAP13 LOG2 MLOAD 0x49 0xB3 0xFB 0xEF PUSH7 0xD98C546A0B372E SWAP7 0xB9 PUSH3 0x6F14ED PUSH7 0x9DD7BA430D3A8F 0x22 0x5F 0xD2 LOG2 PUSH5 0x6970667358 0x22 SLT KECCAK256 SWAP14 0x27 0xAF PUSH9 0x736F088768E67AC772 POP LOG2 ADDMOD TIMESTAMP 0xE4 CALLVALUE 0x2E POP INVALID LOG2 PUSH22 0x5D5628FF722315CC64736F6C634300080700339CA251 0x49 0xB3 0xFB 0xEF PUSH7 0xD98C546A0B372E SWAP7 0xB9 PUSH3 0x6F14ED PUSH7 0x9DD7BA430D3A8F 0x22 0x5F 0xD2 "
		},
		"gasEstimates": {
			"creation": {
				"codeDepositCost": "1997200",
				"executionCost": "infinite",
				"totalCost": "infinite"
			},
			"external": {
				"COMMIT_ROLE()": "infinite",
				"DEFAULT_ADMIN_ROLE()": "306",
				"STAGE_ROLE()": "infinite",
				"acceptTimelockAdmin()": "infinite",
				"cancelTransaction(address,uint256,string,bytes,uint256)": "infinite",
				"commitEmissionChange(uint256,uint256,uint8)": "infinite",
				"commitFarmChanges(uint256,uint8)": "infinite",
				"commitSetPendingTimelockAdmin(address,uint256,uint8)": "infinite",
				"commitSetTreasuryAddress(address,uint256,uint8)": "infinite",
				"executeTransaction(address,uint256,string,bytes,uint256)": "infinite",
				"farmAdditions(uint256,uint256)": "9122",
				"farmAdditionsForEta(uint256)": "infinite",
				"farmModifications(uint256,uint256)": "9111",
				"farmModificationsForEta(uint256)": "infinite",
				"getRoleAdmin(bytes32)": "2515",
				"grantRole(bytes32,address)": "infinite",
				"hasRole(bytes32,address)": "2717",
				"masterChef()": "infinite",
				"queueTransaction(address,uint256,string,bytes,uint256)": "infinite",
				"queuedFarmChangeEtas()": "infinite",
				"renounceRole(bytes32,address)": "29040",
				"revokeRole(bytes32,address)": "infinite",
				"stageFarmAdditions((address,uint256,address)[],uint256)": "infinite",
				"stageFarmModifications((uint256,uint256,address,bool)[],uint256)": "infinite",
				"supportsInterface(bytes4)": "450",
				"timelock()": "infinite",
				"usedFarmChangeEtas(uint256)": "2528"
			},
			"internal": {
				"executeFarmModifications(uint256)": "infinite",
				"queueFarmModifications(uint256)": "infinite"
			}
		},
		"methodIdentifiers": {
			"COMMIT_ROLE()": "441e7d58",
			"DEFAULT_ADMIN_ROLE()": "a217fddf",
			"STAGE_ROLE()": "25e06309",
			"acceptTimelockAdmin()": "eeaba75d",
			"cancelTransaction(address,uint256,string,bytes,uint256)": "591fcdfe",
			"commitEmissionChange(uint256,uint256,uint8)": "9c2826ef",
			"commitFarmChanges(uint256,uint8)": "ab698957",
			"commitSetPendingTimelockAdmin(address,uint256,uint8)": "8a1d28f1",
			"commitSetTreasuryAddress(address,uint256,uint8)": "6f3e6f34",
			"executeTransaction(address,uint256,string,bytes,uint256)": "0825f38f",
			"farmAdditions(uint256,uint256)": "fde9b226",
			"farmAdditionsForEta(uint256)": "41065e0e",
			"farmModifications(uint256,uint256)": "5ffc71b8",
			"farmModificationsForEta(uint256)": "33c9ef9f",
			"getRoleAdmin(bytes32)": "248a9ca3",
			"grantRole(bytes32,address)": "2f2ff15d",
			"hasRole(bytes32,address)": "91d14854",
			"masterChef()": "575a86b2",
			"queueTransaction(address,uint256,string,bytes,uint256)": "3a66f901",
			"queuedFarmChangeEtas()": "74d510f7",
			"renounceRole(bytes32,address)": "36568abe",
			"revokeRole(bytes32,address)": "d547741f",
			"stageFarmAdditions((address,uint256,address)[],uint256)": "3b8505a3",
			"stageFarmModifications((uint256,uint256,address,bool)[],uint256)": "c8cc3cd8",
			"supportsInterface(bytes4)": "01ffc9a7",
			"timelock()": "d33219b4",
			"usedFarmChangeEtas(uint256)": "cae5984b"
		}
	},
	"abi": [
		{
			"inputs": [
				{
					"internalType": "contract Timelock",
					"name": "_timelock",
					"type": "address"
				},
				{
					"internalType": "address",
					"name": "_masterChef",
					"type": "address"
				},
				{
					"internalType": "address",
					"name": "admin",
					"type": "address"
				},
				{
					"internalType": "address",
					"name": "stagingAdmin",
					"type": "address"
				}
			],
			"stateMutability": "nonpayable",
			"type": "constructor"
		},
		{
			"anonymous": false,
			"inputs": [
				{
					"indexed": true,
					"internalType": "bytes32",
					"name": "role",
					"type": "bytes32"
				},
				{
					"indexed": true,
					"internalType": "bytes32",
					"name": "previousAdminRole",
					"type": "bytes32"
				},
				{
					"indexed": true,
					"internalType": "bytes32",
					"name": "newAdminRole",
					"type": "bytes32"
				}
			],
			"name": "RoleAdminChanged",
			"type": "event"
		},
		{
			"anonymous": false,
			"inputs": [
				{
					"indexed": true,
					"internalType": "bytes32",
					"name": "role",
					"type": "bytes32"
				},
				{
					"indexed": true,
					"internalType": "address",
					"name": "account",
					"type": "address"
				},
				{
					"indexed": true,
					"internalType": "address",
					"name": "sender",
					"type": "address"
				}
			],
			"name": "RoleGranted",
			"type": "event"
		},
		{
			"anonymous": false,
			"inputs": [
				{
					"indexed": true,
					"internalType": "bytes32",
					"name": "role",
					"type": "bytes32"
				},
				{
					"indexed": true,
					"internalType": "address",
					"name": "account",
					"type": "address"
				},
				{
					"indexed": true,
					"internalType": "address",
					"name": "sender",
					"type": "address"
				}
			],
			"name": "RoleRevoked",
			"type": "event"
		},
		{
			"inputs": [],
			"name": "COMMIT_ROLE",
			"outputs": [
				{
					"internalType": "bytes32",
					"name": "",
					"type": "bytes32"
				}
			],
			"stateMutability": "view",
			"type": "function"
		},
		{
			"inputs": [],
			"name": "DEFAULT_ADMIN_ROLE",
			"outputs": [
				{
					"internalType": "bytes32",
					"name": "",
					"type": "bytes32"
				}
			],
			"stateMutability": "view",
			"type": "function"
		},
		{
			"inputs": [],
			"name": "STAGE_ROLE",
			"outputs": [
				{
					"internalType": "bytes32",
					"name": "",
					"type": "bytes32"
				}
			],
			"stateMutability": "view",
			"type": "function"
		},
		{
			"inputs": [],
			"name": "acceptTimelockAdmin",
			"outputs": [],
			"stateMutability": "nonpayable",
			"type": "function"
		},
		{
			"inputs": [
				{
					"internalType": "address",
					"name": "target",
					"type": "address"
				},
				{
					"internalType": "uint256",
					"name": "value",
					"type": "uint256"
				},
				{
					"internalType": "string",
					"name": "signature",
					"type": "string"
				},
				{
					"internalType": "bytes",
					"name": "data",
					"type": "bytes"
				},
				{
					"internalType": "uint256",
					"name": "eta",
					"type": "uint256"
				}
			],
			"name": "cancelTransaction",
			"outputs": [],
			"stateMutability": "nonpayable",
			"type": "function"
		},
		{
			"inputs": [
				{
					"internalType": "uint256",
					"name": "beetsPerBlock",
					"type": "uint256"
				},
				{
					"internalType": "uint256",
					"name": "eta",
					"type": "uint256"
				},
				{
					"internalType": "enum MasterChefOperator.TransactionType",
					"name": "txType",
					"type": "uint8"
				}
			],
			"name": "commitEmissionChange",
			"outputs": [],
			"stateMutability": "nonpayable",
			"type": "function"
		},
		{
			"inputs": [
				{
					"internalType": "uint256",
					"name": "eta",
					"type": "uint256"
				},
				{
					"internalType": "enum MasterChefOperator.TransactionType",
					"name": "txType",
					"type": "uint8"
				}
			],
			"name": "commitFarmChanges",
			"outputs": [],
			"stateMutability": "nonpayable",
			"type": "function"
		},
		{
			"inputs": [
				{
					"internalType": "address",
					"name": "admin",
					"type": "address"
				},
				{
					"internalType": "uint256",
					"name": "eta",
					"type": "uint256"
				},
				{
					"internalType": "enum MasterChefOperator.TransactionType",
					"name": "txType",
					"type": "uint8"
				}
			],
			"name": "commitSetPendingTimelockAdmin",
			"outputs": [],
			"stateMutability": "nonpayable",
			"type": "function"
		},
		{
			"inputs": [
				{
					"internalType": "address",
					"name": "treasury",
					"type": "address"
				},
				{
					"internalType": "uint256",
					"name": "eta",
					"type": "uint256"
				},
				{
					"internalType": "enum MasterChefOperator.TransactionType",
					"name": "txType",
					"type": "uint8"
				}
			],
			"name": "commitSetTreasuryAddress",
			"outputs": [],
			"stateMutability": "nonpayable",
			"type": "function"
		},
		{
			"inputs": [
				{
					"internalType": "address",
					"name": "target",
					"type": "address"
				},
				{
					"internalType": "uint256",
					"name": "value",
					"type": "uint256"
				},
				{
					"internalType": "string",
					"name": "signature",
					"type": "string"
				},
				{
					"internalType": "bytes",
					"name": "data",
					"type": "bytes"
				},
				{
					"internalType": "uint256",
					"name": "eta",
					"type": "uint256"
				}
			],
			"name": "executeTransaction",
			"outputs": [
				{
					"internalType": "bytes",
					"name": "",
					"type": "bytes"
				}
			],
			"stateMutability": "payable",
			"type": "function"
		},
		{
			"inputs": [
				{
					"internalType": "uint256",
					"name": "",
					"type": "uint256"
				},
				{
					"internalType": "uint256",
					"name": "",
					"type": "uint256"
				}
			],
			"name": "farmAdditions",
			"outputs": [
				{
					"internalType": "contract IERC20",
					"name": "lpToken",
					"type": "address"
				},
				{
					"internalType": "uint256",
					"name": "allocationPoints",
					"type": "uint256"
				},
				{
					"internalType": "contract IRewarder",
					"name": "rewarder",
					"type": "address"
				}
			],
			"stateMutability": "view",
			"type": "function"
		},
		{
			"inputs": [
				{
					"internalType": "uint256",
					"name": "eta",
					"type": "uint256"
				}
			],
			"name": "farmAdditionsForEta",
			"outputs": [
				{
					"components": [
						{
							"internalType": "contract IERC20",
							"name": "lpToken",
							"type": "address"
						},
						{
							"internalType": "uint256",
							"name": "allocationPoints",
							"type": "uint256"
						},
						{
							"internalType": "contract IRewarder",
							"name": "rewarder",
							"type": "address"
						}
					],
					"internalType": "struct MasterChefOperator.FarmAddition[]",
					"name": "",
					"type": "tuple[]"
				}
			],
			"stateMutability": "view",
			"type": "function"
		},
		{
			"inputs": [
				{
					"internalType": "uint256",
					"name": "",
					"type": "uint256"
				},
				{
					"internalType": "uint256",
					"name": "",
					"type": "uint256"
				}
			],
			"name": "farmModifications",
			"outputs": [
				{
					"internalType": "uint256",
					"name": "pid",
					"type": "uint256"
				},
				{
					"internalType": "uint256",
					"name": "allocationPoints",
					"type": "uint256"
				},
				{
					"internalType": "contract IRewarder",
					"name": "rewarder",
					"type": "address"
				},
				{
					"internalType": "bool",
					"name": "overwriteRewarder",
					"type": "bool"
				}
			],
			"stateMutability": "view",
			"type": "function"
		},
		{
			"inputs": [
				{
					"internalType": "uint256",
					"name": "eta",
					"type": "uint256"
				}
			],
			"name": "farmModificationsForEta",
			"outputs": [
				{
					"components": [
						{
							"internalType": "uint256",
							"name": "pid",
							"type": "uint256"
						},
						{
							"internalType": "uint256",
							"name": "allocationPoints",
							"type": "uint256"
						},
						{
							"internalType": "contract IRewarder",
							"name": "rewarder",
							"type": "address"
						},
						{
							"internalType": "bool",
							"name": "overwriteRewarder",
							"type": "bool"
						}
					],
					"internalType": "struct MasterChefOperator.FarmModification[]",
					"name": "",
					"type": "tuple[]"
				}
			],
			"stateMutability": "view",
			"type": "function"
		},
		{
			"inputs": [
				{
					"internalType": "bytes32",
					"name": "role",
					"type": "bytes32"
				}
			],
			"name": "getRoleAdmin",
			"outputs": [
				{
					"internalType": "bytes32",
					"name": "",
					"type": "bytes32"
				}
			],
			"stateMutability": "view",
			"type": "function"
		},
		{
			"inputs": [
				{
					"internalType": "bytes32",
					"name": "role",
					"type": "bytes32"
				},
				{
					"internalType": "address",
					"name": "account",
					"type": "address"
				}
			],
			"name": "grantRole",
			"outputs": [],
			"stateMutability": "nonpayable",
			"type": "function"
		},
		{
			"inputs": [
				{
					"internalType": "bytes32",
					"name": "role",
					"type": "bytes32"
				},
				{
					"internalType": "address",
					"name": "account",
					"type": "address"
				}
			],
			"name": "hasRole",
			"outputs": [
				{
					"internalType": "bool",
					"name": "",
					"type": "bool"
				}
			],
			"stateMutability": "view",
			"type": "function"
		},
		{
			"inputs": [],
			"name": "masterChef",
			"outputs": [
				{
					"internalType": "address",
					"name": "",
					"type": "address"
				}
			],
			"stateMutability": "view",
			"type": "function"
		},
		{
			"inputs": [
				{
					"internalType": "address",
					"name": "target",
					"type": "address"
				},
				{
					"internalType": "uint256",
					"name": "value",
					"type": "uint256"
				},
				{
					"internalType": "string",
					"name": "signature",
					"type": "string"
				},
				{
					"internalType": "bytes",
					"name": "data",
					"type": "bytes"
				},
				{
					"internalType": "uint256",
					"name": "eta",
					"type": "uint256"
				}
			],
			"name": "queueTransaction",
			"outputs": [
				{
					"internalType": "bytes32",
					"name": "",
					"type": "bytes32"
				}
			],
			"stateMutability": "nonpayable",
			"type": "function"
		},
		{
			"inputs": [],
			"name": "queuedFarmChangeEtas",
			"outputs": [
				{
					"internalType": "uint256[]",
					"name": "",
					"type": "uint256[]"
				}
			],
			"stateMutability": "view",
			"type": "function"
		},
		{
			"inputs": [
				{
					"internalType": "bytes32",
					"name": "role",
					"type": "bytes32"
				},
				{
					"internalType": "address",
					"name": "account",
					"type": "address"
				}
			],
			"name": "renounceRole",
			"outputs": [],
			"stateMutability": "nonpayable",
			"type": "function"
		},
		{
			"inputs": [
				{
					"internalType": "bytes32",
					"name": "role",
					"type": "bytes32"
				},
				{
					"internalType": "address",
					"name": "account",
					"type": "address"
				}
			],
			"name": "revokeRole",
			"outputs": [],
			"stateMutability": "nonpayable",
			"type": "function"
		},
		{
			"inputs": [
				{
					"components": [
						{
							"internalType": "contract IERC20",
							"name": "lpToken",
							"type": "address"
						},
						{
							"internalType": "uint256",
							"name": "allocationPoints",
							"type": "uint256"
						},
						{
							"internalType": "contract IRewarder",
							"name": "rewarder",
							"type": "address"
						}
					],
					"internalType": "struct MasterChefOperator.FarmAddition[]",
					"name": "farmsToAdd",
					"type": "tuple[]"
				},
				{
					"internalType": "uint256",
					"name": "eta",
					"type": "uint256"
				}
			],
			"name": "stageFarmAdditions",
			"outputs": [],
			"stateMutability": "nonpayable",
			"type": "function"
		},
		{
			"inputs": [
				{
					"components": [
						{
							"internalType": "uint256",
							"name": "pid",
							"type": "uint256"
						},
						{
							"internalType": "uint256",
							"name": "allocationPoints",
							"type": "uint256"
						},
						{
							"internalType": "contract IRewarder",
							"name": "rewarder",
							"type": "address"
						},
						{
							"internalType": "bool",
							"name": "overwriteRewarder",
							"type": "bool"
						}
					],
					"internalType": "struct MasterChefOperator.FarmModification[]",
					"name": "farmsToEdit",
					"type": "tuple[]"
				},
				{
					"internalType": "uint256",
					"name": "eta",
					"type": "uint256"
				}
			],
			"name": "stageFarmModifications",
			"outputs": [],
			"stateMutability": "nonpayable",
			"type": "function"
		},
		{
			"inputs": [
				{
					"internalType": "bytes4",
					"name": "interfaceId",
					"type": "bytes4"
				}
			],
			"name": "supportsInterface",
			"outputs": [
				{
					"internalType": "bool",
					"name": "",
					"type": "bool"
				}
			],
			"stateMutability": "view",
			"type": "function"
		},
		{
			"inputs": [],
			"name": "timelock",
			"outputs": [
				{
					"internalType": "contract Timelock",
					"name": "",
					"type": "address"
				}
			],
			"stateMutability": "view",
			"type": "function"
		},
		{
			"inputs": [
				{
					"internalType": "uint256",
					"name": "",
					"type": "uint256"
				}
			],
			"name": "usedFarmChangeEtas",
			"outputs": [
				{
					"internalType": "bool",
					"name": "",
					"type": "bool"
				}
			],
			"stateMutability": "view",
			"type": "function"
		}
	]
}