{
	"data": {
		"bytecode": {
			"linkReferences": {},
			"object": "6102a06040527f6e71edae12b1b97f4d1f60370fef10105fa2faae0126114a169c64845d6126c9610120523480156200003757600080fd5b5060405162006144380380620061448339810160408190526200005a9162000830565b610100810151610120820151602080840151604080860151815180830190925260018252603160f81b828501526101608701513360805260601b6001600160601b03191660a05282518796959491928492839283918691620000c39160039190850190620006b9565b508051620000d9906004906020840190620006b9565b50506005805460ff1916601217905550815160209283012060c052805191012060e05250507f8b73c3c69bb8fe3d512ecc4cf759cc79239f7b179b0ffacaa9a75d522b39400f6101005250620001386276a70083111561019462000424565b6200014c62278d0082111561019562000424565b429091016101408181529101610160528101516200016a9062000439565b60e08101516200017a9062000495565b80516040516309b2760f60e01b81526000916001600160a01b0316906309b2760f90620001ad9060029060040162000a2f565b602060405180830381600087803b158015620001c857600080fd5b505af1158015620001dd573d6000803e3d6000fd5b505050506040513d601f19601f8201168201806040525081019062000203919062000817565b60408051600280825260608201835292935060009290916020830190803683370190505090508260600151816000815181106200023c57fe5b60200260200101906001600160a01b031690816001600160a01b0316815250508260800151816001815181106200026f57fe5b6001600160a01b0392831660209182029290920101528351166366a9c7d283836002604051908082528060200260200182016040528015620002bb578160200160208202803683370190505b506040518463ffffffff1660e01b8152600401620002dc9392919062000995565b600060405180830381600087803b158015620002f757600080fd5b505af11580156200030c573d6000803e3d6000fd5b505084516001600160601b0319606091821b8116610180526101a08690528187018051831b82166101c052608088015190921b166101e05251620003539250905062000513565b610260526080830151620003679062000513565b6102805260a08301516200038890662386f26fc10000111561012e62000424565b620003aa662386f26fc100008460c00151101561012e6200042460201b60201c565b6000620003ce8460c001518560a00151620005b760201b620016d51790919060201c565b9050620003e8670de0b6b3a7640000821461013462000424565b60a0840180516102005260c0850180516102205251905110156200040e57600162000411565b60005b60ff16610240525062000a719350505050565b8162000435576200043581620005d2565b5050565b62000455816009546200062560201b620016e71790919060201c565b6009556040517f3e350b41e86a8e10f804ade6d35340d620be35569cc75ac943e8bb14ab80ead1906200048a9083906200098a565b60405180910390a150565b620004aa64e8d4a5100082101560cb62000424565b620004c267016345785d8a000082111560ca62000424565b620004de816009546200064460201b620016f51790919060201c565b6009556040517fa9ba3ffe0b6c366b81232caab38605a0699ad5398d6cce76f91ee809e322dafc906200048a90839062000a44565b600080826001600160a01b031663313ce5676040518163ffffffff1660e01b815260040160206040518083038186803b1580156200055057600080fd5b505afa15801562000565573d6000803e3d6000fd5b505050506040513d601f19601f820116820180604052508101906200058b919062000967565b60ff1690506000620005aa6012836200066360201b620017031760201c565b600a0a925050505b919050565b6000828201620005cb848210158362000424565b9392505050565b62461bcd60e51b6000908152602060045260076024526642414c23000030600a808404818106603090810160081b95839006959095019082900491820690940160101b939093010160c81b604452606490fd5b6000620005cb826055856200067b60201b62001719179092919060201c565b6000620005cb82605685620006a460201b62001740179092919060201c565b60006200067583831115600162000424565b50900390565b60006001821b19841682846200069357600062000696565b60015b60ff16901b17949350505050565b6001600160401b03811b1992909216911b1790565b828054600181600116156101000203166002900490600052602060002090601f016020900481019282620006f157600085556200073c565b82601f106200070c57805160ff19168380011785556200073c565b828001600101855582156200073c579182015b828111156200073c5782518255916020019190600101906200071f565b506200074a9291506200074e565b5090565b5b808211156200074a57600081556001016200074f565b80516001600160a01b0381168114620005b257600080fd5b80518015158114620005b257600080fd5b600082601f8301126200079f578081fd5b81516001600160401b03811115620007b357fe5b6020620007c9601f8301601f1916820162000a4d565b8281528582848701011115620007dd578384fd5b835b83811015620007fc578581018301518282018401528201620007df565b838111156200080d57848385840101525b5095945050505050565b60006020828403121562000829578081fd5b5051919050565b60006020828403121562000842578081fd5b81516001600160401b038082111562000859578283fd5b818401915061018080838703121562000870578384fd5b6200087b8162000a4d565b9050620008888362000765565b81526020830151828111156200089c578485fd5b620008aa878286016200078e565b602083015250604083015182811115620008c2578485fd5b620008d0878286016200078e565b604083015250620008e46060840162000765565b6060820152620008f76080840162000765565b608082015260a0838101519082015260c0808401519082015260e08084015190820152610100808401519082015261012080840151908201526101409150620009428284016200077d565b8282015261016091506200095882840162000765565b91810191909152949350505050565b60006020828403121562000979578081fd5b815160ff81168114620005cb578182fd5b901515815260200190565b60006060820185835260206060818501528186518084526080860191508288019350845b81811015620009e05784516001600160a01b031683529383019391830191600101620009b9565b505084810360408601528551808252908201925081860190845b8181101562000a215782516001600160a01b031685529383019391830191600101620009fa565b509298975050505050505050565b602081016003831062000a3e57fe5b91905290565b90815260200190565b6040518181016001600160401b038111828210171562000a6957fe5b604052919050565b60805160a05160601c60c05160e051610100516101205161014051610160516101805160601c6101a0516101c05160601c6101e05160601c61020051610220516102405161026051610280516155fb62000b496000398061224f52508061227652508061307152806130a552806130e15250806122a3528061233f5250806122ca528061231d528061236d52505080610f12525080610a80525080610e605250806118ac525080611888525080611395525080611bbf525080611c01525080611be0525080610e3c525080610dc752506155fb6000f3fe608060405234801561001057600080fd5b506004361061035d5760003560e01c80637ecebe00116101d3578063be7a6d1e11610104578063d5125db6116100a2578063e5fe5f3c1161007c578063e5fe5f3c14610735578063f89f27ed14610748578063ff7b6f1e14610750578063ffd088eb146107635761035d565b8063d5125db6146106fc578063d5c096c41461070f578063dd62ed3e146107225761035d565b8063c3748ef1116100de578063c3748ef114610696578063c519a075146106b6578063d4376804146106c9578063d505accf146106e95761035d565b8063be7a6d1e14610668578063bf3386661461067b578063c0ff1a151461068e5761035d565b80639d2c110c11610171578063aaabadc51161014b578063aaabadc514610632578063abb9d0d51461063a578063b10be7391461064d578063b48b5b40146106605761035d565b80639d2c110c146105f9578063a457c2d71461060c578063a9059cbb1461061f5761035d565b8063893d20e8116101ad578063893d20e8146105cc5780638d928af8146105e157806395d89b41146105e95780639b02cdde146105f15761035d565b80637ecebe0014610593578063851c1bb3146105a657806387ec6817146105b95761035d565b806338e9922e116102ad5780636028bfd41161024b57806368a54df21161022557806368a54df21461052c5780636b8432391461053f57806370a082311461055f57806374f3b009146105725761035d565b80636028bfd4146104dd57806360d1507c146104fe578063679aefce146105245761035d565b80633d48f8c1116102875780633d48f8c1146104955780634a6b0b15146104a857806355c67628146104c257806357aad013146104ca5761035d565b806338e9922e1461046757806338fff2d01461047a57806339509351146104825761035d565b806323b872dd1161031a578063292c914a116102f4578063292c914a1461043a5780633081bfee14610442578063313ce5671461044a5780633644e5151461045f5761035d565b806323b872dd14610401578063259efd1614610414578063264959fb146104275761035d565b806306fdde0314610362578063095ea7b31461038057806316c38b3c146103a057806318160ddd146103b55780631c0de051146103ca5780631dccd830146103e1575b600080fd5b61036a61076b565b604051610377919061548d565b60405180910390f35b61039361038e36600461497d565b610801565b604051610377919061535a565b6103b36103ae366004614d17565b610818565b005b6103bd61082c565b604051610377919061538d565b6103d2610832565b60405161037793929190615375565b6103f46103ef366004614b43565b61085b565b6040516103779190615322565b61039361040f3660046148c8565b610963565b6103b3610422366004615175565b6109d9565b6103bd610435366004614fb6565b6109f8565b6103b3610a0f565b6103b3610a43565b610452610a4d565b6040516103779190615547565b6103bd610a56565b6103b3610475366004614d4f565b610a65565b6103bd610a7e565b61039361049036600461497d565b610aa2565b6103bd6104a3366004615064565b610add565b6104b0610b12565b60405161037796959493929190615463565b6103bd610b6d565b6103bd6104d8366004614d4f565b610b7a565b6104f06104eb366004614d67565b610b85565b60405161037792919061552e565b61051161050c366004614d4f565b610bb6565b6040516103779796959493929190615433565b6103bd610bff565b6103b361053a366004614d4f565b610c24565b61055261054d366004614a73565b610c37565b604051610377919061528f565b6103bd61056d366004614874565b610ce8565b610585610580366004614d67565b610d03565b604051610377929190615335565b6103bd6105a1366004614874565b610da8565b6103bd6105b4366004614e43565b610dc3565b6104f06105c7366004614d67565b610e15565b6105d4610e3a565b604051610377919061527b565b6105d4610e5e565b61036a610e82565b6103bd610ee3565b6103bd61060736600461507f565b610ee9565b61039361061a36600461497d565b611098565b61039361062d36600461497d565b6110d6565b6105d46110e3565b6103bd610648366004614d4f565b6110ed565b6103bd61065b366004614f9a565b6110f8565b6103bd61111a565b6103bd6106763660046151a2565b611120565b6103b3610689366004614fea565b61112d565b6103bd611136565b6106a96106a4366004614d4f565b6111f1565b60405161037791906154e0565b6103bd6106c43660046151cd565b611276565b6106dc6106d7366004614cd5565b61128d565b60405161037791906152d3565b6103b36106f7366004614908565b611360565b6103b361070a366004614e09565b6114a9565b61058561071d366004614d67565b611503565b6103bd610730366004614890565b611623565b6103b3610743366004614c11565b61164e565b6103f4611697565b6106a961075e366004614e09565b6116a1565b6103bd6116ce565b60038054604080516020601f60026000196101006001881615020190951694909404938401819004810282018101909252828152606093909290918301828280156107f75780601f106107cc576101008083540402835291602001916107f7565b820191906000526020600020905b8154815290600101906020018083116107da57829003601f168201915b5050505050905090565b600061080e338484611755565b5060015b92915050565b6108206117bd565b610829816117eb565b50565b60025490565b600080600061083f611869565b15925061084a611886565b91506108546118aa565b9050909192565b606081516001600160401b038111801561087457600080fd5b5060405190808252806020026020018201604052801561089e578160200160208202803683370190505b50905060006108ae6009546118ce565b90506108b8614624565b60005b845181101561095b578481815181106108d057fe5b602002602001015191506108ee82602001516000141561013c6118db565b600061090983600001518585602001518660400151016118ed565b9050600061092084600001518686604001516118ed565b905061093a84602001518383038161093457fe5b05611a33565b86848151811061094657fe5b602090810291909101015250506001016108bb565b505050919050565b6000806109708533611623565b9050610994336001600160a01b038716148061098c5750838210155b61019e6118db565b61099f858585611a46565b336001600160a01b038616148015906109ba57506000198114155b156109cc576109cc8533858403611755565b60019150505b9392505050565b6109e281610add565b6000928352600860205260409092209190915550565b6000610a0784848442036118ed565b949350505050565b610a17611b26565b610a1f6117bd565b610a296001611b39565b6000610a3361082c565b1115610a4157610a41611b79565b565b610a416000611b39565b60055460ff1690565b6000610a60611bbb565b905090565b610a6d6117bd565b610a75611b26565b61082981611c58565b7f000000000000000000000000000000000000000000000000000000000000000090565b3360008181526001602090815260408083206001600160a01b0387168452909152812054909161080e918590610ad890866116d5565b611755565b6000610b0a826000015183602001518460400151856060015186608001518760a001518860c00151611cc1565b90505b919050565b60008060008060008060006009549050610b2b81611d21565b9650610b3681611d2d565b9550610b4181611d3a565b9450610b4c816118ce565b9350610b5781611d47565b9250610b6281611d54565b915050909192939495565b6000610a60600954611d54565b6000610b0a82611d61565b60006060610b9586516002611da1565b610baa89898989898989611dae611e68611ee6565b97509795505050505050565b6000806000806000806000610bd1610400891061013b6118db565b6000610bdc89612004565b9050610be781612016565b959f949e50929c50909a509850965090945092505050565b6000610a60610c0c61082c565b610c1e610c17611136565b6002612079565b9061209d565b600954610c3190826120ee565b60095550565b606081516001600160401b0381118015610c5057600080fd5b50604051908082528060200260200182016040528015610c7a578160200160208202803683370190505b5090506000610c8a6009546118ce565b9050610c94614646565b60005b845181101561095b57848181518110610cac57fe5b60200260200101519150610cc982600001518484602001516118ed565b848281518110610cd557fe5b6020908102919091010152600101610c97565b6001600160a01b031660009081526020819052604090205490565b60608088610d2d610d12610e5e565b6001600160a01b0316336001600160a01b03161460cd6118db565b610d42610d38610a7e565b82146101f46118db565b610d4b876120fc565b6000806000610d5f8d8d8d8d8d8d8d611dae565b925092509250610d6f8c8461215e565b610d7882611e68565b610d8181611e68565b610d89611869565b15610d9657610d96611b79565b909c909b509950505050505050505050565b6001600160a01b031660009081526006602052604090205490565b60007f000000000000000000000000000000000000000000000000000000000000000082604051602001610df8929190615238565b604051602081830303815290604052805190602001209050919050565b60006060610e2586516002611da1565b610baa898989898989896121686121e8611ee6565b7f000000000000000000000000000000000000000000000000000000000000000090565b7f000000000000000000000000000000000000000000000000000000000000000090565b60048054604080516020601f60026000196101006001881615020190951694909404938401819004810282018101909252828152606093909290918301828280156107f75780601f106107cc576101008083540402835291602001916107f7565b600a5490565b6000610ef3611b26565b8360800151610f03610d12610e5e565b610f0e610d38610a7e565b60007f00000000000000000000000000000000000000000000000000000000000000006001600160a01b031686602001516001600160a01b03161490506000610f5682612246565b90506000610f648315612246565b90506000610f718461229a565b90506000610f7f851561229a565b9050610f8b89856122ee565b9850610f9788846122ee565b9750610fc08a60a0015186610fac5789610fae565b8a5b87610fb9578b610fbb565b8a5b6122fa565b60008a516001811115610fcf57fe5b141561103d576000610fed610fe2610b6d565b60608d015190612400565b905061100f611009828d6060015161170390919063ffffffff16565b866122ee565b60608c015260006110238c8c8c8787612444565b905061102f8186612461565b985050505050505050611090565b61104b8a60600151846122ee565b60608b0152600061105f8b8b8b868661246d565b905061106b8186612480565b905061108761108061107b610b6d565b61248c565b82906124b2565b97505050505050505b509392505050565b6000806110a53385611623565b90508083106110bf576110ba33856000611755565b6110cc565b6110cc3385858403611755565b5060019392505050565b600061080e338484611a46565b6000610a606124f4565b6000610b0a82611a33565b60008061110f8361110a6009546118ce565b61256e565b90506109d281611a33565b61040090565b6000610a0784848461259d565b610c31816125c4565b600080611141610e5e565b6001600160a01b031663f94d4668611157610a7e565b6040518263ffffffff1660e01b8152600401611173919061538d565b60006040518083038186803b15801561118b57600080fd5b505afa15801561119f573d6000803e3d6000fd5b505050506040513d6000823e601f3d908101601f191682016040526111c791908101906149a8565b509150506111d4816120fc565b60006111de612651565b90506111ea81836126c0565b9250505090565b6111f961465d565b6040805160e0810190915280611210846000612732565b815260200161122084600061277d565b8152602001611230846001612732565b815260200161124084600161277d565b8152602001611250846002612732565b815260200161126084600261277d565b815260200161126e846127c1565b905292915050565b6000611284858585856127cd565b95945050505050565b606082516001600160401b03811180156112a657600080fd5b506040519080825280602002602001820160405280156112e057816020015b6112cd61469a565b8152602001906001900390816112c55790505b50905060005b83518110156113595760008061130f86848151811061130157fe5b6020026020010151866127f8565b915091506040518060400160405280611327846127c1565b8152602001611335836127c1565b81525084848151811061134457fe5b602090810291909101015250506001016112e6565b5092915050565b61136e8442111560d16118db565b6001600160a01b03871660009081526006602090815260408083205490519092916113c5917f0000000000000000000000000000000000000000000000000000000000000000918c918c918c9188918d91016153b5565b60405160208183030381529060405280519060200120905060006113e8826128ab565b905060006001828888886040516000815260200160405260405161140f9493929190615415565b6020604051602081039080840390855afa158015611431573d6000803e3d6000fd5b5050604051601f190151915061147390506001600160a01b0382161580159061146b57508b6001600160a01b0316826001600160a01b0316145b6101f86118db565b6001600160a01b038b16600090815260066020526040902060018501905561149c8b8b8b611755565b5050505050505050505050565b4285900360006114bc82878787876128c7565b90507fa7f3e984c65d79d0fa58244dddb6522f661c9dea23fe4940801cbfe08810750686821415826040516114f2929190615365565b60405180910390a150505050505050565b60608088611512610d12610e5e565b61151d610d38610a7e565b611525611b26565b600061152f61082c565b61159f5761153f8b8b8b8861291e565b94509050611554620f424082101560cc6118db565b6115626000620f42406129a7565b61157189620f424083036129a7565b61157a846121e8565b604080516002808252606082018352909160208301908036833701905050925061160d565b6115a8886120fc565b6115db87896000815181106115b957fe5b60200260200101518a6001815181106115ce57fe5b60200260200101516122fa565b6115ea8b8b8b8b8b8b8b612168565b909550935090506115fb89826129a7565b611604846121e8565b61160d83611e68565b611615611b79565b505097509795505050505050565b6001600160a01b03918216600090815260016020908152604080832093909416825291909152205490565b60005b82518110156116925761168a83828151811061166957fe5b602002602001015183838151811061167d57fe5b60200260200101516109d9565b600101611651565b505050565b6060610a60612651565b6116a961465d565b60006116b887878787876129b1565b90506116c3816111f1565b979650505050505050565b6201de2090565b60008282016109d284821015836118db565b60006109d283836055611719565b60006109d283836056611740565b60006117138383111560016118db565b50900390565b60006001821b198416828461172f576000611732565b60015b60ff16901b17949350505050565b6001600160401b03811b1992909216911b1790565b6001600160a01b0380841660008181526001602090815260408083209487168084529490915290819020849055517f8c5be1e5ebec7d5bd14f71427d1e84f3dd0314c0f7b2291e5b200ac8c7c3b925906117b090859061538d565b60405180910390a3505050565b60006117d46000356001600160e01b031916610dc3565b90506108296117e38233612a11565b6101916118db565b801561180b576118066117fc611886565b42106101936118db565b611820565b6118206118166118aa565b42106101a96118db565b6007805460ff19168215151790556040517f9e3a5e37224532dea67b89face185703738a228a6e8a23dee546960180d3be649061185e90839061535a565b60405180910390a150565b60006118736118aa565b421180610a6057505060075460ff161590565b7f000000000000000000000000000000000000000000000000000000000000000090565b7f000000000000000000000000000000000000000000000000000000000000000090565b6000610b0a82604b612afa565b816118e9576118e981612b02565b5050565b60006118fe824210156101386118db565b42829003600061190d85612004565b9050600061191a826127c1565b905061192b600082116101396118db565b8281116119575780830380611940848a612732565b0261194b848a61277d565b019450505050506109d2565b600061196287612b55565b9050600061196f82612004565b9050600061197c826127c1565b905061198d600082116101396118db565b61199c8682111561013a6118db565b50506000806119ab86846127f8565b9150915060006119ba836127c1565b6119c3836127c1565b0390508015611a1b5760006119d8848d61277d565b6119e2848e61277d565b03905060006119f0856127c1565b8903905082818302816119ff57fe5b05611a0a868f61277d565b0199505050505050505050506109d2565b611a25838c61277d565b9750505050505050506109d2565b6000610b0a655af3107a40008302612b62565b611a5d6001600160a01b03841615156101986118db565b611a746001600160a01b03831615156101996118db565b611a7f838383611692565b6001600160a01b038316600090815260208190526040902054611aa590826101a0612f3f565b6001600160a01b038085166000908152602081905260408082209390935590841681522054611ad490826116d5565b6001600160a01b0380841660008181526020819052604090819020939093559151908516907fddf252ad1be2c89b69c2b068fc378daa952ba7f163c4a11628f55a4df523b3ef906117b090859061538d565b610a41611b31611869565b6101926118db565b600954611b4690826116e7565b6009556040517f3e350b41e86a8e10f804ade6d35340d620be35569cc75ac943e8bb14ab80ead19061185e90839061535a565b600954611b8581611d47565b1561082957611b9f611b98600a54611d61565b8290612f55565b9050610c31611bb4611baf61082c565b611d61565b8290612f62565b60007f00000000000000000000000000000000000000000000000000000000000000007f00000000000000000000000000000000000000000000000000000000000000007f0000000000000000000000000000000000000000000000000000000000000000611c28612f70565b30604051602001611c3d9594939291906153e9565b60405160208183030381529060405280519060200120905090565b611c6b64e8d4a5100082101560cb6118db565b611c8167016345785d8a000082111560ca6118db565b600954611c8e90826116f5565b6009556040517fa9ba3ffe0b6c366b81232caab38605a0699ad5398d6cce76f91ee809e322dafc9061185e90839061538d565b6000611ccd8282612f74565b611cd884601f612f78565b611ce3866054612f89565b611cee88606a612f78565b611cf98a609f612f89565b611d048c60b5612f78565b611d0f8e60ea612f89565b17171717171798975050505050505050565b6000610b0a8282612f96565b6000610b0a826016612f96565b6000610b0a82602c612fbd565b6000610b0a826055612fc7565b6000610b0a826056612fd1565b600080611d6d83612fde565b90506000808213611d8657652d79883d20008203611d90565b652d79883d200082015b655af3107a40009005949350505050565b6118e981831460676118db565b60006060806000611dbd612651565b9050611dc7611869565b15611e0f57611ddd87896000815181106115b957fe5b6000611de9828a6126c0565b9050611dfa8983600a54848b61303a565b9250611e09898461170361311f565b50611e30565b60408051600280825260608201835290916020830190803683370190505091505b611e3b8882876131b1565b9094509250611e4d888461170361311f565b611e5781896126c0565b600a55509750975097945050505050565b611e8f81600081518110611e7857fe5b6020026020010151611e8a6001612246565b61321e565b81600081518110611e9c57fe5b602002602001018181525050611eca81600181518110611eb857fe5b6020026020010151611e8a6000612246565b81600181518110611ed757fe5b60200260200101818152505050565b333014611fa4576000306001600160a01b0316600036604051611f0a929190615250565b6000604051808303816000865af19150503d8060008114611f47576040519150601f19603f3d011682016040523d82523d6000602084013e611f4c565b606091505b505090508060008114611f5b57fe5b60046000803e6000516001600160e01b0319166343adbafb60e01b8114611f86573d6000803e3d6000fd5b506020600460003e604060205260243d03602460403e601c3d016000f35b611fad866120fc565b600080611fc38b8b8b8b8b8b8b8b63ffffffff16565b5091509150611fd5818463ffffffff16565b8051601f1982018390526343adbafb603f1983015260200260231982016044820181fd5b505050505050505050565b60009081526008602052604090205490565b600080600080600080600061202a8861323e565b96506120358861324b565b955061204088613258565b945061204b88613265565b935061205688613272565b92506120618861327f565b915061206c886127c1565b9050919395979092949650565b60008282026109d284158061209657508385838161209357fe5b04145b60036118db565b60006120ac82151560046118db565b826120b957506000610812565b670de0b6b3a7640000838102906120dc908583816120d357fe5b041460056118db565b8281816120e557fe5b04915050610812565b60006109d28383604b61328c565b6121238160008151811061210c57fe5b602002602001015161211e6001612246565b612079565b8160008151811061213057fe5b602002602001018181525050611eca8160018151811061214c57fe5b602002602001015161211e6000612246565b6118e9828261329c565b60006060806000612177612651565b90506000612185828a6126c0565b905060006121988a84600a54858c61303a565b90506121a78a8261170361311f565b6000806121b58c868b613358565b915091506121c68c826116d561311f565b6121d0858d6126c0565b600a55909e909d50909b509950505050505050505050565b61220f816000815181106121f857fe5b602002602001015161220a6001612246565b6133b2565b8160008151811061221c57fe5b602002602001018181525050611eca8160018151811061223857fe5b602002602001015161220a60005b600081612273577f0000000000000000000000000000000000000000000000000000000000000000610b0a565b507f0000000000000000000000000000000000000000000000000000000000000000919050565b6000816122c7577f0000000000000000000000000000000000000000000000000000000000000000610b0a565b507f0000000000000000000000000000000000000000000000000000000000000000919050565b60006109d28383612079565b60095461230681611d47565b801561231157508343115b156123fa5760006123647f0000000000000000000000000000000000000000000000000000000000000000857f0000000000000000000000000000000000000000000000000000000000000000866127cd565b9050600061239b7f00000000000000000000000000000000000000000000000000000000000000008661239686611d2d565b61259d565b905060006123a8846118ce565b905060006123b585611d3a565b905060006123ce828487876123c98b611d21565b6128c7565b9050808314611ff9576123e186826120ee565b95506123ed86426133e5565b6009819055955050505050505b50505050565b600082820261241a84158061209657508385838161209357fe5b80612429576000915050610812565b670de0b6b3a764000060001982015b04600101915050610812565b6000612457858486858a606001516133f3565b9695505050505050565b60006109d2838361321e565b6000612457858486858a60600151613460565b60006109d283836133b2565b6000670de0b6b3a764000082106124a4576000610b0a565b50670de0b6b3a76400000390565b60006124c182151560046118db565b826124ce57506000610812565b670de0b6b3a7640000838102906124e8908583816120d357fe5b82600182038161243857fe5b60006124fe610e5e565b6001600160a01b031663aaabadc56040518163ffffffff1660e01b815260040160206040518083038186803b15801561253657600080fd5b505afa15801561254a573d6000803e3d6000fd5b505050506040513d601f19601f82011682018060405250810190610a609190614e6b565b60008061257a83612004565b9050612593600061258a836127c1565b116101396118db565b610a078185612732565b6000806125aa84866124b2565b905060006125b782611d61565b9390930395945050505050565b60006125dd8260a00151826116f590919063ffffffff16565b90506125f68260800151826116e790919063ffffffff16565b905061260f8260600151826120ee90919063ffffffff16565b90506126288260400151826133e590919063ffffffff16565b9050612641826020015182612f6290919063ffffffff16565b8251909150610b0a908290612f55565b60408051600280825260608083018452926000929190602083019080368337019050509050612680600161229a565b8160008151811061268d57fe5b6020026020010181815250506126a3600061229a565b816001815181106126b057fe5b6020908102919091010152905090565b670de0b6b3a764000060005b8351811015612722576127186127118583815181106126e757fe5b60200260200101518584815181106126fb57fe5b60200260200101516134d690919063ffffffff16565b8390613525565b91506001016126cc565b50610812600082116101376118db565b60008082600281111561274157fe5b1415612757576127508361323e565b9050610812565b600182600281111561276557fe5b14156127745761275083613258565b61275083613272565b60008082600281111561278c57fe5b141561279b576127508361324b565b60018260028111156127a957fe5b14156127b85761275083613265565b6127508361327f565b6000610b0a8282612fbd565b6000806127ed6127dd84866124b2565b6127e787896124b2565b906124b2565b905061245781611d61565b600080806103ff8180805b83851161286f5760028585010461281a818a613551565b935061282584612004565b9250612830836127c1565b91508982101561284557806001019550612869565b8982111561285857600181039450612869565b8283975097505050505050506128a4565b50612803565b88811061288d5761288761288284613562565b612004565b8261289a565b8161289a61288285612b55565b9650965050505050505b9250929050565b60006128b5611bbb565b82604051602001610df8929190615260565b6000806128e3858585426128da8b612004565b939291906129b1565b90506078428890031015806128f85786612901565b61290187612b55565b600081815260086020526040902092909255509695505050505050565b60006060600061292d8461356f565b9050612948600082600281111561294057fe5b1460ce6118db565b600061295385613585565b905061296181516002611da1565b61296a816120fc565b6000612974612651565b9050600061298282846126c0565b90506000612991826002612079565b600a929092555099919850909650505050505050565b6118e9828261359b565b6000806129bd876127c1565b8303905060008187026129cf8961324b565b01905060008287026129e08a613265565b01905060008387026129f18b61327f565b019050612a0389848a858b868c611cc1565b9a9950505050505050505050565b600073ba1ba1ba1ba1ba1ba1ba1ba1ba1ba1ba1ba1ba1b612a30610e3a565b6001600160a01b031614158015612a4b5750612a4b83613629565b15612a7357612a58610e3a565b6001600160a01b0316336001600160a01b0316149050610812565b612a7b6124f4565b6001600160a01b0316639be2a8848484306040518463ffffffff1660e01b8152600401612aaa93929190615396565b60206040518083038186803b158015612ac257600080fd5b505afa158015612ad6573d6000803e3d6000fd5b505050506040513d601f19601f820116820180604052508101906127509190614d33565b1c6103ff1690565b62461bcd60e51b6000908152602060045260076024526642414c23000030600a808404818106603090810160081b95839006959095019082900491820690940160101b939093010160c81b604452606490fd5b6000610b0a826001613551565b6000612b91680238fd42c5cf03ffff198312158015612b8a575068070c1cc73b00c800008313155b60096118db565b6000821215612bc457612ba682600003612b62565b6a0c097ce7bc90715b34b9f160241b81612bbc57fe5b059050610b0d565b60006806f05b59d3b20000008312612c0457506806f05b59d3b1ffffff1990910190770195e54c5dd42177f53a27172fa9ec630262827000000000612c3a565b6803782dace9d90000008312612c3657506803782dace9d8ffffff19909101906b1425982cf597cd205cef7380612c3a565b5060015b6064929092029168056bc75e2d6310000068ad78ebc5ac620000008412612c8a5768ad78ebc5ac61ffffff199093019268056bc75e2d631000006e01855144814a7ff805980ff008400082020590505b6856bc75e2d6310000008412612cc6576856bc75e2d630ffffff199093019268056bc75e2d631000006b02df0ab5a80a22c61ab5a70082020590505b682b5e3af16b188000008412612d0057682b5e3af16b187fffff199093019268056bc75e2d63100000693f1fce3da636ea5cf85082020590505b6815af1d78b58c4000008412612d3a576815af1d78b58c3fffff199093019268056bc75e2d63100000690127fa27722cc06cc5e282020590505b680ad78ebc5ac62000008412612d7357680ad78ebc5ac61fffff199093019268056bc75e2d6310000068280e60114edb805d0382020590505b68056bc75e2d631000008412612dac5768056bc75e2d630fffff199093019268056bc75e2d63100000680ebc5fb4174612111082020590505b6802b5e3af16b18800008412612de5576802b5e3af16b187ffff199093019268056bc75e2d631000006808f00f760a4b2db55d82020590505b68015af1d78b58c400008412612e1e5768015af1d78b58c3ffff199093019268056bc75e2d631000006806f5f177578893793782020590505b68056bc75e2d631000008481019085906002908280020505918201919050600368056bc75e2d631000008783020505918201919050600468056bc75e2d631000008783020505918201919050600568056bc75e2d631000008783020505918201919050600668056bc75e2d631000008783020505918201919050600768056bc75e2d631000008783020505918201919050600868056bc75e2d631000008783020505918201919050600968056bc75e2d631000008783020505918201919050600a68056bc75e2d631000008783020505918201919050600b68056bc75e2d631000008783020505918201919050600c68056bc75e2d631000008783020505918201919050606468056bc75e2d63100000848402058502059695505050505050565b6000612f4e84841115836118db565b5050900390565b60006109d283838361365b565b60006109d28383601661365b565b4690565b1b90565b661fffffffffffff91909116901b90565b623fffff91909116901b90565b600082821c623fffff16621fffff8113612fb05780610a07565b623fffff19179392505050565b1c637fffffff1690565b1c60019081161490565b1c6001600160401b031690565b6000612fee6000831360646118db565b670c7d713b49da00008213801561300c5750670f43fc2c04ee000082125b1561302a57670de0b6b3a764000061302383613672565b81612bbc57fe5b61303382613790565b9050610b0d565b604080516002808252606080830184529260009291906020830190803683370190505090508261306b579050611284565b6130de877f00000000000000000000000000000000000000000000000000000000000000008151811061309a57fe5b6020026020010151877f0000000000000000000000000000000000000000000000000000000000000000815181106130ce57fe5b6020026020010151878787613b2f565b817f00000000000000000000000000000000000000000000000000000000000000008151811061310a57fe5b60209081029190910101529695505050505050565b6131558360008151811061312f57fe5b60200260200101518360008151811061314457fe5b60200260200101518363ffffffff16565b8360008151811061316257fe5b6020026020010181815250506131938360018151811061317e57fe5b60200260200101518360018151811061314457fe5b836001815181106131a057fe5b602002602001018181525050505050565b6000606060006131c08461356f565b905060008160028111156131d057fe5b14156131eb576131e1868686613ba7565b9250925050613216565b60018160028111156131f957fe5b1415613209576131e18685613c58565b6131e1868686613c8a565b505b935093915050565b600061322d82151560046118db565b81838161323657fe5b049392505050565b6000610b0a8260ea612f96565b6000610b0a8260b5613cf5565b6000610b0a82609f612f96565b6000610b0a82606a613cf5565b6000610b0a826054612f96565b6000610b0a82601f613cf5565b6103ff811b1992909216911b1790565b6132b36001600160a01b038316151561019b6118db565b6132bf82600083611692565b6001600160a01b0382166000908152602081905260409020546132e590826101a1612f3f565b6001600160a01b03831660009081526020819052604090205560025461330b9082613d28565b6002556040516000906001600160a01b038416907fddf252ad1be2c89b69c2b068fc378daa952ba7f163c4a11628f55a4df523b3ef9061334c90859061538d565b60405180910390a35050565b6000606060006133678461356f565b9050600181600281111561337757fe5b1415613388576131e1868686613d36565b600281600281111561339657fe5b14156133a7576131e1868686613d8c565b613214610136612b02565b60006133c182151560046118db565b826133ce57506000610812565b8160018403816133da57fe5b046001019050610812565b60006109d28383602c613e10565b600061341561340a87670429d069189e0000613525565b8311156101306118db565b600061342187846116d5565b9050600061342f88836124b2565b9050600061343d888761209d565b9050600061344b8383613e22565b9050612a036134598261248c565b8990613525565b600061348261347785670429d069189e0000613525565b8311156101316118db565b60006134986134918685611703565b86906124b2565b905060006134a685886124b2565b905060006134b48383613e22565b905060006134ca82670de0b6b3a7640000611703565b9050612a038a82612400565b6000806134e38484613e4e565b905060006134fd6134f683612710612400565b60016116d5565b90508082101561351257600092505050610812565b61351c8282611703565b92505050610812565b600082820261353f84158061209657508385838161209357fe5b670de0b6b3a764000090049392505050565b60006104008383015b069392505050565b6000610b0a826001613f4f565b600081806020019051810190610b0a9190614e87565b6060818060200190518101906109d29190614f4c565b6135a760008383611692565b6002546135b490826116d5565b6002556001600160a01b0382166000908152602081905260409020546135da90826116d5565b6001600160a01b0383166000818152602081905260408082209390935591519091907fddf252ad1be2c89b69c2b068fc378daa952ba7f163c4a11628f55a4df523b3ef9061334c90859061538d565b600061363b631c74c91760e11b610dc3565b821480610b0a57506136536350dd6ed960e01b610dc3565b909114919050565b623fffff828116821b90821b198416179392505050565b670de0b6b3a7640000026000806a0c097ce7bc90715b34b9f160241b808401906ec097ce7bc90715b34b9f0fffffffff19850102816136ad57fe5b05905060006a0c097ce7bc90715b34b9f160241b82800205905081806a0c097ce7bc90715b34b9f160241b81840205915060038205016a0c097ce7bc90715b34b9f160241b82840205915060058205016a0c097ce7bc90715b34b9f160241b82840205915060078205016a0c097ce7bc90715b34b9f160241b82840205915060098205016a0c097ce7bc90715b34b9f160241b828402059150600b8205016a0c097ce7bc90715b34b9f160241b828402059150600d8205016a0c097ce7bc90715b34b9f160241b828402059150600f826002919005919091010295945050505050565b6000670de0b6b3a76400008212156137cc576137c2826a0c097ce7bc90715b34b9f160241b816137bc57fe5b05613790565b6000039050610b0d565b60007e1600ef3172e58d2e933ec884fde10064c63b5372d805e203c0000000000000831261381d57770195e54c5dd42177f53a27172fa9ec630262827000000000830592506806f05b59d3b2000000015b73011798004d755d3c8bc8e03204cf44619e0000008312613855576b1425982cf597cd205cef7380830592506803782dace9d9000000015b606492830292026e01855144814a7ff805980ff0084000831261389d576e01855144814a7ff805980ff008400068056bc75e2d63100000840205925068ad78ebc5ac62000000015b6b02df0ab5a80a22c61ab5a70083126138d8576b02df0ab5a80a22c61ab5a70068056bc75e2d6310000084020592506856bc75e2d631000000015b693f1fce3da636ea5cf850831261390f57693f1fce3da636ea5cf85068056bc75e2d631000008402059250682b5e3af16b18800000015b690127fa27722cc06cc5e2831261394657690127fa27722cc06cc5e268056bc75e2d6310000084020592506815af1d78b58c400000015b68280e60114edb805d03831261397b5768280e60114edb805d0368056bc75e2d631000008402059250680ad78ebc5ac6200000015b680ebc5fb4174612111083126139a657680ebc5fb4174612111068056bc75e2d631000009384020592015b6808f00f760a4b2db55d83126139db576808f00f760a4b2db55d68056bc75e2d6310000084020592506802b5e3af16b1880000015b6806f5f17757889379378312613a10576806f5f177578893793768056bc75e2d63100000840205925068015af1d78b58c40000015b6806248f33704b2866038312613a44576806248f33704b28660368056bc75e2d63100000840205925067ad78ebc5ac620000015b6805c548670b9510e7ac8312613a78576805c548670b9510e7ac68056bc75e2d6310000084020592506756bc75e2d6310000015b600068056bc75e2d63100000840168056bc75e2d631000008086030281613a9b57fe5b059050600068056bc75e2d63100000828002059050818068056bc75e2d63100000818402059150600382050168056bc75e2d63100000828402059150600582050168056bc75e2d63100000828402059150600782050168056bc75e2d63100000828402059150600982050168056bc75e2d63100000828402059150600b820501600202606485820105979650505050505050565b6000838311613b4057506000611284565b6000613b4c85856124b2565b90506000613b62670de0b6b3a76400008861209d565b9050613b76826709b6e64a8ec60000613f5e565b91506000613b848383613e22565b90506000613b9b613b948361248c565b8b90613525565b9050612a038187613525565b60006060613bb3611b26565b600080613bbf85613f75565b91509150613bd16002821060646118db565b604080516002808252606082018352600092602083019080368337019050509050613c33888381518110613c0157fe5b6020026020010151888481518110613c1557fe5b602002602001015185613c2661082c565b613c2e610b6d565b613f97565b818381518110613c3f57fe5b6020908102919091010152919791965090945050505050565b600060606000613c6784614057565b90506000613c7d8683613c7861082c565b61406d565b9196919550909350505050565b60006060613c96611b26565b600080613ca28561411e565b91509150613cb282516002611da1565b613cbb826120fc565b6000613cd8888885613ccb61082c565b613cd3610b6d565b614136565b9050613ce88282111560cf6118db565b9791965090945050505050565b600082821c661fffffffffffff16660fffffffffffff8113613d175780610a07565b661fffffffffffff19179392505050565b60006109d283836001612f3f565b60006060600080613d468561411e565b91509150613d5682516002611da1565b613d5f826120fc565b6000613d7c888885613d6f61082c565b613d77610b6d565b614369565b9050613ce88282101560d06118db565b60006060600080613d9c85613f75565b91509150613dae6002821060646118db565b604080516002808252606082018352600092602083019080368337019050509050613c33888381518110613dde57fe5b6020026020010151888481518110613df257fe5b602002602001015185613e0361082c565b613e0b610b6d565b614579565b637fffffff811b1992909216911b1790565b600080613e2f8484613e4e565b90506000613e426134f683612710612400565b905061128482826116d5565b600081613e645750670de0b6b3a7640000610812565b82613e7157506000610812565b613e82600160ff1b841060066118db565b82613ea8770bce5086492111aea88f4bb1ca6bcf584181ea8059f76532841060076118db565b826000670c7d713b49da000083138015613ec95750670f43fc2c04ee000083125b15613f00576000613ed984613672565b9050670de0b6b3a764000080820784020583670de0b6b3a764000083050201915050613f0e565b81613f0a84613790565b0290505b670de0b6b3a76400009005613f46680238fd42c5cf03ffff198212801590613f3f575068070c1cc73b00c800008213155b60086118db565b61245781612b62565b6000610400828403810161355a565b600081831015613f6e57816109d2565b5090919050565b60008082806020019051810190613f8c9190614f16565b909590945092505050565b600080613fa8846127e78188611703565b9050613fc16709b6e64a8ec600008210156101326118db565b6000613fdf613fd8670de0b6b3a76400008961209d565b8390613e22565b90506000613ff6613fef8361248c565b8a90613525565b905060006140038961248c565b905060006140118383612400565b9050600061401f8483611703565b9050614047614040614039670de0b6b3a76400008b611703565b8490613525565b82906116d5565b9c9b505050505050505050505050565b6000818060200190518101906109d29190614ee9565b6060600061407b848461209d565b9050600085516001600160401b038111801561409657600080fd5b506040519080825280602002602001820160405280156140c0578160200160208202803683370190505b50905060005b8651811015614114576140f5838883815181106140df57fe5b602002602001015161352590919063ffffffff16565b82828151811061410157fe5b60209081029190910101526001016140c6565b5095945050505050565b6060600082806020019051810190613f8c9190614ea3565b60008084516001600160401b038111801561415057600080fd5b5060405190808252806020026020018201604052801561417a578160200160208202803683370190505b5090506000805b885181101561423f576141da89828151811061419957fe5b60200260200101516127e78984815181106141b057fe5b60200260200101518c85815181106141c457fe5b602002602001015161170390919063ffffffff16565b8382815181106141e657fe5b60200260200101818152505061423561422e89838151811061420457fe5b602002602001015185848151811061421857fe5b602002602001015161240090919063ffffffff16565b83906116d5565b9150600101614181565b50670de0b6b3a764000060005b895181101561434857600084828151811061426357fe5b60200260200101518411156142ca57600061428c6142808661248c565b8d85815181106140df57fe5b905060006142a0828c86815181106141c457fe5b90506142c161422e6142ba670de0b6b3a76400008c611703565b83906124b2565b925050506142e1565b8882815181106142d657fe5b602002602001015190505b600061430a8c84815181106142f257fe5b6020026020010151610c1e848f87815181106141c457fe5b905061433c6143358c858151811061431e57fe5b6020026020010151836134d690919063ffffffff16565b8590613525565b9350505060010161424c565b5061435c6143558261248c565b8790612400565b9998505050505050505050565b60008084516001600160401b038111801561438357600080fd5b506040519080825280602002602001820160405280156143ad578160200160208202803683370190505b5090506000805b88518110156144555761440d8982815181106143cc57fe5b6020026020010151610c1e8984815181106143e357fe5b60200260200101518c85815181106143f757fe5b60200260200101516116d590919063ffffffff16565b83828151811061441957fe5b60200260200101818152505061444b61422e89838151811061443757fe5b60200260200101518584815181106140df57fe5b91506001016143b4565b50670de0b6b3a764000060005b89518110156145365760008385838151811061447a57fe5b602002602001015111156144d657600061449f61428086670de0b6b3a7640000611703565b905060006144b3828c86815181106141c457fe5b90506144cd61422e612711670de0b6b3a76400008c611703565b925050506144ed565b8882815181106144e257fe5b602002602001015190505b60006145168c84815181106144fe57fe5b6020026020010151610c1e848f87815181106143f757fe5b905061452a6143358c858151811061431e57fe5b93505050600101614462565b50670de0b6b3a764000081111561456d5761456361455c82670de0b6b3a7640000611703565b8790613525565b9350505050611284565b60009350505050611284565b60008061458a846127e781886116d5565b90506145a36729a2241af62c00008211156101336118db565b60006145ba613fd8670de0b6b3a7640000896124b2565b905060006145da6145d383670de0b6b3a7640000611703565b8a90612400565b905060006145e78961248c565b905060006145f58383612400565b905060006146038483611703565b905061404761404061461d670de0b6b3a76400008b611703565b84906124b2565b6040805160608101909152806000815260200160008152602001600081525090565b604080518082019091526000808252602082015290565b6040518060e00160405280600081526020016000815260200160008152602001600081526020016000815260200160008152602001600081525090565b604051806040016040528060008152602001600081525090565b8035610b0d81615595565b600082601f8301126146cf578081fd5b813560206146e46146df83615578565b615555565b8281528181019085830183850287018401881015614700578586fd5b855b8581101561471e57813584529284019290840190600101614702565b5090979650505050505050565b600082601f83011261473b578081fd5b8151602061474b6146df83615578565b8281528181019085830183850287018401881015614767578586fd5b855b8581101561471e57815184529284019290840190600101614769565b600082601f830112614795578081fd5b81356001600160401b038111156147a857fe5b6147bb601f8201601f1916602001615555565b8181528460208386010111156147cf578283fd5b816020850160208301379081016020019190915292915050565b803560028110610b0d57600080fd5b600060e08284031215614809578081fd5b60405160e081018181106001600160401b038211171561482557fe5b8060405250809150823581526020830135602082015260408301356040820152606083013560608201526080830135608082015260a083013560a082015260c083013560c08201525092915050565b600060208284031215614885578081fd5b81356109d281615595565b600080604083850312156148a2578081fd5b82356148ad81615595565b915060208301356148bd81615595565b809150509250929050565b6000806000606084860312156148dc578081fd5b83356148e781615595565b925060208401356148f781615595565b929592945050506040919091013590565b600080600080600080600060e0888a031215614922578485fd5b873561492d81615595565b9650602088013561493d81615595565b95506040880135945060608801359350608088013560ff81168114614960578384fd5b9699959850939692959460a0840135945060c09093013592915050565b6000806040838503121561498f578182fd5b823561499a81615595565b946020939093013593505050565b6000806000606084860312156149bc578081fd5b83516001600160401b03808211156149d2578283fd5b818601915086601f8301126149e5578283fd5b815160206149f56146df83615578565b82815281810190858301838502870184018c1015614a11578788fd5b8796505b84871015614a3c578051614a2881615595565b835260019690960195918301918301614a15565b5091890151919750909350505080821115614a55578283fd5b50614a628682870161472b565b925050604084015190509250925092565b60006020808385031215614a85578182fd5b82356001600160401b0380821115614a9b578384fd5b818501915085601f830112614aae578384fd5b8135614abc6146df82615578565b818152848101908486016040808502870188018b1015614ada578889fd5b8896505b84871015614b345780828c031215614af4578889fd5b80518181018181108882111715614b0757fe5b82528235614b14816155b8565b815282890135898201528452600196909601959287019290810190614ade565b50909998505050505050505050565b60006020808385031215614b55578182fd5b82356001600160401b0380821115614b6b578384fd5b818501915085601f830112614b7e578384fd5b8135614b8c6146df82615578565b818152848101908486016060808502870188018b1015614baa578889fd5b8896505b84871015614b345780828c031215614bc4578889fd5b604080518281018181108982111715614bd957fe5b82528335614be6816155b8565b8152838a01358a82015281840135918101919091528452600196909601959287019290810190614bae565b60008060408385031215614c23578182fd5b82356001600160401b0380821115614c39578384fd5b614c45868387016146bf565b9350602091508185013581811115614c5b578384fd5b85019050601f81018613614c6d578283fd5b8035614c7b6146df82615578565b8181528381019083850160e0808502860187018b1015614c99578788fd5b8795505b84861015614cc557614caf8b836147f8565b8452600195909501949286019290810190614c9d565b5096999098509650505050505050565b60008060408385031215614ce7578182fd5b82356001600160401b03811115614cfc578283fd5b614d08858286016146bf565b95602094909401359450505050565b600060208284031215614d28578081fd5b81356109d2816155aa565b600060208284031215614d44578081fd5b81516109d2816155aa565b600060208284031215614d60578081fd5b5035919050565b600080600080600080600060e0888a031215614d81578081fd5b873596506020880135614d9381615595565b95506040880135614da381615595565b945060608801356001600160401b0380821115614dbe578283fd5b614dca8b838c016146bf565b955060808a0135945060a08a0135935060c08a0135915080821115614ded578283fd5b50614dfa8a828b01614785565b91505092959891949750929550565b600080600080600060a08688031215614e20578283fd5b505083359560208501359550604085013594606081013594506080013592509050565b600060208284031215614e54578081fd5b81356001600160e01b0319811681146109d2578182fd5b600060208284031215614e7c578081fd5b81516109d281615595565b600060208284031215614e98578081fd5b81516109d2816155b8565b600080600060608486031215614eb7578081fd5b8351614ec2816155b8565b60208501519093506001600160401b03811115614edd578182fd5b614a628682870161472b565b60008060408385031215614efb578182fd5b8251614f06816155b8565b6020939093015192949293505050565b600080600060608486031215614f2a578081fd5b8351614f35816155b8565b602085015160409095015190969495509392505050565b60008060408385031215614f5e578182fd5b8251614f69816155b8565b60208401519092506001600160401b03811115614f84578182fd5b614f908582860161472b565b9150509250929050565b600060208284031215614fab578081fd5b81356109d2816155b8565b600080600060608486031215614fca578081fd5b8335614fd5816155b8565b95602085013595506040909401359392505050565b600060c08284031215614ffb578081fd5b60405160c081018181106001600160401b038211171561501757fe5b806040525082358152602083013560208201526040830135604082015260608301356060820152608083013561504c816155aa565b608082015260a0928301359281019290925250919050565b600060e08284031215615075578081fd5b6109d283836147f8565b600080600060608486031215615093578081fd5b83356001600160401b03808211156150a9578283fd5b81860191506101208083890312156150bf578384fd5b6150c881615555565b90506150d3836147e9565b81526150e1602084016146b4565b60208201526150f2604084016146b4565b6040820152606083013560608201526080830135608082015260a083013560a082015261512160c084016146b4565b60c082015261513260e084016146b4565b60e0820152610100808401358381111561514a578586fd5b6151568a828701614785565b9183019190915250976020870135975060409096013595945050505050565b6000806101008385031215615188578182fd5b8235915061519984602085016147f8565b90509250929050565b6000806000606084860312156151b6578081fd5b505081359360208301359350604090920135919050565b600080600080608085870312156151e2578182fd5b5050823594602084013594506040840135936060013592509050565b6000815180845260208085019450808401835b8381101561522d57815187529582019590820190600101615211565b509495945050505050565b9182526001600160e01b031916602082015260240190565b6000828483379101908152919050565b61190160f01b81526002810192909252602282015260420190565b6001600160a01b0391909116815260200190565b6020808252825182820181905260009190848201906040850190845b818110156152c7578351835292840192918401916001016152ab565b50909695505050505050565b602080825282518282018190526000919060409081850190868401855b82811015615315578151805185528601518685015292840192908501906001016152f0565b5091979650505050505050565b6000602082526109d260208301846151fe565b60006040825261534860408301856151fe565b828103602084015261128481856151fe565b901515815260200190565b9115158252602082015260400190565b92151583526020830191909152604082015260600190565b90815260200190565b9283526001600160a01b03918216602084015216604082015260600190565b9586526001600160a01b0394851660208701529290931660408501526060840152608083019190915260a082015260c00190565b9485526020850193909352604084019190915260608301526001600160a01b0316608082015260a00190565b93845260ff9290921660208401526040830152606082015260800190565b968752602087019590955260408601939093526060850191909152608084015260a083015260c082015260e00190565b9586526020860194909452604085019290925260608401521515608083015260a082015260c00190565b6000602080835283518082850152825b818110156154b95785810183015185820160400152820161549d565b818111156154ca5783604083870101525b50601f01601f1916929092016040019392505050565b600060e082019050825182526020830151602083015260408301516040830152606083015160608301526080830151608083015260a083015160a083015260c083015160c083015292915050565b600083825260406020830152610a0760408301846151fe565b60ff91909116815260200190565b6040518181016001600160401b038111828210171561557057fe5b604052919050565b60006001600160401b0382111561558b57fe5b5060209081020190565b6001600160a01b038116811461082957600080fd5b801515811461082957600080fd5b6003811061082957600080fdfea2646970667358221220798eaf7cd429f6816fea1db4f07140a2689e8bd097c48c3f2e5ba1647037b4f164736f6c63430007060033",
			"opcodes": "PUSH2 0x2A0 PUSH1 0x40 MSTORE PUSH32 0x6E71EDAE12B1B97F4D1F60370FEF10105FA2FAAE0126114A169C64845D6126C9 PUSH2 0x120 MSTORE CALLVALUE DUP1 ISZERO PUSH3 0x37 JUMPI PUSH1 0x0 DUP1 REVERT JUMPDEST POP PUSH1 0x40 MLOAD PUSH3 0x6144 CODESIZE SUB DUP1 PUSH3 0x6144 DUP4 CODECOPY DUP2 ADD PUSH1 0x40 DUP2 SWAP1 MSTORE PUSH3 0x5A SWAP2 PUSH3 0x830 JUMP JUMPDEST PUSH2 0x100 DUP2 ADD MLOAD PUSH2 0x120 DUP3 ADD MLOAD PUSH1 0x20 DUP1 DUP5 ADD MLOAD PUSH1 0x40 DUP1 DUP7 ADD MLOAD DUP2 MLOAD DUP1 DUP4 ADD SWAP1 SWAP3 MSTORE PUSH1 0x1 DUP3 MSTORE PUSH1 0x31 PUSH1 0xF8 SHL DUP3 DUP6 ADD MSTORE PUSH2 0x160 DUP8 ADD MLOAD CALLER PUSH1 0x80 MSTORE PUSH1 0x60 SHL PUSH1 0x1 PUSH1 0x1 PUSH1 0x60 SHL SUB NOT AND PUSH1 0xA0 MSTORE DUP3 MLOAD DUP8 SWAP7 SWAP6 SWAP5 SWAP2 SWAP3 DUP5 SWAP3 DUP4 SWAP3 DUP4 SWAP2 DUP7 SWAP2 PUSH3 0xC3 SWAP2 PUSH1 0x3 SWAP2 SWAP1 DUP6 ADD SWAP1 PUSH3 0x6B9 JUMP JUMPDEST POP DUP1 MLOAD PUSH3 0xD9 SWAP1 PUSH1 0x4 SWAP1 PUSH1 0x20 DUP5 ADD SWAP1 PUSH3 0x6B9 JUMP JUMPDEST POP POP PUSH1 0x5 DUP1 SLOAD PUSH1 0xFF NOT AND PUSH1 0x12 OR SWAP1 SSTORE POP DUP2 MLOAD PUSH1 0x20 SWAP3 DUP4 ADD KECCAK256 PUSH1 0xC0 MSTORE DUP1 MLOAD SWAP2 ADD KECCAK256 PUSH1 0xE0 MSTORE POP POP PUSH32 0x8B73C3C69BB8FE3D512ECC4CF759CC79239F7B179B0FFACAA9A75D522B39400F PUSH2 0x100 MSTORE POP PUSH3 0x138 PUSH3 0x76A700 DUP4 GT ISZERO PUSH2 0x194 PUSH3 0x424 JUMP JUMPDEST PUSH3 0x14C PUSH3 0x278D00 DUP3 GT ISZERO PUSH2 0x195 PUSH3 0x424 JUMP JUMPDEST TIMESTAMP SWAP1 SWAP2 ADD PUSH2 0x140 DUP2 DUP2 MSTORE SWAP2 ADD PUSH2 0x160 MSTORE DUP2 ADD MLOAD PUSH3 0x16A SWAP1 PUSH3 0x439 JUMP JUMPDEST PUSH1 0xE0 DUP2 ADD MLOAD PUSH3 0x17A SWAP1 PUSH3 0x495 JUMP JUMPDEST DUP1 MLOAD PUSH1 0x40 MLOAD PUSH4 0x9B2760F PUSH1 0xE0 SHL DUP2 MSTORE PUSH1 0x0 SWAP2 PUSH1 0x1 PUSH1 0x1 PUSH1 0xA0 SHL SUB AND SWAP1 PUSH4 0x9B2760F SWAP1 PUSH3 0x1AD SWAP1 PUSH1 0x2 SWAP1 PUSH1 0x4 ADD PUSH3 0xA2F JUMP JUMPDEST PUSH1 0x20 PUSH1 0x40 MLOAD DUP1 DUP4 SUB DUP2 PUSH1 0x0 DUP8 DUP1 EXTCODESIZE ISZERO DUP1 ISZERO PUSH3 0x1C8 JUMPI PUSH1 0x0 DUP1 REVERT JUMPDEST POP GAS CALL ISZERO DUP1 ISZERO PUSH3 0x1DD JUMPI RETURNDATASIZE PUSH1 0x0 DUP1 RETURNDATACOPY RETURNDATASIZE PUSH1 0x0 REVERT JUMPDEST POP POP POP POP PUSH1 0x40 MLOAD RETURNDATASIZE PUSH1 0x1F NOT PUSH1 0x1F DUP3 ADD AND DUP3 ADD DUP1 PUSH1 0x40 MSTORE POP DUP2 ADD SWAP1 PUSH3 0x203 SWAP2 SWAP1 PUSH3 0x817 JUMP JUMPDEST PUSH1 0x40 DUP1 MLOAD PUSH1 0x2 DUP1 DUP3 MSTORE PUSH1 0x60 DUP3 ADD DUP4 MSTORE SWAP3 SWAP4 POP PUSH1 0x0 SWAP3 SWAP1 SWAP2 PUSH1 0x20 DUP4 ADD SWAP1 DUP1 CALLDATASIZE DUP4 CALLDATACOPY ADD SWAP1 POP POP SWAP1 POP DUP3 PUSH1 0x60 ADD MLOAD DUP2 PUSH1 0x0 DUP2 MLOAD DUP2 LT PUSH3 0x23C JUMPI INVALID JUMPDEST PUSH1 0x20 MUL PUSH1 0x20 ADD ADD SWAP1 PUSH1 0x1 PUSH1 0x1 PUSH1 0xA0 SHL SUB AND SWAP1 DUP2 PUSH1 0x1 PUSH1 0x1 PUSH1 0xA0 SHL SUB AND DUP2 MSTORE POP POP DUP3 PUSH1 0x80 ADD MLOAD DUP2 PUSH1 0x1 DUP2 MLOAD DUP2 LT PUSH3 0x26F JUMPI INVALID JUMPDEST PUSH1 0x1 PUSH1 0x1 PUSH1 0xA0 SHL SUB SWAP3 DUP4 AND PUSH1 0x20 SWAP2 DUP3 MUL SWAP3 SWAP1 SWAP3 ADD ADD MSTORE DUP4 MLOAD AND PUSH4 0x66A9C7D2 DUP4 DUP4 PUSH1 0x2 PUSH1 0x40 MLOAD SWAP1 DUP1 DUP3 MSTORE DUP1 PUSH1 0x20 MUL PUSH1 0x20 ADD DUP3 ADD PUSH1 0x40 MSTORE DUP1 ISZERO PUSH3 0x2BB JUMPI DUP2 PUSH1 0x20 ADD PUSH1 0x20 DUP3 MUL DUP1 CALLDATASIZE DUP4 CALLDATACOPY ADD SWAP1 POP JUMPDEST POP PUSH1 0x40 MLOAD DUP5 PUSH4 0xFFFFFFFF AND PUSH1 0xE0 SHL DUP2 MSTORE PUSH1 0x4 ADD PUSH3 0x2DC SWAP4 SWAP3 SWAP2 SWAP1 PUSH3 0x995 JUMP JUMPDEST PUSH1 0x0 PUSH1 0x40 MLOAD DUP1 DUP4 SUB DUP2 PUSH1 0x0 DUP8 DUP1 EXTCODESIZE ISZERO DUP1 ISZERO PUSH3 0x2F7 JUMPI PUSH1 0x0 DUP1 REVERT JUMPDEST POP GAS CALL ISZERO DUP1 ISZERO PUSH3 0x30C JUMPI RETURNDATASIZE PUSH1 0x0 DUP1 RETURNDATACOPY RETURNDATASIZE PUSH1 0x0 REVERT JUMPDEST POP POP DUP5 MLOAD PUSH1 0x1 PUSH1 0x1 PUSH1 0x60 SHL SUB NOT PUSH1 0x60 SWAP2 DUP3 SHL DUP2 AND PUSH2 0x180 MSTORE PUSH2 0x1A0 DUP7 SWAP1 MSTORE DUP2 DUP8 ADD DUP1 MLOAD DUP4 SHL DUP3 AND PUSH2 0x1C0 MSTORE PUSH1 0x80 DUP9 ADD MLOAD SWAP1 SWAP3 SHL AND PUSH2 0x1E0 MSTORE MLOAD PUSH3 0x353 SWAP3 POP SWAP1 POP PUSH3 0x513 JUMP JUMPDEST PUSH2 0x260 MSTORE PUSH1 0x80 DUP4 ADD MLOAD PUSH3 0x367 SWAP1 PUSH3 0x513 JUMP JUMPDEST PUSH2 0x280 MSTORE PUSH1 0xA0 DUP4 ADD MLOAD PUSH3 0x388 SWAP1 PUSH7 0x2386F26FC10000 GT ISZERO PUSH2 0x12E PUSH3 0x424 JUMP JUMPDEST PUSH3 0x3AA PUSH7 0x2386F26FC10000 DUP5 PUSH1 0xC0 ADD MLOAD LT ISZERO PUSH2 0x12E PUSH3 0x424 PUSH1 0x20 SHL PUSH1 0x20 SHR JUMP JUMPDEST PUSH1 0x0 PUSH3 0x3CE DUP5 PUSH1 0xC0 ADD MLOAD DUP6 PUSH1 0xA0 ADD MLOAD PUSH3 0x5B7 PUSH1 0x20 SHL PUSH3 0x16D5 OR SWAP1 SWAP2 SWAP1 PUSH1 0x20 SHR JUMP JUMPDEST SWAP1 POP PUSH3 0x3E8 PUSH8 0xDE0B6B3A7640000 DUP3 EQ PUSH2 0x134 PUSH3 0x424 JUMP JUMPDEST PUSH1 0xA0 DUP5 ADD DUP1 MLOAD PUSH2 0x200 MSTORE PUSH1 0xC0 DUP6 ADD DUP1 MLOAD PUSH2 0x220 MSTORE MLOAD SWAP1 MLOAD LT ISZERO PUSH3 0x40E JUMPI PUSH1 0x1 PUSH3 0x411 JUMP JUMPDEST PUSH1 0x0 JUMPDEST PUSH1 0xFF AND PUSH2 0x240 MSTORE POP PUSH3 0xA71 SWAP4 POP POP POP POP JUMP JUMPDEST DUP2 PUSH3 0x435 JUMPI PUSH3 0x435 DUP2 PUSH3 0x5D2 JUMP JUMPDEST POP POP JUMP JUMPDEST PUSH3 0x455 DUP2 PUSH1 0x9 SLOAD PUSH3 0x625 PUSH1 0x20 SHL PUSH3 0x16E7 OR SWAP1 SWAP2 SWAP1 PUSH1 0x20 SHR JUMP JUMPDEST PUSH1 0x9 SSTORE PUSH1 0x40 MLOAD PUSH32 0x3E350B41E86A8E10F804ADE6D35340D620BE35569CC75AC943E8BB14AB80EAD1 SWAP1 PUSH3 0x48A SWAP1 DUP4 SWAP1 PUSH3 0x98A JUMP JUMPDEST PUSH1 0x40 MLOAD DUP1 SWAP2 SUB SWAP1 LOG1 POP JUMP JUMPDEST PUSH3 0x4AA PUSH5 0xE8D4A51000 DUP3 LT ISZERO PUSH1 0xCB PUSH3 0x424 JUMP JUMPDEST PUSH3 0x4C2 PUSH8 0x16345785D8A0000 DUP3 GT ISZERO PUSH1 0xCA PUSH3 0x424 JUMP JUMPDEST PUSH3 0x4DE DUP2 PUSH1 0x9 SLOAD PUSH3 0x644 PUSH1 0x20 SHL PUSH3 0x16F5 OR SWAP1 SWAP2 SWAP1 PUSH1 0x20 SHR JUMP JUMPDEST PUSH1 0x9 SSTORE PUSH1 0x40 MLOAD PUSH32 0xA9BA3FFE0B6C366B81232CAAB38605A0699AD5398D6CCE76F91EE809E322DAFC SWAP1 PUSH3 0x48A SWAP1 DUP4 SWAP1 PUSH3 0xA44 JUMP JUMPDEST PUSH1 0x0 DUP1 DUP3 PUSH1 0x1 PUSH1 0x1 PUSH1 0xA0 SHL SUB AND PUSH4 0x313CE567 PUSH1 0x40 MLOAD DUP2 PUSH4 0xFFFFFFFF AND PUSH1 0xE0 SHL DUP2 MSTORE PUSH1 0x4 ADD PUSH1 0x20 PUSH1 0x40 MLOAD DUP1 DUP4 SUB DUP2 DUP7 DUP1 EXTCODESIZE ISZERO DUP1 ISZERO PUSH3 0x550 JUMPI PUSH1 0x0 DUP1 REVERT JUMPDEST POP GAS STATICCALL ISZERO DUP1 ISZERO PUSH3 0x565 JUMPI RETURNDATASIZE PUSH1 0x0 DUP1 RETURNDATACOPY RETURNDATASIZE PUSH1 0x0 REVERT JUMPDEST POP POP POP POP PUSH1 0x40 MLOAD RETURNDATASIZE PUSH1 0x1F NOT PUSH1 0x1F DUP3 ADD AND DUP3 ADD DUP1 PUSH1 0x40 MSTORE POP DUP2 ADD SWAP1 PUSH3 0x58B SWAP2 SWAP1 PUSH3 0x967 JUMP JUMPDEST PUSH1 0xFF AND SWAP1 POP PUSH1 0x0 PUSH3 0x5AA PUSH1 0x12 DUP4 PUSH3 0x663 PUSH1 0x20 SHL PUSH3 0x1703 OR PUSH1 0x20 SHR JUMP JUMPDEST PUSH1 0xA EXP SWAP3 POP POP POP JUMPDEST SWAP2 SWAP1 POP JUMP JUMPDEST PUSH1 0x0 DUP3 DUP3 ADD PUSH3 0x5CB DUP5 DUP3 LT ISZERO DUP4 PUSH3 0x424 JUMP JUMPDEST SWAP4 SWAP3 POP POP POP JUMP JUMPDEST PUSH3 0x461BCD PUSH1 0xE5 SHL PUSH1 0x0 SWAP1 DUP2 MSTORE PUSH1 0x20 PUSH1 0x4 MSTORE PUSH1 0x7 PUSH1 0x24 MSTORE PUSH7 0x42414C23000030 PUSH1 0xA DUP1 DUP5 DIV DUP2 DUP2 MOD PUSH1 0x30 SWAP1 DUP2 ADD PUSH1 0x8 SHL SWAP6 DUP4 SWAP1 MOD SWAP6 SWAP1 SWAP6 ADD SWAP1 DUP3 SWAP1 DIV SWAP2 DUP3 MOD SWAP1 SWAP5 ADD PUSH1 0x10 SHL SWAP4 SWAP1 SWAP4 ADD ADD PUSH1 0xC8 SHL PUSH1 0x44 MSTORE PUSH1 0x64 SWAP1 REVERT JUMPDEST PUSH1 0x0 PUSH3 0x5CB DUP3 PUSH1 0x55 DUP6 PUSH3 0x67B PUSH1 0x20 SHL PUSH3 0x1719 OR SWAP1 SWAP3 SWAP2 SWAP1 PUSH1 0x20 SHR JUMP JUMPDEST PUSH1 0x0 PUSH3 0x5CB DUP3 PUSH1 0x56 DUP6 PUSH3 0x6A4 PUSH1 0x20 SHL PUSH3 0x1740 OR SWAP1 SWAP3 SWAP2 SWAP1 PUSH1 0x20 SHR JUMP JUMPDEST PUSH1 0x0 PUSH3 0x675 DUP4 DUP4 GT ISZERO PUSH1 0x1 PUSH3 0x424 JUMP JUMPDEST POP SWAP1 SUB SWAP1 JUMP JUMPDEST PUSH1 0x0 PUSH1 0x1 DUP3 SHL NOT DUP5 AND DUP3 DUP5 PUSH3 0x693 JUMPI PUSH1 0x0 PUSH3 0x696 JUMP JUMPDEST PUSH1 0x1 JUMPDEST PUSH1 0xFF AND SWAP1 SHL OR SWAP5 SWAP4 POP POP POP POP JUMP JUMPDEST PUSH1 0x1 PUSH1 0x1 PUSH1 0x40 SHL SUB DUP2 SHL NOT SWAP3 SWAP1 SWAP3 AND SWAP2 SHL OR SWAP1 JUMP JUMPDEST DUP3 DUP1 SLOAD PUSH1 0x1 DUP2 PUSH1 0x1 AND ISZERO PUSH2 0x100 MUL SUB AND PUSH1 0x2 SWAP1 DIV SWAP1 PUSH1 0x0 MSTORE PUSH1 0x20 PUSH1 0x0 KECCAK256 SWAP1 PUSH1 0x1F ADD PUSH1 0x20 SWAP1 DIV DUP2 ADD SWAP3 DUP3 PUSH3 0x6F1 JUMPI PUSH1 0x0 DUP6 SSTORE PUSH3 0x73C JUMP JUMPDEST DUP3 PUSH1 0x1F LT PUSH3 0x70C JUMPI DUP1 MLOAD PUSH1 0xFF NOT AND DUP4 DUP1 ADD OR DUP6 SSTORE PUSH3 0x73C JUMP JUMPDEST DUP3 DUP1 ADD PUSH1 0x1 ADD DUP6 SSTORE DUP3 ISZERO PUSH3 0x73C JUMPI SWAP2 DUP3 ADD JUMPDEST DUP3 DUP2 GT ISZERO PUSH3 0x73C JUMPI DUP3 MLOAD DUP3 SSTORE SWAP2 PUSH1 0x20 ADD SWAP2 SWAP1 PUSH1 0x1 ADD SWAP1 PUSH3 0x71F JUMP JUMPDEST POP PUSH3 0x74A SWAP3 SWAP2 POP PUSH3 0x74E JUMP JUMPDEST POP SWAP1 JUMP JUMPDEST JUMPDEST DUP1 DUP3 GT ISZERO PUSH3 0x74A JUMPI PUSH1 0x0 DUP2 SSTORE PUSH1 0x1 ADD PUSH3 0x74F JUMP JUMPDEST DUP1 MLOAD PUSH1 0x1 PUSH1 0x1 PUSH1 0xA0 SHL SUB DUP2 AND DUP2 EQ PUSH3 0x5B2 JUMPI PUSH1 0x0 DUP1 REVERT JUMPDEST DUP1 MLOAD DUP1 ISZERO ISZERO DUP2 EQ PUSH3 0x5B2 JUMPI PUSH1 0x0 DUP1 REVERT JUMPDEST PUSH1 0x0 DUP3 PUSH1 0x1F DUP4 ADD SLT PUSH3 0x79F JUMPI DUP1 DUP2 REVERT JUMPDEST DUP2 MLOAD PUSH1 0x1 PUSH1 0x1 PUSH1 0x40 SHL SUB DUP2 GT ISZERO PUSH3 0x7B3 JUMPI INVALID JUMPDEST PUSH1 0x20 PUSH3 0x7C9 PUSH1 0x1F DUP4 ADD PUSH1 0x1F NOT AND DUP3 ADD PUSH3 0xA4D JUMP JUMPDEST DUP3 DUP2 MSTORE DUP6 DUP3 DUP5 DUP8 ADD ADD GT ISZERO PUSH3 0x7DD JUMPI DUP4 DUP5 REVERT JUMPDEST DUP4 JUMPDEST DUP4 DUP2 LT ISZERO PUSH3 0x7FC JUMPI DUP6 DUP2 ADD DUP4 ADD MLOAD DUP3 DUP3 ADD DUP5 ADD MSTORE DUP3 ADD PUSH3 0x7DF JUMP JUMPDEST DUP4 DUP2 GT ISZERO PUSH3 0x80D JUMPI DUP5 DUP4 DUP6 DUP5 ADD ADD MSTORE JUMPDEST POP SWAP6 SWAP5 POP POP POP POP POP JUMP JUMPDEST PUSH1 0x0 PUSH1 0x20 DUP3 DUP5 SUB SLT ISZERO PUSH3 0x829 JUMPI DUP1 DUP2 REVERT JUMPDEST POP MLOAD SWAP2 SWAP1 POP JUMP JUMPDEST PUSH1 0x0 PUSH1 0x20 DUP3 DUP5 SUB SLT ISZERO PUSH3 0x842 JUMPI DUP1 DUP2 REVERT JUMPDEST DUP2 MLOAD PUSH1 0x1 PUSH1 0x1 PUSH1 0x40 SHL SUB DUP1 DUP3 GT ISZERO PUSH3 0x859 JUMPI DUP3 DUP4 REVERT JUMPDEST DUP2 DUP5 ADD SWAP2 POP PUSH2 0x180 DUP1 DUP4 DUP8 SUB SLT ISZERO PUSH3 0x870 JUMPI DUP4 DUP5 REVERT JUMPDEST PUSH3 0x87B DUP2 PUSH3 0xA4D JUMP JUMPDEST SWAP1 POP PUSH3 0x888 DUP4 PUSH3 0x765 JUMP JUMPDEST DUP2 MSTORE PUSH1 0x20 DUP4 ADD MLOAD DUP3 DUP2 GT ISZERO PUSH3 0x89C JUMPI DUP5 DUP6 REVERT JUMPDEST PUSH3 0x8AA DUP8 DUP3 DUP7 ADD PUSH3 0x78E JUMP JUMPDEST PUSH1 0x20 DUP4 ADD MSTORE POP PUSH1 0x40 DUP4 ADD MLOAD DUP3 DUP2 GT ISZERO PUSH3 0x8C2 JUMPI DUP5 DUP6 REVERT JUMPDEST PUSH3 0x8D0 DUP8 DUP3 DUP7 ADD PUSH3 0x78E JUMP JUMPDEST PUSH1 0x40 DUP4 ADD MSTORE POP PUSH3 0x8E4 PUSH1 0x60 DUP5 ADD PUSH3 0x765 JUMP JUMPDEST PUSH1 0x60 DUP3 ADD MSTORE PUSH3 0x8F7 PUSH1 0x80 DUP5 ADD PUSH3 0x765 JUMP JUMPDEST PUSH1 0x80 DUP3 ADD MSTORE PUSH1 0xA0 DUP4 DUP2 ADD MLOAD SWAP1 DUP3 ADD MSTORE PUSH1 0xC0 DUP1 DUP5 ADD MLOAD SWAP1 DUP3 ADD MSTORE PUSH1 0xE0 DUP1 DUP5 ADD MLOAD SWAP1 DUP3 ADD MSTORE PUSH2 0x100 DUP1 DUP5 ADD MLOAD SWAP1 DUP3 ADD MSTORE PUSH2 0x120 DUP1 DUP5 ADD MLOAD SWAP1 DUP3 ADD MSTORE PUSH2 0x140 SWAP2 POP PUSH3 0x942 DUP3 DUP5 ADD PUSH3 0x77D JUMP JUMPDEST DUP3 DUP3 ADD MSTORE PUSH2 0x160 SWAP2 POP PUSH3 0x958 DUP3 DUP5 ADD PUSH3 0x765 JUMP JUMPDEST SWAP2 DUP2 ADD SWAP2 SWAP1 SWAP2 MSTORE SWAP5 SWAP4 POP POP POP POP JUMP JUMPDEST PUSH1 0x0 PUSH1 0x20 DUP3 DUP5 SUB SLT ISZERO PUSH3 0x979 JUMPI DUP1 DUP2 REVERT JUMPDEST DUP2 MLOAD PUSH1 0xFF DUP2 AND DUP2 EQ PUSH3 0x5CB JUMPI DUP2 DUP3 REVERT JUMPDEST SWAP1 ISZERO ISZERO DUP2 MSTORE PUSH1 0x20 ADD SWAP1 JUMP JUMPDEST PUSH1 0x0 PUSH1 0x60 DUP3 ADD DUP6 DUP4 MSTORE PUSH1 0x20 PUSH1 0x60 DUP2 DUP6 ADD MSTORE DUP2 DUP7 MLOAD DUP1 DUP5 MSTORE PUSH1 0x80 DUP7 ADD SWAP2 POP DUP3 DUP9 ADD SWAP4 POP DUP5 JUMPDEST DUP2 DUP2 LT ISZERO PUSH3 0x9E0 JUMPI DUP5 MLOAD PUSH1 0x1 PUSH1 0x1 PUSH1 0xA0 SHL SUB AND DUP4 MSTORE SWAP4 DUP4 ADD SWAP4 SWAP2 DUP4 ADD SWAP2 PUSH1 0x1 ADD PUSH3 0x9B9 JUMP JUMPDEST POP POP DUP5 DUP2 SUB PUSH1 0x40 DUP7 ADD MSTORE DUP6 MLOAD DUP1 DUP3 MSTORE SWAP1 DUP3 ADD SWAP3 POP DUP2 DUP7 ADD SWAP1 DUP5 JUMPDEST DUP2 DUP2 LT ISZERO PUSH3 0xA21 JUMPI DUP3 MLOAD PUSH1 0x1 PUSH1 0x1 PUSH1 0xA0 SHL SUB AND DUP6 MSTORE SWAP4 DUP4 ADD SWAP4 SWAP2 DUP4 ADD SWAP2 PUSH1 0x1 ADD PUSH3 0x9FA JUMP JUMPDEST POP SWAP3 SWAP9 SWAP8 POP POP POP POP POP POP POP POP JUMP JUMPDEST PUSH1 0x20 DUP2 ADD PUSH1 0x3 DUP4 LT PUSH3 0xA3E JUMPI INVALID JUMPDEST SWAP2 SWAP1 MSTORE SWAP1 JUMP JUMPDEST SWAP1 DUP2 MSTORE PUSH1 0x20 ADD SWAP1 JUMP JUMPDEST PUSH1 0x40 MLOAD DUP2 DUP2 ADD PUSH1 0x1 PUSH1 0x1 PUSH1 0x40 SHL SUB DUP2 GT DUP3 DUP3 LT OR ISZERO PUSH3 0xA69 JUMPI INVALID JUMPDEST PUSH1 0x40 MSTORE SWAP2 SWAP1 POP JUMP JUMPDEST PUSH1 0x80 MLOAD PUSH1 0xA0 MLOAD PUSH1 0x60 SHR PUSH1 0xC0 MLOAD PUSH1 0xE0 MLOAD PUSH2 0x100 MLOAD PUSH2 0x120 MLOAD PUSH2 0x140 MLOAD PUSH2 0x160 MLOAD PUSH2 0x180 MLOAD PUSH1 0x60 SHR PUSH2 0x1A0 MLOAD PUSH2 0x1C0 MLOAD PUSH1 0x60 SHR PUSH2 0x1E0 MLOAD PUSH1 0x60 SHR PUSH2 0x200 MLOAD PUSH2 0x220 MLOAD PUSH2 0x240 MLOAD PUSH2 0x260 MLOAD PUSH2 0x280 MLOAD PUSH2 0x55FB PUSH3 0xB49 PUSH1 0x0 CODECOPY DUP1 PUSH2 0x224F MSTORE POP DUP1 PUSH2 0x2276 MSTORE POP DUP1 PUSH2 0x3071 MSTORE DUP1 PUSH2 0x30A5 MSTORE DUP1 PUSH2 0x30E1 MSTORE POP DUP1 PUSH2 0x22A3 MSTORE DUP1 PUSH2 0x233F MSTORE POP DUP1 PUSH2 0x22CA MSTORE DUP1 PUSH2 0x231D MSTORE DUP1 PUSH2 0x236D MSTORE POP POP DUP1 PUSH2 0xF12 MSTORE POP DUP1 PUSH2 0xA80 MSTORE POP DUP1 PUSH2 0xE60 MSTORE POP DUP1 PUSH2 0x18AC MSTORE POP DUP1 PUSH2 0x1888 MSTORE POP DUP1 PUSH2 0x1395 MSTORE POP DUP1 PUSH2 0x1BBF MSTORE POP DUP1 PUSH2 0x1C01 MSTORE POP DUP1 PUSH2 0x1BE0 MSTORE POP DUP1 PUSH2 0xE3C MSTORE POP DUP1 PUSH2 0xDC7 MSTORE POP PUSH2 0x55FB PUSH1 0x0 RETURN INVALID PUSH1 0x80 PUSH1 0x40 MSTORE CALLVALUE DUP1 ISZERO PUSH2 0x10 JUMPI PUSH1 0x0 DUP1 REVERT JUMPDEST POP PUSH1 0x4 CALLDATASIZE LT PUSH2 0x35D JUMPI PUSH1 0x0 CALLDATALOAD PUSH1 0xE0 SHR DUP1 PUSH4 0x7ECEBE00 GT PUSH2 0x1D3 JUMPI DUP1 PUSH4 0xBE7A6D1E GT PUSH2 0x104 JUMPI DUP1 PUSH4 0xD5125DB6 GT PUSH2 0xA2 JUMPI DUP1 PUSH4 0xE5FE5F3C GT PUSH2 0x7C JUMPI DUP1 PUSH4 0xE5FE5F3C EQ PUSH2 0x735 JUMPI DUP1 PUSH4 0xF89F27ED EQ PUSH2 0x748 JUMPI DUP1 PUSH4 0xFF7B6F1E EQ PUSH2 0x750 JUMPI DUP1 PUSH4 0xFFD088EB EQ PUSH2 0x763 JUMPI PUSH2 0x35D JUMP JUMPDEST DUP1 PUSH4 0xD5125DB6 EQ PUSH2 0x6FC JUMPI DUP1 PUSH4 0xD5C096C4 EQ PUSH2 0x70F JUMPI DUP1 PUSH4 0xDD62ED3E EQ PUSH2 0x722 JUMPI PUSH2 0x35D JUMP JUMPDEST DUP1 PUSH4 0xC3748EF1 GT PUSH2 0xDE JUMPI DUP1 PUSH4 0xC3748EF1 EQ PUSH2 0x696 JUMPI DUP1 PUSH4 0xC519A075 EQ PUSH2 0x6B6 JUMPI DUP1 PUSH4 0xD4376804 EQ PUSH2 0x6C9 JUMPI DUP1 PUSH4 0xD505ACCF EQ PUSH2 0x6E9 JUMPI PUSH2 0x35D JUMP JUMPDEST DUP1 PUSH4 0xBE7A6D1E EQ PUSH2 0x668 JUMPI DUP1 PUSH4 0xBF338666 EQ PUSH2 0x67B JUMPI DUP1 PUSH4 0xC0FF1A15 EQ PUSH2 0x68E JUMPI PUSH2 0x35D JUMP JUMPDEST DUP1 PUSH4 0x9D2C110C GT PUSH2 0x171 JUMPI DUP1 PUSH4 0xAAABADC5 GT PUSH2 0x14B JUMPI DUP1 PUSH4 0xAAABADC5 EQ PUSH2 0x632 JUMPI DUP1 PUSH4 0xABB9D0D5 EQ PUSH2 0x63A JUMPI DUP1 PUSH4 0xB10BE739 EQ PUSH2 0x64D JUMPI DUP1 PUSH4 0xB48B5B40 EQ PUSH2 0x660 JUMPI PUSH2 0x35D JUMP JUMPDEST DUP1 PUSH4 0x9D2C110C EQ PUSH2 0x5F9 JUMPI DUP1 PUSH4 0xA457C2D7 EQ PUSH2 0x60C JUMPI DUP1 PUSH4 0xA9059CBB EQ PUSH2 0x61F JUMPI PUSH2 0x35D JUMP JUMPDEST DUP1 PUSH4 0x893D20E8 GT PUSH2 0x1AD JUMPI DUP1 PUSH4 0x893D20E8 EQ PUSH2 0x5CC JUMPI DUP1 PUSH4 0x8D928AF8 EQ PUSH2 0x5E1 JUMPI DUP1 PUSH4 0x95D89B41 EQ PUSH2 0x5E9 JUMPI DUP1 PUSH4 0x9B02CDDE EQ PUSH2 0x5F1 JUMPI PUSH2 0x35D JUMP JUMPDEST DUP1 PUSH4 0x7ECEBE00 EQ PUSH2 0x593 JUMPI DUP1 PUSH4 0x851C1BB3 EQ PUSH2 0x5A6 JUMPI DUP1 PUSH4 0x87EC6817 EQ PUSH2 0x5B9 JUMPI PUSH2 0x35D JUMP JUMPDEST DUP1 PUSH4 0x38E9922E GT PUSH2 0x2AD JUMPI DUP1 PUSH4 0x6028BFD4 GT PUSH2 0x24B JUMPI DUP1 PUSH4 0x68A54DF2 GT PUSH2 0x225 JUMPI DUP1 PUSH4 0x68A54DF2 EQ PUSH2 0x52C JUMPI DUP1 PUSH4 0x6B843239 EQ PUSH2 0x53F JUMPI DUP1 PUSH4 0x70A08231 EQ PUSH2 0x55F JUMPI DUP1 PUSH4 0x74F3B009 EQ PUSH2 0x572 JUMPI PUSH2 0x35D JUMP JUMPDEST DUP1 PUSH4 0x6028BFD4 EQ PUSH2 0x4DD JUMPI DUP1 PUSH4 0x60D1507C EQ PUSH2 0x4FE JUMPI DUP1 PUSH4 0x679AEFCE EQ PUSH2 0x524 JUMPI PUSH2 0x35D JUMP JUMPDEST DUP1 PUSH4 0x3D48F8C1 GT PUSH2 0x287 JUMPI DUP1 PUSH4 0x3D48F8C1 EQ PUSH2 0x495 JUMPI DUP1 PUSH4 0x4A6B0B15 EQ PUSH2 0x4A8 JUMPI DUP1 PUSH4 0x55C67628 EQ PUSH2 0x4C2 JUMPI DUP1 PUSH4 0x57AAD013 EQ PUSH2 0x4CA JUMPI PUSH2 0x35D JUMP JUMPDEST DUP1 PUSH4 0x38E9922E EQ PUSH2 0x467 JUMPI DUP1 PUSH4 0x38FFF2D0 EQ PUSH2 0x47A JUMPI DUP1 PUSH4 0x39509351 EQ PUSH2 0x482 JUMPI PUSH2 0x35D JUMP JUMPDEST DUP1 PUSH4 0x23B872DD GT PUSH2 0x31A JUMPI DUP1 PUSH4 0x292C914A GT PUSH2 0x2F4 JUMPI DUP1 PUSH4 0x292C914A EQ PUSH2 0x43A JUMPI DUP1 PUSH4 0x3081BFEE EQ PUSH2 0x442 JUMPI DUP1 PUSH4 0x313CE567 EQ PUSH2 0x44A JUMPI DUP1 PUSH4 0x3644E515 EQ PUSH2 0x45F JUMPI PUSH2 0x35D JUMP JUMPDEST DUP1 PUSH4 0x23B872DD EQ PUSH2 0x401 JUMPI DUP1 PUSH4 0x259EFD16 EQ PUSH2 0x414 JUMPI DUP1 PUSH4 0x264959FB EQ PUSH2 0x427 JUMPI PUSH2 0x35D JUMP JUMPDEST DUP1 PUSH4 0x6FDDE03 EQ PUSH2 0x362 JUMPI DUP1 PUSH4 0x95EA7B3 EQ PUSH2 0x380 JUMPI DUP1 PUSH4 0x16C38B3C EQ PUSH2 0x3A0 JUMPI DUP1 PUSH4 0x18160DDD EQ PUSH2 0x3B5 JUMPI DUP1 PUSH4 0x1C0DE051 EQ PUSH2 0x3CA JUMPI DUP1 PUSH4 0x1DCCD830 EQ PUSH2 0x3E1 JUMPI JUMPDEST PUSH1 0x0 DUP1 REVERT JUMPDEST PUSH2 0x36A PUSH2 0x76B JUMP JUMPDEST PUSH1 0x40 MLOAD PUSH2 0x377 SWAP2 SWAP1 PUSH2 0x548D JUMP JUMPDEST PUSH1 0x40 MLOAD DUP1 SWAP2 SUB SWAP1 RETURN JUMPDEST PUSH2 0x393 PUSH2 0x38E CALLDATASIZE PUSH1 0x4 PUSH2 0x497D JUMP JUMPDEST PUSH2 0x801 JUMP JUMPDEST PUSH1 0x40 MLOAD PUSH2 0x377 SWAP2 SWAP1 PUSH2 0x535A JUMP JUMPDEST PUSH2 0x3B3 PUSH2 0x3AE CALLDATASIZE PUSH1 0x4 PUSH2 0x4D17 JUMP JUMPDEST PUSH2 0x818 JUMP JUMPDEST STOP JUMPDEST PUSH2 0x3BD PUSH2 0x82C JUMP JUMPDEST PUSH1 0x40 MLOAD PUSH2 0x377 SWAP2 SWAP1 PUSH2 0x538D JUMP JUMPDEST PUSH2 0x3D2 PUSH2 0x832 JUMP JUMPDEST PUSH1 0x40 MLOAD PUSH2 0x377 SWAP4 SWAP3 SWAP2 SWAP1 PUSH2 0x5375 JUMP JUMPDEST PUSH2 0x3F4 PUSH2 0x3EF CALLDATASIZE PUSH1 0x4 PUSH2 0x4B43 JUMP JUMPDEST PUSH2 0x85B JUMP JUMPDEST PUSH1 0x40 MLOAD PUSH2 0x377 SWAP2 SWAP1 PUSH2 0x5322 JUMP JUMPDEST PUSH2 0x393 PUSH2 0x40F CALLDATASIZE PUSH1 0x4 PUSH2 0x48C8 JUMP JUMPDEST PUSH2 0x963 JUMP JUMPDEST PUSH2 0x3B3 PUSH2 0x422 CALLDATASIZE PUSH1 0x4 PUSH2 0x5175 JUMP JUMPDEST PUSH2 0x9D9 JUMP JUMPDEST PUSH2 0x3BD PUSH2 0x435 CALLDATASIZE PUSH1 0x4 PUSH2 0x4FB6 JUMP JUMPDEST PUSH2 0x9F8 JUMP JUMPDEST PUSH2 0x3B3 PUSH2 0xA0F JUMP JUMPDEST PUSH2 0x3B3 PUSH2 0xA43 JUMP JUMPDEST PUSH2 0x452 PUSH2 0xA4D JUMP JUMPDEST PUSH1 0x40 MLOAD PUSH2 0x377 SWAP2 SWAP1 PUSH2 0x5547 JUMP JUMPDEST PUSH2 0x3BD PUSH2 0xA56 JUMP JUMPDEST PUSH2 0x3B3 PUSH2 0x475 CALLDATASIZE PUSH1 0x4 PUSH2 0x4D4F JUMP JUMPDEST PUSH2 0xA65 JUMP JUMPDEST PUSH2 0x3BD PUSH2 0xA7E JUMP JUMPDEST PUSH2 0x393 PUSH2 0x490 CALLDATASIZE PUSH1 0x4 PUSH2 0x497D JUMP JUMPDEST PUSH2 0xAA2 JUMP JUMPDEST PUSH2 0x3BD PUSH2 0x4A3 CALLDATASIZE PUSH1 0x4 PUSH2 0x5064 JUMP JUMPDEST PUSH2 0xADD JUMP JUMPDEST PUSH2 0x4B0 PUSH2 0xB12 JUMP JUMPDEST PUSH1 0x40 MLOAD PUSH2 0x377 SWAP7 SWAP6 SWAP5 SWAP4 SWAP3 SWAP2 SWAP1 PUSH2 0x5463 JUMP JUMPDEST PUSH2 0x3BD PUSH2 0xB6D JUMP JUMPDEST PUSH2 0x3BD PUSH2 0x4D8 CALLDATASIZE PUSH1 0x4 PUSH2 0x4D4F JUMP JUMPDEST PUSH2 0xB7A JUMP JUMPDEST PUSH2 0x4F0 PUSH2 0x4EB CALLDATASIZE PUSH1 0x4 PUSH2 0x4D67 JUMP JUMPDEST PUSH2 0xB85 JUMP JUMPDEST PUSH1 0x40 MLOAD PUSH2 0x377 SWAP3 SWAP2 SWAP1 PUSH2 0x552E JUMP JUMPDEST PUSH2 0x511 PUSH2 0x50C CALLDATASIZE PUSH1 0x4 PUSH2 0x4D4F JUMP JUMPDEST PUSH2 0xBB6 JUMP JUMPDEST PUSH1 0x40 MLOAD PUSH2 0x377 SWAP8 SWAP7 SWAP6 SWAP5 SWAP4 SWAP3 SWAP2 SWAP1 PUSH2 0x5433 JUMP JUMPDEST PUSH2 0x3BD PUSH2 0xBFF JUMP JUMPDEST PUSH2 0x3B3 PUSH2 0x53A CALLDATASIZE PUSH1 0x4 PUSH2 0x4D4F JUMP JUMPDEST PUSH2 0xC24 JUMP JUMPDEST PUSH2 0x552 PUSH2 0x54D CALLDATASIZE PUSH1 0x4 PUSH2 0x4A73 JUMP JUMPDEST PUSH2 0xC37 JUMP JUMPDEST PUSH1 0x40 MLOAD PUSH2 0x377 SWAP2 SWAP1 PUSH2 0x528F JUMP JUMPDEST PUSH2 0x3BD PUSH2 0x56D CALLDATASIZE PUSH1 0x4 PUSH2 0x4874 JUMP JUMPDEST PUSH2 0xCE8 JUMP JUMPDEST PUSH2 0x585 PUSH2 0x580 CALLDATASIZE PUSH1 0x4 PUSH2 0x4D67 JUMP JUMPDEST PUSH2 0xD03 JUMP JUMPDEST PUSH1 0x40 MLOAD PUSH2 0x377 SWAP3 SWAP2 SWAP1 PUSH2 0x5335 JUMP JUMPDEST PUSH2 0x3BD PUSH2 0x5A1 CALLDATASIZE PUSH1 0x4 PUSH2 0x4874 JUMP JUMPDEST PUSH2 0xDA8 JUMP JUMPDEST PUSH2 0x3BD PUSH2 0x5B4 CALLDATASIZE PUSH1 0x4 PUSH2 0x4E43 JUMP JUMPDEST PUSH2 0xDC3 JUMP JUMPDEST PUSH2 0x4F0 PUSH2 0x5C7 CALLDATASIZE PUSH1 0x4 PUSH2 0x4D67 JUMP JUMPDEST PUSH2 0xE15 JUMP JUMPDEST PUSH2 0x5D4 PUSH2 0xE3A JUMP JUMPDEST PUSH1 0x40 MLOAD PUSH2 0x377 SWAP2 SWAP1 PUSH2 0x527B JUMP JUMPDEST PUSH2 0x5D4 PUSH2 0xE5E JUMP JUMPDEST PUSH2 0x36A PUSH2 0xE82 JUMP JUMPDEST PUSH2 0x3BD PUSH2 0xEE3 JUMP JUMPDEST PUSH2 0x3BD PUSH2 0x607 CALLDATASIZE PUSH1 0x4 PUSH2 0x507F JUMP JUMPDEST PUSH2 0xEE9 JUMP JUMPDEST PUSH2 0x393 PUSH2 0x61A CALLDATASIZE PUSH1 0x4 PUSH2 0x497D JUMP JUMPDEST PUSH2 0x1098 JUMP JUMPDEST PUSH2 0x393 PUSH2 0x62D CALLDATASIZE PUSH1 0x4 PUSH2 0x497D JUMP JUMPDEST PUSH2 0x10D6 JUMP JUMPDEST PUSH2 0x5D4 PUSH2 0x10E3 JUMP JUMPDEST PUSH2 0x3BD PUSH2 0x648 CALLDATASIZE PUSH1 0x4 PUSH2 0x4D4F JUMP JUMPDEST PUSH2 0x10ED JUMP JUMPDEST PUSH2 0x3BD PUSH2 0x65B CALLDATASIZE PUSH1 0x4 PUSH2 0x4F9A JUMP JUMPDEST PUSH2 0x10F8 JUMP JUMPDEST PUSH2 0x3BD PUSH2 0x111A JUMP JUMPDEST PUSH2 0x3BD PUSH2 0x676 CALLDATASIZE PUSH1 0x4 PUSH2 0x51A2 JUMP JUMPDEST PUSH2 0x1120 JUMP JUMPDEST PUSH2 0x3B3 PUSH2 0x689 CALLDATASIZE PUSH1 0x4 PUSH2 0x4FEA JUMP JUMPDEST PUSH2 0x112D JUMP JUMPDEST PUSH2 0x3BD PUSH2 0x1136 JUMP JUMPDEST PUSH2 0x6A9 PUSH2 0x6A4 CALLDATASIZE PUSH1 0x4 PUSH2 0x4D4F JUMP JUMPDEST PUSH2 0x11F1 JUMP JUMPDEST PUSH1 0x40 MLOAD PUSH2 0x377 SWAP2 SWAP1 PUSH2 0x54E0 JUMP JUMPDEST PUSH2 0x3BD PUSH2 0x6C4 CALLDATASIZE PUSH1 0x4 PUSH2 0x51CD JUMP JUMPDEST PUSH2 0x1276 JUMP JUMPDEST PUSH2 0x6DC PUSH2 0x6D7 CALLDATASIZE PUSH1 0x4 PUSH2 0x4CD5 JUMP JUMPDEST PUSH2 0x128D JUMP JUMPDEST PUSH1 0x40 MLOAD PUSH2 0x377 SWAP2 SWAP1 PUSH2 0x52D3 JUMP JUMPDEST PUSH2 0x3B3 PUSH2 0x6F7 CALLDATASIZE PUSH1 0x4 PUSH2 0x4908 JUMP JUMPDEST PUSH2 0x1360 JUMP JUMPDEST PUSH2 0x3B3 PUSH2 0x70A CALLDATASIZE PUSH1 0x4 PUSH2 0x4E09 JUMP JUMPDEST PUSH2 0x14A9 JUMP JUMPDEST PUSH2 0x585 PUSH2 0x71D CALLDATASIZE PUSH1 0x4 PUSH2 0x4D67 JUMP JUMPDEST PUSH2 0x1503 JUMP JUMPDEST PUSH2 0x3BD PUSH2 0x730 CALLDATASIZE PUSH1 0x4 PUSH2 0x4890 JUMP JUMPDEST PUSH2 0x1623 JUMP JUMPDEST PUSH2 0x3B3 PUSH2 0x743 CALLDATASIZE PUSH1 0x4 PUSH2 0x4C11 JUMP JUMPDEST PUSH2 0x164E JUMP JUMPDEST PUSH2 0x3F4 PUSH2 0x1697 JUMP JUMPDEST PUSH2 0x6A9 PUSH2 0x75E CALLDATASIZE PUSH1 0x4 PUSH2 0x4E09 JUMP JUMPDEST PUSH2 0x16A1 JUMP JUMPDEST PUSH2 0x3BD PUSH2 0x16CE JUMP JUMPDEST PUSH1 0x3 DUP1 SLOAD PUSH1 0x40 DUP1 MLOAD PUSH1 0x20 PUSH1 0x1F PUSH1 0x2 PUSH1 0x0 NOT PUSH2 0x100 PUSH1 0x1 DUP9 AND ISZERO MUL ADD SWAP1 SWAP6 AND SWAP5 SWAP1 SWAP5 DIV SWAP4 DUP5 ADD DUP2 SWAP1 DIV DUP2 MUL DUP3 ADD DUP2 ADD SWAP1 SWAP3 MSTORE DUP3 DUP2 MSTORE PUSH1 0x60 SWAP4 SWAP1 SWAP3 SWAP1 SWAP2 DUP4 ADD DUP3 DUP3 DUP1 ISZERO PUSH2 0x7F7 JUMPI DUP1 PUSH1 0x1F LT PUSH2 0x7CC JUMPI PUSH2 0x100 DUP1 DUP4 SLOAD DIV MUL DUP4 MSTORE SWAP2 PUSH1 0x20 ADD SWAP2 PUSH2 0x7F7 JUMP JUMPDEST DUP3 ADD SWAP2 SWAP1 PUSH1 0x0 MSTORE PUSH1 0x20 PUSH1 0x0 KECCAK256 SWAP1 JUMPDEST DUP2 SLOAD DUP2 MSTORE SWAP1 PUSH1 0x1 ADD SWAP1 PUSH1 0x20 ADD DUP1 DUP4 GT PUSH2 0x7DA JUMPI DUP3 SWAP1 SUB PUSH1 0x1F AND DUP3 ADD SWAP2 JUMPDEST POP POP POP POP POP SWAP1 POP SWAP1 JUMP JUMPDEST PUSH1 0x0 PUSH2 0x80E CALLER DUP5 DUP5 PUSH2 0x1755 JUMP JUMPDEST POP PUSH1 0x1 JUMPDEST SWAP3 SWAP2 POP POP JUMP JUMPDEST PUSH2 0x820 PUSH2 0x17BD JUMP JUMPDEST PUSH2 0x829 DUP2 PUSH2 0x17EB JUMP JUMPDEST POP JUMP JUMPDEST PUSH1 0x2 SLOAD SWAP1 JUMP JUMPDEST PUSH1 0x0 DUP1 PUSH1 0x0 PUSH2 0x83F PUSH2 0x1869 JUMP JUMPDEST ISZERO SWAP3 POP PUSH2 0x84A PUSH2 0x1886 JUMP JUMPDEST SWAP2 POP PUSH2 0x854 PUSH2 0x18AA JUMP JUMPDEST SWAP1 POP SWAP1 SWAP2 SWAP3 JUMP JUMPDEST PUSH1 0x60 DUP2 MLOAD PUSH1 0x1 PUSH1 0x1 PUSH1 0x40 SHL SUB DUP2 GT DUP1 ISZERO PUSH2 0x874 JUMPI PUSH1 0x0 DUP1 REVERT JUMPDEST POP PUSH1 0x40 MLOAD SWAP1 DUP1 DUP3 MSTORE DUP1 PUSH1 0x20 MUL PUSH1 0x20 ADD DUP3 ADD PUSH1 0x40 MSTORE DUP1 ISZERO PUSH2 0x89E JUMPI DUP2 PUSH1 0x20 ADD PUSH1 0x20 DUP3 MUL DUP1 CALLDATASIZE DUP4 CALLDATACOPY ADD SWAP1 POP JUMPDEST POP SWAP1 POP PUSH1 0x0 PUSH2 0x8AE PUSH1 0x9 SLOAD PUSH2 0x18CE JUMP JUMPDEST SWAP1 POP PUSH2 0x8B8 PUSH2 0x4624 JUMP JUMPDEST PUSH1 0x0 JUMPDEST DUP5 MLOAD DUP2 LT ISZERO PUSH2 0x95B JUMPI DUP5 DUP2 DUP2 MLOAD DUP2 LT PUSH2 0x8D0 JUMPI INVALID JUMPDEST PUSH1 0x20 MUL PUSH1 0x20 ADD ADD MLOAD SWAP2 POP PUSH2 0x8EE DUP3 PUSH1 0x20 ADD MLOAD PUSH1 0x0 EQ ISZERO PUSH2 0x13C PUSH2 0x18DB JUMP JUMPDEST PUSH1 0x0 PUSH2 0x909 DUP4 PUSH1 0x0 ADD MLOAD DUP6 DUP6 PUSH1 0x20 ADD MLOAD DUP7 PUSH1 0x40 ADD MLOAD ADD PUSH2 0x18ED JUMP JUMPDEST SWAP1 POP PUSH1 0x0 PUSH2 0x920 DUP5 PUSH1 0x0 ADD MLOAD DUP7 DUP7 PUSH1 0x40 ADD MLOAD PUSH2 0x18ED JUMP JUMPDEST SWAP1 POP PUSH2 0x93A DUP5 PUSH1 0x20 ADD MLOAD DUP4 DUP4 SUB DUP2 PUSH2 0x934 JUMPI INVALID JUMPDEST SDIV PUSH2 0x1A33 JUMP JUMPDEST DUP7 DUP5 DUP2 MLOAD DUP2 LT PUSH2 0x946 JUMPI INVALID JUMPDEST PUSH1 0x20 SWAP1 DUP2 MUL SWAP2 SWAP1 SWAP2 ADD ADD MSTORE POP POP PUSH1 0x1 ADD PUSH2 0x8BB JUMP JUMPDEST POP POP POP SWAP2 SWAP1 POP JUMP JUMPDEST PUSH1 0x0 DUP1 PUSH2 0x970 DUP6 CALLER PUSH2 0x1623 JUMP JUMPDEST SWAP1 POP PUSH2 0x994 CALLER PUSH1 0x1 PUSH1 0x1 PUSH1 0xA0 SHL SUB DUP8 AND EQ DUP1 PUSH2 0x98C JUMPI POP DUP4 DUP3 LT ISZERO JUMPDEST PUSH2 0x19E PUSH2 0x18DB JUMP JUMPDEST PUSH2 0x99F DUP6 DUP6 DUP6 PUSH2 0x1A46 JUMP JUMPDEST CALLER PUSH1 0x1 PUSH1 0x1 PUSH1 0xA0 SHL SUB DUP7 AND EQ DUP1 ISZERO SWAP1 PUSH2 0x9BA JUMPI POP PUSH1 0x0 NOT DUP2 EQ ISZERO JUMPDEST ISZERO PUSH2 0x9CC JUMPI PUSH2 0x9CC DUP6 CALLER DUP6 DUP5 SUB PUSH2 0x1755 JUMP JUMPDEST PUSH1 0x1 SWAP2 POP POP JUMPDEST SWAP4 SWAP3 POP POP POP JUMP JUMPDEST PUSH2 0x9E2 DUP2 PUSH2 0xADD JUMP JUMPDEST PUSH1 0x0 SWAP3 DUP4 MSTORE PUSH1 0x8 PUSH1 0x20 MSTORE PUSH1 0x40 SWAP1 SWAP3 KECCAK256 SWAP2 SWAP1 SWAP2 SSTORE POP JUMP JUMPDEST PUSH1 0x0 PUSH2 0xA07 DUP5 DUP5 DUP5 TIMESTAMP SUB PUSH2 0x18ED JUMP JUMPDEST SWAP5 SWAP4 POP POP POP POP JUMP JUMPDEST PUSH2 0xA17 PUSH2 0x1B26 JUMP JUMPDEST PUSH2 0xA1F PUSH2 0x17BD JUMP JUMPDEST PUSH2 0xA29 PUSH1 0x1 PUSH2 0x1B39 JUMP JUMPDEST PUSH1 0x0 PUSH2 0xA33 PUSH2 0x82C JUMP JUMPDEST GT ISZERO PUSH2 0xA41 JUMPI PUSH2 0xA41 PUSH2 0x1B79 JUMP JUMPDEST JUMP JUMPDEST PUSH2 0xA41 PUSH1 0x0 PUSH2 0x1B39 JUMP JUMPDEST PUSH1 0x5 SLOAD PUSH1 0xFF AND SWAP1 JUMP JUMPDEST PUSH1 0x0 PUSH2 0xA60 PUSH2 0x1BBB JUMP JUMPDEST SWAP1 POP SWAP1 JUMP JUMPDEST PUSH2 0xA6D PUSH2 0x17BD JUMP JUMPDEST PUSH2 0xA75 PUSH2 0x1B26 JUMP JUMPDEST PUSH2 0x829 DUP2 PUSH2 0x1C58 JUMP JUMPDEST PUSH32 0x0 SWAP1 JUMP JUMPDEST CALLER PUSH1 0x0 DUP2 DUP2 MSTORE PUSH1 0x1 PUSH1 0x20 SWAP1 DUP2 MSTORE PUSH1 0x40 DUP1 DUP4 KECCAK256 PUSH1 0x1 PUSH1 0x1 PUSH1 0xA0 SHL SUB DUP8 AND DUP5 MSTORE SWAP1 SWAP2 MSTORE DUP2 KECCAK256 SLOAD SWAP1 SWAP2 PUSH2 0x80E SWAP2 DUP6 SWAP1 PUSH2 0xAD8 SWAP1 DUP7 PUSH2 0x16D5 JUMP JUMPDEST PUSH2 0x1755 JUMP JUMPDEST PUSH1 0x0 PUSH2 0xB0A DUP3 PUSH1 0x0 ADD MLOAD DUP4 PUSH1 0x20 ADD MLOAD DUP5 PUSH1 0x40 ADD MLOAD DUP6 PUSH1 0x60 ADD MLOAD DUP7 PUSH1 0x80 ADD MLOAD DUP8 PUSH1 0xA0 ADD MLOAD DUP9 PUSH1 0xC0 ADD MLOAD PUSH2 0x1CC1 JUMP JUMPDEST SWAP1 POP JUMPDEST SWAP2 SWAP1 POP JUMP JUMPDEST PUSH1 0x0 DUP1 PUSH1 0x0 DUP1 PUSH1 0x0 DUP1 PUSH1 0x0 PUSH1 0x9 SLOAD SWAP1 POP PUSH2 0xB2B DUP2 PUSH2 0x1D21 JUMP JUMPDEST SWAP7 POP PUSH2 0xB36 DUP2 PUSH2 0x1D2D JUMP JUMPDEST SWAP6 POP PUSH2 0xB41 DUP2 PUSH2 0x1D3A JUMP JUMPDEST SWAP5 POP PUSH2 0xB4C DUP2 PUSH2 0x18CE JUMP JUMPDEST SWAP4 POP PUSH2 0xB57 DUP2 PUSH2 0x1D47 JUMP JUMPDEST SWAP3 POP PUSH2 0xB62 DUP2 PUSH2 0x1D54 JUMP JUMPDEST SWAP2 POP POP SWAP1 SWAP2 SWAP3 SWAP4 SWAP5 SWAP6 JUMP JUMPDEST PUSH1 0x0 PUSH2 0xA60 PUSH1 0x9 SLOAD PUSH2 0x1D54 JUMP JUMPDEST PUSH1 0x0 PUSH2 0xB0A DUP3 PUSH2 0x1D61 JUMP JUMPDEST PUSH1 0x0 PUSH1 0x60 PUSH2 0xB95 DUP7 MLOAD PUSH1 0x2 PUSH2 0x1DA1 JUMP JUMPDEST PUSH2 0xBAA DUP10 DUP10 DUP10 DUP10 DUP10 DUP10 DUP10 PUSH2 0x1DAE PUSH2 0x1E68 PUSH2 0x1EE6 JUMP JUMPDEST SWAP8 POP SWAP8 SWAP6 POP POP POP POP POP POP JUMP JUMPDEST PUSH1 0x0 DUP1 PUSH1 0x0 DUP1 PUSH1 0x0 DUP1 PUSH1 0x0 PUSH2 0xBD1 PUSH2 0x400 DUP10 LT PUSH2 0x13B PUSH2 0x18DB JUMP JUMPDEST PUSH1 0x0 PUSH2 0xBDC DUP10 PUSH2 0x2004 JUMP JUMPDEST SWAP1 POP PUSH2 0xBE7 DUP2 PUSH2 0x2016 JUMP JUMPDEST SWAP6 SWAP16 SWAP5 SWAP15 POP SWAP3 SWAP13 POP SWAP1 SWAP11 POP SWAP9 POP SWAP7 POP SWAP1 SWAP5 POP SWAP3 POP POP POP JUMP JUMPDEST PUSH1 0x0 PUSH2 0xA60 PUSH2 0xC0C PUSH2 0x82C JUMP JUMPDEST PUSH2 0xC1E PUSH2 0xC17 PUSH2 0x1136 JUMP JUMPDEST PUSH1 0x2 PUSH2 0x2079 JUMP JUMPDEST SWAP1 PUSH2 0x209D JUMP JUMPDEST PUSH1 0x9 SLOAD PUSH2 0xC31 SWAP1 DUP3 PUSH2 0x20EE JUMP JUMPDEST PUSH1 0x9 SSTORE POP JUMP JUMPDEST PUSH1 0x60 DUP2 MLOAD PUSH1 0x1 PUSH1 0x1 PUSH1 0x40 SHL SUB DUP2 GT DUP1 ISZERO PUSH2 0xC50 JUMPI PUSH1 0x0 DUP1 REVERT JUMPDEST POP PUSH1 0x40 MLOAD SWAP1 DUP1 DUP3 MSTORE DUP1 PUSH1 0x20 MUL PUSH1 0x20 ADD DUP3 ADD PUSH1 0x40 MSTORE DUP1 ISZERO PUSH2 0xC7A JUMPI DUP2 PUSH1 0x20 ADD PUSH1 0x20 DUP3 MUL DUP1 CALLDATASIZE DUP4 CALLDATACOPY ADD SWAP1 POP JUMPDEST POP SWAP1 POP PUSH1 0x0 PUSH2 0xC8A PUSH1 0x9 SLOAD PUSH2 0x18CE JUMP JUMPDEST SWAP1 POP PUSH2 0xC94 PUSH2 0x4646 JUMP JUMPDEST PUSH1 0x0 JUMPDEST DUP5 MLOAD DUP2 LT ISZERO PUSH2 0x95B JUMPI DUP5 DUP2 DUP2 MLOAD DUP2 LT PUSH2 0xCAC JUMPI INVALID JUMPDEST PUSH1 0x20 MUL PUSH1 0x20 ADD ADD MLOAD SWAP2 POP PUSH2 0xCC9 DUP3 PUSH1 0x0 ADD MLOAD DUP5 DUP5 PUSH1 0x20 ADD MLOAD PUSH2 0x18ED JUMP JUMPDEST DUP5 DUP3 DUP2 MLOAD DUP2 LT PUSH2 0xCD5 JUMPI INVALID JUMPDEST PUSH1 0x20 SWAP1 DUP2 MUL SWAP2 SWAP1 SWAP2 ADD ADD MSTORE PUSH1 0x1 ADD PUSH2 0xC97 JUMP JUMPDEST PUSH1 0x1 PUSH1 0x1 PUSH1 0xA0 SHL SUB AND PUSH1 0x0 SWAP1 DUP2 MSTORE PUSH1 0x20 DUP2 SWAP1 MSTORE PUSH1 0x40 SWAP1 KECCAK256 SLOAD SWAP1 JUMP JUMPDEST PUSH1 0x60 DUP1 DUP9 PUSH2 0xD2D PUSH2 0xD12 PUSH2 0xE5E JUMP JUMPDEST PUSH1 0x1 PUSH1 0x1 PUSH1 0xA0 SHL SUB AND CALLER PUSH1 0x1 PUSH1 0x1 PUSH1 0xA0 SHL SUB AND EQ PUSH1 0xCD PUSH2 0x18DB JUMP JUMPDEST PUSH2 0xD42 PUSH2 0xD38 PUSH2 0xA7E JUMP JUMPDEST DUP3 EQ PUSH2 0x1F4 PUSH2 0x18DB JUMP JUMPDEST PUSH2 0xD4B DUP8 PUSH2 0x20FC JUMP JUMPDEST PUSH1 0x0 DUP1 PUSH1 0x0 PUSH2 0xD5F DUP14 DUP14 DUP14 DUP14 DUP14 DUP14 DUP14 PUSH2 0x1DAE JUMP JUMPDEST SWAP3 POP SWAP3 POP SWAP3 POP PUSH2 0xD6F DUP13 DUP5 PUSH2 0x215E JUMP JUMPDEST PUSH2 0xD78 DUP3 PUSH2 0x1E68 JUMP JUMPDEST PUSH2 0xD81 DUP2 PUSH2 0x1E68 JUMP JUMPDEST PUSH2 0xD89 PUSH2 0x1869 JUMP JUMPDEST ISZERO PUSH2 0xD96 JUMPI PUSH2 0xD96 PUSH2 0x1B79 JUMP JUMPDEST SWAP1 SWAP13 SWAP1 SWAP12 POP SWAP10 POP POP POP POP POP POP POP POP POP POP JUMP JUMPDEST PUSH1 0x1 PUSH1 0x1 PUSH1 0xA0 SHL SUB AND PUSH1 0x0 SWAP1 DUP2 MSTORE PUSH1 0x6 PUSH1 0x20 MSTORE PUSH1 0x40 SWAP1 KECCAK256 SLOAD SWAP1 JUMP JUMPDEST PUSH1 0x0 PUSH32 0x0 DUP3 PUSH1 0x40 MLOAD PUSH1 0x20 ADD PUSH2 0xDF8 SWAP3 SWAP2 SWAP1 PUSH2 0x5238 JUMP JUMPDEST PUSH1 0x40 MLOAD PUSH1 0x20 DUP2 DUP4 SUB SUB DUP2 MSTORE SWAP1 PUSH1 0x40 MSTORE DUP1 MLOAD SWAP1 PUSH1 0x20 ADD KECCAK256 SWAP1 POP SWAP2 SWAP1 POP JUMP JUMPDEST PUSH1 0x0 PUSH1 0x60 PUSH2 0xE25 DUP7 MLOAD PUSH1 0x2 PUSH2 0x1DA1 JUMP JUMPDEST PUSH2 0xBAA DUP10 DUP10 DUP10 DUP10 DUP10 DUP10 DUP10 PUSH2 0x2168 PUSH2 0x21E8 PUSH2 0x1EE6 JUMP JUMPDEST PUSH32 0x0 SWAP1 JUMP JUMPDEST PUSH32 0x0 SWAP1 JUMP JUMPDEST PUSH1 0x4 DUP1 SLOAD PUSH1 0x40 DUP1 MLOAD PUSH1 0x20 PUSH1 0x1F PUSH1 0x2 PUSH1 0x0 NOT PUSH2 0x100 PUSH1 0x1 DUP9 AND ISZERO MUL ADD SWAP1 SWAP6 AND SWAP5 SWAP1 SWAP5 DIV SWAP4 DUP5 ADD DUP2 SWAP1 DIV DUP2 MUL DUP3 ADD DUP2 ADD SWAP1 SWAP3 MSTORE DUP3 DUP2 MSTORE PUSH1 0x60 SWAP4 SWAP1 SWAP3 SWAP1 SWAP2 DUP4 ADD DUP3 DUP3 DUP1 ISZERO PUSH2 0x7F7 JUMPI DUP1 PUSH1 0x1F LT PUSH2 0x7CC JUMPI PUSH2 0x100 DUP1 DUP4 SLOAD DIV MUL DUP4 MSTORE SWAP2 PUSH1 0x20 ADD SWAP2 PUSH2 0x7F7 JUMP JUMPDEST PUSH1 0xA SLOAD SWAP1 JUMP JUMPDEST PUSH1 0x0 PUSH2 0xEF3 PUSH2 0x1B26 JUMP JUMPDEST DUP4 PUSH1 0x80 ADD MLOAD PUSH2 0xF03 PUSH2 0xD12 PUSH2 0xE5E JUMP JUMPDEST PUSH2 0xF0E PUSH2 0xD38 PUSH2 0xA7E JUMP JUMPDEST PUSH1 0x0 PUSH32 0x0 PUSH1 0x1 PUSH1 0x1 PUSH1 0xA0 SHL SUB AND DUP7 PUSH1 0x20 ADD MLOAD PUSH1 0x1 PUSH1 0x1 PUSH1 0xA0 SHL SUB AND EQ SWAP1 POP PUSH1 0x0 PUSH2 0xF56 DUP3 PUSH2 0x2246 JUMP JUMPDEST SWAP1 POP PUSH1 0x0 PUSH2 0xF64 DUP4 ISZERO PUSH2 0x2246 JUMP JUMPDEST SWAP1 POP PUSH1 0x0 PUSH2 0xF71 DUP5 PUSH2 0x229A JUMP JUMPDEST SWAP1 POP PUSH1 0x0 PUSH2 0xF7F DUP6 ISZERO PUSH2 0x229A JUMP JUMPDEST SWAP1 POP PUSH2 0xF8B DUP10 DUP6 PUSH2 0x22EE JUMP JUMPDEST SWAP9 POP PUSH2 0xF97 DUP9 DUP5 PUSH2 0x22EE JUMP JUMPDEST SWAP8 POP PUSH2 0xFC0 DUP11 PUSH1 0xA0 ADD MLOAD DUP7 PUSH2 0xFAC JUMPI DUP10 PUSH2 0xFAE JUMP JUMPDEST DUP11 JUMPDEST DUP8 PUSH2 0xFB9 JUMPI DUP12 PUSH2 0xFBB JUMP JUMPDEST DUP11 JUMPDEST PUSH2 0x22FA JUMP JUMPDEST PUSH1 0x0 DUP11 MLOAD PUSH1 0x1 DUP2 GT ISZERO PUSH2 0xFCF JUMPI INVALID JUMPDEST EQ ISZERO PUSH2 0x103D JUMPI PUSH1 0x0 PUSH2 0xFED PUSH2 0xFE2 PUSH2 0xB6D JUMP JUMPDEST PUSH1 0x60 DUP14 ADD MLOAD SWAP1 PUSH2 0x2400 JUMP JUMPDEST SWAP1 POP PUSH2 0x100F PUSH2 0x1009 DUP3 DUP14 PUSH1 0x60 ADD MLOAD PUSH2 0x1703 SWAP1 SWAP2 SWAP1 PUSH4 0xFFFFFFFF AND JUMP JUMPDEST DUP7 PUSH2 0x22EE JUMP JUMPDEST PUSH1 0x60 DUP13 ADD MSTORE PUSH1 0x0 PUSH2 0x1023 DUP13 DUP13 DUP13 DUP8 DUP8 PUSH2 0x2444 JUMP JUMPDEST SWAP1 POP PUSH2 0x102F DUP2 DUP7 PUSH2 0x2461 JUMP JUMPDEST SWAP9 POP POP POP POP POP POP POP POP PUSH2 0x1090 JUMP JUMPDEST PUSH2 0x104B DUP11 PUSH1 0x60 ADD MLOAD DUP5 PUSH2 0x22EE JUMP JUMPDEST PUSH1 0x60 DUP12 ADD MSTORE PUSH1 0x0 PUSH2 0x105F DUP12 DUP12 DUP12 DUP7 DUP7 PUSH2 0x246D JUMP JUMPDEST SWAP1 POP PUSH2 0x106B DUP2 DUP7 PUSH2 0x2480 JUMP JUMPDEST SWAP1 POP PUSH2 0x1087 PUSH2 0x1080 PUSH2 0x107B PUSH2 0xB6D JUMP JUMPDEST PUSH2 0x248C JUMP JUMPDEST DUP3 SWAP1 PUSH2 0x24B2 JUMP JUMPDEST SWAP8 POP POP POP POP POP POP POP JUMPDEST POP SWAP4 SWAP3 POP POP POP JUMP JUMPDEST PUSH1 0x0 DUP1 PUSH2 0x10A5 CALLER DUP6 PUSH2 0x1623 JUMP JUMPDEST SWAP1 POP DUP1 DUP4 LT PUSH2 0x10BF JUMPI PUSH2 0x10BA CALLER DUP6 PUSH1 0x0 PUSH2 0x1755 JUMP JUMPDEST PUSH2 0x10CC JUMP JUMPDEST PUSH2 0x10CC CALLER DUP6 DUP6 DUP5 SUB PUSH2 0x1755 JUMP JUMPDEST POP PUSH1 0x1 SWAP4 SWAP3 POP POP POP JUMP JUMPDEST PUSH1 0x0 PUSH2 0x80E CALLER DUP5 DUP5 PUSH2 0x1A46 JUMP JUMPDEST PUSH1 0x0 PUSH2 0xA60 PUSH2 0x24F4 JUMP JUMPDEST PUSH1 0x0 PUSH2 0xB0A DUP3 PUSH2 0x1A33 JUMP JUMPDEST PUSH1 0x0 DUP1 PUSH2 0x110F DUP4 PUSH2 0x110A PUSH1 0x9 SLOAD PUSH2 0x18CE JUMP JUMPDEST PUSH2 0x256E JUMP JUMPDEST SWAP1 POP PUSH2 0x9D2 DUP2 PUSH2 0x1A33 JUMP JUMPDEST PUSH2 0x400 SWAP1 JUMP JUMPDEST PUSH1 0x0 PUSH2 0xA07 DUP5 DUP5 DUP5 PUSH2 0x259D JUMP JUMPDEST PUSH2 0xC31 DUP2 PUSH2 0x25C4 JUMP JUMPDEST PUSH1 0x0 DUP1 PUSH2 0x1141 PUSH2 0xE5E JUMP JUMPDEST PUSH1 0x1 PUSH1 0x1 PUSH1 0xA0 SHL SUB AND PUSH4 0xF94D4668 PUSH2 0x1157 PUSH2 0xA7E JUMP JUMPDEST PUSH1 0x40 MLOAD DUP3 PUSH4 0xFFFFFFFF AND PUSH1 0xE0 SHL DUP2 MSTORE PUSH1 0x4 ADD PUSH2 0x1173 SWAP2 SWAP1 PUSH2 0x538D JUMP JUMPDEST PUSH1 0x0 PUSH1 0x40 MLOAD DUP1 DUP4 SUB DUP2 DUP7 DUP1 EXTCODESIZE ISZERO DUP1 ISZERO PUSH2 0x118B JUMPI PUSH1 0x0 DUP1 REVERT JUMPDEST POP GAS STATICCALL ISZERO DUP1 ISZERO PUSH2 0x119F JUMPI RETURNDATASIZE PUSH1 0x0 DUP1 RETURNDATACOPY RETURNDATASIZE PUSH1 0x0 REVERT JUMPDEST POP POP POP POP PUSH1 0x40 MLOAD RETURNDATASIZE PUSH1 0x0 DUP3 RETURNDATACOPY PUSH1 0x1F RETURNDATASIZE SWAP1 DUP2 ADD PUSH1 0x1F NOT AND DUP3 ADD PUSH1 0x40 MSTORE PUSH2 0x11C7 SWAP2 SWAP1 DUP2 ADD SWAP1 PUSH2 0x49A8 JUMP JUMPDEST POP SWAP2 POP POP PUSH2 0x11D4 DUP2 PUSH2 0x20FC JUMP JUMPDEST PUSH1 0x0 PUSH2 0x11DE PUSH2 0x2651 JUMP JUMPDEST SWAP1 POP PUSH2 0x11EA DUP2 DUP4 PUSH2 0x26C0 JUMP JUMPDEST SWAP3 POP POP POP SWAP1 JUMP JUMPDEST PUSH2 0x11F9 PUSH2 0x465D JUMP JUMPDEST PUSH1 0x40 DUP1 MLOAD PUSH1 0xE0 DUP2 ADD SWAP1 SWAP2 MSTORE DUP1 PUSH2 0x1210 DUP5 PUSH1 0x0 PUSH2 0x2732 JUMP JUMPDEST DUP2 MSTORE PUSH1 0x20 ADD PUSH2 0x1220 DUP5 PUSH1 0x0 PUSH2 0x277D JUMP JUMPDEST DUP2 MSTORE PUSH1 0x20 ADD PUSH2 0x1230 DUP5 PUSH1 0x1 PUSH2 0x2732 JUMP JUMPDEST DUP2 MSTORE PUSH1 0x20 ADD PUSH2 0x1240 DUP5 PUSH1 0x1 PUSH2 0x277D JUMP JUMPDEST DUP2 MSTORE PUSH1 0x20 ADD PUSH2 0x1250 DUP5 PUSH1 0x2 PUSH2 0x2732 JUMP JUMPDEST DUP2 MSTORE PUSH1 0x20 ADD PUSH2 0x1260 DUP5 PUSH1 0x2 PUSH2 0x277D JUMP JUMPDEST DUP2 MSTORE PUSH1 0x20 ADD PUSH2 0x126E DUP5 PUSH2 0x27C1 JUMP JUMPDEST SWAP1 MSTORE SWAP3 SWAP2 POP POP JUMP JUMPDEST PUSH1 0x0 PUSH2 0x1284 DUP6 DUP6 DUP6 DUP6 PUSH2 0x27CD JUMP JUMPDEST SWAP6 SWAP5 POP POP POP POP POP JUMP JUMPDEST PUSH1 0x60 DUP3 MLOAD PUSH1 0x1 PUSH1 0x1 PUSH1 0x40 SHL SUB DUP2 GT DUP1 ISZERO PUSH2 0x12A6 JUMPI PUSH1 0x0 DUP1 REVERT JUMPDEST POP PUSH1 0x40 MLOAD SWAP1 DUP1 DUP3 MSTORE DUP1 PUSH1 0x20 MUL PUSH1 0x20 ADD DUP3 ADD PUSH1 0x40 MSTORE DUP1 ISZERO PUSH2 0x12E0 JUMPI DUP2 PUSH1 0x20 ADD JUMPDEST PUSH2 0x12CD PUSH2 0x469A JUMP JUMPDEST DUP2 MSTORE PUSH1 0x20 ADD SWAP1 PUSH1 0x1 SWAP1 SUB SWAP1 DUP2 PUSH2 0x12C5 JUMPI SWAP1 POP JUMPDEST POP SWAP1 POP PUSH1 0x0 JUMPDEST DUP4 MLOAD DUP2 LT ISZERO PUSH2 0x1359 JUMPI PUSH1 0x0 DUP1 PUSH2 0x130F DUP7 DUP5 DUP2 MLOAD DUP2 LT PUSH2 0x1301 JUMPI INVALID JUMPDEST PUSH1 0x20 MUL PUSH1 0x20 ADD ADD MLOAD DUP7 PUSH2 0x27F8 JUMP JUMPDEST SWAP2 POP SWAP2 POP PUSH1 0x40 MLOAD DUP1 PUSH1 0x40 ADD PUSH1 0x40 MSTORE DUP1 PUSH2 0x1327 DUP5 PUSH2 0x27C1 JUMP JUMPDEST DUP2 MSTORE PUSH1 0x20 ADD PUSH2 0x1335 DUP4 PUSH2 0x27C1 JUMP JUMPDEST DUP2 MSTORE POP DUP5 DUP5 DUP2 MLOAD DUP2 LT PUSH2 0x1344 JUMPI INVALID JUMPDEST PUSH1 0x20 SWAP1 DUP2 MUL SWAP2 SWAP1 SWAP2 ADD ADD MSTORE POP POP PUSH1 0x1 ADD PUSH2 0x12E6 JUMP JUMPDEST POP SWAP3 SWAP2 POP POP JUMP JUMPDEST PUSH2 0x136E DUP5 TIMESTAMP GT ISZERO PUSH1 0xD1 PUSH2 0x18DB JUMP JUMPDEST PUSH1 0x1 PUSH1 0x1 PUSH1 0xA0 SHL SUB DUP8 AND PUSH1 0x0 SWAP1 DUP2 MSTORE PUSH1 0x6 PUSH1 0x20 SWAP1 DUP2 MSTORE PUSH1 0x40 DUP1 DUP4 KECCAK256 SLOAD SWAP1 MLOAD SWAP1 SWAP3 SWAP2 PUSH2 0x13C5 SWAP2 PUSH32 0x0 SWAP2 DUP13 SWAP2 DUP13 SWAP2 DUP13 SWAP2 DUP9 SWAP2 DUP14 SWAP2 ADD PUSH2 0x53B5 JUMP JUMPDEST PUSH1 0x40 MLOAD PUSH1 0x20 DUP2 DUP4 SUB SUB DUP2 MSTORE SWAP1 PUSH1 0x40 MSTORE DUP1 MLOAD SWAP1 PUSH1 0x20 ADD KECCAK256 SWAP1 POP PUSH1 0x0 PUSH2 0x13E8 DUP3 PUSH2 0x28AB JUMP JUMPDEST SWAP1 POP PUSH1 0x0 PUSH1 0x1 DUP3 DUP9 DUP9 DUP9 PUSH1 0x40 MLOAD PUSH1 0x0 DUP2 MSTORE PUSH1 0x20 ADD PUSH1 0x40 MSTORE PUSH1 0x40 MLOAD PUSH2 0x140F SWAP5 SWAP4 SWAP3 SWAP2 SWAP1 PUSH2 0x5415 JUMP JUMPDEST PUSH1 0x20 PUSH1 0x40 MLOAD PUSH1 0x20 DUP2 SUB SWAP1 DUP1 DUP5 SUB SWAP1 DUP6 GAS STATICCALL ISZERO DUP1 ISZERO PUSH2 0x1431 JUMPI RETURNDATASIZE PUSH1 0x0 DUP1 RETURNDATACOPY RETURNDATASIZE PUSH1 0x0 REVERT JUMPDEST POP POP PUSH1 0x40 MLOAD PUSH1 0x1F NOT ADD MLOAD SWAP2 POP PUSH2 0x1473 SWAP1 POP PUSH1 0x1 PUSH1 0x1 PUSH1 0xA0 SHL SUB DUP3 AND ISZERO DUP1 ISZERO SWAP1 PUSH2 0x146B JUMPI POP DUP12 PUSH1 0x1 PUSH1 0x1 PUSH1 0xA0 SHL SUB AND DUP3 PUSH1 0x1 PUSH1 0x1 PUSH1 0xA0 SHL SUB AND EQ JUMPDEST PUSH2 0x1F8 PUSH2 0x18DB JUMP JUMPDEST PUSH1 0x1 PUSH1 0x1 PUSH1 0xA0 SHL SUB DUP12 AND PUSH1 0x0 SWAP1 DUP2 MSTORE PUSH1 0x6 PUSH1 0x20 MSTORE PUSH1 0x40 SWAP1 KECCAK256 PUSH1 0x1 DUP6 ADD SWAP1 SSTORE PUSH2 0x149C DUP12 DUP12 DUP12 PUSH2 0x1755 JUMP JUMPDEST POP POP POP POP POP POP POP POP POP POP POP JUMP JUMPDEST TIMESTAMP DUP6 SWAP1 SUB PUSH1 0x0 PUSH2 0x14BC DUP3 DUP8 DUP8 DUP8 DUP8 PUSH2 0x28C7 JUMP JUMPDEST SWAP1 POP PUSH32 0xA7F3E984C65D79D0FA58244DDDB6522F661C9DEA23FE4940801CBFE088107506 DUP7 DUP3 EQ ISZERO DUP3 PUSH1 0x40 MLOAD PUSH2 0x14F2 SWAP3 SWAP2 SWAP1 PUSH2 0x5365 JUMP JUMPDEST PUSH1 0x40 MLOAD DUP1 SWAP2 SUB SWAP1 LOG1 POP POP POP POP POP POP POP JUMP JUMPDEST PUSH1 0x60 DUP1 DUP9 PUSH2 0x1512 PUSH2 0xD12 PUSH2 0xE5E JUMP JUMPDEST PUSH2 0x151D PUSH2 0xD38 PUSH2 0xA7E JUMP JUMPDEST PUSH2 0x1525 PUSH2 0x1B26 JUMP JUMPDEST PUSH1 0x0 PUSH2 0x152F PUSH2 0x82C JUMP JUMPDEST PUSH2 0x159F JUMPI PUSH2 0x153F DUP12 DUP12 DUP12 DUP9 PUSH2 0x291E JUMP JUMPDEST SWAP5 POP SWAP1 POP PUSH2 0x1554 PUSH3 0xF4240 DUP3 LT ISZERO PUSH1 0xCC PUSH2 0x18DB JUMP JUMPDEST PUSH2 0x1562 PUSH1 0x0 PUSH3 0xF4240 PUSH2 0x29A7 JUMP JUMPDEST PUSH2 0x1571 DUP10 PUSH3 0xF4240 DUP4 SUB PUSH2 0x29A7 JUMP JUMPDEST PUSH2 0x157A DUP5 PUSH2 0x21E8 JUMP JUMPDEST PUSH1 0x40 DUP1 MLOAD PUSH1 0x2 DUP1 DUP3 MSTORE PUSH1 0x60 DUP3 ADD DUP4 MSTORE SWAP1 SWAP2 PUSH1 0x20 DUP4 ADD SWAP1 DUP1 CALLDATASIZE DUP4 CALLDATACOPY ADD SWAP1 POP POP SWAP3 POP PUSH2 0x160D JUMP JUMPDEST PUSH2 0x15A8 DUP9 PUSH2 0x20FC JUMP JUMPDEST PUSH2 0x15DB DUP8 DUP10 PUSH1 0x0 DUP2 MLOAD DUP2 LT PUSH2 0x15B9 JUMPI INVALID JUMPDEST PUSH1 0x20 MUL PUSH1 0x20 ADD ADD MLOAD DUP11 PUSH1 0x1 DUP2 MLOAD DUP2 LT PUSH2 0x15CE JUMPI INVALID JUMPDEST PUSH1 0x20 MUL PUSH1 0x20 ADD ADD MLOAD PUSH2 0x22FA JUMP JUMPDEST PUSH2 0x15EA DUP12 DUP12 DUP12 DUP12 DUP12 DUP12 DUP12 PUSH2 0x2168 JUMP JUMPDEST SWAP1 SWAP6 POP SWAP4 POP SWAP1 POP PUSH2 0x15FB DUP10 DUP3 PUSH2 0x29A7 JUMP JUMPDEST PUSH2 0x1604 DUP5 PUSH2 0x21E8 JUMP JUMPDEST PUSH2 0x160D DUP4 PUSH2 0x1E68 JUMP JUMPDEST PUSH2 0x1615 PUSH2 0x1B79 JUMP JUMPDEST POP POP SWAP8 POP SWAP8 SWAP6 POP POP POP POP POP POP JUMP JUMPDEST PUSH1 0x1 PUSH1 0x1 PUSH1 0xA0 SHL SUB SWAP2 DUP3 AND PUSH1 0x0 SWAP1 DUP2 MSTORE PUSH1 0x1 PUSH1 0x20 SWAP1 DUP2 MSTORE PUSH1 0x40 DUP1 DUP4 KECCAK256 SWAP4 SWAP1 SWAP5 AND DUP3 MSTORE SWAP2 SWAP1 SWAP2 MSTORE KECCAK256 SLOAD SWAP1 JUMP JUMPDEST PUSH1 0x0 JUMPDEST DUP3 MLOAD DUP2 LT ISZERO PUSH2 0x1692 JUMPI PUSH2 0x168A DUP4 DUP3 DUP2 MLOAD DUP2 LT PUSH2 0x1669 JUMPI INVALID JUMPDEST PUSH1 0x20 MUL PUSH1 0x20 ADD ADD MLOAD DUP4 DUP4 DUP2 MLOAD DUP2 LT PUSH2 0x167D JUMPI INVALID JUMPDEST PUSH1 0x20 MUL PUSH1 0x20 ADD ADD MLOAD PUSH2 0x9D9 JUMP JUMPDEST PUSH1 0x1 ADD PUSH2 0x1651 JUMP JUMPDEST POP POP POP JUMP JUMPDEST PUSH1 0x60 PUSH2 0xA60 PUSH2 0x2651 JUMP JUMPDEST PUSH2 0x16A9 PUSH2 0x465D JUMP JUMPDEST PUSH1 0x0 PUSH2 0x16B8 DUP8 DUP8 DUP8 DUP8 DUP8 PUSH2 0x29B1 JUMP JUMPDEST SWAP1 POP PUSH2 0x16C3 DUP2 PUSH2 0x11F1 JUMP JUMPDEST SWAP8 SWAP7 POP POP POP POP POP POP POP JUMP JUMPDEST PUSH3 0x1DE20 SWAP1 JUMP JUMPDEST PUSH1 0x0 DUP3 DUP3 ADD PUSH2 0x9D2 DUP5 DUP3 LT ISZERO DUP4 PUSH2 0x18DB JUMP JUMPDEST PUSH1 0x0 PUSH2 0x9D2 DUP4 DUP4 PUSH1 0x55 PUSH2 0x1719 JUMP JUMPDEST PUSH1 0x0 PUSH2 0x9D2 DUP4 DUP4 PUSH1 0x56 PUSH2 0x1740 JUMP JUMPDEST PUSH1 0x0 PUSH2 0x1713 DUP4 DUP4 GT ISZERO PUSH1 0x1 PUSH2 0x18DB JUMP JUMPDEST POP SWAP1 SUB SWAP1 JUMP JUMPDEST PUSH1 0x0 PUSH1 0x1 DUP3 SHL NOT DUP5 AND DUP3 DUP5 PUSH2 0x172F JUMPI PUSH1 0x0 PUSH2 0x1732 JUMP JUMPDEST PUSH1 0x1 JUMPDEST PUSH1 0xFF AND SWAP1 SHL OR SWAP5 SWAP4 POP POP POP POP JUMP JUMPDEST PUSH1 0x1 PUSH1 0x1 PUSH1 0x40 SHL SUB DUP2 SHL NOT SWAP3 SWAP1 SWAP3 AND SWAP2 SHL OR SWAP1 JUMP JUMPDEST PUSH1 0x1 PUSH1 0x1 PUSH1 0xA0 SHL SUB DUP1 DUP5 AND PUSH1 0x0 DUP2 DUP2 MSTORE PUSH1 0x1 PUSH1 0x20 SWAP1 DUP2 MSTORE PUSH1 0x40 DUP1 DUP4 KECCAK256 SWAP5 DUP8 AND DUP1 DUP5 MSTORE SWAP5 SWAP1 SWAP2 MSTORE SWAP1 DUP2 SWAP1 KECCAK256 DUP5 SWAP1 SSTORE MLOAD PUSH32 0x8C5BE1E5EBEC7D5BD14F71427D1E84F3DD0314C0F7B2291E5B200AC8C7C3B925 SWAP1 PUSH2 0x17B0 SWAP1 DUP6 SWAP1 PUSH2 0x538D JUMP JUMPDEST PUSH1 0x40 MLOAD DUP1 SWAP2 SUB SWAP1 LOG3 POP POP POP JUMP JUMPDEST PUSH1 0x0 PUSH2 0x17D4 PUSH1 0x0 CALLDATALOAD PUSH1 0x1 PUSH1 0x1 PUSH1 0xE0 SHL SUB NOT AND PUSH2 0xDC3 JUMP JUMPDEST SWAP1 POP PUSH2 0x829 PUSH2 0x17E3 DUP3 CALLER PUSH2 0x2A11 JUMP JUMPDEST PUSH2 0x191 PUSH2 0x18DB JUMP JUMPDEST DUP1 ISZERO PUSH2 0x180B JUMPI PUSH2 0x1806 PUSH2 0x17FC PUSH2 0x1886 JUMP JUMPDEST TIMESTAMP LT PUSH2 0x193 PUSH2 0x18DB JUMP JUMPDEST PUSH2 0x1820 JUMP JUMPDEST PUSH2 0x1820 PUSH2 0x1816 PUSH2 0x18AA JUMP JUMPDEST TIMESTAMP LT PUSH2 0x1A9 PUSH2 0x18DB JUMP JUMPDEST PUSH1 0x7 DUP1 SLOAD PUSH1 0xFF NOT AND DUP3 ISZERO ISZERO OR SWAP1 SSTORE PUSH1 0x40 MLOAD PUSH32 0x9E3A5E37224532DEA67B89FACE185703738A228A6E8A23DEE546960180D3BE64 SWAP1 PUSH2 0x185E SWAP1 DUP4 SWAP1 PUSH2 0x535A JUMP JUMPDEST PUSH1 0x40 MLOAD DUP1 SWAP2 SUB SWAP1 LOG1 POP JUMP JUMPDEST PUSH1 0x0 PUSH2 0x1873 PUSH2 0x18AA JUMP JUMPDEST TIMESTAMP GT DUP1 PUSH2 0xA60 JUMPI POP POP PUSH1 0x7 SLOAD PUSH1 0xFF AND ISZERO SWAP1 JUMP JUMPDEST PUSH32 0x0 SWAP1 JUMP JUMPDEST PUSH32 0x0 SWAP1 JUMP JUMPDEST PUSH1 0x0 PUSH2 0xB0A DUP3 PUSH1 0x4B PUSH2 0x2AFA JUMP JUMPDEST DUP2 PUSH2 0x18E9 JUMPI PUSH2 0x18E9 DUP2 PUSH2 0x2B02 JUMP JUMPDEST POP POP JUMP JUMPDEST PUSH1 0x0 PUSH2 0x18FE DUP3 TIMESTAMP LT ISZERO PUSH2 0x138 PUSH2 0x18DB JUMP JUMPDEST TIMESTAMP DUP3 SWAP1 SUB PUSH1 0x0 PUSH2 0x190D DUP6 PUSH2 0x2004 JUMP JUMPDEST SWAP1 POP PUSH1 0x0 PUSH2 0x191A DUP3 PUSH2 0x27C1 JUMP JUMPDEST SWAP1 POP PUSH2 0x192B PUSH1 0x0 DUP3 GT PUSH2 0x139 PUSH2 0x18DB JUMP JUMPDEST DUP3 DUP2 GT PUSH2 0x1957 JUMPI DUP1 DUP4 SUB DUP1 PUSH2 0x1940 DUP5 DUP11 PUSH2 0x2732 JUMP JUMPDEST MUL PUSH2 0x194B DUP5 DUP11 PUSH2 0x277D JUMP JUMPDEST ADD SWAP5 POP POP POP POP POP PUSH2 0x9D2 JUMP JUMPDEST PUSH1 0x0 PUSH2 0x1962 DUP8 PUSH2 0x2B55 JUMP JUMPDEST SWAP1 POP PUSH1 0x0 PUSH2 0x196F DUP3 PUSH2 0x2004 JUMP JUMPDEST SWAP1 POP PUSH1 0x0 PUSH2 0x197C DUP3 PUSH2 0x27C1 JUMP JUMPDEST SWAP1 POP PUSH2 0x198D PUSH1 0x0 DUP3 GT PUSH2 0x139 PUSH2 0x18DB JUMP JUMPDEST PUSH2 0x199C DUP7 DUP3 GT ISZERO PUSH2 0x13A PUSH2 0x18DB JUMP JUMPDEST POP POP PUSH1 0x0 DUP1 PUSH2 0x19AB DUP7 DUP5 PUSH2 0x27F8 JUMP JUMPDEST SWAP2 POP SWAP2 POP PUSH1 0x0 PUSH2 0x19BA DUP4 PUSH2 0x27C1 JUMP JUMPDEST PUSH2 0x19C3 DUP4 PUSH2 0x27C1 JUMP JUMPDEST SUB SWAP1 POP DUP1 ISZERO PUSH2 0x1A1B JUMPI PUSH1 0x0 PUSH2 0x19D8 DUP5 DUP14 PUSH2 0x277D JUMP JUMPDEST PUSH2 0x19E2 DUP5 DUP15 PUSH2 0x277D JUMP JUMPDEST SUB SWAP1 POP PUSH1 0x0 PUSH2 0x19F0 DUP6 PUSH2 0x27C1 JUMP JUMPDEST DUP10 SUB SWAP1 POP DUP3 DUP2 DUP4 MUL DUP2 PUSH2 0x19FF JUMPI INVALID JUMPDEST SDIV PUSH2 0x1A0A DUP7 DUP16 PUSH2 0x277D JUMP JUMPDEST ADD SWAP10 POP POP POP POP POP POP POP POP POP POP PUSH2 0x9D2 JUMP JUMPDEST PUSH2 0x1A25 DUP4 DUP13 PUSH2 0x277D JUMP JUMPDEST SWAP8 POP POP POP POP POP POP POP POP PUSH2 0x9D2 JUMP JUMPDEST PUSH1 0x0 PUSH2 0xB0A PUSH6 0x5AF3107A4000 DUP4 MUL PUSH2 0x2B62 JUMP JUMPDEST PUSH2 0x1A5D PUSH1 0x1 PUSH1 0x1 PUSH1 0xA0 SHL SUB DUP5 AND ISZERO ISZERO PUSH2 0x198 PUSH2 0x18DB JUMP JUMPDEST PUSH2 0x1A74 PUSH1 0x1 PUSH1 0x1 PUSH1 0xA0 SHL SUB DUP4 AND ISZERO ISZERO PUSH2 0x199 PUSH2 0x18DB JUMP JUMPDEST PUSH2 0x1A7F DUP4 DUP4 DUP4 PUSH2 0x1692 JUMP JUMPDEST PUSH1 0x1 PUSH1 0x1 PUSH1 0xA0 SHL SUB DUP4 AND PUSH1 0x0 SWAP1 DUP2 MSTORE PUSH1 0x20 DUP2 SWAP1 MSTORE PUSH1 0x40 SWAP1 KECCAK256 SLOAD PUSH2 0x1AA5 SWAP1 DUP3 PUSH2 0x1A0 PUSH2 0x2F3F JUMP JUMPDEST PUSH1 0x1 PUSH1 0x1 PUSH1 0xA0 SHL SUB DUP1 DUP6 AND PUSH1 0x0 SWAP1 DUP2 MSTORE PUSH1 0x20 DUP2 SWAP1 MSTORE PUSH1 0x40 DUP1 DUP3 KECCAK256 SWAP4 SWAP1 SWAP4 SSTORE SWAP1 DUP5 AND DUP2 MSTORE KECCAK256 SLOAD PUSH2 0x1AD4 SWAP1 DUP3 PUSH2 0x16D5 JUMP JUMPDEST PUSH1 0x1 PUSH1 0x1 PUSH1 0xA0 SHL SUB DUP1 DUP5 AND PUSH1 0x0 DUP2 DUP2 MSTORE PUSH1 0x20 DUP2 SWAP1 MSTORE PUSH1 0x40 SWAP1 DUP2 SWAP1 KECCAK256 SWAP4 SWAP1 SWAP4 SSTORE SWAP2 MLOAD SWAP1 DUP6 AND SWAP1 PUSH32 0xDDF252AD1BE2C89B69C2B068FC378DAA952BA7F163C4A11628F55A4DF523B3EF SWAP1 PUSH2 0x17B0 SWAP1 DUP6 SWAP1 PUSH2 0x538D JUMP JUMPDEST PUSH2 0xA41 PUSH2 0x1B31 PUSH2 0x1869 JUMP JUMPDEST PUSH2 0x192 PUSH2 0x18DB JUMP JUMPDEST PUSH1 0x9 SLOAD PUSH2 0x1B46 SWAP1 DUP3 PUSH2 0x16E7 JUMP JUMPDEST PUSH1 0x9 SSTORE PUSH1 0x40 MLOAD PUSH32 0x3E350B41E86A8E10F804ADE6D35340D620BE35569CC75AC943E8BB14AB80EAD1 SWAP1 PUSH2 0x185E SWAP1 DUP4 SWAP1 PUSH2 0x535A JUMP JUMPDEST PUSH1 0x9 SLOAD PUSH2 0x1B85 DUP2 PUSH2 0x1D47 JUMP JUMPDEST ISZERO PUSH2 0x829 JUMPI PUSH2 0x1B9F PUSH2 0x1B98 PUSH1 0xA SLOAD PUSH2 0x1D61 JUMP JUMPDEST DUP3 SWAP1 PUSH2 0x2F55 JUMP JUMPDEST SWAP1 POP PUSH2 0xC31 PUSH2 0x1BB4 PUSH2 0x1BAF PUSH2 0x82C JUMP JUMPDEST PUSH2 0x1D61 JUMP JUMPDEST DUP3 SWAP1 PUSH2 0x2F62 JUMP JUMPDEST PUSH1 0x0 PUSH32 0x0 PUSH32 0x0 PUSH32 0x0 PUSH2 0x1C28 PUSH2 0x2F70 JUMP JUMPDEST ADDRESS PUSH1 0x40 MLOAD PUSH1 0x20 ADD PUSH2 0x1C3D SWAP6 SWAP5 SWAP4 SWAP3 SWAP2 SWAP1 PUSH2 0x53E9 JUMP JUMPDEST PUSH1 0x40 MLOAD PUSH1 0x20 DUP2 DUP4 SUB SUB DUP2 MSTORE SWAP1 PUSH1 0x40 MSTORE DUP1 MLOAD SWAP1 PUSH1 0x20 ADD KECCAK256 SWAP1 POP SWAP1 JUMP JUMPDEST PUSH2 0x1C6B PUSH5 0xE8D4A51000 DUP3 LT ISZERO PUSH1 0xCB PUSH2 0x18DB JUMP JUMPDEST PUSH2 0x1C81 PUSH8 0x16345785D8A0000 DUP3 GT ISZERO PUSH1 0xCA PUSH2 0x18DB JUMP JUMPDEST PUSH1 0x9 SLOAD PUSH2 0x1C8E SWAP1 DUP3 PUSH2 0x16F5 JUMP JUMPDEST PUSH1 0x9 SSTORE PUSH1 0x40 MLOAD PUSH32 0xA9BA3FFE0B6C366B81232CAAB38605A0699AD5398D6CCE76F91EE809E322DAFC SWAP1 PUSH2 0x185E SWAP1 DUP4 SWAP1 PUSH2 0x538D JUMP JUMPDEST PUSH1 0x0 PUSH2 0x1CCD DUP3 DUP3 PUSH2 0x2F74 JUMP JUMPDEST PUSH2 0x1CD8 DUP5 PUSH1 0x1F PUSH2 0x2F78 JUMP JUMPDEST PUSH2 0x1CE3 DUP7 PUSH1 0x54 PUSH2 0x2F89 JUMP JUMPDEST PUSH2 0x1CEE DUP9 PUSH1 0x6A PUSH2 0x2F78 JUMP JUMPDEST PUSH2 0x1CF9 DUP11 PUSH1 0x9F PUSH2 0x2F89 JUMP JUMPDEST PUSH2 0x1D04 DUP13 PUSH1 0xB5 PUSH2 0x2F78 JUMP JUMPDEST PUSH2 0x1D0F DUP15 PUSH1 0xEA PUSH2 0x2F89 JUMP JUMPDEST OR OR OR OR OR OR SWAP9 SWAP8 POP POP POP POP POP POP POP POP JUMP JUMPDEST PUSH1 0x0 PUSH2 0xB0A DUP3 DUP3 PUSH2 0x2F96 JUMP JUMPDEST PUSH1 0x0 PUSH2 0xB0A DUP3 PUSH1 0x16 PUSH2 0x2F96 JUMP JUMPDEST PUSH1 0x0 PUSH2 0xB0A DUP3 PUSH1 0x2C PUSH2 0x2FBD JUMP JUMPDEST PUSH1 0x0 PUSH2 0xB0A DUP3 PUSH1 0x55 PUSH2 0x2FC7 JUMP JUMPDEST PUSH1 0x0 PUSH2 0xB0A DUP3 PUSH1 0x56 PUSH2 0x2FD1 JUMP JUMPDEST PUSH1 0x0 DUP1 PUSH2 0x1D6D DUP4 PUSH2 0x2FDE JUMP JUMPDEST SWAP1 POP PUSH1 0x0 DUP1 DUP3 SGT PUSH2 0x1D86 JUMPI PUSH6 0x2D79883D2000 DUP3 SUB PUSH2 0x1D90 JUMP JUMPDEST PUSH6 0x2D79883D2000 DUP3 ADD JUMPDEST PUSH6 0x5AF3107A4000 SWAP1 SDIV SWAP5 SWAP4 POP POP POP POP JUMP JUMPDEST PUSH2 0x18E9 DUP2 DUP4 EQ PUSH1 0x67 PUSH2 0x18DB JUMP JUMPDEST PUSH1 0x0 PUSH1 0x60 DUP1 PUSH1 0x0 PUSH2 0x1DBD PUSH2 0x2651 JUMP JUMPDEST SWAP1 POP PUSH2 0x1DC7 PUSH2 0x1869 JUMP JUMPDEST ISZERO PUSH2 0x1E0F JUMPI PUSH2 0x1DDD DUP8 DUP10 PUSH1 0x0 DUP2 MLOAD DUP2 LT PUSH2 0x15B9 JUMPI INVALID JUMPDEST PUSH1 0x0 PUSH2 0x1DE9 DUP3 DUP11 PUSH2 0x26C0 JUMP JUMPDEST SWAP1 POP PUSH2 0x1DFA DUP10 DUP4 PUSH1 0xA SLOAD DUP5 DUP12 PUSH2 0x303A JUMP JUMPDEST SWAP3 POP PUSH2 0x1E09 DUP10 DUP5 PUSH2 0x1703 PUSH2 0x311F JUMP JUMPDEST POP PUSH2 0x1E30 JUMP JUMPDEST PUSH1 0x40 DUP1 MLOAD PUSH1 0x2 DUP1 DUP3 MSTORE PUSH1 0x60 DUP3 ADD DUP4 MSTORE SWAP1 SWAP2 PUSH1 0x20 DUP4 ADD SWAP1 DUP1 CALLDATASIZE DUP4 CALLDATACOPY ADD SWAP1 POP POP SWAP2 POP JUMPDEST PUSH2 0x1E3B DUP9 DUP3 DUP8 PUSH2 0x31B1 JUMP JUMPDEST SWAP1 SWAP5 POP SWAP3 POP PUSH2 0x1E4D DUP9 DUP5 PUSH2 0x1703 PUSH2 0x311F JUMP JUMPDEST PUSH2 0x1E57 DUP2 DUP10 PUSH2 0x26C0 JUMP JUMPDEST PUSH1 0xA SSTORE POP SWAP8 POP SWAP8 POP SWAP8 SWAP5 POP POP POP POP POP JUMP JUMPDEST PUSH2 0x1E8F DUP2 PUSH1 0x0 DUP2 MLOAD DUP2 LT PUSH2 0x1E78 JUMPI INVALID JUMPDEST PUSH1 0x20 MUL PUSH1 0x20 ADD ADD MLOAD PUSH2 0x1E8A PUSH1 0x1 PUSH2 0x2246 JUMP JUMPDEST PUSH2 0x321E JUMP JUMPDEST DUP2 PUSH1 0x0 DUP2 MLOAD DUP2 LT PUSH2 0x1E9C JUMPI INVALID JUMPDEST PUSH1 0x20 MUL PUSH1 0x20 ADD ADD DUP2 DUP2 MSTORE POP POP PUSH2 0x1ECA DUP2 PUSH1 0x1 DUP2 MLOAD DUP2 LT PUSH2 0x1EB8 JUMPI INVALID JUMPDEST PUSH1 0x20 MUL PUSH1 0x20 ADD ADD MLOAD PUSH2 0x1E8A PUSH1 0x0 PUSH2 0x2246 JUMP JUMPDEST DUP2 PUSH1 0x1 DUP2 MLOAD DUP2 LT PUSH2 0x1ED7 JUMPI INVALID JUMPDEST PUSH1 0x20 MUL PUSH1 0x20 ADD ADD DUP2 DUP2 MSTORE POP POP POP JUMP JUMPDEST CALLER ADDRESS EQ PUSH2 0x1FA4 JUMPI PUSH1 0x0 ADDRESS PUSH1 0x1 PUSH1 0x1 PUSH1 0xA0 SHL SUB AND PUSH1 0x0 CALLDATASIZE PUSH1 0x40 MLOAD PUSH2 0x1F0A SWAP3 SWAP2 SWAP1 PUSH2 0x5250 JUMP JUMPDEST PUSH1 0x0 PUSH1 0x40 MLOAD DUP1 DUP4 SUB DUP2 PUSH1 0x0 DUP7 GAS CALL SWAP2 POP POP RETURNDATASIZE DUP1 PUSH1 0x0 DUP2 EQ PUSH2 0x1F47 JUMPI PUSH1 0x40 MLOAD SWAP2 POP PUSH1 0x1F NOT PUSH1 0x3F RETURNDATASIZE ADD AND DUP3 ADD PUSH1 0x40 MSTORE RETURNDATASIZE DUP3 MSTORE RETURNDATASIZE PUSH1 0x0 PUSH1 0x20 DUP5 ADD RETURNDATACOPY PUSH2 0x1F4C JUMP JUMPDEST PUSH1 0x60 SWAP2 POP JUMPDEST POP POP SWAP1 POP DUP1 PUSH1 0x0 DUP2 EQ PUSH2 0x1F5B JUMPI INVALID JUMPDEST PUSH1 0x4 PUSH1 0x0 DUP1 RETURNDATACOPY PUSH1 0x0 MLOAD PUSH1 0x1 PUSH1 0x1 PUSH1 0xE0 SHL SUB NOT AND PUSH4 0x43ADBAFB PUSH1 0xE0 SHL DUP2 EQ PUSH2 0x1F86 JUMPI RETURNDATASIZE PUSH1 0x0 DUP1 RETURNDATACOPY RETURNDATASIZE PUSH1 0x0 REVERT JUMPDEST POP PUSH1 0x20 PUSH1 0x4 PUSH1 0x0 RETURNDATACOPY PUSH1 0x40 PUSH1 0x20 MSTORE PUSH1 0x24 RETURNDATASIZE SUB PUSH1 0x24 PUSH1 0x40 RETURNDATACOPY PUSH1 0x1C RETURNDATASIZE ADD PUSH1 0x0 RETURN JUMPDEST PUSH2 0x1FAD DUP7 PUSH2 0x20FC JUMP JUMPDEST PUSH1 0x0 DUP1 PUSH2 0x1FC3 DUP12 DUP12 DUP12 DUP12 DUP12 DUP12 DUP12 DUP12 PUSH4 0xFFFFFFFF AND JUMP JUMPDEST POP SWAP2 POP SWAP2 POP PUSH2 0x1FD5 DUP2 DUP5 PUSH4 0xFFFFFFFF AND JUMP JUMPDEST DUP1 MLOAD PUSH1 0x1F NOT DUP3 ADD DUP4 SWAP1 MSTORE PUSH4 0x43ADBAFB PUSH1 0x3F NOT DUP4 ADD MSTORE PUSH1 0x20 MUL PUSH1 0x23 NOT DUP3 ADD PUSH1 0x44 DUP3 ADD DUP2 REVERT JUMPDEST POP POP POP POP POP POP POP POP POP JUMP JUMPDEST PUSH1 0x0 SWAP1 DUP2 MSTORE PUSH1 0x8 PUSH1 0x20 MSTORE PUSH1 0x40 SWAP1 KECCAK256 SLOAD SWAP1 JUMP JUMPDEST PUSH1 0x0 DUP1 PUSH1 0x0 DUP1 PUSH1 0x0 DUP1 PUSH1 0x0 PUSH2 0x202A DUP9 PUSH2 0x323E JUMP JUMPDEST SWAP7 POP PUSH2 0x2035 DUP9 PUSH2 0x324B JUMP JUMPDEST SWAP6 POP PUSH2 0x2040 DUP9 PUSH2 0x3258 JUMP JUMPDEST SWAP5 POP PUSH2 0x204B DUP9 PUSH2 0x3265 JUMP JUMPDEST SWAP4 POP PUSH2 0x2056 DUP9 PUSH2 0x3272 JUMP JUMPDEST SWAP3 POP PUSH2 0x2061 DUP9 PUSH2 0x327F JUMP JUMPDEST SWAP2 POP PUSH2 0x206C DUP9 PUSH2 0x27C1 JUMP JUMPDEST SWAP1 POP SWAP2 SWAP4 SWAP6 SWAP8 SWAP1 SWAP3 SWAP5 SWAP7 POP JUMP JUMPDEST PUSH1 0x0 DUP3 DUP3 MUL PUSH2 0x9D2 DUP5 ISZERO DUP1 PUSH2 0x2096 JUMPI POP DUP4 DUP6 DUP4 DUP2 PUSH2 0x2093 JUMPI INVALID JUMPDEST DIV EQ JUMPDEST PUSH1 0x3 PUSH2 0x18DB JUMP JUMPDEST PUSH1 0x0 PUSH2 0x20AC DUP3 ISZERO ISZERO PUSH1 0x4 PUSH2 0x18DB JUMP JUMPDEST DUP3 PUSH2 0x20B9 JUMPI POP PUSH1 0x0 PUSH2 0x812 JUMP JUMPDEST PUSH8 0xDE0B6B3A7640000 DUP4 DUP2 MUL SWAP1 PUSH2 0x20DC SWAP1 DUP6 DUP4 DUP2 PUSH2 0x20D3 JUMPI INVALID JUMPDEST DIV EQ PUSH1 0x5 PUSH2 0x18DB JUMP JUMPDEST DUP3 DUP2 DUP2 PUSH2 0x20E5 JUMPI INVALID JUMPDEST DIV SWAP2 POP POP PUSH2 0x812 JUMP JUMPDEST PUSH1 0x0 PUSH2 0x9D2 DUP4 DUP4 PUSH1 0x4B PUSH2 0x328C JUMP JUMPDEST PUSH2 0x2123 DUP2 PUSH1 0x0 DUP2 MLOAD DUP2 LT PUSH2 0x210C JUMPI INVALID JUMPDEST PUSH1 0x20 MUL PUSH1 0x20 ADD ADD MLOAD PUSH2 0x211E PUSH1 0x1 PUSH2 0x2246 JUMP JUMPDEST PUSH2 0x2079 JUMP JUMPDEST DUP2 PUSH1 0x0 DUP2 MLOAD DUP2 LT PUSH2 0x2130 JUMPI INVALID JUMPDEST PUSH1 0x20 MUL PUSH1 0x20 ADD ADD DUP2 DUP2 MSTORE POP POP PUSH2 0x1ECA DUP2 PUSH1 0x1 DUP2 MLOAD DUP2 LT PUSH2 0x214C JUMPI INVALID JUMPDEST PUSH1 0x20 MUL PUSH1 0x20 ADD ADD MLOAD PUSH2 0x211E PUSH1 0x0 PUSH2 0x2246 JUMP JUMPDEST PUSH2 0x18E9 DUP3 DUP3 PUSH2 0x329C JUMP JUMPDEST PUSH1 0x0 PUSH1 0x60 DUP1 PUSH1 0x0 PUSH2 0x2177 PUSH2 0x2651 JUMP JUMPDEST SWAP1 POP PUSH1 0x0 PUSH2 0x2185 DUP3 DUP11 PUSH2 0x26C0 JUMP JUMPDEST SWAP1 POP PUSH1 0x0 PUSH2 0x2198 DUP11 DUP5 PUSH1 0xA SLOAD DUP6 DUP13 PUSH2 0x303A JUMP JUMPDEST SWAP1 POP PUSH2 0x21A7 DUP11 DUP3 PUSH2 0x1703 PUSH2 0x311F JUMP JUMPDEST PUSH1 0x0 DUP1 PUSH2 0x21B5 DUP13 DUP7 DUP12 PUSH2 0x3358 JUMP JUMPDEST SWAP2 POP SWAP2 POP PUSH2 0x21C6 DUP13 DUP3 PUSH2 0x16D5 PUSH2 0x311F JUMP JUMPDEST PUSH2 0x21D0 DUP6 DUP14 PUSH2 0x26C0 JUMP JUMPDEST PUSH1 0xA SSTORE SWAP1 SWAP15 SWAP1 SWAP14 POP SWAP1 SWAP12 POP SWAP10 POP POP POP POP POP POP POP POP POP POP JUMP JUMPDEST PUSH2 0x220F DUP2 PUSH1 0x0 DUP2 MLOAD DUP2 LT PUSH2 0x21F8 JUMPI INVALID JUMPDEST PUSH1 0x20 MUL PUSH1 0x20 ADD ADD MLOAD PUSH2 0x220A PUSH1 0x1 PUSH2 0x2246 JUMP JUMPDEST PUSH2 0x33B2 JUMP JUMPDEST DUP2 PUSH1 0x0 DUP2 MLOAD DUP2 LT PUSH2 0x221C JUMPI INVALID JUMPDEST PUSH1 0x20 MUL PUSH1 0x20 ADD ADD DUP2 DUP2 MSTORE POP POP PUSH2 0x1ECA DUP2 PUSH1 0x1 DUP2 MLOAD DUP2 LT PUSH2 0x2238 JUMPI INVALID JUMPDEST PUSH1 0x20 MUL PUSH1 0x20 ADD ADD MLOAD PUSH2 0x220A PUSH1 0x0 JUMPDEST PUSH1 0x0 DUP2 PUSH2 0x2273 JUMPI PUSH32 0x0 PUSH2 0xB0A JUMP JUMPDEST POP PUSH32 0x0 SWAP2 SWAP1 POP JUMP JUMPDEST PUSH1 0x0 DUP2 PUSH2 0x22C7 JUMPI PUSH32 0x0 PUSH2 0xB0A JUMP JUMPDEST POP PUSH32 0x0 SWAP2 SWAP1 POP JUMP JUMPDEST PUSH1 0x0 PUSH2 0x9D2 DUP4 DUP4 PUSH2 0x2079 JUMP JUMPDEST PUSH1 0x9 SLOAD PUSH2 0x2306 DUP2 PUSH2 0x1D47 JUMP JUMPDEST DUP1 ISZERO PUSH2 0x2311 JUMPI POP DUP4 NUMBER GT JUMPDEST ISZERO PUSH2 0x23FA JUMPI PUSH1 0x0 PUSH2 0x2364 PUSH32 0x0 DUP6 PUSH32 0x0 DUP7 PUSH2 0x27CD JUMP JUMPDEST SWAP1 POP PUSH1 0x0 PUSH2 0x239B PUSH32 0x0 DUP7 PUSH2 0x2396 DUP7 PUSH2 0x1D2D JUMP JUMPDEST PUSH2 0x259D JUMP JUMPDEST SWAP1 POP PUSH1 0x0 PUSH2 0x23A8 DUP5 PUSH2 0x18CE JUMP JUMPDEST SWAP1 POP PUSH1 0x0 PUSH2 0x23B5 DUP6 PUSH2 0x1D3A JUMP JUMPDEST SWAP1 POP PUSH1 0x0 PUSH2 0x23CE DUP3 DUP5 DUP8 DUP8 PUSH2 0x23C9 DUP12 PUSH2 0x1D21 JUMP JUMPDEST PUSH2 0x28C7 JUMP JUMPDEST SWAP1 POP DUP1 DUP4 EQ PUSH2 0x1FF9 JUMPI PUSH2 0x23E1 DUP7 DUP3 PUSH2 0x20EE JUMP JUMPDEST SWAP6 POP PUSH2 0x23ED DUP7 TIMESTAMP PUSH2 0x33E5 JUMP JUMPDEST PUSH1 0x9 DUP2 SWAP1 SSTORE SWAP6 POP POP POP POP POP POP JUMPDEST POP POP POP POP JUMP JUMPDEST PUSH1 0x0 DUP3 DUP3 MUL PUSH2 0x241A DUP5 ISZERO DUP1 PUSH2 0x2096 JUMPI POP DUP4 DUP6 DUP4 DUP2 PUSH2 0x2093 JUMPI INVALID JUMPDEST DUP1 PUSH2 0x2429 JUMPI PUSH1 0x0 SWAP2 POP POP PUSH2 0x812 JUMP JUMPDEST PUSH8 0xDE0B6B3A7640000 PUSH1 0x0 NOT DUP3 ADD JUMPDEST DIV PUSH1 0x1 ADD SWAP2 POP POP PUSH2 0x812 JUMP JUMPDEST PUSH1 0x0 PUSH2 0x2457 DUP6 DUP5 DUP7 DUP6 DUP11 PUSH1 0x60 ADD MLOAD PUSH2 0x33F3 JUMP JUMPDEST SWAP7 SWAP6 POP POP POP POP POP POP JUMP JUMPDEST PUSH1 0x0 PUSH2 0x9D2 DUP4 DUP4 PUSH2 0x321E JUMP JUMPDEST PUSH1 0x0 PUSH2 0x2457 DUP6 DUP5 DUP7 DUP6 DUP11 PUSH1 0x60 ADD MLOAD PUSH2 0x3460 JUMP JUMPDEST PUSH1 0x0 PUSH2 0x9D2 DUP4 DUP4 PUSH2 0x33B2 JUMP JUMPDEST PUSH1 0x0 PUSH8 0xDE0B6B3A7640000 DUP3 LT PUSH2 0x24A4 JUMPI PUSH1 0x0 PUSH2 0xB0A JUMP JUMPDEST POP PUSH8 0xDE0B6B3A7640000 SUB SWAP1 JUMP JUMPDEST PUSH1 0x0 PUSH2 0x24C1 DUP3 ISZERO ISZERO PUSH1 0x4 PUSH2 0x18DB JUMP JUMPDEST DUP3 PUSH2 0x24CE JUMPI POP PUSH1 0x0 PUSH2 0x812 JUMP JUMPDEST PUSH8 0xDE0B6B3A7640000 DUP4 DUP2 MUL SWAP1 PUSH2 0x24E8 SWAP1 DUP6 DUP4 DUP2 PUSH2 0x20D3 JUMPI INVALID JUMPDEST DUP3 PUSH1 0x1 DUP3 SUB DUP2 PUSH2 0x2438 JUMPI INVALID JUMPDEST PUSH1 0x0 PUSH2 0x24FE PUSH2 0xE5E JUMP JUMPDEST PUSH1 0x1 PUSH1 0x1 PUSH1 0xA0 SHL SUB AND PUSH4 0xAAABADC5 PUSH1 0x40 MLOAD DUP2 PUSH4 0xFFFFFFFF AND PUSH1 0xE0 SHL DUP2 MSTORE PUSH1 0x4 ADD PUSH1 0x20 PUSH1 0x40 MLOAD DUP1 DUP4 SUB DUP2 DUP7 DUP1 EXTCODESIZE ISZERO DUP1 ISZERO PUSH2 0x2536 JUMPI PUSH1 0x0 DUP1 REVERT JUMPDEST POP GAS STATICCALL ISZERO DUP1 ISZERO PUSH2 0x254A JUMPI RETURNDATASIZE PUSH1 0x0 DUP1 RETURNDATACOPY RETURNDATASIZE PUSH1 0x0 REVERT JUMPDEST POP POP POP POP PUSH1 0x40 MLOAD RETURNDATASIZE PUSH1 0x1F NOT PUSH1 0x1F DUP3 ADD AND DUP3 ADD DUP1 PUSH1 0x40 MSTORE POP DUP2 ADD SWAP1 PUSH2 0xA60 SWAP2 SWAP1 PUSH2 0x4E6B JUMP JUMPDEST PUSH1 0x0 DUP1 PUSH2 0x257A DUP4 PUSH2 0x2004 JUMP JUMPDEST SWAP1 POP PUSH2 0x2593 PUSH1 0x0 PUSH2 0x258A DUP4 PUSH2 0x27C1 JUMP JUMPDEST GT PUSH2 0x139 PUSH2 0x18DB JUMP JUMPDEST PUSH2 0xA07 DUP2 DUP6 PUSH2 0x2732 JUMP JUMPDEST PUSH1 0x0 DUP1 PUSH2 0x25AA DUP5 DUP7 PUSH2 0x24B2 JUMP JUMPDEST SWAP1 POP PUSH1 0x0 PUSH2 0x25B7 DUP3 PUSH2 0x1D61 JUMP JUMPDEST SWAP4 SWAP1 SWAP4 SUB SWAP6 SWAP5 POP POP POP POP POP JUMP JUMPDEST PUSH1 0x0 PUSH2 0x25DD DUP3 PUSH1 0xA0 ADD MLOAD DUP3 PUSH2 0x16F5 SWAP1 SWAP2 SWAP1 PUSH4 0xFFFFFFFF AND JUMP JUMPDEST SWAP1 POP PUSH2 0x25F6 DUP3 PUSH1 0x80 ADD MLOAD DUP3 PUSH2 0x16E7 SWAP1 SWAP2 SWAP1 PUSH4 0xFFFFFFFF AND JUMP JUMPDEST SWAP1 POP PUSH2 0x260F DUP3 PUSH1 0x60 ADD MLOAD DUP3 PUSH2 0x20EE SWAP1 SWAP2 SWAP1 PUSH4 0xFFFFFFFF AND JUMP JUMPDEST SWAP1 POP PUSH2 0x2628 DUP3 PUSH1 0x40 ADD MLOAD DUP3 PUSH2 0x33E5 SWAP1 SWAP2 SWAP1 PUSH4 0xFFFFFFFF AND JUMP JUMPDEST SWAP1 POP PUSH2 0x2641 DUP3 PUSH1 0x20 ADD MLOAD DUP3 PUSH2 0x2F62 SWAP1 SWAP2 SWAP1 PUSH4 0xFFFFFFFF AND JUMP JUMPDEST DUP3 MLOAD SWAP1 SWAP2 POP PUSH2 0xB0A SWAP1 DUP3 SWAP1 PUSH2 0x2F55 JUMP JUMPDEST PUSH1 0x40 DUP1 MLOAD PUSH1 0x2 DUP1 DUP3 MSTORE PUSH1 0x60 DUP1 DUP4 ADD DUP5 MSTORE SWAP3 PUSH1 0x0 SWAP3 SWAP2 SWAP1 PUSH1 0x20 DUP4 ADD SWAP1 DUP1 CALLDATASIZE DUP4 CALLDATACOPY ADD SWAP1 POP POP SWAP1 POP PUSH2 0x2680 PUSH1 0x1 PUSH2 0x229A JUMP JUMPDEST DUP2 PUSH1 0x0 DUP2 MLOAD DUP2 LT PUSH2 0x268D JUMPI INVALID JUMPDEST PUSH1 0x20 MUL PUSH1 0x20 ADD ADD DUP2 DUP2 MSTORE POP POP PUSH2 0x26A3 PUSH1 0x0 PUSH2 0x229A JUMP JUMPDEST DUP2 PUSH1 0x1 DUP2 MLOAD DUP2 LT PUSH2 0x26B0 JUMPI INVALID JUMPDEST PUSH1 0x20 SWAP1 DUP2 MUL SWAP2 SWAP1 SWAP2 ADD ADD MSTORE SWAP1 POP SWAP1 JUMP JUMPDEST PUSH8 0xDE0B6B3A7640000 PUSH1 0x0 JUMPDEST DUP4 MLOAD DUP2 LT ISZERO PUSH2 0x2722 JUMPI PUSH2 0x2718 PUSH2 0x2711 DUP6 DUP4 DUP2 MLOAD DUP2 LT PUSH2 0x26E7 JUMPI INVALID JUMPDEST PUSH1 0x20 MUL PUSH1 0x20 ADD ADD MLOAD DUP6 DUP5 DUP2 MLOAD DUP2 LT PUSH2 0x26FB JUMPI INVALID JUMPDEST PUSH1 0x20 MUL PUSH1 0x20 ADD ADD MLOAD PUSH2 0x34D6 SWAP1 SWAP2 SWAP1 PUSH4 0xFFFFFFFF AND JUMP JUMPDEST DUP4 SWAP1 PUSH2 0x3525 JUMP JUMPDEST SWAP2 POP PUSH1 0x1 ADD PUSH2 0x26CC JUMP JUMPDEST POP PUSH2 0x812 PUSH1 0x0 DUP3 GT PUSH2 0x137 PUSH2 0x18DB JUMP JUMPDEST PUSH1 0x0 DUP1 DUP3 PUSH1 0x2 DUP2 GT ISZERO PUSH2 0x2741 JUMPI INVALID JUMPDEST EQ ISZERO PUSH2 0x2757 JUMPI PUSH2 0x2750 DUP4 PUSH2 0x323E JUMP JUMPDEST SWAP1 POP PUSH2 0x812 JUMP JUMPDEST PUSH1 0x1 DUP3 PUSH1 0x2 DUP2 GT ISZERO PUSH2 0x2765 JUMPI INVALID JUMPDEST EQ ISZERO PUSH2 0x2774 JUMPI PUSH2 0x2750 DUP4 PUSH2 0x3258 JUMP JUMPDEST PUSH2 0x2750 DUP4 PUSH2 0x3272 JUMP JUMPDEST PUSH1 0x0 DUP1 DUP3 PUSH1 0x2 DUP2 GT ISZERO PUSH2 0x278C JUMPI INVALID JUMPDEST EQ ISZERO PUSH2 0x279B JUMPI PUSH2 0x2750 DUP4 PUSH2 0x324B JUMP JUMPDEST PUSH1 0x1 DUP3 PUSH1 0x2 DUP2 GT ISZERO PUSH2 0x27A9 JUMPI INVALID JUMPDEST EQ ISZERO PUSH2 0x27B8 JUMPI PUSH2 0x2750 DUP4 PUSH2 0x3265 JUMP JUMPDEST PUSH2 0x2750 DUP4 PUSH2 0x327F JUMP JUMPDEST PUSH1 0x0 PUSH2 0xB0A DUP3 DUP3 PUSH2 0x2FBD JUMP JUMPDEST PUSH1 0x0 DUP1 PUSH2 0x27ED PUSH2 0x27DD DUP5 DUP7 PUSH2 0x24B2 JUMP JUMPDEST PUSH2 0x27E7 DUP8 DUP10 PUSH2 0x24B2 JUMP JUMPDEST SWAP1 PUSH2 0x24B2 JUMP JUMPDEST SWAP1 POP PUSH2 0x2457 DUP2 PUSH2 0x1D61 JUMP JUMPDEST PUSH1 0x0 DUP1 DUP1 PUSH2 0x3FF DUP2 DUP1 DUP1 JUMPDEST DUP4 DUP6 GT PUSH2 0x286F JUMPI PUSH1 0x2 DUP6 DUP6 ADD DIV PUSH2 0x281A DUP2 DUP11 PUSH2 0x3551 JUMP JUMPDEST SWAP4 POP PUSH2 0x2825 DUP5 PUSH2 0x2004 JUMP JUMPDEST SWAP3 POP PUSH2 0x2830 DUP4 PUSH2 0x27C1 JUMP JUMPDEST SWAP2 POP DUP10 DUP3 LT ISZERO PUSH2 0x2845 JUMPI DUP1 PUSH1 0x1 ADD SWAP6 POP PUSH2 0x2869 JUMP JUMPDEST DUP10 DUP3 GT ISZERO PUSH2 0x2858 JUMPI PUSH1 0x1 DUP2 SUB SWAP5 POP PUSH2 0x2869 JUMP JUMPDEST DUP3 DUP4 SWAP8 POP SWAP8 POP POP POP POP POP POP POP PUSH2 0x28A4 JUMP JUMPDEST POP PUSH2 0x2803 JUMP JUMPDEST DUP9 DUP2 LT PUSH2 0x288D JUMPI PUSH2 0x2887 PUSH2 0x2882 DUP5 PUSH2 0x3562 JUMP JUMPDEST PUSH2 0x2004 JUMP JUMPDEST DUP3 PUSH2 0x289A JUMP JUMPDEST DUP2 PUSH2 0x289A PUSH2 0x2882 DUP6 PUSH2 0x2B55 JUMP JUMPDEST SWAP7 POP SWAP7 POP POP POP POP POP POP JUMPDEST SWAP3 POP SWAP3 SWAP1 POP JUMP JUMPDEST PUSH1 0x0 PUSH2 0x28B5 PUSH2 0x1BBB JUMP JUMPDEST DUP3 PUSH1 0x40 MLOAD PUSH1 0x20 ADD PUSH2 0xDF8 SWAP3 SWAP2 SWAP1 PUSH2 0x5260 JUMP JUMPDEST PUSH1 0x0 DUP1 PUSH2 0x28E3 DUP6 DUP6 DUP6 TIMESTAMP PUSH2 0x28DA DUP12 PUSH2 0x2004 JUMP JUMPDEST SWAP4 SWAP3 SWAP2 SWAP1 PUSH2 0x29B1 JUMP JUMPDEST SWAP1 POP PUSH1 0x78 TIMESTAMP DUP9 SWAP1 SUB LT ISZERO DUP1 PUSH2 0x28F8 JUMPI DUP7 PUSH2 0x2901 JUMP JUMPDEST PUSH2 0x2901 DUP8 PUSH2 0x2B55 JUMP JUMPDEST PUSH1 0x0 DUP2 DUP2 MSTORE PUSH1 0x8 PUSH1 0x20 MSTORE PUSH1 0x40 SWAP1 KECCAK256 SWAP3 SWAP1 SWAP3 SSTORE POP SWAP7 SWAP6 POP POP POP POP POP POP JUMP JUMPDEST PUSH1 0x0 PUSH1 0x60 PUSH1 0x0 PUSH2 0x292D DUP5 PUSH2 0x356F JUMP JUMPDEST SWAP1 POP PUSH2 0x2948 PUSH1 0x0 DUP3 PUSH1 0x2 DUP2 GT ISZERO PUSH2 0x2940 JUMPI INVALID JUMPDEST EQ PUSH1 0xCE PUSH2 0x18DB JUMP JUMPDEST PUSH1 0x0 PUSH2 0x2953 DUP6 PUSH2 0x3585 JUMP JUMPDEST SWAP1 POP PUSH2 0x2961 DUP2 MLOAD PUSH1 0x2 PUSH2 0x1DA1 JUMP JUMPDEST PUSH2 0x296A DUP2 PUSH2 0x20FC JUMP JUMPDEST PUSH1 0x0 PUSH2 0x2974 PUSH2 0x2651 JUMP JUMPDEST SWAP1 POP PUSH1 0x0 PUSH2 0x2982 DUP3 DUP5 PUSH2 0x26C0 JUMP JUMPDEST SWAP1 POP PUSH1 0x0 PUSH2 0x2991 DUP3 PUSH1 0x2 PUSH2 0x2079 JUMP JUMPDEST PUSH1 0xA SWAP3 SWAP1 SWAP3 SSTORE POP SWAP10 SWAP2 SWAP9 POP SWAP1 SWAP7 POP POP POP POP POP POP POP JUMP JUMPDEST PUSH2 0x18E9 DUP3 DUP3 PUSH2 0x359B JUMP JUMPDEST PUSH1 0x0 DUP1 PUSH2 0x29BD DUP8 PUSH2 0x27C1 JUMP JUMPDEST DUP4 SUB SWAP1 POP PUSH1 0x0 DUP2 DUP8 MUL PUSH2 0x29CF DUP10 PUSH2 0x324B JUMP JUMPDEST ADD SWAP1 POP PUSH1 0x0 DUP3 DUP8 MUL PUSH2 0x29E0 DUP11 PUSH2 0x3265 JUMP JUMPDEST ADD SWAP1 POP PUSH1 0x0 DUP4 DUP8 MUL PUSH2 0x29F1 DUP12 PUSH2 0x327F JUMP JUMPDEST ADD SWAP1 POP PUSH2 0x2A03 DUP10 DUP5 DUP11 DUP6 DUP12 DUP7 DUP13 PUSH2 0x1CC1 JUMP JUMPDEST SWAP11 SWAP10 POP POP POP POP POP POP POP POP POP POP JUMP JUMPDEST PUSH1 0x0 PUSH20 0xBA1BA1BA1BA1BA1BA1BA1BA1BA1BA1BA1BA1BA1B PUSH2 0x2A30 PUSH2 0xE3A JUMP JUMPDEST PUSH1 0x1 PUSH1 0x1 PUSH1 0xA0 SHL SUB AND EQ ISZERO DUP1 ISZERO PUSH2 0x2A4B JUMPI POP PUSH2 0x2A4B DUP4 PUSH2 0x3629 JUMP JUMPDEST ISZERO PUSH2 0x2A73 JUMPI PUSH2 0x2A58 PUSH2 0xE3A JUMP JUMPDEST PUSH1 0x1 PUSH1 0x1 PUSH1 0xA0 SHL SUB AND CALLER PUSH1 0x1 PUSH1 0x1 PUSH1 0xA0 SHL SUB AND EQ SWAP1 POP PUSH2 0x812 JUMP JUMPDEST PUSH2 0x2A7B PUSH2 0x24F4 JUMP JUMPDEST PUSH1 0x1 PUSH1 0x1 PUSH1 0xA0 SHL SUB AND PUSH4 0x9BE2A884 DUP5 DUP5 ADDRESS PUSH1 0x40 MLOAD DUP5 PUSH4 0xFFFFFFFF AND PUSH1 0xE0 SHL DUP2 MSTORE PUSH1 0x4 ADD PUSH2 0x2AAA SWAP4 SWAP3 SWAP2 SWAP1 PUSH2 0x5396 JUMP JUMPDEST PUSH1 0x20 PUSH1 0x40 MLOAD DUP1 DUP4 SUB DUP2 DUP7 DUP1 EXTCODESIZE ISZERO DUP1 ISZERO PUSH2 0x2AC2 JUMPI PUSH1 0x0 DUP1 REVERT JUMPDEST POP GAS STATICCALL ISZERO DUP1 ISZERO PUSH2 0x2AD6 JUMPI RETURNDATASIZE PUSH1 0x0 DUP1 RETURNDATACOPY RETURNDATASIZE PUSH1 0x0 REVERT JUMPDEST POP POP POP POP PUSH1 0x40 MLOAD RETURNDATASIZE PUSH1 0x1F NOT PUSH1 0x1F DUP3 ADD AND DUP3 ADD DUP1 PUSH1 0x40 MSTORE POP DUP2 ADD SWAP1 PUSH2 0x2750 SWAP2 SWAP1 PUSH2 0x4D33 JUMP JUMPDEST SHR PUSH2 0x3FF AND SWAP1 JUMP JUMPDEST PUSH3 0x461BCD PUSH1 0xE5 SHL PUSH1 0x0 SWAP1 DUP2 MSTORE PUSH1 0x20 PUSH1 0x4 MSTORE PUSH1 0x7 PUSH1 0x24 MSTORE PUSH7 0x42414C23000030 PUSH1 0xA DUP1 DUP5 DIV DUP2 DUP2 MOD PUSH1 0x30 SWAP1 DUP2 ADD PUSH1 0x8 SHL SWAP6 DUP4 SWAP1 MOD SWAP6 SWAP1 SWAP6 ADD SWAP1 DUP3 SWAP1 DIV SWAP2 DUP3 MOD SWAP1 SWAP5 ADD PUSH1 0x10 SHL SWAP4 SWAP1 SWAP4 ADD ADD PUSH1 0xC8 SHL PUSH1 0x44 MSTORE PUSH1 0x64 SWAP1 REVERT JUMPDEST PUSH1 0x0 PUSH2 0xB0A DUP3 PUSH1 0x1 PUSH2 0x3551 JUMP JUMPDEST PUSH1 0x0 PUSH2 0x2B91 PUSH9 0x238FD42C5CF03FFFF NOT DUP4 SLT ISZERO DUP1 ISZERO PUSH2 0x2B8A JUMPI POP PUSH9 0x70C1CC73B00C80000 DUP4 SGT ISZERO JUMPDEST PUSH1 0x9 PUSH2 0x18DB JUMP JUMPDEST PUSH1 0x0 DUP3 SLT ISZERO PUSH2 0x2BC4 JUMPI PUSH2 0x2BA6 DUP3 PUSH1 0x0 SUB PUSH2 0x2B62 JUMP JUMPDEST PUSH11 0xC097CE7BC90715B34B9F1 PUSH1 0x24 SHL DUP2 PUSH2 0x2BBC JUMPI INVALID JUMPDEST SDIV SWAP1 POP PUSH2 0xB0D JUMP JUMPDEST PUSH1 0x0 PUSH9 0x6F05B59D3B2000000 DUP4 SLT PUSH2 0x2C04 JUMPI POP PUSH9 0x6F05B59D3B1FFFFFF NOT SWAP1 SWAP2 ADD SWAP1 PUSH24 0x195E54C5DD42177F53A27172FA9EC630262827000000000 PUSH2 0x2C3A JUMP JUMPDEST PUSH9 0x3782DACE9D9000000 DUP4 SLT PUSH2 0x2C36 JUMPI POP PUSH9 0x3782DACE9D8FFFFFF NOT SWAP1 SWAP2 ADD SWAP1 PUSH12 0x1425982CF597CD205CEF7380 PUSH2 0x2C3A JUMP JUMPDEST POP PUSH1 0x1 JUMPDEST PUSH1 0x64 SWAP3 SWAP1 SWAP3 MUL SWAP2 PUSH9 0x56BC75E2D63100000 PUSH9 0xAD78EBC5AC62000000 DUP5 SLT PUSH2 0x2C8A JUMPI PUSH9 0xAD78EBC5AC61FFFFFF NOT SWAP1 SWAP4 ADD SWAP3 PUSH9 0x56BC75E2D63100000 PUSH15 0x1855144814A7FF805980FF0084000 DUP3 MUL SDIV SWAP1 POP JUMPDEST PUSH9 0x56BC75E2D631000000 DUP5 SLT PUSH2 0x2CC6 JUMPI PUSH9 0x56BC75E2D630FFFFFF NOT SWAP1 SWAP4 ADD SWAP3 PUSH9 0x56BC75E2D63100000 PUSH12 0x2DF0AB5A80A22C61AB5A700 DUP3 MUL SDIV SWAP1 POP JUMPDEST PUSH9 0x2B5E3AF16B18800000 DUP5 SLT PUSH2 0x2D00 JUMPI PUSH9 0x2B5E3AF16B187FFFFF NOT SWAP1 SWAP4 ADD SWAP3 PUSH9 0x56BC75E2D63100000 PUSH10 0x3F1FCE3DA636EA5CF850 DUP3 MUL SDIV SWAP1 POP JUMPDEST PUSH9 0x15AF1D78B58C400000 DUP5 SLT PUSH2 0x2D3A JUMPI PUSH9 0x15AF1D78B58C3FFFFF NOT SWAP1 SWAP4 ADD SWAP3 PUSH9 0x56BC75E2D63100000 PUSH10 0x127FA27722CC06CC5E2 DUP3 MUL SDIV SWAP1 POP JUMPDEST PUSH9 0xAD78EBC5AC6200000 DUP5 SLT PUSH2 0x2D73 JUMPI PUSH9 0xAD78EBC5AC61FFFFF NOT SWAP1 SWAP4 ADD SWAP3 PUSH9 0x56BC75E2D63100000 PUSH9 0x280E60114EDB805D03 DUP3 MUL SDIV SWAP1 POP JUMPDEST PUSH9 0x56BC75E2D63100000 DUP5 SLT PUSH2 0x2DAC JUMPI PUSH9 0x56BC75E2D630FFFFF NOT SWAP1 SWAP4 ADD SWAP3 PUSH9 0x56BC75E2D63100000 PUSH9 0xEBC5FB41746121110 DUP3 MUL SDIV SWAP1 POP JUMPDEST PUSH9 0x2B5E3AF16B1880000 DUP5 SLT PUSH2 0x2DE5 JUMPI PUSH9 0x2B5E3AF16B187FFFF NOT SWAP1 SWAP4 ADD SWAP3 PUSH9 0x56BC75E2D63100000 PUSH9 0x8F00F760A4B2DB55D DUP3 MUL SDIV SWAP1 POP JUMPDEST PUSH9 0x15AF1D78B58C40000 DUP5 SLT PUSH2 0x2E1E JUMPI PUSH9 0x15AF1D78B58C3FFFF NOT SWAP1 SWAP4 ADD SWAP3 PUSH9 0x56BC75E2D63100000 PUSH9 0x6F5F1775788937937 DUP3 MUL SDIV SWAP1 POP JUMPDEST PUSH9 0x56BC75E2D63100000 DUP5 DUP2 ADD SWAP1 DUP6 SWAP1 PUSH1 0x2 SWAP1 DUP3 DUP1 MUL SDIV SDIV SWAP2 DUP3 ADD SWAP2 SWAP1 POP PUSH1 0x3 PUSH9 0x56BC75E2D63100000 DUP8 DUP4 MUL SDIV SDIV SWAP2 DUP3 ADD SWAP2 SWAP1 POP PUSH1 0x4 PUSH9 0x56BC75E2D63100000 DUP8 DUP4 MUL SDIV SDIV SWAP2 DUP3 ADD SWAP2 SWAP1 POP PUSH1 0x5 PUSH9 0x56BC75E2D63100000 DUP8 DUP4 MUL SDIV SDIV SWAP2 DUP3 ADD SWAP2 SWAP1 POP PUSH1 0x6 PUSH9 0x56BC75E2D63100000 DUP8 DUP4 MUL SDIV SDIV SWAP2 DUP3 ADD SWAP2 SWAP1 POP PUSH1 0x7 PUSH9 0x56BC75E2D63100000 DUP8 DUP4 MUL SDIV SDIV SWAP2 DUP3 ADD SWAP2 SWAP1 POP PUSH1 0x8 PUSH9 0x56BC75E2D63100000 DUP8 DUP4 MUL SDIV SDIV SWAP2 DUP3 ADD SWAP2 SWAP1 POP PUSH1 0x9 PUSH9 0x56BC75E2D63100000 DUP8 DUP4 MUL SDIV SDIV SWAP2 DUP3 ADD SWAP2 SWAP1 POP PUSH1 0xA PUSH9 0x56BC75E2D63100000 DUP8 DUP4 MUL SDIV SDIV SWAP2 DUP3 ADD SWAP2 SWAP1 POP PUSH1 0xB PUSH9 0x56BC75E2D63100000 DUP8 DUP4 MUL SDIV SDIV SWAP2 DUP3 ADD SWAP2 SWAP1 POP PUSH1 0xC PUSH9 0x56BC75E2D63100000 DUP8 DUP4 MUL SDIV SDIV SWAP2 DUP3 ADD SWAP2 SWAP1 POP PUSH1 0x64 PUSH9 0x56BC75E2D63100000 DUP5 DUP5 MUL SDIV DUP6 MUL SDIV SWAP7 SWAP6 POP POP POP POP POP POP JUMP JUMPDEST PUSH1 0x0 PUSH2 0x2F4E DUP5 DUP5 GT ISZERO DUP4 PUSH2 0x18DB JUMP JUMPDEST POP POP SWAP1 SUB SWAP1 JUMP JUMPDEST PUSH1 0x0 PUSH2 0x9D2 DUP4 DUP4 DUP4 PUSH2 0x365B JUMP JUMPDEST PUSH1 0x0 PUSH2 0x9D2 DUP4 DUP4 PUSH1 0x16 PUSH2 0x365B JUMP JUMPDEST CHAINID SWAP1 JUMP JUMPDEST SHL SWAP1 JUMP JUMPDEST PUSH7 0x1FFFFFFFFFFFFF SWAP2 SWAP1 SWAP2 AND SWAP1 SHL SWAP1 JUMP JUMPDEST PUSH3 0x3FFFFF SWAP2 SWAP1 SWAP2 AND SWAP1 SHL SWAP1 JUMP JUMPDEST PUSH1 0x0 DUP3 DUP3 SHR PUSH3 0x3FFFFF AND PUSH3 0x1FFFFF DUP2 SGT PUSH2 0x2FB0 JUMPI DUP1 PUSH2 0xA07 JUMP JUMPDEST PUSH3 0x3FFFFF NOT OR SWAP4 SWAP3 POP POP POP JUMP JUMPDEST SHR PUSH4 0x7FFFFFFF AND SWAP1 JUMP JUMPDEST SHR PUSH1 0x1 SWAP1 DUP2 AND EQ SWAP1 JUMP JUMPDEST SHR PUSH1 0x1 PUSH1 0x1 PUSH1 0x40 SHL SUB AND SWAP1 JUMP JUMPDEST PUSH1 0x0 PUSH2 0x2FEE PUSH1 0x0 DUP4 SGT PUSH1 0x64 PUSH2 0x18DB JUMP JUMPDEST PUSH8 0xC7D713B49DA0000 DUP3 SGT DUP1 ISZERO PUSH2 0x300C JUMPI POP PUSH8 0xF43FC2C04EE0000 DUP3 SLT JUMPDEST ISZERO PUSH2 0x302A JUMPI PUSH8 0xDE0B6B3A7640000 PUSH2 0x3023 DUP4 PUSH2 0x3672 JUMP JUMPDEST DUP2 PUSH2 0x2BBC JUMPI INVALID JUMPDEST PUSH2 0x3033 DUP3 PUSH2 0x3790 JUMP JUMPDEST SWAP1 POP PUSH2 0xB0D JUMP JUMPDEST PUSH1 0x40 DUP1 MLOAD PUSH1 0x2 DUP1 DUP3 MSTORE PUSH1 0x60 DUP1 DUP4 ADD DUP5 MSTORE SWAP3 PUSH1 0x0 SWAP3 SWAP2 SWAP1 PUSH1 0x20 DUP4 ADD SWAP1 DUP1 CALLDATASIZE DUP4 CALLDATACOPY ADD SWAP1 POP POP SWAP1 POP DUP3 PUSH2 0x306B JUMPI SWAP1 POP PUSH2 0x1284 JUMP JUMPDEST PUSH2 0x30DE DUP8 PUSH32 0x0 DUP2 MLOAD DUP2 LT PUSH2 0x309A JUMPI INVALID JUMPDEST PUSH1 0x20 MUL PUSH1 0x20 ADD ADD MLOAD DUP8 PUSH32 0x0 DUP2 MLOAD DUP2 LT PUSH2 0x30CE JUMPI INVALID JUMPDEST PUSH1 0x20 MUL PUSH1 0x20 ADD ADD MLOAD DUP8 DUP8 DUP8 PUSH2 0x3B2F JUMP JUMPDEST DUP2 PUSH32 0x0 DUP2 MLOAD DUP2 LT PUSH2 0x310A JUMPI INVALID JUMPDEST PUSH1 0x20 SWAP1 DUP2 MUL SWAP2 SWAP1 SWAP2 ADD ADD MSTORE SWAP7 SWAP6 POP POP POP POP POP POP JUMP JUMPDEST PUSH2 0x3155 DUP4 PUSH1 0x0 DUP2 MLOAD DUP2 LT PUSH2 0x312F JUMPI INVALID JUMPDEST PUSH1 0x20 MUL PUSH1 0x20 ADD ADD MLOAD DUP4 PUSH1 0x0 DUP2 MLOAD DUP2 LT PUSH2 0x3144 JUMPI INVALID JUMPDEST PUSH1 0x20 MUL PUSH1 0x20 ADD ADD MLOAD DUP4 PUSH4 0xFFFFFFFF AND JUMP JUMPDEST DUP4 PUSH1 0x0 DUP2 MLOAD DUP2 LT PUSH2 0x3162 JUMPI INVALID JUMPDEST PUSH1 0x20 MUL PUSH1 0x20 ADD ADD DUP2 DUP2 MSTORE POP POP PUSH2 0x3193 DUP4 PUSH1 0x1 DUP2 MLOAD DUP2 LT PUSH2 0x317E JUMPI INVALID JUMPDEST PUSH1 0x20 MUL PUSH1 0x20 ADD ADD MLOAD DUP4 PUSH1 0x1 DUP2 MLOAD DUP2 LT PUSH2 0x3144 JUMPI INVALID JUMPDEST DUP4 PUSH1 0x1 DUP2 MLOAD DUP2 LT PUSH2 0x31A0 JUMPI INVALID JUMPDEST PUSH1 0x20 MUL PUSH1 0x20 ADD ADD DUP2 DUP2 MSTORE POP POP POP POP POP JUMP JUMPDEST PUSH1 0x0 PUSH1 0x60 PUSH1 0x0 PUSH2 0x31C0 DUP5 PUSH2 0x356F JUMP JUMPDEST SWAP1 POP PUSH1 0x0 DUP2 PUSH1 0x2 DUP2 GT ISZERO PUSH2 0x31D0 JUMPI INVALID JUMPDEST EQ ISZERO PUSH2 0x31EB JUMPI PUSH2 0x31E1 DUP7 DUP7 DUP7 PUSH2 0x3BA7 JUMP JUMPDEST SWAP3 POP SWAP3 POP POP PUSH2 0x3216 JUMP JUMPDEST PUSH1 0x1 DUP2 PUSH1 0x2 DUP2 GT ISZERO PUSH2 0x31F9 JUMPI INVALID JUMPDEST EQ ISZERO PUSH2 0x3209 JUMPI PUSH2 0x31E1 DUP7 DUP6 PUSH2 0x3C58 JUMP JUMPDEST PUSH2 0x31E1 DUP7 DUP7 DUP7 PUSH2 0x3C8A JUMP JUMPDEST POP JUMPDEST SWAP4 POP SWAP4 SWAP2 POP POP JUMP JUMPDEST PUSH1 0x0 PUSH2 0x322D DUP3 ISZERO ISZERO PUSH1 0x4 PUSH2 0x18DB JUMP JUMPDEST DUP2 DUP4 DUP2 PUSH2 0x3236 JUMPI INVALID JUMPDEST DIV SWAP4 SWAP3 POP POP POP JUMP JUMPDEST PUSH1 0x0 PUSH2 0xB0A DUP3 PUSH1 0xEA PUSH2 0x2F96 JUMP JUMPDEST PUSH1 0x0 PUSH2 0xB0A DUP3 PUSH1 0xB5 PUSH2 0x3CF5 JUMP JUMPDEST PUSH1 0x0 PUSH2 0xB0A DUP3 PUSH1 0x9F PUSH2 0x2F96 JUMP JUMPDEST PUSH1 0x0 PUSH2 0xB0A DUP3 PUSH1 0x6A PUSH2 0x3CF5 JUMP JUMPDEST PUSH1 0x0 PUSH2 0xB0A DUP3 PUSH1 0x54 PUSH2 0x2F96 JUMP JUMPDEST PUSH1 0x0 PUSH2 0xB0A DUP3 PUSH1 0x1F PUSH2 0x3CF5 JUMP JUMPDEST PUSH2 0x3FF DUP2 SHL NOT SWAP3 SWAP1 SWAP3 AND SWAP2 SHL OR SWAP1 JUMP JUMPDEST PUSH2 0x32B3 PUSH1 0x1 PUSH1 0x1 PUSH1 0xA0 SHL SUB DUP4 AND ISZERO ISZERO PUSH2 0x19B PUSH2 0x18DB JUMP JUMPDEST PUSH2 0x32BF DUP3 PUSH1 0x0 DUP4 PUSH2 0x1692 JUMP JUMPDEST PUSH1 0x1 PUSH1 0x1 PUSH1 0xA0 SHL SUB DUP3 AND PUSH1 0x0 SWAP1 DUP2 MSTORE PUSH1 0x20 DUP2 SWAP1 MSTORE PUSH1 0x40 SWAP1 KECCAK256 SLOAD PUSH2 0x32E5 SWAP1 DUP3 PUSH2 0x1A1 PUSH2 0x2F3F JUMP JUMPDEST PUSH1 0x1 PUSH1 0x1 PUSH1 0xA0 SHL SUB DUP4 AND PUSH1 0x0 SWAP1 DUP2 MSTORE PUSH1 0x20 DUP2 SWAP1 MSTORE PUSH1 0x40 SWAP1 KECCAK256 SSTORE PUSH1 0x2 SLOAD PUSH2 0x330B SWAP1 DUP3 PUSH2 0x3D28 JUMP JUMPDEST PUSH1 0x2 SSTORE PUSH1 0x40 MLOAD PUSH1 0x0 SWAP1 PUSH1 0x1 PUSH1 0x1 PUSH1 0xA0 SHL SUB DUP5 AND SWAP1 PUSH32 0xDDF252AD1BE2C89B69C2B068FC378DAA952BA7F163C4A11628F55A4DF523B3EF SWAP1 PUSH2 0x334C SWAP1 DUP6 SWAP1 PUSH2 0x538D JUMP JUMPDEST PUSH1 0x40 MLOAD DUP1 SWAP2 SUB SWAP1 LOG3 POP POP JUMP JUMPDEST PUSH1 0x0 PUSH1 0x60 PUSH1 0x0 PUSH2 0x3367 DUP5 PUSH2 0x356F JUMP JUMPDEST SWAP1 POP PUSH1 0x1 DUP2 PUSH1 0x2 DUP2 GT ISZERO PUSH2 0x3377 JUMPI INVALID JUMPDEST EQ ISZERO PUSH2 0x3388 JUMPI PUSH2 0x31E1 DUP7 DUP7 DUP7 PUSH2 0x3D36 JUMP JUMPDEST PUSH1 0x2 DUP2 PUSH1 0x2 DUP2 GT ISZERO PUSH2 0x3396 JUMPI INVALID JUMPDEST EQ ISZERO PUSH2 0x33A7 JUMPI PUSH2 0x31E1 DUP7 DUP7 DUP7 PUSH2 0x3D8C JUMP JUMPDEST PUSH2 0x3214 PUSH2 0x136 PUSH2 0x2B02 JUMP JUMPDEST PUSH1 0x0 PUSH2 0x33C1 DUP3 ISZERO ISZERO PUSH1 0x4 PUSH2 0x18DB JUMP JUMPDEST DUP3 PUSH2 0x33CE JUMPI POP PUSH1 0x0 PUSH2 0x812 JUMP JUMPDEST DUP2 PUSH1 0x1 DUP5 SUB DUP2 PUSH2 0x33DA JUMPI INVALID JUMPDEST DIV PUSH1 0x1 ADD SWAP1 POP PUSH2 0x812 JUMP JUMPDEST PUSH1 0x0 PUSH2 0x9D2 DUP4 DUP4 PUSH1 0x2C PUSH2 0x3E10 JUMP JUMPDEST PUSH1 0x0 PUSH2 0x3415 PUSH2 0x340A DUP8 PUSH8 0x429D069189E0000 PUSH2 0x3525 JUMP JUMPDEST DUP4 GT ISZERO PUSH2 0x130 PUSH2 0x18DB JUMP JUMPDEST PUSH1 0x0 PUSH2 0x3421 DUP8 DUP5 PUSH2 0x16D5 JUMP JUMPDEST SWAP1 POP PUSH1 0x0 PUSH2 0x342F DUP9 DUP4 PUSH2 0x24B2 JUMP JUMPDEST SWAP1 POP PUSH1 0x0 PUSH2 0x343D DUP9 DUP8 PUSH2 0x209D JUMP JUMPDEST SWAP1 POP PUSH1 0x0 PUSH2 0x344B DUP4 DUP4 PUSH2 0x3E22 JUMP JUMPDEST SWAP1 POP PUSH2 0x2A03 PUSH2 0x3459 DUP3 PUSH2 0x248C JUMP JUMPDEST DUP10 SWAP1 PUSH2 0x3525 JUMP JUMPDEST PUSH1 0x0 PUSH2 0x3482 PUSH2 0x3477 DUP6 PUSH8 0x429D069189E0000 PUSH2 0x3525 JUMP JUMPDEST DUP4 GT ISZERO PUSH2 0x131 PUSH2 0x18DB JUMP JUMPDEST PUSH1 0x0 PUSH2 0x3498 PUSH2 0x3491 DUP7 DUP6 PUSH2 0x1703 JUMP JUMPDEST DUP7 SWAP1 PUSH2 0x24B2 JUMP JUMPDEST SWAP1 POP PUSH1 0x0 PUSH2 0x34A6 DUP6 DUP9 PUSH2 0x24B2 JUMP JUMPDEST SWAP1 POP PUSH1 0x0 PUSH2 0x34B4 DUP4 DUP4 PUSH2 0x3E22 JUMP JUMPDEST SWAP1 POP PUSH1 0x0 PUSH2 0x34CA DUP3 PUSH8 0xDE0B6B3A7640000 PUSH2 0x1703 JUMP JUMPDEST SWAP1 POP PUSH2 0x2A03 DUP11 DUP3 PUSH2 0x2400 JUMP JUMPDEST PUSH1 0x0 DUP1 PUSH2 0x34E3 DUP5 DUP5 PUSH2 0x3E4E JUMP JUMPDEST SWAP1 POP PUSH1 0x0 PUSH2 0x34FD PUSH2 0x34F6 DUP4 PUSH2 0x2710 PUSH2 0x2400 JUMP JUMPDEST PUSH1 0x1 PUSH2 0x16D5 JUMP JUMPDEST SWAP1 POP DUP1 DUP3 LT ISZERO PUSH2 0x3512 JUMPI PUSH1 0x0 SWAP3 POP POP POP PUSH2 0x812 JUMP JUMPDEST PUSH2 0x351C DUP3 DUP3 PUSH2 0x1703 JUMP JUMPDEST SWAP3 POP POP POP PUSH2 0x812 JUMP JUMPDEST PUSH1 0x0 DUP3 DUP3 MUL PUSH2 0x353F DUP5 ISZERO DUP1 PUSH2 0x2096 JUMPI POP DUP4 DUP6 DUP4 DUP2 PUSH2 0x2093 JUMPI INVALID JUMPDEST PUSH8 0xDE0B6B3A7640000 SWAP1 DIV SWAP4 SWAP3 POP POP POP JUMP JUMPDEST PUSH1 0x0 PUSH2 0x400 DUP4 DUP4 ADD JUMPDEST MOD SWAP4 SWAP3 POP POP POP JUMP JUMPDEST PUSH1 0x0 PUSH2 0xB0A DUP3 PUSH1 0x1 PUSH2 0x3F4F JUMP JUMPDEST PUSH1 0x0 DUP2 DUP1 PUSH1 0x20 ADD SWAP1 MLOAD DUP2 ADD SWAP1 PUSH2 0xB0A SWAP2 SWAP1 PUSH2 0x4E87 JUMP JUMPDEST PUSH1 0x60 DUP2 DUP1 PUSH1 0x20 ADD SWAP1 MLOAD DUP2 ADD SWAP1 PUSH2 0x9D2 SWAP2 SWAP1 PUSH2 0x4F4C JUMP JUMPDEST PUSH2 0x35A7 PUSH1 0x0 DUP4 DUP4 PUSH2 0x1692 JUMP JUMPDEST PUSH1 0x2 SLOAD PUSH2 0x35B4 SWAP1 DUP3 PUSH2 0x16D5 JUMP JUMPDEST PUSH1 0x2 SSTORE PUSH1 0x1 PUSH1 0x1 PUSH1 0xA0 SHL SUB DUP3 AND PUSH1 0x0 SWAP1 DUP2 MSTORE PUSH1 0x20 DUP2 SWAP1 MSTORE PUSH1 0x40 SWAP1 KECCAK256 SLOAD PUSH2 0x35DA SWAP1 DUP3 PUSH2 0x16D5 JUMP JUMPDEST PUSH1 0x1 PUSH1 0x1 PUSH1 0xA0 SHL SUB DUP4 AND PUSH1 0x0 DUP2 DUP2 MSTORE PUSH1 0x20 DUP2 SWAP1 MSTORE PUSH1 0x40 DUP1 DUP3 KECCAK256 SWAP4 SWAP1 SWAP4 SSTORE SWAP2 MLOAD SWAP1 SWAP2 SWAP1 PUSH32 0xDDF252AD1BE2C89B69C2B068FC378DAA952BA7F163C4A11628F55A4DF523B3EF SWAP1 PUSH2 0x334C SWAP1 DUP6 SWAP1 PUSH2 0x538D JUMP JUMPDEST PUSH1 0x0 PUSH2 0x363B PUSH4 0x1C74C917 PUSH1 0xE1 SHL PUSH2 0xDC3 JUMP JUMPDEST DUP3 EQ DUP1 PUSH2 0xB0A JUMPI POP PUSH2 0x3653 PUSH4 0x50DD6ED9 PUSH1 0xE0 SHL PUSH2 0xDC3 JUMP JUMPDEST SWAP1 SWAP2 EQ SWAP2 SWAP1 POP JUMP JUMPDEST PUSH3 0x3FFFFF DUP3 DUP2 AND DUP3 SHL SWAP1 DUP3 SHL NOT DUP5 AND OR SWAP4 SWAP3 POP POP POP JUMP JUMPDEST PUSH8 0xDE0B6B3A7640000 MUL PUSH1 0x0 DUP1 PUSH11 0xC097CE7BC90715B34B9F1 PUSH1 0x24 SHL DUP1 DUP5 ADD SWAP1 PUSH15 0xC097CE7BC90715B34B9F0FFFFFFFFF NOT DUP6 ADD MUL DUP2 PUSH2 0x36AD JUMPI INVALID JUMPDEST SDIV SWAP1 POP PUSH1 0x0 PUSH11 0xC097CE7BC90715B34B9F1 PUSH1 0x24 SHL DUP3 DUP1 MUL SDIV SWAP1 POP DUP2 DUP1 PUSH11 0xC097CE7BC90715B34B9F1 PUSH1 0x24 SHL DUP2 DUP5 MUL SDIV SWAP2 POP PUSH1 0x3 DUP3 SDIV ADD PUSH11 0xC097CE7BC90715B34B9F1 PUSH1 0x24 SHL DUP3 DUP5 MUL SDIV SWAP2 POP PUSH1 0x5 DUP3 SDIV ADD PUSH11 0xC097CE7BC90715B34B9F1 PUSH1 0x24 SHL DUP3 DUP5 MUL SDIV SWAP2 POP PUSH1 0x7 DUP3 SDIV ADD PUSH11 0xC097CE7BC90715B34B9F1 PUSH1 0x24 SHL DUP3 DUP5 MUL SDIV SWAP2 POP PUSH1 0x9 DUP3 SDIV ADD PUSH11 0xC097CE7BC90715B34B9F1 PUSH1 0x24 SHL DUP3 DUP5 MUL SDIV SWAP2 POP PUSH1 0xB DUP3 SDIV ADD PUSH11 0xC097CE7BC90715B34B9F1 PUSH1 0x24 SHL DUP3 DUP5 MUL SDIV SWAP2 POP PUSH1 0xD DUP3 SDIV ADD PUSH11 0xC097CE7BC90715B34B9F1 PUSH1 0x24 SHL DUP3 DUP5 MUL SDIV SWAP2 POP PUSH1 0xF DUP3 PUSH1 0x2 SWAP2 SWAP1 SDIV SWAP2 SWAP1 SWAP2 ADD MUL SWAP6 SWAP5 POP POP POP POP POP JUMP JUMPDEST PUSH1 0x0 PUSH8 0xDE0B6B3A7640000 DUP3 SLT ISZERO PUSH2 0x37CC JUMPI PUSH2 0x37C2 DUP3 PUSH11 0xC097CE7BC90715B34B9F1 PUSH1 0x24 SHL DUP2 PUSH2 0x37BC JUMPI INVALID JUMPDEST SDIV PUSH2 0x3790 JUMP JUMPDEST PUSH1 0x0 SUB SWAP1 POP PUSH2 0xB0D JUMP JUMPDEST PUSH1 0x0 PUSH31 0x1600EF3172E58D2E933EC884FDE10064C63B5372D805E203C0000000000000 DUP4 SLT PUSH2 0x381D JUMPI PUSH24 0x195E54C5DD42177F53A27172FA9EC630262827000000000 DUP4 SDIV SWAP3 POP PUSH9 0x6F05B59D3B2000000 ADD JUMPDEST PUSH20 0x11798004D755D3C8BC8E03204CF44619E000000 DUP4 SLT PUSH2 0x3855 JUMPI PUSH12 0x1425982CF597CD205CEF7380 DUP4 SDIV SWAP3 POP PUSH9 0x3782DACE9D9000000 ADD JUMPDEST PUSH1 0x64 SWAP3 DUP4 MUL SWAP3 MUL PUSH15 0x1855144814A7FF805980FF0084000 DUP4 SLT PUSH2 0x389D JUMPI PUSH15 0x1855144814A7FF805980FF0084000 PUSH9 0x56BC75E2D63100000 DUP5 MUL SDIV SWAP3 POP PUSH9 0xAD78EBC5AC62000000 ADD JUMPDEST PUSH12 0x2DF0AB5A80A22C61AB5A700 DUP4 SLT PUSH2 0x38D8 JUMPI PUSH12 0x2DF0AB5A80A22C61AB5A700 PUSH9 0x56BC75E2D63100000 DUP5 MUL SDIV SWAP3 POP PUSH9 0x56BC75E2D631000000 ADD JUMPDEST PUSH10 0x3F1FCE3DA636EA5CF850 DUP4 SLT PUSH2 0x390F JUMPI PUSH10 0x3F1FCE3DA636EA5CF850 PUSH9 0x56BC75E2D63100000 DUP5 MUL SDIV SWAP3 POP PUSH9 0x2B5E3AF16B18800000 ADD JUMPDEST PUSH10 0x127FA27722CC06CC5E2 DUP4 SLT PUSH2 0x3946 JUMPI PUSH10 0x127FA27722CC06CC5E2 PUSH9 0x56BC75E2D63100000 DUP5 MUL SDIV SWAP3 POP PUSH9 0x15AF1D78B58C400000 ADD JUMPDEST PUSH9 0x280E60114EDB805D03 DUP4 SLT PUSH2 0x397B JUMPI PUSH9 0x280E60114EDB805D03 PUSH9 0x56BC75E2D63100000 DUP5 MUL SDIV SWAP3 POP PUSH9 0xAD78EBC5AC6200000 ADD JUMPDEST PUSH9 0xEBC5FB41746121110 DUP4 SLT PUSH2 0x39A6 JUMPI PUSH9 0xEBC5FB41746121110 PUSH9 0x56BC75E2D63100000 SWAP4 DUP5 MUL SDIV SWAP3 ADD JUMPDEST PUSH9 0x8F00F760A4B2DB55D DUP4 SLT PUSH2 0x39DB JUMPI PUSH9 0x8F00F760A4B2DB55D PUSH9 0x56BC75E2D63100000 DUP5 MUL SDIV SWAP3 POP PUSH9 0x2B5E3AF16B1880000 ADD JUMPDEST PUSH9 0x6F5F1775788937937 DUP4 SLT PUSH2 0x3A10 JUMPI PUSH9 0x6F5F1775788937937 PUSH9 0x56BC75E2D63100000 DUP5 MUL SDIV SWAP3 POP PUSH9 0x15AF1D78B58C40000 ADD JUMPDEST PUSH9 0x6248F33704B286603 DUP4 SLT PUSH2 0x3A44 JUMPI PUSH9 0x6248F33704B286603 PUSH9 0x56BC75E2D63100000 DUP5 MUL SDIV SWAP3 POP PUSH8 0xAD78EBC5AC620000 ADD JUMPDEST PUSH9 0x5C548670B9510E7AC DUP4 SLT PUSH2 0x3A78 JUMPI PUSH9 0x5C548670B9510E7AC PUSH9 0x56BC75E2D63100000 DUP5 MUL SDIV SWAP3 POP PUSH8 0x56BC75E2D6310000 ADD JUMPDEST PUSH1 0x0 PUSH9 0x56BC75E2D63100000 DUP5 ADD PUSH9 0x56BC75E2D63100000 DUP1 DUP7 SUB MUL DUP2 PUSH2 0x3A9B JUMPI INVALID JUMPDEST SDIV SWAP1 POP PUSH1 0x0 PUSH9 0x56BC75E2D63100000 DUP3 DUP1 MUL SDIV SWAP1 POP DUP2 DUP1 PUSH9 0x56BC75E2D63100000 DUP2 DUP5 MUL SDIV SWAP2 POP PUSH1 0x3 DUP3 SDIV ADD PUSH9 0x56BC75E2D63100000 DUP3 DUP5 MUL SDIV SWAP2 POP PUSH1 0x5 DUP3 SDIV ADD PUSH9 0x56BC75E2D63100000 DUP3 DUP5 MUL SDIV SWAP2 POP PUSH1 0x7 DUP3 SDIV ADD PUSH9 0x56BC75E2D63100000 DUP3 DUP5 MUL SDIV SWAP2 POP PUSH1 0x9 DUP3 SDIV ADD PUSH9 0x56BC75E2D63100000 DUP3 DUP5 MUL SDIV SWAP2 POP PUSH1 0xB DUP3 SDIV ADD PUSH1 0x2 MUL PUSH1 0x64 DUP6 DUP3 ADD SDIV SWAP8 SWAP7 POP POP POP POP POP POP POP JUMP JUMPDEST PUSH1 0x0 DUP4 DUP4 GT PUSH2 0x3B40 JUMPI POP PUSH1 0x0 PUSH2 0x1284 JUMP JUMPDEST PUSH1 0x0 PUSH2 0x3B4C DUP6 DUP6 PUSH2 0x24B2 JUMP JUMPDEST SWAP1 POP PUSH1 0x0 PUSH2 0x3B62 PUSH8 0xDE0B6B3A7640000 DUP9 PUSH2 0x209D JUMP JUMPDEST SWAP1 POP PUSH2 0x3B76 DUP3 PUSH8 0x9B6E64A8EC60000 PUSH2 0x3F5E JUMP JUMPDEST SWAP2 POP PUSH1 0x0 PUSH2 0x3B84 DUP4 DUP4 PUSH2 0x3E22 JUMP JUMPDEST SWAP1 POP PUSH1 0x0 PUSH2 0x3B9B PUSH2 0x3B94 DUP4 PUSH2 0x248C JUMP JUMPDEST DUP12 SWAP1 PUSH2 0x3525 JUMP JUMPDEST SWAP1 POP PUSH2 0x2A03 DUP2 DUP8 PUSH2 0x3525 JUMP JUMPDEST PUSH1 0x0 PUSH1 0x60 PUSH2 0x3BB3 PUSH2 0x1B26 JUMP JUMPDEST PUSH1 0x0 DUP1 PUSH2 0x3BBF DUP6 PUSH2 0x3F75 JUMP JUMPDEST SWAP2 POP SWAP2 POP PUSH2 0x3BD1 PUSH1 0x2 DUP3 LT PUSH1 0x64 PUSH2 0x18DB JUMP JUMPDEST PUSH1 0x40 DUP1 MLOAD PUSH1 0x2 DUP1 DUP3 MSTORE PUSH1 0x60 DUP3 ADD DUP4 MSTORE PUSH1 0x0 SWAP3 PUSH1 0x20 DUP4 ADD SWAP1 DUP1 CALLDATASIZE DUP4 CALLDATACOPY ADD SWAP1 POP POP SWAP1 POP PUSH2 0x3C33 DUP9 DUP4 DUP2 MLOAD DUP2 LT PUSH2 0x3C01 JUMPI INVALID JUMPDEST PUSH1 0x20 MUL PUSH1 0x20 ADD ADD MLOAD DUP9 DUP5 DUP2 MLOAD DUP2 LT PUSH2 0x3C15 JUMPI INVALID JUMPDEST PUSH1 0x20 MUL PUSH1 0x20 ADD ADD MLOAD DUP6 PUSH2 0x3C26 PUSH2 0x82C JUMP JUMPDEST PUSH2 0x3C2E PUSH2 0xB6D JUMP JUMPDEST PUSH2 0x3F97 JUMP JUMPDEST DUP2 DUP4 DUP2 MLOAD DUP2 LT PUSH2 0x3C3F JUMPI INVALID JUMPDEST PUSH1 0x20 SWAP1 DUP2 MUL SWAP2 SWAP1 SWAP2 ADD ADD MSTORE SWAP2 SWAP8 SWAP2 SWAP7 POP SWAP1 SWAP5 POP POP POP POP POP JUMP JUMPDEST PUSH1 0x0 PUSH1 0x60 PUSH1 0x0 PUSH2 0x3C67 DUP5 PUSH2 0x4057 JUMP JUMPDEST SWAP1 POP PUSH1 0x0 PUSH2 0x3C7D DUP7 DUP4 PUSH2 0x3C78 PUSH2 0x82C JUMP JUMPDEST PUSH2 0x406D JUMP JUMPDEST SWAP2 SWAP7 SWAP2 SWAP6 POP SWAP1 SWAP4 POP POP POP POP JUMP JUMPDEST PUSH1 0x0 PUSH1 0x60 PUSH2 0x3C96 PUSH2 0x1B26 JUMP JUMPDEST PUSH1 0x0 DUP1 PUSH2 0x3CA2 DUP6 PUSH2 0x411E JUMP JUMPDEST SWAP2 POP SWAP2 POP PUSH2 0x3CB2 DUP3 MLOAD PUSH1 0x2 PUSH2 0x1DA1 JUMP JUMPDEST PUSH2 0x3CBB DUP3 PUSH2 0x20FC JUMP JUMPDEST PUSH1 0x0 PUSH2 0x3CD8 DUP9 DUP9 DUP6 PUSH2 0x3CCB PUSH2 0x82C JUMP JUMPDEST PUSH2 0x3CD3 PUSH2 0xB6D JUMP JUMPDEST PUSH2 0x4136 JUMP JUMPDEST SWAP1 POP PUSH2 0x3CE8 DUP3 DUP3 GT ISZERO PUSH1 0xCF PUSH2 0x18DB JUMP JUMPDEST SWAP8 SWAP2 SWAP7 POP SWAP1 SWAP5 POP POP POP POP POP JUMP JUMPDEST PUSH1 0x0 DUP3 DUP3 SHR PUSH7 0x1FFFFFFFFFFFFF AND PUSH7 0xFFFFFFFFFFFFF DUP2 SGT PUSH2 0x3D17 JUMPI DUP1 PUSH2 0xA07 JUMP JUMPDEST PUSH7 0x1FFFFFFFFFFFFF NOT OR SWAP4 SWAP3 POP POP POP JUMP JUMPDEST PUSH1 0x0 PUSH2 0x9D2 DUP4 DUP4 PUSH1 0x1 PUSH2 0x2F3F JUMP JUMPDEST PUSH1 0x0 PUSH1 0x60 PUSH1 0x0 DUP1 PUSH2 0x3D46 DUP6 PUSH2 0x411E JUMP JUMPDEST SWAP2 POP SWAP2 POP PUSH2 0x3D56 DUP3 MLOAD PUSH1 0x2 PUSH2 0x1DA1 JUMP JUMPDEST PUSH2 0x3D5F DUP3 PUSH2 0x20FC JUMP JUMPDEST PUSH1 0x0 PUSH2 0x3D7C DUP9 DUP9 DUP6 PUSH2 0x3D6F PUSH2 0x82C JUMP JUMPDEST PUSH2 0x3D77 PUSH2 0xB6D JUMP JUMPDEST PUSH2 0x4369 JUMP JUMPDEST SWAP1 POP PUSH2 0x3CE8 DUP3 DUP3 LT ISZERO PUSH1 0xD0 PUSH2 0x18DB JUMP JUMPDEST PUSH1 0x0 PUSH1 0x60 PUSH1 0x0 DUP1 PUSH2 0x3D9C DUP6 PUSH2 0x3F75 JUMP JUMPDEST SWAP2 POP SWAP2 POP PUSH2 0x3DAE PUSH1 0x2 DUP3 LT PUSH1 0x64 PUSH2 0x18DB JUMP JUMPDEST PUSH1 0x40 DUP1 MLOAD PUSH1 0x2 DUP1 DUP3 MSTORE PUSH1 0x60 DUP3 ADD DUP4 MSTORE PUSH1 0x0 SWAP3 PUSH1 0x20 DUP4 ADD SWAP1 DUP1 CALLDATASIZE DUP4 CALLDATACOPY ADD SWAP1 POP POP SWAP1 POP PUSH2 0x3C33 DUP9 DUP4 DUP2 MLOAD DUP2 LT PUSH2 0x3DDE JUMPI INVALID JUMPDEST PUSH1 0x20 MUL PUSH1 0x20 ADD ADD MLOAD DUP9 DUP5 DUP2 MLOAD DUP2 LT PUSH2 0x3DF2 JUMPI INVALID JUMPDEST PUSH1 0x20 MUL PUSH1 0x20 ADD ADD MLOAD DUP6 PUSH2 0x3E03 PUSH2 0x82C JUMP JUMPDEST PUSH2 0x3E0B PUSH2 0xB6D JUMP JUMPDEST PUSH2 0x4579 JUMP JUMPDEST PUSH4 0x7FFFFFFF DUP2 SHL NOT SWAP3 SWAP1 SWAP3 AND SWAP2 SHL OR SWAP1 JUMP JUMPDEST PUSH1 0x0 DUP1 PUSH2 0x3E2F DUP5 DUP5 PUSH2 0x3E4E JUMP JUMPDEST SWAP1 POP PUSH1 0x0 PUSH2 0x3E42 PUSH2 0x34F6 DUP4 PUSH2 0x2710 PUSH2 0x2400 JUMP JUMPDEST SWAP1 POP PUSH2 0x1284 DUP3 DUP3 PUSH2 0x16D5 JUMP JUMPDEST PUSH1 0x0 DUP2 PUSH2 0x3E64 JUMPI POP PUSH8 0xDE0B6B3A7640000 PUSH2 0x812 JUMP JUMPDEST DUP3 PUSH2 0x3E71 JUMPI POP PUSH1 0x0 PUSH2 0x812 JUMP JUMPDEST PUSH2 0x3E82 PUSH1 0x1 PUSH1 0xFF SHL DUP5 LT PUSH1 0x6 PUSH2 0x18DB JUMP JUMPDEST DUP3 PUSH2 0x3EA8 PUSH24 0xBCE5086492111AEA88F4BB1CA6BCF584181EA8059F76532 DUP5 LT PUSH1 0x7 PUSH2 0x18DB JUMP JUMPDEST DUP3 PUSH1 0x0 PUSH8 0xC7D713B49DA0000 DUP4 SGT DUP1 ISZERO PUSH2 0x3EC9 JUMPI POP PUSH8 0xF43FC2C04EE0000 DUP4 SLT JUMPDEST ISZERO PUSH2 0x3F00 JUMPI PUSH1 0x0 PUSH2 0x3ED9 DUP5 PUSH2 0x3672 JUMP JUMPDEST SWAP1 POP PUSH8 0xDE0B6B3A7640000 DUP1 DUP3 SMOD DUP5 MUL SDIV DUP4 PUSH8 0xDE0B6B3A7640000 DUP4 SDIV MUL ADD SWAP2 POP POP PUSH2 0x3F0E JUMP JUMPDEST DUP2 PUSH2 0x3F0A DUP5 PUSH2 0x3790 JUMP JUMPDEST MUL SWAP1 POP JUMPDEST PUSH8 0xDE0B6B3A7640000 SWAP1 SDIV PUSH2 0x3F46 PUSH9 0x238FD42C5CF03FFFF NOT DUP3 SLT DUP1 ISZERO SWAP1 PUSH2 0x3F3F JUMPI POP PUSH9 0x70C1CC73B00C80000 DUP3 SGT ISZERO JUMPDEST PUSH1 0x8 PUSH2 0x18DB JUMP JUMPDEST PUSH2 0x2457 DUP2 PUSH2 0x2B62 JUMP JUMPDEST PUSH1 0x0 PUSH2 0x400 DUP3 DUP5 SUB DUP2 ADD PUSH2 0x355A JUMP JUMPDEST PUSH1 0x0 DUP2 DUP4 LT ISZERO PUSH2 0x3F6E JUMPI DUP2 PUSH2 0x9D2 JUMP JUMPDEST POP SWAP1 SWAP2 SWAP1 POP JUMP JUMPDEST PUSH1 0x0 DUP1 DUP3 DUP1 PUSH1 0x20 ADD SWAP1 MLOAD DUP2 ADD SWAP1 PUSH2 0x3F8C SWAP2 SWAP1 PUSH2 0x4F16 JUMP JUMPDEST SWAP1 SWAP6 SWAP1 SWAP5 POP SWAP3 POP POP POP JUMP JUMPDEST PUSH1 0x0 DUP1 PUSH2 0x3FA8 DUP5 PUSH2 0x27E7 DUP2 DUP9 PUSH2 0x1703 JUMP JUMPDEST SWAP1 POP PUSH2 0x3FC1 PUSH8 0x9B6E64A8EC60000 DUP3 LT ISZERO PUSH2 0x132 PUSH2 0x18DB JUMP JUMPDEST PUSH1 0x0 PUSH2 0x3FDF PUSH2 0x3FD8 PUSH8 0xDE0B6B3A7640000 DUP10 PUSH2 0x209D JUMP JUMPDEST DUP4 SWAP1 PUSH2 0x3E22 JUMP JUMPDEST SWAP1 POP PUSH1 0x0 PUSH2 0x3FF6 PUSH2 0x3FEF DUP4 PUSH2 0x248C JUMP JUMPDEST DUP11 SWAP1 PUSH2 0x3525 JUMP JUMPDEST SWAP1 POP PUSH1 0x0 PUSH2 0x4003 DUP10 PUSH2 0x248C JUMP JUMPDEST SWAP1 POP PUSH1 0x0 PUSH2 0x4011 DUP4 DUP4 PUSH2 0x2400 JUMP JUMPDEST SWAP1 POP PUSH1 0x0 PUSH2 0x401F DUP5 DUP4 PUSH2 0x1703 JUMP JUMPDEST SWAP1 POP PUSH2 0x4047 PUSH2 0x4040 PUSH2 0x4039 PUSH8 0xDE0B6B3A7640000 DUP12 PUSH2 0x1703 JUMP JUMPDEST DUP5 SWAP1 PUSH2 0x3525 JUMP JUMPDEST DUP3 SWAP1 PUSH2 0x16D5 JUMP JUMPDEST SWAP13 SWAP12 POP POP POP POP POP POP POP POP POP POP POP POP JUMP JUMPDEST PUSH1 0x0 DUP2 DUP1 PUSH1 0x20 ADD SWAP1 MLOAD DUP2 ADD SWAP1 PUSH2 0x9D2 SWAP2 SWAP1 PUSH2 0x4EE9 JUMP JUMPDEST PUSH1 0x60 PUSH1 0x0 PUSH2 0x407B DUP5 DUP5 PUSH2 0x209D JUMP JUMPDEST SWAP1 POP PUSH1 0x0 DUP6 MLOAD PUSH1 0x1 PUSH1 0x1 PUSH1 0x40 SHL SUB DUP2 GT DUP1 ISZERO PUSH2 0x4096 JUMPI PUSH1 0x0 DUP1 REVERT JUMPDEST POP PUSH1 0x40 MLOAD SWAP1 DUP1 DUP3 MSTORE DUP1 PUSH1 0x20 MUL PUSH1 0x20 ADD DUP3 ADD PUSH1 0x40 MSTORE DUP1 ISZERO PUSH2 0x40C0 JUMPI DUP2 PUSH1 0x20 ADD PUSH1 0x20 DUP3 MUL DUP1 CALLDATASIZE DUP4 CALLDATACOPY ADD SWAP1 POP JUMPDEST POP SWAP1 POP PUSH1 0x0 JUMPDEST DUP7 MLOAD DUP2 LT ISZERO PUSH2 0x4114 JUMPI PUSH2 0x40F5 DUP4 DUP9 DUP4 DUP2 MLOAD DUP2 LT PUSH2 0x40DF JUMPI INVALID JUMPDEST PUSH1 0x20 MUL PUSH1 0x20 ADD ADD MLOAD PUSH2 0x3525 SWAP1 SWAP2 SWAP1 PUSH4 0xFFFFFFFF AND JUMP JUMPDEST DUP3 DUP3 DUP2 MLOAD DUP2 LT PUSH2 0x4101 JUMPI INVALID JUMPDEST PUSH1 0x20 SWAP1 DUP2 MUL SWAP2 SWAP1 SWAP2 ADD ADD MSTORE PUSH1 0x1 ADD PUSH2 0x40C6 JUMP JUMPDEST POP SWAP6 SWAP5 POP POP POP POP POP JUMP JUMPDEST PUSH1 0x60 PUSH1 0x0 DUP3 DUP1 PUSH1 0x20 ADD SWAP1 MLOAD DUP2 ADD SWAP1 PUSH2 0x3F8C SWAP2 SWAP1 PUSH2 0x4EA3 JUMP JUMPDEST PUSH1 0x0 DUP1 DUP5 MLOAD PUSH1 0x1 PUSH1 0x1 PUSH1 0x40 SHL SUB DUP2 GT DUP1 ISZERO PUSH2 0x4150 JUMPI PUSH1 0x0 DUP1 REVERT JUMPDEST POP PUSH1 0x40 MLOAD SWAP1 DUP1 DUP3 MSTORE DUP1 PUSH1 0x20 MUL PUSH1 0x20 ADD DUP3 ADD PUSH1 0x40 MSTORE DUP1 ISZERO PUSH2 0x417A JUMPI DUP2 PUSH1 0x20 ADD PUSH1 0x20 DUP3 MUL DUP1 CALLDATASIZE DUP4 CALLDATACOPY ADD SWAP1 POP JUMPDEST POP SWAP1 POP PUSH1 0x0 DUP1 JUMPDEST DUP9 MLOAD DUP2 LT ISZERO PUSH2 0x423F JUMPI PUSH2 0x41DA DUP10 DUP3 DUP2 MLOAD DUP2 LT PUSH2 0x4199 JUMPI INVALID JUMPDEST PUSH1 0x20 MUL PUSH1 0x20 ADD ADD MLOAD PUSH2 0x27E7 DUP10 DUP5 DUP2 MLOAD DUP2 LT PUSH2 0x41B0 JUMPI INVALID JUMPDEST PUSH1 0x20 MUL PUSH1 0x20 ADD ADD MLOAD DUP13 DUP6 DUP2 MLOAD DUP2 LT PUSH2 0x41C4 JUMPI INVALID JUMPDEST PUSH1 0x20 MUL PUSH1 0x20 ADD ADD MLOAD PUSH2 0x1703 SWAP1 SWAP2 SWAP1 PUSH4 0xFFFFFFFF AND JUMP JUMPDEST DUP4 DUP3 DUP2 MLOAD DUP2 LT PUSH2 0x41E6 JUMPI INVALID JUMPDEST PUSH1 0x20 MUL PUSH1 0x20 ADD ADD DUP2 DUP2 MSTORE POP POP PUSH2 0x4235 PUSH2 0x422E DUP10 DUP4 DUP2 MLOAD DUP2 LT PUSH2 0x4204 JUMPI INVALID JUMPDEST PUSH1 0x20 MUL PUSH1 0x20 ADD ADD MLOAD DUP6 DUP5 DUP2 MLOAD DUP2 LT PUSH2 0x4218 JUMPI INVALID JUMPDEST PUSH1 0x20 MUL PUSH1 0x20 ADD ADD MLOAD PUSH2 0x2400 SWAP1 SWAP2 SWAP1 PUSH4 0xFFFFFFFF AND JUMP JUMPDEST DUP4 SWAP1 PUSH2 0x16D5 JUMP JUMPDEST SWAP2 POP PUSH1 0x1 ADD PUSH2 0x4181 JUMP JUMPDEST POP PUSH8 0xDE0B6B3A7640000 PUSH1 0x0 JUMPDEST DUP10 MLOAD DUP2 LT ISZERO PUSH2 0x4348 JUMPI PUSH1 0x0 DUP5 DUP3 DUP2 MLOAD DUP2 LT PUSH2 0x4263 JUMPI INVALID JUMPDEST PUSH1 0x20 MUL PUSH1 0x20 ADD ADD MLOAD DUP5 GT ISZERO PUSH2 0x42CA JUMPI PUSH1 0x0 PUSH2 0x428C PUSH2 0x4280 DUP7 PUSH2 0x248C JUMP JUMPDEST DUP14 DUP6 DUP2 MLOAD DUP2 LT PUSH2 0x40DF JUMPI INVALID JUMPDEST SWAP1 POP PUSH1 0x0 PUSH2 0x42A0 DUP3 DUP13 DUP7 DUP2 MLOAD DUP2 LT PUSH2 0x41C4 JUMPI INVALID JUMPDEST SWAP1 POP PUSH2 0x42C1 PUSH2 0x422E PUSH2 0x42BA PUSH8 0xDE0B6B3A7640000 DUP13 PUSH2 0x1703 JUMP JUMPDEST DUP4 SWAP1 PUSH2 0x24B2 JUMP JUMPDEST SWAP3 POP POP POP PUSH2 0x42E1 JUMP JUMPDEST DUP9 DUP3 DUP2 MLOAD DUP2 LT PUSH2 0x42D6 JUMPI INVALID JUMPDEST PUSH1 0x20 MUL PUSH1 0x20 ADD ADD MLOAD SWAP1 POP JUMPDEST PUSH1 0x0 PUSH2 0x430A DUP13 DUP5 DUP2 MLOAD DUP2 LT PUSH2 0x42F2 JUMPI INVALID JUMPDEST PUSH1 0x20 MUL PUSH1 0x20 ADD ADD MLOAD PUSH2 0xC1E DUP5 DUP16 DUP8 DUP2 MLOAD DUP2 LT PUSH2 0x41C4 JUMPI INVALID JUMPDEST SWAP1 POP PUSH2 0x433C PUSH2 0x4335 DUP13 DUP6 DUP2 MLOAD DUP2 LT PUSH2 0x431E JUMPI INVALID JUMPDEST PUSH1 0x20 MUL PUSH1 0x20 ADD ADD MLOAD DUP4 PUSH2 0x34D6 SWAP1 SWAP2 SWAP1 PUSH4 0xFFFFFFFF AND JUMP JUMPDEST DUP6 SWAP1 PUSH2 0x3525 JUMP JUMPDEST SWAP4 POP POP POP PUSH1 0x1 ADD PUSH2 0x424C JUMP JUMPDEST POP PUSH2 0x435C PUSH2 0x4355 DUP3 PUSH2 0x248C JUMP JUMPDEST DUP8 SWAP1 PUSH2 0x2400 JUMP JUMPDEST SWAP10 SWAP9 POP POP POP POP POP POP POP POP POP JUMP JUMPDEST PUSH1 0x0 DUP1 DUP5 MLOAD PUSH1 0x1 PUSH1 0x1 PUSH1 0x40 SHL SUB DUP2 GT DUP1 ISZERO PUSH2 0x4383 JUMPI PUSH1 0x0 DUP1 REVERT JUMPDEST POP PUSH1 0x40 MLOAD SWAP1 DUP1 DUP3 MSTORE DUP1 PUSH1 0x20 MUL PUSH1 0x20 ADD DUP3 ADD PUSH1 0x40 MSTORE DUP1 ISZERO PUSH2 0x43AD JUMPI DUP2 PUSH1 0x20 ADD PUSH1 0x20 DUP3 MUL DUP1 CALLDATASIZE DUP4 CALLDATACOPY ADD SWAP1 POP JUMPDEST POP SWAP1 POP PUSH1 0x0 DUP1 JUMPDEST DUP9 MLOAD DUP2 LT ISZERO PUSH2 0x4455 JUMPI PUSH2 0x440D DUP10 DUP3 DUP2 MLOAD DUP2 LT PUSH2 0x43CC JUMPI INVALID JUMPDEST PUSH1 0x20 MUL PUSH1 0x20 ADD ADD MLOAD PUSH2 0xC1E DUP10 DUP5 DUP2 MLOAD DUP2 LT PUSH2 0x43E3 JUMPI INVALID JUMPDEST PUSH1 0x20 MUL PUSH1 0x20 ADD ADD MLOAD DUP13 DUP6 DUP2 MLOAD DUP2 LT PUSH2 0x43F7 JUMPI INVALID JUMPDEST PUSH1 0x20 MUL PUSH1 0x20 ADD ADD MLOAD PUSH2 0x16D5 SWAP1 SWAP2 SWAP1 PUSH4 0xFFFFFFFF AND JUMP JUMPDEST DUP4 DUP3 DUP2 MLOAD DUP2 LT PUSH2 0x4419 JUMPI INVALID JUMPDEST PUSH1 0x20 MUL PUSH1 0x20 ADD ADD DUP2 DUP2 MSTORE POP POP PUSH2 0x444B PUSH2 0x422E DUP10 DUP4 DUP2 MLOAD DUP2 LT PUSH2 0x4437 JUMPI INVALID JUMPDEST PUSH1 0x20 MUL PUSH1 0x20 ADD ADD MLOAD DUP6 DUP5 DUP2 MLOAD DUP2 LT PUSH2 0x40DF JUMPI INVALID JUMPDEST SWAP2 POP PUSH1 0x1 ADD PUSH2 0x43B4 JUMP JUMPDEST POP PUSH8 0xDE0B6B3A7640000 PUSH1 0x0 JUMPDEST DUP10 MLOAD DUP2 LT ISZERO PUSH2 0x4536 JUMPI PUSH1 0x0 DUP4 DUP6 DUP4 DUP2 MLOAD DUP2 LT PUSH2 0x447A JUMPI INVALID JUMPDEST PUSH1 0x20 MUL PUSH1 0x20 ADD ADD MLOAD GT ISZERO PUSH2 0x44D6 JUMPI PUSH1 0x0 PUSH2 0x449F PUSH2 0x4280 DUP7 PUSH8 0xDE0B6B3A7640000 PUSH2 0x1703 JUMP JUMPDEST SWAP1 POP PUSH1 0x0 PUSH2 0x44B3 DUP3 DUP13 DUP7 DUP2 MLOAD DUP2 LT PUSH2 0x41C4 JUMPI INVALID JUMPDEST SWAP1 POP PUSH2 0x44CD PUSH2 0x422E PUSH2 0x2711 PUSH8 0xDE0B6B3A7640000 DUP13 PUSH2 0x1703 JUMP JUMPDEST SWAP3 POP POP POP PUSH2 0x44ED JUMP JUMPDEST DUP9 DUP3 DUP2 MLOAD DUP2 LT PUSH2 0x44E2 JUMPI INVALID JUMPDEST PUSH1 0x20 MUL PUSH1 0x20 ADD ADD MLOAD SWAP1 POP JUMPDEST PUSH1 0x0 PUSH2 0x4516 DUP13 DUP5 DUP2 MLOAD DUP2 LT PUSH2 0x44FE JUMPI INVALID JUMPDEST PUSH1 0x20 MUL PUSH1 0x20 ADD ADD MLOAD PUSH2 0xC1E DUP5 DUP16 DUP8 DUP2 MLOAD DUP2 LT PUSH2 0x43F7 JUMPI INVALID JUMPDEST SWAP1 POP PUSH2 0x452A PUSH2 0x4335 DUP13 DUP6 DUP2 MLOAD DUP2 LT PUSH2 0x431E JUMPI INVALID JUMPDEST SWAP4 POP POP POP PUSH1 0x1 ADD PUSH2 0x4462 JUMP JUMPDEST POP PUSH8 0xDE0B6B3A7640000 DUP2 GT ISZERO PUSH2 0x456D JUMPI PUSH2 0x4563 PUSH2 0x455C DUP3 PUSH8 0xDE0B6B3A7640000 PUSH2 0x1703 JUMP JUMPDEST DUP8 SWAP1 PUSH2 0x3525 JUMP JUMPDEST SWAP4 POP POP POP POP PUSH2 0x1284 JUMP JUMPDEST PUSH1 0x0 SWAP4 POP POP POP POP PUSH2 0x1284 JUMP JUMPDEST PUSH1 0x0 DUP1 PUSH2 0x458A DUP5 PUSH2 0x27E7 DUP2 DUP9 PUSH2 0x16D5 JUMP JUMPDEST SWAP1 POP PUSH2 0x45A3 PUSH8 0x29A2241AF62C0000 DUP3 GT ISZERO PUSH2 0x133 PUSH2 0x18DB JUMP JUMPDEST PUSH1 0x0 PUSH2 0x45BA PUSH2 0x3FD8 PUSH8 0xDE0B6B3A7640000 DUP10 PUSH2 0x24B2 JUMP JUMPDEST SWAP1 POP PUSH1 0x0 PUSH2 0x45DA PUSH2 0x45D3 DUP4 PUSH8 0xDE0B6B3A7640000 PUSH2 0x1703 JUMP JUMPDEST DUP11 SWAP1 PUSH2 0x2400 JUMP JUMPDEST SWAP1 POP PUSH1 0x0 PUSH2 0x45E7 DUP10 PUSH2 0x248C JUMP JUMPDEST SWAP1 POP PUSH1 0x0 PUSH2 0x45F5 DUP4 DUP4 PUSH2 0x2400 JUMP JUMPDEST SWAP1 POP PUSH1 0x0 PUSH2 0x4603 DUP5 DUP4 PUSH2 0x1703 JUMP JUMPDEST SWAP1 POP PUSH2 0x4047 PUSH2 0x4040 PUSH2 0x461D PUSH8 0xDE0B6B3A7640000 DUP12 PUSH2 0x1703 JUMP JUMPDEST DUP5 SWAP1 PUSH2 0x24B2 JUMP JUMPDEST PUSH1 0x40 DUP1 MLOAD PUSH1 0x60 DUP2 ADD SWAP1 SWAP2 MSTORE DUP1 PUSH1 0x0 DUP2 MSTORE PUSH1 0x20 ADD PUSH1 0x0 DUP2 MSTORE PUSH1 0x20 ADD PUSH1 0x0 DUP2 MSTORE POP SWAP1 JUMP JUMPDEST PUSH1 0x40 DUP1 MLOAD DUP1 DUP3 ADD SWAP1 SWAP2 MSTORE PUSH1 0x0 DUP1 DUP3 MSTORE PUSH1 0x20 DUP3 ADD MSTORE SWAP1 JUMP JUMPDEST PUSH1 0x40 MLOAD DUP1 PUSH1 0xE0 ADD PUSH1 0x40 MSTORE DUP1 PUSH1 0x0 DUP2 MSTORE PUSH1 0x20 ADD PUSH1 0x0 DUP2 MSTORE PUSH1 0x20 ADD PUSH1 0x0 DUP2 MSTORE PUSH1 0x20 ADD PUSH1 0x0 DUP2 MSTORE PUSH1 0x20 ADD PUSH1 0x0 DUP2 MSTORE PUSH1 0x20 ADD PUSH1 0x0 DUP2 MSTORE PUSH1 0x20 ADD PUSH1 0x0 DUP2 MSTORE POP SWAP1 JUMP JUMPDEST PUSH1 0x40 MLOAD DUP1 PUSH1 0x40 ADD PUSH1 0x40 MSTORE DUP1 PUSH1 0x0 DUP2 MSTORE PUSH1 0x20 ADD PUSH1 0x0 DUP2 MSTORE POP SWAP1 JUMP JUMPDEST DUP1 CALLDATALOAD PUSH2 0xB0D DUP2 PUSH2 0x5595 JUMP JUMPDEST PUSH1 0x0 DUP3 PUSH1 0x1F DUP4 ADD SLT PUSH2 0x46CF JUMPI DUP1 DUP2 REVERT JUMPDEST DUP2 CALLDATALOAD PUSH1 0x20 PUSH2 0x46E4 PUSH2 0x46DF DUP4 PUSH2 0x5578 JUMP JUMPDEST PUSH2 0x5555 JUMP JUMPDEST DUP3 DUP2 MSTORE DUP2 DUP2 ADD SWAP1 DUP6 DUP4 ADD DUP4 DUP6 MUL DUP8 ADD DUP5 ADD DUP9 LT ISZERO PUSH2 0x4700 JUMPI DUP6 DUP7 REVERT JUMPDEST DUP6 JUMPDEST DUP6 DUP2 LT ISZERO PUSH2 0x471E JUMPI DUP2 CALLDATALOAD DUP5 MSTORE SWAP3 DUP5 ADD SWAP3 SWAP1 DUP5 ADD SWAP1 PUSH1 0x1 ADD PUSH2 0x4702 JUMP JUMPDEST POP SWAP1 SWAP8 SWAP7 POP POP POP POP POP POP POP JUMP JUMPDEST PUSH1 0x0 DUP3 PUSH1 0x1F DUP4 ADD SLT PUSH2 0x473B JUMPI DUP1 DUP2 REVERT JUMPDEST DUP2 MLOAD PUSH1 0x20 PUSH2 0x474B PUSH2 0x46DF DUP4 PUSH2 0x5578 JUMP JUMPDEST DUP3 DUP2 MSTORE DUP2 DUP2 ADD SWAP1 DUP6 DUP4 ADD DUP4 DUP6 MUL DUP8 ADD DUP5 ADD DUP9 LT ISZERO PUSH2 0x4767 JUMPI DUP6 DUP7 REVERT JUMPDEST DUP6 JUMPDEST DUP6 DUP2 LT ISZERO PUSH2 0x471E JUMPI DUP2 MLOAD DUP5 MSTORE SWAP3 DUP5 ADD SWAP3 SWAP1 DUP5 ADD SWAP1 PUSH1 0x1 ADD PUSH2 0x4769 JUMP JUMPDEST PUSH1 0x0 DUP3 PUSH1 0x1F DUP4 ADD SLT PUSH2 0x4795 JUMPI DUP1 DUP2 REVERT JUMPDEST DUP2 CALLDATALOAD PUSH1 0x1 PUSH1 0x1 PUSH1 0x40 SHL SUB DUP2 GT ISZERO PUSH2 0x47A8 JUMPI INVALID JUMPDEST PUSH2 0x47BB PUSH1 0x1F DUP3 ADD PUSH1 0x1F NOT AND PUSH1 0x20 ADD PUSH2 0x5555 JUMP JUMPDEST DUP2 DUP2 MSTORE DUP5 PUSH1 0x20 DUP4 DUP7 ADD ADD GT ISZERO PUSH2 0x47CF JUMPI DUP3 DUP4 REVERT JUMPDEST DUP2 PUSH1 0x20 DUP6 ADD PUSH1 0x20 DUP4 ADD CALLDATACOPY SWAP1 DUP2 ADD PUSH1 0x20 ADD SWAP2 SWAP1 SWAP2 MSTORE SWAP3 SWAP2 POP POP JUMP JUMPDEST DUP1 CALLDATALOAD PUSH1 0x2 DUP2 LT PUSH2 0xB0D JUMPI PUSH1 0x0 DUP1 REVERT JUMPDEST PUSH1 0x0 PUSH1 0xE0 DUP3 DUP5 SUB SLT ISZERO PUSH2 0x4809 JUMPI DUP1 DUP2 REVERT JUMPDEST PUSH1 0x40 MLOAD PUSH1 0xE0 DUP2 ADD DUP2 DUP2 LT PUSH1 0x1 PUSH1 0x1 PUSH1 0x40 SHL SUB DUP3 GT OR ISZERO PUSH2 0x4825 JUMPI INVALID JUMPDEST DUP1 PUSH1 0x40 MSTORE POP DUP1 SWAP2 POP DUP3 CALLDATALOAD DUP2 MSTORE PUSH1 0x20 DUP4 ADD CALLDATALOAD PUSH1 0x20 DUP3 ADD MSTORE PUSH1 0x40 DUP4 ADD CALLDATALOAD PUSH1 0x40 DUP3 ADD MSTORE PUSH1 0x60 DUP4 ADD CALLDATALOAD PUSH1 0x60 DUP3 ADD MSTORE PUSH1 0x80 DUP4 ADD CALLDATALOAD PUSH1 0x80 DUP3 ADD MSTORE PUSH1 0xA0 DUP4 ADD CALLDATALOAD PUSH1 0xA0 DUP3 ADD MSTORE PUSH1 0xC0 DUP4 ADD CALLDATALOAD PUSH1 0xC0 DUP3 ADD MSTORE POP SWAP3 SWAP2 POP POP JUMP JUMPDEST PUSH1 0x0 PUSH1 0x20 DUP3 DUP5 SUB SLT ISZERO PUSH2 0x4885 JUMPI DUP1 DUP2 REVERT JUMPDEST DUP2 CALLDATALOAD PUSH2 0x9D2 DUP2 PUSH2 0x5595 JUMP JUMPDEST PUSH1 0x0 DUP1 PUSH1 0x40 DUP4 DUP6 SUB SLT ISZERO PUSH2 0x48A2 JUMPI DUP1 DUP2 REVERT JUMPDEST DUP3 CALLDATALOAD PUSH2 0x48AD DUP2 PUSH2 0x5595 JUMP JUMPDEST SWAP2 POP PUSH1 0x20 DUP4 ADD CALLDATALOAD PUSH2 0x48BD DUP2 PUSH2 0x5595 JUMP JUMPDEST DUP1 SWAP2 POP POP SWAP3 POP SWAP3 SWAP1 POP JUMP JUMPDEST PUSH1 0x0 DUP1 PUSH1 0x0 PUSH1 0x60 DUP5 DUP7 SUB SLT ISZERO PUSH2 0x48DC JUMPI DUP1 DUP2 REVERT JUMPDEST DUP4 CALLDATALOAD PUSH2 0x48E7 DUP2 PUSH2 0x5595 JUMP JUMPDEST SWAP3 POP PUSH1 0x20 DUP5 ADD CALLDATALOAD PUSH2 0x48F7 DUP2 PUSH2 0x5595 JUMP JUMPDEST SWAP3 SWAP6 SWAP3 SWAP5 POP POP POP PUSH1 0x40 SWAP2 SWAP1 SWAP2 ADD CALLDATALOAD SWAP1 JUMP JUMPDEST PUSH1 0x0 DUP1 PUSH1 0x0 DUP1 PUSH1 0x0 DUP1 PUSH1 0x0 PUSH1 0xE0 DUP9 DUP11 SUB SLT ISZERO PUSH2 0x4922 JUMPI DUP5 DUP6 REVERT JUMPDEST DUP8 CALLDATALOAD PUSH2 0x492D DUP2 PUSH2 0x5595 JUMP JUMPDEST SWAP7 POP PUSH1 0x20 DUP9 ADD CALLDATALOAD PUSH2 0x493D DUP2 PUSH2 0x5595 JUMP JUMPDEST SWAP6 POP PUSH1 0x40 DUP9 ADD CALLDATALOAD SWAP5 POP PUSH1 0x60 DUP9 ADD CALLDATALOAD SWAP4 POP PUSH1 0x80 DUP9 ADD CALLDATALOAD PUSH1 0xFF DUP2 AND DUP2 EQ PUSH2 0x4960 JUMPI DUP4 DUP5 REVERT JUMPDEST SWAP7 SWAP10 SWAP6 SWAP9 POP SWAP4 SWAP7 SWAP3 SWAP6 SWAP5 PUSH1 0xA0 DUP5 ADD CALLDATALOAD SWAP5 POP PUSH1 0xC0 SWAP1 SWAP4 ADD CALLDATALOAD SWAP3 SWAP2 POP POP JUMP JUMPDEST PUSH1 0x0 DUP1 PUSH1 0x40 DUP4 DUP6 SUB SLT ISZERO PUSH2 0x498F JUMPI DUP2 DUP3 REVERT JUMPDEST DUP3 CALLDATALOAD PUSH2 0x499A DUP2 PUSH2 0x5595 JUMP JUMPDEST SWAP5 PUSH1 0x20 SWAP4 SWAP1 SWAP4 ADD CALLDATALOAD SWAP4 POP POP POP JUMP JUMPDEST PUSH1 0x0 DUP1 PUSH1 0x0 PUSH1 0x60 DUP5 DUP7 SUB SLT ISZERO PUSH2 0x49BC JUMPI DUP1 DUP2 REVERT JUMPDEST DUP4 MLOAD PUSH1 0x1 PUSH1 0x1 PUSH1 0x40 SHL SUB DUP1 DUP3 GT ISZERO PUSH2 0x49D2 JUMPI DUP3 DUP4 REVERT JUMPDEST DUP2 DUP7 ADD SWAP2 POP DUP7 PUSH1 0x1F DUP4 ADD SLT PUSH2 0x49E5 JUMPI DUP3 DUP4 REVERT JUMPDEST DUP2 MLOAD PUSH1 0x20 PUSH2 0x49F5 PUSH2 0x46DF DUP4 PUSH2 0x5578 JUMP JUMPDEST DUP3 DUP2 MSTORE DUP2 DUP2 ADD SWAP1 DUP6 DUP4 ADD DUP4 DUP6 MUL DUP8 ADD DUP5 ADD DUP13 LT ISZERO PUSH2 0x4A11 JUMPI DUP8 DUP9 REVERT JUMPDEST DUP8 SWAP7 POP JUMPDEST DUP5 DUP8 LT ISZERO PUSH2 0x4A3C JUMPI DUP1 MLOAD PUSH2 0x4A28 DUP2 PUSH2 0x5595 JUMP JUMPDEST DUP4 MSTORE PUSH1 0x1 SWAP7 SWAP1 SWAP7 ADD SWAP6 SWAP2 DUP4 ADD SWAP2 DUP4 ADD PUSH2 0x4A15 JUMP JUMPDEST POP SWAP2 DUP10 ADD MLOAD SWAP2 SWAP8 POP SWAP1 SWAP4 POP POP POP DUP1 DUP3 GT ISZERO PUSH2 0x4A55 JUMPI DUP3 DUP4 REVERT JUMPDEST POP PUSH2 0x4A62 DUP7 DUP3 DUP8 ADD PUSH2 0x472B JUMP JUMPDEST SWAP3 POP POP PUSH1 0x40 DUP5 ADD MLOAD SWAP1 POP SWAP3 POP SWAP3 POP SWAP3 JUMP JUMPDEST PUSH1 0x0 PUSH1 0x20 DUP1 DUP4 DUP6 SUB SLT ISZERO PUSH2 0x4A85 JUMPI DUP2 DUP3 REVERT JUMPDEST DUP3 CALLDATALOAD PUSH1 0x1 PUSH1 0x1 PUSH1 0x40 SHL SUB DUP1 DUP3 GT ISZERO PUSH2 0x4A9B JUMPI DUP4 DUP5 REVERT JUMPDEST DUP2 DUP6 ADD SWAP2 POP DUP6 PUSH1 0x1F DUP4 ADD SLT PUSH2 0x4AAE JUMPI DUP4 DUP5 REVERT JUMPDEST DUP2 CALLDATALOAD PUSH2 0x4ABC PUSH2 0x46DF DUP3 PUSH2 0x5578 JUMP JUMPDEST DUP2 DUP2 MSTORE DUP5 DUP2 ADD SWAP1 DUP5 DUP7 ADD PUSH1 0x40 DUP1 DUP6 MUL DUP8 ADD DUP9 ADD DUP12 LT ISZERO PUSH2 0x4ADA JUMPI DUP9 DUP10 REVERT JUMPDEST DUP9 SWAP7 POP JUMPDEST DUP5 DUP8 LT ISZERO PUSH2 0x4B34 JUMPI DUP1 DUP3 DUP13 SUB SLT ISZERO PUSH2 0x4AF4 JUMPI DUP9 DUP10 REVERT JUMPDEST DUP1 MLOAD DUP2 DUP2 ADD DUP2 DUP2 LT DUP9 DUP3 GT OR ISZERO PUSH2 0x4B07 JUMPI INVALID JUMPDEST DUP3 MSTORE DUP3 CALLDATALOAD PUSH2 0x4B14 DUP2 PUSH2 0x55B8 JUMP JUMPDEST DUP2 MSTORE DUP3 DUP10 ADD CALLDATALOAD DUP10 DUP3 ADD MSTORE DUP5 MSTORE PUSH1 0x1 SWAP7 SWAP1 SWAP7 ADD SWAP6 SWAP3 DUP8 ADD SWAP3 SWAP1 DUP2 ADD SWAP1 PUSH2 0x4ADE JUMP JUMPDEST POP SWAP1 SWAP10 SWAP9 POP POP POP POP POP POP POP POP POP JUMP JUMPDEST PUSH1 0x0 PUSH1 0x20 DUP1 DUP4 DUP6 SUB SLT ISZERO PUSH2 0x4B55 JUMPI DUP2 DUP3 REVERT JUMPDEST DUP3 CALLDATALOAD PUSH1 0x1 PUSH1 0x1 PUSH1 0x40 SHL SUB DUP1 DUP3 GT ISZERO PUSH2 0x4B6B JUMPI DUP4 DUP5 REVERT JUMPDEST DUP2 DUP6 ADD SWAP2 POP DUP6 PUSH1 0x1F DUP4 ADD SLT PUSH2 0x4B7E JUMPI DUP4 DUP5 REVERT JUMPDEST DUP2 CALLDATALOAD PUSH2 0x4B8C PUSH2 0x46DF DUP3 PUSH2 0x5578 JUMP JUMPDEST DUP2 DUP2 MSTORE DUP5 DUP2 ADD SWAP1 DUP5 DUP7 ADD PUSH1 0x60 DUP1 DUP6 MUL DUP8 ADD DUP9 ADD DUP12 LT ISZERO PUSH2 0x4BAA JUMPI DUP9 DUP10 REVERT JUMPDEST DUP9 SWAP7 POP JUMPDEST DUP5 DUP8 LT ISZERO PUSH2 0x4B34 JUMPI DUP1 DUP3 DUP13 SUB SLT ISZERO PUSH2 0x4BC4 JUMPI DUP9 DUP10 REVERT JUMPDEST PUSH1 0x40 DUP1 MLOAD DUP3 DUP2 ADD DUP2 DUP2 LT DUP10 DUP3 GT OR ISZERO PUSH2 0x4BD9 JUMPI INVALID JUMPDEST DUP3 MSTORE DUP4 CALLDATALOAD PUSH2 0x4BE6 DUP2 PUSH2 0x55B8 JUMP JUMPDEST DUP2 MSTORE DUP4 DUP11 ADD CALLDATALOAD DUP11 DUP3 ADD MSTORE DUP2 DUP5 ADD CALLDATALOAD SWAP2 DUP2 ADD SWAP2 SWAP1 SWAP2 MSTORE DUP5 MSTORE PUSH1 0x1 SWAP7 SWAP1 SWAP7 ADD SWAP6 SWAP3 DUP8 ADD SWAP3 SWAP1 DUP2 ADD SWAP1 PUSH2 0x4BAE JUMP JUMPDEST PUSH1 0x0 DUP1 PUSH1 0x40 DUP4 DUP6 SUB SLT ISZERO PUSH2 0x4C23 JUMPI DUP2 DUP3 REVERT JUMPDEST DUP3 CALLDATALOAD PUSH1 0x1 PUSH1 0x1 PUSH1 0x40 SHL SUB DUP1 DUP3 GT ISZERO PUSH2 0x4C39 JUMPI DUP4 DUP5 REVERT JUMPDEST PUSH2 0x4C45 DUP7 DUP4 DUP8 ADD PUSH2 0x46BF JUMP JUMPDEST SWAP4 POP PUSH1 0x20 SWAP2 POP DUP2 DUP6 ADD CALLDATALOAD DUP2 DUP2 GT ISZERO PUSH2 0x4C5B JUMPI DUP4 DUP5 REVERT JUMPDEST DUP6 ADD SWAP1 POP PUSH1 0x1F DUP2 ADD DUP7 SGT PUSH2 0x4C6D JUMPI DUP3 DUP4 REVERT JUMPDEST DUP1 CALLDATALOAD PUSH2 0x4C7B PUSH2 0x46DF DUP3 PUSH2 0x5578 JUMP JUMPDEST DUP2 DUP2 MSTORE DUP4 DUP2 ADD SWAP1 DUP4 DUP6 ADD PUSH1 0xE0 DUP1 DUP6 MUL DUP7 ADD DUP8 ADD DUP12 LT ISZERO PUSH2 0x4C99 JUMPI DUP8 DUP9 REVERT JUMPDEST DUP8 SWAP6 POP JUMPDEST DUP5 DUP7 LT ISZERO PUSH2 0x4CC5 JUMPI PUSH2 0x4CAF DUP12 DUP4 PUSH2 0x47F8 JUMP JUMPDEST DUP5 MSTORE PUSH1 0x1 SWAP6 SWAP1 SWAP6 ADD SWAP5 SWAP3 DUP7 ADD SWAP3 SWAP1 DUP2 ADD SWAP1 PUSH2 0x4C9D JUMP JUMPDEST POP SWAP7 SWAP10 SWAP1 SWAP9 POP SWAP7 POP POP POP POP POP POP POP JUMP JUMPDEST PUSH1 0x0 DUP1 PUSH1 0x40 DUP4 DUP6 SUB SLT ISZERO PUSH2 0x4CE7 JUMPI DUP2 DUP3 REVERT JUMPDEST DUP3 CALLDATALOAD PUSH1 0x1 PUSH1 0x1 PUSH1 0x40 SHL SUB DUP2 GT ISZERO PUSH2 0x4CFC JUMPI DUP3 DUP4 REVERT JUMPDEST PUSH2 0x4D08 DUP6 DUP3 DUP7 ADD PUSH2 0x46BF JUMP JUMPDEST SWAP6 PUSH1 0x20 SWAP5 SWAP1 SWAP5 ADD CALLDATALOAD SWAP5 POP POP POP POP JUMP JUMPDEST PUSH1 0x0 PUSH1 0x20 DUP3 DUP5 SUB SLT ISZERO PUSH2 0x4D28 JUMPI DUP1 DUP2 REVERT JUMPDEST DUP2 CALLDATALOAD PUSH2 0x9D2 DUP2 PUSH2 0x55AA JUMP JUMPDEST PUSH1 0x0 PUSH1 0x20 DUP3 DUP5 SUB SLT ISZERO PUSH2 0x4D44 JUMPI DUP1 DUP2 REVERT JUMPDEST DUP2 MLOAD PUSH2 0x9D2 DUP2 PUSH2 0x55AA JUMP JUMPDEST PUSH1 0x0 PUSH1 0x20 DUP3 DUP5 SUB SLT ISZERO PUSH2 0x4D60 JUMPI DUP1 DUP2 REVERT JUMPDEST POP CALLDATALOAD SWAP2 SWAP1 POP JUMP JUMPDEST PUSH1 0x0 DUP1 PUSH1 0x0 DUP1 PUSH1 0x0 DUP1 PUSH1 0x0 PUSH1 0xE0 DUP9 DUP11 SUB SLT ISZERO PUSH2 0x4D81 JUMPI DUP1 DUP2 REVERT JUMPDEST DUP8 CALLDATALOAD SWAP7 POP PUSH1 0x20 DUP9 ADD CALLDATALOAD PUSH2 0x4D93 DUP2 PUSH2 0x5595 JUMP JUMPDEST SWAP6 POP PUSH1 0x40 DUP9 ADD CALLDATALOAD PUSH2 0x4DA3 DUP2 PUSH2 0x5595 JUMP JUMPDEST SWAP5 POP PUSH1 0x60 DUP9 ADD CALLDATALOAD PUSH1 0x1 PUSH1 0x1 PUSH1 0x40 SHL SUB DUP1 DUP3 GT ISZERO PUSH2 0x4DBE JUMPI DUP3 DUP4 REVERT JUMPDEST PUSH2 0x4DCA DUP12 DUP4 DUP13 ADD PUSH2 0x46BF JUMP JUMPDEST SWAP6 POP PUSH1 0x80 DUP11 ADD CALLDATALOAD SWAP5 POP PUSH1 0xA0 DUP11 ADD CALLDATALOAD SWAP4 POP PUSH1 0xC0 DUP11 ADD CALLDATALOAD SWAP2 POP DUP1 DUP3 GT ISZERO PUSH2 0x4DED JUMPI DUP3 DUP4 REVERT JUMPDEST POP PUSH2 0x4DFA DUP11 DUP3 DUP12 ADD PUSH2 0x4785 JUMP JUMPDEST SWAP2 POP POP SWAP3 SWAP6 SWAP9 SWAP2 SWAP5 SWAP8 POP SWAP3 SWAP6 POP JUMP JUMPDEST PUSH1 0x0 DUP1 PUSH1 0x0 DUP1 PUSH1 0x0 PUSH1 0xA0 DUP7 DUP9 SUB SLT ISZERO PUSH2 0x4E20 JUMPI DUP3 DUP4 REVERT JUMPDEST POP POP DUP4 CALLDATALOAD SWAP6 PUSH1 0x20 DUP6 ADD CALLDATALOAD SWAP6 POP PUSH1 0x40 DUP6 ADD CALLDATALOAD SWAP5 PUSH1 0x60 DUP2 ADD CALLDATALOAD SWAP5 POP PUSH1 0x80 ADD CALLDATALOAD SWAP3 POP SWAP1 POP JUMP JUMPDEST PUSH1 0x0 PUSH1 0x20 DUP3 DUP5 SUB SLT ISZERO PUSH2 0x4E54 JUMPI DUP1 DUP2 REVERT JUMPDEST DUP2 CALLDATALOAD PUSH1 0x1 PUSH1 0x1 PUSH1 0xE0 SHL SUB NOT DUP2 AND DUP2 EQ PUSH2 0x9D2 JUMPI DUP2 DUP3 REVERT JUMPDEST PUSH1 0x0 PUSH1 0x20 DUP3 DUP5 SUB SLT ISZERO PUSH2 0x4E7C JUMPI DUP1 DUP2 REVERT JUMPDEST DUP2 MLOAD PUSH2 0x9D2 DUP2 PUSH2 0x5595 JUMP JUMPDEST PUSH1 0x0 PUSH1 0x20 DUP3 DUP5 SUB SLT ISZERO PUSH2 0x4E98 JUMPI DUP1 DUP2 REVERT JUMPDEST DUP2 MLOAD PUSH2 0x9D2 DUP2 PUSH2 0x55B8 JUMP JUMPDEST PUSH1 0x0 DUP1 PUSH1 0x0 PUSH1 0x60 DUP5 DUP7 SUB SLT ISZERO PUSH2 0x4EB7 JUMPI DUP1 DUP2 REVERT JUMPDEST DUP4 MLOAD PUSH2 0x4EC2 DUP2 PUSH2 0x55B8 JUMP JUMPDEST PUSH1 0x20 DUP6 ADD MLOAD SWAP1 SWAP4 POP PUSH1 0x1 PUSH1 0x1 PUSH1 0x40 SHL SUB DUP2 GT ISZERO PUSH2 0x4EDD JUMPI DUP2 DUP3 REVERT JUMPDEST PUSH2 0x4A62 DUP7 DUP3 DUP8 ADD PUSH2 0x472B JUMP JUMPDEST PUSH1 0x0 DUP1 PUSH1 0x40 DUP4 DUP6 SUB SLT ISZERO PUSH2 0x4EFB JUMPI DUP2 DUP3 REVERT JUMPDEST DUP3 MLOAD PUSH2 0x4F06 DUP2 PUSH2 0x55B8 JUMP JUMPDEST PUSH1 0x20 SWAP4 SWAP1 SWAP4 ADD MLOAD SWAP3 SWAP5 SWAP3 SWAP4 POP POP POP JUMP JUMPDEST PUSH1 0x0 DUP1 PUSH1 0x0 PUSH1 0x60 DUP5 DUP7 SUB SLT ISZERO PUSH2 0x4F2A JUMPI DUP1 DUP2 REVERT JUMPDEST DUP4 MLOAD PUSH2 0x4F35 DUP2 PUSH2 0x55B8 JUMP JUMPDEST PUSH1 0x20 DUP6 ADD MLOAD PUSH1 0x40 SWAP1 SWAP6 ADD MLOAD SWAP1 SWAP7 SWAP5 SWAP6 POP SWAP4 SWAP3 POP POP POP JUMP JUMPDEST PUSH1 0x0 DUP1 PUSH1 0x40 DUP4 DUP6 SUB SLT ISZERO PUSH2 0x4F5E JUMPI DUP2 DUP3 REVERT JUMPDEST DUP3 MLOAD PUSH2 0x4F69 DUP2 PUSH2 0x55B8 JUMP JUMPDEST PUSH1 0x20 DUP5 ADD MLOAD SWAP1 SWAP3 POP PUSH1 0x1 PUSH1 0x1 PUSH1 0x40 SHL SUB DUP2 GT ISZERO PUSH2 0x4F84 JUMPI DUP2 DUP3 REVERT JUMPDEST PUSH2 0x4F90 DUP6 DUP3 DUP7 ADD PUSH2 0x472B JUMP JUMPDEST SWAP2 POP POP SWAP3 POP SWAP3 SWAP1 POP JUMP JUMPDEST PUSH1 0x0 PUSH1 0x20 DUP3 DUP5 SUB SLT ISZERO PUSH2 0x4FAB JUMPI DUP1 DUP2 REVERT JUMPDEST DUP2 CALLDATALOAD PUSH2 0x9D2 DUP2 PUSH2 0x55B8 JUMP JUMPDEST PUSH1 0x0 DUP1 PUSH1 0x0 PUSH1 0x60 DUP5 DUP7 SUB SLT ISZERO PUSH2 0x4FCA JUMPI DUP1 DUP2 REVERT JUMPDEST DUP4 CALLDATALOAD PUSH2 0x4FD5 DUP2 PUSH2 0x55B8 JUMP JUMPDEST SWAP6 PUSH1 0x20 DUP6 ADD CALLDATALOAD SWAP6 POP PUSH1 0x40 SWAP1 SWAP5 ADD CALLDATALOAD SWAP4 SWAP3 POP POP POP JUMP JUMPDEST PUSH1 0x0 PUSH1 0xC0 DUP3 DUP5 SUB SLT ISZERO PUSH2 0x4FFB JUMPI DUP1 DUP2 REVERT JUMPDEST PUSH1 0x40 MLOAD PUSH1 0xC0 DUP2 ADD DUP2 DUP2 LT PUSH1 0x1 PUSH1 0x1 PUSH1 0x40 SHL SUB DUP3 GT OR ISZERO PUSH2 0x5017 JUMPI INVALID JUMPDEST DUP1 PUSH1 0x40 MSTORE POP DUP3 CALLDATALOAD DUP2 MSTORE PUSH1 0x20 DUP4 ADD CALLDATALOAD PUSH1 0x20 DUP3 ADD MSTORE PUSH1 0x40 DUP4 ADD CALLDATALOAD PUSH1 0x40 DUP3 ADD MSTORE PUSH1 0x60 DUP4 ADD CALLDATALOAD PUSH1 0x60 DUP3 ADD MSTORE PUSH1 0x80 DUP4 ADD CALLDATALOAD PUSH2 0x504C DUP2 PUSH2 0x55AA JUMP JUMPDEST PUSH1 0x80 DUP3 ADD MSTORE PUSH1 0xA0 SWAP3 DUP4 ADD CALLDATALOAD SWAP3 DUP2 ADD SWAP3 SWAP1 SWAP3 MSTORE POP SWAP2 SWAP1 POP JUMP JUMPDEST PUSH1 0x0 PUSH1 0xE0 DUP3 DUP5 SUB SLT ISZERO PUSH2 0x5075 JUMPI DUP1 DUP2 REVERT JUMPDEST PUSH2 0x9D2 DUP4 DUP4 PUSH2 0x47F8 JUMP JUMPDEST PUSH1 0x0 DUP1 PUSH1 0x0 PUSH1 0x60 DUP5 DUP7 SUB SLT ISZERO PUSH2 0x5093 JUMPI DUP1 DUP2 REVERT JUMPDEST DUP4 CALLDATALOAD PUSH1 0x1 PUSH1 0x1 PUSH1 0x40 SHL SUB DUP1 DUP3 GT ISZERO PUSH2 0x50A9 JUMPI DUP3 DUP4 REVERT JUMPDEST DUP2 DUP7 ADD SWAP2 POP PUSH2 0x120 DUP1 DUP4 DUP10 SUB SLT ISZERO PUSH2 0x50BF JUMPI DUP4 DUP5 REVERT JUMPDEST PUSH2 0x50C8 DUP2 PUSH2 0x5555 JUMP JUMPDEST SWAP1 POP PUSH2 0x50D3 DUP4 PUSH2 0x47E9 JUMP JUMPDEST DUP2 MSTORE PUSH2 0x50E1 PUSH1 0x20 DUP5 ADD PUSH2 0x46B4 JUMP JUMPDEST PUSH1 0x20 DUP3 ADD MSTORE PUSH2 0x50F2 PUSH1 0x40 DUP5 ADD PUSH2 0x46B4 JUMP JUMPDEST PUSH1 0x40 DUP3 ADD MSTORE PUSH1 0x60 DUP4 ADD CALLDATALOAD PUSH1 0x60 DUP3 ADD MSTORE PUSH1 0x80 DUP4 ADD CALLDATALOAD PUSH1 0x80 DUP3 ADD MSTORE PUSH1 0xA0 DUP4 ADD CALLDATALOAD PUSH1 0xA0 DUP3 ADD MSTORE PUSH2 0x5121 PUSH1 0xC0 DUP5 ADD PUSH2 0x46B4 JUMP JUMPDEST PUSH1 0xC0 DUP3 ADD MSTORE PUSH2 0x5132 PUSH1 0xE0 DUP5 ADD PUSH2 0x46B4 JUMP JUMPDEST PUSH1 0xE0 DUP3 ADD MSTORE PUSH2 0x100 DUP1 DUP5 ADD CALLDATALOAD DUP4 DUP2 GT ISZERO PUSH2 0x514A JUMPI DUP6 DUP7 REVERT JUMPDEST PUSH2 0x5156 DUP11 DUP3 DUP8 ADD PUSH2 0x4785 JUMP JUMPDEST SWAP2 DUP4 ADD SWAP2 SWAP1 SWAP2 MSTORE POP SWAP8 PUSH1 0x20 DUP8 ADD CALLDATALOAD SWAP8 POP PUSH1 0x40 SWAP1 SWAP7 ADD CALLDATALOAD SWAP6 SWAP5 POP POP POP POP POP JUMP JUMPDEST PUSH1 0x0 DUP1 PUSH2 0x100 DUP4 DUP6 SUB SLT ISZERO PUSH2 0x5188 JUMPI DUP2 DUP3 REVERT JUMPDEST DUP3 CALLDATALOAD SWAP2 POP PUSH2 0x5199 DUP5 PUSH1 0x20 DUP6 ADD PUSH2 0x47F8 JUMP JUMPDEST SWAP1 POP SWAP3 POP SWAP3 SWAP1 POP JUMP JUMPDEST PUSH1 0x0 DUP1 PUSH1 0x0 PUSH1 0x60 DUP5 DUP7 SUB SLT ISZERO PUSH2 0x51B6 JUMPI DUP1 DUP2 REVERT JUMPDEST POP POP DUP2 CALLDATALOAD SWAP4 PUSH1 0x20 DUP4 ADD CALLDATALOAD SWAP4 POP PUSH1 0x40 SWAP1 SWAP3 ADD CALLDATALOAD SWAP2 SWAP1 POP JUMP JUMPDEST PUSH1 0x0 DUP1 PUSH1 0x0 DUP1 PUSH1 0x80 DUP6 DUP8 SUB SLT ISZERO PUSH2 0x51E2 JUMPI DUP2 DUP3 REVERT JUMPDEST POP POP DUP3 CALLDATALOAD SWAP5 PUSH1 0x20 DUP5 ADD CALLDATALOAD SWAP5 POP PUSH1 0x40 DUP5 ADD CALLDATALOAD SWAP4 PUSH1 0x60 ADD CALLDATALOAD SWAP3 POP SWAP1 POP JUMP JUMPDEST PUSH1 0x0 DUP2 MLOAD DUP1 DUP5 MSTORE PUSH1 0x20 DUP1 DUP6 ADD SWAP5 POP DUP1 DUP5 ADD DUP4 JUMPDEST DUP4 DUP2 LT ISZERO PUSH2 0x522D JUMPI DUP2 MLOAD DUP8 MSTORE SWAP6 DUP3 ADD SWAP6 SWAP1 DUP3 ADD SWAP1 PUSH1 0x1 ADD PUSH2 0x5211 JUMP JUMPDEST POP SWAP5 SWAP6 SWAP5 POP POP POP POP POP JUMP JUMPDEST SWAP2 DUP3 MSTORE PUSH1 0x1 PUSH1 0x1 PUSH1 0xE0 SHL SUB NOT AND PUSH1 0x20 DUP3 ADD MSTORE PUSH1 0x24 ADD SWAP1 JUMP JUMPDEST PUSH1 0x0 DUP3 DUP5 DUP4 CALLDATACOPY SWAP2 ADD SWAP1 DUP2 MSTORE SWAP2 SWAP1 POP JUMP JUMPDEST PUSH2 0x1901 PUSH1 0xF0 SHL DUP2 MSTORE PUSH1 0x2 DUP2 ADD SWAP3 SWAP1 SWAP3 MSTORE PUSH1 0x22 DUP3 ADD MSTORE PUSH1 0x42 ADD SWAP1 JUMP JUMPDEST PUSH1 0x1 PUSH1 0x1 PUSH1 0xA0 SHL SUB SWAP2 SWAP1 SWAP2 AND DUP2 MSTORE PUSH1 0x20 ADD SWAP1 JUMP JUMPDEST PUSH1 0x20 DUP1 DUP3 MSTORE DUP3 MLOAD DUP3 DUP3 ADD DUP2 SWAP1 MSTORE PUSH1 0x0 SWAP2 SWAP1 DUP5 DUP3 ADD SWAP1 PUSH1 0x40 DUP6 ADD SWAP1 DUP5 JUMPDEST DUP2 DUP2 LT ISZERO PUSH2 0x52C7 JUMPI DUP4 MLOAD DUP4 MSTORE SWAP3 DUP5 ADD SWAP3 SWAP2 DUP5 ADD SWAP2 PUSH1 0x1 ADD PUSH2 0x52AB JUMP JUMPDEST POP SWAP1 SWAP7 SWAP6 POP POP POP POP POP POP JUMP JUMPDEST PUSH1 0x20 DUP1 DUP3 MSTORE DUP3 MLOAD DUP3 DUP3 ADD DUP2 SWAP1 MSTORE PUSH1 0x0 SWAP2 SWAP1 PUSH1 0x40 SWAP1 DUP2 DUP6 ADD SWAP1 DUP7 DUP5 ADD DUP6 JUMPDEST DUP3 DUP2 LT ISZERO PUSH2 0x5315 JUMPI DUP2 MLOAD DUP1 MLOAD DUP6 MSTORE DUP7 ADD MLOAD DUP7 DUP6 ADD MSTORE SWAP3 DUP5 ADD SWAP3 SWAP1 DUP6 ADD SWAP1 PUSH1 0x1 ADD PUSH2 0x52F0 JUMP JUMPDEST POP SWAP2 SWAP8 SWAP7 POP POP POP POP POP POP POP JUMP JUMPDEST PUSH1 0x0 PUSH1 0x20 DUP3 MSTORE PUSH2 0x9D2 PUSH1 0x20 DUP4 ADD DUP5 PUSH2 0x51FE JUMP JUMPDEST PUSH1 0x0 PUSH1 0x40 DUP3 MSTORE PUSH2 0x5348 PUSH1 0x40 DUP4 ADD DUP6 PUSH2 0x51FE JUMP JUMPDEST DUP3 DUP2 SUB PUSH1 0x20 DUP5 ADD MSTORE PUSH2 0x1284 DUP2 DUP6 PUSH2 0x51FE JUMP JUMPDEST SWAP1 ISZERO ISZERO DUP2 MSTORE PUSH1 0x20 ADD SWAP1 JUMP JUMPDEST SWAP2 ISZERO ISZERO DUP3 MSTORE PUSH1 0x20 DUP3 ADD MSTORE PUSH1 0x40 ADD SWAP1 JUMP JUMPDEST SWAP3 ISZERO ISZERO DUP4 MSTORE PUSH1 0x20 DUP4 ADD SWAP2 SWAP1 SWAP2 MSTORE PUSH1 0x40 DUP3 ADD MSTORE PUSH1 0x60 ADD SWAP1 JUMP JUMPDEST SWAP1 DUP2 MSTORE PUSH1 0x20 ADD SWAP1 JUMP JUMPDEST SWAP3 DUP4 MSTORE PUSH1 0x1 PUSH1 0x1 PUSH1 0xA0 SHL SUB SWAP2 DUP3 AND PUSH1 0x20 DUP5 ADD MSTORE AND PUSH1 0x40 DUP3 ADD MSTORE PUSH1 0x60 ADD SWAP1 JUMP JUMPDEST SWAP6 DUP7 MSTORE PUSH1 0x1 PUSH1 0x1 PUSH1 0xA0 SHL SUB SWAP5 DUP6 AND PUSH1 0x20 DUP8 ADD MSTORE SWAP3 SWAP1 SWAP4 AND PUSH1 0x40 DUP6 ADD MSTORE PUSH1 0x60 DUP5 ADD MSTORE PUSH1 0x80 DUP4 ADD SWAP2 SWAP1 SWAP2 MSTORE PUSH1 0xA0 DUP3 ADD MSTORE PUSH1 0xC0 ADD SWAP1 JUMP JUMPDEST SWAP5 DUP6 MSTORE PUSH1 0x20 DUP6 ADD SWAP4 SWAP1 SWAP4 MSTORE PUSH1 0x40 DUP5 ADD SWAP2 SWAP1 SWAP2 MSTORE PUSH1 0x60 DUP4 ADD MSTORE PUSH1 0x1 PUSH1 0x1 PUSH1 0xA0 SHL SUB AND PUSH1 0x80 DUP3 ADD MSTORE PUSH1 0xA0 ADD SWAP1 JUMP JUMPDEST SWAP4 DUP5 MSTORE PUSH1 0xFF SWAP3 SWAP1 SWAP3 AND PUSH1 0x20 DUP5 ADD MSTORE PUSH1 0x40 DUP4 ADD MSTORE PUSH1 0x60 DUP3 ADD MSTORE PUSH1 0x80 ADD SWAP1 JUMP JUMPDEST SWAP7 DUP8 MSTORE PUSH1 0x20 DUP8 ADD SWAP6 SWAP1 SWAP6 MSTORE PUSH1 0x40 DUP7 ADD SWAP4 SWAP1 SWAP4 MSTORE PUSH1 0x60 DUP6 ADD SWAP2 SWAP1 SWAP2 MSTORE PUSH1 0x80 DUP5 ADD MSTORE PUSH1 0xA0 DUP4 ADD MSTORE PUSH1 0xC0 DUP3 ADD MSTORE PUSH1 0xE0 ADD SWAP1 JUMP JUMPDEST SWAP6 DUP7 MSTORE PUSH1 0x20 DUP7 ADD SWAP5 SWAP1 SWAP5 MSTORE PUSH1 0x40 DUP6 ADD SWAP3 SWAP1 SWAP3 MSTORE PUSH1 0x60 DUP5 ADD MSTORE ISZERO ISZERO PUSH1 0x80 DUP4 ADD MSTORE PUSH1 0xA0 DUP3 ADD MSTORE PUSH1 0xC0 ADD SWAP1 JUMP JUMPDEST PUSH1 0x0 PUSH1 0x20 DUP1 DUP4 MSTORE DUP4 MLOAD DUP1 DUP3 DUP6 ADD MSTORE DUP3 JUMPDEST DUP2 DUP2 LT ISZERO PUSH2 0x54B9 JUMPI DUP6 DUP2 ADD DUP4 ADD MLOAD DUP6 DUP3 ADD PUSH1 0x40 ADD MSTORE DUP3 ADD PUSH2 0x549D JUMP JUMPDEST DUP2 DUP2 GT ISZERO PUSH2 0x54CA JUMPI DUP4 PUSH1 0x40 DUP4 DUP8 ADD ADD MSTORE JUMPDEST POP PUSH1 0x1F ADD PUSH1 0x1F NOT AND SWAP3 SWAP1 SWAP3 ADD PUSH1 0x40 ADD SWAP4 SWAP3 POP POP POP JUMP JUMPDEST PUSH1 0x0 PUSH1 0xE0 DUP3 ADD SWAP1 POP DUP3 MLOAD DUP3 MSTORE PUSH1 0x20 DUP4 ADD MLOAD PUSH1 0x20 DUP4 ADD MSTORE PUSH1 0x40 DUP4 ADD MLOAD PUSH1 0x40 DUP4 ADD MSTORE PUSH1 0x60 DUP4 ADD MLOAD PUSH1 0x60 DUP4 ADD MSTORE PUSH1 0x80 DUP4 ADD MLOAD PUSH1 0x80 DUP4 ADD MSTORE PUSH1 0xA0 DUP4 ADD MLOAD PUSH1 0xA0 DUP4 ADD MSTORE PUSH1 0xC0 DUP4 ADD MLOAD PUSH1 0xC0 DUP4 ADD MSTORE SWAP3 SWAP2 POP POP JUMP JUMPDEST PUSH1 0x0 DUP4 DUP3 MSTORE PUSH1 0x40 PUSH1 0x20 DUP4 ADD MSTORE PUSH2 0xA07 PUSH1 0x40 DUP4 ADD DUP5 PUSH2 0x51FE JUMP JUMPDEST PUSH1 0xFF SWAP2 SWAP1 SWAP2 AND DUP2 MSTORE PUSH1 0x20 ADD SWAP1 JUMP JUMPDEST PUSH1 0x40 MLOAD DUP2 DUP2 ADD PUSH1 0x1 PUSH1 0x1 PUSH1 0x40 SHL SUB DUP2 GT DUP3 DUP3 LT OR ISZERO PUSH2 0x5570 JUMPI INVALID JUMPDEST PUSH1 0x40 MSTORE SWAP2 SWAP1 POP JUMP JUMPDEST PUSH1 0x0 PUSH1 0x1 PUSH1 0x1 PUSH1 0x40 SHL SUB DUP3 GT ISZERO PUSH2 0x558B JUMPI INVALID JUMPDEST POP PUSH1 0x20 SWAP1 DUP2 MUL ADD SWAP1 JUMP JUMPDEST PUSH1 0x1 PUSH1 0x1 PUSH1 0xA0 SHL SUB DUP2 AND DUP2 EQ PUSH2 0x829 JUMPI PUSH1 0x0 DUP1 REVERT JUMPDEST DUP1 ISZERO ISZERO DUP2 EQ PUSH2 0x829 JUMPI PUSH1 0x0 DUP1 REVERT JUMPDEST PUSH1 0x3 DUP2 LT PUSH2 0x829 JUMPI PUSH1 0x0 DUP1 REVERT INVALID LOG2 PUSH5 0x6970667358 0x22 SLT KECCAK256 PUSH26 0x8EAF7CD429F6816FEA1DB4F07140A2689E8BD097C48C3F2E5BA1 PUSH5 0x7037B4F164 PUSH20 0x6F6C634300070600330000000000000000000000 "
		},
		"gasEstimates": {
			"creation": {
				"codeDepositCost": "4402200",
				"executionCost": "infinite",
				"totalCost": "infinite"
			},
			"external": {
				"DOMAIN_SEPARATOR()": "infinite",
				"allowance(address,address)": "infinite",
				"approve(address,uint256)": "22550",
				"balanceOf(address)": "1378",
				"calcLogBPTPrice(uint256,uint256,int256)": "infinite",
				"calcLogSpotPrice(uint256,uint256,uint256,uint256)": "infinite",
				"decimals()": "1158",
				"decode(bytes32)": "infinite",
				"decreaseAllowance(address,uint256)": "23615",
				"enableOracle()": "infinite",
				"encode((int256,int256,int256,int256,int256,int256,uint256))": "infinite",
				"findNearestSamplesTimestamp(uint256[],uint256)": "infinite",
				"fromLowResLog(int256)": "infinite",
				"getActionId(bytes4)": "infinite",
				"getAuthorizer()": "infinite",
				"getInvariant()": "infinite",
				"getLargestSafeQueryWindow()": "360",
				"getLastInvariant()": "1162",
				"getLatest(uint8)": "infinite",
				"getMiscData()": "infinite",
				"getNormalizedWeights()": "infinite",
				"getOwner()": "infinite",
				"getPastAccumulator(uint8,uint256,uint256)": "infinite",
				"getPastAccumulators((uint8,uint256)[])": "infinite",
				"getPausedState()": "infinite",
				"getPoolId()": "infinite",
				"getRate()": "infinite",
				"getSample(uint256)": "infinite",
				"getSwapFeePercentage()": "1243",
				"getTimeWeightedAverage((uint8,uint256,uint256)[])": "infinite",
				"getTotalSamples()": "361",
				"getVault()": "infinite",
				"increaseAllowance(address,uint256)": "23673",
				"mockMiscData((int256,int256,uint256,uint256,bool,uint256))": "infinite",
				"mockOracleDisabled()": "22330",
				"mockOracleIndex(uint256)": "21210",
				"mockSample(uint256,(int256,int256,int256,int256,int256,int256,uint256))": "infinite",
				"mockSamples(uint256[],(int256,int256,int256,int256,int256,int256,uint256)[])": "infinite",
				"name()": "infinite",
				"nonces(address)": "1333",
				"onExitPool(bytes32,address,address,uint256[],uint256,uint256,bytes)": "infinite",
				"onJoinPool(bytes32,address,address,uint256[],uint256,uint256,bytes)": "infinite",
				"onSwap((uint8,address,address,uint256,bytes32,uint256,address,address,bytes),uint256,uint256)": "infinite",
				"permit(address,address,uint256,uint256,uint8,bytes32,bytes32)": "infinite",
				"processPriceData(uint256,uint256,int256,int256,int256)": "infinite",
				"queryExit(bytes32,address,address,uint256[],uint256,uint256,bytes)": "infinite",
				"queryJoin(bytes32,address,address,uint256[],uint256,uint256,bytes)": "infinite",
				"setPaused(bool)": "infinite",
				"setSwapFeePercentage(uint256)": "infinite",
				"symbol()": "infinite",
				"toLowResLog(uint256)": "infinite",
				"totalSupply()": "1141",
				"transfer(address,uint256)": "infinite",
				"transferFrom(address,address,uint256)": "infinite",
				"update(bytes32,int256,int256,int256,uint256)": "infinite"
			},
			"internal": {
				"encode(struct MockWeightedPool2Tokens.MiscData memory)": "infinite"
			}
		},
		"methodIdentifiers": {
			"DOMAIN_SEPARATOR()": "3644e515",
			"allowance(address,address)": "dd62ed3e",
			"approve(address,uint256)": "095ea7b3",
			"balanceOf(address)": "70a08231",
			"calcLogBPTPrice(uint256,uint256,int256)": "be7a6d1e",
			"calcLogSpotPrice(uint256,uint256,uint256,uint256)": "c519a075",
			"decimals()": "313ce567",
			"decode(bytes32)": "c3748ef1",
			"decreaseAllowance(address,uint256)": "a457c2d7",
			"enableOracle()": "292c914a",
			"encode((int256,int256,int256,int256,int256,int256,uint256))": "3d48f8c1",
			"findNearestSamplesTimestamp(uint256[],uint256)": "d4376804",
			"fromLowResLog(int256)": "abb9d0d5",
			"getActionId(bytes4)": "851c1bb3",
			"getAuthorizer()": "aaabadc5",
			"getInvariant()": "c0ff1a15",
			"getLargestSafeQueryWindow()": "ffd088eb",
			"getLastInvariant()": "9b02cdde",
			"getLatest(uint8)": "b10be739",
			"getMiscData()": "4a6b0b15",
			"getNormalizedWeights()": "f89f27ed",
			"getOwner()": "893d20e8",
			"getPastAccumulator(uint8,uint256,uint256)": "264959fb",
			"getPastAccumulators((uint8,uint256)[])": "6b843239",
			"getPausedState()": "1c0de051",
			"getPoolId()": "38fff2d0",
			"getRate()": "679aefce",
			"getSample(uint256)": "60d1507c",
			"getSwapFeePercentage()": "55c67628",
			"getTimeWeightedAverage((uint8,uint256,uint256)[])": "1dccd830",
			"getTotalSamples()": "b48b5b40",
			"getVault()": "8d928af8",
			"increaseAllowance(address,uint256)": "39509351",
			"mockMiscData((int256,int256,uint256,uint256,bool,uint256))": "bf338666",
			"mockOracleDisabled()": "3081bfee",
			"mockOracleIndex(uint256)": "68a54df2",
			"mockSample(uint256,(int256,int256,int256,int256,int256,int256,uint256))": "259efd16",
			"mockSamples(uint256[],(int256,int256,int256,int256,int256,int256,uint256)[])": "e5fe5f3c",
			"name()": "06fdde03",
			"nonces(address)": "7ecebe00",
			"onExitPool(bytes32,address,address,uint256[],uint256,uint256,bytes)": "74f3b009",
			"onJoinPool(bytes32,address,address,uint256[],uint256,uint256,bytes)": "d5c096c4",
			"onSwap((uint8,address,address,uint256,bytes32,uint256,address,address,bytes),uint256,uint256)": "9d2c110c",
			"permit(address,address,uint256,uint256,uint8,bytes32,bytes32)": "d505accf",
			"processPriceData(uint256,uint256,int256,int256,int256)": "d5125db6",
			"queryExit(bytes32,address,address,uint256[],uint256,uint256,bytes)": "6028bfd4",
			"queryJoin(bytes32,address,address,uint256[],uint256,uint256,bytes)": "87ec6817",
			"setPaused(bool)": "16c38b3c",
			"setSwapFeePercentage(uint256)": "38e9922e",
			"symbol()": "95d89b41",
			"toLowResLog(uint256)": "57aad013",
			"totalSupply()": "18160ddd",
			"transfer(address,uint256)": "a9059cbb",
			"transferFrom(address,address,uint256)": "23b872dd",
			"update(bytes32,int256,int256,int256,uint256)": "ff7b6f1e"
		}
	},
	"abi": [
		{
			"inputs": [
				{
					"components": [
						{
							"internalType": "contract IVault",
							"name": "vault",
							"type": "address"
						},
						{
							"internalType": "string",
							"name": "name",
							"type": "string"
						},
						{
							"internalType": "string",
							"name": "symbol",
							"type": "string"
						},
						{
							"internalType": "contract IERC20",
							"name": "token0",
							"type": "address"
						},
						{
							"internalType": "contract IERC20",
							"name": "token1",
							"type": "address"
						},
						{
							"internalType": "uint256",
							"name": "normalizedWeight0",
							"type": "uint256"
						},
						{
							"internalType": "uint256",
							"name": "normalizedWeight1",
							"type": "uint256"
						},
						{
							"internalType": "uint256",
							"name": "swapFeePercentage",
							"type": "uint256"
						},
						{
							"internalType": "uint256",
							"name": "pauseWindowDuration",
							"type": "uint256"
						},
						{
							"internalType": "uint256",
							"name": "bufferPeriodDuration",
							"type": "uint256"
						},
						{
							"internalType": "bool",
							"name": "oracleEnabled",
							"type": "bool"
						},
						{
							"internalType": "address",
							"name": "owner",
							"type": "address"
						}
					],
					"internalType": "struct WeightedPool2Tokens.NewPoolParams",
					"name": "params",
					"type": "tuple"
				}
			],
			"stateMutability": "nonpayable",
			"type": "constructor"
		},
		{
			"anonymous": false,
			"inputs": [
				{
					"indexed": true,
					"internalType": "address",
					"name": "owner",
					"type": "address"
				},
				{
					"indexed": true,
					"internalType": "address",
					"name": "spender",
					"type": "address"
				},
				{
					"indexed": false,
					"internalType": "uint256",
					"name": "value",
					"type": "uint256"
				}
			],
			"name": "Approval",
			"type": "event"
		},
		{
			"anonymous": false,
			"inputs": [
				{
					"indexed": false,
					"internalType": "bool",
					"name": "enabled",
					"type": "bool"
				}
			],
			"name": "OracleEnabledChanged",
			"type": "event"
		},
		{
			"anonymous": false,
			"inputs": [
				{
					"indexed": false,
					"internalType": "bool",
					"name": "paused",
					"type": "bool"
				}
			],
			"name": "PausedStateChanged",
			"type": "event"
		},
		{
			"anonymous": false,
			"inputs": [
				{
					"indexed": false,
					"internalType": "bool",
					"name": "newSample",
					"type": "bool"
				},
				{
					"indexed": false,
					"internalType": "uint256",
					"name": "sampleIndex",
					"type": "uint256"
				}
			],
			"name": "PriceDataProcessed",
			"type": "event"
		},
		{
			"anonymous": false,
			"inputs": [
				{
					"indexed": false,
					"internalType": "uint256",
					"name": "swapFeePercentage",
					"type": "uint256"
				}
			],
			"name": "SwapFeePercentageChanged",
			"type": "event"
		},
		{
			"anonymous": false,
			"inputs": [
				{
					"indexed": true,
					"internalType": "address",
					"name": "from",
					"type": "address"
				},
				{
					"indexed": true,
					"internalType": "address",
					"name": "to",
					"type": "address"
				},
				{
					"indexed": false,
					"internalType": "uint256",
					"name": "value",
					"type": "uint256"
				}
			],
			"name": "Transfer",
			"type": "event"
		},
		{
			"inputs": [],
			"name": "DOMAIN_SEPARATOR",
			"outputs": [
				{
					"internalType": "bytes32",
					"name": "",
					"type": "bytes32"
				}
			],
			"stateMutability": "view",
			"type": "function"
		},
		{
			"inputs": [
				{
					"internalType": "address",
					"name": "owner",
					"type": "address"
				},
				{
					"internalType": "address",
					"name": "spender",
					"type": "address"
				}
			],
			"name": "allowance",
			"outputs": [
				{
					"internalType": "uint256",
					"name": "",
					"type": "uint256"
				}
			],
			"stateMutability": "view",
			"type": "function"
		},
		{
			"inputs": [
				{
					"internalType": "address",
					"name": "spender",
					"type": "address"
				},
				{
					"internalType": "uint256",
					"name": "amount",
					"type": "uint256"
				}
			],
			"name": "approve",
			"outputs": [
				{
					"internalType": "bool",
					"name": "",
					"type": "bool"
				}
			],
			"stateMutability": "nonpayable",
			"type": "function"
		},
		{
			"inputs": [
				{
					"internalType": "address",
					"name": "account",
					"type": "address"
				}
			],
			"name": "balanceOf",
			"outputs": [
				{
					"internalType": "uint256",
					"name": "",
					"type": "uint256"
				}
			],
			"stateMutability": "view",
			"type": "function"
		},
		{
			"inputs": [
				{
					"internalType": "uint256",
					"name": "normalizedWeight",
					"type": "uint256"
				},
				{
					"internalType": "uint256",
					"name": "balance",
					"type": "uint256"
				},
				{
					"internalType": "int256",
					"name": "bptTotalSupplyLn",
					"type": "int256"
				}
			],
			"name": "calcLogBPTPrice",
			"outputs": [
				{
					"internalType": "int256",
					"name": "",
					"type": "int256"
				}
			],
			"stateMutability": "pure",
			"type": "function"
		},
		{
			"inputs": [
				{
					"internalType": "uint256",
					"name": "normalizedWeightA",
					"type": "uint256"
				},
				{
					"internalType": "uint256",
					"name": "balanceA",
					"type": "uint256"
				},
				{
					"internalType": "uint256",
					"name": "normalizedWeightB",
					"type": "uint256"
				},
				{
					"internalType": "uint256",
					"name": "balanceB",
					"type": "uint256"
				}
			],
			"name": "calcLogSpotPrice",
			"outputs": [
				{
					"internalType": "int256",
					"name": "",
					"type": "int256"
				}
			],
			"stateMutability": "pure",
			"type": "function"
		},
		{
			"inputs": [],
			"name": "decimals",
			"outputs": [
				{
					"internalType": "uint8",
					"name": "",
					"type": "uint8"
				}
			],
			"stateMutability": "view",
			"type": "function"
		},
		{
			"inputs": [
				{
					"internalType": "bytes32",
					"name": "sample",
					"type": "bytes32"
				}
			],
			"name": "decode",
			"outputs": [
				{
					"components": [
						{
							"internalType": "int256",
							"name": "logPairPrice",
							"type": "int256"
						},
						{
							"internalType": "int256",
							"name": "accLogPairPrice",
							"type": "int256"
						},
						{
							"internalType": "int256",
							"name": "logBptPrice",
							"type": "int256"
						},
						{
							"internalType": "int256",
							"name": "accLogBptPrice",
							"type": "int256"
						},
						{
							"internalType": "int256",
							"name": "logInvariant",
							"type": "int256"
						},
						{
							"internalType": "int256",
							"name": "accLogInvariant",
							"type": "int256"
						},
						{
							"internalType": "uint256",
							"name": "timestamp",
							"type": "uint256"
						}
					],
					"internalType": "struct MockSamples.Sample",
					"name": "",
					"type": "tuple"
				}
			],
			"stateMutability": "pure",
			"type": "function"
		},
		{
			"inputs": [
				{
					"internalType": "address",
					"name": "spender",
					"type": "address"
				},
				{
					"internalType": "uint256",
					"name": "amount",
					"type": "uint256"
				}
			],
			"name": "decreaseAllowance",
			"outputs": [
				{
					"internalType": "bool",
					"name": "",
					"type": "bool"
				}
			],
			"stateMutability": "nonpayable",
			"type": "function"
		},
		{
			"inputs": [],
			"name": "enableOracle",
			"outputs": [],
			"stateMutability": "nonpayable",
			"type": "function"
		},
		{
			"inputs": [
				{
					"components": [
						{
							"internalType": "int256",
							"name": "logPairPrice",
							"type": "int256"
						},
						{
							"internalType": "int256",
							"name": "accLogPairPrice",
							"type": "int256"
						},
						{
							"internalType": "int256",
							"name": "logBptPrice",
							"type": "int256"
						},
						{
							"internalType": "int256",
							"name": "accLogBptPrice",
							"type": "int256"
						},
						{
							"internalType": "int256",
							"name": "logInvariant",
							"type": "int256"
						},
						{
							"internalType": "int256",
							"name": "accLogInvariant",
							"type": "int256"
						},
						{
							"internalType": "uint256",
							"name": "timestamp",
							"type": "uint256"
						}
					],
					"internalType": "struct MockSamples.Sample",
					"name": "sample",
					"type": "tuple"
				}
			],
			"name": "encode",
			"outputs": [
				{
					"internalType": "bytes32",
					"name": "",
					"type": "bytes32"
				}
			],
			"stateMutability": "pure",
			"type": "function"
		},
		{
			"inputs": [
				{
					"internalType": "uint256[]",
					"name": "dates",
					"type": "uint256[]"
				},
				{
					"internalType": "uint256",
					"name": "offset",
					"type": "uint256"
				}
			],
			"name": "findNearestSamplesTimestamp",
			"outputs": [
				{
					"components": [
						{
							"internalType": "uint256",
							"name": "prev",
							"type": "uint256"
						},
						{
							"internalType": "uint256",
							"name": "next",
							"type": "uint256"
						}
					],
					"internalType": "struct MockPoolPriceOracle.BinarySearchResult[]",
					"name": "results",
					"type": "tuple[]"
				}
			],
			"stateMutability": "view",
			"type": "function"
		},
		{
			"inputs": [
				{
					"internalType": "int256",
					"name": "value",
					"type": "int256"
				}
			],
			"name": "fromLowResLog",
			"outputs": [
				{
					"internalType": "uint256",
					"name": "",
					"type": "uint256"
				}
			],
			"stateMutability": "pure",
			"type": "function"
		},
		{
			"inputs": [
				{
					"internalType": "bytes4",
					"name": "selector",
					"type": "bytes4"
				}
			],
			"name": "getActionId",
			"outputs": [
				{
					"internalType": "bytes32",
					"name": "",
					"type": "bytes32"
				}
			],
			"stateMutability": "view",
			"type": "function"
		},
		{
			"inputs": [],
			"name": "getAuthorizer",
			"outputs": [
				{
					"internalType": "contract IAuthorizer",
					"name": "",
					"type": "address"
				}
			],
			"stateMutability": "view",
			"type": "function"
		},
		{
			"inputs": [],
			"name": "getInvariant",
			"outputs": [
				{
					"internalType": "uint256",
					"name": "",
					"type": "uint256"
				}
			],
			"stateMutability": "view",
			"type": "function"
		},
		{
			"inputs": [],
			"name": "getLargestSafeQueryWindow",
			"outputs": [
				{
					"internalType": "uint256",
					"name": "",
					"type": "uint256"
				}
			],
			"stateMutability": "pure",
			"type": "function"
		},
		{
			"inputs": [],
			"name": "getLastInvariant",
			"outputs": [
				{
					"internalType": "uint256",
					"name": "",
					"type": "uint256"
				}
			],
			"stateMutability": "view",
			"type": "function"
		},
		{
			"inputs": [
				{
					"internalType": "enum IPriceOracle.Variable",
					"name": "variable",
					"type": "uint8"
				}
			],
			"name": "getLatest",
			"outputs": [
				{
					"internalType": "uint256",
					"name": "",
					"type": "uint256"
				}
			],
			"stateMutability": "view",
			"type": "function"
		},
		{
			"inputs": [],
			"name": "getMiscData",
			"outputs": [
				{
					"internalType": "int256",
					"name": "logInvariant",
					"type": "int256"
				},
				{
					"internalType": "int256",
					"name": "logTotalSupply",
					"type": "int256"
				},
				{
					"internalType": "uint256",
					"name": "oracleSampleCreationTimestamp",
					"type": "uint256"
				},
				{
					"internalType": "uint256",
					"name": "oracleIndex",
					"type": "uint256"
				},
				{
					"internalType": "bool",
					"name": "oracleEnabled",
					"type": "bool"
				},
				{
					"internalType": "uint256",
					"name": "swapFeePercentage",
					"type": "uint256"
				}
			],
			"stateMutability": "view",
			"type": "function"
		},
		{
			"inputs": [],
			"name": "getNormalizedWeights",
			"outputs": [
				{
					"internalType": "uint256[]",
					"name": "",
					"type": "uint256[]"
				}
			],
			"stateMutability": "view",
			"type": "function"
		},
		{
			"inputs": [],
			"name": "getOwner",
			"outputs": [
				{
					"internalType": "address",
					"name": "",
					"type": "address"
				}
			],
			"stateMutability": "view",
			"type": "function"
		},
		{
			"inputs": [
				{
					"internalType": "enum IPriceOracle.Variable",
					"name": "variable",
					"type": "uint8"
				},
				{
					"internalType": "uint256",
					"name": "currentIndex",
					"type": "uint256"
				},
				{
					"internalType": "uint256",
					"name": "timestamp",
					"type": "uint256"
				}
			],
			"name": "getPastAccumulator",
			"outputs": [
				{
					"internalType": "int256",
					"name": "",
					"type": "int256"
				}
			],
			"stateMutability": "view",
			"type": "function"
		},
		{
			"inputs": [
				{
					"components": [
						{
							"internalType": "enum IPriceOracle.Variable",
							"name": "variable",
							"type": "uint8"
						},
						{
							"internalType": "uint256",
							"name": "ago",
							"type": "uint256"
						}
					],
					"internalType": "struct IPriceOracle.OracleAccumulatorQuery[]",
					"name": "queries",
					"type": "tuple[]"
				}
			],
			"name": "getPastAccumulators",
			"outputs": [
				{
					"internalType": "int256[]",
					"name": "results",
					"type": "int256[]"
				}
			],
			"stateMutability": "view",
			"type": "function"
		},
		{
			"inputs": [],
			"name": "getPausedState",
			"outputs": [
				{
					"internalType": "bool",
					"name": "paused",
					"type": "bool"
				},
				{
					"internalType": "uint256",
					"name": "pauseWindowEndTime",
					"type": "uint256"
				},
				{
					"internalType": "uint256",
					"name": "bufferPeriodEndTime",
					"type": "uint256"
				}
			],
			"stateMutability": "view",
			"type": "function"
		},
		{
			"inputs": [],
			"name": "getPoolId",
			"outputs": [
				{
					"internalType": "bytes32",
					"name": "",
					"type": "bytes32"
				}
			],
			"stateMutability": "view",
			"type": "function"
		},
		{
			"inputs": [],
			"name": "getRate",
			"outputs": [
				{
					"internalType": "uint256",
					"name": "",
					"type": "uint256"
				}
			],
			"stateMutability": "view",
			"type": "function"
		},
		{
			"inputs": [
				{
					"internalType": "uint256",
					"name": "index",
					"type": "uint256"
				}
			],
			"name": "getSample",
			"outputs": [
				{
					"internalType": "int256",
					"name": "logPairPrice",
					"type": "int256"
				},
				{
					"internalType": "int256",
					"name": "accLogPairPrice",
					"type": "int256"
				},
				{
					"internalType": "int256",
					"name": "logBptPrice",
					"type": "int256"
				},
				{
					"internalType": "int256",
					"name": "accLogBptPrice",
					"type": "int256"
				},
				{
					"internalType": "int256",
					"name": "logInvariant",
					"type": "int256"
				},
				{
					"internalType": "int256",
					"name": "accLogInvariant",
					"type": "int256"
				},
				{
					"internalType": "uint256",
					"name": "timestamp",
					"type": "uint256"
				}
			],
			"stateMutability": "view",
			"type": "function"
		},
		{
			"inputs": [],
			"name": "getSwapFeePercentage",
			"outputs": [
				{
					"internalType": "uint256",
					"name": "",
					"type": "uint256"
				}
			],
			"stateMutability": "view",
			"type": "function"
		},
		{
			"inputs": [
				{
					"components": [
						{
							"internalType": "enum IPriceOracle.Variable",
							"name": "variable",
							"type": "uint8"
						},
						{
							"internalType": "uint256",
							"name": "secs",
							"type": "uint256"
						},
						{
							"internalType": "uint256",
							"name": "ago",
							"type": "uint256"
						}
					],
					"internalType": "struct IPriceOracle.OracleAverageQuery[]",
					"name": "queries",
					"type": "tuple[]"
				}
			],
			"name": "getTimeWeightedAverage",
			"outputs": [
				{
					"internalType": "uint256[]",
					"name": "results",
					"type": "uint256[]"
				}
			],
			"stateMutability": "view",
			"type": "function"
		},
		{
			"inputs": [],
			"name": "getTotalSamples",
			"outputs": [
				{
					"internalType": "uint256",
					"name": "",
					"type": "uint256"
				}
			],
			"stateMutability": "pure",
			"type": "function"
		},
		{
			"inputs": [],
			"name": "getVault",
			"outputs": [
				{
					"internalType": "contract IVault",
					"name": "",
					"type": "address"
				}
			],
			"stateMutability": "view",
			"type": "function"
		},
		{
			"inputs": [
				{
					"internalType": "address",
					"name": "spender",
					"type": "address"
				},
				{
					"internalType": "uint256",
					"name": "addedValue",
					"type": "uint256"
				}
			],
			"name": "increaseAllowance",
			"outputs": [
				{
					"internalType": "bool",
					"name": "",
					"type": "bool"
				}
			],
			"stateMutability": "nonpayable",
			"type": "function"
		},
		{
			"inputs": [
				{
					"components": [
						{
							"internalType": "int256",
							"name": "logInvariant",
							"type": "int256"
						},
						{
							"internalType": "int256",
							"name": "logTotalSupply",
							"type": "int256"
						},
						{
							"internalType": "uint256",
							"name": "oracleSampleCreationTimestamp",
							"type": "uint256"
						},
						{
							"internalType": "uint256",
							"name": "oracleIndex",
							"type": "uint256"
						},
						{
							"internalType": "bool",
							"name": "oracleEnabled",
							"type": "bool"
						},
						{
							"internalType": "uint256",
							"name": "swapFeePercentage",
							"type": "uint256"
						}
					],
					"internalType": "struct MockWeightedPool2Tokens.MiscData",
					"name": "miscData",
					"type": "tuple"
				}
			],
			"name": "mockMiscData",
			"outputs": [],
			"stateMutability": "nonpayable",
			"type": "function"
		},
		{
			"inputs": [],
			"name": "mockOracleDisabled",
			"outputs": [],
			"stateMutability": "nonpayable",
			"type": "function"
		},
		{
			"inputs": [
				{
					"internalType": "uint256",
					"name": "index",
					"type": "uint256"
				}
			],
			"name": "mockOracleIndex",
			"outputs": [],
			"stateMutability": "nonpayable",
			"type": "function"
		},
		{
			"inputs": [
				{
					"internalType": "uint256",
					"name": "index",
					"type": "uint256"
				},
				{
					"components": [
						{
							"internalType": "int256",
							"name": "logPairPrice",
							"type": "int256"
						},
						{
							"internalType": "int256",
							"name": "accLogPairPrice",
							"type": "int256"
						},
						{
							"internalType": "int256",
							"name": "logBptPrice",
							"type": "int256"
						},
						{
							"internalType": "int256",
							"name": "accLogBptPrice",
							"type": "int256"
						},
						{
							"internalType": "int256",
							"name": "logInvariant",
							"type": "int256"
						},
						{
							"internalType": "int256",
							"name": "accLogInvariant",
							"type": "int256"
						},
						{
							"internalType": "uint256",
							"name": "timestamp",
							"type": "uint256"
						}
					],
					"internalType": "struct MockSamples.Sample",
					"name": "sample",
					"type": "tuple"
				}
			],
			"name": "mockSample",
			"outputs": [],
			"stateMutability": "nonpayable",
			"type": "function"
		},
		{
			"inputs": [
				{
					"internalType": "uint256[]",
					"name": "indexes",
					"type": "uint256[]"
				},
				{
					"components": [
						{
							"internalType": "int256",
							"name": "logPairPrice",
							"type": "int256"
						},
						{
							"internalType": "int256",
							"name": "accLogPairPrice",
							"type": "int256"
						},
						{
							"internalType": "int256",
							"name": "logBptPrice",
							"type": "int256"
						},
						{
							"internalType": "int256",
							"name": "accLogBptPrice",
							"type": "int256"
						},
						{
							"internalType": "int256",
							"name": "logInvariant",
							"type": "int256"
						},
						{
							"internalType": "int256",
							"name": "accLogInvariant",
							"type": "int256"
						},
						{
							"internalType": "uint256",
							"name": "timestamp",
							"type": "uint256"
						}
					],
					"internalType": "struct MockSamples.Sample[]",
					"name": "samples",
					"type": "tuple[]"
				}
			],
			"name": "mockSamples",
			"outputs": [],
			"stateMutability": "nonpayable",
			"type": "function"
		},
		{
			"inputs": [],
			"name": "name",
			"outputs": [
				{
					"internalType": "string",
					"name": "",
					"type": "string"
				}
			],
			"stateMutability": "view",
			"type": "function"
		},
		{
			"inputs": [
				{
					"internalType": "address",
					"name": "owner",
					"type": "address"
				}
			],
			"name": "nonces",
			"outputs": [
				{
					"internalType": "uint256",
					"name": "",
					"type": "uint256"
				}
			],
			"stateMutability": "view",
			"type": "function"
		},
		{
			"inputs": [
				{
					"internalType": "bytes32",
					"name": "poolId",
					"type": "bytes32"
				},
				{
					"internalType": "address",
					"name": "sender",
					"type": "address"
				},
				{
					"internalType": "address",
					"name": "recipient",
					"type": "address"
				},
				{
					"internalType": "uint256[]",
					"name": "balances",
					"type": "uint256[]"
				},
				{
					"internalType": "uint256",
					"name": "lastChangeBlock",
					"type": "uint256"
				},
				{
					"internalType": "uint256",
					"name": "protocolSwapFeePercentage",
					"type": "uint256"
				},
				{
					"internalType": "bytes",
					"name": "userData",
					"type": "bytes"
				}
			],
			"name": "onExitPool",
			"outputs": [
				{
					"internalType": "uint256[]",
					"name": "",
					"type": "uint256[]"
				},
				{
					"internalType": "uint256[]",
					"name": "",
					"type": "uint256[]"
				}
			],
			"stateMutability": "nonpayable",
			"type": "function"
		},
		{
			"inputs": [
				{
					"internalType": "bytes32",
					"name": "poolId",
					"type": "bytes32"
				},
				{
					"internalType": "address",
					"name": "sender",
					"type": "address"
				},
				{
					"internalType": "address",
					"name": "recipient",
					"type": "address"
				},
				{
					"internalType": "uint256[]",
					"name": "balances",
					"type": "uint256[]"
				},
				{
					"internalType": "uint256",
					"name": "lastChangeBlock",
					"type": "uint256"
				},
				{
					"internalType": "uint256",
					"name": "protocolSwapFeePercentage",
					"type": "uint256"
				},
				{
					"internalType": "bytes",
					"name": "userData",
					"type": "bytes"
				}
			],
			"name": "onJoinPool",
			"outputs": [
				{
					"internalType": "uint256[]",
					"name": "amountsIn",
					"type": "uint256[]"
				},
				{
					"internalType": "uint256[]",
					"name": "dueProtocolFeeAmounts",
					"type": "uint256[]"
				}
			],
			"stateMutability": "nonpayable",
			"type": "function"
		},
		{
			"inputs": [
				{
					"components": [
						{
							"internalType": "enum IVault.SwapKind",
							"name": "kind",
							"type": "uint8"
						},
						{
							"internalType": "contract IERC20",
							"name": "tokenIn",
							"type": "address"
						},
						{
							"internalType": "contract IERC20",
							"name": "tokenOut",
							"type": "address"
						},
						{
							"internalType": "uint256",
							"name": "amount",
							"type": "uint256"
						},
						{
							"internalType": "bytes32",
							"name": "poolId",
							"type": "bytes32"
						},
						{
							"internalType": "uint256",
							"name": "lastChangeBlock",
							"type": "uint256"
						},
						{
							"internalType": "address",
							"name": "from",
							"type": "address"
						},
						{
							"internalType": "address",
							"name": "to",
							"type": "address"
						},
						{
							"internalType": "bytes",
							"name": "userData",
							"type": "bytes"
						}
					],
					"internalType": "struct IPoolSwapStructs.SwapRequest",
					"name": "request",
					"type": "tuple"
				},
				{
					"internalType": "uint256",
					"name": "balanceTokenIn",
					"type": "uint256"
				},
				{
					"internalType": "uint256",
					"name": "balanceTokenOut",
					"type": "uint256"
				}
			],
			"name": "onSwap",
			"outputs": [
				{
					"internalType": "uint256",
					"name": "",
					"type": "uint256"
				}
			],
			"stateMutability": "nonpayable",
			"type": "function"
		},
		{
			"inputs": [
				{
					"internalType": "address",
					"name": "owner",
					"type": "address"
				},
				{
					"internalType": "address",
					"name": "spender",
					"type": "address"
				},
				{
					"internalType": "uint256",
					"name": "value",
					"type": "uint256"
				},
				{
					"internalType": "uint256",
					"name": "deadline",
					"type": "uint256"
				},
				{
					"internalType": "uint8",
					"name": "v",
					"type": "uint8"
				},
				{
					"internalType": "bytes32",
					"name": "r",
					"type": "bytes32"
				},
				{
					"internalType": "bytes32",
					"name": "s",
					"type": "bytes32"
				}
			],
			"name": "permit",
			"outputs": [],
			"stateMutability": "nonpayable",
			"type": "function"
		},
		{
			"inputs": [
				{
					"internalType": "uint256",
					"name": "elapsed",
					"type": "uint256"
				},
				{
					"internalType": "uint256",
					"name": "currentIndex",
					"type": "uint256"
				},
				{
					"internalType": "int256",
					"name": "logPairPrice",
					"type": "int256"
				},
				{
					"internalType": "int256",
					"name": "logBptPrice",
					"type": "int256"
				},
				{
					"internalType": "int256",
					"name": "logInvariant",
					"type": "int256"
				}
			],
			"name": "processPriceData",
			"outputs": [],
			"stateMutability": "nonpayable",
			"type": "function"
		},
		{
			"inputs": [
				{
					"internalType": "bytes32",
					"name": "poolId",
					"type": "bytes32"
				},
				{
					"internalType": "address",
					"name": "sender",
					"type": "address"
				},
				{
					"internalType": "address",
					"name": "recipient",
					"type": "address"
				},
				{
					"internalType": "uint256[]",
					"name": "balances",
					"type": "uint256[]"
				},
				{
					"internalType": "uint256",
					"name": "lastChangeBlock",
					"type": "uint256"
				},
				{
					"internalType": "uint256",
					"name": "protocolSwapFeePercentage",
					"type": "uint256"
				},
				{
					"internalType": "bytes",
					"name": "userData",
					"type": "bytes"
				}
			],
			"name": "queryExit",
			"outputs": [
				{
					"internalType": "uint256",
					"name": "bptIn",
					"type": "uint256"
				},
				{
					"internalType": "uint256[]",
					"name": "amountsOut",
					"type": "uint256[]"
				}
			],
			"stateMutability": "nonpayable",
			"type": "function"
		},
		{
			"inputs": [
				{
					"internalType": "bytes32",
					"name": "poolId",
					"type": "bytes32"
				},
				{
					"internalType": "address",
					"name": "sender",
					"type": "address"
				},
				{
					"internalType": "address",
					"name": "recipient",
					"type": "address"
				},
				{
					"internalType": "uint256[]",
					"name": "balances",
					"type": "uint256[]"
				},
				{
					"internalType": "uint256",
					"name": "lastChangeBlock",
					"type": "uint256"
				},
				{
					"internalType": "uint256",
					"name": "protocolSwapFeePercentage",
					"type": "uint256"
				},
				{
					"internalType": "bytes",
					"name": "userData",
					"type": "bytes"
				}
			],
			"name": "queryJoin",
			"outputs": [
				{
					"internalType": "uint256",
					"name": "bptOut",
					"type": "uint256"
				},
				{
					"internalType": "uint256[]",
					"name": "amountsIn",
					"type": "uint256[]"
				}
			],
			"stateMutability": "nonpayable",
			"type": "function"
		},
		{
			"inputs": [
				{
					"internalType": "bool",
					"name": "paused",
					"type": "bool"
				}
			],
			"name": "setPaused",
			"outputs": [],
			"stateMutability": "nonpayable",
			"type": "function"
		},
		{
			"inputs": [
				{
					"internalType": "uint256",
					"name": "swapFeePercentage",
					"type": "uint256"
				}
			],
			"name": "setSwapFeePercentage",
			"outputs": [],
			"stateMutability": "nonpayable",
			"type": "function"
		},
		{
			"inputs": [],
			"name": "symbol",
			"outputs": [
				{
					"internalType": "string",
					"name": "",
					"type": "string"
				}
			],
			"stateMutability": "view",
			"type": "function"
		},
		{
			"inputs": [
				{
					"internalType": "uint256",
					"name": "value",
					"type": "uint256"
				}
			],
			"name": "toLowResLog",
			"outputs": [
				{
					"internalType": "int256",
					"name": "",
					"type": "int256"
				}
			],
			"stateMutability": "pure",
			"type": "function"
		},
		{
			"inputs": [],
			"name": "totalSupply",
			"outputs": [
				{
					"internalType": "uint256",
					"name": "",
					"type": "uint256"
				}
			],
			"stateMutability": "view",
			"type": "function"
		},
		{
			"inputs": [
				{
					"internalType": "address",
					"name": "recipient",
					"type": "address"
				},
				{
					"internalType": "uint256",
					"name": "amount",
					"type": "uint256"
				}
			],
			"name": "transfer",
			"outputs": [
				{
					"internalType": "bool",
					"name": "",
					"type": "bool"
				}
			],
			"stateMutability": "nonpayable",
			"type": "function"
		},
		{
			"inputs": [
				{
					"internalType": "address",
					"name": "sender",
					"type": "address"
				},
				{
					"internalType": "address",
					"name": "recipient",
					"type": "address"
				},
				{
					"internalType": "uint256",
					"name": "amount",
					"type": "uint256"
				}
			],
			"name": "transferFrom",
			"outputs": [
				{
					"internalType": "bool",
					"name": "",
					"type": "bool"
				}
			],
			"stateMutability": "nonpayable",
			"type": "function"
		},
		{
			"inputs": [
				{
					"internalType": "bytes32",
					"name": "sample",
					"type": "bytes32"
				},
				{
					"internalType": "int256",
					"name": "logPairPrice",
					"type": "int256"
				},
				{
					"internalType": "int256",
					"name": "logBptPrice",
					"type": "int256"
				},
				{
					"internalType": "int256",
					"name": "logInvariant",
					"type": "int256"
				},
				{
					"internalType": "uint256",
					"name": "timestamp",
					"type": "uint256"
				}
			],
			"name": "update",
			"outputs": [
				{
					"components": [
						{
							"internalType": "int256",
							"name": "logPairPrice",
							"type": "int256"
						},
						{
							"internalType": "int256",
							"name": "accLogPairPrice",
							"type": "int256"
						},
						{
							"internalType": "int256",
							"name": "logBptPrice",
							"type": "int256"
						},
						{
							"internalType": "int256",
							"name": "accLogBptPrice",
							"type": "int256"
						},
						{
							"internalType": "int256",
							"name": "logInvariant",
							"type": "int256"
						},
						{
							"internalType": "int256",
							"name": "accLogInvariant",
							"type": "int256"
						},
						{
							"internalType": "uint256",
							"name": "timestamp",
							"type": "uint256"
						}
					],
					"internalType": "struct MockSamples.Sample",
					"name": "",
					"type": "tuple"
				}
			],
			"stateMutability": "pure",
			"type": "function"
		}
	]
}