{
	"data": {
		"bytecode": {
			"linkReferences": {},
			"object": "608060405234801561001057600080fd5b506118d7806100206000396000f3fe608060405234801561001057600080fd5b50600436106100935760003560e01c8063567853711161006657806356785371146101075780635b55b24a1461011a57806398f59bca1461012d578063c2546cc314610140578063fab3b9d71461015357610093565b80631b02e9a8146100985780631c855fa6146100c15780632e752149146100e15780634b114ddf146100f4575b600080fd5b6100ab6100a636600461181a565b610166565b6040516100b89190611898565b60405180910390f35b6100d46100cf3660046117ce565b610181565b6040516100b89190611854565b6100ab6100ef366004611738565b610196565b6100ab61010236600461181a565b6101a5565b6100ab6101153660046116d7565b6101b4565b6100ab61012836600461181a565b6101c9565b6100ab61013b366004611738565b6101d8565b6100ab61014e36600461181a565b6101e7565b6100ab61016136600461181a565b6101f6565b60006101758686868686610205565b90505b95945050505050565b606061018e848484610289565b949350505050565b6000610175868686868661033b565b600061017586868686866105a0565b60006101c0838361060d565b90505b92915050565b60006101758686868686610678565b6000610175868686868661073e565b6000610175868686868661092b565b600061017586868686866109d6565b600061022761021c85670429d069189e0000610a4a565b831115610131610a80565b600061023d6102368685610a92565b8690610aa8565b9050600061024b8588610aa8565b905060006102598383610aff565b9050600061026f82670de0b6b3a7640000610a92565b905061027b8a82610b32565b9a9950505050505050505050565b606060006102978484610b6e565b90506000855167ffffffffffffffff811180156102b357600080fd5b506040519080825280602002602001820160405280156102dd578160200160208202803683370190505b50905060005b865181101561033157610312838883815181106102fc57fe5b6020026020010151610a4a90919063ffffffff16565b82828151811061031e57fe5b60209081029190910101526001016102e3565b5095945050505050565b600080845167ffffffffffffffff8111801561035657600080fd5b50604051908082528060200260200182016040528015610380578160200160208202803683370190505b5090506000805b8851811015610435576103e689828151811061039f57fe5b60200260200101516103e08984815181106103b657fe5b60200260200101518c85815181106103ca57fe5b6020026020010151610bb690919063ffffffff16565b90610b6e565b8382815181106103f257fe5b60200260200101818152505061042b61042489838151811061041057fe5b60200260200101518584815181106102fc57fe5b8390610bb6565b9150600101610387565b50670de0b6b3a764000060005b895181101561055d5760008385838151811061045a57fe5b602002602001015111156104df57600061048b61047f86670de0b6b3a7640000610a92565b8d85815181106102fc57fe5b905060006104b5828c868151811061049f57fe5b6020026020010151610a9290919063ffffffff16565b90506104d66104246104cf670de0b6b3a76400008c610a92565b8390610a4a565b925050506104f6565b8882815181106104eb57fe5b602002602001015190505b600061051f8c848151811061050757fe5b60200260200101516103e0848f87815181106103ca57fe5b905061055161054a8c858151811061053357fe5b602002602001015183610bc890919063ffffffff16565b8590610a4a565b93505050600101610442565b50670de0b6b3a76400008111156105945761058a61058382670de0b6b3a7640000610a92565b8790610a4a565b9350505050610178565b60009350505050610178565b60006105c26105b787670429d069189e0000610a4a565b831115610130610a80565b60006105ce8784610bb6565b905060006105dc8883610aa8565b905060006105ea8887610b6e565b905060006105f88383610aff565b905061027b61060682610c10565b8990610a4a565b670de0b6b3a764000060005b83518110156106685761065e6104cf85838151811061063457fe5b602002602001015185848151811061064857fe5b6020026020010151610bc890919063ffffffff16565b9150600101610619565b506101c360008211610137610a80565b60008061068f846106898188610a92565b90610aa8565b90506106a86709b6e64a8ec60000821015610132610a80565b60006106c66106bf670de0b6b3a764000089610b6e565b8390610aff565b905060006106dd6106d683610c10565b8a90610a4a565b905060006106ea89610c10565b905060006106f88383610b32565b905060006107068483610a92565b905061072e610727610720670de0b6b3a76400008b610a92565b8490610a4a565b8290610bb6565b9c9b505050505050505050505050565b600080845167ffffffffffffffff8111801561075957600080fd5b50604051908082528060200260200182016040528015610783578160200160208202803683370190505b5090506000805b885181101561082b576107cd8982815181106107a257fe5b60200260200101516106898984815181106107b957fe5b60200260200101518c858151811061049f57fe5b8382815181106107d957fe5b6020026020010181815250506108216104248983815181106107f757fe5b602002602001015185848151811061080b57fe5b6020026020010151610b3290919063ffffffff16565b915060010161078a565b50670de0b6b3a764000060005b895181101561090a57600084828151811061084f57fe5b60200260200101518411156108aa57600061086c61047f86610c10565b90506000610880828c868151811061049f57fe5b90506108a161042461089a670de0b6b3a76400008c610a92565b8390610aa8565b925050506108c1565b8882815181106108b657fe5b602002602001015190505b60006108ea8c84815181106108d257fe5b60200260200101516103e0848f878151811061049f57fe5b90506108fe61054a8c858151811061053357fe5b93505050600101610838565b5061091e61091782610c10565b8790610b32565b9998505050505050505050565b60008061093c846106898188610bb6565b90506109556729a2241af62c0000821115610133610a80565b600061096c6106bf670de0b6b3a764000089610aa8565b9050600061098c61098583670de0b6b3a7640000610a92565b8a90610b32565b9050600061099989610c10565b905060006109a78383610b32565b905060006109b58483610a92565b905061072e6107276109cf670de0b6b3a76400008b610a92565b8490610aa8565b60008383116109e757506000610178565b60006109f38585610aa8565b90506000610a09670de0b6b3a764000088610b6e565b9050610a1d826709b6e64a8ec60000610c3c565b91506000610a2b8383610aff565b90506000610a42610a3b83610c10565b8b90610a4a565b905061027b81875b6000828202610a6e841580610a67575083858381610a6457fe5b04145b6003610a80565b670de0b6b3a764000090049392505050565b81610a8e57610a8e81610c53565b5050565b6000610aa2838311156001610a80565b50900390565b6000610ab78215156004610a80565b82610ac4575060006101c3565b670de0b6b3a764000083810290610ae790858381610ade57fe5b04146005610a80565b826001820381610af357fe5b046001019150506101c3565b600080610b0c8484610ca6565b90506000610b26610b1f83612710610b32565b6001610bb6565b90506101788282610bb6565b6000828202610b4c841580610a67575083858381610a6457fe5b80610b5b5760009150506101c3565b670de0b6b3a76400006000198201610af3565b6000610b7d8215156004610a80565b82610b8a575060006101c3565b670de0b6b3a764000083810290610ba490858381610ade57fe5b828181610bad57fe5b049150506101c3565b60008282016101c08482101583610a80565b600080610bd58484610ca6565b90506000610be8610b1f83612710610b32565b905080821015610bfd576000925050506101c3565b610c078282610a92565b925050506101c3565b6000670de0b6b3a76400008210610c28576000610c34565b81670de0b6b3a7640000035b90505b919050565b600081831015610c4c57816101c0565b5090919050565b62461bcd60e51b6000908152602060045260076024526642414c23000030600a808404818106603090810160081b95839006959095019082900491820690940160101b939093010160c81b604452606490fd5b600081610cbc5750670de0b6b3a76400006101c3565b82610cc9575060006101c3565b610cda600160ff1b84106006610a80565b82610d00770bce5086492111aea88f4bb1ca6bcf584181ea8059f7653284106007610a80565b826000670c7d713b49da000083138015610d215750670f43fc2c04ee000083125b15610d58576000610d3184610db1565b9050670de0b6b3a764000080820784020583670de0b6b3a764000083050201915050610d66565b81610d6284610ecf565b0290505b670de0b6b3a76400009005610d9e680238fd42c5cf03ffff198212801590610d97575068070c1cc73b00c800008213155b6008610a80565b610da78161126e565b9695505050505050565b670de0b6b3a7640000026000806a0c097ce7bc90715b34b9f160241b808401906ec097ce7bc90715b34b9f0fffffffff1985010281610dec57fe5b05905060006a0c097ce7bc90715b34b9f160241b82800205905081806a0c097ce7bc90715b34b9f160241b81840205915060038205016a0c097ce7bc90715b34b9f160241b82840205915060058205016a0c097ce7bc90715b34b9f160241b82840205915060078205016a0c097ce7bc90715b34b9f160241b82840205915060098205016a0c097ce7bc90715b34b9f160241b828402059150600b8205016a0c097ce7bc90715b34b9f160241b828402059150600d8205016a0c097ce7bc90715b34b9f160241b828402059150600f826002919005919091010295945050505050565b6000670de0b6b3a7640000821215610f0b57610f01826a0c097ce7bc90715b34b9f160241b81610efb57fe5b05610ecf565b6000039050610c37565b60007e1600ef3172e58d2e933ec884fde10064c63b5372d805e203c00000000000008312610f5c57770195e54c5dd42177f53a27172fa9ec630262827000000000830592506806f05b59d3b2000000015b73011798004d755d3c8bc8e03204cf44619e0000008312610f94576b1425982cf597cd205cef7380830592506803782dace9d9000000015b606492830292026e01855144814a7ff805980ff00840008312610fdc576e01855144814a7ff805980ff008400068056bc75e2d63100000840205925068ad78ebc5ac62000000015b6b02df0ab5a80a22c61ab5a7008312611017576b02df0ab5a80a22c61ab5a70068056bc75e2d6310000084020592506856bc75e2d631000000015b693f1fce3da636ea5cf850831261104e57693f1fce3da636ea5cf85068056bc75e2d631000008402059250682b5e3af16b18800000015b690127fa27722cc06cc5e2831261108557690127fa27722cc06cc5e268056bc75e2d6310000084020592506815af1d78b58c400000015b68280e60114edb805d0383126110ba5768280e60114edb805d0368056bc75e2d631000008402059250680ad78ebc5ac6200000015b680ebc5fb4174612111083126110e557680ebc5fb4174612111068056bc75e2d631000009384020592015b6808f00f760a4b2db55d831261111a576808f00f760a4b2db55d68056bc75e2d6310000084020592506802b5e3af16b1880000015b6806f5f1775788937937831261114f576806f5f177578893793768056bc75e2d63100000840205925068015af1d78b58c40000015b6806248f33704b2866038312611183576806248f33704b28660368056bc75e2d63100000840205925067ad78ebc5ac620000015b6805c548670b9510e7ac83126111b7576805c548670b9510e7ac68056bc75e2d6310000084020592506756bc75e2d6310000015b600068056bc75e2d63100000840168056bc75e2d6310000080860302816111da57fe5b059050600068056bc75e2d63100000828002059050818068056bc75e2d63100000818402059150600382050168056bc75e2d63100000828402059150600582050168056bc75e2d63100000828402059150600782050168056bc75e2d63100000828402059150600982050168056bc75e2d63100000828402059150600b820501600202606485820105979650505050505050565b600061129d680238fd42c5cf03ffff198312158015611296575068070c1cc73b00c800008313155b6009610a80565b60008212156112d0576112b28260000361126e565b6a0c097ce7bc90715b34b9f160241b816112c857fe5b059050610c37565b60006806f05b59d3b2000000831261131057506806f05b59d3b1ffffff1990910190770195e54c5dd42177f53a27172fa9ec630262827000000000611346565b6803782dace9d9000000831261134257506803782dace9d8ffffff19909101906b1425982cf597cd205cef7380611346565b5060015b6064929092029168056bc75e2d6310000068ad78ebc5ac6200000084126113965768ad78ebc5ac61ffffff199093019268056bc75e2d631000006e01855144814a7ff805980ff008400082020590505b6856bc75e2d63100000084126113d2576856bc75e2d630ffffff199093019268056bc75e2d631000006b02df0ab5a80a22c61ab5a70082020590505b682b5e3af16b18800000841261140c57682b5e3af16b187fffff199093019268056bc75e2d63100000693f1fce3da636ea5cf85082020590505b6815af1d78b58c4000008412611446576815af1d78b58c3fffff199093019268056bc75e2d63100000690127fa27722cc06cc5e282020590505b680ad78ebc5ac6200000841261147f57680ad78ebc5ac61fffff199093019268056bc75e2d6310000068280e60114edb805d0382020590505b68056bc75e2d6310000084126114b85768056bc75e2d630fffff199093019268056bc75e2d63100000680ebc5fb4174612111082020590505b6802b5e3af16b188000084126114f1576802b5e3af16b187ffff199093019268056bc75e2d631000006808f00f760a4b2db55d82020590505b68015af1d78b58c40000841261152a5768015af1d78b58c3ffff199093019268056bc75e2d631000006806f5f177578893793782020590505b68056bc75e2d631000008481019085906002908280020505918201919050600368056bc75e2d631000008783020505918201919050600468056bc75e2d631000008783020505918201919050600568056bc75e2d631000008783020505918201919050600668056bc75e2d631000008783020505918201919050600768056bc75e2d631000008783020505918201919050600868056bc75e2d631000008783020505918201919050600968056bc75e2d631000008783020505918201919050600a68056bc75e2d631000008783020505918201919050600b68056bc75e2d631000008783020505918201919050600c68056bc75e2d631000008783020505918201919050606468056bc75e2d63100000848402058502059695505050505050565b600082601f83011261165b578081fd5b8135602067ffffffffffffffff8083111561167257fe5b8183026040518382820101818110848211171561168b57fe5b604052848152838101925086840182880185018910156116a9578687fd5b8692505b858310156116cb5780358452928401926001929092019184016116ad565b50979650505050505050565b600080604083850312156116e9578182fd5b823567ffffffffffffffff80821115611700578384fd5b61170c8683870161164b565b93506020850135915080821115611721578283fd5b5061172e8582860161164b565b9150509250929050565b600080600080600060a0868803121561174f578081fd5b853567ffffffffffffffff80821115611766578283fd5b61177289838a0161164b565b96506020880135915080821115611787578283fd5b61179389838a0161164b565b955060408801359150808211156117a8578283fd5b506117b58882890161164b565b9598949750949560608101359550608001359392505050565b6000806000606084860312156117e2578283fd5b833567ffffffffffffffff8111156117f8578384fd5b6118048682870161164b565b9660208601359650604090950135949350505050565b600080600080600060a08688031215611831578081fd5b505083359560208501359550604085013594606081013594506080013592509050565b6020808252825182820181905260009190848201906040850190845b8181101561188c57835183529284019291840191600101611870565b50909695505050505050565b9081526020019056fea264697066735822122024d4e978ef1d3d577e4024f9aa8042ca6f5f38344bc502899fc6df51e51c92ef64736f6c63430007060033",
			"opcodes": "PUSH1 0x80 PUSH1 0x40 MSTORE CALLVALUE DUP1 ISZERO PUSH2 0x10 JUMPI PUSH1 0x0 DUP1 REVERT JUMPDEST POP PUSH2 0x18D7 DUP1 PUSH2 0x20 PUSH1 0x0 CODECOPY PUSH1 0x0 RETURN INVALID PUSH1 0x80 PUSH1 0x40 MSTORE CALLVALUE DUP1 ISZERO PUSH2 0x10 JUMPI PUSH1 0x0 DUP1 REVERT JUMPDEST POP PUSH1 0x4 CALLDATASIZE LT PUSH2 0x93 JUMPI PUSH1 0x0 CALLDATALOAD PUSH1 0xE0 SHR DUP1 PUSH4 0x56785371 GT PUSH2 0x66 JUMPI DUP1 PUSH4 0x56785371 EQ PUSH2 0x107 JUMPI DUP1 PUSH4 0x5B55B24A EQ PUSH2 0x11A JUMPI DUP1 PUSH4 0x98F59BCA EQ PUSH2 0x12D JUMPI DUP1 PUSH4 0xC2546CC3 EQ PUSH2 0x140 JUMPI DUP1 PUSH4 0xFAB3B9D7 EQ PUSH2 0x153 JUMPI PUSH2 0x93 JUMP JUMPDEST DUP1 PUSH4 0x1B02E9A8 EQ PUSH2 0x98 JUMPI DUP1 PUSH4 0x1C855FA6 EQ PUSH2 0xC1 JUMPI DUP1 PUSH4 0x2E752149 EQ PUSH2 0xE1 JUMPI DUP1 PUSH4 0x4B114DDF EQ PUSH2 0xF4 JUMPI JUMPDEST PUSH1 0x0 DUP1 REVERT JUMPDEST PUSH2 0xAB PUSH2 0xA6 CALLDATASIZE PUSH1 0x4 PUSH2 0x181A JUMP JUMPDEST PUSH2 0x166 JUMP JUMPDEST PUSH1 0x40 MLOAD PUSH2 0xB8 SWAP2 SWAP1 PUSH2 0x1898 JUMP JUMPDEST PUSH1 0x40 MLOAD DUP1 SWAP2 SUB SWAP1 RETURN JUMPDEST PUSH2 0xD4 PUSH2 0xCF CALLDATASIZE PUSH1 0x4 PUSH2 0x17CE JUMP JUMPDEST PUSH2 0x181 JUMP JUMPDEST PUSH1 0x40 MLOAD PUSH2 0xB8 SWAP2 SWAP1 PUSH2 0x1854 JUMP JUMPDEST PUSH2 0xAB PUSH2 0xEF CALLDATASIZE PUSH1 0x4 PUSH2 0x1738 JUMP JUMPDEST PUSH2 0x196 JUMP JUMPDEST PUSH2 0xAB PUSH2 0x102 CALLDATASIZE PUSH1 0x4 PUSH2 0x181A JUMP JUMPDEST PUSH2 0x1A5 JUMP JUMPDEST PUSH2 0xAB PUSH2 0x115 CALLDATASIZE PUSH1 0x4 PUSH2 0x16D7 JUMP JUMPDEST PUSH2 0x1B4 JUMP JUMPDEST PUSH2 0xAB PUSH2 0x128 CALLDATASIZE PUSH1 0x4 PUSH2 0x181A JUMP JUMPDEST PUSH2 0x1C9 JUMP JUMPDEST PUSH2 0xAB PUSH2 0x13B CALLDATASIZE PUSH1 0x4 PUSH2 0x1738 JUMP JUMPDEST PUSH2 0x1D8 JUMP JUMPDEST PUSH2 0xAB PUSH2 0x14E CALLDATASIZE PUSH1 0x4 PUSH2 0x181A JUMP JUMPDEST PUSH2 0x1E7 JUMP JUMPDEST PUSH2 0xAB PUSH2 0x161 CALLDATASIZE PUSH1 0x4 PUSH2 0x181A JUMP JUMPDEST PUSH2 0x1F6 JUMP JUMPDEST PUSH1 0x0 PUSH2 0x175 DUP7 DUP7 DUP7 DUP7 DUP7 PUSH2 0x205 JUMP JUMPDEST SWAP1 POP JUMPDEST SWAP6 SWAP5 POP POP POP POP POP JUMP JUMPDEST PUSH1 0x60 PUSH2 0x18E DUP5 DUP5 DUP5 PUSH2 0x289 JUMP JUMPDEST SWAP5 SWAP4 POP POP POP POP JUMP JUMPDEST PUSH1 0x0 PUSH2 0x175 DUP7 DUP7 DUP7 DUP7 DUP7 PUSH2 0x33B JUMP JUMPDEST PUSH1 0x0 PUSH2 0x175 DUP7 DUP7 DUP7 DUP7 DUP7 PUSH2 0x5A0 JUMP JUMPDEST PUSH1 0x0 PUSH2 0x1C0 DUP4 DUP4 PUSH2 0x60D JUMP JUMPDEST SWAP1 POP JUMPDEST SWAP3 SWAP2 POP POP JUMP JUMPDEST PUSH1 0x0 PUSH2 0x175 DUP7 DUP7 DUP7 DUP7 DUP7 PUSH2 0x678 JUMP JUMPDEST PUSH1 0x0 PUSH2 0x175 DUP7 DUP7 DUP7 DUP7 DUP7 PUSH2 0x73E JUMP JUMPDEST PUSH1 0x0 PUSH2 0x175 DUP7 DUP7 DUP7 DUP7 DUP7 PUSH2 0x92B JUMP JUMPDEST PUSH1 0x0 PUSH2 0x175 DUP7 DUP7 DUP7 DUP7 DUP7 PUSH2 0x9D6 JUMP JUMPDEST PUSH1 0x0 PUSH2 0x227 PUSH2 0x21C DUP6 PUSH8 0x429D069189E0000 PUSH2 0xA4A JUMP JUMPDEST DUP4 GT ISZERO PUSH2 0x131 PUSH2 0xA80 JUMP JUMPDEST PUSH1 0x0 PUSH2 0x23D PUSH2 0x236 DUP7 DUP6 PUSH2 0xA92 JUMP JUMPDEST DUP7 SWAP1 PUSH2 0xAA8 JUMP JUMPDEST SWAP1 POP PUSH1 0x0 PUSH2 0x24B DUP6 DUP9 PUSH2 0xAA8 JUMP JUMPDEST SWAP1 POP PUSH1 0x0 PUSH2 0x259 DUP4 DUP4 PUSH2 0xAFF JUMP JUMPDEST SWAP1 POP PUSH1 0x0 PUSH2 0x26F DUP3 PUSH8 0xDE0B6B3A7640000 PUSH2 0xA92 JUMP JUMPDEST SWAP1 POP PUSH2 0x27B DUP11 DUP3 PUSH2 0xB32 JUMP JUMPDEST SWAP11 SWAP10 POP POP POP POP POP POP POP POP POP POP JUMP JUMPDEST PUSH1 0x60 PUSH1 0x0 PUSH2 0x297 DUP5 DUP5 PUSH2 0xB6E JUMP JUMPDEST SWAP1 POP PUSH1 0x0 DUP6 MLOAD PUSH8 0xFFFFFFFFFFFFFFFF DUP2 GT DUP1 ISZERO PUSH2 0x2B3 JUMPI PUSH1 0x0 DUP1 REVERT JUMPDEST POP PUSH1 0x40 MLOAD SWAP1 DUP1 DUP3 MSTORE DUP1 PUSH1 0x20 MUL PUSH1 0x20 ADD DUP3 ADD PUSH1 0x40 MSTORE DUP1 ISZERO PUSH2 0x2DD JUMPI DUP2 PUSH1 0x20 ADD PUSH1 0x20 DUP3 MUL DUP1 CALLDATASIZE DUP4 CALLDATACOPY ADD SWAP1 POP JUMPDEST POP SWAP1 POP PUSH1 0x0 JUMPDEST DUP7 MLOAD DUP2 LT ISZERO PUSH2 0x331 JUMPI PUSH2 0x312 DUP4 DUP9 DUP4 DUP2 MLOAD DUP2 LT PUSH2 0x2FC JUMPI INVALID JUMPDEST PUSH1 0x20 MUL PUSH1 0x20 ADD ADD MLOAD PUSH2 0xA4A SWAP1 SWAP2 SWAP1 PUSH4 0xFFFFFFFF AND JUMP JUMPDEST DUP3 DUP3 DUP2 MLOAD DUP2 LT PUSH2 0x31E JUMPI INVALID JUMPDEST PUSH1 0x20 SWAP1 DUP2 MUL SWAP2 SWAP1 SWAP2 ADD ADD MSTORE PUSH1 0x1 ADD PUSH2 0x2E3 JUMP JUMPDEST POP SWAP6 SWAP5 POP POP POP POP POP JUMP JUMPDEST PUSH1 0x0 DUP1 DUP5 MLOAD PUSH8 0xFFFFFFFFFFFFFFFF DUP2 GT DUP1 ISZERO PUSH2 0x356 JUMPI PUSH1 0x0 DUP1 REVERT JUMPDEST POP PUSH1 0x40 MLOAD SWAP1 DUP1 DUP3 MSTORE DUP1 PUSH1 0x20 MUL PUSH1 0x20 ADD DUP3 ADD PUSH1 0x40 MSTORE DUP1 ISZERO PUSH2 0x380 JUMPI DUP2 PUSH1 0x20 ADD PUSH1 0x20 DUP3 MUL DUP1 CALLDATASIZE DUP4 CALLDATACOPY ADD SWAP1 POP JUMPDEST POP SWAP1 POP PUSH1 0x0 DUP1 JUMPDEST DUP9 MLOAD DUP2 LT ISZERO PUSH2 0x435 JUMPI PUSH2 0x3E6 DUP10 DUP3 DUP2 MLOAD DUP2 LT PUSH2 0x39F JUMPI INVALID JUMPDEST PUSH1 0x20 MUL PUSH1 0x20 ADD ADD MLOAD PUSH2 0x3E0 DUP10 DUP5 DUP2 MLOAD DUP2 LT PUSH2 0x3B6 JUMPI INVALID JUMPDEST PUSH1 0x20 MUL PUSH1 0x20 ADD ADD MLOAD DUP13 DUP6 DUP2 MLOAD DUP2 LT PUSH2 0x3CA JUMPI INVALID JUMPDEST PUSH1 0x20 MUL PUSH1 0x20 ADD ADD MLOAD PUSH2 0xBB6 SWAP1 SWAP2 SWAP1 PUSH4 0xFFFFFFFF AND JUMP JUMPDEST SWAP1 PUSH2 0xB6E JUMP JUMPDEST DUP4 DUP3 DUP2 MLOAD DUP2 LT PUSH2 0x3F2 JUMPI INVALID JUMPDEST PUSH1 0x20 MUL PUSH1 0x20 ADD ADD DUP2 DUP2 MSTORE POP POP PUSH2 0x42B PUSH2 0x424 DUP10 DUP4 DUP2 MLOAD DUP2 LT PUSH2 0x410 JUMPI INVALID JUMPDEST PUSH1 0x20 MUL PUSH1 0x20 ADD ADD MLOAD DUP6 DUP5 DUP2 MLOAD DUP2 LT PUSH2 0x2FC JUMPI INVALID JUMPDEST DUP4 SWAP1 PUSH2 0xBB6 JUMP JUMPDEST SWAP2 POP PUSH1 0x1 ADD PUSH2 0x387 JUMP JUMPDEST POP PUSH8 0xDE0B6B3A7640000 PUSH1 0x0 JUMPDEST DUP10 MLOAD DUP2 LT ISZERO PUSH2 0x55D JUMPI PUSH1 0x0 DUP4 DUP6 DUP4 DUP2 MLOAD DUP2 LT PUSH2 0x45A JUMPI INVALID JUMPDEST PUSH1 0x20 MUL PUSH1 0x20 ADD ADD MLOAD GT ISZERO PUSH2 0x4DF JUMPI PUSH1 0x0 PUSH2 0x48B PUSH2 0x47F DUP7 PUSH8 0xDE0B6B3A7640000 PUSH2 0xA92 JUMP JUMPDEST DUP14 DUP6 DUP2 MLOAD DUP2 LT PUSH2 0x2FC JUMPI INVALID JUMPDEST SWAP1 POP PUSH1 0x0 PUSH2 0x4B5 DUP3 DUP13 DUP7 DUP2 MLOAD DUP2 LT PUSH2 0x49F JUMPI INVALID JUMPDEST PUSH1 0x20 MUL PUSH1 0x20 ADD ADD MLOAD PUSH2 0xA92 SWAP1 SWAP2 SWAP1 PUSH4 0xFFFFFFFF AND JUMP JUMPDEST SWAP1 POP PUSH2 0x4D6 PUSH2 0x424 PUSH2 0x4CF PUSH8 0xDE0B6B3A7640000 DUP13 PUSH2 0xA92 JUMP JUMPDEST DUP4 SWAP1 PUSH2 0xA4A JUMP JUMPDEST SWAP3 POP POP POP PUSH2 0x4F6 JUMP JUMPDEST DUP9 DUP3 DUP2 MLOAD DUP2 LT PUSH2 0x4EB JUMPI INVALID JUMPDEST PUSH1 0x20 MUL PUSH1 0x20 ADD ADD MLOAD SWAP1 POP JUMPDEST PUSH1 0x0 PUSH2 0x51F DUP13 DUP5 DUP2 MLOAD DUP2 LT PUSH2 0x507 JUMPI INVALID JUMPDEST PUSH1 0x20 MUL PUSH1 0x20 ADD ADD MLOAD PUSH2 0x3E0 DUP5 DUP16 DUP8 DUP2 MLOAD DUP2 LT PUSH2 0x3CA JUMPI INVALID JUMPDEST SWAP1 POP PUSH2 0x551 PUSH2 0x54A DUP13 DUP6 DUP2 MLOAD DUP2 LT PUSH2 0x533 JUMPI INVALID JUMPDEST PUSH1 0x20 MUL PUSH1 0x20 ADD ADD MLOAD DUP4 PUSH2 0xBC8 SWAP1 SWAP2 SWAP1 PUSH4 0xFFFFFFFF AND JUMP JUMPDEST DUP6 SWAP1 PUSH2 0xA4A JUMP JUMPDEST SWAP4 POP POP POP PUSH1 0x1 ADD PUSH2 0x442 JUMP JUMPDEST POP PUSH8 0xDE0B6B3A7640000 DUP2 GT ISZERO PUSH2 0x594 JUMPI PUSH2 0x58A PUSH2 0x583 DUP3 PUSH8 0xDE0B6B3A7640000 PUSH2 0xA92 JUMP JUMPDEST DUP8 SWAP1 PUSH2 0xA4A JUMP JUMPDEST SWAP4 POP POP POP POP PUSH2 0x178 JUMP JUMPDEST PUSH1 0x0 SWAP4 POP POP POP POP PUSH2 0x178 JUMP JUMPDEST PUSH1 0x0 PUSH2 0x5C2 PUSH2 0x5B7 DUP8 PUSH8 0x429D069189E0000 PUSH2 0xA4A JUMP JUMPDEST DUP4 GT ISZERO PUSH2 0x130 PUSH2 0xA80 JUMP JUMPDEST PUSH1 0x0 PUSH2 0x5CE DUP8 DUP5 PUSH2 0xBB6 JUMP JUMPDEST SWAP1 POP PUSH1 0x0 PUSH2 0x5DC DUP9 DUP4 PUSH2 0xAA8 JUMP JUMPDEST SWAP1 POP PUSH1 0x0 PUSH2 0x5EA DUP9 DUP8 PUSH2 0xB6E JUMP JUMPDEST SWAP1 POP PUSH1 0x0 PUSH2 0x5F8 DUP4 DUP4 PUSH2 0xAFF JUMP JUMPDEST SWAP1 POP PUSH2 0x27B PUSH2 0x606 DUP3 PUSH2 0xC10 JUMP JUMPDEST DUP10 SWAP1 PUSH2 0xA4A JUMP JUMPDEST PUSH8 0xDE0B6B3A7640000 PUSH1 0x0 JUMPDEST DUP4 MLOAD DUP2 LT ISZERO PUSH2 0x668 JUMPI PUSH2 0x65E PUSH2 0x4CF DUP6 DUP4 DUP2 MLOAD DUP2 LT PUSH2 0x634 JUMPI INVALID JUMPDEST PUSH1 0x20 MUL PUSH1 0x20 ADD ADD MLOAD DUP6 DUP5 DUP2 MLOAD DUP2 LT PUSH2 0x648 JUMPI INVALID JUMPDEST PUSH1 0x20 MUL PUSH1 0x20 ADD ADD MLOAD PUSH2 0xBC8 SWAP1 SWAP2 SWAP1 PUSH4 0xFFFFFFFF AND JUMP JUMPDEST SWAP2 POP PUSH1 0x1 ADD PUSH2 0x619 JUMP JUMPDEST POP PUSH2 0x1C3 PUSH1 0x0 DUP3 GT PUSH2 0x137 PUSH2 0xA80 JUMP JUMPDEST PUSH1 0x0 DUP1 PUSH2 0x68F DUP5 PUSH2 0x689 DUP2 DUP9 PUSH2 0xA92 JUMP JUMPDEST SWAP1 PUSH2 0xAA8 JUMP JUMPDEST SWAP1 POP PUSH2 0x6A8 PUSH8 0x9B6E64A8EC60000 DUP3 LT ISZERO PUSH2 0x132 PUSH2 0xA80 JUMP JUMPDEST PUSH1 0x0 PUSH2 0x6C6 PUSH2 0x6BF PUSH8 0xDE0B6B3A7640000 DUP10 PUSH2 0xB6E JUMP JUMPDEST DUP4 SWAP1 PUSH2 0xAFF JUMP JUMPDEST SWAP1 POP PUSH1 0x0 PUSH2 0x6DD PUSH2 0x6D6 DUP4 PUSH2 0xC10 JUMP JUMPDEST DUP11 SWAP1 PUSH2 0xA4A JUMP JUMPDEST SWAP1 POP PUSH1 0x0 PUSH2 0x6EA DUP10 PUSH2 0xC10 JUMP JUMPDEST SWAP1 POP PUSH1 0x0 PUSH2 0x6F8 DUP4 DUP4 PUSH2 0xB32 JUMP JUMPDEST SWAP1 POP PUSH1 0x0 PUSH2 0x706 DUP5 DUP4 PUSH2 0xA92 JUMP JUMPDEST SWAP1 POP PUSH2 0x72E PUSH2 0x727 PUSH2 0x720 PUSH8 0xDE0B6B3A7640000 DUP12 PUSH2 0xA92 JUMP JUMPDEST DUP5 SWAP1 PUSH2 0xA4A JUMP JUMPDEST DUP3 SWAP1 PUSH2 0xBB6 JUMP JUMPDEST SWAP13 SWAP12 POP POP POP POP POP POP POP POP POP POP POP POP JUMP JUMPDEST PUSH1 0x0 DUP1 DUP5 MLOAD PUSH8 0xFFFFFFFFFFFFFFFF DUP2 GT DUP1 ISZERO PUSH2 0x759 JUMPI PUSH1 0x0 DUP1 REVERT JUMPDEST POP PUSH1 0x40 MLOAD SWAP1 DUP1 DUP3 MSTORE DUP1 PUSH1 0x20 MUL PUSH1 0x20 ADD DUP3 ADD PUSH1 0x40 MSTORE DUP1 ISZERO PUSH2 0x783 JUMPI DUP2 PUSH1 0x20 ADD PUSH1 0x20 DUP3 MUL DUP1 CALLDATASIZE DUP4 CALLDATACOPY ADD SWAP1 POP JUMPDEST POP SWAP1 POP PUSH1 0x0 DUP1 JUMPDEST DUP9 MLOAD DUP2 LT ISZERO PUSH2 0x82B JUMPI PUSH2 0x7CD DUP10 DUP3 DUP2 MLOAD DUP2 LT PUSH2 0x7A2 JUMPI INVALID JUMPDEST PUSH1 0x20 MUL PUSH1 0x20 ADD ADD MLOAD PUSH2 0x689 DUP10 DUP5 DUP2 MLOAD DUP2 LT PUSH2 0x7B9 JUMPI INVALID JUMPDEST PUSH1 0x20 MUL PUSH1 0x20 ADD ADD MLOAD DUP13 DUP6 DUP2 MLOAD DUP2 LT PUSH2 0x49F JUMPI INVALID JUMPDEST DUP4 DUP3 DUP2 MLOAD DUP2 LT PUSH2 0x7D9 JUMPI INVALID JUMPDEST PUSH1 0x20 MUL PUSH1 0x20 ADD ADD DUP2 DUP2 MSTORE POP POP PUSH2 0x821 PUSH2 0x424 DUP10 DUP4 DUP2 MLOAD DUP2 LT PUSH2 0x7F7 JUMPI INVALID JUMPDEST PUSH1 0x20 MUL PUSH1 0x20 ADD ADD MLOAD DUP6 DUP5 DUP2 MLOAD DUP2 LT PUSH2 0x80B JUMPI INVALID JUMPDEST PUSH1 0x20 MUL PUSH1 0x20 ADD ADD MLOAD PUSH2 0xB32 SWAP1 SWAP2 SWAP1 PUSH4 0xFFFFFFFF AND JUMP JUMPDEST SWAP2 POP PUSH1 0x1 ADD PUSH2 0x78A JUMP JUMPDEST POP PUSH8 0xDE0B6B3A7640000 PUSH1 0x0 JUMPDEST DUP10 MLOAD DUP2 LT ISZERO PUSH2 0x90A JUMPI PUSH1 0x0 DUP5 DUP3 DUP2 MLOAD DUP2 LT PUSH2 0x84F JUMPI INVALID JUMPDEST PUSH1 0x20 MUL PUSH1 0x20 ADD ADD MLOAD DUP5 GT ISZERO PUSH2 0x8AA JUMPI PUSH1 0x0 PUSH2 0x86C PUSH2 0x47F DUP7 PUSH2 0xC10 JUMP JUMPDEST SWAP1 POP PUSH1 0x0 PUSH2 0x880 DUP3 DUP13 DUP7 DUP2 MLOAD DUP2 LT PUSH2 0x49F JUMPI INVALID JUMPDEST SWAP1 POP PUSH2 0x8A1 PUSH2 0x424 PUSH2 0x89A PUSH8 0xDE0B6B3A7640000 DUP13 PUSH2 0xA92 JUMP JUMPDEST DUP4 SWAP1 PUSH2 0xAA8 JUMP JUMPDEST SWAP3 POP POP POP PUSH2 0x8C1 JUMP JUMPDEST DUP9 DUP3 DUP2 MLOAD DUP2 LT PUSH2 0x8B6 JUMPI INVALID JUMPDEST PUSH1 0x20 MUL PUSH1 0x20 ADD ADD MLOAD SWAP1 POP JUMPDEST PUSH1 0x0 PUSH2 0x8EA DUP13 DUP5 DUP2 MLOAD DUP2 LT PUSH2 0x8D2 JUMPI INVALID JUMPDEST PUSH1 0x20 MUL PUSH1 0x20 ADD ADD MLOAD PUSH2 0x3E0 DUP5 DUP16 DUP8 DUP2 MLOAD DUP2 LT PUSH2 0x49F JUMPI INVALID JUMPDEST SWAP1 POP PUSH2 0x8FE PUSH2 0x54A DUP13 DUP6 DUP2 MLOAD DUP2 LT PUSH2 0x533 JUMPI INVALID JUMPDEST SWAP4 POP POP POP PUSH1 0x1 ADD PUSH2 0x838 JUMP JUMPDEST POP PUSH2 0x91E PUSH2 0x917 DUP3 PUSH2 0xC10 JUMP JUMPDEST DUP8 SWAP1 PUSH2 0xB32 JUMP JUMPDEST SWAP10 SWAP9 POP POP POP POP POP POP POP POP POP JUMP JUMPDEST PUSH1 0x0 DUP1 PUSH2 0x93C DUP5 PUSH2 0x689 DUP2 DUP9 PUSH2 0xBB6 JUMP JUMPDEST SWAP1 POP PUSH2 0x955 PUSH8 0x29A2241AF62C0000 DUP3 GT ISZERO PUSH2 0x133 PUSH2 0xA80 JUMP JUMPDEST PUSH1 0x0 PUSH2 0x96C PUSH2 0x6BF PUSH8 0xDE0B6B3A7640000 DUP10 PUSH2 0xAA8 JUMP JUMPDEST SWAP1 POP PUSH1 0x0 PUSH2 0x98C PUSH2 0x985 DUP4 PUSH8 0xDE0B6B3A7640000 PUSH2 0xA92 JUMP JUMPDEST DUP11 SWAP1 PUSH2 0xB32 JUMP JUMPDEST SWAP1 POP PUSH1 0x0 PUSH2 0x999 DUP10 PUSH2 0xC10 JUMP JUMPDEST SWAP1 POP PUSH1 0x0 PUSH2 0x9A7 DUP4 DUP4 PUSH2 0xB32 JUMP JUMPDEST SWAP1 POP PUSH1 0x0 PUSH2 0x9B5 DUP5 DUP4 PUSH2 0xA92 JUMP JUMPDEST SWAP1 POP PUSH2 0x72E PUSH2 0x727 PUSH2 0x9CF PUSH8 0xDE0B6B3A7640000 DUP12 PUSH2 0xA92 JUMP JUMPDEST DUP5 SWAP1 PUSH2 0xAA8 JUMP JUMPDEST PUSH1 0x0 DUP4 DUP4 GT PUSH2 0x9E7 JUMPI POP PUSH1 0x0 PUSH2 0x178 JUMP JUMPDEST PUSH1 0x0 PUSH2 0x9F3 DUP6 DUP6 PUSH2 0xAA8 JUMP JUMPDEST SWAP1 POP PUSH1 0x0 PUSH2 0xA09 PUSH8 0xDE0B6B3A7640000 DUP9 PUSH2 0xB6E JUMP JUMPDEST SWAP1 POP PUSH2 0xA1D DUP3 PUSH8 0x9B6E64A8EC60000 PUSH2 0xC3C JUMP JUMPDEST SWAP2 POP PUSH1 0x0 PUSH2 0xA2B DUP4 DUP4 PUSH2 0xAFF JUMP JUMPDEST SWAP1 POP PUSH1 0x0 PUSH2 0xA42 PUSH2 0xA3B DUP4 PUSH2 0xC10 JUMP JUMPDEST DUP12 SWAP1 PUSH2 0xA4A JUMP JUMPDEST SWAP1 POP PUSH2 0x27B DUP2 DUP8 JUMPDEST PUSH1 0x0 DUP3 DUP3 MUL PUSH2 0xA6E DUP5 ISZERO DUP1 PUSH2 0xA67 JUMPI POP DUP4 DUP6 DUP4 DUP2 PUSH2 0xA64 JUMPI INVALID JUMPDEST DIV EQ JUMPDEST PUSH1 0x3 PUSH2 0xA80 JUMP JUMPDEST PUSH8 0xDE0B6B3A7640000 SWAP1 DIV SWAP4 SWAP3 POP POP POP JUMP JUMPDEST DUP2 PUSH2 0xA8E JUMPI PUSH2 0xA8E DUP2 PUSH2 0xC53 JUMP JUMPDEST POP POP JUMP JUMPDEST PUSH1 0x0 PUSH2 0xAA2 DUP4 DUP4 GT ISZERO PUSH1 0x1 PUSH2 0xA80 JUMP JUMPDEST POP SWAP1 SUB SWAP1 JUMP JUMPDEST PUSH1 0x0 PUSH2 0xAB7 DUP3 ISZERO ISZERO PUSH1 0x4 PUSH2 0xA80 JUMP JUMPDEST DUP3 PUSH2 0xAC4 JUMPI POP PUSH1 0x0 PUSH2 0x1C3 JUMP JUMPDEST PUSH8 0xDE0B6B3A7640000 DUP4 DUP2 MUL SWAP1 PUSH2 0xAE7 SWAP1 DUP6 DUP4 DUP2 PUSH2 0xADE JUMPI INVALID JUMPDEST DIV EQ PUSH1 0x5 PUSH2 0xA80 JUMP JUMPDEST DUP3 PUSH1 0x1 DUP3 SUB DUP2 PUSH2 0xAF3 JUMPI INVALID JUMPDEST DIV PUSH1 0x1 ADD SWAP2 POP POP PUSH2 0x1C3 JUMP JUMPDEST PUSH1 0x0 DUP1 PUSH2 0xB0C DUP5 DUP5 PUSH2 0xCA6 JUMP JUMPDEST SWAP1 POP PUSH1 0x0 PUSH2 0xB26 PUSH2 0xB1F DUP4 PUSH2 0x2710 PUSH2 0xB32 JUMP JUMPDEST PUSH1 0x1 PUSH2 0xBB6 JUMP JUMPDEST SWAP1 POP PUSH2 0x178 DUP3 DUP3 PUSH2 0xBB6 JUMP JUMPDEST PUSH1 0x0 DUP3 DUP3 MUL PUSH2 0xB4C DUP5 ISZERO DUP1 PUSH2 0xA67 JUMPI POP DUP4 DUP6 DUP4 DUP2 PUSH2 0xA64 JUMPI INVALID JUMPDEST DUP1 PUSH2 0xB5B JUMPI PUSH1 0x0 SWAP2 POP POP PUSH2 0x1C3 JUMP JUMPDEST PUSH8 0xDE0B6B3A7640000 PUSH1 0x0 NOT DUP3 ADD PUSH2 0xAF3 JUMP JUMPDEST PUSH1 0x0 PUSH2 0xB7D DUP3 ISZERO ISZERO PUSH1 0x4 PUSH2 0xA80 JUMP JUMPDEST DUP3 PUSH2 0xB8A JUMPI POP PUSH1 0x0 PUSH2 0x1C3 JUMP JUMPDEST PUSH8 0xDE0B6B3A7640000 DUP4 DUP2 MUL SWAP1 PUSH2 0xBA4 SWAP1 DUP6 DUP4 DUP2 PUSH2 0xADE JUMPI INVALID JUMPDEST DUP3 DUP2 DUP2 PUSH2 0xBAD JUMPI INVALID JUMPDEST DIV SWAP2 POP POP PUSH2 0x1C3 JUMP JUMPDEST PUSH1 0x0 DUP3 DUP3 ADD PUSH2 0x1C0 DUP5 DUP3 LT ISZERO DUP4 PUSH2 0xA80 JUMP JUMPDEST PUSH1 0x0 DUP1 PUSH2 0xBD5 DUP5 DUP5 PUSH2 0xCA6 JUMP JUMPDEST SWAP1 POP PUSH1 0x0 PUSH2 0xBE8 PUSH2 0xB1F DUP4 PUSH2 0x2710 PUSH2 0xB32 JUMP JUMPDEST SWAP1 POP DUP1 DUP3 LT ISZERO PUSH2 0xBFD JUMPI PUSH1 0x0 SWAP3 POP POP POP PUSH2 0x1C3 JUMP JUMPDEST PUSH2 0xC07 DUP3 DUP3 PUSH2 0xA92 JUMP JUMPDEST SWAP3 POP POP POP PUSH2 0x1C3 JUMP JUMPDEST PUSH1 0x0 PUSH8 0xDE0B6B3A7640000 DUP3 LT PUSH2 0xC28 JUMPI PUSH1 0x0 PUSH2 0xC34 JUMP JUMPDEST DUP2 PUSH8 0xDE0B6B3A7640000 SUB JUMPDEST SWAP1 POP JUMPDEST SWAP2 SWAP1 POP JUMP JUMPDEST PUSH1 0x0 DUP2 DUP4 LT ISZERO PUSH2 0xC4C JUMPI DUP2 PUSH2 0x1C0 JUMP JUMPDEST POP SWAP1 SWAP2 SWAP1 POP JUMP JUMPDEST PUSH3 0x461BCD PUSH1 0xE5 SHL PUSH1 0x0 SWAP1 DUP2 MSTORE PUSH1 0x20 PUSH1 0x4 MSTORE PUSH1 0x7 PUSH1 0x24 MSTORE PUSH7 0x42414C23000030 PUSH1 0xA DUP1 DUP5 DIV DUP2 DUP2 MOD PUSH1 0x30 SWAP1 DUP2 ADD PUSH1 0x8 SHL SWAP6 DUP4 SWAP1 MOD SWAP6 SWAP1 SWAP6 ADD SWAP1 DUP3 SWAP1 DIV SWAP2 DUP3 MOD SWAP1 SWAP5 ADD PUSH1 0x10 SHL SWAP4 SWAP1 SWAP4 ADD ADD PUSH1 0xC8 SHL PUSH1 0x44 MSTORE PUSH1 0x64 SWAP1 REVERT JUMPDEST PUSH1 0x0 DUP2 PUSH2 0xCBC JUMPI POP PUSH8 0xDE0B6B3A7640000 PUSH2 0x1C3 JUMP JUMPDEST DUP3 PUSH2 0xCC9 JUMPI POP PUSH1 0x0 PUSH2 0x1C3 JUMP JUMPDEST PUSH2 0xCDA PUSH1 0x1 PUSH1 0xFF SHL DUP5 LT PUSH1 0x6 PUSH2 0xA80 JUMP JUMPDEST DUP3 PUSH2 0xD00 PUSH24 0xBCE5086492111AEA88F4BB1CA6BCF584181EA8059F76532 DUP5 LT PUSH1 0x7 PUSH2 0xA80 JUMP JUMPDEST DUP3 PUSH1 0x0 PUSH8 0xC7D713B49DA0000 DUP4 SGT DUP1 ISZERO PUSH2 0xD21 JUMPI POP PUSH8 0xF43FC2C04EE0000 DUP4 SLT JUMPDEST ISZERO PUSH2 0xD58 JUMPI PUSH1 0x0 PUSH2 0xD31 DUP5 PUSH2 0xDB1 JUMP JUMPDEST SWAP1 POP PUSH8 0xDE0B6B3A7640000 DUP1 DUP3 SMOD DUP5 MUL SDIV DUP4 PUSH8 0xDE0B6B3A7640000 DUP4 SDIV MUL ADD SWAP2 POP POP PUSH2 0xD66 JUMP JUMPDEST DUP2 PUSH2 0xD62 DUP5 PUSH2 0xECF JUMP JUMPDEST MUL SWAP1 POP JUMPDEST PUSH8 0xDE0B6B3A7640000 SWAP1 SDIV PUSH2 0xD9E PUSH9 0x238FD42C5CF03FFFF NOT DUP3 SLT DUP1 ISZERO SWAP1 PUSH2 0xD97 JUMPI POP PUSH9 0x70C1CC73B00C80000 DUP3 SGT ISZERO JUMPDEST PUSH1 0x8 PUSH2 0xA80 JUMP JUMPDEST PUSH2 0xDA7 DUP2 PUSH2 0x126E JUMP JUMPDEST SWAP7 SWAP6 POP POP POP POP POP POP JUMP JUMPDEST PUSH8 0xDE0B6B3A7640000 MUL PUSH1 0x0 DUP1 PUSH11 0xC097CE7BC90715B34B9F1 PUSH1 0x24 SHL DUP1 DUP5 ADD SWAP1 PUSH15 0xC097CE7BC90715B34B9F0FFFFFFFFF NOT DUP6 ADD MUL DUP2 PUSH2 0xDEC JUMPI INVALID JUMPDEST SDIV SWAP1 POP PUSH1 0x0 PUSH11 0xC097CE7BC90715B34B9F1 PUSH1 0x24 SHL DUP3 DUP1 MUL SDIV SWAP1 POP DUP2 DUP1 PUSH11 0xC097CE7BC90715B34B9F1 PUSH1 0x24 SHL DUP2 DUP5 MUL SDIV SWAP2 POP PUSH1 0x3 DUP3 SDIV ADD PUSH11 0xC097CE7BC90715B34B9F1 PUSH1 0x24 SHL DUP3 DUP5 MUL SDIV SWAP2 POP PUSH1 0x5 DUP3 SDIV ADD PUSH11 0xC097CE7BC90715B34B9F1 PUSH1 0x24 SHL DUP3 DUP5 MUL SDIV SWAP2 POP PUSH1 0x7 DUP3 SDIV ADD PUSH11 0xC097CE7BC90715B34B9F1 PUSH1 0x24 SHL DUP3 DUP5 MUL SDIV SWAP2 POP PUSH1 0x9 DUP3 SDIV ADD PUSH11 0xC097CE7BC90715B34B9F1 PUSH1 0x24 SHL DUP3 DUP5 MUL SDIV SWAP2 POP PUSH1 0xB DUP3 SDIV ADD PUSH11 0xC097CE7BC90715B34B9F1 PUSH1 0x24 SHL DUP3 DUP5 MUL SDIV SWAP2 POP PUSH1 0xD DUP3 SDIV ADD PUSH11 0xC097CE7BC90715B34B9F1 PUSH1 0x24 SHL DUP3 DUP5 MUL SDIV SWAP2 POP PUSH1 0xF DUP3 PUSH1 0x2 SWAP2 SWAP1 SDIV SWAP2 SWAP1 SWAP2 ADD MUL SWAP6 SWAP5 POP POP POP POP POP JUMP JUMPDEST PUSH1 0x0 PUSH8 0xDE0B6B3A7640000 DUP3 SLT ISZERO PUSH2 0xF0B JUMPI PUSH2 0xF01 DUP3 PUSH11 0xC097CE7BC90715B34B9F1 PUSH1 0x24 SHL DUP2 PUSH2 0xEFB JUMPI INVALID JUMPDEST SDIV PUSH2 0xECF JUMP JUMPDEST PUSH1 0x0 SUB SWAP1 POP PUSH2 0xC37 JUMP JUMPDEST PUSH1 0x0 PUSH31 0x1600EF3172E58D2E933EC884FDE10064C63B5372D805E203C0000000000000 DUP4 SLT PUSH2 0xF5C JUMPI PUSH24 0x195E54C5DD42177F53A27172FA9EC630262827000000000 DUP4 SDIV SWAP3 POP PUSH9 0x6F05B59D3B2000000 ADD JUMPDEST PUSH20 0x11798004D755D3C8BC8E03204CF44619E000000 DUP4 SLT PUSH2 0xF94 JUMPI PUSH12 0x1425982CF597CD205CEF7380 DUP4 SDIV SWAP3 POP PUSH9 0x3782DACE9D9000000 ADD JUMPDEST PUSH1 0x64 SWAP3 DUP4 MUL SWAP3 MUL PUSH15 0x1855144814A7FF805980FF0084000 DUP4 SLT PUSH2 0xFDC JUMPI PUSH15 0x1855144814A7FF805980FF0084000 PUSH9 0x56BC75E2D63100000 DUP5 MUL SDIV SWAP3 POP PUSH9 0xAD78EBC5AC62000000 ADD JUMPDEST PUSH12 0x2DF0AB5A80A22C61AB5A700 DUP4 SLT PUSH2 0x1017 JUMPI PUSH12 0x2DF0AB5A80A22C61AB5A700 PUSH9 0x56BC75E2D63100000 DUP5 MUL SDIV SWAP3 POP PUSH9 0x56BC75E2D631000000 ADD JUMPDEST PUSH10 0x3F1FCE3DA636EA5CF850 DUP4 SLT PUSH2 0x104E JUMPI PUSH10 0x3F1FCE3DA636EA5CF850 PUSH9 0x56BC75E2D63100000 DUP5 MUL SDIV SWAP3 POP PUSH9 0x2B5E3AF16B18800000 ADD JUMPDEST PUSH10 0x127FA27722CC06CC5E2 DUP4 SLT PUSH2 0x1085 JUMPI PUSH10 0x127FA27722CC06CC5E2 PUSH9 0x56BC75E2D63100000 DUP5 MUL SDIV SWAP3 POP PUSH9 0x15AF1D78B58C400000 ADD JUMPDEST PUSH9 0x280E60114EDB805D03 DUP4 SLT PUSH2 0x10BA JUMPI PUSH9 0x280E60114EDB805D03 PUSH9 0x56BC75E2D63100000 DUP5 MUL SDIV SWAP3 POP PUSH9 0xAD78EBC5AC6200000 ADD JUMPDEST PUSH9 0xEBC5FB41746121110 DUP4 SLT PUSH2 0x10E5 JUMPI PUSH9 0xEBC5FB41746121110 PUSH9 0x56BC75E2D63100000 SWAP4 DUP5 MUL SDIV SWAP3 ADD JUMPDEST PUSH9 0x8F00F760A4B2DB55D DUP4 SLT PUSH2 0x111A JUMPI PUSH9 0x8F00F760A4B2DB55D PUSH9 0x56BC75E2D63100000 DUP5 MUL SDIV SWAP3 POP PUSH9 0x2B5E3AF16B1880000 ADD JUMPDEST PUSH9 0x6F5F1775788937937 DUP4 SLT PUSH2 0x114F JUMPI PUSH9 0x6F5F1775788937937 PUSH9 0x56BC75E2D63100000 DUP5 MUL SDIV SWAP3 POP PUSH9 0x15AF1D78B58C40000 ADD JUMPDEST PUSH9 0x6248F33704B286603 DUP4 SLT PUSH2 0x1183 JUMPI PUSH9 0x6248F33704B286603 PUSH9 0x56BC75E2D63100000 DUP5 MUL SDIV SWAP3 POP PUSH8 0xAD78EBC5AC620000 ADD JUMPDEST PUSH9 0x5C548670B9510E7AC DUP4 SLT PUSH2 0x11B7 JUMPI PUSH9 0x5C548670B9510E7AC PUSH9 0x56BC75E2D63100000 DUP5 MUL SDIV SWAP3 POP PUSH8 0x56BC75E2D6310000 ADD JUMPDEST PUSH1 0x0 PUSH9 0x56BC75E2D63100000 DUP5 ADD PUSH9 0x56BC75E2D63100000 DUP1 DUP7 SUB MUL DUP2 PUSH2 0x11DA JUMPI INVALID JUMPDEST SDIV SWAP1 POP PUSH1 0x0 PUSH9 0x56BC75E2D63100000 DUP3 DUP1 MUL SDIV SWAP1 POP DUP2 DUP1 PUSH9 0x56BC75E2D63100000 DUP2 DUP5 MUL SDIV SWAP2 POP PUSH1 0x3 DUP3 SDIV ADD PUSH9 0x56BC75E2D63100000 DUP3 DUP5 MUL SDIV SWAP2 POP PUSH1 0x5 DUP3 SDIV ADD PUSH9 0x56BC75E2D63100000 DUP3 DUP5 MUL SDIV SWAP2 POP PUSH1 0x7 DUP3 SDIV ADD PUSH9 0x56BC75E2D63100000 DUP3 DUP5 MUL SDIV SWAP2 POP PUSH1 0x9 DUP3 SDIV ADD PUSH9 0x56BC75E2D63100000 DUP3 DUP5 MUL SDIV SWAP2 POP PUSH1 0xB DUP3 SDIV ADD PUSH1 0x2 MUL PUSH1 0x64 DUP6 DUP3 ADD SDIV SWAP8 SWAP7 POP POP POP POP POP POP POP JUMP JUMPDEST PUSH1 0x0 PUSH2 0x129D PUSH9 0x238FD42C5CF03FFFF NOT DUP4 SLT ISZERO DUP1 ISZERO PUSH2 0x1296 JUMPI POP PUSH9 0x70C1CC73B00C80000 DUP4 SGT ISZERO JUMPDEST PUSH1 0x9 PUSH2 0xA80 JUMP JUMPDEST PUSH1 0x0 DUP3 SLT ISZERO PUSH2 0x12D0 JUMPI PUSH2 0x12B2 DUP3 PUSH1 0x0 SUB PUSH2 0x126E JUMP JUMPDEST PUSH11 0xC097CE7BC90715B34B9F1 PUSH1 0x24 SHL DUP2 PUSH2 0x12C8 JUMPI INVALID JUMPDEST SDIV SWAP1 POP PUSH2 0xC37 JUMP JUMPDEST PUSH1 0x0 PUSH9 0x6F05B59D3B2000000 DUP4 SLT PUSH2 0x1310 JUMPI POP PUSH9 0x6F05B59D3B1FFFFFF NOT SWAP1 SWAP2 ADD SWAP1 PUSH24 0x195E54C5DD42177F53A27172FA9EC630262827000000000 PUSH2 0x1346 JUMP JUMPDEST PUSH9 0x3782DACE9D9000000 DUP4 SLT PUSH2 0x1342 JUMPI POP PUSH9 0x3782DACE9D8FFFFFF NOT SWAP1 SWAP2 ADD SWAP1 PUSH12 0x1425982CF597CD205CEF7380 PUSH2 0x1346 JUMP JUMPDEST POP PUSH1 0x1 JUMPDEST PUSH1 0x64 SWAP3 SWAP1 SWAP3 MUL SWAP2 PUSH9 0x56BC75E2D63100000 PUSH9 0xAD78EBC5AC62000000 DUP5 SLT PUSH2 0x1396 JUMPI PUSH9 0xAD78EBC5AC61FFFFFF NOT SWAP1 SWAP4 ADD SWAP3 PUSH9 0x56BC75E2D63100000 PUSH15 0x1855144814A7FF805980FF0084000 DUP3 MUL SDIV SWAP1 POP JUMPDEST PUSH9 0x56BC75E2D631000000 DUP5 SLT PUSH2 0x13D2 JUMPI PUSH9 0x56BC75E2D630FFFFFF NOT SWAP1 SWAP4 ADD SWAP3 PUSH9 0x56BC75E2D63100000 PUSH12 0x2DF0AB5A80A22C61AB5A700 DUP3 MUL SDIV SWAP1 POP JUMPDEST PUSH9 0x2B5E3AF16B18800000 DUP5 SLT PUSH2 0x140C JUMPI PUSH9 0x2B5E3AF16B187FFFFF NOT SWAP1 SWAP4 ADD SWAP3 PUSH9 0x56BC75E2D63100000 PUSH10 0x3F1FCE3DA636EA5CF850 DUP3 MUL SDIV SWAP1 POP JUMPDEST PUSH9 0x15AF1D78B58C400000 DUP5 SLT PUSH2 0x1446 JUMPI PUSH9 0x15AF1D78B58C3FFFFF NOT SWAP1 SWAP4 ADD SWAP3 PUSH9 0x56BC75E2D63100000 PUSH10 0x127FA27722CC06CC5E2 DUP3 MUL SDIV SWAP1 POP JUMPDEST PUSH9 0xAD78EBC5AC6200000 DUP5 SLT PUSH2 0x147F JUMPI PUSH9 0xAD78EBC5AC61FFFFF NOT SWAP1 SWAP4 ADD SWAP3 PUSH9 0x56BC75E2D63100000 PUSH9 0x280E60114EDB805D03 DUP3 MUL SDIV SWAP1 POP JUMPDEST PUSH9 0x56BC75E2D63100000 DUP5 SLT PUSH2 0x14B8 JUMPI PUSH9 0x56BC75E2D630FFFFF NOT SWAP1 SWAP4 ADD SWAP3 PUSH9 0x56BC75E2D63100000 PUSH9 0xEBC5FB41746121110 DUP3 MUL SDIV SWAP1 POP JUMPDEST PUSH9 0x2B5E3AF16B1880000 DUP5 SLT PUSH2 0x14F1 JUMPI PUSH9 0x2B5E3AF16B187FFFF NOT SWAP1 SWAP4 ADD SWAP3 PUSH9 0x56BC75E2D63100000 PUSH9 0x8F00F760A4B2DB55D DUP3 MUL SDIV SWAP1 POP JUMPDEST PUSH9 0x15AF1D78B58C40000 DUP5 SLT PUSH2 0x152A JUMPI PUSH9 0x15AF1D78B58C3FFFF NOT SWAP1 SWAP4 ADD SWAP3 PUSH9 0x56BC75E2D63100000 PUSH9 0x6F5F1775788937937 DUP3 MUL SDIV SWAP1 POP JUMPDEST PUSH9 0x56BC75E2D63100000 DUP5 DUP2 ADD SWAP1 DUP6 SWAP1 PUSH1 0x2 SWAP1 DUP3 DUP1 MUL SDIV SDIV SWAP2 DUP3 ADD SWAP2 SWAP1 POP PUSH1 0x3 PUSH9 0x56BC75E2D63100000 DUP8 DUP4 MUL SDIV SDIV SWAP2 DUP3 ADD SWAP2 SWAP1 POP PUSH1 0x4 PUSH9 0x56BC75E2D63100000 DUP8 DUP4 MUL SDIV SDIV SWAP2 DUP3 ADD SWAP2 SWAP1 POP PUSH1 0x5 PUSH9 0x56BC75E2D63100000 DUP8 DUP4 MUL SDIV SDIV SWAP2 DUP3 ADD SWAP2 SWAP1 POP PUSH1 0x6 PUSH9 0x56BC75E2D63100000 DUP8 DUP4 MUL SDIV SDIV SWAP2 DUP3 ADD SWAP2 SWAP1 POP PUSH1 0x7 PUSH9 0x56BC75E2D63100000 DUP8 DUP4 MUL SDIV SDIV SWAP2 DUP3 ADD SWAP2 SWAP1 POP PUSH1 0x8 PUSH9 0x56BC75E2D63100000 DUP8 DUP4 MUL SDIV SDIV SWAP2 DUP3 ADD SWAP2 SWAP1 POP PUSH1 0x9 PUSH9 0x56BC75E2D63100000 DUP8 DUP4 MUL SDIV SDIV SWAP2 DUP3 ADD SWAP2 SWAP1 POP PUSH1 0xA PUSH9 0x56BC75E2D63100000 DUP8 DUP4 MUL SDIV SDIV SWAP2 DUP3 ADD SWAP2 SWAP1 POP PUSH1 0xB PUSH9 0x56BC75E2D63100000 DUP8 DUP4 MUL SDIV SDIV SWAP2 DUP3 ADD SWAP2 SWAP1 POP PUSH1 0xC PUSH9 0x56BC75E2D63100000 DUP8 DUP4 MUL SDIV SDIV SWAP2 DUP3 ADD SWAP2 SWAP1 POP PUSH1 0x64 PUSH9 0x56BC75E2D63100000 DUP5 DUP5 MUL SDIV DUP6 MUL SDIV SWAP7 SWAP6 POP POP POP POP POP POP JUMP JUMPDEST PUSH1 0x0 DUP3 PUSH1 0x1F DUP4 ADD SLT PUSH2 0x165B JUMPI DUP1 DUP2 REVERT JUMPDEST DUP2 CALLDATALOAD PUSH1 0x20 PUSH8 0xFFFFFFFFFFFFFFFF DUP1 DUP4 GT ISZERO PUSH2 0x1672 JUMPI INVALID JUMPDEST DUP2 DUP4 MUL PUSH1 0x40 MLOAD DUP4 DUP3 DUP3 ADD ADD DUP2 DUP2 LT DUP5 DUP3 GT OR ISZERO PUSH2 0x168B JUMPI INVALID JUMPDEST PUSH1 0x40 MSTORE DUP5 DUP2 MSTORE DUP4 DUP2 ADD SWAP3 POP DUP7 DUP5 ADD DUP3 DUP9 ADD DUP6 ADD DUP10 LT ISZERO PUSH2 0x16A9 JUMPI DUP7 DUP8 REVERT JUMPDEST DUP7 SWAP3 POP JUMPDEST DUP6 DUP4 LT ISZERO PUSH2 0x16CB JUMPI DUP1 CALLDATALOAD DUP5 MSTORE SWAP3 DUP5 ADD SWAP3 PUSH1 0x1 SWAP3 SWAP1 SWAP3 ADD SWAP2 DUP5 ADD PUSH2 0x16AD JUMP JUMPDEST POP SWAP8 SWAP7 POP POP POP POP POP POP POP JUMP JUMPDEST PUSH1 0x0 DUP1 PUSH1 0x40 DUP4 DUP6 SUB SLT ISZERO PUSH2 0x16E9 JUMPI DUP2 DUP3 REVERT JUMPDEST DUP3 CALLDATALOAD PUSH8 0xFFFFFFFFFFFFFFFF DUP1 DUP3 GT ISZERO PUSH2 0x1700 JUMPI DUP4 DUP5 REVERT JUMPDEST PUSH2 0x170C DUP7 DUP4 DUP8 ADD PUSH2 0x164B JUMP JUMPDEST SWAP4 POP PUSH1 0x20 DUP6 ADD CALLDATALOAD SWAP2 POP DUP1 DUP3 GT ISZERO PUSH2 0x1721 JUMPI DUP3 DUP4 REVERT JUMPDEST POP PUSH2 0x172E DUP6 DUP3 DUP7 ADD PUSH2 0x164B JUMP JUMPDEST SWAP2 POP POP SWAP3 POP SWAP3 SWAP1 POP JUMP JUMPDEST PUSH1 0x0 DUP1 PUSH1 0x0 DUP1 PUSH1 0x0 PUSH1 0xA0 DUP7 DUP9 SUB SLT ISZERO PUSH2 0x174F JUMPI DUP1 DUP2 REVERT JUMPDEST DUP6 CALLDATALOAD PUSH8 0xFFFFFFFFFFFFFFFF DUP1 DUP3 GT ISZERO PUSH2 0x1766 JUMPI DUP3 DUP4 REVERT JUMPDEST PUSH2 0x1772 DUP10 DUP4 DUP11 ADD PUSH2 0x164B JUMP JUMPDEST SWAP7 POP PUSH1 0x20 DUP9 ADD CALLDATALOAD SWAP2 POP DUP1 DUP3 GT ISZERO PUSH2 0x1787 JUMPI DUP3 DUP4 REVERT JUMPDEST PUSH2 0x1793 DUP10 DUP4 DUP11 ADD PUSH2 0x164B JUMP JUMPDEST SWAP6 POP PUSH1 0x40 DUP9 ADD CALLDATALOAD SWAP2 POP DUP1 DUP3 GT ISZERO PUSH2 0x17A8 JUMPI DUP3 DUP4 REVERT JUMPDEST POP PUSH2 0x17B5 DUP9 DUP3 DUP10 ADD PUSH2 0x164B JUMP JUMPDEST SWAP6 SWAP9 SWAP5 SWAP8 POP SWAP5 SWAP6 PUSH1 0x60 DUP2 ADD CALLDATALOAD SWAP6 POP PUSH1 0x80 ADD CALLDATALOAD SWAP4 SWAP3 POP POP POP JUMP JUMPDEST PUSH1 0x0 DUP1 PUSH1 0x0 PUSH1 0x60 DUP5 DUP7 SUB SLT ISZERO PUSH2 0x17E2 JUMPI DUP3 DUP4 REVERT JUMPDEST DUP4 CALLDATALOAD PUSH8 0xFFFFFFFFFFFFFFFF DUP2 GT ISZERO PUSH2 0x17F8 JUMPI DUP4 DUP5 REVERT JUMPDEST PUSH2 0x1804 DUP7 DUP3 DUP8 ADD PUSH2 0x164B JUMP JUMPDEST SWAP7 PUSH1 0x20 DUP7 ADD CALLDATALOAD SWAP7 POP PUSH1 0x40 SWAP1 SWAP6 ADD CALLDATALOAD SWAP5 SWAP4 POP POP POP POP JUMP JUMPDEST PUSH1 0x0 DUP1 PUSH1 0x0 DUP1 PUSH1 0x0 PUSH1 0xA0 DUP7 DUP9 SUB SLT ISZERO PUSH2 0x1831 JUMPI DUP1 DUP2 REVERT JUMPDEST POP POP DUP4 CALLDATALOAD SWAP6 PUSH1 0x20 DUP6 ADD CALLDATALOAD SWAP6 POP PUSH1 0x40 DUP6 ADD CALLDATALOAD SWAP5 PUSH1 0x60 DUP2 ADD CALLDATALOAD SWAP5 POP PUSH1 0x80 ADD CALLDATALOAD SWAP3 POP SWAP1 POP JUMP JUMPDEST PUSH1 0x20 DUP1 DUP3 MSTORE DUP3 MLOAD DUP3 DUP3 ADD DUP2 SWAP1 MSTORE PUSH1 0x0 SWAP2 SWAP1 DUP5 DUP3 ADD SWAP1 PUSH1 0x40 DUP6 ADD SWAP1 DUP5 JUMPDEST DUP2 DUP2 LT ISZERO PUSH2 0x188C JUMPI DUP4 MLOAD DUP4 MSTORE SWAP3 DUP5 ADD SWAP3 SWAP2 DUP5 ADD SWAP2 PUSH1 0x1 ADD PUSH2 0x1870 JUMP JUMPDEST POP SWAP1 SWAP7 SWAP6 POP POP POP POP POP POP JUMP JUMPDEST SWAP1 DUP2 MSTORE PUSH1 0x20 ADD SWAP1 JUMP INVALID LOG2 PUSH5 0x6970667358 0x22 SLT KECCAK256 0x24 0xD4 0xE9 PUSH25 0xEF1D3D577E4024F9AA8042CA6F5F38344BC502899FC6DF51E5 SHR SWAP3 0xEF PUSH5 0x736F6C6343 STOP SMOD MOD STOP CALLER "
		},
		"gasEstimates": {
			"creation": {
				"codeDepositCost": "1271800",
				"executionCost": "1322",
				"totalCost": "1273122"
			},
			"external": {
				"bptInForExactTokensOut(uint256[],uint256[],uint256[],uint256,uint256)": "infinite",
				"calculateDueTokenProtocolSwapFeeAmount(uint256,uint256,uint256,uint256,uint256)": "infinite",
				"exactBPTInForTokenOut(uint256,uint256,uint256,uint256,uint256)": "infinite",
				"exactBPTInForTokensOut(uint256[],uint256,uint256)": "infinite",
				"exactTokensInForBPTOut(uint256[],uint256[],uint256[],uint256,uint256)": "infinite",
				"inGivenOut(uint256,uint256,uint256,uint256,uint256)": "infinite",
				"invariant(uint256[],uint256[])": "infinite",
				"outGivenIn(uint256,uint256,uint256,uint256,uint256)": "infinite",
				"tokenInForExactBPTOut(uint256,uint256,uint256,uint256,uint256)": "infinite"
			}
		},
		"methodIdentifiers": {
			"bptInForExactTokensOut(uint256[],uint256[],uint256[],uint256,uint256)": "98f59bca",
			"calculateDueTokenProtocolSwapFeeAmount(uint256,uint256,uint256,uint256,uint256)": "fab3b9d7",
			"exactBPTInForTokenOut(uint256,uint256,uint256,uint256,uint256)": "5b55b24a",
			"exactBPTInForTokensOut(uint256[],uint256,uint256)": "1c855fa6",
			"exactTokensInForBPTOut(uint256[],uint256[],uint256[],uint256,uint256)": "2e752149",
			"inGivenOut(uint256,uint256,uint256,uint256,uint256)": "1b02e9a8",
			"invariant(uint256[],uint256[])": "56785371",
			"outGivenIn(uint256,uint256,uint256,uint256,uint256)": "4b114ddf",
			"tokenInForExactBPTOut(uint256,uint256,uint256,uint256,uint256)": "c2546cc3"
		}
	},
	"abi": [
		{
			"inputs": [
				{
					"internalType": "uint256[]",
					"name": "balances",
					"type": "uint256[]"
				},
				{
					"internalType": "uint256[]",
					"name": "normalizedWeights",
					"type": "uint256[]"
				},
				{
					"internalType": "uint256[]",
					"name": "amountsOut",
					"type": "uint256[]"
				},
				{
					"internalType": "uint256",
					"name": "bptTotalSupply",
					"type": "uint256"
				},
				{
					"internalType": "uint256",
					"name": "swapFee",
					"type": "uint256"
				}
			],
			"name": "bptInForExactTokensOut",
			"outputs": [
				{
					"internalType": "uint256",
					"name": "",
					"type": "uint256"
				}
			],
			"stateMutability": "pure",
			"type": "function"
		},
		{
			"inputs": [
				{
					"internalType": "uint256",
					"name": "balance",
					"type": "uint256"
				},
				{
					"internalType": "uint256",
					"name": "normalizedWeight",
					"type": "uint256"
				},
				{
					"internalType": "uint256",
					"name": "previousInvariant",
					"type": "uint256"
				},
				{
					"internalType": "uint256",
					"name": "currentInvariant",
					"type": "uint256"
				},
				{
					"internalType": "uint256",
					"name": "protocolSwapFeePercentage",
					"type": "uint256"
				}
			],
			"name": "calculateDueTokenProtocolSwapFeeAmount",
			"outputs": [
				{
					"internalType": "uint256",
					"name": "",
					"type": "uint256"
				}
			],
			"stateMutability": "pure",
			"type": "function"
		},
		{
			"inputs": [
				{
					"internalType": "uint256",
					"name": "tokenBalance",
					"type": "uint256"
				},
				{
					"internalType": "uint256",
					"name": "tokenNormalizedWeight",
					"type": "uint256"
				},
				{
					"internalType": "uint256",
					"name": "bptAmountIn",
					"type": "uint256"
				},
				{
					"internalType": "uint256",
					"name": "bptTotalSupply",
					"type": "uint256"
				},
				{
					"internalType": "uint256",
					"name": "swapFee",
					"type": "uint256"
				}
			],
			"name": "exactBPTInForTokenOut",
			"outputs": [
				{
					"internalType": "uint256",
					"name": "",
					"type": "uint256"
				}
			],
			"stateMutability": "pure",
			"type": "function"
		},
		{
			"inputs": [
				{
					"internalType": "uint256[]",
					"name": "currentBalances",
					"type": "uint256[]"
				},
				{
					"internalType": "uint256",
					"name": "bptAmountIn",
					"type": "uint256"
				},
				{
					"internalType": "uint256",
					"name": "totalBPT",
					"type": "uint256"
				}
			],
			"name": "exactBPTInForTokensOut",
			"outputs": [
				{
					"internalType": "uint256[]",
					"name": "",
					"type": "uint256[]"
				}
			],
			"stateMutability": "pure",
			"type": "function"
		},
		{
			"inputs": [
				{
					"internalType": "uint256[]",
					"name": "balances",
					"type": "uint256[]"
				},
				{
					"internalType": "uint256[]",
					"name": "normalizedWeights",
					"type": "uint256[]"
				},
				{
					"internalType": "uint256[]",
					"name": "amountsIn",
					"type": "uint256[]"
				},
				{
					"internalType": "uint256",
					"name": "bptTotalSupply",
					"type": "uint256"
				},
				{
					"internalType": "uint256",
					"name": "swapFee",
					"type": "uint256"
				}
			],
			"name": "exactTokensInForBPTOut",
			"outputs": [
				{
					"internalType": "uint256",
					"name": "",
					"type": "uint256"
				}
			],
			"stateMutability": "pure",
			"type": "function"
		},
		{
			"inputs": [
				{
					"internalType": "uint256",
					"name": "tokenBalanceIn",
					"type": "uint256"
				},
				{
					"internalType": "uint256",
					"name": "tokenWeightIn",
					"type": "uint256"
				},
				{
					"internalType": "uint256",
					"name": "tokenBalanceOut",
					"type": "uint256"
				},
				{
					"internalType": "uint256",
					"name": "tokenWeightOut",
					"type": "uint256"
				},
				{
					"internalType": "uint256",
					"name": "tokenAmountOut",
					"type": "uint256"
				}
			],
			"name": "inGivenOut",
			"outputs": [
				{
					"internalType": "uint256",
					"name": "",
					"type": "uint256"
				}
			],
			"stateMutability": "pure",
			"type": "function"
		},
		{
			"inputs": [
				{
					"internalType": "uint256[]",
					"name": "normalizedWeights",
					"type": "uint256[]"
				},
				{
					"internalType": "uint256[]",
					"name": "balances",
					"type": "uint256[]"
				}
			],
			"name": "invariant",
			"outputs": [
				{
					"internalType": "uint256",
					"name": "",
					"type": "uint256"
				}
			],
			"stateMutability": "pure",
			"type": "function"
		},
		{
			"inputs": [
				{
					"internalType": "uint256",
					"name": "tokenBalanceIn",
					"type": "uint256"
				},
				{
					"internalType": "uint256",
					"name": "tokenWeightIn",
					"type": "uint256"
				},
				{
					"internalType": "uint256",
					"name": "tokenBalanceOut",
					"type": "uint256"
				},
				{
					"internalType": "uint256",
					"name": "tokenWeightOut",
					"type": "uint256"
				},
				{
					"internalType": "uint256",
					"name": "tokenAmountIn",
					"type": "uint256"
				}
			],
			"name": "outGivenIn",
			"outputs": [
				{
					"internalType": "uint256",
					"name": "",
					"type": "uint256"
				}
			],
			"stateMutability": "pure",
			"type": "function"
		},
		{
			"inputs": [
				{
					"internalType": "uint256",
					"name": "tokenBalance",
					"type": "uint256"
				},
				{
					"internalType": "uint256",
					"name": "tokenNormalizedWeight",
					"type": "uint256"
				},
				{
					"internalType": "uint256",
					"name": "bptAmountOut",
					"type": "uint256"
				},
				{
					"internalType": "uint256",
					"name": "bptTotalSupply",
					"type": "uint256"
				},
				{
					"internalType": "uint256",
					"name": "swapFee",
					"type": "uint256"
				}
			],
			"name": "tokenInForExactBPTOut",
			"outputs": [
				{
					"internalType": "uint256",
					"name": "",
					"type": "uint256"
				}
			],
			"stateMutability": "pure",
			"type": "function"
		}
	]
}