{
	"data": {
		"bytecode": {
			"linkReferences": {},
			"object": "608060405234801561001057600080fd5b50610552806100206000396000f3fe608060405234801561001057600080fd5b50600436106100415760003560e01c80633d48f8c114610046578063c3748ef11461006f578063ff7b6f1e1461008f575b600080fd5b610059610054366004610448565b6100a2565b60405161006691906104c5565b60405180910390f35b61008261007d3660046103f6565b6100d5565b60405161006691906104ce565b61008261009d36600461040e565b61015a565b60006100cf826000015183602001518460400151856060015186608001518760a001518860c00151610187565b92915050565b6100dd6103b9565b6040805160e08101909152806100f48460006101e7565b8152602001610104846000610232565b81526020016101148460016101e7565b8152602001610124846001610232565b81526020016101348460026101e7565b8152602001610144846002610232565b815260200161015284610276565b905292915050565b6101626103b9565b60006101718787878787610282565b905061017c816100d5565b979650505050505050565b600061019382826102e2565b61019e84601f6102e6565b6101a98660546102f7565b6101b488606a6102e6565b6101bf8a609f6102f7565b6101ca8c60b56102e6565b6101d58e60ea6102f7565b17171717171798975050505050505050565b6000808260028111156101f657fe5b141561020c5761020583610304565b90506100cf565b600182600281111561021a57fe5b14156102295761020583610311565b6102058361031e565b60008082600281111561024157fe5b1415610250576102058361032b565b600182600281111561025e57fe5b141561026d5761020583610338565b61020583610345565b60006100cf8282610352565b60008061028e87610276565b8303905060008187026102a08961032b565b01905060008287026102b18a610338565b01905060008387026102c28b610345565b0190506102d489848a858b868c610187565b9a9950505050505050505050565b1b90565b661fffffffffffff91909116901b90565b623fffff91909116901b90565b60006100cf8260ea61035c565b60006100cf82609f61035c565b60006100cf82605461035c565b60006100cf8260b5610386565b60006100cf82606a610386565b60006100cf82601f610386565b1c637fffffff1690565b600082821c623fffff16621fffff8113610376578061037e565b623fffff1981175b949350505050565b600082821c661fffffffffffff16660fffffffffffff81136103a8578061037e565b661fffffffffffff19179392505050565b6040518060e00160405280600081526020016000815260200160008152602001600081526020016000815260200160008152602001600081525090565b600060208284031215610407578081fd5b5035919050565b600080600080600060a08688031215610425578081fd5b505083359560208501359550604085013594606081013594506080013592509050565b600060e08284031215610459578081fd5b60405160e0810181811067ffffffffffffffff8211171561047657fe5b8060405250823581526020830135602082015260408301356040820152606083013560608201526080830135608082015260a083013560a082015260c083013560c08201528091505092915050565b90815260200190565b600060e082019050825182526020830151602083015260408301516040830152606083015160608301526080830151608083015260a083015160a083015260c083015160c08301529291505056fea2646970667358221220d6e6d1c431994cbbf5c01ccb5afd68ea76a3afb28d9d28879d06512c0269225a64736f6c63430007060033",
			"opcodes": "PUSH1 0x80 PUSH1 0x40 MSTORE CALLVALUE DUP1 ISZERO PUSH2 0x10 JUMPI PUSH1 0x0 DUP1 REVERT JUMPDEST POP PUSH2 0x552 DUP1 PUSH2 0x20 PUSH1 0x0 CODECOPY PUSH1 0x0 RETURN INVALID PUSH1 0x80 PUSH1 0x40 MSTORE CALLVALUE DUP1 ISZERO PUSH2 0x10 JUMPI PUSH1 0x0 DUP1 REVERT JUMPDEST POP PUSH1 0x4 CALLDATASIZE LT PUSH2 0x41 JUMPI PUSH1 0x0 CALLDATALOAD PUSH1 0xE0 SHR DUP1 PUSH4 0x3D48F8C1 EQ PUSH2 0x46 JUMPI DUP1 PUSH4 0xC3748EF1 EQ PUSH2 0x6F JUMPI DUP1 PUSH4 0xFF7B6F1E EQ PUSH2 0x8F JUMPI JUMPDEST PUSH1 0x0 DUP1 REVERT JUMPDEST PUSH2 0x59 PUSH2 0x54 CALLDATASIZE PUSH1 0x4 PUSH2 0x448 JUMP JUMPDEST PUSH2 0xA2 JUMP JUMPDEST PUSH1 0x40 MLOAD PUSH2 0x66 SWAP2 SWAP1 PUSH2 0x4C5 JUMP JUMPDEST PUSH1 0x40 MLOAD DUP1 SWAP2 SUB SWAP1 RETURN JUMPDEST PUSH2 0x82 PUSH2 0x7D CALLDATASIZE PUSH1 0x4 PUSH2 0x3F6 JUMP JUMPDEST PUSH2 0xD5 JUMP JUMPDEST PUSH1 0x40 MLOAD PUSH2 0x66 SWAP2 SWAP1 PUSH2 0x4CE JUMP JUMPDEST PUSH2 0x82 PUSH2 0x9D CALLDATASIZE PUSH1 0x4 PUSH2 0x40E JUMP JUMPDEST PUSH2 0x15A JUMP JUMPDEST PUSH1 0x0 PUSH2 0xCF DUP3 PUSH1 0x0 ADD MLOAD DUP4 PUSH1 0x20 ADD MLOAD DUP5 PUSH1 0x40 ADD MLOAD DUP6 PUSH1 0x60 ADD MLOAD DUP7 PUSH1 0x80 ADD MLOAD DUP8 PUSH1 0xA0 ADD MLOAD DUP9 PUSH1 0xC0 ADD MLOAD PUSH2 0x187 JUMP JUMPDEST SWAP3 SWAP2 POP POP JUMP JUMPDEST PUSH2 0xDD PUSH2 0x3B9 JUMP JUMPDEST PUSH1 0x40 DUP1 MLOAD PUSH1 0xE0 DUP2 ADD SWAP1 SWAP2 MSTORE DUP1 PUSH2 0xF4 DUP5 PUSH1 0x0 PUSH2 0x1E7 JUMP JUMPDEST DUP2 MSTORE PUSH1 0x20 ADD PUSH2 0x104 DUP5 PUSH1 0x0 PUSH2 0x232 JUMP JUMPDEST DUP2 MSTORE PUSH1 0x20 ADD PUSH2 0x114 DUP5 PUSH1 0x1 PUSH2 0x1E7 JUMP JUMPDEST DUP2 MSTORE PUSH1 0x20 ADD PUSH2 0x124 DUP5 PUSH1 0x1 PUSH2 0x232 JUMP JUMPDEST DUP2 MSTORE PUSH1 0x20 ADD PUSH2 0x134 DUP5 PUSH1 0x2 PUSH2 0x1E7 JUMP JUMPDEST DUP2 MSTORE PUSH1 0x20 ADD PUSH2 0x144 DUP5 PUSH1 0x2 PUSH2 0x232 JUMP JUMPDEST DUP2 MSTORE PUSH1 0x20 ADD PUSH2 0x152 DUP5 PUSH2 0x276 JUMP JUMPDEST SWAP1 MSTORE SWAP3 SWAP2 POP POP JUMP JUMPDEST PUSH2 0x162 PUSH2 0x3B9 JUMP JUMPDEST PUSH1 0x0 PUSH2 0x171 DUP8 DUP8 DUP8 DUP8 DUP8 PUSH2 0x282 JUMP JUMPDEST SWAP1 POP PUSH2 0x17C DUP2 PUSH2 0xD5 JUMP JUMPDEST SWAP8 SWAP7 POP POP POP POP POP POP POP JUMP JUMPDEST PUSH1 0x0 PUSH2 0x193 DUP3 DUP3 PUSH2 0x2E2 JUMP JUMPDEST PUSH2 0x19E DUP5 PUSH1 0x1F PUSH2 0x2E6 JUMP JUMPDEST PUSH2 0x1A9 DUP7 PUSH1 0x54 PUSH2 0x2F7 JUMP JUMPDEST PUSH2 0x1B4 DUP9 PUSH1 0x6A PUSH2 0x2E6 JUMP JUMPDEST PUSH2 0x1BF DUP11 PUSH1 0x9F PUSH2 0x2F7 JUMP JUMPDEST PUSH2 0x1CA DUP13 PUSH1 0xB5 PUSH2 0x2E6 JUMP JUMPDEST PUSH2 0x1D5 DUP15 PUSH1 0xEA PUSH2 0x2F7 JUMP JUMPDEST OR OR OR OR OR OR SWAP9 SWAP8 POP POP POP POP POP POP POP POP JUMP JUMPDEST PUSH1 0x0 DUP1 DUP3 PUSH1 0x2 DUP2 GT ISZERO PUSH2 0x1F6 JUMPI INVALID JUMPDEST EQ ISZERO PUSH2 0x20C JUMPI PUSH2 0x205 DUP4 PUSH2 0x304 JUMP JUMPDEST SWAP1 POP PUSH2 0xCF JUMP JUMPDEST PUSH1 0x1 DUP3 PUSH1 0x2 DUP2 GT ISZERO PUSH2 0x21A JUMPI INVALID JUMPDEST EQ ISZERO PUSH2 0x229 JUMPI PUSH2 0x205 DUP4 PUSH2 0x311 JUMP JUMPDEST PUSH2 0x205 DUP4 PUSH2 0x31E JUMP JUMPDEST PUSH1 0x0 DUP1 DUP3 PUSH1 0x2 DUP2 GT ISZERO PUSH2 0x241 JUMPI INVALID JUMPDEST EQ ISZERO PUSH2 0x250 JUMPI PUSH2 0x205 DUP4 PUSH2 0x32B JUMP JUMPDEST PUSH1 0x1 DUP3 PUSH1 0x2 DUP2 GT ISZERO PUSH2 0x25E JUMPI INVALID JUMPDEST EQ ISZERO PUSH2 0x26D JUMPI PUSH2 0x205 DUP4 PUSH2 0x338 JUMP JUMPDEST PUSH2 0x205 DUP4 PUSH2 0x345 JUMP JUMPDEST PUSH1 0x0 PUSH2 0xCF DUP3 DUP3 PUSH2 0x352 JUMP JUMPDEST PUSH1 0x0 DUP1 PUSH2 0x28E DUP8 PUSH2 0x276 JUMP JUMPDEST DUP4 SUB SWAP1 POP PUSH1 0x0 DUP2 DUP8 MUL PUSH2 0x2A0 DUP10 PUSH2 0x32B JUMP JUMPDEST ADD SWAP1 POP PUSH1 0x0 DUP3 DUP8 MUL PUSH2 0x2B1 DUP11 PUSH2 0x338 JUMP JUMPDEST ADD SWAP1 POP PUSH1 0x0 DUP4 DUP8 MUL PUSH2 0x2C2 DUP12 PUSH2 0x345 JUMP JUMPDEST ADD SWAP1 POP PUSH2 0x2D4 DUP10 DUP5 DUP11 DUP6 DUP12 DUP7 DUP13 PUSH2 0x187 JUMP JUMPDEST SWAP11 SWAP10 POP POP POP POP POP POP POP POP POP POP JUMP JUMPDEST SHL SWAP1 JUMP JUMPDEST PUSH7 0x1FFFFFFFFFFFFF SWAP2 SWAP1 SWAP2 AND SWAP1 SHL SWAP1 JUMP JUMPDEST PUSH3 0x3FFFFF SWAP2 SWAP1 SWAP2 AND SWAP1 SHL SWAP1 JUMP JUMPDEST PUSH1 0x0 PUSH2 0xCF DUP3 PUSH1 0xEA PUSH2 0x35C JUMP JUMPDEST PUSH1 0x0 PUSH2 0xCF DUP3 PUSH1 0x9F PUSH2 0x35C JUMP JUMPDEST PUSH1 0x0 PUSH2 0xCF DUP3 PUSH1 0x54 PUSH2 0x35C JUMP JUMPDEST PUSH1 0x0 PUSH2 0xCF DUP3 PUSH1 0xB5 PUSH2 0x386 JUMP JUMPDEST PUSH1 0x0 PUSH2 0xCF DUP3 PUSH1 0x6A PUSH2 0x386 JUMP JUMPDEST PUSH1 0x0 PUSH2 0xCF DUP3 PUSH1 0x1F PUSH2 0x386 JUMP JUMPDEST SHR PUSH4 0x7FFFFFFF AND SWAP1 JUMP JUMPDEST PUSH1 0x0 DUP3 DUP3 SHR PUSH3 0x3FFFFF AND PUSH3 0x1FFFFF DUP2 SGT PUSH2 0x376 JUMPI DUP1 PUSH2 0x37E JUMP JUMPDEST PUSH3 0x3FFFFF NOT DUP2 OR JUMPDEST SWAP5 SWAP4 POP POP POP POP JUMP JUMPDEST PUSH1 0x0 DUP3 DUP3 SHR PUSH7 0x1FFFFFFFFFFFFF AND PUSH7 0xFFFFFFFFFFFFF DUP2 SGT PUSH2 0x3A8 JUMPI DUP1 PUSH2 0x37E JUMP JUMPDEST PUSH7 0x1FFFFFFFFFFFFF NOT OR SWAP4 SWAP3 POP POP POP JUMP JUMPDEST PUSH1 0x40 MLOAD DUP1 PUSH1 0xE0 ADD PUSH1 0x40 MSTORE DUP1 PUSH1 0x0 DUP2 MSTORE PUSH1 0x20 ADD PUSH1 0x0 DUP2 MSTORE PUSH1 0x20 ADD PUSH1 0x0 DUP2 MSTORE PUSH1 0x20 ADD PUSH1 0x0 DUP2 MSTORE PUSH1 0x20 ADD PUSH1 0x0 DUP2 MSTORE PUSH1 0x20 ADD PUSH1 0x0 DUP2 MSTORE PUSH1 0x20 ADD PUSH1 0x0 DUP2 MSTORE POP SWAP1 JUMP JUMPDEST PUSH1 0x0 PUSH1 0x20 DUP3 DUP5 SUB SLT ISZERO PUSH2 0x407 JUMPI DUP1 DUP2 REVERT JUMPDEST POP CALLDATALOAD SWAP2 SWAP1 POP JUMP JUMPDEST PUSH1 0x0 DUP1 PUSH1 0x0 DUP1 PUSH1 0x0 PUSH1 0xA0 DUP7 DUP9 SUB SLT ISZERO PUSH2 0x425 JUMPI DUP1 DUP2 REVERT JUMPDEST POP POP DUP4 CALLDATALOAD SWAP6 PUSH1 0x20 DUP6 ADD CALLDATALOAD SWAP6 POP PUSH1 0x40 DUP6 ADD CALLDATALOAD SWAP5 PUSH1 0x60 DUP2 ADD CALLDATALOAD SWAP5 POP PUSH1 0x80 ADD CALLDATALOAD SWAP3 POP SWAP1 POP JUMP JUMPDEST PUSH1 0x0 PUSH1 0xE0 DUP3 DUP5 SUB SLT ISZERO PUSH2 0x459 JUMPI DUP1 DUP2 REVERT JUMPDEST PUSH1 0x40 MLOAD PUSH1 0xE0 DUP2 ADD DUP2 DUP2 LT PUSH8 0xFFFFFFFFFFFFFFFF DUP3 GT OR ISZERO PUSH2 0x476 JUMPI INVALID JUMPDEST DUP1 PUSH1 0x40 MSTORE POP DUP3 CALLDATALOAD DUP2 MSTORE PUSH1 0x20 DUP4 ADD CALLDATALOAD PUSH1 0x20 DUP3 ADD MSTORE PUSH1 0x40 DUP4 ADD CALLDATALOAD PUSH1 0x40 DUP3 ADD MSTORE PUSH1 0x60 DUP4 ADD CALLDATALOAD PUSH1 0x60 DUP3 ADD MSTORE PUSH1 0x80 DUP4 ADD CALLDATALOAD PUSH1 0x80 DUP3 ADD MSTORE PUSH1 0xA0 DUP4 ADD CALLDATALOAD PUSH1 0xA0 DUP3 ADD MSTORE PUSH1 0xC0 DUP4 ADD CALLDATALOAD PUSH1 0xC0 DUP3 ADD MSTORE DUP1 SWAP2 POP POP SWAP3 SWAP2 POP POP JUMP JUMPDEST SWAP1 DUP2 MSTORE PUSH1 0x20 ADD SWAP1 JUMP JUMPDEST PUSH1 0x0 PUSH1 0xE0 DUP3 ADD SWAP1 POP DUP3 MLOAD DUP3 MSTORE PUSH1 0x20 DUP4 ADD MLOAD PUSH1 0x20 DUP4 ADD MSTORE PUSH1 0x40 DUP4 ADD MLOAD PUSH1 0x40 DUP4 ADD MSTORE PUSH1 0x60 DUP4 ADD MLOAD PUSH1 0x60 DUP4 ADD MSTORE PUSH1 0x80 DUP4 ADD MLOAD PUSH1 0x80 DUP4 ADD MSTORE PUSH1 0xA0 DUP4 ADD MLOAD PUSH1 0xA0 DUP4 ADD MSTORE PUSH1 0xC0 DUP4 ADD MLOAD PUSH1 0xC0 DUP4 ADD MSTORE SWAP3 SWAP2 POP POP JUMP INVALID LOG2 PUSH5 0x6970667358 0x22 SLT KECCAK256 0xD6 0xE6 0xD1 0xC4 BALANCE SWAP10 0x4C 0xBB CREATE2 0xC0 SHR 0xCB GAS REVERT PUSH9 0xEA76A3AFB28D9D2887 SWAP14 MOD MLOAD 0x2C MUL PUSH10 0x225A64736F6C63430007 MOD STOP CALLER "
		},
		"gasEstimates": {
			"creation": {
				"codeDepositCost": "272400",
				"executionCost": "312",
				"totalCost": "272712"
			},
			"external": {
				"decode(bytes32)": "infinite",
				"encode((int256,int256,int256,int256,int256,int256,uint256))": "infinite",
				"update(bytes32,int256,int256,int256,uint256)": "infinite"
			}
		},
		"methodIdentifiers": {
			"decode(bytes32)": "c3748ef1",
			"encode((int256,int256,int256,int256,int256,int256,uint256))": "3d48f8c1",
			"update(bytes32,int256,int256,int256,uint256)": "ff7b6f1e"
		}
	},
	"abi": [
		{
			"inputs": [
				{
					"internalType": "bytes32",
					"name": "sample",
					"type": "bytes32"
				}
			],
			"name": "decode",
			"outputs": [
				{
					"components": [
						{
							"internalType": "int256",
							"name": "logPairPrice",
							"type": "int256"
						},
						{
							"internalType": "int256",
							"name": "accLogPairPrice",
							"type": "int256"
						},
						{
							"internalType": "int256",
							"name": "logBptPrice",
							"type": "int256"
						},
						{
							"internalType": "int256",
							"name": "accLogBptPrice",
							"type": "int256"
						},
						{
							"internalType": "int256",
							"name": "logInvariant",
							"type": "int256"
						},
						{
							"internalType": "int256",
							"name": "accLogInvariant",
							"type": "int256"
						},
						{
							"internalType": "uint256",
							"name": "timestamp",
							"type": "uint256"
						}
					],
					"internalType": "struct MockSamples.Sample",
					"name": "",
					"type": "tuple"
				}
			],
			"stateMutability": "pure",
			"type": "function"
		},
		{
			"inputs": [
				{
					"components": [
						{
							"internalType": "int256",
							"name": "logPairPrice",
							"type": "int256"
						},
						{
							"internalType": "int256",
							"name": "accLogPairPrice",
							"type": "int256"
						},
						{
							"internalType": "int256",
							"name": "logBptPrice",
							"type": "int256"
						},
						{
							"internalType": "int256",
							"name": "accLogBptPrice",
							"type": "int256"
						},
						{
							"internalType": "int256",
							"name": "logInvariant",
							"type": "int256"
						},
						{
							"internalType": "int256",
							"name": "accLogInvariant",
							"type": "int256"
						},
						{
							"internalType": "uint256",
							"name": "timestamp",
							"type": "uint256"
						}
					],
					"internalType": "struct MockSamples.Sample",
					"name": "sample",
					"type": "tuple"
				}
			],
			"name": "encode",
			"outputs": [
				{
					"internalType": "bytes32",
					"name": "",
					"type": "bytes32"
				}
			],
			"stateMutability": "pure",
			"type": "function"
		},
		{
			"inputs": [
				{
					"internalType": "bytes32",
					"name": "sample",
					"type": "bytes32"
				},
				{
					"internalType": "int256",
					"name": "logPairPrice",
					"type": "int256"
				},
				{
					"internalType": "int256",
					"name": "logBptPrice",
					"type": "int256"
				},
				{
					"internalType": "int256",
					"name": "logInvariant",
					"type": "int256"
				},
				{
					"internalType": "uint256",
					"name": "timestamp",
					"type": "uint256"
				}
			],
			"name": "update",
			"outputs": [
				{
					"components": [
						{
							"internalType": "int256",
							"name": "logPairPrice",
							"type": "int256"
						},
						{
							"internalType": "int256",
							"name": "accLogPairPrice",
							"type": "int256"
						},
						{
							"internalType": "int256",
							"name": "logBptPrice",
							"type": "int256"
						},
						{
							"internalType": "int256",
							"name": "accLogBptPrice",
							"type": "int256"
						},
						{
							"internalType": "int256",
							"name": "logInvariant",
							"type": "int256"
						},
						{
							"internalType": "int256",
							"name": "accLogInvariant",
							"type": "int256"
						},
						{
							"internalType": "uint256",
							"name": "timestamp",
							"type": "uint256"
						}
					],
					"internalType": "struct MockSamples.Sample",
					"name": "",
					"type": "tuple"
				}
			],
			"stateMutability": "pure",
			"type": "function"
		}
	]
}