{
	"data": {
		"bytecode": {
			"linkReferences": {},
			"object": "6102e06040527f6e71edae12b1b97f4d1f60370fef10105fa2faae0126114a169c64845d6126c9610120523480156200003757600080fd5b5060405162005caa38038062005caa8339810160408190526200005a9162000d65565b89898989898989898989898989898a516001600160401b03811180156200008057600080fd5b50604051908082528060200260200182016040528015620000ab578160200160208202803683370190505b5089898989888651600214620000c3576001620000c6565b60025b8989898989898989828289898180604051806040016040528060018152602001603160f81b815250848489336001600160a01b031660001b806080818152505050806001600160a01b031660a0816001600160a01b031660601b815250505081600390805190602001906200013d92919062000b19565b5080516200015390600490602084019062000b19565b50506005805460ff1916601217905550815160209283012060c052805191012060e05250507f8b73c3c69bb8fe3d512ecc4cf759cc79239f7b179b0ffacaa9a75d522b39400f6101005250620001b26276a70083111561019462000525565b620001c662278d0082111561019562000525565b4290910161014081905201610160528551620001e8906002111560c862000525565b62000202620001f66200053a565b8751111560c962000525565b62000218866200053f60201b62000ddb1760201c565b62000223846200054b565b6040516309b2760f60e01b81526000906001600160a01b038c16906309b2760f9062000254908d9060040162000f75565b602060405180830381600087803b1580156200026f57600080fd5b505af115801562000284573d6000803e3d6000fd5b505050506040513d601f19601f82011682018060405250810190620002aa919062000d4c565b604051633354e3e960e11b81529091506001600160a01b038c16906366a9c7d290620002df9084908b908b9060040162000edb565b600060405180830381600087803b158015620002fa57600080fd5b505af11580156200030f573d6000803e3d6000fd5b505050508a6001600160a01b0316610180816001600160a01b031660601b81525050806101a0818152505050505050505050505050505050505050505050506001600a8190555060008751905062000374818851620005d760201b62000de51760201c565b6101c0819052875188906000906200038857fe5b60200260200101516001600160a01b03166101e0816001600160a01b031660601b8152505087600181518110620003bb57fe5b60200260200101516001600160a01b0316610200816001600160a01b031660601b8152505060028111620003f157600062000408565b87600281518110620003ff57fe5b60200260200101515b60601b6001600160601b03191661022052600381116200042a57600062000441565b876003815181106200043857fe5b60200260200101515b6001600160a01b0316610240816001600160a01b031660601b8152505062000484886000815181106200047057fe5b6020026020010151620005e660201b60201c565b6102605287516200049d90899060019081106200047057fe5b6102805260028111620004b2576000620004c4565b620004c4886002815181106200047057fe5b6102a05260038111620004d9576000620004eb565b620004eb886003815181106200047057fe5b6102c05242620004fe81808a8062000697565b620005098362000825565b505050505050505050505050505050505050505050506200102b565b816200053657620005368162000879565b5050565b600490565b806200053681620008cc565b6200056064e8d4a5100082101560cb62000525565b6200057867016345785d8a000082111560ca62000525565b620005978160c06008546200095960201b62000df2179092919060201c565b6008556040517fa9ba3ffe0b6c366b81232caab38605a0699ad5398d6cce76f91ee809e322dafc90620005cc90839062000f8a565b60405180910390a150565b62000536828214606762000525565b600080826001600160a01b031663313ce5676040518163ffffffff1660e01b815260040160206040518083038186803b1580156200062357600080fd5b505afa15801562000638573d6000803e3d6000fd5b505050506040513d601f19601f820116820180604052508101906200065e919062000e71565b60ff16905060006200067d6012836200096e60201b62000e071760201c565b905080600a0a670de0b6b3a764000002925050505b919050565b600b546000805b835181101562000788576000848281518110620006b757fe5b60200260200101519050620006df662386f26fc1000082101561012e6200052560201b60201c565b62000760620006f9826200098b60201b62000e1d1760201c565b836010026080016200074b6200072e8a87815181106200071557fe5b6020026020010151620009cc60201b62000e3d1760201c565b86601f0260040189620009f960201b62000e59179092919060201c565b62000a0b60201b62000e6b179092919060201c565b93506200077c818462000a1b60201b62000e7b1790919060201c565b9250506001016200069e565b50620007a1670de0b6b3a7640000821461013462000525565b620007da8560e0620007c58960c08762000a3660201b62000e8d179092919060201c565b62000a3660201b62000e8d179092919060201c565b600b556040517f0f3631f9dab08169d1db21c6dc5f32536fb2b0a6b9bb5330d71c52132f968be0906200081590889088908890889062000f93565b60405180910390a1505050505050565b62000844816000600b5462000a4860201b62000e9f179092919060201c565b600b556040517f5a9e84f78f7957cb4ed7478eb0fcad35ee4ecbe2e0f298420b28a3955392573f90620005cc90839062000ed0565b62461bcd60e51b6000908152602060045260076024526642414c23000030600a808404818106603090810160081b95839006959095019082900491820690940160101b939093010160c81b604452606490fd5b600281511015620008dd5762000956565b600081600081518110620008ed57fe5b602002602001015190506000600190505b8251811015620009535760008382815181106200091757fe5b6020026020010151905062000948816001600160a01b0316846001600160a01b03161060656200052560201b60201c565b9150600101620008fe565b50505b50565b6001600160401b03811b1992909216911b1790565b60006200098083831115600162000525565b508082035b92915050565b600062000985670de0b6b3a7640000620009b861ffff80168562000a7160201b62000ec61790919060201c565b62000ac660201b62000f141790919060201c565b600062000985670de0b6b3a7640000620009b8637fffffff8562000a7160201b62000ec61790919060201c565b637fffffff811b1992909216911b1790565b61ffff811b1992909216911b1790565b600082820162000a2f848210158362000525565b9392505050565b63ffffffff811b1992909216911b1790565b60006001821b198416828462000a6057600062000a63565b60015b60ff16901b17949350505050565b600082820262000a9984158062000a9157508385838162000a8e57fe5b04145b600362000525565b8062000aaa57600091505062000985565b670de0b6b3a764000060001982015b0460010191505062000985565b600062000ad7821515600462000525565b8262000ae65750600062000985565b670de0b6b3a76400008381029062000b0c9085838162000b0257fe5b0414600562000525565b82600182038162000ab957fe5b828054600181600116156101000203166002900490600052602060002090601f01602090048101928262000b51576000855562000b9c565b82601f1062000b6c57805160ff191683800117855562000b9c565b8280016001018555821562000b9c579182015b8281111562000b9c57825182559160200191906001019062000b7f565b5062000baa92915062000bae565b5090565b5b8082111562000baa576000815560010162000baf565b8051620006928162001015565b600082601f83011262000be3578081fd5b8151602062000bfc62000bf68362000ff7565b62000fd3565b828152818101908583018385028701840188101562000c19578586fd5b855b8581101562000c4457815162000c318162001015565b8452928401929084019060010162000c1b565b5090979650505050505050565b600082601f83011262000c62578081fd5b8151602062000c7562000bf68362000ff7565b828152818101908583018385028701840188101562000c92578586fd5b855b8581101562000c445781518452928401929084019060010162000c94565b805180151581146200069257600080fd5b600082601f83011262000cd4578081fd5b81516001600160401b0381111562000ce857fe5b602062000cfe601f8301601f1916820162000fd3565b828152858284870101111562000d12578384fd5b835b8381101562000d3157858101830151828201840152820162000d14565b8381111562000d4257848385840101525b5095945050505050565b60006020828403121562000d5e578081fd5b5051919050565b6000806000806000806000806000806101408b8d03121562000d85578586fd5b62000d908b62000bc5565b60208c0151909a506001600160401b038082111562000dad578788fd5b62000dbb8e838f0162000cc3565b9a5060408d015191508082111562000dd1578788fd5b62000ddf8e838f0162000cc3565b995060608d015191508082111562000df5578788fd5b62000e038e838f0162000bd2565b985060808d015191508082111562000e19578788fd5b5062000e288d828e0162000c51565b96505060a08b0151945060c08b0151935060e08b0151925062000e4f6101008c0162000bc5565b915062000e606101208c0162000cb2565b90509295989b9194979a5092959850565b60006020828403121562000e83578081fd5b815160ff8116811462000a2f578182fd5b6000815180845260208085019450808401835b8381101562000ec55781518752958201959082019060010162000ea7565b509495945050505050565b901515815260200190565b60006060820185835260206060818501528186518084526080860191508288019350845b8181101562000f265784516001600160a01b03168352938301939183019160010162000eff565b505084810360408601528551808252908201925081860190845b8181101562000f675782516001600160a01b03168552938301939183019160010162000f40565b509298975050505050505050565b602081016003831062000f8457fe5b91905290565b90815260200190565b60008582528460208301526080604083015262000fb4608083018562000e94565b828103606084015262000fc8818562000e94565b979650505050505050565b6040518181016001600160401b038111828210171562000fef57fe5b604052919050565b60006001600160401b038211156200100b57fe5b5060209081020190565b6001600160a01b03811681146200095657600080fd5b60805160a05160601c60c05160e051610100516101205161014051610160516101805160601c6101a0516101c0516101e05160601c6102005160601c6102205160601c6102405160601c61026051610280516102a0516102c051614b79620011316000398061120a5280611d815250806111c75280611d205250806111845280611cbf5250806111335280611c5e525080611d465280612c9a525080611ce55280612c58525080611c845280612c16525080611c235280612bd452508061146e52508061067a5250806109985250806110b6525080611092525080610c5652508061133a52508061137c52508061135b5250806109745250806108fe5250614b796000f3fe608060405234801561001057600080fd5b50600436106102325760003560e01c806374f3b009116101305780639d2c110c116100b8578063d505accf1161007c578063d505accf14610482578063d5c096c414610495578063dd62ed3e146104a8578063e01af92c146104bb578063f89f27ed146104ce57610232565b80639d2c110c14610439578063a457c2d71461044c578063a9059cbb1461045f578063aaabadc514610472578063c0ff1a151461047a57610232565b806387ec6817116100ff57806387ec6817146103f9578063893d20e81461040c5780638d928af81461042157806395d89b41146104295780639b02cdde1461043157610232565b806374f3b0091461039b5780637beed220146103bc5780637ecebe00146103d3578063851c1bb3146103e657610232565b806338e9922e116101be57806350dd6ed91161018257806350dd6ed91461034457806355c67628146103575780636028bfd41461035f578063679aefce1461038057806370a082311461038857610232565b806338e9922e146102fb57806338fff2d01461030e57806339509351146103165780633e5692051461032957806347bc4d921461033c57610232565b80631c0de051116102055780631c0de0511461029f5780631dd746ea146102b657806323b872dd146102cb578063313ce567146102de5780633644e515146102f357610232565b806306fdde0314610237578063095ea7b31461025557806316c38b3c1461027557806318160ddd1461028a575b600080fd5b61023f6104d6565b60405161024c9190614a49565b60405180910390f35b610268610263366004614337565b61056d565b60405161024c9190614950565b61028861028336600461442d565b610584565b005b610292610598565b60405161024c9190614973565b6102a761059e565b60405161024c9392919061495b565b6102be6105c7565b60405161024c9190614918565b6102686102d9366004614282565b6105d6565b6102e661064c565b60405161024c9190614ac5565b610292610655565b610288610309366004614797565b61065f565b610292610678565b610268610324366004614337565b61069c565b6102886103373660046147af565b6106d7565b61026861073e565b61028861035236600461454b565b61074e565b61029261076c565b61037261036d366004614465565b61077d565b60405161024c929190614a5c565b6102926107b4565b61029261039636600461422e565b6107df565b6103ae6103a9366004614465565b6107fe565b60405161024c92919061492b565b6103c4610821565b60405161024c93929190614a75565b6102926103e136600461422e565b6108df565b6102926103f4366004614507565b6108fa565b610372610407366004614465565b61094c565b610414610972565b60405161024c9190614904565b610414610996565b61023f6109ba565b610292610a1b565b6102926104473660046146a1565b610a21565b61026861045a366004614337565b610b08565b61026861046d366004614337565b610b46565b610414610b53565b610292610b5d565b6102886104903660046142c2565b610c21565b6103ae6104a3366004614465565b610d6a565b6102926104b636600461424a565b610d7d565b6102886104c936600461442d565b610da8565b6102be610dd1565b60038054604080516020601f60026000196101006001881615020190951694909404938401819004810282018101909252828152606093909290918301828280156105625780601f1061053757610100808354040283529160200191610562565b820191906000526020600020905b81548152906001019060200180831161054557829003601f168201915b505050505090505b90565b600061057a338484610f5f565b5060015b92915050565b61058c610fc7565b61059581610ff5565b50565b60025490565b60008060006105ab611073565b1592506105b6611090565b91506105c06110b4565b9050909192565b60606105d16110d8565b905090565b6000806105e38533610d7d565b9050610607336001600160a01b03871614806105ff5750838210155b61019e611248565b610612858585611256565b336001600160a01b0386161480159061062d57506000198114155b1561063f5761063f8533858403610f5f565b60019150505b9392505050565b60055460ff1690565b60006105d1611336565b610667610fc7565b61066f6113d3565b610595816113e8565b7f000000000000000000000000000000000000000000000000000000000000000090565b3360008181526001602090815260408083206001600160a01b0387168452909152812054909161057a9185906106d29086610e7b565b610f5f565b6106df610fc7565b6106e76113d3565b6106ef611453565b6107016106fa61146c565b8251610de5565b4261070c8185611490565b935061071d83851115610146611248565b610730848461072a6114a7565b856115ba565b506107396116cf565b505050565b600b546000906105d190826116d6565b610756610fc7565b61075e6113d3565b61076882826116e0565b5050565b6008546000906105d19060c06117df565b60006060610793865161078e61146c565b610de5565b6107a8898989898989896117ec6118ba61191b565b97509795505050505050565b60006105d16107c1610598565b6107d96107cc610b5d565b6107d461146c565b611a3d565b90611a57565b6001600160a01b0381166000908152602081905260409020545b919050565b6060806108118989898989600089611a9f565b9150915097509795505050505050565b600b5460009081906060906108378160c0611b42565b93506108448160e0611b42565b9250600061085061146c565b9050806001600160401b038111801561086857600080fd5b50604051908082528060200260200182016040528015610892578160200160208202803683370190505b50925060005b818110156108d7576108b86108b38460806010850201611b4c565b611b54565b8482815181106108c457fe5b6020908102919091010152600101610898565b505050909192565b6001600160a01b031660009081526006602052604090205490565b60007f00000000000000000000000000000000000000000000000000000000000000008260405160200161092f9291906148c1565b604051602081830303815290604052805190602001209050919050565b6000606061095d865161078e61146c565b6107a889898989898989611b6e611bbe61191b565b7f000000000000000000000000000000000000000000000000000000000000000090565b7f000000000000000000000000000000000000000000000000000000000000000090565b60048054604080516020601f60026000196101006001881615020190951694909404938401819004810282018101909252828152606093909290918301828280156105625780601f1061053757610100808354040283529160200191610562565b60095490565b600080610a318560200151611c1f565b90506000610a428660400151611c1f565b9050600086516001811115610a5357fe5b1415610ab957610a668660600151611db0565b6060870152610a758583611dd1565b9450610a818482611dd1565b9350610a91866060015183611dd1565b60608701526000610aa3878787611ddd565b9050610aaf8183611e05565b9350505050610645565b610ac38583611dd1565b9450610acf8482611dd1565b9350610adf866060015182611dd1565b60608701526000610af1878787611e11565b9050610afd8184611e29565b9050610aaf81611e35565b600080610b153385610d7d565b9050808310610b2f57610b2a33856000610f5f565b610b3c565b610b3c3385858403610f5f565b5060019392505050565b600061057a338484611256565b60006105d1611e5b565b600080610b68610996565b6001600160a01b031663f94d4668610b7e610678565b6040518263ffffffff1660e01b8152600401610b9a9190614973565b60006040518083038186803b158015610bb257600080fd5b505afa158015610bc6573d6000803e3d6000fd5b505050506040513d6000823e601f3d908101601f19168201604052610bee9190810190614362565b50915050610c0381610bfe6110d8565b611ed5565b6000610c0d611f36565b509050610c1a8183611fb4565b9250505090565b610c2f8442111560d1611248565b6001600160a01b0387166000908152600660209081526040808320549051909291610c86917f0000000000000000000000000000000000000000000000000000000000000000918c918c918c9188918d910161499b565b6040516020818303038152906040528051906020012090506000610ca982612026565b9050600060018288888860405160008152602001604052604051610cd09493929190614a2b565b6020604051602081039080840390855afa158015610cf2573d6000803e3d6000fd5b5050604051601f1901519150610d3490506001600160a01b03821615801590610d2c57508b6001600160a01b0316826001600160a01b0316145b6101f8611248565b6001600160a01b038b166000908152600660205260409020600185019055610d5d8b8b8b610f5f565b5050505050505050505050565b6060806108118989898989600089612042565b6001600160a01b03918216600090815260016020908152604080832093909416825291909152205490565b610db0610fc7565b610db86113d3565b610dc0611453565b610dc981612165565b6105956116cf565b60606105d16114a7565b80610768816121a7565b6107688183146067611248565b6001600160401b03811b1992909216911b1790565b6000610e17838311156001611248565b50900390565b600061057e670de0b6b3a7640000610e378461ffff610ec6565b90610f14565b600061057e670de0b6b3a7640000610e3784637fffffff610ec6565b637fffffff811b1992909216911b1790565b61ffff811b1992909216911b1790565b60008282016106458482101583611248565b63ffffffff811b1992909216911b1790565b60006001821b1984168284610eb5576000610eb8565b60015b60ff16901b17949350505050565b6000828202610eea841580610ee3575083858381610ee057fe5b04145b6003611248565b80610ef957600091505061057e565b670de0b6b3a764000060001982015b0460010191505061057e565b6000610f238215156004611248565b82610f305750600061057e565b670de0b6b3a764000083810290610f5390858381610f4a57fe5b04146005611248565b826001820381610f0857fe5b6001600160a01b0380841660008181526001602090815260408083209487168084529490915290819020849055517f8c5be1e5ebec7d5bd14f71427d1e84f3dd0314c0f7b2291e5b200ac8c7c3b92590610fba908590614973565b60405180910390a3505050565b6000610fde6000356001600160e01b0319166108fa565b9050610595610fed8233612220565b610191611248565b801561101557611010611006611090565b4210610193611248565b61102a565b61102a6110206110b4565b42106101a9611248565b6007805460ff19168215151790556040517f9e3a5e37224532dea67b89face185703738a228a6e8a23dee546960180d3be6490611068908390614950565b60405180910390a150565b600061107d6110b4565b4211806105d157505060075460ff161590565b7f000000000000000000000000000000000000000000000000000000000000000090565b7f000000000000000000000000000000000000000000000000000000000000000090565b606060006110e461146c565b90506000816001600160401b03811180156110fe57600080fd5b50604051908082528060200260200182016040528015611128578160200160208202803683370190505b5090508115611170577f00000000000000000000000000000000000000000000000000000000000000008160008151811061115f57fe5b602002602001018181525050611179565b915061056a9050565b6001821115611170577f0000000000000000000000000000000000000000000000000000000000000000816001815181106111b057fe5b6020026020010181815250506002821115611170577f0000000000000000000000000000000000000000000000000000000000000000816002815181106111f357fe5b6020026020010181815250506003821115611170577f00000000000000000000000000000000000000000000000000000000000000008160038151811061123657fe5b60200260200101818152505091505090565b816107685761076881612310565b61126d6001600160a01b0384161515610198611248565b6112846001600160a01b0383161515610199611248565b61128f838383610739565b6001600160a01b0383166000908152602081905260409020546112b590826101a0612363565b6001600160a01b0380851660009081526020819052604080822093909355908416815220546112e49082610e7b565b6001600160a01b0380841660008181526020819052604090819020939093559151908516907fddf252ad1be2c89b69c2b068fc378daa952ba7f163c4a11628f55a4df523b3ef90610fba908590614973565b60007f00000000000000000000000000000000000000000000000000000000000000007f00000000000000000000000000000000000000000000000000000000000000007f00000000000000000000000000000000000000000000000000000000000000006113a3612379565b306040516020016113b89594939291906149cf565b60405160208183030381529060405280519060200120905090565b6113e66113de611073565b610192611248565b565b6113fb64e8d4a5100082101560cb611248565b61141167016345785d8a000082111560ca611248565b600854611420908260c0610df2565b6008556040517fa9ba3ffe0b6c366b81232caab38605a0699ad5398d6cce76f91ee809e322dafc90611068908390614973565b6114656002600a541415610190611248565b6002600a55565b7f000000000000000000000000000000000000000000000000000000000000000090565b6000818310156114a05781610645565b5090919050565b606060006114b361146c565b90506000816001600160401b03811180156114cd57600080fd5b506040519080825280602002602001820160405280156114f7578160200160208202803683370190505b50600b5490915061150960008261237d565b8260008151811061151657fe5b60200260200101818152505061152d60018261237d565b8260018151811061153a57fe5b60200260200101818152505082600214156115595750915061056a9050565b61156460028261237d565b8260028151811061157157fe5b60200260200101818152505082600314156115905750915061056a9050565b61159b60038261237d565b826003815181106115a857fe5b60209081029190910101525091505090565b600b546000805b83518110156116565760008482815181106115d857fe5b602002602001015190506115f8662386f26fc1000082101561012e611248565b61163f61160482610e1d565b8360100260800161163861162a8a878151811061161d57fe5b6020026020010151610e3d565b88906004601f890201610e59565b9190610e6b565b935061164b8382610e7b565b9250506001016115c1565b5061166d670de0b6b3a76400008214610134611248565b6116868560e061167f858a60c0610e8d565b9190610e8d565b600b556040517f0f3631f9dab08169d1db21c6dc5f32536fb2b0a6b9bb5330d71c52132f968be0906116bf908890889088908890614a94565b60405180910390a1505050505050565b6001600a55565b1c60019081161490565b60006116ea610678565b905060006116f6610996565b6001600160a01b031663b05f8e4883866040518363ffffffff1660e01b8152600401611723929190614a14565b60806040518083038186803b15801561173b57600080fd5b505afa15801561174f573d6000803e3d6000fd5b505050506040513d601f19601f8201168201806040525081019061177391906147fc565b604051630639cdb560e21b81529094506001600160a01b03851693506318e736d492506117a79150859087906004016149fb565b600060405180830381600087803b1580156117c157600080fd5b505af11580156117d5573d6000803e3d6000fd5b5050505050505050565b1c6001600160401b031690565b60006060806000806117fc611f36565b91509150611808611073565b15611840576000611819838c611fb4565b905061182b8b8484600954858e6123d3565b935061183a8b85610e07612482565b5061188b565b61184861146c565b6001600160401b038111801561185d57600080fd5b50604051908082528060200260200182016040528015611887578160200160208202803683370190505b5092505b6118978a8389896124ed565b90955093506118a78a858461255c565b6009555050985098509895505050505050565b60005b6118c561146c565b811015610739576118fc8382815181106118db57fe5b60200260200101518383815181106118ef57fe5b6020026020010151611a57565b83828151811061190857fe5b60209081029190910101526001016118bd565b3330146119d9576000306001600160a01b031660003660405161193f9291906148d9565b6000604051808303816000865af19150503d806000811461197c576040519150601f19603f3d011682016040523d82523d6000602084013e611981565b606091505b50509050806000811461199057fe5b60046000803e6000516001600160e01b0319166343adbafb60e01b81146119bb573d6000803e3d6000fd5b506020600460003e604060205260243d03602460403e601c3d016000f35b60006119e36110d8565b90506119ef8782611ed5565b600080611a068c8c8c8c8c8c898d8d63ffffffff16565b5091509150611a1981848663ffffffff16565b8051601f1982018390526343adbafb603f1983015260200260231982016044820181fd5b6000828202610645841580610ee3575083858381610ee057fe5b6000611a668215156004611248565b82611a735750600061057e565b670de0b6b3a764000083810290611a8d90858381610f4a57fe5b828181611a9657fe5b0491505061057e565b60608088611ac9611aae610996565b6001600160a01b0316336001600160a01b03161460cd611248565b611ade611ad4610678565b82146101f4611248565b6000611ae86110d8565b9050611af48882611ed5565b6000806000611b098e8e8e8e8e8e8a8f6117ec565b925092509250611b198d84612575565b611b2382856118ba565b611b2d81856118ba565b909550935050505b5097509795505050505050565b1c63ffffffff1690565b1c61ffff1690565b600061057e61ffff610e3784670de0b6b3a7640000610ec6565b6000606080611b9a611b7e610972565b6001600160a01b03168b6001600160a01b031614610148611248565b611baa8b8b8b8b8b8b8b8b61257f565b925092509250985098509895505050505050565b60005b611bc961146c565b81101561073957611c00838281518110611bdf57fe5b6020026020010151838381518110611bf357fe5b6020026020010151610f14565b838281518110611c0c57fe5b6020908102919091010152600101611bc1565b60007f00000000000000000000000000000000000000000000000000000000000000006001600160a01b0316826001600160a01b03161415611c8257507f00000000000000000000000000000000000000000000000000000000000000006107f9565b7f00000000000000000000000000000000000000000000000000000000000000006001600160a01b0316826001600160a01b03161415611ce357507f00000000000000000000000000000000000000000000000000000000000000006107f9565b7f00000000000000000000000000000000000000000000000000000000000000006001600160a01b0316826001600160a01b03161415611d4457507f00000000000000000000000000000000000000000000000000000000000000006107f9565b7f00000000000000000000000000000000000000000000000000000000000000006001600160a01b0316826001600160a01b03161415611da557507f00000000000000000000000000000000000000000000000000000000000000006107f9565b6107f9610135612310565b600080611dc5611dbe61076c565b8490610ec6565b90506106458382610e07565b60006106458383612603565b6000611df2611dea61073e565b610147611248565b611dfd84848461262f565b949350505050565b60006106458383611a57565b6000611e1e611dea61073e565b611dfd848484612662565b60006106458383610f14565b600061057e611e54611e4561076c565b670de0b6b3a764000090610e07565b8390610f14565b6000611e65610996565b6001600160a01b031663aaabadc56040518163ffffffff1660e01b815260040160206040518083038186803b158015611e9d57600080fd5b505afa158015611eb1573d6000803e3d6000fd5b505050506040513d601f19601f820116820180604052508101906105d1919061452f565b60005b611ee061146c565b81101561073957611f17838281518110611ef657fe5b6020026020010151838381518110611f0a57fe5b6020026020010151612603565b838281518110611f2357fe5b6020908102919091010152600101611ed8565b60606000611f426114a7565b915060009050600082600081518110611f5757fe5b602002602001015190506000600190505b8351811015611fae5781848281518110611f7e57fe5b60200260200101511115611fa657809250838181518110611f9b57fe5b602002602001015191505b600101611f68565b50509091565b670de0b6b3a764000060005b83518110156120165761200c612005858381518110611fdb57fe5b6020026020010151858481518110611fef57fe5b602002602001015161269590919063ffffffff16565b8390612603565b9150600101611fc0565b5061057e60008211610137611248565b6000612030611336565b8260405160200161092f9291906148e9565b60608088612051611aae610996565b61205c611ad4610678565b60006120666110d8565b9050612070610598565b612115576000806120848d8d8d868b6126e4565b91509150612099620f424083101560cc611248565b6120a76000620f424061272a565b6120b68b620f4240840361272a565b6120c08184611bbe565b806120c961146c565b6001600160401b03811180156120de57600080fd5b50604051908082528060200260200182016040528015612108578160200160208202803683370190505b5095509550505050611b35565b61211f8882611ed5565b60008060006121348e8e8e8e8e8e8a8f611b6e565b9250925092506121448c8461272a565b61214e8285611bbe565b61215881856118ba565b9095509350611b35915050565b600b5461217490826000610e9f565b600b556040517f5a9e84f78f7957cb4ed7478eb0fcad35ee4ecbe2e0f298420b28a3955392573f90611068908390614950565b6002815110156121b657610595565b6000816000815181106121c557fe5b602002602001015190506000600190505b82518110156107395760008382815181106121ed57fe5b60200260200101519050612216816001600160a01b0316846001600160a01b0316106065611248565b91506001016121d6565b600073ba1ba1ba1ba1ba1ba1ba1ba1ba1ba1ba1ba1ba1b61223f610972565b6001600160a01b03161415801561225a575061225a83612734565b1561228257612267610972565b6001600160a01b0316336001600160a01b031614905061057e565b61228a611e5b565b6001600160a01b0316639be2a8848484306040518463ffffffff1660e01b81526004016122b99392919061497c565b60206040518083038186803b1580156122d157600080fd5b505afa1580156122e5573d6000803e3d6000fd5b505050506040513d601f19601f820116820180604052508101906123099190614449565b905061057e565b62461bcd60e51b6000908152602060045260076024526642414c23000030600a808404818106603090810160081b95839006959095019082900491820690940160101b939093010160c81b604452606490fd5b60006123728484111583611248565b5050900390565b4690565b600080612398612393846004601f880201612770565b61277a565b905060006123af6108b38560806010890201611b4c565b905060006123bc85612796565b90506123c9838383612815565b9695505050505050565b606060006123df61146c565b6001600160401b03811180156123f457600080fd5b5060405190808252806020026020018201604052801561241e578160200160208202803683370190505b5090508261242d5790506123c9565b61246088878151811061243c57fe5b602002602001015188888151811061245057fe5b6020026020010151878787612889565b81878151811061246c57fe5b6020908102919091010152979650505050505050565b60005b61248d61146c565b8110156124e7576124c88482815181106124a357fe5b60200260200101518483815181106124b757fe5b60200260200101518463ffffffff16565b8482815181106124d457fe5b6020908102919091010152600101612485565b50505050565b6000606060006124fc84612911565b9050600081600281111561250c57fe5b14156125275761251d878786612927565b9250925050612553565b600181600281111561253557fe5b14156125455761251d8785612a09565b61251d87878787612a3b565b505b94509492505050565b600061256b8484610e07612482565b611dfd8285611fb4565b6107688282612aa9565b600060608061258c6113d3565b600080612597611f36565b9150915060006125a7838c611fb4565b905060006125bb8c8585600954868f6123d3565b90506125ca8c82610e07612482565b6000806125d98e878d8d612b65565b915091506125e88e8288612bc0565b60095590975095509350505050985098509895505050505050565b600082820261261d841580610ee3575083858381610ee057fe5b670de0b6b3a764000090049392505050565b60006126396113d3565b611dfd8361264a8660200151612bcf565b846126588860400151612bcf565b8860600151612cf1565b600061266c6113d3565b611dfd8361267d8660200151612bcf565b8461268b8860400151612bcf565b8860600151612d5e565b6000806126a28484612dd4565b905060006126bc6126b583612710610ec6565b6001610e7b565b9050808210156126d15760009250505061057e565b6126db8282610e07565b9250505061057e565b6000606061270f6126f3610972565b6001600160a01b0316876001600160a01b031614610148611248565b61271c8787878787612ed5565b915091509550959350505050565b6107688282612f69565b6000612746633806be4b60e21b6108fa565b821480612761575061275e633e56920560e01b6108fa565b82145b8061057e575061057e82612ff7565b1c637fffffff1690565b600061057e637fffffff610e3784670de0b6b3a7640000610ec6565b600042816127a58460c0611b42565b905060006127b48560e0611b42565b9050808311156127d157670de0b6b3a764000093505050506107f9565b818310156127e557600093505050506107f9565b8181038284038115612800576127fb8183611a57565b61280a565b670de0b6b3a76400005b979650505050505050565b600081158061282357508284145b1561282f575082610645565b670de0b6b3a76400008210612845575081610645565b8284111561286f57600061285b83858703612603565b90506128678582610e07565b915050610645565b600061287d83868603612603565b90506128678582610e7b565b600083831161289a57506000612908565b60006128a68585610f14565b905060006128bc670de0b6b3a764000088611a57565b90506128d0826709b6e64a8ec60000611490565b915060006128de8383613029565b905060006128f56128ee83613055565b8b90612603565b90506129018187612603565b9450505050505b95945050505050565b60008180602001905181019061057e9190614598565b600060606129336113d3565b60008061293f8561307b565b9150915061295761294e61146c565b82106064611248565b600061296161146c565b6001600160401b038111801561297657600080fd5b506040519080825280602002602001820160405280156129a0578160200160208202803683370190505b5090506129e48883815181106129b257fe5b60200260200101518884815181106129c657fe5b6020026020010151856129d7610598565b6129df61076c565b61309d565b8183815181106129f057fe5b6020908102919091010152919791965090945050505050565b600060606000612a188461315d565b90506000612a2e8683612a29610598565b613173565b9196919550909350505050565b60006060612a476113d3565b600080612a5385613224565b91509150612a64825161078e61146c565b612a6e8287611ed5565b6000612a8b898985612a7e610598565b612a8661076c565b61323c565b9050612a9b8282111560cf611248565b989197509095505050505050565b612ac06001600160a01b038316151561019b611248565b612acc82600083610739565b6001600160a01b038216600090815260208190526040902054612af290826101a1612363565b6001600160a01b038316600090815260208190526040902055600254612b189082613468565b6002556040516000906001600160a01b038416907fddf252ad1be2c89b69c2b068fc378daa952ba7f163c4a11628f55a4df523b3ef90612b59908590614973565b60405180910390a35050565b600060606000612b7484612911565b90506001816002811115612b8457fe5b1415612b965761251d87878787613476565b6002816002811115612ba457fe5b1415612bb55761251d8787866134d3565b612551610136612310565b600061256b8484610e7b612482565b6000807f00000000000000000000000000000000000000000000000000000000000000006001600160a01b0316836001600160a01b03161415612c1457506000612ce5565b7f00000000000000000000000000000000000000000000000000000000000000006001600160a01b0316836001600160a01b03161415612c5657506001612ce5565b7f00000000000000000000000000000000000000000000000000000000000000006001600160a01b0316836001600160a01b03161415612c9857506002612ce5565b7f00000000000000000000000000000000000000000000000000000000000000006001600160a01b0316836001600160a01b03161415612cda57506003612ce5565b612ce5610135612310565b61064581600b5461237d565b6000612d13612d0887670429d069189e0000612603565b831115610130611248565b6000612d1f8784610e7b565b90506000612d2d8883610f14565b90506000612d3b8887611a57565b90506000612d498383613029565b9050612901612d5782613055565b8990612603565b6000612d80612d7585670429d069189e0000612603565b831115610131611248565b6000612d96612d8f8685610e07565b8690610f14565b90506000612da48588610f14565b90506000612db28383613029565b90506000612dc882670de0b6b3a7640000610e07565b90506129018a82610ec6565b600081612dea5750670de0b6b3a764000061057e565b82612df75750600061057e565b612e08600160ff1b84106006611248565b82612e2e770bce5086492111aea88f4bb1ca6bcf584181ea8059f7653284106007611248565b826000670c7d713b49da000083138015612e4f5750670f43fc2c04ee000083125b15612e86576000612e5f8461357f565b9050670de0b6b3a764000080820784020583670de0b6b3a764000083050201915050612e94565b81612e908461369d565b0290505b670de0b6b3a76400009005612ecc680238fd42c5cf03ffff198212801590612ec5575068070c1cc73b00c800008213155b6008611248565b6123c981613a3c565b60006060612ee16113d3565b6000612eec84612911565b9050612f076000826002811115612eff57fe5b1460ce611248565b6000612f1285613e19565b9050612f1f6106fa61146c565b612f298187611ed5565b6000612f33611f36565b5090506000612f428284611fb4565b90506000612f52826107d461146c565b600992909255509a91995090975050505050505050565b612f7560008383610739565b600254612f829082610e7b565b6002556001600160a01b038216600090815260208190526040902054612fa89082610e7b565b6001600160a01b0383166000818152602081905260408082209390935591519091907fddf252ad1be2c89b69c2b068fc378daa952ba7f163c4a11628f55a4df523b3ef90612b59908590614973565b6000613009631c74c91760e11b6108fa565b82148061057e57506130216350dd6ed960e01b6108fa565b909114919050565b6000806130368484612dd4565b905060006130496126b583612710610ec6565b90506129088282610e7b565b6000670de0b6b3a7640000821061306d57600061057e565b50670de0b6b3a76400000390565b600080828060200190518101906130929190614627565b909590945092505050565b6000806130ae84610e378188610e07565b90506130c76709b6e64a8ec60000821015610132611248565b60006130e56130de670de0b6b3a764000089611a57565b8390613029565b905060006130fc6130f583613055565b8a90612603565b9050600061310989613055565b905060006131178383610ec6565b905060006131258483610e07565b905061314d61314661313f670de0b6b3a76400008b610e07565b8490612603565b8290610e7b565b9c9b505050505050505050505050565b60008180602001905181019061064591906145fa565b606060006131818484611a57565b9050600085516001600160401b038111801561319c57600080fd5b506040519080825280602002602001820160405280156131c6578160200160208202803683370190505b50905060005b865181101561321a576131fb838883815181106131e557fe5b602002602001015161260390919063ffffffff16565b82828151811061320757fe5b60209081029190910101526001016131cc565b5095945050505050565b606060008280602001905181019061309291906145b4565b60008084516001600160401b038111801561325657600080fd5b50604051908082528060200260200182016040528015613280578160200160208202803683370190505b5090506000805b8851811015613345576132e089828151811061329f57fe5b6020026020010151610e378984815181106132b657fe5b60200260200101518c85815181106132ca57fe5b6020026020010151610e0790919063ffffffff16565b8382815181106132ec57fe5b60200260200101818152505061333b61333489838151811061330a57fe5b602002602001015185848151811061331e57fe5b6020026020010151610ec690919063ffffffff16565b8390610e7b565b9150600101613287565b50670de0b6b3a764000060005b895181101561344757600084828151811061336957fe5b60200260200101518411156133c957600061339261338686613055565b8d85815181106131e557fe5b905060006133a6828c86815181106132ca57fe5b90506133c0613334611e54670de0b6b3a76400008c610e07565b925050506133e0565b8882815181106133d557fe5b602002602001015190505b60006134098c84815181106133f157fe5b60200260200101516107d9848f87815181106132ca57fe5b905061343b6134348c858151811061341d57fe5b60200260200101518361269590919063ffffffff16565b8590612603565b93505050600101613352565b5061345b61345482613055565b8790610ec6565b9998505050505050505050565b600061064583836001612363565b6000606060008061348685613224565b9150915061349c61349561146c565b8351610de5565b6134a68287611ed5565b60006134c38989856134b6610598565b6134be61076c565b613e2f565b9050612a9b8282101560d0611248565b600060606000806134e38561307b565b915091506134f261294e61146c565b60006134fc61146c565b6001600160401b038111801561351157600080fd5b5060405190808252806020026020018201604052801561353b578160200160208202803683370190505b5090506129e488838151811061354d57fe5b602002602001015188848151811061356157fe5b602002602001015185613572610598565b61357a61076c565b61403f565b670de0b6b3a7640000026000806a0c097ce7bc90715b34b9f160241b808401906ec097ce7bc90715b34b9f0fffffffff19850102816135ba57fe5b05905060006a0c097ce7bc90715b34b9f160241b82800205905081806a0c097ce7bc90715b34b9f160241b81840205915060038205016a0c097ce7bc90715b34b9f160241b82840205915060058205016a0c097ce7bc90715b34b9f160241b82840205915060078205016a0c097ce7bc90715b34b9f160241b82840205915060098205016a0c097ce7bc90715b34b9f160241b828402059150600b8205016a0c097ce7bc90715b34b9f160241b828402059150600d8205016a0c097ce7bc90715b34b9f160241b828402059150600f826002919005919091010295945050505050565b6000670de0b6b3a76400008212156136d9576136cf826a0c097ce7bc90715b34b9f160241b816136c957fe5b0561369d565b60000390506107f9565b60007e1600ef3172e58d2e933ec884fde10064c63b5372d805e203c0000000000000831261372a57770195e54c5dd42177f53a27172fa9ec630262827000000000830592506806f05b59d3b2000000015b73011798004d755d3c8bc8e03204cf44619e0000008312613762576b1425982cf597cd205cef7380830592506803782dace9d9000000015b606492830292026e01855144814a7ff805980ff008400083126137aa576e01855144814a7ff805980ff008400068056bc75e2d63100000840205925068ad78ebc5ac62000000015b6b02df0ab5a80a22c61ab5a70083126137e5576b02df0ab5a80a22c61ab5a70068056bc75e2d6310000084020592506856bc75e2d631000000015b693f1fce3da636ea5cf850831261381c57693f1fce3da636ea5cf85068056bc75e2d631000008402059250682b5e3af16b18800000015b690127fa27722cc06cc5e2831261385357690127fa27722cc06cc5e268056bc75e2d6310000084020592506815af1d78b58c400000015b68280e60114edb805d0383126138885768280e60114edb805d0368056bc75e2d631000008402059250680ad78ebc5ac6200000015b680ebc5fb4174612111083126138b357680ebc5fb4174612111068056bc75e2d631000009384020592015b6808f00f760a4b2db55d83126138e8576808f00f760a4b2db55d68056bc75e2d6310000084020592506802b5e3af16b1880000015b6806f5f1775788937937831261391d576806f5f177578893793768056bc75e2d63100000840205925068015af1d78b58c40000015b6806248f33704b2866038312613951576806248f33704b28660368056bc75e2d63100000840205925067ad78ebc5ac620000015b6805c548670b9510e7ac8312613985576805c548670b9510e7ac68056bc75e2d6310000084020592506756bc75e2d6310000015b600068056bc75e2d63100000840168056bc75e2d6310000080860302816139a857fe5b059050600068056bc75e2d63100000828002059050818068056bc75e2d63100000818402059150600382050168056bc75e2d63100000828402059150600582050168056bc75e2d63100000828402059150600782050168056bc75e2d63100000828402059150600982050168056bc75e2d63100000828402059150600b820501600202606485820105979650505050505050565b6000613a6b680238fd42c5cf03ffff198312158015613a64575068070c1cc73b00c800008313155b6009611248565b6000821215613a9e57613a8082600003613a3c565b6a0c097ce7bc90715b34b9f160241b81613a9657fe5b0590506107f9565b60006806f05b59d3b20000008312613ade57506806f05b59d3b1ffffff1990910190770195e54c5dd42177f53a27172fa9ec630262827000000000613b14565b6803782dace9d90000008312613b1057506803782dace9d8ffffff19909101906b1425982cf597cd205cef7380613b14565b5060015b6064929092029168056bc75e2d6310000068ad78ebc5ac620000008412613b645768ad78ebc5ac61ffffff199093019268056bc75e2d631000006e01855144814a7ff805980ff008400082020590505b6856bc75e2d6310000008412613ba0576856bc75e2d630ffffff199093019268056bc75e2d631000006b02df0ab5a80a22c61ab5a70082020590505b682b5e3af16b188000008412613bda57682b5e3af16b187fffff199093019268056bc75e2d63100000693f1fce3da636ea5cf85082020590505b6815af1d78b58c4000008412613c14576815af1d78b58c3fffff199093019268056bc75e2d63100000690127fa27722cc06cc5e282020590505b680ad78ebc5ac62000008412613c4d57680ad78ebc5ac61fffff199093019268056bc75e2d6310000068280e60114edb805d0382020590505b68056bc75e2d631000008412613c865768056bc75e2d630fffff199093019268056bc75e2d63100000680ebc5fb4174612111082020590505b6802b5e3af16b18800008412613cbf576802b5e3af16b187ffff199093019268056bc75e2d631000006808f00f760a4b2db55d82020590505b68015af1d78b58c400008412613cf85768015af1d78b58c3ffff199093019268056bc75e2d631000006806f5f177578893793782020590505b68056bc75e2d631000008481019085906002908280020505918201919050600368056bc75e2d631000008783020505918201919050600468056bc75e2d631000008783020505918201919050600568056bc75e2d631000008783020505918201919050600668056bc75e2d631000008783020505918201919050600768056bc75e2d631000008783020505918201919050600868056bc75e2d631000008783020505918201919050600968056bc75e2d631000008783020505918201919050600a68056bc75e2d631000008783020505918201919050600b68056bc75e2d631000008783020505918201919050600c68056bc75e2d631000008783020505918201919050606468056bc75e2d63100000848402058502059695505050505050565b606081806020019051810190610645919061465d565b60008084516001600160401b0381118015613e4957600080fd5b50604051908082528060200260200182016040528015613e73578160200160208202803683370190505b5090506000805b8851811015613f1b57613ed3898281518110613e9257fe5b60200260200101516107d9898481518110613ea957fe5b60200260200101518c8581518110613ebd57fe5b6020026020010151610e7b90919063ffffffff16565b838281518110613edf57fe5b602002602001018181525050613f11613334898381518110613efd57fe5b60200260200101518584815181106131e557fe5b9150600101613e7a565b50670de0b6b3a764000060005b8951811015613ffc57600083858381518110613f4057fe5b60200260200101511115613f9c576000613f6561338686670de0b6b3a7640000610e07565b90506000613f79828c86815181106132ca57fe5b9050613f93613334612005670de0b6b3a76400008c610e07565b92505050613fb3565b888281518110613fa857fe5b602002602001015190505b6000613fdc8c8481518110613fc457fe5b60200260200101516107d9848f8781518110613ebd57fe5b9050613ff06134348c858151811061341d57fe5b93505050600101613f28565b50670de0b6b3a76400008111156140335761402961402282670de0b6b3a7640000610e07565b8790612603565b9350505050612908565b60009350505050612908565b60008061405084610e378188610e7b565b90506140696729a2241af62c0000821115610133611248565b60006140806130de670de0b6b3a764000089610f14565b905060006140a061409983670de0b6b3a7640000610e07565b8a90610ec6565b905060006140ad89613055565b905060006140bb8383610ec6565b905060006140c98483610e07565b905061314d6131466140e3670de0b6b3a76400008b610e07565b8490610f14565b80356107f981614b13565b600082601f830112614105578081fd5b8135602061411a61411583614af6565b614ad3565b8281528181019085830183850287018401881015614136578586fd5b855b8581101561415457813584529284019290840190600101614138565b5090979650505050505050565b600082601f830112614171578081fd5b8151602061418161411583614af6565b828152818101908583018385028701840188101561419d578586fd5b855b858110156141545781518452928401929084019060010161419f565b600082601f8301126141cb578081fd5b81356001600160401b038111156141de57fe5b6141f1601f8201601f1916602001614ad3565b818152846020838601011115614205578283fd5b816020850160208301379081016020019190915292915050565b8035600281106107f957600080fd5b60006020828403121561423f578081fd5b813561064581614b13565b6000806040838503121561425c578081fd5b823561426781614b13565b9150602083013561427781614b13565b809150509250929050565b600080600060608486031215614296578081fd5b83356142a181614b13565b925060208401356142b181614b13565b929592945050506040919091013590565b600080600080600080600060e0888a0312156142dc578485fd5b87356142e781614b13565b965060208801356142f781614b13565b95506040880135945060608801359350608088013560ff8116811461431a578384fd5b9699959850939692959460a0840135945060c09093013592915050565b60008060408385031215614349578182fd5b823561435481614b13565b946020939093013593505050565b600080600060608486031215614376578081fd5b83516001600160401b038082111561438c578283fd5b818601915086601f83011261439f578283fd5b815160206143af61411583614af6565b82815281810190858301838502870184018c10156143cb578788fd5b8796505b848710156143f65780516143e281614b13565b8352600196909601959183019183016143cf565b509189015191975090935050508082111561440f578283fd5b5061441c86828701614161565b925050604084015190509250925092565b60006020828403121561443e578081fd5b813561064581614b28565b60006020828403121561445a578081fd5b815161064581614b28565b600080600080600080600060e0888a03121561447f578081fd5b87359650602088013561449181614b13565b955060408801356144a181614b13565b945060608801356001600160401b03808211156144bc578283fd5b6144c88b838c016140f5565b955060808a0135945060a08a0135935060c08a01359150808211156144eb578283fd5b506144f88a828b016141bb565b91505092959891949750929550565b600060208284031215614518578081fd5b81356001600160e01b031981168114610645578182fd5b600060208284031215614540578081fd5b815161064581614b13565b6000806040838503121561455d578182fd5b823561456881614b13565b915060208301356001600160401b03811115614582578182fd5b61458e858286016141bb565b9150509250929050565b6000602082840312156145a9578081fd5b815161064581614b36565b6000806000606084860312156145c8578081fd5b83516145d381614b36565b60208501519093506001600160401b038111156145ee578182fd5b61441c86828701614161565b6000806040838503121561460c578182fd5b825161461781614b36565b6020939093015192949293505050565b60008060006060848603121561463b578081fd5b835161464681614b36565b602085015160409095015190969495509392505050565b6000806040838503121561466f578182fd5b825161467a81614b36565b60208401519092506001600160401b03811115614695578182fd5b61458e85828601614161565b6000806000606084860312156146b5578081fd5b83356001600160401b03808211156146cb578283fd5b81860191506101208083890312156146e1578384fd5b6146ea81614ad3565b90506146f58361421f565b8152614703602084016140ea565b6020820152614714604084016140ea565b6040820152606083013560608201526080830135608082015260a083013560a082015261474360c084016140ea565b60c082015261475460e084016140ea565b60e0820152610100808401358381111561476c578586fd5b6147788a8287016141bb565b9183019190915250976020870135975060409096013595945050505050565b6000602082840312156147a8578081fd5b5035919050565b6000806000606084860312156147c3578081fd5b833592506020840135915060408401356001600160401b038111156147e6578182fd5b6147f2868287016140f5565b9150509250925092565b60008060008060808587031215614811578182fd5b845193506020850151925060408501519150606085015161483181614b13565b939692955090935050565b6000815180845260208085019450808401835b8381101561486b5781518752958201959082019060010161484f565b509495945050505050565b60008151808452815b8181101561489b5760208185018101518683018201520161487f565b818111156148ac5782602083870101525b50601f01601f19169290920160200192915050565b9182526001600160e01b031916602082015260240190565b6000828483379101908152919050565b61190160f01b81526002810192909252602282015260420190565b6001600160a01b0391909116815260200190565b600060208252610645602083018461483c565b60006040825261493e604083018561483c565b8281036020840152612908818561483c565b901515815260200190565b92151583526020830191909152604082015260600190565b90815260200190565b9283526001600160a01b03918216602084015216604082015260600190565b9586526001600160a01b0394851660208701529290931660408501526060840152608083019190915260a082015260c00190565b9485526020850193909352604084019190915260608301526001600160a01b0316608082015260a00190565b600083825260406020830152611dfd6040830184614876565b9182526001600160a01b0316602082015260400190565b93845260ff9290921660208401526040830152606082015260800190565b6000602082526106456020830184614876565b600083825260406020830152611dfd604083018461483c565b600084825283602083015260606040830152612908606083018461483c565b600085825284602083015260806040830152614ab3608083018561483c565b828103606084015261280a818561483c565b60ff91909116815260200190565b6040518181016001600160401b0381118282101715614aee57fe5b604052919050565b60006001600160401b03821115614b0957fe5b5060209081020190565b6001600160a01b038116811461059557600080fd5b801515811461059557600080fd5b6003811061059557600080fdfea26469706673582212207e11ff15bbd103ca117939f6000a185cea52da70b2070fe464fff93e1a655fb564736f6c63430007060033",
			"opcodes": "PUSH2 0x2E0 PUSH1 0x40 MSTORE PUSH32 0x6E71EDAE12B1B97F4D1F60370FEF10105FA2FAAE0126114A169C64845D6126C9 PUSH2 0x120 MSTORE CALLVALUE DUP1 ISZERO PUSH3 0x37 JUMPI PUSH1 0x0 DUP1 REVERT JUMPDEST POP PUSH1 0x40 MLOAD PUSH3 0x5CAA CODESIZE SUB DUP1 PUSH3 0x5CAA DUP4 CODECOPY DUP2 ADD PUSH1 0x40 DUP2 SWAP1 MSTORE PUSH3 0x5A SWAP2 PUSH3 0xD65 JUMP JUMPDEST DUP10 DUP10 DUP10 DUP10 DUP10 DUP10 DUP10 DUP10 DUP10 DUP10 DUP10 DUP10 DUP10 DUP10 DUP11 MLOAD PUSH1 0x1 PUSH1 0x1 PUSH1 0x40 SHL SUB DUP2 GT DUP1 ISZERO PUSH3 0x80 JUMPI PUSH1 0x0 DUP1 REVERT JUMPDEST POP PUSH1 0x40 MLOAD SWAP1 DUP1 DUP3 MSTORE DUP1 PUSH1 0x20 MUL PUSH1 0x20 ADD DUP3 ADD PUSH1 0x40 MSTORE DUP1 ISZERO PUSH3 0xAB JUMPI DUP2 PUSH1 0x20 ADD PUSH1 0x20 DUP3 MUL DUP1 CALLDATASIZE DUP4 CALLDATACOPY ADD SWAP1 POP JUMPDEST POP DUP10 DUP10 DUP10 DUP10 DUP9 DUP7 MLOAD PUSH1 0x2 EQ PUSH3 0xC3 JUMPI PUSH1 0x1 PUSH3 0xC6 JUMP JUMPDEST PUSH1 0x2 JUMPDEST DUP10 DUP10 DUP10 DUP10 DUP10 DUP10 DUP10 DUP10 DUP3 DUP3 DUP10 DUP10 DUP2 DUP1 PUSH1 0x40 MLOAD DUP1 PUSH1 0x40 ADD PUSH1 0x40 MSTORE DUP1 PUSH1 0x1 DUP2 MSTORE PUSH1 0x20 ADD PUSH1 0x31 PUSH1 0xF8 SHL DUP2 MSTORE POP DUP5 DUP5 DUP10 CALLER PUSH1 0x1 PUSH1 0x1 PUSH1 0xA0 SHL SUB AND PUSH1 0x0 SHL DUP1 PUSH1 0x80 DUP2 DUP2 MSTORE POP POP POP DUP1 PUSH1 0x1 PUSH1 0x1 PUSH1 0xA0 SHL SUB AND PUSH1 0xA0 DUP2 PUSH1 0x1 PUSH1 0x1 PUSH1 0xA0 SHL SUB AND PUSH1 0x60 SHL DUP2 MSTORE POP POP POP DUP2 PUSH1 0x3 SWAP1 DUP1 MLOAD SWAP1 PUSH1 0x20 ADD SWAP1 PUSH3 0x13D SWAP3 SWAP2 SWAP1 PUSH3 0xB19 JUMP JUMPDEST POP DUP1 MLOAD PUSH3 0x153 SWAP1 PUSH1 0x4 SWAP1 PUSH1 0x20 DUP5 ADD SWAP1 PUSH3 0xB19 JUMP JUMPDEST POP POP PUSH1 0x5 DUP1 SLOAD PUSH1 0xFF NOT AND PUSH1 0x12 OR SWAP1 SSTORE POP DUP2 MLOAD PUSH1 0x20 SWAP3 DUP4 ADD KECCAK256 PUSH1 0xC0 MSTORE DUP1 MLOAD SWAP2 ADD KECCAK256 PUSH1 0xE0 MSTORE POP POP PUSH32 0x8B73C3C69BB8FE3D512ECC4CF759CC79239F7B179B0FFACAA9A75D522B39400F PUSH2 0x100 MSTORE POP PUSH3 0x1B2 PUSH3 0x76A700 DUP4 GT ISZERO PUSH2 0x194 PUSH3 0x525 JUMP JUMPDEST PUSH3 0x1C6 PUSH3 0x278D00 DUP3 GT ISZERO PUSH2 0x195 PUSH3 0x525 JUMP JUMPDEST TIMESTAMP SWAP1 SWAP2 ADD PUSH2 0x140 DUP2 SWAP1 MSTORE ADD PUSH2 0x160 MSTORE DUP6 MLOAD PUSH3 0x1E8 SWAP1 PUSH1 0x2 GT ISZERO PUSH1 0xC8 PUSH3 0x525 JUMP JUMPDEST PUSH3 0x202 PUSH3 0x1F6 PUSH3 0x53A JUMP JUMPDEST DUP8 MLOAD GT ISZERO PUSH1 0xC9 PUSH3 0x525 JUMP JUMPDEST PUSH3 0x218 DUP7 PUSH3 0x53F PUSH1 0x20 SHL PUSH3 0xDDB OR PUSH1 0x20 SHR JUMP JUMPDEST PUSH3 0x223 DUP5 PUSH3 0x54B JUMP JUMPDEST PUSH1 0x40 MLOAD PUSH4 0x9B2760F PUSH1 0xE0 SHL DUP2 MSTORE PUSH1 0x0 SWAP1 PUSH1 0x1 PUSH1 0x1 PUSH1 0xA0 SHL SUB DUP13 AND SWAP1 PUSH4 0x9B2760F SWAP1 PUSH3 0x254 SWAP1 DUP14 SWAP1 PUSH1 0x4 ADD PUSH3 0xF75 JUMP JUMPDEST PUSH1 0x20 PUSH1 0x40 MLOAD DUP1 DUP4 SUB DUP2 PUSH1 0x0 DUP8 DUP1 EXTCODESIZE ISZERO DUP1 ISZERO PUSH3 0x26F JUMPI PUSH1 0x0 DUP1 REVERT JUMPDEST POP GAS CALL ISZERO DUP1 ISZERO PUSH3 0x284 JUMPI RETURNDATASIZE PUSH1 0x0 DUP1 RETURNDATACOPY RETURNDATASIZE PUSH1 0x0 REVERT JUMPDEST POP POP POP POP PUSH1 0x40 MLOAD RETURNDATASIZE PUSH1 0x1F NOT PUSH1 0x1F DUP3 ADD AND DUP3 ADD DUP1 PUSH1 0x40 MSTORE POP DUP2 ADD SWAP1 PUSH3 0x2AA SWAP2 SWAP1 PUSH3 0xD4C JUMP JUMPDEST PUSH1 0x40 MLOAD PUSH4 0x3354E3E9 PUSH1 0xE1 SHL DUP2 MSTORE SWAP1 SWAP2 POP PUSH1 0x1 PUSH1 0x1 PUSH1 0xA0 SHL SUB DUP13 AND SWAP1 PUSH4 0x66A9C7D2 SWAP1 PUSH3 0x2DF SWAP1 DUP5 SWAP1 DUP12 SWAP1 DUP12 SWAP1 PUSH1 0x4 ADD PUSH3 0xEDB JUMP JUMPDEST PUSH1 0x0 PUSH1 0x40 MLOAD DUP1 DUP4 SUB DUP2 PUSH1 0x0 DUP8 DUP1 EXTCODESIZE ISZERO DUP1 ISZERO PUSH3 0x2FA JUMPI PUSH1 0x0 DUP1 REVERT JUMPDEST POP GAS CALL ISZERO DUP1 ISZERO PUSH3 0x30F JUMPI RETURNDATASIZE PUSH1 0x0 DUP1 RETURNDATACOPY RETURNDATASIZE PUSH1 0x0 REVERT JUMPDEST POP POP POP POP DUP11 PUSH1 0x1 PUSH1 0x1 PUSH1 0xA0 SHL SUB AND PUSH2 0x180 DUP2 PUSH1 0x1 PUSH1 0x1 PUSH1 0xA0 SHL SUB AND PUSH1 0x60 SHL DUP2 MSTORE POP POP DUP1 PUSH2 0x1A0 DUP2 DUP2 MSTORE POP POP POP POP POP POP POP POP POP POP POP POP POP POP POP POP POP POP POP POP POP POP PUSH1 0x1 PUSH1 0xA DUP2 SWAP1 SSTORE POP PUSH1 0x0 DUP8 MLOAD SWAP1 POP PUSH3 0x374 DUP2 DUP9 MLOAD PUSH3 0x5D7 PUSH1 0x20 SHL PUSH3 0xDE5 OR PUSH1 0x20 SHR JUMP JUMPDEST PUSH2 0x1C0 DUP2 SWAP1 MSTORE DUP8 MLOAD DUP9 SWAP1 PUSH1 0x0 SWAP1 PUSH3 0x388 JUMPI INVALID JUMPDEST PUSH1 0x20 MUL PUSH1 0x20 ADD ADD MLOAD PUSH1 0x1 PUSH1 0x1 PUSH1 0xA0 SHL SUB AND PUSH2 0x1E0 DUP2 PUSH1 0x1 PUSH1 0x1 PUSH1 0xA0 SHL SUB AND PUSH1 0x60 SHL DUP2 MSTORE POP POP DUP8 PUSH1 0x1 DUP2 MLOAD DUP2 LT PUSH3 0x3BB JUMPI INVALID JUMPDEST PUSH1 0x20 MUL PUSH1 0x20 ADD ADD MLOAD PUSH1 0x1 PUSH1 0x1 PUSH1 0xA0 SHL SUB AND PUSH2 0x200 DUP2 PUSH1 0x1 PUSH1 0x1 PUSH1 0xA0 SHL SUB AND PUSH1 0x60 SHL DUP2 MSTORE POP POP PUSH1 0x2 DUP2 GT PUSH3 0x3F1 JUMPI PUSH1 0x0 PUSH3 0x408 JUMP JUMPDEST DUP8 PUSH1 0x2 DUP2 MLOAD DUP2 LT PUSH3 0x3FF JUMPI INVALID JUMPDEST PUSH1 0x20 MUL PUSH1 0x20 ADD ADD MLOAD JUMPDEST PUSH1 0x60 SHL PUSH1 0x1 PUSH1 0x1 PUSH1 0x60 SHL SUB NOT AND PUSH2 0x220 MSTORE PUSH1 0x3 DUP2 GT PUSH3 0x42A JUMPI PUSH1 0x0 PUSH3 0x441 JUMP JUMPDEST DUP8 PUSH1 0x3 DUP2 MLOAD DUP2 LT PUSH3 0x438 JUMPI INVALID JUMPDEST PUSH1 0x20 MUL PUSH1 0x20 ADD ADD MLOAD JUMPDEST PUSH1 0x1 PUSH1 0x1 PUSH1 0xA0 SHL SUB AND PUSH2 0x240 DUP2 PUSH1 0x1 PUSH1 0x1 PUSH1 0xA0 SHL SUB AND PUSH1 0x60 SHL DUP2 MSTORE POP POP PUSH3 0x484 DUP9 PUSH1 0x0 DUP2 MLOAD DUP2 LT PUSH3 0x470 JUMPI INVALID JUMPDEST PUSH1 0x20 MUL PUSH1 0x20 ADD ADD MLOAD PUSH3 0x5E6 PUSH1 0x20 SHL PUSH1 0x20 SHR JUMP JUMPDEST PUSH2 0x260 MSTORE DUP8 MLOAD PUSH3 0x49D SWAP1 DUP10 SWAP1 PUSH1 0x1 SWAP1 DUP2 LT PUSH3 0x470 JUMPI INVALID JUMPDEST PUSH2 0x280 MSTORE PUSH1 0x2 DUP2 GT PUSH3 0x4B2 JUMPI PUSH1 0x0 PUSH3 0x4C4 JUMP JUMPDEST PUSH3 0x4C4 DUP9 PUSH1 0x2 DUP2 MLOAD DUP2 LT PUSH3 0x470 JUMPI INVALID JUMPDEST PUSH2 0x2A0 MSTORE PUSH1 0x3 DUP2 GT PUSH3 0x4D9 JUMPI PUSH1 0x0 PUSH3 0x4EB JUMP JUMPDEST PUSH3 0x4EB DUP9 PUSH1 0x3 DUP2 MLOAD DUP2 LT PUSH3 0x470 JUMPI INVALID JUMPDEST PUSH2 0x2C0 MSTORE TIMESTAMP PUSH3 0x4FE DUP2 DUP1 DUP11 DUP1 PUSH3 0x697 JUMP JUMPDEST PUSH3 0x509 DUP4 PUSH3 0x825 JUMP JUMPDEST POP POP POP POP POP POP POP POP POP POP POP POP POP POP POP POP POP POP POP POP POP POP PUSH3 0x102B JUMP JUMPDEST DUP2 PUSH3 0x536 JUMPI PUSH3 0x536 DUP2 PUSH3 0x879 JUMP JUMPDEST POP POP JUMP JUMPDEST PUSH1 0x4 SWAP1 JUMP JUMPDEST DUP1 PUSH3 0x536 DUP2 PUSH3 0x8CC JUMP JUMPDEST PUSH3 0x560 PUSH5 0xE8D4A51000 DUP3 LT ISZERO PUSH1 0xCB PUSH3 0x525 JUMP JUMPDEST PUSH3 0x578 PUSH8 0x16345785D8A0000 DUP3 GT ISZERO PUSH1 0xCA PUSH3 0x525 JUMP JUMPDEST PUSH3 0x597 DUP2 PUSH1 0xC0 PUSH1 0x8 SLOAD PUSH3 0x959 PUSH1 0x20 SHL PUSH3 0xDF2 OR SWAP1 SWAP3 SWAP2 SWAP1 PUSH1 0x20 SHR JUMP JUMPDEST PUSH1 0x8 SSTORE PUSH1 0x40 MLOAD PUSH32 0xA9BA3FFE0B6C366B81232CAAB38605A0699AD5398D6CCE76F91EE809E322DAFC SWAP1 PUSH3 0x5CC SWAP1 DUP4 SWAP1 PUSH3 0xF8A JUMP JUMPDEST PUSH1 0x40 MLOAD DUP1 SWAP2 SUB SWAP1 LOG1 POP JUMP JUMPDEST PUSH3 0x536 DUP3 DUP3 EQ PUSH1 0x67 PUSH3 0x525 JUMP JUMPDEST PUSH1 0x0 DUP1 DUP3 PUSH1 0x1 PUSH1 0x1 PUSH1 0xA0 SHL SUB AND PUSH4 0x313CE567 PUSH1 0x40 MLOAD DUP2 PUSH4 0xFFFFFFFF AND PUSH1 0xE0 SHL DUP2 MSTORE PUSH1 0x4 ADD PUSH1 0x20 PUSH1 0x40 MLOAD DUP1 DUP4 SUB DUP2 DUP7 DUP1 EXTCODESIZE ISZERO DUP1 ISZERO PUSH3 0x623 JUMPI PUSH1 0x0 DUP1 REVERT JUMPDEST POP GAS STATICCALL ISZERO DUP1 ISZERO PUSH3 0x638 JUMPI RETURNDATASIZE PUSH1 0x0 DUP1 RETURNDATACOPY RETURNDATASIZE PUSH1 0x0 REVERT JUMPDEST POP POP POP POP PUSH1 0x40 MLOAD RETURNDATASIZE PUSH1 0x1F NOT PUSH1 0x1F DUP3 ADD AND DUP3 ADD DUP1 PUSH1 0x40 MSTORE POP DUP2 ADD SWAP1 PUSH3 0x65E SWAP2 SWAP1 PUSH3 0xE71 JUMP JUMPDEST PUSH1 0xFF AND SWAP1 POP PUSH1 0x0 PUSH3 0x67D PUSH1 0x12 DUP4 PUSH3 0x96E PUSH1 0x20 SHL PUSH3 0xE07 OR PUSH1 0x20 SHR JUMP JUMPDEST SWAP1 POP DUP1 PUSH1 0xA EXP PUSH8 0xDE0B6B3A7640000 MUL SWAP3 POP POP POP JUMPDEST SWAP2 SWAP1 POP JUMP JUMPDEST PUSH1 0xB SLOAD PUSH1 0x0 DUP1 JUMPDEST DUP4 MLOAD DUP2 LT ISZERO PUSH3 0x788 JUMPI PUSH1 0x0 DUP5 DUP3 DUP2 MLOAD DUP2 LT PUSH3 0x6B7 JUMPI INVALID JUMPDEST PUSH1 0x20 MUL PUSH1 0x20 ADD ADD MLOAD SWAP1 POP PUSH3 0x6DF PUSH7 0x2386F26FC10000 DUP3 LT ISZERO PUSH2 0x12E PUSH3 0x525 PUSH1 0x20 SHL PUSH1 0x20 SHR JUMP JUMPDEST PUSH3 0x760 PUSH3 0x6F9 DUP3 PUSH3 0x98B PUSH1 0x20 SHL PUSH3 0xE1D OR PUSH1 0x20 SHR JUMP JUMPDEST DUP4 PUSH1 0x10 MUL PUSH1 0x80 ADD PUSH3 0x74B PUSH3 0x72E DUP11 DUP8 DUP2 MLOAD DUP2 LT PUSH3 0x715 JUMPI INVALID JUMPDEST PUSH1 0x20 MUL PUSH1 0x20 ADD ADD MLOAD PUSH3 0x9CC PUSH1 0x20 SHL PUSH3 0xE3D OR PUSH1 0x20 SHR JUMP JUMPDEST DUP7 PUSH1 0x1F MUL PUSH1 0x4 ADD DUP10 PUSH3 0x9F9 PUSH1 0x20 SHL PUSH3 0xE59 OR SWAP1 SWAP3 SWAP2 SWAP1 PUSH1 0x20 SHR JUMP JUMPDEST PUSH3 0xA0B PUSH1 0x20 SHL PUSH3 0xE6B OR SWAP1 SWAP3 SWAP2 SWAP1 PUSH1 0x20 SHR JUMP JUMPDEST SWAP4 POP PUSH3 0x77C DUP2 DUP5 PUSH3 0xA1B PUSH1 0x20 SHL PUSH3 0xE7B OR SWAP1 SWAP2 SWAP1 PUSH1 0x20 SHR JUMP JUMPDEST SWAP3 POP POP PUSH1 0x1 ADD PUSH3 0x69E JUMP JUMPDEST POP PUSH3 0x7A1 PUSH8 0xDE0B6B3A7640000 DUP3 EQ PUSH2 0x134 PUSH3 0x525 JUMP JUMPDEST PUSH3 0x7DA DUP6 PUSH1 0xE0 PUSH3 0x7C5 DUP10 PUSH1 0xC0 DUP8 PUSH3 0xA36 PUSH1 0x20 SHL PUSH3 0xE8D OR SWAP1 SWAP3 SWAP2 SWAP1 PUSH1 0x20 SHR JUMP JUMPDEST PUSH3 0xA36 PUSH1 0x20 SHL PUSH3 0xE8D OR SWAP1 SWAP3 SWAP2 SWAP1 PUSH1 0x20 SHR JUMP JUMPDEST PUSH1 0xB SSTORE PUSH1 0x40 MLOAD PUSH32 0xF3631F9DAB08169D1DB21C6DC5F32536FB2B0A6B9BB5330D71C52132F968BE0 SWAP1 PUSH3 0x815 SWAP1 DUP9 SWAP1 DUP9 SWAP1 DUP9 SWAP1 DUP9 SWAP1 PUSH3 0xF93 JUMP JUMPDEST PUSH1 0x40 MLOAD DUP1 SWAP2 SUB SWAP1 LOG1 POP POP POP POP POP POP JUMP JUMPDEST PUSH3 0x844 DUP2 PUSH1 0x0 PUSH1 0xB SLOAD PUSH3 0xA48 PUSH1 0x20 SHL PUSH3 0xE9F OR SWAP1 SWAP3 SWAP2 SWAP1 PUSH1 0x20 SHR JUMP JUMPDEST PUSH1 0xB SSTORE PUSH1 0x40 MLOAD PUSH32 0x5A9E84F78F7957CB4ED7478EB0FCAD35EE4ECBE2E0F298420B28A3955392573F SWAP1 PUSH3 0x5CC SWAP1 DUP4 SWAP1 PUSH3 0xED0 JUMP JUMPDEST PUSH3 0x461BCD PUSH1 0xE5 SHL PUSH1 0x0 SWAP1 DUP2 MSTORE PUSH1 0x20 PUSH1 0x4 MSTORE PUSH1 0x7 PUSH1 0x24 MSTORE PUSH7 0x42414C23000030 PUSH1 0xA DUP1 DUP5 DIV DUP2 DUP2 MOD PUSH1 0x30 SWAP1 DUP2 ADD PUSH1 0x8 SHL SWAP6 DUP4 SWAP1 MOD SWAP6 SWAP1 SWAP6 ADD SWAP1 DUP3 SWAP1 DIV SWAP2 DUP3 MOD SWAP1 SWAP5 ADD PUSH1 0x10 SHL SWAP4 SWAP1 SWAP4 ADD ADD PUSH1 0xC8 SHL PUSH1 0x44 MSTORE PUSH1 0x64 SWAP1 REVERT JUMPDEST PUSH1 0x2 DUP2 MLOAD LT ISZERO PUSH3 0x8DD JUMPI PUSH3 0x956 JUMP JUMPDEST PUSH1 0x0 DUP2 PUSH1 0x0 DUP2 MLOAD DUP2 LT PUSH3 0x8ED JUMPI INVALID JUMPDEST PUSH1 0x20 MUL PUSH1 0x20 ADD ADD MLOAD SWAP1 POP PUSH1 0x0 PUSH1 0x1 SWAP1 POP JUMPDEST DUP3 MLOAD DUP2 LT ISZERO PUSH3 0x953 JUMPI PUSH1 0x0 DUP4 DUP3 DUP2 MLOAD DUP2 LT PUSH3 0x917 JUMPI INVALID JUMPDEST PUSH1 0x20 MUL PUSH1 0x20 ADD ADD MLOAD SWAP1 POP PUSH3 0x948 DUP2 PUSH1 0x1 PUSH1 0x1 PUSH1 0xA0 SHL SUB AND DUP5 PUSH1 0x1 PUSH1 0x1 PUSH1 0xA0 SHL SUB AND LT PUSH1 0x65 PUSH3 0x525 PUSH1 0x20 SHL PUSH1 0x20 SHR JUMP JUMPDEST SWAP2 POP PUSH1 0x1 ADD PUSH3 0x8FE JUMP JUMPDEST POP POP JUMPDEST POP JUMP JUMPDEST PUSH1 0x1 PUSH1 0x1 PUSH1 0x40 SHL SUB DUP2 SHL NOT SWAP3 SWAP1 SWAP3 AND SWAP2 SHL OR SWAP1 JUMP JUMPDEST PUSH1 0x0 PUSH3 0x980 DUP4 DUP4 GT ISZERO PUSH1 0x1 PUSH3 0x525 JUMP JUMPDEST POP DUP1 DUP3 SUB JUMPDEST SWAP3 SWAP2 POP POP JUMP JUMPDEST PUSH1 0x0 PUSH3 0x985 PUSH8 0xDE0B6B3A7640000 PUSH3 0x9B8 PUSH2 0xFFFF DUP1 AND DUP6 PUSH3 0xA71 PUSH1 0x20 SHL PUSH3 0xEC6 OR SWAP1 SWAP2 SWAP1 PUSH1 0x20 SHR JUMP JUMPDEST PUSH3 0xAC6 PUSH1 0x20 SHL PUSH3 0xF14 OR SWAP1 SWAP2 SWAP1 PUSH1 0x20 SHR JUMP JUMPDEST PUSH1 0x0 PUSH3 0x985 PUSH8 0xDE0B6B3A7640000 PUSH3 0x9B8 PUSH4 0x7FFFFFFF DUP6 PUSH3 0xA71 PUSH1 0x20 SHL PUSH3 0xEC6 OR SWAP1 SWAP2 SWAP1 PUSH1 0x20 SHR JUMP JUMPDEST PUSH4 0x7FFFFFFF DUP2 SHL NOT SWAP3 SWAP1 SWAP3 AND SWAP2 SHL OR SWAP1 JUMP JUMPDEST PUSH2 0xFFFF DUP2 SHL NOT SWAP3 SWAP1 SWAP3 AND SWAP2 SHL OR SWAP1 JUMP JUMPDEST PUSH1 0x0 DUP3 DUP3 ADD PUSH3 0xA2F DUP5 DUP3 LT ISZERO DUP4 PUSH3 0x525 JUMP JUMPDEST SWAP4 SWAP3 POP POP POP JUMP JUMPDEST PUSH4 0xFFFFFFFF DUP2 SHL NOT SWAP3 SWAP1 SWAP3 AND SWAP2 SHL OR SWAP1 JUMP JUMPDEST PUSH1 0x0 PUSH1 0x1 DUP3 SHL NOT DUP5 AND DUP3 DUP5 PUSH3 0xA60 JUMPI PUSH1 0x0 PUSH3 0xA63 JUMP JUMPDEST PUSH1 0x1 JUMPDEST PUSH1 0xFF AND SWAP1 SHL OR SWAP5 SWAP4 POP POP POP POP JUMP JUMPDEST PUSH1 0x0 DUP3 DUP3 MUL PUSH3 0xA99 DUP5 ISZERO DUP1 PUSH3 0xA91 JUMPI POP DUP4 DUP6 DUP4 DUP2 PUSH3 0xA8E JUMPI INVALID JUMPDEST DIV EQ JUMPDEST PUSH1 0x3 PUSH3 0x525 JUMP JUMPDEST DUP1 PUSH3 0xAAA JUMPI PUSH1 0x0 SWAP2 POP POP PUSH3 0x985 JUMP JUMPDEST PUSH8 0xDE0B6B3A7640000 PUSH1 0x0 NOT DUP3 ADD JUMPDEST DIV PUSH1 0x1 ADD SWAP2 POP POP PUSH3 0x985 JUMP JUMPDEST PUSH1 0x0 PUSH3 0xAD7 DUP3 ISZERO ISZERO PUSH1 0x4 PUSH3 0x525 JUMP JUMPDEST DUP3 PUSH3 0xAE6 JUMPI POP PUSH1 0x0 PUSH3 0x985 JUMP JUMPDEST PUSH8 0xDE0B6B3A7640000 DUP4 DUP2 MUL SWAP1 PUSH3 0xB0C SWAP1 DUP6 DUP4 DUP2 PUSH3 0xB02 JUMPI INVALID JUMPDEST DIV EQ PUSH1 0x5 PUSH3 0x525 JUMP JUMPDEST DUP3 PUSH1 0x1 DUP3 SUB DUP2 PUSH3 0xAB9 JUMPI INVALID JUMPDEST DUP3 DUP1 SLOAD PUSH1 0x1 DUP2 PUSH1 0x1 AND ISZERO PUSH2 0x100 MUL SUB AND PUSH1 0x2 SWAP1 DIV SWAP1 PUSH1 0x0 MSTORE PUSH1 0x20 PUSH1 0x0 KECCAK256 SWAP1 PUSH1 0x1F ADD PUSH1 0x20 SWAP1 DIV DUP2 ADD SWAP3 DUP3 PUSH3 0xB51 JUMPI PUSH1 0x0 DUP6 SSTORE PUSH3 0xB9C JUMP JUMPDEST DUP3 PUSH1 0x1F LT PUSH3 0xB6C JUMPI DUP1 MLOAD PUSH1 0xFF NOT AND DUP4 DUP1 ADD OR DUP6 SSTORE PUSH3 0xB9C JUMP JUMPDEST DUP3 DUP1 ADD PUSH1 0x1 ADD DUP6 SSTORE DUP3 ISZERO PUSH3 0xB9C JUMPI SWAP2 DUP3 ADD JUMPDEST DUP3 DUP2 GT ISZERO PUSH3 0xB9C JUMPI DUP3 MLOAD DUP3 SSTORE SWAP2 PUSH1 0x20 ADD SWAP2 SWAP1 PUSH1 0x1 ADD SWAP1 PUSH3 0xB7F JUMP JUMPDEST POP PUSH3 0xBAA SWAP3 SWAP2 POP PUSH3 0xBAE JUMP JUMPDEST POP SWAP1 JUMP JUMPDEST JUMPDEST DUP1 DUP3 GT ISZERO PUSH3 0xBAA JUMPI PUSH1 0x0 DUP2 SSTORE PUSH1 0x1 ADD PUSH3 0xBAF JUMP JUMPDEST DUP1 MLOAD PUSH3 0x692 DUP2 PUSH3 0x1015 JUMP JUMPDEST PUSH1 0x0 DUP3 PUSH1 0x1F DUP4 ADD SLT PUSH3 0xBE3 JUMPI DUP1 DUP2 REVERT JUMPDEST DUP2 MLOAD PUSH1 0x20 PUSH3 0xBFC PUSH3 0xBF6 DUP4 PUSH3 0xFF7 JUMP JUMPDEST PUSH3 0xFD3 JUMP JUMPDEST DUP3 DUP2 MSTORE DUP2 DUP2 ADD SWAP1 DUP6 DUP4 ADD DUP4 DUP6 MUL DUP8 ADD DUP5 ADD DUP9 LT ISZERO PUSH3 0xC19 JUMPI DUP6 DUP7 REVERT JUMPDEST DUP6 JUMPDEST DUP6 DUP2 LT ISZERO PUSH3 0xC44 JUMPI DUP2 MLOAD PUSH3 0xC31 DUP2 PUSH3 0x1015 JUMP JUMPDEST DUP5 MSTORE SWAP3 DUP5 ADD SWAP3 SWAP1 DUP5 ADD SWAP1 PUSH1 0x1 ADD PUSH3 0xC1B JUMP JUMPDEST POP SWAP1 SWAP8 SWAP7 POP POP POP POP POP POP POP JUMP JUMPDEST PUSH1 0x0 DUP3 PUSH1 0x1F DUP4 ADD SLT PUSH3 0xC62 JUMPI DUP1 DUP2 REVERT JUMPDEST DUP2 MLOAD PUSH1 0x20 PUSH3 0xC75 PUSH3 0xBF6 DUP4 PUSH3 0xFF7 JUMP JUMPDEST DUP3 DUP2 MSTORE DUP2 DUP2 ADD SWAP1 DUP6 DUP4 ADD DUP4 DUP6 MUL DUP8 ADD DUP5 ADD DUP9 LT ISZERO PUSH3 0xC92 JUMPI DUP6 DUP7 REVERT JUMPDEST DUP6 JUMPDEST DUP6 DUP2 LT ISZERO PUSH3 0xC44 JUMPI DUP2 MLOAD DUP5 MSTORE SWAP3 DUP5 ADD SWAP3 SWAP1 DUP5 ADD SWAP1 PUSH1 0x1 ADD PUSH3 0xC94 JUMP JUMPDEST DUP1 MLOAD DUP1 ISZERO ISZERO DUP2 EQ PUSH3 0x692 JUMPI PUSH1 0x0 DUP1 REVERT JUMPDEST PUSH1 0x0 DUP3 PUSH1 0x1F DUP4 ADD SLT PUSH3 0xCD4 JUMPI DUP1 DUP2 REVERT JUMPDEST DUP2 MLOAD PUSH1 0x1 PUSH1 0x1 PUSH1 0x40 SHL SUB DUP2 GT ISZERO PUSH3 0xCE8 JUMPI INVALID JUMPDEST PUSH1 0x20 PUSH3 0xCFE PUSH1 0x1F DUP4 ADD PUSH1 0x1F NOT AND DUP3 ADD PUSH3 0xFD3 JUMP JUMPDEST DUP3 DUP2 MSTORE DUP6 DUP3 DUP5 DUP8 ADD ADD GT ISZERO PUSH3 0xD12 JUMPI DUP4 DUP5 REVERT JUMPDEST DUP4 JUMPDEST DUP4 DUP2 LT ISZERO PUSH3 0xD31 JUMPI DUP6 DUP2 ADD DUP4 ADD MLOAD DUP3 DUP3 ADD DUP5 ADD MSTORE DUP3 ADD PUSH3 0xD14 JUMP JUMPDEST DUP4 DUP2 GT ISZERO PUSH3 0xD42 JUMPI DUP5 DUP4 DUP6 DUP5 ADD ADD MSTORE JUMPDEST POP SWAP6 SWAP5 POP POP POP POP POP JUMP JUMPDEST PUSH1 0x0 PUSH1 0x20 DUP3 DUP5 SUB SLT ISZERO PUSH3 0xD5E JUMPI DUP1 DUP2 REVERT JUMPDEST POP MLOAD SWAP2 SWAP1 POP JUMP JUMPDEST PUSH1 0x0 DUP1 PUSH1 0x0 DUP1 PUSH1 0x0 DUP1 PUSH1 0x0 DUP1 PUSH1 0x0 DUP1 PUSH2 0x140 DUP12 DUP14 SUB SLT ISZERO PUSH3 0xD85 JUMPI DUP6 DUP7 REVERT JUMPDEST PUSH3 0xD90 DUP12 PUSH3 0xBC5 JUMP JUMPDEST PUSH1 0x20 DUP13 ADD MLOAD SWAP1 SWAP11 POP PUSH1 0x1 PUSH1 0x1 PUSH1 0x40 SHL SUB DUP1 DUP3 GT ISZERO PUSH3 0xDAD JUMPI DUP8 DUP9 REVERT JUMPDEST PUSH3 0xDBB DUP15 DUP4 DUP16 ADD PUSH3 0xCC3 JUMP JUMPDEST SWAP11 POP PUSH1 0x40 DUP14 ADD MLOAD SWAP2 POP DUP1 DUP3 GT ISZERO PUSH3 0xDD1 JUMPI DUP8 DUP9 REVERT JUMPDEST PUSH3 0xDDF DUP15 DUP4 DUP16 ADD PUSH3 0xCC3 JUMP JUMPDEST SWAP10 POP PUSH1 0x60 DUP14 ADD MLOAD SWAP2 POP DUP1 DUP3 GT ISZERO PUSH3 0xDF5 JUMPI DUP8 DUP9 REVERT JUMPDEST PUSH3 0xE03 DUP15 DUP4 DUP16 ADD PUSH3 0xBD2 JUMP JUMPDEST SWAP9 POP PUSH1 0x80 DUP14 ADD MLOAD SWAP2 POP DUP1 DUP3 GT ISZERO PUSH3 0xE19 JUMPI DUP8 DUP9 REVERT JUMPDEST POP PUSH3 0xE28 DUP14 DUP3 DUP15 ADD PUSH3 0xC51 JUMP JUMPDEST SWAP7 POP POP PUSH1 0xA0 DUP12 ADD MLOAD SWAP5 POP PUSH1 0xC0 DUP12 ADD MLOAD SWAP4 POP PUSH1 0xE0 DUP12 ADD MLOAD SWAP3 POP PUSH3 0xE4F PUSH2 0x100 DUP13 ADD PUSH3 0xBC5 JUMP JUMPDEST SWAP2 POP PUSH3 0xE60 PUSH2 0x120 DUP13 ADD PUSH3 0xCB2 JUMP JUMPDEST SWAP1 POP SWAP3 SWAP6 SWAP9 SWAP12 SWAP2 SWAP5 SWAP8 SWAP11 POP SWAP3 SWAP6 SWAP9 POP JUMP JUMPDEST PUSH1 0x0 PUSH1 0x20 DUP3 DUP5 SUB SLT ISZERO PUSH3 0xE83 JUMPI DUP1 DUP2 REVERT JUMPDEST DUP2 MLOAD PUSH1 0xFF DUP2 AND DUP2 EQ PUSH3 0xA2F JUMPI DUP2 DUP3 REVERT JUMPDEST PUSH1 0x0 DUP2 MLOAD DUP1 DUP5 MSTORE PUSH1 0x20 DUP1 DUP6 ADD SWAP5 POP DUP1 DUP5 ADD DUP4 JUMPDEST DUP4 DUP2 LT ISZERO PUSH3 0xEC5 JUMPI DUP2 MLOAD DUP8 MSTORE SWAP6 DUP3 ADD SWAP6 SWAP1 DUP3 ADD SWAP1 PUSH1 0x1 ADD PUSH3 0xEA7 JUMP JUMPDEST POP SWAP5 SWAP6 SWAP5 POP POP POP POP POP JUMP JUMPDEST SWAP1 ISZERO ISZERO DUP2 MSTORE PUSH1 0x20 ADD SWAP1 JUMP JUMPDEST PUSH1 0x0 PUSH1 0x60 DUP3 ADD DUP6 DUP4 MSTORE PUSH1 0x20 PUSH1 0x60 DUP2 DUP6 ADD MSTORE DUP2 DUP7 MLOAD DUP1 DUP5 MSTORE PUSH1 0x80 DUP7 ADD SWAP2 POP DUP3 DUP9 ADD SWAP4 POP DUP5 JUMPDEST DUP2 DUP2 LT ISZERO PUSH3 0xF26 JUMPI DUP5 MLOAD PUSH1 0x1 PUSH1 0x1 PUSH1 0xA0 SHL SUB AND DUP4 MSTORE SWAP4 DUP4 ADD SWAP4 SWAP2 DUP4 ADD SWAP2 PUSH1 0x1 ADD PUSH3 0xEFF JUMP JUMPDEST POP POP DUP5 DUP2 SUB PUSH1 0x40 DUP7 ADD MSTORE DUP6 MLOAD DUP1 DUP3 MSTORE SWAP1 DUP3 ADD SWAP3 POP DUP2 DUP7 ADD SWAP1 DUP5 JUMPDEST DUP2 DUP2 LT ISZERO PUSH3 0xF67 JUMPI DUP3 MLOAD PUSH1 0x1 PUSH1 0x1 PUSH1 0xA0 SHL SUB AND DUP6 MSTORE SWAP4 DUP4 ADD SWAP4 SWAP2 DUP4 ADD SWAP2 PUSH1 0x1 ADD PUSH3 0xF40 JUMP JUMPDEST POP SWAP3 SWAP9 SWAP8 POP POP POP POP POP POP POP POP JUMP JUMPDEST PUSH1 0x20 DUP2 ADD PUSH1 0x3 DUP4 LT PUSH3 0xF84 JUMPI INVALID JUMPDEST SWAP2 SWAP1 MSTORE SWAP1 JUMP JUMPDEST SWAP1 DUP2 MSTORE PUSH1 0x20 ADD SWAP1 JUMP JUMPDEST PUSH1 0x0 DUP6 DUP3 MSTORE DUP5 PUSH1 0x20 DUP4 ADD MSTORE PUSH1 0x80 PUSH1 0x40 DUP4 ADD MSTORE PUSH3 0xFB4 PUSH1 0x80 DUP4 ADD DUP6 PUSH3 0xE94 JUMP JUMPDEST DUP3 DUP2 SUB PUSH1 0x60 DUP5 ADD MSTORE PUSH3 0xFC8 DUP2 DUP6 PUSH3 0xE94 JUMP JUMPDEST SWAP8 SWAP7 POP POP POP POP POP POP POP JUMP JUMPDEST PUSH1 0x40 MLOAD DUP2 DUP2 ADD PUSH1 0x1 PUSH1 0x1 PUSH1 0x40 SHL SUB DUP2 GT DUP3 DUP3 LT OR ISZERO PUSH3 0xFEF JUMPI INVALID JUMPDEST PUSH1 0x40 MSTORE SWAP2 SWAP1 POP JUMP JUMPDEST PUSH1 0x0 PUSH1 0x1 PUSH1 0x1 PUSH1 0x40 SHL SUB DUP3 GT ISZERO PUSH3 0x100B JUMPI INVALID JUMPDEST POP PUSH1 0x20 SWAP1 DUP2 MUL ADD SWAP1 JUMP JUMPDEST PUSH1 0x1 PUSH1 0x1 PUSH1 0xA0 SHL SUB DUP2 AND DUP2 EQ PUSH3 0x956 JUMPI PUSH1 0x0 DUP1 REVERT JUMPDEST PUSH1 0x80 MLOAD PUSH1 0xA0 MLOAD PUSH1 0x60 SHR PUSH1 0xC0 MLOAD PUSH1 0xE0 MLOAD PUSH2 0x100 MLOAD PUSH2 0x120 MLOAD PUSH2 0x140 MLOAD PUSH2 0x160 MLOAD PUSH2 0x180 MLOAD PUSH1 0x60 SHR PUSH2 0x1A0 MLOAD PUSH2 0x1C0 MLOAD PUSH2 0x1E0 MLOAD PUSH1 0x60 SHR PUSH2 0x200 MLOAD PUSH1 0x60 SHR PUSH2 0x220 MLOAD PUSH1 0x60 SHR PUSH2 0x240 MLOAD PUSH1 0x60 SHR PUSH2 0x260 MLOAD PUSH2 0x280 MLOAD PUSH2 0x2A0 MLOAD PUSH2 0x2C0 MLOAD PUSH2 0x4B79 PUSH3 0x1131 PUSH1 0x0 CODECOPY DUP1 PUSH2 0x120A MSTORE DUP1 PUSH2 0x1D81 MSTORE POP DUP1 PUSH2 0x11C7 MSTORE DUP1 PUSH2 0x1D20 MSTORE POP DUP1 PUSH2 0x1184 MSTORE DUP1 PUSH2 0x1CBF MSTORE POP DUP1 PUSH2 0x1133 MSTORE DUP1 PUSH2 0x1C5E MSTORE POP DUP1 PUSH2 0x1D46 MSTORE DUP1 PUSH2 0x2C9A MSTORE POP DUP1 PUSH2 0x1CE5 MSTORE DUP1 PUSH2 0x2C58 MSTORE POP DUP1 PUSH2 0x1C84 MSTORE DUP1 PUSH2 0x2C16 MSTORE POP DUP1 PUSH2 0x1C23 MSTORE DUP1 PUSH2 0x2BD4 MSTORE POP DUP1 PUSH2 0x146E MSTORE POP DUP1 PUSH2 0x67A MSTORE POP DUP1 PUSH2 0x998 MSTORE POP DUP1 PUSH2 0x10B6 MSTORE POP DUP1 PUSH2 0x1092 MSTORE POP DUP1 PUSH2 0xC56 MSTORE POP DUP1 PUSH2 0x133A MSTORE POP DUP1 PUSH2 0x137C MSTORE POP DUP1 PUSH2 0x135B MSTORE POP DUP1 PUSH2 0x974 MSTORE POP DUP1 PUSH2 0x8FE MSTORE POP PUSH2 0x4B79 PUSH1 0x0 RETURN INVALID PUSH1 0x80 PUSH1 0x40 MSTORE CALLVALUE DUP1 ISZERO PUSH2 0x10 JUMPI PUSH1 0x0 DUP1 REVERT JUMPDEST POP PUSH1 0x4 CALLDATASIZE LT PUSH2 0x232 JUMPI PUSH1 0x0 CALLDATALOAD PUSH1 0xE0 SHR DUP1 PUSH4 0x74F3B009 GT PUSH2 0x130 JUMPI DUP1 PUSH4 0x9D2C110C GT PUSH2 0xB8 JUMPI DUP1 PUSH4 0xD505ACCF GT PUSH2 0x7C JUMPI DUP1 PUSH4 0xD505ACCF EQ PUSH2 0x482 JUMPI DUP1 PUSH4 0xD5C096C4 EQ PUSH2 0x495 JUMPI DUP1 PUSH4 0xDD62ED3E EQ PUSH2 0x4A8 JUMPI DUP1 PUSH4 0xE01AF92C EQ PUSH2 0x4BB JUMPI DUP1 PUSH4 0xF89F27ED EQ PUSH2 0x4CE JUMPI PUSH2 0x232 JUMP JUMPDEST DUP1 PUSH4 0x9D2C110C EQ PUSH2 0x439 JUMPI DUP1 PUSH4 0xA457C2D7 EQ PUSH2 0x44C JUMPI DUP1 PUSH4 0xA9059CBB EQ PUSH2 0x45F JUMPI DUP1 PUSH4 0xAAABADC5 EQ PUSH2 0x472 JUMPI DUP1 PUSH4 0xC0FF1A15 EQ PUSH2 0x47A JUMPI PUSH2 0x232 JUMP JUMPDEST DUP1 PUSH4 0x87EC6817 GT PUSH2 0xFF JUMPI DUP1 PUSH4 0x87EC6817 EQ PUSH2 0x3F9 JUMPI DUP1 PUSH4 0x893D20E8 EQ PUSH2 0x40C JUMPI DUP1 PUSH4 0x8D928AF8 EQ PUSH2 0x421 JUMPI DUP1 PUSH4 0x95D89B41 EQ PUSH2 0x429 JUMPI DUP1 PUSH4 0x9B02CDDE EQ PUSH2 0x431 JUMPI PUSH2 0x232 JUMP JUMPDEST DUP1 PUSH4 0x74F3B009 EQ PUSH2 0x39B JUMPI DUP1 PUSH4 0x7BEED220 EQ PUSH2 0x3BC JUMPI DUP1 PUSH4 0x7ECEBE00 EQ PUSH2 0x3D3 JUMPI DUP1 PUSH4 0x851C1BB3 EQ PUSH2 0x3E6 JUMPI PUSH2 0x232 JUMP JUMPDEST DUP1 PUSH4 0x38E9922E GT PUSH2 0x1BE JUMPI DUP1 PUSH4 0x50DD6ED9 GT PUSH2 0x182 JUMPI DUP1 PUSH4 0x50DD6ED9 EQ PUSH2 0x344 JUMPI DUP1 PUSH4 0x55C67628 EQ PUSH2 0x357 JUMPI DUP1 PUSH4 0x6028BFD4 EQ PUSH2 0x35F JUMPI DUP1 PUSH4 0x679AEFCE EQ PUSH2 0x380 JUMPI DUP1 PUSH4 0x70A08231 EQ PUSH2 0x388 JUMPI PUSH2 0x232 JUMP JUMPDEST DUP1 PUSH4 0x38E9922E EQ PUSH2 0x2FB JUMPI DUP1 PUSH4 0x38FFF2D0 EQ PUSH2 0x30E JUMPI DUP1 PUSH4 0x39509351 EQ PUSH2 0x316 JUMPI DUP1 PUSH4 0x3E569205 EQ PUSH2 0x329 JUMPI DUP1 PUSH4 0x47BC4D92 EQ PUSH2 0x33C JUMPI PUSH2 0x232 JUMP JUMPDEST DUP1 PUSH4 0x1C0DE051 GT PUSH2 0x205 JUMPI DUP1 PUSH4 0x1C0DE051 EQ PUSH2 0x29F JUMPI DUP1 PUSH4 0x1DD746EA EQ PUSH2 0x2B6 JUMPI DUP1 PUSH4 0x23B872DD EQ PUSH2 0x2CB JUMPI DUP1 PUSH4 0x313CE567 EQ PUSH2 0x2DE JUMPI DUP1 PUSH4 0x3644E515 EQ PUSH2 0x2F3 JUMPI PUSH2 0x232 JUMP JUMPDEST DUP1 PUSH4 0x6FDDE03 EQ PUSH2 0x237 JUMPI DUP1 PUSH4 0x95EA7B3 EQ PUSH2 0x255 JUMPI DUP1 PUSH4 0x16C38B3C EQ PUSH2 0x275 JUMPI DUP1 PUSH4 0x18160DDD EQ PUSH2 0x28A JUMPI JUMPDEST PUSH1 0x0 DUP1 REVERT JUMPDEST PUSH2 0x23F PUSH2 0x4D6 JUMP JUMPDEST PUSH1 0x40 MLOAD PUSH2 0x24C SWAP2 SWAP1 PUSH2 0x4A49 JUMP JUMPDEST PUSH1 0x40 MLOAD DUP1 SWAP2 SUB SWAP1 RETURN JUMPDEST PUSH2 0x268 PUSH2 0x263 CALLDATASIZE PUSH1 0x4 PUSH2 0x4337 JUMP JUMPDEST PUSH2 0x56D JUMP JUMPDEST PUSH1 0x40 MLOAD PUSH2 0x24C SWAP2 SWAP1 PUSH2 0x4950 JUMP JUMPDEST PUSH2 0x288 PUSH2 0x283 CALLDATASIZE PUSH1 0x4 PUSH2 0x442D JUMP JUMPDEST PUSH2 0x584 JUMP JUMPDEST STOP JUMPDEST PUSH2 0x292 PUSH2 0x598 JUMP JUMPDEST PUSH1 0x40 MLOAD PUSH2 0x24C SWAP2 SWAP1 PUSH2 0x4973 JUMP JUMPDEST PUSH2 0x2A7 PUSH2 0x59E JUMP JUMPDEST PUSH1 0x40 MLOAD PUSH2 0x24C SWAP4 SWAP3 SWAP2 SWAP1 PUSH2 0x495B JUMP JUMPDEST PUSH2 0x2BE PUSH2 0x5C7 JUMP JUMPDEST PUSH1 0x40 MLOAD PUSH2 0x24C SWAP2 SWAP1 PUSH2 0x4918 JUMP JUMPDEST PUSH2 0x268 PUSH2 0x2D9 CALLDATASIZE PUSH1 0x4 PUSH2 0x4282 JUMP JUMPDEST PUSH2 0x5D6 JUMP JUMPDEST PUSH2 0x2E6 PUSH2 0x64C JUMP JUMPDEST PUSH1 0x40 MLOAD PUSH2 0x24C SWAP2 SWAP1 PUSH2 0x4AC5 JUMP JUMPDEST PUSH2 0x292 PUSH2 0x655 JUMP JUMPDEST PUSH2 0x288 PUSH2 0x309 CALLDATASIZE PUSH1 0x4 PUSH2 0x4797 JUMP JUMPDEST PUSH2 0x65F JUMP JUMPDEST PUSH2 0x292 PUSH2 0x678 JUMP JUMPDEST PUSH2 0x268 PUSH2 0x324 CALLDATASIZE PUSH1 0x4 PUSH2 0x4337 JUMP JUMPDEST PUSH2 0x69C JUMP JUMPDEST PUSH2 0x288 PUSH2 0x337 CALLDATASIZE PUSH1 0x4 PUSH2 0x47AF JUMP JUMPDEST PUSH2 0x6D7 JUMP JUMPDEST PUSH2 0x268 PUSH2 0x73E JUMP JUMPDEST PUSH2 0x288 PUSH2 0x352 CALLDATASIZE PUSH1 0x4 PUSH2 0x454B JUMP JUMPDEST PUSH2 0x74E JUMP JUMPDEST PUSH2 0x292 PUSH2 0x76C JUMP JUMPDEST PUSH2 0x372 PUSH2 0x36D CALLDATASIZE PUSH1 0x4 PUSH2 0x4465 JUMP JUMPDEST PUSH2 0x77D JUMP JUMPDEST PUSH1 0x40 MLOAD PUSH2 0x24C SWAP3 SWAP2 SWAP1 PUSH2 0x4A5C JUMP JUMPDEST PUSH2 0x292 PUSH2 0x7B4 JUMP JUMPDEST PUSH2 0x292 PUSH2 0x396 CALLDATASIZE PUSH1 0x4 PUSH2 0x422E JUMP JUMPDEST PUSH2 0x7DF JUMP JUMPDEST PUSH2 0x3AE PUSH2 0x3A9 CALLDATASIZE PUSH1 0x4 PUSH2 0x4465 JUMP JUMPDEST PUSH2 0x7FE JUMP JUMPDEST PUSH1 0x40 MLOAD PUSH2 0x24C SWAP3 SWAP2 SWAP1 PUSH2 0x492B JUMP JUMPDEST PUSH2 0x3C4 PUSH2 0x821 JUMP JUMPDEST PUSH1 0x40 MLOAD PUSH2 0x24C SWAP4 SWAP3 SWAP2 SWAP1 PUSH2 0x4A75 JUMP JUMPDEST PUSH2 0x292 PUSH2 0x3E1 CALLDATASIZE PUSH1 0x4 PUSH2 0x422E JUMP JUMPDEST PUSH2 0x8DF JUMP JUMPDEST PUSH2 0x292 PUSH2 0x3F4 CALLDATASIZE PUSH1 0x4 PUSH2 0x4507 JUMP JUMPDEST PUSH2 0x8FA JUMP JUMPDEST PUSH2 0x372 PUSH2 0x407 CALLDATASIZE PUSH1 0x4 PUSH2 0x4465 JUMP JUMPDEST PUSH2 0x94C JUMP JUMPDEST PUSH2 0x414 PUSH2 0x972 JUMP JUMPDEST PUSH1 0x40 MLOAD PUSH2 0x24C SWAP2 SWAP1 PUSH2 0x4904 JUMP JUMPDEST PUSH2 0x414 PUSH2 0x996 JUMP JUMPDEST PUSH2 0x23F PUSH2 0x9BA JUMP JUMPDEST PUSH2 0x292 PUSH2 0xA1B JUMP JUMPDEST PUSH2 0x292 PUSH2 0x447 CALLDATASIZE PUSH1 0x4 PUSH2 0x46A1 JUMP JUMPDEST PUSH2 0xA21 JUMP JUMPDEST PUSH2 0x268 PUSH2 0x45A CALLDATASIZE PUSH1 0x4 PUSH2 0x4337 JUMP JUMPDEST PUSH2 0xB08 JUMP JUMPDEST PUSH2 0x268 PUSH2 0x46D CALLDATASIZE PUSH1 0x4 PUSH2 0x4337 JUMP JUMPDEST PUSH2 0xB46 JUMP JUMPDEST PUSH2 0x414 PUSH2 0xB53 JUMP JUMPDEST PUSH2 0x292 PUSH2 0xB5D JUMP JUMPDEST PUSH2 0x288 PUSH2 0x490 CALLDATASIZE PUSH1 0x4 PUSH2 0x42C2 JUMP JUMPDEST PUSH2 0xC21 JUMP JUMPDEST PUSH2 0x3AE PUSH2 0x4A3 CALLDATASIZE PUSH1 0x4 PUSH2 0x4465 JUMP JUMPDEST PUSH2 0xD6A JUMP JUMPDEST PUSH2 0x292 PUSH2 0x4B6 CALLDATASIZE PUSH1 0x4 PUSH2 0x424A JUMP JUMPDEST PUSH2 0xD7D JUMP JUMPDEST PUSH2 0x288 PUSH2 0x4C9 CALLDATASIZE PUSH1 0x4 PUSH2 0x442D JUMP JUMPDEST PUSH2 0xDA8 JUMP JUMPDEST PUSH2 0x2BE PUSH2 0xDD1 JUMP JUMPDEST PUSH1 0x3 DUP1 SLOAD PUSH1 0x40 DUP1 MLOAD PUSH1 0x20 PUSH1 0x1F PUSH1 0x2 PUSH1 0x0 NOT PUSH2 0x100 PUSH1 0x1 DUP9 AND ISZERO MUL ADD SWAP1 SWAP6 AND SWAP5 SWAP1 SWAP5 DIV SWAP4 DUP5 ADD DUP2 SWAP1 DIV DUP2 MUL DUP3 ADD DUP2 ADD SWAP1 SWAP3 MSTORE DUP3 DUP2 MSTORE PUSH1 0x60 SWAP4 SWAP1 SWAP3 SWAP1 SWAP2 DUP4 ADD DUP3 DUP3 DUP1 ISZERO PUSH2 0x562 JUMPI DUP1 PUSH1 0x1F LT PUSH2 0x537 JUMPI PUSH2 0x100 DUP1 DUP4 SLOAD DIV MUL DUP4 MSTORE SWAP2 PUSH1 0x20 ADD SWAP2 PUSH2 0x562 JUMP JUMPDEST DUP3 ADD SWAP2 SWAP1 PUSH1 0x0 MSTORE PUSH1 0x20 PUSH1 0x0 KECCAK256 SWAP1 JUMPDEST DUP2 SLOAD DUP2 MSTORE SWAP1 PUSH1 0x1 ADD SWAP1 PUSH1 0x20 ADD DUP1 DUP4 GT PUSH2 0x545 JUMPI DUP3 SWAP1 SUB PUSH1 0x1F AND DUP3 ADD SWAP2 JUMPDEST POP POP POP POP POP SWAP1 POP JUMPDEST SWAP1 JUMP JUMPDEST PUSH1 0x0 PUSH2 0x57A CALLER DUP5 DUP5 PUSH2 0xF5F JUMP JUMPDEST POP PUSH1 0x1 JUMPDEST SWAP3 SWAP2 POP POP JUMP JUMPDEST PUSH2 0x58C PUSH2 0xFC7 JUMP JUMPDEST PUSH2 0x595 DUP2 PUSH2 0xFF5 JUMP JUMPDEST POP JUMP JUMPDEST PUSH1 0x2 SLOAD SWAP1 JUMP JUMPDEST PUSH1 0x0 DUP1 PUSH1 0x0 PUSH2 0x5AB PUSH2 0x1073 JUMP JUMPDEST ISZERO SWAP3 POP PUSH2 0x5B6 PUSH2 0x1090 JUMP JUMPDEST SWAP2 POP PUSH2 0x5C0 PUSH2 0x10B4 JUMP JUMPDEST SWAP1 POP SWAP1 SWAP2 SWAP3 JUMP JUMPDEST PUSH1 0x60 PUSH2 0x5D1 PUSH2 0x10D8 JUMP JUMPDEST SWAP1 POP SWAP1 JUMP JUMPDEST PUSH1 0x0 DUP1 PUSH2 0x5E3 DUP6 CALLER PUSH2 0xD7D JUMP JUMPDEST SWAP1 POP PUSH2 0x607 CALLER PUSH1 0x1 PUSH1 0x1 PUSH1 0xA0 SHL SUB DUP8 AND EQ DUP1 PUSH2 0x5FF JUMPI POP DUP4 DUP3 LT ISZERO JUMPDEST PUSH2 0x19E PUSH2 0x1248 JUMP JUMPDEST PUSH2 0x612 DUP6 DUP6 DUP6 PUSH2 0x1256 JUMP JUMPDEST CALLER PUSH1 0x1 PUSH1 0x1 PUSH1 0xA0 SHL SUB DUP7 AND EQ DUP1 ISZERO SWAP1 PUSH2 0x62D JUMPI POP PUSH1 0x0 NOT DUP2 EQ ISZERO JUMPDEST ISZERO PUSH2 0x63F JUMPI PUSH2 0x63F DUP6 CALLER DUP6 DUP5 SUB PUSH2 0xF5F JUMP JUMPDEST PUSH1 0x1 SWAP2 POP POP JUMPDEST SWAP4 SWAP3 POP POP POP JUMP JUMPDEST PUSH1 0x5 SLOAD PUSH1 0xFF AND SWAP1 JUMP JUMPDEST PUSH1 0x0 PUSH2 0x5D1 PUSH2 0x1336 JUMP JUMPDEST PUSH2 0x667 PUSH2 0xFC7 JUMP JUMPDEST PUSH2 0x66F PUSH2 0x13D3 JUMP JUMPDEST PUSH2 0x595 DUP2 PUSH2 0x13E8 JUMP JUMPDEST PUSH32 0x0 SWAP1 JUMP JUMPDEST CALLER PUSH1 0x0 DUP2 DUP2 MSTORE PUSH1 0x1 PUSH1 0x20 SWAP1 DUP2 MSTORE PUSH1 0x40 DUP1 DUP4 KECCAK256 PUSH1 0x1 PUSH1 0x1 PUSH1 0xA0 SHL SUB DUP8 AND DUP5 MSTORE SWAP1 SWAP2 MSTORE DUP2 KECCAK256 SLOAD SWAP1 SWAP2 PUSH2 0x57A SWAP2 DUP6 SWAP1 PUSH2 0x6D2 SWAP1 DUP7 PUSH2 0xE7B JUMP JUMPDEST PUSH2 0xF5F JUMP JUMPDEST PUSH2 0x6DF PUSH2 0xFC7 JUMP JUMPDEST PUSH2 0x6E7 PUSH2 0x13D3 JUMP JUMPDEST PUSH2 0x6EF PUSH2 0x1453 JUMP JUMPDEST PUSH2 0x701 PUSH2 0x6FA PUSH2 0x146C JUMP JUMPDEST DUP3 MLOAD PUSH2 0xDE5 JUMP JUMPDEST TIMESTAMP PUSH2 0x70C DUP2 DUP6 PUSH2 0x1490 JUMP JUMPDEST SWAP4 POP PUSH2 0x71D DUP4 DUP6 GT ISZERO PUSH2 0x146 PUSH2 0x1248 JUMP JUMPDEST PUSH2 0x730 DUP5 DUP5 PUSH2 0x72A PUSH2 0x14A7 JUMP JUMPDEST DUP6 PUSH2 0x15BA JUMP JUMPDEST POP PUSH2 0x739 PUSH2 0x16CF JUMP JUMPDEST POP POP POP JUMP JUMPDEST PUSH1 0xB SLOAD PUSH1 0x0 SWAP1 PUSH2 0x5D1 SWAP1 DUP3 PUSH2 0x16D6 JUMP JUMPDEST PUSH2 0x756 PUSH2 0xFC7 JUMP JUMPDEST PUSH2 0x75E PUSH2 0x13D3 JUMP JUMPDEST PUSH2 0x768 DUP3 DUP3 PUSH2 0x16E0 JUMP JUMPDEST POP POP JUMP JUMPDEST PUSH1 0x8 SLOAD PUSH1 0x0 SWAP1 PUSH2 0x5D1 SWAP1 PUSH1 0xC0 PUSH2 0x17DF JUMP JUMPDEST PUSH1 0x0 PUSH1 0x60 PUSH2 0x793 DUP7 MLOAD PUSH2 0x78E PUSH2 0x146C JUMP JUMPDEST PUSH2 0xDE5 JUMP JUMPDEST PUSH2 0x7A8 DUP10 DUP10 DUP10 DUP10 DUP10 DUP10 DUP10 PUSH2 0x17EC PUSH2 0x18BA PUSH2 0x191B JUMP JUMPDEST SWAP8 POP SWAP8 SWAP6 POP POP POP POP POP POP JUMP JUMPDEST PUSH1 0x0 PUSH2 0x5D1 PUSH2 0x7C1 PUSH2 0x598 JUMP JUMPDEST PUSH2 0x7D9 PUSH2 0x7CC PUSH2 0xB5D JUMP JUMPDEST PUSH2 0x7D4 PUSH2 0x146C JUMP JUMPDEST PUSH2 0x1A3D JUMP JUMPDEST SWAP1 PUSH2 0x1A57 JUMP JUMPDEST PUSH1 0x1 PUSH1 0x1 PUSH1 0xA0 SHL SUB DUP2 AND PUSH1 0x0 SWAP1 DUP2 MSTORE PUSH1 0x20 DUP2 SWAP1 MSTORE PUSH1 0x40 SWAP1 KECCAK256 SLOAD JUMPDEST SWAP2 SWAP1 POP JUMP JUMPDEST PUSH1 0x60 DUP1 PUSH2 0x811 DUP10 DUP10 DUP10 DUP10 DUP10 PUSH1 0x0 DUP10 PUSH2 0x1A9F JUMP JUMPDEST SWAP2 POP SWAP2 POP SWAP8 POP SWAP8 SWAP6 POP POP POP POP POP POP JUMP JUMPDEST PUSH1 0xB SLOAD PUSH1 0x0 SWAP1 DUP2 SWAP1 PUSH1 0x60 SWAP1 PUSH2 0x837 DUP2 PUSH1 0xC0 PUSH2 0x1B42 JUMP JUMPDEST SWAP4 POP PUSH2 0x844 DUP2 PUSH1 0xE0 PUSH2 0x1B42 JUMP JUMPDEST SWAP3 POP PUSH1 0x0 PUSH2 0x850 PUSH2 0x146C JUMP JUMPDEST SWAP1 POP DUP1 PUSH1 0x1 PUSH1 0x1 PUSH1 0x40 SHL SUB DUP2 GT DUP1 ISZERO PUSH2 0x868 JUMPI PUSH1 0x0 DUP1 REVERT JUMPDEST POP PUSH1 0x40 MLOAD SWAP1 DUP1 DUP3 MSTORE DUP1 PUSH1 0x20 MUL PUSH1 0x20 ADD DUP3 ADD PUSH1 0x40 MSTORE DUP1 ISZERO PUSH2 0x892 JUMPI DUP2 PUSH1 0x20 ADD PUSH1 0x20 DUP3 MUL DUP1 CALLDATASIZE DUP4 CALLDATACOPY ADD SWAP1 POP JUMPDEST POP SWAP3 POP PUSH1 0x0 JUMPDEST DUP2 DUP2 LT ISZERO PUSH2 0x8D7 JUMPI PUSH2 0x8B8 PUSH2 0x8B3 DUP5 PUSH1 0x80 PUSH1 0x10 DUP6 MUL ADD PUSH2 0x1B4C JUMP JUMPDEST PUSH2 0x1B54 JUMP JUMPDEST DUP5 DUP3 DUP2 MLOAD DUP2 LT PUSH2 0x8C4 JUMPI INVALID JUMPDEST PUSH1 0x20 SWAP1 DUP2 MUL SWAP2 SWAP1 SWAP2 ADD ADD MSTORE PUSH1 0x1 ADD PUSH2 0x898 JUMP JUMPDEST POP POP POP SWAP1 SWAP2 SWAP3 JUMP JUMPDEST PUSH1 0x1 PUSH1 0x1 PUSH1 0xA0 SHL SUB AND PUSH1 0x0 SWAP1 DUP2 MSTORE PUSH1 0x6 PUSH1 0x20 MSTORE PUSH1 0x40 SWAP1 KECCAK256 SLOAD SWAP1 JUMP JUMPDEST PUSH1 0x0 PUSH32 0x0 DUP3 PUSH1 0x40 MLOAD PUSH1 0x20 ADD PUSH2 0x92F SWAP3 SWAP2 SWAP1 PUSH2 0x48C1 JUMP JUMPDEST PUSH1 0x40 MLOAD PUSH1 0x20 DUP2 DUP4 SUB SUB DUP2 MSTORE SWAP1 PUSH1 0x40 MSTORE DUP1 MLOAD SWAP1 PUSH1 0x20 ADD KECCAK256 SWAP1 POP SWAP2 SWAP1 POP JUMP JUMPDEST PUSH1 0x0 PUSH1 0x60 PUSH2 0x95D DUP7 MLOAD PUSH2 0x78E PUSH2 0x146C JUMP JUMPDEST PUSH2 0x7A8 DUP10 DUP10 DUP10 DUP10 DUP10 DUP10 DUP10 PUSH2 0x1B6E PUSH2 0x1BBE PUSH2 0x191B JUMP JUMPDEST PUSH32 0x0 SWAP1 JUMP JUMPDEST PUSH32 0x0 SWAP1 JUMP JUMPDEST PUSH1 0x4 DUP1 SLOAD PUSH1 0x40 DUP1 MLOAD PUSH1 0x20 PUSH1 0x1F PUSH1 0x2 PUSH1 0x0 NOT PUSH2 0x100 PUSH1 0x1 DUP9 AND ISZERO MUL ADD SWAP1 SWAP6 AND SWAP5 SWAP1 SWAP5 DIV SWAP4 DUP5 ADD DUP2 SWAP1 DIV DUP2 MUL DUP3 ADD DUP2 ADD SWAP1 SWAP3 MSTORE DUP3 DUP2 MSTORE PUSH1 0x60 SWAP4 SWAP1 SWAP3 SWAP1 SWAP2 DUP4 ADD DUP3 DUP3 DUP1 ISZERO PUSH2 0x562 JUMPI DUP1 PUSH1 0x1F LT PUSH2 0x537 JUMPI PUSH2 0x100 DUP1 DUP4 SLOAD DIV MUL DUP4 MSTORE SWAP2 PUSH1 0x20 ADD SWAP2 PUSH2 0x562 JUMP JUMPDEST PUSH1 0x9 SLOAD SWAP1 JUMP JUMPDEST PUSH1 0x0 DUP1 PUSH2 0xA31 DUP6 PUSH1 0x20 ADD MLOAD PUSH2 0x1C1F JUMP JUMPDEST SWAP1 POP PUSH1 0x0 PUSH2 0xA42 DUP7 PUSH1 0x40 ADD MLOAD PUSH2 0x1C1F JUMP JUMPDEST SWAP1 POP PUSH1 0x0 DUP7 MLOAD PUSH1 0x1 DUP2 GT ISZERO PUSH2 0xA53 JUMPI INVALID JUMPDEST EQ ISZERO PUSH2 0xAB9 JUMPI PUSH2 0xA66 DUP7 PUSH1 0x60 ADD MLOAD PUSH2 0x1DB0 JUMP JUMPDEST PUSH1 0x60 DUP8 ADD MSTORE PUSH2 0xA75 DUP6 DUP4 PUSH2 0x1DD1 JUMP JUMPDEST SWAP5 POP PUSH2 0xA81 DUP5 DUP3 PUSH2 0x1DD1 JUMP JUMPDEST SWAP4 POP PUSH2 0xA91 DUP7 PUSH1 0x60 ADD MLOAD DUP4 PUSH2 0x1DD1 JUMP JUMPDEST PUSH1 0x60 DUP8 ADD MSTORE PUSH1 0x0 PUSH2 0xAA3 DUP8 DUP8 DUP8 PUSH2 0x1DDD JUMP JUMPDEST SWAP1 POP PUSH2 0xAAF DUP2 DUP4 PUSH2 0x1E05 JUMP JUMPDEST SWAP4 POP POP POP POP PUSH2 0x645 JUMP JUMPDEST PUSH2 0xAC3 DUP6 DUP4 PUSH2 0x1DD1 JUMP JUMPDEST SWAP5 POP PUSH2 0xACF DUP5 DUP3 PUSH2 0x1DD1 JUMP JUMPDEST SWAP4 POP PUSH2 0xADF DUP7 PUSH1 0x60 ADD MLOAD DUP3 PUSH2 0x1DD1 JUMP JUMPDEST PUSH1 0x60 DUP8 ADD MSTORE PUSH1 0x0 PUSH2 0xAF1 DUP8 DUP8 DUP8 PUSH2 0x1E11 JUMP JUMPDEST SWAP1 POP PUSH2 0xAFD DUP2 DUP5 PUSH2 0x1E29 JUMP JUMPDEST SWAP1 POP PUSH2 0xAAF DUP2 PUSH2 0x1E35 JUMP JUMPDEST PUSH1 0x0 DUP1 PUSH2 0xB15 CALLER DUP6 PUSH2 0xD7D JUMP JUMPDEST SWAP1 POP DUP1 DUP4 LT PUSH2 0xB2F JUMPI PUSH2 0xB2A CALLER DUP6 PUSH1 0x0 PUSH2 0xF5F JUMP JUMPDEST PUSH2 0xB3C JUMP JUMPDEST PUSH2 0xB3C CALLER DUP6 DUP6 DUP5 SUB PUSH2 0xF5F JUMP JUMPDEST POP PUSH1 0x1 SWAP4 SWAP3 POP POP POP JUMP JUMPDEST PUSH1 0x0 PUSH2 0x57A CALLER DUP5 DUP5 PUSH2 0x1256 JUMP JUMPDEST PUSH1 0x0 PUSH2 0x5D1 PUSH2 0x1E5B JUMP JUMPDEST PUSH1 0x0 DUP1 PUSH2 0xB68 PUSH2 0x996 JUMP JUMPDEST PUSH1 0x1 PUSH1 0x1 PUSH1 0xA0 SHL SUB AND PUSH4 0xF94D4668 PUSH2 0xB7E PUSH2 0x678 JUMP JUMPDEST PUSH1 0x40 MLOAD DUP3 PUSH4 0xFFFFFFFF AND PUSH1 0xE0 SHL DUP2 MSTORE PUSH1 0x4 ADD PUSH2 0xB9A SWAP2 SWAP1 PUSH2 0x4973 JUMP JUMPDEST PUSH1 0x0 PUSH1 0x40 MLOAD DUP1 DUP4 SUB DUP2 DUP7 DUP1 EXTCODESIZE ISZERO DUP1 ISZERO PUSH2 0xBB2 JUMPI PUSH1 0x0 DUP1 REVERT JUMPDEST POP GAS STATICCALL ISZERO DUP1 ISZERO PUSH2 0xBC6 JUMPI RETURNDATASIZE PUSH1 0x0 DUP1 RETURNDATACOPY RETURNDATASIZE PUSH1 0x0 REVERT JUMPDEST POP POP POP POP PUSH1 0x40 MLOAD RETURNDATASIZE PUSH1 0x0 DUP3 RETURNDATACOPY PUSH1 0x1F RETURNDATASIZE SWAP1 DUP2 ADD PUSH1 0x1F NOT AND DUP3 ADD PUSH1 0x40 MSTORE PUSH2 0xBEE SWAP2 SWAP1 DUP2 ADD SWAP1 PUSH2 0x4362 JUMP JUMPDEST POP SWAP2 POP POP PUSH2 0xC03 DUP2 PUSH2 0xBFE PUSH2 0x10D8 JUMP JUMPDEST PUSH2 0x1ED5 JUMP JUMPDEST PUSH1 0x0 PUSH2 0xC0D PUSH2 0x1F36 JUMP JUMPDEST POP SWAP1 POP PUSH2 0xC1A DUP2 DUP4 PUSH2 0x1FB4 JUMP JUMPDEST SWAP3 POP POP POP SWAP1 JUMP JUMPDEST PUSH2 0xC2F DUP5 TIMESTAMP GT ISZERO PUSH1 0xD1 PUSH2 0x1248 JUMP JUMPDEST PUSH1 0x1 PUSH1 0x1 PUSH1 0xA0 SHL SUB DUP8 AND PUSH1 0x0 SWAP1 DUP2 MSTORE PUSH1 0x6 PUSH1 0x20 SWAP1 DUP2 MSTORE PUSH1 0x40 DUP1 DUP4 KECCAK256 SLOAD SWAP1 MLOAD SWAP1 SWAP3 SWAP2 PUSH2 0xC86 SWAP2 PUSH32 0x0 SWAP2 DUP13 SWAP2 DUP13 SWAP2 DUP13 SWAP2 DUP9 SWAP2 DUP14 SWAP2 ADD PUSH2 0x499B JUMP JUMPDEST PUSH1 0x40 MLOAD PUSH1 0x20 DUP2 DUP4 SUB SUB DUP2 MSTORE SWAP1 PUSH1 0x40 MSTORE DUP1 MLOAD SWAP1 PUSH1 0x20 ADD KECCAK256 SWAP1 POP PUSH1 0x0 PUSH2 0xCA9 DUP3 PUSH2 0x2026 JUMP JUMPDEST SWAP1 POP PUSH1 0x0 PUSH1 0x1 DUP3 DUP9 DUP9 DUP9 PUSH1 0x40 MLOAD PUSH1 0x0 DUP2 MSTORE PUSH1 0x20 ADD PUSH1 0x40 MSTORE PUSH1 0x40 MLOAD PUSH2 0xCD0 SWAP5 SWAP4 SWAP3 SWAP2 SWAP1 PUSH2 0x4A2B JUMP JUMPDEST PUSH1 0x20 PUSH1 0x40 MLOAD PUSH1 0x20 DUP2 SUB SWAP1 DUP1 DUP5 SUB SWAP1 DUP6 GAS STATICCALL ISZERO DUP1 ISZERO PUSH2 0xCF2 JUMPI RETURNDATASIZE PUSH1 0x0 DUP1 RETURNDATACOPY RETURNDATASIZE PUSH1 0x0 REVERT JUMPDEST POP POP PUSH1 0x40 MLOAD PUSH1 0x1F NOT ADD MLOAD SWAP2 POP PUSH2 0xD34 SWAP1 POP PUSH1 0x1 PUSH1 0x1 PUSH1 0xA0 SHL SUB DUP3 AND ISZERO DUP1 ISZERO SWAP1 PUSH2 0xD2C JUMPI POP DUP12 PUSH1 0x1 PUSH1 0x1 PUSH1 0xA0 SHL SUB AND DUP3 PUSH1 0x1 PUSH1 0x1 PUSH1 0xA0 SHL SUB AND EQ JUMPDEST PUSH2 0x1F8 PUSH2 0x1248 JUMP JUMPDEST PUSH1 0x1 PUSH1 0x1 PUSH1 0xA0 SHL SUB DUP12 AND PUSH1 0x0 SWAP1 DUP2 MSTORE PUSH1 0x6 PUSH1 0x20 MSTORE PUSH1 0x40 SWAP1 KECCAK256 PUSH1 0x1 DUP6 ADD SWAP1 SSTORE PUSH2 0xD5D DUP12 DUP12 DUP12 PUSH2 0xF5F JUMP JUMPDEST POP POP POP POP POP POP POP POP POP POP POP JUMP JUMPDEST PUSH1 0x60 DUP1 PUSH2 0x811 DUP10 DUP10 DUP10 DUP10 DUP10 PUSH1 0x0 DUP10 PUSH2 0x2042 JUMP JUMPDEST PUSH1 0x1 PUSH1 0x1 PUSH1 0xA0 SHL SUB SWAP2 DUP3 AND PUSH1 0x0 SWAP1 DUP2 MSTORE PUSH1 0x1 PUSH1 0x20 SWAP1 DUP2 MSTORE PUSH1 0x40 DUP1 DUP4 KECCAK256 SWAP4 SWAP1 SWAP5 AND DUP3 MSTORE SWAP2 SWAP1 SWAP2 MSTORE KECCAK256 SLOAD SWAP1 JUMP JUMPDEST PUSH2 0xDB0 PUSH2 0xFC7 JUMP JUMPDEST PUSH2 0xDB8 PUSH2 0x13D3 JUMP JUMPDEST PUSH2 0xDC0 PUSH2 0x1453 JUMP JUMPDEST PUSH2 0xDC9 DUP2 PUSH2 0x2165 JUMP JUMPDEST PUSH2 0x595 PUSH2 0x16CF JUMP JUMPDEST PUSH1 0x60 PUSH2 0x5D1 PUSH2 0x14A7 JUMP JUMPDEST DUP1 PUSH2 0x768 DUP2 PUSH2 0x21A7 JUMP JUMPDEST PUSH2 0x768 DUP2 DUP4 EQ PUSH1 0x67 PUSH2 0x1248 JUMP JUMPDEST PUSH1 0x1 PUSH1 0x1 PUSH1 0x40 SHL SUB DUP2 SHL NOT SWAP3 SWAP1 SWAP3 AND SWAP2 SHL OR SWAP1 JUMP JUMPDEST PUSH1 0x0 PUSH2 0xE17 DUP4 DUP4 GT ISZERO PUSH1 0x1 PUSH2 0x1248 JUMP JUMPDEST POP SWAP1 SUB SWAP1 JUMP JUMPDEST PUSH1 0x0 PUSH2 0x57E PUSH8 0xDE0B6B3A7640000 PUSH2 0xE37 DUP5 PUSH2 0xFFFF PUSH2 0xEC6 JUMP JUMPDEST SWAP1 PUSH2 0xF14 JUMP JUMPDEST PUSH1 0x0 PUSH2 0x57E PUSH8 0xDE0B6B3A7640000 PUSH2 0xE37 DUP5 PUSH4 0x7FFFFFFF PUSH2 0xEC6 JUMP JUMPDEST PUSH4 0x7FFFFFFF DUP2 SHL NOT SWAP3 SWAP1 SWAP3 AND SWAP2 SHL OR SWAP1 JUMP JUMPDEST PUSH2 0xFFFF DUP2 SHL NOT SWAP3 SWAP1 SWAP3 AND SWAP2 SHL OR SWAP1 JUMP JUMPDEST PUSH1 0x0 DUP3 DUP3 ADD PUSH2 0x645 DUP5 DUP3 LT ISZERO DUP4 PUSH2 0x1248 JUMP JUMPDEST PUSH4 0xFFFFFFFF DUP2 SHL NOT SWAP3 SWAP1 SWAP3 AND SWAP2 SHL OR SWAP1 JUMP JUMPDEST PUSH1 0x0 PUSH1 0x1 DUP3 SHL NOT DUP5 AND DUP3 DUP5 PUSH2 0xEB5 JUMPI PUSH1 0x0 PUSH2 0xEB8 JUMP JUMPDEST PUSH1 0x1 JUMPDEST PUSH1 0xFF AND SWAP1 SHL OR SWAP5 SWAP4 POP POP POP POP JUMP JUMPDEST PUSH1 0x0 DUP3 DUP3 MUL PUSH2 0xEEA DUP5 ISZERO DUP1 PUSH2 0xEE3 JUMPI POP DUP4 DUP6 DUP4 DUP2 PUSH2 0xEE0 JUMPI INVALID JUMPDEST DIV EQ JUMPDEST PUSH1 0x3 PUSH2 0x1248 JUMP JUMPDEST DUP1 PUSH2 0xEF9 JUMPI PUSH1 0x0 SWAP2 POP POP PUSH2 0x57E JUMP JUMPDEST PUSH8 0xDE0B6B3A7640000 PUSH1 0x0 NOT DUP3 ADD JUMPDEST DIV PUSH1 0x1 ADD SWAP2 POP POP PUSH2 0x57E JUMP JUMPDEST PUSH1 0x0 PUSH2 0xF23 DUP3 ISZERO ISZERO PUSH1 0x4 PUSH2 0x1248 JUMP JUMPDEST DUP3 PUSH2 0xF30 JUMPI POP PUSH1 0x0 PUSH2 0x57E JUMP JUMPDEST PUSH8 0xDE0B6B3A7640000 DUP4 DUP2 MUL SWAP1 PUSH2 0xF53 SWAP1 DUP6 DUP4 DUP2 PUSH2 0xF4A JUMPI INVALID JUMPDEST DIV EQ PUSH1 0x5 PUSH2 0x1248 JUMP JUMPDEST DUP3 PUSH1 0x1 DUP3 SUB DUP2 PUSH2 0xF08 JUMPI INVALID JUMPDEST PUSH1 0x1 PUSH1 0x1 PUSH1 0xA0 SHL SUB DUP1 DUP5 AND PUSH1 0x0 DUP2 DUP2 MSTORE PUSH1 0x1 PUSH1 0x20 SWAP1 DUP2 MSTORE PUSH1 0x40 DUP1 DUP4 KECCAK256 SWAP5 DUP8 AND DUP1 DUP5 MSTORE SWAP5 SWAP1 SWAP2 MSTORE SWAP1 DUP2 SWAP1 KECCAK256 DUP5 SWAP1 SSTORE MLOAD PUSH32 0x8C5BE1E5EBEC7D5BD14F71427D1E84F3DD0314C0F7B2291E5B200AC8C7C3B925 SWAP1 PUSH2 0xFBA SWAP1 DUP6 SWAP1 PUSH2 0x4973 JUMP JUMPDEST PUSH1 0x40 MLOAD DUP1 SWAP2 SUB SWAP1 LOG3 POP POP POP JUMP JUMPDEST PUSH1 0x0 PUSH2 0xFDE PUSH1 0x0 CALLDATALOAD PUSH1 0x1 PUSH1 0x1 PUSH1 0xE0 SHL SUB NOT AND PUSH2 0x8FA JUMP JUMPDEST SWAP1 POP PUSH2 0x595 PUSH2 0xFED DUP3 CALLER PUSH2 0x2220 JUMP JUMPDEST PUSH2 0x191 PUSH2 0x1248 JUMP JUMPDEST DUP1 ISZERO PUSH2 0x1015 JUMPI PUSH2 0x1010 PUSH2 0x1006 PUSH2 0x1090 JUMP JUMPDEST TIMESTAMP LT PUSH2 0x193 PUSH2 0x1248 JUMP JUMPDEST PUSH2 0x102A JUMP JUMPDEST PUSH2 0x102A PUSH2 0x1020 PUSH2 0x10B4 JUMP JUMPDEST TIMESTAMP LT PUSH2 0x1A9 PUSH2 0x1248 JUMP JUMPDEST PUSH1 0x7 DUP1 SLOAD PUSH1 0xFF NOT AND DUP3 ISZERO ISZERO OR SWAP1 SSTORE PUSH1 0x40 MLOAD PUSH32 0x9E3A5E37224532DEA67B89FACE185703738A228A6E8A23DEE546960180D3BE64 SWAP1 PUSH2 0x1068 SWAP1 DUP4 SWAP1 PUSH2 0x4950 JUMP JUMPDEST PUSH1 0x40 MLOAD DUP1 SWAP2 SUB SWAP1 LOG1 POP JUMP JUMPDEST PUSH1 0x0 PUSH2 0x107D PUSH2 0x10B4 JUMP JUMPDEST TIMESTAMP GT DUP1 PUSH2 0x5D1 JUMPI POP POP PUSH1 0x7 SLOAD PUSH1 0xFF AND ISZERO SWAP1 JUMP JUMPDEST PUSH32 0x0 SWAP1 JUMP JUMPDEST PUSH32 0x0 SWAP1 JUMP JUMPDEST PUSH1 0x60 PUSH1 0x0 PUSH2 0x10E4 PUSH2 0x146C JUMP JUMPDEST SWAP1 POP PUSH1 0x0 DUP2 PUSH1 0x1 PUSH1 0x1 PUSH1 0x40 SHL SUB DUP2 GT DUP1 ISZERO PUSH2 0x10FE JUMPI PUSH1 0x0 DUP1 REVERT JUMPDEST POP PUSH1 0x40 MLOAD SWAP1 DUP1 DUP3 MSTORE DUP1 PUSH1 0x20 MUL PUSH1 0x20 ADD DUP3 ADD PUSH1 0x40 MSTORE DUP1 ISZERO PUSH2 0x1128 JUMPI DUP2 PUSH1 0x20 ADD PUSH1 0x20 DUP3 MUL DUP1 CALLDATASIZE DUP4 CALLDATACOPY ADD SWAP1 POP JUMPDEST POP SWAP1 POP DUP2 ISZERO PUSH2 0x1170 JUMPI PUSH32 0x0 DUP2 PUSH1 0x0 DUP2 MLOAD DUP2 LT PUSH2 0x115F JUMPI INVALID JUMPDEST PUSH1 0x20 MUL PUSH1 0x20 ADD ADD DUP2 DUP2 MSTORE POP POP PUSH2 0x1179 JUMP JUMPDEST SWAP2 POP PUSH2 0x56A SWAP1 POP JUMP JUMPDEST PUSH1 0x1 DUP3 GT ISZERO PUSH2 0x1170 JUMPI PUSH32 0x0 DUP2 PUSH1 0x1 DUP2 MLOAD DUP2 LT PUSH2 0x11B0 JUMPI INVALID JUMPDEST PUSH1 0x20 MUL PUSH1 0x20 ADD ADD DUP2 DUP2 MSTORE POP POP PUSH1 0x2 DUP3 GT ISZERO PUSH2 0x1170 JUMPI PUSH32 0x0 DUP2 PUSH1 0x2 DUP2 MLOAD DUP2 LT PUSH2 0x11F3 JUMPI INVALID JUMPDEST PUSH1 0x20 MUL PUSH1 0x20 ADD ADD DUP2 DUP2 MSTORE POP POP PUSH1 0x3 DUP3 GT ISZERO PUSH2 0x1170 JUMPI PUSH32 0x0 DUP2 PUSH1 0x3 DUP2 MLOAD DUP2 LT PUSH2 0x1236 JUMPI INVALID JUMPDEST PUSH1 0x20 MUL PUSH1 0x20 ADD ADD DUP2 DUP2 MSTORE POP POP SWAP2 POP POP SWAP1 JUMP JUMPDEST DUP2 PUSH2 0x768 JUMPI PUSH2 0x768 DUP2 PUSH2 0x2310 JUMP JUMPDEST PUSH2 0x126D PUSH1 0x1 PUSH1 0x1 PUSH1 0xA0 SHL SUB DUP5 AND ISZERO ISZERO PUSH2 0x198 PUSH2 0x1248 JUMP JUMPDEST PUSH2 0x1284 PUSH1 0x1 PUSH1 0x1 PUSH1 0xA0 SHL SUB DUP4 AND ISZERO ISZERO PUSH2 0x199 PUSH2 0x1248 JUMP JUMPDEST PUSH2 0x128F DUP4 DUP4 DUP4 PUSH2 0x739 JUMP JUMPDEST PUSH1 0x1 PUSH1 0x1 PUSH1 0xA0 SHL SUB DUP4 AND PUSH1 0x0 SWAP1 DUP2 MSTORE PUSH1 0x20 DUP2 SWAP1 MSTORE PUSH1 0x40 SWAP1 KECCAK256 SLOAD PUSH2 0x12B5 SWAP1 DUP3 PUSH2 0x1A0 PUSH2 0x2363 JUMP JUMPDEST PUSH1 0x1 PUSH1 0x1 PUSH1 0xA0 SHL SUB DUP1 DUP6 AND PUSH1 0x0 SWAP1 DUP2 MSTORE PUSH1 0x20 DUP2 SWAP1 MSTORE PUSH1 0x40 DUP1 DUP3 KECCAK256 SWAP4 SWAP1 SWAP4 SSTORE SWAP1 DUP5 AND DUP2 MSTORE KECCAK256 SLOAD PUSH2 0x12E4 SWAP1 DUP3 PUSH2 0xE7B JUMP JUMPDEST PUSH1 0x1 PUSH1 0x1 PUSH1 0xA0 SHL SUB DUP1 DUP5 AND PUSH1 0x0 DUP2 DUP2 MSTORE PUSH1 0x20 DUP2 SWAP1 MSTORE PUSH1 0x40 SWAP1 DUP2 SWAP1 KECCAK256 SWAP4 SWAP1 SWAP4 SSTORE SWAP2 MLOAD SWAP1 DUP6 AND SWAP1 PUSH32 0xDDF252AD1BE2C89B69C2B068FC378DAA952BA7F163C4A11628F55A4DF523B3EF SWAP1 PUSH2 0xFBA SWAP1 DUP6 SWAP1 PUSH2 0x4973 JUMP JUMPDEST PUSH1 0x0 PUSH32 0x0 PUSH32 0x0 PUSH32 0x0 PUSH2 0x13A3 PUSH2 0x2379 JUMP JUMPDEST ADDRESS PUSH1 0x40 MLOAD PUSH1 0x20 ADD PUSH2 0x13B8 SWAP6 SWAP5 SWAP4 SWAP3 SWAP2 SWAP1 PUSH2 0x49CF JUMP JUMPDEST PUSH1 0x40 MLOAD PUSH1 0x20 DUP2 DUP4 SUB SUB DUP2 MSTORE SWAP1 PUSH1 0x40 MSTORE DUP1 MLOAD SWAP1 PUSH1 0x20 ADD KECCAK256 SWAP1 POP SWAP1 JUMP JUMPDEST PUSH2 0x13E6 PUSH2 0x13DE PUSH2 0x1073 JUMP JUMPDEST PUSH2 0x192 PUSH2 0x1248 JUMP JUMPDEST JUMP JUMPDEST PUSH2 0x13FB PUSH5 0xE8D4A51000 DUP3 LT ISZERO PUSH1 0xCB PUSH2 0x1248 JUMP JUMPDEST PUSH2 0x1411 PUSH8 0x16345785D8A0000 DUP3 GT ISZERO PUSH1 0xCA PUSH2 0x1248 JUMP JUMPDEST PUSH1 0x8 SLOAD PUSH2 0x1420 SWAP1 DUP3 PUSH1 0xC0 PUSH2 0xDF2 JUMP JUMPDEST PUSH1 0x8 SSTORE PUSH1 0x40 MLOAD PUSH32 0xA9BA3FFE0B6C366B81232CAAB38605A0699AD5398D6CCE76F91EE809E322DAFC SWAP1 PUSH2 0x1068 SWAP1 DUP4 SWAP1 PUSH2 0x4973 JUMP JUMPDEST PUSH2 0x1465 PUSH1 0x2 PUSH1 0xA SLOAD EQ ISZERO PUSH2 0x190 PUSH2 0x1248 JUMP JUMPDEST PUSH1 0x2 PUSH1 0xA SSTORE JUMP JUMPDEST PUSH32 0x0 SWAP1 JUMP JUMPDEST PUSH1 0x0 DUP2 DUP4 LT ISZERO PUSH2 0x14A0 JUMPI DUP2 PUSH2 0x645 JUMP JUMPDEST POP SWAP1 SWAP2 SWAP1 POP JUMP JUMPDEST PUSH1 0x60 PUSH1 0x0 PUSH2 0x14B3 PUSH2 0x146C JUMP JUMPDEST SWAP1 POP PUSH1 0x0 DUP2 PUSH1 0x1 PUSH1 0x1 PUSH1 0x40 SHL SUB DUP2 GT DUP1 ISZERO PUSH2 0x14CD JUMPI PUSH1 0x0 DUP1 REVERT JUMPDEST POP PUSH1 0x40 MLOAD SWAP1 DUP1 DUP3 MSTORE DUP1 PUSH1 0x20 MUL PUSH1 0x20 ADD DUP3 ADD PUSH1 0x40 MSTORE DUP1 ISZERO PUSH2 0x14F7 JUMPI DUP2 PUSH1 0x20 ADD PUSH1 0x20 DUP3 MUL DUP1 CALLDATASIZE DUP4 CALLDATACOPY ADD SWAP1 POP JUMPDEST POP PUSH1 0xB SLOAD SWAP1 SWAP2 POP PUSH2 0x1509 PUSH1 0x0 DUP3 PUSH2 0x237D JUMP JUMPDEST DUP3 PUSH1 0x0 DUP2 MLOAD DUP2 LT PUSH2 0x1516 JUMPI INVALID JUMPDEST PUSH1 0x20 MUL PUSH1 0x20 ADD ADD DUP2 DUP2 MSTORE POP POP PUSH2 0x152D PUSH1 0x1 DUP3 PUSH2 0x237D JUMP JUMPDEST DUP3 PUSH1 0x1 DUP2 MLOAD DUP2 LT PUSH2 0x153A JUMPI INVALID JUMPDEST PUSH1 0x20 MUL PUSH1 0x20 ADD ADD DUP2 DUP2 MSTORE POP POP DUP3 PUSH1 0x2 EQ ISZERO PUSH2 0x1559 JUMPI POP SWAP2 POP PUSH2 0x56A SWAP1 POP JUMP JUMPDEST PUSH2 0x1564 PUSH1 0x2 DUP3 PUSH2 0x237D JUMP JUMPDEST DUP3 PUSH1 0x2 DUP2 MLOAD DUP2 LT PUSH2 0x1571 JUMPI INVALID JUMPDEST PUSH1 0x20 MUL PUSH1 0x20 ADD ADD DUP2 DUP2 MSTORE POP POP DUP3 PUSH1 0x3 EQ ISZERO PUSH2 0x1590 JUMPI POP SWAP2 POP PUSH2 0x56A SWAP1 POP JUMP JUMPDEST PUSH2 0x159B PUSH1 0x3 DUP3 PUSH2 0x237D JUMP JUMPDEST DUP3 PUSH1 0x3 DUP2 MLOAD DUP2 LT PUSH2 0x15A8 JUMPI INVALID JUMPDEST PUSH1 0x20 SWAP1 DUP2 MUL SWAP2 SWAP1 SWAP2 ADD ADD MSTORE POP SWAP2 POP POP SWAP1 JUMP JUMPDEST PUSH1 0xB SLOAD PUSH1 0x0 DUP1 JUMPDEST DUP4 MLOAD DUP2 LT ISZERO PUSH2 0x1656 JUMPI PUSH1 0x0 DUP5 DUP3 DUP2 MLOAD DUP2 LT PUSH2 0x15D8 JUMPI INVALID JUMPDEST PUSH1 0x20 MUL PUSH1 0x20 ADD ADD MLOAD SWAP1 POP PUSH2 0x15F8 PUSH7 0x2386F26FC10000 DUP3 LT ISZERO PUSH2 0x12E PUSH2 0x1248 JUMP JUMPDEST PUSH2 0x163F PUSH2 0x1604 DUP3 PUSH2 0xE1D JUMP JUMPDEST DUP4 PUSH1 0x10 MUL PUSH1 0x80 ADD PUSH2 0x1638 PUSH2 0x162A DUP11 DUP8 DUP2 MLOAD DUP2 LT PUSH2 0x161D JUMPI INVALID JUMPDEST PUSH1 0x20 MUL PUSH1 0x20 ADD ADD MLOAD PUSH2 0xE3D JUMP JUMPDEST DUP9 SWAP1 PUSH1 0x4 PUSH1 0x1F DUP10 MUL ADD PUSH2 0xE59 JUMP JUMPDEST SWAP2 SWAP1 PUSH2 0xE6B JUMP JUMPDEST SWAP4 POP PUSH2 0x164B DUP4 DUP3 PUSH2 0xE7B JUMP JUMPDEST SWAP3 POP POP PUSH1 0x1 ADD PUSH2 0x15C1 JUMP JUMPDEST POP PUSH2 0x166D PUSH8 0xDE0B6B3A7640000 DUP3 EQ PUSH2 0x134 PUSH2 0x1248 JUMP JUMPDEST PUSH2 0x1686 DUP6 PUSH1 0xE0 PUSH2 0x167F DUP6 DUP11 PUSH1 0xC0 PUSH2 0xE8D JUMP JUMPDEST SWAP2 SWAP1 PUSH2 0xE8D JUMP JUMPDEST PUSH1 0xB SSTORE PUSH1 0x40 MLOAD PUSH32 0xF3631F9DAB08169D1DB21C6DC5F32536FB2B0A6B9BB5330D71C52132F968BE0 SWAP1 PUSH2 0x16BF SWAP1 DUP9 SWAP1 DUP9 SWAP1 DUP9 SWAP1 DUP9 SWAP1 PUSH2 0x4A94 JUMP JUMPDEST PUSH1 0x40 MLOAD DUP1 SWAP2 SUB SWAP1 LOG1 POP POP POP POP POP POP JUMP JUMPDEST PUSH1 0x1 PUSH1 0xA SSTORE JUMP JUMPDEST SHR PUSH1 0x1 SWAP1 DUP2 AND EQ SWAP1 JUMP JUMPDEST PUSH1 0x0 PUSH2 0x16EA PUSH2 0x678 JUMP JUMPDEST SWAP1 POP PUSH1 0x0 PUSH2 0x16F6 PUSH2 0x996 JUMP JUMPDEST PUSH1 0x1 PUSH1 0x1 PUSH1 0xA0 SHL SUB AND PUSH4 0xB05F8E48 DUP4 DUP7 PUSH1 0x40 MLOAD DUP4 PUSH4 0xFFFFFFFF AND PUSH1 0xE0 SHL DUP2 MSTORE PUSH1 0x4 ADD PUSH2 0x1723 SWAP3 SWAP2 SWAP1 PUSH2 0x4A14 JUMP JUMPDEST PUSH1 0x80 PUSH1 0x40 MLOAD DUP1 DUP4 SUB DUP2 DUP7 DUP1 EXTCODESIZE ISZERO DUP1 ISZERO PUSH2 0x173B JUMPI PUSH1 0x0 DUP1 REVERT JUMPDEST POP GAS STATICCALL ISZERO DUP1 ISZERO PUSH2 0x174F JUMPI RETURNDATASIZE PUSH1 0x0 DUP1 RETURNDATACOPY RETURNDATASIZE PUSH1 0x0 REVERT JUMPDEST POP POP POP POP PUSH1 0x40 MLOAD RETURNDATASIZE PUSH1 0x1F NOT PUSH1 0x1F DUP3 ADD AND DUP3 ADD DUP1 PUSH1 0x40 MSTORE POP DUP2 ADD SWAP1 PUSH2 0x1773 SWAP2 SWAP1 PUSH2 0x47FC JUMP JUMPDEST PUSH1 0x40 MLOAD PUSH4 0x639CDB5 PUSH1 0xE2 SHL DUP2 MSTORE SWAP1 SWAP5 POP PUSH1 0x1 PUSH1 0x1 PUSH1 0xA0 SHL SUB DUP6 AND SWAP4 POP PUSH4 0x18E736D4 SWAP3 POP PUSH2 0x17A7 SWAP2 POP DUP6 SWAP1 DUP8 SWAP1 PUSH1 0x4 ADD PUSH2 0x49FB JUMP JUMPDEST PUSH1 0x0 PUSH1 0x40 MLOAD DUP1 DUP4 SUB DUP2 PUSH1 0x0 DUP8 DUP1 EXTCODESIZE ISZERO DUP1 ISZERO PUSH2 0x17C1 JUMPI PUSH1 0x0 DUP1 REVERT JUMPDEST POP GAS CALL ISZERO DUP1 ISZERO PUSH2 0x17D5 JUMPI RETURNDATASIZE PUSH1 0x0 DUP1 RETURNDATACOPY RETURNDATASIZE PUSH1 0x0 REVERT JUMPDEST POP POP POP POP POP POP POP POP JUMP JUMPDEST SHR PUSH1 0x1 PUSH1 0x1 PUSH1 0x40 SHL SUB AND SWAP1 JUMP JUMPDEST PUSH1 0x0 PUSH1 0x60 DUP1 PUSH1 0x0 DUP1 PUSH2 0x17FC PUSH2 0x1F36 JUMP JUMPDEST SWAP2 POP SWAP2 POP PUSH2 0x1808 PUSH2 0x1073 JUMP JUMPDEST ISZERO PUSH2 0x1840 JUMPI PUSH1 0x0 PUSH2 0x1819 DUP4 DUP13 PUSH2 0x1FB4 JUMP JUMPDEST SWAP1 POP PUSH2 0x182B DUP12 DUP5 DUP5 PUSH1 0x9 SLOAD DUP6 DUP15 PUSH2 0x23D3 JUMP JUMPDEST SWAP4 POP PUSH2 0x183A DUP12 DUP6 PUSH2 0xE07 PUSH2 0x2482 JUMP JUMPDEST POP PUSH2 0x188B JUMP JUMPDEST PUSH2 0x1848 PUSH2 0x146C JUMP JUMPDEST PUSH1 0x1 PUSH1 0x1 PUSH1 0x40 SHL SUB DUP2 GT DUP1 ISZERO PUSH2 0x185D JUMPI PUSH1 0x0 DUP1 REVERT JUMPDEST POP PUSH1 0x40 MLOAD SWAP1 DUP1 DUP3 MSTORE DUP1 PUSH1 0x20 MUL PUSH1 0x20 ADD DUP3 ADD PUSH1 0x40 MSTORE DUP1 ISZERO PUSH2 0x1887 JUMPI DUP2 PUSH1 0x20 ADD PUSH1 0x20 DUP3 MUL DUP1 CALLDATASIZE DUP4 CALLDATACOPY ADD SWAP1 POP JUMPDEST POP SWAP3 POP JUMPDEST PUSH2 0x1897 DUP11 DUP4 DUP10 DUP10 PUSH2 0x24ED JUMP JUMPDEST SWAP1 SWAP6 POP SWAP4 POP PUSH2 0x18A7 DUP11 DUP6 DUP5 PUSH2 0x255C JUMP JUMPDEST PUSH1 0x9 SSTORE POP POP SWAP9 POP SWAP9 POP SWAP9 SWAP6 POP POP POP POP POP POP JUMP JUMPDEST PUSH1 0x0 JUMPDEST PUSH2 0x18C5 PUSH2 0x146C JUMP JUMPDEST DUP2 LT ISZERO PUSH2 0x739 JUMPI PUSH2 0x18FC DUP4 DUP3 DUP2 MLOAD DUP2 LT PUSH2 0x18DB JUMPI INVALID JUMPDEST PUSH1 0x20 MUL PUSH1 0x20 ADD ADD MLOAD DUP4 DUP4 DUP2 MLOAD DUP2 LT PUSH2 0x18EF JUMPI INVALID JUMPDEST PUSH1 0x20 MUL PUSH1 0x20 ADD ADD MLOAD PUSH2 0x1A57 JUMP JUMPDEST DUP4 DUP3 DUP2 MLOAD DUP2 LT PUSH2 0x1908 JUMPI INVALID JUMPDEST PUSH1 0x20 SWAP1 DUP2 MUL SWAP2 SWAP1 SWAP2 ADD ADD MSTORE PUSH1 0x1 ADD PUSH2 0x18BD JUMP JUMPDEST CALLER ADDRESS EQ PUSH2 0x19D9 JUMPI PUSH1 0x0 ADDRESS PUSH1 0x1 PUSH1 0x1 PUSH1 0xA0 SHL SUB AND PUSH1 0x0 CALLDATASIZE PUSH1 0x40 MLOAD PUSH2 0x193F SWAP3 SWAP2 SWAP1 PUSH2 0x48D9 JUMP JUMPDEST PUSH1 0x0 PUSH1 0x40 MLOAD DUP1 DUP4 SUB DUP2 PUSH1 0x0 DUP7 GAS CALL SWAP2 POP POP RETURNDATASIZE DUP1 PUSH1 0x0 DUP2 EQ PUSH2 0x197C JUMPI PUSH1 0x40 MLOAD SWAP2 POP PUSH1 0x1F NOT PUSH1 0x3F RETURNDATASIZE ADD AND DUP3 ADD PUSH1 0x40 MSTORE RETURNDATASIZE DUP3 MSTORE RETURNDATASIZE PUSH1 0x0 PUSH1 0x20 DUP5 ADD RETURNDATACOPY PUSH2 0x1981 JUMP JUMPDEST PUSH1 0x60 SWAP2 POP JUMPDEST POP POP SWAP1 POP DUP1 PUSH1 0x0 DUP2 EQ PUSH2 0x1990 JUMPI INVALID JUMPDEST PUSH1 0x4 PUSH1 0x0 DUP1 RETURNDATACOPY PUSH1 0x0 MLOAD PUSH1 0x1 PUSH1 0x1 PUSH1 0xE0 SHL SUB NOT AND PUSH4 0x43ADBAFB PUSH1 0xE0 SHL DUP2 EQ PUSH2 0x19BB JUMPI RETURNDATASIZE PUSH1 0x0 DUP1 RETURNDATACOPY RETURNDATASIZE PUSH1 0x0 REVERT JUMPDEST POP PUSH1 0x20 PUSH1 0x4 PUSH1 0x0 RETURNDATACOPY PUSH1 0x40 PUSH1 0x20 MSTORE PUSH1 0x24 RETURNDATASIZE SUB PUSH1 0x24 PUSH1 0x40 RETURNDATACOPY PUSH1 0x1C RETURNDATASIZE ADD PUSH1 0x0 RETURN JUMPDEST PUSH1 0x0 PUSH2 0x19E3 PUSH2 0x10D8 JUMP JUMPDEST SWAP1 POP PUSH2 0x19EF DUP8 DUP3 PUSH2 0x1ED5 JUMP JUMPDEST PUSH1 0x0 DUP1 PUSH2 0x1A06 DUP13 DUP13 DUP13 DUP13 DUP13 DUP13 DUP10 DUP14 DUP14 PUSH4 0xFFFFFFFF AND JUMP JUMPDEST POP SWAP2 POP SWAP2 POP PUSH2 0x1A19 DUP2 DUP5 DUP7 PUSH4 0xFFFFFFFF AND JUMP JUMPDEST DUP1 MLOAD PUSH1 0x1F NOT DUP3 ADD DUP4 SWAP1 MSTORE PUSH4 0x43ADBAFB PUSH1 0x3F NOT DUP4 ADD MSTORE PUSH1 0x20 MUL PUSH1 0x23 NOT DUP3 ADD PUSH1 0x44 DUP3 ADD DUP2 REVERT JUMPDEST PUSH1 0x0 DUP3 DUP3 MUL PUSH2 0x645 DUP5 ISZERO DUP1 PUSH2 0xEE3 JUMPI POP DUP4 DUP6 DUP4 DUP2 PUSH2 0xEE0 JUMPI INVALID JUMPDEST PUSH1 0x0 PUSH2 0x1A66 DUP3 ISZERO ISZERO PUSH1 0x4 PUSH2 0x1248 JUMP JUMPDEST DUP3 PUSH2 0x1A73 JUMPI POP PUSH1 0x0 PUSH2 0x57E JUMP JUMPDEST PUSH8 0xDE0B6B3A7640000 DUP4 DUP2 MUL SWAP1 PUSH2 0x1A8D SWAP1 DUP6 DUP4 DUP2 PUSH2 0xF4A JUMPI INVALID JUMPDEST DUP3 DUP2 DUP2 PUSH2 0x1A96 JUMPI INVALID JUMPDEST DIV SWAP2 POP POP PUSH2 0x57E JUMP JUMPDEST PUSH1 0x60 DUP1 DUP9 PUSH2 0x1AC9 PUSH2 0x1AAE PUSH2 0x996 JUMP JUMPDEST PUSH1 0x1 PUSH1 0x1 PUSH1 0xA0 SHL SUB AND CALLER PUSH1 0x1 PUSH1 0x1 PUSH1 0xA0 SHL SUB AND EQ PUSH1 0xCD PUSH2 0x1248 JUMP JUMPDEST PUSH2 0x1ADE PUSH2 0x1AD4 PUSH2 0x678 JUMP JUMPDEST DUP3 EQ PUSH2 0x1F4 PUSH2 0x1248 JUMP JUMPDEST PUSH1 0x0 PUSH2 0x1AE8 PUSH2 0x10D8 JUMP JUMPDEST SWAP1 POP PUSH2 0x1AF4 DUP9 DUP3 PUSH2 0x1ED5 JUMP JUMPDEST PUSH1 0x0 DUP1 PUSH1 0x0 PUSH2 0x1B09 DUP15 DUP15 DUP15 DUP15 DUP15 DUP15 DUP11 DUP16 PUSH2 0x17EC JUMP JUMPDEST SWAP3 POP SWAP3 POP SWAP3 POP PUSH2 0x1B19 DUP14 DUP5 PUSH2 0x2575 JUMP JUMPDEST PUSH2 0x1B23 DUP3 DUP6 PUSH2 0x18BA JUMP JUMPDEST PUSH2 0x1B2D DUP2 DUP6 PUSH2 0x18BA JUMP JUMPDEST SWAP1 SWAP6 POP SWAP4 POP POP POP JUMPDEST POP SWAP8 POP SWAP8 SWAP6 POP POP POP POP POP POP JUMP JUMPDEST SHR PUSH4 0xFFFFFFFF AND SWAP1 JUMP JUMPDEST SHR PUSH2 0xFFFF AND SWAP1 JUMP JUMPDEST PUSH1 0x0 PUSH2 0x57E PUSH2 0xFFFF PUSH2 0xE37 DUP5 PUSH8 0xDE0B6B3A7640000 PUSH2 0xEC6 JUMP JUMPDEST PUSH1 0x0 PUSH1 0x60 DUP1 PUSH2 0x1B9A PUSH2 0x1B7E PUSH2 0x972 JUMP JUMPDEST PUSH1 0x1 PUSH1 0x1 PUSH1 0xA0 SHL SUB AND DUP12 PUSH1 0x1 PUSH1 0x1 PUSH1 0xA0 SHL SUB AND EQ PUSH2 0x148 PUSH2 0x1248 JUMP JUMPDEST PUSH2 0x1BAA DUP12 DUP12 DUP12 DUP12 DUP12 DUP12 DUP12 DUP12 PUSH2 0x257F JUMP JUMPDEST SWAP3 POP SWAP3 POP SWAP3 POP SWAP9 POP SWAP9 POP SWAP9 SWAP6 POP POP POP POP POP POP JUMP JUMPDEST PUSH1 0x0 JUMPDEST PUSH2 0x1BC9 PUSH2 0x146C JUMP JUMPDEST DUP2 LT ISZERO PUSH2 0x739 JUMPI PUSH2 0x1C00 DUP4 DUP3 DUP2 MLOAD DUP2 LT PUSH2 0x1BDF JUMPI INVALID JUMPDEST PUSH1 0x20 MUL PUSH1 0x20 ADD ADD MLOAD DUP4 DUP4 DUP2 MLOAD DUP2 LT PUSH2 0x1BF3 JUMPI INVALID JUMPDEST PUSH1 0x20 MUL PUSH1 0x20 ADD ADD MLOAD PUSH2 0xF14 JUMP JUMPDEST DUP4 DUP3 DUP2 MLOAD DUP2 LT PUSH2 0x1C0C JUMPI INVALID JUMPDEST PUSH1 0x20 SWAP1 DUP2 MUL SWAP2 SWAP1 SWAP2 ADD ADD MSTORE PUSH1 0x1 ADD PUSH2 0x1BC1 JUMP JUMPDEST PUSH1 0x0 PUSH32 0x0 PUSH1 0x1 PUSH1 0x1 PUSH1 0xA0 SHL SUB AND DUP3 PUSH1 0x1 PUSH1 0x1 PUSH1 0xA0 SHL SUB AND EQ ISZERO PUSH2 0x1C82 JUMPI POP PUSH32 0x0 PUSH2 0x7F9 JUMP JUMPDEST PUSH32 0x0 PUSH1 0x1 PUSH1 0x1 PUSH1 0xA0 SHL SUB AND DUP3 PUSH1 0x1 PUSH1 0x1 PUSH1 0xA0 SHL SUB AND EQ ISZERO PUSH2 0x1CE3 JUMPI POP PUSH32 0x0 PUSH2 0x7F9 JUMP JUMPDEST PUSH32 0x0 PUSH1 0x1 PUSH1 0x1 PUSH1 0xA0 SHL SUB AND DUP3 PUSH1 0x1 PUSH1 0x1 PUSH1 0xA0 SHL SUB AND EQ ISZERO PUSH2 0x1D44 JUMPI POP PUSH32 0x0 PUSH2 0x7F9 JUMP JUMPDEST PUSH32 0x0 PUSH1 0x1 PUSH1 0x1 PUSH1 0xA0 SHL SUB AND DUP3 PUSH1 0x1 PUSH1 0x1 PUSH1 0xA0 SHL SUB AND EQ ISZERO PUSH2 0x1DA5 JUMPI POP PUSH32 0x0 PUSH2 0x7F9 JUMP JUMPDEST PUSH2 0x7F9 PUSH2 0x135 PUSH2 0x2310 JUMP JUMPDEST PUSH1 0x0 DUP1 PUSH2 0x1DC5 PUSH2 0x1DBE PUSH2 0x76C JUMP JUMPDEST DUP5 SWAP1 PUSH2 0xEC6 JUMP JUMPDEST SWAP1 POP PUSH2 0x645 DUP4 DUP3 PUSH2 0xE07 JUMP JUMPDEST PUSH1 0x0 PUSH2 0x645 DUP4 DUP4 PUSH2 0x2603 JUMP JUMPDEST PUSH1 0x0 PUSH2 0x1DF2 PUSH2 0x1DEA PUSH2 0x73E JUMP JUMPDEST PUSH2 0x147 PUSH2 0x1248 JUMP JUMPDEST PUSH2 0x1DFD DUP5 DUP5 DUP5 PUSH2 0x262F JUMP JUMPDEST SWAP5 SWAP4 POP POP POP POP JUMP JUMPDEST PUSH1 0x0 PUSH2 0x645 DUP4 DUP4 PUSH2 0x1A57 JUMP JUMPDEST PUSH1 0x0 PUSH2 0x1E1E PUSH2 0x1DEA PUSH2 0x73E JUMP JUMPDEST PUSH2 0x1DFD DUP5 DUP5 DUP5 PUSH2 0x2662 JUMP JUMPDEST PUSH1 0x0 PUSH2 0x645 DUP4 DUP4 PUSH2 0xF14 JUMP JUMPDEST PUSH1 0x0 PUSH2 0x57E PUSH2 0x1E54 PUSH2 0x1E45 PUSH2 0x76C JUMP JUMPDEST PUSH8 0xDE0B6B3A7640000 SWAP1 PUSH2 0xE07 JUMP JUMPDEST DUP4 SWAP1 PUSH2 0xF14 JUMP JUMPDEST PUSH1 0x0 PUSH2 0x1E65 PUSH2 0x996 JUMP JUMPDEST PUSH1 0x1 PUSH1 0x1 PUSH1 0xA0 SHL SUB AND PUSH4 0xAAABADC5 PUSH1 0x40 MLOAD DUP2 PUSH4 0xFFFFFFFF AND PUSH1 0xE0 SHL DUP2 MSTORE PUSH1 0x4 ADD PUSH1 0x20 PUSH1 0x40 MLOAD DUP1 DUP4 SUB DUP2 DUP7 DUP1 EXTCODESIZE ISZERO DUP1 ISZERO PUSH2 0x1E9D JUMPI PUSH1 0x0 DUP1 REVERT JUMPDEST POP GAS STATICCALL ISZERO DUP1 ISZERO PUSH2 0x1EB1 JUMPI RETURNDATASIZE PUSH1 0x0 DUP1 RETURNDATACOPY RETURNDATASIZE PUSH1 0x0 REVERT JUMPDEST POP POP POP POP PUSH1 0x40 MLOAD RETURNDATASIZE PUSH1 0x1F NOT PUSH1 0x1F DUP3 ADD AND DUP3 ADD DUP1 PUSH1 0x40 MSTORE POP DUP2 ADD SWAP1 PUSH2 0x5D1 SWAP2 SWAP1 PUSH2 0x452F JUMP JUMPDEST PUSH1 0x0 JUMPDEST PUSH2 0x1EE0 PUSH2 0x146C JUMP JUMPDEST DUP2 LT ISZERO PUSH2 0x739 JUMPI PUSH2 0x1F17 DUP4 DUP3 DUP2 MLOAD DUP2 LT PUSH2 0x1EF6 JUMPI INVALID JUMPDEST PUSH1 0x20 MUL PUSH1 0x20 ADD ADD MLOAD DUP4 DUP4 DUP2 MLOAD DUP2 LT PUSH2 0x1F0A JUMPI INVALID JUMPDEST PUSH1 0x20 MUL PUSH1 0x20 ADD ADD MLOAD PUSH2 0x2603 JUMP JUMPDEST DUP4 DUP3 DUP2 MLOAD DUP2 LT PUSH2 0x1F23 JUMPI INVALID JUMPDEST PUSH1 0x20 SWAP1 DUP2 MUL SWAP2 SWAP1 SWAP2 ADD ADD MSTORE PUSH1 0x1 ADD PUSH2 0x1ED8 JUMP JUMPDEST PUSH1 0x60 PUSH1 0x0 PUSH2 0x1F42 PUSH2 0x14A7 JUMP JUMPDEST SWAP2 POP PUSH1 0x0 SWAP1 POP PUSH1 0x0 DUP3 PUSH1 0x0 DUP2 MLOAD DUP2 LT PUSH2 0x1F57 JUMPI INVALID JUMPDEST PUSH1 0x20 MUL PUSH1 0x20 ADD ADD MLOAD SWAP1 POP PUSH1 0x0 PUSH1 0x1 SWAP1 POP JUMPDEST DUP4 MLOAD DUP2 LT ISZERO PUSH2 0x1FAE JUMPI DUP2 DUP5 DUP3 DUP2 MLOAD DUP2 LT PUSH2 0x1F7E JUMPI INVALID JUMPDEST PUSH1 0x20 MUL PUSH1 0x20 ADD ADD MLOAD GT ISZERO PUSH2 0x1FA6 JUMPI DUP1 SWAP3 POP DUP4 DUP2 DUP2 MLOAD DUP2 LT PUSH2 0x1F9B JUMPI INVALID JUMPDEST PUSH1 0x20 MUL PUSH1 0x20 ADD ADD MLOAD SWAP2 POP JUMPDEST PUSH1 0x1 ADD PUSH2 0x1F68 JUMP JUMPDEST POP POP SWAP1 SWAP2 JUMP JUMPDEST PUSH8 0xDE0B6B3A7640000 PUSH1 0x0 JUMPDEST DUP4 MLOAD DUP2 LT ISZERO PUSH2 0x2016 JUMPI PUSH2 0x200C PUSH2 0x2005 DUP6 DUP4 DUP2 MLOAD DUP2 LT PUSH2 0x1FDB JUMPI INVALID JUMPDEST PUSH1 0x20 MUL PUSH1 0x20 ADD ADD MLOAD DUP6 DUP5 DUP2 MLOAD DUP2 LT PUSH2 0x1FEF JUMPI INVALID JUMPDEST PUSH1 0x20 MUL PUSH1 0x20 ADD ADD MLOAD PUSH2 0x2695 SWAP1 SWAP2 SWAP1 PUSH4 0xFFFFFFFF AND JUMP JUMPDEST DUP4 SWAP1 PUSH2 0x2603 JUMP JUMPDEST SWAP2 POP PUSH1 0x1 ADD PUSH2 0x1FC0 JUMP JUMPDEST POP PUSH2 0x57E PUSH1 0x0 DUP3 GT PUSH2 0x137 PUSH2 0x1248 JUMP JUMPDEST PUSH1 0x0 PUSH2 0x2030 PUSH2 0x1336 JUMP JUMPDEST DUP3 PUSH1 0x40 MLOAD PUSH1 0x20 ADD PUSH2 0x92F SWAP3 SWAP2 SWAP1 PUSH2 0x48E9 JUMP JUMPDEST PUSH1 0x60 DUP1 DUP9 PUSH2 0x2051 PUSH2 0x1AAE PUSH2 0x996 JUMP JUMPDEST PUSH2 0x205C PUSH2 0x1AD4 PUSH2 0x678 JUMP JUMPDEST PUSH1 0x0 PUSH2 0x2066 PUSH2 0x10D8 JUMP JUMPDEST SWAP1 POP PUSH2 0x2070 PUSH2 0x598 JUMP JUMPDEST PUSH2 0x2115 JUMPI PUSH1 0x0 DUP1 PUSH2 0x2084 DUP14 DUP14 DUP14 DUP7 DUP12 PUSH2 0x26E4 JUMP JUMPDEST SWAP2 POP SWAP2 POP PUSH2 0x2099 PUSH3 0xF4240 DUP4 LT ISZERO PUSH1 0xCC PUSH2 0x1248 JUMP JUMPDEST PUSH2 0x20A7 PUSH1 0x0 PUSH3 0xF4240 PUSH2 0x272A JUMP JUMPDEST PUSH2 0x20B6 DUP12 PUSH3 0xF4240 DUP5 SUB PUSH2 0x272A JUMP JUMPDEST PUSH2 0x20C0 DUP2 DUP5 PUSH2 0x1BBE JUMP JUMPDEST DUP1 PUSH2 0x20C9 PUSH2 0x146C JUMP JUMPDEST PUSH1 0x1 PUSH1 0x1 PUSH1 0x40 SHL SUB DUP2 GT DUP1 ISZERO PUSH2 0x20DE JUMPI PUSH1 0x0 DUP1 REVERT JUMPDEST POP PUSH1 0x40 MLOAD SWAP1 DUP1 DUP3 MSTORE DUP1 PUSH1 0x20 MUL PUSH1 0x20 ADD DUP3 ADD PUSH1 0x40 MSTORE DUP1 ISZERO PUSH2 0x2108 JUMPI DUP2 PUSH1 0x20 ADD PUSH1 0x20 DUP3 MUL DUP1 CALLDATASIZE DUP4 CALLDATACOPY ADD SWAP1 POP JUMPDEST POP SWAP6 POP SWAP6 POP POP POP POP PUSH2 0x1B35 JUMP JUMPDEST PUSH2 0x211F DUP9 DUP3 PUSH2 0x1ED5 JUMP JUMPDEST PUSH1 0x0 DUP1 PUSH1 0x0 PUSH2 0x2134 DUP15 DUP15 DUP15 DUP15 DUP15 DUP15 DUP11 DUP16 PUSH2 0x1B6E JUMP JUMPDEST SWAP3 POP SWAP3 POP SWAP3 POP PUSH2 0x2144 DUP13 DUP5 PUSH2 0x272A JUMP JUMPDEST PUSH2 0x214E DUP3 DUP6 PUSH2 0x1BBE JUMP JUMPDEST PUSH2 0x2158 DUP2 DUP6 PUSH2 0x18BA JUMP JUMPDEST SWAP1 SWAP6 POP SWAP4 POP PUSH2 0x1B35 SWAP2 POP POP JUMP JUMPDEST PUSH1 0xB SLOAD PUSH2 0x2174 SWAP1 DUP3 PUSH1 0x0 PUSH2 0xE9F JUMP JUMPDEST PUSH1 0xB SSTORE PUSH1 0x40 MLOAD PUSH32 0x5A9E84F78F7957CB4ED7478EB0FCAD35EE4ECBE2E0F298420B28A3955392573F SWAP1 PUSH2 0x1068 SWAP1 DUP4 SWAP1 PUSH2 0x4950 JUMP JUMPDEST PUSH1 0x2 DUP2 MLOAD LT ISZERO PUSH2 0x21B6 JUMPI PUSH2 0x595 JUMP JUMPDEST PUSH1 0x0 DUP2 PUSH1 0x0 DUP2 MLOAD DUP2 LT PUSH2 0x21C5 JUMPI INVALID JUMPDEST PUSH1 0x20 MUL PUSH1 0x20 ADD ADD MLOAD SWAP1 POP PUSH1 0x0 PUSH1 0x1 SWAP1 POP JUMPDEST DUP3 MLOAD DUP2 LT ISZERO PUSH2 0x739 JUMPI PUSH1 0x0 DUP4 DUP3 DUP2 MLOAD DUP2 LT PUSH2 0x21ED JUMPI INVALID JUMPDEST PUSH1 0x20 MUL PUSH1 0x20 ADD ADD MLOAD SWAP1 POP PUSH2 0x2216 DUP2 PUSH1 0x1 PUSH1 0x1 PUSH1 0xA0 SHL SUB AND DUP5 PUSH1 0x1 PUSH1 0x1 PUSH1 0xA0 SHL SUB AND LT PUSH1 0x65 PUSH2 0x1248 JUMP JUMPDEST SWAP2 POP PUSH1 0x1 ADD PUSH2 0x21D6 JUMP JUMPDEST PUSH1 0x0 PUSH20 0xBA1BA1BA1BA1BA1BA1BA1BA1BA1BA1BA1BA1BA1B PUSH2 0x223F PUSH2 0x972 JUMP JUMPDEST PUSH1 0x1 PUSH1 0x1 PUSH1 0xA0 SHL SUB AND EQ ISZERO DUP1 ISZERO PUSH2 0x225A JUMPI POP PUSH2 0x225A DUP4 PUSH2 0x2734 JUMP JUMPDEST ISZERO PUSH2 0x2282 JUMPI PUSH2 0x2267 PUSH2 0x972 JUMP JUMPDEST PUSH1 0x1 PUSH1 0x1 PUSH1 0xA0 SHL SUB AND CALLER PUSH1 0x1 PUSH1 0x1 PUSH1 0xA0 SHL SUB AND EQ SWAP1 POP PUSH2 0x57E JUMP JUMPDEST PUSH2 0x228A PUSH2 0x1E5B JUMP JUMPDEST PUSH1 0x1 PUSH1 0x1 PUSH1 0xA0 SHL SUB AND PUSH4 0x9BE2A884 DUP5 DUP5 ADDRESS PUSH1 0x40 MLOAD DUP5 PUSH4 0xFFFFFFFF AND PUSH1 0xE0 SHL DUP2 MSTORE PUSH1 0x4 ADD PUSH2 0x22B9 SWAP4 SWAP3 SWAP2 SWAP1 PUSH2 0x497C JUMP JUMPDEST PUSH1 0x20 PUSH1 0x40 MLOAD DUP1 DUP4 SUB DUP2 DUP7 DUP1 EXTCODESIZE ISZERO DUP1 ISZERO PUSH2 0x22D1 JUMPI PUSH1 0x0 DUP1 REVERT JUMPDEST POP GAS STATICCALL ISZERO DUP1 ISZERO PUSH2 0x22E5 JUMPI RETURNDATASIZE PUSH1 0x0 DUP1 RETURNDATACOPY RETURNDATASIZE PUSH1 0x0 REVERT JUMPDEST POP POP POP POP PUSH1 0x40 MLOAD RETURNDATASIZE PUSH1 0x1F NOT PUSH1 0x1F DUP3 ADD AND DUP3 ADD DUP1 PUSH1 0x40 MSTORE POP DUP2 ADD SWAP1 PUSH2 0x2309 SWAP2 SWAP1 PUSH2 0x4449 JUMP JUMPDEST SWAP1 POP PUSH2 0x57E JUMP JUMPDEST PUSH3 0x461BCD PUSH1 0xE5 SHL PUSH1 0x0 SWAP1 DUP2 MSTORE PUSH1 0x20 PUSH1 0x4 MSTORE PUSH1 0x7 PUSH1 0x24 MSTORE PUSH7 0x42414C23000030 PUSH1 0xA DUP1 DUP5 DIV DUP2 DUP2 MOD PUSH1 0x30 SWAP1 DUP2 ADD PUSH1 0x8 SHL SWAP6 DUP4 SWAP1 MOD SWAP6 SWAP1 SWAP6 ADD SWAP1 DUP3 SWAP1 DIV SWAP2 DUP3 MOD SWAP1 SWAP5 ADD PUSH1 0x10 SHL SWAP4 SWAP1 SWAP4 ADD ADD PUSH1 0xC8 SHL PUSH1 0x44 MSTORE PUSH1 0x64 SWAP1 REVERT JUMPDEST PUSH1 0x0 PUSH2 0x2372 DUP5 DUP5 GT ISZERO DUP4 PUSH2 0x1248 JUMP JUMPDEST POP POP SWAP1 SUB SWAP1 JUMP JUMPDEST CHAINID SWAP1 JUMP JUMPDEST PUSH1 0x0 DUP1 PUSH2 0x2398 PUSH2 0x2393 DUP5 PUSH1 0x4 PUSH1 0x1F DUP9 MUL ADD PUSH2 0x2770 JUMP JUMPDEST PUSH2 0x277A JUMP JUMPDEST SWAP1 POP PUSH1 0x0 PUSH2 0x23AF PUSH2 0x8B3 DUP6 PUSH1 0x80 PUSH1 0x10 DUP10 MUL ADD PUSH2 0x1B4C JUMP JUMPDEST SWAP1 POP PUSH1 0x0 PUSH2 0x23BC DUP6 PUSH2 0x2796 JUMP JUMPDEST SWAP1 POP PUSH2 0x23C9 DUP4 DUP4 DUP4 PUSH2 0x2815 JUMP JUMPDEST SWAP7 SWAP6 POP POP POP POP POP POP JUMP JUMPDEST PUSH1 0x60 PUSH1 0x0 PUSH2 0x23DF PUSH2 0x146C JUMP JUMPDEST PUSH1 0x1 PUSH1 0x1 PUSH1 0x40 SHL SUB DUP2 GT DUP1 ISZERO PUSH2 0x23F4 JUMPI PUSH1 0x0 DUP1 REVERT JUMPDEST POP PUSH1 0x40 MLOAD SWAP1 DUP1 DUP3 MSTORE DUP1 PUSH1 0x20 MUL PUSH1 0x20 ADD DUP3 ADD PUSH1 0x40 MSTORE DUP1 ISZERO PUSH2 0x241E JUMPI DUP2 PUSH1 0x20 ADD PUSH1 0x20 DUP3 MUL DUP1 CALLDATASIZE DUP4 CALLDATACOPY ADD SWAP1 POP JUMPDEST POP SWAP1 POP DUP3 PUSH2 0x242D JUMPI SWAP1 POP PUSH2 0x23C9 JUMP JUMPDEST PUSH2 0x2460 DUP9 DUP8 DUP2 MLOAD DUP2 LT PUSH2 0x243C JUMPI INVALID JUMPDEST PUSH1 0x20 MUL PUSH1 0x20 ADD ADD MLOAD DUP9 DUP9 DUP2 MLOAD DUP2 LT PUSH2 0x2450 JUMPI INVALID JUMPDEST PUSH1 0x20 MUL PUSH1 0x20 ADD ADD MLOAD DUP8 DUP8 DUP8 PUSH2 0x2889 JUMP JUMPDEST DUP2 DUP8 DUP2 MLOAD DUP2 LT PUSH2 0x246C JUMPI INVALID JUMPDEST PUSH1 0x20 SWAP1 DUP2 MUL SWAP2 SWAP1 SWAP2 ADD ADD MSTORE SWAP8 SWAP7 POP POP POP POP POP POP POP JUMP JUMPDEST PUSH1 0x0 JUMPDEST PUSH2 0x248D PUSH2 0x146C JUMP JUMPDEST DUP2 LT ISZERO PUSH2 0x24E7 JUMPI PUSH2 0x24C8 DUP5 DUP3 DUP2 MLOAD DUP2 LT PUSH2 0x24A3 JUMPI INVALID JUMPDEST PUSH1 0x20 MUL PUSH1 0x20 ADD ADD MLOAD DUP5 DUP4 DUP2 MLOAD DUP2 LT PUSH2 0x24B7 JUMPI INVALID JUMPDEST PUSH1 0x20 MUL PUSH1 0x20 ADD ADD MLOAD DUP5 PUSH4 0xFFFFFFFF AND JUMP JUMPDEST DUP5 DUP3 DUP2 MLOAD DUP2 LT PUSH2 0x24D4 JUMPI INVALID JUMPDEST PUSH1 0x20 SWAP1 DUP2 MUL SWAP2 SWAP1 SWAP2 ADD ADD MSTORE PUSH1 0x1 ADD PUSH2 0x2485 JUMP JUMPDEST POP POP POP POP JUMP JUMPDEST PUSH1 0x0 PUSH1 0x60 PUSH1 0x0 PUSH2 0x24FC DUP5 PUSH2 0x2911 JUMP JUMPDEST SWAP1 POP PUSH1 0x0 DUP2 PUSH1 0x2 DUP2 GT ISZERO PUSH2 0x250C JUMPI INVALID JUMPDEST EQ ISZERO PUSH2 0x2527 JUMPI PUSH2 0x251D DUP8 DUP8 DUP7 PUSH2 0x2927 JUMP JUMPDEST SWAP3 POP SWAP3 POP POP PUSH2 0x2553 JUMP JUMPDEST PUSH1 0x1 DUP2 PUSH1 0x2 DUP2 GT ISZERO PUSH2 0x2535 JUMPI INVALID JUMPDEST EQ ISZERO PUSH2 0x2545 JUMPI PUSH2 0x251D DUP8 DUP6 PUSH2 0x2A09 JUMP JUMPDEST PUSH2 0x251D DUP8 DUP8 DUP8 DUP8 PUSH2 0x2A3B JUMP JUMPDEST POP JUMPDEST SWAP5 POP SWAP5 SWAP3 POP POP POP JUMP JUMPDEST PUSH1 0x0 PUSH2 0x256B DUP5 DUP5 PUSH2 0xE07 PUSH2 0x2482 JUMP JUMPDEST PUSH2 0x1DFD DUP3 DUP6 PUSH2 0x1FB4 JUMP JUMPDEST PUSH2 0x768 DUP3 DUP3 PUSH2 0x2AA9 JUMP JUMPDEST PUSH1 0x0 PUSH1 0x60 DUP1 PUSH2 0x258C PUSH2 0x13D3 JUMP JUMPDEST PUSH1 0x0 DUP1 PUSH2 0x2597 PUSH2 0x1F36 JUMP JUMPDEST SWAP2 POP SWAP2 POP PUSH1 0x0 PUSH2 0x25A7 DUP4 DUP13 PUSH2 0x1FB4 JUMP JUMPDEST SWAP1 POP PUSH1 0x0 PUSH2 0x25BB DUP13 DUP6 DUP6 PUSH1 0x9 SLOAD DUP7 DUP16 PUSH2 0x23D3 JUMP JUMPDEST SWAP1 POP PUSH2 0x25CA DUP13 DUP3 PUSH2 0xE07 PUSH2 0x2482 JUMP JUMPDEST PUSH1 0x0 DUP1 PUSH2 0x25D9 DUP15 DUP8 DUP14 DUP14 PUSH2 0x2B65 JUMP JUMPDEST SWAP2 POP SWAP2 POP PUSH2 0x25E8 DUP15 DUP3 DUP9 PUSH2 0x2BC0 JUMP JUMPDEST PUSH1 0x9 SSTORE SWAP1 SWAP8 POP SWAP6 POP SWAP4 POP POP POP POP SWAP9 POP SWAP9 POP SWAP9 SWAP6 POP POP POP POP POP POP JUMP JUMPDEST PUSH1 0x0 DUP3 DUP3 MUL PUSH2 0x261D DUP5 ISZERO DUP1 PUSH2 0xEE3 JUMPI POP DUP4 DUP6 DUP4 DUP2 PUSH2 0xEE0 JUMPI INVALID JUMPDEST PUSH8 0xDE0B6B3A7640000 SWAP1 DIV SWAP4 SWAP3 POP POP POP JUMP JUMPDEST PUSH1 0x0 PUSH2 0x2639 PUSH2 0x13D3 JUMP JUMPDEST PUSH2 0x1DFD DUP4 PUSH2 0x264A DUP7 PUSH1 0x20 ADD MLOAD PUSH2 0x2BCF JUMP JUMPDEST DUP5 PUSH2 0x2658 DUP9 PUSH1 0x40 ADD MLOAD PUSH2 0x2BCF JUMP JUMPDEST DUP9 PUSH1 0x60 ADD MLOAD PUSH2 0x2CF1 JUMP JUMPDEST PUSH1 0x0 PUSH2 0x266C PUSH2 0x13D3 JUMP JUMPDEST PUSH2 0x1DFD DUP4 PUSH2 0x267D DUP7 PUSH1 0x20 ADD MLOAD PUSH2 0x2BCF JUMP JUMPDEST DUP5 PUSH2 0x268B DUP9 PUSH1 0x40 ADD MLOAD PUSH2 0x2BCF JUMP JUMPDEST DUP9 PUSH1 0x60 ADD MLOAD PUSH2 0x2D5E JUMP JUMPDEST PUSH1 0x0 DUP1 PUSH2 0x26A2 DUP5 DUP5 PUSH2 0x2DD4 JUMP JUMPDEST SWAP1 POP PUSH1 0x0 PUSH2 0x26BC PUSH2 0x26B5 DUP4 PUSH2 0x2710 PUSH2 0xEC6 JUMP JUMPDEST PUSH1 0x1 PUSH2 0xE7B JUMP JUMPDEST SWAP1 POP DUP1 DUP3 LT ISZERO PUSH2 0x26D1 JUMPI PUSH1 0x0 SWAP3 POP POP POP PUSH2 0x57E JUMP JUMPDEST PUSH2 0x26DB DUP3 DUP3 PUSH2 0xE07 JUMP JUMPDEST SWAP3 POP POP POP PUSH2 0x57E JUMP JUMPDEST PUSH1 0x0 PUSH1 0x60 PUSH2 0x270F PUSH2 0x26F3 PUSH2 0x972 JUMP JUMPDEST PUSH1 0x1 PUSH1 0x1 PUSH1 0xA0 SHL SUB AND DUP8 PUSH1 0x1 PUSH1 0x1 PUSH1 0xA0 SHL SUB AND EQ PUSH2 0x148 PUSH2 0x1248 JUMP JUMPDEST PUSH2 0x271C DUP8 DUP8 DUP8 DUP8 DUP8 PUSH2 0x2ED5 JUMP JUMPDEST SWAP2 POP SWAP2 POP SWAP6 POP SWAP6 SWAP4 POP POP POP POP JUMP JUMPDEST PUSH2 0x768 DUP3 DUP3 PUSH2 0x2F69 JUMP JUMPDEST PUSH1 0x0 PUSH2 0x2746 PUSH4 0x3806BE4B PUSH1 0xE2 SHL PUSH2 0x8FA JUMP JUMPDEST DUP3 EQ DUP1 PUSH2 0x2761 JUMPI POP PUSH2 0x275E PUSH4 0x3E569205 PUSH1 0xE0 SHL PUSH2 0x8FA JUMP JUMPDEST DUP3 EQ JUMPDEST DUP1 PUSH2 0x57E JUMPI POP PUSH2 0x57E DUP3 PUSH2 0x2FF7 JUMP JUMPDEST SHR PUSH4 0x7FFFFFFF AND SWAP1 JUMP JUMPDEST PUSH1 0x0 PUSH2 0x57E PUSH4 0x7FFFFFFF PUSH2 0xE37 DUP5 PUSH8 0xDE0B6B3A7640000 PUSH2 0xEC6 JUMP JUMPDEST PUSH1 0x0 TIMESTAMP DUP2 PUSH2 0x27A5 DUP5 PUSH1 0xC0 PUSH2 0x1B42 JUMP JUMPDEST SWAP1 POP PUSH1 0x0 PUSH2 0x27B4 DUP6 PUSH1 0xE0 PUSH2 0x1B42 JUMP JUMPDEST SWAP1 POP DUP1 DUP4 GT ISZERO PUSH2 0x27D1 JUMPI PUSH8 0xDE0B6B3A7640000 SWAP4 POP POP POP POP PUSH2 0x7F9 JUMP JUMPDEST DUP2 DUP4 LT ISZERO PUSH2 0x27E5 JUMPI PUSH1 0x0 SWAP4 POP POP POP POP PUSH2 0x7F9 JUMP JUMPDEST DUP2 DUP2 SUB DUP3 DUP5 SUB DUP2 ISZERO PUSH2 0x2800 JUMPI PUSH2 0x27FB DUP2 DUP4 PUSH2 0x1A57 JUMP JUMPDEST PUSH2 0x280A JUMP JUMPDEST PUSH8 0xDE0B6B3A7640000 JUMPDEST SWAP8 SWAP7 POP POP POP POP POP POP POP JUMP JUMPDEST PUSH1 0x0 DUP2 ISZERO DUP1 PUSH2 0x2823 JUMPI POP DUP3 DUP5 EQ JUMPDEST ISZERO PUSH2 0x282F JUMPI POP DUP3 PUSH2 0x645 JUMP JUMPDEST PUSH8 0xDE0B6B3A7640000 DUP3 LT PUSH2 0x2845 JUMPI POP DUP2 PUSH2 0x645 JUMP JUMPDEST DUP3 DUP5 GT ISZERO PUSH2 0x286F JUMPI PUSH1 0x0 PUSH2 0x285B DUP4 DUP6 DUP8 SUB PUSH2 0x2603 JUMP JUMPDEST SWAP1 POP PUSH2 0x2867 DUP6 DUP3 PUSH2 0xE07 JUMP JUMPDEST SWAP2 POP POP PUSH2 0x645 JUMP JUMPDEST PUSH1 0x0 PUSH2 0x287D DUP4 DUP7 DUP7 SUB PUSH2 0x2603 JUMP JUMPDEST SWAP1 POP PUSH2 0x2867 DUP6 DUP3 PUSH2 0xE7B JUMP JUMPDEST PUSH1 0x0 DUP4 DUP4 GT PUSH2 0x289A JUMPI POP PUSH1 0x0 PUSH2 0x2908 JUMP JUMPDEST PUSH1 0x0 PUSH2 0x28A6 DUP6 DUP6 PUSH2 0xF14 JUMP JUMPDEST SWAP1 POP PUSH1 0x0 PUSH2 0x28BC PUSH8 0xDE0B6B3A7640000 DUP9 PUSH2 0x1A57 JUMP JUMPDEST SWAP1 POP PUSH2 0x28D0 DUP3 PUSH8 0x9B6E64A8EC60000 PUSH2 0x1490 JUMP JUMPDEST SWAP2 POP PUSH1 0x0 PUSH2 0x28DE DUP4 DUP4 PUSH2 0x3029 JUMP JUMPDEST SWAP1 POP PUSH1 0x0 PUSH2 0x28F5 PUSH2 0x28EE DUP4 PUSH2 0x3055 JUMP JUMPDEST DUP12 SWAP1 PUSH2 0x2603 JUMP JUMPDEST SWAP1 POP PUSH2 0x2901 DUP2 DUP8 PUSH2 0x2603 JUMP JUMPDEST SWAP5 POP POP POP POP POP JUMPDEST SWAP6 SWAP5 POP POP POP POP POP JUMP JUMPDEST PUSH1 0x0 DUP2 DUP1 PUSH1 0x20 ADD SWAP1 MLOAD DUP2 ADD SWAP1 PUSH2 0x57E SWAP2 SWAP1 PUSH2 0x4598 JUMP JUMPDEST PUSH1 0x0 PUSH1 0x60 PUSH2 0x2933 PUSH2 0x13D3 JUMP JUMPDEST PUSH1 0x0 DUP1 PUSH2 0x293F DUP6 PUSH2 0x307B JUMP JUMPDEST SWAP2 POP SWAP2 POP PUSH2 0x2957 PUSH2 0x294E PUSH2 0x146C JUMP JUMPDEST DUP3 LT PUSH1 0x64 PUSH2 0x1248 JUMP JUMPDEST PUSH1 0x0 PUSH2 0x2961 PUSH2 0x146C JUMP JUMPDEST PUSH1 0x1 PUSH1 0x1 PUSH1 0x40 SHL SUB DUP2 GT DUP1 ISZERO PUSH2 0x2976 JUMPI PUSH1 0x0 DUP1 REVERT JUMPDEST POP PUSH1 0x40 MLOAD SWAP1 DUP1 DUP3 MSTORE DUP1 PUSH1 0x20 MUL PUSH1 0x20 ADD DUP3 ADD PUSH1 0x40 MSTORE DUP1 ISZERO PUSH2 0x29A0 JUMPI DUP2 PUSH1 0x20 ADD PUSH1 0x20 DUP3 MUL DUP1 CALLDATASIZE DUP4 CALLDATACOPY ADD SWAP1 POP JUMPDEST POP SWAP1 POP PUSH2 0x29E4 DUP9 DUP4 DUP2 MLOAD DUP2 LT PUSH2 0x29B2 JUMPI INVALID JUMPDEST PUSH1 0x20 MUL PUSH1 0x20 ADD ADD MLOAD DUP9 DUP5 DUP2 MLOAD DUP2 LT PUSH2 0x29C6 JUMPI INVALID JUMPDEST PUSH1 0x20 MUL PUSH1 0x20 ADD ADD MLOAD DUP6 PUSH2 0x29D7 PUSH2 0x598 JUMP JUMPDEST PUSH2 0x29DF PUSH2 0x76C JUMP JUMPDEST PUSH2 0x309D JUMP JUMPDEST DUP2 DUP4 DUP2 MLOAD DUP2 LT PUSH2 0x29F0 JUMPI INVALID JUMPDEST PUSH1 0x20 SWAP1 DUP2 MUL SWAP2 SWAP1 SWAP2 ADD ADD MSTORE SWAP2 SWAP8 SWAP2 SWAP7 POP SWAP1 SWAP5 POP POP POP POP POP JUMP JUMPDEST PUSH1 0x0 PUSH1 0x60 PUSH1 0x0 PUSH2 0x2A18 DUP5 PUSH2 0x315D JUMP JUMPDEST SWAP1 POP PUSH1 0x0 PUSH2 0x2A2E DUP7 DUP4 PUSH2 0x2A29 PUSH2 0x598 JUMP JUMPDEST PUSH2 0x3173 JUMP JUMPDEST SWAP2 SWAP7 SWAP2 SWAP6 POP SWAP1 SWAP4 POP POP POP POP JUMP JUMPDEST PUSH1 0x0 PUSH1 0x60 PUSH2 0x2A47 PUSH2 0x13D3 JUMP JUMPDEST PUSH1 0x0 DUP1 PUSH2 0x2A53 DUP6 PUSH2 0x3224 JUMP JUMPDEST SWAP2 POP SWAP2 POP PUSH2 0x2A64 DUP3 MLOAD PUSH2 0x78E PUSH2 0x146C JUMP JUMPDEST PUSH2 0x2A6E DUP3 DUP8 PUSH2 0x1ED5 JUMP JUMPDEST PUSH1 0x0 PUSH2 0x2A8B DUP10 DUP10 DUP6 PUSH2 0x2A7E PUSH2 0x598 JUMP JUMPDEST PUSH2 0x2A86 PUSH2 0x76C JUMP JUMPDEST PUSH2 0x323C JUMP JUMPDEST SWAP1 POP PUSH2 0x2A9B DUP3 DUP3 GT ISZERO PUSH1 0xCF PUSH2 0x1248 JUMP JUMPDEST SWAP9 SWAP2 SWAP8 POP SWAP1 SWAP6 POP POP POP POP POP POP JUMP JUMPDEST PUSH2 0x2AC0 PUSH1 0x1 PUSH1 0x1 PUSH1 0xA0 SHL SUB DUP4 AND ISZERO ISZERO PUSH2 0x19B PUSH2 0x1248 JUMP JUMPDEST PUSH2 0x2ACC DUP3 PUSH1 0x0 DUP4 PUSH2 0x739 JUMP JUMPDEST PUSH1 0x1 PUSH1 0x1 PUSH1 0xA0 SHL SUB DUP3 AND PUSH1 0x0 SWAP1 DUP2 MSTORE PUSH1 0x20 DUP2 SWAP1 MSTORE PUSH1 0x40 SWAP1 KECCAK256 SLOAD PUSH2 0x2AF2 SWAP1 DUP3 PUSH2 0x1A1 PUSH2 0x2363 JUMP JUMPDEST PUSH1 0x1 PUSH1 0x1 PUSH1 0xA0 SHL SUB DUP4 AND PUSH1 0x0 SWAP1 DUP2 MSTORE PUSH1 0x20 DUP2 SWAP1 MSTORE PUSH1 0x40 SWAP1 KECCAK256 SSTORE PUSH1 0x2 SLOAD PUSH2 0x2B18 SWAP1 DUP3 PUSH2 0x3468 JUMP JUMPDEST PUSH1 0x2 SSTORE PUSH1 0x40 MLOAD PUSH1 0x0 SWAP1 PUSH1 0x1 PUSH1 0x1 PUSH1 0xA0 SHL SUB DUP5 AND SWAP1 PUSH32 0xDDF252AD1BE2C89B69C2B068FC378DAA952BA7F163C4A11628F55A4DF523B3EF SWAP1 PUSH2 0x2B59 SWAP1 DUP6 SWAP1 PUSH2 0x4973 JUMP JUMPDEST PUSH1 0x40 MLOAD DUP1 SWAP2 SUB SWAP1 LOG3 POP POP JUMP JUMPDEST PUSH1 0x0 PUSH1 0x60 PUSH1 0x0 PUSH2 0x2B74 DUP5 PUSH2 0x2911 JUMP JUMPDEST SWAP1 POP PUSH1 0x1 DUP2 PUSH1 0x2 DUP2 GT ISZERO PUSH2 0x2B84 JUMPI INVALID JUMPDEST EQ ISZERO PUSH2 0x2B96 JUMPI PUSH2 0x251D DUP8 DUP8 DUP8 DUP8 PUSH2 0x3476 JUMP JUMPDEST PUSH1 0x2 DUP2 PUSH1 0x2 DUP2 GT ISZERO PUSH2 0x2BA4 JUMPI INVALID JUMPDEST EQ ISZERO PUSH2 0x2BB5 JUMPI PUSH2 0x251D DUP8 DUP8 DUP7 PUSH2 0x34D3 JUMP JUMPDEST PUSH2 0x2551 PUSH2 0x136 PUSH2 0x2310 JUMP JUMPDEST PUSH1 0x0 PUSH2 0x256B DUP5 DUP5 PUSH2 0xE7B PUSH2 0x2482 JUMP JUMPDEST PUSH1 0x0 DUP1 PUSH32 0x0 PUSH1 0x1 PUSH1 0x1 PUSH1 0xA0 SHL SUB AND DUP4 PUSH1 0x1 PUSH1 0x1 PUSH1 0xA0 SHL SUB AND EQ ISZERO PUSH2 0x2C14 JUMPI POP PUSH1 0x0 PUSH2 0x2CE5 JUMP JUMPDEST PUSH32 0x0 PUSH1 0x1 PUSH1 0x1 PUSH1 0xA0 SHL SUB AND DUP4 PUSH1 0x1 PUSH1 0x1 PUSH1 0xA0 SHL SUB AND EQ ISZERO PUSH2 0x2C56 JUMPI POP PUSH1 0x1 PUSH2 0x2CE5 JUMP JUMPDEST PUSH32 0x0 PUSH1 0x1 PUSH1 0x1 PUSH1 0xA0 SHL SUB AND DUP4 PUSH1 0x1 PUSH1 0x1 PUSH1 0xA0 SHL SUB AND EQ ISZERO PUSH2 0x2C98 JUMPI POP PUSH1 0x2 PUSH2 0x2CE5 JUMP JUMPDEST PUSH32 0x0 PUSH1 0x1 PUSH1 0x1 PUSH1 0xA0 SHL SUB AND DUP4 PUSH1 0x1 PUSH1 0x1 PUSH1 0xA0 SHL SUB AND EQ ISZERO PUSH2 0x2CDA JUMPI POP PUSH1 0x3 PUSH2 0x2CE5 JUMP JUMPDEST PUSH2 0x2CE5 PUSH2 0x135 PUSH2 0x2310 JUMP JUMPDEST PUSH2 0x645 DUP2 PUSH1 0xB SLOAD PUSH2 0x237D JUMP JUMPDEST PUSH1 0x0 PUSH2 0x2D13 PUSH2 0x2D08 DUP8 PUSH8 0x429D069189E0000 PUSH2 0x2603 JUMP JUMPDEST DUP4 GT ISZERO PUSH2 0x130 PUSH2 0x1248 JUMP JUMPDEST PUSH1 0x0 PUSH2 0x2D1F DUP8 DUP5 PUSH2 0xE7B JUMP JUMPDEST SWAP1 POP PUSH1 0x0 PUSH2 0x2D2D DUP9 DUP4 PUSH2 0xF14 JUMP JUMPDEST SWAP1 POP PUSH1 0x0 PUSH2 0x2D3B DUP9 DUP8 PUSH2 0x1A57 JUMP JUMPDEST SWAP1 POP PUSH1 0x0 PUSH2 0x2D49 DUP4 DUP4 PUSH2 0x3029 JUMP JUMPDEST SWAP1 POP PUSH2 0x2901 PUSH2 0x2D57 DUP3 PUSH2 0x3055 JUMP JUMPDEST DUP10 SWAP1 PUSH2 0x2603 JUMP JUMPDEST PUSH1 0x0 PUSH2 0x2D80 PUSH2 0x2D75 DUP6 PUSH8 0x429D069189E0000 PUSH2 0x2603 JUMP JUMPDEST DUP4 GT ISZERO PUSH2 0x131 PUSH2 0x1248 JUMP JUMPDEST PUSH1 0x0 PUSH2 0x2D96 PUSH2 0x2D8F DUP7 DUP6 PUSH2 0xE07 JUMP JUMPDEST DUP7 SWAP1 PUSH2 0xF14 JUMP JUMPDEST SWAP1 POP PUSH1 0x0 PUSH2 0x2DA4 DUP6 DUP9 PUSH2 0xF14 JUMP JUMPDEST SWAP1 POP PUSH1 0x0 PUSH2 0x2DB2 DUP4 DUP4 PUSH2 0x3029 JUMP JUMPDEST SWAP1 POP PUSH1 0x0 PUSH2 0x2DC8 DUP3 PUSH8 0xDE0B6B3A7640000 PUSH2 0xE07 JUMP JUMPDEST SWAP1 POP PUSH2 0x2901 DUP11 DUP3 PUSH2 0xEC6 JUMP JUMPDEST PUSH1 0x0 DUP2 PUSH2 0x2DEA JUMPI POP PUSH8 0xDE0B6B3A7640000 PUSH2 0x57E JUMP JUMPDEST DUP3 PUSH2 0x2DF7 JUMPI POP PUSH1 0x0 PUSH2 0x57E JUMP JUMPDEST PUSH2 0x2E08 PUSH1 0x1 PUSH1 0xFF SHL DUP5 LT PUSH1 0x6 PUSH2 0x1248 JUMP JUMPDEST DUP3 PUSH2 0x2E2E PUSH24 0xBCE5086492111AEA88F4BB1CA6BCF584181EA8059F76532 DUP5 LT PUSH1 0x7 PUSH2 0x1248 JUMP JUMPDEST DUP3 PUSH1 0x0 PUSH8 0xC7D713B49DA0000 DUP4 SGT DUP1 ISZERO PUSH2 0x2E4F JUMPI POP PUSH8 0xF43FC2C04EE0000 DUP4 SLT JUMPDEST ISZERO PUSH2 0x2E86 JUMPI PUSH1 0x0 PUSH2 0x2E5F DUP5 PUSH2 0x357F JUMP JUMPDEST SWAP1 POP PUSH8 0xDE0B6B3A7640000 DUP1 DUP3 SMOD DUP5 MUL SDIV DUP4 PUSH8 0xDE0B6B3A7640000 DUP4 SDIV MUL ADD SWAP2 POP POP PUSH2 0x2E94 JUMP JUMPDEST DUP2 PUSH2 0x2E90 DUP5 PUSH2 0x369D JUMP JUMPDEST MUL SWAP1 POP JUMPDEST PUSH8 0xDE0B6B3A7640000 SWAP1 SDIV PUSH2 0x2ECC PUSH9 0x238FD42C5CF03FFFF NOT DUP3 SLT DUP1 ISZERO SWAP1 PUSH2 0x2EC5 JUMPI POP PUSH9 0x70C1CC73B00C80000 DUP3 SGT ISZERO JUMPDEST PUSH1 0x8 PUSH2 0x1248 JUMP JUMPDEST PUSH2 0x23C9 DUP2 PUSH2 0x3A3C JUMP JUMPDEST PUSH1 0x0 PUSH1 0x60 PUSH2 0x2EE1 PUSH2 0x13D3 JUMP JUMPDEST PUSH1 0x0 PUSH2 0x2EEC DUP5 PUSH2 0x2911 JUMP JUMPDEST SWAP1 POP PUSH2 0x2F07 PUSH1 0x0 DUP3 PUSH1 0x2 DUP2 GT ISZERO PUSH2 0x2EFF JUMPI INVALID JUMPDEST EQ PUSH1 0xCE PUSH2 0x1248 JUMP JUMPDEST PUSH1 0x0 PUSH2 0x2F12 DUP6 PUSH2 0x3E19 JUMP JUMPDEST SWAP1 POP PUSH2 0x2F1F PUSH2 0x6FA PUSH2 0x146C JUMP JUMPDEST PUSH2 0x2F29 DUP2 DUP8 PUSH2 0x1ED5 JUMP JUMPDEST PUSH1 0x0 PUSH2 0x2F33 PUSH2 0x1F36 JUMP JUMPDEST POP SWAP1 POP PUSH1 0x0 PUSH2 0x2F42 DUP3 DUP5 PUSH2 0x1FB4 JUMP JUMPDEST SWAP1 POP PUSH1 0x0 PUSH2 0x2F52 DUP3 PUSH2 0x7D4 PUSH2 0x146C JUMP JUMPDEST PUSH1 0x9 SWAP3 SWAP1 SWAP3 SSTORE POP SWAP11 SWAP2 SWAP10 POP SWAP1 SWAP8 POP POP POP POP POP POP POP POP JUMP JUMPDEST PUSH2 0x2F75 PUSH1 0x0 DUP4 DUP4 PUSH2 0x739 JUMP JUMPDEST PUSH1 0x2 SLOAD PUSH2 0x2F82 SWAP1 DUP3 PUSH2 0xE7B JUMP JUMPDEST PUSH1 0x2 SSTORE PUSH1 0x1 PUSH1 0x1 PUSH1 0xA0 SHL SUB DUP3 AND PUSH1 0x0 SWAP1 DUP2 MSTORE PUSH1 0x20 DUP2 SWAP1 MSTORE PUSH1 0x40 SWAP1 KECCAK256 SLOAD PUSH2 0x2FA8 SWAP1 DUP3 PUSH2 0xE7B JUMP JUMPDEST PUSH1 0x1 PUSH1 0x1 PUSH1 0xA0 SHL SUB DUP4 AND PUSH1 0x0 DUP2 DUP2 MSTORE PUSH1 0x20 DUP2 SWAP1 MSTORE PUSH1 0x40 DUP1 DUP3 KECCAK256 SWAP4 SWAP1 SWAP4 SSTORE SWAP2 MLOAD SWAP1 SWAP2 SWAP1 PUSH32 0xDDF252AD1BE2C89B69C2B068FC378DAA952BA7F163C4A11628F55A4DF523B3EF SWAP1 PUSH2 0x2B59 SWAP1 DUP6 SWAP1 PUSH2 0x4973 JUMP JUMPDEST PUSH1 0x0 PUSH2 0x3009 PUSH4 0x1C74C917 PUSH1 0xE1 SHL PUSH2 0x8FA JUMP JUMPDEST DUP3 EQ DUP1 PUSH2 0x57E JUMPI POP PUSH2 0x3021 PUSH4 0x50DD6ED9 PUSH1 0xE0 SHL PUSH2 0x8FA JUMP JUMPDEST SWAP1 SWAP2 EQ SWAP2 SWAP1 POP JUMP JUMPDEST PUSH1 0x0 DUP1 PUSH2 0x3036 DUP5 DUP5 PUSH2 0x2DD4 JUMP JUMPDEST SWAP1 POP PUSH1 0x0 PUSH2 0x3049 PUSH2 0x26B5 DUP4 PUSH2 0x2710 PUSH2 0xEC6 JUMP JUMPDEST SWAP1 POP PUSH2 0x2908 DUP3 DUP3 PUSH2 0xE7B JUMP JUMPDEST PUSH1 0x0 PUSH8 0xDE0B6B3A7640000 DUP3 LT PUSH2 0x306D JUMPI PUSH1 0x0 PUSH2 0x57E JUMP JUMPDEST POP PUSH8 0xDE0B6B3A7640000 SUB SWAP1 JUMP JUMPDEST PUSH1 0x0 DUP1 DUP3 DUP1 PUSH1 0x20 ADD SWAP1 MLOAD DUP2 ADD SWAP1 PUSH2 0x3092 SWAP2 SWAP1 PUSH2 0x4627 JUMP JUMPDEST SWAP1 SWAP6 SWAP1 SWAP5 POP SWAP3 POP POP POP JUMP JUMPDEST PUSH1 0x0 DUP1 PUSH2 0x30AE DUP5 PUSH2 0xE37 DUP2 DUP9 PUSH2 0xE07 JUMP JUMPDEST SWAP1 POP PUSH2 0x30C7 PUSH8 0x9B6E64A8EC60000 DUP3 LT ISZERO PUSH2 0x132 PUSH2 0x1248 JUMP JUMPDEST PUSH1 0x0 PUSH2 0x30E5 PUSH2 0x30DE PUSH8 0xDE0B6B3A7640000 DUP10 PUSH2 0x1A57 JUMP JUMPDEST DUP4 SWAP1 PUSH2 0x3029 JUMP JUMPDEST SWAP1 POP PUSH1 0x0 PUSH2 0x30FC PUSH2 0x30F5 DUP4 PUSH2 0x3055 JUMP JUMPDEST DUP11 SWAP1 PUSH2 0x2603 JUMP JUMPDEST SWAP1 POP PUSH1 0x0 PUSH2 0x3109 DUP10 PUSH2 0x3055 JUMP JUMPDEST SWAP1 POP PUSH1 0x0 PUSH2 0x3117 DUP4 DUP4 PUSH2 0xEC6 JUMP JUMPDEST SWAP1 POP PUSH1 0x0 PUSH2 0x3125 DUP5 DUP4 PUSH2 0xE07 JUMP JUMPDEST SWAP1 POP PUSH2 0x314D PUSH2 0x3146 PUSH2 0x313F PUSH8 0xDE0B6B3A7640000 DUP12 PUSH2 0xE07 JUMP JUMPDEST DUP5 SWAP1 PUSH2 0x2603 JUMP JUMPDEST DUP3 SWAP1 PUSH2 0xE7B JUMP JUMPDEST SWAP13 SWAP12 POP POP POP POP POP POP POP POP POP POP POP POP JUMP JUMPDEST PUSH1 0x0 DUP2 DUP1 PUSH1 0x20 ADD SWAP1 MLOAD DUP2 ADD SWAP1 PUSH2 0x645 SWAP2 SWAP1 PUSH2 0x45FA JUMP JUMPDEST PUSH1 0x60 PUSH1 0x0 PUSH2 0x3181 DUP5 DUP5 PUSH2 0x1A57 JUMP JUMPDEST SWAP1 POP PUSH1 0x0 DUP6 MLOAD PUSH1 0x1 PUSH1 0x1 PUSH1 0x40 SHL SUB DUP2 GT DUP1 ISZERO PUSH2 0x319C JUMPI PUSH1 0x0 DUP1 REVERT JUMPDEST POP PUSH1 0x40 MLOAD SWAP1 DUP1 DUP3 MSTORE DUP1 PUSH1 0x20 MUL PUSH1 0x20 ADD DUP3 ADD PUSH1 0x40 MSTORE DUP1 ISZERO PUSH2 0x31C6 JUMPI DUP2 PUSH1 0x20 ADD PUSH1 0x20 DUP3 MUL DUP1 CALLDATASIZE DUP4 CALLDATACOPY ADD SWAP1 POP JUMPDEST POP SWAP1 POP PUSH1 0x0 JUMPDEST DUP7 MLOAD DUP2 LT ISZERO PUSH2 0x321A JUMPI PUSH2 0x31FB DUP4 DUP9 DUP4 DUP2 MLOAD DUP2 LT PUSH2 0x31E5 JUMPI INVALID JUMPDEST PUSH1 0x20 MUL PUSH1 0x20 ADD ADD MLOAD PUSH2 0x2603 SWAP1 SWAP2 SWAP1 PUSH4 0xFFFFFFFF AND JUMP JUMPDEST DUP3 DUP3 DUP2 MLOAD DUP2 LT PUSH2 0x3207 JUMPI INVALID JUMPDEST PUSH1 0x20 SWAP1 DUP2 MUL SWAP2 SWAP1 SWAP2 ADD ADD MSTORE PUSH1 0x1 ADD PUSH2 0x31CC JUMP JUMPDEST POP SWAP6 SWAP5 POP POP POP POP POP JUMP JUMPDEST PUSH1 0x60 PUSH1 0x0 DUP3 DUP1 PUSH1 0x20 ADD SWAP1 MLOAD DUP2 ADD SWAP1 PUSH2 0x3092 SWAP2 SWAP1 PUSH2 0x45B4 JUMP JUMPDEST PUSH1 0x0 DUP1 DUP5 MLOAD PUSH1 0x1 PUSH1 0x1 PUSH1 0x40 SHL SUB DUP2 GT DUP1 ISZERO PUSH2 0x3256 JUMPI PUSH1 0x0 DUP1 REVERT JUMPDEST POP PUSH1 0x40 MLOAD SWAP1 DUP1 DUP3 MSTORE DUP1 PUSH1 0x20 MUL PUSH1 0x20 ADD DUP3 ADD PUSH1 0x40 MSTORE DUP1 ISZERO PUSH2 0x3280 JUMPI DUP2 PUSH1 0x20 ADD PUSH1 0x20 DUP3 MUL DUP1 CALLDATASIZE DUP4 CALLDATACOPY ADD SWAP1 POP JUMPDEST POP SWAP1 POP PUSH1 0x0 DUP1 JUMPDEST DUP9 MLOAD DUP2 LT ISZERO PUSH2 0x3345 JUMPI PUSH2 0x32E0 DUP10 DUP3 DUP2 MLOAD DUP2 LT PUSH2 0x329F JUMPI INVALID JUMPDEST PUSH1 0x20 MUL PUSH1 0x20 ADD ADD MLOAD PUSH2 0xE37 DUP10 DUP5 DUP2 MLOAD DUP2 LT PUSH2 0x32B6 JUMPI INVALID JUMPDEST PUSH1 0x20 MUL PUSH1 0x20 ADD ADD MLOAD DUP13 DUP6 DUP2 MLOAD DUP2 LT PUSH2 0x32CA JUMPI INVALID JUMPDEST PUSH1 0x20 MUL PUSH1 0x20 ADD ADD MLOAD PUSH2 0xE07 SWAP1 SWAP2 SWAP1 PUSH4 0xFFFFFFFF AND JUMP JUMPDEST DUP4 DUP3 DUP2 MLOAD DUP2 LT PUSH2 0x32EC JUMPI INVALID JUMPDEST PUSH1 0x20 MUL PUSH1 0x20 ADD ADD DUP2 DUP2 MSTORE POP POP PUSH2 0x333B PUSH2 0x3334 DUP10 DUP4 DUP2 MLOAD DUP2 LT PUSH2 0x330A JUMPI INVALID JUMPDEST PUSH1 0x20 MUL PUSH1 0x20 ADD ADD MLOAD DUP6 DUP5 DUP2 MLOAD DUP2 LT PUSH2 0x331E JUMPI INVALID JUMPDEST PUSH1 0x20 MUL PUSH1 0x20 ADD ADD MLOAD PUSH2 0xEC6 SWAP1 SWAP2 SWAP1 PUSH4 0xFFFFFFFF AND JUMP JUMPDEST DUP4 SWAP1 PUSH2 0xE7B JUMP JUMPDEST SWAP2 POP PUSH1 0x1 ADD PUSH2 0x3287 JUMP JUMPDEST POP PUSH8 0xDE0B6B3A7640000 PUSH1 0x0 JUMPDEST DUP10 MLOAD DUP2 LT ISZERO PUSH2 0x3447 JUMPI PUSH1 0x0 DUP5 DUP3 DUP2 MLOAD DUP2 LT PUSH2 0x3369 JUMPI INVALID JUMPDEST PUSH1 0x20 MUL PUSH1 0x20 ADD ADD MLOAD DUP5 GT ISZERO PUSH2 0x33C9 JUMPI PUSH1 0x0 PUSH2 0x3392 PUSH2 0x3386 DUP7 PUSH2 0x3055 JUMP JUMPDEST DUP14 DUP6 DUP2 MLOAD DUP2 LT PUSH2 0x31E5 JUMPI INVALID JUMPDEST SWAP1 POP PUSH1 0x0 PUSH2 0x33A6 DUP3 DUP13 DUP7 DUP2 MLOAD DUP2 LT PUSH2 0x32CA JUMPI INVALID JUMPDEST SWAP1 POP PUSH2 0x33C0 PUSH2 0x3334 PUSH2 0x1E54 PUSH8 0xDE0B6B3A7640000 DUP13 PUSH2 0xE07 JUMP JUMPDEST SWAP3 POP POP POP PUSH2 0x33E0 JUMP JUMPDEST DUP9 DUP3 DUP2 MLOAD DUP2 LT PUSH2 0x33D5 JUMPI INVALID JUMPDEST PUSH1 0x20 MUL PUSH1 0x20 ADD ADD MLOAD SWAP1 POP JUMPDEST PUSH1 0x0 PUSH2 0x3409 DUP13 DUP5 DUP2 MLOAD DUP2 LT PUSH2 0x33F1 JUMPI INVALID JUMPDEST PUSH1 0x20 MUL PUSH1 0x20 ADD ADD MLOAD PUSH2 0x7D9 DUP5 DUP16 DUP8 DUP2 MLOAD DUP2 LT PUSH2 0x32CA JUMPI INVALID JUMPDEST SWAP1 POP PUSH2 0x343B PUSH2 0x3434 DUP13 DUP6 DUP2 MLOAD DUP2 LT PUSH2 0x341D JUMPI INVALID JUMPDEST PUSH1 0x20 MUL PUSH1 0x20 ADD ADD MLOAD DUP4 PUSH2 0x2695 SWAP1 SWAP2 SWAP1 PUSH4 0xFFFFFFFF AND JUMP JUMPDEST DUP6 SWAP1 PUSH2 0x2603 JUMP JUMPDEST SWAP4 POP POP POP PUSH1 0x1 ADD PUSH2 0x3352 JUMP JUMPDEST POP PUSH2 0x345B PUSH2 0x3454 DUP3 PUSH2 0x3055 JUMP JUMPDEST DUP8 SWAP1 PUSH2 0xEC6 JUMP JUMPDEST SWAP10 SWAP9 POP POP POP POP POP POP POP POP POP JUMP JUMPDEST PUSH1 0x0 PUSH2 0x645 DUP4 DUP4 PUSH1 0x1 PUSH2 0x2363 JUMP JUMPDEST PUSH1 0x0 PUSH1 0x60 PUSH1 0x0 DUP1 PUSH2 0x3486 DUP6 PUSH2 0x3224 JUMP JUMPDEST SWAP2 POP SWAP2 POP PUSH2 0x349C PUSH2 0x3495 PUSH2 0x146C JUMP JUMPDEST DUP4 MLOAD PUSH2 0xDE5 JUMP JUMPDEST PUSH2 0x34A6 DUP3 DUP8 PUSH2 0x1ED5 JUMP JUMPDEST PUSH1 0x0 PUSH2 0x34C3 DUP10 DUP10 DUP6 PUSH2 0x34B6 PUSH2 0x598 JUMP JUMPDEST PUSH2 0x34BE PUSH2 0x76C JUMP JUMPDEST PUSH2 0x3E2F JUMP JUMPDEST SWAP1 POP PUSH2 0x2A9B DUP3 DUP3 LT ISZERO PUSH1 0xD0 PUSH2 0x1248 JUMP JUMPDEST PUSH1 0x0 PUSH1 0x60 PUSH1 0x0 DUP1 PUSH2 0x34E3 DUP6 PUSH2 0x307B JUMP JUMPDEST SWAP2 POP SWAP2 POP PUSH2 0x34F2 PUSH2 0x294E PUSH2 0x146C JUMP JUMPDEST PUSH1 0x0 PUSH2 0x34FC PUSH2 0x146C JUMP JUMPDEST PUSH1 0x1 PUSH1 0x1 PUSH1 0x40 SHL SUB DUP2 GT DUP1 ISZERO PUSH2 0x3511 JUMPI PUSH1 0x0 DUP1 REVERT JUMPDEST POP PUSH1 0x40 MLOAD SWAP1 DUP1 DUP3 MSTORE DUP1 PUSH1 0x20 MUL PUSH1 0x20 ADD DUP3 ADD PUSH1 0x40 MSTORE DUP1 ISZERO PUSH2 0x353B JUMPI DUP2 PUSH1 0x20 ADD PUSH1 0x20 DUP3 MUL DUP1 CALLDATASIZE DUP4 CALLDATACOPY ADD SWAP1 POP JUMPDEST POP SWAP1 POP PUSH2 0x29E4 DUP9 DUP4 DUP2 MLOAD DUP2 LT PUSH2 0x354D JUMPI INVALID JUMPDEST PUSH1 0x20 MUL PUSH1 0x20 ADD ADD MLOAD DUP9 DUP5 DUP2 MLOAD DUP2 LT PUSH2 0x3561 JUMPI INVALID JUMPDEST PUSH1 0x20 MUL PUSH1 0x20 ADD ADD MLOAD DUP6 PUSH2 0x3572 PUSH2 0x598 JUMP JUMPDEST PUSH2 0x357A PUSH2 0x76C JUMP JUMPDEST PUSH2 0x403F JUMP JUMPDEST PUSH8 0xDE0B6B3A7640000 MUL PUSH1 0x0 DUP1 PUSH11 0xC097CE7BC90715B34B9F1 PUSH1 0x24 SHL DUP1 DUP5 ADD SWAP1 PUSH15 0xC097CE7BC90715B34B9F0FFFFFFFFF NOT DUP6 ADD MUL DUP2 PUSH2 0x35BA JUMPI INVALID JUMPDEST SDIV SWAP1 POP PUSH1 0x0 PUSH11 0xC097CE7BC90715B34B9F1 PUSH1 0x24 SHL DUP3 DUP1 MUL SDIV SWAP1 POP DUP2 DUP1 PUSH11 0xC097CE7BC90715B34B9F1 PUSH1 0x24 SHL DUP2 DUP5 MUL SDIV SWAP2 POP PUSH1 0x3 DUP3 SDIV ADD PUSH11 0xC097CE7BC90715B34B9F1 PUSH1 0x24 SHL DUP3 DUP5 MUL SDIV SWAP2 POP PUSH1 0x5 DUP3 SDIV ADD PUSH11 0xC097CE7BC90715B34B9F1 PUSH1 0x24 SHL DUP3 DUP5 MUL SDIV SWAP2 POP PUSH1 0x7 DUP3 SDIV ADD PUSH11 0xC097CE7BC90715B34B9F1 PUSH1 0x24 SHL DUP3 DUP5 MUL SDIV SWAP2 POP PUSH1 0x9 DUP3 SDIV ADD PUSH11 0xC097CE7BC90715B34B9F1 PUSH1 0x24 SHL DUP3 DUP5 MUL SDIV SWAP2 POP PUSH1 0xB DUP3 SDIV ADD PUSH11 0xC097CE7BC90715B34B9F1 PUSH1 0x24 SHL DUP3 DUP5 MUL SDIV SWAP2 POP PUSH1 0xD DUP3 SDIV ADD PUSH11 0xC097CE7BC90715B34B9F1 PUSH1 0x24 SHL DUP3 DUP5 MUL SDIV SWAP2 POP PUSH1 0xF DUP3 PUSH1 0x2 SWAP2 SWAP1 SDIV SWAP2 SWAP1 SWAP2 ADD MUL SWAP6 SWAP5 POP POP POP POP POP JUMP JUMPDEST PUSH1 0x0 PUSH8 0xDE0B6B3A7640000 DUP3 SLT ISZERO PUSH2 0x36D9 JUMPI PUSH2 0x36CF DUP3 PUSH11 0xC097CE7BC90715B34B9F1 PUSH1 0x24 SHL DUP2 PUSH2 0x36C9 JUMPI INVALID JUMPDEST SDIV PUSH2 0x369D JUMP JUMPDEST PUSH1 0x0 SUB SWAP1 POP PUSH2 0x7F9 JUMP JUMPDEST PUSH1 0x0 PUSH31 0x1600EF3172E58D2E933EC884FDE10064C63B5372D805E203C0000000000000 DUP4 SLT PUSH2 0x372A JUMPI PUSH24 0x195E54C5DD42177F53A27172FA9EC630262827000000000 DUP4 SDIV SWAP3 POP PUSH9 0x6F05B59D3B2000000 ADD JUMPDEST PUSH20 0x11798004D755D3C8BC8E03204CF44619E000000 DUP4 SLT PUSH2 0x3762 JUMPI PUSH12 0x1425982CF597CD205CEF7380 DUP4 SDIV SWAP3 POP PUSH9 0x3782DACE9D9000000 ADD JUMPDEST PUSH1 0x64 SWAP3 DUP4 MUL SWAP3 MUL PUSH15 0x1855144814A7FF805980FF0084000 DUP4 SLT PUSH2 0x37AA JUMPI PUSH15 0x1855144814A7FF805980FF0084000 PUSH9 0x56BC75E2D63100000 DUP5 MUL SDIV SWAP3 POP PUSH9 0xAD78EBC5AC62000000 ADD JUMPDEST PUSH12 0x2DF0AB5A80A22C61AB5A700 DUP4 SLT PUSH2 0x37E5 JUMPI PUSH12 0x2DF0AB5A80A22C61AB5A700 PUSH9 0x56BC75E2D63100000 DUP5 MUL SDIV SWAP3 POP PUSH9 0x56BC75E2D631000000 ADD JUMPDEST PUSH10 0x3F1FCE3DA636EA5CF850 DUP4 SLT PUSH2 0x381C JUMPI PUSH10 0x3F1FCE3DA636EA5CF850 PUSH9 0x56BC75E2D63100000 DUP5 MUL SDIV SWAP3 POP PUSH9 0x2B5E3AF16B18800000 ADD JUMPDEST PUSH10 0x127FA27722CC06CC5E2 DUP4 SLT PUSH2 0x3853 JUMPI PUSH10 0x127FA27722CC06CC5E2 PUSH9 0x56BC75E2D63100000 DUP5 MUL SDIV SWAP3 POP PUSH9 0x15AF1D78B58C400000 ADD JUMPDEST PUSH9 0x280E60114EDB805D03 DUP4 SLT PUSH2 0x3888 JUMPI PUSH9 0x280E60114EDB805D03 PUSH9 0x56BC75E2D63100000 DUP5 MUL SDIV SWAP3 POP PUSH9 0xAD78EBC5AC6200000 ADD JUMPDEST PUSH9 0xEBC5FB41746121110 DUP4 SLT PUSH2 0x38B3 JUMPI PUSH9 0xEBC5FB41746121110 PUSH9 0x56BC75E2D63100000 SWAP4 DUP5 MUL SDIV SWAP3 ADD JUMPDEST PUSH9 0x8F00F760A4B2DB55D DUP4 SLT PUSH2 0x38E8 JUMPI PUSH9 0x8F00F760A4B2DB55D PUSH9 0x56BC75E2D63100000 DUP5 MUL SDIV SWAP3 POP PUSH9 0x2B5E3AF16B1880000 ADD JUMPDEST PUSH9 0x6F5F1775788937937 DUP4 SLT PUSH2 0x391D JUMPI PUSH9 0x6F5F1775788937937 PUSH9 0x56BC75E2D63100000 DUP5 MUL SDIV SWAP3 POP PUSH9 0x15AF1D78B58C40000 ADD JUMPDEST PUSH9 0x6248F33704B286603 DUP4 SLT PUSH2 0x3951 JUMPI PUSH9 0x6248F33704B286603 PUSH9 0x56BC75E2D63100000 DUP5 MUL SDIV SWAP3 POP PUSH8 0xAD78EBC5AC620000 ADD JUMPDEST PUSH9 0x5C548670B9510E7AC DUP4 SLT PUSH2 0x3985 JUMPI PUSH9 0x5C548670B9510E7AC PUSH9 0x56BC75E2D63100000 DUP5 MUL SDIV SWAP3 POP PUSH8 0x56BC75E2D6310000 ADD JUMPDEST PUSH1 0x0 PUSH9 0x56BC75E2D63100000 DUP5 ADD PUSH9 0x56BC75E2D63100000 DUP1 DUP7 SUB MUL DUP2 PUSH2 0x39A8 JUMPI INVALID JUMPDEST SDIV SWAP1 POP PUSH1 0x0 PUSH9 0x56BC75E2D63100000 DUP3 DUP1 MUL SDIV SWAP1 POP DUP2 DUP1 PUSH9 0x56BC75E2D63100000 DUP2 DUP5 MUL SDIV SWAP2 POP PUSH1 0x3 DUP3 SDIV ADD PUSH9 0x56BC75E2D63100000 DUP3 DUP5 MUL SDIV SWAP2 POP PUSH1 0x5 DUP3 SDIV ADD PUSH9 0x56BC75E2D63100000 DUP3 DUP5 MUL SDIV SWAP2 POP PUSH1 0x7 DUP3 SDIV ADD PUSH9 0x56BC75E2D63100000 DUP3 DUP5 MUL SDIV SWAP2 POP PUSH1 0x9 DUP3 SDIV ADD PUSH9 0x56BC75E2D63100000 DUP3 DUP5 MUL SDIV SWAP2 POP PUSH1 0xB DUP3 SDIV ADD PUSH1 0x2 MUL PUSH1 0x64 DUP6 DUP3 ADD SDIV SWAP8 SWAP7 POP POP POP POP POP POP POP JUMP JUMPDEST PUSH1 0x0 PUSH2 0x3A6B PUSH9 0x238FD42C5CF03FFFF NOT DUP4 SLT ISZERO DUP1 ISZERO PUSH2 0x3A64 JUMPI POP PUSH9 0x70C1CC73B00C80000 DUP4 SGT ISZERO JUMPDEST PUSH1 0x9 PUSH2 0x1248 JUMP JUMPDEST PUSH1 0x0 DUP3 SLT ISZERO PUSH2 0x3A9E JUMPI PUSH2 0x3A80 DUP3 PUSH1 0x0 SUB PUSH2 0x3A3C JUMP JUMPDEST PUSH11 0xC097CE7BC90715B34B9F1 PUSH1 0x24 SHL DUP2 PUSH2 0x3A96 JUMPI INVALID JUMPDEST SDIV SWAP1 POP PUSH2 0x7F9 JUMP JUMPDEST PUSH1 0x0 PUSH9 0x6F05B59D3B2000000 DUP4 SLT PUSH2 0x3ADE JUMPI POP PUSH9 0x6F05B59D3B1FFFFFF NOT SWAP1 SWAP2 ADD SWAP1 PUSH24 0x195E54C5DD42177F53A27172FA9EC630262827000000000 PUSH2 0x3B14 JUMP JUMPDEST PUSH9 0x3782DACE9D9000000 DUP4 SLT PUSH2 0x3B10 JUMPI POP PUSH9 0x3782DACE9D8FFFFFF NOT SWAP1 SWAP2 ADD SWAP1 PUSH12 0x1425982CF597CD205CEF7380 PUSH2 0x3B14 JUMP JUMPDEST POP PUSH1 0x1 JUMPDEST PUSH1 0x64 SWAP3 SWAP1 SWAP3 MUL SWAP2 PUSH9 0x56BC75E2D63100000 PUSH9 0xAD78EBC5AC62000000 DUP5 SLT PUSH2 0x3B64 JUMPI PUSH9 0xAD78EBC5AC61FFFFFF NOT SWAP1 SWAP4 ADD SWAP3 PUSH9 0x56BC75E2D63100000 PUSH15 0x1855144814A7FF805980FF0084000 DUP3 MUL SDIV SWAP1 POP JUMPDEST PUSH9 0x56BC75E2D631000000 DUP5 SLT PUSH2 0x3BA0 JUMPI PUSH9 0x56BC75E2D630FFFFFF NOT SWAP1 SWAP4 ADD SWAP3 PUSH9 0x56BC75E2D63100000 PUSH12 0x2DF0AB5A80A22C61AB5A700 DUP3 MUL SDIV SWAP1 POP JUMPDEST PUSH9 0x2B5E3AF16B18800000 DUP5 SLT PUSH2 0x3BDA JUMPI PUSH9 0x2B5E3AF16B187FFFFF NOT SWAP1 SWAP4 ADD SWAP3 PUSH9 0x56BC75E2D63100000 PUSH10 0x3F1FCE3DA636EA5CF850 DUP3 MUL SDIV SWAP1 POP JUMPDEST PUSH9 0x15AF1D78B58C400000 DUP5 SLT PUSH2 0x3C14 JUMPI PUSH9 0x15AF1D78B58C3FFFFF NOT SWAP1 SWAP4 ADD SWAP3 PUSH9 0x56BC75E2D63100000 PUSH10 0x127FA27722CC06CC5E2 DUP3 MUL SDIV SWAP1 POP JUMPDEST PUSH9 0xAD78EBC5AC6200000 DUP5 SLT PUSH2 0x3C4D JUMPI PUSH9 0xAD78EBC5AC61FFFFF NOT SWAP1 SWAP4 ADD SWAP3 PUSH9 0x56BC75E2D63100000 PUSH9 0x280E60114EDB805D03 DUP3 MUL SDIV SWAP1 POP JUMPDEST PUSH9 0x56BC75E2D63100000 DUP5 SLT PUSH2 0x3C86 JUMPI PUSH9 0x56BC75E2D630FFFFF NOT SWAP1 SWAP4 ADD SWAP3 PUSH9 0x56BC75E2D63100000 PUSH9 0xEBC5FB41746121110 DUP3 MUL SDIV SWAP1 POP JUMPDEST PUSH9 0x2B5E3AF16B1880000 DUP5 SLT PUSH2 0x3CBF JUMPI PUSH9 0x2B5E3AF16B187FFFF NOT SWAP1 SWAP4 ADD SWAP3 PUSH9 0x56BC75E2D63100000 PUSH9 0x8F00F760A4B2DB55D DUP3 MUL SDIV SWAP1 POP JUMPDEST PUSH9 0x15AF1D78B58C40000 DUP5 SLT PUSH2 0x3CF8 JUMPI PUSH9 0x15AF1D78B58C3FFFF NOT SWAP1 SWAP4 ADD SWAP3 PUSH9 0x56BC75E2D63100000 PUSH9 0x6F5F1775788937937 DUP3 MUL SDIV SWAP1 POP JUMPDEST PUSH9 0x56BC75E2D63100000 DUP5 DUP2 ADD SWAP1 DUP6 SWAP1 PUSH1 0x2 SWAP1 DUP3 DUP1 MUL SDIV SDIV SWAP2 DUP3 ADD SWAP2 SWAP1 POP PUSH1 0x3 PUSH9 0x56BC75E2D63100000 DUP8 DUP4 MUL SDIV SDIV SWAP2 DUP3 ADD SWAP2 SWAP1 POP PUSH1 0x4 PUSH9 0x56BC75E2D63100000 DUP8 DUP4 MUL SDIV SDIV SWAP2 DUP3 ADD SWAP2 SWAP1 POP PUSH1 0x5 PUSH9 0x56BC75E2D63100000 DUP8 DUP4 MUL SDIV SDIV SWAP2 DUP3 ADD SWAP2 SWAP1 POP PUSH1 0x6 PUSH9 0x56BC75E2D63100000 DUP8 DUP4 MUL SDIV SDIV SWAP2 DUP3 ADD SWAP2 SWAP1 POP PUSH1 0x7 PUSH9 0x56BC75E2D63100000 DUP8 DUP4 MUL SDIV SDIV SWAP2 DUP3 ADD SWAP2 SWAP1 POP PUSH1 0x8 PUSH9 0x56BC75E2D63100000 DUP8 DUP4 MUL SDIV SDIV SWAP2 DUP3 ADD SWAP2 SWAP1 POP PUSH1 0x9 PUSH9 0x56BC75E2D63100000 DUP8 DUP4 MUL SDIV SDIV SWAP2 DUP3 ADD SWAP2 SWAP1 POP PUSH1 0xA PUSH9 0x56BC75E2D63100000 DUP8 DUP4 MUL SDIV SDIV SWAP2 DUP3 ADD SWAP2 SWAP1 POP PUSH1 0xB PUSH9 0x56BC75E2D63100000 DUP8 DUP4 MUL SDIV SDIV SWAP2 DUP3 ADD SWAP2 SWAP1 POP PUSH1 0xC PUSH9 0x56BC75E2D63100000 DUP8 DUP4 MUL SDIV SDIV SWAP2 DUP3 ADD SWAP2 SWAP1 POP PUSH1 0x64 PUSH9 0x56BC75E2D63100000 DUP5 DUP5 MUL SDIV DUP6 MUL SDIV SWAP7 SWAP6 POP POP POP POP POP POP JUMP JUMPDEST PUSH1 0x60 DUP2 DUP1 PUSH1 0x20 ADD SWAP1 MLOAD DUP2 ADD SWAP1 PUSH2 0x645 SWAP2 SWAP1 PUSH2 0x465D JUMP JUMPDEST PUSH1 0x0 DUP1 DUP5 MLOAD PUSH1 0x1 PUSH1 0x1 PUSH1 0x40 SHL SUB DUP2 GT DUP1 ISZERO PUSH2 0x3E49 JUMPI PUSH1 0x0 DUP1 REVERT JUMPDEST POP PUSH1 0x40 MLOAD SWAP1 DUP1 DUP3 MSTORE DUP1 PUSH1 0x20 MUL PUSH1 0x20 ADD DUP3 ADD PUSH1 0x40 MSTORE DUP1 ISZERO PUSH2 0x3E73 JUMPI DUP2 PUSH1 0x20 ADD PUSH1 0x20 DUP3 MUL DUP1 CALLDATASIZE DUP4 CALLDATACOPY ADD SWAP1 POP JUMPDEST POP SWAP1 POP PUSH1 0x0 DUP1 JUMPDEST DUP9 MLOAD DUP2 LT ISZERO PUSH2 0x3F1B JUMPI PUSH2 0x3ED3 DUP10 DUP3 DUP2 MLOAD DUP2 LT PUSH2 0x3E92 JUMPI INVALID JUMPDEST PUSH1 0x20 MUL PUSH1 0x20 ADD ADD MLOAD PUSH2 0x7D9 DUP10 DUP5 DUP2 MLOAD DUP2 LT PUSH2 0x3EA9 JUMPI INVALID JUMPDEST PUSH1 0x20 MUL PUSH1 0x20 ADD ADD MLOAD DUP13 DUP6 DUP2 MLOAD DUP2 LT PUSH2 0x3EBD JUMPI INVALID JUMPDEST PUSH1 0x20 MUL PUSH1 0x20 ADD ADD MLOAD PUSH2 0xE7B SWAP1 SWAP2 SWAP1 PUSH4 0xFFFFFFFF AND JUMP JUMPDEST DUP4 DUP3 DUP2 MLOAD DUP2 LT PUSH2 0x3EDF JUMPI INVALID JUMPDEST PUSH1 0x20 MUL PUSH1 0x20 ADD ADD DUP2 DUP2 MSTORE POP POP PUSH2 0x3F11 PUSH2 0x3334 DUP10 DUP4 DUP2 MLOAD DUP2 LT PUSH2 0x3EFD JUMPI INVALID JUMPDEST PUSH1 0x20 MUL PUSH1 0x20 ADD ADD MLOAD DUP6 DUP5 DUP2 MLOAD DUP2 LT PUSH2 0x31E5 JUMPI INVALID JUMPDEST SWAP2 POP PUSH1 0x1 ADD PUSH2 0x3E7A JUMP JUMPDEST POP PUSH8 0xDE0B6B3A7640000 PUSH1 0x0 JUMPDEST DUP10 MLOAD DUP2 LT ISZERO PUSH2 0x3FFC JUMPI PUSH1 0x0 DUP4 DUP6 DUP4 DUP2 MLOAD DUP2 LT PUSH2 0x3F40 JUMPI INVALID JUMPDEST PUSH1 0x20 MUL PUSH1 0x20 ADD ADD MLOAD GT ISZERO PUSH2 0x3F9C JUMPI PUSH1 0x0 PUSH2 0x3F65 PUSH2 0x3386 DUP7 PUSH8 0xDE0B6B3A7640000 PUSH2 0xE07 JUMP JUMPDEST SWAP1 POP PUSH1 0x0 PUSH2 0x3F79 DUP3 DUP13 DUP7 DUP2 MLOAD DUP2 LT PUSH2 0x32CA JUMPI INVALID JUMPDEST SWAP1 POP PUSH2 0x3F93 PUSH2 0x3334 PUSH2 0x2005 PUSH8 0xDE0B6B3A7640000 DUP13 PUSH2 0xE07 JUMP JUMPDEST SWAP3 POP POP POP PUSH2 0x3FB3 JUMP JUMPDEST DUP9 DUP3 DUP2 MLOAD DUP2 LT PUSH2 0x3FA8 JUMPI INVALID JUMPDEST PUSH1 0x20 MUL PUSH1 0x20 ADD ADD MLOAD SWAP1 POP JUMPDEST PUSH1 0x0 PUSH2 0x3FDC DUP13 DUP5 DUP2 MLOAD DUP2 LT PUSH2 0x3FC4 JUMPI INVALID JUMPDEST PUSH1 0x20 MUL PUSH1 0x20 ADD ADD MLOAD PUSH2 0x7D9 DUP5 DUP16 DUP8 DUP2 MLOAD DUP2 LT PUSH2 0x3EBD JUMPI INVALID JUMPDEST SWAP1 POP PUSH2 0x3FF0 PUSH2 0x3434 DUP13 DUP6 DUP2 MLOAD DUP2 LT PUSH2 0x341D JUMPI INVALID JUMPDEST SWAP4 POP POP POP PUSH1 0x1 ADD PUSH2 0x3F28 JUMP JUMPDEST POP PUSH8 0xDE0B6B3A7640000 DUP2 GT ISZERO PUSH2 0x4033 JUMPI PUSH2 0x4029 PUSH2 0x4022 DUP3 PUSH8 0xDE0B6B3A7640000 PUSH2 0xE07 JUMP JUMPDEST DUP8 SWAP1 PUSH2 0x2603 JUMP JUMPDEST SWAP4 POP POP POP POP PUSH2 0x2908 JUMP JUMPDEST PUSH1 0x0 SWAP4 POP POP POP POP PUSH2 0x2908 JUMP JUMPDEST PUSH1 0x0 DUP1 PUSH2 0x4050 DUP5 PUSH2 0xE37 DUP2 DUP9 PUSH2 0xE7B JUMP JUMPDEST SWAP1 POP PUSH2 0x4069 PUSH8 0x29A2241AF62C0000 DUP3 GT ISZERO PUSH2 0x133 PUSH2 0x1248 JUMP JUMPDEST PUSH1 0x0 PUSH2 0x4080 PUSH2 0x30DE PUSH8 0xDE0B6B3A7640000 DUP10 PUSH2 0xF14 JUMP JUMPDEST SWAP1 POP PUSH1 0x0 PUSH2 0x40A0 PUSH2 0x4099 DUP4 PUSH8 0xDE0B6B3A7640000 PUSH2 0xE07 JUMP JUMPDEST DUP11 SWAP1 PUSH2 0xEC6 JUMP JUMPDEST SWAP1 POP PUSH1 0x0 PUSH2 0x40AD DUP10 PUSH2 0x3055 JUMP JUMPDEST SWAP1 POP PUSH1 0x0 PUSH2 0x40BB DUP4 DUP4 PUSH2 0xEC6 JUMP JUMPDEST SWAP1 POP PUSH1 0x0 PUSH2 0x40C9 DUP5 DUP4 PUSH2 0xE07 JUMP JUMPDEST SWAP1 POP PUSH2 0x314D PUSH2 0x3146 PUSH2 0x40E3 PUSH8 0xDE0B6B3A7640000 DUP12 PUSH2 0xE07 JUMP JUMPDEST DUP5 SWAP1 PUSH2 0xF14 JUMP JUMPDEST DUP1 CALLDATALOAD PUSH2 0x7F9 DUP2 PUSH2 0x4B13 JUMP JUMPDEST PUSH1 0x0 DUP3 PUSH1 0x1F DUP4 ADD SLT PUSH2 0x4105 JUMPI DUP1 DUP2 REVERT JUMPDEST DUP2 CALLDATALOAD PUSH1 0x20 PUSH2 0x411A PUSH2 0x4115 DUP4 PUSH2 0x4AF6 JUMP JUMPDEST PUSH2 0x4AD3 JUMP JUMPDEST DUP3 DUP2 MSTORE DUP2 DUP2 ADD SWAP1 DUP6 DUP4 ADD DUP4 DUP6 MUL DUP8 ADD DUP5 ADD DUP9 LT ISZERO PUSH2 0x4136 JUMPI DUP6 DUP7 REVERT JUMPDEST DUP6 JUMPDEST DUP6 DUP2 LT ISZERO PUSH2 0x4154 JUMPI DUP2 CALLDATALOAD DUP5 MSTORE SWAP3 DUP5 ADD SWAP3 SWAP1 DUP5 ADD SWAP1 PUSH1 0x1 ADD PUSH2 0x4138 JUMP JUMPDEST POP SWAP1 SWAP8 SWAP7 POP POP POP POP POP POP POP JUMP JUMPDEST PUSH1 0x0 DUP3 PUSH1 0x1F DUP4 ADD SLT PUSH2 0x4171 JUMPI DUP1 DUP2 REVERT JUMPDEST DUP2 MLOAD PUSH1 0x20 PUSH2 0x4181 PUSH2 0x4115 DUP4 PUSH2 0x4AF6 JUMP JUMPDEST DUP3 DUP2 MSTORE DUP2 DUP2 ADD SWAP1 DUP6 DUP4 ADD DUP4 DUP6 MUL DUP8 ADD DUP5 ADD DUP9 LT ISZERO PUSH2 0x419D JUMPI DUP6 DUP7 REVERT JUMPDEST DUP6 JUMPDEST DUP6 DUP2 LT ISZERO PUSH2 0x4154 JUMPI DUP2 MLOAD DUP5 MSTORE SWAP3 DUP5 ADD SWAP3 SWAP1 DUP5 ADD SWAP1 PUSH1 0x1 ADD PUSH2 0x419F JUMP JUMPDEST PUSH1 0x0 DUP3 PUSH1 0x1F DUP4 ADD SLT PUSH2 0x41CB JUMPI DUP1 DUP2 REVERT JUMPDEST DUP2 CALLDATALOAD PUSH1 0x1 PUSH1 0x1 PUSH1 0x40 SHL SUB DUP2 GT ISZERO PUSH2 0x41DE JUMPI INVALID JUMPDEST PUSH2 0x41F1 PUSH1 0x1F DUP3 ADD PUSH1 0x1F NOT AND PUSH1 0x20 ADD PUSH2 0x4AD3 JUMP JUMPDEST DUP2 DUP2 MSTORE DUP5 PUSH1 0x20 DUP4 DUP7 ADD ADD GT ISZERO PUSH2 0x4205 JUMPI DUP3 DUP4 REVERT JUMPDEST DUP2 PUSH1 0x20 DUP6 ADD PUSH1 0x20 DUP4 ADD CALLDATACOPY SWAP1 DUP2 ADD PUSH1 0x20 ADD SWAP2 SWAP1 SWAP2 MSTORE SWAP3 SWAP2 POP POP JUMP JUMPDEST DUP1 CALLDATALOAD PUSH1 0x2 DUP2 LT PUSH2 0x7F9 JUMPI PUSH1 0x0 DUP1 REVERT JUMPDEST PUSH1 0x0 PUSH1 0x20 DUP3 DUP5 SUB SLT ISZERO PUSH2 0x423F JUMPI DUP1 DUP2 REVERT JUMPDEST DUP2 CALLDATALOAD PUSH2 0x645 DUP2 PUSH2 0x4B13 JUMP JUMPDEST PUSH1 0x0 DUP1 PUSH1 0x40 DUP4 DUP6 SUB SLT ISZERO PUSH2 0x425C JUMPI DUP1 DUP2 REVERT JUMPDEST DUP3 CALLDATALOAD PUSH2 0x4267 DUP2 PUSH2 0x4B13 JUMP JUMPDEST SWAP2 POP PUSH1 0x20 DUP4 ADD CALLDATALOAD PUSH2 0x4277 DUP2 PUSH2 0x4B13 JUMP JUMPDEST DUP1 SWAP2 POP POP SWAP3 POP SWAP3 SWAP1 POP JUMP JUMPDEST PUSH1 0x0 DUP1 PUSH1 0x0 PUSH1 0x60 DUP5 DUP7 SUB SLT ISZERO PUSH2 0x4296 JUMPI DUP1 DUP2 REVERT JUMPDEST DUP4 CALLDATALOAD PUSH2 0x42A1 DUP2 PUSH2 0x4B13 JUMP JUMPDEST SWAP3 POP PUSH1 0x20 DUP5 ADD CALLDATALOAD PUSH2 0x42B1 DUP2 PUSH2 0x4B13 JUMP JUMPDEST SWAP3 SWAP6 SWAP3 SWAP5 POP POP POP PUSH1 0x40 SWAP2 SWAP1 SWAP2 ADD CALLDATALOAD SWAP1 JUMP JUMPDEST PUSH1 0x0 DUP1 PUSH1 0x0 DUP1 PUSH1 0x0 DUP1 PUSH1 0x0 PUSH1 0xE0 DUP9 DUP11 SUB SLT ISZERO PUSH2 0x42DC JUMPI DUP5 DUP6 REVERT JUMPDEST DUP8 CALLDATALOAD PUSH2 0x42E7 DUP2 PUSH2 0x4B13 JUMP JUMPDEST SWAP7 POP PUSH1 0x20 DUP9 ADD CALLDATALOAD PUSH2 0x42F7 DUP2 PUSH2 0x4B13 JUMP JUMPDEST SWAP6 POP PUSH1 0x40 DUP9 ADD CALLDATALOAD SWAP5 POP PUSH1 0x60 DUP9 ADD CALLDATALOAD SWAP4 POP PUSH1 0x80 DUP9 ADD CALLDATALOAD PUSH1 0xFF DUP2 AND DUP2 EQ PUSH2 0x431A JUMPI DUP4 DUP5 REVERT JUMPDEST SWAP7 SWAP10 SWAP6 SWAP9 POP SWAP4 SWAP7 SWAP3 SWAP6 SWAP5 PUSH1 0xA0 DUP5 ADD CALLDATALOAD SWAP5 POP PUSH1 0xC0 SWAP1 SWAP4 ADD CALLDATALOAD SWAP3 SWAP2 POP POP JUMP JUMPDEST PUSH1 0x0 DUP1 PUSH1 0x40 DUP4 DUP6 SUB SLT ISZERO PUSH2 0x4349 JUMPI DUP2 DUP3 REVERT JUMPDEST DUP3 CALLDATALOAD PUSH2 0x4354 DUP2 PUSH2 0x4B13 JUMP JUMPDEST SWAP5 PUSH1 0x20 SWAP4 SWAP1 SWAP4 ADD CALLDATALOAD SWAP4 POP POP POP JUMP JUMPDEST PUSH1 0x0 DUP1 PUSH1 0x0 PUSH1 0x60 DUP5 DUP7 SUB SLT ISZERO PUSH2 0x4376 JUMPI DUP1 DUP2 REVERT JUMPDEST DUP4 MLOAD PUSH1 0x1 PUSH1 0x1 PUSH1 0x40 SHL SUB DUP1 DUP3 GT ISZERO PUSH2 0x438C JUMPI DUP3 DUP4 REVERT JUMPDEST DUP2 DUP7 ADD SWAP2 POP DUP7 PUSH1 0x1F DUP4 ADD SLT PUSH2 0x439F JUMPI DUP3 DUP4 REVERT JUMPDEST DUP2 MLOAD PUSH1 0x20 PUSH2 0x43AF PUSH2 0x4115 DUP4 PUSH2 0x4AF6 JUMP JUMPDEST DUP3 DUP2 MSTORE DUP2 DUP2 ADD SWAP1 DUP6 DUP4 ADD DUP4 DUP6 MUL DUP8 ADD DUP5 ADD DUP13 LT ISZERO PUSH2 0x43CB JUMPI DUP8 DUP9 REVERT JUMPDEST DUP8 SWAP7 POP JUMPDEST DUP5 DUP8 LT ISZERO PUSH2 0x43F6 JUMPI DUP1 MLOAD PUSH2 0x43E2 DUP2 PUSH2 0x4B13 JUMP JUMPDEST DUP4 MSTORE PUSH1 0x1 SWAP7 SWAP1 SWAP7 ADD SWAP6 SWAP2 DUP4 ADD SWAP2 DUP4 ADD PUSH2 0x43CF JUMP JUMPDEST POP SWAP2 DUP10 ADD MLOAD SWAP2 SWAP8 POP SWAP1 SWAP4 POP POP POP DUP1 DUP3 GT ISZERO PUSH2 0x440F JUMPI DUP3 DUP4 REVERT JUMPDEST POP PUSH2 0x441C DUP7 DUP3 DUP8 ADD PUSH2 0x4161 JUMP JUMPDEST SWAP3 POP POP PUSH1 0x40 DUP5 ADD MLOAD SWAP1 POP SWAP3 POP SWAP3 POP SWAP3 JUMP JUMPDEST PUSH1 0x0 PUSH1 0x20 DUP3 DUP5 SUB SLT ISZERO PUSH2 0x443E JUMPI DUP1 DUP2 REVERT JUMPDEST DUP2 CALLDATALOAD PUSH2 0x645 DUP2 PUSH2 0x4B28 JUMP JUMPDEST PUSH1 0x0 PUSH1 0x20 DUP3 DUP5 SUB SLT ISZERO PUSH2 0x445A JUMPI DUP1 DUP2 REVERT JUMPDEST DUP2 MLOAD PUSH2 0x645 DUP2 PUSH2 0x4B28 JUMP JUMPDEST PUSH1 0x0 DUP1 PUSH1 0x0 DUP1 PUSH1 0x0 DUP1 PUSH1 0x0 PUSH1 0xE0 DUP9 DUP11 SUB SLT ISZERO PUSH2 0x447F JUMPI DUP1 DUP2 REVERT JUMPDEST DUP8 CALLDATALOAD SWAP7 POP PUSH1 0x20 DUP9 ADD CALLDATALOAD PUSH2 0x4491 DUP2 PUSH2 0x4B13 JUMP JUMPDEST SWAP6 POP PUSH1 0x40 DUP9 ADD CALLDATALOAD PUSH2 0x44A1 DUP2 PUSH2 0x4B13 JUMP JUMPDEST SWAP5 POP PUSH1 0x60 DUP9 ADD CALLDATALOAD PUSH1 0x1 PUSH1 0x1 PUSH1 0x40 SHL SUB DUP1 DUP3 GT ISZERO PUSH2 0x44BC JUMPI DUP3 DUP4 REVERT JUMPDEST PUSH2 0x44C8 DUP12 DUP4 DUP13 ADD PUSH2 0x40F5 JUMP JUMPDEST SWAP6 POP PUSH1 0x80 DUP11 ADD CALLDATALOAD SWAP5 POP PUSH1 0xA0 DUP11 ADD CALLDATALOAD SWAP4 POP PUSH1 0xC0 DUP11 ADD CALLDATALOAD SWAP2 POP DUP1 DUP3 GT ISZERO PUSH2 0x44EB JUMPI DUP3 DUP4 REVERT JUMPDEST POP PUSH2 0x44F8 DUP11 DUP3 DUP12 ADD PUSH2 0x41BB JUMP JUMPDEST SWAP2 POP POP SWAP3 SWAP6 SWAP9 SWAP2 SWAP5 SWAP8 POP SWAP3 SWAP6 POP JUMP JUMPDEST PUSH1 0x0 PUSH1 0x20 DUP3 DUP5 SUB SLT ISZERO PUSH2 0x4518 JUMPI DUP1 DUP2 REVERT JUMPDEST DUP2 CALLDATALOAD PUSH1 0x1 PUSH1 0x1 PUSH1 0xE0 SHL SUB NOT DUP2 AND DUP2 EQ PUSH2 0x645 JUMPI DUP2 DUP3 REVERT JUMPDEST PUSH1 0x0 PUSH1 0x20 DUP3 DUP5 SUB SLT ISZERO PUSH2 0x4540 JUMPI DUP1 DUP2 REVERT JUMPDEST DUP2 MLOAD PUSH2 0x645 DUP2 PUSH2 0x4B13 JUMP JUMPDEST PUSH1 0x0 DUP1 PUSH1 0x40 DUP4 DUP6 SUB SLT ISZERO PUSH2 0x455D JUMPI DUP2 DUP3 REVERT JUMPDEST DUP3 CALLDATALOAD PUSH2 0x4568 DUP2 PUSH2 0x4B13 JUMP JUMPDEST SWAP2 POP PUSH1 0x20 DUP4 ADD CALLDATALOAD PUSH1 0x1 PUSH1 0x1 PUSH1 0x40 SHL SUB DUP2 GT ISZERO PUSH2 0x4582 JUMPI DUP2 DUP3 REVERT JUMPDEST PUSH2 0x458E DUP6 DUP3 DUP7 ADD PUSH2 0x41BB JUMP JUMPDEST SWAP2 POP POP SWAP3 POP SWAP3 SWAP1 POP JUMP JUMPDEST PUSH1 0x0 PUSH1 0x20 DUP3 DUP5 SUB SLT ISZERO PUSH2 0x45A9 JUMPI DUP1 DUP2 REVERT JUMPDEST DUP2 MLOAD PUSH2 0x645 DUP2 PUSH2 0x4B36 JUMP JUMPDEST PUSH1 0x0 DUP1 PUSH1 0x0 PUSH1 0x60 DUP5 DUP7 SUB SLT ISZERO PUSH2 0x45C8 JUMPI DUP1 DUP2 REVERT JUMPDEST DUP4 MLOAD PUSH2 0x45D3 DUP2 PUSH2 0x4B36 JUMP JUMPDEST PUSH1 0x20 DUP6 ADD MLOAD SWAP1 SWAP4 POP PUSH1 0x1 PUSH1 0x1 PUSH1 0x40 SHL SUB DUP2 GT ISZERO PUSH2 0x45EE JUMPI DUP2 DUP3 REVERT JUMPDEST PUSH2 0x441C DUP7 DUP3 DUP8 ADD PUSH2 0x4161 JUMP JUMPDEST PUSH1 0x0 DUP1 PUSH1 0x40 DUP4 DUP6 SUB SLT ISZERO PUSH2 0x460C JUMPI DUP2 DUP3 REVERT JUMPDEST DUP3 MLOAD PUSH2 0x4617 DUP2 PUSH2 0x4B36 JUMP JUMPDEST PUSH1 0x20 SWAP4 SWAP1 SWAP4 ADD MLOAD SWAP3 SWAP5 SWAP3 SWAP4 POP POP POP JUMP JUMPDEST PUSH1 0x0 DUP1 PUSH1 0x0 PUSH1 0x60 DUP5 DUP7 SUB SLT ISZERO PUSH2 0x463B JUMPI DUP1 DUP2 REVERT JUMPDEST DUP4 MLOAD PUSH2 0x4646 DUP2 PUSH2 0x4B36 JUMP JUMPDEST PUSH1 0x20 DUP6 ADD MLOAD PUSH1 0x40 SWAP1 SWAP6 ADD MLOAD SWAP1 SWAP7 SWAP5 SWAP6 POP SWAP4 SWAP3 POP POP POP JUMP JUMPDEST PUSH1 0x0 DUP1 PUSH1 0x40 DUP4 DUP6 SUB SLT ISZERO PUSH2 0x466F JUMPI DUP2 DUP3 REVERT JUMPDEST DUP3 MLOAD PUSH2 0x467A DUP2 PUSH2 0x4B36 JUMP JUMPDEST PUSH1 0x20 DUP5 ADD MLOAD SWAP1 SWAP3 POP PUSH1 0x1 PUSH1 0x1 PUSH1 0x40 SHL SUB DUP2 GT ISZERO PUSH2 0x4695 JUMPI DUP2 DUP3 REVERT JUMPDEST PUSH2 0x458E DUP6 DUP3 DUP7 ADD PUSH2 0x4161 JUMP JUMPDEST PUSH1 0x0 DUP1 PUSH1 0x0 PUSH1 0x60 DUP5 DUP7 SUB SLT ISZERO PUSH2 0x46B5 JUMPI DUP1 DUP2 REVERT JUMPDEST DUP4 CALLDATALOAD PUSH1 0x1 PUSH1 0x1 PUSH1 0x40 SHL SUB DUP1 DUP3 GT ISZERO PUSH2 0x46CB JUMPI DUP3 DUP4 REVERT JUMPDEST DUP2 DUP7 ADD SWAP2 POP PUSH2 0x120 DUP1 DUP4 DUP10 SUB SLT ISZERO PUSH2 0x46E1 JUMPI DUP4 DUP5 REVERT JUMPDEST PUSH2 0x46EA DUP2 PUSH2 0x4AD3 JUMP JUMPDEST SWAP1 POP PUSH2 0x46F5 DUP4 PUSH2 0x421F JUMP JUMPDEST DUP2 MSTORE PUSH2 0x4703 PUSH1 0x20 DUP5 ADD PUSH2 0x40EA JUMP JUMPDEST PUSH1 0x20 DUP3 ADD MSTORE PUSH2 0x4714 PUSH1 0x40 DUP5 ADD PUSH2 0x40EA JUMP JUMPDEST PUSH1 0x40 DUP3 ADD MSTORE PUSH1 0x60 DUP4 ADD CALLDATALOAD PUSH1 0x60 DUP3 ADD MSTORE PUSH1 0x80 DUP4 ADD CALLDATALOAD PUSH1 0x80 DUP3 ADD MSTORE PUSH1 0xA0 DUP4 ADD CALLDATALOAD PUSH1 0xA0 DUP3 ADD MSTORE PUSH2 0x4743 PUSH1 0xC0 DUP5 ADD PUSH2 0x40EA JUMP JUMPDEST PUSH1 0xC0 DUP3 ADD MSTORE PUSH2 0x4754 PUSH1 0xE0 DUP5 ADD PUSH2 0x40EA JUMP JUMPDEST PUSH1 0xE0 DUP3 ADD MSTORE PUSH2 0x100 DUP1 DUP5 ADD CALLDATALOAD DUP4 DUP2 GT ISZERO PUSH2 0x476C JUMPI DUP6 DUP7 REVERT JUMPDEST PUSH2 0x4778 DUP11 DUP3 DUP8 ADD PUSH2 0x41BB JUMP JUMPDEST SWAP2 DUP4 ADD SWAP2 SWAP1 SWAP2 MSTORE POP SWAP8 PUSH1 0x20 DUP8 ADD CALLDATALOAD SWAP8 POP PUSH1 0x40 SWAP1 SWAP7 ADD CALLDATALOAD SWAP6 SWAP5 POP POP POP POP POP JUMP JUMPDEST PUSH1 0x0 PUSH1 0x20 DUP3 DUP5 SUB SLT ISZERO PUSH2 0x47A8 JUMPI DUP1 DUP2 REVERT JUMPDEST POP CALLDATALOAD SWAP2 SWAP1 POP JUMP JUMPDEST PUSH1 0x0 DUP1 PUSH1 0x0 PUSH1 0x60 DUP5 DUP7 SUB SLT ISZERO PUSH2 0x47C3 JUMPI DUP1 DUP2 REVERT JUMPDEST DUP4 CALLDATALOAD SWAP3 POP PUSH1 0x20 DUP5 ADD CALLDATALOAD SWAP2 POP PUSH1 0x40 DUP5 ADD CALLDATALOAD PUSH1 0x1 PUSH1 0x1 PUSH1 0x40 SHL SUB DUP2 GT ISZERO PUSH2 0x47E6 JUMPI DUP2 DUP3 REVERT JUMPDEST PUSH2 0x47F2 DUP7 DUP3 DUP8 ADD PUSH2 0x40F5 JUMP JUMPDEST SWAP2 POP POP SWAP3 POP SWAP3 POP SWAP3 JUMP JUMPDEST PUSH1 0x0 DUP1 PUSH1 0x0 DUP1 PUSH1 0x80 DUP6 DUP8 SUB SLT ISZERO PUSH2 0x4811 JUMPI DUP2 DUP3 REVERT JUMPDEST DUP5 MLOAD SWAP4 POP PUSH1 0x20 DUP6 ADD MLOAD SWAP3 POP PUSH1 0x40 DUP6 ADD MLOAD SWAP2 POP PUSH1 0x60 DUP6 ADD MLOAD PUSH2 0x4831 DUP2 PUSH2 0x4B13 JUMP JUMPDEST SWAP4 SWAP7 SWAP3 SWAP6 POP SWAP1 SWAP4 POP POP JUMP JUMPDEST PUSH1 0x0 DUP2 MLOAD DUP1 DUP5 MSTORE PUSH1 0x20 DUP1 DUP6 ADD SWAP5 POP DUP1 DUP5 ADD DUP4 JUMPDEST DUP4 DUP2 LT ISZERO PUSH2 0x486B JUMPI DUP2 MLOAD DUP8 MSTORE SWAP6 DUP3 ADD SWAP6 SWAP1 DUP3 ADD SWAP1 PUSH1 0x1 ADD PUSH2 0x484F JUMP JUMPDEST POP SWAP5 SWAP6 SWAP5 POP POP POP POP POP JUMP JUMPDEST PUSH1 0x0 DUP2 MLOAD DUP1 DUP5 MSTORE DUP2 JUMPDEST DUP2 DUP2 LT ISZERO PUSH2 0x489B JUMPI PUSH1 0x20 DUP2 DUP6 ADD DUP2 ADD MLOAD DUP7 DUP4 ADD DUP3 ADD MSTORE ADD PUSH2 0x487F JUMP JUMPDEST DUP2 DUP2 GT ISZERO PUSH2 0x48AC JUMPI DUP3 PUSH1 0x20 DUP4 DUP8 ADD ADD MSTORE JUMPDEST POP PUSH1 0x1F ADD PUSH1 0x1F NOT AND SWAP3 SWAP1 SWAP3 ADD PUSH1 0x20 ADD SWAP3 SWAP2 POP POP JUMP JUMPDEST SWAP2 DUP3 MSTORE PUSH1 0x1 PUSH1 0x1 PUSH1 0xE0 SHL SUB NOT AND PUSH1 0x20 DUP3 ADD MSTORE PUSH1 0x24 ADD SWAP1 JUMP JUMPDEST PUSH1 0x0 DUP3 DUP5 DUP4 CALLDATACOPY SWAP2 ADD SWAP1 DUP2 MSTORE SWAP2 SWAP1 POP JUMP JUMPDEST PUSH2 0x1901 PUSH1 0xF0 SHL DUP2 MSTORE PUSH1 0x2 DUP2 ADD SWAP3 SWAP1 SWAP3 MSTORE PUSH1 0x22 DUP3 ADD MSTORE PUSH1 0x42 ADD SWAP1 JUMP JUMPDEST PUSH1 0x1 PUSH1 0x1 PUSH1 0xA0 SHL SUB SWAP2 SWAP1 SWAP2 AND DUP2 MSTORE PUSH1 0x20 ADD SWAP1 JUMP JUMPDEST PUSH1 0x0 PUSH1 0x20 DUP3 MSTORE PUSH2 0x645 PUSH1 0x20 DUP4 ADD DUP5 PUSH2 0x483C JUMP JUMPDEST PUSH1 0x0 PUSH1 0x40 DUP3 MSTORE PUSH2 0x493E PUSH1 0x40 DUP4 ADD DUP6 PUSH2 0x483C JUMP JUMPDEST DUP3 DUP2 SUB PUSH1 0x20 DUP5 ADD MSTORE PUSH2 0x2908 DUP2 DUP6 PUSH2 0x483C JUMP JUMPDEST SWAP1 ISZERO ISZERO DUP2 MSTORE PUSH1 0x20 ADD SWAP1 JUMP JUMPDEST SWAP3 ISZERO ISZERO DUP4 MSTORE PUSH1 0x20 DUP4 ADD SWAP2 SWAP1 SWAP2 MSTORE PUSH1 0x40 DUP3 ADD MSTORE PUSH1 0x60 ADD SWAP1 JUMP JUMPDEST SWAP1 DUP2 MSTORE PUSH1 0x20 ADD SWAP1 JUMP JUMPDEST SWAP3 DUP4 MSTORE PUSH1 0x1 PUSH1 0x1 PUSH1 0xA0 SHL SUB SWAP2 DUP3 AND PUSH1 0x20 DUP5 ADD MSTORE AND PUSH1 0x40 DUP3 ADD MSTORE PUSH1 0x60 ADD SWAP1 JUMP JUMPDEST SWAP6 DUP7 MSTORE PUSH1 0x1 PUSH1 0x1 PUSH1 0xA0 SHL SUB SWAP5 DUP6 AND PUSH1 0x20 DUP8 ADD MSTORE SWAP3 SWAP1 SWAP4 AND PUSH1 0x40 DUP6 ADD MSTORE PUSH1 0x60 DUP5 ADD MSTORE PUSH1 0x80 DUP4 ADD SWAP2 SWAP1 SWAP2 MSTORE PUSH1 0xA0 DUP3 ADD MSTORE PUSH1 0xC0 ADD SWAP1 JUMP JUMPDEST SWAP5 DUP6 MSTORE PUSH1 0x20 DUP6 ADD SWAP4 SWAP1 SWAP4 MSTORE PUSH1 0x40 DUP5 ADD SWAP2 SWAP1 SWAP2 MSTORE PUSH1 0x60 DUP4 ADD MSTORE PUSH1 0x1 PUSH1 0x1 PUSH1 0xA0 SHL SUB AND PUSH1 0x80 DUP3 ADD MSTORE PUSH1 0xA0 ADD SWAP1 JUMP JUMPDEST PUSH1 0x0 DUP4 DUP3 MSTORE PUSH1 0x40 PUSH1 0x20 DUP4 ADD MSTORE PUSH2 0x1DFD PUSH1 0x40 DUP4 ADD DUP5 PUSH2 0x4876 JUMP JUMPDEST SWAP2 DUP3 MSTORE PUSH1 0x1 PUSH1 0x1 PUSH1 0xA0 SHL SUB AND PUSH1 0x20 DUP3 ADD MSTORE PUSH1 0x40 ADD SWAP1 JUMP JUMPDEST SWAP4 DUP5 MSTORE PUSH1 0xFF SWAP3 SWAP1 SWAP3 AND PUSH1 0x20 DUP5 ADD MSTORE PUSH1 0x40 DUP4 ADD MSTORE PUSH1 0x60 DUP3 ADD MSTORE PUSH1 0x80 ADD SWAP1 JUMP JUMPDEST PUSH1 0x0 PUSH1 0x20 DUP3 MSTORE PUSH2 0x645 PUSH1 0x20 DUP4 ADD DUP5 PUSH2 0x4876 JUMP JUMPDEST PUSH1 0x0 DUP4 DUP3 MSTORE PUSH1 0x40 PUSH1 0x20 DUP4 ADD MSTORE PUSH2 0x1DFD PUSH1 0x40 DUP4 ADD DUP5 PUSH2 0x483C JUMP JUMPDEST PUSH1 0x0 DUP5 DUP3 MSTORE DUP4 PUSH1 0x20 DUP4 ADD MSTORE PUSH1 0x60 PUSH1 0x40 DUP4 ADD MSTORE PUSH2 0x2908 PUSH1 0x60 DUP4 ADD DUP5 PUSH2 0x483C JUMP JUMPDEST PUSH1 0x0 DUP6 DUP3 MSTORE DUP5 PUSH1 0x20 DUP4 ADD MSTORE PUSH1 0x80 PUSH1 0x40 DUP4 ADD MSTORE PUSH2 0x4AB3 PUSH1 0x80 DUP4 ADD DUP6 PUSH2 0x483C JUMP JUMPDEST DUP3 DUP2 SUB PUSH1 0x60 DUP5 ADD MSTORE PUSH2 0x280A DUP2 DUP6 PUSH2 0x483C JUMP JUMPDEST PUSH1 0xFF SWAP2 SWAP1 SWAP2 AND DUP2 MSTORE PUSH1 0x20 ADD SWAP1 JUMP JUMPDEST PUSH1 0x40 MLOAD DUP2 DUP2 ADD PUSH1 0x1 PUSH1 0x1 PUSH1 0x40 SHL SUB DUP2 GT DUP3 DUP3 LT OR ISZERO PUSH2 0x4AEE JUMPI INVALID JUMPDEST PUSH1 0x40 MSTORE SWAP2 SWAP1 POP JUMP JUMPDEST PUSH1 0x0 PUSH1 0x1 PUSH1 0x1 PUSH1 0x40 SHL SUB DUP3 GT ISZERO PUSH2 0x4B09 JUMPI INVALID JUMPDEST POP PUSH1 0x20 SWAP1 DUP2 MUL ADD SWAP1 JUMP JUMPDEST PUSH1 0x1 PUSH1 0x1 PUSH1 0xA0 SHL SUB DUP2 AND DUP2 EQ PUSH2 0x595 JUMPI PUSH1 0x0 DUP1 REVERT JUMPDEST DUP1 ISZERO ISZERO DUP2 EQ PUSH2 0x595 JUMPI PUSH1 0x0 DUP1 REVERT JUMPDEST PUSH1 0x3 DUP2 LT PUSH2 0x595 JUMPI PUSH1 0x0 DUP1 REVERT INVALID LOG2 PUSH5 0x6970667358 0x22 SLT KECCAK256 PUSH31 0x11FF15BBD103CA117939F6000A185CEA52DA70B2070FE464FFF93E1A655FB5 PUSH5 0x736F6C6343 STOP SMOD MOD STOP CALLER "
		},
		"gasEstimates": {
			"creation": {
				"codeDepositCost": "3864200",
				"executionCost": "infinite",
				"totalCost": "infinite"
			},
			"external": {
				"DOMAIN_SEPARATOR()": "infinite",
				"allowance(address,address)": "infinite",
				"approve(address,uint256)": "22550",
				"balanceOf(address)": "1409",
				"decimals()": "1158",
				"decreaseAllowance(address,uint256)": "23592",
				"getActionId(bytes4)": "infinite",
				"getAuthorizer()": "infinite",
				"getGradualWeightUpdateParams()": "infinite",
				"getInvariant()": "infinite",
				"getLastInvariant()": "1161",
				"getNormalizedWeights()": "infinite",
				"getOwner()": "infinite",
				"getPausedState()": "infinite",
				"getPoolId()": "infinite",
				"getRate()": "infinite",
				"getScalingFactors()": "infinite",
				"getSwapEnabled()": "1230",
				"getSwapFeePercentage()": "1160",
				"getVault()": "infinite",
				"increaseAllowance(address,uint256)": "23650",
				"name()": "infinite",
				"nonces(address)": "1354",
				"onExitPool(bytes32,address,address,uint256[],uint256,uint256,bytes)": "infinite",
				"onJoinPool(bytes32,address,address,uint256[],uint256,uint256,bytes)": "infinite",
				"onSwap((uint8,address,address,uint256,bytes32,uint256,address,address,bytes),uint256,uint256)": "infinite",
				"permit(address,address,uint256,uint256,uint8,bytes32,bytes32)": "infinite",
				"queryExit(bytes32,address,address,uint256[],uint256,uint256,bytes)": "infinite",
				"queryJoin(bytes32,address,address,uint256[],uint256,uint256,bytes)": "infinite",
				"setAssetManagerPoolConfig(address,bytes)": "infinite",
				"setPaused(bool)": "infinite",
				"setSwapEnabled(bool)": "infinite",
				"setSwapFeePercentage(uint256)": "infinite",
				"symbol()": "infinite",
				"totalSupply()": "1141",
				"transfer(address,uint256)": "infinite",
				"transferFrom(address,address,uint256)": "infinite",
				"updateWeightsGradually(uint256,uint256,uint256[])": "infinite"
			}
		},
		"methodIdentifiers": {
			"DOMAIN_SEPARATOR()": "3644e515",
			"allowance(address,address)": "dd62ed3e",
			"approve(address,uint256)": "095ea7b3",
			"balanceOf(address)": "70a08231",
			"decimals()": "313ce567",
			"decreaseAllowance(address,uint256)": "a457c2d7",
			"getActionId(bytes4)": "851c1bb3",
			"getAuthorizer()": "aaabadc5",
			"getGradualWeightUpdateParams()": "7beed220",
			"getInvariant()": "c0ff1a15",
			"getLastInvariant()": "9b02cdde",
			"getNormalizedWeights()": "f89f27ed",
			"getOwner()": "893d20e8",
			"getPausedState()": "1c0de051",
			"getPoolId()": "38fff2d0",
			"getRate()": "679aefce",
			"getScalingFactors()": "1dd746ea",
			"getSwapEnabled()": "47bc4d92",
			"getSwapFeePercentage()": "55c67628",
			"getVault()": "8d928af8",
			"increaseAllowance(address,uint256)": "39509351",
			"name()": "06fdde03",
			"nonces(address)": "7ecebe00",
			"onExitPool(bytes32,address,address,uint256[],uint256,uint256,bytes)": "74f3b009",
			"onJoinPool(bytes32,address,address,uint256[],uint256,uint256,bytes)": "d5c096c4",
			"onSwap((uint8,address,address,uint256,bytes32,uint256,address,address,bytes),uint256,uint256)": "9d2c110c",
			"permit(address,address,uint256,uint256,uint8,bytes32,bytes32)": "d505accf",
			"queryExit(bytes32,address,address,uint256[],uint256,uint256,bytes)": "6028bfd4",
			"queryJoin(bytes32,address,address,uint256[],uint256,uint256,bytes)": "87ec6817",
			"setAssetManagerPoolConfig(address,bytes)": "50dd6ed9",
			"setPaused(bool)": "16c38b3c",
			"setSwapEnabled(bool)": "e01af92c",
			"setSwapFeePercentage(uint256)": "38e9922e",
			"symbol()": "95d89b41",
			"totalSupply()": "18160ddd",
			"transfer(address,uint256)": "a9059cbb",
			"transferFrom(address,address,uint256)": "23b872dd",
			"updateWeightsGradually(uint256,uint256,uint256[])": "3e569205"
		}
	},
	"abi": [
		{
			"inputs": [
				{
					"internalType": "contract IVault",
					"name": "vault",
					"type": "address"
				},
				{
					"internalType": "string",
					"name": "name",
					"type": "string"
				},
				{
					"internalType": "string",
					"name": "symbol",
					"type": "string"
				},
				{
					"internalType": "contract IERC20[]",
					"name": "tokens",
					"type": "address[]"
				},
				{
					"internalType": "uint256[]",
					"name": "normalizedWeights",
					"type": "uint256[]"
				},
				{
					"internalType": "uint256",
					"name": "swapFeePercentage",
					"type": "uint256"
				},
				{
					"internalType": "uint256",
					"name": "pauseWindowDuration",
					"type": "uint256"
				},
				{
					"internalType": "uint256",
					"name": "bufferPeriodDuration",
					"type": "uint256"
				},
				{
					"internalType": "address",
					"name": "owner",
					"type": "address"
				},
				{
					"internalType": "bool",
					"name": "swapEnabledOnStart",
					"type": "bool"
				}
			],
			"stateMutability": "nonpayable",
			"type": "constructor"
		},
		{
			"anonymous": false,
			"inputs": [
				{
					"indexed": true,
					"internalType": "address",
					"name": "owner",
					"type": "address"
				},
				{
					"indexed": true,
					"internalType": "address",
					"name": "spender",
					"type": "address"
				},
				{
					"indexed": false,
					"internalType": "uint256",
					"name": "value",
					"type": "uint256"
				}
			],
			"name": "Approval",
			"type": "event"
		},
		{
			"anonymous": false,
			"inputs": [
				{
					"indexed": false,
					"internalType": "uint256",
					"name": "startTime",
					"type": "uint256"
				},
				{
					"indexed": false,
					"internalType": "uint256",
					"name": "endTime",
					"type": "uint256"
				},
				{
					"indexed": false,
					"internalType": "uint256[]",
					"name": "startWeights",
					"type": "uint256[]"
				},
				{
					"indexed": false,
					"internalType": "uint256[]",
					"name": "endWeights",
					"type": "uint256[]"
				}
			],
			"name": "GradualWeightUpdateScheduled",
			"type": "event"
		},
		{
			"anonymous": false,
			"inputs": [
				{
					"indexed": false,
					"internalType": "bool",
					"name": "paused",
					"type": "bool"
				}
			],
			"name": "PausedStateChanged",
			"type": "event"
		},
		{
			"anonymous": false,
			"inputs": [
				{
					"indexed": false,
					"internalType": "bool",
					"name": "swapEnabled",
					"type": "bool"
				}
			],
			"name": "SwapEnabledSet",
			"type": "event"
		},
		{
			"anonymous": false,
			"inputs": [
				{
					"indexed": false,
					"internalType": "uint256",
					"name": "swapFeePercentage",
					"type": "uint256"
				}
			],
			"name": "SwapFeePercentageChanged",
			"type": "event"
		},
		{
			"anonymous": false,
			"inputs": [
				{
					"indexed": true,
					"internalType": "address",
					"name": "from",
					"type": "address"
				},
				{
					"indexed": true,
					"internalType": "address",
					"name": "to",
					"type": "address"
				},
				{
					"indexed": false,
					"internalType": "uint256",
					"name": "value",
					"type": "uint256"
				}
			],
			"name": "Transfer",
			"type": "event"
		},
		{
			"inputs": [],
			"name": "DOMAIN_SEPARATOR",
			"outputs": [
				{
					"internalType": "bytes32",
					"name": "",
					"type": "bytes32"
				}
			],
			"stateMutability": "view",
			"type": "function"
		},
		{
			"inputs": [
				{
					"internalType": "address",
					"name": "owner",
					"type": "address"
				},
				{
					"internalType": "address",
					"name": "spender",
					"type": "address"
				}
			],
			"name": "allowance",
			"outputs": [
				{
					"internalType": "uint256",
					"name": "",
					"type": "uint256"
				}
			],
			"stateMutability": "view",
			"type": "function"
		},
		{
			"inputs": [
				{
					"internalType": "address",
					"name": "spender",
					"type": "address"
				},
				{
					"internalType": "uint256",
					"name": "amount",
					"type": "uint256"
				}
			],
			"name": "approve",
			"outputs": [
				{
					"internalType": "bool",
					"name": "",
					"type": "bool"
				}
			],
			"stateMutability": "nonpayable",
			"type": "function"
		},
		{
			"inputs": [
				{
					"internalType": "address",
					"name": "account",
					"type": "address"
				}
			],
			"name": "balanceOf",
			"outputs": [
				{
					"internalType": "uint256",
					"name": "",
					"type": "uint256"
				}
			],
			"stateMutability": "view",
			"type": "function"
		},
		{
			"inputs": [],
			"name": "decimals",
			"outputs": [
				{
					"internalType": "uint8",
					"name": "",
					"type": "uint8"
				}
			],
			"stateMutability": "view",
			"type": "function"
		},
		{
			"inputs": [
				{
					"internalType": "address",
					"name": "spender",
					"type": "address"
				},
				{
					"internalType": "uint256",
					"name": "amount",
					"type": "uint256"
				}
			],
			"name": "decreaseAllowance",
			"outputs": [
				{
					"internalType": "bool",
					"name": "",
					"type": "bool"
				}
			],
			"stateMutability": "nonpayable",
			"type": "function"
		},
		{
			"inputs": [
				{
					"internalType": "bytes4",
					"name": "selector",
					"type": "bytes4"
				}
			],
			"name": "getActionId",
			"outputs": [
				{
					"internalType": "bytes32",
					"name": "",
					"type": "bytes32"
				}
			],
			"stateMutability": "view",
			"type": "function"
		},
		{
			"inputs": [],
			"name": "getAuthorizer",
			"outputs": [
				{
					"internalType": "contract IAuthorizer",
					"name": "",
					"type": "address"
				}
			],
			"stateMutability": "view",
			"type": "function"
		},
		{
			"inputs": [],
			"name": "getGradualWeightUpdateParams",
			"outputs": [
				{
					"internalType": "uint256",
					"name": "startTime",
					"type": "uint256"
				},
				{
					"internalType": "uint256",
					"name": "endTime",
					"type": "uint256"
				},
				{
					"internalType": "uint256[]",
					"name": "endWeights",
					"type": "uint256[]"
				}
			],
			"stateMutability": "view",
			"type": "function"
		},
		{
			"inputs": [],
			"name": "getInvariant",
			"outputs": [
				{
					"internalType": "uint256",
					"name": "",
					"type": "uint256"
				}
			],
			"stateMutability": "view",
			"type": "function"
		},
		{
			"inputs": [],
			"name": "getLastInvariant",
			"outputs": [
				{
					"internalType": "uint256",
					"name": "",
					"type": "uint256"
				}
			],
			"stateMutability": "view",
			"type": "function"
		},
		{
			"inputs": [],
			"name": "getNormalizedWeights",
			"outputs": [
				{
					"internalType": "uint256[]",
					"name": "",
					"type": "uint256[]"
				}
			],
			"stateMutability": "view",
			"type": "function"
		},
		{
			"inputs": [],
			"name": "getOwner",
			"outputs": [
				{
					"internalType": "address",
					"name": "",
					"type": "address"
				}
			],
			"stateMutability": "view",
			"type": "function"
		},
		{
			"inputs": [],
			"name": "getPausedState",
			"outputs": [
				{
					"internalType": "bool",
					"name": "paused",
					"type": "bool"
				},
				{
					"internalType": "uint256",
					"name": "pauseWindowEndTime",
					"type": "uint256"
				},
				{
					"internalType": "uint256",
					"name": "bufferPeriodEndTime",
					"type": "uint256"
				}
			],
			"stateMutability": "view",
			"type": "function"
		},
		{
			"inputs": [],
			"name": "getPoolId",
			"outputs": [
				{
					"internalType": "bytes32",
					"name": "",
					"type": "bytes32"
				}
			],
			"stateMutability": "view",
			"type": "function"
		},
		{
			"inputs": [],
			"name": "getRate",
			"outputs": [
				{
					"internalType": "uint256",
					"name": "",
					"type": "uint256"
				}
			],
			"stateMutability": "view",
			"type": "function"
		},
		{
			"inputs": [],
			"name": "getScalingFactors",
			"outputs": [
				{
					"internalType": "uint256[]",
					"name": "",
					"type": "uint256[]"
				}
			],
			"stateMutability": "view",
			"type": "function"
		},
		{
			"inputs": [],
			"name": "getSwapEnabled",
			"outputs": [
				{
					"internalType": "bool",
					"name": "",
					"type": "bool"
				}
			],
			"stateMutability": "view",
			"type": "function"
		},
		{
			"inputs": [],
			"name": "getSwapFeePercentage",
			"outputs": [
				{
					"internalType": "uint256",
					"name": "",
					"type": "uint256"
				}
			],
			"stateMutability": "view",
			"type": "function"
		},
		{
			"inputs": [],
			"name": "getVault",
			"outputs": [
				{
					"internalType": "contract IVault",
					"name": "",
					"type": "address"
				}
			],
			"stateMutability": "view",
			"type": "function"
		},
		{
			"inputs": [
				{
					"internalType": "address",
					"name": "spender",
					"type": "address"
				},
				{
					"internalType": "uint256",
					"name": "addedValue",
					"type": "uint256"
				}
			],
			"name": "increaseAllowance",
			"outputs": [
				{
					"internalType": "bool",
					"name": "",
					"type": "bool"
				}
			],
			"stateMutability": "nonpayable",
			"type": "function"
		},
		{
			"inputs": [],
			"name": "name",
			"outputs": [
				{
					"internalType": "string",
					"name": "",
					"type": "string"
				}
			],
			"stateMutability": "view",
			"type": "function"
		},
		{
			"inputs": [
				{
					"internalType": "address",
					"name": "owner",
					"type": "address"
				}
			],
			"name": "nonces",
			"outputs": [
				{
					"internalType": "uint256",
					"name": "",
					"type": "uint256"
				}
			],
			"stateMutability": "view",
			"type": "function"
		},
		{
			"inputs": [
				{
					"internalType": "bytes32",
					"name": "poolId",
					"type": "bytes32"
				},
				{
					"internalType": "address",
					"name": "sender",
					"type": "address"
				},
				{
					"internalType": "address",
					"name": "recipient",
					"type": "address"
				},
				{
					"internalType": "uint256[]",
					"name": "balances",
					"type": "uint256[]"
				},
				{
					"internalType": "uint256",
					"name": "lastChangeBlock",
					"type": "uint256"
				},
				{
					"internalType": "uint256",
					"name": "",
					"type": "uint256"
				},
				{
					"internalType": "bytes",
					"name": "userData",
					"type": "bytes"
				}
			],
			"name": "onExitPool",
			"outputs": [
				{
					"internalType": "uint256[]",
					"name": "",
					"type": "uint256[]"
				},
				{
					"internalType": "uint256[]",
					"name": "",
					"type": "uint256[]"
				}
			],
			"stateMutability": "nonpayable",
			"type": "function"
		},
		{
			"inputs": [
				{
					"internalType": "bytes32",
					"name": "poolId",
					"type": "bytes32"
				},
				{
					"internalType": "address",
					"name": "sender",
					"type": "address"
				},
				{
					"internalType": "address",
					"name": "recipient",
					"type": "address"
				},
				{
					"internalType": "uint256[]",
					"name": "balances",
					"type": "uint256[]"
				},
				{
					"internalType": "uint256",
					"name": "lastChangeBlock",
					"type": "uint256"
				},
				{
					"internalType": "uint256",
					"name": "",
					"type": "uint256"
				},
				{
					"internalType": "bytes",
					"name": "userData",
					"type": "bytes"
				}
			],
			"name": "onJoinPool",
			"outputs": [
				{
					"internalType": "uint256[]",
					"name": "",
					"type": "uint256[]"
				},
				{
					"internalType": "uint256[]",
					"name": "",
					"type": "uint256[]"
				}
			],
			"stateMutability": "nonpayable",
			"type": "function"
		},
		{
			"inputs": [
				{
					"components": [
						{
							"internalType": "enum IVault.SwapKind",
							"name": "kind",
							"type": "uint8"
						},
						{
							"internalType": "contract IERC20",
							"name": "tokenIn",
							"type": "address"
						},
						{
							"internalType": "contract IERC20",
							"name": "tokenOut",
							"type": "address"
						},
						{
							"internalType": "uint256",
							"name": "amount",
							"type": "uint256"
						},
						{
							"internalType": "bytes32",
							"name": "poolId",
							"type": "bytes32"
						},
						{
							"internalType": "uint256",
							"name": "lastChangeBlock",
							"type": "uint256"
						},
						{
							"internalType": "address",
							"name": "from",
							"type": "address"
						},
						{
							"internalType": "address",
							"name": "to",
							"type": "address"
						},
						{
							"internalType": "bytes",
							"name": "userData",
							"type": "bytes"
						}
					],
					"internalType": "struct IPoolSwapStructs.SwapRequest",
					"name": "request",
					"type": "tuple"
				},
				{
					"internalType": "uint256",
					"name": "balanceTokenIn",
					"type": "uint256"
				},
				{
					"internalType": "uint256",
					"name": "balanceTokenOut",
					"type": "uint256"
				}
			],
			"name": "onSwap",
			"outputs": [
				{
					"internalType": "uint256",
					"name": "",
					"type": "uint256"
				}
			],
			"stateMutability": "nonpayable",
			"type": "function"
		},
		{
			"inputs": [
				{
					"internalType": "address",
					"name": "owner",
					"type": "address"
				},
				{
					"internalType": "address",
					"name": "spender",
					"type": "address"
				},
				{
					"internalType": "uint256",
					"name": "value",
					"type": "uint256"
				},
				{
					"internalType": "uint256",
					"name": "deadline",
					"type": "uint256"
				},
				{
					"internalType": "uint8",
					"name": "v",
					"type": "uint8"
				},
				{
					"internalType": "bytes32",
					"name": "r",
					"type": "bytes32"
				},
				{
					"internalType": "bytes32",
					"name": "s",
					"type": "bytes32"
				}
			],
			"name": "permit",
			"outputs": [],
			"stateMutability": "nonpayable",
			"type": "function"
		},
		{
			"inputs": [
				{
					"internalType": "bytes32",
					"name": "poolId",
					"type": "bytes32"
				},
				{
					"internalType": "address",
					"name": "sender",
					"type": "address"
				},
				{
					"internalType": "address",
					"name": "recipient",
					"type": "address"
				},
				{
					"internalType": "uint256[]",
					"name": "balances",
					"type": "uint256[]"
				},
				{
					"internalType": "uint256",
					"name": "lastChangeBlock",
					"type": "uint256"
				},
				{
					"internalType": "uint256",
					"name": "protocolSwapFeePercentage",
					"type": "uint256"
				},
				{
					"internalType": "bytes",
					"name": "userData",
					"type": "bytes"
				}
			],
			"name": "queryExit",
			"outputs": [
				{
					"internalType": "uint256",
					"name": "bptIn",
					"type": "uint256"
				},
				{
					"internalType": "uint256[]",
					"name": "amountsOut",
					"type": "uint256[]"
				}
			],
			"stateMutability": "nonpayable",
			"type": "function"
		},
		{
			"inputs": [
				{
					"internalType": "bytes32",
					"name": "poolId",
					"type": "bytes32"
				},
				{
					"internalType": "address",
					"name": "sender",
					"type": "address"
				},
				{
					"internalType": "address",
					"name": "recipient",
					"type": "address"
				},
				{
					"internalType": "uint256[]",
					"name": "balances",
					"type": "uint256[]"
				},
				{
					"internalType": "uint256",
					"name": "lastChangeBlock",
					"type": "uint256"
				},
				{
					"internalType": "uint256",
					"name": "protocolSwapFeePercentage",
					"type": "uint256"
				},
				{
					"internalType": "bytes",
					"name": "userData",
					"type": "bytes"
				}
			],
			"name": "queryJoin",
			"outputs": [
				{
					"internalType": "uint256",
					"name": "bptOut",
					"type": "uint256"
				},
				{
					"internalType": "uint256[]",
					"name": "amountsIn",
					"type": "uint256[]"
				}
			],
			"stateMutability": "nonpayable",
			"type": "function"
		},
		{
			"inputs": [
				{
					"internalType": "contract IERC20",
					"name": "token",
					"type": "address"
				},
				{
					"internalType": "bytes",
					"name": "poolConfig",
					"type": "bytes"
				}
			],
			"name": "setAssetManagerPoolConfig",
			"outputs": [],
			"stateMutability": "nonpayable",
			"type": "function"
		},
		{
			"inputs": [
				{
					"internalType": "bool",
					"name": "paused",
					"type": "bool"
				}
			],
			"name": "setPaused",
			"outputs": [],
			"stateMutability": "nonpayable",
			"type": "function"
		},
		{
			"inputs": [
				{
					"internalType": "bool",
					"name": "swapEnabled",
					"type": "bool"
				}
			],
			"name": "setSwapEnabled",
			"outputs": [],
			"stateMutability": "nonpayable",
			"type": "function"
		},
		{
			"inputs": [
				{
					"internalType": "uint256",
					"name": "swapFeePercentage",
					"type": "uint256"
				}
			],
			"name": "setSwapFeePercentage",
			"outputs": [],
			"stateMutability": "nonpayable",
			"type": "function"
		},
		{
			"inputs": [],
			"name": "symbol",
			"outputs": [
				{
					"internalType": "string",
					"name": "",
					"type": "string"
				}
			],
			"stateMutability": "view",
			"type": "function"
		},
		{
			"inputs": [],
			"name": "totalSupply",
			"outputs": [
				{
					"internalType": "uint256",
					"name": "",
					"type": "uint256"
				}
			],
			"stateMutability": "view",
			"type": "function"
		},
		{
			"inputs": [
				{
					"internalType": "address",
					"name": "recipient",
					"type": "address"
				},
				{
					"internalType": "uint256",
					"name": "amount",
					"type": "uint256"
				}
			],
			"name": "transfer",
			"outputs": [
				{
					"internalType": "bool",
					"name": "",
					"type": "bool"
				}
			],
			"stateMutability": "nonpayable",
			"type": "function"
		},
		{
			"inputs": [
				{
					"internalType": "address",
					"name": "sender",
					"type": "address"
				},
				{
					"internalType": "address",
					"name": "recipient",
					"type": "address"
				},
				{
					"internalType": "uint256",
					"name": "amount",
					"type": "uint256"
				}
			],
			"name": "transferFrom",
			"outputs": [
				{
					"internalType": "bool",
					"name": "",
					"type": "bool"
				}
			],
			"stateMutability": "nonpayable",
			"type": "function"
		},
		{
			"inputs": [
				{
					"internalType": "uint256",
					"name": "startTime",
					"type": "uint256"
				},
				{
					"internalType": "uint256",
					"name": "endTime",
					"type": "uint256"
				},
				{
					"internalType": "uint256[]",
					"name": "endWeights",
					"type": "uint256[]"
				}
			],
			"name": "updateWeightsGradually",
			"outputs": [],
			"stateMutability": "nonpayable",
			"type": "function"
		}
	]
}