{
	"data": {
		"bytecode": {
			"linkReferences": {},
			"object": "6101406040523480156200001257600080fd5b5060405162007912380380620079128339810160408190526200003591620001c3565b80604051806020016200004890620001b5565b601f1982820381018352601f909101166040528051819060006002820460a081905280830360e0819052818552909150836200009081620000f9602090811b620002b917901c565b60601b6001600160601b0319166080528285018051838252620000bf82620000f9602090811b620002b917901c565b6001600160601b0319606091821b811660c0529690935290529590951b90911661010052505050426276a700016101205250620001f39050565b80517f602038038060206000396000f3fefefefefefefefefefefefefefefefefefefe808352600091602081018484f09084529150620001476001600160a01b03831615156101ac6200014d565b50919050565b816200015e576200015e8162000162565b5050565b62461bcd60e51b6000908152602060045260076024526642414c23000030600a808404818106603090810160081b95839006959095019082900491820690940160101b939093010160c81b604452606490fd5b616c418062000cd183390190565b600060208284031215620001d5578081fd5b81516001600160a01b0381168114620001ec578182fd5b9392505050565b60805160601c60a05160c05160601c60e0516101005160601c61012051610a7c6200025560003980610163528061018c52508061029752508061031352508061013a528061038f525080610334525080610119528061036b5250610a7c6000f3fe608060405234801561001057600080fd5b50600436106100615760003560e01c8062c194db14610066578063174481fa146100845780632da47c401461009a5780634555fb8d146100b05780636634b753146100d05780638d928af8146100f0575b600080fd5b61006e6100f8565b60405161007b91906108be565b60405180910390f35b61008c610117565b60405161007b929190610899565b6100a261015d565b60405161007b9291906109de565b6100c36100be3660046106df565b6101c7565b60405161007b91906108d1565b6100e36100de3660046106c3565b610273565b60405161007b91906108b3565b6100c3610295565b60606101126040518060200160405280600081525061030b565b905090565b7f00000000000000000000000000000000000000000000000000000000000000007f00000000000000000000000000000000000000000000000000000000000000009091565b600080427f00000000000000000000000000000000000000000000000000000000000000008110156101b957807f000000000000000000000000000000000000000000000000000000000000000003925062278d0091506101c2565b60009250600091505b509091565b60008060006101d461015d565b915091506102646040518061016001604052806101ef610295565b6001600160a01b031681526020018d81526020018c81526020018b81526020018981526020018881526020018a8152602001878152602001848152602001838152602001866001600160a01b031681525060405160200161025091906108e5565b6040516020818303038152906040526103e4565b9b9a5050505050505050505050565b6001600160a01b03811660009081526020819052604090205460ff165b919050565b7f000000000000000000000000000000000000000000000000000000000000000090565b80517f602038038060206000396000f3fefefefefefefefefefefefefefefefefefefe808352600091602081018484f090845291506103056001600160a01b03831615156101ac610444565b50919050565b8051604080517f00000000000000000000000000000000000000000000000000000000000000007f0000000000000000000000000000000000000000000000000000000000000000818101858101848101602090810190965280855293957f00000000000000000000000000000000000000000000000000000000000000009592947f000000000000000000000000000000000000000000000000000000000000000094938801866000828a3c846000888301883c50602089810190898501016103d6818386610456565b505050505050505050919050565b6000806103f083610494565b6001600160a01b038116600081815260208190526040808220805460ff191660011790555192935090917f83a48fbcfc991335314e74d0496aab6a1987e992ddc85dddbcc4d6dd6ef2e9fc9190a292915050565b8161045257610452816104ce565b5050565b5b60208110610476578151835260209283019290910190601f1901610457565b905182516020929092036101000a6000190180199091169116179052565b6000806104a08361030b565b905060008151602083016000f090506001600160a01b0381166104c7573d6000803e3d6000fd5b9392505050565b62461bcd60e51b6000908152602060045260076024526642414c23000030600a808404818106603090810160081b95839006959095019082900491820690940160101b939093010160c81b604452606490fd5b803561029081610a2e565b600082601f83011261053c578081fd5b8135602061055161054c83610a10565b6109ec565b828152818101908583018385028701840188101561056d578586fd5b855b8581101561059457813561058281610a2e565b8452928401929084019060010161056f565b5090979650505050505050565b600082601f8301126105b1578081fd5b813560206105c161054c83610a10565b82815281810190858301838502870184018810156105dd578586fd5b855b858110156105945781356105f281610a2e565b845292840192908401906001016105df565b600082601f830112610614578081fd5b8135602061062461054c83610a10565b8281528181019085830183850287018401881015610640578586fd5b855b8581101561059457813584529284019290840190600101610642565b600082601f83011261066e578081fd5b813567ffffffffffffffff81111561068257fe5b610695601f8201601f19166020016109ec565b8181528460208386010111156106a9578283fd5b816020850160208301379081016020019190915292915050565b6000602082840312156106d4578081fd5b81356104c781610a2e565b600080600080600080600080610100898b0312156106fb578384fd5b883567ffffffffffffffff80821115610712578586fd5b61071e8c838d0161065e565b995060208b0135915080821115610733578586fd5b61073f8c838d0161065e565b985060408b0135915080821115610754578586fd5b6107608c838d0161052c565b975060608b0135965060808b013591508082111561077c578586fd5b6107888c838d016105a1565b955060a08b013591508082111561079d578485fd5b506107aa8b828c01610604565b93505060c089013591506107c060e08a01610521565b90509295985092959890939650565b6001600160a01b03169052565b6000815180845260208085019450808401835b838110156108145781516001600160a01b0316875295820195908201906001016107ef565b509495945050505050565b6000815180845260208085019450808401835b8381101561081457815187529582019590820190600101610832565b60008151808452815b8181101561087357602081850181015186830182015201610857565b818111156108845782602083870101525b50601f01601f19169290920160200192915050565b6001600160a01b0392831681529116602082015260400190565b901515815260200190565b6000602082526104c7602083018461084e565b6001600160a01b0391909116815260200190565b6000602082526108f96020830184516107cf565b602083015161016080604085015261091561018085018361084e565b91506040850151601f1980868503016060870152610933848361084e565b9350606087015191508086850301608087015261095084836107dc565b935060808701519150808685030160a087015261096d84836107dc565b935060a08701519150808685030160c08701525061098b838261081f565b60c087015160e08781019190915287015161010080880191909152870151610120808801919091528701516101408088019190915287015190935090506109d4828601826107cf565b5090949350505050565b918252602082015260400190565b60405181810167ffffffffffffffff81118282101715610a0857fe5b604052919050565b600067ffffffffffffffff821115610a2457fe5b5060209081020190565b6001600160a01b0381168114610a4357600080fd5b5056fea2646970667358221220937b15b49d3a92667ee89ffb8f5ee018a513845c3e81041df586b2adf7ae9bbe64736f6c634300070600336103e06040527f6e71edae12b1b97f4d1f60370fef10105fa2faae0126114a169c64845d6126c9610120523480156200003757600080fd5b5060405162006c4138038062006c418339810160408190526200005a9162001487565b8051602082015160408301516060840151620000779030620009ce565b8460c001518560e00151866101000151876101200151886101400151888651600214620000a6576000620000a9565b60025b8989898a516001600160401b0381118015620000c457600080fd5b50604051908082528060200260200182016040528015620000ef578160200160208202803683370190505b5089898989828289898d8280604051806040016040528060018152602001603160f81b81525085858a336001600160a01b031660001b806080818152505050806001600160a01b031660a0816001600160a01b031660601b8152505050816003908051906020019062000164929190620011c1565b5080516200017a906004906020840190620011c1565b505060058054601260ff1990911617905550815160209283012060c052805191012060e052507f8b73c3c69bb8fe3d512ecc4cf759cc79239f7b179b0ffacaa9a75d522b39400f6101005260601b6001600160601b0319166101405250620001ed90506276a70083111561019462000b68565b6200020162278d0082111561019562000b68565b429091016101608190520161018052855162000223906002111560c862000b68565b6200023d6200023162000b7d565b8751111560c962000b68565b620002538662000b8260201b620014e61760201c565b6200025e8462000b8e565b6040516309b2760f60e01b81526000906001600160a01b038c16906309b2760f906200028f908d90600401620016a7565b602060405180830381600087803b158015620002aa57600080fd5b505af1158015620002bf573d6000803e3d6000fd5b505050506040513d601f19601f82011682018060405250810190620002e591906200144f565b604051633354e3e960e11b81529091506001600160a01b038c16906366a9c7d2906200031a9084908b908b906004016200160d565b600060405180830381600087803b1580156200033557600080fd5b505af11580156200034a573d6000803e3d6000fd5b5050506101a09190915250620003759950505060018d1015965061012c95505062000b689350505050565b6200038861138886111561012d62000b68565b85516101c0819052865187906000906200039e57fe5b60200260200101516001600160a01b03166101e0816001600160a01b031660601b8152505086600181518110620003d157fe5b60200260200101516001600160a01b0316610200816001600160a01b031660601b8152505060028111620004075760006200041e565b866002815181106200041557fe5b60200260200101515b60601b6001600160601b03191661022052600381116200044057600062000457565b866003815181106200044e57fe5b60200260200101515b60601b6001600160601b03191661024052600481116200047957600062000490565b866004815181106200048757fe5b60200260200101515b6001600160a01b0316610260816001600160a01b031660601b81525050620004d387600081518110620004bf57fe5b602002602001015162000c1a60201b60201c565b610280528651620004ec9088906001908110620004bf57fe5b6102a052600281116200050157600062000513565b6200051387600281518110620004bf57fe5b6102c05260038111620005285760006200053a565b6200053a87600381518110620004bf57fe5b6102e052600481116200054f57600062000561565b6200056187600481518110620004bf57fe5b6103008181525050600062000584876103e862000cee60201b620014f01760201c565b9050620005918162000d1d565b5050505050505050505050620005b86002826060015151101560c862000b6860201b60201c565b620005df8160600151518260800151518360a001515162000d5c60201b620015141760201c565b60005b8160600151518110156200071d5760006001600160a01b0316826080015182815181106200060c57fe5b60200260200101516001600160a01b03161462000714576200067e826060015182815181106200063857fe5b6020026020010151836080015183815181106200065157fe5b60200260200101518460a0015184815181106200066a57fe5b602002602001015162000d7c60201b60201c565b816080015181815181106200068f57fe5b60200260200101516001600160a01b031682606001518281518110620006b157fe5b60200260200101516001600160a01b03167ff00a2bf8c71db611a21183e0a96869752bcd9da29372fa76f865eed4fdd540d18460a001518481518110620006f457fe5b60200260200101516040516200070b9190620016bc565b60405180910390a35b600101620005e2565b506060810151515b600081118015620007625750306001600160a01b0316826060015160018303815181106200074f57fe5b60200260200101516001600160a01b0316115b1562000772576000190162000725565b6103208190526060820151516000906001016001600160401b03811180156200079a57600080fd5b50604051908082528060200260200182016040528015620007c5578160200160208202803683370190505b50905060005b81518110156200089557828110156200082a5783608001518181518110620007ef57fe5b60200260200101518282815181106200080457fe5b60200260200101906001600160a01b031690816001600160a01b0316815250506200088c565b82811415620008425760008282815181106200080457fe5b836080015160018203815181106200085657fe5b60200260200101518282815181106200086b57fe5b60200260200101906001600160a01b031690816001600160a01b0316815250505b600101620007cb565b506000815111620008a8576000620008bf565b80600081518110620008b657fe5b60200260200101515b60601b6001600160601b031916610340528051600110620008e2576000620008f9565b80600181518110620008f057fe5b60200260200101515b60601b6001600160601b0319166103605280516002106200091c57600062000933565b806002815181106200092a57fe5b60200260200101515b60601b6001600160601b031916610380528051600310620009565760006200096d565b806003815181106200096457fe5b60200260200101515b60601b6001600160601b0319166103a052805160041062000990576000620009a7565b806004815181106200099e57fe5b60200260200101515b60601b6001600160601b0319166103c0528251620009c59062000e6e565b5050506200171d565b606082516001016001600160401b0381118015620009eb57600080fd5b5060405190808252806020026020018201604052801562000a16578160200160208202803683370190505b50905082516000141562000a5957818160008151811062000a3357fe5b60200260200101906001600160a01b031690816001600160a01b03168152505062000b62565b82515b60008111801562000a955750826001600160a01b031684600183038151811062000a8257fe5b60200260200101516001600160a01b0316115b1562000ae25783600182038151811062000aab57fe5b602002602001015182828151811062000ac057fe5b6001600160a01b03909216602092830291909101909101526000190162000a5c565b60005b8181101562000b315784818151811062000afb57fe5b602002602001015183828151811062000b1057fe5b6001600160a01b039092166020928302919091019091015260010162000ae5565b508282828151811062000b4057fe5b60200260200101906001600160a01b031690816001600160a01b031681525050505b92915050565b8162000b795762000b798162000f9f565b5050565b600590565b8062000b798162000ff2565b62000ba364e8d4a5100082101560cb62000b68565b62000bbb67016345785d8a000082111560ca62000b68565b62000bda8160c06008546200107c60201b6200152c179092919060201c565b6008556040517fa9ba3ffe0b6c366b81232caab38605a0699ad5398d6cce76f91ee809e322dafc9062000c0f908390620016bc565b60405180910390a150565b60006001600160a01b03821630141562000c3e5750670de0b6b3a764000062000ce9565b6000826001600160a01b031663313ce5676040518163ffffffff1660e01b815260040160206040518083038186803b15801562000c7a57600080fd5b505afa15801562000c8f573d6000803e3d6000fd5b505050506040513d601f19601f8201168201806040525081019062000cb59190620015ea565b60ff169050600062000cd46012836200109160201b620015411760201c565b905080600a0a670de0b6b3a764000002925050505b919050565b600082820262000d1684158062000d0e57508385838162000d0b57fe5b04145b600362000b68565b9392505050565b62000d2b81804280620010a9565b7fa0d01593e47e69d07e0ccd87bece09411e07dd1ed40ca8f2e7af2976542a02338160405162000c0f9190620016bc565b62000d77828414801562000d6f57508183145b606762000b68565b505050565b6000826001600160a01b031663679aefce6040518163ffffffff1660e01b815260040160206040518083038186803b15801562000db857600080fd5b505afa15801562000dcd573d6000803e3d6000fd5b505050506040513d601f19601f8201168201806040525081019062000df391906200144f565b9050600062000e0e82846200113960201b620015571760201c565b6001600160a01b0386166000818152600e60205260409081902083905551919250907fcfed57d90913b5ee1895919dcccaff83a9f7a842d912ef137272e5fc6123aa869062000e5f908590620016bc565b60405180910390a25050505050565b6000816001600160a01b031663d2946c2b6040518163ffffffff1660e01b815260040160206040518083038186803b15801562000eaa57600080fd5b505afa15801562000ebf573d6000803e3d6000fd5b505050506040513d601f19601f8201168201806040525081019062000ee5919062001468565b6001600160a01b03166355c676286040518163ffffffff1660e01b815260040160206040518083038186803b15801562000f1e57600080fd5b505afa15801562000f33573d6000803e3d6000fd5b505050506040513d601f19601f8201168201806040525081019062000f5991906200144f565b905080600d819055507f6e4e298b4a98488a054248cfb63661894b93fb9fd398cc9eca58e39215954eb78160405162000f939190620016bc565b60405180910390a15050565b62461bcd60e51b6000908152602060045260076024526642414c23000030600a808404818106603090810160081b95839006959095019082900491820690940160101b939093010160c81b604452606490fd5b600281511015620010035762001079565b6000816000815181106200101357fe5b602002602001015190506000600190505b825181101562000d775760008382815181106200103d57fe5b602002602001015190506200106e816001600160a01b0316846001600160a01b031610606562000b6860201b60201c565b915060010162001024565b50565b6001600160401b03811b1992909216911b1790565b6000620010a383831115600162000b68565b50900390565b620010ca816001600160401b031660c0620011bd60201b620015b21760201c565b620010eb836001600160401b03166080620011bd60201b620015b21760201c565b6200110c856001600160401b03166040620011bd60201b620015b21760201c565b6200112d876001600160401b03166000620011bd60201b620015b21760201c565b17171760095550505050565b60006200114f600160801b841061014962000b68565b620011728242016001600160401b031660c0620011bd60201b620015b21760201c565b62001193836001600160401b03166080620011bd60201b620015b21760201c565b620011b4856001600160801b03166000620011bd60201b620015b21760201c565b17179392505050565b1b90565b828054600181600116156101000203166002900490600052602060002090601f016020900481019282620011f9576000855562001244565b82601f106200121457805160ff191683800117855562001244565b8280016001018555821562001244579182015b828111156200124457825182559160200191906001019062001227565b506200125292915062001256565b5090565b5b8082111562001252576000815560010162001257565b805162000ce98162001707565b600082601f8301126200128b578081fd5b81516020620012a46200129e83620016e9565b620016c5565b8281528181019085830183850287018401881015620012c1578586fd5b855b85811015620012ec578151620012d98162001707565b84529284019290840190600101620012c3565b5090979650505050505050565b600082601f8301126200130a578081fd5b815160206200131d6200129e83620016e9565b82815281810190858301838502870184018810156200133a578586fd5b855b85811015620012ec578151620013528162001707565b845292840192908401906001016200133c565b600082601f83011262001376578081fd5b81516020620013896200129e83620016e9565b8281528181019085830183850287018401881015620013a6578586fd5b855b85811015620012ec57815184529284019290840190600101620013a8565b600082601f830112620013d7578081fd5b81516001600160401b03811115620013eb57fe5b602062001401601f8301601f19168201620016c5565b828152858284870101111562001415578384fd5b835b838110156200143457858101830151828201840152820162001417565b838111156200144557848385840101525b5095945050505050565b60006020828403121562001461578081fd5b5051919050565b6000602082840312156200147a578081fd5b815162000d168162001707565b60006020828403121562001499578081fd5b81516001600160401b0380821115620014b0578283fd5b8184019150610160808387031215620014c7578384fd5b620014d281620016c5565b9050620014df836200126d565b8152602083015182811115620014f3578485fd5b6200150187828601620013c6565b60208301525060408301518281111562001519578485fd5b6200152787828601620013c6565b6040830152506060830151828111156200153f578485fd5b6200154d878286016200127a565b60608301525060808301518281111562001565578485fd5b6200157387828601620012f9565b60808301525060a0830151828111156200158b578485fd5b620015998782860162001365565b60a08301525060c0838101519082015260e08084015190820152610100808401519082015261012080840151908201526101409150620015db8284016200126d565b91810191909152949350505050565b600060208284031215620015fc578081fd5b815160ff8116811462000d16578182fd5b60006060820185835260206060818501528186518084526080860191508288019350845b81811015620016585784516001600160a01b03168352938301939183019160010162001631565b505084810360408601528551808252908201925081860190845b81811015620016995782516001600160a01b03168552938301939183019160010162001672565b509298975050505050505050565b6020810160038310620016b657fe5b91905290565b90815260200190565b6040518181016001600160401b0381118282101715620016e157fe5b604052919050565b60006001600160401b03821115620016fd57fe5b5060209081020190565b6001600160a01b03811681146200107957600080fd5b60805160a05160601c60c05160e05161010051610120516101405160601c61016051610180516101a0516101c0516101e05160601c6102005160601c6102205160601c6102405160601c6102605160601c610280516102a0516102c0516102e05161030051610320516103405160601c6103605160601c6103805160601c6103a05160601c6103c05160601c615353620018ee6000398061095d5280611ceb5250806109065280611c8a5250806108af5280611c295250806108585280611bc85250806107f65280611b67525080610ee052806113f752806124005280612493528061277152806130a3528061354252806138405280613d565280613d7e5250806137075250806136e35250806136bf52508061369b5250806136775250806117ac5280611cb052806131f952806138135250806117505280611c4f52806131b752806137e15250806116f45280611bee528061317552806137af5250806116985280611b8d528061377d5280613e1a5250806116265280611b2c52806137405280613de85250806115c6525080610b8d525080611a26525080611a02525080610fa65250806110ca525080611f00525080611f42525080611f21525080610f7c525080610f0652506153536000f3fe608060405234801561001057600080fd5b50600436106102a05760003560e01c806370a08231116101675780639b02cdde116100ce578063d5c096c411610087578063d5c096c4146105a4578063d60575ca146105b7578063dd62ed3e146105bf578063de82cd34146105d2578063eb0f24d6146105da578063f4b7964d146105e2576102a0565b80639b02cdde1461053a5780639d2c110c14610550578063a457c2d714610563578063a9059cbb14610576578063aaabadc514610589578063d505accf14610591576102a0565b8063851c1bb311610120578063851c1bb3146104e757806387ec6817146104fa578063893d20e81461050d5780638d2334e0146105225780638d928af81461052a57806395d89b4114610532576102a0565b806370a082311461046e57806374f3b009146104815780637520e049146104a25780637ecebe00146104aa5780637f1260d1146104bd57806382687a56146104df576102a0565b8063313ce5671161020b57806354dea00a116101c457806354dea00a1461040057806355c67628146104135780636028bfd41461041b5780636782f3641461043c578063679aefce1461044f5780636daccffa14610457576102a0565b8063313ce567146103a25780633644e515146103b757806338e9922e146103bf57806338fff2d0146103d257806339509351146103da57806350dd6ed9146103ed576102a0565b80631c0de0511161025d5780631c0de051146103285780631dd746ea1461033f578063238a2d591461035457806323b872dd146103695780632df2c7c01461037c5780632f1a0bc91461038f576102a0565b806301ec954a146102a557806304842d4c146102ce57806306fdde03146102d6578063095ea7b3146102eb57806316c38b3c1461030b57806318160ddd14610320575b600080fd5b6102b86102b3366004614e78565b6105f5565b6040516102c59190615148565b60405180910390f35b6102b8610693565b6102de6106a3565b6040516102c5919061521e565b6102fe6102f9366004614b72565b610739565b6040516102c59190615125565b61031e610319366004614c68565b610750565b005b6102b8610764565b61033061076a565b6040516102c593929190615130565b610347610793565b6040516102c591906150ed565b61035c61079d565b6040516102c591906150a0565b6102fe610377366004614abd565b6109ae565b61031e61038a366004614a69565b610a24565b61031e61039d366004614f63565b610a7c565b6103aa610b5f565b6040516102c5919061529f565b6102b8610b68565b61031e6103cd366004614f33565b610b72565b6102b8610b8b565b6102fe6103e8366004614b72565b610baf565b61031e6103fb366004614d86565b610bea565b6102b861040e366004614a69565b610c08565b6102b8610c6a565b61042e610429366004614ca0565b610c7b565b6040516102c5929190615231565b6102b861044a366004614a69565b610cb2565b6102b8610cbd565b61045f610d94565b6040516102c59392919061524a565b6102b861047c366004614a69565b610daf565b61049461048f366004614ca0565b610dca565b6040516102c5929190615100565b6102b8610e48565b6102b86104b8366004614a69565b610e4e565b6104d06104cb366004614a69565b610e69565b6040516102c59392919061526e565b6102b8610ede565b6102b86104f5366004614d42565b610f02565b61042e610508366004614ca0565b610f54565b610515610f7a565b6040516102c5919061508c565b6102b8610f9e565b610515610fa4565b6102de610fc8565b610542611029565b6040516102c5929190615260565b6102b861055e366004614ee8565b611033565b6102fe610571366004614b72565b611040565b6102fe610584366004614b72565b61107e565b61051561108b565b61031e61059f366004614afd565b611095565b6104946105b2366004614ca0565b6111de565b61031e61130d565b6102b86105cd366004614a85565b61131f565b6102b861135c565b61031e611433565b61031e6105f0366004614b72565b61145f565b60008460800151610622610607610fa4565b6001600160a01b0316336001600160a01b03161460cd6115b6565b61063761062d610b8b565b82146101f46115b6565b61064984846106446115c4565b6115e8565b6000610653611600565b905060008751600181111561066457fe5b1461067b5761067687878787856117fa565b610688565b6106888787878785611871565b979650505050505050565b600061069d6118d5565b90505b90565b60038054604080516020601f600260001961010060018816150201909516949094049384018190048102820181019092528281526060939092909183018282801561072f5780601f106107045761010080835404028352916020019161072f565b820191906000526020600020905b81548152906001019060200180831161071257829003601f168201915b5050505050905090565b60006107463384846118dc565b5060015b92915050565b610758611937565b61076181611965565b50565b60025490565b60008060006107776119e3565b159250610782611a00565b915061078c611a24565b9050909192565b606061069d611600565b606060006107a96115c4565b9050806001600160401b03811180156107c157600080fd5b506040519080825280602002602001820160405280156107eb578160200160208202803683370190505b5091508015610847577f00000000000000000000000000000000000000000000000000000000000000008260008151811061082257fe5b60200260200101906001600160a01b031690816001600160a01b03168152505061084d565b506106a0565b6001811115610847577f00000000000000000000000000000000000000000000000000000000000000008260018151811061088457fe5b60200260200101906001600160a01b031690816001600160a01b0316815250506002811115610847577f0000000000000000000000000000000000000000000000000000000000000000826002815181106108db57fe5b60200260200101906001600160a01b031690816001600160a01b0316815250506003811115610847577f00000000000000000000000000000000000000000000000000000000000000008260038151811061093257fe5b60200260200101906001600160a01b031690816001600160a01b0316815250506004811115610847577f00000000000000000000000000000000000000000000000000000000000000008260048151811061098957fe5b60200260200101906001600160a01b031690816001600160a01b0316815250505b5090565b6000806109bb853361131f565b90506109df336001600160a01b03871614806109d75750838210155b61019e6115b6565b6109ea858585611a48565b336001600160a01b03861614801590610a0557506000198114155b15610a1757610a1785338584036118dc565b60019150505b9392505050565b6000610a2f82611b28565b9050610a486001600160a01b03821615156101556115b6565b6001600160a01b0382166000908152600e6020526040812054610a6a90611d1a565b9050610a77838383611d27565b505050565b610a84611937565b610a94600183101561012c6115b6565b610aa561138883111561012d6115b6565b6000610ab18242611541565b9050610ac56201518082101561013d6115b6565b600080610ad0611e06565b91509150610ae1811561013e6115b6565b6000610aef866103e86114f0565b90506000838211610b1e57610b19610b0a62015180866114f0565b610b1484886114f0565b611e7a565b610b38565b610b38610b2e62015180846114f0565b610b1486886114f0565b9050610b4a600282111561013f6115b6565b610b5684834289611ead565b50505050505050565b60055460ff1690565b600061069d611efc565b610b7a611937565b610b82611f99565b61076181611fac565b7f000000000000000000000000000000000000000000000000000000000000000090565b3360008181526001602090815260408083206001600160a01b03871684529091528120549091610746918590610be59086612017565b6118dc565b610bf2611937565b610bfa611f99565b610c048282612029565b5050565b60006001600160a01b038216301415610c2a5750670de0b6b3a7640000610c65565b6001600160a01b0382166000908152600e60205260409020548015610c5757610c5281612128565b610c61565b670de0b6b3a76400005b9150505b919050565b60085460009061069d9060c0612134565b60006060610c918651610c8c6115c4565b612141565b610ca68989898989898961214e6121f1612252565b97509795505050505050565b600061074a82612374565b600080610cc8610fa4565b6001600160a01b031663f94d4668610cde610b8b565b6040518263ffffffff1660e01b8152600401610cfa9190615148565b60006040518083038186803b158015610d1257600080fd5b505afa158015610d26573d6000803e3d6000fd5b505050506040513d6000823e601f3d908101601f19168201604052610d4e9190810190614b9d565b50915050610d6381610d5e611600565b612395565b600080610d6f836123f6565b915091506000610d7d611e06565b509050610d8b8282856124fa565b94505050505090565b6000806000610da1611e06565b90949093506103e892509050565b6001600160a01b031660009081526020819052604090205490565b60608088610dd9610607610fa4565b610de461062d610b8b565b6000610dee611600565b9050610dfa8882612395565b6000806000610e0f8e8e8e8e8e8e8a8f61214e565b925092509250610e1f8d84612515565b610e2982856121f1565b610e3381856121f1565b909550935050505b5097509795505050505050565b600c5490565b6001600160a01b031660009081526006602052604090205490565b60008080610e8d81610e7a86611b28565b6001600160a01b031614156101556115b6565b6001600160a01b0384166000908152600e6020526040902054610eaf90612128565b6001600160a01b0385166000908152600e6020526040902054909350610ed49061251f565b9395909450915050565b7f000000000000000000000000000000000000000000000000000000000000000090565b60007f000000000000000000000000000000000000000000000000000000000000000082604051602001610f37929190615049565b604051602081830303815290604052805190602001209050919050565b60006060610f658651610c8c6115c4565b610ca68989898989898961253f612582612252565b7f000000000000000000000000000000000000000000000000000000000000000090565b600d5490565b7f000000000000000000000000000000000000000000000000000000000000000090565b60048054604080516020601f600260001961010060018816150201909516949094049384018190048102820181019092528281526060939092909183018282801561072f5780601f106107045761010080835404028352916020019161072f565b600a54600b549091565b6000610a1d6101546125e3565b60008061104d338561131f565b905080831061106757611062338560006118dc565b611074565b61107433858584036118dc565b5060019392505050565b6000610746338484611a48565b600061069d612636565b6110a38442111560d16115b6565b6001600160a01b03871660009081526006602090815260408083205490519092916110fa917f0000000000000000000000000000000000000000000000000000000000000000918c918c918c9188918d9101615170565b604051602081830303815290604052805190602001209050600061111d826126b0565b90506000600182888888604051600081526020016040526040516111449493929190615200565b6020604051602081039080840390855afa158015611166573d6000803e3d6000fd5b5050604051601f19015191506111a890506001600160a01b038216158015906111a057508b6001600160a01b0316826001600160a01b0316145b6101f86115b6565b6001600160a01b038b1660009081526006602052604090206001850190556111d18b8b8b6118dc565b5050505050505050505050565b606080886111ed610607610fa4565b6111f861062d610b8b565b6000611202611600565b905061120c610764565b6112bd576000806112208d8d8d868b6126cc565b9150915061123961122f6118d5565b83101560cc6115b6565b61124b60006112466118d5565b6127b8565b61125e8b6112576118d5565b84036127b8565b6112688184612582565b806112716115c4565b6001600160401b038111801561128657600080fd5b506040519080825280602002602001820160405280156112b0578160200160208202803683370190505b5095509550505050610e3b565b6112c78882612395565b60008060006112dc8e8e8e8e8e8e8a8f61253f565b9250925092506112ec8c846127b8565b6112f68285612582565b61130081856121f1565b9095509350610e3b915050565b61131d611318610fa4565b6127c2565b565b6000611329610fa4565b6001600160a01b0316826001600160a01b0316141561134b575060001961074a565b61135583836128e9565b905061074a565b600080611367610fa4565b6001600160a01b031663f94d466861137d610b8b565b6040518263ffffffff1660e01b81526004016113999190615148565b60006040518083038186803b1580156113b157600080fd5b505afa1580156113c5573d6000803e3d6000fd5b505050506040513d6000823e601f3d908101601f191682016040526113ed9190810190614b9d565b5091505061142d817f00000000000000000000000000000000000000000000000000000000000000008151811061142057fe5b6020026020010151612914565b91505090565b61143b611937565b600080611446611e06565b91509150611456816101406115b6565b610c0482612934565b611467611937565b600061147283611b28565b905061148b6001600160a01b03821615156101556115b6565b611496838284611d27565b806001600160a01b0316836001600160a01b03167ff00a2bf8c71db611a21183e0a96869752bcd9da29372fa76f865eed4fdd540d1846040516114d99190615148565b60405180910390a3505050565b80610c048161296f565b6000828202610a1d84158061150d57508385838161150a57fe5b04145b60036115b6565b610a77828414801561152557508183145b60676115b6565b6001600160401b03811b1992909216911b1790565b60006115518383111560016115b6565b50900390565b600061156b600160801b84106101496115b6565b6115818242016001600160401b031660c06115b2565b611595836001600160401b031660806115b2565b6115a9856001600160801b031660006115b2565b17179392505050565b1b90565b81610c0457610c04816125e3565b7f000000000000000000000000000000000000000000000000000000000000000090565b610a7781841080156115f957508183105b60646115b6565b6060600061160c6115c4565b90506116166129e8565b915080156116875761166d61164a7f0000000000000000000000000000000000000000000000000000000000000000610c08565b8360008151811061165757fe5b6020026020010151612b0f90919063ffffffff16565b8260008151811061167a57fe5b6020026020010181815250505b60018111156116e3576116c96116bc7f0000000000000000000000000000000000000000000000000000000000000000610c08565b8360018151811061165757fe5b826001815181106116d657fe5b6020026020010181815250505b600281111561173f576117256117187f0000000000000000000000000000000000000000000000000000000000000000610c08565b8360028151811061165757fe5b8260028151811061173257fe5b6020026020010181815250505b600381111561179b576117816117747f0000000000000000000000000000000000000000000000000000000000000000610c08565b8360038151811061165757fe5b8260038151811061178e57fe5b6020026020010181815250505b60048111156109aa576117dd6117d07f0000000000000000000000000000000000000000000000000000000000000000610c08565b8360048151811061165757fe5b826004815181106117ea57fe5b6020026020010181815250505090565b60006118068583612395565b611827866060015183858151811061181a57fe5b6020026020010151612b3b565b6060870152600061183a87878787612b47565b90506118598184878151811061184c57fe5b6020026020010151612d01565b905061186481612d0d565b9150505b95945050505050565b60006118808660600151612d33565b606087015261188f8583612395565b6118a3866060015183868151811061181a57fe5b606087015260006118b687878787612d54565b9050611864818486815181106118c857fe5b6020026020010151612e7e565b620f424090565b6001600160a01b0380841660008181526001602090815260408083209487168084529490915290819020849055517f8c5be1e5ebec7d5bd14f71427d1e84f3dd0314c0f7b2291e5b200ac8c7c3b925906114d9908590615148565b600061194e6000356001600160e01b031916610f02565b905061076161195d8233612e8a565b6101916115b6565b801561198557611980611976611a00565b42106101936115b6565b61199a565b61199a611990611a24565b42106101a96115b6565b6007805460ff19168215151790556040517f9e3a5e37224532dea67b89face185703738a228a6e8a23dee546960180d3be64906119d8908390615125565b60405180910390a150565b60006119ed611a24565b42118061069d57505060075460ff161590565b7f000000000000000000000000000000000000000000000000000000000000000090565b7f000000000000000000000000000000000000000000000000000000000000000090565b611a5f6001600160a01b03841615156101986115b6565b611a766001600160a01b03831615156101996115b6565b611a81838383610a77565b6001600160a01b038316600090815260208190526040902054611aa790826101a0612f73565b6001600160a01b038085166000908152602081905260408082209390935590841681522054611ad69082612017565b6001600160a01b0380841660008181526020819052604090819020939093559151908516907fddf252ad1be2c89b69c2b068fc378daa952ba7f163c4a11628f55a4df523b3ef906114d9908590615148565b60007f00000000000000000000000000000000000000000000000000000000000000006001600160a01b0316826001600160a01b03161415611b8b57507f0000000000000000000000000000000000000000000000000000000000000000610c65565b7f00000000000000000000000000000000000000000000000000000000000000006001600160a01b0316826001600160a01b03161415611bec57507f0000000000000000000000000000000000000000000000000000000000000000610c65565b7f00000000000000000000000000000000000000000000000000000000000000006001600160a01b0316826001600160a01b03161415611c4d57507f0000000000000000000000000000000000000000000000000000000000000000610c65565b7f00000000000000000000000000000000000000000000000000000000000000006001600160a01b0316826001600160a01b03161415611cae57507f0000000000000000000000000000000000000000000000000000000000000000610c65565b7f00000000000000000000000000000000000000000000000000000000000000006001600160a01b0316826001600160a01b03161415611d0f57507f0000000000000000000000000000000000000000000000000000000000000000610c65565b610c656101356125e3565b600061074a826080612134565b6000826001600160a01b031663679aefce6040518163ffffffff1660e01b815260040160206040518083038186803b158015611d6257600080fd5b505afa158015611d76573d6000803e3d6000fd5b505050506040513d601f19601f82011682018060405250810190611d9a9190614f4b565b90506000611da88284611557565b6001600160a01b0386166000818152600e60205260409081902083905551919250907fcfed57d90913b5ee1895919dcccaff83a9f7a842d912ef137272e5fc6123aa8690611df7908590615148565b60405180910390a25050505050565b600080600080600080611e17612f89565b935093509350935080421015611e6a576001945083831115611e4e578181038242038585030281611e4457fe5b0484019550611e65565b8181038242038486030281611e5f57fe5b04840395505b611e72565b600094508295505b505050509091565b6000611e8982151560046115b6565b82611e965750600061074a565b816001840381611ea257fe5b04600101905061074a565b611eb984848484612fe0565b7f1835882ee7a34ac194f717a35e09bb1d24c82a3b9d854ab6c9749525b714cdf284848484604051611eee9493929190615284565b60405180910390a150505050565b60007f00000000000000000000000000000000000000000000000000000000000000007f00000000000000000000000000000000000000000000000000000000000000007f0000000000000000000000000000000000000000000000000000000000000000611f6961303c565b30604051602001611f7e9594939291906151a4565b60405160208183030381529060405280519060200120905090565b61131d611fa46119e3565b6101926115b6565b611fbf64e8d4a5100082101560cb6115b6565b611fd567016345785d8a000082111560ca6115b6565b600854611fe4908260c061152c565b6008556040517fa9ba3ffe0b6c366b81232caab38605a0699ad5398d6cce76f91ee809e322dafc906119d8908390615148565b6000828201610a1d84821015836115b6565b6000612033610b8b565b9050600061203f610fa4565b6001600160a01b031663b05f8e4883866040518363ffffffff1660e01b815260040161206c9291906151e9565b60806040518083038186803b15801561208457600080fd5b505afa158015612098573d6000803e3d6000fd5b505050506040513d601f19601f820116820180604052508101906120bc9190614f84565b604051630639cdb560e21b81529094506001600160a01b03851693506318e736d492506120f09150859087906004016151d0565b600060405180830381600087803b15801561210a57600080fd5b505af115801561211e573d6000803e3d6000fd5b5050505050505050565b600061074a8282613040565b1c6001600160401b031690565b610c0481831460676115b6565b6000606080600061215e8561304d565b9050600081801561216b57fe5b14156121d757612179613063565b6121838986613077565b90945092506121906115c4565b6001600160401b03811180156121a557600080fd5b506040519080825280602002602001820160405280156121cf578160200160208202803683370190505b5091506121e2565b6121e26101546125e3565b50985098509895505050505050565b60005b6121fc6115c4565b811015610a775761223383828151811061221257fe5b602002602001015183838151811061222657fe5b60200260200101516130ed565b83828151811061223f57fe5b60209081029190910101526001016121f4565b333014612310576000306001600160a01b0316600036604051612276929190615061565b6000604051808303816000865af19150503d80600081146122b3576040519150601f19603f3d011682016040523d82523d6000602084013e6122b8565b606091505b5050905080600081146122c757fe5b60046000803e6000516001600160e01b0319166343adbafb60e01b81146122f2573d6000803e3d6000fd5b506020600460003e604060205260243d03602460403e601c3d016000f35b600061231a611600565b90506123268782612395565b60008061233d8c8c8c8c8c8c898d8d63ffffffff16565b509150915061235081848663ffffffff16565b8051601f1982018390526343adbafb603f1983015260200260231982016044820181fd5b6000806123808361313e565b9050610c6161238e84610c08565b8290612b0f565b60005b6123a06115c4565b811015610a77576123d78382815181106123b657fe5b60200260200101518383815181106123ca57fe5b6020026020010151612b0f565b8382815181106123e357fe5b6020908102919091010152600101612398565b60006060600c54837f00000000000000000000000000000000000000000000000000000000000000008151811061242957fe5b60200260200101516001600160701b030301915060018351036001600160401b038111801561245757600080fd5b50604051908082528060200260200182016040528015612481578160200160208202803683370190505b50905060005b81518110156124f457837f000000000000000000000000000000000000000000000000000000000000000082106124c157816001016124c3565b815b815181106124cd57fe5b60200260200101518282815181106124e157fe5b6020908102919091010152600101612487565b50915091565b60008061250984866000613239565b905061186881846130ed565b610c0482826133cf565b60008061252b83611d1a565b91506125388360c0612134565b9050915091565b6000606080600061254f8561348b565b9050600181600181111561255f57fe5b14156121d75761256d6134a1565b93509350935050985098509895505050505050565b60005b61258d6115c4565b811015610a77576125c48382815181106125a357fe5b60200260200101518383815181106125b757fe5b6020026020010151613583565b8382815181106125d057fe5b6020908102919091010152600101612585565b62461bcd60e51b6000908152602060045260076024526642414c23000030600a808404818106603090810160081b95839006959095019082900491820690940160101b939093010160c81b604452606490fd5b6000612640610fa4565b6001600160a01b031663aaabadc56040518163ffffffff1660e01b815260040160206040518083038186803b15801561267857600080fd5b505afa15801561268c573d6000803e3d6000fd5b505050506040513d601f19601f8201168201806040525081019061069d9190614d6a565b60006126ba611efc565b82604051602001610f37929190615071565b600060606126d8611f99565b60006126e38461348b565b90506126fe60008260018111156126f657fe5b1460ce6115b6565b6000612709856135d1565b90506127188151610c8c6115c4565b6127228187612395565b600061272c611e06565b509050600061273a836123f6565b915050600061274b83836001613239565b90508060006127616001600160701b0383611541565b905061276d8d826127b8565b80867f00000000000000000000000000000000000000000000000000000000000000008151811061279a57fe5b6020908102919091010152509c939b50929950505050505050505050565b610c0482826135e7565b6000816001600160a01b031663d2946c2b6040518163ffffffff1660e01b815260040160206040518083038186803b1580156127fd57600080fd5b505afa158015612811573d6000803e3d6000fd5b505050506040513d601f19601f820116820180604052508101906128359190614d6a565b6001600160a01b03166355c676286040518163ffffffff1660e01b815260040160206040518083038186803b15801561286d57600080fd5b505afa158015612881573d6000803e3d6000fd5b505050506040513d601f19601f820116820180604052508101906128a59190614f4b565b905080600d819055507f6e4e298b4a98488a054248cfb63661894b93fb9fd398cc9eca58e39215954eb7816040516128dd9190615148565b60405180910390a15050565b6001600160a01b03918216600090815260016020908152604080832093909416825291909152205490565b600061074a600c5461292e84612928610764565b90611541565b90612017565b61294081824242612fe0565b7fa0d01593e47e69d07e0ccd87bece09411e07dd1ed40ca8f2e7af2976542a0233816040516119d89190615148565b60028151101561297e57610761565b60008160008151811061298d57fe5b602002602001015190506000600190505b8251811015610a775760008382815181106129b557fe5b602002602001015190506129de816001600160a01b0316846001600160a01b03161060656115b6565b915060010161299e565b606060006129f46115c4565b90506000816001600160401b0381118015612a0e57600080fd5b50604051908082528060200260200182016040528015612a38578160200160208202803683370190505b509050612a43613675565b81600081518110612a5057fe5b602002602001018181525050612a64613699565b81600181518110612a7157fe5b6020026020010181815250506002821115612aac57612a8e6136bd565b81600281518110612a9b57fe5b602002602001018181525050612ab5565b91506106a09050565b6003821115612aac57612ac66136e1565b81600381518110612ad357fe5b6020026020010181815250506004821115612aac57612af0613705565b81600481518110612afd57fe5b60200260200101818152505091505090565b6000828202612b2984158061150d57508385838161150a57fe5b670de0b6b3a764000090049392505050565b6000610a1d8383612b0f565b6000612b51611f99565b612b59613729565b600d54600080612b68876123f6565b60208a015191935091506001600160a01b0316301415612bb157612b9a8860600151612b938761383c565b8484613875565b93508215612bac57612bac84846138f9565b612cf6565b60408801516001600160a01b0316301415612bf457612bde8860600151612bd78861383c565b8484613959565b93508215612bac57612bac8860600151846138f9565b6000612bfe611e06565b5090506000612c0f82846001613239565b9050612c338284612c1f8b61383c565b612c288b61383c565b8e6060015186613980565b95508415612cf3576000612c468961383c565b90506000612c538961383c565b90506000612c6089612d0d565b9050612c8881878581518110612c7257fe5b602002602001015161201790919063ffffffff16565b868481518110612c9457fe5b602002602001018181525050612cca8d60600151878481518110612cb457fe5b602002602001015161154190919063ffffffff16565b868381518110612cd657fe5b602002602001018181525050612cef8486888a8c613a1f565b5050505b50505b505050949350505050565b6000610a1d8383613583565b600061074a612d2c612d1d610c6a565b670de0b6b3a764000090611541565b8390613583565b600080612d48612d41610c6a565b8490613aca565b9050610c618382611541565b6000612d5e611f99565b612d66613729565b600d54600080612d75876123f6565b60208a015191935091506001600160a01b0316301415612da757612bde8860600151612da08761383c565b8484613b0d565b60408801516001600160a01b0316301415612dd457612b9a8860600151612dcd8861383c565b8484613b2a565b6000612dde611e06565b5090506000612def82846001613239565b9050612e138284612dff8b61383c565b612e088b61383c565b8e6060015186613bae565b95508415612cf3576000612e268961383c565b90506000612e338961383c565b90506000612e448d60600151612d0d565b9050612e5681878581518110612c7257fe5b868481518110612e6257fe5b602002602001018181525050612cca89878481518110612cb457fe5b6000610a1d83836130ed565b600073ba1ba1ba1ba1ba1ba1ba1ba1ba1ba1ba1ba1ba1b612ea9610f7a565b6001600160a01b031614158015612ec45750612ec483613c2b565b15612eec57612ed1610f7a565b6001600160a01b0316336001600160a01b031614905061074a565b612ef4612636565b6001600160a01b0316639be2a8848484306040518463ffffffff1660e01b8152600401612f2393929190615151565b60206040518083038186803b158015612f3b57600080fd5b505afa158015612f4f573d6000803e3d6000fd5b505050506040513d601f19601f820116820180604052508101906113559190614c84565b6000612f8284841115836115b6565b5050900390565b600080600080612fa5600060095461213490919063ffffffff16565b600954909450612fb6906040612134565b600954909350612fc7906080612134565b600954909250612fd89060c0612134565b905090919293565b612ff4816001600160401b031660c06115b2565b613008836001600160401b031660806115b2565b61301c856001600160401b031660406115b2565b613030876001600160401b031660006115b2565b17171760095550505050565b4690565b1c6001600160801b031690565b60008180602001905181019061074a9190614dd3565b61131d61306e6119e3565b156101af6115b6565b600060606000613086856123f6565b915050600061309485613c4e565b905060006130d183836130cc8a7f00000000000000000000000000000000000000000000000000000000000000008151811061142057fe5b613c64565b9050816130df826000613cff565b945094505050509250929050565b60006130fc82151560046115b6565b826131095750600061074a565b670de0b6b3a76400008381029061312c9085838161312357fe5b041460056115b6565b82818161313557fe5b0491505061074a565b600061314982613de6565b1561315d57613156613675565b9050610c65565b61316682613e18565b1561317357613156613699565b7f00000000000000000000000000000000000000000000000000000000000000006001600160a01b0316826001600160a01b031614156131b5576131566136bd565b7f00000000000000000000000000000000000000000000000000000000000000006001600160a01b0316826001600160a01b031614156131f7576131566136e1565b7f00000000000000000000000000000000000000000000000000000000000000006001600160a01b0316826001600160a01b03161415611d0f57613156613705565b81516000908190815b8181101561327a5761327086828151811061325957fe5b60200260200101518461201790919063ffffffff16565b9250600101613242565b508161328b57600092505050610a1d565b600082878302825b60ff8110156133b7576000858a6000815181106132ac57fe5b60200260200101510290506000600190505b86811015613300576132f66132ef6132e9848e85815181106132dc57fe5b60200260200101516114f0565b896114f0565b868c613e4a565b91506001016132be565b5083945061336d61333c61332961332061331a878c6114f0565b856114f0565b6103e88d613e4a565b61292e6133368a896114f0565b886114f0565b61336761335a6133506103e88803866114f0565b6103e88e15613e4a565b61292e8a600101896114f0565b8b613e4a565b935084841115613395576001858503116133905783975050505050505050610a1d565b6133ae565b6001848603116133ae5783975050505050505050610a1d565b50600101613293565b506133c36101416125e3565b50505050509392505050565b6133e66001600160a01b038316151561019b6115b6565b6133f282600083610a77565b6001600160a01b03821660009081526020819052604090205461341890826101a1612f73565b6001600160a01b03831660009081526020819052604090205560025461343e9082613e72565b6002556040516000906001600160a01b038416907fddf252ad1be2c89b69c2b068fc378daa952ba7f163c4a11628f55a4df523b3ef9061347f908590615148565b60405180910390a35050565b60008180602001905181019061074a9190614e18565b600060608060006134b06115c4565b905060009350806001600160401b03811180156134cc57600080fd5b506040519080825280602002602001820160405280156134f6578160200160208202803683370190505b509250806001600160401b038111801561350f57600080fd5b50604051908082528060200260200182016040528015613539578160200160208202803683370190505b509150600c54827f00000000000000000000000000000000000000000000000000000000000000008151811061356b57fe5b6020908102919091010152506000600c559192909190565b600061359282151560046115b6565b8261359f5750600061074a565b670de0b6b3a7640000838102906135b99085838161312357fe5b8260018203816135c557fe5b0460010191505061074a565b606081806020019051810190610a1d9190614e34565b6135f360008383610a77565b6002546136009082612017565b6002556001600160a01b0382166000908152602081905260409020546136269082612017565b6001600160a01b0383166000818152602081905260408082209390935591519091907fddf252ad1be2c89b69c2b068fc378daa952ba7f163c4a11628f55a4df523b3ef9061347f908590615148565b7f000000000000000000000000000000000000000000000000000000000000000090565b7f000000000000000000000000000000000000000000000000000000000000000090565b7f000000000000000000000000000000000000000000000000000000000000000090565b7f000000000000000000000000000000000000000000000000000000000000000090565b7f000000000000000000000000000000000000000000000000000000000000000090565b60006137336115c4565b90508015613769576137647f0000000000000000000000000000000000000000000000000000000000000000613e80565b61376f565b5061131d565b6001811115613769576137a17f0000000000000000000000000000000000000000000000000000000000000000613e80565b6002811115613769576137d37f0000000000000000000000000000000000000000000000000000000000000000613e80565b6003811115613769576138057f0000000000000000000000000000000000000000000000000000000000000000613e80565b6004811115613769576138377f0000000000000000000000000000000000000000000000000000000000000000613e80565b610761565b60007f000000000000000000000000000000000000000000000000000000000000000082106109aa57613870826001611541565b61074a565b600080613880611e06565b5090506000600161388f6115c4565b036001600160401b03811180156138a557600080fd5b506040519080825280602002602001820160405280156138cf578160200160208202803683370190505b509050868187815181106138df57fe5b602002602001018181525050610688828583886000613efe565b60006139088361292885612d0d565b905060006139168284612b0f565b600c549091506139269082612017565b600c556040517f1d2422d87bc31f46211cfdfe158c5eccb86547546c7a4fff6be15a0a944c84b290611eee908390615148565b600080613964611e06565b509050613976818487898860006141af565b9695505050505050565b600061399283878681518110612cb457fe5b86858151811061399e57fe5b60200260200101818152505060006139b8888885896142c4565b9050838786815181106139c757fe5b6020026020010151018786815181106139dc57fe5b602002602001018181525050613a13600161292e8989815181106139fc57fe5b60200260200101518461154190919063ffffffff16565b98975050505050505050565b6000613a2d85856000613239565b90506000613a3b82886130ed565b9050670de0b6b3a7640000811115610b56576000613a75613a6e86613a6885670de0b6b3a7640000611541565b90612b0f565b8590612b0f565b600c54909150613a859082612017565b600c556040517f1d2422d87bc31f46211cfdfe158c5eccb86547546c7a4fff6be15a0a944c84b290613ab8908390615148565b60405180910390a15050505050505050565b6000828202613ae484158061150d57508385838161150a57fe5b80613af357600091505061074a565b670de0b6b3a764000060001982016135c5565b5092915050565b600080613b18611e06565b50905061397681848789886000614464565b6000806001613b376115c4565b036001600160401b0381118015613b4d57600080fd5b50604051908082528060200260200182016040528015613b77578160200160208202803683370190505b50905085818681518110613b8757fe5b6020026020010181815250506000613b9d611e06565b50905061068881858488600061452b565b6000613bc083878781518110612c7257fe5b868681518110613bcc57fe5b6020026020010181815250506000613be6888885886142c4565b905083878781518110613bf557fe5b602002602001015103878781518110613c0a57fe5b602002602001018181525050613a136001612928838a8981518110612cb457fe5b6000613c3d63f4b7964d60e01b610f02565b82148061074a575061074a826147a7565b600081806020019051810190610a1d9190614ded565b60606000613c7284846130ed565b9050600085516001600160401b0381118015613c8d57600080fd5b50604051908082528060200260200182016040528015613cb7578160200160208202803683370190505b50905060005b8651811015613cf557613cd68388838151811061165757fe5b828281518110613ce257fe5b6020908102919091010152600101613cbd565b5095945050505050565b606082516001016001600160401b0381118015613d1b57600080fd5b50604051908082528060200260200182016040528015613d45578160200160208202803683370190505b50905060005b8151811015613b06577f00000000000000000000000000000000000000000000000000000000000000008114613dc557837f00000000000000000000000000000000000000000000000000000000000000008210613dac5760018203613dae565b815b81518110613db857fe5b6020026020010151613dc7565b825b828281518110613dd357fe5b6020908102919091010152600101613d4b565b7f00000000000000000000000000000000000000000000000000000000000000006001600160a01b0390811691161490565b7f00000000000000000000000000000000000000000000000000000000000000006001600160a01b0390811691161490565b600081613e6057613e5b84846147e3565b613e6a565b613e6a8484611e7a565b949350505050565b6000610a1d83836001612f73565b6001600160a01b038116301415613e9657610761565b6001600160a01b0381166000908152600e60205260409020548015610c04576001600160a01b0382166000908152600e60205260408120548190613ed99061251f565b9150915080421115613ef857613ef884613ef286611b28565b84611d27565b50505050565b600080805b8651811015613f3c57613f32878281518110613f1b57fe5b60200260200101518361201790919063ffffffff16565b9150600101613f03565b50600085516001600160401b0381118015613f5657600080fd5b50604051908082528060200260200182016040528015613f80578160200160208202803683370190505b5090506000805b885181101561404d576000613fb8858b8481518110613fa257fe5b602002602001015161358390919063ffffffff16565b9050613ffa8a8381518110613fc957fe5b6020026020010151613ff48b8581518110613fe057fe5b60200260200101518d8681518110612cb457fe5b90613583565b84838151811061400657fe5b60200260200101818152505061404261403b8286858151811061402557fe5b6020026020010151613aca90919063ffffffff16565b8490612017565b925050600101613f87565b50600088516001600160401b038111801561406757600080fd5b50604051908082528060200260200182016040528015614091578160200160208202803683370190505b50905060005b895181101561415c5760008482815181106140ae57fe5b60200260200101518411156141155760006140d76140cb86614803565b8d858151811061165757fe5b905060006140eb828d8681518110612cb457fe5b905061410c61410582670de0b6b3a76400008d9003613583565b8390612017565b9250505061412c565b89828151811061412157fe5b602002602001015190505b61413c818c8481518110612cb457fe5b83838151811061414857fe5b602090810291909101015250600101614097565b50600061416b8b8b6001613239565b9050600061417b8c846000613239565b9050600061418982846130ed565b905061419e61419782614803565b8b90613aca565b9d9c50505050505050505050505050565b6000806141be88886001613239565b905060006141da826141d487613ff4818b612017565b90613aca565b905060006141ea8a8a848b6142c4565b905060006142148a8a815181106141fd57fe5b60200260200101518361154190919063ffffffff16565b90506000805b8b5181101561423c576142328c8281518110613f1b57fe5b915060010161421a565b506000614265828d8d8151811061424f57fe5b60200260200101516130ed90919063ffffffff16565b9050600061427282614803565b905060006142808583613aca565b9050600061428e8683611541565b90506142af6142a883670de0b6b3a76400008e9003613583565b8290612017565b99505050505050505050509695505050505050565b6000808451860290506000856000815181106142dc57fe5b6020026020010151905060008651876000815181106142f757fe5b60200260200101510290506000600190505b87518110156143505761433561432f614328848b85815181106132dc57fe5b8a516114f0565b886147e3565b915061434688828151811061325957fe5b9250600101614309565b5086858151811061435d57fe5b602002602001015182039150600061437587886114f0565b905060006143a161439561438d84610b1489886114f0565b6103e86114f0565b8a89815181106132dc57fe5b905060006143bc6143b561438d8b896147e3565b8690612017565b90506000806143d86143ce8686612017565b610b148d86612017565b905060005b60ff8110156144585781925061440d6143fa8661292e85866114f0565b610b148e6129288861292e8860026114f0565b9150828211156144365760018383031161443157509750613e6a9650505050505050565b614450565b60018284031161445057509750613e6a9650505050505050565b6001016143dd565b50612cef6101426125e3565b60008061447388886001613239565b90506000614489826141d487613ff4818b611541565b905060006144998a8a848b6142c4565b905060006144ad828b8b81518110612cb457fe5b90506000805b8b518110156144d5576144cb8c8281518110613f1b57fe5b91506001016144b3565b5060006144e8828d8d8151811061424f57fe5b905060006144f582614803565b905060006145038583613aca565b905060006145118683611541565b90506142af6142a883670de0b6b3a76400008e9003612b0f565b600080805b865181101561455257614548878281518110613f1b57fe5b9150600101614530565b50600085516001600160401b038111801561456c57600080fd5b50604051908082528060200260200182016040528015614596578160200160208202803683370190505b5090506000805b88518110156146305760006145b8858b848151811061424f57fe5b90506145fa8a83815181106145c957fe5b60200260200101516145f48b85815181106145e057fe5b60200260200101518d8681518110612c7257fe5b906130ed565b84838151811061460657fe5b60200260200101818152505061462561403b8286858151811061165757fe5b92505060010161459d565b50600088516001600160401b038111801561464a57600080fd5b50604051908082528060200260200182016040528015614674578160200160208202803683370190505b50905060005b89518110156147355760008385838151811061469257fe5b602002602001015111156146ee5760006146b76140cb86670de0b6b3a7640000611541565b905060006146cb828d8681518110612cb457fe5b90506146e561410582670de0b6b3a76400008d9003612b0f565b92505050614705565b8982815181106146fa57fe5b602002602001015190505b614715818c8481518110612c7257fe5b83838151811061472157fe5b60209081029190910101525060010161467a565b5060006147448b8b6001613239565b905060006147548c846000613239565b9050600061476282846130ed565b9050670de0b6b3a7640000811115614797576147898a670de0b6b3a763ffff198301612b0f565b975050505050505050611868565b6000975050505050505050611868565b60006147b9632f1a0bc960e01b610f02565b8214806147d457506147d1637587926b60e11b610f02565b82145b8061074a575061074a82614829565b60006147f282151560046115b6565b8183816147fb57fe5b049392505050565b6000670de0b6b3a7640000821061481b57600061074a565b50670de0b6b3a76400000390565b600061483b631c74c91760e11b610f02565b82148061074a57506148536350dd6ed960e01b610f02565b909114919050565b8035610c65816152ed565b600082601f830112614876578081fd5b8135602061488b614886836152d0565b6152ad565b82815281810190858301838502870184018810156148a7578586fd5b855b858110156148c5578135845292840192908401906001016148a9565b5090979650505050505050565b600082601f8301126148e2578081fd5b815160206148f2614886836152d0565b828152818101908583018385028701840188101561490e578586fd5b855b858110156148c557815184529284019290840190600101614910565b600082601f83011261493c578081fd5b81356001600160401b0381111561494f57fe5b614962601f8201601f19166020016152ad565b818152846020838601011115614976578283fd5b816020850160208301379081016020019190915292915050565b805160018110610c6557600080fd5b8035610c6581615310565b60006101208083850312156149bd578182fd5b6149c6816152ad565b9150506149d28261499f565b81526149e06020830161485b565b60208201526149f16040830161485b565b6040820152606082013560608201526080820135608082015260a082013560a0820152614a2060c0830161485b565b60c0820152614a3160e0830161485b565b60e0820152610100808301356001600160401b03811115614a5157600080fd5b614a5d8582860161492c565b82840152505092915050565b600060208284031215614a7a578081fd5b8135610a1d816152ed565b60008060408385031215614a97578081fd5b8235614aa2816152ed565b91506020830135614ab2816152ed565b809150509250929050565b600080600060608486031215614ad1578081fd5b8335614adc816152ed565b92506020840135614aec816152ed565b929592945050506040919091013590565b600080600080600080600060e0888a031215614b17578485fd5b8735614b22816152ed565b96506020880135614b32816152ed565b95506040880135945060608801359350608088013560ff81168114614b55578384fd5b9699959850939692959460a0840135945060c09093013592915050565b60008060408385031215614b84578182fd5b8235614b8f816152ed565b946020939093013593505050565b600080600060608486031215614bb1578081fd5b83516001600160401b0380821115614bc7578283fd5b818601915086601f830112614bda578283fd5b81516020614bea614886836152d0565b82815281810190858301838502870184018c1015614c06578788fd5b8796505b84871015614c31578051614c1d816152ed565b835260019690960195918301918301614c0a565b5091890151919750909350505080821115614c4a578283fd5b50614c57868287016148d2565b925050604084015190509250925092565b600060208284031215614c79578081fd5b8135610a1d81615302565b600060208284031215614c95578081fd5b8151610a1d81615302565b600080600080600080600060e0888a031215614cba578081fd5b873596506020880135614ccc816152ed565b95506040880135614cdc816152ed565b945060608801356001600160401b0380821115614cf7578283fd5b614d038b838c01614866565b955060808a0135945060a08a0135935060c08a0135915080821115614d26578283fd5b50614d338a828b0161492c565b91505092959891949750929550565b600060208284031215614d53578081fd5b81356001600160e01b031981168114610a1d578182fd5b600060208284031215614d7b578081fd5b8151610a1d816152ed565b60008060408385031215614d98578182fd5b8235614da3816152ed565b915060208301356001600160401b03811115614dbd578182fd5b614dc98582860161492c565b9150509250929050565b600060208284031215614de4578081fd5b610a1d82614990565b60008060408385031215614dff578182fd5b614e0883614990565b9150602083015190509250929050565b600060208284031215614e29578081fd5b8151610a1d81615310565b60008060408385031215614e46578182fd5b8251614e5181615310565b60208401519092506001600160401b03811115614e6c578182fd5b614dc9858286016148d2565b60008060008060808587031215614e8d578182fd5b84356001600160401b0380821115614ea3578384fd5b614eaf888389016149aa565b95506020870135915080821115614ec4578384fd5b50614ed187828801614866565b949794965050505060408301359260600135919050565b600080600060608486031215614efc578081fd5b83356001600160401b03811115614f11578182fd5b614f1d868287016149aa565b9660208601359650604090950135949350505050565b600060208284031215614f44578081fd5b5035919050565b600060208284031215614f5c578081fd5b5051919050565b60008060408385031215614f75578182fd5b50508035926020909101359150565b60008060008060808587031215614f99578182fd5b8451935060208501519250604085015191506060850151614fb9816152ed565b939692955090935050565b6000815180845260208085019450808401835b83811015614ff357815187529582019590820190600101614fd7565b509495945050505050565b60008151808452815b8181101561502357602081850181015186830182015201615007565b818111156150345782602083870101525b50601f01601f19169290920160200192915050565b9182526001600160e01b031916602082015260240190565b6000828483379101908152919050565b61190160f01b81526002810192909252602282015260420190565b6001600160a01b0391909116815260200190565b6020808252825182820181905260009190848201906040850190845b818110156150e15783516001600160a01b0316835292840192918401916001016150bc565b50909695505050505050565b600060208252610a1d6020830184614fc4565b6000604082526151136040830185614fc4565b82810360208401526118688185614fc4565b901515815260200190565b92151583526020830191909152604082015260600190565b90815260200190565b9283526001600160a01b03918216602084015216604082015260600190565b9586526001600160a01b0394851660208701529290931660408501526060840152608083019190915260a082015260c00190565b9485526020850193909352604084019190915260608301526001600160a01b0316608082015260a00190565b600083825260406020830152613e6a6040830184614ffe565b9182526001600160a01b0316602082015260400190565b93845260ff9290921660208401526040830152606082015260800190565b600060208252610a1d6020830184614ffe565b600083825260406020830152613e6a6040830184614fc4565b9283529015156020830152604082015260600190565b918252602082015260400190565b9283526020830191909152604082015260600190565b93845260208401929092526040830152606082015260800190565b60ff91909116815260200190565b6040518181016001600160401b03811182821017156152c857fe5b604052919050565b60006001600160401b038211156152e357fe5b5060209081020190565b6001600160a01b038116811461076157600080fd5b801515811461076157600080fd5b6002811061076157600080fdfea26469706673582212206d937053818ecaa57aa0fb19892a753857a089f026d00a43595d9f50a0ea295464736f6c63430007060033",
			"opcodes": "PUSH2 0x140 PUSH1 0x40 MSTORE CALLVALUE DUP1 ISZERO PUSH3 0x12 JUMPI PUSH1 0x0 DUP1 REVERT JUMPDEST POP PUSH1 0x40 MLOAD PUSH3 0x7912 CODESIZE SUB DUP1 PUSH3 0x7912 DUP4 CODECOPY DUP2 ADD PUSH1 0x40 DUP2 SWAP1 MSTORE PUSH3 0x35 SWAP2 PUSH3 0x1C3 JUMP JUMPDEST DUP1 PUSH1 0x40 MLOAD DUP1 PUSH1 0x20 ADD PUSH3 0x48 SWAP1 PUSH3 0x1B5 JUMP JUMPDEST PUSH1 0x1F NOT DUP3 DUP3 SUB DUP2 ADD DUP4 MSTORE PUSH1 0x1F SWAP1 SWAP2 ADD AND PUSH1 0x40 MSTORE DUP1 MLOAD DUP2 SWAP1 PUSH1 0x0 PUSH1 0x2 DUP3 DIV PUSH1 0xA0 DUP2 SWAP1 MSTORE DUP1 DUP4 SUB PUSH1 0xE0 DUP2 SWAP1 MSTORE DUP2 DUP6 MSTORE SWAP1 SWAP2 POP DUP4 PUSH3 0x90 DUP2 PUSH3 0xF9 PUSH1 0x20 SWAP1 DUP2 SHL PUSH3 0x2B9 OR SWAP1 SHR JUMP JUMPDEST PUSH1 0x60 SHL PUSH1 0x1 PUSH1 0x1 PUSH1 0x60 SHL SUB NOT AND PUSH1 0x80 MSTORE DUP3 DUP6 ADD DUP1 MLOAD DUP4 DUP3 MSTORE PUSH3 0xBF DUP3 PUSH3 0xF9 PUSH1 0x20 SWAP1 DUP2 SHL PUSH3 0x2B9 OR SWAP1 SHR JUMP JUMPDEST PUSH1 0x1 PUSH1 0x1 PUSH1 0x60 SHL SUB NOT PUSH1 0x60 SWAP2 DUP3 SHL DUP2 AND PUSH1 0xC0 MSTORE SWAP7 SWAP1 SWAP4 MSTORE SWAP1 MSTORE SWAP6 SWAP1 SWAP6 SHL SWAP1 SWAP2 AND PUSH2 0x100 MSTORE POP POP POP TIMESTAMP PUSH3 0x76A700 ADD PUSH2 0x120 MSTORE POP PUSH3 0x1F3 SWAP1 POP JUMP JUMPDEST DUP1 MLOAD PUSH32 0x602038038060206000396000F3FEFEFEFEFEFEFEFEFEFEFEFEFEFEFEFEFEFEFE DUP1 DUP4 MSTORE PUSH1 0x0 SWAP2 PUSH1 0x20 DUP2 ADD DUP5 DUP5 CREATE SWAP1 DUP5 MSTORE SWAP2 POP PUSH3 0x147 PUSH1 0x1 PUSH1 0x1 PUSH1 0xA0 SHL SUB DUP4 AND ISZERO ISZERO PUSH2 0x1AC PUSH3 0x14D JUMP JUMPDEST POP SWAP2 SWAP1 POP JUMP JUMPDEST DUP2 PUSH3 0x15E JUMPI PUSH3 0x15E DUP2 PUSH3 0x162 JUMP JUMPDEST POP POP JUMP JUMPDEST PUSH3 0x461BCD PUSH1 0xE5 SHL PUSH1 0x0 SWAP1 DUP2 MSTORE PUSH1 0x20 PUSH1 0x4 MSTORE PUSH1 0x7 PUSH1 0x24 MSTORE PUSH7 0x42414C23000030 PUSH1 0xA DUP1 DUP5 DIV DUP2 DUP2 MOD PUSH1 0x30 SWAP1 DUP2 ADD PUSH1 0x8 SHL SWAP6 DUP4 SWAP1 MOD SWAP6 SWAP1 SWAP6 ADD SWAP1 DUP3 SWAP1 DIV SWAP2 DUP3 MOD SWAP1 SWAP5 ADD PUSH1 0x10 SHL SWAP4 SWAP1 SWAP4 ADD ADD PUSH1 0xC8 SHL PUSH1 0x44 MSTORE PUSH1 0x64 SWAP1 REVERT JUMPDEST PUSH2 0x6C41 DUP1 PUSH3 0xCD1 DUP4 CODECOPY ADD SWAP1 JUMP JUMPDEST PUSH1 0x0 PUSH1 0x20 DUP3 DUP5 SUB SLT ISZERO PUSH3 0x1D5 JUMPI DUP1 DUP2 REVERT JUMPDEST DUP2 MLOAD PUSH1 0x1 PUSH1 0x1 PUSH1 0xA0 SHL SUB DUP2 AND DUP2 EQ PUSH3 0x1EC JUMPI DUP2 DUP3 REVERT JUMPDEST SWAP4 SWAP3 POP POP POP JUMP JUMPDEST PUSH1 0x80 MLOAD PUSH1 0x60 SHR PUSH1 0xA0 MLOAD PUSH1 0xC0 MLOAD PUSH1 0x60 SHR PUSH1 0xE0 MLOAD PUSH2 0x100 MLOAD PUSH1 0x60 SHR PUSH2 0x120 MLOAD PUSH2 0xA7C PUSH3 0x255 PUSH1 0x0 CODECOPY DUP1 PUSH2 0x163 MSTORE DUP1 PUSH2 0x18C MSTORE POP DUP1 PUSH2 0x297 MSTORE POP DUP1 PUSH2 0x313 MSTORE POP DUP1 PUSH2 0x13A MSTORE DUP1 PUSH2 0x38F MSTORE POP DUP1 PUSH2 0x334 MSTORE POP DUP1 PUSH2 0x119 MSTORE DUP1 PUSH2 0x36B MSTORE POP PUSH2 0xA7C PUSH1 0x0 RETURN INVALID PUSH1 0x80 PUSH1 0x40 MSTORE CALLVALUE DUP1 ISZERO PUSH2 0x10 JUMPI PUSH1 0x0 DUP1 REVERT JUMPDEST POP PUSH1 0x4 CALLDATASIZE LT PUSH2 0x61 JUMPI PUSH1 0x0 CALLDATALOAD PUSH1 0xE0 SHR DUP1 PUSH3 0xC194DB EQ PUSH2 0x66 JUMPI DUP1 PUSH4 0x174481FA EQ PUSH2 0x84 JUMPI DUP1 PUSH4 0x2DA47C40 EQ PUSH2 0x9A JUMPI DUP1 PUSH4 0x4555FB8D EQ PUSH2 0xB0 JUMPI DUP1 PUSH4 0x6634B753 EQ PUSH2 0xD0 JUMPI DUP1 PUSH4 0x8D928AF8 EQ PUSH2 0xF0 JUMPI JUMPDEST PUSH1 0x0 DUP1 REVERT JUMPDEST PUSH2 0x6E PUSH2 0xF8 JUMP JUMPDEST PUSH1 0x40 MLOAD PUSH2 0x7B SWAP2 SWAP1 PUSH2 0x8BE JUMP JUMPDEST PUSH1 0x40 MLOAD DUP1 SWAP2 SUB SWAP1 RETURN JUMPDEST PUSH2 0x8C PUSH2 0x117 JUMP JUMPDEST PUSH1 0x40 MLOAD PUSH2 0x7B SWAP3 SWAP2 SWAP1 PUSH2 0x899 JUMP JUMPDEST PUSH2 0xA2 PUSH2 0x15D JUMP JUMPDEST PUSH1 0x40 MLOAD PUSH2 0x7B SWAP3 SWAP2 SWAP1 PUSH2 0x9DE JUMP JUMPDEST PUSH2 0xC3 PUSH2 0xBE CALLDATASIZE PUSH1 0x4 PUSH2 0x6DF JUMP JUMPDEST PUSH2 0x1C7 JUMP JUMPDEST PUSH1 0x40 MLOAD PUSH2 0x7B SWAP2 SWAP1 PUSH2 0x8D1 JUMP JUMPDEST PUSH2 0xE3 PUSH2 0xDE CALLDATASIZE PUSH1 0x4 PUSH2 0x6C3 JUMP JUMPDEST PUSH2 0x273 JUMP JUMPDEST PUSH1 0x40 MLOAD PUSH2 0x7B SWAP2 SWAP1 PUSH2 0x8B3 JUMP JUMPDEST PUSH2 0xC3 PUSH2 0x295 JUMP JUMPDEST PUSH1 0x60 PUSH2 0x112 PUSH1 0x40 MLOAD DUP1 PUSH1 0x20 ADD PUSH1 0x40 MSTORE DUP1 PUSH1 0x0 DUP2 MSTORE POP PUSH2 0x30B JUMP JUMPDEST SWAP1 POP SWAP1 JUMP JUMPDEST PUSH32 0x0 PUSH32 0x0 SWAP1 SWAP2 JUMP JUMPDEST PUSH1 0x0 DUP1 TIMESTAMP PUSH32 0x0 DUP2 LT ISZERO PUSH2 0x1B9 JUMPI DUP1 PUSH32 0x0 SUB SWAP3 POP PUSH3 0x278D00 SWAP2 POP PUSH2 0x1C2 JUMP JUMPDEST PUSH1 0x0 SWAP3 POP PUSH1 0x0 SWAP2 POP JUMPDEST POP SWAP1 SWAP2 JUMP JUMPDEST PUSH1 0x0 DUP1 PUSH1 0x0 PUSH2 0x1D4 PUSH2 0x15D JUMP JUMPDEST SWAP2 POP SWAP2 POP PUSH2 0x264 PUSH1 0x40 MLOAD DUP1 PUSH2 0x160 ADD PUSH1 0x40 MSTORE DUP1 PUSH2 0x1EF PUSH2 0x295 JUMP JUMPDEST PUSH1 0x1 PUSH1 0x1 PUSH1 0xA0 SHL SUB AND DUP2 MSTORE PUSH1 0x20 ADD DUP14 DUP2 MSTORE PUSH1 0x20 ADD DUP13 DUP2 MSTORE PUSH1 0x20 ADD DUP12 DUP2 MSTORE PUSH1 0x20 ADD DUP10 DUP2 MSTORE PUSH1 0x20 ADD DUP9 DUP2 MSTORE PUSH1 0x20 ADD DUP11 DUP2 MSTORE PUSH1 0x20 ADD DUP8 DUP2 MSTORE PUSH1 0x20 ADD DUP5 DUP2 MSTORE PUSH1 0x20 ADD DUP4 DUP2 MSTORE PUSH1 0x20 ADD DUP7 PUSH1 0x1 PUSH1 0x1 PUSH1 0xA0 SHL SUB AND DUP2 MSTORE POP PUSH1 0x40 MLOAD PUSH1 0x20 ADD PUSH2 0x250 SWAP2 SWAP1 PUSH2 0x8E5 JUMP JUMPDEST PUSH1 0x40 MLOAD PUSH1 0x20 DUP2 DUP4 SUB SUB DUP2 MSTORE SWAP1 PUSH1 0x40 MSTORE PUSH2 0x3E4 JUMP JUMPDEST SWAP12 SWAP11 POP POP POP POP POP POP POP POP POP POP POP JUMP JUMPDEST PUSH1 0x1 PUSH1 0x1 PUSH1 0xA0 SHL SUB DUP2 AND PUSH1 0x0 SWAP1 DUP2 MSTORE PUSH1 0x20 DUP2 SWAP1 MSTORE PUSH1 0x40 SWAP1 KECCAK256 SLOAD PUSH1 0xFF AND JUMPDEST SWAP2 SWAP1 POP JUMP JUMPDEST PUSH32 0x0 SWAP1 JUMP JUMPDEST DUP1 MLOAD PUSH32 0x602038038060206000396000F3FEFEFEFEFEFEFEFEFEFEFEFEFEFEFEFEFEFEFE DUP1 DUP4 MSTORE PUSH1 0x0 SWAP2 PUSH1 0x20 DUP2 ADD DUP5 DUP5 CREATE SWAP1 DUP5 MSTORE SWAP2 POP PUSH2 0x305 PUSH1 0x1 PUSH1 0x1 PUSH1 0xA0 SHL SUB DUP4 AND ISZERO ISZERO PUSH2 0x1AC PUSH2 0x444 JUMP JUMPDEST POP SWAP2 SWAP1 POP JUMP JUMPDEST DUP1 MLOAD PUSH1 0x40 DUP1 MLOAD PUSH32 0x0 PUSH32 0x0 DUP2 DUP2 ADD DUP6 DUP2 ADD DUP5 DUP2 ADD PUSH1 0x20 SWAP1 DUP2 ADD SWAP1 SWAP7 MSTORE DUP1 DUP6 MSTORE SWAP4 SWAP6 PUSH32 0x0 SWAP6 SWAP3 SWAP5 PUSH32 0x0 SWAP5 SWAP4 DUP9 ADD DUP7 PUSH1 0x0 DUP3 DUP11 EXTCODECOPY DUP5 PUSH1 0x0 DUP9 DUP4 ADD DUP9 EXTCODECOPY POP PUSH1 0x20 DUP10 DUP2 ADD SWAP1 DUP10 DUP6 ADD ADD PUSH2 0x3D6 DUP2 DUP4 DUP7 PUSH2 0x456 JUMP JUMPDEST POP POP POP POP POP POP POP POP POP SWAP2 SWAP1 POP JUMP JUMPDEST PUSH1 0x0 DUP1 PUSH2 0x3F0 DUP4 PUSH2 0x494 JUMP JUMPDEST PUSH1 0x1 PUSH1 0x1 PUSH1 0xA0 SHL SUB DUP2 AND PUSH1 0x0 DUP2 DUP2 MSTORE PUSH1 0x20 DUP2 SWAP1 MSTORE PUSH1 0x40 DUP1 DUP3 KECCAK256 DUP1 SLOAD PUSH1 0xFF NOT AND PUSH1 0x1 OR SWAP1 SSTORE MLOAD SWAP3 SWAP4 POP SWAP1 SWAP2 PUSH32 0x83A48FBCFC991335314E74D0496AAB6A1987E992DDC85DDDBCC4D6DD6EF2E9FC SWAP2 SWAP1 LOG2 SWAP3 SWAP2 POP POP JUMP JUMPDEST DUP2 PUSH2 0x452 JUMPI PUSH2 0x452 DUP2 PUSH2 0x4CE JUMP JUMPDEST POP POP JUMP JUMPDEST JUMPDEST PUSH1 0x20 DUP2 LT PUSH2 0x476 JUMPI DUP2 MLOAD DUP4 MSTORE PUSH1 0x20 SWAP3 DUP4 ADD SWAP3 SWAP1 SWAP2 ADD SWAP1 PUSH1 0x1F NOT ADD PUSH2 0x457 JUMP JUMPDEST SWAP1 MLOAD DUP3 MLOAD PUSH1 0x20 SWAP3 SWAP1 SWAP3 SUB PUSH2 0x100 EXP PUSH1 0x0 NOT ADD DUP1 NOT SWAP1 SWAP2 AND SWAP2 AND OR SWAP1 MSTORE JUMP JUMPDEST PUSH1 0x0 DUP1 PUSH2 0x4A0 DUP4 PUSH2 0x30B JUMP JUMPDEST SWAP1 POP PUSH1 0x0 DUP2 MLOAD PUSH1 0x20 DUP4 ADD PUSH1 0x0 CREATE SWAP1 POP PUSH1 0x1 PUSH1 0x1 PUSH1 0xA0 SHL SUB DUP2 AND PUSH2 0x4C7 JUMPI RETURNDATASIZE PUSH1 0x0 DUP1 RETURNDATACOPY RETURNDATASIZE PUSH1 0x0 REVERT JUMPDEST SWAP4 SWAP3 POP POP POP JUMP JUMPDEST PUSH3 0x461BCD PUSH1 0xE5 SHL PUSH1 0x0 SWAP1 DUP2 MSTORE PUSH1 0x20 PUSH1 0x4 MSTORE PUSH1 0x7 PUSH1 0x24 MSTORE PUSH7 0x42414C23000030 PUSH1 0xA DUP1 DUP5 DIV DUP2 DUP2 MOD PUSH1 0x30 SWAP1 DUP2 ADD PUSH1 0x8 SHL SWAP6 DUP4 SWAP1 MOD SWAP6 SWAP1 SWAP6 ADD SWAP1 DUP3 SWAP1 DIV SWAP2 DUP3 MOD SWAP1 SWAP5 ADD PUSH1 0x10 SHL SWAP4 SWAP1 SWAP4 ADD ADD PUSH1 0xC8 SHL PUSH1 0x44 MSTORE PUSH1 0x64 SWAP1 REVERT JUMPDEST DUP1 CALLDATALOAD PUSH2 0x290 DUP2 PUSH2 0xA2E JUMP JUMPDEST PUSH1 0x0 DUP3 PUSH1 0x1F DUP4 ADD SLT PUSH2 0x53C JUMPI DUP1 DUP2 REVERT JUMPDEST DUP2 CALLDATALOAD PUSH1 0x20 PUSH2 0x551 PUSH2 0x54C DUP4 PUSH2 0xA10 JUMP JUMPDEST PUSH2 0x9EC JUMP JUMPDEST DUP3 DUP2 MSTORE DUP2 DUP2 ADD SWAP1 DUP6 DUP4 ADD DUP4 DUP6 MUL DUP8 ADD DUP5 ADD DUP9 LT ISZERO PUSH2 0x56D JUMPI DUP6 DUP7 REVERT JUMPDEST DUP6 JUMPDEST DUP6 DUP2 LT ISZERO PUSH2 0x594 JUMPI DUP2 CALLDATALOAD PUSH2 0x582 DUP2 PUSH2 0xA2E JUMP JUMPDEST DUP5 MSTORE SWAP3 DUP5 ADD SWAP3 SWAP1 DUP5 ADD SWAP1 PUSH1 0x1 ADD PUSH2 0x56F JUMP JUMPDEST POP SWAP1 SWAP8 SWAP7 POP POP POP POP POP POP POP JUMP JUMPDEST PUSH1 0x0 DUP3 PUSH1 0x1F DUP4 ADD SLT PUSH2 0x5B1 JUMPI DUP1 DUP2 REVERT JUMPDEST DUP2 CALLDATALOAD PUSH1 0x20 PUSH2 0x5C1 PUSH2 0x54C DUP4 PUSH2 0xA10 JUMP JUMPDEST DUP3 DUP2 MSTORE DUP2 DUP2 ADD SWAP1 DUP6 DUP4 ADD DUP4 DUP6 MUL DUP8 ADD DUP5 ADD DUP9 LT ISZERO PUSH2 0x5DD JUMPI DUP6 DUP7 REVERT JUMPDEST DUP6 JUMPDEST DUP6 DUP2 LT ISZERO PUSH2 0x594 JUMPI DUP2 CALLDATALOAD PUSH2 0x5F2 DUP2 PUSH2 0xA2E JUMP JUMPDEST DUP5 MSTORE SWAP3 DUP5 ADD SWAP3 SWAP1 DUP5 ADD SWAP1 PUSH1 0x1 ADD PUSH2 0x5DF JUMP JUMPDEST PUSH1 0x0 DUP3 PUSH1 0x1F DUP4 ADD SLT PUSH2 0x614 JUMPI DUP1 DUP2 REVERT JUMPDEST DUP2 CALLDATALOAD PUSH1 0x20 PUSH2 0x624 PUSH2 0x54C DUP4 PUSH2 0xA10 JUMP JUMPDEST DUP3 DUP2 MSTORE DUP2 DUP2 ADD SWAP1 DUP6 DUP4 ADD DUP4 DUP6 MUL DUP8 ADD DUP5 ADD DUP9 LT ISZERO PUSH2 0x640 JUMPI DUP6 DUP7 REVERT JUMPDEST DUP6 JUMPDEST DUP6 DUP2 LT ISZERO PUSH2 0x594 JUMPI DUP2 CALLDATALOAD DUP5 MSTORE SWAP3 DUP5 ADD SWAP3 SWAP1 DUP5 ADD SWAP1 PUSH1 0x1 ADD PUSH2 0x642 JUMP JUMPDEST PUSH1 0x0 DUP3 PUSH1 0x1F DUP4 ADD SLT PUSH2 0x66E JUMPI DUP1 DUP2 REVERT JUMPDEST DUP2 CALLDATALOAD PUSH8 0xFFFFFFFFFFFFFFFF DUP2 GT ISZERO PUSH2 0x682 JUMPI INVALID JUMPDEST PUSH2 0x695 PUSH1 0x1F DUP3 ADD PUSH1 0x1F NOT AND PUSH1 0x20 ADD PUSH2 0x9EC JUMP JUMPDEST DUP2 DUP2 MSTORE DUP5 PUSH1 0x20 DUP4 DUP7 ADD ADD GT ISZERO PUSH2 0x6A9 JUMPI DUP3 DUP4 REVERT JUMPDEST DUP2 PUSH1 0x20 DUP6 ADD PUSH1 0x20 DUP4 ADD CALLDATACOPY SWAP1 DUP2 ADD PUSH1 0x20 ADD SWAP2 SWAP1 SWAP2 MSTORE SWAP3 SWAP2 POP POP JUMP JUMPDEST PUSH1 0x0 PUSH1 0x20 DUP3 DUP5 SUB SLT ISZERO PUSH2 0x6D4 JUMPI DUP1 DUP2 REVERT JUMPDEST DUP2 CALLDATALOAD PUSH2 0x4C7 DUP2 PUSH2 0xA2E JUMP JUMPDEST PUSH1 0x0 DUP1 PUSH1 0x0 DUP1 PUSH1 0x0 DUP1 PUSH1 0x0 DUP1 PUSH2 0x100 DUP10 DUP12 SUB SLT ISZERO PUSH2 0x6FB JUMPI DUP4 DUP5 REVERT JUMPDEST DUP9 CALLDATALOAD PUSH8 0xFFFFFFFFFFFFFFFF DUP1 DUP3 GT ISZERO PUSH2 0x712 JUMPI DUP6 DUP7 REVERT JUMPDEST PUSH2 0x71E DUP13 DUP4 DUP14 ADD PUSH2 0x65E JUMP JUMPDEST SWAP10 POP PUSH1 0x20 DUP12 ADD CALLDATALOAD SWAP2 POP DUP1 DUP3 GT ISZERO PUSH2 0x733 JUMPI DUP6 DUP7 REVERT JUMPDEST PUSH2 0x73F DUP13 DUP4 DUP14 ADD PUSH2 0x65E JUMP JUMPDEST SWAP9 POP PUSH1 0x40 DUP12 ADD CALLDATALOAD SWAP2 POP DUP1 DUP3 GT ISZERO PUSH2 0x754 JUMPI DUP6 DUP7 REVERT JUMPDEST PUSH2 0x760 DUP13 DUP4 DUP14 ADD PUSH2 0x52C JUMP JUMPDEST SWAP8 POP PUSH1 0x60 DUP12 ADD CALLDATALOAD SWAP7 POP PUSH1 0x80 DUP12 ADD CALLDATALOAD SWAP2 POP DUP1 DUP3 GT ISZERO PUSH2 0x77C JUMPI DUP6 DUP7 REVERT JUMPDEST PUSH2 0x788 DUP13 DUP4 DUP14 ADD PUSH2 0x5A1 JUMP JUMPDEST SWAP6 POP PUSH1 0xA0 DUP12 ADD CALLDATALOAD SWAP2 POP DUP1 DUP3 GT ISZERO PUSH2 0x79D JUMPI DUP5 DUP6 REVERT JUMPDEST POP PUSH2 0x7AA DUP12 DUP3 DUP13 ADD PUSH2 0x604 JUMP JUMPDEST SWAP4 POP POP PUSH1 0xC0 DUP10 ADD CALLDATALOAD SWAP2 POP PUSH2 0x7C0 PUSH1 0xE0 DUP11 ADD PUSH2 0x521 JUMP JUMPDEST SWAP1 POP SWAP3 SWAP6 SWAP9 POP SWAP3 SWAP6 SWAP9 SWAP1 SWAP4 SWAP7 POP JUMP JUMPDEST PUSH1 0x1 PUSH1 0x1 PUSH1 0xA0 SHL SUB AND SWAP1 MSTORE JUMP JUMPDEST PUSH1 0x0 DUP2 MLOAD DUP1 DUP5 MSTORE PUSH1 0x20 DUP1 DUP6 ADD SWAP5 POP DUP1 DUP5 ADD DUP4 JUMPDEST DUP4 DUP2 LT ISZERO PUSH2 0x814 JUMPI DUP2 MLOAD PUSH1 0x1 PUSH1 0x1 PUSH1 0xA0 SHL SUB AND DUP8 MSTORE SWAP6 DUP3 ADD SWAP6 SWAP1 DUP3 ADD SWAP1 PUSH1 0x1 ADD PUSH2 0x7EF JUMP JUMPDEST POP SWAP5 SWAP6 SWAP5 POP POP POP POP POP JUMP JUMPDEST PUSH1 0x0 DUP2 MLOAD DUP1 DUP5 MSTORE PUSH1 0x20 DUP1 DUP6 ADD SWAP5 POP DUP1 DUP5 ADD DUP4 JUMPDEST DUP4 DUP2 LT ISZERO PUSH2 0x814 JUMPI DUP2 MLOAD DUP8 MSTORE SWAP6 DUP3 ADD SWAP6 SWAP1 DUP3 ADD SWAP1 PUSH1 0x1 ADD PUSH2 0x832 JUMP JUMPDEST PUSH1 0x0 DUP2 MLOAD DUP1 DUP5 MSTORE DUP2 JUMPDEST DUP2 DUP2 LT ISZERO PUSH2 0x873 JUMPI PUSH1 0x20 DUP2 DUP6 ADD DUP2 ADD MLOAD DUP7 DUP4 ADD DUP3 ADD MSTORE ADD PUSH2 0x857 JUMP JUMPDEST DUP2 DUP2 GT ISZERO PUSH2 0x884 JUMPI DUP3 PUSH1 0x20 DUP4 DUP8 ADD ADD MSTORE JUMPDEST POP PUSH1 0x1F ADD PUSH1 0x1F NOT AND SWAP3 SWAP1 SWAP3 ADD PUSH1 0x20 ADD SWAP3 SWAP2 POP POP JUMP JUMPDEST PUSH1 0x1 PUSH1 0x1 PUSH1 0xA0 SHL SUB SWAP3 DUP4 AND DUP2 MSTORE SWAP2 AND PUSH1 0x20 DUP3 ADD MSTORE PUSH1 0x40 ADD SWAP1 JUMP JUMPDEST SWAP1 ISZERO ISZERO DUP2 MSTORE PUSH1 0x20 ADD SWAP1 JUMP JUMPDEST PUSH1 0x0 PUSH1 0x20 DUP3 MSTORE PUSH2 0x4C7 PUSH1 0x20 DUP4 ADD DUP5 PUSH2 0x84E JUMP JUMPDEST PUSH1 0x1 PUSH1 0x1 PUSH1 0xA0 SHL SUB SWAP2 SWAP1 SWAP2 AND DUP2 MSTORE PUSH1 0x20 ADD SWAP1 JUMP JUMPDEST PUSH1 0x0 PUSH1 0x20 DUP3 MSTORE PUSH2 0x8F9 PUSH1 0x20 DUP4 ADD DUP5 MLOAD PUSH2 0x7CF JUMP JUMPDEST PUSH1 0x20 DUP4 ADD MLOAD PUSH2 0x160 DUP1 PUSH1 0x40 DUP6 ADD MSTORE PUSH2 0x915 PUSH2 0x180 DUP6 ADD DUP4 PUSH2 0x84E JUMP JUMPDEST SWAP2 POP PUSH1 0x40 DUP6 ADD MLOAD PUSH1 0x1F NOT DUP1 DUP7 DUP6 SUB ADD PUSH1 0x60 DUP8 ADD MSTORE PUSH2 0x933 DUP5 DUP4 PUSH2 0x84E JUMP JUMPDEST SWAP4 POP PUSH1 0x60 DUP8 ADD MLOAD SWAP2 POP DUP1 DUP7 DUP6 SUB ADD PUSH1 0x80 DUP8 ADD MSTORE PUSH2 0x950 DUP5 DUP4 PUSH2 0x7DC JUMP JUMPDEST SWAP4 POP PUSH1 0x80 DUP8 ADD MLOAD SWAP2 POP DUP1 DUP7 DUP6 SUB ADD PUSH1 0xA0 DUP8 ADD MSTORE PUSH2 0x96D DUP5 DUP4 PUSH2 0x7DC JUMP JUMPDEST SWAP4 POP PUSH1 0xA0 DUP8 ADD MLOAD SWAP2 POP DUP1 DUP7 DUP6 SUB ADD PUSH1 0xC0 DUP8 ADD MSTORE POP PUSH2 0x98B DUP4 DUP3 PUSH2 0x81F JUMP JUMPDEST PUSH1 0xC0 DUP8 ADD MLOAD PUSH1 0xE0 DUP8 DUP2 ADD SWAP2 SWAP1 SWAP2 MSTORE DUP8 ADD MLOAD PUSH2 0x100 DUP1 DUP9 ADD SWAP2 SWAP1 SWAP2 MSTORE DUP8 ADD MLOAD PUSH2 0x120 DUP1 DUP9 ADD SWAP2 SWAP1 SWAP2 MSTORE DUP8 ADD MLOAD PUSH2 0x140 DUP1 DUP9 ADD SWAP2 SWAP1 SWAP2 MSTORE DUP8 ADD MLOAD SWAP1 SWAP4 POP SWAP1 POP PUSH2 0x9D4 DUP3 DUP7 ADD DUP3 PUSH2 0x7CF JUMP JUMPDEST POP SWAP1 SWAP5 SWAP4 POP POP POP POP JUMP JUMPDEST SWAP2 DUP3 MSTORE PUSH1 0x20 DUP3 ADD MSTORE PUSH1 0x40 ADD SWAP1 JUMP JUMPDEST PUSH1 0x40 MLOAD DUP2 DUP2 ADD PUSH8 0xFFFFFFFFFFFFFFFF DUP2 GT DUP3 DUP3 LT OR ISZERO PUSH2 0xA08 JUMPI INVALID JUMPDEST PUSH1 0x40 MSTORE SWAP2 SWAP1 POP JUMP JUMPDEST PUSH1 0x0 PUSH8 0xFFFFFFFFFFFFFFFF DUP3 GT ISZERO PUSH2 0xA24 JUMPI INVALID JUMPDEST POP PUSH1 0x20 SWAP1 DUP2 MUL ADD SWAP1 JUMP JUMPDEST PUSH1 0x1 PUSH1 0x1 PUSH1 0xA0 SHL SUB DUP2 AND DUP2 EQ PUSH2 0xA43 JUMPI PUSH1 0x0 DUP1 REVERT JUMPDEST POP JUMP INVALID LOG2 PUSH5 0x6970667358 0x22 SLT KECCAK256 SWAP4 PUSH28 0x15B49D3A92667EE89FFB8F5EE018A513845C3E81041DF586B2ADF7AE SWAP12 0xBE PUSH5 0x736F6C6343 STOP SMOD MOD STOP CALLER PUSH2 0x3E0 PUSH1 0x40 MSTORE PUSH32 0x6E71EDAE12B1B97F4D1F60370FEF10105FA2FAAE0126114A169C64845D6126C9 PUSH2 0x120 MSTORE CALLVALUE DUP1 ISZERO PUSH3 0x37 JUMPI PUSH1 0x0 DUP1 REVERT JUMPDEST POP PUSH1 0x40 MLOAD PUSH3 0x6C41 CODESIZE SUB DUP1 PUSH3 0x6C41 DUP4 CODECOPY DUP2 ADD PUSH1 0x40 DUP2 SWAP1 MSTORE PUSH3 0x5A SWAP2 PUSH3 0x1487 JUMP JUMPDEST DUP1 MLOAD PUSH1 0x20 DUP3 ADD MLOAD PUSH1 0x40 DUP4 ADD MLOAD PUSH1 0x60 DUP5 ADD MLOAD PUSH3 0x77 SWAP1 ADDRESS PUSH3 0x9CE JUMP JUMPDEST DUP5 PUSH1 0xC0 ADD MLOAD DUP6 PUSH1 0xE0 ADD MLOAD DUP7 PUSH2 0x100 ADD MLOAD DUP8 PUSH2 0x120 ADD MLOAD DUP9 PUSH2 0x140 ADD MLOAD DUP9 DUP7 MLOAD PUSH1 0x2 EQ PUSH3 0xA6 JUMPI PUSH1 0x0 PUSH3 0xA9 JUMP JUMPDEST PUSH1 0x2 JUMPDEST DUP10 DUP10 DUP10 DUP11 MLOAD PUSH1 0x1 PUSH1 0x1 PUSH1 0x40 SHL SUB DUP2 GT DUP1 ISZERO PUSH3 0xC4 JUMPI PUSH1 0x0 DUP1 REVERT JUMPDEST POP PUSH1 0x40 MLOAD SWAP1 DUP1 DUP3 MSTORE DUP1 PUSH1 0x20 MUL PUSH1 0x20 ADD DUP3 ADD PUSH1 0x40 MSTORE DUP1 ISZERO PUSH3 0xEF JUMPI DUP2 PUSH1 0x20 ADD PUSH1 0x20 DUP3 MUL DUP1 CALLDATASIZE DUP4 CALLDATACOPY ADD SWAP1 POP JUMPDEST POP DUP10 DUP10 DUP10 DUP10 DUP3 DUP3 DUP10 DUP10 DUP14 DUP3 DUP1 PUSH1 0x40 MLOAD DUP1 PUSH1 0x40 ADD PUSH1 0x40 MSTORE DUP1 PUSH1 0x1 DUP2 MSTORE PUSH1 0x20 ADD PUSH1 0x31 PUSH1 0xF8 SHL DUP2 MSTORE POP DUP6 DUP6 DUP11 CALLER PUSH1 0x1 PUSH1 0x1 PUSH1 0xA0 SHL SUB AND PUSH1 0x0 SHL DUP1 PUSH1 0x80 DUP2 DUP2 MSTORE POP POP POP DUP1 PUSH1 0x1 PUSH1 0x1 PUSH1 0xA0 SHL SUB AND PUSH1 0xA0 DUP2 PUSH1 0x1 PUSH1 0x1 PUSH1 0xA0 SHL SUB AND PUSH1 0x60 SHL DUP2 MSTORE POP POP POP DUP2 PUSH1 0x3 SWAP1 DUP1 MLOAD SWAP1 PUSH1 0x20 ADD SWAP1 PUSH3 0x164 SWAP3 SWAP2 SWAP1 PUSH3 0x11C1 JUMP JUMPDEST POP DUP1 MLOAD PUSH3 0x17A SWAP1 PUSH1 0x4 SWAP1 PUSH1 0x20 DUP5 ADD SWAP1 PUSH3 0x11C1 JUMP JUMPDEST POP POP PUSH1 0x5 DUP1 SLOAD PUSH1 0x12 PUSH1 0xFF NOT SWAP1 SWAP2 AND OR SWAP1 SSTORE POP DUP2 MLOAD PUSH1 0x20 SWAP3 DUP4 ADD KECCAK256 PUSH1 0xC0 MSTORE DUP1 MLOAD SWAP2 ADD KECCAK256 PUSH1 0xE0 MSTORE POP PUSH32 0x8B73C3C69BB8FE3D512ECC4CF759CC79239F7B179B0FFACAA9A75D522B39400F PUSH2 0x100 MSTORE PUSH1 0x60 SHL PUSH1 0x1 PUSH1 0x1 PUSH1 0x60 SHL SUB NOT AND PUSH2 0x140 MSTORE POP PUSH3 0x1ED SWAP1 POP PUSH3 0x76A700 DUP4 GT ISZERO PUSH2 0x194 PUSH3 0xB68 JUMP JUMPDEST PUSH3 0x201 PUSH3 0x278D00 DUP3 GT ISZERO PUSH2 0x195 PUSH3 0xB68 JUMP JUMPDEST TIMESTAMP SWAP1 SWAP2 ADD PUSH2 0x160 DUP2 SWAP1 MSTORE ADD PUSH2 0x180 MSTORE DUP6 MLOAD PUSH3 0x223 SWAP1 PUSH1 0x2 GT ISZERO PUSH1 0xC8 PUSH3 0xB68 JUMP JUMPDEST PUSH3 0x23D PUSH3 0x231 PUSH3 0xB7D JUMP JUMPDEST DUP8 MLOAD GT ISZERO PUSH1 0xC9 PUSH3 0xB68 JUMP JUMPDEST PUSH3 0x253 DUP7 PUSH3 0xB82 PUSH1 0x20 SHL PUSH3 0x14E6 OR PUSH1 0x20 SHR JUMP JUMPDEST PUSH3 0x25E DUP5 PUSH3 0xB8E JUMP JUMPDEST PUSH1 0x40 MLOAD PUSH4 0x9B2760F PUSH1 0xE0 SHL DUP2 MSTORE PUSH1 0x0 SWAP1 PUSH1 0x1 PUSH1 0x1 PUSH1 0xA0 SHL SUB DUP13 AND SWAP1 PUSH4 0x9B2760F SWAP1 PUSH3 0x28F SWAP1 DUP14 SWAP1 PUSH1 0x4 ADD PUSH3 0x16A7 JUMP JUMPDEST PUSH1 0x20 PUSH1 0x40 MLOAD DUP1 DUP4 SUB DUP2 PUSH1 0x0 DUP8 DUP1 EXTCODESIZE ISZERO DUP1 ISZERO PUSH3 0x2AA JUMPI PUSH1 0x0 DUP1 REVERT JUMPDEST POP GAS CALL ISZERO DUP1 ISZERO PUSH3 0x2BF JUMPI RETURNDATASIZE PUSH1 0x0 DUP1 RETURNDATACOPY RETURNDATASIZE PUSH1 0x0 REVERT JUMPDEST POP POP POP POP PUSH1 0x40 MLOAD RETURNDATASIZE PUSH1 0x1F NOT PUSH1 0x1F DUP3 ADD AND DUP3 ADD DUP1 PUSH1 0x40 MSTORE POP DUP2 ADD SWAP1 PUSH3 0x2E5 SWAP2 SWAP1 PUSH3 0x144F JUMP JUMPDEST PUSH1 0x40 MLOAD PUSH4 0x3354E3E9 PUSH1 0xE1 SHL DUP2 MSTORE SWAP1 SWAP2 POP PUSH1 0x1 PUSH1 0x1 PUSH1 0xA0 SHL SUB DUP13 AND SWAP1 PUSH4 0x66A9C7D2 SWAP1 PUSH3 0x31A SWAP1 DUP5 SWAP1 DUP12 SWAP1 DUP12 SWAP1 PUSH1 0x4 ADD PUSH3 0x160D JUMP JUMPDEST PUSH1 0x0 PUSH1 0x40 MLOAD DUP1 DUP4 SUB DUP2 PUSH1 0x0 DUP8 DUP1 EXTCODESIZE ISZERO DUP1 ISZERO PUSH3 0x335 JUMPI PUSH1 0x0 DUP1 REVERT JUMPDEST POP GAS CALL ISZERO DUP1 ISZERO PUSH3 0x34A JUMPI RETURNDATASIZE PUSH1 0x0 DUP1 RETURNDATACOPY RETURNDATASIZE PUSH1 0x0 REVERT JUMPDEST POP POP POP PUSH2 0x1A0 SWAP2 SWAP1 SWAP2 MSTORE POP PUSH3 0x375 SWAP10 POP POP POP PUSH1 0x1 DUP14 LT ISZERO SWAP7 POP PUSH2 0x12C SWAP6 POP POP PUSH3 0xB68 SWAP4 POP POP POP POP JUMP JUMPDEST PUSH3 0x388 PUSH2 0x1388 DUP7 GT ISZERO PUSH2 0x12D PUSH3 0xB68 JUMP JUMPDEST DUP6 MLOAD PUSH2 0x1C0 DUP2 SWAP1 MSTORE DUP7 MLOAD DUP8 SWAP1 PUSH1 0x0 SWAP1 PUSH3 0x39E JUMPI INVALID JUMPDEST PUSH1 0x20 MUL PUSH1 0x20 ADD ADD MLOAD PUSH1 0x1 PUSH1 0x1 PUSH1 0xA0 SHL SUB AND PUSH2 0x1E0 DUP2 PUSH1 0x1 PUSH1 0x1 PUSH1 0xA0 SHL SUB AND PUSH1 0x60 SHL DUP2 MSTORE POP POP DUP7 PUSH1 0x1 DUP2 MLOAD DUP2 LT PUSH3 0x3D1 JUMPI INVALID JUMPDEST PUSH1 0x20 MUL PUSH1 0x20 ADD ADD MLOAD PUSH1 0x1 PUSH1 0x1 PUSH1 0xA0 SHL SUB AND PUSH2 0x200 DUP2 PUSH1 0x1 PUSH1 0x1 PUSH1 0xA0 SHL SUB AND PUSH1 0x60 SHL DUP2 MSTORE POP POP PUSH1 0x2 DUP2 GT PUSH3 0x407 JUMPI PUSH1 0x0 PUSH3 0x41E JUMP JUMPDEST DUP7 PUSH1 0x2 DUP2 MLOAD DUP2 LT PUSH3 0x415 JUMPI INVALID JUMPDEST PUSH1 0x20 MUL PUSH1 0x20 ADD ADD MLOAD JUMPDEST PUSH1 0x60 SHL PUSH1 0x1 PUSH1 0x1 PUSH1 0x60 SHL SUB NOT AND PUSH2 0x220 MSTORE PUSH1 0x3 DUP2 GT PUSH3 0x440 JUMPI PUSH1 0x0 PUSH3 0x457 JUMP JUMPDEST DUP7 PUSH1 0x3 DUP2 MLOAD DUP2 LT PUSH3 0x44E JUMPI INVALID JUMPDEST PUSH1 0x20 MUL PUSH1 0x20 ADD ADD MLOAD JUMPDEST PUSH1 0x60 SHL PUSH1 0x1 PUSH1 0x1 PUSH1 0x60 SHL SUB NOT AND PUSH2 0x240 MSTORE PUSH1 0x4 DUP2 GT PUSH3 0x479 JUMPI PUSH1 0x0 PUSH3 0x490 JUMP JUMPDEST DUP7 PUSH1 0x4 DUP2 MLOAD DUP2 LT PUSH3 0x487 JUMPI INVALID JUMPDEST PUSH1 0x20 MUL PUSH1 0x20 ADD ADD MLOAD JUMPDEST PUSH1 0x1 PUSH1 0x1 PUSH1 0xA0 SHL SUB AND PUSH2 0x260 DUP2 PUSH1 0x1 PUSH1 0x1 PUSH1 0xA0 SHL SUB AND PUSH1 0x60 SHL DUP2 MSTORE POP POP PUSH3 0x4D3 DUP8 PUSH1 0x0 DUP2 MLOAD DUP2 LT PUSH3 0x4BF JUMPI INVALID JUMPDEST PUSH1 0x20 MUL PUSH1 0x20 ADD ADD MLOAD PUSH3 0xC1A PUSH1 0x20 SHL PUSH1 0x20 SHR JUMP JUMPDEST PUSH2 0x280 MSTORE DUP7 MLOAD PUSH3 0x4EC SWAP1 DUP9 SWAP1 PUSH1 0x1 SWAP1 DUP2 LT PUSH3 0x4BF JUMPI INVALID JUMPDEST PUSH2 0x2A0 MSTORE PUSH1 0x2 DUP2 GT PUSH3 0x501 JUMPI PUSH1 0x0 PUSH3 0x513 JUMP JUMPDEST PUSH3 0x513 DUP8 PUSH1 0x2 DUP2 MLOAD DUP2 LT PUSH3 0x4BF JUMPI INVALID JUMPDEST PUSH2 0x2C0 MSTORE PUSH1 0x3 DUP2 GT PUSH3 0x528 JUMPI PUSH1 0x0 PUSH3 0x53A JUMP JUMPDEST PUSH3 0x53A DUP8 PUSH1 0x3 DUP2 MLOAD DUP2 LT PUSH3 0x4BF JUMPI INVALID JUMPDEST PUSH2 0x2E0 MSTORE PUSH1 0x4 DUP2 GT PUSH3 0x54F JUMPI PUSH1 0x0 PUSH3 0x561 JUMP JUMPDEST PUSH3 0x561 DUP8 PUSH1 0x4 DUP2 MLOAD DUP2 LT PUSH3 0x4BF JUMPI INVALID JUMPDEST PUSH2 0x300 DUP2 DUP2 MSTORE POP POP PUSH1 0x0 PUSH3 0x584 DUP8 PUSH2 0x3E8 PUSH3 0xCEE PUSH1 0x20 SHL PUSH3 0x14F0 OR PUSH1 0x20 SHR JUMP JUMPDEST SWAP1 POP PUSH3 0x591 DUP2 PUSH3 0xD1D JUMP JUMPDEST POP POP POP POP POP POP POP POP POP POP POP PUSH3 0x5B8 PUSH1 0x2 DUP3 PUSH1 0x60 ADD MLOAD MLOAD LT ISZERO PUSH1 0xC8 PUSH3 0xB68 PUSH1 0x20 SHL PUSH1 0x20 SHR JUMP JUMPDEST PUSH3 0x5DF DUP2 PUSH1 0x60 ADD MLOAD MLOAD DUP3 PUSH1 0x80 ADD MLOAD MLOAD DUP4 PUSH1 0xA0 ADD MLOAD MLOAD PUSH3 0xD5C PUSH1 0x20 SHL PUSH3 0x1514 OR PUSH1 0x20 SHR JUMP JUMPDEST PUSH1 0x0 JUMPDEST DUP2 PUSH1 0x60 ADD MLOAD MLOAD DUP2 LT ISZERO PUSH3 0x71D JUMPI PUSH1 0x0 PUSH1 0x1 PUSH1 0x1 PUSH1 0xA0 SHL SUB AND DUP3 PUSH1 0x80 ADD MLOAD DUP3 DUP2 MLOAD DUP2 LT PUSH3 0x60C JUMPI INVALID JUMPDEST PUSH1 0x20 MUL PUSH1 0x20 ADD ADD MLOAD PUSH1 0x1 PUSH1 0x1 PUSH1 0xA0 SHL SUB AND EQ PUSH3 0x714 JUMPI PUSH3 0x67E DUP3 PUSH1 0x60 ADD MLOAD DUP3 DUP2 MLOAD DUP2 LT PUSH3 0x638 JUMPI INVALID JUMPDEST PUSH1 0x20 MUL PUSH1 0x20 ADD ADD MLOAD DUP4 PUSH1 0x80 ADD MLOAD DUP4 DUP2 MLOAD DUP2 LT PUSH3 0x651 JUMPI INVALID JUMPDEST PUSH1 0x20 MUL PUSH1 0x20 ADD ADD MLOAD DUP5 PUSH1 0xA0 ADD MLOAD DUP5 DUP2 MLOAD DUP2 LT PUSH3 0x66A JUMPI INVALID JUMPDEST PUSH1 0x20 MUL PUSH1 0x20 ADD ADD MLOAD PUSH3 0xD7C PUSH1 0x20 SHL PUSH1 0x20 SHR JUMP JUMPDEST DUP2 PUSH1 0x80 ADD MLOAD DUP2 DUP2 MLOAD DUP2 LT PUSH3 0x68F JUMPI INVALID JUMPDEST PUSH1 0x20 MUL PUSH1 0x20 ADD ADD MLOAD PUSH1 0x1 PUSH1 0x1 PUSH1 0xA0 SHL SUB AND DUP3 PUSH1 0x60 ADD MLOAD DUP3 DUP2 MLOAD DUP2 LT PUSH3 0x6B1 JUMPI INVALID JUMPDEST PUSH1 0x20 MUL PUSH1 0x20 ADD ADD MLOAD PUSH1 0x1 PUSH1 0x1 PUSH1 0xA0 SHL SUB AND PUSH32 0xF00A2BF8C71DB611A21183E0A96869752BCD9DA29372FA76F865EED4FDD540D1 DUP5 PUSH1 0xA0 ADD MLOAD DUP5 DUP2 MLOAD DUP2 LT PUSH3 0x6F4 JUMPI INVALID JUMPDEST PUSH1 0x20 MUL PUSH1 0x20 ADD ADD MLOAD PUSH1 0x40 MLOAD PUSH3 0x70B SWAP2 SWAP1 PUSH3 0x16BC JUMP JUMPDEST PUSH1 0x40 MLOAD DUP1 SWAP2 SUB SWAP1 LOG3 JUMPDEST PUSH1 0x1 ADD PUSH3 0x5E2 JUMP JUMPDEST POP PUSH1 0x60 DUP2 ADD MLOAD MLOAD JUMPDEST PUSH1 0x0 DUP2 GT DUP1 ISZERO PUSH3 0x762 JUMPI POP ADDRESS PUSH1 0x1 PUSH1 0x1 PUSH1 0xA0 SHL SUB AND DUP3 PUSH1 0x60 ADD MLOAD PUSH1 0x1 DUP4 SUB DUP2 MLOAD DUP2 LT PUSH3 0x74F JUMPI INVALID JUMPDEST PUSH1 0x20 MUL PUSH1 0x20 ADD ADD MLOAD PUSH1 0x1 PUSH1 0x1 PUSH1 0xA0 SHL SUB AND GT JUMPDEST ISZERO PUSH3 0x772 JUMPI PUSH1 0x0 NOT ADD PUSH3 0x725 JUMP JUMPDEST PUSH2 0x320 DUP2 SWAP1 MSTORE PUSH1 0x60 DUP3 ADD MLOAD MLOAD PUSH1 0x0 SWAP1 PUSH1 0x1 ADD PUSH1 0x1 PUSH1 0x1 PUSH1 0x40 SHL SUB DUP2 GT DUP1 ISZERO PUSH3 0x79A JUMPI PUSH1 0x0 DUP1 REVERT JUMPDEST POP PUSH1 0x40 MLOAD SWAP1 DUP1 DUP3 MSTORE DUP1 PUSH1 0x20 MUL PUSH1 0x20 ADD DUP3 ADD PUSH1 0x40 MSTORE DUP1 ISZERO PUSH3 0x7C5 JUMPI DUP2 PUSH1 0x20 ADD PUSH1 0x20 DUP3 MUL DUP1 CALLDATASIZE DUP4 CALLDATACOPY ADD SWAP1 POP JUMPDEST POP SWAP1 POP PUSH1 0x0 JUMPDEST DUP2 MLOAD DUP2 LT ISZERO PUSH3 0x895 JUMPI DUP3 DUP2 LT ISZERO PUSH3 0x82A JUMPI DUP4 PUSH1 0x80 ADD MLOAD DUP2 DUP2 MLOAD DUP2 LT PUSH3 0x7EF JUMPI INVALID JUMPDEST PUSH1 0x20 MUL PUSH1 0x20 ADD ADD MLOAD DUP3 DUP3 DUP2 MLOAD DUP2 LT PUSH3 0x804 JUMPI INVALID JUMPDEST PUSH1 0x20 MUL PUSH1 0x20 ADD ADD SWAP1 PUSH1 0x1 PUSH1 0x1 PUSH1 0xA0 SHL SUB AND SWAP1 DUP2 PUSH1 0x1 PUSH1 0x1 PUSH1 0xA0 SHL SUB AND DUP2 MSTORE POP POP PUSH3 0x88C JUMP JUMPDEST DUP3 DUP2 EQ ISZERO PUSH3 0x842 JUMPI PUSH1 0x0 DUP3 DUP3 DUP2 MLOAD DUP2 LT PUSH3 0x804 JUMPI INVALID JUMPDEST DUP4 PUSH1 0x80 ADD MLOAD PUSH1 0x1 DUP3 SUB DUP2 MLOAD DUP2 LT PUSH3 0x856 JUMPI INVALID JUMPDEST PUSH1 0x20 MUL PUSH1 0x20 ADD ADD MLOAD DUP3 DUP3 DUP2 MLOAD DUP2 LT PUSH3 0x86B JUMPI INVALID JUMPDEST PUSH1 0x20 MUL PUSH1 0x20 ADD ADD SWAP1 PUSH1 0x1 PUSH1 0x1 PUSH1 0xA0 SHL SUB AND SWAP1 DUP2 PUSH1 0x1 PUSH1 0x1 PUSH1 0xA0 SHL SUB AND DUP2 MSTORE POP POP JUMPDEST PUSH1 0x1 ADD PUSH3 0x7CB JUMP JUMPDEST POP PUSH1 0x0 DUP2 MLOAD GT PUSH3 0x8A8 JUMPI PUSH1 0x0 PUSH3 0x8BF JUMP JUMPDEST DUP1 PUSH1 0x0 DUP2 MLOAD DUP2 LT PUSH3 0x8B6 JUMPI INVALID JUMPDEST PUSH1 0x20 MUL PUSH1 0x20 ADD ADD MLOAD JUMPDEST PUSH1 0x60 SHL PUSH1 0x1 PUSH1 0x1 PUSH1 0x60 SHL SUB NOT AND PUSH2 0x340 MSTORE DUP1 MLOAD PUSH1 0x1 LT PUSH3 0x8E2 JUMPI PUSH1 0x0 PUSH3 0x8F9 JUMP JUMPDEST DUP1 PUSH1 0x1 DUP2 MLOAD DUP2 LT PUSH3 0x8F0 JUMPI INVALID JUMPDEST PUSH1 0x20 MUL PUSH1 0x20 ADD ADD MLOAD JUMPDEST PUSH1 0x60 SHL PUSH1 0x1 PUSH1 0x1 PUSH1 0x60 SHL SUB NOT AND PUSH2 0x360 MSTORE DUP1 MLOAD PUSH1 0x2 LT PUSH3 0x91C JUMPI PUSH1 0x0 PUSH3 0x933 JUMP JUMPDEST DUP1 PUSH1 0x2 DUP2 MLOAD DUP2 LT PUSH3 0x92A JUMPI INVALID JUMPDEST PUSH1 0x20 MUL PUSH1 0x20 ADD ADD MLOAD JUMPDEST PUSH1 0x60 SHL PUSH1 0x1 PUSH1 0x1 PUSH1 0x60 SHL SUB NOT AND PUSH2 0x380 MSTORE DUP1 MLOAD PUSH1 0x3 LT PUSH3 0x956 JUMPI PUSH1 0x0 PUSH3 0x96D JUMP JUMPDEST DUP1 PUSH1 0x3 DUP2 MLOAD DUP2 LT PUSH3 0x964 JUMPI INVALID JUMPDEST PUSH1 0x20 MUL PUSH1 0x20 ADD ADD MLOAD JUMPDEST PUSH1 0x60 SHL PUSH1 0x1 PUSH1 0x1 PUSH1 0x60 SHL SUB NOT AND PUSH2 0x3A0 MSTORE DUP1 MLOAD PUSH1 0x4 LT PUSH3 0x990 JUMPI PUSH1 0x0 PUSH3 0x9A7 JUMP JUMPDEST DUP1 PUSH1 0x4 DUP2 MLOAD DUP2 LT PUSH3 0x99E JUMPI INVALID JUMPDEST PUSH1 0x20 MUL PUSH1 0x20 ADD ADD MLOAD JUMPDEST PUSH1 0x60 SHL PUSH1 0x1 PUSH1 0x1 PUSH1 0x60 SHL SUB NOT AND PUSH2 0x3C0 MSTORE DUP3 MLOAD PUSH3 0x9C5 SWAP1 PUSH3 0xE6E JUMP JUMPDEST POP POP POP PUSH3 0x171D JUMP JUMPDEST PUSH1 0x60 DUP3 MLOAD PUSH1 0x1 ADD PUSH1 0x1 PUSH1 0x1 PUSH1 0x40 SHL SUB DUP2 GT DUP1 ISZERO PUSH3 0x9EB JUMPI PUSH1 0x0 DUP1 REVERT JUMPDEST POP PUSH1 0x40 MLOAD SWAP1 DUP1 DUP3 MSTORE DUP1 PUSH1 0x20 MUL PUSH1 0x20 ADD DUP3 ADD PUSH1 0x40 MSTORE DUP1 ISZERO PUSH3 0xA16 JUMPI DUP2 PUSH1 0x20 ADD PUSH1 0x20 DUP3 MUL DUP1 CALLDATASIZE DUP4 CALLDATACOPY ADD SWAP1 POP JUMPDEST POP SWAP1 POP DUP3 MLOAD PUSH1 0x0 EQ ISZERO PUSH3 0xA59 JUMPI DUP2 DUP2 PUSH1 0x0 DUP2 MLOAD DUP2 LT PUSH3 0xA33 JUMPI INVALID JUMPDEST PUSH1 0x20 MUL PUSH1 0x20 ADD ADD SWAP1 PUSH1 0x1 PUSH1 0x1 PUSH1 0xA0 SHL SUB AND SWAP1 DUP2 PUSH1 0x1 PUSH1 0x1 PUSH1 0xA0 SHL SUB AND DUP2 MSTORE POP POP PUSH3 0xB62 JUMP JUMPDEST DUP3 MLOAD JUMPDEST PUSH1 0x0 DUP2 GT DUP1 ISZERO PUSH3 0xA95 JUMPI POP DUP3 PUSH1 0x1 PUSH1 0x1 PUSH1 0xA0 SHL SUB AND DUP5 PUSH1 0x1 DUP4 SUB DUP2 MLOAD DUP2 LT PUSH3 0xA82 JUMPI INVALID JUMPDEST PUSH1 0x20 MUL PUSH1 0x20 ADD ADD MLOAD PUSH1 0x1 PUSH1 0x1 PUSH1 0xA0 SHL SUB AND GT JUMPDEST ISZERO PUSH3 0xAE2 JUMPI DUP4 PUSH1 0x1 DUP3 SUB DUP2 MLOAD DUP2 LT PUSH3 0xAAB JUMPI INVALID JUMPDEST PUSH1 0x20 MUL PUSH1 0x20 ADD ADD MLOAD DUP3 DUP3 DUP2 MLOAD DUP2 LT PUSH3 0xAC0 JUMPI INVALID JUMPDEST PUSH1 0x1 PUSH1 0x1 PUSH1 0xA0 SHL SUB SWAP1 SWAP3 AND PUSH1 0x20 SWAP3 DUP4 MUL SWAP2 SWAP1 SWAP2 ADD SWAP1 SWAP2 ADD MSTORE PUSH1 0x0 NOT ADD PUSH3 0xA5C JUMP JUMPDEST PUSH1 0x0 JUMPDEST DUP2 DUP2 LT ISZERO PUSH3 0xB31 JUMPI DUP5 DUP2 DUP2 MLOAD DUP2 LT PUSH3 0xAFB JUMPI INVALID JUMPDEST PUSH1 0x20 MUL PUSH1 0x20 ADD ADD MLOAD DUP4 DUP3 DUP2 MLOAD DUP2 LT PUSH3 0xB10 JUMPI INVALID JUMPDEST PUSH1 0x1 PUSH1 0x1 PUSH1 0xA0 SHL SUB SWAP1 SWAP3 AND PUSH1 0x20 SWAP3 DUP4 MUL SWAP2 SWAP1 SWAP2 ADD SWAP1 SWAP2 ADD MSTORE PUSH1 0x1 ADD PUSH3 0xAE5 JUMP JUMPDEST POP DUP3 DUP3 DUP3 DUP2 MLOAD DUP2 LT PUSH3 0xB40 JUMPI INVALID JUMPDEST PUSH1 0x20 MUL PUSH1 0x20 ADD ADD SWAP1 PUSH1 0x1 PUSH1 0x1 PUSH1 0xA0 SHL SUB AND SWAP1 DUP2 PUSH1 0x1 PUSH1 0x1 PUSH1 0xA0 SHL SUB AND DUP2 MSTORE POP POP POP JUMPDEST SWAP3 SWAP2 POP POP JUMP JUMPDEST DUP2 PUSH3 0xB79 JUMPI PUSH3 0xB79 DUP2 PUSH3 0xF9F JUMP JUMPDEST POP POP JUMP JUMPDEST PUSH1 0x5 SWAP1 JUMP JUMPDEST DUP1 PUSH3 0xB79 DUP2 PUSH3 0xFF2 JUMP JUMPDEST PUSH3 0xBA3 PUSH5 0xE8D4A51000 DUP3 LT ISZERO PUSH1 0xCB PUSH3 0xB68 JUMP JUMPDEST PUSH3 0xBBB PUSH8 0x16345785D8A0000 DUP3 GT ISZERO PUSH1 0xCA PUSH3 0xB68 JUMP JUMPDEST PUSH3 0xBDA DUP2 PUSH1 0xC0 PUSH1 0x8 SLOAD PUSH3 0x107C PUSH1 0x20 SHL PUSH3 0x152C OR SWAP1 SWAP3 SWAP2 SWAP1 PUSH1 0x20 SHR JUMP JUMPDEST PUSH1 0x8 SSTORE PUSH1 0x40 MLOAD PUSH32 0xA9BA3FFE0B6C366B81232CAAB38605A0699AD5398D6CCE76F91EE809E322DAFC SWAP1 PUSH3 0xC0F SWAP1 DUP4 SWAP1 PUSH3 0x16BC JUMP JUMPDEST PUSH1 0x40 MLOAD DUP1 SWAP2 SUB SWAP1 LOG1 POP JUMP JUMPDEST PUSH1 0x0 PUSH1 0x1 PUSH1 0x1 PUSH1 0xA0 SHL SUB DUP3 AND ADDRESS EQ ISZERO PUSH3 0xC3E JUMPI POP PUSH8 0xDE0B6B3A7640000 PUSH3 0xCE9 JUMP JUMPDEST PUSH1 0x0 DUP3 PUSH1 0x1 PUSH1 0x1 PUSH1 0xA0 SHL SUB AND PUSH4 0x313CE567 PUSH1 0x40 MLOAD DUP2 PUSH4 0xFFFFFFFF AND PUSH1 0xE0 SHL DUP2 MSTORE PUSH1 0x4 ADD PUSH1 0x20 PUSH1 0x40 MLOAD DUP1 DUP4 SUB DUP2 DUP7 DUP1 EXTCODESIZE ISZERO DUP1 ISZERO PUSH3 0xC7A JUMPI PUSH1 0x0 DUP1 REVERT JUMPDEST POP GAS STATICCALL ISZERO DUP1 ISZERO PUSH3 0xC8F JUMPI RETURNDATASIZE PUSH1 0x0 DUP1 RETURNDATACOPY RETURNDATASIZE PUSH1 0x0 REVERT JUMPDEST POP POP POP POP PUSH1 0x40 MLOAD RETURNDATASIZE PUSH1 0x1F NOT PUSH1 0x1F DUP3 ADD AND DUP3 ADD DUP1 PUSH1 0x40 MSTORE POP DUP2 ADD SWAP1 PUSH3 0xCB5 SWAP2 SWAP1 PUSH3 0x15EA JUMP JUMPDEST PUSH1 0xFF AND SWAP1 POP PUSH1 0x0 PUSH3 0xCD4 PUSH1 0x12 DUP4 PUSH3 0x1091 PUSH1 0x20 SHL PUSH3 0x1541 OR PUSH1 0x20 SHR JUMP JUMPDEST SWAP1 POP DUP1 PUSH1 0xA EXP PUSH8 0xDE0B6B3A7640000 MUL SWAP3 POP POP POP JUMPDEST SWAP2 SWAP1 POP JUMP JUMPDEST PUSH1 0x0 DUP3 DUP3 MUL PUSH3 0xD16 DUP5 ISZERO DUP1 PUSH3 0xD0E JUMPI POP DUP4 DUP6 DUP4 DUP2 PUSH3 0xD0B JUMPI INVALID JUMPDEST DIV EQ JUMPDEST PUSH1 0x3 PUSH3 0xB68 JUMP JUMPDEST SWAP4 SWAP3 POP POP POP JUMP JUMPDEST PUSH3 0xD2B DUP2 DUP1 TIMESTAMP DUP1 PUSH3 0x10A9 JUMP JUMPDEST PUSH32 0xA0D01593E47E69D07E0CCD87BECE09411E07DD1ED40CA8F2E7AF2976542A0233 DUP2 PUSH1 0x40 MLOAD PUSH3 0xC0F SWAP2 SWAP1 PUSH3 0x16BC JUMP JUMPDEST PUSH3 0xD77 DUP3 DUP5 EQ DUP1 ISZERO PUSH3 0xD6F JUMPI POP DUP2 DUP4 EQ JUMPDEST PUSH1 0x67 PUSH3 0xB68 JUMP JUMPDEST POP POP POP JUMP JUMPDEST PUSH1 0x0 DUP3 PUSH1 0x1 PUSH1 0x1 PUSH1 0xA0 SHL SUB AND PUSH4 0x679AEFCE PUSH1 0x40 MLOAD DUP2 PUSH4 0xFFFFFFFF AND PUSH1 0xE0 SHL DUP2 MSTORE PUSH1 0x4 ADD PUSH1 0x20 PUSH1 0x40 MLOAD DUP1 DUP4 SUB DUP2 DUP7 DUP1 EXTCODESIZE ISZERO DUP1 ISZERO PUSH3 0xDB8 JUMPI PUSH1 0x0 DUP1 REVERT JUMPDEST POP GAS STATICCALL ISZERO DUP1 ISZERO PUSH3 0xDCD JUMPI RETURNDATASIZE PUSH1 0x0 DUP1 RETURNDATACOPY RETURNDATASIZE PUSH1 0x0 REVERT JUMPDEST POP POP POP POP PUSH1 0x40 MLOAD RETURNDATASIZE PUSH1 0x1F NOT PUSH1 0x1F DUP3 ADD AND DUP3 ADD DUP1 PUSH1 0x40 MSTORE POP DUP2 ADD SWAP1 PUSH3 0xDF3 SWAP2 SWAP1 PUSH3 0x144F JUMP JUMPDEST SWAP1 POP PUSH1 0x0 PUSH3 0xE0E DUP3 DUP5 PUSH3 0x1139 PUSH1 0x20 SHL PUSH3 0x1557 OR PUSH1 0x20 SHR JUMP JUMPDEST PUSH1 0x1 PUSH1 0x1 PUSH1 0xA0 SHL SUB DUP7 AND PUSH1 0x0 DUP2 DUP2 MSTORE PUSH1 0xE PUSH1 0x20 MSTORE PUSH1 0x40 SWAP1 DUP2 SWAP1 KECCAK256 DUP4 SWAP1 SSTORE MLOAD SWAP2 SWAP3 POP SWAP1 PUSH32 0xCFED57D90913B5EE1895919DCCCAFF83A9F7A842D912EF137272E5FC6123AA86 SWAP1 PUSH3 0xE5F SWAP1 DUP6 SWAP1 PUSH3 0x16BC JUMP JUMPDEST PUSH1 0x40 MLOAD DUP1 SWAP2 SUB SWAP1 LOG2 POP POP POP POP POP JUMP JUMPDEST PUSH1 0x0 DUP2 PUSH1 0x1 PUSH1 0x1 PUSH1 0xA0 SHL SUB AND PUSH4 0xD2946C2B PUSH1 0x40 MLOAD DUP2 PUSH4 0xFFFFFFFF AND PUSH1 0xE0 SHL DUP2 MSTORE PUSH1 0x4 ADD PUSH1 0x20 PUSH1 0x40 MLOAD DUP1 DUP4 SUB DUP2 DUP7 DUP1 EXTCODESIZE ISZERO DUP1 ISZERO PUSH3 0xEAA JUMPI PUSH1 0x0 DUP1 REVERT JUMPDEST POP GAS STATICCALL ISZERO DUP1 ISZERO PUSH3 0xEBF JUMPI RETURNDATASIZE PUSH1 0x0 DUP1 RETURNDATACOPY RETURNDATASIZE PUSH1 0x0 REVERT JUMPDEST POP POP POP POP PUSH1 0x40 MLOAD RETURNDATASIZE PUSH1 0x1F NOT PUSH1 0x1F DUP3 ADD AND DUP3 ADD DUP1 PUSH1 0x40 MSTORE POP DUP2 ADD SWAP1 PUSH3 0xEE5 SWAP2 SWAP1 PUSH3 0x1468 JUMP JUMPDEST PUSH1 0x1 PUSH1 0x1 PUSH1 0xA0 SHL SUB AND PUSH4 0x55C67628 PUSH1 0x40 MLOAD DUP2 PUSH4 0xFFFFFFFF AND PUSH1 0xE0 SHL DUP2 MSTORE PUSH1 0x4 ADD PUSH1 0x20 PUSH1 0x40 MLOAD DUP1 DUP4 SUB DUP2 DUP7 DUP1 EXTCODESIZE ISZERO DUP1 ISZERO PUSH3 0xF1E JUMPI PUSH1 0x0 DUP1 REVERT JUMPDEST POP GAS STATICCALL ISZERO DUP1 ISZERO PUSH3 0xF33 JUMPI RETURNDATASIZE PUSH1 0x0 DUP1 RETURNDATACOPY RETURNDATASIZE PUSH1 0x0 REVERT JUMPDEST POP POP POP POP PUSH1 0x40 MLOAD RETURNDATASIZE PUSH1 0x1F NOT PUSH1 0x1F DUP3 ADD AND DUP3 ADD DUP1 PUSH1 0x40 MSTORE POP DUP2 ADD SWAP1 PUSH3 0xF59 SWAP2 SWAP1 PUSH3 0x144F JUMP JUMPDEST SWAP1 POP DUP1 PUSH1 0xD DUP2 SWAP1 SSTORE POP PUSH32 0x6E4E298B4A98488A054248CFB63661894B93FB9FD398CC9ECA58E39215954EB7 DUP2 PUSH1 0x40 MLOAD PUSH3 0xF93 SWAP2 SWAP1 PUSH3 0x16BC JUMP JUMPDEST PUSH1 0x40 MLOAD DUP1 SWAP2 SUB SWAP1 LOG1 POP POP JUMP JUMPDEST PUSH3 0x461BCD PUSH1 0xE5 SHL PUSH1 0x0 SWAP1 DUP2 MSTORE PUSH1 0x20 PUSH1 0x4 MSTORE PUSH1 0x7 PUSH1 0x24 MSTORE PUSH7 0x42414C23000030 PUSH1 0xA DUP1 DUP5 DIV DUP2 DUP2 MOD PUSH1 0x30 SWAP1 DUP2 ADD PUSH1 0x8 SHL SWAP6 DUP4 SWAP1 MOD SWAP6 SWAP1 SWAP6 ADD SWAP1 DUP3 SWAP1 DIV SWAP2 DUP3 MOD SWAP1 SWAP5 ADD PUSH1 0x10 SHL SWAP4 SWAP1 SWAP4 ADD ADD PUSH1 0xC8 SHL PUSH1 0x44 MSTORE PUSH1 0x64 SWAP1 REVERT JUMPDEST PUSH1 0x2 DUP2 MLOAD LT ISZERO PUSH3 0x1003 JUMPI PUSH3 0x1079 JUMP JUMPDEST PUSH1 0x0 DUP2 PUSH1 0x0 DUP2 MLOAD DUP2 LT PUSH3 0x1013 JUMPI INVALID JUMPDEST PUSH1 0x20 MUL PUSH1 0x20 ADD ADD MLOAD SWAP1 POP PUSH1 0x0 PUSH1 0x1 SWAP1 POP JUMPDEST DUP3 MLOAD DUP2 LT ISZERO PUSH3 0xD77 JUMPI PUSH1 0x0 DUP4 DUP3 DUP2 MLOAD DUP2 LT PUSH3 0x103D JUMPI INVALID JUMPDEST PUSH1 0x20 MUL PUSH1 0x20 ADD ADD MLOAD SWAP1 POP PUSH3 0x106E DUP2 PUSH1 0x1 PUSH1 0x1 PUSH1 0xA0 SHL SUB AND DUP5 PUSH1 0x1 PUSH1 0x1 PUSH1 0xA0 SHL SUB AND LT PUSH1 0x65 PUSH3 0xB68 PUSH1 0x20 SHL PUSH1 0x20 SHR JUMP JUMPDEST SWAP2 POP PUSH1 0x1 ADD PUSH3 0x1024 JUMP JUMPDEST POP JUMP JUMPDEST PUSH1 0x1 PUSH1 0x1 PUSH1 0x40 SHL SUB DUP2 SHL NOT SWAP3 SWAP1 SWAP3 AND SWAP2 SHL OR SWAP1 JUMP JUMPDEST PUSH1 0x0 PUSH3 0x10A3 DUP4 DUP4 GT ISZERO PUSH1 0x1 PUSH3 0xB68 JUMP JUMPDEST POP SWAP1 SUB SWAP1 JUMP JUMPDEST PUSH3 0x10CA DUP2 PUSH1 0x1 PUSH1 0x1 PUSH1 0x40 SHL SUB AND PUSH1 0xC0 PUSH3 0x11BD PUSH1 0x20 SHL PUSH3 0x15B2 OR PUSH1 0x20 SHR JUMP JUMPDEST PUSH3 0x10EB DUP4 PUSH1 0x1 PUSH1 0x1 PUSH1 0x40 SHL SUB AND PUSH1 0x80 PUSH3 0x11BD PUSH1 0x20 SHL PUSH3 0x15B2 OR PUSH1 0x20 SHR JUMP JUMPDEST PUSH3 0x110C DUP6 PUSH1 0x1 PUSH1 0x1 PUSH1 0x40 SHL SUB AND PUSH1 0x40 PUSH3 0x11BD PUSH1 0x20 SHL PUSH3 0x15B2 OR PUSH1 0x20 SHR JUMP JUMPDEST PUSH3 0x112D DUP8 PUSH1 0x1 PUSH1 0x1 PUSH1 0x40 SHL SUB AND PUSH1 0x0 PUSH3 0x11BD PUSH1 0x20 SHL PUSH3 0x15B2 OR PUSH1 0x20 SHR JUMP JUMPDEST OR OR OR PUSH1 0x9 SSTORE POP POP POP POP JUMP JUMPDEST PUSH1 0x0 PUSH3 0x114F PUSH1 0x1 PUSH1 0x80 SHL DUP5 LT PUSH2 0x149 PUSH3 0xB68 JUMP JUMPDEST PUSH3 0x1172 DUP3 TIMESTAMP ADD PUSH1 0x1 PUSH1 0x1 PUSH1 0x40 SHL SUB AND PUSH1 0xC0 PUSH3 0x11BD PUSH1 0x20 SHL PUSH3 0x15B2 OR PUSH1 0x20 SHR JUMP JUMPDEST PUSH3 0x1193 DUP4 PUSH1 0x1 PUSH1 0x1 PUSH1 0x40 SHL SUB AND PUSH1 0x80 PUSH3 0x11BD PUSH1 0x20 SHL PUSH3 0x15B2 OR PUSH1 0x20 SHR JUMP JUMPDEST PUSH3 0x11B4 DUP6 PUSH1 0x1 PUSH1 0x1 PUSH1 0x80 SHL SUB AND PUSH1 0x0 PUSH3 0x11BD PUSH1 0x20 SHL PUSH3 0x15B2 OR PUSH1 0x20 SHR JUMP JUMPDEST OR OR SWAP4 SWAP3 POP POP POP JUMP JUMPDEST SHL SWAP1 JUMP JUMPDEST DUP3 DUP1 SLOAD PUSH1 0x1 DUP2 PUSH1 0x1 AND ISZERO PUSH2 0x100 MUL SUB AND PUSH1 0x2 SWAP1 DIV SWAP1 PUSH1 0x0 MSTORE PUSH1 0x20 PUSH1 0x0 KECCAK256 SWAP1 PUSH1 0x1F ADD PUSH1 0x20 SWAP1 DIV DUP2 ADD SWAP3 DUP3 PUSH3 0x11F9 JUMPI PUSH1 0x0 DUP6 SSTORE PUSH3 0x1244 JUMP JUMPDEST DUP3 PUSH1 0x1F LT PUSH3 0x1214 JUMPI DUP1 MLOAD PUSH1 0xFF NOT AND DUP4 DUP1 ADD OR DUP6 SSTORE PUSH3 0x1244 JUMP JUMPDEST DUP3 DUP1 ADD PUSH1 0x1 ADD DUP6 SSTORE DUP3 ISZERO PUSH3 0x1244 JUMPI SWAP2 DUP3 ADD JUMPDEST DUP3 DUP2 GT ISZERO PUSH3 0x1244 JUMPI DUP3 MLOAD DUP3 SSTORE SWAP2 PUSH1 0x20 ADD SWAP2 SWAP1 PUSH1 0x1 ADD SWAP1 PUSH3 0x1227 JUMP JUMPDEST POP PUSH3 0x1252 SWAP3 SWAP2 POP PUSH3 0x1256 JUMP JUMPDEST POP SWAP1 JUMP JUMPDEST JUMPDEST DUP1 DUP3 GT ISZERO PUSH3 0x1252 JUMPI PUSH1 0x0 DUP2 SSTORE PUSH1 0x1 ADD PUSH3 0x1257 JUMP JUMPDEST DUP1 MLOAD PUSH3 0xCE9 DUP2 PUSH3 0x1707 JUMP JUMPDEST PUSH1 0x0 DUP3 PUSH1 0x1F DUP4 ADD SLT PUSH3 0x128B JUMPI DUP1 DUP2 REVERT JUMPDEST DUP2 MLOAD PUSH1 0x20 PUSH3 0x12A4 PUSH3 0x129E DUP4 PUSH3 0x16E9 JUMP JUMPDEST PUSH3 0x16C5 JUMP JUMPDEST DUP3 DUP2 MSTORE DUP2 DUP2 ADD SWAP1 DUP6 DUP4 ADD DUP4 DUP6 MUL DUP8 ADD DUP5 ADD DUP9 LT ISZERO PUSH3 0x12C1 JUMPI DUP6 DUP7 REVERT JUMPDEST DUP6 JUMPDEST DUP6 DUP2 LT ISZERO PUSH3 0x12EC JUMPI DUP2 MLOAD PUSH3 0x12D9 DUP2 PUSH3 0x1707 JUMP JUMPDEST DUP5 MSTORE SWAP3 DUP5 ADD SWAP3 SWAP1 DUP5 ADD SWAP1 PUSH1 0x1 ADD PUSH3 0x12C3 JUMP JUMPDEST POP SWAP1 SWAP8 SWAP7 POP POP POP POP POP POP POP JUMP JUMPDEST PUSH1 0x0 DUP3 PUSH1 0x1F DUP4 ADD SLT PUSH3 0x130A JUMPI DUP1 DUP2 REVERT JUMPDEST DUP2 MLOAD PUSH1 0x20 PUSH3 0x131D PUSH3 0x129E DUP4 PUSH3 0x16E9 JUMP JUMPDEST DUP3 DUP2 MSTORE DUP2 DUP2 ADD SWAP1 DUP6 DUP4 ADD DUP4 DUP6 MUL DUP8 ADD DUP5 ADD DUP9 LT ISZERO PUSH3 0x133A JUMPI DUP6 DUP7 REVERT JUMPDEST DUP6 JUMPDEST DUP6 DUP2 LT ISZERO PUSH3 0x12EC JUMPI DUP2 MLOAD PUSH3 0x1352 DUP2 PUSH3 0x1707 JUMP JUMPDEST DUP5 MSTORE SWAP3 DUP5 ADD SWAP3 SWAP1 DUP5 ADD SWAP1 PUSH1 0x1 ADD PUSH3 0x133C JUMP JUMPDEST PUSH1 0x0 DUP3 PUSH1 0x1F DUP4 ADD SLT PUSH3 0x1376 JUMPI DUP1 DUP2 REVERT JUMPDEST DUP2 MLOAD PUSH1 0x20 PUSH3 0x1389 PUSH3 0x129E DUP4 PUSH3 0x16E9 JUMP JUMPDEST DUP3 DUP2 MSTORE DUP2 DUP2 ADD SWAP1 DUP6 DUP4 ADD DUP4 DUP6 MUL DUP8 ADD DUP5 ADD DUP9 LT ISZERO PUSH3 0x13A6 JUMPI DUP6 DUP7 REVERT JUMPDEST DUP6 JUMPDEST DUP6 DUP2 LT ISZERO PUSH3 0x12EC JUMPI DUP2 MLOAD DUP5 MSTORE SWAP3 DUP5 ADD SWAP3 SWAP1 DUP5 ADD SWAP1 PUSH1 0x1 ADD PUSH3 0x13A8 JUMP JUMPDEST PUSH1 0x0 DUP3 PUSH1 0x1F DUP4 ADD SLT PUSH3 0x13D7 JUMPI DUP1 DUP2 REVERT JUMPDEST DUP2 MLOAD PUSH1 0x1 PUSH1 0x1 PUSH1 0x40 SHL SUB DUP2 GT ISZERO PUSH3 0x13EB JUMPI INVALID JUMPDEST PUSH1 0x20 PUSH3 0x1401 PUSH1 0x1F DUP4 ADD PUSH1 0x1F NOT AND DUP3 ADD PUSH3 0x16C5 JUMP JUMPDEST DUP3 DUP2 MSTORE DUP6 DUP3 DUP5 DUP8 ADD ADD GT ISZERO PUSH3 0x1415 JUMPI DUP4 DUP5 REVERT JUMPDEST DUP4 JUMPDEST DUP4 DUP2 LT ISZERO PUSH3 0x1434 JUMPI DUP6 DUP2 ADD DUP4 ADD MLOAD DUP3 DUP3 ADD DUP5 ADD MSTORE DUP3 ADD PUSH3 0x1417 JUMP JUMPDEST DUP4 DUP2 GT ISZERO PUSH3 0x1445 JUMPI DUP5 DUP4 DUP6 DUP5 ADD ADD MSTORE JUMPDEST POP SWAP6 SWAP5 POP POP POP POP POP JUMP JUMPDEST PUSH1 0x0 PUSH1 0x20 DUP3 DUP5 SUB SLT ISZERO PUSH3 0x1461 JUMPI DUP1 DUP2 REVERT JUMPDEST POP MLOAD SWAP2 SWAP1 POP JUMP JUMPDEST PUSH1 0x0 PUSH1 0x20 DUP3 DUP5 SUB SLT ISZERO PUSH3 0x147A JUMPI DUP1 DUP2 REVERT JUMPDEST DUP2 MLOAD PUSH3 0xD16 DUP2 PUSH3 0x1707 JUMP JUMPDEST PUSH1 0x0 PUSH1 0x20 DUP3 DUP5 SUB SLT ISZERO PUSH3 0x1499 JUMPI DUP1 DUP2 REVERT JUMPDEST DUP2 MLOAD PUSH1 0x1 PUSH1 0x1 PUSH1 0x40 SHL SUB DUP1 DUP3 GT ISZERO PUSH3 0x14B0 JUMPI DUP3 DUP4 REVERT JUMPDEST DUP2 DUP5 ADD SWAP2 POP PUSH2 0x160 DUP1 DUP4 DUP8 SUB SLT ISZERO PUSH3 0x14C7 JUMPI DUP4 DUP5 REVERT JUMPDEST PUSH3 0x14D2 DUP2 PUSH3 0x16C5 JUMP JUMPDEST SWAP1 POP PUSH3 0x14DF DUP4 PUSH3 0x126D JUMP JUMPDEST DUP2 MSTORE PUSH1 0x20 DUP4 ADD MLOAD DUP3 DUP2 GT ISZERO PUSH3 0x14F3 JUMPI DUP5 DUP6 REVERT JUMPDEST PUSH3 0x1501 DUP8 DUP3 DUP7 ADD PUSH3 0x13C6 JUMP JUMPDEST PUSH1 0x20 DUP4 ADD MSTORE POP PUSH1 0x40 DUP4 ADD MLOAD DUP3 DUP2 GT ISZERO PUSH3 0x1519 JUMPI DUP5 DUP6 REVERT JUMPDEST PUSH3 0x1527 DUP8 DUP3 DUP7 ADD PUSH3 0x13C6 JUMP JUMPDEST PUSH1 0x40 DUP4 ADD MSTORE POP PUSH1 0x60 DUP4 ADD MLOAD DUP3 DUP2 GT ISZERO PUSH3 0x153F JUMPI DUP5 DUP6 REVERT JUMPDEST PUSH3 0x154D DUP8 DUP3 DUP7 ADD PUSH3 0x127A JUMP JUMPDEST PUSH1 0x60 DUP4 ADD MSTORE POP PUSH1 0x80 DUP4 ADD MLOAD DUP3 DUP2 GT ISZERO PUSH3 0x1565 JUMPI DUP5 DUP6 REVERT JUMPDEST PUSH3 0x1573 DUP8 DUP3 DUP7 ADD PUSH3 0x12F9 JUMP JUMPDEST PUSH1 0x80 DUP4 ADD MSTORE POP PUSH1 0xA0 DUP4 ADD MLOAD DUP3 DUP2 GT ISZERO PUSH3 0x158B JUMPI DUP5 DUP6 REVERT JUMPDEST PUSH3 0x1599 DUP8 DUP3 DUP7 ADD PUSH3 0x1365 JUMP JUMPDEST PUSH1 0xA0 DUP4 ADD MSTORE POP PUSH1 0xC0 DUP4 DUP2 ADD MLOAD SWAP1 DUP3 ADD MSTORE PUSH1 0xE0 DUP1 DUP5 ADD MLOAD SWAP1 DUP3 ADD MSTORE PUSH2 0x100 DUP1 DUP5 ADD MLOAD SWAP1 DUP3 ADD MSTORE PUSH2 0x120 DUP1 DUP5 ADD MLOAD SWAP1 DUP3 ADD MSTORE PUSH2 0x140 SWAP2 POP PUSH3 0x15DB DUP3 DUP5 ADD PUSH3 0x126D JUMP JUMPDEST SWAP2 DUP2 ADD SWAP2 SWAP1 SWAP2 MSTORE SWAP5 SWAP4 POP POP POP POP JUMP JUMPDEST PUSH1 0x0 PUSH1 0x20 DUP3 DUP5 SUB SLT ISZERO PUSH3 0x15FC JUMPI DUP1 DUP2 REVERT JUMPDEST DUP2 MLOAD PUSH1 0xFF DUP2 AND DUP2 EQ PUSH3 0xD16 JUMPI DUP2 DUP3 REVERT JUMPDEST PUSH1 0x0 PUSH1 0x60 DUP3 ADD DUP6 DUP4 MSTORE PUSH1 0x20 PUSH1 0x60 DUP2 DUP6 ADD MSTORE DUP2 DUP7 MLOAD DUP1 DUP5 MSTORE PUSH1 0x80 DUP7 ADD SWAP2 POP DUP3 DUP9 ADD SWAP4 POP DUP5 JUMPDEST DUP2 DUP2 LT ISZERO PUSH3 0x1658 JUMPI DUP5 MLOAD PUSH1 0x1 PUSH1 0x1 PUSH1 0xA0 SHL SUB AND DUP4 MSTORE SWAP4 DUP4 ADD SWAP4 SWAP2 DUP4 ADD SWAP2 PUSH1 0x1 ADD PUSH3 0x1631 JUMP JUMPDEST POP POP DUP5 DUP2 SUB PUSH1 0x40 DUP7 ADD MSTORE DUP6 MLOAD DUP1 DUP3 MSTORE SWAP1 DUP3 ADD SWAP3 POP DUP2 DUP7 ADD SWAP1 DUP5 JUMPDEST DUP2 DUP2 LT ISZERO PUSH3 0x1699 JUMPI DUP3 MLOAD PUSH1 0x1 PUSH1 0x1 PUSH1 0xA0 SHL SUB AND DUP6 MSTORE SWAP4 DUP4 ADD SWAP4 SWAP2 DUP4 ADD SWAP2 PUSH1 0x1 ADD PUSH3 0x1672 JUMP JUMPDEST POP SWAP3 SWAP9 SWAP8 POP POP POP POP POP POP POP POP JUMP JUMPDEST PUSH1 0x20 DUP2 ADD PUSH1 0x3 DUP4 LT PUSH3 0x16B6 JUMPI INVALID JUMPDEST SWAP2 SWAP1 MSTORE SWAP1 JUMP JUMPDEST SWAP1 DUP2 MSTORE PUSH1 0x20 ADD SWAP1 JUMP JUMPDEST PUSH1 0x40 MLOAD DUP2 DUP2 ADD PUSH1 0x1 PUSH1 0x1 PUSH1 0x40 SHL SUB DUP2 GT DUP3 DUP3 LT OR ISZERO PUSH3 0x16E1 JUMPI INVALID JUMPDEST PUSH1 0x40 MSTORE SWAP2 SWAP1 POP JUMP JUMPDEST PUSH1 0x0 PUSH1 0x1 PUSH1 0x1 PUSH1 0x40 SHL SUB DUP3 GT ISZERO PUSH3 0x16FD JUMPI INVALID JUMPDEST POP PUSH1 0x20 SWAP1 DUP2 MUL ADD SWAP1 JUMP JUMPDEST PUSH1 0x1 PUSH1 0x1 PUSH1 0xA0 SHL SUB DUP2 AND DUP2 EQ PUSH3 0x1079 JUMPI PUSH1 0x0 DUP1 REVERT JUMPDEST PUSH1 0x80 MLOAD PUSH1 0xA0 MLOAD PUSH1 0x60 SHR PUSH1 0xC0 MLOAD PUSH1 0xE0 MLOAD PUSH2 0x100 MLOAD PUSH2 0x120 MLOAD PUSH2 0x140 MLOAD PUSH1 0x60 SHR PUSH2 0x160 MLOAD PUSH2 0x180 MLOAD PUSH2 0x1A0 MLOAD PUSH2 0x1C0 MLOAD PUSH2 0x1E0 MLOAD PUSH1 0x60 SHR PUSH2 0x200 MLOAD PUSH1 0x60 SHR PUSH2 0x220 MLOAD PUSH1 0x60 SHR PUSH2 0x240 MLOAD PUSH1 0x60 SHR PUSH2 0x260 MLOAD PUSH1 0x60 SHR PUSH2 0x280 MLOAD PUSH2 0x2A0 MLOAD PUSH2 0x2C0 MLOAD PUSH2 0x2E0 MLOAD PUSH2 0x300 MLOAD PUSH2 0x320 MLOAD PUSH2 0x340 MLOAD PUSH1 0x60 SHR PUSH2 0x360 MLOAD PUSH1 0x60 SHR PUSH2 0x380 MLOAD PUSH1 0x60 SHR PUSH2 0x3A0 MLOAD PUSH1 0x60 SHR PUSH2 0x3C0 MLOAD PUSH1 0x60 SHR PUSH2 0x5353 PUSH3 0x18EE PUSH1 0x0 CODECOPY DUP1 PUSH2 0x95D MSTORE DUP1 PUSH2 0x1CEB MSTORE POP DUP1 PUSH2 0x906 MSTORE DUP1 PUSH2 0x1C8A MSTORE POP DUP1 PUSH2 0x8AF MSTORE DUP1 PUSH2 0x1C29 MSTORE POP DUP1 PUSH2 0x858 MSTORE DUP1 PUSH2 0x1BC8 MSTORE POP DUP1 PUSH2 0x7F6 MSTORE DUP1 PUSH2 0x1B67 MSTORE POP DUP1 PUSH2 0xEE0 MSTORE DUP1 PUSH2 0x13F7 MSTORE DUP1 PUSH2 0x2400 MSTORE DUP1 PUSH2 0x2493 MSTORE DUP1 PUSH2 0x2771 MSTORE DUP1 PUSH2 0x30A3 MSTORE DUP1 PUSH2 0x3542 MSTORE DUP1 PUSH2 0x3840 MSTORE DUP1 PUSH2 0x3D56 MSTORE DUP1 PUSH2 0x3D7E MSTORE POP DUP1 PUSH2 0x3707 MSTORE POP DUP1 PUSH2 0x36E3 MSTORE POP DUP1 PUSH2 0x36BF MSTORE POP DUP1 PUSH2 0x369B MSTORE POP DUP1 PUSH2 0x3677 MSTORE POP DUP1 PUSH2 0x17AC MSTORE DUP1 PUSH2 0x1CB0 MSTORE DUP1 PUSH2 0x31F9 MSTORE DUP1 PUSH2 0x3813 MSTORE POP DUP1 PUSH2 0x1750 MSTORE DUP1 PUSH2 0x1C4F MSTORE DUP1 PUSH2 0x31B7 MSTORE DUP1 PUSH2 0x37E1 MSTORE POP DUP1 PUSH2 0x16F4 MSTORE DUP1 PUSH2 0x1BEE MSTORE DUP1 PUSH2 0x3175 MSTORE DUP1 PUSH2 0x37AF MSTORE POP DUP1 PUSH2 0x1698 MSTORE DUP1 PUSH2 0x1B8D MSTORE DUP1 PUSH2 0x377D MSTORE DUP1 PUSH2 0x3E1A MSTORE POP DUP1 PUSH2 0x1626 MSTORE DUP1 PUSH2 0x1B2C MSTORE DUP1 PUSH2 0x3740 MSTORE DUP1 PUSH2 0x3DE8 MSTORE POP DUP1 PUSH2 0x15C6 MSTORE POP DUP1 PUSH2 0xB8D MSTORE POP DUP1 PUSH2 0x1A26 MSTORE POP DUP1 PUSH2 0x1A02 MSTORE POP DUP1 PUSH2 0xFA6 MSTORE POP DUP1 PUSH2 0x10CA MSTORE POP DUP1 PUSH2 0x1F00 MSTORE POP DUP1 PUSH2 0x1F42 MSTORE POP DUP1 PUSH2 0x1F21 MSTORE POP DUP1 PUSH2 0xF7C MSTORE POP DUP1 PUSH2 0xF06 MSTORE POP PUSH2 0x5353 PUSH1 0x0 RETURN INVALID PUSH1 0x80 PUSH1 0x40 MSTORE CALLVALUE DUP1 ISZERO PUSH2 0x10 JUMPI PUSH1 0x0 DUP1 REVERT JUMPDEST POP PUSH1 0x4 CALLDATASIZE LT PUSH2 0x2A0 JUMPI PUSH1 0x0 CALLDATALOAD PUSH1 0xE0 SHR DUP1 PUSH4 0x70A08231 GT PUSH2 0x167 JUMPI DUP1 PUSH4 0x9B02CDDE GT PUSH2 0xCE JUMPI DUP1 PUSH4 0xD5C096C4 GT PUSH2 0x87 JUMPI DUP1 PUSH4 0xD5C096C4 EQ PUSH2 0x5A4 JUMPI DUP1 PUSH4 0xD60575CA EQ PUSH2 0x5B7 JUMPI DUP1 PUSH4 0xDD62ED3E EQ PUSH2 0x5BF JUMPI DUP1 PUSH4 0xDE82CD34 EQ PUSH2 0x5D2 JUMPI DUP1 PUSH4 0xEB0F24D6 EQ PUSH2 0x5DA JUMPI DUP1 PUSH4 0xF4B7964D EQ PUSH2 0x5E2 JUMPI PUSH2 0x2A0 JUMP JUMPDEST DUP1 PUSH4 0x9B02CDDE EQ PUSH2 0x53A JUMPI DUP1 PUSH4 0x9D2C110C EQ PUSH2 0x550 JUMPI DUP1 PUSH4 0xA457C2D7 EQ PUSH2 0x563 JUMPI DUP1 PUSH4 0xA9059CBB EQ PUSH2 0x576 JUMPI DUP1 PUSH4 0xAAABADC5 EQ PUSH2 0x589 JUMPI DUP1 PUSH4 0xD505ACCF EQ PUSH2 0x591 JUMPI PUSH2 0x2A0 JUMP JUMPDEST DUP1 PUSH4 0x851C1BB3 GT PUSH2 0x120 JUMPI DUP1 PUSH4 0x851C1BB3 EQ PUSH2 0x4E7 JUMPI DUP1 PUSH4 0x87EC6817 EQ PUSH2 0x4FA JUMPI DUP1 PUSH4 0x893D20E8 EQ PUSH2 0x50D JUMPI DUP1 PUSH4 0x8D2334E0 EQ PUSH2 0x522 JUMPI DUP1 PUSH4 0x8D928AF8 EQ PUSH2 0x52A JUMPI DUP1 PUSH4 0x95D89B41 EQ PUSH2 0x532 JUMPI PUSH2 0x2A0 JUMP JUMPDEST DUP1 PUSH4 0x70A08231 EQ PUSH2 0x46E JUMPI DUP1 PUSH4 0x74F3B009 EQ PUSH2 0x481 JUMPI DUP1 PUSH4 0x7520E049 EQ PUSH2 0x4A2 JUMPI DUP1 PUSH4 0x7ECEBE00 EQ PUSH2 0x4AA JUMPI DUP1 PUSH4 0x7F1260D1 EQ PUSH2 0x4BD JUMPI DUP1 PUSH4 0x82687A56 EQ PUSH2 0x4DF JUMPI PUSH2 0x2A0 JUMP JUMPDEST DUP1 PUSH4 0x313CE567 GT PUSH2 0x20B JUMPI DUP1 PUSH4 0x54DEA00A GT PUSH2 0x1C4 JUMPI DUP1 PUSH4 0x54DEA00A EQ PUSH2 0x400 JUMPI DUP1 PUSH4 0x55C67628 EQ PUSH2 0x413 JUMPI DUP1 PUSH4 0x6028BFD4 EQ PUSH2 0x41B JUMPI DUP1 PUSH4 0x6782F364 EQ PUSH2 0x43C JUMPI DUP1 PUSH4 0x679AEFCE EQ PUSH2 0x44F JUMPI DUP1 PUSH4 0x6DACCFFA EQ PUSH2 0x457 JUMPI PUSH2 0x2A0 JUMP JUMPDEST DUP1 PUSH4 0x313CE567 EQ PUSH2 0x3A2 JUMPI DUP1 PUSH4 0x3644E515 EQ PUSH2 0x3B7 JUMPI DUP1 PUSH4 0x38E9922E EQ PUSH2 0x3BF JUMPI DUP1 PUSH4 0x38FFF2D0 EQ PUSH2 0x3D2 JUMPI DUP1 PUSH4 0x39509351 EQ PUSH2 0x3DA JUMPI DUP1 PUSH4 0x50DD6ED9 EQ PUSH2 0x3ED JUMPI PUSH2 0x2A0 JUMP JUMPDEST DUP1 PUSH4 0x1C0DE051 GT PUSH2 0x25D JUMPI DUP1 PUSH4 0x1C0DE051 EQ PUSH2 0x328 JUMPI DUP1 PUSH4 0x1DD746EA EQ PUSH2 0x33F JUMPI DUP1 PUSH4 0x238A2D59 EQ PUSH2 0x354 JUMPI DUP1 PUSH4 0x23B872DD EQ PUSH2 0x369 JUMPI DUP1 PUSH4 0x2DF2C7C0 EQ PUSH2 0x37C JUMPI DUP1 PUSH4 0x2F1A0BC9 EQ PUSH2 0x38F JUMPI PUSH2 0x2A0 JUMP JUMPDEST DUP1 PUSH4 0x1EC954A EQ PUSH2 0x2A5 JUMPI DUP1 PUSH4 0x4842D4C EQ PUSH2 0x2CE JUMPI DUP1 PUSH4 0x6FDDE03 EQ PUSH2 0x2D6 JUMPI DUP1 PUSH4 0x95EA7B3 EQ PUSH2 0x2EB JUMPI DUP1 PUSH4 0x16C38B3C EQ PUSH2 0x30B JUMPI DUP1 PUSH4 0x18160DDD EQ PUSH2 0x320 JUMPI JUMPDEST PUSH1 0x0 DUP1 REVERT JUMPDEST PUSH2 0x2B8 PUSH2 0x2B3 CALLDATASIZE PUSH1 0x4 PUSH2 0x4E78 JUMP JUMPDEST PUSH2 0x5F5 JUMP JUMPDEST PUSH1 0x40 MLOAD PUSH2 0x2C5 SWAP2 SWAP1 PUSH2 0x5148 JUMP JUMPDEST PUSH1 0x40 MLOAD DUP1 SWAP2 SUB SWAP1 RETURN JUMPDEST PUSH2 0x2B8 PUSH2 0x693 JUMP JUMPDEST PUSH2 0x2DE PUSH2 0x6A3 JUMP JUMPDEST PUSH1 0x40 MLOAD PUSH2 0x2C5 SWAP2 SWAP1 PUSH2 0x521E JUMP JUMPDEST PUSH2 0x2FE PUSH2 0x2F9 CALLDATASIZE PUSH1 0x4 PUSH2 0x4B72 JUMP JUMPDEST PUSH2 0x739 JUMP JUMPDEST PUSH1 0x40 MLOAD PUSH2 0x2C5 SWAP2 SWAP1 PUSH2 0x5125 JUMP JUMPDEST PUSH2 0x31E PUSH2 0x319 CALLDATASIZE PUSH1 0x4 PUSH2 0x4C68 JUMP JUMPDEST PUSH2 0x750 JUMP JUMPDEST STOP JUMPDEST PUSH2 0x2B8 PUSH2 0x764 JUMP JUMPDEST PUSH2 0x330 PUSH2 0x76A JUMP JUMPDEST PUSH1 0x40 MLOAD PUSH2 0x2C5 SWAP4 SWAP3 SWAP2 SWAP1 PUSH2 0x5130 JUMP JUMPDEST PUSH2 0x347 PUSH2 0x793 JUMP JUMPDEST PUSH1 0x40 MLOAD PUSH2 0x2C5 SWAP2 SWAP1 PUSH2 0x50ED JUMP JUMPDEST PUSH2 0x35C PUSH2 0x79D JUMP JUMPDEST PUSH1 0x40 MLOAD PUSH2 0x2C5 SWAP2 SWAP1 PUSH2 0x50A0 JUMP JUMPDEST PUSH2 0x2FE PUSH2 0x377 CALLDATASIZE PUSH1 0x4 PUSH2 0x4ABD JUMP JUMPDEST PUSH2 0x9AE JUMP JUMPDEST PUSH2 0x31E PUSH2 0x38A CALLDATASIZE PUSH1 0x4 PUSH2 0x4A69 JUMP JUMPDEST PUSH2 0xA24 JUMP JUMPDEST PUSH2 0x31E PUSH2 0x39D CALLDATASIZE PUSH1 0x4 PUSH2 0x4F63 JUMP JUMPDEST PUSH2 0xA7C JUMP JUMPDEST PUSH2 0x3AA PUSH2 0xB5F JUMP JUMPDEST PUSH1 0x40 MLOAD PUSH2 0x2C5 SWAP2 SWAP1 PUSH2 0x529F JUMP JUMPDEST PUSH2 0x2B8 PUSH2 0xB68 JUMP JUMPDEST PUSH2 0x31E PUSH2 0x3CD CALLDATASIZE PUSH1 0x4 PUSH2 0x4F33 JUMP JUMPDEST PUSH2 0xB72 JUMP JUMPDEST PUSH2 0x2B8 PUSH2 0xB8B JUMP JUMPDEST PUSH2 0x2FE PUSH2 0x3E8 CALLDATASIZE PUSH1 0x4 PUSH2 0x4B72 JUMP JUMPDEST PUSH2 0xBAF JUMP JUMPDEST PUSH2 0x31E PUSH2 0x3FB CALLDATASIZE PUSH1 0x4 PUSH2 0x4D86 JUMP JUMPDEST PUSH2 0xBEA JUMP JUMPDEST PUSH2 0x2B8 PUSH2 0x40E CALLDATASIZE PUSH1 0x4 PUSH2 0x4A69 JUMP JUMPDEST PUSH2 0xC08 JUMP JUMPDEST PUSH2 0x2B8 PUSH2 0xC6A JUMP JUMPDEST PUSH2 0x42E PUSH2 0x429 CALLDATASIZE PUSH1 0x4 PUSH2 0x4CA0 JUMP JUMPDEST PUSH2 0xC7B JUMP JUMPDEST PUSH1 0x40 MLOAD PUSH2 0x2C5 SWAP3 SWAP2 SWAP1 PUSH2 0x5231 JUMP JUMPDEST PUSH2 0x2B8 PUSH2 0x44A CALLDATASIZE PUSH1 0x4 PUSH2 0x4A69 JUMP JUMPDEST PUSH2 0xCB2 JUMP JUMPDEST PUSH2 0x2B8 PUSH2 0xCBD JUMP JUMPDEST PUSH2 0x45F PUSH2 0xD94 JUMP JUMPDEST PUSH1 0x40 MLOAD PUSH2 0x2C5 SWAP4 SWAP3 SWAP2 SWAP1 PUSH2 0x524A JUMP JUMPDEST PUSH2 0x2B8 PUSH2 0x47C CALLDATASIZE PUSH1 0x4 PUSH2 0x4A69 JUMP JUMPDEST PUSH2 0xDAF JUMP JUMPDEST PUSH2 0x494 PUSH2 0x48F CALLDATASIZE PUSH1 0x4 PUSH2 0x4CA0 JUMP JUMPDEST PUSH2 0xDCA JUMP JUMPDEST PUSH1 0x40 MLOAD PUSH2 0x2C5 SWAP3 SWAP2 SWAP1 PUSH2 0x5100 JUMP JUMPDEST PUSH2 0x2B8 PUSH2 0xE48 JUMP JUMPDEST PUSH2 0x2B8 PUSH2 0x4B8 CALLDATASIZE PUSH1 0x4 PUSH2 0x4A69 JUMP JUMPDEST PUSH2 0xE4E JUMP JUMPDEST PUSH2 0x4D0 PUSH2 0x4CB CALLDATASIZE PUSH1 0x4 PUSH2 0x4A69 JUMP JUMPDEST PUSH2 0xE69 JUMP JUMPDEST PUSH1 0x40 MLOAD PUSH2 0x2C5 SWAP4 SWAP3 SWAP2 SWAP1 PUSH2 0x526E JUMP JUMPDEST PUSH2 0x2B8 PUSH2 0xEDE JUMP JUMPDEST PUSH2 0x2B8 PUSH2 0x4F5 CALLDATASIZE PUSH1 0x4 PUSH2 0x4D42 JUMP JUMPDEST PUSH2 0xF02 JUMP JUMPDEST PUSH2 0x42E PUSH2 0x508 CALLDATASIZE PUSH1 0x4 PUSH2 0x4CA0 JUMP JUMPDEST PUSH2 0xF54 JUMP JUMPDEST PUSH2 0x515 PUSH2 0xF7A JUMP JUMPDEST PUSH1 0x40 MLOAD PUSH2 0x2C5 SWAP2 SWAP1 PUSH2 0x508C JUMP JUMPDEST PUSH2 0x2B8 PUSH2 0xF9E JUMP JUMPDEST PUSH2 0x515 PUSH2 0xFA4 JUMP JUMPDEST PUSH2 0x2DE PUSH2 0xFC8 JUMP JUMPDEST PUSH2 0x542 PUSH2 0x1029 JUMP JUMPDEST PUSH1 0x40 MLOAD PUSH2 0x2C5 SWAP3 SWAP2 SWAP1 PUSH2 0x5260 JUMP JUMPDEST PUSH2 0x2B8 PUSH2 0x55E CALLDATASIZE PUSH1 0x4 PUSH2 0x4EE8 JUMP JUMPDEST PUSH2 0x1033 JUMP JUMPDEST PUSH2 0x2FE PUSH2 0x571 CALLDATASIZE PUSH1 0x4 PUSH2 0x4B72 JUMP JUMPDEST PUSH2 0x1040 JUMP JUMPDEST PUSH2 0x2FE PUSH2 0x584 CALLDATASIZE PUSH1 0x4 PUSH2 0x4B72 JUMP JUMPDEST PUSH2 0x107E JUMP JUMPDEST PUSH2 0x515 PUSH2 0x108B JUMP JUMPDEST PUSH2 0x31E PUSH2 0x59F CALLDATASIZE PUSH1 0x4 PUSH2 0x4AFD JUMP JUMPDEST PUSH2 0x1095 JUMP JUMPDEST PUSH2 0x494 PUSH2 0x5B2 CALLDATASIZE PUSH1 0x4 PUSH2 0x4CA0 JUMP JUMPDEST PUSH2 0x11DE JUMP JUMPDEST PUSH2 0x31E PUSH2 0x130D JUMP JUMPDEST PUSH2 0x2B8 PUSH2 0x5CD CALLDATASIZE PUSH1 0x4 PUSH2 0x4A85 JUMP JUMPDEST PUSH2 0x131F JUMP JUMPDEST PUSH2 0x2B8 PUSH2 0x135C JUMP JUMPDEST PUSH2 0x31E PUSH2 0x1433 JUMP JUMPDEST PUSH2 0x31E PUSH2 0x5F0 CALLDATASIZE PUSH1 0x4 PUSH2 0x4B72 JUMP JUMPDEST PUSH2 0x145F JUMP JUMPDEST PUSH1 0x0 DUP5 PUSH1 0x80 ADD MLOAD PUSH2 0x622 PUSH2 0x607 PUSH2 0xFA4 JUMP JUMPDEST PUSH1 0x1 PUSH1 0x1 PUSH1 0xA0 SHL SUB AND CALLER PUSH1 0x1 PUSH1 0x1 PUSH1 0xA0 SHL SUB AND EQ PUSH1 0xCD PUSH2 0x15B6 JUMP JUMPDEST PUSH2 0x637 PUSH2 0x62D PUSH2 0xB8B JUMP JUMPDEST DUP3 EQ PUSH2 0x1F4 PUSH2 0x15B6 JUMP JUMPDEST PUSH2 0x649 DUP5 DUP5 PUSH2 0x644 PUSH2 0x15C4 JUMP JUMPDEST PUSH2 0x15E8 JUMP JUMPDEST PUSH1 0x0 PUSH2 0x653 PUSH2 0x1600 JUMP JUMPDEST SWAP1 POP PUSH1 0x0 DUP8 MLOAD PUSH1 0x1 DUP2 GT ISZERO PUSH2 0x664 JUMPI INVALID JUMPDEST EQ PUSH2 0x67B JUMPI PUSH2 0x676 DUP8 DUP8 DUP8 DUP8 DUP6 PUSH2 0x17FA JUMP JUMPDEST PUSH2 0x688 JUMP JUMPDEST PUSH2 0x688 DUP8 DUP8 DUP8 DUP8 DUP6 PUSH2 0x1871 JUMP JUMPDEST SWAP8 SWAP7 POP POP POP POP POP POP POP JUMP JUMPDEST PUSH1 0x0 PUSH2 0x69D PUSH2 0x18D5 JUMP JUMPDEST SWAP1 POP JUMPDEST SWAP1 JUMP JUMPDEST PUSH1 0x3 DUP1 SLOAD PUSH1 0x40 DUP1 MLOAD PUSH1 0x20 PUSH1 0x1F PUSH1 0x2 PUSH1 0x0 NOT PUSH2 0x100 PUSH1 0x1 DUP9 AND ISZERO MUL ADD SWAP1 SWAP6 AND SWAP5 SWAP1 SWAP5 DIV SWAP4 DUP5 ADD DUP2 SWAP1 DIV DUP2 MUL DUP3 ADD DUP2 ADD SWAP1 SWAP3 MSTORE DUP3 DUP2 MSTORE PUSH1 0x60 SWAP4 SWAP1 SWAP3 SWAP1 SWAP2 DUP4 ADD DUP3 DUP3 DUP1 ISZERO PUSH2 0x72F JUMPI DUP1 PUSH1 0x1F LT PUSH2 0x704 JUMPI PUSH2 0x100 DUP1 DUP4 SLOAD DIV MUL DUP4 MSTORE SWAP2 PUSH1 0x20 ADD SWAP2 PUSH2 0x72F JUMP JUMPDEST DUP3 ADD SWAP2 SWAP1 PUSH1 0x0 MSTORE PUSH1 0x20 PUSH1 0x0 KECCAK256 SWAP1 JUMPDEST DUP2 SLOAD DUP2 MSTORE SWAP1 PUSH1 0x1 ADD SWAP1 PUSH1 0x20 ADD DUP1 DUP4 GT PUSH2 0x712 JUMPI DUP3 SWAP1 SUB PUSH1 0x1F AND DUP3 ADD SWAP2 JUMPDEST POP POP POP POP POP SWAP1 POP SWAP1 JUMP JUMPDEST PUSH1 0x0 PUSH2 0x746 CALLER DUP5 DUP5 PUSH2 0x18DC JUMP JUMPDEST POP PUSH1 0x1 JUMPDEST SWAP3 SWAP2 POP POP JUMP JUMPDEST PUSH2 0x758 PUSH2 0x1937 JUMP JUMPDEST PUSH2 0x761 DUP2 PUSH2 0x1965 JUMP JUMPDEST POP JUMP JUMPDEST PUSH1 0x2 SLOAD SWAP1 JUMP JUMPDEST PUSH1 0x0 DUP1 PUSH1 0x0 PUSH2 0x777 PUSH2 0x19E3 JUMP JUMPDEST ISZERO SWAP3 POP PUSH2 0x782 PUSH2 0x1A00 JUMP JUMPDEST SWAP2 POP PUSH2 0x78C PUSH2 0x1A24 JUMP JUMPDEST SWAP1 POP SWAP1 SWAP2 SWAP3 JUMP JUMPDEST PUSH1 0x60 PUSH2 0x69D PUSH2 0x1600 JUMP JUMPDEST PUSH1 0x60 PUSH1 0x0 PUSH2 0x7A9 PUSH2 0x15C4 JUMP JUMPDEST SWAP1 POP DUP1 PUSH1 0x1 PUSH1 0x1 PUSH1 0x40 SHL SUB DUP2 GT DUP1 ISZERO PUSH2 0x7C1 JUMPI PUSH1 0x0 DUP1 REVERT JUMPDEST POP PUSH1 0x40 MLOAD SWAP1 DUP1 DUP3 MSTORE DUP1 PUSH1 0x20 MUL PUSH1 0x20 ADD DUP3 ADD PUSH1 0x40 MSTORE DUP1 ISZERO PUSH2 0x7EB JUMPI DUP2 PUSH1 0x20 ADD PUSH1 0x20 DUP3 MUL DUP1 CALLDATASIZE DUP4 CALLDATACOPY ADD SWAP1 POP JUMPDEST POP SWAP2 POP DUP1 ISZERO PUSH2 0x847 JUMPI PUSH32 0x0 DUP3 PUSH1 0x0 DUP2 MLOAD DUP2 LT PUSH2 0x822 JUMPI INVALID JUMPDEST PUSH1 0x20 MUL PUSH1 0x20 ADD ADD SWAP1 PUSH1 0x1 PUSH1 0x1 PUSH1 0xA0 SHL SUB AND SWAP1 DUP2 PUSH1 0x1 PUSH1 0x1 PUSH1 0xA0 SHL SUB AND DUP2 MSTORE POP POP PUSH2 0x84D JUMP JUMPDEST POP PUSH2 0x6A0 JUMP JUMPDEST PUSH1 0x1 DUP2 GT ISZERO PUSH2 0x847 JUMPI PUSH32 0x0 DUP3 PUSH1 0x1 DUP2 MLOAD DUP2 LT PUSH2 0x884 JUMPI INVALID JUMPDEST PUSH1 0x20 MUL PUSH1 0x20 ADD ADD SWAP1 PUSH1 0x1 PUSH1 0x1 PUSH1 0xA0 SHL SUB AND SWAP1 DUP2 PUSH1 0x1 PUSH1 0x1 PUSH1 0xA0 SHL SUB AND DUP2 MSTORE POP POP PUSH1 0x2 DUP2 GT ISZERO PUSH2 0x847 JUMPI PUSH32 0x0 DUP3 PUSH1 0x2 DUP2 MLOAD DUP2 LT PUSH2 0x8DB JUMPI INVALID JUMPDEST PUSH1 0x20 MUL PUSH1 0x20 ADD ADD SWAP1 PUSH1 0x1 PUSH1 0x1 PUSH1 0xA0 SHL SUB AND SWAP1 DUP2 PUSH1 0x1 PUSH1 0x1 PUSH1 0xA0 SHL SUB AND DUP2 MSTORE POP POP PUSH1 0x3 DUP2 GT ISZERO PUSH2 0x847 JUMPI PUSH32 0x0 DUP3 PUSH1 0x3 DUP2 MLOAD DUP2 LT PUSH2 0x932 JUMPI INVALID JUMPDEST PUSH1 0x20 MUL PUSH1 0x20 ADD ADD SWAP1 PUSH1 0x1 PUSH1 0x1 PUSH1 0xA0 SHL SUB AND SWAP1 DUP2 PUSH1 0x1 PUSH1 0x1 PUSH1 0xA0 SHL SUB AND DUP2 MSTORE POP POP PUSH1 0x4 DUP2 GT ISZERO PUSH2 0x847 JUMPI PUSH32 0x0 DUP3 PUSH1 0x4 DUP2 MLOAD DUP2 LT PUSH2 0x989 JUMPI INVALID JUMPDEST PUSH1 0x20 MUL PUSH1 0x20 ADD ADD SWAP1 PUSH1 0x1 PUSH1 0x1 PUSH1 0xA0 SHL SUB AND SWAP1 DUP2 PUSH1 0x1 PUSH1 0x1 PUSH1 0xA0 SHL SUB AND DUP2 MSTORE POP POP JUMPDEST POP SWAP1 JUMP JUMPDEST PUSH1 0x0 DUP1 PUSH2 0x9BB DUP6 CALLER PUSH2 0x131F JUMP JUMPDEST SWAP1 POP PUSH2 0x9DF CALLER PUSH1 0x1 PUSH1 0x1 PUSH1 0xA0 SHL SUB DUP8 AND EQ DUP1 PUSH2 0x9D7 JUMPI POP DUP4 DUP3 LT ISZERO JUMPDEST PUSH2 0x19E PUSH2 0x15B6 JUMP JUMPDEST PUSH2 0x9EA DUP6 DUP6 DUP6 PUSH2 0x1A48 JUMP JUMPDEST CALLER PUSH1 0x1 PUSH1 0x1 PUSH1 0xA0 SHL SUB DUP7 AND EQ DUP1 ISZERO SWAP1 PUSH2 0xA05 JUMPI POP PUSH1 0x0 NOT DUP2 EQ ISZERO JUMPDEST ISZERO PUSH2 0xA17 JUMPI PUSH2 0xA17 DUP6 CALLER DUP6 DUP5 SUB PUSH2 0x18DC JUMP JUMPDEST PUSH1 0x1 SWAP2 POP POP JUMPDEST SWAP4 SWAP3 POP POP POP JUMP JUMPDEST PUSH1 0x0 PUSH2 0xA2F DUP3 PUSH2 0x1B28 JUMP JUMPDEST SWAP1 POP PUSH2 0xA48 PUSH1 0x1 PUSH1 0x1 PUSH1 0xA0 SHL SUB DUP3 AND ISZERO ISZERO PUSH2 0x155 PUSH2 0x15B6 JUMP JUMPDEST PUSH1 0x1 PUSH1 0x1 PUSH1 0xA0 SHL SUB DUP3 AND PUSH1 0x0 SWAP1 DUP2 MSTORE PUSH1 0xE PUSH1 0x20 MSTORE PUSH1 0x40 DUP2 KECCAK256 SLOAD PUSH2 0xA6A SWAP1 PUSH2 0x1D1A JUMP JUMPDEST SWAP1 POP PUSH2 0xA77 DUP4 DUP4 DUP4 PUSH2 0x1D27 JUMP JUMPDEST POP POP POP JUMP JUMPDEST PUSH2 0xA84 PUSH2 0x1937 JUMP JUMPDEST PUSH2 0xA94 PUSH1 0x1 DUP4 LT ISZERO PUSH2 0x12C PUSH2 0x15B6 JUMP JUMPDEST PUSH2 0xAA5 PUSH2 0x1388 DUP4 GT ISZERO PUSH2 0x12D PUSH2 0x15B6 JUMP JUMPDEST PUSH1 0x0 PUSH2 0xAB1 DUP3 TIMESTAMP PUSH2 0x1541 JUMP JUMPDEST SWAP1 POP PUSH2 0xAC5 PUSH3 0x15180 DUP3 LT ISZERO PUSH2 0x13D PUSH2 0x15B6 JUMP JUMPDEST PUSH1 0x0 DUP1 PUSH2 0xAD0 PUSH2 0x1E06 JUMP JUMPDEST SWAP2 POP SWAP2 POP PUSH2 0xAE1 DUP2 ISZERO PUSH2 0x13E PUSH2 0x15B6 JUMP JUMPDEST PUSH1 0x0 PUSH2 0xAEF DUP7 PUSH2 0x3E8 PUSH2 0x14F0 JUMP JUMPDEST SWAP1 POP PUSH1 0x0 DUP4 DUP3 GT PUSH2 0xB1E JUMPI PUSH2 0xB19 PUSH2 0xB0A PUSH3 0x15180 DUP7 PUSH2 0x14F0 JUMP JUMPDEST PUSH2 0xB14 DUP5 DUP9 PUSH2 0x14F0 JUMP JUMPDEST PUSH2 0x1E7A JUMP JUMPDEST PUSH2 0xB38 JUMP JUMPDEST PUSH2 0xB38 PUSH2 0xB2E PUSH3 0x15180 DUP5 PUSH2 0x14F0 JUMP JUMPDEST PUSH2 0xB14 DUP7 DUP9 PUSH2 0x14F0 JUMP JUMPDEST SWAP1 POP PUSH2 0xB4A PUSH1 0x2 DUP3 GT ISZERO PUSH2 0x13F PUSH2 0x15B6 JUMP JUMPDEST PUSH2 0xB56 DUP5 DUP4 TIMESTAMP DUP10 PUSH2 0x1EAD JUMP JUMPDEST POP POP POP POP POP POP POP JUMP JUMPDEST PUSH1 0x5 SLOAD PUSH1 0xFF AND SWAP1 JUMP JUMPDEST PUSH1 0x0 PUSH2 0x69D PUSH2 0x1EFC JUMP JUMPDEST PUSH2 0xB7A PUSH2 0x1937 JUMP JUMPDEST PUSH2 0xB82 PUSH2 0x1F99 JUMP JUMPDEST PUSH2 0x761 DUP2 PUSH2 0x1FAC JUMP JUMPDEST PUSH32 0x0 SWAP1 JUMP JUMPDEST CALLER PUSH1 0x0 DUP2 DUP2 MSTORE PUSH1 0x1 PUSH1 0x20 SWAP1 DUP2 MSTORE PUSH1 0x40 DUP1 DUP4 KECCAK256 PUSH1 0x1 PUSH1 0x1 PUSH1 0xA0 SHL SUB DUP8 AND DUP5 MSTORE SWAP1 SWAP2 MSTORE DUP2 KECCAK256 SLOAD SWAP1 SWAP2 PUSH2 0x746 SWAP2 DUP6 SWAP1 PUSH2 0xBE5 SWAP1 DUP7 PUSH2 0x2017 JUMP JUMPDEST PUSH2 0x18DC JUMP JUMPDEST PUSH2 0xBF2 PUSH2 0x1937 JUMP JUMPDEST PUSH2 0xBFA PUSH2 0x1F99 JUMP JUMPDEST PUSH2 0xC04 DUP3 DUP3 PUSH2 0x2029 JUMP JUMPDEST POP POP JUMP JUMPDEST PUSH1 0x0 PUSH1 0x1 PUSH1 0x1 PUSH1 0xA0 SHL SUB DUP3 AND ADDRESS EQ ISZERO PUSH2 0xC2A JUMPI POP PUSH8 0xDE0B6B3A7640000 PUSH2 0xC65 JUMP JUMPDEST PUSH1 0x1 PUSH1 0x1 PUSH1 0xA0 SHL SUB DUP3 AND PUSH1 0x0 SWAP1 DUP2 MSTORE PUSH1 0xE PUSH1 0x20 MSTORE PUSH1 0x40 SWAP1 KECCAK256 SLOAD DUP1 ISZERO PUSH2 0xC57 JUMPI PUSH2 0xC52 DUP2 PUSH2 0x2128 JUMP JUMPDEST PUSH2 0xC61 JUMP JUMPDEST PUSH8 0xDE0B6B3A7640000 JUMPDEST SWAP2 POP POP JUMPDEST SWAP2 SWAP1 POP JUMP JUMPDEST PUSH1 0x8 SLOAD PUSH1 0x0 SWAP1 PUSH2 0x69D SWAP1 PUSH1 0xC0 PUSH2 0x2134 JUMP JUMPDEST PUSH1 0x0 PUSH1 0x60 PUSH2 0xC91 DUP7 MLOAD PUSH2 0xC8C PUSH2 0x15C4 JUMP JUMPDEST PUSH2 0x2141 JUMP JUMPDEST PUSH2 0xCA6 DUP10 DUP10 DUP10 DUP10 DUP10 DUP10 DUP10 PUSH2 0x214E PUSH2 0x21F1 PUSH2 0x2252 JUMP JUMPDEST SWAP8 POP SWAP8 SWAP6 POP POP POP POP POP POP JUMP JUMPDEST PUSH1 0x0 PUSH2 0x74A DUP3 PUSH2 0x2374 JUMP JUMPDEST PUSH1 0x0 DUP1 PUSH2 0xCC8 PUSH2 0xFA4 JUMP JUMPDEST PUSH1 0x1 PUSH1 0x1 PUSH1 0xA0 SHL SUB AND PUSH4 0xF94D4668 PUSH2 0xCDE PUSH2 0xB8B JUMP JUMPDEST PUSH1 0x40 MLOAD DUP3 PUSH4 0xFFFFFFFF AND PUSH1 0xE0 SHL DUP2 MSTORE PUSH1 0x4 ADD PUSH2 0xCFA SWAP2 SWAP1 PUSH2 0x5148 JUMP JUMPDEST PUSH1 0x0 PUSH1 0x40 MLOAD DUP1 DUP4 SUB DUP2 DUP7 DUP1 EXTCODESIZE ISZERO DUP1 ISZERO PUSH2 0xD12 JUMPI PUSH1 0x0 DUP1 REVERT JUMPDEST POP GAS STATICCALL ISZERO DUP1 ISZERO PUSH2 0xD26 JUMPI RETURNDATASIZE PUSH1 0x0 DUP1 RETURNDATACOPY RETURNDATASIZE PUSH1 0x0 REVERT JUMPDEST POP POP POP POP PUSH1 0x40 MLOAD RETURNDATASIZE PUSH1 0x0 DUP3 RETURNDATACOPY PUSH1 0x1F RETURNDATASIZE SWAP1 DUP2 ADD PUSH1 0x1F NOT AND DUP3 ADD PUSH1 0x40 MSTORE PUSH2 0xD4E SWAP2 SWAP1 DUP2 ADD SWAP1 PUSH2 0x4B9D JUMP JUMPDEST POP SWAP2 POP POP PUSH2 0xD63 DUP2 PUSH2 0xD5E PUSH2 0x1600 JUMP JUMPDEST PUSH2 0x2395 JUMP JUMPDEST PUSH1 0x0 DUP1 PUSH2 0xD6F DUP4 PUSH2 0x23F6 JUMP JUMPDEST SWAP2 POP SWAP2 POP PUSH1 0x0 PUSH2 0xD7D PUSH2 0x1E06 JUMP JUMPDEST POP SWAP1 POP PUSH2 0xD8B DUP3 DUP3 DUP6 PUSH2 0x24FA JUMP JUMPDEST SWAP5 POP POP POP POP POP SWAP1 JUMP JUMPDEST PUSH1 0x0 DUP1 PUSH1 0x0 PUSH2 0xDA1 PUSH2 0x1E06 JUMP JUMPDEST SWAP1 SWAP5 SWAP1 SWAP4 POP PUSH2 0x3E8 SWAP3 POP SWAP1 POP JUMP JUMPDEST PUSH1 0x1 PUSH1 0x1 PUSH1 0xA0 SHL SUB AND PUSH1 0x0 SWAP1 DUP2 MSTORE PUSH1 0x20 DUP2 SWAP1 MSTORE PUSH1 0x40 SWAP1 KECCAK256 SLOAD SWAP1 JUMP JUMPDEST PUSH1 0x60 DUP1 DUP9 PUSH2 0xDD9 PUSH2 0x607 PUSH2 0xFA4 JUMP JUMPDEST PUSH2 0xDE4 PUSH2 0x62D PUSH2 0xB8B JUMP JUMPDEST PUSH1 0x0 PUSH2 0xDEE PUSH2 0x1600 JUMP JUMPDEST SWAP1 POP PUSH2 0xDFA DUP9 DUP3 PUSH2 0x2395 JUMP JUMPDEST PUSH1 0x0 DUP1 PUSH1 0x0 PUSH2 0xE0F DUP15 DUP15 DUP15 DUP15 DUP15 DUP15 DUP11 DUP16 PUSH2 0x214E JUMP JUMPDEST SWAP3 POP SWAP3 POP SWAP3 POP PUSH2 0xE1F DUP14 DUP5 PUSH2 0x2515 JUMP JUMPDEST PUSH2 0xE29 DUP3 DUP6 PUSH2 0x21F1 JUMP JUMPDEST PUSH2 0xE33 DUP2 DUP6 PUSH2 0x21F1 JUMP JUMPDEST SWAP1 SWAP6 POP SWAP4 POP POP POP JUMPDEST POP SWAP8 POP SWAP8 SWAP6 POP POP POP POP POP POP JUMP JUMPDEST PUSH1 0xC SLOAD SWAP1 JUMP JUMPDEST PUSH1 0x1 PUSH1 0x1 PUSH1 0xA0 SHL SUB AND PUSH1 0x0 SWAP1 DUP2 MSTORE PUSH1 0x6 PUSH1 0x20 MSTORE PUSH1 0x40 SWAP1 KECCAK256 SLOAD SWAP1 JUMP JUMPDEST PUSH1 0x0 DUP1 DUP1 PUSH2 0xE8D DUP2 PUSH2 0xE7A DUP7 PUSH2 0x1B28 JUMP JUMPDEST PUSH1 0x1 PUSH1 0x1 PUSH1 0xA0 SHL SUB AND EQ ISZERO PUSH2 0x155 PUSH2 0x15B6 JUMP JUMPDEST PUSH1 0x1 PUSH1 0x1 PUSH1 0xA0 SHL SUB DUP5 AND PUSH1 0x0 SWAP1 DUP2 MSTORE PUSH1 0xE PUSH1 0x20 MSTORE PUSH1 0x40 SWAP1 KECCAK256 SLOAD PUSH2 0xEAF SWAP1 PUSH2 0x2128 JUMP JUMPDEST PUSH1 0x1 PUSH1 0x1 PUSH1 0xA0 SHL SUB DUP6 AND PUSH1 0x0 SWAP1 DUP2 MSTORE PUSH1 0xE PUSH1 0x20 MSTORE PUSH1 0x40 SWAP1 KECCAK256 SLOAD SWAP1 SWAP4 POP PUSH2 0xED4 SWAP1 PUSH2 0x251F JUMP JUMPDEST SWAP4 SWAP6 SWAP1 SWAP5 POP SWAP2 POP POP JUMP JUMPDEST PUSH32 0x0 SWAP1 JUMP JUMPDEST PUSH1 0x0 PUSH32 0x0 DUP3 PUSH1 0x40 MLOAD PUSH1 0x20 ADD PUSH2 0xF37 SWAP3 SWAP2 SWAP1 PUSH2 0x5049 JUMP JUMPDEST PUSH1 0x40 MLOAD PUSH1 0x20 DUP2 DUP4 SUB SUB DUP2 MSTORE SWAP1 PUSH1 0x40 MSTORE DUP1 MLOAD SWAP1 PUSH1 0x20 ADD KECCAK256 SWAP1 POP SWAP2 SWAP1 POP JUMP JUMPDEST PUSH1 0x0 PUSH1 0x60 PUSH2 0xF65 DUP7 MLOAD PUSH2 0xC8C PUSH2 0x15C4 JUMP JUMPDEST PUSH2 0xCA6 DUP10 DUP10 DUP10 DUP10 DUP10 DUP10 DUP10 PUSH2 0x253F PUSH2 0x2582 PUSH2 0x2252 JUMP JUMPDEST PUSH32 0x0 SWAP1 JUMP JUMPDEST PUSH1 0xD SLOAD SWAP1 JUMP JUMPDEST PUSH32 0x0 SWAP1 JUMP JUMPDEST PUSH1 0x4 DUP1 SLOAD PUSH1 0x40 DUP1 MLOAD PUSH1 0x20 PUSH1 0x1F PUSH1 0x2 PUSH1 0x0 NOT PUSH2 0x100 PUSH1 0x1 DUP9 AND ISZERO MUL ADD SWAP1 SWAP6 AND SWAP5 SWAP1 SWAP5 DIV SWAP4 DUP5 ADD DUP2 SWAP1 DIV DUP2 MUL DUP3 ADD DUP2 ADD SWAP1 SWAP3 MSTORE DUP3 DUP2 MSTORE PUSH1 0x60 SWAP4 SWAP1 SWAP3 SWAP1 SWAP2 DUP4 ADD DUP3 DUP3 DUP1 ISZERO PUSH2 0x72F JUMPI DUP1 PUSH1 0x1F LT PUSH2 0x704 JUMPI PUSH2 0x100 DUP1 DUP4 SLOAD DIV MUL DUP4 MSTORE SWAP2 PUSH1 0x20 ADD SWAP2 PUSH2 0x72F JUMP JUMPDEST PUSH1 0xA SLOAD PUSH1 0xB SLOAD SWAP1 SWAP2 JUMP JUMPDEST PUSH1 0x0 PUSH2 0xA1D PUSH2 0x154 PUSH2 0x25E3 JUMP JUMPDEST PUSH1 0x0 DUP1 PUSH2 0x104D CALLER DUP6 PUSH2 0x131F JUMP JUMPDEST SWAP1 POP DUP1 DUP4 LT PUSH2 0x1067 JUMPI PUSH2 0x1062 CALLER DUP6 PUSH1 0x0 PUSH2 0x18DC JUMP JUMPDEST PUSH2 0x1074 JUMP JUMPDEST PUSH2 0x1074 CALLER DUP6 DUP6 DUP5 SUB PUSH2 0x18DC JUMP JUMPDEST POP PUSH1 0x1 SWAP4 SWAP3 POP POP POP JUMP JUMPDEST PUSH1 0x0 PUSH2 0x746 CALLER DUP5 DUP5 PUSH2 0x1A48 JUMP JUMPDEST PUSH1 0x0 PUSH2 0x69D PUSH2 0x2636 JUMP JUMPDEST PUSH2 0x10A3 DUP5 TIMESTAMP GT ISZERO PUSH1 0xD1 PUSH2 0x15B6 JUMP JUMPDEST PUSH1 0x1 PUSH1 0x1 PUSH1 0xA0 SHL SUB DUP8 AND PUSH1 0x0 SWAP1 DUP2 MSTORE PUSH1 0x6 PUSH1 0x20 SWAP1 DUP2 MSTORE PUSH1 0x40 DUP1 DUP4 KECCAK256 SLOAD SWAP1 MLOAD SWAP1 SWAP3 SWAP2 PUSH2 0x10FA SWAP2 PUSH32 0x0 SWAP2 DUP13 SWAP2 DUP13 SWAP2 DUP13 SWAP2 DUP9 SWAP2 DUP14 SWAP2 ADD PUSH2 0x5170 JUMP JUMPDEST PUSH1 0x40 MLOAD PUSH1 0x20 DUP2 DUP4 SUB SUB DUP2 MSTORE SWAP1 PUSH1 0x40 MSTORE DUP1 MLOAD SWAP1 PUSH1 0x20 ADD KECCAK256 SWAP1 POP PUSH1 0x0 PUSH2 0x111D DUP3 PUSH2 0x26B0 JUMP JUMPDEST SWAP1 POP PUSH1 0x0 PUSH1 0x1 DUP3 DUP9 DUP9 DUP9 PUSH1 0x40 MLOAD PUSH1 0x0 DUP2 MSTORE PUSH1 0x20 ADD PUSH1 0x40 MSTORE PUSH1 0x40 MLOAD PUSH2 0x1144 SWAP5 SWAP4 SWAP3 SWAP2 SWAP1 PUSH2 0x5200 JUMP JUMPDEST PUSH1 0x20 PUSH1 0x40 MLOAD PUSH1 0x20 DUP2 SUB SWAP1 DUP1 DUP5 SUB SWAP1 DUP6 GAS STATICCALL ISZERO DUP1 ISZERO PUSH2 0x1166 JUMPI RETURNDATASIZE PUSH1 0x0 DUP1 RETURNDATACOPY RETURNDATASIZE PUSH1 0x0 REVERT JUMPDEST POP POP PUSH1 0x40 MLOAD PUSH1 0x1F NOT ADD MLOAD SWAP2 POP PUSH2 0x11A8 SWAP1 POP PUSH1 0x1 PUSH1 0x1 PUSH1 0xA0 SHL SUB DUP3 AND ISZERO DUP1 ISZERO SWAP1 PUSH2 0x11A0 JUMPI POP DUP12 PUSH1 0x1 PUSH1 0x1 PUSH1 0xA0 SHL SUB AND DUP3 PUSH1 0x1 PUSH1 0x1 PUSH1 0xA0 SHL SUB AND EQ JUMPDEST PUSH2 0x1F8 PUSH2 0x15B6 JUMP JUMPDEST PUSH1 0x1 PUSH1 0x1 PUSH1 0xA0 SHL SUB DUP12 AND PUSH1 0x0 SWAP1 DUP2 MSTORE PUSH1 0x6 PUSH1 0x20 MSTORE PUSH1 0x40 SWAP1 KECCAK256 PUSH1 0x1 DUP6 ADD SWAP1 SSTORE PUSH2 0x11D1 DUP12 DUP12 DUP12 PUSH2 0x18DC JUMP JUMPDEST POP POP POP POP POP POP POP POP POP POP POP JUMP JUMPDEST PUSH1 0x60 DUP1 DUP9 PUSH2 0x11ED PUSH2 0x607 PUSH2 0xFA4 JUMP JUMPDEST PUSH2 0x11F8 PUSH2 0x62D PUSH2 0xB8B JUMP JUMPDEST PUSH1 0x0 PUSH2 0x1202 PUSH2 0x1600 JUMP JUMPDEST SWAP1 POP PUSH2 0x120C PUSH2 0x764 JUMP JUMPDEST PUSH2 0x12BD JUMPI PUSH1 0x0 DUP1 PUSH2 0x1220 DUP14 DUP14 DUP14 DUP7 DUP12 PUSH2 0x26CC JUMP JUMPDEST SWAP2 POP SWAP2 POP PUSH2 0x1239 PUSH2 0x122F PUSH2 0x18D5 JUMP JUMPDEST DUP4 LT ISZERO PUSH1 0xCC PUSH2 0x15B6 JUMP JUMPDEST PUSH2 0x124B PUSH1 0x0 PUSH2 0x1246 PUSH2 0x18D5 JUMP JUMPDEST PUSH2 0x27B8 JUMP JUMPDEST PUSH2 0x125E DUP12 PUSH2 0x1257 PUSH2 0x18D5 JUMP JUMPDEST DUP5 SUB PUSH2 0x27B8 JUMP JUMPDEST PUSH2 0x1268 DUP2 DUP5 PUSH2 0x2582 JUMP JUMPDEST DUP1 PUSH2 0x1271 PUSH2 0x15C4 JUMP JUMPDEST PUSH1 0x1 PUSH1 0x1 PUSH1 0x40 SHL SUB DUP2 GT DUP1 ISZERO PUSH2 0x1286 JUMPI PUSH1 0x0 DUP1 REVERT JUMPDEST POP PUSH1 0x40 MLOAD SWAP1 DUP1 DUP3 MSTORE DUP1 PUSH1 0x20 MUL PUSH1 0x20 ADD DUP3 ADD PUSH1 0x40 MSTORE DUP1 ISZERO PUSH2 0x12B0 JUMPI DUP2 PUSH1 0x20 ADD PUSH1 0x20 DUP3 MUL DUP1 CALLDATASIZE DUP4 CALLDATACOPY ADD SWAP1 POP JUMPDEST POP SWAP6 POP SWAP6 POP POP POP POP PUSH2 0xE3B JUMP JUMPDEST PUSH2 0x12C7 DUP9 DUP3 PUSH2 0x2395 JUMP JUMPDEST PUSH1 0x0 DUP1 PUSH1 0x0 PUSH2 0x12DC DUP15 DUP15 DUP15 DUP15 DUP15 DUP15 DUP11 DUP16 PUSH2 0x253F JUMP JUMPDEST SWAP3 POP SWAP3 POP SWAP3 POP PUSH2 0x12EC DUP13 DUP5 PUSH2 0x27B8 JUMP JUMPDEST PUSH2 0x12F6 DUP3 DUP6 PUSH2 0x2582 JUMP JUMPDEST PUSH2 0x1300 DUP2 DUP6 PUSH2 0x21F1 JUMP JUMPDEST SWAP1 SWAP6 POP SWAP4 POP PUSH2 0xE3B SWAP2 POP POP JUMP JUMPDEST PUSH2 0x131D PUSH2 0x1318 PUSH2 0xFA4 JUMP JUMPDEST PUSH2 0x27C2 JUMP JUMPDEST JUMP JUMPDEST PUSH1 0x0 PUSH2 0x1329 PUSH2 0xFA4 JUMP JUMPDEST PUSH1 0x1 PUSH1 0x1 PUSH1 0xA0 SHL SUB AND DUP3 PUSH1 0x1 PUSH1 0x1 PUSH1 0xA0 SHL SUB AND EQ ISZERO PUSH2 0x134B JUMPI POP PUSH1 0x0 NOT PUSH2 0x74A JUMP JUMPDEST PUSH2 0x1355 DUP4 DUP4 PUSH2 0x28E9 JUMP JUMPDEST SWAP1 POP PUSH2 0x74A JUMP JUMPDEST PUSH1 0x0 DUP1 PUSH2 0x1367 PUSH2 0xFA4 JUMP JUMPDEST PUSH1 0x1 PUSH1 0x1 PUSH1 0xA0 SHL SUB AND PUSH4 0xF94D4668 PUSH2 0x137D PUSH2 0xB8B JUMP JUMPDEST PUSH1 0x40 MLOAD DUP3 PUSH4 0xFFFFFFFF AND PUSH1 0xE0 SHL DUP2 MSTORE PUSH1 0x4 ADD PUSH2 0x1399 SWAP2 SWAP1 PUSH2 0x5148 JUMP JUMPDEST PUSH1 0x0 PUSH1 0x40 MLOAD DUP1 DUP4 SUB DUP2 DUP7 DUP1 EXTCODESIZE ISZERO DUP1 ISZERO PUSH2 0x13B1 JUMPI PUSH1 0x0 DUP1 REVERT JUMPDEST POP GAS STATICCALL ISZERO DUP1 ISZERO PUSH2 0x13C5 JUMPI RETURNDATASIZE PUSH1 0x0 DUP1 RETURNDATACOPY RETURNDATASIZE PUSH1 0x0 REVERT JUMPDEST POP POP POP POP PUSH1 0x40 MLOAD RETURNDATASIZE PUSH1 0x0 DUP3 RETURNDATACOPY PUSH1 0x1F RETURNDATASIZE SWAP1 DUP2 ADD PUSH1 0x1F NOT AND DUP3 ADD PUSH1 0x40 MSTORE PUSH2 0x13ED SWAP2 SWAP1 DUP2 ADD SWAP1 PUSH2 0x4B9D JUMP JUMPDEST POP SWAP2 POP POP PUSH2 0x142D DUP2 PUSH32 0x0 DUP2 MLOAD DUP2 LT PUSH2 0x1420 JUMPI INVALID JUMPDEST PUSH1 0x20 MUL PUSH1 0x20 ADD ADD MLOAD PUSH2 0x2914 JUMP JUMPDEST SWAP2 POP POP SWAP1 JUMP JUMPDEST PUSH2 0x143B PUSH2 0x1937 JUMP JUMPDEST PUSH1 0x0 DUP1 PUSH2 0x1446 PUSH2 0x1E06 JUMP JUMPDEST SWAP2 POP SWAP2 POP PUSH2 0x1456 DUP2 PUSH2 0x140 PUSH2 0x15B6 JUMP JUMPDEST PUSH2 0xC04 DUP3 PUSH2 0x2934 JUMP JUMPDEST PUSH2 0x1467 PUSH2 0x1937 JUMP JUMPDEST PUSH1 0x0 PUSH2 0x1472 DUP4 PUSH2 0x1B28 JUMP JUMPDEST SWAP1 POP PUSH2 0x148B PUSH1 0x1 PUSH1 0x1 PUSH1 0xA0 SHL SUB DUP3 AND ISZERO ISZERO PUSH2 0x155 PUSH2 0x15B6 JUMP JUMPDEST PUSH2 0x1496 DUP4 DUP3 DUP5 PUSH2 0x1D27 JUMP JUMPDEST DUP1 PUSH1 0x1 PUSH1 0x1 PUSH1 0xA0 SHL SUB AND DUP4 PUSH1 0x1 PUSH1 0x1 PUSH1 0xA0 SHL SUB AND PUSH32 0xF00A2BF8C71DB611A21183E0A96869752BCD9DA29372FA76F865EED4FDD540D1 DUP5 PUSH1 0x40 MLOAD PUSH2 0x14D9 SWAP2 SWAP1 PUSH2 0x5148 JUMP JUMPDEST PUSH1 0x40 MLOAD DUP1 SWAP2 SUB SWAP1 LOG3 POP POP POP JUMP JUMPDEST DUP1 PUSH2 0xC04 DUP2 PUSH2 0x296F JUMP JUMPDEST PUSH1 0x0 DUP3 DUP3 MUL PUSH2 0xA1D DUP5 ISZERO DUP1 PUSH2 0x150D JUMPI POP DUP4 DUP6 DUP4 DUP2 PUSH2 0x150A JUMPI INVALID JUMPDEST DIV EQ JUMPDEST PUSH1 0x3 PUSH2 0x15B6 JUMP JUMPDEST PUSH2 0xA77 DUP3 DUP5 EQ DUP1 ISZERO PUSH2 0x1525 JUMPI POP DUP2 DUP4 EQ JUMPDEST PUSH1 0x67 PUSH2 0x15B6 JUMP JUMPDEST PUSH1 0x1 PUSH1 0x1 PUSH1 0x40 SHL SUB DUP2 SHL NOT SWAP3 SWAP1 SWAP3 AND SWAP2 SHL OR SWAP1 JUMP JUMPDEST PUSH1 0x0 PUSH2 0x1551 DUP4 DUP4 GT ISZERO PUSH1 0x1 PUSH2 0x15B6 JUMP JUMPDEST POP SWAP1 SUB SWAP1 JUMP JUMPDEST PUSH1 0x0 PUSH2 0x156B PUSH1 0x1 PUSH1 0x80 SHL DUP5 LT PUSH2 0x149 PUSH2 0x15B6 JUMP JUMPDEST PUSH2 0x1581 DUP3 TIMESTAMP ADD PUSH1 0x1 PUSH1 0x1 PUSH1 0x40 SHL SUB AND PUSH1 0xC0 PUSH2 0x15B2 JUMP JUMPDEST PUSH2 0x1595 DUP4 PUSH1 0x1 PUSH1 0x1 PUSH1 0x40 SHL SUB AND PUSH1 0x80 PUSH2 0x15B2 JUMP JUMPDEST PUSH2 0x15A9 DUP6 PUSH1 0x1 PUSH1 0x1 PUSH1 0x80 SHL SUB AND PUSH1 0x0 PUSH2 0x15B2 JUMP JUMPDEST OR OR SWAP4 SWAP3 POP POP POP JUMP JUMPDEST SHL SWAP1 JUMP JUMPDEST DUP2 PUSH2 0xC04 JUMPI PUSH2 0xC04 DUP2 PUSH2 0x25E3 JUMP JUMPDEST PUSH32 0x0 SWAP1 JUMP JUMPDEST PUSH2 0xA77 DUP2 DUP5 LT DUP1 ISZERO PUSH2 0x15F9 JUMPI POP DUP2 DUP4 LT JUMPDEST PUSH1 0x64 PUSH2 0x15B6 JUMP JUMPDEST PUSH1 0x60 PUSH1 0x0 PUSH2 0x160C PUSH2 0x15C4 JUMP JUMPDEST SWAP1 POP PUSH2 0x1616 PUSH2 0x29E8 JUMP JUMPDEST SWAP2 POP DUP1 ISZERO PUSH2 0x1687 JUMPI PUSH2 0x166D PUSH2 0x164A PUSH32 0x0 PUSH2 0xC08 JUMP JUMPDEST DUP4 PUSH1 0x0 DUP2 MLOAD DUP2 LT PUSH2 0x1657 JUMPI INVALID JUMPDEST PUSH1 0x20 MUL PUSH1 0x20 ADD ADD MLOAD PUSH2 0x2B0F SWAP1 SWAP2 SWAP1 PUSH4 0xFFFFFFFF AND JUMP JUMPDEST DUP3 PUSH1 0x0 DUP2 MLOAD DUP2 LT PUSH2 0x167A JUMPI INVALID JUMPDEST PUSH1 0x20 MUL PUSH1 0x20 ADD ADD DUP2 DUP2 MSTORE POP POP JUMPDEST PUSH1 0x1 DUP2 GT ISZERO PUSH2 0x16E3 JUMPI PUSH2 0x16C9 PUSH2 0x16BC PUSH32 0x0 PUSH2 0xC08 JUMP JUMPDEST DUP4 PUSH1 0x1 DUP2 MLOAD DUP2 LT PUSH2 0x1657 JUMPI INVALID JUMPDEST DUP3 PUSH1 0x1 DUP2 MLOAD DUP2 LT PUSH2 0x16D6 JUMPI INVALID JUMPDEST PUSH1 0x20 MUL PUSH1 0x20 ADD ADD DUP2 DUP2 MSTORE POP POP JUMPDEST PUSH1 0x2 DUP2 GT ISZERO PUSH2 0x173F JUMPI PUSH2 0x1725 PUSH2 0x1718 PUSH32 0x0 PUSH2 0xC08 JUMP JUMPDEST DUP4 PUSH1 0x2 DUP2 MLOAD DUP2 LT PUSH2 0x1657 JUMPI INVALID JUMPDEST DUP3 PUSH1 0x2 DUP2 MLOAD DUP2 LT PUSH2 0x1732 JUMPI INVALID JUMPDEST PUSH1 0x20 MUL PUSH1 0x20 ADD ADD DUP2 DUP2 MSTORE POP POP JUMPDEST PUSH1 0x3 DUP2 GT ISZERO PUSH2 0x179B JUMPI PUSH2 0x1781 PUSH2 0x1774 PUSH32 0x0 PUSH2 0xC08 JUMP JUMPDEST DUP4 PUSH1 0x3 DUP2 MLOAD DUP2 LT PUSH2 0x1657 JUMPI INVALID JUMPDEST DUP3 PUSH1 0x3 DUP2 MLOAD DUP2 LT PUSH2 0x178E JUMPI INVALID JUMPDEST PUSH1 0x20 MUL PUSH1 0x20 ADD ADD DUP2 DUP2 MSTORE POP POP JUMPDEST PUSH1 0x4 DUP2 GT ISZERO PUSH2 0x9AA JUMPI PUSH2 0x17DD PUSH2 0x17D0 PUSH32 0x0 PUSH2 0xC08 JUMP JUMPDEST DUP4 PUSH1 0x4 DUP2 MLOAD DUP2 LT PUSH2 0x1657 JUMPI INVALID JUMPDEST DUP3 PUSH1 0x4 DUP2 MLOAD DUP2 LT PUSH2 0x17EA JUMPI INVALID JUMPDEST PUSH1 0x20 MUL PUSH1 0x20 ADD ADD DUP2 DUP2 MSTORE POP POP POP SWAP1 JUMP JUMPDEST PUSH1 0x0 PUSH2 0x1806 DUP6 DUP4 PUSH2 0x2395 JUMP JUMPDEST PUSH2 0x1827 DUP7 PUSH1 0x60 ADD MLOAD DUP4 DUP6 DUP2 MLOAD DUP2 LT PUSH2 0x181A JUMPI INVALID JUMPDEST PUSH1 0x20 MUL PUSH1 0x20 ADD ADD MLOAD PUSH2 0x2B3B JUMP JUMPDEST PUSH1 0x60 DUP8 ADD MSTORE PUSH1 0x0 PUSH2 0x183A DUP8 DUP8 DUP8 DUP8 PUSH2 0x2B47 JUMP JUMPDEST SWAP1 POP PUSH2 0x1859 DUP2 DUP5 DUP8 DUP2 MLOAD DUP2 LT PUSH2 0x184C JUMPI INVALID JUMPDEST PUSH1 0x20 MUL PUSH1 0x20 ADD ADD MLOAD PUSH2 0x2D01 JUMP JUMPDEST SWAP1 POP PUSH2 0x1864 DUP2 PUSH2 0x2D0D JUMP JUMPDEST SWAP2 POP POP JUMPDEST SWAP6 SWAP5 POP POP POP POP POP JUMP JUMPDEST PUSH1 0x0 PUSH2 0x1880 DUP7 PUSH1 0x60 ADD MLOAD PUSH2 0x2D33 JUMP JUMPDEST PUSH1 0x60 DUP8 ADD MSTORE PUSH2 0x188F DUP6 DUP4 PUSH2 0x2395 JUMP JUMPDEST PUSH2 0x18A3 DUP7 PUSH1 0x60 ADD MLOAD DUP4 DUP7 DUP2 MLOAD DUP2 LT PUSH2 0x181A JUMPI INVALID JUMPDEST PUSH1 0x60 DUP8 ADD MSTORE PUSH1 0x0 PUSH2 0x18B6 DUP8 DUP8 DUP8 DUP8 PUSH2 0x2D54 JUMP JUMPDEST SWAP1 POP PUSH2 0x1864 DUP2 DUP5 DUP7 DUP2 MLOAD DUP2 LT PUSH2 0x18C8 JUMPI INVALID JUMPDEST PUSH1 0x20 MUL PUSH1 0x20 ADD ADD MLOAD PUSH2 0x2E7E JUMP JUMPDEST PUSH3 0xF4240 SWAP1 JUMP JUMPDEST PUSH1 0x1 PUSH1 0x1 PUSH1 0xA0 SHL SUB DUP1 DUP5 AND PUSH1 0x0 DUP2 DUP2 MSTORE PUSH1 0x1 PUSH1 0x20 SWAP1 DUP2 MSTORE PUSH1 0x40 DUP1 DUP4 KECCAK256 SWAP5 DUP8 AND DUP1 DUP5 MSTORE SWAP5 SWAP1 SWAP2 MSTORE SWAP1 DUP2 SWAP1 KECCAK256 DUP5 SWAP1 SSTORE MLOAD PUSH32 0x8C5BE1E5EBEC7D5BD14F71427D1E84F3DD0314C0F7B2291E5B200AC8C7C3B925 SWAP1 PUSH2 0x14D9 SWAP1 DUP6 SWAP1 PUSH2 0x5148 JUMP JUMPDEST PUSH1 0x0 PUSH2 0x194E PUSH1 0x0 CALLDATALOAD PUSH1 0x1 PUSH1 0x1 PUSH1 0xE0 SHL SUB NOT AND PUSH2 0xF02 JUMP JUMPDEST SWAP1 POP PUSH2 0x761 PUSH2 0x195D DUP3 CALLER PUSH2 0x2E8A JUMP JUMPDEST PUSH2 0x191 PUSH2 0x15B6 JUMP JUMPDEST DUP1 ISZERO PUSH2 0x1985 JUMPI PUSH2 0x1980 PUSH2 0x1976 PUSH2 0x1A00 JUMP JUMPDEST TIMESTAMP LT PUSH2 0x193 PUSH2 0x15B6 JUMP JUMPDEST PUSH2 0x199A JUMP JUMPDEST PUSH2 0x199A PUSH2 0x1990 PUSH2 0x1A24 JUMP JUMPDEST TIMESTAMP LT PUSH2 0x1A9 PUSH2 0x15B6 JUMP JUMPDEST PUSH1 0x7 DUP1 SLOAD PUSH1 0xFF NOT AND DUP3 ISZERO ISZERO OR SWAP1 SSTORE PUSH1 0x40 MLOAD PUSH32 0x9E3A5E37224532DEA67B89FACE185703738A228A6E8A23DEE546960180D3BE64 SWAP1 PUSH2 0x19D8 SWAP1 DUP4 SWAP1 PUSH2 0x5125 JUMP JUMPDEST PUSH1 0x40 MLOAD DUP1 SWAP2 SUB SWAP1 LOG1 POP JUMP JUMPDEST PUSH1 0x0 PUSH2 0x19ED PUSH2 0x1A24 JUMP JUMPDEST TIMESTAMP GT DUP1 PUSH2 0x69D JUMPI POP POP PUSH1 0x7 SLOAD PUSH1 0xFF AND ISZERO SWAP1 JUMP JUMPDEST PUSH32 0x0 SWAP1 JUMP JUMPDEST PUSH32 0x0 SWAP1 JUMP JUMPDEST PUSH2 0x1A5F PUSH1 0x1 PUSH1 0x1 PUSH1 0xA0 SHL SUB DUP5 AND ISZERO ISZERO PUSH2 0x198 PUSH2 0x15B6 JUMP JUMPDEST PUSH2 0x1A76 PUSH1 0x1 PUSH1 0x1 PUSH1 0xA0 SHL SUB DUP4 AND ISZERO ISZERO PUSH2 0x199 PUSH2 0x15B6 JUMP JUMPDEST PUSH2 0x1A81 DUP4 DUP4 DUP4 PUSH2 0xA77 JUMP JUMPDEST PUSH1 0x1 PUSH1 0x1 PUSH1 0xA0 SHL SUB DUP4 AND PUSH1 0x0 SWAP1 DUP2 MSTORE PUSH1 0x20 DUP2 SWAP1 MSTORE PUSH1 0x40 SWAP1 KECCAK256 SLOAD PUSH2 0x1AA7 SWAP1 DUP3 PUSH2 0x1A0 PUSH2 0x2F73 JUMP JUMPDEST PUSH1 0x1 PUSH1 0x1 PUSH1 0xA0 SHL SUB DUP1 DUP6 AND PUSH1 0x0 SWAP1 DUP2 MSTORE PUSH1 0x20 DUP2 SWAP1 MSTORE PUSH1 0x40 DUP1 DUP3 KECCAK256 SWAP4 SWAP1 SWAP4 SSTORE SWAP1 DUP5 AND DUP2 MSTORE KECCAK256 SLOAD PUSH2 0x1AD6 SWAP1 DUP3 PUSH2 0x2017 JUMP JUMPDEST PUSH1 0x1 PUSH1 0x1 PUSH1 0xA0 SHL SUB DUP1 DUP5 AND PUSH1 0x0 DUP2 DUP2 MSTORE PUSH1 0x20 DUP2 SWAP1 MSTORE PUSH1 0x40 SWAP1 DUP2 SWAP1 KECCAK256 SWAP4 SWAP1 SWAP4 SSTORE SWAP2 MLOAD SWAP1 DUP6 AND SWAP1 PUSH32 0xDDF252AD1BE2C89B69C2B068FC378DAA952BA7F163C4A11628F55A4DF523B3EF SWAP1 PUSH2 0x14D9 SWAP1 DUP6 SWAP1 PUSH2 0x5148 JUMP JUMPDEST PUSH1 0x0 PUSH32 0x0 PUSH1 0x1 PUSH1 0x1 PUSH1 0xA0 SHL SUB AND DUP3 PUSH1 0x1 PUSH1 0x1 PUSH1 0xA0 SHL SUB AND EQ ISZERO PUSH2 0x1B8B JUMPI POP PUSH32 0x0 PUSH2 0xC65 JUMP JUMPDEST PUSH32 0x0 PUSH1 0x1 PUSH1 0x1 PUSH1 0xA0 SHL SUB AND DUP3 PUSH1 0x1 PUSH1 0x1 PUSH1 0xA0 SHL SUB AND EQ ISZERO PUSH2 0x1BEC JUMPI POP PUSH32 0x0 PUSH2 0xC65 JUMP JUMPDEST PUSH32 0x0 PUSH1 0x1 PUSH1 0x1 PUSH1 0xA0 SHL SUB AND DUP3 PUSH1 0x1 PUSH1 0x1 PUSH1 0xA0 SHL SUB AND EQ ISZERO PUSH2 0x1C4D JUMPI POP PUSH32 0x0 PUSH2 0xC65 JUMP JUMPDEST PUSH32 0x0 PUSH1 0x1 PUSH1 0x1 PUSH1 0xA0 SHL SUB AND DUP3 PUSH1 0x1 PUSH1 0x1 PUSH1 0xA0 SHL SUB AND EQ ISZERO PUSH2 0x1CAE JUMPI POP PUSH32 0x0 PUSH2 0xC65 JUMP JUMPDEST PUSH32 0x0 PUSH1 0x1 PUSH1 0x1 PUSH1 0xA0 SHL SUB AND DUP3 PUSH1 0x1 PUSH1 0x1 PUSH1 0xA0 SHL SUB AND EQ ISZERO PUSH2 0x1D0F JUMPI POP PUSH32 0x0 PUSH2 0xC65 JUMP JUMPDEST PUSH2 0xC65 PUSH2 0x135 PUSH2 0x25E3 JUMP JUMPDEST PUSH1 0x0 PUSH2 0x74A DUP3 PUSH1 0x80 PUSH2 0x2134 JUMP JUMPDEST PUSH1 0x0 DUP3 PUSH1 0x1 PUSH1 0x1 PUSH1 0xA0 SHL SUB AND PUSH4 0x679AEFCE PUSH1 0x40 MLOAD DUP2 PUSH4 0xFFFFFFFF AND PUSH1 0xE0 SHL DUP2 MSTORE PUSH1 0x4 ADD PUSH1 0x20 PUSH1 0x40 MLOAD DUP1 DUP4 SUB DUP2 DUP7 DUP1 EXTCODESIZE ISZERO DUP1 ISZERO PUSH2 0x1D62 JUMPI PUSH1 0x0 DUP1 REVERT JUMPDEST POP GAS STATICCALL ISZERO DUP1 ISZERO PUSH2 0x1D76 JUMPI RETURNDATASIZE PUSH1 0x0 DUP1 RETURNDATACOPY RETURNDATASIZE PUSH1 0x0 REVERT JUMPDEST POP POP POP POP PUSH1 0x40 MLOAD RETURNDATASIZE PUSH1 0x1F NOT PUSH1 0x1F DUP3 ADD AND DUP3 ADD DUP1 PUSH1 0x40 MSTORE POP DUP2 ADD SWAP1 PUSH2 0x1D9A SWAP2 SWAP1 PUSH2 0x4F4B JUMP JUMPDEST SWAP1 POP PUSH1 0x0 PUSH2 0x1DA8 DUP3 DUP5 PUSH2 0x1557 JUMP JUMPDEST PUSH1 0x1 PUSH1 0x1 PUSH1 0xA0 SHL SUB DUP7 AND PUSH1 0x0 DUP2 DUP2 MSTORE PUSH1 0xE PUSH1 0x20 MSTORE PUSH1 0x40 SWAP1 DUP2 SWAP1 KECCAK256 DUP4 SWAP1 SSTORE MLOAD SWAP2 SWAP3 POP SWAP1 PUSH32 0xCFED57D90913B5EE1895919DCCCAFF83A9F7A842D912EF137272E5FC6123AA86 SWAP1 PUSH2 0x1DF7 SWAP1 DUP6 SWAP1 PUSH2 0x5148 JUMP JUMPDEST PUSH1 0x40 MLOAD DUP1 SWAP2 SUB SWAP1 LOG2 POP POP POP POP POP JUMP JUMPDEST PUSH1 0x0 DUP1 PUSH1 0x0 DUP1 PUSH1 0x0 DUP1 PUSH2 0x1E17 PUSH2 0x2F89 JUMP JUMPDEST SWAP4 POP SWAP4 POP SWAP4 POP SWAP4 POP DUP1 TIMESTAMP LT ISZERO PUSH2 0x1E6A JUMPI PUSH1 0x1 SWAP5 POP DUP4 DUP4 GT ISZERO PUSH2 0x1E4E JUMPI DUP2 DUP2 SUB DUP3 TIMESTAMP SUB DUP6 DUP6 SUB MUL DUP2 PUSH2 0x1E44 JUMPI INVALID JUMPDEST DIV DUP5 ADD SWAP6 POP PUSH2 0x1E65 JUMP JUMPDEST DUP2 DUP2 SUB DUP3 TIMESTAMP SUB DUP5 DUP7 SUB MUL DUP2 PUSH2 0x1E5F JUMPI INVALID JUMPDEST DIV DUP5 SUB SWAP6 POP JUMPDEST PUSH2 0x1E72 JUMP JUMPDEST PUSH1 0x0 SWAP5 POP DUP3 SWAP6 POP JUMPDEST POP POP POP POP SWAP1 SWAP2 JUMP JUMPDEST PUSH1 0x0 PUSH2 0x1E89 DUP3 ISZERO ISZERO PUSH1 0x4 PUSH2 0x15B6 JUMP JUMPDEST DUP3 PUSH2 0x1E96 JUMPI POP PUSH1 0x0 PUSH2 0x74A JUMP JUMPDEST DUP2 PUSH1 0x1 DUP5 SUB DUP2 PUSH2 0x1EA2 JUMPI INVALID JUMPDEST DIV PUSH1 0x1 ADD SWAP1 POP PUSH2 0x74A JUMP JUMPDEST PUSH2 0x1EB9 DUP5 DUP5 DUP5 DUP5 PUSH2 0x2FE0 JUMP JUMPDEST PUSH32 0x1835882EE7A34AC194F717A35E09BB1D24C82A3B9D854AB6C9749525B714CDF2 DUP5 DUP5 DUP5 DUP5 PUSH1 0x40 MLOAD PUSH2 0x1EEE SWAP5 SWAP4 SWAP3 SWAP2 SWAP1 PUSH2 0x5284 JUMP JUMPDEST PUSH1 0x40 MLOAD DUP1 SWAP2 SUB SWAP1 LOG1 POP POP POP POP JUMP JUMPDEST PUSH1 0x0 PUSH32 0x0 PUSH32 0x0 PUSH32 0x0 PUSH2 0x1F69 PUSH2 0x303C JUMP JUMPDEST ADDRESS PUSH1 0x40 MLOAD PUSH1 0x20 ADD PUSH2 0x1F7E SWAP6 SWAP5 SWAP4 SWAP3 SWAP2 SWAP1 PUSH2 0x51A4 JUMP JUMPDEST PUSH1 0x40 MLOAD PUSH1 0x20 DUP2 DUP4 SUB SUB DUP2 MSTORE SWAP1 PUSH1 0x40 MSTORE DUP1 MLOAD SWAP1 PUSH1 0x20 ADD KECCAK256 SWAP1 POP SWAP1 JUMP JUMPDEST PUSH2 0x131D PUSH2 0x1FA4 PUSH2 0x19E3 JUMP JUMPDEST PUSH2 0x192 PUSH2 0x15B6 JUMP JUMPDEST PUSH2 0x1FBF PUSH5 0xE8D4A51000 DUP3 LT ISZERO PUSH1 0xCB PUSH2 0x15B6 JUMP JUMPDEST PUSH2 0x1FD5 PUSH8 0x16345785D8A0000 DUP3 GT ISZERO PUSH1 0xCA PUSH2 0x15B6 JUMP JUMPDEST PUSH1 0x8 SLOAD PUSH2 0x1FE4 SWAP1 DUP3 PUSH1 0xC0 PUSH2 0x152C JUMP JUMPDEST PUSH1 0x8 SSTORE PUSH1 0x40 MLOAD PUSH32 0xA9BA3FFE0B6C366B81232CAAB38605A0699AD5398D6CCE76F91EE809E322DAFC SWAP1 PUSH2 0x19D8 SWAP1 DUP4 SWAP1 PUSH2 0x5148 JUMP JUMPDEST PUSH1 0x0 DUP3 DUP3 ADD PUSH2 0xA1D DUP5 DUP3 LT ISZERO DUP4 PUSH2 0x15B6 JUMP JUMPDEST PUSH1 0x0 PUSH2 0x2033 PUSH2 0xB8B JUMP JUMPDEST SWAP1 POP PUSH1 0x0 PUSH2 0x203F PUSH2 0xFA4 JUMP JUMPDEST PUSH1 0x1 PUSH1 0x1 PUSH1 0xA0 SHL SUB AND PUSH4 0xB05F8E48 DUP4 DUP7 PUSH1 0x40 MLOAD DUP4 PUSH4 0xFFFFFFFF AND PUSH1 0xE0 SHL DUP2 MSTORE PUSH1 0x4 ADD PUSH2 0x206C SWAP3 SWAP2 SWAP1 PUSH2 0x51E9 JUMP JUMPDEST PUSH1 0x80 PUSH1 0x40 MLOAD DUP1 DUP4 SUB DUP2 DUP7 DUP1 EXTCODESIZE ISZERO DUP1 ISZERO PUSH2 0x2084 JUMPI PUSH1 0x0 DUP1 REVERT JUMPDEST POP GAS STATICCALL ISZERO DUP1 ISZERO PUSH2 0x2098 JUMPI RETURNDATASIZE PUSH1 0x0 DUP1 RETURNDATACOPY RETURNDATASIZE PUSH1 0x0 REVERT JUMPDEST POP POP POP POP PUSH1 0x40 MLOAD RETURNDATASIZE PUSH1 0x1F NOT PUSH1 0x1F DUP3 ADD AND DUP3 ADD DUP1 PUSH1 0x40 MSTORE POP DUP2 ADD SWAP1 PUSH2 0x20BC SWAP2 SWAP1 PUSH2 0x4F84 JUMP JUMPDEST PUSH1 0x40 MLOAD PUSH4 0x639CDB5 PUSH1 0xE2 SHL DUP2 MSTORE SWAP1 SWAP5 POP PUSH1 0x1 PUSH1 0x1 PUSH1 0xA0 SHL SUB DUP6 AND SWAP4 POP PUSH4 0x18E736D4 SWAP3 POP PUSH2 0x20F0 SWAP2 POP DUP6 SWAP1 DUP8 SWAP1 PUSH1 0x4 ADD PUSH2 0x51D0 JUMP JUMPDEST PUSH1 0x0 PUSH1 0x40 MLOAD DUP1 DUP4 SUB DUP2 PUSH1 0x0 DUP8 DUP1 EXTCODESIZE ISZERO DUP1 ISZERO PUSH2 0x210A JUMPI PUSH1 0x0 DUP1 REVERT JUMPDEST POP GAS CALL ISZERO DUP1 ISZERO PUSH2 0x211E JUMPI RETURNDATASIZE PUSH1 0x0 DUP1 RETURNDATACOPY RETURNDATASIZE PUSH1 0x0 REVERT JUMPDEST POP POP POP POP POP POP POP POP JUMP JUMPDEST PUSH1 0x0 PUSH2 0x74A DUP3 DUP3 PUSH2 0x3040 JUMP JUMPDEST SHR PUSH1 0x1 PUSH1 0x1 PUSH1 0x40 SHL SUB AND SWAP1 JUMP JUMPDEST PUSH2 0xC04 DUP2 DUP4 EQ PUSH1 0x67 PUSH2 0x15B6 JUMP JUMPDEST PUSH1 0x0 PUSH1 0x60 DUP1 PUSH1 0x0 PUSH2 0x215E DUP6 PUSH2 0x304D JUMP JUMPDEST SWAP1 POP PUSH1 0x0 DUP2 DUP1 ISZERO PUSH2 0x216B JUMPI INVALID JUMPDEST EQ ISZERO PUSH2 0x21D7 JUMPI PUSH2 0x2179 PUSH2 0x3063 JUMP JUMPDEST PUSH2 0x2183 DUP10 DUP7 PUSH2 0x3077 JUMP JUMPDEST SWAP1 SWAP5 POP SWAP3 POP PUSH2 0x2190 PUSH2 0x15C4 JUMP JUMPDEST PUSH1 0x1 PUSH1 0x1 PUSH1 0x40 SHL SUB DUP2 GT DUP1 ISZERO PUSH2 0x21A5 JUMPI PUSH1 0x0 DUP1 REVERT JUMPDEST POP PUSH1 0x40 MLOAD SWAP1 DUP1 DUP3 MSTORE DUP1 PUSH1 0x20 MUL PUSH1 0x20 ADD DUP3 ADD PUSH1 0x40 MSTORE DUP1 ISZERO PUSH2 0x21CF JUMPI DUP2 PUSH1 0x20 ADD PUSH1 0x20 DUP3 MUL DUP1 CALLDATASIZE DUP4 CALLDATACOPY ADD SWAP1 POP JUMPDEST POP SWAP2 POP PUSH2 0x21E2 JUMP JUMPDEST PUSH2 0x21E2 PUSH2 0x154 PUSH2 0x25E3 JUMP JUMPDEST POP SWAP9 POP SWAP9 POP SWAP9 SWAP6 POP POP POP POP POP POP JUMP JUMPDEST PUSH1 0x0 JUMPDEST PUSH2 0x21FC PUSH2 0x15C4 JUMP JUMPDEST DUP2 LT ISZERO PUSH2 0xA77 JUMPI PUSH2 0x2233 DUP4 DUP3 DUP2 MLOAD DUP2 LT PUSH2 0x2212 JUMPI INVALID JUMPDEST PUSH1 0x20 MUL PUSH1 0x20 ADD ADD MLOAD DUP4 DUP4 DUP2 MLOAD DUP2 LT PUSH2 0x2226 JUMPI INVALID JUMPDEST PUSH1 0x20 MUL PUSH1 0x20 ADD ADD MLOAD PUSH2 0x30ED JUMP JUMPDEST DUP4 DUP3 DUP2 MLOAD DUP2 LT PUSH2 0x223F JUMPI INVALID JUMPDEST PUSH1 0x20 SWAP1 DUP2 MUL SWAP2 SWAP1 SWAP2 ADD ADD MSTORE PUSH1 0x1 ADD PUSH2 0x21F4 JUMP JUMPDEST CALLER ADDRESS EQ PUSH2 0x2310 JUMPI PUSH1 0x0 ADDRESS PUSH1 0x1 PUSH1 0x1 PUSH1 0xA0 SHL SUB AND PUSH1 0x0 CALLDATASIZE PUSH1 0x40 MLOAD PUSH2 0x2276 SWAP3 SWAP2 SWAP1 PUSH2 0x5061 JUMP JUMPDEST PUSH1 0x0 PUSH1 0x40 MLOAD DUP1 DUP4 SUB DUP2 PUSH1 0x0 DUP7 GAS CALL SWAP2 POP POP RETURNDATASIZE DUP1 PUSH1 0x0 DUP2 EQ PUSH2 0x22B3 JUMPI PUSH1 0x40 MLOAD SWAP2 POP PUSH1 0x1F NOT PUSH1 0x3F RETURNDATASIZE ADD AND DUP3 ADD PUSH1 0x40 MSTORE RETURNDATASIZE DUP3 MSTORE RETURNDATASIZE PUSH1 0x0 PUSH1 0x20 DUP5 ADD RETURNDATACOPY PUSH2 0x22B8 JUMP JUMPDEST PUSH1 0x60 SWAP2 POP JUMPDEST POP POP SWAP1 POP DUP1 PUSH1 0x0 DUP2 EQ PUSH2 0x22C7 JUMPI INVALID JUMPDEST PUSH1 0x4 PUSH1 0x0 DUP1 RETURNDATACOPY PUSH1 0x0 MLOAD PUSH1 0x1 PUSH1 0x1 PUSH1 0xE0 SHL SUB NOT AND PUSH4 0x43ADBAFB PUSH1 0xE0 SHL DUP2 EQ PUSH2 0x22F2 JUMPI RETURNDATASIZE PUSH1 0x0 DUP1 RETURNDATACOPY RETURNDATASIZE PUSH1 0x0 REVERT JUMPDEST POP PUSH1 0x20 PUSH1 0x4 PUSH1 0x0 RETURNDATACOPY PUSH1 0x40 PUSH1 0x20 MSTORE PUSH1 0x24 RETURNDATASIZE SUB PUSH1 0x24 PUSH1 0x40 RETURNDATACOPY PUSH1 0x1C RETURNDATASIZE ADD PUSH1 0x0 RETURN JUMPDEST PUSH1 0x0 PUSH2 0x231A PUSH2 0x1600 JUMP JUMPDEST SWAP1 POP PUSH2 0x2326 DUP8 DUP3 PUSH2 0x2395 JUMP JUMPDEST PUSH1 0x0 DUP1 PUSH2 0x233D DUP13 DUP13 DUP13 DUP13 DUP13 DUP13 DUP10 DUP14 DUP14 PUSH4 0xFFFFFFFF AND JUMP JUMPDEST POP SWAP2 POP SWAP2 POP PUSH2 0x2350 DUP2 DUP5 DUP7 PUSH4 0xFFFFFFFF AND JUMP JUMPDEST DUP1 MLOAD PUSH1 0x1F NOT DUP3 ADD DUP4 SWAP1 MSTORE PUSH4 0x43ADBAFB PUSH1 0x3F NOT DUP4 ADD MSTORE PUSH1 0x20 MUL PUSH1 0x23 NOT DUP3 ADD PUSH1 0x44 DUP3 ADD DUP2 REVERT JUMPDEST PUSH1 0x0 DUP1 PUSH2 0x2380 DUP4 PUSH2 0x313E JUMP JUMPDEST SWAP1 POP PUSH2 0xC61 PUSH2 0x238E DUP5 PUSH2 0xC08 JUMP JUMPDEST DUP3 SWAP1 PUSH2 0x2B0F JUMP JUMPDEST PUSH1 0x0 JUMPDEST PUSH2 0x23A0 PUSH2 0x15C4 JUMP JUMPDEST DUP2 LT ISZERO PUSH2 0xA77 JUMPI PUSH2 0x23D7 DUP4 DUP3 DUP2 MLOAD DUP2 LT PUSH2 0x23B6 JUMPI INVALID JUMPDEST PUSH1 0x20 MUL PUSH1 0x20 ADD ADD MLOAD DUP4 DUP4 DUP2 MLOAD DUP2 LT PUSH2 0x23CA JUMPI INVALID JUMPDEST PUSH1 0x20 MUL PUSH1 0x20 ADD ADD MLOAD PUSH2 0x2B0F JUMP JUMPDEST DUP4 DUP3 DUP2 MLOAD DUP2 LT PUSH2 0x23E3 JUMPI INVALID JUMPDEST PUSH1 0x20 SWAP1 DUP2 MUL SWAP2 SWAP1 SWAP2 ADD ADD MSTORE PUSH1 0x1 ADD PUSH2 0x2398 JUMP JUMPDEST PUSH1 0x0 PUSH1 0x60 PUSH1 0xC SLOAD DUP4 PUSH32 0x0 DUP2 MLOAD DUP2 LT PUSH2 0x2429 JUMPI INVALID JUMPDEST PUSH1 0x20 MUL PUSH1 0x20 ADD ADD MLOAD PUSH1 0x1 PUSH1 0x1 PUSH1 0x70 SHL SUB SUB ADD SWAP2 POP PUSH1 0x1 DUP4 MLOAD SUB PUSH1 0x1 PUSH1 0x1 PUSH1 0x40 SHL SUB DUP2 GT DUP1 ISZERO PUSH2 0x2457 JUMPI PUSH1 0x0 DUP1 REVERT JUMPDEST POP PUSH1 0x40 MLOAD SWAP1 DUP1 DUP3 MSTORE DUP1 PUSH1 0x20 MUL PUSH1 0x20 ADD DUP3 ADD PUSH1 0x40 MSTORE DUP1 ISZERO PUSH2 0x2481 JUMPI DUP2 PUSH1 0x20 ADD PUSH1 0x20 DUP3 MUL DUP1 CALLDATASIZE DUP4 CALLDATACOPY ADD SWAP1 POP JUMPDEST POP SWAP1 POP PUSH1 0x0 JUMPDEST DUP2 MLOAD DUP2 LT ISZERO PUSH2 0x24F4 JUMPI DUP4 PUSH32 0x0 DUP3 LT PUSH2 0x24C1 JUMPI DUP2 PUSH1 0x1 ADD PUSH2 0x24C3 JUMP JUMPDEST DUP2 JUMPDEST DUP2 MLOAD DUP2 LT PUSH2 0x24CD JUMPI INVALID JUMPDEST PUSH1 0x20 MUL PUSH1 0x20 ADD ADD MLOAD DUP3 DUP3 DUP2 MLOAD DUP2 LT PUSH2 0x24E1 JUMPI INVALID JUMPDEST PUSH1 0x20 SWAP1 DUP2 MUL SWAP2 SWAP1 SWAP2 ADD ADD MSTORE PUSH1 0x1 ADD PUSH2 0x2487 JUMP JUMPDEST POP SWAP2 POP SWAP2 JUMP JUMPDEST PUSH1 0x0 DUP1 PUSH2 0x2509 DUP5 DUP7 PUSH1 0x0 PUSH2 0x3239 JUMP JUMPDEST SWAP1 POP PUSH2 0x1868 DUP2 DUP5 PUSH2 0x30ED JUMP JUMPDEST PUSH2 0xC04 DUP3 DUP3 PUSH2 0x33CF JUMP JUMPDEST PUSH1 0x0 DUP1 PUSH2 0x252B DUP4 PUSH2 0x1D1A JUMP JUMPDEST SWAP2 POP PUSH2 0x2538 DUP4 PUSH1 0xC0 PUSH2 0x2134 JUMP JUMPDEST SWAP1 POP SWAP2 POP SWAP2 JUMP JUMPDEST PUSH1 0x0 PUSH1 0x60 DUP1 PUSH1 0x0 PUSH2 0x254F DUP6 PUSH2 0x348B JUMP JUMPDEST SWAP1 POP PUSH1 0x1 DUP2 PUSH1 0x1 DUP2 GT ISZERO PUSH2 0x255F JUMPI INVALID JUMPDEST EQ ISZERO PUSH2 0x21D7 JUMPI PUSH2 0x256D PUSH2 0x34A1 JUMP JUMPDEST SWAP4 POP SWAP4 POP SWAP4 POP POP SWAP9 POP SWAP9 POP SWAP9 SWAP6 POP POP POP POP POP POP JUMP JUMPDEST PUSH1 0x0 JUMPDEST PUSH2 0x258D PUSH2 0x15C4 JUMP JUMPDEST DUP2 LT ISZERO PUSH2 0xA77 JUMPI PUSH2 0x25C4 DUP4 DUP3 DUP2 MLOAD DUP2 LT PUSH2 0x25A3 JUMPI INVALID JUMPDEST PUSH1 0x20 MUL PUSH1 0x20 ADD ADD MLOAD DUP4 DUP4 DUP2 MLOAD DUP2 LT PUSH2 0x25B7 JUMPI INVALID JUMPDEST PUSH1 0x20 MUL PUSH1 0x20 ADD ADD MLOAD PUSH2 0x3583 JUMP JUMPDEST DUP4 DUP3 DUP2 MLOAD DUP2 LT PUSH2 0x25D0 JUMPI INVALID JUMPDEST PUSH1 0x20 SWAP1 DUP2 MUL SWAP2 SWAP1 SWAP2 ADD ADD MSTORE PUSH1 0x1 ADD PUSH2 0x2585 JUMP JUMPDEST PUSH3 0x461BCD PUSH1 0xE5 SHL PUSH1 0x0 SWAP1 DUP2 MSTORE PUSH1 0x20 PUSH1 0x4 MSTORE PUSH1 0x7 PUSH1 0x24 MSTORE PUSH7 0x42414C23000030 PUSH1 0xA DUP1 DUP5 DIV DUP2 DUP2 MOD PUSH1 0x30 SWAP1 DUP2 ADD PUSH1 0x8 SHL SWAP6 DUP4 SWAP1 MOD SWAP6 SWAP1 SWAP6 ADD SWAP1 DUP3 SWAP1 DIV SWAP2 DUP3 MOD SWAP1 SWAP5 ADD PUSH1 0x10 SHL SWAP4 SWAP1 SWAP4 ADD ADD PUSH1 0xC8 SHL PUSH1 0x44 MSTORE PUSH1 0x64 SWAP1 REVERT JUMPDEST PUSH1 0x0 PUSH2 0x2640 PUSH2 0xFA4 JUMP JUMPDEST PUSH1 0x1 PUSH1 0x1 PUSH1 0xA0 SHL SUB AND PUSH4 0xAAABADC5 PUSH1 0x40 MLOAD DUP2 PUSH4 0xFFFFFFFF AND PUSH1 0xE0 SHL DUP2 MSTORE PUSH1 0x4 ADD PUSH1 0x20 PUSH1 0x40 MLOAD DUP1 DUP4 SUB DUP2 DUP7 DUP1 EXTCODESIZE ISZERO DUP1 ISZERO PUSH2 0x2678 JUMPI PUSH1 0x0 DUP1 REVERT JUMPDEST POP GAS STATICCALL ISZERO DUP1 ISZERO PUSH2 0x268C JUMPI RETURNDATASIZE PUSH1 0x0 DUP1 RETURNDATACOPY RETURNDATASIZE PUSH1 0x0 REVERT JUMPDEST POP POP POP POP PUSH1 0x40 MLOAD RETURNDATASIZE PUSH1 0x1F NOT PUSH1 0x1F DUP3 ADD AND DUP3 ADD DUP1 PUSH1 0x40 MSTORE POP DUP2 ADD SWAP1 PUSH2 0x69D SWAP2 SWAP1 PUSH2 0x4D6A JUMP JUMPDEST PUSH1 0x0 PUSH2 0x26BA PUSH2 0x1EFC JUMP JUMPDEST DUP3 PUSH1 0x40 MLOAD PUSH1 0x20 ADD PUSH2 0xF37 SWAP3 SWAP2 SWAP1 PUSH2 0x5071 JUMP JUMPDEST PUSH1 0x0 PUSH1 0x60 PUSH2 0x26D8 PUSH2 0x1F99 JUMP JUMPDEST PUSH1 0x0 PUSH2 0x26E3 DUP5 PUSH2 0x348B JUMP JUMPDEST SWAP1 POP PUSH2 0x26FE PUSH1 0x0 DUP3 PUSH1 0x1 DUP2 GT ISZERO PUSH2 0x26F6 JUMPI INVALID JUMPDEST EQ PUSH1 0xCE PUSH2 0x15B6 JUMP JUMPDEST PUSH1 0x0 PUSH2 0x2709 DUP6 PUSH2 0x35D1 JUMP JUMPDEST SWAP1 POP PUSH2 0x2718 DUP2 MLOAD PUSH2 0xC8C PUSH2 0x15C4 JUMP JUMPDEST PUSH2 0x2722 DUP2 DUP8 PUSH2 0x2395 JUMP JUMPDEST PUSH1 0x0 PUSH2 0x272C PUSH2 0x1E06 JUMP JUMPDEST POP SWAP1 POP PUSH1 0x0 PUSH2 0x273A DUP4 PUSH2 0x23F6 JUMP JUMPDEST SWAP2 POP POP PUSH1 0x0 PUSH2 0x274B DUP4 DUP4 PUSH1 0x1 PUSH2 0x3239 JUMP JUMPDEST SWAP1 POP DUP1 PUSH1 0x0 PUSH2 0x2761 PUSH1 0x1 PUSH1 0x1 PUSH1 0x70 SHL SUB DUP4 PUSH2 0x1541 JUMP JUMPDEST SWAP1 POP PUSH2 0x276D DUP14 DUP3 PUSH2 0x27B8 JUMP JUMPDEST DUP1 DUP7 PUSH32 0x0 DUP2 MLOAD DUP2 LT PUSH2 0x279A JUMPI INVALID JUMPDEST PUSH1 0x20 SWAP1 DUP2 MUL SWAP2 SWAP1 SWAP2 ADD ADD MSTORE POP SWAP13 SWAP4 SWAP12 POP SWAP3 SWAP10 POP POP POP POP POP POP POP POP POP POP JUMP JUMPDEST PUSH2 0xC04 DUP3 DUP3 PUSH2 0x35E7 JUMP JUMPDEST PUSH1 0x0 DUP2 PUSH1 0x1 PUSH1 0x1 PUSH1 0xA0 SHL SUB AND PUSH4 0xD2946C2B PUSH1 0x40 MLOAD DUP2 PUSH4 0xFFFFFFFF AND PUSH1 0xE0 SHL DUP2 MSTORE PUSH1 0x4 ADD PUSH1 0x20 PUSH1 0x40 MLOAD DUP1 DUP4 SUB DUP2 DUP7 DUP1 EXTCODESIZE ISZERO DUP1 ISZERO PUSH2 0x27FD JUMPI PUSH1 0x0 DUP1 REVERT JUMPDEST POP GAS STATICCALL ISZERO DUP1 ISZERO PUSH2 0x2811 JUMPI RETURNDATASIZE PUSH1 0x0 DUP1 RETURNDATACOPY RETURNDATASIZE PUSH1 0x0 REVERT JUMPDEST POP POP POP POP PUSH1 0x40 MLOAD RETURNDATASIZE PUSH1 0x1F NOT PUSH1 0x1F DUP3 ADD AND DUP3 ADD DUP1 PUSH1 0x40 MSTORE POP DUP2 ADD SWAP1 PUSH2 0x2835 SWAP2 SWAP1 PUSH2 0x4D6A JUMP JUMPDEST PUSH1 0x1 PUSH1 0x1 PUSH1 0xA0 SHL SUB AND PUSH4 0x55C67628 PUSH1 0x40 MLOAD DUP2 PUSH4 0xFFFFFFFF AND PUSH1 0xE0 SHL DUP2 MSTORE PUSH1 0x4 ADD PUSH1 0x20 PUSH1 0x40 MLOAD DUP1 DUP4 SUB DUP2 DUP7 DUP1 EXTCODESIZE ISZERO DUP1 ISZERO PUSH2 0x286D JUMPI PUSH1 0x0 DUP1 REVERT JUMPDEST POP GAS STATICCALL ISZERO DUP1 ISZERO PUSH2 0x2881 JUMPI RETURNDATASIZE PUSH1 0x0 DUP1 RETURNDATACOPY RETURNDATASIZE PUSH1 0x0 REVERT JUMPDEST POP POP POP POP PUSH1 0x40 MLOAD RETURNDATASIZE PUSH1 0x1F NOT PUSH1 0x1F DUP3 ADD AND DUP3 ADD DUP1 PUSH1 0x40 MSTORE POP DUP2 ADD SWAP1 PUSH2 0x28A5 SWAP2 SWAP1 PUSH2 0x4F4B JUMP JUMPDEST SWAP1 POP DUP1 PUSH1 0xD DUP2 SWAP1 SSTORE POP PUSH32 0x6E4E298B4A98488A054248CFB63661894B93FB9FD398CC9ECA58E39215954EB7 DUP2 PUSH1 0x40 MLOAD PUSH2 0x28DD SWAP2 SWAP1 PUSH2 0x5148 JUMP JUMPDEST PUSH1 0x40 MLOAD DUP1 SWAP2 SUB SWAP1 LOG1 POP POP JUMP JUMPDEST PUSH1 0x1 PUSH1 0x1 PUSH1 0xA0 SHL SUB SWAP2 DUP3 AND PUSH1 0x0 SWAP1 DUP2 MSTORE PUSH1 0x1 PUSH1 0x20 SWAP1 DUP2 MSTORE PUSH1 0x40 DUP1 DUP4 KECCAK256 SWAP4 SWAP1 SWAP5 AND DUP3 MSTORE SWAP2 SWAP1 SWAP2 MSTORE KECCAK256 SLOAD SWAP1 JUMP JUMPDEST PUSH1 0x0 PUSH2 0x74A PUSH1 0xC SLOAD PUSH2 0x292E DUP5 PUSH2 0x2928 PUSH2 0x764 JUMP JUMPDEST SWAP1 PUSH2 0x1541 JUMP JUMPDEST SWAP1 PUSH2 0x2017 JUMP JUMPDEST PUSH2 0x2940 DUP2 DUP3 TIMESTAMP TIMESTAMP PUSH2 0x2FE0 JUMP JUMPDEST PUSH32 0xA0D01593E47E69D07E0CCD87BECE09411E07DD1ED40CA8F2E7AF2976542A0233 DUP2 PUSH1 0x40 MLOAD PUSH2 0x19D8 SWAP2 SWAP1 PUSH2 0x5148 JUMP JUMPDEST PUSH1 0x2 DUP2 MLOAD LT ISZERO PUSH2 0x297E JUMPI PUSH2 0x761 JUMP JUMPDEST PUSH1 0x0 DUP2 PUSH1 0x0 DUP2 MLOAD DUP2 LT PUSH2 0x298D JUMPI INVALID JUMPDEST PUSH1 0x20 MUL PUSH1 0x20 ADD ADD MLOAD SWAP1 POP PUSH1 0x0 PUSH1 0x1 SWAP1 POP JUMPDEST DUP3 MLOAD DUP2 LT ISZERO PUSH2 0xA77 JUMPI PUSH1 0x0 DUP4 DUP3 DUP2 MLOAD DUP2 LT PUSH2 0x29B5 JUMPI INVALID JUMPDEST PUSH1 0x20 MUL PUSH1 0x20 ADD ADD MLOAD SWAP1 POP PUSH2 0x29DE DUP2 PUSH1 0x1 PUSH1 0x1 PUSH1 0xA0 SHL SUB AND DUP5 PUSH1 0x1 PUSH1 0x1 PUSH1 0xA0 SHL SUB AND LT PUSH1 0x65 PUSH2 0x15B6 JUMP JUMPDEST SWAP2 POP PUSH1 0x1 ADD PUSH2 0x299E JUMP JUMPDEST PUSH1 0x60 PUSH1 0x0 PUSH2 0x29F4 PUSH2 0x15C4 JUMP JUMPDEST SWAP1 POP PUSH1 0x0 DUP2 PUSH1 0x1 PUSH1 0x1 PUSH1 0x40 SHL SUB DUP2 GT DUP1 ISZERO PUSH2 0x2A0E JUMPI PUSH1 0x0 DUP1 REVERT JUMPDEST POP PUSH1 0x40 MLOAD SWAP1 DUP1 DUP3 MSTORE DUP1 PUSH1 0x20 MUL PUSH1 0x20 ADD DUP3 ADD PUSH1 0x40 MSTORE DUP1 ISZERO PUSH2 0x2A38 JUMPI DUP2 PUSH1 0x20 ADD PUSH1 0x20 DUP3 MUL DUP1 CALLDATASIZE DUP4 CALLDATACOPY ADD SWAP1 POP JUMPDEST POP SWAP1 POP PUSH2 0x2A43 PUSH2 0x3675 JUMP JUMPDEST DUP2 PUSH1 0x0 DUP2 MLOAD DUP2 LT PUSH2 0x2A50 JUMPI INVALID JUMPDEST PUSH1 0x20 MUL PUSH1 0x20 ADD ADD DUP2 DUP2 MSTORE POP POP PUSH2 0x2A64 PUSH2 0x3699 JUMP JUMPDEST DUP2 PUSH1 0x1 DUP2 MLOAD DUP2 LT PUSH2 0x2A71 JUMPI INVALID JUMPDEST PUSH1 0x20 MUL PUSH1 0x20 ADD ADD DUP2 DUP2 MSTORE POP POP PUSH1 0x2 DUP3 GT ISZERO PUSH2 0x2AAC JUMPI PUSH2 0x2A8E PUSH2 0x36BD JUMP JUMPDEST DUP2 PUSH1 0x2 DUP2 MLOAD DUP2 LT PUSH2 0x2A9B JUMPI INVALID JUMPDEST PUSH1 0x20 MUL PUSH1 0x20 ADD ADD DUP2 DUP2 MSTORE POP POP PUSH2 0x2AB5 JUMP JUMPDEST SWAP2 POP PUSH2 0x6A0 SWAP1 POP JUMP JUMPDEST PUSH1 0x3 DUP3 GT ISZERO PUSH2 0x2AAC JUMPI PUSH2 0x2AC6 PUSH2 0x36E1 JUMP JUMPDEST DUP2 PUSH1 0x3 DUP2 MLOAD DUP2 LT PUSH2 0x2AD3 JUMPI INVALID JUMPDEST PUSH1 0x20 MUL PUSH1 0x20 ADD ADD DUP2 DUP2 MSTORE POP POP PUSH1 0x4 DUP3 GT ISZERO PUSH2 0x2AAC JUMPI PUSH2 0x2AF0 PUSH2 0x3705 JUMP JUMPDEST DUP2 PUSH1 0x4 DUP2 MLOAD DUP2 LT PUSH2 0x2AFD JUMPI INVALID JUMPDEST PUSH1 0x20 MUL PUSH1 0x20 ADD ADD DUP2 DUP2 MSTORE POP POP SWAP2 POP POP SWAP1 JUMP JUMPDEST PUSH1 0x0 DUP3 DUP3 MUL PUSH2 0x2B29 DUP5 ISZERO DUP1 PUSH2 0x150D JUMPI POP DUP4 DUP6 DUP4 DUP2 PUSH2 0x150A JUMPI INVALID JUMPDEST PUSH8 0xDE0B6B3A7640000 SWAP1 DIV SWAP4 SWAP3 POP POP POP JUMP JUMPDEST PUSH1 0x0 PUSH2 0xA1D DUP4 DUP4 PUSH2 0x2B0F JUMP JUMPDEST PUSH1 0x0 PUSH2 0x2B51 PUSH2 0x1F99 JUMP JUMPDEST PUSH2 0x2B59 PUSH2 0x3729 JUMP JUMPDEST PUSH1 0xD SLOAD PUSH1 0x0 DUP1 PUSH2 0x2B68 DUP8 PUSH2 0x23F6 JUMP JUMPDEST PUSH1 0x20 DUP11 ADD MLOAD SWAP2 SWAP4 POP SWAP2 POP PUSH1 0x1 PUSH1 0x1 PUSH1 0xA0 SHL SUB AND ADDRESS EQ ISZERO PUSH2 0x2BB1 JUMPI PUSH2 0x2B9A DUP9 PUSH1 0x60 ADD MLOAD PUSH2 0x2B93 DUP8 PUSH2 0x383C JUMP JUMPDEST DUP5 DUP5 PUSH2 0x3875 JUMP JUMPDEST SWAP4 POP DUP3 ISZERO PUSH2 0x2BAC JUMPI PUSH2 0x2BAC DUP5 DUP5 PUSH2 0x38F9 JUMP JUMPDEST PUSH2 0x2CF6 JUMP JUMPDEST PUSH1 0x40 DUP9 ADD MLOAD PUSH1 0x1 PUSH1 0x1 PUSH1 0xA0 SHL SUB AND ADDRESS EQ ISZERO PUSH2 0x2BF4 JUMPI PUSH2 0x2BDE DUP9 PUSH1 0x60 ADD MLOAD PUSH2 0x2BD7 DUP9 PUSH2 0x383C JUMP JUMPDEST DUP5 DUP5 PUSH2 0x3959 JUMP JUMPDEST SWAP4 POP DUP3 ISZERO PUSH2 0x2BAC JUMPI PUSH2 0x2BAC DUP9 PUSH1 0x60 ADD MLOAD DUP5 PUSH2 0x38F9 JUMP JUMPDEST PUSH1 0x0 PUSH2 0x2BFE PUSH2 0x1E06 JUMP JUMPDEST POP SWAP1 POP PUSH1 0x0 PUSH2 0x2C0F DUP3 DUP5 PUSH1 0x1 PUSH2 0x3239 JUMP JUMPDEST SWAP1 POP PUSH2 0x2C33 DUP3 DUP5 PUSH2 0x2C1F DUP12 PUSH2 0x383C JUMP JUMPDEST PUSH2 0x2C28 DUP12 PUSH2 0x383C JUMP JUMPDEST DUP15 PUSH1 0x60 ADD MLOAD DUP7 PUSH2 0x3980 JUMP JUMPDEST SWAP6 POP DUP5 ISZERO PUSH2 0x2CF3 JUMPI PUSH1 0x0 PUSH2 0x2C46 DUP10 PUSH2 0x383C JUMP JUMPDEST SWAP1 POP PUSH1 0x0 PUSH2 0x2C53 DUP10 PUSH2 0x383C JUMP JUMPDEST SWAP1 POP PUSH1 0x0 PUSH2 0x2C60 DUP10 PUSH2 0x2D0D JUMP JUMPDEST SWAP1 POP PUSH2 0x2C88 DUP2 DUP8 DUP6 DUP2 MLOAD DUP2 LT PUSH2 0x2C72 JUMPI INVALID JUMPDEST PUSH1 0x20 MUL PUSH1 0x20 ADD ADD MLOAD PUSH2 0x2017 SWAP1 SWAP2 SWAP1 PUSH4 0xFFFFFFFF AND JUMP JUMPDEST DUP7 DUP5 DUP2 MLOAD DUP2 LT PUSH2 0x2C94 JUMPI INVALID JUMPDEST PUSH1 0x20 MUL PUSH1 0x20 ADD ADD DUP2 DUP2 MSTORE POP POP PUSH2 0x2CCA DUP14 PUSH1 0x60 ADD MLOAD DUP8 DUP5 DUP2 MLOAD DUP2 LT PUSH2 0x2CB4 JUMPI INVALID JUMPDEST PUSH1 0x20 MUL PUSH1 0x20 ADD ADD MLOAD PUSH2 0x1541 SWAP1 SWAP2 SWAP1 PUSH4 0xFFFFFFFF AND JUMP JUMPDEST DUP7 DUP4 DUP2 MLOAD DUP2 LT PUSH2 0x2CD6 JUMPI INVALID JUMPDEST PUSH1 0x20 MUL PUSH1 0x20 ADD ADD DUP2 DUP2 MSTORE POP POP PUSH2 0x2CEF DUP5 DUP7 DUP9 DUP11 DUP13 PUSH2 0x3A1F JUMP JUMPDEST POP POP POP JUMPDEST POP POP JUMPDEST POP POP POP SWAP5 SWAP4 POP POP POP POP JUMP JUMPDEST PUSH1 0x0 PUSH2 0xA1D DUP4 DUP4 PUSH2 0x3583 JUMP JUMPDEST PUSH1 0x0 PUSH2 0x74A PUSH2 0x2D2C PUSH2 0x2D1D PUSH2 0xC6A JUMP JUMPDEST PUSH8 0xDE0B6B3A7640000 SWAP1 PUSH2 0x1541 JUMP JUMPDEST DUP4 SWAP1 PUSH2 0x3583 JUMP JUMPDEST PUSH1 0x0 DUP1 PUSH2 0x2D48 PUSH2 0x2D41 PUSH2 0xC6A JUMP JUMPDEST DUP5 SWAP1 PUSH2 0x3ACA JUMP JUMPDEST SWAP1 POP PUSH2 0xC61 DUP4 DUP3 PUSH2 0x1541 JUMP JUMPDEST PUSH1 0x0 PUSH2 0x2D5E PUSH2 0x1F99 JUMP JUMPDEST PUSH2 0x2D66 PUSH2 0x3729 JUMP JUMPDEST PUSH1 0xD SLOAD PUSH1 0x0 DUP1 PUSH2 0x2D75 DUP8 PUSH2 0x23F6 JUMP JUMPDEST PUSH1 0x20 DUP11 ADD MLOAD SWAP2 SWAP4 POP SWAP2 POP PUSH1 0x1 PUSH1 0x1 PUSH1 0xA0 SHL SUB AND ADDRESS EQ ISZERO PUSH2 0x2DA7 JUMPI PUSH2 0x2BDE DUP9 PUSH1 0x60 ADD MLOAD PUSH2 0x2DA0 DUP8 PUSH2 0x383C JUMP JUMPDEST DUP5 DUP5 PUSH2 0x3B0D JUMP JUMPDEST PUSH1 0x40 DUP9 ADD MLOAD PUSH1 0x1 PUSH1 0x1 PUSH1 0xA0 SHL SUB AND ADDRESS EQ ISZERO PUSH2 0x2DD4 JUMPI PUSH2 0x2B9A DUP9 PUSH1 0x60 ADD MLOAD PUSH2 0x2DCD DUP9 PUSH2 0x383C JUMP JUMPDEST DUP5 DUP5 PUSH2 0x3B2A JUMP JUMPDEST PUSH1 0x0 PUSH2 0x2DDE PUSH2 0x1E06 JUMP JUMPDEST POP SWAP1 POP PUSH1 0x0 PUSH2 0x2DEF DUP3 DUP5 PUSH1 0x1 PUSH2 0x3239 JUMP JUMPDEST SWAP1 POP PUSH2 0x2E13 DUP3 DUP5 PUSH2 0x2DFF DUP12 PUSH2 0x383C JUMP JUMPDEST PUSH2 0x2E08 DUP12 PUSH2 0x383C JUMP JUMPDEST DUP15 PUSH1 0x60 ADD MLOAD DUP7 PUSH2 0x3BAE JUMP JUMPDEST SWAP6 POP DUP5 ISZERO PUSH2 0x2CF3 JUMPI PUSH1 0x0 PUSH2 0x2E26 DUP10 PUSH2 0x383C JUMP JUMPDEST SWAP1 POP PUSH1 0x0 PUSH2 0x2E33 DUP10 PUSH2 0x383C JUMP JUMPDEST SWAP1 POP PUSH1 0x0 PUSH2 0x2E44 DUP14 PUSH1 0x60 ADD MLOAD PUSH2 0x2D0D JUMP JUMPDEST SWAP1 POP PUSH2 0x2E56 DUP2 DUP8 DUP6 DUP2 MLOAD DUP2 LT PUSH2 0x2C72 JUMPI INVALID JUMPDEST DUP7 DUP5 DUP2 MLOAD DUP2 LT PUSH2 0x2E62 JUMPI INVALID JUMPDEST PUSH1 0x20 MUL PUSH1 0x20 ADD ADD DUP2 DUP2 MSTORE POP POP PUSH2 0x2CCA DUP10 DUP8 DUP5 DUP2 MLOAD DUP2 LT PUSH2 0x2CB4 JUMPI INVALID JUMPDEST PUSH1 0x0 PUSH2 0xA1D DUP4 DUP4 PUSH2 0x30ED JUMP JUMPDEST PUSH1 0x0 PUSH20 0xBA1BA1BA1BA1BA1BA1BA1BA1BA1BA1BA1BA1BA1B PUSH2 0x2EA9 PUSH2 0xF7A JUMP JUMPDEST PUSH1 0x1 PUSH1 0x1 PUSH1 0xA0 SHL SUB AND EQ ISZERO DUP1 ISZERO PUSH2 0x2EC4 JUMPI POP PUSH2 0x2EC4 DUP4 PUSH2 0x3C2B JUMP JUMPDEST ISZERO PUSH2 0x2EEC JUMPI PUSH2 0x2ED1 PUSH2 0xF7A JUMP JUMPDEST PUSH1 0x1 PUSH1 0x1 PUSH1 0xA0 SHL SUB AND CALLER PUSH1 0x1 PUSH1 0x1 PUSH1 0xA0 SHL SUB AND EQ SWAP1 POP PUSH2 0x74A JUMP JUMPDEST PUSH2 0x2EF4 PUSH2 0x2636 JUMP JUMPDEST PUSH1 0x1 PUSH1 0x1 PUSH1 0xA0 SHL SUB AND PUSH4 0x9BE2A884 DUP5 DUP5 ADDRESS PUSH1 0x40 MLOAD DUP5 PUSH4 0xFFFFFFFF AND PUSH1 0xE0 SHL DUP2 MSTORE PUSH1 0x4 ADD PUSH2 0x2F23 SWAP4 SWAP3 SWAP2 SWAP1 PUSH2 0x5151 JUMP JUMPDEST PUSH1 0x20 PUSH1 0x40 MLOAD DUP1 DUP4 SUB DUP2 DUP7 DUP1 EXTCODESIZE ISZERO DUP1 ISZERO PUSH2 0x2F3B JUMPI PUSH1 0x0 DUP1 REVERT JUMPDEST POP GAS STATICCALL ISZERO DUP1 ISZERO PUSH2 0x2F4F JUMPI RETURNDATASIZE PUSH1 0x0 DUP1 RETURNDATACOPY RETURNDATASIZE PUSH1 0x0 REVERT JUMPDEST POP POP POP POP PUSH1 0x40 MLOAD RETURNDATASIZE PUSH1 0x1F NOT PUSH1 0x1F DUP3 ADD AND DUP3 ADD DUP1 PUSH1 0x40 MSTORE POP DUP2 ADD SWAP1 PUSH2 0x1355 SWAP2 SWAP1 PUSH2 0x4C84 JUMP JUMPDEST PUSH1 0x0 PUSH2 0x2F82 DUP5 DUP5 GT ISZERO DUP4 PUSH2 0x15B6 JUMP JUMPDEST POP POP SWAP1 SUB SWAP1 JUMP JUMPDEST PUSH1 0x0 DUP1 PUSH1 0x0 DUP1 PUSH2 0x2FA5 PUSH1 0x0 PUSH1 0x9 SLOAD PUSH2 0x2134 SWAP1 SWAP2 SWAP1 PUSH4 0xFFFFFFFF AND JUMP JUMPDEST PUSH1 0x9 SLOAD SWAP1 SWAP5 POP PUSH2 0x2FB6 SWAP1 PUSH1 0x40 PUSH2 0x2134 JUMP JUMPDEST PUSH1 0x9 SLOAD SWAP1 SWAP4 POP PUSH2 0x2FC7 SWAP1 PUSH1 0x80 PUSH2 0x2134 JUMP JUMPDEST PUSH1 0x9 SLOAD SWAP1 SWAP3 POP PUSH2 0x2FD8 SWAP1 PUSH1 0xC0 PUSH2 0x2134 JUMP JUMPDEST SWAP1 POP SWAP1 SWAP2 SWAP3 SWAP4 JUMP JUMPDEST PUSH2 0x2FF4 DUP2 PUSH1 0x1 PUSH1 0x1 PUSH1 0x40 SHL SUB AND PUSH1 0xC0 PUSH2 0x15B2 JUMP JUMPDEST PUSH2 0x3008 DUP4 PUSH1 0x1 PUSH1 0x1 PUSH1 0x40 SHL SUB AND PUSH1 0x80 PUSH2 0x15B2 JUMP JUMPDEST PUSH2 0x301C DUP6 PUSH1 0x1 PUSH1 0x1 PUSH1 0x40 SHL SUB AND PUSH1 0x40 PUSH2 0x15B2 JUMP JUMPDEST PUSH2 0x3030 DUP8 PUSH1 0x1 PUSH1 0x1 PUSH1 0x40 SHL SUB AND PUSH1 0x0 PUSH2 0x15B2 JUMP JUMPDEST OR OR OR PUSH1 0x9 SSTORE POP POP POP POP JUMP JUMPDEST CHAINID SWAP1 JUMP JUMPDEST SHR PUSH1 0x1 PUSH1 0x1 PUSH1 0x80 SHL SUB AND SWAP1 JUMP JUMPDEST PUSH1 0x0 DUP2 DUP1 PUSH1 0x20 ADD SWAP1 MLOAD DUP2 ADD SWAP1 PUSH2 0x74A SWAP2 SWAP1 PUSH2 0x4DD3 JUMP JUMPDEST PUSH2 0x131D PUSH2 0x306E PUSH2 0x19E3 JUMP JUMPDEST ISZERO PUSH2 0x1AF PUSH2 0x15B6 JUMP JUMPDEST PUSH1 0x0 PUSH1 0x60 PUSH1 0x0 PUSH2 0x3086 DUP6 PUSH2 0x23F6 JUMP JUMPDEST SWAP2 POP POP PUSH1 0x0 PUSH2 0x3094 DUP6 PUSH2 0x3C4E JUMP JUMPDEST SWAP1 POP PUSH1 0x0 PUSH2 0x30D1 DUP4 DUP4 PUSH2 0x30CC DUP11 PUSH32 0x0 DUP2 MLOAD DUP2 LT PUSH2 0x1420 JUMPI INVALID JUMPDEST PUSH2 0x3C64 JUMP JUMPDEST SWAP1 POP DUP2 PUSH2 0x30DF DUP3 PUSH1 0x0 PUSH2 0x3CFF JUMP JUMPDEST SWAP5 POP SWAP5 POP POP POP POP SWAP3 POP SWAP3 SWAP1 POP JUMP JUMPDEST PUSH1 0x0 PUSH2 0x30FC DUP3 ISZERO ISZERO PUSH1 0x4 PUSH2 0x15B6 JUMP JUMPDEST DUP3 PUSH2 0x3109 JUMPI POP PUSH1 0x0 PUSH2 0x74A JUMP JUMPDEST PUSH8 0xDE0B6B3A7640000 DUP4 DUP2 MUL SWAP1 PUSH2 0x312C SWAP1 DUP6 DUP4 DUP2 PUSH2 0x3123 JUMPI INVALID JUMPDEST DIV EQ PUSH1 0x5 PUSH2 0x15B6 JUMP JUMPDEST DUP3 DUP2 DUP2 PUSH2 0x3135 JUMPI INVALID JUMPDEST DIV SWAP2 POP POP PUSH2 0x74A JUMP JUMPDEST PUSH1 0x0 PUSH2 0x3149 DUP3 PUSH2 0x3DE6 JUMP JUMPDEST ISZERO PUSH2 0x315D JUMPI PUSH2 0x3156 PUSH2 0x3675 JUMP JUMPDEST SWAP1 POP PUSH2 0xC65 JUMP JUMPDEST PUSH2 0x3166 DUP3 PUSH2 0x3E18 JUMP JUMPDEST ISZERO PUSH2 0x3173 JUMPI PUSH2 0x3156 PUSH2 0x3699 JUMP JUMPDEST PUSH32 0x0 PUSH1 0x1 PUSH1 0x1 PUSH1 0xA0 SHL SUB AND DUP3 PUSH1 0x1 PUSH1 0x1 PUSH1 0xA0 SHL SUB AND EQ ISZERO PUSH2 0x31B5 JUMPI PUSH2 0x3156 PUSH2 0x36BD JUMP JUMPDEST PUSH32 0x0 PUSH1 0x1 PUSH1 0x1 PUSH1 0xA0 SHL SUB AND DUP3 PUSH1 0x1 PUSH1 0x1 PUSH1 0xA0 SHL SUB AND EQ ISZERO PUSH2 0x31F7 JUMPI PUSH2 0x3156 PUSH2 0x36E1 JUMP JUMPDEST PUSH32 0x0 PUSH1 0x1 PUSH1 0x1 PUSH1 0xA0 SHL SUB AND DUP3 PUSH1 0x1 PUSH1 0x1 PUSH1 0xA0 SHL SUB AND EQ ISZERO PUSH2 0x1D0F JUMPI PUSH2 0x3156 PUSH2 0x3705 JUMP JUMPDEST DUP2 MLOAD PUSH1 0x0 SWAP1 DUP2 SWAP1 DUP2 JUMPDEST DUP2 DUP2 LT ISZERO PUSH2 0x327A JUMPI PUSH2 0x3270 DUP7 DUP3 DUP2 MLOAD DUP2 LT PUSH2 0x3259 JUMPI INVALID JUMPDEST PUSH1 0x20 MUL PUSH1 0x20 ADD ADD MLOAD DUP5 PUSH2 0x2017 SWAP1 SWAP2 SWAP1 PUSH4 0xFFFFFFFF AND JUMP JUMPDEST SWAP3 POP PUSH1 0x1 ADD PUSH2 0x3242 JUMP JUMPDEST POP DUP2 PUSH2 0x328B JUMPI PUSH1 0x0 SWAP3 POP POP POP PUSH2 0xA1D JUMP JUMPDEST PUSH1 0x0 DUP3 DUP8 DUP4 MUL DUP3 JUMPDEST PUSH1 0xFF DUP2 LT ISZERO PUSH2 0x33B7 JUMPI PUSH1 0x0 DUP6 DUP11 PUSH1 0x0 DUP2 MLOAD DUP2 LT PUSH2 0x32AC JUMPI INVALID JUMPDEST PUSH1 0x20 MUL PUSH1 0x20 ADD ADD MLOAD MUL SWAP1 POP PUSH1 0x0 PUSH1 0x1 SWAP1 POP JUMPDEST DUP7 DUP2 LT ISZERO PUSH2 0x3300 JUMPI PUSH2 0x32F6 PUSH2 0x32EF PUSH2 0x32E9 DUP5 DUP15 DUP6 DUP2 MLOAD DUP2 LT PUSH2 0x32DC JUMPI INVALID JUMPDEST PUSH1 0x20 MUL PUSH1 0x20 ADD ADD MLOAD PUSH2 0x14F0 JUMP JUMPDEST DUP10 PUSH2 0x14F0 JUMP JUMPDEST DUP7 DUP13 PUSH2 0x3E4A JUMP JUMPDEST SWAP2 POP PUSH1 0x1 ADD PUSH2 0x32BE JUMP JUMPDEST POP DUP4 SWAP5 POP PUSH2 0x336D PUSH2 0x333C PUSH2 0x3329 PUSH2 0x3320 PUSH2 0x331A DUP8 DUP13 PUSH2 0x14F0 JUMP JUMPDEST DUP6 PUSH2 0x14F0 JUMP JUMPDEST PUSH2 0x3E8 DUP14 PUSH2 0x3E4A JUMP JUMPDEST PUSH2 0x292E PUSH2 0x3336 DUP11 DUP10 PUSH2 0x14F0 JUMP JUMPDEST DUP9 PUSH2 0x14F0 JUMP JUMPDEST PUSH2 0x3367 PUSH2 0x335A PUSH2 0x3350 PUSH2 0x3E8 DUP9 SUB DUP7 PUSH2 0x14F0 JUMP JUMPDEST PUSH2 0x3E8 DUP15 ISZERO PUSH2 0x3E4A JUMP JUMPDEST PUSH2 0x292E DUP11 PUSH1 0x1 ADD DUP10 PUSH2 0x14F0 JUMP JUMPDEST DUP12 PUSH2 0x3E4A JUMP JUMPDEST SWAP4 POP DUP5 DUP5 GT ISZERO PUSH2 0x3395 JUMPI PUSH1 0x1 DUP6 DUP6 SUB GT PUSH2 0x3390 JUMPI DUP4 SWAP8 POP POP POP POP POP POP POP POP PUSH2 0xA1D JUMP JUMPDEST PUSH2 0x33AE JUMP JUMPDEST PUSH1 0x1 DUP5 DUP7 SUB GT PUSH2 0x33AE JUMPI DUP4 SWAP8 POP POP POP POP POP POP POP POP PUSH2 0xA1D JUMP JUMPDEST POP PUSH1 0x1 ADD PUSH2 0x3293 JUMP JUMPDEST POP PUSH2 0x33C3 PUSH2 0x141 PUSH2 0x25E3 JUMP JUMPDEST POP POP POP POP POP SWAP4 SWAP3 POP POP POP JUMP JUMPDEST PUSH2 0x33E6 PUSH1 0x1 PUSH1 0x1 PUSH1 0xA0 SHL SUB DUP4 AND ISZERO ISZERO PUSH2 0x19B PUSH2 0x15B6 JUMP JUMPDEST PUSH2 0x33F2 DUP3 PUSH1 0x0 DUP4 PUSH2 0xA77 JUMP JUMPDEST PUSH1 0x1 PUSH1 0x1 PUSH1 0xA0 SHL SUB DUP3 AND PUSH1 0x0 SWAP1 DUP2 MSTORE PUSH1 0x20 DUP2 SWAP1 MSTORE PUSH1 0x40 SWAP1 KECCAK256 SLOAD PUSH2 0x3418 SWAP1 DUP3 PUSH2 0x1A1 PUSH2 0x2F73 JUMP JUMPDEST PUSH1 0x1 PUSH1 0x1 PUSH1 0xA0 SHL SUB DUP4 AND PUSH1 0x0 SWAP1 DUP2 MSTORE PUSH1 0x20 DUP2 SWAP1 MSTORE PUSH1 0x40 SWAP1 KECCAK256 SSTORE PUSH1 0x2 SLOAD PUSH2 0x343E SWAP1 DUP3 PUSH2 0x3E72 JUMP JUMPDEST PUSH1 0x2 SSTORE PUSH1 0x40 MLOAD PUSH1 0x0 SWAP1 PUSH1 0x1 PUSH1 0x1 PUSH1 0xA0 SHL SUB DUP5 AND SWAP1 PUSH32 0xDDF252AD1BE2C89B69C2B068FC378DAA952BA7F163C4A11628F55A4DF523B3EF SWAP1 PUSH2 0x347F SWAP1 DUP6 SWAP1 PUSH2 0x5148 JUMP JUMPDEST PUSH1 0x40 MLOAD DUP1 SWAP2 SUB SWAP1 LOG3 POP POP JUMP JUMPDEST PUSH1 0x0 DUP2 DUP1 PUSH1 0x20 ADD SWAP1 MLOAD DUP2 ADD SWAP1 PUSH2 0x74A SWAP2 SWAP1 PUSH2 0x4E18 JUMP JUMPDEST PUSH1 0x0 PUSH1 0x60 DUP1 PUSH1 0x0 PUSH2 0x34B0 PUSH2 0x15C4 JUMP JUMPDEST SWAP1 POP PUSH1 0x0 SWAP4 POP DUP1 PUSH1 0x1 PUSH1 0x1 PUSH1 0x40 SHL SUB DUP2 GT DUP1 ISZERO PUSH2 0x34CC JUMPI PUSH1 0x0 DUP1 REVERT JUMPDEST POP PUSH1 0x40 MLOAD SWAP1 DUP1 DUP3 MSTORE DUP1 PUSH1 0x20 MUL PUSH1 0x20 ADD DUP3 ADD PUSH1 0x40 MSTORE DUP1 ISZERO PUSH2 0x34F6 JUMPI DUP2 PUSH1 0x20 ADD PUSH1 0x20 DUP3 MUL DUP1 CALLDATASIZE DUP4 CALLDATACOPY ADD SWAP1 POP JUMPDEST POP SWAP3 POP DUP1 PUSH1 0x1 PUSH1 0x1 PUSH1 0x40 SHL SUB DUP2 GT DUP1 ISZERO PUSH2 0x350F JUMPI PUSH1 0x0 DUP1 REVERT JUMPDEST POP PUSH1 0x40 MLOAD SWAP1 DUP1 DUP3 MSTORE DUP1 PUSH1 0x20 MUL PUSH1 0x20 ADD DUP3 ADD PUSH1 0x40 MSTORE DUP1 ISZERO PUSH2 0x3539 JUMPI DUP2 PUSH1 0x20 ADD PUSH1 0x20 DUP3 MUL DUP1 CALLDATASIZE DUP4 CALLDATACOPY ADD SWAP1 POP JUMPDEST POP SWAP2 POP PUSH1 0xC SLOAD DUP3 PUSH32 0x0 DUP2 MLOAD DUP2 LT PUSH2 0x356B JUMPI INVALID JUMPDEST PUSH1 0x20 SWAP1 DUP2 MUL SWAP2 SWAP1 SWAP2 ADD ADD MSTORE POP PUSH1 0x0 PUSH1 0xC SSTORE SWAP2 SWAP3 SWAP1 SWAP2 SWAP1 JUMP JUMPDEST PUSH1 0x0 PUSH2 0x3592 DUP3 ISZERO ISZERO PUSH1 0x4 PUSH2 0x15B6 JUMP JUMPDEST DUP3 PUSH2 0x359F JUMPI POP PUSH1 0x0 PUSH2 0x74A JUMP JUMPDEST PUSH8 0xDE0B6B3A7640000 DUP4 DUP2 MUL SWAP1 PUSH2 0x35B9 SWAP1 DUP6 DUP4 DUP2 PUSH2 0x3123 JUMPI INVALID JUMPDEST DUP3 PUSH1 0x1 DUP3 SUB DUP2 PUSH2 0x35C5 JUMPI INVALID JUMPDEST DIV PUSH1 0x1 ADD SWAP2 POP POP PUSH2 0x74A JUMP JUMPDEST PUSH1 0x60 DUP2 DUP1 PUSH1 0x20 ADD SWAP1 MLOAD DUP2 ADD SWAP1 PUSH2 0xA1D SWAP2 SWAP1 PUSH2 0x4E34 JUMP JUMPDEST PUSH2 0x35F3 PUSH1 0x0 DUP4 DUP4 PUSH2 0xA77 JUMP JUMPDEST PUSH1 0x2 SLOAD PUSH2 0x3600 SWAP1 DUP3 PUSH2 0x2017 JUMP JUMPDEST PUSH1 0x2 SSTORE PUSH1 0x1 PUSH1 0x1 PUSH1 0xA0 SHL SUB DUP3 AND PUSH1 0x0 SWAP1 DUP2 MSTORE PUSH1 0x20 DUP2 SWAP1 MSTORE PUSH1 0x40 SWAP1 KECCAK256 SLOAD PUSH2 0x3626 SWAP1 DUP3 PUSH2 0x2017 JUMP JUMPDEST PUSH1 0x1 PUSH1 0x1 PUSH1 0xA0 SHL SUB DUP4 AND PUSH1 0x0 DUP2 DUP2 MSTORE PUSH1 0x20 DUP2 SWAP1 MSTORE PUSH1 0x40 DUP1 DUP3 KECCAK256 SWAP4 SWAP1 SWAP4 SSTORE SWAP2 MLOAD SWAP1 SWAP2 SWAP1 PUSH32 0xDDF252AD1BE2C89B69C2B068FC378DAA952BA7F163C4A11628F55A4DF523B3EF SWAP1 PUSH2 0x347F SWAP1 DUP6 SWAP1 PUSH2 0x5148 JUMP JUMPDEST PUSH32 0x0 SWAP1 JUMP JUMPDEST PUSH32 0x0 SWAP1 JUMP JUMPDEST PUSH32 0x0 SWAP1 JUMP JUMPDEST PUSH32 0x0 SWAP1 JUMP JUMPDEST PUSH32 0x0 SWAP1 JUMP JUMPDEST PUSH1 0x0 PUSH2 0x3733 PUSH2 0x15C4 JUMP JUMPDEST SWAP1 POP DUP1 ISZERO PUSH2 0x3769 JUMPI PUSH2 0x3764 PUSH32 0x0 PUSH2 0x3E80 JUMP JUMPDEST PUSH2 0x376F JUMP JUMPDEST POP PUSH2 0x131D JUMP JUMPDEST PUSH1 0x1 DUP2 GT ISZERO PUSH2 0x3769 JUMPI PUSH2 0x37A1 PUSH32 0x0 PUSH2 0x3E80 JUMP JUMPDEST PUSH1 0x2 DUP2 GT ISZERO PUSH2 0x3769 JUMPI PUSH2 0x37D3 PUSH32 0x0 PUSH2 0x3E80 JUMP JUMPDEST PUSH1 0x3 DUP2 GT ISZERO PUSH2 0x3769 JUMPI PUSH2 0x3805 PUSH32 0x0 PUSH2 0x3E80 JUMP JUMPDEST PUSH1 0x4 DUP2 GT ISZERO PUSH2 0x3769 JUMPI PUSH2 0x3837 PUSH32 0x0 PUSH2 0x3E80 JUMP JUMPDEST PUSH2 0x761 JUMP JUMPDEST PUSH1 0x0 PUSH32 0x0 DUP3 LT PUSH2 0x9AA JUMPI PUSH2 0x3870 DUP3 PUSH1 0x1 PUSH2 0x1541 JUMP JUMPDEST PUSH2 0x74A JUMP JUMPDEST PUSH1 0x0 DUP1 PUSH2 0x3880 PUSH2 0x1E06 JUMP JUMPDEST POP SWAP1 POP PUSH1 0x0 PUSH1 0x1 PUSH2 0x388F PUSH2 0x15C4 JUMP JUMPDEST SUB PUSH1 0x1 PUSH1 0x1 PUSH1 0x40 SHL SUB DUP2 GT DUP1 ISZERO PUSH2 0x38A5 JUMPI PUSH1 0x0 DUP1 REVERT JUMPDEST POP PUSH1 0x40 MLOAD SWAP1 DUP1 DUP3 MSTORE DUP1 PUSH1 0x20 MUL PUSH1 0x20 ADD DUP3 ADD PUSH1 0x40 MSTORE DUP1 ISZERO PUSH2 0x38CF JUMPI DUP2 PUSH1 0x20 ADD PUSH1 0x20 DUP3 MUL DUP1 CALLDATASIZE DUP4 CALLDATACOPY ADD SWAP1 POP JUMPDEST POP SWAP1 POP DUP7 DUP2 DUP8 DUP2 MLOAD DUP2 LT PUSH2 0x38DF JUMPI INVALID JUMPDEST PUSH1 0x20 MUL PUSH1 0x20 ADD ADD DUP2 DUP2 MSTORE POP POP PUSH2 0x688 DUP3 DUP6 DUP4 DUP9 PUSH1 0x0 PUSH2 0x3EFE JUMP JUMPDEST PUSH1 0x0 PUSH2 0x3908 DUP4 PUSH2 0x2928 DUP6 PUSH2 0x2D0D JUMP JUMPDEST SWAP1 POP PUSH1 0x0 PUSH2 0x3916 DUP3 DUP5 PUSH2 0x2B0F JUMP JUMPDEST PUSH1 0xC SLOAD SWAP1 SWAP2 POP PUSH2 0x3926 SWAP1 DUP3 PUSH2 0x2017 JUMP JUMPDEST PUSH1 0xC SSTORE PUSH1 0x40 MLOAD PUSH32 0x1D2422D87BC31F46211CFDFE158C5ECCB86547546C7A4FFF6BE15A0A944C84B2 SWAP1 PUSH2 0x1EEE SWAP1 DUP4 SWAP1 PUSH2 0x5148 JUMP JUMPDEST PUSH1 0x0 DUP1 PUSH2 0x3964 PUSH2 0x1E06 JUMP JUMPDEST POP SWAP1 POP PUSH2 0x3976 DUP2 DUP5 DUP8 DUP10 DUP9 PUSH1 0x0 PUSH2 0x41AF JUMP JUMPDEST SWAP7 SWAP6 POP POP POP POP POP POP JUMP JUMPDEST PUSH1 0x0 PUSH2 0x3992 DUP4 DUP8 DUP7 DUP2 MLOAD DUP2 LT PUSH2 0x2CB4 JUMPI INVALID JUMPDEST DUP7 DUP6 DUP2 MLOAD DUP2 LT PUSH2 0x399E JUMPI INVALID JUMPDEST PUSH1 0x20 MUL PUSH1 0x20 ADD ADD DUP2 DUP2 MSTORE POP POP PUSH1 0x0 PUSH2 0x39B8 DUP9 DUP9 DUP6 DUP10 PUSH2 0x42C4 JUMP JUMPDEST SWAP1 POP DUP4 DUP8 DUP7 DUP2 MLOAD DUP2 LT PUSH2 0x39C7 JUMPI INVALID JUMPDEST PUSH1 0x20 MUL PUSH1 0x20 ADD ADD MLOAD ADD DUP8 DUP7 DUP2 MLOAD DUP2 LT PUSH2 0x39DC JUMPI INVALID JUMPDEST PUSH1 0x20 MUL PUSH1 0x20 ADD ADD DUP2 DUP2 MSTORE POP POP PUSH2 0x3A13 PUSH1 0x1 PUSH2 0x292E DUP10 DUP10 DUP2 MLOAD DUP2 LT PUSH2 0x39FC JUMPI INVALID JUMPDEST PUSH1 0x20 MUL PUSH1 0x20 ADD ADD MLOAD DUP5 PUSH2 0x1541 SWAP1 SWAP2 SWAP1 PUSH4 0xFFFFFFFF AND JUMP JUMPDEST SWAP9 SWAP8 POP POP POP POP POP POP POP POP JUMP JUMPDEST PUSH1 0x0 PUSH2 0x3A2D DUP6 DUP6 PUSH1 0x0 PUSH2 0x3239 JUMP JUMPDEST SWAP1 POP PUSH1 0x0 PUSH2 0x3A3B DUP3 DUP9 PUSH2 0x30ED JUMP JUMPDEST SWAP1 POP PUSH8 0xDE0B6B3A7640000 DUP2 GT ISZERO PUSH2 0xB56 JUMPI PUSH1 0x0 PUSH2 0x3A75 PUSH2 0x3A6E DUP7 PUSH2 0x3A68 DUP6 PUSH8 0xDE0B6B3A7640000 PUSH2 0x1541 JUMP JUMPDEST SWAP1 PUSH2 0x2B0F JUMP JUMPDEST DUP6 SWAP1 PUSH2 0x2B0F JUMP JUMPDEST PUSH1 0xC SLOAD SWAP1 SWAP2 POP PUSH2 0x3A85 SWAP1 DUP3 PUSH2 0x2017 JUMP JUMPDEST PUSH1 0xC SSTORE PUSH1 0x40 MLOAD PUSH32 0x1D2422D87BC31F46211CFDFE158C5ECCB86547546C7A4FFF6BE15A0A944C84B2 SWAP1 PUSH2 0x3AB8 SWAP1 DUP4 SWAP1 PUSH2 0x5148 JUMP JUMPDEST PUSH1 0x40 MLOAD DUP1 SWAP2 SUB SWAP1 LOG1 POP POP POP POP POP POP POP POP JUMP JUMPDEST PUSH1 0x0 DUP3 DUP3 MUL PUSH2 0x3AE4 DUP5 ISZERO DUP1 PUSH2 0x150D JUMPI POP DUP4 DUP6 DUP4 DUP2 PUSH2 0x150A JUMPI INVALID JUMPDEST DUP1 PUSH2 0x3AF3 JUMPI PUSH1 0x0 SWAP2 POP POP PUSH2 0x74A JUMP JUMPDEST PUSH8 0xDE0B6B3A7640000 PUSH1 0x0 NOT DUP3 ADD PUSH2 0x35C5 JUMP JUMPDEST POP SWAP3 SWAP2 POP POP JUMP JUMPDEST PUSH1 0x0 DUP1 PUSH2 0x3B18 PUSH2 0x1E06 JUMP JUMPDEST POP SWAP1 POP PUSH2 0x3976 DUP2 DUP5 DUP8 DUP10 DUP9 PUSH1 0x0 PUSH2 0x4464 JUMP JUMPDEST PUSH1 0x0 DUP1 PUSH1 0x1 PUSH2 0x3B37 PUSH2 0x15C4 JUMP JUMPDEST SUB PUSH1 0x1 PUSH1 0x1 PUSH1 0x40 SHL SUB DUP2 GT DUP1 ISZERO PUSH2 0x3B4D JUMPI PUSH1 0x0 DUP1 REVERT JUMPDEST POP PUSH1 0x40 MLOAD SWAP1 DUP1 DUP3 MSTORE DUP1 PUSH1 0x20 MUL PUSH1 0x20 ADD DUP3 ADD PUSH1 0x40 MSTORE DUP1 ISZERO PUSH2 0x3B77 JUMPI DUP2 PUSH1 0x20 ADD PUSH1 0x20 DUP3 MUL DUP1 CALLDATASIZE DUP4 CALLDATACOPY ADD SWAP1 POP JUMPDEST POP SWAP1 POP DUP6 DUP2 DUP7 DUP2 MLOAD DUP2 LT PUSH2 0x3B87 JUMPI INVALID JUMPDEST PUSH1 0x20 MUL PUSH1 0x20 ADD ADD DUP2 DUP2 MSTORE POP POP PUSH1 0x0 PUSH2 0x3B9D PUSH2 0x1E06 JUMP JUMPDEST POP SWAP1 POP PUSH2 0x688 DUP2 DUP6 DUP5 DUP9 PUSH1 0x0 PUSH2 0x452B JUMP JUMPDEST PUSH1 0x0 PUSH2 0x3BC0 DUP4 DUP8 DUP8 DUP2 MLOAD DUP2 LT PUSH2 0x2C72 JUMPI INVALID JUMPDEST DUP7 DUP7 DUP2 MLOAD DUP2 LT PUSH2 0x3BCC JUMPI INVALID JUMPDEST PUSH1 0x20 MUL PUSH1 0x20 ADD ADD DUP2 DUP2 MSTORE POP POP PUSH1 0x0 PUSH2 0x3BE6 DUP9 DUP9 DUP6 DUP9 PUSH2 0x42C4 JUMP JUMPDEST SWAP1 POP DUP4 DUP8 DUP8 DUP2 MLOAD DUP2 LT PUSH2 0x3BF5 JUMPI INVALID JUMPDEST PUSH1 0x20 MUL PUSH1 0x20 ADD ADD MLOAD SUB DUP8 DUP8 DUP2 MLOAD DUP2 LT PUSH2 0x3C0A JUMPI INVALID JUMPDEST PUSH1 0x20 MUL PUSH1 0x20 ADD ADD DUP2 DUP2 MSTORE POP POP PUSH2 0x3A13 PUSH1 0x1 PUSH2 0x2928 DUP4 DUP11 DUP10 DUP2 MLOAD DUP2 LT PUSH2 0x2CB4 JUMPI INVALID JUMPDEST PUSH1 0x0 PUSH2 0x3C3D PUSH4 0xF4B7964D PUSH1 0xE0 SHL PUSH2 0xF02 JUMP JUMPDEST DUP3 EQ DUP1 PUSH2 0x74A JUMPI POP PUSH2 0x74A DUP3 PUSH2 0x47A7 JUMP JUMPDEST PUSH1 0x0 DUP2 DUP1 PUSH1 0x20 ADD SWAP1 MLOAD DUP2 ADD SWAP1 PUSH2 0xA1D SWAP2 SWAP1 PUSH2 0x4DED JUMP JUMPDEST PUSH1 0x60 PUSH1 0x0 PUSH2 0x3C72 DUP5 DUP5 PUSH2 0x30ED JUMP JUMPDEST SWAP1 POP PUSH1 0x0 DUP6 MLOAD PUSH1 0x1 PUSH1 0x1 PUSH1 0x40 SHL SUB DUP2 GT DUP1 ISZERO PUSH2 0x3C8D JUMPI PUSH1 0x0 DUP1 REVERT JUMPDEST POP PUSH1 0x40 MLOAD SWAP1 DUP1 DUP3 MSTORE DUP1 PUSH1 0x20 MUL PUSH1 0x20 ADD DUP3 ADD PUSH1 0x40 MSTORE DUP1 ISZERO PUSH2 0x3CB7 JUMPI DUP2 PUSH1 0x20 ADD PUSH1 0x20 DUP3 MUL DUP1 CALLDATASIZE DUP4 CALLDATACOPY ADD SWAP1 POP JUMPDEST POP SWAP1 POP PUSH1 0x0 JUMPDEST DUP7 MLOAD DUP2 LT ISZERO PUSH2 0x3CF5 JUMPI PUSH2 0x3CD6 DUP4 DUP9 DUP4 DUP2 MLOAD DUP2 LT PUSH2 0x1657 JUMPI INVALID JUMPDEST DUP3 DUP3 DUP2 MLOAD DUP2 LT PUSH2 0x3CE2 JUMPI INVALID JUMPDEST PUSH1 0x20 SWAP1 DUP2 MUL SWAP2 SWAP1 SWAP2 ADD ADD MSTORE PUSH1 0x1 ADD PUSH2 0x3CBD JUMP JUMPDEST POP SWAP6 SWAP5 POP POP POP POP POP JUMP JUMPDEST PUSH1 0x60 DUP3 MLOAD PUSH1 0x1 ADD PUSH1 0x1 PUSH1 0x1 PUSH1 0x40 SHL SUB DUP2 GT DUP1 ISZERO PUSH2 0x3D1B JUMPI PUSH1 0x0 DUP1 REVERT JUMPDEST POP PUSH1 0x40 MLOAD SWAP1 DUP1 DUP3 MSTORE DUP1 PUSH1 0x20 MUL PUSH1 0x20 ADD DUP3 ADD PUSH1 0x40 MSTORE DUP1 ISZERO PUSH2 0x3D45 JUMPI DUP2 PUSH1 0x20 ADD PUSH1 0x20 DUP3 MUL DUP1 CALLDATASIZE DUP4 CALLDATACOPY ADD SWAP1 POP JUMPDEST POP SWAP1 POP PUSH1 0x0 JUMPDEST DUP2 MLOAD DUP2 LT ISZERO PUSH2 0x3B06 JUMPI PUSH32 0x0 DUP2 EQ PUSH2 0x3DC5 JUMPI DUP4 PUSH32 0x0 DUP3 LT PUSH2 0x3DAC JUMPI PUSH1 0x1 DUP3 SUB PUSH2 0x3DAE JUMP JUMPDEST DUP2 JUMPDEST DUP2 MLOAD DUP2 LT PUSH2 0x3DB8 JUMPI INVALID JUMPDEST PUSH1 0x20 MUL PUSH1 0x20 ADD ADD MLOAD PUSH2 0x3DC7 JUMP JUMPDEST DUP3 JUMPDEST DUP3 DUP3 DUP2 MLOAD DUP2 LT PUSH2 0x3DD3 JUMPI INVALID JUMPDEST PUSH1 0x20 SWAP1 DUP2 MUL SWAP2 SWAP1 SWAP2 ADD ADD MSTORE PUSH1 0x1 ADD PUSH2 0x3D4B JUMP JUMPDEST PUSH32 0x0 PUSH1 0x1 PUSH1 0x1 PUSH1 0xA0 SHL SUB SWAP1 DUP2 AND SWAP2 AND EQ SWAP1 JUMP JUMPDEST PUSH32 0x0 PUSH1 0x1 PUSH1 0x1 PUSH1 0xA0 SHL SUB SWAP1 DUP2 AND SWAP2 AND EQ SWAP1 JUMP JUMPDEST PUSH1 0x0 DUP2 PUSH2 0x3E60 JUMPI PUSH2 0x3E5B DUP5 DUP5 PUSH2 0x47E3 JUMP JUMPDEST PUSH2 0x3E6A JUMP JUMPDEST PUSH2 0x3E6A DUP5 DUP5 PUSH2 0x1E7A JUMP JUMPDEST SWAP5 SWAP4 POP POP POP POP JUMP JUMPDEST PUSH1 0x0 PUSH2 0xA1D DUP4 DUP4 PUSH1 0x1 PUSH2 0x2F73 JUMP JUMPDEST PUSH1 0x1 PUSH1 0x1 PUSH1 0xA0 SHL SUB DUP2 AND ADDRESS EQ ISZERO PUSH2 0x3E96 JUMPI PUSH2 0x761 JUMP JUMPDEST PUSH1 0x1 PUSH1 0x1 PUSH1 0xA0 SHL SUB DUP2 AND PUSH1 0x0 SWAP1 DUP2 MSTORE PUSH1 0xE PUSH1 0x20 MSTORE PUSH1 0x40 SWAP1 KECCAK256 SLOAD DUP1 ISZERO PUSH2 0xC04 JUMPI PUSH1 0x1 PUSH1 0x1 PUSH1 0xA0 SHL SUB DUP3 AND PUSH1 0x0 SWAP1 DUP2 MSTORE PUSH1 0xE PUSH1 0x20 MSTORE PUSH1 0x40 DUP2 KECCAK256 SLOAD DUP2 SWAP1 PUSH2 0x3ED9 SWAP1 PUSH2 0x251F JUMP JUMPDEST SWAP2 POP SWAP2 POP DUP1 TIMESTAMP GT ISZERO PUSH2 0x3EF8 JUMPI PUSH2 0x3EF8 DUP5 PUSH2 0x3EF2 DUP7 PUSH2 0x1B28 JUMP JUMPDEST DUP5 PUSH2 0x1D27 JUMP JUMPDEST POP POP POP POP JUMP JUMPDEST PUSH1 0x0 DUP1 DUP1 JUMPDEST DUP7 MLOAD DUP2 LT ISZERO PUSH2 0x3F3C JUMPI PUSH2 0x3F32 DUP8 DUP3 DUP2 MLOAD DUP2 LT PUSH2 0x3F1B JUMPI INVALID JUMPDEST PUSH1 0x20 MUL PUSH1 0x20 ADD ADD MLOAD DUP4 PUSH2 0x2017 SWAP1 SWAP2 SWAP1 PUSH4 0xFFFFFFFF AND JUMP JUMPDEST SWAP2 POP PUSH1 0x1 ADD PUSH2 0x3F03 JUMP JUMPDEST POP PUSH1 0x0 DUP6 MLOAD PUSH1 0x1 PUSH1 0x1 PUSH1 0x40 SHL SUB DUP2 GT DUP1 ISZERO PUSH2 0x3F56 JUMPI PUSH1 0x0 DUP1 REVERT JUMPDEST POP PUSH1 0x40 MLOAD SWAP1 DUP1 DUP3 MSTORE DUP1 PUSH1 0x20 MUL PUSH1 0x20 ADD DUP3 ADD PUSH1 0x40 MSTORE DUP1 ISZERO PUSH2 0x3F80 JUMPI DUP2 PUSH1 0x20 ADD PUSH1 0x20 DUP3 MUL DUP1 CALLDATASIZE DUP4 CALLDATACOPY ADD SWAP1 POP JUMPDEST POP SWAP1 POP PUSH1 0x0 DUP1 JUMPDEST DUP9 MLOAD DUP2 LT ISZERO PUSH2 0x404D JUMPI PUSH1 0x0 PUSH2 0x3FB8 DUP6 DUP12 DUP5 DUP2 MLOAD DUP2 LT PUSH2 0x3FA2 JUMPI INVALID JUMPDEST PUSH1 0x20 MUL PUSH1 0x20 ADD ADD MLOAD PUSH2 0x3583 SWAP1 SWAP2 SWAP1 PUSH4 0xFFFFFFFF AND JUMP JUMPDEST SWAP1 POP PUSH2 0x3FFA DUP11 DUP4 DUP2 MLOAD DUP2 LT PUSH2 0x3FC9 JUMPI INVALID JUMPDEST PUSH1 0x20 MUL PUSH1 0x20 ADD ADD MLOAD PUSH2 0x3FF4 DUP12 DUP6 DUP2 MLOAD DUP2 LT PUSH2 0x3FE0 JUMPI INVALID JUMPDEST PUSH1 0x20 MUL PUSH1 0x20 ADD ADD MLOAD DUP14 DUP7 DUP2 MLOAD DUP2 LT PUSH2 0x2CB4 JUMPI INVALID JUMPDEST SWAP1 PUSH2 0x3583 JUMP JUMPDEST DUP5 DUP4 DUP2 MLOAD DUP2 LT PUSH2 0x4006 JUMPI INVALID JUMPDEST PUSH1 0x20 MUL PUSH1 0x20 ADD ADD DUP2 DUP2 MSTORE POP POP PUSH2 0x4042 PUSH2 0x403B DUP3 DUP7 DUP6 DUP2 MLOAD DUP2 LT PUSH2 0x4025 JUMPI INVALID JUMPDEST PUSH1 0x20 MUL PUSH1 0x20 ADD ADD MLOAD PUSH2 0x3ACA SWAP1 SWAP2 SWAP1 PUSH4 0xFFFFFFFF AND JUMP JUMPDEST DUP5 SWAP1 PUSH2 0x2017 JUMP JUMPDEST SWAP3 POP POP PUSH1 0x1 ADD PUSH2 0x3F87 JUMP JUMPDEST POP PUSH1 0x0 DUP9 MLOAD PUSH1 0x1 PUSH1 0x1 PUSH1 0x40 SHL SUB DUP2 GT DUP1 ISZERO PUSH2 0x4067 JUMPI PUSH1 0x0 DUP1 REVERT JUMPDEST POP PUSH1 0x40 MLOAD SWAP1 DUP1 DUP3 MSTORE DUP1 PUSH1 0x20 MUL PUSH1 0x20 ADD DUP3 ADD PUSH1 0x40 MSTORE DUP1 ISZERO PUSH2 0x4091 JUMPI DUP2 PUSH1 0x20 ADD PUSH1 0x20 DUP3 MUL DUP1 CALLDATASIZE DUP4 CALLDATACOPY ADD SWAP1 POP JUMPDEST POP SWAP1 POP PUSH1 0x0 JUMPDEST DUP10 MLOAD DUP2 LT ISZERO PUSH2 0x415C JUMPI PUSH1 0x0 DUP5 DUP3 DUP2 MLOAD DUP2 LT PUSH2 0x40AE JUMPI INVALID JUMPDEST PUSH1 0x20 MUL PUSH1 0x20 ADD ADD MLOAD DUP5 GT ISZERO PUSH2 0x4115 JUMPI PUSH1 0x0 PUSH2 0x40D7 PUSH2 0x40CB DUP7 PUSH2 0x4803 JUMP JUMPDEST DUP14 DUP6 DUP2 MLOAD DUP2 LT PUSH2 0x1657 JUMPI INVALID JUMPDEST SWAP1 POP PUSH1 0x0 PUSH2 0x40EB DUP3 DUP14 DUP7 DUP2 MLOAD DUP2 LT PUSH2 0x2CB4 JUMPI INVALID JUMPDEST SWAP1 POP PUSH2 0x410C PUSH2 0x4105 DUP3 PUSH8 0xDE0B6B3A7640000 DUP14 SWAP1 SUB PUSH2 0x3583 JUMP JUMPDEST DUP4 SWAP1 PUSH2 0x2017 JUMP JUMPDEST SWAP3 POP POP POP PUSH2 0x412C JUMP JUMPDEST DUP10 DUP3 DUP2 MLOAD DUP2 LT PUSH2 0x4121 JUMPI INVALID JUMPDEST PUSH1 0x20 MUL PUSH1 0x20 ADD ADD MLOAD SWAP1 POP JUMPDEST PUSH2 0x413C DUP2 DUP13 DUP5 DUP2 MLOAD DUP2 LT PUSH2 0x2CB4 JUMPI INVALID JUMPDEST DUP4 DUP4 DUP2 MLOAD DUP2 LT PUSH2 0x4148 JUMPI INVALID JUMPDEST PUSH1 0x20 SWAP1 DUP2 MUL SWAP2 SWAP1 SWAP2 ADD ADD MSTORE POP PUSH1 0x1 ADD PUSH2 0x4097 JUMP JUMPDEST POP PUSH1 0x0 PUSH2 0x416B DUP12 DUP12 PUSH1 0x1 PUSH2 0x3239 JUMP JUMPDEST SWAP1 POP PUSH1 0x0 PUSH2 0x417B DUP13 DUP5 PUSH1 0x0 PUSH2 0x3239 JUMP JUMPDEST SWAP1 POP PUSH1 0x0 PUSH2 0x4189 DUP3 DUP5 PUSH2 0x30ED JUMP JUMPDEST SWAP1 POP PUSH2 0x419E PUSH2 0x4197 DUP3 PUSH2 0x4803 JUMP JUMPDEST DUP12 SWAP1 PUSH2 0x3ACA JUMP JUMPDEST SWAP14 SWAP13 POP POP POP POP POP POP POP POP POP POP POP POP POP JUMP JUMPDEST PUSH1 0x0 DUP1 PUSH2 0x41BE DUP9 DUP9 PUSH1 0x1 PUSH2 0x3239 JUMP JUMPDEST SWAP1 POP PUSH1 0x0 PUSH2 0x41DA DUP3 PUSH2 0x41D4 DUP8 PUSH2 0x3FF4 DUP2 DUP12 PUSH2 0x2017 JUMP JUMPDEST SWAP1 PUSH2 0x3ACA JUMP JUMPDEST SWAP1 POP PUSH1 0x0 PUSH2 0x41EA DUP11 DUP11 DUP5 DUP12 PUSH2 0x42C4 JUMP JUMPDEST SWAP1 POP PUSH1 0x0 PUSH2 0x4214 DUP11 DUP11 DUP2 MLOAD DUP2 LT PUSH2 0x41FD JUMPI INVALID JUMPDEST PUSH1 0x20 MUL PUSH1 0x20 ADD ADD MLOAD DUP4 PUSH2 0x1541 SWAP1 SWAP2 SWAP1 PUSH4 0xFFFFFFFF AND JUMP JUMPDEST SWAP1 POP PUSH1 0x0 DUP1 JUMPDEST DUP12 MLOAD DUP2 LT ISZERO PUSH2 0x423C JUMPI PUSH2 0x4232 DUP13 DUP3 DUP2 MLOAD DUP2 LT PUSH2 0x3F1B JUMPI INVALID JUMPDEST SWAP2 POP PUSH1 0x1 ADD PUSH2 0x421A JUMP JUMPDEST POP PUSH1 0x0 PUSH2 0x4265 DUP3 DUP14 DUP14 DUP2 MLOAD DUP2 LT PUSH2 0x424F JUMPI INVALID JUMPDEST PUSH1 0x20 MUL PUSH1 0x20 ADD ADD MLOAD PUSH2 0x30ED SWAP1 SWAP2 SWAP1 PUSH4 0xFFFFFFFF AND JUMP JUMPDEST SWAP1 POP PUSH1 0x0 PUSH2 0x4272 DUP3 PUSH2 0x4803 JUMP JUMPDEST SWAP1 POP PUSH1 0x0 PUSH2 0x4280 DUP6 DUP4 PUSH2 0x3ACA JUMP JUMPDEST SWAP1 POP PUSH1 0x0 PUSH2 0x428E DUP7 DUP4 PUSH2 0x1541 JUMP JUMPDEST SWAP1 POP PUSH2 0x42AF PUSH2 0x42A8 DUP4 PUSH8 0xDE0B6B3A7640000 DUP15 SWAP1 SUB PUSH2 0x3583 JUMP JUMPDEST DUP3 SWAP1 PUSH2 0x2017 JUMP JUMPDEST SWAP10 POP POP POP POP POP POP POP POP POP POP SWAP7 SWAP6 POP POP POP POP POP POP JUMP JUMPDEST PUSH1 0x0 DUP1 DUP5 MLOAD DUP7 MUL SWAP1 POP PUSH1 0x0 DUP6 PUSH1 0x0 DUP2 MLOAD DUP2 LT PUSH2 0x42DC JUMPI INVALID JUMPDEST PUSH1 0x20 MUL PUSH1 0x20 ADD ADD MLOAD SWAP1 POP PUSH1 0x0 DUP7 MLOAD DUP8 PUSH1 0x0 DUP2 MLOAD DUP2 LT PUSH2 0x42F7 JUMPI INVALID JUMPDEST PUSH1 0x20 MUL PUSH1 0x20 ADD ADD MLOAD MUL SWAP1 POP PUSH1 0x0 PUSH1 0x1 SWAP1 POP JUMPDEST DUP8 MLOAD DUP2 LT ISZERO PUSH2 0x4350 JUMPI PUSH2 0x4335 PUSH2 0x432F PUSH2 0x4328 DUP5 DUP12 DUP6 DUP2 MLOAD DUP2 LT PUSH2 0x32DC JUMPI INVALID JUMPDEST DUP11 MLOAD PUSH2 0x14F0 JUMP JUMPDEST DUP9 PUSH2 0x47E3 JUMP JUMPDEST SWAP2 POP PUSH2 0x4346 DUP9 DUP3 DUP2 MLOAD DUP2 LT PUSH2 0x3259 JUMPI INVALID JUMPDEST SWAP3 POP PUSH1 0x1 ADD PUSH2 0x4309 JUMP JUMPDEST POP DUP7 DUP6 DUP2 MLOAD DUP2 LT PUSH2 0x435D JUMPI INVALID JUMPDEST PUSH1 0x20 MUL PUSH1 0x20 ADD ADD MLOAD DUP3 SUB SWAP2 POP PUSH1 0x0 PUSH2 0x4375 DUP8 DUP9 PUSH2 0x14F0 JUMP JUMPDEST SWAP1 POP PUSH1 0x0 PUSH2 0x43A1 PUSH2 0x4395 PUSH2 0x438D DUP5 PUSH2 0xB14 DUP10 DUP9 PUSH2 0x14F0 JUMP JUMPDEST PUSH2 0x3E8 PUSH2 0x14F0 JUMP JUMPDEST DUP11 DUP10 DUP2 MLOAD DUP2 LT PUSH2 0x32DC JUMPI INVALID JUMPDEST SWAP1 POP PUSH1 0x0 PUSH2 0x43BC PUSH2 0x43B5 PUSH2 0x438D DUP12 DUP10 PUSH2 0x47E3 JUMP JUMPDEST DUP7 SWAP1 PUSH2 0x2017 JUMP JUMPDEST SWAP1 POP PUSH1 0x0 DUP1 PUSH2 0x43D8 PUSH2 0x43CE DUP7 DUP7 PUSH2 0x2017 JUMP JUMPDEST PUSH2 0xB14 DUP14 DUP7 PUSH2 0x2017 JUMP JUMPDEST SWAP1 POP PUSH1 0x0 JUMPDEST PUSH1 0xFF DUP2 LT ISZERO PUSH2 0x4458 JUMPI DUP2 SWAP3 POP PUSH2 0x440D PUSH2 0x43FA DUP7 PUSH2 0x292E DUP6 DUP7 PUSH2 0x14F0 JUMP JUMPDEST PUSH2 0xB14 DUP15 PUSH2 0x2928 DUP9 PUSH2 0x292E DUP9 PUSH1 0x2 PUSH2 0x14F0 JUMP JUMPDEST SWAP2 POP DUP3 DUP3 GT ISZERO PUSH2 0x4436 JUMPI PUSH1 0x1 DUP4 DUP4 SUB GT PUSH2 0x4431 JUMPI POP SWAP8 POP PUSH2 0x3E6A SWAP7 POP POP POP POP POP POP POP JUMP JUMPDEST PUSH2 0x4450 JUMP JUMPDEST PUSH1 0x1 DUP3 DUP5 SUB GT PUSH2 0x4450 JUMPI POP SWAP8 POP PUSH2 0x3E6A SWAP7 POP POP POP POP POP POP POP JUMP JUMPDEST PUSH1 0x1 ADD PUSH2 0x43DD JUMP JUMPDEST POP PUSH2 0x2CEF PUSH2 0x142 PUSH2 0x25E3 JUMP JUMPDEST PUSH1 0x0 DUP1 PUSH2 0x4473 DUP9 DUP9 PUSH1 0x1 PUSH2 0x3239 JUMP JUMPDEST SWAP1 POP PUSH1 0x0 PUSH2 0x4489 DUP3 PUSH2 0x41D4 DUP8 PUSH2 0x3FF4 DUP2 DUP12 PUSH2 0x1541 JUMP JUMPDEST SWAP1 POP PUSH1 0x0 PUSH2 0x4499 DUP11 DUP11 DUP5 DUP12 PUSH2 0x42C4 JUMP JUMPDEST SWAP1 POP PUSH1 0x0 PUSH2 0x44AD DUP3 DUP12 DUP12 DUP2 MLOAD DUP2 LT PUSH2 0x2CB4 JUMPI INVALID JUMPDEST SWAP1 POP PUSH1 0x0 DUP1 JUMPDEST DUP12 MLOAD DUP2 LT ISZERO PUSH2 0x44D5 JUMPI PUSH2 0x44CB DUP13 DUP3 DUP2 MLOAD DUP2 LT PUSH2 0x3F1B JUMPI INVALID JUMPDEST SWAP2 POP PUSH1 0x1 ADD PUSH2 0x44B3 JUMP JUMPDEST POP PUSH1 0x0 PUSH2 0x44E8 DUP3 DUP14 DUP14 DUP2 MLOAD DUP2 LT PUSH2 0x424F JUMPI INVALID JUMPDEST SWAP1 POP PUSH1 0x0 PUSH2 0x44F5 DUP3 PUSH2 0x4803 JUMP JUMPDEST SWAP1 POP PUSH1 0x0 PUSH2 0x4503 DUP6 DUP4 PUSH2 0x3ACA JUMP JUMPDEST SWAP1 POP PUSH1 0x0 PUSH2 0x4511 DUP7 DUP4 PUSH2 0x1541 JUMP JUMPDEST SWAP1 POP PUSH2 0x42AF PUSH2 0x42A8 DUP4 PUSH8 0xDE0B6B3A7640000 DUP15 SWAP1 SUB PUSH2 0x2B0F JUMP JUMPDEST PUSH1 0x0 DUP1 DUP1 JUMPDEST DUP7 MLOAD DUP2 LT ISZERO PUSH2 0x4552 JUMPI PUSH2 0x4548 DUP8 DUP3 DUP2 MLOAD DUP2 LT PUSH2 0x3F1B JUMPI INVALID JUMPDEST SWAP2 POP PUSH1 0x1 ADD PUSH2 0x4530 JUMP JUMPDEST POP PUSH1 0x0 DUP6 MLOAD PUSH1 0x1 PUSH1 0x1 PUSH1 0x40 SHL SUB DUP2 GT DUP1 ISZERO PUSH2 0x456C JUMPI PUSH1 0x0 DUP1 REVERT JUMPDEST POP PUSH1 0x40 MLOAD SWAP1 DUP1 DUP3 MSTORE DUP1 PUSH1 0x20 MUL PUSH1 0x20 ADD DUP3 ADD PUSH1 0x40 MSTORE DUP1 ISZERO PUSH2 0x4596 JUMPI DUP2 PUSH1 0x20 ADD PUSH1 0x20 DUP3 MUL DUP1 CALLDATASIZE DUP4 CALLDATACOPY ADD SWAP1 POP JUMPDEST POP SWAP1 POP PUSH1 0x0 DUP1 JUMPDEST DUP9 MLOAD DUP2 LT ISZERO PUSH2 0x4630 JUMPI PUSH1 0x0 PUSH2 0x45B8 DUP6 DUP12 DUP5 DUP2 MLOAD DUP2 LT PUSH2 0x424F JUMPI INVALID JUMPDEST SWAP1 POP PUSH2 0x45FA DUP11 DUP4 DUP2 MLOAD DUP2 LT PUSH2 0x45C9 JUMPI INVALID JUMPDEST PUSH1 0x20 MUL PUSH1 0x20 ADD ADD MLOAD PUSH2 0x45F4 DUP12 DUP6 DUP2 MLOAD DUP2 LT PUSH2 0x45E0 JUMPI INVALID JUMPDEST PUSH1 0x20 MUL PUSH1 0x20 ADD ADD MLOAD DUP14 DUP7 DUP2 MLOAD DUP2 LT PUSH2 0x2C72 JUMPI INVALID JUMPDEST SWAP1 PUSH2 0x30ED JUMP JUMPDEST DUP5 DUP4 DUP2 MLOAD DUP2 LT PUSH2 0x4606 JUMPI INVALID JUMPDEST PUSH1 0x20 MUL PUSH1 0x20 ADD ADD DUP2 DUP2 MSTORE POP POP PUSH2 0x4625 PUSH2 0x403B DUP3 DUP7 DUP6 DUP2 MLOAD DUP2 LT PUSH2 0x1657 JUMPI INVALID JUMPDEST SWAP3 POP POP PUSH1 0x1 ADD PUSH2 0x459D JUMP JUMPDEST POP PUSH1 0x0 DUP9 MLOAD PUSH1 0x1 PUSH1 0x1 PUSH1 0x40 SHL SUB DUP2 GT DUP1 ISZERO PUSH2 0x464A JUMPI PUSH1 0x0 DUP1 REVERT JUMPDEST POP PUSH1 0x40 MLOAD SWAP1 DUP1 DUP3 MSTORE DUP1 PUSH1 0x20 MUL PUSH1 0x20 ADD DUP3 ADD PUSH1 0x40 MSTORE DUP1 ISZERO PUSH2 0x4674 JUMPI DUP2 PUSH1 0x20 ADD PUSH1 0x20 DUP3 MUL DUP1 CALLDATASIZE DUP4 CALLDATACOPY ADD SWAP1 POP JUMPDEST POP SWAP1 POP PUSH1 0x0 JUMPDEST DUP10 MLOAD DUP2 LT ISZERO PUSH2 0x4735 JUMPI PUSH1 0x0 DUP4 DUP6 DUP4 DUP2 MLOAD DUP2 LT PUSH2 0x4692 JUMPI INVALID JUMPDEST PUSH1 0x20 MUL PUSH1 0x20 ADD ADD MLOAD GT ISZERO PUSH2 0x46EE JUMPI PUSH1 0x0 PUSH2 0x46B7 PUSH2 0x40CB DUP7 PUSH8 0xDE0B6B3A7640000 PUSH2 0x1541 JUMP JUMPDEST SWAP1 POP PUSH1 0x0 PUSH2 0x46CB DUP3 DUP14 DUP7 DUP2 MLOAD DUP2 LT PUSH2 0x2CB4 JUMPI INVALID JUMPDEST SWAP1 POP PUSH2 0x46E5 PUSH2 0x4105 DUP3 PUSH8 0xDE0B6B3A7640000 DUP14 SWAP1 SUB PUSH2 0x2B0F JUMP JUMPDEST SWAP3 POP POP POP PUSH2 0x4705 JUMP JUMPDEST DUP10 DUP3 DUP2 MLOAD DUP2 LT PUSH2 0x46FA JUMPI INVALID JUMPDEST PUSH1 0x20 MUL PUSH1 0x20 ADD ADD MLOAD SWAP1 POP JUMPDEST PUSH2 0x4715 DUP2 DUP13 DUP5 DUP2 MLOAD DUP2 LT PUSH2 0x2C72 JUMPI INVALID JUMPDEST DUP4 DUP4 DUP2 MLOAD DUP2 LT PUSH2 0x4721 JUMPI INVALID JUMPDEST PUSH1 0x20 SWAP1 DUP2 MUL SWAP2 SWAP1 SWAP2 ADD ADD MSTORE POP PUSH1 0x1 ADD PUSH2 0x467A JUMP JUMPDEST POP PUSH1 0x0 PUSH2 0x4744 DUP12 DUP12 PUSH1 0x1 PUSH2 0x3239 JUMP JUMPDEST SWAP1 POP PUSH1 0x0 PUSH2 0x4754 DUP13 DUP5 PUSH1 0x0 PUSH2 0x3239 JUMP JUMPDEST SWAP1 POP PUSH1 0x0 PUSH2 0x4762 DUP3 DUP5 PUSH2 0x30ED JUMP JUMPDEST SWAP1 POP PUSH8 0xDE0B6B3A7640000 DUP2 GT ISZERO PUSH2 0x4797 JUMPI PUSH2 0x4789 DUP11 PUSH8 0xDE0B6B3A763FFFF NOT DUP4 ADD PUSH2 0x2B0F JUMP JUMPDEST SWAP8 POP POP POP POP POP POP POP POP PUSH2 0x1868 JUMP JUMPDEST PUSH1 0x0 SWAP8 POP POP POP POP POP POP POP POP PUSH2 0x1868 JUMP JUMPDEST PUSH1 0x0 PUSH2 0x47B9 PUSH4 0x2F1A0BC9 PUSH1 0xE0 SHL PUSH2 0xF02 JUMP JUMPDEST DUP3 EQ DUP1 PUSH2 0x47D4 JUMPI POP PUSH2 0x47D1 PUSH4 0x7587926B PUSH1 0xE1 SHL PUSH2 0xF02 JUMP JUMPDEST DUP3 EQ JUMPDEST DUP1 PUSH2 0x74A JUMPI POP PUSH2 0x74A DUP3 PUSH2 0x4829 JUMP JUMPDEST PUSH1 0x0 PUSH2 0x47F2 DUP3 ISZERO ISZERO PUSH1 0x4 PUSH2 0x15B6 JUMP JUMPDEST DUP2 DUP4 DUP2 PUSH2 0x47FB JUMPI INVALID JUMPDEST DIV SWAP4 SWAP3 POP POP POP JUMP JUMPDEST PUSH1 0x0 PUSH8 0xDE0B6B3A7640000 DUP3 LT PUSH2 0x481B JUMPI PUSH1 0x0 PUSH2 0x74A JUMP JUMPDEST POP PUSH8 0xDE0B6B3A7640000 SUB SWAP1 JUMP JUMPDEST PUSH1 0x0 PUSH2 0x483B PUSH4 0x1C74C917 PUSH1 0xE1 SHL PUSH2 0xF02 JUMP JUMPDEST DUP3 EQ DUP1 PUSH2 0x74A JUMPI POP PUSH2 0x4853 PUSH4 0x50DD6ED9 PUSH1 0xE0 SHL PUSH2 0xF02 JUMP JUMPDEST SWAP1 SWAP2 EQ SWAP2 SWAP1 POP JUMP JUMPDEST DUP1 CALLDATALOAD PUSH2 0xC65 DUP2 PUSH2 0x52ED JUMP JUMPDEST PUSH1 0x0 DUP3 PUSH1 0x1F DUP4 ADD SLT PUSH2 0x4876 JUMPI DUP1 DUP2 REVERT JUMPDEST DUP2 CALLDATALOAD PUSH1 0x20 PUSH2 0x488B PUSH2 0x4886 DUP4 PUSH2 0x52D0 JUMP JUMPDEST PUSH2 0x52AD JUMP JUMPDEST DUP3 DUP2 MSTORE DUP2 DUP2 ADD SWAP1 DUP6 DUP4 ADD DUP4 DUP6 MUL DUP8 ADD DUP5 ADD DUP9 LT ISZERO PUSH2 0x48A7 JUMPI DUP6 DUP7 REVERT JUMPDEST DUP6 JUMPDEST DUP6 DUP2 LT ISZERO PUSH2 0x48C5 JUMPI DUP2 CALLDATALOAD DUP5 MSTORE SWAP3 DUP5 ADD SWAP3 SWAP1 DUP5 ADD SWAP1 PUSH1 0x1 ADD PUSH2 0x48A9 JUMP JUMPDEST POP SWAP1 SWAP8 SWAP7 POP POP POP POP POP POP POP JUMP JUMPDEST PUSH1 0x0 DUP3 PUSH1 0x1F DUP4 ADD SLT PUSH2 0x48E2 JUMPI DUP1 DUP2 REVERT JUMPDEST DUP2 MLOAD PUSH1 0x20 PUSH2 0x48F2 PUSH2 0x4886 DUP4 PUSH2 0x52D0 JUMP JUMPDEST DUP3 DUP2 MSTORE DUP2 DUP2 ADD SWAP1 DUP6 DUP4 ADD DUP4 DUP6 MUL DUP8 ADD DUP5 ADD DUP9 LT ISZERO PUSH2 0x490E JUMPI DUP6 DUP7 REVERT JUMPDEST DUP6 JUMPDEST DUP6 DUP2 LT ISZERO PUSH2 0x48C5 JUMPI DUP2 MLOAD DUP5 MSTORE SWAP3 DUP5 ADD SWAP3 SWAP1 DUP5 ADD SWAP1 PUSH1 0x1 ADD PUSH2 0x4910 JUMP JUMPDEST PUSH1 0x0 DUP3 PUSH1 0x1F DUP4 ADD SLT PUSH2 0x493C JUMPI DUP1 DUP2 REVERT JUMPDEST DUP2 CALLDATALOAD PUSH1 0x1 PUSH1 0x1 PUSH1 0x40 SHL SUB DUP2 GT ISZERO PUSH2 0x494F JUMPI INVALID JUMPDEST PUSH2 0x4962 PUSH1 0x1F DUP3 ADD PUSH1 0x1F NOT AND PUSH1 0x20 ADD PUSH2 0x52AD JUMP JUMPDEST DUP2 DUP2 MSTORE DUP5 PUSH1 0x20 DUP4 DUP7 ADD ADD GT ISZERO PUSH2 0x4976 JUMPI DUP3 DUP4 REVERT JUMPDEST DUP2 PUSH1 0x20 DUP6 ADD PUSH1 0x20 DUP4 ADD CALLDATACOPY SWAP1 DUP2 ADD PUSH1 0x20 ADD SWAP2 SWAP1 SWAP2 MSTORE SWAP3 SWAP2 POP POP JUMP JUMPDEST DUP1 MLOAD PUSH1 0x1 DUP2 LT PUSH2 0xC65 JUMPI PUSH1 0x0 DUP1 REVERT JUMPDEST DUP1 CALLDATALOAD PUSH2 0xC65 DUP2 PUSH2 0x5310 JUMP JUMPDEST PUSH1 0x0 PUSH2 0x120 DUP1 DUP4 DUP6 SUB SLT ISZERO PUSH2 0x49BD JUMPI DUP2 DUP3 REVERT JUMPDEST PUSH2 0x49C6 DUP2 PUSH2 0x52AD JUMP JUMPDEST SWAP2 POP POP PUSH2 0x49D2 DUP3 PUSH2 0x499F JUMP JUMPDEST DUP2 MSTORE PUSH2 0x49E0 PUSH1 0x20 DUP4 ADD PUSH2 0x485B JUMP JUMPDEST PUSH1 0x20 DUP3 ADD MSTORE PUSH2 0x49F1 PUSH1 0x40 DUP4 ADD PUSH2 0x485B JUMP JUMPDEST PUSH1 0x40 DUP3 ADD MSTORE PUSH1 0x60 DUP3 ADD CALLDATALOAD PUSH1 0x60 DUP3 ADD MSTORE PUSH1 0x80 DUP3 ADD CALLDATALOAD PUSH1 0x80 DUP3 ADD MSTORE PUSH1 0xA0 DUP3 ADD CALLDATALOAD PUSH1 0xA0 DUP3 ADD MSTORE PUSH2 0x4A20 PUSH1 0xC0 DUP4 ADD PUSH2 0x485B JUMP JUMPDEST PUSH1 0xC0 DUP3 ADD MSTORE PUSH2 0x4A31 PUSH1 0xE0 DUP4 ADD PUSH2 0x485B JUMP JUMPDEST PUSH1 0xE0 DUP3 ADD MSTORE PUSH2 0x100 DUP1 DUP4 ADD CALLDATALOAD PUSH1 0x1 PUSH1 0x1 PUSH1 0x40 SHL SUB DUP2 GT ISZERO PUSH2 0x4A51 JUMPI PUSH1 0x0 DUP1 REVERT JUMPDEST PUSH2 0x4A5D DUP6 DUP3 DUP7 ADD PUSH2 0x492C JUMP JUMPDEST DUP3 DUP5 ADD MSTORE POP POP SWAP3 SWAP2 POP POP JUMP JUMPDEST PUSH1 0x0 PUSH1 0x20 DUP3 DUP5 SUB SLT ISZERO PUSH2 0x4A7A JUMPI DUP1 DUP2 REVERT JUMPDEST DUP2 CALLDATALOAD PUSH2 0xA1D DUP2 PUSH2 0x52ED JUMP JUMPDEST PUSH1 0x0 DUP1 PUSH1 0x40 DUP4 DUP6 SUB SLT ISZERO PUSH2 0x4A97 JUMPI DUP1 DUP2 REVERT JUMPDEST DUP3 CALLDATALOAD PUSH2 0x4AA2 DUP2 PUSH2 0x52ED JUMP JUMPDEST SWAP2 POP PUSH1 0x20 DUP4 ADD CALLDATALOAD PUSH2 0x4AB2 DUP2 PUSH2 0x52ED JUMP JUMPDEST DUP1 SWAP2 POP POP SWAP3 POP SWAP3 SWAP1 POP JUMP JUMPDEST PUSH1 0x0 DUP1 PUSH1 0x0 PUSH1 0x60 DUP5 DUP7 SUB SLT ISZERO PUSH2 0x4AD1 JUMPI DUP1 DUP2 REVERT JUMPDEST DUP4 CALLDATALOAD PUSH2 0x4ADC DUP2 PUSH2 0x52ED JUMP JUMPDEST SWAP3 POP PUSH1 0x20 DUP5 ADD CALLDATALOAD PUSH2 0x4AEC DUP2 PUSH2 0x52ED JUMP JUMPDEST SWAP3 SWAP6 SWAP3 SWAP5 POP POP POP PUSH1 0x40 SWAP2 SWAP1 SWAP2 ADD CALLDATALOAD SWAP1 JUMP JUMPDEST PUSH1 0x0 DUP1 PUSH1 0x0 DUP1 PUSH1 0x0 DUP1 PUSH1 0x0 PUSH1 0xE0 DUP9 DUP11 SUB SLT ISZERO PUSH2 0x4B17 JUMPI DUP5 DUP6 REVERT JUMPDEST DUP8 CALLDATALOAD PUSH2 0x4B22 DUP2 PUSH2 0x52ED JUMP JUMPDEST SWAP7 POP PUSH1 0x20 DUP9 ADD CALLDATALOAD PUSH2 0x4B32 DUP2 PUSH2 0x52ED JUMP JUMPDEST SWAP6 POP PUSH1 0x40 DUP9 ADD CALLDATALOAD SWAP5 POP PUSH1 0x60 DUP9 ADD CALLDATALOAD SWAP4 POP PUSH1 0x80 DUP9 ADD CALLDATALOAD PUSH1 0xFF DUP2 AND DUP2 EQ PUSH2 0x4B55 JUMPI DUP4 DUP5 REVERT JUMPDEST SWAP7 SWAP10 SWAP6 SWAP9 POP SWAP4 SWAP7 SWAP3 SWAP6 SWAP5 PUSH1 0xA0 DUP5 ADD CALLDATALOAD SWAP5 POP PUSH1 0xC0 SWAP1 SWAP4 ADD CALLDATALOAD SWAP3 SWAP2 POP POP JUMP JUMPDEST PUSH1 0x0 DUP1 PUSH1 0x40 DUP4 DUP6 SUB SLT ISZERO PUSH2 0x4B84 JUMPI DUP2 DUP3 REVERT JUMPDEST DUP3 CALLDATALOAD PUSH2 0x4B8F DUP2 PUSH2 0x52ED JUMP JUMPDEST SWAP5 PUSH1 0x20 SWAP4 SWAP1 SWAP4 ADD CALLDATALOAD SWAP4 POP POP POP JUMP JUMPDEST PUSH1 0x0 DUP1 PUSH1 0x0 PUSH1 0x60 DUP5 DUP7 SUB SLT ISZERO PUSH2 0x4BB1 JUMPI DUP1 DUP2 REVERT JUMPDEST DUP4 MLOAD PUSH1 0x1 PUSH1 0x1 PUSH1 0x40 SHL SUB DUP1 DUP3 GT ISZERO PUSH2 0x4BC7 JUMPI DUP3 DUP4 REVERT JUMPDEST DUP2 DUP7 ADD SWAP2 POP DUP7 PUSH1 0x1F DUP4 ADD SLT PUSH2 0x4BDA JUMPI DUP3 DUP4 REVERT JUMPDEST DUP2 MLOAD PUSH1 0x20 PUSH2 0x4BEA PUSH2 0x4886 DUP4 PUSH2 0x52D0 JUMP JUMPDEST DUP3 DUP2 MSTORE DUP2 DUP2 ADD SWAP1 DUP6 DUP4 ADD DUP4 DUP6 MUL DUP8 ADD DUP5 ADD DUP13 LT ISZERO PUSH2 0x4C06 JUMPI DUP8 DUP9 REVERT JUMPDEST DUP8 SWAP7 POP JUMPDEST DUP5 DUP8 LT ISZERO PUSH2 0x4C31 JUMPI DUP1 MLOAD PUSH2 0x4C1D DUP2 PUSH2 0x52ED JUMP JUMPDEST DUP4 MSTORE PUSH1 0x1 SWAP7 SWAP1 SWAP7 ADD SWAP6 SWAP2 DUP4 ADD SWAP2 DUP4 ADD PUSH2 0x4C0A JUMP JUMPDEST POP SWAP2 DUP10 ADD MLOAD SWAP2 SWAP8 POP SWAP1 SWAP4 POP POP POP DUP1 DUP3 GT ISZERO PUSH2 0x4C4A JUMPI DUP3 DUP4 REVERT JUMPDEST POP PUSH2 0x4C57 DUP7 DUP3 DUP8 ADD PUSH2 0x48D2 JUMP JUMPDEST SWAP3 POP POP PUSH1 0x40 DUP5 ADD MLOAD SWAP1 POP SWAP3 POP SWAP3 POP SWAP3 JUMP JUMPDEST PUSH1 0x0 PUSH1 0x20 DUP3 DUP5 SUB SLT ISZERO PUSH2 0x4C79 JUMPI DUP1 DUP2 REVERT JUMPDEST DUP2 CALLDATALOAD PUSH2 0xA1D DUP2 PUSH2 0x5302 JUMP JUMPDEST PUSH1 0x0 PUSH1 0x20 DUP3 DUP5 SUB SLT ISZERO PUSH2 0x4C95 JUMPI DUP1 DUP2 REVERT JUMPDEST DUP2 MLOAD PUSH2 0xA1D DUP2 PUSH2 0x5302 JUMP JUMPDEST PUSH1 0x0 DUP1 PUSH1 0x0 DUP1 PUSH1 0x0 DUP1 PUSH1 0x0 PUSH1 0xE0 DUP9 DUP11 SUB SLT ISZERO PUSH2 0x4CBA JUMPI DUP1 DUP2 REVERT JUMPDEST DUP8 CALLDATALOAD SWAP7 POP PUSH1 0x20 DUP9 ADD CALLDATALOAD PUSH2 0x4CCC DUP2 PUSH2 0x52ED JUMP JUMPDEST SWAP6 POP PUSH1 0x40 DUP9 ADD CALLDATALOAD PUSH2 0x4CDC DUP2 PUSH2 0x52ED JUMP JUMPDEST SWAP5 POP PUSH1 0x60 DUP9 ADD CALLDATALOAD PUSH1 0x1 PUSH1 0x1 PUSH1 0x40 SHL SUB DUP1 DUP3 GT ISZERO PUSH2 0x4CF7 JUMPI DUP3 DUP4 REVERT JUMPDEST PUSH2 0x4D03 DUP12 DUP4 DUP13 ADD PUSH2 0x4866 JUMP JUMPDEST SWAP6 POP PUSH1 0x80 DUP11 ADD CALLDATALOAD SWAP5 POP PUSH1 0xA0 DUP11 ADD CALLDATALOAD SWAP4 POP PUSH1 0xC0 DUP11 ADD CALLDATALOAD SWAP2 POP DUP1 DUP3 GT ISZERO PUSH2 0x4D26 JUMPI DUP3 DUP4 REVERT JUMPDEST POP PUSH2 0x4D33 DUP11 DUP3 DUP12 ADD PUSH2 0x492C JUMP JUMPDEST SWAP2 POP POP SWAP3 SWAP6 SWAP9 SWAP2 SWAP5 SWAP8 POP SWAP3 SWAP6 POP JUMP JUMPDEST PUSH1 0x0 PUSH1 0x20 DUP3 DUP5 SUB SLT ISZERO PUSH2 0x4D53 JUMPI DUP1 DUP2 REVERT JUMPDEST DUP2 CALLDATALOAD PUSH1 0x1 PUSH1 0x1 PUSH1 0xE0 SHL SUB NOT DUP2 AND DUP2 EQ PUSH2 0xA1D JUMPI DUP2 DUP3 REVERT JUMPDEST PUSH1 0x0 PUSH1 0x20 DUP3 DUP5 SUB SLT ISZERO PUSH2 0x4D7B JUMPI DUP1 DUP2 REVERT JUMPDEST DUP2 MLOAD PUSH2 0xA1D DUP2 PUSH2 0x52ED JUMP JUMPDEST PUSH1 0x0 DUP1 PUSH1 0x40 DUP4 DUP6 SUB SLT ISZERO PUSH2 0x4D98 JUMPI DUP2 DUP3 REVERT JUMPDEST DUP3 CALLDATALOAD PUSH2 0x4DA3 DUP2 PUSH2 0x52ED JUMP JUMPDEST SWAP2 POP PUSH1 0x20 DUP4 ADD CALLDATALOAD PUSH1 0x1 PUSH1 0x1 PUSH1 0x40 SHL SUB DUP2 GT ISZERO PUSH2 0x4DBD JUMPI DUP2 DUP3 REVERT JUMPDEST PUSH2 0x4DC9 DUP6 DUP3 DUP7 ADD PUSH2 0x492C JUMP JUMPDEST SWAP2 POP POP SWAP3 POP SWAP3 SWAP1 POP JUMP JUMPDEST PUSH1 0x0 PUSH1 0x20 DUP3 DUP5 SUB SLT ISZERO PUSH2 0x4DE4 JUMPI DUP1 DUP2 REVERT JUMPDEST PUSH2 0xA1D DUP3 PUSH2 0x4990 JUMP JUMPDEST PUSH1 0x0 DUP1 PUSH1 0x40 DUP4 DUP6 SUB SLT ISZERO PUSH2 0x4DFF JUMPI DUP2 DUP3 REVERT JUMPDEST PUSH2 0x4E08 DUP4 PUSH2 0x4990 JUMP JUMPDEST SWAP2 POP PUSH1 0x20 DUP4 ADD MLOAD SWAP1 POP SWAP3 POP SWAP3 SWAP1 POP JUMP JUMPDEST PUSH1 0x0 PUSH1 0x20 DUP3 DUP5 SUB SLT ISZERO PUSH2 0x4E29 JUMPI DUP1 DUP2 REVERT JUMPDEST DUP2 MLOAD PUSH2 0xA1D DUP2 PUSH2 0x5310 JUMP JUMPDEST PUSH1 0x0 DUP1 PUSH1 0x40 DUP4 DUP6 SUB SLT ISZERO PUSH2 0x4E46 JUMPI DUP2 DUP3 REVERT JUMPDEST DUP3 MLOAD PUSH2 0x4E51 DUP2 PUSH2 0x5310 JUMP JUMPDEST PUSH1 0x20 DUP5 ADD MLOAD SWAP1 SWAP3 POP PUSH1 0x1 PUSH1 0x1 PUSH1 0x40 SHL SUB DUP2 GT ISZERO PUSH2 0x4E6C JUMPI DUP2 DUP3 REVERT JUMPDEST PUSH2 0x4DC9 DUP6 DUP3 DUP7 ADD PUSH2 0x48D2 JUMP JUMPDEST PUSH1 0x0 DUP1 PUSH1 0x0 DUP1 PUSH1 0x80 DUP6 DUP8 SUB SLT ISZERO PUSH2 0x4E8D JUMPI DUP2 DUP3 REVERT JUMPDEST DUP5 CALLDATALOAD PUSH1 0x1 PUSH1 0x1 PUSH1 0x40 SHL SUB DUP1 DUP3 GT ISZERO PUSH2 0x4EA3 JUMPI DUP4 DUP5 REVERT JUMPDEST PUSH2 0x4EAF DUP9 DUP4 DUP10 ADD PUSH2 0x49AA JUMP JUMPDEST SWAP6 POP PUSH1 0x20 DUP8 ADD CALLDATALOAD SWAP2 POP DUP1 DUP3 GT ISZERO PUSH2 0x4EC4 JUMPI DUP4 DUP5 REVERT JUMPDEST POP PUSH2 0x4ED1 DUP8 DUP3 DUP9 ADD PUSH2 0x4866 JUMP JUMPDEST SWAP5 SWAP8 SWAP5 SWAP7 POP POP POP POP PUSH1 0x40 DUP4 ADD CALLDATALOAD SWAP3 PUSH1 0x60 ADD CALLDATALOAD SWAP2 SWAP1 POP JUMP JUMPDEST PUSH1 0x0 DUP1 PUSH1 0x0 PUSH1 0x60 DUP5 DUP7 SUB SLT ISZERO PUSH2 0x4EFC JUMPI DUP1 DUP2 REVERT JUMPDEST DUP4 CALLDATALOAD PUSH1 0x1 PUSH1 0x1 PUSH1 0x40 SHL SUB DUP2 GT ISZERO PUSH2 0x4F11 JUMPI DUP2 DUP3 REVERT JUMPDEST PUSH2 0x4F1D DUP7 DUP3 DUP8 ADD PUSH2 0x49AA JUMP JUMPDEST SWAP7 PUSH1 0x20 DUP7 ADD CALLDATALOAD SWAP7 POP PUSH1 0x40 SWAP1 SWAP6 ADD CALLDATALOAD SWAP5 SWAP4 POP POP POP POP JUMP JUMPDEST PUSH1 0x0 PUSH1 0x20 DUP3 DUP5 SUB SLT ISZERO PUSH2 0x4F44 JUMPI DUP1 DUP2 REVERT JUMPDEST POP CALLDATALOAD SWAP2 SWAP1 POP JUMP JUMPDEST PUSH1 0x0 PUSH1 0x20 DUP3 DUP5 SUB SLT ISZERO PUSH2 0x4F5C JUMPI DUP1 DUP2 REVERT JUMPDEST POP MLOAD SWAP2 SWAP1 POP JUMP JUMPDEST PUSH1 0x0 DUP1 PUSH1 0x40 DUP4 DUP6 SUB SLT ISZERO PUSH2 0x4F75 JUMPI DUP2 DUP3 REVERT JUMPDEST POP POP DUP1 CALLDATALOAD SWAP3 PUSH1 0x20 SWAP1 SWAP2 ADD CALLDATALOAD SWAP2 POP JUMP JUMPDEST PUSH1 0x0 DUP1 PUSH1 0x0 DUP1 PUSH1 0x80 DUP6 DUP8 SUB SLT ISZERO PUSH2 0x4F99 JUMPI DUP2 DUP3 REVERT JUMPDEST DUP5 MLOAD SWAP4 POP PUSH1 0x20 DUP6 ADD MLOAD SWAP3 POP PUSH1 0x40 DUP6 ADD MLOAD SWAP2 POP PUSH1 0x60 DUP6 ADD MLOAD PUSH2 0x4FB9 DUP2 PUSH2 0x52ED JUMP JUMPDEST SWAP4 SWAP7 SWAP3 SWAP6 POP SWAP1 SWAP4 POP POP JUMP JUMPDEST PUSH1 0x0 DUP2 MLOAD DUP1 DUP5 MSTORE PUSH1 0x20 DUP1 DUP6 ADD SWAP5 POP DUP1 DUP5 ADD DUP4 JUMPDEST DUP4 DUP2 LT ISZERO PUSH2 0x4FF3 JUMPI DUP2 MLOAD DUP8 MSTORE SWAP6 DUP3 ADD SWAP6 SWAP1 DUP3 ADD SWAP1 PUSH1 0x1 ADD PUSH2 0x4FD7 JUMP JUMPDEST POP SWAP5 SWAP6 SWAP5 POP POP POP POP POP JUMP JUMPDEST PUSH1 0x0 DUP2 MLOAD DUP1 DUP5 MSTORE DUP2 JUMPDEST DUP2 DUP2 LT ISZERO PUSH2 0x5023 JUMPI PUSH1 0x20 DUP2 DUP6 ADD DUP2 ADD MLOAD DUP7 DUP4 ADD DUP3 ADD MSTORE ADD PUSH2 0x5007 JUMP JUMPDEST DUP2 DUP2 GT ISZERO PUSH2 0x5034 JUMPI DUP3 PUSH1 0x20 DUP4 DUP8 ADD ADD MSTORE JUMPDEST POP PUSH1 0x1F ADD PUSH1 0x1F NOT AND SWAP3 SWAP1 SWAP3 ADD PUSH1 0x20 ADD SWAP3 SWAP2 POP POP JUMP JUMPDEST SWAP2 DUP3 MSTORE PUSH1 0x1 PUSH1 0x1 PUSH1 0xE0 SHL SUB NOT AND PUSH1 0x20 DUP3 ADD MSTORE PUSH1 0x24 ADD SWAP1 JUMP JUMPDEST PUSH1 0x0 DUP3 DUP5 DUP4 CALLDATACOPY SWAP2 ADD SWAP1 DUP2 MSTORE SWAP2 SWAP1 POP JUMP JUMPDEST PUSH2 0x1901 PUSH1 0xF0 SHL DUP2 MSTORE PUSH1 0x2 DUP2 ADD SWAP3 SWAP1 SWAP3 MSTORE PUSH1 0x22 DUP3 ADD MSTORE PUSH1 0x42 ADD SWAP1 JUMP JUMPDEST PUSH1 0x1 PUSH1 0x1 PUSH1 0xA0 SHL SUB SWAP2 SWAP1 SWAP2 AND DUP2 MSTORE PUSH1 0x20 ADD SWAP1 JUMP JUMPDEST PUSH1 0x20 DUP1 DUP3 MSTORE DUP3 MLOAD DUP3 DUP3 ADD DUP2 SWAP1 MSTORE PUSH1 0x0 SWAP2 SWAP1 DUP5 DUP3 ADD SWAP1 PUSH1 0x40 DUP6 ADD SWAP1 DUP5 JUMPDEST DUP2 DUP2 LT ISZERO PUSH2 0x50E1 JUMPI DUP4 MLOAD PUSH1 0x1 PUSH1 0x1 PUSH1 0xA0 SHL SUB AND DUP4 MSTORE SWAP3 DUP5 ADD SWAP3 SWAP2 DUP5 ADD SWAP2 PUSH1 0x1 ADD PUSH2 0x50BC JUMP JUMPDEST POP SWAP1 SWAP7 SWAP6 POP POP POP POP POP POP JUMP JUMPDEST PUSH1 0x0 PUSH1 0x20 DUP3 MSTORE PUSH2 0xA1D PUSH1 0x20 DUP4 ADD DUP5 PUSH2 0x4FC4 JUMP JUMPDEST PUSH1 0x0 PUSH1 0x40 DUP3 MSTORE PUSH2 0x5113 PUSH1 0x40 DUP4 ADD DUP6 PUSH2 0x4FC4 JUMP JUMPDEST DUP3 DUP2 SUB PUSH1 0x20 DUP5 ADD MSTORE PUSH2 0x1868 DUP2 DUP6 PUSH2 0x4FC4 JUMP JUMPDEST SWAP1 ISZERO ISZERO DUP2 MSTORE PUSH1 0x20 ADD SWAP1 JUMP JUMPDEST SWAP3 ISZERO ISZERO DUP4 MSTORE PUSH1 0x20 DUP4 ADD SWAP2 SWAP1 SWAP2 MSTORE PUSH1 0x40 DUP3 ADD MSTORE PUSH1 0x60 ADD SWAP1 JUMP JUMPDEST SWAP1 DUP2 MSTORE PUSH1 0x20 ADD SWAP1 JUMP JUMPDEST SWAP3 DUP4 MSTORE PUSH1 0x1 PUSH1 0x1 PUSH1 0xA0 SHL SUB SWAP2 DUP3 AND PUSH1 0x20 DUP5 ADD MSTORE AND PUSH1 0x40 DUP3 ADD MSTORE PUSH1 0x60 ADD SWAP1 JUMP JUMPDEST SWAP6 DUP7 MSTORE PUSH1 0x1 PUSH1 0x1 PUSH1 0xA0 SHL SUB SWAP5 DUP6 AND PUSH1 0x20 DUP8 ADD MSTORE SWAP3 SWAP1 SWAP4 AND PUSH1 0x40 DUP6 ADD MSTORE PUSH1 0x60 DUP5 ADD MSTORE PUSH1 0x80 DUP4 ADD SWAP2 SWAP1 SWAP2 MSTORE PUSH1 0xA0 DUP3 ADD MSTORE PUSH1 0xC0 ADD SWAP1 JUMP JUMPDEST SWAP5 DUP6 MSTORE PUSH1 0x20 DUP6 ADD SWAP4 SWAP1 SWAP4 MSTORE PUSH1 0x40 DUP5 ADD SWAP2 SWAP1 SWAP2 MSTORE PUSH1 0x60 DUP4 ADD MSTORE PUSH1 0x1 PUSH1 0x1 PUSH1 0xA0 SHL SUB AND PUSH1 0x80 DUP3 ADD MSTORE PUSH1 0xA0 ADD SWAP1 JUMP JUMPDEST PUSH1 0x0 DUP4 DUP3 MSTORE PUSH1 0x40 PUSH1 0x20 DUP4 ADD MSTORE PUSH2 0x3E6A PUSH1 0x40 DUP4 ADD DUP5 PUSH2 0x4FFE JUMP JUMPDEST SWAP2 DUP3 MSTORE PUSH1 0x1 PUSH1 0x1 PUSH1 0xA0 SHL SUB AND PUSH1 0x20 DUP3 ADD MSTORE PUSH1 0x40 ADD SWAP1 JUMP JUMPDEST SWAP4 DUP5 MSTORE PUSH1 0xFF SWAP3 SWAP1 SWAP3 AND PUSH1 0x20 DUP5 ADD MSTORE PUSH1 0x40 DUP4 ADD MSTORE PUSH1 0x60 DUP3 ADD MSTORE PUSH1 0x80 ADD SWAP1 JUMP JUMPDEST PUSH1 0x0 PUSH1 0x20 DUP3 MSTORE PUSH2 0xA1D PUSH1 0x20 DUP4 ADD DUP5 PUSH2 0x4FFE JUMP JUMPDEST PUSH1 0x0 DUP4 DUP3 MSTORE PUSH1 0x40 PUSH1 0x20 DUP4 ADD MSTORE PUSH2 0x3E6A PUSH1 0x40 DUP4 ADD DUP5 PUSH2 0x4FC4 JUMP JUMPDEST SWAP3 DUP4 MSTORE SWAP1 ISZERO ISZERO PUSH1 0x20 DUP4 ADD MSTORE PUSH1 0x40 DUP3 ADD MSTORE PUSH1 0x60 ADD SWAP1 JUMP JUMPDEST SWAP2 DUP3 MSTORE PUSH1 0x20 DUP3 ADD MSTORE PUSH1 0x40 ADD SWAP1 JUMP JUMPDEST SWAP3 DUP4 MSTORE PUSH1 0x20 DUP4 ADD SWAP2 SWAP1 SWAP2 MSTORE PUSH1 0x40 DUP3 ADD MSTORE PUSH1 0x60 ADD SWAP1 JUMP JUMPDEST SWAP4 DUP5 MSTORE PUSH1 0x20 DUP5 ADD SWAP3 SWAP1 SWAP3 MSTORE PUSH1 0x40 DUP4 ADD MSTORE PUSH1 0x60 DUP3 ADD MSTORE PUSH1 0x80 ADD SWAP1 JUMP JUMPDEST PUSH1 0xFF SWAP2 SWAP1 SWAP2 AND DUP2 MSTORE PUSH1 0x20 ADD SWAP1 JUMP JUMPDEST PUSH1 0x40 MLOAD DUP2 DUP2 ADD PUSH1 0x1 PUSH1 0x1 PUSH1 0x40 SHL SUB DUP2 GT DUP3 DUP3 LT OR ISZERO PUSH2 0x52C8 JUMPI INVALID JUMPDEST PUSH1 0x40 MSTORE SWAP2 SWAP1 POP JUMP JUMPDEST PUSH1 0x0 PUSH1 0x1 PUSH1 0x1 PUSH1 0x40 SHL SUB DUP3 GT ISZERO PUSH2 0x52E3 JUMPI INVALID JUMPDEST POP PUSH1 0x20 SWAP1 DUP2 MUL ADD SWAP1 JUMP JUMPDEST PUSH1 0x1 PUSH1 0x1 PUSH1 0xA0 SHL SUB DUP2 AND DUP2 EQ PUSH2 0x761 JUMPI PUSH1 0x0 DUP1 REVERT JUMPDEST DUP1 ISZERO ISZERO DUP2 EQ PUSH2 0x761 JUMPI PUSH1 0x0 DUP1 REVERT JUMPDEST PUSH1 0x2 DUP2 LT PUSH2 0x761 JUMPI PUSH1 0x0 DUP1 REVERT INVALID LOG2 PUSH5 0x6970667358 0x22 SLT KECCAK256 PUSH14 0x937053818ECAA57AA0FB19892A75 CODESIZE JUMPI LOG0 DUP10 CREATE 0x26 0xD0 EXP NUMBER MSIZE 0x5D SWAP16 POP LOG0 0xEA 0x29 SLOAD PUSH5 0x736F6C6343 STOP SMOD MOD STOP CALLER "
		},
		"gasEstimates": {
			"creation": {
				"codeDepositCost": "536800",
				"executionCost": "infinite",
				"totalCost": "infinite"
			},
			"external": {
				"create(string,string,address[],uint256,address[],uint256[],uint256,address)": "infinite",
				"getCreationCode()": "infinite",
				"getCreationCodeContracts()": "infinite",
				"getPauseConfiguration()": "infinite",
				"getVault()": "infinite",
				"isPoolFromFactory(address)": "1354"
			}
		},
		"methodIdentifiers": {
			"create(string,string,address[],uint256,address[],uint256[],uint256,address)": "4555fb8d",
			"getCreationCode()": "00c194db",
			"getCreationCodeContracts()": "174481fa",
			"getPauseConfiguration()": "2da47c40",
			"getVault()": "8d928af8",
			"isPoolFromFactory(address)": "6634b753"
		}
	},
	"abi": [
		{
			"inputs": [
				{
					"internalType": "contract IVault",
					"name": "vault",
					"type": "address"
				}
			],
			"stateMutability": "nonpayable",
			"type": "constructor"
		},
		{
			"anonymous": false,
			"inputs": [
				{
					"indexed": true,
					"internalType": "address",
					"name": "pool",
					"type": "address"
				}
			],
			"name": "PoolCreated",
			"type": "event"
		},
		{
			"inputs": [
				{
					"internalType": "string",
					"name": "name",
					"type": "string"
				},
				{
					"internalType": "string",
					"name": "symbol",
					"type": "string"
				},
				{
					"internalType": "contract IERC20[]",
					"name": "tokens",
					"type": "address[]"
				},
				{
					"internalType": "uint256",
					"name": "amplificationParameter",
					"type": "uint256"
				},
				{
					"internalType": "contract IRateProvider[]",
					"name": "rateProviders",
					"type": "address[]"
				},
				{
					"internalType": "uint256[]",
					"name": "tokenRateCacheDurations",
					"type": "uint256[]"
				},
				{
					"internalType": "uint256",
					"name": "swapFeePercentage",
					"type": "uint256"
				},
				{
					"internalType": "address",
					"name": "owner",
					"type": "address"
				}
			],
			"name": "create",
			"outputs": [
				{
					"internalType": "contract StablePhantomPool",
					"name": "",
					"type": "address"
				}
			],
			"stateMutability": "nonpayable",
			"type": "function"
		},
		{
			"inputs": [],
			"name": "getCreationCode",
			"outputs": [
				{
					"internalType": "bytes",
					"name": "",
					"type": "bytes"
				}
			],
			"stateMutability": "view",
			"type": "function"
		},
		{
			"inputs": [],
			"name": "getCreationCodeContracts",
			"outputs": [
				{
					"internalType": "address",
					"name": "contractA",
					"type": "address"
				},
				{
					"internalType": "address",
					"name": "contractB",
					"type": "address"
				}
			],
			"stateMutability": "view",
			"type": "function"
		},
		{
			"inputs": [],
			"name": "getPauseConfiguration",
			"outputs": [
				{
					"internalType": "uint256",
					"name": "pauseWindowDuration",
					"type": "uint256"
				},
				{
					"internalType": "uint256",
					"name": "bufferPeriodDuration",
					"type": "uint256"
				}
			],
			"stateMutability": "view",
			"type": "function"
		},
		{
			"inputs": [],
			"name": "getVault",
			"outputs": [
				{
					"internalType": "contract IVault",
					"name": "",
					"type": "address"
				}
			],
			"stateMutability": "view",
			"type": "function"
		},
		{
			"inputs": [
				{
					"internalType": "address",
					"name": "pool",
					"type": "address"
				}
			],
			"name": "isPoolFromFactory",
			"outputs": [
				{
					"internalType": "bool",
					"name": "",
					"type": "bool"
				}
			],
			"stateMutability": "view",
			"type": "function"
		}
	]
}