{
	"data": {
		"bytecode": {
			"linkReferences": {},
			"object": "6103206040527f6e71edae12b1b97f4d1f60370fef10105fa2faae0126114a169c64845d6126c9610120523480156200003757600080fd5b5060405162005218380380620052188339810160408190526200005a9162000ae6565b8886516002146200006d57600062000070565b60025b8989898a516001600160401b03811180156200008b57600080fd5b50604051908082528060200260200182016040528015620000b6578160200160208202803683370190505b5089898989828289898d8280604051806040016040528060018152602001603160f81b81525085858a336001600160a01b031660001b806080818152505050806001600160a01b031660a0816001600160a01b031660601b815250505081600390805190602001906200012b929190620008fe565b50805162000141906004906020840190620008fe565b505060058054601260ff1990911617905550815160209283012060c052805191012060e052507f8b73c3c69bb8fe3d512ecc4cf759cc79239f7b179b0ffacaa9a75d522b39400f6101005260601b6001600160601b0319166101405250620001b490506276a70083111561019462000569565b620001c862278d0082111561019562000569565b4290910161016081905201610180528551620001ea906002111560c862000569565b62000204620001f86200057e565b8751111560c962000569565b6200021a866200058360201b620010041760201c565b62000225846200058f565b6040516309b2760f60e01b81526000906001600160a01b038c16906309b2760f9062000256908d9060040162000c7e565b602060405180830381600087803b1580156200027157600080fd5b505af115801562000286573d6000803e3d6000fd5b505050506040513d601f19601f82011682018060405250810190620002ac919062000acd565b604051633354e3e960e11b81529091506001600160a01b038c16906366a9c7d290620002e19084908b908b9060040162000be4565b600060405180830381600087803b158015620002fc57600080fd5b505af115801562000311573d6000803e3d6000fd5b5050506101a091909152506200033c9950505060018d1015965061012c955050620005699350505050565b6200034f61138886111561012d62000569565b85516101c0819052865187906000906200036557fe5b60200260200101516001600160a01b03166101e0816001600160a01b031660601b81525050866001815181106200039857fe5b60200260200101516001600160a01b0316610200816001600160a01b031660601b8152505060028111620003ce576000620003e5565b86600281518110620003dc57fe5b60200260200101515b60601b6001600160601b0319166102205260038111620004075760006200041e565b866003815181106200041557fe5b60200260200101515b60601b6001600160601b03191661024052600481116200044057600062000457565b866004815181106200044e57fe5b60200260200101515b6001600160a01b0316610260816001600160a01b031660601b815250506200049a876000815181106200048657fe5b60200260200101516200061b60201b60201c565b610280528651620004b390889060019081106200048657fe5b6102a05260028111620004c8576000620004da565b620004da876002815181106200048657fe5b6102c05260038111620004ef57600062000501565b62000501876003815181106200048657fe5b6102e052600481116200051657600062000528565b62000528876004815181106200048657fe5b610300818152505060006200054b876103e8620006ef60201b6200100e1760201c565b905062000558816200071e565b505050505050505050505062000cd6565b816200057a576200057a816200075d565b5050565b600590565b806200057a81620007b0565b620005a464e8d4a5100082101560cb62000569565b620005bc67016345785d8a000082111560ca62000569565b620005db8160c06008546200083d60201b62001032179092919060201c565b6008556040517fa9ba3ffe0b6c366b81232caab38605a0699ad5398d6cce76f91ee809e322dafc906200061090839062000c93565b60405180910390a150565b60006001600160a01b0382163014156200063f5750670de0b6b3a7640000620006ea565b6000826001600160a01b031663313ce5676040518163ffffffff1660e01b815260040160206040518083038186803b1580156200067b57600080fd5b505afa15801562000690573d6000803e3d6000fd5b505050506040513d601f19601f82011682018060405250810190620006b6919062000bc1565b60ff1690506000620006d56012836200085260201b620010471760201c565b905080600a0a670de0b6b3a764000002925050505b919050565b6000828202620007178415806200070f5750838583816200070c57fe5b04145b600362000569565b9392505050565b6200072c818042806200086a565b7fa0d01593e47e69d07e0ccd87bece09411e07dd1ed40ca8f2e7af2976542a02338160405162000610919062000c93565b62461bcd60e51b6000908152602060045260076024526642414c23000030600a808404818106603090810160081b95839006959095019082900491820690940160101b939093010160c81b604452606490fd5b600281511015620007c1576200083a565b600081600081518110620007d157fe5b602002602001015190506000600190505b825181101562000837576000838281518110620007fb57fe5b602002602001015190506200082c816001600160a01b0316846001600160a01b03161060656200056960201b60201c565b9150600101620007e2565b50505b50565b6001600160401b03811b1992909216911b1790565b60006200086483831115600162000569565b50900390565b6200088b816001600160401b031660c0620008fa60201b6200105d1760201c565b620008ac836001600160401b03166080620008fa60201b6200105d1760201c565b620008cd856001600160401b03166040620008fa60201b6200105d1760201c565b620008ee876001600160401b03166000620008fa60201b6200105d1760201c565b17171760095550505050565b1b90565b828054600181600116156101000203166002900490600052602060002090601f01602090048101928262000936576000855562000981565b82601f106200095157805160ff191683800117855562000981565b8280016001018555821562000981579182015b828111156200098157825182559160200191906001019062000964565b506200098f92915062000993565b5090565b5b808211156200098f576000815560010162000994565b8051620006ea8162000cc0565b600082601f830112620009c8578081fd5b815160206001600160401b03821115620009de57fe5b808202620009ee82820162000c9c565b83815282810190868401838801850189101562000a09578687fd5b8693505b8584101562000a3857805162000a238162000cc0565b83526001939093019291840191840162000a0d565b50979650505050505050565b600082601f83011262000a55578081fd5b81516001600160401b0381111562000a6957fe5b602062000a7f601f8301601f1916820162000c9c565b828152858284870101111562000a93578384fd5b835b8381101562000ab257858101830151828201840152820162000a95565b8381111562000ac357848385840101525b5095945050505050565b60006020828403121562000adf578081fd5b5051919050565b60008060008060008060008060006101208a8c03121562000b05578485fd5b62000b108a620009aa565b60208b01519099506001600160401b038082111562000b2d578687fd5b62000b3b8d838e0162000a44565b995060408c015191508082111562000b51578687fd5b62000b5f8d838e0162000a44565b985060608c015191508082111562000b75578687fd5b5062000b848c828d01620009b7565b96505060808a0151945060a08a0151935060c08a0151925060e08a0151915062000bb26101008b01620009aa565b90509295985092959850929598565b60006020828403121562000bd3578081fd5b815160ff8116811462000717578182fd5b60006060820185835260206060818501528186518084526080860191508288019350845b8181101562000c2f5784516001600160a01b03168352938301939183019160010162000c08565b505084810360408601528551808252908201925081860190845b8181101562000c705782516001600160a01b03168552938301939183019160010162000c49565b509298975050505050505050565b602081016003831062000c8d57fe5b91905290565b90815260200190565b6040518181016001600160401b038111828210171562000cb857fe5b604052919050565b6001600160a01b03811681146200083a57600080fd5b60805160a05160601c60c05160e05161010051610120516101405160601c61016051610180516101a0516101c0516101e05160601c6102005160601c6102205160601c6102405160601c6102605160601c610280516102a0516102c0516102e0516103005161444d62000dcb6000398061209352508061206f52508061204b525080612027525080612003525080611c69525080611c27525080611be55250806128be52508061288c5250806110715250806107e35250806114095250806113e5525080610ae3525080610d58525080611605525080611647525080611626525080610abf525080610a49525061444d6000f3fe608060405234801561001057600080fd5b506004361061021c5760003560e01c80636daccffa116101255780639b02cdde116100ad578063aaabadc51161007c578063aaabadc514610475578063d505accf1461047d578063d5c096c414610490578063dd62ed3e146104a3578063eb0f24d6146104b65761021c565b80639b02cdde146104265780639d2c110c1461043c578063a457c2d71461044f578063a9059cbb146104625761021c565b8063851c1bb3116100f4578063851c1bb3146103db57806387ec6817146103ee578063893d20e8146104015780638d928af81461041657806395d89b411461041e5761021c565b80636daccffa1461037d57806370a082311461039457806374f3b009146103a75780637ecebe00146103c85761021c565b8063313ce567116101a85780633950935111610177578063395093511461032657806350dd6ed91461033957806355c676281461034c5780636028bfd414610354578063679aefce146103755761021c565b8063313ce567146102ee5780633644e5151461030357806338e9922e1461030b57806338fff2d01461031e5761021c565b806318160ddd116101ef57806318160ddd146102945780631c0de0511461029c5780631dd746ea146102b357806323b872dd146102c85780632f1a0bc9146102db5761021c565b806301ec954a1461022157806306fdde031461024a578063095ea7b31461025f57806316c38b3c1461027f575b600080fd5b61023461022f366004613fed565b6104be565b6040516102419190614258565b60405180910390f35b61025261055c565b604051610241919061432e565b61027261026d366004613c83565b6105f3565b6040516102419190614235565b61029261028d366004613d79565b61060a565b005b61023461061e565b6102a4610624565b60405161024193929190614240565b6102bb61064d565b60405161024191906141fd565b6102726102d6366004613bce565b61065c565b6102926102e93660046140c0565b6106d2565b6102f66107b5565b6040516102419190614399565b6102346107be565b6102926103193660046140a8565b6107c8565b6102346107e1565b610272610334366004613c83565b610805565b610292610347366004613e97565b610840565b61023461085e565b610367610362366004613db1565b61086f565b604051610241929190614341565b6102346108a6565b610385610972565b6040516102419392919061435a565b6102346103a2366004613b7a565b61098d565b6103ba6103b5366004613db1565b6109ac565b604051610241929190614210565b6102346103d6366004613b7a565b610a2a565b6102346103e9366004613e53565b610a45565b6103676103fc366004613db1565b610a97565b610409610abd565b60405161024191906141e9565b610409610ae1565b610252610b05565b61042e610b66565b604051610241929190614370565b61023461044a36600461405d565b610b70565b61027261045d366004613c83565b610cce565b610272610470366004613c83565b610d0c565b610409610d19565b61029261048b366004613c0e565b610d23565b6103ba61049e366004613db1565b610e6c565b6102346104b1366004613b96565b610f9b565b610292610fd8565b600084608001516104eb6104d0610ae1565b6001600160a01b0316336001600160a01b03161460cd611061565b6105006104f66107e1565b82146101f4611061565b610512848461050d61106f565b611093565b600061051c6110b0565b905060008751600181111561052d57fe5b146105445761053f87878787856111d7565b610551565b610551878787878561124e565b979650505050505050565b60038054604080516020601f60026000196101006001881615020190951694909404938401819004810282018101909252828152606093909290918301828280156105e85780601f106105bd576101008083540402835291602001916105e8565b820191906000526020600020905b8154815290600101906020018083116105cb57829003601f168201915b505050505090505b90565b60006106003384846112b2565b5060015b92915050565b61061261131a565b61061b81611348565b50565b60025490565b60008060006106316113c6565b15925061063c6113e3565b9150610646611407565b9050909192565b60606106576110b0565b905090565b6000806106698533610f9b565b905061068d336001600160a01b03871614806106855750838210155b61019e611061565b61069885858561142b565b336001600160a01b038616148015906106b357506000198114155b156106c5576106c585338584036112b2565b60019150505b9392505050565b6106da61131a565b6106ea600183101561012c611061565b6106fb61138883111561012d611061565b60006107078242611047565b905061071b6201518082101561013d611061565b60008061072661150b565b91509150610737811561013e611061565b6000610745866103e861100e565b905060008382116107745761076f610760620151808661100e565b61076a848861100e565b61157f565b61078e565b61078e610784620151808461100e565b61076a868861100e565b90506107a0600282111561013f611061565b6107ac848342896115b2565b50505050505050565b60055460ff1690565b6000610657611601565b6107d061131a565b6107d861169e565b61061b816116b3565b7f000000000000000000000000000000000000000000000000000000000000000090565b3360008181526001602090815260408083206001600160a01b0387168452909152812054909161060091859061083b908661171e565b6112b2565b61084861131a565b61085061169e565b61085a8282611730565b5050565b6008546000906106579060c061182f565b60006060610885865161088061106f565b61183c565b61089a898989898989896118496118ec61194d565b97509795505050505050565b6000806108b1610ae1565b6001600160a01b031663f94d46686108c76107e1565b6040518263ffffffff1660e01b81526004016108e39190614258565b60006040518083038186803b1580156108fb57600080fd5b505afa15801561090f573d6000803e3d6000fd5b505050506040513d6000823e601f3d908101601f191682016040526109379190810190613cae565b5091505061094c816109476110b0565b611a6f565b600061095661150b565b50905061096b828261096661061e565b611ad0565b9250505090565b600080600061097f61150b565b90949093506103e892509050565b6001600160a01b0381166000908152602081905260409020545b919050565b606080886109bb6104d0610ae1565b6109c66104f66107e1565b60006109d06110b0565b90506109dc8882611a6f565b60008060006109f18e8e8e8e8e8e8a8f611849565b925092509250610a018d84611aeb565b610a0b82856118ec565b610a1581856118ec565b909550935050505b5097509795505050505050565b6001600160a01b031660009081526006602052604090205490565b60007f000000000000000000000000000000000000000000000000000000000000000082604051602001610a7a9291906141a6565b604051602081830303815290604052805190602001209050919050565b60006060610aa8865161088061106f565b61089a89898989898989611af5611b4d61194d565b7f000000000000000000000000000000000000000000000000000000000000000090565b7f000000000000000000000000000000000000000000000000000000000000000090565b60048054604080516020601f60026000196101006001881615020190951694909404938401819004810282018101909252828152606093909290918301828280156105e85780601f106105bd576101008083540402835291602001916105e8565b600a54600b549091565b60008360800151610b826104d0610ae1565b610b8d6104f66107e1565b6000610b9c8660200151611bae565b90506000610bad8760400151611bae565b9050600087516001811115610bbe57fe5b1415610c4e576000610bd38860600151611cb4565b90506000818960600151039050610bf78960200151610bf28387611cd5565b611ce1565b60608901829052610c088885611cd5565b9750610c148784611cd5565b9650610c24896060015185611cd5565b60608a01526000610c368a8a8a611cf3565b9050610c428185611d2c565b96505050505050610cc6565b610c588683611cd5565b9550610c648582611cd5565b9450610c74876060015182611cd5565b60608801526000610c86888888611d38565b9050610c928184611d67565b90506000610c9f82611d73565b905060008282039050610cba8a60200151610bf28388611cd5565b509450610cc692505050565b509392505050565b600080610cdb3385610f9b565b9050808310610cf557610cf0338560006112b2565b610d02565b610d0233858584036112b2565b5060019392505050565b600061060033848461142b565b6000610657611d99565b610d318442111560d1611061565b6001600160a01b0387166000908152600660209081526040808320549051909291610d88917f0000000000000000000000000000000000000000000000000000000000000000918c918c918c9188918d9101614280565b6040516020818303038152906040528051906020012090506000610dab82611e13565b9050600060018288888860405160008152602001604052604051610dd29493929190614310565b6020604051602081039080840390855afa158015610df4573d6000803e3d6000fd5b5050604051601f1901519150610e3690506001600160a01b03821615801590610e2e57508b6001600160a01b0316826001600160a01b0316145b6101f8611061565b6001600160a01b038b166000908152600660205260409020600185019055610e5f8b8b8b6112b2565b5050505050505050505050565b60608088610e7b6104d0610ae1565b610e866104f66107e1565b6000610e906110b0565b9050610e9a61061e565b610f4b57600080610eae8d8d8d868b611e2f565b91509150610ec7610ebd611ebe565b83101560cc611061565b610ed96000610ed4611ebe565b611ec5565b610eec8b610ee5611ebe565b8403611ec5565b610ef68184611b4d565b80610eff61106f565b6001600160401b0381118015610f1457600080fd5b50604051908082528060200260200182016040528015610f3e578160200160208202803683370190505b5095509550505050610a1d565b610f558882611a6f565b6000806000610f6a8e8e8e8e8e8e8a8f611af5565b925092509250610f7a8c84611ec5565b610f848285611b4d565b610f8e81856118ec565b9095509350610a1d915050565b6000610fa5610ae1565b6001600160a01b0316826001600160a01b03161415610fc75750600019610604565b610fd18383611ecf565b9050610604565b610fe061131a565b600080610feb61150b565b91509150610ffb81610140611061565b61085a82611efa565b8061085a81611f35565b60008282026106cb84158061102b57508385838161102857fe5b04145b6003611061565b6001600160401b03811b1992909216911b1790565b6000611057838311156001611061565b50900390565b1b90565b8161085a5761085a81611fae565b7f000000000000000000000000000000000000000000000000000000000000000090565b6110ab81841080156110a457508183105b6064611061565b505050565b606060006110bc61106f565b90506000816001600160401b03811180156110d657600080fd5b50604051908082528060200260200182016040528015611100578160200160208202803683370190505b50905061110b612001565b8160008151811061111857fe5b60200260200101818152505061112c612025565b8160018151811061113957fe5b602002602001018181525050600282111561117457611156612049565b8160028151811061116357fe5b60200260200101818152505061117d565b91506105f09050565b60038211156111745761118e61206d565b8160038151811061119b57fe5b6020026020010181815250506004821115611174576111b8612091565b816004815181106111c557fe5b60200260200101818152505091505090565b60006111e38583611a6f565b61120486606001518385815181106111f757fe5b6020026020010151611cd5565b60608701526000611217878787876120b5565b90506112368184878151811061122957fe5b6020026020010151611d67565b905061124181611d73565b9150505b95945050505050565b600061125d8660600151611cb4565b606087015261126c8583611a6f565b61128086606001518386815181106111f757fe5b60608701526000611293878787876120fe565b9050611241818486815181106112a557fe5b6020026020010151611d2c565b6001600160a01b0380841660008181526001602090815260408083209487168084529490915290819020849055517f8c5be1e5ebec7d5bd14f71427d1e84f3dd0314c0f7b2291e5b200ac8c7c3b9259061130d908590614258565b60405180910390a3505050565b60006113316000356001600160e01b031916610a45565b905061061b6113408233612139565b610191611061565b8015611368576113636113596113e3565b4210610193611061565b61137d565b61137d611373611407565b42106101a9611061565b6007805460ff19168215151790556040517f9e3a5e37224532dea67b89face185703738a228a6e8a23dee546960180d3be64906113bb908390614235565b60405180910390a150565b60006113d0611407565b42118061065757505060075460ff161590565b7f000000000000000000000000000000000000000000000000000000000000000090565b7f000000000000000000000000000000000000000000000000000000000000000090565b6114426001600160a01b0384161515610198611061565b6114596001600160a01b0383161515610199611061565b6114648383836110ab565b6001600160a01b03831660009081526020819052604090205461148a90826101a0612222565b6001600160a01b0380851660009081526020819052604080822093909355908416815220546114b9908261171e565b6001600160a01b0380841660008181526020819052604090819020939093559151908516907fddf252ad1be2c89b69c2b068fc378daa952ba7f163c4a11628f55a4df523b3ef9061130d908590614258565b60008060008060008061151c612238565b93509350935093508042101561156f57600194508383111561155357818103824203858503028161154957fe5b048401955061156a565b818103824203848603028161156457fe5b04840395505b611577565b600094508295505b505050509091565b600061158e8215156004611061565b8261159b57506000610604565b8160018403816115a757fe5b046001019050610604565b6115be8484848461228f565b7f1835882ee7a34ac194f717a35e09bb1d24c82a3b9d854ab6c9749525b714cdf2848484846040516115f3949392919061437e565b60405180910390a150505050565b60007f00000000000000000000000000000000000000000000000000000000000000007f00000000000000000000000000000000000000000000000000000000000000007f000000000000000000000000000000000000000000000000000000000000000061166e6122eb565b306040516020016116839594939291906142b4565b60405160208183030381529060405280519060200120905090565b6116b16116a96113c6565b610192611061565b565b6116c664e8d4a5100082101560cb611061565b6116dc67016345785d8a000082111560ca611061565b6008546116eb908260c0611032565b6008556040517fa9ba3ffe0b6c366b81232caab38605a0699ad5398d6cce76f91ee809e322dafc906113bb908390614258565b60008282016106cb8482101583611061565b600061173a6107e1565b90506000611746610ae1565b6001600160a01b031663b05f8e4883866040518363ffffffff1660e01b81526004016117739291906142f9565b60806040518083038186803b15801561178b57600080fd5b505afa15801561179f573d6000803e3d6000fd5b505050506040513d601f19601f820116820180604052508101906117c391906140e1565b604051630639cdb560e21b81529094506001600160a01b03851693506318e736d492506117f79150859087906004016142e0565b600060405180830381600087803b15801561181157600080fd5b505af1158015611825573d6000803e3d6000fd5b5050505050505050565b1c6001600160401b031690565b61085a8183146067611061565b60006060806118566113c6565b156118795761186588876122ef565b905061187488826110476123dc565b6118c4565b61188161106f565b6001600160401b038111801561189657600080fd5b506040519080825280602002602001820160405280156118c0578160200160208202803683370190505b5090505b6118cf888686612447565b90935091506118de88836124d2565b985098509895505050505050565b60005b6118f761106f565b8110156110ab5761192e83828151811061190d57fe5b602002602001015183838151811061192157fe5b6020026020010151612501565b83828151811061193a57fe5b60209081029190910101526001016118ef565b333014611a0b576000306001600160a01b03166000366040516119719291906141be565b6000604051808303816000865af19150503d80600081146119ae576040519150601f19603f3d011682016040523d82523d6000602084013e6119b3565b606091505b5050905080600081146119c257fe5b60046000803e6000516001600160e01b0319166343adbafb60e01b81146119ed573d6000803e3d6000fd5b506020600460003e604060205260243d03602460403e601c3d016000f35b6000611a156110b0565b9050611a218782611a6f565b600080611a388c8c8c8c8c8c898d8d63ffffffff16565b5091509150611a4b81848663ffffffff16565b8051601f1982018390526343adbafb603f1983015260200260231982016044820181fd5b60005b611a7a61106f565b8110156110ab57611ab1838281518110611a9057fe5b6020026020010151838381518110611aa457fe5b6020026020010151612552565b838281518110611abd57fe5b6020908102919091010152600101611a72565b600080611adf8486600061257e565b90506112458184612501565b61085a828261271a565b6000606080611b0261169e565b6000611b0e89886122ef565b9050611b1d89826110476123dc565b600080611b2b8b89896127d6565b91509150611b398b8261282f565b909d909c50909a5098505050505050505050565b60005b611b5861106f565b8110156110ab57611b8f838281518110611b6e57fe5b6020026020010151838381518110611b8257fe5b602002602001015161283c565b838281518110611b9b57fe5b6020908102919091010152600101611b50565b6000611bb98261288a565b15611bcd57611bc6612001565b90506109a7565b611bd6826128bc565b15611be357611bc6612025565b7f00000000000000000000000000000000000000000000000000000000000000006001600160a01b0316826001600160a01b03161415611c2557611bc6612049565b7f00000000000000000000000000000000000000000000000000000000000000006001600160a01b0316826001600160a01b03161415611c6757611bc661206d565b7f00000000000000000000000000000000000000000000000000000000000000006001600160a01b0316826001600160a01b03161415611ca957611bc6612091565b6109a7610135611fae565b600080611cc9611cc261085e565b84906128ee565b90506106cb8382611047565b60006106cb8383612552565b61085a611ced8361292a565b8261085a565b6000611d0a611d0061106f565b60021460d2611061565b6000806000611d1a878787612930565b925092509250610551878484846120fe565b60006106cb8383612501565b6000611d45611d0061106f565b6000806000611d55878787612930565b925092509250610551878484846120b5565b60006106cb838361283c565b6000610604611d92611d8361085e565b670de0b6b3a764000090611047565b839061283c565b6000611da3610ae1565b6001600160a01b031663aaabadc56040518163ffffffff1660e01b815260040160206040518083038186803b158015611ddb57600080fd5b505afa158015611def573d6000803e3d6000fd5b505050506040513d601f19601f820116820180604052508101906106579190613e7b565b6000611e1d611601565b82604051602001610a7a9291906141ce565b60006060611e3b61169e565b6000611e46846129f1565b9050611e616000826002811115611e5957fe5b1460ce611061565b6000611e6c85612a07565b9050611e7b815161088061106f565b611e858187611a6f565b6000611e8f61150b565b5090506000611ea08284600161257e565b905080611ead8184612a1d565b9b929a509198505050505050505050565b620f424090565b61085a8282612a28565b6001600160a01b03918216600090815260016020908152604080832093909416825291909152205490565b611f068182424261228f565b7fa0d01593e47e69d07e0ccd87bece09411e07dd1ed40ca8f2e7af2976542a0233816040516113bb9190614258565b600281511015611f445761061b565b600081600081518110611f5357fe5b602002602001015190506000600190505b82518110156110ab576000838281518110611f7b57fe5b60200260200101519050611fa4816001600160a01b0316846001600160a01b0316106065611061565b9150600101611f64565b62461bcd60e51b6000908152602060045260076024526642414c23000030600a808404818106603090810160081b95839006959095019082900491820690940160101b939093010160c81b604452606490fd5b7f000000000000000000000000000000000000000000000000000000000000000090565b7f000000000000000000000000000000000000000000000000000000000000000090565b7f000000000000000000000000000000000000000000000000000000000000000090565b7f000000000000000000000000000000000000000000000000000000000000000090565b7f000000000000000000000000000000000000000000000000000000000000000090565b60006120bf61169e565b60006120c961150b565b50905060006120da8287600161257e565b905060006120f0838888888c6060015187612ab6565b93505050505b949350505050565b600061210861169e565b600061211261150b565b50905060006121238287600161257e565b905060006120f0838888888c6060015187612b6b565b600073ba1ba1ba1ba1ba1ba1ba1ba1ba1ba1ba1ba1ba1b612158610abd565b6001600160a01b031614158015612173575061217383612c04565b1561219b57612180610abd565b6001600160a01b0316336001600160a01b0316149050610604565b6121a3611d99565b6001600160a01b0316639be2a8848484306040518463ffffffff1660e01b81526004016121d293929190614261565b60206040518083038186803b1580156121ea57600080fd5b505afa1580156121fe573d6000803e3d6000fd5b505050506040513d601f19601f82011682018060405250810190610fd19190613d95565b60006122318484111583611061565b5050900390565b600080600080612254600060095461182f90919063ffffffff16565b60095490945061226590604061182f565b60095490935061227690608061182f565b6009549092506122879060c061182f565b905090919293565b6122a3816001600160401b031660c061105d565b6122b7836001600160401b0316608061105d565b6122cb856001600160401b0316604061105d565b6122df876001600160401b0316600061105d565b17171760095550505050565b4690565b606060006122fb61106f565b6001600160401b038111801561231057600080fd5b5060405190808252806020026020018201604052801561233a578160200160208202803683370190505b50905082612349579050610604565b6000808560008151811061235957fe5b602002602001015190506000600190505b61237261106f565b8110156123a957600087828151811061238757fe5b60200260200101519050828111156123a0578193508092505b5060010161236a565b506123bb600b5487600a548589612c40565b8383815181106123c757fe5b60209081029190910101525090949350505050565b60005b6123e761106f565b811015612441576124228482815181106123fd57fe5b602002602001015184838151811061241157fe5b60200260200101518463ffffffff16565b84828151811061242e57fe5b60209081029190910101526001016123df565b50505050565b600060606000612456846129f1565b9050600081600281111561246657fe5b1415612480576124768685612ca2565b92509250506124ca565b600181600281111561248e57fe5b141561249e576124768685612d6c565b60028160028111156124ac57fe5b14156124bd57612476868686612d9e565b6124c8610150611fae565b505b935093915050565b6124df82826110476123dc565b60006124e961150b565b5090506110ab6124fb8285600161257e565b82612a1d565b60006125108215156004611061565b8261251d57506000610604565b670de0b6b3a7640000838102906125409085838161253757fe5b04146005611061565b82818161254957fe5b04915050610604565b600082820261256c84158061102b57508385838161102857fe5b670de0b6b3a764000090049392505050565b81516000908190815b818110156125bf576125b586828151811061259e57fe5b60200260200101518461171e90919063ffffffff16565b9250600101612587565b50816125d0576000925050506106cb565b600082878302825b60ff811015612702576000858a6000815181106125f157fe5b60200260200101510290506000600190505b868110156126455761263b61263461262e848e858151811061262157fe5b602002602001015161100e565b8961100e565b868c612e19565b9150600101612603565b508394506126b861268761266e61266561265f878c61100e565b8561100e565b6103e88d612e19565b61268161267b8a8961100e565b8861100e565b9061171e565b6126b26126a561269b6103e888038661100e565b6103e88e15612e19565b6126818a6001018961100e565b8b612e19565b9350848411156126e0576001858503116126db57839750505050505050506106cb565b6126f9565b6001848603116126f957839750505050505050506106cb565b506001016125d8565b5061270e610141611fae565b50505050509392505050565b6127316001600160a01b038316151561019b611061565b61273d826000836110ab565b6001600160a01b03821660009081526020819052604090205461276390826101a1612222565b6001600160a01b0383166000908152602081905260409020556002546127899082612e39565b6002556040516000906001600160a01b038416907fddf252ad1be2c89b69c2b068fc378daa952ba7f163c4a11628f55a4df523b3ef906127ca908590614258565b60405180910390a35050565b6000606060006127e5846129f1565b905060018160028111156127f557fe5b141561280657612476868686612e47565b600281600281111561281457fe5b1415612824576124768685612eb1565b6124c8610136611fae565b6124df828261171e6123dc565b600061284b8215156004611061565b8261285857506000610604565b670de0b6b3a7640000838102906128729085838161253757fe5b82600182038161287e57fe5b04600101915050610604565b7f00000000000000000000000000000000000000000000000000000000000000006001600160a01b0390811691161490565b7f00000000000000000000000000000000000000000000000000000000000000006001600160a01b0390811691161490565b600082820261290884158061102b57508385838161102857fe5b80612917576000915050610604565b670de0b6b3a7640000600019820161287e565b50600090565b60408051600280825260608281019093526000918291816020016020820280368337019050509250612965866020015161288a565b156129ab576000915060019050848360008151811061298057fe5b602002602001018181525050838360018151811061299a57fe5b6020026020010181815250506129e8565b600090506001915083836000815181106129c157fe5b60200260200101818152505084836001815181106129db57fe5b6020026020010181815250505b93509350939050565b6000818060200190518101906106049190613ee4565b6060818060200190518101906106cb9190613fa9565b600a91909155600b55565b612a34600083836110ab565b600254612a41908261171e565b6002556001600160a01b038216600090815260208190526040902054612a67908261171e565b6001600160a01b0383166000818152602081905260408082209390935591519091907fddf252ad1be2c89b69c2b068fc378daa952ba7f163c4a11628f55a4df523b3ef906127ca908590614258565b6000612ade83878681518110612ac857fe5b602002602001015161104790919063ffffffff16565b868581518110612aea57fe5b6020026020010181815250506000612b0488888589612f45565b905083878681518110612b1357fe5b602002602001015101878681518110612b2857fe5b602002602001018181525050612b5f6001612681898981518110612b4857fe5b60200260200101518461104790919063ffffffff16565b98975050505050505050565b6000612b9383878781518110612b7d57fe5b602002602001015161171e90919063ffffffff16565b868681518110612b9f57fe5b6020026020010181815250506000612bb988888588612f45565b905083878781518110612bc857fe5b602002602001015103878781518110612bdd57fe5b602002602001018181525050612b5f6001612bfe838a8981518110612ac857fe5b90611047565b6000612c16632f1a0bc960e01b610a45565b821480612c315750612c2e637587926b60e11b610a45565b82145b806106045750610604826130f5565b600080612c4f87878787612f45565b905080868581518110612c5e57fe5b602002602001015111612c75576000915050611245565b600081878681518110612c8457fe5b6020026020010151039050612b5f848261255290919063ffffffff16565b60006060612cae61169e565b600080612cba85613127565b91509150612cd2612cc961106f565b82106064611061565b6000612cdc61106f565b6001600160401b0381118015612cf157600080fd5b50604051908082528060200260200182016040528015612d1b578160200160208202803683370190505b5090506000612d2861150b565b509050612d4781898587612d3a61061e565b612d4261085e565b613149565b828481518110612d5357fe5b6020908102919091010152509196919550909350505050565b600060606000612d7b84613265565b90506000612d918683612d8c61061e565b61327b565b9196919550909350505050565b60006060612daa61169e565b600080612db68561332c565b91509150612dc7825161088061106f565b612dd18287611a6f565b6000612ddb61150b565b5090506000612dfb828a86612dee61061e565b612df661085e565b613344565b9050612e0b8382111560cf611061565b989297509195505050505050565b600081612e2f57612e2a84846135d8565b6120f6565b6120f6848461157f565b60006106cb83836001612222565b60006060600080612e578561332c565b91509150612e6d612e6661106f565b835161183c565b612e778287611a6f565b6000612e8161150b565b5090506000612ea1828a86612e9461061e565b612e9c61085e565b6135f8565b9050612e0b8382101560d0611061565b60006060600080612ec185613127565b91509150612ed0612cc961106f565b6000612eda61106f565b6001600160401b0381118015612eef57600080fd5b50604051908082528060200260200182016040528015612f19578160200160208202803683370190505b5090506000612f2661150b565b509050612d4781898587612f3861061e565b612f4061085e565b613874565b600080845186029050600085600081518110612f5d57fe5b602002602001015190506000865187600081518110612f7857fe5b60200260200101510290506000600190505b8751811015612fd157612fb6612fb0612fa9848b858151811061262157fe5b8a5161100e565b886135d8565b9150612fc788828151811061259e57fe5b9250600101612f8a565b50868581518110612fde57fe5b6020026020010151820391506000612ff6878861100e565b9050600061302261301661300e8461076a898861100e565b6103e861100e565b8a898151811061262157fe5b9050600061303d61303661300e8b896135d8565b869061171e565b905060008061305961304f868661171e565b61076a8d8661171e565b905060005b60ff8110156130d95781925061308e61307b86612681858661100e565b61076a8e612bfe8861268188600261100e565b9150828211156130b7576001838303116130b2575097506120f69650505050505050565b6130d1565b6001828403116130d1575097506120f69650505050505050565b60010161305e565b506130e5610142611fae565b5050505050505050949350505050565b6000613107631c74c91760e11b610a45565b821480610604575061311f6350dd6ed960e01b610a45565b909114919050565b6000808280602001905181019061313e9190613f73565b909590945092505050565b6000806131588888600161257e565b9050600061317a826131748761316e818b611047565b9061283c565b906128ee565b9050600061318a8a8a848b612f45565b9050600061319e828b8b81518110612ac857fe5b90506000805b8b518110156131dd576131d38c82815181106131bc57fe5b60200260200101518361171e90919063ffffffff16565b91506001016131a4565b506000613206828d8d815181106131f057fe5b602002602001015161250190919063ffffffff16565b9050600061321382613951565b9050600061322185836128ee565b9050600061322f8683611047565b905061325061324983670de0b6b3a76400008e9003612552565b829061171e565b99505050505050505050509695505050505050565b6000818060200190518101906106cb9190613f46565b606060006132898484612501565b9050600085516001600160401b03811180156132a457600080fd5b506040519080825280602002602001820160405280156132ce578160200160208202803683370190505b50905060005b865181101561332257613303838883815181106132ed57fe5b602002602001015161255290919063ffffffff16565b82828151811061330f57fe5b60209081029190910101526001016132d4565b5095945050505050565b606060008280602001905181019061313e9190613f00565b600080805b865181101561336b576133618782815181106131bc57fe5b9150600101613349565b50600085516001600160401b038111801561338557600080fd5b506040519080825280602002602001820160405280156133af578160200160208202803683370190505b5090506000805b88518110156134765760006133e7858b84815181106133d157fe5b602002602001015161283c90919063ffffffff16565b90506134238a83815181106133f857fe5b602002602001015161316e8b858151811061340f57fe5b60200260200101518d8681518110612ac857fe5b84838151811061342f57fe5b60200260200101818152505061346b6134648286858151811061344e57fe5b60200260200101516128ee90919063ffffffff16565b849061171e565b9250506001016133b6565b50600088516001600160401b038111801561349057600080fd5b506040519080825280602002602001820160405280156134ba578160200160208202803683370190505b50905060005b89518110156135855760008482815181106134d757fe5b602002602001015184111561353e5760006135006134f486613951565b8d85815181106132ed57fe5b90506000613514828d8681518110612ac857fe5b905061353561352e82670de0b6b3a76400008d900361283c565b839061171e565b92505050613555565b89828151811061354a57fe5b602002602001015190505b613565818c8481518110612ac857fe5b83838151811061357157fe5b6020908102919091010152506001016134c0565b5060006135948b8b600161257e565b905060006135a48c84600061257e565b905060006135b28284612501565b90506135c76135c082613951565b8b906128ee565b9d9c50505050505050505050505050565b60006135e78215156004611061565b8183816135f057fe5b049392505050565b600080805b865181101561361f576136158782815181106131bc57fe5b91506001016135fd565b50600085516001600160401b038111801561363957600080fd5b50604051908082528060200260200182016040528015613663578160200160208202803683370190505b5090506000805b88518110156136fd576000613685858b84815181106131f057fe5b90506136c78a838151811061369657fe5b60200260200101516136c18b85815181106136ad57fe5b60200260200101518d8681518110612b7d57fe5b90612501565b8483815181106136d357fe5b6020026020010181815250506136f2613464828685815181106132ed57fe5b92505060010161366a565b50600088516001600160401b038111801561371757600080fd5b50604051908082528060200260200182016040528015613741578160200160208202803683370190505b50905060005b89518110156138025760008385838151811061375f57fe5b602002602001015111156137bb5760006137846134f486670de0b6b3a7640000611047565b90506000613798828d8681518110612ac857fe5b90506137b261352e82670de0b6b3a76400008d9003612552565b925050506137d2565b8982815181106137c757fe5b602002602001015190505b6137e2818c8481518110612b7d57fe5b8383815181106137ee57fe5b602090810291909101015250600101613747565b5060006138118b8b600161257e565b905060006138218c84600061257e565b9050600061382f8284612501565b9050670de0b6b3a7640000811115613864576138568a670de0b6b3a763ffff198301612552565b975050505050505050611245565b6000975050505050505050611245565b6000806138838888600161257e565b90506000613899826131748761316e818b61171e565b905060006138a98a8a848b612f45565b905060006138d38a8a815181106138bc57fe5b60200260200101518361104790919063ffffffff16565b90506000805b8b518110156138fb576138f18c82815181106131bc57fe5b91506001016138d9565b50600061390e828d8d815181106131f057fe5b9050600061391b82613951565b9050600061392985836128ee565b905060006139378683611047565b905061325061324983670de0b6b3a76400008e900361283c565b6000670de0b6b3a76400008210613969576000610604565b50670de0b6b3a76400000390565b80356109a7816143e7565b600082601f830112613992578081fd5b813560206139a76139a2836143ca565b6143a7565b82815281810190858301838502870184018810156139c3578586fd5b855b858110156139e1578135845292840192908401906001016139c5565b5090979650505050505050565b600082601f8301126139fe578081fd5b81516020613a0e6139a2836143ca565b8281528181019085830183850287018401881015613a2a578586fd5b855b858110156139e157815184529284019290840190600101613a2c565b600082601f830112613a58578081fd5b81356001600160401b03811115613a6b57fe5b613a7e601f8201601f19166020016143a7565b818152846020838601011115613a92578283fd5b816020850160208301379081016020019190915292915050565b8035600281106109a757600080fd5b6000610120808385031215613ace578182fd5b613ad7816143a7565b915050613ae382613aac565b8152613af160208301613977565b6020820152613b0260408301613977565b6040820152606082013560608201526080820135608082015260a082013560a0820152613b3160c08301613977565b60c0820152613b4260e08301613977565b60e0820152610100808301356001600160401b03811115613b6257600080fd5b613b6e85828601613a48565b82840152505092915050565b600060208284031215613b8b578081fd5b81356106cb816143e7565b60008060408385031215613ba8578081fd5b8235613bb3816143e7565b91506020830135613bc3816143e7565b809150509250929050565b600080600060608486031215613be2578081fd5b8335613bed816143e7565b92506020840135613bfd816143e7565b929592945050506040919091013590565b600080600080600080600060e0888a031215613c28578485fd5b8735613c33816143e7565b96506020880135613c43816143e7565b95506040880135945060608801359350608088013560ff81168114613c66578384fd5b9699959850939692959460a0840135945060c09093013592915050565b60008060408385031215613c95578182fd5b8235613ca0816143e7565b946020939093013593505050565b600080600060608486031215613cc2578081fd5b83516001600160401b0380821115613cd8578283fd5b818601915086601f830112613ceb578283fd5b81516020613cfb6139a2836143ca565b82815281810190858301838502870184018c1015613d17578788fd5b8796505b84871015613d42578051613d2e816143e7565b835260019690960195918301918301613d1b565b5091890151919750909350505080821115613d5b578283fd5b50613d68868287016139ee565b925050604084015190509250925092565b600060208284031215613d8a578081fd5b81356106cb816143fc565b600060208284031215613da6578081fd5b81516106cb816143fc565b600080600080600080600060e0888a031215613dcb578081fd5b873596506020880135613ddd816143e7565b95506040880135613ded816143e7565b945060608801356001600160401b0380821115613e08578283fd5b613e148b838c01613982565b955060808a0135945060a08a0135935060c08a0135915080821115613e37578283fd5b50613e448a828b01613a48565b91505092959891949750929550565b600060208284031215613e64578081fd5b81356001600160e01b0319811681146106cb578182fd5b600060208284031215613e8c578081fd5b81516106cb816143e7565b60008060408385031215613ea9578182fd5b8235613eb4816143e7565b915060208301356001600160401b03811115613ece578182fd5b613eda85828601613a48565b9150509250929050565b600060208284031215613ef5578081fd5b81516106cb8161440a565b600080600060608486031215613f14578081fd5b8351613f1f8161440a565b60208501519093506001600160401b03811115613f3a578182fd5b613d68868287016139ee565b60008060408385031215613f58578182fd5b8251613f638161440a565b6020939093015192949293505050565b600080600060608486031215613f87578081fd5b8351613f928161440a565b602085015160409095015190969495509392505050565b60008060408385031215613fbb578182fd5b8251613fc68161440a565b60208401519092506001600160401b03811115613fe1578182fd5b613eda858286016139ee565b60008060008060808587031215614002578182fd5b84356001600160401b0380821115614018578384fd5b61402488838901613abb565b95506020870135915080821115614039578384fd5b5061404687828801613982565b949794965050505060408301359260600135919050565b600080600060608486031215614071578081fd5b83356001600160401b03811115614086578182fd5b61409286828701613abb565b9660208601359650604090950135949350505050565b6000602082840312156140b9578081fd5b5035919050565b600080604083850312156140d2578182fd5b50508035926020909101359150565b600080600080608085870312156140f6578182fd5b8451935060208501519250604085015191506060850151614116816143e7565b939692955090935050565b6000815180845260208085019450808401835b8381101561415057815187529582019590820190600101614134565b509495945050505050565b60008151808452815b8181101561418057602081850181015186830182015201614164565b818111156141915782602083870101525b50601f01601f19169290920160200192915050565b9182526001600160e01b031916602082015260240190565b6000828483379101908152919050565b61190160f01b81526002810192909252602282015260420190565b6001600160a01b0391909116815260200190565b6000602082526106cb6020830184614121565b6000604082526142236040830185614121565b82810360208401526112458185614121565b901515815260200190565b92151583526020830191909152604082015260600190565b90815260200190565b9283526001600160a01b03918216602084015216604082015260600190565b9586526001600160a01b0394851660208701529290931660408501526060840152608083019190915260a082015260c00190565b9485526020850193909352604084019190915260608301526001600160a01b0316608082015260a00190565b6000838252604060208301526120f6604083018461415b565b9182526001600160a01b0316602082015260400190565b93845260ff9290921660208401526040830152606082015260800190565b6000602082526106cb602083018461415b565b6000838252604060208301526120f66040830184614121565b9283529015156020830152604082015260600190565b918252602082015260400190565b93845260208401929092526040830152606082015260800190565b60ff91909116815260200190565b6040518181016001600160401b03811182821017156143c257fe5b604052919050565b60006001600160401b038211156143dd57fe5b5060209081020190565b6001600160a01b038116811461061b57600080fd5b801515811461061b57600080fd5b6003811061061b57600080fdfea2646970667358221220fc8ea8bdb868b5b3148381f815e316949e91a979948422d6b385629dcb04cd2464736f6c63430007060033",
			"opcodes": "PUSH2 0x320 PUSH1 0x40 MSTORE PUSH32 0x6E71EDAE12B1B97F4D1F60370FEF10105FA2FAAE0126114A169C64845D6126C9 PUSH2 0x120 MSTORE CALLVALUE DUP1 ISZERO PUSH3 0x37 JUMPI PUSH1 0x0 DUP1 REVERT JUMPDEST POP PUSH1 0x40 MLOAD PUSH3 0x5218 CODESIZE SUB DUP1 PUSH3 0x5218 DUP4 CODECOPY DUP2 ADD PUSH1 0x40 DUP2 SWAP1 MSTORE PUSH3 0x5A SWAP2 PUSH3 0xAE6 JUMP JUMPDEST DUP9 DUP7 MLOAD PUSH1 0x2 EQ PUSH3 0x6D JUMPI PUSH1 0x0 PUSH3 0x70 JUMP JUMPDEST PUSH1 0x2 JUMPDEST DUP10 DUP10 DUP10 DUP11 MLOAD PUSH1 0x1 PUSH1 0x1 PUSH1 0x40 SHL SUB DUP2 GT DUP1 ISZERO PUSH3 0x8B JUMPI PUSH1 0x0 DUP1 REVERT JUMPDEST POP PUSH1 0x40 MLOAD SWAP1 DUP1 DUP3 MSTORE DUP1 PUSH1 0x20 MUL PUSH1 0x20 ADD DUP3 ADD PUSH1 0x40 MSTORE DUP1 ISZERO PUSH3 0xB6 JUMPI DUP2 PUSH1 0x20 ADD PUSH1 0x20 DUP3 MUL DUP1 CALLDATASIZE DUP4 CALLDATACOPY ADD SWAP1 POP JUMPDEST POP DUP10 DUP10 DUP10 DUP10 DUP3 DUP3 DUP10 DUP10 DUP14 DUP3 DUP1 PUSH1 0x40 MLOAD DUP1 PUSH1 0x40 ADD PUSH1 0x40 MSTORE DUP1 PUSH1 0x1 DUP2 MSTORE PUSH1 0x20 ADD PUSH1 0x31 PUSH1 0xF8 SHL DUP2 MSTORE POP DUP6 DUP6 DUP11 CALLER PUSH1 0x1 PUSH1 0x1 PUSH1 0xA0 SHL SUB AND PUSH1 0x0 SHL DUP1 PUSH1 0x80 DUP2 DUP2 MSTORE POP POP POP DUP1 PUSH1 0x1 PUSH1 0x1 PUSH1 0xA0 SHL SUB AND PUSH1 0xA0 DUP2 PUSH1 0x1 PUSH1 0x1 PUSH1 0xA0 SHL SUB AND PUSH1 0x60 SHL DUP2 MSTORE POP POP POP DUP2 PUSH1 0x3 SWAP1 DUP1 MLOAD SWAP1 PUSH1 0x20 ADD SWAP1 PUSH3 0x12B SWAP3 SWAP2 SWAP1 PUSH3 0x8FE JUMP JUMPDEST POP DUP1 MLOAD PUSH3 0x141 SWAP1 PUSH1 0x4 SWAP1 PUSH1 0x20 DUP5 ADD SWAP1 PUSH3 0x8FE JUMP JUMPDEST POP POP PUSH1 0x5 DUP1 SLOAD PUSH1 0x12 PUSH1 0xFF NOT SWAP1 SWAP2 AND OR SWAP1 SSTORE POP DUP2 MLOAD PUSH1 0x20 SWAP3 DUP4 ADD KECCAK256 PUSH1 0xC0 MSTORE DUP1 MLOAD SWAP2 ADD KECCAK256 PUSH1 0xE0 MSTORE POP PUSH32 0x8B73C3C69BB8FE3D512ECC4CF759CC79239F7B179B0FFACAA9A75D522B39400F PUSH2 0x100 MSTORE PUSH1 0x60 SHL PUSH1 0x1 PUSH1 0x1 PUSH1 0x60 SHL SUB NOT AND PUSH2 0x140 MSTORE POP PUSH3 0x1B4 SWAP1 POP PUSH3 0x76A700 DUP4 GT ISZERO PUSH2 0x194 PUSH3 0x569 JUMP JUMPDEST PUSH3 0x1C8 PUSH3 0x278D00 DUP3 GT ISZERO PUSH2 0x195 PUSH3 0x569 JUMP JUMPDEST TIMESTAMP SWAP1 SWAP2 ADD PUSH2 0x160 DUP2 SWAP1 MSTORE ADD PUSH2 0x180 MSTORE DUP6 MLOAD PUSH3 0x1EA SWAP1 PUSH1 0x2 GT ISZERO PUSH1 0xC8 PUSH3 0x569 JUMP JUMPDEST PUSH3 0x204 PUSH3 0x1F8 PUSH3 0x57E JUMP JUMPDEST DUP8 MLOAD GT ISZERO PUSH1 0xC9 PUSH3 0x569 JUMP JUMPDEST PUSH3 0x21A DUP7 PUSH3 0x583 PUSH1 0x20 SHL PUSH3 0x1004 OR PUSH1 0x20 SHR JUMP JUMPDEST PUSH3 0x225 DUP5 PUSH3 0x58F JUMP JUMPDEST PUSH1 0x40 MLOAD PUSH4 0x9B2760F PUSH1 0xE0 SHL DUP2 MSTORE PUSH1 0x0 SWAP1 PUSH1 0x1 PUSH1 0x1 PUSH1 0xA0 SHL SUB DUP13 AND SWAP1 PUSH4 0x9B2760F SWAP1 PUSH3 0x256 SWAP1 DUP14 SWAP1 PUSH1 0x4 ADD PUSH3 0xC7E JUMP JUMPDEST PUSH1 0x20 PUSH1 0x40 MLOAD DUP1 DUP4 SUB DUP2 PUSH1 0x0 DUP8 DUP1 EXTCODESIZE ISZERO DUP1 ISZERO PUSH3 0x271 JUMPI PUSH1 0x0 DUP1 REVERT JUMPDEST POP GAS CALL ISZERO DUP1 ISZERO PUSH3 0x286 JUMPI RETURNDATASIZE PUSH1 0x0 DUP1 RETURNDATACOPY RETURNDATASIZE PUSH1 0x0 REVERT JUMPDEST POP POP POP POP PUSH1 0x40 MLOAD RETURNDATASIZE PUSH1 0x1F NOT PUSH1 0x1F DUP3 ADD AND DUP3 ADD DUP1 PUSH1 0x40 MSTORE POP DUP2 ADD SWAP1 PUSH3 0x2AC SWAP2 SWAP1 PUSH3 0xACD JUMP JUMPDEST PUSH1 0x40 MLOAD PUSH4 0x3354E3E9 PUSH1 0xE1 SHL DUP2 MSTORE SWAP1 SWAP2 POP PUSH1 0x1 PUSH1 0x1 PUSH1 0xA0 SHL SUB DUP13 AND SWAP1 PUSH4 0x66A9C7D2 SWAP1 PUSH3 0x2E1 SWAP1 DUP5 SWAP1 DUP12 SWAP1 DUP12 SWAP1 PUSH1 0x4 ADD PUSH3 0xBE4 JUMP JUMPDEST PUSH1 0x0 PUSH1 0x40 MLOAD DUP1 DUP4 SUB DUP2 PUSH1 0x0 DUP8 DUP1 EXTCODESIZE ISZERO DUP1 ISZERO PUSH3 0x2FC JUMPI PUSH1 0x0 DUP1 REVERT JUMPDEST POP GAS CALL ISZERO DUP1 ISZERO PUSH3 0x311 JUMPI RETURNDATASIZE PUSH1 0x0 DUP1 RETURNDATACOPY RETURNDATASIZE PUSH1 0x0 REVERT JUMPDEST POP POP POP PUSH2 0x1A0 SWAP2 SWAP1 SWAP2 MSTORE POP PUSH3 0x33C SWAP10 POP POP POP PUSH1 0x1 DUP14 LT ISZERO SWAP7 POP PUSH2 0x12C SWAP6 POP POP PUSH3 0x569 SWAP4 POP POP POP POP JUMP JUMPDEST PUSH3 0x34F PUSH2 0x1388 DUP7 GT ISZERO PUSH2 0x12D PUSH3 0x569 JUMP JUMPDEST DUP6 MLOAD PUSH2 0x1C0 DUP2 SWAP1 MSTORE DUP7 MLOAD DUP8 SWAP1 PUSH1 0x0 SWAP1 PUSH3 0x365 JUMPI INVALID JUMPDEST PUSH1 0x20 MUL PUSH1 0x20 ADD ADD MLOAD PUSH1 0x1 PUSH1 0x1 PUSH1 0xA0 SHL SUB AND PUSH2 0x1E0 DUP2 PUSH1 0x1 PUSH1 0x1 PUSH1 0xA0 SHL SUB AND PUSH1 0x60 SHL DUP2 MSTORE POP POP DUP7 PUSH1 0x1 DUP2 MLOAD DUP2 LT PUSH3 0x398 JUMPI INVALID JUMPDEST PUSH1 0x20 MUL PUSH1 0x20 ADD ADD MLOAD PUSH1 0x1 PUSH1 0x1 PUSH1 0xA0 SHL SUB AND PUSH2 0x200 DUP2 PUSH1 0x1 PUSH1 0x1 PUSH1 0xA0 SHL SUB AND PUSH1 0x60 SHL DUP2 MSTORE POP POP PUSH1 0x2 DUP2 GT PUSH3 0x3CE JUMPI PUSH1 0x0 PUSH3 0x3E5 JUMP JUMPDEST DUP7 PUSH1 0x2 DUP2 MLOAD DUP2 LT PUSH3 0x3DC JUMPI INVALID JUMPDEST PUSH1 0x20 MUL PUSH1 0x20 ADD ADD MLOAD JUMPDEST PUSH1 0x60 SHL PUSH1 0x1 PUSH1 0x1 PUSH1 0x60 SHL SUB NOT AND PUSH2 0x220 MSTORE PUSH1 0x3 DUP2 GT PUSH3 0x407 JUMPI PUSH1 0x0 PUSH3 0x41E JUMP JUMPDEST DUP7 PUSH1 0x3 DUP2 MLOAD DUP2 LT PUSH3 0x415 JUMPI INVALID JUMPDEST PUSH1 0x20 MUL PUSH1 0x20 ADD ADD MLOAD JUMPDEST PUSH1 0x60 SHL PUSH1 0x1 PUSH1 0x1 PUSH1 0x60 SHL SUB NOT AND PUSH2 0x240 MSTORE PUSH1 0x4 DUP2 GT PUSH3 0x440 JUMPI PUSH1 0x0 PUSH3 0x457 JUMP JUMPDEST DUP7 PUSH1 0x4 DUP2 MLOAD DUP2 LT PUSH3 0x44E JUMPI INVALID JUMPDEST PUSH1 0x20 MUL PUSH1 0x20 ADD ADD MLOAD JUMPDEST PUSH1 0x1 PUSH1 0x1 PUSH1 0xA0 SHL SUB AND PUSH2 0x260 DUP2 PUSH1 0x1 PUSH1 0x1 PUSH1 0xA0 SHL SUB AND PUSH1 0x60 SHL DUP2 MSTORE POP POP PUSH3 0x49A DUP8 PUSH1 0x0 DUP2 MLOAD DUP2 LT PUSH3 0x486 JUMPI INVALID JUMPDEST PUSH1 0x20 MUL PUSH1 0x20 ADD ADD MLOAD PUSH3 0x61B PUSH1 0x20 SHL PUSH1 0x20 SHR JUMP JUMPDEST PUSH2 0x280 MSTORE DUP7 MLOAD PUSH3 0x4B3 SWAP1 DUP9 SWAP1 PUSH1 0x1 SWAP1 DUP2 LT PUSH3 0x486 JUMPI INVALID JUMPDEST PUSH2 0x2A0 MSTORE PUSH1 0x2 DUP2 GT PUSH3 0x4C8 JUMPI PUSH1 0x0 PUSH3 0x4DA JUMP JUMPDEST PUSH3 0x4DA DUP8 PUSH1 0x2 DUP2 MLOAD DUP2 LT PUSH3 0x486 JUMPI INVALID JUMPDEST PUSH2 0x2C0 MSTORE PUSH1 0x3 DUP2 GT PUSH3 0x4EF JUMPI PUSH1 0x0 PUSH3 0x501 JUMP JUMPDEST PUSH3 0x501 DUP8 PUSH1 0x3 DUP2 MLOAD DUP2 LT PUSH3 0x486 JUMPI INVALID JUMPDEST PUSH2 0x2E0 MSTORE PUSH1 0x4 DUP2 GT PUSH3 0x516 JUMPI PUSH1 0x0 PUSH3 0x528 JUMP JUMPDEST PUSH3 0x528 DUP8 PUSH1 0x4 DUP2 MLOAD DUP2 LT PUSH3 0x486 JUMPI INVALID JUMPDEST PUSH2 0x300 DUP2 DUP2 MSTORE POP POP PUSH1 0x0 PUSH3 0x54B DUP8 PUSH2 0x3E8 PUSH3 0x6EF PUSH1 0x20 SHL PUSH3 0x100E OR PUSH1 0x20 SHR JUMP JUMPDEST SWAP1 POP PUSH3 0x558 DUP2 PUSH3 0x71E JUMP JUMPDEST POP POP POP POP POP POP POP POP POP POP POP PUSH3 0xCD6 JUMP JUMPDEST DUP2 PUSH3 0x57A JUMPI PUSH3 0x57A DUP2 PUSH3 0x75D JUMP JUMPDEST POP POP JUMP JUMPDEST PUSH1 0x5 SWAP1 JUMP JUMPDEST DUP1 PUSH3 0x57A DUP2 PUSH3 0x7B0 JUMP JUMPDEST PUSH3 0x5A4 PUSH5 0xE8D4A51000 DUP3 LT ISZERO PUSH1 0xCB PUSH3 0x569 JUMP JUMPDEST PUSH3 0x5BC PUSH8 0x16345785D8A0000 DUP3 GT ISZERO PUSH1 0xCA PUSH3 0x569 JUMP JUMPDEST PUSH3 0x5DB DUP2 PUSH1 0xC0 PUSH1 0x8 SLOAD PUSH3 0x83D PUSH1 0x20 SHL PUSH3 0x1032 OR SWAP1 SWAP3 SWAP2 SWAP1 PUSH1 0x20 SHR JUMP JUMPDEST PUSH1 0x8 SSTORE PUSH1 0x40 MLOAD PUSH32 0xA9BA3FFE0B6C366B81232CAAB38605A0699AD5398D6CCE76F91EE809E322DAFC SWAP1 PUSH3 0x610 SWAP1 DUP4 SWAP1 PUSH3 0xC93 JUMP JUMPDEST PUSH1 0x40 MLOAD DUP1 SWAP2 SUB SWAP1 LOG1 POP JUMP JUMPDEST PUSH1 0x0 PUSH1 0x1 PUSH1 0x1 PUSH1 0xA0 SHL SUB DUP3 AND ADDRESS EQ ISZERO PUSH3 0x63F JUMPI POP PUSH8 0xDE0B6B3A7640000 PUSH3 0x6EA JUMP JUMPDEST PUSH1 0x0 DUP3 PUSH1 0x1 PUSH1 0x1 PUSH1 0xA0 SHL SUB AND PUSH4 0x313CE567 PUSH1 0x40 MLOAD DUP2 PUSH4 0xFFFFFFFF AND PUSH1 0xE0 SHL DUP2 MSTORE PUSH1 0x4 ADD PUSH1 0x20 PUSH1 0x40 MLOAD DUP1 DUP4 SUB DUP2 DUP7 DUP1 EXTCODESIZE ISZERO DUP1 ISZERO PUSH3 0x67B JUMPI PUSH1 0x0 DUP1 REVERT JUMPDEST POP GAS STATICCALL ISZERO DUP1 ISZERO PUSH3 0x690 JUMPI RETURNDATASIZE PUSH1 0x0 DUP1 RETURNDATACOPY RETURNDATASIZE PUSH1 0x0 REVERT JUMPDEST POP POP POP POP PUSH1 0x40 MLOAD RETURNDATASIZE PUSH1 0x1F NOT PUSH1 0x1F DUP3 ADD AND DUP3 ADD DUP1 PUSH1 0x40 MSTORE POP DUP2 ADD SWAP1 PUSH3 0x6B6 SWAP2 SWAP1 PUSH3 0xBC1 JUMP JUMPDEST PUSH1 0xFF AND SWAP1 POP PUSH1 0x0 PUSH3 0x6D5 PUSH1 0x12 DUP4 PUSH3 0x852 PUSH1 0x20 SHL PUSH3 0x1047 OR PUSH1 0x20 SHR JUMP JUMPDEST SWAP1 POP DUP1 PUSH1 0xA EXP PUSH8 0xDE0B6B3A7640000 MUL SWAP3 POP POP POP JUMPDEST SWAP2 SWAP1 POP JUMP JUMPDEST PUSH1 0x0 DUP3 DUP3 MUL PUSH3 0x717 DUP5 ISZERO DUP1 PUSH3 0x70F JUMPI POP DUP4 DUP6 DUP4 DUP2 PUSH3 0x70C JUMPI INVALID JUMPDEST DIV EQ JUMPDEST PUSH1 0x3 PUSH3 0x569 JUMP JUMPDEST SWAP4 SWAP3 POP POP POP JUMP JUMPDEST PUSH3 0x72C DUP2 DUP1 TIMESTAMP DUP1 PUSH3 0x86A JUMP JUMPDEST PUSH32 0xA0D01593E47E69D07E0CCD87BECE09411E07DD1ED40CA8F2E7AF2976542A0233 DUP2 PUSH1 0x40 MLOAD PUSH3 0x610 SWAP2 SWAP1 PUSH3 0xC93 JUMP JUMPDEST PUSH3 0x461BCD PUSH1 0xE5 SHL PUSH1 0x0 SWAP1 DUP2 MSTORE PUSH1 0x20 PUSH1 0x4 MSTORE PUSH1 0x7 PUSH1 0x24 MSTORE PUSH7 0x42414C23000030 PUSH1 0xA DUP1 DUP5 DIV DUP2 DUP2 MOD PUSH1 0x30 SWAP1 DUP2 ADD PUSH1 0x8 SHL SWAP6 DUP4 SWAP1 MOD SWAP6 SWAP1 SWAP6 ADD SWAP1 DUP3 SWAP1 DIV SWAP2 DUP3 MOD SWAP1 SWAP5 ADD PUSH1 0x10 SHL SWAP4 SWAP1 SWAP4 ADD ADD PUSH1 0xC8 SHL PUSH1 0x44 MSTORE PUSH1 0x64 SWAP1 REVERT JUMPDEST PUSH1 0x2 DUP2 MLOAD LT ISZERO PUSH3 0x7C1 JUMPI PUSH3 0x83A JUMP JUMPDEST PUSH1 0x0 DUP2 PUSH1 0x0 DUP2 MLOAD DUP2 LT PUSH3 0x7D1 JUMPI INVALID JUMPDEST PUSH1 0x20 MUL PUSH1 0x20 ADD ADD MLOAD SWAP1 POP PUSH1 0x0 PUSH1 0x1 SWAP1 POP JUMPDEST DUP3 MLOAD DUP2 LT ISZERO PUSH3 0x837 JUMPI PUSH1 0x0 DUP4 DUP3 DUP2 MLOAD DUP2 LT PUSH3 0x7FB JUMPI INVALID JUMPDEST PUSH1 0x20 MUL PUSH1 0x20 ADD ADD MLOAD SWAP1 POP PUSH3 0x82C DUP2 PUSH1 0x1 PUSH1 0x1 PUSH1 0xA0 SHL SUB AND DUP5 PUSH1 0x1 PUSH1 0x1 PUSH1 0xA0 SHL SUB AND LT PUSH1 0x65 PUSH3 0x569 PUSH1 0x20 SHL PUSH1 0x20 SHR JUMP JUMPDEST SWAP2 POP PUSH1 0x1 ADD PUSH3 0x7E2 JUMP JUMPDEST POP POP JUMPDEST POP JUMP JUMPDEST PUSH1 0x1 PUSH1 0x1 PUSH1 0x40 SHL SUB DUP2 SHL NOT SWAP3 SWAP1 SWAP3 AND SWAP2 SHL OR SWAP1 JUMP JUMPDEST PUSH1 0x0 PUSH3 0x864 DUP4 DUP4 GT ISZERO PUSH1 0x1 PUSH3 0x569 JUMP JUMPDEST POP SWAP1 SUB SWAP1 JUMP JUMPDEST PUSH3 0x88B DUP2 PUSH1 0x1 PUSH1 0x1 PUSH1 0x40 SHL SUB AND PUSH1 0xC0 PUSH3 0x8FA PUSH1 0x20 SHL PUSH3 0x105D OR PUSH1 0x20 SHR JUMP JUMPDEST PUSH3 0x8AC DUP4 PUSH1 0x1 PUSH1 0x1 PUSH1 0x40 SHL SUB AND PUSH1 0x80 PUSH3 0x8FA PUSH1 0x20 SHL PUSH3 0x105D OR PUSH1 0x20 SHR JUMP JUMPDEST PUSH3 0x8CD DUP6 PUSH1 0x1 PUSH1 0x1 PUSH1 0x40 SHL SUB AND PUSH1 0x40 PUSH3 0x8FA PUSH1 0x20 SHL PUSH3 0x105D OR PUSH1 0x20 SHR JUMP JUMPDEST PUSH3 0x8EE DUP8 PUSH1 0x1 PUSH1 0x1 PUSH1 0x40 SHL SUB AND PUSH1 0x0 PUSH3 0x8FA PUSH1 0x20 SHL PUSH3 0x105D OR PUSH1 0x20 SHR JUMP JUMPDEST OR OR OR PUSH1 0x9 SSTORE POP POP POP POP JUMP JUMPDEST SHL SWAP1 JUMP JUMPDEST DUP3 DUP1 SLOAD PUSH1 0x1 DUP2 PUSH1 0x1 AND ISZERO PUSH2 0x100 MUL SUB AND PUSH1 0x2 SWAP1 DIV SWAP1 PUSH1 0x0 MSTORE PUSH1 0x20 PUSH1 0x0 KECCAK256 SWAP1 PUSH1 0x1F ADD PUSH1 0x20 SWAP1 DIV DUP2 ADD SWAP3 DUP3 PUSH3 0x936 JUMPI PUSH1 0x0 DUP6 SSTORE PUSH3 0x981 JUMP JUMPDEST DUP3 PUSH1 0x1F LT PUSH3 0x951 JUMPI DUP1 MLOAD PUSH1 0xFF NOT AND DUP4 DUP1 ADD OR DUP6 SSTORE PUSH3 0x981 JUMP JUMPDEST DUP3 DUP1 ADD PUSH1 0x1 ADD DUP6 SSTORE DUP3 ISZERO PUSH3 0x981 JUMPI SWAP2 DUP3 ADD JUMPDEST DUP3 DUP2 GT ISZERO PUSH3 0x981 JUMPI DUP3 MLOAD DUP3 SSTORE SWAP2 PUSH1 0x20 ADD SWAP2 SWAP1 PUSH1 0x1 ADD SWAP1 PUSH3 0x964 JUMP JUMPDEST POP PUSH3 0x98F SWAP3 SWAP2 POP PUSH3 0x993 JUMP JUMPDEST POP SWAP1 JUMP JUMPDEST JUMPDEST DUP1 DUP3 GT ISZERO PUSH3 0x98F JUMPI PUSH1 0x0 DUP2 SSTORE PUSH1 0x1 ADD PUSH3 0x994 JUMP JUMPDEST DUP1 MLOAD PUSH3 0x6EA DUP2 PUSH3 0xCC0 JUMP JUMPDEST PUSH1 0x0 DUP3 PUSH1 0x1F DUP4 ADD SLT PUSH3 0x9C8 JUMPI DUP1 DUP2 REVERT JUMPDEST DUP2 MLOAD PUSH1 0x20 PUSH1 0x1 PUSH1 0x1 PUSH1 0x40 SHL SUB DUP3 GT ISZERO PUSH3 0x9DE JUMPI INVALID JUMPDEST DUP1 DUP3 MUL PUSH3 0x9EE DUP3 DUP3 ADD PUSH3 0xC9C JUMP JUMPDEST DUP4 DUP2 MSTORE DUP3 DUP2 ADD SWAP1 DUP7 DUP5 ADD DUP4 DUP9 ADD DUP6 ADD DUP10 LT ISZERO PUSH3 0xA09 JUMPI DUP7 DUP8 REVERT JUMPDEST DUP7 SWAP4 POP JUMPDEST DUP6 DUP5 LT ISZERO PUSH3 0xA38 JUMPI DUP1 MLOAD PUSH3 0xA23 DUP2 PUSH3 0xCC0 JUMP JUMPDEST DUP4 MSTORE PUSH1 0x1 SWAP4 SWAP1 SWAP4 ADD SWAP3 SWAP2 DUP5 ADD SWAP2 DUP5 ADD PUSH3 0xA0D JUMP JUMPDEST POP SWAP8 SWAP7 POP POP POP POP POP POP POP JUMP JUMPDEST PUSH1 0x0 DUP3 PUSH1 0x1F DUP4 ADD SLT PUSH3 0xA55 JUMPI DUP1 DUP2 REVERT JUMPDEST DUP2 MLOAD PUSH1 0x1 PUSH1 0x1 PUSH1 0x40 SHL SUB DUP2 GT ISZERO PUSH3 0xA69 JUMPI INVALID JUMPDEST PUSH1 0x20 PUSH3 0xA7F PUSH1 0x1F DUP4 ADD PUSH1 0x1F NOT AND DUP3 ADD PUSH3 0xC9C JUMP JUMPDEST DUP3 DUP2 MSTORE DUP6 DUP3 DUP5 DUP8 ADD ADD GT ISZERO PUSH3 0xA93 JUMPI DUP4 DUP5 REVERT JUMPDEST DUP4 JUMPDEST DUP4 DUP2 LT ISZERO PUSH3 0xAB2 JUMPI DUP6 DUP2 ADD DUP4 ADD MLOAD DUP3 DUP3 ADD DUP5 ADD MSTORE DUP3 ADD PUSH3 0xA95 JUMP JUMPDEST DUP4 DUP2 GT ISZERO PUSH3 0xAC3 JUMPI DUP5 DUP4 DUP6 DUP5 ADD ADD MSTORE JUMPDEST POP SWAP6 SWAP5 POP POP POP POP POP JUMP JUMPDEST PUSH1 0x0 PUSH1 0x20 DUP3 DUP5 SUB SLT ISZERO PUSH3 0xADF JUMPI DUP1 DUP2 REVERT JUMPDEST POP MLOAD SWAP2 SWAP1 POP JUMP JUMPDEST PUSH1 0x0 DUP1 PUSH1 0x0 DUP1 PUSH1 0x0 DUP1 PUSH1 0x0 DUP1 PUSH1 0x0 PUSH2 0x120 DUP11 DUP13 SUB SLT ISZERO PUSH3 0xB05 JUMPI DUP5 DUP6 REVERT JUMPDEST PUSH3 0xB10 DUP11 PUSH3 0x9AA JUMP JUMPDEST PUSH1 0x20 DUP12 ADD MLOAD SWAP1 SWAP10 POP PUSH1 0x1 PUSH1 0x1 PUSH1 0x40 SHL SUB DUP1 DUP3 GT ISZERO PUSH3 0xB2D JUMPI DUP7 DUP8 REVERT JUMPDEST PUSH3 0xB3B DUP14 DUP4 DUP15 ADD PUSH3 0xA44 JUMP JUMPDEST SWAP10 POP PUSH1 0x40 DUP13 ADD MLOAD SWAP2 POP DUP1 DUP3 GT ISZERO PUSH3 0xB51 JUMPI DUP7 DUP8 REVERT JUMPDEST PUSH3 0xB5F DUP14 DUP4 DUP15 ADD PUSH3 0xA44 JUMP JUMPDEST SWAP9 POP PUSH1 0x60 DUP13 ADD MLOAD SWAP2 POP DUP1 DUP3 GT ISZERO PUSH3 0xB75 JUMPI DUP7 DUP8 REVERT JUMPDEST POP PUSH3 0xB84 DUP13 DUP3 DUP14 ADD PUSH3 0x9B7 JUMP JUMPDEST SWAP7 POP POP PUSH1 0x80 DUP11 ADD MLOAD SWAP5 POP PUSH1 0xA0 DUP11 ADD MLOAD SWAP4 POP PUSH1 0xC0 DUP11 ADD MLOAD SWAP3 POP PUSH1 0xE0 DUP11 ADD MLOAD SWAP2 POP PUSH3 0xBB2 PUSH2 0x100 DUP12 ADD PUSH3 0x9AA JUMP JUMPDEST SWAP1 POP SWAP3 SWAP6 SWAP9 POP SWAP3 SWAP6 SWAP9 POP SWAP3 SWAP6 SWAP9 JUMP JUMPDEST PUSH1 0x0 PUSH1 0x20 DUP3 DUP5 SUB SLT ISZERO PUSH3 0xBD3 JUMPI DUP1 DUP2 REVERT JUMPDEST DUP2 MLOAD PUSH1 0xFF DUP2 AND DUP2 EQ PUSH3 0x717 JUMPI DUP2 DUP3 REVERT JUMPDEST PUSH1 0x0 PUSH1 0x60 DUP3 ADD DUP6 DUP4 MSTORE PUSH1 0x20 PUSH1 0x60 DUP2 DUP6 ADD MSTORE DUP2 DUP7 MLOAD DUP1 DUP5 MSTORE PUSH1 0x80 DUP7 ADD SWAP2 POP DUP3 DUP9 ADD SWAP4 POP DUP5 JUMPDEST DUP2 DUP2 LT ISZERO PUSH3 0xC2F JUMPI DUP5 MLOAD PUSH1 0x1 PUSH1 0x1 PUSH1 0xA0 SHL SUB AND DUP4 MSTORE SWAP4 DUP4 ADD SWAP4 SWAP2 DUP4 ADD SWAP2 PUSH1 0x1 ADD PUSH3 0xC08 JUMP JUMPDEST POP POP DUP5 DUP2 SUB PUSH1 0x40 DUP7 ADD MSTORE DUP6 MLOAD DUP1 DUP3 MSTORE SWAP1 DUP3 ADD SWAP3 POP DUP2 DUP7 ADD SWAP1 DUP5 JUMPDEST DUP2 DUP2 LT ISZERO PUSH3 0xC70 JUMPI DUP3 MLOAD PUSH1 0x1 PUSH1 0x1 PUSH1 0xA0 SHL SUB AND DUP6 MSTORE SWAP4 DUP4 ADD SWAP4 SWAP2 DUP4 ADD SWAP2 PUSH1 0x1 ADD PUSH3 0xC49 JUMP JUMPDEST POP SWAP3 SWAP9 SWAP8 POP POP POP POP POP POP POP POP JUMP JUMPDEST PUSH1 0x20 DUP2 ADD PUSH1 0x3 DUP4 LT PUSH3 0xC8D JUMPI INVALID JUMPDEST SWAP2 SWAP1 MSTORE SWAP1 JUMP JUMPDEST SWAP1 DUP2 MSTORE PUSH1 0x20 ADD SWAP1 JUMP JUMPDEST PUSH1 0x40 MLOAD DUP2 DUP2 ADD PUSH1 0x1 PUSH1 0x1 PUSH1 0x40 SHL SUB DUP2 GT DUP3 DUP3 LT OR ISZERO PUSH3 0xCB8 JUMPI INVALID JUMPDEST PUSH1 0x40 MSTORE SWAP2 SWAP1 POP JUMP JUMPDEST PUSH1 0x1 PUSH1 0x1 PUSH1 0xA0 SHL SUB DUP2 AND DUP2 EQ PUSH3 0x83A JUMPI PUSH1 0x0 DUP1 REVERT JUMPDEST PUSH1 0x80 MLOAD PUSH1 0xA0 MLOAD PUSH1 0x60 SHR PUSH1 0xC0 MLOAD PUSH1 0xE0 MLOAD PUSH2 0x100 MLOAD PUSH2 0x120 MLOAD PUSH2 0x140 MLOAD PUSH1 0x60 SHR PUSH2 0x160 MLOAD PUSH2 0x180 MLOAD PUSH2 0x1A0 MLOAD PUSH2 0x1C0 MLOAD PUSH2 0x1E0 MLOAD PUSH1 0x60 SHR PUSH2 0x200 MLOAD PUSH1 0x60 SHR PUSH2 0x220 MLOAD PUSH1 0x60 SHR PUSH2 0x240 MLOAD PUSH1 0x60 SHR PUSH2 0x260 MLOAD PUSH1 0x60 SHR PUSH2 0x280 MLOAD PUSH2 0x2A0 MLOAD PUSH2 0x2C0 MLOAD PUSH2 0x2E0 MLOAD PUSH2 0x300 MLOAD PUSH2 0x444D PUSH3 0xDCB PUSH1 0x0 CODECOPY DUP1 PUSH2 0x2093 MSTORE POP DUP1 PUSH2 0x206F MSTORE POP DUP1 PUSH2 0x204B MSTORE POP DUP1 PUSH2 0x2027 MSTORE POP DUP1 PUSH2 0x2003 MSTORE POP DUP1 PUSH2 0x1C69 MSTORE POP DUP1 PUSH2 0x1C27 MSTORE POP DUP1 PUSH2 0x1BE5 MSTORE POP DUP1 PUSH2 0x28BE MSTORE POP DUP1 PUSH2 0x288C MSTORE POP DUP1 PUSH2 0x1071 MSTORE POP DUP1 PUSH2 0x7E3 MSTORE POP DUP1 PUSH2 0x1409 MSTORE POP DUP1 PUSH2 0x13E5 MSTORE POP DUP1 PUSH2 0xAE3 MSTORE POP DUP1 PUSH2 0xD58 MSTORE POP DUP1 PUSH2 0x1605 MSTORE POP DUP1 PUSH2 0x1647 MSTORE POP DUP1 PUSH2 0x1626 MSTORE POP DUP1 PUSH2 0xABF MSTORE POP DUP1 PUSH2 0xA49 MSTORE POP PUSH2 0x444D PUSH1 0x0 RETURN INVALID PUSH1 0x80 PUSH1 0x40 MSTORE CALLVALUE DUP1 ISZERO PUSH2 0x10 JUMPI PUSH1 0x0 DUP1 REVERT JUMPDEST POP PUSH1 0x4 CALLDATASIZE LT PUSH2 0x21C JUMPI PUSH1 0x0 CALLDATALOAD PUSH1 0xE0 SHR DUP1 PUSH4 0x6DACCFFA GT PUSH2 0x125 JUMPI DUP1 PUSH4 0x9B02CDDE GT PUSH2 0xAD JUMPI DUP1 PUSH4 0xAAABADC5 GT PUSH2 0x7C JUMPI DUP1 PUSH4 0xAAABADC5 EQ PUSH2 0x475 JUMPI DUP1 PUSH4 0xD505ACCF EQ PUSH2 0x47D JUMPI DUP1 PUSH4 0xD5C096C4 EQ PUSH2 0x490 JUMPI DUP1 PUSH4 0xDD62ED3E EQ PUSH2 0x4A3 JUMPI DUP1 PUSH4 0xEB0F24D6 EQ PUSH2 0x4B6 JUMPI PUSH2 0x21C JUMP JUMPDEST DUP1 PUSH4 0x9B02CDDE EQ PUSH2 0x426 JUMPI DUP1 PUSH4 0x9D2C110C EQ PUSH2 0x43C JUMPI DUP1 PUSH4 0xA457C2D7 EQ PUSH2 0x44F JUMPI DUP1 PUSH4 0xA9059CBB EQ PUSH2 0x462 JUMPI PUSH2 0x21C JUMP JUMPDEST DUP1 PUSH4 0x851C1BB3 GT PUSH2 0xF4 JUMPI DUP1 PUSH4 0x851C1BB3 EQ PUSH2 0x3DB JUMPI DUP1 PUSH4 0x87EC6817 EQ PUSH2 0x3EE JUMPI DUP1 PUSH4 0x893D20E8 EQ PUSH2 0x401 JUMPI DUP1 PUSH4 0x8D928AF8 EQ PUSH2 0x416 JUMPI DUP1 PUSH4 0x95D89B41 EQ PUSH2 0x41E JUMPI PUSH2 0x21C JUMP JUMPDEST DUP1 PUSH4 0x6DACCFFA EQ PUSH2 0x37D JUMPI DUP1 PUSH4 0x70A08231 EQ PUSH2 0x394 JUMPI DUP1 PUSH4 0x74F3B009 EQ PUSH2 0x3A7 JUMPI DUP1 PUSH4 0x7ECEBE00 EQ PUSH2 0x3C8 JUMPI PUSH2 0x21C JUMP JUMPDEST DUP1 PUSH4 0x313CE567 GT PUSH2 0x1A8 JUMPI DUP1 PUSH4 0x39509351 GT PUSH2 0x177 JUMPI DUP1 PUSH4 0x39509351 EQ PUSH2 0x326 JUMPI DUP1 PUSH4 0x50DD6ED9 EQ PUSH2 0x339 JUMPI DUP1 PUSH4 0x55C67628 EQ PUSH2 0x34C JUMPI DUP1 PUSH4 0x6028BFD4 EQ PUSH2 0x354 JUMPI DUP1 PUSH4 0x679AEFCE EQ PUSH2 0x375 JUMPI PUSH2 0x21C JUMP JUMPDEST DUP1 PUSH4 0x313CE567 EQ PUSH2 0x2EE JUMPI DUP1 PUSH4 0x3644E515 EQ PUSH2 0x303 JUMPI DUP1 PUSH4 0x38E9922E EQ PUSH2 0x30B JUMPI DUP1 PUSH4 0x38FFF2D0 EQ PUSH2 0x31E JUMPI PUSH2 0x21C JUMP JUMPDEST DUP1 PUSH4 0x18160DDD GT PUSH2 0x1EF JUMPI DUP1 PUSH4 0x18160DDD EQ PUSH2 0x294 JUMPI DUP1 PUSH4 0x1C0DE051 EQ PUSH2 0x29C JUMPI DUP1 PUSH4 0x1DD746EA EQ PUSH2 0x2B3 JUMPI DUP1 PUSH4 0x23B872DD EQ PUSH2 0x2C8 JUMPI DUP1 PUSH4 0x2F1A0BC9 EQ PUSH2 0x2DB JUMPI PUSH2 0x21C JUMP JUMPDEST DUP1 PUSH4 0x1EC954A EQ PUSH2 0x221 JUMPI DUP1 PUSH4 0x6FDDE03 EQ PUSH2 0x24A JUMPI DUP1 PUSH4 0x95EA7B3 EQ PUSH2 0x25F JUMPI DUP1 PUSH4 0x16C38B3C EQ PUSH2 0x27F JUMPI JUMPDEST PUSH1 0x0 DUP1 REVERT JUMPDEST PUSH2 0x234 PUSH2 0x22F CALLDATASIZE PUSH1 0x4 PUSH2 0x3FED JUMP JUMPDEST PUSH2 0x4BE JUMP JUMPDEST PUSH1 0x40 MLOAD PUSH2 0x241 SWAP2 SWAP1 PUSH2 0x4258 JUMP JUMPDEST PUSH1 0x40 MLOAD DUP1 SWAP2 SUB SWAP1 RETURN JUMPDEST PUSH2 0x252 PUSH2 0x55C JUMP JUMPDEST PUSH1 0x40 MLOAD PUSH2 0x241 SWAP2 SWAP1 PUSH2 0x432E JUMP JUMPDEST PUSH2 0x272 PUSH2 0x26D CALLDATASIZE PUSH1 0x4 PUSH2 0x3C83 JUMP JUMPDEST PUSH2 0x5F3 JUMP JUMPDEST PUSH1 0x40 MLOAD PUSH2 0x241 SWAP2 SWAP1 PUSH2 0x4235 JUMP JUMPDEST PUSH2 0x292 PUSH2 0x28D CALLDATASIZE PUSH1 0x4 PUSH2 0x3D79 JUMP JUMPDEST PUSH2 0x60A JUMP JUMPDEST STOP JUMPDEST PUSH2 0x234 PUSH2 0x61E JUMP JUMPDEST PUSH2 0x2A4 PUSH2 0x624 JUMP JUMPDEST PUSH1 0x40 MLOAD PUSH2 0x241 SWAP4 SWAP3 SWAP2 SWAP1 PUSH2 0x4240 JUMP JUMPDEST PUSH2 0x2BB PUSH2 0x64D JUMP JUMPDEST PUSH1 0x40 MLOAD PUSH2 0x241 SWAP2 SWAP1 PUSH2 0x41FD JUMP JUMPDEST PUSH2 0x272 PUSH2 0x2D6 CALLDATASIZE PUSH1 0x4 PUSH2 0x3BCE JUMP JUMPDEST PUSH2 0x65C JUMP JUMPDEST PUSH2 0x292 PUSH2 0x2E9 CALLDATASIZE PUSH1 0x4 PUSH2 0x40C0 JUMP JUMPDEST PUSH2 0x6D2 JUMP JUMPDEST PUSH2 0x2F6 PUSH2 0x7B5 JUMP JUMPDEST PUSH1 0x40 MLOAD PUSH2 0x241 SWAP2 SWAP1 PUSH2 0x4399 JUMP JUMPDEST PUSH2 0x234 PUSH2 0x7BE JUMP JUMPDEST PUSH2 0x292 PUSH2 0x319 CALLDATASIZE PUSH1 0x4 PUSH2 0x40A8 JUMP JUMPDEST PUSH2 0x7C8 JUMP JUMPDEST PUSH2 0x234 PUSH2 0x7E1 JUMP JUMPDEST PUSH2 0x272 PUSH2 0x334 CALLDATASIZE PUSH1 0x4 PUSH2 0x3C83 JUMP JUMPDEST PUSH2 0x805 JUMP JUMPDEST PUSH2 0x292 PUSH2 0x347 CALLDATASIZE PUSH1 0x4 PUSH2 0x3E97 JUMP JUMPDEST PUSH2 0x840 JUMP JUMPDEST PUSH2 0x234 PUSH2 0x85E JUMP JUMPDEST PUSH2 0x367 PUSH2 0x362 CALLDATASIZE PUSH1 0x4 PUSH2 0x3DB1 JUMP JUMPDEST PUSH2 0x86F JUMP JUMPDEST PUSH1 0x40 MLOAD PUSH2 0x241 SWAP3 SWAP2 SWAP1 PUSH2 0x4341 JUMP JUMPDEST PUSH2 0x234 PUSH2 0x8A6 JUMP JUMPDEST PUSH2 0x385 PUSH2 0x972 JUMP JUMPDEST PUSH1 0x40 MLOAD PUSH2 0x241 SWAP4 SWAP3 SWAP2 SWAP1 PUSH2 0x435A JUMP JUMPDEST PUSH2 0x234 PUSH2 0x3A2 CALLDATASIZE PUSH1 0x4 PUSH2 0x3B7A JUMP JUMPDEST PUSH2 0x98D JUMP JUMPDEST PUSH2 0x3BA PUSH2 0x3B5 CALLDATASIZE PUSH1 0x4 PUSH2 0x3DB1 JUMP JUMPDEST PUSH2 0x9AC JUMP JUMPDEST PUSH1 0x40 MLOAD PUSH2 0x241 SWAP3 SWAP2 SWAP1 PUSH2 0x4210 JUMP JUMPDEST PUSH2 0x234 PUSH2 0x3D6 CALLDATASIZE PUSH1 0x4 PUSH2 0x3B7A JUMP JUMPDEST PUSH2 0xA2A JUMP JUMPDEST PUSH2 0x234 PUSH2 0x3E9 CALLDATASIZE PUSH1 0x4 PUSH2 0x3E53 JUMP JUMPDEST PUSH2 0xA45 JUMP JUMPDEST PUSH2 0x367 PUSH2 0x3FC CALLDATASIZE PUSH1 0x4 PUSH2 0x3DB1 JUMP JUMPDEST PUSH2 0xA97 JUMP JUMPDEST PUSH2 0x409 PUSH2 0xABD JUMP JUMPDEST PUSH1 0x40 MLOAD PUSH2 0x241 SWAP2 SWAP1 PUSH2 0x41E9 JUMP JUMPDEST PUSH2 0x409 PUSH2 0xAE1 JUMP JUMPDEST PUSH2 0x252 PUSH2 0xB05 JUMP JUMPDEST PUSH2 0x42E PUSH2 0xB66 JUMP JUMPDEST PUSH1 0x40 MLOAD PUSH2 0x241 SWAP3 SWAP2 SWAP1 PUSH2 0x4370 JUMP JUMPDEST PUSH2 0x234 PUSH2 0x44A CALLDATASIZE PUSH1 0x4 PUSH2 0x405D JUMP JUMPDEST PUSH2 0xB70 JUMP JUMPDEST PUSH2 0x272 PUSH2 0x45D CALLDATASIZE PUSH1 0x4 PUSH2 0x3C83 JUMP JUMPDEST PUSH2 0xCCE JUMP JUMPDEST PUSH2 0x272 PUSH2 0x470 CALLDATASIZE PUSH1 0x4 PUSH2 0x3C83 JUMP JUMPDEST PUSH2 0xD0C JUMP JUMPDEST PUSH2 0x409 PUSH2 0xD19 JUMP JUMPDEST PUSH2 0x292 PUSH2 0x48B CALLDATASIZE PUSH1 0x4 PUSH2 0x3C0E JUMP JUMPDEST PUSH2 0xD23 JUMP JUMPDEST PUSH2 0x3BA PUSH2 0x49E CALLDATASIZE PUSH1 0x4 PUSH2 0x3DB1 JUMP JUMPDEST PUSH2 0xE6C JUMP JUMPDEST PUSH2 0x234 PUSH2 0x4B1 CALLDATASIZE PUSH1 0x4 PUSH2 0x3B96 JUMP JUMPDEST PUSH2 0xF9B JUMP JUMPDEST PUSH2 0x292 PUSH2 0xFD8 JUMP JUMPDEST PUSH1 0x0 DUP5 PUSH1 0x80 ADD MLOAD PUSH2 0x4EB PUSH2 0x4D0 PUSH2 0xAE1 JUMP JUMPDEST PUSH1 0x1 PUSH1 0x1 PUSH1 0xA0 SHL SUB AND CALLER PUSH1 0x1 PUSH1 0x1 PUSH1 0xA0 SHL SUB AND EQ PUSH1 0xCD PUSH2 0x1061 JUMP JUMPDEST PUSH2 0x500 PUSH2 0x4F6 PUSH2 0x7E1 JUMP JUMPDEST DUP3 EQ PUSH2 0x1F4 PUSH2 0x1061 JUMP JUMPDEST PUSH2 0x512 DUP5 DUP5 PUSH2 0x50D PUSH2 0x106F JUMP JUMPDEST PUSH2 0x1093 JUMP JUMPDEST PUSH1 0x0 PUSH2 0x51C PUSH2 0x10B0 JUMP JUMPDEST SWAP1 POP PUSH1 0x0 DUP8 MLOAD PUSH1 0x1 DUP2 GT ISZERO PUSH2 0x52D JUMPI INVALID JUMPDEST EQ PUSH2 0x544 JUMPI PUSH2 0x53F DUP8 DUP8 DUP8 DUP8 DUP6 PUSH2 0x11D7 JUMP JUMPDEST PUSH2 0x551 JUMP JUMPDEST PUSH2 0x551 DUP8 DUP8 DUP8 DUP8 DUP6 PUSH2 0x124E JUMP JUMPDEST SWAP8 SWAP7 POP POP POP POP POP POP POP JUMP JUMPDEST PUSH1 0x3 DUP1 SLOAD PUSH1 0x40 DUP1 MLOAD PUSH1 0x20 PUSH1 0x1F PUSH1 0x2 PUSH1 0x0 NOT PUSH2 0x100 PUSH1 0x1 DUP9 AND ISZERO MUL ADD SWAP1 SWAP6 AND SWAP5 SWAP1 SWAP5 DIV SWAP4 DUP5 ADD DUP2 SWAP1 DIV DUP2 MUL DUP3 ADD DUP2 ADD SWAP1 SWAP3 MSTORE DUP3 DUP2 MSTORE PUSH1 0x60 SWAP4 SWAP1 SWAP3 SWAP1 SWAP2 DUP4 ADD DUP3 DUP3 DUP1 ISZERO PUSH2 0x5E8 JUMPI DUP1 PUSH1 0x1F LT PUSH2 0x5BD JUMPI PUSH2 0x100 DUP1 DUP4 SLOAD DIV MUL DUP4 MSTORE SWAP2 PUSH1 0x20 ADD SWAP2 PUSH2 0x5E8 JUMP JUMPDEST DUP3 ADD SWAP2 SWAP1 PUSH1 0x0 MSTORE PUSH1 0x20 PUSH1 0x0 KECCAK256 SWAP1 JUMPDEST DUP2 SLOAD DUP2 MSTORE SWAP1 PUSH1 0x1 ADD SWAP1 PUSH1 0x20 ADD DUP1 DUP4 GT PUSH2 0x5CB JUMPI DUP3 SWAP1 SUB PUSH1 0x1F AND DUP3 ADD SWAP2 JUMPDEST POP POP POP POP POP SWAP1 POP JUMPDEST SWAP1 JUMP JUMPDEST PUSH1 0x0 PUSH2 0x600 CALLER DUP5 DUP5 PUSH2 0x12B2 JUMP JUMPDEST POP PUSH1 0x1 JUMPDEST SWAP3 SWAP2 POP POP JUMP JUMPDEST PUSH2 0x612 PUSH2 0x131A JUMP JUMPDEST PUSH2 0x61B DUP2 PUSH2 0x1348 JUMP JUMPDEST POP JUMP JUMPDEST PUSH1 0x2 SLOAD SWAP1 JUMP JUMPDEST PUSH1 0x0 DUP1 PUSH1 0x0 PUSH2 0x631 PUSH2 0x13C6 JUMP JUMPDEST ISZERO SWAP3 POP PUSH2 0x63C PUSH2 0x13E3 JUMP JUMPDEST SWAP2 POP PUSH2 0x646 PUSH2 0x1407 JUMP JUMPDEST SWAP1 POP SWAP1 SWAP2 SWAP3 JUMP JUMPDEST PUSH1 0x60 PUSH2 0x657 PUSH2 0x10B0 JUMP JUMPDEST SWAP1 POP SWAP1 JUMP JUMPDEST PUSH1 0x0 DUP1 PUSH2 0x669 DUP6 CALLER PUSH2 0xF9B JUMP JUMPDEST SWAP1 POP PUSH2 0x68D CALLER PUSH1 0x1 PUSH1 0x1 PUSH1 0xA0 SHL SUB DUP8 AND EQ DUP1 PUSH2 0x685 JUMPI POP DUP4 DUP3 LT ISZERO JUMPDEST PUSH2 0x19E PUSH2 0x1061 JUMP JUMPDEST PUSH2 0x698 DUP6 DUP6 DUP6 PUSH2 0x142B JUMP JUMPDEST CALLER PUSH1 0x1 PUSH1 0x1 PUSH1 0xA0 SHL SUB DUP7 AND EQ DUP1 ISZERO SWAP1 PUSH2 0x6B3 JUMPI POP PUSH1 0x0 NOT DUP2 EQ ISZERO JUMPDEST ISZERO PUSH2 0x6C5 JUMPI PUSH2 0x6C5 DUP6 CALLER DUP6 DUP5 SUB PUSH2 0x12B2 JUMP JUMPDEST PUSH1 0x1 SWAP2 POP POP JUMPDEST SWAP4 SWAP3 POP POP POP JUMP JUMPDEST PUSH2 0x6DA PUSH2 0x131A JUMP JUMPDEST PUSH2 0x6EA PUSH1 0x1 DUP4 LT ISZERO PUSH2 0x12C PUSH2 0x1061 JUMP JUMPDEST PUSH2 0x6FB PUSH2 0x1388 DUP4 GT ISZERO PUSH2 0x12D PUSH2 0x1061 JUMP JUMPDEST PUSH1 0x0 PUSH2 0x707 DUP3 TIMESTAMP PUSH2 0x1047 JUMP JUMPDEST SWAP1 POP PUSH2 0x71B PUSH3 0x15180 DUP3 LT ISZERO PUSH2 0x13D PUSH2 0x1061 JUMP JUMPDEST PUSH1 0x0 DUP1 PUSH2 0x726 PUSH2 0x150B JUMP JUMPDEST SWAP2 POP SWAP2 POP PUSH2 0x737 DUP2 ISZERO PUSH2 0x13E PUSH2 0x1061 JUMP JUMPDEST PUSH1 0x0 PUSH2 0x745 DUP7 PUSH2 0x3E8 PUSH2 0x100E JUMP JUMPDEST SWAP1 POP PUSH1 0x0 DUP4 DUP3 GT PUSH2 0x774 JUMPI PUSH2 0x76F PUSH2 0x760 PUSH3 0x15180 DUP7 PUSH2 0x100E JUMP JUMPDEST PUSH2 0x76A DUP5 DUP9 PUSH2 0x100E JUMP JUMPDEST PUSH2 0x157F JUMP JUMPDEST PUSH2 0x78E JUMP JUMPDEST PUSH2 0x78E PUSH2 0x784 PUSH3 0x15180 DUP5 PUSH2 0x100E JUMP JUMPDEST PUSH2 0x76A DUP7 DUP9 PUSH2 0x100E JUMP JUMPDEST SWAP1 POP PUSH2 0x7A0 PUSH1 0x2 DUP3 GT ISZERO PUSH2 0x13F PUSH2 0x1061 JUMP JUMPDEST PUSH2 0x7AC DUP5 DUP4 TIMESTAMP DUP10 PUSH2 0x15B2 JUMP JUMPDEST POP POP POP POP POP POP POP JUMP JUMPDEST PUSH1 0x5 SLOAD PUSH1 0xFF AND SWAP1 JUMP JUMPDEST PUSH1 0x0 PUSH2 0x657 PUSH2 0x1601 JUMP JUMPDEST PUSH2 0x7D0 PUSH2 0x131A JUMP JUMPDEST PUSH2 0x7D8 PUSH2 0x169E JUMP JUMPDEST PUSH2 0x61B DUP2 PUSH2 0x16B3 JUMP JUMPDEST PUSH32 0x0 SWAP1 JUMP JUMPDEST CALLER PUSH1 0x0 DUP2 DUP2 MSTORE PUSH1 0x1 PUSH1 0x20 SWAP1 DUP2 MSTORE PUSH1 0x40 DUP1 DUP4 KECCAK256 PUSH1 0x1 PUSH1 0x1 PUSH1 0xA0 SHL SUB DUP8 AND DUP5 MSTORE SWAP1 SWAP2 MSTORE DUP2 KECCAK256 SLOAD SWAP1 SWAP2 PUSH2 0x600 SWAP2 DUP6 SWAP1 PUSH2 0x83B SWAP1 DUP7 PUSH2 0x171E JUMP JUMPDEST PUSH2 0x12B2 JUMP JUMPDEST PUSH2 0x848 PUSH2 0x131A JUMP JUMPDEST PUSH2 0x850 PUSH2 0x169E JUMP JUMPDEST PUSH2 0x85A DUP3 DUP3 PUSH2 0x1730 JUMP JUMPDEST POP POP JUMP JUMPDEST PUSH1 0x8 SLOAD PUSH1 0x0 SWAP1 PUSH2 0x657 SWAP1 PUSH1 0xC0 PUSH2 0x182F JUMP JUMPDEST PUSH1 0x0 PUSH1 0x60 PUSH2 0x885 DUP7 MLOAD PUSH2 0x880 PUSH2 0x106F JUMP JUMPDEST PUSH2 0x183C JUMP JUMPDEST PUSH2 0x89A DUP10 DUP10 DUP10 DUP10 DUP10 DUP10 DUP10 PUSH2 0x1849 PUSH2 0x18EC PUSH2 0x194D JUMP JUMPDEST SWAP8 POP SWAP8 SWAP6 POP POP POP POP POP POP JUMP JUMPDEST PUSH1 0x0 DUP1 PUSH2 0x8B1 PUSH2 0xAE1 JUMP JUMPDEST PUSH1 0x1 PUSH1 0x1 PUSH1 0xA0 SHL SUB AND PUSH4 0xF94D4668 PUSH2 0x8C7 PUSH2 0x7E1 JUMP JUMPDEST PUSH1 0x40 MLOAD DUP3 PUSH4 0xFFFFFFFF AND PUSH1 0xE0 SHL DUP2 MSTORE PUSH1 0x4 ADD PUSH2 0x8E3 SWAP2 SWAP1 PUSH2 0x4258 JUMP JUMPDEST PUSH1 0x0 PUSH1 0x40 MLOAD DUP1 DUP4 SUB DUP2 DUP7 DUP1 EXTCODESIZE ISZERO DUP1 ISZERO PUSH2 0x8FB JUMPI PUSH1 0x0 DUP1 REVERT JUMPDEST POP GAS STATICCALL ISZERO DUP1 ISZERO PUSH2 0x90F JUMPI RETURNDATASIZE PUSH1 0x0 DUP1 RETURNDATACOPY RETURNDATASIZE PUSH1 0x0 REVERT JUMPDEST POP POP POP POP PUSH1 0x40 MLOAD RETURNDATASIZE PUSH1 0x0 DUP3 RETURNDATACOPY PUSH1 0x1F RETURNDATASIZE SWAP1 DUP2 ADD PUSH1 0x1F NOT AND DUP3 ADD PUSH1 0x40 MSTORE PUSH2 0x937 SWAP2 SWAP1 DUP2 ADD SWAP1 PUSH2 0x3CAE JUMP JUMPDEST POP SWAP2 POP POP PUSH2 0x94C DUP2 PUSH2 0x947 PUSH2 0x10B0 JUMP JUMPDEST PUSH2 0x1A6F JUMP JUMPDEST PUSH1 0x0 PUSH2 0x956 PUSH2 0x150B JUMP JUMPDEST POP SWAP1 POP PUSH2 0x96B DUP3 DUP3 PUSH2 0x966 PUSH2 0x61E JUMP JUMPDEST PUSH2 0x1AD0 JUMP JUMPDEST SWAP3 POP POP POP SWAP1 JUMP JUMPDEST PUSH1 0x0 DUP1 PUSH1 0x0 PUSH2 0x97F PUSH2 0x150B JUMP JUMPDEST SWAP1 SWAP5 SWAP1 SWAP4 POP PUSH2 0x3E8 SWAP3 POP SWAP1 POP JUMP JUMPDEST PUSH1 0x1 PUSH1 0x1 PUSH1 0xA0 SHL SUB DUP2 AND PUSH1 0x0 SWAP1 DUP2 MSTORE PUSH1 0x20 DUP2 SWAP1 MSTORE PUSH1 0x40 SWAP1 KECCAK256 SLOAD JUMPDEST SWAP2 SWAP1 POP JUMP JUMPDEST PUSH1 0x60 DUP1 DUP9 PUSH2 0x9BB PUSH2 0x4D0 PUSH2 0xAE1 JUMP JUMPDEST PUSH2 0x9C6 PUSH2 0x4F6 PUSH2 0x7E1 JUMP JUMPDEST PUSH1 0x0 PUSH2 0x9D0 PUSH2 0x10B0 JUMP JUMPDEST SWAP1 POP PUSH2 0x9DC DUP9 DUP3 PUSH2 0x1A6F JUMP JUMPDEST PUSH1 0x0 DUP1 PUSH1 0x0 PUSH2 0x9F1 DUP15 DUP15 DUP15 DUP15 DUP15 DUP15 DUP11 DUP16 PUSH2 0x1849 JUMP JUMPDEST SWAP3 POP SWAP3 POP SWAP3 POP PUSH2 0xA01 DUP14 DUP5 PUSH2 0x1AEB JUMP JUMPDEST PUSH2 0xA0B DUP3 DUP6 PUSH2 0x18EC JUMP JUMPDEST PUSH2 0xA15 DUP2 DUP6 PUSH2 0x18EC JUMP JUMPDEST SWAP1 SWAP6 POP SWAP4 POP POP POP JUMPDEST POP SWAP8 POP SWAP8 SWAP6 POP POP POP POP POP POP JUMP JUMPDEST PUSH1 0x1 PUSH1 0x1 PUSH1 0xA0 SHL SUB AND PUSH1 0x0 SWAP1 DUP2 MSTORE PUSH1 0x6 PUSH1 0x20 MSTORE PUSH1 0x40 SWAP1 KECCAK256 SLOAD SWAP1 JUMP JUMPDEST PUSH1 0x0 PUSH32 0x0 DUP3 PUSH1 0x40 MLOAD PUSH1 0x20 ADD PUSH2 0xA7A SWAP3 SWAP2 SWAP1 PUSH2 0x41A6 JUMP JUMPDEST PUSH1 0x40 MLOAD PUSH1 0x20 DUP2 DUP4 SUB SUB DUP2 MSTORE SWAP1 PUSH1 0x40 MSTORE DUP1 MLOAD SWAP1 PUSH1 0x20 ADD KECCAK256 SWAP1 POP SWAP2 SWAP1 POP JUMP JUMPDEST PUSH1 0x0 PUSH1 0x60 PUSH2 0xAA8 DUP7 MLOAD PUSH2 0x880 PUSH2 0x106F JUMP JUMPDEST PUSH2 0x89A DUP10 DUP10 DUP10 DUP10 DUP10 DUP10 DUP10 PUSH2 0x1AF5 PUSH2 0x1B4D PUSH2 0x194D JUMP JUMPDEST PUSH32 0x0 SWAP1 JUMP JUMPDEST PUSH32 0x0 SWAP1 JUMP JUMPDEST PUSH1 0x4 DUP1 SLOAD PUSH1 0x40 DUP1 MLOAD PUSH1 0x20 PUSH1 0x1F PUSH1 0x2 PUSH1 0x0 NOT PUSH2 0x100 PUSH1 0x1 DUP9 AND ISZERO MUL ADD SWAP1 SWAP6 AND SWAP5 SWAP1 SWAP5 DIV SWAP4 DUP5 ADD DUP2 SWAP1 DIV DUP2 MUL DUP3 ADD DUP2 ADD SWAP1 SWAP3 MSTORE DUP3 DUP2 MSTORE PUSH1 0x60 SWAP4 SWAP1 SWAP3 SWAP1 SWAP2 DUP4 ADD DUP3 DUP3 DUP1 ISZERO PUSH2 0x5E8 JUMPI DUP1 PUSH1 0x1F LT PUSH2 0x5BD JUMPI PUSH2 0x100 DUP1 DUP4 SLOAD DIV MUL DUP4 MSTORE SWAP2 PUSH1 0x20 ADD SWAP2 PUSH2 0x5E8 JUMP JUMPDEST PUSH1 0xA SLOAD PUSH1 0xB SLOAD SWAP1 SWAP2 JUMP JUMPDEST PUSH1 0x0 DUP4 PUSH1 0x80 ADD MLOAD PUSH2 0xB82 PUSH2 0x4D0 PUSH2 0xAE1 JUMP JUMPDEST PUSH2 0xB8D PUSH2 0x4F6 PUSH2 0x7E1 JUMP JUMPDEST PUSH1 0x0 PUSH2 0xB9C DUP7 PUSH1 0x20 ADD MLOAD PUSH2 0x1BAE JUMP JUMPDEST SWAP1 POP PUSH1 0x0 PUSH2 0xBAD DUP8 PUSH1 0x40 ADD MLOAD PUSH2 0x1BAE JUMP JUMPDEST SWAP1 POP PUSH1 0x0 DUP8 MLOAD PUSH1 0x1 DUP2 GT ISZERO PUSH2 0xBBE JUMPI INVALID JUMPDEST EQ ISZERO PUSH2 0xC4E JUMPI PUSH1 0x0 PUSH2 0xBD3 DUP9 PUSH1 0x60 ADD MLOAD PUSH2 0x1CB4 JUMP JUMPDEST SWAP1 POP PUSH1 0x0 DUP2 DUP10 PUSH1 0x60 ADD MLOAD SUB SWAP1 POP PUSH2 0xBF7 DUP10 PUSH1 0x20 ADD MLOAD PUSH2 0xBF2 DUP4 DUP8 PUSH2 0x1CD5 JUMP JUMPDEST PUSH2 0x1CE1 JUMP JUMPDEST PUSH1 0x60 DUP10 ADD DUP3 SWAP1 MSTORE PUSH2 0xC08 DUP9 DUP6 PUSH2 0x1CD5 JUMP JUMPDEST SWAP8 POP PUSH2 0xC14 DUP8 DUP5 PUSH2 0x1CD5 JUMP JUMPDEST SWAP7 POP PUSH2 0xC24 DUP10 PUSH1 0x60 ADD MLOAD DUP6 PUSH2 0x1CD5 JUMP JUMPDEST PUSH1 0x60 DUP11 ADD MSTORE PUSH1 0x0 PUSH2 0xC36 DUP11 DUP11 DUP11 PUSH2 0x1CF3 JUMP JUMPDEST SWAP1 POP PUSH2 0xC42 DUP2 DUP6 PUSH2 0x1D2C JUMP JUMPDEST SWAP7 POP POP POP POP POP POP PUSH2 0xCC6 JUMP JUMPDEST PUSH2 0xC58 DUP7 DUP4 PUSH2 0x1CD5 JUMP JUMPDEST SWAP6 POP PUSH2 0xC64 DUP6 DUP3 PUSH2 0x1CD5 JUMP JUMPDEST SWAP5 POP PUSH2 0xC74 DUP8 PUSH1 0x60 ADD MLOAD DUP3 PUSH2 0x1CD5 JUMP JUMPDEST PUSH1 0x60 DUP9 ADD MSTORE PUSH1 0x0 PUSH2 0xC86 DUP9 DUP9 DUP9 PUSH2 0x1D38 JUMP JUMPDEST SWAP1 POP PUSH2 0xC92 DUP2 DUP5 PUSH2 0x1D67 JUMP JUMPDEST SWAP1 POP PUSH1 0x0 PUSH2 0xC9F DUP3 PUSH2 0x1D73 JUMP JUMPDEST SWAP1 POP PUSH1 0x0 DUP3 DUP3 SUB SWAP1 POP PUSH2 0xCBA DUP11 PUSH1 0x20 ADD MLOAD PUSH2 0xBF2 DUP4 DUP9 PUSH2 0x1CD5 JUMP JUMPDEST POP SWAP5 POP PUSH2 0xCC6 SWAP3 POP POP POP JUMP JUMPDEST POP SWAP4 SWAP3 POP POP POP JUMP JUMPDEST PUSH1 0x0 DUP1 PUSH2 0xCDB CALLER DUP6 PUSH2 0xF9B JUMP JUMPDEST SWAP1 POP DUP1 DUP4 LT PUSH2 0xCF5 JUMPI PUSH2 0xCF0 CALLER DUP6 PUSH1 0x0 PUSH2 0x12B2 JUMP JUMPDEST PUSH2 0xD02 JUMP JUMPDEST PUSH2 0xD02 CALLER DUP6 DUP6 DUP5 SUB PUSH2 0x12B2 JUMP JUMPDEST POP PUSH1 0x1 SWAP4 SWAP3 POP POP POP JUMP JUMPDEST PUSH1 0x0 PUSH2 0x600 CALLER DUP5 DUP5 PUSH2 0x142B JUMP JUMPDEST PUSH1 0x0 PUSH2 0x657 PUSH2 0x1D99 JUMP JUMPDEST PUSH2 0xD31 DUP5 TIMESTAMP GT ISZERO PUSH1 0xD1 PUSH2 0x1061 JUMP JUMPDEST PUSH1 0x1 PUSH1 0x1 PUSH1 0xA0 SHL SUB DUP8 AND PUSH1 0x0 SWAP1 DUP2 MSTORE PUSH1 0x6 PUSH1 0x20 SWAP1 DUP2 MSTORE PUSH1 0x40 DUP1 DUP4 KECCAK256 SLOAD SWAP1 MLOAD SWAP1 SWAP3 SWAP2 PUSH2 0xD88 SWAP2 PUSH32 0x0 SWAP2 DUP13 SWAP2 DUP13 SWAP2 DUP13 SWAP2 DUP9 SWAP2 DUP14 SWAP2 ADD PUSH2 0x4280 JUMP JUMPDEST PUSH1 0x40 MLOAD PUSH1 0x20 DUP2 DUP4 SUB SUB DUP2 MSTORE SWAP1 PUSH1 0x40 MSTORE DUP1 MLOAD SWAP1 PUSH1 0x20 ADD KECCAK256 SWAP1 POP PUSH1 0x0 PUSH2 0xDAB DUP3 PUSH2 0x1E13 JUMP JUMPDEST SWAP1 POP PUSH1 0x0 PUSH1 0x1 DUP3 DUP9 DUP9 DUP9 PUSH1 0x40 MLOAD PUSH1 0x0 DUP2 MSTORE PUSH1 0x20 ADD PUSH1 0x40 MSTORE PUSH1 0x40 MLOAD PUSH2 0xDD2 SWAP5 SWAP4 SWAP3 SWAP2 SWAP1 PUSH2 0x4310 JUMP JUMPDEST PUSH1 0x20 PUSH1 0x40 MLOAD PUSH1 0x20 DUP2 SUB SWAP1 DUP1 DUP5 SUB SWAP1 DUP6 GAS STATICCALL ISZERO DUP1 ISZERO PUSH2 0xDF4 JUMPI RETURNDATASIZE PUSH1 0x0 DUP1 RETURNDATACOPY RETURNDATASIZE PUSH1 0x0 REVERT JUMPDEST POP POP PUSH1 0x40 MLOAD PUSH1 0x1F NOT ADD MLOAD SWAP2 POP PUSH2 0xE36 SWAP1 POP PUSH1 0x1 PUSH1 0x1 PUSH1 0xA0 SHL SUB DUP3 AND ISZERO DUP1 ISZERO SWAP1 PUSH2 0xE2E JUMPI POP DUP12 PUSH1 0x1 PUSH1 0x1 PUSH1 0xA0 SHL SUB AND DUP3 PUSH1 0x1 PUSH1 0x1 PUSH1 0xA0 SHL SUB AND EQ JUMPDEST PUSH2 0x1F8 PUSH2 0x1061 JUMP JUMPDEST PUSH1 0x1 PUSH1 0x1 PUSH1 0xA0 SHL SUB DUP12 AND PUSH1 0x0 SWAP1 DUP2 MSTORE PUSH1 0x6 PUSH1 0x20 MSTORE PUSH1 0x40 SWAP1 KECCAK256 PUSH1 0x1 DUP6 ADD SWAP1 SSTORE PUSH2 0xE5F DUP12 DUP12 DUP12 PUSH2 0x12B2 JUMP JUMPDEST POP POP POP POP POP POP POP POP POP POP POP JUMP JUMPDEST PUSH1 0x60 DUP1 DUP9 PUSH2 0xE7B PUSH2 0x4D0 PUSH2 0xAE1 JUMP JUMPDEST PUSH2 0xE86 PUSH2 0x4F6 PUSH2 0x7E1 JUMP JUMPDEST PUSH1 0x0 PUSH2 0xE90 PUSH2 0x10B0 JUMP JUMPDEST SWAP1 POP PUSH2 0xE9A PUSH2 0x61E JUMP JUMPDEST PUSH2 0xF4B JUMPI PUSH1 0x0 DUP1 PUSH2 0xEAE DUP14 DUP14 DUP14 DUP7 DUP12 PUSH2 0x1E2F JUMP JUMPDEST SWAP2 POP SWAP2 POP PUSH2 0xEC7 PUSH2 0xEBD PUSH2 0x1EBE JUMP JUMPDEST DUP4 LT ISZERO PUSH1 0xCC PUSH2 0x1061 JUMP JUMPDEST PUSH2 0xED9 PUSH1 0x0 PUSH2 0xED4 PUSH2 0x1EBE JUMP JUMPDEST PUSH2 0x1EC5 JUMP JUMPDEST PUSH2 0xEEC DUP12 PUSH2 0xEE5 PUSH2 0x1EBE JUMP JUMPDEST DUP5 SUB PUSH2 0x1EC5 JUMP JUMPDEST PUSH2 0xEF6 DUP2 DUP5 PUSH2 0x1B4D JUMP JUMPDEST DUP1 PUSH2 0xEFF PUSH2 0x106F JUMP JUMPDEST PUSH1 0x1 PUSH1 0x1 PUSH1 0x40 SHL SUB DUP2 GT DUP1 ISZERO PUSH2 0xF14 JUMPI PUSH1 0x0 DUP1 REVERT JUMPDEST POP PUSH1 0x40 MLOAD SWAP1 DUP1 DUP3 MSTORE DUP1 PUSH1 0x20 MUL PUSH1 0x20 ADD DUP3 ADD PUSH1 0x40 MSTORE DUP1 ISZERO PUSH2 0xF3E JUMPI DUP2 PUSH1 0x20 ADD PUSH1 0x20 DUP3 MUL DUP1 CALLDATASIZE DUP4 CALLDATACOPY ADD SWAP1 POP JUMPDEST POP SWAP6 POP SWAP6 POP POP POP POP PUSH2 0xA1D JUMP JUMPDEST PUSH2 0xF55 DUP9 DUP3 PUSH2 0x1A6F JUMP JUMPDEST PUSH1 0x0 DUP1 PUSH1 0x0 PUSH2 0xF6A DUP15 DUP15 DUP15 DUP15 DUP15 DUP15 DUP11 DUP16 PUSH2 0x1AF5 JUMP JUMPDEST SWAP3 POP SWAP3 POP SWAP3 POP PUSH2 0xF7A DUP13 DUP5 PUSH2 0x1EC5 JUMP JUMPDEST PUSH2 0xF84 DUP3 DUP6 PUSH2 0x1B4D JUMP JUMPDEST PUSH2 0xF8E DUP2 DUP6 PUSH2 0x18EC JUMP JUMPDEST SWAP1 SWAP6 POP SWAP4 POP PUSH2 0xA1D SWAP2 POP POP JUMP JUMPDEST PUSH1 0x0 PUSH2 0xFA5 PUSH2 0xAE1 JUMP JUMPDEST PUSH1 0x1 PUSH1 0x1 PUSH1 0xA0 SHL SUB AND DUP3 PUSH1 0x1 PUSH1 0x1 PUSH1 0xA0 SHL SUB AND EQ ISZERO PUSH2 0xFC7 JUMPI POP PUSH1 0x0 NOT PUSH2 0x604 JUMP JUMPDEST PUSH2 0xFD1 DUP4 DUP4 PUSH2 0x1ECF JUMP JUMPDEST SWAP1 POP PUSH2 0x604 JUMP JUMPDEST PUSH2 0xFE0 PUSH2 0x131A JUMP JUMPDEST PUSH1 0x0 DUP1 PUSH2 0xFEB PUSH2 0x150B JUMP JUMPDEST SWAP2 POP SWAP2 POP PUSH2 0xFFB DUP2 PUSH2 0x140 PUSH2 0x1061 JUMP JUMPDEST PUSH2 0x85A DUP3 PUSH2 0x1EFA JUMP JUMPDEST DUP1 PUSH2 0x85A DUP2 PUSH2 0x1F35 JUMP JUMPDEST PUSH1 0x0 DUP3 DUP3 MUL PUSH2 0x6CB DUP5 ISZERO DUP1 PUSH2 0x102B JUMPI POP DUP4 DUP6 DUP4 DUP2 PUSH2 0x1028 JUMPI INVALID JUMPDEST DIV EQ JUMPDEST PUSH1 0x3 PUSH2 0x1061 JUMP JUMPDEST PUSH1 0x1 PUSH1 0x1 PUSH1 0x40 SHL SUB DUP2 SHL NOT SWAP3 SWAP1 SWAP3 AND SWAP2 SHL OR SWAP1 JUMP JUMPDEST PUSH1 0x0 PUSH2 0x1057 DUP4 DUP4 GT ISZERO PUSH1 0x1 PUSH2 0x1061 JUMP JUMPDEST POP SWAP1 SUB SWAP1 JUMP JUMPDEST SHL SWAP1 JUMP JUMPDEST DUP2 PUSH2 0x85A JUMPI PUSH2 0x85A DUP2 PUSH2 0x1FAE JUMP JUMPDEST PUSH32 0x0 SWAP1 JUMP JUMPDEST PUSH2 0x10AB DUP2 DUP5 LT DUP1 ISZERO PUSH2 0x10A4 JUMPI POP DUP2 DUP4 LT JUMPDEST PUSH1 0x64 PUSH2 0x1061 JUMP JUMPDEST POP POP POP JUMP JUMPDEST PUSH1 0x60 PUSH1 0x0 PUSH2 0x10BC PUSH2 0x106F JUMP JUMPDEST SWAP1 POP PUSH1 0x0 DUP2 PUSH1 0x1 PUSH1 0x1 PUSH1 0x40 SHL SUB DUP2 GT DUP1 ISZERO PUSH2 0x10D6 JUMPI PUSH1 0x0 DUP1 REVERT JUMPDEST POP PUSH1 0x40 MLOAD SWAP1 DUP1 DUP3 MSTORE DUP1 PUSH1 0x20 MUL PUSH1 0x20 ADD DUP3 ADD PUSH1 0x40 MSTORE DUP1 ISZERO PUSH2 0x1100 JUMPI DUP2 PUSH1 0x20 ADD PUSH1 0x20 DUP3 MUL DUP1 CALLDATASIZE DUP4 CALLDATACOPY ADD SWAP1 POP JUMPDEST POP SWAP1 POP PUSH2 0x110B PUSH2 0x2001 JUMP JUMPDEST DUP2 PUSH1 0x0 DUP2 MLOAD DUP2 LT PUSH2 0x1118 JUMPI INVALID JUMPDEST PUSH1 0x20 MUL PUSH1 0x20 ADD ADD DUP2 DUP2 MSTORE POP POP PUSH2 0x112C PUSH2 0x2025 JUMP JUMPDEST DUP2 PUSH1 0x1 DUP2 MLOAD DUP2 LT PUSH2 0x1139 JUMPI INVALID JUMPDEST PUSH1 0x20 MUL PUSH1 0x20 ADD ADD DUP2 DUP2 MSTORE POP POP PUSH1 0x2 DUP3 GT ISZERO PUSH2 0x1174 JUMPI PUSH2 0x1156 PUSH2 0x2049 JUMP JUMPDEST DUP2 PUSH1 0x2 DUP2 MLOAD DUP2 LT PUSH2 0x1163 JUMPI INVALID JUMPDEST PUSH1 0x20 MUL PUSH1 0x20 ADD ADD DUP2 DUP2 MSTORE POP POP PUSH2 0x117D JUMP JUMPDEST SWAP2 POP PUSH2 0x5F0 SWAP1 POP JUMP JUMPDEST PUSH1 0x3 DUP3 GT ISZERO PUSH2 0x1174 JUMPI PUSH2 0x118E PUSH2 0x206D JUMP JUMPDEST DUP2 PUSH1 0x3 DUP2 MLOAD DUP2 LT PUSH2 0x119B JUMPI INVALID JUMPDEST PUSH1 0x20 MUL PUSH1 0x20 ADD ADD DUP2 DUP2 MSTORE POP POP PUSH1 0x4 DUP3 GT ISZERO PUSH2 0x1174 JUMPI PUSH2 0x11B8 PUSH2 0x2091 JUMP JUMPDEST DUP2 PUSH1 0x4 DUP2 MLOAD DUP2 LT PUSH2 0x11C5 JUMPI INVALID JUMPDEST PUSH1 0x20 MUL PUSH1 0x20 ADD ADD DUP2 DUP2 MSTORE POP POP SWAP2 POP POP SWAP1 JUMP JUMPDEST PUSH1 0x0 PUSH2 0x11E3 DUP6 DUP4 PUSH2 0x1A6F JUMP JUMPDEST PUSH2 0x1204 DUP7 PUSH1 0x60 ADD MLOAD DUP4 DUP6 DUP2 MLOAD DUP2 LT PUSH2 0x11F7 JUMPI INVALID JUMPDEST PUSH1 0x20 MUL PUSH1 0x20 ADD ADD MLOAD PUSH2 0x1CD5 JUMP JUMPDEST PUSH1 0x60 DUP8 ADD MSTORE PUSH1 0x0 PUSH2 0x1217 DUP8 DUP8 DUP8 DUP8 PUSH2 0x20B5 JUMP JUMPDEST SWAP1 POP PUSH2 0x1236 DUP2 DUP5 DUP8 DUP2 MLOAD DUP2 LT PUSH2 0x1229 JUMPI INVALID JUMPDEST PUSH1 0x20 MUL PUSH1 0x20 ADD ADD MLOAD PUSH2 0x1D67 JUMP JUMPDEST SWAP1 POP PUSH2 0x1241 DUP2 PUSH2 0x1D73 JUMP JUMPDEST SWAP2 POP POP JUMPDEST SWAP6 SWAP5 POP POP POP POP POP JUMP JUMPDEST PUSH1 0x0 PUSH2 0x125D DUP7 PUSH1 0x60 ADD MLOAD PUSH2 0x1CB4 JUMP JUMPDEST PUSH1 0x60 DUP8 ADD MSTORE PUSH2 0x126C DUP6 DUP4 PUSH2 0x1A6F JUMP JUMPDEST PUSH2 0x1280 DUP7 PUSH1 0x60 ADD MLOAD DUP4 DUP7 DUP2 MLOAD DUP2 LT PUSH2 0x11F7 JUMPI INVALID JUMPDEST PUSH1 0x60 DUP8 ADD MSTORE PUSH1 0x0 PUSH2 0x1293 DUP8 DUP8 DUP8 DUP8 PUSH2 0x20FE JUMP JUMPDEST SWAP1 POP PUSH2 0x1241 DUP2 DUP5 DUP7 DUP2 MLOAD DUP2 LT PUSH2 0x12A5 JUMPI INVALID JUMPDEST PUSH1 0x20 MUL PUSH1 0x20 ADD ADD MLOAD PUSH2 0x1D2C JUMP JUMPDEST PUSH1 0x1 PUSH1 0x1 PUSH1 0xA0 SHL SUB DUP1 DUP5 AND PUSH1 0x0 DUP2 DUP2 MSTORE PUSH1 0x1 PUSH1 0x20 SWAP1 DUP2 MSTORE PUSH1 0x40 DUP1 DUP4 KECCAK256 SWAP5 DUP8 AND DUP1 DUP5 MSTORE SWAP5 SWAP1 SWAP2 MSTORE SWAP1 DUP2 SWAP1 KECCAK256 DUP5 SWAP1 SSTORE MLOAD PUSH32 0x8C5BE1E5EBEC7D5BD14F71427D1E84F3DD0314C0F7B2291E5B200AC8C7C3B925 SWAP1 PUSH2 0x130D SWAP1 DUP6 SWAP1 PUSH2 0x4258 JUMP JUMPDEST PUSH1 0x40 MLOAD DUP1 SWAP2 SUB SWAP1 LOG3 POP POP POP JUMP JUMPDEST PUSH1 0x0 PUSH2 0x1331 PUSH1 0x0 CALLDATALOAD PUSH1 0x1 PUSH1 0x1 PUSH1 0xE0 SHL SUB NOT AND PUSH2 0xA45 JUMP JUMPDEST SWAP1 POP PUSH2 0x61B PUSH2 0x1340 DUP3 CALLER PUSH2 0x2139 JUMP JUMPDEST PUSH2 0x191 PUSH2 0x1061 JUMP JUMPDEST DUP1 ISZERO PUSH2 0x1368 JUMPI PUSH2 0x1363 PUSH2 0x1359 PUSH2 0x13E3 JUMP JUMPDEST TIMESTAMP LT PUSH2 0x193 PUSH2 0x1061 JUMP JUMPDEST PUSH2 0x137D JUMP JUMPDEST PUSH2 0x137D PUSH2 0x1373 PUSH2 0x1407 JUMP JUMPDEST TIMESTAMP LT PUSH2 0x1A9 PUSH2 0x1061 JUMP JUMPDEST PUSH1 0x7 DUP1 SLOAD PUSH1 0xFF NOT AND DUP3 ISZERO ISZERO OR SWAP1 SSTORE PUSH1 0x40 MLOAD PUSH32 0x9E3A5E37224532DEA67B89FACE185703738A228A6E8A23DEE546960180D3BE64 SWAP1 PUSH2 0x13BB SWAP1 DUP4 SWAP1 PUSH2 0x4235 JUMP JUMPDEST PUSH1 0x40 MLOAD DUP1 SWAP2 SUB SWAP1 LOG1 POP JUMP JUMPDEST PUSH1 0x0 PUSH2 0x13D0 PUSH2 0x1407 JUMP JUMPDEST TIMESTAMP GT DUP1 PUSH2 0x657 JUMPI POP POP PUSH1 0x7 SLOAD PUSH1 0xFF AND ISZERO SWAP1 JUMP JUMPDEST PUSH32 0x0 SWAP1 JUMP JUMPDEST PUSH32 0x0 SWAP1 JUMP JUMPDEST PUSH2 0x1442 PUSH1 0x1 PUSH1 0x1 PUSH1 0xA0 SHL SUB DUP5 AND ISZERO ISZERO PUSH2 0x198 PUSH2 0x1061 JUMP JUMPDEST PUSH2 0x1459 PUSH1 0x1 PUSH1 0x1 PUSH1 0xA0 SHL SUB DUP4 AND ISZERO ISZERO PUSH2 0x199 PUSH2 0x1061 JUMP JUMPDEST PUSH2 0x1464 DUP4 DUP4 DUP4 PUSH2 0x10AB JUMP JUMPDEST PUSH1 0x1 PUSH1 0x1 PUSH1 0xA0 SHL SUB DUP4 AND PUSH1 0x0 SWAP1 DUP2 MSTORE PUSH1 0x20 DUP2 SWAP1 MSTORE PUSH1 0x40 SWAP1 KECCAK256 SLOAD PUSH2 0x148A SWAP1 DUP3 PUSH2 0x1A0 PUSH2 0x2222 JUMP JUMPDEST PUSH1 0x1 PUSH1 0x1 PUSH1 0xA0 SHL SUB DUP1 DUP6 AND PUSH1 0x0 SWAP1 DUP2 MSTORE PUSH1 0x20 DUP2 SWAP1 MSTORE PUSH1 0x40 DUP1 DUP3 KECCAK256 SWAP4 SWAP1 SWAP4 SSTORE SWAP1 DUP5 AND DUP2 MSTORE KECCAK256 SLOAD PUSH2 0x14B9 SWAP1 DUP3 PUSH2 0x171E JUMP JUMPDEST PUSH1 0x1 PUSH1 0x1 PUSH1 0xA0 SHL SUB DUP1 DUP5 AND PUSH1 0x0 DUP2 DUP2 MSTORE PUSH1 0x20 DUP2 SWAP1 MSTORE PUSH1 0x40 SWAP1 DUP2 SWAP1 KECCAK256 SWAP4 SWAP1 SWAP4 SSTORE SWAP2 MLOAD SWAP1 DUP6 AND SWAP1 PUSH32 0xDDF252AD1BE2C89B69C2B068FC378DAA952BA7F163C4A11628F55A4DF523B3EF SWAP1 PUSH2 0x130D SWAP1 DUP6 SWAP1 PUSH2 0x4258 JUMP JUMPDEST PUSH1 0x0 DUP1 PUSH1 0x0 DUP1 PUSH1 0x0 DUP1 PUSH2 0x151C PUSH2 0x2238 JUMP JUMPDEST SWAP4 POP SWAP4 POP SWAP4 POP SWAP4 POP DUP1 TIMESTAMP LT ISZERO PUSH2 0x156F JUMPI PUSH1 0x1 SWAP5 POP DUP4 DUP4 GT ISZERO PUSH2 0x1553 JUMPI DUP2 DUP2 SUB DUP3 TIMESTAMP SUB DUP6 DUP6 SUB MUL DUP2 PUSH2 0x1549 JUMPI INVALID JUMPDEST DIV DUP5 ADD SWAP6 POP PUSH2 0x156A JUMP JUMPDEST DUP2 DUP2 SUB DUP3 TIMESTAMP SUB DUP5 DUP7 SUB MUL DUP2 PUSH2 0x1564 JUMPI INVALID JUMPDEST DIV DUP5 SUB SWAP6 POP JUMPDEST PUSH2 0x1577 JUMP JUMPDEST PUSH1 0x0 SWAP5 POP DUP3 SWAP6 POP JUMPDEST POP POP POP POP SWAP1 SWAP2 JUMP JUMPDEST PUSH1 0x0 PUSH2 0x158E DUP3 ISZERO ISZERO PUSH1 0x4 PUSH2 0x1061 JUMP JUMPDEST DUP3 PUSH2 0x159B JUMPI POP PUSH1 0x0 PUSH2 0x604 JUMP JUMPDEST DUP2 PUSH1 0x1 DUP5 SUB DUP2 PUSH2 0x15A7 JUMPI INVALID JUMPDEST DIV PUSH1 0x1 ADD SWAP1 POP PUSH2 0x604 JUMP JUMPDEST PUSH2 0x15BE DUP5 DUP5 DUP5 DUP5 PUSH2 0x228F JUMP JUMPDEST PUSH32 0x1835882EE7A34AC194F717A35E09BB1D24C82A3B9D854AB6C9749525B714CDF2 DUP5 DUP5 DUP5 DUP5 PUSH1 0x40 MLOAD PUSH2 0x15F3 SWAP5 SWAP4 SWAP3 SWAP2 SWAP1 PUSH2 0x437E JUMP JUMPDEST PUSH1 0x40 MLOAD DUP1 SWAP2 SUB SWAP1 LOG1 POP POP POP POP JUMP JUMPDEST PUSH1 0x0 PUSH32 0x0 PUSH32 0x0 PUSH32 0x0 PUSH2 0x166E PUSH2 0x22EB JUMP JUMPDEST ADDRESS PUSH1 0x40 MLOAD PUSH1 0x20 ADD PUSH2 0x1683 SWAP6 SWAP5 SWAP4 SWAP3 SWAP2 SWAP1 PUSH2 0x42B4 JUMP JUMPDEST PUSH1 0x40 MLOAD PUSH1 0x20 DUP2 DUP4 SUB SUB DUP2 MSTORE SWAP1 PUSH1 0x40 MSTORE DUP1 MLOAD SWAP1 PUSH1 0x20 ADD KECCAK256 SWAP1 POP SWAP1 JUMP JUMPDEST PUSH2 0x16B1 PUSH2 0x16A9 PUSH2 0x13C6 JUMP JUMPDEST PUSH2 0x192 PUSH2 0x1061 JUMP JUMPDEST JUMP JUMPDEST PUSH2 0x16C6 PUSH5 0xE8D4A51000 DUP3 LT ISZERO PUSH1 0xCB PUSH2 0x1061 JUMP JUMPDEST PUSH2 0x16DC PUSH8 0x16345785D8A0000 DUP3 GT ISZERO PUSH1 0xCA PUSH2 0x1061 JUMP JUMPDEST PUSH1 0x8 SLOAD PUSH2 0x16EB SWAP1 DUP3 PUSH1 0xC0 PUSH2 0x1032 JUMP JUMPDEST PUSH1 0x8 SSTORE PUSH1 0x40 MLOAD PUSH32 0xA9BA3FFE0B6C366B81232CAAB38605A0699AD5398D6CCE76F91EE809E322DAFC SWAP1 PUSH2 0x13BB SWAP1 DUP4 SWAP1 PUSH2 0x4258 JUMP JUMPDEST PUSH1 0x0 DUP3 DUP3 ADD PUSH2 0x6CB DUP5 DUP3 LT ISZERO DUP4 PUSH2 0x1061 JUMP JUMPDEST PUSH1 0x0 PUSH2 0x173A PUSH2 0x7E1 JUMP JUMPDEST SWAP1 POP PUSH1 0x0 PUSH2 0x1746 PUSH2 0xAE1 JUMP JUMPDEST PUSH1 0x1 PUSH1 0x1 PUSH1 0xA0 SHL SUB AND PUSH4 0xB05F8E48 DUP4 DUP7 PUSH1 0x40 MLOAD DUP4 PUSH4 0xFFFFFFFF AND PUSH1 0xE0 SHL DUP2 MSTORE PUSH1 0x4 ADD PUSH2 0x1773 SWAP3 SWAP2 SWAP1 PUSH2 0x42F9 JUMP JUMPDEST PUSH1 0x80 PUSH1 0x40 MLOAD DUP1 DUP4 SUB DUP2 DUP7 DUP1 EXTCODESIZE ISZERO DUP1 ISZERO PUSH2 0x178B JUMPI PUSH1 0x0 DUP1 REVERT JUMPDEST POP GAS STATICCALL ISZERO DUP1 ISZERO PUSH2 0x179F JUMPI RETURNDATASIZE PUSH1 0x0 DUP1 RETURNDATACOPY RETURNDATASIZE PUSH1 0x0 REVERT JUMPDEST POP POP POP POP PUSH1 0x40 MLOAD RETURNDATASIZE PUSH1 0x1F NOT PUSH1 0x1F DUP3 ADD AND DUP3 ADD DUP1 PUSH1 0x40 MSTORE POP DUP2 ADD SWAP1 PUSH2 0x17C3 SWAP2 SWAP1 PUSH2 0x40E1 JUMP JUMPDEST PUSH1 0x40 MLOAD PUSH4 0x639CDB5 PUSH1 0xE2 SHL DUP2 MSTORE SWAP1 SWAP5 POP PUSH1 0x1 PUSH1 0x1 PUSH1 0xA0 SHL SUB DUP6 AND SWAP4 POP PUSH4 0x18E736D4 SWAP3 POP PUSH2 0x17F7 SWAP2 POP DUP6 SWAP1 DUP8 SWAP1 PUSH1 0x4 ADD PUSH2 0x42E0 JUMP JUMPDEST PUSH1 0x0 PUSH1 0x40 MLOAD DUP1 DUP4 SUB DUP2 PUSH1 0x0 DUP8 DUP1 EXTCODESIZE ISZERO DUP1 ISZERO PUSH2 0x1811 JUMPI PUSH1 0x0 DUP1 REVERT JUMPDEST POP GAS CALL ISZERO DUP1 ISZERO PUSH2 0x1825 JUMPI RETURNDATASIZE PUSH1 0x0 DUP1 RETURNDATACOPY RETURNDATASIZE PUSH1 0x0 REVERT JUMPDEST POP POP POP POP POP POP POP POP JUMP JUMPDEST SHR PUSH1 0x1 PUSH1 0x1 PUSH1 0x40 SHL SUB AND SWAP1 JUMP JUMPDEST PUSH2 0x85A DUP2 DUP4 EQ PUSH1 0x67 PUSH2 0x1061 JUMP JUMPDEST PUSH1 0x0 PUSH1 0x60 DUP1 PUSH2 0x1856 PUSH2 0x13C6 JUMP JUMPDEST ISZERO PUSH2 0x1879 JUMPI PUSH2 0x1865 DUP9 DUP8 PUSH2 0x22EF JUMP JUMPDEST SWAP1 POP PUSH2 0x1874 DUP9 DUP3 PUSH2 0x1047 PUSH2 0x23DC JUMP JUMPDEST PUSH2 0x18C4 JUMP JUMPDEST PUSH2 0x1881 PUSH2 0x106F JUMP JUMPDEST PUSH1 0x1 PUSH1 0x1 PUSH1 0x40 SHL SUB DUP2 GT DUP1 ISZERO PUSH2 0x1896 JUMPI PUSH1 0x0 DUP1 REVERT JUMPDEST POP PUSH1 0x40 MLOAD SWAP1 DUP1 DUP3 MSTORE DUP1 PUSH1 0x20 MUL PUSH1 0x20 ADD DUP3 ADD PUSH1 0x40 MSTORE DUP1 ISZERO PUSH2 0x18C0 JUMPI DUP2 PUSH1 0x20 ADD PUSH1 0x20 DUP3 MUL DUP1 CALLDATASIZE DUP4 CALLDATACOPY ADD SWAP1 POP JUMPDEST POP SWAP1 POP JUMPDEST PUSH2 0x18CF DUP9 DUP7 DUP7 PUSH2 0x2447 JUMP JUMPDEST SWAP1 SWAP4 POP SWAP2 POP PUSH2 0x18DE DUP9 DUP4 PUSH2 0x24D2 JUMP JUMPDEST SWAP9 POP SWAP9 POP SWAP9 SWAP6 POP POP POP POP POP POP JUMP JUMPDEST PUSH1 0x0 JUMPDEST PUSH2 0x18F7 PUSH2 0x106F JUMP JUMPDEST DUP2 LT ISZERO PUSH2 0x10AB JUMPI PUSH2 0x192E DUP4 DUP3 DUP2 MLOAD DUP2 LT PUSH2 0x190D JUMPI INVALID JUMPDEST PUSH1 0x20 MUL PUSH1 0x20 ADD ADD MLOAD DUP4 DUP4 DUP2 MLOAD DUP2 LT PUSH2 0x1921 JUMPI INVALID JUMPDEST PUSH1 0x20 MUL PUSH1 0x20 ADD ADD MLOAD PUSH2 0x2501 JUMP JUMPDEST DUP4 DUP3 DUP2 MLOAD DUP2 LT PUSH2 0x193A JUMPI INVALID JUMPDEST PUSH1 0x20 SWAP1 DUP2 MUL SWAP2 SWAP1 SWAP2 ADD ADD MSTORE PUSH1 0x1 ADD PUSH2 0x18EF JUMP JUMPDEST CALLER ADDRESS EQ PUSH2 0x1A0B JUMPI PUSH1 0x0 ADDRESS PUSH1 0x1 PUSH1 0x1 PUSH1 0xA0 SHL SUB AND PUSH1 0x0 CALLDATASIZE PUSH1 0x40 MLOAD PUSH2 0x1971 SWAP3 SWAP2 SWAP1 PUSH2 0x41BE JUMP JUMPDEST PUSH1 0x0 PUSH1 0x40 MLOAD DUP1 DUP4 SUB DUP2 PUSH1 0x0 DUP7 GAS CALL SWAP2 POP POP RETURNDATASIZE DUP1 PUSH1 0x0 DUP2 EQ PUSH2 0x19AE JUMPI PUSH1 0x40 MLOAD SWAP2 POP PUSH1 0x1F NOT PUSH1 0x3F RETURNDATASIZE ADD AND DUP3 ADD PUSH1 0x40 MSTORE RETURNDATASIZE DUP3 MSTORE RETURNDATASIZE PUSH1 0x0 PUSH1 0x20 DUP5 ADD RETURNDATACOPY PUSH2 0x19B3 JUMP JUMPDEST PUSH1 0x60 SWAP2 POP JUMPDEST POP POP SWAP1 POP DUP1 PUSH1 0x0 DUP2 EQ PUSH2 0x19C2 JUMPI INVALID JUMPDEST PUSH1 0x4 PUSH1 0x0 DUP1 RETURNDATACOPY PUSH1 0x0 MLOAD PUSH1 0x1 PUSH1 0x1 PUSH1 0xE0 SHL SUB NOT AND PUSH4 0x43ADBAFB PUSH1 0xE0 SHL DUP2 EQ PUSH2 0x19ED JUMPI RETURNDATASIZE PUSH1 0x0 DUP1 RETURNDATACOPY RETURNDATASIZE PUSH1 0x0 REVERT JUMPDEST POP PUSH1 0x20 PUSH1 0x4 PUSH1 0x0 RETURNDATACOPY PUSH1 0x40 PUSH1 0x20 MSTORE PUSH1 0x24 RETURNDATASIZE SUB PUSH1 0x24 PUSH1 0x40 RETURNDATACOPY PUSH1 0x1C RETURNDATASIZE ADD PUSH1 0x0 RETURN JUMPDEST PUSH1 0x0 PUSH2 0x1A15 PUSH2 0x10B0 JUMP JUMPDEST SWAP1 POP PUSH2 0x1A21 DUP8 DUP3 PUSH2 0x1A6F JUMP JUMPDEST PUSH1 0x0 DUP1 PUSH2 0x1A38 DUP13 DUP13 DUP13 DUP13 DUP13 DUP13 DUP10 DUP14 DUP14 PUSH4 0xFFFFFFFF AND JUMP JUMPDEST POP SWAP2 POP SWAP2 POP PUSH2 0x1A4B DUP2 DUP5 DUP7 PUSH4 0xFFFFFFFF AND JUMP JUMPDEST DUP1 MLOAD PUSH1 0x1F NOT DUP3 ADD DUP4 SWAP1 MSTORE PUSH4 0x43ADBAFB PUSH1 0x3F NOT DUP4 ADD MSTORE PUSH1 0x20 MUL PUSH1 0x23 NOT DUP3 ADD PUSH1 0x44 DUP3 ADD DUP2 REVERT JUMPDEST PUSH1 0x0 JUMPDEST PUSH2 0x1A7A PUSH2 0x106F JUMP JUMPDEST DUP2 LT ISZERO PUSH2 0x10AB JUMPI PUSH2 0x1AB1 DUP4 DUP3 DUP2 MLOAD DUP2 LT PUSH2 0x1A90 JUMPI INVALID JUMPDEST PUSH1 0x20 MUL PUSH1 0x20 ADD ADD MLOAD DUP4 DUP4 DUP2 MLOAD DUP2 LT PUSH2 0x1AA4 JUMPI INVALID JUMPDEST PUSH1 0x20 MUL PUSH1 0x20 ADD ADD MLOAD PUSH2 0x2552 JUMP JUMPDEST DUP4 DUP3 DUP2 MLOAD DUP2 LT PUSH2 0x1ABD JUMPI INVALID JUMPDEST PUSH1 0x20 SWAP1 DUP2 MUL SWAP2 SWAP1 SWAP2 ADD ADD MSTORE PUSH1 0x1 ADD PUSH2 0x1A72 JUMP JUMPDEST PUSH1 0x0 DUP1 PUSH2 0x1ADF DUP5 DUP7 PUSH1 0x0 PUSH2 0x257E JUMP JUMPDEST SWAP1 POP PUSH2 0x1245 DUP2 DUP5 PUSH2 0x2501 JUMP JUMPDEST PUSH2 0x85A DUP3 DUP3 PUSH2 0x271A JUMP JUMPDEST PUSH1 0x0 PUSH1 0x60 DUP1 PUSH2 0x1B02 PUSH2 0x169E JUMP JUMPDEST PUSH1 0x0 PUSH2 0x1B0E DUP10 DUP9 PUSH2 0x22EF JUMP JUMPDEST SWAP1 POP PUSH2 0x1B1D DUP10 DUP3 PUSH2 0x1047 PUSH2 0x23DC JUMP JUMPDEST PUSH1 0x0 DUP1 PUSH2 0x1B2B DUP12 DUP10 DUP10 PUSH2 0x27D6 JUMP JUMPDEST SWAP2 POP SWAP2 POP PUSH2 0x1B39 DUP12 DUP3 PUSH2 0x282F JUMP JUMPDEST SWAP1 SWAP14 SWAP1 SWAP13 POP SWAP1 SWAP11 POP SWAP9 POP POP POP POP POP POP POP POP POP JUMP JUMPDEST PUSH1 0x0 JUMPDEST PUSH2 0x1B58 PUSH2 0x106F JUMP JUMPDEST DUP2 LT ISZERO PUSH2 0x10AB JUMPI PUSH2 0x1B8F DUP4 DUP3 DUP2 MLOAD DUP2 LT PUSH2 0x1B6E JUMPI INVALID JUMPDEST PUSH1 0x20 MUL PUSH1 0x20 ADD ADD MLOAD DUP4 DUP4 DUP2 MLOAD DUP2 LT PUSH2 0x1B82 JUMPI INVALID JUMPDEST PUSH1 0x20 MUL PUSH1 0x20 ADD ADD MLOAD PUSH2 0x283C JUMP JUMPDEST DUP4 DUP3 DUP2 MLOAD DUP2 LT PUSH2 0x1B9B JUMPI INVALID JUMPDEST PUSH1 0x20 SWAP1 DUP2 MUL SWAP2 SWAP1 SWAP2 ADD ADD MSTORE PUSH1 0x1 ADD PUSH2 0x1B50 JUMP JUMPDEST PUSH1 0x0 PUSH2 0x1BB9 DUP3 PUSH2 0x288A JUMP JUMPDEST ISZERO PUSH2 0x1BCD JUMPI PUSH2 0x1BC6 PUSH2 0x2001 JUMP JUMPDEST SWAP1 POP PUSH2 0x9A7 JUMP JUMPDEST PUSH2 0x1BD6 DUP3 PUSH2 0x28BC JUMP JUMPDEST ISZERO PUSH2 0x1BE3 JUMPI PUSH2 0x1BC6 PUSH2 0x2025 JUMP JUMPDEST PUSH32 0x0 PUSH1 0x1 PUSH1 0x1 PUSH1 0xA0 SHL SUB AND DUP3 PUSH1 0x1 PUSH1 0x1 PUSH1 0xA0 SHL SUB AND EQ ISZERO PUSH2 0x1C25 JUMPI PUSH2 0x1BC6 PUSH2 0x2049 JUMP JUMPDEST PUSH32 0x0 PUSH1 0x1 PUSH1 0x1 PUSH1 0xA0 SHL SUB AND DUP3 PUSH1 0x1 PUSH1 0x1 PUSH1 0xA0 SHL SUB AND EQ ISZERO PUSH2 0x1C67 JUMPI PUSH2 0x1BC6 PUSH2 0x206D JUMP JUMPDEST PUSH32 0x0 PUSH1 0x1 PUSH1 0x1 PUSH1 0xA0 SHL SUB AND DUP3 PUSH1 0x1 PUSH1 0x1 PUSH1 0xA0 SHL SUB AND EQ ISZERO PUSH2 0x1CA9 JUMPI PUSH2 0x1BC6 PUSH2 0x2091 JUMP JUMPDEST PUSH2 0x9A7 PUSH2 0x135 PUSH2 0x1FAE JUMP JUMPDEST PUSH1 0x0 DUP1 PUSH2 0x1CC9 PUSH2 0x1CC2 PUSH2 0x85E JUMP JUMPDEST DUP5 SWAP1 PUSH2 0x28EE JUMP JUMPDEST SWAP1 POP PUSH2 0x6CB DUP4 DUP3 PUSH2 0x1047 JUMP JUMPDEST PUSH1 0x0 PUSH2 0x6CB DUP4 DUP4 PUSH2 0x2552 JUMP JUMPDEST PUSH2 0x85A PUSH2 0x1CED DUP4 PUSH2 0x292A JUMP JUMPDEST DUP3 PUSH2 0x85A JUMP JUMPDEST PUSH1 0x0 PUSH2 0x1D0A PUSH2 0x1D00 PUSH2 0x106F JUMP JUMPDEST PUSH1 0x2 EQ PUSH1 0xD2 PUSH2 0x1061 JUMP JUMPDEST PUSH1 0x0 DUP1 PUSH1 0x0 PUSH2 0x1D1A DUP8 DUP8 DUP8 PUSH2 0x2930 JUMP JUMPDEST SWAP3 POP SWAP3 POP SWAP3 POP PUSH2 0x551 DUP8 DUP5 DUP5 DUP5 PUSH2 0x20FE JUMP JUMPDEST PUSH1 0x0 PUSH2 0x6CB DUP4 DUP4 PUSH2 0x2501 JUMP JUMPDEST PUSH1 0x0 PUSH2 0x1D45 PUSH2 0x1D00 PUSH2 0x106F JUMP JUMPDEST PUSH1 0x0 DUP1 PUSH1 0x0 PUSH2 0x1D55 DUP8 DUP8 DUP8 PUSH2 0x2930 JUMP JUMPDEST SWAP3 POP SWAP3 POP SWAP3 POP PUSH2 0x551 DUP8 DUP5 DUP5 DUP5 PUSH2 0x20B5 JUMP JUMPDEST PUSH1 0x0 PUSH2 0x6CB DUP4 DUP4 PUSH2 0x283C JUMP JUMPDEST PUSH1 0x0 PUSH2 0x604 PUSH2 0x1D92 PUSH2 0x1D83 PUSH2 0x85E JUMP JUMPDEST PUSH8 0xDE0B6B3A7640000 SWAP1 PUSH2 0x1047 JUMP JUMPDEST DUP4 SWAP1 PUSH2 0x283C JUMP JUMPDEST PUSH1 0x0 PUSH2 0x1DA3 PUSH2 0xAE1 JUMP JUMPDEST PUSH1 0x1 PUSH1 0x1 PUSH1 0xA0 SHL SUB AND PUSH4 0xAAABADC5 PUSH1 0x40 MLOAD DUP2 PUSH4 0xFFFFFFFF AND PUSH1 0xE0 SHL DUP2 MSTORE PUSH1 0x4 ADD PUSH1 0x20 PUSH1 0x40 MLOAD DUP1 DUP4 SUB DUP2 DUP7 DUP1 EXTCODESIZE ISZERO DUP1 ISZERO PUSH2 0x1DDB JUMPI PUSH1 0x0 DUP1 REVERT JUMPDEST POP GAS STATICCALL ISZERO DUP1 ISZERO PUSH2 0x1DEF JUMPI RETURNDATASIZE PUSH1 0x0 DUP1 RETURNDATACOPY RETURNDATASIZE PUSH1 0x0 REVERT JUMPDEST POP POP POP POP PUSH1 0x40 MLOAD RETURNDATASIZE PUSH1 0x1F NOT PUSH1 0x1F DUP3 ADD AND DUP3 ADD DUP1 PUSH1 0x40 MSTORE POP DUP2 ADD SWAP1 PUSH2 0x657 SWAP2 SWAP1 PUSH2 0x3E7B JUMP JUMPDEST PUSH1 0x0 PUSH2 0x1E1D PUSH2 0x1601 JUMP JUMPDEST DUP3 PUSH1 0x40 MLOAD PUSH1 0x20 ADD PUSH2 0xA7A SWAP3 SWAP2 SWAP1 PUSH2 0x41CE JUMP JUMPDEST PUSH1 0x0 PUSH1 0x60 PUSH2 0x1E3B PUSH2 0x169E JUMP JUMPDEST PUSH1 0x0 PUSH2 0x1E46 DUP5 PUSH2 0x29F1 JUMP JUMPDEST SWAP1 POP PUSH2 0x1E61 PUSH1 0x0 DUP3 PUSH1 0x2 DUP2 GT ISZERO PUSH2 0x1E59 JUMPI INVALID JUMPDEST EQ PUSH1 0xCE PUSH2 0x1061 JUMP JUMPDEST PUSH1 0x0 PUSH2 0x1E6C DUP6 PUSH2 0x2A07 JUMP JUMPDEST SWAP1 POP PUSH2 0x1E7B DUP2 MLOAD PUSH2 0x880 PUSH2 0x106F JUMP JUMPDEST PUSH2 0x1E85 DUP2 DUP8 PUSH2 0x1A6F JUMP JUMPDEST PUSH1 0x0 PUSH2 0x1E8F PUSH2 0x150B JUMP JUMPDEST POP SWAP1 POP PUSH1 0x0 PUSH2 0x1EA0 DUP3 DUP5 PUSH1 0x1 PUSH2 0x257E JUMP JUMPDEST SWAP1 POP DUP1 PUSH2 0x1EAD DUP2 DUP5 PUSH2 0x2A1D JUMP JUMPDEST SWAP12 SWAP3 SWAP11 POP SWAP2 SWAP9 POP POP POP POP POP POP POP POP POP JUMP JUMPDEST PUSH3 0xF4240 SWAP1 JUMP JUMPDEST PUSH2 0x85A DUP3 DUP3 PUSH2 0x2A28 JUMP JUMPDEST PUSH1 0x1 PUSH1 0x1 PUSH1 0xA0 SHL SUB SWAP2 DUP3 AND PUSH1 0x0 SWAP1 DUP2 MSTORE PUSH1 0x1 PUSH1 0x20 SWAP1 DUP2 MSTORE PUSH1 0x40 DUP1 DUP4 KECCAK256 SWAP4 SWAP1 SWAP5 AND DUP3 MSTORE SWAP2 SWAP1 SWAP2 MSTORE KECCAK256 SLOAD SWAP1 JUMP JUMPDEST PUSH2 0x1F06 DUP2 DUP3 TIMESTAMP TIMESTAMP PUSH2 0x228F JUMP JUMPDEST PUSH32 0xA0D01593E47E69D07E0CCD87BECE09411E07DD1ED40CA8F2E7AF2976542A0233 DUP2 PUSH1 0x40 MLOAD PUSH2 0x13BB SWAP2 SWAP1 PUSH2 0x4258 JUMP JUMPDEST PUSH1 0x2 DUP2 MLOAD LT ISZERO PUSH2 0x1F44 JUMPI PUSH2 0x61B JUMP JUMPDEST PUSH1 0x0 DUP2 PUSH1 0x0 DUP2 MLOAD DUP2 LT PUSH2 0x1F53 JUMPI INVALID JUMPDEST PUSH1 0x20 MUL PUSH1 0x20 ADD ADD MLOAD SWAP1 POP PUSH1 0x0 PUSH1 0x1 SWAP1 POP JUMPDEST DUP3 MLOAD DUP2 LT ISZERO PUSH2 0x10AB JUMPI PUSH1 0x0 DUP4 DUP3 DUP2 MLOAD DUP2 LT PUSH2 0x1F7B JUMPI INVALID JUMPDEST PUSH1 0x20 MUL PUSH1 0x20 ADD ADD MLOAD SWAP1 POP PUSH2 0x1FA4 DUP2 PUSH1 0x1 PUSH1 0x1 PUSH1 0xA0 SHL SUB AND DUP5 PUSH1 0x1 PUSH1 0x1 PUSH1 0xA0 SHL SUB AND LT PUSH1 0x65 PUSH2 0x1061 JUMP JUMPDEST SWAP2 POP PUSH1 0x1 ADD PUSH2 0x1F64 JUMP JUMPDEST PUSH3 0x461BCD PUSH1 0xE5 SHL PUSH1 0x0 SWAP1 DUP2 MSTORE PUSH1 0x20 PUSH1 0x4 MSTORE PUSH1 0x7 PUSH1 0x24 MSTORE PUSH7 0x42414C23000030 PUSH1 0xA DUP1 DUP5 DIV DUP2 DUP2 MOD PUSH1 0x30 SWAP1 DUP2 ADD PUSH1 0x8 SHL SWAP6 DUP4 SWAP1 MOD SWAP6 SWAP1 SWAP6 ADD SWAP1 DUP3 SWAP1 DIV SWAP2 DUP3 MOD SWAP1 SWAP5 ADD PUSH1 0x10 SHL SWAP4 SWAP1 SWAP4 ADD ADD PUSH1 0xC8 SHL PUSH1 0x44 MSTORE PUSH1 0x64 SWAP1 REVERT JUMPDEST PUSH32 0x0 SWAP1 JUMP JUMPDEST PUSH32 0x0 SWAP1 JUMP JUMPDEST PUSH32 0x0 SWAP1 JUMP JUMPDEST PUSH32 0x0 SWAP1 JUMP JUMPDEST PUSH32 0x0 SWAP1 JUMP JUMPDEST PUSH1 0x0 PUSH2 0x20BF PUSH2 0x169E JUMP JUMPDEST PUSH1 0x0 PUSH2 0x20C9 PUSH2 0x150B JUMP JUMPDEST POP SWAP1 POP PUSH1 0x0 PUSH2 0x20DA DUP3 DUP8 PUSH1 0x1 PUSH2 0x257E JUMP JUMPDEST SWAP1 POP PUSH1 0x0 PUSH2 0x20F0 DUP4 DUP9 DUP9 DUP9 DUP13 PUSH1 0x60 ADD MLOAD DUP8 PUSH2 0x2AB6 JUMP JUMPDEST SWAP4 POP POP POP POP JUMPDEST SWAP5 SWAP4 POP POP POP POP JUMP JUMPDEST PUSH1 0x0 PUSH2 0x2108 PUSH2 0x169E JUMP JUMPDEST PUSH1 0x0 PUSH2 0x2112 PUSH2 0x150B JUMP JUMPDEST POP SWAP1 POP PUSH1 0x0 PUSH2 0x2123 DUP3 DUP8 PUSH1 0x1 PUSH2 0x257E JUMP JUMPDEST SWAP1 POP PUSH1 0x0 PUSH2 0x20F0 DUP4 DUP9 DUP9 DUP9 DUP13 PUSH1 0x60 ADD MLOAD DUP8 PUSH2 0x2B6B JUMP JUMPDEST PUSH1 0x0 PUSH20 0xBA1BA1BA1BA1BA1BA1BA1BA1BA1BA1BA1BA1BA1B PUSH2 0x2158 PUSH2 0xABD JUMP JUMPDEST PUSH1 0x1 PUSH1 0x1 PUSH1 0xA0 SHL SUB AND EQ ISZERO DUP1 ISZERO PUSH2 0x2173 JUMPI POP PUSH2 0x2173 DUP4 PUSH2 0x2C04 JUMP JUMPDEST ISZERO PUSH2 0x219B JUMPI PUSH2 0x2180 PUSH2 0xABD JUMP JUMPDEST PUSH1 0x1 PUSH1 0x1 PUSH1 0xA0 SHL SUB AND CALLER PUSH1 0x1 PUSH1 0x1 PUSH1 0xA0 SHL SUB AND EQ SWAP1 POP PUSH2 0x604 JUMP JUMPDEST PUSH2 0x21A3 PUSH2 0x1D99 JUMP JUMPDEST PUSH1 0x1 PUSH1 0x1 PUSH1 0xA0 SHL SUB AND PUSH4 0x9BE2A884 DUP5 DUP5 ADDRESS PUSH1 0x40 MLOAD DUP5 PUSH4 0xFFFFFFFF AND PUSH1 0xE0 SHL DUP2 MSTORE PUSH1 0x4 ADD PUSH2 0x21D2 SWAP4 SWAP3 SWAP2 SWAP1 PUSH2 0x4261 JUMP JUMPDEST PUSH1 0x20 PUSH1 0x40 MLOAD DUP1 DUP4 SUB DUP2 DUP7 DUP1 EXTCODESIZE ISZERO DUP1 ISZERO PUSH2 0x21EA JUMPI PUSH1 0x0 DUP1 REVERT JUMPDEST POP GAS STATICCALL ISZERO DUP1 ISZERO PUSH2 0x21FE JUMPI RETURNDATASIZE PUSH1 0x0 DUP1 RETURNDATACOPY RETURNDATASIZE PUSH1 0x0 REVERT JUMPDEST POP POP POP POP PUSH1 0x40 MLOAD RETURNDATASIZE PUSH1 0x1F NOT PUSH1 0x1F DUP3 ADD AND DUP3 ADD DUP1 PUSH1 0x40 MSTORE POP DUP2 ADD SWAP1 PUSH2 0xFD1 SWAP2 SWAP1 PUSH2 0x3D95 JUMP JUMPDEST PUSH1 0x0 PUSH2 0x2231 DUP5 DUP5 GT ISZERO DUP4 PUSH2 0x1061 JUMP JUMPDEST POP POP SWAP1 SUB SWAP1 JUMP JUMPDEST PUSH1 0x0 DUP1 PUSH1 0x0 DUP1 PUSH2 0x2254 PUSH1 0x0 PUSH1 0x9 SLOAD PUSH2 0x182F SWAP1 SWAP2 SWAP1 PUSH4 0xFFFFFFFF AND JUMP JUMPDEST PUSH1 0x9 SLOAD SWAP1 SWAP5 POP PUSH2 0x2265 SWAP1 PUSH1 0x40 PUSH2 0x182F JUMP JUMPDEST PUSH1 0x9 SLOAD SWAP1 SWAP4 POP PUSH2 0x2276 SWAP1 PUSH1 0x80 PUSH2 0x182F JUMP JUMPDEST PUSH1 0x9 SLOAD SWAP1 SWAP3 POP PUSH2 0x2287 SWAP1 PUSH1 0xC0 PUSH2 0x182F JUMP JUMPDEST SWAP1 POP SWAP1 SWAP2 SWAP3 SWAP4 JUMP JUMPDEST PUSH2 0x22A3 DUP2 PUSH1 0x1 PUSH1 0x1 PUSH1 0x40 SHL SUB AND PUSH1 0xC0 PUSH2 0x105D JUMP JUMPDEST PUSH2 0x22B7 DUP4 PUSH1 0x1 PUSH1 0x1 PUSH1 0x40 SHL SUB AND PUSH1 0x80 PUSH2 0x105D JUMP JUMPDEST PUSH2 0x22CB DUP6 PUSH1 0x1 PUSH1 0x1 PUSH1 0x40 SHL SUB AND PUSH1 0x40 PUSH2 0x105D JUMP JUMPDEST PUSH2 0x22DF DUP8 PUSH1 0x1 PUSH1 0x1 PUSH1 0x40 SHL SUB AND PUSH1 0x0 PUSH2 0x105D JUMP JUMPDEST OR OR OR PUSH1 0x9 SSTORE POP POP POP POP JUMP JUMPDEST CHAINID SWAP1 JUMP JUMPDEST PUSH1 0x60 PUSH1 0x0 PUSH2 0x22FB PUSH2 0x106F JUMP JUMPDEST PUSH1 0x1 PUSH1 0x1 PUSH1 0x40 SHL SUB DUP2 GT DUP1 ISZERO PUSH2 0x2310 JUMPI PUSH1 0x0 DUP1 REVERT JUMPDEST POP PUSH1 0x40 MLOAD SWAP1 DUP1 DUP3 MSTORE DUP1 PUSH1 0x20 MUL PUSH1 0x20 ADD DUP3 ADD PUSH1 0x40 MSTORE DUP1 ISZERO PUSH2 0x233A JUMPI DUP2 PUSH1 0x20 ADD PUSH1 0x20 DUP3 MUL DUP1 CALLDATASIZE DUP4 CALLDATACOPY ADD SWAP1 POP JUMPDEST POP SWAP1 POP DUP3 PUSH2 0x2349 JUMPI SWAP1 POP PUSH2 0x604 JUMP JUMPDEST PUSH1 0x0 DUP1 DUP6 PUSH1 0x0 DUP2 MLOAD DUP2 LT PUSH2 0x2359 JUMPI INVALID JUMPDEST PUSH1 0x20 MUL PUSH1 0x20 ADD ADD MLOAD SWAP1 POP PUSH1 0x0 PUSH1 0x1 SWAP1 POP JUMPDEST PUSH2 0x2372 PUSH2 0x106F JUMP JUMPDEST DUP2 LT ISZERO PUSH2 0x23A9 JUMPI PUSH1 0x0 DUP8 DUP3 DUP2 MLOAD DUP2 LT PUSH2 0x2387 JUMPI INVALID JUMPDEST PUSH1 0x20 MUL PUSH1 0x20 ADD ADD MLOAD SWAP1 POP DUP3 DUP2 GT ISZERO PUSH2 0x23A0 JUMPI DUP2 SWAP4 POP DUP1 SWAP3 POP JUMPDEST POP PUSH1 0x1 ADD PUSH2 0x236A JUMP JUMPDEST POP PUSH2 0x23BB PUSH1 0xB SLOAD DUP8 PUSH1 0xA SLOAD DUP6 DUP10 PUSH2 0x2C40 JUMP JUMPDEST DUP4 DUP4 DUP2 MLOAD DUP2 LT PUSH2 0x23C7 JUMPI INVALID JUMPDEST PUSH1 0x20 SWAP1 DUP2 MUL SWAP2 SWAP1 SWAP2 ADD ADD MSTORE POP SWAP1 SWAP5 SWAP4 POP POP POP POP JUMP JUMPDEST PUSH1 0x0 JUMPDEST PUSH2 0x23E7 PUSH2 0x106F JUMP JUMPDEST DUP2 LT ISZERO PUSH2 0x2441 JUMPI PUSH2 0x2422 DUP5 DUP3 DUP2 MLOAD DUP2 LT PUSH2 0x23FD JUMPI INVALID JUMPDEST PUSH1 0x20 MUL PUSH1 0x20 ADD ADD MLOAD DUP5 DUP4 DUP2 MLOAD DUP2 LT PUSH2 0x2411 JUMPI INVALID JUMPDEST PUSH1 0x20 MUL PUSH1 0x20 ADD ADD MLOAD DUP5 PUSH4 0xFFFFFFFF AND JUMP JUMPDEST DUP5 DUP3 DUP2 MLOAD DUP2 LT PUSH2 0x242E JUMPI INVALID JUMPDEST PUSH1 0x20 SWAP1 DUP2 MUL SWAP2 SWAP1 SWAP2 ADD ADD MSTORE PUSH1 0x1 ADD PUSH2 0x23DF JUMP JUMPDEST POP POP POP POP JUMP JUMPDEST PUSH1 0x0 PUSH1 0x60 PUSH1 0x0 PUSH2 0x2456 DUP5 PUSH2 0x29F1 JUMP JUMPDEST SWAP1 POP PUSH1 0x0 DUP2 PUSH1 0x2 DUP2 GT ISZERO PUSH2 0x2466 JUMPI INVALID JUMPDEST EQ ISZERO PUSH2 0x2480 JUMPI PUSH2 0x2476 DUP7 DUP6 PUSH2 0x2CA2 JUMP JUMPDEST SWAP3 POP SWAP3 POP POP PUSH2 0x24CA JUMP JUMPDEST PUSH1 0x1 DUP2 PUSH1 0x2 DUP2 GT ISZERO PUSH2 0x248E JUMPI INVALID JUMPDEST EQ ISZERO PUSH2 0x249E JUMPI PUSH2 0x2476 DUP7 DUP6 PUSH2 0x2D6C JUMP JUMPDEST PUSH1 0x2 DUP2 PUSH1 0x2 DUP2 GT ISZERO PUSH2 0x24AC JUMPI INVALID JUMPDEST EQ ISZERO PUSH2 0x24BD JUMPI PUSH2 0x2476 DUP7 DUP7 DUP7 PUSH2 0x2D9E JUMP JUMPDEST PUSH2 0x24C8 PUSH2 0x150 PUSH2 0x1FAE JUMP JUMPDEST POP JUMPDEST SWAP4 POP SWAP4 SWAP2 POP POP JUMP JUMPDEST PUSH2 0x24DF DUP3 DUP3 PUSH2 0x1047 PUSH2 0x23DC JUMP JUMPDEST PUSH1 0x0 PUSH2 0x24E9 PUSH2 0x150B JUMP JUMPDEST POP SWAP1 POP PUSH2 0x10AB PUSH2 0x24FB DUP3 DUP6 PUSH1 0x1 PUSH2 0x257E JUMP JUMPDEST DUP3 PUSH2 0x2A1D JUMP JUMPDEST PUSH1 0x0 PUSH2 0x2510 DUP3 ISZERO ISZERO PUSH1 0x4 PUSH2 0x1061 JUMP JUMPDEST DUP3 PUSH2 0x251D JUMPI POP PUSH1 0x0 PUSH2 0x604 JUMP JUMPDEST PUSH8 0xDE0B6B3A7640000 DUP4 DUP2 MUL SWAP1 PUSH2 0x2540 SWAP1 DUP6 DUP4 DUP2 PUSH2 0x2537 JUMPI INVALID JUMPDEST DIV EQ PUSH1 0x5 PUSH2 0x1061 JUMP JUMPDEST DUP3 DUP2 DUP2 PUSH2 0x2549 JUMPI INVALID JUMPDEST DIV SWAP2 POP POP PUSH2 0x604 JUMP JUMPDEST PUSH1 0x0 DUP3 DUP3 MUL PUSH2 0x256C DUP5 ISZERO DUP1 PUSH2 0x102B JUMPI POP DUP4 DUP6 DUP4 DUP2 PUSH2 0x1028 JUMPI INVALID JUMPDEST PUSH8 0xDE0B6B3A7640000 SWAP1 DIV SWAP4 SWAP3 POP POP POP JUMP JUMPDEST DUP2 MLOAD PUSH1 0x0 SWAP1 DUP2 SWAP1 DUP2 JUMPDEST DUP2 DUP2 LT ISZERO PUSH2 0x25BF JUMPI PUSH2 0x25B5 DUP7 DUP3 DUP2 MLOAD DUP2 LT PUSH2 0x259E JUMPI INVALID JUMPDEST PUSH1 0x20 MUL PUSH1 0x20 ADD ADD MLOAD DUP5 PUSH2 0x171E SWAP1 SWAP2 SWAP1 PUSH4 0xFFFFFFFF AND JUMP JUMPDEST SWAP3 POP PUSH1 0x1 ADD PUSH2 0x2587 JUMP JUMPDEST POP DUP2 PUSH2 0x25D0 JUMPI PUSH1 0x0 SWAP3 POP POP POP PUSH2 0x6CB JUMP JUMPDEST PUSH1 0x0 DUP3 DUP8 DUP4 MUL DUP3 JUMPDEST PUSH1 0xFF DUP2 LT ISZERO PUSH2 0x2702 JUMPI PUSH1 0x0 DUP6 DUP11 PUSH1 0x0 DUP2 MLOAD DUP2 LT PUSH2 0x25F1 JUMPI INVALID JUMPDEST PUSH1 0x20 MUL PUSH1 0x20 ADD ADD MLOAD MUL SWAP1 POP PUSH1 0x0 PUSH1 0x1 SWAP1 POP JUMPDEST DUP7 DUP2 LT ISZERO PUSH2 0x2645 JUMPI PUSH2 0x263B PUSH2 0x2634 PUSH2 0x262E DUP5 DUP15 DUP6 DUP2 MLOAD DUP2 LT PUSH2 0x2621 JUMPI INVALID JUMPDEST PUSH1 0x20 MUL PUSH1 0x20 ADD ADD MLOAD PUSH2 0x100E JUMP JUMPDEST DUP10 PUSH2 0x100E JUMP JUMPDEST DUP7 DUP13 PUSH2 0x2E19 JUMP JUMPDEST SWAP2 POP PUSH1 0x1 ADD PUSH2 0x2603 JUMP JUMPDEST POP DUP4 SWAP5 POP PUSH2 0x26B8 PUSH2 0x2687 PUSH2 0x266E PUSH2 0x2665 PUSH2 0x265F DUP8 DUP13 PUSH2 0x100E JUMP JUMPDEST DUP6 PUSH2 0x100E JUMP JUMPDEST PUSH2 0x3E8 DUP14 PUSH2 0x2E19 JUMP JUMPDEST PUSH2 0x2681 PUSH2 0x267B DUP11 DUP10 PUSH2 0x100E JUMP JUMPDEST DUP9 PUSH2 0x100E JUMP JUMPDEST SWAP1 PUSH2 0x171E JUMP JUMPDEST PUSH2 0x26B2 PUSH2 0x26A5 PUSH2 0x269B PUSH2 0x3E8 DUP9 SUB DUP7 PUSH2 0x100E JUMP JUMPDEST PUSH2 0x3E8 DUP15 ISZERO PUSH2 0x2E19 JUMP JUMPDEST PUSH2 0x2681 DUP11 PUSH1 0x1 ADD DUP10 PUSH2 0x100E JUMP JUMPDEST DUP12 PUSH2 0x2E19 JUMP JUMPDEST SWAP4 POP DUP5 DUP5 GT ISZERO PUSH2 0x26E0 JUMPI PUSH1 0x1 DUP6 DUP6 SUB GT PUSH2 0x26DB JUMPI DUP4 SWAP8 POP POP POP POP POP POP POP POP PUSH2 0x6CB JUMP JUMPDEST PUSH2 0x26F9 JUMP JUMPDEST PUSH1 0x1 DUP5 DUP7 SUB GT PUSH2 0x26F9 JUMPI DUP4 SWAP8 POP POP POP POP POP POP POP POP PUSH2 0x6CB JUMP JUMPDEST POP PUSH1 0x1 ADD PUSH2 0x25D8 JUMP JUMPDEST POP PUSH2 0x270E PUSH2 0x141 PUSH2 0x1FAE JUMP JUMPDEST POP POP POP POP POP SWAP4 SWAP3 POP POP POP JUMP JUMPDEST PUSH2 0x2731 PUSH1 0x1 PUSH1 0x1 PUSH1 0xA0 SHL SUB DUP4 AND ISZERO ISZERO PUSH2 0x19B PUSH2 0x1061 JUMP JUMPDEST PUSH2 0x273D DUP3 PUSH1 0x0 DUP4 PUSH2 0x10AB JUMP JUMPDEST PUSH1 0x1 PUSH1 0x1 PUSH1 0xA0 SHL SUB DUP3 AND PUSH1 0x0 SWAP1 DUP2 MSTORE PUSH1 0x20 DUP2 SWAP1 MSTORE PUSH1 0x40 SWAP1 KECCAK256 SLOAD PUSH2 0x2763 SWAP1 DUP3 PUSH2 0x1A1 PUSH2 0x2222 JUMP JUMPDEST PUSH1 0x1 PUSH1 0x1 PUSH1 0xA0 SHL SUB DUP4 AND PUSH1 0x0 SWAP1 DUP2 MSTORE PUSH1 0x20 DUP2 SWAP1 MSTORE PUSH1 0x40 SWAP1 KECCAK256 SSTORE PUSH1 0x2 SLOAD PUSH2 0x2789 SWAP1 DUP3 PUSH2 0x2E39 JUMP JUMPDEST PUSH1 0x2 SSTORE PUSH1 0x40 MLOAD PUSH1 0x0 SWAP1 PUSH1 0x1 PUSH1 0x1 PUSH1 0xA0 SHL SUB DUP5 AND SWAP1 PUSH32 0xDDF252AD1BE2C89B69C2B068FC378DAA952BA7F163C4A11628F55A4DF523B3EF SWAP1 PUSH2 0x27CA SWAP1 DUP6 SWAP1 PUSH2 0x4258 JUMP JUMPDEST PUSH1 0x40 MLOAD DUP1 SWAP2 SUB SWAP1 LOG3 POP POP JUMP JUMPDEST PUSH1 0x0 PUSH1 0x60 PUSH1 0x0 PUSH2 0x27E5 DUP5 PUSH2 0x29F1 JUMP JUMPDEST SWAP1 POP PUSH1 0x1 DUP2 PUSH1 0x2 DUP2 GT ISZERO PUSH2 0x27F5 JUMPI INVALID JUMPDEST EQ ISZERO PUSH2 0x2806 JUMPI PUSH2 0x2476 DUP7 DUP7 DUP7 PUSH2 0x2E47 JUMP JUMPDEST PUSH1 0x2 DUP2 PUSH1 0x2 DUP2 GT ISZERO PUSH2 0x2814 JUMPI INVALID JUMPDEST EQ ISZERO PUSH2 0x2824 JUMPI PUSH2 0x2476 DUP7 DUP6 PUSH2 0x2EB1 JUMP JUMPDEST PUSH2 0x24C8 PUSH2 0x136 PUSH2 0x1FAE JUMP JUMPDEST PUSH2 0x24DF DUP3 DUP3 PUSH2 0x171E PUSH2 0x23DC JUMP JUMPDEST PUSH1 0x0 PUSH2 0x284B DUP3 ISZERO ISZERO PUSH1 0x4 PUSH2 0x1061 JUMP JUMPDEST DUP3 PUSH2 0x2858 JUMPI POP PUSH1 0x0 PUSH2 0x604 JUMP JUMPDEST PUSH8 0xDE0B6B3A7640000 DUP4 DUP2 MUL SWAP1 PUSH2 0x2872 SWAP1 DUP6 DUP4 DUP2 PUSH2 0x2537 JUMPI INVALID JUMPDEST DUP3 PUSH1 0x1 DUP3 SUB DUP2 PUSH2 0x287E JUMPI INVALID JUMPDEST DIV PUSH1 0x1 ADD SWAP2 POP POP PUSH2 0x604 JUMP JUMPDEST PUSH32 0x0 PUSH1 0x1 PUSH1 0x1 PUSH1 0xA0 SHL SUB SWAP1 DUP2 AND SWAP2 AND EQ SWAP1 JUMP JUMPDEST PUSH32 0x0 PUSH1 0x1 PUSH1 0x1 PUSH1 0xA0 SHL SUB SWAP1 DUP2 AND SWAP2 AND EQ SWAP1 JUMP JUMPDEST PUSH1 0x0 DUP3 DUP3 MUL PUSH2 0x2908 DUP5 ISZERO DUP1 PUSH2 0x102B JUMPI POP DUP4 DUP6 DUP4 DUP2 PUSH2 0x1028 JUMPI INVALID JUMPDEST DUP1 PUSH2 0x2917 JUMPI PUSH1 0x0 SWAP2 POP POP PUSH2 0x604 JUMP JUMPDEST PUSH8 0xDE0B6B3A7640000 PUSH1 0x0 NOT DUP3 ADD PUSH2 0x287E JUMP JUMPDEST POP PUSH1 0x0 SWAP1 JUMP JUMPDEST PUSH1 0x40 DUP1 MLOAD PUSH1 0x2 DUP1 DUP3 MSTORE PUSH1 0x60 DUP3 DUP2 ADD SWAP1 SWAP4 MSTORE PUSH1 0x0 SWAP2 DUP3 SWAP2 DUP2 PUSH1 0x20 ADD PUSH1 0x20 DUP3 MUL DUP1 CALLDATASIZE DUP4 CALLDATACOPY ADD SWAP1 POP POP SWAP3 POP PUSH2 0x2965 DUP7 PUSH1 0x20 ADD MLOAD PUSH2 0x288A JUMP JUMPDEST ISZERO PUSH2 0x29AB JUMPI PUSH1 0x0 SWAP2 POP PUSH1 0x1 SWAP1 POP DUP5 DUP4 PUSH1 0x0 DUP2 MLOAD DUP2 LT PUSH2 0x2980 JUMPI INVALID JUMPDEST PUSH1 0x20 MUL PUSH1 0x20 ADD ADD DUP2 DUP2 MSTORE POP POP DUP4 DUP4 PUSH1 0x1 DUP2 MLOAD DUP2 LT PUSH2 0x299A JUMPI INVALID JUMPDEST PUSH1 0x20 MUL PUSH1 0x20 ADD ADD DUP2 DUP2 MSTORE POP POP PUSH2 0x29E8 JUMP JUMPDEST PUSH1 0x0 SWAP1 POP PUSH1 0x1 SWAP2 POP DUP4 DUP4 PUSH1 0x0 DUP2 MLOAD DUP2 LT PUSH2 0x29C1 JUMPI INVALID JUMPDEST PUSH1 0x20 MUL PUSH1 0x20 ADD ADD DUP2 DUP2 MSTORE POP POP DUP5 DUP4 PUSH1 0x1 DUP2 MLOAD DUP2 LT PUSH2 0x29DB JUMPI INVALID JUMPDEST PUSH1 0x20 MUL PUSH1 0x20 ADD ADD DUP2 DUP2 MSTORE POP POP JUMPDEST SWAP4 POP SWAP4 POP SWAP4 SWAP1 POP JUMP JUMPDEST PUSH1 0x0 DUP2 DUP1 PUSH1 0x20 ADD SWAP1 MLOAD DUP2 ADD SWAP1 PUSH2 0x604 SWAP2 SWAP1 PUSH2 0x3EE4 JUMP JUMPDEST PUSH1 0x60 DUP2 DUP1 PUSH1 0x20 ADD SWAP1 MLOAD DUP2 ADD SWAP1 PUSH2 0x6CB SWAP2 SWAP1 PUSH2 0x3FA9 JUMP JUMPDEST PUSH1 0xA SWAP2 SWAP1 SWAP2 SSTORE PUSH1 0xB SSTORE JUMP JUMPDEST PUSH2 0x2A34 PUSH1 0x0 DUP4 DUP4 PUSH2 0x10AB JUMP JUMPDEST PUSH1 0x2 SLOAD PUSH2 0x2A41 SWAP1 DUP3 PUSH2 0x171E JUMP JUMPDEST PUSH1 0x2 SSTORE PUSH1 0x1 PUSH1 0x1 PUSH1 0xA0 SHL SUB DUP3 AND PUSH1 0x0 SWAP1 DUP2 MSTORE PUSH1 0x20 DUP2 SWAP1 MSTORE PUSH1 0x40 SWAP1 KECCAK256 SLOAD PUSH2 0x2A67 SWAP1 DUP3 PUSH2 0x171E JUMP JUMPDEST PUSH1 0x1 PUSH1 0x1 PUSH1 0xA0 SHL SUB DUP4 AND PUSH1 0x0 DUP2 DUP2 MSTORE PUSH1 0x20 DUP2 SWAP1 MSTORE PUSH1 0x40 DUP1 DUP3 KECCAK256 SWAP4 SWAP1 SWAP4 SSTORE SWAP2 MLOAD SWAP1 SWAP2 SWAP1 PUSH32 0xDDF252AD1BE2C89B69C2B068FC378DAA952BA7F163C4A11628F55A4DF523B3EF SWAP1 PUSH2 0x27CA SWAP1 DUP6 SWAP1 PUSH2 0x4258 JUMP JUMPDEST PUSH1 0x0 PUSH2 0x2ADE DUP4 DUP8 DUP7 DUP2 MLOAD DUP2 LT PUSH2 0x2AC8 JUMPI INVALID JUMPDEST PUSH1 0x20 MUL PUSH1 0x20 ADD ADD MLOAD PUSH2 0x1047 SWAP1 SWAP2 SWAP1 PUSH4 0xFFFFFFFF AND JUMP JUMPDEST DUP7 DUP6 DUP2 MLOAD DUP2 LT PUSH2 0x2AEA JUMPI INVALID JUMPDEST PUSH1 0x20 MUL PUSH1 0x20 ADD ADD DUP2 DUP2 MSTORE POP POP PUSH1 0x0 PUSH2 0x2B04 DUP9 DUP9 DUP6 DUP10 PUSH2 0x2F45 JUMP JUMPDEST SWAP1 POP DUP4 DUP8 DUP7 DUP2 MLOAD DUP2 LT PUSH2 0x2B13 JUMPI INVALID JUMPDEST PUSH1 0x20 MUL PUSH1 0x20 ADD ADD MLOAD ADD DUP8 DUP7 DUP2 MLOAD DUP2 LT PUSH2 0x2B28 JUMPI INVALID JUMPDEST PUSH1 0x20 MUL PUSH1 0x20 ADD ADD DUP2 DUP2 MSTORE POP POP PUSH2 0x2B5F PUSH1 0x1 PUSH2 0x2681 DUP10 DUP10 DUP2 MLOAD DUP2 LT PUSH2 0x2B48 JUMPI INVALID JUMPDEST PUSH1 0x20 MUL PUSH1 0x20 ADD ADD MLOAD DUP5 PUSH2 0x1047 SWAP1 SWAP2 SWAP1 PUSH4 0xFFFFFFFF AND JUMP JUMPDEST SWAP9 SWAP8 POP POP POP POP POP POP POP POP JUMP JUMPDEST PUSH1 0x0 PUSH2 0x2B93 DUP4 DUP8 DUP8 DUP2 MLOAD DUP2 LT PUSH2 0x2B7D JUMPI INVALID JUMPDEST PUSH1 0x20 MUL PUSH1 0x20 ADD ADD MLOAD PUSH2 0x171E SWAP1 SWAP2 SWAP1 PUSH4 0xFFFFFFFF AND JUMP JUMPDEST DUP7 DUP7 DUP2 MLOAD DUP2 LT PUSH2 0x2B9F JUMPI INVALID JUMPDEST PUSH1 0x20 MUL PUSH1 0x20 ADD ADD DUP2 DUP2 MSTORE POP POP PUSH1 0x0 PUSH2 0x2BB9 DUP9 DUP9 DUP6 DUP9 PUSH2 0x2F45 JUMP JUMPDEST SWAP1 POP DUP4 DUP8 DUP8 DUP2 MLOAD DUP2 LT PUSH2 0x2BC8 JUMPI INVALID JUMPDEST PUSH1 0x20 MUL PUSH1 0x20 ADD ADD MLOAD SUB DUP8 DUP8 DUP2 MLOAD DUP2 LT PUSH2 0x2BDD JUMPI INVALID JUMPDEST PUSH1 0x20 MUL PUSH1 0x20 ADD ADD DUP2 DUP2 MSTORE POP POP PUSH2 0x2B5F PUSH1 0x1 PUSH2 0x2BFE DUP4 DUP11 DUP10 DUP2 MLOAD DUP2 LT PUSH2 0x2AC8 JUMPI INVALID JUMPDEST SWAP1 PUSH2 0x1047 JUMP JUMPDEST PUSH1 0x0 PUSH2 0x2C16 PUSH4 0x2F1A0BC9 PUSH1 0xE0 SHL PUSH2 0xA45 JUMP JUMPDEST DUP3 EQ DUP1 PUSH2 0x2C31 JUMPI POP PUSH2 0x2C2E PUSH4 0x7587926B PUSH1 0xE1 SHL PUSH2 0xA45 JUMP JUMPDEST DUP3 EQ JUMPDEST DUP1 PUSH2 0x604 JUMPI POP PUSH2 0x604 DUP3 PUSH2 0x30F5 JUMP JUMPDEST PUSH1 0x0 DUP1 PUSH2 0x2C4F DUP8 DUP8 DUP8 DUP8 PUSH2 0x2F45 JUMP JUMPDEST SWAP1 POP DUP1 DUP7 DUP6 DUP2 MLOAD DUP2 LT PUSH2 0x2C5E JUMPI INVALID JUMPDEST PUSH1 0x20 MUL PUSH1 0x20 ADD ADD MLOAD GT PUSH2 0x2C75 JUMPI PUSH1 0x0 SWAP2 POP POP PUSH2 0x1245 JUMP JUMPDEST PUSH1 0x0 DUP2 DUP8 DUP7 DUP2 MLOAD DUP2 LT PUSH2 0x2C84 JUMPI INVALID JUMPDEST PUSH1 0x20 MUL PUSH1 0x20 ADD ADD MLOAD SUB SWAP1 POP PUSH2 0x2B5F DUP5 DUP3 PUSH2 0x2552 SWAP1 SWAP2 SWAP1 PUSH4 0xFFFFFFFF AND JUMP JUMPDEST PUSH1 0x0 PUSH1 0x60 PUSH2 0x2CAE PUSH2 0x169E JUMP JUMPDEST PUSH1 0x0 DUP1 PUSH2 0x2CBA DUP6 PUSH2 0x3127 JUMP JUMPDEST SWAP2 POP SWAP2 POP PUSH2 0x2CD2 PUSH2 0x2CC9 PUSH2 0x106F JUMP JUMPDEST DUP3 LT PUSH1 0x64 PUSH2 0x1061 JUMP JUMPDEST PUSH1 0x0 PUSH2 0x2CDC PUSH2 0x106F JUMP JUMPDEST PUSH1 0x1 PUSH1 0x1 PUSH1 0x40 SHL SUB DUP2 GT DUP1 ISZERO PUSH2 0x2CF1 JUMPI PUSH1 0x0 DUP1 REVERT JUMPDEST POP PUSH1 0x40 MLOAD SWAP1 DUP1 DUP3 MSTORE DUP1 PUSH1 0x20 MUL PUSH1 0x20 ADD DUP3 ADD PUSH1 0x40 MSTORE DUP1 ISZERO PUSH2 0x2D1B JUMPI DUP2 PUSH1 0x20 ADD PUSH1 0x20 DUP3 MUL DUP1 CALLDATASIZE DUP4 CALLDATACOPY ADD SWAP1 POP JUMPDEST POP SWAP1 POP PUSH1 0x0 PUSH2 0x2D28 PUSH2 0x150B JUMP JUMPDEST POP SWAP1 POP PUSH2 0x2D47 DUP2 DUP10 DUP6 DUP8 PUSH2 0x2D3A PUSH2 0x61E JUMP JUMPDEST PUSH2 0x2D42 PUSH2 0x85E JUMP JUMPDEST PUSH2 0x3149 JUMP JUMPDEST DUP3 DUP5 DUP2 MLOAD DUP2 LT PUSH2 0x2D53 JUMPI INVALID JUMPDEST PUSH1 0x20 SWAP1 DUP2 MUL SWAP2 SWAP1 SWAP2 ADD ADD MSTORE POP SWAP2 SWAP7 SWAP2 SWAP6 POP SWAP1 SWAP4 POP POP POP POP JUMP JUMPDEST PUSH1 0x0 PUSH1 0x60 PUSH1 0x0 PUSH2 0x2D7B DUP5 PUSH2 0x3265 JUMP JUMPDEST SWAP1 POP PUSH1 0x0 PUSH2 0x2D91 DUP7 DUP4 PUSH2 0x2D8C PUSH2 0x61E JUMP JUMPDEST PUSH2 0x327B JUMP JUMPDEST SWAP2 SWAP7 SWAP2 SWAP6 POP SWAP1 SWAP4 POP POP POP POP JUMP JUMPDEST PUSH1 0x0 PUSH1 0x60 PUSH2 0x2DAA PUSH2 0x169E JUMP JUMPDEST PUSH1 0x0 DUP1 PUSH2 0x2DB6 DUP6 PUSH2 0x332C JUMP JUMPDEST SWAP2 POP SWAP2 POP PUSH2 0x2DC7 DUP3 MLOAD PUSH2 0x880 PUSH2 0x106F JUMP JUMPDEST PUSH2 0x2DD1 DUP3 DUP8 PUSH2 0x1A6F JUMP JUMPDEST PUSH1 0x0 PUSH2 0x2DDB PUSH2 0x150B JUMP JUMPDEST POP SWAP1 POP PUSH1 0x0 PUSH2 0x2DFB DUP3 DUP11 DUP7 PUSH2 0x2DEE PUSH2 0x61E JUMP JUMPDEST PUSH2 0x2DF6 PUSH2 0x85E JUMP JUMPDEST PUSH2 0x3344 JUMP JUMPDEST SWAP1 POP PUSH2 0x2E0B DUP4 DUP3 GT ISZERO PUSH1 0xCF PUSH2 0x1061 JUMP JUMPDEST SWAP9 SWAP3 SWAP8 POP SWAP2 SWAP6 POP POP POP POP POP POP JUMP JUMPDEST PUSH1 0x0 DUP2 PUSH2 0x2E2F JUMPI PUSH2 0x2E2A DUP5 DUP5 PUSH2 0x35D8 JUMP JUMPDEST PUSH2 0x20F6 JUMP JUMPDEST PUSH2 0x20F6 DUP5 DUP5 PUSH2 0x157F JUMP JUMPDEST PUSH1 0x0 PUSH2 0x6CB DUP4 DUP4 PUSH1 0x1 PUSH2 0x2222 JUMP JUMPDEST PUSH1 0x0 PUSH1 0x60 PUSH1 0x0 DUP1 PUSH2 0x2E57 DUP6 PUSH2 0x332C JUMP JUMPDEST SWAP2 POP SWAP2 POP PUSH2 0x2E6D PUSH2 0x2E66 PUSH2 0x106F JUMP JUMPDEST DUP4 MLOAD PUSH2 0x183C JUMP JUMPDEST PUSH2 0x2E77 DUP3 DUP8 PUSH2 0x1A6F JUMP JUMPDEST PUSH1 0x0 PUSH2 0x2E81 PUSH2 0x150B JUMP JUMPDEST POP SWAP1 POP PUSH1 0x0 PUSH2 0x2EA1 DUP3 DUP11 DUP7 PUSH2 0x2E94 PUSH2 0x61E JUMP JUMPDEST PUSH2 0x2E9C PUSH2 0x85E JUMP JUMPDEST PUSH2 0x35F8 JUMP JUMPDEST SWAP1 POP PUSH2 0x2E0B DUP4 DUP3 LT ISZERO PUSH1 0xD0 PUSH2 0x1061 JUMP JUMPDEST PUSH1 0x0 PUSH1 0x60 PUSH1 0x0 DUP1 PUSH2 0x2EC1 DUP6 PUSH2 0x3127 JUMP JUMPDEST SWAP2 POP SWAP2 POP PUSH2 0x2ED0 PUSH2 0x2CC9 PUSH2 0x106F JUMP JUMPDEST PUSH1 0x0 PUSH2 0x2EDA PUSH2 0x106F JUMP JUMPDEST PUSH1 0x1 PUSH1 0x1 PUSH1 0x40 SHL SUB DUP2 GT DUP1 ISZERO PUSH2 0x2EEF JUMPI PUSH1 0x0 DUP1 REVERT JUMPDEST POP PUSH1 0x40 MLOAD SWAP1 DUP1 DUP3 MSTORE DUP1 PUSH1 0x20 MUL PUSH1 0x20 ADD DUP3 ADD PUSH1 0x40 MSTORE DUP1 ISZERO PUSH2 0x2F19 JUMPI DUP2 PUSH1 0x20 ADD PUSH1 0x20 DUP3 MUL DUP1 CALLDATASIZE DUP4 CALLDATACOPY ADD SWAP1 POP JUMPDEST POP SWAP1 POP PUSH1 0x0 PUSH2 0x2F26 PUSH2 0x150B JUMP JUMPDEST POP SWAP1 POP PUSH2 0x2D47 DUP2 DUP10 DUP6 DUP8 PUSH2 0x2F38 PUSH2 0x61E JUMP JUMPDEST PUSH2 0x2F40 PUSH2 0x85E JUMP JUMPDEST PUSH2 0x3874 JUMP JUMPDEST PUSH1 0x0 DUP1 DUP5 MLOAD DUP7 MUL SWAP1 POP PUSH1 0x0 DUP6 PUSH1 0x0 DUP2 MLOAD DUP2 LT PUSH2 0x2F5D JUMPI INVALID JUMPDEST PUSH1 0x20 MUL PUSH1 0x20 ADD ADD MLOAD SWAP1 POP PUSH1 0x0 DUP7 MLOAD DUP8 PUSH1 0x0 DUP2 MLOAD DUP2 LT PUSH2 0x2F78 JUMPI INVALID JUMPDEST PUSH1 0x20 MUL PUSH1 0x20 ADD ADD MLOAD MUL SWAP1 POP PUSH1 0x0 PUSH1 0x1 SWAP1 POP JUMPDEST DUP8 MLOAD DUP2 LT ISZERO PUSH2 0x2FD1 JUMPI PUSH2 0x2FB6 PUSH2 0x2FB0 PUSH2 0x2FA9 DUP5 DUP12 DUP6 DUP2 MLOAD DUP2 LT PUSH2 0x2621 JUMPI INVALID JUMPDEST DUP11 MLOAD PUSH2 0x100E JUMP JUMPDEST DUP9 PUSH2 0x35D8 JUMP JUMPDEST SWAP2 POP PUSH2 0x2FC7 DUP9 DUP3 DUP2 MLOAD DUP2 LT PUSH2 0x259E JUMPI INVALID JUMPDEST SWAP3 POP PUSH1 0x1 ADD PUSH2 0x2F8A JUMP JUMPDEST POP DUP7 DUP6 DUP2 MLOAD DUP2 LT PUSH2 0x2FDE JUMPI INVALID JUMPDEST PUSH1 0x20 MUL PUSH1 0x20 ADD ADD MLOAD DUP3 SUB SWAP2 POP PUSH1 0x0 PUSH2 0x2FF6 DUP8 DUP9 PUSH2 0x100E JUMP JUMPDEST SWAP1 POP PUSH1 0x0 PUSH2 0x3022 PUSH2 0x3016 PUSH2 0x300E DUP5 PUSH2 0x76A DUP10 DUP9 PUSH2 0x100E JUMP JUMPDEST PUSH2 0x3E8 PUSH2 0x100E JUMP JUMPDEST DUP11 DUP10 DUP2 MLOAD DUP2 LT PUSH2 0x2621 JUMPI INVALID JUMPDEST SWAP1 POP PUSH1 0x0 PUSH2 0x303D PUSH2 0x3036 PUSH2 0x300E DUP12 DUP10 PUSH2 0x35D8 JUMP JUMPDEST DUP7 SWAP1 PUSH2 0x171E JUMP JUMPDEST SWAP1 POP PUSH1 0x0 DUP1 PUSH2 0x3059 PUSH2 0x304F DUP7 DUP7 PUSH2 0x171E JUMP JUMPDEST PUSH2 0x76A DUP14 DUP7 PUSH2 0x171E JUMP JUMPDEST SWAP1 POP PUSH1 0x0 JUMPDEST PUSH1 0xFF DUP2 LT ISZERO PUSH2 0x30D9 JUMPI DUP2 SWAP3 POP PUSH2 0x308E PUSH2 0x307B DUP7 PUSH2 0x2681 DUP6 DUP7 PUSH2 0x100E JUMP JUMPDEST PUSH2 0x76A DUP15 PUSH2 0x2BFE DUP9 PUSH2 0x2681 DUP9 PUSH1 0x2 PUSH2 0x100E JUMP JUMPDEST SWAP2 POP DUP3 DUP3 GT ISZERO PUSH2 0x30B7 JUMPI PUSH1 0x1 DUP4 DUP4 SUB GT PUSH2 0x30B2 JUMPI POP SWAP8 POP PUSH2 0x20F6 SWAP7 POP POP POP POP POP POP POP JUMP JUMPDEST PUSH2 0x30D1 JUMP JUMPDEST PUSH1 0x1 DUP3 DUP5 SUB GT PUSH2 0x30D1 JUMPI POP SWAP8 POP PUSH2 0x20F6 SWAP7 POP POP POP POP POP POP POP JUMP JUMPDEST PUSH1 0x1 ADD PUSH2 0x305E JUMP JUMPDEST POP PUSH2 0x30E5 PUSH2 0x142 PUSH2 0x1FAE JUMP JUMPDEST POP POP POP POP POP POP POP POP SWAP5 SWAP4 POP POP POP POP JUMP JUMPDEST PUSH1 0x0 PUSH2 0x3107 PUSH4 0x1C74C917 PUSH1 0xE1 SHL PUSH2 0xA45 JUMP JUMPDEST DUP3 EQ DUP1 PUSH2 0x604 JUMPI POP PUSH2 0x311F PUSH4 0x50DD6ED9 PUSH1 0xE0 SHL PUSH2 0xA45 JUMP JUMPDEST SWAP1 SWAP2 EQ SWAP2 SWAP1 POP JUMP JUMPDEST PUSH1 0x0 DUP1 DUP3 DUP1 PUSH1 0x20 ADD SWAP1 MLOAD DUP2 ADD SWAP1 PUSH2 0x313E SWAP2 SWAP1 PUSH2 0x3F73 JUMP JUMPDEST SWAP1 SWAP6 SWAP1 SWAP5 POP SWAP3 POP POP POP JUMP JUMPDEST PUSH1 0x0 DUP1 PUSH2 0x3158 DUP9 DUP9 PUSH1 0x1 PUSH2 0x257E JUMP JUMPDEST SWAP1 POP PUSH1 0x0 PUSH2 0x317A DUP3 PUSH2 0x3174 DUP8 PUSH2 0x316E DUP2 DUP12 PUSH2 0x1047 JUMP JUMPDEST SWAP1 PUSH2 0x283C JUMP JUMPDEST SWAP1 PUSH2 0x28EE JUMP JUMPDEST SWAP1 POP PUSH1 0x0 PUSH2 0x318A DUP11 DUP11 DUP5 DUP12 PUSH2 0x2F45 JUMP JUMPDEST SWAP1 POP PUSH1 0x0 PUSH2 0x319E DUP3 DUP12 DUP12 DUP2 MLOAD DUP2 LT PUSH2 0x2AC8 JUMPI INVALID JUMPDEST SWAP1 POP PUSH1 0x0 DUP1 JUMPDEST DUP12 MLOAD DUP2 LT ISZERO PUSH2 0x31DD JUMPI PUSH2 0x31D3 DUP13 DUP3 DUP2 MLOAD DUP2 LT PUSH2 0x31BC JUMPI INVALID JUMPDEST PUSH1 0x20 MUL PUSH1 0x20 ADD ADD MLOAD DUP4 PUSH2 0x171E SWAP1 SWAP2 SWAP1 PUSH4 0xFFFFFFFF AND JUMP JUMPDEST SWAP2 POP PUSH1 0x1 ADD PUSH2 0x31A4 JUMP JUMPDEST POP PUSH1 0x0 PUSH2 0x3206 DUP3 DUP14 DUP14 DUP2 MLOAD DUP2 LT PUSH2 0x31F0 JUMPI INVALID JUMPDEST PUSH1 0x20 MUL PUSH1 0x20 ADD ADD MLOAD PUSH2 0x2501 SWAP1 SWAP2 SWAP1 PUSH4 0xFFFFFFFF AND JUMP JUMPDEST SWAP1 POP PUSH1 0x0 PUSH2 0x3213 DUP3 PUSH2 0x3951 JUMP JUMPDEST SWAP1 POP PUSH1 0x0 PUSH2 0x3221 DUP6 DUP4 PUSH2 0x28EE JUMP JUMPDEST SWAP1 POP PUSH1 0x0 PUSH2 0x322F DUP7 DUP4 PUSH2 0x1047 JUMP JUMPDEST SWAP1 POP PUSH2 0x3250 PUSH2 0x3249 DUP4 PUSH8 0xDE0B6B3A7640000 DUP15 SWAP1 SUB PUSH2 0x2552 JUMP JUMPDEST DUP3 SWAP1 PUSH2 0x171E JUMP JUMPDEST SWAP10 POP POP POP POP POP POP POP POP POP POP SWAP7 SWAP6 POP POP POP POP POP POP JUMP JUMPDEST PUSH1 0x0 DUP2 DUP1 PUSH1 0x20 ADD SWAP1 MLOAD DUP2 ADD SWAP1 PUSH2 0x6CB SWAP2 SWAP1 PUSH2 0x3F46 JUMP JUMPDEST PUSH1 0x60 PUSH1 0x0 PUSH2 0x3289 DUP5 DUP5 PUSH2 0x2501 JUMP JUMPDEST SWAP1 POP PUSH1 0x0 DUP6 MLOAD PUSH1 0x1 PUSH1 0x1 PUSH1 0x40 SHL SUB DUP2 GT DUP1 ISZERO PUSH2 0x32A4 JUMPI PUSH1 0x0 DUP1 REVERT JUMPDEST POP PUSH1 0x40 MLOAD SWAP1 DUP1 DUP3 MSTORE DUP1 PUSH1 0x20 MUL PUSH1 0x20 ADD DUP3 ADD PUSH1 0x40 MSTORE DUP1 ISZERO PUSH2 0x32CE JUMPI DUP2 PUSH1 0x20 ADD PUSH1 0x20 DUP3 MUL DUP1 CALLDATASIZE DUP4 CALLDATACOPY ADD SWAP1 POP JUMPDEST POP SWAP1 POP PUSH1 0x0 JUMPDEST DUP7 MLOAD DUP2 LT ISZERO PUSH2 0x3322 JUMPI PUSH2 0x3303 DUP4 DUP9 DUP4 DUP2 MLOAD DUP2 LT PUSH2 0x32ED JUMPI INVALID JUMPDEST PUSH1 0x20 MUL PUSH1 0x20 ADD ADD MLOAD PUSH2 0x2552 SWAP1 SWAP2 SWAP1 PUSH4 0xFFFFFFFF AND JUMP JUMPDEST DUP3 DUP3 DUP2 MLOAD DUP2 LT PUSH2 0x330F JUMPI INVALID JUMPDEST PUSH1 0x20 SWAP1 DUP2 MUL SWAP2 SWAP1 SWAP2 ADD ADD MSTORE PUSH1 0x1 ADD PUSH2 0x32D4 JUMP JUMPDEST POP SWAP6 SWAP5 POP POP POP POP POP JUMP JUMPDEST PUSH1 0x60 PUSH1 0x0 DUP3 DUP1 PUSH1 0x20 ADD SWAP1 MLOAD DUP2 ADD SWAP1 PUSH2 0x313E SWAP2 SWAP1 PUSH2 0x3F00 JUMP JUMPDEST PUSH1 0x0 DUP1 DUP1 JUMPDEST DUP7 MLOAD DUP2 LT ISZERO PUSH2 0x336B JUMPI PUSH2 0x3361 DUP8 DUP3 DUP2 MLOAD DUP2 LT PUSH2 0x31BC JUMPI INVALID JUMPDEST SWAP2 POP PUSH1 0x1 ADD PUSH2 0x3349 JUMP JUMPDEST POP PUSH1 0x0 DUP6 MLOAD PUSH1 0x1 PUSH1 0x1 PUSH1 0x40 SHL SUB DUP2 GT DUP1 ISZERO PUSH2 0x3385 JUMPI PUSH1 0x0 DUP1 REVERT JUMPDEST POP PUSH1 0x40 MLOAD SWAP1 DUP1 DUP3 MSTORE DUP1 PUSH1 0x20 MUL PUSH1 0x20 ADD DUP3 ADD PUSH1 0x40 MSTORE DUP1 ISZERO PUSH2 0x33AF JUMPI DUP2 PUSH1 0x20 ADD PUSH1 0x20 DUP3 MUL DUP1 CALLDATASIZE DUP4 CALLDATACOPY ADD SWAP1 POP JUMPDEST POP SWAP1 POP PUSH1 0x0 DUP1 JUMPDEST DUP9 MLOAD DUP2 LT ISZERO PUSH2 0x3476 JUMPI PUSH1 0x0 PUSH2 0x33E7 DUP6 DUP12 DUP5 DUP2 MLOAD DUP2 LT PUSH2 0x33D1 JUMPI INVALID JUMPDEST PUSH1 0x20 MUL PUSH1 0x20 ADD ADD MLOAD PUSH2 0x283C SWAP1 SWAP2 SWAP1 PUSH4 0xFFFFFFFF AND JUMP JUMPDEST SWAP1 POP PUSH2 0x3423 DUP11 DUP4 DUP2 MLOAD DUP2 LT PUSH2 0x33F8 JUMPI INVALID JUMPDEST PUSH1 0x20 MUL PUSH1 0x20 ADD ADD MLOAD PUSH2 0x316E DUP12 DUP6 DUP2 MLOAD DUP2 LT PUSH2 0x340F JUMPI INVALID JUMPDEST PUSH1 0x20 MUL PUSH1 0x20 ADD ADD MLOAD DUP14 DUP7 DUP2 MLOAD DUP2 LT PUSH2 0x2AC8 JUMPI INVALID JUMPDEST DUP5 DUP4 DUP2 MLOAD DUP2 LT PUSH2 0x342F JUMPI INVALID JUMPDEST PUSH1 0x20 MUL PUSH1 0x20 ADD ADD DUP2 DUP2 MSTORE POP POP PUSH2 0x346B PUSH2 0x3464 DUP3 DUP7 DUP6 DUP2 MLOAD DUP2 LT PUSH2 0x344E JUMPI INVALID JUMPDEST PUSH1 0x20 MUL PUSH1 0x20 ADD ADD MLOAD PUSH2 0x28EE SWAP1 SWAP2 SWAP1 PUSH4 0xFFFFFFFF AND JUMP JUMPDEST DUP5 SWAP1 PUSH2 0x171E JUMP JUMPDEST SWAP3 POP POP PUSH1 0x1 ADD PUSH2 0x33B6 JUMP JUMPDEST POP PUSH1 0x0 DUP9 MLOAD PUSH1 0x1 PUSH1 0x1 PUSH1 0x40 SHL SUB DUP2 GT DUP1 ISZERO PUSH2 0x3490 JUMPI PUSH1 0x0 DUP1 REVERT JUMPDEST POP PUSH1 0x40 MLOAD SWAP1 DUP1 DUP3 MSTORE DUP1 PUSH1 0x20 MUL PUSH1 0x20 ADD DUP3 ADD PUSH1 0x40 MSTORE DUP1 ISZERO PUSH2 0x34BA JUMPI DUP2 PUSH1 0x20 ADD PUSH1 0x20 DUP3 MUL DUP1 CALLDATASIZE DUP4 CALLDATACOPY ADD SWAP1 POP JUMPDEST POP SWAP1 POP PUSH1 0x0 JUMPDEST DUP10 MLOAD DUP2 LT ISZERO PUSH2 0x3585 JUMPI PUSH1 0x0 DUP5 DUP3 DUP2 MLOAD DUP2 LT PUSH2 0x34D7 JUMPI INVALID JUMPDEST PUSH1 0x20 MUL PUSH1 0x20 ADD ADD MLOAD DUP5 GT ISZERO PUSH2 0x353E JUMPI PUSH1 0x0 PUSH2 0x3500 PUSH2 0x34F4 DUP7 PUSH2 0x3951 JUMP JUMPDEST DUP14 DUP6 DUP2 MLOAD DUP2 LT PUSH2 0x32ED JUMPI INVALID JUMPDEST SWAP1 POP PUSH1 0x0 PUSH2 0x3514 DUP3 DUP14 DUP7 DUP2 MLOAD DUP2 LT PUSH2 0x2AC8 JUMPI INVALID JUMPDEST SWAP1 POP PUSH2 0x3535 PUSH2 0x352E DUP3 PUSH8 0xDE0B6B3A7640000 DUP14 SWAP1 SUB PUSH2 0x283C JUMP JUMPDEST DUP4 SWAP1 PUSH2 0x171E JUMP JUMPDEST SWAP3 POP POP POP PUSH2 0x3555 JUMP JUMPDEST DUP10 DUP3 DUP2 MLOAD DUP2 LT PUSH2 0x354A JUMPI INVALID JUMPDEST PUSH1 0x20 MUL PUSH1 0x20 ADD ADD MLOAD SWAP1 POP JUMPDEST PUSH2 0x3565 DUP2 DUP13 DUP5 DUP2 MLOAD DUP2 LT PUSH2 0x2AC8 JUMPI INVALID JUMPDEST DUP4 DUP4 DUP2 MLOAD DUP2 LT PUSH2 0x3571 JUMPI INVALID JUMPDEST PUSH1 0x20 SWAP1 DUP2 MUL SWAP2 SWAP1 SWAP2 ADD ADD MSTORE POP PUSH1 0x1 ADD PUSH2 0x34C0 JUMP JUMPDEST POP PUSH1 0x0 PUSH2 0x3594 DUP12 DUP12 PUSH1 0x1 PUSH2 0x257E JUMP JUMPDEST SWAP1 POP PUSH1 0x0 PUSH2 0x35A4 DUP13 DUP5 PUSH1 0x0 PUSH2 0x257E JUMP JUMPDEST SWAP1 POP PUSH1 0x0 PUSH2 0x35B2 DUP3 DUP5 PUSH2 0x2501 JUMP JUMPDEST SWAP1 POP PUSH2 0x35C7 PUSH2 0x35C0 DUP3 PUSH2 0x3951 JUMP JUMPDEST DUP12 SWAP1 PUSH2 0x28EE JUMP JUMPDEST SWAP14 SWAP13 POP POP POP POP POP POP POP POP POP POP POP POP POP JUMP JUMPDEST PUSH1 0x0 PUSH2 0x35E7 DUP3 ISZERO ISZERO PUSH1 0x4 PUSH2 0x1061 JUMP JUMPDEST DUP2 DUP4 DUP2 PUSH2 0x35F0 JUMPI INVALID JUMPDEST DIV SWAP4 SWAP3 POP POP POP JUMP JUMPDEST PUSH1 0x0 DUP1 DUP1 JUMPDEST DUP7 MLOAD DUP2 LT ISZERO PUSH2 0x361F JUMPI PUSH2 0x3615 DUP8 DUP3 DUP2 MLOAD DUP2 LT PUSH2 0x31BC JUMPI INVALID JUMPDEST SWAP2 POP PUSH1 0x1 ADD PUSH2 0x35FD JUMP JUMPDEST POP PUSH1 0x0 DUP6 MLOAD PUSH1 0x1 PUSH1 0x1 PUSH1 0x40 SHL SUB DUP2 GT DUP1 ISZERO PUSH2 0x3639 JUMPI PUSH1 0x0 DUP1 REVERT JUMPDEST POP PUSH1 0x40 MLOAD SWAP1 DUP1 DUP3 MSTORE DUP1 PUSH1 0x20 MUL PUSH1 0x20 ADD DUP3 ADD PUSH1 0x40 MSTORE DUP1 ISZERO PUSH2 0x3663 JUMPI DUP2 PUSH1 0x20 ADD PUSH1 0x20 DUP3 MUL DUP1 CALLDATASIZE DUP4 CALLDATACOPY ADD SWAP1 POP JUMPDEST POP SWAP1 POP PUSH1 0x0 DUP1 JUMPDEST DUP9 MLOAD DUP2 LT ISZERO PUSH2 0x36FD JUMPI PUSH1 0x0 PUSH2 0x3685 DUP6 DUP12 DUP5 DUP2 MLOAD DUP2 LT PUSH2 0x31F0 JUMPI INVALID JUMPDEST SWAP1 POP PUSH2 0x36C7 DUP11 DUP4 DUP2 MLOAD DUP2 LT PUSH2 0x3696 JUMPI INVALID JUMPDEST PUSH1 0x20 MUL PUSH1 0x20 ADD ADD MLOAD PUSH2 0x36C1 DUP12 DUP6 DUP2 MLOAD DUP2 LT PUSH2 0x36AD JUMPI INVALID JUMPDEST PUSH1 0x20 MUL PUSH1 0x20 ADD ADD MLOAD DUP14 DUP7 DUP2 MLOAD DUP2 LT PUSH2 0x2B7D JUMPI INVALID JUMPDEST SWAP1 PUSH2 0x2501 JUMP JUMPDEST DUP5 DUP4 DUP2 MLOAD DUP2 LT PUSH2 0x36D3 JUMPI INVALID JUMPDEST PUSH1 0x20 MUL PUSH1 0x20 ADD ADD DUP2 DUP2 MSTORE POP POP PUSH2 0x36F2 PUSH2 0x3464 DUP3 DUP7 DUP6 DUP2 MLOAD DUP2 LT PUSH2 0x32ED JUMPI INVALID JUMPDEST SWAP3 POP POP PUSH1 0x1 ADD PUSH2 0x366A JUMP JUMPDEST POP PUSH1 0x0 DUP9 MLOAD PUSH1 0x1 PUSH1 0x1 PUSH1 0x40 SHL SUB DUP2 GT DUP1 ISZERO PUSH2 0x3717 JUMPI PUSH1 0x0 DUP1 REVERT JUMPDEST POP PUSH1 0x40 MLOAD SWAP1 DUP1 DUP3 MSTORE DUP1 PUSH1 0x20 MUL PUSH1 0x20 ADD DUP3 ADD PUSH1 0x40 MSTORE DUP1 ISZERO PUSH2 0x3741 JUMPI DUP2 PUSH1 0x20 ADD PUSH1 0x20 DUP3 MUL DUP1 CALLDATASIZE DUP4 CALLDATACOPY ADD SWAP1 POP JUMPDEST POP SWAP1 POP PUSH1 0x0 JUMPDEST DUP10 MLOAD DUP2 LT ISZERO PUSH2 0x3802 JUMPI PUSH1 0x0 DUP4 DUP6 DUP4 DUP2 MLOAD DUP2 LT PUSH2 0x375F JUMPI INVALID JUMPDEST PUSH1 0x20 MUL PUSH1 0x20 ADD ADD MLOAD GT ISZERO PUSH2 0x37BB JUMPI PUSH1 0x0 PUSH2 0x3784 PUSH2 0x34F4 DUP7 PUSH8 0xDE0B6B3A7640000 PUSH2 0x1047 JUMP JUMPDEST SWAP1 POP PUSH1 0x0 PUSH2 0x3798 DUP3 DUP14 DUP7 DUP2 MLOAD DUP2 LT PUSH2 0x2AC8 JUMPI INVALID JUMPDEST SWAP1 POP PUSH2 0x37B2 PUSH2 0x352E DUP3 PUSH8 0xDE0B6B3A7640000 DUP14 SWAP1 SUB PUSH2 0x2552 JUMP JUMPDEST SWAP3 POP POP POP PUSH2 0x37D2 JUMP JUMPDEST DUP10 DUP3 DUP2 MLOAD DUP2 LT PUSH2 0x37C7 JUMPI INVALID JUMPDEST PUSH1 0x20 MUL PUSH1 0x20 ADD ADD MLOAD SWAP1 POP JUMPDEST PUSH2 0x37E2 DUP2 DUP13 DUP5 DUP2 MLOAD DUP2 LT PUSH2 0x2B7D JUMPI INVALID JUMPDEST DUP4 DUP4 DUP2 MLOAD DUP2 LT PUSH2 0x37EE JUMPI INVALID JUMPDEST PUSH1 0x20 SWAP1 DUP2 MUL SWAP2 SWAP1 SWAP2 ADD ADD MSTORE POP PUSH1 0x1 ADD PUSH2 0x3747 JUMP JUMPDEST POP PUSH1 0x0 PUSH2 0x3811 DUP12 DUP12 PUSH1 0x1 PUSH2 0x257E JUMP JUMPDEST SWAP1 POP PUSH1 0x0 PUSH2 0x3821 DUP13 DUP5 PUSH1 0x0 PUSH2 0x257E JUMP JUMPDEST SWAP1 POP PUSH1 0x0 PUSH2 0x382F DUP3 DUP5 PUSH2 0x2501 JUMP JUMPDEST SWAP1 POP PUSH8 0xDE0B6B3A7640000 DUP2 GT ISZERO PUSH2 0x3864 JUMPI PUSH2 0x3856 DUP11 PUSH8 0xDE0B6B3A763FFFF NOT DUP4 ADD PUSH2 0x2552 JUMP JUMPDEST SWAP8 POP POP POP POP POP POP POP POP PUSH2 0x1245 JUMP JUMPDEST PUSH1 0x0 SWAP8 POP POP POP POP POP POP POP POP PUSH2 0x1245 JUMP JUMPDEST PUSH1 0x0 DUP1 PUSH2 0x3883 DUP9 DUP9 PUSH1 0x1 PUSH2 0x257E JUMP JUMPDEST SWAP1 POP PUSH1 0x0 PUSH2 0x3899 DUP3 PUSH2 0x3174 DUP8 PUSH2 0x316E DUP2 DUP12 PUSH2 0x171E JUMP JUMPDEST SWAP1 POP PUSH1 0x0 PUSH2 0x38A9 DUP11 DUP11 DUP5 DUP12 PUSH2 0x2F45 JUMP JUMPDEST SWAP1 POP PUSH1 0x0 PUSH2 0x38D3 DUP11 DUP11 DUP2 MLOAD DUP2 LT PUSH2 0x38BC JUMPI INVALID JUMPDEST PUSH1 0x20 MUL PUSH1 0x20 ADD ADD MLOAD DUP4 PUSH2 0x1047 SWAP1 SWAP2 SWAP1 PUSH4 0xFFFFFFFF AND JUMP JUMPDEST SWAP1 POP PUSH1 0x0 DUP1 JUMPDEST DUP12 MLOAD DUP2 LT ISZERO PUSH2 0x38FB JUMPI PUSH2 0x38F1 DUP13 DUP3 DUP2 MLOAD DUP2 LT PUSH2 0x31BC JUMPI INVALID JUMPDEST SWAP2 POP PUSH1 0x1 ADD PUSH2 0x38D9 JUMP JUMPDEST POP PUSH1 0x0 PUSH2 0x390E DUP3 DUP14 DUP14 DUP2 MLOAD DUP2 LT PUSH2 0x31F0 JUMPI INVALID JUMPDEST SWAP1 POP PUSH1 0x0 PUSH2 0x391B DUP3 PUSH2 0x3951 JUMP JUMPDEST SWAP1 POP PUSH1 0x0 PUSH2 0x3929 DUP6 DUP4 PUSH2 0x28EE JUMP JUMPDEST SWAP1 POP PUSH1 0x0 PUSH2 0x3937 DUP7 DUP4 PUSH2 0x1047 JUMP JUMPDEST SWAP1 POP PUSH2 0x3250 PUSH2 0x3249 DUP4 PUSH8 0xDE0B6B3A7640000 DUP15 SWAP1 SUB PUSH2 0x283C JUMP JUMPDEST PUSH1 0x0 PUSH8 0xDE0B6B3A7640000 DUP3 LT PUSH2 0x3969 JUMPI PUSH1 0x0 PUSH2 0x604 JUMP JUMPDEST POP PUSH8 0xDE0B6B3A7640000 SUB SWAP1 JUMP JUMPDEST DUP1 CALLDATALOAD PUSH2 0x9A7 DUP2 PUSH2 0x43E7 JUMP JUMPDEST PUSH1 0x0 DUP3 PUSH1 0x1F DUP4 ADD SLT PUSH2 0x3992 JUMPI DUP1 DUP2 REVERT JUMPDEST DUP2 CALLDATALOAD PUSH1 0x20 PUSH2 0x39A7 PUSH2 0x39A2 DUP4 PUSH2 0x43CA JUMP JUMPDEST PUSH2 0x43A7 JUMP JUMPDEST DUP3 DUP2 MSTORE DUP2 DUP2 ADD SWAP1 DUP6 DUP4 ADD DUP4 DUP6 MUL DUP8 ADD DUP5 ADD DUP9 LT ISZERO PUSH2 0x39C3 JUMPI DUP6 DUP7 REVERT JUMPDEST DUP6 JUMPDEST DUP6 DUP2 LT ISZERO PUSH2 0x39E1 JUMPI DUP2 CALLDATALOAD DUP5 MSTORE SWAP3 DUP5 ADD SWAP3 SWAP1 DUP5 ADD SWAP1 PUSH1 0x1 ADD PUSH2 0x39C5 JUMP JUMPDEST POP SWAP1 SWAP8 SWAP7 POP POP POP POP POP POP POP JUMP JUMPDEST PUSH1 0x0 DUP3 PUSH1 0x1F DUP4 ADD SLT PUSH2 0x39FE JUMPI DUP1 DUP2 REVERT JUMPDEST DUP2 MLOAD PUSH1 0x20 PUSH2 0x3A0E PUSH2 0x39A2 DUP4 PUSH2 0x43CA JUMP JUMPDEST DUP3 DUP2 MSTORE DUP2 DUP2 ADD SWAP1 DUP6 DUP4 ADD DUP4 DUP6 MUL DUP8 ADD DUP5 ADD DUP9 LT ISZERO PUSH2 0x3A2A JUMPI DUP6 DUP7 REVERT JUMPDEST DUP6 JUMPDEST DUP6 DUP2 LT ISZERO PUSH2 0x39E1 JUMPI DUP2 MLOAD DUP5 MSTORE SWAP3 DUP5 ADD SWAP3 SWAP1 DUP5 ADD SWAP1 PUSH1 0x1 ADD PUSH2 0x3A2C JUMP JUMPDEST PUSH1 0x0 DUP3 PUSH1 0x1F DUP4 ADD SLT PUSH2 0x3A58 JUMPI DUP1 DUP2 REVERT JUMPDEST DUP2 CALLDATALOAD PUSH1 0x1 PUSH1 0x1 PUSH1 0x40 SHL SUB DUP2 GT ISZERO PUSH2 0x3A6B JUMPI INVALID JUMPDEST PUSH2 0x3A7E PUSH1 0x1F DUP3 ADD PUSH1 0x1F NOT AND PUSH1 0x20 ADD PUSH2 0x43A7 JUMP JUMPDEST DUP2 DUP2 MSTORE DUP5 PUSH1 0x20 DUP4 DUP7 ADD ADD GT ISZERO PUSH2 0x3A92 JUMPI DUP3 DUP4 REVERT JUMPDEST DUP2 PUSH1 0x20 DUP6 ADD PUSH1 0x20 DUP4 ADD CALLDATACOPY SWAP1 DUP2 ADD PUSH1 0x20 ADD SWAP2 SWAP1 SWAP2 MSTORE SWAP3 SWAP2 POP POP JUMP JUMPDEST DUP1 CALLDATALOAD PUSH1 0x2 DUP2 LT PUSH2 0x9A7 JUMPI PUSH1 0x0 DUP1 REVERT JUMPDEST PUSH1 0x0 PUSH2 0x120 DUP1 DUP4 DUP6 SUB SLT ISZERO PUSH2 0x3ACE JUMPI DUP2 DUP3 REVERT JUMPDEST PUSH2 0x3AD7 DUP2 PUSH2 0x43A7 JUMP JUMPDEST SWAP2 POP POP PUSH2 0x3AE3 DUP3 PUSH2 0x3AAC JUMP JUMPDEST DUP2 MSTORE PUSH2 0x3AF1 PUSH1 0x20 DUP4 ADD PUSH2 0x3977 JUMP JUMPDEST PUSH1 0x20 DUP3 ADD MSTORE PUSH2 0x3B02 PUSH1 0x40 DUP4 ADD PUSH2 0x3977 JUMP JUMPDEST PUSH1 0x40 DUP3 ADD MSTORE PUSH1 0x60 DUP3 ADD CALLDATALOAD PUSH1 0x60 DUP3 ADD MSTORE PUSH1 0x80 DUP3 ADD CALLDATALOAD PUSH1 0x80 DUP3 ADD MSTORE PUSH1 0xA0 DUP3 ADD CALLDATALOAD PUSH1 0xA0 DUP3 ADD MSTORE PUSH2 0x3B31 PUSH1 0xC0 DUP4 ADD PUSH2 0x3977 JUMP JUMPDEST PUSH1 0xC0 DUP3 ADD MSTORE PUSH2 0x3B42 PUSH1 0xE0 DUP4 ADD PUSH2 0x3977 JUMP JUMPDEST PUSH1 0xE0 DUP3 ADD MSTORE PUSH2 0x100 DUP1 DUP4 ADD CALLDATALOAD PUSH1 0x1 PUSH1 0x1 PUSH1 0x40 SHL SUB DUP2 GT ISZERO PUSH2 0x3B62 JUMPI PUSH1 0x0 DUP1 REVERT JUMPDEST PUSH2 0x3B6E DUP6 DUP3 DUP7 ADD PUSH2 0x3A48 JUMP JUMPDEST DUP3 DUP5 ADD MSTORE POP POP SWAP3 SWAP2 POP POP JUMP JUMPDEST PUSH1 0x0 PUSH1 0x20 DUP3 DUP5 SUB SLT ISZERO PUSH2 0x3B8B JUMPI DUP1 DUP2 REVERT JUMPDEST DUP2 CALLDATALOAD PUSH2 0x6CB DUP2 PUSH2 0x43E7 JUMP JUMPDEST PUSH1 0x0 DUP1 PUSH1 0x40 DUP4 DUP6 SUB SLT ISZERO PUSH2 0x3BA8 JUMPI DUP1 DUP2 REVERT JUMPDEST DUP3 CALLDATALOAD PUSH2 0x3BB3 DUP2 PUSH2 0x43E7 JUMP JUMPDEST SWAP2 POP PUSH1 0x20 DUP4 ADD CALLDATALOAD PUSH2 0x3BC3 DUP2 PUSH2 0x43E7 JUMP JUMPDEST DUP1 SWAP2 POP POP SWAP3 POP SWAP3 SWAP1 POP JUMP JUMPDEST PUSH1 0x0 DUP1 PUSH1 0x0 PUSH1 0x60 DUP5 DUP7 SUB SLT ISZERO PUSH2 0x3BE2 JUMPI DUP1 DUP2 REVERT JUMPDEST DUP4 CALLDATALOAD PUSH2 0x3BED DUP2 PUSH2 0x43E7 JUMP JUMPDEST SWAP3 POP PUSH1 0x20 DUP5 ADD CALLDATALOAD PUSH2 0x3BFD DUP2 PUSH2 0x43E7 JUMP JUMPDEST SWAP3 SWAP6 SWAP3 SWAP5 POP POP POP PUSH1 0x40 SWAP2 SWAP1 SWAP2 ADD CALLDATALOAD SWAP1 JUMP JUMPDEST PUSH1 0x0 DUP1 PUSH1 0x0 DUP1 PUSH1 0x0 DUP1 PUSH1 0x0 PUSH1 0xE0 DUP9 DUP11 SUB SLT ISZERO PUSH2 0x3C28 JUMPI DUP5 DUP6 REVERT JUMPDEST DUP8 CALLDATALOAD PUSH2 0x3C33 DUP2 PUSH2 0x43E7 JUMP JUMPDEST SWAP7 POP PUSH1 0x20 DUP9 ADD CALLDATALOAD PUSH2 0x3C43 DUP2 PUSH2 0x43E7 JUMP JUMPDEST SWAP6 POP PUSH1 0x40 DUP9 ADD CALLDATALOAD SWAP5 POP PUSH1 0x60 DUP9 ADD CALLDATALOAD SWAP4 POP PUSH1 0x80 DUP9 ADD CALLDATALOAD PUSH1 0xFF DUP2 AND DUP2 EQ PUSH2 0x3C66 JUMPI DUP4 DUP5 REVERT JUMPDEST SWAP7 SWAP10 SWAP6 SWAP9 POP SWAP4 SWAP7 SWAP3 SWAP6 SWAP5 PUSH1 0xA0 DUP5 ADD CALLDATALOAD SWAP5 POP PUSH1 0xC0 SWAP1 SWAP4 ADD CALLDATALOAD SWAP3 SWAP2 POP POP JUMP JUMPDEST PUSH1 0x0 DUP1 PUSH1 0x40 DUP4 DUP6 SUB SLT ISZERO PUSH2 0x3C95 JUMPI DUP2 DUP3 REVERT JUMPDEST DUP3 CALLDATALOAD PUSH2 0x3CA0 DUP2 PUSH2 0x43E7 JUMP JUMPDEST SWAP5 PUSH1 0x20 SWAP4 SWAP1 SWAP4 ADD CALLDATALOAD SWAP4 POP POP POP JUMP JUMPDEST PUSH1 0x0 DUP1 PUSH1 0x0 PUSH1 0x60 DUP5 DUP7 SUB SLT ISZERO PUSH2 0x3CC2 JUMPI DUP1 DUP2 REVERT JUMPDEST DUP4 MLOAD PUSH1 0x1 PUSH1 0x1 PUSH1 0x40 SHL SUB DUP1 DUP3 GT ISZERO PUSH2 0x3CD8 JUMPI DUP3 DUP4 REVERT JUMPDEST DUP2 DUP7 ADD SWAP2 POP DUP7 PUSH1 0x1F DUP4 ADD SLT PUSH2 0x3CEB JUMPI DUP3 DUP4 REVERT JUMPDEST DUP2 MLOAD PUSH1 0x20 PUSH2 0x3CFB PUSH2 0x39A2 DUP4 PUSH2 0x43CA JUMP JUMPDEST DUP3 DUP2 MSTORE DUP2 DUP2 ADD SWAP1 DUP6 DUP4 ADD DUP4 DUP6 MUL DUP8 ADD DUP5 ADD DUP13 LT ISZERO PUSH2 0x3D17 JUMPI DUP8 DUP9 REVERT JUMPDEST DUP8 SWAP7 POP JUMPDEST DUP5 DUP8 LT ISZERO PUSH2 0x3D42 JUMPI DUP1 MLOAD PUSH2 0x3D2E DUP2 PUSH2 0x43E7 JUMP JUMPDEST DUP4 MSTORE PUSH1 0x1 SWAP7 SWAP1 SWAP7 ADD SWAP6 SWAP2 DUP4 ADD SWAP2 DUP4 ADD PUSH2 0x3D1B JUMP JUMPDEST POP SWAP2 DUP10 ADD MLOAD SWAP2 SWAP8 POP SWAP1 SWAP4 POP POP POP DUP1 DUP3 GT ISZERO PUSH2 0x3D5B JUMPI DUP3 DUP4 REVERT JUMPDEST POP PUSH2 0x3D68 DUP7 DUP3 DUP8 ADD PUSH2 0x39EE JUMP JUMPDEST SWAP3 POP POP PUSH1 0x40 DUP5 ADD MLOAD SWAP1 POP SWAP3 POP SWAP3 POP SWAP3 JUMP JUMPDEST PUSH1 0x0 PUSH1 0x20 DUP3 DUP5 SUB SLT ISZERO PUSH2 0x3D8A JUMPI DUP1 DUP2 REVERT JUMPDEST DUP2 CALLDATALOAD PUSH2 0x6CB DUP2 PUSH2 0x43FC JUMP JUMPDEST PUSH1 0x0 PUSH1 0x20 DUP3 DUP5 SUB SLT ISZERO PUSH2 0x3DA6 JUMPI DUP1 DUP2 REVERT JUMPDEST DUP2 MLOAD PUSH2 0x6CB DUP2 PUSH2 0x43FC JUMP JUMPDEST PUSH1 0x0 DUP1 PUSH1 0x0 DUP1 PUSH1 0x0 DUP1 PUSH1 0x0 PUSH1 0xE0 DUP9 DUP11 SUB SLT ISZERO PUSH2 0x3DCB JUMPI DUP1 DUP2 REVERT JUMPDEST DUP8 CALLDATALOAD SWAP7 POP PUSH1 0x20 DUP9 ADD CALLDATALOAD PUSH2 0x3DDD DUP2 PUSH2 0x43E7 JUMP JUMPDEST SWAP6 POP PUSH1 0x40 DUP9 ADD CALLDATALOAD PUSH2 0x3DED DUP2 PUSH2 0x43E7 JUMP JUMPDEST SWAP5 POP PUSH1 0x60 DUP9 ADD CALLDATALOAD PUSH1 0x1 PUSH1 0x1 PUSH1 0x40 SHL SUB DUP1 DUP3 GT ISZERO PUSH2 0x3E08 JUMPI DUP3 DUP4 REVERT JUMPDEST PUSH2 0x3E14 DUP12 DUP4 DUP13 ADD PUSH2 0x3982 JUMP JUMPDEST SWAP6 POP PUSH1 0x80 DUP11 ADD CALLDATALOAD SWAP5 POP PUSH1 0xA0 DUP11 ADD CALLDATALOAD SWAP4 POP PUSH1 0xC0 DUP11 ADD CALLDATALOAD SWAP2 POP DUP1 DUP3 GT ISZERO PUSH2 0x3E37 JUMPI DUP3 DUP4 REVERT JUMPDEST POP PUSH2 0x3E44 DUP11 DUP3 DUP12 ADD PUSH2 0x3A48 JUMP JUMPDEST SWAP2 POP POP SWAP3 SWAP6 SWAP9 SWAP2 SWAP5 SWAP8 POP SWAP3 SWAP6 POP JUMP JUMPDEST PUSH1 0x0 PUSH1 0x20 DUP3 DUP5 SUB SLT ISZERO PUSH2 0x3E64 JUMPI DUP1 DUP2 REVERT JUMPDEST DUP2 CALLDATALOAD PUSH1 0x1 PUSH1 0x1 PUSH1 0xE0 SHL SUB NOT DUP2 AND DUP2 EQ PUSH2 0x6CB JUMPI DUP2 DUP3 REVERT JUMPDEST PUSH1 0x0 PUSH1 0x20 DUP3 DUP5 SUB SLT ISZERO PUSH2 0x3E8C JUMPI DUP1 DUP2 REVERT JUMPDEST DUP2 MLOAD PUSH2 0x6CB DUP2 PUSH2 0x43E7 JUMP JUMPDEST PUSH1 0x0 DUP1 PUSH1 0x40 DUP4 DUP6 SUB SLT ISZERO PUSH2 0x3EA9 JUMPI DUP2 DUP3 REVERT JUMPDEST DUP3 CALLDATALOAD PUSH2 0x3EB4 DUP2 PUSH2 0x43E7 JUMP JUMPDEST SWAP2 POP PUSH1 0x20 DUP4 ADD CALLDATALOAD PUSH1 0x1 PUSH1 0x1 PUSH1 0x40 SHL SUB DUP2 GT ISZERO PUSH2 0x3ECE JUMPI DUP2 DUP3 REVERT JUMPDEST PUSH2 0x3EDA DUP6 DUP3 DUP7 ADD PUSH2 0x3A48 JUMP JUMPDEST SWAP2 POP POP SWAP3 POP SWAP3 SWAP1 POP JUMP JUMPDEST PUSH1 0x0 PUSH1 0x20 DUP3 DUP5 SUB SLT ISZERO PUSH2 0x3EF5 JUMPI DUP1 DUP2 REVERT JUMPDEST DUP2 MLOAD PUSH2 0x6CB DUP2 PUSH2 0x440A JUMP JUMPDEST PUSH1 0x0 DUP1 PUSH1 0x0 PUSH1 0x60 DUP5 DUP7 SUB SLT ISZERO PUSH2 0x3F14 JUMPI DUP1 DUP2 REVERT JUMPDEST DUP4 MLOAD PUSH2 0x3F1F DUP2 PUSH2 0x440A JUMP JUMPDEST PUSH1 0x20 DUP6 ADD MLOAD SWAP1 SWAP4 POP PUSH1 0x1 PUSH1 0x1 PUSH1 0x40 SHL SUB DUP2 GT ISZERO PUSH2 0x3F3A JUMPI DUP2 DUP3 REVERT JUMPDEST PUSH2 0x3D68 DUP7 DUP3 DUP8 ADD PUSH2 0x39EE JUMP JUMPDEST PUSH1 0x0 DUP1 PUSH1 0x40 DUP4 DUP6 SUB SLT ISZERO PUSH2 0x3F58 JUMPI DUP2 DUP3 REVERT JUMPDEST DUP3 MLOAD PUSH2 0x3F63 DUP2 PUSH2 0x440A JUMP JUMPDEST PUSH1 0x20 SWAP4 SWAP1 SWAP4 ADD MLOAD SWAP3 SWAP5 SWAP3 SWAP4 POP POP POP JUMP JUMPDEST PUSH1 0x0 DUP1 PUSH1 0x0 PUSH1 0x60 DUP5 DUP7 SUB SLT ISZERO PUSH2 0x3F87 JUMPI DUP1 DUP2 REVERT JUMPDEST DUP4 MLOAD PUSH2 0x3F92 DUP2 PUSH2 0x440A JUMP JUMPDEST PUSH1 0x20 DUP6 ADD MLOAD PUSH1 0x40 SWAP1 SWAP6 ADD MLOAD SWAP1 SWAP7 SWAP5 SWAP6 POP SWAP4 SWAP3 POP POP POP JUMP JUMPDEST PUSH1 0x0 DUP1 PUSH1 0x40 DUP4 DUP6 SUB SLT ISZERO PUSH2 0x3FBB JUMPI DUP2 DUP3 REVERT JUMPDEST DUP3 MLOAD PUSH2 0x3FC6 DUP2 PUSH2 0x440A JUMP JUMPDEST PUSH1 0x20 DUP5 ADD MLOAD SWAP1 SWAP3 POP PUSH1 0x1 PUSH1 0x1 PUSH1 0x40 SHL SUB DUP2 GT ISZERO PUSH2 0x3FE1 JUMPI DUP2 DUP3 REVERT JUMPDEST PUSH2 0x3EDA DUP6 DUP3 DUP7 ADD PUSH2 0x39EE JUMP JUMPDEST PUSH1 0x0 DUP1 PUSH1 0x0 DUP1 PUSH1 0x80 DUP6 DUP8 SUB SLT ISZERO PUSH2 0x4002 JUMPI DUP2 DUP3 REVERT JUMPDEST DUP5 CALLDATALOAD PUSH1 0x1 PUSH1 0x1 PUSH1 0x40 SHL SUB DUP1 DUP3 GT ISZERO PUSH2 0x4018 JUMPI DUP4 DUP5 REVERT JUMPDEST PUSH2 0x4024 DUP9 DUP4 DUP10 ADD PUSH2 0x3ABB JUMP JUMPDEST SWAP6 POP PUSH1 0x20 DUP8 ADD CALLDATALOAD SWAP2 POP DUP1 DUP3 GT ISZERO PUSH2 0x4039 JUMPI DUP4 DUP5 REVERT JUMPDEST POP PUSH2 0x4046 DUP8 DUP3 DUP9 ADD PUSH2 0x3982 JUMP JUMPDEST SWAP5 SWAP8 SWAP5 SWAP7 POP POP POP POP PUSH1 0x40 DUP4 ADD CALLDATALOAD SWAP3 PUSH1 0x60 ADD CALLDATALOAD SWAP2 SWAP1 POP JUMP JUMPDEST PUSH1 0x0 DUP1 PUSH1 0x0 PUSH1 0x60 DUP5 DUP7 SUB SLT ISZERO PUSH2 0x4071 JUMPI DUP1 DUP2 REVERT JUMPDEST DUP4 CALLDATALOAD PUSH1 0x1 PUSH1 0x1 PUSH1 0x40 SHL SUB DUP2 GT ISZERO PUSH2 0x4086 JUMPI DUP2 DUP3 REVERT JUMPDEST PUSH2 0x4092 DUP7 DUP3 DUP8 ADD PUSH2 0x3ABB JUMP JUMPDEST SWAP7 PUSH1 0x20 DUP7 ADD CALLDATALOAD SWAP7 POP PUSH1 0x40 SWAP1 SWAP6 ADD CALLDATALOAD SWAP5 SWAP4 POP POP POP POP JUMP JUMPDEST PUSH1 0x0 PUSH1 0x20 DUP3 DUP5 SUB SLT ISZERO PUSH2 0x40B9 JUMPI DUP1 DUP2 REVERT JUMPDEST POP CALLDATALOAD SWAP2 SWAP1 POP JUMP JUMPDEST PUSH1 0x0 DUP1 PUSH1 0x40 DUP4 DUP6 SUB SLT ISZERO PUSH2 0x40D2 JUMPI DUP2 DUP3 REVERT JUMPDEST POP POP DUP1 CALLDATALOAD SWAP3 PUSH1 0x20 SWAP1 SWAP2 ADD CALLDATALOAD SWAP2 POP JUMP JUMPDEST PUSH1 0x0 DUP1 PUSH1 0x0 DUP1 PUSH1 0x80 DUP6 DUP8 SUB SLT ISZERO PUSH2 0x40F6 JUMPI DUP2 DUP3 REVERT JUMPDEST DUP5 MLOAD SWAP4 POP PUSH1 0x20 DUP6 ADD MLOAD SWAP3 POP PUSH1 0x40 DUP6 ADD MLOAD SWAP2 POP PUSH1 0x60 DUP6 ADD MLOAD PUSH2 0x4116 DUP2 PUSH2 0x43E7 JUMP JUMPDEST SWAP4 SWAP7 SWAP3 SWAP6 POP SWAP1 SWAP4 POP POP JUMP JUMPDEST PUSH1 0x0 DUP2 MLOAD DUP1 DUP5 MSTORE PUSH1 0x20 DUP1 DUP6 ADD SWAP5 POP DUP1 DUP5 ADD DUP4 JUMPDEST DUP4 DUP2 LT ISZERO PUSH2 0x4150 JUMPI DUP2 MLOAD DUP8 MSTORE SWAP6 DUP3 ADD SWAP6 SWAP1 DUP3 ADD SWAP1 PUSH1 0x1 ADD PUSH2 0x4134 JUMP JUMPDEST POP SWAP5 SWAP6 SWAP5 POP POP POP POP POP JUMP JUMPDEST PUSH1 0x0 DUP2 MLOAD DUP1 DUP5 MSTORE DUP2 JUMPDEST DUP2 DUP2 LT ISZERO PUSH2 0x4180 JUMPI PUSH1 0x20 DUP2 DUP6 ADD DUP2 ADD MLOAD DUP7 DUP4 ADD DUP3 ADD MSTORE ADD PUSH2 0x4164 JUMP JUMPDEST DUP2 DUP2 GT ISZERO PUSH2 0x4191 JUMPI DUP3 PUSH1 0x20 DUP4 DUP8 ADD ADD MSTORE JUMPDEST POP PUSH1 0x1F ADD PUSH1 0x1F NOT AND SWAP3 SWAP1 SWAP3 ADD PUSH1 0x20 ADD SWAP3 SWAP2 POP POP JUMP JUMPDEST SWAP2 DUP3 MSTORE PUSH1 0x1 PUSH1 0x1 PUSH1 0xE0 SHL SUB NOT AND PUSH1 0x20 DUP3 ADD MSTORE PUSH1 0x24 ADD SWAP1 JUMP JUMPDEST PUSH1 0x0 DUP3 DUP5 DUP4 CALLDATACOPY SWAP2 ADD SWAP1 DUP2 MSTORE SWAP2 SWAP1 POP JUMP JUMPDEST PUSH2 0x1901 PUSH1 0xF0 SHL DUP2 MSTORE PUSH1 0x2 DUP2 ADD SWAP3 SWAP1 SWAP3 MSTORE PUSH1 0x22 DUP3 ADD MSTORE PUSH1 0x42 ADD SWAP1 JUMP JUMPDEST PUSH1 0x1 PUSH1 0x1 PUSH1 0xA0 SHL SUB SWAP2 SWAP1 SWAP2 AND DUP2 MSTORE PUSH1 0x20 ADD SWAP1 JUMP JUMPDEST PUSH1 0x0 PUSH1 0x20 DUP3 MSTORE PUSH2 0x6CB PUSH1 0x20 DUP4 ADD DUP5 PUSH2 0x4121 JUMP JUMPDEST PUSH1 0x0 PUSH1 0x40 DUP3 MSTORE PUSH2 0x4223 PUSH1 0x40 DUP4 ADD DUP6 PUSH2 0x4121 JUMP JUMPDEST DUP3 DUP2 SUB PUSH1 0x20 DUP5 ADD MSTORE PUSH2 0x1245 DUP2 DUP6 PUSH2 0x4121 JUMP JUMPDEST SWAP1 ISZERO ISZERO DUP2 MSTORE PUSH1 0x20 ADD SWAP1 JUMP JUMPDEST SWAP3 ISZERO ISZERO DUP4 MSTORE PUSH1 0x20 DUP4 ADD SWAP2 SWAP1 SWAP2 MSTORE PUSH1 0x40 DUP3 ADD MSTORE PUSH1 0x60 ADD SWAP1 JUMP JUMPDEST SWAP1 DUP2 MSTORE PUSH1 0x20 ADD SWAP1 JUMP JUMPDEST SWAP3 DUP4 MSTORE PUSH1 0x1 PUSH1 0x1 PUSH1 0xA0 SHL SUB SWAP2 DUP3 AND PUSH1 0x20 DUP5 ADD MSTORE AND PUSH1 0x40 DUP3 ADD MSTORE PUSH1 0x60 ADD SWAP1 JUMP JUMPDEST SWAP6 DUP7 MSTORE PUSH1 0x1 PUSH1 0x1 PUSH1 0xA0 SHL SUB SWAP5 DUP6 AND PUSH1 0x20 DUP8 ADD MSTORE SWAP3 SWAP1 SWAP4 AND PUSH1 0x40 DUP6 ADD MSTORE PUSH1 0x60 DUP5 ADD MSTORE PUSH1 0x80 DUP4 ADD SWAP2 SWAP1 SWAP2 MSTORE PUSH1 0xA0 DUP3 ADD MSTORE PUSH1 0xC0 ADD SWAP1 JUMP JUMPDEST SWAP5 DUP6 MSTORE PUSH1 0x20 DUP6 ADD SWAP4 SWAP1 SWAP4 MSTORE PUSH1 0x40 DUP5 ADD SWAP2 SWAP1 SWAP2 MSTORE PUSH1 0x60 DUP4 ADD MSTORE PUSH1 0x1 PUSH1 0x1 PUSH1 0xA0 SHL SUB AND PUSH1 0x80 DUP3 ADD MSTORE PUSH1 0xA0 ADD SWAP1 JUMP JUMPDEST PUSH1 0x0 DUP4 DUP3 MSTORE PUSH1 0x40 PUSH1 0x20 DUP4 ADD MSTORE PUSH2 0x20F6 PUSH1 0x40 DUP4 ADD DUP5 PUSH2 0x415B JUMP JUMPDEST SWAP2 DUP3 MSTORE PUSH1 0x1 PUSH1 0x1 PUSH1 0xA0 SHL SUB AND PUSH1 0x20 DUP3 ADD MSTORE PUSH1 0x40 ADD SWAP1 JUMP JUMPDEST SWAP4 DUP5 MSTORE PUSH1 0xFF SWAP3 SWAP1 SWAP3 AND PUSH1 0x20 DUP5 ADD MSTORE PUSH1 0x40 DUP4 ADD MSTORE PUSH1 0x60 DUP3 ADD MSTORE PUSH1 0x80 ADD SWAP1 JUMP JUMPDEST PUSH1 0x0 PUSH1 0x20 DUP3 MSTORE PUSH2 0x6CB PUSH1 0x20 DUP4 ADD DUP5 PUSH2 0x415B JUMP JUMPDEST PUSH1 0x0 DUP4 DUP3 MSTORE PUSH1 0x40 PUSH1 0x20 DUP4 ADD MSTORE PUSH2 0x20F6 PUSH1 0x40 DUP4 ADD DUP5 PUSH2 0x4121 JUMP JUMPDEST SWAP3 DUP4 MSTORE SWAP1 ISZERO ISZERO PUSH1 0x20 DUP4 ADD MSTORE PUSH1 0x40 DUP3 ADD MSTORE PUSH1 0x60 ADD SWAP1 JUMP JUMPDEST SWAP2 DUP3 MSTORE PUSH1 0x20 DUP3 ADD MSTORE PUSH1 0x40 ADD SWAP1 JUMP JUMPDEST SWAP4 DUP5 MSTORE PUSH1 0x20 DUP5 ADD SWAP3 SWAP1 SWAP3 MSTORE PUSH1 0x40 DUP4 ADD MSTORE PUSH1 0x60 DUP3 ADD MSTORE PUSH1 0x80 ADD SWAP1 JUMP JUMPDEST PUSH1 0xFF SWAP2 SWAP1 SWAP2 AND DUP2 MSTORE PUSH1 0x20 ADD SWAP1 JUMP JUMPDEST PUSH1 0x40 MLOAD DUP2 DUP2 ADD PUSH1 0x1 PUSH1 0x1 PUSH1 0x40 SHL SUB DUP2 GT DUP3 DUP3 LT OR ISZERO PUSH2 0x43C2 JUMPI INVALID JUMPDEST PUSH1 0x40 MSTORE SWAP2 SWAP1 POP JUMP JUMPDEST PUSH1 0x0 PUSH1 0x1 PUSH1 0x1 PUSH1 0x40 SHL SUB DUP3 GT ISZERO PUSH2 0x43DD JUMPI INVALID JUMPDEST POP PUSH1 0x20 SWAP1 DUP2 MUL ADD SWAP1 JUMP JUMPDEST PUSH1 0x1 PUSH1 0x1 PUSH1 0xA0 SHL SUB DUP2 AND DUP2 EQ PUSH2 0x61B JUMPI PUSH1 0x0 DUP1 REVERT JUMPDEST DUP1 ISZERO ISZERO DUP2 EQ PUSH2 0x61B JUMPI PUSH1 0x0 DUP1 REVERT JUMPDEST PUSH1 0x3 DUP2 LT PUSH2 0x61B JUMPI PUSH1 0x0 DUP1 REVERT INVALID LOG2 PUSH5 0x6970667358 0x22 SLT KECCAK256 0xFC DUP15 0xA8 0xBD 0xB8 PUSH9 0xB5B3148381F815E316 SWAP5 SWAP15 SWAP2 0xA9 PUSH26 0x948422D6B385629DCB04CD2464736F6C63430007060033000000 "
		},
		"gasEstimates": {
			"creation": {
				"codeDepositCost": "3497000",
				"executionCost": "infinite",
				"totalCost": "infinite"
			},
			"external": {
				"DOMAIN_SEPARATOR()": "infinite",
				"allowance(address,address)": "infinite",
				"approve(address,uint256)": "22572",
				"balanceOf(address)": "1344",
				"decimals()": "1092",
				"decreaseAllowance(address,uint256)": "infinite",
				"getActionId(bytes4)": "infinite",
				"getAmplificationParameter()": "infinite",
				"getAuthorizer()": "infinite",
				"getLastInvariant()": "1897",
				"getOwner()": "infinite",
				"getPausedState()": "infinite",
				"getPoolId()": "infinite",
				"getRate()": "infinite",
				"getScalingFactors()": "infinite",
				"getSwapFeePercentage()": "1182",
				"getVault()": "infinite",
				"increaseAllowance(address,uint256)": "23605",
				"name()": "infinite",
				"nonces(address)": "1376",
				"onExitPool(bytes32,address,address,uint256[],uint256,uint256,bytes)": "infinite",
				"onJoinPool(bytes32,address,address,uint256[],uint256,uint256,bytes)": "infinite",
				"onSwap((uint8,address,address,uint256,bytes32,uint256,address,address,bytes),uint256,uint256)": "infinite",
				"onSwap((uint8,address,address,uint256,bytes32,uint256,address,address,bytes),uint256[],uint256,uint256)": "infinite",
				"permit(address,address,uint256,uint256,uint8,bytes32,bytes32)": "infinite",
				"queryExit(bytes32,address,address,uint256[],uint256,uint256,bytes)": "infinite",
				"queryJoin(bytes32,address,address,uint256[],uint256,uint256,bytes)": "infinite",
				"setAssetManagerPoolConfig(address,bytes)": "infinite",
				"setPaused(bool)": "infinite",
				"setSwapFeePercentage(uint256)": "infinite",
				"startAmplificationParameterUpdate(uint256,uint256)": "infinite",
				"stopAmplificationParameterUpdate()": "infinite",
				"symbol()": "infinite",
				"totalSupply()": "1074",
				"transfer(address,uint256)": "infinite",
				"transferFrom(address,address,uint256)": "infinite"
			},
			"internal": {
				"_doExit(uint256[] memory,uint256[] memory,bytes memory)": "infinite",
				"_doJoin(uint256[] memory,uint256[] memory,bytes memory)": "infinite",
				"_exitBPTInForExactTokensOut(uint256[] memory,uint256[] memory,bytes memory)": "infinite",
				"_exitExactBPTInForTokenOut(uint256[] memory,bytes memory)": "infinite",
				"_exitExactBPTInForTokensOut(uint256[] memory,bytes memory)": "infinite",
				"_getAmplificationData()": "infinite",
				"_getAmplificationParameter()": "infinite",
				"_getDueProtocolFeeAmounts(uint256[] memory,uint256)": "infinite",
				"_getMaxTokens()": "infinite",
				"_getScalingFactor0()": "infinite",
				"_getScalingFactor1()": "infinite",
				"_getScalingFactor2()": "infinite",
				"_getScalingFactor3()": "infinite",
				"_getScalingFactor4()": "infinite",
				"_getSwapBalanceArrays(struct IPoolSwapStructs.SwapRequest memory,uint256,uint256)": "infinite",
				"_getTotalTokens()": "infinite",
				"_isOwnerOnlyAction(bytes32)": "infinite",
				"_isToken0(contract IERC20)": "infinite",
				"_isToken1(contract IERC20)": "infinite",
				"_joinExactTokensInForBPTOut(uint256[] memory,uint256[] memory,bytes memory)": "infinite",
				"_joinTokenInForExactBPTOut(uint256[] memory,bytes memory)": "infinite",
				"_mutateAmounts(uint256[] memory,uint256[] memory,function (uint256,uint256) pure returns (uint256))": "infinite",
				"_onExitPool(bytes32,address,address,uint256[] memory,uint256,uint256,uint256[] memory,bytes memory)": "infinite",
				"_onInitializePool(bytes32,address,address,uint256[] memory,bytes memory)": "infinite",
				"_onJoinPool(bytes32,address,address,uint256[] memory,uint256,uint256,uint256[] memory,bytes memory)": "infinite",
				"_onSwapGivenIn(struct IPoolSwapStructs.SwapRequest memory,uint256,uint256)": "infinite",
				"_onSwapGivenIn(struct IPoolSwapStructs.SwapRequest memory,uint256[] memory,uint256,uint256)": "infinite",
				"_onSwapGivenOut(struct IPoolSwapStructs.SwapRequest memory,uint256,uint256)": "infinite",
				"_onSwapGivenOut(struct IPoolSwapStructs.SwapRequest memory,uint256[] memory,uint256,uint256)": "infinite",
				"_scalingFactor(contract IERC20)": "infinite",
				"_scalingFactors()": "infinite",
				"_setAmplificationData(uint256)": "infinite",
				"_setAmplificationData(uint256,uint256,uint256,uint256)": "infinite",
				"_storeAmplificationData(uint256,uint256,uint256,uint256)": "infinite",
				"_updateInvariantAfterExit(uint256[] memory,uint256[] memory)": "infinite",
				"_updateInvariantAfterJoin(uint256[] memory,uint256[] memory)": "infinite",
				"_updateLastInvariant(uint256,uint256)": "40024"
			}
		},
		"methodIdentifiers": {
			"DOMAIN_SEPARATOR()": "3644e515",
			"allowance(address,address)": "dd62ed3e",
			"approve(address,uint256)": "095ea7b3",
			"balanceOf(address)": "70a08231",
			"decimals()": "313ce567",
			"decreaseAllowance(address,uint256)": "a457c2d7",
			"getActionId(bytes4)": "851c1bb3",
			"getAmplificationParameter()": "6daccffa",
			"getAuthorizer()": "aaabadc5",
			"getLastInvariant()": "9b02cdde",
			"getOwner()": "893d20e8",
			"getPausedState()": "1c0de051",
			"getPoolId()": "38fff2d0",
			"getRate()": "679aefce",
			"getScalingFactors()": "1dd746ea",
			"getSwapFeePercentage()": "55c67628",
			"getVault()": "8d928af8",
			"increaseAllowance(address,uint256)": "39509351",
			"name()": "06fdde03",
			"nonces(address)": "7ecebe00",
			"onExitPool(bytes32,address,address,uint256[],uint256,uint256,bytes)": "74f3b009",
			"onJoinPool(bytes32,address,address,uint256[],uint256,uint256,bytes)": "d5c096c4",
			"onSwap((uint8,address,address,uint256,bytes32,uint256,address,address,bytes),uint256,uint256)": "9d2c110c",
			"onSwap((uint8,address,address,uint256,bytes32,uint256,address,address,bytes),uint256[],uint256,uint256)": "01ec954a",
			"permit(address,address,uint256,uint256,uint8,bytes32,bytes32)": "d505accf",
			"queryExit(bytes32,address,address,uint256[],uint256,uint256,bytes)": "6028bfd4",
			"queryJoin(bytes32,address,address,uint256[],uint256,uint256,bytes)": "87ec6817",
			"setAssetManagerPoolConfig(address,bytes)": "50dd6ed9",
			"setPaused(bool)": "16c38b3c",
			"setSwapFeePercentage(uint256)": "38e9922e",
			"startAmplificationParameterUpdate(uint256,uint256)": "2f1a0bc9",
			"stopAmplificationParameterUpdate()": "eb0f24d6",
			"symbol()": "95d89b41",
			"totalSupply()": "18160ddd",
			"transfer(address,uint256)": "a9059cbb",
			"transferFrom(address,address,uint256)": "23b872dd"
		}
	},
	"abi": [
		{
			"inputs": [
				{
					"internalType": "contract IVault",
					"name": "vault",
					"type": "address"
				},
				{
					"internalType": "string",
					"name": "name",
					"type": "string"
				},
				{
					"internalType": "string",
					"name": "symbol",
					"type": "string"
				},
				{
					"internalType": "contract IERC20[]",
					"name": "tokens",
					"type": "address[]"
				},
				{
					"internalType": "uint256",
					"name": "amplificationParameter",
					"type": "uint256"
				},
				{
					"internalType": "uint256",
					"name": "swapFeePercentage",
					"type": "uint256"
				},
				{
					"internalType": "uint256",
					"name": "pauseWindowDuration",
					"type": "uint256"
				},
				{
					"internalType": "uint256",
					"name": "bufferPeriodDuration",
					"type": "uint256"
				},
				{
					"internalType": "address",
					"name": "owner",
					"type": "address"
				}
			],
			"stateMutability": "nonpayable",
			"type": "constructor"
		},
		{
			"anonymous": false,
			"inputs": [
				{
					"indexed": false,
					"internalType": "uint256",
					"name": "startValue",
					"type": "uint256"
				},
				{
					"indexed": false,
					"internalType": "uint256",
					"name": "endValue",
					"type": "uint256"
				},
				{
					"indexed": false,
					"internalType": "uint256",
					"name": "startTime",
					"type": "uint256"
				},
				{
					"indexed": false,
					"internalType": "uint256",
					"name": "endTime",
					"type": "uint256"
				}
			],
			"name": "AmpUpdateStarted",
			"type": "event"
		},
		{
			"anonymous": false,
			"inputs": [
				{
					"indexed": false,
					"internalType": "uint256",
					"name": "currentValue",
					"type": "uint256"
				}
			],
			"name": "AmpUpdateStopped",
			"type": "event"
		},
		{
			"anonymous": false,
			"inputs": [
				{
					"indexed": true,
					"internalType": "address",
					"name": "owner",
					"type": "address"
				},
				{
					"indexed": true,
					"internalType": "address",
					"name": "spender",
					"type": "address"
				},
				{
					"indexed": false,
					"internalType": "uint256",
					"name": "value",
					"type": "uint256"
				}
			],
			"name": "Approval",
			"type": "event"
		},
		{
			"anonymous": false,
			"inputs": [
				{
					"indexed": false,
					"internalType": "bool",
					"name": "paused",
					"type": "bool"
				}
			],
			"name": "PausedStateChanged",
			"type": "event"
		},
		{
			"anonymous": false,
			"inputs": [
				{
					"indexed": false,
					"internalType": "uint256",
					"name": "swapFeePercentage",
					"type": "uint256"
				}
			],
			"name": "SwapFeePercentageChanged",
			"type": "event"
		},
		{
			"anonymous": false,
			"inputs": [
				{
					"indexed": true,
					"internalType": "address",
					"name": "from",
					"type": "address"
				},
				{
					"indexed": true,
					"internalType": "address",
					"name": "to",
					"type": "address"
				},
				{
					"indexed": false,
					"internalType": "uint256",
					"name": "value",
					"type": "uint256"
				}
			],
			"name": "Transfer",
			"type": "event"
		},
		{
			"inputs": [],
			"name": "DOMAIN_SEPARATOR",
			"outputs": [
				{
					"internalType": "bytes32",
					"name": "",
					"type": "bytes32"
				}
			],
			"stateMutability": "view",
			"type": "function"
		},
		{
			"inputs": [
				{
					"internalType": "address",
					"name": "owner",
					"type": "address"
				},
				{
					"internalType": "address",
					"name": "spender",
					"type": "address"
				}
			],
			"name": "allowance",
			"outputs": [
				{
					"internalType": "uint256",
					"name": "",
					"type": "uint256"
				}
			],
			"stateMutability": "view",
			"type": "function"
		},
		{
			"inputs": [
				{
					"internalType": "address",
					"name": "spender",
					"type": "address"
				},
				{
					"internalType": "uint256",
					"name": "amount",
					"type": "uint256"
				}
			],
			"name": "approve",
			"outputs": [
				{
					"internalType": "bool",
					"name": "",
					"type": "bool"
				}
			],
			"stateMutability": "nonpayable",
			"type": "function"
		},
		{
			"inputs": [
				{
					"internalType": "address",
					"name": "account",
					"type": "address"
				}
			],
			"name": "balanceOf",
			"outputs": [
				{
					"internalType": "uint256",
					"name": "",
					"type": "uint256"
				}
			],
			"stateMutability": "view",
			"type": "function"
		},
		{
			"inputs": [],
			"name": "decimals",
			"outputs": [
				{
					"internalType": "uint8",
					"name": "",
					"type": "uint8"
				}
			],
			"stateMutability": "view",
			"type": "function"
		},
		{
			"inputs": [
				{
					"internalType": "address",
					"name": "spender",
					"type": "address"
				},
				{
					"internalType": "uint256",
					"name": "amount",
					"type": "uint256"
				}
			],
			"name": "decreaseAllowance",
			"outputs": [
				{
					"internalType": "bool",
					"name": "",
					"type": "bool"
				}
			],
			"stateMutability": "nonpayable",
			"type": "function"
		},
		{
			"inputs": [
				{
					"internalType": "bytes4",
					"name": "selector",
					"type": "bytes4"
				}
			],
			"name": "getActionId",
			"outputs": [
				{
					"internalType": "bytes32",
					"name": "",
					"type": "bytes32"
				}
			],
			"stateMutability": "view",
			"type": "function"
		},
		{
			"inputs": [],
			"name": "getAmplificationParameter",
			"outputs": [
				{
					"internalType": "uint256",
					"name": "value",
					"type": "uint256"
				},
				{
					"internalType": "bool",
					"name": "isUpdating",
					"type": "bool"
				},
				{
					"internalType": "uint256",
					"name": "precision",
					"type": "uint256"
				}
			],
			"stateMutability": "view",
			"type": "function"
		},
		{
			"inputs": [],
			"name": "getAuthorizer",
			"outputs": [
				{
					"internalType": "contract IAuthorizer",
					"name": "",
					"type": "address"
				}
			],
			"stateMutability": "view",
			"type": "function"
		},
		{
			"inputs": [],
			"name": "getLastInvariant",
			"outputs": [
				{
					"internalType": "uint256",
					"name": "lastInvariant",
					"type": "uint256"
				},
				{
					"internalType": "uint256",
					"name": "lastInvariantAmp",
					"type": "uint256"
				}
			],
			"stateMutability": "view",
			"type": "function"
		},
		{
			"inputs": [],
			"name": "getOwner",
			"outputs": [
				{
					"internalType": "address",
					"name": "",
					"type": "address"
				}
			],
			"stateMutability": "view",
			"type": "function"
		},
		{
			"inputs": [],
			"name": "getPausedState",
			"outputs": [
				{
					"internalType": "bool",
					"name": "paused",
					"type": "bool"
				},
				{
					"internalType": "uint256",
					"name": "pauseWindowEndTime",
					"type": "uint256"
				},
				{
					"internalType": "uint256",
					"name": "bufferPeriodEndTime",
					"type": "uint256"
				}
			],
			"stateMutability": "view",
			"type": "function"
		},
		{
			"inputs": [],
			"name": "getPoolId",
			"outputs": [
				{
					"internalType": "bytes32",
					"name": "",
					"type": "bytes32"
				}
			],
			"stateMutability": "view",
			"type": "function"
		},
		{
			"inputs": [],
			"name": "getRate",
			"outputs": [
				{
					"internalType": "uint256",
					"name": "",
					"type": "uint256"
				}
			],
			"stateMutability": "view",
			"type": "function"
		},
		{
			"inputs": [],
			"name": "getScalingFactors",
			"outputs": [
				{
					"internalType": "uint256[]",
					"name": "",
					"type": "uint256[]"
				}
			],
			"stateMutability": "view",
			"type": "function"
		},
		{
			"inputs": [],
			"name": "getSwapFeePercentage",
			"outputs": [
				{
					"internalType": "uint256",
					"name": "",
					"type": "uint256"
				}
			],
			"stateMutability": "view",
			"type": "function"
		},
		{
			"inputs": [],
			"name": "getVault",
			"outputs": [
				{
					"internalType": "contract IVault",
					"name": "",
					"type": "address"
				}
			],
			"stateMutability": "view",
			"type": "function"
		},
		{
			"inputs": [
				{
					"internalType": "address",
					"name": "spender",
					"type": "address"
				},
				{
					"internalType": "uint256",
					"name": "addedValue",
					"type": "uint256"
				}
			],
			"name": "increaseAllowance",
			"outputs": [
				{
					"internalType": "bool",
					"name": "",
					"type": "bool"
				}
			],
			"stateMutability": "nonpayable",
			"type": "function"
		},
		{
			"inputs": [],
			"name": "name",
			"outputs": [
				{
					"internalType": "string",
					"name": "",
					"type": "string"
				}
			],
			"stateMutability": "view",
			"type": "function"
		},
		{
			"inputs": [
				{
					"internalType": "address",
					"name": "owner",
					"type": "address"
				}
			],
			"name": "nonces",
			"outputs": [
				{
					"internalType": "uint256",
					"name": "",
					"type": "uint256"
				}
			],
			"stateMutability": "view",
			"type": "function"
		},
		{
			"inputs": [
				{
					"internalType": "bytes32",
					"name": "poolId",
					"type": "bytes32"
				},
				{
					"internalType": "address",
					"name": "sender",
					"type": "address"
				},
				{
					"internalType": "address",
					"name": "recipient",
					"type": "address"
				},
				{
					"internalType": "uint256[]",
					"name": "balances",
					"type": "uint256[]"
				},
				{
					"internalType": "uint256",
					"name": "lastChangeBlock",
					"type": "uint256"
				},
				{
					"internalType": "uint256",
					"name": "protocolSwapFeePercentage",
					"type": "uint256"
				},
				{
					"internalType": "bytes",
					"name": "userData",
					"type": "bytes"
				}
			],
			"name": "onExitPool",
			"outputs": [
				{
					"internalType": "uint256[]",
					"name": "",
					"type": "uint256[]"
				},
				{
					"internalType": "uint256[]",
					"name": "",
					"type": "uint256[]"
				}
			],
			"stateMutability": "nonpayable",
			"type": "function"
		},
		{
			"inputs": [
				{
					"internalType": "bytes32",
					"name": "poolId",
					"type": "bytes32"
				},
				{
					"internalType": "address",
					"name": "sender",
					"type": "address"
				},
				{
					"internalType": "address",
					"name": "recipient",
					"type": "address"
				},
				{
					"internalType": "uint256[]",
					"name": "balances",
					"type": "uint256[]"
				},
				{
					"internalType": "uint256",
					"name": "lastChangeBlock",
					"type": "uint256"
				},
				{
					"internalType": "uint256",
					"name": "protocolSwapFeePercentage",
					"type": "uint256"
				},
				{
					"internalType": "bytes",
					"name": "userData",
					"type": "bytes"
				}
			],
			"name": "onJoinPool",
			"outputs": [
				{
					"internalType": "uint256[]",
					"name": "",
					"type": "uint256[]"
				},
				{
					"internalType": "uint256[]",
					"name": "",
					"type": "uint256[]"
				}
			],
			"stateMutability": "nonpayable",
			"type": "function"
		},
		{
			"inputs": [
				{
					"components": [
						{
							"internalType": "enum IVault.SwapKind",
							"name": "kind",
							"type": "uint8"
						},
						{
							"internalType": "contract IERC20",
							"name": "tokenIn",
							"type": "address"
						},
						{
							"internalType": "contract IERC20",
							"name": "tokenOut",
							"type": "address"
						},
						{
							"internalType": "uint256",
							"name": "amount",
							"type": "uint256"
						},
						{
							"internalType": "bytes32",
							"name": "poolId",
							"type": "bytes32"
						},
						{
							"internalType": "uint256",
							"name": "lastChangeBlock",
							"type": "uint256"
						},
						{
							"internalType": "address",
							"name": "from",
							"type": "address"
						},
						{
							"internalType": "address",
							"name": "to",
							"type": "address"
						},
						{
							"internalType": "bytes",
							"name": "userData",
							"type": "bytes"
						}
					],
					"internalType": "struct IPoolSwapStructs.SwapRequest",
					"name": "swapRequest",
					"type": "tuple"
				},
				{
					"internalType": "uint256[]",
					"name": "balances",
					"type": "uint256[]"
				},
				{
					"internalType": "uint256",
					"name": "indexIn",
					"type": "uint256"
				},
				{
					"internalType": "uint256",
					"name": "indexOut",
					"type": "uint256"
				}
			],
			"name": "onSwap",
			"outputs": [
				{
					"internalType": "uint256",
					"name": "",
					"type": "uint256"
				}
			],
			"stateMutability": "nonpayable",
			"type": "function"
		},
		{
			"inputs": [
				{
					"components": [
						{
							"internalType": "enum IVault.SwapKind",
							"name": "kind",
							"type": "uint8"
						},
						{
							"internalType": "contract IERC20",
							"name": "tokenIn",
							"type": "address"
						},
						{
							"internalType": "contract IERC20",
							"name": "tokenOut",
							"type": "address"
						},
						{
							"internalType": "uint256",
							"name": "amount",
							"type": "uint256"
						},
						{
							"internalType": "bytes32",
							"name": "poolId",
							"type": "bytes32"
						},
						{
							"internalType": "uint256",
							"name": "lastChangeBlock",
							"type": "uint256"
						},
						{
							"internalType": "address",
							"name": "from",
							"type": "address"
						},
						{
							"internalType": "address",
							"name": "to",
							"type": "address"
						},
						{
							"internalType": "bytes",
							"name": "userData",
							"type": "bytes"
						}
					],
					"internalType": "struct IPoolSwapStructs.SwapRequest",
					"name": "request",
					"type": "tuple"
				},
				{
					"internalType": "uint256",
					"name": "balanceTokenIn",
					"type": "uint256"
				},
				{
					"internalType": "uint256",
					"name": "balanceTokenOut",
					"type": "uint256"
				}
			],
			"name": "onSwap",
			"outputs": [
				{
					"internalType": "uint256",
					"name": "",
					"type": "uint256"
				}
			],
			"stateMutability": "nonpayable",
			"type": "function"
		},
		{
			"inputs": [
				{
					"internalType": "address",
					"name": "owner",
					"type": "address"
				},
				{
					"internalType": "address",
					"name": "spender",
					"type": "address"
				},
				{
					"internalType": "uint256",
					"name": "value",
					"type": "uint256"
				},
				{
					"internalType": "uint256",
					"name": "deadline",
					"type": "uint256"
				},
				{
					"internalType": "uint8",
					"name": "v",
					"type": "uint8"
				},
				{
					"internalType": "bytes32",
					"name": "r",
					"type": "bytes32"
				},
				{
					"internalType": "bytes32",
					"name": "s",
					"type": "bytes32"
				}
			],
			"name": "permit",
			"outputs": [],
			"stateMutability": "nonpayable",
			"type": "function"
		},
		{
			"inputs": [
				{
					"internalType": "bytes32",
					"name": "poolId",
					"type": "bytes32"
				},
				{
					"internalType": "address",
					"name": "sender",
					"type": "address"
				},
				{
					"internalType": "address",
					"name": "recipient",
					"type": "address"
				},
				{
					"internalType": "uint256[]",
					"name": "balances",
					"type": "uint256[]"
				},
				{
					"internalType": "uint256",
					"name": "lastChangeBlock",
					"type": "uint256"
				},
				{
					"internalType": "uint256",
					"name": "protocolSwapFeePercentage",
					"type": "uint256"
				},
				{
					"internalType": "bytes",
					"name": "userData",
					"type": "bytes"
				}
			],
			"name": "queryExit",
			"outputs": [
				{
					"internalType": "uint256",
					"name": "bptIn",
					"type": "uint256"
				},
				{
					"internalType": "uint256[]",
					"name": "amountsOut",
					"type": "uint256[]"
				}
			],
			"stateMutability": "nonpayable",
			"type": "function"
		},
		{
			"inputs": [
				{
					"internalType": "bytes32",
					"name": "poolId",
					"type": "bytes32"
				},
				{
					"internalType": "address",
					"name": "sender",
					"type": "address"
				},
				{
					"internalType": "address",
					"name": "recipient",
					"type": "address"
				},
				{
					"internalType": "uint256[]",
					"name": "balances",
					"type": "uint256[]"
				},
				{
					"internalType": "uint256",
					"name": "lastChangeBlock",
					"type": "uint256"
				},
				{
					"internalType": "uint256",
					"name": "protocolSwapFeePercentage",
					"type": "uint256"
				},
				{
					"internalType": "bytes",
					"name": "userData",
					"type": "bytes"
				}
			],
			"name": "queryJoin",
			"outputs": [
				{
					"internalType": "uint256",
					"name": "bptOut",
					"type": "uint256"
				},
				{
					"internalType": "uint256[]",
					"name": "amountsIn",
					"type": "uint256[]"
				}
			],
			"stateMutability": "nonpayable",
			"type": "function"
		},
		{
			"inputs": [
				{
					"internalType": "contract IERC20",
					"name": "token",
					"type": "address"
				},
				{
					"internalType": "bytes",
					"name": "poolConfig",
					"type": "bytes"
				}
			],
			"name": "setAssetManagerPoolConfig",
			"outputs": [],
			"stateMutability": "nonpayable",
			"type": "function"
		},
		{
			"inputs": [
				{
					"internalType": "bool",
					"name": "paused",
					"type": "bool"
				}
			],
			"name": "setPaused",
			"outputs": [],
			"stateMutability": "nonpayable",
			"type": "function"
		},
		{
			"inputs": [
				{
					"internalType": "uint256",
					"name": "swapFeePercentage",
					"type": "uint256"
				}
			],
			"name": "setSwapFeePercentage",
			"outputs": [],
			"stateMutability": "nonpayable",
			"type": "function"
		},
		{
			"inputs": [
				{
					"internalType": "uint256",
					"name": "rawEndValue",
					"type": "uint256"
				},
				{
					"internalType": "uint256",
					"name": "endTime",
					"type": "uint256"
				}
			],
			"name": "startAmplificationParameterUpdate",
			"outputs": [],
			"stateMutability": "nonpayable",
			"type": "function"
		},
		{
			"inputs": [],
			"name": "stopAmplificationParameterUpdate",
			"outputs": [],
			"stateMutability": "nonpayable",
			"type": "function"
		},
		{
			"inputs": [],
			"name": "symbol",
			"outputs": [
				{
					"internalType": "string",
					"name": "",
					"type": "string"
				}
			],
			"stateMutability": "view",
			"type": "function"
		},
		{
			"inputs": [],
			"name": "totalSupply",
			"outputs": [
				{
					"internalType": "uint256",
					"name": "",
					"type": "uint256"
				}
			],
			"stateMutability": "view",
			"type": "function"
		},
		{
			"inputs": [
				{
					"internalType": "address",
					"name": "recipient",
					"type": "address"
				},
				{
					"internalType": "uint256",
					"name": "amount",
					"type": "uint256"
				}
			],
			"name": "transfer",
			"outputs": [
				{
					"internalType": "bool",
					"name": "",
					"type": "bool"
				}
			],
			"stateMutability": "nonpayable",
			"type": "function"
		},
		{
			"inputs": [
				{
					"internalType": "address",
					"name": "sender",
					"type": "address"
				},
				{
					"internalType": "address",
					"name": "recipient",
					"type": "address"
				},
				{
					"internalType": "uint256",
					"name": "amount",
					"type": "uint256"
				}
			],
			"name": "transferFrom",
			"outputs": [
				{
					"internalType": "bool",
					"name": "",
					"type": "bool"
				}
			],
			"stateMutability": "nonpayable",
			"type": "function"
		}
	]
}