{
	"data": {
		"bytecode": {
			"linkReferences": {},
			"object": "60c060405234801561001057600080fd5b50604051615ad3380380615ad383398101604081905261002f9161004d565b60601b6001600160601b0319166080526276a700420160a05261007b565b60006020828403121561005e578081fd5b81516001600160a01b0381168114610074578182fd5b9392505050565b60805160601c60a051615a2e6100a56000398060d652806101005250806101e15250615a2e6000f3fe60806040523480156200001157600080fd5b5060043610620000525760003560e01c80632da47c4014620000575780636634b753146200007a5780637932c7f314620000a05780638d928af814620000c6575b600080fd5b62000061620000d0565b6040516200007192919062000551565b60405180910390f35b620000916200008b366004620002d4565b6200013c565b6040516200007191906200048f565b620000b7620000b1366004620002fa565b6200015e565b6040516200007191906200047b565b620000b7620001df565b600080427f00000000000000000000000000000000000000000000000000000000000000008110156200012e57807f000000000000000000000000000000000000000000000000000000000000000003925062278d00915062000137565b60009250600091505b509091565b6001600160a01b03811660009081526020819052604090205460ff165b919050565b60008060006200016d620000d0565b9150915060006200017d620001df565b8a8a8a8a8a88888c60405162000193906200024f565b620001a7999897969594939291906200049a565b604051809103906000f080158015620001c4573d6000803e3d6000fd5b509050620001d28162000203565b9998505050505050505050565b7f000000000000000000000000000000000000000000000000000000000000000090565b6001600160a01b038116600081815260208190526040808220805460ff19166001179055517f83a48fbcfc991335314e74d0496aab6a1987e992ddc85dddbcc4d6dd6ef2e9fc9190a250565b61545b806200059e83390190565b8035620001598162000584565b600082601f8301126200027b578081fd5b813567ffffffffffffffff8111156200029057fe5b620002a5601f8201601f19166020016200055f565b818152846020838601011115620002ba578283fd5b816020850160208301379081016020019190915292915050565b600060208284031215620002e6578081fd5b8135620002f38162000584565b9392505050565b60008060008060008060c0878903121562000313578182fd5b863567ffffffffffffffff808211156200032b578384fd5b620003398a838b016200026a565b975060209150818901358181111562000350578485fd5b6200035e8b828c016200026a565b97505060408901358181111562000373578485fd5b8901601f81018b1362000384578485fd5b8035828111156200039157fe5b8381029250620003a38484016200055f565b8181528481019083860185850187018f1015620003be578889fd5b8895505b83861015620003f05780359450620003da8562000584565b84835260019590950194918601918601620003c2565b509850505050606089013594505050608087013591506200041460a088016200025d565b90509295509295509295565b6001600160a01b03169052565b60008151808452815b81811015620004545760208185018101518683018201520162000436565b81811115620004665782602083870101525b50601f01601f19169290920160200192915050565b6001600160a01b0391909116815260200190565b901515815260200190565b6001600160a01b038a81168252610120602080840182905260009290620004c48584018e6200042d565b92508483036040860152620004da838d6200042d565b85810360608701528b51808252828d01945090820190855b8181101562000512578551851683529483019491830191600101620004f2565b5050809450505050508660808301528560a08301528460c08301528360e08301526200054361010083018462000420565b9a9950505050505050505050565b918252602082015260400190565b60405181810167ffffffffffffffff811182821017156200057c57fe5b604052919050565b6001600160a01b03811681146200059a57600080fd5b5056fe6103e06040527f6e71edae12b1b97f4d1f60370fef10105fa2faae0126114a169c64845d6126c9610120523480156200003757600080fd5b506040516200545b3803806200545b8339810160408190526200005a9162000bfc565b8886516002146200006d57600062000070565b60025b8989898a516001600160401b03811180156200008b57600080fd5b50604051908082528060200260200182016040528015620000b6578160200160208202803683370190505b506040805180820190915260018152603160f81b602080830191909152336080526001600160601b031960608a901b1660a05285518c928c928c928c92859285928c928c92849283929183918691620001159160039185019062000a14565b5080516200012b90600490602084019062000a14565b50506005805460ff1916601217905550815160209283012060c052805191012060e05250507f8b73c3c69bb8fe3d512ecc4cf759cc79239f7b179b0ffacaa9a75d522b39400f61010052506200018a6276a70083111561019462000699565b6200019e62278d0082111561019562000699565b4290910161014081905201610160528551620001c0906002111560c862000699565b620001d860088751111560c96200069960201b60201c565b620001ee86620006ae60201b62000f061760201c565b620001f984620006ba565b6040516309b2760f60e01b81526000906001600160a01b038c16906309b2760f906200022a908d9060040162000d94565b602060405180830381600087803b1580156200024557600080fd5b505af11580156200025a573d6000803e3d6000fd5b505050506040513d601f19601f8201168201806040525081019062000280919062000be3565b604051633354e3e960e11b81529091506001600160a01b038c16906366a9c7d290620002b59084908b908b9060040162000cfa565b600060405180830381600087803b158015620002d057600080fd5b505af1158015620002e5573d6000803e3d6000fd5b505088516001600160601b031960608f901b16610180526101a08490526101c0819052915050806200031957600062000330565b876000815181106200032757fe5b60200260200101515b60601b6001600160601b0319166101e052600181116200035257600062000369565b876001815181106200036057fe5b60200260200101515b60601b6001600160601b03191661020052600281116200038b576000620003a2565b876002815181106200039957fe5b60200260200101515b60601b6001600160601b0319166102205260038111620003c4576000620003db565b87600381518110620003d257fe5b60200260200101515b60601b6001600160601b0319166102405260048111620003fd57600062000414565b876004815181106200040b57fe5b60200260200101515b60601b6001600160601b0319166102605260058111620004365760006200044d565b876005815181106200044457fe5b60200260200101515b60601b6001600160601b03191661028052600681116200046f57600062000486565b876006815181106200047d57fe5b60200260200101515b60601b6001600160601b0319166102a05260078111620004a8576000620004bf565b87600781518110620004b657fe5b60200260200101515b60601b6001600160601b0319166102c05280620004de57600062000504565b6200050488600081518110620004f057fe5b60200260200101516200072960201b60201c565b6102e05260018111620005195760006200052b565b6200052b88600181518110620004f057fe5b61030052600281116200054057600062000552565b6200055288600281518110620004f057fe5b61032052600381116200056757600062000579565b6200057988600381518110620004f057fe5b61034052600481116200058e576000620005a0565b620005a088600481518110620004f057fe5b6103605260058111620005b5576000620005c7565b620005c788600581518110620004f057fe5b6103805260068111620005dc576000620005ee565b620005ee88600681518110620004f057fe5b6103a052600781116200060357600062000615565b6200061588600781518110620004f057fe5b6103c05250508f516200063c9a5060051015985061012f9750506200069995505050505050565b6200064e600186101561012c62000699565b6200066161138886111561012d62000699565b60006200067c866103e8620007da60201b62000f101760201c565b9050620006898162000809565b5050505050505050505062000e07565b81620006aa57620006aa8162000848565b5050565b80620006aa816200089b565b620006cf64e8d4a5100082101560cb62000699565b620006e767016345785d8a000082111560ca62000699565b60088190556040517fa9ba3ffe0b6c366b81232caab38605a0699ad5398d6cce76f91ee809e322dafc906200071e90839062000da9565b60405180910390a150565b600080826001600160a01b031663313ce5676040518163ffffffff1660e01b815260040160206040518083038186803b1580156200076657600080fd5b505afa1580156200077b573d6000803e3d6000fd5b505050506040513d601f19601f82011682018060405250810190620007a1919062000cd7565b60ff1690506000620007c06012836200092860201b62000f341760201c565b905080600a0a670de0b6b3a764000002925050505b919050565b600082820262000802841580620007fa575083858381620007f757fe5b04145b600362000699565b9392505050565b620008178180428062000940565b7fa0d01593e47e69d07e0ccd87bece09411e07dd1ed40ca8f2e7af2976542a0233816040516200071e919062000da9565b62461bcd60e51b6000908152602060045260076024526642414c23000030600a808404818106603090810160081b95839006959095019082900491820690940160101b939093010160c81b604452606490fd5b600281511015620008ac5762000925565b600081600081518110620008bc57fe5b602002602001015190506000600190505b825181101562000922576000838281518110620008e657fe5b6020026020010151905062000917816001600160a01b0316846001600160a01b03161060656200069960201b60201c565b9150600101620008cd565b50505b50565b60006200093a83831115600162000699565b50900390565b62000961816001600160401b031660c062000a1060201b62000f4a1760201c565b62000982836001600160401b0316608062000a1060201b62000f4a1760201c565b620009a3856001600160401b0316604062000a1060201b62000f4a1760201c565b620009c4876001600160401b0316600062000a1060201b62000f4a1760201c565b1717176009556040517f1835882ee7a34ac194f717a35e09bb1d24c82a3b9d854ab6c9749525b714cdf29062000a0290869086908690869062000db2565b60405180910390a150505050565b1b90565b828054600181600116156101000203166002900490600052602060002090601f01602090048101928262000a4c576000855562000a97565b82601f1062000a6757805160ff191683800117855562000a97565b8280016001018555821562000a97579182015b8281111562000a9757825182559160200191906001019062000a7a565b5062000aa592915062000aa9565b5090565b5b8082111562000aa5576000815560010162000aaa565b8051620007d58162000df1565b600082601f83011262000ade578081fd5b815160206001600160401b0382111562000af457fe5b80820262000b0482820162000dcd565b83815282810190868401838801850189101562000b1f578687fd5b8693505b8584101562000b4e57805162000b398162000df1565b83526001939093019291840191840162000b23565b50979650505050505050565b600082601f83011262000b6b578081fd5b81516001600160401b0381111562000b7f57fe5b602062000b95601f8301601f1916820162000dcd565b828152858284870101111562000ba9578384fd5b835b8381101562000bc857858101830151828201840152820162000bab565b8381111562000bd957848385840101525b5095945050505050565b60006020828403121562000bf5578081fd5b5051919050565b60008060008060008060008060006101208a8c03121562000c1b578485fd5b62000c268a62000ac0565b60208b01519099506001600160401b038082111562000c43578687fd5b62000c518d838e0162000b5a565b995060408c015191508082111562000c67578687fd5b62000c758d838e0162000b5a565b985060608c015191508082111562000c8b578687fd5b5062000c9a8c828d0162000acd565b96505060808a0151945060a08a0151935060c08a0151925060e08a0151915062000cc86101008b0162000ac0565b90509295985092959850929598565b60006020828403121562000ce9578081fd5b815160ff8116811462000802578182fd5b60006060820185835260206060818501528186518084526080860191508288019350845b8181101562000d455784516001600160a01b03168352938301939183019160010162000d1e565b505084810360408601528551808252908201925081860190845b8181101562000d865782516001600160a01b03168552938301939183019160010162000d5f565b509298975050505050505050565b602081016003831062000da357fe5b91905290565b90815260200190565b93845260208401929092526040830152606082015260800190565b6040518181016001600160401b038111828210171562000de957fe5b604052919050565b6001600160a01b03811681146200092557600080fd5b60805160a05160601c60c05160e051610100516101205161014051610160516101805160601c6101a0516101c0516101e05160601c6102005160601c6102205160601c6102405160601c6102605160601c6102805160601c6102a05160601c6102c05160601c6102e05161030051610320516103405161036051610380516103a0516103c0516144ed62000f6e600039806111cd52806120d952508061118a528061207852508061114752806120175250806111045280611fb65250806110c15280611f5552508061107e5280611ef452508061103b5280611e93525080610fea5280611e3252508061209e52508061203d525080611fdc525080611f7b525080611f1a525080611eb9525080611e58525080611df752806129fa525080610f50525080610759525080610a8452508061143d525080611419525080610c785250806116925250806116d45250806116b3525080610a605250806109ea52506144ed6000f3fe608060405234801561001057600080fd5b50600436106102065760003560e01c80636daccffa1161011a57806395d89b41116100ad578063aaabadc51161007c578063aaabadc514610434578063d505accf1461043c578063d5c096c41461044f578063dd62ed3e14610462578063eb0f24d61461047557610206565b806395d89b41146103f35780639d2c110c146103fb578063a457c2d71461040e578063a9059cbb1461042157610206565b8063851c1bb3116100e9578063851c1bb3146103b057806387ec6817146103c3578063893d20e8146103d65780638d928af8146103eb57610206565b80636daccffa1461035257806370a082311461036957806374f3b0091461037c5780637ecebe001461039d57610206565b8063313ce5671161019d578063395093511161016c57806339509351146102fb57806350dd6ed91461030e57806355c67628146103215780636028bfd414610329578063679aefce1461034a57610206565b8063313ce567146102c35780633644e515146102d857806338e9922e146102e057806338fff2d0146102f357610206565b806318160ddd116101d957806318160ddd1461027e5780631c0de0511461028657806323b872dd1461029d5780632f1a0bc9146102b057610206565b806301ec954a1461020b57806306fdde0314610234578063095ea7b31461024957806316c38b3c14610269575b600080fd5b61021e6102193660046140ae565b61047d565b60405161022b9190614306565b60405180910390f35b61023c6104dc565b60405161022b91906143dc565b61025c610257366004613d44565b610573565b60405161022b91906142e3565b61027c610277366004613e3a565b61058a565b005b61021e61059e565b61028e6105a4565b60405161022b939291906142ee565b61025c6102ab366004613c8f565b6105cd565b61027c6102be366004614181565b610643565b6102cb610726565b60405161022b9190614439565b61021e61072f565b61027c6102ee366004614169565b61073e565b61021e610757565b61025c610309366004613d44565b61077b565b61027c61031c366004613f58565b6107b6565b61021e6107d4565b61033c610337366004613e72565b6107da565b60405161022b9291906143ef565b61021e610811565b61035a6108ee565b60405161022b93929190614408565b61021e610377366004613c3b565b610909565b61038f61038a366004613e72565b610928565b60405161022b9291906142be565b61021e6103ab366004613c3b565b6109cb565b61021e6103be366004613f14565b6109e6565b61033c6103d1366004613e72565b610a38565b6103de610a5e565b60405161022b91906142aa565b6103de610a82565b61023c610aa6565b61021e61040936600461411e565b610b07565b61025c61041c366004613d44565b610bee565b61025c61042f366004613d44565b610c2c565b6103de610c39565b61027c61044a366004613ccf565b610c43565b61038f61045d366004613e72565b610d8c565b61021e610470366004613c57565b610eaf565b61027c610eda565b6000610491838361048c610f4e565b610f72565b600061049b610f8f565b90506000865160018111156104ac57fe5b146104c3576104be868686868561120b565b6104d0565b6104d08686868685611282565b9150505b949350505050565b60038054604080516020601f60026000196101006001881615020190951694909404938401819004810282018101909252828152606093909290918301828280156105685780601f1061053d57610100808354040283529160200191610568565b820191906000526020600020905b81548152906001019060200180831161054b57829003601f168201915b505050505090505b90565b60006105803384846112e6565b5060015b92915050565b61059261134e565b61059b8161137c565b50565b60025490565b60008060006105b16113fa565b1592506105bc611417565b91506105c661143b565b9050909192565b6000806105da8533610eaf565b90506105fe336001600160a01b03871614806105f65750838210155b61019e61145f565b61060985858561146d565b336001600160a01b0386161480159061062457506000198114155b156106365761063685338584036112e6565b60019150505b9392505050565b61064b61134e565b61065b600183101561012c61145f565b61066c61138883111561012d61145f565b60006106788242610f34565b905061068c6201518082101561013d61145f565b60008061069761154d565b915091506106a8811561013e61145f565b60006106b6866103e8610f10565b905060008382116106e5576106e06106d16201518086610f10565b6106db8488610f10565b6115c1565b6106ff565b6106ff6106f56201518084610f10565b6106db8688610f10565b9050610711600282111561013f61145f565b61071d848342896115f4565b50505050505050565b60055460ff1690565b600061073961168e565b905090565b61074661134e565b61074e61172b565b61059b81611740565b7f000000000000000000000000000000000000000000000000000000000000000090565b3360008181526001602090815260408083206001600160a01b038716845290915281205490916105809185906107b1908661179e565b6112e6565b6107be61134e565b6107c661172b565b6107d082826117b0565b5050565b60085490565b600060606107f086516107eb610f4e565b6118af565b610805898989898989896118bc61195f6119c0565b97509795505050505050565b60008061081c610a82565b6001600160a01b031663f94d4668610832610757565b6040518263ffffffff1660e01b815260040161084e9190614306565b60006040518083038186803b15801561086657600080fd5b505afa15801561087a573d6000803e3d6000fd5b505050506040513d6000823e601f3d908101601f191682016040526108a29190810190613d6f565b5091505060006108b061154d565b5090506108c4826108bf610f8f565b611ae2565b60006108d282846000611b43565b90506108e66108df61059e565b8290611cdf565b935050505090565b60008060006108fb61154d565b90949093506103e892509050565b6001600160a01b0381166000908152602081905260409020545b919050565b60608088610952610937610a82565b6001600160a01b0316336001600160a01b03161460cd61145f565b61096761095d610757565b82146101f461145f565b6000610971610f8f565b905061097d8882611ae2565b60008060006109928e8e8e8e8e8e8a8f6118bc565b9250925092506109a28d84611d30565b6109ac828561195f565b6109b6818561195f565b909550935050505b5097509795505050505050565b6001600160a01b031660009081526006602052604090205490565b60007f000000000000000000000000000000000000000000000000000000000000000082604051602001610a1b929190614267565b604051602081830303815290604052805190602001209050919050565b60006060610a4986516107eb610f4e565b61080589898989898989611d3a611d926119c0565b7f000000000000000000000000000000000000000000000000000000000000000090565b7f000000000000000000000000000000000000000000000000000000000000000090565b60048054604080516020601f60026000196101006001881615020190951694909404938401819004810282018101909252828152606093909290918301828280156105685780601f1061053d57610100808354040283529160200191610568565b600080610b178560200151611df3565b90506000610b288660400151611df3565b9050600086516001811115610b3957fe5b1415610b9f57610b4c8660600151612108565b6060870152610b5b858361212c565b9450610b67848261212c565b9350610b7786606001518361212c565b60608701526000610b89878787612138565b9050610b95818361217c565b935050505061063c565b610ba9858361212c565b9450610bb5848261212c565b9350610bc586606001518261212c565b60608701526000610bd7878787612188565b9050610be381846121b7565b9050610b95816121c3565b600080610bfb3385610eaf565b9050808310610c1557610c10338560006112e6565b610c22565b610c2233858584036112e6565b5060019392505050565b600061058033848461146d565b60006107396121ec565b610c518442111560d161145f565b6001600160a01b0387166000908152600660209081526040808320549051909291610ca8917f0000000000000000000000000000000000000000000000000000000000000000918c918c918c9188918d910161432e565b6040516020818303038152906040528051906020012090506000610ccb82612266565b9050600060018288888860405160008152602001604052604051610cf294939291906143be565b6020604051602081039080840390855afa158015610d14573d6000803e3d6000fd5b5050604051601f1901519150610d5690506001600160a01b03821615801590610d4e57508b6001600160a01b0316826001600160a01b0316145b6101f861145f565b6001600160a01b038b166000908152600660205260409020600185019055610d7f8b8b8b6112e6565b5050505050505050505050565b60608088610d9b610937610a82565b610da661095d610757565b6000610db0610f8f565b9050610dba61059e565b610e5f57600080610dce8d8d8d868b612282565b91509150610de3620f424083101560cc61145f565b610df16000620f4240612311565b610e008b620f42408403612311565b610e0a8184611d92565b80610e13610f4e565b6001600160401b0381118015610e2857600080fd5b50604051908082528060200260200182016040528015610e52578160200160208202803683370190505b50955095505050506109be565b610e698882611ae2565b6000806000610e7e8e8e8e8e8e8e8a8f611d3a565b925092509250610e8e8c84612311565b610e988285611d92565b610ea2818561195f565b90955093506109be915050565b6001600160a01b03918216600090815260016020908152604080832093909416825291909152205490565b610ee261134e565b600080610eed61154d565b91509150610efd8161014061145f565b6107d08261231b565b806107d081612356565b600082820261063c841580610f2d575083858381610f2a57fe5b04145b600361145f565b6000610f4483831115600161145f565b50900390565b1b90565b7f000000000000000000000000000000000000000000000000000000000000000090565b610f8a8184108015610f8357508183105b606461145f565b505050565b60606000610f9b610f4e565b90506000816001600160401b0381118015610fb557600080fd5b50604051908082528060200260200182016040528015610fdf578160200160208202803683370190505b5090508115611027577f00000000000000000000000000000000000000000000000000000000000000008160008151811061101657fe5b602002602001018181525050611030565b91506105709050565b6001821115611027577f00000000000000000000000000000000000000000000000000000000000000008160018151811061106757fe5b6020026020010181815250506002821115611027577f0000000000000000000000000000000000000000000000000000000000000000816002815181106110aa57fe5b6020026020010181815250506003821115611027577f0000000000000000000000000000000000000000000000000000000000000000816003815181106110ed57fe5b6020026020010181815250506004821115611027577f00000000000000000000000000000000000000000000000000000000000000008160048151811061113057fe5b6020026020010181815250506005821115611027577f00000000000000000000000000000000000000000000000000000000000000008160058151811061117357fe5b6020026020010181815250506006821115611027577f0000000000000000000000000000000000000000000000000000000000000000816006815181106111b657fe5b6020026020010181815250506007821115611027577f0000000000000000000000000000000000000000000000000000000000000000816007815181106111f957fe5b60200260200101818152505091505090565b60006112178583611ae2565b611238866060015183858151811061122b57fe5b602002602001015161212c565b6060870152600061124b878787876123cf565b905061126a8184878151811061125d57fe5b60200260200101516121b7565b9050611275816121c3565b9150505b95945050505050565b60006112918660600151612108565b60608701526112a08583611ae2565b6112b4866060015183868151811061122b57fe5b606087015260006112c7878787876123f9565b9050611275818486815181106112d957fe5b602002602001015161217c565b6001600160a01b0380841660008181526001602090815260408083209487168084529490915290819020849055517f8c5be1e5ebec7d5bd14f71427d1e84f3dd0314c0f7b2291e5b200ac8c7c3b92590611341908590614306565b60405180910390a3505050565b60006113656000356001600160e01b0319166109e6565b905061059b6113748233612423565b61019161145f565b801561139c5761139761138d611417565b421061019361145f565b6113b1565b6113b16113a761143b565b42106101a961145f565b6007805460ff19168215151790556040517f9e3a5e37224532dea67b89face185703738a228a6e8a23dee546960180d3be64906113ef9083906142e3565b60405180910390a150565b600061140461143b565b42118061073957505060075460ff161590565b7f000000000000000000000000000000000000000000000000000000000000000090565b7f000000000000000000000000000000000000000000000000000000000000000090565b816107d0576107d081612513565b6114846001600160a01b038416151561019861145f565b61149b6001600160a01b038316151561019961145f565b6114a6838383610f8a565b6001600160a01b0383166000908152602081905260409020546114cc90826101a0612566565b6001600160a01b0380851660009081526020819052604080822093909355908416815220546114fb908261179e565b6001600160a01b0380841660008181526020819052604090819020939093559151908516907fddf252ad1be2c89b69c2b068fc378daa952ba7f163c4a11628f55a4df523b3ef90611341908590614306565b60008060008060008061155e61257c565b9350935093509350804210156115b157600194508383111561159557818103824203858503028161158b57fe5b04840195506115ac565b81810382420384860302816115a657fe5b04840395505b6115b9565b600094508295505b505050509091565b60006115d0821515600461145f565b826115dd57506000610584565b8160018403816115e957fe5b046001019050610584565b611608816001600160401b031660c0610f4a565b61161c836001600160401b03166080610f4a565b611630856001600160401b03166040610f4a565b611644876001600160401b03166000610f4a565b1717176009556040517f1835882ee7a34ac194f717a35e09bb1d24c82a3b9d854ab6c9749525b714cdf29061168090869086908690869061441e565b60405180910390a150505050565b60007f00000000000000000000000000000000000000000000000000000000000000007f00000000000000000000000000000000000000000000000000000000000000007f00000000000000000000000000000000000000000000000000000000000000006116fb6125d3565b30604051602001611710959493929190614362565b60405160208183030381529060405280519060200120905090565b61173e6117366113fa565b61019261145f565b565b61175364e8d4a5100082101560cb61145f565b61176967016345785d8a000082111560ca61145f565b60088190556040517fa9ba3ffe0b6c366b81232caab38605a0699ad5398d6cce76f91ee809e322dafc906113ef908390614306565b600082820161063c848210158361145f565b60006117ba610757565b905060006117c6610a82565b6001600160a01b031663b05f8e4883866040518363ffffffff1660e01b81526004016117f39291906143a7565b60806040518083038186803b15801561180b57600080fd5b505afa15801561181f573d6000803e3d6000fd5b505050506040513d601f19601f8201168201806040525081019061184391906141a2565b604051630639cdb560e21b81529094506001600160a01b03851693506318e736d4925061187791508590879060040161438e565b600060405180830381600087803b15801561189157600080fd5b505af11580156118a5573d6000803e3d6000fd5b5050505050505050565b6107d0818314606761145f565b60006060806118c96113fa565b156118ec576118d888876125d7565b90506118e78882610f346126c4565b611937565b6118f4610f4e565b6001600160401b038111801561190957600080fd5b50604051908082528060200260200182016040528015611933578160200160208202803683370190505b5090505b61194288868661272f565b9093509150611951888361279b565b985098509895505050505050565b60005b61196a610f4e565b811015610f8a576119a183828151811061198057fe5b602002602001015183838151811061199457fe5b6020026020010151611cdf565b8382815181106119ad57fe5b6020908102919091010152600101611962565b333014611a7e576000306001600160a01b03166000366040516119e492919061427f565b6000604051808303816000865af19150503d8060008114611a21576040519150601f19603f3d011682016040523d82523d6000602084013e611a26565b606091505b505090508060008114611a3557fe5b60046000803e6000516001600160e01b0319166343adbafb60e01b8114611a60573d6000803e3d6000fd5b506020600460003e604060205260243d03602460403e601c3d016000f35b6000611a88610f8f565b9050611a948782611ae2565b600080611aab8c8c8c8c8c8c898d8d63ffffffff16565b5091509150611abe81848663ffffffff16565b8051601f1982018390526343adbafb603f1983015260200260231982016044820181fd5b60005b611aed610f4e565b811015610f8a57611b24838281518110611b0357fe5b6020026020010151838381518110611b1757fe5b60200260200101516127ca565b838281518110611b3057fe5b6020908102919091010152600101611ae5565b81516000908190815b81811015611b8457611b7a868281518110611b6357fe5b60200260200101518461179e90919063ffffffff16565b9250600101611b4c565b5081611b955760009250505061063c565b600082878302825b60ff811015611cc7576000858a600081518110611bb657fe5b60200260200101510290506000600190505b86811015611c0a57611c00611bf9611bf3848e8581518110611be657fe5b6020026020010151610f10565b89610f10565b868c6127f6565b9150600101611bc8565b50839450611c7d611c4c611c33611c2a611c24878c610f10565b85610f10565b6103e88d6127f6565b611c46611c408a89610f10565b88610f10565b9061179e565b611c77611c6a611c606103e8880386610f10565b6103e88e156127f6565b611c468a60010189610f10565b8b6127f6565b935084841115611ca557600185850311611ca0578397505050505050505061063c565b611cbe565b600184860311611cbe578397505050505050505061063c565b50600101611b9d565b50611cd3610142612513565b50505050509392505050565b6000611cee821515600461145f565b82611cfb57506000610584565b670de0b6b3a764000083810290611d1e90858381611d1557fe5b0414600561145f565b828181611d2757fe5b04915050610584565b6107d08282612816565b6000606080611d4761172b565b6000611d5389886125d7565b9050611d628982610f346126c4565b600080611d708b89896128d2565b91509150611d7e8b8261292b565b909d909c50909a5098505050505050505050565b60005b611d9d610f4e565b811015610f8a57611dd4838281518110611db357fe5b6020026020010151838381518110611dc757fe5b6020026020010151612938565b838281518110611de057fe5b6020908102919091010152600101611d95565b60007f00000000000000000000000000000000000000000000000000000000000000006001600160a01b0316826001600160a01b03161415611e5657507f0000000000000000000000000000000000000000000000000000000000000000610923565b7f00000000000000000000000000000000000000000000000000000000000000006001600160a01b0316826001600160a01b03161415611eb757507f0000000000000000000000000000000000000000000000000000000000000000610923565b7f00000000000000000000000000000000000000000000000000000000000000006001600160a01b0316826001600160a01b03161415611f1857507f0000000000000000000000000000000000000000000000000000000000000000610923565b7f00000000000000000000000000000000000000000000000000000000000000006001600160a01b0316826001600160a01b03161415611f7957507f0000000000000000000000000000000000000000000000000000000000000000610923565b7f00000000000000000000000000000000000000000000000000000000000000006001600160a01b0316826001600160a01b03161415611fda57507f0000000000000000000000000000000000000000000000000000000000000000610923565b7f00000000000000000000000000000000000000000000000000000000000000006001600160a01b0316826001600160a01b0316141561203b57507f0000000000000000000000000000000000000000000000000000000000000000610923565b7f00000000000000000000000000000000000000000000000000000000000000006001600160a01b0316826001600160a01b0316141561209c57507f0000000000000000000000000000000000000000000000000000000000000000610923565b7f00000000000000000000000000000000000000000000000000000000000000006001600160a01b0316826001600160a01b031614156120fd57507f0000000000000000000000000000000000000000000000000000000000000000610923565b610923610135612513565b6000806121206008548461298690919063ffffffff16565b905061063c8382610f34565b600061063c83836127ca565b600061214f612145610f4e565b60021460d261145f565b600080600061215f8787876129c2565b925092509250612171878484846123f9565b979650505050505050565b600061063c8383611cdf565b6000612195612145610f4e565b60008060006121a58787876129c2565b925092509250612171878484846123cf565b600061063c8383612938565b60006105846121e5600854670de0b6b3a7640000610f3490919063ffffffff16565b8390612938565b60006121f6610a82565b6001600160a01b031663aaabadc56040518163ffffffff1660e01b815260040160206040518083038186803b15801561222e57600080fd5b505afa158015612242573d6000803e3d6000fd5b505050506040513d601f19601f820116820180604052508101906107399190613f3c565b600061227061168e565b82604051602001610a1b92919061428f565b6000606061228e61172b565b600061229984612aaf565b90506122b460008260028111156122ac57fe5b1460ce61145f565b60006122bf85612ac5565b90506122ce81516107eb610f4e565b6122d88187611ae2565b60006122e261154d565b50905060006122f382846001611b43565b9050806123008184612adb565b9b929a509198505050505050505050565b6107d08282612ae6565b612327818242426115f4565b7fa0d01593e47e69d07e0ccd87bece09411e07dd1ed40ca8f2e7af2976542a0233816040516113ef9190614306565b6002815110156123655761059b565b60008160008151811061237457fe5b602002602001015190506000600190505b8251811015610f8a57600083828151811061239c57fe5b602002602001015190506123c5816001600160a01b0316846001600160a01b031610606561145f565b9150600101612385565b60006123d961172b565b60006123e361154d565b5090506000612171828787878b60600151612b74565b600061240361172b565b600061240d61154d565b5090506000612171828787878b60600151612c38565b600073ba1ba1ba1ba1ba1ba1ba1ba1ba1ba1ba1ba1ba1b612442610a5e565b6001600160a01b03161415801561245d575061245d83612ce0565b156124855761246a610a5e565b6001600160a01b0316336001600160a01b0316149050610584565b61248d6121ec565b6001600160a01b0316639be2a8848484306040518463ffffffff1660e01b81526004016124bc9392919061430f565b60206040518083038186803b1580156124d457600080fd5b505afa1580156124e8573d6000803e3d6000fd5b505050506040513d601f19601f8201168201806040525081019061250c9190613e56565b9050610584565b62461bcd60e51b6000908152602060045260076024526642414c23000030600a808404818106603090810160081b95839006959095019082900491820690940160101b939093010160c81b604452606490fd5b6000612575848411158361145f565b5050900390565b6000806000806125986000600954612d1c90919063ffffffff16565b6009549094506125a9906040612d1c565b6009549093506125ba906080612d1c565b6009549092506125cb9060c0612d1c565b905090919293565b4690565b606060006125e3610f4e565b6001600160401b03811180156125f857600080fd5b50604051908082528060200260200182016040528015612622578160200160208202803683370190505b50905082612631579050610584565b6000808560008151811061264157fe5b602002602001015190506000600190505b61265a610f4e565b81101561269157600087828151811061266f57fe5b6020026020010151905082811115612688578193508092505b50600101612652565b506126a3600b5487600a548589612d29565b8383815181106126af57fe5b60209081029190910101525090949350505050565b60005b6126cf610f4e565b8110156127295761270a8482815181106126e557fe5b60200260200101518483815181106126f957fe5b60200260200101518463ffffffff16565b84828151811061271657fe5b60209081029190910101526001016126c7565b50505050565b60006060600061273e84612aaf565b9050600081600281111561274e57fe5b14156127685761275e8685612d9d565b9250925050612793565b600181600281111561277657fe5b14156127865761275e8685612e62565b61275e868686612e94565b505b935093915050565b6127a88282610f346126c4565b60006127b261154d565b509050610f8a6127c482856001611b43565b82612adb565b60008282026127e4841580610f2d575083858381610f2a57fe5b670de0b6b3a764000090049392505050565b60008161280c576128078484612f0a565b6104d4565b6104d484846115c1565b61282d6001600160a01b038316151561019b61145f565b61283982600083610f8a565b6001600160a01b03821660009081526020819052604090205461285f90826101a1612566565b6001600160a01b0383166000908152602081905260409020556002546128859082612f2a565b6002556040516000906001600160a01b038416907fddf252ad1be2c89b69c2b068fc378daa952ba7f163c4a11628f55a4df523b3ef906128c6908590614306565b60405180910390a35050565b6000606060006128e184612aaf565b905060018160028111156128f157fe5b14156129025761275e868686612f38565b600281600281111561291057fe5b14156129205761275e8685612f9d565b612791610136612513565b6127a8828261179e6126c4565b6000612947821515600461145f565b8261295457506000610584565b670de0b6b3a76400008381029061296e90858381611d1557fe5b82600182038161297a57fe5b04600101915050610584565b60008282026129a0841580610f2d575083858381610f2a57fe5b806129af576000915050610584565b670de0b6b3a7640000600019820161297a565b6040805160028082526060828101909352600091829181602001602082028036833701905050925085602001516001600160a01b03167f00000000000000000000000000000000000000000000000000000000000000006001600160a01b03161415612a695760009150600190508483600081518110612a3e57fe5b6020026020010181815250508383600181518110612a5857fe5b602002602001018181525050612aa6565b60009050600191508383600081518110612a7f57fe5b6020026020010181815250508483600181518110612a9957fe5b6020026020010181815250505b93509350939050565b6000818060200190518101906105849190613fa5565b60608180602001905181019061063c919061406a565b600a91909155600b55565b612af260008383610f8a565b600254612aff908261179e565b6002556001600160a01b038216600090815260208190526040902054612b25908261179e565b6001600160a01b0383166000818152602081905260408082209390935591519091907fddf252ad1be2c89b69c2b068fc378daa952ba7f163c4a11628f55a4df523b3ef906128c6908590614306565b600080612b8387876001611b43565b9050612bab83878681518110612b9557fe5b6020026020010151610f3490919063ffffffff16565b868581518110612bb757fe5b6020026020010181815250506000612bd18888848961302c565b905083878681518110612be057fe5b602002602001015101878681518110612bf557fe5b602002602001018181525050612c2c6001611c46898981518110612c1557fe5b602002602001015184610f3490919063ffffffff16565b98975050505050505050565b600080612c4787876001611b43565b9050612c6f83878781518110612c5957fe5b602002602001015161179e90919063ffffffff16565b868681518110612c7b57fe5b6020026020010181815250506000612c958888848861302c565b905083878781518110612ca457fe5b602002602001015103878781518110612cb957fe5b602002602001018181525050612c2c6001612cda838a8981518110612b9557fe5b90610f34565b6000612cf2632f1a0bc960e01b6109e6565b821480612d0d5750612d0a637587926b60e11b6109e6565b82145b806105845750610584826131dc565b1c6001600160401b031690565b600080612d388787878761302c565b905080868581518110612d4757fe5b602002602001015111612d5e576000915050611279565b600081878681518110612d6d57fe5b6020026020010151039050612c2c670de0b6b3a7640000612d9786846127ca90919063ffffffff16565b90611cdf565b60006060612da961172b565b600080612db58561320e565b91509150612dcd612dc4610f4e565b8210606461145f565b6000612dd7610f4e565b6001600160401b0381118015612dec57600080fd5b50604051908082528060200260200182016040528015612e16578160200160208202803683370190505b5090506000612e2361154d565b509050612e3d81898587612e3561059e565b600854613230565b828481518110612e4957fe5b6020908102919091010152509196919550909350505050565b600060606000612e718461334c565b90506000612e878683612e8261059e565b613362565b9196919550909350505050565b60006060612ea061172b565b600080612eac85613413565b91509150612ebd82516107eb610f4e565b612ec78287611ae2565b6000612ed161154d565b5090506000612eec828a86612ee461059e565b60085461342b565b9050612efc8382111560cf61145f565b989297509195505050505050565b6000612f19821515600461145f565b818381612f2257fe5b049392505050565b600061063c83836001612566565b60006060600080612f4885613413565b91509150612f5e612f57610f4e565b83516118af565b612f688287611ae2565b6000612f7261154d565b5090506000612f8d828a86612f8561059e565b6008546136bf565b9050612efc8382101560d061145f565b60006060600080612fad8561320e565b91509150612fbc612dc4610f4e565b6000612fc6610f4e565b6001600160401b0381118015612fdb57600080fd5b50604051908082528060200260200182016040528015613005578160200160208202803683370190505b509050600061301261154d565b509050612e3d8189858761302461059e565b600854613935565b60008084518602905060008560008151811061304457fe5b60200260200101519050600086518760008151811061305f57fe5b60200260200101510290506000600190505b87518110156130b85761309d613097613090848b8581518110611be657fe5b8a51610f10565b88612f0a565b91506130ae888281518110611b6357fe5b9250600101613071565b508685815181106130c557fe5b60200260200101518203915060006130dd8788610f10565b905060006131096130fd6130f5846106db8988610f10565b6103e8610f10565b8a8981518110611be657fe5b9050600061312461311d6130f58b89612f0a565b869061179e565b9050600080613140613136868661179e565b6106db8d8661179e565b905060005b60ff8110156131c05781925061317561316286611c468586610f10565b6106db8e612cda88611c46886002610f10565b91508282111561319e57600183830311613199575097506104d49650505050505050565b6131b8565b6001828403116131b8575097506104d49650505050505050565b600101613145565b506131cc610142612513565b5050505050505050949350505050565b60006131ee631c74c91760e11b6109e6565b82148061058457506132066350dd6ed960e01b6109e6565b909114919050565b600080828060200190518101906132259190614034565b909590945092505050565b60008061323f88886001611b43565b905060006132618261325b87613255818b610f34565b90612938565b90612986565b905060006132718a8a848b61302c565b90506000613285828b8b81518110612b9557fe5b90506000805b8b518110156132c4576132ba8c82815181106132a357fe5b60200260200101518361179e90919063ffffffff16565b915060010161328b565b5060006132ed828d8d815181106132d757fe5b6020026020010151611cdf90919063ffffffff16565b905060006132fa82613a12565b905060006133088583612986565b905060006133168683610f34565b905061333761333083670de0b6b3a76400008e90036127ca565b829061179e565b99505050505050505050509695505050505050565b60008180602001905181019061063c9190614007565b606060006133708484611cdf565b9050600085516001600160401b038111801561338b57600080fd5b506040519080825280602002602001820160405280156133b5578160200160208202803683370190505b50905060005b8651811015613409576133ea838883815181106133d457fe5b60200260200101516127ca90919063ffffffff16565b8282815181106133f657fe5b60209081029190910101526001016133bb565b5095945050505050565b60606000828060200190518101906132259190613fc1565b600080805b8651811015613452576134488782815181106132a357fe5b9150600101613430565b50600085516001600160401b038111801561346c57600080fd5b50604051908082528060200260200182016040528015613496578160200160208202803683370190505b5090506000805b885181101561355d5760006134ce858b84815181106134b857fe5b602002602001015161293890919063ffffffff16565b905061350a8a83815181106134df57fe5b60200260200101516132558b85815181106134f657fe5b60200260200101518d8681518110612b9557fe5b84838151811061351657fe5b60200260200101818152505061355261354b8286858151811061353557fe5b602002602001015161298690919063ffffffff16565b849061179e565b92505060010161349d565b50600088516001600160401b038111801561357757600080fd5b506040519080825280602002602001820160405280156135a1578160200160208202803683370190505b50905060005b895181101561366c5760008482815181106135be57fe5b60200260200101518411156136255760006135e76135db86613a12565b8d85815181106133d457fe5b905060006135fb828d8681518110612b9557fe5b905061361c61361582670de0b6b3a76400008d9003612938565b839061179e565b9250505061363c565b89828151811061363157fe5b602002602001015190505b61364c818c8481518110612b9557fe5b83838151811061365857fe5b6020908102919091010152506001016135a7565b50600061367b8b8b6001611b43565b9050600061368b8c846000611b43565b905060006136998284611cdf565b90506136ae6136a782613a12565b8b90612986565b9d9c50505050505050505050505050565b600080805b86518110156136e6576136dc8782815181106132a357fe5b91506001016136c4565b50600085516001600160401b038111801561370057600080fd5b5060405190808252806020026020018201604052801561372a578160200160208202803683370190505b5090506000805b88518110156137be57600061374c858b84815181106132d757fe5b90506137888a838151811061375d57fe5b6020026020010151612d978b858151811061377457fe5b60200260200101518d8681518110612c5957fe5b84838151811061379457fe5b6020026020010181815250506137b361354b828685815181106133d457fe5b925050600101613731565b50600088516001600160401b03811180156137d857600080fd5b50604051908082528060200260200182016040528015613802578160200160208202803683370190505b50905060005b89518110156138c35760008385838151811061382057fe5b6020026020010151111561387c5760006138456135db86670de0b6b3a7640000610f34565b90506000613859828d8681518110612b9557fe5b905061387361361582670de0b6b3a76400008d90036127ca565b92505050613893565b89828151811061388857fe5b602002602001015190505b6138a3818c8481518110612c5957fe5b8383815181106138af57fe5b602090810291909101015250600101613808565b5060006138d28b8b6001611b43565b905060006138e28c846000611b43565b905060006138f08284611cdf565b9050670de0b6b3a7640000811115613925576139178a670de0b6b3a763ffff1983016127ca565b975050505050505050611279565b6000975050505050505050611279565b60008061394488886001611b43565b9050600061395a8261325b87613255818b61179e565b9050600061396a8a8a848b61302c565b905060006139948a8a8151811061397d57fe5b602002602001015183610f3490919063ffffffff16565b90506000805b8b518110156139bc576139b28c82815181106132a357fe5b915060010161399a565b5060006139cf828d8d815181106132d757fe5b905060006139dc82613a12565b905060006139ea8583612986565b905060006139f88683610f34565b905061333761333083670de0b6b3a76400008e9003612938565b6000670de0b6b3a76400008210613a2a576000610584565b50670de0b6b3a76400000390565b803561092381614487565b600082601f830112613a53578081fd5b81356020613a68613a638361446a565b614447565b8281528181019085830183850287018401881015613a84578586fd5b855b85811015613aa257813584529284019290840190600101613a86565b5090979650505050505050565b600082601f830112613abf578081fd5b81516020613acf613a638361446a565b8281528181019085830183850287018401881015613aeb578586fd5b855b85811015613aa257815184529284019290840190600101613aed565b600082601f830112613b19578081fd5b81356001600160401b03811115613b2c57fe5b613b3f601f8201601f1916602001614447565b818152846020838601011115613b53578283fd5b816020850160208301379081016020019190915292915050565b80356002811061092357600080fd5b6000610120808385031215613b8f578182fd5b613b9881614447565b915050613ba482613b6d565b8152613bb260208301613a38565b6020820152613bc360408301613a38565b6040820152606082013560608201526080820135608082015260a082013560a0820152613bf260c08301613a38565b60c0820152613c0360e08301613a38565b60e0820152610100808301356001600160401b03811115613c2357600080fd5b613c2f85828601613b09565b82840152505092915050565b600060208284031215613c4c578081fd5b813561063c81614487565b60008060408385031215613c69578081fd5b8235613c7481614487565b91506020830135613c8481614487565b809150509250929050565b600080600060608486031215613ca3578081fd5b8335613cae81614487565b92506020840135613cbe81614487565b929592945050506040919091013590565b600080600080600080600060e0888a031215613ce9578485fd5b8735613cf481614487565b96506020880135613d0481614487565b95506040880135945060608801359350608088013560ff81168114613d27578384fd5b9699959850939692959460a0840135945060c09093013592915050565b60008060408385031215613d56578182fd5b8235613d6181614487565b946020939093013593505050565b600080600060608486031215613d83578081fd5b83516001600160401b0380821115613d99578283fd5b818601915086601f830112613dac578283fd5b81516020613dbc613a638361446a565b82815281810190858301838502870184018c1015613dd8578788fd5b8796505b84871015613e03578051613def81614487565b835260019690960195918301918301613ddc565b5091890151919750909350505080821115613e1c578283fd5b50613e2986828701613aaf565b925050604084015190509250925092565b600060208284031215613e4b578081fd5b813561063c8161449c565b600060208284031215613e67578081fd5b815161063c8161449c565b600080600080600080600060e0888a031215613e8c578081fd5b873596506020880135613e9e81614487565b95506040880135613eae81614487565b945060608801356001600160401b0380821115613ec9578283fd5b613ed58b838c01613a43565b955060808a0135945060a08a0135935060c08a0135915080821115613ef8578283fd5b50613f058a828b01613b09565b91505092959891949750929550565b600060208284031215613f25578081fd5b81356001600160e01b03198116811461063c578182fd5b600060208284031215613f4d578081fd5b815161063c81614487565b60008060408385031215613f6a578182fd5b8235613f7581614487565b915060208301356001600160401b03811115613f8f578182fd5b613f9b85828601613b09565b9150509250929050565b600060208284031215613fb6578081fd5b815161063c816144aa565b600080600060608486031215613fd5578081fd5b8351613fe0816144aa565b60208501519093506001600160401b03811115613ffb578182fd5b613e2986828701613aaf565b60008060408385031215614019578182fd5b8251614024816144aa565b6020939093015192949293505050565b600080600060608486031215614048578081fd5b8351614053816144aa565b602085015160409095015190969495509392505050565b6000806040838503121561407c578182fd5b8251614087816144aa565b60208401519092506001600160401b038111156140a2578182fd5b613f9b85828601613aaf565b600080600080608085870312156140c3578182fd5b84356001600160401b03808211156140d9578384fd5b6140e588838901613b7c565b955060208701359150808211156140fa578384fd5b5061410787828801613a43565b949794965050505060408301359260600135919050565b600080600060608486031215614132578081fd5b83356001600160401b03811115614147578182fd5b61415386828701613b7c565b9660208601359650604090950135949350505050565b60006020828403121561417a578081fd5b5035919050565b60008060408385031215614193578182fd5b50508035926020909101359150565b600080600080608085870312156141b7578182fd5b84519350602085015192506040850151915060608501516141d781614487565b939692955090935050565b6000815180845260208085019450808401835b83811015614211578151875295820195908201906001016141f5565b509495945050505050565b60008151808452815b8181101561424157602081850181015186830182015201614225565b818111156142525782602083870101525b50601f01601f19169290920160200192915050565b9182526001600160e01b031916602082015260240190565b6000828483379101908152919050565b61190160f01b81526002810192909252602282015260420190565b6001600160a01b0391909116815260200190565b6000604082526142d160408301856141e2565b828103602084015261127981856141e2565b901515815260200190565b92151583526020830191909152604082015260600190565b90815260200190565b9283526001600160a01b03918216602084015216604082015260600190565b9586526001600160a01b0394851660208701529290931660408501526060840152608083019190915260a082015260c00190565b9485526020850193909352604084019190915260608301526001600160a01b0316608082015260a00190565b6000838252604060208301526104d4604083018461421c565b9182526001600160a01b0316602082015260400190565b93845260ff9290921660208401526040830152606082015260800190565b60006020825261063c602083018461421c565b6000838252604060208301526104d460408301846141e2565b9283529015156020830152604082015260600190565b93845260208401929092526040830152606082015260800190565b60ff91909116815260200190565b6040518181016001600160401b038111828210171561446257fe5b604052919050565b60006001600160401b0382111561447d57fe5b5060209081020190565b6001600160a01b038116811461059b57600080fd5b801515811461059b57600080fd5b6003811061059b57600080fdfea26469706673582212204d99e32441a801d4918ccdcd5dc3575922103180b969dcd6d0081d55fd9a32dd64736f6c63430007060033a2646970667358221220a6a58463ab2918cc9de891bdb01ceab6888d958f847cb4ca2181c9a350d5071064736f6c63430007060033",
			"opcodes": "PUSH1 0xC0 PUSH1 0x40 MSTORE CALLVALUE DUP1 ISZERO PUSH2 0x10 JUMPI PUSH1 0x0 DUP1 REVERT JUMPDEST POP PUSH1 0x40 MLOAD PUSH2 0x5AD3 CODESIZE SUB DUP1 PUSH2 0x5AD3 DUP4 CODECOPY DUP2 ADD PUSH1 0x40 DUP2 SWAP1 MSTORE PUSH2 0x2F SWAP2 PUSH2 0x4D JUMP JUMPDEST PUSH1 0x60 SHL PUSH1 0x1 PUSH1 0x1 PUSH1 0x60 SHL SUB NOT AND PUSH1 0x80 MSTORE PUSH3 0x76A700 TIMESTAMP ADD PUSH1 0xA0 MSTORE PUSH2 0x7B JUMP JUMPDEST PUSH1 0x0 PUSH1 0x20 DUP3 DUP5 SUB SLT ISZERO PUSH2 0x5E JUMPI DUP1 DUP2 REVERT JUMPDEST DUP2 MLOAD PUSH1 0x1 PUSH1 0x1 PUSH1 0xA0 SHL SUB DUP2 AND DUP2 EQ PUSH2 0x74 JUMPI DUP2 DUP3 REVERT JUMPDEST SWAP4 SWAP3 POP POP POP JUMP JUMPDEST PUSH1 0x80 MLOAD PUSH1 0x60 SHR PUSH1 0xA0 MLOAD PUSH2 0x5A2E PUSH2 0xA5 PUSH1 0x0 CODECOPY DUP1 PUSH1 0xD6 MSTORE DUP1 PUSH2 0x100 MSTORE POP DUP1 PUSH2 0x1E1 MSTORE POP PUSH2 0x5A2E PUSH1 0x0 RETURN INVALID PUSH1 0x80 PUSH1 0x40 MSTORE CALLVALUE DUP1 ISZERO PUSH3 0x11 JUMPI PUSH1 0x0 DUP1 REVERT JUMPDEST POP PUSH1 0x4 CALLDATASIZE LT PUSH3 0x52 JUMPI PUSH1 0x0 CALLDATALOAD PUSH1 0xE0 SHR DUP1 PUSH4 0x2DA47C40 EQ PUSH3 0x57 JUMPI DUP1 PUSH4 0x6634B753 EQ PUSH3 0x7A JUMPI DUP1 PUSH4 0x7932C7F3 EQ PUSH3 0xA0 JUMPI DUP1 PUSH4 0x8D928AF8 EQ PUSH3 0xC6 JUMPI JUMPDEST PUSH1 0x0 DUP1 REVERT JUMPDEST PUSH3 0x61 PUSH3 0xD0 JUMP JUMPDEST PUSH1 0x40 MLOAD PUSH3 0x71 SWAP3 SWAP2 SWAP1 PUSH3 0x551 JUMP JUMPDEST PUSH1 0x40 MLOAD DUP1 SWAP2 SUB SWAP1 RETURN JUMPDEST PUSH3 0x91 PUSH3 0x8B CALLDATASIZE PUSH1 0x4 PUSH3 0x2D4 JUMP JUMPDEST PUSH3 0x13C JUMP JUMPDEST PUSH1 0x40 MLOAD PUSH3 0x71 SWAP2 SWAP1 PUSH3 0x48F JUMP JUMPDEST PUSH3 0xB7 PUSH3 0xB1 CALLDATASIZE PUSH1 0x4 PUSH3 0x2FA JUMP JUMPDEST PUSH3 0x15E JUMP JUMPDEST PUSH1 0x40 MLOAD PUSH3 0x71 SWAP2 SWAP1 PUSH3 0x47B JUMP JUMPDEST PUSH3 0xB7 PUSH3 0x1DF JUMP JUMPDEST PUSH1 0x0 DUP1 TIMESTAMP PUSH32 0x0 DUP2 LT ISZERO PUSH3 0x12E JUMPI DUP1 PUSH32 0x0 SUB SWAP3 POP PUSH3 0x278D00 SWAP2 POP PUSH3 0x137 JUMP JUMPDEST PUSH1 0x0 SWAP3 POP PUSH1 0x0 SWAP2 POP JUMPDEST POP SWAP1 SWAP2 JUMP JUMPDEST PUSH1 0x1 PUSH1 0x1 PUSH1 0xA0 SHL SUB DUP2 AND PUSH1 0x0 SWAP1 DUP2 MSTORE PUSH1 0x20 DUP2 SWAP1 MSTORE PUSH1 0x40 SWAP1 KECCAK256 SLOAD PUSH1 0xFF AND JUMPDEST SWAP2 SWAP1 POP JUMP JUMPDEST PUSH1 0x0 DUP1 PUSH1 0x0 PUSH3 0x16D PUSH3 0xD0 JUMP JUMPDEST SWAP2 POP SWAP2 POP PUSH1 0x0 PUSH3 0x17D PUSH3 0x1DF JUMP JUMPDEST DUP11 DUP11 DUP11 DUP11 DUP11 DUP9 DUP9 DUP13 PUSH1 0x40 MLOAD PUSH3 0x193 SWAP1 PUSH3 0x24F JUMP JUMPDEST PUSH3 0x1A7 SWAP10 SWAP9 SWAP8 SWAP7 SWAP6 SWAP5 SWAP4 SWAP3 SWAP2 SWAP1 PUSH3 0x49A JUMP JUMPDEST PUSH1 0x40 MLOAD DUP1 SWAP2 SUB SWAP1 PUSH1 0x0 CREATE DUP1 ISZERO DUP1 ISZERO PUSH3 0x1C4 JUMPI RETURNDATASIZE PUSH1 0x0 DUP1 RETURNDATACOPY RETURNDATASIZE PUSH1 0x0 REVERT JUMPDEST POP SWAP1 POP PUSH3 0x1D2 DUP2 PUSH3 0x203 JUMP JUMPDEST SWAP10 SWAP9 POP POP POP POP POP POP POP POP POP JUMP JUMPDEST PUSH32 0x0 SWAP1 JUMP JUMPDEST PUSH1 0x1 PUSH1 0x1 PUSH1 0xA0 SHL SUB DUP2 AND PUSH1 0x0 DUP2 DUP2 MSTORE PUSH1 0x20 DUP2 SWAP1 MSTORE PUSH1 0x40 DUP1 DUP3 KECCAK256 DUP1 SLOAD PUSH1 0xFF NOT AND PUSH1 0x1 OR SWAP1 SSTORE MLOAD PUSH32 0x83A48FBCFC991335314E74D0496AAB6A1987E992DDC85DDDBCC4D6DD6EF2E9FC SWAP2 SWAP1 LOG2 POP JUMP JUMPDEST PUSH2 0x545B DUP1 PUSH3 0x59E DUP4 CODECOPY ADD SWAP1 JUMP JUMPDEST DUP1 CALLDATALOAD PUSH3 0x159 DUP2 PUSH3 0x584 JUMP JUMPDEST PUSH1 0x0 DUP3 PUSH1 0x1F DUP4 ADD SLT PUSH3 0x27B JUMPI DUP1 DUP2 REVERT JUMPDEST DUP2 CALLDATALOAD PUSH8 0xFFFFFFFFFFFFFFFF DUP2 GT ISZERO PUSH3 0x290 JUMPI INVALID JUMPDEST PUSH3 0x2A5 PUSH1 0x1F DUP3 ADD PUSH1 0x1F NOT AND PUSH1 0x20 ADD PUSH3 0x55F JUMP JUMPDEST DUP2 DUP2 MSTORE DUP5 PUSH1 0x20 DUP4 DUP7 ADD ADD GT ISZERO PUSH3 0x2BA JUMPI DUP3 DUP4 REVERT JUMPDEST DUP2 PUSH1 0x20 DUP6 ADD PUSH1 0x20 DUP4 ADD CALLDATACOPY SWAP1 DUP2 ADD PUSH1 0x20 ADD SWAP2 SWAP1 SWAP2 MSTORE SWAP3 SWAP2 POP POP JUMP JUMPDEST PUSH1 0x0 PUSH1 0x20 DUP3 DUP5 SUB SLT ISZERO PUSH3 0x2E6 JUMPI DUP1 DUP2 REVERT JUMPDEST DUP2 CALLDATALOAD PUSH3 0x2F3 DUP2 PUSH3 0x584 JUMP JUMPDEST SWAP4 SWAP3 POP POP POP JUMP JUMPDEST PUSH1 0x0 DUP1 PUSH1 0x0 DUP1 PUSH1 0x0 DUP1 PUSH1 0xC0 DUP8 DUP10 SUB SLT ISZERO PUSH3 0x313 JUMPI DUP2 DUP3 REVERT JUMPDEST DUP7 CALLDATALOAD PUSH8 0xFFFFFFFFFFFFFFFF DUP1 DUP3 GT ISZERO PUSH3 0x32B JUMPI DUP4 DUP5 REVERT JUMPDEST PUSH3 0x339 DUP11 DUP4 DUP12 ADD PUSH3 0x26A JUMP JUMPDEST SWAP8 POP PUSH1 0x20 SWAP2 POP DUP2 DUP10 ADD CALLDATALOAD DUP2 DUP2 GT ISZERO PUSH3 0x350 JUMPI DUP5 DUP6 REVERT JUMPDEST PUSH3 0x35E DUP12 DUP3 DUP13 ADD PUSH3 0x26A JUMP JUMPDEST SWAP8 POP POP PUSH1 0x40 DUP10 ADD CALLDATALOAD DUP2 DUP2 GT ISZERO PUSH3 0x373 JUMPI DUP5 DUP6 REVERT JUMPDEST DUP10 ADD PUSH1 0x1F DUP2 ADD DUP12 SGT PUSH3 0x384 JUMPI DUP5 DUP6 REVERT JUMPDEST DUP1 CALLDATALOAD DUP3 DUP2 GT ISZERO PUSH3 0x391 JUMPI INVALID JUMPDEST DUP4 DUP2 MUL SWAP3 POP PUSH3 0x3A3 DUP5 DUP5 ADD PUSH3 0x55F JUMP JUMPDEST DUP2 DUP2 MSTORE DUP5 DUP2 ADD SWAP1 DUP4 DUP7 ADD DUP6 DUP6 ADD DUP8 ADD DUP16 LT ISZERO PUSH3 0x3BE JUMPI DUP9 DUP10 REVERT JUMPDEST DUP9 SWAP6 POP JUMPDEST DUP4 DUP7 LT ISZERO PUSH3 0x3F0 JUMPI DUP1 CALLDATALOAD SWAP5 POP PUSH3 0x3DA DUP6 PUSH3 0x584 JUMP JUMPDEST DUP5 DUP4 MSTORE PUSH1 0x1 SWAP6 SWAP1 SWAP6 ADD SWAP5 SWAP2 DUP7 ADD SWAP2 DUP7 ADD PUSH3 0x3C2 JUMP JUMPDEST POP SWAP9 POP POP POP POP PUSH1 0x60 DUP10 ADD CALLDATALOAD SWAP5 POP POP POP PUSH1 0x80 DUP8 ADD CALLDATALOAD SWAP2 POP PUSH3 0x414 PUSH1 0xA0 DUP9 ADD PUSH3 0x25D JUMP JUMPDEST SWAP1 POP SWAP3 SWAP6 POP SWAP3 SWAP6 POP SWAP3 SWAP6 JUMP JUMPDEST PUSH1 0x1 PUSH1 0x1 PUSH1 0xA0 SHL SUB AND SWAP1 MSTORE JUMP JUMPDEST PUSH1 0x0 DUP2 MLOAD DUP1 DUP5 MSTORE DUP2 JUMPDEST DUP2 DUP2 LT ISZERO PUSH3 0x454 JUMPI PUSH1 0x20 DUP2 DUP6 ADD DUP2 ADD MLOAD DUP7 DUP4 ADD DUP3 ADD MSTORE ADD PUSH3 0x436 JUMP JUMPDEST DUP2 DUP2 GT ISZERO PUSH3 0x466 JUMPI DUP3 PUSH1 0x20 DUP4 DUP8 ADD ADD MSTORE JUMPDEST POP PUSH1 0x1F ADD PUSH1 0x1F NOT AND SWAP3 SWAP1 SWAP3 ADD PUSH1 0x20 ADD SWAP3 SWAP2 POP POP JUMP JUMPDEST PUSH1 0x1 PUSH1 0x1 PUSH1 0xA0 SHL SUB SWAP2 SWAP1 SWAP2 AND DUP2 MSTORE PUSH1 0x20 ADD SWAP1 JUMP JUMPDEST SWAP1 ISZERO ISZERO DUP2 MSTORE PUSH1 0x20 ADD SWAP1 JUMP JUMPDEST PUSH1 0x1 PUSH1 0x1 PUSH1 0xA0 SHL SUB DUP11 DUP2 AND DUP3 MSTORE PUSH2 0x120 PUSH1 0x20 DUP1 DUP5 ADD DUP3 SWAP1 MSTORE PUSH1 0x0 SWAP3 SWAP1 PUSH3 0x4C4 DUP6 DUP5 ADD DUP15 PUSH3 0x42D JUMP JUMPDEST SWAP3 POP DUP5 DUP4 SUB PUSH1 0x40 DUP7 ADD MSTORE PUSH3 0x4DA DUP4 DUP14 PUSH3 0x42D JUMP JUMPDEST DUP6 DUP2 SUB PUSH1 0x60 DUP8 ADD MSTORE DUP12 MLOAD DUP1 DUP3 MSTORE DUP3 DUP14 ADD SWAP5 POP SWAP1 DUP3 ADD SWAP1 DUP6 JUMPDEST DUP2 DUP2 LT ISZERO PUSH3 0x512 JUMPI DUP6 MLOAD DUP6 AND DUP4 MSTORE SWAP5 DUP4 ADD SWAP5 SWAP2 DUP4 ADD SWAP2 PUSH1 0x1 ADD PUSH3 0x4F2 JUMP JUMPDEST POP POP DUP1 SWAP5 POP POP POP POP POP DUP7 PUSH1 0x80 DUP4 ADD MSTORE DUP6 PUSH1 0xA0 DUP4 ADD MSTORE DUP5 PUSH1 0xC0 DUP4 ADD MSTORE DUP4 PUSH1 0xE0 DUP4 ADD MSTORE PUSH3 0x543 PUSH2 0x100 DUP4 ADD DUP5 PUSH3 0x420 JUMP JUMPDEST SWAP11 SWAP10 POP POP POP POP POP POP POP POP POP POP JUMP JUMPDEST SWAP2 DUP3 MSTORE PUSH1 0x20 DUP3 ADD MSTORE PUSH1 0x40 ADD SWAP1 JUMP JUMPDEST PUSH1 0x40 MLOAD DUP2 DUP2 ADD PUSH8 0xFFFFFFFFFFFFFFFF DUP2 GT DUP3 DUP3 LT OR ISZERO PUSH3 0x57C JUMPI INVALID JUMPDEST PUSH1 0x40 MSTORE SWAP2 SWAP1 POP JUMP JUMPDEST PUSH1 0x1 PUSH1 0x1 PUSH1 0xA0 SHL SUB DUP2 AND DUP2 EQ PUSH3 0x59A JUMPI PUSH1 0x0 DUP1 REVERT JUMPDEST POP JUMP INVALID PUSH2 0x3E0 PUSH1 0x40 MSTORE PUSH32 0x6E71EDAE12B1B97F4D1F60370FEF10105FA2FAAE0126114A169C64845D6126C9 PUSH2 0x120 MSTORE CALLVALUE DUP1 ISZERO PUSH3 0x37 JUMPI PUSH1 0x0 DUP1 REVERT JUMPDEST POP PUSH1 0x40 MLOAD PUSH3 0x545B CODESIZE SUB DUP1 PUSH3 0x545B DUP4 CODECOPY DUP2 ADD PUSH1 0x40 DUP2 SWAP1 MSTORE PUSH3 0x5A SWAP2 PUSH3 0xBFC JUMP JUMPDEST DUP9 DUP7 MLOAD PUSH1 0x2 EQ PUSH3 0x6D JUMPI PUSH1 0x0 PUSH3 0x70 JUMP JUMPDEST PUSH1 0x2 JUMPDEST DUP10 DUP10 DUP10 DUP11 MLOAD PUSH1 0x1 PUSH1 0x1 PUSH1 0x40 SHL SUB DUP2 GT DUP1 ISZERO PUSH3 0x8B JUMPI PUSH1 0x0 DUP1 REVERT JUMPDEST POP PUSH1 0x40 MLOAD SWAP1 DUP1 DUP3 MSTORE DUP1 PUSH1 0x20 MUL PUSH1 0x20 ADD DUP3 ADD PUSH1 0x40 MSTORE DUP1 ISZERO PUSH3 0xB6 JUMPI DUP2 PUSH1 0x20 ADD PUSH1 0x20 DUP3 MUL DUP1 CALLDATASIZE DUP4 CALLDATACOPY ADD SWAP1 POP JUMPDEST POP PUSH1 0x40 DUP1 MLOAD DUP1 DUP3 ADD SWAP1 SWAP2 MSTORE PUSH1 0x1 DUP2 MSTORE PUSH1 0x31 PUSH1 0xF8 SHL PUSH1 0x20 DUP1 DUP4 ADD SWAP2 SWAP1 SWAP2 MSTORE CALLER PUSH1 0x80 MSTORE PUSH1 0x1 PUSH1 0x1 PUSH1 0x60 SHL SUB NOT PUSH1 0x60 DUP11 SWAP1 SHL AND PUSH1 0xA0 MSTORE DUP6 MLOAD DUP13 SWAP3 DUP13 SWAP3 DUP13 SWAP3 DUP13 SWAP3 DUP6 SWAP3 DUP6 SWAP3 DUP13 SWAP3 DUP13 SWAP3 DUP5 SWAP3 DUP4 SWAP3 SWAP2 DUP4 SWAP2 DUP7 SWAP2 PUSH3 0x115 SWAP2 PUSH1 0x3 SWAP2 DUP6 ADD SWAP1 PUSH3 0xA14 JUMP JUMPDEST POP DUP1 MLOAD PUSH3 0x12B SWAP1 PUSH1 0x4 SWAP1 PUSH1 0x20 DUP5 ADD SWAP1 PUSH3 0xA14 JUMP JUMPDEST POP POP PUSH1 0x5 DUP1 SLOAD PUSH1 0xFF NOT AND PUSH1 0x12 OR SWAP1 SSTORE POP DUP2 MLOAD PUSH1 0x20 SWAP3 DUP4 ADD KECCAK256 PUSH1 0xC0 MSTORE DUP1 MLOAD SWAP2 ADD KECCAK256 PUSH1 0xE0 MSTORE POP POP PUSH32 0x8B73C3C69BB8FE3D512ECC4CF759CC79239F7B179B0FFACAA9A75D522B39400F PUSH2 0x100 MSTORE POP PUSH3 0x18A PUSH3 0x76A700 DUP4 GT ISZERO PUSH2 0x194 PUSH3 0x699 JUMP JUMPDEST PUSH3 0x19E PUSH3 0x278D00 DUP3 GT ISZERO PUSH2 0x195 PUSH3 0x699 JUMP JUMPDEST TIMESTAMP SWAP1 SWAP2 ADD PUSH2 0x140 DUP2 SWAP1 MSTORE ADD PUSH2 0x160 MSTORE DUP6 MLOAD PUSH3 0x1C0 SWAP1 PUSH1 0x2 GT ISZERO PUSH1 0xC8 PUSH3 0x699 JUMP JUMPDEST PUSH3 0x1D8 PUSH1 0x8 DUP8 MLOAD GT ISZERO PUSH1 0xC9 PUSH3 0x699 PUSH1 0x20 SHL PUSH1 0x20 SHR JUMP JUMPDEST PUSH3 0x1EE DUP7 PUSH3 0x6AE PUSH1 0x20 SHL PUSH3 0xF06 OR PUSH1 0x20 SHR JUMP JUMPDEST PUSH3 0x1F9 DUP5 PUSH3 0x6BA JUMP JUMPDEST PUSH1 0x40 MLOAD PUSH4 0x9B2760F PUSH1 0xE0 SHL DUP2 MSTORE PUSH1 0x0 SWAP1 PUSH1 0x1 PUSH1 0x1 PUSH1 0xA0 SHL SUB DUP13 AND SWAP1 PUSH4 0x9B2760F SWAP1 PUSH3 0x22A SWAP1 DUP14 SWAP1 PUSH1 0x4 ADD PUSH3 0xD94 JUMP JUMPDEST PUSH1 0x20 PUSH1 0x40 MLOAD DUP1 DUP4 SUB DUP2 PUSH1 0x0 DUP8 DUP1 EXTCODESIZE ISZERO DUP1 ISZERO PUSH3 0x245 JUMPI PUSH1 0x0 DUP1 REVERT JUMPDEST POP GAS CALL ISZERO DUP1 ISZERO PUSH3 0x25A JUMPI RETURNDATASIZE PUSH1 0x0 DUP1 RETURNDATACOPY RETURNDATASIZE PUSH1 0x0 REVERT JUMPDEST POP POP POP POP PUSH1 0x40 MLOAD RETURNDATASIZE PUSH1 0x1F NOT PUSH1 0x1F DUP3 ADD AND DUP3 ADD DUP1 PUSH1 0x40 MSTORE POP DUP2 ADD SWAP1 PUSH3 0x280 SWAP2 SWAP1 PUSH3 0xBE3 JUMP JUMPDEST PUSH1 0x40 MLOAD PUSH4 0x3354E3E9 PUSH1 0xE1 SHL DUP2 MSTORE SWAP1 SWAP2 POP PUSH1 0x1 PUSH1 0x1 PUSH1 0xA0 SHL SUB DUP13 AND SWAP1 PUSH4 0x66A9C7D2 SWAP1 PUSH3 0x2B5 SWAP1 DUP5 SWAP1 DUP12 SWAP1 DUP12 SWAP1 PUSH1 0x4 ADD PUSH3 0xCFA JUMP JUMPDEST PUSH1 0x0 PUSH1 0x40 MLOAD DUP1 DUP4 SUB DUP2 PUSH1 0x0 DUP8 DUP1 EXTCODESIZE ISZERO DUP1 ISZERO PUSH3 0x2D0 JUMPI PUSH1 0x0 DUP1 REVERT JUMPDEST POP GAS CALL ISZERO DUP1 ISZERO PUSH3 0x2E5 JUMPI RETURNDATASIZE PUSH1 0x0 DUP1 RETURNDATACOPY RETURNDATASIZE PUSH1 0x0 REVERT JUMPDEST POP POP DUP9 MLOAD PUSH1 0x1 PUSH1 0x1 PUSH1 0x60 SHL SUB NOT PUSH1 0x60 DUP16 SWAP1 SHL AND PUSH2 0x180 MSTORE PUSH2 0x1A0 DUP5 SWAP1 MSTORE PUSH2 0x1C0 DUP2 SWAP1 MSTORE SWAP2 POP POP DUP1 PUSH3 0x319 JUMPI PUSH1 0x0 PUSH3 0x330 JUMP JUMPDEST DUP8 PUSH1 0x0 DUP2 MLOAD DUP2 LT PUSH3 0x327 JUMPI INVALID JUMPDEST PUSH1 0x20 MUL PUSH1 0x20 ADD ADD MLOAD JUMPDEST PUSH1 0x60 SHL PUSH1 0x1 PUSH1 0x1 PUSH1 0x60 SHL SUB NOT AND PUSH2 0x1E0 MSTORE PUSH1 0x1 DUP2 GT PUSH3 0x352 JUMPI PUSH1 0x0 PUSH3 0x369 JUMP JUMPDEST DUP8 PUSH1 0x1 DUP2 MLOAD DUP2 LT PUSH3 0x360 JUMPI INVALID JUMPDEST PUSH1 0x20 MUL PUSH1 0x20 ADD ADD MLOAD JUMPDEST PUSH1 0x60 SHL PUSH1 0x1 PUSH1 0x1 PUSH1 0x60 SHL SUB NOT AND PUSH2 0x200 MSTORE PUSH1 0x2 DUP2 GT PUSH3 0x38B JUMPI PUSH1 0x0 PUSH3 0x3A2 JUMP JUMPDEST DUP8 PUSH1 0x2 DUP2 MLOAD DUP2 LT PUSH3 0x399 JUMPI INVALID JUMPDEST PUSH1 0x20 MUL PUSH1 0x20 ADD ADD MLOAD JUMPDEST PUSH1 0x60 SHL PUSH1 0x1 PUSH1 0x1 PUSH1 0x60 SHL SUB NOT AND PUSH2 0x220 MSTORE PUSH1 0x3 DUP2 GT PUSH3 0x3C4 JUMPI PUSH1 0x0 PUSH3 0x3DB JUMP JUMPDEST DUP8 PUSH1 0x3 DUP2 MLOAD DUP2 LT PUSH3 0x3D2 JUMPI INVALID JUMPDEST PUSH1 0x20 MUL PUSH1 0x20 ADD ADD MLOAD JUMPDEST PUSH1 0x60 SHL PUSH1 0x1 PUSH1 0x1 PUSH1 0x60 SHL SUB NOT AND PUSH2 0x240 MSTORE PUSH1 0x4 DUP2 GT PUSH3 0x3FD JUMPI PUSH1 0x0 PUSH3 0x414 JUMP JUMPDEST DUP8 PUSH1 0x4 DUP2 MLOAD DUP2 LT PUSH3 0x40B JUMPI INVALID JUMPDEST PUSH1 0x20 MUL PUSH1 0x20 ADD ADD MLOAD JUMPDEST PUSH1 0x60 SHL PUSH1 0x1 PUSH1 0x1 PUSH1 0x60 SHL SUB NOT AND PUSH2 0x260 MSTORE PUSH1 0x5 DUP2 GT PUSH3 0x436 JUMPI PUSH1 0x0 PUSH3 0x44D JUMP JUMPDEST DUP8 PUSH1 0x5 DUP2 MLOAD DUP2 LT PUSH3 0x444 JUMPI INVALID JUMPDEST PUSH1 0x20 MUL PUSH1 0x20 ADD ADD MLOAD JUMPDEST PUSH1 0x60 SHL PUSH1 0x1 PUSH1 0x1 PUSH1 0x60 SHL SUB NOT AND PUSH2 0x280 MSTORE PUSH1 0x6 DUP2 GT PUSH3 0x46F JUMPI PUSH1 0x0 PUSH3 0x486 JUMP JUMPDEST DUP8 PUSH1 0x6 DUP2 MLOAD DUP2 LT PUSH3 0x47D JUMPI INVALID JUMPDEST PUSH1 0x20 MUL PUSH1 0x20 ADD ADD MLOAD JUMPDEST PUSH1 0x60 SHL PUSH1 0x1 PUSH1 0x1 PUSH1 0x60 SHL SUB NOT AND PUSH2 0x2A0 MSTORE PUSH1 0x7 DUP2 GT PUSH3 0x4A8 JUMPI PUSH1 0x0 PUSH3 0x4BF JUMP JUMPDEST DUP8 PUSH1 0x7 DUP2 MLOAD DUP2 LT PUSH3 0x4B6 JUMPI INVALID JUMPDEST PUSH1 0x20 MUL PUSH1 0x20 ADD ADD MLOAD JUMPDEST PUSH1 0x60 SHL PUSH1 0x1 PUSH1 0x1 PUSH1 0x60 SHL SUB NOT AND PUSH2 0x2C0 MSTORE DUP1 PUSH3 0x4DE JUMPI PUSH1 0x0 PUSH3 0x504 JUMP JUMPDEST PUSH3 0x504 DUP9 PUSH1 0x0 DUP2 MLOAD DUP2 LT PUSH3 0x4F0 JUMPI INVALID JUMPDEST PUSH1 0x20 MUL PUSH1 0x20 ADD ADD MLOAD PUSH3 0x729 PUSH1 0x20 SHL PUSH1 0x20 SHR JUMP JUMPDEST PUSH2 0x2E0 MSTORE PUSH1 0x1 DUP2 GT PUSH3 0x519 JUMPI PUSH1 0x0 PUSH3 0x52B JUMP JUMPDEST PUSH3 0x52B DUP9 PUSH1 0x1 DUP2 MLOAD DUP2 LT PUSH3 0x4F0 JUMPI INVALID JUMPDEST PUSH2 0x300 MSTORE PUSH1 0x2 DUP2 GT PUSH3 0x540 JUMPI PUSH1 0x0 PUSH3 0x552 JUMP JUMPDEST PUSH3 0x552 DUP9 PUSH1 0x2 DUP2 MLOAD DUP2 LT PUSH3 0x4F0 JUMPI INVALID JUMPDEST PUSH2 0x320 MSTORE PUSH1 0x3 DUP2 GT PUSH3 0x567 JUMPI PUSH1 0x0 PUSH3 0x579 JUMP JUMPDEST PUSH3 0x579 DUP9 PUSH1 0x3 DUP2 MLOAD DUP2 LT PUSH3 0x4F0 JUMPI INVALID JUMPDEST PUSH2 0x340 MSTORE PUSH1 0x4 DUP2 GT PUSH3 0x58E JUMPI PUSH1 0x0 PUSH3 0x5A0 JUMP JUMPDEST PUSH3 0x5A0 DUP9 PUSH1 0x4 DUP2 MLOAD DUP2 LT PUSH3 0x4F0 JUMPI INVALID JUMPDEST PUSH2 0x360 MSTORE PUSH1 0x5 DUP2 GT PUSH3 0x5B5 JUMPI PUSH1 0x0 PUSH3 0x5C7 JUMP JUMPDEST PUSH3 0x5C7 DUP9 PUSH1 0x5 DUP2 MLOAD DUP2 LT PUSH3 0x4F0 JUMPI INVALID JUMPDEST PUSH2 0x380 MSTORE PUSH1 0x6 DUP2 GT PUSH3 0x5DC JUMPI PUSH1 0x0 PUSH3 0x5EE JUMP JUMPDEST PUSH3 0x5EE DUP9 PUSH1 0x6 DUP2 MLOAD DUP2 LT PUSH3 0x4F0 JUMPI INVALID JUMPDEST PUSH2 0x3A0 MSTORE PUSH1 0x7 DUP2 GT PUSH3 0x603 JUMPI PUSH1 0x0 PUSH3 0x615 JUMP JUMPDEST PUSH3 0x615 DUP9 PUSH1 0x7 DUP2 MLOAD DUP2 LT PUSH3 0x4F0 JUMPI INVALID JUMPDEST PUSH2 0x3C0 MSTORE POP POP DUP16 MLOAD PUSH3 0x63C SWAP11 POP PUSH1 0x5 LT ISZERO SWAP9 POP PUSH2 0x12F SWAP8 POP POP PUSH3 0x699 SWAP6 POP POP POP POP POP POP JUMP JUMPDEST PUSH3 0x64E PUSH1 0x1 DUP7 LT ISZERO PUSH2 0x12C PUSH3 0x699 JUMP JUMPDEST PUSH3 0x661 PUSH2 0x1388 DUP7 GT ISZERO PUSH2 0x12D PUSH3 0x699 JUMP JUMPDEST PUSH1 0x0 PUSH3 0x67C DUP7 PUSH2 0x3E8 PUSH3 0x7DA PUSH1 0x20 SHL PUSH3 0xF10 OR PUSH1 0x20 SHR JUMP JUMPDEST SWAP1 POP PUSH3 0x689 DUP2 PUSH3 0x809 JUMP JUMPDEST POP POP POP POP POP POP POP POP POP POP PUSH3 0xE07 JUMP JUMPDEST DUP2 PUSH3 0x6AA JUMPI PUSH3 0x6AA DUP2 PUSH3 0x848 JUMP JUMPDEST POP POP JUMP JUMPDEST DUP1 PUSH3 0x6AA DUP2 PUSH3 0x89B JUMP JUMPDEST PUSH3 0x6CF PUSH5 0xE8D4A51000 DUP3 LT ISZERO PUSH1 0xCB PUSH3 0x699 JUMP JUMPDEST PUSH3 0x6E7 PUSH8 0x16345785D8A0000 DUP3 GT ISZERO PUSH1 0xCA PUSH3 0x699 JUMP JUMPDEST PUSH1 0x8 DUP2 SWAP1 SSTORE PUSH1 0x40 MLOAD PUSH32 0xA9BA3FFE0B6C366B81232CAAB38605A0699AD5398D6CCE76F91EE809E322DAFC SWAP1 PUSH3 0x71E SWAP1 DUP4 SWAP1 PUSH3 0xDA9 JUMP JUMPDEST PUSH1 0x40 MLOAD DUP1 SWAP2 SUB SWAP1 LOG1 POP JUMP JUMPDEST PUSH1 0x0 DUP1 DUP3 PUSH1 0x1 PUSH1 0x1 PUSH1 0xA0 SHL SUB AND PUSH4 0x313CE567 PUSH1 0x40 MLOAD DUP2 PUSH4 0xFFFFFFFF AND PUSH1 0xE0 SHL DUP2 MSTORE PUSH1 0x4 ADD PUSH1 0x20 PUSH1 0x40 MLOAD DUP1 DUP4 SUB DUP2 DUP7 DUP1 EXTCODESIZE ISZERO DUP1 ISZERO PUSH3 0x766 JUMPI PUSH1 0x0 DUP1 REVERT JUMPDEST POP GAS STATICCALL ISZERO DUP1 ISZERO PUSH3 0x77B JUMPI RETURNDATASIZE PUSH1 0x0 DUP1 RETURNDATACOPY RETURNDATASIZE PUSH1 0x0 REVERT JUMPDEST POP POP POP POP PUSH1 0x40 MLOAD RETURNDATASIZE PUSH1 0x1F NOT PUSH1 0x1F DUP3 ADD AND DUP3 ADD DUP1 PUSH1 0x40 MSTORE POP DUP2 ADD SWAP1 PUSH3 0x7A1 SWAP2 SWAP1 PUSH3 0xCD7 JUMP JUMPDEST PUSH1 0xFF AND SWAP1 POP PUSH1 0x0 PUSH3 0x7C0 PUSH1 0x12 DUP4 PUSH3 0x928 PUSH1 0x20 SHL PUSH3 0xF34 OR PUSH1 0x20 SHR JUMP JUMPDEST SWAP1 POP DUP1 PUSH1 0xA EXP PUSH8 0xDE0B6B3A7640000 MUL SWAP3 POP POP POP JUMPDEST SWAP2 SWAP1 POP JUMP JUMPDEST PUSH1 0x0 DUP3 DUP3 MUL PUSH3 0x802 DUP5 ISZERO DUP1 PUSH3 0x7FA JUMPI POP DUP4 DUP6 DUP4 DUP2 PUSH3 0x7F7 JUMPI INVALID JUMPDEST DIV EQ JUMPDEST PUSH1 0x3 PUSH3 0x699 JUMP JUMPDEST SWAP4 SWAP3 POP POP POP JUMP JUMPDEST PUSH3 0x817 DUP2 DUP1 TIMESTAMP DUP1 PUSH3 0x940 JUMP JUMPDEST PUSH32 0xA0D01593E47E69D07E0CCD87BECE09411E07DD1ED40CA8F2E7AF2976542A0233 DUP2 PUSH1 0x40 MLOAD PUSH3 0x71E SWAP2 SWAP1 PUSH3 0xDA9 JUMP JUMPDEST PUSH3 0x461BCD PUSH1 0xE5 SHL PUSH1 0x0 SWAP1 DUP2 MSTORE PUSH1 0x20 PUSH1 0x4 MSTORE PUSH1 0x7 PUSH1 0x24 MSTORE PUSH7 0x42414C23000030 PUSH1 0xA DUP1 DUP5 DIV DUP2 DUP2 MOD PUSH1 0x30 SWAP1 DUP2 ADD PUSH1 0x8 SHL SWAP6 DUP4 SWAP1 MOD SWAP6 SWAP1 SWAP6 ADD SWAP1 DUP3 SWAP1 DIV SWAP2 DUP3 MOD SWAP1 SWAP5 ADD PUSH1 0x10 SHL SWAP4 SWAP1 SWAP4 ADD ADD PUSH1 0xC8 SHL PUSH1 0x44 MSTORE PUSH1 0x64 SWAP1 REVERT JUMPDEST PUSH1 0x2 DUP2 MLOAD LT ISZERO PUSH3 0x8AC JUMPI PUSH3 0x925 JUMP JUMPDEST PUSH1 0x0 DUP2 PUSH1 0x0 DUP2 MLOAD DUP2 LT PUSH3 0x8BC JUMPI INVALID JUMPDEST PUSH1 0x20 MUL PUSH1 0x20 ADD ADD MLOAD SWAP1 POP PUSH1 0x0 PUSH1 0x1 SWAP1 POP JUMPDEST DUP3 MLOAD DUP2 LT ISZERO PUSH3 0x922 JUMPI PUSH1 0x0 DUP4 DUP3 DUP2 MLOAD DUP2 LT PUSH3 0x8E6 JUMPI INVALID JUMPDEST PUSH1 0x20 MUL PUSH1 0x20 ADD ADD MLOAD SWAP1 POP PUSH3 0x917 DUP2 PUSH1 0x1 PUSH1 0x1 PUSH1 0xA0 SHL SUB AND DUP5 PUSH1 0x1 PUSH1 0x1 PUSH1 0xA0 SHL SUB AND LT PUSH1 0x65 PUSH3 0x699 PUSH1 0x20 SHL PUSH1 0x20 SHR JUMP JUMPDEST SWAP2 POP PUSH1 0x1 ADD PUSH3 0x8CD JUMP JUMPDEST POP POP JUMPDEST POP JUMP JUMPDEST PUSH1 0x0 PUSH3 0x93A DUP4 DUP4 GT ISZERO PUSH1 0x1 PUSH3 0x699 JUMP JUMPDEST POP SWAP1 SUB SWAP1 JUMP JUMPDEST PUSH3 0x961 DUP2 PUSH1 0x1 PUSH1 0x1 PUSH1 0x40 SHL SUB AND PUSH1 0xC0 PUSH3 0xA10 PUSH1 0x20 SHL PUSH3 0xF4A OR PUSH1 0x20 SHR JUMP JUMPDEST PUSH3 0x982 DUP4 PUSH1 0x1 PUSH1 0x1 PUSH1 0x40 SHL SUB AND PUSH1 0x80 PUSH3 0xA10 PUSH1 0x20 SHL PUSH3 0xF4A OR PUSH1 0x20 SHR JUMP JUMPDEST PUSH3 0x9A3 DUP6 PUSH1 0x1 PUSH1 0x1 PUSH1 0x40 SHL SUB AND PUSH1 0x40 PUSH3 0xA10 PUSH1 0x20 SHL PUSH3 0xF4A OR PUSH1 0x20 SHR JUMP JUMPDEST PUSH3 0x9C4 DUP8 PUSH1 0x1 PUSH1 0x1 PUSH1 0x40 SHL SUB AND PUSH1 0x0 PUSH3 0xA10 PUSH1 0x20 SHL PUSH3 0xF4A OR PUSH1 0x20 SHR JUMP JUMPDEST OR OR OR PUSH1 0x9 SSTORE PUSH1 0x40 MLOAD PUSH32 0x1835882EE7A34AC194F717A35E09BB1D24C82A3B9D854AB6C9749525B714CDF2 SWAP1 PUSH3 0xA02 SWAP1 DUP7 SWAP1 DUP7 SWAP1 DUP7 SWAP1 DUP7 SWAP1 PUSH3 0xDB2 JUMP JUMPDEST PUSH1 0x40 MLOAD DUP1 SWAP2 SUB SWAP1 LOG1 POP POP POP POP JUMP JUMPDEST SHL SWAP1 JUMP JUMPDEST DUP3 DUP1 SLOAD PUSH1 0x1 DUP2 PUSH1 0x1 AND ISZERO PUSH2 0x100 MUL SUB AND PUSH1 0x2 SWAP1 DIV SWAP1 PUSH1 0x0 MSTORE PUSH1 0x20 PUSH1 0x0 KECCAK256 SWAP1 PUSH1 0x1F ADD PUSH1 0x20 SWAP1 DIV DUP2 ADD SWAP3 DUP3 PUSH3 0xA4C JUMPI PUSH1 0x0 DUP6 SSTORE PUSH3 0xA97 JUMP JUMPDEST DUP3 PUSH1 0x1F LT PUSH3 0xA67 JUMPI DUP1 MLOAD PUSH1 0xFF NOT AND DUP4 DUP1 ADD OR DUP6 SSTORE PUSH3 0xA97 JUMP JUMPDEST DUP3 DUP1 ADD PUSH1 0x1 ADD DUP6 SSTORE DUP3 ISZERO PUSH3 0xA97 JUMPI SWAP2 DUP3 ADD JUMPDEST DUP3 DUP2 GT ISZERO PUSH3 0xA97 JUMPI DUP3 MLOAD DUP3 SSTORE SWAP2 PUSH1 0x20 ADD SWAP2 SWAP1 PUSH1 0x1 ADD SWAP1 PUSH3 0xA7A JUMP JUMPDEST POP PUSH3 0xAA5 SWAP3 SWAP2 POP PUSH3 0xAA9 JUMP JUMPDEST POP SWAP1 JUMP JUMPDEST JUMPDEST DUP1 DUP3 GT ISZERO PUSH3 0xAA5 JUMPI PUSH1 0x0 DUP2 SSTORE PUSH1 0x1 ADD PUSH3 0xAAA JUMP JUMPDEST DUP1 MLOAD PUSH3 0x7D5 DUP2 PUSH3 0xDF1 JUMP JUMPDEST PUSH1 0x0 DUP3 PUSH1 0x1F DUP4 ADD SLT PUSH3 0xADE JUMPI DUP1 DUP2 REVERT JUMPDEST DUP2 MLOAD PUSH1 0x20 PUSH1 0x1 PUSH1 0x1 PUSH1 0x40 SHL SUB DUP3 GT ISZERO PUSH3 0xAF4 JUMPI INVALID JUMPDEST DUP1 DUP3 MUL PUSH3 0xB04 DUP3 DUP3 ADD PUSH3 0xDCD JUMP JUMPDEST DUP4 DUP2 MSTORE DUP3 DUP2 ADD SWAP1 DUP7 DUP5 ADD DUP4 DUP9 ADD DUP6 ADD DUP10 LT ISZERO PUSH3 0xB1F JUMPI DUP7 DUP8 REVERT JUMPDEST DUP7 SWAP4 POP JUMPDEST DUP6 DUP5 LT ISZERO PUSH3 0xB4E JUMPI DUP1 MLOAD PUSH3 0xB39 DUP2 PUSH3 0xDF1 JUMP JUMPDEST DUP4 MSTORE PUSH1 0x1 SWAP4 SWAP1 SWAP4 ADD SWAP3 SWAP2 DUP5 ADD SWAP2 DUP5 ADD PUSH3 0xB23 JUMP JUMPDEST POP SWAP8 SWAP7 POP POP POP POP POP POP POP JUMP JUMPDEST PUSH1 0x0 DUP3 PUSH1 0x1F DUP4 ADD SLT PUSH3 0xB6B JUMPI DUP1 DUP2 REVERT JUMPDEST DUP2 MLOAD PUSH1 0x1 PUSH1 0x1 PUSH1 0x40 SHL SUB DUP2 GT ISZERO PUSH3 0xB7F JUMPI INVALID JUMPDEST PUSH1 0x20 PUSH3 0xB95 PUSH1 0x1F DUP4 ADD PUSH1 0x1F NOT AND DUP3 ADD PUSH3 0xDCD JUMP JUMPDEST DUP3 DUP2 MSTORE DUP6 DUP3 DUP5 DUP8 ADD ADD GT ISZERO PUSH3 0xBA9 JUMPI DUP4 DUP5 REVERT JUMPDEST DUP4 JUMPDEST DUP4 DUP2 LT ISZERO PUSH3 0xBC8 JUMPI DUP6 DUP2 ADD DUP4 ADD MLOAD DUP3 DUP3 ADD DUP5 ADD MSTORE DUP3 ADD PUSH3 0xBAB JUMP JUMPDEST DUP4 DUP2 GT ISZERO PUSH3 0xBD9 JUMPI DUP5 DUP4 DUP6 DUP5 ADD ADD MSTORE JUMPDEST POP SWAP6 SWAP5 POP POP POP POP POP JUMP JUMPDEST PUSH1 0x0 PUSH1 0x20 DUP3 DUP5 SUB SLT ISZERO PUSH3 0xBF5 JUMPI DUP1 DUP2 REVERT JUMPDEST POP MLOAD SWAP2 SWAP1 POP JUMP JUMPDEST PUSH1 0x0 DUP1 PUSH1 0x0 DUP1 PUSH1 0x0 DUP1 PUSH1 0x0 DUP1 PUSH1 0x0 PUSH2 0x120 DUP11 DUP13 SUB SLT ISZERO PUSH3 0xC1B JUMPI DUP5 DUP6 REVERT JUMPDEST PUSH3 0xC26 DUP11 PUSH3 0xAC0 JUMP JUMPDEST PUSH1 0x20 DUP12 ADD MLOAD SWAP1 SWAP10 POP PUSH1 0x1 PUSH1 0x1 PUSH1 0x40 SHL SUB DUP1 DUP3 GT ISZERO PUSH3 0xC43 JUMPI DUP7 DUP8 REVERT JUMPDEST PUSH3 0xC51 DUP14 DUP4 DUP15 ADD PUSH3 0xB5A JUMP JUMPDEST SWAP10 POP PUSH1 0x40 DUP13 ADD MLOAD SWAP2 POP DUP1 DUP3 GT ISZERO PUSH3 0xC67 JUMPI DUP7 DUP8 REVERT JUMPDEST PUSH3 0xC75 DUP14 DUP4 DUP15 ADD PUSH3 0xB5A JUMP JUMPDEST SWAP9 POP PUSH1 0x60 DUP13 ADD MLOAD SWAP2 POP DUP1 DUP3 GT ISZERO PUSH3 0xC8B JUMPI DUP7 DUP8 REVERT JUMPDEST POP PUSH3 0xC9A DUP13 DUP3 DUP14 ADD PUSH3 0xACD JUMP JUMPDEST SWAP7 POP POP PUSH1 0x80 DUP11 ADD MLOAD SWAP5 POP PUSH1 0xA0 DUP11 ADD MLOAD SWAP4 POP PUSH1 0xC0 DUP11 ADD MLOAD SWAP3 POP PUSH1 0xE0 DUP11 ADD MLOAD SWAP2 POP PUSH3 0xCC8 PUSH2 0x100 DUP12 ADD PUSH3 0xAC0 JUMP JUMPDEST SWAP1 POP SWAP3 SWAP6 SWAP9 POP SWAP3 SWAP6 SWAP9 POP SWAP3 SWAP6 SWAP9 JUMP JUMPDEST PUSH1 0x0 PUSH1 0x20 DUP3 DUP5 SUB SLT ISZERO PUSH3 0xCE9 JUMPI DUP1 DUP2 REVERT JUMPDEST DUP2 MLOAD PUSH1 0xFF DUP2 AND DUP2 EQ PUSH3 0x802 JUMPI DUP2 DUP3 REVERT JUMPDEST PUSH1 0x0 PUSH1 0x60 DUP3 ADD DUP6 DUP4 MSTORE PUSH1 0x20 PUSH1 0x60 DUP2 DUP6 ADD MSTORE DUP2 DUP7 MLOAD DUP1 DUP5 MSTORE PUSH1 0x80 DUP7 ADD SWAP2 POP DUP3 DUP9 ADD SWAP4 POP DUP5 JUMPDEST DUP2 DUP2 LT ISZERO PUSH3 0xD45 JUMPI DUP5 MLOAD PUSH1 0x1 PUSH1 0x1 PUSH1 0xA0 SHL SUB AND DUP4 MSTORE SWAP4 DUP4 ADD SWAP4 SWAP2 DUP4 ADD SWAP2 PUSH1 0x1 ADD PUSH3 0xD1E JUMP JUMPDEST POP POP DUP5 DUP2 SUB PUSH1 0x40 DUP7 ADD MSTORE DUP6 MLOAD DUP1 DUP3 MSTORE SWAP1 DUP3 ADD SWAP3 POP DUP2 DUP7 ADD SWAP1 DUP5 JUMPDEST DUP2 DUP2 LT ISZERO PUSH3 0xD86 JUMPI DUP3 MLOAD PUSH1 0x1 PUSH1 0x1 PUSH1 0xA0 SHL SUB AND DUP6 MSTORE SWAP4 DUP4 ADD SWAP4 SWAP2 DUP4 ADD SWAP2 PUSH1 0x1 ADD PUSH3 0xD5F JUMP JUMPDEST POP SWAP3 SWAP9 SWAP8 POP POP POP POP POP POP POP POP JUMP JUMPDEST PUSH1 0x20 DUP2 ADD PUSH1 0x3 DUP4 LT PUSH3 0xDA3 JUMPI INVALID JUMPDEST SWAP2 SWAP1 MSTORE SWAP1 JUMP JUMPDEST SWAP1 DUP2 MSTORE PUSH1 0x20 ADD SWAP1 JUMP JUMPDEST SWAP4 DUP5 MSTORE PUSH1 0x20 DUP5 ADD SWAP3 SWAP1 SWAP3 MSTORE PUSH1 0x40 DUP4 ADD MSTORE PUSH1 0x60 DUP3 ADD MSTORE PUSH1 0x80 ADD SWAP1 JUMP JUMPDEST PUSH1 0x40 MLOAD DUP2 DUP2 ADD PUSH1 0x1 PUSH1 0x1 PUSH1 0x40 SHL SUB DUP2 GT DUP3 DUP3 LT OR ISZERO PUSH3 0xDE9 JUMPI INVALID JUMPDEST PUSH1 0x40 MSTORE SWAP2 SWAP1 POP JUMP JUMPDEST PUSH1 0x1 PUSH1 0x1 PUSH1 0xA0 SHL SUB DUP2 AND DUP2 EQ PUSH3 0x925 JUMPI PUSH1 0x0 DUP1 REVERT JUMPDEST PUSH1 0x80 MLOAD PUSH1 0xA0 MLOAD PUSH1 0x60 SHR PUSH1 0xC0 MLOAD PUSH1 0xE0 MLOAD PUSH2 0x100 MLOAD PUSH2 0x120 MLOAD PUSH2 0x140 MLOAD PUSH2 0x160 MLOAD PUSH2 0x180 MLOAD PUSH1 0x60 SHR PUSH2 0x1A0 MLOAD PUSH2 0x1C0 MLOAD PUSH2 0x1E0 MLOAD PUSH1 0x60 SHR PUSH2 0x200 MLOAD PUSH1 0x60 SHR PUSH2 0x220 MLOAD PUSH1 0x60 SHR PUSH2 0x240 MLOAD PUSH1 0x60 SHR PUSH2 0x260 MLOAD PUSH1 0x60 SHR PUSH2 0x280 MLOAD PUSH1 0x60 SHR PUSH2 0x2A0 MLOAD PUSH1 0x60 SHR PUSH2 0x2C0 MLOAD PUSH1 0x60 SHR PUSH2 0x2E0 MLOAD PUSH2 0x300 MLOAD PUSH2 0x320 MLOAD PUSH2 0x340 MLOAD PUSH2 0x360 MLOAD PUSH2 0x380 MLOAD PUSH2 0x3A0 MLOAD PUSH2 0x3C0 MLOAD PUSH2 0x44ED PUSH3 0xF6E PUSH1 0x0 CODECOPY DUP1 PUSH2 0x11CD MSTORE DUP1 PUSH2 0x20D9 MSTORE POP DUP1 PUSH2 0x118A MSTORE DUP1 PUSH2 0x2078 MSTORE POP DUP1 PUSH2 0x1147 MSTORE DUP1 PUSH2 0x2017 MSTORE POP DUP1 PUSH2 0x1104 MSTORE DUP1 PUSH2 0x1FB6 MSTORE POP DUP1 PUSH2 0x10C1 MSTORE DUP1 PUSH2 0x1F55 MSTORE POP DUP1 PUSH2 0x107E MSTORE DUP1 PUSH2 0x1EF4 MSTORE POP DUP1 PUSH2 0x103B MSTORE DUP1 PUSH2 0x1E93 MSTORE POP DUP1 PUSH2 0xFEA MSTORE DUP1 PUSH2 0x1E32 MSTORE POP DUP1 PUSH2 0x209E MSTORE POP DUP1 PUSH2 0x203D MSTORE POP DUP1 PUSH2 0x1FDC MSTORE POP DUP1 PUSH2 0x1F7B MSTORE POP DUP1 PUSH2 0x1F1A MSTORE POP DUP1 PUSH2 0x1EB9 MSTORE POP DUP1 PUSH2 0x1E58 MSTORE POP DUP1 PUSH2 0x1DF7 MSTORE DUP1 PUSH2 0x29FA MSTORE POP DUP1 PUSH2 0xF50 MSTORE POP DUP1 PUSH2 0x759 MSTORE POP DUP1 PUSH2 0xA84 MSTORE POP DUP1 PUSH2 0x143D MSTORE POP DUP1 PUSH2 0x1419 MSTORE POP DUP1 PUSH2 0xC78 MSTORE POP DUP1 PUSH2 0x1692 MSTORE POP DUP1 PUSH2 0x16D4 MSTORE POP DUP1 PUSH2 0x16B3 MSTORE POP DUP1 PUSH2 0xA60 MSTORE POP DUP1 PUSH2 0x9EA MSTORE POP PUSH2 0x44ED PUSH1 0x0 RETURN INVALID PUSH1 0x80 PUSH1 0x40 MSTORE CALLVALUE DUP1 ISZERO PUSH2 0x10 JUMPI PUSH1 0x0 DUP1 REVERT JUMPDEST POP PUSH1 0x4 CALLDATASIZE LT PUSH2 0x206 JUMPI PUSH1 0x0 CALLDATALOAD PUSH1 0xE0 SHR DUP1 PUSH4 0x6DACCFFA GT PUSH2 0x11A JUMPI DUP1 PUSH4 0x95D89B41 GT PUSH2 0xAD JUMPI DUP1 PUSH4 0xAAABADC5 GT PUSH2 0x7C JUMPI DUP1 PUSH4 0xAAABADC5 EQ PUSH2 0x434 JUMPI DUP1 PUSH4 0xD505ACCF EQ PUSH2 0x43C JUMPI DUP1 PUSH4 0xD5C096C4 EQ PUSH2 0x44F JUMPI DUP1 PUSH4 0xDD62ED3E EQ PUSH2 0x462 JUMPI DUP1 PUSH4 0xEB0F24D6 EQ PUSH2 0x475 JUMPI PUSH2 0x206 JUMP JUMPDEST DUP1 PUSH4 0x95D89B41 EQ PUSH2 0x3F3 JUMPI DUP1 PUSH4 0x9D2C110C EQ PUSH2 0x3FB JUMPI DUP1 PUSH4 0xA457C2D7 EQ PUSH2 0x40E JUMPI DUP1 PUSH4 0xA9059CBB EQ PUSH2 0x421 JUMPI PUSH2 0x206 JUMP JUMPDEST DUP1 PUSH4 0x851C1BB3 GT PUSH2 0xE9 JUMPI DUP1 PUSH4 0x851C1BB3 EQ PUSH2 0x3B0 JUMPI DUP1 PUSH4 0x87EC6817 EQ PUSH2 0x3C3 JUMPI DUP1 PUSH4 0x893D20E8 EQ PUSH2 0x3D6 JUMPI DUP1 PUSH4 0x8D928AF8 EQ PUSH2 0x3EB JUMPI PUSH2 0x206 JUMP JUMPDEST DUP1 PUSH4 0x6DACCFFA EQ PUSH2 0x352 JUMPI DUP1 PUSH4 0x70A08231 EQ PUSH2 0x369 JUMPI DUP1 PUSH4 0x74F3B009 EQ PUSH2 0x37C JUMPI DUP1 PUSH4 0x7ECEBE00 EQ PUSH2 0x39D JUMPI PUSH2 0x206 JUMP JUMPDEST DUP1 PUSH4 0x313CE567 GT PUSH2 0x19D JUMPI DUP1 PUSH4 0x39509351 GT PUSH2 0x16C JUMPI DUP1 PUSH4 0x39509351 EQ PUSH2 0x2FB JUMPI DUP1 PUSH4 0x50DD6ED9 EQ PUSH2 0x30E JUMPI DUP1 PUSH4 0x55C67628 EQ PUSH2 0x321 JUMPI DUP1 PUSH4 0x6028BFD4 EQ PUSH2 0x329 JUMPI DUP1 PUSH4 0x679AEFCE EQ PUSH2 0x34A JUMPI PUSH2 0x206 JUMP JUMPDEST DUP1 PUSH4 0x313CE567 EQ PUSH2 0x2C3 JUMPI DUP1 PUSH4 0x3644E515 EQ PUSH2 0x2D8 JUMPI DUP1 PUSH4 0x38E9922E EQ PUSH2 0x2E0 JUMPI DUP1 PUSH4 0x38FFF2D0 EQ PUSH2 0x2F3 JUMPI PUSH2 0x206 JUMP JUMPDEST DUP1 PUSH4 0x18160DDD GT PUSH2 0x1D9 JUMPI DUP1 PUSH4 0x18160DDD EQ PUSH2 0x27E JUMPI DUP1 PUSH4 0x1C0DE051 EQ PUSH2 0x286 JUMPI DUP1 PUSH4 0x23B872DD EQ PUSH2 0x29D JUMPI DUP1 PUSH4 0x2F1A0BC9 EQ PUSH2 0x2B0 JUMPI PUSH2 0x206 JUMP JUMPDEST DUP1 PUSH4 0x1EC954A EQ PUSH2 0x20B JUMPI DUP1 PUSH4 0x6FDDE03 EQ PUSH2 0x234 JUMPI DUP1 PUSH4 0x95EA7B3 EQ PUSH2 0x249 JUMPI DUP1 PUSH4 0x16C38B3C EQ PUSH2 0x269 JUMPI JUMPDEST PUSH1 0x0 DUP1 REVERT JUMPDEST PUSH2 0x21E PUSH2 0x219 CALLDATASIZE PUSH1 0x4 PUSH2 0x40AE JUMP JUMPDEST PUSH2 0x47D JUMP JUMPDEST PUSH1 0x40 MLOAD PUSH2 0x22B SWAP2 SWAP1 PUSH2 0x4306 JUMP JUMPDEST PUSH1 0x40 MLOAD DUP1 SWAP2 SUB SWAP1 RETURN JUMPDEST PUSH2 0x23C PUSH2 0x4DC JUMP JUMPDEST PUSH1 0x40 MLOAD PUSH2 0x22B SWAP2 SWAP1 PUSH2 0x43DC JUMP JUMPDEST PUSH2 0x25C PUSH2 0x257 CALLDATASIZE PUSH1 0x4 PUSH2 0x3D44 JUMP JUMPDEST PUSH2 0x573 JUMP JUMPDEST PUSH1 0x40 MLOAD PUSH2 0x22B SWAP2 SWAP1 PUSH2 0x42E3 JUMP JUMPDEST PUSH2 0x27C PUSH2 0x277 CALLDATASIZE PUSH1 0x4 PUSH2 0x3E3A JUMP JUMPDEST PUSH2 0x58A JUMP JUMPDEST STOP JUMPDEST PUSH2 0x21E PUSH2 0x59E JUMP JUMPDEST PUSH2 0x28E PUSH2 0x5A4 JUMP JUMPDEST PUSH1 0x40 MLOAD PUSH2 0x22B SWAP4 SWAP3 SWAP2 SWAP1 PUSH2 0x42EE JUMP JUMPDEST PUSH2 0x25C PUSH2 0x2AB CALLDATASIZE PUSH1 0x4 PUSH2 0x3C8F JUMP JUMPDEST PUSH2 0x5CD JUMP JUMPDEST PUSH2 0x27C PUSH2 0x2BE CALLDATASIZE PUSH1 0x4 PUSH2 0x4181 JUMP JUMPDEST PUSH2 0x643 JUMP JUMPDEST PUSH2 0x2CB PUSH2 0x726 JUMP JUMPDEST PUSH1 0x40 MLOAD PUSH2 0x22B SWAP2 SWAP1 PUSH2 0x4439 JUMP JUMPDEST PUSH2 0x21E PUSH2 0x72F JUMP JUMPDEST PUSH2 0x27C PUSH2 0x2EE CALLDATASIZE PUSH1 0x4 PUSH2 0x4169 JUMP JUMPDEST PUSH2 0x73E JUMP JUMPDEST PUSH2 0x21E PUSH2 0x757 JUMP JUMPDEST PUSH2 0x25C PUSH2 0x309 CALLDATASIZE PUSH1 0x4 PUSH2 0x3D44 JUMP JUMPDEST PUSH2 0x77B JUMP JUMPDEST PUSH2 0x27C PUSH2 0x31C CALLDATASIZE PUSH1 0x4 PUSH2 0x3F58 JUMP JUMPDEST PUSH2 0x7B6 JUMP JUMPDEST PUSH2 0x21E PUSH2 0x7D4 JUMP JUMPDEST PUSH2 0x33C PUSH2 0x337 CALLDATASIZE PUSH1 0x4 PUSH2 0x3E72 JUMP JUMPDEST PUSH2 0x7DA JUMP JUMPDEST PUSH1 0x40 MLOAD PUSH2 0x22B SWAP3 SWAP2 SWAP1 PUSH2 0x43EF JUMP JUMPDEST PUSH2 0x21E PUSH2 0x811 JUMP JUMPDEST PUSH2 0x35A PUSH2 0x8EE JUMP JUMPDEST PUSH1 0x40 MLOAD PUSH2 0x22B SWAP4 SWAP3 SWAP2 SWAP1 PUSH2 0x4408 JUMP JUMPDEST PUSH2 0x21E PUSH2 0x377 CALLDATASIZE PUSH1 0x4 PUSH2 0x3C3B JUMP JUMPDEST PUSH2 0x909 JUMP JUMPDEST PUSH2 0x38F PUSH2 0x38A CALLDATASIZE PUSH1 0x4 PUSH2 0x3E72 JUMP JUMPDEST PUSH2 0x928 JUMP JUMPDEST PUSH1 0x40 MLOAD PUSH2 0x22B SWAP3 SWAP2 SWAP1 PUSH2 0x42BE JUMP JUMPDEST PUSH2 0x21E PUSH2 0x3AB CALLDATASIZE PUSH1 0x4 PUSH2 0x3C3B JUMP JUMPDEST PUSH2 0x9CB JUMP JUMPDEST PUSH2 0x21E PUSH2 0x3BE CALLDATASIZE PUSH1 0x4 PUSH2 0x3F14 JUMP JUMPDEST PUSH2 0x9E6 JUMP JUMPDEST PUSH2 0x33C PUSH2 0x3D1 CALLDATASIZE PUSH1 0x4 PUSH2 0x3E72 JUMP JUMPDEST PUSH2 0xA38 JUMP JUMPDEST PUSH2 0x3DE PUSH2 0xA5E JUMP JUMPDEST PUSH1 0x40 MLOAD PUSH2 0x22B SWAP2 SWAP1 PUSH2 0x42AA JUMP JUMPDEST PUSH2 0x3DE PUSH2 0xA82 JUMP JUMPDEST PUSH2 0x23C PUSH2 0xAA6 JUMP JUMPDEST PUSH2 0x21E PUSH2 0x409 CALLDATASIZE PUSH1 0x4 PUSH2 0x411E JUMP JUMPDEST PUSH2 0xB07 JUMP JUMPDEST PUSH2 0x25C PUSH2 0x41C CALLDATASIZE PUSH1 0x4 PUSH2 0x3D44 JUMP JUMPDEST PUSH2 0xBEE JUMP JUMPDEST PUSH2 0x25C PUSH2 0x42F CALLDATASIZE PUSH1 0x4 PUSH2 0x3D44 JUMP JUMPDEST PUSH2 0xC2C JUMP JUMPDEST PUSH2 0x3DE PUSH2 0xC39 JUMP JUMPDEST PUSH2 0x27C PUSH2 0x44A CALLDATASIZE PUSH1 0x4 PUSH2 0x3CCF JUMP JUMPDEST PUSH2 0xC43 JUMP JUMPDEST PUSH2 0x38F PUSH2 0x45D CALLDATASIZE PUSH1 0x4 PUSH2 0x3E72 JUMP JUMPDEST PUSH2 0xD8C JUMP JUMPDEST PUSH2 0x21E PUSH2 0x470 CALLDATASIZE PUSH1 0x4 PUSH2 0x3C57 JUMP JUMPDEST PUSH2 0xEAF JUMP JUMPDEST PUSH2 0x27C PUSH2 0xEDA JUMP JUMPDEST PUSH1 0x0 PUSH2 0x491 DUP4 DUP4 PUSH2 0x48C PUSH2 0xF4E JUMP JUMPDEST PUSH2 0xF72 JUMP JUMPDEST PUSH1 0x0 PUSH2 0x49B PUSH2 0xF8F JUMP JUMPDEST SWAP1 POP PUSH1 0x0 DUP7 MLOAD PUSH1 0x1 DUP2 GT ISZERO PUSH2 0x4AC JUMPI INVALID JUMPDEST EQ PUSH2 0x4C3 JUMPI PUSH2 0x4BE DUP7 DUP7 DUP7 DUP7 DUP6 PUSH2 0x120B JUMP JUMPDEST PUSH2 0x4D0 JUMP JUMPDEST PUSH2 0x4D0 DUP7 DUP7 DUP7 DUP7 DUP6 PUSH2 0x1282 JUMP JUMPDEST SWAP2 POP POP JUMPDEST SWAP5 SWAP4 POP POP POP POP JUMP JUMPDEST PUSH1 0x3 DUP1 SLOAD PUSH1 0x40 DUP1 MLOAD PUSH1 0x20 PUSH1 0x1F PUSH1 0x2 PUSH1 0x0 NOT PUSH2 0x100 PUSH1 0x1 DUP9 AND ISZERO MUL ADD SWAP1 SWAP6 AND SWAP5 SWAP1 SWAP5 DIV SWAP4 DUP5 ADD DUP2 SWAP1 DIV DUP2 MUL DUP3 ADD DUP2 ADD SWAP1 SWAP3 MSTORE DUP3 DUP2 MSTORE PUSH1 0x60 SWAP4 SWAP1 SWAP3 SWAP1 SWAP2 DUP4 ADD DUP3 DUP3 DUP1 ISZERO PUSH2 0x568 JUMPI DUP1 PUSH1 0x1F LT PUSH2 0x53D JUMPI PUSH2 0x100 DUP1 DUP4 SLOAD DIV MUL DUP4 MSTORE SWAP2 PUSH1 0x20 ADD SWAP2 PUSH2 0x568 JUMP JUMPDEST DUP3 ADD SWAP2 SWAP1 PUSH1 0x0 MSTORE PUSH1 0x20 PUSH1 0x0 KECCAK256 SWAP1 JUMPDEST DUP2 SLOAD DUP2 MSTORE SWAP1 PUSH1 0x1 ADD SWAP1 PUSH1 0x20 ADD DUP1 DUP4 GT PUSH2 0x54B JUMPI DUP3 SWAP1 SUB PUSH1 0x1F AND DUP3 ADD SWAP2 JUMPDEST POP POP POP POP POP SWAP1 POP JUMPDEST SWAP1 JUMP JUMPDEST PUSH1 0x0 PUSH2 0x580 CALLER DUP5 DUP5 PUSH2 0x12E6 JUMP JUMPDEST POP PUSH1 0x1 JUMPDEST SWAP3 SWAP2 POP POP JUMP JUMPDEST PUSH2 0x592 PUSH2 0x134E JUMP JUMPDEST PUSH2 0x59B DUP2 PUSH2 0x137C JUMP JUMPDEST POP JUMP JUMPDEST PUSH1 0x2 SLOAD SWAP1 JUMP JUMPDEST PUSH1 0x0 DUP1 PUSH1 0x0 PUSH2 0x5B1 PUSH2 0x13FA JUMP JUMPDEST ISZERO SWAP3 POP PUSH2 0x5BC PUSH2 0x1417 JUMP JUMPDEST SWAP2 POP PUSH2 0x5C6 PUSH2 0x143B JUMP JUMPDEST SWAP1 POP SWAP1 SWAP2 SWAP3 JUMP JUMPDEST PUSH1 0x0 DUP1 PUSH2 0x5DA DUP6 CALLER PUSH2 0xEAF JUMP JUMPDEST SWAP1 POP PUSH2 0x5FE CALLER PUSH1 0x1 PUSH1 0x1 PUSH1 0xA0 SHL SUB DUP8 AND EQ DUP1 PUSH2 0x5F6 JUMPI POP DUP4 DUP3 LT ISZERO JUMPDEST PUSH2 0x19E PUSH2 0x145F JUMP JUMPDEST PUSH2 0x609 DUP6 DUP6 DUP6 PUSH2 0x146D JUMP JUMPDEST CALLER PUSH1 0x1 PUSH1 0x1 PUSH1 0xA0 SHL SUB DUP7 AND EQ DUP1 ISZERO SWAP1 PUSH2 0x624 JUMPI POP PUSH1 0x0 NOT DUP2 EQ ISZERO JUMPDEST ISZERO PUSH2 0x636 JUMPI PUSH2 0x636 DUP6 CALLER DUP6 DUP5 SUB PUSH2 0x12E6 JUMP JUMPDEST PUSH1 0x1 SWAP2 POP POP JUMPDEST SWAP4 SWAP3 POP POP POP JUMP JUMPDEST PUSH2 0x64B PUSH2 0x134E JUMP JUMPDEST PUSH2 0x65B PUSH1 0x1 DUP4 LT ISZERO PUSH2 0x12C PUSH2 0x145F JUMP JUMPDEST PUSH2 0x66C PUSH2 0x1388 DUP4 GT ISZERO PUSH2 0x12D PUSH2 0x145F JUMP JUMPDEST PUSH1 0x0 PUSH2 0x678 DUP3 TIMESTAMP PUSH2 0xF34 JUMP JUMPDEST SWAP1 POP PUSH2 0x68C PUSH3 0x15180 DUP3 LT ISZERO PUSH2 0x13D PUSH2 0x145F JUMP JUMPDEST PUSH1 0x0 DUP1 PUSH2 0x697 PUSH2 0x154D JUMP JUMPDEST SWAP2 POP SWAP2 POP PUSH2 0x6A8 DUP2 ISZERO PUSH2 0x13E PUSH2 0x145F JUMP JUMPDEST PUSH1 0x0 PUSH2 0x6B6 DUP7 PUSH2 0x3E8 PUSH2 0xF10 JUMP JUMPDEST SWAP1 POP PUSH1 0x0 DUP4 DUP3 GT PUSH2 0x6E5 JUMPI PUSH2 0x6E0 PUSH2 0x6D1 PUSH3 0x15180 DUP7 PUSH2 0xF10 JUMP JUMPDEST PUSH2 0x6DB DUP5 DUP9 PUSH2 0xF10 JUMP JUMPDEST PUSH2 0x15C1 JUMP JUMPDEST PUSH2 0x6FF JUMP JUMPDEST PUSH2 0x6FF PUSH2 0x6F5 PUSH3 0x15180 DUP5 PUSH2 0xF10 JUMP JUMPDEST PUSH2 0x6DB DUP7 DUP9 PUSH2 0xF10 JUMP JUMPDEST SWAP1 POP PUSH2 0x711 PUSH1 0x2 DUP3 GT ISZERO PUSH2 0x13F PUSH2 0x145F JUMP JUMPDEST PUSH2 0x71D DUP5 DUP4 TIMESTAMP DUP10 PUSH2 0x15F4 JUMP JUMPDEST POP POP POP POP POP POP POP JUMP JUMPDEST PUSH1 0x5 SLOAD PUSH1 0xFF AND SWAP1 JUMP JUMPDEST PUSH1 0x0 PUSH2 0x739 PUSH2 0x168E JUMP JUMPDEST SWAP1 POP SWAP1 JUMP JUMPDEST PUSH2 0x746 PUSH2 0x134E JUMP JUMPDEST PUSH2 0x74E PUSH2 0x172B JUMP JUMPDEST PUSH2 0x59B DUP2 PUSH2 0x1740 JUMP JUMPDEST PUSH32 0x0 SWAP1 JUMP JUMPDEST CALLER PUSH1 0x0 DUP2 DUP2 MSTORE PUSH1 0x1 PUSH1 0x20 SWAP1 DUP2 MSTORE PUSH1 0x40 DUP1 DUP4 KECCAK256 PUSH1 0x1 PUSH1 0x1 PUSH1 0xA0 SHL SUB DUP8 AND DUP5 MSTORE SWAP1 SWAP2 MSTORE DUP2 KECCAK256 SLOAD SWAP1 SWAP2 PUSH2 0x580 SWAP2 DUP6 SWAP1 PUSH2 0x7B1 SWAP1 DUP7 PUSH2 0x179E JUMP JUMPDEST PUSH2 0x12E6 JUMP JUMPDEST PUSH2 0x7BE PUSH2 0x134E JUMP JUMPDEST PUSH2 0x7C6 PUSH2 0x172B JUMP JUMPDEST PUSH2 0x7D0 DUP3 DUP3 PUSH2 0x17B0 JUMP JUMPDEST POP POP JUMP JUMPDEST PUSH1 0x8 SLOAD SWAP1 JUMP JUMPDEST PUSH1 0x0 PUSH1 0x60 PUSH2 0x7F0 DUP7 MLOAD PUSH2 0x7EB PUSH2 0xF4E JUMP JUMPDEST PUSH2 0x18AF JUMP JUMPDEST PUSH2 0x805 DUP10 DUP10 DUP10 DUP10 DUP10 DUP10 DUP10 PUSH2 0x18BC PUSH2 0x195F PUSH2 0x19C0 JUMP JUMPDEST SWAP8 POP SWAP8 SWAP6 POP POP POP POP POP POP JUMP JUMPDEST PUSH1 0x0 DUP1 PUSH2 0x81C PUSH2 0xA82 JUMP JUMPDEST PUSH1 0x1 PUSH1 0x1 PUSH1 0xA0 SHL SUB AND PUSH4 0xF94D4668 PUSH2 0x832 PUSH2 0x757 JUMP JUMPDEST PUSH1 0x40 MLOAD DUP3 PUSH4 0xFFFFFFFF AND PUSH1 0xE0 SHL DUP2 MSTORE PUSH1 0x4 ADD PUSH2 0x84E SWAP2 SWAP1 PUSH2 0x4306 JUMP JUMPDEST PUSH1 0x0 PUSH1 0x40 MLOAD DUP1 DUP4 SUB DUP2 DUP7 DUP1 EXTCODESIZE ISZERO DUP1 ISZERO PUSH2 0x866 JUMPI PUSH1 0x0 DUP1 REVERT JUMPDEST POP GAS STATICCALL ISZERO DUP1 ISZERO PUSH2 0x87A JUMPI RETURNDATASIZE PUSH1 0x0 DUP1 RETURNDATACOPY RETURNDATASIZE PUSH1 0x0 REVERT JUMPDEST POP POP POP POP PUSH1 0x40 MLOAD RETURNDATASIZE PUSH1 0x0 DUP3 RETURNDATACOPY PUSH1 0x1F RETURNDATASIZE SWAP1 DUP2 ADD PUSH1 0x1F NOT AND DUP3 ADD PUSH1 0x40 MSTORE PUSH2 0x8A2 SWAP2 SWAP1 DUP2 ADD SWAP1 PUSH2 0x3D6F JUMP JUMPDEST POP SWAP2 POP POP PUSH1 0x0 PUSH2 0x8B0 PUSH2 0x154D JUMP JUMPDEST POP SWAP1 POP PUSH2 0x8C4 DUP3 PUSH2 0x8BF PUSH2 0xF8F JUMP JUMPDEST PUSH2 0x1AE2 JUMP JUMPDEST PUSH1 0x0 PUSH2 0x8D2 DUP3 DUP5 PUSH1 0x0 PUSH2 0x1B43 JUMP JUMPDEST SWAP1 POP PUSH2 0x8E6 PUSH2 0x8DF PUSH2 0x59E JUMP JUMPDEST DUP3 SWAP1 PUSH2 0x1CDF JUMP JUMPDEST SWAP4 POP POP POP POP SWAP1 JUMP JUMPDEST PUSH1 0x0 DUP1 PUSH1 0x0 PUSH2 0x8FB PUSH2 0x154D JUMP JUMPDEST SWAP1 SWAP5 SWAP1 SWAP4 POP PUSH2 0x3E8 SWAP3 POP SWAP1 POP JUMP JUMPDEST PUSH1 0x1 PUSH1 0x1 PUSH1 0xA0 SHL SUB DUP2 AND PUSH1 0x0 SWAP1 DUP2 MSTORE PUSH1 0x20 DUP2 SWAP1 MSTORE PUSH1 0x40 SWAP1 KECCAK256 SLOAD JUMPDEST SWAP2 SWAP1 POP JUMP JUMPDEST PUSH1 0x60 DUP1 DUP9 PUSH2 0x952 PUSH2 0x937 PUSH2 0xA82 JUMP JUMPDEST PUSH1 0x1 PUSH1 0x1 PUSH1 0xA0 SHL SUB AND CALLER PUSH1 0x1 PUSH1 0x1 PUSH1 0xA0 SHL SUB AND EQ PUSH1 0xCD PUSH2 0x145F JUMP JUMPDEST PUSH2 0x967 PUSH2 0x95D PUSH2 0x757 JUMP JUMPDEST DUP3 EQ PUSH2 0x1F4 PUSH2 0x145F JUMP JUMPDEST PUSH1 0x0 PUSH2 0x971 PUSH2 0xF8F JUMP JUMPDEST SWAP1 POP PUSH2 0x97D DUP9 DUP3 PUSH2 0x1AE2 JUMP JUMPDEST PUSH1 0x0 DUP1 PUSH1 0x0 PUSH2 0x992 DUP15 DUP15 DUP15 DUP15 DUP15 DUP15 DUP11 DUP16 PUSH2 0x18BC JUMP JUMPDEST SWAP3 POP SWAP3 POP SWAP3 POP PUSH2 0x9A2 DUP14 DUP5 PUSH2 0x1D30 JUMP JUMPDEST PUSH2 0x9AC DUP3 DUP6 PUSH2 0x195F JUMP JUMPDEST PUSH2 0x9B6 DUP2 DUP6 PUSH2 0x195F JUMP JUMPDEST SWAP1 SWAP6 POP SWAP4 POP POP POP JUMPDEST POP SWAP8 POP SWAP8 SWAP6 POP POP POP POP POP POP JUMP JUMPDEST PUSH1 0x1 PUSH1 0x1 PUSH1 0xA0 SHL SUB AND PUSH1 0x0 SWAP1 DUP2 MSTORE PUSH1 0x6 PUSH1 0x20 MSTORE PUSH1 0x40 SWAP1 KECCAK256 SLOAD SWAP1 JUMP JUMPDEST PUSH1 0x0 PUSH32 0x0 DUP3 PUSH1 0x40 MLOAD PUSH1 0x20 ADD PUSH2 0xA1B SWAP3 SWAP2 SWAP1 PUSH2 0x4267 JUMP JUMPDEST PUSH1 0x40 MLOAD PUSH1 0x20 DUP2 DUP4 SUB SUB DUP2 MSTORE SWAP1 PUSH1 0x40 MSTORE DUP1 MLOAD SWAP1 PUSH1 0x20 ADD KECCAK256 SWAP1 POP SWAP2 SWAP1 POP JUMP JUMPDEST PUSH1 0x0 PUSH1 0x60 PUSH2 0xA49 DUP7 MLOAD PUSH2 0x7EB PUSH2 0xF4E JUMP JUMPDEST PUSH2 0x805 DUP10 DUP10 DUP10 DUP10 DUP10 DUP10 DUP10 PUSH2 0x1D3A PUSH2 0x1D92 PUSH2 0x19C0 JUMP JUMPDEST PUSH32 0x0 SWAP1 JUMP JUMPDEST PUSH32 0x0 SWAP1 JUMP JUMPDEST PUSH1 0x4 DUP1 SLOAD PUSH1 0x40 DUP1 MLOAD PUSH1 0x20 PUSH1 0x1F PUSH1 0x2 PUSH1 0x0 NOT PUSH2 0x100 PUSH1 0x1 DUP9 AND ISZERO MUL ADD SWAP1 SWAP6 AND SWAP5 SWAP1 SWAP5 DIV SWAP4 DUP5 ADD DUP2 SWAP1 DIV DUP2 MUL DUP3 ADD DUP2 ADD SWAP1 SWAP3 MSTORE DUP3 DUP2 MSTORE PUSH1 0x60 SWAP4 SWAP1 SWAP3 SWAP1 SWAP2 DUP4 ADD DUP3 DUP3 DUP1 ISZERO PUSH2 0x568 JUMPI DUP1 PUSH1 0x1F LT PUSH2 0x53D JUMPI PUSH2 0x100 DUP1 DUP4 SLOAD DIV MUL DUP4 MSTORE SWAP2 PUSH1 0x20 ADD SWAP2 PUSH2 0x568 JUMP JUMPDEST PUSH1 0x0 DUP1 PUSH2 0xB17 DUP6 PUSH1 0x20 ADD MLOAD PUSH2 0x1DF3 JUMP JUMPDEST SWAP1 POP PUSH1 0x0 PUSH2 0xB28 DUP7 PUSH1 0x40 ADD MLOAD PUSH2 0x1DF3 JUMP JUMPDEST SWAP1 POP PUSH1 0x0 DUP7 MLOAD PUSH1 0x1 DUP2 GT ISZERO PUSH2 0xB39 JUMPI INVALID JUMPDEST EQ ISZERO PUSH2 0xB9F JUMPI PUSH2 0xB4C DUP7 PUSH1 0x60 ADD MLOAD PUSH2 0x2108 JUMP JUMPDEST PUSH1 0x60 DUP8 ADD MSTORE PUSH2 0xB5B DUP6 DUP4 PUSH2 0x212C JUMP JUMPDEST SWAP5 POP PUSH2 0xB67 DUP5 DUP3 PUSH2 0x212C JUMP JUMPDEST SWAP4 POP PUSH2 0xB77 DUP7 PUSH1 0x60 ADD MLOAD DUP4 PUSH2 0x212C JUMP JUMPDEST PUSH1 0x60 DUP8 ADD MSTORE PUSH1 0x0 PUSH2 0xB89 DUP8 DUP8 DUP8 PUSH2 0x2138 JUMP JUMPDEST SWAP1 POP PUSH2 0xB95 DUP2 DUP4 PUSH2 0x217C JUMP JUMPDEST SWAP4 POP POP POP POP PUSH2 0x63C JUMP JUMPDEST PUSH2 0xBA9 DUP6 DUP4 PUSH2 0x212C JUMP JUMPDEST SWAP5 POP PUSH2 0xBB5 DUP5 DUP3 PUSH2 0x212C JUMP JUMPDEST SWAP4 POP PUSH2 0xBC5 DUP7 PUSH1 0x60 ADD MLOAD DUP3 PUSH2 0x212C JUMP JUMPDEST PUSH1 0x60 DUP8 ADD MSTORE PUSH1 0x0 PUSH2 0xBD7 DUP8 DUP8 DUP8 PUSH2 0x2188 JUMP JUMPDEST SWAP1 POP PUSH2 0xBE3 DUP2 DUP5 PUSH2 0x21B7 JUMP JUMPDEST SWAP1 POP PUSH2 0xB95 DUP2 PUSH2 0x21C3 JUMP JUMPDEST PUSH1 0x0 DUP1 PUSH2 0xBFB CALLER DUP6 PUSH2 0xEAF JUMP JUMPDEST SWAP1 POP DUP1 DUP4 LT PUSH2 0xC15 JUMPI PUSH2 0xC10 CALLER DUP6 PUSH1 0x0 PUSH2 0x12E6 JUMP JUMPDEST PUSH2 0xC22 JUMP JUMPDEST PUSH2 0xC22 CALLER DUP6 DUP6 DUP5 SUB PUSH2 0x12E6 JUMP JUMPDEST POP PUSH1 0x1 SWAP4 SWAP3 POP POP POP JUMP JUMPDEST PUSH1 0x0 PUSH2 0x580 CALLER DUP5 DUP5 PUSH2 0x146D JUMP JUMPDEST PUSH1 0x0 PUSH2 0x739 PUSH2 0x21EC JUMP JUMPDEST PUSH2 0xC51 DUP5 TIMESTAMP GT ISZERO PUSH1 0xD1 PUSH2 0x145F JUMP JUMPDEST PUSH1 0x1 PUSH1 0x1 PUSH1 0xA0 SHL SUB DUP8 AND PUSH1 0x0 SWAP1 DUP2 MSTORE PUSH1 0x6 PUSH1 0x20 SWAP1 DUP2 MSTORE PUSH1 0x40 DUP1 DUP4 KECCAK256 SLOAD SWAP1 MLOAD SWAP1 SWAP3 SWAP2 PUSH2 0xCA8 SWAP2 PUSH32 0x0 SWAP2 DUP13 SWAP2 DUP13 SWAP2 DUP13 SWAP2 DUP9 SWAP2 DUP14 SWAP2 ADD PUSH2 0x432E JUMP JUMPDEST PUSH1 0x40 MLOAD PUSH1 0x20 DUP2 DUP4 SUB SUB DUP2 MSTORE SWAP1 PUSH1 0x40 MSTORE DUP1 MLOAD SWAP1 PUSH1 0x20 ADD KECCAK256 SWAP1 POP PUSH1 0x0 PUSH2 0xCCB DUP3 PUSH2 0x2266 JUMP JUMPDEST SWAP1 POP PUSH1 0x0 PUSH1 0x1 DUP3 DUP9 DUP9 DUP9 PUSH1 0x40 MLOAD PUSH1 0x0 DUP2 MSTORE PUSH1 0x20 ADD PUSH1 0x40 MSTORE PUSH1 0x40 MLOAD PUSH2 0xCF2 SWAP5 SWAP4 SWAP3 SWAP2 SWAP1 PUSH2 0x43BE JUMP JUMPDEST PUSH1 0x20 PUSH1 0x40 MLOAD PUSH1 0x20 DUP2 SUB SWAP1 DUP1 DUP5 SUB SWAP1 DUP6 GAS STATICCALL ISZERO DUP1 ISZERO PUSH2 0xD14 JUMPI RETURNDATASIZE PUSH1 0x0 DUP1 RETURNDATACOPY RETURNDATASIZE PUSH1 0x0 REVERT JUMPDEST POP POP PUSH1 0x40 MLOAD PUSH1 0x1F NOT ADD MLOAD SWAP2 POP PUSH2 0xD56 SWAP1 POP PUSH1 0x1 PUSH1 0x1 PUSH1 0xA0 SHL SUB DUP3 AND ISZERO DUP1 ISZERO SWAP1 PUSH2 0xD4E JUMPI POP DUP12 PUSH1 0x1 PUSH1 0x1 PUSH1 0xA0 SHL SUB AND DUP3 PUSH1 0x1 PUSH1 0x1 PUSH1 0xA0 SHL SUB AND EQ JUMPDEST PUSH2 0x1F8 PUSH2 0x145F JUMP JUMPDEST PUSH1 0x1 PUSH1 0x1 PUSH1 0xA0 SHL SUB DUP12 AND PUSH1 0x0 SWAP1 DUP2 MSTORE PUSH1 0x6 PUSH1 0x20 MSTORE PUSH1 0x40 SWAP1 KECCAK256 PUSH1 0x1 DUP6 ADD SWAP1 SSTORE PUSH2 0xD7F DUP12 DUP12 DUP12 PUSH2 0x12E6 JUMP JUMPDEST POP POP POP POP POP POP POP POP POP POP POP JUMP JUMPDEST PUSH1 0x60 DUP1 DUP9 PUSH2 0xD9B PUSH2 0x937 PUSH2 0xA82 JUMP JUMPDEST PUSH2 0xDA6 PUSH2 0x95D PUSH2 0x757 JUMP JUMPDEST PUSH1 0x0 PUSH2 0xDB0 PUSH2 0xF8F JUMP JUMPDEST SWAP1 POP PUSH2 0xDBA PUSH2 0x59E JUMP JUMPDEST PUSH2 0xE5F JUMPI PUSH1 0x0 DUP1 PUSH2 0xDCE DUP14 DUP14 DUP14 DUP7 DUP12 PUSH2 0x2282 JUMP JUMPDEST SWAP2 POP SWAP2 POP PUSH2 0xDE3 PUSH3 0xF4240 DUP4 LT ISZERO PUSH1 0xCC PUSH2 0x145F JUMP JUMPDEST PUSH2 0xDF1 PUSH1 0x0 PUSH3 0xF4240 PUSH2 0x2311 JUMP JUMPDEST PUSH2 0xE00 DUP12 PUSH3 0xF4240 DUP5 SUB PUSH2 0x2311 JUMP JUMPDEST PUSH2 0xE0A DUP2 DUP5 PUSH2 0x1D92 JUMP JUMPDEST DUP1 PUSH2 0xE13 PUSH2 0xF4E JUMP JUMPDEST PUSH1 0x1 PUSH1 0x1 PUSH1 0x40 SHL SUB DUP2 GT DUP1 ISZERO PUSH2 0xE28 JUMPI PUSH1 0x0 DUP1 REVERT JUMPDEST POP PUSH1 0x40 MLOAD SWAP1 DUP1 DUP3 MSTORE DUP1 PUSH1 0x20 MUL PUSH1 0x20 ADD DUP3 ADD PUSH1 0x40 MSTORE DUP1 ISZERO PUSH2 0xE52 JUMPI DUP2 PUSH1 0x20 ADD PUSH1 0x20 DUP3 MUL DUP1 CALLDATASIZE DUP4 CALLDATACOPY ADD SWAP1 POP JUMPDEST POP SWAP6 POP SWAP6 POP POP POP POP PUSH2 0x9BE JUMP JUMPDEST PUSH2 0xE69 DUP9 DUP3 PUSH2 0x1AE2 JUMP JUMPDEST PUSH1 0x0 DUP1 PUSH1 0x0 PUSH2 0xE7E DUP15 DUP15 DUP15 DUP15 DUP15 DUP15 DUP11 DUP16 PUSH2 0x1D3A JUMP JUMPDEST SWAP3 POP SWAP3 POP SWAP3 POP PUSH2 0xE8E DUP13 DUP5 PUSH2 0x2311 JUMP JUMPDEST PUSH2 0xE98 DUP3 DUP6 PUSH2 0x1D92 JUMP JUMPDEST PUSH2 0xEA2 DUP2 DUP6 PUSH2 0x195F JUMP JUMPDEST SWAP1 SWAP6 POP SWAP4 POP PUSH2 0x9BE SWAP2 POP POP JUMP JUMPDEST PUSH1 0x1 PUSH1 0x1 PUSH1 0xA0 SHL SUB SWAP2 DUP3 AND PUSH1 0x0 SWAP1 DUP2 MSTORE PUSH1 0x1 PUSH1 0x20 SWAP1 DUP2 MSTORE PUSH1 0x40 DUP1 DUP4 KECCAK256 SWAP4 SWAP1 SWAP5 AND DUP3 MSTORE SWAP2 SWAP1 SWAP2 MSTORE KECCAK256 SLOAD SWAP1 JUMP JUMPDEST PUSH2 0xEE2 PUSH2 0x134E JUMP JUMPDEST PUSH1 0x0 DUP1 PUSH2 0xEED PUSH2 0x154D JUMP JUMPDEST SWAP2 POP SWAP2 POP PUSH2 0xEFD DUP2 PUSH2 0x140 PUSH2 0x145F JUMP JUMPDEST PUSH2 0x7D0 DUP3 PUSH2 0x231B JUMP JUMPDEST DUP1 PUSH2 0x7D0 DUP2 PUSH2 0x2356 JUMP JUMPDEST PUSH1 0x0 DUP3 DUP3 MUL PUSH2 0x63C DUP5 ISZERO DUP1 PUSH2 0xF2D JUMPI POP DUP4 DUP6 DUP4 DUP2 PUSH2 0xF2A JUMPI INVALID JUMPDEST DIV EQ JUMPDEST PUSH1 0x3 PUSH2 0x145F JUMP JUMPDEST PUSH1 0x0 PUSH2 0xF44 DUP4 DUP4 GT ISZERO PUSH1 0x1 PUSH2 0x145F JUMP JUMPDEST POP SWAP1 SUB SWAP1 JUMP JUMPDEST SHL SWAP1 JUMP JUMPDEST PUSH32 0x0 SWAP1 JUMP JUMPDEST PUSH2 0xF8A DUP2 DUP5 LT DUP1 ISZERO PUSH2 0xF83 JUMPI POP DUP2 DUP4 LT JUMPDEST PUSH1 0x64 PUSH2 0x145F JUMP JUMPDEST POP POP POP JUMP JUMPDEST PUSH1 0x60 PUSH1 0x0 PUSH2 0xF9B PUSH2 0xF4E JUMP JUMPDEST SWAP1 POP PUSH1 0x0 DUP2 PUSH1 0x1 PUSH1 0x1 PUSH1 0x40 SHL SUB DUP2 GT DUP1 ISZERO PUSH2 0xFB5 JUMPI PUSH1 0x0 DUP1 REVERT JUMPDEST POP PUSH1 0x40 MLOAD SWAP1 DUP1 DUP3 MSTORE DUP1 PUSH1 0x20 MUL PUSH1 0x20 ADD DUP3 ADD PUSH1 0x40 MSTORE DUP1 ISZERO PUSH2 0xFDF JUMPI DUP2 PUSH1 0x20 ADD PUSH1 0x20 DUP3 MUL DUP1 CALLDATASIZE DUP4 CALLDATACOPY ADD SWAP1 POP JUMPDEST POP SWAP1 POP DUP2 ISZERO PUSH2 0x1027 JUMPI PUSH32 0x0 DUP2 PUSH1 0x0 DUP2 MLOAD DUP2 LT PUSH2 0x1016 JUMPI INVALID JUMPDEST PUSH1 0x20 MUL PUSH1 0x20 ADD ADD DUP2 DUP2 MSTORE POP POP PUSH2 0x1030 JUMP JUMPDEST SWAP2 POP PUSH2 0x570 SWAP1 POP JUMP JUMPDEST PUSH1 0x1 DUP3 GT ISZERO PUSH2 0x1027 JUMPI PUSH32 0x0 DUP2 PUSH1 0x1 DUP2 MLOAD DUP2 LT PUSH2 0x1067 JUMPI INVALID JUMPDEST PUSH1 0x20 MUL PUSH1 0x20 ADD ADD DUP2 DUP2 MSTORE POP POP PUSH1 0x2 DUP3 GT ISZERO PUSH2 0x1027 JUMPI PUSH32 0x0 DUP2 PUSH1 0x2 DUP2 MLOAD DUP2 LT PUSH2 0x10AA JUMPI INVALID JUMPDEST PUSH1 0x20 MUL PUSH1 0x20 ADD ADD DUP2 DUP2 MSTORE POP POP PUSH1 0x3 DUP3 GT ISZERO PUSH2 0x1027 JUMPI PUSH32 0x0 DUP2 PUSH1 0x3 DUP2 MLOAD DUP2 LT PUSH2 0x10ED JUMPI INVALID JUMPDEST PUSH1 0x20 MUL PUSH1 0x20 ADD ADD DUP2 DUP2 MSTORE POP POP PUSH1 0x4 DUP3 GT ISZERO PUSH2 0x1027 JUMPI PUSH32 0x0 DUP2 PUSH1 0x4 DUP2 MLOAD DUP2 LT PUSH2 0x1130 JUMPI INVALID JUMPDEST PUSH1 0x20 MUL PUSH1 0x20 ADD ADD DUP2 DUP2 MSTORE POP POP PUSH1 0x5 DUP3 GT ISZERO PUSH2 0x1027 JUMPI PUSH32 0x0 DUP2 PUSH1 0x5 DUP2 MLOAD DUP2 LT PUSH2 0x1173 JUMPI INVALID JUMPDEST PUSH1 0x20 MUL PUSH1 0x20 ADD ADD DUP2 DUP2 MSTORE POP POP PUSH1 0x6 DUP3 GT ISZERO PUSH2 0x1027 JUMPI PUSH32 0x0 DUP2 PUSH1 0x6 DUP2 MLOAD DUP2 LT PUSH2 0x11B6 JUMPI INVALID JUMPDEST PUSH1 0x20 MUL PUSH1 0x20 ADD ADD DUP2 DUP2 MSTORE POP POP PUSH1 0x7 DUP3 GT ISZERO PUSH2 0x1027 JUMPI PUSH32 0x0 DUP2 PUSH1 0x7 DUP2 MLOAD DUP2 LT PUSH2 0x11F9 JUMPI INVALID JUMPDEST PUSH1 0x20 MUL PUSH1 0x20 ADD ADD DUP2 DUP2 MSTORE POP POP SWAP2 POP POP SWAP1 JUMP JUMPDEST PUSH1 0x0 PUSH2 0x1217 DUP6 DUP4 PUSH2 0x1AE2 JUMP JUMPDEST PUSH2 0x1238 DUP7 PUSH1 0x60 ADD MLOAD DUP4 DUP6 DUP2 MLOAD DUP2 LT PUSH2 0x122B JUMPI INVALID JUMPDEST PUSH1 0x20 MUL PUSH1 0x20 ADD ADD MLOAD PUSH2 0x212C JUMP JUMPDEST PUSH1 0x60 DUP8 ADD MSTORE PUSH1 0x0 PUSH2 0x124B DUP8 DUP8 DUP8 DUP8 PUSH2 0x23CF JUMP JUMPDEST SWAP1 POP PUSH2 0x126A DUP2 DUP5 DUP8 DUP2 MLOAD DUP2 LT PUSH2 0x125D JUMPI INVALID JUMPDEST PUSH1 0x20 MUL PUSH1 0x20 ADD ADD MLOAD PUSH2 0x21B7 JUMP JUMPDEST SWAP1 POP PUSH2 0x1275 DUP2 PUSH2 0x21C3 JUMP JUMPDEST SWAP2 POP POP JUMPDEST SWAP6 SWAP5 POP POP POP POP POP JUMP JUMPDEST PUSH1 0x0 PUSH2 0x1291 DUP7 PUSH1 0x60 ADD MLOAD PUSH2 0x2108 JUMP JUMPDEST PUSH1 0x60 DUP8 ADD MSTORE PUSH2 0x12A0 DUP6 DUP4 PUSH2 0x1AE2 JUMP JUMPDEST PUSH2 0x12B4 DUP7 PUSH1 0x60 ADD MLOAD DUP4 DUP7 DUP2 MLOAD DUP2 LT PUSH2 0x122B JUMPI INVALID JUMPDEST PUSH1 0x60 DUP8 ADD MSTORE PUSH1 0x0 PUSH2 0x12C7 DUP8 DUP8 DUP8 DUP8 PUSH2 0x23F9 JUMP JUMPDEST SWAP1 POP PUSH2 0x1275 DUP2 DUP5 DUP7 DUP2 MLOAD DUP2 LT PUSH2 0x12D9 JUMPI INVALID JUMPDEST PUSH1 0x20 MUL PUSH1 0x20 ADD ADD MLOAD PUSH2 0x217C JUMP JUMPDEST PUSH1 0x1 PUSH1 0x1 PUSH1 0xA0 SHL SUB DUP1 DUP5 AND PUSH1 0x0 DUP2 DUP2 MSTORE PUSH1 0x1 PUSH1 0x20 SWAP1 DUP2 MSTORE PUSH1 0x40 DUP1 DUP4 KECCAK256 SWAP5 DUP8 AND DUP1 DUP5 MSTORE SWAP5 SWAP1 SWAP2 MSTORE SWAP1 DUP2 SWAP1 KECCAK256 DUP5 SWAP1 SSTORE MLOAD PUSH32 0x8C5BE1E5EBEC7D5BD14F71427D1E84F3DD0314C0F7B2291E5B200AC8C7C3B925 SWAP1 PUSH2 0x1341 SWAP1 DUP6 SWAP1 PUSH2 0x4306 JUMP JUMPDEST PUSH1 0x40 MLOAD DUP1 SWAP2 SUB SWAP1 LOG3 POP POP POP JUMP JUMPDEST PUSH1 0x0 PUSH2 0x1365 PUSH1 0x0 CALLDATALOAD PUSH1 0x1 PUSH1 0x1 PUSH1 0xE0 SHL SUB NOT AND PUSH2 0x9E6 JUMP JUMPDEST SWAP1 POP PUSH2 0x59B PUSH2 0x1374 DUP3 CALLER PUSH2 0x2423 JUMP JUMPDEST PUSH2 0x191 PUSH2 0x145F JUMP JUMPDEST DUP1 ISZERO PUSH2 0x139C JUMPI PUSH2 0x1397 PUSH2 0x138D PUSH2 0x1417 JUMP JUMPDEST TIMESTAMP LT PUSH2 0x193 PUSH2 0x145F JUMP JUMPDEST PUSH2 0x13B1 JUMP JUMPDEST PUSH2 0x13B1 PUSH2 0x13A7 PUSH2 0x143B JUMP JUMPDEST TIMESTAMP LT PUSH2 0x1A9 PUSH2 0x145F JUMP JUMPDEST PUSH1 0x7 DUP1 SLOAD PUSH1 0xFF NOT AND DUP3 ISZERO ISZERO OR SWAP1 SSTORE PUSH1 0x40 MLOAD PUSH32 0x9E3A5E37224532DEA67B89FACE185703738A228A6E8A23DEE546960180D3BE64 SWAP1 PUSH2 0x13EF SWAP1 DUP4 SWAP1 PUSH2 0x42E3 JUMP JUMPDEST PUSH1 0x40 MLOAD DUP1 SWAP2 SUB SWAP1 LOG1 POP JUMP JUMPDEST PUSH1 0x0 PUSH2 0x1404 PUSH2 0x143B JUMP JUMPDEST TIMESTAMP GT DUP1 PUSH2 0x739 JUMPI POP POP PUSH1 0x7 SLOAD PUSH1 0xFF AND ISZERO SWAP1 JUMP JUMPDEST PUSH32 0x0 SWAP1 JUMP JUMPDEST PUSH32 0x0 SWAP1 JUMP JUMPDEST DUP2 PUSH2 0x7D0 JUMPI PUSH2 0x7D0 DUP2 PUSH2 0x2513 JUMP JUMPDEST PUSH2 0x1484 PUSH1 0x1 PUSH1 0x1 PUSH1 0xA0 SHL SUB DUP5 AND ISZERO ISZERO PUSH2 0x198 PUSH2 0x145F JUMP JUMPDEST PUSH2 0x149B PUSH1 0x1 PUSH1 0x1 PUSH1 0xA0 SHL SUB DUP4 AND ISZERO ISZERO PUSH2 0x199 PUSH2 0x145F JUMP JUMPDEST PUSH2 0x14A6 DUP4 DUP4 DUP4 PUSH2 0xF8A JUMP JUMPDEST PUSH1 0x1 PUSH1 0x1 PUSH1 0xA0 SHL SUB DUP4 AND PUSH1 0x0 SWAP1 DUP2 MSTORE PUSH1 0x20 DUP2 SWAP1 MSTORE PUSH1 0x40 SWAP1 KECCAK256 SLOAD PUSH2 0x14CC SWAP1 DUP3 PUSH2 0x1A0 PUSH2 0x2566 JUMP JUMPDEST PUSH1 0x1 PUSH1 0x1 PUSH1 0xA0 SHL SUB DUP1 DUP6 AND PUSH1 0x0 SWAP1 DUP2 MSTORE PUSH1 0x20 DUP2 SWAP1 MSTORE PUSH1 0x40 DUP1 DUP3 KECCAK256 SWAP4 SWAP1 SWAP4 SSTORE SWAP1 DUP5 AND DUP2 MSTORE KECCAK256 SLOAD PUSH2 0x14FB SWAP1 DUP3 PUSH2 0x179E JUMP JUMPDEST PUSH1 0x1 PUSH1 0x1 PUSH1 0xA0 SHL SUB DUP1 DUP5 AND PUSH1 0x0 DUP2 DUP2 MSTORE PUSH1 0x20 DUP2 SWAP1 MSTORE PUSH1 0x40 SWAP1 DUP2 SWAP1 KECCAK256 SWAP4 SWAP1 SWAP4 SSTORE SWAP2 MLOAD SWAP1 DUP6 AND SWAP1 PUSH32 0xDDF252AD1BE2C89B69C2B068FC378DAA952BA7F163C4A11628F55A4DF523B3EF SWAP1 PUSH2 0x1341 SWAP1 DUP6 SWAP1 PUSH2 0x4306 JUMP JUMPDEST PUSH1 0x0 DUP1 PUSH1 0x0 DUP1 PUSH1 0x0 DUP1 PUSH2 0x155E PUSH2 0x257C JUMP JUMPDEST SWAP4 POP SWAP4 POP SWAP4 POP SWAP4 POP DUP1 TIMESTAMP LT ISZERO PUSH2 0x15B1 JUMPI PUSH1 0x1 SWAP5 POP DUP4 DUP4 GT ISZERO PUSH2 0x1595 JUMPI DUP2 DUP2 SUB DUP3 TIMESTAMP SUB DUP6 DUP6 SUB MUL DUP2 PUSH2 0x158B JUMPI INVALID JUMPDEST DIV DUP5 ADD SWAP6 POP PUSH2 0x15AC JUMP JUMPDEST DUP2 DUP2 SUB DUP3 TIMESTAMP SUB DUP5 DUP7 SUB MUL DUP2 PUSH2 0x15A6 JUMPI INVALID JUMPDEST DIV DUP5 SUB SWAP6 POP JUMPDEST PUSH2 0x15B9 JUMP JUMPDEST PUSH1 0x0 SWAP5 POP DUP3 SWAP6 POP JUMPDEST POP POP POP POP SWAP1 SWAP2 JUMP JUMPDEST PUSH1 0x0 PUSH2 0x15D0 DUP3 ISZERO ISZERO PUSH1 0x4 PUSH2 0x145F JUMP JUMPDEST DUP3 PUSH2 0x15DD JUMPI POP PUSH1 0x0 PUSH2 0x584 JUMP JUMPDEST DUP2 PUSH1 0x1 DUP5 SUB DUP2 PUSH2 0x15E9 JUMPI INVALID JUMPDEST DIV PUSH1 0x1 ADD SWAP1 POP PUSH2 0x584 JUMP JUMPDEST PUSH2 0x1608 DUP2 PUSH1 0x1 PUSH1 0x1 PUSH1 0x40 SHL SUB AND PUSH1 0xC0 PUSH2 0xF4A JUMP JUMPDEST PUSH2 0x161C DUP4 PUSH1 0x1 PUSH1 0x1 PUSH1 0x40 SHL SUB AND PUSH1 0x80 PUSH2 0xF4A JUMP JUMPDEST PUSH2 0x1630 DUP6 PUSH1 0x1 PUSH1 0x1 PUSH1 0x40 SHL SUB AND PUSH1 0x40 PUSH2 0xF4A JUMP JUMPDEST PUSH2 0x1644 DUP8 PUSH1 0x1 PUSH1 0x1 PUSH1 0x40 SHL SUB AND PUSH1 0x0 PUSH2 0xF4A JUMP JUMPDEST OR OR OR PUSH1 0x9 SSTORE PUSH1 0x40 MLOAD PUSH32 0x1835882EE7A34AC194F717A35E09BB1D24C82A3B9D854AB6C9749525B714CDF2 SWAP1 PUSH2 0x1680 SWAP1 DUP7 SWAP1 DUP7 SWAP1 DUP7 SWAP1 DUP7 SWAP1 PUSH2 0x441E JUMP JUMPDEST PUSH1 0x40 MLOAD DUP1 SWAP2 SUB SWAP1 LOG1 POP POP POP POP JUMP JUMPDEST PUSH1 0x0 PUSH32 0x0 PUSH32 0x0 PUSH32 0x0 PUSH2 0x16FB PUSH2 0x25D3 JUMP JUMPDEST ADDRESS PUSH1 0x40 MLOAD PUSH1 0x20 ADD PUSH2 0x1710 SWAP6 SWAP5 SWAP4 SWAP3 SWAP2 SWAP1 PUSH2 0x4362 JUMP JUMPDEST PUSH1 0x40 MLOAD PUSH1 0x20 DUP2 DUP4 SUB SUB DUP2 MSTORE SWAP1 PUSH1 0x40 MSTORE DUP1 MLOAD SWAP1 PUSH1 0x20 ADD KECCAK256 SWAP1 POP SWAP1 JUMP JUMPDEST PUSH2 0x173E PUSH2 0x1736 PUSH2 0x13FA JUMP JUMPDEST PUSH2 0x192 PUSH2 0x145F JUMP JUMPDEST JUMP JUMPDEST PUSH2 0x1753 PUSH5 0xE8D4A51000 DUP3 LT ISZERO PUSH1 0xCB PUSH2 0x145F JUMP JUMPDEST PUSH2 0x1769 PUSH8 0x16345785D8A0000 DUP3 GT ISZERO PUSH1 0xCA PUSH2 0x145F JUMP JUMPDEST PUSH1 0x8 DUP2 SWAP1 SSTORE PUSH1 0x40 MLOAD PUSH32 0xA9BA3FFE0B6C366B81232CAAB38605A0699AD5398D6CCE76F91EE809E322DAFC SWAP1 PUSH2 0x13EF SWAP1 DUP4 SWAP1 PUSH2 0x4306 JUMP JUMPDEST PUSH1 0x0 DUP3 DUP3 ADD PUSH2 0x63C DUP5 DUP3 LT ISZERO DUP4 PUSH2 0x145F JUMP JUMPDEST PUSH1 0x0 PUSH2 0x17BA PUSH2 0x757 JUMP JUMPDEST SWAP1 POP PUSH1 0x0 PUSH2 0x17C6 PUSH2 0xA82 JUMP JUMPDEST PUSH1 0x1 PUSH1 0x1 PUSH1 0xA0 SHL SUB AND PUSH4 0xB05F8E48 DUP4 DUP7 PUSH1 0x40 MLOAD DUP4 PUSH4 0xFFFFFFFF AND PUSH1 0xE0 SHL DUP2 MSTORE PUSH1 0x4 ADD PUSH2 0x17F3 SWAP3 SWAP2 SWAP1 PUSH2 0x43A7 JUMP JUMPDEST PUSH1 0x80 PUSH1 0x40 MLOAD DUP1 DUP4 SUB DUP2 DUP7 DUP1 EXTCODESIZE ISZERO DUP1 ISZERO PUSH2 0x180B JUMPI PUSH1 0x0 DUP1 REVERT JUMPDEST POP GAS STATICCALL ISZERO DUP1 ISZERO PUSH2 0x181F JUMPI RETURNDATASIZE PUSH1 0x0 DUP1 RETURNDATACOPY RETURNDATASIZE PUSH1 0x0 REVERT JUMPDEST POP POP POP POP PUSH1 0x40 MLOAD RETURNDATASIZE PUSH1 0x1F NOT PUSH1 0x1F DUP3 ADD AND DUP3 ADD DUP1 PUSH1 0x40 MSTORE POP DUP2 ADD SWAP1 PUSH2 0x1843 SWAP2 SWAP1 PUSH2 0x41A2 JUMP JUMPDEST PUSH1 0x40 MLOAD PUSH4 0x639CDB5 PUSH1 0xE2 SHL DUP2 MSTORE SWAP1 SWAP5 POP PUSH1 0x1 PUSH1 0x1 PUSH1 0xA0 SHL SUB DUP6 AND SWAP4 POP PUSH4 0x18E736D4 SWAP3 POP PUSH2 0x1877 SWAP2 POP DUP6 SWAP1 DUP8 SWAP1 PUSH1 0x4 ADD PUSH2 0x438E JUMP JUMPDEST PUSH1 0x0 PUSH1 0x40 MLOAD DUP1 DUP4 SUB DUP2 PUSH1 0x0 DUP8 DUP1 EXTCODESIZE ISZERO DUP1 ISZERO PUSH2 0x1891 JUMPI PUSH1 0x0 DUP1 REVERT JUMPDEST POP GAS CALL ISZERO DUP1 ISZERO PUSH2 0x18A5 JUMPI RETURNDATASIZE PUSH1 0x0 DUP1 RETURNDATACOPY RETURNDATASIZE PUSH1 0x0 REVERT JUMPDEST POP POP POP POP POP POP POP POP JUMP JUMPDEST PUSH2 0x7D0 DUP2 DUP4 EQ PUSH1 0x67 PUSH2 0x145F JUMP JUMPDEST PUSH1 0x0 PUSH1 0x60 DUP1 PUSH2 0x18C9 PUSH2 0x13FA JUMP JUMPDEST ISZERO PUSH2 0x18EC JUMPI PUSH2 0x18D8 DUP9 DUP8 PUSH2 0x25D7 JUMP JUMPDEST SWAP1 POP PUSH2 0x18E7 DUP9 DUP3 PUSH2 0xF34 PUSH2 0x26C4 JUMP JUMPDEST PUSH2 0x1937 JUMP JUMPDEST PUSH2 0x18F4 PUSH2 0xF4E JUMP JUMPDEST PUSH1 0x1 PUSH1 0x1 PUSH1 0x40 SHL SUB DUP2 GT DUP1 ISZERO PUSH2 0x1909 JUMPI PUSH1 0x0 DUP1 REVERT JUMPDEST POP PUSH1 0x40 MLOAD SWAP1 DUP1 DUP3 MSTORE DUP1 PUSH1 0x20 MUL PUSH1 0x20 ADD DUP3 ADD PUSH1 0x40 MSTORE DUP1 ISZERO PUSH2 0x1933 JUMPI DUP2 PUSH1 0x20 ADD PUSH1 0x20 DUP3 MUL DUP1 CALLDATASIZE DUP4 CALLDATACOPY ADD SWAP1 POP JUMPDEST POP SWAP1 POP JUMPDEST PUSH2 0x1942 DUP9 DUP7 DUP7 PUSH2 0x272F JUMP JUMPDEST SWAP1 SWAP4 POP SWAP2 POP PUSH2 0x1951 DUP9 DUP4 PUSH2 0x279B JUMP JUMPDEST SWAP9 POP SWAP9 POP SWAP9 SWAP6 POP POP POP POP POP POP JUMP JUMPDEST PUSH1 0x0 JUMPDEST PUSH2 0x196A PUSH2 0xF4E JUMP JUMPDEST DUP2 LT ISZERO PUSH2 0xF8A JUMPI PUSH2 0x19A1 DUP4 DUP3 DUP2 MLOAD DUP2 LT PUSH2 0x1980 JUMPI INVALID JUMPDEST PUSH1 0x20 MUL PUSH1 0x20 ADD ADD MLOAD DUP4 DUP4 DUP2 MLOAD DUP2 LT PUSH2 0x1994 JUMPI INVALID JUMPDEST PUSH1 0x20 MUL PUSH1 0x20 ADD ADD MLOAD PUSH2 0x1CDF JUMP JUMPDEST DUP4 DUP3 DUP2 MLOAD DUP2 LT PUSH2 0x19AD JUMPI INVALID JUMPDEST PUSH1 0x20 SWAP1 DUP2 MUL SWAP2 SWAP1 SWAP2 ADD ADD MSTORE PUSH1 0x1 ADD PUSH2 0x1962 JUMP JUMPDEST CALLER ADDRESS EQ PUSH2 0x1A7E JUMPI PUSH1 0x0 ADDRESS PUSH1 0x1 PUSH1 0x1 PUSH1 0xA0 SHL SUB AND PUSH1 0x0 CALLDATASIZE PUSH1 0x40 MLOAD PUSH2 0x19E4 SWAP3 SWAP2 SWAP1 PUSH2 0x427F JUMP JUMPDEST PUSH1 0x0 PUSH1 0x40 MLOAD DUP1 DUP4 SUB DUP2 PUSH1 0x0 DUP7 GAS CALL SWAP2 POP POP RETURNDATASIZE DUP1 PUSH1 0x0 DUP2 EQ PUSH2 0x1A21 JUMPI PUSH1 0x40 MLOAD SWAP2 POP PUSH1 0x1F NOT PUSH1 0x3F RETURNDATASIZE ADD AND DUP3 ADD PUSH1 0x40 MSTORE RETURNDATASIZE DUP3 MSTORE RETURNDATASIZE PUSH1 0x0 PUSH1 0x20 DUP5 ADD RETURNDATACOPY PUSH2 0x1A26 JUMP JUMPDEST PUSH1 0x60 SWAP2 POP JUMPDEST POP POP SWAP1 POP DUP1 PUSH1 0x0 DUP2 EQ PUSH2 0x1A35 JUMPI INVALID JUMPDEST PUSH1 0x4 PUSH1 0x0 DUP1 RETURNDATACOPY PUSH1 0x0 MLOAD PUSH1 0x1 PUSH1 0x1 PUSH1 0xE0 SHL SUB NOT AND PUSH4 0x43ADBAFB PUSH1 0xE0 SHL DUP2 EQ PUSH2 0x1A60 JUMPI RETURNDATASIZE PUSH1 0x0 DUP1 RETURNDATACOPY RETURNDATASIZE PUSH1 0x0 REVERT JUMPDEST POP PUSH1 0x20 PUSH1 0x4 PUSH1 0x0 RETURNDATACOPY PUSH1 0x40 PUSH1 0x20 MSTORE PUSH1 0x24 RETURNDATASIZE SUB PUSH1 0x24 PUSH1 0x40 RETURNDATACOPY PUSH1 0x1C RETURNDATASIZE ADD PUSH1 0x0 RETURN JUMPDEST PUSH1 0x0 PUSH2 0x1A88 PUSH2 0xF8F JUMP JUMPDEST SWAP1 POP PUSH2 0x1A94 DUP8 DUP3 PUSH2 0x1AE2 JUMP JUMPDEST PUSH1 0x0 DUP1 PUSH2 0x1AAB DUP13 DUP13 DUP13 DUP13 DUP13 DUP13 DUP10 DUP14 DUP14 PUSH4 0xFFFFFFFF AND JUMP JUMPDEST POP SWAP2 POP SWAP2 POP PUSH2 0x1ABE DUP2 DUP5 DUP7 PUSH4 0xFFFFFFFF AND JUMP JUMPDEST DUP1 MLOAD PUSH1 0x1F NOT DUP3 ADD DUP4 SWAP1 MSTORE PUSH4 0x43ADBAFB PUSH1 0x3F NOT DUP4 ADD MSTORE PUSH1 0x20 MUL PUSH1 0x23 NOT DUP3 ADD PUSH1 0x44 DUP3 ADD DUP2 REVERT JUMPDEST PUSH1 0x0 JUMPDEST PUSH2 0x1AED PUSH2 0xF4E JUMP JUMPDEST DUP2 LT ISZERO PUSH2 0xF8A JUMPI PUSH2 0x1B24 DUP4 DUP3 DUP2 MLOAD DUP2 LT PUSH2 0x1B03 JUMPI INVALID JUMPDEST PUSH1 0x20 MUL PUSH1 0x20 ADD ADD MLOAD DUP4 DUP4 DUP2 MLOAD DUP2 LT PUSH2 0x1B17 JUMPI INVALID JUMPDEST PUSH1 0x20 MUL PUSH1 0x20 ADD ADD MLOAD PUSH2 0x27CA JUMP JUMPDEST DUP4 DUP3 DUP2 MLOAD DUP2 LT PUSH2 0x1B30 JUMPI INVALID JUMPDEST PUSH1 0x20 SWAP1 DUP2 MUL SWAP2 SWAP1 SWAP2 ADD ADD MSTORE PUSH1 0x1 ADD PUSH2 0x1AE5 JUMP JUMPDEST DUP2 MLOAD PUSH1 0x0 SWAP1 DUP2 SWAP1 DUP2 JUMPDEST DUP2 DUP2 LT ISZERO PUSH2 0x1B84 JUMPI PUSH2 0x1B7A DUP7 DUP3 DUP2 MLOAD DUP2 LT PUSH2 0x1B63 JUMPI INVALID JUMPDEST PUSH1 0x20 MUL PUSH1 0x20 ADD ADD MLOAD DUP5 PUSH2 0x179E SWAP1 SWAP2 SWAP1 PUSH4 0xFFFFFFFF AND JUMP JUMPDEST SWAP3 POP PUSH1 0x1 ADD PUSH2 0x1B4C JUMP JUMPDEST POP DUP2 PUSH2 0x1B95 JUMPI PUSH1 0x0 SWAP3 POP POP POP PUSH2 0x63C JUMP JUMPDEST PUSH1 0x0 DUP3 DUP8 DUP4 MUL DUP3 JUMPDEST PUSH1 0xFF DUP2 LT ISZERO PUSH2 0x1CC7 JUMPI PUSH1 0x0 DUP6 DUP11 PUSH1 0x0 DUP2 MLOAD DUP2 LT PUSH2 0x1BB6 JUMPI INVALID JUMPDEST PUSH1 0x20 MUL PUSH1 0x20 ADD ADD MLOAD MUL SWAP1 POP PUSH1 0x0 PUSH1 0x1 SWAP1 POP JUMPDEST DUP7 DUP2 LT ISZERO PUSH2 0x1C0A JUMPI PUSH2 0x1C00 PUSH2 0x1BF9 PUSH2 0x1BF3 DUP5 DUP15 DUP6 DUP2 MLOAD DUP2 LT PUSH2 0x1BE6 JUMPI INVALID JUMPDEST PUSH1 0x20 MUL PUSH1 0x20 ADD ADD MLOAD PUSH2 0xF10 JUMP JUMPDEST DUP10 PUSH2 0xF10 JUMP JUMPDEST DUP7 DUP13 PUSH2 0x27F6 JUMP JUMPDEST SWAP2 POP PUSH1 0x1 ADD PUSH2 0x1BC8 JUMP JUMPDEST POP DUP4 SWAP5 POP PUSH2 0x1C7D PUSH2 0x1C4C PUSH2 0x1C33 PUSH2 0x1C2A PUSH2 0x1C24 DUP8 DUP13 PUSH2 0xF10 JUMP JUMPDEST DUP6 PUSH2 0xF10 JUMP JUMPDEST PUSH2 0x3E8 DUP14 PUSH2 0x27F6 JUMP JUMPDEST PUSH2 0x1C46 PUSH2 0x1C40 DUP11 DUP10 PUSH2 0xF10 JUMP JUMPDEST DUP9 PUSH2 0xF10 JUMP JUMPDEST SWAP1 PUSH2 0x179E JUMP JUMPDEST PUSH2 0x1C77 PUSH2 0x1C6A PUSH2 0x1C60 PUSH2 0x3E8 DUP9 SUB DUP7 PUSH2 0xF10 JUMP JUMPDEST PUSH2 0x3E8 DUP15 ISZERO PUSH2 0x27F6 JUMP JUMPDEST PUSH2 0x1C46 DUP11 PUSH1 0x1 ADD DUP10 PUSH2 0xF10 JUMP JUMPDEST DUP12 PUSH2 0x27F6 JUMP JUMPDEST SWAP4 POP DUP5 DUP5 GT ISZERO PUSH2 0x1CA5 JUMPI PUSH1 0x1 DUP6 DUP6 SUB GT PUSH2 0x1CA0 JUMPI DUP4 SWAP8 POP POP POP POP POP POP POP POP PUSH2 0x63C JUMP JUMPDEST PUSH2 0x1CBE JUMP JUMPDEST PUSH1 0x1 DUP5 DUP7 SUB GT PUSH2 0x1CBE JUMPI DUP4 SWAP8 POP POP POP POP POP POP POP POP PUSH2 0x63C JUMP JUMPDEST POP PUSH1 0x1 ADD PUSH2 0x1B9D JUMP JUMPDEST POP PUSH2 0x1CD3 PUSH2 0x142 PUSH2 0x2513 JUMP JUMPDEST POP POP POP POP POP SWAP4 SWAP3 POP POP POP JUMP JUMPDEST PUSH1 0x0 PUSH2 0x1CEE DUP3 ISZERO ISZERO PUSH1 0x4 PUSH2 0x145F JUMP JUMPDEST DUP3 PUSH2 0x1CFB JUMPI POP PUSH1 0x0 PUSH2 0x584 JUMP JUMPDEST PUSH8 0xDE0B6B3A7640000 DUP4 DUP2 MUL SWAP1 PUSH2 0x1D1E SWAP1 DUP6 DUP4 DUP2 PUSH2 0x1D15 JUMPI INVALID JUMPDEST DIV EQ PUSH1 0x5 PUSH2 0x145F JUMP JUMPDEST DUP3 DUP2 DUP2 PUSH2 0x1D27 JUMPI INVALID JUMPDEST DIV SWAP2 POP POP PUSH2 0x584 JUMP JUMPDEST PUSH2 0x7D0 DUP3 DUP3 PUSH2 0x2816 JUMP JUMPDEST PUSH1 0x0 PUSH1 0x60 DUP1 PUSH2 0x1D47 PUSH2 0x172B JUMP JUMPDEST PUSH1 0x0 PUSH2 0x1D53 DUP10 DUP9 PUSH2 0x25D7 JUMP JUMPDEST SWAP1 POP PUSH2 0x1D62 DUP10 DUP3 PUSH2 0xF34 PUSH2 0x26C4 JUMP JUMPDEST PUSH1 0x0 DUP1 PUSH2 0x1D70 DUP12 DUP10 DUP10 PUSH2 0x28D2 JUMP JUMPDEST SWAP2 POP SWAP2 POP PUSH2 0x1D7E DUP12 DUP3 PUSH2 0x292B JUMP JUMPDEST SWAP1 SWAP14 SWAP1 SWAP13 POP SWAP1 SWAP11 POP SWAP9 POP POP POP POP POP POP POP POP POP JUMP JUMPDEST PUSH1 0x0 JUMPDEST PUSH2 0x1D9D PUSH2 0xF4E JUMP JUMPDEST DUP2 LT ISZERO PUSH2 0xF8A JUMPI PUSH2 0x1DD4 DUP4 DUP3 DUP2 MLOAD DUP2 LT PUSH2 0x1DB3 JUMPI INVALID JUMPDEST PUSH1 0x20 MUL PUSH1 0x20 ADD ADD MLOAD DUP4 DUP4 DUP2 MLOAD DUP2 LT PUSH2 0x1DC7 JUMPI INVALID JUMPDEST PUSH1 0x20 MUL PUSH1 0x20 ADD ADD MLOAD PUSH2 0x2938 JUMP JUMPDEST DUP4 DUP3 DUP2 MLOAD DUP2 LT PUSH2 0x1DE0 JUMPI INVALID JUMPDEST PUSH1 0x20 SWAP1 DUP2 MUL SWAP2 SWAP1 SWAP2 ADD ADD MSTORE PUSH1 0x1 ADD PUSH2 0x1D95 JUMP JUMPDEST PUSH1 0x0 PUSH32 0x0 PUSH1 0x1 PUSH1 0x1 PUSH1 0xA0 SHL SUB AND DUP3 PUSH1 0x1 PUSH1 0x1 PUSH1 0xA0 SHL SUB AND EQ ISZERO PUSH2 0x1E56 JUMPI POP PUSH32 0x0 PUSH2 0x923 JUMP JUMPDEST PUSH32 0x0 PUSH1 0x1 PUSH1 0x1 PUSH1 0xA0 SHL SUB AND DUP3 PUSH1 0x1 PUSH1 0x1 PUSH1 0xA0 SHL SUB AND EQ ISZERO PUSH2 0x1EB7 JUMPI POP PUSH32 0x0 PUSH2 0x923 JUMP JUMPDEST PUSH32 0x0 PUSH1 0x1 PUSH1 0x1 PUSH1 0xA0 SHL SUB AND DUP3 PUSH1 0x1 PUSH1 0x1 PUSH1 0xA0 SHL SUB AND EQ ISZERO PUSH2 0x1F18 JUMPI POP PUSH32 0x0 PUSH2 0x923 JUMP JUMPDEST PUSH32 0x0 PUSH1 0x1 PUSH1 0x1 PUSH1 0xA0 SHL SUB AND DUP3 PUSH1 0x1 PUSH1 0x1 PUSH1 0xA0 SHL SUB AND EQ ISZERO PUSH2 0x1F79 JUMPI POP PUSH32 0x0 PUSH2 0x923 JUMP JUMPDEST PUSH32 0x0 PUSH1 0x1 PUSH1 0x1 PUSH1 0xA0 SHL SUB AND DUP3 PUSH1 0x1 PUSH1 0x1 PUSH1 0xA0 SHL SUB AND EQ ISZERO PUSH2 0x1FDA JUMPI POP PUSH32 0x0 PUSH2 0x923 JUMP JUMPDEST PUSH32 0x0 PUSH1 0x1 PUSH1 0x1 PUSH1 0xA0 SHL SUB AND DUP3 PUSH1 0x1 PUSH1 0x1 PUSH1 0xA0 SHL SUB AND EQ ISZERO PUSH2 0x203B JUMPI POP PUSH32 0x0 PUSH2 0x923 JUMP JUMPDEST PUSH32 0x0 PUSH1 0x1 PUSH1 0x1 PUSH1 0xA0 SHL SUB AND DUP3 PUSH1 0x1 PUSH1 0x1 PUSH1 0xA0 SHL SUB AND EQ ISZERO PUSH2 0x209C JUMPI POP PUSH32 0x0 PUSH2 0x923 JUMP JUMPDEST PUSH32 0x0 PUSH1 0x1 PUSH1 0x1 PUSH1 0xA0 SHL SUB AND DUP3 PUSH1 0x1 PUSH1 0x1 PUSH1 0xA0 SHL SUB AND EQ ISZERO PUSH2 0x20FD JUMPI POP PUSH32 0x0 PUSH2 0x923 JUMP JUMPDEST PUSH2 0x923 PUSH2 0x135 PUSH2 0x2513 JUMP JUMPDEST PUSH1 0x0 DUP1 PUSH2 0x2120 PUSH1 0x8 SLOAD DUP5 PUSH2 0x2986 SWAP1 SWAP2 SWAP1 PUSH4 0xFFFFFFFF AND JUMP JUMPDEST SWAP1 POP PUSH2 0x63C DUP4 DUP3 PUSH2 0xF34 JUMP JUMPDEST PUSH1 0x0 PUSH2 0x63C DUP4 DUP4 PUSH2 0x27CA JUMP JUMPDEST PUSH1 0x0 PUSH2 0x214F PUSH2 0x2145 PUSH2 0xF4E JUMP JUMPDEST PUSH1 0x2 EQ PUSH1 0xD2 PUSH2 0x145F JUMP JUMPDEST PUSH1 0x0 DUP1 PUSH1 0x0 PUSH2 0x215F DUP8 DUP8 DUP8 PUSH2 0x29C2 JUMP JUMPDEST SWAP3 POP SWAP3 POP SWAP3 POP PUSH2 0x2171 DUP8 DUP5 DUP5 DUP5 PUSH2 0x23F9 JUMP JUMPDEST SWAP8 SWAP7 POP POP POP POP POP POP POP JUMP JUMPDEST PUSH1 0x0 PUSH2 0x63C DUP4 DUP4 PUSH2 0x1CDF JUMP JUMPDEST PUSH1 0x0 PUSH2 0x2195 PUSH2 0x2145 PUSH2 0xF4E JUMP JUMPDEST PUSH1 0x0 DUP1 PUSH1 0x0 PUSH2 0x21A5 DUP8 DUP8 DUP8 PUSH2 0x29C2 JUMP JUMPDEST SWAP3 POP SWAP3 POP SWAP3 POP PUSH2 0x2171 DUP8 DUP5 DUP5 DUP5 PUSH2 0x23CF JUMP JUMPDEST PUSH1 0x0 PUSH2 0x63C DUP4 DUP4 PUSH2 0x2938 JUMP JUMPDEST PUSH1 0x0 PUSH2 0x584 PUSH2 0x21E5 PUSH1 0x8 SLOAD PUSH8 0xDE0B6B3A7640000 PUSH2 0xF34 SWAP1 SWAP2 SWAP1 PUSH4 0xFFFFFFFF AND JUMP JUMPDEST DUP4 SWAP1 PUSH2 0x2938 JUMP JUMPDEST PUSH1 0x0 PUSH2 0x21F6 PUSH2 0xA82 JUMP JUMPDEST PUSH1 0x1 PUSH1 0x1 PUSH1 0xA0 SHL SUB AND PUSH4 0xAAABADC5 PUSH1 0x40 MLOAD DUP2 PUSH4 0xFFFFFFFF AND PUSH1 0xE0 SHL DUP2 MSTORE PUSH1 0x4 ADD PUSH1 0x20 PUSH1 0x40 MLOAD DUP1 DUP4 SUB DUP2 DUP7 DUP1 EXTCODESIZE ISZERO DUP1 ISZERO PUSH2 0x222E JUMPI PUSH1 0x0 DUP1 REVERT JUMPDEST POP GAS STATICCALL ISZERO DUP1 ISZERO PUSH2 0x2242 JUMPI RETURNDATASIZE PUSH1 0x0 DUP1 RETURNDATACOPY RETURNDATASIZE PUSH1 0x0 REVERT JUMPDEST POP POP POP POP PUSH1 0x40 MLOAD RETURNDATASIZE PUSH1 0x1F NOT PUSH1 0x1F DUP3 ADD AND DUP3 ADD DUP1 PUSH1 0x40 MSTORE POP DUP2 ADD SWAP1 PUSH2 0x739 SWAP2 SWAP1 PUSH2 0x3F3C JUMP JUMPDEST PUSH1 0x0 PUSH2 0x2270 PUSH2 0x168E JUMP JUMPDEST DUP3 PUSH1 0x40 MLOAD PUSH1 0x20 ADD PUSH2 0xA1B SWAP3 SWAP2 SWAP1 PUSH2 0x428F JUMP JUMPDEST PUSH1 0x0 PUSH1 0x60 PUSH2 0x228E PUSH2 0x172B JUMP JUMPDEST PUSH1 0x0 PUSH2 0x2299 DUP5 PUSH2 0x2AAF JUMP JUMPDEST SWAP1 POP PUSH2 0x22B4 PUSH1 0x0 DUP3 PUSH1 0x2 DUP2 GT ISZERO PUSH2 0x22AC JUMPI INVALID JUMPDEST EQ PUSH1 0xCE PUSH2 0x145F JUMP JUMPDEST PUSH1 0x0 PUSH2 0x22BF DUP6 PUSH2 0x2AC5 JUMP JUMPDEST SWAP1 POP PUSH2 0x22CE DUP2 MLOAD PUSH2 0x7EB PUSH2 0xF4E JUMP JUMPDEST PUSH2 0x22D8 DUP2 DUP8 PUSH2 0x1AE2 JUMP JUMPDEST PUSH1 0x0 PUSH2 0x22E2 PUSH2 0x154D JUMP JUMPDEST POP SWAP1 POP PUSH1 0x0 PUSH2 0x22F3 DUP3 DUP5 PUSH1 0x1 PUSH2 0x1B43 JUMP JUMPDEST SWAP1 POP DUP1 PUSH2 0x2300 DUP2 DUP5 PUSH2 0x2ADB JUMP JUMPDEST SWAP12 SWAP3 SWAP11 POP SWAP2 SWAP9 POP POP POP POP POP POP POP POP POP JUMP JUMPDEST PUSH2 0x7D0 DUP3 DUP3 PUSH2 0x2AE6 JUMP JUMPDEST PUSH2 0x2327 DUP2 DUP3 TIMESTAMP TIMESTAMP PUSH2 0x15F4 JUMP JUMPDEST PUSH32 0xA0D01593E47E69D07E0CCD87BECE09411E07DD1ED40CA8F2E7AF2976542A0233 DUP2 PUSH1 0x40 MLOAD PUSH2 0x13EF SWAP2 SWAP1 PUSH2 0x4306 JUMP JUMPDEST PUSH1 0x2 DUP2 MLOAD LT ISZERO PUSH2 0x2365 JUMPI PUSH2 0x59B JUMP JUMPDEST PUSH1 0x0 DUP2 PUSH1 0x0 DUP2 MLOAD DUP2 LT PUSH2 0x2374 JUMPI INVALID JUMPDEST PUSH1 0x20 MUL PUSH1 0x20 ADD ADD MLOAD SWAP1 POP PUSH1 0x0 PUSH1 0x1 SWAP1 POP JUMPDEST DUP3 MLOAD DUP2 LT ISZERO PUSH2 0xF8A JUMPI PUSH1 0x0 DUP4 DUP3 DUP2 MLOAD DUP2 LT PUSH2 0x239C JUMPI INVALID JUMPDEST PUSH1 0x20 MUL PUSH1 0x20 ADD ADD MLOAD SWAP1 POP PUSH2 0x23C5 DUP2 PUSH1 0x1 PUSH1 0x1 PUSH1 0xA0 SHL SUB AND DUP5 PUSH1 0x1 PUSH1 0x1 PUSH1 0xA0 SHL SUB AND LT PUSH1 0x65 PUSH2 0x145F JUMP JUMPDEST SWAP2 POP PUSH1 0x1 ADD PUSH2 0x2385 JUMP JUMPDEST PUSH1 0x0 PUSH2 0x23D9 PUSH2 0x172B JUMP JUMPDEST PUSH1 0x0 PUSH2 0x23E3 PUSH2 0x154D JUMP JUMPDEST POP SWAP1 POP PUSH1 0x0 PUSH2 0x2171 DUP3 DUP8 DUP8 DUP8 DUP12 PUSH1 0x60 ADD MLOAD PUSH2 0x2B74 JUMP JUMPDEST PUSH1 0x0 PUSH2 0x2403 PUSH2 0x172B JUMP JUMPDEST PUSH1 0x0 PUSH2 0x240D PUSH2 0x154D JUMP JUMPDEST POP SWAP1 POP PUSH1 0x0 PUSH2 0x2171 DUP3 DUP8 DUP8 DUP8 DUP12 PUSH1 0x60 ADD MLOAD PUSH2 0x2C38 JUMP JUMPDEST PUSH1 0x0 PUSH20 0xBA1BA1BA1BA1BA1BA1BA1BA1BA1BA1BA1BA1BA1B PUSH2 0x2442 PUSH2 0xA5E JUMP JUMPDEST PUSH1 0x1 PUSH1 0x1 PUSH1 0xA0 SHL SUB AND EQ ISZERO DUP1 ISZERO PUSH2 0x245D JUMPI POP PUSH2 0x245D DUP4 PUSH2 0x2CE0 JUMP JUMPDEST ISZERO PUSH2 0x2485 JUMPI PUSH2 0x246A PUSH2 0xA5E JUMP JUMPDEST PUSH1 0x1 PUSH1 0x1 PUSH1 0xA0 SHL SUB AND CALLER PUSH1 0x1 PUSH1 0x1 PUSH1 0xA0 SHL SUB AND EQ SWAP1 POP PUSH2 0x584 JUMP JUMPDEST PUSH2 0x248D PUSH2 0x21EC JUMP JUMPDEST PUSH1 0x1 PUSH1 0x1 PUSH1 0xA0 SHL SUB AND PUSH4 0x9BE2A884 DUP5 DUP5 ADDRESS PUSH1 0x40 MLOAD DUP5 PUSH4 0xFFFFFFFF AND PUSH1 0xE0 SHL DUP2 MSTORE PUSH1 0x4 ADD PUSH2 0x24BC SWAP4 SWAP3 SWAP2 SWAP1 PUSH2 0x430F JUMP JUMPDEST PUSH1 0x20 PUSH1 0x40 MLOAD DUP1 DUP4 SUB DUP2 DUP7 DUP1 EXTCODESIZE ISZERO DUP1 ISZERO PUSH2 0x24D4 JUMPI PUSH1 0x0 DUP1 REVERT JUMPDEST POP GAS STATICCALL ISZERO DUP1 ISZERO PUSH2 0x24E8 JUMPI RETURNDATASIZE PUSH1 0x0 DUP1 RETURNDATACOPY RETURNDATASIZE PUSH1 0x0 REVERT JUMPDEST POP POP POP POP PUSH1 0x40 MLOAD RETURNDATASIZE PUSH1 0x1F NOT PUSH1 0x1F DUP3 ADD AND DUP3 ADD DUP1 PUSH1 0x40 MSTORE POP DUP2 ADD SWAP1 PUSH2 0x250C SWAP2 SWAP1 PUSH2 0x3E56 JUMP JUMPDEST SWAP1 POP PUSH2 0x584 JUMP JUMPDEST PUSH3 0x461BCD PUSH1 0xE5 SHL PUSH1 0x0 SWAP1 DUP2 MSTORE PUSH1 0x20 PUSH1 0x4 MSTORE PUSH1 0x7 PUSH1 0x24 MSTORE PUSH7 0x42414C23000030 PUSH1 0xA DUP1 DUP5 DIV DUP2 DUP2 MOD PUSH1 0x30 SWAP1 DUP2 ADD PUSH1 0x8 SHL SWAP6 DUP4 SWAP1 MOD SWAP6 SWAP1 SWAP6 ADD SWAP1 DUP3 SWAP1 DIV SWAP2 DUP3 MOD SWAP1 SWAP5 ADD PUSH1 0x10 SHL SWAP4 SWAP1 SWAP4 ADD ADD PUSH1 0xC8 SHL PUSH1 0x44 MSTORE PUSH1 0x64 SWAP1 REVERT JUMPDEST PUSH1 0x0 PUSH2 0x2575 DUP5 DUP5 GT ISZERO DUP4 PUSH2 0x145F JUMP JUMPDEST POP POP SWAP1 SUB SWAP1 JUMP JUMPDEST PUSH1 0x0 DUP1 PUSH1 0x0 DUP1 PUSH2 0x2598 PUSH1 0x0 PUSH1 0x9 SLOAD PUSH2 0x2D1C SWAP1 SWAP2 SWAP1 PUSH4 0xFFFFFFFF AND JUMP JUMPDEST PUSH1 0x9 SLOAD SWAP1 SWAP5 POP PUSH2 0x25A9 SWAP1 PUSH1 0x40 PUSH2 0x2D1C JUMP JUMPDEST PUSH1 0x9 SLOAD SWAP1 SWAP4 POP PUSH2 0x25BA SWAP1 PUSH1 0x80 PUSH2 0x2D1C JUMP JUMPDEST PUSH1 0x9 SLOAD SWAP1 SWAP3 POP PUSH2 0x25CB SWAP1 PUSH1 0xC0 PUSH2 0x2D1C JUMP JUMPDEST SWAP1 POP SWAP1 SWAP2 SWAP3 SWAP4 JUMP JUMPDEST CHAINID SWAP1 JUMP JUMPDEST PUSH1 0x60 PUSH1 0x0 PUSH2 0x25E3 PUSH2 0xF4E JUMP JUMPDEST PUSH1 0x1 PUSH1 0x1 PUSH1 0x40 SHL SUB DUP2 GT DUP1 ISZERO PUSH2 0x25F8 JUMPI PUSH1 0x0 DUP1 REVERT JUMPDEST POP PUSH1 0x40 MLOAD SWAP1 DUP1 DUP3 MSTORE DUP1 PUSH1 0x20 MUL PUSH1 0x20 ADD DUP3 ADD PUSH1 0x40 MSTORE DUP1 ISZERO PUSH2 0x2622 JUMPI DUP2 PUSH1 0x20 ADD PUSH1 0x20 DUP3 MUL DUP1 CALLDATASIZE DUP4 CALLDATACOPY ADD SWAP1 POP JUMPDEST POP SWAP1 POP DUP3 PUSH2 0x2631 JUMPI SWAP1 POP PUSH2 0x584 JUMP JUMPDEST PUSH1 0x0 DUP1 DUP6 PUSH1 0x0 DUP2 MLOAD DUP2 LT PUSH2 0x2641 JUMPI INVALID JUMPDEST PUSH1 0x20 MUL PUSH1 0x20 ADD ADD MLOAD SWAP1 POP PUSH1 0x0 PUSH1 0x1 SWAP1 POP JUMPDEST PUSH2 0x265A PUSH2 0xF4E JUMP JUMPDEST DUP2 LT ISZERO PUSH2 0x2691 JUMPI PUSH1 0x0 DUP8 DUP3 DUP2 MLOAD DUP2 LT PUSH2 0x266F JUMPI INVALID JUMPDEST PUSH1 0x20 MUL PUSH1 0x20 ADD ADD MLOAD SWAP1 POP DUP3 DUP2 GT ISZERO PUSH2 0x2688 JUMPI DUP2 SWAP4 POP DUP1 SWAP3 POP JUMPDEST POP PUSH1 0x1 ADD PUSH2 0x2652 JUMP JUMPDEST POP PUSH2 0x26A3 PUSH1 0xB SLOAD DUP8 PUSH1 0xA SLOAD DUP6 DUP10 PUSH2 0x2D29 JUMP JUMPDEST DUP4 DUP4 DUP2 MLOAD DUP2 LT PUSH2 0x26AF JUMPI INVALID JUMPDEST PUSH1 0x20 SWAP1 DUP2 MUL SWAP2 SWAP1 SWAP2 ADD ADD MSTORE POP SWAP1 SWAP5 SWAP4 POP POP POP POP JUMP JUMPDEST PUSH1 0x0 JUMPDEST PUSH2 0x26CF PUSH2 0xF4E JUMP JUMPDEST DUP2 LT ISZERO PUSH2 0x2729 JUMPI PUSH2 0x270A DUP5 DUP3 DUP2 MLOAD DUP2 LT PUSH2 0x26E5 JUMPI INVALID JUMPDEST PUSH1 0x20 MUL PUSH1 0x20 ADD ADD MLOAD DUP5 DUP4 DUP2 MLOAD DUP2 LT PUSH2 0x26F9 JUMPI INVALID JUMPDEST PUSH1 0x20 MUL PUSH1 0x20 ADD ADD MLOAD DUP5 PUSH4 0xFFFFFFFF AND JUMP JUMPDEST DUP5 DUP3 DUP2 MLOAD DUP2 LT PUSH2 0x2716 JUMPI INVALID JUMPDEST PUSH1 0x20 SWAP1 DUP2 MUL SWAP2 SWAP1 SWAP2 ADD ADD MSTORE PUSH1 0x1 ADD PUSH2 0x26C7 JUMP JUMPDEST POP POP POP POP JUMP JUMPDEST PUSH1 0x0 PUSH1 0x60 PUSH1 0x0 PUSH2 0x273E DUP5 PUSH2 0x2AAF JUMP JUMPDEST SWAP1 POP PUSH1 0x0 DUP2 PUSH1 0x2 DUP2 GT ISZERO PUSH2 0x274E JUMPI INVALID JUMPDEST EQ ISZERO PUSH2 0x2768 JUMPI PUSH2 0x275E DUP7 DUP6 PUSH2 0x2D9D JUMP JUMPDEST SWAP3 POP SWAP3 POP POP PUSH2 0x2793 JUMP JUMPDEST PUSH1 0x1 DUP2 PUSH1 0x2 DUP2 GT ISZERO PUSH2 0x2776 JUMPI INVALID JUMPDEST EQ ISZERO PUSH2 0x2786 JUMPI PUSH2 0x275E DUP7 DUP6 PUSH2 0x2E62 JUMP JUMPDEST PUSH2 0x275E DUP7 DUP7 DUP7 PUSH2 0x2E94 JUMP JUMPDEST POP JUMPDEST SWAP4 POP SWAP4 SWAP2 POP POP JUMP JUMPDEST PUSH2 0x27A8 DUP3 DUP3 PUSH2 0xF34 PUSH2 0x26C4 JUMP JUMPDEST PUSH1 0x0 PUSH2 0x27B2 PUSH2 0x154D JUMP JUMPDEST POP SWAP1 POP PUSH2 0xF8A PUSH2 0x27C4 DUP3 DUP6 PUSH1 0x1 PUSH2 0x1B43 JUMP JUMPDEST DUP3 PUSH2 0x2ADB JUMP JUMPDEST PUSH1 0x0 DUP3 DUP3 MUL PUSH2 0x27E4 DUP5 ISZERO DUP1 PUSH2 0xF2D JUMPI POP DUP4 DUP6 DUP4 DUP2 PUSH2 0xF2A JUMPI INVALID JUMPDEST PUSH8 0xDE0B6B3A7640000 SWAP1 DIV SWAP4 SWAP3 POP POP POP JUMP JUMPDEST PUSH1 0x0 DUP2 PUSH2 0x280C JUMPI PUSH2 0x2807 DUP5 DUP5 PUSH2 0x2F0A JUMP JUMPDEST PUSH2 0x4D4 JUMP JUMPDEST PUSH2 0x4D4 DUP5 DUP5 PUSH2 0x15C1 JUMP JUMPDEST PUSH2 0x282D PUSH1 0x1 PUSH1 0x1 PUSH1 0xA0 SHL SUB DUP4 AND ISZERO ISZERO PUSH2 0x19B PUSH2 0x145F JUMP JUMPDEST PUSH2 0x2839 DUP3 PUSH1 0x0 DUP4 PUSH2 0xF8A JUMP JUMPDEST PUSH1 0x1 PUSH1 0x1 PUSH1 0xA0 SHL SUB DUP3 AND PUSH1 0x0 SWAP1 DUP2 MSTORE PUSH1 0x20 DUP2 SWAP1 MSTORE PUSH1 0x40 SWAP1 KECCAK256 SLOAD PUSH2 0x285F SWAP1 DUP3 PUSH2 0x1A1 PUSH2 0x2566 JUMP JUMPDEST PUSH1 0x1 PUSH1 0x1 PUSH1 0xA0 SHL SUB DUP4 AND PUSH1 0x0 SWAP1 DUP2 MSTORE PUSH1 0x20 DUP2 SWAP1 MSTORE PUSH1 0x40 SWAP1 KECCAK256 SSTORE PUSH1 0x2 SLOAD PUSH2 0x2885 SWAP1 DUP3 PUSH2 0x2F2A JUMP JUMPDEST PUSH1 0x2 SSTORE PUSH1 0x40 MLOAD PUSH1 0x0 SWAP1 PUSH1 0x1 PUSH1 0x1 PUSH1 0xA0 SHL SUB DUP5 AND SWAP1 PUSH32 0xDDF252AD1BE2C89B69C2B068FC378DAA952BA7F163C4A11628F55A4DF523B3EF SWAP1 PUSH2 0x28C6 SWAP1 DUP6 SWAP1 PUSH2 0x4306 JUMP JUMPDEST PUSH1 0x40 MLOAD DUP1 SWAP2 SUB SWAP1 LOG3 POP POP JUMP JUMPDEST PUSH1 0x0 PUSH1 0x60 PUSH1 0x0 PUSH2 0x28E1 DUP5 PUSH2 0x2AAF JUMP JUMPDEST SWAP1 POP PUSH1 0x1 DUP2 PUSH1 0x2 DUP2 GT ISZERO PUSH2 0x28F1 JUMPI INVALID JUMPDEST EQ ISZERO PUSH2 0x2902 JUMPI PUSH2 0x275E DUP7 DUP7 DUP7 PUSH2 0x2F38 JUMP JUMPDEST PUSH1 0x2 DUP2 PUSH1 0x2 DUP2 GT ISZERO PUSH2 0x2910 JUMPI INVALID JUMPDEST EQ ISZERO PUSH2 0x2920 JUMPI PUSH2 0x275E DUP7 DUP6 PUSH2 0x2F9D JUMP JUMPDEST PUSH2 0x2791 PUSH2 0x136 PUSH2 0x2513 JUMP JUMPDEST PUSH2 0x27A8 DUP3 DUP3 PUSH2 0x179E PUSH2 0x26C4 JUMP JUMPDEST PUSH1 0x0 PUSH2 0x2947 DUP3 ISZERO ISZERO PUSH1 0x4 PUSH2 0x145F JUMP JUMPDEST DUP3 PUSH2 0x2954 JUMPI POP PUSH1 0x0 PUSH2 0x584 JUMP JUMPDEST PUSH8 0xDE0B6B3A7640000 DUP4 DUP2 MUL SWAP1 PUSH2 0x296E SWAP1 DUP6 DUP4 DUP2 PUSH2 0x1D15 JUMPI INVALID JUMPDEST DUP3 PUSH1 0x1 DUP3 SUB DUP2 PUSH2 0x297A JUMPI INVALID JUMPDEST DIV PUSH1 0x1 ADD SWAP2 POP POP PUSH2 0x584 JUMP JUMPDEST PUSH1 0x0 DUP3 DUP3 MUL PUSH2 0x29A0 DUP5 ISZERO DUP1 PUSH2 0xF2D JUMPI POP DUP4 DUP6 DUP4 DUP2 PUSH2 0xF2A JUMPI INVALID JUMPDEST DUP1 PUSH2 0x29AF JUMPI PUSH1 0x0 SWAP2 POP POP PUSH2 0x584 JUMP JUMPDEST PUSH8 0xDE0B6B3A7640000 PUSH1 0x0 NOT DUP3 ADD PUSH2 0x297A JUMP JUMPDEST PUSH1 0x40 DUP1 MLOAD PUSH1 0x2 DUP1 DUP3 MSTORE PUSH1 0x60 DUP3 DUP2 ADD SWAP1 SWAP4 MSTORE PUSH1 0x0 SWAP2 DUP3 SWAP2 DUP2 PUSH1 0x20 ADD PUSH1 0x20 DUP3 MUL DUP1 CALLDATASIZE DUP4 CALLDATACOPY ADD SWAP1 POP POP SWAP3 POP DUP6 PUSH1 0x20 ADD MLOAD PUSH1 0x1 PUSH1 0x1 PUSH1 0xA0 SHL SUB AND PUSH32 0x0 PUSH1 0x1 PUSH1 0x1 PUSH1 0xA0 SHL SUB AND EQ ISZERO PUSH2 0x2A69 JUMPI PUSH1 0x0 SWAP2 POP PUSH1 0x1 SWAP1 POP DUP5 DUP4 PUSH1 0x0 DUP2 MLOAD DUP2 LT PUSH2 0x2A3E JUMPI INVALID JUMPDEST PUSH1 0x20 MUL PUSH1 0x20 ADD ADD DUP2 DUP2 MSTORE POP POP DUP4 DUP4 PUSH1 0x1 DUP2 MLOAD DUP2 LT PUSH2 0x2A58 JUMPI INVALID JUMPDEST PUSH1 0x20 MUL PUSH1 0x20 ADD ADD DUP2 DUP2 MSTORE POP POP PUSH2 0x2AA6 JUMP JUMPDEST PUSH1 0x0 SWAP1 POP PUSH1 0x1 SWAP2 POP DUP4 DUP4 PUSH1 0x0 DUP2 MLOAD DUP2 LT PUSH2 0x2A7F JUMPI INVALID JUMPDEST PUSH1 0x20 MUL PUSH1 0x20 ADD ADD DUP2 DUP2 MSTORE POP POP DUP5 DUP4 PUSH1 0x1 DUP2 MLOAD DUP2 LT PUSH2 0x2A99 JUMPI INVALID JUMPDEST PUSH1 0x20 MUL PUSH1 0x20 ADD ADD DUP2 DUP2 MSTORE POP POP JUMPDEST SWAP4 POP SWAP4 POP SWAP4 SWAP1 POP JUMP JUMPDEST PUSH1 0x0 DUP2 DUP1 PUSH1 0x20 ADD SWAP1 MLOAD DUP2 ADD SWAP1 PUSH2 0x584 SWAP2 SWAP1 PUSH2 0x3FA5 JUMP JUMPDEST PUSH1 0x60 DUP2 DUP1 PUSH1 0x20 ADD SWAP1 MLOAD DUP2 ADD SWAP1 PUSH2 0x63C SWAP2 SWAP1 PUSH2 0x406A JUMP JUMPDEST PUSH1 0xA SWAP2 SWAP1 SWAP2 SSTORE PUSH1 0xB SSTORE JUMP JUMPDEST PUSH2 0x2AF2 PUSH1 0x0 DUP4 DUP4 PUSH2 0xF8A JUMP JUMPDEST PUSH1 0x2 SLOAD PUSH2 0x2AFF SWAP1 DUP3 PUSH2 0x179E JUMP JUMPDEST PUSH1 0x2 SSTORE PUSH1 0x1 PUSH1 0x1 PUSH1 0xA0 SHL SUB DUP3 AND PUSH1 0x0 SWAP1 DUP2 MSTORE PUSH1 0x20 DUP2 SWAP1 MSTORE PUSH1 0x40 SWAP1 KECCAK256 SLOAD PUSH2 0x2B25 SWAP1 DUP3 PUSH2 0x179E JUMP JUMPDEST PUSH1 0x1 PUSH1 0x1 PUSH1 0xA0 SHL SUB DUP4 AND PUSH1 0x0 DUP2 DUP2 MSTORE PUSH1 0x20 DUP2 SWAP1 MSTORE PUSH1 0x40 DUP1 DUP3 KECCAK256 SWAP4 SWAP1 SWAP4 SSTORE SWAP2 MLOAD SWAP1 SWAP2 SWAP1 PUSH32 0xDDF252AD1BE2C89B69C2B068FC378DAA952BA7F163C4A11628F55A4DF523B3EF SWAP1 PUSH2 0x28C6 SWAP1 DUP6 SWAP1 PUSH2 0x4306 JUMP JUMPDEST PUSH1 0x0 DUP1 PUSH2 0x2B83 DUP8 DUP8 PUSH1 0x1 PUSH2 0x1B43 JUMP JUMPDEST SWAP1 POP PUSH2 0x2BAB DUP4 DUP8 DUP7 DUP2 MLOAD DUP2 LT PUSH2 0x2B95 JUMPI INVALID JUMPDEST PUSH1 0x20 MUL PUSH1 0x20 ADD ADD MLOAD PUSH2 0xF34 SWAP1 SWAP2 SWAP1 PUSH4 0xFFFFFFFF AND JUMP JUMPDEST DUP7 DUP6 DUP2 MLOAD DUP2 LT PUSH2 0x2BB7 JUMPI INVALID JUMPDEST PUSH1 0x20 MUL PUSH1 0x20 ADD ADD DUP2 DUP2 MSTORE POP POP PUSH1 0x0 PUSH2 0x2BD1 DUP9 DUP9 DUP5 DUP10 PUSH2 0x302C JUMP JUMPDEST SWAP1 POP DUP4 DUP8 DUP7 DUP2 MLOAD DUP2 LT PUSH2 0x2BE0 JUMPI INVALID JUMPDEST PUSH1 0x20 MUL PUSH1 0x20 ADD ADD MLOAD ADD DUP8 DUP7 DUP2 MLOAD DUP2 LT PUSH2 0x2BF5 JUMPI INVALID JUMPDEST PUSH1 0x20 MUL PUSH1 0x20 ADD ADD DUP2 DUP2 MSTORE POP POP PUSH2 0x2C2C PUSH1 0x1 PUSH2 0x1C46 DUP10 DUP10 DUP2 MLOAD DUP2 LT PUSH2 0x2C15 JUMPI INVALID JUMPDEST PUSH1 0x20 MUL PUSH1 0x20 ADD ADD MLOAD DUP5 PUSH2 0xF34 SWAP1 SWAP2 SWAP1 PUSH4 0xFFFFFFFF AND JUMP JUMPDEST SWAP9 SWAP8 POP POP POP POP POP POP POP POP JUMP JUMPDEST PUSH1 0x0 DUP1 PUSH2 0x2C47 DUP8 DUP8 PUSH1 0x1 PUSH2 0x1B43 JUMP JUMPDEST SWAP1 POP PUSH2 0x2C6F DUP4 DUP8 DUP8 DUP2 MLOAD DUP2 LT PUSH2 0x2C59 JUMPI INVALID JUMPDEST PUSH1 0x20 MUL PUSH1 0x20 ADD ADD MLOAD PUSH2 0x179E SWAP1 SWAP2 SWAP1 PUSH4 0xFFFFFFFF AND JUMP JUMPDEST DUP7 DUP7 DUP2 MLOAD DUP2 LT PUSH2 0x2C7B JUMPI INVALID JUMPDEST PUSH1 0x20 MUL PUSH1 0x20 ADD ADD DUP2 DUP2 MSTORE POP POP PUSH1 0x0 PUSH2 0x2C95 DUP9 DUP9 DUP5 DUP9 PUSH2 0x302C JUMP JUMPDEST SWAP1 POP DUP4 DUP8 DUP8 DUP2 MLOAD DUP2 LT PUSH2 0x2CA4 JUMPI INVALID JUMPDEST PUSH1 0x20 MUL PUSH1 0x20 ADD ADD MLOAD SUB DUP8 DUP8 DUP2 MLOAD DUP2 LT PUSH2 0x2CB9 JUMPI INVALID JUMPDEST PUSH1 0x20 MUL PUSH1 0x20 ADD ADD DUP2 DUP2 MSTORE POP POP PUSH2 0x2C2C PUSH1 0x1 PUSH2 0x2CDA DUP4 DUP11 DUP10 DUP2 MLOAD DUP2 LT PUSH2 0x2B95 JUMPI INVALID JUMPDEST SWAP1 PUSH2 0xF34 JUMP JUMPDEST PUSH1 0x0 PUSH2 0x2CF2 PUSH4 0x2F1A0BC9 PUSH1 0xE0 SHL PUSH2 0x9E6 JUMP JUMPDEST DUP3 EQ DUP1 PUSH2 0x2D0D JUMPI POP PUSH2 0x2D0A PUSH4 0x7587926B PUSH1 0xE1 SHL PUSH2 0x9E6 JUMP JUMPDEST DUP3 EQ JUMPDEST DUP1 PUSH2 0x584 JUMPI POP PUSH2 0x584 DUP3 PUSH2 0x31DC JUMP JUMPDEST SHR PUSH1 0x1 PUSH1 0x1 PUSH1 0x40 SHL SUB AND SWAP1 JUMP JUMPDEST PUSH1 0x0 DUP1 PUSH2 0x2D38 DUP8 DUP8 DUP8 DUP8 PUSH2 0x302C JUMP JUMPDEST SWAP1 POP DUP1 DUP7 DUP6 DUP2 MLOAD DUP2 LT PUSH2 0x2D47 JUMPI INVALID JUMPDEST PUSH1 0x20 MUL PUSH1 0x20 ADD ADD MLOAD GT PUSH2 0x2D5E JUMPI PUSH1 0x0 SWAP2 POP POP PUSH2 0x1279 JUMP JUMPDEST PUSH1 0x0 DUP2 DUP8 DUP7 DUP2 MLOAD DUP2 LT PUSH2 0x2D6D JUMPI INVALID JUMPDEST PUSH1 0x20 MUL PUSH1 0x20 ADD ADD MLOAD SUB SWAP1 POP PUSH2 0x2C2C PUSH8 0xDE0B6B3A7640000 PUSH2 0x2D97 DUP7 DUP5 PUSH2 0x27CA SWAP1 SWAP2 SWAP1 PUSH4 0xFFFFFFFF AND JUMP JUMPDEST SWAP1 PUSH2 0x1CDF JUMP JUMPDEST PUSH1 0x0 PUSH1 0x60 PUSH2 0x2DA9 PUSH2 0x172B JUMP JUMPDEST PUSH1 0x0 DUP1 PUSH2 0x2DB5 DUP6 PUSH2 0x320E JUMP JUMPDEST SWAP2 POP SWAP2 POP PUSH2 0x2DCD PUSH2 0x2DC4 PUSH2 0xF4E JUMP JUMPDEST DUP3 LT PUSH1 0x64 PUSH2 0x145F JUMP JUMPDEST PUSH1 0x0 PUSH2 0x2DD7 PUSH2 0xF4E JUMP JUMPDEST PUSH1 0x1 PUSH1 0x1 PUSH1 0x40 SHL SUB DUP2 GT DUP1 ISZERO PUSH2 0x2DEC JUMPI PUSH1 0x0 DUP1 REVERT JUMPDEST POP PUSH1 0x40 MLOAD SWAP1 DUP1 DUP3 MSTORE DUP1 PUSH1 0x20 MUL PUSH1 0x20 ADD DUP3 ADD PUSH1 0x40 MSTORE DUP1 ISZERO PUSH2 0x2E16 JUMPI DUP2 PUSH1 0x20 ADD PUSH1 0x20 DUP3 MUL DUP1 CALLDATASIZE DUP4 CALLDATACOPY ADD SWAP1 POP JUMPDEST POP SWAP1 POP PUSH1 0x0 PUSH2 0x2E23 PUSH2 0x154D JUMP JUMPDEST POP SWAP1 POP PUSH2 0x2E3D DUP2 DUP10 DUP6 DUP8 PUSH2 0x2E35 PUSH2 0x59E JUMP JUMPDEST PUSH1 0x8 SLOAD PUSH2 0x3230 JUMP JUMPDEST DUP3 DUP5 DUP2 MLOAD DUP2 LT PUSH2 0x2E49 JUMPI INVALID JUMPDEST PUSH1 0x20 SWAP1 DUP2 MUL SWAP2 SWAP1 SWAP2 ADD ADD MSTORE POP SWAP2 SWAP7 SWAP2 SWAP6 POP SWAP1 SWAP4 POP POP POP POP JUMP JUMPDEST PUSH1 0x0 PUSH1 0x60 PUSH1 0x0 PUSH2 0x2E71 DUP5 PUSH2 0x334C JUMP JUMPDEST SWAP1 POP PUSH1 0x0 PUSH2 0x2E87 DUP7 DUP4 PUSH2 0x2E82 PUSH2 0x59E JUMP JUMPDEST PUSH2 0x3362 JUMP JUMPDEST SWAP2 SWAP7 SWAP2 SWAP6 POP SWAP1 SWAP4 POP POP POP POP JUMP JUMPDEST PUSH1 0x0 PUSH1 0x60 PUSH2 0x2EA0 PUSH2 0x172B JUMP JUMPDEST PUSH1 0x0 DUP1 PUSH2 0x2EAC DUP6 PUSH2 0x3413 JUMP JUMPDEST SWAP2 POP SWAP2 POP PUSH2 0x2EBD DUP3 MLOAD PUSH2 0x7EB PUSH2 0xF4E JUMP JUMPDEST PUSH2 0x2EC7 DUP3 DUP8 PUSH2 0x1AE2 JUMP JUMPDEST PUSH1 0x0 PUSH2 0x2ED1 PUSH2 0x154D JUMP JUMPDEST POP SWAP1 POP PUSH1 0x0 PUSH2 0x2EEC DUP3 DUP11 DUP7 PUSH2 0x2EE4 PUSH2 0x59E JUMP JUMPDEST PUSH1 0x8 SLOAD PUSH2 0x342B JUMP JUMPDEST SWAP1 POP PUSH2 0x2EFC DUP4 DUP3 GT ISZERO PUSH1 0xCF PUSH2 0x145F JUMP JUMPDEST SWAP9 SWAP3 SWAP8 POP SWAP2 SWAP6 POP POP POP POP POP POP JUMP JUMPDEST PUSH1 0x0 PUSH2 0x2F19 DUP3 ISZERO ISZERO PUSH1 0x4 PUSH2 0x145F JUMP JUMPDEST DUP2 DUP4 DUP2 PUSH2 0x2F22 JUMPI INVALID JUMPDEST DIV SWAP4 SWAP3 POP POP POP JUMP JUMPDEST PUSH1 0x0 PUSH2 0x63C DUP4 DUP4 PUSH1 0x1 PUSH2 0x2566 JUMP JUMPDEST PUSH1 0x0 PUSH1 0x60 PUSH1 0x0 DUP1 PUSH2 0x2F48 DUP6 PUSH2 0x3413 JUMP JUMPDEST SWAP2 POP SWAP2 POP PUSH2 0x2F5E PUSH2 0x2F57 PUSH2 0xF4E JUMP JUMPDEST DUP4 MLOAD PUSH2 0x18AF JUMP JUMPDEST PUSH2 0x2F68 DUP3 DUP8 PUSH2 0x1AE2 JUMP JUMPDEST PUSH1 0x0 PUSH2 0x2F72 PUSH2 0x154D JUMP JUMPDEST POP SWAP1 POP PUSH1 0x0 PUSH2 0x2F8D DUP3 DUP11 DUP7 PUSH2 0x2F85 PUSH2 0x59E JUMP JUMPDEST PUSH1 0x8 SLOAD PUSH2 0x36BF JUMP JUMPDEST SWAP1 POP PUSH2 0x2EFC DUP4 DUP3 LT ISZERO PUSH1 0xD0 PUSH2 0x145F JUMP JUMPDEST PUSH1 0x0 PUSH1 0x60 PUSH1 0x0 DUP1 PUSH2 0x2FAD DUP6 PUSH2 0x320E JUMP JUMPDEST SWAP2 POP SWAP2 POP PUSH2 0x2FBC PUSH2 0x2DC4 PUSH2 0xF4E JUMP JUMPDEST PUSH1 0x0 PUSH2 0x2FC6 PUSH2 0xF4E JUMP JUMPDEST PUSH1 0x1 PUSH1 0x1 PUSH1 0x40 SHL SUB DUP2 GT DUP1 ISZERO PUSH2 0x2FDB JUMPI PUSH1 0x0 DUP1 REVERT JUMPDEST POP PUSH1 0x40 MLOAD SWAP1 DUP1 DUP3 MSTORE DUP1 PUSH1 0x20 MUL PUSH1 0x20 ADD DUP3 ADD PUSH1 0x40 MSTORE DUP1 ISZERO PUSH2 0x3005 JUMPI DUP2 PUSH1 0x20 ADD PUSH1 0x20 DUP3 MUL DUP1 CALLDATASIZE DUP4 CALLDATACOPY ADD SWAP1 POP JUMPDEST POP SWAP1 POP PUSH1 0x0 PUSH2 0x3012 PUSH2 0x154D JUMP JUMPDEST POP SWAP1 POP PUSH2 0x2E3D DUP2 DUP10 DUP6 DUP8 PUSH2 0x3024 PUSH2 0x59E JUMP JUMPDEST PUSH1 0x8 SLOAD PUSH2 0x3935 JUMP JUMPDEST PUSH1 0x0 DUP1 DUP5 MLOAD DUP7 MUL SWAP1 POP PUSH1 0x0 DUP6 PUSH1 0x0 DUP2 MLOAD DUP2 LT PUSH2 0x3044 JUMPI INVALID JUMPDEST PUSH1 0x20 MUL PUSH1 0x20 ADD ADD MLOAD SWAP1 POP PUSH1 0x0 DUP7 MLOAD DUP8 PUSH1 0x0 DUP2 MLOAD DUP2 LT PUSH2 0x305F JUMPI INVALID JUMPDEST PUSH1 0x20 MUL PUSH1 0x20 ADD ADD MLOAD MUL SWAP1 POP PUSH1 0x0 PUSH1 0x1 SWAP1 POP JUMPDEST DUP8 MLOAD DUP2 LT ISZERO PUSH2 0x30B8 JUMPI PUSH2 0x309D PUSH2 0x3097 PUSH2 0x3090 DUP5 DUP12 DUP6 DUP2 MLOAD DUP2 LT PUSH2 0x1BE6 JUMPI INVALID JUMPDEST DUP11 MLOAD PUSH2 0xF10 JUMP JUMPDEST DUP9 PUSH2 0x2F0A JUMP JUMPDEST SWAP2 POP PUSH2 0x30AE DUP9 DUP3 DUP2 MLOAD DUP2 LT PUSH2 0x1B63 JUMPI INVALID JUMPDEST SWAP3 POP PUSH1 0x1 ADD PUSH2 0x3071 JUMP JUMPDEST POP DUP7 DUP6 DUP2 MLOAD DUP2 LT PUSH2 0x30C5 JUMPI INVALID JUMPDEST PUSH1 0x20 MUL PUSH1 0x20 ADD ADD MLOAD DUP3 SUB SWAP2 POP PUSH1 0x0 PUSH2 0x30DD DUP8 DUP9 PUSH2 0xF10 JUMP JUMPDEST SWAP1 POP PUSH1 0x0 PUSH2 0x3109 PUSH2 0x30FD PUSH2 0x30F5 DUP5 PUSH2 0x6DB DUP10 DUP9 PUSH2 0xF10 JUMP JUMPDEST PUSH2 0x3E8 PUSH2 0xF10 JUMP JUMPDEST DUP11 DUP10 DUP2 MLOAD DUP2 LT PUSH2 0x1BE6 JUMPI INVALID JUMPDEST SWAP1 POP PUSH1 0x0 PUSH2 0x3124 PUSH2 0x311D PUSH2 0x30F5 DUP12 DUP10 PUSH2 0x2F0A JUMP JUMPDEST DUP7 SWAP1 PUSH2 0x179E JUMP JUMPDEST SWAP1 POP PUSH1 0x0 DUP1 PUSH2 0x3140 PUSH2 0x3136 DUP7 DUP7 PUSH2 0x179E JUMP JUMPDEST PUSH2 0x6DB DUP14 DUP7 PUSH2 0x179E JUMP JUMPDEST SWAP1 POP PUSH1 0x0 JUMPDEST PUSH1 0xFF DUP2 LT ISZERO PUSH2 0x31C0 JUMPI DUP2 SWAP3 POP PUSH2 0x3175 PUSH2 0x3162 DUP7 PUSH2 0x1C46 DUP6 DUP7 PUSH2 0xF10 JUMP JUMPDEST PUSH2 0x6DB DUP15 PUSH2 0x2CDA DUP9 PUSH2 0x1C46 DUP9 PUSH1 0x2 PUSH2 0xF10 JUMP JUMPDEST SWAP2 POP DUP3 DUP3 GT ISZERO PUSH2 0x319E JUMPI PUSH1 0x1 DUP4 DUP4 SUB GT PUSH2 0x3199 JUMPI POP SWAP8 POP PUSH2 0x4D4 SWAP7 POP POP POP POP POP POP POP JUMP JUMPDEST PUSH2 0x31B8 JUMP JUMPDEST PUSH1 0x1 DUP3 DUP5 SUB GT PUSH2 0x31B8 JUMPI POP SWAP8 POP PUSH2 0x4D4 SWAP7 POP POP POP POP POP POP POP JUMP JUMPDEST PUSH1 0x1 ADD PUSH2 0x3145 JUMP JUMPDEST POP PUSH2 0x31CC PUSH2 0x142 PUSH2 0x2513 JUMP JUMPDEST POP POP POP POP POP POP POP POP SWAP5 SWAP4 POP POP POP POP JUMP JUMPDEST PUSH1 0x0 PUSH2 0x31EE PUSH4 0x1C74C917 PUSH1 0xE1 SHL PUSH2 0x9E6 JUMP JUMPDEST DUP3 EQ DUP1 PUSH2 0x584 JUMPI POP PUSH2 0x3206 PUSH4 0x50DD6ED9 PUSH1 0xE0 SHL PUSH2 0x9E6 JUMP JUMPDEST SWAP1 SWAP2 EQ SWAP2 SWAP1 POP JUMP JUMPDEST PUSH1 0x0 DUP1 DUP3 DUP1 PUSH1 0x20 ADD SWAP1 MLOAD DUP2 ADD SWAP1 PUSH2 0x3225 SWAP2 SWAP1 PUSH2 0x4034 JUMP JUMPDEST SWAP1 SWAP6 SWAP1 SWAP5 POP SWAP3 POP POP POP JUMP JUMPDEST PUSH1 0x0 DUP1 PUSH2 0x323F DUP9 DUP9 PUSH1 0x1 PUSH2 0x1B43 JUMP JUMPDEST SWAP1 POP PUSH1 0x0 PUSH2 0x3261 DUP3 PUSH2 0x325B DUP8 PUSH2 0x3255 DUP2 DUP12 PUSH2 0xF34 JUMP JUMPDEST SWAP1 PUSH2 0x2938 JUMP JUMPDEST SWAP1 PUSH2 0x2986 JUMP JUMPDEST SWAP1 POP PUSH1 0x0 PUSH2 0x3271 DUP11 DUP11 DUP5 DUP12 PUSH2 0x302C JUMP JUMPDEST SWAP1 POP PUSH1 0x0 PUSH2 0x3285 DUP3 DUP12 DUP12 DUP2 MLOAD DUP2 LT PUSH2 0x2B95 JUMPI INVALID JUMPDEST SWAP1 POP PUSH1 0x0 DUP1 JUMPDEST DUP12 MLOAD DUP2 LT ISZERO PUSH2 0x32C4 JUMPI PUSH2 0x32BA DUP13 DUP3 DUP2 MLOAD DUP2 LT PUSH2 0x32A3 JUMPI INVALID JUMPDEST PUSH1 0x20 MUL PUSH1 0x20 ADD ADD MLOAD DUP4 PUSH2 0x179E SWAP1 SWAP2 SWAP1 PUSH4 0xFFFFFFFF AND JUMP JUMPDEST SWAP2 POP PUSH1 0x1 ADD PUSH2 0x328B JUMP JUMPDEST POP PUSH1 0x0 PUSH2 0x32ED DUP3 DUP14 DUP14 DUP2 MLOAD DUP2 LT PUSH2 0x32D7 JUMPI INVALID JUMPDEST PUSH1 0x20 MUL PUSH1 0x20 ADD ADD MLOAD PUSH2 0x1CDF SWAP1 SWAP2 SWAP1 PUSH4 0xFFFFFFFF AND JUMP JUMPDEST SWAP1 POP PUSH1 0x0 PUSH2 0x32FA DUP3 PUSH2 0x3A12 JUMP JUMPDEST SWAP1 POP PUSH1 0x0 PUSH2 0x3308 DUP6 DUP4 PUSH2 0x2986 JUMP JUMPDEST SWAP1 POP PUSH1 0x0 PUSH2 0x3316 DUP7 DUP4 PUSH2 0xF34 JUMP JUMPDEST SWAP1 POP PUSH2 0x3337 PUSH2 0x3330 DUP4 PUSH8 0xDE0B6B3A7640000 DUP15 SWAP1 SUB PUSH2 0x27CA JUMP JUMPDEST DUP3 SWAP1 PUSH2 0x179E JUMP JUMPDEST SWAP10 POP POP POP POP POP POP POP POP POP POP SWAP7 SWAP6 POP POP POP POP POP POP JUMP JUMPDEST PUSH1 0x0 DUP2 DUP1 PUSH1 0x20 ADD SWAP1 MLOAD DUP2 ADD SWAP1 PUSH2 0x63C SWAP2 SWAP1 PUSH2 0x4007 JUMP JUMPDEST PUSH1 0x60 PUSH1 0x0 PUSH2 0x3370 DUP5 DUP5 PUSH2 0x1CDF JUMP JUMPDEST SWAP1 POP PUSH1 0x0 DUP6 MLOAD PUSH1 0x1 PUSH1 0x1 PUSH1 0x40 SHL SUB DUP2 GT DUP1 ISZERO PUSH2 0x338B JUMPI PUSH1 0x0 DUP1 REVERT JUMPDEST POP PUSH1 0x40 MLOAD SWAP1 DUP1 DUP3 MSTORE DUP1 PUSH1 0x20 MUL PUSH1 0x20 ADD DUP3 ADD PUSH1 0x40 MSTORE DUP1 ISZERO PUSH2 0x33B5 JUMPI DUP2 PUSH1 0x20 ADD PUSH1 0x20 DUP3 MUL DUP1 CALLDATASIZE DUP4 CALLDATACOPY ADD SWAP1 POP JUMPDEST POP SWAP1 POP PUSH1 0x0 JUMPDEST DUP7 MLOAD DUP2 LT ISZERO PUSH2 0x3409 JUMPI PUSH2 0x33EA DUP4 DUP9 DUP4 DUP2 MLOAD DUP2 LT PUSH2 0x33D4 JUMPI INVALID JUMPDEST PUSH1 0x20 MUL PUSH1 0x20 ADD ADD MLOAD PUSH2 0x27CA SWAP1 SWAP2 SWAP1 PUSH4 0xFFFFFFFF AND JUMP JUMPDEST DUP3 DUP3 DUP2 MLOAD DUP2 LT PUSH2 0x33F6 JUMPI INVALID JUMPDEST PUSH1 0x20 SWAP1 DUP2 MUL SWAP2 SWAP1 SWAP2 ADD ADD MSTORE PUSH1 0x1 ADD PUSH2 0x33BB JUMP JUMPDEST POP SWAP6 SWAP5 POP POP POP POP POP JUMP JUMPDEST PUSH1 0x60 PUSH1 0x0 DUP3 DUP1 PUSH1 0x20 ADD SWAP1 MLOAD DUP2 ADD SWAP1 PUSH2 0x3225 SWAP2 SWAP1 PUSH2 0x3FC1 JUMP JUMPDEST PUSH1 0x0 DUP1 DUP1 JUMPDEST DUP7 MLOAD DUP2 LT ISZERO PUSH2 0x3452 JUMPI PUSH2 0x3448 DUP8 DUP3 DUP2 MLOAD DUP2 LT PUSH2 0x32A3 JUMPI INVALID JUMPDEST SWAP2 POP PUSH1 0x1 ADD PUSH2 0x3430 JUMP JUMPDEST POP PUSH1 0x0 DUP6 MLOAD PUSH1 0x1 PUSH1 0x1 PUSH1 0x40 SHL SUB DUP2 GT DUP1 ISZERO PUSH2 0x346C JUMPI PUSH1 0x0 DUP1 REVERT JUMPDEST POP PUSH1 0x40 MLOAD SWAP1 DUP1 DUP3 MSTORE DUP1 PUSH1 0x20 MUL PUSH1 0x20 ADD DUP3 ADD PUSH1 0x40 MSTORE DUP1 ISZERO PUSH2 0x3496 JUMPI DUP2 PUSH1 0x20 ADD PUSH1 0x20 DUP3 MUL DUP1 CALLDATASIZE DUP4 CALLDATACOPY ADD SWAP1 POP JUMPDEST POP SWAP1 POP PUSH1 0x0 DUP1 JUMPDEST DUP9 MLOAD DUP2 LT ISZERO PUSH2 0x355D JUMPI PUSH1 0x0 PUSH2 0x34CE DUP6 DUP12 DUP5 DUP2 MLOAD DUP2 LT PUSH2 0x34B8 JUMPI INVALID JUMPDEST PUSH1 0x20 MUL PUSH1 0x20 ADD ADD MLOAD PUSH2 0x2938 SWAP1 SWAP2 SWAP1 PUSH4 0xFFFFFFFF AND JUMP JUMPDEST SWAP1 POP PUSH2 0x350A DUP11 DUP4 DUP2 MLOAD DUP2 LT PUSH2 0x34DF JUMPI INVALID JUMPDEST PUSH1 0x20 MUL PUSH1 0x20 ADD ADD MLOAD PUSH2 0x3255 DUP12 DUP6 DUP2 MLOAD DUP2 LT PUSH2 0x34F6 JUMPI INVALID JUMPDEST PUSH1 0x20 MUL PUSH1 0x20 ADD ADD MLOAD DUP14 DUP7 DUP2 MLOAD DUP2 LT PUSH2 0x2B95 JUMPI INVALID JUMPDEST DUP5 DUP4 DUP2 MLOAD DUP2 LT PUSH2 0x3516 JUMPI INVALID JUMPDEST PUSH1 0x20 MUL PUSH1 0x20 ADD ADD DUP2 DUP2 MSTORE POP POP PUSH2 0x3552 PUSH2 0x354B DUP3 DUP7 DUP6 DUP2 MLOAD DUP2 LT PUSH2 0x3535 JUMPI INVALID JUMPDEST PUSH1 0x20 MUL PUSH1 0x20 ADD ADD MLOAD PUSH2 0x2986 SWAP1 SWAP2 SWAP1 PUSH4 0xFFFFFFFF AND JUMP JUMPDEST DUP5 SWAP1 PUSH2 0x179E JUMP JUMPDEST SWAP3 POP POP PUSH1 0x1 ADD PUSH2 0x349D JUMP JUMPDEST POP PUSH1 0x0 DUP9 MLOAD PUSH1 0x1 PUSH1 0x1 PUSH1 0x40 SHL SUB DUP2 GT DUP1 ISZERO PUSH2 0x3577 JUMPI PUSH1 0x0 DUP1 REVERT JUMPDEST POP PUSH1 0x40 MLOAD SWAP1 DUP1 DUP3 MSTORE DUP1 PUSH1 0x20 MUL PUSH1 0x20 ADD DUP3 ADD PUSH1 0x40 MSTORE DUP1 ISZERO PUSH2 0x35A1 JUMPI DUP2 PUSH1 0x20 ADD PUSH1 0x20 DUP3 MUL DUP1 CALLDATASIZE DUP4 CALLDATACOPY ADD SWAP1 POP JUMPDEST POP SWAP1 POP PUSH1 0x0 JUMPDEST DUP10 MLOAD DUP2 LT ISZERO PUSH2 0x366C JUMPI PUSH1 0x0 DUP5 DUP3 DUP2 MLOAD DUP2 LT PUSH2 0x35BE JUMPI INVALID JUMPDEST PUSH1 0x20 MUL PUSH1 0x20 ADD ADD MLOAD DUP5 GT ISZERO PUSH2 0x3625 JUMPI PUSH1 0x0 PUSH2 0x35E7 PUSH2 0x35DB DUP7 PUSH2 0x3A12 JUMP JUMPDEST DUP14 DUP6 DUP2 MLOAD DUP2 LT PUSH2 0x33D4 JUMPI INVALID JUMPDEST SWAP1 POP PUSH1 0x0 PUSH2 0x35FB DUP3 DUP14 DUP7 DUP2 MLOAD DUP2 LT PUSH2 0x2B95 JUMPI INVALID JUMPDEST SWAP1 POP PUSH2 0x361C PUSH2 0x3615 DUP3 PUSH8 0xDE0B6B3A7640000 DUP14 SWAP1 SUB PUSH2 0x2938 JUMP JUMPDEST DUP4 SWAP1 PUSH2 0x179E JUMP JUMPDEST SWAP3 POP POP POP PUSH2 0x363C JUMP JUMPDEST DUP10 DUP3 DUP2 MLOAD DUP2 LT PUSH2 0x3631 JUMPI INVALID JUMPDEST PUSH1 0x20 MUL PUSH1 0x20 ADD ADD MLOAD SWAP1 POP JUMPDEST PUSH2 0x364C DUP2 DUP13 DUP5 DUP2 MLOAD DUP2 LT PUSH2 0x2B95 JUMPI INVALID JUMPDEST DUP4 DUP4 DUP2 MLOAD DUP2 LT PUSH2 0x3658 JUMPI INVALID JUMPDEST PUSH1 0x20 SWAP1 DUP2 MUL SWAP2 SWAP1 SWAP2 ADD ADD MSTORE POP PUSH1 0x1 ADD PUSH2 0x35A7 JUMP JUMPDEST POP PUSH1 0x0 PUSH2 0x367B DUP12 DUP12 PUSH1 0x1 PUSH2 0x1B43 JUMP JUMPDEST SWAP1 POP PUSH1 0x0 PUSH2 0x368B DUP13 DUP5 PUSH1 0x0 PUSH2 0x1B43 JUMP JUMPDEST SWAP1 POP PUSH1 0x0 PUSH2 0x3699 DUP3 DUP5 PUSH2 0x1CDF JUMP JUMPDEST SWAP1 POP PUSH2 0x36AE PUSH2 0x36A7 DUP3 PUSH2 0x3A12 JUMP JUMPDEST DUP12 SWAP1 PUSH2 0x2986 JUMP JUMPDEST SWAP14 SWAP13 POP POP POP POP POP POP POP POP POP POP POP POP POP JUMP JUMPDEST PUSH1 0x0 DUP1 DUP1 JUMPDEST DUP7 MLOAD DUP2 LT ISZERO PUSH2 0x36E6 JUMPI PUSH2 0x36DC DUP8 DUP3 DUP2 MLOAD DUP2 LT PUSH2 0x32A3 JUMPI INVALID JUMPDEST SWAP2 POP PUSH1 0x1 ADD PUSH2 0x36C4 JUMP JUMPDEST POP PUSH1 0x0 DUP6 MLOAD PUSH1 0x1 PUSH1 0x1 PUSH1 0x40 SHL SUB DUP2 GT DUP1 ISZERO PUSH2 0x3700 JUMPI PUSH1 0x0 DUP1 REVERT JUMPDEST POP PUSH1 0x40 MLOAD SWAP1 DUP1 DUP3 MSTORE DUP1 PUSH1 0x20 MUL PUSH1 0x20 ADD DUP3 ADD PUSH1 0x40 MSTORE DUP1 ISZERO PUSH2 0x372A JUMPI DUP2 PUSH1 0x20 ADD PUSH1 0x20 DUP3 MUL DUP1 CALLDATASIZE DUP4 CALLDATACOPY ADD SWAP1 POP JUMPDEST POP SWAP1 POP PUSH1 0x0 DUP1 JUMPDEST DUP9 MLOAD DUP2 LT ISZERO PUSH2 0x37BE JUMPI PUSH1 0x0 PUSH2 0x374C DUP6 DUP12 DUP5 DUP2 MLOAD DUP2 LT PUSH2 0x32D7 JUMPI INVALID JUMPDEST SWAP1 POP PUSH2 0x3788 DUP11 DUP4 DUP2 MLOAD DUP2 LT PUSH2 0x375D JUMPI INVALID JUMPDEST PUSH1 0x20 MUL PUSH1 0x20 ADD ADD MLOAD PUSH2 0x2D97 DUP12 DUP6 DUP2 MLOAD DUP2 LT PUSH2 0x3774 JUMPI INVALID JUMPDEST PUSH1 0x20 MUL PUSH1 0x20 ADD ADD MLOAD DUP14 DUP7 DUP2 MLOAD DUP2 LT PUSH2 0x2C59 JUMPI INVALID JUMPDEST DUP5 DUP4 DUP2 MLOAD DUP2 LT PUSH2 0x3794 JUMPI INVALID JUMPDEST PUSH1 0x20 MUL PUSH1 0x20 ADD ADD DUP2 DUP2 MSTORE POP POP PUSH2 0x37B3 PUSH2 0x354B DUP3 DUP7 DUP6 DUP2 MLOAD DUP2 LT PUSH2 0x33D4 JUMPI INVALID JUMPDEST SWAP3 POP POP PUSH1 0x1 ADD PUSH2 0x3731 JUMP JUMPDEST POP PUSH1 0x0 DUP9 MLOAD PUSH1 0x1 PUSH1 0x1 PUSH1 0x40 SHL SUB DUP2 GT DUP1 ISZERO PUSH2 0x37D8 JUMPI PUSH1 0x0 DUP1 REVERT JUMPDEST POP PUSH1 0x40 MLOAD SWAP1 DUP1 DUP3 MSTORE DUP1 PUSH1 0x20 MUL PUSH1 0x20 ADD DUP3 ADD PUSH1 0x40 MSTORE DUP1 ISZERO PUSH2 0x3802 JUMPI DUP2 PUSH1 0x20 ADD PUSH1 0x20 DUP3 MUL DUP1 CALLDATASIZE DUP4 CALLDATACOPY ADD SWAP1 POP JUMPDEST POP SWAP1 POP PUSH1 0x0 JUMPDEST DUP10 MLOAD DUP2 LT ISZERO PUSH2 0x38C3 JUMPI PUSH1 0x0 DUP4 DUP6 DUP4 DUP2 MLOAD DUP2 LT PUSH2 0x3820 JUMPI INVALID JUMPDEST PUSH1 0x20 MUL PUSH1 0x20 ADD ADD MLOAD GT ISZERO PUSH2 0x387C JUMPI PUSH1 0x0 PUSH2 0x3845 PUSH2 0x35DB DUP7 PUSH8 0xDE0B6B3A7640000 PUSH2 0xF34 JUMP JUMPDEST SWAP1 POP PUSH1 0x0 PUSH2 0x3859 DUP3 DUP14 DUP7 DUP2 MLOAD DUP2 LT PUSH2 0x2B95 JUMPI INVALID JUMPDEST SWAP1 POP PUSH2 0x3873 PUSH2 0x3615 DUP3 PUSH8 0xDE0B6B3A7640000 DUP14 SWAP1 SUB PUSH2 0x27CA JUMP JUMPDEST SWAP3 POP POP POP PUSH2 0x3893 JUMP JUMPDEST DUP10 DUP3 DUP2 MLOAD DUP2 LT PUSH2 0x3888 JUMPI INVALID JUMPDEST PUSH1 0x20 MUL PUSH1 0x20 ADD ADD MLOAD SWAP1 POP JUMPDEST PUSH2 0x38A3 DUP2 DUP13 DUP5 DUP2 MLOAD DUP2 LT PUSH2 0x2C59 JUMPI INVALID JUMPDEST DUP4 DUP4 DUP2 MLOAD DUP2 LT PUSH2 0x38AF JUMPI INVALID JUMPDEST PUSH1 0x20 SWAP1 DUP2 MUL SWAP2 SWAP1 SWAP2 ADD ADD MSTORE POP PUSH1 0x1 ADD PUSH2 0x3808 JUMP JUMPDEST POP PUSH1 0x0 PUSH2 0x38D2 DUP12 DUP12 PUSH1 0x1 PUSH2 0x1B43 JUMP JUMPDEST SWAP1 POP PUSH1 0x0 PUSH2 0x38E2 DUP13 DUP5 PUSH1 0x0 PUSH2 0x1B43 JUMP JUMPDEST SWAP1 POP PUSH1 0x0 PUSH2 0x38F0 DUP3 DUP5 PUSH2 0x1CDF JUMP JUMPDEST SWAP1 POP PUSH8 0xDE0B6B3A7640000 DUP2 GT ISZERO PUSH2 0x3925 JUMPI PUSH2 0x3917 DUP11 PUSH8 0xDE0B6B3A763FFFF NOT DUP4 ADD PUSH2 0x27CA JUMP JUMPDEST SWAP8 POP POP POP POP POP POP POP POP PUSH2 0x1279 JUMP JUMPDEST PUSH1 0x0 SWAP8 POP POP POP POP POP POP POP POP PUSH2 0x1279 JUMP JUMPDEST PUSH1 0x0 DUP1 PUSH2 0x3944 DUP9 DUP9 PUSH1 0x1 PUSH2 0x1B43 JUMP JUMPDEST SWAP1 POP PUSH1 0x0 PUSH2 0x395A DUP3 PUSH2 0x325B DUP8 PUSH2 0x3255 DUP2 DUP12 PUSH2 0x179E JUMP JUMPDEST SWAP1 POP PUSH1 0x0 PUSH2 0x396A DUP11 DUP11 DUP5 DUP12 PUSH2 0x302C JUMP JUMPDEST SWAP1 POP PUSH1 0x0 PUSH2 0x3994 DUP11 DUP11 DUP2 MLOAD DUP2 LT PUSH2 0x397D JUMPI INVALID JUMPDEST PUSH1 0x20 MUL PUSH1 0x20 ADD ADD MLOAD DUP4 PUSH2 0xF34 SWAP1 SWAP2 SWAP1 PUSH4 0xFFFFFFFF AND JUMP JUMPDEST SWAP1 POP PUSH1 0x0 DUP1 JUMPDEST DUP12 MLOAD DUP2 LT ISZERO PUSH2 0x39BC JUMPI PUSH2 0x39B2 DUP13 DUP3 DUP2 MLOAD DUP2 LT PUSH2 0x32A3 JUMPI INVALID JUMPDEST SWAP2 POP PUSH1 0x1 ADD PUSH2 0x399A JUMP JUMPDEST POP PUSH1 0x0 PUSH2 0x39CF DUP3 DUP14 DUP14 DUP2 MLOAD DUP2 LT PUSH2 0x32D7 JUMPI INVALID JUMPDEST SWAP1 POP PUSH1 0x0 PUSH2 0x39DC DUP3 PUSH2 0x3A12 JUMP JUMPDEST SWAP1 POP PUSH1 0x0 PUSH2 0x39EA DUP6 DUP4 PUSH2 0x2986 JUMP JUMPDEST SWAP1 POP PUSH1 0x0 PUSH2 0x39F8 DUP7 DUP4 PUSH2 0xF34 JUMP JUMPDEST SWAP1 POP PUSH2 0x3337 PUSH2 0x3330 DUP4 PUSH8 0xDE0B6B3A7640000 DUP15 SWAP1 SUB PUSH2 0x2938 JUMP JUMPDEST PUSH1 0x0 PUSH8 0xDE0B6B3A7640000 DUP3 LT PUSH2 0x3A2A JUMPI PUSH1 0x0 PUSH2 0x584 JUMP JUMPDEST POP PUSH8 0xDE0B6B3A7640000 SUB SWAP1 JUMP JUMPDEST DUP1 CALLDATALOAD PUSH2 0x923 DUP2 PUSH2 0x4487 JUMP JUMPDEST PUSH1 0x0 DUP3 PUSH1 0x1F DUP4 ADD SLT PUSH2 0x3A53 JUMPI DUP1 DUP2 REVERT JUMPDEST DUP2 CALLDATALOAD PUSH1 0x20 PUSH2 0x3A68 PUSH2 0x3A63 DUP4 PUSH2 0x446A JUMP JUMPDEST PUSH2 0x4447 JUMP JUMPDEST DUP3 DUP2 MSTORE DUP2 DUP2 ADD SWAP1 DUP6 DUP4 ADD DUP4 DUP6 MUL DUP8 ADD DUP5 ADD DUP9 LT ISZERO PUSH2 0x3A84 JUMPI DUP6 DUP7 REVERT JUMPDEST DUP6 JUMPDEST DUP6 DUP2 LT ISZERO PUSH2 0x3AA2 JUMPI DUP2 CALLDATALOAD DUP5 MSTORE SWAP3 DUP5 ADD SWAP3 SWAP1 DUP5 ADD SWAP1 PUSH1 0x1 ADD PUSH2 0x3A86 JUMP JUMPDEST POP SWAP1 SWAP8 SWAP7 POP POP POP POP POP POP POP JUMP JUMPDEST PUSH1 0x0 DUP3 PUSH1 0x1F DUP4 ADD SLT PUSH2 0x3ABF JUMPI DUP1 DUP2 REVERT JUMPDEST DUP2 MLOAD PUSH1 0x20 PUSH2 0x3ACF PUSH2 0x3A63 DUP4 PUSH2 0x446A JUMP JUMPDEST DUP3 DUP2 MSTORE DUP2 DUP2 ADD SWAP1 DUP6 DUP4 ADD DUP4 DUP6 MUL DUP8 ADD DUP5 ADD DUP9 LT ISZERO PUSH2 0x3AEB JUMPI DUP6 DUP7 REVERT JUMPDEST DUP6 JUMPDEST DUP6 DUP2 LT ISZERO PUSH2 0x3AA2 JUMPI DUP2 MLOAD DUP5 MSTORE SWAP3 DUP5 ADD SWAP3 SWAP1 DUP5 ADD SWAP1 PUSH1 0x1 ADD PUSH2 0x3AED JUMP JUMPDEST PUSH1 0x0 DUP3 PUSH1 0x1F DUP4 ADD SLT PUSH2 0x3B19 JUMPI DUP1 DUP2 REVERT JUMPDEST DUP2 CALLDATALOAD PUSH1 0x1 PUSH1 0x1 PUSH1 0x40 SHL SUB DUP2 GT ISZERO PUSH2 0x3B2C JUMPI INVALID JUMPDEST PUSH2 0x3B3F PUSH1 0x1F DUP3 ADD PUSH1 0x1F NOT AND PUSH1 0x20 ADD PUSH2 0x4447 JUMP JUMPDEST DUP2 DUP2 MSTORE DUP5 PUSH1 0x20 DUP4 DUP7 ADD ADD GT ISZERO PUSH2 0x3B53 JUMPI DUP3 DUP4 REVERT JUMPDEST DUP2 PUSH1 0x20 DUP6 ADD PUSH1 0x20 DUP4 ADD CALLDATACOPY SWAP1 DUP2 ADD PUSH1 0x20 ADD SWAP2 SWAP1 SWAP2 MSTORE SWAP3 SWAP2 POP POP JUMP JUMPDEST DUP1 CALLDATALOAD PUSH1 0x2 DUP2 LT PUSH2 0x923 JUMPI PUSH1 0x0 DUP1 REVERT JUMPDEST PUSH1 0x0 PUSH2 0x120 DUP1 DUP4 DUP6 SUB SLT ISZERO PUSH2 0x3B8F JUMPI DUP2 DUP3 REVERT JUMPDEST PUSH2 0x3B98 DUP2 PUSH2 0x4447 JUMP JUMPDEST SWAP2 POP POP PUSH2 0x3BA4 DUP3 PUSH2 0x3B6D JUMP JUMPDEST DUP2 MSTORE PUSH2 0x3BB2 PUSH1 0x20 DUP4 ADD PUSH2 0x3A38 JUMP JUMPDEST PUSH1 0x20 DUP3 ADD MSTORE PUSH2 0x3BC3 PUSH1 0x40 DUP4 ADD PUSH2 0x3A38 JUMP JUMPDEST PUSH1 0x40 DUP3 ADD MSTORE PUSH1 0x60 DUP3 ADD CALLDATALOAD PUSH1 0x60 DUP3 ADD MSTORE PUSH1 0x80 DUP3 ADD CALLDATALOAD PUSH1 0x80 DUP3 ADD MSTORE PUSH1 0xA0 DUP3 ADD CALLDATALOAD PUSH1 0xA0 DUP3 ADD MSTORE PUSH2 0x3BF2 PUSH1 0xC0 DUP4 ADD PUSH2 0x3A38 JUMP JUMPDEST PUSH1 0xC0 DUP3 ADD MSTORE PUSH2 0x3C03 PUSH1 0xE0 DUP4 ADD PUSH2 0x3A38 JUMP JUMPDEST PUSH1 0xE0 DUP3 ADD MSTORE PUSH2 0x100 DUP1 DUP4 ADD CALLDATALOAD PUSH1 0x1 PUSH1 0x1 PUSH1 0x40 SHL SUB DUP2 GT ISZERO PUSH2 0x3C23 JUMPI PUSH1 0x0 DUP1 REVERT JUMPDEST PUSH2 0x3C2F DUP6 DUP3 DUP7 ADD PUSH2 0x3B09 JUMP JUMPDEST DUP3 DUP5 ADD MSTORE POP POP SWAP3 SWAP2 POP POP JUMP JUMPDEST PUSH1 0x0 PUSH1 0x20 DUP3 DUP5 SUB SLT ISZERO PUSH2 0x3C4C JUMPI DUP1 DUP2 REVERT JUMPDEST DUP2 CALLDATALOAD PUSH2 0x63C DUP2 PUSH2 0x4487 JUMP JUMPDEST PUSH1 0x0 DUP1 PUSH1 0x40 DUP4 DUP6 SUB SLT ISZERO PUSH2 0x3C69 JUMPI DUP1 DUP2 REVERT JUMPDEST DUP3 CALLDATALOAD PUSH2 0x3C74 DUP2 PUSH2 0x4487 JUMP JUMPDEST SWAP2 POP PUSH1 0x20 DUP4 ADD CALLDATALOAD PUSH2 0x3C84 DUP2 PUSH2 0x4487 JUMP JUMPDEST DUP1 SWAP2 POP POP SWAP3 POP SWAP3 SWAP1 POP JUMP JUMPDEST PUSH1 0x0 DUP1 PUSH1 0x0 PUSH1 0x60 DUP5 DUP7 SUB SLT ISZERO PUSH2 0x3CA3 JUMPI DUP1 DUP2 REVERT JUMPDEST DUP4 CALLDATALOAD PUSH2 0x3CAE DUP2 PUSH2 0x4487 JUMP JUMPDEST SWAP3 POP PUSH1 0x20 DUP5 ADD CALLDATALOAD PUSH2 0x3CBE DUP2 PUSH2 0x4487 JUMP JUMPDEST SWAP3 SWAP6 SWAP3 SWAP5 POP POP POP PUSH1 0x40 SWAP2 SWAP1 SWAP2 ADD CALLDATALOAD SWAP1 JUMP JUMPDEST PUSH1 0x0 DUP1 PUSH1 0x0 DUP1 PUSH1 0x0 DUP1 PUSH1 0x0 PUSH1 0xE0 DUP9 DUP11 SUB SLT ISZERO PUSH2 0x3CE9 JUMPI DUP5 DUP6 REVERT JUMPDEST DUP8 CALLDATALOAD PUSH2 0x3CF4 DUP2 PUSH2 0x4487 JUMP JUMPDEST SWAP7 POP PUSH1 0x20 DUP9 ADD CALLDATALOAD PUSH2 0x3D04 DUP2 PUSH2 0x4487 JUMP JUMPDEST SWAP6 POP PUSH1 0x40 DUP9 ADD CALLDATALOAD SWAP5 POP PUSH1 0x60 DUP9 ADD CALLDATALOAD SWAP4 POP PUSH1 0x80 DUP9 ADD CALLDATALOAD PUSH1 0xFF DUP2 AND DUP2 EQ PUSH2 0x3D27 JUMPI DUP4 DUP5 REVERT JUMPDEST SWAP7 SWAP10 SWAP6 SWAP9 POP SWAP4 SWAP7 SWAP3 SWAP6 SWAP5 PUSH1 0xA0 DUP5 ADD CALLDATALOAD SWAP5 POP PUSH1 0xC0 SWAP1 SWAP4 ADD CALLDATALOAD SWAP3 SWAP2 POP POP JUMP JUMPDEST PUSH1 0x0 DUP1 PUSH1 0x40 DUP4 DUP6 SUB SLT ISZERO PUSH2 0x3D56 JUMPI DUP2 DUP3 REVERT JUMPDEST DUP3 CALLDATALOAD PUSH2 0x3D61 DUP2 PUSH2 0x4487 JUMP JUMPDEST SWAP5 PUSH1 0x20 SWAP4 SWAP1 SWAP4 ADD CALLDATALOAD SWAP4 POP POP POP JUMP JUMPDEST PUSH1 0x0 DUP1 PUSH1 0x0 PUSH1 0x60 DUP5 DUP7 SUB SLT ISZERO PUSH2 0x3D83 JUMPI DUP1 DUP2 REVERT JUMPDEST DUP4 MLOAD PUSH1 0x1 PUSH1 0x1 PUSH1 0x40 SHL SUB DUP1 DUP3 GT ISZERO PUSH2 0x3D99 JUMPI DUP3 DUP4 REVERT JUMPDEST DUP2 DUP7 ADD SWAP2 POP DUP7 PUSH1 0x1F DUP4 ADD SLT PUSH2 0x3DAC JUMPI DUP3 DUP4 REVERT JUMPDEST DUP2 MLOAD PUSH1 0x20 PUSH2 0x3DBC PUSH2 0x3A63 DUP4 PUSH2 0x446A JUMP JUMPDEST DUP3 DUP2 MSTORE DUP2 DUP2 ADD SWAP1 DUP6 DUP4 ADD DUP4 DUP6 MUL DUP8 ADD DUP5 ADD DUP13 LT ISZERO PUSH2 0x3DD8 JUMPI DUP8 DUP9 REVERT JUMPDEST DUP8 SWAP7 POP JUMPDEST DUP5 DUP8 LT ISZERO PUSH2 0x3E03 JUMPI DUP1 MLOAD PUSH2 0x3DEF DUP2 PUSH2 0x4487 JUMP JUMPDEST DUP4 MSTORE PUSH1 0x1 SWAP7 SWAP1 SWAP7 ADD SWAP6 SWAP2 DUP4 ADD SWAP2 DUP4 ADD PUSH2 0x3DDC JUMP JUMPDEST POP SWAP2 DUP10 ADD MLOAD SWAP2 SWAP8 POP SWAP1 SWAP4 POP POP POP DUP1 DUP3 GT ISZERO PUSH2 0x3E1C JUMPI DUP3 DUP4 REVERT JUMPDEST POP PUSH2 0x3E29 DUP7 DUP3 DUP8 ADD PUSH2 0x3AAF JUMP JUMPDEST SWAP3 POP POP PUSH1 0x40 DUP5 ADD MLOAD SWAP1 POP SWAP3 POP SWAP3 POP SWAP3 JUMP JUMPDEST PUSH1 0x0 PUSH1 0x20 DUP3 DUP5 SUB SLT ISZERO PUSH2 0x3E4B JUMPI DUP1 DUP2 REVERT JUMPDEST DUP2 CALLDATALOAD PUSH2 0x63C DUP2 PUSH2 0x449C JUMP JUMPDEST PUSH1 0x0 PUSH1 0x20 DUP3 DUP5 SUB SLT ISZERO PUSH2 0x3E67 JUMPI DUP1 DUP2 REVERT JUMPDEST DUP2 MLOAD PUSH2 0x63C DUP2 PUSH2 0x449C JUMP JUMPDEST PUSH1 0x0 DUP1 PUSH1 0x0 DUP1 PUSH1 0x0 DUP1 PUSH1 0x0 PUSH1 0xE0 DUP9 DUP11 SUB SLT ISZERO PUSH2 0x3E8C JUMPI DUP1 DUP2 REVERT JUMPDEST DUP8 CALLDATALOAD SWAP7 POP PUSH1 0x20 DUP9 ADD CALLDATALOAD PUSH2 0x3E9E DUP2 PUSH2 0x4487 JUMP JUMPDEST SWAP6 POP PUSH1 0x40 DUP9 ADD CALLDATALOAD PUSH2 0x3EAE DUP2 PUSH2 0x4487 JUMP JUMPDEST SWAP5 POP PUSH1 0x60 DUP9 ADD CALLDATALOAD PUSH1 0x1 PUSH1 0x1 PUSH1 0x40 SHL SUB DUP1 DUP3 GT ISZERO PUSH2 0x3EC9 JUMPI DUP3 DUP4 REVERT JUMPDEST PUSH2 0x3ED5 DUP12 DUP4 DUP13 ADD PUSH2 0x3A43 JUMP JUMPDEST SWAP6 POP PUSH1 0x80 DUP11 ADD CALLDATALOAD SWAP5 POP PUSH1 0xA0 DUP11 ADD CALLDATALOAD SWAP4 POP PUSH1 0xC0 DUP11 ADD CALLDATALOAD SWAP2 POP DUP1 DUP3 GT ISZERO PUSH2 0x3EF8 JUMPI DUP3 DUP4 REVERT JUMPDEST POP PUSH2 0x3F05 DUP11 DUP3 DUP12 ADD PUSH2 0x3B09 JUMP JUMPDEST SWAP2 POP POP SWAP3 SWAP6 SWAP9 SWAP2 SWAP5 SWAP8 POP SWAP3 SWAP6 POP JUMP JUMPDEST PUSH1 0x0 PUSH1 0x20 DUP3 DUP5 SUB SLT ISZERO PUSH2 0x3F25 JUMPI DUP1 DUP2 REVERT JUMPDEST DUP2 CALLDATALOAD PUSH1 0x1 PUSH1 0x1 PUSH1 0xE0 SHL SUB NOT DUP2 AND DUP2 EQ PUSH2 0x63C JUMPI DUP2 DUP3 REVERT JUMPDEST PUSH1 0x0 PUSH1 0x20 DUP3 DUP5 SUB SLT ISZERO PUSH2 0x3F4D JUMPI DUP1 DUP2 REVERT JUMPDEST DUP2 MLOAD PUSH2 0x63C DUP2 PUSH2 0x4487 JUMP JUMPDEST PUSH1 0x0 DUP1 PUSH1 0x40 DUP4 DUP6 SUB SLT ISZERO PUSH2 0x3F6A JUMPI DUP2 DUP3 REVERT JUMPDEST DUP3 CALLDATALOAD PUSH2 0x3F75 DUP2 PUSH2 0x4487 JUMP JUMPDEST SWAP2 POP PUSH1 0x20 DUP4 ADD CALLDATALOAD PUSH1 0x1 PUSH1 0x1 PUSH1 0x40 SHL SUB DUP2 GT ISZERO PUSH2 0x3F8F JUMPI DUP2 DUP3 REVERT JUMPDEST PUSH2 0x3F9B DUP6 DUP3 DUP7 ADD PUSH2 0x3B09 JUMP JUMPDEST SWAP2 POP POP SWAP3 POP SWAP3 SWAP1 POP JUMP JUMPDEST PUSH1 0x0 PUSH1 0x20 DUP3 DUP5 SUB SLT ISZERO PUSH2 0x3FB6 JUMPI DUP1 DUP2 REVERT JUMPDEST DUP2 MLOAD PUSH2 0x63C DUP2 PUSH2 0x44AA JUMP JUMPDEST PUSH1 0x0 DUP1 PUSH1 0x0 PUSH1 0x60 DUP5 DUP7 SUB SLT ISZERO PUSH2 0x3FD5 JUMPI DUP1 DUP2 REVERT JUMPDEST DUP4 MLOAD PUSH2 0x3FE0 DUP2 PUSH2 0x44AA JUMP JUMPDEST PUSH1 0x20 DUP6 ADD MLOAD SWAP1 SWAP4 POP PUSH1 0x1 PUSH1 0x1 PUSH1 0x40 SHL SUB DUP2 GT ISZERO PUSH2 0x3FFB JUMPI DUP2 DUP3 REVERT JUMPDEST PUSH2 0x3E29 DUP7 DUP3 DUP8 ADD PUSH2 0x3AAF JUMP JUMPDEST PUSH1 0x0 DUP1 PUSH1 0x40 DUP4 DUP6 SUB SLT ISZERO PUSH2 0x4019 JUMPI DUP2 DUP3 REVERT JUMPDEST DUP3 MLOAD PUSH2 0x4024 DUP2 PUSH2 0x44AA JUMP JUMPDEST PUSH1 0x20 SWAP4 SWAP1 SWAP4 ADD MLOAD SWAP3 SWAP5 SWAP3 SWAP4 POP POP POP JUMP JUMPDEST PUSH1 0x0 DUP1 PUSH1 0x0 PUSH1 0x60 DUP5 DUP7 SUB SLT ISZERO PUSH2 0x4048 JUMPI DUP1 DUP2 REVERT JUMPDEST DUP4 MLOAD PUSH2 0x4053 DUP2 PUSH2 0x44AA JUMP JUMPDEST PUSH1 0x20 DUP6 ADD MLOAD PUSH1 0x40 SWAP1 SWAP6 ADD MLOAD SWAP1 SWAP7 SWAP5 SWAP6 POP SWAP4 SWAP3 POP POP POP JUMP JUMPDEST PUSH1 0x0 DUP1 PUSH1 0x40 DUP4 DUP6 SUB SLT ISZERO PUSH2 0x407C JUMPI DUP2 DUP3 REVERT JUMPDEST DUP3 MLOAD PUSH2 0x4087 DUP2 PUSH2 0x44AA JUMP JUMPDEST PUSH1 0x20 DUP5 ADD MLOAD SWAP1 SWAP3 POP PUSH1 0x1 PUSH1 0x1 PUSH1 0x40 SHL SUB DUP2 GT ISZERO PUSH2 0x40A2 JUMPI DUP2 DUP3 REVERT JUMPDEST PUSH2 0x3F9B DUP6 DUP3 DUP7 ADD PUSH2 0x3AAF JUMP JUMPDEST PUSH1 0x0 DUP1 PUSH1 0x0 DUP1 PUSH1 0x80 DUP6 DUP8 SUB SLT ISZERO PUSH2 0x40C3 JUMPI DUP2 DUP3 REVERT JUMPDEST DUP5 CALLDATALOAD PUSH1 0x1 PUSH1 0x1 PUSH1 0x40 SHL SUB DUP1 DUP3 GT ISZERO PUSH2 0x40D9 JUMPI DUP4 DUP5 REVERT JUMPDEST PUSH2 0x40E5 DUP9 DUP4 DUP10 ADD PUSH2 0x3B7C JUMP JUMPDEST SWAP6 POP PUSH1 0x20 DUP8 ADD CALLDATALOAD SWAP2 POP DUP1 DUP3 GT ISZERO PUSH2 0x40FA JUMPI DUP4 DUP5 REVERT JUMPDEST POP PUSH2 0x4107 DUP8 DUP3 DUP9 ADD PUSH2 0x3A43 JUMP JUMPDEST SWAP5 SWAP8 SWAP5 SWAP7 POP POP POP POP PUSH1 0x40 DUP4 ADD CALLDATALOAD SWAP3 PUSH1 0x60 ADD CALLDATALOAD SWAP2 SWAP1 POP JUMP JUMPDEST PUSH1 0x0 DUP1 PUSH1 0x0 PUSH1 0x60 DUP5 DUP7 SUB SLT ISZERO PUSH2 0x4132 JUMPI DUP1 DUP2 REVERT JUMPDEST DUP4 CALLDATALOAD PUSH1 0x1 PUSH1 0x1 PUSH1 0x40 SHL SUB DUP2 GT ISZERO PUSH2 0x4147 JUMPI DUP2 DUP3 REVERT JUMPDEST PUSH2 0x4153 DUP7 DUP3 DUP8 ADD PUSH2 0x3B7C JUMP JUMPDEST SWAP7 PUSH1 0x20 DUP7 ADD CALLDATALOAD SWAP7 POP PUSH1 0x40 SWAP1 SWAP6 ADD CALLDATALOAD SWAP5 SWAP4 POP POP POP POP JUMP JUMPDEST PUSH1 0x0 PUSH1 0x20 DUP3 DUP5 SUB SLT ISZERO PUSH2 0x417A JUMPI DUP1 DUP2 REVERT JUMPDEST POP CALLDATALOAD SWAP2 SWAP1 POP JUMP JUMPDEST PUSH1 0x0 DUP1 PUSH1 0x40 DUP4 DUP6 SUB SLT ISZERO PUSH2 0x4193 JUMPI DUP2 DUP3 REVERT JUMPDEST POP POP DUP1 CALLDATALOAD SWAP3 PUSH1 0x20 SWAP1 SWAP2 ADD CALLDATALOAD SWAP2 POP JUMP JUMPDEST PUSH1 0x0 DUP1 PUSH1 0x0 DUP1 PUSH1 0x80 DUP6 DUP8 SUB SLT ISZERO PUSH2 0x41B7 JUMPI DUP2 DUP3 REVERT JUMPDEST DUP5 MLOAD SWAP4 POP PUSH1 0x20 DUP6 ADD MLOAD SWAP3 POP PUSH1 0x40 DUP6 ADD MLOAD SWAP2 POP PUSH1 0x60 DUP6 ADD MLOAD PUSH2 0x41D7 DUP2 PUSH2 0x4487 JUMP JUMPDEST SWAP4 SWAP7 SWAP3 SWAP6 POP SWAP1 SWAP4 POP POP JUMP JUMPDEST PUSH1 0x0 DUP2 MLOAD DUP1 DUP5 MSTORE PUSH1 0x20 DUP1 DUP6 ADD SWAP5 POP DUP1 DUP5 ADD DUP4 JUMPDEST DUP4 DUP2 LT ISZERO PUSH2 0x4211 JUMPI DUP2 MLOAD DUP8 MSTORE SWAP6 DUP3 ADD SWAP6 SWAP1 DUP3 ADD SWAP1 PUSH1 0x1 ADD PUSH2 0x41F5 JUMP JUMPDEST POP SWAP5 SWAP6 SWAP5 POP POP POP POP POP JUMP JUMPDEST PUSH1 0x0 DUP2 MLOAD DUP1 DUP5 MSTORE DUP2 JUMPDEST DUP2 DUP2 LT ISZERO PUSH2 0x4241 JUMPI PUSH1 0x20 DUP2 DUP6 ADD DUP2 ADD MLOAD DUP7 DUP4 ADD DUP3 ADD MSTORE ADD PUSH2 0x4225 JUMP JUMPDEST DUP2 DUP2 GT ISZERO PUSH2 0x4252 JUMPI DUP3 PUSH1 0x20 DUP4 DUP8 ADD ADD MSTORE JUMPDEST POP PUSH1 0x1F ADD PUSH1 0x1F NOT AND SWAP3 SWAP1 SWAP3 ADD PUSH1 0x20 ADD SWAP3 SWAP2 POP POP JUMP JUMPDEST SWAP2 DUP3 MSTORE PUSH1 0x1 PUSH1 0x1 PUSH1 0xE0 SHL SUB NOT AND PUSH1 0x20 DUP3 ADD MSTORE PUSH1 0x24 ADD SWAP1 JUMP JUMPDEST PUSH1 0x0 DUP3 DUP5 DUP4 CALLDATACOPY SWAP2 ADD SWAP1 DUP2 MSTORE SWAP2 SWAP1 POP JUMP JUMPDEST PUSH2 0x1901 PUSH1 0xF0 SHL DUP2 MSTORE PUSH1 0x2 DUP2 ADD SWAP3 SWAP1 SWAP3 MSTORE PUSH1 0x22 DUP3 ADD MSTORE PUSH1 0x42 ADD SWAP1 JUMP JUMPDEST PUSH1 0x1 PUSH1 0x1 PUSH1 0xA0 SHL SUB SWAP2 SWAP1 SWAP2 AND DUP2 MSTORE PUSH1 0x20 ADD SWAP1 JUMP JUMPDEST PUSH1 0x0 PUSH1 0x40 DUP3 MSTORE PUSH2 0x42D1 PUSH1 0x40 DUP4 ADD DUP6 PUSH2 0x41E2 JUMP JUMPDEST DUP3 DUP2 SUB PUSH1 0x20 DUP5 ADD MSTORE PUSH2 0x1279 DUP2 DUP6 PUSH2 0x41E2 JUMP JUMPDEST SWAP1 ISZERO ISZERO DUP2 MSTORE PUSH1 0x20 ADD SWAP1 JUMP JUMPDEST SWAP3 ISZERO ISZERO DUP4 MSTORE PUSH1 0x20 DUP4 ADD SWAP2 SWAP1 SWAP2 MSTORE PUSH1 0x40 DUP3 ADD MSTORE PUSH1 0x60 ADD SWAP1 JUMP JUMPDEST SWAP1 DUP2 MSTORE PUSH1 0x20 ADD SWAP1 JUMP JUMPDEST SWAP3 DUP4 MSTORE PUSH1 0x1 PUSH1 0x1 PUSH1 0xA0 SHL SUB SWAP2 DUP3 AND PUSH1 0x20 DUP5 ADD MSTORE AND PUSH1 0x40 DUP3 ADD MSTORE PUSH1 0x60 ADD SWAP1 JUMP JUMPDEST SWAP6 DUP7 MSTORE PUSH1 0x1 PUSH1 0x1 PUSH1 0xA0 SHL SUB SWAP5 DUP6 AND PUSH1 0x20 DUP8 ADD MSTORE SWAP3 SWAP1 SWAP4 AND PUSH1 0x40 DUP6 ADD MSTORE PUSH1 0x60 DUP5 ADD MSTORE PUSH1 0x80 DUP4 ADD SWAP2 SWAP1 SWAP2 MSTORE PUSH1 0xA0 DUP3 ADD MSTORE PUSH1 0xC0 ADD SWAP1 JUMP JUMPDEST SWAP5 DUP6 MSTORE PUSH1 0x20 DUP6 ADD SWAP4 SWAP1 SWAP4 MSTORE PUSH1 0x40 DUP5 ADD SWAP2 SWAP1 SWAP2 MSTORE PUSH1 0x60 DUP4 ADD MSTORE PUSH1 0x1 PUSH1 0x1 PUSH1 0xA0 SHL SUB AND PUSH1 0x80 DUP3 ADD MSTORE PUSH1 0xA0 ADD SWAP1 JUMP JUMPDEST PUSH1 0x0 DUP4 DUP3 MSTORE PUSH1 0x40 PUSH1 0x20 DUP4 ADD MSTORE PUSH2 0x4D4 PUSH1 0x40 DUP4 ADD DUP5 PUSH2 0x421C JUMP JUMPDEST SWAP2 DUP3 MSTORE PUSH1 0x1 PUSH1 0x1 PUSH1 0xA0 SHL SUB AND PUSH1 0x20 DUP3 ADD MSTORE PUSH1 0x40 ADD SWAP1 JUMP JUMPDEST SWAP4 DUP5 MSTORE PUSH1 0xFF SWAP3 SWAP1 SWAP3 AND PUSH1 0x20 DUP5 ADD MSTORE PUSH1 0x40 DUP4 ADD MSTORE PUSH1 0x60 DUP3 ADD MSTORE PUSH1 0x80 ADD SWAP1 JUMP JUMPDEST PUSH1 0x0 PUSH1 0x20 DUP3 MSTORE PUSH2 0x63C PUSH1 0x20 DUP4 ADD DUP5 PUSH2 0x421C JUMP JUMPDEST PUSH1 0x0 DUP4 DUP3 MSTORE PUSH1 0x40 PUSH1 0x20 DUP4 ADD MSTORE PUSH2 0x4D4 PUSH1 0x40 DUP4 ADD DUP5 PUSH2 0x41E2 JUMP JUMPDEST SWAP3 DUP4 MSTORE SWAP1 ISZERO ISZERO PUSH1 0x20 DUP4 ADD MSTORE PUSH1 0x40 DUP3 ADD MSTORE PUSH1 0x60 ADD SWAP1 JUMP JUMPDEST SWAP4 DUP5 MSTORE PUSH1 0x20 DUP5 ADD SWAP3 SWAP1 SWAP3 MSTORE PUSH1 0x40 DUP4 ADD MSTORE PUSH1 0x60 DUP3 ADD MSTORE PUSH1 0x80 ADD SWAP1 JUMP JUMPDEST PUSH1 0xFF SWAP2 SWAP1 SWAP2 AND DUP2 MSTORE PUSH1 0x20 ADD SWAP1 JUMP JUMPDEST PUSH1 0x40 MLOAD DUP2 DUP2 ADD PUSH1 0x1 PUSH1 0x1 PUSH1 0x40 SHL SUB DUP2 GT DUP3 DUP3 LT OR ISZERO PUSH2 0x4462 JUMPI INVALID JUMPDEST PUSH1 0x40 MSTORE SWAP2 SWAP1 POP JUMP JUMPDEST PUSH1 0x0 PUSH1 0x1 PUSH1 0x1 PUSH1 0x40 SHL SUB DUP3 GT ISZERO PUSH2 0x447D JUMPI INVALID JUMPDEST POP PUSH1 0x20 SWAP1 DUP2 MUL ADD SWAP1 JUMP JUMPDEST PUSH1 0x1 PUSH1 0x1 PUSH1 0xA0 SHL SUB DUP2 AND DUP2 EQ PUSH2 0x59B JUMPI PUSH1 0x0 DUP1 REVERT JUMPDEST DUP1 ISZERO ISZERO DUP2 EQ PUSH2 0x59B JUMPI PUSH1 0x0 DUP1 REVERT JUMPDEST PUSH1 0x3 DUP2 LT PUSH2 0x59B JUMPI PUSH1 0x0 DUP1 REVERT INVALID LOG2 PUSH5 0x6970667358 0x22 SLT KECCAK256 0x4D SWAP10 0xE3 0x24 COINBASE 0xA8 ADD 0xD4 SWAP2 DUP13 0xCD 0xCD 0x5D 0xC3 JUMPI MSIZE 0x22 LT BALANCE DUP1 0xB9 PUSH10 0xDCD6D0081D55FD9A32DD PUSH5 0x736F6C6343 STOP SMOD MOD STOP CALLER LOG2 PUSH5 0x6970667358 0x22 SLT KECCAK256 0xA6 0xA5 DUP5 PUSH4 0xAB2918CC SWAP14 0xE8 SWAP2 0xBD 0xB0 SHR 0xEA 0xB6 DUP9 DUP14 SWAP6 DUP16 DUP5 PUSH29 0xB4CA2181C9A350D5071064736F6C634300070600330000000000000000 "
		},
		"gasEstimates": {
			"creation": {
				"codeDepositCost": "4617200",
				"executionCost": "infinite",
				"totalCost": "infinite"
			},
			"external": {
				"create(string,string,address[],uint256,uint256,address)": "infinite",
				"getPauseConfiguration()": "infinite",
				"getVault()": "infinite",
				"isPoolFromFactory(address)": "1288"
			}
		},
		"methodIdentifiers": {
			"create(string,string,address[],uint256,uint256,address)": "7932c7f3",
			"getPauseConfiguration()": "2da47c40",
			"getVault()": "8d928af8",
			"isPoolFromFactory(address)": "6634b753"
		}
	},
	"abi": [
		{
			"inputs": [
				{
					"internalType": "contract IVault",
					"name": "vault",
					"type": "address"
				}
			],
			"stateMutability": "nonpayable",
			"type": "constructor"
		},
		{
			"anonymous": false,
			"inputs": [
				{
					"indexed": true,
					"internalType": "address",
					"name": "pool",
					"type": "address"
				}
			],
			"name": "PoolCreated",
			"type": "event"
		},
		{
			"inputs": [
				{
					"internalType": "string",
					"name": "name",
					"type": "string"
				},
				{
					"internalType": "string",
					"name": "symbol",
					"type": "string"
				},
				{
					"internalType": "contract IERC20[]",
					"name": "tokens",
					"type": "address[]"
				},
				{
					"internalType": "uint256",
					"name": "amplificationParameter",
					"type": "uint256"
				},
				{
					"internalType": "uint256",
					"name": "swapFeePercentage",
					"type": "uint256"
				},
				{
					"internalType": "address",
					"name": "owner",
					"type": "address"
				}
			],
			"name": "create",
			"outputs": [
				{
					"internalType": "address",
					"name": "",
					"type": "address"
				}
			],
			"stateMutability": "nonpayable",
			"type": "function"
		},
		{
			"inputs": [],
			"name": "getPauseConfiguration",
			"outputs": [
				{
					"internalType": "uint256",
					"name": "pauseWindowDuration",
					"type": "uint256"
				},
				{
					"internalType": "uint256",
					"name": "bufferPeriodDuration",
					"type": "uint256"
				}
			],
			"stateMutability": "view",
			"type": "function"
		},
		{
			"inputs": [],
			"name": "getVault",
			"outputs": [
				{
					"internalType": "contract IVault",
					"name": "",
					"type": "address"
				}
			],
			"stateMutability": "view",
			"type": "function"
		},
		{
			"inputs": [
				{
					"internalType": "address",
					"name": "pool",
					"type": "address"
				}
			],
			"name": "isPoolFromFactory",
			"outputs": [
				{
					"internalType": "bool",
					"name": "",
					"type": "bool"
				}
			],
			"stateMutability": "view",
			"type": "function"
		}
	]
}