{
	"data": {
		"bytecode": {
			"linkReferences": {},
			"object": "6101806040523480156200001257600080fd5b5060405162006d3038038062006d30833981016040819052620000359162000253565b8382826040518060400160405280601181526020017010985b185b98d95c88158c8815985d5b1d607a1b81525080604051806040016040528060018152602001603160f81b815250306001600160a01b031660001b89806001600160a01b03166080816001600160a01b031660601b815250505030604051620000b89062000245565b620000c491906200029f565b604051809103906000f080158015620000e1573d6000803e3d6000fd5b5060601b6001600160601b03191660a052600160005560c052815160209283012060e052805191012061010052507f8b73c3c69bb8fe3d512ecc4cf759cc79239f7b179b0ffacaa9a75d522b39400f61012052620001486276a70083111561019462000181565b6200015c62278d0082111561019562000181565b429091016101408190520161016052620001768162000196565b5050505050620002cc565b8162000192576200019281620001f2565b5050565b6040516001600160a01b038216907f94b979b6831a51293e2641426f97747feed46f17779fed9cd18d1ecefcfe92ef90600090a2600380546001600160a01b0390921661010002610100600160a81b0319909216919091179055565b62461bcd60e51b6000908152602060045260076024526642414c23000030600a808404818106603090810160081b95839006959095019082900491820690940160101b939093010160c81b604452606490fd5b610b21806200620f83390190565b6000806000806080858703121562000269578384fd5b84516200027681620002b3565b60208601519094506200028981620002b3565b6040860151606090960151949790965092505050565b6001600160a01b0391909116815260200190565b6001600160a01b0381168114620002c957600080fd5b50565b60805160601c60a05160601c60c05160e05161010051610120516101405161016051615edf6200033060003980611a67525080611a435250806127f55250806128375250806128165250806110c15250806113755250806105085250615edf6000f3fe6080604052600436106101855760003560e01c8063945bcec9116100d1578063e6c460921161008a578063f84d066e11610064578063f84d066e1461046a578063f94d46681461048a578063fa6e671d146104b9578063fec90d72146104d9576101b3565b8063e6c4609214610407578063ed24911d14610427578063f6c009271461043c576101b3565b8063945bcec914610365578063aaabadc514610378578063ad5c46481461039a578063b05f8e48146103af578063b95cac28146103df578063d2946c2b146103f2576101b3565b806352bbbe291161013e5780637d3aeb96116101185780637d3aeb96146102e5578063851c1bb3146103055780638bdb39131461032557806390193b7c14610345576101b3565b806352bbbe29146102925780635c38449e146102a557806366a9c7d2146102c5576101b3565b8063058a628f146101b857806309b2760f146101d85780630e8e3e841461020e5780630f5a6efa1461022157806316c38b3c1461024e5780631c0de0511461026e576101b3565b366101b3576101b1610195610506565b6001600160a01b0316336001600160a01b03161461020661052b565b005b600080fd5b3480156101c457600080fd5b506101b16101d3366004615084565b61053d565b3480156101e457600080fd5b506101f86101f3366004615639565b610561565b6040516102059190615c73565b60405180910390f35b6101b161021c36600461525f565b610614565b34801561022d57600080fd5b5061024161023c366004615122565b610750565b6040516102059190615c3d565b34801561025a57600080fd5b506101b16102693660046153b3565b6107e5565b34801561027a57600080fd5b506102836107fe565b60405161020593929190615c5b565b6101f86102a03660046157de565b610827565b3480156102b157600080fd5b506101b16102c03660046155af565b6109c8565b3480156102d157600080fd5b506101b16102e036600461549a565b610dca565b3480156102f157600080fd5b506101b161030036600461546c565b610f69565b34801561031157600080fd5b506101f8610320366004615587565b6110bd565b34801561033157600080fd5b506101b1610340366004615403565b61110f565b34801561035157600080fd5b506101f8610360366004615084565b611125565b6102416103733660046156d7565b611140565b34801561038457600080fd5b5061038d611274565b6040516102059190615aae565b3480156103a657600080fd5b5061038d611288565b3480156103bb57600080fd5b506103cf6103ca366004615563565b611297565b6040516102059493929190615de9565b6101b16103ed366004615403565b61135a565b3480156103fe57600080fd5b5061038d611373565b34801561041357600080fd5b506101b161042236600461516f565b611397565b34801561043357600080fd5b506101f86114b3565b34801561044857600080fd5b5061045c6104573660046153eb565b6114bd565b604051610205929190615ae6565b34801561047657600080fd5b50610241610485366004615655565b6114e7565b34801561049657600080fd5b506104aa6104a53660046153eb565b6115cb565b60405161020593929190615c07565b3480156104c557600080fd5b506101b16104d43660046150d8565b6115ff565b3480156104e557600080fd5b506104f96104f43660046150a0565b611691565b6040516102059190615c50565b7f00000000000000000000000000000000000000000000000000000000000000005b90565b8161053957610539816116a6565b5050565b6105456116f9565b61054d611712565b61055681611740565b61055e61179c565b50565b600061056b6116f9565b6105736117a3565b600061058233846006546117b8565b6000818152600560205260409020549091506105a49060ff16156101f461052b565b60008181526005602052604090819020805460ff1916600190811790915560068054909101905551339082907f3c13bc30b8e878c53fd2a36b679409c073afd75950be43d8858768e956fbc20e906105fd908790615d6f565b60405180910390a3905061060f61179c565b919050565b61061c6116f9565b6000806000805b845181101561073b5760008060008060006106518a878151811061064357fe5b6020026020010151896117f7565b9c50939850919650945092509050600185600381111561066d57fe5b14156106845761067f8483838661186f565b61072a565b86610696576106916117a3565b600196505b60008560038111156106a457fe5b14156106d5576106b684838386611892565b6106bf846118b2565b1561067f576106ce89846118bf565b985061072a565b6106ea6106e1856118b2565b1561020761052b565b60006106f585610528565b9050600286600381111561070557fe5b141561071c57610717818484876118d1565b610728565b610728818484876118ea565b505b505060019093019250610623915050565b5061074583611958565b50505061055e61179c565b606081516001600160401b038111801561076957600080fd5b50604051908082528060200260200182016040528015610793578160200160208202803683370190505b50905060005b82518110156107de576107bf848483815181106107b257fe5b602002602001015161197b565b8282815181106107cb57fe5b6020908102919091010152600101610799565b5092915050565b6107ed6116f9565b6107f5611712565b610556816119a6565b600080600061080b611a24565b159250610816611a41565b9150610820611a65565b9050909192565b60006108316116f9565b6108396117a3565b835161084481611a89565b610853834211156101fc61052b565b61086660008760800151116101fe61052b565b60006108758760400151611abb565b905060006108868860600151611abb565b90506108a9816001600160a01b0316836001600160a01b031614156101fd61052b565b6108b1614ba5565b885160808201526020890151819060018111156108ca57fe5b908160018111156108d757fe5b9052506001600160a01b03808416602083015282811660408084019190915260808b0151606084015260a08b01516101008401528951821660c08401528901511660e082015260008061092983611ae0565b9198509250905061096060008c60200151600181111561094557fe5b146109535789831115610958565b898210155b6101fb61052b565b6109788b60400151838c600001518d60200151611bd4565b6109908b60600151828c604001518d60600151611cb2565b6109b26109a08c604001516118b2565b6109ab5760006109ad565b825b611958565b5050505050506109c061179c565b949350505050565b6109d06116f9565b6109d86117a3565b6109e483518351611d8c565b600083516001600160401b03811180156109fd57600080fd5b50604051908082528060200260200182016040528015610a27578160200160208202803683370190505b509050600084516001600160401b0381118015610a4357600080fd5b50604051908082528060200260200182016040528015610a6d578160200160208202803683370190505b5090506000805b8651811015610be6576000878281518110610a8b57fe5b602002602001015190506000878381518110610aa357fe5b60200260200101519050610aee846001600160a01b0316836001600160a01b03161160006001600160a01b0316846001600160a01b031614610ae6576066610ae9565b60685b61052b565b819350816001600160a01b03166370a08231306040518263ffffffff1660e01b8152600401610b1d9190615aae565b60206040518083038186803b158015610b3557600080fd5b505afa158015610b49573d6000803e3d6000fd5b505050506040513d601f19601f82011682018060405250810190610b6d91906158c0565b858481518110610b7957fe5b602002602001018181525050610b8e81611d99565b868481518110610b9a57fe5b602002602001018181525050610bc881868581518110610bb657fe5b6020026020010151101561021061052b565b610bdc6001600160a01b0383168b83611e20565b5050600101610a74565b5060405163f04f270760e01b81526001600160a01b0388169063f04f270790610c19908990899088908a90600401615bba565b600060405180830381600087803b158015610c3357600080fd5b505af1158015610c47573d6000803e3d6000fd5b5050505060005b8651811015610db8576000878281518110610c6557fe5b602002602001015190506000848381518110610c7d57fe5b602002602001015190506000826001600160a01b03166370a08231306040518263ffffffff1660e01b8152600401610cb59190615aae565b60206040518083038186803b158015610ccd57600080fd5b505afa158015610ce1573d6000803e3d6000fd5b505050506040513d601f19601f82011682018060405250810190610d0591906158c0565b9050610d168282101561020361052b565b60008282039050610d3f888681518110610d2c57fe5b602002602001015182101561025a61052b565b610d498482611e76565b836001600160a01b03168c6001600160a01b03167f0d7d75e01ab95780d3cd1c8ec0dd6c2ce19e3a20427eec8bf53283b6fb8e95f08c8881518110610d8a57fe5b602002602001015184604051610da1929190615d7d565b60405180910390a350505050806001019050610c4e565b50505050610dc461179c565b50505050565b610dd26116f9565b610dda6117a3565b82610de481611e98565b610df083518351611d8c565b60005b8351811015610e8e576000848281518110610e0a57fe5b60200260200101519050610e3660006001600160a01b0316826001600160a01b0316141561013561052b565b838281518110610e4257fe5b6020908102919091018101516000888152600a835260408082206001600160a01b0395861683529093529190912080546001600160a01b03191692909116919091179055600101610df3565b506000610e9a85611ec9565b90506002816002811115610eaa57fe5b1415610ef857610ec0845160021461020c61052b565b610ef38585600081518110610ed157fe5b602002602001015186600181518110610ee657fe5b6020026020010151611ee3565b610f20565b6001816002811115610f0657fe5b1415610f1657610ef38585611f8f565b610f208585611fe7565b847ff5847d3f2197b16cdcd2098ec95d0905cd1abdaf415f07bb7cef2bba8ac5dec48585604051610f52929190615b2f565b60405180910390a25050610f6461179c565b505050565b610f716116f9565b610f796117a3565b81610f8381611e98565b6000610f8e84611ec9565b90506002816002811115610f9e57fe5b1415610fec57610fb4835160021461020c61052b565b610fe78484600081518110610fc557fe5b602002602001015185600181518110610fda57fe5b602002602001015161203c565b611014565b6001816002811115610ffa57fe5b141561100a57610fe784846120aa565b6110148484612164565b60005b835181101561107a57600a6000868152602001908152602001600020600085838151811061104157fe5b6020908102919091018101516001600160a01b0316825281019190915260400160002080546001600160a01b0319169055600101611017565b50837f7dcdc6d02ef40c7c1a7046a011b058bd7f988fa14e20a66344f9d4e60657d610846040516110ab9190615b1c565b60405180910390a2505061053961179c565b60007f0000000000000000000000000000000000000000000000000000000000000000826040516020016110f2929190615a28565b604051602081830303815290604052805190602001209050919050565b610dc46001858585611120866121c7565b6121d3565b6001600160a01b031660009081526002602052604090205490565b606061114a6116f9565b6111526117a3565b835161115d81611a89565b61116c834211156101fc61052b565b61117886518551611d8c565b6111848787878b612359565b91506000805b87518110156112565760008882815181106111a157fe5b6020026020010151905060008583815181106111b957fe5b602002602001015190506111e58884815181106111d257fe5b60200260200101518213156101fb61052b565b600081131561122557885160208a015182916112049185918491611bd4565b61120d836118b2565b1561121f5761121c85826118bf565b94505b5061124c565b600081121561124c57600081600003905061124a83828c604001518d60600151611cb2565b505b505060010161118a565b5061126081611958565b505061126a61179c565b9695505050505050565b60035461010090046001600160a01b031690565b6000611292610506565b905090565b600080600080856112a7816125e7565b6000806112b389611ec9565b905060028160028111156112c357fe5b14156112da576112d38989612605565b9150611305565b60018160028111156112e857fe5b14156112f8576112d3898961267f565b61130289896126ed565b91505b61130e82612705565b965061131982612711565b955061132482612720565b6000998a52600a60209081526040808c206001600160a01b039b8c168d5290915290992054969995989796909616955050505050565b6113626117a3565b610dc46000858585611120866121c7565b7f000000000000000000000000000000000000000000000000000000000000000090565b61139f6116f9565b6113a76117a3565b6113af614bf5565b60005b82518110156114a9578281815181106113c757fe5b602002602001015191506000826020015190506113e3816125e7565b60408301516113fd6113f58383612726565b61020961052b565b6000828152600a602090815260408083206001600160a01b038581168552925290912054611430911633146101f661052b565b8351606085015160008061144684878786612782565b91509150846001600160a01b0316336001600160a01b0316877f6edcaf6241105b4c94c2efdbf3a6b12458eb3d07be3a0e81d24b13c44045fe7a8585604051611490929190615d7d565b60405180910390a45050505050508060010190506113b2565b505061055e61179c565b60006112926127f1565b600080826114ca816125e7565b6114d38461288e565b6114dc85611ec9565b925092505b50915091565b60603330146115a1576000306001600160a01b031660003660405161150d929190615a40565b6000604051808303816000865af19150503d806000811461154a576040519150601f19603f3d011682016040523d82523d6000602084013e61154f565b606091505b50509050806000811461155e57fe5b60046000803e6000516001600160e01b031916637d30e60960e11b8114611589573d6000803e3d6000fd5b50602060005260043d0380600460203e602081016000f35b60006115af85858589612359565b9050602081510263fa61cc126020830352600482036024820181fd5b6060806000836115da816125e7565b60606115e586612894565b90955090506115f3816128f6565b95979096509350505050565b6116076116f9565b61160f6117a3565b8261161981611a89565b6001600160a01b0384811660008181526004602090815260408083209488168084529490915290819020805460ff1916861515179055519091907f46961fdb4502b646d5095fba7600486a8ac05041d55cdf0f16ed677180b5cad890611680908690615c50565b60405180910390a350610f6461179c565b600061169d83836129a4565b90505b92915050565b62461bcd60e51b6000908152602060045260076024526642414c23000030600a808404818106603090810160081b95839006959095019082900491820690940160101b939093010160c81b604452606490fd5b61170b6002600054141561019061052b565b6002600055565b60006117296000356001600160e01b0319166110bd565b905061055e61173882336129d2565b61019161052b565b6040516001600160a01b038216907f94b979b6831a51293e2641426f97747feed46f17779fed9cd18d1ecefcfe92ef90600090a2600380546001600160a01b0390921661010002610100600160a81b0319909216919091179055565b6001600055565b6117b66117ae611a24565b61019261052b565b565b600069ffffffffffffffffffff821660508460028111156117d557fe5b901b17606085901b6bffffffffffffffffffffffff19161790505b9392505050565b600080600080600080600088606001519050336001600160a01b0316816001600160a01b03161461184957876118345761182f611712565b600197505b61184961184182336129a4565b6101f761052b565b885160208a015160408b01516080909b0151919b909a9992985090965090945092505050565b6118848361187c86611abb565b836000612a5c565b50610dc48482846000611cb2565b6118a58261189f86611abb565b83612ab2565b610dc48482856000611bd4565b6001600160a01b03161590565b600082820161169d848210158361052b565b6118de8385836000612a5c565b50610dc4828583612ab2565b8015610dc4576119056001600160a01b038516848484612ae2565b826001600160a01b0316846001600160a01b03167f540a1a3f28340caec336c81d8d7b3df139ee5cdc1839a4f283d7ebb7eaae2d5c848460405161194a929190615b03565b60405180910390a350505050565b6119678134101561020461052b565b348190038015610539576105393382612b03565b6001600160a01b039182166000908152600b6020908152604080832093909416825291909152205490565b80156119c6576119c16119b7611a41565b421061019361052b565b6119db565b6119db6119d1611a65565b42106101a961052b565b6003805460ff19168215151790556040517f9e3a5e37224532dea67b89face185703738a228a6e8a23dee546960180d3be6490611a19908390615c50565b60405180910390a150565b6000611a2e611a65565b42118061129257505060035460ff161590565b7f000000000000000000000000000000000000000000000000000000000000000090565b7f000000000000000000000000000000000000000000000000000000000000000090565b336001600160a01b0382161461055e57611aa1611712565b611aab81336129a4565b61055e5761055e816101f7612b7d565b6000611ac6826118b2565b611ad857611ad382610528565b6116a0565b6116a0610506565b600080600080611af3856080015161288e565b90506000611b048660800151611ec9565b90506002816002811115611b1457fe5b1415611b2b57611b248683612bb1565b9450611b56565b6001816002811115611b3957fe5b1415611b4957611b248683612c61565b611b538683612cf4565b94505b611b698660000151876060015187612f18565b809450819550505085604001516001600160a01b031686602001516001600160a01b031687608001517f2170c741c41531aec20e7c107c24eecfdd15e69c9bb0a8dd37b1840b9e0b207b8787604051611bc3929190615d7d565b60405180910390a450509193909250565b82611bde57610dc4565b611be7846118b2565b15611c6857611bf9811561020261052b565b611c088347101561020461052b565b611c10610506565b6001600160a01b031663d0e30db0846040518263ffffffff1660e01b81526004016000604051808303818588803b158015611c4a57600080fd5b505af1158015611c5e573d6000803e3d6000fd5b5050505050610dc4565b6000611c7385610528565b90508115611c90576000611c8a8483876001612a5c565b90940393505b8315611cab57611cab6001600160a01b038216843087612ae2565b5050505050565b82611cbc57610dc4565b611cc5846118b2565b15611d5557611cd7811561020261052b565b611cdf610506565b6001600160a01b0316632e1a7d4d846040518263ffffffff1660e01b8152600401611d0a9190615c73565b600060405180830381600087803b158015611d2457600080fd5b505af1158015611d38573d6000803e3d6000fd5b50611d50925050506001600160a01b03831684612b03565b610dc4565b6000611d6085610528565b90508115611d7857611d73838286612ab2565b611cab565b611cab6001600160a01b0382168486611e20565b610539818314606761052b565b600080611da4611373565b6001600160a01b031663d877845c6040518163ffffffff1660e01b815260040160206040518083038186803b158015611ddc57600080fd5b505afa158015611df0573d6000803e3d6000fd5b505050506040513d601f19601f82011682018060405250810190611e1491906158c0565b90506117f08382612f46565b610f648363a9059cbb60e01b8484604051602401611e3f929190615b03565b60408051601f198184030181529190526020810180516001600160e01b03166001600160e01b031990931692909217909152612f93565b801561053957610539611e87611373565b6001600160a01b0384169083611e20565b611ea1816125e7565b61055e611ead8261288e565b6001600160a01b0316336001600160a01b0316146101f561052b565b600061ffff605083901c166116a0600382106101f461052b565b611f04816001600160a01b0316836001600160a01b0316141561020a61052b565b611f23816001600160a01b0316836001600160a01b031610606661052b565b60008381526009602052604090208054611f60906001600160a01b0316158015611f58575060018201546001600160a01b0316155b61020b61052b565b80546001600160a01b039384166001600160a01b03199182161782556001909101805492909316911617905550565b6000828152600860205260408120905b8251811015610dc4576000611fd0848381518110611fb957fe5b60200260200101518461303290919063ffffffff16565b9050611fde8161020a61052b565b50600101611f9f565b6000828152600160205260408120905b8251811015610dc457600061202584838151811061201157fe5b602090810291909101015184906000613095565b90506120338161020a61052b565b50600101611ff7565b600080600061204c868686613142565b92509250925061207661205e84613209565b801561206e575061206e83613209565b61020d61052b565b600095865260096020526040862080546001600160a01b031990811682556001909101805490911690559490945550505050565b6000828152600860205260408120905b8251811015610dc45760008382815181106120d157fe5b6020026020010151905061211d61206e600760008881526020019081526020016000206000846001600160a01b03166001600160a01b0316815260200190815260200160002054613209565b60008581526007602090815260408083206001600160a01b0385168452909152812081905561214c8483613216565b905061215a8161020961052b565b50506001016120ba565b6000828152600160205260408120905b8251811015610dc457600083828151811061218b57fe5b6020026020010151905060006121a1848361331d565b90506121af61206e82613209565b6121b9848361332c565b505050806001019050612174565b6121cf614c1e565b5090565b6121db6116f9565b836121e5816125e7565b836121ef81611a89565b612203836000015151846020015151611d8c565b600061221284600001516133ce565b90506000612220888361345d565b905060008060006122358c8c8c8c8c896134ee565b92509250925060006122468c611ec9565b9050600281600281111561225657fe5b14156122be576122b98c8760008151811061226d57fe5b60200260200101518660008151811061228257fe5b60200260200101518960018151811061229757fe5b6020026020010151886001815181106122ac57fe5b60200260200101516136b3565b6122e7565b60018160028111156122cc57fe5b14156122dd576122b98c87866136f2565b6122e78c8561375f565b6000808e60018111156122f657fe5b1490508b6001600160a01b03168d7fe5ce249087ce04f05a957192435400fd97868dba0e6a4b4c049abf8af80dae788961233088866137a8565b8760405161234093929190615b81565b60405180910390a3505050505050505050611cab61179c565b606083516001600160401b038111801561237257600080fd5b5060405190808252806020026020018201604052801561239c578160200160208202803683370190505b5090506123a7614c48565b6123af614ba5565b60008060005b89518110156125da578981815181106123ca57fe5b602002602001015194506000895186602001511080156123ee575089518660400151105b90506123fb81606461052b565b600061241d8b88602001518151811061241057fe5b6020026020010151611abb565b905060006124348c89604001518151811061241057fe5b9050612457816001600160a01b0316836001600160a01b031614156101fd61052b565b60608801516124a75761246f600085116101fe61052b565b600061247c8b848461384f565b6001600160a01b0316876001600160a01b031614905061249e816101ff61052b565b50606088018590525b87516080880152868a60018111156124bb57fe5b908160018111156124c857fe5b9052506001600160a01b0380831660208901528181166040808a01919091526060808b0151908a015260808a01516101008a01528c51821660c08a01528c01511660e088015260008061251a89611ae0565b9198509250905061252c8c8585613871565b975061256061253a8361388b565b8c8c602001518151811061254a57fe5b602002602001015161389f90919063ffffffff16565b8b8b602001518151811061257057fe5b6020026020010181815250506125ae6125888261388b565b8c8c604001518151811061259857fe5b60200260200101516138d390919063ffffffff16565b8b8b60400151815181106125be57fe5b60200260200101818152505050505050508060010190506123b5565b5050505050949350505050565b60008181526005602052604090205461055e9060ff166101f461052b565b600080600080600061261687613907565b945094509450945050836001600160a01b0316866001600160a01b0316141561264557829450505050506116a0565b816001600160a01b0316866001600160a01b0316141561266a5793506116a092505050565b6126756102096116a6565b5050505092915050565b60008281526007602090815260408083206001600160a01b0385168452909152812054816126ac8261397d565b806126ca575060008581526008602052604090206126ca908561398f565b9050806126e5576126da856125e7565b6126e56102096116a6565b509392505050565b60008281526001602052604081206109c0818461331d565b6001600160701b031690565b60701c6001600160701b031690565b60e01c90565b60008061273284611ec9565b9050600281600281111561274257fe5b141561275a5761275284846139b0565b9150506116a0565b600181600281111561276857fe5b1415612778576127528484613a01565b6127528484613a19565b600080600061279086611ec9565b905060008760028111156127a057fe5b14156127bc576127b286828787613a31565b92509250506127e8565b60018760028111156127ca57fe5b14156127dc576127b286828787613aac565b6127b286828787613b28565b94509492505050565b60007f00000000000000000000000000000000000000000000000000000000000000007f00000000000000000000000000000000000000000000000000000000000000007f000000000000000000000000000000000000000000000000000000000000000061285e613b8b565b30604051602001612873959493929190615d25565b60405160208183030381529060405280519060200120905090565b60601c90565b60608060006128a284611ec9565b905060028160028111156128b257fe5b14156128cb576128c184613b8f565b92509250506128f1565b60018160028111156128d957fe5b14156128e8576128c184613cc4565b6128c184613de9565b915091565b6060600082516001600160401b038111801561291157600080fd5b5060405190808252806020026020018201604052801561293b578160200160208202803683370190505b5091506000905060005b82518110156114e157600084828151811061295c57fe5b6020026020010151905061296f81613ee3565b84838151811061297b57fe5b6020026020010181815250506129998361299483612720565b613efe565b925050600101612945565b6001600160a01b03918216600090815260046020908152604080832093909416825291909152205460ff1690565b6003546040516326f8aa2160e21b815260009161010090046001600160a01b031690639be2a88490612a0c90869086903090600401615c7c565b60206040518083038186803b158015612a2457600080fd5b505afa158015612a38573d6000803e3d6000fd5b505050506040513d601f19601f8201168201806040525081019061169d91906153cf565b600080612a69868661197b565b9050612a828380612a7a5750848210155b61020161052b565b612a8c8185613f15565b9150818103612aa8878783612aa08761388b565b600003613f24565b5050949350505050565b6000612abe848461197b565b90506000612acc82846118bf565b9050611cab858583612add8761388b565b613f24565b610dc4846323b872dd60e01b858585604051602401611e3f93929190615ac2565b612b12814710156101a361052b565b6000826001600160a01b031682604051612b2b90610528565b60006040518083038185875af1925050503d8060008114612b68576040519150601f19603f3d011682016040523d82523d6000602084013e612b6d565b606091505b50509050610f64816101a461052b565b6001600160a01b0382166000908152600260205260409020805460018101909155610f64612bab8483613f7f565b8361052b565b600080600080612bce866080015187602001518860400151613142565b92509250925060008087604001516001600160a01b031688602001516001600160a01b03161015612c03575083905082612c09565b50829050835b612c15888884846140a5565b60408b015160208c01519199509294509092506001600160a01b03918216911610612c4957612c4481836141a2565b612c53565b612c5382826141a2565b909255509295945050505050565b600080612c768460800151856020015161267f565b90506000612c8c8560800151866040015161267f565b9050612c9a858584846140a5565b6080880180516000908152600760208181526040808420828e01516001600160a01b03908116865290835281852098909855935183529081528282209a830151909516815298909352919096209590955550929392505050565b60808201516000908152600160209081526040822090840151829182918290612d1e9083906141dd565b90506000612d398860400151846141dd90919063ffffffff16565b9050811580612d46575080155b15612d6357612d5888608001516125e7565b612d636102096116a6565b60001991820191016000612d76846141fc565b90506000816001600160401b0381118015612d9057600080fd5b50604051908082528060200260200182016040528015612dba578160200160208202803683370190505b50600060a08c018190529091505b82811015612e3a576000612ddc8783614200565b9050612de781613ee3565b838381518110612df357fe5b602002602001018181525050612e108c60a0015161299483612720565b60a08d015281861415612e2557809850612e31565b84821415612e31578097505b50600101612dc8565b5060405162f64aa560e11b81526001600160a01b038a16906301ec954a90612e6c908d90859089908990600401615d8b565b602060405180830381600087803b158015612e8657600080fd5b505af1158015612e9a573d6000803e3d6000fd5b505050506040513d601f19601f82011682018060405250810190612ebe91906158c0565b9750600080612ed68c600001518d606001518c612f18565b9092509050612ee58983614216565b9850612ef18882614247565b9750612efe87878b61425d565b612f0987868a61425d565b50505050505050505092915050565b60008080856001811115612f2857fe5b1415612f38575082905081612f3e565b50819050825b935093915050565b6000828202612f6a841580612f63575083858381612f6057fe5b04145b600361052b565b80612f795760009150506116a0565b670de0b6b3a76400006000198201046001019150506116a0565b600080836001600160a01b031683604051612fae9190615a50565b6000604051808303816000865af19150503d8060008114612feb576040519150601f19603f3d011682016040523d82523d6000602084013e612ff0565b606091505b50915091506000821415613008573d6000803e3d6000fd5b610dc481516000148061302a57508180602001905181019061302a91906153cf565b6101a261052b565b600061303e838361398f565b61308d57508154600180820184556000848152602080822090930180546001600160a01b0319166001600160a01b038616908117909155855490825282860190935260409020919091556116a0565b5060006116a0565b6001600160a01b03821660009081526002840160205260408120548061312257505082546040805180820182526001600160a01b03858116808352602080840187815260008781526001808c018452878220965187546001600160a01b031916961695909517865590519484019490945594820180895590835260028801909452919020919091556117f0565b6000190160009081526001808601602052604082200183905590506117f0565b60008060008060006131548787614275565b91509150600061316483836142a6565b60008a8152600960209081526040808320848452600201909152812080546001820154919750929350906131978361397d565b806131a657506131a68261397d565b806131c757506131b68c876139b0565b80156131c757506131c78c866139b0565b9050806131e2576131d78c6125e7565b6131e26102096116a6565b6131ec83836142d9565b98506131f883836142fe565b975050505050505093509350939050565b6001600160e01b03161590565b6001600160a01b03811660009081526001830160205260408120548015613313578354600019808301919081019060009087908390811061325357fe5b60009182526020909120015487546001600160a01b039091169150819088908590811061327c57fe5b600091825260208083209190910180546001600160a01b0319166001600160a01b039485161790559183168152600189810190925260409020908401905586548790806132c557fe5b60008281526020808220830160001990810180546001600160a01b03191690559092019092556001600160a01b03881682526001898101909152604082209190915594506116a09350505050565b60009150506116a0565b600061169d8383610209614315565b6001600160a01b0381166000908152600283016020526040812054801561331357835460001990810160008181526001878101602090815260408084209587018452808420865481546001600160a01b03199081166001600160a01b0392831617835588860180549387019390935588548216875260028d018086528488209a909a5588541690975584905593895593871682529390925281205590506116a0565b6060600082516001600160401b03811180156133e957600080fd5b50604051908082528060200260200182016040528015613413578160200160208202803683370190505b50905060005b83518110156107de5761343184828151811061241057fe5b82828151811061343d57fe5b6001600160a01b0390921660209283029190910190910152600101613419565b606060008061346b85612894565b9150915061347b82518551611d8c565b61348b600083511161020f61052b565b60005b82518110156134e5576134dd8582815181106134a657fe5b60200260200101516001600160a01b03168483815181106134c357fe5b60200260200101516001600160a01b03161461020861052b565b60010161348e565b50949350505050565b60608060606000806134ff866128f6565b91509150600061350e8b61288e565b905060008c600181111561351e57fe5b146135c157806001600160a01b03166374f3b0098c8c8c878761353f614352565b8f604001516040518863ffffffff1660e01b81526004016135669796959493929190615c9b565b600060405180830381600087803b15801561358057600080fd5b505af1158015613594573d6000803e3d6000fd5b505050506040513d6000823e601f3d908101601f191682016040526135bc919081019061535d565b61365a565b806001600160a01b031663d5c096c48c8c8c87876135dd614352565b8f604001516040518863ffffffff1660e01b81526004016136049796959493929190615c9b565b600060405180830381600087803b15801561361e57600080fd5b505af1158015613632573d6000803e3d6000fd5b505050506040513d6000823e601f3d908101601f1916820160405261365a919081019061535d565b80955081965050506136708751865186516143cc565b60008c600181111561367e57fe5b146136955761369089898988886143e4565b6136a2565b6136a28a8989888861452a565b955050505096509650969350505050565b60006136bf85846142a6565b600087815260096020908152604080832084845260020190915290209091506136e885846141a2565b9055505050505050565b60005b8251811015610dc45781818151811061370a57fe5b602002602001015160076000868152602001908152602001600020600085848151811061373357fe5b6020908102919091018101516001600160a01b03168252810191909152604001600020556001016136f5565b6000828152600160205260408120905b8251811015610dc4576137a08184838151811061378857fe5b60200260200101518461425d9092919063ffffffff16565b60010161376f565b606082516001600160401b03811180156137c157600080fd5b506040519080825280602002602001820160405280156137eb578160200160208202803683370190505b50905060005b83518110156107de578261381b5783818151811061380b57fe5b6020026020010151600003613830565b83818151811061382757fe5b60200260200101515b82828151811061383c57fe5b60209081029190910101526001016137f1565b60008084600181111561385e57fe5b1461386957816109c0565b509092915050565b60008084600181111561388057fe5b146107de57826109c0565b60006121cf600160ff1b83106101a561052b565b600082820161169d8284128015906138b75750848212155b806138cc57506000841280156138cc57508482125b600061052b565b600081830361169d8284128015906138eb5750848213155b80613900575060008412801561390057508482135b600161052b565b6000818152600960205260408120805460018201546001600160a01b039182169284929091169082908161393b86856142a6565b600081815260028401602052604090208054600182015491995091925061396282826142d9565b965061396e82826142fe565b94505050505091939590929450565b600061398882613209565b1592915050565b6001600160a01b031660009081526001919091016020526040902054151590565b600082815260096020526040812080546001600160a01b03848116911614806139e8575060018101546001600160a01b038481169116145b80156109c0575050506001600160a01b03161515919050565b60008281526008602052604081206109c0818461398f565b60008281526001602052604081206109c0818461469f565b6000806002856002811115613a4257fe5b1415613a5857613a538685856146c0565b613a82565b6001856002811115613a6657fe5b1415613a7757613a538685856146ce565b613a828685856146dc565b8215613a9c57613a9c6001600160a01b0385163385611e20565b5050600081900394909350915050565b6000806002856002811115613abd57fe5b1415613ad357613ace8685856146ea565b613afd565b6001856002811115613ae157fe5b1415613af257613ace8685856146f8565b613afd868585614706565b8215613b1857613b186001600160a01b038516333086612ae2565b5090946000869003945092505050565b6000806002856002811115613b3957fe5b1415613b5157613b4a868585614714565b9050613b7e565b6001856002811115613b5f57fe5b1415613b7057613b4a868585614724565b613b7b868585614734565b90505b6000915094509492505050565b4690565b606080600080600080613ba187613907565b92975090955093509150506001600160a01b0384161580613bc957506001600160a01b038216155b15613bf257505060408051600080825260208201908152818301909252945092506128f1915050565b60408051600280825260608201835290916020830190803683370190505095508386600081518110613c2057fe5b60200260200101906001600160a01b031690816001600160a01b0316815250508186600181518110613c4e57fe5b6001600160a01b03929092166020928302919091018201526040805160028082526060820183529092909190830190803683370190505094508285600081518110613c9557fe5b6020026020010181815250508085600181518110613caf57fe5b60200260200101818152505050505050915091565b60008181526008602052604090206060908190613ce0816141fc565b6001600160401b0381118015613cf557600080fd5b50604051908082528060200260200182016040528015613d1f578160200160208202803683370190505b50925082516001600160401b0381118015613d3957600080fd5b50604051908082528060200260200182016040528015613d63578160200160208202803683370190505b50915060005b8351811015613de2576000613d7e8383614744565b905080858381518110613d8d57fe5b6001600160a01b03928316602091820292909201810191909152600088815260078252604080822093851682529290915220548451859084908110613dce57fe5b602090810291909101015250600101613d69565b5050915091565b60008181526001602052604090206060908190613e05816141fc565b6001600160401b0381118015613e1a57600080fd5b50604051908082528060200260200182016040528015613e44578160200160208202803683370190505b50925082516001600160401b0381118015613e5e57600080fd5b50604051908082528060200260200182016040528015613e88578160200160208202803683370190505b50915060005b8351811015613de257613ea18282614771565b858381518110613ead57fe5b60200260200101858481518110613ec057fe5b60209081029190910101919091526001600160a01b039091169052600101613e8e565b6000613eee82612711565b613ef783612705565b0192915050565b600081831015613f0e578161169d565b5090919050565b6000818310613f0e578161169d565b6001600160a01b038085166000818152600b602090815260408083209488168084529490915290819020859055517f18e1ea4139e68413d7d08aa752e71568e36b2c5bf940893314c2c5b01eaa0c429061194a908590615c73565b600080613f8a614795565b905042811015613f9e5760009150506116a0565b6000613fa86147a1565b905080613fba576000925050506116a0565b600081613fc56148b2565b8051602091820120604051613fe1939233918a91899101615cf9565b604051602081830303815290604052805190602001209050600061400482614901565b9050600080600061401361491d565b92509250925060006001858585856040516000815260200160405260405161403e9493929190615d51565b6020604051602081039080840390855afa158015614060573d6000803e3d6000fd5b5050604051601f1901519150506001600160a01b0381161580159061409657508a6001600160a01b0316816001600160a01b0316145b9b9a5050505050505050505050565b6000806000806140b486613ee3565b905060006140c186613ee3565b90506140d86140cf88612720565b61299488612720565b60a08a015260405163274b044360e21b81526001600160a01b03891690639d2c110c9061410d908c9086908690600401615dc4565b602060405180830381600087803b15801561412757600080fd5b505af115801561413b573d6000803e3d6000fd5b505050506040513d601f19601f8201168201806040525081019061415f91906158c0565b92506000806141778b600001518c6060015187612f18565b90925090506141868983614216565b96506141928882614247565b9550505050509450945094915050565b6000806141ba6141b185612720565b61299485612720565b90506109c06141c885612705565b6141d185612705565b8363ffffffff16614944565b6001600160a01b03166000908152600291909101602052604090205490565b5490565b6000908152600191820160205260409020015490565b60008061422c8361422686612705565b906118bf565b9050600061423985612711565b90504361126a838383614952565b60008061422c8361425786612705565b90614980565b60009182526001928301602052604090912090910155565b600080826001600160a01b0316846001600160a01b03161061429857828461429b565b83835b915091509250929050565b600082826040516020016142bb929190615a6c565b60405160208183030381529060405280519060200120905092915050565b600061169d6142e784612705565b6142f084612705565b6142f986612720565b614952565b600061169d61430c84612711565b6142f084612711565b6001600160a01b038216600090815260028401602052604081205461433c8115158461052b565b6143498560018303614200565b95945050505050565b600061435c611373565b6001600160a01b03166355c676286040518163ffffffff1660e01b815260040160206040518083038186803b15801561439457600080fd5b505afa1580156143a8573d6000803e3d6000fd5b505050506040513d601f19601f8201168201806040525081019061129291906158c0565b610f6482841480156143dd57508183145b606761052b565b606083516001600160401b03811180156143fd57600080fd5b50604051908082528060200260200182016040528015614427578160200160208202803683370190505b50905060005b85515181101561452057600084828151811061444557fe5b602002602001015190506144758760200151838151811061446257fe5b60200260200101518210156101f961052b565b60008760000151838151811061448757fe5b602002602001015190506144a181838b8b60600151611cb2565b60008584815181106144af57fe5b602002602001015190506144cb6144c583611abb565b82611e76565b6144fa6144d884836118bf565b8986815181106144e457fe5b602002602001015161424790919063ffffffff16565b85858151811061450657fe5b60200260200101818152505050505080600101905061442d565b5095945050505050565b6060600084516001600160401b038111801561454557600080fd5b5060405190808252806020026020018201604052801561456f578160200160208202803683370190505b50915060005b86515181101561469557600085828151811061458d57fe5b602002602001015190506145bd886020015183815181106145aa57fe5b60200260200101518211156101fa61052b565b6000886000015183815181106145cf57fe5b602002602001015190506145e981838c8c60600151611bd4565b6145f2816118b2565b156146045761460184836118bf565b93505b600086848151811061461257fe5b602002602001015190506146286144c583611abb565b80831015614647576146428382038a86815181106144e457fe5b61466f565b61466f8184038a868151811061465957fe5b602002602001015161421690919063ffffffff16565b86858151811061467b57fe5b602002602001018181525050505050806001019050614575565b5061452081611958565b6001600160a01b031660009081526002919091016020526040902054151590565b610dc48383614996846149d1565b610dc4838361499684614a7c565b610dc4838361499684614ad7565b610dc48383614b26846149d1565b610dc48383614b2684614a7c565b610dc48383614b2684614ad7565b60006109c08484614b47856149d1565b60006109c08484614b4785614a7c565b60006109c08484614b4785614ad7565b600082600001828154811061475557fe5b6000918252602090912001546001600160a01b03169392505050565b600090815260019182016020526040902080549101546001600160a01b0390911691565b60006112926000614b61565b6000803560e01c8063b95cac2881146147e957638bdb39138114614811576352bbbe2981146148395763945bcec981146148615763fa6e671d811461488957600092506148ad565b7f3f7b71252bd19113ff48c19c6e004a9bcfcca320a0d74d58e85877cbd7dcae5892506148ad565b7f8bbc57f66ea936902f50a71ce12b92c43f3c5340bb40c27c4e90ab84eeae335392506148ad565b7fe192dcbc143b1e244ad73b813fd3c097b832ad260a157340b4e5e5beda067abe92506148ad565b7f9bfc43a4d98313c6766986ffd7c916c7481566d9f224c6819af0a53388aced3a92506148ad565b7fa3f865aa351e51cfeb40f5178d1564bb629fe9030b83caf6361d1baaf5b90b5a92505b505090565b60606000368080601f0160208091040260200160405190810160405280939291908181526020018383808284376000920191909152505082519293505050608010156105285760803603815290565b600061490b6127f1565b826040516020016110f2929190615a93565b600080600061492c6020614b61565b92506149386040614b61565b91506108206060614b61565b60e01b60709190911b010190565b600083830161497585821080159061496d5750600160701b82105b61020e61052b565b614349858585614944565b600061499083831115600161052b565b50900390565b6000806149a68361425786612705565b905060006149b78461422687612711565b905060006149c486612720565b905061126a838383614952565b60008060008060006149e289613907565b9450509350935093506000836001600160a01b0316896001600160a01b03161415614a2d576000614a1784898b63ffffffff16565b9050614a238185614b6b565b9093509050614a4f565b6000614a3d83898b63ffffffff16565b9050614a498184614b6b565b90925090505b614a5983836141a2565b8555614a658383614b87565b600190950194909455509192505050949350505050565b600080614a89868661267f565b90506000614a9b82858763ffffffff16565b60008881526007602090815260408083206001600160a01b038b16845290915290208190559050614acc8183614b6b565b979650505050505050565b600084815260016020526040812081614af0828761331d565b90506000614b0282868863ffffffff16565b9050614b0f838883613095565b50614b1a8183614b6b565b98975050505050505050565b600080614b368361422686612705565b905060006149b78461425787612711565b600080614b5384612705565b905043614349828583614952565b3601607f19013590565b6000614b7682612711565b614b7f84612711565b039392505050565b600061169d614b9584612711565b614b9e84612711565b6000614944565b60408051610120810190915280600081526000602082018190526040820181905260608083018290526080830182905260a0830182905260c0830182905260e08301919091526101009091015290565b604080516080810190915280600081526000602082018190526040820181905260609091015290565b60405180608001604052806060815260200160608152602001606081526020016000151581525090565b6040518060a0016040528060008019168152602001600081526020016000815260200160008152602001606081525090565b803561060f81615e79565b600082601f830112614c95578081fd5b81356020614caa614ca583615e30565b615e0d565b8281528181019085830183850287018401881015614cc6578586fd5b855b85811015614ced578135614cdb81615e79565b84529284019290840190600101614cc8565b5090979650505050505050565b600082601f830112614d0a578081fd5b81356020614d1a614ca583615e30565b8281528181019085830183850287018401881015614d36578586fd5b855b85811015614ced578135614d4b81615e79565b84529284019290840190600101614d38565b600082601f830112614d6d578081fd5b81356020614d7d614ca583615e30565b82815281810190858301855b85811015614ced578135880160a080601f19838d03011215614da9578889fd5b604080518281016001600160401b038282108183111715614dc657fe5b8184528a8601358352838601358b84015260609150818601358484015260809350838601358284015284860135945080851115614e01578c8dfd5b5050614e118d8a85870101614eeb565b91810191909152865250509284019290840190600101614d89565b600082601f830112614e3c578081fd5b81356020614e4c614ca583615e30565b8281528181019085830183850287018401881015614e68578586fd5b855b85811015614ced57813584529284019290840190600101614e6a565b600082601f830112614e96578081fd5b81516020614ea6614ca583615e30565b8281528181019085830183850287018401881015614ec2578586fd5b855b85811015614ced57815184529284019290840190600101614ec4565b803561060f81615e8e565b600082601f830112614efb578081fd5b81356001600160401b03811115614f0e57fe5b614f21601f8201601f1916602001615e0d565b818152846020838601011115614f35578283fd5b816020850160208301379081016020019190915292915050565b80356002811061060f57600080fd5b600060808284031215614f6f578081fd5b614f796080615e0d565b905081356001600160401b0380821115614f9257600080fd5b614f9e85838601614c85565b83526020840135915080821115614fb457600080fd5b614fc085838601614e2c565b60208401526040840135915080821115614fd957600080fd5b50614fe684828501614eeb565b604083015250614ff860608301614ee0565b606082015292915050565b600060808284031215615014578081fd5b604051608081018181106001600160401b038211171561503057fe5b604052905080823561504181615e79565b8152602083013561505181615e8e565b6020820152604083013561506481615e79565b6040820152606083013561507781615e8e565b6060919091015292915050565b600060208284031215615095578081fd5b813561169d81615e79565b600080604083850312156150b2578081fd5b82356150bd81615e79565b915060208301356150cd81615e79565b809150509250929050565b6000806000606084860312156150ec578081fd5b83356150f781615e79565b9250602084013561510781615e79565b9150604084013561511781615e8e565b809150509250925092565b60008060408385031215615134578182fd5b823561513f81615e79565b915060208301356001600160401b03811115615159578182fd5b61516585828601614cfa565b9150509250929050565b60006020808385031215615181578182fd5b82356001600160401b0380821115615197578384fd5b818501915085601f8301126151aa578384fd5b81356151b8614ca582615e30565b818152848101908486016080808502870188018b10156151d6578889fd5b8896505b848710156152505780828c0312156151f0578889fd5b60408051828101818110898211171561520557fe5b8252833561521281615e9c565b8152838a01358a8201528184013561522981615e79565b918101919091526060838101359082015284526001969096019592870192908101906151da565b50909998505050505050505050565b60006020808385031215615271578182fd5b82356001600160401b0380821115615287578384fd5b818501915085601f83011261529a578384fd5b81356152a8614ca582615e30565b8181528481019084860160a0808502870188018b10156152c6578889fd5b8896505b848710156152505780828c0312156152e0578889fd5b6040805182810181811089821117156152f557fe5b8252833560048110615305578b8cfd5b8152615312848b01614c7a565b8a82015281840135828201526060915061532d828501614c7a565b8282015260809150615340828501614c7a565b9181019190915284526001969096019592870192908101906152ca565b6000806040838503121561536f578182fd5b82516001600160401b0380821115615385578384fd5b61539186838701614e86565b935060208501519150808211156153a6578283fd5b5061516585828601614e86565b6000602082840312156153c4578081fd5b813561169d81615e8e565b6000602082840312156153e0578081fd5b815161169d81615e8e565b6000602082840312156153fc578081fd5b5035919050565b60008060008060808587031215615418578182fd5b84359350602085013561542a81615e79565b9250604085013561543a81615e79565b915060608501356001600160401b03811115615454578182fd5b61546087828801614f5e565b91505092959194509250565b6000806040838503121561547e578182fd5b8235915060208301356001600160401b03811115615159578182fd5b6000806000606084860312156154ae578081fd5b833592506020808501356001600160401b03808211156154cc578384fd5b6154d888838901614cfa565b945060408701359150808211156154ed578384fd5b508501601f810187136154fe578283fd5b803561550c614ca582615e30565b81815283810190838501858402850186018b1015615528578687fd5b8694505b8385101561555357803561553f81615e79565b83526001949094019391850191850161552c565b5080955050505050509250925092565b60008060408385031215615575578182fd5b8235915060208301356150cd81615e79565b600060208284031215615598578081fd5b81356001600160e01b03198116811461169d578182fd5b600080600080608085870312156155c4578182fd5b84356155cf81615e79565b935060208501356001600160401b03808211156155ea578384fd5b6155f688838901614cfa565b9450604087013591508082111561560b578384fd5b61561788838901614e2c565b9350606087013591508082111561562c578283fd5b5061546087828801614eeb565b60006020828403121561564a578081fd5b813561169d81615e9c565b60008060008060e0858703121561566a578182fd5b61567385614f4f565b935060208501356001600160401b038082111561568e578384fd5b61569a88838901614d5d565b945060408701359150808211156156af578384fd5b506156bc87828801614c85565b9250506156cc8660608701615003565b905092959194509250565b60008060008060008061012087890312156156f0578384fd5b6156f987614f4f565b95506020808801356001600160401b0380821115615715578687fd5b6157218b838c01614d5d565b975060408a0135915080821115615736578687fd5b6157428b838c01614c85565b96506157518b60608c01615003565b955060e08a0135915080821115615766578485fd5b508801601f81018a13615777578384fd5b8035615785614ca582615e30565b81815283810190838501858402850186018e10156157a1578788fd5b8794505b838510156157c35780358352600194909401939185019185016157a5565b50809650505050505061010087013590509295509295509295565b60008060008060e085870312156157f3578182fd5b84356001600160401b0380821115615809578384fd5b9086019060c0828903121561581c578384fd5b60405160c08101818110838211171561583157fe5b6040528235815261584460208401614f4f565b602082015261585560408401614c7a565b604082015261586660608401614c7a565b60608201526080830135608082015260a083013582811115615886578586fd5b6158928a828601614eeb565b60a0830152508096505050506158ab8660208701615003565b939693955050505060a08201359160c0013590565b6000602082840312156158d1578081fd5b5051919050565b6001600160a01b03169052565b6000815180845260208085019450808401835b8381101561591d5781516001600160a01b0316875295820195908201906001016158f8565b509495945050505050565b6000815180845260208085019450808401835b8381101561591d5781518752958201959082019060010161593b565b6000815180845261596f816020860160208601615e4d565b601f01601f19169290920160200192915050565b6003811061598d57fe5b9052565b60006101208251600281106159a257fe5b8085525060208301516159b860208601826158d8565b5060408301516159cb60408601826158d8565b50606083015160608501526080830151608085015260a083015160a085015260c08301516159fc60c08601826158d8565b5060e0830151615a0f60e08601826158d8565b5061010080840151828287015261126a83870182615957565b9182526001600160e01b031916602082015260240190565b6000828483379101908152919050565b60008251615a62818460208701615e4d565b9190910192915050565b6bffffffffffffffffffffffff19606093841b811682529190921b16601482015260280190565b61190160f01b81526002810192909252602282015260420190565b6001600160a01b0391909116815260200190565b6001600160a01b039384168152919092166020820152604081019190915260600190565b6001600160a01b0383168152604081016117f06020830184615983565b6001600160a01b03929092168252602082015260400190565b60006020825261169d60208301846158e5565b600060408252615b4260408301856158e5565b828103602084810191909152845180835285820192820190845b81811015614ced5784516001600160a01b031683529383019391830191600101615b5c565b600060608252615b9460608301866158e5565b8281036020840152615ba68186615928565b9050828103604084015261126a8185615928565b600060808252615bcd60808301876158e5565b8281036020840152615bdf8187615928565b90508281036040840152615bf38186615928565b90508281036060840152614acc8185615957565b600060608252615c1a60608301866158e5565b8281036020840152615c2c8186615928565b915050826040830152949350505050565b60006020825261169d6020830184615928565b901515815260200190565b92151583526020830191909152604082015260600190565b90815260200190565b9283526001600160a01b03918216602084015216604082015260600190565b8781526001600160a01b0387811660208301528616604082015260e060608201819052600090615ccd90830187615928565b8560808401528460a084015282810360c0840152615ceb8185615957565b9a9950505050505050505050565b94855260208501939093526001600160a01b039190911660408401526060830152608082015260a00190565b9485526020850193909352604084019190915260608301526001600160a01b0316608082015260a00190565b93845260ff9290921660208401526040830152606082015260800190565b602081016116a08284615983565b918252602082015260400190565b600060808252615d9e6080830187615991565b8281036020840152615db08187615928565b604084019590955250506060015292915050565b600060608252615dd76060830186615991565b60208301949094525060400152919050565b938452602084019290925260408301526001600160a01b0316606082015260800190565b6040518181016001600160401b0381118282101715615e2857fe5b604052919050565b60006001600160401b03821115615e4357fe5b5060209081020190565b60005b83811015615e68578181015183820152602001615e50565b83811115610dc45750506000910152565b6001600160a01b038116811461055e57600080fd5b801515811461055e57600080fd5b6003811061055e57600080fdfea26469706673582212208ed696f2d0d1f9fd2b52400d207d9b4d76f9e107e084ef636199145fd3cd07b764736f6c6343000706003360c060405234801561001057600080fd5b50604051610b21380380610b2183398101604081905261002f9161004d565b30608052600160005560601b6001600160601b03191660a05261007b565b60006020828403121561005e578081fd5b81516001600160a01b0381168114610074578182fd5b9392505050565b60805160a05160601c610a7b6100a66000398061040452806104f55250806102975250610a7b6000f3fe608060405234801561001057600080fd5b50600436106100935760003560e01c8063851c1bb311610066578063851c1bb3146100f1578063aaabadc514610104578063d877845c14610119578063e42abf3514610121578063fbfa77cf1461014157610093565b806338e9922e1461009857806355c67628146100ad5780636b6b9f69146100cb5780636daefab6146100de575b600080fd5b6100ab6100a6366004610916565b610149565b005b6100b56101a8565b6040516100c29190610a08565b60405180910390f35b6100ab6100d9366004610916565b6101ae565b6100ab6100ec366004610760565b610201565b6100b56100ff3660046108b6565b610293565b61010c6102e6565b6040516100c29190610997565b6100b56102f5565b61013461012f3660046107e1565b6102fb565b6040516100c291906109c4565b61010c610402565b610151610426565b6101686706f05b59d3b20000821115610258610457565b60018190556040517fa9ba3ffe0b6c366b81232caab38605a0699ad5398d6cce76f91ee809e322dafc9061019d908390610a08565b60405180910390a150565b60015490565b6101b6610426565b6101cc662386f26fc10000821115610259610457565b60028190556040517f5a0b7386237e7f07fa741efc64e59c9387d2cccafec760efed4d53387f20e19a9061019d908390610a08565b610209610469565b610211610426565b61021b8483610482565b60005b8481101561028357600086868381811061023457fe5b905060200201602081019061024991906108fa565b9050600085858481811061025957fe5b6020029190910135915061027990506001600160a01b038316858361048f565b505060010161021e565b5061028c6104ea565b5050505050565b60007f0000000000000000000000000000000000000000000000000000000000000000826040516020016102c8929190610946565b6040516020818303038152906040528051906020012090505b919050565b60006102f06104f1565b905090565b60025490565b6060815167ffffffffffffffff8111801561031557600080fd5b5060405190808252806020026020018201604052801561033f578160200160208202803683370190505b50905060005b82518110156103fc5782818151811061035a57fe5b60200260200101516001600160a01b03166370a08231306040518263ffffffff1660e01b815260040161038d9190610997565b60206040518083038186803b1580156103a557600080fd5b505afa1580156103b9573d6000803e3d6000fd5b505050506040513d601f19601f820116820180604052508101906103dd919061092e565b8282815181106103e957fe5b6020908102919091010152600101610345565b50919050565b7f000000000000000000000000000000000000000000000000000000000000000081565b600061043d6000356001600160e01b031916610293565b905061045461044c8233610584565b610191610457565b50565b816104655761046581610614565b5050565b61047b60026000541415610190610457565b6002600055565b6104658183146067610457565b6104e58363a9059cbb60e01b84846040516024016104ae9291906109ab565b60408051601f198184030181529190526020810180516001600160e01b03166001600160e01b031990931692909217909152610667565b505050565b6001600055565b60007f00000000000000000000000000000000000000000000000000000000000000006001600160a01b031663aaabadc56040518163ffffffff1660e01b815260040160206040518083038186803b15801561054c57600080fd5b505afa158015610560573d6000803e3d6000fd5b505050506040513d601f19601f820116820180604052508101906102f091906108de565b600061058e6104f1565b6001600160a01b0316639be2a8848484306040518463ffffffff1660e01b81526004016105bd93929190610a11565b60206040518083038186803b1580156105d557600080fd5b505afa1580156105e9573d6000803e3d6000fd5b505050506040513d601f19601f8201168201806040525081019061060d9190610896565b9392505050565b62461bcd60e51b6000908152602060045260076024526642414c23000030600a808404818106603090810160081b95839006959095019082900491820690940160101b939093010160c81b604452606490fd5b600080836001600160a01b031683604051610682919061095e565b6000604051808303816000865af19150503d80600081146106bf576040519150601f19603f3d011682016040523d82523d6000602084013e6106c4565b606091505b509150915060008214156106dc573d6000803e3d6000fd5b6107068151600014806106fe5750818060200190518101906106fe9190610896565b6101a2610457565b50505050565b60008083601f84011261071d578081fd5b50813567ffffffffffffffff811115610734578182fd5b602083019150836020808302850101111561074e57600080fd5b9250929050565b80356102e181610a30565b600080600080600060608688031215610777578081fd5b853567ffffffffffffffff8082111561078e578283fd5b61079a89838a0161070c565b909750955060208801359150808211156107b2578283fd5b506107bf8882890161070c565b90945092505060408601356107d381610a30565b809150509295509295909350565b600060208083850312156107f3578182fd5b823567ffffffffffffffff8082111561080a578384fd5b818501915085601f83011261081d578384fd5b81358181111561082957fe5b8381026040518582820101818110858211171561084257fe5b604052828152858101935084860182860187018a1015610860578788fd5b8795505b838610156108895761087581610755565b855260019590950194938601938601610864565b5098975050505050505050565b6000602082840312156108a7578081fd5b8151801515811461060d578182fd5b6000602082840312156108c7578081fd5b81356001600160e01b03198116811461060d578182fd5b6000602082840312156108ef578081fd5b815161060d81610a30565b60006020828403121561090b578081fd5b813561060d81610a30565b600060208284031215610927578081fd5b5035919050565b60006020828403121561093f578081fd5b5051919050565b9182526001600160e01b031916602082015260240190565b60008251815b8181101561097e5760208186018101518583015201610964565b8181111561098c5782828501525b509190910192915050565b6001600160a01b0391909116815260200190565b6001600160a01b03929092168252602082015260400190565b6020808252825182820181905260009190848201906040850190845b818110156109fc578351835292840192918401916001016109e0565b50909695505050505050565b90815260200190565b9283526001600160a01b03918216602084015216604082015260600190565b6001600160a01b038116811461045457600080fdfea264697066735822122014735a959e9b5ef18fc5a27e5a7379ce69769a0692d78dc50efe94de835e951664736f6c63430007060033",
			"opcodes": "PUSH2 0x180 PUSH1 0x40 MSTORE CALLVALUE DUP1 ISZERO PUSH3 0x12 JUMPI PUSH1 0x0 DUP1 REVERT JUMPDEST POP PUSH1 0x40 MLOAD PUSH3 0x6D30 CODESIZE SUB DUP1 PUSH3 0x6D30 DUP4 CODECOPY DUP2 ADD PUSH1 0x40 DUP2 SWAP1 MSTORE PUSH3 0x35 SWAP2 PUSH3 0x253 JUMP JUMPDEST DUP4 DUP3 DUP3 PUSH1 0x40 MLOAD DUP1 PUSH1 0x40 ADD PUSH1 0x40 MSTORE DUP1 PUSH1 0x11 DUP2 MSTORE PUSH1 0x20 ADD PUSH17 0x10985B185B98D95C88158C8815985D5B1D PUSH1 0x7A SHL DUP2 MSTORE POP DUP1 PUSH1 0x40 MLOAD DUP1 PUSH1 0x40 ADD PUSH1 0x40 MSTORE DUP1 PUSH1 0x1 DUP2 MSTORE PUSH1 0x20 ADD PUSH1 0x31 PUSH1 0xF8 SHL DUP2 MSTORE POP ADDRESS PUSH1 0x1 PUSH1 0x1 PUSH1 0xA0 SHL SUB AND PUSH1 0x0 SHL DUP10 DUP1 PUSH1 0x1 PUSH1 0x1 PUSH1 0xA0 SHL SUB AND PUSH1 0x80 DUP2 PUSH1 0x1 PUSH1 0x1 PUSH1 0xA0 SHL SUB AND PUSH1 0x60 SHL DUP2 MSTORE POP POP POP ADDRESS PUSH1 0x40 MLOAD PUSH3 0xB8 SWAP1 PUSH3 0x245 JUMP JUMPDEST PUSH3 0xC4 SWAP2 SWAP1 PUSH3 0x29F JUMP JUMPDEST PUSH1 0x40 MLOAD DUP1 SWAP2 SUB SWAP1 PUSH1 0x0 CREATE DUP1 ISZERO DUP1 ISZERO PUSH3 0xE1 JUMPI RETURNDATASIZE PUSH1 0x0 DUP1 RETURNDATACOPY RETURNDATASIZE PUSH1 0x0 REVERT JUMPDEST POP PUSH1 0x60 SHL PUSH1 0x1 PUSH1 0x1 PUSH1 0x60 SHL SUB NOT AND PUSH1 0xA0 MSTORE PUSH1 0x1 PUSH1 0x0 SSTORE PUSH1 0xC0 MSTORE DUP2 MLOAD PUSH1 0x20 SWAP3 DUP4 ADD KECCAK256 PUSH1 0xE0 MSTORE DUP1 MLOAD SWAP2 ADD KECCAK256 PUSH2 0x100 MSTORE POP PUSH32 0x8B73C3C69BB8FE3D512ECC4CF759CC79239F7B179B0FFACAA9A75D522B39400F PUSH2 0x120 MSTORE PUSH3 0x148 PUSH3 0x76A700 DUP4 GT ISZERO PUSH2 0x194 PUSH3 0x181 JUMP JUMPDEST PUSH3 0x15C PUSH3 0x278D00 DUP3 GT ISZERO PUSH2 0x195 PUSH3 0x181 JUMP JUMPDEST TIMESTAMP SWAP1 SWAP2 ADD PUSH2 0x140 DUP2 SWAP1 MSTORE ADD PUSH2 0x160 MSTORE PUSH3 0x176 DUP2 PUSH3 0x196 JUMP JUMPDEST POP POP POP POP POP PUSH3 0x2CC JUMP JUMPDEST DUP2 PUSH3 0x192 JUMPI PUSH3 0x192 DUP2 PUSH3 0x1F2 JUMP JUMPDEST POP POP JUMP JUMPDEST PUSH1 0x40 MLOAD PUSH1 0x1 PUSH1 0x1 PUSH1 0xA0 SHL SUB DUP3 AND SWAP1 PUSH32 0x94B979B6831A51293E2641426F97747FEED46F17779FED9CD18D1ECEFCFE92EF SWAP1 PUSH1 0x0 SWAP1 LOG2 PUSH1 0x3 DUP1 SLOAD PUSH1 0x1 PUSH1 0x1 PUSH1 0xA0 SHL SUB SWAP1 SWAP3 AND PUSH2 0x100 MUL PUSH2 0x100 PUSH1 0x1 PUSH1 0xA8 SHL SUB NOT SWAP1 SWAP3 AND SWAP2 SWAP1 SWAP2 OR SWAP1 SSTORE JUMP JUMPDEST PUSH3 0x461BCD PUSH1 0xE5 SHL PUSH1 0x0 SWAP1 DUP2 MSTORE PUSH1 0x20 PUSH1 0x4 MSTORE PUSH1 0x7 PUSH1 0x24 MSTORE PUSH7 0x42414C23000030 PUSH1 0xA DUP1 DUP5 DIV DUP2 DUP2 MOD PUSH1 0x30 SWAP1 DUP2 ADD PUSH1 0x8 SHL SWAP6 DUP4 SWAP1 MOD SWAP6 SWAP1 SWAP6 ADD SWAP1 DUP3 SWAP1 DIV SWAP2 DUP3 MOD SWAP1 SWAP5 ADD PUSH1 0x10 SHL SWAP4 SWAP1 SWAP4 ADD ADD PUSH1 0xC8 SHL PUSH1 0x44 MSTORE PUSH1 0x64 SWAP1 REVERT JUMPDEST PUSH2 0xB21 DUP1 PUSH3 0x620F DUP4 CODECOPY ADD SWAP1 JUMP JUMPDEST PUSH1 0x0 DUP1 PUSH1 0x0 DUP1 PUSH1 0x80 DUP6 DUP8 SUB SLT ISZERO PUSH3 0x269 JUMPI DUP4 DUP5 REVERT JUMPDEST DUP5 MLOAD PUSH3 0x276 DUP2 PUSH3 0x2B3 JUMP JUMPDEST PUSH1 0x20 DUP7 ADD MLOAD SWAP1 SWAP5 POP PUSH3 0x289 DUP2 PUSH3 0x2B3 JUMP JUMPDEST PUSH1 0x40 DUP7 ADD MLOAD PUSH1 0x60 SWAP1 SWAP7 ADD MLOAD SWAP5 SWAP8 SWAP1 SWAP7 POP SWAP3 POP POP POP JUMP JUMPDEST PUSH1 0x1 PUSH1 0x1 PUSH1 0xA0 SHL SUB SWAP2 SWAP1 SWAP2 AND DUP2 MSTORE PUSH1 0x20 ADD SWAP1 JUMP JUMPDEST PUSH1 0x1 PUSH1 0x1 PUSH1 0xA0 SHL SUB DUP2 AND DUP2 EQ PUSH3 0x2C9 JUMPI PUSH1 0x0 DUP1 REVERT JUMPDEST POP JUMP JUMPDEST PUSH1 0x80 MLOAD PUSH1 0x60 SHR PUSH1 0xA0 MLOAD PUSH1 0x60 SHR PUSH1 0xC0 MLOAD PUSH1 0xE0 MLOAD PUSH2 0x100 MLOAD PUSH2 0x120 MLOAD PUSH2 0x140 MLOAD PUSH2 0x160 MLOAD PUSH2 0x5EDF PUSH3 0x330 PUSH1 0x0 CODECOPY DUP1 PUSH2 0x1A67 MSTORE POP DUP1 PUSH2 0x1A43 MSTORE POP DUP1 PUSH2 0x27F5 MSTORE POP DUP1 PUSH2 0x2837 MSTORE POP DUP1 PUSH2 0x2816 MSTORE POP DUP1 PUSH2 0x10C1 MSTORE POP DUP1 PUSH2 0x1375 MSTORE POP DUP1 PUSH2 0x508 MSTORE POP PUSH2 0x5EDF PUSH1 0x0 RETURN INVALID PUSH1 0x80 PUSH1 0x40 MSTORE PUSH1 0x4 CALLDATASIZE LT PUSH2 0x185 JUMPI PUSH1 0x0 CALLDATALOAD PUSH1 0xE0 SHR DUP1 PUSH4 0x945BCEC9 GT PUSH2 0xD1 JUMPI DUP1 PUSH4 0xE6C46092 GT PUSH2 0x8A JUMPI DUP1 PUSH4 0xF84D066E GT PUSH2 0x64 JUMPI DUP1 PUSH4 0xF84D066E EQ PUSH2 0x46A JUMPI DUP1 PUSH4 0xF94D4668 EQ PUSH2 0x48A JUMPI DUP1 PUSH4 0xFA6E671D EQ PUSH2 0x4B9 JUMPI DUP1 PUSH4 0xFEC90D72 EQ PUSH2 0x4D9 JUMPI PUSH2 0x1B3 JUMP JUMPDEST DUP1 PUSH4 0xE6C46092 EQ PUSH2 0x407 JUMPI DUP1 PUSH4 0xED24911D EQ PUSH2 0x427 JUMPI DUP1 PUSH4 0xF6C00927 EQ PUSH2 0x43C JUMPI PUSH2 0x1B3 JUMP JUMPDEST DUP1 PUSH4 0x945BCEC9 EQ PUSH2 0x365 JUMPI DUP1 PUSH4 0xAAABADC5 EQ PUSH2 0x378 JUMPI DUP1 PUSH4 0xAD5C4648 EQ PUSH2 0x39A JUMPI DUP1 PUSH4 0xB05F8E48 EQ PUSH2 0x3AF JUMPI DUP1 PUSH4 0xB95CAC28 EQ PUSH2 0x3DF JUMPI DUP1 PUSH4 0xD2946C2B EQ PUSH2 0x3F2 JUMPI PUSH2 0x1B3 JUMP JUMPDEST DUP1 PUSH4 0x52BBBE29 GT PUSH2 0x13E JUMPI DUP1 PUSH4 0x7D3AEB96 GT PUSH2 0x118 JUMPI DUP1 PUSH4 0x7D3AEB96 EQ PUSH2 0x2E5 JUMPI DUP1 PUSH4 0x851C1BB3 EQ PUSH2 0x305 JUMPI DUP1 PUSH4 0x8BDB3913 EQ PUSH2 0x325 JUMPI DUP1 PUSH4 0x90193B7C EQ PUSH2 0x345 JUMPI PUSH2 0x1B3 JUMP JUMPDEST DUP1 PUSH4 0x52BBBE29 EQ PUSH2 0x292 JUMPI DUP1 PUSH4 0x5C38449E EQ PUSH2 0x2A5 JUMPI DUP1 PUSH4 0x66A9C7D2 EQ PUSH2 0x2C5 JUMPI PUSH2 0x1B3 JUMP JUMPDEST DUP1 PUSH4 0x58A628F EQ PUSH2 0x1B8 JUMPI DUP1 PUSH4 0x9B2760F EQ PUSH2 0x1D8 JUMPI DUP1 PUSH4 0xE8E3E84 EQ PUSH2 0x20E JUMPI DUP1 PUSH4 0xF5A6EFA EQ PUSH2 0x221 JUMPI DUP1 PUSH4 0x16C38B3C EQ PUSH2 0x24E JUMPI DUP1 PUSH4 0x1C0DE051 EQ PUSH2 0x26E JUMPI PUSH2 0x1B3 JUMP JUMPDEST CALLDATASIZE PUSH2 0x1B3 JUMPI PUSH2 0x1B1 PUSH2 0x195 PUSH2 0x506 JUMP JUMPDEST PUSH1 0x1 PUSH1 0x1 PUSH1 0xA0 SHL SUB AND CALLER PUSH1 0x1 PUSH1 0x1 PUSH1 0xA0 SHL SUB AND EQ PUSH2 0x206 PUSH2 0x52B JUMP JUMPDEST STOP JUMPDEST PUSH1 0x0 DUP1 REVERT JUMPDEST CALLVALUE DUP1 ISZERO PUSH2 0x1C4 JUMPI PUSH1 0x0 DUP1 REVERT JUMPDEST POP PUSH2 0x1B1 PUSH2 0x1D3 CALLDATASIZE PUSH1 0x4 PUSH2 0x5084 JUMP JUMPDEST PUSH2 0x53D JUMP JUMPDEST CALLVALUE DUP1 ISZERO PUSH2 0x1E4 JUMPI PUSH1 0x0 DUP1 REVERT JUMPDEST POP PUSH2 0x1F8 PUSH2 0x1F3 CALLDATASIZE PUSH1 0x4 PUSH2 0x5639 JUMP JUMPDEST PUSH2 0x561 JUMP JUMPDEST PUSH1 0x40 MLOAD PUSH2 0x205 SWAP2 SWAP1 PUSH2 0x5C73 JUMP JUMPDEST PUSH1 0x40 MLOAD DUP1 SWAP2 SUB SWAP1 RETURN JUMPDEST PUSH2 0x1B1 PUSH2 0x21C CALLDATASIZE PUSH1 0x4 PUSH2 0x525F JUMP JUMPDEST PUSH2 0x614 JUMP JUMPDEST CALLVALUE DUP1 ISZERO PUSH2 0x22D JUMPI PUSH1 0x0 DUP1 REVERT JUMPDEST POP PUSH2 0x241 PUSH2 0x23C CALLDATASIZE PUSH1 0x4 PUSH2 0x5122 JUMP JUMPDEST PUSH2 0x750 JUMP JUMPDEST PUSH1 0x40 MLOAD PUSH2 0x205 SWAP2 SWAP1 PUSH2 0x5C3D JUMP JUMPDEST CALLVALUE DUP1 ISZERO PUSH2 0x25A JUMPI PUSH1 0x0 DUP1 REVERT JUMPDEST POP PUSH2 0x1B1 PUSH2 0x269 CALLDATASIZE PUSH1 0x4 PUSH2 0x53B3 JUMP JUMPDEST PUSH2 0x7E5 JUMP JUMPDEST CALLVALUE DUP1 ISZERO PUSH2 0x27A JUMPI PUSH1 0x0 DUP1 REVERT JUMPDEST POP PUSH2 0x283 PUSH2 0x7FE JUMP JUMPDEST PUSH1 0x40 MLOAD PUSH2 0x205 SWAP4 SWAP3 SWAP2 SWAP1 PUSH2 0x5C5B JUMP JUMPDEST PUSH2 0x1F8 PUSH2 0x2A0 CALLDATASIZE PUSH1 0x4 PUSH2 0x57DE JUMP JUMPDEST PUSH2 0x827 JUMP JUMPDEST CALLVALUE DUP1 ISZERO PUSH2 0x2B1 JUMPI PUSH1 0x0 DUP1 REVERT JUMPDEST POP PUSH2 0x1B1 PUSH2 0x2C0 CALLDATASIZE PUSH1 0x4 PUSH2 0x55AF JUMP JUMPDEST PUSH2 0x9C8 JUMP JUMPDEST CALLVALUE DUP1 ISZERO PUSH2 0x2D1 JUMPI PUSH1 0x0 DUP1 REVERT JUMPDEST POP PUSH2 0x1B1 PUSH2 0x2E0 CALLDATASIZE PUSH1 0x4 PUSH2 0x549A JUMP JUMPDEST PUSH2 0xDCA JUMP JUMPDEST CALLVALUE DUP1 ISZERO PUSH2 0x2F1 JUMPI PUSH1 0x0 DUP1 REVERT JUMPDEST POP PUSH2 0x1B1 PUSH2 0x300 CALLDATASIZE PUSH1 0x4 PUSH2 0x546C JUMP JUMPDEST PUSH2 0xF69 JUMP JUMPDEST CALLVALUE DUP1 ISZERO PUSH2 0x311 JUMPI PUSH1 0x0 DUP1 REVERT JUMPDEST POP PUSH2 0x1F8 PUSH2 0x320 CALLDATASIZE PUSH1 0x4 PUSH2 0x5587 JUMP JUMPDEST PUSH2 0x10BD JUMP JUMPDEST CALLVALUE DUP1 ISZERO PUSH2 0x331 JUMPI PUSH1 0x0 DUP1 REVERT JUMPDEST POP PUSH2 0x1B1 PUSH2 0x340 CALLDATASIZE PUSH1 0x4 PUSH2 0x5403 JUMP JUMPDEST PUSH2 0x110F JUMP JUMPDEST CALLVALUE DUP1 ISZERO PUSH2 0x351 JUMPI PUSH1 0x0 DUP1 REVERT JUMPDEST POP PUSH2 0x1F8 PUSH2 0x360 CALLDATASIZE PUSH1 0x4 PUSH2 0x5084 JUMP JUMPDEST PUSH2 0x1125 JUMP JUMPDEST PUSH2 0x241 PUSH2 0x373 CALLDATASIZE PUSH1 0x4 PUSH2 0x56D7 JUMP JUMPDEST PUSH2 0x1140 JUMP JUMPDEST CALLVALUE DUP1 ISZERO PUSH2 0x384 JUMPI PUSH1 0x0 DUP1 REVERT JUMPDEST POP PUSH2 0x38D PUSH2 0x1274 JUMP JUMPDEST PUSH1 0x40 MLOAD PUSH2 0x205 SWAP2 SWAP1 PUSH2 0x5AAE JUMP JUMPDEST CALLVALUE DUP1 ISZERO PUSH2 0x3A6 JUMPI PUSH1 0x0 DUP1 REVERT JUMPDEST POP PUSH2 0x38D PUSH2 0x1288 JUMP JUMPDEST CALLVALUE DUP1 ISZERO PUSH2 0x3BB JUMPI PUSH1 0x0 DUP1 REVERT JUMPDEST POP PUSH2 0x3CF PUSH2 0x3CA CALLDATASIZE PUSH1 0x4 PUSH2 0x5563 JUMP JUMPDEST PUSH2 0x1297 JUMP JUMPDEST PUSH1 0x40 MLOAD PUSH2 0x205 SWAP5 SWAP4 SWAP3 SWAP2 SWAP1 PUSH2 0x5DE9 JUMP JUMPDEST PUSH2 0x1B1 PUSH2 0x3ED CALLDATASIZE PUSH1 0x4 PUSH2 0x5403 JUMP JUMPDEST PUSH2 0x135A JUMP JUMPDEST CALLVALUE DUP1 ISZERO PUSH2 0x3FE JUMPI PUSH1 0x0 DUP1 REVERT JUMPDEST POP PUSH2 0x38D PUSH2 0x1373 JUMP JUMPDEST CALLVALUE DUP1 ISZERO PUSH2 0x413 JUMPI PUSH1 0x0 DUP1 REVERT JUMPDEST POP PUSH2 0x1B1 PUSH2 0x422 CALLDATASIZE PUSH1 0x4 PUSH2 0x516F JUMP JUMPDEST PUSH2 0x1397 JUMP JUMPDEST CALLVALUE DUP1 ISZERO PUSH2 0x433 JUMPI PUSH1 0x0 DUP1 REVERT JUMPDEST POP PUSH2 0x1F8 PUSH2 0x14B3 JUMP JUMPDEST CALLVALUE DUP1 ISZERO PUSH2 0x448 JUMPI PUSH1 0x0 DUP1 REVERT JUMPDEST POP PUSH2 0x45C PUSH2 0x457 CALLDATASIZE PUSH1 0x4 PUSH2 0x53EB JUMP JUMPDEST PUSH2 0x14BD JUMP JUMPDEST PUSH1 0x40 MLOAD PUSH2 0x205 SWAP3 SWAP2 SWAP1 PUSH2 0x5AE6 JUMP JUMPDEST CALLVALUE DUP1 ISZERO PUSH2 0x476 JUMPI PUSH1 0x0 DUP1 REVERT JUMPDEST POP PUSH2 0x241 PUSH2 0x485 CALLDATASIZE PUSH1 0x4 PUSH2 0x5655 JUMP JUMPDEST PUSH2 0x14E7 JUMP JUMPDEST CALLVALUE DUP1 ISZERO PUSH2 0x496 JUMPI PUSH1 0x0 DUP1 REVERT JUMPDEST POP PUSH2 0x4AA PUSH2 0x4A5 CALLDATASIZE PUSH1 0x4 PUSH2 0x53EB JUMP JUMPDEST PUSH2 0x15CB JUMP JUMPDEST PUSH1 0x40 MLOAD PUSH2 0x205 SWAP4 SWAP3 SWAP2 SWAP1 PUSH2 0x5C07 JUMP JUMPDEST CALLVALUE DUP1 ISZERO PUSH2 0x4C5 JUMPI PUSH1 0x0 DUP1 REVERT JUMPDEST POP PUSH2 0x1B1 PUSH2 0x4D4 CALLDATASIZE PUSH1 0x4 PUSH2 0x50D8 JUMP JUMPDEST PUSH2 0x15FF JUMP JUMPDEST CALLVALUE DUP1 ISZERO PUSH2 0x4E5 JUMPI PUSH1 0x0 DUP1 REVERT JUMPDEST POP PUSH2 0x4F9 PUSH2 0x4F4 CALLDATASIZE PUSH1 0x4 PUSH2 0x50A0 JUMP JUMPDEST PUSH2 0x1691 JUMP JUMPDEST PUSH1 0x40 MLOAD PUSH2 0x205 SWAP2 SWAP1 PUSH2 0x5C50 JUMP JUMPDEST PUSH32 0x0 JUMPDEST SWAP1 JUMP JUMPDEST DUP2 PUSH2 0x539 JUMPI PUSH2 0x539 DUP2 PUSH2 0x16A6 JUMP JUMPDEST POP POP JUMP JUMPDEST PUSH2 0x545 PUSH2 0x16F9 JUMP JUMPDEST PUSH2 0x54D PUSH2 0x1712 JUMP JUMPDEST PUSH2 0x556 DUP2 PUSH2 0x1740 JUMP JUMPDEST PUSH2 0x55E PUSH2 0x179C JUMP JUMPDEST POP JUMP JUMPDEST PUSH1 0x0 PUSH2 0x56B PUSH2 0x16F9 JUMP JUMPDEST PUSH2 0x573 PUSH2 0x17A3 JUMP JUMPDEST PUSH1 0x0 PUSH2 0x582 CALLER DUP5 PUSH1 0x6 SLOAD PUSH2 0x17B8 JUMP JUMPDEST PUSH1 0x0 DUP2 DUP2 MSTORE PUSH1 0x5 PUSH1 0x20 MSTORE PUSH1 0x40 SWAP1 KECCAK256 SLOAD SWAP1 SWAP2 POP PUSH2 0x5A4 SWAP1 PUSH1 0xFF AND ISZERO PUSH2 0x1F4 PUSH2 0x52B JUMP JUMPDEST PUSH1 0x0 DUP2 DUP2 MSTORE PUSH1 0x5 PUSH1 0x20 MSTORE PUSH1 0x40 SWAP1 DUP2 SWAP1 KECCAK256 DUP1 SLOAD PUSH1 0xFF NOT AND PUSH1 0x1 SWAP1 DUP2 OR SWAP1 SWAP2 SSTORE PUSH1 0x6 DUP1 SLOAD SWAP1 SWAP2 ADD SWAP1 SSTORE MLOAD CALLER SWAP1 DUP3 SWAP1 PUSH32 0x3C13BC30B8E878C53FD2A36B679409C073AFD75950BE43D8858768E956FBC20E SWAP1 PUSH2 0x5FD SWAP1 DUP8 SWAP1 PUSH2 0x5D6F JUMP JUMPDEST PUSH1 0x40 MLOAD DUP1 SWAP2 SUB SWAP1 LOG3 SWAP1 POP PUSH2 0x60F PUSH2 0x179C JUMP JUMPDEST SWAP2 SWAP1 POP JUMP JUMPDEST PUSH2 0x61C PUSH2 0x16F9 JUMP JUMPDEST PUSH1 0x0 DUP1 PUSH1 0x0 DUP1 JUMPDEST DUP5 MLOAD DUP2 LT ISZERO PUSH2 0x73B JUMPI PUSH1 0x0 DUP1 PUSH1 0x0 DUP1 PUSH1 0x0 PUSH2 0x651 DUP11 DUP8 DUP2 MLOAD DUP2 LT PUSH2 0x643 JUMPI INVALID JUMPDEST PUSH1 0x20 MUL PUSH1 0x20 ADD ADD MLOAD DUP10 PUSH2 0x17F7 JUMP JUMPDEST SWAP13 POP SWAP4 SWAP9 POP SWAP2 SWAP7 POP SWAP5 POP SWAP3 POP SWAP1 POP PUSH1 0x1 DUP6 PUSH1 0x3 DUP2 GT ISZERO PUSH2 0x66D JUMPI INVALID JUMPDEST EQ ISZERO PUSH2 0x684 JUMPI PUSH2 0x67F DUP5 DUP4 DUP4 DUP7 PUSH2 0x186F JUMP JUMPDEST PUSH2 0x72A JUMP JUMPDEST DUP7 PUSH2 0x696 JUMPI PUSH2 0x691 PUSH2 0x17A3 JUMP JUMPDEST PUSH1 0x1 SWAP7 POP JUMPDEST PUSH1 0x0 DUP6 PUSH1 0x3 DUP2 GT ISZERO PUSH2 0x6A4 JUMPI INVALID JUMPDEST EQ ISZERO PUSH2 0x6D5 JUMPI PUSH2 0x6B6 DUP5 DUP4 DUP4 DUP7 PUSH2 0x1892 JUMP JUMPDEST PUSH2 0x6BF DUP5 PUSH2 0x18B2 JUMP JUMPDEST ISZERO PUSH2 0x67F JUMPI PUSH2 0x6CE DUP10 DUP5 PUSH2 0x18BF JUMP JUMPDEST SWAP9 POP PUSH2 0x72A JUMP JUMPDEST PUSH2 0x6EA PUSH2 0x6E1 DUP6 PUSH2 0x18B2 JUMP JUMPDEST ISZERO PUSH2 0x207 PUSH2 0x52B JUMP JUMPDEST PUSH1 0x0 PUSH2 0x6F5 DUP6 PUSH2 0x528 JUMP JUMPDEST SWAP1 POP PUSH1 0x2 DUP7 PUSH1 0x3 DUP2 GT ISZERO PUSH2 0x705 JUMPI INVALID JUMPDEST EQ ISZERO PUSH2 0x71C JUMPI PUSH2 0x717 DUP2 DUP5 DUP5 DUP8 PUSH2 0x18D1 JUMP JUMPDEST PUSH2 0x728 JUMP JUMPDEST PUSH2 0x728 DUP2 DUP5 DUP5 DUP8 PUSH2 0x18EA JUMP JUMPDEST POP JUMPDEST POP POP PUSH1 0x1 SWAP1 SWAP4 ADD SWAP3 POP PUSH2 0x623 SWAP2 POP POP JUMP JUMPDEST POP PUSH2 0x745 DUP4 PUSH2 0x1958 JUMP JUMPDEST POP POP POP PUSH2 0x55E PUSH2 0x179C JUMP JUMPDEST PUSH1 0x60 DUP2 MLOAD PUSH1 0x1 PUSH1 0x1 PUSH1 0x40 SHL SUB DUP2 GT DUP1 ISZERO PUSH2 0x769 JUMPI PUSH1 0x0 DUP1 REVERT JUMPDEST POP PUSH1 0x40 MLOAD SWAP1 DUP1 DUP3 MSTORE DUP1 PUSH1 0x20 MUL PUSH1 0x20 ADD DUP3 ADD PUSH1 0x40 MSTORE DUP1 ISZERO PUSH2 0x793 JUMPI DUP2 PUSH1 0x20 ADD PUSH1 0x20 DUP3 MUL DUP1 CALLDATASIZE DUP4 CALLDATACOPY ADD SWAP1 POP JUMPDEST POP SWAP1 POP PUSH1 0x0 JUMPDEST DUP3 MLOAD DUP2 LT ISZERO PUSH2 0x7DE JUMPI PUSH2 0x7BF DUP5 DUP5 DUP4 DUP2 MLOAD DUP2 LT PUSH2 0x7B2 JUMPI INVALID JUMPDEST PUSH1 0x20 MUL PUSH1 0x20 ADD ADD MLOAD PUSH2 0x197B JUMP JUMPDEST DUP3 DUP3 DUP2 MLOAD DUP2 LT PUSH2 0x7CB JUMPI INVALID JUMPDEST PUSH1 0x20 SWAP1 DUP2 MUL SWAP2 SWAP1 SWAP2 ADD ADD MSTORE PUSH1 0x1 ADD PUSH2 0x799 JUMP JUMPDEST POP SWAP3 SWAP2 POP POP JUMP JUMPDEST PUSH2 0x7ED PUSH2 0x16F9 JUMP JUMPDEST PUSH2 0x7F5 PUSH2 0x1712 JUMP JUMPDEST PUSH2 0x556 DUP2 PUSH2 0x19A6 JUMP JUMPDEST PUSH1 0x0 DUP1 PUSH1 0x0 PUSH2 0x80B PUSH2 0x1A24 JUMP JUMPDEST ISZERO SWAP3 POP PUSH2 0x816 PUSH2 0x1A41 JUMP JUMPDEST SWAP2 POP PUSH2 0x820 PUSH2 0x1A65 JUMP JUMPDEST SWAP1 POP SWAP1 SWAP2 SWAP3 JUMP JUMPDEST PUSH1 0x0 PUSH2 0x831 PUSH2 0x16F9 JUMP JUMPDEST PUSH2 0x839 PUSH2 0x17A3 JUMP JUMPDEST DUP4 MLOAD PUSH2 0x844 DUP2 PUSH2 0x1A89 JUMP JUMPDEST PUSH2 0x853 DUP4 TIMESTAMP GT ISZERO PUSH2 0x1FC PUSH2 0x52B JUMP JUMPDEST PUSH2 0x866 PUSH1 0x0 DUP8 PUSH1 0x80 ADD MLOAD GT PUSH2 0x1FE PUSH2 0x52B JUMP JUMPDEST PUSH1 0x0 PUSH2 0x875 DUP8 PUSH1 0x40 ADD MLOAD PUSH2 0x1ABB JUMP JUMPDEST SWAP1 POP PUSH1 0x0 PUSH2 0x886 DUP9 PUSH1 0x60 ADD MLOAD PUSH2 0x1ABB JUMP JUMPDEST SWAP1 POP PUSH2 0x8A9 DUP2 PUSH1 0x1 PUSH1 0x1 PUSH1 0xA0 SHL SUB AND DUP4 PUSH1 0x1 PUSH1 0x1 PUSH1 0xA0 SHL SUB AND EQ ISZERO PUSH2 0x1FD PUSH2 0x52B JUMP JUMPDEST PUSH2 0x8B1 PUSH2 0x4BA5 JUMP JUMPDEST DUP9 MLOAD PUSH1 0x80 DUP3 ADD MSTORE PUSH1 0x20 DUP10 ADD MLOAD DUP2 SWAP1 PUSH1 0x1 DUP2 GT ISZERO PUSH2 0x8CA JUMPI INVALID JUMPDEST SWAP1 DUP2 PUSH1 0x1 DUP2 GT ISZERO PUSH2 0x8D7 JUMPI INVALID JUMPDEST SWAP1 MSTORE POP PUSH1 0x1 PUSH1 0x1 PUSH1 0xA0 SHL SUB DUP1 DUP5 AND PUSH1 0x20 DUP4 ADD MSTORE DUP3 DUP2 AND PUSH1 0x40 DUP1 DUP5 ADD SWAP2 SWAP1 SWAP2 MSTORE PUSH1 0x80 DUP12 ADD MLOAD PUSH1 0x60 DUP5 ADD MSTORE PUSH1 0xA0 DUP12 ADD MLOAD PUSH2 0x100 DUP5 ADD MSTORE DUP10 MLOAD DUP3 AND PUSH1 0xC0 DUP5 ADD MSTORE DUP10 ADD MLOAD AND PUSH1 0xE0 DUP3 ADD MSTORE PUSH1 0x0 DUP1 PUSH2 0x929 DUP4 PUSH2 0x1AE0 JUMP JUMPDEST SWAP2 SWAP9 POP SWAP3 POP SWAP1 POP PUSH2 0x960 PUSH1 0x0 DUP13 PUSH1 0x20 ADD MLOAD PUSH1 0x1 DUP2 GT ISZERO PUSH2 0x945 JUMPI INVALID JUMPDEST EQ PUSH2 0x953 JUMPI DUP10 DUP4 GT ISZERO PUSH2 0x958 JUMP JUMPDEST DUP10 DUP3 LT ISZERO JUMPDEST PUSH2 0x1FB PUSH2 0x52B JUMP JUMPDEST PUSH2 0x978 DUP12 PUSH1 0x40 ADD MLOAD DUP4 DUP13 PUSH1 0x0 ADD MLOAD DUP14 PUSH1 0x20 ADD MLOAD PUSH2 0x1BD4 JUMP JUMPDEST PUSH2 0x990 DUP12 PUSH1 0x60 ADD MLOAD DUP3 DUP13 PUSH1 0x40 ADD MLOAD DUP14 PUSH1 0x60 ADD MLOAD PUSH2 0x1CB2 JUMP JUMPDEST PUSH2 0x9B2 PUSH2 0x9A0 DUP13 PUSH1 0x40 ADD MLOAD PUSH2 0x18B2 JUMP JUMPDEST PUSH2 0x9AB JUMPI PUSH1 0x0 PUSH2 0x9AD JUMP JUMPDEST DUP3 JUMPDEST PUSH2 0x1958 JUMP JUMPDEST POP POP POP POP POP POP PUSH2 0x9C0 PUSH2 0x179C JUMP JUMPDEST SWAP5 SWAP4 POP POP POP POP JUMP JUMPDEST PUSH2 0x9D0 PUSH2 0x16F9 JUMP JUMPDEST PUSH2 0x9D8 PUSH2 0x17A3 JUMP JUMPDEST PUSH2 0x9E4 DUP4 MLOAD DUP4 MLOAD PUSH2 0x1D8C JUMP JUMPDEST PUSH1 0x0 DUP4 MLOAD PUSH1 0x1 PUSH1 0x1 PUSH1 0x40 SHL SUB DUP2 GT DUP1 ISZERO PUSH2 0x9FD JUMPI PUSH1 0x0 DUP1 REVERT JUMPDEST POP PUSH1 0x40 MLOAD SWAP1 DUP1 DUP3 MSTORE DUP1 PUSH1 0x20 MUL PUSH1 0x20 ADD DUP3 ADD PUSH1 0x40 MSTORE DUP1 ISZERO PUSH2 0xA27 JUMPI DUP2 PUSH1 0x20 ADD PUSH1 0x20 DUP3 MUL DUP1 CALLDATASIZE DUP4 CALLDATACOPY ADD SWAP1 POP JUMPDEST POP SWAP1 POP PUSH1 0x0 DUP5 MLOAD PUSH1 0x1 PUSH1 0x1 PUSH1 0x40 SHL SUB DUP2 GT DUP1 ISZERO PUSH2 0xA43 JUMPI PUSH1 0x0 DUP1 REVERT JUMPDEST POP PUSH1 0x40 MLOAD SWAP1 DUP1 DUP3 MSTORE DUP1 PUSH1 0x20 MUL PUSH1 0x20 ADD DUP3 ADD PUSH1 0x40 MSTORE DUP1 ISZERO PUSH2 0xA6D JUMPI DUP2 PUSH1 0x20 ADD PUSH1 0x20 DUP3 MUL DUP1 CALLDATASIZE DUP4 CALLDATACOPY ADD SWAP1 POP JUMPDEST POP SWAP1 POP PUSH1 0x0 DUP1 JUMPDEST DUP7 MLOAD DUP2 LT ISZERO PUSH2 0xBE6 JUMPI PUSH1 0x0 DUP8 DUP3 DUP2 MLOAD DUP2 LT PUSH2 0xA8B JUMPI INVALID JUMPDEST PUSH1 0x20 MUL PUSH1 0x20 ADD ADD MLOAD SWAP1 POP PUSH1 0x0 DUP8 DUP4 DUP2 MLOAD DUP2 LT PUSH2 0xAA3 JUMPI INVALID JUMPDEST PUSH1 0x20 MUL PUSH1 0x20 ADD ADD MLOAD SWAP1 POP PUSH2 0xAEE DUP5 PUSH1 0x1 PUSH1 0x1 PUSH1 0xA0 SHL SUB AND DUP4 PUSH1 0x1 PUSH1 0x1 PUSH1 0xA0 SHL SUB AND GT PUSH1 0x0 PUSH1 0x1 PUSH1 0x1 PUSH1 0xA0 SHL SUB AND DUP5 PUSH1 0x1 PUSH1 0x1 PUSH1 0xA0 SHL SUB AND EQ PUSH2 0xAE6 JUMPI PUSH1 0x66 PUSH2 0xAE9 JUMP JUMPDEST PUSH1 0x68 JUMPDEST PUSH2 0x52B JUMP JUMPDEST DUP2 SWAP4 POP DUP2 PUSH1 0x1 PUSH1 0x1 PUSH1 0xA0 SHL SUB AND PUSH4 0x70A08231 ADDRESS PUSH1 0x40 MLOAD DUP3 PUSH4 0xFFFFFFFF AND PUSH1 0xE0 SHL DUP2 MSTORE PUSH1 0x4 ADD PUSH2 0xB1D SWAP2 SWAP1 PUSH2 0x5AAE JUMP JUMPDEST PUSH1 0x20 PUSH1 0x40 MLOAD DUP1 DUP4 SUB DUP2 DUP7 DUP1 EXTCODESIZE ISZERO DUP1 ISZERO PUSH2 0xB35 JUMPI PUSH1 0x0 DUP1 REVERT JUMPDEST POP GAS STATICCALL ISZERO DUP1 ISZERO PUSH2 0xB49 JUMPI RETURNDATASIZE PUSH1 0x0 DUP1 RETURNDATACOPY RETURNDATASIZE PUSH1 0x0 REVERT JUMPDEST POP POP POP POP PUSH1 0x40 MLOAD RETURNDATASIZE PUSH1 0x1F NOT PUSH1 0x1F DUP3 ADD AND DUP3 ADD DUP1 PUSH1 0x40 MSTORE POP DUP2 ADD SWAP1 PUSH2 0xB6D SWAP2 SWAP1 PUSH2 0x58C0 JUMP JUMPDEST DUP6 DUP5 DUP2 MLOAD DUP2 LT PUSH2 0xB79 JUMPI INVALID JUMPDEST PUSH1 0x20 MUL PUSH1 0x20 ADD ADD DUP2 DUP2 MSTORE POP POP PUSH2 0xB8E DUP2 PUSH2 0x1D99 JUMP JUMPDEST DUP7 DUP5 DUP2 MLOAD DUP2 LT PUSH2 0xB9A JUMPI INVALID JUMPDEST PUSH1 0x20 MUL PUSH1 0x20 ADD ADD DUP2 DUP2 MSTORE POP POP PUSH2 0xBC8 DUP2 DUP7 DUP6 DUP2 MLOAD DUP2 LT PUSH2 0xBB6 JUMPI INVALID JUMPDEST PUSH1 0x20 MUL PUSH1 0x20 ADD ADD MLOAD LT ISZERO PUSH2 0x210 PUSH2 0x52B JUMP JUMPDEST PUSH2 0xBDC PUSH1 0x1 PUSH1 0x1 PUSH1 0xA0 SHL SUB DUP4 AND DUP12 DUP4 PUSH2 0x1E20 JUMP JUMPDEST POP POP PUSH1 0x1 ADD PUSH2 0xA74 JUMP JUMPDEST POP PUSH1 0x40 MLOAD PUSH4 0xF04F2707 PUSH1 0xE0 SHL DUP2 MSTORE PUSH1 0x1 PUSH1 0x1 PUSH1 0xA0 SHL SUB DUP9 AND SWAP1 PUSH4 0xF04F2707 SWAP1 PUSH2 0xC19 SWAP1 DUP10 SWAP1 DUP10 SWAP1 DUP9 SWAP1 DUP11 SWAP1 PUSH1 0x4 ADD PUSH2 0x5BBA JUMP JUMPDEST PUSH1 0x0 PUSH1 0x40 MLOAD DUP1 DUP4 SUB DUP2 PUSH1 0x0 DUP8 DUP1 EXTCODESIZE ISZERO DUP1 ISZERO PUSH2 0xC33 JUMPI PUSH1 0x0 DUP1 REVERT JUMPDEST POP GAS CALL ISZERO DUP1 ISZERO PUSH2 0xC47 JUMPI RETURNDATASIZE PUSH1 0x0 DUP1 RETURNDATACOPY RETURNDATASIZE PUSH1 0x0 REVERT JUMPDEST POP POP POP POP PUSH1 0x0 JUMPDEST DUP7 MLOAD DUP2 LT ISZERO PUSH2 0xDB8 JUMPI PUSH1 0x0 DUP8 DUP3 DUP2 MLOAD DUP2 LT PUSH2 0xC65 JUMPI INVALID JUMPDEST PUSH1 0x20 MUL PUSH1 0x20 ADD ADD MLOAD SWAP1 POP PUSH1 0x0 DUP5 DUP4 DUP2 MLOAD DUP2 LT PUSH2 0xC7D JUMPI INVALID JUMPDEST PUSH1 0x20 MUL PUSH1 0x20 ADD ADD MLOAD SWAP1 POP PUSH1 0x0 DUP3 PUSH1 0x1 PUSH1 0x1 PUSH1 0xA0 SHL SUB AND PUSH4 0x70A08231 ADDRESS PUSH1 0x40 MLOAD DUP3 PUSH4 0xFFFFFFFF AND PUSH1 0xE0 SHL DUP2 MSTORE PUSH1 0x4 ADD PUSH2 0xCB5 SWAP2 SWAP1 PUSH2 0x5AAE JUMP JUMPDEST PUSH1 0x20 PUSH1 0x40 MLOAD DUP1 DUP4 SUB DUP2 DUP7 DUP1 EXTCODESIZE ISZERO DUP1 ISZERO PUSH2 0xCCD JUMPI PUSH1 0x0 DUP1 REVERT JUMPDEST POP GAS STATICCALL ISZERO DUP1 ISZERO PUSH2 0xCE1 JUMPI RETURNDATASIZE PUSH1 0x0 DUP1 RETURNDATACOPY RETURNDATASIZE PUSH1 0x0 REVERT JUMPDEST POP POP POP POP PUSH1 0x40 MLOAD RETURNDATASIZE PUSH1 0x1F NOT PUSH1 0x1F DUP3 ADD AND DUP3 ADD DUP1 PUSH1 0x40 MSTORE POP DUP2 ADD SWAP1 PUSH2 0xD05 SWAP2 SWAP1 PUSH2 0x58C0 JUMP JUMPDEST SWAP1 POP PUSH2 0xD16 DUP3 DUP3 LT ISZERO PUSH2 0x203 PUSH2 0x52B JUMP JUMPDEST PUSH1 0x0 DUP3 DUP3 SUB SWAP1 POP PUSH2 0xD3F DUP9 DUP7 DUP2 MLOAD DUP2 LT PUSH2 0xD2C JUMPI INVALID JUMPDEST PUSH1 0x20 MUL PUSH1 0x20 ADD ADD MLOAD DUP3 LT ISZERO PUSH2 0x25A PUSH2 0x52B JUMP JUMPDEST PUSH2 0xD49 DUP5 DUP3 PUSH2 0x1E76 JUMP JUMPDEST DUP4 PUSH1 0x1 PUSH1 0x1 PUSH1 0xA0 SHL SUB AND DUP13 PUSH1 0x1 PUSH1 0x1 PUSH1 0xA0 SHL SUB AND PUSH32 0xD7D75E01AB95780D3CD1C8EC0DD6C2CE19E3A20427EEC8BF53283B6FB8E95F0 DUP13 DUP9 DUP2 MLOAD DUP2 LT PUSH2 0xD8A JUMPI INVALID JUMPDEST PUSH1 0x20 MUL PUSH1 0x20 ADD ADD MLOAD DUP5 PUSH1 0x40 MLOAD PUSH2 0xDA1 SWAP3 SWAP2 SWAP1 PUSH2 0x5D7D JUMP JUMPDEST PUSH1 0x40 MLOAD DUP1 SWAP2 SUB SWAP1 LOG3 POP POP POP POP DUP1 PUSH1 0x1 ADD SWAP1 POP PUSH2 0xC4E JUMP JUMPDEST POP POP POP POP PUSH2 0xDC4 PUSH2 0x179C JUMP JUMPDEST POP POP POP POP JUMP JUMPDEST PUSH2 0xDD2 PUSH2 0x16F9 JUMP JUMPDEST PUSH2 0xDDA PUSH2 0x17A3 JUMP JUMPDEST DUP3 PUSH2 0xDE4 DUP2 PUSH2 0x1E98 JUMP JUMPDEST PUSH2 0xDF0 DUP4 MLOAD DUP4 MLOAD PUSH2 0x1D8C JUMP JUMPDEST PUSH1 0x0 JUMPDEST DUP4 MLOAD DUP2 LT ISZERO PUSH2 0xE8E JUMPI PUSH1 0x0 DUP5 DUP3 DUP2 MLOAD DUP2 LT PUSH2 0xE0A JUMPI INVALID JUMPDEST PUSH1 0x20 MUL PUSH1 0x20 ADD ADD MLOAD SWAP1 POP PUSH2 0xE36 PUSH1 0x0 PUSH1 0x1 PUSH1 0x1 PUSH1 0xA0 SHL SUB AND DUP3 PUSH1 0x1 PUSH1 0x1 PUSH1 0xA0 SHL SUB AND EQ ISZERO PUSH2 0x135 PUSH2 0x52B JUMP JUMPDEST DUP4 DUP3 DUP2 MLOAD DUP2 LT PUSH2 0xE42 JUMPI INVALID JUMPDEST PUSH1 0x20 SWAP1 DUP2 MUL SWAP2 SWAP1 SWAP2 ADD DUP2 ADD MLOAD PUSH1 0x0 DUP9 DUP2 MSTORE PUSH1 0xA DUP4 MSTORE PUSH1 0x40 DUP1 DUP3 KECCAK256 PUSH1 0x1 PUSH1 0x1 PUSH1 0xA0 SHL SUB SWAP6 DUP7 AND DUP4 MSTORE SWAP1 SWAP4 MSTORE SWAP2 SWAP1 SWAP2 KECCAK256 DUP1 SLOAD PUSH1 0x1 PUSH1 0x1 PUSH1 0xA0 SHL SUB NOT AND SWAP3 SWAP1 SWAP2 AND SWAP2 SWAP1 SWAP2 OR SWAP1 SSTORE PUSH1 0x1 ADD PUSH2 0xDF3 JUMP JUMPDEST POP PUSH1 0x0 PUSH2 0xE9A DUP6 PUSH2 0x1EC9 JUMP JUMPDEST SWAP1 POP PUSH1 0x2 DUP2 PUSH1 0x2 DUP2 GT ISZERO PUSH2 0xEAA JUMPI INVALID JUMPDEST EQ ISZERO PUSH2 0xEF8 JUMPI PUSH2 0xEC0 DUP5 MLOAD PUSH1 0x2 EQ PUSH2 0x20C PUSH2 0x52B JUMP JUMPDEST PUSH2 0xEF3 DUP6 DUP6 PUSH1 0x0 DUP2 MLOAD DUP2 LT PUSH2 0xED1 JUMPI INVALID JUMPDEST PUSH1 0x20 MUL PUSH1 0x20 ADD ADD MLOAD DUP7 PUSH1 0x1 DUP2 MLOAD DUP2 LT PUSH2 0xEE6 JUMPI INVALID JUMPDEST PUSH1 0x20 MUL PUSH1 0x20 ADD ADD MLOAD PUSH2 0x1EE3 JUMP JUMPDEST PUSH2 0xF20 JUMP JUMPDEST PUSH1 0x1 DUP2 PUSH1 0x2 DUP2 GT ISZERO PUSH2 0xF06 JUMPI INVALID JUMPDEST EQ ISZERO PUSH2 0xF16 JUMPI PUSH2 0xEF3 DUP6 DUP6 PUSH2 0x1F8F JUMP JUMPDEST PUSH2 0xF20 DUP6 DUP6 PUSH2 0x1FE7 JUMP JUMPDEST DUP5 PUSH32 0xF5847D3F2197B16CDCD2098EC95D0905CD1ABDAF415F07BB7CEF2BBA8AC5DEC4 DUP6 DUP6 PUSH1 0x40 MLOAD PUSH2 0xF52 SWAP3 SWAP2 SWAP1 PUSH2 0x5B2F JUMP JUMPDEST PUSH1 0x40 MLOAD DUP1 SWAP2 SUB SWAP1 LOG2 POP POP PUSH2 0xF64 PUSH2 0x179C JUMP JUMPDEST POP POP POP JUMP JUMPDEST PUSH2 0xF71 PUSH2 0x16F9 JUMP JUMPDEST PUSH2 0xF79 PUSH2 0x17A3 JUMP JUMPDEST DUP2 PUSH2 0xF83 DUP2 PUSH2 0x1E98 JUMP JUMPDEST PUSH1 0x0 PUSH2 0xF8E DUP5 PUSH2 0x1EC9 JUMP JUMPDEST SWAP1 POP PUSH1 0x2 DUP2 PUSH1 0x2 DUP2 GT ISZERO PUSH2 0xF9E JUMPI INVALID JUMPDEST EQ ISZERO PUSH2 0xFEC JUMPI PUSH2 0xFB4 DUP4 MLOAD PUSH1 0x2 EQ PUSH2 0x20C PUSH2 0x52B JUMP JUMPDEST PUSH2 0xFE7 DUP5 DUP5 PUSH1 0x0 DUP2 MLOAD DUP2 LT PUSH2 0xFC5 JUMPI INVALID JUMPDEST PUSH1 0x20 MUL PUSH1 0x20 ADD ADD MLOAD DUP6 PUSH1 0x1 DUP2 MLOAD DUP2 LT PUSH2 0xFDA JUMPI INVALID JUMPDEST PUSH1 0x20 MUL PUSH1 0x20 ADD ADD MLOAD PUSH2 0x203C JUMP JUMPDEST PUSH2 0x1014 JUMP JUMPDEST PUSH1 0x1 DUP2 PUSH1 0x2 DUP2 GT ISZERO PUSH2 0xFFA JUMPI INVALID JUMPDEST EQ ISZERO PUSH2 0x100A JUMPI PUSH2 0xFE7 DUP5 DUP5 PUSH2 0x20AA JUMP JUMPDEST PUSH2 0x1014 DUP5 DUP5 PUSH2 0x2164 JUMP JUMPDEST PUSH1 0x0 JUMPDEST DUP4 MLOAD DUP2 LT ISZERO PUSH2 0x107A JUMPI PUSH1 0xA PUSH1 0x0 DUP7 DUP2 MSTORE PUSH1 0x20 ADD SWAP1 DUP2 MSTORE PUSH1 0x20 ADD PUSH1 0x0 KECCAK256 PUSH1 0x0 DUP6 DUP4 DUP2 MLOAD DUP2 LT PUSH2 0x1041 JUMPI INVALID JUMPDEST PUSH1 0x20 SWAP1 DUP2 MUL SWAP2 SWAP1 SWAP2 ADD DUP2 ADD MLOAD PUSH1 0x1 PUSH1 0x1 PUSH1 0xA0 SHL SUB AND DUP3 MSTORE DUP2 ADD SWAP2 SWAP1 SWAP2 MSTORE PUSH1 0x40 ADD PUSH1 0x0 KECCAK256 DUP1 SLOAD PUSH1 0x1 PUSH1 0x1 PUSH1 0xA0 SHL SUB NOT AND SWAP1 SSTORE PUSH1 0x1 ADD PUSH2 0x1017 JUMP JUMPDEST POP DUP4 PUSH32 0x7DCDC6D02EF40C7C1A7046A011B058BD7F988FA14E20A66344F9D4E60657D610 DUP5 PUSH1 0x40 MLOAD PUSH2 0x10AB SWAP2 SWAP1 PUSH2 0x5B1C JUMP JUMPDEST PUSH1 0x40 MLOAD DUP1 SWAP2 SUB SWAP1 LOG2 POP POP PUSH2 0x539 PUSH2 0x179C JUMP JUMPDEST PUSH1 0x0 PUSH32 0x0 DUP3 PUSH1 0x40 MLOAD PUSH1 0x20 ADD PUSH2 0x10F2 SWAP3 SWAP2 SWAP1 PUSH2 0x5A28 JUMP JUMPDEST PUSH1 0x40 MLOAD PUSH1 0x20 DUP2 DUP4 SUB SUB DUP2 MSTORE SWAP1 PUSH1 0x40 MSTORE DUP1 MLOAD SWAP1 PUSH1 0x20 ADD KECCAK256 SWAP1 POP SWAP2 SWAP1 POP JUMP JUMPDEST PUSH2 0xDC4 PUSH1 0x1 DUP6 DUP6 DUP6 PUSH2 0x1120 DUP7 PUSH2 0x21C7 JUMP JUMPDEST PUSH2 0x21D3 JUMP JUMPDEST PUSH1 0x1 PUSH1 0x1 PUSH1 0xA0 SHL SUB AND PUSH1 0x0 SWAP1 DUP2 MSTORE PUSH1 0x2 PUSH1 0x20 MSTORE PUSH1 0x40 SWAP1 KECCAK256 SLOAD SWAP1 JUMP JUMPDEST PUSH1 0x60 PUSH2 0x114A PUSH2 0x16F9 JUMP JUMPDEST PUSH2 0x1152 PUSH2 0x17A3 JUMP JUMPDEST DUP4 MLOAD PUSH2 0x115D DUP2 PUSH2 0x1A89 JUMP JUMPDEST PUSH2 0x116C DUP4 TIMESTAMP GT ISZERO PUSH2 0x1FC PUSH2 0x52B JUMP JUMPDEST PUSH2 0x1178 DUP7 MLOAD DUP6 MLOAD PUSH2 0x1D8C JUMP JUMPDEST PUSH2 0x1184 DUP8 DUP8 DUP8 DUP12 PUSH2 0x2359 JUMP JUMPDEST SWAP2 POP PUSH1 0x0 DUP1 JUMPDEST DUP8 MLOAD DUP2 LT ISZERO PUSH2 0x1256 JUMPI PUSH1 0x0 DUP9 DUP3 DUP2 MLOAD DUP2 LT PUSH2 0x11A1 JUMPI INVALID JUMPDEST PUSH1 0x20 MUL PUSH1 0x20 ADD ADD MLOAD SWAP1 POP PUSH1 0x0 DUP6 DUP4 DUP2 MLOAD DUP2 LT PUSH2 0x11B9 JUMPI INVALID JUMPDEST PUSH1 0x20 MUL PUSH1 0x20 ADD ADD MLOAD SWAP1 POP PUSH2 0x11E5 DUP9 DUP5 DUP2 MLOAD DUP2 LT PUSH2 0x11D2 JUMPI INVALID JUMPDEST PUSH1 0x20 MUL PUSH1 0x20 ADD ADD MLOAD DUP3 SGT ISZERO PUSH2 0x1FB PUSH2 0x52B JUMP JUMPDEST PUSH1 0x0 DUP2 SGT ISZERO PUSH2 0x1225 JUMPI DUP9 MLOAD PUSH1 0x20 DUP11 ADD MLOAD DUP3 SWAP2 PUSH2 0x1204 SWAP2 DUP6 SWAP2 DUP5 SWAP2 PUSH2 0x1BD4 JUMP JUMPDEST PUSH2 0x120D DUP4 PUSH2 0x18B2 JUMP JUMPDEST ISZERO PUSH2 0x121F JUMPI PUSH2 0x121C DUP6 DUP3 PUSH2 0x18BF JUMP JUMPDEST SWAP5 POP JUMPDEST POP PUSH2 0x124C JUMP JUMPDEST PUSH1 0x0 DUP2 SLT ISZERO PUSH2 0x124C JUMPI PUSH1 0x0 DUP2 PUSH1 0x0 SUB SWAP1 POP PUSH2 0x124A DUP4 DUP3 DUP13 PUSH1 0x40 ADD MLOAD DUP14 PUSH1 0x60 ADD MLOAD PUSH2 0x1CB2 JUMP JUMPDEST POP JUMPDEST POP POP PUSH1 0x1 ADD PUSH2 0x118A JUMP JUMPDEST POP PUSH2 0x1260 DUP2 PUSH2 0x1958 JUMP JUMPDEST POP POP PUSH2 0x126A PUSH2 0x179C JUMP JUMPDEST SWAP7 SWAP6 POP POP POP POP POP POP JUMP JUMPDEST PUSH1 0x3 SLOAD PUSH2 0x100 SWAP1 DIV PUSH1 0x1 PUSH1 0x1 PUSH1 0xA0 SHL SUB AND SWAP1 JUMP JUMPDEST PUSH1 0x0 PUSH2 0x1292 PUSH2 0x506 JUMP JUMPDEST SWAP1 POP SWAP1 JUMP JUMPDEST PUSH1 0x0 DUP1 PUSH1 0x0 DUP1 DUP6 PUSH2 0x12A7 DUP2 PUSH2 0x25E7 JUMP JUMPDEST PUSH1 0x0 DUP1 PUSH2 0x12B3 DUP10 PUSH2 0x1EC9 JUMP JUMPDEST SWAP1 POP PUSH1 0x2 DUP2 PUSH1 0x2 DUP2 GT ISZERO PUSH2 0x12C3 JUMPI INVALID JUMPDEST EQ ISZERO PUSH2 0x12DA JUMPI PUSH2 0x12D3 DUP10 DUP10 PUSH2 0x2605 JUMP JUMPDEST SWAP2 POP PUSH2 0x1305 JUMP JUMPDEST PUSH1 0x1 DUP2 PUSH1 0x2 DUP2 GT ISZERO PUSH2 0x12E8 JUMPI INVALID JUMPDEST EQ ISZERO PUSH2 0x12F8 JUMPI PUSH2 0x12D3 DUP10 DUP10 PUSH2 0x267F JUMP JUMPDEST PUSH2 0x1302 DUP10 DUP10 PUSH2 0x26ED JUMP JUMPDEST SWAP2 POP JUMPDEST PUSH2 0x130E DUP3 PUSH2 0x2705 JUMP JUMPDEST SWAP7 POP PUSH2 0x1319 DUP3 PUSH2 0x2711 JUMP JUMPDEST SWAP6 POP PUSH2 0x1324 DUP3 PUSH2 0x2720 JUMP JUMPDEST PUSH1 0x0 SWAP10 DUP11 MSTORE PUSH1 0xA PUSH1 0x20 SWAP1 DUP2 MSTORE PUSH1 0x40 DUP1 DUP13 KECCAK256 PUSH1 0x1 PUSH1 0x1 PUSH1 0xA0 SHL SUB SWAP12 DUP13 AND DUP14 MSTORE SWAP1 SWAP2 MSTORE SWAP1 SWAP10 KECCAK256 SLOAD SWAP7 SWAP10 SWAP6 SWAP9 SWAP8 SWAP7 SWAP1 SWAP7 AND SWAP6 POP POP POP POP POP JUMP JUMPDEST PUSH2 0x1362 PUSH2 0x17A3 JUMP JUMPDEST PUSH2 0xDC4 PUSH1 0x0 DUP6 DUP6 DUP6 PUSH2 0x1120 DUP7 PUSH2 0x21C7 JUMP JUMPDEST PUSH32 0x0 SWAP1 JUMP JUMPDEST PUSH2 0x139F PUSH2 0x16F9 JUMP JUMPDEST PUSH2 0x13A7 PUSH2 0x17A3 JUMP JUMPDEST PUSH2 0x13AF PUSH2 0x4BF5 JUMP JUMPDEST PUSH1 0x0 JUMPDEST DUP3 MLOAD DUP2 LT ISZERO PUSH2 0x14A9 JUMPI DUP3 DUP2 DUP2 MLOAD DUP2 LT PUSH2 0x13C7 JUMPI INVALID JUMPDEST PUSH1 0x20 MUL PUSH1 0x20 ADD ADD MLOAD SWAP2 POP PUSH1 0x0 DUP3 PUSH1 0x20 ADD MLOAD SWAP1 POP PUSH2 0x13E3 DUP2 PUSH2 0x25E7 JUMP JUMPDEST PUSH1 0x40 DUP4 ADD MLOAD PUSH2 0x13FD PUSH2 0x13F5 DUP4 DUP4 PUSH2 0x2726 JUMP JUMPDEST PUSH2 0x209 PUSH2 0x52B JUMP JUMPDEST PUSH1 0x0 DUP3 DUP2 MSTORE PUSH1 0xA PUSH1 0x20 SWAP1 DUP2 MSTORE PUSH1 0x40 DUP1 DUP4 KECCAK256 PUSH1 0x1 PUSH1 0x1 PUSH1 0xA0 SHL SUB DUP6 DUP2 AND DUP6 MSTORE SWAP3 MSTORE SWAP1 SWAP2 KECCAK256 SLOAD PUSH2 0x1430 SWAP2 AND CALLER EQ PUSH2 0x1F6 PUSH2 0x52B JUMP JUMPDEST DUP4 MLOAD PUSH1 0x60 DUP6 ADD MLOAD PUSH1 0x0 DUP1 PUSH2 0x1446 DUP5 DUP8 DUP8 DUP7 PUSH2 0x2782 JUMP JUMPDEST SWAP2 POP SWAP2 POP DUP5 PUSH1 0x1 PUSH1 0x1 PUSH1 0xA0 SHL SUB AND CALLER PUSH1 0x1 PUSH1 0x1 PUSH1 0xA0 SHL SUB AND DUP8 PUSH32 0x6EDCAF6241105B4C94C2EFDBF3A6B12458EB3D07BE3A0E81D24B13C44045FE7A DUP6 DUP6 PUSH1 0x40 MLOAD PUSH2 0x1490 SWAP3 SWAP2 SWAP1 PUSH2 0x5D7D JUMP JUMPDEST PUSH1 0x40 MLOAD DUP1 SWAP2 SUB SWAP1 LOG4 POP POP POP POP POP POP DUP1 PUSH1 0x1 ADD SWAP1 POP PUSH2 0x13B2 JUMP JUMPDEST POP POP PUSH2 0x55E PUSH2 0x179C JUMP JUMPDEST PUSH1 0x0 PUSH2 0x1292 PUSH2 0x27F1 JUMP JUMPDEST PUSH1 0x0 DUP1 DUP3 PUSH2 0x14CA DUP2 PUSH2 0x25E7 JUMP JUMPDEST PUSH2 0x14D3 DUP5 PUSH2 0x288E JUMP JUMPDEST PUSH2 0x14DC DUP6 PUSH2 0x1EC9 JUMP JUMPDEST SWAP3 POP SWAP3 POP JUMPDEST POP SWAP2 POP SWAP2 JUMP JUMPDEST PUSH1 0x60 CALLER ADDRESS EQ PUSH2 0x15A1 JUMPI PUSH1 0x0 ADDRESS PUSH1 0x1 PUSH1 0x1 PUSH1 0xA0 SHL SUB AND PUSH1 0x0 CALLDATASIZE PUSH1 0x40 MLOAD PUSH2 0x150D SWAP3 SWAP2 SWAP1 PUSH2 0x5A40 JUMP JUMPDEST PUSH1 0x0 PUSH1 0x40 MLOAD DUP1 DUP4 SUB DUP2 PUSH1 0x0 DUP7 GAS CALL SWAP2 POP POP RETURNDATASIZE DUP1 PUSH1 0x0 DUP2 EQ PUSH2 0x154A JUMPI PUSH1 0x40 MLOAD SWAP2 POP PUSH1 0x1F NOT PUSH1 0x3F RETURNDATASIZE ADD AND DUP3 ADD PUSH1 0x40 MSTORE RETURNDATASIZE DUP3 MSTORE RETURNDATASIZE PUSH1 0x0 PUSH1 0x20 DUP5 ADD RETURNDATACOPY PUSH2 0x154F JUMP JUMPDEST PUSH1 0x60 SWAP2 POP JUMPDEST POP POP SWAP1 POP DUP1 PUSH1 0x0 DUP2 EQ PUSH2 0x155E JUMPI INVALID JUMPDEST PUSH1 0x4 PUSH1 0x0 DUP1 RETURNDATACOPY PUSH1 0x0 MLOAD PUSH1 0x1 PUSH1 0x1 PUSH1 0xE0 SHL SUB NOT AND PUSH4 0x7D30E609 PUSH1 0xE1 SHL DUP2 EQ PUSH2 0x1589 JUMPI RETURNDATASIZE PUSH1 0x0 DUP1 RETURNDATACOPY RETURNDATASIZE PUSH1 0x0 REVERT JUMPDEST POP PUSH1 0x20 PUSH1 0x0 MSTORE PUSH1 0x4 RETURNDATASIZE SUB DUP1 PUSH1 0x4 PUSH1 0x20 RETURNDATACOPY PUSH1 0x20 DUP2 ADD PUSH1 0x0 RETURN JUMPDEST PUSH1 0x0 PUSH2 0x15AF DUP6 DUP6 DUP6 DUP10 PUSH2 0x2359 JUMP JUMPDEST SWAP1 POP PUSH1 0x20 DUP2 MLOAD MUL PUSH4 0xFA61CC12 PUSH1 0x20 DUP4 SUB MSTORE PUSH1 0x4 DUP3 SUB PUSH1 0x24 DUP3 ADD DUP2 REVERT JUMPDEST PUSH1 0x60 DUP1 PUSH1 0x0 DUP4 PUSH2 0x15DA DUP2 PUSH2 0x25E7 JUMP JUMPDEST PUSH1 0x60 PUSH2 0x15E5 DUP7 PUSH2 0x2894 JUMP JUMPDEST SWAP1 SWAP6 POP SWAP1 POP PUSH2 0x15F3 DUP2 PUSH2 0x28F6 JUMP JUMPDEST SWAP6 SWAP8 SWAP1 SWAP7 POP SWAP4 POP POP POP POP JUMP JUMPDEST PUSH2 0x1607 PUSH2 0x16F9 JUMP JUMPDEST PUSH2 0x160F PUSH2 0x17A3 JUMP JUMPDEST DUP3 PUSH2 0x1619 DUP2 PUSH2 0x1A89 JUMP JUMPDEST PUSH1 0x1 PUSH1 0x1 PUSH1 0xA0 SHL SUB DUP5 DUP2 AND PUSH1 0x0 DUP2 DUP2 MSTORE PUSH1 0x4 PUSH1 0x20 SWAP1 DUP2 MSTORE PUSH1 0x40 DUP1 DUP4 KECCAK256 SWAP5 DUP9 AND DUP1 DUP5 MSTORE SWAP5 SWAP1 SWAP2 MSTORE SWAP1 DUP2 SWAP1 KECCAK256 DUP1 SLOAD PUSH1 0xFF NOT AND DUP7 ISZERO ISZERO OR SWAP1 SSTORE MLOAD SWAP1 SWAP2 SWAP1 PUSH32 0x46961FDB4502B646D5095FBA7600486A8AC05041D55CDF0F16ED677180B5CAD8 SWAP1 PUSH2 0x1680 SWAP1 DUP7 SWAP1 PUSH2 0x5C50 JUMP JUMPDEST PUSH1 0x40 MLOAD DUP1 SWAP2 SUB SWAP1 LOG3 POP PUSH2 0xF64 PUSH2 0x179C JUMP JUMPDEST PUSH1 0x0 PUSH2 0x169D DUP4 DUP4 PUSH2 0x29A4 JUMP JUMPDEST SWAP1 POP JUMPDEST SWAP3 SWAP2 POP POP JUMP JUMPDEST PUSH3 0x461BCD PUSH1 0xE5 SHL PUSH1 0x0 SWAP1 DUP2 MSTORE PUSH1 0x20 PUSH1 0x4 MSTORE PUSH1 0x7 PUSH1 0x24 MSTORE PUSH7 0x42414C23000030 PUSH1 0xA DUP1 DUP5 DIV DUP2 DUP2 MOD PUSH1 0x30 SWAP1 DUP2 ADD PUSH1 0x8 SHL SWAP6 DUP4 SWAP1 MOD SWAP6 SWAP1 SWAP6 ADD SWAP1 DUP3 SWAP1 DIV SWAP2 DUP3 MOD SWAP1 SWAP5 ADD PUSH1 0x10 SHL SWAP4 SWAP1 SWAP4 ADD ADD PUSH1 0xC8 SHL PUSH1 0x44 MSTORE PUSH1 0x64 SWAP1 REVERT JUMPDEST PUSH2 0x170B PUSH1 0x2 PUSH1 0x0 SLOAD EQ ISZERO PUSH2 0x190 PUSH2 0x52B JUMP JUMPDEST PUSH1 0x2 PUSH1 0x0 SSTORE JUMP JUMPDEST PUSH1 0x0 PUSH2 0x1729 PUSH1 0x0 CALLDATALOAD PUSH1 0x1 PUSH1 0x1 PUSH1 0xE0 SHL SUB NOT AND PUSH2 0x10BD JUMP JUMPDEST SWAP1 POP PUSH2 0x55E PUSH2 0x1738 DUP3 CALLER PUSH2 0x29D2 JUMP JUMPDEST PUSH2 0x191 PUSH2 0x52B JUMP JUMPDEST PUSH1 0x40 MLOAD PUSH1 0x1 PUSH1 0x1 PUSH1 0xA0 SHL SUB DUP3 AND SWAP1 PUSH32 0x94B979B6831A51293E2641426F97747FEED46F17779FED9CD18D1ECEFCFE92EF SWAP1 PUSH1 0x0 SWAP1 LOG2 PUSH1 0x3 DUP1 SLOAD PUSH1 0x1 PUSH1 0x1 PUSH1 0xA0 SHL SUB SWAP1 SWAP3 AND PUSH2 0x100 MUL PUSH2 0x100 PUSH1 0x1 PUSH1 0xA8 SHL SUB NOT SWAP1 SWAP3 AND SWAP2 SWAP1 SWAP2 OR SWAP1 SSTORE JUMP JUMPDEST PUSH1 0x1 PUSH1 0x0 SSTORE JUMP JUMPDEST PUSH2 0x17B6 PUSH2 0x17AE PUSH2 0x1A24 JUMP JUMPDEST PUSH2 0x192 PUSH2 0x52B JUMP JUMPDEST JUMP JUMPDEST PUSH1 0x0 PUSH10 0xFFFFFFFFFFFFFFFFFFFF DUP3 AND PUSH1 0x50 DUP5 PUSH1 0x2 DUP2 GT ISZERO PUSH2 0x17D5 JUMPI INVALID JUMPDEST SWAP1 SHL OR PUSH1 0x60 DUP6 SWAP1 SHL PUSH12 0xFFFFFFFFFFFFFFFFFFFFFFFF NOT AND OR SWAP1 POP JUMPDEST SWAP4 SWAP3 POP POP POP JUMP JUMPDEST PUSH1 0x0 DUP1 PUSH1 0x0 DUP1 PUSH1 0x0 DUP1 PUSH1 0x0 DUP9 PUSH1 0x60 ADD MLOAD SWAP1 POP CALLER PUSH1 0x1 PUSH1 0x1 PUSH1 0xA0 SHL SUB AND DUP2 PUSH1 0x1 PUSH1 0x1 PUSH1 0xA0 SHL SUB AND EQ PUSH2 0x1849 JUMPI DUP8 PUSH2 0x1834 JUMPI PUSH2 0x182F PUSH2 0x1712 JUMP JUMPDEST PUSH1 0x1 SWAP8 POP JUMPDEST PUSH2 0x1849 PUSH2 0x1841 DUP3 CALLER PUSH2 0x29A4 JUMP JUMPDEST PUSH2 0x1F7 PUSH2 0x52B JUMP JUMPDEST DUP9 MLOAD PUSH1 0x20 DUP11 ADD MLOAD PUSH1 0x40 DUP12 ADD MLOAD PUSH1 0x80 SWAP1 SWAP12 ADD MLOAD SWAP2 SWAP12 SWAP1 SWAP11 SWAP10 SWAP3 SWAP9 POP SWAP1 SWAP7 POP SWAP1 SWAP5 POP SWAP3 POP POP POP JUMP JUMPDEST PUSH2 0x1884 DUP4 PUSH2 0x187C DUP7 PUSH2 0x1ABB JUMP JUMPDEST DUP4 PUSH1 0x0 PUSH2 0x2A5C JUMP JUMPDEST POP PUSH2 0xDC4 DUP5 DUP3 DUP5 PUSH1 0x0 PUSH2 0x1CB2 JUMP JUMPDEST PUSH2 0x18A5 DUP3 PUSH2 0x189F DUP7 PUSH2 0x1ABB JUMP JUMPDEST DUP4 PUSH2 0x2AB2 JUMP JUMPDEST PUSH2 0xDC4 DUP5 DUP3 DUP6 PUSH1 0x0 PUSH2 0x1BD4 JUMP JUMPDEST PUSH1 0x1 PUSH1 0x1 PUSH1 0xA0 SHL SUB AND ISZERO SWAP1 JUMP JUMPDEST PUSH1 0x0 DUP3 DUP3 ADD PUSH2 0x169D DUP5 DUP3 LT ISZERO DUP4 PUSH2 0x52B JUMP JUMPDEST PUSH2 0x18DE DUP4 DUP6 DUP4 PUSH1 0x0 PUSH2 0x2A5C JUMP JUMPDEST POP PUSH2 0xDC4 DUP3 DUP6 DUP4 PUSH2 0x2AB2 JUMP JUMPDEST DUP1 ISZERO PUSH2 0xDC4 JUMPI PUSH2 0x1905 PUSH1 0x1 PUSH1 0x1 PUSH1 0xA0 SHL SUB DUP6 AND DUP5 DUP5 DUP5 PUSH2 0x2AE2 JUMP JUMPDEST DUP3 PUSH1 0x1 PUSH1 0x1 PUSH1 0xA0 SHL SUB AND DUP5 PUSH1 0x1 PUSH1 0x1 PUSH1 0xA0 SHL SUB AND PUSH32 0x540A1A3F28340CAEC336C81D8D7B3DF139EE5CDC1839A4F283D7EBB7EAAE2D5C DUP5 DUP5 PUSH1 0x40 MLOAD PUSH2 0x194A SWAP3 SWAP2 SWAP1 PUSH2 0x5B03 JUMP JUMPDEST PUSH1 0x40 MLOAD DUP1 SWAP2 SUB SWAP1 LOG3 POP POP POP POP JUMP JUMPDEST PUSH2 0x1967 DUP2 CALLVALUE LT ISZERO PUSH2 0x204 PUSH2 0x52B JUMP JUMPDEST CALLVALUE DUP2 SWAP1 SUB DUP1 ISZERO PUSH2 0x539 JUMPI PUSH2 0x539 CALLER DUP3 PUSH2 0x2B03 JUMP JUMPDEST PUSH1 0x1 PUSH1 0x1 PUSH1 0xA0 SHL SUB SWAP2 DUP3 AND PUSH1 0x0 SWAP1 DUP2 MSTORE PUSH1 0xB PUSH1 0x20 SWAP1 DUP2 MSTORE PUSH1 0x40 DUP1 DUP4 KECCAK256 SWAP4 SWAP1 SWAP5 AND DUP3 MSTORE SWAP2 SWAP1 SWAP2 MSTORE KECCAK256 SLOAD SWAP1 JUMP JUMPDEST DUP1 ISZERO PUSH2 0x19C6 JUMPI PUSH2 0x19C1 PUSH2 0x19B7 PUSH2 0x1A41 JUMP JUMPDEST TIMESTAMP LT PUSH2 0x193 PUSH2 0x52B JUMP JUMPDEST PUSH2 0x19DB JUMP JUMPDEST PUSH2 0x19DB PUSH2 0x19D1 PUSH2 0x1A65 JUMP JUMPDEST TIMESTAMP LT PUSH2 0x1A9 PUSH2 0x52B JUMP JUMPDEST PUSH1 0x3 DUP1 SLOAD PUSH1 0xFF NOT AND DUP3 ISZERO ISZERO OR SWAP1 SSTORE PUSH1 0x40 MLOAD PUSH32 0x9E3A5E37224532DEA67B89FACE185703738A228A6E8A23DEE546960180D3BE64 SWAP1 PUSH2 0x1A19 SWAP1 DUP4 SWAP1 PUSH2 0x5C50 JUMP JUMPDEST PUSH1 0x40 MLOAD DUP1 SWAP2 SUB SWAP1 LOG1 POP JUMP JUMPDEST PUSH1 0x0 PUSH2 0x1A2E PUSH2 0x1A65 JUMP JUMPDEST TIMESTAMP GT DUP1 PUSH2 0x1292 JUMPI POP POP PUSH1 0x3 SLOAD PUSH1 0xFF AND ISZERO SWAP1 JUMP JUMPDEST PUSH32 0x0 SWAP1 JUMP JUMPDEST PUSH32 0x0 SWAP1 JUMP JUMPDEST CALLER PUSH1 0x1 PUSH1 0x1 PUSH1 0xA0 SHL SUB DUP3 AND EQ PUSH2 0x55E JUMPI PUSH2 0x1AA1 PUSH2 0x1712 JUMP JUMPDEST PUSH2 0x1AAB DUP2 CALLER PUSH2 0x29A4 JUMP JUMPDEST PUSH2 0x55E JUMPI PUSH2 0x55E DUP2 PUSH2 0x1F7 PUSH2 0x2B7D JUMP JUMPDEST PUSH1 0x0 PUSH2 0x1AC6 DUP3 PUSH2 0x18B2 JUMP JUMPDEST PUSH2 0x1AD8 JUMPI PUSH2 0x1AD3 DUP3 PUSH2 0x528 JUMP JUMPDEST PUSH2 0x16A0 JUMP JUMPDEST PUSH2 0x16A0 PUSH2 0x506 JUMP JUMPDEST PUSH1 0x0 DUP1 PUSH1 0x0 DUP1 PUSH2 0x1AF3 DUP6 PUSH1 0x80 ADD MLOAD PUSH2 0x288E JUMP JUMPDEST SWAP1 POP PUSH1 0x0 PUSH2 0x1B04 DUP7 PUSH1 0x80 ADD MLOAD PUSH2 0x1EC9 JUMP JUMPDEST SWAP1 POP PUSH1 0x2 DUP2 PUSH1 0x2 DUP2 GT ISZERO PUSH2 0x1B14 JUMPI INVALID JUMPDEST EQ ISZERO PUSH2 0x1B2B JUMPI PUSH2 0x1B24 DUP7 DUP4 PUSH2 0x2BB1 JUMP JUMPDEST SWAP5 POP PUSH2 0x1B56 JUMP JUMPDEST PUSH1 0x1 DUP2 PUSH1 0x2 DUP2 GT ISZERO PUSH2 0x1B39 JUMPI INVALID JUMPDEST EQ ISZERO PUSH2 0x1B49 JUMPI PUSH2 0x1B24 DUP7 DUP4 PUSH2 0x2C61 JUMP JUMPDEST PUSH2 0x1B53 DUP7 DUP4 PUSH2 0x2CF4 JUMP JUMPDEST SWAP5 POP JUMPDEST PUSH2 0x1B69 DUP7 PUSH1 0x0 ADD MLOAD DUP8 PUSH1 0x60 ADD MLOAD DUP8 PUSH2 0x2F18 JUMP JUMPDEST DUP1 SWAP5 POP DUP2 SWAP6 POP POP POP DUP6 PUSH1 0x40 ADD MLOAD PUSH1 0x1 PUSH1 0x1 PUSH1 0xA0 SHL SUB AND DUP7 PUSH1 0x20 ADD MLOAD PUSH1 0x1 PUSH1 0x1 PUSH1 0xA0 SHL SUB AND DUP8 PUSH1 0x80 ADD MLOAD PUSH32 0x2170C741C41531AEC20E7C107C24EECFDD15E69C9BB0A8DD37B1840B9E0B207B DUP8 DUP8 PUSH1 0x40 MLOAD PUSH2 0x1BC3 SWAP3 SWAP2 SWAP1 PUSH2 0x5D7D JUMP JUMPDEST PUSH1 0x40 MLOAD DUP1 SWAP2 SUB SWAP1 LOG4 POP POP SWAP2 SWAP4 SWAP1 SWAP3 POP JUMP JUMPDEST DUP3 PUSH2 0x1BDE JUMPI PUSH2 0xDC4 JUMP JUMPDEST PUSH2 0x1BE7 DUP5 PUSH2 0x18B2 JUMP JUMPDEST ISZERO PUSH2 0x1C68 JUMPI PUSH2 0x1BF9 DUP2 ISZERO PUSH2 0x202 PUSH2 0x52B JUMP JUMPDEST PUSH2 0x1C08 DUP4 SELFBALANCE LT ISZERO PUSH2 0x204 PUSH2 0x52B JUMP JUMPDEST PUSH2 0x1C10 PUSH2 0x506 JUMP JUMPDEST PUSH1 0x1 PUSH1 0x1 PUSH1 0xA0 SHL SUB AND PUSH4 0xD0E30DB0 DUP5 PUSH1 0x40 MLOAD DUP3 PUSH4 0xFFFFFFFF AND PUSH1 0xE0 SHL DUP2 MSTORE PUSH1 0x4 ADD PUSH1 0x0 PUSH1 0x40 MLOAD DUP1 DUP4 SUB DUP2 DUP6 DUP9 DUP1 EXTCODESIZE ISZERO DUP1 ISZERO PUSH2 0x1C4A JUMPI PUSH1 0x0 DUP1 REVERT JUMPDEST POP GAS CALL ISZERO DUP1 ISZERO PUSH2 0x1C5E JUMPI RETURNDATASIZE PUSH1 0x0 DUP1 RETURNDATACOPY RETURNDATASIZE PUSH1 0x0 REVERT JUMPDEST POP POP POP POP POP PUSH2 0xDC4 JUMP JUMPDEST PUSH1 0x0 PUSH2 0x1C73 DUP6 PUSH2 0x528 JUMP JUMPDEST SWAP1 POP DUP2 ISZERO PUSH2 0x1C90 JUMPI PUSH1 0x0 PUSH2 0x1C8A DUP5 DUP4 DUP8 PUSH1 0x1 PUSH2 0x2A5C JUMP JUMPDEST SWAP1 SWAP5 SUB SWAP4 POP JUMPDEST DUP4 ISZERO PUSH2 0x1CAB JUMPI PUSH2 0x1CAB PUSH1 0x1 PUSH1 0x1 PUSH1 0xA0 SHL SUB DUP3 AND DUP5 ADDRESS DUP8 PUSH2 0x2AE2 JUMP JUMPDEST POP POP POP POP POP JUMP JUMPDEST DUP3 PUSH2 0x1CBC JUMPI PUSH2 0xDC4 JUMP JUMPDEST PUSH2 0x1CC5 DUP5 PUSH2 0x18B2 JUMP JUMPDEST ISZERO PUSH2 0x1D55 JUMPI PUSH2 0x1CD7 DUP2 ISZERO PUSH2 0x202 PUSH2 0x52B JUMP JUMPDEST PUSH2 0x1CDF PUSH2 0x506 JUMP JUMPDEST PUSH1 0x1 PUSH1 0x1 PUSH1 0xA0 SHL SUB AND PUSH4 0x2E1A7D4D DUP5 PUSH1 0x40 MLOAD DUP3 PUSH4 0xFFFFFFFF AND PUSH1 0xE0 SHL DUP2 MSTORE PUSH1 0x4 ADD PUSH2 0x1D0A SWAP2 SWAP1 PUSH2 0x5C73 JUMP JUMPDEST PUSH1 0x0 PUSH1 0x40 MLOAD DUP1 DUP4 SUB DUP2 PUSH1 0x0 DUP8 DUP1 EXTCODESIZE ISZERO DUP1 ISZERO PUSH2 0x1D24 JUMPI PUSH1 0x0 DUP1 REVERT JUMPDEST POP GAS CALL ISZERO DUP1 ISZERO PUSH2 0x1D38 JUMPI RETURNDATASIZE PUSH1 0x0 DUP1 RETURNDATACOPY RETURNDATASIZE PUSH1 0x0 REVERT JUMPDEST POP PUSH2 0x1D50 SWAP3 POP POP POP PUSH1 0x1 PUSH1 0x1 PUSH1 0xA0 SHL SUB DUP4 AND DUP5 PUSH2 0x2B03 JUMP JUMPDEST PUSH2 0xDC4 JUMP JUMPDEST PUSH1 0x0 PUSH2 0x1D60 DUP6 PUSH2 0x528 JUMP JUMPDEST SWAP1 POP DUP2 ISZERO PUSH2 0x1D78 JUMPI PUSH2 0x1D73 DUP4 DUP3 DUP7 PUSH2 0x2AB2 JUMP JUMPDEST PUSH2 0x1CAB JUMP JUMPDEST PUSH2 0x1CAB PUSH1 0x1 PUSH1 0x1 PUSH1 0xA0 SHL SUB DUP3 AND DUP5 DUP7 PUSH2 0x1E20 JUMP JUMPDEST PUSH2 0x539 DUP2 DUP4 EQ PUSH1 0x67 PUSH2 0x52B JUMP JUMPDEST PUSH1 0x0 DUP1 PUSH2 0x1DA4 PUSH2 0x1373 JUMP JUMPDEST PUSH1 0x1 PUSH1 0x1 PUSH1 0xA0 SHL SUB AND PUSH4 0xD877845C PUSH1 0x40 MLOAD DUP2 PUSH4 0xFFFFFFFF AND PUSH1 0xE0 SHL DUP2 MSTORE PUSH1 0x4 ADD PUSH1 0x20 PUSH1 0x40 MLOAD DUP1 DUP4 SUB DUP2 DUP7 DUP1 EXTCODESIZE ISZERO DUP1 ISZERO PUSH2 0x1DDC JUMPI PUSH1 0x0 DUP1 REVERT JUMPDEST POP GAS STATICCALL ISZERO DUP1 ISZERO PUSH2 0x1DF0 JUMPI RETURNDATASIZE PUSH1 0x0 DUP1 RETURNDATACOPY RETURNDATASIZE PUSH1 0x0 REVERT JUMPDEST POP POP POP POP PUSH1 0x40 MLOAD RETURNDATASIZE PUSH1 0x1F NOT PUSH1 0x1F DUP3 ADD AND DUP3 ADD DUP1 PUSH1 0x40 MSTORE POP DUP2 ADD SWAP1 PUSH2 0x1E14 SWAP2 SWAP1 PUSH2 0x58C0 JUMP JUMPDEST SWAP1 POP PUSH2 0x17F0 DUP4 DUP3 PUSH2 0x2F46 JUMP JUMPDEST PUSH2 0xF64 DUP4 PUSH4 0xA9059CBB PUSH1 0xE0 SHL DUP5 DUP5 PUSH1 0x40 MLOAD PUSH1 0x24 ADD PUSH2 0x1E3F SWAP3 SWAP2 SWAP1 PUSH2 0x5B03 JUMP JUMPDEST PUSH1 0x40 DUP1 MLOAD PUSH1 0x1F NOT DUP2 DUP5 SUB ADD DUP2 MSTORE SWAP2 SWAP1 MSTORE PUSH1 0x20 DUP2 ADD DUP1 MLOAD PUSH1 0x1 PUSH1 0x1 PUSH1 0xE0 SHL SUB AND PUSH1 0x1 PUSH1 0x1 PUSH1 0xE0 SHL SUB NOT SWAP1 SWAP4 AND SWAP3 SWAP1 SWAP3 OR SWAP1 SWAP2 MSTORE PUSH2 0x2F93 JUMP JUMPDEST DUP1 ISZERO PUSH2 0x539 JUMPI PUSH2 0x539 PUSH2 0x1E87 PUSH2 0x1373 JUMP JUMPDEST PUSH1 0x1 PUSH1 0x1 PUSH1 0xA0 SHL SUB DUP5 AND SWAP1 DUP4 PUSH2 0x1E20 JUMP JUMPDEST PUSH2 0x1EA1 DUP2 PUSH2 0x25E7 JUMP JUMPDEST PUSH2 0x55E PUSH2 0x1EAD DUP3 PUSH2 0x288E JUMP JUMPDEST PUSH1 0x1 PUSH1 0x1 PUSH1 0xA0 SHL SUB AND CALLER PUSH1 0x1 PUSH1 0x1 PUSH1 0xA0 SHL SUB AND EQ PUSH2 0x1F5 PUSH2 0x52B JUMP JUMPDEST PUSH1 0x0 PUSH2 0xFFFF PUSH1 0x50 DUP4 SWAP1 SHR AND PUSH2 0x16A0 PUSH1 0x3 DUP3 LT PUSH2 0x1F4 PUSH2 0x52B JUMP JUMPDEST PUSH2 0x1F04 DUP2 PUSH1 0x1 PUSH1 0x1 PUSH1 0xA0 SHL SUB AND DUP4 PUSH1 0x1 PUSH1 0x1 PUSH1 0xA0 SHL SUB AND EQ ISZERO PUSH2 0x20A PUSH2 0x52B JUMP JUMPDEST PUSH2 0x1F23 DUP2 PUSH1 0x1 PUSH1 0x1 PUSH1 0xA0 SHL SUB AND DUP4 PUSH1 0x1 PUSH1 0x1 PUSH1 0xA0 SHL SUB AND LT PUSH1 0x66 PUSH2 0x52B JUMP JUMPDEST PUSH1 0x0 DUP4 DUP2 MSTORE PUSH1 0x9 PUSH1 0x20 MSTORE PUSH1 0x40 SWAP1 KECCAK256 DUP1 SLOAD PUSH2 0x1F60 SWAP1 PUSH1 0x1 PUSH1 0x1 PUSH1 0xA0 SHL SUB AND ISZERO DUP1 ISZERO PUSH2 0x1F58 JUMPI POP PUSH1 0x1 DUP3 ADD SLOAD PUSH1 0x1 PUSH1 0x1 PUSH1 0xA0 SHL SUB AND ISZERO JUMPDEST PUSH2 0x20B PUSH2 0x52B JUMP JUMPDEST DUP1 SLOAD PUSH1 0x1 PUSH1 0x1 PUSH1 0xA0 SHL SUB SWAP4 DUP5 AND PUSH1 0x1 PUSH1 0x1 PUSH1 0xA0 SHL SUB NOT SWAP2 DUP3 AND OR DUP3 SSTORE PUSH1 0x1 SWAP1 SWAP2 ADD DUP1 SLOAD SWAP3 SWAP1 SWAP4 AND SWAP2 AND OR SWAP1 SSTORE POP JUMP JUMPDEST PUSH1 0x0 DUP3 DUP2 MSTORE PUSH1 0x8 PUSH1 0x20 MSTORE PUSH1 0x40 DUP2 KECCAK256 SWAP1 JUMPDEST DUP3 MLOAD DUP2 LT ISZERO PUSH2 0xDC4 JUMPI PUSH1 0x0 PUSH2 0x1FD0 DUP5 DUP4 DUP2 MLOAD DUP2 LT PUSH2 0x1FB9 JUMPI INVALID JUMPDEST PUSH1 0x20 MUL PUSH1 0x20 ADD ADD MLOAD DUP5 PUSH2 0x3032 SWAP1 SWAP2 SWAP1 PUSH4 0xFFFFFFFF AND JUMP JUMPDEST SWAP1 POP PUSH2 0x1FDE DUP2 PUSH2 0x20A PUSH2 0x52B JUMP JUMPDEST POP PUSH1 0x1 ADD PUSH2 0x1F9F JUMP JUMPDEST PUSH1 0x0 DUP3 DUP2 MSTORE PUSH1 0x1 PUSH1 0x20 MSTORE PUSH1 0x40 DUP2 KECCAK256 SWAP1 JUMPDEST DUP3 MLOAD DUP2 LT ISZERO PUSH2 0xDC4 JUMPI PUSH1 0x0 PUSH2 0x2025 DUP5 DUP4 DUP2 MLOAD DUP2 LT PUSH2 0x2011 JUMPI INVALID JUMPDEST PUSH1 0x20 SWAP1 DUP2 MUL SWAP2 SWAP1 SWAP2 ADD ADD MLOAD DUP5 SWAP1 PUSH1 0x0 PUSH2 0x3095 JUMP JUMPDEST SWAP1 POP PUSH2 0x2033 DUP2 PUSH2 0x20A PUSH2 0x52B JUMP JUMPDEST POP PUSH1 0x1 ADD PUSH2 0x1FF7 JUMP JUMPDEST PUSH1 0x0 DUP1 PUSH1 0x0 PUSH2 0x204C DUP7 DUP7 DUP7 PUSH2 0x3142 JUMP JUMPDEST SWAP3 POP SWAP3 POP SWAP3 POP PUSH2 0x2076 PUSH2 0x205E DUP5 PUSH2 0x3209 JUMP JUMPDEST DUP1 ISZERO PUSH2 0x206E JUMPI POP PUSH2 0x206E DUP4 PUSH2 0x3209 JUMP JUMPDEST PUSH2 0x20D PUSH2 0x52B JUMP JUMPDEST PUSH1 0x0 SWAP6 DUP7 MSTORE PUSH1 0x9 PUSH1 0x20 MSTORE PUSH1 0x40 DUP7 KECCAK256 DUP1 SLOAD PUSH1 0x1 PUSH1 0x1 PUSH1 0xA0 SHL SUB NOT SWAP1 DUP2 AND DUP3 SSTORE PUSH1 0x1 SWAP1 SWAP2 ADD DUP1 SLOAD SWAP1 SWAP2 AND SWAP1 SSTORE SWAP5 SWAP1 SWAP5 SSTORE POP POP POP POP JUMP JUMPDEST PUSH1 0x0 DUP3 DUP2 MSTORE PUSH1 0x8 PUSH1 0x20 MSTORE PUSH1 0x40 DUP2 KECCAK256 SWAP1 JUMPDEST DUP3 MLOAD DUP2 LT ISZERO PUSH2 0xDC4 JUMPI PUSH1 0x0 DUP4 DUP3 DUP2 MLOAD DUP2 LT PUSH2 0x20D1 JUMPI INVALID JUMPDEST PUSH1 0x20 MUL PUSH1 0x20 ADD ADD MLOAD SWAP1 POP PUSH2 0x211D PUSH2 0x206E PUSH1 0x7 PUSH1 0x0 DUP9 DUP2 MSTORE PUSH1 0x20 ADD SWAP1 DUP2 MSTORE PUSH1 0x20 ADD PUSH1 0x0 KECCAK256 PUSH1 0x0 DUP5 PUSH1 0x1 PUSH1 0x1 PUSH1 0xA0 SHL SUB AND PUSH1 0x1 PUSH1 0x1 PUSH1 0xA0 SHL SUB AND DUP2 MSTORE PUSH1 0x20 ADD SWAP1 DUP2 MSTORE PUSH1 0x20 ADD PUSH1 0x0 KECCAK256 SLOAD PUSH2 0x3209 JUMP JUMPDEST PUSH1 0x0 DUP6 DUP2 MSTORE PUSH1 0x7 PUSH1 0x20 SWAP1 DUP2 MSTORE PUSH1 0x40 DUP1 DUP4 KECCAK256 PUSH1 0x1 PUSH1 0x1 PUSH1 0xA0 SHL SUB DUP6 AND DUP5 MSTORE SWAP1 SWAP2 MSTORE DUP2 KECCAK256 DUP2 SWAP1 SSTORE PUSH2 0x214C DUP5 DUP4 PUSH2 0x3216 JUMP JUMPDEST SWAP1 POP PUSH2 0x215A DUP2 PUSH2 0x209 PUSH2 0x52B JUMP JUMPDEST POP POP PUSH1 0x1 ADD PUSH2 0x20BA JUMP JUMPDEST PUSH1 0x0 DUP3 DUP2 MSTORE PUSH1 0x1 PUSH1 0x20 MSTORE PUSH1 0x40 DUP2 KECCAK256 SWAP1 JUMPDEST DUP3 MLOAD DUP2 LT ISZERO PUSH2 0xDC4 JUMPI PUSH1 0x0 DUP4 DUP3 DUP2 MLOAD DUP2 LT PUSH2 0x218B JUMPI INVALID JUMPDEST PUSH1 0x20 MUL PUSH1 0x20 ADD ADD MLOAD SWAP1 POP PUSH1 0x0 PUSH2 0x21A1 DUP5 DUP4 PUSH2 0x331D JUMP JUMPDEST SWAP1 POP PUSH2 0x21AF PUSH2 0x206E DUP3 PUSH2 0x3209 JUMP JUMPDEST PUSH2 0x21B9 DUP5 DUP4 PUSH2 0x332C JUMP JUMPDEST POP POP POP DUP1 PUSH1 0x1 ADD SWAP1 POP PUSH2 0x2174 JUMP JUMPDEST PUSH2 0x21CF PUSH2 0x4C1E JUMP JUMPDEST POP SWAP1 JUMP JUMPDEST PUSH2 0x21DB PUSH2 0x16F9 JUMP JUMPDEST DUP4 PUSH2 0x21E5 DUP2 PUSH2 0x25E7 JUMP JUMPDEST DUP4 PUSH2 0x21EF DUP2 PUSH2 0x1A89 JUMP JUMPDEST PUSH2 0x2203 DUP4 PUSH1 0x0 ADD MLOAD MLOAD DUP5 PUSH1 0x20 ADD MLOAD MLOAD PUSH2 0x1D8C JUMP JUMPDEST PUSH1 0x0 PUSH2 0x2212 DUP5 PUSH1 0x0 ADD MLOAD PUSH2 0x33CE JUMP JUMPDEST SWAP1 POP PUSH1 0x0 PUSH2 0x2220 DUP9 DUP4 PUSH2 0x345D JUMP JUMPDEST SWAP1 POP PUSH1 0x0 DUP1 PUSH1 0x0 PUSH2 0x2235 DUP13 DUP13 DUP13 DUP13 DUP13 DUP10 PUSH2 0x34EE JUMP JUMPDEST SWAP3 POP SWAP3 POP SWAP3 POP PUSH1 0x0 PUSH2 0x2246 DUP13 PUSH2 0x1EC9 JUMP JUMPDEST SWAP1 POP PUSH1 0x2 DUP2 PUSH1 0x2 DUP2 GT ISZERO PUSH2 0x2256 JUMPI INVALID JUMPDEST EQ ISZERO PUSH2 0x22BE JUMPI PUSH2 0x22B9 DUP13 DUP8 PUSH1 0x0 DUP2 MLOAD DUP2 LT PUSH2 0x226D JUMPI INVALID JUMPDEST PUSH1 0x20 MUL PUSH1 0x20 ADD ADD MLOAD DUP7 PUSH1 0x0 DUP2 MLOAD DUP2 LT PUSH2 0x2282 JUMPI INVALID JUMPDEST PUSH1 0x20 MUL PUSH1 0x20 ADD ADD MLOAD DUP10 PUSH1 0x1 DUP2 MLOAD DUP2 LT PUSH2 0x2297 JUMPI INVALID JUMPDEST PUSH1 0x20 MUL PUSH1 0x20 ADD ADD MLOAD DUP9 PUSH1 0x1 DUP2 MLOAD DUP2 LT PUSH2 0x22AC JUMPI INVALID JUMPDEST PUSH1 0x20 MUL PUSH1 0x20 ADD ADD MLOAD PUSH2 0x36B3 JUMP JUMPDEST PUSH2 0x22E7 JUMP JUMPDEST PUSH1 0x1 DUP2 PUSH1 0x2 DUP2 GT ISZERO PUSH2 0x22CC JUMPI INVALID JUMPDEST EQ ISZERO PUSH2 0x22DD JUMPI PUSH2 0x22B9 DUP13 DUP8 DUP7 PUSH2 0x36F2 JUMP JUMPDEST PUSH2 0x22E7 DUP13 DUP6 PUSH2 0x375F JUMP JUMPDEST PUSH1 0x0 DUP1 DUP15 PUSH1 0x1 DUP2 GT ISZERO PUSH2 0x22F6 JUMPI INVALID JUMPDEST EQ SWAP1 POP DUP12 PUSH1 0x1 PUSH1 0x1 PUSH1 0xA0 SHL SUB AND DUP14 PUSH32 0xE5CE249087CE04F05A957192435400FD97868DBA0E6A4B4C049ABF8AF80DAE78 DUP10 PUSH2 0x2330 DUP9 DUP7 PUSH2 0x37A8 JUMP JUMPDEST DUP8 PUSH1 0x40 MLOAD PUSH2 0x2340 SWAP4 SWAP3 SWAP2 SWAP1 PUSH2 0x5B81 JUMP JUMPDEST PUSH1 0x40 MLOAD DUP1 SWAP2 SUB SWAP1 LOG3 POP POP POP POP POP POP POP POP POP PUSH2 0x1CAB PUSH2 0x179C JUMP JUMPDEST PUSH1 0x60 DUP4 MLOAD PUSH1 0x1 PUSH1 0x1 PUSH1 0x40 SHL SUB DUP2 GT DUP1 ISZERO PUSH2 0x2372 JUMPI PUSH1 0x0 DUP1 REVERT JUMPDEST POP PUSH1 0x40 MLOAD SWAP1 DUP1 DUP3 MSTORE DUP1 PUSH1 0x20 MUL PUSH1 0x20 ADD DUP3 ADD PUSH1 0x40 MSTORE DUP1 ISZERO PUSH2 0x239C JUMPI DUP2 PUSH1 0x20 ADD PUSH1 0x20 DUP3 MUL DUP1 CALLDATASIZE DUP4 CALLDATACOPY ADD SWAP1 POP JUMPDEST POP SWAP1 POP PUSH2 0x23A7 PUSH2 0x4C48 JUMP JUMPDEST PUSH2 0x23AF PUSH2 0x4BA5 JUMP JUMPDEST PUSH1 0x0 DUP1 PUSH1 0x0 JUMPDEST DUP10 MLOAD DUP2 LT ISZERO PUSH2 0x25DA JUMPI DUP10 DUP2 DUP2 MLOAD DUP2 LT PUSH2 0x23CA JUMPI INVALID JUMPDEST PUSH1 0x20 MUL PUSH1 0x20 ADD ADD MLOAD SWAP5 POP PUSH1 0x0 DUP10 MLOAD DUP7 PUSH1 0x20 ADD MLOAD LT DUP1 ISZERO PUSH2 0x23EE JUMPI POP DUP10 MLOAD DUP7 PUSH1 0x40 ADD MLOAD LT JUMPDEST SWAP1 POP PUSH2 0x23FB DUP2 PUSH1 0x64 PUSH2 0x52B JUMP JUMPDEST PUSH1 0x0 PUSH2 0x241D DUP12 DUP9 PUSH1 0x20 ADD MLOAD DUP2 MLOAD DUP2 LT PUSH2 0x2410 JUMPI INVALID JUMPDEST PUSH1 0x20 MUL PUSH1 0x20 ADD ADD MLOAD PUSH2 0x1ABB JUMP JUMPDEST SWAP1 POP PUSH1 0x0 PUSH2 0x2434 DUP13 DUP10 PUSH1 0x40 ADD MLOAD DUP2 MLOAD DUP2 LT PUSH2 0x2410 JUMPI INVALID JUMPDEST SWAP1 POP PUSH2 0x2457 DUP2 PUSH1 0x1 PUSH1 0x1 PUSH1 0xA0 SHL SUB AND DUP4 PUSH1 0x1 PUSH1 0x1 PUSH1 0xA0 SHL SUB AND EQ ISZERO PUSH2 0x1FD PUSH2 0x52B JUMP JUMPDEST PUSH1 0x60 DUP9 ADD MLOAD PUSH2 0x24A7 JUMPI PUSH2 0x246F PUSH1 0x0 DUP6 GT PUSH2 0x1FE PUSH2 0x52B JUMP JUMPDEST PUSH1 0x0 PUSH2 0x247C DUP12 DUP5 DUP5 PUSH2 0x384F JUMP JUMPDEST PUSH1 0x1 PUSH1 0x1 PUSH1 0xA0 SHL SUB AND DUP8 PUSH1 0x1 PUSH1 0x1 PUSH1 0xA0 SHL SUB AND EQ SWAP1 POP PUSH2 0x249E DUP2 PUSH2 0x1FF PUSH2 0x52B JUMP JUMPDEST POP PUSH1 0x60 DUP9 ADD DUP6 SWAP1 MSTORE JUMPDEST DUP8 MLOAD PUSH1 0x80 DUP9 ADD MSTORE DUP7 DUP11 PUSH1 0x1 DUP2 GT ISZERO PUSH2 0x24BB JUMPI INVALID JUMPDEST SWAP1 DUP2 PUSH1 0x1 DUP2 GT ISZERO PUSH2 0x24C8 JUMPI INVALID JUMPDEST SWAP1 MSTORE POP PUSH1 0x1 PUSH1 0x1 PUSH1 0xA0 SHL SUB DUP1 DUP4 AND PUSH1 0x20 DUP10 ADD MSTORE DUP2 DUP2 AND PUSH1 0x40 DUP1 DUP11 ADD SWAP2 SWAP1 SWAP2 MSTORE PUSH1 0x60 DUP1 DUP12 ADD MLOAD SWAP1 DUP11 ADD MSTORE PUSH1 0x80 DUP11 ADD MLOAD PUSH2 0x100 DUP11 ADD MSTORE DUP13 MLOAD DUP3 AND PUSH1 0xC0 DUP11 ADD MSTORE DUP13 ADD MLOAD AND PUSH1 0xE0 DUP9 ADD MSTORE PUSH1 0x0 DUP1 PUSH2 0x251A DUP10 PUSH2 0x1AE0 JUMP JUMPDEST SWAP2 SWAP9 POP SWAP3 POP SWAP1 POP PUSH2 0x252C DUP13 DUP6 DUP6 PUSH2 0x3871 JUMP JUMPDEST SWAP8 POP PUSH2 0x2560 PUSH2 0x253A DUP4 PUSH2 0x388B JUMP JUMPDEST DUP13 DUP13 PUSH1 0x20 ADD MLOAD DUP2 MLOAD DUP2 LT PUSH2 0x254A JUMPI INVALID JUMPDEST PUSH1 0x20 MUL PUSH1 0x20 ADD ADD MLOAD PUSH2 0x389F SWAP1 SWAP2 SWAP1 PUSH4 0xFFFFFFFF AND JUMP JUMPDEST DUP12 DUP12 PUSH1 0x20 ADD MLOAD DUP2 MLOAD DUP2 LT PUSH2 0x2570 JUMPI INVALID JUMPDEST PUSH1 0x20 MUL PUSH1 0x20 ADD ADD DUP2 DUP2 MSTORE POP POP PUSH2 0x25AE PUSH2 0x2588 DUP3 PUSH2 0x388B JUMP JUMPDEST DUP13 DUP13 PUSH1 0x40 ADD MLOAD DUP2 MLOAD DUP2 LT PUSH2 0x2598 JUMPI INVALID JUMPDEST PUSH1 0x20 MUL PUSH1 0x20 ADD ADD MLOAD PUSH2 0x38D3 SWAP1 SWAP2 SWAP1 PUSH4 0xFFFFFFFF AND JUMP JUMPDEST DUP12 DUP12 PUSH1 0x40 ADD MLOAD DUP2 MLOAD DUP2 LT PUSH2 0x25BE JUMPI INVALID JUMPDEST PUSH1 0x20 MUL PUSH1 0x20 ADD ADD DUP2 DUP2 MSTORE POP POP POP POP POP POP POP DUP1 PUSH1 0x1 ADD SWAP1 POP PUSH2 0x23B5 JUMP JUMPDEST POP POP POP POP POP SWAP5 SWAP4 POP POP POP POP JUMP JUMPDEST PUSH1 0x0 DUP2 DUP2 MSTORE PUSH1 0x5 PUSH1 0x20 MSTORE PUSH1 0x40 SWAP1 KECCAK256 SLOAD PUSH2 0x55E SWAP1 PUSH1 0xFF AND PUSH2 0x1F4 PUSH2 0x52B JUMP JUMPDEST PUSH1 0x0 DUP1 PUSH1 0x0 DUP1 PUSH1 0x0 PUSH2 0x2616 DUP8 PUSH2 0x3907 JUMP JUMPDEST SWAP5 POP SWAP5 POP SWAP5 POP SWAP5 POP POP DUP4 PUSH1 0x1 PUSH1 0x1 PUSH1 0xA0 SHL SUB AND DUP7 PUSH1 0x1 PUSH1 0x1 PUSH1 0xA0 SHL SUB AND EQ ISZERO PUSH2 0x2645 JUMPI DUP3 SWAP5 POP POP POP POP POP PUSH2 0x16A0 JUMP JUMPDEST DUP2 PUSH1 0x1 PUSH1 0x1 PUSH1 0xA0 SHL SUB AND DUP7 PUSH1 0x1 PUSH1 0x1 PUSH1 0xA0 SHL SUB AND EQ ISZERO PUSH2 0x266A JUMPI SWAP4 POP PUSH2 0x16A0 SWAP3 POP POP POP JUMP JUMPDEST PUSH2 0x2675 PUSH2 0x209 PUSH2 0x16A6 JUMP JUMPDEST POP POP POP POP SWAP3 SWAP2 POP POP JUMP JUMPDEST PUSH1 0x0 DUP3 DUP2 MSTORE PUSH1 0x7 PUSH1 0x20 SWAP1 DUP2 MSTORE PUSH1 0x40 DUP1 DUP4 KECCAK256 PUSH1 0x1 PUSH1 0x1 PUSH1 0xA0 SHL SUB DUP6 AND DUP5 MSTORE SWAP1 SWAP2 MSTORE DUP2 KECCAK256 SLOAD DUP2 PUSH2 0x26AC DUP3 PUSH2 0x397D JUMP JUMPDEST DUP1 PUSH2 0x26CA JUMPI POP PUSH1 0x0 DUP6 DUP2 MSTORE PUSH1 0x8 PUSH1 0x20 MSTORE PUSH1 0x40 SWAP1 KECCAK256 PUSH2 0x26CA SWAP1 DUP6 PUSH2 0x398F JUMP JUMPDEST SWAP1 POP DUP1 PUSH2 0x26E5 JUMPI PUSH2 0x26DA DUP6 PUSH2 0x25E7 JUMP JUMPDEST PUSH2 0x26E5 PUSH2 0x209 PUSH2 0x16A6 JUMP JUMPDEST POP SWAP4 SWAP3 POP POP POP JUMP JUMPDEST PUSH1 0x0 DUP3 DUP2 MSTORE PUSH1 0x1 PUSH1 0x20 MSTORE PUSH1 0x40 DUP2 KECCAK256 PUSH2 0x9C0 DUP2 DUP5 PUSH2 0x331D JUMP JUMPDEST PUSH1 0x1 PUSH1 0x1 PUSH1 0x70 SHL SUB AND SWAP1 JUMP JUMPDEST PUSH1 0x70 SHR PUSH1 0x1 PUSH1 0x1 PUSH1 0x70 SHL SUB AND SWAP1 JUMP JUMPDEST PUSH1 0xE0 SHR SWAP1 JUMP JUMPDEST PUSH1 0x0 DUP1 PUSH2 0x2732 DUP5 PUSH2 0x1EC9 JUMP JUMPDEST SWAP1 POP PUSH1 0x2 DUP2 PUSH1 0x2 DUP2 GT ISZERO PUSH2 0x2742 JUMPI INVALID JUMPDEST EQ ISZERO PUSH2 0x275A JUMPI PUSH2 0x2752 DUP5 DUP5 PUSH2 0x39B0 JUMP JUMPDEST SWAP2 POP POP PUSH2 0x16A0 JUMP JUMPDEST PUSH1 0x1 DUP2 PUSH1 0x2 DUP2 GT ISZERO PUSH2 0x2768 JUMPI INVALID JUMPDEST EQ ISZERO PUSH2 0x2778 JUMPI PUSH2 0x2752 DUP5 DUP5 PUSH2 0x3A01 JUMP JUMPDEST PUSH2 0x2752 DUP5 DUP5 PUSH2 0x3A19 JUMP JUMPDEST PUSH1 0x0 DUP1 PUSH1 0x0 PUSH2 0x2790 DUP7 PUSH2 0x1EC9 JUMP JUMPDEST SWAP1 POP PUSH1 0x0 DUP8 PUSH1 0x2 DUP2 GT ISZERO PUSH2 0x27A0 JUMPI INVALID JUMPDEST EQ ISZERO PUSH2 0x27BC JUMPI PUSH2 0x27B2 DUP7 DUP3 DUP8 DUP8 PUSH2 0x3A31 JUMP JUMPDEST SWAP3 POP SWAP3 POP POP PUSH2 0x27E8 JUMP JUMPDEST PUSH1 0x1 DUP8 PUSH1 0x2 DUP2 GT ISZERO PUSH2 0x27CA JUMPI INVALID JUMPDEST EQ ISZERO PUSH2 0x27DC JUMPI PUSH2 0x27B2 DUP7 DUP3 DUP8 DUP8 PUSH2 0x3AAC JUMP JUMPDEST PUSH2 0x27B2 DUP7 DUP3 DUP8 DUP8 PUSH2 0x3B28 JUMP JUMPDEST SWAP5 POP SWAP5 SWAP3 POP POP POP JUMP JUMPDEST PUSH1 0x0 PUSH32 0x0 PUSH32 0x0 PUSH32 0x0 PUSH2 0x285E PUSH2 0x3B8B JUMP JUMPDEST ADDRESS PUSH1 0x40 MLOAD PUSH1 0x20 ADD PUSH2 0x2873 SWAP6 SWAP5 SWAP4 SWAP3 SWAP2 SWAP1 PUSH2 0x5D25 JUMP JUMPDEST PUSH1 0x40 MLOAD PUSH1 0x20 DUP2 DUP4 SUB SUB DUP2 MSTORE SWAP1 PUSH1 0x40 MSTORE DUP1 MLOAD SWAP1 PUSH1 0x20 ADD KECCAK256 SWAP1 POP SWAP1 JUMP JUMPDEST PUSH1 0x60 SHR SWAP1 JUMP JUMPDEST PUSH1 0x60 DUP1 PUSH1 0x0 PUSH2 0x28A2 DUP5 PUSH2 0x1EC9 JUMP JUMPDEST SWAP1 POP PUSH1 0x2 DUP2 PUSH1 0x2 DUP2 GT ISZERO PUSH2 0x28B2 JUMPI INVALID JUMPDEST EQ ISZERO PUSH2 0x28CB JUMPI PUSH2 0x28C1 DUP5 PUSH2 0x3B8F JUMP JUMPDEST SWAP3 POP SWAP3 POP POP PUSH2 0x28F1 JUMP JUMPDEST PUSH1 0x1 DUP2 PUSH1 0x2 DUP2 GT ISZERO PUSH2 0x28D9 JUMPI INVALID JUMPDEST EQ ISZERO PUSH2 0x28E8 JUMPI PUSH2 0x28C1 DUP5 PUSH2 0x3CC4 JUMP JUMPDEST PUSH2 0x28C1 DUP5 PUSH2 0x3DE9 JUMP JUMPDEST SWAP2 POP SWAP2 JUMP JUMPDEST PUSH1 0x60 PUSH1 0x0 DUP3 MLOAD PUSH1 0x1 PUSH1 0x1 PUSH1 0x40 SHL SUB DUP2 GT DUP1 ISZERO PUSH2 0x2911 JUMPI PUSH1 0x0 DUP1 REVERT JUMPDEST POP PUSH1 0x40 MLOAD SWAP1 DUP1 DUP3 MSTORE DUP1 PUSH1 0x20 MUL PUSH1 0x20 ADD DUP3 ADD PUSH1 0x40 MSTORE DUP1 ISZERO PUSH2 0x293B JUMPI DUP2 PUSH1 0x20 ADD PUSH1 0x20 DUP3 MUL DUP1 CALLDATASIZE DUP4 CALLDATACOPY ADD SWAP1 POP JUMPDEST POP SWAP2 POP PUSH1 0x0 SWAP1 POP PUSH1 0x0 JUMPDEST DUP3 MLOAD DUP2 LT ISZERO PUSH2 0x14E1 JUMPI PUSH1 0x0 DUP5 DUP3 DUP2 MLOAD DUP2 LT PUSH2 0x295C JUMPI INVALID JUMPDEST PUSH1 0x20 MUL PUSH1 0x20 ADD ADD MLOAD SWAP1 POP PUSH2 0x296F DUP2 PUSH2 0x3EE3 JUMP JUMPDEST DUP5 DUP4 DUP2 MLOAD DUP2 LT PUSH2 0x297B JUMPI INVALID JUMPDEST PUSH1 0x20 MUL PUSH1 0x20 ADD ADD DUP2 DUP2 MSTORE POP POP PUSH2 0x2999 DUP4 PUSH2 0x2994 DUP4 PUSH2 0x2720 JUMP JUMPDEST PUSH2 0x3EFE JUMP JUMPDEST SWAP3 POP POP PUSH1 0x1 ADD PUSH2 0x2945 JUMP JUMPDEST PUSH1 0x1 PUSH1 0x1 PUSH1 0xA0 SHL SUB SWAP2 DUP3 AND PUSH1 0x0 SWAP1 DUP2 MSTORE PUSH1 0x4 PUSH1 0x20 SWAP1 DUP2 MSTORE PUSH1 0x40 DUP1 DUP4 KECCAK256 SWAP4 SWAP1 SWAP5 AND DUP3 MSTORE SWAP2 SWAP1 SWAP2 MSTORE KECCAK256 SLOAD PUSH1 0xFF AND SWAP1 JUMP JUMPDEST PUSH1 0x3 SLOAD PUSH1 0x40 MLOAD PUSH4 0x26F8AA21 PUSH1 0xE2 SHL DUP2 MSTORE PUSH1 0x0 SWAP2 PUSH2 0x100 SWAP1 DIV PUSH1 0x1 PUSH1 0x1 PUSH1 0xA0 SHL SUB AND SWAP1 PUSH4 0x9BE2A884 SWAP1 PUSH2 0x2A0C SWAP1 DUP7 SWAP1 DUP7 SWAP1 ADDRESS SWAP1 PUSH1 0x4 ADD PUSH2 0x5C7C JUMP JUMPDEST PUSH1 0x20 PUSH1 0x40 MLOAD DUP1 DUP4 SUB DUP2 DUP7 DUP1 EXTCODESIZE ISZERO DUP1 ISZERO PUSH2 0x2A24 JUMPI PUSH1 0x0 DUP1 REVERT JUMPDEST POP GAS STATICCALL ISZERO DUP1 ISZERO PUSH2 0x2A38 JUMPI RETURNDATASIZE PUSH1 0x0 DUP1 RETURNDATACOPY RETURNDATASIZE PUSH1 0x0 REVERT JUMPDEST POP POP POP POP PUSH1 0x40 MLOAD RETURNDATASIZE PUSH1 0x1F NOT PUSH1 0x1F DUP3 ADD AND DUP3 ADD DUP1 PUSH1 0x40 MSTORE POP DUP2 ADD SWAP1 PUSH2 0x169D SWAP2 SWAP1 PUSH2 0x53CF JUMP JUMPDEST PUSH1 0x0 DUP1 PUSH2 0x2A69 DUP7 DUP7 PUSH2 0x197B JUMP JUMPDEST SWAP1 POP PUSH2 0x2A82 DUP4 DUP1 PUSH2 0x2A7A JUMPI POP DUP5 DUP3 LT ISZERO JUMPDEST PUSH2 0x201 PUSH2 0x52B JUMP JUMPDEST PUSH2 0x2A8C DUP2 DUP6 PUSH2 0x3F15 JUMP JUMPDEST SWAP2 POP DUP2 DUP2 SUB PUSH2 0x2AA8 DUP8 DUP8 DUP4 PUSH2 0x2AA0 DUP8 PUSH2 0x388B JUMP JUMPDEST PUSH1 0x0 SUB PUSH2 0x3F24 JUMP JUMPDEST POP POP SWAP5 SWAP4 POP POP POP POP JUMP JUMPDEST PUSH1 0x0 PUSH2 0x2ABE DUP5 DUP5 PUSH2 0x197B JUMP JUMPDEST SWAP1 POP PUSH1 0x0 PUSH2 0x2ACC DUP3 DUP5 PUSH2 0x18BF JUMP JUMPDEST SWAP1 POP PUSH2 0x1CAB DUP6 DUP6 DUP4 PUSH2 0x2ADD DUP8 PUSH2 0x388B JUMP JUMPDEST PUSH2 0x3F24 JUMP JUMPDEST PUSH2 0xDC4 DUP5 PUSH4 0x23B872DD PUSH1 0xE0 SHL DUP6 DUP6 DUP6 PUSH1 0x40 MLOAD PUSH1 0x24 ADD PUSH2 0x1E3F SWAP4 SWAP3 SWAP2 SWAP1 PUSH2 0x5AC2 JUMP JUMPDEST PUSH2 0x2B12 DUP2 SELFBALANCE LT ISZERO PUSH2 0x1A3 PUSH2 0x52B JUMP JUMPDEST PUSH1 0x0 DUP3 PUSH1 0x1 PUSH1 0x1 PUSH1 0xA0 SHL SUB AND DUP3 PUSH1 0x40 MLOAD PUSH2 0x2B2B SWAP1 PUSH2 0x528 JUMP JUMPDEST PUSH1 0x0 PUSH1 0x40 MLOAD DUP1 DUP4 SUB DUP2 DUP6 DUP8 GAS CALL SWAP3 POP POP POP RETURNDATASIZE DUP1 PUSH1 0x0 DUP2 EQ PUSH2 0x2B68 JUMPI PUSH1 0x40 MLOAD SWAP2 POP PUSH1 0x1F NOT PUSH1 0x3F RETURNDATASIZE ADD AND DUP3 ADD PUSH1 0x40 MSTORE RETURNDATASIZE DUP3 MSTORE RETURNDATASIZE PUSH1 0x0 PUSH1 0x20 DUP5 ADD RETURNDATACOPY PUSH2 0x2B6D JUMP JUMPDEST PUSH1 0x60 SWAP2 POP JUMPDEST POP POP SWAP1 POP PUSH2 0xF64 DUP2 PUSH2 0x1A4 PUSH2 0x52B JUMP JUMPDEST PUSH1 0x1 PUSH1 0x1 PUSH1 0xA0 SHL SUB DUP3 AND PUSH1 0x0 SWAP1 DUP2 MSTORE PUSH1 0x2 PUSH1 0x20 MSTORE PUSH1 0x40 SWAP1 KECCAK256 DUP1 SLOAD PUSH1 0x1 DUP2 ADD SWAP1 SWAP2 SSTORE PUSH2 0xF64 PUSH2 0x2BAB DUP5 DUP4 PUSH2 0x3F7F JUMP JUMPDEST DUP4 PUSH2 0x52B JUMP JUMPDEST PUSH1 0x0 DUP1 PUSH1 0x0 DUP1 PUSH2 0x2BCE DUP7 PUSH1 0x80 ADD MLOAD DUP8 PUSH1 0x20 ADD MLOAD DUP9 PUSH1 0x40 ADD MLOAD PUSH2 0x3142 JUMP JUMPDEST SWAP3 POP SWAP3 POP SWAP3 POP PUSH1 0x0 DUP1 DUP8 PUSH1 0x40 ADD MLOAD PUSH1 0x1 PUSH1 0x1 PUSH1 0xA0 SHL SUB AND DUP9 PUSH1 0x20 ADD MLOAD PUSH1 0x1 PUSH1 0x1 PUSH1 0xA0 SHL SUB AND LT ISZERO PUSH2 0x2C03 JUMPI POP DUP4 SWAP1 POP DUP3 PUSH2 0x2C09 JUMP JUMPDEST POP DUP3 SWAP1 POP DUP4 JUMPDEST PUSH2 0x2C15 DUP9 DUP9 DUP5 DUP5 PUSH2 0x40A5 JUMP JUMPDEST PUSH1 0x40 DUP12 ADD MLOAD PUSH1 0x20 DUP13 ADD MLOAD SWAP2 SWAP10 POP SWAP3 SWAP5 POP SWAP1 SWAP3 POP PUSH1 0x1 PUSH1 0x1 PUSH1 0xA0 SHL SUB SWAP2 DUP3 AND SWAP2 AND LT PUSH2 0x2C49 JUMPI PUSH2 0x2C44 DUP2 DUP4 PUSH2 0x41A2 JUMP JUMPDEST PUSH2 0x2C53 JUMP JUMPDEST PUSH2 0x2C53 DUP3 DUP3 PUSH2 0x41A2 JUMP JUMPDEST SWAP1 SWAP3 SSTORE POP SWAP3 SWAP6 SWAP5 POP POP POP POP POP JUMP JUMPDEST PUSH1 0x0 DUP1 PUSH2 0x2C76 DUP5 PUSH1 0x80 ADD MLOAD DUP6 PUSH1 0x20 ADD MLOAD PUSH2 0x267F JUMP JUMPDEST SWAP1 POP PUSH1 0x0 PUSH2 0x2C8C DUP6 PUSH1 0x80 ADD MLOAD DUP7 PUSH1 0x40 ADD MLOAD PUSH2 0x267F JUMP JUMPDEST SWAP1 POP PUSH2 0x2C9A DUP6 DUP6 DUP5 DUP5 PUSH2 0x40A5 JUMP JUMPDEST PUSH1 0x80 DUP9 ADD DUP1 MLOAD PUSH1 0x0 SWAP1 DUP2 MSTORE PUSH1 0x7 PUSH1 0x20 DUP2 DUP2 MSTORE PUSH1 0x40 DUP1 DUP5 KECCAK256 DUP3 DUP15 ADD MLOAD PUSH1 0x1 PUSH1 0x1 PUSH1 0xA0 SHL SUB SWAP1 DUP2 AND DUP7 MSTORE SWAP1 DUP4 MSTORE DUP2 DUP6 KECCAK256 SWAP9 SWAP1 SWAP9 SSTORE SWAP4 MLOAD DUP4 MSTORE SWAP1 DUP2 MSTORE DUP3 DUP3 KECCAK256 SWAP11 DUP4 ADD MLOAD SWAP1 SWAP6 AND DUP2 MSTORE SWAP9 SWAP1 SWAP4 MSTORE SWAP2 SWAP1 SWAP7 KECCAK256 SWAP6 SWAP1 SWAP6 SSTORE POP SWAP3 SWAP4 SWAP3 POP POP POP JUMP JUMPDEST PUSH1 0x80 DUP3 ADD MLOAD PUSH1 0x0 SWAP1 DUP2 MSTORE PUSH1 0x1 PUSH1 0x20 SWAP1 DUP2 MSTORE PUSH1 0x40 DUP3 KECCAK256 SWAP1 DUP5 ADD MLOAD DUP3 SWAP2 DUP3 SWAP2 DUP3 SWAP1 PUSH2 0x2D1E SWAP1 DUP4 SWAP1 PUSH2 0x41DD JUMP JUMPDEST SWAP1 POP PUSH1 0x0 PUSH2 0x2D39 DUP9 PUSH1 0x40 ADD MLOAD DUP5 PUSH2 0x41DD SWAP1 SWAP2 SWAP1 PUSH4 0xFFFFFFFF AND JUMP JUMPDEST SWAP1 POP DUP2 ISZERO DUP1 PUSH2 0x2D46 JUMPI POP DUP1 ISZERO JUMPDEST ISZERO PUSH2 0x2D63 JUMPI PUSH2 0x2D58 DUP9 PUSH1 0x80 ADD MLOAD PUSH2 0x25E7 JUMP JUMPDEST PUSH2 0x2D63 PUSH2 0x209 PUSH2 0x16A6 JUMP JUMPDEST PUSH1 0x0 NOT SWAP2 DUP3 ADD SWAP2 ADD PUSH1 0x0 PUSH2 0x2D76 DUP5 PUSH2 0x41FC JUMP JUMPDEST SWAP1 POP PUSH1 0x0 DUP2 PUSH1 0x1 PUSH1 0x1 PUSH1 0x40 SHL SUB DUP2 GT DUP1 ISZERO PUSH2 0x2D90 JUMPI PUSH1 0x0 DUP1 REVERT JUMPDEST POP PUSH1 0x40 MLOAD SWAP1 DUP1 DUP3 MSTORE DUP1 PUSH1 0x20 MUL PUSH1 0x20 ADD DUP3 ADD PUSH1 0x40 MSTORE DUP1 ISZERO PUSH2 0x2DBA JUMPI DUP2 PUSH1 0x20 ADD PUSH1 0x20 DUP3 MUL DUP1 CALLDATASIZE DUP4 CALLDATACOPY ADD SWAP1 POP JUMPDEST POP PUSH1 0x0 PUSH1 0xA0 DUP13 ADD DUP2 SWAP1 MSTORE SWAP1 SWAP2 POP JUMPDEST DUP3 DUP2 LT ISZERO PUSH2 0x2E3A JUMPI PUSH1 0x0 PUSH2 0x2DDC DUP8 DUP4 PUSH2 0x4200 JUMP JUMPDEST SWAP1 POP PUSH2 0x2DE7 DUP2 PUSH2 0x3EE3 JUMP JUMPDEST DUP4 DUP4 DUP2 MLOAD DUP2 LT PUSH2 0x2DF3 JUMPI INVALID JUMPDEST PUSH1 0x20 MUL PUSH1 0x20 ADD ADD DUP2 DUP2 MSTORE POP POP PUSH2 0x2E10 DUP13 PUSH1 0xA0 ADD MLOAD PUSH2 0x2994 DUP4 PUSH2 0x2720 JUMP JUMPDEST PUSH1 0xA0 DUP14 ADD MSTORE DUP2 DUP7 EQ ISZERO PUSH2 0x2E25 JUMPI DUP1 SWAP9 POP PUSH2 0x2E31 JUMP JUMPDEST DUP5 DUP3 EQ ISZERO PUSH2 0x2E31 JUMPI DUP1 SWAP8 POP JUMPDEST POP PUSH1 0x1 ADD PUSH2 0x2DC8 JUMP JUMPDEST POP PUSH1 0x40 MLOAD PUSH3 0xF64AA5 PUSH1 0xE1 SHL DUP2 MSTORE PUSH1 0x1 PUSH1 0x1 PUSH1 0xA0 SHL SUB DUP11 AND SWAP1 PUSH4 0x1EC954A SWAP1 PUSH2 0x2E6C SWAP1 DUP14 SWAP1 DUP6 SWAP1 DUP10 SWAP1 DUP10 SWAP1 PUSH1 0x4 ADD PUSH2 0x5D8B JUMP JUMPDEST PUSH1 0x20 PUSH1 0x40 MLOAD DUP1 DUP4 SUB DUP2 PUSH1 0x0 DUP8 DUP1 EXTCODESIZE ISZERO DUP1 ISZERO PUSH2 0x2E86 JUMPI PUSH1 0x0 DUP1 REVERT JUMPDEST POP GAS CALL ISZERO DUP1 ISZERO PUSH2 0x2E9A JUMPI RETURNDATASIZE PUSH1 0x0 DUP1 RETURNDATACOPY RETURNDATASIZE PUSH1 0x0 REVERT JUMPDEST POP POP POP POP PUSH1 0x40 MLOAD RETURNDATASIZE PUSH1 0x1F NOT PUSH1 0x1F DUP3 ADD AND DUP3 ADD DUP1 PUSH1 0x40 MSTORE POP DUP2 ADD SWAP1 PUSH2 0x2EBE SWAP2 SWAP1 PUSH2 0x58C0 JUMP JUMPDEST SWAP8 POP PUSH1 0x0 DUP1 PUSH2 0x2ED6 DUP13 PUSH1 0x0 ADD MLOAD DUP14 PUSH1 0x60 ADD MLOAD DUP13 PUSH2 0x2F18 JUMP JUMPDEST SWAP1 SWAP3 POP SWAP1 POP PUSH2 0x2EE5 DUP10 DUP4 PUSH2 0x4216 JUMP JUMPDEST SWAP9 POP PUSH2 0x2EF1 DUP9 DUP3 PUSH2 0x4247 JUMP JUMPDEST SWAP8 POP PUSH2 0x2EFE DUP8 DUP8 DUP12 PUSH2 0x425D JUMP JUMPDEST PUSH2 0x2F09 DUP8 DUP7 DUP11 PUSH2 0x425D JUMP JUMPDEST POP POP POP POP POP POP POP POP POP SWAP3 SWAP2 POP POP JUMP JUMPDEST PUSH1 0x0 DUP1 DUP1 DUP6 PUSH1 0x1 DUP2 GT ISZERO PUSH2 0x2F28 JUMPI INVALID JUMPDEST EQ ISZERO PUSH2 0x2F38 JUMPI POP DUP3 SWAP1 POP DUP2 PUSH2 0x2F3E JUMP JUMPDEST POP DUP2 SWAP1 POP DUP3 JUMPDEST SWAP4 POP SWAP4 SWAP2 POP POP JUMP JUMPDEST PUSH1 0x0 DUP3 DUP3 MUL PUSH2 0x2F6A DUP5 ISZERO DUP1 PUSH2 0x2F63 JUMPI POP DUP4 DUP6 DUP4 DUP2 PUSH2 0x2F60 JUMPI INVALID JUMPDEST DIV EQ JUMPDEST PUSH1 0x3 PUSH2 0x52B JUMP JUMPDEST DUP1 PUSH2 0x2F79 JUMPI PUSH1 0x0 SWAP2 POP POP PUSH2 0x16A0 JUMP JUMPDEST PUSH8 0xDE0B6B3A7640000 PUSH1 0x0 NOT DUP3 ADD DIV PUSH1 0x1 ADD SWAP2 POP POP PUSH2 0x16A0 JUMP JUMPDEST PUSH1 0x0 DUP1 DUP4 PUSH1 0x1 PUSH1 0x1 PUSH1 0xA0 SHL SUB AND DUP4 PUSH1 0x40 MLOAD PUSH2 0x2FAE SWAP2 SWAP1 PUSH2 0x5A50 JUMP JUMPDEST PUSH1 0x0 PUSH1 0x40 MLOAD DUP1 DUP4 SUB DUP2 PUSH1 0x0 DUP7 GAS CALL SWAP2 POP POP RETURNDATASIZE DUP1 PUSH1 0x0 DUP2 EQ PUSH2 0x2FEB JUMPI PUSH1 0x40 MLOAD SWAP2 POP PUSH1 0x1F NOT PUSH1 0x3F RETURNDATASIZE ADD AND DUP3 ADD PUSH1 0x40 MSTORE RETURNDATASIZE DUP3 MSTORE RETURNDATASIZE PUSH1 0x0 PUSH1 0x20 DUP5 ADD RETURNDATACOPY PUSH2 0x2FF0 JUMP JUMPDEST PUSH1 0x60 SWAP2 POP JUMPDEST POP SWAP2 POP SWAP2 POP PUSH1 0x0 DUP3 EQ ISZERO PUSH2 0x3008 JUMPI RETURNDATASIZE PUSH1 0x0 DUP1 RETURNDATACOPY RETURNDATASIZE PUSH1 0x0 REVERT JUMPDEST PUSH2 0xDC4 DUP2 MLOAD PUSH1 0x0 EQ DUP1 PUSH2 0x302A JUMPI POP DUP2 DUP1 PUSH1 0x20 ADD SWAP1 MLOAD DUP2 ADD SWAP1 PUSH2 0x302A SWAP2 SWAP1 PUSH2 0x53CF JUMP JUMPDEST PUSH2 0x1A2 PUSH2 0x52B JUMP JUMPDEST PUSH1 0x0 PUSH2 0x303E DUP4 DUP4 PUSH2 0x398F JUMP JUMPDEST PUSH2 0x308D JUMPI POP DUP2 SLOAD PUSH1 0x1 DUP1 DUP3 ADD DUP5 SSTORE PUSH1 0x0 DUP5 DUP2 MSTORE PUSH1 0x20 DUP1 DUP3 KECCAK256 SWAP1 SWAP4 ADD DUP1 SLOAD PUSH1 0x1 PUSH1 0x1 PUSH1 0xA0 SHL SUB NOT AND PUSH1 0x1 PUSH1 0x1 PUSH1 0xA0 SHL SUB DUP7 AND SWAP1 DUP2 OR SWAP1 SWAP2 SSTORE DUP6 SLOAD SWAP1 DUP3 MSTORE DUP3 DUP7 ADD SWAP1 SWAP4 MSTORE PUSH1 0x40 SWAP1 KECCAK256 SWAP2 SWAP1 SWAP2 SSTORE PUSH2 0x16A0 JUMP JUMPDEST POP PUSH1 0x0 PUSH2 0x16A0 JUMP JUMPDEST PUSH1 0x1 PUSH1 0x1 PUSH1 0xA0 SHL SUB DUP3 AND PUSH1 0x0 SWAP1 DUP2 MSTORE PUSH1 0x2 DUP5 ADD PUSH1 0x20 MSTORE PUSH1 0x40 DUP2 KECCAK256 SLOAD DUP1 PUSH2 0x3122 JUMPI POP POP DUP3 SLOAD PUSH1 0x40 DUP1 MLOAD DUP1 DUP3 ADD DUP3 MSTORE PUSH1 0x1 PUSH1 0x1 PUSH1 0xA0 SHL SUB DUP6 DUP2 AND DUP1 DUP4 MSTORE PUSH1 0x20 DUP1 DUP5 ADD DUP8 DUP2 MSTORE PUSH1 0x0 DUP8 DUP2 MSTORE PUSH1 0x1 DUP1 DUP13 ADD DUP5 MSTORE DUP8 DUP3 KECCAK256 SWAP7 MLOAD DUP8 SLOAD PUSH1 0x1 PUSH1 0x1 PUSH1 0xA0 SHL SUB NOT AND SWAP7 AND SWAP6 SWAP1 SWAP6 OR DUP7 SSTORE SWAP1 MLOAD SWAP5 DUP5 ADD SWAP5 SWAP1 SWAP5 SSTORE SWAP5 DUP3 ADD DUP1 DUP10 SSTORE SWAP1 DUP4 MSTORE PUSH1 0x2 DUP9 ADD SWAP1 SWAP5 MSTORE SWAP2 SWAP1 KECCAK256 SWAP2 SWAP1 SWAP2 SSTORE PUSH2 0x17F0 JUMP JUMPDEST PUSH1 0x0 NOT ADD PUSH1 0x0 SWAP1 DUP2 MSTORE PUSH1 0x1 DUP1 DUP7 ADD PUSH1 0x20 MSTORE PUSH1 0x40 DUP3 KECCAK256 ADD DUP4 SWAP1 SSTORE SWAP1 POP PUSH2 0x17F0 JUMP JUMPDEST PUSH1 0x0 DUP1 PUSH1 0x0 DUP1 PUSH1 0x0 PUSH2 0x3154 DUP8 DUP8 PUSH2 0x4275 JUMP JUMPDEST SWAP2 POP SWAP2 POP PUSH1 0x0 PUSH2 0x3164 DUP4 DUP4 PUSH2 0x42A6 JUMP JUMPDEST PUSH1 0x0 DUP11 DUP2 MSTORE PUSH1 0x9 PUSH1 0x20 SWAP1 DUP2 MSTORE PUSH1 0x40 DUP1 DUP4 KECCAK256 DUP5 DUP5 MSTORE PUSH1 0x2 ADD SWAP1 SWAP2 MSTORE DUP2 KECCAK256 DUP1 SLOAD PUSH1 0x1 DUP3 ADD SLOAD SWAP2 SWAP8 POP SWAP3 SWAP4 POP SWAP1 PUSH2 0x3197 DUP4 PUSH2 0x397D JUMP JUMPDEST DUP1 PUSH2 0x31A6 JUMPI POP PUSH2 0x31A6 DUP3 PUSH2 0x397D JUMP JUMPDEST DUP1 PUSH2 0x31C7 JUMPI POP PUSH2 0x31B6 DUP13 DUP8 PUSH2 0x39B0 JUMP JUMPDEST DUP1 ISZERO PUSH2 0x31C7 JUMPI POP PUSH2 0x31C7 DUP13 DUP7 PUSH2 0x39B0 JUMP JUMPDEST SWAP1 POP DUP1 PUSH2 0x31E2 JUMPI PUSH2 0x31D7 DUP13 PUSH2 0x25E7 JUMP JUMPDEST PUSH2 0x31E2 PUSH2 0x209 PUSH2 0x16A6 JUMP JUMPDEST PUSH2 0x31EC DUP4 DUP4 PUSH2 0x42D9 JUMP JUMPDEST SWAP9 POP PUSH2 0x31F8 DUP4 DUP4 PUSH2 0x42FE JUMP JUMPDEST SWAP8 POP POP POP POP POP POP POP SWAP4 POP SWAP4 POP SWAP4 SWAP1 POP JUMP JUMPDEST PUSH1 0x1 PUSH1 0x1 PUSH1 0xE0 SHL SUB AND ISZERO SWAP1 JUMP JUMPDEST PUSH1 0x1 PUSH1 0x1 PUSH1 0xA0 SHL SUB DUP2 AND PUSH1 0x0 SWAP1 DUP2 MSTORE PUSH1 0x1 DUP4 ADD PUSH1 0x20 MSTORE PUSH1 0x40 DUP2 KECCAK256 SLOAD DUP1 ISZERO PUSH2 0x3313 JUMPI DUP4 SLOAD PUSH1 0x0 NOT DUP1 DUP4 ADD SWAP2 SWAP1 DUP2 ADD SWAP1 PUSH1 0x0 SWAP1 DUP8 SWAP1 DUP4 SWAP1 DUP2 LT PUSH2 0x3253 JUMPI INVALID JUMPDEST PUSH1 0x0 SWAP2 DUP3 MSTORE PUSH1 0x20 SWAP1 SWAP2 KECCAK256 ADD SLOAD DUP8 SLOAD PUSH1 0x1 PUSH1 0x1 PUSH1 0xA0 SHL SUB SWAP1 SWAP2 AND SWAP2 POP DUP2 SWAP1 DUP9 SWAP1 DUP6 SWAP1 DUP2 LT PUSH2 0x327C JUMPI INVALID JUMPDEST PUSH1 0x0 SWAP2 DUP3 MSTORE PUSH1 0x20 DUP1 DUP4 KECCAK256 SWAP2 SWAP1 SWAP2 ADD DUP1 SLOAD PUSH1 0x1 PUSH1 0x1 PUSH1 0xA0 SHL SUB NOT AND PUSH1 0x1 PUSH1 0x1 PUSH1 0xA0 SHL SUB SWAP5 DUP6 AND OR SWAP1 SSTORE SWAP2 DUP4 AND DUP2 MSTORE PUSH1 0x1 DUP10 DUP2 ADD SWAP1 SWAP3 MSTORE PUSH1 0x40 SWAP1 KECCAK256 SWAP1 DUP5 ADD SWAP1 SSTORE DUP7 SLOAD DUP8 SWAP1 DUP1 PUSH2 0x32C5 JUMPI INVALID JUMPDEST PUSH1 0x0 DUP3 DUP2 MSTORE PUSH1 0x20 DUP1 DUP3 KECCAK256 DUP4 ADD PUSH1 0x0 NOT SWAP1 DUP2 ADD DUP1 SLOAD PUSH1 0x1 PUSH1 0x1 PUSH1 0xA0 SHL SUB NOT AND SWAP1 SSTORE SWAP1 SWAP3 ADD SWAP1 SWAP3 SSTORE PUSH1 0x1 PUSH1 0x1 PUSH1 0xA0 SHL SUB DUP9 AND DUP3 MSTORE PUSH1 0x1 DUP10 DUP2 ADD SWAP1 SWAP2 MSTORE PUSH1 0x40 DUP3 KECCAK256 SWAP2 SWAP1 SWAP2 SSTORE SWAP5 POP PUSH2 0x16A0 SWAP4 POP POP POP POP JUMP JUMPDEST PUSH1 0x0 SWAP2 POP POP PUSH2 0x16A0 JUMP JUMPDEST PUSH1 0x0 PUSH2 0x169D DUP4 DUP4 PUSH2 0x209 PUSH2 0x4315 JUMP JUMPDEST PUSH1 0x1 PUSH1 0x1 PUSH1 0xA0 SHL SUB DUP2 AND PUSH1 0x0 SWAP1 DUP2 MSTORE PUSH1 0x2 DUP4 ADD PUSH1 0x20 MSTORE PUSH1 0x40 DUP2 KECCAK256 SLOAD DUP1 ISZERO PUSH2 0x3313 JUMPI DUP4 SLOAD PUSH1 0x0 NOT SWAP1 DUP2 ADD PUSH1 0x0 DUP2 DUP2 MSTORE PUSH1 0x1 DUP8 DUP2 ADD PUSH1 0x20 SWAP1 DUP2 MSTORE PUSH1 0x40 DUP1 DUP5 KECCAK256 SWAP6 DUP8 ADD DUP5 MSTORE DUP1 DUP5 KECCAK256 DUP7 SLOAD DUP2 SLOAD PUSH1 0x1 PUSH1 0x1 PUSH1 0xA0 SHL SUB NOT SWAP1 DUP2 AND PUSH1 0x1 PUSH1 0x1 PUSH1 0xA0 SHL SUB SWAP3 DUP4 AND OR DUP4 SSTORE DUP9 DUP7 ADD DUP1 SLOAD SWAP4 DUP8 ADD SWAP4 SWAP1 SWAP4 SSTORE DUP9 SLOAD DUP3 AND DUP8 MSTORE PUSH1 0x2 DUP14 ADD DUP1 DUP7 MSTORE DUP5 DUP9 KECCAK256 SWAP11 SWAP1 SWAP11 SSTORE DUP9 SLOAD AND SWAP1 SWAP8 SSTORE DUP5 SWAP1 SSTORE SWAP4 DUP10 SSTORE SWAP4 DUP8 AND DUP3 MSTORE SWAP4 SWAP1 SWAP3 MSTORE DUP2 KECCAK256 SSTORE SWAP1 POP PUSH2 0x16A0 JUMP JUMPDEST PUSH1 0x60 PUSH1 0x0 DUP3 MLOAD PUSH1 0x1 PUSH1 0x1 PUSH1 0x40 SHL SUB DUP2 GT DUP1 ISZERO PUSH2 0x33E9 JUMPI PUSH1 0x0 DUP1 REVERT JUMPDEST POP PUSH1 0x40 MLOAD SWAP1 DUP1 DUP3 MSTORE DUP1 PUSH1 0x20 MUL PUSH1 0x20 ADD DUP3 ADD PUSH1 0x40 MSTORE DUP1 ISZERO PUSH2 0x3413 JUMPI DUP2 PUSH1 0x20 ADD PUSH1 0x20 DUP3 MUL DUP1 CALLDATASIZE DUP4 CALLDATACOPY ADD SWAP1 POP JUMPDEST POP SWAP1 POP PUSH1 0x0 JUMPDEST DUP4 MLOAD DUP2 LT ISZERO PUSH2 0x7DE JUMPI PUSH2 0x3431 DUP5 DUP3 DUP2 MLOAD DUP2 LT PUSH2 0x2410 JUMPI INVALID JUMPDEST DUP3 DUP3 DUP2 MLOAD DUP2 LT PUSH2 0x343D JUMPI INVALID JUMPDEST PUSH1 0x1 PUSH1 0x1 PUSH1 0xA0 SHL SUB SWAP1 SWAP3 AND PUSH1 0x20 SWAP3 DUP4 MUL SWAP2 SWAP1 SWAP2 ADD SWAP1 SWAP2 ADD MSTORE PUSH1 0x1 ADD PUSH2 0x3419 JUMP JUMPDEST PUSH1 0x60 PUSH1 0x0 DUP1 PUSH2 0x346B DUP6 PUSH2 0x2894 JUMP JUMPDEST SWAP2 POP SWAP2 POP PUSH2 0x347B DUP3 MLOAD DUP6 MLOAD PUSH2 0x1D8C JUMP JUMPDEST PUSH2 0x348B PUSH1 0x0 DUP4 MLOAD GT PUSH2 0x20F PUSH2 0x52B JUMP JUMPDEST PUSH1 0x0 JUMPDEST DUP3 MLOAD DUP2 LT ISZERO PUSH2 0x34E5 JUMPI PUSH2 0x34DD DUP6 DUP3 DUP2 MLOAD DUP2 LT PUSH2 0x34A6 JUMPI INVALID JUMPDEST PUSH1 0x20 MUL PUSH1 0x20 ADD ADD MLOAD PUSH1 0x1 PUSH1 0x1 PUSH1 0xA0 SHL SUB AND DUP5 DUP4 DUP2 MLOAD DUP2 LT PUSH2 0x34C3 JUMPI INVALID JUMPDEST PUSH1 0x20 MUL PUSH1 0x20 ADD ADD MLOAD PUSH1 0x1 PUSH1 0x1 PUSH1 0xA0 SHL SUB AND EQ PUSH2 0x208 PUSH2 0x52B JUMP JUMPDEST PUSH1 0x1 ADD PUSH2 0x348E JUMP JUMPDEST POP SWAP5 SWAP4 POP POP POP POP JUMP JUMPDEST PUSH1 0x60 DUP1 PUSH1 0x60 PUSH1 0x0 DUP1 PUSH2 0x34FF DUP7 PUSH2 0x28F6 JUMP JUMPDEST SWAP2 POP SWAP2 POP PUSH1 0x0 PUSH2 0x350E DUP12 PUSH2 0x288E JUMP JUMPDEST SWAP1 POP PUSH1 0x0 DUP13 PUSH1 0x1 DUP2 GT ISZERO PUSH2 0x351E JUMPI INVALID JUMPDEST EQ PUSH2 0x35C1 JUMPI DUP1 PUSH1 0x1 PUSH1 0x1 PUSH1 0xA0 SHL SUB AND PUSH4 0x74F3B009 DUP13 DUP13 DUP13 DUP8 DUP8 PUSH2 0x353F PUSH2 0x4352 JUMP JUMPDEST DUP16 PUSH1 0x40 ADD MLOAD PUSH1 0x40 MLOAD DUP9 PUSH4 0xFFFFFFFF AND PUSH1 0xE0 SHL DUP2 MSTORE PUSH1 0x4 ADD PUSH2 0x3566 SWAP8 SWAP7 SWAP6 SWAP5 SWAP4 SWAP3 SWAP2 SWAP1 PUSH2 0x5C9B JUMP JUMPDEST PUSH1 0x0 PUSH1 0x40 MLOAD DUP1 DUP4 SUB DUP2 PUSH1 0x0 DUP8 DUP1 EXTCODESIZE ISZERO DUP1 ISZERO PUSH2 0x3580 JUMPI PUSH1 0x0 DUP1 REVERT JUMPDEST POP GAS CALL ISZERO DUP1 ISZERO PUSH2 0x3594 JUMPI RETURNDATASIZE PUSH1 0x0 DUP1 RETURNDATACOPY RETURNDATASIZE PUSH1 0x0 REVERT JUMPDEST POP POP POP POP PUSH1 0x40 MLOAD RETURNDATASIZE PUSH1 0x0 DUP3 RETURNDATACOPY PUSH1 0x1F RETURNDATASIZE SWAP1 DUP2 ADD PUSH1 0x1F NOT AND DUP3 ADD PUSH1 0x40 MSTORE PUSH2 0x35BC SWAP2 SWAP1 DUP2 ADD SWAP1 PUSH2 0x535D JUMP JUMPDEST PUSH2 0x365A JUMP JUMPDEST DUP1 PUSH1 0x1 PUSH1 0x1 PUSH1 0xA0 SHL SUB AND PUSH4 0xD5C096C4 DUP13 DUP13 DUP13 DUP8 DUP8 PUSH2 0x35DD PUSH2 0x4352 JUMP JUMPDEST DUP16 PUSH1 0x40 ADD MLOAD PUSH1 0x40 MLOAD DUP9 PUSH4 0xFFFFFFFF AND PUSH1 0xE0 SHL DUP2 MSTORE PUSH1 0x4 ADD PUSH2 0x3604 SWAP8 SWAP7 SWAP6 SWAP5 SWAP4 SWAP3 SWAP2 SWAP1 PUSH2 0x5C9B JUMP JUMPDEST PUSH1 0x0 PUSH1 0x40 MLOAD DUP1 DUP4 SUB DUP2 PUSH1 0x0 DUP8 DUP1 EXTCODESIZE ISZERO DUP1 ISZERO PUSH2 0x361E JUMPI PUSH1 0x0 DUP1 REVERT JUMPDEST POP GAS CALL ISZERO DUP1 ISZERO PUSH2 0x3632 JUMPI RETURNDATASIZE PUSH1 0x0 DUP1 RETURNDATACOPY RETURNDATASIZE PUSH1 0x0 REVERT JUMPDEST POP POP POP POP PUSH1 0x40 MLOAD RETURNDATASIZE PUSH1 0x0 DUP3 RETURNDATACOPY PUSH1 0x1F RETURNDATASIZE SWAP1 DUP2 ADD PUSH1 0x1F NOT AND DUP3 ADD PUSH1 0x40 MSTORE PUSH2 0x365A SWAP2 SWAP1 DUP2 ADD SWAP1 PUSH2 0x535D JUMP JUMPDEST DUP1 SWAP6 POP DUP2 SWAP7 POP POP POP PUSH2 0x3670 DUP8 MLOAD DUP7 MLOAD DUP7 MLOAD PUSH2 0x43CC JUMP JUMPDEST PUSH1 0x0 DUP13 PUSH1 0x1 DUP2 GT ISZERO PUSH2 0x367E JUMPI INVALID JUMPDEST EQ PUSH2 0x3695 JUMPI PUSH2 0x3690 DUP10 DUP10 DUP10 DUP9 DUP9 PUSH2 0x43E4 JUMP JUMPDEST PUSH2 0x36A2 JUMP JUMPDEST PUSH2 0x36A2 DUP11 DUP10 DUP10 DUP9 DUP9 PUSH2 0x452A JUMP JUMPDEST SWAP6 POP POP POP POP SWAP7 POP SWAP7 POP SWAP7 SWAP4 POP POP POP POP JUMP JUMPDEST PUSH1 0x0 PUSH2 0x36BF DUP6 DUP5 PUSH2 0x42A6 JUMP JUMPDEST PUSH1 0x0 DUP8 DUP2 MSTORE PUSH1 0x9 PUSH1 0x20 SWAP1 DUP2 MSTORE PUSH1 0x40 DUP1 DUP4 KECCAK256 DUP5 DUP5 MSTORE PUSH1 0x2 ADD SWAP1 SWAP2 MSTORE SWAP1 KECCAK256 SWAP1 SWAP2 POP PUSH2 0x36E8 DUP6 DUP5 PUSH2 0x41A2 JUMP JUMPDEST SWAP1 SSTORE POP POP POP POP POP POP JUMP JUMPDEST PUSH1 0x0 JUMPDEST DUP3 MLOAD DUP2 LT ISZERO PUSH2 0xDC4 JUMPI DUP2 DUP2 DUP2 MLOAD DUP2 LT PUSH2 0x370A JUMPI INVALID JUMPDEST PUSH1 0x20 MUL PUSH1 0x20 ADD ADD MLOAD PUSH1 0x7 PUSH1 0x0 DUP7 DUP2 MSTORE PUSH1 0x20 ADD SWAP1 DUP2 MSTORE PUSH1 0x20 ADD PUSH1 0x0 KECCAK256 PUSH1 0x0 DUP6 DUP5 DUP2 MLOAD DUP2 LT PUSH2 0x3733 JUMPI INVALID JUMPDEST PUSH1 0x20 SWAP1 DUP2 MUL SWAP2 SWAP1 SWAP2 ADD DUP2 ADD MLOAD PUSH1 0x1 PUSH1 0x1 PUSH1 0xA0 SHL SUB AND DUP3 MSTORE DUP2 ADD SWAP2 SWAP1 SWAP2 MSTORE PUSH1 0x40 ADD PUSH1 0x0 KECCAK256 SSTORE PUSH1 0x1 ADD PUSH2 0x36F5 JUMP JUMPDEST PUSH1 0x0 DUP3 DUP2 MSTORE PUSH1 0x1 PUSH1 0x20 MSTORE PUSH1 0x40 DUP2 KECCAK256 SWAP1 JUMPDEST DUP3 MLOAD DUP2 LT ISZERO PUSH2 0xDC4 JUMPI PUSH2 0x37A0 DUP2 DUP5 DUP4 DUP2 MLOAD DUP2 LT PUSH2 0x3788 JUMPI INVALID JUMPDEST PUSH1 0x20 MUL PUSH1 0x20 ADD ADD MLOAD DUP5 PUSH2 0x425D SWAP1 SWAP3 SWAP2 SWAP1 PUSH4 0xFFFFFFFF AND JUMP JUMPDEST PUSH1 0x1 ADD PUSH2 0x376F JUMP JUMPDEST PUSH1 0x60 DUP3 MLOAD PUSH1 0x1 PUSH1 0x1 PUSH1 0x40 SHL SUB DUP2 GT DUP1 ISZERO PUSH2 0x37C1 JUMPI PUSH1 0x0 DUP1 REVERT JUMPDEST POP PUSH1 0x40 MLOAD SWAP1 DUP1 DUP3 MSTORE DUP1 PUSH1 0x20 MUL PUSH1 0x20 ADD DUP3 ADD PUSH1 0x40 MSTORE DUP1 ISZERO PUSH2 0x37EB JUMPI DUP2 PUSH1 0x20 ADD PUSH1 0x20 DUP3 MUL DUP1 CALLDATASIZE DUP4 CALLDATACOPY ADD SWAP1 POP JUMPDEST POP SWAP1 POP PUSH1 0x0 JUMPDEST DUP4 MLOAD DUP2 LT ISZERO PUSH2 0x7DE JUMPI DUP3 PUSH2 0x381B JUMPI DUP4 DUP2 DUP2 MLOAD DUP2 LT PUSH2 0x380B JUMPI INVALID JUMPDEST PUSH1 0x20 MUL PUSH1 0x20 ADD ADD MLOAD PUSH1 0x0 SUB PUSH2 0x3830 JUMP JUMPDEST DUP4 DUP2 DUP2 MLOAD DUP2 LT PUSH2 0x3827 JUMPI INVALID JUMPDEST PUSH1 0x20 MUL PUSH1 0x20 ADD ADD MLOAD JUMPDEST DUP3 DUP3 DUP2 MLOAD DUP2 LT PUSH2 0x383C JUMPI INVALID JUMPDEST PUSH1 0x20 SWAP1 DUP2 MUL SWAP2 SWAP1 SWAP2 ADD ADD MSTORE PUSH1 0x1 ADD PUSH2 0x37F1 JUMP JUMPDEST PUSH1 0x0 DUP1 DUP5 PUSH1 0x1 DUP2 GT ISZERO PUSH2 0x385E JUMPI INVALID JUMPDEST EQ PUSH2 0x3869 JUMPI DUP2 PUSH2 0x9C0 JUMP JUMPDEST POP SWAP1 SWAP3 SWAP2 POP POP JUMP JUMPDEST PUSH1 0x0 DUP1 DUP5 PUSH1 0x1 DUP2 GT ISZERO PUSH2 0x3880 JUMPI INVALID JUMPDEST EQ PUSH2 0x7DE JUMPI DUP3 PUSH2 0x9C0 JUMP JUMPDEST PUSH1 0x0 PUSH2 0x21CF PUSH1 0x1 PUSH1 0xFF SHL DUP4 LT PUSH2 0x1A5 PUSH2 0x52B JUMP JUMPDEST PUSH1 0x0 DUP3 DUP3 ADD PUSH2 0x169D DUP3 DUP5 SLT DUP1 ISZERO SWAP1 PUSH2 0x38B7 JUMPI POP DUP5 DUP3 SLT ISZERO JUMPDEST DUP1 PUSH2 0x38CC JUMPI POP PUSH1 0x0 DUP5 SLT DUP1 ISZERO PUSH2 0x38CC JUMPI POP DUP5 DUP3 SLT JUMPDEST PUSH1 0x0 PUSH2 0x52B JUMP JUMPDEST PUSH1 0x0 DUP2 DUP4 SUB PUSH2 0x169D DUP3 DUP5 SLT DUP1 ISZERO SWAP1 PUSH2 0x38EB JUMPI POP DUP5 DUP3 SGT ISZERO JUMPDEST DUP1 PUSH2 0x3900 JUMPI POP PUSH1 0x0 DUP5 SLT DUP1 ISZERO PUSH2 0x3900 JUMPI POP DUP5 DUP3 SGT JUMPDEST PUSH1 0x1 PUSH2 0x52B JUMP JUMPDEST PUSH1 0x0 DUP2 DUP2 MSTORE PUSH1 0x9 PUSH1 0x20 MSTORE PUSH1 0x40 DUP2 KECCAK256 DUP1 SLOAD PUSH1 0x1 DUP3 ADD SLOAD PUSH1 0x1 PUSH1 0x1 PUSH1 0xA0 SHL SUB SWAP2 DUP3 AND SWAP3 DUP5 SWAP3 SWAP1 SWAP2 AND SWAP1 DUP3 SWAP1 DUP2 PUSH2 0x393B DUP7 DUP6 PUSH2 0x42A6 JUMP JUMPDEST PUSH1 0x0 DUP2 DUP2 MSTORE PUSH1 0x2 DUP5 ADD PUSH1 0x20 MSTORE PUSH1 0x40 SWAP1 KECCAK256 DUP1 SLOAD PUSH1 0x1 DUP3 ADD SLOAD SWAP2 SWAP10 POP SWAP2 SWAP3 POP PUSH2 0x3962 DUP3 DUP3 PUSH2 0x42D9 JUMP JUMPDEST SWAP7 POP PUSH2 0x396E DUP3 DUP3 PUSH2 0x42FE JUMP JUMPDEST SWAP5 POP POP POP POP POP SWAP2 SWAP4 SWAP6 SWAP1 SWAP3 SWAP5 POP JUMP JUMPDEST PUSH1 0x0 PUSH2 0x3988 DUP3 PUSH2 0x3209 JUMP JUMPDEST ISZERO SWAP3 SWAP2 POP POP JUMP JUMPDEST PUSH1 0x1 PUSH1 0x1 PUSH1 0xA0 SHL SUB AND PUSH1 0x0 SWAP1 DUP2 MSTORE PUSH1 0x1 SWAP2 SWAP1 SWAP2 ADD PUSH1 0x20 MSTORE PUSH1 0x40 SWAP1 KECCAK256 SLOAD ISZERO ISZERO SWAP1 JUMP JUMPDEST PUSH1 0x0 DUP3 DUP2 MSTORE PUSH1 0x9 PUSH1 0x20 MSTORE PUSH1 0x40 DUP2 KECCAK256 DUP1 SLOAD PUSH1 0x1 PUSH1 0x1 PUSH1 0xA0 SHL SUB DUP5 DUP2 AND SWAP2 AND EQ DUP1 PUSH2 0x39E8 JUMPI POP PUSH1 0x1 DUP2 ADD SLOAD PUSH1 0x1 PUSH1 0x1 PUSH1 0xA0 SHL SUB DUP5 DUP2 AND SWAP2 AND EQ JUMPDEST DUP1 ISZERO PUSH2 0x9C0 JUMPI POP POP POP PUSH1 0x1 PUSH1 0x1 PUSH1 0xA0 SHL SUB AND ISZERO ISZERO SWAP2 SWAP1 POP JUMP JUMPDEST PUSH1 0x0 DUP3 DUP2 MSTORE PUSH1 0x8 PUSH1 0x20 MSTORE PUSH1 0x40 DUP2 KECCAK256 PUSH2 0x9C0 DUP2 DUP5 PUSH2 0x398F JUMP JUMPDEST PUSH1 0x0 DUP3 DUP2 MSTORE PUSH1 0x1 PUSH1 0x20 MSTORE PUSH1 0x40 DUP2 KECCAK256 PUSH2 0x9C0 DUP2 DUP5 PUSH2 0x469F JUMP JUMPDEST PUSH1 0x0 DUP1 PUSH1 0x2 DUP6 PUSH1 0x2 DUP2 GT ISZERO PUSH2 0x3A42 JUMPI INVALID JUMPDEST EQ ISZERO PUSH2 0x3A58 JUMPI PUSH2 0x3A53 DUP7 DUP6 DUP6 PUSH2 0x46C0 JUMP JUMPDEST PUSH2 0x3A82 JUMP JUMPDEST PUSH1 0x1 DUP6 PUSH1 0x2 DUP2 GT ISZERO PUSH2 0x3A66 JUMPI INVALID JUMPDEST EQ ISZERO PUSH2 0x3A77 JUMPI PUSH2 0x3A53 DUP7 DUP6 DUP6 PUSH2 0x46CE JUMP JUMPDEST PUSH2 0x3A82 DUP7 DUP6 DUP6 PUSH2 0x46DC JUMP JUMPDEST DUP3 ISZERO PUSH2 0x3A9C JUMPI PUSH2 0x3A9C PUSH1 0x1 PUSH1 0x1 PUSH1 0xA0 SHL SUB DUP6 AND CALLER DUP6 PUSH2 0x1E20 JUMP JUMPDEST POP POP PUSH1 0x0 DUP2 SWAP1 SUB SWAP5 SWAP1 SWAP4 POP SWAP2 POP POP JUMP JUMPDEST PUSH1 0x0 DUP1 PUSH1 0x2 DUP6 PUSH1 0x2 DUP2 GT ISZERO PUSH2 0x3ABD JUMPI INVALID JUMPDEST EQ ISZERO PUSH2 0x3AD3 JUMPI PUSH2 0x3ACE DUP7 DUP6 DUP6 PUSH2 0x46EA JUMP JUMPDEST PUSH2 0x3AFD JUMP JUMPDEST PUSH1 0x1 DUP6 PUSH1 0x2 DUP2 GT ISZERO PUSH2 0x3AE1 JUMPI INVALID JUMPDEST EQ ISZERO PUSH2 0x3AF2 JUMPI PUSH2 0x3ACE DUP7 DUP6 DUP6 PUSH2 0x46F8 JUMP JUMPDEST PUSH2 0x3AFD DUP7 DUP6 DUP6 PUSH2 0x4706 JUMP JUMPDEST DUP3 ISZERO PUSH2 0x3B18 JUMPI PUSH2 0x3B18 PUSH1 0x1 PUSH1 0x1 PUSH1 0xA0 SHL SUB DUP6 AND CALLER ADDRESS DUP7 PUSH2 0x2AE2 JUMP JUMPDEST POP SWAP1 SWAP5 PUSH1 0x0 DUP7 SWAP1 SUB SWAP5 POP SWAP3 POP POP POP JUMP JUMPDEST PUSH1 0x0 DUP1 PUSH1 0x2 DUP6 PUSH1 0x2 DUP2 GT ISZERO PUSH2 0x3B39 JUMPI INVALID JUMPDEST EQ ISZERO PUSH2 0x3B51 JUMPI PUSH2 0x3B4A DUP7 DUP6 DUP6 PUSH2 0x4714 JUMP JUMPDEST SWAP1 POP PUSH2 0x3B7E JUMP JUMPDEST PUSH1 0x1 DUP6 PUSH1 0x2 DUP2 GT ISZERO PUSH2 0x3B5F JUMPI INVALID JUMPDEST EQ ISZERO PUSH2 0x3B70 JUMPI PUSH2 0x3B4A DUP7 DUP6 DUP6 PUSH2 0x4724 JUMP JUMPDEST PUSH2 0x3B7B DUP7 DUP6 DUP6 PUSH2 0x4734 JUMP JUMPDEST SWAP1 POP JUMPDEST PUSH1 0x0 SWAP2 POP SWAP5 POP SWAP5 SWAP3 POP POP POP JUMP JUMPDEST CHAINID SWAP1 JUMP JUMPDEST PUSH1 0x60 DUP1 PUSH1 0x0 DUP1 PUSH1 0x0 DUP1 PUSH2 0x3BA1 DUP8 PUSH2 0x3907 JUMP JUMPDEST SWAP3 SWAP8 POP SWAP1 SWAP6 POP SWAP4 POP SWAP2 POP POP PUSH1 0x1 PUSH1 0x1 PUSH1 0xA0 SHL SUB DUP5 AND ISZERO DUP1 PUSH2 0x3BC9 JUMPI POP PUSH1 0x1 PUSH1 0x1 PUSH1 0xA0 SHL SUB DUP3 AND ISZERO JUMPDEST ISZERO PUSH2 0x3BF2 JUMPI POP POP PUSH1 0x40 DUP1 MLOAD PUSH1 0x0 DUP1 DUP3 MSTORE PUSH1 0x20 DUP3 ADD SWAP1 DUP2 MSTORE DUP2 DUP4 ADD SWAP1 SWAP3 MSTORE SWAP5 POP SWAP3 POP PUSH2 0x28F1 SWAP2 POP POP JUMP JUMPDEST PUSH1 0x40 DUP1 MLOAD PUSH1 0x2 DUP1 DUP3 MSTORE PUSH1 0x60 DUP3 ADD DUP4 MSTORE SWAP1 SWAP2 PUSH1 0x20 DUP4 ADD SWAP1 DUP1 CALLDATASIZE DUP4 CALLDATACOPY ADD SWAP1 POP POP SWAP6 POP DUP4 DUP7 PUSH1 0x0 DUP2 MLOAD DUP2 LT PUSH2 0x3C20 JUMPI INVALID JUMPDEST PUSH1 0x20 MUL PUSH1 0x20 ADD ADD SWAP1 PUSH1 0x1 PUSH1 0x1 PUSH1 0xA0 SHL SUB AND SWAP1 DUP2 PUSH1 0x1 PUSH1 0x1 PUSH1 0xA0 SHL SUB AND DUP2 MSTORE POP POP DUP2 DUP7 PUSH1 0x1 DUP2 MLOAD DUP2 LT PUSH2 0x3C4E JUMPI INVALID JUMPDEST PUSH1 0x1 PUSH1 0x1 PUSH1 0xA0 SHL SUB SWAP3 SWAP1 SWAP3 AND PUSH1 0x20 SWAP3 DUP4 MUL SWAP2 SWAP1 SWAP2 ADD DUP3 ADD MSTORE PUSH1 0x40 DUP1 MLOAD PUSH1 0x2 DUP1 DUP3 MSTORE PUSH1 0x60 DUP3 ADD DUP4 MSTORE SWAP1 SWAP3 SWAP1 SWAP2 SWAP1 DUP4 ADD SWAP1 DUP1 CALLDATASIZE DUP4 CALLDATACOPY ADD SWAP1 POP POP SWAP5 POP DUP3 DUP6 PUSH1 0x0 DUP2 MLOAD DUP2 LT PUSH2 0x3C95 JUMPI INVALID JUMPDEST PUSH1 0x20 MUL PUSH1 0x20 ADD ADD DUP2 DUP2 MSTORE POP POP DUP1 DUP6 PUSH1 0x1 DUP2 MLOAD DUP2 LT PUSH2 0x3CAF JUMPI INVALID JUMPDEST PUSH1 0x20 MUL PUSH1 0x20 ADD ADD DUP2 DUP2 MSTORE POP POP POP POP POP POP SWAP2 POP SWAP2 JUMP JUMPDEST PUSH1 0x0 DUP2 DUP2 MSTORE PUSH1 0x8 PUSH1 0x20 MSTORE PUSH1 0x40 SWAP1 KECCAK256 PUSH1 0x60 SWAP1 DUP2 SWAP1 PUSH2 0x3CE0 DUP2 PUSH2 0x41FC JUMP JUMPDEST PUSH1 0x1 PUSH1 0x1 PUSH1 0x40 SHL SUB DUP2 GT DUP1 ISZERO PUSH2 0x3CF5 JUMPI PUSH1 0x0 DUP1 REVERT JUMPDEST POP PUSH1 0x40 MLOAD SWAP1 DUP1 DUP3 MSTORE DUP1 PUSH1 0x20 MUL PUSH1 0x20 ADD DUP3 ADD PUSH1 0x40 MSTORE DUP1 ISZERO PUSH2 0x3D1F JUMPI DUP2 PUSH1 0x20 ADD PUSH1 0x20 DUP3 MUL DUP1 CALLDATASIZE DUP4 CALLDATACOPY ADD SWAP1 POP JUMPDEST POP SWAP3 POP DUP3 MLOAD PUSH1 0x1 PUSH1 0x1 PUSH1 0x40 SHL SUB DUP2 GT DUP1 ISZERO PUSH2 0x3D39 JUMPI PUSH1 0x0 DUP1 REVERT JUMPDEST POP PUSH1 0x40 MLOAD SWAP1 DUP1 DUP3 MSTORE DUP1 PUSH1 0x20 MUL PUSH1 0x20 ADD DUP3 ADD PUSH1 0x40 MSTORE DUP1 ISZERO PUSH2 0x3D63 JUMPI DUP2 PUSH1 0x20 ADD PUSH1 0x20 DUP3 MUL DUP1 CALLDATASIZE DUP4 CALLDATACOPY ADD SWAP1 POP JUMPDEST POP SWAP2 POP PUSH1 0x0 JUMPDEST DUP4 MLOAD DUP2 LT ISZERO PUSH2 0x3DE2 JUMPI PUSH1 0x0 PUSH2 0x3D7E DUP4 DUP4 PUSH2 0x4744 JUMP JUMPDEST SWAP1 POP DUP1 DUP6 DUP4 DUP2 MLOAD DUP2 LT PUSH2 0x3D8D JUMPI INVALID JUMPDEST PUSH1 0x1 PUSH1 0x1 PUSH1 0xA0 SHL SUB SWAP3 DUP4 AND PUSH1 0x20 SWAP2 DUP3 MUL SWAP3 SWAP1 SWAP3 ADD DUP2 ADD SWAP2 SWAP1 SWAP2 MSTORE PUSH1 0x0 DUP9 DUP2 MSTORE PUSH1 0x7 DUP3 MSTORE PUSH1 0x40 DUP1 DUP3 KECCAK256 SWAP4 DUP6 AND DUP3 MSTORE SWAP3 SWAP1 SWAP2 MSTORE KECCAK256 SLOAD DUP5 MLOAD DUP6 SWAP1 DUP5 SWAP1 DUP2 LT PUSH2 0x3DCE JUMPI INVALID JUMPDEST PUSH1 0x20 SWAP1 DUP2 MUL SWAP2 SWAP1 SWAP2 ADD ADD MSTORE POP PUSH1 0x1 ADD PUSH2 0x3D69 JUMP JUMPDEST POP POP SWAP2 POP SWAP2 JUMP JUMPDEST PUSH1 0x0 DUP2 DUP2 MSTORE PUSH1 0x1 PUSH1 0x20 MSTORE PUSH1 0x40 SWAP1 KECCAK256 PUSH1 0x60 SWAP1 DUP2 SWAP1 PUSH2 0x3E05 DUP2 PUSH2 0x41FC JUMP JUMPDEST PUSH1 0x1 PUSH1 0x1 PUSH1 0x40 SHL SUB DUP2 GT DUP1 ISZERO PUSH2 0x3E1A JUMPI PUSH1 0x0 DUP1 REVERT JUMPDEST POP PUSH1 0x40 MLOAD SWAP1 DUP1 DUP3 MSTORE DUP1 PUSH1 0x20 MUL PUSH1 0x20 ADD DUP3 ADD PUSH1 0x40 MSTORE DUP1 ISZERO PUSH2 0x3E44 JUMPI DUP2 PUSH1 0x20 ADD PUSH1 0x20 DUP3 MUL DUP1 CALLDATASIZE DUP4 CALLDATACOPY ADD SWAP1 POP JUMPDEST POP SWAP3 POP DUP3 MLOAD PUSH1 0x1 PUSH1 0x1 PUSH1 0x40 SHL SUB DUP2 GT DUP1 ISZERO PUSH2 0x3E5E JUMPI PUSH1 0x0 DUP1 REVERT JUMPDEST POP PUSH1 0x40 MLOAD SWAP1 DUP1 DUP3 MSTORE DUP1 PUSH1 0x20 MUL PUSH1 0x20 ADD DUP3 ADD PUSH1 0x40 MSTORE DUP1 ISZERO PUSH2 0x3E88 JUMPI DUP2 PUSH1 0x20 ADD PUSH1 0x20 DUP3 MUL DUP1 CALLDATASIZE DUP4 CALLDATACOPY ADD SWAP1 POP JUMPDEST POP SWAP2 POP PUSH1 0x0 JUMPDEST DUP4 MLOAD DUP2 LT ISZERO PUSH2 0x3DE2 JUMPI PUSH2 0x3EA1 DUP3 DUP3 PUSH2 0x4771 JUMP JUMPDEST DUP6 DUP4 DUP2 MLOAD DUP2 LT PUSH2 0x3EAD JUMPI INVALID JUMPDEST PUSH1 0x20 MUL PUSH1 0x20 ADD ADD DUP6 DUP5 DUP2 MLOAD DUP2 LT PUSH2 0x3EC0 JUMPI INVALID JUMPDEST PUSH1 0x20 SWAP1 DUP2 MUL SWAP2 SWAP1 SWAP2 ADD ADD SWAP2 SWAP1 SWAP2 MSTORE PUSH1 0x1 PUSH1 0x1 PUSH1 0xA0 SHL SUB SWAP1 SWAP2 AND SWAP1 MSTORE PUSH1 0x1 ADD PUSH2 0x3E8E JUMP JUMPDEST PUSH1 0x0 PUSH2 0x3EEE DUP3 PUSH2 0x2711 JUMP JUMPDEST PUSH2 0x3EF7 DUP4 PUSH2 0x2705 JUMP JUMPDEST ADD SWAP3 SWAP2 POP POP JUMP JUMPDEST PUSH1 0x0 DUP2 DUP4 LT ISZERO PUSH2 0x3F0E JUMPI DUP2 PUSH2 0x169D JUMP JUMPDEST POP SWAP1 SWAP2 SWAP1 POP JUMP JUMPDEST PUSH1 0x0 DUP2 DUP4 LT PUSH2 0x3F0E JUMPI DUP2 PUSH2 0x169D JUMP JUMPDEST PUSH1 0x1 PUSH1 0x1 PUSH1 0xA0 SHL SUB DUP1 DUP6 AND PUSH1 0x0 DUP2 DUP2 MSTORE PUSH1 0xB PUSH1 0x20 SWAP1 DUP2 MSTORE PUSH1 0x40 DUP1 DUP4 KECCAK256 SWAP5 DUP9 AND DUP1 DUP5 MSTORE SWAP5 SWAP1 SWAP2 MSTORE SWAP1 DUP2 SWAP1 KECCAK256 DUP6 SWAP1 SSTORE MLOAD PUSH32 0x18E1EA4139E68413D7D08AA752E71568E36B2C5BF940893314C2C5B01EAA0C42 SWAP1 PUSH2 0x194A SWAP1 DUP6 SWAP1 PUSH2 0x5C73 JUMP JUMPDEST PUSH1 0x0 DUP1 PUSH2 0x3F8A PUSH2 0x4795 JUMP JUMPDEST SWAP1 POP TIMESTAMP DUP2 LT ISZERO PUSH2 0x3F9E JUMPI PUSH1 0x0 SWAP2 POP POP PUSH2 0x16A0 JUMP JUMPDEST PUSH1 0x0 PUSH2 0x3FA8 PUSH2 0x47A1 JUMP JUMPDEST SWAP1 POP DUP1 PUSH2 0x3FBA JUMPI PUSH1 0x0 SWAP3 POP POP POP PUSH2 0x16A0 JUMP JUMPDEST PUSH1 0x0 DUP2 PUSH2 0x3FC5 PUSH2 0x48B2 JUMP JUMPDEST DUP1 MLOAD PUSH1 0x20 SWAP2 DUP3 ADD KECCAK256 PUSH1 0x40 MLOAD PUSH2 0x3FE1 SWAP4 SWAP3 CALLER SWAP2 DUP11 SWAP2 DUP10 SWAP2 ADD PUSH2 0x5CF9 JUMP JUMPDEST PUSH1 0x40 MLOAD PUSH1 0x20 DUP2 DUP4 SUB SUB DUP2 MSTORE SWAP1 PUSH1 0x40 MSTORE DUP1 MLOAD SWAP1 PUSH1 0x20 ADD KECCAK256 SWAP1 POP PUSH1 0x0 PUSH2 0x4004 DUP3 PUSH2 0x4901 JUMP JUMPDEST SWAP1 POP PUSH1 0x0 DUP1 PUSH1 0x0 PUSH2 0x4013 PUSH2 0x491D JUMP JUMPDEST SWAP3 POP SWAP3 POP SWAP3 POP PUSH1 0x0 PUSH1 0x1 DUP6 DUP6 DUP6 DUP6 PUSH1 0x40 MLOAD PUSH1 0x0 DUP2 MSTORE PUSH1 0x20 ADD PUSH1 0x40 MSTORE PUSH1 0x40 MLOAD PUSH2 0x403E SWAP5 SWAP4 SWAP3 SWAP2 SWAP1 PUSH2 0x5D51 JUMP JUMPDEST PUSH1 0x20 PUSH1 0x40 MLOAD PUSH1 0x20 DUP2 SUB SWAP1 DUP1 DUP5 SUB SWAP1 DUP6 GAS STATICCALL ISZERO DUP1 ISZERO PUSH2 0x4060 JUMPI RETURNDATASIZE PUSH1 0x0 DUP1 RETURNDATACOPY RETURNDATASIZE PUSH1 0x0 REVERT JUMPDEST POP POP PUSH1 0x40 MLOAD PUSH1 0x1F NOT ADD MLOAD SWAP2 POP POP PUSH1 0x1 PUSH1 0x1 PUSH1 0xA0 SHL SUB DUP2 AND ISZERO DUP1 ISZERO SWAP1 PUSH2 0x4096 JUMPI POP DUP11 PUSH1 0x1 PUSH1 0x1 PUSH1 0xA0 SHL SUB AND DUP2 PUSH1 0x1 PUSH1 0x1 PUSH1 0xA0 SHL SUB AND EQ JUMPDEST SWAP12 SWAP11 POP POP POP POP POP POP POP POP POP POP POP JUMP JUMPDEST PUSH1 0x0 DUP1 PUSH1 0x0 DUP1 PUSH2 0x40B4 DUP7 PUSH2 0x3EE3 JUMP JUMPDEST SWAP1 POP PUSH1 0x0 PUSH2 0x40C1 DUP7 PUSH2 0x3EE3 JUMP JUMPDEST SWAP1 POP PUSH2 0x40D8 PUSH2 0x40CF DUP9 PUSH2 0x2720 JUMP JUMPDEST PUSH2 0x2994 DUP9 PUSH2 0x2720 JUMP JUMPDEST PUSH1 0xA0 DUP11 ADD MSTORE PUSH1 0x40 MLOAD PUSH4 0x274B0443 PUSH1 0xE2 SHL DUP2 MSTORE PUSH1 0x1 PUSH1 0x1 PUSH1 0xA0 SHL SUB DUP10 AND SWAP1 PUSH4 0x9D2C110C SWAP1 PUSH2 0x410D SWAP1 DUP13 SWAP1 DUP7 SWAP1 DUP7 SWAP1 PUSH1 0x4 ADD PUSH2 0x5DC4 JUMP JUMPDEST PUSH1 0x20 PUSH1 0x40 MLOAD DUP1 DUP4 SUB DUP2 PUSH1 0x0 DUP8 DUP1 EXTCODESIZE ISZERO DUP1 ISZERO PUSH2 0x4127 JUMPI PUSH1 0x0 DUP1 REVERT JUMPDEST POP GAS CALL ISZERO DUP1 ISZERO PUSH2 0x413B JUMPI RETURNDATASIZE PUSH1 0x0 DUP1 RETURNDATACOPY RETURNDATASIZE PUSH1 0x0 REVERT JUMPDEST POP POP POP POP PUSH1 0x40 MLOAD RETURNDATASIZE PUSH1 0x1F NOT PUSH1 0x1F DUP3 ADD AND DUP3 ADD DUP1 PUSH1 0x40 MSTORE POP DUP2 ADD SWAP1 PUSH2 0x415F SWAP2 SWAP1 PUSH2 0x58C0 JUMP JUMPDEST SWAP3 POP PUSH1 0x0 DUP1 PUSH2 0x4177 DUP12 PUSH1 0x0 ADD MLOAD DUP13 PUSH1 0x60 ADD MLOAD DUP8 PUSH2 0x2F18 JUMP JUMPDEST SWAP1 SWAP3 POP SWAP1 POP PUSH2 0x4186 DUP10 DUP4 PUSH2 0x4216 JUMP JUMPDEST SWAP7 POP PUSH2 0x4192 DUP9 DUP3 PUSH2 0x4247 JUMP JUMPDEST SWAP6 POP POP POP POP POP SWAP5 POP SWAP5 POP SWAP5 SWAP2 POP POP JUMP JUMPDEST PUSH1 0x0 DUP1 PUSH2 0x41BA PUSH2 0x41B1 DUP6 PUSH2 0x2720 JUMP JUMPDEST PUSH2 0x2994 DUP6 PUSH2 0x2720 JUMP JUMPDEST SWAP1 POP PUSH2 0x9C0 PUSH2 0x41C8 DUP6 PUSH2 0x2705 JUMP JUMPDEST PUSH2 0x41D1 DUP6 PUSH2 0x2705 JUMP JUMPDEST DUP4 PUSH4 0xFFFFFFFF AND PUSH2 0x4944 JUMP JUMPDEST PUSH1 0x1 PUSH1 0x1 PUSH1 0xA0 SHL SUB AND PUSH1 0x0 SWAP1 DUP2 MSTORE PUSH1 0x2 SWAP2 SWAP1 SWAP2 ADD PUSH1 0x20 MSTORE PUSH1 0x40 SWAP1 KECCAK256 SLOAD SWAP1 JUMP JUMPDEST SLOAD SWAP1 JUMP JUMPDEST PUSH1 0x0 SWAP1 DUP2 MSTORE PUSH1 0x1 SWAP2 DUP3 ADD PUSH1 0x20 MSTORE PUSH1 0x40 SWAP1 KECCAK256 ADD SLOAD SWAP1 JUMP JUMPDEST PUSH1 0x0 DUP1 PUSH2 0x422C DUP4 PUSH2 0x4226 DUP7 PUSH2 0x2705 JUMP JUMPDEST SWAP1 PUSH2 0x18BF JUMP JUMPDEST SWAP1 POP PUSH1 0x0 PUSH2 0x4239 DUP6 PUSH2 0x2711 JUMP JUMPDEST SWAP1 POP NUMBER PUSH2 0x126A DUP4 DUP4 DUP4 PUSH2 0x4952 JUMP JUMPDEST PUSH1 0x0 DUP1 PUSH2 0x422C DUP4 PUSH2 0x4257 DUP7 PUSH2 0x2705 JUMP JUMPDEST SWAP1 PUSH2 0x4980 JUMP JUMPDEST PUSH1 0x0 SWAP2 DUP3 MSTORE PUSH1 0x1 SWAP3 DUP4 ADD PUSH1 0x20 MSTORE PUSH1 0x40 SWAP1 SWAP2 KECCAK256 SWAP1 SWAP2 ADD SSTORE JUMP JUMPDEST PUSH1 0x0 DUP1 DUP3 PUSH1 0x1 PUSH1 0x1 PUSH1 0xA0 SHL SUB AND DUP5 PUSH1 0x1 PUSH1 0x1 PUSH1 0xA0 SHL SUB AND LT PUSH2 0x4298 JUMPI DUP3 DUP5 PUSH2 0x429B JUMP JUMPDEST DUP4 DUP4 JUMPDEST SWAP2 POP SWAP2 POP SWAP3 POP SWAP3 SWAP1 POP JUMP JUMPDEST PUSH1 0x0 DUP3 DUP3 PUSH1 0x40 MLOAD PUSH1 0x20 ADD PUSH2 0x42BB SWAP3 SWAP2 SWAP1 PUSH2 0x5A6C JUMP JUMPDEST PUSH1 0x40 MLOAD PUSH1 0x20 DUP2 DUP4 SUB SUB DUP2 MSTORE SWAP1 PUSH1 0x40 MSTORE DUP1 MLOAD SWAP1 PUSH1 0x20 ADD KECCAK256 SWAP1 POP SWAP3 SWAP2 POP POP JUMP JUMPDEST PUSH1 0x0 PUSH2 0x169D PUSH2 0x42E7 DUP5 PUSH2 0x2705 JUMP JUMPDEST PUSH2 0x42F0 DUP5 PUSH2 0x2705 JUMP JUMPDEST PUSH2 0x42F9 DUP7 PUSH2 0x2720 JUMP JUMPDEST PUSH2 0x4952 JUMP JUMPDEST PUSH1 0x0 PUSH2 0x169D PUSH2 0x430C DUP5 PUSH2 0x2711 JUMP JUMPDEST PUSH2 0x42F0 DUP5 PUSH2 0x2711 JUMP JUMPDEST PUSH1 0x1 PUSH1 0x1 PUSH1 0xA0 SHL SUB DUP3 AND PUSH1 0x0 SWAP1 DUP2 MSTORE PUSH1 0x2 DUP5 ADD PUSH1 0x20 MSTORE PUSH1 0x40 DUP2 KECCAK256 SLOAD PUSH2 0x433C DUP2 ISZERO ISZERO DUP5 PUSH2 0x52B JUMP JUMPDEST PUSH2 0x4349 DUP6 PUSH1 0x1 DUP4 SUB PUSH2 0x4200 JUMP JUMPDEST SWAP6 SWAP5 POP POP POP POP POP JUMP JUMPDEST PUSH1 0x0 PUSH2 0x435C PUSH2 0x1373 JUMP JUMPDEST PUSH1 0x1 PUSH1 0x1 PUSH1 0xA0 SHL SUB AND PUSH4 0x55C67628 PUSH1 0x40 MLOAD DUP2 PUSH4 0xFFFFFFFF AND PUSH1 0xE0 SHL DUP2 MSTORE PUSH1 0x4 ADD PUSH1 0x20 PUSH1 0x40 MLOAD DUP1 DUP4 SUB DUP2 DUP7 DUP1 EXTCODESIZE ISZERO DUP1 ISZERO PUSH2 0x4394 JUMPI PUSH1 0x0 DUP1 REVERT JUMPDEST POP GAS STATICCALL ISZERO DUP1 ISZERO PUSH2 0x43A8 JUMPI RETURNDATASIZE PUSH1 0x0 DUP1 RETURNDATACOPY RETURNDATASIZE PUSH1 0x0 REVERT JUMPDEST POP POP POP POP PUSH1 0x40 MLOAD RETURNDATASIZE PUSH1 0x1F NOT PUSH1 0x1F DUP3 ADD AND DUP3 ADD DUP1 PUSH1 0x40 MSTORE POP DUP2 ADD SWAP1 PUSH2 0x1292 SWAP2 SWAP1 PUSH2 0x58C0 JUMP JUMPDEST PUSH2 0xF64 DUP3 DUP5 EQ DUP1 ISZERO PUSH2 0x43DD JUMPI POP DUP2 DUP4 EQ JUMPDEST PUSH1 0x67 PUSH2 0x52B JUMP JUMPDEST PUSH1 0x60 DUP4 MLOAD PUSH1 0x1 PUSH1 0x1 PUSH1 0x40 SHL SUB DUP2 GT DUP1 ISZERO PUSH2 0x43FD JUMPI PUSH1 0x0 DUP1 REVERT JUMPDEST POP PUSH1 0x40 MLOAD SWAP1 DUP1 DUP3 MSTORE DUP1 PUSH1 0x20 MUL PUSH1 0x20 ADD DUP3 ADD PUSH1 0x40 MSTORE DUP1 ISZERO PUSH2 0x4427 JUMPI DUP2 PUSH1 0x20 ADD PUSH1 0x20 DUP3 MUL DUP1 CALLDATASIZE DUP4 CALLDATACOPY ADD SWAP1 POP JUMPDEST POP SWAP1 POP PUSH1 0x0 JUMPDEST DUP6 MLOAD MLOAD DUP2 LT ISZERO PUSH2 0x4520 JUMPI PUSH1 0x0 DUP5 DUP3 DUP2 MLOAD DUP2 LT PUSH2 0x4445 JUMPI INVALID JUMPDEST PUSH1 0x20 MUL PUSH1 0x20 ADD ADD MLOAD SWAP1 POP PUSH2 0x4475 DUP8 PUSH1 0x20 ADD MLOAD DUP4 DUP2 MLOAD DUP2 LT PUSH2 0x4462 JUMPI INVALID JUMPDEST PUSH1 0x20 MUL PUSH1 0x20 ADD ADD MLOAD DUP3 LT ISZERO PUSH2 0x1F9 PUSH2 0x52B JUMP JUMPDEST PUSH1 0x0 DUP8 PUSH1 0x0 ADD MLOAD DUP4 DUP2 MLOAD DUP2 LT PUSH2 0x4487 JUMPI INVALID JUMPDEST PUSH1 0x20 MUL PUSH1 0x20 ADD ADD MLOAD SWAP1 POP PUSH2 0x44A1 DUP2 DUP4 DUP12 DUP12 PUSH1 0x60 ADD MLOAD PUSH2 0x1CB2 JUMP JUMPDEST PUSH1 0x0 DUP6 DUP5 DUP2 MLOAD DUP2 LT PUSH2 0x44AF JUMPI INVALID JUMPDEST PUSH1 0x20 MUL PUSH1 0x20 ADD ADD MLOAD SWAP1 POP PUSH2 0x44CB PUSH2 0x44C5 DUP4 PUSH2 0x1ABB JUMP JUMPDEST DUP3 PUSH2 0x1E76 JUMP JUMPDEST PUSH2 0x44FA PUSH2 0x44D8 DUP5 DUP4 PUSH2 0x18BF JUMP JUMPDEST DUP10 DUP7 DUP2 MLOAD DUP2 LT PUSH2 0x44E4 JUMPI INVALID JUMPDEST PUSH1 0x20 MUL PUSH1 0x20 ADD ADD MLOAD PUSH2 0x4247 SWAP1 SWAP2 SWAP1 PUSH4 0xFFFFFFFF AND JUMP JUMPDEST DUP6 DUP6 DUP2 MLOAD DUP2 LT PUSH2 0x4506 JUMPI INVALID JUMPDEST PUSH1 0x20 MUL PUSH1 0x20 ADD ADD DUP2 DUP2 MSTORE POP POP POP POP POP DUP1 PUSH1 0x1 ADD SWAP1 POP PUSH2 0x442D JUMP JUMPDEST POP SWAP6 SWAP5 POP POP POP POP POP JUMP JUMPDEST PUSH1 0x60 PUSH1 0x0 DUP5 MLOAD PUSH1 0x1 PUSH1 0x1 PUSH1 0x40 SHL SUB DUP2 GT DUP1 ISZERO PUSH2 0x4545 JUMPI PUSH1 0x0 DUP1 REVERT JUMPDEST POP PUSH1 0x40 MLOAD SWAP1 DUP1 DUP3 MSTORE DUP1 PUSH1 0x20 MUL PUSH1 0x20 ADD DUP3 ADD PUSH1 0x40 MSTORE DUP1 ISZERO PUSH2 0x456F JUMPI DUP2 PUSH1 0x20 ADD PUSH1 0x20 DUP3 MUL DUP1 CALLDATASIZE DUP4 CALLDATACOPY ADD SWAP1 POP JUMPDEST POP SWAP2 POP PUSH1 0x0 JUMPDEST DUP7 MLOAD MLOAD DUP2 LT ISZERO PUSH2 0x4695 JUMPI PUSH1 0x0 DUP6 DUP3 DUP2 MLOAD DUP2 LT PUSH2 0x458D JUMPI INVALID JUMPDEST PUSH1 0x20 MUL PUSH1 0x20 ADD ADD MLOAD SWAP1 POP PUSH2 0x45BD DUP9 PUSH1 0x20 ADD MLOAD DUP4 DUP2 MLOAD DUP2 LT PUSH2 0x45AA JUMPI INVALID JUMPDEST PUSH1 0x20 MUL PUSH1 0x20 ADD ADD MLOAD DUP3 GT ISZERO PUSH2 0x1FA PUSH2 0x52B JUMP JUMPDEST PUSH1 0x0 DUP9 PUSH1 0x0 ADD MLOAD DUP4 DUP2 MLOAD DUP2 LT PUSH2 0x45CF JUMPI INVALID JUMPDEST PUSH1 0x20 MUL PUSH1 0x20 ADD ADD MLOAD SWAP1 POP PUSH2 0x45E9 DUP2 DUP4 DUP13 DUP13 PUSH1 0x60 ADD MLOAD PUSH2 0x1BD4 JUMP JUMPDEST PUSH2 0x45F2 DUP2 PUSH2 0x18B2 JUMP JUMPDEST ISZERO PUSH2 0x4604 JUMPI PUSH2 0x4601 DUP5 DUP4 PUSH2 0x18BF JUMP JUMPDEST SWAP4 POP JUMPDEST PUSH1 0x0 DUP7 DUP5 DUP2 MLOAD DUP2 LT PUSH2 0x4612 JUMPI INVALID JUMPDEST PUSH1 0x20 MUL PUSH1 0x20 ADD ADD MLOAD SWAP1 POP PUSH2 0x4628 PUSH2 0x44C5 DUP4 PUSH2 0x1ABB JUMP JUMPDEST DUP1 DUP4 LT ISZERO PUSH2 0x4647 JUMPI PUSH2 0x4642 DUP4 DUP3 SUB DUP11 DUP7 DUP2 MLOAD DUP2 LT PUSH2 0x44E4 JUMPI INVALID JUMPDEST PUSH2 0x466F JUMP JUMPDEST PUSH2 0x466F DUP2 DUP5 SUB DUP11 DUP7 DUP2 MLOAD DUP2 LT PUSH2 0x4659 JUMPI INVALID JUMPDEST PUSH1 0x20 MUL PUSH1 0x20 ADD ADD MLOAD PUSH2 0x4216 SWAP1 SWAP2 SWAP1 PUSH4 0xFFFFFFFF AND JUMP JUMPDEST DUP7 DUP6 DUP2 MLOAD DUP2 LT PUSH2 0x467B JUMPI INVALID JUMPDEST PUSH1 0x20 MUL PUSH1 0x20 ADD ADD DUP2 DUP2 MSTORE POP POP POP POP POP DUP1 PUSH1 0x1 ADD SWAP1 POP PUSH2 0x4575 JUMP JUMPDEST POP PUSH2 0x4520 DUP2 PUSH2 0x1958 JUMP JUMPDEST PUSH1 0x1 PUSH1 0x1 PUSH1 0xA0 SHL SUB AND PUSH1 0x0 SWAP1 DUP2 MSTORE PUSH1 0x2 SWAP2 SWAP1 SWAP2 ADD PUSH1 0x20 MSTORE PUSH1 0x40 SWAP1 KECCAK256 SLOAD ISZERO ISZERO SWAP1 JUMP JUMPDEST PUSH2 0xDC4 DUP4 DUP4 PUSH2 0x4996 DUP5 PUSH2 0x49D1 JUMP JUMPDEST PUSH2 0xDC4 DUP4 DUP4 PUSH2 0x4996 DUP5 PUSH2 0x4A7C JUMP JUMPDEST PUSH2 0xDC4 DUP4 DUP4 PUSH2 0x4996 DUP5 PUSH2 0x4AD7 JUMP JUMPDEST PUSH2 0xDC4 DUP4 DUP4 PUSH2 0x4B26 DUP5 PUSH2 0x49D1 JUMP JUMPDEST PUSH2 0xDC4 DUP4 DUP4 PUSH2 0x4B26 DUP5 PUSH2 0x4A7C JUMP JUMPDEST PUSH2 0xDC4 DUP4 DUP4 PUSH2 0x4B26 DUP5 PUSH2 0x4AD7 JUMP JUMPDEST PUSH1 0x0 PUSH2 0x9C0 DUP5 DUP5 PUSH2 0x4B47 DUP6 PUSH2 0x49D1 JUMP JUMPDEST PUSH1 0x0 PUSH2 0x9C0 DUP5 DUP5 PUSH2 0x4B47 DUP6 PUSH2 0x4A7C JUMP JUMPDEST PUSH1 0x0 PUSH2 0x9C0 DUP5 DUP5 PUSH2 0x4B47 DUP6 PUSH2 0x4AD7 JUMP JUMPDEST PUSH1 0x0 DUP3 PUSH1 0x0 ADD DUP3 DUP2 SLOAD DUP2 LT PUSH2 0x4755 JUMPI INVALID JUMPDEST PUSH1 0x0 SWAP2 DUP3 MSTORE PUSH1 0x20 SWAP1 SWAP2 KECCAK256 ADD SLOAD PUSH1 0x1 PUSH1 0x1 PUSH1 0xA0 SHL SUB AND SWAP4 SWAP3 POP POP POP JUMP JUMPDEST PUSH1 0x0 SWAP1 DUP2 MSTORE PUSH1 0x1 SWAP2 DUP3 ADD PUSH1 0x20 MSTORE PUSH1 0x40 SWAP1 KECCAK256 DUP1 SLOAD SWAP2 ADD SLOAD PUSH1 0x1 PUSH1 0x1 PUSH1 0xA0 SHL SUB SWAP1 SWAP2 AND SWAP2 JUMP JUMPDEST PUSH1 0x0 PUSH2 0x1292 PUSH1 0x0 PUSH2 0x4B61 JUMP JUMPDEST PUSH1 0x0 DUP1 CALLDATALOAD PUSH1 0xE0 SHR DUP1 PUSH4 0xB95CAC28 DUP2 EQ PUSH2 0x47E9 JUMPI PUSH4 0x8BDB3913 DUP2 EQ PUSH2 0x4811 JUMPI PUSH4 0x52BBBE29 DUP2 EQ PUSH2 0x4839 JUMPI PUSH4 0x945BCEC9 DUP2 EQ PUSH2 0x4861 JUMPI PUSH4 0xFA6E671D DUP2 EQ PUSH2 0x4889 JUMPI PUSH1 0x0 SWAP3 POP PUSH2 0x48AD JUMP JUMPDEST PUSH32 0x3F7B71252BD19113FF48C19C6E004A9BCFCCA320A0D74D58E85877CBD7DCAE58 SWAP3 POP PUSH2 0x48AD JUMP JUMPDEST PUSH32 0x8BBC57F66EA936902F50A71CE12B92C43F3C5340BB40C27C4E90AB84EEAE3353 SWAP3 POP PUSH2 0x48AD JUMP JUMPDEST PUSH32 0xE192DCBC143B1E244AD73B813FD3C097B832AD260A157340B4E5E5BEDA067ABE SWAP3 POP PUSH2 0x48AD JUMP JUMPDEST PUSH32 0x9BFC43A4D98313C6766986FFD7C916C7481566D9F224C6819AF0A53388ACED3A SWAP3 POP PUSH2 0x48AD JUMP JUMPDEST PUSH32 0xA3F865AA351E51CFEB40F5178D1564BB629FE9030B83CAF6361D1BAAF5B90B5A SWAP3 POP JUMPDEST POP POP SWAP1 JUMP JUMPDEST PUSH1 0x60 PUSH1 0x0 CALLDATASIZE DUP1 DUP1 PUSH1 0x1F ADD PUSH1 0x20 DUP1 SWAP2 DIV MUL PUSH1 0x20 ADD PUSH1 0x40 MLOAD SWAP1 DUP2 ADD PUSH1 0x40 MSTORE DUP1 SWAP4 SWAP3 SWAP2 SWAP1 DUP2 DUP2 MSTORE PUSH1 0x20 ADD DUP4 DUP4 DUP1 DUP3 DUP5 CALLDATACOPY PUSH1 0x0 SWAP3 ADD SWAP2 SWAP1 SWAP2 MSTORE POP POP DUP3 MLOAD SWAP3 SWAP4 POP POP POP PUSH1 0x80 LT ISZERO PUSH2 0x528 JUMPI PUSH1 0x80 CALLDATASIZE SUB DUP2 MSTORE SWAP1 JUMP JUMPDEST PUSH1 0x0 PUSH2 0x490B PUSH2 0x27F1 JUMP JUMPDEST DUP3 PUSH1 0x40 MLOAD PUSH1 0x20 ADD PUSH2 0x10F2 SWAP3 SWAP2 SWAP1 PUSH2 0x5A93 JUMP JUMPDEST PUSH1 0x0 DUP1 PUSH1 0x0 PUSH2 0x492C PUSH1 0x20 PUSH2 0x4B61 JUMP JUMPDEST SWAP3 POP PUSH2 0x4938 PUSH1 0x40 PUSH2 0x4B61 JUMP JUMPDEST SWAP2 POP PUSH2 0x820 PUSH1 0x60 PUSH2 0x4B61 JUMP JUMPDEST PUSH1 0xE0 SHL PUSH1 0x70 SWAP2 SWAP1 SWAP2 SHL ADD ADD SWAP1 JUMP JUMPDEST PUSH1 0x0 DUP4 DUP4 ADD PUSH2 0x4975 DUP6 DUP3 LT DUP1 ISZERO SWAP1 PUSH2 0x496D JUMPI POP PUSH1 0x1 PUSH1 0x70 SHL DUP3 LT JUMPDEST PUSH2 0x20E PUSH2 0x52B JUMP JUMPDEST PUSH2 0x4349 DUP6 DUP6 DUP6 PUSH2 0x4944 JUMP JUMPDEST PUSH1 0x0 PUSH2 0x4990 DUP4 DUP4 GT ISZERO PUSH1 0x1 PUSH2 0x52B JUMP JUMPDEST POP SWAP1 SUB SWAP1 JUMP JUMPDEST PUSH1 0x0 DUP1 PUSH2 0x49A6 DUP4 PUSH2 0x4257 DUP7 PUSH2 0x2705 JUMP JUMPDEST SWAP1 POP PUSH1 0x0 PUSH2 0x49B7 DUP5 PUSH2 0x4226 DUP8 PUSH2 0x2711 JUMP JUMPDEST SWAP1 POP PUSH1 0x0 PUSH2 0x49C4 DUP7 PUSH2 0x2720 JUMP JUMPDEST SWAP1 POP PUSH2 0x126A DUP4 DUP4 DUP4 PUSH2 0x4952 JUMP JUMPDEST PUSH1 0x0 DUP1 PUSH1 0x0 DUP1 PUSH1 0x0 PUSH2 0x49E2 DUP10 PUSH2 0x3907 JUMP JUMPDEST SWAP5 POP POP SWAP4 POP SWAP4 POP SWAP4 POP PUSH1 0x0 DUP4 PUSH1 0x1 PUSH1 0x1 PUSH1 0xA0 SHL SUB AND DUP10 PUSH1 0x1 PUSH1 0x1 PUSH1 0xA0 SHL SUB AND EQ ISZERO PUSH2 0x4A2D JUMPI PUSH1 0x0 PUSH2 0x4A17 DUP5 DUP10 DUP12 PUSH4 0xFFFFFFFF AND JUMP JUMPDEST SWAP1 POP PUSH2 0x4A23 DUP2 DUP6 PUSH2 0x4B6B JUMP JUMPDEST SWAP1 SWAP4 POP SWAP1 POP PUSH2 0x4A4F JUMP JUMPDEST PUSH1 0x0 PUSH2 0x4A3D DUP4 DUP10 DUP12 PUSH4 0xFFFFFFFF AND JUMP JUMPDEST SWAP1 POP PUSH2 0x4A49 DUP2 DUP5 PUSH2 0x4B6B JUMP JUMPDEST SWAP1 SWAP3 POP SWAP1 POP JUMPDEST PUSH2 0x4A59 DUP4 DUP4 PUSH2 0x41A2 JUMP JUMPDEST DUP6 SSTORE PUSH2 0x4A65 DUP4 DUP4 PUSH2 0x4B87 JUMP JUMPDEST PUSH1 0x1 SWAP1 SWAP6 ADD SWAP5 SWAP1 SWAP5 SSTORE POP SWAP2 SWAP3 POP POP POP SWAP5 SWAP4 POP POP POP POP JUMP JUMPDEST PUSH1 0x0 DUP1 PUSH2 0x4A89 DUP7 DUP7 PUSH2 0x267F JUMP JUMPDEST SWAP1 POP PUSH1 0x0 PUSH2 0x4A9B DUP3 DUP6 DUP8 PUSH4 0xFFFFFFFF AND JUMP JUMPDEST PUSH1 0x0 DUP9 DUP2 MSTORE PUSH1 0x7 PUSH1 0x20 SWAP1 DUP2 MSTORE PUSH1 0x40 DUP1 DUP4 KECCAK256 PUSH1 0x1 PUSH1 0x1 PUSH1 0xA0 SHL SUB DUP12 AND DUP5 MSTORE SWAP1 SWAP2 MSTORE SWAP1 KECCAK256 DUP2 SWAP1 SSTORE SWAP1 POP PUSH2 0x4ACC DUP2 DUP4 PUSH2 0x4B6B JUMP JUMPDEST SWAP8 SWAP7 POP POP POP POP POP POP POP JUMP JUMPDEST PUSH1 0x0 DUP5 DUP2 MSTORE PUSH1 0x1 PUSH1 0x20 MSTORE PUSH1 0x40 DUP2 KECCAK256 DUP2 PUSH2 0x4AF0 DUP3 DUP8 PUSH2 0x331D JUMP JUMPDEST SWAP1 POP PUSH1 0x0 PUSH2 0x4B02 DUP3 DUP7 DUP9 PUSH4 0xFFFFFFFF AND JUMP JUMPDEST SWAP1 POP PUSH2 0x4B0F DUP4 DUP9 DUP4 PUSH2 0x3095 JUMP JUMPDEST POP PUSH2 0x4B1A DUP2 DUP4 PUSH2 0x4B6B JUMP JUMPDEST SWAP9 SWAP8 POP POP POP POP POP POP POP POP JUMP JUMPDEST PUSH1 0x0 DUP1 PUSH2 0x4B36 DUP4 PUSH2 0x4226 DUP7 PUSH2 0x2705 JUMP JUMPDEST SWAP1 POP PUSH1 0x0 PUSH2 0x49B7 DUP5 PUSH2 0x4257 DUP8 PUSH2 0x2711 JUMP JUMPDEST PUSH1 0x0 DUP1 PUSH2 0x4B53 DUP5 PUSH2 0x2705 JUMP JUMPDEST SWAP1 POP NUMBER PUSH2 0x4349 DUP3 DUP6 DUP4 PUSH2 0x4952 JUMP JUMPDEST CALLDATASIZE ADD PUSH1 0x7F NOT ADD CALLDATALOAD SWAP1 JUMP JUMPDEST PUSH1 0x0 PUSH2 0x4B76 DUP3 PUSH2 0x2711 JUMP JUMPDEST PUSH2 0x4B7F DUP5 PUSH2 0x2711 JUMP JUMPDEST SUB SWAP4 SWAP3 POP POP POP JUMP JUMPDEST PUSH1 0x0 PUSH2 0x169D PUSH2 0x4B95 DUP5 PUSH2 0x2711 JUMP JUMPDEST PUSH2 0x4B9E DUP5 PUSH2 0x2711 JUMP JUMPDEST PUSH1 0x0 PUSH2 0x4944 JUMP JUMPDEST PUSH1 0x40 DUP1 MLOAD PUSH2 0x120 DUP2 ADD SWAP1 SWAP2 MSTORE DUP1 PUSH1 0x0 DUP2 MSTORE PUSH1 0x0 PUSH1 0x20 DUP3 ADD DUP2 SWAP1 MSTORE PUSH1 0x40 DUP3 ADD DUP2 SWAP1 MSTORE PUSH1 0x60 DUP1 DUP4 ADD DUP3 SWAP1 MSTORE PUSH1 0x80 DUP4 ADD DUP3 SWAP1 MSTORE PUSH1 0xA0 DUP4 ADD DUP3 SWAP1 MSTORE PUSH1 0xC0 DUP4 ADD DUP3 SWAP1 MSTORE PUSH1 0xE0 DUP4 ADD SWAP2 SWAP1 SWAP2 MSTORE PUSH2 0x100 SWAP1 SWAP2 ADD MSTORE SWAP1 JUMP JUMPDEST PUSH1 0x40 DUP1 MLOAD PUSH1 0x80 DUP2 ADD SWAP1 SWAP2 MSTORE DUP1 PUSH1 0x0 DUP2 MSTORE PUSH1 0x0 PUSH1 0x20 DUP3 ADD DUP2 SWAP1 MSTORE PUSH1 0x40 DUP3 ADD DUP2 SWAP1 MSTORE PUSH1 0x60 SWAP1 SWAP2 ADD MSTORE SWAP1 JUMP JUMPDEST PUSH1 0x40 MLOAD DUP1 PUSH1 0x80 ADD PUSH1 0x40 MSTORE DUP1 PUSH1 0x60 DUP2 MSTORE PUSH1 0x20 ADD PUSH1 0x60 DUP2 MSTORE PUSH1 0x20 ADD PUSH1 0x60 DUP2 MSTORE PUSH1 0x20 ADD PUSH1 0x0 ISZERO ISZERO DUP2 MSTORE POP SWAP1 JUMP JUMPDEST PUSH1 0x40 MLOAD DUP1 PUSH1 0xA0 ADD PUSH1 0x40 MSTORE DUP1 PUSH1 0x0 DUP1 NOT AND DUP2 MSTORE PUSH1 0x20 ADD PUSH1 0x0 DUP2 MSTORE PUSH1 0x20 ADD PUSH1 0x0 DUP2 MSTORE PUSH1 0x20 ADD PUSH1 0x0 DUP2 MSTORE PUSH1 0x20 ADD PUSH1 0x60 DUP2 MSTORE POP SWAP1 JUMP JUMPDEST DUP1 CALLDATALOAD PUSH2 0x60F DUP2 PUSH2 0x5E79 JUMP JUMPDEST PUSH1 0x0 DUP3 PUSH1 0x1F DUP4 ADD SLT PUSH2 0x4C95 JUMPI DUP1 DUP2 REVERT JUMPDEST DUP2 CALLDATALOAD PUSH1 0x20 PUSH2 0x4CAA PUSH2 0x4CA5 DUP4 PUSH2 0x5E30 JUMP JUMPDEST PUSH2 0x5E0D JUMP JUMPDEST DUP3 DUP2 MSTORE DUP2 DUP2 ADD SWAP1 DUP6 DUP4 ADD DUP4 DUP6 MUL DUP8 ADD DUP5 ADD DUP9 LT ISZERO PUSH2 0x4CC6 JUMPI DUP6 DUP7 REVERT JUMPDEST DUP6 JUMPDEST DUP6 DUP2 LT ISZERO PUSH2 0x4CED JUMPI DUP2 CALLDATALOAD PUSH2 0x4CDB DUP2 PUSH2 0x5E79 JUMP JUMPDEST DUP5 MSTORE SWAP3 DUP5 ADD SWAP3 SWAP1 DUP5 ADD SWAP1 PUSH1 0x1 ADD PUSH2 0x4CC8 JUMP JUMPDEST POP SWAP1 SWAP8 SWAP7 POP POP POP POP POP POP POP JUMP JUMPDEST PUSH1 0x0 DUP3 PUSH1 0x1F DUP4 ADD SLT PUSH2 0x4D0A JUMPI DUP1 DUP2 REVERT JUMPDEST DUP2 CALLDATALOAD PUSH1 0x20 PUSH2 0x4D1A PUSH2 0x4CA5 DUP4 PUSH2 0x5E30 JUMP JUMPDEST DUP3 DUP2 MSTORE DUP2 DUP2 ADD SWAP1 DUP6 DUP4 ADD DUP4 DUP6 MUL DUP8 ADD DUP5 ADD DUP9 LT ISZERO PUSH2 0x4D36 JUMPI DUP6 DUP7 REVERT JUMPDEST DUP6 JUMPDEST DUP6 DUP2 LT ISZERO PUSH2 0x4CED JUMPI DUP2 CALLDATALOAD PUSH2 0x4D4B DUP2 PUSH2 0x5E79 JUMP JUMPDEST DUP5 MSTORE SWAP3 DUP5 ADD SWAP3 SWAP1 DUP5 ADD SWAP1 PUSH1 0x1 ADD PUSH2 0x4D38 JUMP JUMPDEST PUSH1 0x0 DUP3 PUSH1 0x1F DUP4 ADD SLT PUSH2 0x4D6D JUMPI DUP1 DUP2 REVERT JUMPDEST DUP2 CALLDATALOAD PUSH1 0x20 PUSH2 0x4D7D PUSH2 0x4CA5 DUP4 PUSH2 0x5E30 JUMP JUMPDEST DUP3 DUP2 MSTORE DUP2 DUP2 ADD SWAP1 DUP6 DUP4 ADD DUP6 JUMPDEST DUP6 DUP2 LT ISZERO PUSH2 0x4CED JUMPI DUP2 CALLDATALOAD DUP9 ADD PUSH1 0xA0 DUP1 PUSH1 0x1F NOT DUP4 DUP14 SUB ADD SLT ISZERO PUSH2 0x4DA9 JUMPI DUP9 DUP10 REVERT JUMPDEST PUSH1 0x40 DUP1 MLOAD DUP3 DUP2 ADD PUSH1 0x1 PUSH1 0x1 PUSH1 0x40 SHL SUB DUP3 DUP3 LT DUP2 DUP4 GT OR ISZERO PUSH2 0x4DC6 JUMPI INVALID JUMPDEST DUP2 DUP5 MSTORE DUP11 DUP7 ADD CALLDATALOAD DUP4 MSTORE DUP4 DUP7 ADD CALLDATALOAD DUP12 DUP5 ADD MSTORE PUSH1 0x60 SWAP2 POP DUP2 DUP7 ADD CALLDATALOAD DUP5 DUP5 ADD MSTORE PUSH1 0x80 SWAP4 POP DUP4 DUP7 ADD CALLDATALOAD DUP3 DUP5 ADD MSTORE DUP5 DUP7 ADD CALLDATALOAD SWAP5 POP DUP1 DUP6 GT ISZERO PUSH2 0x4E01 JUMPI DUP13 DUP14 REVERT JUMPDEST POP POP PUSH2 0x4E11 DUP14 DUP11 DUP6 DUP8 ADD ADD PUSH2 0x4EEB JUMP JUMPDEST SWAP2 DUP2 ADD SWAP2 SWAP1 SWAP2 MSTORE DUP7 MSTORE POP POP SWAP3 DUP5 ADD SWAP3 SWAP1 DUP5 ADD SWAP1 PUSH1 0x1 ADD PUSH2 0x4D89 JUMP JUMPDEST PUSH1 0x0 DUP3 PUSH1 0x1F DUP4 ADD SLT PUSH2 0x4E3C JUMPI DUP1 DUP2 REVERT JUMPDEST DUP2 CALLDATALOAD PUSH1 0x20 PUSH2 0x4E4C PUSH2 0x4CA5 DUP4 PUSH2 0x5E30 JUMP JUMPDEST DUP3 DUP2 MSTORE DUP2 DUP2 ADD SWAP1 DUP6 DUP4 ADD DUP4 DUP6 MUL DUP8 ADD DUP5 ADD DUP9 LT ISZERO PUSH2 0x4E68 JUMPI DUP6 DUP7 REVERT JUMPDEST DUP6 JUMPDEST DUP6 DUP2 LT ISZERO PUSH2 0x4CED JUMPI DUP2 CALLDATALOAD DUP5 MSTORE SWAP3 DUP5 ADD SWAP3 SWAP1 DUP5 ADD SWAP1 PUSH1 0x1 ADD PUSH2 0x4E6A JUMP JUMPDEST PUSH1 0x0 DUP3 PUSH1 0x1F DUP4 ADD SLT PUSH2 0x4E96 JUMPI DUP1 DUP2 REVERT JUMPDEST DUP2 MLOAD PUSH1 0x20 PUSH2 0x4EA6 PUSH2 0x4CA5 DUP4 PUSH2 0x5E30 JUMP JUMPDEST DUP3 DUP2 MSTORE DUP2 DUP2 ADD SWAP1 DUP6 DUP4 ADD DUP4 DUP6 MUL DUP8 ADD DUP5 ADD DUP9 LT ISZERO PUSH2 0x4EC2 JUMPI DUP6 DUP7 REVERT JUMPDEST DUP6 JUMPDEST DUP6 DUP2 LT ISZERO PUSH2 0x4CED JUMPI DUP2 MLOAD DUP5 MSTORE SWAP3 DUP5 ADD SWAP3 SWAP1 DUP5 ADD SWAP1 PUSH1 0x1 ADD PUSH2 0x4EC4 JUMP JUMPDEST DUP1 CALLDATALOAD PUSH2 0x60F DUP2 PUSH2 0x5E8E JUMP JUMPDEST PUSH1 0x0 DUP3 PUSH1 0x1F DUP4 ADD SLT PUSH2 0x4EFB JUMPI DUP1 DUP2 REVERT JUMPDEST DUP2 CALLDATALOAD PUSH1 0x1 PUSH1 0x1 PUSH1 0x40 SHL SUB DUP2 GT ISZERO PUSH2 0x4F0E JUMPI INVALID JUMPDEST PUSH2 0x4F21 PUSH1 0x1F DUP3 ADD PUSH1 0x1F NOT AND PUSH1 0x20 ADD PUSH2 0x5E0D JUMP JUMPDEST DUP2 DUP2 MSTORE DUP5 PUSH1 0x20 DUP4 DUP7 ADD ADD GT ISZERO PUSH2 0x4F35 JUMPI DUP3 DUP4 REVERT JUMPDEST DUP2 PUSH1 0x20 DUP6 ADD PUSH1 0x20 DUP4 ADD CALLDATACOPY SWAP1 DUP2 ADD PUSH1 0x20 ADD SWAP2 SWAP1 SWAP2 MSTORE SWAP3 SWAP2 POP POP JUMP JUMPDEST DUP1 CALLDATALOAD PUSH1 0x2 DUP2 LT PUSH2 0x60F JUMPI PUSH1 0x0 DUP1 REVERT JUMPDEST PUSH1 0x0 PUSH1 0x80 DUP3 DUP5 SUB SLT ISZERO PUSH2 0x4F6F JUMPI DUP1 DUP2 REVERT JUMPDEST PUSH2 0x4F79 PUSH1 0x80 PUSH2 0x5E0D JUMP JUMPDEST SWAP1 POP DUP2 CALLDATALOAD PUSH1 0x1 PUSH1 0x1 PUSH1 0x40 SHL SUB DUP1 DUP3 GT ISZERO PUSH2 0x4F92 JUMPI PUSH1 0x0 DUP1 REVERT JUMPDEST PUSH2 0x4F9E DUP6 DUP4 DUP7 ADD PUSH2 0x4C85 JUMP JUMPDEST DUP4 MSTORE PUSH1 0x20 DUP5 ADD CALLDATALOAD SWAP2 POP DUP1 DUP3 GT ISZERO PUSH2 0x4FB4 JUMPI PUSH1 0x0 DUP1 REVERT JUMPDEST PUSH2 0x4FC0 DUP6 DUP4 DUP7 ADD PUSH2 0x4E2C JUMP JUMPDEST PUSH1 0x20 DUP5 ADD MSTORE PUSH1 0x40 DUP5 ADD CALLDATALOAD SWAP2 POP DUP1 DUP3 GT ISZERO PUSH2 0x4FD9 JUMPI PUSH1 0x0 DUP1 REVERT JUMPDEST POP PUSH2 0x4FE6 DUP5 DUP3 DUP6 ADD PUSH2 0x4EEB JUMP JUMPDEST PUSH1 0x40 DUP4 ADD MSTORE POP PUSH2 0x4FF8 PUSH1 0x60 DUP4 ADD PUSH2 0x4EE0 JUMP JUMPDEST PUSH1 0x60 DUP3 ADD MSTORE SWAP3 SWAP2 POP POP JUMP JUMPDEST PUSH1 0x0 PUSH1 0x80 DUP3 DUP5 SUB SLT ISZERO PUSH2 0x5014 JUMPI DUP1 DUP2 REVERT JUMPDEST PUSH1 0x40 MLOAD PUSH1 0x80 DUP2 ADD DUP2 DUP2 LT PUSH1 0x1 PUSH1 0x1 PUSH1 0x40 SHL SUB DUP3 GT OR ISZERO PUSH2 0x5030 JUMPI INVALID JUMPDEST PUSH1 0x40 MSTORE SWAP1 POP DUP1 DUP3 CALLDATALOAD PUSH2 0x5041 DUP2 PUSH2 0x5E79 JUMP JUMPDEST DUP2 MSTORE PUSH1 0x20 DUP4 ADD CALLDATALOAD PUSH2 0x5051 DUP2 PUSH2 0x5E8E JUMP JUMPDEST PUSH1 0x20 DUP3 ADD MSTORE PUSH1 0x40 DUP4 ADD CALLDATALOAD PUSH2 0x5064 DUP2 PUSH2 0x5E79 JUMP JUMPDEST PUSH1 0x40 DUP3 ADD MSTORE PUSH1 0x60 DUP4 ADD CALLDATALOAD PUSH2 0x5077 DUP2 PUSH2 0x5E8E JUMP JUMPDEST PUSH1 0x60 SWAP2 SWAP1 SWAP2 ADD MSTORE SWAP3 SWAP2 POP POP JUMP JUMPDEST PUSH1 0x0 PUSH1 0x20 DUP3 DUP5 SUB SLT ISZERO PUSH2 0x5095 JUMPI DUP1 DUP2 REVERT JUMPDEST DUP2 CALLDATALOAD PUSH2 0x169D DUP2 PUSH2 0x5E79 JUMP JUMPDEST PUSH1 0x0 DUP1 PUSH1 0x40 DUP4 DUP6 SUB SLT ISZERO PUSH2 0x50B2 JUMPI DUP1 DUP2 REVERT JUMPDEST DUP3 CALLDATALOAD PUSH2 0x50BD DUP2 PUSH2 0x5E79 JUMP JUMPDEST SWAP2 POP PUSH1 0x20 DUP4 ADD CALLDATALOAD PUSH2 0x50CD DUP2 PUSH2 0x5E79 JUMP JUMPDEST DUP1 SWAP2 POP POP SWAP3 POP SWAP3 SWAP1 POP JUMP JUMPDEST PUSH1 0x0 DUP1 PUSH1 0x0 PUSH1 0x60 DUP5 DUP7 SUB SLT ISZERO PUSH2 0x50EC JUMPI DUP1 DUP2 REVERT JUMPDEST DUP4 CALLDATALOAD PUSH2 0x50F7 DUP2 PUSH2 0x5E79 JUMP JUMPDEST SWAP3 POP PUSH1 0x20 DUP5 ADD CALLDATALOAD PUSH2 0x5107 DUP2 PUSH2 0x5E79 JUMP JUMPDEST SWAP2 POP PUSH1 0x40 DUP5 ADD CALLDATALOAD PUSH2 0x5117 DUP2 PUSH2 0x5E8E JUMP JUMPDEST DUP1 SWAP2 POP POP SWAP3 POP SWAP3 POP SWAP3 JUMP JUMPDEST PUSH1 0x0 DUP1 PUSH1 0x40 DUP4 DUP6 SUB SLT ISZERO PUSH2 0x5134 JUMPI DUP2 DUP3 REVERT JUMPDEST DUP3 CALLDATALOAD PUSH2 0x513F DUP2 PUSH2 0x5E79 JUMP JUMPDEST SWAP2 POP PUSH1 0x20 DUP4 ADD CALLDATALOAD PUSH1 0x1 PUSH1 0x1 PUSH1 0x40 SHL SUB DUP2 GT ISZERO PUSH2 0x5159 JUMPI DUP2 DUP3 REVERT JUMPDEST PUSH2 0x5165 DUP6 DUP3 DUP7 ADD PUSH2 0x4CFA JUMP JUMPDEST SWAP2 POP POP SWAP3 POP SWAP3 SWAP1 POP JUMP JUMPDEST PUSH1 0x0 PUSH1 0x20 DUP1 DUP4 DUP6 SUB SLT ISZERO PUSH2 0x5181 JUMPI DUP2 DUP3 REVERT JUMPDEST DUP3 CALLDATALOAD PUSH1 0x1 PUSH1 0x1 PUSH1 0x40 SHL SUB DUP1 DUP3 GT ISZERO PUSH2 0x5197 JUMPI DUP4 DUP5 REVERT JUMPDEST DUP2 DUP6 ADD SWAP2 POP DUP6 PUSH1 0x1F DUP4 ADD SLT PUSH2 0x51AA JUMPI DUP4 DUP5 REVERT JUMPDEST DUP2 CALLDATALOAD PUSH2 0x51B8 PUSH2 0x4CA5 DUP3 PUSH2 0x5E30 JUMP JUMPDEST DUP2 DUP2 MSTORE DUP5 DUP2 ADD SWAP1 DUP5 DUP7 ADD PUSH1 0x80 DUP1 DUP6 MUL DUP8 ADD DUP9 ADD DUP12 LT ISZERO PUSH2 0x51D6 JUMPI DUP9 DUP10 REVERT JUMPDEST DUP9 SWAP7 POP JUMPDEST DUP5 DUP8 LT ISZERO PUSH2 0x5250 JUMPI DUP1 DUP3 DUP13 SUB SLT ISZERO PUSH2 0x51F0 JUMPI DUP9 DUP10 REVERT JUMPDEST PUSH1 0x40 DUP1 MLOAD DUP3 DUP2 ADD DUP2 DUP2 LT DUP10 DUP3 GT OR ISZERO PUSH2 0x5205 JUMPI INVALID JUMPDEST DUP3 MSTORE DUP4 CALLDATALOAD PUSH2 0x5212 DUP2 PUSH2 0x5E9C JUMP JUMPDEST DUP2 MSTORE DUP4 DUP11 ADD CALLDATALOAD DUP11 DUP3 ADD MSTORE DUP2 DUP5 ADD CALLDATALOAD PUSH2 0x5229 DUP2 PUSH2 0x5E79 JUMP JUMPDEST SWAP2 DUP2 ADD SWAP2 SWAP1 SWAP2 MSTORE PUSH1 0x60 DUP4 DUP2 ADD CALLDATALOAD SWAP1 DUP3 ADD MSTORE DUP5 MSTORE PUSH1 0x1 SWAP7 SWAP1 SWAP7 ADD SWAP6 SWAP3 DUP8 ADD SWAP3 SWAP1 DUP2 ADD SWAP1 PUSH2 0x51DA JUMP JUMPDEST POP SWAP1 SWAP10 SWAP9 POP POP POP POP POP POP POP POP POP JUMP JUMPDEST PUSH1 0x0 PUSH1 0x20 DUP1 DUP4 DUP6 SUB SLT ISZERO PUSH2 0x5271 JUMPI DUP2 DUP3 REVERT JUMPDEST DUP3 CALLDATALOAD PUSH1 0x1 PUSH1 0x1 PUSH1 0x40 SHL SUB DUP1 DUP3 GT ISZERO PUSH2 0x5287 JUMPI DUP4 DUP5 REVERT JUMPDEST DUP2 DUP6 ADD SWAP2 POP DUP6 PUSH1 0x1F DUP4 ADD SLT PUSH2 0x529A JUMPI DUP4 DUP5 REVERT JUMPDEST DUP2 CALLDATALOAD PUSH2 0x52A8 PUSH2 0x4CA5 DUP3 PUSH2 0x5E30 JUMP JUMPDEST DUP2 DUP2 MSTORE DUP5 DUP2 ADD SWAP1 DUP5 DUP7 ADD PUSH1 0xA0 DUP1 DUP6 MUL DUP8 ADD DUP9 ADD DUP12 LT ISZERO PUSH2 0x52C6 JUMPI DUP9 DUP10 REVERT JUMPDEST DUP9 SWAP7 POP JUMPDEST DUP5 DUP8 LT ISZERO PUSH2 0x5250 JUMPI DUP1 DUP3 DUP13 SUB SLT ISZERO PUSH2 0x52E0 JUMPI DUP9 DUP10 REVERT JUMPDEST PUSH1 0x40 DUP1 MLOAD DUP3 DUP2 ADD DUP2 DUP2 LT DUP10 DUP3 GT OR ISZERO PUSH2 0x52F5 JUMPI INVALID JUMPDEST DUP3 MSTORE DUP4 CALLDATALOAD PUSH1 0x4 DUP2 LT PUSH2 0x5305 JUMPI DUP12 DUP13 REVERT JUMPDEST DUP2 MSTORE PUSH2 0x5312 DUP5 DUP12 ADD PUSH2 0x4C7A JUMP JUMPDEST DUP11 DUP3 ADD MSTORE DUP2 DUP5 ADD CALLDATALOAD DUP3 DUP3 ADD MSTORE PUSH1 0x60 SWAP2 POP PUSH2 0x532D DUP3 DUP6 ADD PUSH2 0x4C7A JUMP JUMPDEST DUP3 DUP3 ADD MSTORE PUSH1 0x80 SWAP2 POP PUSH2 0x5340 DUP3 DUP6 ADD PUSH2 0x4C7A JUMP JUMPDEST SWAP2 DUP2 ADD SWAP2 SWAP1 SWAP2 MSTORE DUP5 MSTORE PUSH1 0x1 SWAP7 SWAP1 SWAP7 ADD SWAP6 SWAP3 DUP8 ADD SWAP3 SWAP1 DUP2 ADD SWAP1 PUSH2 0x52CA JUMP JUMPDEST PUSH1 0x0 DUP1 PUSH1 0x40 DUP4 DUP6 SUB SLT ISZERO PUSH2 0x536F JUMPI DUP2 DUP3 REVERT JUMPDEST DUP3 MLOAD PUSH1 0x1 PUSH1 0x1 PUSH1 0x40 SHL SUB DUP1 DUP3 GT ISZERO PUSH2 0x5385 JUMPI DUP4 DUP5 REVERT JUMPDEST PUSH2 0x5391 DUP7 DUP4 DUP8 ADD PUSH2 0x4E86 JUMP JUMPDEST SWAP4 POP PUSH1 0x20 DUP6 ADD MLOAD SWAP2 POP DUP1 DUP3 GT ISZERO PUSH2 0x53A6 JUMPI DUP3 DUP4 REVERT JUMPDEST POP PUSH2 0x5165 DUP6 DUP3 DUP7 ADD PUSH2 0x4E86 JUMP JUMPDEST PUSH1 0x0 PUSH1 0x20 DUP3 DUP5 SUB SLT ISZERO PUSH2 0x53C4 JUMPI DUP1 DUP2 REVERT JUMPDEST DUP2 CALLDATALOAD PUSH2 0x169D DUP2 PUSH2 0x5E8E JUMP JUMPDEST PUSH1 0x0 PUSH1 0x20 DUP3 DUP5 SUB SLT ISZERO PUSH2 0x53E0 JUMPI DUP1 DUP2 REVERT JUMPDEST DUP2 MLOAD PUSH2 0x169D DUP2 PUSH2 0x5E8E JUMP JUMPDEST PUSH1 0x0 PUSH1 0x20 DUP3 DUP5 SUB SLT ISZERO PUSH2 0x53FC JUMPI DUP1 DUP2 REVERT JUMPDEST POP CALLDATALOAD SWAP2 SWAP1 POP JUMP JUMPDEST PUSH1 0x0 DUP1 PUSH1 0x0 DUP1 PUSH1 0x80 DUP6 DUP8 SUB SLT ISZERO PUSH2 0x5418 JUMPI DUP2 DUP3 REVERT JUMPDEST DUP5 CALLDATALOAD SWAP4 POP PUSH1 0x20 DUP6 ADD CALLDATALOAD PUSH2 0x542A DUP2 PUSH2 0x5E79 JUMP JUMPDEST SWAP3 POP PUSH1 0x40 DUP6 ADD CALLDATALOAD PUSH2 0x543A DUP2 PUSH2 0x5E79 JUMP JUMPDEST SWAP2 POP PUSH1 0x60 DUP6 ADD CALLDATALOAD PUSH1 0x1 PUSH1 0x1 PUSH1 0x40 SHL SUB DUP2 GT ISZERO PUSH2 0x5454 JUMPI DUP2 DUP3 REVERT JUMPDEST PUSH2 0x5460 DUP8 DUP3 DUP9 ADD PUSH2 0x4F5E JUMP JUMPDEST SWAP2 POP POP SWAP3 SWAP6 SWAP2 SWAP5 POP SWAP3 POP JUMP JUMPDEST PUSH1 0x0 DUP1 PUSH1 0x40 DUP4 DUP6 SUB SLT ISZERO PUSH2 0x547E JUMPI DUP2 DUP3 REVERT JUMPDEST DUP3 CALLDATALOAD SWAP2 POP PUSH1 0x20 DUP4 ADD CALLDATALOAD PUSH1 0x1 PUSH1 0x1 PUSH1 0x40 SHL SUB DUP2 GT ISZERO PUSH2 0x5159 JUMPI DUP2 DUP3 REVERT JUMPDEST PUSH1 0x0 DUP1 PUSH1 0x0 PUSH1 0x60 DUP5 DUP7 SUB SLT ISZERO PUSH2 0x54AE JUMPI DUP1 DUP2 REVERT JUMPDEST DUP4 CALLDATALOAD SWAP3 POP PUSH1 0x20 DUP1 DUP6 ADD CALLDATALOAD PUSH1 0x1 PUSH1 0x1 PUSH1 0x40 SHL SUB DUP1 DUP3 GT ISZERO PUSH2 0x54CC JUMPI DUP4 DUP5 REVERT JUMPDEST PUSH2 0x54D8 DUP9 DUP4 DUP10 ADD PUSH2 0x4CFA JUMP JUMPDEST SWAP5 POP PUSH1 0x40 DUP8 ADD CALLDATALOAD SWAP2 POP DUP1 DUP3 GT ISZERO PUSH2 0x54ED JUMPI DUP4 DUP5 REVERT JUMPDEST POP DUP6 ADD PUSH1 0x1F DUP2 ADD DUP8 SGT PUSH2 0x54FE JUMPI DUP3 DUP4 REVERT JUMPDEST DUP1 CALLDATALOAD PUSH2 0x550C PUSH2 0x4CA5 DUP3 PUSH2 0x5E30 JUMP JUMPDEST DUP2 DUP2 MSTORE DUP4 DUP2 ADD SWAP1 DUP4 DUP6 ADD DUP6 DUP5 MUL DUP6 ADD DUP7 ADD DUP12 LT ISZERO PUSH2 0x5528 JUMPI DUP7 DUP8 REVERT JUMPDEST DUP7 SWAP5 POP JUMPDEST DUP4 DUP6 LT ISZERO PUSH2 0x5553 JUMPI DUP1 CALLDATALOAD PUSH2 0x553F DUP2 PUSH2 0x5E79 JUMP JUMPDEST DUP4 MSTORE PUSH1 0x1 SWAP5 SWAP1 SWAP5 ADD SWAP4 SWAP2 DUP6 ADD SWAP2 DUP6 ADD PUSH2 0x552C JUMP JUMPDEST POP DUP1 SWAP6 POP POP POP POP POP POP SWAP3 POP SWAP3 POP SWAP3 JUMP JUMPDEST PUSH1 0x0 DUP1 PUSH1 0x40 DUP4 DUP6 SUB SLT ISZERO PUSH2 0x5575 JUMPI DUP2 DUP3 REVERT JUMPDEST DUP3 CALLDATALOAD SWAP2 POP PUSH1 0x20 DUP4 ADD CALLDATALOAD PUSH2 0x50CD DUP2 PUSH2 0x5E79 JUMP JUMPDEST PUSH1 0x0 PUSH1 0x20 DUP3 DUP5 SUB SLT ISZERO PUSH2 0x5598 JUMPI DUP1 DUP2 REVERT JUMPDEST DUP2 CALLDATALOAD PUSH1 0x1 PUSH1 0x1 PUSH1 0xE0 SHL SUB NOT DUP2 AND DUP2 EQ PUSH2 0x169D JUMPI DUP2 DUP3 REVERT JUMPDEST PUSH1 0x0 DUP1 PUSH1 0x0 DUP1 PUSH1 0x80 DUP6 DUP8 SUB SLT ISZERO PUSH2 0x55C4 JUMPI DUP2 DUP3 REVERT JUMPDEST DUP5 CALLDATALOAD PUSH2 0x55CF DUP2 PUSH2 0x5E79 JUMP JUMPDEST SWAP4 POP PUSH1 0x20 DUP6 ADD CALLDATALOAD PUSH1 0x1 PUSH1 0x1 PUSH1 0x40 SHL SUB DUP1 DUP3 GT ISZERO PUSH2 0x55EA JUMPI DUP4 DUP5 REVERT JUMPDEST PUSH2 0x55F6 DUP9 DUP4 DUP10 ADD PUSH2 0x4CFA JUMP JUMPDEST SWAP5 POP PUSH1 0x40 DUP8 ADD CALLDATALOAD SWAP2 POP DUP1 DUP3 GT ISZERO PUSH2 0x560B JUMPI DUP4 DUP5 REVERT JUMPDEST PUSH2 0x5617 DUP9 DUP4 DUP10 ADD PUSH2 0x4E2C JUMP JUMPDEST SWAP4 POP PUSH1 0x60 DUP8 ADD CALLDATALOAD SWAP2 POP DUP1 DUP3 GT ISZERO PUSH2 0x562C JUMPI DUP3 DUP4 REVERT JUMPDEST POP PUSH2 0x5460 DUP8 DUP3 DUP9 ADD PUSH2 0x4EEB JUMP JUMPDEST PUSH1 0x0 PUSH1 0x20 DUP3 DUP5 SUB SLT ISZERO PUSH2 0x564A JUMPI DUP1 DUP2 REVERT JUMPDEST DUP2 CALLDATALOAD PUSH2 0x169D DUP2 PUSH2 0x5E9C JUMP JUMPDEST PUSH1 0x0 DUP1 PUSH1 0x0 DUP1 PUSH1 0xE0 DUP6 DUP8 SUB SLT ISZERO PUSH2 0x566A JUMPI DUP2 DUP3 REVERT JUMPDEST PUSH2 0x5673 DUP6 PUSH2 0x4F4F JUMP JUMPDEST SWAP4 POP PUSH1 0x20 DUP6 ADD CALLDATALOAD PUSH1 0x1 PUSH1 0x1 PUSH1 0x40 SHL SUB DUP1 DUP3 GT ISZERO PUSH2 0x568E JUMPI DUP4 DUP5 REVERT JUMPDEST PUSH2 0x569A DUP9 DUP4 DUP10 ADD PUSH2 0x4D5D JUMP JUMPDEST SWAP5 POP PUSH1 0x40 DUP8 ADD CALLDATALOAD SWAP2 POP DUP1 DUP3 GT ISZERO PUSH2 0x56AF JUMPI DUP4 DUP5 REVERT JUMPDEST POP PUSH2 0x56BC DUP8 DUP3 DUP9 ADD PUSH2 0x4C85 JUMP JUMPDEST SWAP3 POP POP PUSH2 0x56CC DUP7 PUSH1 0x60 DUP8 ADD PUSH2 0x5003 JUMP JUMPDEST SWAP1 POP SWAP3 SWAP6 SWAP2 SWAP5 POP SWAP3 POP JUMP JUMPDEST PUSH1 0x0 DUP1 PUSH1 0x0 DUP1 PUSH1 0x0 DUP1 PUSH2 0x120 DUP8 DUP10 SUB SLT ISZERO PUSH2 0x56F0 JUMPI DUP4 DUP5 REVERT JUMPDEST PUSH2 0x56F9 DUP8 PUSH2 0x4F4F JUMP JUMPDEST SWAP6 POP PUSH1 0x20 DUP1 DUP9 ADD CALLDATALOAD PUSH1 0x1 PUSH1 0x1 PUSH1 0x40 SHL SUB DUP1 DUP3 GT ISZERO PUSH2 0x5715 JUMPI DUP7 DUP8 REVERT JUMPDEST PUSH2 0x5721 DUP12 DUP4 DUP13 ADD PUSH2 0x4D5D JUMP JUMPDEST SWAP8 POP PUSH1 0x40 DUP11 ADD CALLDATALOAD SWAP2 POP DUP1 DUP3 GT ISZERO PUSH2 0x5736 JUMPI DUP7 DUP8 REVERT JUMPDEST PUSH2 0x5742 DUP12 DUP4 DUP13 ADD PUSH2 0x4C85 JUMP JUMPDEST SWAP7 POP PUSH2 0x5751 DUP12 PUSH1 0x60 DUP13 ADD PUSH2 0x5003 JUMP JUMPDEST SWAP6 POP PUSH1 0xE0 DUP11 ADD CALLDATALOAD SWAP2 POP DUP1 DUP3 GT ISZERO PUSH2 0x5766 JUMPI DUP5 DUP6 REVERT JUMPDEST POP DUP9 ADD PUSH1 0x1F DUP2 ADD DUP11 SGT PUSH2 0x5777 JUMPI DUP4 DUP5 REVERT JUMPDEST DUP1 CALLDATALOAD PUSH2 0x5785 PUSH2 0x4CA5 DUP3 PUSH2 0x5E30 JUMP JUMPDEST DUP2 DUP2 MSTORE DUP4 DUP2 ADD SWAP1 DUP4 DUP6 ADD DUP6 DUP5 MUL DUP6 ADD DUP7 ADD DUP15 LT ISZERO PUSH2 0x57A1 JUMPI DUP8 DUP9 REVERT JUMPDEST DUP8 SWAP5 POP JUMPDEST DUP4 DUP6 LT ISZERO PUSH2 0x57C3 JUMPI DUP1 CALLDATALOAD DUP4 MSTORE PUSH1 0x1 SWAP5 SWAP1 SWAP5 ADD SWAP4 SWAP2 DUP6 ADD SWAP2 DUP6 ADD PUSH2 0x57A5 JUMP JUMPDEST POP DUP1 SWAP7 POP POP POP POP POP POP PUSH2 0x100 DUP8 ADD CALLDATALOAD SWAP1 POP SWAP3 SWAP6 POP SWAP3 SWAP6 POP SWAP3 SWAP6 JUMP JUMPDEST PUSH1 0x0 DUP1 PUSH1 0x0 DUP1 PUSH1 0xE0 DUP6 DUP8 SUB SLT ISZERO PUSH2 0x57F3 JUMPI DUP2 DUP3 REVERT JUMPDEST DUP5 CALLDATALOAD PUSH1 0x1 PUSH1 0x1 PUSH1 0x40 SHL SUB DUP1 DUP3 GT ISZERO PUSH2 0x5809 JUMPI DUP4 DUP5 REVERT JUMPDEST SWAP1 DUP7 ADD SWAP1 PUSH1 0xC0 DUP3 DUP10 SUB SLT ISZERO PUSH2 0x581C JUMPI DUP4 DUP5 REVERT JUMPDEST PUSH1 0x40 MLOAD PUSH1 0xC0 DUP2 ADD DUP2 DUP2 LT DUP4 DUP3 GT OR ISZERO PUSH2 0x5831 JUMPI INVALID JUMPDEST PUSH1 0x40 MSTORE DUP3 CALLDATALOAD DUP2 MSTORE PUSH2 0x5844 PUSH1 0x20 DUP5 ADD PUSH2 0x4F4F JUMP JUMPDEST PUSH1 0x20 DUP3 ADD MSTORE PUSH2 0x5855 PUSH1 0x40 DUP5 ADD PUSH2 0x4C7A JUMP JUMPDEST PUSH1 0x40 DUP3 ADD MSTORE PUSH2 0x5866 PUSH1 0x60 DUP5 ADD PUSH2 0x4C7A JUMP JUMPDEST PUSH1 0x60 DUP3 ADD MSTORE PUSH1 0x80 DUP4 ADD CALLDATALOAD PUSH1 0x80 DUP3 ADD MSTORE PUSH1 0xA0 DUP4 ADD CALLDATALOAD DUP3 DUP2 GT ISZERO PUSH2 0x5886 JUMPI DUP6 DUP7 REVERT JUMPDEST PUSH2 0x5892 DUP11 DUP3 DUP7 ADD PUSH2 0x4EEB JUMP JUMPDEST PUSH1 0xA0 DUP4 ADD MSTORE POP DUP1 SWAP7 POP POP POP POP PUSH2 0x58AB DUP7 PUSH1 0x20 DUP8 ADD PUSH2 0x5003 JUMP JUMPDEST SWAP4 SWAP7 SWAP4 SWAP6 POP POP POP POP PUSH1 0xA0 DUP3 ADD CALLDATALOAD SWAP2 PUSH1 0xC0 ADD CALLDATALOAD SWAP1 JUMP JUMPDEST PUSH1 0x0 PUSH1 0x20 DUP3 DUP5 SUB SLT ISZERO PUSH2 0x58D1 JUMPI DUP1 DUP2 REVERT JUMPDEST POP MLOAD SWAP2 SWAP1 POP JUMP JUMPDEST PUSH1 0x1 PUSH1 0x1 PUSH1 0xA0 SHL SUB AND SWAP1 MSTORE JUMP JUMPDEST PUSH1 0x0 DUP2 MLOAD DUP1 DUP5 MSTORE PUSH1 0x20 DUP1 DUP6 ADD SWAP5 POP DUP1 DUP5 ADD DUP4 JUMPDEST DUP4 DUP2 LT ISZERO PUSH2 0x591D JUMPI DUP2 MLOAD PUSH1 0x1 PUSH1 0x1 PUSH1 0xA0 SHL SUB AND DUP8 MSTORE SWAP6 DUP3 ADD SWAP6 SWAP1 DUP3 ADD SWAP1 PUSH1 0x1 ADD PUSH2 0x58F8 JUMP JUMPDEST POP SWAP5 SWAP6 SWAP5 POP POP POP POP POP JUMP JUMPDEST PUSH1 0x0 DUP2 MLOAD DUP1 DUP5 MSTORE PUSH1 0x20 DUP1 DUP6 ADD SWAP5 POP DUP1 DUP5 ADD DUP4 JUMPDEST DUP4 DUP2 LT ISZERO PUSH2 0x591D JUMPI DUP2 MLOAD DUP8 MSTORE SWAP6 DUP3 ADD SWAP6 SWAP1 DUP3 ADD SWAP1 PUSH1 0x1 ADD PUSH2 0x593B JUMP JUMPDEST PUSH1 0x0 DUP2 MLOAD DUP1 DUP5 MSTORE PUSH2 0x596F DUP2 PUSH1 0x20 DUP7 ADD PUSH1 0x20 DUP7 ADD PUSH2 0x5E4D JUMP JUMPDEST PUSH1 0x1F ADD PUSH1 0x1F NOT AND SWAP3 SWAP1 SWAP3 ADD PUSH1 0x20 ADD SWAP3 SWAP2 POP POP JUMP JUMPDEST PUSH1 0x3 DUP2 LT PUSH2 0x598D JUMPI INVALID JUMPDEST SWAP1 MSTORE JUMP JUMPDEST PUSH1 0x0 PUSH2 0x120 DUP3 MLOAD PUSH1 0x2 DUP2 LT PUSH2 0x59A2 JUMPI INVALID JUMPDEST DUP1 DUP6 MSTORE POP PUSH1 0x20 DUP4 ADD MLOAD PUSH2 0x59B8 PUSH1 0x20 DUP7 ADD DUP3 PUSH2 0x58D8 JUMP JUMPDEST POP PUSH1 0x40 DUP4 ADD MLOAD PUSH2 0x59CB PUSH1 0x40 DUP7 ADD DUP3 PUSH2 0x58D8 JUMP JUMPDEST POP PUSH1 0x60 DUP4 ADD MLOAD PUSH1 0x60 DUP6 ADD MSTORE PUSH1 0x80 DUP4 ADD MLOAD PUSH1 0x80 DUP6 ADD MSTORE PUSH1 0xA0 DUP4 ADD MLOAD PUSH1 0xA0 DUP6 ADD MSTORE PUSH1 0xC0 DUP4 ADD MLOAD PUSH2 0x59FC PUSH1 0xC0 DUP7 ADD DUP3 PUSH2 0x58D8 JUMP JUMPDEST POP PUSH1 0xE0 DUP4 ADD MLOAD PUSH2 0x5A0F PUSH1 0xE0 DUP7 ADD DUP3 PUSH2 0x58D8 JUMP JUMPDEST POP PUSH2 0x100 DUP1 DUP5 ADD MLOAD DUP3 DUP3 DUP8 ADD MSTORE PUSH2 0x126A DUP4 DUP8 ADD DUP3 PUSH2 0x5957 JUMP JUMPDEST SWAP2 DUP3 MSTORE PUSH1 0x1 PUSH1 0x1 PUSH1 0xE0 SHL SUB NOT AND PUSH1 0x20 DUP3 ADD MSTORE PUSH1 0x24 ADD SWAP1 JUMP JUMPDEST PUSH1 0x0 DUP3 DUP5 DUP4 CALLDATACOPY SWAP2 ADD SWAP1 DUP2 MSTORE SWAP2 SWAP1 POP JUMP JUMPDEST PUSH1 0x0 DUP3 MLOAD PUSH2 0x5A62 DUP2 DUP5 PUSH1 0x20 DUP8 ADD PUSH2 0x5E4D JUMP JUMPDEST SWAP2 SWAP1 SWAP2 ADD SWAP3 SWAP2 POP POP JUMP JUMPDEST PUSH12 0xFFFFFFFFFFFFFFFFFFFFFFFF NOT PUSH1 0x60 SWAP4 DUP5 SHL DUP2 AND DUP3 MSTORE SWAP2 SWAP1 SWAP3 SHL AND PUSH1 0x14 DUP3 ADD MSTORE PUSH1 0x28 ADD SWAP1 JUMP JUMPDEST PUSH2 0x1901 PUSH1 0xF0 SHL DUP2 MSTORE PUSH1 0x2 DUP2 ADD SWAP3 SWAP1 SWAP3 MSTORE PUSH1 0x22 DUP3 ADD MSTORE PUSH1 0x42 ADD SWAP1 JUMP JUMPDEST PUSH1 0x1 PUSH1 0x1 PUSH1 0xA0 SHL SUB SWAP2 SWAP1 SWAP2 AND DUP2 MSTORE PUSH1 0x20 ADD SWAP1 JUMP JUMPDEST PUSH1 0x1 PUSH1 0x1 PUSH1 0xA0 SHL SUB SWAP4 DUP5 AND DUP2 MSTORE SWAP2 SWAP1 SWAP3 AND PUSH1 0x20 DUP3 ADD MSTORE PUSH1 0x40 DUP2 ADD SWAP2 SWAP1 SWAP2 MSTORE PUSH1 0x60 ADD SWAP1 JUMP JUMPDEST PUSH1 0x1 PUSH1 0x1 PUSH1 0xA0 SHL SUB DUP4 AND DUP2 MSTORE PUSH1 0x40 DUP2 ADD PUSH2 0x17F0 PUSH1 0x20 DUP4 ADD DUP5 PUSH2 0x5983 JUMP JUMPDEST PUSH1 0x1 PUSH1 0x1 PUSH1 0xA0 SHL SUB SWAP3 SWAP1 SWAP3 AND DUP3 MSTORE PUSH1 0x20 DUP3 ADD MSTORE PUSH1 0x40 ADD SWAP1 JUMP JUMPDEST PUSH1 0x0 PUSH1 0x20 DUP3 MSTORE PUSH2 0x169D PUSH1 0x20 DUP4 ADD DUP5 PUSH2 0x58E5 JUMP JUMPDEST PUSH1 0x0 PUSH1 0x40 DUP3 MSTORE PUSH2 0x5B42 PUSH1 0x40 DUP4 ADD DUP6 PUSH2 0x58E5 JUMP JUMPDEST DUP3 DUP2 SUB PUSH1 0x20 DUP5 DUP2 ADD SWAP2 SWAP1 SWAP2 MSTORE DUP5 MLOAD DUP1 DUP4 MSTORE DUP6 DUP3 ADD SWAP3 DUP3 ADD SWAP1 DUP5 JUMPDEST DUP2 DUP2 LT ISZERO PUSH2 0x4CED JUMPI DUP5 MLOAD PUSH1 0x1 PUSH1 0x1 PUSH1 0xA0 SHL SUB AND DUP4 MSTORE SWAP4 DUP4 ADD SWAP4 SWAP2 DUP4 ADD SWAP2 PUSH1 0x1 ADD PUSH2 0x5B5C JUMP JUMPDEST PUSH1 0x0 PUSH1 0x60 DUP3 MSTORE PUSH2 0x5B94 PUSH1 0x60 DUP4 ADD DUP7 PUSH2 0x58E5 JUMP JUMPDEST DUP3 DUP2 SUB PUSH1 0x20 DUP5 ADD MSTORE PUSH2 0x5BA6 DUP2 DUP7 PUSH2 0x5928 JUMP JUMPDEST SWAP1 POP DUP3 DUP2 SUB PUSH1 0x40 DUP5 ADD MSTORE PUSH2 0x126A DUP2 DUP6 PUSH2 0x5928 JUMP JUMPDEST PUSH1 0x0 PUSH1 0x80 DUP3 MSTORE PUSH2 0x5BCD PUSH1 0x80 DUP4 ADD DUP8 PUSH2 0x58E5 JUMP JUMPDEST DUP3 DUP2 SUB PUSH1 0x20 DUP5 ADD MSTORE PUSH2 0x5BDF DUP2 DUP8 PUSH2 0x5928 JUMP JUMPDEST SWAP1 POP DUP3 DUP2 SUB PUSH1 0x40 DUP5 ADD MSTORE PUSH2 0x5BF3 DUP2 DUP7 PUSH2 0x5928 JUMP JUMPDEST SWAP1 POP DUP3 DUP2 SUB PUSH1 0x60 DUP5 ADD MSTORE PUSH2 0x4ACC DUP2 DUP6 PUSH2 0x5957 JUMP JUMPDEST PUSH1 0x0 PUSH1 0x60 DUP3 MSTORE PUSH2 0x5C1A PUSH1 0x60 DUP4 ADD DUP7 PUSH2 0x58E5 JUMP JUMPDEST DUP3 DUP2 SUB PUSH1 0x20 DUP5 ADD MSTORE PUSH2 0x5C2C DUP2 DUP7 PUSH2 0x5928 JUMP JUMPDEST SWAP2 POP POP DUP3 PUSH1 0x40 DUP4 ADD MSTORE SWAP5 SWAP4 POP POP POP POP JUMP JUMPDEST PUSH1 0x0 PUSH1 0x20 DUP3 MSTORE PUSH2 0x169D PUSH1 0x20 DUP4 ADD DUP5 PUSH2 0x5928 JUMP JUMPDEST SWAP1 ISZERO ISZERO DUP2 MSTORE PUSH1 0x20 ADD SWAP1 JUMP JUMPDEST SWAP3 ISZERO ISZERO DUP4 MSTORE PUSH1 0x20 DUP4 ADD SWAP2 SWAP1 SWAP2 MSTORE PUSH1 0x40 DUP3 ADD MSTORE PUSH1 0x60 ADD SWAP1 JUMP JUMPDEST SWAP1 DUP2 MSTORE PUSH1 0x20 ADD SWAP1 JUMP JUMPDEST SWAP3 DUP4 MSTORE PUSH1 0x1 PUSH1 0x1 PUSH1 0xA0 SHL SUB SWAP2 DUP3 AND PUSH1 0x20 DUP5 ADD MSTORE AND PUSH1 0x40 DUP3 ADD MSTORE PUSH1 0x60 ADD SWAP1 JUMP JUMPDEST DUP8 DUP2 MSTORE PUSH1 0x1 PUSH1 0x1 PUSH1 0xA0 SHL SUB DUP8 DUP2 AND PUSH1 0x20 DUP4 ADD MSTORE DUP7 AND PUSH1 0x40 DUP3 ADD MSTORE PUSH1 0xE0 PUSH1 0x60 DUP3 ADD DUP2 SWAP1 MSTORE PUSH1 0x0 SWAP1 PUSH2 0x5CCD SWAP1 DUP4 ADD DUP8 PUSH2 0x5928 JUMP JUMPDEST DUP6 PUSH1 0x80 DUP5 ADD MSTORE DUP5 PUSH1 0xA0 DUP5 ADD MSTORE DUP3 DUP2 SUB PUSH1 0xC0 DUP5 ADD MSTORE PUSH2 0x5CEB DUP2 DUP6 PUSH2 0x5957 JUMP JUMPDEST SWAP11 SWAP10 POP POP POP POP POP POP POP POP POP POP JUMP JUMPDEST SWAP5 DUP6 MSTORE PUSH1 0x20 DUP6 ADD SWAP4 SWAP1 SWAP4 MSTORE PUSH1 0x1 PUSH1 0x1 PUSH1 0xA0 SHL SUB SWAP2 SWAP1 SWAP2 AND PUSH1 0x40 DUP5 ADD MSTORE PUSH1 0x60 DUP4 ADD MSTORE PUSH1 0x80 DUP3 ADD MSTORE PUSH1 0xA0 ADD SWAP1 JUMP JUMPDEST SWAP5 DUP6 MSTORE PUSH1 0x20 DUP6 ADD SWAP4 SWAP1 SWAP4 MSTORE PUSH1 0x40 DUP5 ADD SWAP2 SWAP1 SWAP2 MSTORE PUSH1 0x60 DUP4 ADD MSTORE PUSH1 0x1 PUSH1 0x1 PUSH1 0xA0 SHL SUB AND PUSH1 0x80 DUP3 ADD MSTORE PUSH1 0xA0 ADD SWAP1 JUMP JUMPDEST SWAP4 DUP5 MSTORE PUSH1 0xFF SWAP3 SWAP1 SWAP3 AND PUSH1 0x20 DUP5 ADD MSTORE PUSH1 0x40 DUP4 ADD MSTORE PUSH1 0x60 DUP3 ADD MSTORE PUSH1 0x80 ADD SWAP1 JUMP JUMPDEST PUSH1 0x20 DUP2 ADD PUSH2 0x16A0 DUP3 DUP5 PUSH2 0x5983 JUMP JUMPDEST SWAP2 DUP3 MSTORE PUSH1 0x20 DUP3 ADD MSTORE PUSH1 0x40 ADD SWAP1 JUMP JUMPDEST PUSH1 0x0 PUSH1 0x80 DUP3 MSTORE PUSH2 0x5D9E PUSH1 0x80 DUP4 ADD DUP8 PUSH2 0x5991 JUMP JUMPDEST DUP3 DUP2 SUB PUSH1 0x20 DUP5 ADD MSTORE PUSH2 0x5DB0 DUP2 DUP8 PUSH2 0x5928 JUMP JUMPDEST PUSH1 0x40 DUP5 ADD SWAP6 SWAP1 SWAP6 MSTORE POP POP PUSH1 0x60 ADD MSTORE SWAP3 SWAP2 POP POP JUMP JUMPDEST PUSH1 0x0 PUSH1 0x60 DUP3 MSTORE PUSH2 0x5DD7 PUSH1 0x60 DUP4 ADD DUP7 PUSH2 0x5991 JUMP JUMPDEST PUSH1 0x20 DUP4 ADD SWAP5 SWAP1 SWAP5 MSTORE POP PUSH1 0x40 ADD MSTORE SWAP2 SWAP1 POP JUMP JUMPDEST SWAP4 DUP5 MSTORE PUSH1 0x20 DUP5 ADD SWAP3 SWAP1 SWAP3 MSTORE PUSH1 0x40 DUP4 ADD MSTORE PUSH1 0x1 PUSH1 0x1 PUSH1 0xA0 SHL SUB AND PUSH1 0x60 DUP3 ADD MSTORE PUSH1 0x80 ADD SWAP1 JUMP JUMPDEST PUSH1 0x40 MLOAD DUP2 DUP2 ADD PUSH1 0x1 PUSH1 0x1 PUSH1 0x40 SHL SUB DUP2 GT DUP3 DUP3 LT OR ISZERO PUSH2 0x5E28 JUMPI INVALID JUMPDEST PUSH1 0x40 MSTORE SWAP2 SWAP1 POP JUMP JUMPDEST PUSH1 0x0 PUSH1 0x1 PUSH1 0x1 PUSH1 0x40 SHL SUB DUP3 GT ISZERO PUSH2 0x5E43 JUMPI INVALID JUMPDEST POP PUSH1 0x20 SWAP1 DUP2 MUL ADD SWAP1 JUMP JUMPDEST PUSH1 0x0 JUMPDEST DUP4 DUP2 LT ISZERO PUSH2 0x5E68 JUMPI DUP2 DUP2 ADD MLOAD DUP4 DUP3 ADD MSTORE PUSH1 0x20 ADD PUSH2 0x5E50 JUMP JUMPDEST DUP4 DUP2 GT ISZERO PUSH2 0xDC4 JUMPI POP POP PUSH1 0x0 SWAP2 ADD MSTORE JUMP JUMPDEST PUSH1 0x1 PUSH1 0x1 PUSH1 0xA0 SHL SUB DUP2 AND DUP2 EQ PUSH2 0x55E JUMPI PUSH1 0x0 DUP1 REVERT JUMPDEST DUP1 ISZERO ISZERO DUP2 EQ PUSH2 0x55E JUMPI PUSH1 0x0 DUP1 REVERT JUMPDEST PUSH1 0x3 DUP2 LT PUSH2 0x55E JUMPI PUSH1 0x0 DUP1 REVERT INVALID LOG2 PUSH5 0x6970667358 0x22 SLT KECCAK256 DUP15 0xD6 SWAP7 CALLCODE 0xD0 0xD1 0xF9 REVERT 0x2B MSTORE BLOCKHASH 0xD KECCAK256 PUSH30 0x9B4D76F9E107E084EF636199145FD3CD07B764736F6C6343000706003360 0xC0 PUSH1 0x40 MSTORE CALLVALUE DUP1 ISZERO PUSH2 0x10 JUMPI PUSH1 0x0 DUP1 REVERT JUMPDEST POP PUSH1 0x40 MLOAD PUSH2 0xB21 CODESIZE SUB DUP1 PUSH2 0xB21 DUP4 CODECOPY DUP2 ADD PUSH1 0x40 DUP2 SWAP1 MSTORE PUSH2 0x2F SWAP2 PUSH2 0x4D JUMP JUMPDEST ADDRESS PUSH1 0x80 MSTORE PUSH1 0x1 PUSH1 0x0 SSTORE PUSH1 0x60 SHL PUSH1 0x1 PUSH1 0x1 PUSH1 0x60 SHL SUB NOT AND PUSH1 0xA0 MSTORE PUSH2 0x7B JUMP JUMPDEST PUSH1 0x0 PUSH1 0x20 DUP3 DUP5 SUB SLT ISZERO PUSH2 0x5E JUMPI DUP1 DUP2 REVERT JUMPDEST DUP2 MLOAD PUSH1 0x1 PUSH1 0x1 PUSH1 0xA0 SHL SUB DUP2 AND DUP2 EQ PUSH2 0x74 JUMPI DUP2 DUP3 REVERT JUMPDEST SWAP4 SWAP3 POP POP POP JUMP JUMPDEST PUSH1 0x80 MLOAD PUSH1 0xA0 MLOAD PUSH1 0x60 SHR PUSH2 0xA7B PUSH2 0xA6 PUSH1 0x0 CODECOPY DUP1 PUSH2 0x404 MSTORE DUP1 PUSH2 0x4F5 MSTORE POP DUP1 PUSH2 0x297 MSTORE POP PUSH2 0xA7B PUSH1 0x0 RETURN INVALID PUSH1 0x80 PUSH1 0x40 MSTORE CALLVALUE DUP1 ISZERO PUSH2 0x10 JUMPI PUSH1 0x0 DUP1 REVERT JUMPDEST POP PUSH1 0x4 CALLDATASIZE LT PUSH2 0x93 JUMPI PUSH1 0x0 CALLDATALOAD PUSH1 0xE0 SHR DUP1 PUSH4 0x851C1BB3 GT PUSH2 0x66 JUMPI DUP1 PUSH4 0x851C1BB3 EQ PUSH2 0xF1 JUMPI DUP1 PUSH4 0xAAABADC5 EQ PUSH2 0x104 JUMPI DUP1 PUSH4 0xD877845C EQ PUSH2 0x119 JUMPI DUP1 PUSH4 0xE42ABF35 EQ PUSH2 0x121 JUMPI DUP1 PUSH4 0xFBFA77CF EQ PUSH2 0x141 JUMPI PUSH2 0x93 JUMP JUMPDEST DUP1 PUSH4 0x38E9922E EQ PUSH2 0x98 JUMPI DUP1 PUSH4 0x55C67628 EQ PUSH2 0xAD JUMPI DUP1 PUSH4 0x6B6B9F69 EQ PUSH2 0xCB JUMPI DUP1 PUSH4 0x6DAEFAB6 EQ PUSH2 0xDE JUMPI JUMPDEST PUSH1 0x0 DUP1 REVERT JUMPDEST PUSH2 0xAB PUSH2 0xA6 CALLDATASIZE PUSH1 0x4 PUSH2 0x916 JUMP JUMPDEST PUSH2 0x149 JUMP JUMPDEST STOP JUMPDEST PUSH2 0xB5 PUSH2 0x1A8 JUMP JUMPDEST PUSH1 0x40 MLOAD PUSH2 0xC2 SWAP2 SWAP1 PUSH2 0xA08 JUMP JUMPDEST PUSH1 0x40 MLOAD DUP1 SWAP2 SUB SWAP1 RETURN JUMPDEST PUSH2 0xAB PUSH2 0xD9 CALLDATASIZE PUSH1 0x4 PUSH2 0x916 JUMP JUMPDEST PUSH2 0x1AE JUMP JUMPDEST PUSH2 0xAB PUSH2 0xEC CALLDATASIZE PUSH1 0x4 PUSH2 0x760 JUMP JUMPDEST PUSH2 0x201 JUMP JUMPDEST PUSH2 0xB5 PUSH2 0xFF CALLDATASIZE PUSH1 0x4 PUSH2 0x8B6 JUMP JUMPDEST PUSH2 0x293 JUMP JUMPDEST PUSH2 0x10C PUSH2 0x2E6 JUMP JUMPDEST PUSH1 0x40 MLOAD PUSH2 0xC2 SWAP2 SWAP1 PUSH2 0x997 JUMP JUMPDEST PUSH2 0xB5 PUSH2 0x2F5 JUMP JUMPDEST PUSH2 0x134 PUSH2 0x12F CALLDATASIZE PUSH1 0x4 PUSH2 0x7E1 JUMP JUMPDEST PUSH2 0x2FB JUMP JUMPDEST PUSH1 0x40 MLOAD PUSH2 0xC2 SWAP2 SWAP1 PUSH2 0x9C4 JUMP JUMPDEST PUSH2 0x10C PUSH2 0x402 JUMP JUMPDEST PUSH2 0x151 PUSH2 0x426 JUMP JUMPDEST PUSH2 0x168 PUSH8 0x6F05B59D3B20000 DUP3 GT ISZERO PUSH2 0x258 PUSH2 0x457 JUMP JUMPDEST PUSH1 0x1 DUP2 SWAP1 SSTORE PUSH1 0x40 MLOAD PUSH32 0xA9BA3FFE0B6C366B81232CAAB38605A0699AD5398D6CCE76F91EE809E322DAFC SWAP1 PUSH2 0x19D SWAP1 DUP4 SWAP1 PUSH2 0xA08 JUMP JUMPDEST PUSH1 0x40 MLOAD DUP1 SWAP2 SUB SWAP1 LOG1 POP JUMP JUMPDEST PUSH1 0x1 SLOAD SWAP1 JUMP JUMPDEST PUSH2 0x1B6 PUSH2 0x426 JUMP JUMPDEST PUSH2 0x1CC PUSH7 0x2386F26FC10000 DUP3 GT ISZERO PUSH2 0x259 PUSH2 0x457 JUMP JUMPDEST PUSH1 0x2 DUP2 SWAP1 SSTORE PUSH1 0x40 MLOAD PUSH32 0x5A0B7386237E7F07FA741EFC64E59C9387D2CCCAFEC760EFED4D53387F20E19A SWAP1 PUSH2 0x19D SWAP1 DUP4 SWAP1 PUSH2 0xA08 JUMP JUMPDEST PUSH2 0x209 PUSH2 0x469 JUMP JUMPDEST PUSH2 0x211 PUSH2 0x426 JUMP JUMPDEST PUSH2 0x21B DUP5 DUP4 PUSH2 0x482 JUMP JUMPDEST PUSH1 0x0 JUMPDEST DUP5 DUP2 LT ISZERO PUSH2 0x283 JUMPI PUSH1 0x0 DUP7 DUP7 DUP4 DUP2 DUP2 LT PUSH2 0x234 JUMPI INVALID JUMPDEST SWAP1 POP PUSH1 0x20 MUL ADD PUSH1 0x20 DUP2 ADD SWAP1 PUSH2 0x249 SWAP2 SWAP1 PUSH2 0x8FA JUMP JUMPDEST SWAP1 POP PUSH1 0x0 DUP6 DUP6 DUP5 DUP2 DUP2 LT PUSH2 0x259 JUMPI INVALID JUMPDEST PUSH1 0x20 MUL SWAP2 SWAP1 SWAP2 ADD CALLDATALOAD SWAP2 POP PUSH2 0x279 SWAP1 POP PUSH1 0x1 PUSH1 0x1 PUSH1 0xA0 SHL SUB DUP4 AND DUP6 DUP4 PUSH2 0x48F JUMP JUMPDEST POP POP PUSH1 0x1 ADD PUSH2 0x21E JUMP JUMPDEST POP PUSH2 0x28C PUSH2 0x4EA JUMP JUMPDEST POP POP POP POP POP JUMP JUMPDEST PUSH1 0x0 PUSH32 0x0 DUP3 PUSH1 0x40 MLOAD PUSH1 0x20 ADD PUSH2 0x2C8 SWAP3 SWAP2 SWAP1 PUSH2 0x946 JUMP JUMPDEST PUSH1 0x40 MLOAD PUSH1 0x20 DUP2 DUP4 SUB SUB DUP2 MSTORE SWAP1 PUSH1 0x40 MSTORE DUP1 MLOAD SWAP1 PUSH1 0x20 ADD KECCAK256 SWAP1 POP JUMPDEST SWAP2 SWAP1 POP JUMP JUMPDEST PUSH1 0x0 PUSH2 0x2F0 PUSH2 0x4F1 JUMP JUMPDEST SWAP1 POP SWAP1 JUMP JUMPDEST PUSH1 0x2 SLOAD SWAP1 JUMP JUMPDEST PUSH1 0x60 DUP2 MLOAD PUSH8 0xFFFFFFFFFFFFFFFF DUP2 GT DUP1 ISZERO PUSH2 0x315 JUMPI PUSH1 0x0 DUP1 REVERT JUMPDEST POP PUSH1 0x40 MLOAD SWAP1 DUP1 DUP3 MSTORE DUP1 PUSH1 0x20 MUL PUSH1 0x20 ADD DUP3 ADD PUSH1 0x40 MSTORE DUP1 ISZERO PUSH2 0x33F JUMPI DUP2 PUSH1 0x20 ADD PUSH1 0x20 DUP3 MUL DUP1 CALLDATASIZE DUP4 CALLDATACOPY ADD SWAP1 POP JUMPDEST POP SWAP1 POP PUSH1 0x0 JUMPDEST DUP3 MLOAD DUP2 LT ISZERO PUSH2 0x3FC JUMPI DUP3 DUP2 DUP2 MLOAD DUP2 LT PUSH2 0x35A JUMPI INVALID JUMPDEST PUSH1 0x20 MUL PUSH1 0x20 ADD ADD MLOAD PUSH1 0x1 PUSH1 0x1 PUSH1 0xA0 SHL SUB AND PUSH4 0x70A08231 ADDRESS PUSH1 0x40 MLOAD DUP3 PUSH4 0xFFFFFFFF AND PUSH1 0xE0 SHL DUP2 MSTORE PUSH1 0x4 ADD PUSH2 0x38D SWAP2 SWAP1 PUSH2 0x997 JUMP JUMPDEST PUSH1 0x20 PUSH1 0x40 MLOAD DUP1 DUP4 SUB DUP2 DUP7 DUP1 EXTCODESIZE ISZERO DUP1 ISZERO PUSH2 0x3A5 JUMPI PUSH1 0x0 DUP1 REVERT JUMPDEST POP GAS STATICCALL ISZERO DUP1 ISZERO PUSH2 0x3B9 JUMPI RETURNDATASIZE PUSH1 0x0 DUP1 RETURNDATACOPY RETURNDATASIZE PUSH1 0x0 REVERT JUMPDEST POP POP POP POP PUSH1 0x40 MLOAD RETURNDATASIZE PUSH1 0x1F NOT PUSH1 0x1F DUP3 ADD AND DUP3 ADD DUP1 PUSH1 0x40 MSTORE POP DUP2 ADD SWAP1 PUSH2 0x3DD SWAP2 SWAP1 PUSH2 0x92E JUMP JUMPDEST DUP3 DUP3 DUP2 MLOAD DUP2 LT PUSH2 0x3E9 JUMPI INVALID JUMPDEST PUSH1 0x20 SWAP1 DUP2 MUL SWAP2 SWAP1 SWAP2 ADD ADD MSTORE PUSH1 0x1 ADD PUSH2 0x345 JUMP JUMPDEST POP SWAP2 SWAP1 POP JUMP JUMPDEST PUSH32 0x0 DUP2 JUMP JUMPDEST PUSH1 0x0 PUSH2 0x43D PUSH1 0x0 CALLDATALOAD PUSH1 0x1 PUSH1 0x1 PUSH1 0xE0 SHL SUB NOT AND PUSH2 0x293 JUMP JUMPDEST SWAP1 POP PUSH2 0x454 PUSH2 0x44C DUP3 CALLER PUSH2 0x584 JUMP JUMPDEST PUSH2 0x191 PUSH2 0x457 JUMP JUMPDEST POP JUMP JUMPDEST DUP2 PUSH2 0x465 JUMPI PUSH2 0x465 DUP2 PUSH2 0x614 JUMP JUMPDEST POP POP JUMP JUMPDEST PUSH2 0x47B PUSH1 0x2 PUSH1 0x0 SLOAD EQ ISZERO PUSH2 0x190 PUSH2 0x457 JUMP JUMPDEST PUSH1 0x2 PUSH1 0x0 SSTORE JUMP JUMPDEST PUSH2 0x465 DUP2 DUP4 EQ PUSH1 0x67 PUSH2 0x457 JUMP JUMPDEST PUSH2 0x4E5 DUP4 PUSH4 0xA9059CBB PUSH1 0xE0 SHL DUP5 DUP5 PUSH1 0x40 MLOAD PUSH1 0x24 ADD PUSH2 0x4AE SWAP3 SWAP2 SWAP1 PUSH2 0x9AB JUMP JUMPDEST PUSH1 0x40 DUP1 MLOAD PUSH1 0x1F NOT DUP2 DUP5 SUB ADD DUP2 MSTORE SWAP2 SWAP1 MSTORE PUSH1 0x20 DUP2 ADD DUP1 MLOAD PUSH1 0x1 PUSH1 0x1 PUSH1 0xE0 SHL SUB AND PUSH1 0x1 PUSH1 0x1 PUSH1 0xE0 SHL SUB NOT SWAP1 SWAP4 AND SWAP3 SWAP1 SWAP3 OR SWAP1 SWAP2 MSTORE PUSH2 0x667 JUMP JUMPDEST POP POP POP JUMP JUMPDEST PUSH1 0x1 PUSH1 0x0 SSTORE JUMP JUMPDEST PUSH1 0x0 PUSH32 0x0 PUSH1 0x1 PUSH1 0x1 PUSH1 0xA0 SHL SUB AND PUSH4 0xAAABADC5 PUSH1 0x40 MLOAD DUP2 PUSH4 0xFFFFFFFF AND PUSH1 0xE0 SHL DUP2 MSTORE PUSH1 0x4 ADD PUSH1 0x20 PUSH1 0x40 MLOAD DUP1 DUP4 SUB DUP2 DUP7 DUP1 EXTCODESIZE ISZERO DUP1 ISZERO PUSH2 0x54C JUMPI PUSH1 0x0 DUP1 REVERT JUMPDEST POP GAS STATICCALL ISZERO DUP1 ISZERO PUSH2 0x560 JUMPI RETURNDATASIZE PUSH1 0x0 DUP1 RETURNDATACOPY RETURNDATASIZE PUSH1 0x0 REVERT JUMPDEST POP POP POP POP PUSH1 0x40 MLOAD RETURNDATASIZE PUSH1 0x1F NOT PUSH1 0x1F DUP3 ADD AND DUP3 ADD DUP1 PUSH1 0x40 MSTORE POP DUP2 ADD SWAP1 PUSH2 0x2F0 SWAP2 SWAP1 PUSH2 0x8DE JUMP JUMPDEST PUSH1 0x0 PUSH2 0x58E PUSH2 0x4F1 JUMP JUMPDEST PUSH1 0x1 PUSH1 0x1 PUSH1 0xA0 SHL SUB AND PUSH4 0x9BE2A884 DUP5 DUP5 ADDRESS PUSH1 0x40 MLOAD DUP5 PUSH4 0xFFFFFFFF AND PUSH1 0xE0 SHL DUP2 MSTORE PUSH1 0x4 ADD PUSH2 0x5BD SWAP4 SWAP3 SWAP2 SWAP1 PUSH2 0xA11 JUMP JUMPDEST PUSH1 0x20 PUSH1 0x40 MLOAD DUP1 DUP4 SUB DUP2 DUP7 DUP1 EXTCODESIZE ISZERO DUP1 ISZERO PUSH2 0x5D5 JUMPI PUSH1 0x0 DUP1 REVERT JUMPDEST POP GAS STATICCALL ISZERO DUP1 ISZERO PUSH2 0x5E9 JUMPI RETURNDATASIZE PUSH1 0x0 DUP1 RETURNDATACOPY RETURNDATASIZE PUSH1 0x0 REVERT JUMPDEST POP POP POP POP PUSH1 0x40 MLOAD RETURNDATASIZE PUSH1 0x1F NOT PUSH1 0x1F DUP3 ADD AND DUP3 ADD DUP1 PUSH1 0x40 MSTORE POP DUP2 ADD SWAP1 PUSH2 0x60D SWAP2 SWAP1 PUSH2 0x896 JUMP JUMPDEST SWAP4 SWAP3 POP POP POP JUMP JUMPDEST PUSH3 0x461BCD PUSH1 0xE5 SHL PUSH1 0x0 SWAP1 DUP2 MSTORE PUSH1 0x20 PUSH1 0x4 MSTORE PUSH1 0x7 PUSH1 0x24 MSTORE PUSH7 0x42414C23000030 PUSH1 0xA DUP1 DUP5 DIV DUP2 DUP2 MOD PUSH1 0x30 SWAP1 DUP2 ADD PUSH1 0x8 SHL SWAP6 DUP4 SWAP1 MOD SWAP6 SWAP1 SWAP6 ADD SWAP1 DUP3 SWAP1 DIV SWAP2 DUP3 MOD SWAP1 SWAP5 ADD PUSH1 0x10 SHL SWAP4 SWAP1 SWAP4 ADD ADD PUSH1 0xC8 SHL PUSH1 0x44 MSTORE PUSH1 0x64 SWAP1 REVERT JUMPDEST PUSH1 0x0 DUP1 DUP4 PUSH1 0x1 PUSH1 0x1 PUSH1 0xA0 SHL SUB AND DUP4 PUSH1 0x40 MLOAD PUSH2 0x682 SWAP2 SWAP1 PUSH2 0x95E JUMP JUMPDEST PUSH1 0x0 PUSH1 0x40 MLOAD DUP1 DUP4 SUB DUP2 PUSH1 0x0 DUP7 GAS CALL SWAP2 POP POP RETURNDATASIZE DUP1 PUSH1 0x0 DUP2 EQ PUSH2 0x6BF JUMPI PUSH1 0x40 MLOAD SWAP2 POP PUSH1 0x1F NOT PUSH1 0x3F RETURNDATASIZE ADD AND DUP3 ADD PUSH1 0x40 MSTORE RETURNDATASIZE DUP3 MSTORE RETURNDATASIZE PUSH1 0x0 PUSH1 0x20 DUP5 ADD RETURNDATACOPY PUSH2 0x6C4 JUMP JUMPDEST PUSH1 0x60 SWAP2 POP JUMPDEST POP SWAP2 POP SWAP2 POP PUSH1 0x0 DUP3 EQ ISZERO PUSH2 0x6DC JUMPI RETURNDATASIZE PUSH1 0x0 DUP1 RETURNDATACOPY RETURNDATASIZE PUSH1 0x0 REVERT JUMPDEST PUSH2 0x706 DUP2 MLOAD PUSH1 0x0 EQ DUP1 PUSH2 0x6FE JUMPI POP DUP2 DUP1 PUSH1 0x20 ADD SWAP1 MLOAD DUP2 ADD SWAP1 PUSH2 0x6FE SWAP2 SWAP1 PUSH2 0x896 JUMP JUMPDEST PUSH2 0x1A2 PUSH2 0x457 JUMP JUMPDEST POP POP POP POP JUMP JUMPDEST PUSH1 0x0 DUP1 DUP4 PUSH1 0x1F DUP5 ADD SLT PUSH2 0x71D JUMPI DUP1 DUP2 REVERT JUMPDEST POP DUP2 CALLDATALOAD PUSH8 0xFFFFFFFFFFFFFFFF DUP2 GT ISZERO PUSH2 0x734 JUMPI DUP2 DUP3 REVERT JUMPDEST PUSH1 0x20 DUP4 ADD SWAP2 POP DUP4 PUSH1 0x20 DUP1 DUP4 MUL DUP6 ADD ADD GT ISZERO PUSH2 0x74E JUMPI PUSH1 0x0 DUP1 REVERT JUMPDEST SWAP3 POP SWAP3 SWAP1 POP JUMP JUMPDEST DUP1 CALLDATALOAD PUSH2 0x2E1 DUP2 PUSH2 0xA30 JUMP JUMPDEST PUSH1 0x0 DUP1 PUSH1 0x0 DUP1 PUSH1 0x0 PUSH1 0x60 DUP7 DUP9 SUB SLT ISZERO PUSH2 0x777 JUMPI DUP1 DUP2 REVERT JUMPDEST DUP6 CALLDATALOAD PUSH8 0xFFFFFFFFFFFFFFFF DUP1 DUP3 GT ISZERO PUSH2 0x78E JUMPI DUP3 DUP4 REVERT JUMPDEST PUSH2 0x79A DUP10 DUP4 DUP11 ADD PUSH2 0x70C JUMP JUMPDEST SWAP1 SWAP8 POP SWAP6 POP PUSH1 0x20 DUP9 ADD CALLDATALOAD SWAP2 POP DUP1 DUP3 GT ISZERO PUSH2 0x7B2 JUMPI DUP3 DUP4 REVERT JUMPDEST POP PUSH2 0x7BF DUP9 DUP3 DUP10 ADD PUSH2 0x70C JUMP JUMPDEST SWAP1 SWAP5 POP SWAP3 POP POP PUSH1 0x40 DUP7 ADD CALLDATALOAD PUSH2 0x7D3 DUP2 PUSH2 0xA30 JUMP JUMPDEST DUP1 SWAP2 POP POP SWAP3 SWAP6 POP SWAP3 SWAP6 SWAP1 SWAP4 POP JUMP JUMPDEST PUSH1 0x0 PUSH1 0x20 DUP1 DUP4 DUP6 SUB SLT ISZERO PUSH2 0x7F3 JUMPI DUP2 DUP3 REVERT JUMPDEST DUP3 CALLDATALOAD PUSH8 0xFFFFFFFFFFFFFFFF DUP1 DUP3 GT ISZERO PUSH2 0x80A JUMPI DUP4 DUP5 REVERT JUMPDEST DUP2 DUP6 ADD SWAP2 POP DUP6 PUSH1 0x1F DUP4 ADD SLT PUSH2 0x81D JUMPI DUP4 DUP5 REVERT JUMPDEST DUP2 CALLDATALOAD DUP2 DUP2 GT ISZERO PUSH2 0x829 JUMPI INVALID JUMPDEST DUP4 DUP2 MUL PUSH1 0x40 MLOAD DUP6 DUP3 DUP3 ADD ADD DUP2 DUP2 LT DUP6 DUP3 GT OR ISZERO PUSH2 0x842 JUMPI INVALID JUMPDEST PUSH1 0x40 MSTORE DUP3 DUP2 MSTORE DUP6 DUP2 ADD SWAP4 POP DUP5 DUP7 ADD DUP3 DUP7 ADD DUP8 ADD DUP11 LT ISZERO PUSH2 0x860 JUMPI DUP8 DUP9 REVERT JUMPDEST DUP8 SWAP6 POP JUMPDEST DUP4 DUP7 LT ISZERO PUSH2 0x889 JUMPI PUSH2 0x875 DUP2 PUSH2 0x755 JUMP JUMPDEST DUP6 MSTORE PUSH1 0x1 SWAP6 SWAP1 SWAP6 ADD SWAP5 SWAP4 DUP7 ADD SWAP4 DUP7 ADD PUSH2 0x864 JUMP JUMPDEST POP SWAP9 SWAP8 POP POP POP POP POP POP POP POP JUMP JUMPDEST PUSH1 0x0 PUSH1 0x20 DUP3 DUP5 SUB SLT ISZERO PUSH2 0x8A7 JUMPI DUP1 DUP2 REVERT JUMPDEST DUP2 MLOAD DUP1 ISZERO ISZERO DUP2 EQ PUSH2 0x60D JUMPI DUP2 DUP3 REVERT JUMPDEST PUSH1 0x0 PUSH1 0x20 DUP3 DUP5 SUB SLT ISZERO PUSH2 0x8C7 JUMPI DUP1 DUP2 REVERT JUMPDEST DUP2 CALLDATALOAD PUSH1 0x1 PUSH1 0x1 PUSH1 0xE0 SHL SUB NOT DUP2 AND DUP2 EQ PUSH2 0x60D JUMPI DUP2 DUP3 REVERT JUMPDEST PUSH1 0x0 PUSH1 0x20 DUP3 DUP5 SUB SLT ISZERO PUSH2 0x8EF JUMPI DUP1 DUP2 REVERT JUMPDEST DUP2 MLOAD PUSH2 0x60D DUP2 PUSH2 0xA30 JUMP JUMPDEST PUSH1 0x0 PUSH1 0x20 DUP3 DUP5 SUB SLT ISZERO PUSH2 0x90B JUMPI DUP1 DUP2 REVERT JUMPDEST DUP2 CALLDATALOAD PUSH2 0x60D DUP2 PUSH2 0xA30 JUMP JUMPDEST PUSH1 0x0 PUSH1 0x20 DUP3 DUP5 SUB SLT ISZERO PUSH2 0x927 JUMPI DUP1 DUP2 REVERT JUMPDEST POP CALLDATALOAD SWAP2 SWAP1 POP JUMP JUMPDEST PUSH1 0x0 PUSH1 0x20 DUP3 DUP5 SUB SLT ISZERO PUSH2 0x93F JUMPI DUP1 DUP2 REVERT JUMPDEST POP MLOAD SWAP2 SWAP1 POP JUMP JUMPDEST SWAP2 DUP3 MSTORE PUSH1 0x1 PUSH1 0x1 PUSH1 0xE0 SHL SUB NOT AND PUSH1 0x20 DUP3 ADD MSTORE PUSH1 0x24 ADD SWAP1 JUMP JUMPDEST PUSH1 0x0 DUP3 MLOAD DUP2 JUMPDEST DUP2 DUP2 LT ISZERO PUSH2 0x97E JUMPI PUSH1 0x20 DUP2 DUP7 ADD DUP2 ADD MLOAD DUP6 DUP4 ADD MSTORE ADD PUSH2 0x964 JUMP JUMPDEST DUP2 DUP2 GT ISZERO PUSH2 0x98C JUMPI DUP3 DUP3 DUP6 ADD MSTORE JUMPDEST POP SWAP2 SWAP1 SWAP2 ADD SWAP3 SWAP2 POP POP JUMP JUMPDEST PUSH1 0x1 PUSH1 0x1 PUSH1 0xA0 SHL SUB SWAP2 SWAP1 SWAP2 AND DUP2 MSTORE PUSH1 0x20 ADD SWAP1 JUMP JUMPDEST PUSH1 0x1 PUSH1 0x1 PUSH1 0xA0 SHL SUB SWAP3 SWAP1 SWAP3 AND DUP3 MSTORE PUSH1 0x20 DUP3 ADD MSTORE PUSH1 0x40 ADD SWAP1 JUMP JUMPDEST PUSH1 0x20 DUP1 DUP3 MSTORE DUP3 MLOAD DUP3 DUP3 ADD DUP2 SWAP1 MSTORE PUSH1 0x0 SWAP2 SWAP1 DUP5 DUP3 ADD SWAP1 PUSH1 0x40 DUP6 ADD SWAP1 DUP5 JUMPDEST DUP2 DUP2 LT ISZERO PUSH2 0x9FC JUMPI DUP4 MLOAD DUP4 MSTORE SWAP3 DUP5 ADD SWAP3 SWAP2 DUP5 ADD SWAP2 PUSH1 0x1 ADD PUSH2 0x9E0 JUMP JUMPDEST POP SWAP1 SWAP7 SWAP6 POP POP POP POP POP POP JUMP JUMPDEST SWAP1 DUP2 MSTORE PUSH1 0x20 ADD SWAP1 JUMP JUMPDEST SWAP3 DUP4 MSTORE PUSH1 0x1 PUSH1 0x1 PUSH1 0xA0 SHL SUB SWAP2 DUP3 AND PUSH1 0x20 DUP5 ADD MSTORE AND PUSH1 0x40 DUP3 ADD MSTORE PUSH1 0x60 ADD SWAP1 JUMP JUMPDEST PUSH1 0x1 PUSH1 0x1 PUSH1 0xA0 SHL SUB DUP2 AND DUP2 EQ PUSH2 0x454 JUMPI PUSH1 0x0 DUP1 REVERT INVALID LOG2 PUSH5 0x6970667358 0x22 SLT KECCAK256 EQ PUSH20 0x5A959E9B5EF18FC5A27E5A7379CE69769A0692D7 DUP14 0xC5 0xE INVALID SWAP5 0xDE DUP4 0x5E SWAP6 AND PUSH5 0x736F6C6343 STOP SMOD MOD STOP CALLER "
		},
		"gasEstimates": {
			"creation": {
				"codeDepositCost": "4857400",
				"executionCost": "infinite",
				"totalCost": "infinite"
			},
			"external": {
				"WETH()": "infinite",
				"batchSwap(uint8,(bytes32,uint256,uint256,uint256,bytes)[],address[],(address,bool,address,bool),int256[],uint256)": "infinite",
				"deregisterTokens(bytes32,address[])": "infinite",
				"exitPool(bytes32,address,address,(address[],uint256[],bytes,bool))": "infinite",
				"flashLoan(address,address[],uint256[],bytes)": "infinite",
				"getActionId(bytes4)": "infinite",
				"getAuthorizer()": "1126",
				"getDomainSeparator()": "infinite",
				"getInternalBalance(address,address[])": "infinite",
				"getNextNonce(address)": "1379",
				"getPausedState()": "infinite",
				"getPool(bytes32)": "infinite",
				"getPoolTokenInfo(bytes32,address)": "infinite",
				"getPoolTokens(bytes32)": "infinite",
				"getProtocolFeesCollector()": "infinite",
				"hasApprovedRelayer(address,address)": "infinite",
				"joinPool(bytes32,address,address,(address[],uint256[],bytes,bool))": "infinite",
				"managePoolBalance((uint8,bytes32,address,uint256)[])": "infinite",
				"manageUserBalance((uint8,address,uint256,address,address)[])": "infinite",
				"queryBatchSwap(uint8,(bytes32,uint256,uint256,uint256,bytes)[],address[],(address,bool,address,bool))": "infinite",
				"registerPool(uint8)": "infinite",
				"registerTokens(bytes32,address[],address[])": "infinite",
				"setAuthorizer(address)": "infinite",
				"setPaused(bool)": "infinite",
				"setRelayerApproval(address,address,bool)": "infinite",
				"swap((bytes32,uint8,address,address,uint256,bytes),(address,bool,address,bool),uint256,uint256)": "infinite"
			}
		},
		"methodIdentifiers": {
			"WETH()": "ad5c4648",
			"batchSwap(uint8,(bytes32,uint256,uint256,uint256,bytes)[],address[],(address,bool,address,bool),int256[],uint256)": "945bcec9",
			"deregisterTokens(bytes32,address[])": "7d3aeb96",
			"exitPool(bytes32,address,address,(address[],uint256[],bytes,bool))": "8bdb3913",
			"flashLoan(address,address[],uint256[],bytes)": "5c38449e",
			"getActionId(bytes4)": "851c1bb3",
			"getAuthorizer()": "aaabadc5",
			"getDomainSeparator()": "ed24911d",
			"getInternalBalance(address,address[])": "0f5a6efa",
			"getNextNonce(address)": "90193b7c",
			"getPausedState()": "1c0de051",
			"getPool(bytes32)": "f6c00927",
			"getPoolTokenInfo(bytes32,address)": "b05f8e48",
			"getPoolTokens(bytes32)": "f94d4668",
			"getProtocolFeesCollector()": "d2946c2b",
			"hasApprovedRelayer(address,address)": "fec90d72",
			"joinPool(bytes32,address,address,(address[],uint256[],bytes,bool))": "b95cac28",
			"managePoolBalance((uint8,bytes32,address,uint256)[])": "e6c46092",
			"manageUserBalance((uint8,address,uint256,address,address)[])": "0e8e3e84",
			"queryBatchSwap(uint8,(bytes32,uint256,uint256,uint256,bytes)[],address[],(address,bool,address,bool))": "f84d066e",
			"registerPool(uint8)": "09b2760f",
			"registerTokens(bytes32,address[],address[])": "66a9c7d2",
			"setAuthorizer(address)": "058a628f",
			"setPaused(bool)": "16c38b3c",
			"setRelayerApproval(address,address,bool)": "fa6e671d",
			"swap((bytes32,uint8,address,address,uint256,bytes),(address,bool,address,bool),uint256,uint256)": "52bbbe29"
		}
	},
	"abi": [
		{
			"inputs": [
				{
					"internalType": "contract IAuthorizer",
					"name": "authorizer",
					"type": "address"
				},
				{
					"internalType": "contract IWETH",
					"name": "weth",
					"type": "address"
				},
				{
					"internalType": "uint256",
					"name": "pauseWindowDuration",
					"type": "uint256"
				},
				{
					"internalType": "uint256",
					"name": "bufferPeriodDuration",
					"type": "uint256"
				}
			],
			"stateMutability": "nonpayable",
			"type": "constructor"
		},
		{
			"anonymous": false,
			"inputs": [
				{
					"indexed": true,
					"internalType": "contract IAuthorizer",
					"name": "newAuthorizer",
					"type": "address"
				}
			],
			"name": "AuthorizerChanged",
			"type": "event"
		},
		{
			"anonymous": false,
			"inputs": [
				{
					"indexed": true,
					"internalType": "contract IERC20",
					"name": "token",
					"type": "address"
				},
				{
					"indexed": true,
					"internalType": "address",
					"name": "sender",
					"type": "address"
				},
				{
					"indexed": false,
					"internalType": "address",
					"name": "recipient",
					"type": "address"
				},
				{
					"indexed": false,
					"internalType": "uint256",
					"name": "amount",
					"type": "uint256"
				}
			],
			"name": "ExternalBalanceTransfer",
			"type": "event"
		},
		{
			"anonymous": false,
			"inputs": [
				{
					"indexed": true,
					"internalType": "contract IFlashLoanRecipient",
					"name": "recipient",
					"type": "address"
				},
				{
					"indexed": true,
					"internalType": "contract IERC20",
					"name": "token",
					"type": "address"
				},
				{
					"indexed": false,
					"internalType": "uint256",
					"name": "amount",
					"type": "uint256"
				},
				{
					"indexed": false,
					"internalType": "uint256",
					"name": "feeAmount",
					"type": "uint256"
				}
			],
			"name": "FlashLoan",
			"type": "event"
		},
		{
			"anonymous": false,
			"inputs": [
				{
					"indexed": true,
					"internalType": "address",
					"name": "user",
					"type": "address"
				},
				{
					"indexed": true,
					"internalType": "contract IERC20",
					"name": "token",
					"type": "address"
				},
				{
					"indexed": false,
					"internalType": "int256",
					"name": "delta",
					"type": "int256"
				}
			],
			"name": "InternalBalanceChanged",
			"type": "event"
		},
		{
			"anonymous": false,
			"inputs": [
				{
					"indexed": false,
					"internalType": "bool",
					"name": "paused",
					"type": "bool"
				}
			],
			"name": "PausedStateChanged",
			"type": "event"
		},
		{
			"anonymous": false,
			"inputs": [
				{
					"indexed": true,
					"internalType": "bytes32",
					"name": "poolId",
					"type": "bytes32"
				},
				{
					"indexed": true,
					"internalType": "address",
					"name": "liquidityProvider",
					"type": "address"
				},
				{
					"indexed": false,
					"internalType": "contract IERC20[]",
					"name": "tokens",
					"type": "address[]"
				},
				{
					"indexed": false,
					"internalType": "int256[]",
					"name": "deltas",
					"type": "int256[]"
				},
				{
					"indexed": false,
					"internalType": "uint256[]",
					"name": "protocolFeeAmounts",
					"type": "uint256[]"
				}
			],
			"name": "PoolBalanceChanged",
			"type": "event"
		},
		{
			"anonymous": false,
			"inputs": [
				{
					"indexed": true,
					"internalType": "bytes32",
					"name": "poolId",
					"type": "bytes32"
				},
				{
					"indexed": true,
					"internalType": "address",
					"name": "assetManager",
					"type": "address"
				},
				{
					"indexed": true,
					"internalType": "contract IERC20",
					"name": "token",
					"type": "address"
				},
				{
					"indexed": false,
					"internalType": "int256",
					"name": "cashDelta",
					"type": "int256"
				},
				{
					"indexed": false,
					"internalType": "int256",
					"name": "managedDelta",
					"type": "int256"
				}
			],
			"name": "PoolBalanceManaged",
			"type": "event"
		},
		{
			"anonymous": false,
			"inputs": [
				{
					"indexed": true,
					"internalType": "bytes32",
					"name": "poolId",
					"type": "bytes32"
				},
				{
					"indexed": true,
					"internalType": "address",
					"name": "poolAddress",
					"type": "address"
				},
				{
					"indexed": false,
					"internalType": "enum IVault.PoolSpecialization",
					"name": "specialization",
					"type": "uint8"
				}
			],
			"name": "PoolRegistered",
			"type": "event"
		},
		{
			"anonymous": false,
			"inputs": [
				{
					"indexed": true,
					"internalType": "address",
					"name": "relayer",
					"type": "address"
				},
				{
					"indexed": true,
					"internalType": "address",
					"name": "sender",
					"type": "address"
				},
				{
					"indexed": false,
					"internalType": "bool",
					"name": "approved",
					"type": "bool"
				}
			],
			"name": "RelayerApprovalChanged",
			"type": "event"
		},
		{
			"anonymous": false,
			"inputs": [
				{
					"indexed": true,
					"internalType": "bytes32",
					"name": "poolId",
					"type": "bytes32"
				},
				{
					"indexed": true,
					"internalType": "contract IERC20",
					"name": "tokenIn",
					"type": "address"
				},
				{
					"indexed": true,
					"internalType": "contract IERC20",
					"name": "tokenOut",
					"type": "address"
				},
				{
					"indexed": false,
					"internalType": "uint256",
					"name": "amountIn",
					"type": "uint256"
				},
				{
					"indexed": false,
					"internalType": "uint256",
					"name": "amountOut",
					"type": "uint256"
				}
			],
			"name": "Swap",
			"type": "event"
		},
		{
			"anonymous": false,
			"inputs": [
				{
					"indexed": true,
					"internalType": "bytes32",
					"name": "poolId",
					"type": "bytes32"
				},
				{
					"indexed": false,
					"internalType": "contract IERC20[]",
					"name": "tokens",
					"type": "address[]"
				}
			],
			"name": "TokensDeregistered",
			"type": "event"
		},
		{
			"anonymous": false,
			"inputs": [
				{
					"indexed": true,
					"internalType": "bytes32",
					"name": "poolId",
					"type": "bytes32"
				},
				{
					"indexed": false,
					"internalType": "contract IERC20[]",
					"name": "tokens",
					"type": "address[]"
				},
				{
					"indexed": false,
					"internalType": "address[]",
					"name": "assetManagers",
					"type": "address[]"
				}
			],
			"name": "TokensRegistered",
			"type": "event"
		},
		{
			"inputs": [],
			"name": "WETH",
			"outputs": [
				{
					"internalType": "contract IWETH",
					"name": "",
					"type": "address"
				}
			],
			"stateMutability": "view",
			"type": "function"
		},
		{
			"inputs": [
				{
					"internalType": "enum IVault.SwapKind",
					"name": "kind",
					"type": "uint8"
				},
				{
					"components": [
						{
							"internalType": "bytes32",
							"name": "poolId",
							"type": "bytes32"
						},
						{
							"internalType": "uint256",
							"name": "assetInIndex",
							"type": "uint256"
						},
						{
							"internalType": "uint256",
							"name": "assetOutIndex",
							"type": "uint256"
						},
						{
							"internalType": "uint256",
							"name": "amount",
							"type": "uint256"
						},
						{
							"internalType": "bytes",
							"name": "userData",
							"type": "bytes"
						}
					],
					"internalType": "struct IVault.BatchSwapStep[]",
					"name": "swaps",
					"type": "tuple[]"
				},
				{
					"internalType": "contract IAsset[]",
					"name": "assets",
					"type": "address[]"
				},
				{
					"components": [
						{
							"internalType": "address",
							"name": "sender",
							"type": "address"
						},
						{
							"internalType": "bool",
							"name": "fromInternalBalance",
							"type": "bool"
						},
						{
							"internalType": "address payable",
							"name": "recipient",
							"type": "address"
						},
						{
							"internalType": "bool",
							"name": "toInternalBalance",
							"type": "bool"
						}
					],
					"internalType": "struct IVault.FundManagement",
					"name": "funds",
					"type": "tuple"
				},
				{
					"internalType": "int256[]",
					"name": "limits",
					"type": "int256[]"
				},
				{
					"internalType": "uint256",
					"name": "deadline",
					"type": "uint256"
				}
			],
			"name": "batchSwap",
			"outputs": [
				{
					"internalType": "int256[]",
					"name": "assetDeltas",
					"type": "int256[]"
				}
			],
			"stateMutability": "payable",
			"type": "function"
		},
		{
			"inputs": [
				{
					"internalType": "bytes32",
					"name": "poolId",
					"type": "bytes32"
				},
				{
					"internalType": "contract IERC20[]",
					"name": "tokens",
					"type": "address[]"
				}
			],
			"name": "deregisterTokens",
			"outputs": [],
			"stateMutability": "nonpayable",
			"type": "function"
		},
		{
			"inputs": [
				{
					"internalType": "bytes32",
					"name": "poolId",
					"type": "bytes32"
				},
				{
					"internalType": "address",
					"name": "sender",
					"type": "address"
				},
				{
					"internalType": "address payable",
					"name": "recipient",
					"type": "address"
				},
				{
					"components": [
						{
							"internalType": "contract IAsset[]",
							"name": "assets",
							"type": "address[]"
						},
						{
							"internalType": "uint256[]",
							"name": "minAmountsOut",
							"type": "uint256[]"
						},
						{
							"internalType": "bytes",
							"name": "userData",
							"type": "bytes"
						},
						{
							"internalType": "bool",
							"name": "toInternalBalance",
							"type": "bool"
						}
					],
					"internalType": "struct IVault.ExitPoolRequest",
					"name": "request",
					"type": "tuple"
				}
			],
			"name": "exitPool",
			"outputs": [],
			"stateMutability": "nonpayable",
			"type": "function"
		},
		{
			"inputs": [
				{
					"internalType": "contract IFlashLoanRecipient",
					"name": "recipient",
					"type": "address"
				},
				{
					"internalType": "contract IERC20[]",
					"name": "tokens",
					"type": "address[]"
				},
				{
					"internalType": "uint256[]",
					"name": "amounts",
					"type": "uint256[]"
				},
				{
					"internalType": "bytes",
					"name": "userData",
					"type": "bytes"
				}
			],
			"name": "flashLoan",
			"outputs": [],
			"stateMutability": "nonpayable",
			"type": "function"
		},
		{
			"inputs": [
				{
					"internalType": "bytes4",
					"name": "selector",
					"type": "bytes4"
				}
			],
			"name": "getActionId",
			"outputs": [
				{
					"internalType": "bytes32",
					"name": "",
					"type": "bytes32"
				}
			],
			"stateMutability": "view",
			"type": "function"
		},
		{
			"inputs": [],
			"name": "getAuthorizer",
			"outputs": [
				{
					"internalType": "contract IAuthorizer",
					"name": "",
					"type": "address"
				}
			],
			"stateMutability": "view",
			"type": "function"
		},
		{
			"inputs": [],
			"name": "getDomainSeparator",
			"outputs": [
				{
					"internalType": "bytes32",
					"name": "",
					"type": "bytes32"
				}
			],
			"stateMutability": "view",
			"type": "function"
		},
		{
			"inputs": [
				{
					"internalType": "address",
					"name": "user",
					"type": "address"
				},
				{
					"internalType": "contract IERC20[]",
					"name": "tokens",
					"type": "address[]"
				}
			],
			"name": "getInternalBalance",
			"outputs": [
				{
					"internalType": "uint256[]",
					"name": "balances",
					"type": "uint256[]"
				}
			],
			"stateMutability": "view",
			"type": "function"
		},
		{
			"inputs": [
				{
					"internalType": "address",
					"name": "user",
					"type": "address"
				}
			],
			"name": "getNextNonce",
			"outputs": [
				{
					"internalType": "uint256",
					"name": "",
					"type": "uint256"
				}
			],
			"stateMutability": "view",
			"type": "function"
		},
		{
			"inputs": [],
			"name": "getPausedState",
			"outputs": [
				{
					"internalType": "bool",
					"name": "paused",
					"type": "bool"
				},
				{
					"internalType": "uint256",
					"name": "pauseWindowEndTime",
					"type": "uint256"
				},
				{
					"internalType": "uint256",
					"name": "bufferPeriodEndTime",
					"type": "uint256"
				}
			],
			"stateMutability": "view",
			"type": "function"
		},
		{
			"inputs": [
				{
					"internalType": "bytes32",
					"name": "poolId",
					"type": "bytes32"
				}
			],
			"name": "getPool",
			"outputs": [
				{
					"internalType": "address",
					"name": "",
					"type": "address"
				},
				{
					"internalType": "enum IVault.PoolSpecialization",
					"name": "",
					"type": "uint8"
				}
			],
			"stateMutability": "view",
			"type": "function"
		},
		{
			"inputs": [
				{
					"internalType": "bytes32",
					"name": "poolId",
					"type": "bytes32"
				},
				{
					"internalType": "contract IERC20",
					"name": "token",
					"type": "address"
				}
			],
			"name": "getPoolTokenInfo",
			"outputs": [
				{
					"internalType": "uint256",
					"name": "cash",
					"type": "uint256"
				},
				{
					"internalType": "uint256",
					"name": "managed",
					"type": "uint256"
				},
				{
					"internalType": "uint256",
					"name": "lastChangeBlock",
					"type": "uint256"
				},
				{
					"internalType": "address",
					"name": "assetManager",
					"type": "address"
				}
			],
			"stateMutability": "view",
			"type": "function"
		},
		{
			"inputs": [
				{
					"internalType": "bytes32",
					"name": "poolId",
					"type": "bytes32"
				}
			],
			"name": "getPoolTokens",
			"outputs": [
				{
					"internalType": "contract IERC20[]",
					"name": "tokens",
					"type": "address[]"
				},
				{
					"internalType": "uint256[]",
					"name": "balances",
					"type": "uint256[]"
				},
				{
					"internalType": "uint256",
					"name": "lastChangeBlock",
					"type": "uint256"
				}
			],
			"stateMutability": "view",
			"type": "function"
		},
		{
			"inputs": [],
			"name": "getProtocolFeesCollector",
			"outputs": [
				{
					"internalType": "contract ProtocolFeesCollector",
					"name": "",
					"type": "address"
				}
			],
			"stateMutability": "view",
			"type": "function"
		},
		{
			"inputs": [
				{
					"internalType": "address",
					"name": "user",
					"type": "address"
				},
				{
					"internalType": "address",
					"name": "relayer",
					"type": "address"
				}
			],
			"name": "hasApprovedRelayer",
			"outputs": [
				{
					"internalType": "bool",
					"name": "",
					"type": "bool"
				}
			],
			"stateMutability": "view",
			"type": "function"
		},
		{
			"inputs": [
				{
					"internalType": "bytes32",
					"name": "poolId",
					"type": "bytes32"
				},
				{
					"internalType": "address",
					"name": "sender",
					"type": "address"
				},
				{
					"internalType": "address",
					"name": "recipient",
					"type": "address"
				},
				{
					"components": [
						{
							"internalType": "contract IAsset[]",
							"name": "assets",
							"type": "address[]"
						},
						{
							"internalType": "uint256[]",
							"name": "maxAmountsIn",
							"type": "uint256[]"
						},
						{
							"internalType": "bytes",
							"name": "userData",
							"type": "bytes"
						},
						{
							"internalType": "bool",
							"name": "fromInternalBalance",
							"type": "bool"
						}
					],
					"internalType": "struct IVault.JoinPoolRequest",
					"name": "request",
					"type": "tuple"
				}
			],
			"name": "joinPool",
			"outputs": [],
			"stateMutability": "payable",
			"type": "function"
		},
		{
			"inputs": [
				{
					"components": [
						{
							"internalType": "enum IVault.PoolBalanceOpKind",
							"name": "kind",
							"type": "uint8"
						},
						{
							"internalType": "bytes32",
							"name": "poolId",
							"type": "bytes32"
						},
						{
							"internalType": "contract IERC20",
							"name": "token",
							"type": "address"
						},
						{
							"internalType": "uint256",
							"name": "amount",
							"type": "uint256"
						}
					],
					"internalType": "struct IVault.PoolBalanceOp[]",
					"name": "ops",
					"type": "tuple[]"
				}
			],
			"name": "managePoolBalance",
			"outputs": [],
			"stateMutability": "nonpayable",
			"type": "function"
		},
		{
			"inputs": [
				{
					"components": [
						{
							"internalType": "enum IVault.UserBalanceOpKind",
							"name": "kind",
							"type": "uint8"
						},
						{
							"internalType": "contract IAsset",
							"name": "asset",
							"type": "address"
						},
						{
							"internalType": "uint256",
							"name": "amount",
							"type": "uint256"
						},
						{
							"internalType": "address",
							"name": "sender",
							"type": "address"
						},
						{
							"internalType": "address payable",
							"name": "recipient",
							"type": "address"
						}
					],
					"internalType": "struct IVault.UserBalanceOp[]",
					"name": "ops",
					"type": "tuple[]"
				}
			],
			"name": "manageUserBalance",
			"outputs": [],
			"stateMutability": "payable",
			"type": "function"
		},
		{
			"inputs": [
				{
					"internalType": "enum IVault.SwapKind",
					"name": "kind",
					"type": "uint8"
				},
				{
					"components": [
						{
							"internalType": "bytes32",
							"name": "poolId",
							"type": "bytes32"
						},
						{
							"internalType": "uint256",
							"name": "assetInIndex",
							"type": "uint256"
						},
						{
							"internalType": "uint256",
							"name": "assetOutIndex",
							"type": "uint256"
						},
						{
							"internalType": "uint256",
							"name": "amount",
							"type": "uint256"
						},
						{
							"internalType": "bytes",
							"name": "userData",
							"type": "bytes"
						}
					],
					"internalType": "struct IVault.BatchSwapStep[]",
					"name": "swaps",
					"type": "tuple[]"
				},
				{
					"internalType": "contract IAsset[]",
					"name": "assets",
					"type": "address[]"
				},
				{
					"components": [
						{
							"internalType": "address",
							"name": "sender",
							"type": "address"
						},
						{
							"internalType": "bool",
							"name": "fromInternalBalance",
							"type": "bool"
						},
						{
							"internalType": "address payable",
							"name": "recipient",
							"type": "address"
						},
						{
							"internalType": "bool",
							"name": "toInternalBalance",
							"type": "bool"
						}
					],
					"internalType": "struct IVault.FundManagement",
					"name": "funds",
					"type": "tuple"
				}
			],
			"name": "queryBatchSwap",
			"outputs": [
				{
					"internalType": "int256[]",
					"name": "",
					"type": "int256[]"
				}
			],
			"stateMutability": "nonpayable",
			"type": "function"
		},
		{
			"inputs": [
				{
					"internalType": "enum IVault.PoolSpecialization",
					"name": "specialization",
					"type": "uint8"
				}
			],
			"name": "registerPool",
			"outputs": [
				{
					"internalType": "bytes32",
					"name": "",
					"type": "bytes32"
				}
			],
			"stateMutability": "nonpayable",
			"type": "function"
		},
		{
			"inputs": [
				{
					"internalType": "bytes32",
					"name": "poolId",
					"type": "bytes32"
				},
				{
					"internalType": "contract IERC20[]",
					"name": "tokens",
					"type": "address[]"
				},
				{
					"internalType": "address[]",
					"name": "assetManagers",
					"type": "address[]"
				}
			],
			"name": "registerTokens",
			"outputs": [],
			"stateMutability": "nonpayable",
			"type": "function"
		},
		{
			"inputs": [
				{
					"internalType": "contract IAuthorizer",
					"name": "newAuthorizer",
					"type": "address"
				}
			],
			"name": "setAuthorizer",
			"outputs": [],
			"stateMutability": "nonpayable",
			"type": "function"
		},
		{
			"inputs": [
				{
					"internalType": "bool",
					"name": "paused",
					"type": "bool"
				}
			],
			"name": "setPaused",
			"outputs": [],
			"stateMutability": "nonpayable",
			"type": "function"
		},
		{
			"inputs": [
				{
					"internalType": "address",
					"name": "sender",
					"type": "address"
				},
				{
					"internalType": "address",
					"name": "relayer",
					"type": "address"
				},
				{
					"internalType": "bool",
					"name": "approved",
					"type": "bool"
				}
			],
			"name": "setRelayerApproval",
			"outputs": [],
			"stateMutability": "nonpayable",
			"type": "function"
		},
		{
			"inputs": [
				{
					"components": [
						{
							"internalType": "bytes32",
							"name": "poolId",
							"type": "bytes32"
						},
						{
							"internalType": "enum IVault.SwapKind",
							"name": "kind",
							"type": "uint8"
						},
						{
							"internalType": "contract IAsset",
							"name": "assetIn",
							"type": "address"
						},
						{
							"internalType": "contract IAsset",
							"name": "assetOut",
							"type": "address"
						},
						{
							"internalType": "uint256",
							"name": "amount",
							"type": "uint256"
						},
						{
							"internalType": "bytes",
							"name": "userData",
							"type": "bytes"
						}
					],
					"internalType": "struct IVault.SingleSwap",
					"name": "singleSwap",
					"type": "tuple"
				},
				{
					"components": [
						{
							"internalType": "address",
							"name": "sender",
							"type": "address"
						},
						{
							"internalType": "bool",
							"name": "fromInternalBalance",
							"type": "bool"
						},
						{
							"internalType": "address payable",
							"name": "recipient",
							"type": "address"
						},
						{
							"internalType": "bool",
							"name": "toInternalBalance",
							"type": "bool"
						}
					],
					"internalType": "struct IVault.FundManagement",
					"name": "funds",
					"type": "tuple"
				},
				{
					"internalType": "uint256",
					"name": "limit",
					"type": "uint256"
				},
				{
					"internalType": "uint256",
					"name": "deadline",
					"type": "uint256"
				}
			],
			"name": "swap",
			"outputs": [
				{
					"internalType": "uint256",
					"name": "amountCalculated",
					"type": "uint256"
				}
			],
			"stateMutability": "payable",
			"type": "function"
		},
		{
			"stateMutability": "payable",
			"type": "receive"
		}
	]
}