{
	"data": {
		"bytecode": {
			"linkReferences": {},
			"object": "6101406040523480156200001257600080fd5b5060405162007f9b38038062007f9b8339810160408190526200003591620001c3565b80604051806020016200004890620001b5565b601f1982820381018352601f909101166040528051819060006002820460a081905280830360e0819052818552909150836200009081620000f9602090811b620002ae17901c565b60601b6001600160601b0319166080528285018051838252620000bf82620000f9602090811b620002ae17901c565b6001600160601b0319606091821b811660c0529690935290529590951b90911661010052505050426276a700016101205250620001f39050565b80517f602038038060206000396000f3fefefefefefefefefefefefefefefefefefefe808352600091602081018484f09084529150620001476001600160a01b03831615156101ac6200014d565b50919050565b816200015e576200015e8162000162565b5050565b62461bcd60e51b6000908152602060045260076024526642414c23000030600a808404818106603090810160081b95839006959095019082900491820690940160101b939093010160c81b604452606490fd5b6173908062000c0b83390190565b600060208284031215620001d5578081fd5b81516001600160a01b0381168114620001ec578182fd5b9392505050565b60805160601c60a05160c05160601c60e0516101005160601c610120516109b66200025560003980610163528061018c5250806101eb52508061030852508061013a5280610384525080610329525080610119528061036052506109b66000f3fe608060405234801561001057600080fd5b50600436106100615760003560e01c8062c194db14610066578063174481fa146100845780632da47c401461009a5780636634b753146100b05780638d928af8146100d0578063fbce0393146100e5575b600080fd5b61006e6100f8565b60405161007b9190610835565b60405180910390f35b61008c610117565b60405161007b929190610810565b6100a261015d565b60405161007b929190610918565b6100c36100be366004610655565b6101c7565b60405161007b919061082a565b6100d86101e9565b60405161007b91906107fc565b6100d86100f3366004610671565b61020d565b606061011260405180602001604052806000815250610300565b905090565b7f00000000000000000000000000000000000000000000000000000000000000007f00000000000000000000000000000000000000000000000000000000000000009091565b600080427f00000000000000000000000000000000000000000000000000000000000000008110156101b957807f000000000000000000000000000000000000000000000000000000000000000003925062278d0091506101c2565b60009250600091505b509091565b6001600160a01b03811660009081526020819052604090205460ff165b919050565b7f000000000000000000000000000000000000000000000000000000000000000090565b600080600061021a61015d565b915091506102a16102296101e9565b8a8a8a8a8c5167ffffffffffffffff8111801561024557600080fd5b5060405190808252806020026020018201604052801561026f578160200160208202803683370190505b508b89898d60405160200161028d9a99989796959493929190610848565b6040516020818303038152906040526103d9565b9998505050505050505050565b80517f602038038060206000396000f3fefefefefefefefefefefefefefefefefefefe808352600091602081018484f090845291506102fa6001600160a01b03831615156101ac610439565b50919050565b8051604080517f00000000000000000000000000000000000000000000000000000000000000007f0000000000000000000000000000000000000000000000000000000000000000818101858101848101602090810190965280855293957f00000000000000000000000000000000000000000000000000000000000000009592947f000000000000000000000000000000000000000000000000000000000000000094938801866000828a3c846000888301883c50602089810190898501016103cb81838661044b565b505050505050505050919050565b6000806103e583610489565b6001600160a01b038116600081815260208190526040808220805460ff191660011790555192935090917f83a48fbcfc991335314e74d0496aab6a1987e992ddc85dddbcc4d6dd6ef2e9fc9190a292915050565b8161044757610447816104c3565b5050565b5b6020811061046b578151835260209283019290910190601f190161044c565b905182516020929092036101000a6000190180199091169116179052565b60008061049583610300565b905060008151602083016000f090506001600160a01b0381166104bc573d6000803e3d6000fd5b9392505050565b62461bcd60e51b6000908152602060045260076024526642414c23000030600a808404818106603090810160081b95839006959095019082900491820690940160101b939093010160c81b604452606490fd5b80356101e481610968565b600082601f830112610531578081fd5b813560206105466105418361094a565b610926565b8281528181019085830183850287018401881015610562578586fd5b855b8581101561058957813561057781610968565b84529284019290840190600101610564565b5090979650505050505050565b600082601f8301126105a6578081fd5b813560206105b66105418361094a565b82815281810190858301838502870184018810156105d2578586fd5b855b85811015610589578135845292840192908401906001016105d4565b600082601f830112610600578081fd5b813567ffffffffffffffff81111561061457fe5b610627601f8201601f1916602001610926565b81815284602083860101111561063b578283fd5b816020850160208301379081016020019190915292915050565b600060208284031215610666578081fd5b81356104bc81610968565b60008060008060008060c08789031215610689578182fd5b863567ffffffffffffffff808211156106a0578384fd5b6106ac8a838b016105f0565b975060208901359150808211156106c1578384fd5b6106cd8a838b016105f0565b965060408901359150808211156106e2578384fd5b6106ee8a838b01610521565b95506060890135915080821115610703578384fd5b5061071089828a01610596565b9350506080870135915061072660a08801610516565b90509295509295509295565b6001600160a01b03169052565b6000815180845260208085019450808401835b838110156107775781516001600160a01b031687529582019590820190600101610752565b509495945050505050565b6000815180845260208085019450808401835b8381101561077757815187529582019590820190600101610795565b60008151808452815b818110156107d6576020818501810151868301820152016107ba565b818111156107e75782602083870101525b50601f01601f19169290920160200192915050565b6001600160a01b0391909116815260200190565b6001600160a01b0392831681529116602082015260400190565b901515815260200190565b6000602082526104bc60208301846107b1565b6001600160a01b038b811682526101406020808401829052600092906108708584018f6107b1565b92508483036040860152610884838e6107b1565b85810360608701528c51808252828e01945090820190855b818110156108ba57855185168352948301949183019160010161089c565b505085810360808701526108ce818d610782565b935050505082810360a08401526108e5818961073f565b9150508560c08301528460e083015283610100830152610909610120830184610732565b9b9a5050505050505050505050565b918252602082015260400190565b60405181810167ffffffffffffffff8111828210171561094257fe5b604052919050565b600067ffffffffffffffff82111561095e57fe5b5060209081020190565b6001600160a01b038116811461097d57600080fd5b5056fea2646970667358221220120f403b47384a7a16b7fb3fb0169a49753ebd72ea0a7b78c839bc8dd5a5591b64736f6c634300070600336109806040527f6e71edae12b1b97f4d1f60370fef10105fa2faae0126114a169c64845d6126c9610120523480156200003757600080fd5b5060405162007390380380620073908339810160408190526200005a91620013e8565b8989898988888888888886516002146200007657600162000079565b60025b8989898989898989828289898180604051806040016040528060018152602001603160f81b815250848489336001600160a01b031660001b806080818152505050806001600160a01b031660a0816001600160a01b031660601b81525050508160039080519060200190620000f092919062001141565b5080516200010690600490602084019062001141565b50506005805460ff1916601217905550815160209283012060c052805191012060e05250507f8b73c3c69bb8fe3d512ecc4cf759cc79239f7b179b0ffacaa9a75d522b39400f6101005250620001656276a70083111561019462000ea7565b6200017962278d0082111561019562000ea7565b42909101610140819052016101605285516200019b906002111560c862000ea7565b620001b5620001a962000ebc565b8751111560c962000ea7565b620001cb8662000ec160201b62000d9c1760201c565b620001d68462000ecd565b6040516309b2760f60e01b81526000906001600160a01b038c16906309b2760f9062000207908d90600401620015c5565b602060405180830381600087803b1580156200022257600080fd5b505af115801562000237573d6000803e3d6000fd5b505050506040513d601f19601f820116820180604052508101906200025d9190620013cf565b604051633354e3e960e11b81529091506001600160a01b038c16906366a9c7d290620002929084908b908b906004016200152b565b600060405180830381600087803b158015620002ad57600080fd5b505af1158015620002c2573d6000803e3d6000fd5b505050508a6001600160a01b0316610180816001600160a01b031660601b81525050806101a0818152505050505050505050505050505050505050505050506000875190506200031f81885162000f5960201b62000da61760201c565b6101c081905260008080805b848160ff161015620003aa5760008b8260ff16815181106200034957fe5b6020026020010151905062000371662386f26fc1000082101561012e62000ea760201b60201c565b6200038b818662000f6860201b62000db31790919060201c565b945082811115620003a0578160ff1693508092505b506001016200032b565b50620003c3670de0b6b3a7640000841461013462000ea7565b6106e082905289518a90600090620003d757fe5b6020026020010151610700818152505089600181518110620003f557fe5b6020026020010151610720818152505060028411620004165760006200042d565b896002815181106200042457fe5b60200260200101515b61074052600384116200044257600062000459565b896003815181106200045057fe5b60200260200101515b61076052600484116200046e57600062000485565b896004815181106200047c57fe5b60200260200101515b61078052600584116200049a576000620004b1565b89600581518110620004a857fe5b60200260200101515b6107a05260068411620004c6576000620004dd565b89600681518110620004d457fe5b60200260200101515b6107c05260078411620004f257600062000509565b896007815181106200050057fe5b60200260200101515b6107e052600884116200051e57600062000535565b896008815181106200052c57fe5b60200260200101515b61080052600984116200054a57600062000561565b896009815181106200055857fe5b60200260200101515b61082052600a8411620005765760006200058d565b89600a815181106200058457fe5b60200260200101515b61084052600b8411620005a2576000620005b9565b89600b81518110620005b057fe5b60200260200101515b61086052600c8411620005ce576000620005e5565b89600c81518110620005dc57fe5b60200260200101515b61088052600d8411620005fa57600062000611565b89600d815181106200060857fe5b60200260200101515b6108a052600e8411620006265760006200063d565b89600e815181106200063457fe5b60200260200101515b6108c052600f84116200065257600062000669565b89600f815181106200066057fe5b60200260200101515b6108e052601084116200067e57600062000695565b896010815181106200068c57fe5b60200260200101515b6109005260118411620006aa576000620006c1565b89601181518110620006b857fe5b60200260200101515b6109205260128411620006d6576000620006ed565b89601281518110620006e457fe5b60200260200101515b61094052601384116200070257600062000719565b896013815181106200071057fe5b60200260200101515b610960528a518b906000906200072b57fe5b60200260200101516001600160a01b03166101e0816001600160a01b031660601b815250508a6001815181106200075e57fe5b60200260200101516001600160a01b0316610200816001600160a01b031660601b815250506002841162000794576000620007ab565b8a600281518110620007a257fe5b60200260200101515b60601b6001600160601b0319166102205260038411620007cd576000620007e4565b8a600381518110620007db57fe5b60200260200101515b60601b6001600160601b0319166102405260048411620008065760006200081d565b8a6004815181106200081457fe5b60200260200101515b60601b6001600160601b03191661026052600584116200083f57600062000856565b8a6005815181106200084d57fe5b60200260200101515b60601b6001600160601b0319166102805260068411620008785760006200088f565b8a6006815181106200088657fe5b60200260200101515b60601b6001600160601b0319166102a05260078411620008b1576000620008c8565b8a600781518110620008bf57fe5b60200260200101515b60601b6001600160601b0319166102c05260088411620008ea57600062000901565b8a600881518110620008f857fe5b60200260200101515b60601b6001600160601b0319166102e05260098411620009235760006200093a565b8a6009815181106200093157fe5b60200260200101515b60601b6001600160601b03191661030052600a84116200095c57600062000973565b8a600a815181106200096a57fe5b60200260200101515b60601b6001600160601b03191661032052600b841162000995576000620009ac565b8a600b81518110620009a357fe5b60200260200101515b60601b6001600160601b03191661034052600c8411620009ce576000620009e5565b8a600c81518110620009dc57fe5b60200260200101515b60601b6001600160601b03191661036052600d841162000a0757600062000a1e565b8a600d8151811062000a1557fe5b60200260200101515b60601b6001600160601b03191661038052600e841162000a4057600062000a57565b8a600e8151811062000a4e57fe5b60200260200101515b60601b6001600160601b0319166103a052600f841162000a7957600062000a90565b8a600f8151811062000a8757fe5b60200260200101515b60601b6001600160601b0319166103c0526010841162000ab257600062000ac9565b8a60108151811062000ac057fe5b60200260200101515b60601b6001600160601b0319166103e0526011841162000aeb57600062000b02565b8a60118151811062000af957fe5b60200260200101515b60601b6001600160601b031916610400526012841162000b2457600062000b3b565b8a60128151811062000b3257fe5b60200260200101515b60601b6001600160601b031916610420526013841162000b5d57600062000b74565b8a60138151811062000b6b57fe5b60200260200101515b6001600160a01b0316610440816001600160a01b031660601b8152505062000bb78b60008151811062000ba357fe5b602002602001015162000f8360201b60201c565b610460528a5162000bd0908c90600190811062000ba357fe5b610480526002841162000be557600062000bf7565b62000bf78b60028151811062000ba357fe5b6104a0526003841162000c0c57600062000c1e565b62000c1e8b60038151811062000ba357fe5b6104c0526004841162000c3357600062000c45565b62000c458b60048151811062000ba357fe5b6104e0526005841162000c5a57600062000c6c565b62000c6c8b60058151811062000ba357fe5b610500526006841162000c8157600062000c93565b62000c938b60068151811062000ba357fe5b610520526007841162000ca857600062000cba565b62000cba8b60078151811062000ba357fe5b610540526008841162000ccf57600062000ce1565b62000ce18b60088151811062000ba357fe5b610560526009841162000cf657600062000d08565b62000d088b60098151811062000ba357fe5b61058052600a841162000d1d57600062000d2f565b62000d2f8b600a8151811062000ba357fe5b6105a052600b841162000d4457600062000d56565b62000d568b600b8151811062000ba357fe5b6105c052600c841162000d6b57600062000d7d565b62000d7d8b600c8151811062000ba357fe5b6105e052600d841162000d9257600062000da4565b62000da48b600d8151811062000ba357fe5b61060052600e841162000db957600062000dcb565b62000dcb8b600e8151811062000ba357fe5b61062052600f841162000de057600062000df2565b62000df28b600f8151811062000ba357fe5b610640526010841162000e0757600062000e19565b62000e198b60108151811062000ba357fe5b610660526011841162000e2e57600062000e40565b62000e408b60118151811062000ba357fe5b610680526012841162000e5557600062000e67565b62000e678b60128151811062000ba357fe5b6106a0526013841162000e7c57600062000e8e565b62000e8e8b60138151811062000ba357fe5b6106c052506200163b9c50505050505050505050505050565b8162000eb85762000eb88162001034565b5050565b601490565b8062000eb88162001087565b62000ee264e8d4a5100082101560cb62000ea7565b62000efa67016345785d8a000082111560ca62000ea7565b62000f198160c06008546200111460201b62000dc5179092919060201c565b6008556040517fa9ba3ffe0b6c366b81232caab38605a0699ad5398d6cce76f91ee809e322dafc9062000f4e908390620015da565b60405180910390a150565b62000eb8828214606762000ea7565b600082820162000f7c848210158362000ea7565b9392505050565b600080826001600160a01b031663313ce5676040518163ffffffff1660e01b815260040160206040518083038186803b15801562000fc057600080fd5b505afa15801562000fd5573d6000803e3d6000fd5b505050506040513d601f19601f8201168201806040525081019062000ffb919062001508565b60ff16905060006200101a6012836200112960201b62000dda1760201c565b905080600a0a670de0b6b3a764000002925050505b919050565b62461bcd60e51b6000908152602060045260076024526642414c23000030600a808404818106603090810160081b95839006959095019082900491820690940160101b939093010160c81b604452606490fd5b600281511015620010985762001111565b600081600081518110620010a857fe5b602002602001015190506000600190505b82518110156200110e576000838281518110620010d257fe5b6020026020010151905062001103816001600160a01b0316846001600160a01b031610606562000ea760201b60201c565b9150600101620010b9565b50505b50565b6001600160401b03811b1992909216911b1790565b60006200113b83831115600162000ea7565b50900390565b828054600181600116156101000203166002900490600052602060002090601f016020900481019282620011795760008555620011c4565b82601f106200119457805160ff1916838001178555620011c4565b82800160010185558215620011c4579182015b82811115620011c4578251825591602001919060010190620011a7565b50620011d2929150620011d6565b5090565b5b80821115620011d25760008155600101620011d7565b80516200102f8162001625565b600082601f8301126200120b578081fd5b81516020620012246200121e8362001607565b620015e3565b828152818101908583018385028701840188101562001241578586fd5b855b858110156200126c578151620012598162001625565b8452928401929084019060010162001243565b5090979650505050505050565b600082601f8301126200128a578081fd5b815160206200129d6200121e8362001607565b8281528181019085830183850287018401881015620012ba578586fd5b855b858110156200126c578151620012d28162001625565b84529284019290840190600101620012bc565b600082601f830112620012f6578081fd5b81516020620013096200121e8362001607565b828152818101908583018385028701840188101562001326578586fd5b855b858110156200126c5781518452928401929084019060010162001328565b600082601f83011262001357578081fd5b81516001600160401b038111156200136b57fe5b602062001381601f8301601f19168201620015e3565b828152858284870101111562001395578384fd5b835b83811015620013b457858101830151828201840152820162001397565b83811115620013c557848385840101525b5095945050505050565b600060208284031215620013e1578081fd5b5051919050565b6000806000806000806000806000806101408b8d03121562001408578586fd5b620014138b620011ed565b60208c0151909a506001600160401b038082111562001430578788fd5b6200143e8e838f0162001346565b9a5060408d015191508082111562001454578788fd5b620014628e838f0162001346565b995060608d015191508082111562001478578788fd5b620014868e838f0162001279565b985060808d01519150808211156200149c578788fd5b620014aa8e838f01620012e5565b975060a08d0151915080821115620014c0578687fd5b50620014cf8d828e01620011fa565b95505060c08b0151935060e08b015192506101008b01519150620014f76101208c01620011ed565b90509295989b9194979a5092959850565b6000602082840312156200151a578081fd5b815160ff8116811462000f7c578182fd5b60006060820185835260206060818501528186518084526080860191508288019350845b81811015620015765784516001600160a01b0316835293830193918301916001016200154f565b505084810360408601528551808252908201925081860190845b81811015620015b75782516001600160a01b03168552938301939183019160010162001590565b509298975050505050505050565b6020810160038310620015d457fe5b91905290565b90815260200190565b6040518181016001600160401b0381118282101715620015ff57fe5b604052919050565b60006001600160401b038211156200161b57fe5b5060209081020190565b6001600160a01b03811681146200111157600080fd5b60805160a05160601c60c05160e051610100516101205161014051610160516101805160601c6101a0516101c0516101e05160601c6102005160601c6102205160601c6102405160601c6102605160601c6102805160601c6102a05160601c6102c05160601c6102e05160601c6103005160601c6103205160601c6103405160601c6103605160601c6103805160601c6103a05160601c6103c05160601c6103e05160601c6104005160601c6104205160601c6104405160601c61046051610480516104a0516104c0516104e05161050051610520516105405161056051610580516105a0516105c0516105e05161060051610620516106405161066051610680516106a0516106c0516106e05161070051610720516107405161076051610780516107a0516107c0516107e05161080051610820516108405161086051610880516108a0516108c0516108e0516109005161092051610940516109605161590962001a8760003980612c0e5280613902525080612bcb52806138a1525080612b885280613840525080612b4552806137df525080612b02528061377e525080612abf528061371d525080612a7c52806136bc525080612a39528061365b5250806129f652806135fa5250806129b35280613599525080612970528061353852508061292d52806134d75250806128ea52806134765250806128a7528061341552508061286452806133b452508061282152806133535250806127de52806132f252508061279b5280613291525080612758528061323052508061271552806131cf5250806125625250806114cb52806123d15250806114885280612370525080611445528061230f52508061140252806122ae5250806113bf528061224d52508061137c52806121ec525080611339528061218b5250806112f6528061212a5250806112b352806120c9525080611270528061206852508061122d52806120075250806111ea5280611fa65250806111a75280611f455250806111645280611ee45250806111215280611e835250806110de5280611e2252508061109b5280611dc15250806110585280611d605250806110155280611cff525080610fc45280611c9e52508061239652806138c752508061233552806138665250806122d4528061380552508061227352806137a452508061221252806137435250806121b152806136e252508061215052806136815250806120ef528061362052508061208e52806135bf52508061202d528061355e525080611fcc52806134fd525080611f6b528061349c525080611f0a528061343b525080611ea952806133da525080611e485280613379525080611de75280613318525080611d8652806132b7525080611d255280613256525080611cc452806131f5525080611c635280613194525080611822525080610609525080610872525080610f47525080610f23525080610b305250806115fb52508061163d52508061161c52508061084e5250806107d852506159096000f3fe608060405234801561001057600080fd5b50600436106102065760003560e01c806374f3b0091161011a5780639d2c110c116100ad578063c0ff1a151161007c578063c0ff1a151461041c578063d505accf14610424578063d5c096c414610437578063dd62ed3e1461044a578063f89f27ed1461045d57610206565b80639d2c110c146103db578063a457c2d7146103ee578063a9059cbb14610401578063aaabadc51461041457610206565b8063893d20e8116100e9578063893d20e8146103ae5780638d928af8146103c357806395d89b41146103cb5780639b02cdde146103d357610206565b806374f3b009146103545780637ecebe0014610375578063851c1bb31461038857806387ec68171461039b57610206565b80633644e5151161019d57806350dd6ed91161016c57806350dd6ed9146102fd57806355c67628146103105780636028bfd414610318578063679aefce1461033957806370a082311461034157610206565b80633644e515146102c757806338e9922e146102cf57806338fff2d0146102e257806339509351146102ea57610206565b80631c0de051116101d95780631c0de051146102735780631dd746ea1461028a57806323b872dd1461029f578063313ce567146102b257610206565b806306fdde031461020b578063095ea7b31461022957806316c38b3c1461024957806318160ddd1461025e575b600080fd5b610213610465565b6040516102209190615829565b60405180910390f35b61023c61023736600461510a565b6104fc565b6040516102209190615730565b61025c610257366004615200565b610513565b005b610266610527565b6040516102209190615753565b61027b61052d565b6040516102209392919061573b565b610292610556565b60405161022091906156f8565b61023c6102ad366004615055565b610565565b6102ba6105db565b6040516102209190615855565b6102666105e4565b61025c6102dd3660046155c4565b6105ee565b610266610607565b61023c6102f836600461510a565b61062b565b61025c61030b366004615378565b610666565b610266610684565b61032b610326366004615238565b610695565b60405161022092919061583c565b6102666106cc565b61026661034f366004615001565b6106f7565b610367610362366004615238565b610716565b60405161022092919061570b565b610266610383366004615001565b6107b9565b610266610396366004615334565b6107d4565b61032b6103a9366004615238565b610826565b6103b661084c565b60405161022091906156e4565b6103b6610870565b610213610894565b6102666108f5565b6102666103e93660046154ce565b6108fb565b61023c6103fc36600461510a565b6109e2565b61023c61040f36600461510a565b610a20565b6103b6610a2d565b610266610a37565b61025c610432366004615095565b610afb565b610367610445366004615238565b610c44565b61026661045836600461501d565b610d67565b610292610d92565b60038054604080516020601f60026000196101006001881615020190951694909404938401819004810282018101909252828152606093909290918301828280156104f15780601f106104c6576101008083540402835291602001916104f1565b820191906000526020600020905b8154815290600101906020018083116104d457829003601f168201915b505050505090505b90565b6000610509338484610df0565b5060015b92915050565b61051b610e58565b61052481610e86565b50565b60025490565b600080600061053a610f04565b159250610545610f21565b915061054f610f45565b9050909192565b6060610560610f69565b905090565b6000806105728533610d67565b9050610596336001600160a01b038716148061058e5750838210155b61019e611509565b6105a1858585611517565b336001600160a01b038616148015906105bc57506000198114155b156105ce576105ce8533858403610df0565b60019150505b9392505050565b60055460ff1690565b60006105606115f7565b6105f6610e58565b6105fe611694565b610524816116a9565b7f000000000000000000000000000000000000000000000000000000000000000090565b3360008181526001602090815260408083206001600160a01b038716845290915281205490916105099185906106619086610db3565b610df0565b61066e610e58565b610676611694565b6106808282611714565b5050565b6008546000906105609060c0611813565b600060606106ab86516106a6611820565b610da6565b6106c089898989898989611844611912611978565b97509795505050505050565b60006105606106d9610527565b6106f16106e4610a37565b6106ec611820565b611a9a565b90611abe565b6001600160a01b0381166000908152602081905260409020545b919050565b60608088610740610725610870565b6001600160a01b0316336001600160a01b03161460cd611509565b61075561074b610607565b82146101f4611509565b600061075f610f69565b905061076b8882611b0f565b60008060006107808e8e8e8e8e8e8a8f611844565b9250925092506107908d84611b70565b61079a8285611912565b6107a48185611912565b909550935050505b5097509795505050505050565b6001600160a01b031660009081526006602052604090205490565b60007f0000000000000000000000000000000000000000000000000000000000000000826040516020016108099291906156a1565b604051602081830303815290604052805190602001209050919050565b6000606061083786516106a6611820565b6106c089898989898989611b7a611bfe611978565b7f000000000000000000000000000000000000000000000000000000000000000090565b7f000000000000000000000000000000000000000000000000000000000000000090565b60048054604080516020601f60026000196101006001881615020190951694909404938401819004810282018101909252828152606093909290918301828280156104f15780601f106104c6576101008083540402835291602001916104f1565b60095490565b60008061090b8560200151611c5f565b9050600061091c8660400151611c5f565b905060008651600181111561092d57fe5b1415610993576109408660600151612400565b606087015261094f8583612421565b945061095b8482612421565b935061096b866060015183612421565b6060870152600061097d87878761242d565b90506109898183612468565b93505050506105d4565b61099d8583612421565b94506109a98482612421565b93506109b9866060015182612421565b606087015260006109cb878787612474565b90506109d781846124a7565b9050610989816124b3565b6000806109ef3385610d67565b9050808310610a0957610a0433856000610df0565b610a16565b610a163385858403610df0565b5060019392505050565b6000610509338484611517565b60006105606124d9565b600080610a42610870565b6001600160a01b031663f94d4668610a58610607565b6040518263ffffffff1660e01b8152600401610a749190615753565b60006040518083038186803b158015610a8c57600080fd5b505afa158015610aa0573d6000803e3d6000fd5b505050506040513d6000823e601f3d908101601f19168201604052610ac89190810190615135565b50915050610add81610ad8610f69565b611b0f565b6000610ae7612553565b509050610af48183612587565b9250505090565b610b098442111560d1611509565b6001600160a01b0387166000908152600660209081526040808320549051909291610b60917f0000000000000000000000000000000000000000000000000000000000000000918c918c918c9188918d910161577b565b6040516020818303038152906040528051906020012090506000610b83826125f9565b9050600060018288888860405160008152602001604052604051610baa949392919061580b565b6020604051602081039080840390855afa158015610bcc573d6000803e3d6000fd5b5050604051601f1901519150610c0e90506001600160a01b03821615801590610c0657508b6001600160a01b0316826001600160a01b0316145b6101f8611509565b6001600160a01b038b166000908152600660205260409020600185019055610c378b8b8b610df0565b5050505050505050505050565b60608088610c53610725610870565b610c5e61074b610607565b6000610c68610f69565b9050610c72610527565b610d1757600080610c868d8d8d868b612615565b91509150610c9b620f424083101560cc611509565b610ca96000620f42406126b0565b610cb88b620f424084036126b0565b610cc28184611bfe565b80610ccb611820565b6001600160401b0381118015610ce057600080fd5b50604051908082528060200260200182016040528015610d0a578160200160208202803683370190505b50955095505050506107ac565b610d218882611b0f565b6000806000610d368e8e8e8e8e8e8a8f611b7a565b925092509250610d468c846126b0565b610d508285611bfe565b610d5a8185611912565b90955093506107ac915050565b6001600160a01b03918216600090815260016020908152604080832093909416825291909152205490565b60606105606126ba565b8061068081612c3a565b6106808183146067611509565b60008282016105d48482101583611509565b6001600160401b03811b1992909216911b1790565b6000610dea838311156001611509565b50900390565b6001600160a01b0380841660008181526001602090815260408083209487168084529490915290819020849055517f8c5be1e5ebec7d5bd14f71427d1e84f3dd0314c0f7b2291e5b200ac8c7c3b92590610e4b908590615753565b60405180910390a3505050565b6000610e6f6000356001600160e01b0319166107d4565b9050610524610e7e8233612cb3565b610191611509565b8015610ea657610ea1610e97610f21565b4210610193611509565b610ebb565b610ebb610eb1610f45565b42106101a9611509565b6007805460ff19168215151790556040517f9e3a5e37224532dea67b89face185703738a228a6e8a23dee546960180d3be6490610ef9908390615730565b60405180910390a150565b6000610f0e610f45565b42118061056057505060075460ff161590565b7f000000000000000000000000000000000000000000000000000000000000000090565b7f000000000000000000000000000000000000000000000000000000000000000090565b60606000610f75611820565b90506000816001600160401b0381118015610f8f57600080fd5b50604051908082528060200260200182016040528015610fb9578160200160208202803683370190505b5090508115611001577f000000000000000000000000000000000000000000000000000000000000000081600081518110610ff057fe5b60200260200101818152505061100a565b91506104f99050565b6001821115611001577f00000000000000000000000000000000000000000000000000000000000000008160018151811061104157fe5b6020026020010181815250506002821115611001577f00000000000000000000000000000000000000000000000000000000000000008160028151811061108457fe5b6020026020010181815250506003821115611001577f0000000000000000000000000000000000000000000000000000000000000000816003815181106110c757fe5b6020026020010181815250506004821115611001577f00000000000000000000000000000000000000000000000000000000000000008160048151811061110a57fe5b6020026020010181815250506005821115611001577f00000000000000000000000000000000000000000000000000000000000000008160058151811061114d57fe5b6020026020010181815250506006821115611001577f00000000000000000000000000000000000000000000000000000000000000008160068151811061119057fe5b6020026020010181815250506007821115611001577f0000000000000000000000000000000000000000000000000000000000000000816007815181106111d357fe5b6020026020010181815250506008821115611001577f00000000000000000000000000000000000000000000000000000000000000008160088151811061121657fe5b6020026020010181815250506009821115611001577f00000000000000000000000000000000000000000000000000000000000000008160098151811061125957fe5b602002602001018181525050600a821115611001577f000000000000000000000000000000000000000000000000000000000000000081600a8151811061129c57fe5b602002602001018181525050600b821115611001577f000000000000000000000000000000000000000000000000000000000000000081600b815181106112df57fe5b602002602001018181525050600c821115611001577f000000000000000000000000000000000000000000000000000000000000000081600c8151811061132257fe5b602002602001018181525050600d821115611001577f000000000000000000000000000000000000000000000000000000000000000081600d8151811061136557fe5b602002602001018181525050600e821115611001577f000000000000000000000000000000000000000000000000000000000000000081600e815181106113a857fe5b602002602001018181525050600f821115611001577f000000000000000000000000000000000000000000000000000000000000000081600f815181106113eb57fe5b6020026020010181815250506010821115611001577f00000000000000000000000000000000000000000000000000000000000000008160108151811061142e57fe5b6020026020010181815250506011821115611001577f00000000000000000000000000000000000000000000000000000000000000008160118151811061147157fe5b6020026020010181815250506012821115611001577f0000000000000000000000000000000000000000000000000000000000000000816012815181106114b457fe5b6020026020010181815250506013821115611001577f0000000000000000000000000000000000000000000000000000000000000000816013815181106114f757fe5b60200260200101818152505091505090565b816106805761068081612da3565b61152e6001600160a01b0384161515610198611509565b6115456001600160a01b0383161515610199611509565b611550838383611973565b6001600160a01b03831660009081526020819052604090205461157690826101a0612df6565b6001600160a01b0380851660009081526020819052604080822093909355908416815220546115a59082610db3565b6001600160a01b0380841660008181526020819052604090819020939093559151908516907fddf252ad1be2c89b69c2b068fc378daa952ba7f163c4a11628f55a4df523b3ef90610e4b908590615753565b60007f00000000000000000000000000000000000000000000000000000000000000007f00000000000000000000000000000000000000000000000000000000000000007f0000000000000000000000000000000000000000000000000000000000000000611664612e0c565b306040516020016116799594939291906157af565b60405160208183030381529060405280519060200120905090565b6116a761169f610f04565b610192611509565b565b6116bc64e8d4a5100082101560cb611509565b6116d267016345785d8a000082111560ca611509565b6008546116e1908260c0610dc5565b6008556040517fa9ba3ffe0b6c366b81232caab38605a0699ad5398d6cce76f91ee809e322dafc90610ef9908390615753565b600061171e610607565b9050600061172a610870565b6001600160a01b031663b05f8e4883866040518363ffffffff1660e01b81526004016117579291906157f4565b60806040518083038186803b15801561176f57600080fd5b505afa158015611783573d6000803e3d6000fd5b505050506040513d601f19601f820116820180604052508101906117a791906155dc565b604051630639cdb560e21b81529094506001600160a01b03851693506318e736d492506117db9150859087906004016157db565b600060405180830381600087803b1580156117f557600080fd5b505af1158015611809573d6000803e3d6000fd5b5050505050505050565b1c6001600160401b031690565b7f000000000000000000000000000000000000000000000000000000000000000090565b6000606080600080611854612553565b91509150611860610f04565b15611898576000611871838c612587565b90506118838b8484600954858e612e10565b93506118928b85610dda612ec1565b506118e3565b6118a0611820565b6001600160401b03811180156118b557600080fd5b506040519080825280602002602001820160405280156118df578160200160208202803683370190505b5092505b6118ef8a838989612f2c565b90955093506118ff8a8584612f9b565b6009555050985098509895505050505050565b60005b61191d611820565b8110156119735761195483828151811061193357fe5b602002602001015183838151811061194757fe5b6020026020010151611abe565b83828151811061196057fe5b6020908102919091010152600101611915565b505050565b333014611a36576000306001600160a01b031660003660405161199c9291906156b9565b6000604051808303816000865af19150503d80600081146119d9576040519150601f19603f3d011682016040523d82523d6000602084013e6119de565b606091505b5050905080600081146119ed57fe5b60046000803e6000516001600160e01b0319166343adbafb60e01b8114611a18573d6000803e3d6000fd5b506020600460003e604060205260243d03602460403e601c3d016000f35b6000611a40610f69565b9050611a4c8782611b0f565b600080611a638c8c8c8c8c8c898d8d63ffffffff16565b5091509150611a7681848663ffffffff16565b8051601f1982018390526343adbafb603f1983015260200260231982016044820181fd5b60008282026105d4841580611ab7575083858381611ab457fe5b04145b6003611509565b6000611acd8215156004611509565b82611ada5750600061050d565b670de0b6b3a764000083810290611afd90858381611af457fe5b04146005611509565b828181611b0657fe5b0491505061050d565b60005b611b1a611820565b81101561197357611b51838281518110611b3057fe5b6020026020010151838381518110611b4457fe5b6020026020010151612fb4565b838281518110611b5d57fe5b6020908102919091010152600101611b12565b6106808282612fe0565b6000606080611b87611694565b600080611b92612553565b915091506000611ba2838c612587565b90506000611bb68c8585600954868f612e10565b9050611bc58c82610dda612ec1565b600080611bd48e878d8d61309c565b91509150611be38e82886130f7565b60095590975095509350505050985098509895505050505050565b60005b611c09611820565b81101561197357611c40838281518110611c1f57fe5b6020026020010151838381518110611c3357fe5b6020026020010151613106565b838281518110611c4c57fe5b6020908102919091010152600101611c01565b60007f00000000000000000000000000000000000000000000000000000000000000006001600160a01b0316826001600160a01b03161415611cc257507f0000000000000000000000000000000000000000000000000000000000000000610711565b7f00000000000000000000000000000000000000000000000000000000000000006001600160a01b0316826001600160a01b03161415611d2357507f0000000000000000000000000000000000000000000000000000000000000000610711565b7f00000000000000000000000000000000000000000000000000000000000000006001600160a01b0316826001600160a01b03161415611d8457507f0000000000000000000000000000000000000000000000000000000000000000610711565b7f00000000000000000000000000000000000000000000000000000000000000006001600160a01b0316826001600160a01b03161415611de557507f0000000000000000000000000000000000000000000000000000000000000000610711565b7f00000000000000000000000000000000000000000000000000000000000000006001600160a01b0316826001600160a01b03161415611e4657507f0000000000000000000000000000000000000000000000000000000000000000610711565b7f00000000000000000000000000000000000000000000000000000000000000006001600160a01b0316826001600160a01b03161415611ea757507f0000000000000000000000000000000000000000000000000000000000000000610711565b7f00000000000000000000000000000000000000000000000000000000000000006001600160a01b0316826001600160a01b03161415611f0857507f0000000000000000000000000000000000000000000000000000000000000000610711565b7f00000000000000000000000000000000000000000000000000000000000000006001600160a01b0316826001600160a01b03161415611f6957507f0000000000000000000000000000000000000000000000000000000000000000610711565b7f00000000000000000000000000000000000000000000000000000000000000006001600160a01b0316826001600160a01b03161415611fca57507f0000000000000000000000000000000000000000000000000000000000000000610711565b7f00000000000000000000000000000000000000000000000000000000000000006001600160a01b0316826001600160a01b0316141561202b57507f0000000000000000000000000000000000000000000000000000000000000000610711565b7f00000000000000000000000000000000000000000000000000000000000000006001600160a01b0316826001600160a01b0316141561208c57507f0000000000000000000000000000000000000000000000000000000000000000610711565b7f00000000000000000000000000000000000000000000000000000000000000006001600160a01b0316826001600160a01b031614156120ed57507f0000000000000000000000000000000000000000000000000000000000000000610711565b7f00000000000000000000000000000000000000000000000000000000000000006001600160a01b0316826001600160a01b0316141561214e57507f0000000000000000000000000000000000000000000000000000000000000000610711565b7f00000000000000000000000000000000000000000000000000000000000000006001600160a01b0316826001600160a01b031614156121af57507f0000000000000000000000000000000000000000000000000000000000000000610711565b7f00000000000000000000000000000000000000000000000000000000000000006001600160a01b0316826001600160a01b0316141561221057507f0000000000000000000000000000000000000000000000000000000000000000610711565b7f00000000000000000000000000000000000000000000000000000000000000006001600160a01b0316826001600160a01b0316141561227157507f0000000000000000000000000000000000000000000000000000000000000000610711565b7f00000000000000000000000000000000000000000000000000000000000000006001600160a01b0316826001600160a01b031614156122d257507f0000000000000000000000000000000000000000000000000000000000000000610711565b7f00000000000000000000000000000000000000000000000000000000000000006001600160a01b0316826001600160a01b0316141561233357507f0000000000000000000000000000000000000000000000000000000000000000610711565b7f00000000000000000000000000000000000000000000000000000000000000006001600160a01b0316826001600160a01b0316141561239457507f0000000000000000000000000000000000000000000000000000000000000000610711565b7f00000000000000000000000000000000000000000000000000000000000000006001600160a01b0316826001600160a01b031614156123f557507f0000000000000000000000000000000000000000000000000000000000000000610711565b610711610135612da3565b60008061241561240e610684565b8490613154565b90506105d48382610dda565b60006105d48383612fb4565b6000612437611694565b612460836124488660200151613190565b846124568860400151613190565b8860600151613926565b949350505050565b60006105d48383611abe565b600061247e611694565b6124608361248f8660200151613190565b8461249d8860400151613190565b88606001516139a3565b60006105d48383613106565b600061050d6124d26124c3610684565b670de0b6b3a764000090610dda565b8390613106565b60006124e3610870565b6001600160a01b031663aaabadc56040518163ffffffff1660e01b815260040160206040518083038186803b15801561251b57600080fd5b505afa15801561252f573d6000803e3d6000fd5b505050506040513d601f19601f82011682018060405250810190610560919061535c565b6060600061255f6126ba565b927f000000000000000000000000000000000000000000000000000000000000000092509050565b670de0b6b3a764000060005b83518110156125e9576125df6125d88583815181106125ae57fe5b60200260200101518584815181106125c257fe5b6020026020010151613a1990919063ffffffff16565b8390612fb4565b9150600101612593565b5061050d60008211610137611509565b60006126036115f7565b826040516020016108099291906156c9565b60006060612621611694565b600061262c84613a68565b9050612647600082600281111561263f57fe5b1460ce611509565b600061265285613a7e565b905061266661265f611820565b8251610da6565b6126708187611b0f565b600061267a612553565b50905060006126898284612587565b90506000612699826106ec611820565b600992909255509a91995090975050505050505050565b6106808282613a94565b606060006126c6611820565b90506000816001600160401b03811180156126e057600080fd5b5060405190808252806020026020018201604052801561270a578160200160208202803683370190505b5090508115611001577f00000000000000000000000000000000000000000000000000000000000000008160008151811061274157fe5b6020026020010181815250506001821115611001577f00000000000000000000000000000000000000000000000000000000000000008160018151811061278457fe5b6020026020010181815250506002821115611001577f0000000000000000000000000000000000000000000000000000000000000000816002815181106127c757fe5b6020026020010181815250506003821115611001577f00000000000000000000000000000000000000000000000000000000000000008160038151811061280a57fe5b6020026020010181815250506004821115611001577f00000000000000000000000000000000000000000000000000000000000000008160048151811061284d57fe5b6020026020010181815250506005821115611001577f00000000000000000000000000000000000000000000000000000000000000008160058151811061289057fe5b6020026020010181815250506006821115611001577f0000000000000000000000000000000000000000000000000000000000000000816006815181106128d357fe5b6020026020010181815250506007821115611001577f00000000000000000000000000000000000000000000000000000000000000008160078151811061291657fe5b6020026020010181815250506008821115611001577f00000000000000000000000000000000000000000000000000000000000000008160088151811061295957fe5b6020026020010181815250506009821115611001577f00000000000000000000000000000000000000000000000000000000000000008160098151811061299c57fe5b602002602001018181525050600a821115611001577f000000000000000000000000000000000000000000000000000000000000000081600a815181106129df57fe5b602002602001018181525050600b821115611001577f000000000000000000000000000000000000000000000000000000000000000081600b81518110612a2257fe5b602002602001018181525050600c821115611001577f000000000000000000000000000000000000000000000000000000000000000081600c81518110612a6557fe5b602002602001018181525050600d821115611001577f000000000000000000000000000000000000000000000000000000000000000081600d81518110612aa857fe5b602002602001018181525050600e821115611001577f000000000000000000000000000000000000000000000000000000000000000081600e81518110612aeb57fe5b602002602001018181525050600f821115611001577f000000000000000000000000000000000000000000000000000000000000000081600f81518110612b2e57fe5b6020026020010181815250506010821115611001577f000000000000000000000000000000000000000000000000000000000000000081601081518110612b7157fe5b6020026020010181815250506011821115611001577f000000000000000000000000000000000000000000000000000000000000000081601181518110612bb457fe5b6020026020010181815250506012821115611001577f000000000000000000000000000000000000000000000000000000000000000081601281518110612bf757fe5b6020026020010181815250506013821115611001577f0000000000000000000000000000000000000000000000000000000000000000816013815181106114f757fe5b600281511015612c4957610524565b600081600081518110612c5857fe5b602002602001015190506000600190505b8251811015611973576000838281518110612c8057fe5b60200260200101519050612ca9816001600160a01b0316846001600160a01b0316106065611509565b9150600101612c69565b600073ba1ba1ba1ba1ba1ba1ba1ba1ba1ba1ba1ba1ba1b612cd261084c565b6001600160a01b031614158015612ced5750612ced83613b22565b15612d1557612cfa61084c565b6001600160a01b0316336001600160a01b031614905061050d565b612d1d6124d9565b6001600160a01b0316639be2a8848484306040518463ffffffff1660e01b8152600401612d4c9392919061575c565b60206040518083038186803b158015612d6457600080fd5b505afa158015612d78573d6000803e3d6000fd5b505050506040513d601f19601f82011682018060405250810190612d9c919061521c565b905061050d565b62461bcd60e51b6000908152602060045260076024526642414c23000030600a808404818106603090810160081b95839006959095019082900491820690940160101b939093010160c81b604452606490fd5b6000612e058484111583611509565b5050900390565b4690565b60606000612e1c611820565b6001600160401b0381118015612e3157600080fd5b50604051908082528060200260200182016040528015612e5b578160200160208202803683370190505b50905082612e6a579050612eb7565b612e9d888781518110612e7957fe5b6020026020010151888881518110612e8d57fe5b6020026020010151878787613b54565b818781518110612ea957fe5b602090810291909101015290505b9695505050505050565b60005b612ecc611820565b811015612f2657612f07848281518110612ee257fe5b6020026020010151848381518110612ef657fe5b60200260200101518463ffffffff16565b848281518110612f1357fe5b6020908102919091010152600101612ec4565b50505050565b600060606000612f3b84613a68565b90506000816002811115612f4b57fe5b1415612f6657612f5c878786613bcc565b9250925050612f92565b6001816002811115612f7457fe5b1415612f8457612f5c8785613cae565b612f5c87878787613ce0565b505b94509492505050565b6000612faa8484610dda612ec1565b6124608285612587565b6000828202612fce841580611ab7575083858381611ab457fe5b670de0b6b3a764000090049392505050565b612ff76001600160a01b038316151561019b611509565b61300382600083611973565b6001600160a01b03821660009081526020819052604090205461302990826101a1612df6565b6001600160a01b03831660009081526020819052604090205560025461304f9082613d4e565b6002556040516000906001600160a01b038416907fddf252ad1be2c89b69c2b068fc378daa952ba7f163c4a11628f55a4df523b3ef90613090908590615753565b60405180910390a35050565b6000606060006130ab84613a68565b905060018160028111156130bb57fe5b14156130cd57612f5c87878787613d5c565b60028160028111156130db57fe5b14156130ec57612f5c878786613db9565b612f90610136612da3565b6000612faa8484610db3612ec1565b60006131158215156004611509565b826131225750600061050d565b670de0b6b3a76400008381029061313c90858381611af457fe5b82600182038161314857fe5b0460010191505061050d565b600082820261316e841580611ab7575083858381611ab457fe5b8061317d57600091505061050d565b670de0b6b3a76400006000198201613148565b60007f00000000000000000000000000000000000000000000000000000000000000006001600160a01b0316826001600160a01b031614156131f357507f0000000000000000000000000000000000000000000000000000000000000000610711565b7f00000000000000000000000000000000000000000000000000000000000000006001600160a01b0316826001600160a01b0316141561325457507f0000000000000000000000000000000000000000000000000000000000000000610711565b7f00000000000000000000000000000000000000000000000000000000000000006001600160a01b0316826001600160a01b031614156132b557507f0000000000000000000000000000000000000000000000000000000000000000610711565b7f00000000000000000000000000000000000000000000000000000000000000006001600160a01b0316826001600160a01b0316141561331657507f0000000000000000000000000000000000000000000000000000000000000000610711565b7f00000000000000000000000000000000000000000000000000000000000000006001600160a01b0316826001600160a01b0316141561337757507f0000000000000000000000000000000000000000000000000000000000000000610711565b7f00000000000000000000000000000000000000000000000000000000000000006001600160a01b0316826001600160a01b031614156133d857507f0000000000000000000000000000000000000000000000000000000000000000610711565b7f00000000000000000000000000000000000000000000000000000000000000006001600160a01b0316826001600160a01b0316141561343957507f0000000000000000000000000000000000000000000000000000000000000000610711565b7f00000000000000000000000000000000000000000000000000000000000000006001600160a01b0316826001600160a01b0316141561349a57507f0000000000000000000000000000000000000000000000000000000000000000610711565b7f00000000000000000000000000000000000000000000000000000000000000006001600160a01b0316826001600160a01b031614156134fb57507f0000000000000000000000000000000000000000000000000000000000000000610711565b7f00000000000000000000000000000000000000000000000000000000000000006001600160a01b0316826001600160a01b0316141561355c57507f0000000000000000000000000000000000000000000000000000000000000000610711565b7f00000000000000000000000000000000000000000000000000000000000000006001600160a01b0316826001600160a01b031614156135bd57507f0000000000000000000000000000000000000000000000000000000000000000610711565b7f00000000000000000000000000000000000000000000000000000000000000006001600160a01b0316826001600160a01b0316141561361e57507f0000000000000000000000000000000000000000000000000000000000000000610711565b7f00000000000000000000000000000000000000000000000000000000000000006001600160a01b0316826001600160a01b0316141561367f57507f0000000000000000000000000000000000000000000000000000000000000000610711565b7f00000000000000000000000000000000000000000000000000000000000000006001600160a01b0316826001600160a01b031614156136e057507f0000000000000000000000000000000000000000000000000000000000000000610711565b7f00000000000000000000000000000000000000000000000000000000000000006001600160a01b0316826001600160a01b0316141561374157507f0000000000000000000000000000000000000000000000000000000000000000610711565b7f00000000000000000000000000000000000000000000000000000000000000006001600160a01b0316826001600160a01b031614156137a257507f0000000000000000000000000000000000000000000000000000000000000000610711565b7f00000000000000000000000000000000000000000000000000000000000000006001600160a01b0316826001600160a01b0316141561380357507f0000000000000000000000000000000000000000000000000000000000000000610711565b7f00000000000000000000000000000000000000000000000000000000000000006001600160a01b0316826001600160a01b0316141561386457507f0000000000000000000000000000000000000000000000000000000000000000610711565b7f00000000000000000000000000000000000000000000000000000000000000006001600160a01b0316826001600160a01b031614156138c557507f0000000000000000000000000000000000000000000000000000000000000000610711565b7f00000000000000000000000000000000000000000000000000000000000000006001600160a01b0316826001600160a01b031614156123f557507f0000000000000000000000000000000000000000000000000000000000000000610711565b600061394861393d87670429d069189e0000612fb4565b831115610130611509565b60006139548784610db3565b905060006139628883613106565b905060006139708887611abe565b9050600061397e8383613e65565b905061399361398c82613e91565b8990612fb4565b9450505050505b95945050505050565b60006139c56139ba85670429d069189e0000612fb4565b831115610131611509565b60006139db6139d48685610dda565b8690613106565b905060006139e98588613106565b905060006139f78383613e65565b90506000613a0d82670de0b6b3a7640000610dda565b90506139938a82613154565b600080613a268484613eb7565b90506000613a40613a3983612710613154565b6001610db3565b905080821015613a555760009250505061050d565b613a5f8282610dda565b9250505061050d565b60008180602001905181019061050d91906153c5565b6060818060200190518101906105d4919061548a565b613aa060008383611973565b600254613aad9082610db3565b6002556001600160a01b038216600090815260208190526040902054613ad39082610db3565b6001600160a01b0383166000818152602081905260408082209390935591519091907fddf252ad1be2c89b69c2b068fc378daa952ba7f163c4a11628f55a4df523b3ef90613090908590615753565b6000613b34631c74c91760e11b6107d4565b82148061050d5750613b4c6350dd6ed960e01b6107d4565b909114919050565b6000838311613b655750600061399a565b6000613b718585613106565b90506000613b87670de0b6b3a764000088611abe565b9050613b9b826709b6e64a8ec60000613fb8565b91506000613ba98383613e65565b90506000613bc0613bb983613e91565b8b90612fb4565b90506139938187612fb4565b60006060613bd8611694565b600080613be485613fcf565b91509150613bfc613bf3611820565b82106064611509565b6000613c06611820565b6001600160401b0381118015613c1b57600080fd5b50604051908082528060200260200182016040528015613c45578160200160208202803683370190505b509050613c89888381518110613c5757fe5b6020026020010151888481518110613c6b57fe5b602002602001015185613c7c610527565b613c84610684565b613ff1565b818381518110613c9557fe5b6020908102919091010152919791965090945050505050565b600060606000613cbd846140b7565b90506000613cd38683613cce610527565b6140cd565b9196919550909350505050565b60006060613cec611694565b600080613cf88561417e565b91509150613d0982516106a6611820565b613d138287611b0f565b6000613d30898985613d23610527565b613d2b610684565b614196565b9050613d408282111560cf611509565b989197509095505050505050565b60006105d483836001612df6565b60006060600080613d6c8561417e565b91509150613d82613d7b611820565b8351610da6565b613d8c8287611b0f565b6000613da9898985613d9c610527565b613da4610684565b6143c2565b9050613d408282101560d0611509565b60006060600080613dc985613fcf565b91509150613dd8613bf3611820565b6000613de2611820565b6001600160401b0381118015613df757600080fd5b50604051908082528060200260200182016040528015613e21578160200160208202803683370190505b509050613c89888381518110613e3357fe5b6020026020010151888481518110613e4757fe5b602002602001015185613e58610527565b613e60610684565b6145d2565b600080613e728484613eb7565b90506000613e85613a3983612710613154565b905061399a8282610db3565b6000670de0b6b3a76400008210613ea957600061050d565b50670de0b6b3a76400000390565b600081613ecd5750670de0b6b3a764000061050d565b82613eda5750600061050d565b613eeb600160ff1b84106006611509565b82613f11770bce5086492111aea88f4bb1ca6bcf584181ea8059f7653284106007611509565b826000670c7d713b49da000083138015613f325750670f43fc2c04ee000083125b15613f69576000613f428461467d565b9050670de0b6b3a764000080820784020583670de0b6b3a764000083050201915050613f77565b81613f738461479b565b0290505b670de0b6b3a76400009005613faf680238fd42c5cf03ffff198212801590613fa8575068070c1cc73b00c800008213155b6008611509565b612eb781614b3a565b600081831015613fc857816105d4565b5090919050565b60008082806020019051810190613fe69190615454565b909590945092505050565b600080614008846140028188610dda565b90613106565b90506140216709b6e64a8ec60000821015610132611509565b600061403f614038670de0b6b3a764000089611abe565b8390613e65565b9050600061405661404f83613e91565b8a90612fb4565b9050600061406389613e91565b905060006140718383613154565b9050600061407f8483610dda565b90506140a76140a0614099670de0b6b3a76400008b610dda565b8490612fb4565b8290610db3565b9c9b505050505050505050505050565b6000818060200190518101906105d49190615427565b606060006140db8484611abe565b9050600085516001600160401b03811180156140f657600080fd5b50604051908082528060200260200182016040528015614120578160200160208202803683370190505b50905060005b8651811015614174576141558388838151811061413f57fe5b6020026020010151612fb490919063ffffffff16565b82828151811061416157fe5b6020908102919091010152600101614126565b5095945050505050565b6060600082806020019051810190613fe691906153e1565b60008084516001600160401b03811180156141b057600080fd5b506040519080825280602002602001820160405280156141da578160200160208202803683370190505b5090506000805b885181101561429f5761423a8982815181106141f957fe5b602002602001015161400289848151811061421057fe5b60200260200101518c858151811061422457fe5b6020026020010151610dda90919063ffffffff16565b83828151811061424657fe5b60200260200101818152505061429561428e89838151811061426457fe5b602002602001015185848151811061427857fe5b602002602001015161315490919063ffffffff16565b8390610db3565b91506001016141e1565b50670de0b6b3a764000060005b89518110156143a15760008482815181106142c357fe5b60200260200101518411156143235760006142ec6142e086613e91565b8d858151811061413f57fe5b90506000614300828c868151811061422457fe5b905061431a61428e6124d2670de0b6b3a76400008c610dda565b9250505061433a565b88828151811061432f57fe5b602002602001015190505b60006143638c848151811061434b57fe5b60200260200101516106f1848f878151811061422457fe5b905061439561438e8c858151811061437757fe5b602002602001015183613a1990919063ffffffff16565b8590612fb4565b935050506001016142ac565b506143b56143ae82613e91565b8790613154565b9998505050505050505050565b60008084516001600160401b03811180156143dc57600080fd5b50604051908082528060200260200182016040528015614406578160200160208202803683370190505b5090506000805b88518110156144ae5761446689828151811061442557fe5b60200260200101516106f189848151811061443c57fe5b60200260200101518c858151811061445057fe5b6020026020010151610db390919063ffffffff16565b83828151811061447257fe5b6020026020010181815250506144a461428e89838151811061449057fe5b602002602001015185848151811061413f57fe5b915060010161440d565b50670de0b6b3a764000060005b895181101561458f576000838583815181106144d357fe5b6020026020010151111561452f5760006144f86142e086670de0b6b3a7640000610dda565b9050600061450c828c868151811061422457fe5b905061452661428e6125d8670de0b6b3a76400008c610dda565b92505050614546565b88828151811061453b57fe5b602002602001015190505b600061456f8c848151811061455757fe5b60200260200101516106f1848f878151811061445057fe5b905061458361438e8c858151811061437757fe5b935050506001016144bb565b50670de0b6b3a76400008111156145c6576145bc6145b582670de0b6b3a7640000610dda565b8790612fb4565b935050505061399a565b6000935050505061399a565b6000806145e3846140028188610db3565b90506145fc6729a2241af62c0000821115610133611509565b6000614613614038670de0b6b3a764000089613106565b9050600061463361462c83670de0b6b3a7640000610dda565b8a90613154565b9050600061464089613e91565b9050600061464e8383613154565b9050600061465c8483610dda565b90506140a76140a0614676670de0b6b3a76400008b610dda565b8490613106565b670de0b6b3a7640000026000806a0c097ce7bc90715b34b9f160241b808401906ec097ce7bc90715b34b9f0fffffffff19850102816146b857fe5b05905060006a0c097ce7bc90715b34b9f160241b82800205905081806a0c097ce7bc90715b34b9f160241b81840205915060038205016a0c097ce7bc90715b34b9f160241b82840205915060058205016a0c097ce7bc90715b34b9f160241b82840205915060078205016a0c097ce7bc90715b34b9f160241b82840205915060098205016a0c097ce7bc90715b34b9f160241b828402059150600b8205016a0c097ce7bc90715b34b9f160241b828402059150600d8205016a0c097ce7bc90715b34b9f160241b828402059150600f826002919005919091010295945050505050565b6000670de0b6b3a76400008212156147d7576147cd826a0c097ce7bc90715b34b9f160241b816147c757fe5b0561479b565b6000039050610711565b60007e1600ef3172e58d2e933ec884fde10064c63b5372d805e203c0000000000000831261482857770195e54c5dd42177f53a27172fa9ec630262827000000000830592506806f05b59d3b2000000015b73011798004d755d3c8bc8e03204cf44619e0000008312614860576b1425982cf597cd205cef7380830592506803782dace9d9000000015b606492830292026e01855144814a7ff805980ff008400083126148a8576e01855144814a7ff805980ff008400068056bc75e2d63100000840205925068ad78ebc5ac62000000015b6b02df0ab5a80a22c61ab5a70083126148e3576b02df0ab5a80a22c61ab5a70068056bc75e2d6310000084020592506856bc75e2d631000000015b693f1fce3da636ea5cf850831261491a57693f1fce3da636ea5cf85068056bc75e2d631000008402059250682b5e3af16b18800000015b690127fa27722cc06cc5e2831261495157690127fa27722cc06cc5e268056bc75e2d6310000084020592506815af1d78b58c400000015b68280e60114edb805d0383126149865768280e60114edb805d0368056bc75e2d631000008402059250680ad78ebc5ac6200000015b680ebc5fb4174612111083126149b157680ebc5fb4174612111068056bc75e2d631000009384020592015b6808f00f760a4b2db55d83126149e6576808f00f760a4b2db55d68056bc75e2d6310000084020592506802b5e3af16b1880000015b6806f5f17757889379378312614a1b576806f5f177578893793768056bc75e2d63100000840205925068015af1d78b58c40000015b6806248f33704b2866038312614a4f576806248f33704b28660368056bc75e2d63100000840205925067ad78ebc5ac620000015b6805c548670b9510e7ac8312614a83576805c548670b9510e7ac68056bc75e2d6310000084020592506756bc75e2d6310000015b600068056bc75e2d63100000840168056bc75e2d631000008086030281614aa657fe5b059050600068056bc75e2d63100000828002059050818068056bc75e2d63100000818402059150600382050168056bc75e2d63100000828402059150600582050168056bc75e2d63100000828402059150600782050168056bc75e2d63100000828402059150600982050168056bc75e2d63100000828402059150600b820501600202606485820105979650505050505050565b6000614b69680238fd42c5cf03ffff198312158015614b62575068070c1cc73b00c800008313155b6009611509565b6000821215614b9c57614b7e82600003614b3a565b6a0c097ce7bc90715b34b9f160241b81614b9457fe5b059050610711565b60006806f05b59d3b20000008312614bdc57506806f05b59d3b1ffffff1990910190770195e54c5dd42177f53a27172fa9ec630262827000000000614c12565b6803782dace9d90000008312614c0e57506803782dace9d8ffffff19909101906b1425982cf597cd205cef7380614c12565b5060015b6064929092029168056bc75e2d6310000068ad78ebc5ac620000008412614c625768ad78ebc5ac61ffffff199093019268056bc75e2d631000006e01855144814a7ff805980ff008400082020590505b6856bc75e2d6310000008412614c9e576856bc75e2d630ffffff199093019268056bc75e2d631000006b02df0ab5a80a22c61ab5a70082020590505b682b5e3af16b188000008412614cd857682b5e3af16b187fffff199093019268056bc75e2d63100000693f1fce3da636ea5cf85082020590505b6815af1d78b58c4000008412614d12576815af1d78b58c3fffff199093019268056bc75e2d63100000690127fa27722cc06cc5e282020590505b680ad78ebc5ac62000008412614d4b57680ad78ebc5ac61fffff199093019268056bc75e2d6310000068280e60114edb805d0382020590505b68056bc75e2d631000008412614d845768056bc75e2d630fffff199093019268056bc75e2d63100000680ebc5fb4174612111082020590505b6802b5e3af16b18800008412614dbd576802b5e3af16b187ffff199093019268056bc75e2d631000006808f00f760a4b2db55d82020590505b68015af1d78b58c400008412614df65768015af1d78b58c3ffff199093019268056bc75e2d631000006806f5f177578893793782020590505b68056bc75e2d631000008481019085906002908280020505918201919050600368056bc75e2d631000008783020505918201919050600468056bc75e2d631000008783020505918201919050600568056bc75e2d631000008783020505918201919050600668056bc75e2d631000008783020505918201919050600768056bc75e2d631000008783020505918201919050600868056bc75e2d631000008783020505918201919050600968056bc75e2d631000008783020505918201919050600a68056bc75e2d631000008783020505918201919050600b68056bc75e2d631000008783020505918201919050600c68056bc75e2d631000008783020505918201919050606468056bc75e2d63100000848402058502059695505050505050565b8035610711816158a3565b600082601f830112614f32578081fd5b81516020614f47614f4283615886565b615863565b8281528181019085830183850287018401881015614f63578586fd5b855b85811015614f8157815184529284019290840190600101614f65565b5090979650505050505050565b600082601f830112614f9e578081fd5b81356001600160401b03811115614fb157fe5b614fc4601f8201601f1916602001615863565b818152846020838601011115614fd8578283fd5b816020850160208301379081016020019190915292915050565b80356002811061071157600080fd5b600060208284031215615012578081fd5b81356105d4816158a3565b6000806040838503121561502f578081fd5b823561503a816158a3565b9150602083013561504a816158a3565b809150509250929050565b600080600060608486031215615069578081fd5b8335615074816158a3565b92506020840135615084816158a3565b929592945050506040919091013590565b600080600080600080600060e0888a0312156150af578485fd5b87356150ba816158a3565b965060208801356150ca816158a3565b95506040880135945060608801359350608088013560ff811681146150ed578384fd5b9699959850939692959460a0840135945060c09093013592915050565b6000806040838503121561511c578182fd5b8235615127816158a3565b946020939093013593505050565b600080600060608486031215615149578081fd5b83516001600160401b038082111561515f578283fd5b818601915086601f830112615172578283fd5b81516020615182614f4283615886565b82815281810190858301838502870184018c101561519e578788fd5b8796505b848710156151c95780516151b5816158a3565b8352600196909601959183019183016151a2565b50918901519197509093505050808211156151e2578283fd5b506151ef86828701614f22565b925050604084015190509250925092565b600060208284031215615211578081fd5b81356105d4816158b8565b60006020828403121561522d578081fd5b81516105d4816158b8565b600080600080600080600060e0888a031215615252578081fd5b87359650602080890135615265816158a3565b96506040890135615275816158a3565b955060608901356001600160401b0380821115615290578384fd5b818b0191508b601f8301126152a3578384fd5b81356152b1614f4282615886565b8082825285820191508585018f8788860288010111156152cf578788fd5b8795505b838610156152f15780358352600195909501949186019186016152d3565b509850505060808b0135955060a08b0135945060c08b0135925080831115615317578384fd5b50506153258a828b01614f8e565b91505092959891949750929550565b600060208284031215615345578081fd5b81356001600160e01b0319811681146105d4578182fd5b60006020828403121561536d578081fd5b81516105d4816158a3565b6000806040838503121561538a578182fd5b8235615395816158a3565b915060208301356001600160401b038111156153af578182fd5b6153bb85828601614f8e565b9150509250929050565b6000602082840312156153d6578081fd5b81516105d4816158c6565b6000806000606084860312156153f5578081fd5b8351615400816158c6565b60208501519093506001600160401b0381111561541b578182fd5b6151ef86828701614f22565b60008060408385031215615439578182fd5b8251615444816158c6565b6020939093015192949293505050565b600080600060608486031215615468578081fd5b8351615473816158c6565b602085015160409095015190969495509392505050565b6000806040838503121561549c578182fd5b82516154a7816158c6565b60208401519092506001600160401b038111156154c2578182fd5b6153bb85828601614f22565b6000806000606084860312156154e2578081fd5b83356001600160401b03808211156154f8578283fd5b818601915061012080838903121561550e578384fd5b61551781615863565b905061552283614ff2565b815261553060208401614f17565b602082015261554160408401614f17565b6040820152606083013560608201526080830135608082015260a083013560a082015261557060c08401614f17565b60c082015261558160e08401614f17565b60e08201526101008084013583811115615599578586fd5b6155a58a828701614f8e565b9183019190915250976020870135975060409096013595945050505050565b6000602082840312156155d5578081fd5b5035919050565b600080600080608085870312156155f1578182fd5b8451935060208501519250604085015191506060850151615611816158a3565b939692955090935050565b6000815180845260208085019450808401835b8381101561564b5781518752958201959082019060010161562f565b509495945050505050565b60008151808452815b8181101561567b5760208185018101518683018201520161565f565b8181111561568c5782602083870101525b50601f01601f19169290920160200192915050565b9182526001600160e01b031916602082015260240190565b6000828483379101908152919050565b61190160f01b81526002810192909252602282015260420190565b6001600160a01b0391909116815260200190565b6000602082526105d4602083018461561c565b60006040825261571e604083018561561c565b828103602084015261399a818561561c565b901515815260200190565b92151583526020830191909152604082015260600190565b90815260200190565b9283526001600160a01b03918216602084015216604082015260600190565b9586526001600160a01b0394851660208701529290931660408501526060840152608083019190915260a082015260c00190565b9485526020850193909352604084019190915260608301526001600160a01b0316608082015260a00190565b6000838252604060208301526124606040830184615656565b9182526001600160a01b0316602082015260400190565b93845260ff9290921660208401526040830152606082015260800190565b6000602082526105d46020830184615656565b600083825260406020830152612460604083018461561c565b60ff91909116815260200190565b6040518181016001600160401b038111828210171561587e57fe5b604052919050565b60006001600160401b0382111561589957fe5b5060209081020190565b6001600160a01b038116811461052457600080fd5b801515811461052457600080fd5b6003811061052457600080fdfea264697066735822122067bb76b9254f3c40933412758c6ca92567363ca5f68537fc86c7528a74b91a9e64736f6c63430007060033",
			"opcodes": "PUSH2 0x140 PUSH1 0x40 MSTORE CALLVALUE DUP1 ISZERO PUSH3 0x12 JUMPI PUSH1 0x0 DUP1 REVERT JUMPDEST POP PUSH1 0x40 MLOAD PUSH3 0x7F9B CODESIZE SUB DUP1 PUSH3 0x7F9B DUP4 CODECOPY DUP2 ADD PUSH1 0x40 DUP2 SWAP1 MSTORE PUSH3 0x35 SWAP2 PUSH3 0x1C3 JUMP JUMPDEST DUP1 PUSH1 0x40 MLOAD DUP1 PUSH1 0x20 ADD PUSH3 0x48 SWAP1 PUSH3 0x1B5 JUMP JUMPDEST PUSH1 0x1F NOT DUP3 DUP3 SUB DUP2 ADD DUP4 MSTORE PUSH1 0x1F SWAP1 SWAP2 ADD AND PUSH1 0x40 MSTORE DUP1 MLOAD DUP2 SWAP1 PUSH1 0x0 PUSH1 0x2 DUP3 DIV PUSH1 0xA0 DUP2 SWAP1 MSTORE DUP1 DUP4 SUB PUSH1 0xE0 DUP2 SWAP1 MSTORE DUP2 DUP6 MSTORE SWAP1 SWAP2 POP DUP4 PUSH3 0x90 DUP2 PUSH3 0xF9 PUSH1 0x20 SWAP1 DUP2 SHL PUSH3 0x2AE OR SWAP1 SHR JUMP JUMPDEST PUSH1 0x60 SHL PUSH1 0x1 PUSH1 0x1 PUSH1 0x60 SHL SUB NOT AND PUSH1 0x80 MSTORE DUP3 DUP6 ADD DUP1 MLOAD DUP4 DUP3 MSTORE PUSH3 0xBF DUP3 PUSH3 0xF9 PUSH1 0x20 SWAP1 DUP2 SHL PUSH3 0x2AE OR SWAP1 SHR JUMP JUMPDEST PUSH1 0x1 PUSH1 0x1 PUSH1 0x60 SHL SUB NOT PUSH1 0x60 SWAP2 DUP3 SHL DUP2 AND PUSH1 0xC0 MSTORE SWAP7 SWAP1 SWAP4 MSTORE SWAP1 MSTORE SWAP6 SWAP1 SWAP6 SHL SWAP1 SWAP2 AND PUSH2 0x100 MSTORE POP POP POP TIMESTAMP PUSH3 0x76A700 ADD PUSH2 0x120 MSTORE POP PUSH3 0x1F3 SWAP1 POP JUMP JUMPDEST DUP1 MLOAD PUSH32 0x602038038060206000396000F3FEFEFEFEFEFEFEFEFEFEFEFEFEFEFEFEFEFEFE DUP1 DUP4 MSTORE PUSH1 0x0 SWAP2 PUSH1 0x20 DUP2 ADD DUP5 DUP5 CREATE SWAP1 DUP5 MSTORE SWAP2 POP PUSH3 0x147 PUSH1 0x1 PUSH1 0x1 PUSH1 0xA0 SHL SUB DUP4 AND ISZERO ISZERO PUSH2 0x1AC PUSH3 0x14D JUMP JUMPDEST POP SWAP2 SWAP1 POP JUMP JUMPDEST DUP2 PUSH3 0x15E JUMPI PUSH3 0x15E DUP2 PUSH3 0x162 JUMP JUMPDEST POP POP JUMP JUMPDEST PUSH3 0x461BCD PUSH1 0xE5 SHL PUSH1 0x0 SWAP1 DUP2 MSTORE PUSH1 0x20 PUSH1 0x4 MSTORE PUSH1 0x7 PUSH1 0x24 MSTORE PUSH7 0x42414C23000030 PUSH1 0xA DUP1 DUP5 DIV DUP2 DUP2 MOD PUSH1 0x30 SWAP1 DUP2 ADD PUSH1 0x8 SHL SWAP6 DUP4 SWAP1 MOD SWAP6 SWAP1 SWAP6 ADD SWAP1 DUP3 SWAP1 DIV SWAP2 DUP3 MOD SWAP1 SWAP5 ADD PUSH1 0x10 SHL SWAP4 SWAP1 SWAP4 ADD ADD PUSH1 0xC8 SHL PUSH1 0x44 MSTORE PUSH1 0x64 SWAP1 REVERT JUMPDEST PUSH2 0x7390 DUP1 PUSH3 0xC0B DUP4 CODECOPY ADD SWAP1 JUMP JUMPDEST PUSH1 0x0 PUSH1 0x20 DUP3 DUP5 SUB SLT ISZERO PUSH3 0x1D5 JUMPI DUP1 DUP2 REVERT JUMPDEST DUP2 MLOAD PUSH1 0x1 PUSH1 0x1 PUSH1 0xA0 SHL SUB DUP2 AND DUP2 EQ PUSH3 0x1EC JUMPI DUP2 DUP3 REVERT JUMPDEST SWAP4 SWAP3 POP POP POP JUMP JUMPDEST PUSH1 0x80 MLOAD PUSH1 0x60 SHR PUSH1 0xA0 MLOAD PUSH1 0xC0 MLOAD PUSH1 0x60 SHR PUSH1 0xE0 MLOAD PUSH2 0x100 MLOAD PUSH1 0x60 SHR PUSH2 0x120 MLOAD PUSH2 0x9B6 PUSH3 0x255 PUSH1 0x0 CODECOPY DUP1 PUSH2 0x163 MSTORE DUP1 PUSH2 0x18C MSTORE POP DUP1 PUSH2 0x1EB MSTORE POP DUP1 PUSH2 0x308 MSTORE POP DUP1 PUSH2 0x13A MSTORE DUP1 PUSH2 0x384 MSTORE POP DUP1 PUSH2 0x329 MSTORE POP DUP1 PUSH2 0x119 MSTORE DUP1 PUSH2 0x360 MSTORE POP PUSH2 0x9B6 PUSH1 0x0 RETURN INVALID PUSH1 0x80 PUSH1 0x40 MSTORE CALLVALUE DUP1 ISZERO PUSH2 0x10 JUMPI PUSH1 0x0 DUP1 REVERT JUMPDEST POP PUSH1 0x4 CALLDATASIZE LT PUSH2 0x61 JUMPI PUSH1 0x0 CALLDATALOAD PUSH1 0xE0 SHR DUP1 PUSH3 0xC194DB EQ PUSH2 0x66 JUMPI DUP1 PUSH4 0x174481FA EQ PUSH2 0x84 JUMPI DUP1 PUSH4 0x2DA47C40 EQ PUSH2 0x9A JUMPI DUP1 PUSH4 0x6634B753 EQ PUSH2 0xB0 JUMPI DUP1 PUSH4 0x8D928AF8 EQ PUSH2 0xD0 JUMPI DUP1 PUSH4 0xFBCE0393 EQ PUSH2 0xE5 JUMPI JUMPDEST PUSH1 0x0 DUP1 REVERT JUMPDEST PUSH2 0x6E PUSH2 0xF8 JUMP JUMPDEST PUSH1 0x40 MLOAD PUSH2 0x7B SWAP2 SWAP1 PUSH2 0x835 JUMP JUMPDEST PUSH1 0x40 MLOAD DUP1 SWAP2 SUB SWAP1 RETURN JUMPDEST PUSH2 0x8C PUSH2 0x117 JUMP JUMPDEST PUSH1 0x40 MLOAD PUSH2 0x7B SWAP3 SWAP2 SWAP1 PUSH2 0x810 JUMP JUMPDEST PUSH2 0xA2 PUSH2 0x15D JUMP JUMPDEST PUSH1 0x40 MLOAD PUSH2 0x7B SWAP3 SWAP2 SWAP1 PUSH2 0x918 JUMP JUMPDEST PUSH2 0xC3 PUSH2 0xBE CALLDATASIZE PUSH1 0x4 PUSH2 0x655 JUMP JUMPDEST PUSH2 0x1C7 JUMP JUMPDEST PUSH1 0x40 MLOAD PUSH2 0x7B SWAP2 SWAP1 PUSH2 0x82A JUMP JUMPDEST PUSH2 0xD8 PUSH2 0x1E9 JUMP JUMPDEST PUSH1 0x40 MLOAD PUSH2 0x7B SWAP2 SWAP1 PUSH2 0x7FC JUMP JUMPDEST PUSH2 0xD8 PUSH2 0xF3 CALLDATASIZE PUSH1 0x4 PUSH2 0x671 JUMP JUMPDEST PUSH2 0x20D JUMP JUMPDEST PUSH1 0x60 PUSH2 0x112 PUSH1 0x40 MLOAD DUP1 PUSH1 0x20 ADD PUSH1 0x40 MSTORE DUP1 PUSH1 0x0 DUP2 MSTORE POP PUSH2 0x300 JUMP JUMPDEST SWAP1 POP SWAP1 JUMP JUMPDEST PUSH32 0x0 PUSH32 0x0 SWAP1 SWAP2 JUMP JUMPDEST PUSH1 0x0 DUP1 TIMESTAMP PUSH32 0x0 DUP2 LT ISZERO PUSH2 0x1B9 JUMPI DUP1 PUSH32 0x0 SUB SWAP3 POP PUSH3 0x278D00 SWAP2 POP PUSH2 0x1C2 JUMP JUMPDEST PUSH1 0x0 SWAP3 POP PUSH1 0x0 SWAP2 POP JUMPDEST POP SWAP1 SWAP2 JUMP JUMPDEST PUSH1 0x1 PUSH1 0x1 PUSH1 0xA0 SHL SUB DUP2 AND PUSH1 0x0 SWAP1 DUP2 MSTORE PUSH1 0x20 DUP2 SWAP1 MSTORE PUSH1 0x40 SWAP1 KECCAK256 SLOAD PUSH1 0xFF AND JUMPDEST SWAP2 SWAP1 POP JUMP JUMPDEST PUSH32 0x0 SWAP1 JUMP JUMPDEST PUSH1 0x0 DUP1 PUSH1 0x0 PUSH2 0x21A PUSH2 0x15D JUMP JUMPDEST SWAP2 POP SWAP2 POP PUSH2 0x2A1 PUSH2 0x229 PUSH2 0x1E9 JUMP JUMPDEST DUP11 DUP11 DUP11 DUP11 DUP13 MLOAD PUSH8 0xFFFFFFFFFFFFFFFF DUP2 GT DUP1 ISZERO PUSH2 0x245 JUMPI PUSH1 0x0 DUP1 REVERT JUMPDEST POP PUSH1 0x40 MLOAD SWAP1 DUP1 DUP3 MSTORE DUP1 PUSH1 0x20 MUL PUSH1 0x20 ADD DUP3 ADD PUSH1 0x40 MSTORE DUP1 ISZERO PUSH2 0x26F JUMPI DUP2 PUSH1 0x20 ADD PUSH1 0x20 DUP3 MUL DUP1 CALLDATASIZE DUP4 CALLDATACOPY ADD SWAP1 POP JUMPDEST POP DUP12 DUP10 DUP10 DUP14 PUSH1 0x40 MLOAD PUSH1 0x20 ADD PUSH2 0x28D SWAP11 SWAP10 SWAP9 SWAP8 SWAP7 SWAP6 SWAP5 SWAP4 SWAP3 SWAP2 SWAP1 PUSH2 0x848 JUMP JUMPDEST PUSH1 0x40 MLOAD PUSH1 0x20 DUP2 DUP4 SUB SUB DUP2 MSTORE SWAP1 PUSH1 0x40 MSTORE PUSH2 0x3D9 JUMP JUMPDEST SWAP10 SWAP9 POP POP POP POP POP POP POP POP POP JUMP JUMPDEST DUP1 MLOAD PUSH32 0x602038038060206000396000F3FEFEFEFEFEFEFEFEFEFEFEFEFEFEFEFEFEFEFE DUP1 DUP4 MSTORE PUSH1 0x0 SWAP2 PUSH1 0x20 DUP2 ADD DUP5 DUP5 CREATE SWAP1 DUP5 MSTORE SWAP2 POP PUSH2 0x2FA PUSH1 0x1 PUSH1 0x1 PUSH1 0xA0 SHL SUB DUP4 AND ISZERO ISZERO PUSH2 0x1AC PUSH2 0x439 JUMP JUMPDEST POP SWAP2 SWAP1 POP JUMP JUMPDEST DUP1 MLOAD PUSH1 0x40 DUP1 MLOAD PUSH32 0x0 PUSH32 0x0 DUP2 DUP2 ADD DUP6 DUP2 ADD DUP5 DUP2 ADD PUSH1 0x20 SWAP1 DUP2 ADD SWAP1 SWAP7 MSTORE DUP1 DUP6 MSTORE SWAP4 SWAP6 PUSH32 0x0 SWAP6 SWAP3 SWAP5 PUSH32 0x0 SWAP5 SWAP4 DUP9 ADD DUP7 PUSH1 0x0 DUP3 DUP11 EXTCODECOPY DUP5 PUSH1 0x0 DUP9 DUP4 ADD DUP9 EXTCODECOPY POP PUSH1 0x20 DUP10 DUP2 ADD SWAP1 DUP10 DUP6 ADD ADD PUSH2 0x3CB DUP2 DUP4 DUP7 PUSH2 0x44B JUMP JUMPDEST POP POP POP POP POP POP POP POP POP SWAP2 SWAP1 POP JUMP JUMPDEST PUSH1 0x0 DUP1 PUSH2 0x3E5 DUP4 PUSH2 0x489 JUMP JUMPDEST PUSH1 0x1 PUSH1 0x1 PUSH1 0xA0 SHL SUB DUP2 AND PUSH1 0x0 DUP2 DUP2 MSTORE PUSH1 0x20 DUP2 SWAP1 MSTORE PUSH1 0x40 DUP1 DUP3 KECCAK256 DUP1 SLOAD PUSH1 0xFF NOT AND PUSH1 0x1 OR SWAP1 SSTORE MLOAD SWAP3 SWAP4 POP SWAP1 SWAP2 PUSH32 0x83A48FBCFC991335314E74D0496AAB6A1987E992DDC85DDDBCC4D6DD6EF2E9FC SWAP2 SWAP1 LOG2 SWAP3 SWAP2 POP POP JUMP JUMPDEST DUP2 PUSH2 0x447 JUMPI PUSH2 0x447 DUP2 PUSH2 0x4C3 JUMP JUMPDEST POP POP JUMP JUMPDEST JUMPDEST PUSH1 0x20 DUP2 LT PUSH2 0x46B JUMPI DUP2 MLOAD DUP4 MSTORE PUSH1 0x20 SWAP3 DUP4 ADD SWAP3 SWAP1 SWAP2 ADD SWAP1 PUSH1 0x1F NOT ADD PUSH2 0x44C JUMP JUMPDEST SWAP1 MLOAD DUP3 MLOAD PUSH1 0x20 SWAP3 SWAP1 SWAP3 SUB PUSH2 0x100 EXP PUSH1 0x0 NOT ADD DUP1 NOT SWAP1 SWAP2 AND SWAP2 AND OR SWAP1 MSTORE JUMP JUMPDEST PUSH1 0x0 DUP1 PUSH2 0x495 DUP4 PUSH2 0x300 JUMP JUMPDEST SWAP1 POP PUSH1 0x0 DUP2 MLOAD PUSH1 0x20 DUP4 ADD PUSH1 0x0 CREATE SWAP1 POP PUSH1 0x1 PUSH1 0x1 PUSH1 0xA0 SHL SUB DUP2 AND PUSH2 0x4BC JUMPI RETURNDATASIZE PUSH1 0x0 DUP1 RETURNDATACOPY RETURNDATASIZE PUSH1 0x0 REVERT JUMPDEST SWAP4 SWAP3 POP POP POP JUMP JUMPDEST PUSH3 0x461BCD PUSH1 0xE5 SHL PUSH1 0x0 SWAP1 DUP2 MSTORE PUSH1 0x20 PUSH1 0x4 MSTORE PUSH1 0x7 PUSH1 0x24 MSTORE PUSH7 0x42414C23000030 PUSH1 0xA DUP1 DUP5 DIV DUP2 DUP2 MOD PUSH1 0x30 SWAP1 DUP2 ADD PUSH1 0x8 SHL SWAP6 DUP4 SWAP1 MOD SWAP6 SWAP1 SWAP6 ADD SWAP1 DUP3 SWAP1 DIV SWAP2 DUP3 MOD SWAP1 SWAP5 ADD PUSH1 0x10 SHL SWAP4 SWAP1 SWAP4 ADD ADD PUSH1 0xC8 SHL PUSH1 0x44 MSTORE PUSH1 0x64 SWAP1 REVERT JUMPDEST DUP1 CALLDATALOAD PUSH2 0x1E4 DUP2 PUSH2 0x968 JUMP JUMPDEST PUSH1 0x0 DUP3 PUSH1 0x1F DUP4 ADD SLT PUSH2 0x531 JUMPI DUP1 DUP2 REVERT JUMPDEST DUP2 CALLDATALOAD PUSH1 0x20 PUSH2 0x546 PUSH2 0x541 DUP4 PUSH2 0x94A JUMP JUMPDEST PUSH2 0x926 JUMP JUMPDEST DUP3 DUP2 MSTORE DUP2 DUP2 ADD SWAP1 DUP6 DUP4 ADD DUP4 DUP6 MUL DUP8 ADD DUP5 ADD DUP9 LT ISZERO PUSH2 0x562 JUMPI DUP6 DUP7 REVERT JUMPDEST DUP6 JUMPDEST DUP6 DUP2 LT ISZERO PUSH2 0x589 JUMPI DUP2 CALLDATALOAD PUSH2 0x577 DUP2 PUSH2 0x968 JUMP JUMPDEST DUP5 MSTORE SWAP3 DUP5 ADD SWAP3 SWAP1 DUP5 ADD SWAP1 PUSH1 0x1 ADD PUSH2 0x564 JUMP JUMPDEST POP SWAP1 SWAP8 SWAP7 POP POP POP POP POP POP POP JUMP JUMPDEST PUSH1 0x0 DUP3 PUSH1 0x1F DUP4 ADD SLT PUSH2 0x5A6 JUMPI DUP1 DUP2 REVERT JUMPDEST DUP2 CALLDATALOAD PUSH1 0x20 PUSH2 0x5B6 PUSH2 0x541 DUP4 PUSH2 0x94A JUMP JUMPDEST DUP3 DUP2 MSTORE DUP2 DUP2 ADD SWAP1 DUP6 DUP4 ADD DUP4 DUP6 MUL DUP8 ADD DUP5 ADD DUP9 LT ISZERO PUSH2 0x5D2 JUMPI DUP6 DUP7 REVERT JUMPDEST DUP6 JUMPDEST DUP6 DUP2 LT ISZERO PUSH2 0x589 JUMPI DUP2 CALLDATALOAD DUP5 MSTORE SWAP3 DUP5 ADD SWAP3 SWAP1 DUP5 ADD SWAP1 PUSH1 0x1 ADD PUSH2 0x5D4 JUMP JUMPDEST PUSH1 0x0 DUP3 PUSH1 0x1F DUP4 ADD SLT PUSH2 0x600 JUMPI DUP1 DUP2 REVERT JUMPDEST DUP2 CALLDATALOAD PUSH8 0xFFFFFFFFFFFFFFFF DUP2 GT ISZERO PUSH2 0x614 JUMPI INVALID JUMPDEST PUSH2 0x627 PUSH1 0x1F DUP3 ADD PUSH1 0x1F NOT AND PUSH1 0x20 ADD PUSH2 0x926 JUMP JUMPDEST DUP2 DUP2 MSTORE DUP5 PUSH1 0x20 DUP4 DUP7 ADD ADD GT ISZERO PUSH2 0x63B JUMPI DUP3 DUP4 REVERT JUMPDEST DUP2 PUSH1 0x20 DUP6 ADD PUSH1 0x20 DUP4 ADD CALLDATACOPY SWAP1 DUP2 ADD PUSH1 0x20 ADD SWAP2 SWAP1 SWAP2 MSTORE SWAP3 SWAP2 POP POP JUMP JUMPDEST PUSH1 0x0 PUSH1 0x20 DUP3 DUP5 SUB SLT ISZERO PUSH2 0x666 JUMPI DUP1 DUP2 REVERT JUMPDEST DUP2 CALLDATALOAD PUSH2 0x4BC DUP2 PUSH2 0x968 JUMP JUMPDEST PUSH1 0x0 DUP1 PUSH1 0x0 DUP1 PUSH1 0x0 DUP1 PUSH1 0xC0 DUP8 DUP10 SUB SLT ISZERO PUSH2 0x689 JUMPI DUP2 DUP3 REVERT JUMPDEST DUP7 CALLDATALOAD PUSH8 0xFFFFFFFFFFFFFFFF DUP1 DUP3 GT ISZERO PUSH2 0x6A0 JUMPI DUP4 DUP5 REVERT JUMPDEST PUSH2 0x6AC DUP11 DUP4 DUP12 ADD PUSH2 0x5F0 JUMP JUMPDEST SWAP8 POP PUSH1 0x20 DUP10 ADD CALLDATALOAD SWAP2 POP DUP1 DUP3 GT ISZERO PUSH2 0x6C1 JUMPI DUP4 DUP5 REVERT JUMPDEST PUSH2 0x6CD DUP11 DUP4 DUP12 ADD PUSH2 0x5F0 JUMP JUMPDEST SWAP7 POP PUSH1 0x40 DUP10 ADD CALLDATALOAD SWAP2 POP DUP1 DUP3 GT ISZERO PUSH2 0x6E2 JUMPI DUP4 DUP5 REVERT JUMPDEST PUSH2 0x6EE DUP11 DUP4 DUP12 ADD PUSH2 0x521 JUMP JUMPDEST SWAP6 POP PUSH1 0x60 DUP10 ADD CALLDATALOAD SWAP2 POP DUP1 DUP3 GT ISZERO PUSH2 0x703 JUMPI DUP4 DUP5 REVERT JUMPDEST POP PUSH2 0x710 DUP10 DUP3 DUP11 ADD PUSH2 0x596 JUMP JUMPDEST SWAP4 POP POP PUSH1 0x80 DUP8 ADD CALLDATALOAD SWAP2 POP PUSH2 0x726 PUSH1 0xA0 DUP9 ADD PUSH2 0x516 JUMP JUMPDEST SWAP1 POP SWAP3 SWAP6 POP SWAP3 SWAP6 POP SWAP3 SWAP6 JUMP JUMPDEST PUSH1 0x1 PUSH1 0x1 PUSH1 0xA0 SHL SUB AND SWAP1 MSTORE JUMP JUMPDEST PUSH1 0x0 DUP2 MLOAD DUP1 DUP5 MSTORE PUSH1 0x20 DUP1 DUP6 ADD SWAP5 POP DUP1 DUP5 ADD DUP4 JUMPDEST DUP4 DUP2 LT ISZERO PUSH2 0x777 JUMPI DUP2 MLOAD PUSH1 0x1 PUSH1 0x1 PUSH1 0xA0 SHL SUB AND DUP8 MSTORE SWAP6 DUP3 ADD SWAP6 SWAP1 DUP3 ADD SWAP1 PUSH1 0x1 ADD PUSH2 0x752 JUMP JUMPDEST POP SWAP5 SWAP6 SWAP5 POP POP POP POP POP JUMP JUMPDEST PUSH1 0x0 DUP2 MLOAD DUP1 DUP5 MSTORE PUSH1 0x20 DUP1 DUP6 ADD SWAP5 POP DUP1 DUP5 ADD DUP4 JUMPDEST DUP4 DUP2 LT ISZERO PUSH2 0x777 JUMPI DUP2 MLOAD DUP8 MSTORE SWAP6 DUP3 ADD SWAP6 SWAP1 DUP3 ADD SWAP1 PUSH1 0x1 ADD PUSH2 0x795 JUMP JUMPDEST PUSH1 0x0 DUP2 MLOAD DUP1 DUP5 MSTORE DUP2 JUMPDEST DUP2 DUP2 LT ISZERO PUSH2 0x7D6 JUMPI PUSH1 0x20 DUP2 DUP6 ADD DUP2 ADD MLOAD DUP7 DUP4 ADD DUP3 ADD MSTORE ADD PUSH2 0x7BA JUMP JUMPDEST DUP2 DUP2 GT ISZERO PUSH2 0x7E7 JUMPI DUP3 PUSH1 0x20 DUP4 DUP8 ADD ADD MSTORE JUMPDEST POP PUSH1 0x1F ADD PUSH1 0x1F NOT AND SWAP3 SWAP1 SWAP3 ADD PUSH1 0x20 ADD SWAP3 SWAP2 POP POP JUMP JUMPDEST PUSH1 0x1 PUSH1 0x1 PUSH1 0xA0 SHL SUB SWAP2 SWAP1 SWAP2 AND DUP2 MSTORE PUSH1 0x20 ADD SWAP1 JUMP JUMPDEST PUSH1 0x1 PUSH1 0x1 PUSH1 0xA0 SHL SUB SWAP3 DUP4 AND DUP2 MSTORE SWAP2 AND PUSH1 0x20 DUP3 ADD MSTORE PUSH1 0x40 ADD SWAP1 JUMP JUMPDEST SWAP1 ISZERO ISZERO DUP2 MSTORE PUSH1 0x20 ADD SWAP1 JUMP JUMPDEST PUSH1 0x0 PUSH1 0x20 DUP3 MSTORE PUSH2 0x4BC PUSH1 0x20 DUP4 ADD DUP5 PUSH2 0x7B1 JUMP JUMPDEST PUSH1 0x1 PUSH1 0x1 PUSH1 0xA0 SHL SUB DUP12 DUP2 AND DUP3 MSTORE PUSH2 0x140 PUSH1 0x20 DUP1 DUP5 ADD DUP3 SWAP1 MSTORE PUSH1 0x0 SWAP3 SWAP1 PUSH2 0x870 DUP6 DUP5 ADD DUP16 PUSH2 0x7B1 JUMP JUMPDEST SWAP3 POP DUP5 DUP4 SUB PUSH1 0x40 DUP7 ADD MSTORE PUSH2 0x884 DUP4 DUP15 PUSH2 0x7B1 JUMP JUMPDEST DUP6 DUP2 SUB PUSH1 0x60 DUP8 ADD MSTORE DUP13 MLOAD DUP1 DUP3 MSTORE DUP3 DUP15 ADD SWAP5 POP SWAP1 DUP3 ADD SWAP1 DUP6 JUMPDEST DUP2 DUP2 LT ISZERO PUSH2 0x8BA JUMPI DUP6 MLOAD DUP6 AND DUP4 MSTORE SWAP5 DUP4 ADD SWAP5 SWAP2 DUP4 ADD SWAP2 PUSH1 0x1 ADD PUSH2 0x89C JUMP JUMPDEST POP POP DUP6 DUP2 SUB PUSH1 0x80 DUP8 ADD MSTORE PUSH2 0x8CE DUP2 DUP14 PUSH2 0x782 JUMP JUMPDEST SWAP4 POP POP POP POP DUP3 DUP2 SUB PUSH1 0xA0 DUP5 ADD MSTORE PUSH2 0x8E5 DUP2 DUP10 PUSH2 0x73F JUMP JUMPDEST SWAP2 POP POP DUP6 PUSH1 0xC0 DUP4 ADD MSTORE DUP5 PUSH1 0xE0 DUP4 ADD MSTORE DUP4 PUSH2 0x100 DUP4 ADD MSTORE PUSH2 0x909 PUSH2 0x120 DUP4 ADD DUP5 PUSH2 0x732 JUMP JUMPDEST SWAP12 SWAP11 POP POP POP POP POP POP POP POP POP POP POP JUMP JUMPDEST SWAP2 DUP3 MSTORE PUSH1 0x20 DUP3 ADD MSTORE PUSH1 0x40 ADD SWAP1 JUMP JUMPDEST PUSH1 0x40 MLOAD DUP2 DUP2 ADD PUSH8 0xFFFFFFFFFFFFFFFF DUP2 GT DUP3 DUP3 LT OR ISZERO PUSH2 0x942 JUMPI INVALID JUMPDEST PUSH1 0x40 MSTORE SWAP2 SWAP1 POP JUMP JUMPDEST PUSH1 0x0 PUSH8 0xFFFFFFFFFFFFFFFF DUP3 GT ISZERO PUSH2 0x95E JUMPI INVALID JUMPDEST POP PUSH1 0x20 SWAP1 DUP2 MUL ADD SWAP1 JUMP JUMPDEST PUSH1 0x1 PUSH1 0x1 PUSH1 0xA0 SHL SUB DUP2 AND DUP2 EQ PUSH2 0x97D JUMPI PUSH1 0x0 DUP1 REVERT JUMPDEST POP JUMP INVALID LOG2 PUSH5 0x6970667358 0x22 SLT KECCAK256 SLT 0xF BLOCKHASH EXTCODESIZE SELFBALANCE CODESIZE 0x4A PUSH27 0x16B7FB3FB0169A49753EBD72EA0A7B78C839BC8DD5A5591B64736F PUSH13 0x63430007060033610980604052 PUSH32 0x6E71EDAE12B1B97F4D1F60370FEF10105FA2FAAE0126114A169C64845D6126C9 PUSH2 0x120 MSTORE CALLVALUE DUP1 ISZERO PUSH3 0x37 JUMPI PUSH1 0x0 DUP1 REVERT JUMPDEST POP PUSH1 0x40 MLOAD PUSH3 0x7390 CODESIZE SUB DUP1 PUSH3 0x7390 DUP4 CODECOPY DUP2 ADD PUSH1 0x40 DUP2 SWAP1 MSTORE PUSH3 0x5A SWAP2 PUSH3 0x13E8 JUMP JUMPDEST DUP10 DUP10 DUP10 DUP10 DUP9 DUP9 DUP9 DUP9 DUP9 DUP9 DUP7 MLOAD PUSH1 0x2 EQ PUSH3 0x76 JUMPI PUSH1 0x1 PUSH3 0x79 JUMP JUMPDEST PUSH1 0x2 JUMPDEST DUP10 DUP10 DUP10 DUP10 DUP10 DUP10 DUP10 DUP10 DUP3 DUP3 DUP10 DUP10 DUP2 DUP1 PUSH1 0x40 MLOAD DUP1 PUSH1 0x40 ADD PUSH1 0x40 MSTORE DUP1 PUSH1 0x1 DUP2 MSTORE PUSH1 0x20 ADD PUSH1 0x31 PUSH1 0xF8 SHL DUP2 MSTORE POP DUP5 DUP5 DUP10 CALLER PUSH1 0x1 PUSH1 0x1 PUSH1 0xA0 SHL SUB AND PUSH1 0x0 SHL DUP1 PUSH1 0x80 DUP2 DUP2 MSTORE POP POP POP DUP1 PUSH1 0x1 PUSH1 0x1 PUSH1 0xA0 SHL SUB AND PUSH1 0xA0 DUP2 PUSH1 0x1 PUSH1 0x1 PUSH1 0xA0 SHL SUB AND PUSH1 0x60 SHL DUP2 MSTORE POP POP POP DUP2 PUSH1 0x3 SWAP1 DUP1 MLOAD SWAP1 PUSH1 0x20 ADD SWAP1 PUSH3 0xF0 SWAP3 SWAP2 SWAP1 PUSH3 0x1141 JUMP JUMPDEST POP DUP1 MLOAD PUSH3 0x106 SWAP1 PUSH1 0x4 SWAP1 PUSH1 0x20 DUP5 ADD SWAP1 PUSH3 0x1141 JUMP JUMPDEST POP POP PUSH1 0x5 DUP1 SLOAD PUSH1 0xFF NOT AND PUSH1 0x12 OR SWAP1 SSTORE POP DUP2 MLOAD PUSH1 0x20 SWAP3 DUP4 ADD KECCAK256 PUSH1 0xC0 MSTORE DUP1 MLOAD SWAP2 ADD KECCAK256 PUSH1 0xE0 MSTORE POP POP PUSH32 0x8B73C3C69BB8FE3D512ECC4CF759CC79239F7B179B0FFACAA9A75D522B39400F PUSH2 0x100 MSTORE POP PUSH3 0x165 PUSH3 0x76A700 DUP4 GT ISZERO PUSH2 0x194 PUSH3 0xEA7 JUMP JUMPDEST PUSH3 0x179 PUSH3 0x278D00 DUP3 GT ISZERO PUSH2 0x195 PUSH3 0xEA7 JUMP JUMPDEST TIMESTAMP SWAP1 SWAP2 ADD PUSH2 0x140 DUP2 SWAP1 MSTORE ADD PUSH2 0x160 MSTORE DUP6 MLOAD PUSH3 0x19B SWAP1 PUSH1 0x2 GT ISZERO PUSH1 0xC8 PUSH3 0xEA7 JUMP JUMPDEST PUSH3 0x1B5 PUSH3 0x1A9 PUSH3 0xEBC JUMP JUMPDEST DUP8 MLOAD GT ISZERO PUSH1 0xC9 PUSH3 0xEA7 JUMP JUMPDEST PUSH3 0x1CB DUP7 PUSH3 0xEC1 PUSH1 0x20 SHL PUSH3 0xD9C OR PUSH1 0x20 SHR JUMP JUMPDEST PUSH3 0x1D6 DUP5 PUSH3 0xECD JUMP JUMPDEST PUSH1 0x40 MLOAD PUSH4 0x9B2760F PUSH1 0xE0 SHL DUP2 MSTORE PUSH1 0x0 SWAP1 PUSH1 0x1 PUSH1 0x1 PUSH1 0xA0 SHL SUB DUP13 AND SWAP1 PUSH4 0x9B2760F SWAP1 PUSH3 0x207 SWAP1 DUP14 SWAP1 PUSH1 0x4 ADD PUSH3 0x15C5 JUMP JUMPDEST PUSH1 0x20 PUSH1 0x40 MLOAD DUP1 DUP4 SUB DUP2 PUSH1 0x0 DUP8 DUP1 EXTCODESIZE ISZERO DUP1 ISZERO PUSH3 0x222 JUMPI PUSH1 0x0 DUP1 REVERT JUMPDEST POP GAS CALL ISZERO DUP1 ISZERO PUSH3 0x237 JUMPI RETURNDATASIZE PUSH1 0x0 DUP1 RETURNDATACOPY RETURNDATASIZE PUSH1 0x0 REVERT JUMPDEST POP POP POP POP PUSH1 0x40 MLOAD RETURNDATASIZE PUSH1 0x1F NOT PUSH1 0x1F DUP3 ADD AND DUP3 ADD DUP1 PUSH1 0x40 MSTORE POP DUP2 ADD SWAP1 PUSH3 0x25D SWAP2 SWAP1 PUSH3 0x13CF JUMP JUMPDEST PUSH1 0x40 MLOAD PUSH4 0x3354E3E9 PUSH1 0xE1 SHL DUP2 MSTORE SWAP1 SWAP2 POP PUSH1 0x1 PUSH1 0x1 PUSH1 0xA0 SHL SUB DUP13 AND SWAP1 PUSH4 0x66A9C7D2 SWAP1 PUSH3 0x292 SWAP1 DUP5 SWAP1 DUP12 SWAP1 DUP12 SWAP1 PUSH1 0x4 ADD PUSH3 0x152B JUMP JUMPDEST PUSH1 0x0 PUSH1 0x40 MLOAD DUP1 DUP4 SUB DUP2 PUSH1 0x0 DUP8 DUP1 EXTCODESIZE ISZERO DUP1 ISZERO PUSH3 0x2AD JUMPI PUSH1 0x0 DUP1 REVERT JUMPDEST POP GAS CALL ISZERO DUP1 ISZERO PUSH3 0x2C2 JUMPI RETURNDATASIZE PUSH1 0x0 DUP1 RETURNDATACOPY RETURNDATASIZE PUSH1 0x0 REVERT JUMPDEST POP POP POP POP DUP11 PUSH1 0x1 PUSH1 0x1 PUSH1 0xA0 SHL SUB AND PUSH2 0x180 DUP2 PUSH1 0x1 PUSH1 0x1 PUSH1 0xA0 SHL SUB AND PUSH1 0x60 SHL DUP2 MSTORE POP POP DUP1 PUSH2 0x1A0 DUP2 DUP2 MSTORE POP POP POP POP POP POP POP POP POP POP POP POP POP POP POP POP POP POP POP POP POP POP PUSH1 0x0 DUP8 MLOAD SWAP1 POP PUSH3 0x31F DUP2 DUP9 MLOAD PUSH3 0xF59 PUSH1 0x20 SHL PUSH3 0xDA6 OR PUSH1 0x20 SHR JUMP JUMPDEST PUSH2 0x1C0 DUP2 SWAP1 MSTORE PUSH1 0x0 DUP1 DUP1 DUP1 JUMPDEST DUP5 DUP2 PUSH1 0xFF AND LT ISZERO PUSH3 0x3AA JUMPI PUSH1 0x0 DUP12 DUP3 PUSH1 0xFF AND DUP2 MLOAD DUP2 LT PUSH3 0x349 JUMPI INVALID JUMPDEST PUSH1 0x20 MUL PUSH1 0x20 ADD ADD MLOAD SWAP1 POP PUSH3 0x371 PUSH7 0x2386F26FC10000 DUP3 LT ISZERO PUSH2 0x12E PUSH3 0xEA7 PUSH1 0x20 SHL PUSH1 0x20 SHR JUMP JUMPDEST PUSH3 0x38B DUP2 DUP7 PUSH3 0xF68 PUSH1 0x20 SHL PUSH3 0xDB3 OR SWAP1 SWAP2 SWAP1 PUSH1 0x20 SHR JUMP JUMPDEST SWAP5 POP DUP3 DUP2 GT ISZERO PUSH3 0x3A0 JUMPI DUP2 PUSH1 0xFF AND SWAP4 POP DUP1 SWAP3 POP JUMPDEST POP PUSH1 0x1 ADD PUSH3 0x32B JUMP JUMPDEST POP PUSH3 0x3C3 PUSH8 0xDE0B6B3A7640000 DUP5 EQ PUSH2 0x134 PUSH3 0xEA7 JUMP JUMPDEST PUSH2 0x6E0 DUP3 SWAP1 MSTORE DUP10 MLOAD DUP11 SWAP1 PUSH1 0x0 SWAP1 PUSH3 0x3D7 JUMPI INVALID JUMPDEST PUSH1 0x20 MUL PUSH1 0x20 ADD ADD MLOAD PUSH2 0x700 DUP2 DUP2 MSTORE POP POP DUP10 PUSH1 0x1 DUP2 MLOAD DUP2 LT PUSH3 0x3F5 JUMPI INVALID JUMPDEST PUSH1 0x20 MUL PUSH1 0x20 ADD ADD MLOAD PUSH2 0x720 DUP2 DUP2 MSTORE POP POP PUSH1 0x2 DUP5 GT PUSH3 0x416 JUMPI PUSH1 0x0 PUSH3 0x42D JUMP JUMPDEST DUP10 PUSH1 0x2 DUP2 MLOAD DUP2 LT PUSH3 0x424 JUMPI INVALID JUMPDEST PUSH1 0x20 MUL PUSH1 0x20 ADD ADD MLOAD JUMPDEST PUSH2 0x740 MSTORE PUSH1 0x3 DUP5 GT PUSH3 0x442 JUMPI PUSH1 0x0 PUSH3 0x459 JUMP JUMPDEST DUP10 PUSH1 0x3 DUP2 MLOAD DUP2 LT PUSH3 0x450 JUMPI INVALID JUMPDEST PUSH1 0x20 MUL PUSH1 0x20 ADD ADD MLOAD JUMPDEST PUSH2 0x760 MSTORE PUSH1 0x4 DUP5 GT PUSH3 0x46E JUMPI PUSH1 0x0 PUSH3 0x485 JUMP JUMPDEST DUP10 PUSH1 0x4 DUP2 MLOAD DUP2 LT PUSH3 0x47C JUMPI INVALID JUMPDEST PUSH1 0x20 MUL PUSH1 0x20 ADD ADD MLOAD JUMPDEST PUSH2 0x780 MSTORE PUSH1 0x5 DUP5 GT PUSH3 0x49A JUMPI PUSH1 0x0 PUSH3 0x4B1 JUMP JUMPDEST DUP10 PUSH1 0x5 DUP2 MLOAD DUP2 LT PUSH3 0x4A8 JUMPI INVALID JUMPDEST PUSH1 0x20 MUL PUSH1 0x20 ADD ADD MLOAD JUMPDEST PUSH2 0x7A0 MSTORE PUSH1 0x6 DUP5 GT PUSH3 0x4C6 JUMPI PUSH1 0x0 PUSH3 0x4DD JUMP JUMPDEST DUP10 PUSH1 0x6 DUP2 MLOAD DUP2 LT PUSH3 0x4D4 JUMPI INVALID JUMPDEST PUSH1 0x20 MUL PUSH1 0x20 ADD ADD MLOAD JUMPDEST PUSH2 0x7C0 MSTORE PUSH1 0x7 DUP5 GT PUSH3 0x4F2 JUMPI PUSH1 0x0 PUSH3 0x509 JUMP JUMPDEST DUP10 PUSH1 0x7 DUP2 MLOAD DUP2 LT PUSH3 0x500 JUMPI INVALID JUMPDEST PUSH1 0x20 MUL PUSH1 0x20 ADD ADD MLOAD JUMPDEST PUSH2 0x7E0 MSTORE PUSH1 0x8 DUP5 GT PUSH3 0x51E JUMPI PUSH1 0x0 PUSH3 0x535 JUMP JUMPDEST DUP10 PUSH1 0x8 DUP2 MLOAD DUP2 LT PUSH3 0x52C JUMPI INVALID JUMPDEST PUSH1 0x20 MUL PUSH1 0x20 ADD ADD MLOAD JUMPDEST PUSH2 0x800 MSTORE PUSH1 0x9 DUP5 GT PUSH3 0x54A JUMPI PUSH1 0x0 PUSH3 0x561 JUMP JUMPDEST DUP10 PUSH1 0x9 DUP2 MLOAD DUP2 LT PUSH3 0x558 JUMPI INVALID JUMPDEST PUSH1 0x20 MUL PUSH1 0x20 ADD ADD MLOAD JUMPDEST PUSH2 0x820 MSTORE PUSH1 0xA DUP5 GT PUSH3 0x576 JUMPI PUSH1 0x0 PUSH3 0x58D JUMP JUMPDEST DUP10 PUSH1 0xA DUP2 MLOAD DUP2 LT PUSH3 0x584 JUMPI INVALID JUMPDEST PUSH1 0x20 MUL PUSH1 0x20 ADD ADD MLOAD JUMPDEST PUSH2 0x840 MSTORE PUSH1 0xB DUP5 GT PUSH3 0x5A2 JUMPI PUSH1 0x0 PUSH3 0x5B9 JUMP JUMPDEST DUP10 PUSH1 0xB DUP2 MLOAD DUP2 LT PUSH3 0x5B0 JUMPI INVALID JUMPDEST PUSH1 0x20 MUL PUSH1 0x20 ADD ADD MLOAD JUMPDEST PUSH2 0x860 MSTORE PUSH1 0xC DUP5 GT PUSH3 0x5CE JUMPI PUSH1 0x0 PUSH3 0x5E5 JUMP JUMPDEST DUP10 PUSH1 0xC DUP2 MLOAD DUP2 LT PUSH3 0x5DC JUMPI INVALID JUMPDEST PUSH1 0x20 MUL PUSH1 0x20 ADD ADD MLOAD JUMPDEST PUSH2 0x880 MSTORE PUSH1 0xD DUP5 GT PUSH3 0x5FA JUMPI PUSH1 0x0 PUSH3 0x611 JUMP JUMPDEST DUP10 PUSH1 0xD DUP2 MLOAD DUP2 LT PUSH3 0x608 JUMPI INVALID JUMPDEST PUSH1 0x20 MUL PUSH1 0x20 ADD ADD MLOAD JUMPDEST PUSH2 0x8A0 MSTORE PUSH1 0xE DUP5 GT PUSH3 0x626 JUMPI PUSH1 0x0 PUSH3 0x63D JUMP JUMPDEST DUP10 PUSH1 0xE DUP2 MLOAD DUP2 LT PUSH3 0x634 JUMPI INVALID JUMPDEST PUSH1 0x20 MUL PUSH1 0x20 ADD ADD MLOAD JUMPDEST PUSH2 0x8C0 MSTORE PUSH1 0xF DUP5 GT PUSH3 0x652 JUMPI PUSH1 0x0 PUSH3 0x669 JUMP JUMPDEST DUP10 PUSH1 0xF DUP2 MLOAD DUP2 LT PUSH3 0x660 JUMPI INVALID JUMPDEST PUSH1 0x20 MUL PUSH1 0x20 ADD ADD MLOAD JUMPDEST PUSH2 0x8E0 MSTORE PUSH1 0x10 DUP5 GT PUSH3 0x67E JUMPI PUSH1 0x0 PUSH3 0x695 JUMP JUMPDEST DUP10 PUSH1 0x10 DUP2 MLOAD DUP2 LT PUSH3 0x68C JUMPI INVALID JUMPDEST PUSH1 0x20 MUL PUSH1 0x20 ADD ADD MLOAD JUMPDEST PUSH2 0x900 MSTORE PUSH1 0x11 DUP5 GT PUSH3 0x6AA JUMPI PUSH1 0x0 PUSH3 0x6C1 JUMP JUMPDEST DUP10 PUSH1 0x11 DUP2 MLOAD DUP2 LT PUSH3 0x6B8 JUMPI INVALID JUMPDEST PUSH1 0x20 MUL PUSH1 0x20 ADD ADD MLOAD JUMPDEST PUSH2 0x920 MSTORE PUSH1 0x12 DUP5 GT PUSH3 0x6D6 JUMPI PUSH1 0x0 PUSH3 0x6ED JUMP JUMPDEST DUP10 PUSH1 0x12 DUP2 MLOAD DUP2 LT PUSH3 0x6E4 JUMPI INVALID JUMPDEST PUSH1 0x20 MUL PUSH1 0x20 ADD ADD MLOAD JUMPDEST PUSH2 0x940 MSTORE PUSH1 0x13 DUP5 GT PUSH3 0x702 JUMPI PUSH1 0x0 PUSH3 0x719 JUMP JUMPDEST DUP10 PUSH1 0x13 DUP2 MLOAD DUP2 LT PUSH3 0x710 JUMPI INVALID JUMPDEST PUSH1 0x20 MUL PUSH1 0x20 ADD ADD MLOAD JUMPDEST PUSH2 0x960 MSTORE DUP11 MLOAD DUP12 SWAP1 PUSH1 0x0 SWAP1 PUSH3 0x72B JUMPI INVALID JUMPDEST PUSH1 0x20 MUL PUSH1 0x20 ADD ADD MLOAD PUSH1 0x1 PUSH1 0x1 PUSH1 0xA0 SHL SUB AND PUSH2 0x1E0 DUP2 PUSH1 0x1 PUSH1 0x1 PUSH1 0xA0 SHL SUB AND PUSH1 0x60 SHL DUP2 MSTORE POP POP DUP11 PUSH1 0x1 DUP2 MLOAD DUP2 LT PUSH3 0x75E JUMPI INVALID JUMPDEST PUSH1 0x20 MUL PUSH1 0x20 ADD ADD MLOAD PUSH1 0x1 PUSH1 0x1 PUSH1 0xA0 SHL SUB AND PUSH2 0x200 DUP2 PUSH1 0x1 PUSH1 0x1 PUSH1 0xA0 SHL SUB AND PUSH1 0x60 SHL DUP2 MSTORE POP POP PUSH1 0x2 DUP5 GT PUSH3 0x794 JUMPI PUSH1 0x0 PUSH3 0x7AB JUMP JUMPDEST DUP11 PUSH1 0x2 DUP2 MLOAD DUP2 LT PUSH3 0x7A2 JUMPI INVALID JUMPDEST PUSH1 0x20 MUL PUSH1 0x20 ADD ADD MLOAD JUMPDEST PUSH1 0x60 SHL PUSH1 0x1 PUSH1 0x1 PUSH1 0x60 SHL SUB NOT AND PUSH2 0x220 MSTORE PUSH1 0x3 DUP5 GT PUSH3 0x7CD JUMPI PUSH1 0x0 PUSH3 0x7E4 JUMP JUMPDEST DUP11 PUSH1 0x3 DUP2 MLOAD DUP2 LT PUSH3 0x7DB JUMPI INVALID JUMPDEST PUSH1 0x20 MUL PUSH1 0x20 ADD ADD MLOAD JUMPDEST PUSH1 0x60 SHL PUSH1 0x1 PUSH1 0x1 PUSH1 0x60 SHL SUB NOT AND PUSH2 0x240 MSTORE PUSH1 0x4 DUP5 GT PUSH3 0x806 JUMPI PUSH1 0x0 PUSH3 0x81D JUMP JUMPDEST DUP11 PUSH1 0x4 DUP2 MLOAD DUP2 LT PUSH3 0x814 JUMPI INVALID JUMPDEST PUSH1 0x20 MUL PUSH1 0x20 ADD ADD MLOAD JUMPDEST PUSH1 0x60 SHL PUSH1 0x1 PUSH1 0x1 PUSH1 0x60 SHL SUB NOT AND PUSH2 0x260 MSTORE PUSH1 0x5 DUP5 GT PUSH3 0x83F JUMPI PUSH1 0x0 PUSH3 0x856 JUMP JUMPDEST DUP11 PUSH1 0x5 DUP2 MLOAD DUP2 LT PUSH3 0x84D JUMPI INVALID JUMPDEST PUSH1 0x20 MUL PUSH1 0x20 ADD ADD MLOAD JUMPDEST PUSH1 0x60 SHL PUSH1 0x1 PUSH1 0x1 PUSH1 0x60 SHL SUB NOT AND PUSH2 0x280 MSTORE PUSH1 0x6 DUP5 GT PUSH3 0x878 JUMPI PUSH1 0x0 PUSH3 0x88F JUMP JUMPDEST DUP11 PUSH1 0x6 DUP2 MLOAD DUP2 LT PUSH3 0x886 JUMPI INVALID JUMPDEST PUSH1 0x20 MUL PUSH1 0x20 ADD ADD MLOAD JUMPDEST PUSH1 0x60 SHL PUSH1 0x1 PUSH1 0x1 PUSH1 0x60 SHL SUB NOT AND PUSH2 0x2A0 MSTORE PUSH1 0x7 DUP5 GT PUSH3 0x8B1 JUMPI PUSH1 0x0 PUSH3 0x8C8 JUMP JUMPDEST DUP11 PUSH1 0x7 DUP2 MLOAD DUP2 LT PUSH3 0x8BF JUMPI INVALID JUMPDEST PUSH1 0x20 MUL PUSH1 0x20 ADD ADD MLOAD JUMPDEST PUSH1 0x60 SHL PUSH1 0x1 PUSH1 0x1 PUSH1 0x60 SHL SUB NOT AND PUSH2 0x2C0 MSTORE PUSH1 0x8 DUP5 GT PUSH3 0x8EA JUMPI PUSH1 0x0 PUSH3 0x901 JUMP JUMPDEST DUP11 PUSH1 0x8 DUP2 MLOAD DUP2 LT PUSH3 0x8F8 JUMPI INVALID JUMPDEST PUSH1 0x20 MUL PUSH1 0x20 ADD ADD MLOAD JUMPDEST PUSH1 0x60 SHL PUSH1 0x1 PUSH1 0x1 PUSH1 0x60 SHL SUB NOT AND PUSH2 0x2E0 MSTORE PUSH1 0x9 DUP5 GT PUSH3 0x923 JUMPI PUSH1 0x0 PUSH3 0x93A JUMP JUMPDEST DUP11 PUSH1 0x9 DUP2 MLOAD DUP2 LT PUSH3 0x931 JUMPI INVALID JUMPDEST PUSH1 0x20 MUL PUSH1 0x20 ADD ADD MLOAD JUMPDEST PUSH1 0x60 SHL PUSH1 0x1 PUSH1 0x1 PUSH1 0x60 SHL SUB NOT AND PUSH2 0x300 MSTORE PUSH1 0xA DUP5 GT PUSH3 0x95C JUMPI PUSH1 0x0 PUSH3 0x973 JUMP JUMPDEST DUP11 PUSH1 0xA DUP2 MLOAD DUP2 LT PUSH3 0x96A JUMPI INVALID JUMPDEST PUSH1 0x20 MUL PUSH1 0x20 ADD ADD MLOAD JUMPDEST PUSH1 0x60 SHL PUSH1 0x1 PUSH1 0x1 PUSH1 0x60 SHL SUB NOT AND PUSH2 0x320 MSTORE PUSH1 0xB DUP5 GT PUSH3 0x995 JUMPI PUSH1 0x0 PUSH3 0x9AC JUMP JUMPDEST DUP11 PUSH1 0xB DUP2 MLOAD DUP2 LT PUSH3 0x9A3 JUMPI INVALID JUMPDEST PUSH1 0x20 MUL PUSH1 0x20 ADD ADD MLOAD JUMPDEST PUSH1 0x60 SHL PUSH1 0x1 PUSH1 0x1 PUSH1 0x60 SHL SUB NOT AND PUSH2 0x340 MSTORE PUSH1 0xC DUP5 GT PUSH3 0x9CE JUMPI PUSH1 0x0 PUSH3 0x9E5 JUMP JUMPDEST DUP11 PUSH1 0xC DUP2 MLOAD DUP2 LT PUSH3 0x9DC JUMPI INVALID JUMPDEST PUSH1 0x20 MUL PUSH1 0x20 ADD ADD MLOAD JUMPDEST PUSH1 0x60 SHL PUSH1 0x1 PUSH1 0x1 PUSH1 0x60 SHL SUB NOT AND PUSH2 0x360 MSTORE PUSH1 0xD DUP5 GT PUSH3 0xA07 JUMPI PUSH1 0x0 PUSH3 0xA1E JUMP JUMPDEST DUP11 PUSH1 0xD DUP2 MLOAD DUP2 LT PUSH3 0xA15 JUMPI INVALID JUMPDEST PUSH1 0x20 MUL PUSH1 0x20 ADD ADD MLOAD JUMPDEST PUSH1 0x60 SHL PUSH1 0x1 PUSH1 0x1 PUSH1 0x60 SHL SUB NOT AND PUSH2 0x380 MSTORE PUSH1 0xE DUP5 GT PUSH3 0xA40 JUMPI PUSH1 0x0 PUSH3 0xA57 JUMP JUMPDEST DUP11 PUSH1 0xE DUP2 MLOAD DUP2 LT PUSH3 0xA4E JUMPI INVALID JUMPDEST PUSH1 0x20 MUL PUSH1 0x20 ADD ADD MLOAD JUMPDEST PUSH1 0x60 SHL PUSH1 0x1 PUSH1 0x1 PUSH1 0x60 SHL SUB NOT AND PUSH2 0x3A0 MSTORE PUSH1 0xF DUP5 GT PUSH3 0xA79 JUMPI PUSH1 0x0 PUSH3 0xA90 JUMP JUMPDEST DUP11 PUSH1 0xF DUP2 MLOAD DUP2 LT PUSH3 0xA87 JUMPI INVALID JUMPDEST PUSH1 0x20 MUL PUSH1 0x20 ADD ADD MLOAD JUMPDEST PUSH1 0x60 SHL PUSH1 0x1 PUSH1 0x1 PUSH1 0x60 SHL SUB NOT AND PUSH2 0x3C0 MSTORE PUSH1 0x10 DUP5 GT PUSH3 0xAB2 JUMPI PUSH1 0x0 PUSH3 0xAC9 JUMP JUMPDEST DUP11 PUSH1 0x10 DUP2 MLOAD DUP2 LT PUSH3 0xAC0 JUMPI INVALID JUMPDEST PUSH1 0x20 MUL PUSH1 0x20 ADD ADD MLOAD JUMPDEST PUSH1 0x60 SHL PUSH1 0x1 PUSH1 0x1 PUSH1 0x60 SHL SUB NOT AND PUSH2 0x3E0 MSTORE PUSH1 0x11 DUP5 GT PUSH3 0xAEB JUMPI PUSH1 0x0 PUSH3 0xB02 JUMP JUMPDEST DUP11 PUSH1 0x11 DUP2 MLOAD DUP2 LT PUSH3 0xAF9 JUMPI INVALID JUMPDEST PUSH1 0x20 MUL PUSH1 0x20 ADD ADD MLOAD JUMPDEST PUSH1 0x60 SHL PUSH1 0x1 PUSH1 0x1 PUSH1 0x60 SHL SUB NOT AND PUSH2 0x400 MSTORE PUSH1 0x12 DUP5 GT PUSH3 0xB24 JUMPI PUSH1 0x0 PUSH3 0xB3B JUMP JUMPDEST DUP11 PUSH1 0x12 DUP2 MLOAD DUP2 LT PUSH3 0xB32 JUMPI INVALID JUMPDEST PUSH1 0x20 MUL PUSH1 0x20 ADD ADD MLOAD JUMPDEST PUSH1 0x60 SHL PUSH1 0x1 PUSH1 0x1 PUSH1 0x60 SHL SUB NOT AND PUSH2 0x420 MSTORE PUSH1 0x13 DUP5 GT PUSH3 0xB5D JUMPI PUSH1 0x0 PUSH3 0xB74 JUMP JUMPDEST DUP11 PUSH1 0x13 DUP2 MLOAD DUP2 LT PUSH3 0xB6B JUMPI INVALID JUMPDEST PUSH1 0x20 MUL PUSH1 0x20 ADD ADD MLOAD JUMPDEST PUSH1 0x1 PUSH1 0x1 PUSH1 0xA0 SHL SUB AND PUSH2 0x440 DUP2 PUSH1 0x1 PUSH1 0x1 PUSH1 0xA0 SHL SUB AND PUSH1 0x60 SHL DUP2 MSTORE POP POP PUSH3 0xBB7 DUP12 PUSH1 0x0 DUP2 MLOAD DUP2 LT PUSH3 0xBA3 JUMPI INVALID JUMPDEST PUSH1 0x20 MUL PUSH1 0x20 ADD ADD MLOAD PUSH3 0xF83 PUSH1 0x20 SHL PUSH1 0x20 SHR JUMP JUMPDEST PUSH2 0x460 MSTORE DUP11 MLOAD PUSH3 0xBD0 SWAP1 DUP13 SWAP1 PUSH1 0x1 SWAP1 DUP2 LT PUSH3 0xBA3 JUMPI INVALID JUMPDEST PUSH2 0x480 MSTORE PUSH1 0x2 DUP5 GT PUSH3 0xBE5 JUMPI PUSH1 0x0 PUSH3 0xBF7 JUMP JUMPDEST PUSH3 0xBF7 DUP12 PUSH1 0x2 DUP2 MLOAD DUP2 LT PUSH3 0xBA3 JUMPI INVALID JUMPDEST PUSH2 0x4A0 MSTORE PUSH1 0x3 DUP5 GT PUSH3 0xC0C JUMPI PUSH1 0x0 PUSH3 0xC1E JUMP JUMPDEST PUSH3 0xC1E DUP12 PUSH1 0x3 DUP2 MLOAD DUP2 LT PUSH3 0xBA3 JUMPI INVALID JUMPDEST PUSH2 0x4C0 MSTORE PUSH1 0x4 DUP5 GT PUSH3 0xC33 JUMPI PUSH1 0x0 PUSH3 0xC45 JUMP JUMPDEST PUSH3 0xC45 DUP12 PUSH1 0x4 DUP2 MLOAD DUP2 LT PUSH3 0xBA3 JUMPI INVALID JUMPDEST PUSH2 0x4E0 MSTORE PUSH1 0x5 DUP5 GT PUSH3 0xC5A JUMPI PUSH1 0x0 PUSH3 0xC6C JUMP JUMPDEST PUSH3 0xC6C DUP12 PUSH1 0x5 DUP2 MLOAD DUP2 LT PUSH3 0xBA3 JUMPI INVALID JUMPDEST PUSH2 0x500 MSTORE PUSH1 0x6 DUP5 GT PUSH3 0xC81 JUMPI PUSH1 0x0 PUSH3 0xC93 JUMP JUMPDEST PUSH3 0xC93 DUP12 PUSH1 0x6 DUP2 MLOAD DUP2 LT PUSH3 0xBA3 JUMPI INVALID JUMPDEST PUSH2 0x520 MSTORE PUSH1 0x7 DUP5 GT PUSH3 0xCA8 JUMPI PUSH1 0x0 PUSH3 0xCBA JUMP JUMPDEST PUSH3 0xCBA DUP12 PUSH1 0x7 DUP2 MLOAD DUP2 LT PUSH3 0xBA3 JUMPI INVALID JUMPDEST PUSH2 0x540 MSTORE PUSH1 0x8 DUP5 GT PUSH3 0xCCF JUMPI PUSH1 0x0 PUSH3 0xCE1 JUMP JUMPDEST PUSH3 0xCE1 DUP12 PUSH1 0x8 DUP2 MLOAD DUP2 LT PUSH3 0xBA3 JUMPI INVALID JUMPDEST PUSH2 0x560 MSTORE PUSH1 0x9 DUP5 GT PUSH3 0xCF6 JUMPI PUSH1 0x0 PUSH3 0xD08 JUMP JUMPDEST PUSH3 0xD08 DUP12 PUSH1 0x9 DUP2 MLOAD DUP2 LT PUSH3 0xBA3 JUMPI INVALID JUMPDEST PUSH2 0x580 MSTORE PUSH1 0xA DUP5 GT PUSH3 0xD1D JUMPI PUSH1 0x0 PUSH3 0xD2F JUMP JUMPDEST PUSH3 0xD2F DUP12 PUSH1 0xA DUP2 MLOAD DUP2 LT PUSH3 0xBA3 JUMPI INVALID JUMPDEST PUSH2 0x5A0 MSTORE PUSH1 0xB DUP5 GT PUSH3 0xD44 JUMPI PUSH1 0x0 PUSH3 0xD56 JUMP JUMPDEST PUSH3 0xD56 DUP12 PUSH1 0xB DUP2 MLOAD DUP2 LT PUSH3 0xBA3 JUMPI INVALID JUMPDEST PUSH2 0x5C0 MSTORE PUSH1 0xC DUP5 GT PUSH3 0xD6B JUMPI PUSH1 0x0 PUSH3 0xD7D JUMP JUMPDEST PUSH3 0xD7D DUP12 PUSH1 0xC DUP2 MLOAD DUP2 LT PUSH3 0xBA3 JUMPI INVALID JUMPDEST PUSH2 0x5E0 MSTORE PUSH1 0xD DUP5 GT PUSH3 0xD92 JUMPI PUSH1 0x0 PUSH3 0xDA4 JUMP JUMPDEST PUSH3 0xDA4 DUP12 PUSH1 0xD DUP2 MLOAD DUP2 LT PUSH3 0xBA3 JUMPI INVALID JUMPDEST PUSH2 0x600 MSTORE PUSH1 0xE DUP5 GT PUSH3 0xDB9 JUMPI PUSH1 0x0 PUSH3 0xDCB JUMP JUMPDEST PUSH3 0xDCB DUP12 PUSH1 0xE DUP2 MLOAD DUP2 LT PUSH3 0xBA3 JUMPI INVALID JUMPDEST PUSH2 0x620 MSTORE PUSH1 0xF DUP5 GT PUSH3 0xDE0 JUMPI PUSH1 0x0 PUSH3 0xDF2 JUMP JUMPDEST PUSH3 0xDF2 DUP12 PUSH1 0xF DUP2 MLOAD DUP2 LT PUSH3 0xBA3 JUMPI INVALID JUMPDEST PUSH2 0x640 MSTORE PUSH1 0x10 DUP5 GT PUSH3 0xE07 JUMPI PUSH1 0x0 PUSH3 0xE19 JUMP JUMPDEST PUSH3 0xE19 DUP12 PUSH1 0x10 DUP2 MLOAD DUP2 LT PUSH3 0xBA3 JUMPI INVALID JUMPDEST PUSH2 0x660 MSTORE PUSH1 0x11 DUP5 GT PUSH3 0xE2E JUMPI PUSH1 0x0 PUSH3 0xE40 JUMP JUMPDEST PUSH3 0xE40 DUP12 PUSH1 0x11 DUP2 MLOAD DUP2 LT PUSH3 0xBA3 JUMPI INVALID JUMPDEST PUSH2 0x680 MSTORE PUSH1 0x12 DUP5 GT PUSH3 0xE55 JUMPI PUSH1 0x0 PUSH3 0xE67 JUMP JUMPDEST PUSH3 0xE67 DUP12 PUSH1 0x12 DUP2 MLOAD DUP2 LT PUSH3 0xBA3 JUMPI INVALID JUMPDEST PUSH2 0x6A0 MSTORE PUSH1 0x13 DUP5 GT PUSH3 0xE7C JUMPI PUSH1 0x0 PUSH3 0xE8E JUMP JUMPDEST PUSH3 0xE8E DUP12 PUSH1 0x13 DUP2 MLOAD DUP2 LT PUSH3 0xBA3 JUMPI INVALID JUMPDEST PUSH2 0x6C0 MSTORE POP PUSH3 0x163B SWAP13 POP POP POP POP POP POP POP POP POP POP POP POP POP JUMP JUMPDEST DUP2 PUSH3 0xEB8 JUMPI PUSH3 0xEB8 DUP2 PUSH3 0x1034 JUMP JUMPDEST POP POP JUMP JUMPDEST PUSH1 0x14 SWAP1 JUMP JUMPDEST DUP1 PUSH3 0xEB8 DUP2 PUSH3 0x1087 JUMP JUMPDEST PUSH3 0xEE2 PUSH5 0xE8D4A51000 DUP3 LT ISZERO PUSH1 0xCB PUSH3 0xEA7 JUMP JUMPDEST PUSH3 0xEFA PUSH8 0x16345785D8A0000 DUP3 GT ISZERO PUSH1 0xCA PUSH3 0xEA7 JUMP JUMPDEST PUSH3 0xF19 DUP2 PUSH1 0xC0 PUSH1 0x8 SLOAD PUSH3 0x1114 PUSH1 0x20 SHL PUSH3 0xDC5 OR SWAP1 SWAP3 SWAP2 SWAP1 PUSH1 0x20 SHR JUMP JUMPDEST PUSH1 0x8 SSTORE PUSH1 0x40 MLOAD PUSH32 0xA9BA3FFE0B6C366B81232CAAB38605A0699AD5398D6CCE76F91EE809E322DAFC SWAP1 PUSH3 0xF4E SWAP1 DUP4 SWAP1 PUSH3 0x15DA JUMP JUMPDEST PUSH1 0x40 MLOAD DUP1 SWAP2 SUB SWAP1 LOG1 POP JUMP JUMPDEST PUSH3 0xEB8 DUP3 DUP3 EQ PUSH1 0x67 PUSH3 0xEA7 JUMP JUMPDEST PUSH1 0x0 DUP3 DUP3 ADD PUSH3 0xF7C DUP5 DUP3 LT ISZERO DUP4 PUSH3 0xEA7 JUMP JUMPDEST SWAP4 SWAP3 POP POP POP JUMP JUMPDEST PUSH1 0x0 DUP1 DUP3 PUSH1 0x1 PUSH1 0x1 PUSH1 0xA0 SHL SUB AND PUSH4 0x313CE567 PUSH1 0x40 MLOAD DUP2 PUSH4 0xFFFFFFFF AND PUSH1 0xE0 SHL DUP2 MSTORE PUSH1 0x4 ADD PUSH1 0x20 PUSH1 0x40 MLOAD DUP1 DUP4 SUB DUP2 DUP7 DUP1 EXTCODESIZE ISZERO DUP1 ISZERO PUSH3 0xFC0 JUMPI PUSH1 0x0 DUP1 REVERT JUMPDEST POP GAS STATICCALL ISZERO DUP1 ISZERO PUSH3 0xFD5 JUMPI RETURNDATASIZE PUSH1 0x0 DUP1 RETURNDATACOPY RETURNDATASIZE PUSH1 0x0 REVERT JUMPDEST POP POP POP POP PUSH1 0x40 MLOAD RETURNDATASIZE PUSH1 0x1F NOT PUSH1 0x1F DUP3 ADD AND DUP3 ADD DUP1 PUSH1 0x40 MSTORE POP DUP2 ADD SWAP1 PUSH3 0xFFB SWAP2 SWAP1 PUSH3 0x1508 JUMP JUMPDEST PUSH1 0xFF AND SWAP1 POP PUSH1 0x0 PUSH3 0x101A PUSH1 0x12 DUP4 PUSH3 0x1129 PUSH1 0x20 SHL PUSH3 0xDDA OR PUSH1 0x20 SHR JUMP JUMPDEST SWAP1 POP DUP1 PUSH1 0xA EXP PUSH8 0xDE0B6B3A7640000 MUL SWAP3 POP POP POP JUMPDEST SWAP2 SWAP1 POP JUMP JUMPDEST PUSH3 0x461BCD PUSH1 0xE5 SHL PUSH1 0x0 SWAP1 DUP2 MSTORE PUSH1 0x20 PUSH1 0x4 MSTORE PUSH1 0x7 PUSH1 0x24 MSTORE PUSH7 0x42414C23000030 PUSH1 0xA DUP1 DUP5 DIV DUP2 DUP2 MOD PUSH1 0x30 SWAP1 DUP2 ADD PUSH1 0x8 SHL SWAP6 DUP4 SWAP1 MOD SWAP6 SWAP1 SWAP6 ADD SWAP1 DUP3 SWAP1 DIV SWAP2 DUP3 MOD SWAP1 SWAP5 ADD PUSH1 0x10 SHL SWAP4 SWAP1 SWAP4 ADD ADD PUSH1 0xC8 SHL PUSH1 0x44 MSTORE PUSH1 0x64 SWAP1 REVERT JUMPDEST PUSH1 0x2 DUP2 MLOAD LT ISZERO PUSH3 0x1098 JUMPI PUSH3 0x1111 JUMP JUMPDEST PUSH1 0x0 DUP2 PUSH1 0x0 DUP2 MLOAD DUP2 LT PUSH3 0x10A8 JUMPI INVALID JUMPDEST PUSH1 0x20 MUL PUSH1 0x20 ADD ADD MLOAD SWAP1 POP PUSH1 0x0 PUSH1 0x1 SWAP1 POP JUMPDEST DUP3 MLOAD DUP2 LT ISZERO PUSH3 0x110E JUMPI PUSH1 0x0 DUP4 DUP3 DUP2 MLOAD DUP2 LT PUSH3 0x10D2 JUMPI INVALID JUMPDEST PUSH1 0x20 MUL PUSH1 0x20 ADD ADD MLOAD SWAP1 POP PUSH3 0x1103 DUP2 PUSH1 0x1 PUSH1 0x1 PUSH1 0xA0 SHL SUB AND DUP5 PUSH1 0x1 PUSH1 0x1 PUSH1 0xA0 SHL SUB AND LT PUSH1 0x65 PUSH3 0xEA7 PUSH1 0x20 SHL PUSH1 0x20 SHR JUMP JUMPDEST SWAP2 POP PUSH1 0x1 ADD PUSH3 0x10B9 JUMP JUMPDEST POP POP JUMPDEST POP JUMP JUMPDEST PUSH1 0x1 PUSH1 0x1 PUSH1 0x40 SHL SUB DUP2 SHL NOT SWAP3 SWAP1 SWAP3 AND SWAP2 SHL OR SWAP1 JUMP JUMPDEST PUSH1 0x0 PUSH3 0x113B DUP4 DUP4 GT ISZERO PUSH1 0x1 PUSH3 0xEA7 JUMP JUMPDEST POP SWAP1 SUB SWAP1 JUMP JUMPDEST DUP3 DUP1 SLOAD PUSH1 0x1 DUP2 PUSH1 0x1 AND ISZERO PUSH2 0x100 MUL SUB AND PUSH1 0x2 SWAP1 DIV SWAP1 PUSH1 0x0 MSTORE PUSH1 0x20 PUSH1 0x0 KECCAK256 SWAP1 PUSH1 0x1F ADD PUSH1 0x20 SWAP1 DIV DUP2 ADD SWAP3 DUP3 PUSH3 0x1179 JUMPI PUSH1 0x0 DUP6 SSTORE PUSH3 0x11C4 JUMP JUMPDEST DUP3 PUSH1 0x1F LT PUSH3 0x1194 JUMPI DUP1 MLOAD PUSH1 0xFF NOT AND DUP4 DUP1 ADD OR DUP6 SSTORE PUSH3 0x11C4 JUMP JUMPDEST DUP3 DUP1 ADD PUSH1 0x1 ADD DUP6 SSTORE DUP3 ISZERO PUSH3 0x11C4 JUMPI SWAP2 DUP3 ADD JUMPDEST DUP3 DUP2 GT ISZERO PUSH3 0x11C4 JUMPI DUP3 MLOAD DUP3 SSTORE SWAP2 PUSH1 0x20 ADD SWAP2 SWAP1 PUSH1 0x1 ADD SWAP1 PUSH3 0x11A7 JUMP JUMPDEST POP PUSH3 0x11D2 SWAP3 SWAP2 POP PUSH3 0x11D6 JUMP JUMPDEST POP SWAP1 JUMP JUMPDEST JUMPDEST DUP1 DUP3 GT ISZERO PUSH3 0x11D2 JUMPI PUSH1 0x0 DUP2 SSTORE PUSH1 0x1 ADD PUSH3 0x11D7 JUMP JUMPDEST DUP1 MLOAD PUSH3 0x102F DUP2 PUSH3 0x1625 JUMP JUMPDEST PUSH1 0x0 DUP3 PUSH1 0x1F DUP4 ADD SLT PUSH3 0x120B JUMPI DUP1 DUP2 REVERT JUMPDEST DUP2 MLOAD PUSH1 0x20 PUSH3 0x1224 PUSH3 0x121E DUP4 PUSH3 0x1607 JUMP JUMPDEST PUSH3 0x15E3 JUMP JUMPDEST DUP3 DUP2 MSTORE DUP2 DUP2 ADD SWAP1 DUP6 DUP4 ADD DUP4 DUP6 MUL DUP8 ADD DUP5 ADD DUP9 LT ISZERO PUSH3 0x1241 JUMPI DUP6 DUP7 REVERT JUMPDEST DUP6 JUMPDEST DUP6 DUP2 LT ISZERO PUSH3 0x126C JUMPI DUP2 MLOAD PUSH3 0x1259 DUP2 PUSH3 0x1625 JUMP JUMPDEST DUP5 MSTORE SWAP3 DUP5 ADD SWAP3 SWAP1 DUP5 ADD SWAP1 PUSH1 0x1 ADD PUSH3 0x1243 JUMP JUMPDEST POP SWAP1 SWAP8 SWAP7 POP POP POP POP POP POP POP JUMP JUMPDEST PUSH1 0x0 DUP3 PUSH1 0x1F DUP4 ADD SLT PUSH3 0x128A JUMPI DUP1 DUP2 REVERT JUMPDEST DUP2 MLOAD PUSH1 0x20 PUSH3 0x129D PUSH3 0x121E DUP4 PUSH3 0x1607 JUMP JUMPDEST DUP3 DUP2 MSTORE DUP2 DUP2 ADD SWAP1 DUP6 DUP4 ADD DUP4 DUP6 MUL DUP8 ADD DUP5 ADD DUP9 LT ISZERO PUSH3 0x12BA JUMPI DUP6 DUP7 REVERT JUMPDEST DUP6 JUMPDEST DUP6 DUP2 LT ISZERO PUSH3 0x126C JUMPI DUP2 MLOAD PUSH3 0x12D2 DUP2 PUSH3 0x1625 JUMP JUMPDEST DUP5 MSTORE SWAP3 DUP5 ADD SWAP3 SWAP1 DUP5 ADD SWAP1 PUSH1 0x1 ADD PUSH3 0x12BC JUMP JUMPDEST PUSH1 0x0 DUP3 PUSH1 0x1F DUP4 ADD SLT PUSH3 0x12F6 JUMPI DUP1 DUP2 REVERT JUMPDEST DUP2 MLOAD PUSH1 0x20 PUSH3 0x1309 PUSH3 0x121E DUP4 PUSH3 0x1607 JUMP JUMPDEST DUP3 DUP2 MSTORE DUP2 DUP2 ADD SWAP1 DUP6 DUP4 ADD DUP4 DUP6 MUL DUP8 ADD DUP5 ADD DUP9 LT ISZERO PUSH3 0x1326 JUMPI DUP6 DUP7 REVERT JUMPDEST DUP6 JUMPDEST DUP6 DUP2 LT ISZERO PUSH3 0x126C JUMPI DUP2 MLOAD DUP5 MSTORE SWAP3 DUP5 ADD SWAP3 SWAP1 DUP5 ADD SWAP1 PUSH1 0x1 ADD PUSH3 0x1328 JUMP JUMPDEST PUSH1 0x0 DUP3 PUSH1 0x1F DUP4 ADD SLT PUSH3 0x1357 JUMPI DUP1 DUP2 REVERT JUMPDEST DUP2 MLOAD PUSH1 0x1 PUSH1 0x1 PUSH1 0x40 SHL SUB DUP2 GT ISZERO PUSH3 0x136B JUMPI INVALID JUMPDEST PUSH1 0x20 PUSH3 0x1381 PUSH1 0x1F DUP4 ADD PUSH1 0x1F NOT AND DUP3 ADD PUSH3 0x15E3 JUMP JUMPDEST DUP3 DUP2 MSTORE DUP6 DUP3 DUP5 DUP8 ADD ADD GT ISZERO PUSH3 0x1395 JUMPI DUP4 DUP5 REVERT JUMPDEST DUP4 JUMPDEST DUP4 DUP2 LT ISZERO PUSH3 0x13B4 JUMPI DUP6 DUP2 ADD DUP4 ADD MLOAD DUP3 DUP3 ADD DUP5 ADD MSTORE DUP3 ADD PUSH3 0x1397 JUMP JUMPDEST DUP4 DUP2 GT ISZERO PUSH3 0x13C5 JUMPI DUP5 DUP4 DUP6 DUP5 ADD ADD MSTORE JUMPDEST POP SWAP6 SWAP5 POP POP POP POP POP JUMP JUMPDEST PUSH1 0x0 PUSH1 0x20 DUP3 DUP5 SUB SLT ISZERO PUSH3 0x13E1 JUMPI DUP1 DUP2 REVERT JUMPDEST POP MLOAD SWAP2 SWAP1 POP JUMP JUMPDEST PUSH1 0x0 DUP1 PUSH1 0x0 DUP1 PUSH1 0x0 DUP1 PUSH1 0x0 DUP1 PUSH1 0x0 DUP1 PUSH2 0x140 DUP12 DUP14 SUB SLT ISZERO PUSH3 0x1408 JUMPI DUP6 DUP7 REVERT JUMPDEST PUSH3 0x1413 DUP12 PUSH3 0x11ED JUMP JUMPDEST PUSH1 0x20 DUP13 ADD MLOAD SWAP1 SWAP11 POP PUSH1 0x1 PUSH1 0x1 PUSH1 0x40 SHL SUB DUP1 DUP3 GT ISZERO PUSH3 0x1430 JUMPI DUP8 DUP9 REVERT JUMPDEST PUSH3 0x143E DUP15 DUP4 DUP16 ADD PUSH3 0x1346 JUMP JUMPDEST SWAP11 POP PUSH1 0x40 DUP14 ADD MLOAD SWAP2 POP DUP1 DUP3 GT ISZERO PUSH3 0x1454 JUMPI DUP8 DUP9 REVERT JUMPDEST PUSH3 0x1462 DUP15 DUP4 DUP16 ADD PUSH3 0x1346 JUMP JUMPDEST SWAP10 POP PUSH1 0x60 DUP14 ADD MLOAD SWAP2 POP DUP1 DUP3 GT ISZERO PUSH3 0x1478 JUMPI DUP8 DUP9 REVERT JUMPDEST PUSH3 0x1486 DUP15 DUP4 DUP16 ADD PUSH3 0x1279 JUMP JUMPDEST SWAP9 POP PUSH1 0x80 DUP14 ADD MLOAD SWAP2 POP DUP1 DUP3 GT ISZERO PUSH3 0x149C JUMPI DUP8 DUP9 REVERT JUMPDEST PUSH3 0x14AA DUP15 DUP4 DUP16 ADD PUSH3 0x12E5 JUMP JUMPDEST SWAP8 POP PUSH1 0xA0 DUP14 ADD MLOAD SWAP2 POP DUP1 DUP3 GT ISZERO PUSH3 0x14C0 JUMPI DUP7 DUP8 REVERT JUMPDEST POP PUSH3 0x14CF DUP14 DUP3 DUP15 ADD PUSH3 0x11FA JUMP JUMPDEST SWAP6 POP POP PUSH1 0xC0 DUP12 ADD MLOAD SWAP4 POP PUSH1 0xE0 DUP12 ADD MLOAD SWAP3 POP PUSH2 0x100 DUP12 ADD MLOAD SWAP2 POP PUSH3 0x14F7 PUSH2 0x120 DUP13 ADD PUSH3 0x11ED JUMP JUMPDEST SWAP1 POP SWAP3 SWAP6 SWAP9 SWAP12 SWAP2 SWAP5 SWAP8 SWAP11 POP SWAP3 SWAP6 SWAP9 POP JUMP JUMPDEST PUSH1 0x0 PUSH1 0x20 DUP3 DUP5 SUB SLT ISZERO PUSH3 0x151A JUMPI DUP1 DUP2 REVERT JUMPDEST DUP2 MLOAD PUSH1 0xFF DUP2 AND DUP2 EQ PUSH3 0xF7C JUMPI DUP2 DUP3 REVERT JUMPDEST PUSH1 0x0 PUSH1 0x60 DUP3 ADD DUP6 DUP4 MSTORE PUSH1 0x20 PUSH1 0x60 DUP2 DUP6 ADD MSTORE DUP2 DUP7 MLOAD DUP1 DUP5 MSTORE PUSH1 0x80 DUP7 ADD SWAP2 POP DUP3 DUP9 ADD SWAP4 POP DUP5 JUMPDEST DUP2 DUP2 LT ISZERO PUSH3 0x1576 JUMPI DUP5 MLOAD PUSH1 0x1 PUSH1 0x1 PUSH1 0xA0 SHL SUB AND DUP4 MSTORE SWAP4 DUP4 ADD SWAP4 SWAP2 DUP4 ADD SWAP2 PUSH1 0x1 ADD PUSH3 0x154F JUMP JUMPDEST POP POP DUP5 DUP2 SUB PUSH1 0x40 DUP7 ADD MSTORE DUP6 MLOAD DUP1 DUP3 MSTORE SWAP1 DUP3 ADD SWAP3 POP DUP2 DUP7 ADD SWAP1 DUP5 JUMPDEST DUP2 DUP2 LT ISZERO PUSH3 0x15B7 JUMPI DUP3 MLOAD PUSH1 0x1 PUSH1 0x1 PUSH1 0xA0 SHL SUB AND DUP6 MSTORE SWAP4 DUP4 ADD SWAP4 SWAP2 DUP4 ADD SWAP2 PUSH1 0x1 ADD PUSH3 0x1590 JUMP JUMPDEST POP SWAP3 SWAP9 SWAP8 POP POP POP POP POP POP POP POP JUMP JUMPDEST PUSH1 0x20 DUP2 ADD PUSH1 0x3 DUP4 LT PUSH3 0x15D4 JUMPI INVALID JUMPDEST SWAP2 SWAP1 MSTORE SWAP1 JUMP JUMPDEST SWAP1 DUP2 MSTORE PUSH1 0x20 ADD SWAP1 JUMP JUMPDEST PUSH1 0x40 MLOAD DUP2 DUP2 ADD PUSH1 0x1 PUSH1 0x1 PUSH1 0x40 SHL SUB DUP2 GT DUP3 DUP3 LT OR ISZERO PUSH3 0x15FF JUMPI INVALID JUMPDEST PUSH1 0x40 MSTORE SWAP2 SWAP1 POP JUMP JUMPDEST PUSH1 0x0 PUSH1 0x1 PUSH1 0x1 PUSH1 0x40 SHL SUB DUP3 GT ISZERO PUSH3 0x161B JUMPI INVALID JUMPDEST POP PUSH1 0x20 SWAP1 DUP2 MUL ADD SWAP1 JUMP JUMPDEST PUSH1 0x1 PUSH1 0x1 PUSH1 0xA0 SHL SUB DUP2 AND DUP2 EQ PUSH3 0x1111 JUMPI PUSH1 0x0 DUP1 REVERT JUMPDEST PUSH1 0x80 MLOAD PUSH1 0xA0 MLOAD PUSH1 0x60 SHR PUSH1 0xC0 MLOAD PUSH1 0xE0 MLOAD PUSH2 0x100 MLOAD PUSH2 0x120 MLOAD PUSH2 0x140 MLOAD PUSH2 0x160 MLOAD PUSH2 0x180 MLOAD PUSH1 0x60 SHR PUSH2 0x1A0 MLOAD PUSH2 0x1C0 MLOAD PUSH2 0x1E0 MLOAD PUSH1 0x60 SHR PUSH2 0x200 MLOAD PUSH1 0x60 SHR PUSH2 0x220 MLOAD PUSH1 0x60 SHR PUSH2 0x240 MLOAD PUSH1 0x60 SHR PUSH2 0x260 MLOAD PUSH1 0x60 SHR PUSH2 0x280 MLOAD PUSH1 0x60 SHR PUSH2 0x2A0 MLOAD PUSH1 0x60 SHR PUSH2 0x2C0 MLOAD PUSH1 0x60 SHR PUSH2 0x2E0 MLOAD PUSH1 0x60 SHR PUSH2 0x300 MLOAD PUSH1 0x60 SHR PUSH2 0x320 MLOAD PUSH1 0x60 SHR PUSH2 0x340 MLOAD PUSH1 0x60 SHR PUSH2 0x360 MLOAD PUSH1 0x60 SHR PUSH2 0x380 MLOAD PUSH1 0x60 SHR PUSH2 0x3A0 MLOAD PUSH1 0x60 SHR PUSH2 0x3C0 MLOAD PUSH1 0x60 SHR PUSH2 0x3E0 MLOAD PUSH1 0x60 SHR PUSH2 0x400 MLOAD PUSH1 0x60 SHR PUSH2 0x420 MLOAD PUSH1 0x60 SHR PUSH2 0x440 MLOAD PUSH1 0x60 SHR PUSH2 0x460 MLOAD PUSH2 0x480 MLOAD PUSH2 0x4A0 MLOAD PUSH2 0x4C0 MLOAD PUSH2 0x4E0 MLOAD PUSH2 0x500 MLOAD PUSH2 0x520 MLOAD PUSH2 0x540 MLOAD PUSH2 0x560 MLOAD PUSH2 0x580 MLOAD PUSH2 0x5A0 MLOAD PUSH2 0x5C0 MLOAD PUSH2 0x5E0 MLOAD PUSH2 0x600 MLOAD PUSH2 0x620 MLOAD PUSH2 0x640 MLOAD PUSH2 0x660 MLOAD PUSH2 0x680 MLOAD PUSH2 0x6A0 MLOAD PUSH2 0x6C0 MLOAD PUSH2 0x6E0 MLOAD PUSH2 0x700 MLOAD PUSH2 0x720 MLOAD PUSH2 0x740 MLOAD PUSH2 0x760 MLOAD PUSH2 0x780 MLOAD PUSH2 0x7A0 MLOAD PUSH2 0x7C0 MLOAD PUSH2 0x7E0 MLOAD PUSH2 0x800 MLOAD PUSH2 0x820 MLOAD PUSH2 0x840 MLOAD PUSH2 0x860 MLOAD PUSH2 0x880 MLOAD PUSH2 0x8A0 MLOAD PUSH2 0x8C0 MLOAD PUSH2 0x8E0 MLOAD PUSH2 0x900 MLOAD PUSH2 0x920 MLOAD PUSH2 0x940 MLOAD PUSH2 0x960 MLOAD PUSH2 0x5909 PUSH3 0x1A87 PUSH1 0x0 CODECOPY DUP1 PUSH2 0x2C0E MSTORE DUP1 PUSH2 0x3902 MSTORE POP DUP1 PUSH2 0x2BCB MSTORE DUP1 PUSH2 0x38A1 MSTORE POP DUP1 PUSH2 0x2B88 MSTORE DUP1 PUSH2 0x3840 MSTORE POP DUP1 PUSH2 0x2B45 MSTORE DUP1 PUSH2 0x37DF MSTORE POP DUP1 PUSH2 0x2B02 MSTORE DUP1 PUSH2 0x377E MSTORE POP DUP1 PUSH2 0x2ABF MSTORE DUP1 PUSH2 0x371D MSTORE POP DUP1 PUSH2 0x2A7C MSTORE DUP1 PUSH2 0x36BC MSTORE POP DUP1 PUSH2 0x2A39 MSTORE DUP1 PUSH2 0x365B MSTORE POP DUP1 PUSH2 0x29F6 MSTORE DUP1 PUSH2 0x35FA MSTORE POP DUP1 PUSH2 0x29B3 MSTORE DUP1 PUSH2 0x3599 MSTORE POP DUP1 PUSH2 0x2970 MSTORE DUP1 PUSH2 0x3538 MSTORE POP DUP1 PUSH2 0x292D MSTORE DUP1 PUSH2 0x34D7 MSTORE POP DUP1 PUSH2 0x28EA MSTORE DUP1 PUSH2 0x3476 MSTORE POP DUP1 PUSH2 0x28A7 MSTORE DUP1 PUSH2 0x3415 MSTORE POP DUP1 PUSH2 0x2864 MSTORE DUP1 PUSH2 0x33B4 MSTORE POP DUP1 PUSH2 0x2821 MSTORE DUP1 PUSH2 0x3353 MSTORE POP DUP1 PUSH2 0x27DE MSTORE DUP1 PUSH2 0x32F2 MSTORE POP DUP1 PUSH2 0x279B MSTORE DUP1 PUSH2 0x3291 MSTORE POP DUP1 PUSH2 0x2758 MSTORE DUP1 PUSH2 0x3230 MSTORE POP DUP1 PUSH2 0x2715 MSTORE DUP1 PUSH2 0x31CF MSTORE POP DUP1 PUSH2 0x2562 MSTORE POP DUP1 PUSH2 0x14CB MSTORE DUP1 PUSH2 0x23D1 MSTORE POP DUP1 PUSH2 0x1488 MSTORE DUP1 PUSH2 0x2370 MSTORE POP DUP1 PUSH2 0x1445 MSTORE DUP1 PUSH2 0x230F MSTORE POP DUP1 PUSH2 0x1402 MSTORE DUP1 PUSH2 0x22AE MSTORE POP DUP1 PUSH2 0x13BF MSTORE DUP1 PUSH2 0x224D MSTORE POP DUP1 PUSH2 0x137C MSTORE DUP1 PUSH2 0x21EC MSTORE POP DUP1 PUSH2 0x1339 MSTORE DUP1 PUSH2 0x218B MSTORE POP DUP1 PUSH2 0x12F6 MSTORE DUP1 PUSH2 0x212A MSTORE POP DUP1 PUSH2 0x12B3 MSTORE DUP1 PUSH2 0x20C9 MSTORE POP DUP1 PUSH2 0x1270 MSTORE DUP1 PUSH2 0x2068 MSTORE POP DUP1 PUSH2 0x122D MSTORE DUP1 PUSH2 0x2007 MSTORE POP DUP1 PUSH2 0x11EA MSTORE DUP1 PUSH2 0x1FA6 MSTORE POP DUP1 PUSH2 0x11A7 MSTORE DUP1 PUSH2 0x1F45 MSTORE POP DUP1 PUSH2 0x1164 MSTORE DUP1 PUSH2 0x1EE4 MSTORE POP DUP1 PUSH2 0x1121 MSTORE DUP1 PUSH2 0x1E83 MSTORE POP DUP1 PUSH2 0x10DE MSTORE DUP1 PUSH2 0x1E22 MSTORE POP DUP1 PUSH2 0x109B MSTORE DUP1 PUSH2 0x1DC1 MSTORE POP DUP1 PUSH2 0x1058 MSTORE DUP1 PUSH2 0x1D60 MSTORE POP DUP1 PUSH2 0x1015 MSTORE DUP1 PUSH2 0x1CFF MSTORE POP DUP1 PUSH2 0xFC4 MSTORE DUP1 PUSH2 0x1C9E MSTORE POP DUP1 PUSH2 0x2396 MSTORE DUP1 PUSH2 0x38C7 MSTORE POP DUP1 PUSH2 0x2335 MSTORE DUP1 PUSH2 0x3866 MSTORE POP DUP1 PUSH2 0x22D4 MSTORE DUP1 PUSH2 0x3805 MSTORE POP DUP1 PUSH2 0x2273 MSTORE DUP1 PUSH2 0x37A4 MSTORE POP DUP1 PUSH2 0x2212 MSTORE DUP1 PUSH2 0x3743 MSTORE POP DUP1 PUSH2 0x21B1 MSTORE DUP1 PUSH2 0x36E2 MSTORE POP DUP1 PUSH2 0x2150 MSTORE DUP1 PUSH2 0x3681 MSTORE POP DUP1 PUSH2 0x20EF MSTORE DUP1 PUSH2 0x3620 MSTORE POP DUP1 PUSH2 0x208E MSTORE DUP1 PUSH2 0x35BF MSTORE POP DUP1 PUSH2 0x202D MSTORE DUP1 PUSH2 0x355E MSTORE POP DUP1 PUSH2 0x1FCC MSTORE DUP1 PUSH2 0x34FD MSTORE POP DUP1 PUSH2 0x1F6B MSTORE DUP1 PUSH2 0x349C MSTORE POP DUP1 PUSH2 0x1F0A MSTORE DUP1 PUSH2 0x343B MSTORE POP DUP1 PUSH2 0x1EA9 MSTORE DUP1 PUSH2 0x33DA MSTORE POP DUP1 PUSH2 0x1E48 MSTORE DUP1 PUSH2 0x3379 MSTORE POP DUP1 PUSH2 0x1DE7 MSTORE DUP1 PUSH2 0x3318 MSTORE POP DUP1 PUSH2 0x1D86 MSTORE DUP1 PUSH2 0x32B7 MSTORE POP DUP1 PUSH2 0x1D25 MSTORE DUP1 PUSH2 0x3256 MSTORE POP DUP1 PUSH2 0x1CC4 MSTORE DUP1 PUSH2 0x31F5 MSTORE POP DUP1 PUSH2 0x1C63 MSTORE DUP1 PUSH2 0x3194 MSTORE POP DUP1 PUSH2 0x1822 MSTORE POP DUP1 PUSH2 0x609 MSTORE POP DUP1 PUSH2 0x872 MSTORE POP DUP1 PUSH2 0xF47 MSTORE POP DUP1 PUSH2 0xF23 MSTORE POP DUP1 PUSH2 0xB30 MSTORE POP DUP1 PUSH2 0x15FB MSTORE POP DUP1 PUSH2 0x163D MSTORE POP DUP1 PUSH2 0x161C MSTORE POP DUP1 PUSH2 0x84E MSTORE POP DUP1 PUSH2 0x7D8 MSTORE POP PUSH2 0x5909 PUSH1 0x0 RETURN INVALID PUSH1 0x80 PUSH1 0x40 MSTORE CALLVALUE DUP1 ISZERO PUSH2 0x10 JUMPI PUSH1 0x0 DUP1 REVERT JUMPDEST POP PUSH1 0x4 CALLDATASIZE LT PUSH2 0x206 JUMPI PUSH1 0x0 CALLDATALOAD PUSH1 0xE0 SHR DUP1 PUSH4 0x74F3B009 GT PUSH2 0x11A JUMPI DUP1 PUSH4 0x9D2C110C GT PUSH2 0xAD JUMPI DUP1 PUSH4 0xC0FF1A15 GT PUSH2 0x7C JUMPI DUP1 PUSH4 0xC0FF1A15 EQ PUSH2 0x41C JUMPI DUP1 PUSH4 0xD505ACCF EQ PUSH2 0x424 JUMPI DUP1 PUSH4 0xD5C096C4 EQ PUSH2 0x437 JUMPI DUP1 PUSH4 0xDD62ED3E EQ PUSH2 0x44A JUMPI DUP1 PUSH4 0xF89F27ED EQ PUSH2 0x45D JUMPI PUSH2 0x206 JUMP JUMPDEST DUP1 PUSH4 0x9D2C110C EQ PUSH2 0x3DB JUMPI DUP1 PUSH4 0xA457C2D7 EQ PUSH2 0x3EE JUMPI DUP1 PUSH4 0xA9059CBB EQ PUSH2 0x401 JUMPI DUP1 PUSH4 0xAAABADC5 EQ PUSH2 0x414 JUMPI PUSH2 0x206 JUMP JUMPDEST DUP1 PUSH4 0x893D20E8 GT PUSH2 0xE9 JUMPI DUP1 PUSH4 0x893D20E8 EQ PUSH2 0x3AE JUMPI DUP1 PUSH4 0x8D928AF8 EQ PUSH2 0x3C3 JUMPI DUP1 PUSH4 0x95D89B41 EQ PUSH2 0x3CB JUMPI DUP1 PUSH4 0x9B02CDDE EQ PUSH2 0x3D3 JUMPI PUSH2 0x206 JUMP JUMPDEST DUP1 PUSH4 0x74F3B009 EQ PUSH2 0x354 JUMPI DUP1 PUSH4 0x7ECEBE00 EQ PUSH2 0x375 JUMPI DUP1 PUSH4 0x851C1BB3 EQ PUSH2 0x388 JUMPI DUP1 PUSH4 0x87EC6817 EQ PUSH2 0x39B JUMPI PUSH2 0x206 JUMP JUMPDEST DUP1 PUSH4 0x3644E515 GT PUSH2 0x19D JUMPI DUP1 PUSH4 0x50DD6ED9 GT PUSH2 0x16C JUMPI DUP1 PUSH4 0x50DD6ED9 EQ PUSH2 0x2FD JUMPI DUP1 PUSH4 0x55C67628 EQ PUSH2 0x310 JUMPI DUP1 PUSH4 0x6028BFD4 EQ PUSH2 0x318 JUMPI DUP1 PUSH4 0x679AEFCE EQ PUSH2 0x339 JUMPI DUP1 PUSH4 0x70A08231 EQ PUSH2 0x341 JUMPI PUSH2 0x206 JUMP JUMPDEST DUP1 PUSH4 0x3644E515 EQ PUSH2 0x2C7 JUMPI DUP1 PUSH4 0x38E9922E EQ PUSH2 0x2CF JUMPI DUP1 PUSH4 0x38FFF2D0 EQ PUSH2 0x2E2 JUMPI DUP1 PUSH4 0x39509351 EQ PUSH2 0x2EA JUMPI PUSH2 0x206 JUMP JUMPDEST DUP1 PUSH4 0x1C0DE051 GT PUSH2 0x1D9 JUMPI DUP1 PUSH4 0x1C0DE051 EQ PUSH2 0x273 JUMPI DUP1 PUSH4 0x1DD746EA EQ PUSH2 0x28A JUMPI DUP1 PUSH4 0x23B872DD EQ PUSH2 0x29F JUMPI DUP1 PUSH4 0x313CE567 EQ PUSH2 0x2B2 JUMPI PUSH2 0x206 JUMP JUMPDEST DUP1 PUSH4 0x6FDDE03 EQ PUSH2 0x20B JUMPI DUP1 PUSH4 0x95EA7B3 EQ PUSH2 0x229 JUMPI DUP1 PUSH4 0x16C38B3C EQ PUSH2 0x249 JUMPI DUP1 PUSH4 0x18160DDD EQ PUSH2 0x25E JUMPI JUMPDEST PUSH1 0x0 DUP1 REVERT JUMPDEST PUSH2 0x213 PUSH2 0x465 JUMP JUMPDEST PUSH1 0x40 MLOAD PUSH2 0x220 SWAP2 SWAP1 PUSH2 0x5829 JUMP JUMPDEST PUSH1 0x40 MLOAD DUP1 SWAP2 SUB SWAP1 RETURN JUMPDEST PUSH2 0x23C PUSH2 0x237 CALLDATASIZE PUSH1 0x4 PUSH2 0x510A JUMP JUMPDEST PUSH2 0x4FC JUMP JUMPDEST PUSH1 0x40 MLOAD PUSH2 0x220 SWAP2 SWAP1 PUSH2 0x5730 JUMP JUMPDEST PUSH2 0x25C PUSH2 0x257 CALLDATASIZE PUSH1 0x4 PUSH2 0x5200 JUMP JUMPDEST PUSH2 0x513 JUMP JUMPDEST STOP JUMPDEST PUSH2 0x266 PUSH2 0x527 JUMP JUMPDEST PUSH1 0x40 MLOAD PUSH2 0x220 SWAP2 SWAP1 PUSH2 0x5753 JUMP JUMPDEST PUSH2 0x27B PUSH2 0x52D JUMP JUMPDEST PUSH1 0x40 MLOAD PUSH2 0x220 SWAP4 SWAP3 SWAP2 SWAP1 PUSH2 0x573B JUMP JUMPDEST PUSH2 0x292 PUSH2 0x556 JUMP JUMPDEST PUSH1 0x40 MLOAD PUSH2 0x220 SWAP2 SWAP1 PUSH2 0x56F8 JUMP JUMPDEST PUSH2 0x23C PUSH2 0x2AD CALLDATASIZE PUSH1 0x4 PUSH2 0x5055 JUMP JUMPDEST PUSH2 0x565 JUMP JUMPDEST PUSH2 0x2BA PUSH2 0x5DB JUMP JUMPDEST PUSH1 0x40 MLOAD PUSH2 0x220 SWAP2 SWAP1 PUSH2 0x5855 JUMP JUMPDEST PUSH2 0x266 PUSH2 0x5E4 JUMP JUMPDEST PUSH2 0x25C PUSH2 0x2DD CALLDATASIZE PUSH1 0x4 PUSH2 0x55C4 JUMP JUMPDEST PUSH2 0x5EE JUMP JUMPDEST PUSH2 0x266 PUSH2 0x607 JUMP JUMPDEST PUSH2 0x23C PUSH2 0x2F8 CALLDATASIZE PUSH1 0x4 PUSH2 0x510A JUMP JUMPDEST PUSH2 0x62B JUMP JUMPDEST PUSH2 0x25C PUSH2 0x30B CALLDATASIZE PUSH1 0x4 PUSH2 0x5378 JUMP JUMPDEST PUSH2 0x666 JUMP JUMPDEST PUSH2 0x266 PUSH2 0x684 JUMP JUMPDEST PUSH2 0x32B PUSH2 0x326 CALLDATASIZE PUSH1 0x4 PUSH2 0x5238 JUMP JUMPDEST PUSH2 0x695 JUMP JUMPDEST PUSH1 0x40 MLOAD PUSH2 0x220 SWAP3 SWAP2 SWAP1 PUSH2 0x583C JUMP JUMPDEST PUSH2 0x266 PUSH2 0x6CC JUMP JUMPDEST PUSH2 0x266 PUSH2 0x34F CALLDATASIZE PUSH1 0x4 PUSH2 0x5001 JUMP JUMPDEST PUSH2 0x6F7 JUMP JUMPDEST PUSH2 0x367 PUSH2 0x362 CALLDATASIZE PUSH1 0x4 PUSH2 0x5238 JUMP JUMPDEST PUSH2 0x716 JUMP JUMPDEST PUSH1 0x40 MLOAD PUSH2 0x220 SWAP3 SWAP2 SWAP1 PUSH2 0x570B JUMP JUMPDEST PUSH2 0x266 PUSH2 0x383 CALLDATASIZE PUSH1 0x4 PUSH2 0x5001 JUMP JUMPDEST PUSH2 0x7B9 JUMP JUMPDEST PUSH2 0x266 PUSH2 0x396 CALLDATASIZE PUSH1 0x4 PUSH2 0x5334 JUMP JUMPDEST PUSH2 0x7D4 JUMP JUMPDEST PUSH2 0x32B PUSH2 0x3A9 CALLDATASIZE PUSH1 0x4 PUSH2 0x5238 JUMP JUMPDEST PUSH2 0x826 JUMP JUMPDEST PUSH2 0x3B6 PUSH2 0x84C JUMP JUMPDEST PUSH1 0x40 MLOAD PUSH2 0x220 SWAP2 SWAP1 PUSH2 0x56E4 JUMP JUMPDEST PUSH2 0x3B6 PUSH2 0x870 JUMP JUMPDEST PUSH2 0x213 PUSH2 0x894 JUMP JUMPDEST PUSH2 0x266 PUSH2 0x8F5 JUMP JUMPDEST PUSH2 0x266 PUSH2 0x3E9 CALLDATASIZE PUSH1 0x4 PUSH2 0x54CE JUMP JUMPDEST PUSH2 0x8FB JUMP JUMPDEST PUSH2 0x23C PUSH2 0x3FC CALLDATASIZE PUSH1 0x4 PUSH2 0x510A JUMP JUMPDEST PUSH2 0x9E2 JUMP JUMPDEST PUSH2 0x23C PUSH2 0x40F CALLDATASIZE PUSH1 0x4 PUSH2 0x510A JUMP JUMPDEST PUSH2 0xA20 JUMP JUMPDEST PUSH2 0x3B6 PUSH2 0xA2D JUMP JUMPDEST PUSH2 0x266 PUSH2 0xA37 JUMP JUMPDEST PUSH2 0x25C PUSH2 0x432 CALLDATASIZE PUSH1 0x4 PUSH2 0x5095 JUMP JUMPDEST PUSH2 0xAFB JUMP JUMPDEST PUSH2 0x367 PUSH2 0x445 CALLDATASIZE PUSH1 0x4 PUSH2 0x5238 JUMP JUMPDEST PUSH2 0xC44 JUMP JUMPDEST PUSH2 0x266 PUSH2 0x458 CALLDATASIZE PUSH1 0x4 PUSH2 0x501D JUMP JUMPDEST PUSH2 0xD67 JUMP JUMPDEST PUSH2 0x292 PUSH2 0xD92 JUMP JUMPDEST PUSH1 0x3 DUP1 SLOAD PUSH1 0x40 DUP1 MLOAD PUSH1 0x20 PUSH1 0x1F PUSH1 0x2 PUSH1 0x0 NOT PUSH2 0x100 PUSH1 0x1 DUP9 AND ISZERO MUL ADD SWAP1 SWAP6 AND SWAP5 SWAP1 SWAP5 DIV SWAP4 DUP5 ADD DUP2 SWAP1 DIV DUP2 MUL DUP3 ADD DUP2 ADD SWAP1 SWAP3 MSTORE DUP3 DUP2 MSTORE PUSH1 0x60 SWAP4 SWAP1 SWAP3 SWAP1 SWAP2 DUP4 ADD DUP3 DUP3 DUP1 ISZERO PUSH2 0x4F1 JUMPI DUP1 PUSH1 0x1F LT PUSH2 0x4C6 JUMPI PUSH2 0x100 DUP1 DUP4 SLOAD DIV MUL DUP4 MSTORE SWAP2 PUSH1 0x20 ADD SWAP2 PUSH2 0x4F1 JUMP JUMPDEST DUP3 ADD SWAP2 SWAP1 PUSH1 0x0 MSTORE PUSH1 0x20 PUSH1 0x0 KECCAK256 SWAP1 JUMPDEST DUP2 SLOAD DUP2 MSTORE SWAP1 PUSH1 0x1 ADD SWAP1 PUSH1 0x20 ADD DUP1 DUP4 GT PUSH2 0x4D4 JUMPI DUP3 SWAP1 SUB PUSH1 0x1F AND DUP3 ADD SWAP2 JUMPDEST POP POP POP POP POP SWAP1 POP JUMPDEST SWAP1 JUMP JUMPDEST PUSH1 0x0 PUSH2 0x509 CALLER DUP5 DUP5 PUSH2 0xDF0 JUMP JUMPDEST POP PUSH1 0x1 JUMPDEST SWAP3 SWAP2 POP POP JUMP JUMPDEST PUSH2 0x51B PUSH2 0xE58 JUMP JUMPDEST PUSH2 0x524 DUP2 PUSH2 0xE86 JUMP JUMPDEST POP JUMP JUMPDEST PUSH1 0x2 SLOAD SWAP1 JUMP JUMPDEST PUSH1 0x0 DUP1 PUSH1 0x0 PUSH2 0x53A PUSH2 0xF04 JUMP JUMPDEST ISZERO SWAP3 POP PUSH2 0x545 PUSH2 0xF21 JUMP JUMPDEST SWAP2 POP PUSH2 0x54F PUSH2 0xF45 JUMP JUMPDEST SWAP1 POP SWAP1 SWAP2 SWAP3 JUMP JUMPDEST PUSH1 0x60 PUSH2 0x560 PUSH2 0xF69 JUMP JUMPDEST SWAP1 POP SWAP1 JUMP JUMPDEST PUSH1 0x0 DUP1 PUSH2 0x572 DUP6 CALLER PUSH2 0xD67 JUMP JUMPDEST SWAP1 POP PUSH2 0x596 CALLER PUSH1 0x1 PUSH1 0x1 PUSH1 0xA0 SHL SUB DUP8 AND EQ DUP1 PUSH2 0x58E JUMPI POP DUP4 DUP3 LT ISZERO JUMPDEST PUSH2 0x19E PUSH2 0x1509 JUMP JUMPDEST PUSH2 0x5A1 DUP6 DUP6 DUP6 PUSH2 0x1517 JUMP JUMPDEST CALLER PUSH1 0x1 PUSH1 0x1 PUSH1 0xA0 SHL SUB DUP7 AND EQ DUP1 ISZERO SWAP1 PUSH2 0x5BC JUMPI POP PUSH1 0x0 NOT DUP2 EQ ISZERO JUMPDEST ISZERO PUSH2 0x5CE JUMPI PUSH2 0x5CE DUP6 CALLER DUP6 DUP5 SUB PUSH2 0xDF0 JUMP JUMPDEST PUSH1 0x1 SWAP2 POP POP JUMPDEST SWAP4 SWAP3 POP POP POP JUMP JUMPDEST PUSH1 0x5 SLOAD PUSH1 0xFF AND SWAP1 JUMP JUMPDEST PUSH1 0x0 PUSH2 0x560 PUSH2 0x15F7 JUMP JUMPDEST PUSH2 0x5F6 PUSH2 0xE58 JUMP JUMPDEST PUSH2 0x5FE PUSH2 0x1694 JUMP JUMPDEST PUSH2 0x524 DUP2 PUSH2 0x16A9 JUMP JUMPDEST PUSH32 0x0 SWAP1 JUMP JUMPDEST CALLER PUSH1 0x0 DUP2 DUP2 MSTORE PUSH1 0x1 PUSH1 0x20 SWAP1 DUP2 MSTORE PUSH1 0x40 DUP1 DUP4 KECCAK256 PUSH1 0x1 PUSH1 0x1 PUSH1 0xA0 SHL SUB DUP8 AND DUP5 MSTORE SWAP1 SWAP2 MSTORE DUP2 KECCAK256 SLOAD SWAP1 SWAP2 PUSH2 0x509 SWAP2 DUP6 SWAP1 PUSH2 0x661 SWAP1 DUP7 PUSH2 0xDB3 JUMP JUMPDEST PUSH2 0xDF0 JUMP JUMPDEST PUSH2 0x66E PUSH2 0xE58 JUMP JUMPDEST PUSH2 0x676 PUSH2 0x1694 JUMP JUMPDEST PUSH2 0x680 DUP3 DUP3 PUSH2 0x1714 JUMP JUMPDEST POP POP JUMP JUMPDEST PUSH1 0x8 SLOAD PUSH1 0x0 SWAP1 PUSH2 0x560 SWAP1 PUSH1 0xC0 PUSH2 0x1813 JUMP JUMPDEST PUSH1 0x0 PUSH1 0x60 PUSH2 0x6AB DUP7 MLOAD PUSH2 0x6A6 PUSH2 0x1820 JUMP JUMPDEST PUSH2 0xDA6 JUMP JUMPDEST PUSH2 0x6C0 DUP10 DUP10 DUP10 DUP10 DUP10 DUP10 DUP10 PUSH2 0x1844 PUSH2 0x1912 PUSH2 0x1978 JUMP JUMPDEST SWAP8 POP SWAP8 SWAP6 POP POP POP POP POP POP JUMP JUMPDEST PUSH1 0x0 PUSH2 0x560 PUSH2 0x6D9 PUSH2 0x527 JUMP JUMPDEST PUSH2 0x6F1 PUSH2 0x6E4 PUSH2 0xA37 JUMP JUMPDEST PUSH2 0x6EC PUSH2 0x1820 JUMP JUMPDEST PUSH2 0x1A9A JUMP JUMPDEST SWAP1 PUSH2 0x1ABE JUMP JUMPDEST PUSH1 0x1 PUSH1 0x1 PUSH1 0xA0 SHL SUB DUP2 AND PUSH1 0x0 SWAP1 DUP2 MSTORE PUSH1 0x20 DUP2 SWAP1 MSTORE PUSH1 0x40 SWAP1 KECCAK256 SLOAD JUMPDEST SWAP2 SWAP1 POP JUMP JUMPDEST PUSH1 0x60 DUP1 DUP9 PUSH2 0x740 PUSH2 0x725 PUSH2 0x870 JUMP JUMPDEST PUSH1 0x1 PUSH1 0x1 PUSH1 0xA0 SHL SUB AND CALLER PUSH1 0x1 PUSH1 0x1 PUSH1 0xA0 SHL SUB AND EQ PUSH1 0xCD PUSH2 0x1509 JUMP JUMPDEST PUSH2 0x755 PUSH2 0x74B PUSH2 0x607 JUMP JUMPDEST DUP3 EQ PUSH2 0x1F4 PUSH2 0x1509 JUMP JUMPDEST PUSH1 0x0 PUSH2 0x75F PUSH2 0xF69 JUMP JUMPDEST SWAP1 POP PUSH2 0x76B DUP9 DUP3 PUSH2 0x1B0F JUMP JUMPDEST PUSH1 0x0 DUP1 PUSH1 0x0 PUSH2 0x780 DUP15 DUP15 DUP15 DUP15 DUP15 DUP15 DUP11 DUP16 PUSH2 0x1844 JUMP JUMPDEST SWAP3 POP SWAP3 POP SWAP3 POP PUSH2 0x790 DUP14 DUP5 PUSH2 0x1B70 JUMP JUMPDEST PUSH2 0x79A DUP3 DUP6 PUSH2 0x1912 JUMP JUMPDEST PUSH2 0x7A4 DUP2 DUP6 PUSH2 0x1912 JUMP JUMPDEST SWAP1 SWAP6 POP SWAP4 POP POP POP JUMPDEST POP SWAP8 POP SWAP8 SWAP6 POP POP POP POP POP POP JUMP JUMPDEST PUSH1 0x1 PUSH1 0x1 PUSH1 0xA0 SHL SUB AND PUSH1 0x0 SWAP1 DUP2 MSTORE PUSH1 0x6 PUSH1 0x20 MSTORE PUSH1 0x40 SWAP1 KECCAK256 SLOAD SWAP1 JUMP JUMPDEST PUSH1 0x0 PUSH32 0x0 DUP3 PUSH1 0x40 MLOAD PUSH1 0x20 ADD PUSH2 0x809 SWAP3 SWAP2 SWAP1 PUSH2 0x56A1 JUMP JUMPDEST PUSH1 0x40 MLOAD PUSH1 0x20 DUP2 DUP4 SUB SUB DUP2 MSTORE SWAP1 PUSH1 0x40 MSTORE DUP1 MLOAD SWAP1 PUSH1 0x20 ADD KECCAK256 SWAP1 POP SWAP2 SWAP1 POP JUMP JUMPDEST PUSH1 0x0 PUSH1 0x60 PUSH2 0x837 DUP7 MLOAD PUSH2 0x6A6 PUSH2 0x1820 JUMP JUMPDEST PUSH2 0x6C0 DUP10 DUP10 DUP10 DUP10 DUP10 DUP10 DUP10 PUSH2 0x1B7A PUSH2 0x1BFE PUSH2 0x1978 JUMP JUMPDEST PUSH32 0x0 SWAP1 JUMP JUMPDEST PUSH32 0x0 SWAP1 JUMP JUMPDEST PUSH1 0x4 DUP1 SLOAD PUSH1 0x40 DUP1 MLOAD PUSH1 0x20 PUSH1 0x1F PUSH1 0x2 PUSH1 0x0 NOT PUSH2 0x100 PUSH1 0x1 DUP9 AND ISZERO MUL ADD SWAP1 SWAP6 AND SWAP5 SWAP1 SWAP5 DIV SWAP4 DUP5 ADD DUP2 SWAP1 DIV DUP2 MUL DUP3 ADD DUP2 ADD SWAP1 SWAP3 MSTORE DUP3 DUP2 MSTORE PUSH1 0x60 SWAP4 SWAP1 SWAP3 SWAP1 SWAP2 DUP4 ADD DUP3 DUP3 DUP1 ISZERO PUSH2 0x4F1 JUMPI DUP1 PUSH1 0x1F LT PUSH2 0x4C6 JUMPI PUSH2 0x100 DUP1 DUP4 SLOAD DIV MUL DUP4 MSTORE SWAP2 PUSH1 0x20 ADD SWAP2 PUSH2 0x4F1 JUMP JUMPDEST PUSH1 0x9 SLOAD SWAP1 JUMP JUMPDEST PUSH1 0x0 DUP1 PUSH2 0x90B DUP6 PUSH1 0x20 ADD MLOAD PUSH2 0x1C5F JUMP JUMPDEST SWAP1 POP PUSH1 0x0 PUSH2 0x91C DUP7 PUSH1 0x40 ADD MLOAD PUSH2 0x1C5F JUMP JUMPDEST SWAP1 POP PUSH1 0x0 DUP7 MLOAD PUSH1 0x1 DUP2 GT ISZERO PUSH2 0x92D JUMPI INVALID JUMPDEST EQ ISZERO PUSH2 0x993 JUMPI PUSH2 0x940 DUP7 PUSH1 0x60 ADD MLOAD PUSH2 0x2400 JUMP JUMPDEST PUSH1 0x60 DUP8 ADD MSTORE PUSH2 0x94F DUP6 DUP4 PUSH2 0x2421 JUMP JUMPDEST SWAP5 POP PUSH2 0x95B DUP5 DUP3 PUSH2 0x2421 JUMP JUMPDEST SWAP4 POP PUSH2 0x96B DUP7 PUSH1 0x60 ADD MLOAD DUP4 PUSH2 0x2421 JUMP JUMPDEST PUSH1 0x60 DUP8 ADD MSTORE PUSH1 0x0 PUSH2 0x97D DUP8 DUP8 DUP8 PUSH2 0x242D JUMP JUMPDEST SWAP1 POP PUSH2 0x989 DUP2 DUP4 PUSH2 0x2468 JUMP JUMPDEST SWAP4 POP POP POP POP PUSH2 0x5D4 JUMP JUMPDEST PUSH2 0x99D DUP6 DUP4 PUSH2 0x2421 JUMP JUMPDEST SWAP5 POP PUSH2 0x9A9 DUP5 DUP3 PUSH2 0x2421 JUMP JUMPDEST SWAP4 POP PUSH2 0x9B9 DUP7 PUSH1 0x60 ADD MLOAD DUP3 PUSH2 0x2421 JUMP JUMPDEST PUSH1 0x60 DUP8 ADD MSTORE PUSH1 0x0 PUSH2 0x9CB DUP8 DUP8 DUP8 PUSH2 0x2474 JUMP JUMPDEST SWAP1 POP PUSH2 0x9D7 DUP2 DUP5 PUSH2 0x24A7 JUMP JUMPDEST SWAP1 POP PUSH2 0x989 DUP2 PUSH2 0x24B3 JUMP JUMPDEST PUSH1 0x0 DUP1 PUSH2 0x9EF CALLER DUP6 PUSH2 0xD67 JUMP JUMPDEST SWAP1 POP DUP1 DUP4 LT PUSH2 0xA09 JUMPI PUSH2 0xA04 CALLER DUP6 PUSH1 0x0 PUSH2 0xDF0 JUMP JUMPDEST PUSH2 0xA16 JUMP JUMPDEST PUSH2 0xA16 CALLER DUP6 DUP6 DUP5 SUB PUSH2 0xDF0 JUMP JUMPDEST POP PUSH1 0x1 SWAP4 SWAP3 POP POP POP JUMP JUMPDEST PUSH1 0x0 PUSH2 0x509 CALLER DUP5 DUP5 PUSH2 0x1517 JUMP JUMPDEST PUSH1 0x0 PUSH2 0x560 PUSH2 0x24D9 JUMP JUMPDEST PUSH1 0x0 DUP1 PUSH2 0xA42 PUSH2 0x870 JUMP JUMPDEST PUSH1 0x1 PUSH1 0x1 PUSH1 0xA0 SHL SUB AND PUSH4 0xF94D4668 PUSH2 0xA58 PUSH2 0x607 JUMP JUMPDEST PUSH1 0x40 MLOAD DUP3 PUSH4 0xFFFFFFFF AND PUSH1 0xE0 SHL DUP2 MSTORE PUSH1 0x4 ADD PUSH2 0xA74 SWAP2 SWAP1 PUSH2 0x5753 JUMP JUMPDEST PUSH1 0x0 PUSH1 0x40 MLOAD DUP1 DUP4 SUB DUP2 DUP7 DUP1 EXTCODESIZE ISZERO DUP1 ISZERO PUSH2 0xA8C JUMPI PUSH1 0x0 DUP1 REVERT JUMPDEST POP GAS STATICCALL ISZERO DUP1 ISZERO PUSH2 0xAA0 JUMPI RETURNDATASIZE PUSH1 0x0 DUP1 RETURNDATACOPY RETURNDATASIZE PUSH1 0x0 REVERT JUMPDEST POP POP POP POP PUSH1 0x40 MLOAD RETURNDATASIZE PUSH1 0x0 DUP3 RETURNDATACOPY PUSH1 0x1F RETURNDATASIZE SWAP1 DUP2 ADD PUSH1 0x1F NOT AND DUP3 ADD PUSH1 0x40 MSTORE PUSH2 0xAC8 SWAP2 SWAP1 DUP2 ADD SWAP1 PUSH2 0x5135 JUMP JUMPDEST POP SWAP2 POP POP PUSH2 0xADD DUP2 PUSH2 0xAD8 PUSH2 0xF69 JUMP JUMPDEST PUSH2 0x1B0F JUMP JUMPDEST PUSH1 0x0 PUSH2 0xAE7 PUSH2 0x2553 JUMP JUMPDEST POP SWAP1 POP PUSH2 0xAF4 DUP2 DUP4 PUSH2 0x2587 JUMP JUMPDEST SWAP3 POP POP POP SWAP1 JUMP JUMPDEST PUSH2 0xB09 DUP5 TIMESTAMP GT ISZERO PUSH1 0xD1 PUSH2 0x1509 JUMP JUMPDEST PUSH1 0x1 PUSH1 0x1 PUSH1 0xA0 SHL SUB DUP8 AND PUSH1 0x0 SWAP1 DUP2 MSTORE PUSH1 0x6 PUSH1 0x20 SWAP1 DUP2 MSTORE PUSH1 0x40 DUP1 DUP4 KECCAK256 SLOAD SWAP1 MLOAD SWAP1 SWAP3 SWAP2 PUSH2 0xB60 SWAP2 PUSH32 0x0 SWAP2 DUP13 SWAP2 DUP13 SWAP2 DUP13 SWAP2 DUP9 SWAP2 DUP14 SWAP2 ADD PUSH2 0x577B JUMP JUMPDEST PUSH1 0x40 MLOAD PUSH1 0x20 DUP2 DUP4 SUB SUB DUP2 MSTORE SWAP1 PUSH1 0x40 MSTORE DUP1 MLOAD SWAP1 PUSH1 0x20 ADD KECCAK256 SWAP1 POP PUSH1 0x0 PUSH2 0xB83 DUP3 PUSH2 0x25F9 JUMP JUMPDEST SWAP1 POP PUSH1 0x0 PUSH1 0x1 DUP3 DUP9 DUP9 DUP9 PUSH1 0x40 MLOAD PUSH1 0x0 DUP2 MSTORE PUSH1 0x20 ADD PUSH1 0x40 MSTORE PUSH1 0x40 MLOAD PUSH2 0xBAA SWAP5 SWAP4 SWAP3 SWAP2 SWAP1 PUSH2 0x580B JUMP JUMPDEST PUSH1 0x20 PUSH1 0x40 MLOAD PUSH1 0x20 DUP2 SUB SWAP1 DUP1 DUP5 SUB SWAP1 DUP6 GAS STATICCALL ISZERO DUP1 ISZERO PUSH2 0xBCC JUMPI RETURNDATASIZE PUSH1 0x0 DUP1 RETURNDATACOPY RETURNDATASIZE PUSH1 0x0 REVERT JUMPDEST POP POP PUSH1 0x40 MLOAD PUSH1 0x1F NOT ADD MLOAD SWAP2 POP PUSH2 0xC0E SWAP1 POP PUSH1 0x1 PUSH1 0x1 PUSH1 0xA0 SHL SUB DUP3 AND ISZERO DUP1 ISZERO SWAP1 PUSH2 0xC06 JUMPI POP DUP12 PUSH1 0x1 PUSH1 0x1 PUSH1 0xA0 SHL SUB AND DUP3 PUSH1 0x1 PUSH1 0x1 PUSH1 0xA0 SHL SUB AND EQ JUMPDEST PUSH2 0x1F8 PUSH2 0x1509 JUMP JUMPDEST PUSH1 0x1 PUSH1 0x1 PUSH1 0xA0 SHL SUB DUP12 AND PUSH1 0x0 SWAP1 DUP2 MSTORE PUSH1 0x6 PUSH1 0x20 MSTORE PUSH1 0x40 SWAP1 KECCAK256 PUSH1 0x1 DUP6 ADD SWAP1 SSTORE PUSH2 0xC37 DUP12 DUP12 DUP12 PUSH2 0xDF0 JUMP JUMPDEST POP POP POP POP POP POP POP POP POP POP POP JUMP JUMPDEST PUSH1 0x60 DUP1 DUP9 PUSH2 0xC53 PUSH2 0x725 PUSH2 0x870 JUMP JUMPDEST PUSH2 0xC5E PUSH2 0x74B PUSH2 0x607 JUMP JUMPDEST PUSH1 0x0 PUSH2 0xC68 PUSH2 0xF69 JUMP JUMPDEST SWAP1 POP PUSH2 0xC72 PUSH2 0x527 JUMP JUMPDEST PUSH2 0xD17 JUMPI PUSH1 0x0 DUP1 PUSH2 0xC86 DUP14 DUP14 DUP14 DUP7 DUP12 PUSH2 0x2615 JUMP JUMPDEST SWAP2 POP SWAP2 POP PUSH2 0xC9B PUSH3 0xF4240 DUP4 LT ISZERO PUSH1 0xCC PUSH2 0x1509 JUMP JUMPDEST PUSH2 0xCA9 PUSH1 0x0 PUSH3 0xF4240 PUSH2 0x26B0 JUMP JUMPDEST PUSH2 0xCB8 DUP12 PUSH3 0xF4240 DUP5 SUB PUSH2 0x26B0 JUMP JUMPDEST PUSH2 0xCC2 DUP2 DUP5 PUSH2 0x1BFE JUMP JUMPDEST DUP1 PUSH2 0xCCB PUSH2 0x1820 JUMP JUMPDEST PUSH1 0x1 PUSH1 0x1 PUSH1 0x40 SHL SUB DUP2 GT DUP1 ISZERO PUSH2 0xCE0 JUMPI PUSH1 0x0 DUP1 REVERT JUMPDEST POP PUSH1 0x40 MLOAD SWAP1 DUP1 DUP3 MSTORE DUP1 PUSH1 0x20 MUL PUSH1 0x20 ADD DUP3 ADD PUSH1 0x40 MSTORE DUP1 ISZERO PUSH2 0xD0A JUMPI DUP2 PUSH1 0x20 ADD PUSH1 0x20 DUP3 MUL DUP1 CALLDATASIZE DUP4 CALLDATACOPY ADD SWAP1 POP JUMPDEST POP SWAP6 POP SWAP6 POP POP POP POP PUSH2 0x7AC JUMP JUMPDEST PUSH2 0xD21 DUP9 DUP3 PUSH2 0x1B0F JUMP JUMPDEST PUSH1 0x0 DUP1 PUSH1 0x0 PUSH2 0xD36 DUP15 DUP15 DUP15 DUP15 DUP15 DUP15 DUP11 DUP16 PUSH2 0x1B7A JUMP JUMPDEST SWAP3 POP SWAP3 POP SWAP3 POP PUSH2 0xD46 DUP13 DUP5 PUSH2 0x26B0 JUMP JUMPDEST PUSH2 0xD50 DUP3 DUP6 PUSH2 0x1BFE JUMP JUMPDEST PUSH2 0xD5A DUP2 DUP6 PUSH2 0x1912 JUMP JUMPDEST SWAP1 SWAP6 POP SWAP4 POP PUSH2 0x7AC SWAP2 POP POP JUMP JUMPDEST PUSH1 0x1 PUSH1 0x1 PUSH1 0xA0 SHL SUB SWAP2 DUP3 AND PUSH1 0x0 SWAP1 DUP2 MSTORE PUSH1 0x1 PUSH1 0x20 SWAP1 DUP2 MSTORE PUSH1 0x40 DUP1 DUP4 KECCAK256 SWAP4 SWAP1 SWAP5 AND DUP3 MSTORE SWAP2 SWAP1 SWAP2 MSTORE KECCAK256 SLOAD SWAP1 JUMP JUMPDEST PUSH1 0x60 PUSH2 0x560 PUSH2 0x26BA JUMP JUMPDEST DUP1 PUSH2 0x680 DUP2 PUSH2 0x2C3A JUMP JUMPDEST PUSH2 0x680 DUP2 DUP4 EQ PUSH1 0x67 PUSH2 0x1509 JUMP JUMPDEST PUSH1 0x0 DUP3 DUP3 ADD PUSH2 0x5D4 DUP5 DUP3 LT ISZERO DUP4 PUSH2 0x1509 JUMP JUMPDEST PUSH1 0x1 PUSH1 0x1 PUSH1 0x40 SHL SUB DUP2 SHL NOT SWAP3 SWAP1 SWAP3 AND SWAP2 SHL OR SWAP1 JUMP JUMPDEST PUSH1 0x0 PUSH2 0xDEA DUP4 DUP4 GT ISZERO PUSH1 0x1 PUSH2 0x1509 JUMP JUMPDEST POP SWAP1 SUB SWAP1 JUMP JUMPDEST PUSH1 0x1 PUSH1 0x1 PUSH1 0xA0 SHL SUB DUP1 DUP5 AND PUSH1 0x0 DUP2 DUP2 MSTORE PUSH1 0x1 PUSH1 0x20 SWAP1 DUP2 MSTORE PUSH1 0x40 DUP1 DUP4 KECCAK256 SWAP5 DUP8 AND DUP1 DUP5 MSTORE SWAP5 SWAP1 SWAP2 MSTORE SWAP1 DUP2 SWAP1 KECCAK256 DUP5 SWAP1 SSTORE MLOAD PUSH32 0x8C5BE1E5EBEC7D5BD14F71427D1E84F3DD0314C0F7B2291E5B200AC8C7C3B925 SWAP1 PUSH2 0xE4B SWAP1 DUP6 SWAP1 PUSH2 0x5753 JUMP JUMPDEST PUSH1 0x40 MLOAD DUP1 SWAP2 SUB SWAP1 LOG3 POP POP POP JUMP JUMPDEST PUSH1 0x0 PUSH2 0xE6F PUSH1 0x0 CALLDATALOAD PUSH1 0x1 PUSH1 0x1 PUSH1 0xE0 SHL SUB NOT AND PUSH2 0x7D4 JUMP JUMPDEST SWAP1 POP PUSH2 0x524 PUSH2 0xE7E DUP3 CALLER PUSH2 0x2CB3 JUMP JUMPDEST PUSH2 0x191 PUSH2 0x1509 JUMP JUMPDEST DUP1 ISZERO PUSH2 0xEA6 JUMPI PUSH2 0xEA1 PUSH2 0xE97 PUSH2 0xF21 JUMP JUMPDEST TIMESTAMP LT PUSH2 0x193 PUSH2 0x1509 JUMP JUMPDEST PUSH2 0xEBB JUMP JUMPDEST PUSH2 0xEBB PUSH2 0xEB1 PUSH2 0xF45 JUMP JUMPDEST TIMESTAMP LT PUSH2 0x1A9 PUSH2 0x1509 JUMP JUMPDEST PUSH1 0x7 DUP1 SLOAD PUSH1 0xFF NOT AND DUP3 ISZERO ISZERO OR SWAP1 SSTORE PUSH1 0x40 MLOAD PUSH32 0x9E3A5E37224532DEA67B89FACE185703738A228A6E8A23DEE546960180D3BE64 SWAP1 PUSH2 0xEF9 SWAP1 DUP4 SWAP1 PUSH2 0x5730 JUMP JUMPDEST PUSH1 0x40 MLOAD DUP1 SWAP2 SUB SWAP1 LOG1 POP JUMP JUMPDEST PUSH1 0x0 PUSH2 0xF0E PUSH2 0xF45 JUMP JUMPDEST TIMESTAMP GT DUP1 PUSH2 0x560 JUMPI POP POP PUSH1 0x7 SLOAD PUSH1 0xFF AND ISZERO SWAP1 JUMP JUMPDEST PUSH32 0x0 SWAP1 JUMP JUMPDEST PUSH32 0x0 SWAP1 JUMP JUMPDEST PUSH1 0x60 PUSH1 0x0 PUSH2 0xF75 PUSH2 0x1820 JUMP JUMPDEST SWAP1 POP PUSH1 0x0 DUP2 PUSH1 0x1 PUSH1 0x1 PUSH1 0x40 SHL SUB DUP2 GT DUP1 ISZERO PUSH2 0xF8F JUMPI PUSH1 0x0 DUP1 REVERT JUMPDEST POP PUSH1 0x40 MLOAD SWAP1 DUP1 DUP3 MSTORE DUP1 PUSH1 0x20 MUL PUSH1 0x20 ADD DUP3 ADD PUSH1 0x40 MSTORE DUP1 ISZERO PUSH2 0xFB9 JUMPI DUP2 PUSH1 0x20 ADD PUSH1 0x20 DUP3 MUL DUP1 CALLDATASIZE DUP4 CALLDATACOPY ADD SWAP1 POP JUMPDEST POP SWAP1 POP DUP2 ISZERO PUSH2 0x1001 JUMPI PUSH32 0x0 DUP2 PUSH1 0x0 DUP2 MLOAD DUP2 LT PUSH2 0xFF0 JUMPI INVALID JUMPDEST PUSH1 0x20 MUL PUSH1 0x20 ADD ADD DUP2 DUP2 MSTORE POP POP PUSH2 0x100A JUMP JUMPDEST SWAP2 POP PUSH2 0x4F9 SWAP1 POP JUMP JUMPDEST PUSH1 0x1 DUP3 GT ISZERO PUSH2 0x1001 JUMPI PUSH32 0x0 DUP2 PUSH1 0x1 DUP2 MLOAD DUP2 LT PUSH2 0x1041 JUMPI INVALID JUMPDEST PUSH1 0x20 MUL PUSH1 0x20 ADD ADD DUP2 DUP2 MSTORE POP POP PUSH1 0x2 DUP3 GT ISZERO PUSH2 0x1001 JUMPI PUSH32 0x0 DUP2 PUSH1 0x2 DUP2 MLOAD DUP2 LT PUSH2 0x1084 JUMPI INVALID JUMPDEST PUSH1 0x20 MUL PUSH1 0x20 ADD ADD DUP2 DUP2 MSTORE POP POP PUSH1 0x3 DUP3 GT ISZERO PUSH2 0x1001 JUMPI PUSH32 0x0 DUP2 PUSH1 0x3 DUP2 MLOAD DUP2 LT PUSH2 0x10C7 JUMPI INVALID JUMPDEST PUSH1 0x20 MUL PUSH1 0x20 ADD ADD DUP2 DUP2 MSTORE POP POP PUSH1 0x4 DUP3 GT ISZERO PUSH2 0x1001 JUMPI PUSH32 0x0 DUP2 PUSH1 0x4 DUP2 MLOAD DUP2 LT PUSH2 0x110A JUMPI INVALID JUMPDEST PUSH1 0x20 MUL PUSH1 0x20 ADD ADD DUP2 DUP2 MSTORE POP POP PUSH1 0x5 DUP3 GT ISZERO PUSH2 0x1001 JUMPI PUSH32 0x0 DUP2 PUSH1 0x5 DUP2 MLOAD DUP2 LT PUSH2 0x114D JUMPI INVALID JUMPDEST PUSH1 0x20 MUL PUSH1 0x20 ADD ADD DUP2 DUP2 MSTORE POP POP PUSH1 0x6 DUP3 GT ISZERO PUSH2 0x1001 JUMPI PUSH32 0x0 DUP2 PUSH1 0x6 DUP2 MLOAD DUP2 LT PUSH2 0x1190 JUMPI INVALID JUMPDEST PUSH1 0x20 MUL PUSH1 0x20 ADD ADD DUP2 DUP2 MSTORE POP POP PUSH1 0x7 DUP3 GT ISZERO PUSH2 0x1001 JUMPI PUSH32 0x0 DUP2 PUSH1 0x7 DUP2 MLOAD DUP2 LT PUSH2 0x11D3 JUMPI INVALID JUMPDEST PUSH1 0x20 MUL PUSH1 0x20 ADD ADD DUP2 DUP2 MSTORE POP POP PUSH1 0x8 DUP3 GT ISZERO PUSH2 0x1001 JUMPI PUSH32 0x0 DUP2 PUSH1 0x8 DUP2 MLOAD DUP2 LT PUSH2 0x1216 JUMPI INVALID JUMPDEST PUSH1 0x20 MUL PUSH1 0x20 ADD ADD DUP2 DUP2 MSTORE POP POP PUSH1 0x9 DUP3 GT ISZERO PUSH2 0x1001 JUMPI PUSH32 0x0 DUP2 PUSH1 0x9 DUP2 MLOAD DUP2 LT PUSH2 0x1259 JUMPI INVALID JUMPDEST PUSH1 0x20 MUL PUSH1 0x20 ADD ADD DUP2 DUP2 MSTORE POP POP PUSH1 0xA DUP3 GT ISZERO PUSH2 0x1001 JUMPI PUSH32 0x0 DUP2 PUSH1 0xA DUP2 MLOAD DUP2 LT PUSH2 0x129C JUMPI INVALID JUMPDEST PUSH1 0x20 MUL PUSH1 0x20 ADD ADD DUP2 DUP2 MSTORE POP POP PUSH1 0xB DUP3 GT ISZERO PUSH2 0x1001 JUMPI PUSH32 0x0 DUP2 PUSH1 0xB DUP2 MLOAD DUP2 LT PUSH2 0x12DF JUMPI INVALID JUMPDEST PUSH1 0x20 MUL PUSH1 0x20 ADD ADD DUP2 DUP2 MSTORE POP POP PUSH1 0xC DUP3 GT ISZERO PUSH2 0x1001 JUMPI PUSH32 0x0 DUP2 PUSH1 0xC DUP2 MLOAD DUP2 LT PUSH2 0x1322 JUMPI INVALID JUMPDEST PUSH1 0x20 MUL PUSH1 0x20 ADD ADD DUP2 DUP2 MSTORE POP POP PUSH1 0xD DUP3 GT ISZERO PUSH2 0x1001 JUMPI PUSH32 0x0 DUP2 PUSH1 0xD DUP2 MLOAD DUP2 LT PUSH2 0x1365 JUMPI INVALID JUMPDEST PUSH1 0x20 MUL PUSH1 0x20 ADD ADD DUP2 DUP2 MSTORE POP POP PUSH1 0xE DUP3 GT ISZERO PUSH2 0x1001 JUMPI PUSH32 0x0 DUP2 PUSH1 0xE DUP2 MLOAD DUP2 LT PUSH2 0x13A8 JUMPI INVALID JUMPDEST PUSH1 0x20 MUL PUSH1 0x20 ADD ADD DUP2 DUP2 MSTORE POP POP PUSH1 0xF DUP3 GT ISZERO PUSH2 0x1001 JUMPI PUSH32 0x0 DUP2 PUSH1 0xF DUP2 MLOAD DUP2 LT PUSH2 0x13EB JUMPI INVALID JUMPDEST PUSH1 0x20 MUL PUSH1 0x20 ADD ADD DUP2 DUP2 MSTORE POP POP PUSH1 0x10 DUP3 GT ISZERO PUSH2 0x1001 JUMPI PUSH32 0x0 DUP2 PUSH1 0x10 DUP2 MLOAD DUP2 LT PUSH2 0x142E JUMPI INVALID JUMPDEST PUSH1 0x20 MUL PUSH1 0x20 ADD ADD DUP2 DUP2 MSTORE POP POP PUSH1 0x11 DUP3 GT ISZERO PUSH2 0x1001 JUMPI PUSH32 0x0 DUP2 PUSH1 0x11 DUP2 MLOAD DUP2 LT PUSH2 0x1471 JUMPI INVALID JUMPDEST PUSH1 0x20 MUL PUSH1 0x20 ADD ADD DUP2 DUP2 MSTORE POP POP PUSH1 0x12 DUP3 GT ISZERO PUSH2 0x1001 JUMPI PUSH32 0x0 DUP2 PUSH1 0x12 DUP2 MLOAD DUP2 LT PUSH2 0x14B4 JUMPI INVALID JUMPDEST PUSH1 0x20 MUL PUSH1 0x20 ADD ADD DUP2 DUP2 MSTORE POP POP PUSH1 0x13 DUP3 GT ISZERO PUSH2 0x1001 JUMPI PUSH32 0x0 DUP2 PUSH1 0x13 DUP2 MLOAD DUP2 LT PUSH2 0x14F7 JUMPI INVALID JUMPDEST PUSH1 0x20 MUL PUSH1 0x20 ADD ADD DUP2 DUP2 MSTORE POP POP SWAP2 POP POP SWAP1 JUMP JUMPDEST DUP2 PUSH2 0x680 JUMPI PUSH2 0x680 DUP2 PUSH2 0x2DA3 JUMP JUMPDEST PUSH2 0x152E PUSH1 0x1 PUSH1 0x1 PUSH1 0xA0 SHL SUB DUP5 AND ISZERO ISZERO PUSH2 0x198 PUSH2 0x1509 JUMP JUMPDEST PUSH2 0x1545 PUSH1 0x1 PUSH1 0x1 PUSH1 0xA0 SHL SUB DUP4 AND ISZERO ISZERO PUSH2 0x199 PUSH2 0x1509 JUMP JUMPDEST PUSH2 0x1550 DUP4 DUP4 DUP4 PUSH2 0x1973 JUMP JUMPDEST PUSH1 0x1 PUSH1 0x1 PUSH1 0xA0 SHL SUB DUP4 AND PUSH1 0x0 SWAP1 DUP2 MSTORE PUSH1 0x20 DUP2 SWAP1 MSTORE PUSH1 0x40 SWAP1 KECCAK256 SLOAD PUSH2 0x1576 SWAP1 DUP3 PUSH2 0x1A0 PUSH2 0x2DF6 JUMP JUMPDEST PUSH1 0x1 PUSH1 0x1 PUSH1 0xA0 SHL SUB DUP1 DUP6 AND PUSH1 0x0 SWAP1 DUP2 MSTORE PUSH1 0x20 DUP2 SWAP1 MSTORE PUSH1 0x40 DUP1 DUP3 KECCAK256 SWAP4 SWAP1 SWAP4 SSTORE SWAP1 DUP5 AND DUP2 MSTORE KECCAK256 SLOAD PUSH2 0x15A5 SWAP1 DUP3 PUSH2 0xDB3 JUMP JUMPDEST PUSH1 0x1 PUSH1 0x1 PUSH1 0xA0 SHL SUB DUP1 DUP5 AND PUSH1 0x0 DUP2 DUP2 MSTORE PUSH1 0x20 DUP2 SWAP1 MSTORE PUSH1 0x40 SWAP1 DUP2 SWAP1 KECCAK256 SWAP4 SWAP1 SWAP4 SSTORE SWAP2 MLOAD SWAP1 DUP6 AND SWAP1 PUSH32 0xDDF252AD1BE2C89B69C2B068FC378DAA952BA7F163C4A11628F55A4DF523B3EF SWAP1 PUSH2 0xE4B SWAP1 DUP6 SWAP1 PUSH2 0x5753 JUMP JUMPDEST PUSH1 0x0 PUSH32 0x0 PUSH32 0x0 PUSH32 0x0 PUSH2 0x1664 PUSH2 0x2E0C JUMP JUMPDEST ADDRESS PUSH1 0x40 MLOAD PUSH1 0x20 ADD PUSH2 0x1679 SWAP6 SWAP5 SWAP4 SWAP3 SWAP2 SWAP1 PUSH2 0x57AF JUMP JUMPDEST PUSH1 0x40 MLOAD PUSH1 0x20 DUP2 DUP4 SUB SUB DUP2 MSTORE SWAP1 PUSH1 0x40 MSTORE DUP1 MLOAD SWAP1 PUSH1 0x20 ADD KECCAK256 SWAP1 POP SWAP1 JUMP JUMPDEST PUSH2 0x16A7 PUSH2 0x169F PUSH2 0xF04 JUMP JUMPDEST PUSH2 0x192 PUSH2 0x1509 JUMP JUMPDEST JUMP JUMPDEST PUSH2 0x16BC PUSH5 0xE8D4A51000 DUP3 LT ISZERO PUSH1 0xCB PUSH2 0x1509 JUMP JUMPDEST PUSH2 0x16D2 PUSH8 0x16345785D8A0000 DUP3 GT ISZERO PUSH1 0xCA PUSH2 0x1509 JUMP JUMPDEST PUSH1 0x8 SLOAD PUSH2 0x16E1 SWAP1 DUP3 PUSH1 0xC0 PUSH2 0xDC5 JUMP JUMPDEST PUSH1 0x8 SSTORE PUSH1 0x40 MLOAD PUSH32 0xA9BA3FFE0B6C366B81232CAAB38605A0699AD5398D6CCE76F91EE809E322DAFC SWAP1 PUSH2 0xEF9 SWAP1 DUP4 SWAP1 PUSH2 0x5753 JUMP JUMPDEST PUSH1 0x0 PUSH2 0x171E PUSH2 0x607 JUMP JUMPDEST SWAP1 POP PUSH1 0x0 PUSH2 0x172A PUSH2 0x870 JUMP JUMPDEST PUSH1 0x1 PUSH1 0x1 PUSH1 0xA0 SHL SUB AND PUSH4 0xB05F8E48 DUP4 DUP7 PUSH1 0x40 MLOAD DUP4 PUSH4 0xFFFFFFFF AND PUSH1 0xE0 SHL DUP2 MSTORE PUSH1 0x4 ADD PUSH2 0x1757 SWAP3 SWAP2 SWAP1 PUSH2 0x57F4 JUMP JUMPDEST PUSH1 0x80 PUSH1 0x40 MLOAD DUP1 DUP4 SUB DUP2 DUP7 DUP1 EXTCODESIZE ISZERO DUP1 ISZERO PUSH2 0x176F JUMPI PUSH1 0x0 DUP1 REVERT JUMPDEST POP GAS STATICCALL ISZERO DUP1 ISZERO PUSH2 0x1783 JUMPI RETURNDATASIZE PUSH1 0x0 DUP1 RETURNDATACOPY RETURNDATASIZE PUSH1 0x0 REVERT JUMPDEST POP POP POP POP PUSH1 0x40 MLOAD RETURNDATASIZE PUSH1 0x1F NOT PUSH1 0x1F DUP3 ADD AND DUP3 ADD DUP1 PUSH1 0x40 MSTORE POP DUP2 ADD SWAP1 PUSH2 0x17A7 SWAP2 SWAP1 PUSH2 0x55DC JUMP JUMPDEST PUSH1 0x40 MLOAD PUSH4 0x639CDB5 PUSH1 0xE2 SHL DUP2 MSTORE SWAP1 SWAP5 POP PUSH1 0x1 PUSH1 0x1 PUSH1 0xA0 SHL SUB DUP6 AND SWAP4 POP PUSH4 0x18E736D4 SWAP3 POP PUSH2 0x17DB SWAP2 POP DUP6 SWAP1 DUP8 SWAP1 PUSH1 0x4 ADD PUSH2 0x57DB JUMP JUMPDEST PUSH1 0x0 PUSH1 0x40 MLOAD DUP1 DUP4 SUB DUP2 PUSH1 0x0 DUP8 DUP1 EXTCODESIZE ISZERO DUP1 ISZERO PUSH2 0x17F5 JUMPI PUSH1 0x0 DUP1 REVERT JUMPDEST POP GAS CALL ISZERO DUP1 ISZERO PUSH2 0x1809 JUMPI RETURNDATASIZE PUSH1 0x0 DUP1 RETURNDATACOPY RETURNDATASIZE PUSH1 0x0 REVERT JUMPDEST POP POP POP POP POP POP POP POP JUMP JUMPDEST SHR PUSH1 0x1 PUSH1 0x1 PUSH1 0x40 SHL SUB AND SWAP1 JUMP JUMPDEST PUSH32 0x0 SWAP1 JUMP JUMPDEST PUSH1 0x0 PUSH1 0x60 DUP1 PUSH1 0x0 DUP1 PUSH2 0x1854 PUSH2 0x2553 JUMP JUMPDEST SWAP2 POP SWAP2 POP PUSH2 0x1860 PUSH2 0xF04 JUMP JUMPDEST ISZERO PUSH2 0x1898 JUMPI PUSH1 0x0 PUSH2 0x1871 DUP4 DUP13 PUSH2 0x2587 JUMP JUMPDEST SWAP1 POP PUSH2 0x1883 DUP12 DUP5 DUP5 PUSH1 0x9 SLOAD DUP6 DUP15 PUSH2 0x2E10 JUMP JUMPDEST SWAP4 POP PUSH2 0x1892 DUP12 DUP6 PUSH2 0xDDA PUSH2 0x2EC1 JUMP JUMPDEST POP PUSH2 0x18E3 JUMP JUMPDEST PUSH2 0x18A0 PUSH2 0x1820 JUMP JUMPDEST PUSH1 0x1 PUSH1 0x1 PUSH1 0x40 SHL SUB DUP2 GT DUP1 ISZERO PUSH2 0x18B5 JUMPI PUSH1 0x0 DUP1 REVERT JUMPDEST POP PUSH1 0x40 MLOAD SWAP1 DUP1 DUP3 MSTORE DUP1 PUSH1 0x20 MUL PUSH1 0x20 ADD DUP3 ADD PUSH1 0x40 MSTORE DUP1 ISZERO PUSH2 0x18DF JUMPI DUP2 PUSH1 0x20 ADD PUSH1 0x20 DUP3 MUL DUP1 CALLDATASIZE DUP4 CALLDATACOPY ADD SWAP1 POP JUMPDEST POP SWAP3 POP JUMPDEST PUSH2 0x18EF DUP11 DUP4 DUP10 DUP10 PUSH2 0x2F2C JUMP JUMPDEST SWAP1 SWAP6 POP SWAP4 POP PUSH2 0x18FF DUP11 DUP6 DUP5 PUSH2 0x2F9B JUMP JUMPDEST PUSH1 0x9 SSTORE POP POP SWAP9 POP SWAP9 POP SWAP9 SWAP6 POP POP POP POP POP POP JUMP JUMPDEST PUSH1 0x0 JUMPDEST PUSH2 0x191D PUSH2 0x1820 JUMP JUMPDEST DUP2 LT ISZERO PUSH2 0x1973 JUMPI PUSH2 0x1954 DUP4 DUP3 DUP2 MLOAD DUP2 LT PUSH2 0x1933 JUMPI INVALID JUMPDEST PUSH1 0x20 MUL PUSH1 0x20 ADD ADD MLOAD DUP4 DUP4 DUP2 MLOAD DUP2 LT PUSH2 0x1947 JUMPI INVALID JUMPDEST PUSH1 0x20 MUL PUSH1 0x20 ADD ADD MLOAD PUSH2 0x1ABE JUMP JUMPDEST DUP4 DUP3 DUP2 MLOAD DUP2 LT PUSH2 0x1960 JUMPI INVALID JUMPDEST PUSH1 0x20 SWAP1 DUP2 MUL SWAP2 SWAP1 SWAP2 ADD ADD MSTORE PUSH1 0x1 ADD PUSH2 0x1915 JUMP JUMPDEST POP POP POP JUMP JUMPDEST CALLER ADDRESS EQ PUSH2 0x1A36 JUMPI PUSH1 0x0 ADDRESS PUSH1 0x1 PUSH1 0x1 PUSH1 0xA0 SHL SUB AND PUSH1 0x0 CALLDATASIZE PUSH1 0x40 MLOAD PUSH2 0x199C SWAP3 SWAP2 SWAP1 PUSH2 0x56B9 JUMP JUMPDEST PUSH1 0x0 PUSH1 0x40 MLOAD DUP1 DUP4 SUB DUP2 PUSH1 0x0 DUP7 GAS CALL SWAP2 POP POP RETURNDATASIZE DUP1 PUSH1 0x0 DUP2 EQ PUSH2 0x19D9 JUMPI PUSH1 0x40 MLOAD SWAP2 POP PUSH1 0x1F NOT PUSH1 0x3F RETURNDATASIZE ADD AND DUP3 ADD PUSH1 0x40 MSTORE RETURNDATASIZE DUP3 MSTORE RETURNDATASIZE PUSH1 0x0 PUSH1 0x20 DUP5 ADD RETURNDATACOPY PUSH2 0x19DE JUMP JUMPDEST PUSH1 0x60 SWAP2 POP JUMPDEST POP POP SWAP1 POP DUP1 PUSH1 0x0 DUP2 EQ PUSH2 0x19ED JUMPI INVALID JUMPDEST PUSH1 0x4 PUSH1 0x0 DUP1 RETURNDATACOPY PUSH1 0x0 MLOAD PUSH1 0x1 PUSH1 0x1 PUSH1 0xE0 SHL SUB NOT AND PUSH4 0x43ADBAFB PUSH1 0xE0 SHL DUP2 EQ PUSH2 0x1A18 JUMPI RETURNDATASIZE PUSH1 0x0 DUP1 RETURNDATACOPY RETURNDATASIZE PUSH1 0x0 REVERT JUMPDEST POP PUSH1 0x20 PUSH1 0x4 PUSH1 0x0 RETURNDATACOPY PUSH1 0x40 PUSH1 0x20 MSTORE PUSH1 0x24 RETURNDATASIZE SUB PUSH1 0x24 PUSH1 0x40 RETURNDATACOPY PUSH1 0x1C RETURNDATASIZE ADD PUSH1 0x0 RETURN JUMPDEST PUSH1 0x0 PUSH2 0x1A40 PUSH2 0xF69 JUMP JUMPDEST SWAP1 POP PUSH2 0x1A4C DUP8 DUP3 PUSH2 0x1B0F JUMP JUMPDEST PUSH1 0x0 DUP1 PUSH2 0x1A63 DUP13 DUP13 DUP13 DUP13 DUP13 DUP13 DUP10 DUP14 DUP14 PUSH4 0xFFFFFFFF AND JUMP JUMPDEST POP SWAP2 POP SWAP2 POP PUSH2 0x1A76 DUP2 DUP5 DUP7 PUSH4 0xFFFFFFFF AND JUMP JUMPDEST DUP1 MLOAD PUSH1 0x1F NOT DUP3 ADD DUP4 SWAP1 MSTORE PUSH4 0x43ADBAFB PUSH1 0x3F NOT DUP4 ADD MSTORE PUSH1 0x20 MUL PUSH1 0x23 NOT DUP3 ADD PUSH1 0x44 DUP3 ADD DUP2 REVERT JUMPDEST PUSH1 0x0 DUP3 DUP3 MUL PUSH2 0x5D4 DUP5 ISZERO DUP1 PUSH2 0x1AB7 JUMPI POP DUP4 DUP6 DUP4 DUP2 PUSH2 0x1AB4 JUMPI INVALID JUMPDEST DIV EQ JUMPDEST PUSH1 0x3 PUSH2 0x1509 JUMP JUMPDEST PUSH1 0x0 PUSH2 0x1ACD DUP3 ISZERO ISZERO PUSH1 0x4 PUSH2 0x1509 JUMP JUMPDEST DUP3 PUSH2 0x1ADA JUMPI POP PUSH1 0x0 PUSH2 0x50D JUMP JUMPDEST PUSH8 0xDE0B6B3A7640000 DUP4 DUP2 MUL SWAP1 PUSH2 0x1AFD SWAP1 DUP6 DUP4 DUP2 PUSH2 0x1AF4 JUMPI INVALID JUMPDEST DIV EQ PUSH1 0x5 PUSH2 0x1509 JUMP JUMPDEST DUP3 DUP2 DUP2 PUSH2 0x1B06 JUMPI INVALID JUMPDEST DIV SWAP2 POP POP PUSH2 0x50D JUMP JUMPDEST PUSH1 0x0 JUMPDEST PUSH2 0x1B1A PUSH2 0x1820 JUMP JUMPDEST DUP2 LT ISZERO PUSH2 0x1973 JUMPI PUSH2 0x1B51 DUP4 DUP3 DUP2 MLOAD DUP2 LT PUSH2 0x1B30 JUMPI INVALID JUMPDEST PUSH1 0x20 MUL PUSH1 0x20 ADD ADD MLOAD DUP4 DUP4 DUP2 MLOAD DUP2 LT PUSH2 0x1B44 JUMPI INVALID JUMPDEST PUSH1 0x20 MUL PUSH1 0x20 ADD ADD MLOAD PUSH2 0x2FB4 JUMP JUMPDEST DUP4 DUP3 DUP2 MLOAD DUP2 LT PUSH2 0x1B5D JUMPI INVALID JUMPDEST PUSH1 0x20 SWAP1 DUP2 MUL SWAP2 SWAP1 SWAP2 ADD ADD MSTORE PUSH1 0x1 ADD PUSH2 0x1B12 JUMP JUMPDEST PUSH2 0x680 DUP3 DUP3 PUSH2 0x2FE0 JUMP JUMPDEST PUSH1 0x0 PUSH1 0x60 DUP1 PUSH2 0x1B87 PUSH2 0x1694 JUMP JUMPDEST PUSH1 0x0 DUP1 PUSH2 0x1B92 PUSH2 0x2553 JUMP JUMPDEST SWAP2 POP SWAP2 POP PUSH1 0x0 PUSH2 0x1BA2 DUP4 DUP13 PUSH2 0x2587 JUMP JUMPDEST SWAP1 POP PUSH1 0x0 PUSH2 0x1BB6 DUP13 DUP6 DUP6 PUSH1 0x9 SLOAD DUP7 DUP16 PUSH2 0x2E10 JUMP JUMPDEST SWAP1 POP PUSH2 0x1BC5 DUP13 DUP3 PUSH2 0xDDA PUSH2 0x2EC1 JUMP JUMPDEST PUSH1 0x0 DUP1 PUSH2 0x1BD4 DUP15 DUP8 DUP14 DUP14 PUSH2 0x309C JUMP JUMPDEST SWAP2 POP SWAP2 POP PUSH2 0x1BE3 DUP15 DUP3 DUP9 PUSH2 0x30F7 JUMP JUMPDEST PUSH1 0x9 SSTORE SWAP1 SWAP8 POP SWAP6 POP SWAP4 POP POP POP POP SWAP9 POP SWAP9 POP SWAP9 SWAP6 POP POP POP POP POP POP JUMP JUMPDEST PUSH1 0x0 JUMPDEST PUSH2 0x1C09 PUSH2 0x1820 JUMP JUMPDEST DUP2 LT ISZERO PUSH2 0x1973 JUMPI PUSH2 0x1C40 DUP4 DUP3 DUP2 MLOAD DUP2 LT PUSH2 0x1C1F JUMPI INVALID JUMPDEST PUSH1 0x20 MUL PUSH1 0x20 ADD ADD MLOAD DUP4 DUP4 DUP2 MLOAD DUP2 LT PUSH2 0x1C33 JUMPI INVALID JUMPDEST PUSH1 0x20 MUL PUSH1 0x20 ADD ADD MLOAD PUSH2 0x3106 JUMP JUMPDEST DUP4 DUP3 DUP2 MLOAD DUP2 LT PUSH2 0x1C4C JUMPI INVALID JUMPDEST PUSH1 0x20 SWAP1 DUP2 MUL SWAP2 SWAP1 SWAP2 ADD ADD MSTORE PUSH1 0x1 ADD PUSH2 0x1C01 JUMP JUMPDEST PUSH1 0x0 PUSH32 0x0 PUSH1 0x1 PUSH1 0x1 PUSH1 0xA0 SHL SUB AND DUP3 PUSH1 0x1 PUSH1 0x1 PUSH1 0xA0 SHL SUB AND EQ ISZERO PUSH2 0x1CC2 JUMPI POP PUSH32 0x0 PUSH2 0x711 JUMP JUMPDEST PUSH32 0x0 PUSH1 0x1 PUSH1 0x1 PUSH1 0xA0 SHL SUB AND DUP3 PUSH1 0x1 PUSH1 0x1 PUSH1 0xA0 SHL SUB AND EQ ISZERO PUSH2 0x1D23 JUMPI POP PUSH32 0x0 PUSH2 0x711 JUMP JUMPDEST PUSH32 0x0 PUSH1 0x1 PUSH1 0x1 PUSH1 0xA0 SHL SUB AND DUP3 PUSH1 0x1 PUSH1 0x1 PUSH1 0xA0 SHL SUB AND EQ ISZERO PUSH2 0x1D84 JUMPI POP PUSH32 0x0 PUSH2 0x711 JUMP JUMPDEST PUSH32 0x0 PUSH1 0x1 PUSH1 0x1 PUSH1 0xA0 SHL SUB AND DUP3 PUSH1 0x1 PUSH1 0x1 PUSH1 0xA0 SHL SUB AND EQ ISZERO PUSH2 0x1DE5 JUMPI POP PUSH32 0x0 PUSH2 0x711 JUMP JUMPDEST PUSH32 0x0 PUSH1 0x1 PUSH1 0x1 PUSH1 0xA0 SHL SUB AND DUP3 PUSH1 0x1 PUSH1 0x1 PUSH1 0xA0 SHL SUB AND EQ ISZERO PUSH2 0x1E46 JUMPI POP PUSH32 0x0 PUSH2 0x711 JUMP JUMPDEST PUSH32 0x0 PUSH1 0x1 PUSH1 0x1 PUSH1 0xA0 SHL SUB AND DUP3 PUSH1 0x1 PUSH1 0x1 PUSH1 0xA0 SHL SUB AND EQ ISZERO PUSH2 0x1EA7 JUMPI POP PUSH32 0x0 PUSH2 0x711 JUMP JUMPDEST PUSH32 0x0 PUSH1 0x1 PUSH1 0x1 PUSH1 0xA0 SHL SUB AND DUP3 PUSH1 0x1 PUSH1 0x1 PUSH1 0xA0 SHL SUB AND EQ ISZERO PUSH2 0x1F08 JUMPI POP PUSH32 0x0 PUSH2 0x711 JUMP JUMPDEST PUSH32 0x0 PUSH1 0x1 PUSH1 0x1 PUSH1 0xA0 SHL SUB AND DUP3 PUSH1 0x1 PUSH1 0x1 PUSH1 0xA0 SHL SUB AND EQ ISZERO PUSH2 0x1F69 JUMPI POP PUSH32 0x0 PUSH2 0x711 JUMP JUMPDEST PUSH32 0x0 PUSH1 0x1 PUSH1 0x1 PUSH1 0xA0 SHL SUB AND DUP3 PUSH1 0x1 PUSH1 0x1 PUSH1 0xA0 SHL SUB AND EQ ISZERO PUSH2 0x1FCA JUMPI POP PUSH32 0x0 PUSH2 0x711 JUMP JUMPDEST PUSH32 0x0 PUSH1 0x1 PUSH1 0x1 PUSH1 0xA0 SHL SUB AND DUP3 PUSH1 0x1 PUSH1 0x1 PUSH1 0xA0 SHL SUB AND EQ ISZERO PUSH2 0x202B JUMPI POP PUSH32 0x0 PUSH2 0x711 JUMP JUMPDEST PUSH32 0x0 PUSH1 0x1 PUSH1 0x1 PUSH1 0xA0 SHL SUB AND DUP3 PUSH1 0x1 PUSH1 0x1 PUSH1 0xA0 SHL SUB AND EQ ISZERO PUSH2 0x208C JUMPI POP PUSH32 0x0 PUSH2 0x711 JUMP JUMPDEST PUSH32 0x0 PUSH1 0x1 PUSH1 0x1 PUSH1 0xA0 SHL SUB AND DUP3 PUSH1 0x1 PUSH1 0x1 PUSH1 0xA0 SHL SUB AND EQ ISZERO PUSH2 0x20ED JUMPI POP PUSH32 0x0 PUSH2 0x711 JUMP JUMPDEST PUSH32 0x0 PUSH1 0x1 PUSH1 0x1 PUSH1 0xA0 SHL SUB AND DUP3 PUSH1 0x1 PUSH1 0x1 PUSH1 0xA0 SHL SUB AND EQ ISZERO PUSH2 0x214E JUMPI POP PUSH32 0x0 PUSH2 0x711 JUMP JUMPDEST PUSH32 0x0 PUSH1 0x1 PUSH1 0x1 PUSH1 0xA0 SHL SUB AND DUP3 PUSH1 0x1 PUSH1 0x1 PUSH1 0xA0 SHL SUB AND EQ ISZERO PUSH2 0x21AF JUMPI POP PUSH32 0x0 PUSH2 0x711 JUMP JUMPDEST PUSH32 0x0 PUSH1 0x1 PUSH1 0x1 PUSH1 0xA0 SHL SUB AND DUP3 PUSH1 0x1 PUSH1 0x1 PUSH1 0xA0 SHL SUB AND EQ ISZERO PUSH2 0x2210 JUMPI POP PUSH32 0x0 PUSH2 0x711 JUMP JUMPDEST PUSH32 0x0 PUSH1 0x1 PUSH1 0x1 PUSH1 0xA0 SHL SUB AND DUP3 PUSH1 0x1 PUSH1 0x1 PUSH1 0xA0 SHL SUB AND EQ ISZERO PUSH2 0x2271 JUMPI POP PUSH32 0x0 PUSH2 0x711 JUMP JUMPDEST PUSH32 0x0 PUSH1 0x1 PUSH1 0x1 PUSH1 0xA0 SHL SUB AND DUP3 PUSH1 0x1 PUSH1 0x1 PUSH1 0xA0 SHL SUB AND EQ ISZERO PUSH2 0x22D2 JUMPI POP PUSH32 0x0 PUSH2 0x711 JUMP JUMPDEST PUSH32 0x0 PUSH1 0x1 PUSH1 0x1 PUSH1 0xA0 SHL SUB AND DUP3 PUSH1 0x1 PUSH1 0x1 PUSH1 0xA0 SHL SUB AND EQ ISZERO PUSH2 0x2333 JUMPI POP PUSH32 0x0 PUSH2 0x711 JUMP JUMPDEST PUSH32 0x0 PUSH1 0x1 PUSH1 0x1 PUSH1 0xA0 SHL SUB AND DUP3 PUSH1 0x1 PUSH1 0x1 PUSH1 0xA0 SHL SUB AND EQ ISZERO PUSH2 0x2394 JUMPI POP PUSH32 0x0 PUSH2 0x711 JUMP JUMPDEST PUSH32 0x0 PUSH1 0x1 PUSH1 0x1 PUSH1 0xA0 SHL SUB AND DUP3 PUSH1 0x1 PUSH1 0x1 PUSH1 0xA0 SHL SUB AND EQ ISZERO PUSH2 0x23F5 JUMPI POP PUSH32 0x0 PUSH2 0x711 JUMP JUMPDEST PUSH2 0x711 PUSH2 0x135 PUSH2 0x2DA3 JUMP JUMPDEST PUSH1 0x0 DUP1 PUSH2 0x2415 PUSH2 0x240E PUSH2 0x684 JUMP JUMPDEST DUP5 SWAP1 PUSH2 0x3154 JUMP JUMPDEST SWAP1 POP PUSH2 0x5D4 DUP4 DUP3 PUSH2 0xDDA JUMP JUMPDEST PUSH1 0x0 PUSH2 0x5D4 DUP4 DUP4 PUSH2 0x2FB4 JUMP JUMPDEST PUSH1 0x0 PUSH2 0x2437 PUSH2 0x1694 JUMP JUMPDEST PUSH2 0x2460 DUP4 PUSH2 0x2448 DUP7 PUSH1 0x20 ADD MLOAD PUSH2 0x3190 JUMP JUMPDEST DUP5 PUSH2 0x2456 DUP9 PUSH1 0x40 ADD MLOAD PUSH2 0x3190 JUMP JUMPDEST DUP9 PUSH1 0x60 ADD MLOAD PUSH2 0x3926 JUMP JUMPDEST SWAP5 SWAP4 POP POP POP POP JUMP JUMPDEST PUSH1 0x0 PUSH2 0x5D4 DUP4 DUP4 PUSH2 0x1ABE JUMP JUMPDEST PUSH1 0x0 PUSH2 0x247E PUSH2 0x1694 JUMP JUMPDEST PUSH2 0x2460 DUP4 PUSH2 0x248F DUP7 PUSH1 0x20 ADD MLOAD PUSH2 0x3190 JUMP JUMPDEST DUP5 PUSH2 0x249D DUP9 PUSH1 0x40 ADD MLOAD PUSH2 0x3190 JUMP JUMPDEST DUP9 PUSH1 0x60 ADD MLOAD PUSH2 0x39A3 JUMP JUMPDEST PUSH1 0x0 PUSH2 0x5D4 DUP4 DUP4 PUSH2 0x3106 JUMP JUMPDEST PUSH1 0x0 PUSH2 0x50D PUSH2 0x24D2 PUSH2 0x24C3 PUSH2 0x684 JUMP JUMPDEST PUSH8 0xDE0B6B3A7640000 SWAP1 PUSH2 0xDDA JUMP JUMPDEST DUP4 SWAP1 PUSH2 0x3106 JUMP JUMPDEST PUSH1 0x0 PUSH2 0x24E3 PUSH2 0x870 JUMP JUMPDEST PUSH1 0x1 PUSH1 0x1 PUSH1 0xA0 SHL SUB AND PUSH4 0xAAABADC5 PUSH1 0x40 MLOAD DUP2 PUSH4 0xFFFFFFFF AND PUSH1 0xE0 SHL DUP2 MSTORE PUSH1 0x4 ADD PUSH1 0x20 PUSH1 0x40 MLOAD DUP1 DUP4 SUB DUP2 DUP7 DUP1 EXTCODESIZE ISZERO DUP1 ISZERO PUSH2 0x251B JUMPI PUSH1 0x0 DUP1 REVERT JUMPDEST POP GAS STATICCALL ISZERO DUP1 ISZERO PUSH2 0x252F JUMPI RETURNDATASIZE PUSH1 0x0 DUP1 RETURNDATACOPY RETURNDATASIZE PUSH1 0x0 REVERT JUMPDEST POP POP POP POP PUSH1 0x40 MLOAD RETURNDATASIZE PUSH1 0x1F NOT PUSH1 0x1F DUP3 ADD AND DUP3 ADD DUP1 PUSH1 0x40 MSTORE POP DUP2 ADD SWAP1 PUSH2 0x560 SWAP2 SWAP1 PUSH2 0x535C JUMP JUMPDEST PUSH1 0x60 PUSH1 0x0 PUSH2 0x255F PUSH2 0x26BA JUMP JUMPDEST SWAP3 PUSH32 0x0 SWAP3 POP SWAP1 POP JUMP JUMPDEST PUSH8 0xDE0B6B3A7640000 PUSH1 0x0 JUMPDEST DUP4 MLOAD DUP2 LT ISZERO PUSH2 0x25E9 JUMPI PUSH2 0x25DF PUSH2 0x25D8 DUP6 DUP4 DUP2 MLOAD DUP2 LT PUSH2 0x25AE JUMPI INVALID JUMPDEST PUSH1 0x20 MUL PUSH1 0x20 ADD ADD MLOAD DUP6 DUP5 DUP2 MLOAD DUP2 LT PUSH2 0x25C2 JUMPI INVALID JUMPDEST PUSH1 0x20 MUL PUSH1 0x20 ADD ADD MLOAD PUSH2 0x3A19 SWAP1 SWAP2 SWAP1 PUSH4 0xFFFFFFFF AND JUMP JUMPDEST DUP4 SWAP1 PUSH2 0x2FB4 JUMP JUMPDEST SWAP2 POP PUSH1 0x1 ADD PUSH2 0x2593 JUMP JUMPDEST POP PUSH2 0x50D PUSH1 0x0 DUP3 GT PUSH2 0x137 PUSH2 0x1509 JUMP JUMPDEST PUSH1 0x0 PUSH2 0x2603 PUSH2 0x15F7 JUMP JUMPDEST DUP3 PUSH1 0x40 MLOAD PUSH1 0x20 ADD PUSH2 0x809 SWAP3 SWAP2 SWAP1 PUSH2 0x56C9 JUMP JUMPDEST PUSH1 0x0 PUSH1 0x60 PUSH2 0x2621 PUSH2 0x1694 JUMP JUMPDEST PUSH1 0x0 PUSH2 0x262C DUP5 PUSH2 0x3A68 JUMP JUMPDEST SWAP1 POP PUSH2 0x2647 PUSH1 0x0 DUP3 PUSH1 0x2 DUP2 GT ISZERO PUSH2 0x263F JUMPI INVALID JUMPDEST EQ PUSH1 0xCE PUSH2 0x1509 JUMP JUMPDEST PUSH1 0x0 PUSH2 0x2652 DUP6 PUSH2 0x3A7E JUMP JUMPDEST SWAP1 POP PUSH2 0x2666 PUSH2 0x265F PUSH2 0x1820 JUMP JUMPDEST DUP3 MLOAD PUSH2 0xDA6 JUMP JUMPDEST PUSH2 0x2670 DUP2 DUP8 PUSH2 0x1B0F JUMP JUMPDEST PUSH1 0x0 PUSH2 0x267A PUSH2 0x2553 JUMP JUMPDEST POP SWAP1 POP PUSH1 0x0 PUSH2 0x2689 DUP3 DUP5 PUSH2 0x2587 JUMP JUMPDEST SWAP1 POP PUSH1 0x0 PUSH2 0x2699 DUP3 PUSH2 0x6EC PUSH2 0x1820 JUMP JUMPDEST PUSH1 0x9 SWAP3 SWAP1 SWAP3 SSTORE POP SWAP11 SWAP2 SWAP10 POP SWAP1 SWAP8 POP POP POP POP POP POP POP POP JUMP JUMPDEST PUSH2 0x680 DUP3 DUP3 PUSH2 0x3A94 JUMP JUMPDEST PUSH1 0x60 PUSH1 0x0 PUSH2 0x26C6 PUSH2 0x1820 JUMP JUMPDEST SWAP1 POP PUSH1 0x0 DUP2 PUSH1 0x1 PUSH1 0x1 PUSH1 0x40 SHL SUB DUP2 GT DUP1 ISZERO PUSH2 0x26E0 JUMPI PUSH1 0x0 DUP1 REVERT JUMPDEST POP PUSH1 0x40 MLOAD SWAP1 DUP1 DUP3 MSTORE DUP1 PUSH1 0x20 MUL PUSH1 0x20 ADD DUP3 ADD PUSH1 0x40 MSTORE DUP1 ISZERO PUSH2 0x270A JUMPI DUP2 PUSH1 0x20 ADD PUSH1 0x20 DUP3 MUL DUP1 CALLDATASIZE DUP4 CALLDATACOPY ADD SWAP1 POP JUMPDEST POP SWAP1 POP DUP2 ISZERO PUSH2 0x1001 JUMPI PUSH32 0x0 DUP2 PUSH1 0x0 DUP2 MLOAD DUP2 LT PUSH2 0x2741 JUMPI INVALID JUMPDEST PUSH1 0x20 MUL PUSH1 0x20 ADD ADD DUP2 DUP2 MSTORE POP POP PUSH1 0x1 DUP3 GT ISZERO PUSH2 0x1001 JUMPI PUSH32 0x0 DUP2 PUSH1 0x1 DUP2 MLOAD DUP2 LT PUSH2 0x2784 JUMPI INVALID JUMPDEST PUSH1 0x20 MUL PUSH1 0x20 ADD ADD DUP2 DUP2 MSTORE POP POP PUSH1 0x2 DUP3 GT ISZERO PUSH2 0x1001 JUMPI PUSH32 0x0 DUP2 PUSH1 0x2 DUP2 MLOAD DUP2 LT PUSH2 0x27C7 JUMPI INVALID JUMPDEST PUSH1 0x20 MUL PUSH1 0x20 ADD ADD DUP2 DUP2 MSTORE POP POP PUSH1 0x3 DUP3 GT ISZERO PUSH2 0x1001 JUMPI PUSH32 0x0 DUP2 PUSH1 0x3 DUP2 MLOAD DUP2 LT PUSH2 0x280A JUMPI INVALID JUMPDEST PUSH1 0x20 MUL PUSH1 0x20 ADD ADD DUP2 DUP2 MSTORE POP POP PUSH1 0x4 DUP3 GT ISZERO PUSH2 0x1001 JUMPI PUSH32 0x0 DUP2 PUSH1 0x4 DUP2 MLOAD DUP2 LT PUSH2 0x284D JUMPI INVALID JUMPDEST PUSH1 0x20 MUL PUSH1 0x20 ADD ADD DUP2 DUP2 MSTORE POP POP PUSH1 0x5 DUP3 GT ISZERO PUSH2 0x1001 JUMPI PUSH32 0x0 DUP2 PUSH1 0x5 DUP2 MLOAD DUP2 LT PUSH2 0x2890 JUMPI INVALID JUMPDEST PUSH1 0x20 MUL PUSH1 0x20 ADD ADD DUP2 DUP2 MSTORE POP POP PUSH1 0x6 DUP3 GT ISZERO PUSH2 0x1001 JUMPI PUSH32 0x0 DUP2 PUSH1 0x6 DUP2 MLOAD DUP2 LT PUSH2 0x28D3 JUMPI INVALID JUMPDEST PUSH1 0x20 MUL PUSH1 0x20 ADD ADD DUP2 DUP2 MSTORE POP POP PUSH1 0x7 DUP3 GT ISZERO PUSH2 0x1001 JUMPI PUSH32 0x0 DUP2 PUSH1 0x7 DUP2 MLOAD DUP2 LT PUSH2 0x2916 JUMPI INVALID JUMPDEST PUSH1 0x20 MUL PUSH1 0x20 ADD ADD DUP2 DUP2 MSTORE POP POP PUSH1 0x8 DUP3 GT ISZERO PUSH2 0x1001 JUMPI PUSH32 0x0 DUP2 PUSH1 0x8 DUP2 MLOAD DUP2 LT PUSH2 0x2959 JUMPI INVALID JUMPDEST PUSH1 0x20 MUL PUSH1 0x20 ADD ADD DUP2 DUP2 MSTORE POP POP PUSH1 0x9 DUP3 GT ISZERO PUSH2 0x1001 JUMPI PUSH32 0x0 DUP2 PUSH1 0x9 DUP2 MLOAD DUP2 LT PUSH2 0x299C JUMPI INVALID JUMPDEST PUSH1 0x20 MUL PUSH1 0x20 ADD ADD DUP2 DUP2 MSTORE POP POP PUSH1 0xA DUP3 GT ISZERO PUSH2 0x1001 JUMPI PUSH32 0x0 DUP2 PUSH1 0xA DUP2 MLOAD DUP2 LT PUSH2 0x29DF JUMPI INVALID JUMPDEST PUSH1 0x20 MUL PUSH1 0x20 ADD ADD DUP2 DUP2 MSTORE POP POP PUSH1 0xB DUP3 GT ISZERO PUSH2 0x1001 JUMPI PUSH32 0x0 DUP2 PUSH1 0xB DUP2 MLOAD DUP2 LT PUSH2 0x2A22 JUMPI INVALID JUMPDEST PUSH1 0x20 MUL PUSH1 0x20 ADD ADD DUP2 DUP2 MSTORE POP POP PUSH1 0xC DUP3 GT ISZERO PUSH2 0x1001 JUMPI PUSH32 0x0 DUP2 PUSH1 0xC DUP2 MLOAD DUP2 LT PUSH2 0x2A65 JUMPI INVALID JUMPDEST PUSH1 0x20 MUL PUSH1 0x20 ADD ADD DUP2 DUP2 MSTORE POP POP PUSH1 0xD DUP3 GT ISZERO PUSH2 0x1001 JUMPI PUSH32 0x0 DUP2 PUSH1 0xD DUP2 MLOAD DUP2 LT PUSH2 0x2AA8 JUMPI INVALID JUMPDEST PUSH1 0x20 MUL PUSH1 0x20 ADD ADD DUP2 DUP2 MSTORE POP POP PUSH1 0xE DUP3 GT ISZERO PUSH2 0x1001 JUMPI PUSH32 0x0 DUP2 PUSH1 0xE DUP2 MLOAD DUP2 LT PUSH2 0x2AEB JUMPI INVALID JUMPDEST PUSH1 0x20 MUL PUSH1 0x20 ADD ADD DUP2 DUP2 MSTORE POP POP PUSH1 0xF DUP3 GT ISZERO PUSH2 0x1001 JUMPI PUSH32 0x0 DUP2 PUSH1 0xF DUP2 MLOAD DUP2 LT PUSH2 0x2B2E JUMPI INVALID JUMPDEST PUSH1 0x20 MUL PUSH1 0x20 ADD ADD DUP2 DUP2 MSTORE POP POP PUSH1 0x10 DUP3 GT ISZERO PUSH2 0x1001 JUMPI PUSH32 0x0 DUP2 PUSH1 0x10 DUP2 MLOAD DUP2 LT PUSH2 0x2B71 JUMPI INVALID JUMPDEST PUSH1 0x20 MUL PUSH1 0x20 ADD ADD DUP2 DUP2 MSTORE POP POP PUSH1 0x11 DUP3 GT ISZERO PUSH2 0x1001 JUMPI PUSH32 0x0 DUP2 PUSH1 0x11 DUP2 MLOAD DUP2 LT PUSH2 0x2BB4 JUMPI INVALID JUMPDEST PUSH1 0x20 MUL PUSH1 0x20 ADD ADD DUP2 DUP2 MSTORE POP POP PUSH1 0x12 DUP3 GT ISZERO PUSH2 0x1001 JUMPI PUSH32 0x0 DUP2 PUSH1 0x12 DUP2 MLOAD DUP2 LT PUSH2 0x2BF7 JUMPI INVALID JUMPDEST PUSH1 0x20 MUL PUSH1 0x20 ADD ADD DUP2 DUP2 MSTORE POP POP PUSH1 0x13 DUP3 GT ISZERO PUSH2 0x1001 JUMPI PUSH32 0x0 DUP2 PUSH1 0x13 DUP2 MLOAD DUP2 LT PUSH2 0x14F7 JUMPI INVALID JUMPDEST PUSH1 0x2 DUP2 MLOAD LT ISZERO PUSH2 0x2C49 JUMPI PUSH2 0x524 JUMP JUMPDEST PUSH1 0x0 DUP2 PUSH1 0x0 DUP2 MLOAD DUP2 LT PUSH2 0x2C58 JUMPI INVALID JUMPDEST PUSH1 0x20 MUL PUSH1 0x20 ADD ADD MLOAD SWAP1 POP PUSH1 0x0 PUSH1 0x1 SWAP1 POP JUMPDEST DUP3 MLOAD DUP2 LT ISZERO PUSH2 0x1973 JUMPI PUSH1 0x0 DUP4 DUP3 DUP2 MLOAD DUP2 LT PUSH2 0x2C80 JUMPI INVALID JUMPDEST PUSH1 0x20 MUL PUSH1 0x20 ADD ADD MLOAD SWAP1 POP PUSH2 0x2CA9 DUP2 PUSH1 0x1 PUSH1 0x1 PUSH1 0xA0 SHL SUB AND DUP5 PUSH1 0x1 PUSH1 0x1 PUSH1 0xA0 SHL SUB AND LT PUSH1 0x65 PUSH2 0x1509 JUMP JUMPDEST SWAP2 POP PUSH1 0x1 ADD PUSH2 0x2C69 JUMP JUMPDEST PUSH1 0x0 PUSH20 0xBA1BA1BA1BA1BA1BA1BA1BA1BA1BA1BA1BA1BA1B PUSH2 0x2CD2 PUSH2 0x84C JUMP JUMPDEST PUSH1 0x1 PUSH1 0x1 PUSH1 0xA0 SHL SUB AND EQ ISZERO DUP1 ISZERO PUSH2 0x2CED JUMPI POP PUSH2 0x2CED DUP4 PUSH2 0x3B22 JUMP JUMPDEST ISZERO PUSH2 0x2D15 JUMPI PUSH2 0x2CFA PUSH2 0x84C JUMP JUMPDEST PUSH1 0x1 PUSH1 0x1 PUSH1 0xA0 SHL SUB AND CALLER PUSH1 0x1 PUSH1 0x1 PUSH1 0xA0 SHL SUB AND EQ SWAP1 POP PUSH2 0x50D JUMP JUMPDEST PUSH2 0x2D1D PUSH2 0x24D9 JUMP JUMPDEST PUSH1 0x1 PUSH1 0x1 PUSH1 0xA0 SHL SUB AND PUSH4 0x9BE2A884 DUP5 DUP5 ADDRESS PUSH1 0x40 MLOAD DUP5 PUSH4 0xFFFFFFFF AND PUSH1 0xE0 SHL DUP2 MSTORE PUSH1 0x4 ADD PUSH2 0x2D4C SWAP4 SWAP3 SWAP2 SWAP1 PUSH2 0x575C JUMP JUMPDEST PUSH1 0x20 PUSH1 0x40 MLOAD DUP1 DUP4 SUB DUP2 DUP7 DUP1 EXTCODESIZE ISZERO DUP1 ISZERO PUSH2 0x2D64 JUMPI PUSH1 0x0 DUP1 REVERT JUMPDEST POP GAS STATICCALL ISZERO DUP1 ISZERO PUSH2 0x2D78 JUMPI RETURNDATASIZE PUSH1 0x0 DUP1 RETURNDATACOPY RETURNDATASIZE PUSH1 0x0 REVERT JUMPDEST POP POP POP POP PUSH1 0x40 MLOAD RETURNDATASIZE PUSH1 0x1F NOT PUSH1 0x1F DUP3 ADD AND DUP3 ADD DUP1 PUSH1 0x40 MSTORE POP DUP2 ADD SWAP1 PUSH2 0x2D9C SWAP2 SWAP1 PUSH2 0x521C JUMP JUMPDEST SWAP1 POP PUSH2 0x50D JUMP JUMPDEST PUSH3 0x461BCD PUSH1 0xE5 SHL PUSH1 0x0 SWAP1 DUP2 MSTORE PUSH1 0x20 PUSH1 0x4 MSTORE PUSH1 0x7 PUSH1 0x24 MSTORE PUSH7 0x42414C23000030 PUSH1 0xA DUP1 DUP5 DIV DUP2 DUP2 MOD PUSH1 0x30 SWAP1 DUP2 ADD PUSH1 0x8 SHL SWAP6 DUP4 SWAP1 MOD SWAP6 SWAP1 SWAP6 ADD SWAP1 DUP3 SWAP1 DIV SWAP2 DUP3 MOD SWAP1 SWAP5 ADD PUSH1 0x10 SHL SWAP4 SWAP1 SWAP4 ADD ADD PUSH1 0xC8 SHL PUSH1 0x44 MSTORE PUSH1 0x64 SWAP1 REVERT JUMPDEST PUSH1 0x0 PUSH2 0x2E05 DUP5 DUP5 GT ISZERO DUP4 PUSH2 0x1509 JUMP JUMPDEST POP POP SWAP1 SUB SWAP1 JUMP JUMPDEST CHAINID SWAP1 JUMP JUMPDEST PUSH1 0x60 PUSH1 0x0 PUSH2 0x2E1C PUSH2 0x1820 JUMP JUMPDEST PUSH1 0x1 PUSH1 0x1 PUSH1 0x40 SHL SUB DUP2 GT DUP1 ISZERO PUSH2 0x2E31 JUMPI PUSH1 0x0 DUP1 REVERT JUMPDEST POP PUSH1 0x40 MLOAD SWAP1 DUP1 DUP3 MSTORE DUP1 PUSH1 0x20 MUL PUSH1 0x20 ADD DUP3 ADD PUSH1 0x40 MSTORE DUP1 ISZERO PUSH2 0x2E5B JUMPI DUP2 PUSH1 0x20 ADD PUSH1 0x20 DUP3 MUL DUP1 CALLDATASIZE DUP4 CALLDATACOPY ADD SWAP1 POP JUMPDEST POP SWAP1 POP DUP3 PUSH2 0x2E6A JUMPI SWAP1 POP PUSH2 0x2EB7 JUMP JUMPDEST PUSH2 0x2E9D DUP9 DUP8 DUP2 MLOAD DUP2 LT PUSH2 0x2E79 JUMPI INVALID JUMPDEST PUSH1 0x20 MUL PUSH1 0x20 ADD ADD MLOAD DUP9 DUP9 DUP2 MLOAD DUP2 LT PUSH2 0x2E8D JUMPI INVALID JUMPDEST PUSH1 0x20 MUL PUSH1 0x20 ADD ADD MLOAD DUP8 DUP8 DUP8 PUSH2 0x3B54 JUMP JUMPDEST DUP2 DUP8 DUP2 MLOAD DUP2 LT PUSH2 0x2EA9 JUMPI INVALID JUMPDEST PUSH1 0x20 SWAP1 DUP2 MUL SWAP2 SWAP1 SWAP2 ADD ADD MSTORE SWAP1 POP JUMPDEST SWAP7 SWAP6 POP POP POP POP POP POP JUMP JUMPDEST PUSH1 0x0 JUMPDEST PUSH2 0x2ECC PUSH2 0x1820 JUMP JUMPDEST DUP2 LT ISZERO PUSH2 0x2F26 JUMPI PUSH2 0x2F07 DUP5 DUP3 DUP2 MLOAD DUP2 LT PUSH2 0x2EE2 JUMPI INVALID JUMPDEST PUSH1 0x20 MUL PUSH1 0x20 ADD ADD MLOAD DUP5 DUP4 DUP2 MLOAD DUP2 LT PUSH2 0x2EF6 JUMPI INVALID JUMPDEST PUSH1 0x20 MUL PUSH1 0x20 ADD ADD MLOAD DUP5 PUSH4 0xFFFFFFFF AND JUMP JUMPDEST DUP5 DUP3 DUP2 MLOAD DUP2 LT PUSH2 0x2F13 JUMPI INVALID JUMPDEST PUSH1 0x20 SWAP1 DUP2 MUL SWAP2 SWAP1 SWAP2 ADD ADD MSTORE PUSH1 0x1 ADD PUSH2 0x2EC4 JUMP JUMPDEST POP POP POP POP JUMP JUMPDEST PUSH1 0x0 PUSH1 0x60 PUSH1 0x0 PUSH2 0x2F3B DUP5 PUSH2 0x3A68 JUMP JUMPDEST SWAP1 POP PUSH1 0x0 DUP2 PUSH1 0x2 DUP2 GT ISZERO PUSH2 0x2F4B JUMPI INVALID JUMPDEST EQ ISZERO PUSH2 0x2F66 JUMPI PUSH2 0x2F5C DUP8 DUP8 DUP7 PUSH2 0x3BCC JUMP JUMPDEST SWAP3 POP SWAP3 POP POP PUSH2 0x2F92 JUMP JUMPDEST PUSH1 0x1 DUP2 PUSH1 0x2 DUP2 GT ISZERO PUSH2 0x2F74 JUMPI INVALID JUMPDEST EQ ISZERO PUSH2 0x2F84 JUMPI PUSH2 0x2F5C DUP8 DUP6 PUSH2 0x3CAE JUMP JUMPDEST PUSH2 0x2F5C DUP8 DUP8 DUP8 DUP8 PUSH2 0x3CE0 JUMP JUMPDEST POP JUMPDEST SWAP5 POP SWAP5 SWAP3 POP POP POP JUMP JUMPDEST PUSH1 0x0 PUSH2 0x2FAA DUP5 DUP5 PUSH2 0xDDA PUSH2 0x2EC1 JUMP JUMPDEST PUSH2 0x2460 DUP3 DUP6 PUSH2 0x2587 JUMP JUMPDEST PUSH1 0x0 DUP3 DUP3 MUL PUSH2 0x2FCE DUP5 ISZERO DUP1 PUSH2 0x1AB7 JUMPI POP DUP4 DUP6 DUP4 DUP2 PUSH2 0x1AB4 JUMPI INVALID JUMPDEST PUSH8 0xDE0B6B3A7640000 SWAP1 DIV SWAP4 SWAP3 POP POP POP JUMP JUMPDEST PUSH2 0x2FF7 PUSH1 0x1 PUSH1 0x1 PUSH1 0xA0 SHL SUB DUP4 AND ISZERO ISZERO PUSH2 0x19B PUSH2 0x1509 JUMP JUMPDEST PUSH2 0x3003 DUP3 PUSH1 0x0 DUP4 PUSH2 0x1973 JUMP JUMPDEST PUSH1 0x1 PUSH1 0x1 PUSH1 0xA0 SHL SUB DUP3 AND PUSH1 0x0 SWAP1 DUP2 MSTORE PUSH1 0x20 DUP2 SWAP1 MSTORE PUSH1 0x40 SWAP1 KECCAK256 SLOAD PUSH2 0x3029 SWAP1 DUP3 PUSH2 0x1A1 PUSH2 0x2DF6 JUMP JUMPDEST PUSH1 0x1 PUSH1 0x1 PUSH1 0xA0 SHL SUB DUP4 AND PUSH1 0x0 SWAP1 DUP2 MSTORE PUSH1 0x20 DUP2 SWAP1 MSTORE PUSH1 0x40 SWAP1 KECCAK256 SSTORE PUSH1 0x2 SLOAD PUSH2 0x304F SWAP1 DUP3 PUSH2 0x3D4E JUMP JUMPDEST PUSH1 0x2 SSTORE PUSH1 0x40 MLOAD PUSH1 0x0 SWAP1 PUSH1 0x1 PUSH1 0x1 PUSH1 0xA0 SHL SUB DUP5 AND SWAP1 PUSH32 0xDDF252AD1BE2C89B69C2B068FC378DAA952BA7F163C4A11628F55A4DF523B3EF SWAP1 PUSH2 0x3090 SWAP1 DUP6 SWAP1 PUSH2 0x5753 JUMP JUMPDEST PUSH1 0x40 MLOAD DUP1 SWAP2 SUB SWAP1 LOG3 POP POP JUMP JUMPDEST PUSH1 0x0 PUSH1 0x60 PUSH1 0x0 PUSH2 0x30AB DUP5 PUSH2 0x3A68 JUMP JUMPDEST SWAP1 POP PUSH1 0x1 DUP2 PUSH1 0x2 DUP2 GT ISZERO PUSH2 0x30BB JUMPI INVALID JUMPDEST EQ ISZERO PUSH2 0x30CD JUMPI PUSH2 0x2F5C DUP8 DUP8 DUP8 DUP8 PUSH2 0x3D5C JUMP JUMPDEST PUSH1 0x2 DUP2 PUSH1 0x2 DUP2 GT ISZERO PUSH2 0x30DB JUMPI INVALID JUMPDEST EQ ISZERO PUSH2 0x30EC JUMPI PUSH2 0x2F5C DUP8 DUP8 DUP7 PUSH2 0x3DB9 JUMP JUMPDEST PUSH2 0x2F90 PUSH2 0x136 PUSH2 0x2DA3 JUMP JUMPDEST PUSH1 0x0 PUSH2 0x2FAA DUP5 DUP5 PUSH2 0xDB3 PUSH2 0x2EC1 JUMP JUMPDEST PUSH1 0x0 PUSH2 0x3115 DUP3 ISZERO ISZERO PUSH1 0x4 PUSH2 0x1509 JUMP JUMPDEST DUP3 PUSH2 0x3122 JUMPI POP PUSH1 0x0 PUSH2 0x50D JUMP JUMPDEST PUSH8 0xDE0B6B3A7640000 DUP4 DUP2 MUL SWAP1 PUSH2 0x313C SWAP1 DUP6 DUP4 DUP2 PUSH2 0x1AF4 JUMPI INVALID JUMPDEST DUP3 PUSH1 0x1 DUP3 SUB DUP2 PUSH2 0x3148 JUMPI INVALID JUMPDEST DIV PUSH1 0x1 ADD SWAP2 POP POP PUSH2 0x50D JUMP JUMPDEST PUSH1 0x0 DUP3 DUP3 MUL PUSH2 0x316E DUP5 ISZERO DUP1 PUSH2 0x1AB7 JUMPI POP DUP4 DUP6 DUP4 DUP2 PUSH2 0x1AB4 JUMPI INVALID JUMPDEST DUP1 PUSH2 0x317D JUMPI PUSH1 0x0 SWAP2 POP POP PUSH2 0x50D JUMP JUMPDEST PUSH8 0xDE0B6B3A7640000 PUSH1 0x0 NOT DUP3 ADD PUSH2 0x3148 JUMP JUMPDEST PUSH1 0x0 PUSH32 0x0 PUSH1 0x1 PUSH1 0x1 PUSH1 0xA0 SHL SUB AND DUP3 PUSH1 0x1 PUSH1 0x1 PUSH1 0xA0 SHL SUB AND EQ ISZERO PUSH2 0x31F3 JUMPI POP PUSH32 0x0 PUSH2 0x711 JUMP JUMPDEST PUSH32 0x0 PUSH1 0x1 PUSH1 0x1 PUSH1 0xA0 SHL SUB AND DUP3 PUSH1 0x1 PUSH1 0x1 PUSH1 0xA0 SHL SUB AND EQ ISZERO PUSH2 0x3254 JUMPI POP PUSH32 0x0 PUSH2 0x711 JUMP JUMPDEST PUSH32 0x0 PUSH1 0x1 PUSH1 0x1 PUSH1 0xA0 SHL SUB AND DUP3 PUSH1 0x1 PUSH1 0x1 PUSH1 0xA0 SHL SUB AND EQ ISZERO PUSH2 0x32B5 JUMPI POP PUSH32 0x0 PUSH2 0x711 JUMP JUMPDEST PUSH32 0x0 PUSH1 0x1 PUSH1 0x1 PUSH1 0xA0 SHL SUB AND DUP3 PUSH1 0x1 PUSH1 0x1 PUSH1 0xA0 SHL SUB AND EQ ISZERO PUSH2 0x3316 JUMPI POP PUSH32 0x0 PUSH2 0x711 JUMP JUMPDEST PUSH32 0x0 PUSH1 0x1 PUSH1 0x1 PUSH1 0xA0 SHL SUB AND DUP3 PUSH1 0x1 PUSH1 0x1 PUSH1 0xA0 SHL SUB AND EQ ISZERO PUSH2 0x3377 JUMPI POP PUSH32 0x0 PUSH2 0x711 JUMP JUMPDEST PUSH32 0x0 PUSH1 0x1 PUSH1 0x1 PUSH1 0xA0 SHL SUB AND DUP3 PUSH1 0x1 PUSH1 0x1 PUSH1 0xA0 SHL SUB AND EQ ISZERO PUSH2 0x33D8 JUMPI POP PUSH32 0x0 PUSH2 0x711 JUMP JUMPDEST PUSH32 0x0 PUSH1 0x1 PUSH1 0x1 PUSH1 0xA0 SHL SUB AND DUP3 PUSH1 0x1 PUSH1 0x1 PUSH1 0xA0 SHL SUB AND EQ ISZERO PUSH2 0x3439 JUMPI POP PUSH32 0x0 PUSH2 0x711 JUMP JUMPDEST PUSH32 0x0 PUSH1 0x1 PUSH1 0x1 PUSH1 0xA0 SHL SUB AND DUP3 PUSH1 0x1 PUSH1 0x1 PUSH1 0xA0 SHL SUB AND EQ ISZERO PUSH2 0x349A JUMPI POP PUSH32 0x0 PUSH2 0x711 JUMP JUMPDEST PUSH32 0x0 PUSH1 0x1 PUSH1 0x1 PUSH1 0xA0 SHL SUB AND DUP3 PUSH1 0x1 PUSH1 0x1 PUSH1 0xA0 SHL SUB AND EQ ISZERO PUSH2 0x34FB JUMPI POP PUSH32 0x0 PUSH2 0x711 JUMP JUMPDEST PUSH32 0x0 PUSH1 0x1 PUSH1 0x1 PUSH1 0xA0 SHL SUB AND DUP3 PUSH1 0x1 PUSH1 0x1 PUSH1 0xA0 SHL SUB AND EQ ISZERO PUSH2 0x355C JUMPI POP PUSH32 0x0 PUSH2 0x711 JUMP JUMPDEST PUSH32 0x0 PUSH1 0x1 PUSH1 0x1 PUSH1 0xA0 SHL SUB AND DUP3 PUSH1 0x1 PUSH1 0x1 PUSH1 0xA0 SHL SUB AND EQ ISZERO PUSH2 0x35BD JUMPI POP PUSH32 0x0 PUSH2 0x711 JUMP JUMPDEST PUSH32 0x0 PUSH1 0x1 PUSH1 0x1 PUSH1 0xA0 SHL SUB AND DUP3 PUSH1 0x1 PUSH1 0x1 PUSH1 0xA0 SHL SUB AND EQ ISZERO PUSH2 0x361E JUMPI POP PUSH32 0x0 PUSH2 0x711 JUMP JUMPDEST PUSH32 0x0 PUSH1 0x1 PUSH1 0x1 PUSH1 0xA0 SHL SUB AND DUP3 PUSH1 0x1 PUSH1 0x1 PUSH1 0xA0 SHL SUB AND EQ ISZERO PUSH2 0x367F JUMPI POP PUSH32 0x0 PUSH2 0x711 JUMP JUMPDEST PUSH32 0x0 PUSH1 0x1 PUSH1 0x1 PUSH1 0xA0 SHL SUB AND DUP3 PUSH1 0x1 PUSH1 0x1 PUSH1 0xA0 SHL SUB AND EQ ISZERO PUSH2 0x36E0 JUMPI POP PUSH32 0x0 PUSH2 0x711 JUMP JUMPDEST PUSH32 0x0 PUSH1 0x1 PUSH1 0x1 PUSH1 0xA0 SHL SUB AND DUP3 PUSH1 0x1 PUSH1 0x1 PUSH1 0xA0 SHL SUB AND EQ ISZERO PUSH2 0x3741 JUMPI POP PUSH32 0x0 PUSH2 0x711 JUMP JUMPDEST PUSH32 0x0 PUSH1 0x1 PUSH1 0x1 PUSH1 0xA0 SHL SUB AND DUP3 PUSH1 0x1 PUSH1 0x1 PUSH1 0xA0 SHL SUB AND EQ ISZERO PUSH2 0x37A2 JUMPI POP PUSH32 0x0 PUSH2 0x711 JUMP JUMPDEST PUSH32 0x0 PUSH1 0x1 PUSH1 0x1 PUSH1 0xA0 SHL SUB AND DUP3 PUSH1 0x1 PUSH1 0x1 PUSH1 0xA0 SHL SUB AND EQ ISZERO PUSH2 0x3803 JUMPI POP PUSH32 0x0 PUSH2 0x711 JUMP JUMPDEST PUSH32 0x0 PUSH1 0x1 PUSH1 0x1 PUSH1 0xA0 SHL SUB AND DUP3 PUSH1 0x1 PUSH1 0x1 PUSH1 0xA0 SHL SUB AND EQ ISZERO PUSH2 0x3864 JUMPI POP PUSH32 0x0 PUSH2 0x711 JUMP JUMPDEST PUSH32 0x0 PUSH1 0x1 PUSH1 0x1 PUSH1 0xA0 SHL SUB AND DUP3 PUSH1 0x1 PUSH1 0x1 PUSH1 0xA0 SHL SUB AND EQ ISZERO PUSH2 0x38C5 JUMPI POP PUSH32 0x0 PUSH2 0x711 JUMP JUMPDEST PUSH32 0x0 PUSH1 0x1 PUSH1 0x1 PUSH1 0xA0 SHL SUB AND DUP3 PUSH1 0x1 PUSH1 0x1 PUSH1 0xA0 SHL SUB AND EQ ISZERO PUSH2 0x23F5 JUMPI POP PUSH32 0x0 PUSH2 0x711 JUMP JUMPDEST PUSH1 0x0 PUSH2 0x3948 PUSH2 0x393D DUP8 PUSH8 0x429D069189E0000 PUSH2 0x2FB4 JUMP JUMPDEST DUP4 GT ISZERO PUSH2 0x130 PUSH2 0x1509 JUMP JUMPDEST PUSH1 0x0 PUSH2 0x3954 DUP8 DUP5 PUSH2 0xDB3 JUMP JUMPDEST SWAP1 POP PUSH1 0x0 PUSH2 0x3962 DUP9 DUP4 PUSH2 0x3106 JUMP JUMPDEST SWAP1 POP PUSH1 0x0 PUSH2 0x3970 DUP9 DUP8 PUSH2 0x1ABE JUMP JUMPDEST SWAP1 POP PUSH1 0x0 PUSH2 0x397E DUP4 DUP4 PUSH2 0x3E65 JUMP JUMPDEST SWAP1 POP PUSH2 0x3993 PUSH2 0x398C DUP3 PUSH2 0x3E91 JUMP JUMPDEST DUP10 SWAP1 PUSH2 0x2FB4 JUMP JUMPDEST SWAP5 POP POP POP POP POP JUMPDEST SWAP6 SWAP5 POP POP POP POP POP JUMP JUMPDEST PUSH1 0x0 PUSH2 0x39C5 PUSH2 0x39BA DUP6 PUSH8 0x429D069189E0000 PUSH2 0x2FB4 JUMP JUMPDEST DUP4 GT ISZERO PUSH2 0x131 PUSH2 0x1509 JUMP JUMPDEST PUSH1 0x0 PUSH2 0x39DB PUSH2 0x39D4 DUP7 DUP6 PUSH2 0xDDA JUMP JUMPDEST DUP7 SWAP1 PUSH2 0x3106 JUMP JUMPDEST SWAP1 POP PUSH1 0x0 PUSH2 0x39E9 DUP6 DUP9 PUSH2 0x3106 JUMP JUMPDEST SWAP1 POP PUSH1 0x0 PUSH2 0x39F7 DUP4 DUP4 PUSH2 0x3E65 JUMP JUMPDEST SWAP1 POP PUSH1 0x0 PUSH2 0x3A0D DUP3 PUSH8 0xDE0B6B3A7640000 PUSH2 0xDDA JUMP JUMPDEST SWAP1 POP PUSH2 0x3993 DUP11 DUP3 PUSH2 0x3154 JUMP JUMPDEST PUSH1 0x0 DUP1 PUSH2 0x3A26 DUP5 DUP5 PUSH2 0x3EB7 JUMP JUMPDEST SWAP1 POP PUSH1 0x0 PUSH2 0x3A40 PUSH2 0x3A39 DUP4 PUSH2 0x2710 PUSH2 0x3154 JUMP JUMPDEST PUSH1 0x1 PUSH2 0xDB3 JUMP JUMPDEST SWAP1 POP DUP1 DUP3 LT ISZERO PUSH2 0x3A55 JUMPI PUSH1 0x0 SWAP3 POP POP POP PUSH2 0x50D JUMP JUMPDEST PUSH2 0x3A5F DUP3 DUP3 PUSH2 0xDDA JUMP JUMPDEST SWAP3 POP POP POP PUSH2 0x50D JUMP JUMPDEST PUSH1 0x0 DUP2 DUP1 PUSH1 0x20 ADD SWAP1 MLOAD DUP2 ADD SWAP1 PUSH2 0x50D SWAP2 SWAP1 PUSH2 0x53C5 JUMP JUMPDEST PUSH1 0x60 DUP2 DUP1 PUSH1 0x20 ADD SWAP1 MLOAD DUP2 ADD SWAP1 PUSH2 0x5D4 SWAP2 SWAP1 PUSH2 0x548A JUMP JUMPDEST PUSH2 0x3AA0 PUSH1 0x0 DUP4 DUP4 PUSH2 0x1973 JUMP JUMPDEST PUSH1 0x2 SLOAD PUSH2 0x3AAD SWAP1 DUP3 PUSH2 0xDB3 JUMP JUMPDEST PUSH1 0x2 SSTORE PUSH1 0x1 PUSH1 0x1 PUSH1 0xA0 SHL SUB DUP3 AND PUSH1 0x0 SWAP1 DUP2 MSTORE PUSH1 0x20 DUP2 SWAP1 MSTORE PUSH1 0x40 SWAP1 KECCAK256 SLOAD PUSH2 0x3AD3 SWAP1 DUP3 PUSH2 0xDB3 JUMP JUMPDEST PUSH1 0x1 PUSH1 0x1 PUSH1 0xA0 SHL SUB DUP4 AND PUSH1 0x0 DUP2 DUP2 MSTORE PUSH1 0x20 DUP2 SWAP1 MSTORE PUSH1 0x40 DUP1 DUP3 KECCAK256 SWAP4 SWAP1 SWAP4 SSTORE SWAP2 MLOAD SWAP1 SWAP2 SWAP1 PUSH32 0xDDF252AD1BE2C89B69C2B068FC378DAA952BA7F163C4A11628F55A4DF523B3EF SWAP1 PUSH2 0x3090 SWAP1 DUP6 SWAP1 PUSH2 0x5753 JUMP JUMPDEST PUSH1 0x0 PUSH2 0x3B34 PUSH4 0x1C74C917 PUSH1 0xE1 SHL PUSH2 0x7D4 JUMP JUMPDEST DUP3 EQ DUP1 PUSH2 0x50D JUMPI POP PUSH2 0x3B4C PUSH4 0x50DD6ED9 PUSH1 0xE0 SHL PUSH2 0x7D4 JUMP JUMPDEST SWAP1 SWAP2 EQ SWAP2 SWAP1 POP JUMP JUMPDEST PUSH1 0x0 DUP4 DUP4 GT PUSH2 0x3B65 JUMPI POP PUSH1 0x0 PUSH2 0x399A JUMP JUMPDEST PUSH1 0x0 PUSH2 0x3B71 DUP6 DUP6 PUSH2 0x3106 JUMP JUMPDEST SWAP1 POP PUSH1 0x0 PUSH2 0x3B87 PUSH8 0xDE0B6B3A7640000 DUP9 PUSH2 0x1ABE JUMP JUMPDEST SWAP1 POP PUSH2 0x3B9B DUP3 PUSH8 0x9B6E64A8EC60000 PUSH2 0x3FB8 JUMP JUMPDEST SWAP2 POP PUSH1 0x0 PUSH2 0x3BA9 DUP4 DUP4 PUSH2 0x3E65 JUMP JUMPDEST SWAP1 POP PUSH1 0x0 PUSH2 0x3BC0 PUSH2 0x3BB9 DUP4 PUSH2 0x3E91 JUMP JUMPDEST DUP12 SWAP1 PUSH2 0x2FB4 JUMP JUMPDEST SWAP1 POP PUSH2 0x3993 DUP2 DUP8 PUSH2 0x2FB4 JUMP JUMPDEST PUSH1 0x0 PUSH1 0x60 PUSH2 0x3BD8 PUSH2 0x1694 JUMP JUMPDEST PUSH1 0x0 DUP1 PUSH2 0x3BE4 DUP6 PUSH2 0x3FCF JUMP JUMPDEST SWAP2 POP SWAP2 POP PUSH2 0x3BFC PUSH2 0x3BF3 PUSH2 0x1820 JUMP JUMPDEST DUP3 LT PUSH1 0x64 PUSH2 0x1509 JUMP JUMPDEST PUSH1 0x0 PUSH2 0x3C06 PUSH2 0x1820 JUMP JUMPDEST PUSH1 0x1 PUSH1 0x1 PUSH1 0x40 SHL SUB DUP2 GT DUP1 ISZERO PUSH2 0x3C1B JUMPI PUSH1 0x0 DUP1 REVERT JUMPDEST POP PUSH1 0x40 MLOAD SWAP1 DUP1 DUP3 MSTORE DUP1 PUSH1 0x20 MUL PUSH1 0x20 ADD DUP3 ADD PUSH1 0x40 MSTORE DUP1 ISZERO PUSH2 0x3C45 JUMPI DUP2 PUSH1 0x20 ADD PUSH1 0x20 DUP3 MUL DUP1 CALLDATASIZE DUP4 CALLDATACOPY ADD SWAP1 POP JUMPDEST POP SWAP1 POP PUSH2 0x3C89 DUP9 DUP4 DUP2 MLOAD DUP2 LT PUSH2 0x3C57 JUMPI INVALID JUMPDEST PUSH1 0x20 MUL PUSH1 0x20 ADD ADD MLOAD DUP9 DUP5 DUP2 MLOAD DUP2 LT PUSH2 0x3C6B JUMPI INVALID JUMPDEST PUSH1 0x20 MUL PUSH1 0x20 ADD ADD MLOAD DUP6 PUSH2 0x3C7C PUSH2 0x527 JUMP JUMPDEST PUSH2 0x3C84 PUSH2 0x684 JUMP JUMPDEST PUSH2 0x3FF1 JUMP JUMPDEST DUP2 DUP4 DUP2 MLOAD DUP2 LT PUSH2 0x3C95 JUMPI INVALID JUMPDEST PUSH1 0x20 SWAP1 DUP2 MUL SWAP2 SWAP1 SWAP2 ADD ADD MSTORE SWAP2 SWAP8 SWAP2 SWAP7 POP SWAP1 SWAP5 POP POP POP POP POP JUMP JUMPDEST PUSH1 0x0 PUSH1 0x60 PUSH1 0x0 PUSH2 0x3CBD DUP5 PUSH2 0x40B7 JUMP JUMPDEST SWAP1 POP PUSH1 0x0 PUSH2 0x3CD3 DUP7 DUP4 PUSH2 0x3CCE PUSH2 0x527 JUMP JUMPDEST PUSH2 0x40CD JUMP JUMPDEST SWAP2 SWAP7 SWAP2 SWAP6 POP SWAP1 SWAP4 POP POP POP POP JUMP JUMPDEST PUSH1 0x0 PUSH1 0x60 PUSH2 0x3CEC PUSH2 0x1694 JUMP JUMPDEST PUSH1 0x0 DUP1 PUSH2 0x3CF8 DUP6 PUSH2 0x417E JUMP JUMPDEST SWAP2 POP SWAP2 POP PUSH2 0x3D09 DUP3 MLOAD PUSH2 0x6A6 PUSH2 0x1820 JUMP JUMPDEST PUSH2 0x3D13 DUP3 DUP8 PUSH2 0x1B0F JUMP JUMPDEST PUSH1 0x0 PUSH2 0x3D30 DUP10 DUP10 DUP6 PUSH2 0x3D23 PUSH2 0x527 JUMP JUMPDEST PUSH2 0x3D2B PUSH2 0x684 JUMP JUMPDEST PUSH2 0x4196 JUMP JUMPDEST SWAP1 POP PUSH2 0x3D40 DUP3 DUP3 GT ISZERO PUSH1 0xCF PUSH2 0x1509 JUMP JUMPDEST SWAP9 SWAP2 SWAP8 POP SWAP1 SWAP6 POP POP POP POP POP POP JUMP JUMPDEST PUSH1 0x0 PUSH2 0x5D4 DUP4 DUP4 PUSH1 0x1 PUSH2 0x2DF6 JUMP JUMPDEST PUSH1 0x0 PUSH1 0x60 PUSH1 0x0 DUP1 PUSH2 0x3D6C DUP6 PUSH2 0x417E JUMP JUMPDEST SWAP2 POP SWAP2 POP PUSH2 0x3D82 PUSH2 0x3D7B PUSH2 0x1820 JUMP JUMPDEST DUP4 MLOAD PUSH2 0xDA6 JUMP JUMPDEST PUSH2 0x3D8C DUP3 DUP8 PUSH2 0x1B0F JUMP JUMPDEST PUSH1 0x0 PUSH2 0x3DA9 DUP10 DUP10 DUP6 PUSH2 0x3D9C PUSH2 0x527 JUMP JUMPDEST PUSH2 0x3DA4 PUSH2 0x684 JUMP JUMPDEST PUSH2 0x43C2 JUMP JUMPDEST SWAP1 POP PUSH2 0x3D40 DUP3 DUP3 LT ISZERO PUSH1 0xD0 PUSH2 0x1509 JUMP JUMPDEST PUSH1 0x0 PUSH1 0x60 PUSH1 0x0 DUP1 PUSH2 0x3DC9 DUP6 PUSH2 0x3FCF JUMP JUMPDEST SWAP2 POP SWAP2 POP PUSH2 0x3DD8 PUSH2 0x3BF3 PUSH2 0x1820 JUMP JUMPDEST PUSH1 0x0 PUSH2 0x3DE2 PUSH2 0x1820 JUMP JUMPDEST PUSH1 0x1 PUSH1 0x1 PUSH1 0x40 SHL SUB DUP2 GT DUP1 ISZERO PUSH2 0x3DF7 JUMPI PUSH1 0x0 DUP1 REVERT JUMPDEST POP PUSH1 0x40 MLOAD SWAP1 DUP1 DUP3 MSTORE DUP1 PUSH1 0x20 MUL PUSH1 0x20 ADD DUP3 ADD PUSH1 0x40 MSTORE DUP1 ISZERO PUSH2 0x3E21 JUMPI DUP2 PUSH1 0x20 ADD PUSH1 0x20 DUP3 MUL DUP1 CALLDATASIZE DUP4 CALLDATACOPY ADD SWAP1 POP JUMPDEST POP SWAP1 POP PUSH2 0x3C89 DUP9 DUP4 DUP2 MLOAD DUP2 LT PUSH2 0x3E33 JUMPI INVALID JUMPDEST PUSH1 0x20 MUL PUSH1 0x20 ADD ADD MLOAD DUP9 DUP5 DUP2 MLOAD DUP2 LT PUSH2 0x3E47 JUMPI INVALID JUMPDEST PUSH1 0x20 MUL PUSH1 0x20 ADD ADD MLOAD DUP6 PUSH2 0x3E58 PUSH2 0x527 JUMP JUMPDEST PUSH2 0x3E60 PUSH2 0x684 JUMP JUMPDEST PUSH2 0x45D2 JUMP JUMPDEST PUSH1 0x0 DUP1 PUSH2 0x3E72 DUP5 DUP5 PUSH2 0x3EB7 JUMP JUMPDEST SWAP1 POP PUSH1 0x0 PUSH2 0x3E85 PUSH2 0x3A39 DUP4 PUSH2 0x2710 PUSH2 0x3154 JUMP JUMPDEST SWAP1 POP PUSH2 0x399A DUP3 DUP3 PUSH2 0xDB3 JUMP JUMPDEST PUSH1 0x0 PUSH8 0xDE0B6B3A7640000 DUP3 LT PUSH2 0x3EA9 JUMPI PUSH1 0x0 PUSH2 0x50D JUMP JUMPDEST POP PUSH8 0xDE0B6B3A7640000 SUB SWAP1 JUMP JUMPDEST PUSH1 0x0 DUP2 PUSH2 0x3ECD JUMPI POP PUSH8 0xDE0B6B3A7640000 PUSH2 0x50D JUMP JUMPDEST DUP3 PUSH2 0x3EDA JUMPI POP PUSH1 0x0 PUSH2 0x50D JUMP JUMPDEST PUSH2 0x3EEB PUSH1 0x1 PUSH1 0xFF SHL DUP5 LT PUSH1 0x6 PUSH2 0x1509 JUMP JUMPDEST DUP3 PUSH2 0x3F11 PUSH24 0xBCE5086492111AEA88F4BB1CA6BCF584181EA8059F76532 DUP5 LT PUSH1 0x7 PUSH2 0x1509 JUMP JUMPDEST DUP3 PUSH1 0x0 PUSH8 0xC7D713B49DA0000 DUP4 SGT DUP1 ISZERO PUSH2 0x3F32 JUMPI POP PUSH8 0xF43FC2C04EE0000 DUP4 SLT JUMPDEST ISZERO PUSH2 0x3F69 JUMPI PUSH1 0x0 PUSH2 0x3F42 DUP5 PUSH2 0x467D JUMP JUMPDEST SWAP1 POP PUSH8 0xDE0B6B3A7640000 DUP1 DUP3 SMOD DUP5 MUL SDIV DUP4 PUSH8 0xDE0B6B3A7640000 DUP4 SDIV MUL ADD SWAP2 POP POP PUSH2 0x3F77 JUMP JUMPDEST DUP2 PUSH2 0x3F73 DUP5 PUSH2 0x479B JUMP JUMPDEST MUL SWAP1 POP JUMPDEST PUSH8 0xDE0B6B3A7640000 SWAP1 SDIV PUSH2 0x3FAF PUSH9 0x238FD42C5CF03FFFF NOT DUP3 SLT DUP1 ISZERO SWAP1 PUSH2 0x3FA8 JUMPI POP PUSH9 0x70C1CC73B00C80000 DUP3 SGT ISZERO JUMPDEST PUSH1 0x8 PUSH2 0x1509 JUMP JUMPDEST PUSH2 0x2EB7 DUP2 PUSH2 0x4B3A JUMP JUMPDEST PUSH1 0x0 DUP2 DUP4 LT ISZERO PUSH2 0x3FC8 JUMPI DUP2 PUSH2 0x5D4 JUMP JUMPDEST POP SWAP1 SWAP2 SWAP1 POP JUMP JUMPDEST PUSH1 0x0 DUP1 DUP3 DUP1 PUSH1 0x20 ADD SWAP1 MLOAD DUP2 ADD SWAP1 PUSH2 0x3FE6 SWAP2 SWAP1 PUSH2 0x5454 JUMP JUMPDEST SWAP1 SWAP6 SWAP1 SWAP5 POP SWAP3 POP POP POP JUMP JUMPDEST PUSH1 0x0 DUP1 PUSH2 0x4008 DUP5 PUSH2 0x4002 DUP2 DUP9 PUSH2 0xDDA JUMP JUMPDEST SWAP1 PUSH2 0x3106 JUMP JUMPDEST SWAP1 POP PUSH2 0x4021 PUSH8 0x9B6E64A8EC60000 DUP3 LT ISZERO PUSH2 0x132 PUSH2 0x1509 JUMP JUMPDEST PUSH1 0x0 PUSH2 0x403F PUSH2 0x4038 PUSH8 0xDE0B6B3A7640000 DUP10 PUSH2 0x1ABE JUMP JUMPDEST DUP4 SWAP1 PUSH2 0x3E65 JUMP JUMPDEST SWAP1 POP PUSH1 0x0 PUSH2 0x4056 PUSH2 0x404F DUP4 PUSH2 0x3E91 JUMP JUMPDEST DUP11 SWAP1 PUSH2 0x2FB4 JUMP JUMPDEST SWAP1 POP PUSH1 0x0 PUSH2 0x4063 DUP10 PUSH2 0x3E91 JUMP JUMPDEST SWAP1 POP PUSH1 0x0 PUSH2 0x4071 DUP4 DUP4 PUSH2 0x3154 JUMP JUMPDEST SWAP1 POP PUSH1 0x0 PUSH2 0x407F DUP5 DUP4 PUSH2 0xDDA JUMP JUMPDEST SWAP1 POP PUSH2 0x40A7 PUSH2 0x40A0 PUSH2 0x4099 PUSH8 0xDE0B6B3A7640000 DUP12 PUSH2 0xDDA JUMP JUMPDEST DUP5 SWAP1 PUSH2 0x2FB4 JUMP JUMPDEST DUP3 SWAP1 PUSH2 0xDB3 JUMP JUMPDEST SWAP13 SWAP12 POP POP POP POP POP POP POP POP POP POP POP POP JUMP JUMPDEST PUSH1 0x0 DUP2 DUP1 PUSH1 0x20 ADD SWAP1 MLOAD DUP2 ADD SWAP1 PUSH2 0x5D4 SWAP2 SWAP1 PUSH2 0x5427 JUMP JUMPDEST PUSH1 0x60 PUSH1 0x0 PUSH2 0x40DB DUP5 DUP5 PUSH2 0x1ABE JUMP JUMPDEST SWAP1 POP PUSH1 0x0 DUP6 MLOAD PUSH1 0x1 PUSH1 0x1 PUSH1 0x40 SHL SUB DUP2 GT DUP1 ISZERO PUSH2 0x40F6 JUMPI PUSH1 0x0 DUP1 REVERT JUMPDEST POP PUSH1 0x40 MLOAD SWAP1 DUP1 DUP3 MSTORE DUP1 PUSH1 0x20 MUL PUSH1 0x20 ADD DUP3 ADD PUSH1 0x40 MSTORE DUP1 ISZERO PUSH2 0x4120 JUMPI DUP2 PUSH1 0x20 ADD PUSH1 0x20 DUP3 MUL DUP1 CALLDATASIZE DUP4 CALLDATACOPY ADD SWAP1 POP JUMPDEST POP SWAP1 POP PUSH1 0x0 JUMPDEST DUP7 MLOAD DUP2 LT ISZERO PUSH2 0x4174 JUMPI PUSH2 0x4155 DUP4 DUP9 DUP4 DUP2 MLOAD DUP2 LT PUSH2 0x413F JUMPI INVALID JUMPDEST PUSH1 0x20 MUL PUSH1 0x20 ADD ADD MLOAD PUSH2 0x2FB4 SWAP1 SWAP2 SWAP1 PUSH4 0xFFFFFFFF AND JUMP JUMPDEST DUP3 DUP3 DUP2 MLOAD DUP2 LT PUSH2 0x4161 JUMPI INVALID JUMPDEST PUSH1 0x20 SWAP1 DUP2 MUL SWAP2 SWAP1 SWAP2 ADD ADD MSTORE PUSH1 0x1 ADD PUSH2 0x4126 JUMP JUMPDEST POP SWAP6 SWAP5 POP POP POP POP POP JUMP JUMPDEST PUSH1 0x60 PUSH1 0x0 DUP3 DUP1 PUSH1 0x20 ADD SWAP1 MLOAD DUP2 ADD SWAP1 PUSH2 0x3FE6 SWAP2 SWAP1 PUSH2 0x53E1 JUMP JUMPDEST PUSH1 0x0 DUP1 DUP5 MLOAD PUSH1 0x1 PUSH1 0x1 PUSH1 0x40 SHL SUB DUP2 GT DUP1 ISZERO PUSH2 0x41B0 JUMPI PUSH1 0x0 DUP1 REVERT JUMPDEST POP PUSH1 0x40 MLOAD SWAP1 DUP1 DUP3 MSTORE DUP1 PUSH1 0x20 MUL PUSH1 0x20 ADD DUP3 ADD PUSH1 0x40 MSTORE DUP1 ISZERO PUSH2 0x41DA JUMPI DUP2 PUSH1 0x20 ADD PUSH1 0x20 DUP3 MUL DUP1 CALLDATASIZE DUP4 CALLDATACOPY ADD SWAP1 POP JUMPDEST POP SWAP1 POP PUSH1 0x0 DUP1 JUMPDEST DUP9 MLOAD DUP2 LT ISZERO PUSH2 0x429F JUMPI PUSH2 0x423A DUP10 DUP3 DUP2 MLOAD DUP2 LT PUSH2 0x41F9 JUMPI INVALID JUMPDEST PUSH1 0x20 MUL PUSH1 0x20 ADD ADD MLOAD PUSH2 0x4002 DUP10 DUP5 DUP2 MLOAD DUP2 LT PUSH2 0x4210 JUMPI INVALID JUMPDEST PUSH1 0x20 MUL PUSH1 0x20 ADD ADD MLOAD DUP13 DUP6 DUP2 MLOAD DUP2 LT PUSH2 0x4224 JUMPI INVALID JUMPDEST PUSH1 0x20 MUL PUSH1 0x20 ADD ADD MLOAD PUSH2 0xDDA SWAP1 SWAP2 SWAP1 PUSH4 0xFFFFFFFF AND JUMP JUMPDEST DUP4 DUP3 DUP2 MLOAD DUP2 LT PUSH2 0x4246 JUMPI INVALID JUMPDEST PUSH1 0x20 MUL PUSH1 0x20 ADD ADD DUP2 DUP2 MSTORE POP POP PUSH2 0x4295 PUSH2 0x428E DUP10 DUP4 DUP2 MLOAD DUP2 LT PUSH2 0x4264 JUMPI INVALID JUMPDEST PUSH1 0x20 MUL PUSH1 0x20 ADD ADD MLOAD DUP6 DUP5 DUP2 MLOAD DUP2 LT PUSH2 0x4278 JUMPI INVALID JUMPDEST PUSH1 0x20 MUL PUSH1 0x20 ADD ADD MLOAD PUSH2 0x3154 SWAP1 SWAP2 SWAP1 PUSH4 0xFFFFFFFF AND JUMP JUMPDEST DUP4 SWAP1 PUSH2 0xDB3 JUMP JUMPDEST SWAP2 POP PUSH1 0x1 ADD PUSH2 0x41E1 JUMP JUMPDEST POP PUSH8 0xDE0B6B3A7640000 PUSH1 0x0 JUMPDEST DUP10 MLOAD DUP2 LT ISZERO PUSH2 0x43A1 JUMPI PUSH1 0x0 DUP5 DUP3 DUP2 MLOAD DUP2 LT PUSH2 0x42C3 JUMPI INVALID JUMPDEST PUSH1 0x20 MUL PUSH1 0x20 ADD ADD MLOAD DUP5 GT ISZERO PUSH2 0x4323 JUMPI PUSH1 0x0 PUSH2 0x42EC PUSH2 0x42E0 DUP7 PUSH2 0x3E91 JUMP JUMPDEST DUP14 DUP6 DUP2 MLOAD DUP2 LT PUSH2 0x413F JUMPI INVALID JUMPDEST SWAP1 POP PUSH1 0x0 PUSH2 0x4300 DUP3 DUP13 DUP7 DUP2 MLOAD DUP2 LT PUSH2 0x4224 JUMPI INVALID JUMPDEST SWAP1 POP PUSH2 0x431A PUSH2 0x428E PUSH2 0x24D2 PUSH8 0xDE0B6B3A7640000 DUP13 PUSH2 0xDDA JUMP JUMPDEST SWAP3 POP POP POP PUSH2 0x433A JUMP JUMPDEST DUP9 DUP3 DUP2 MLOAD DUP2 LT PUSH2 0x432F JUMPI INVALID JUMPDEST PUSH1 0x20 MUL PUSH1 0x20 ADD ADD MLOAD SWAP1 POP JUMPDEST PUSH1 0x0 PUSH2 0x4363 DUP13 DUP5 DUP2 MLOAD DUP2 LT PUSH2 0x434B JUMPI INVALID JUMPDEST PUSH1 0x20 MUL PUSH1 0x20 ADD ADD MLOAD PUSH2 0x6F1 DUP5 DUP16 DUP8 DUP2 MLOAD DUP2 LT PUSH2 0x4224 JUMPI INVALID JUMPDEST SWAP1 POP PUSH2 0x4395 PUSH2 0x438E DUP13 DUP6 DUP2 MLOAD DUP2 LT PUSH2 0x4377 JUMPI INVALID JUMPDEST PUSH1 0x20 MUL PUSH1 0x20 ADD ADD MLOAD DUP4 PUSH2 0x3A19 SWAP1 SWAP2 SWAP1 PUSH4 0xFFFFFFFF AND JUMP JUMPDEST DUP6 SWAP1 PUSH2 0x2FB4 JUMP JUMPDEST SWAP4 POP POP POP PUSH1 0x1 ADD PUSH2 0x42AC JUMP JUMPDEST POP PUSH2 0x43B5 PUSH2 0x43AE DUP3 PUSH2 0x3E91 JUMP JUMPDEST DUP8 SWAP1 PUSH2 0x3154 JUMP JUMPDEST SWAP10 SWAP9 POP POP POP POP POP POP POP POP POP JUMP JUMPDEST PUSH1 0x0 DUP1 DUP5 MLOAD PUSH1 0x1 PUSH1 0x1 PUSH1 0x40 SHL SUB DUP2 GT DUP1 ISZERO PUSH2 0x43DC JUMPI PUSH1 0x0 DUP1 REVERT JUMPDEST POP PUSH1 0x40 MLOAD SWAP1 DUP1 DUP3 MSTORE DUP1 PUSH1 0x20 MUL PUSH1 0x20 ADD DUP3 ADD PUSH1 0x40 MSTORE DUP1 ISZERO PUSH2 0x4406 JUMPI DUP2 PUSH1 0x20 ADD PUSH1 0x20 DUP3 MUL DUP1 CALLDATASIZE DUP4 CALLDATACOPY ADD SWAP1 POP JUMPDEST POP SWAP1 POP PUSH1 0x0 DUP1 JUMPDEST DUP9 MLOAD DUP2 LT ISZERO PUSH2 0x44AE JUMPI PUSH2 0x4466 DUP10 DUP3 DUP2 MLOAD DUP2 LT PUSH2 0x4425 JUMPI INVALID JUMPDEST PUSH1 0x20 MUL PUSH1 0x20 ADD ADD MLOAD PUSH2 0x6F1 DUP10 DUP5 DUP2 MLOAD DUP2 LT PUSH2 0x443C JUMPI INVALID JUMPDEST PUSH1 0x20 MUL PUSH1 0x20 ADD ADD MLOAD DUP13 DUP6 DUP2 MLOAD DUP2 LT PUSH2 0x4450 JUMPI INVALID JUMPDEST PUSH1 0x20 MUL PUSH1 0x20 ADD ADD MLOAD PUSH2 0xDB3 SWAP1 SWAP2 SWAP1 PUSH4 0xFFFFFFFF AND JUMP JUMPDEST DUP4 DUP3 DUP2 MLOAD DUP2 LT PUSH2 0x4472 JUMPI INVALID JUMPDEST PUSH1 0x20 MUL PUSH1 0x20 ADD ADD DUP2 DUP2 MSTORE POP POP PUSH2 0x44A4 PUSH2 0x428E DUP10 DUP4 DUP2 MLOAD DUP2 LT PUSH2 0x4490 JUMPI INVALID JUMPDEST PUSH1 0x20 MUL PUSH1 0x20 ADD ADD MLOAD DUP6 DUP5 DUP2 MLOAD DUP2 LT PUSH2 0x413F JUMPI INVALID JUMPDEST SWAP2 POP PUSH1 0x1 ADD PUSH2 0x440D JUMP JUMPDEST POP PUSH8 0xDE0B6B3A7640000 PUSH1 0x0 JUMPDEST DUP10 MLOAD DUP2 LT ISZERO PUSH2 0x458F JUMPI PUSH1 0x0 DUP4 DUP6 DUP4 DUP2 MLOAD DUP2 LT PUSH2 0x44D3 JUMPI INVALID JUMPDEST PUSH1 0x20 MUL PUSH1 0x20 ADD ADD MLOAD GT ISZERO PUSH2 0x452F JUMPI PUSH1 0x0 PUSH2 0x44F8 PUSH2 0x42E0 DUP7 PUSH8 0xDE0B6B3A7640000 PUSH2 0xDDA JUMP JUMPDEST SWAP1 POP PUSH1 0x0 PUSH2 0x450C DUP3 DUP13 DUP7 DUP2 MLOAD DUP2 LT PUSH2 0x4224 JUMPI INVALID JUMPDEST SWAP1 POP PUSH2 0x4526 PUSH2 0x428E PUSH2 0x25D8 PUSH8 0xDE0B6B3A7640000 DUP13 PUSH2 0xDDA JUMP JUMPDEST SWAP3 POP POP POP PUSH2 0x4546 JUMP JUMPDEST DUP9 DUP3 DUP2 MLOAD DUP2 LT PUSH2 0x453B JUMPI INVALID JUMPDEST PUSH1 0x20 MUL PUSH1 0x20 ADD ADD MLOAD SWAP1 POP JUMPDEST PUSH1 0x0 PUSH2 0x456F DUP13 DUP5 DUP2 MLOAD DUP2 LT PUSH2 0x4557 JUMPI INVALID JUMPDEST PUSH1 0x20 MUL PUSH1 0x20 ADD ADD MLOAD PUSH2 0x6F1 DUP5 DUP16 DUP8 DUP2 MLOAD DUP2 LT PUSH2 0x4450 JUMPI INVALID JUMPDEST SWAP1 POP PUSH2 0x4583 PUSH2 0x438E DUP13 DUP6 DUP2 MLOAD DUP2 LT PUSH2 0x4377 JUMPI INVALID JUMPDEST SWAP4 POP POP POP PUSH1 0x1 ADD PUSH2 0x44BB JUMP JUMPDEST POP PUSH8 0xDE0B6B3A7640000 DUP2 GT ISZERO PUSH2 0x45C6 JUMPI PUSH2 0x45BC PUSH2 0x45B5 DUP3 PUSH8 0xDE0B6B3A7640000 PUSH2 0xDDA JUMP JUMPDEST DUP8 SWAP1 PUSH2 0x2FB4 JUMP JUMPDEST SWAP4 POP POP POP POP PUSH2 0x399A JUMP JUMPDEST PUSH1 0x0 SWAP4 POP POP POP POP PUSH2 0x399A JUMP JUMPDEST PUSH1 0x0 DUP1 PUSH2 0x45E3 DUP5 PUSH2 0x4002 DUP2 DUP9 PUSH2 0xDB3 JUMP JUMPDEST SWAP1 POP PUSH2 0x45FC PUSH8 0x29A2241AF62C0000 DUP3 GT ISZERO PUSH2 0x133 PUSH2 0x1509 JUMP JUMPDEST PUSH1 0x0 PUSH2 0x4613 PUSH2 0x4038 PUSH8 0xDE0B6B3A7640000 DUP10 PUSH2 0x3106 JUMP JUMPDEST SWAP1 POP PUSH1 0x0 PUSH2 0x4633 PUSH2 0x462C DUP4 PUSH8 0xDE0B6B3A7640000 PUSH2 0xDDA JUMP JUMPDEST DUP11 SWAP1 PUSH2 0x3154 JUMP JUMPDEST SWAP1 POP PUSH1 0x0 PUSH2 0x4640 DUP10 PUSH2 0x3E91 JUMP JUMPDEST SWAP1 POP PUSH1 0x0 PUSH2 0x464E DUP4 DUP4 PUSH2 0x3154 JUMP JUMPDEST SWAP1 POP PUSH1 0x0 PUSH2 0x465C DUP5 DUP4 PUSH2 0xDDA JUMP JUMPDEST SWAP1 POP PUSH2 0x40A7 PUSH2 0x40A0 PUSH2 0x4676 PUSH8 0xDE0B6B3A7640000 DUP12 PUSH2 0xDDA JUMP JUMPDEST DUP5 SWAP1 PUSH2 0x3106 JUMP JUMPDEST PUSH8 0xDE0B6B3A7640000 MUL PUSH1 0x0 DUP1 PUSH11 0xC097CE7BC90715B34B9F1 PUSH1 0x24 SHL DUP1 DUP5 ADD SWAP1 PUSH15 0xC097CE7BC90715B34B9F0FFFFFFFFF NOT DUP6 ADD MUL DUP2 PUSH2 0x46B8 JUMPI INVALID JUMPDEST SDIV SWAP1 POP PUSH1 0x0 PUSH11 0xC097CE7BC90715B34B9F1 PUSH1 0x24 SHL DUP3 DUP1 MUL SDIV SWAP1 POP DUP2 DUP1 PUSH11 0xC097CE7BC90715B34B9F1 PUSH1 0x24 SHL DUP2 DUP5 MUL SDIV SWAP2 POP PUSH1 0x3 DUP3 SDIV ADD PUSH11 0xC097CE7BC90715B34B9F1 PUSH1 0x24 SHL DUP3 DUP5 MUL SDIV SWAP2 POP PUSH1 0x5 DUP3 SDIV ADD PUSH11 0xC097CE7BC90715B34B9F1 PUSH1 0x24 SHL DUP3 DUP5 MUL SDIV SWAP2 POP PUSH1 0x7 DUP3 SDIV ADD PUSH11 0xC097CE7BC90715B34B9F1 PUSH1 0x24 SHL DUP3 DUP5 MUL SDIV SWAP2 POP PUSH1 0x9 DUP3 SDIV ADD PUSH11 0xC097CE7BC90715B34B9F1 PUSH1 0x24 SHL DUP3 DUP5 MUL SDIV SWAP2 POP PUSH1 0xB DUP3 SDIV ADD PUSH11 0xC097CE7BC90715B34B9F1 PUSH1 0x24 SHL DUP3 DUP5 MUL SDIV SWAP2 POP PUSH1 0xD DUP3 SDIV ADD PUSH11 0xC097CE7BC90715B34B9F1 PUSH1 0x24 SHL DUP3 DUP5 MUL SDIV SWAP2 POP PUSH1 0xF DUP3 PUSH1 0x2 SWAP2 SWAP1 SDIV SWAP2 SWAP1 SWAP2 ADD MUL SWAP6 SWAP5 POP POP POP POP POP JUMP JUMPDEST PUSH1 0x0 PUSH8 0xDE0B6B3A7640000 DUP3 SLT ISZERO PUSH2 0x47D7 JUMPI PUSH2 0x47CD DUP3 PUSH11 0xC097CE7BC90715B34B9F1 PUSH1 0x24 SHL DUP2 PUSH2 0x47C7 JUMPI INVALID JUMPDEST SDIV PUSH2 0x479B JUMP JUMPDEST PUSH1 0x0 SUB SWAP1 POP PUSH2 0x711 JUMP JUMPDEST PUSH1 0x0 PUSH31 0x1600EF3172E58D2E933EC884FDE10064C63B5372D805E203C0000000000000 DUP4 SLT PUSH2 0x4828 JUMPI PUSH24 0x195E54C5DD42177F53A27172FA9EC630262827000000000 DUP4 SDIV SWAP3 POP PUSH9 0x6F05B59D3B2000000 ADD JUMPDEST PUSH20 0x11798004D755D3C8BC8E03204CF44619E000000 DUP4 SLT PUSH2 0x4860 JUMPI PUSH12 0x1425982CF597CD205CEF7380 DUP4 SDIV SWAP3 POP PUSH9 0x3782DACE9D9000000 ADD JUMPDEST PUSH1 0x64 SWAP3 DUP4 MUL SWAP3 MUL PUSH15 0x1855144814A7FF805980FF0084000 DUP4 SLT PUSH2 0x48A8 JUMPI PUSH15 0x1855144814A7FF805980FF0084000 PUSH9 0x56BC75E2D63100000 DUP5 MUL SDIV SWAP3 POP PUSH9 0xAD78EBC5AC62000000 ADD JUMPDEST PUSH12 0x2DF0AB5A80A22C61AB5A700 DUP4 SLT PUSH2 0x48E3 JUMPI PUSH12 0x2DF0AB5A80A22C61AB5A700 PUSH9 0x56BC75E2D63100000 DUP5 MUL SDIV SWAP3 POP PUSH9 0x56BC75E2D631000000 ADD JUMPDEST PUSH10 0x3F1FCE3DA636EA5CF850 DUP4 SLT PUSH2 0x491A JUMPI PUSH10 0x3F1FCE3DA636EA5CF850 PUSH9 0x56BC75E2D63100000 DUP5 MUL SDIV SWAP3 POP PUSH9 0x2B5E3AF16B18800000 ADD JUMPDEST PUSH10 0x127FA27722CC06CC5E2 DUP4 SLT PUSH2 0x4951 JUMPI PUSH10 0x127FA27722CC06CC5E2 PUSH9 0x56BC75E2D63100000 DUP5 MUL SDIV SWAP3 POP PUSH9 0x15AF1D78B58C400000 ADD JUMPDEST PUSH9 0x280E60114EDB805D03 DUP4 SLT PUSH2 0x4986 JUMPI PUSH9 0x280E60114EDB805D03 PUSH9 0x56BC75E2D63100000 DUP5 MUL SDIV SWAP3 POP PUSH9 0xAD78EBC5AC6200000 ADD JUMPDEST PUSH9 0xEBC5FB41746121110 DUP4 SLT PUSH2 0x49B1 JUMPI PUSH9 0xEBC5FB41746121110 PUSH9 0x56BC75E2D63100000 SWAP4 DUP5 MUL SDIV SWAP3 ADD JUMPDEST PUSH9 0x8F00F760A4B2DB55D DUP4 SLT PUSH2 0x49E6 JUMPI PUSH9 0x8F00F760A4B2DB55D PUSH9 0x56BC75E2D63100000 DUP5 MUL SDIV SWAP3 POP PUSH9 0x2B5E3AF16B1880000 ADD JUMPDEST PUSH9 0x6F5F1775788937937 DUP4 SLT PUSH2 0x4A1B JUMPI PUSH9 0x6F5F1775788937937 PUSH9 0x56BC75E2D63100000 DUP5 MUL SDIV SWAP3 POP PUSH9 0x15AF1D78B58C40000 ADD JUMPDEST PUSH9 0x6248F33704B286603 DUP4 SLT PUSH2 0x4A4F JUMPI PUSH9 0x6248F33704B286603 PUSH9 0x56BC75E2D63100000 DUP5 MUL SDIV SWAP3 POP PUSH8 0xAD78EBC5AC620000 ADD JUMPDEST PUSH9 0x5C548670B9510E7AC DUP4 SLT PUSH2 0x4A83 JUMPI PUSH9 0x5C548670B9510E7AC PUSH9 0x56BC75E2D63100000 DUP5 MUL SDIV SWAP3 POP PUSH8 0x56BC75E2D6310000 ADD JUMPDEST PUSH1 0x0 PUSH9 0x56BC75E2D63100000 DUP5 ADD PUSH9 0x56BC75E2D63100000 DUP1 DUP7 SUB MUL DUP2 PUSH2 0x4AA6 JUMPI INVALID JUMPDEST SDIV SWAP1 POP PUSH1 0x0 PUSH9 0x56BC75E2D63100000 DUP3 DUP1 MUL SDIV SWAP1 POP DUP2 DUP1 PUSH9 0x56BC75E2D63100000 DUP2 DUP5 MUL SDIV SWAP2 POP PUSH1 0x3 DUP3 SDIV ADD PUSH9 0x56BC75E2D63100000 DUP3 DUP5 MUL SDIV SWAP2 POP PUSH1 0x5 DUP3 SDIV ADD PUSH9 0x56BC75E2D63100000 DUP3 DUP5 MUL SDIV SWAP2 POP PUSH1 0x7 DUP3 SDIV ADD PUSH9 0x56BC75E2D63100000 DUP3 DUP5 MUL SDIV SWAP2 POP PUSH1 0x9 DUP3 SDIV ADD PUSH9 0x56BC75E2D63100000 DUP3 DUP5 MUL SDIV SWAP2 POP PUSH1 0xB DUP3 SDIV ADD PUSH1 0x2 MUL PUSH1 0x64 DUP6 DUP3 ADD SDIV SWAP8 SWAP7 POP POP POP POP POP POP POP JUMP JUMPDEST PUSH1 0x0 PUSH2 0x4B69 PUSH9 0x238FD42C5CF03FFFF NOT DUP4 SLT ISZERO DUP1 ISZERO PUSH2 0x4B62 JUMPI POP PUSH9 0x70C1CC73B00C80000 DUP4 SGT ISZERO JUMPDEST PUSH1 0x9 PUSH2 0x1509 JUMP JUMPDEST PUSH1 0x0 DUP3 SLT ISZERO PUSH2 0x4B9C JUMPI PUSH2 0x4B7E DUP3 PUSH1 0x0 SUB PUSH2 0x4B3A JUMP JUMPDEST PUSH11 0xC097CE7BC90715B34B9F1 PUSH1 0x24 SHL DUP2 PUSH2 0x4B94 JUMPI INVALID JUMPDEST SDIV SWAP1 POP PUSH2 0x711 JUMP JUMPDEST PUSH1 0x0 PUSH9 0x6F05B59D3B2000000 DUP4 SLT PUSH2 0x4BDC JUMPI POP PUSH9 0x6F05B59D3B1FFFFFF NOT SWAP1 SWAP2 ADD SWAP1 PUSH24 0x195E54C5DD42177F53A27172FA9EC630262827000000000 PUSH2 0x4C12 JUMP JUMPDEST PUSH9 0x3782DACE9D9000000 DUP4 SLT PUSH2 0x4C0E JUMPI POP PUSH9 0x3782DACE9D8FFFFFF NOT SWAP1 SWAP2 ADD SWAP1 PUSH12 0x1425982CF597CD205CEF7380 PUSH2 0x4C12 JUMP JUMPDEST POP PUSH1 0x1 JUMPDEST PUSH1 0x64 SWAP3 SWAP1 SWAP3 MUL SWAP2 PUSH9 0x56BC75E2D63100000 PUSH9 0xAD78EBC5AC62000000 DUP5 SLT PUSH2 0x4C62 JUMPI PUSH9 0xAD78EBC5AC61FFFFFF NOT SWAP1 SWAP4 ADD SWAP3 PUSH9 0x56BC75E2D63100000 PUSH15 0x1855144814A7FF805980FF0084000 DUP3 MUL SDIV SWAP1 POP JUMPDEST PUSH9 0x56BC75E2D631000000 DUP5 SLT PUSH2 0x4C9E JUMPI PUSH9 0x56BC75E2D630FFFFFF NOT SWAP1 SWAP4 ADD SWAP3 PUSH9 0x56BC75E2D63100000 PUSH12 0x2DF0AB5A80A22C61AB5A700 DUP3 MUL SDIV SWAP1 POP JUMPDEST PUSH9 0x2B5E3AF16B18800000 DUP5 SLT PUSH2 0x4CD8 JUMPI PUSH9 0x2B5E3AF16B187FFFFF NOT SWAP1 SWAP4 ADD SWAP3 PUSH9 0x56BC75E2D63100000 PUSH10 0x3F1FCE3DA636EA5CF850 DUP3 MUL SDIV SWAP1 POP JUMPDEST PUSH9 0x15AF1D78B58C400000 DUP5 SLT PUSH2 0x4D12 JUMPI PUSH9 0x15AF1D78B58C3FFFFF NOT SWAP1 SWAP4 ADD SWAP3 PUSH9 0x56BC75E2D63100000 PUSH10 0x127FA27722CC06CC5E2 DUP3 MUL SDIV SWAP1 POP JUMPDEST PUSH9 0xAD78EBC5AC6200000 DUP5 SLT PUSH2 0x4D4B JUMPI PUSH9 0xAD78EBC5AC61FFFFF NOT SWAP1 SWAP4 ADD SWAP3 PUSH9 0x56BC75E2D63100000 PUSH9 0x280E60114EDB805D03 DUP3 MUL SDIV SWAP1 POP JUMPDEST PUSH9 0x56BC75E2D63100000 DUP5 SLT PUSH2 0x4D84 JUMPI PUSH9 0x56BC75E2D630FFFFF NOT SWAP1 SWAP4 ADD SWAP3 PUSH9 0x56BC75E2D63100000 PUSH9 0xEBC5FB41746121110 DUP3 MUL SDIV SWAP1 POP JUMPDEST PUSH9 0x2B5E3AF16B1880000 DUP5 SLT PUSH2 0x4DBD JUMPI PUSH9 0x2B5E3AF16B187FFFF NOT SWAP1 SWAP4 ADD SWAP3 PUSH9 0x56BC75E2D63100000 PUSH9 0x8F00F760A4B2DB55D DUP3 MUL SDIV SWAP1 POP JUMPDEST PUSH9 0x15AF1D78B58C40000 DUP5 SLT PUSH2 0x4DF6 JUMPI PUSH9 0x15AF1D78B58C3FFFF NOT SWAP1 SWAP4 ADD SWAP3 PUSH9 0x56BC75E2D63100000 PUSH9 0x6F5F1775788937937 DUP3 MUL SDIV SWAP1 POP JUMPDEST PUSH9 0x56BC75E2D63100000 DUP5 DUP2 ADD SWAP1 DUP6 SWAP1 PUSH1 0x2 SWAP1 DUP3 DUP1 MUL SDIV SDIV SWAP2 DUP3 ADD SWAP2 SWAP1 POP PUSH1 0x3 PUSH9 0x56BC75E2D63100000 DUP8 DUP4 MUL SDIV SDIV SWAP2 DUP3 ADD SWAP2 SWAP1 POP PUSH1 0x4 PUSH9 0x56BC75E2D63100000 DUP8 DUP4 MUL SDIV SDIV SWAP2 DUP3 ADD SWAP2 SWAP1 POP PUSH1 0x5 PUSH9 0x56BC75E2D63100000 DUP8 DUP4 MUL SDIV SDIV SWAP2 DUP3 ADD SWAP2 SWAP1 POP PUSH1 0x6 PUSH9 0x56BC75E2D63100000 DUP8 DUP4 MUL SDIV SDIV SWAP2 DUP3 ADD SWAP2 SWAP1 POP PUSH1 0x7 PUSH9 0x56BC75E2D63100000 DUP8 DUP4 MUL SDIV SDIV SWAP2 DUP3 ADD SWAP2 SWAP1 POP PUSH1 0x8 PUSH9 0x56BC75E2D63100000 DUP8 DUP4 MUL SDIV SDIV SWAP2 DUP3 ADD SWAP2 SWAP1 POP PUSH1 0x9 PUSH9 0x56BC75E2D63100000 DUP8 DUP4 MUL SDIV SDIV SWAP2 DUP3 ADD SWAP2 SWAP1 POP PUSH1 0xA PUSH9 0x56BC75E2D63100000 DUP8 DUP4 MUL SDIV SDIV SWAP2 DUP3 ADD SWAP2 SWAP1 POP PUSH1 0xB PUSH9 0x56BC75E2D63100000 DUP8 DUP4 MUL SDIV SDIV SWAP2 DUP3 ADD SWAP2 SWAP1 POP PUSH1 0xC PUSH9 0x56BC75E2D63100000 DUP8 DUP4 MUL SDIV SDIV SWAP2 DUP3 ADD SWAP2 SWAP1 POP PUSH1 0x64 PUSH9 0x56BC75E2D63100000 DUP5 DUP5 MUL SDIV DUP6 MUL SDIV SWAP7 SWAP6 POP POP POP POP POP POP JUMP JUMPDEST DUP1 CALLDATALOAD PUSH2 0x711 DUP2 PUSH2 0x58A3 JUMP JUMPDEST PUSH1 0x0 DUP3 PUSH1 0x1F DUP4 ADD SLT PUSH2 0x4F32 JUMPI DUP1 DUP2 REVERT JUMPDEST DUP2 MLOAD PUSH1 0x20 PUSH2 0x4F47 PUSH2 0x4F42 DUP4 PUSH2 0x5886 JUMP JUMPDEST PUSH2 0x5863 JUMP JUMPDEST DUP3 DUP2 MSTORE DUP2 DUP2 ADD SWAP1 DUP6 DUP4 ADD DUP4 DUP6 MUL DUP8 ADD DUP5 ADD DUP9 LT ISZERO PUSH2 0x4F63 JUMPI DUP6 DUP7 REVERT JUMPDEST DUP6 JUMPDEST DUP6 DUP2 LT ISZERO PUSH2 0x4F81 JUMPI DUP2 MLOAD DUP5 MSTORE SWAP3 DUP5 ADD SWAP3 SWAP1 DUP5 ADD SWAP1 PUSH1 0x1 ADD PUSH2 0x4F65 JUMP JUMPDEST POP SWAP1 SWAP8 SWAP7 POP POP POP POP POP POP POP JUMP JUMPDEST PUSH1 0x0 DUP3 PUSH1 0x1F DUP4 ADD SLT PUSH2 0x4F9E JUMPI DUP1 DUP2 REVERT JUMPDEST DUP2 CALLDATALOAD PUSH1 0x1 PUSH1 0x1 PUSH1 0x40 SHL SUB DUP2 GT ISZERO PUSH2 0x4FB1 JUMPI INVALID JUMPDEST PUSH2 0x4FC4 PUSH1 0x1F DUP3 ADD PUSH1 0x1F NOT AND PUSH1 0x20 ADD PUSH2 0x5863 JUMP JUMPDEST DUP2 DUP2 MSTORE DUP5 PUSH1 0x20 DUP4 DUP7 ADD ADD GT ISZERO PUSH2 0x4FD8 JUMPI DUP3 DUP4 REVERT JUMPDEST DUP2 PUSH1 0x20 DUP6 ADD PUSH1 0x20 DUP4 ADD CALLDATACOPY SWAP1 DUP2 ADD PUSH1 0x20 ADD SWAP2 SWAP1 SWAP2 MSTORE SWAP3 SWAP2 POP POP JUMP JUMPDEST DUP1 CALLDATALOAD PUSH1 0x2 DUP2 LT PUSH2 0x711 JUMPI PUSH1 0x0 DUP1 REVERT JUMPDEST PUSH1 0x0 PUSH1 0x20 DUP3 DUP5 SUB SLT ISZERO PUSH2 0x5012 JUMPI DUP1 DUP2 REVERT JUMPDEST DUP2 CALLDATALOAD PUSH2 0x5D4 DUP2 PUSH2 0x58A3 JUMP JUMPDEST PUSH1 0x0 DUP1 PUSH1 0x40 DUP4 DUP6 SUB SLT ISZERO PUSH2 0x502F JUMPI DUP1 DUP2 REVERT JUMPDEST DUP3 CALLDATALOAD PUSH2 0x503A DUP2 PUSH2 0x58A3 JUMP JUMPDEST SWAP2 POP PUSH1 0x20 DUP4 ADD CALLDATALOAD PUSH2 0x504A DUP2 PUSH2 0x58A3 JUMP JUMPDEST DUP1 SWAP2 POP POP SWAP3 POP SWAP3 SWAP1 POP JUMP JUMPDEST PUSH1 0x0 DUP1 PUSH1 0x0 PUSH1 0x60 DUP5 DUP7 SUB SLT ISZERO PUSH2 0x5069 JUMPI DUP1 DUP2 REVERT JUMPDEST DUP4 CALLDATALOAD PUSH2 0x5074 DUP2 PUSH2 0x58A3 JUMP JUMPDEST SWAP3 POP PUSH1 0x20 DUP5 ADD CALLDATALOAD PUSH2 0x5084 DUP2 PUSH2 0x58A3 JUMP JUMPDEST SWAP3 SWAP6 SWAP3 SWAP5 POP POP POP PUSH1 0x40 SWAP2 SWAP1 SWAP2 ADD CALLDATALOAD SWAP1 JUMP JUMPDEST PUSH1 0x0 DUP1 PUSH1 0x0 DUP1 PUSH1 0x0 DUP1 PUSH1 0x0 PUSH1 0xE0 DUP9 DUP11 SUB SLT ISZERO PUSH2 0x50AF JUMPI DUP5 DUP6 REVERT JUMPDEST DUP8 CALLDATALOAD PUSH2 0x50BA DUP2 PUSH2 0x58A3 JUMP JUMPDEST SWAP7 POP PUSH1 0x20 DUP9 ADD CALLDATALOAD PUSH2 0x50CA DUP2 PUSH2 0x58A3 JUMP JUMPDEST SWAP6 POP PUSH1 0x40 DUP9 ADD CALLDATALOAD SWAP5 POP PUSH1 0x60 DUP9 ADD CALLDATALOAD SWAP4 POP PUSH1 0x80 DUP9 ADD CALLDATALOAD PUSH1 0xFF DUP2 AND DUP2 EQ PUSH2 0x50ED JUMPI DUP4 DUP5 REVERT JUMPDEST SWAP7 SWAP10 SWAP6 SWAP9 POP SWAP4 SWAP7 SWAP3 SWAP6 SWAP5 PUSH1 0xA0 DUP5 ADD CALLDATALOAD SWAP5 POP PUSH1 0xC0 SWAP1 SWAP4 ADD CALLDATALOAD SWAP3 SWAP2 POP POP JUMP JUMPDEST PUSH1 0x0 DUP1 PUSH1 0x40 DUP4 DUP6 SUB SLT ISZERO PUSH2 0x511C JUMPI DUP2 DUP3 REVERT JUMPDEST DUP3 CALLDATALOAD PUSH2 0x5127 DUP2 PUSH2 0x58A3 JUMP JUMPDEST SWAP5 PUSH1 0x20 SWAP4 SWAP1 SWAP4 ADD CALLDATALOAD SWAP4 POP POP POP JUMP JUMPDEST PUSH1 0x0 DUP1 PUSH1 0x0 PUSH1 0x60 DUP5 DUP7 SUB SLT ISZERO PUSH2 0x5149 JUMPI DUP1 DUP2 REVERT JUMPDEST DUP4 MLOAD PUSH1 0x1 PUSH1 0x1 PUSH1 0x40 SHL SUB DUP1 DUP3 GT ISZERO PUSH2 0x515F JUMPI DUP3 DUP4 REVERT JUMPDEST DUP2 DUP7 ADD SWAP2 POP DUP7 PUSH1 0x1F DUP4 ADD SLT PUSH2 0x5172 JUMPI DUP3 DUP4 REVERT JUMPDEST DUP2 MLOAD PUSH1 0x20 PUSH2 0x5182 PUSH2 0x4F42 DUP4 PUSH2 0x5886 JUMP JUMPDEST DUP3 DUP2 MSTORE DUP2 DUP2 ADD SWAP1 DUP6 DUP4 ADD DUP4 DUP6 MUL DUP8 ADD DUP5 ADD DUP13 LT ISZERO PUSH2 0x519E JUMPI DUP8 DUP9 REVERT JUMPDEST DUP8 SWAP7 POP JUMPDEST DUP5 DUP8 LT ISZERO PUSH2 0x51C9 JUMPI DUP1 MLOAD PUSH2 0x51B5 DUP2 PUSH2 0x58A3 JUMP JUMPDEST DUP4 MSTORE PUSH1 0x1 SWAP7 SWAP1 SWAP7 ADD SWAP6 SWAP2 DUP4 ADD SWAP2 DUP4 ADD PUSH2 0x51A2 JUMP JUMPDEST POP SWAP2 DUP10 ADD MLOAD SWAP2 SWAP8 POP SWAP1 SWAP4 POP POP POP DUP1 DUP3 GT ISZERO PUSH2 0x51E2 JUMPI DUP3 DUP4 REVERT JUMPDEST POP PUSH2 0x51EF DUP7 DUP3 DUP8 ADD PUSH2 0x4F22 JUMP JUMPDEST SWAP3 POP POP PUSH1 0x40 DUP5 ADD MLOAD SWAP1 POP SWAP3 POP SWAP3 POP SWAP3 JUMP JUMPDEST PUSH1 0x0 PUSH1 0x20 DUP3 DUP5 SUB SLT ISZERO PUSH2 0x5211 JUMPI DUP1 DUP2 REVERT JUMPDEST DUP2 CALLDATALOAD PUSH2 0x5D4 DUP2 PUSH2 0x58B8 JUMP JUMPDEST PUSH1 0x0 PUSH1 0x20 DUP3 DUP5 SUB SLT ISZERO PUSH2 0x522D JUMPI DUP1 DUP2 REVERT JUMPDEST DUP2 MLOAD PUSH2 0x5D4 DUP2 PUSH2 0x58B8 JUMP JUMPDEST PUSH1 0x0 DUP1 PUSH1 0x0 DUP1 PUSH1 0x0 DUP1 PUSH1 0x0 PUSH1 0xE0 DUP9 DUP11 SUB SLT ISZERO PUSH2 0x5252 JUMPI DUP1 DUP2 REVERT JUMPDEST DUP8 CALLDATALOAD SWAP7 POP PUSH1 0x20 DUP1 DUP10 ADD CALLDATALOAD PUSH2 0x5265 DUP2 PUSH2 0x58A3 JUMP JUMPDEST SWAP7 POP PUSH1 0x40 DUP10 ADD CALLDATALOAD PUSH2 0x5275 DUP2 PUSH2 0x58A3 JUMP JUMPDEST SWAP6 POP PUSH1 0x60 DUP10 ADD CALLDATALOAD PUSH1 0x1 PUSH1 0x1 PUSH1 0x40 SHL SUB DUP1 DUP3 GT ISZERO PUSH2 0x5290 JUMPI DUP4 DUP5 REVERT JUMPDEST DUP2 DUP12 ADD SWAP2 POP DUP12 PUSH1 0x1F DUP4 ADD SLT PUSH2 0x52A3 JUMPI DUP4 DUP5 REVERT JUMPDEST DUP2 CALLDATALOAD PUSH2 0x52B1 PUSH2 0x4F42 DUP3 PUSH2 0x5886 JUMP JUMPDEST DUP1 DUP3 DUP3 MSTORE DUP6 DUP3 ADD SWAP2 POP DUP6 DUP6 ADD DUP16 DUP8 DUP9 DUP7 MUL DUP9 ADD ADD GT ISZERO PUSH2 0x52CF JUMPI DUP8 DUP9 REVERT JUMPDEST DUP8 SWAP6 POP JUMPDEST DUP4 DUP7 LT ISZERO PUSH2 0x52F1 JUMPI DUP1 CALLDATALOAD DUP4 MSTORE PUSH1 0x1 SWAP6 SWAP1 SWAP6 ADD SWAP5 SWAP2 DUP7 ADD SWAP2 DUP7 ADD PUSH2 0x52D3 JUMP JUMPDEST POP SWAP9 POP POP POP PUSH1 0x80 DUP12 ADD CALLDATALOAD SWAP6 POP PUSH1 0xA0 DUP12 ADD CALLDATALOAD SWAP5 POP PUSH1 0xC0 DUP12 ADD CALLDATALOAD SWAP3 POP DUP1 DUP4 GT ISZERO PUSH2 0x5317 JUMPI DUP4 DUP5 REVERT JUMPDEST POP POP PUSH2 0x5325 DUP11 DUP3 DUP12 ADD PUSH2 0x4F8E JUMP JUMPDEST SWAP2 POP POP SWAP3 SWAP6 SWAP9 SWAP2 SWAP5 SWAP8 POP SWAP3 SWAP6 POP JUMP JUMPDEST PUSH1 0x0 PUSH1 0x20 DUP3 DUP5 SUB SLT ISZERO PUSH2 0x5345 JUMPI DUP1 DUP2 REVERT JUMPDEST DUP2 CALLDATALOAD PUSH1 0x1 PUSH1 0x1 PUSH1 0xE0 SHL SUB NOT DUP2 AND DUP2 EQ PUSH2 0x5D4 JUMPI DUP2 DUP3 REVERT JUMPDEST PUSH1 0x0 PUSH1 0x20 DUP3 DUP5 SUB SLT ISZERO PUSH2 0x536D JUMPI DUP1 DUP2 REVERT JUMPDEST DUP2 MLOAD PUSH2 0x5D4 DUP2 PUSH2 0x58A3 JUMP JUMPDEST PUSH1 0x0 DUP1 PUSH1 0x40 DUP4 DUP6 SUB SLT ISZERO PUSH2 0x538A JUMPI DUP2 DUP3 REVERT JUMPDEST DUP3 CALLDATALOAD PUSH2 0x5395 DUP2 PUSH2 0x58A3 JUMP JUMPDEST SWAP2 POP PUSH1 0x20 DUP4 ADD CALLDATALOAD PUSH1 0x1 PUSH1 0x1 PUSH1 0x40 SHL SUB DUP2 GT ISZERO PUSH2 0x53AF JUMPI DUP2 DUP3 REVERT JUMPDEST PUSH2 0x53BB DUP6 DUP3 DUP7 ADD PUSH2 0x4F8E JUMP JUMPDEST SWAP2 POP POP SWAP3 POP SWAP3 SWAP1 POP JUMP JUMPDEST PUSH1 0x0 PUSH1 0x20 DUP3 DUP5 SUB SLT ISZERO PUSH2 0x53D6 JUMPI DUP1 DUP2 REVERT JUMPDEST DUP2 MLOAD PUSH2 0x5D4 DUP2 PUSH2 0x58C6 JUMP JUMPDEST PUSH1 0x0 DUP1 PUSH1 0x0 PUSH1 0x60 DUP5 DUP7 SUB SLT ISZERO PUSH2 0x53F5 JUMPI DUP1 DUP2 REVERT JUMPDEST DUP4 MLOAD PUSH2 0x5400 DUP2 PUSH2 0x58C6 JUMP JUMPDEST PUSH1 0x20 DUP6 ADD MLOAD SWAP1 SWAP4 POP PUSH1 0x1 PUSH1 0x1 PUSH1 0x40 SHL SUB DUP2 GT ISZERO PUSH2 0x541B JUMPI DUP2 DUP3 REVERT JUMPDEST PUSH2 0x51EF DUP7 DUP3 DUP8 ADD PUSH2 0x4F22 JUMP JUMPDEST PUSH1 0x0 DUP1 PUSH1 0x40 DUP4 DUP6 SUB SLT ISZERO PUSH2 0x5439 JUMPI DUP2 DUP3 REVERT JUMPDEST DUP3 MLOAD PUSH2 0x5444 DUP2 PUSH2 0x58C6 JUMP JUMPDEST PUSH1 0x20 SWAP4 SWAP1 SWAP4 ADD MLOAD SWAP3 SWAP5 SWAP3 SWAP4 POP POP POP JUMP JUMPDEST PUSH1 0x0 DUP1 PUSH1 0x0 PUSH1 0x60 DUP5 DUP7 SUB SLT ISZERO PUSH2 0x5468 JUMPI DUP1 DUP2 REVERT JUMPDEST DUP4 MLOAD PUSH2 0x5473 DUP2 PUSH2 0x58C6 JUMP JUMPDEST PUSH1 0x20 DUP6 ADD MLOAD PUSH1 0x40 SWAP1 SWAP6 ADD MLOAD SWAP1 SWAP7 SWAP5 SWAP6 POP SWAP4 SWAP3 POP POP POP JUMP JUMPDEST PUSH1 0x0 DUP1 PUSH1 0x40 DUP4 DUP6 SUB SLT ISZERO PUSH2 0x549C JUMPI DUP2 DUP3 REVERT JUMPDEST DUP3 MLOAD PUSH2 0x54A7 DUP2 PUSH2 0x58C6 JUMP JUMPDEST PUSH1 0x20 DUP5 ADD MLOAD SWAP1 SWAP3 POP PUSH1 0x1 PUSH1 0x1 PUSH1 0x40 SHL SUB DUP2 GT ISZERO PUSH2 0x54C2 JUMPI DUP2 DUP3 REVERT JUMPDEST PUSH2 0x53BB DUP6 DUP3 DUP7 ADD PUSH2 0x4F22 JUMP JUMPDEST PUSH1 0x0 DUP1 PUSH1 0x0 PUSH1 0x60 DUP5 DUP7 SUB SLT ISZERO PUSH2 0x54E2 JUMPI DUP1 DUP2 REVERT JUMPDEST DUP4 CALLDATALOAD PUSH1 0x1 PUSH1 0x1 PUSH1 0x40 SHL SUB DUP1 DUP3 GT ISZERO PUSH2 0x54F8 JUMPI DUP3 DUP4 REVERT JUMPDEST DUP2 DUP7 ADD SWAP2 POP PUSH2 0x120 DUP1 DUP4 DUP10 SUB SLT ISZERO PUSH2 0x550E JUMPI DUP4 DUP5 REVERT JUMPDEST PUSH2 0x5517 DUP2 PUSH2 0x5863 JUMP JUMPDEST SWAP1 POP PUSH2 0x5522 DUP4 PUSH2 0x4FF2 JUMP JUMPDEST DUP2 MSTORE PUSH2 0x5530 PUSH1 0x20 DUP5 ADD PUSH2 0x4F17 JUMP JUMPDEST PUSH1 0x20 DUP3 ADD MSTORE PUSH2 0x5541 PUSH1 0x40 DUP5 ADD PUSH2 0x4F17 JUMP JUMPDEST PUSH1 0x40 DUP3 ADD MSTORE PUSH1 0x60 DUP4 ADD CALLDATALOAD PUSH1 0x60 DUP3 ADD MSTORE PUSH1 0x80 DUP4 ADD CALLDATALOAD PUSH1 0x80 DUP3 ADD MSTORE PUSH1 0xA0 DUP4 ADD CALLDATALOAD PUSH1 0xA0 DUP3 ADD MSTORE PUSH2 0x5570 PUSH1 0xC0 DUP5 ADD PUSH2 0x4F17 JUMP JUMPDEST PUSH1 0xC0 DUP3 ADD MSTORE PUSH2 0x5581 PUSH1 0xE0 DUP5 ADD PUSH2 0x4F17 JUMP JUMPDEST PUSH1 0xE0 DUP3 ADD MSTORE PUSH2 0x100 DUP1 DUP5 ADD CALLDATALOAD DUP4 DUP2 GT ISZERO PUSH2 0x5599 JUMPI DUP6 DUP7 REVERT JUMPDEST PUSH2 0x55A5 DUP11 DUP3 DUP8 ADD PUSH2 0x4F8E JUMP JUMPDEST SWAP2 DUP4 ADD SWAP2 SWAP1 SWAP2 MSTORE POP SWAP8 PUSH1 0x20 DUP8 ADD CALLDATALOAD SWAP8 POP PUSH1 0x40 SWAP1 SWAP7 ADD CALLDATALOAD SWAP6 SWAP5 POP POP POP POP POP JUMP JUMPDEST PUSH1 0x0 PUSH1 0x20 DUP3 DUP5 SUB SLT ISZERO PUSH2 0x55D5 JUMPI DUP1 DUP2 REVERT JUMPDEST POP CALLDATALOAD SWAP2 SWAP1 POP JUMP JUMPDEST PUSH1 0x0 DUP1 PUSH1 0x0 DUP1 PUSH1 0x80 DUP6 DUP8 SUB SLT ISZERO PUSH2 0x55F1 JUMPI DUP2 DUP3 REVERT JUMPDEST DUP5 MLOAD SWAP4 POP PUSH1 0x20 DUP6 ADD MLOAD SWAP3 POP PUSH1 0x40 DUP6 ADD MLOAD SWAP2 POP PUSH1 0x60 DUP6 ADD MLOAD PUSH2 0x5611 DUP2 PUSH2 0x58A3 JUMP JUMPDEST SWAP4 SWAP7 SWAP3 SWAP6 POP SWAP1 SWAP4 POP POP JUMP JUMPDEST PUSH1 0x0 DUP2 MLOAD DUP1 DUP5 MSTORE PUSH1 0x20 DUP1 DUP6 ADD SWAP5 POP DUP1 DUP5 ADD DUP4 JUMPDEST DUP4 DUP2 LT ISZERO PUSH2 0x564B JUMPI DUP2 MLOAD DUP8 MSTORE SWAP6 DUP3 ADD SWAP6 SWAP1 DUP3 ADD SWAP1 PUSH1 0x1 ADD PUSH2 0x562F JUMP JUMPDEST POP SWAP5 SWAP6 SWAP5 POP POP POP POP POP JUMP JUMPDEST PUSH1 0x0 DUP2 MLOAD DUP1 DUP5 MSTORE DUP2 JUMPDEST DUP2 DUP2 LT ISZERO PUSH2 0x567B JUMPI PUSH1 0x20 DUP2 DUP6 ADD DUP2 ADD MLOAD DUP7 DUP4 ADD DUP3 ADD MSTORE ADD PUSH2 0x565F JUMP JUMPDEST DUP2 DUP2 GT ISZERO PUSH2 0x568C JUMPI DUP3 PUSH1 0x20 DUP4 DUP8 ADD ADD MSTORE JUMPDEST POP PUSH1 0x1F ADD PUSH1 0x1F NOT AND SWAP3 SWAP1 SWAP3 ADD PUSH1 0x20 ADD SWAP3 SWAP2 POP POP JUMP JUMPDEST SWAP2 DUP3 MSTORE PUSH1 0x1 PUSH1 0x1 PUSH1 0xE0 SHL SUB NOT AND PUSH1 0x20 DUP3 ADD MSTORE PUSH1 0x24 ADD SWAP1 JUMP JUMPDEST PUSH1 0x0 DUP3 DUP5 DUP4 CALLDATACOPY SWAP2 ADD SWAP1 DUP2 MSTORE SWAP2 SWAP1 POP JUMP JUMPDEST PUSH2 0x1901 PUSH1 0xF0 SHL DUP2 MSTORE PUSH1 0x2 DUP2 ADD SWAP3 SWAP1 SWAP3 MSTORE PUSH1 0x22 DUP3 ADD MSTORE PUSH1 0x42 ADD SWAP1 JUMP JUMPDEST PUSH1 0x1 PUSH1 0x1 PUSH1 0xA0 SHL SUB SWAP2 SWAP1 SWAP2 AND DUP2 MSTORE PUSH1 0x20 ADD SWAP1 JUMP JUMPDEST PUSH1 0x0 PUSH1 0x20 DUP3 MSTORE PUSH2 0x5D4 PUSH1 0x20 DUP4 ADD DUP5 PUSH2 0x561C JUMP JUMPDEST PUSH1 0x0 PUSH1 0x40 DUP3 MSTORE PUSH2 0x571E PUSH1 0x40 DUP4 ADD DUP6 PUSH2 0x561C JUMP JUMPDEST DUP3 DUP2 SUB PUSH1 0x20 DUP5 ADD MSTORE PUSH2 0x399A DUP2 DUP6 PUSH2 0x561C JUMP JUMPDEST SWAP1 ISZERO ISZERO DUP2 MSTORE PUSH1 0x20 ADD SWAP1 JUMP JUMPDEST SWAP3 ISZERO ISZERO DUP4 MSTORE PUSH1 0x20 DUP4 ADD SWAP2 SWAP1 SWAP2 MSTORE PUSH1 0x40 DUP3 ADD MSTORE PUSH1 0x60 ADD SWAP1 JUMP JUMPDEST SWAP1 DUP2 MSTORE PUSH1 0x20 ADD SWAP1 JUMP JUMPDEST SWAP3 DUP4 MSTORE PUSH1 0x1 PUSH1 0x1 PUSH1 0xA0 SHL SUB SWAP2 DUP3 AND PUSH1 0x20 DUP5 ADD MSTORE AND PUSH1 0x40 DUP3 ADD MSTORE PUSH1 0x60 ADD SWAP1 JUMP JUMPDEST SWAP6 DUP7 MSTORE PUSH1 0x1 PUSH1 0x1 PUSH1 0xA0 SHL SUB SWAP5 DUP6 AND PUSH1 0x20 DUP8 ADD MSTORE SWAP3 SWAP1 SWAP4 AND PUSH1 0x40 DUP6 ADD MSTORE PUSH1 0x60 DUP5 ADD MSTORE PUSH1 0x80 DUP4 ADD SWAP2 SWAP1 SWAP2 MSTORE PUSH1 0xA0 DUP3 ADD MSTORE PUSH1 0xC0 ADD SWAP1 JUMP JUMPDEST SWAP5 DUP6 MSTORE PUSH1 0x20 DUP6 ADD SWAP4 SWAP1 SWAP4 MSTORE PUSH1 0x40 DUP5 ADD SWAP2 SWAP1 SWAP2 MSTORE PUSH1 0x60 DUP4 ADD MSTORE PUSH1 0x1 PUSH1 0x1 PUSH1 0xA0 SHL SUB AND PUSH1 0x80 DUP3 ADD MSTORE PUSH1 0xA0 ADD SWAP1 JUMP JUMPDEST PUSH1 0x0 DUP4 DUP3 MSTORE PUSH1 0x40 PUSH1 0x20 DUP4 ADD MSTORE PUSH2 0x2460 PUSH1 0x40 DUP4 ADD DUP5 PUSH2 0x5656 JUMP JUMPDEST SWAP2 DUP3 MSTORE PUSH1 0x1 PUSH1 0x1 PUSH1 0xA0 SHL SUB AND PUSH1 0x20 DUP3 ADD MSTORE PUSH1 0x40 ADD SWAP1 JUMP JUMPDEST SWAP4 DUP5 MSTORE PUSH1 0xFF SWAP3 SWAP1 SWAP3 AND PUSH1 0x20 DUP5 ADD MSTORE PUSH1 0x40 DUP4 ADD MSTORE PUSH1 0x60 DUP3 ADD MSTORE PUSH1 0x80 ADD SWAP1 JUMP JUMPDEST PUSH1 0x0 PUSH1 0x20 DUP3 MSTORE PUSH2 0x5D4 PUSH1 0x20 DUP4 ADD DUP5 PUSH2 0x5656 JUMP JUMPDEST PUSH1 0x0 DUP4 DUP3 MSTORE PUSH1 0x40 PUSH1 0x20 DUP4 ADD MSTORE PUSH2 0x2460 PUSH1 0x40 DUP4 ADD DUP5 PUSH2 0x561C JUMP JUMPDEST PUSH1 0xFF SWAP2 SWAP1 SWAP2 AND DUP2 MSTORE PUSH1 0x20 ADD SWAP1 JUMP JUMPDEST PUSH1 0x40 MLOAD DUP2 DUP2 ADD PUSH1 0x1 PUSH1 0x1 PUSH1 0x40 SHL SUB DUP2 GT DUP3 DUP3 LT OR ISZERO PUSH2 0x587E JUMPI INVALID JUMPDEST PUSH1 0x40 MSTORE SWAP2 SWAP1 POP JUMP JUMPDEST PUSH1 0x0 PUSH1 0x1 PUSH1 0x1 PUSH1 0x40 SHL SUB DUP3 GT ISZERO PUSH2 0x5899 JUMPI INVALID JUMPDEST POP PUSH1 0x20 SWAP1 DUP2 MUL ADD SWAP1 JUMP JUMPDEST PUSH1 0x1 PUSH1 0x1 PUSH1 0xA0 SHL SUB DUP2 AND DUP2 EQ PUSH2 0x524 JUMPI PUSH1 0x0 DUP1 REVERT JUMPDEST DUP1 ISZERO ISZERO DUP2 EQ PUSH2 0x524 JUMPI PUSH1 0x0 DUP1 REVERT JUMPDEST PUSH1 0x3 DUP2 LT PUSH2 0x524 JUMPI PUSH1 0x0 DUP1 REVERT INVALID LOG2 PUSH5 0x6970667358 0x22 SLT KECCAK256 PUSH8 0xBB76B9254F3C4093 CALLVALUE SLT PUSH22 0x8C6CA92567363CA5F68537FC86C7528A74B91A9E6473 PUSH16 0x6C634300070600330000000000000000 "
		},
		"gasEstimates": {
			"creation": {
				"codeDepositCost": "497200",
				"executionCost": "infinite",
				"totalCost": "infinite"
			},
			"external": {
				"create(string,string,address[],uint256[],uint256,address)": "infinite",
				"getCreationCode()": "infinite",
				"getCreationCodeContracts()": "infinite",
				"getPauseConfiguration()": "infinite",
				"getVault()": "infinite",
				"isPoolFromFactory(address)": "1332"
			}
		},
		"methodIdentifiers": {
			"create(string,string,address[],uint256[],uint256,address)": "fbce0393",
			"getCreationCode()": "00c194db",
			"getCreationCodeContracts()": "174481fa",
			"getPauseConfiguration()": "2da47c40",
			"getVault()": "8d928af8",
			"isPoolFromFactory(address)": "6634b753"
		}
	},
	"abi": [
		{
			"inputs": [
				{
					"internalType": "contract IVault",
					"name": "vault",
					"type": "address"
				}
			],
			"stateMutability": "nonpayable",
			"type": "constructor"
		},
		{
			"anonymous": false,
			"inputs": [
				{
					"indexed": true,
					"internalType": "address",
					"name": "pool",
					"type": "address"
				}
			],
			"name": "PoolCreated",
			"type": "event"
		},
		{
			"inputs": [
				{
					"internalType": "string",
					"name": "name",
					"type": "string"
				},
				{
					"internalType": "string",
					"name": "symbol",
					"type": "string"
				},
				{
					"internalType": "contract IERC20[]",
					"name": "tokens",
					"type": "address[]"
				},
				{
					"internalType": "uint256[]",
					"name": "weights",
					"type": "uint256[]"
				},
				{
					"internalType": "uint256",
					"name": "swapFeePercentage",
					"type": "uint256"
				},
				{
					"internalType": "address",
					"name": "owner",
					"type": "address"
				}
			],
			"name": "create",
			"outputs": [
				{
					"internalType": "address",
					"name": "",
					"type": "address"
				}
			],
			"stateMutability": "nonpayable",
			"type": "function"
		},
		{
			"inputs": [],
			"name": "getCreationCode",
			"outputs": [
				{
					"internalType": "bytes",
					"name": "",
					"type": "bytes"
				}
			],
			"stateMutability": "view",
			"type": "function"
		},
		{
			"inputs": [],
			"name": "getCreationCodeContracts",
			"outputs": [
				{
					"internalType": "address",
					"name": "contractA",
					"type": "address"
				},
				{
					"internalType": "address",
					"name": "contractB",
					"type": "address"
				}
			],
			"stateMutability": "view",
			"type": "function"
		},
		{
			"inputs": [],
			"name": "getPauseConfiguration",
			"outputs": [
				{
					"internalType": "uint256",
					"name": "pauseWindowDuration",
					"type": "uint256"
				},
				{
					"internalType": "uint256",
					"name": "bufferPeriodDuration",
					"type": "uint256"
				}
			],
			"stateMutability": "view",
			"type": "function"
		},
		{
			"inputs": [],
			"name": "getVault",
			"outputs": [
				{
					"internalType": "contract IVault",
					"name": "",
					"type": "address"
				}
			],
			"stateMutability": "view",
			"type": "function"
		},
		{
			"inputs": [
				{
					"internalType": "address",
					"name": "pool",
					"type": "address"
				}
			],
			"name": "isPoolFromFactory",
			"outputs": [
				{
					"internalType": "bool",
					"name": "",
					"type": "bool"
				}
			],
			"stateMutability": "view",
			"type": "function"
		}
	]
}