{
	"data": {
		"bytecode": {
			"linkReferences": {},
			"object": "60c060405234801561001057600080fd5b50604051615f3e380380615f3e83398101604081905261002f9161004d565b60601b6001600160601b0319166080526276a700420160a05261007b565b60006020828403121561005e578081fd5b81516001600160a01b0381168114610074578182fd5b9392505050565b60805160601c60a051615e986100a66000398061021952806102435250806102a35250615e986000f3fe60806040523480156200001157600080fd5b5060043610620000525760003560e01c80631596019b14620000575780632da47c4014620000865780636634b75314620000a05780638d928af814620000c6575b600080fd5b6200006e62000068366004620004ad565b620000d0565b6040516200007d9190620005f2565b60405180910390f35b6200009062000213565b6040516200007d92919062000705565b620000b7620000b136600462000487565b6200027f565b6040516200007d919062000606565b6200006e620002a1565b6000806000620000df62000213565b915091506000604051806101800160405280620000fb620002a1565b6001600160a01b031681526020018c81526020018b81526020018a6000815181106200012357fe5b60200260200101516001600160a01b031681526020018a6001815181106200014757fe5b60200260200101516001600160a01b03168152602001896000815181106200016b57fe5b60200260200101518152602001896001815181106200018657fe5b602002602001015181526020018881526020018481526020018381526020018715158152602001866001600160a01b03168152509050600081604051620001cd9062000311565b620001d9919062000611565b604051809103906000f080158015620001f6573d6000803e3d6000fd5b5090506200020481620002c5565b9b9a5050505050505050505050565b600080427f00000000000000000000000000000000000000000000000000000000000000008110156200027157807f000000000000000000000000000000000000000000000000000000000000000003925062278d0091506200027a565b60009250600091505b509091565b6001600160a01b03811660009081526020819052604090205460ff165b919050565b7f000000000000000000000000000000000000000000000000000000000000000090565b6001600160a01b038116600081815260208190526040808220805460ff19166001179055517f83a48fbcfc991335314e74d0496aab6a1987e992ddc85dddbcc4d6dd6ef2e9fc9190a250565b6156f2806200077183390190565b80356200029c8162000757565b600082601f8301126200033d578081fd5b8135602062000356620003508362000738565b62000713565b828152818101908583018385028701840188101562000373578586fd5b855b858110156200039e5781356200038b8162000757565b8452928401929084019060010162000375565b5090979650505050505050565b600082601f830112620003bc578081fd5b81356020620003cf620003508362000738565b8281528181019085830183850287018401881015620003ec578586fd5b855b858110156200039e57813584529284019290840190600101620003ee565b803580151581146200029c57600080fd5b600082601f8301126200042e578081fd5b813567ffffffffffffffff8111156200044357fe5b62000458601f8201601f191660200162000713565b8181528460208386010111156200046d578283fd5b816020850160208301379081016020019190915292915050565b60006020828403121562000499578081fd5b8135620004a68162000757565b9392505050565b600080600080600080600060e0888a031215620004c8578283fd5b873567ffffffffffffffff80821115620004e0578485fd5b620004ee8b838c016200041d565b985060208a013591508082111562000504578485fd5b620005128b838c016200041d565b975060408a013591508082111562000528578485fd5b620005368b838c016200032c565b965060608a01359150808211156200054c578485fd5b506200055b8a828b01620003ab565b945050608088013592506200057360a089016200040c565b91506200058360c089016200031f565b905092959891949750929550565b6001600160a01b03169052565b15159052565b60008151808452815b81811015620005cb57602081850181015186830182015201620005ad565b81811115620005dd5782602083870101525b50601f01601f19169290920160200192915050565b6001600160a01b0391909116815260200190565b901515815260200190565b6000602082526200062760208301845162000591565b6020830151610180806040850152620006456101a0850183620005a4565b91506040850151601f19858403016060860152620006648382620005a4565b92505060608501516200067b608086018262000591565b5060808501516200069060a086018262000591565b5060a085015160c085015260c085015160e085015260e0850151610100818187015280870151915050610120818187015280870151915050610140818187015280870151915050610160620006e8818701836200059e565b8601519050620006fb8583018262000591565b5090949350505050565b918252602082015260400190565b60405181810167ffffffffffffffff811182821017156200073057fe5b604052919050565b600067ffffffffffffffff8211156200074d57fe5b5060209081020190565b6001600160a01b03811681146200076d57600080fd5b5056fe6102a06040527f6e71edae12b1b97f4d1f60370fef10105fa2faae0126114a169c64845d6126c9610120523480156200003757600080fd5b50604051620056f2380380620056f28339810160408190526200005a9162000818565b61010081810151610120830151602080850151604080870151815180830190925260018252603160f81b8285019081526101608901513360805260601b6001600160601b03191660a052835194840194852060c052915190912060e0527f8b73c3c69bb8fe3d512ecc4cf759cc79239f7b179b0ffacaa9a75d522b39400f909552805193949293909291620000f39160039190620006a1565b50805162000109906004906020840190620006a1565b50620001219150506276a7008311156101946200040c565b6200013562278d008211156101956200040c565b42909101610140818152910161016052810151620001539062000421565b60e081015162000163906200047d565b80516040516309b2760f60e01b81526000916001600160a01b0316906309b2760f90620001969060029060040162000a17565b602060405180830381600087803b158015620001b157600080fd5b505af1158015620001c6573d6000803e3d6000fd5b505050506040513d601f19601f82011682018060405250810190620001ec9190620007ff565b60408051600280825260608201835292935060009290916020830190803683370190505090508260600151816000815181106200022557fe5b60200260200101906001600160a01b031690816001600160a01b0316815250508260800151816001815181106200025857fe5b6001600160a01b0392831660209182029290920101528351166366a9c7d283836002604051908082528060200260200182016040528015620002a4578160200160208202803683370190505b506040518463ffffffff1660e01b8152600401620002c5939291906200097d565b600060405180830381600087803b158015620002e057600080fd5b505af1158015620002f5573d6000803e3d6000fd5b505084516001600160601b0319606091821b8116610180526101a08690528187018051831b82166101c052608088015190921b166101e052516200033c92509050620004fb565b6102605260808301516200035090620004fb565b6102805260a08301516200037190662386f26fc10000111561012e6200040c565b62000393662386f26fc100008460c00151101561012e6200040c60201b60201c565b6000620003b78460c001518560a001516200059f60201b620011c51790919060201c565b9050620003d1670de0b6b3a764000082146101346200040c565b60a0840180516102005260c085018051610220525190511015620003f7576001620003fa565b60005b60ff16610240525062000a5992505050565b816200041d576200041d81620005ba565b5050565b6200043d816008546200060d60201b620011d71790919060201c565b6008556040517f3e350b41e86a8e10f804ade6d35340d620be35569cc75ac943e8bb14ab80ead1906200047290839062000972565b60405180910390a150565b6200049264e8d4a5100082101560cb6200040c565b620004aa67016345785d8a000082111560ca6200040c565b620004c6816008546200062c60201b620011e51790919060201c565b6008556040517fa9ba3ffe0b6c366b81232caab38605a0699ad5398d6cce76f91ee809e322dafc906200047290839062000a2c565b600080826001600160a01b031663313ce5676040518163ffffffff1660e01b815260040160206040518083038186803b1580156200053857600080fd5b505afa1580156200054d573d6000803e3d6000fd5b505050506040513d601f19601f820116820180604052508101906200057391906200094f565b60ff1690506000620005926012836200064b60201b620011f31760201c565b600a0a925050505b919050565b6000828201620005b384821015836200040c565b9392505050565b62461bcd60e51b6000908152602060045260076024526642414c23000030600a808404818106603090810160081b95839006959095019082900491820690940160101b939093010160c81b604452606490fd5b6000620005b3826055856200066360201b62001209179092919060201c565b6000620005b3826056856200068c60201b62001230179092919060201c565b60006200065d8383111560016200040c565b50900390565b60006001821b19841682846200067b5760006200067e565b60015b60ff16901b17949350505050565b6001600160401b03811b1992909216911b1790565b828054600181600116156101000203166002900490600052602060002090601f016020900481019282620006d9576000855562000724565b82601f10620006f457805160ff191683800117855562000724565b8280016001018555821562000724579182015b828111156200072457825182559160200191906001019062000707565b506200073292915062000736565b5090565b5b8082111562000732576000815560010162000737565b80516001600160a01b03811681146200059a57600080fd5b805180151581146200059a57600080fd5b600082601f83011262000787578081fd5b81516001600160401b038111156200079b57fe5b6020620007b1601f8301601f1916820162000a35565b8281528582848701011115620007c5578384fd5b835b83811015620007e4578581018301518282018401528201620007c7565b83811115620007f557848385840101525b5095945050505050565b60006020828403121562000811578081fd5b5051919050565b6000602082840312156200082a578081fd5b81516001600160401b038082111562000841578283fd5b818401915061018080838703121562000858578384fd5b620008638162000a35565b905062000870836200074d565b815260208301518281111562000884578485fd5b620008928782860162000776565b602083015250604083015182811115620008aa578485fd5b620008b88782860162000776565b604083015250620008cc606084016200074d565b6060820152620008df608084016200074d565b608082015260a0838101519082015260c0808401519082015260e080840151908201526101008084015190820152610120808401519082015261014091506200092a82840162000765565b828201526101609150620009408284016200074d565b91810191909152949350505050565b60006020828403121562000961578081fd5b815160ff81168114620005b3578182fd5b901515815260200190565b60006060820185835260206060818501528186518084526080860191508288019350845b81811015620009c85784516001600160a01b031683529383019391830191600101620009a1565b505084810360408601528551808252908201925081860190845b8181101562000a095782516001600160a01b031685529383019391830191600101620009e2565b509298975050505050505050565b602081016003831062000a2657fe5b91905290565b90815260200190565b6040518181016001600160401b038111828210171562000a5157fe5b604052919050565b60805160a05160601c60c05160e051610100516101205161014051610160516101805160601c6101a0516101c05160601c6101e05160601c6102005161022051610240516102605161028051614bc162000b3160003980611d0f525080611d365250806129e15280612a155280612a51525080611d635280611dff525080611d8a5280611ddd5280611e2d52505080610c6a525080610808525080610bb852508061139c525080611378525080610f1f5250806116a45250806116e65250806116c5525080610b94525080610b1f5250614bc16000f3fe608060405234801561001057600080fd5b50600436106102485760003560e01c806374f3b0091161013b578063aaabadc5116100b8578063d5c096c41161007c578063d5c096c4146104e1578063d73dd623146104f4578063dd62ed3e14610507578063f89f27ed1461051a578063ffd088eb1461052257610248565b8063aaabadc5146104a3578063b10be739146104ab578063b48b5b40146104be578063c0ff1a15146104c6578063d505accf146104ce57610248565b80638d928af8116100ff5780638d928af81461046557806395d89b411461046d5780639b02cdde146104755780639d2c110c1461047d578063a9059cbb1461049057610248565b806374f3b009146103f65780637ecebe0014610417578063851c1bb31461042a57806387ec68171461043d578063893d20e81461045057610248565b806338e9922e116101c957806360d1507c1161018d57806360d1507c1461038257806366188463146103a8578063679aefce146103bb5780636b843239146103c357806370a08231146103e357610248565b806338e9922e1461032457806338fff2d0146103375780634a6b0b151461033f57806355c67628146103595780636028bfd41461036157610248565b80631dccd830116102105780631dccd830146102cc57806323b872dd146102ec578063292c914a146102ff578063313ce567146103075780633644e5151461031c57610248565b806306fdde031461024d578063095ea7b31461026b57806316c38b3c1461028b57806318160ddd146102a05780631c0de051146102b5575b600080fd5b61025561052a565b6040516102629190614aa1565b60405180910390f35b61027e610279366004614228565b6105c0565b604051610262919061497e565b61029e6102993660046144bc565b6105d7565b005b6102a86105eb565b60405161026291906149a1565b6102bd6105f1565b60405161026293929190614989565b6102df6102da3660046143ee565b61061a565b6040516102629190614946565b61027e6102fa366004614173565b610722565b61029e6107a5565b61030f6107d9565b6040516102629190614b0d565b6102a86107de565b61029e610332366004614859565b6107ed565b6102a8610806565b61034761082a565b60405161026296959493929190614a77565b6102a8610885565b61037461036f3660046144f4565b610892565b604051610262929190614af4565b610395610390366004614859565b6108c3565b6040516102629796959493929190614a47565b61027e6103b6366004614228565b61090c565b6102a8610966565b6103d66103d136600461431e565b61098b565b6040516102629190614902565b6102a86103f136600461411f565b610a3c565b6104096104043660046144f4565b610a5b565b604051610262929190614959565b6102a861042536600461411f565b610b00565b6102a86104383660046145f0565b610b1b565b61037461044b3660046144f4565b610b6d565b610458610b92565b60405161026291906148ee565b610458610bb6565b610255610bda565b6102a8610c3b565b6102a861048b366004614763565b610c41565b61027e61049e366004614228565b610df0565b610458610dfd565b6102a86104b9366004614747565b610e07565b6102a8610e29565b6102a8610e2f565b61029e6104dc3660046141b3565b610eea565b6104096104ef3660046144f4565b611033565b61027e610502366004614228565b611153565b6102a861051536600461413b565b611189565b6102df6111b4565b6102a86111be565b60038054604080516020601f60026000196101006001881615020190951694909404938401819004810282018101909252828152606093909290918301828280156105b65780601f1061058b576101008083540402835291602001916105b6565b820191906000526020600020905b81548152906001019060200180831161059957829003601f168201915b5050505050905090565b60006105cd338484611245565b5060015b92915050565b6105df6112ad565b6105e8816112db565b50565b60025490565b60008060006105fe611359565b159250610609611376565b915061061361139a565b9050909192565b606081516001600160401b038111801561063357600080fd5b5060405190808252806020026020018201604052801561065d578160200160208202803683370190505b509050600061066d6008546113be565b9050610677613ffc565b60005b845181101561071a5784818151811061068f57fe5b602002602001015191506106ad82602001516000141561013c6113cb565b60006106c883600001518585602001518660400151016113dd565b905060006106df84600001518686604001516113dd565b90506106f98460200151838303816106f357fe5b05611523565b86848151811061070557fe5b6020908102919091010152505060010161067a565b505050919050565b6001600160a01b038316600081815260016020908152604080832033808552925282205491926107609114806107585750838210155b6101976113cb565b61076b858585611536565b336001600160a01b0386161480159061078657506000198114155b15610798576107988533858403611245565b60019150505b9392505050565b6107ad611605565b6107b56112ad565b6107bf6001611618565b60006107c96105eb565b11156107d7576107d7611658565b565b601290565b60006107e86116a0565b905090565b6107f56112ad565b6107fd611605565b6105e88161173d565b7f000000000000000000000000000000000000000000000000000000000000000090565b60008060008060008060006008549050610843816117a6565b965061084e816117b2565b9550610859816117bf565b9450610864816113be565b935061086f816117cc565b925061087a816117d9565b915050909192939495565b60006107e86008546117d9565b600060606108a2865160026117e6565b6108b7898989898989896117f36118ad61192b565b97509795505050505050565b60008060008060008060006108de610400891061013b6113cb565b60006108e989611a49565b90506108f481611a5b565b959f949e50929c50909a509850965090945092505050565b3360009081526001602090815260408083206001600160a01b03861684529091528120548083106109485761094333856000611245565b61095c565b61095c338561095784876111f3565b611245565b5060019392505050565b60006107e86109736105eb565b61098561097e610e2f565b6002611abe565b90611ae2565b606081516001600160401b03811180156109a457600080fd5b506040519080825280602002602001820160405280156109ce578160200160208202803683370190505b50905060006109de6008546113be565b90506109e861401e565b60005b845181101561071a57848181518110610a0057fe5b60200260200101519150610a1d82600001518484602001516113dd565b848281518110610a2957fe5b60209081029190910101526001016109eb565b6001600160a01b0381166000908152602081905260409020545b919050565b60608088610a85610a6a610bb6565b6001600160a01b0316336001600160a01b03161460cd6113cb565b610a9a610a90610806565b82146101f46113cb565b610aa387611b33565b6000806000610ab78d8d8d8d8d8d8d6117f3565b925092509250610ac78c84611b95565b610ad0826118ad565b610ad9816118ad565b610ae1611359565b15610aee57610aee611658565b909c909b509950505050505050505050565b6001600160a01b031660009081526005602052604090205490565b60007f000000000000000000000000000000000000000000000000000000000000000082604051602001610b509291906148ab565b604051602081830303815290604052805190602001209050919050565b60006060610b7d865160026117e6565b6108b789898989898989611c28611ca861192b565b7f000000000000000000000000000000000000000000000000000000000000000090565b7f000000000000000000000000000000000000000000000000000000000000000090565b60048054604080516020601f60026000196101006001881615020190951694909404938401819004810282018101909252828152606093909290918301828280156105b65780601f1061058b576101008083540402835291602001916105b6565b60095490565b6000610c4b611605565b8360800151610c5b610a6a610bb6565b610c66610a90610806565b60007f00000000000000000000000000000000000000000000000000000000000000006001600160a01b031686602001516001600160a01b03161490506000610cae82611d06565b90506000610cbc8315611d06565b90506000610cc984611d5a565b90506000610cd78515611d5a565b9050610ce38985611dae565b9850610cef8884611dae565b9750610d188a60a0015186610d045789610d06565b8a5b87610d11578b610d13565b8a5b611dba565b60008a516001811115610d2757fe5b1415610d95576000610d45610d3a610885565b60608d015190611ec0565b9050610d67610d61828d606001516111f390919063ffffffff16565b86611dae565b60608c01526000610d7b8c8c8c8787611f04565b9050610d878186611f23565b985050505050505050610de8565b610da38a6060015184611dae565b60608b01526000610db78b8b8b8686611f2f565b9050610dc38186611f42565b9050610ddf610dd8610dd3610885565b611f4e565b8290611f74565b97505050505050505b509392505050565b60006105cd338484611536565b60006107e8611fb6565b600080610e1e83610e196008546113be565b612030565b905061079e81611523565b61040090565b600080610e3a610bb6565b6001600160a01b031663f94d4668610e50610806565b6040518263ffffffff1660e01b8152600401610e6c91906149a1565b60006040518083038186803b158015610e8457600080fd5b505afa158015610e98573d6000803e3d6000fd5b505050506040513d6000823e601f3d908101601f19168201604052610ec09190810190614253565b50915050610ecd81611b33565b6000610ed7612067565b9050610ee381836120d6565b9250505090565b610ef88442111560d16113cb565b6001600160a01b0387166000908152600560209081526040808320549051909291610f4f917f0000000000000000000000000000000000000000000000000000000000000000918c918c918c9188918d91016149c9565b6040516020818303038152906040528051906020012090506000610f7282612148565b9050600060018288888860405160008152602001604052604051610f999493929190614a29565b6020604051602081039080840390855afa158015610fbb573d6000803e3d6000fd5b5050604051601f1901519150610ffd90506001600160a01b03821615801590610ff557508b6001600160a01b0316826001600160a01b0316145b6101f86113cb565b6001600160a01b038b1660009081526005602052604090206001850190556110268b8b8b611245565b5050505050505050505050565b60608088611042610a6a610bb6565b61104d610a90610806565b611055611605565b600061105f6105eb565b6110cf5761106f8b8b8b88612164565b94509050611084620f424082101560cc6113cb565b6110926000620f42406121ed565b6110a189620f424083036121ed565b6110aa84611ca8565b604080516002808252606082018352909160208301908036833701905050925061113d565b6110d888611b33565b61110b87896000815181106110e957fe5b60200260200101518a6001815181106110fe57fe5b6020026020010151611dba565b61111a8b8b8b8b8b8b8b611c28565b9095509350905061112b89826121ed565b61113484611ca8565b61113d836118ad565b611145611658565b505097509795505050505050565b3360008181526001602090815260408083206001600160a01b038716845290915281205490916105cd91859061095790866111c5565b6001600160a01b03918216600090815260016020908152604080832093909416825291909152205490565b60606107e8612067565b6201de2090565b600082820161079e84821015836113cb565b600061079e83836055611209565b600061079e83836056611230565b60006112038383111560016113cb565b50900390565b60006001821b198416828461121f576000611222565b60015b60ff16901b17949350505050565b6001600160401b03811b1992909216911b1790565b6001600160a01b0380841660008181526001602090815260408083209487168084529490915290819020849055517f8c5be1e5ebec7d5bd14f71427d1e84f3dd0314c0f7b2291e5b200ac8c7c3b925906112a09085906149a1565b60405180910390a3505050565b60006112c46000356001600160e01b031916610b1b565b90506105e86112d38233612283565b6101916113cb565b80156112fb576112f66112ec611376565b42106101936113cb565b611310565b61131061130661139a565b42106101a96113cb565b6006805460ff19168215151790556040517f9e3a5e37224532dea67b89face185703738a228a6e8a23dee546960180d3be649061134e90839061497e565b60405180910390a150565b600061136361139a565b4211806107e857505060065460ff161590565b7f000000000000000000000000000000000000000000000000000000000000000090565b7f000000000000000000000000000000000000000000000000000000000000000090565b60006105d182604b612373565b816113d9576113d98161237b565b5050565b60006113ee824210156101386113cb565b4282900360006113fd85611a49565b9050600061140a826123ce565b905061141b600082116101396113cb565b8281116114475780830380611430848a6123da565b0261143b848a61241e565b0194505050505061079e565b600061145287612462565b9050600061145f82611a49565b9050600061146c826123ce565b905061147d600082116101396113cb565b61148c8682111561013a6113cb565b505060008061149b868461246f565b9150915060006114aa836123ce565b6114b3836123ce565b039050801561150b5760006114c8848d61241e565b6114d2848e61241e565b03905060006114e0856123ce565b8903905082818302816114ef57fe5b056114fa868f61241e565b01995050505050505050505061079e565b611515838c61241e565b97505050505050505061079e565b60006105d1655af3107a40008302612522565b6001600160a01b03831660009081526020819052604090205461155e828210156101966113cb565b6115756001600160a01b03841615156101996113cb565b6001600160a01b038085166000908152602081905260408082208585039055918516815220546115a590836111c5565b6001600160a01b0380851660008181526020819052604090819020939093559151908616907fddf252ad1be2c89b69c2b068fc378daa952ba7f163c4a11628f55a4df523b3ef906115f79086906149a1565b60405180910390a350505050565b6107d7611610611359565b6101926113cb565b60085461162590826111d7565b6008556040517f3e350b41e86a8e10f804ade6d35340d620be35569cc75ac943e8bb14ab80ead19061134e90839061497e565b600854611664816117cc565b156105e85761167e6116776009546128ff565b8290612943565b905061169a61169361168e6105eb565b6128ff565b8290612950565b60085550565b60007f00000000000000000000000000000000000000000000000000000000000000007f00000000000000000000000000000000000000000000000000000000000000007f000000000000000000000000000000000000000000000000000000000000000061170d61295e565b306040516020016117229594939291906149fd565b60405160208183030381529060405280519060200120905090565b61175064e8d4a5100082101560cb6113cb565b61176667016345785d8a000082111560ca6113cb565b60085461177390826111e5565b6008556040517fa9ba3ffe0b6c366b81232caab38605a0699ad5398d6cce76f91ee809e322dafc9061134e9083906149a1565b60006105d18282612962565b60006105d1826016612962565b60006105d182602c612989565b60006105d1826055612993565b60006105d182605661299d565b6113d981831460676113cb565b60006060806000611802612067565b905061180c611359565b156118545761182287896000815181106110e957fe5b600061182e828a6120d6565b905061183f8983600954848b6129aa565b925061184e89846111f3612a8f565b50611875565b60408051600280825260608201835290916020830190803683370190505091505b611880888287612b21565b909450925061189288846111f3612a8f565b61189c81896120d6565b600955509750975097945050505050565b6118d4816000815181106118bd57fe5b60200260200101516118cf6001611d06565b612b8e565b816000815181106118e157fe5b60200260200101818152505061190f816001815181106118fd57fe5b60200260200101516118cf6000611d06565b8160018151811061191c57fe5b60200260200101818152505050565b3330146119e9576000306001600160a01b031660003660405161194f9291906148c3565b6000604051808303816000865af19150503d806000811461198c576040519150601f19603f3d011682016040523d82523d6000602084013e611991565b606091505b5050905080600081146119a057fe5b60046000803e6000516001600160e01b0319166343adbafb60e01b81146119cb573d6000803e3d6000fd5b506020600460003e604060205260243d03602460403e601c3d016000f35b6119f286611b33565b600080611a088b8b8b8b8b8b8b8b63ffffffff16565b5091509150611a1a818463ffffffff16565b8051601f1982018390526343adbafb603f1983015260200260231982016044820181fd5b505050505050505050565b60009081526007602052604090205490565b6000806000806000806000611a6f88612bae565b9650611a7a88612bbb565b9550611a8588612bc8565b9450611a9088612bd5565b9350611a9b88612be2565b9250611aa688612bef565b9150611ab1886123ce565b9050919395979092949650565b600082820261079e841580611adb575083858381611ad857fe5b04145b60036113cb565b6000611af182151560046113cb565b82611afe575060006105d1565b670de0b6b3a764000083810290611b2190858381611b1857fe5b041460056113cb565b828181611b2a57fe5b049150506105d1565b611b5a81600081518110611b4357fe5b6020026020010151611b556001611d06565b611abe565b81600081518110611b6757fe5b60200260200101818152505061190f81600181518110611b8357fe5b6020026020010151611b556000611d06565b6001600160a01b038216600090815260208190526040902054611bbd828210156101966113cb565b6001600160a01b03831660009081526020819052604090208282039055600254611be790836111f3565b6002556040516000906001600160a01b038516907fddf252ad1be2c89b69c2b068fc378daa952ba7f163c4a11628f55a4df523b3ef906112a09086906149a1565b60006060806000611c37612067565b90506000611c45828a6120d6565b90506000611c588a84600954858c6129aa565b9050611c678a826111f3612a8f565b600080611c758c868b612bfc565b91509150611c868c826111c5612a8f565b611c90858d6120d6565b600955909e909d50909b509950505050505050505050565b611ccf81600081518110611cb857fe5b6020026020010151611cca6001611d06565b612c56565b81600081518110611cdc57fe5b60200260200101818152505061190f81600181518110611cf857fe5b6020026020010151611cca60005b600081611d33577f00000000000000000000000000000000000000000000000000000000000000006105d1565b507f0000000000000000000000000000000000000000000000000000000000000000919050565b600081611d87577f00000000000000000000000000000000000000000000000000000000000000006105d1565b507f0000000000000000000000000000000000000000000000000000000000000000919050565b600061079e8383611abe565b600854611dc6816117cc565b8015611dd157508343115b15611eba576000611e247f0000000000000000000000000000000000000000000000000000000000000000857f000000000000000000000000000000000000000000000000000000000000000086612c89565b90506000611e5b7f000000000000000000000000000000000000000000000000000000000000000086611e56866117b2565b612cbe565b90506000611e68846113be565b90506000611e75856117bf565b90506000611e8e82848787611e898b6117a6565b612cda565b9050808314611a3e57611ea18682612d31565b9550611ead8642612d3f565b6008819055955050505050505b50505050565b6000828202611eda841580611adb575083858381611ad857fe5b80611ee95760009150506105d1565b670de0b6b3a764000060001982015b046001019150506105d1565b6000611f17858486858a60600151612d4d565b90505b95945050505050565b600061079e8383612b8e565b6000611f17858486858a60600151612dc8565b600061079e8383612c56565b6000670de0b6b3a76400008210611f665760006105d1565b50670de0b6b3a76400000390565b6000611f8382151560046113cb565b82611f90575060006105d1565b670de0b6b3a764000083810290611faa90858381611b1857fe5b826001820381611ef857fe5b6000611fc0610bb6565b6001600160a01b031663aaabadc56040518163ffffffff1660e01b815260040160206040518083038186803b158015611ff857600080fd5b505afa15801561200c573d6000803e3d6000fd5b505050506040513d601f19601f820116820180604052508101906107e89190614618565b60008061203c83611a49565b9050612055600061204c836123ce565b116101396113cb565b61205f81856123da565b949350505050565b604080516002808252606080830184529260009291906020830190803683370190505090506120966001611d5a565b816000815181106120a357fe5b6020026020010181815250506120b96000611d5a565b816001815181106120c657fe5b6020908102919091010152905090565b670de0b6b3a764000060005b83518110156121385761212e6121278583815181106120fd57fe5b602002602001015185848151811061211157fe5b6020026020010151612e3e90919063ffffffff16565b8390612e8d565b91506001016120e2565b506105d1600082116101376113cb565b60006121526116a0565b82604051602001610b509291906148d3565b60006060600061217384612eb9565b905061218e600082600281111561218657fe5b1460ce6113cb565b600061219985612ecf565b90506121a7815160026117e6565b6121b081611b33565b60006121ba612067565b905060006121c882846120d6565b905060006121d7826002611abe565b6009929092555099919850909650505050505050565b6001600160a01b03821660009081526020819052604090205461221090826111c5565b6001600160a01b03831660009081526020819052604090205560025461223690826111c5565b6002556040516001600160a01b038316906000907fddf252ad1be2c89b69c2b068fc378daa952ba7f163c4a11628f55a4df523b3ef906122779085906149a1565b60405180910390a35050565b600073ba1ba1ba1ba1ba1ba1ba1ba1ba1ba1ba1ba1ba1b6122a2610b92565b6001600160a01b0316141580156122bd57506122bd83612ee5565b156122e5576122ca610b92565b6001600160a01b0316336001600160a01b03161490506105d1565b6122ed611fb6565b6001600160a01b0316639be2a8848484306040518463ffffffff1660e01b815260040161231c939291906149aa565b60206040518083038186803b15801561233457600080fd5b505afa158015612348573d6000803e3d6000fd5b505050506040513d601f19601f8201168201806040525081019061236c91906144d8565b90506105d1565b1c6103ff1690565b62461bcd60e51b6000908152602060045260076024526642414c23000030600a808404818106603090810160081b95839006959095019082900491820690940160101b939093010160c81b604452606490fd5b60006105d18282612989565b6000808260028111156123e957fe5b14156123f85761236c83612bae565b600182600281111561240657fe5b14156124155761236c83612bc8565b61236c83612be2565b60008082600281111561242d57fe5b141561243c5761236c83612bbb565b600182600281111561244a57fe5b14156124595761236c83612bd5565b61236c83612bef565b60006105d1826001612eff565b600080806103ff8180805b8385116124e657600285850104612491818a612eff565b935061249c84611a49565b92506124a7836123ce565b9150898210156124bc578060010195506124e0565b898211156124cf576001810394506124e0565b82839750975050505050505061251b565b5061247a565b888110612504576124fe6124f984612f10565b611a49565b82612511565b816125116124f985612462565b9650965050505050505b9250929050565b6000612551680238fd42c5cf03ffff19831215801561254a575068070c1cc73b00c800008313155b60096113cb565b60008212156125845761256682600003612522565b6a0c097ce7bc90715b34b9f160241b8161257c57fe5b059050610a56565b60006806f05b59d3b200000083126125c457506806f05b59d3b1ffffff1990910190770195e54c5dd42177f53a27172fa9ec6302628270000000006125fa565b6803782dace9d900000083126125f657506803782dace9d8ffffff19909101906b1425982cf597cd205cef73806125fa565b5060015b6064929092029168056bc75e2d6310000068ad78ebc5ac62000000841261264a5768ad78ebc5ac61ffffff199093019268056bc75e2d631000006e01855144814a7ff805980ff008400082020590505b6856bc75e2d6310000008412612686576856bc75e2d630ffffff199093019268056bc75e2d631000006b02df0ab5a80a22c61ab5a70082020590505b682b5e3af16b1880000084126126c057682b5e3af16b187fffff199093019268056bc75e2d63100000693f1fce3da636ea5cf85082020590505b6815af1d78b58c40000084126126fa576815af1d78b58c3fffff199093019268056bc75e2d63100000690127fa27722cc06cc5e282020590505b680ad78ebc5ac6200000841261273357680ad78ebc5ac61fffff199093019268056bc75e2d6310000068280e60114edb805d0382020590505b68056bc75e2d63100000841261276c5768056bc75e2d630fffff199093019268056bc75e2d63100000680ebc5fb4174612111082020590505b6802b5e3af16b188000084126127a5576802b5e3af16b187ffff199093019268056bc75e2d631000006808f00f760a4b2db55d82020590505b68015af1d78b58c4000084126127de5768015af1d78b58c3ffff199093019268056bc75e2d631000006806f5f177578893793782020590505b68056bc75e2d631000008481019085906002908280020505918201919050600368056bc75e2d631000008783020505918201919050600468056bc75e2d631000008783020505918201919050600568056bc75e2d631000008783020505918201919050600668056bc75e2d631000008783020505918201919050600768056bc75e2d631000008783020505918201919050600868056bc75e2d631000008783020505918201919050600968056bc75e2d631000008783020505918201919050600a68056bc75e2d631000008783020505918201919050600b68056bc75e2d631000008783020505918201919050600c68056bc75e2d631000008783020505918201919050606468056bc75e2d63100000848402058502059695505050505050565b60008061290b83612f1d565b9050655af3107a40006000821361292a57652d79883d20008203612934565b652d79883d200082015b8161293b57fe5b059392505050565b600061079e838383612f79565b600061079e83836016612f79565b4690565b600082821c623fffff16621fffff811361297c578061205f565b623fffff19179392505050565b1c637fffffff1690565b1c60019081161490565b1c6001600160401b031690565b60408051600280825260608083018452926000929190602083019080368337019050509050826129db579050611f1a565b612a4e877f000000000000000000000000000000000000000000000000000000000000000081518110612a0a57fe5b6020026020010151877f000000000000000000000000000000000000000000000000000000000000000081518110612a3e57fe5b6020026020010151878787612f90565b817f000000000000000000000000000000000000000000000000000000000000000081518110612a7a57fe5b60209081029190910101529695505050505050565b612ac583600081518110612a9f57fe5b602002602001015183600081518110612ab457fe5b60200260200101518363ffffffff16565b83600081518110612ad257fe5b602002602001018181525050612b0383600181518110612aee57fe5b602002602001015183600181518110612ab457fe5b83600181518110612b1057fe5b602002602001018181525050505050565b600060606000612b3084612eb9565b90506000816002811115612b4057fe5b1415612b5b57612b51868686613008565b9250925050612b86565b6001816002811115612b6957fe5b1415612b7957612b5186856130b9565b612b518686866130eb565b505b935093915050565b6000612b9d82151560046113cb565b818381612ba657fe5b049392505050565b60006105d18260ea612962565b60006105d18260b5613156565b60006105d182609f612962565b60006105d182606a613156565b60006105d1826054612962565b60006105d182601f613156565b600060606000612c0b84612eb9565b90506001816002811115612c1b57fe5b1415612c2c57612b51868686613189565b6002816002811115612c3a57fe5b1415612c4b57612b518686866131df565b612b8461013661237b565b6000612c6582151560046113cb565b82612c72575060006105d1565b816001840381612c7e57fe5b0460010190506105d1565b600080612ca9612c998486611f74565b612ca38789611f74565b90611f74565b9050612cb4816128ff565b9695505050505050565b600080612cce61168e8587611f74565b92909203949350505050565b600080612cf685858542612ced8b611a49565b93929190613263565b9050607842889003101580612d0b5786612d14565b612d1487612462565b600081815260076020526040902092909255509695505050505050565b600061079e8383604b6132b5565b600061079e8383602c6132c5565b6000612d6f612d6487670429d069189e0000612e8d565b8311156101306113cb565b6000612d7b87846111c5565b90506000612d898883611f74565b90506000612d978887611ae2565b90506000612da583836132d7565b9050612dba612db382611f4e565b8990612e8d565b9a9950505050505050505050565b6000612dea612ddf85670429d069189e0000612e8d565b8311156101316113cb565b6000612e00612df986856111f3565b8690611f74565b90506000612e0e8588611f74565b90506000612e1c83836132d7565b90506000612e3282670de0b6b3a76400006111f3565b9050612dba8a82611ec0565b600080612e4b8484613303565b90506000612e65612e5e83612710611ec0565b60016111c5565b905080821015612e7a576000925050506105d1565b612e8482826111f3565b925050506105d1565b6000828202612ea7841580611adb575083858381611ad857fe5b670de0b6b3a764000090049392505050565b6000818060200190518101906105d19190614634565b60608180602001905181019061079e91906146f9565b6000612ef7631c74c91760e11b610b1b565b909114919050565b60006104008383015b069392505050565b60006105d1826001613404565b6000612f2d6000831360646113cb565b670c7d713b49da000082138015612f4b5750670f43fc2c04ee000082125b15612f6957670de0b6b3a7640000612f6283613413565b8161257c57fe5b612f7282613531565b9050610a56565b623fffff828116821b90821b198416179392505050565b6000838311612fa157506000611f1a565b6000612fad8585611f74565b90506000612fc3670de0b6b3a764000088611ae2565b9050612fd7826709b6e64a8ec600006138d0565b91506000612fe583836132d7565b90506000612ffc612ff583611f4e565b8b90612e8d565b9050612dba8187612e8d565b60006060613014611605565b600080613020856138e7565b915091506130326002821060646113cb565b60408051600280825260608201835260009260208301908036833701905050905061309488838151811061306257fe5b602002602001015188848151811061307657fe5b6020026020010151856130876105eb565b61308f610885565b613909565b8183815181106130a057fe5b6020908102919091010152919791965090945050505050565b6000606060006130c8846139c0565b905060006130de86836130d96105eb565b6139d6565b9196919550909350505050565b600060606130f7611605565b60008061310385613a87565b91509150613113825160026117e6565b61311c82611b33565b600061313988888561312c6105eb565b613134610885565b613a9f565b90506131498282111560cf6113cb565b9791965090945050505050565b600082821c661fffffffffffff16660fffffffffffff8113613178578061205f565b661fffffffffffff19179392505050565b6000606060008061319985613a87565b915091506131a9825160026117e6565b6131b282611b33565b60006131cf8888856131c26105eb565b6131ca610885565b613cc9565b90506131498282101560d06113cb565b600060606000806131ef856138e7565b915091506132016002821060646113cb565b60408051600280825260608201835260009260208301908036833701905050905061309488838151811061323157fe5b602002602001015188848151811061324557fe5b6020026020010151856132566105eb565b61325e610885565b613ed8565b60008061326f876123ce565b83039050600081870261328189612bbb565b01905060008287026132928a612bd5565b01905060008387026132a38b612bef565b019050612dba89848a858b868c613f7a565b6103ff811b1992909216911b1790565b637fffffff811b1992909216911b1790565b6000806132e48484613303565b905060006132f7612e5e83612710611ec0565b9050611f1a82826111c5565b6000816133195750670de0b6b3a76400006105d1565b82613326575060006105d1565b613337600160ff1b841060066113cb565b8261335d770bce5086492111aea88f4bb1ca6bcf584181ea8059f76532841060076113cb565b826000670c7d713b49da00008313801561337e5750670f43fc2c04ee000083125b156133b557600061338e84613413565b9050670de0b6b3a764000080820784020583670de0b6b3a7640000830502019150506133c3565b816133bf84613531565b0290505b670de0b6b3a764000090056133fb680238fd42c5cf03ffff1982128015906133f4575068070c1cc73b00c800008213155b60086113cb565b612cb481612522565b60006104008284038101612f08565b670de0b6b3a7640000026000806a0c097ce7bc90715b34b9f160241b808401906ec097ce7bc90715b34b9f0fffffffff198501028161344e57fe5b05905060006a0c097ce7bc90715b34b9f160241b82800205905081806a0c097ce7bc90715b34b9f160241b81840205915060038205016a0c097ce7bc90715b34b9f160241b82840205915060058205016a0c097ce7bc90715b34b9f160241b82840205915060078205016a0c097ce7bc90715b34b9f160241b82840205915060098205016a0c097ce7bc90715b34b9f160241b828402059150600b8205016a0c097ce7bc90715b34b9f160241b828402059150600d8205016a0c097ce7bc90715b34b9f160241b828402059150600f826002919005919091010295945050505050565b6000670de0b6b3a764000082121561356d57613563826a0c097ce7bc90715b34b9f160241b8161355d57fe5b05613531565b6000039050610a56565b60007e1600ef3172e58d2e933ec884fde10064c63b5372d805e203c000000000000083126135be57770195e54c5dd42177f53a27172fa9ec630262827000000000830592506806f05b59d3b2000000015b73011798004d755d3c8bc8e03204cf44619e00000083126135f6576b1425982cf597cd205cef7380830592506803782dace9d9000000015b606492830292026e01855144814a7ff805980ff0084000831261363e576e01855144814a7ff805980ff008400068056bc75e2d63100000840205925068ad78ebc5ac62000000015b6b02df0ab5a80a22c61ab5a7008312613679576b02df0ab5a80a22c61ab5a70068056bc75e2d6310000084020592506856bc75e2d631000000015b693f1fce3da636ea5cf85083126136b057693f1fce3da636ea5cf85068056bc75e2d631000008402059250682b5e3af16b18800000015b690127fa27722cc06cc5e283126136e757690127fa27722cc06cc5e268056bc75e2d6310000084020592506815af1d78b58c400000015b68280e60114edb805d03831261371c5768280e60114edb805d0368056bc75e2d631000008402059250680ad78ebc5ac6200000015b680ebc5fb41746121110831261374757680ebc5fb4174612111068056bc75e2d631000009384020592015b6808f00f760a4b2db55d831261377c576808f00f760a4b2db55d68056bc75e2d6310000084020592506802b5e3af16b1880000015b6806f5f177578893793783126137b1576806f5f177578893793768056bc75e2d63100000840205925068015af1d78b58c40000015b6806248f33704b28660383126137e5576806248f33704b28660368056bc75e2d63100000840205925067ad78ebc5ac620000015b6805c548670b9510e7ac8312613819576805c548670b9510e7ac68056bc75e2d6310000084020592506756bc75e2d6310000015b600068056bc75e2d63100000840168056bc75e2d63100000808603028161383c57fe5b059050600068056bc75e2d63100000828002059050818068056bc75e2d63100000818402059150600382050168056bc75e2d63100000828402059150600582050168056bc75e2d63100000828402059150600782050168056bc75e2d63100000828402059150600982050168056bc75e2d63100000828402059150600b820501600202606485820105979650505050505050565b6000818310156138e0578161079e565b5090919050565b600080828060200190518101906138fe91906146c3565b909590945092505050565b60008061391a84612ca381886111f3565b90506139336709b6e64a8ec600008210156101326113cb565b600061395161394a670de0b6b3a764000089611ae2565b83906132d7565b9050600061396861396183611f4e565b8a90612e8d565b9050600061397589611f4e565b905060006139838383611ec0565b9050600061399184836111f3565b90506139b06139a96139a28a611f4e565b8490612e8d565b82906111c5565b9c9b505050505050505050505050565b60008180602001905181019061079e9190614696565b606060006139e48484611ae2565b9050600085516001600160401b03811180156139ff57600080fd5b50604051908082528060200260200182016040528015613a29578160200160208202803683370190505b50905060005b8651811015613a7d57613a5e83888381518110613a4857fe5b6020026020010151612e8d90919063ffffffff16565b828281518110613a6a57fe5b6020908102919091010152600101613a2f565b5095945050505050565b60606000828060200190518101906138fe9190614650565b60008084516001600160401b0381118015613ab957600080fd5b50604051908082528060200260200182016040528015613ae3578160200160208202803683370190505b5090506000805b8851811015613ba857613b43898281518110613b0257fe5b6020026020010151612ca3898481518110613b1957fe5b60200260200101518c8581518110613b2d57fe5b60200260200101516111f390919063ffffffff16565b838281518110613b4f57fe5b602002602001018181525050613b9e613b97898381518110613b6d57fe5b6020026020010151858481518110613b8157fe5b6020026020010151611ec090919063ffffffff16565b83906111c5565b9150600101613aea565b50670de0b6b3a764000060005b8951811015613ca8576000848281518110613bcc57fe5b6020026020010151841115613c2a576000613bf5613be986611f4e565b8d8581518110613a4857fe5b90506000613c09828c8681518110613b2d57fe5b9050613c21613b97613c1a8b611f4e565b8390611f74565b92505050613c41565b888281518110613c3657fe5b602002602001015190505b6000613c6a8c8481518110613c5257fe5b6020026020010151610985848f8781518110613b2d57fe5b9050613c9c613c958c8581518110613c7e57fe5b602002602001015183612e3e90919063ffffffff16565b8590612e8d565b93505050600101613bb5565b50613cbc613cb582611f4e565b8790611ec0565b9998505050505050505050565b60008084516001600160401b0381118015613ce357600080fd5b50604051908082528060200260200182016040528015613d0d578160200160208202803683370190505b5090506000805b8851811015613db557613d6d898281518110613d2c57fe5b6020026020010151610985898481518110613d4357fe5b60200260200101518c8581518110613d5757fe5b60200260200101516111c590919063ffffffff16565b838281518110613d7957fe5b602002602001018181525050613dab613b97898381518110613d9757fe5b6020026020010151858481518110613a4857fe5b9150600101613d14565b50670de0b6b3a764000060005b8951811015613e9657600083858381518110613dda57fe5b60200260200101511115613e36576000613dff613be986670de0b6b3a76400006111f3565b90506000613e13828c8681518110613b2d57fe5b9050613e2d613b97612127670de0b6b3a76400008c6111f3565b92505050613e4d565b888281518110613e4257fe5b602002602001015190505b6000613e768c8481518110613e5e57fe5b6020026020010151610985848f8781518110613d5757fe5b9050613e8a613c958c8581518110613c7e57fe5b93505050600101613dc2565b50670de0b6b3a76400008110613ecc57613ec2613ebb82670de0b6b3a76400006111f3565b8790612e8d565b9350505050611f1a565b60009350505050611f1a565b600080613ee984612ca381886111c5565b9050613f026729a2241af62c00008211156101336113cb565b6000613f1961394a670de0b6b3a764000089611f74565b90506000613f39613f3283670de0b6b3a76400006111f3565b8a90611ec0565b90506000613f4689611f4e565b90506000613f548383611ec0565b90506000613f6284836111f3565b90506139b06139a9613f738a611f4e565b8490611f74565b6000613f868282613fda565b613f9184601f613fde565b613f9c866054613fef565b613fa788606a613fde565b613fb28a609f613fef565b613fbd8c60b5613fde565b613fc88e60ea613fef565b17171717171798975050505050505050565b1b90565b661fffffffffffff91909116901b90565b623fffff91909116901b90565b6040805160608101909152806000815260200160008152602001600081525090565b604080518082019091526000808252602082015290565b8035610a5681614b5b565b600082601f830112614050578081fd5b8151602061406561406083614b3e565b614b1b565b8281528181019085830183850287018401881015614081578586fd5b855b8581101561409f57815184529284019290840190600101614083565b5090979650505050505050565b600082601f8301126140bc578081fd5b81356001600160401b038111156140cf57fe5b6140e2601f8201601f1916602001614b1b565b8181528460208386010111156140f6578283fd5b816020850160208301379081016020019190915292915050565b803560028110610a5657600080fd5b600060208284031215614130578081fd5b813561079e81614b5b565b6000806040838503121561414d578081fd5b823561415881614b5b565b9150602083013561416881614b5b565b809150509250929050565b600080600060608486031215614187578081fd5b833561419281614b5b565b925060208401356141a281614b5b565b929592945050506040919091013590565b600080600080600080600060e0888a0312156141cd578485fd5b87356141d881614b5b565b965060208801356141e881614b5b565b95506040880135945060608801359350608088013560ff8116811461420b578384fd5b9699959850939692959460a0840135945060c09093013592915050565b6000806040838503121561423a578182fd5b823561424581614b5b565b946020939093013593505050565b600080600060608486031215614267578081fd5b83516001600160401b038082111561427d578283fd5b818601915086601f830112614290578283fd5b815160206142a061406083614b3e565b82815281810190858301838502870184018c10156142bc578788fd5b8796505b848710156142e75780516142d381614b5b565b8352600196909601959183019183016142c0565b5091890151919750909350505080821115614300578283fd5b5061430d86828701614040565b925050604084015190509250925092565b60006020808385031215614330578182fd5b82356001600160401b0380821115614346578384fd5b818501915085601f830112614359578384fd5b813561436761406082614b3e565b818152848101908486016040808502870188018b1015614385578889fd5b8896505b848710156143df5780828c03121561439f578889fd5b805181810181811088821117156143b257fe5b825282356143bf81614b7e565b815282890135898201528452600196909601959287019290810190614389565b50909998505050505050505050565b60006020808385031215614400578182fd5b82356001600160401b0380821115614416578384fd5b818501915085601f830112614429578384fd5b813561443761406082614b3e565b818152848101908486016060808502870188018b1015614455578889fd5b8896505b848710156143df5780828c03121561446f578889fd5b60408051828101818110898211171561448457fe5b8252833561449181614b7e565b8152838a01358a82015281840135918101919091528452600196909601959287019290810190614459565b6000602082840312156144cd578081fd5b813561079e81614b70565b6000602082840312156144e9578081fd5b815161079e81614b70565b600080600080600080600060e0888a03121561450e578081fd5b8735965060208089013561452181614b5b565b9650604089013561453181614b5b565b955060608901356001600160401b038082111561454c578384fd5b818b0191508b601f83011261455f578384fd5b813561456d61406082614b3e565b8082825285820191508585018f87888602880101111561458b578788fd5b8795505b838610156145ad57803583526001959095019491860191860161458f565b509850505060808b0135955060a08b0135945060c08b01359250808311156145d3578384fd5b50506145e18a828b016140ac565b91505092959891949750929550565b600060208284031215614601578081fd5b81356001600160e01b03198116811461079e578182fd5b600060208284031215614629578081fd5b815161079e81614b5b565b600060208284031215614645578081fd5b815161079e81614b7e565b600080600060608486031215614664578081fd5b835161466f81614b7e565b60208501519093506001600160401b0381111561468a578182fd5b61430d86828701614040565b600080604083850312156146a8578182fd5b82516146b381614b7e565b6020939093015192949293505050565b6000806000606084860312156146d7578081fd5b83516146e281614b7e565b602085015160409095015190969495509392505050565b6000806040838503121561470b578182fd5b825161471681614b7e565b60208401519092506001600160401b03811115614731578182fd5b61473d85828601614040565b9150509250929050565b600060208284031215614758578081fd5b813561079e81614b7e565b600080600060608486031215614777578081fd5b83356001600160401b038082111561478d578283fd5b81860191506101208083890312156147a3578384fd5b6147ac81614b1b565b90506147b783614110565b81526147c560208401614035565b60208201526147d660408401614035565b6040820152606083013560608201526080830135608082015260a083013560a082015261480560c08401614035565b60c082015261481660e08401614035565b60e0820152610100808401358381111561482e578586fd5b61483a8a8287016140ac565b9183019190915250976020870135975060409096013595945050505050565b60006020828403121561486a578081fd5b5035919050565b6000815180845260208085019450808401835b838110156148a057815187529582019590820190600101614884565b509495945050505050565b9182526001600160e01b031916602082015260240190565b6000828483379101908152919050565b61190160f01b81526002810192909252602282015260420190565b6001600160a01b0391909116815260200190565b6020808252825182820181905260009190848201906040850190845b8181101561493a5783518352928401929184019160010161491e565b50909695505050505050565b60006020825261079e6020830184614871565b60006040825261496c6040830185614871565b8281036020840152611f1a8185614871565b901515815260200190565b92151583526020830191909152604082015260600190565b90815260200190565b9283526001600160a01b03918216602084015216604082015260600190565b9586526001600160a01b0394851660208701529290931660408501526060840152608083019190915260a082015260c00190565b9485526020850193909352604084019190915260608301526001600160a01b0316608082015260a00190565b93845260ff9290921660208401526040830152606082015260800190565b968752602087019590955260408601939093526060850191909152608084015260a083015260c082015260e00190565b9586526020860194909452604085019290925260608401521515608083015260a082015260c00190565b6000602080835283518082850152825b81811015614acd57858101830151858201604001528201614ab1565b81811115614ade5783604083870101525b50601f01601f1916929092016040019392505050565b60008382526040602083015261205f6040830184614871565b60ff91909116815260200190565b6040518181016001600160401b0381118282101715614b3657fe5b604052919050565b60006001600160401b03821115614b5157fe5b5060209081020190565b6001600160a01b03811681146105e857600080fd5b80151581146105e857600080fd5b600381106105e857600080fdfea26469706673582212204f670b3bca66f8fdb930fe5452c68e28e6757cc77a3a026647a114b2143e4bb164736f6c63430007060033a26469706673582212207d6ed2e4cd2eaf7f60d6587fd97d2c29379f8bcdb30c71e973458fb9b355fe8264736f6c63430007060033",
			"opcodes": "PUSH1 0xC0 PUSH1 0x40 MSTORE CALLVALUE DUP1 ISZERO PUSH2 0x10 JUMPI PUSH1 0x0 DUP1 REVERT JUMPDEST POP PUSH1 0x40 MLOAD PUSH2 0x5F3E CODESIZE SUB DUP1 PUSH2 0x5F3E DUP4 CODECOPY DUP2 ADD PUSH1 0x40 DUP2 SWAP1 MSTORE PUSH2 0x2F SWAP2 PUSH2 0x4D JUMP JUMPDEST PUSH1 0x60 SHL PUSH1 0x1 PUSH1 0x1 PUSH1 0x60 SHL SUB NOT AND PUSH1 0x80 MSTORE PUSH3 0x76A700 TIMESTAMP ADD PUSH1 0xA0 MSTORE PUSH2 0x7B JUMP JUMPDEST PUSH1 0x0 PUSH1 0x20 DUP3 DUP5 SUB SLT ISZERO PUSH2 0x5E JUMPI DUP1 DUP2 REVERT JUMPDEST DUP2 MLOAD PUSH1 0x1 PUSH1 0x1 PUSH1 0xA0 SHL SUB DUP2 AND DUP2 EQ PUSH2 0x74 JUMPI DUP2 DUP3 REVERT JUMPDEST SWAP4 SWAP3 POP POP POP JUMP JUMPDEST PUSH1 0x80 MLOAD PUSH1 0x60 SHR PUSH1 0xA0 MLOAD PUSH2 0x5E98 PUSH2 0xA6 PUSH1 0x0 CODECOPY DUP1 PUSH2 0x219 MSTORE DUP1 PUSH2 0x243 MSTORE POP DUP1 PUSH2 0x2A3 MSTORE POP PUSH2 0x5E98 PUSH1 0x0 RETURN INVALID PUSH1 0x80 PUSH1 0x40 MSTORE CALLVALUE DUP1 ISZERO PUSH3 0x11 JUMPI PUSH1 0x0 DUP1 REVERT JUMPDEST POP PUSH1 0x4 CALLDATASIZE LT PUSH3 0x52 JUMPI PUSH1 0x0 CALLDATALOAD PUSH1 0xE0 SHR DUP1 PUSH4 0x1596019B EQ PUSH3 0x57 JUMPI DUP1 PUSH4 0x2DA47C40 EQ PUSH3 0x86 JUMPI DUP1 PUSH4 0x6634B753 EQ PUSH3 0xA0 JUMPI DUP1 PUSH4 0x8D928AF8 EQ PUSH3 0xC6 JUMPI JUMPDEST PUSH1 0x0 DUP1 REVERT JUMPDEST PUSH3 0x6E PUSH3 0x68 CALLDATASIZE PUSH1 0x4 PUSH3 0x4AD JUMP JUMPDEST PUSH3 0xD0 JUMP JUMPDEST PUSH1 0x40 MLOAD PUSH3 0x7D SWAP2 SWAP1 PUSH3 0x5F2 JUMP JUMPDEST PUSH1 0x40 MLOAD DUP1 SWAP2 SUB SWAP1 RETURN JUMPDEST PUSH3 0x90 PUSH3 0x213 JUMP JUMPDEST PUSH1 0x40 MLOAD PUSH3 0x7D SWAP3 SWAP2 SWAP1 PUSH3 0x705 JUMP JUMPDEST PUSH3 0xB7 PUSH3 0xB1 CALLDATASIZE PUSH1 0x4 PUSH3 0x487 JUMP JUMPDEST PUSH3 0x27F JUMP JUMPDEST PUSH1 0x40 MLOAD PUSH3 0x7D SWAP2 SWAP1 PUSH3 0x606 JUMP JUMPDEST PUSH3 0x6E PUSH3 0x2A1 JUMP JUMPDEST PUSH1 0x0 DUP1 PUSH1 0x0 PUSH3 0xDF PUSH3 0x213 JUMP JUMPDEST SWAP2 POP SWAP2 POP PUSH1 0x0 PUSH1 0x40 MLOAD DUP1 PUSH2 0x180 ADD PUSH1 0x40 MSTORE DUP1 PUSH3 0xFB PUSH3 0x2A1 JUMP JUMPDEST PUSH1 0x1 PUSH1 0x1 PUSH1 0xA0 SHL SUB AND DUP2 MSTORE PUSH1 0x20 ADD DUP13 DUP2 MSTORE PUSH1 0x20 ADD DUP12 DUP2 MSTORE PUSH1 0x20 ADD DUP11 PUSH1 0x0 DUP2 MLOAD DUP2 LT PUSH3 0x123 JUMPI INVALID JUMPDEST PUSH1 0x20 MUL PUSH1 0x20 ADD ADD MLOAD PUSH1 0x1 PUSH1 0x1 PUSH1 0xA0 SHL SUB AND DUP2 MSTORE PUSH1 0x20 ADD DUP11 PUSH1 0x1 DUP2 MLOAD DUP2 LT PUSH3 0x147 JUMPI INVALID JUMPDEST PUSH1 0x20 MUL PUSH1 0x20 ADD ADD MLOAD PUSH1 0x1 PUSH1 0x1 PUSH1 0xA0 SHL SUB AND DUP2 MSTORE PUSH1 0x20 ADD DUP10 PUSH1 0x0 DUP2 MLOAD DUP2 LT PUSH3 0x16B JUMPI INVALID JUMPDEST PUSH1 0x20 MUL PUSH1 0x20 ADD ADD MLOAD DUP2 MSTORE PUSH1 0x20 ADD DUP10 PUSH1 0x1 DUP2 MLOAD DUP2 LT PUSH3 0x186 JUMPI INVALID JUMPDEST PUSH1 0x20 MUL PUSH1 0x20 ADD ADD MLOAD DUP2 MSTORE PUSH1 0x20 ADD DUP9 DUP2 MSTORE PUSH1 0x20 ADD DUP5 DUP2 MSTORE PUSH1 0x20 ADD DUP4 DUP2 MSTORE PUSH1 0x20 ADD DUP8 ISZERO ISZERO DUP2 MSTORE PUSH1 0x20 ADD DUP7 PUSH1 0x1 PUSH1 0x1 PUSH1 0xA0 SHL SUB AND DUP2 MSTORE POP SWAP1 POP PUSH1 0x0 DUP2 PUSH1 0x40 MLOAD PUSH3 0x1CD SWAP1 PUSH3 0x311 JUMP JUMPDEST PUSH3 0x1D9 SWAP2 SWAP1 PUSH3 0x611 JUMP JUMPDEST PUSH1 0x40 MLOAD DUP1 SWAP2 SUB SWAP1 PUSH1 0x0 CREATE DUP1 ISZERO DUP1 ISZERO PUSH3 0x1F6 JUMPI RETURNDATASIZE PUSH1 0x0 DUP1 RETURNDATACOPY RETURNDATASIZE PUSH1 0x0 REVERT JUMPDEST POP SWAP1 POP PUSH3 0x204 DUP2 PUSH3 0x2C5 JUMP JUMPDEST SWAP12 SWAP11 POP POP POP POP POP POP POP POP POP POP POP JUMP JUMPDEST PUSH1 0x0 DUP1 TIMESTAMP PUSH32 0x0 DUP2 LT ISZERO PUSH3 0x271 JUMPI DUP1 PUSH32 0x0 SUB SWAP3 POP PUSH3 0x278D00 SWAP2 POP PUSH3 0x27A JUMP JUMPDEST PUSH1 0x0 SWAP3 POP PUSH1 0x0 SWAP2 POP JUMPDEST POP SWAP1 SWAP2 JUMP JUMPDEST PUSH1 0x1 PUSH1 0x1 PUSH1 0xA0 SHL SUB DUP2 AND PUSH1 0x0 SWAP1 DUP2 MSTORE PUSH1 0x20 DUP2 SWAP1 MSTORE PUSH1 0x40 SWAP1 KECCAK256 SLOAD PUSH1 0xFF AND JUMPDEST SWAP2 SWAP1 POP JUMP JUMPDEST PUSH32 0x0 SWAP1 JUMP JUMPDEST PUSH1 0x1 PUSH1 0x1 PUSH1 0xA0 SHL SUB DUP2 AND PUSH1 0x0 DUP2 DUP2 MSTORE PUSH1 0x20 DUP2 SWAP1 MSTORE PUSH1 0x40 DUP1 DUP3 KECCAK256 DUP1 SLOAD PUSH1 0xFF NOT AND PUSH1 0x1 OR SWAP1 SSTORE MLOAD PUSH32 0x83A48FBCFC991335314E74D0496AAB6A1987E992DDC85DDDBCC4D6DD6EF2E9FC SWAP2 SWAP1 LOG2 POP JUMP JUMPDEST PUSH2 0x56F2 DUP1 PUSH3 0x771 DUP4 CODECOPY ADD SWAP1 JUMP JUMPDEST DUP1 CALLDATALOAD PUSH3 0x29C DUP2 PUSH3 0x757 JUMP JUMPDEST PUSH1 0x0 DUP3 PUSH1 0x1F DUP4 ADD SLT PUSH3 0x33D JUMPI DUP1 DUP2 REVERT JUMPDEST DUP2 CALLDATALOAD PUSH1 0x20 PUSH3 0x356 PUSH3 0x350 DUP4 PUSH3 0x738 JUMP JUMPDEST PUSH3 0x713 JUMP JUMPDEST DUP3 DUP2 MSTORE DUP2 DUP2 ADD SWAP1 DUP6 DUP4 ADD DUP4 DUP6 MUL DUP8 ADD DUP5 ADD DUP9 LT ISZERO PUSH3 0x373 JUMPI DUP6 DUP7 REVERT JUMPDEST DUP6 JUMPDEST DUP6 DUP2 LT ISZERO PUSH3 0x39E JUMPI DUP2 CALLDATALOAD PUSH3 0x38B DUP2 PUSH3 0x757 JUMP JUMPDEST DUP5 MSTORE SWAP3 DUP5 ADD SWAP3 SWAP1 DUP5 ADD SWAP1 PUSH1 0x1 ADD PUSH3 0x375 JUMP JUMPDEST POP SWAP1 SWAP8 SWAP7 POP POP POP POP POP POP POP JUMP JUMPDEST PUSH1 0x0 DUP3 PUSH1 0x1F DUP4 ADD SLT PUSH3 0x3BC JUMPI DUP1 DUP2 REVERT JUMPDEST DUP2 CALLDATALOAD PUSH1 0x20 PUSH3 0x3CF PUSH3 0x350 DUP4 PUSH3 0x738 JUMP JUMPDEST DUP3 DUP2 MSTORE DUP2 DUP2 ADD SWAP1 DUP6 DUP4 ADD DUP4 DUP6 MUL DUP8 ADD DUP5 ADD DUP9 LT ISZERO PUSH3 0x3EC JUMPI DUP6 DUP7 REVERT JUMPDEST DUP6 JUMPDEST DUP6 DUP2 LT ISZERO PUSH3 0x39E JUMPI DUP2 CALLDATALOAD DUP5 MSTORE SWAP3 DUP5 ADD SWAP3 SWAP1 DUP5 ADD SWAP1 PUSH1 0x1 ADD PUSH3 0x3EE JUMP JUMPDEST DUP1 CALLDATALOAD DUP1 ISZERO ISZERO DUP2 EQ PUSH3 0x29C JUMPI PUSH1 0x0 DUP1 REVERT JUMPDEST PUSH1 0x0 DUP3 PUSH1 0x1F DUP4 ADD SLT PUSH3 0x42E JUMPI DUP1 DUP2 REVERT JUMPDEST DUP2 CALLDATALOAD PUSH8 0xFFFFFFFFFFFFFFFF DUP2 GT ISZERO PUSH3 0x443 JUMPI INVALID JUMPDEST PUSH3 0x458 PUSH1 0x1F DUP3 ADD PUSH1 0x1F NOT AND PUSH1 0x20 ADD PUSH3 0x713 JUMP JUMPDEST DUP2 DUP2 MSTORE DUP5 PUSH1 0x20 DUP4 DUP7 ADD ADD GT ISZERO PUSH3 0x46D JUMPI DUP3 DUP4 REVERT JUMPDEST DUP2 PUSH1 0x20 DUP6 ADD PUSH1 0x20 DUP4 ADD CALLDATACOPY SWAP1 DUP2 ADD PUSH1 0x20 ADD SWAP2 SWAP1 SWAP2 MSTORE SWAP3 SWAP2 POP POP JUMP JUMPDEST PUSH1 0x0 PUSH1 0x20 DUP3 DUP5 SUB SLT ISZERO PUSH3 0x499 JUMPI DUP1 DUP2 REVERT JUMPDEST DUP2 CALLDATALOAD PUSH3 0x4A6 DUP2 PUSH3 0x757 JUMP JUMPDEST SWAP4 SWAP3 POP POP POP JUMP JUMPDEST PUSH1 0x0 DUP1 PUSH1 0x0 DUP1 PUSH1 0x0 DUP1 PUSH1 0x0 PUSH1 0xE0 DUP9 DUP11 SUB SLT ISZERO PUSH3 0x4C8 JUMPI DUP3 DUP4 REVERT JUMPDEST DUP8 CALLDATALOAD PUSH8 0xFFFFFFFFFFFFFFFF DUP1 DUP3 GT ISZERO PUSH3 0x4E0 JUMPI DUP5 DUP6 REVERT JUMPDEST PUSH3 0x4EE DUP12 DUP4 DUP13 ADD PUSH3 0x41D JUMP JUMPDEST SWAP9 POP PUSH1 0x20 DUP11 ADD CALLDATALOAD SWAP2 POP DUP1 DUP3 GT ISZERO PUSH3 0x504 JUMPI DUP5 DUP6 REVERT JUMPDEST PUSH3 0x512 DUP12 DUP4 DUP13 ADD PUSH3 0x41D JUMP JUMPDEST SWAP8 POP PUSH1 0x40 DUP11 ADD CALLDATALOAD SWAP2 POP DUP1 DUP3 GT ISZERO PUSH3 0x528 JUMPI DUP5 DUP6 REVERT JUMPDEST PUSH3 0x536 DUP12 DUP4 DUP13 ADD PUSH3 0x32C JUMP JUMPDEST SWAP7 POP PUSH1 0x60 DUP11 ADD CALLDATALOAD SWAP2 POP DUP1 DUP3 GT ISZERO PUSH3 0x54C JUMPI DUP5 DUP6 REVERT JUMPDEST POP PUSH3 0x55B DUP11 DUP3 DUP12 ADD PUSH3 0x3AB JUMP JUMPDEST SWAP5 POP POP PUSH1 0x80 DUP9 ADD CALLDATALOAD SWAP3 POP PUSH3 0x573 PUSH1 0xA0 DUP10 ADD PUSH3 0x40C JUMP JUMPDEST SWAP2 POP PUSH3 0x583 PUSH1 0xC0 DUP10 ADD PUSH3 0x31F JUMP JUMPDEST SWAP1 POP SWAP3 SWAP6 SWAP9 SWAP2 SWAP5 SWAP8 POP SWAP3 SWAP6 POP JUMP JUMPDEST PUSH1 0x1 PUSH1 0x1 PUSH1 0xA0 SHL SUB AND SWAP1 MSTORE JUMP JUMPDEST ISZERO ISZERO SWAP1 MSTORE JUMP JUMPDEST PUSH1 0x0 DUP2 MLOAD DUP1 DUP5 MSTORE DUP2 JUMPDEST DUP2 DUP2 LT ISZERO PUSH3 0x5CB JUMPI PUSH1 0x20 DUP2 DUP6 ADD DUP2 ADD MLOAD DUP7 DUP4 ADD DUP3 ADD MSTORE ADD PUSH3 0x5AD JUMP JUMPDEST DUP2 DUP2 GT ISZERO PUSH3 0x5DD JUMPI DUP3 PUSH1 0x20 DUP4 DUP8 ADD ADD MSTORE JUMPDEST POP PUSH1 0x1F ADD PUSH1 0x1F NOT AND SWAP3 SWAP1 SWAP3 ADD PUSH1 0x20 ADD SWAP3 SWAP2 POP POP JUMP JUMPDEST PUSH1 0x1 PUSH1 0x1 PUSH1 0xA0 SHL SUB SWAP2 SWAP1 SWAP2 AND DUP2 MSTORE PUSH1 0x20 ADD SWAP1 JUMP JUMPDEST SWAP1 ISZERO ISZERO DUP2 MSTORE PUSH1 0x20 ADD SWAP1 JUMP JUMPDEST PUSH1 0x0 PUSH1 0x20 DUP3 MSTORE PUSH3 0x627 PUSH1 0x20 DUP4 ADD DUP5 MLOAD PUSH3 0x591 JUMP JUMPDEST PUSH1 0x20 DUP4 ADD MLOAD PUSH2 0x180 DUP1 PUSH1 0x40 DUP6 ADD MSTORE PUSH3 0x645 PUSH2 0x1A0 DUP6 ADD DUP4 PUSH3 0x5A4 JUMP JUMPDEST SWAP2 POP PUSH1 0x40 DUP6 ADD MLOAD PUSH1 0x1F NOT DUP6 DUP5 SUB ADD PUSH1 0x60 DUP7 ADD MSTORE PUSH3 0x664 DUP4 DUP3 PUSH3 0x5A4 JUMP JUMPDEST SWAP3 POP POP PUSH1 0x60 DUP6 ADD MLOAD PUSH3 0x67B PUSH1 0x80 DUP7 ADD DUP3 PUSH3 0x591 JUMP JUMPDEST POP PUSH1 0x80 DUP6 ADD MLOAD PUSH3 0x690 PUSH1 0xA0 DUP7 ADD DUP3 PUSH3 0x591 JUMP JUMPDEST POP PUSH1 0xA0 DUP6 ADD MLOAD PUSH1 0xC0 DUP6 ADD MSTORE PUSH1 0xC0 DUP6 ADD MLOAD PUSH1 0xE0 DUP6 ADD MSTORE PUSH1 0xE0 DUP6 ADD MLOAD PUSH2 0x100 DUP2 DUP2 DUP8 ADD MSTORE DUP1 DUP8 ADD MLOAD SWAP2 POP POP PUSH2 0x120 DUP2 DUP2 DUP8 ADD MSTORE DUP1 DUP8 ADD MLOAD SWAP2 POP POP PUSH2 0x140 DUP2 DUP2 DUP8 ADD MSTORE DUP1 DUP8 ADD MLOAD SWAP2 POP POP PUSH2 0x160 PUSH3 0x6E8 DUP2 DUP8 ADD DUP4 PUSH3 0x59E JUMP JUMPDEST DUP7 ADD MLOAD SWAP1 POP PUSH3 0x6FB DUP6 DUP4 ADD DUP3 PUSH3 0x591 JUMP JUMPDEST POP SWAP1 SWAP5 SWAP4 POP POP POP POP JUMP JUMPDEST SWAP2 DUP3 MSTORE PUSH1 0x20 DUP3 ADD MSTORE PUSH1 0x40 ADD SWAP1 JUMP JUMPDEST PUSH1 0x40 MLOAD DUP2 DUP2 ADD PUSH8 0xFFFFFFFFFFFFFFFF DUP2 GT DUP3 DUP3 LT OR ISZERO PUSH3 0x730 JUMPI INVALID JUMPDEST PUSH1 0x40 MSTORE SWAP2 SWAP1 POP JUMP JUMPDEST PUSH1 0x0 PUSH8 0xFFFFFFFFFFFFFFFF DUP3 GT ISZERO PUSH3 0x74D JUMPI INVALID JUMPDEST POP PUSH1 0x20 SWAP1 DUP2 MUL ADD SWAP1 JUMP JUMPDEST PUSH1 0x1 PUSH1 0x1 PUSH1 0xA0 SHL SUB DUP2 AND DUP2 EQ PUSH3 0x76D JUMPI PUSH1 0x0 DUP1 REVERT JUMPDEST POP JUMP INVALID PUSH2 0x2A0 PUSH1 0x40 MSTORE PUSH32 0x6E71EDAE12B1B97F4D1F60370FEF10105FA2FAAE0126114A169C64845D6126C9 PUSH2 0x120 MSTORE CALLVALUE DUP1 ISZERO PUSH3 0x37 JUMPI PUSH1 0x0 DUP1 REVERT JUMPDEST POP PUSH1 0x40 MLOAD PUSH3 0x56F2 CODESIZE SUB DUP1 PUSH3 0x56F2 DUP4 CODECOPY DUP2 ADD PUSH1 0x40 DUP2 SWAP1 MSTORE PUSH3 0x5A SWAP2 PUSH3 0x818 JUMP JUMPDEST PUSH2 0x100 DUP2 DUP2 ADD MLOAD PUSH2 0x120 DUP4 ADD MLOAD PUSH1 0x20 DUP1 DUP6 ADD MLOAD PUSH1 0x40 DUP1 DUP8 ADD MLOAD DUP2 MLOAD DUP1 DUP4 ADD SWAP1 SWAP3 MSTORE PUSH1 0x1 DUP3 MSTORE PUSH1 0x31 PUSH1 0xF8 SHL DUP3 DUP6 ADD SWAP1 DUP2 MSTORE PUSH2 0x160 DUP10 ADD MLOAD CALLER PUSH1 0x80 MSTORE PUSH1 0x60 SHL PUSH1 0x1 PUSH1 0x1 PUSH1 0x60 SHL SUB NOT AND PUSH1 0xA0 MSTORE DUP4 MLOAD SWAP5 DUP5 ADD SWAP5 DUP6 KECCAK256 PUSH1 0xC0 MSTORE SWAP2 MLOAD SWAP1 SWAP2 KECCAK256 PUSH1 0xE0 MSTORE PUSH32 0x8B73C3C69BB8FE3D512ECC4CF759CC79239F7B179B0FFACAA9A75D522B39400F SWAP1 SWAP6 MSTORE DUP1 MLOAD SWAP4 SWAP5 SWAP3 SWAP4 SWAP1 SWAP3 SWAP2 PUSH3 0xF3 SWAP2 PUSH1 0x3 SWAP2 SWAP1 PUSH3 0x6A1 JUMP JUMPDEST POP DUP1 MLOAD PUSH3 0x109 SWAP1 PUSH1 0x4 SWAP1 PUSH1 0x20 DUP5 ADD SWAP1 PUSH3 0x6A1 JUMP JUMPDEST POP PUSH3 0x121 SWAP2 POP POP PUSH3 0x76A700 DUP4 GT ISZERO PUSH2 0x194 PUSH3 0x40C JUMP JUMPDEST PUSH3 0x135 PUSH3 0x278D00 DUP3 GT ISZERO PUSH2 0x195 PUSH3 0x40C JUMP JUMPDEST TIMESTAMP SWAP1 SWAP2 ADD PUSH2 0x140 DUP2 DUP2 MSTORE SWAP2 ADD PUSH2 0x160 MSTORE DUP2 ADD MLOAD PUSH3 0x153 SWAP1 PUSH3 0x421 JUMP JUMPDEST PUSH1 0xE0 DUP2 ADD MLOAD PUSH3 0x163 SWAP1 PUSH3 0x47D JUMP JUMPDEST DUP1 MLOAD PUSH1 0x40 MLOAD PUSH4 0x9B2760F PUSH1 0xE0 SHL DUP2 MSTORE PUSH1 0x0 SWAP2 PUSH1 0x1 PUSH1 0x1 PUSH1 0xA0 SHL SUB AND SWAP1 PUSH4 0x9B2760F SWAP1 PUSH3 0x196 SWAP1 PUSH1 0x2 SWAP1 PUSH1 0x4 ADD PUSH3 0xA17 JUMP JUMPDEST PUSH1 0x20 PUSH1 0x40 MLOAD DUP1 DUP4 SUB DUP2 PUSH1 0x0 DUP8 DUP1 EXTCODESIZE ISZERO DUP1 ISZERO PUSH3 0x1B1 JUMPI PUSH1 0x0 DUP1 REVERT JUMPDEST POP GAS CALL ISZERO DUP1 ISZERO PUSH3 0x1C6 JUMPI RETURNDATASIZE PUSH1 0x0 DUP1 RETURNDATACOPY RETURNDATASIZE PUSH1 0x0 REVERT JUMPDEST POP POP POP POP PUSH1 0x40 MLOAD RETURNDATASIZE PUSH1 0x1F NOT PUSH1 0x1F DUP3 ADD AND DUP3 ADD DUP1 PUSH1 0x40 MSTORE POP DUP2 ADD SWAP1 PUSH3 0x1EC SWAP2 SWAP1 PUSH3 0x7FF JUMP JUMPDEST PUSH1 0x40 DUP1 MLOAD PUSH1 0x2 DUP1 DUP3 MSTORE PUSH1 0x60 DUP3 ADD DUP4 MSTORE SWAP3 SWAP4 POP PUSH1 0x0 SWAP3 SWAP1 SWAP2 PUSH1 0x20 DUP4 ADD SWAP1 DUP1 CALLDATASIZE DUP4 CALLDATACOPY ADD SWAP1 POP POP SWAP1 POP DUP3 PUSH1 0x60 ADD MLOAD DUP2 PUSH1 0x0 DUP2 MLOAD DUP2 LT PUSH3 0x225 JUMPI INVALID JUMPDEST PUSH1 0x20 MUL PUSH1 0x20 ADD ADD SWAP1 PUSH1 0x1 PUSH1 0x1 PUSH1 0xA0 SHL SUB AND SWAP1 DUP2 PUSH1 0x1 PUSH1 0x1 PUSH1 0xA0 SHL SUB AND DUP2 MSTORE POP POP DUP3 PUSH1 0x80 ADD MLOAD DUP2 PUSH1 0x1 DUP2 MLOAD DUP2 LT PUSH3 0x258 JUMPI INVALID JUMPDEST PUSH1 0x1 PUSH1 0x1 PUSH1 0xA0 SHL SUB SWAP3 DUP4 AND PUSH1 0x20 SWAP2 DUP3 MUL SWAP3 SWAP1 SWAP3 ADD ADD MSTORE DUP4 MLOAD AND PUSH4 0x66A9C7D2 DUP4 DUP4 PUSH1 0x2 PUSH1 0x40 MLOAD SWAP1 DUP1 DUP3 MSTORE DUP1 PUSH1 0x20 MUL PUSH1 0x20 ADD DUP3 ADD PUSH1 0x40 MSTORE DUP1 ISZERO PUSH3 0x2A4 JUMPI DUP2 PUSH1 0x20 ADD PUSH1 0x20 DUP3 MUL DUP1 CALLDATASIZE DUP4 CALLDATACOPY ADD SWAP1 POP JUMPDEST POP PUSH1 0x40 MLOAD DUP5 PUSH4 0xFFFFFFFF AND PUSH1 0xE0 SHL DUP2 MSTORE PUSH1 0x4 ADD PUSH3 0x2C5 SWAP4 SWAP3 SWAP2 SWAP1 PUSH3 0x97D JUMP JUMPDEST PUSH1 0x0 PUSH1 0x40 MLOAD DUP1 DUP4 SUB DUP2 PUSH1 0x0 DUP8 DUP1 EXTCODESIZE ISZERO DUP1 ISZERO PUSH3 0x2E0 JUMPI PUSH1 0x0 DUP1 REVERT JUMPDEST POP GAS CALL ISZERO DUP1 ISZERO PUSH3 0x2F5 JUMPI RETURNDATASIZE PUSH1 0x0 DUP1 RETURNDATACOPY RETURNDATASIZE PUSH1 0x0 REVERT JUMPDEST POP POP DUP5 MLOAD PUSH1 0x1 PUSH1 0x1 PUSH1 0x60 SHL SUB NOT PUSH1 0x60 SWAP2 DUP3 SHL DUP2 AND PUSH2 0x180 MSTORE PUSH2 0x1A0 DUP7 SWAP1 MSTORE DUP2 DUP8 ADD DUP1 MLOAD DUP4 SHL DUP3 AND PUSH2 0x1C0 MSTORE PUSH1 0x80 DUP9 ADD MLOAD SWAP1 SWAP3 SHL AND PUSH2 0x1E0 MSTORE MLOAD PUSH3 0x33C SWAP3 POP SWAP1 POP PUSH3 0x4FB JUMP JUMPDEST PUSH2 0x260 MSTORE PUSH1 0x80 DUP4 ADD MLOAD PUSH3 0x350 SWAP1 PUSH3 0x4FB JUMP JUMPDEST PUSH2 0x280 MSTORE PUSH1 0xA0 DUP4 ADD MLOAD PUSH3 0x371 SWAP1 PUSH7 0x2386F26FC10000 GT ISZERO PUSH2 0x12E PUSH3 0x40C JUMP JUMPDEST PUSH3 0x393 PUSH7 0x2386F26FC10000 DUP5 PUSH1 0xC0 ADD MLOAD LT ISZERO PUSH2 0x12E PUSH3 0x40C PUSH1 0x20 SHL PUSH1 0x20 SHR JUMP JUMPDEST PUSH1 0x0 PUSH3 0x3B7 DUP5 PUSH1 0xC0 ADD MLOAD DUP6 PUSH1 0xA0 ADD MLOAD PUSH3 0x59F PUSH1 0x20 SHL PUSH3 0x11C5 OR SWAP1 SWAP2 SWAP1 PUSH1 0x20 SHR JUMP JUMPDEST SWAP1 POP PUSH3 0x3D1 PUSH8 0xDE0B6B3A7640000 DUP3 EQ PUSH2 0x134 PUSH3 0x40C JUMP JUMPDEST PUSH1 0xA0 DUP5 ADD DUP1 MLOAD PUSH2 0x200 MSTORE PUSH1 0xC0 DUP6 ADD DUP1 MLOAD PUSH2 0x220 MSTORE MLOAD SWAP1 MLOAD LT ISZERO PUSH3 0x3F7 JUMPI PUSH1 0x1 PUSH3 0x3FA JUMP JUMPDEST PUSH1 0x0 JUMPDEST PUSH1 0xFF AND PUSH2 0x240 MSTORE POP PUSH3 0xA59 SWAP3 POP POP POP JUMP JUMPDEST DUP2 PUSH3 0x41D JUMPI PUSH3 0x41D DUP2 PUSH3 0x5BA JUMP JUMPDEST POP POP JUMP JUMPDEST PUSH3 0x43D DUP2 PUSH1 0x8 SLOAD PUSH3 0x60D PUSH1 0x20 SHL PUSH3 0x11D7 OR SWAP1 SWAP2 SWAP1 PUSH1 0x20 SHR JUMP JUMPDEST PUSH1 0x8 SSTORE PUSH1 0x40 MLOAD PUSH32 0x3E350B41E86A8E10F804ADE6D35340D620BE35569CC75AC943E8BB14AB80EAD1 SWAP1 PUSH3 0x472 SWAP1 DUP4 SWAP1 PUSH3 0x972 JUMP JUMPDEST PUSH1 0x40 MLOAD DUP1 SWAP2 SUB SWAP1 LOG1 POP JUMP JUMPDEST PUSH3 0x492 PUSH5 0xE8D4A51000 DUP3 LT ISZERO PUSH1 0xCB PUSH3 0x40C JUMP JUMPDEST PUSH3 0x4AA PUSH8 0x16345785D8A0000 DUP3 GT ISZERO PUSH1 0xCA PUSH3 0x40C JUMP JUMPDEST PUSH3 0x4C6 DUP2 PUSH1 0x8 SLOAD PUSH3 0x62C PUSH1 0x20 SHL PUSH3 0x11E5 OR SWAP1 SWAP2 SWAP1 PUSH1 0x20 SHR JUMP JUMPDEST PUSH1 0x8 SSTORE PUSH1 0x40 MLOAD PUSH32 0xA9BA3FFE0B6C366B81232CAAB38605A0699AD5398D6CCE76F91EE809E322DAFC SWAP1 PUSH3 0x472 SWAP1 DUP4 SWAP1 PUSH3 0xA2C JUMP JUMPDEST PUSH1 0x0 DUP1 DUP3 PUSH1 0x1 PUSH1 0x1 PUSH1 0xA0 SHL SUB AND PUSH4 0x313CE567 PUSH1 0x40 MLOAD DUP2 PUSH4 0xFFFFFFFF AND PUSH1 0xE0 SHL DUP2 MSTORE PUSH1 0x4 ADD PUSH1 0x20 PUSH1 0x40 MLOAD DUP1 DUP4 SUB DUP2 DUP7 DUP1 EXTCODESIZE ISZERO DUP1 ISZERO PUSH3 0x538 JUMPI PUSH1 0x0 DUP1 REVERT JUMPDEST POP GAS STATICCALL ISZERO DUP1 ISZERO PUSH3 0x54D JUMPI RETURNDATASIZE PUSH1 0x0 DUP1 RETURNDATACOPY RETURNDATASIZE PUSH1 0x0 REVERT JUMPDEST POP POP POP POP PUSH1 0x40 MLOAD RETURNDATASIZE PUSH1 0x1F NOT PUSH1 0x1F DUP3 ADD AND DUP3 ADD DUP1 PUSH1 0x40 MSTORE POP DUP2 ADD SWAP1 PUSH3 0x573 SWAP2 SWAP1 PUSH3 0x94F JUMP JUMPDEST PUSH1 0xFF AND SWAP1 POP PUSH1 0x0 PUSH3 0x592 PUSH1 0x12 DUP4 PUSH3 0x64B PUSH1 0x20 SHL PUSH3 0x11F3 OR PUSH1 0x20 SHR JUMP JUMPDEST PUSH1 0xA EXP SWAP3 POP POP POP JUMPDEST SWAP2 SWAP1 POP JUMP JUMPDEST PUSH1 0x0 DUP3 DUP3 ADD PUSH3 0x5B3 DUP5 DUP3 LT ISZERO DUP4 PUSH3 0x40C JUMP JUMPDEST SWAP4 SWAP3 POP POP POP JUMP JUMPDEST PUSH3 0x461BCD PUSH1 0xE5 SHL PUSH1 0x0 SWAP1 DUP2 MSTORE PUSH1 0x20 PUSH1 0x4 MSTORE PUSH1 0x7 PUSH1 0x24 MSTORE PUSH7 0x42414C23000030 PUSH1 0xA DUP1 DUP5 DIV DUP2 DUP2 MOD PUSH1 0x30 SWAP1 DUP2 ADD PUSH1 0x8 SHL SWAP6 DUP4 SWAP1 MOD SWAP6 SWAP1 SWAP6 ADD SWAP1 DUP3 SWAP1 DIV SWAP2 DUP3 MOD SWAP1 SWAP5 ADD PUSH1 0x10 SHL SWAP4 SWAP1 SWAP4 ADD ADD PUSH1 0xC8 SHL PUSH1 0x44 MSTORE PUSH1 0x64 SWAP1 REVERT JUMPDEST PUSH1 0x0 PUSH3 0x5B3 DUP3 PUSH1 0x55 DUP6 PUSH3 0x663 PUSH1 0x20 SHL PUSH3 0x1209 OR SWAP1 SWAP3 SWAP2 SWAP1 PUSH1 0x20 SHR JUMP JUMPDEST PUSH1 0x0 PUSH3 0x5B3 DUP3 PUSH1 0x56 DUP6 PUSH3 0x68C PUSH1 0x20 SHL PUSH3 0x1230 OR SWAP1 SWAP3 SWAP2 SWAP1 PUSH1 0x20 SHR JUMP JUMPDEST PUSH1 0x0 PUSH3 0x65D DUP4 DUP4 GT ISZERO PUSH1 0x1 PUSH3 0x40C JUMP JUMPDEST POP SWAP1 SUB SWAP1 JUMP JUMPDEST PUSH1 0x0 PUSH1 0x1 DUP3 SHL NOT DUP5 AND DUP3 DUP5 PUSH3 0x67B JUMPI PUSH1 0x0 PUSH3 0x67E JUMP JUMPDEST PUSH1 0x1 JUMPDEST PUSH1 0xFF AND SWAP1 SHL OR SWAP5 SWAP4 POP POP POP POP JUMP JUMPDEST PUSH1 0x1 PUSH1 0x1 PUSH1 0x40 SHL SUB DUP2 SHL NOT SWAP3 SWAP1 SWAP3 AND SWAP2 SHL OR SWAP1 JUMP JUMPDEST DUP3 DUP1 SLOAD PUSH1 0x1 DUP2 PUSH1 0x1 AND ISZERO PUSH2 0x100 MUL SUB AND PUSH1 0x2 SWAP1 DIV SWAP1 PUSH1 0x0 MSTORE PUSH1 0x20 PUSH1 0x0 KECCAK256 SWAP1 PUSH1 0x1F ADD PUSH1 0x20 SWAP1 DIV DUP2 ADD SWAP3 DUP3 PUSH3 0x6D9 JUMPI PUSH1 0x0 DUP6 SSTORE PUSH3 0x724 JUMP JUMPDEST DUP3 PUSH1 0x1F LT PUSH3 0x6F4 JUMPI DUP1 MLOAD PUSH1 0xFF NOT AND DUP4 DUP1 ADD OR DUP6 SSTORE PUSH3 0x724 JUMP JUMPDEST DUP3 DUP1 ADD PUSH1 0x1 ADD DUP6 SSTORE DUP3 ISZERO PUSH3 0x724 JUMPI SWAP2 DUP3 ADD JUMPDEST DUP3 DUP2 GT ISZERO PUSH3 0x724 JUMPI DUP3 MLOAD DUP3 SSTORE SWAP2 PUSH1 0x20 ADD SWAP2 SWAP1 PUSH1 0x1 ADD SWAP1 PUSH3 0x707 JUMP JUMPDEST POP PUSH3 0x732 SWAP3 SWAP2 POP PUSH3 0x736 JUMP JUMPDEST POP SWAP1 JUMP JUMPDEST JUMPDEST DUP1 DUP3 GT ISZERO PUSH3 0x732 JUMPI PUSH1 0x0 DUP2 SSTORE PUSH1 0x1 ADD PUSH3 0x737 JUMP JUMPDEST DUP1 MLOAD PUSH1 0x1 PUSH1 0x1 PUSH1 0xA0 SHL SUB DUP2 AND DUP2 EQ PUSH3 0x59A JUMPI PUSH1 0x0 DUP1 REVERT JUMPDEST DUP1 MLOAD DUP1 ISZERO ISZERO DUP2 EQ PUSH3 0x59A JUMPI PUSH1 0x0 DUP1 REVERT JUMPDEST PUSH1 0x0 DUP3 PUSH1 0x1F DUP4 ADD SLT PUSH3 0x787 JUMPI DUP1 DUP2 REVERT JUMPDEST DUP2 MLOAD PUSH1 0x1 PUSH1 0x1 PUSH1 0x40 SHL SUB DUP2 GT ISZERO PUSH3 0x79B JUMPI INVALID JUMPDEST PUSH1 0x20 PUSH3 0x7B1 PUSH1 0x1F DUP4 ADD PUSH1 0x1F NOT AND DUP3 ADD PUSH3 0xA35 JUMP JUMPDEST DUP3 DUP2 MSTORE DUP6 DUP3 DUP5 DUP8 ADD ADD GT ISZERO PUSH3 0x7C5 JUMPI DUP4 DUP5 REVERT JUMPDEST DUP4 JUMPDEST DUP4 DUP2 LT ISZERO PUSH3 0x7E4 JUMPI DUP6 DUP2 ADD DUP4 ADD MLOAD DUP3 DUP3 ADD DUP5 ADD MSTORE DUP3 ADD PUSH3 0x7C7 JUMP JUMPDEST DUP4 DUP2 GT ISZERO PUSH3 0x7F5 JUMPI DUP5 DUP4 DUP6 DUP5 ADD ADD MSTORE JUMPDEST POP SWAP6 SWAP5 POP POP POP POP POP JUMP JUMPDEST PUSH1 0x0 PUSH1 0x20 DUP3 DUP5 SUB SLT ISZERO PUSH3 0x811 JUMPI DUP1 DUP2 REVERT JUMPDEST POP MLOAD SWAP2 SWAP1 POP JUMP JUMPDEST PUSH1 0x0 PUSH1 0x20 DUP3 DUP5 SUB SLT ISZERO PUSH3 0x82A JUMPI DUP1 DUP2 REVERT JUMPDEST DUP2 MLOAD PUSH1 0x1 PUSH1 0x1 PUSH1 0x40 SHL SUB DUP1 DUP3 GT ISZERO PUSH3 0x841 JUMPI DUP3 DUP4 REVERT JUMPDEST DUP2 DUP5 ADD SWAP2 POP PUSH2 0x180 DUP1 DUP4 DUP8 SUB SLT ISZERO PUSH3 0x858 JUMPI DUP4 DUP5 REVERT JUMPDEST PUSH3 0x863 DUP2 PUSH3 0xA35 JUMP JUMPDEST SWAP1 POP PUSH3 0x870 DUP4 PUSH3 0x74D JUMP JUMPDEST DUP2 MSTORE PUSH1 0x20 DUP4 ADD MLOAD DUP3 DUP2 GT ISZERO PUSH3 0x884 JUMPI DUP5 DUP6 REVERT JUMPDEST PUSH3 0x892 DUP8 DUP3 DUP7 ADD PUSH3 0x776 JUMP JUMPDEST PUSH1 0x20 DUP4 ADD MSTORE POP PUSH1 0x40 DUP4 ADD MLOAD DUP3 DUP2 GT ISZERO PUSH3 0x8AA JUMPI DUP5 DUP6 REVERT JUMPDEST PUSH3 0x8B8 DUP8 DUP3 DUP7 ADD PUSH3 0x776 JUMP JUMPDEST PUSH1 0x40 DUP4 ADD MSTORE POP PUSH3 0x8CC PUSH1 0x60 DUP5 ADD PUSH3 0x74D JUMP JUMPDEST PUSH1 0x60 DUP3 ADD MSTORE PUSH3 0x8DF PUSH1 0x80 DUP5 ADD PUSH3 0x74D JUMP JUMPDEST PUSH1 0x80 DUP3 ADD MSTORE PUSH1 0xA0 DUP4 DUP2 ADD MLOAD SWAP1 DUP3 ADD MSTORE PUSH1 0xC0 DUP1 DUP5 ADD MLOAD SWAP1 DUP3 ADD MSTORE PUSH1 0xE0 DUP1 DUP5 ADD MLOAD SWAP1 DUP3 ADD MSTORE PUSH2 0x100 DUP1 DUP5 ADD MLOAD SWAP1 DUP3 ADD MSTORE PUSH2 0x120 DUP1 DUP5 ADD MLOAD SWAP1 DUP3 ADD MSTORE PUSH2 0x140 SWAP2 POP PUSH3 0x92A DUP3 DUP5 ADD PUSH3 0x765 JUMP JUMPDEST DUP3 DUP3 ADD MSTORE PUSH2 0x160 SWAP2 POP PUSH3 0x940 DUP3 DUP5 ADD PUSH3 0x74D JUMP JUMPDEST SWAP2 DUP2 ADD SWAP2 SWAP1 SWAP2 MSTORE SWAP5 SWAP4 POP POP POP POP JUMP JUMPDEST PUSH1 0x0 PUSH1 0x20 DUP3 DUP5 SUB SLT ISZERO PUSH3 0x961 JUMPI DUP1 DUP2 REVERT JUMPDEST DUP2 MLOAD PUSH1 0xFF DUP2 AND DUP2 EQ PUSH3 0x5B3 JUMPI DUP2 DUP3 REVERT JUMPDEST SWAP1 ISZERO ISZERO DUP2 MSTORE PUSH1 0x20 ADD SWAP1 JUMP JUMPDEST PUSH1 0x0 PUSH1 0x60 DUP3 ADD DUP6 DUP4 MSTORE PUSH1 0x20 PUSH1 0x60 DUP2 DUP6 ADD MSTORE DUP2 DUP7 MLOAD DUP1 DUP5 MSTORE PUSH1 0x80 DUP7 ADD SWAP2 POP DUP3 DUP9 ADD SWAP4 POP DUP5 JUMPDEST DUP2 DUP2 LT ISZERO PUSH3 0x9C8 JUMPI DUP5 MLOAD PUSH1 0x1 PUSH1 0x1 PUSH1 0xA0 SHL SUB AND DUP4 MSTORE SWAP4 DUP4 ADD SWAP4 SWAP2 DUP4 ADD SWAP2 PUSH1 0x1 ADD PUSH3 0x9A1 JUMP JUMPDEST POP POP DUP5 DUP2 SUB PUSH1 0x40 DUP7 ADD MSTORE DUP6 MLOAD DUP1 DUP3 MSTORE SWAP1 DUP3 ADD SWAP3 POP DUP2 DUP7 ADD SWAP1 DUP5 JUMPDEST DUP2 DUP2 LT ISZERO PUSH3 0xA09 JUMPI DUP3 MLOAD PUSH1 0x1 PUSH1 0x1 PUSH1 0xA0 SHL SUB AND DUP6 MSTORE SWAP4 DUP4 ADD SWAP4 SWAP2 DUP4 ADD SWAP2 PUSH1 0x1 ADD PUSH3 0x9E2 JUMP JUMPDEST POP SWAP3 SWAP9 SWAP8 POP POP POP POP POP POP POP POP JUMP JUMPDEST PUSH1 0x20 DUP2 ADD PUSH1 0x3 DUP4 LT PUSH3 0xA26 JUMPI INVALID JUMPDEST SWAP2 SWAP1 MSTORE SWAP1 JUMP JUMPDEST SWAP1 DUP2 MSTORE PUSH1 0x20 ADD SWAP1 JUMP JUMPDEST PUSH1 0x40 MLOAD DUP2 DUP2 ADD PUSH1 0x1 PUSH1 0x1 PUSH1 0x40 SHL SUB DUP2 GT DUP3 DUP3 LT OR ISZERO PUSH3 0xA51 JUMPI INVALID JUMPDEST PUSH1 0x40 MSTORE SWAP2 SWAP1 POP JUMP JUMPDEST PUSH1 0x80 MLOAD PUSH1 0xA0 MLOAD PUSH1 0x60 SHR PUSH1 0xC0 MLOAD PUSH1 0xE0 MLOAD PUSH2 0x100 MLOAD PUSH2 0x120 MLOAD PUSH2 0x140 MLOAD PUSH2 0x160 MLOAD PUSH2 0x180 MLOAD PUSH1 0x60 SHR PUSH2 0x1A0 MLOAD PUSH2 0x1C0 MLOAD PUSH1 0x60 SHR PUSH2 0x1E0 MLOAD PUSH1 0x60 SHR PUSH2 0x200 MLOAD PUSH2 0x220 MLOAD PUSH2 0x240 MLOAD PUSH2 0x260 MLOAD PUSH2 0x280 MLOAD PUSH2 0x4BC1 PUSH3 0xB31 PUSH1 0x0 CODECOPY DUP1 PUSH2 0x1D0F MSTORE POP DUP1 PUSH2 0x1D36 MSTORE POP DUP1 PUSH2 0x29E1 MSTORE DUP1 PUSH2 0x2A15 MSTORE DUP1 PUSH2 0x2A51 MSTORE POP DUP1 PUSH2 0x1D63 MSTORE DUP1 PUSH2 0x1DFF MSTORE POP DUP1 PUSH2 0x1D8A MSTORE DUP1 PUSH2 0x1DDD MSTORE DUP1 PUSH2 0x1E2D MSTORE POP POP DUP1 PUSH2 0xC6A MSTORE POP DUP1 PUSH2 0x808 MSTORE POP DUP1 PUSH2 0xBB8 MSTORE POP DUP1 PUSH2 0x139C MSTORE POP DUP1 PUSH2 0x1378 MSTORE POP DUP1 PUSH2 0xF1F MSTORE POP DUP1 PUSH2 0x16A4 MSTORE POP DUP1 PUSH2 0x16E6 MSTORE POP DUP1 PUSH2 0x16C5 MSTORE POP DUP1 PUSH2 0xB94 MSTORE POP DUP1 PUSH2 0xB1F MSTORE POP PUSH2 0x4BC1 PUSH1 0x0 RETURN INVALID PUSH1 0x80 PUSH1 0x40 MSTORE CALLVALUE DUP1 ISZERO PUSH2 0x10 JUMPI PUSH1 0x0 DUP1 REVERT JUMPDEST POP PUSH1 0x4 CALLDATASIZE LT PUSH2 0x248 JUMPI PUSH1 0x0 CALLDATALOAD PUSH1 0xE0 SHR DUP1 PUSH4 0x74F3B009 GT PUSH2 0x13B JUMPI DUP1 PUSH4 0xAAABADC5 GT PUSH2 0xB8 JUMPI DUP1 PUSH4 0xD5C096C4 GT PUSH2 0x7C JUMPI DUP1 PUSH4 0xD5C096C4 EQ PUSH2 0x4E1 JUMPI DUP1 PUSH4 0xD73DD623 EQ PUSH2 0x4F4 JUMPI DUP1 PUSH4 0xDD62ED3E EQ PUSH2 0x507 JUMPI DUP1 PUSH4 0xF89F27ED EQ PUSH2 0x51A JUMPI DUP1 PUSH4 0xFFD088EB EQ PUSH2 0x522 JUMPI PUSH2 0x248 JUMP JUMPDEST DUP1 PUSH4 0xAAABADC5 EQ PUSH2 0x4A3 JUMPI DUP1 PUSH4 0xB10BE739 EQ PUSH2 0x4AB JUMPI DUP1 PUSH4 0xB48B5B40 EQ PUSH2 0x4BE JUMPI DUP1 PUSH4 0xC0FF1A15 EQ PUSH2 0x4C6 JUMPI DUP1 PUSH4 0xD505ACCF EQ PUSH2 0x4CE JUMPI PUSH2 0x248 JUMP JUMPDEST DUP1 PUSH4 0x8D928AF8 GT PUSH2 0xFF JUMPI DUP1 PUSH4 0x8D928AF8 EQ PUSH2 0x465 JUMPI DUP1 PUSH4 0x95D89B41 EQ PUSH2 0x46D JUMPI DUP1 PUSH4 0x9B02CDDE EQ PUSH2 0x475 JUMPI DUP1 PUSH4 0x9D2C110C EQ PUSH2 0x47D JUMPI DUP1 PUSH4 0xA9059CBB EQ PUSH2 0x490 JUMPI PUSH2 0x248 JUMP JUMPDEST DUP1 PUSH4 0x74F3B009 EQ PUSH2 0x3F6 JUMPI DUP1 PUSH4 0x7ECEBE00 EQ PUSH2 0x417 JUMPI DUP1 PUSH4 0x851C1BB3 EQ PUSH2 0x42A JUMPI DUP1 PUSH4 0x87EC6817 EQ PUSH2 0x43D JUMPI DUP1 PUSH4 0x893D20E8 EQ PUSH2 0x450 JUMPI PUSH2 0x248 JUMP JUMPDEST DUP1 PUSH4 0x38E9922E GT PUSH2 0x1C9 JUMPI DUP1 PUSH4 0x60D1507C GT PUSH2 0x18D JUMPI DUP1 PUSH4 0x60D1507C EQ PUSH2 0x382 JUMPI DUP1 PUSH4 0x66188463 EQ PUSH2 0x3A8 JUMPI DUP1 PUSH4 0x679AEFCE EQ PUSH2 0x3BB JUMPI DUP1 PUSH4 0x6B843239 EQ PUSH2 0x3C3 JUMPI DUP1 PUSH4 0x70A08231 EQ PUSH2 0x3E3 JUMPI PUSH2 0x248 JUMP JUMPDEST DUP1 PUSH4 0x38E9922E EQ PUSH2 0x324 JUMPI DUP1 PUSH4 0x38FFF2D0 EQ PUSH2 0x337 JUMPI DUP1 PUSH4 0x4A6B0B15 EQ PUSH2 0x33F JUMPI DUP1 PUSH4 0x55C67628 EQ PUSH2 0x359 JUMPI DUP1 PUSH4 0x6028BFD4 EQ PUSH2 0x361 JUMPI PUSH2 0x248 JUMP JUMPDEST DUP1 PUSH4 0x1DCCD830 GT PUSH2 0x210 JUMPI DUP1 PUSH4 0x1DCCD830 EQ PUSH2 0x2CC JUMPI DUP1 PUSH4 0x23B872DD EQ PUSH2 0x2EC JUMPI DUP1 PUSH4 0x292C914A EQ PUSH2 0x2FF JUMPI DUP1 PUSH4 0x313CE567 EQ PUSH2 0x307 JUMPI DUP1 PUSH4 0x3644E515 EQ PUSH2 0x31C JUMPI PUSH2 0x248 JUMP JUMPDEST DUP1 PUSH4 0x6FDDE03 EQ PUSH2 0x24D JUMPI DUP1 PUSH4 0x95EA7B3 EQ PUSH2 0x26B JUMPI DUP1 PUSH4 0x16C38B3C EQ PUSH2 0x28B JUMPI DUP1 PUSH4 0x18160DDD EQ PUSH2 0x2A0 JUMPI DUP1 PUSH4 0x1C0DE051 EQ PUSH2 0x2B5 JUMPI JUMPDEST PUSH1 0x0 DUP1 REVERT JUMPDEST PUSH2 0x255 PUSH2 0x52A JUMP JUMPDEST PUSH1 0x40 MLOAD PUSH2 0x262 SWAP2 SWAP1 PUSH2 0x4AA1 JUMP JUMPDEST PUSH1 0x40 MLOAD DUP1 SWAP2 SUB SWAP1 RETURN JUMPDEST PUSH2 0x27E PUSH2 0x279 CALLDATASIZE PUSH1 0x4 PUSH2 0x4228 JUMP JUMPDEST PUSH2 0x5C0 JUMP JUMPDEST PUSH1 0x40 MLOAD PUSH2 0x262 SWAP2 SWAP1 PUSH2 0x497E JUMP JUMPDEST PUSH2 0x29E PUSH2 0x299 CALLDATASIZE PUSH1 0x4 PUSH2 0x44BC JUMP JUMPDEST PUSH2 0x5D7 JUMP JUMPDEST STOP JUMPDEST PUSH2 0x2A8 PUSH2 0x5EB JUMP JUMPDEST PUSH1 0x40 MLOAD PUSH2 0x262 SWAP2 SWAP1 PUSH2 0x49A1 JUMP JUMPDEST PUSH2 0x2BD PUSH2 0x5F1 JUMP JUMPDEST PUSH1 0x40 MLOAD PUSH2 0x262 SWAP4 SWAP3 SWAP2 SWAP1 PUSH2 0x4989 JUMP JUMPDEST PUSH2 0x2DF PUSH2 0x2DA CALLDATASIZE PUSH1 0x4 PUSH2 0x43EE JUMP JUMPDEST PUSH2 0x61A JUMP JUMPDEST PUSH1 0x40 MLOAD PUSH2 0x262 SWAP2 SWAP1 PUSH2 0x4946 JUMP JUMPDEST PUSH2 0x27E PUSH2 0x2FA CALLDATASIZE PUSH1 0x4 PUSH2 0x4173 JUMP JUMPDEST PUSH2 0x722 JUMP JUMPDEST PUSH2 0x29E PUSH2 0x7A5 JUMP JUMPDEST PUSH2 0x30F PUSH2 0x7D9 JUMP JUMPDEST PUSH1 0x40 MLOAD PUSH2 0x262 SWAP2 SWAP1 PUSH2 0x4B0D JUMP JUMPDEST PUSH2 0x2A8 PUSH2 0x7DE JUMP JUMPDEST PUSH2 0x29E PUSH2 0x332 CALLDATASIZE PUSH1 0x4 PUSH2 0x4859 JUMP JUMPDEST PUSH2 0x7ED JUMP JUMPDEST PUSH2 0x2A8 PUSH2 0x806 JUMP JUMPDEST PUSH2 0x347 PUSH2 0x82A JUMP JUMPDEST PUSH1 0x40 MLOAD PUSH2 0x262 SWAP7 SWAP6 SWAP5 SWAP4 SWAP3 SWAP2 SWAP1 PUSH2 0x4A77 JUMP JUMPDEST PUSH2 0x2A8 PUSH2 0x885 JUMP JUMPDEST PUSH2 0x374 PUSH2 0x36F CALLDATASIZE PUSH1 0x4 PUSH2 0x44F4 JUMP JUMPDEST PUSH2 0x892 JUMP JUMPDEST PUSH1 0x40 MLOAD PUSH2 0x262 SWAP3 SWAP2 SWAP1 PUSH2 0x4AF4 JUMP JUMPDEST PUSH2 0x395 PUSH2 0x390 CALLDATASIZE PUSH1 0x4 PUSH2 0x4859 JUMP JUMPDEST PUSH2 0x8C3 JUMP JUMPDEST PUSH1 0x40 MLOAD PUSH2 0x262 SWAP8 SWAP7 SWAP6 SWAP5 SWAP4 SWAP3 SWAP2 SWAP1 PUSH2 0x4A47 JUMP JUMPDEST PUSH2 0x27E PUSH2 0x3B6 CALLDATASIZE PUSH1 0x4 PUSH2 0x4228 JUMP JUMPDEST PUSH2 0x90C JUMP JUMPDEST PUSH2 0x2A8 PUSH2 0x966 JUMP JUMPDEST PUSH2 0x3D6 PUSH2 0x3D1 CALLDATASIZE PUSH1 0x4 PUSH2 0x431E JUMP JUMPDEST PUSH2 0x98B JUMP JUMPDEST PUSH1 0x40 MLOAD PUSH2 0x262 SWAP2 SWAP1 PUSH2 0x4902 JUMP JUMPDEST PUSH2 0x2A8 PUSH2 0x3F1 CALLDATASIZE PUSH1 0x4 PUSH2 0x411F JUMP JUMPDEST PUSH2 0xA3C JUMP JUMPDEST PUSH2 0x409 PUSH2 0x404 CALLDATASIZE PUSH1 0x4 PUSH2 0x44F4 JUMP JUMPDEST PUSH2 0xA5B JUMP JUMPDEST PUSH1 0x40 MLOAD PUSH2 0x262 SWAP3 SWAP2 SWAP1 PUSH2 0x4959 JUMP JUMPDEST PUSH2 0x2A8 PUSH2 0x425 CALLDATASIZE PUSH1 0x4 PUSH2 0x411F JUMP JUMPDEST PUSH2 0xB00 JUMP JUMPDEST PUSH2 0x2A8 PUSH2 0x438 CALLDATASIZE PUSH1 0x4 PUSH2 0x45F0 JUMP JUMPDEST PUSH2 0xB1B JUMP JUMPDEST PUSH2 0x374 PUSH2 0x44B CALLDATASIZE PUSH1 0x4 PUSH2 0x44F4 JUMP JUMPDEST PUSH2 0xB6D JUMP JUMPDEST PUSH2 0x458 PUSH2 0xB92 JUMP JUMPDEST PUSH1 0x40 MLOAD PUSH2 0x262 SWAP2 SWAP1 PUSH2 0x48EE JUMP JUMPDEST PUSH2 0x458 PUSH2 0xBB6 JUMP JUMPDEST PUSH2 0x255 PUSH2 0xBDA JUMP JUMPDEST PUSH2 0x2A8 PUSH2 0xC3B JUMP JUMPDEST PUSH2 0x2A8 PUSH2 0x48B CALLDATASIZE PUSH1 0x4 PUSH2 0x4763 JUMP JUMPDEST PUSH2 0xC41 JUMP JUMPDEST PUSH2 0x27E PUSH2 0x49E CALLDATASIZE PUSH1 0x4 PUSH2 0x4228 JUMP JUMPDEST PUSH2 0xDF0 JUMP JUMPDEST PUSH2 0x458 PUSH2 0xDFD JUMP JUMPDEST PUSH2 0x2A8 PUSH2 0x4B9 CALLDATASIZE PUSH1 0x4 PUSH2 0x4747 JUMP JUMPDEST PUSH2 0xE07 JUMP JUMPDEST PUSH2 0x2A8 PUSH2 0xE29 JUMP JUMPDEST PUSH2 0x2A8 PUSH2 0xE2F JUMP JUMPDEST PUSH2 0x29E PUSH2 0x4DC CALLDATASIZE PUSH1 0x4 PUSH2 0x41B3 JUMP JUMPDEST PUSH2 0xEEA JUMP JUMPDEST PUSH2 0x409 PUSH2 0x4EF CALLDATASIZE PUSH1 0x4 PUSH2 0x44F4 JUMP JUMPDEST PUSH2 0x1033 JUMP JUMPDEST PUSH2 0x27E PUSH2 0x502 CALLDATASIZE PUSH1 0x4 PUSH2 0x4228 JUMP JUMPDEST PUSH2 0x1153 JUMP JUMPDEST PUSH2 0x2A8 PUSH2 0x515 CALLDATASIZE PUSH1 0x4 PUSH2 0x413B JUMP JUMPDEST PUSH2 0x1189 JUMP JUMPDEST PUSH2 0x2DF PUSH2 0x11B4 JUMP JUMPDEST PUSH2 0x2A8 PUSH2 0x11BE JUMP JUMPDEST PUSH1 0x3 DUP1 SLOAD PUSH1 0x40 DUP1 MLOAD PUSH1 0x20 PUSH1 0x1F PUSH1 0x2 PUSH1 0x0 NOT PUSH2 0x100 PUSH1 0x1 DUP9 AND ISZERO MUL ADD SWAP1 SWAP6 AND SWAP5 SWAP1 SWAP5 DIV SWAP4 DUP5 ADD DUP2 SWAP1 DIV DUP2 MUL DUP3 ADD DUP2 ADD SWAP1 SWAP3 MSTORE DUP3 DUP2 MSTORE PUSH1 0x60 SWAP4 SWAP1 SWAP3 SWAP1 SWAP2 DUP4 ADD DUP3 DUP3 DUP1 ISZERO PUSH2 0x5B6 JUMPI DUP1 PUSH1 0x1F LT PUSH2 0x58B JUMPI PUSH2 0x100 DUP1 DUP4 SLOAD DIV MUL DUP4 MSTORE SWAP2 PUSH1 0x20 ADD SWAP2 PUSH2 0x5B6 JUMP JUMPDEST DUP3 ADD SWAP2 SWAP1 PUSH1 0x0 MSTORE PUSH1 0x20 PUSH1 0x0 KECCAK256 SWAP1 JUMPDEST DUP2 SLOAD DUP2 MSTORE SWAP1 PUSH1 0x1 ADD SWAP1 PUSH1 0x20 ADD DUP1 DUP4 GT PUSH2 0x599 JUMPI DUP3 SWAP1 SUB PUSH1 0x1F AND DUP3 ADD SWAP2 JUMPDEST POP POP POP POP POP SWAP1 POP SWAP1 JUMP JUMPDEST PUSH1 0x0 PUSH2 0x5CD CALLER DUP5 DUP5 PUSH2 0x1245 JUMP JUMPDEST POP PUSH1 0x1 JUMPDEST SWAP3 SWAP2 POP POP JUMP JUMPDEST PUSH2 0x5DF PUSH2 0x12AD JUMP JUMPDEST PUSH2 0x5E8 DUP2 PUSH2 0x12DB JUMP JUMPDEST POP JUMP JUMPDEST PUSH1 0x2 SLOAD SWAP1 JUMP JUMPDEST PUSH1 0x0 DUP1 PUSH1 0x0 PUSH2 0x5FE PUSH2 0x1359 JUMP JUMPDEST ISZERO SWAP3 POP PUSH2 0x609 PUSH2 0x1376 JUMP JUMPDEST SWAP2 POP PUSH2 0x613 PUSH2 0x139A JUMP JUMPDEST SWAP1 POP SWAP1 SWAP2 SWAP3 JUMP JUMPDEST PUSH1 0x60 DUP2 MLOAD PUSH1 0x1 PUSH1 0x1 PUSH1 0x40 SHL SUB DUP2 GT DUP1 ISZERO PUSH2 0x633 JUMPI PUSH1 0x0 DUP1 REVERT JUMPDEST POP PUSH1 0x40 MLOAD SWAP1 DUP1 DUP3 MSTORE DUP1 PUSH1 0x20 MUL PUSH1 0x20 ADD DUP3 ADD PUSH1 0x40 MSTORE DUP1 ISZERO PUSH2 0x65D JUMPI DUP2 PUSH1 0x20 ADD PUSH1 0x20 DUP3 MUL DUP1 CALLDATASIZE DUP4 CALLDATACOPY ADD SWAP1 POP JUMPDEST POP SWAP1 POP PUSH1 0x0 PUSH2 0x66D PUSH1 0x8 SLOAD PUSH2 0x13BE JUMP JUMPDEST SWAP1 POP PUSH2 0x677 PUSH2 0x3FFC JUMP JUMPDEST PUSH1 0x0 JUMPDEST DUP5 MLOAD DUP2 LT ISZERO PUSH2 0x71A JUMPI DUP5 DUP2 DUP2 MLOAD DUP2 LT PUSH2 0x68F JUMPI INVALID JUMPDEST PUSH1 0x20 MUL PUSH1 0x20 ADD ADD MLOAD SWAP2 POP PUSH2 0x6AD DUP3 PUSH1 0x20 ADD MLOAD PUSH1 0x0 EQ ISZERO PUSH2 0x13C PUSH2 0x13CB JUMP JUMPDEST PUSH1 0x0 PUSH2 0x6C8 DUP4 PUSH1 0x0 ADD MLOAD DUP6 DUP6 PUSH1 0x20 ADD MLOAD DUP7 PUSH1 0x40 ADD MLOAD ADD PUSH2 0x13DD JUMP JUMPDEST SWAP1 POP PUSH1 0x0 PUSH2 0x6DF DUP5 PUSH1 0x0 ADD MLOAD DUP7 DUP7 PUSH1 0x40 ADD MLOAD PUSH2 0x13DD JUMP JUMPDEST SWAP1 POP PUSH2 0x6F9 DUP5 PUSH1 0x20 ADD MLOAD DUP4 DUP4 SUB DUP2 PUSH2 0x6F3 JUMPI INVALID JUMPDEST SDIV PUSH2 0x1523 JUMP JUMPDEST DUP7 DUP5 DUP2 MLOAD DUP2 LT PUSH2 0x705 JUMPI INVALID JUMPDEST PUSH1 0x20 SWAP1 DUP2 MUL SWAP2 SWAP1 SWAP2 ADD ADD MSTORE POP POP PUSH1 0x1 ADD PUSH2 0x67A JUMP JUMPDEST POP POP POP SWAP2 SWAP1 POP JUMP JUMPDEST PUSH1 0x1 PUSH1 0x1 PUSH1 0xA0 SHL SUB DUP4 AND PUSH1 0x0 DUP2 DUP2 MSTORE PUSH1 0x1 PUSH1 0x20 SWAP1 DUP2 MSTORE PUSH1 0x40 DUP1 DUP4 KECCAK256 CALLER DUP1 DUP6 MSTORE SWAP3 MSTORE DUP3 KECCAK256 SLOAD SWAP2 SWAP3 PUSH2 0x760 SWAP2 EQ DUP1 PUSH2 0x758 JUMPI POP DUP4 DUP3 LT ISZERO JUMPDEST PUSH2 0x197 PUSH2 0x13CB JUMP JUMPDEST PUSH2 0x76B DUP6 DUP6 DUP6 PUSH2 0x1536 JUMP JUMPDEST CALLER PUSH1 0x1 PUSH1 0x1 PUSH1 0xA0 SHL SUB DUP7 AND EQ DUP1 ISZERO SWAP1 PUSH2 0x786 JUMPI POP PUSH1 0x0 NOT DUP2 EQ ISZERO JUMPDEST ISZERO PUSH2 0x798 JUMPI PUSH2 0x798 DUP6 CALLER DUP6 DUP5 SUB PUSH2 0x1245 JUMP JUMPDEST PUSH1 0x1 SWAP2 POP POP JUMPDEST SWAP4 SWAP3 POP POP POP JUMP JUMPDEST PUSH2 0x7AD PUSH2 0x1605 JUMP JUMPDEST PUSH2 0x7B5 PUSH2 0x12AD JUMP JUMPDEST PUSH2 0x7BF PUSH1 0x1 PUSH2 0x1618 JUMP JUMPDEST PUSH1 0x0 PUSH2 0x7C9 PUSH2 0x5EB JUMP JUMPDEST GT ISZERO PUSH2 0x7D7 JUMPI PUSH2 0x7D7 PUSH2 0x1658 JUMP JUMPDEST JUMP JUMPDEST PUSH1 0x12 SWAP1 JUMP JUMPDEST PUSH1 0x0 PUSH2 0x7E8 PUSH2 0x16A0 JUMP JUMPDEST SWAP1 POP SWAP1 JUMP JUMPDEST PUSH2 0x7F5 PUSH2 0x12AD JUMP JUMPDEST PUSH2 0x7FD PUSH2 0x1605 JUMP JUMPDEST PUSH2 0x5E8 DUP2 PUSH2 0x173D JUMP JUMPDEST PUSH32 0x0 SWAP1 JUMP JUMPDEST PUSH1 0x0 DUP1 PUSH1 0x0 DUP1 PUSH1 0x0 DUP1 PUSH1 0x0 PUSH1 0x8 SLOAD SWAP1 POP PUSH2 0x843 DUP2 PUSH2 0x17A6 JUMP JUMPDEST SWAP7 POP PUSH2 0x84E DUP2 PUSH2 0x17B2 JUMP JUMPDEST SWAP6 POP PUSH2 0x859 DUP2 PUSH2 0x17BF JUMP JUMPDEST SWAP5 POP PUSH2 0x864 DUP2 PUSH2 0x13BE JUMP JUMPDEST SWAP4 POP PUSH2 0x86F DUP2 PUSH2 0x17CC JUMP JUMPDEST SWAP3 POP PUSH2 0x87A DUP2 PUSH2 0x17D9 JUMP JUMPDEST SWAP2 POP POP SWAP1 SWAP2 SWAP3 SWAP4 SWAP5 SWAP6 JUMP JUMPDEST PUSH1 0x0 PUSH2 0x7E8 PUSH1 0x8 SLOAD PUSH2 0x17D9 JUMP JUMPDEST PUSH1 0x0 PUSH1 0x60 PUSH2 0x8A2 DUP7 MLOAD PUSH1 0x2 PUSH2 0x17E6 JUMP JUMPDEST PUSH2 0x8B7 DUP10 DUP10 DUP10 DUP10 DUP10 DUP10 DUP10 PUSH2 0x17F3 PUSH2 0x18AD PUSH2 0x192B JUMP JUMPDEST SWAP8 POP SWAP8 SWAP6 POP POP POP POP POP POP JUMP JUMPDEST PUSH1 0x0 DUP1 PUSH1 0x0 DUP1 PUSH1 0x0 DUP1 PUSH1 0x0 PUSH2 0x8DE PUSH2 0x400 DUP10 LT PUSH2 0x13B PUSH2 0x13CB JUMP JUMPDEST PUSH1 0x0 PUSH2 0x8E9 DUP10 PUSH2 0x1A49 JUMP JUMPDEST SWAP1 POP PUSH2 0x8F4 DUP2 PUSH2 0x1A5B JUMP JUMPDEST SWAP6 SWAP16 SWAP5 SWAP15 POP SWAP3 SWAP13 POP SWAP1 SWAP11 POP SWAP9 POP SWAP7 POP SWAP1 SWAP5 POP SWAP3 POP POP POP JUMP JUMPDEST CALLER PUSH1 0x0 SWAP1 DUP2 MSTORE PUSH1 0x1 PUSH1 0x20 SWAP1 DUP2 MSTORE PUSH1 0x40 DUP1 DUP4 KECCAK256 PUSH1 0x1 PUSH1 0x1 PUSH1 0xA0 SHL SUB DUP7 AND DUP5 MSTORE SWAP1 SWAP2 MSTORE DUP2 KECCAK256 SLOAD DUP1 DUP4 LT PUSH2 0x948 JUMPI PUSH2 0x943 CALLER DUP6 PUSH1 0x0 PUSH2 0x1245 JUMP JUMPDEST PUSH2 0x95C JUMP JUMPDEST PUSH2 0x95C CALLER DUP6 PUSH2 0x957 DUP5 DUP8 PUSH2 0x11F3 JUMP JUMPDEST PUSH2 0x1245 JUMP JUMPDEST POP PUSH1 0x1 SWAP4 SWAP3 POP POP POP JUMP JUMPDEST PUSH1 0x0 PUSH2 0x7E8 PUSH2 0x973 PUSH2 0x5EB JUMP JUMPDEST PUSH2 0x985 PUSH2 0x97E PUSH2 0xE2F JUMP JUMPDEST PUSH1 0x2 PUSH2 0x1ABE JUMP JUMPDEST SWAP1 PUSH2 0x1AE2 JUMP JUMPDEST PUSH1 0x60 DUP2 MLOAD PUSH1 0x1 PUSH1 0x1 PUSH1 0x40 SHL SUB DUP2 GT DUP1 ISZERO PUSH2 0x9A4 JUMPI PUSH1 0x0 DUP1 REVERT JUMPDEST POP PUSH1 0x40 MLOAD SWAP1 DUP1 DUP3 MSTORE DUP1 PUSH1 0x20 MUL PUSH1 0x20 ADD DUP3 ADD PUSH1 0x40 MSTORE DUP1 ISZERO PUSH2 0x9CE JUMPI DUP2 PUSH1 0x20 ADD PUSH1 0x20 DUP3 MUL DUP1 CALLDATASIZE DUP4 CALLDATACOPY ADD SWAP1 POP JUMPDEST POP SWAP1 POP PUSH1 0x0 PUSH2 0x9DE PUSH1 0x8 SLOAD PUSH2 0x13BE JUMP JUMPDEST SWAP1 POP PUSH2 0x9E8 PUSH2 0x401E JUMP JUMPDEST PUSH1 0x0 JUMPDEST DUP5 MLOAD DUP2 LT ISZERO PUSH2 0x71A JUMPI DUP5 DUP2 DUP2 MLOAD DUP2 LT PUSH2 0xA00 JUMPI INVALID JUMPDEST PUSH1 0x20 MUL PUSH1 0x20 ADD ADD MLOAD SWAP2 POP PUSH2 0xA1D DUP3 PUSH1 0x0 ADD MLOAD DUP5 DUP5 PUSH1 0x20 ADD MLOAD PUSH2 0x13DD JUMP JUMPDEST DUP5 DUP3 DUP2 MLOAD DUP2 LT PUSH2 0xA29 JUMPI INVALID JUMPDEST PUSH1 0x20 SWAP1 DUP2 MUL SWAP2 SWAP1 SWAP2 ADD ADD MSTORE PUSH1 0x1 ADD PUSH2 0x9EB JUMP JUMPDEST PUSH1 0x1 PUSH1 0x1 PUSH1 0xA0 SHL SUB DUP2 AND PUSH1 0x0 SWAP1 DUP2 MSTORE PUSH1 0x20 DUP2 SWAP1 MSTORE PUSH1 0x40 SWAP1 KECCAK256 SLOAD JUMPDEST SWAP2 SWAP1 POP JUMP JUMPDEST PUSH1 0x60 DUP1 DUP9 PUSH2 0xA85 PUSH2 0xA6A PUSH2 0xBB6 JUMP JUMPDEST PUSH1 0x1 PUSH1 0x1 PUSH1 0xA0 SHL SUB AND CALLER PUSH1 0x1 PUSH1 0x1 PUSH1 0xA0 SHL SUB AND EQ PUSH1 0xCD PUSH2 0x13CB JUMP JUMPDEST PUSH2 0xA9A PUSH2 0xA90 PUSH2 0x806 JUMP JUMPDEST DUP3 EQ PUSH2 0x1F4 PUSH2 0x13CB JUMP JUMPDEST PUSH2 0xAA3 DUP8 PUSH2 0x1B33 JUMP JUMPDEST PUSH1 0x0 DUP1 PUSH1 0x0 PUSH2 0xAB7 DUP14 DUP14 DUP14 DUP14 DUP14 DUP14 DUP14 PUSH2 0x17F3 JUMP JUMPDEST SWAP3 POP SWAP3 POP SWAP3 POP PUSH2 0xAC7 DUP13 DUP5 PUSH2 0x1B95 JUMP JUMPDEST PUSH2 0xAD0 DUP3 PUSH2 0x18AD JUMP JUMPDEST PUSH2 0xAD9 DUP2 PUSH2 0x18AD JUMP JUMPDEST PUSH2 0xAE1 PUSH2 0x1359 JUMP JUMPDEST ISZERO PUSH2 0xAEE JUMPI PUSH2 0xAEE PUSH2 0x1658 JUMP JUMPDEST SWAP1 SWAP13 SWAP1 SWAP12 POP SWAP10 POP POP POP POP POP POP POP POP POP POP JUMP JUMPDEST PUSH1 0x1 PUSH1 0x1 PUSH1 0xA0 SHL SUB AND PUSH1 0x0 SWAP1 DUP2 MSTORE PUSH1 0x5 PUSH1 0x20 MSTORE PUSH1 0x40 SWAP1 KECCAK256 SLOAD SWAP1 JUMP JUMPDEST PUSH1 0x0 PUSH32 0x0 DUP3 PUSH1 0x40 MLOAD PUSH1 0x20 ADD PUSH2 0xB50 SWAP3 SWAP2 SWAP1 PUSH2 0x48AB JUMP JUMPDEST PUSH1 0x40 MLOAD PUSH1 0x20 DUP2 DUP4 SUB SUB DUP2 MSTORE SWAP1 PUSH1 0x40 MSTORE DUP1 MLOAD SWAP1 PUSH1 0x20 ADD KECCAK256 SWAP1 POP SWAP2 SWAP1 POP JUMP JUMPDEST PUSH1 0x0 PUSH1 0x60 PUSH2 0xB7D DUP7 MLOAD PUSH1 0x2 PUSH2 0x17E6 JUMP JUMPDEST PUSH2 0x8B7 DUP10 DUP10 DUP10 DUP10 DUP10 DUP10 DUP10 PUSH2 0x1C28 PUSH2 0x1CA8 PUSH2 0x192B JUMP JUMPDEST PUSH32 0x0 SWAP1 JUMP JUMPDEST PUSH32 0x0 SWAP1 JUMP JUMPDEST PUSH1 0x4 DUP1 SLOAD PUSH1 0x40 DUP1 MLOAD PUSH1 0x20 PUSH1 0x1F PUSH1 0x2 PUSH1 0x0 NOT PUSH2 0x100 PUSH1 0x1 DUP9 AND ISZERO MUL ADD SWAP1 SWAP6 AND SWAP5 SWAP1 SWAP5 DIV SWAP4 DUP5 ADD DUP2 SWAP1 DIV DUP2 MUL DUP3 ADD DUP2 ADD SWAP1 SWAP3 MSTORE DUP3 DUP2 MSTORE PUSH1 0x60 SWAP4 SWAP1 SWAP3 SWAP1 SWAP2 DUP4 ADD DUP3 DUP3 DUP1 ISZERO PUSH2 0x5B6 JUMPI DUP1 PUSH1 0x1F LT PUSH2 0x58B JUMPI PUSH2 0x100 DUP1 DUP4 SLOAD DIV MUL DUP4 MSTORE SWAP2 PUSH1 0x20 ADD SWAP2 PUSH2 0x5B6 JUMP JUMPDEST PUSH1 0x9 SLOAD SWAP1 JUMP JUMPDEST PUSH1 0x0 PUSH2 0xC4B PUSH2 0x1605 JUMP JUMPDEST DUP4 PUSH1 0x80 ADD MLOAD PUSH2 0xC5B PUSH2 0xA6A PUSH2 0xBB6 JUMP JUMPDEST PUSH2 0xC66 PUSH2 0xA90 PUSH2 0x806 JUMP JUMPDEST PUSH1 0x0 PUSH32 0x0 PUSH1 0x1 PUSH1 0x1 PUSH1 0xA0 SHL SUB AND DUP7 PUSH1 0x20 ADD MLOAD PUSH1 0x1 PUSH1 0x1 PUSH1 0xA0 SHL SUB AND EQ SWAP1 POP PUSH1 0x0 PUSH2 0xCAE DUP3 PUSH2 0x1D06 JUMP JUMPDEST SWAP1 POP PUSH1 0x0 PUSH2 0xCBC DUP4 ISZERO PUSH2 0x1D06 JUMP JUMPDEST SWAP1 POP PUSH1 0x0 PUSH2 0xCC9 DUP5 PUSH2 0x1D5A JUMP JUMPDEST SWAP1 POP PUSH1 0x0 PUSH2 0xCD7 DUP6 ISZERO PUSH2 0x1D5A JUMP JUMPDEST SWAP1 POP PUSH2 0xCE3 DUP10 DUP6 PUSH2 0x1DAE JUMP JUMPDEST SWAP9 POP PUSH2 0xCEF DUP9 DUP5 PUSH2 0x1DAE JUMP JUMPDEST SWAP8 POP PUSH2 0xD18 DUP11 PUSH1 0xA0 ADD MLOAD DUP7 PUSH2 0xD04 JUMPI DUP10 PUSH2 0xD06 JUMP JUMPDEST DUP11 JUMPDEST DUP8 PUSH2 0xD11 JUMPI DUP12 PUSH2 0xD13 JUMP JUMPDEST DUP11 JUMPDEST PUSH2 0x1DBA JUMP JUMPDEST PUSH1 0x0 DUP11 MLOAD PUSH1 0x1 DUP2 GT ISZERO PUSH2 0xD27 JUMPI INVALID JUMPDEST EQ ISZERO PUSH2 0xD95 JUMPI PUSH1 0x0 PUSH2 0xD45 PUSH2 0xD3A PUSH2 0x885 JUMP JUMPDEST PUSH1 0x60 DUP14 ADD MLOAD SWAP1 PUSH2 0x1EC0 JUMP JUMPDEST SWAP1 POP PUSH2 0xD67 PUSH2 0xD61 DUP3 DUP14 PUSH1 0x60 ADD MLOAD PUSH2 0x11F3 SWAP1 SWAP2 SWAP1 PUSH4 0xFFFFFFFF AND JUMP JUMPDEST DUP7 PUSH2 0x1DAE JUMP JUMPDEST PUSH1 0x60 DUP13 ADD MSTORE PUSH1 0x0 PUSH2 0xD7B DUP13 DUP13 DUP13 DUP8 DUP8 PUSH2 0x1F04 JUMP JUMPDEST SWAP1 POP PUSH2 0xD87 DUP2 DUP7 PUSH2 0x1F23 JUMP JUMPDEST SWAP9 POP POP POP POP POP POP POP POP PUSH2 0xDE8 JUMP JUMPDEST PUSH2 0xDA3 DUP11 PUSH1 0x60 ADD MLOAD DUP5 PUSH2 0x1DAE JUMP JUMPDEST PUSH1 0x60 DUP12 ADD MSTORE PUSH1 0x0 PUSH2 0xDB7 DUP12 DUP12 DUP12 DUP7 DUP7 PUSH2 0x1F2F JUMP JUMPDEST SWAP1 POP PUSH2 0xDC3 DUP2 DUP7 PUSH2 0x1F42 JUMP JUMPDEST SWAP1 POP PUSH2 0xDDF PUSH2 0xDD8 PUSH2 0xDD3 PUSH2 0x885 JUMP JUMPDEST PUSH2 0x1F4E JUMP JUMPDEST DUP3 SWAP1 PUSH2 0x1F74 JUMP JUMPDEST SWAP8 POP POP POP POP POP POP POP JUMPDEST POP SWAP4 SWAP3 POP POP POP JUMP JUMPDEST PUSH1 0x0 PUSH2 0x5CD CALLER DUP5 DUP5 PUSH2 0x1536 JUMP JUMPDEST PUSH1 0x0 PUSH2 0x7E8 PUSH2 0x1FB6 JUMP JUMPDEST PUSH1 0x0 DUP1 PUSH2 0xE1E DUP4 PUSH2 0xE19 PUSH1 0x8 SLOAD PUSH2 0x13BE JUMP JUMPDEST PUSH2 0x2030 JUMP JUMPDEST SWAP1 POP PUSH2 0x79E DUP2 PUSH2 0x1523 JUMP JUMPDEST PUSH2 0x400 SWAP1 JUMP JUMPDEST PUSH1 0x0 DUP1 PUSH2 0xE3A PUSH2 0xBB6 JUMP JUMPDEST PUSH1 0x1 PUSH1 0x1 PUSH1 0xA0 SHL SUB AND PUSH4 0xF94D4668 PUSH2 0xE50 PUSH2 0x806 JUMP JUMPDEST PUSH1 0x40 MLOAD DUP3 PUSH4 0xFFFFFFFF AND PUSH1 0xE0 SHL DUP2 MSTORE PUSH1 0x4 ADD PUSH2 0xE6C SWAP2 SWAP1 PUSH2 0x49A1 JUMP JUMPDEST PUSH1 0x0 PUSH1 0x40 MLOAD DUP1 DUP4 SUB DUP2 DUP7 DUP1 EXTCODESIZE ISZERO DUP1 ISZERO PUSH2 0xE84 JUMPI PUSH1 0x0 DUP1 REVERT JUMPDEST POP GAS STATICCALL ISZERO DUP1 ISZERO PUSH2 0xE98 JUMPI RETURNDATASIZE PUSH1 0x0 DUP1 RETURNDATACOPY RETURNDATASIZE PUSH1 0x0 REVERT JUMPDEST POP POP POP POP PUSH1 0x40 MLOAD RETURNDATASIZE PUSH1 0x0 DUP3 RETURNDATACOPY PUSH1 0x1F RETURNDATASIZE SWAP1 DUP2 ADD PUSH1 0x1F NOT AND DUP3 ADD PUSH1 0x40 MSTORE PUSH2 0xEC0 SWAP2 SWAP1 DUP2 ADD SWAP1 PUSH2 0x4253 JUMP JUMPDEST POP SWAP2 POP POP PUSH2 0xECD DUP2 PUSH2 0x1B33 JUMP JUMPDEST PUSH1 0x0 PUSH2 0xED7 PUSH2 0x2067 JUMP JUMPDEST SWAP1 POP PUSH2 0xEE3 DUP2 DUP4 PUSH2 0x20D6 JUMP JUMPDEST SWAP3 POP POP POP SWAP1 JUMP JUMPDEST PUSH2 0xEF8 DUP5 TIMESTAMP GT ISZERO PUSH1 0xD1 PUSH2 0x13CB JUMP JUMPDEST PUSH1 0x1 PUSH1 0x1 PUSH1 0xA0 SHL SUB DUP8 AND PUSH1 0x0 SWAP1 DUP2 MSTORE PUSH1 0x5 PUSH1 0x20 SWAP1 DUP2 MSTORE PUSH1 0x40 DUP1 DUP4 KECCAK256 SLOAD SWAP1 MLOAD SWAP1 SWAP3 SWAP2 PUSH2 0xF4F SWAP2 PUSH32 0x0 SWAP2 DUP13 SWAP2 DUP13 SWAP2 DUP13 SWAP2 DUP9 SWAP2 DUP14 SWAP2 ADD PUSH2 0x49C9 JUMP JUMPDEST PUSH1 0x40 MLOAD PUSH1 0x20 DUP2 DUP4 SUB SUB DUP2 MSTORE SWAP1 PUSH1 0x40 MSTORE DUP1 MLOAD SWAP1 PUSH1 0x20 ADD KECCAK256 SWAP1 POP PUSH1 0x0 PUSH2 0xF72 DUP3 PUSH2 0x2148 JUMP JUMPDEST SWAP1 POP PUSH1 0x0 PUSH1 0x1 DUP3 DUP9 DUP9 DUP9 PUSH1 0x40 MLOAD PUSH1 0x0 DUP2 MSTORE PUSH1 0x20 ADD PUSH1 0x40 MSTORE PUSH1 0x40 MLOAD PUSH2 0xF99 SWAP5 SWAP4 SWAP3 SWAP2 SWAP1 PUSH2 0x4A29 JUMP JUMPDEST PUSH1 0x20 PUSH1 0x40 MLOAD PUSH1 0x20 DUP2 SUB SWAP1 DUP1 DUP5 SUB SWAP1 DUP6 GAS STATICCALL ISZERO DUP1 ISZERO PUSH2 0xFBB JUMPI RETURNDATASIZE PUSH1 0x0 DUP1 RETURNDATACOPY RETURNDATASIZE PUSH1 0x0 REVERT JUMPDEST POP POP PUSH1 0x40 MLOAD PUSH1 0x1F NOT ADD MLOAD SWAP2 POP PUSH2 0xFFD SWAP1 POP PUSH1 0x1 PUSH1 0x1 PUSH1 0xA0 SHL SUB DUP3 AND ISZERO DUP1 ISZERO SWAP1 PUSH2 0xFF5 JUMPI POP DUP12 PUSH1 0x1 PUSH1 0x1 PUSH1 0xA0 SHL SUB AND DUP3 PUSH1 0x1 PUSH1 0x1 PUSH1 0xA0 SHL SUB AND EQ JUMPDEST PUSH2 0x1F8 PUSH2 0x13CB JUMP JUMPDEST PUSH1 0x1 PUSH1 0x1 PUSH1 0xA0 SHL SUB DUP12 AND PUSH1 0x0 SWAP1 DUP2 MSTORE PUSH1 0x5 PUSH1 0x20 MSTORE PUSH1 0x40 SWAP1 KECCAK256 PUSH1 0x1 DUP6 ADD SWAP1 SSTORE PUSH2 0x1026 DUP12 DUP12 DUP12 PUSH2 0x1245 JUMP JUMPDEST POP POP POP POP POP POP POP POP POP POP POP JUMP JUMPDEST PUSH1 0x60 DUP1 DUP9 PUSH2 0x1042 PUSH2 0xA6A PUSH2 0xBB6 JUMP JUMPDEST PUSH2 0x104D PUSH2 0xA90 PUSH2 0x806 JUMP JUMPDEST PUSH2 0x1055 PUSH2 0x1605 JUMP JUMPDEST PUSH1 0x0 PUSH2 0x105F PUSH2 0x5EB JUMP JUMPDEST PUSH2 0x10CF JUMPI PUSH2 0x106F DUP12 DUP12 DUP12 DUP9 PUSH2 0x2164 JUMP JUMPDEST SWAP5 POP SWAP1 POP PUSH2 0x1084 PUSH3 0xF4240 DUP3 LT ISZERO PUSH1 0xCC PUSH2 0x13CB JUMP JUMPDEST PUSH2 0x1092 PUSH1 0x0 PUSH3 0xF4240 PUSH2 0x21ED JUMP JUMPDEST PUSH2 0x10A1 DUP10 PUSH3 0xF4240 DUP4 SUB PUSH2 0x21ED JUMP JUMPDEST PUSH2 0x10AA DUP5 PUSH2 0x1CA8 JUMP JUMPDEST PUSH1 0x40 DUP1 MLOAD PUSH1 0x2 DUP1 DUP3 MSTORE PUSH1 0x60 DUP3 ADD DUP4 MSTORE SWAP1 SWAP2 PUSH1 0x20 DUP4 ADD SWAP1 DUP1 CALLDATASIZE DUP4 CALLDATACOPY ADD SWAP1 POP POP SWAP3 POP PUSH2 0x113D JUMP JUMPDEST PUSH2 0x10D8 DUP9 PUSH2 0x1B33 JUMP JUMPDEST PUSH2 0x110B DUP8 DUP10 PUSH1 0x0 DUP2 MLOAD DUP2 LT PUSH2 0x10E9 JUMPI INVALID JUMPDEST PUSH1 0x20 MUL PUSH1 0x20 ADD ADD MLOAD DUP11 PUSH1 0x1 DUP2 MLOAD DUP2 LT PUSH2 0x10FE JUMPI INVALID JUMPDEST PUSH1 0x20 MUL PUSH1 0x20 ADD ADD MLOAD PUSH2 0x1DBA JUMP JUMPDEST PUSH2 0x111A DUP12 DUP12 DUP12 DUP12 DUP12 DUP12 DUP12 PUSH2 0x1C28 JUMP JUMPDEST SWAP1 SWAP6 POP SWAP4 POP SWAP1 POP PUSH2 0x112B DUP10 DUP3 PUSH2 0x21ED JUMP JUMPDEST PUSH2 0x1134 DUP5 PUSH2 0x1CA8 JUMP JUMPDEST PUSH2 0x113D DUP4 PUSH2 0x18AD JUMP JUMPDEST PUSH2 0x1145 PUSH2 0x1658 JUMP JUMPDEST POP POP SWAP8 POP SWAP8 SWAP6 POP POP POP POP POP POP JUMP JUMPDEST CALLER PUSH1 0x0 DUP2 DUP2 MSTORE PUSH1 0x1 PUSH1 0x20 SWAP1 DUP2 MSTORE PUSH1 0x40 DUP1 DUP4 KECCAK256 PUSH1 0x1 PUSH1 0x1 PUSH1 0xA0 SHL SUB DUP8 AND DUP5 MSTORE SWAP1 SWAP2 MSTORE DUP2 KECCAK256 SLOAD SWAP1 SWAP2 PUSH2 0x5CD SWAP2 DUP6 SWAP1 PUSH2 0x957 SWAP1 DUP7 PUSH2 0x11C5 JUMP JUMPDEST PUSH1 0x1 PUSH1 0x1 PUSH1 0xA0 SHL SUB SWAP2 DUP3 AND PUSH1 0x0 SWAP1 DUP2 MSTORE PUSH1 0x1 PUSH1 0x20 SWAP1 DUP2 MSTORE PUSH1 0x40 DUP1 DUP4 KECCAK256 SWAP4 SWAP1 SWAP5 AND DUP3 MSTORE SWAP2 SWAP1 SWAP2 MSTORE KECCAK256 SLOAD SWAP1 JUMP JUMPDEST PUSH1 0x60 PUSH2 0x7E8 PUSH2 0x2067 JUMP JUMPDEST PUSH3 0x1DE20 SWAP1 JUMP JUMPDEST PUSH1 0x0 DUP3 DUP3 ADD PUSH2 0x79E DUP5 DUP3 LT ISZERO DUP4 PUSH2 0x13CB JUMP JUMPDEST PUSH1 0x0 PUSH2 0x79E DUP4 DUP4 PUSH1 0x55 PUSH2 0x1209 JUMP JUMPDEST PUSH1 0x0 PUSH2 0x79E DUP4 DUP4 PUSH1 0x56 PUSH2 0x1230 JUMP JUMPDEST PUSH1 0x0 PUSH2 0x1203 DUP4 DUP4 GT ISZERO PUSH1 0x1 PUSH2 0x13CB JUMP JUMPDEST POP SWAP1 SUB SWAP1 JUMP JUMPDEST PUSH1 0x0 PUSH1 0x1 DUP3 SHL NOT DUP5 AND DUP3 DUP5 PUSH2 0x121F JUMPI PUSH1 0x0 PUSH2 0x1222 JUMP JUMPDEST PUSH1 0x1 JUMPDEST PUSH1 0xFF AND SWAP1 SHL OR SWAP5 SWAP4 POP POP POP POP JUMP JUMPDEST PUSH1 0x1 PUSH1 0x1 PUSH1 0x40 SHL SUB DUP2 SHL NOT SWAP3 SWAP1 SWAP3 AND SWAP2 SHL OR SWAP1 JUMP JUMPDEST PUSH1 0x1 PUSH1 0x1 PUSH1 0xA0 SHL SUB DUP1 DUP5 AND PUSH1 0x0 DUP2 DUP2 MSTORE PUSH1 0x1 PUSH1 0x20 SWAP1 DUP2 MSTORE PUSH1 0x40 DUP1 DUP4 KECCAK256 SWAP5 DUP8 AND DUP1 DUP5 MSTORE SWAP5 SWAP1 SWAP2 MSTORE SWAP1 DUP2 SWAP1 KECCAK256 DUP5 SWAP1 SSTORE MLOAD PUSH32 0x8C5BE1E5EBEC7D5BD14F71427D1E84F3DD0314C0F7B2291E5B200AC8C7C3B925 SWAP1 PUSH2 0x12A0 SWAP1 DUP6 SWAP1 PUSH2 0x49A1 JUMP JUMPDEST PUSH1 0x40 MLOAD DUP1 SWAP2 SUB SWAP1 LOG3 POP POP POP JUMP JUMPDEST PUSH1 0x0 PUSH2 0x12C4 PUSH1 0x0 CALLDATALOAD PUSH1 0x1 PUSH1 0x1 PUSH1 0xE0 SHL SUB NOT AND PUSH2 0xB1B JUMP JUMPDEST SWAP1 POP PUSH2 0x5E8 PUSH2 0x12D3 DUP3 CALLER PUSH2 0x2283 JUMP JUMPDEST PUSH2 0x191 PUSH2 0x13CB JUMP JUMPDEST DUP1 ISZERO PUSH2 0x12FB JUMPI PUSH2 0x12F6 PUSH2 0x12EC PUSH2 0x1376 JUMP JUMPDEST TIMESTAMP LT PUSH2 0x193 PUSH2 0x13CB JUMP JUMPDEST PUSH2 0x1310 JUMP JUMPDEST PUSH2 0x1310 PUSH2 0x1306 PUSH2 0x139A JUMP JUMPDEST TIMESTAMP LT PUSH2 0x1A9 PUSH2 0x13CB JUMP JUMPDEST PUSH1 0x6 DUP1 SLOAD PUSH1 0xFF NOT AND DUP3 ISZERO ISZERO OR SWAP1 SSTORE PUSH1 0x40 MLOAD PUSH32 0x9E3A5E37224532DEA67B89FACE185703738A228A6E8A23DEE546960180D3BE64 SWAP1 PUSH2 0x134E SWAP1 DUP4 SWAP1 PUSH2 0x497E JUMP JUMPDEST PUSH1 0x40 MLOAD DUP1 SWAP2 SUB SWAP1 LOG1 POP JUMP JUMPDEST PUSH1 0x0 PUSH2 0x1363 PUSH2 0x139A JUMP JUMPDEST TIMESTAMP GT DUP1 PUSH2 0x7E8 JUMPI POP POP PUSH1 0x6 SLOAD PUSH1 0xFF AND ISZERO SWAP1 JUMP JUMPDEST PUSH32 0x0 SWAP1 JUMP JUMPDEST PUSH32 0x0 SWAP1 JUMP JUMPDEST PUSH1 0x0 PUSH2 0x5D1 DUP3 PUSH1 0x4B PUSH2 0x2373 JUMP JUMPDEST DUP2 PUSH2 0x13D9 JUMPI PUSH2 0x13D9 DUP2 PUSH2 0x237B JUMP JUMPDEST POP POP JUMP JUMPDEST PUSH1 0x0 PUSH2 0x13EE DUP3 TIMESTAMP LT ISZERO PUSH2 0x138 PUSH2 0x13CB JUMP JUMPDEST TIMESTAMP DUP3 SWAP1 SUB PUSH1 0x0 PUSH2 0x13FD DUP6 PUSH2 0x1A49 JUMP JUMPDEST SWAP1 POP PUSH1 0x0 PUSH2 0x140A DUP3 PUSH2 0x23CE JUMP JUMPDEST SWAP1 POP PUSH2 0x141B PUSH1 0x0 DUP3 GT PUSH2 0x139 PUSH2 0x13CB JUMP JUMPDEST DUP3 DUP2 GT PUSH2 0x1447 JUMPI DUP1 DUP4 SUB DUP1 PUSH2 0x1430 DUP5 DUP11 PUSH2 0x23DA JUMP JUMPDEST MUL PUSH2 0x143B DUP5 DUP11 PUSH2 0x241E JUMP JUMPDEST ADD SWAP5 POP POP POP POP POP PUSH2 0x79E JUMP JUMPDEST PUSH1 0x0 PUSH2 0x1452 DUP8 PUSH2 0x2462 JUMP JUMPDEST SWAP1 POP PUSH1 0x0 PUSH2 0x145F DUP3 PUSH2 0x1A49 JUMP JUMPDEST SWAP1 POP PUSH1 0x0 PUSH2 0x146C DUP3 PUSH2 0x23CE JUMP JUMPDEST SWAP1 POP PUSH2 0x147D PUSH1 0x0 DUP3 GT PUSH2 0x139 PUSH2 0x13CB JUMP JUMPDEST PUSH2 0x148C DUP7 DUP3 GT ISZERO PUSH2 0x13A PUSH2 0x13CB JUMP JUMPDEST POP POP PUSH1 0x0 DUP1 PUSH2 0x149B DUP7 DUP5 PUSH2 0x246F JUMP JUMPDEST SWAP2 POP SWAP2 POP PUSH1 0x0 PUSH2 0x14AA DUP4 PUSH2 0x23CE JUMP JUMPDEST PUSH2 0x14B3 DUP4 PUSH2 0x23CE JUMP JUMPDEST SUB SWAP1 POP DUP1 ISZERO PUSH2 0x150B JUMPI PUSH1 0x0 PUSH2 0x14C8 DUP5 DUP14 PUSH2 0x241E JUMP JUMPDEST PUSH2 0x14D2 DUP5 DUP15 PUSH2 0x241E JUMP JUMPDEST SUB SWAP1 POP PUSH1 0x0 PUSH2 0x14E0 DUP6 PUSH2 0x23CE JUMP JUMPDEST DUP10 SUB SWAP1 POP DUP3 DUP2 DUP4 MUL DUP2 PUSH2 0x14EF JUMPI INVALID JUMPDEST SDIV PUSH2 0x14FA DUP7 DUP16 PUSH2 0x241E JUMP JUMPDEST ADD SWAP10 POP POP POP POP POP POP POP POP POP POP PUSH2 0x79E JUMP JUMPDEST PUSH2 0x1515 DUP4 DUP13 PUSH2 0x241E JUMP JUMPDEST SWAP8 POP POP POP POP POP POP POP POP PUSH2 0x79E JUMP JUMPDEST PUSH1 0x0 PUSH2 0x5D1 PUSH6 0x5AF3107A4000 DUP4 MUL PUSH2 0x2522 JUMP JUMPDEST PUSH1 0x1 PUSH1 0x1 PUSH1 0xA0 SHL SUB DUP4 AND PUSH1 0x0 SWAP1 DUP2 MSTORE PUSH1 0x20 DUP2 SWAP1 MSTORE PUSH1 0x40 SWAP1 KECCAK256 SLOAD PUSH2 0x155E DUP3 DUP3 LT ISZERO PUSH2 0x196 PUSH2 0x13CB JUMP JUMPDEST PUSH2 0x1575 PUSH1 0x1 PUSH1 0x1 PUSH1 0xA0 SHL SUB DUP5 AND ISZERO ISZERO PUSH2 0x199 PUSH2 0x13CB JUMP JUMPDEST PUSH1 0x1 PUSH1 0x1 PUSH1 0xA0 SHL SUB DUP1 DUP6 AND PUSH1 0x0 SWAP1 DUP2 MSTORE PUSH1 0x20 DUP2 SWAP1 MSTORE PUSH1 0x40 DUP1 DUP3 KECCAK256 DUP6 DUP6 SUB SWAP1 SSTORE SWAP2 DUP6 AND DUP2 MSTORE KECCAK256 SLOAD PUSH2 0x15A5 SWAP1 DUP4 PUSH2 0x11C5 JUMP JUMPDEST PUSH1 0x1 PUSH1 0x1 PUSH1 0xA0 SHL SUB DUP1 DUP6 AND PUSH1 0x0 DUP2 DUP2 MSTORE PUSH1 0x20 DUP2 SWAP1 MSTORE PUSH1 0x40 SWAP1 DUP2 SWAP1 KECCAK256 SWAP4 SWAP1 SWAP4 SSTORE SWAP2 MLOAD SWAP1 DUP7 AND SWAP1 PUSH32 0xDDF252AD1BE2C89B69C2B068FC378DAA952BA7F163C4A11628F55A4DF523B3EF SWAP1 PUSH2 0x15F7 SWAP1 DUP7 SWAP1 PUSH2 0x49A1 JUMP JUMPDEST PUSH1 0x40 MLOAD DUP1 SWAP2 SUB SWAP1 LOG3 POP POP POP POP JUMP JUMPDEST PUSH2 0x7D7 PUSH2 0x1610 PUSH2 0x1359 JUMP JUMPDEST PUSH2 0x192 PUSH2 0x13CB JUMP JUMPDEST PUSH1 0x8 SLOAD PUSH2 0x1625 SWAP1 DUP3 PUSH2 0x11D7 JUMP JUMPDEST PUSH1 0x8 SSTORE PUSH1 0x40 MLOAD PUSH32 0x3E350B41E86A8E10F804ADE6D35340D620BE35569CC75AC943E8BB14AB80EAD1 SWAP1 PUSH2 0x134E SWAP1 DUP4 SWAP1 PUSH2 0x497E JUMP JUMPDEST PUSH1 0x8 SLOAD PUSH2 0x1664 DUP2 PUSH2 0x17CC JUMP JUMPDEST ISZERO PUSH2 0x5E8 JUMPI PUSH2 0x167E PUSH2 0x1677 PUSH1 0x9 SLOAD PUSH2 0x28FF JUMP JUMPDEST DUP3 SWAP1 PUSH2 0x2943 JUMP JUMPDEST SWAP1 POP PUSH2 0x169A PUSH2 0x1693 PUSH2 0x168E PUSH2 0x5EB JUMP JUMPDEST PUSH2 0x28FF JUMP JUMPDEST DUP3 SWAP1 PUSH2 0x2950 JUMP JUMPDEST PUSH1 0x8 SSTORE POP JUMP JUMPDEST PUSH1 0x0 PUSH32 0x0 PUSH32 0x0 PUSH32 0x0 PUSH2 0x170D PUSH2 0x295E JUMP JUMPDEST ADDRESS PUSH1 0x40 MLOAD PUSH1 0x20 ADD PUSH2 0x1722 SWAP6 SWAP5 SWAP4 SWAP3 SWAP2 SWAP1 PUSH2 0x49FD JUMP JUMPDEST PUSH1 0x40 MLOAD PUSH1 0x20 DUP2 DUP4 SUB SUB DUP2 MSTORE SWAP1 PUSH1 0x40 MSTORE DUP1 MLOAD SWAP1 PUSH1 0x20 ADD KECCAK256 SWAP1 POP SWAP1 JUMP JUMPDEST PUSH2 0x1750 PUSH5 0xE8D4A51000 DUP3 LT ISZERO PUSH1 0xCB PUSH2 0x13CB JUMP JUMPDEST PUSH2 0x1766 PUSH8 0x16345785D8A0000 DUP3 GT ISZERO PUSH1 0xCA PUSH2 0x13CB JUMP JUMPDEST PUSH1 0x8 SLOAD PUSH2 0x1773 SWAP1 DUP3 PUSH2 0x11E5 JUMP JUMPDEST PUSH1 0x8 SSTORE PUSH1 0x40 MLOAD PUSH32 0xA9BA3FFE0B6C366B81232CAAB38605A0699AD5398D6CCE76F91EE809E322DAFC SWAP1 PUSH2 0x134E SWAP1 DUP4 SWAP1 PUSH2 0x49A1 JUMP JUMPDEST PUSH1 0x0 PUSH2 0x5D1 DUP3 DUP3 PUSH2 0x2962 JUMP JUMPDEST PUSH1 0x0 PUSH2 0x5D1 DUP3 PUSH1 0x16 PUSH2 0x2962 JUMP JUMPDEST PUSH1 0x0 PUSH2 0x5D1 DUP3 PUSH1 0x2C PUSH2 0x2989 JUMP JUMPDEST PUSH1 0x0 PUSH2 0x5D1 DUP3 PUSH1 0x55 PUSH2 0x2993 JUMP JUMPDEST PUSH1 0x0 PUSH2 0x5D1 DUP3 PUSH1 0x56 PUSH2 0x299D JUMP JUMPDEST PUSH2 0x13D9 DUP2 DUP4 EQ PUSH1 0x67 PUSH2 0x13CB JUMP JUMPDEST PUSH1 0x0 PUSH1 0x60 DUP1 PUSH1 0x0 PUSH2 0x1802 PUSH2 0x2067 JUMP JUMPDEST SWAP1 POP PUSH2 0x180C PUSH2 0x1359 JUMP JUMPDEST ISZERO PUSH2 0x1854 JUMPI PUSH2 0x1822 DUP8 DUP10 PUSH1 0x0 DUP2 MLOAD DUP2 LT PUSH2 0x10E9 JUMPI INVALID JUMPDEST PUSH1 0x0 PUSH2 0x182E DUP3 DUP11 PUSH2 0x20D6 JUMP JUMPDEST SWAP1 POP PUSH2 0x183F DUP10 DUP4 PUSH1 0x9 SLOAD DUP5 DUP12 PUSH2 0x29AA JUMP JUMPDEST SWAP3 POP PUSH2 0x184E DUP10 DUP5 PUSH2 0x11F3 PUSH2 0x2A8F JUMP JUMPDEST POP PUSH2 0x1875 JUMP JUMPDEST PUSH1 0x40 DUP1 MLOAD PUSH1 0x2 DUP1 DUP3 MSTORE PUSH1 0x60 DUP3 ADD DUP4 MSTORE SWAP1 SWAP2 PUSH1 0x20 DUP4 ADD SWAP1 DUP1 CALLDATASIZE DUP4 CALLDATACOPY ADD SWAP1 POP POP SWAP2 POP JUMPDEST PUSH2 0x1880 DUP9 DUP3 DUP8 PUSH2 0x2B21 JUMP JUMPDEST SWAP1 SWAP5 POP SWAP3 POP PUSH2 0x1892 DUP9 DUP5 PUSH2 0x11F3 PUSH2 0x2A8F JUMP JUMPDEST PUSH2 0x189C DUP2 DUP10 PUSH2 0x20D6 JUMP JUMPDEST PUSH1 0x9 SSTORE POP SWAP8 POP SWAP8 POP SWAP8 SWAP5 POP POP POP POP POP JUMP JUMPDEST PUSH2 0x18D4 DUP2 PUSH1 0x0 DUP2 MLOAD DUP2 LT PUSH2 0x18BD JUMPI INVALID JUMPDEST PUSH1 0x20 MUL PUSH1 0x20 ADD ADD MLOAD PUSH2 0x18CF PUSH1 0x1 PUSH2 0x1D06 JUMP JUMPDEST PUSH2 0x2B8E JUMP JUMPDEST DUP2 PUSH1 0x0 DUP2 MLOAD DUP2 LT PUSH2 0x18E1 JUMPI INVALID JUMPDEST PUSH1 0x20 MUL PUSH1 0x20 ADD ADD DUP2 DUP2 MSTORE POP POP PUSH2 0x190F DUP2 PUSH1 0x1 DUP2 MLOAD DUP2 LT PUSH2 0x18FD JUMPI INVALID JUMPDEST PUSH1 0x20 MUL PUSH1 0x20 ADD ADD MLOAD PUSH2 0x18CF PUSH1 0x0 PUSH2 0x1D06 JUMP JUMPDEST DUP2 PUSH1 0x1 DUP2 MLOAD DUP2 LT PUSH2 0x191C JUMPI INVALID JUMPDEST PUSH1 0x20 MUL PUSH1 0x20 ADD ADD DUP2 DUP2 MSTORE POP POP POP JUMP JUMPDEST CALLER ADDRESS EQ PUSH2 0x19E9 JUMPI PUSH1 0x0 ADDRESS PUSH1 0x1 PUSH1 0x1 PUSH1 0xA0 SHL SUB AND PUSH1 0x0 CALLDATASIZE PUSH1 0x40 MLOAD PUSH2 0x194F SWAP3 SWAP2 SWAP1 PUSH2 0x48C3 JUMP JUMPDEST PUSH1 0x0 PUSH1 0x40 MLOAD DUP1 DUP4 SUB DUP2 PUSH1 0x0 DUP7 GAS CALL SWAP2 POP POP RETURNDATASIZE DUP1 PUSH1 0x0 DUP2 EQ PUSH2 0x198C JUMPI PUSH1 0x40 MLOAD SWAP2 POP PUSH1 0x1F NOT PUSH1 0x3F RETURNDATASIZE ADD AND DUP3 ADD PUSH1 0x40 MSTORE RETURNDATASIZE DUP3 MSTORE RETURNDATASIZE PUSH1 0x0 PUSH1 0x20 DUP5 ADD RETURNDATACOPY PUSH2 0x1991 JUMP JUMPDEST PUSH1 0x60 SWAP2 POP JUMPDEST POP POP SWAP1 POP DUP1 PUSH1 0x0 DUP2 EQ PUSH2 0x19A0 JUMPI INVALID JUMPDEST PUSH1 0x4 PUSH1 0x0 DUP1 RETURNDATACOPY PUSH1 0x0 MLOAD PUSH1 0x1 PUSH1 0x1 PUSH1 0xE0 SHL SUB NOT AND PUSH4 0x43ADBAFB PUSH1 0xE0 SHL DUP2 EQ PUSH2 0x19CB JUMPI RETURNDATASIZE PUSH1 0x0 DUP1 RETURNDATACOPY RETURNDATASIZE PUSH1 0x0 REVERT JUMPDEST POP PUSH1 0x20 PUSH1 0x4 PUSH1 0x0 RETURNDATACOPY PUSH1 0x40 PUSH1 0x20 MSTORE PUSH1 0x24 RETURNDATASIZE SUB PUSH1 0x24 PUSH1 0x40 RETURNDATACOPY PUSH1 0x1C RETURNDATASIZE ADD PUSH1 0x0 RETURN JUMPDEST PUSH2 0x19F2 DUP7 PUSH2 0x1B33 JUMP JUMPDEST PUSH1 0x0 DUP1 PUSH2 0x1A08 DUP12 DUP12 DUP12 DUP12 DUP12 DUP12 DUP12 DUP12 PUSH4 0xFFFFFFFF AND JUMP JUMPDEST POP SWAP2 POP SWAP2 POP PUSH2 0x1A1A DUP2 DUP5 PUSH4 0xFFFFFFFF AND JUMP JUMPDEST DUP1 MLOAD PUSH1 0x1F NOT DUP3 ADD DUP4 SWAP1 MSTORE PUSH4 0x43ADBAFB PUSH1 0x3F NOT DUP4 ADD MSTORE PUSH1 0x20 MUL PUSH1 0x23 NOT DUP3 ADD PUSH1 0x44 DUP3 ADD DUP2 REVERT JUMPDEST POP POP POP POP POP POP POP POP POP JUMP JUMPDEST PUSH1 0x0 SWAP1 DUP2 MSTORE PUSH1 0x7 PUSH1 0x20 MSTORE PUSH1 0x40 SWAP1 KECCAK256 SLOAD SWAP1 JUMP JUMPDEST PUSH1 0x0 DUP1 PUSH1 0x0 DUP1 PUSH1 0x0 DUP1 PUSH1 0x0 PUSH2 0x1A6F DUP9 PUSH2 0x2BAE JUMP JUMPDEST SWAP7 POP PUSH2 0x1A7A DUP9 PUSH2 0x2BBB JUMP JUMPDEST SWAP6 POP PUSH2 0x1A85 DUP9 PUSH2 0x2BC8 JUMP JUMPDEST SWAP5 POP PUSH2 0x1A90 DUP9 PUSH2 0x2BD5 JUMP JUMPDEST SWAP4 POP PUSH2 0x1A9B DUP9 PUSH2 0x2BE2 JUMP JUMPDEST SWAP3 POP PUSH2 0x1AA6 DUP9 PUSH2 0x2BEF JUMP JUMPDEST SWAP2 POP PUSH2 0x1AB1 DUP9 PUSH2 0x23CE JUMP JUMPDEST SWAP1 POP SWAP2 SWAP4 SWAP6 SWAP8 SWAP1 SWAP3 SWAP5 SWAP7 POP JUMP JUMPDEST PUSH1 0x0 DUP3 DUP3 MUL PUSH2 0x79E DUP5 ISZERO DUP1 PUSH2 0x1ADB JUMPI POP DUP4 DUP6 DUP4 DUP2 PUSH2 0x1AD8 JUMPI INVALID JUMPDEST DIV EQ JUMPDEST PUSH1 0x3 PUSH2 0x13CB JUMP JUMPDEST PUSH1 0x0 PUSH2 0x1AF1 DUP3 ISZERO ISZERO PUSH1 0x4 PUSH2 0x13CB JUMP JUMPDEST DUP3 PUSH2 0x1AFE JUMPI POP PUSH1 0x0 PUSH2 0x5D1 JUMP JUMPDEST PUSH8 0xDE0B6B3A7640000 DUP4 DUP2 MUL SWAP1 PUSH2 0x1B21 SWAP1 DUP6 DUP4 DUP2 PUSH2 0x1B18 JUMPI INVALID JUMPDEST DIV EQ PUSH1 0x5 PUSH2 0x13CB JUMP JUMPDEST DUP3 DUP2 DUP2 PUSH2 0x1B2A JUMPI INVALID JUMPDEST DIV SWAP2 POP POP PUSH2 0x5D1 JUMP JUMPDEST PUSH2 0x1B5A DUP2 PUSH1 0x0 DUP2 MLOAD DUP2 LT PUSH2 0x1B43 JUMPI INVALID JUMPDEST PUSH1 0x20 MUL PUSH1 0x20 ADD ADD MLOAD PUSH2 0x1B55 PUSH1 0x1 PUSH2 0x1D06 JUMP JUMPDEST PUSH2 0x1ABE JUMP JUMPDEST DUP2 PUSH1 0x0 DUP2 MLOAD DUP2 LT PUSH2 0x1B67 JUMPI INVALID JUMPDEST PUSH1 0x20 MUL PUSH1 0x20 ADD ADD DUP2 DUP2 MSTORE POP POP PUSH2 0x190F DUP2 PUSH1 0x1 DUP2 MLOAD DUP2 LT PUSH2 0x1B83 JUMPI INVALID JUMPDEST PUSH1 0x20 MUL PUSH1 0x20 ADD ADD MLOAD PUSH2 0x1B55 PUSH1 0x0 PUSH2 0x1D06 JUMP JUMPDEST PUSH1 0x1 PUSH1 0x1 PUSH1 0xA0 SHL SUB DUP3 AND PUSH1 0x0 SWAP1 DUP2 MSTORE PUSH1 0x20 DUP2 SWAP1 MSTORE PUSH1 0x40 SWAP1 KECCAK256 SLOAD PUSH2 0x1BBD DUP3 DUP3 LT ISZERO PUSH2 0x196 PUSH2 0x13CB JUMP JUMPDEST PUSH1 0x1 PUSH1 0x1 PUSH1 0xA0 SHL SUB DUP4 AND PUSH1 0x0 SWAP1 DUP2 MSTORE PUSH1 0x20 DUP2 SWAP1 MSTORE PUSH1 0x40 SWAP1 KECCAK256 DUP3 DUP3 SUB SWAP1 SSTORE PUSH1 0x2 SLOAD PUSH2 0x1BE7 SWAP1 DUP4 PUSH2 0x11F3 JUMP JUMPDEST PUSH1 0x2 SSTORE PUSH1 0x40 MLOAD PUSH1 0x0 SWAP1 PUSH1 0x1 PUSH1 0x1 PUSH1 0xA0 SHL SUB DUP6 AND SWAP1 PUSH32 0xDDF252AD1BE2C89B69C2B068FC378DAA952BA7F163C4A11628F55A4DF523B3EF SWAP1 PUSH2 0x12A0 SWAP1 DUP7 SWAP1 PUSH2 0x49A1 JUMP JUMPDEST PUSH1 0x0 PUSH1 0x60 DUP1 PUSH1 0x0 PUSH2 0x1C37 PUSH2 0x2067 JUMP JUMPDEST SWAP1 POP PUSH1 0x0 PUSH2 0x1C45 DUP3 DUP11 PUSH2 0x20D6 JUMP JUMPDEST SWAP1 POP PUSH1 0x0 PUSH2 0x1C58 DUP11 DUP5 PUSH1 0x9 SLOAD DUP6 DUP13 PUSH2 0x29AA JUMP JUMPDEST SWAP1 POP PUSH2 0x1C67 DUP11 DUP3 PUSH2 0x11F3 PUSH2 0x2A8F JUMP JUMPDEST PUSH1 0x0 DUP1 PUSH2 0x1C75 DUP13 DUP7 DUP12 PUSH2 0x2BFC JUMP JUMPDEST SWAP2 POP SWAP2 POP PUSH2 0x1C86 DUP13 DUP3 PUSH2 0x11C5 PUSH2 0x2A8F JUMP JUMPDEST PUSH2 0x1C90 DUP6 DUP14 PUSH2 0x20D6 JUMP JUMPDEST PUSH1 0x9 SSTORE SWAP1 SWAP15 SWAP1 SWAP14 POP SWAP1 SWAP12 POP SWAP10 POP POP POP POP POP POP POP POP POP POP JUMP JUMPDEST PUSH2 0x1CCF DUP2 PUSH1 0x0 DUP2 MLOAD DUP2 LT PUSH2 0x1CB8 JUMPI INVALID JUMPDEST PUSH1 0x20 MUL PUSH1 0x20 ADD ADD MLOAD PUSH2 0x1CCA PUSH1 0x1 PUSH2 0x1D06 JUMP JUMPDEST PUSH2 0x2C56 JUMP JUMPDEST DUP2 PUSH1 0x0 DUP2 MLOAD DUP2 LT PUSH2 0x1CDC JUMPI INVALID JUMPDEST PUSH1 0x20 MUL PUSH1 0x20 ADD ADD DUP2 DUP2 MSTORE POP POP PUSH2 0x190F DUP2 PUSH1 0x1 DUP2 MLOAD DUP2 LT PUSH2 0x1CF8 JUMPI INVALID JUMPDEST PUSH1 0x20 MUL PUSH1 0x20 ADD ADD MLOAD PUSH2 0x1CCA PUSH1 0x0 JUMPDEST PUSH1 0x0 DUP2 PUSH2 0x1D33 JUMPI PUSH32 0x0 PUSH2 0x5D1 JUMP JUMPDEST POP PUSH32 0x0 SWAP2 SWAP1 POP JUMP JUMPDEST PUSH1 0x0 DUP2 PUSH2 0x1D87 JUMPI PUSH32 0x0 PUSH2 0x5D1 JUMP JUMPDEST POP PUSH32 0x0 SWAP2 SWAP1 POP JUMP JUMPDEST PUSH1 0x0 PUSH2 0x79E DUP4 DUP4 PUSH2 0x1ABE JUMP JUMPDEST PUSH1 0x8 SLOAD PUSH2 0x1DC6 DUP2 PUSH2 0x17CC JUMP JUMPDEST DUP1 ISZERO PUSH2 0x1DD1 JUMPI POP DUP4 NUMBER GT JUMPDEST ISZERO PUSH2 0x1EBA JUMPI PUSH1 0x0 PUSH2 0x1E24 PUSH32 0x0 DUP6 PUSH32 0x0 DUP7 PUSH2 0x2C89 JUMP JUMPDEST SWAP1 POP PUSH1 0x0 PUSH2 0x1E5B PUSH32 0x0 DUP7 PUSH2 0x1E56 DUP7 PUSH2 0x17B2 JUMP JUMPDEST PUSH2 0x2CBE JUMP JUMPDEST SWAP1 POP PUSH1 0x0 PUSH2 0x1E68 DUP5 PUSH2 0x13BE JUMP JUMPDEST SWAP1 POP PUSH1 0x0 PUSH2 0x1E75 DUP6 PUSH2 0x17BF JUMP JUMPDEST SWAP1 POP PUSH1 0x0 PUSH2 0x1E8E DUP3 DUP5 DUP8 DUP8 PUSH2 0x1E89 DUP12 PUSH2 0x17A6 JUMP JUMPDEST PUSH2 0x2CDA JUMP JUMPDEST SWAP1 POP DUP1 DUP4 EQ PUSH2 0x1A3E JUMPI PUSH2 0x1EA1 DUP7 DUP3 PUSH2 0x2D31 JUMP JUMPDEST SWAP6 POP PUSH2 0x1EAD DUP7 TIMESTAMP PUSH2 0x2D3F JUMP JUMPDEST PUSH1 0x8 DUP2 SWAP1 SSTORE SWAP6 POP POP POP POP POP POP JUMPDEST POP POP POP POP JUMP JUMPDEST PUSH1 0x0 DUP3 DUP3 MUL PUSH2 0x1EDA DUP5 ISZERO DUP1 PUSH2 0x1ADB JUMPI POP DUP4 DUP6 DUP4 DUP2 PUSH2 0x1AD8 JUMPI INVALID JUMPDEST DUP1 PUSH2 0x1EE9 JUMPI PUSH1 0x0 SWAP2 POP POP PUSH2 0x5D1 JUMP JUMPDEST PUSH8 0xDE0B6B3A7640000 PUSH1 0x0 NOT DUP3 ADD JUMPDEST DIV PUSH1 0x1 ADD SWAP2 POP POP PUSH2 0x5D1 JUMP JUMPDEST PUSH1 0x0 PUSH2 0x1F17 DUP6 DUP5 DUP7 DUP6 DUP11 PUSH1 0x60 ADD MLOAD PUSH2 0x2D4D JUMP JUMPDEST SWAP1 POP JUMPDEST SWAP6 SWAP5 POP POP POP POP POP JUMP JUMPDEST PUSH1 0x0 PUSH2 0x79E DUP4 DUP4 PUSH2 0x2B8E JUMP JUMPDEST PUSH1 0x0 PUSH2 0x1F17 DUP6 DUP5 DUP7 DUP6 DUP11 PUSH1 0x60 ADD MLOAD PUSH2 0x2DC8 JUMP JUMPDEST PUSH1 0x0 PUSH2 0x79E DUP4 DUP4 PUSH2 0x2C56 JUMP JUMPDEST PUSH1 0x0 PUSH8 0xDE0B6B3A7640000 DUP3 LT PUSH2 0x1F66 JUMPI PUSH1 0x0 PUSH2 0x5D1 JUMP JUMPDEST POP PUSH8 0xDE0B6B3A7640000 SUB SWAP1 JUMP JUMPDEST PUSH1 0x0 PUSH2 0x1F83 DUP3 ISZERO ISZERO PUSH1 0x4 PUSH2 0x13CB JUMP JUMPDEST DUP3 PUSH2 0x1F90 JUMPI POP PUSH1 0x0 PUSH2 0x5D1 JUMP JUMPDEST PUSH8 0xDE0B6B3A7640000 DUP4 DUP2 MUL SWAP1 PUSH2 0x1FAA SWAP1 DUP6 DUP4 DUP2 PUSH2 0x1B18 JUMPI INVALID JUMPDEST DUP3 PUSH1 0x1 DUP3 SUB DUP2 PUSH2 0x1EF8 JUMPI INVALID JUMPDEST PUSH1 0x0 PUSH2 0x1FC0 PUSH2 0xBB6 JUMP JUMPDEST PUSH1 0x1 PUSH1 0x1 PUSH1 0xA0 SHL SUB AND PUSH4 0xAAABADC5 PUSH1 0x40 MLOAD DUP2 PUSH4 0xFFFFFFFF AND PUSH1 0xE0 SHL DUP2 MSTORE PUSH1 0x4 ADD PUSH1 0x20 PUSH1 0x40 MLOAD DUP1 DUP4 SUB DUP2 DUP7 DUP1 EXTCODESIZE ISZERO DUP1 ISZERO PUSH2 0x1FF8 JUMPI PUSH1 0x0 DUP1 REVERT JUMPDEST POP GAS STATICCALL ISZERO DUP1 ISZERO PUSH2 0x200C JUMPI RETURNDATASIZE PUSH1 0x0 DUP1 RETURNDATACOPY RETURNDATASIZE PUSH1 0x0 REVERT JUMPDEST POP POP POP POP PUSH1 0x40 MLOAD RETURNDATASIZE PUSH1 0x1F NOT PUSH1 0x1F DUP3 ADD AND DUP3 ADD DUP1 PUSH1 0x40 MSTORE POP DUP2 ADD SWAP1 PUSH2 0x7E8 SWAP2 SWAP1 PUSH2 0x4618 JUMP JUMPDEST PUSH1 0x0 DUP1 PUSH2 0x203C DUP4 PUSH2 0x1A49 JUMP JUMPDEST SWAP1 POP PUSH2 0x2055 PUSH1 0x0 PUSH2 0x204C DUP4 PUSH2 0x23CE JUMP JUMPDEST GT PUSH2 0x139 PUSH2 0x13CB JUMP JUMPDEST PUSH2 0x205F DUP2 DUP6 PUSH2 0x23DA JUMP JUMPDEST SWAP5 SWAP4 POP POP POP POP JUMP JUMPDEST PUSH1 0x40 DUP1 MLOAD PUSH1 0x2 DUP1 DUP3 MSTORE PUSH1 0x60 DUP1 DUP4 ADD DUP5 MSTORE SWAP3 PUSH1 0x0 SWAP3 SWAP2 SWAP1 PUSH1 0x20 DUP4 ADD SWAP1 DUP1 CALLDATASIZE DUP4 CALLDATACOPY ADD SWAP1 POP POP SWAP1 POP PUSH2 0x2096 PUSH1 0x1 PUSH2 0x1D5A JUMP JUMPDEST DUP2 PUSH1 0x0 DUP2 MLOAD DUP2 LT PUSH2 0x20A3 JUMPI INVALID JUMPDEST PUSH1 0x20 MUL PUSH1 0x20 ADD ADD DUP2 DUP2 MSTORE POP POP PUSH2 0x20B9 PUSH1 0x0 PUSH2 0x1D5A JUMP JUMPDEST DUP2 PUSH1 0x1 DUP2 MLOAD DUP2 LT PUSH2 0x20C6 JUMPI INVALID JUMPDEST PUSH1 0x20 SWAP1 DUP2 MUL SWAP2 SWAP1 SWAP2 ADD ADD MSTORE SWAP1 POP SWAP1 JUMP JUMPDEST PUSH8 0xDE0B6B3A7640000 PUSH1 0x0 JUMPDEST DUP4 MLOAD DUP2 LT ISZERO PUSH2 0x2138 JUMPI PUSH2 0x212E PUSH2 0x2127 DUP6 DUP4 DUP2 MLOAD DUP2 LT PUSH2 0x20FD JUMPI INVALID JUMPDEST PUSH1 0x20 MUL PUSH1 0x20 ADD ADD MLOAD DUP6 DUP5 DUP2 MLOAD DUP2 LT PUSH2 0x2111 JUMPI INVALID JUMPDEST PUSH1 0x20 MUL PUSH1 0x20 ADD ADD MLOAD PUSH2 0x2E3E SWAP1 SWAP2 SWAP1 PUSH4 0xFFFFFFFF AND JUMP JUMPDEST DUP4 SWAP1 PUSH2 0x2E8D JUMP JUMPDEST SWAP2 POP PUSH1 0x1 ADD PUSH2 0x20E2 JUMP JUMPDEST POP PUSH2 0x5D1 PUSH1 0x0 DUP3 GT PUSH2 0x137 PUSH2 0x13CB JUMP JUMPDEST PUSH1 0x0 PUSH2 0x2152 PUSH2 0x16A0 JUMP JUMPDEST DUP3 PUSH1 0x40 MLOAD PUSH1 0x20 ADD PUSH2 0xB50 SWAP3 SWAP2 SWAP1 PUSH2 0x48D3 JUMP JUMPDEST PUSH1 0x0 PUSH1 0x60 PUSH1 0x0 PUSH2 0x2173 DUP5 PUSH2 0x2EB9 JUMP JUMPDEST SWAP1 POP PUSH2 0x218E PUSH1 0x0 DUP3 PUSH1 0x2 DUP2 GT ISZERO PUSH2 0x2186 JUMPI INVALID JUMPDEST EQ PUSH1 0xCE PUSH2 0x13CB JUMP JUMPDEST PUSH1 0x0 PUSH2 0x2199 DUP6 PUSH2 0x2ECF JUMP JUMPDEST SWAP1 POP PUSH2 0x21A7 DUP2 MLOAD PUSH1 0x2 PUSH2 0x17E6 JUMP JUMPDEST PUSH2 0x21B0 DUP2 PUSH2 0x1B33 JUMP JUMPDEST PUSH1 0x0 PUSH2 0x21BA PUSH2 0x2067 JUMP JUMPDEST SWAP1 POP PUSH1 0x0 PUSH2 0x21C8 DUP3 DUP5 PUSH2 0x20D6 JUMP JUMPDEST SWAP1 POP PUSH1 0x0 PUSH2 0x21D7 DUP3 PUSH1 0x2 PUSH2 0x1ABE JUMP JUMPDEST PUSH1 0x9 SWAP3 SWAP1 SWAP3 SSTORE POP SWAP10 SWAP2 SWAP9 POP SWAP1 SWAP7 POP POP POP POP POP POP POP JUMP JUMPDEST PUSH1 0x1 PUSH1 0x1 PUSH1 0xA0 SHL SUB DUP3 AND PUSH1 0x0 SWAP1 DUP2 MSTORE PUSH1 0x20 DUP2 SWAP1 MSTORE PUSH1 0x40 SWAP1 KECCAK256 SLOAD PUSH2 0x2210 SWAP1 DUP3 PUSH2 0x11C5 JUMP JUMPDEST PUSH1 0x1 PUSH1 0x1 PUSH1 0xA0 SHL SUB DUP4 AND PUSH1 0x0 SWAP1 DUP2 MSTORE PUSH1 0x20 DUP2 SWAP1 MSTORE PUSH1 0x40 SWAP1 KECCAK256 SSTORE PUSH1 0x2 SLOAD PUSH2 0x2236 SWAP1 DUP3 PUSH2 0x11C5 JUMP JUMPDEST PUSH1 0x2 SSTORE PUSH1 0x40 MLOAD PUSH1 0x1 PUSH1 0x1 PUSH1 0xA0 SHL SUB DUP4 AND SWAP1 PUSH1 0x0 SWAP1 PUSH32 0xDDF252AD1BE2C89B69C2B068FC378DAA952BA7F163C4A11628F55A4DF523B3EF SWAP1 PUSH2 0x2277 SWAP1 DUP6 SWAP1 PUSH2 0x49A1 JUMP JUMPDEST PUSH1 0x40 MLOAD DUP1 SWAP2 SUB SWAP1 LOG3 POP POP JUMP JUMPDEST PUSH1 0x0 PUSH20 0xBA1BA1BA1BA1BA1BA1BA1BA1BA1BA1BA1BA1BA1B PUSH2 0x22A2 PUSH2 0xB92 JUMP JUMPDEST PUSH1 0x1 PUSH1 0x1 PUSH1 0xA0 SHL SUB AND EQ ISZERO DUP1 ISZERO PUSH2 0x22BD JUMPI POP PUSH2 0x22BD DUP4 PUSH2 0x2EE5 JUMP JUMPDEST ISZERO PUSH2 0x22E5 JUMPI PUSH2 0x22CA PUSH2 0xB92 JUMP JUMPDEST PUSH1 0x1 PUSH1 0x1 PUSH1 0xA0 SHL SUB AND CALLER PUSH1 0x1 PUSH1 0x1 PUSH1 0xA0 SHL SUB AND EQ SWAP1 POP PUSH2 0x5D1 JUMP JUMPDEST PUSH2 0x22ED PUSH2 0x1FB6 JUMP JUMPDEST PUSH1 0x1 PUSH1 0x1 PUSH1 0xA0 SHL SUB AND PUSH4 0x9BE2A884 DUP5 DUP5 ADDRESS PUSH1 0x40 MLOAD DUP5 PUSH4 0xFFFFFFFF AND PUSH1 0xE0 SHL DUP2 MSTORE PUSH1 0x4 ADD PUSH2 0x231C SWAP4 SWAP3 SWAP2 SWAP1 PUSH2 0x49AA JUMP JUMPDEST PUSH1 0x20 PUSH1 0x40 MLOAD DUP1 DUP4 SUB DUP2 DUP7 DUP1 EXTCODESIZE ISZERO DUP1 ISZERO PUSH2 0x2334 JUMPI PUSH1 0x0 DUP1 REVERT JUMPDEST POP GAS STATICCALL ISZERO DUP1 ISZERO PUSH2 0x2348 JUMPI RETURNDATASIZE PUSH1 0x0 DUP1 RETURNDATACOPY RETURNDATASIZE PUSH1 0x0 REVERT JUMPDEST POP POP POP POP PUSH1 0x40 MLOAD RETURNDATASIZE PUSH1 0x1F NOT PUSH1 0x1F DUP3 ADD AND DUP3 ADD DUP1 PUSH1 0x40 MSTORE POP DUP2 ADD SWAP1 PUSH2 0x236C SWAP2 SWAP1 PUSH2 0x44D8 JUMP JUMPDEST SWAP1 POP PUSH2 0x5D1 JUMP JUMPDEST SHR PUSH2 0x3FF AND SWAP1 JUMP JUMPDEST PUSH3 0x461BCD PUSH1 0xE5 SHL PUSH1 0x0 SWAP1 DUP2 MSTORE PUSH1 0x20 PUSH1 0x4 MSTORE PUSH1 0x7 PUSH1 0x24 MSTORE PUSH7 0x42414C23000030 PUSH1 0xA DUP1 DUP5 DIV DUP2 DUP2 MOD PUSH1 0x30 SWAP1 DUP2 ADD PUSH1 0x8 SHL SWAP6 DUP4 SWAP1 MOD SWAP6 SWAP1 SWAP6 ADD SWAP1 DUP3 SWAP1 DIV SWAP2 DUP3 MOD SWAP1 SWAP5 ADD PUSH1 0x10 SHL SWAP4 SWAP1 SWAP4 ADD ADD PUSH1 0xC8 SHL PUSH1 0x44 MSTORE PUSH1 0x64 SWAP1 REVERT JUMPDEST PUSH1 0x0 PUSH2 0x5D1 DUP3 DUP3 PUSH2 0x2989 JUMP JUMPDEST PUSH1 0x0 DUP1 DUP3 PUSH1 0x2 DUP2 GT ISZERO PUSH2 0x23E9 JUMPI INVALID JUMPDEST EQ ISZERO PUSH2 0x23F8 JUMPI PUSH2 0x236C DUP4 PUSH2 0x2BAE JUMP JUMPDEST PUSH1 0x1 DUP3 PUSH1 0x2 DUP2 GT ISZERO PUSH2 0x2406 JUMPI INVALID JUMPDEST EQ ISZERO PUSH2 0x2415 JUMPI PUSH2 0x236C DUP4 PUSH2 0x2BC8 JUMP JUMPDEST PUSH2 0x236C DUP4 PUSH2 0x2BE2 JUMP JUMPDEST PUSH1 0x0 DUP1 DUP3 PUSH1 0x2 DUP2 GT ISZERO PUSH2 0x242D JUMPI INVALID JUMPDEST EQ ISZERO PUSH2 0x243C JUMPI PUSH2 0x236C DUP4 PUSH2 0x2BBB JUMP JUMPDEST PUSH1 0x1 DUP3 PUSH1 0x2 DUP2 GT ISZERO PUSH2 0x244A JUMPI INVALID JUMPDEST EQ ISZERO PUSH2 0x2459 JUMPI PUSH2 0x236C DUP4 PUSH2 0x2BD5 JUMP JUMPDEST PUSH2 0x236C DUP4 PUSH2 0x2BEF JUMP JUMPDEST PUSH1 0x0 PUSH2 0x5D1 DUP3 PUSH1 0x1 PUSH2 0x2EFF JUMP JUMPDEST PUSH1 0x0 DUP1 DUP1 PUSH2 0x3FF DUP2 DUP1 DUP1 JUMPDEST DUP4 DUP6 GT PUSH2 0x24E6 JUMPI PUSH1 0x2 DUP6 DUP6 ADD DIV PUSH2 0x2491 DUP2 DUP11 PUSH2 0x2EFF JUMP JUMPDEST SWAP4 POP PUSH2 0x249C DUP5 PUSH2 0x1A49 JUMP JUMPDEST SWAP3 POP PUSH2 0x24A7 DUP4 PUSH2 0x23CE JUMP JUMPDEST SWAP2 POP DUP10 DUP3 LT ISZERO PUSH2 0x24BC JUMPI DUP1 PUSH1 0x1 ADD SWAP6 POP PUSH2 0x24E0 JUMP JUMPDEST DUP10 DUP3 GT ISZERO PUSH2 0x24CF JUMPI PUSH1 0x1 DUP2 SUB SWAP5 POP PUSH2 0x24E0 JUMP JUMPDEST DUP3 DUP4 SWAP8 POP SWAP8 POP POP POP POP POP POP POP PUSH2 0x251B JUMP JUMPDEST POP PUSH2 0x247A JUMP JUMPDEST DUP9 DUP2 LT PUSH2 0x2504 JUMPI PUSH2 0x24FE PUSH2 0x24F9 DUP5 PUSH2 0x2F10 JUMP JUMPDEST PUSH2 0x1A49 JUMP JUMPDEST DUP3 PUSH2 0x2511 JUMP JUMPDEST DUP2 PUSH2 0x2511 PUSH2 0x24F9 DUP6 PUSH2 0x2462 JUMP JUMPDEST SWAP7 POP SWAP7 POP POP POP POP POP POP JUMPDEST SWAP3 POP SWAP3 SWAP1 POP JUMP JUMPDEST PUSH1 0x0 PUSH2 0x2551 PUSH9 0x238FD42C5CF03FFFF NOT DUP4 SLT ISZERO DUP1 ISZERO PUSH2 0x254A JUMPI POP PUSH9 0x70C1CC73B00C80000 DUP4 SGT ISZERO JUMPDEST PUSH1 0x9 PUSH2 0x13CB JUMP JUMPDEST PUSH1 0x0 DUP3 SLT ISZERO PUSH2 0x2584 JUMPI PUSH2 0x2566 DUP3 PUSH1 0x0 SUB PUSH2 0x2522 JUMP JUMPDEST PUSH11 0xC097CE7BC90715B34B9F1 PUSH1 0x24 SHL DUP2 PUSH2 0x257C JUMPI INVALID JUMPDEST SDIV SWAP1 POP PUSH2 0xA56 JUMP JUMPDEST PUSH1 0x0 PUSH9 0x6F05B59D3B2000000 DUP4 SLT PUSH2 0x25C4 JUMPI POP PUSH9 0x6F05B59D3B1FFFFFF NOT SWAP1 SWAP2 ADD SWAP1 PUSH24 0x195E54C5DD42177F53A27172FA9EC630262827000000000 PUSH2 0x25FA JUMP JUMPDEST PUSH9 0x3782DACE9D9000000 DUP4 SLT PUSH2 0x25F6 JUMPI POP PUSH9 0x3782DACE9D8FFFFFF NOT SWAP1 SWAP2 ADD SWAP1 PUSH12 0x1425982CF597CD205CEF7380 PUSH2 0x25FA JUMP JUMPDEST POP PUSH1 0x1 JUMPDEST PUSH1 0x64 SWAP3 SWAP1 SWAP3 MUL SWAP2 PUSH9 0x56BC75E2D63100000 PUSH9 0xAD78EBC5AC62000000 DUP5 SLT PUSH2 0x264A JUMPI PUSH9 0xAD78EBC5AC61FFFFFF NOT SWAP1 SWAP4 ADD SWAP3 PUSH9 0x56BC75E2D63100000 PUSH15 0x1855144814A7FF805980FF0084000 DUP3 MUL SDIV SWAP1 POP JUMPDEST PUSH9 0x56BC75E2D631000000 DUP5 SLT PUSH2 0x2686 JUMPI PUSH9 0x56BC75E2D630FFFFFF NOT SWAP1 SWAP4 ADD SWAP3 PUSH9 0x56BC75E2D63100000 PUSH12 0x2DF0AB5A80A22C61AB5A700 DUP3 MUL SDIV SWAP1 POP JUMPDEST PUSH9 0x2B5E3AF16B18800000 DUP5 SLT PUSH2 0x26C0 JUMPI PUSH9 0x2B5E3AF16B187FFFFF NOT SWAP1 SWAP4 ADD SWAP3 PUSH9 0x56BC75E2D63100000 PUSH10 0x3F1FCE3DA636EA5CF850 DUP3 MUL SDIV SWAP1 POP JUMPDEST PUSH9 0x15AF1D78B58C400000 DUP5 SLT PUSH2 0x26FA JUMPI PUSH9 0x15AF1D78B58C3FFFFF NOT SWAP1 SWAP4 ADD SWAP3 PUSH9 0x56BC75E2D63100000 PUSH10 0x127FA27722CC06CC5E2 DUP3 MUL SDIV SWAP1 POP JUMPDEST PUSH9 0xAD78EBC5AC6200000 DUP5 SLT PUSH2 0x2733 JUMPI PUSH9 0xAD78EBC5AC61FFFFF NOT SWAP1 SWAP4 ADD SWAP3 PUSH9 0x56BC75E2D63100000 PUSH9 0x280E60114EDB805D03 DUP3 MUL SDIV SWAP1 POP JUMPDEST PUSH9 0x56BC75E2D63100000 DUP5 SLT PUSH2 0x276C JUMPI PUSH9 0x56BC75E2D630FFFFF NOT SWAP1 SWAP4 ADD SWAP3 PUSH9 0x56BC75E2D63100000 PUSH9 0xEBC5FB41746121110 DUP3 MUL SDIV SWAP1 POP JUMPDEST PUSH9 0x2B5E3AF16B1880000 DUP5 SLT PUSH2 0x27A5 JUMPI PUSH9 0x2B5E3AF16B187FFFF NOT SWAP1 SWAP4 ADD SWAP3 PUSH9 0x56BC75E2D63100000 PUSH9 0x8F00F760A4B2DB55D DUP3 MUL SDIV SWAP1 POP JUMPDEST PUSH9 0x15AF1D78B58C40000 DUP5 SLT PUSH2 0x27DE JUMPI PUSH9 0x15AF1D78B58C3FFFF NOT SWAP1 SWAP4 ADD SWAP3 PUSH9 0x56BC75E2D63100000 PUSH9 0x6F5F1775788937937 DUP3 MUL SDIV SWAP1 POP JUMPDEST PUSH9 0x56BC75E2D63100000 DUP5 DUP2 ADD SWAP1 DUP6 SWAP1 PUSH1 0x2 SWAP1 DUP3 DUP1 MUL SDIV SDIV SWAP2 DUP3 ADD SWAP2 SWAP1 POP PUSH1 0x3 PUSH9 0x56BC75E2D63100000 DUP8 DUP4 MUL SDIV SDIV SWAP2 DUP3 ADD SWAP2 SWAP1 POP PUSH1 0x4 PUSH9 0x56BC75E2D63100000 DUP8 DUP4 MUL SDIV SDIV SWAP2 DUP3 ADD SWAP2 SWAP1 POP PUSH1 0x5 PUSH9 0x56BC75E2D63100000 DUP8 DUP4 MUL SDIV SDIV SWAP2 DUP3 ADD SWAP2 SWAP1 POP PUSH1 0x6 PUSH9 0x56BC75E2D63100000 DUP8 DUP4 MUL SDIV SDIV SWAP2 DUP3 ADD SWAP2 SWAP1 POP PUSH1 0x7 PUSH9 0x56BC75E2D63100000 DUP8 DUP4 MUL SDIV SDIV SWAP2 DUP3 ADD SWAP2 SWAP1 POP PUSH1 0x8 PUSH9 0x56BC75E2D63100000 DUP8 DUP4 MUL SDIV SDIV SWAP2 DUP3 ADD SWAP2 SWAP1 POP PUSH1 0x9 PUSH9 0x56BC75E2D63100000 DUP8 DUP4 MUL SDIV SDIV SWAP2 DUP3 ADD SWAP2 SWAP1 POP PUSH1 0xA PUSH9 0x56BC75E2D63100000 DUP8 DUP4 MUL SDIV SDIV SWAP2 DUP3 ADD SWAP2 SWAP1 POP PUSH1 0xB PUSH9 0x56BC75E2D63100000 DUP8 DUP4 MUL SDIV SDIV SWAP2 DUP3 ADD SWAP2 SWAP1 POP PUSH1 0xC PUSH9 0x56BC75E2D63100000 DUP8 DUP4 MUL SDIV SDIV SWAP2 DUP3 ADD SWAP2 SWAP1 POP PUSH1 0x64 PUSH9 0x56BC75E2D63100000 DUP5 DUP5 MUL SDIV DUP6 MUL SDIV SWAP7 SWAP6 POP POP POP POP POP POP JUMP JUMPDEST PUSH1 0x0 DUP1 PUSH2 0x290B DUP4 PUSH2 0x2F1D JUMP JUMPDEST SWAP1 POP PUSH6 0x5AF3107A4000 PUSH1 0x0 DUP3 SGT PUSH2 0x292A JUMPI PUSH6 0x2D79883D2000 DUP3 SUB PUSH2 0x2934 JUMP JUMPDEST PUSH6 0x2D79883D2000 DUP3 ADD JUMPDEST DUP2 PUSH2 0x293B JUMPI INVALID JUMPDEST SDIV SWAP4 SWAP3 POP POP POP JUMP JUMPDEST PUSH1 0x0 PUSH2 0x79E DUP4 DUP4 DUP4 PUSH2 0x2F79 JUMP JUMPDEST PUSH1 0x0 PUSH2 0x79E DUP4 DUP4 PUSH1 0x16 PUSH2 0x2F79 JUMP JUMPDEST CHAINID SWAP1 JUMP JUMPDEST PUSH1 0x0 DUP3 DUP3 SHR PUSH3 0x3FFFFF AND PUSH3 0x1FFFFF DUP2 SGT PUSH2 0x297C JUMPI DUP1 PUSH2 0x205F JUMP JUMPDEST PUSH3 0x3FFFFF NOT OR SWAP4 SWAP3 POP POP POP JUMP JUMPDEST SHR PUSH4 0x7FFFFFFF AND SWAP1 JUMP JUMPDEST SHR PUSH1 0x1 SWAP1 DUP2 AND EQ SWAP1 JUMP JUMPDEST SHR PUSH1 0x1 PUSH1 0x1 PUSH1 0x40 SHL SUB AND SWAP1 JUMP JUMPDEST PUSH1 0x40 DUP1 MLOAD PUSH1 0x2 DUP1 DUP3 MSTORE PUSH1 0x60 DUP1 DUP4 ADD DUP5 MSTORE SWAP3 PUSH1 0x0 SWAP3 SWAP2 SWAP1 PUSH1 0x20 DUP4 ADD SWAP1 DUP1 CALLDATASIZE DUP4 CALLDATACOPY ADD SWAP1 POP POP SWAP1 POP DUP3 PUSH2 0x29DB JUMPI SWAP1 POP PUSH2 0x1F1A JUMP JUMPDEST PUSH2 0x2A4E DUP8 PUSH32 0x0 DUP2 MLOAD DUP2 LT PUSH2 0x2A0A JUMPI INVALID JUMPDEST PUSH1 0x20 MUL PUSH1 0x20 ADD ADD MLOAD DUP8 PUSH32 0x0 DUP2 MLOAD DUP2 LT PUSH2 0x2A3E JUMPI INVALID JUMPDEST PUSH1 0x20 MUL PUSH1 0x20 ADD ADD MLOAD DUP8 DUP8 DUP8 PUSH2 0x2F90 JUMP JUMPDEST DUP2 PUSH32 0x0 DUP2 MLOAD DUP2 LT PUSH2 0x2A7A JUMPI INVALID JUMPDEST PUSH1 0x20 SWAP1 DUP2 MUL SWAP2 SWAP1 SWAP2 ADD ADD MSTORE SWAP7 SWAP6 POP POP POP POP POP POP JUMP JUMPDEST PUSH2 0x2AC5 DUP4 PUSH1 0x0 DUP2 MLOAD DUP2 LT PUSH2 0x2A9F JUMPI INVALID JUMPDEST PUSH1 0x20 MUL PUSH1 0x20 ADD ADD MLOAD DUP4 PUSH1 0x0 DUP2 MLOAD DUP2 LT PUSH2 0x2AB4 JUMPI INVALID JUMPDEST PUSH1 0x20 MUL PUSH1 0x20 ADD ADD MLOAD DUP4 PUSH4 0xFFFFFFFF AND JUMP JUMPDEST DUP4 PUSH1 0x0 DUP2 MLOAD DUP2 LT PUSH2 0x2AD2 JUMPI INVALID JUMPDEST PUSH1 0x20 MUL PUSH1 0x20 ADD ADD DUP2 DUP2 MSTORE POP POP PUSH2 0x2B03 DUP4 PUSH1 0x1 DUP2 MLOAD DUP2 LT PUSH2 0x2AEE JUMPI INVALID JUMPDEST PUSH1 0x20 MUL PUSH1 0x20 ADD ADD MLOAD DUP4 PUSH1 0x1 DUP2 MLOAD DUP2 LT PUSH2 0x2AB4 JUMPI INVALID JUMPDEST DUP4 PUSH1 0x1 DUP2 MLOAD DUP2 LT PUSH2 0x2B10 JUMPI INVALID JUMPDEST PUSH1 0x20 MUL PUSH1 0x20 ADD ADD DUP2 DUP2 MSTORE POP POP POP POP POP JUMP JUMPDEST PUSH1 0x0 PUSH1 0x60 PUSH1 0x0 PUSH2 0x2B30 DUP5 PUSH2 0x2EB9 JUMP JUMPDEST SWAP1 POP PUSH1 0x0 DUP2 PUSH1 0x2 DUP2 GT ISZERO PUSH2 0x2B40 JUMPI INVALID JUMPDEST EQ ISZERO PUSH2 0x2B5B JUMPI PUSH2 0x2B51 DUP7 DUP7 DUP7 PUSH2 0x3008 JUMP JUMPDEST SWAP3 POP SWAP3 POP POP PUSH2 0x2B86 JUMP JUMPDEST PUSH1 0x1 DUP2 PUSH1 0x2 DUP2 GT ISZERO PUSH2 0x2B69 JUMPI INVALID JUMPDEST EQ ISZERO PUSH2 0x2B79 JUMPI PUSH2 0x2B51 DUP7 DUP6 PUSH2 0x30B9 JUMP JUMPDEST PUSH2 0x2B51 DUP7 DUP7 DUP7 PUSH2 0x30EB JUMP JUMPDEST POP JUMPDEST SWAP4 POP SWAP4 SWAP2 POP POP JUMP JUMPDEST PUSH1 0x0 PUSH2 0x2B9D DUP3 ISZERO ISZERO PUSH1 0x4 PUSH2 0x13CB JUMP JUMPDEST DUP2 DUP4 DUP2 PUSH2 0x2BA6 JUMPI INVALID JUMPDEST DIV SWAP4 SWAP3 POP POP POP JUMP JUMPDEST PUSH1 0x0 PUSH2 0x5D1 DUP3 PUSH1 0xEA PUSH2 0x2962 JUMP JUMPDEST PUSH1 0x0 PUSH2 0x5D1 DUP3 PUSH1 0xB5 PUSH2 0x3156 JUMP JUMPDEST PUSH1 0x0 PUSH2 0x5D1 DUP3 PUSH1 0x9F PUSH2 0x2962 JUMP JUMPDEST PUSH1 0x0 PUSH2 0x5D1 DUP3 PUSH1 0x6A PUSH2 0x3156 JUMP JUMPDEST PUSH1 0x0 PUSH2 0x5D1 DUP3 PUSH1 0x54 PUSH2 0x2962 JUMP JUMPDEST PUSH1 0x0 PUSH2 0x5D1 DUP3 PUSH1 0x1F PUSH2 0x3156 JUMP JUMPDEST PUSH1 0x0 PUSH1 0x60 PUSH1 0x0 PUSH2 0x2C0B DUP5 PUSH2 0x2EB9 JUMP JUMPDEST SWAP1 POP PUSH1 0x1 DUP2 PUSH1 0x2 DUP2 GT ISZERO PUSH2 0x2C1B JUMPI INVALID JUMPDEST EQ ISZERO PUSH2 0x2C2C JUMPI PUSH2 0x2B51 DUP7 DUP7 DUP7 PUSH2 0x3189 JUMP JUMPDEST PUSH1 0x2 DUP2 PUSH1 0x2 DUP2 GT ISZERO PUSH2 0x2C3A JUMPI INVALID JUMPDEST EQ ISZERO PUSH2 0x2C4B JUMPI PUSH2 0x2B51 DUP7 DUP7 DUP7 PUSH2 0x31DF JUMP JUMPDEST PUSH2 0x2B84 PUSH2 0x136 PUSH2 0x237B JUMP JUMPDEST PUSH1 0x0 PUSH2 0x2C65 DUP3 ISZERO ISZERO PUSH1 0x4 PUSH2 0x13CB JUMP JUMPDEST DUP3 PUSH2 0x2C72 JUMPI POP PUSH1 0x0 PUSH2 0x5D1 JUMP JUMPDEST DUP2 PUSH1 0x1 DUP5 SUB DUP2 PUSH2 0x2C7E JUMPI INVALID JUMPDEST DIV PUSH1 0x1 ADD SWAP1 POP PUSH2 0x5D1 JUMP JUMPDEST PUSH1 0x0 DUP1 PUSH2 0x2CA9 PUSH2 0x2C99 DUP5 DUP7 PUSH2 0x1F74 JUMP JUMPDEST PUSH2 0x2CA3 DUP8 DUP10 PUSH2 0x1F74 JUMP JUMPDEST SWAP1 PUSH2 0x1F74 JUMP JUMPDEST SWAP1 POP PUSH2 0x2CB4 DUP2 PUSH2 0x28FF JUMP JUMPDEST SWAP7 SWAP6 POP POP POP POP POP POP JUMP JUMPDEST PUSH1 0x0 DUP1 PUSH2 0x2CCE PUSH2 0x168E DUP6 DUP8 PUSH2 0x1F74 JUMP JUMPDEST SWAP3 SWAP1 SWAP3 SUB SWAP5 SWAP4 POP POP POP POP JUMP JUMPDEST PUSH1 0x0 DUP1 PUSH2 0x2CF6 DUP6 DUP6 DUP6 TIMESTAMP PUSH2 0x2CED DUP12 PUSH2 0x1A49 JUMP JUMPDEST SWAP4 SWAP3 SWAP2 SWAP1 PUSH2 0x3263 JUMP JUMPDEST SWAP1 POP PUSH1 0x78 TIMESTAMP DUP9 SWAP1 SUB LT ISZERO DUP1 PUSH2 0x2D0B JUMPI DUP7 PUSH2 0x2D14 JUMP JUMPDEST PUSH2 0x2D14 DUP8 PUSH2 0x2462 JUMP JUMPDEST PUSH1 0x0 DUP2 DUP2 MSTORE PUSH1 0x7 PUSH1 0x20 MSTORE PUSH1 0x40 SWAP1 KECCAK256 SWAP3 SWAP1 SWAP3 SSTORE POP SWAP7 SWAP6 POP POP POP POP POP POP JUMP JUMPDEST PUSH1 0x0 PUSH2 0x79E DUP4 DUP4 PUSH1 0x4B PUSH2 0x32B5 JUMP JUMPDEST PUSH1 0x0 PUSH2 0x79E DUP4 DUP4 PUSH1 0x2C PUSH2 0x32C5 JUMP JUMPDEST PUSH1 0x0 PUSH2 0x2D6F PUSH2 0x2D64 DUP8 PUSH8 0x429D069189E0000 PUSH2 0x2E8D JUMP JUMPDEST DUP4 GT ISZERO PUSH2 0x130 PUSH2 0x13CB JUMP JUMPDEST PUSH1 0x0 PUSH2 0x2D7B DUP8 DUP5 PUSH2 0x11C5 JUMP JUMPDEST SWAP1 POP PUSH1 0x0 PUSH2 0x2D89 DUP9 DUP4 PUSH2 0x1F74 JUMP JUMPDEST SWAP1 POP PUSH1 0x0 PUSH2 0x2D97 DUP9 DUP8 PUSH2 0x1AE2 JUMP JUMPDEST SWAP1 POP PUSH1 0x0 PUSH2 0x2DA5 DUP4 DUP4 PUSH2 0x32D7 JUMP JUMPDEST SWAP1 POP PUSH2 0x2DBA PUSH2 0x2DB3 DUP3 PUSH2 0x1F4E JUMP JUMPDEST DUP10 SWAP1 PUSH2 0x2E8D JUMP JUMPDEST SWAP11 SWAP10 POP POP POP POP POP POP POP POP POP POP JUMP JUMPDEST PUSH1 0x0 PUSH2 0x2DEA PUSH2 0x2DDF DUP6 PUSH8 0x429D069189E0000 PUSH2 0x2E8D JUMP JUMPDEST DUP4 GT ISZERO PUSH2 0x131 PUSH2 0x13CB JUMP JUMPDEST PUSH1 0x0 PUSH2 0x2E00 PUSH2 0x2DF9 DUP7 DUP6 PUSH2 0x11F3 JUMP JUMPDEST DUP7 SWAP1 PUSH2 0x1F74 JUMP JUMPDEST SWAP1 POP PUSH1 0x0 PUSH2 0x2E0E DUP6 DUP9 PUSH2 0x1F74 JUMP JUMPDEST SWAP1 POP PUSH1 0x0 PUSH2 0x2E1C DUP4 DUP4 PUSH2 0x32D7 JUMP JUMPDEST SWAP1 POP PUSH1 0x0 PUSH2 0x2E32 DUP3 PUSH8 0xDE0B6B3A7640000 PUSH2 0x11F3 JUMP JUMPDEST SWAP1 POP PUSH2 0x2DBA DUP11 DUP3 PUSH2 0x1EC0 JUMP JUMPDEST PUSH1 0x0 DUP1 PUSH2 0x2E4B DUP5 DUP5 PUSH2 0x3303 JUMP JUMPDEST SWAP1 POP PUSH1 0x0 PUSH2 0x2E65 PUSH2 0x2E5E DUP4 PUSH2 0x2710 PUSH2 0x1EC0 JUMP JUMPDEST PUSH1 0x1 PUSH2 0x11C5 JUMP JUMPDEST SWAP1 POP DUP1 DUP3 LT ISZERO PUSH2 0x2E7A JUMPI PUSH1 0x0 SWAP3 POP POP POP PUSH2 0x5D1 JUMP JUMPDEST PUSH2 0x2E84 DUP3 DUP3 PUSH2 0x11F3 JUMP JUMPDEST SWAP3 POP POP POP PUSH2 0x5D1 JUMP JUMPDEST PUSH1 0x0 DUP3 DUP3 MUL PUSH2 0x2EA7 DUP5 ISZERO DUP1 PUSH2 0x1ADB JUMPI POP DUP4 DUP6 DUP4 DUP2 PUSH2 0x1AD8 JUMPI INVALID JUMPDEST PUSH8 0xDE0B6B3A7640000 SWAP1 DIV SWAP4 SWAP3 POP POP POP JUMP JUMPDEST PUSH1 0x0 DUP2 DUP1 PUSH1 0x20 ADD SWAP1 MLOAD DUP2 ADD SWAP1 PUSH2 0x5D1 SWAP2 SWAP1 PUSH2 0x4634 JUMP JUMPDEST PUSH1 0x60 DUP2 DUP1 PUSH1 0x20 ADD SWAP1 MLOAD DUP2 ADD SWAP1 PUSH2 0x79E SWAP2 SWAP1 PUSH2 0x46F9 JUMP JUMPDEST PUSH1 0x0 PUSH2 0x2EF7 PUSH4 0x1C74C917 PUSH1 0xE1 SHL PUSH2 0xB1B JUMP JUMPDEST SWAP1 SWAP2 EQ SWAP2 SWAP1 POP JUMP JUMPDEST PUSH1 0x0 PUSH2 0x400 DUP4 DUP4 ADD JUMPDEST MOD SWAP4 SWAP3 POP POP POP JUMP JUMPDEST PUSH1 0x0 PUSH2 0x5D1 DUP3 PUSH1 0x1 PUSH2 0x3404 JUMP JUMPDEST PUSH1 0x0 PUSH2 0x2F2D PUSH1 0x0 DUP4 SGT PUSH1 0x64 PUSH2 0x13CB JUMP JUMPDEST PUSH8 0xC7D713B49DA0000 DUP3 SGT DUP1 ISZERO PUSH2 0x2F4B JUMPI POP PUSH8 0xF43FC2C04EE0000 DUP3 SLT JUMPDEST ISZERO PUSH2 0x2F69 JUMPI PUSH8 0xDE0B6B3A7640000 PUSH2 0x2F62 DUP4 PUSH2 0x3413 JUMP JUMPDEST DUP2 PUSH2 0x257C JUMPI INVALID JUMPDEST PUSH2 0x2F72 DUP3 PUSH2 0x3531 JUMP JUMPDEST SWAP1 POP PUSH2 0xA56 JUMP JUMPDEST PUSH3 0x3FFFFF DUP3 DUP2 AND DUP3 SHL SWAP1 DUP3 SHL NOT DUP5 AND OR SWAP4 SWAP3 POP POP POP JUMP JUMPDEST PUSH1 0x0 DUP4 DUP4 GT PUSH2 0x2FA1 JUMPI POP PUSH1 0x0 PUSH2 0x1F1A JUMP JUMPDEST PUSH1 0x0 PUSH2 0x2FAD DUP6 DUP6 PUSH2 0x1F74 JUMP JUMPDEST SWAP1 POP PUSH1 0x0 PUSH2 0x2FC3 PUSH8 0xDE0B6B3A7640000 DUP9 PUSH2 0x1AE2 JUMP JUMPDEST SWAP1 POP PUSH2 0x2FD7 DUP3 PUSH8 0x9B6E64A8EC60000 PUSH2 0x38D0 JUMP JUMPDEST SWAP2 POP PUSH1 0x0 PUSH2 0x2FE5 DUP4 DUP4 PUSH2 0x32D7 JUMP JUMPDEST SWAP1 POP PUSH1 0x0 PUSH2 0x2FFC PUSH2 0x2FF5 DUP4 PUSH2 0x1F4E JUMP JUMPDEST DUP12 SWAP1 PUSH2 0x2E8D JUMP JUMPDEST SWAP1 POP PUSH2 0x2DBA DUP2 DUP8 PUSH2 0x2E8D JUMP JUMPDEST PUSH1 0x0 PUSH1 0x60 PUSH2 0x3014 PUSH2 0x1605 JUMP JUMPDEST PUSH1 0x0 DUP1 PUSH2 0x3020 DUP6 PUSH2 0x38E7 JUMP JUMPDEST SWAP2 POP SWAP2 POP PUSH2 0x3032 PUSH1 0x2 DUP3 LT PUSH1 0x64 PUSH2 0x13CB JUMP JUMPDEST PUSH1 0x40 DUP1 MLOAD PUSH1 0x2 DUP1 DUP3 MSTORE PUSH1 0x60 DUP3 ADD DUP4 MSTORE PUSH1 0x0 SWAP3 PUSH1 0x20 DUP4 ADD SWAP1 DUP1 CALLDATASIZE DUP4 CALLDATACOPY ADD SWAP1 POP POP SWAP1 POP PUSH2 0x3094 DUP9 DUP4 DUP2 MLOAD DUP2 LT PUSH2 0x3062 JUMPI INVALID JUMPDEST PUSH1 0x20 MUL PUSH1 0x20 ADD ADD MLOAD DUP9 DUP5 DUP2 MLOAD DUP2 LT PUSH2 0x3076 JUMPI INVALID JUMPDEST PUSH1 0x20 MUL PUSH1 0x20 ADD ADD MLOAD DUP6 PUSH2 0x3087 PUSH2 0x5EB JUMP JUMPDEST PUSH2 0x308F PUSH2 0x885 JUMP JUMPDEST PUSH2 0x3909 JUMP JUMPDEST DUP2 DUP4 DUP2 MLOAD DUP2 LT PUSH2 0x30A0 JUMPI INVALID JUMPDEST PUSH1 0x20 SWAP1 DUP2 MUL SWAP2 SWAP1 SWAP2 ADD ADD MSTORE SWAP2 SWAP8 SWAP2 SWAP7 POP SWAP1 SWAP5 POP POP POP POP POP JUMP JUMPDEST PUSH1 0x0 PUSH1 0x60 PUSH1 0x0 PUSH2 0x30C8 DUP5 PUSH2 0x39C0 JUMP JUMPDEST SWAP1 POP PUSH1 0x0 PUSH2 0x30DE DUP7 DUP4 PUSH2 0x30D9 PUSH2 0x5EB JUMP JUMPDEST PUSH2 0x39D6 JUMP JUMPDEST SWAP2 SWAP7 SWAP2 SWAP6 POP SWAP1 SWAP4 POP POP POP POP JUMP JUMPDEST PUSH1 0x0 PUSH1 0x60 PUSH2 0x30F7 PUSH2 0x1605 JUMP JUMPDEST PUSH1 0x0 DUP1 PUSH2 0x3103 DUP6 PUSH2 0x3A87 JUMP JUMPDEST SWAP2 POP SWAP2 POP PUSH2 0x3113 DUP3 MLOAD PUSH1 0x2 PUSH2 0x17E6 JUMP JUMPDEST PUSH2 0x311C DUP3 PUSH2 0x1B33 JUMP JUMPDEST PUSH1 0x0 PUSH2 0x3139 DUP9 DUP9 DUP6 PUSH2 0x312C PUSH2 0x5EB JUMP JUMPDEST PUSH2 0x3134 PUSH2 0x885 JUMP JUMPDEST PUSH2 0x3A9F JUMP JUMPDEST SWAP1 POP PUSH2 0x3149 DUP3 DUP3 GT ISZERO PUSH1 0xCF PUSH2 0x13CB JUMP JUMPDEST SWAP8 SWAP2 SWAP7 POP SWAP1 SWAP5 POP POP POP POP POP JUMP JUMPDEST PUSH1 0x0 DUP3 DUP3 SHR PUSH7 0x1FFFFFFFFFFFFF AND PUSH7 0xFFFFFFFFFFFFF DUP2 SGT PUSH2 0x3178 JUMPI DUP1 PUSH2 0x205F JUMP JUMPDEST PUSH7 0x1FFFFFFFFFFFFF NOT OR SWAP4 SWAP3 POP POP POP JUMP JUMPDEST PUSH1 0x0 PUSH1 0x60 PUSH1 0x0 DUP1 PUSH2 0x3199 DUP6 PUSH2 0x3A87 JUMP JUMPDEST SWAP2 POP SWAP2 POP PUSH2 0x31A9 DUP3 MLOAD PUSH1 0x2 PUSH2 0x17E6 JUMP JUMPDEST PUSH2 0x31B2 DUP3 PUSH2 0x1B33 JUMP JUMPDEST PUSH1 0x0 PUSH2 0x31CF DUP9 DUP9 DUP6 PUSH2 0x31C2 PUSH2 0x5EB JUMP JUMPDEST PUSH2 0x31CA PUSH2 0x885 JUMP JUMPDEST PUSH2 0x3CC9 JUMP JUMPDEST SWAP1 POP PUSH2 0x3149 DUP3 DUP3 LT ISZERO PUSH1 0xD0 PUSH2 0x13CB JUMP JUMPDEST PUSH1 0x0 PUSH1 0x60 PUSH1 0x0 DUP1 PUSH2 0x31EF DUP6 PUSH2 0x38E7 JUMP JUMPDEST SWAP2 POP SWAP2 POP PUSH2 0x3201 PUSH1 0x2 DUP3 LT PUSH1 0x64 PUSH2 0x13CB JUMP JUMPDEST PUSH1 0x40 DUP1 MLOAD PUSH1 0x2 DUP1 DUP3 MSTORE PUSH1 0x60 DUP3 ADD DUP4 MSTORE PUSH1 0x0 SWAP3 PUSH1 0x20 DUP4 ADD SWAP1 DUP1 CALLDATASIZE DUP4 CALLDATACOPY ADD SWAP1 POP POP SWAP1 POP PUSH2 0x3094 DUP9 DUP4 DUP2 MLOAD DUP2 LT PUSH2 0x3231 JUMPI INVALID JUMPDEST PUSH1 0x20 MUL PUSH1 0x20 ADD ADD MLOAD DUP9 DUP5 DUP2 MLOAD DUP2 LT PUSH2 0x3245 JUMPI INVALID JUMPDEST PUSH1 0x20 MUL PUSH1 0x20 ADD ADD MLOAD DUP6 PUSH2 0x3256 PUSH2 0x5EB JUMP JUMPDEST PUSH2 0x325E PUSH2 0x885 JUMP JUMPDEST PUSH2 0x3ED8 JUMP JUMPDEST PUSH1 0x0 DUP1 PUSH2 0x326F DUP8 PUSH2 0x23CE JUMP JUMPDEST DUP4 SUB SWAP1 POP PUSH1 0x0 DUP2 DUP8 MUL PUSH2 0x3281 DUP10 PUSH2 0x2BBB JUMP JUMPDEST ADD SWAP1 POP PUSH1 0x0 DUP3 DUP8 MUL PUSH2 0x3292 DUP11 PUSH2 0x2BD5 JUMP JUMPDEST ADD SWAP1 POP PUSH1 0x0 DUP4 DUP8 MUL PUSH2 0x32A3 DUP12 PUSH2 0x2BEF JUMP JUMPDEST ADD SWAP1 POP PUSH2 0x2DBA DUP10 DUP5 DUP11 DUP6 DUP12 DUP7 DUP13 PUSH2 0x3F7A JUMP JUMPDEST PUSH2 0x3FF DUP2 SHL NOT SWAP3 SWAP1 SWAP3 AND SWAP2 SHL OR SWAP1 JUMP JUMPDEST PUSH4 0x7FFFFFFF DUP2 SHL NOT SWAP3 SWAP1 SWAP3 AND SWAP2 SHL OR SWAP1 JUMP JUMPDEST PUSH1 0x0 DUP1 PUSH2 0x32E4 DUP5 DUP5 PUSH2 0x3303 JUMP JUMPDEST SWAP1 POP PUSH1 0x0 PUSH2 0x32F7 PUSH2 0x2E5E DUP4 PUSH2 0x2710 PUSH2 0x1EC0 JUMP JUMPDEST SWAP1 POP PUSH2 0x1F1A DUP3 DUP3 PUSH2 0x11C5 JUMP JUMPDEST PUSH1 0x0 DUP2 PUSH2 0x3319 JUMPI POP PUSH8 0xDE0B6B3A7640000 PUSH2 0x5D1 JUMP JUMPDEST DUP3 PUSH2 0x3326 JUMPI POP PUSH1 0x0 PUSH2 0x5D1 JUMP JUMPDEST PUSH2 0x3337 PUSH1 0x1 PUSH1 0xFF SHL DUP5 LT PUSH1 0x6 PUSH2 0x13CB JUMP JUMPDEST DUP3 PUSH2 0x335D PUSH24 0xBCE5086492111AEA88F4BB1CA6BCF584181EA8059F76532 DUP5 LT PUSH1 0x7 PUSH2 0x13CB JUMP JUMPDEST DUP3 PUSH1 0x0 PUSH8 0xC7D713B49DA0000 DUP4 SGT DUP1 ISZERO PUSH2 0x337E JUMPI POP PUSH8 0xF43FC2C04EE0000 DUP4 SLT JUMPDEST ISZERO PUSH2 0x33B5 JUMPI PUSH1 0x0 PUSH2 0x338E DUP5 PUSH2 0x3413 JUMP JUMPDEST SWAP1 POP PUSH8 0xDE0B6B3A7640000 DUP1 DUP3 SMOD DUP5 MUL SDIV DUP4 PUSH8 0xDE0B6B3A7640000 DUP4 SDIV MUL ADD SWAP2 POP POP PUSH2 0x33C3 JUMP JUMPDEST DUP2 PUSH2 0x33BF DUP5 PUSH2 0x3531 JUMP JUMPDEST MUL SWAP1 POP JUMPDEST PUSH8 0xDE0B6B3A7640000 SWAP1 SDIV PUSH2 0x33FB PUSH9 0x238FD42C5CF03FFFF NOT DUP3 SLT DUP1 ISZERO SWAP1 PUSH2 0x33F4 JUMPI POP PUSH9 0x70C1CC73B00C80000 DUP3 SGT ISZERO JUMPDEST PUSH1 0x8 PUSH2 0x13CB JUMP JUMPDEST PUSH2 0x2CB4 DUP2 PUSH2 0x2522 JUMP JUMPDEST PUSH1 0x0 PUSH2 0x400 DUP3 DUP5 SUB DUP2 ADD PUSH2 0x2F08 JUMP JUMPDEST PUSH8 0xDE0B6B3A7640000 MUL PUSH1 0x0 DUP1 PUSH11 0xC097CE7BC90715B34B9F1 PUSH1 0x24 SHL DUP1 DUP5 ADD SWAP1 PUSH15 0xC097CE7BC90715B34B9F0FFFFFFFFF NOT DUP6 ADD MUL DUP2 PUSH2 0x344E JUMPI INVALID JUMPDEST SDIV SWAP1 POP PUSH1 0x0 PUSH11 0xC097CE7BC90715B34B9F1 PUSH1 0x24 SHL DUP3 DUP1 MUL SDIV SWAP1 POP DUP2 DUP1 PUSH11 0xC097CE7BC90715B34B9F1 PUSH1 0x24 SHL DUP2 DUP5 MUL SDIV SWAP2 POP PUSH1 0x3 DUP3 SDIV ADD PUSH11 0xC097CE7BC90715B34B9F1 PUSH1 0x24 SHL DUP3 DUP5 MUL SDIV SWAP2 POP PUSH1 0x5 DUP3 SDIV ADD PUSH11 0xC097CE7BC90715B34B9F1 PUSH1 0x24 SHL DUP3 DUP5 MUL SDIV SWAP2 POP PUSH1 0x7 DUP3 SDIV ADD PUSH11 0xC097CE7BC90715B34B9F1 PUSH1 0x24 SHL DUP3 DUP5 MUL SDIV SWAP2 POP PUSH1 0x9 DUP3 SDIV ADD PUSH11 0xC097CE7BC90715B34B9F1 PUSH1 0x24 SHL DUP3 DUP5 MUL SDIV SWAP2 POP PUSH1 0xB DUP3 SDIV ADD PUSH11 0xC097CE7BC90715B34B9F1 PUSH1 0x24 SHL DUP3 DUP5 MUL SDIV SWAP2 POP PUSH1 0xD DUP3 SDIV ADD PUSH11 0xC097CE7BC90715B34B9F1 PUSH1 0x24 SHL DUP3 DUP5 MUL SDIV SWAP2 POP PUSH1 0xF DUP3 PUSH1 0x2 SWAP2 SWAP1 SDIV SWAP2 SWAP1 SWAP2 ADD MUL SWAP6 SWAP5 POP POP POP POP POP JUMP JUMPDEST PUSH1 0x0 PUSH8 0xDE0B6B3A7640000 DUP3 SLT ISZERO PUSH2 0x356D JUMPI PUSH2 0x3563 DUP3 PUSH11 0xC097CE7BC90715B34B9F1 PUSH1 0x24 SHL DUP2 PUSH2 0x355D JUMPI INVALID JUMPDEST SDIV PUSH2 0x3531 JUMP JUMPDEST PUSH1 0x0 SUB SWAP1 POP PUSH2 0xA56 JUMP JUMPDEST PUSH1 0x0 PUSH31 0x1600EF3172E58D2E933EC884FDE10064C63B5372D805E203C0000000000000 DUP4 SLT PUSH2 0x35BE JUMPI PUSH24 0x195E54C5DD42177F53A27172FA9EC630262827000000000 DUP4 SDIV SWAP3 POP PUSH9 0x6F05B59D3B2000000 ADD JUMPDEST PUSH20 0x11798004D755D3C8BC8E03204CF44619E000000 DUP4 SLT PUSH2 0x35F6 JUMPI PUSH12 0x1425982CF597CD205CEF7380 DUP4 SDIV SWAP3 POP PUSH9 0x3782DACE9D9000000 ADD JUMPDEST PUSH1 0x64 SWAP3 DUP4 MUL SWAP3 MUL PUSH15 0x1855144814A7FF805980FF0084000 DUP4 SLT PUSH2 0x363E JUMPI PUSH15 0x1855144814A7FF805980FF0084000 PUSH9 0x56BC75E2D63100000 DUP5 MUL SDIV SWAP3 POP PUSH9 0xAD78EBC5AC62000000 ADD JUMPDEST PUSH12 0x2DF0AB5A80A22C61AB5A700 DUP4 SLT PUSH2 0x3679 JUMPI PUSH12 0x2DF0AB5A80A22C61AB5A700 PUSH9 0x56BC75E2D63100000 DUP5 MUL SDIV SWAP3 POP PUSH9 0x56BC75E2D631000000 ADD JUMPDEST PUSH10 0x3F1FCE3DA636EA5CF850 DUP4 SLT PUSH2 0x36B0 JUMPI PUSH10 0x3F1FCE3DA636EA5CF850 PUSH9 0x56BC75E2D63100000 DUP5 MUL SDIV SWAP3 POP PUSH9 0x2B5E3AF16B18800000 ADD JUMPDEST PUSH10 0x127FA27722CC06CC5E2 DUP4 SLT PUSH2 0x36E7 JUMPI PUSH10 0x127FA27722CC06CC5E2 PUSH9 0x56BC75E2D63100000 DUP5 MUL SDIV SWAP3 POP PUSH9 0x15AF1D78B58C400000 ADD JUMPDEST PUSH9 0x280E60114EDB805D03 DUP4 SLT PUSH2 0x371C JUMPI PUSH9 0x280E60114EDB805D03 PUSH9 0x56BC75E2D63100000 DUP5 MUL SDIV SWAP3 POP PUSH9 0xAD78EBC5AC6200000 ADD JUMPDEST PUSH9 0xEBC5FB41746121110 DUP4 SLT PUSH2 0x3747 JUMPI PUSH9 0xEBC5FB41746121110 PUSH9 0x56BC75E2D63100000 SWAP4 DUP5 MUL SDIV SWAP3 ADD JUMPDEST PUSH9 0x8F00F760A4B2DB55D DUP4 SLT PUSH2 0x377C JUMPI PUSH9 0x8F00F760A4B2DB55D PUSH9 0x56BC75E2D63100000 DUP5 MUL SDIV SWAP3 POP PUSH9 0x2B5E3AF16B1880000 ADD JUMPDEST PUSH9 0x6F5F1775788937937 DUP4 SLT PUSH2 0x37B1 JUMPI PUSH9 0x6F5F1775788937937 PUSH9 0x56BC75E2D63100000 DUP5 MUL SDIV SWAP3 POP PUSH9 0x15AF1D78B58C40000 ADD JUMPDEST PUSH9 0x6248F33704B286603 DUP4 SLT PUSH2 0x37E5 JUMPI PUSH9 0x6248F33704B286603 PUSH9 0x56BC75E2D63100000 DUP5 MUL SDIV SWAP3 POP PUSH8 0xAD78EBC5AC620000 ADD JUMPDEST PUSH9 0x5C548670B9510E7AC DUP4 SLT PUSH2 0x3819 JUMPI PUSH9 0x5C548670B9510E7AC PUSH9 0x56BC75E2D63100000 DUP5 MUL SDIV SWAP3 POP PUSH8 0x56BC75E2D6310000 ADD JUMPDEST PUSH1 0x0 PUSH9 0x56BC75E2D63100000 DUP5 ADD PUSH9 0x56BC75E2D63100000 DUP1 DUP7 SUB MUL DUP2 PUSH2 0x383C JUMPI INVALID JUMPDEST SDIV SWAP1 POP PUSH1 0x0 PUSH9 0x56BC75E2D63100000 DUP3 DUP1 MUL SDIV SWAP1 POP DUP2 DUP1 PUSH9 0x56BC75E2D63100000 DUP2 DUP5 MUL SDIV SWAP2 POP PUSH1 0x3 DUP3 SDIV ADD PUSH9 0x56BC75E2D63100000 DUP3 DUP5 MUL SDIV SWAP2 POP PUSH1 0x5 DUP3 SDIV ADD PUSH9 0x56BC75E2D63100000 DUP3 DUP5 MUL SDIV SWAP2 POP PUSH1 0x7 DUP3 SDIV ADD PUSH9 0x56BC75E2D63100000 DUP3 DUP5 MUL SDIV SWAP2 POP PUSH1 0x9 DUP3 SDIV ADD PUSH9 0x56BC75E2D63100000 DUP3 DUP5 MUL SDIV SWAP2 POP PUSH1 0xB DUP3 SDIV ADD PUSH1 0x2 MUL PUSH1 0x64 DUP6 DUP3 ADD SDIV SWAP8 SWAP7 POP POP POP POP POP POP POP JUMP JUMPDEST PUSH1 0x0 DUP2 DUP4 LT ISZERO PUSH2 0x38E0 JUMPI DUP2 PUSH2 0x79E JUMP JUMPDEST POP SWAP1 SWAP2 SWAP1 POP JUMP JUMPDEST PUSH1 0x0 DUP1 DUP3 DUP1 PUSH1 0x20 ADD SWAP1 MLOAD DUP2 ADD SWAP1 PUSH2 0x38FE SWAP2 SWAP1 PUSH2 0x46C3 JUMP JUMPDEST SWAP1 SWAP6 SWAP1 SWAP5 POP SWAP3 POP POP POP JUMP JUMPDEST PUSH1 0x0 DUP1 PUSH2 0x391A DUP5 PUSH2 0x2CA3 DUP2 DUP9 PUSH2 0x11F3 JUMP JUMPDEST SWAP1 POP PUSH2 0x3933 PUSH8 0x9B6E64A8EC60000 DUP3 LT ISZERO PUSH2 0x132 PUSH2 0x13CB JUMP JUMPDEST PUSH1 0x0 PUSH2 0x3951 PUSH2 0x394A PUSH8 0xDE0B6B3A7640000 DUP10 PUSH2 0x1AE2 JUMP JUMPDEST DUP4 SWAP1 PUSH2 0x32D7 JUMP JUMPDEST SWAP1 POP PUSH1 0x0 PUSH2 0x3968 PUSH2 0x3961 DUP4 PUSH2 0x1F4E JUMP JUMPDEST DUP11 SWAP1 PUSH2 0x2E8D JUMP JUMPDEST SWAP1 POP PUSH1 0x0 PUSH2 0x3975 DUP10 PUSH2 0x1F4E JUMP JUMPDEST SWAP1 POP PUSH1 0x0 PUSH2 0x3983 DUP4 DUP4 PUSH2 0x1EC0 JUMP JUMPDEST SWAP1 POP PUSH1 0x0 PUSH2 0x3991 DUP5 DUP4 PUSH2 0x11F3 JUMP JUMPDEST SWAP1 POP PUSH2 0x39B0 PUSH2 0x39A9 PUSH2 0x39A2 DUP11 PUSH2 0x1F4E JUMP JUMPDEST DUP5 SWAP1 PUSH2 0x2E8D JUMP JUMPDEST DUP3 SWAP1 PUSH2 0x11C5 JUMP JUMPDEST SWAP13 SWAP12 POP POP POP POP POP POP POP POP POP POP POP POP JUMP JUMPDEST PUSH1 0x0 DUP2 DUP1 PUSH1 0x20 ADD SWAP1 MLOAD DUP2 ADD SWAP1 PUSH2 0x79E SWAP2 SWAP1 PUSH2 0x4696 JUMP JUMPDEST PUSH1 0x60 PUSH1 0x0 PUSH2 0x39E4 DUP5 DUP5 PUSH2 0x1AE2 JUMP JUMPDEST SWAP1 POP PUSH1 0x0 DUP6 MLOAD PUSH1 0x1 PUSH1 0x1 PUSH1 0x40 SHL SUB DUP2 GT DUP1 ISZERO PUSH2 0x39FF JUMPI PUSH1 0x0 DUP1 REVERT JUMPDEST POP PUSH1 0x40 MLOAD SWAP1 DUP1 DUP3 MSTORE DUP1 PUSH1 0x20 MUL PUSH1 0x20 ADD DUP3 ADD PUSH1 0x40 MSTORE DUP1 ISZERO PUSH2 0x3A29 JUMPI DUP2 PUSH1 0x20 ADD PUSH1 0x20 DUP3 MUL DUP1 CALLDATASIZE DUP4 CALLDATACOPY ADD SWAP1 POP JUMPDEST POP SWAP1 POP PUSH1 0x0 JUMPDEST DUP7 MLOAD DUP2 LT ISZERO PUSH2 0x3A7D JUMPI PUSH2 0x3A5E DUP4 DUP9 DUP4 DUP2 MLOAD DUP2 LT PUSH2 0x3A48 JUMPI INVALID JUMPDEST PUSH1 0x20 MUL PUSH1 0x20 ADD ADD MLOAD PUSH2 0x2E8D SWAP1 SWAP2 SWAP1 PUSH4 0xFFFFFFFF AND JUMP JUMPDEST DUP3 DUP3 DUP2 MLOAD DUP2 LT PUSH2 0x3A6A JUMPI INVALID JUMPDEST PUSH1 0x20 SWAP1 DUP2 MUL SWAP2 SWAP1 SWAP2 ADD ADD MSTORE PUSH1 0x1 ADD PUSH2 0x3A2F JUMP JUMPDEST POP SWAP6 SWAP5 POP POP POP POP POP JUMP JUMPDEST PUSH1 0x60 PUSH1 0x0 DUP3 DUP1 PUSH1 0x20 ADD SWAP1 MLOAD DUP2 ADD SWAP1 PUSH2 0x38FE SWAP2 SWAP1 PUSH2 0x4650 JUMP JUMPDEST PUSH1 0x0 DUP1 DUP5 MLOAD PUSH1 0x1 PUSH1 0x1 PUSH1 0x40 SHL SUB DUP2 GT DUP1 ISZERO PUSH2 0x3AB9 JUMPI PUSH1 0x0 DUP1 REVERT JUMPDEST POP PUSH1 0x40 MLOAD SWAP1 DUP1 DUP3 MSTORE DUP1 PUSH1 0x20 MUL PUSH1 0x20 ADD DUP3 ADD PUSH1 0x40 MSTORE DUP1 ISZERO PUSH2 0x3AE3 JUMPI DUP2 PUSH1 0x20 ADD PUSH1 0x20 DUP3 MUL DUP1 CALLDATASIZE DUP4 CALLDATACOPY ADD SWAP1 POP JUMPDEST POP SWAP1 POP PUSH1 0x0 DUP1 JUMPDEST DUP9 MLOAD DUP2 LT ISZERO PUSH2 0x3BA8 JUMPI PUSH2 0x3B43 DUP10 DUP3 DUP2 MLOAD DUP2 LT PUSH2 0x3B02 JUMPI INVALID JUMPDEST PUSH1 0x20 MUL PUSH1 0x20 ADD ADD MLOAD PUSH2 0x2CA3 DUP10 DUP5 DUP2 MLOAD DUP2 LT PUSH2 0x3B19 JUMPI INVALID JUMPDEST PUSH1 0x20 MUL PUSH1 0x20 ADD ADD MLOAD DUP13 DUP6 DUP2 MLOAD DUP2 LT PUSH2 0x3B2D JUMPI INVALID JUMPDEST PUSH1 0x20 MUL PUSH1 0x20 ADD ADD MLOAD PUSH2 0x11F3 SWAP1 SWAP2 SWAP1 PUSH4 0xFFFFFFFF AND JUMP JUMPDEST DUP4 DUP3 DUP2 MLOAD DUP2 LT PUSH2 0x3B4F JUMPI INVALID JUMPDEST PUSH1 0x20 MUL PUSH1 0x20 ADD ADD DUP2 DUP2 MSTORE POP POP PUSH2 0x3B9E PUSH2 0x3B97 DUP10 DUP4 DUP2 MLOAD DUP2 LT PUSH2 0x3B6D JUMPI INVALID JUMPDEST PUSH1 0x20 MUL PUSH1 0x20 ADD ADD MLOAD DUP6 DUP5 DUP2 MLOAD DUP2 LT PUSH2 0x3B81 JUMPI INVALID JUMPDEST PUSH1 0x20 MUL PUSH1 0x20 ADD ADD MLOAD PUSH2 0x1EC0 SWAP1 SWAP2 SWAP1 PUSH4 0xFFFFFFFF AND JUMP JUMPDEST DUP4 SWAP1 PUSH2 0x11C5 JUMP JUMPDEST SWAP2 POP PUSH1 0x1 ADD PUSH2 0x3AEA JUMP JUMPDEST POP PUSH8 0xDE0B6B3A7640000 PUSH1 0x0 JUMPDEST DUP10 MLOAD DUP2 LT ISZERO PUSH2 0x3CA8 JUMPI PUSH1 0x0 DUP5 DUP3 DUP2 MLOAD DUP2 LT PUSH2 0x3BCC JUMPI INVALID JUMPDEST PUSH1 0x20 MUL PUSH1 0x20 ADD ADD MLOAD DUP5 GT ISZERO PUSH2 0x3C2A JUMPI PUSH1 0x0 PUSH2 0x3BF5 PUSH2 0x3BE9 DUP7 PUSH2 0x1F4E JUMP JUMPDEST DUP14 DUP6 DUP2 MLOAD DUP2 LT PUSH2 0x3A48 JUMPI INVALID JUMPDEST SWAP1 POP PUSH1 0x0 PUSH2 0x3C09 DUP3 DUP13 DUP7 DUP2 MLOAD DUP2 LT PUSH2 0x3B2D JUMPI INVALID JUMPDEST SWAP1 POP PUSH2 0x3C21 PUSH2 0x3B97 PUSH2 0x3C1A DUP12 PUSH2 0x1F4E JUMP JUMPDEST DUP4 SWAP1 PUSH2 0x1F74 JUMP JUMPDEST SWAP3 POP POP POP PUSH2 0x3C41 JUMP JUMPDEST DUP9 DUP3 DUP2 MLOAD DUP2 LT PUSH2 0x3C36 JUMPI INVALID JUMPDEST PUSH1 0x20 MUL PUSH1 0x20 ADD ADD MLOAD SWAP1 POP JUMPDEST PUSH1 0x0 PUSH2 0x3C6A DUP13 DUP5 DUP2 MLOAD DUP2 LT PUSH2 0x3C52 JUMPI INVALID JUMPDEST PUSH1 0x20 MUL PUSH1 0x20 ADD ADD MLOAD PUSH2 0x985 DUP5 DUP16 DUP8 DUP2 MLOAD DUP2 LT PUSH2 0x3B2D JUMPI INVALID JUMPDEST SWAP1 POP PUSH2 0x3C9C PUSH2 0x3C95 DUP13 DUP6 DUP2 MLOAD DUP2 LT PUSH2 0x3C7E JUMPI INVALID JUMPDEST PUSH1 0x20 MUL PUSH1 0x20 ADD ADD MLOAD DUP4 PUSH2 0x2E3E SWAP1 SWAP2 SWAP1 PUSH4 0xFFFFFFFF AND JUMP JUMPDEST DUP6 SWAP1 PUSH2 0x2E8D JUMP JUMPDEST SWAP4 POP POP POP PUSH1 0x1 ADD PUSH2 0x3BB5 JUMP JUMPDEST POP PUSH2 0x3CBC PUSH2 0x3CB5 DUP3 PUSH2 0x1F4E JUMP JUMPDEST DUP8 SWAP1 PUSH2 0x1EC0 JUMP JUMPDEST SWAP10 SWAP9 POP POP POP POP POP POP POP POP POP JUMP JUMPDEST PUSH1 0x0 DUP1 DUP5 MLOAD PUSH1 0x1 PUSH1 0x1 PUSH1 0x40 SHL SUB DUP2 GT DUP1 ISZERO PUSH2 0x3CE3 JUMPI PUSH1 0x0 DUP1 REVERT JUMPDEST POP PUSH1 0x40 MLOAD SWAP1 DUP1 DUP3 MSTORE DUP1 PUSH1 0x20 MUL PUSH1 0x20 ADD DUP3 ADD PUSH1 0x40 MSTORE DUP1 ISZERO PUSH2 0x3D0D JUMPI DUP2 PUSH1 0x20 ADD PUSH1 0x20 DUP3 MUL DUP1 CALLDATASIZE DUP4 CALLDATACOPY ADD SWAP1 POP JUMPDEST POP SWAP1 POP PUSH1 0x0 DUP1 JUMPDEST DUP9 MLOAD DUP2 LT ISZERO PUSH2 0x3DB5 JUMPI PUSH2 0x3D6D DUP10 DUP3 DUP2 MLOAD DUP2 LT PUSH2 0x3D2C JUMPI INVALID JUMPDEST PUSH1 0x20 MUL PUSH1 0x20 ADD ADD MLOAD PUSH2 0x985 DUP10 DUP5 DUP2 MLOAD DUP2 LT PUSH2 0x3D43 JUMPI INVALID JUMPDEST PUSH1 0x20 MUL PUSH1 0x20 ADD ADD MLOAD DUP13 DUP6 DUP2 MLOAD DUP2 LT PUSH2 0x3D57 JUMPI INVALID JUMPDEST PUSH1 0x20 MUL PUSH1 0x20 ADD ADD MLOAD PUSH2 0x11C5 SWAP1 SWAP2 SWAP1 PUSH4 0xFFFFFFFF AND JUMP JUMPDEST DUP4 DUP3 DUP2 MLOAD DUP2 LT PUSH2 0x3D79 JUMPI INVALID JUMPDEST PUSH1 0x20 MUL PUSH1 0x20 ADD ADD DUP2 DUP2 MSTORE POP POP PUSH2 0x3DAB PUSH2 0x3B97 DUP10 DUP4 DUP2 MLOAD DUP2 LT PUSH2 0x3D97 JUMPI INVALID JUMPDEST PUSH1 0x20 MUL PUSH1 0x20 ADD ADD MLOAD DUP6 DUP5 DUP2 MLOAD DUP2 LT PUSH2 0x3A48 JUMPI INVALID JUMPDEST SWAP2 POP PUSH1 0x1 ADD PUSH2 0x3D14 JUMP JUMPDEST POP PUSH8 0xDE0B6B3A7640000 PUSH1 0x0 JUMPDEST DUP10 MLOAD DUP2 LT ISZERO PUSH2 0x3E96 JUMPI PUSH1 0x0 DUP4 DUP6 DUP4 DUP2 MLOAD DUP2 LT PUSH2 0x3DDA JUMPI INVALID JUMPDEST PUSH1 0x20 MUL PUSH1 0x20 ADD ADD MLOAD GT ISZERO PUSH2 0x3E36 JUMPI PUSH1 0x0 PUSH2 0x3DFF PUSH2 0x3BE9 DUP7 PUSH8 0xDE0B6B3A7640000 PUSH2 0x11F3 JUMP JUMPDEST SWAP1 POP PUSH1 0x0 PUSH2 0x3E13 DUP3 DUP13 DUP7 DUP2 MLOAD DUP2 LT PUSH2 0x3B2D JUMPI INVALID JUMPDEST SWAP1 POP PUSH2 0x3E2D PUSH2 0x3B97 PUSH2 0x2127 PUSH8 0xDE0B6B3A7640000 DUP13 PUSH2 0x11F3 JUMP JUMPDEST SWAP3 POP POP POP PUSH2 0x3E4D JUMP JUMPDEST DUP9 DUP3 DUP2 MLOAD DUP2 LT PUSH2 0x3E42 JUMPI INVALID JUMPDEST PUSH1 0x20 MUL PUSH1 0x20 ADD ADD MLOAD SWAP1 POP JUMPDEST PUSH1 0x0 PUSH2 0x3E76 DUP13 DUP5 DUP2 MLOAD DUP2 LT PUSH2 0x3E5E JUMPI INVALID JUMPDEST PUSH1 0x20 MUL PUSH1 0x20 ADD ADD MLOAD PUSH2 0x985 DUP5 DUP16 DUP8 DUP2 MLOAD DUP2 LT PUSH2 0x3D57 JUMPI INVALID JUMPDEST SWAP1 POP PUSH2 0x3E8A PUSH2 0x3C95 DUP13 DUP6 DUP2 MLOAD DUP2 LT PUSH2 0x3C7E JUMPI INVALID JUMPDEST SWAP4 POP POP POP PUSH1 0x1 ADD PUSH2 0x3DC2 JUMP JUMPDEST POP PUSH8 0xDE0B6B3A7640000 DUP2 LT PUSH2 0x3ECC JUMPI PUSH2 0x3EC2 PUSH2 0x3EBB DUP3 PUSH8 0xDE0B6B3A7640000 PUSH2 0x11F3 JUMP JUMPDEST DUP8 SWAP1 PUSH2 0x2E8D JUMP JUMPDEST SWAP4 POP POP POP POP PUSH2 0x1F1A JUMP JUMPDEST PUSH1 0x0 SWAP4 POP POP POP POP PUSH2 0x1F1A JUMP JUMPDEST PUSH1 0x0 DUP1 PUSH2 0x3EE9 DUP5 PUSH2 0x2CA3 DUP2 DUP9 PUSH2 0x11C5 JUMP JUMPDEST SWAP1 POP PUSH2 0x3F02 PUSH8 0x29A2241AF62C0000 DUP3 GT ISZERO PUSH2 0x133 PUSH2 0x13CB JUMP JUMPDEST PUSH1 0x0 PUSH2 0x3F19 PUSH2 0x394A PUSH8 0xDE0B6B3A7640000 DUP10 PUSH2 0x1F74 JUMP JUMPDEST SWAP1 POP PUSH1 0x0 PUSH2 0x3F39 PUSH2 0x3F32 DUP4 PUSH8 0xDE0B6B3A7640000 PUSH2 0x11F3 JUMP JUMPDEST DUP11 SWAP1 PUSH2 0x1EC0 JUMP JUMPDEST SWAP1 POP PUSH1 0x0 PUSH2 0x3F46 DUP10 PUSH2 0x1F4E JUMP JUMPDEST SWAP1 POP PUSH1 0x0 PUSH2 0x3F54 DUP4 DUP4 PUSH2 0x1EC0 JUMP JUMPDEST SWAP1 POP PUSH1 0x0 PUSH2 0x3F62 DUP5 DUP4 PUSH2 0x11F3 JUMP JUMPDEST SWAP1 POP PUSH2 0x39B0 PUSH2 0x39A9 PUSH2 0x3F73 DUP11 PUSH2 0x1F4E JUMP JUMPDEST DUP5 SWAP1 PUSH2 0x1F74 JUMP JUMPDEST PUSH1 0x0 PUSH2 0x3F86 DUP3 DUP3 PUSH2 0x3FDA JUMP JUMPDEST PUSH2 0x3F91 DUP5 PUSH1 0x1F PUSH2 0x3FDE JUMP JUMPDEST PUSH2 0x3F9C DUP7 PUSH1 0x54 PUSH2 0x3FEF JUMP JUMPDEST PUSH2 0x3FA7 DUP9 PUSH1 0x6A PUSH2 0x3FDE JUMP JUMPDEST PUSH2 0x3FB2 DUP11 PUSH1 0x9F PUSH2 0x3FEF JUMP JUMPDEST PUSH2 0x3FBD DUP13 PUSH1 0xB5 PUSH2 0x3FDE JUMP JUMPDEST PUSH2 0x3FC8 DUP15 PUSH1 0xEA PUSH2 0x3FEF JUMP JUMPDEST OR OR OR OR OR OR SWAP9 SWAP8 POP POP POP POP POP POP POP POP JUMP JUMPDEST SHL SWAP1 JUMP JUMPDEST PUSH7 0x1FFFFFFFFFFFFF SWAP2 SWAP1 SWAP2 AND SWAP1 SHL SWAP1 JUMP JUMPDEST PUSH3 0x3FFFFF SWAP2 SWAP1 SWAP2 AND SWAP1 SHL SWAP1 JUMP JUMPDEST PUSH1 0x40 DUP1 MLOAD PUSH1 0x60 DUP2 ADD SWAP1 SWAP2 MSTORE DUP1 PUSH1 0x0 DUP2 MSTORE PUSH1 0x20 ADD PUSH1 0x0 DUP2 MSTORE PUSH1 0x20 ADD PUSH1 0x0 DUP2 MSTORE POP SWAP1 JUMP JUMPDEST PUSH1 0x40 DUP1 MLOAD DUP1 DUP3 ADD SWAP1 SWAP2 MSTORE PUSH1 0x0 DUP1 DUP3 MSTORE PUSH1 0x20 DUP3 ADD MSTORE SWAP1 JUMP JUMPDEST DUP1 CALLDATALOAD PUSH2 0xA56 DUP2 PUSH2 0x4B5B JUMP JUMPDEST PUSH1 0x0 DUP3 PUSH1 0x1F DUP4 ADD SLT PUSH2 0x4050 JUMPI DUP1 DUP2 REVERT JUMPDEST DUP2 MLOAD PUSH1 0x20 PUSH2 0x4065 PUSH2 0x4060 DUP4 PUSH2 0x4B3E JUMP JUMPDEST PUSH2 0x4B1B JUMP JUMPDEST DUP3 DUP2 MSTORE DUP2 DUP2 ADD SWAP1 DUP6 DUP4 ADD DUP4 DUP6 MUL DUP8 ADD DUP5 ADD DUP9 LT ISZERO PUSH2 0x4081 JUMPI DUP6 DUP7 REVERT JUMPDEST DUP6 JUMPDEST DUP6 DUP2 LT ISZERO PUSH2 0x409F JUMPI DUP2 MLOAD DUP5 MSTORE SWAP3 DUP5 ADD SWAP3 SWAP1 DUP5 ADD SWAP1 PUSH1 0x1 ADD PUSH2 0x4083 JUMP JUMPDEST POP SWAP1 SWAP8 SWAP7 POP POP POP POP POP POP POP JUMP JUMPDEST PUSH1 0x0 DUP3 PUSH1 0x1F DUP4 ADD SLT PUSH2 0x40BC JUMPI DUP1 DUP2 REVERT JUMPDEST DUP2 CALLDATALOAD PUSH1 0x1 PUSH1 0x1 PUSH1 0x40 SHL SUB DUP2 GT ISZERO PUSH2 0x40CF JUMPI INVALID JUMPDEST PUSH2 0x40E2 PUSH1 0x1F DUP3 ADD PUSH1 0x1F NOT AND PUSH1 0x20 ADD PUSH2 0x4B1B JUMP JUMPDEST DUP2 DUP2 MSTORE DUP5 PUSH1 0x20 DUP4 DUP7 ADD ADD GT ISZERO PUSH2 0x40F6 JUMPI DUP3 DUP4 REVERT JUMPDEST DUP2 PUSH1 0x20 DUP6 ADD PUSH1 0x20 DUP4 ADD CALLDATACOPY SWAP1 DUP2 ADD PUSH1 0x20 ADD SWAP2 SWAP1 SWAP2 MSTORE SWAP3 SWAP2 POP POP JUMP JUMPDEST DUP1 CALLDATALOAD PUSH1 0x2 DUP2 LT PUSH2 0xA56 JUMPI PUSH1 0x0 DUP1 REVERT JUMPDEST PUSH1 0x0 PUSH1 0x20 DUP3 DUP5 SUB SLT ISZERO PUSH2 0x4130 JUMPI DUP1 DUP2 REVERT JUMPDEST DUP2 CALLDATALOAD PUSH2 0x79E DUP2 PUSH2 0x4B5B JUMP JUMPDEST PUSH1 0x0 DUP1 PUSH1 0x40 DUP4 DUP6 SUB SLT ISZERO PUSH2 0x414D JUMPI DUP1 DUP2 REVERT JUMPDEST DUP3 CALLDATALOAD PUSH2 0x4158 DUP2 PUSH2 0x4B5B JUMP JUMPDEST SWAP2 POP PUSH1 0x20 DUP4 ADD CALLDATALOAD PUSH2 0x4168 DUP2 PUSH2 0x4B5B JUMP JUMPDEST DUP1 SWAP2 POP POP SWAP3 POP SWAP3 SWAP1 POP JUMP JUMPDEST PUSH1 0x0 DUP1 PUSH1 0x0 PUSH1 0x60 DUP5 DUP7 SUB SLT ISZERO PUSH2 0x4187 JUMPI DUP1 DUP2 REVERT JUMPDEST DUP4 CALLDATALOAD PUSH2 0x4192 DUP2 PUSH2 0x4B5B JUMP JUMPDEST SWAP3 POP PUSH1 0x20 DUP5 ADD CALLDATALOAD PUSH2 0x41A2 DUP2 PUSH2 0x4B5B JUMP JUMPDEST SWAP3 SWAP6 SWAP3 SWAP5 POP POP POP PUSH1 0x40 SWAP2 SWAP1 SWAP2 ADD CALLDATALOAD SWAP1 JUMP JUMPDEST PUSH1 0x0 DUP1 PUSH1 0x0 DUP1 PUSH1 0x0 DUP1 PUSH1 0x0 PUSH1 0xE0 DUP9 DUP11 SUB SLT ISZERO PUSH2 0x41CD JUMPI DUP5 DUP6 REVERT JUMPDEST DUP8 CALLDATALOAD PUSH2 0x41D8 DUP2 PUSH2 0x4B5B JUMP JUMPDEST SWAP7 POP PUSH1 0x20 DUP9 ADD CALLDATALOAD PUSH2 0x41E8 DUP2 PUSH2 0x4B5B JUMP JUMPDEST SWAP6 POP PUSH1 0x40 DUP9 ADD CALLDATALOAD SWAP5 POP PUSH1 0x60 DUP9 ADD CALLDATALOAD SWAP4 POP PUSH1 0x80 DUP9 ADD CALLDATALOAD PUSH1 0xFF DUP2 AND DUP2 EQ PUSH2 0x420B JUMPI DUP4 DUP5 REVERT JUMPDEST SWAP7 SWAP10 SWAP6 SWAP9 POP SWAP4 SWAP7 SWAP3 SWAP6 SWAP5 PUSH1 0xA0 DUP5 ADD CALLDATALOAD SWAP5 POP PUSH1 0xC0 SWAP1 SWAP4 ADD CALLDATALOAD SWAP3 SWAP2 POP POP JUMP JUMPDEST PUSH1 0x0 DUP1 PUSH1 0x40 DUP4 DUP6 SUB SLT ISZERO PUSH2 0x423A JUMPI DUP2 DUP3 REVERT JUMPDEST DUP3 CALLDATALOAD PUSH2 0x4245 DUP2 PUSH2 0x4B5B JUMP JUMPDEST SWAP5 PUSH1 0x20 SWAP4 SWAP1 SWAP4 ADD CALLDATALOAD SWAP4 POP POP POP JUMP JUMPDEST PUSH1 0x0 DUP1 PUSH1 0x0 PUSH1 0x60 DUP5 DUP7 SUB SLT ISZERO PUSH2 0x4267 JUMPI DUP1 DUP2 REVERT JUMPDEST DUP4 MLOAD PUSH1 0x1 PUSH1 0x1 PUSH1 0x40 SHL SUB DUP1 DUP3 GT ISZERO PUSH2 0x427D JUMPI DUP3 DUP4 REVERT JUMPDEST DUP2 DUP7 ADD SWAP2 POP DUP7 PUSH1 0x1F DUP4 ADD SLT PUSH2 0x4290 JUMPI DUP3 DUP4 REVERT JUMPDEST DUP2 MLOAD PUSH1 0x20 PUSH2 0x42A0 PUSH2 0x4060 DUP4 PUSH2 0x4B3E JUMP JUMPDEST DUP3 DUP2 MSTORE DUP2 DUP2 ADD SWAP1 DUP6 DUP4 ADD DUP4 DUP6 MUL DUP8 ADD DUP5 ADD DUP13 LT ISZERO PUSH2 0x42BC JUMPI DUP8 DUP9 REVERT JUMPDEST DUP8 SWAP7 POP JUMPDEST DUP5 DUP8 LT ISZERO PUSH2 0x42E7 JUMPI DUP1 MLOAD PUSH2 0x42D3 DUP2 PUSH2 0x4B5B JUMP JUMPDEST DUP4 MSTORE PUSH1 0x1 SWAP7 SWAP1 SWAP7 ADD SWAP6 SWAP2 DUP4 ADD SWAP2 DUP4 ADD PUSH2 0x42C0 JUMP JUMPDEST POP SWAP2 DUP10 ADD MLOAD SWAP2 SWAP8 POP SWAP1 SWAP4 POP POP POP DUP1 DUP3 GT ISZERO PUSH2 0x4300 JUMPI DUP3 DUP4 REVERT JUMPDEST POP PUSH2 0x430D DUP7 DUP3 DUP8 ADD PUSH2 0x4040 JUMP JUMPDEST SWAP3 POP POP PUSH1 0x40 DUP5 ADD MLOAD SWAP1 POP SWAP3 POP SWAP3 POP SWAP3 JUMP JUMPDEST PUSH1 0x0 PUSH1 0x20 DUP1 DUP4 DUP6 SUB SLT ISZERO PUSH2 0x4330 JUMPI DUP2 DUP3 REVERT JUMPDEST DUP3 CALLDATALOAD PUSH1 0x1 PUSH1 0x1 PUSH1 0x40 SHL SUB DUP1 DUP3 GT ISZERO PUSH2 0x4346 JUMPI DUP4 DUP5 REVERT JUMPDEST DUP2 DUP6 ADD SWAP2 POP DUP6 PUSH1 0x1F DUP4 ADD SLT PUSH2 0x4359 JUMPI DUP4 DUP5 REVERT JUMPDEST DUP2 CALLDATALOAD PUSH2 0x4367 PUSH2 0x4060 DUP3 PUSH2 0x4B3E JUMP JUMPDEST DUP2 DUP2 MSTORE DUP5 DUP2 ADD SWAP1 DUP5 DUP7 ADD PUSH1 0x40 DUP1 DUP6 MUL DUP8 ADD DUP9 ADD DUP12 LT ISZERO PUSH2 0x4385 JUMPI DUP9 DUP10 REVERT JUMPDEST DUP9 SWAP7 POP JUMPDEST DUP5 DUP8 LT ISZERO PUSH2 0x43DF JUMPI DUP1 DUP3 DUP13 SUB SLT ISZERO PUSH2 0x439F JUMPI DUP9 DUP10 REVERT JUMPDEST DUP1 MLOAD DUP2 DUP2 ADD DUP2 DUP2 LT DUP9 DUP3 GT OR ISZERO PUSH2 0x43B2 JUMPI INVALID JUMPDEST DUP3 MSTORE DUP3 CALLDATALOAD PUSH2 0x43BF DUP2 PUSH2 0x4B7E JUMP JUMPDEST DUP2 MSTORE DUP3 DUP10 ADD CALLDATALOAD DUP10 DUP3 ADD MSTORE DUP5 MSTORE PUSH1 0x1 SWAP7 SWAP1 SWAP7 ADD SWAP6 SWAP3 DUP8 ADD SWAP3 SWAP1 DUP2 ADD SWAP1 PUSH2 0x4389 JUMP JUMPDEST POP SWAP1 SWAP10 SWAP9 POP POP POP POP POP POP POP POP POP JUMP JUMPDEST PUSH1 0x0 PUSH1 0x20 DUP1 DUP4 DUP6 SUB SLT ISZERO PUSH2 0x4400 JUMPI DUP2 DUP3 REVERT JUMPDEST DUP3 CALLDATALOAD PUSH1 0x1 PUSH1 0x1 PUSH1 0x40 SHL SUB DUP1 DUP3 GT ISZERO PUSH2 0x4416 JUMPI DUP4 DUP5 REVERT JUMPDEST DUP2 DUP6 ADD SWAP2 POP DUP6 PUSH1 0x1F DUP4 ADD SLT PUSH2 0x4429 JUMPI DUP4 DUP5 REVERT JUMPDEST DUP2 CALLDATALOAD PUSH2 0x4437 PUSH2 0x4060 DUP3 PUSH2 0x4B3E JUMP JUMPDEST DUP2 DUP2 MSTORE DUP5 DUP2 ADD SWAP1 DUP5 DUP7 ADD PUSH1 0x60 DUP1 DUP6 MUL DUP8 ADD DUP9 ADD DUP12 LT ISZERO PUSH2 0x4455 JUMPI DUP9 DUP10 REVERT JUMPDEST DUP9 SWAP7 POP JUMPDEST DUP5 DUP8 LT ISZERO PUSH2 0x43DF JUMPI DUP1 DUP3 DUP13 SUB SLT ISZERO PUSH2 0x446F JUMPI DUP9 DUP10 REVERT JUMPDEST PUSH1 0x40 DUP1 MLOAD DUP3 DUP2 ADD DUP2 DUP2 LT DUP10 DUP3 GT OR ISZERO PUSH2 0x4484 JUMPI INVALID JUMPDEST DUP3 MSTORE DUP4 CALLDATALOAD PUSH2 0x4491 DUP2 PUSH2 0x4B7E JUMP JUMPDEST DUP2 MSTORE DUP4 DUP11 ADD CALLDATALOAD DUP11 DUP3 ADD MSTORE DUP2 DUP5 ADD CALLDATALOAD SWAP2 DUP2 ADD SWAP2 SWAP1 SWAP2 MSTORE DUP5 MSTORE PUSH1 0x1 SWAP7 SWAP1 SWAP7 ADD SWAP6 SWAP3 DUP8 ADD SWAP3 SWAP1 DUP2 ADD SWAP1 PUSH2 0x4459 JUMP JUMPDEST PUSH1 0x0 PUSH1 0x20 DUP3 DUP5 SUB SLT ISZERO PUSH2 0x44CD JUMPI DUP1 DUP2 REVERT JUMPDEST DUP2 CALLDATALOAD PUSH2 0x79E DUP2 PUSH2 0x4B70 JUMP JUMPDEST PUSH1 0x0 PUSH1 0x20 DUP3 DUP5 SUB SLT ISZERO PUSH2 0x44E9 JUMPI DUP1 DUP2 REVERT JUMPDEST DUP2 MLOAD PUSH2 0x79E DUP2 PUSH2 0x4B70 JUMP JUMPDEST PUSH1 0x0 DUP1 PUSH1 0x0 DUP1 PUSH1 0x0 DUP1 PUSH1 0x0 PUSH1 0xE0 DUP9 DUP11 SUB SLT ISZERO PUSH2 0x450E JUMPI DUP1 DUP2 REVERT JUMPDEST DUP8 CALLDATALOAD SWAP7 POP PUSH1 0x20 DUP1 DUP10 ADD CALLDATALOAD PUSH2 0x4521 DUP2 PUSH2 0x4B5B JUMP JUMPDEST SWAP7 POP PUSH1 0x40 DUP10 ADD CALLDATALOAD PUSH2 0x4531 DUP2 PUSH2 0x4B5B JUMP JUMPDEST SWAP6 POP PUSH1 0x60 DUP10 ADD CALLDATALOAD PUSH1 0x1 PUSH1 0x1 PUSH1 0x40 SHL SUB DUP1 DUP3 GT ISZERO PUSH2 0x454C JUMPI DUP4 DUP5 REVERT JUMPDEST DUP2 DUP12 ADD SWAP2 POP DUP12 PUSH1 0x1F DUP4 ADD SLT PUSH2 0x455F JUMPI DUP4 DUP5 REVERT JUMPDEST DUP2 CALLDATALOAD PUSH2 0x456D PUSH2 0x4060 DUP3 PUSH2 0x4B3E JUMP JUMPDEST DUP1 DUP3 DUP3 MSTORE DUP6 DUP3 ADD SWAP2 POP DUP6 DUP6 ADD DUP16 DUP8 DUP9 DUP7 MUL DUP9 ADD ADD GT ISZERO PUSH2 0x458B JUMPI DUP8 DUP9 REVERT JUMPDEST DUP8 SWAP6 POP JUMPDEST DUP4 DUP7 LT ISZERO PUSH2 0x45AD JUMPI DUP1 CALLDATALOAD DUP4 MSTORE PUSH1 0x1 SWAP6 SWAP1 SWAP6 ADD SWAP5 SWAP2 DUP7 ADD SWAP2 DUP7 ADD PUSH2 0x458F JUMP JUMPDEST POP SWAP9 POP POP POP PUSH1 0x80 DUP12 ADD CALLDATALOAD SWAP6 POP PUSH1 0xA0 DUP12 ADD CALLDATALOAD SWAP5 POP PUSH1 0xC0 DUP12 ADD CALLDATALOAD SWAP3 POP DUP1 DUP4 GT ISZERO PUSH2 0x45D3 JUMPI DUP4 DUP5 REVERT JUMPDEST POP POP PUSH2 0x45E1 DUP11 DUP3 DUP12 ADD PUSH2 0x40AC JUMP JUMPDEST SWAP2 POP POP SWAP3 SWAP6 SWAP9 SWAP2 SWAP5 SWAP8 POP SWAP3 SWAP6 POP JUMP JUMPDEST PUSH1 0x0 PUSH1 0x20 DUP3 DUP5 SUB SLT ISZERO PUSH2 0x4601 JUMPI DUP1 DUP2 REVERT JUMPDEST DUP2 CALLDATALOAD PUSH1 0x1 PUSH1 0x1 PUSH1 0xE0 SHL SUB NOT DUP2 AND DUP2 EQ PUSH2 0x79E JUMPI DUP2 DUP3 REVERT JUMPDEST PUSH1 0x0 PUSH1 0x20 DUP3 DUP5 SUB SLT ISZERO PUSH2 0x4629 JUMPI DUP1 DUP2 REVERT JUMPDEST DUP2 MLOAD PUSH2 0x79E DUP2 PUSH2 0x4B5B JUMP JUMPDEST PUSH1 0x0 PUSH1 0x20 DUP3 DUP5 SUB SLT ISZERO PUSH2 0x4645 JUMPI DUP1 DUP2 REVERT JUMPDEST DUP2 MLOAD PUSH2 0x79E DUP2 PUSH2 0x4B7E JUMP JUMPDEST PUSH1 0x0 DUP1 PUSH1 0x0 PUSH1 0x60 DUP5 DUP7 SUB SLT ISZERO PUSH2 0x4664 JUMPI DUP1 DUP2 REVERT JUMPDEST DUP4 MLOAD PUSH2 0x466F DUP2 PUSH2 0x4B7E JUMP JUMPDEST PUSH1 0x20 DUP6 ADD MLOAD SWAP1 SWAP4 POP PUSH1 0x1 PUSH1 0x1 PUSH1 0x40 SHL SUB DUP2 GT ISZERO PUSH2 0x468A JUMPI DUP2 DUP3 REVERT JUMPDEST PUSH2 0x430D DUP7 DUP3 DUP8 ADD PUSH2 0x4040 JUMP JUMPDEST PUSH1 0x0 DUP1 PUSH1 0x40 DUP4 DUP6 SUB SLT ISZERO PUSH2 0x46A8 JUMPI DUP2 DUP3 REVERT JUMPDEST DUP3 MLOAD PUSH2 0x46B3 DUP2 PUSH2 0x4B7E JUMP JUMPDEST PUSH1 0x20 SWAP4 SWAP1 SWAP4 ADD MLOAD SWAP3 SWAP5 SWAP3 SWAP4 POP POP POP JUMP JUMPDEST PUSH1 0x0 DUP1 PUSH1 0x0 PUSH1 0x60 DUP5 DUP7 SUB SLT ISZERO PUSH2 0x46D7 JUMPI DUP1 DUP2 REVERT JUMPDEST DUP4 MLOAD PUSH2 0x46E2 DUP2 PUSH2 0x4B7E JUMP JUMPDEST PUSH1 0x20 DUP6 ADD MLOAD PUSH1 0x40 SWAP1 SWAP6 ADD MLOAD SWAP1 SWAP7 SWAP5 SWAP6 POP SWAP4 SWAP3 POP POP POP JUMP JUMPDEST PUSH1 0x0 DUP1 PUSH1 0x40 DUP4 DUP6 SUB SLT ISZERO PUSH2 0x470B JUMPI DUP2 DUP3 REVERT JUMPDEST DUP3 MLOAD PUSH2 0x4716 DUP2 PUSH2 0x4B7E JUMP JUMPDEST PUSH1 0x20 DUP5 ADD MLOAD SWAP1 SWAP3 POP PUSH1 0x1 PUSH1 0x1 PUSH1 0x40 SHL SUB DUP2 GT ISZERO PUSH2 0x4731 JUMPI DUP2 DUP3 REVERT JUMPDEST PUSH2 0x473D DUP6 DUP3 DUP7 ADD PUSH2 0x4040 JUMP JUMPDEST SWAP2 POP POP SWAP3 POP SWAP3 SWAP1 POP JUMP JUMPDEST PUSH1 0x0 PUSH1 0x20 DUP3 DUP5 SUB SLT ISZERO PUSH2 0x4758 JUMPI DUP1 DUP2 REVERT JUMPDEST DUP2 CALLDATALOAD PUSH2 0x79E DUP2 PUSH2 0x4B7E JUMP JUMPDEST PUSH1 0x0 DUP1 PUSH1 0x0 PUSH1 0x60 DUP5 DUP7 SUB SLT ISZERO PUSH2 0x4777 JUMPI DUP1 DUP2 REVERT JUMPDEST DUP4 CALLDATALOAD PUSH1 0x1 PUSH1 0x1 PUSH1 0x40 SHL SUB DUP1 DUP3 GT ISZERO PUSH2 0x478D JUMPI DUP3 DUP4 REVERT JUMPDEST DUP2 DUP7 ADD SWAP2 POP PUSH2 0x120 DUP1 DUP4 DUP10 SUB SLT ISZERO PUSH2 0x47A3 JUMPI DUP4 DUP5 REVERT JUMPDEST PUSH2 0x47AC DUP2 PUSH2 0x4B1B JUMP JUMPDEST SWAP1 POP PUSH2 0x47B7 DUP4 PUSH2 0x4110 JUMP JUMPDEST DUP2 MSTORE PUSH2 0x47C5 PUSH1 0x20 DUP5 ADD PUSH2 0x4035 JUMP JUMPDEST PUSH1 0x20 DUP3 ADD MSTORE PUSH2 0x47D6 PUSH1 0x40 DUP5 ADD PUSH2 0x4035 JUMP JUMPDEST PUSH1 0x40 DUP3 ADD MSTORE PUSH1 0x60 DUP4 ADD CALLDATALOAD PUSH1 0x60 DUP3 ADD MSTORE PUSH1 0x80 DUP4 ADD CALLDATALOAD PUSH1 0x80 DUP3 ADD MSTORE PUSH1 0xA0 DUP4 ADD CALLDATALOAD PUSH1 0xA0 DUP3 ADD MSTORE PUSH2 0x4805 PUSH1 0xC0 DUP5 ADD PUSH2 0x4035 JUMP JUMPDEST PUSH1 0xC0 DUP3 ADD MSTORE PUSH2 0x4816 PUSH1 0xE0 DUP5 ADD PUSH2 0x4035 JUMP JUMPDEST PUSH1 0xE0 DUP3 ADD MSTORE PUSH2 0x100 DUP1 DUP5 ADD CALLDATALOAD DUP4 DUP2 GT ISZERO PUSH2 0x482E JUMPI DUP6 DUP7 REVERT JUMPDEST PUSH2 0x483A DUP11 DUP3 DUP8 ADD PUSH2 0x40AC JUMP JUMPDEST SWAP2 DUP4 ADD SWAP2 SWAP1 SWAP2 MSTORE POP SWAP8 PUSH1 0x20 DUP8 ADD CALLDATALOAD SWAP8 POP PUSH1 0x40 SWAP1 SWAP7 ADD CALLDATALOAD SWAP6 SWAP5 POP POP POP POP POP JUMP JUMPDEST PUSH1 0x0 PUSH1 0x20 DUP3 DUP5 SUB SLT ISZERO PUSH2 0x486A JUMPI DUP1 DUP2 REVERT JUMPDEST POP CALLDATALOAD SWAP2 SWAP1 POP JUMP JUMPDEST PUSH1 0x0 DUP2 MLOAD DUP1 DUP5 MSTORE PUSH1 0x20 DUP1 DUP6 ADD SWAP5 POP DUP1 DUP5 ADD DUP4 JUMPDEST DUP4 DUP2 LT ISZERO PUSH2 0x48A0 JUMPI DUP2 MLOAD DUP8 MSTORE SWAP6 DUP3 ADD SWAP6 SWAP1 DUP3 ADD SWAP1 PUSH1 0x1 ADD PUSH2 0x4884 JUMP JUMPDEST POP SWAP5 SWAP6 SWAP5 POP POP POP POP POP JUMP JUMPDEST SWAP2 DUP3 MSTORE PUSH1 0x1 PUSH1 0x1 PUSH1 0xE0 SHL SUB NOT AND PUSH1 0x20 DUP3 ADD MSTORE PUSH1 0x24 ADD SWAP1 JUMP JUMPDEST PUSH1 0x0 DUP3 DUP5 DUP4 CALLDATACOPY SWAP2 ADD SWAP1 DUP2 MSTORE SWAP2 SWAP1 POP JUMP JUMPDEST PUSH2 0x1901 PUSH1 0xF0 SHL DUP2 MSTORE PUSH1 0x2 DUP2 ADD SWAP3 SWAP1 SWAP3 MSTORE PUSH1 0x22 DUP3 ADD MSTORE PUSH1 0x42 ADD SWAP1 JUMP JUMPDEST PUSH1 0x1 PUSH1 0x1 PUSH1 0xA0 SHL SUB SWAP2 SWAP1 SWAP2 AND DUP2 MSTORE PUSH1 0x20 ADD SWAP1 JUMP JUMPDEST PUSH1 0x20 DUP1 DUP3 MSTORE DUP3 MLOAD DUP3 DUP3 ADD DUP2 SWAP1 MSTORE PUSH1 0x0 SWAP2 SWAP1 DUP5 DUP3 ADD SWAP1 PUSH1 0x40 DUP6 ADD SWAP1 DUP5 JUMPDEST DUP2 DUP2 LT ISZERO PUSH2 0x493A JUMPI DUP4 MLOAD DUP4 MSTORE SWAP3 DUP5 ADD SWAP3 SWAP2 DUP5 ADD SWAP2 PUSH1 0x1 ADD PUSH2 0x491E JUMP JUMPDEST POP SWAP1 SWAP7 SWAP6 POP POP POP POP POP POP JUMP JUMPDEST PUSH1 0x0 PUSH1 0x20 DUP3 MSTORE PUSH2 0x79E PUSH1 0x20 DUP4 ADD DUP5 PUSH2 0x4871 JUMP JUMPDEST PUSH1 0x0 PUSH1 0x40 DUP3 MSTORE PUSH2 0x496C PUSH1 0x40 DUP4 ADD DUP6 PUSH2 0x4871 JUMP JUMPDEST DUP3 DUP2 SUB PUSH1 0x20 DUP5 ADD MSTORE PUSH2 0x1F1A DUP2 DUP6 PUSH2 0x4871 JUMP JUMPDEST SWAP1 ISZERO ISZERO DUP2 MSTORE PUSH1 0x20 ADD SWAP1 JUMP JUMPDEST SWAP3 ISZERO ISZERO DUP4 MSTORE PUSH1 0x20 DUP4 ADD SWAP2 SWAP1 SWAP2 MSTORE PUSH1 0x40 DUP3 ADD MSTORE PUSH1 0x60 ADD SWAP1 JUMP JUMPDEST SWAP1 DUP2 MSTORE PUSH1 0x20 ADD SWAP1 JUMP JUMPDEST SWAP3 DUP4 MSTORE PUSH1 0x1 PUSH1 0x1 PUSH1 0xA0 SHL SUB SWAP2 DUP3 AND PUSH1 0x20 DUP5 ADD MSTORE AND PUSH1 0x40 DUP3 ADD MSTORE PUSH1 0x60 ADD SWAP1 JUMP JUMPDEST SWAP6 DUP7 MSTORE PUSH1 0x1 PUSH1 0x1 PUSH1 0xA0 SHL SUB SWAP5 DUP6 AND PUSH1 0x20 DUP8 ADD MSTORE SWAP3 SWAP1 SWAP4 AND PUSH1 0x40 DUP6 ADD MSTORE PUSH1 0x60 DUP5 ADD MSTORE PUSH1 0x80 DUP4 ADD SWAP2 SWAP1 SWAP2 MSTORE PUSH1 0xA0 DUP3 ADD MSTORE PUSH1 0xC0 ADD SWAP1 JUMP JUMPDEST SWAP5 DUP6 MSTORE PUSH1 0x20 DUP6 ADD SWAP4 SWAP1 SWAP4 MSTORE PUSH1 0x40 DUP5 ADD SWAP2 SWAP1 SWAP2 MSTORE PUSH1 0x60 DUP4 ADD MSTORE PUSH1 0x1 PUSH1 0x1 PUSH1 0xA0 SHL SUB AND PUSH1 0x80 DUP3 ADD MSTORE PUSH1 0xA0 ADD SWAP1 JUMP JUMPDEST SWAP4 DUP5 MSTORE PUSH1 0xFF SWAP3 SWAP1 SWAP3 AND PUSH1 0x20 DUP5 ADD MSTORE PUSH1 0x40 DUP4 ADD MSTORE PUSH1 0x60 DUP3 ADD MSTORE PUSH1 0x80 ADD SWAP1 JUMP JUMPDEST SWAP7 DUP8 MSTORE PUSH1 0x20 DUP8 ADD SWAP6 SWAP1 SWAP6 MSTORE PUSH1 0x40 DUP7 ADD SWAP4 SWAP1 SWAP4 MSTORE PUSH1 0x60 DUP6 ADD SWAP2 SWAP1 SWAP2 MSTORE PUSH1 0x80 DUP5 ADD MSTORE PUSH1 0xA0 DUP4 ADD MSTORE PUSH1 0xC0 DUP3 ADD MSTORE PUSH1 0xE0 ADD SWAP1 JUMP JUMPDEST SWAP6 DUP7 MSTORE PUSH1 0x20 DUP7 ADD SWAP5 SWAP1 SWAP5 MSTORE PUSH1 0x40 DUP6 ADD SWAP3 SWAP1 SWAP3 MSTORE PUSH1 0x60 DUP5 ADD MSTORE ISZERO ISZERO PUSH1 0x80 DUP4 ADD MSTORE PUSH1 0xA0 DUP3 ADD MSTORE PUSH1 0xC0 ADD SWAP1 JUMP JUMPDEST PUSH1 0x0 PUSH1 0x20 DUP1 DUP4 MSTORE DUP4 MLOAD DUP1 DUP3 DUP6 ADD MSTORE DUP3 JUMPDEST DUP2 DUP2 LT ISZERO PUSH2 0x4ACD JUMPI DUP6 DUP2 ADD DUP4 ADD MLOAD DUP6 DUP3 ADD PUSH1 0x40 ADD MSTORE DUP3 ADD PUSH2 0x4AB1 JUMP JUMPDEST DUP2 DUP2 GT ISZERO PUSH2 0x4ADE JUMPI DUP4 PUSH1 0x40 DUP4 DUP8 ADD ADD MSTORE JUMPDEST POP PUSH1 0x1F ADD PUSH1 0x1F NOT AND SWAP3 SWAP1 SWAP3 ADD PUSH1 0x40 ADD SWAP4 SWAP3 POP POP POP JUMP JUMPDEST PUSH1 0x0 DUP4 DUP3 MSTORE PUSH1 0x40 PUSH1 0x20 DUP4 ADD MSTORE PUSH2 0x205F PUSH1 0x40 DUP4 ADD DUP5 PUSH2 0x4871 JUMP JUMPDEST PUSH1 0xFF SWAP2 SWAP1 SWAP2 AND DUP2 MSTORE PUSH1 0x20 ADD SWAP1 JUMP JUMPDEST PUSH1 0x40 MLOAD DUP2 DUP2 ADD PUSH1 0x1 PUSH1 0x1 PUSH1 0x40 SHL SUB DUP2 GT DUP3 DUP3 LT OR ISZERO PUSH2 0x4B36 JUMPI INVALID JUMPDEST PUSH1 0x40 MSTORE SWAP2 SWAP1 POP JUMP JUMPDEST PUSH1 0x0 PUSH1 0x1 PUSH1 0x1 PUSH1 0x40 SHL SUB DUP3 GT ISZERO PUSH2 0x4B51 JUMPI INVALID JUMPDEST POP PUSH1 0x20 SWAP1 DUP2 MUL ADD SWAP1 JUMP JUMPDEST PUSH1 0x1 PUSH1 0x1 PUSH1 0xA0 SHL SUB DUP2 AND DUP2 EQ PUSH2 0x5E8 JUMPI PUSH1 0x0 DUP1 REVERT JUMPDEST DUP1 ISZERO ISZERO DUP2 EQ PUSH2 0x5E8 JUMPI PUSH1 0x0 DUP1 REVERT JUMPDEST PUSH1 0x3 DUP2 LT PUSH2 0x5E8 JUMPI PUSH1 0x0 DUP1 REVERT INVALID LOG2 PUSH5 0x6970667358 0x22 SLT KECCAK256 0x4F PUSH8 0xB3BCA66F8FDB930 INVALID SLOAD MSTORE 0xC6 DUP15 0x28 0xE6 PUSH22 0x7CC77A3A026647A114B2143E4BB164736F6C63430007 MOD STOP CALLER LOG2 PUSH5 0x6970667358 0x22 SLT KECCAK256 PUSH30 0x6ED2E4CD2EAF7F60D6587FD97D2C29379F8BCDB30C71E973458FB9B355FE DUP3 PUSH5 0x736F6C6343 STOP SMOD MOD STOP CALLER "
		},
		"gasEstimates": {
			"creation": {
				"codeDepositCost": "4843200",
				"executionCost": "infinite",
				"totalCost": "infinite"
			},
			"external": {
				"create(string,string,address[],uint256[],uint256,bool,address)": "infinite",
				"getPauseConfiguration()": "infinite",
				"getVault()": "infinite",
				"isPoolFromFactory(address)": "1310"
			}
		},
		"methodIdentifiers": {
			"create(string,string,address[],uint256[],uint256,bool,address)": "1596019b",
			"getPauseConfiguration()": "2da47c40",
			"getVault()": "8d928af8",
			"isPoolFromFactory(address)": "6634b753"
		}
	},
	"abi": [
		{
			"inputs": [
				{
					"internalType": "contract IVault",
					"name": "vault",
					"type": "address"
				}
			],
			"stateMutability": "nonpayable",
			"type": "constructor"
		},
		{
			"anonymous": false,
			"inputs": [
				{
					"indexed": true,
					"internalType": "address",
					"name": "pool",
					"type": "address"
				}
			],
			"name": "PoolCreated",
			"type": "event"
		},
		{
			"inputs": [
				{
					"internalType": "string",
					"name": "name",
					"type": "string"
				},
				{
					"internalType": "string",
					"name": "symbol",
					"type": "string"
				},
				{
					"internalType": "contract IERC20[]",
					"name": "tokens",
					"type": "address[]"
				},
				{
					"internalType": "uint256[]",
					"name": "weights",
					"type": "uint256[]"
				},
				{
					"internalType": "uint256",
					"name": "swapFeePercentage",
					"type": "uint256"
				},
				{
					"internalType": "bool",
					"name": "oracleEnabled",
					"type": "bool"
				},
				{
					"internalType": "address",
					"name": "owner",
					"type": "address"
				}
			],
			"name": "create",
			"outputs": [
				{
					"internalType": "address",
					"name": "",
					"type": "address"
				}
			],
			"stateMutability": "nonpayable",
			"type": "function"
		},
		{
			"inputs": [],
			"name": "getPauseConfiguration",
			"outputs": [
				{
					"internalType": "uint256",
					"name": "pauseWindowDuration",
					"type": "uint256"
				},
				{
					"internalType": "uint256",
					"name": "bufferPeriodDuration",
					"type": "uint256"
				}
			],
			"stateMutability": "view",
			"type": "function"
		},
		{
			"inputs": [],
			"name": "getVault",
			"outputs": [
				{
					"internalType": "contract IVault",
					"name": "",
					"type": "address"
				}
			],
			"stateMutability": "view",
			"type": "function"
		},
		{
			"inputs": [
				{
					"internalType": "address",
					"name": "pool",
					"type": "address"
				}
			],
			"name": "isPoolFromFactory",
			"outputs": [
				{
					"internalType": "bool",
					"name": "",
					"type": "bool"
				}
			],
			"stateMutability": "view",
			"type": "function"
		}
	]
}