{
	"data": {
		"bytecode": {
			"linkReferences": {},
			"object": "60c060405234801561001057600080fd5b50604051615fdc380380615fdc83398101604081905261002f9161004d565b60601b6001600160601b0319166080526276a700420160a05261007b565b60006020828403121561005e578081fd5b81516001600160a01b0381168114610074578182fd5b9392505050565b60805160601c60a051615f376100a56000398060d652806101005250806101605250615f376000f3fe60806040523480156200001157600080fd5b5060043610620000525760003560e01c80632da47c4014620000575780636634b753146200007a5780638d928af814620000a0578063fbce039314620000b9575b600080fd5b62000061620000d0565b6040516200007192919062000624565b60405180910390f35b620000916200008b366004620003b4565b6200013c565b60405162000071919062000555565b620000aa6200015e565b60405162000071919062000541565b620000aa620000ca366004620003da565b62000182565b600080427f00000000000000000000000000000000000000000000000000000000000000008110156200012e57807f000000000000000000000000000000000000000000000000000000000000000003925062278d00915062000137565b60009250600091505b509091565b6001600160a01b03811660009081526020819052604090205460ff165b919050565b7f000000000000000000000000000000000000000000000000000000000000000090565b600080600062000191620000d0565b915091506000620001a16200015e565b8a8a8a8a8a88888c604051620001b7906200024f565b620001cb9998979695949392919062000560565b604051809103906000f080158015620001e8573d6000803e3d6000fd5b509050620001f68162000203565b9998505050505050505050565b6001600160a01b038116600081815260208190526040808220805460ff19166001179055517f83a48fbcfc991335314e74d0496aab6a1987e992ddc85dddbcc4d6dd6ef2e9fc9190a250565b615872806200069083390190565b8035620001598162000676565b600082601f8301126200027b578081fd5b81356020620002946200028e8362000657565b62000632565b8281528181019085830183850287018401881015620002b1578586fd5b855b85811015620002dc578135620002c98162000676565b84529284019290840190600101620002b3565b5090979650505050505050565b600082601f830112620002fa578081fd5b813560206200030d6200028e8362000657565b82815281810190858301838502870184018810156200032a578586fd5b855b85811015620002dc578135845292840192908401906001016200032c565b600082601f8301126200035b578081fd5b813567ffffffffffffffff8111156200037057fe5b62000385601f8201601f191660200162000632565b8181528460208386010111156200039a578283fd5b816020850160208301379081016020019190915292915050565b600060208284031215620003c6578081fd5b8135620003d38162000676565b9392505050565b60008060008060008060c08789031215620003f3578182fd5b863567ffffffffffffffff808211156200040b578384fd5b620004198a838b016200034a565b975060208901359150808211156200042f578384fd5b6200043d8a838b016200034a565b9650604089013591508082111562000453578384fd5b620004618a838b016200026a565b9550606089013591508082111562000477578384fd5b506200048689828a01620002e9565b935050608087013591506200049e60a088016200025d565b90509295509295509295565b6001600160a01b03169052565b6000815180845260208085019450808401835b83811015620004e857815187529582019590820190600101620004ca565b509495945050505050565b60008151808452815b818110156200051a57602081850181015186830182015201620004fc565b818111156200052c5782602083870101525b50601f01601f19169290920160200192915050565b6001600160a01b0391909116815260200190565b901515815260200190565b6001600160a01b038a811682526101206020808401829052600092906200058a8584018e620004f3565b92508483036040860152620005a0838d620004f3565b85810360608701528b51808252828d01945090820190855b81811015620005d8578551851683529483019491830191600101620005b8565b50508581036080870152620005ee818c620004b7565b9450505050508560a08301528460c08301528360e083015262000616610100830184620004aa565b9a9950505050505050505050565b918252602082015260400190565b60405181810167ffffffffffffffff811182821017156200064f57fe5b604052919050565b600067ffffffffffffffff8211156200066c57fe5b5060209081020190565b6001600160a01b03811681146200068c57600080fd5b5056fe6105006040527f6e71edae12b1b97f4d1f60370fef10105fa2faae0126114a169c64845d6126c9610120523480156200003757600080fd5b5060405162005872380380620058728339810160408190526200005a9162000cf6565b88888888878787878785516002146200007557600162000078565b60025b6040805180820190915260018152603160f81b6020808301918252336080526001600160601b0319606087901b1660a0528b51908c0190812060c0529151902060e0527f8b73c3c69bb8fe3d512ecc4cf759cc79239f7b179b0ffacaa9a75d522b39400f6101005289518a918a918a918a918a918a918a91849184918a918a9162000107916003919062000abb565b5080516200011d90600490602084019062000abb565b50620001359150506276a70083111561019462000865565b6200014962278d0082111561019562000865565b42909101610140819052016101605284516200016b906002111560c862000865565b6200018360088651111560c96200086560201b60201c565b62000199856200087a60201b62000d541760201c565b620001a48462000886565b6040516309b2760f60e01b81526000906001600160a01b038b16906309b2760f90620001d5908c9060040162000eab565b602060405180830381600087803b158015620001f057600080fd5b505af115801562000205573d6000803e3d6000fd5b505050506040513d601f19601f820116820180604052508101906200022b919062000cdd565b9050896001600160a01b03166366a9c7d2828889516001600160401b03811180156200025657600080fd5b5060405190808252806020026020018201604052801562000281578160200160208202803683370190505b506040518463ffffffff1660e01b8152600401620002a29392919062000e11565b600060405180830381600087803b158015620002bd57600080fd5b505af1158015620002d2573d6000803e3d6000fd5b5050506001600160601b031960608c901b1661018052506101a081905285516101c0528551620003045760006200031b565b856000815181106200031257fe5b60200260200101515b60601b6001600160601b0319166101e05285516001106200033e57600062000355565b856001815181106200034c57fe5b60200260200101515b60601b6001600160601b031916610200528551600210620003785760006200038f565b856002815181106200038657fe5b60200260200101515b60601b6001600160601b031916610220528551600310620003b2576000620003c9565b85600381518110620003c057fe5b60200260200101515b60601b6001600160601b031916610240528551600410620003ec57600062000403565b85600481518110620003fa57fe5b60200260200101515b60601b6001600160601b031916610260528551600510620004265760006200043d565b856005815181106200043457fe5b60200260200101515b60601b6001600160601b0319166102805285516006106200046057600062000477565b856006815181106200046e57fe5b60200260200101515b60601b6001600160601b0319166102a05285516007106200049a576000620004b1565b85600781518110620004a857fe5b60200260200101515b60601b6001600160601b0319166102c0528551620004d1576000620004f7565b620004f786600081518110620004e357fe5b6020026020010151620008f560201b60201c565b6102e05285516001106200050d5760006200051f565b6200051f86600181518110620004e357fe5b6103005285516002106200053557600062000547565b6200054786600281518110620004e357fe5b6103205285516003106200055d5760006200056f565b6200056f86600381518110620004e357fe5b6103405285516004106200058557600062000597565b6200059786600481518110620004e357fe5b610360528551600510620005ad576000620005bf565b620005bf86600581518110620004e357fe5b610380528551600610620005d5576000620005e7565b620005e786600681518110620004e357fe5b6103a0528551600710620005fd5760006200060f565b6200060f86600781518110620004e357fe5b6103c08181525050505050505050505050505050505050505050600086519050620006478187516200099960201b62000d621760201c565b6000806000805b848160ff161015620006cd5760008a8260ff16815181106200066c57fe5b6020026020010151905062000694662386f26fc1000082101561012e6200086560201b60201c565b620006ae8186620009a860201b62000d6f1790919060201c565b945082811115620006c3578160ff1693508092505b506001016200064e565b50620006e6670de0b6b3a7640000841461013462000865565b6103e08290528851620006fb57600062000712565b886000815181106200070957fe5b60200260200101515b610400528851600110620007285760006200073f565b886001815181106200073657fe5b60200260200101515b610420528851600210620007555760006200076c565b886002815181106200076357fe5b60200260200101515b6104405288516003106200078257600062000799565b886003815181106200079057fe5b60200260200101515b610460528851600410620007af576000620007c6565b88600481518110620007bd57fe5b60200260200101515b610480528851600510620007dc576000620007f3565b88600581518110620007ea57fe5b60200260200101515b6104a05288516006106200080957600062000820565b886006815181106200081757fe5b60200260200101515b6104c0528851600710620008365760006200084d565b886007815181106200084457fe5b60200260200101515b6104e0525062000f219b505050505050505050505050565b8162000876576200087681620009c3565b5050565b80620008768162000a16565b6200089b64e8d4a5100082101560cb62000865565b620008b367016345785d8a000082111560ca62000865565b60078190556040517fa9ba3ffe0b6c366b81232caab38605a0699ad5398d6cce76f91ee809e322dafc90620008ea90839062000ec0565b60405180910390a150565b600080826001600160a01b031663313ce5676040518163ffffffff1660e01b815260040160206040518083038186803b1580156200093257600080fd5b505afa15801562000947573d6000803e3d6000fd5b505050506040513d601f19601f820116820180604052508101906200096d919062000dee565b60ff16905060006200098c60128362000aa360201b62000d811760201c565b600a0a925050505b919050565b62000876828214606762000865565b6000828201620009bc848210158362000865565b9392505050565b62461bcd60e51b6000908152602060045260076024526642414c23000030600a808404818106603090810160081b95839006959095019082900491820690940160101b939093010160c81b604452606490fd5b60028151101562000a275762000aa0565b60008160008151811062000a3757fe5b602002602001015190506000600190505b825181101562000a9d57600083828151811062000a6157fe5b6020026020010151905062000a92816001600160a01b0316846001600160a01b03161060656200086560201b60201c565b915060010162000a48565b50505b50565b600062000ab583831115600162000865565b50900390565b828054600181600116156101000203166002900490600052602060002090601f01602090048101928262000af3576000855562000b3e565b82601f1062000b0e57805160ff191683800117855562000b3e565b8280016001018555821562000b3e579182015b8281111562000b3e57825182559160200191906001019062000b21565b5062000b4c92915062000b50565b5090565b5b8082111562000b4c576000815560010162000b51565b8051620009948162000f0b565b600082601f83011262000b85578081fd5b8151602062000b9e62000b988362000eed565b62000ec9565b828152818101908583018385028701840188101562000bbb578586fd5b855b8581101562000be657815162000bd38162000f0b565b8452928401929084019060010162000bbd565b5090979650505050505050565b600082601f83011262000c04578081fd5b8151602062000c1762000b988362000eed565b828152818101908583018385028701840188101562000c34578586fd5b855b8581101562000be65781518452928401929084019060010162000c36565b600082601f83011262000c65578081fd5b81516001600160401b0381111562000c7957fe5b602062000c8f601f8301601f1916820162000ec9565b828152858284870101111562000ca3578384fd5b835b8381101562000cc257858101830151828201840152820162000ca5565b8381111562000cd357848385840101525b5095945050505050565b60006020828403121562000cef578081fd5b5051919050565b60008060008060008060008060006101208a8c03121562000d15578485fd5b62000d208a62000b67565b60208b01519099506001600160401b038082111562000d3d578687fd5b62000d4b8d838e0162000c54565b995060408c015191508082111562000d61578687fd5b62000d6f8d838e0162000c54565b985060608c015191508082111562000d85578687fd5b62000d938d838e0162000b74565b975060808c015191508082111562000da9578687fd5b5062000db88c828d0162000bf3565b95505060a08a0151935060c08a0151925060e08a0151915062000ddf6101008b0162000b67565b90509295985092959850929598565b60006020828403121562000e00578081fd5b815160ff81168114620009bc578182fd5b60006060820185835260206060818501528186518084526080860191508288019350845b8181101562000e5c5784516001600160a01b03168352938301939183019160010162000e35565b505084810360408601528551808252908201925081860190845b8181101562000e9d5782516001600160a01b03168552938301939183019160010162000e76565b509298975050505050505050565b602081016003831062000eba57fe5b91905290565b90815260200190565b6040518181016001600160401b038111828210171562000ee557fe5b604052919050565b60006001600160401b0382111562000f0157fe5b5060209081020190565b6001600160a01b038116811462000aa057600080fd5b60805160a05160601c60c05160e051610100516101205161014051610160516101805160601c6101a0516101c0516101e05160601c6102005160601c6102205160601c6102405160601c6102605160601c6102805160601c6102a05160601c6102c05160601c6102e05161030051610320516103405161036051610380516103a0516103c0516103e05161040051610420516104405161046051610480516104a0516104c0516104e05161473b6200113760003980611ebd528061284f525080611e7a52806127ee525080611e37528061278d525080611df4528061272c525080611db152806126cb525080611d6e528061266a525080611d2b5280612609525080611ce852806125a85250806122c852806122fc52806123385250806116225280611b175250806115df5280611ab652508061159c5280611a5552508061155952806119f452508061151652806119935250806114d3528061193252508061149052806118d152508061143f5280611870525080611adc5280612814525080611a7b52806127b3525080611a1a52806127525250806119b952806126f152508061195852806126905250806118f7528061262f52508061189652806125ce525080611835528061256d5250806110ff5250806105d7525080610835525080610eee525080610eca525080610ab4525080610ff152508061103352508061101252508061081152508061079b525061473b6000f3fe608060405234801561001057600080fd5b50600436106101f05760003560e01c80637ecebe001161010f578063a9059cbb116100a2578063d5c096c411610071578063d5c096c4146103e6578063d73dd623146103f9578063dd62ed3e1461040c578063f89f27ed1461041f576101f0565b8063a9059cbb146103b0578063aaabadc5146103c3578063c0ff1a15146103cb578063d505accf146103d3576101f0565b80638d928af8116100de5780638d928af81461038557806395d89b411461038d5780639b02cdde146103955780639d2c110c1461039d576101f0565b80637ecebe0014610337578063851c1bb31461034a57806387ec68171461035d578063893d20e814610370576101f0565b806338e9922e11610187578063661884631161015657806366188463146102e8578063679aefce146102fb57806370a082311461030357806374f3b00914610316576101f0565b806338e9922e146102a457806338fff2d0146102b757806355c67628146102bf5780636028bfd4146102c7576101f0565b80631c0de051116101c35780631c0de0511461025d57806323b872dd14610274578063313ce567146102875780633644e5151461029c576101f0565b806306fdde03146101f5578063095ea7b31461021357806316c38b3c1461023357806318160ddd14610248575b600080fd5b6101fd610434565b60405161020a919061461b565b60405180910390f35b610226610221366004613ffa565b6104cb565b60405161020a9190614552565b6102466102413660046140f0565b6104e2565b005b6102506104f6565b60405161020a9190614575565b6102656104fc565b60405161020a9392919061455d565b610226610282366004613f45565b610525565b61028f6105a8565b60405161020a9190614687565b6102506105ad565b6102466102b2366004614471565b6105bc565b6102506105d5565b6102506105f9565b6102da6102d5366004614128565b6105ff565b60405161020a92919061466e565b6102266102f6366004613ffa565b610636565b610250610690565b610250610311366004613ef1565b6106bb565b610329610324366004614128565b6106da565b60405161020a92919061452d565b610250610345366004613ef1565b61077c565b610250610358366004614224565b610797565b6102da61036b366004614128565b6107e9565b61037861080f565b60405161020a9190614506565b610378610833565b6101fd610857565b6102506108b8565b6102506103ab36600461437b565b6108be565b6102266103be366004613ffa565b6109a5565b6103786109b2565b6102506109bc565b6102466103e1366004613f85565b610a7f565b6103296103f4366004614128565b610bc8565b610226610407366004613ffa565b610ce9565b61025061041a366004613f0d565b610d1f565b610427610d4a565b60405161020a919061451a565b60038054604080516020601f60026000196101006001881615020190951694909404938401819004810282018101909252828152606093909290918301828280156104c05780601f10610495576101008083540402835291602001916104c0565b820191906000526020600020905b8154815290600101906020018083116104a357829003601f168201915b505050505090505b90565b60006104d8338484610d97565b5060015b92915050565b6104ea610dff565b6104f381610e2d565b50565b60025490565b6000806000610509610eab565b159250610514610ec8565b915061051e610eec565b9050909192565b6001600160a01b0383166000818152600160209081526040808320338085529252822054919261056391148061055b5750838210155b610197610f10565b61056e858585610f1e565b336001600160a01b0386161480159061058957506000198114155b1561059b5761059b8533858403610d97565b60019150505b9392505050565b601290565b60006105b7610fed565b905090565b6105c4610dff565b6105cc61108a565b6104f38161109f565b7f000000000000000000000000000000000000000000000000000000000000000090565b60075490565b6000606061061586516106106110fd565b610d62565b61062a898989898989896111216111e861124e565b97509795505050505050565b3360009081526001602090815260408083206001600160a01b03861684529091528120548083106106725761066d33856000610d97565b610686565b61068633856106818487610d81565b610d97565b5060019392505050565b60006105b761069d6104f6565b6106b56106a86109bc565b6106b06110fd565b61136f565b90611393565b6001600160a01b0381166000908152602081905260409020545b919050565b606080886107046106e9610833565b6001600160a01b0316336001600160a01b03161460cd610f10565b61071961070f6105d5565b82146101f4610f10565b60006107236113e4565b905061072f8882611660565b60008060006107438e8e8e8e8e8e8e611121565b9250925092506107538d846116c1565b61075d82856111e8565b61076781856111e8565b909550935050505b5097509795505050505050565b6001600160a01b031660009081526005602052604090205490565b60007f0000000000000000000000000000000000000000000000000000000000000000826040516020016107cc9291906144c3565b604051602081830303815290604052805190602001209050919050565b600060606107fa86516106106110fd565b61062a898989898989896117546117d061124e565b7f000000000000000000000000000000000000000000000000000000000000000090565b7f000000000000000000000000000000000000000000000000000000000000000090565b60048054604080516020601f60026000196101006001881615020190951694909404938401819004810282018101909252828152606093909290918301828280156104c05780601f10610495576101008083540402835291602001916104c0565b60085490565b6000806108ce8560200151611831565b905060006108df8660400151611831565b90506000865160018111156108f057fe5b1415610956576109038660600151611b46565b60608701526109128583611b6a565b945061091e8482611b6a565b935061092e866060015183611b6a565b60608701526000610940878787611b76565b905061094c8183611bb1565b93505050506105a1565b6109608583611b6a565b945061096c8482611b6a565b935061097c866060015182611b6a565b6060870152600061098e878787611bbd565b905061099a8184611bf0565b905061094c81611bfc565b60006104d8338484610f1e565b60006105b7611c13565b6000806109c7610833565b6001600160a01b031663f94d46686109dd6105d5565b6040518263ffffffff1660e01b81526004016109f99190614575565b60006040518083038186803b158015610a1157600080fd5b505afa158015610a25573d6000803e3d6000fd5b505050506040513d6000823e601f3d908101601f19168201604052610a4d9190810190614025565b50915050610a6281610a5d6113e4565b611660565b6000610a6c611c8d565b9050610a788183611ee9565b9250505090565b610a8d8442111560d1610f10565b6001600160a01b0387166000908152600560209081526040808320549051909291610ae4917f0000000000000000000000000000000000000000000000000000000000000000918c918c918c9188918d910161459d565b6040516020818303038152906040528051906020012090506000610b0782611f5b565b9050600060018288888860405160008152602001604052604051610b2e94939291906145fd565b6020604051602081039080840390855afa158015610b50573d6000803e3d6000fd5b5050604051601f1901519150610b9290506001600160a01b03821615801590610b8a57508b6001600160a01b0316826001600160a01b0316145b6101f8610f10565b6001600160a01b038b166000908152600560205260409020600185019055610bbb8b8b8b610d97565b5050505050505050505050565b60608088610bd76106e9610833565b610be261070f6105d5565b6000610bec6113e4565b9050610bf66104f6565b610c9a57600080610c098d8d8d8a611f77565b91509150610c1e620f424083101560cc610f10565b610c2c6000620f4240612012565b610c3b8b620f42408403612012565b610c4581846117d0565b80610c4e6110fd565b6001600160401b0381118015610c6357600080fd5b50604051908082528060200260200182016040528015610c8d578160200160208202803683370190505b509550955050505061076f565b610ca48882611660565b6000806000610cb88e8e8e8e8e8e8e611754565b925092509250610cc88c84612012565b610cd282856117d0565b610cdc81856111e8565b909550935061076f915050565b3360008181526001602090815260408083206001600160a01b038716845290915281205490916104d89185906106819086610d6f565b6001600160a01b03918216600090815260016020908152604080832093909416825291909152205490565b60606105b7611c8d565b80610d5e816120a8565b5050565b610d5e8183146067610f10565b60008282016105a18482101583610f10565b6000610d91838311156001610f10565b50900390565b6001600160a01b0380841660008181526001602090815260408083209487168084529490915290819020849055517f8c5be1e5ebec7d5bd14f71427d1e84f3dd0314c0f7b2291e5b200ac8c7c3b92590610df2908590614575565b60405180910390a3505050565b6000610e166000356001600160e01b031916610797565b90506104f3610e258233612121565b610191610f10565b8015610e4d57610e48610e3e610ec8565b4210610193610f10565b610e62565b610e62610e58610eec565b42106101a9610f10565b6006805460ff19168215151790556040517f9e3a5e37224532dea67b89face185703738a228a6e8a23dee546960180d3be6490610ea0908390614552565b60405180910390a150565b6000610eb5610eec565b4211806105b757505060065460ff161590565b7f000000000000000000000000000000000000000000000000000000000000000090565b7f000000000000000000000000000000000000000000000000000000000000000090565b81610d5e57610d5e81612211565b6001600160a01b038316600090815260208190526040902054610f4682821015610196610f10565b610f5d6001600160a01b0384161515610199610f10565b6001600160a01b03808516600090815260208190526040808220858503905591851681522054610f8d9083610d6f565b6001600160a01b0380851660008181526020819052604090819020939093559151908616907fddf252ad1be2c89b69c2b068fc378daa952ba7f163c4a11628f55a4df523b3ef90610fdf908690614575565b60405180910390a350505050565b60007f00000000000000000000000000000000000000000000000000000000000000007f00000000000000000000000000000000000000000000000000000000000000007f000000000000000000000000000000000000000000000000000000000000000061105a612264565b3060405160200161106f9594939291906145d1565b60405160208183030381529060405280519060200120905090565b61109d611095610eab565b610192610f10565b565b6110b264e8d4a5100082101560cb610f10565b6110c867016345785d8a000082111560ca610f10565b60078190556040517fa9ba3ffe0b6c366b81232caab38605a0699ad5398d6cce76f91ee809e322dafc90610ea0908390614575565b7f000000000000000000000000000000000000000000000000000000000000000090565b60006060806000611130611c8d565b905061113a610eab565b1561117157600061114b828a611ee9565b905061115c8983600854848b612268565b925061116b8984610d81612378565b506111bc565b6111796110fd565b6001600160401b038111801561118e57600080fd5b506040519080825280602002602001820160405280156111b8578160200160208202803683370190505b5091505b6111c78882876123e3565b90945092506111d7888483612450565b600855509750975097945050505050565b60005b6111f36110fd565b8110156112495761122a83828151811061120957fe5b602002602001015183838151811061121d57fe5b6020026020010151612469565b83828151811061123657fe5b60209081029190910101526001016111eb565b505050565b33301461130c576000306001600160a01b03166000366040516112729291906144db565b6000604051808303816000865af19150503d80600081146112af576040519150601f19603f3d011682016040523d82523d6000602084013e6112b4565b606091505b5050905080600081146112c357fe5b60046000803e6000516001600160e01b0319166343adbafb60e01b81146112ee573d6000803e3d6000fd5b506020600460003e604060205260243d03602460403e601c3d016000f35b60006113166113e4565b90506113228782611660565b6000806113388c8c8c8c8c8c8c8c63ffffffff16565b509150915061134b81848663ffffffff16565b8051601f1982018390526343adbafb603f1983015260200260231982016044820181fd5b60008282026105a184158061138c57508385838161138957fe5b04145b6003610f10565b60006113a28215156004610f10565b826113af575060006104dc565b670de0b6b3a7640000838102906113d2908583816113c957fe5b04146005610f10565b8281816113db57fe5b049150506104dc565b606060006113f06110fd565b90506000816001600160401b038111801561140a57600080fd5b50604051908082528060200260200182016040528015611434578160200160208202803683370190505b509050811561147c577f00000000000000000000000000000000000000000000000000000000000000008160008151811061146b57fe5b602002602001018181525050611485565b91506104c89050565b600182111561147c577f0000000000000000000000000000000000000000000000000000000000000000816001815181106114bc57fe5b602002602001018181525050600282111561147c577f0000000000000000000000000000000000000000000000000000000000000000816002815181106114ff57fe5b602002602001018181525050600382111561147c577f00000000000000000000000000000000000000000000000000000000000000008160038151811061154257fe5b602002602001018181525050600482111561147c577f00000000000000000000000000000000000000000000000000000000000000008160048151811061158557fe5b602002602001018181525050600582111561147c577f0000000000000000000000000000000000000000000000000000000000000000816005815181106115c857fe5b602002602001018181525050600682111561147c577f00000000000000000000000000000000000000000000000000000000000000008160068151811061160b57fe5b602002602001018181525050600782111561147c577f00000000000000000000000000000000000000000000000000000000000000008160078151811061164e57fe5b60200260200101818152505091505090565b60005b61166b6110fd565b811015611249576116a283828151811061168157fe5b602002602001015183838151811061169557fe5b602002602001015161136f565b8382815181106116ae57fe5b6020908102919091010152600101611663565b6001600160a01b0382166000908152602081905260409020546116e982821015610196610f10565b6001600160a01b038316600090815260208190526040902082820390556002546117139083610d81565b6002556040516000906001600160a01b038516907fddf252ad1be2c89b69c2b068fc378daa952ba7f163c4a11628f55a4df523b3ef90610df2908690614575565b600060608061176161108a565b600061176b611c8d565b90506000611779828a611ee9565b9050600061178c8a84600854858c612268565b905061179b8a82610d81612378565b6000806117a98c868b612489565b915091506117b88c82876124e3565b600855909e909d50909b509950505050505050505050565b60005b6117db6110fd565b811015611249576118128382815181106117f157fe5b602002602001015183838151811061180557fe5b60200260200101516124f2565b83828151811061181e57fe5b60209081029190910101526001016117d3565b60007f00000000000000000000000000000000000000000000000000000000000000006001600160a01b0316826001600160a01b0316141561189457507f00000000000000000000000000000000000000000000000000000000000000006106d5565b7f00000000000000000000000000000000000000000000000000000000000000006001600160a01b0316826001600160a01b031614156118f557507f00000000000000000000000000000000000000000000000000000000000000006106d5565b7f00000000000000000000000000000000000000000000000000000000000000006001600160a01b0316826001600160a01b0316141561195657507f00000000000000000000000000000000000000000000000000000000000000006106d5565b7f00000000000000000000000000000000000000000000000000000000000000006001600160a01b0316826001600160a01b031614156119b757507f00000000000000000000000000000000000000000000000000000000000000006106d5565b7f00000000000000000000000000000000000000000000000000000000000000006001600160a01b0316826001600160a01b03161415611a1857507f00000000000000000000000000000000000000000000000000000000000000006106d5565b7f00000000000000000000000000000000000000000000000000000000000000006001600160a01b0316826001600160a01b03161415611a7957507f00000000000000000000000000000000000000000000000000000000000000006106d5565b7f00000000000000000000000000000000000000000000000000000000000000006001600160a01b0316826001600160a01b03161415611ada57507f00000000000000000000000000000000000000000000000000000000000000006106d5565b7f00000000000000000000000000000000000000000000000000000000000000006001600160a01b0316826001600160a01b03161415611b3b57507f00000000000000000000000000000000000000000000000000000000000000006106d5565b6106d5610135612211565b600080611b5e6007548461252590919063ffffffff16565b90506105a18382610d81565b60006105a1838361136f565b6000611b8061108a565b611ba983611b918660200151612569565b84611b9f8860400151612569565b8860600151612873565b949350505050565b60006105a18383612469565b6000611bc761108a565b611ba983611bd88660200151612569565b84611be68860400151612569565b88606001516128ee565b60006105a183836124f2565b60006104dc611c0c600754612964565b839061298a565b6000611c1d610833565b6001600160a01b031663aaabadc56040518163ffffffff1660e01b815260040160206040518083038186803b158015611c5557600080fd5b505afa158015611c69573d6000803e3d6000fd5b505050506040513d601f19601f820116820180604052508101906105b7919061424c565b60606000611c996110fd565b90506000816001600160401b0381118015611cb357600080fd5b50604051908082528060200260200182016040528015611cdd578160200160208202803683370190505b509050811561147c577f000000000000000000000000000000000000000000000000000000000000000081600081518110611d1457fe5b602002602001018181525050600182111561147c577f000000000000000000000000000000000000000000000000000000000000000081600181518110611d5757fe5b602002602001018181525050600282111561147c577f000000000000000000000000000000000000000000000000000000000000000081600281518110611d9a57fe5b602002602001018181525050600382111561147c577f000000000000000000000000000000000000000000000000000000000000000081600381518110611ddd57fe5b602002602001018181525050600482111561147c577f000000000000000000000000000000000000000000000000000000000000000081600481518110611e2057fe5b602002602001018181525050600582111561147c577f000000000000000000000000000000000000000000000000000000000000000081600581518110611e6357fe5b602002602001018181525050600682111561147c577f000000000000000000000000000000000000000000000000000000000000000081600681518110611ea657fe5b602002602001018181525050600782111561147c577f00000000000000000000000000000000000000000000000000000000000000008160078151811061164e57fe5b670de0b6b3a764000060005b8351811015611f4b57611f41611f3a858381518110611f1057fe5b6020026020010151858481518110611f2457fe5b60200260200101516129cc90919063ffffffff16565b8390612a1b565b9150600101611ef5565b506104dc60008211610137610f10565b6000611f65610fed565b826040516020016107cc9291906144eb565b60006060611f8361108a565b6000611f8e84612a47565b9050611fa96000826002811115611fa157fe5b1460ce610f10565b6000611fb485612a5d565b9050611fc8611fc16110fd565b8251610d62565b611fd481610a5d6113e4565b6000611fde611c8d565b90506000611fec8284611ee9565b90506000611ffc826106b06110fd565b6008929092555099919850909650505050505050565b6001600160a01b0382166000908152602081905260409020546120359082610d6f565b6001600160a01b03831660009081526020819052604090205560025461205b9082610d6f565b6002556040516001600160a01b038316906000907fddf252ad1be2c89b69c2b068fc378daa952ba7f163c4a11628f55a4df523b3ef9061209c908590614575565b60405180910390a35050565b6002815110156120b7576104f3565b6000816000815181106120c657fe5b602002602001015190506000600190505b82518110156112495760008382815181106120ee57fe5b60200260200101519050612117816001600160a01b0316846001600160a01b0316106065610f10565b91506001016120d7565b600073ba1ba1ba1ba1ba1ba1ba1ba1ba1ba1ba1ba1ba1b61214061080f565b6001600160a01b03161415801561215b575061215b83612a73565b156121835761216861080f565b6001600160a01b0316336001600160a01b03161490506104dc565b61218b611c13565b6001600160a01b0316639be2a8848484306040518463ffffffff1660e01b81526004016121ba9392919061457e565b60206040518083038186803b1580156121d257600080fd5b505afa1580156121e6573d6000803e3d6000fd5b505050506040513d601f19601f8201168201806040525081019061220a919061410c565b90506104dc565b62461bcd60e51b6000908152602060045260076024526642414c23000030600a808404818106603090810160081b95839006959095019082900491820690940160101b939093010160c81b604452606490fd5b4690565b606060006122746110fd565b6001600160401b038111801561228957600080fd5b506040519080825280602002602001820160405280156122b3578160200160208202803683370190505b509050826122c257905061236f565b612335877f0000000000000000000000000000000000000000000000000000000000000000815181106122f157fe5b6020026020010151877f00000000000000000000000000000000000000000000000000000000000000008151811061232557fe5b6020026020010151878787612a8d565b817f00000000000000000000000000000000000000000000000000000000000000008151811061236157fe5b602090810291909101015290505b95945050505050565b60005b6123836110fd565b8110156123dd576123be84828151811061239957fe5b60200260200101518483815181106123ad57fe5b60200260200101518463ffffffff16565b8482815181106123ca57fe5b602090810291909101015260010161237b565b50505050565b6000606060006123f284612a47565b9050600081600281111561240257fe5b141561241d57612413868686612b05565b9250925050612448565b600181600281111561242b57fe5b141561243b576124138685612be2565b612413868686612c14565b505b935093915050565b600061245f8484610d81612378565b611ba98285611ee9565b60006124788215156004610f10565b81838161248157fe5b049392505050565b60006060600061249884612a47565b905060018160028111156124a857fe5b14156124b957612413868686612c7e565b60028160028111156124c757fe5b14156124d857612413868686612cd8565b612446610136612211565b600061245f8484610d6f612378565b60006125018215156004610f10565b8261250e575060006104dc565b81600184038161251a57fe5b0460010190506104dc565b600082820261253f84158061138c57508385838161138957fe5b8061254e5760009150506104dc565b670de0b6b3a764000060001982015b046001019150506104dc565b60007f00000000000000000000000000000000000000000000000000000000000000006001600160a01b0316826001600160a01b031614156125cc57507f00000000000000000000000000000000000000000000000000000000000000006106d5565b7f00000000000000000000000000000000000000000000000000000000000000006001600160a01b0316826001600160a01b0316141561262d57507f00000000000000000000000000000000000000000000000000000000000000006106d5565b7f00000000000000000000000000000000000000000000000000000000000000006001600160a01b0316826001600160a01b0316141561268e57507f00000000000000000000000000000000000000000000000000000000000000006106d5565b7f00000000000000000000000000000000000000000000000000000000000000006001600160a01b0316826001600160a01b031614156126ef57507f00000000000000000000000000000000000000000000000000000000000000006106d5565b7f00000000000000000000000000000000000000000000000000000000000000006001600160a01b0316826001600160a01b0316141561275057507f00000000000000000000000000000000000000000000000000000000000000006106d5565b7f00000000000000000000000000000000000000000000000000000000000000006001600160a01b0316826001600160a01b031614156127b157507f00000000000000000000000000000000000000000000000000000000000000006106d5565b7f00000000000000000000000000000000000000000000000000000000000000006001600160a01b0316826001600160a01b0316141561281257507f00000000000000000000000000000000000000000000000000000000000000006106d5565b7f00000000000000000000000000000000000000000000000000000000000000006001600160a01b0316826001600160a01b03161415611b3b57507f00000000000000000000000000000000000000000000000000000000000000006106d5565b600061289561288a87670429d069189e0000612a1b565b831115610130610f10565b60006128a18784610d6f565b905060006128af888361298a565b905060006128bd8887611393565b905060006128cb8383612d7f565b90506128e06128d982612964565b8990612a1b565b9a9950505050505050505050565b600061291061290585670429d069189e0000612a1b565b831115610131610f10565b600061292661291f8685610d81565b869061298a565b90506000612934858861298a565b905060006129428383612d7f565b9050600061295882670de0b6b3a7640000610d81565b90506128e08a82612525565b6000670de0b6b3a7640000821061297c5760006104dc565b50670de0b6b3a76400000390565b60006129998215156004610f10565b826129a6575060006104dc565b670de0b6b3a7640000838102906129c0908583816113c957fe5b82600182038161255d57fe5b6000806129d98484612dab565b905060006129f36129ec83612710612525565b6001610d6f565b905080821015612a08576000925050506104dc565b612a128282610d81565b925050506104dc565b6000828202612a3584158061138c57508385838161138957fe5b670de0b6b3a764000090049392505050565b6000818060200190518101906104dc9190614268565b6060818060200190518101906105a1919061432d565b6000612a85631c74c91760e11b610797565b909114919050565b6000838311612a9e5750600061236f565b6000612aaa858561298a565b90506000612ac0670de0b6b3a764000088611393565b9050612ad4826709b6e64a8ec60000612eb6565b91506000612ae28383612d7f565b90506000612af9612af283612964565b8b90612a1b565b90506128e08187612a1b565b60006060612b1161108a565b600080612b1d85612ecd565b91509150612b35612b2c6110fd565b82106064610f10565b6000612b3f6110fd565b6001600160401b0381118015612b5457600080fd5b50604051908082528060200260200182016040528015612b7e578160200160208202803683370190505b509050612bbd888381518110612b9057fe5b6020026020010151888481518110612ba457fe5b602002602001015185612bb56104f6565b600754612eef565b818381518110612bc957fe5b6020908102919091010152919791965090945050505050565b600060606000612bf184612fac565b90506000612c078683612c026104f6565b612fc2565b9196919550909350505050565b60006060612c2061108a565b600080612c2c85613073565b91509150612c3d82516106106110fd565b612c4982610a5d6113e4565b6000612c61888885612c596104f6565b60075461308b565b9050612c718282111560cf610f10565b9791965090945050505050565b60006060600080612c8e85613073565b91509150612ca4612c9d6110fd565b8351610d62565b612cb082610a5d6113e4565b6000612cc8888885612cc06104f6565b6007546132ae565b9050612c718282101560d0610f10565b60006060600080612ce885612ecd565b91509150612cf7612b2c6110fd565b6000612d016110fd565b6001600160401b0381118015612d1657600080fd5b50604051908082528060200260200182016040528015612d40578160200160208202803683370190505b509050612bbd888381518110612d5257fe5b6020026020010151888481518110612d6657fe5b602002602001015185612d776104f6565b6007546134bd565b600080612d8c8484612dab565b90506000612d9f6129ec83612710612525565b905061236f8282610d6f565b600081612dc15750670de0b6b3a76400006104dc565b82612dce575060006104dc565b612ddf600160ff1b84106006610f10565b82612e05770bce5086492111aea88f4bb1ca6bcf584181ea8059f7653284106007610f10565b826000670c7d713b49da000083138015612e265750670f43fc2c04ee000083125b15612e5d576000612e368461355f565b9050670de0b6b3a764000080820784020583670de0b6b3a764000083050201915050612e6b565b81612e678461367d565b0290505b670de0b6b3a76400009005612ea3680238fd42c5cf03ffff198212801590612e9c575068070c1cc73b00c800008213155b6008610f10565b612eac81613a2a565b9695505050505050565b600081831015612ec657816105a1565b5090919050565b60008082806020019051810190612ee491906142f7565b909590945092505050565b600080612f0684612f008188610d81565b9061298a565b9050612f1f6709b6e64a8ec60000821015610132610f10565b6000612f3d612f36670de0b6b3a764000089611393565b8390612d7f565b90506000612f54612f4d83612964565b8a90612a1b565b90506000612f6189612964565b90506000612f6f8383612525565b90506000612f7d8483610d81565b9050612f9c612f95612f8e8a612964565b8490612a1b565b8290610d6f565b9c9b505050505050505050505050565b6000818060200190518101906105a191906142ca565b60606000612fd08484611393565b9050600085516001600160401b0381118015612feb57600080fd5b50604051908082528060200260200182016040528015613015578160200160208202803683370190505b50905060005b86518110156130695761304a8388838151811061303457fe5b6020026020010151612a1b90919063ffffffff16565b82828151811061305657fe5b602090810291909101015260010161301b565b5095945050505050565b6060600082806020019051810190612ee49190614284565b60008084516001600160401b03811180156130a557600080fd5b506040519080825280602002602001820160405280156130cf578160200160208202803683370190505b5090506000805b88518110156131945761312f8982815181106130ee57fe5b6020026020010151612f0089848151811061310557fe5b60200260200101518c858151811061311957fe5b6020026020010151610d8190919063ffffffff16565b83828151811061313b57fe5b60200260200101818152505061318a61318389838151811061315957fe5b602002602001015185848151811061316d57fe5b602002602001015161252590919063ffffffff16565b8390610d6f565b91506001016130d6565b50670de0b6b3a764000060005b895181101561328d5760008482815181106131b857fe5b602002602001015184111561320f5760006131e16131d586612964565b8d858151811061303457fe5b905060006131f5828c868151811061311957fe5b9050613206613183611c0c8b612964565b92505050613226565b88828151811061321b57fe5b602002602001015190505b600061324f8c848151811061323757fe5b60200260200101516106b5848f878151811061311957fe5b905061328161327a8c858151811061326357fe5b6020026020010151836129cc90919063ffffffff16565b8590612a1b565b935050506001016131a1565b506132a161329a82612964565b8790612525565b9998505050505050505050565b60008084516001600160401b03811180156132c857600080fd5b506040519080825280602002602001820160405280156132f2578160200160208202803683370190505b5090506000805b885181101561339a5761335289828151811061331157fe5b60200260200101516106b589848151811061332857fe5b60200260200101518c858151811061333c57fe5b6020026020010151610d6f90919063ffffffff16565b83828151811061335e57fe5b60200260200101818152505061339061318389838151811061337c57fe5b602002602001015185848151811061303457fe5b91506001016132f9565b50670de0b6b3a764000060005b895181101561347b576000838583815181106133bf57fe5b6020026020010151111561341b5760006133e46131d586670de0b6b3a7640000610d81565b905060006133f8828c868151811061311957fe5b9050613412613183611f3a670de0b6b3a76400008c610d81565b92505050613432565b88828151811061342757fe5b602002602001015190505b600061345b8c848151811061344357fe5b60200260200101516106b5848f878151811061333c57fe5b905061346f61327a8c858151811061326357fe5b935050506001016133a7565b50670de0b6b3a764000081106134b1576134a76134a082670de0b6b3a7640000610d81565b8790612a1b565b935050505061236f565b6000935050505061236f565b6000806134ce84612f008188610d6f565b90506134e76729a2241af62c0000821115610133610f10565b60006134fe612f36670de0b6b3a76400008961298a565b9050600061351e61351783670de0b6b3a7640000610d81565b8a90612525565b9050600061352b89612964565b905060006135398383612525565b905060006135478483610d81565b9050612f9c612f956135588a612964565b849061298a565b670de0b6b3a7640000026000806a0c097ce7bc90715b34b9f160241b808401906ec097ce7bc90715b34b9f0fffffffff198501028161359a57fe5b05905060006a0c097ce7bc90715b34b9f160241b82800205905081806a0c097ce7bc90715b34b9f160241b81840205915060038205016a0c097ce7bc90715b34b9f160241b82840205915060058205016a0c097ce7bc90715b34b9f160241b82840205915060078205016a0c097ce7bc90715b34b9f160241b82840205915060098205016a0c097ce7bc90715b34b9f160241b828402059150600b8205016a0c097ce7bc90715b34b9f160241b828402059150600d8205016a0c097ce7bc90715b34b9f160241b828402059150600f826002919005919091010295945050505050565b600061368d600083136064610f10565b670de0b6b3a76400008212156136c7576136bd826a0c097ce7bc90715b34b9f160241b816136b757fe5b0561367d565b60000390506106d5565b60007e1600ef3172e58d2e933ec884fde10064c63b5372d805e203c0000000000000831261371857770195e54c5dd42177f53a27172fa9ec630262827000000000830592506806f05b59d3b2000000015b73011798004d755d3c8bc8e03204cf44619e0000008312613750576b1425982cf597cd205cef7380830592506803782dace9d9000000015b606492830292026e01855144814a7ff805980ff00840008312613798576e01855144814a7ff805980ff008400068056bc75e2d63100000840205925068ad78ebc5ac62000000015b6b02df0ab5a80a22c61ab5a70083126137d3576b02df0ab5a80a22c61ab5a70068056bc75e2d6310000084020592506856bc75e2d631000000015b693f1fce3da636ea5cf850831261380a57693f1fce3da636ea5cf85068056bc75e2d631000008402059250682b5e3af16b18800000015b690127fa27722cc06cc5e2831261384157690127fa27722cc06cc5e268056bc75e2d6310000084020592506815af1d78b58c400000015b68280e60114edb805d0383126138765768280e60114edb805d0368056bc75e2d631000008402059250680ad78ebc5ac6200000015b680ebc5fb4174612111083126138a157680ebc5fb4174612111068056bc75e2d631000009384020592015b6808f00f760a4b2db55d83126138d6576808f00f760a4b2db55d68056bc75e2d6310000084020592506802b5e3af16b1880000015b6806f5f1775788937937831261390b576806f5f177578893793768056bc75e2d63100000840205925068015af1d78b58c40000015b6806248f33704b286603831261393f576806248f33704b28660368056bc75e2d63100000840205925067ad78ebc5ac620000015b6805c548670b9510e7ac8312613973576805c548670b9510e7ac68056bc75e2d6310000084020592506756bc75e2d6310000015b600068056bc75e2d63100000840168056bc75e2d63100000808603028161399657fe5b059050600068056bc75e2d63100000828002059050818068056bc75e2d63100000818402059150600382050168056bc75e2d63100000828402059150600582050168056bc75e2d63100000828402059150600782050168056bc75e2d63100000828402059150600982050168056bc75e2d63100000828402059150600b820501600202606485820105979650505050505050565b6000613a59680238fd42c5cf03ffff198312158015613a52575068070c1cc73b00c800008313155b6009610f10565b6000821215613a8c57613a6e82600003613a2a565b6a0c097ce7bc90715b34b9f160241b81613a8457fe5b0590506106d5565b60006806f05b59d3b20000008312613acc57506806f05b59d3b1ffffff1990910190770195e54c5dd42177f53a27172fa9ec630262827000000000613b02565b6803782dace9d90000008312613afe57506803782dace9d8ffffff19909101906b1425982cf597cd205cef7380613b02565b5060015b6064929092029168056bc75e2d6310000068ad78ebc5ac620000008412613b525768ad78ebc5ac61ffffff199093019268056bc75e2d631000006e01855144814a7ff805980ff008400082020590505b6856bc75e2d6310000008412613b8e576856bc75e2d630ffffff199093019268056bc75e2d631000006b02df0ab5a80a22c61ab5a70082020590505b682b5e3af16b188000008412613bc857682b5e3af16b187fffff199093019268056bc75e2d63100000693f1fce3da636ea5cf85082020590505b6815af1d78b58c4000008412613c02576815af1d78b58c3fffff199093019268056bc75e2d63100000690127fa27722cc06cc5e282020590505b680ad78ebc5ac62000008412613c3b57680ad78ebc5ac61fffff199093019268056bc75e2d6310000068280e60114edb805d0382020590505b68056bc75e2d631000008412613c745768056bc75e2d630fffff199093019268056bc75e2d63100000680ebc5fb4174612111082020590505b6802b5e3af16b18800008412613cad576802b5e3af16b187ffff199093019268056bc75e2d631000006808f00f760a4b2db55d82020590505b68015af1d78b58c400008412613ce65768015af1d78b58c3ffff199093019268056bc75e2d631000006806f5f177578893793782020590505b68056bc75e2d631000008481019085906002908280020505918201919050600368056bc75e2d631000008783020505918201919050600468056bc75e2d631000008783020505918201919050600568056bc75e2d631000008783020505918201919050600668056bc75e2d631000008783020505918201919050600768056bc75e2d631000008783020505918201919050600868056bc75e2d631000008783020505918201919050600968056bc75e2d631000008783020505918201919050600a68056bc75e2d631000008783020505918201919050600b68056bc75e2d631000008783020505918201919050600c68056bc75e2d631000008783020505918201919050606468056bc75e2d63100000848402058502059695505050505050565b80356106d5816146d5565b600082601f830112613e22578081fd5b81516020613e37613e32836146b8565b614695565b8281528181019085830183850287018401881015613e53578586fd5b855b85811015613e7157815184529284019290840190600101613e55565b5090979650505050505050565b600082601f830112613e8e578081fd5b81356001600160401b03811115613ea157fe5b613eb4601f8201601f1916602001614695565b818152846020838601011115613ec8578283fd5b816020850160208301379081016020019190915292915050565b8035600281106106d557600080fd5b600060208284031215613f02578081fd5b81356105a1816146d5565b60008060408385031215613f1f578081fd5b8235613f2a816146d5565b91506020830135613f3a816146d5565b809150509250929050565b600080600060608486031215613f59578081fd5b8335613f64816146d5565b92506020840135613f74816146d5565b929592945050506040919091013590565b600080600080600080600060e0888a031215613f9f578485fd5b8735613faa816146d5565b96506020880135613fba816146d5565b95506040880135945060608801359350608088013560ff81168114613fdd578384fd5b9699959850939692959460a0840135945060c09093013592915050565b6000806040838503121561400c578182fd5b8235614017816146d5565b946020939093013593505050565b600080600060608486031215614039578081fd5b83516001600160401b038082111561404f578283fd5b818601915086601f830112614062578283fd5b81516020614072613e32836146b8565b82815281810190858301838502870184018c101561408e578788fd5b8796505b848710156140b95780516140a5816146d5565b835260019690960195918301918301614092565b50918901519197509093505050808211156140d2578283fd5b506140df86828701613e12565b925050604084015190509250925092565b600060208284031215614101578081fd5b81356105a1816146ea565b60006020828403121561411d578081fd5b81516105a1816146ea565b600080600080600080600060e0888a031215614142578081fd5b87359650602080890135614155816146d5565b96506040890135614165816146d5565b955060608901356001600160401b0380821115614180578384fd5b818b0191508b601f830112614193578384fd5b81356141a1613e32826146b8565b8082825285820191508585018f8788860288010111156141bf578788fd5b8795505b838610156141e15780358352600195909501949186019186016141c3565b509850505060808b0135955060a08b0135945060c08b0135925080831115614207578384fd5b50506142158a828b01613e7e565b91505092959891949750929550565b600060208284031215614235578081fd5b81356001600160e01b0319811681146105a1578182fd5b60006020828403121561425d578081fd5b81516105a1816146d5565b600060208284031215614279578081fd5b81516105a1816146f8565b600080600060608486031215614298578081fd5b83516142a3816146f8565b60208501519093506001600160401b038111156142be578182fd5b6140df86828701613e12565b600080604083850312156142dc578182fd5b82516142e7816146f8565b6020939093015192949293505050565b60008060006060848603121561430b578081fd5b8351614316816146f8565b602085015160409095015190969495509392505050565b6000806040838503121561433f578182fd5b825161434a816146f8565b60208401519092506001600160401b03811115614365578182fd5b61437185828601613e12565b9150509250929050565b60008060006060848603121561438f578081fd5b83356001600160401b03808211156143a5578283fd5b81860191506101208083890312156143bb578384fd5b6143c481614695565b90506143cf83613ee2565b81526143dd60208401613e07565b60208201526143ee60408401613e07565b6040820152606083013560608201526080830135608082015260a083013560a082015261441d60c08401613e07565b60c082015261442e60e08401613e07565b60e08201526101008084013583811115614446578586fd5b6144528a828701613e7e565b9183019190915250976020870135975060409096013595945050505050565b600060208284031215614482578081fd5b5035919050565b6000815180845260208085019450808401835b838110156144b85781518752958201959082019060010161449c565b509495945050505050565b9182526001600160e01b031916602082015260240190565b6000828483379101908152919050565b61190160f01b81526002810192909252602282015260420190565b6001600160a01b0391909116815260200190565b6000602082526105a16020830184614489565b6000604082526145406040830185614489565b828103602084015261236f8185614489565b901515815260200190565b92151583526020830191909152604082015260600190565b90815260200190565b9283526001600160a01b03918216602084015216604082015260600190565b9586526001600160a01b0394851660208701529290931660408501526060840152608083019190915260a082015260c00190565b9485526020850193909352604084019190915260608301526001600160a01b0316608082015260a00190565b93845260ff9290921660208401526040830152606082015260800190565b6000602080835283518082850152825b818110156146475785810183015185820160400152820161462b565b818111156146585783604083870101525b50601f01601f1916929092016040019392505050565b600083825260406020830152611ba96040830184614489565b60ff91909116815260200190565b6040518181016001600160401b03811182821017156146b057fe5b604052919050565b60006001600160401b038211156146cb57fe5b5060209081020190565b6001600160a01b03811681146104f357600080fd5b80151581146104f357600080fd5b600381106104f357600080fdfea26469706673582212203adee96a347055ab1f51d62fae74058d2b4aedc56dbb80f0fb536ad5cdc0982a64736f6c63430007060033a2646970667358221220c3af0fe54322fbe90d256b24c8b87c67dd09b5fba6fb90b1050b06558fbf8e7b64736f6c63430007060033",
			"opcodes": "PUSH1 0xC0 PUSH1 0x40 MSTORE CALLVALUE DUP1 ISZERO PUSH2 0x10 JUMPI PUSH1 0x0 DUP1 REVERT JUMPDEST POP PUSH1 0x40 MLOAD PUSH2 0x5FDC CODESIZE SUB DUP1 PUSH2 0x5FDC DUP4 CODECOPY DUP2 ADD PUSH1 0x40 DUP2 SWAP1 MSTORE PUSH2 0x2F SWAP2 PUSH2 0x4D JUMP JUMPDEST PUSH1 0x60 SHL PUSH1 0x1 PUSH1 0x1 PUSH1 0x60 SHL SUB NOT AND PUSH1 0x80 MSTORE PUSH3 0x76A700 TIMESTAMP ADD PUSH1 0xA0 MSTORE PUSH2 0x7B JUMP JUMPDEST PUSH1 0x0 PUSH1 0x20 DUP3 DUP5 SUB SLT ISZERO PUSH2 0x5E JUMPI DUP1 DUP2 REVERT JUMPDEST DUP2 MLOAD PUSH1 0x1 PUSH1 0x1 PUSH1 0xA0 SHL SUB DUP2 AND DUP2 EQ PUSH2 0x74 JUMPI DUP2 DUP3 REVERT JUMPDEST SWAP4 SWAP3 POP POP POP JUMP JUMPDEST PUSH1 0x80 MLOAD PUSH1 0x60 SHR PUSH1 0xA0 MLOAD PUSH2 0x5F37 PUSH2 0xA5 PUSH1 0x0 CODECOPY DUP1 PUSH1 0xD6 MSTORE DUP1 PUSH2 0x100 MSTORE POP DUP1 PUSH2 0x160 MSTORE POP PUSH2 0x5F37 PUSH1 0x0 RETURN INVALID PUSH1 0x80 PUSH1 0x40 MSTORE CALLVALUE DUP1 ISZERO PUSH3 0x11 JUMPI PUSH1 0x0 DUP1 REVERT JUMPDEST POP PUSH1 0x4 CALLDATASIZE LT PUSH3 0x52 JUMPI PUSH1 0x0 CALLDATALOAD PUSH1 0xE0 SHR DUP1 PUSH4 0x2DA47C40 EQ PUSH3 0x57 JUMPI DUP1 PUSH4 0x6634B753 EQ PUSH3 0x7A JUMPI DUP1 PUSH4 0x8D928AF8 EQ PUSH3 0xA0 JUMPI DUP1 PUSH4 0xFBCE0393 EQ PUSH3 0xB9 JUMPI JUMPDEST PUSH1 0x0 DUP1 REVERT JUMPDEST PUSH3 0x61 PUSH3 0xD0 JUMP JUMPDEST PUSH1 0x40 MLOAD PUSH3 0x71 SWAP3 SWAP2 SWAP1 PUSH3 0x624 JUMP JUMPDEST PUSH1 0x40 MLOAD DUP1 SWAP2 SUB SWAP1 RETURN JUMPDEST PUSH3 0x91 PUSH3 0x8B CALLDATASIZE PUSH1 0x4 PUSH3 0x3B4 JUMP JUMPDEST PUSH3 0x13C JUMP JUMPDEST PUSH1 0x40 MLOAD PUSH3 0x71 SWAP2 SWAP1 PUSH3 0x555 JUMP JUMPDEST PUSH3 0xAA PUSH3 0x15E JUMP JUMPDEST PUSH1 0x40 MLOAD PUSH3 0x71 SWAP2 SWAP1 PUSH3 0x541 JUMP JUMPDEST PUSH3 0xAA PUSH3 0xCA CALLDATASIZE PUSH1 0x4 PUSH3 0x3DA JUMP JUMPDEST PUSH3 0x182 JUMP JUMPDEST PUSH1 0x0 DUP1 TIMESTAMP PUSH32 0x0 DUP2 LT ISZERO PUSH3 0x12E JUMPI DUP1 PUSH32 0x0 SUB SWAP3 POP PUSH3 0x278D00 SWAP2 POP PUSH3 0x137 JUMP JUMPDEST PUSH1 0x0 SWAP3 POP PUSH1 0x0 SWAP2 POP JUMPDEST POP SWAP1 SWAP2 JUMP JUMPDEST PUSH1 0x1 PUSH1 0x1 PUSH1 0xA0 SHL SUB DUP2 AND PUSH1 0x0 SWAP1 DUP2 MSTORE PUSH1 0x20 DUP2 SWAP1 MSTORE PUSH1 0x40 SWAP1 KECCAK256 SLOAD PUSH1 0xFF AND JUMPDEST SWAP2 SWAP1 POP JUMP JUMPDEST PUSH32 0x0 SWAP1 JUMP JUMPDEST PUSH1 0x0 DUP1 PUSH1 0x0 PUSH3 0x191 PUSH3 0xD0 JUMP JUMPDEST SWAP2 POP SWAP2 POP PUSH1 0x0 PUSH3 0x1A1 PUSH3 0x15E JUMP JUMPDEST DUP11 DUP11 DUP11 DUP11 DUP11 DUP9 DUP9 DUP13 PUSH1 0x40 MLOAD PUSH3 0x1B7 SWAP1 PUSH3 0x24F JUMP JUMPDEST PUSH3 0x1CB SWAP10 SWAP9 SWAP8 SWAP7 SWAP6 SWAP5 SWAP4 SWAP3 SWAP2 SWAP1 PUSH3 0x560 JUMP JUMPDEST PUSH1 0x40 MLOAD DUP1 SWAP2 SUB SWAP1 PUSH1 0x0 CREATE DUP1 ISZERO DUP1 ISZERO PUSH3 0x1E8 JUMPI RETURNDATASIZE PUSH1 0x0 DUP1 RETURNDATACOPY RETURNDATASIZE PUSH1 0x0 REVERT JUMPDEST POP SWAP1 POP PUSH3 0x1F6 DUP2 PUSH3 0x203 JUMP JUMPDEST SWAP10 SWAP9 POP POP POP POP POP POP POP POP POP JUMP JUMPDEST PUSH1 0x1 PUSH1 0x1 PUSH1 0xA0 SHL SUB DUP2 AND PUSH1 0x0 DUP2 DUP2 MSTORE PUSH1 0x20 DUP2 SWAP1 MSTORE PUSH1 0x40 DUP1 DUP3 KECCAK256 DUP1 SLOAD PUSH1 0xFF NOT AND PUSH1 0x1 OR SWAP1 SSTORE MLOAD PUSH32 0x83A48FBCFC991335314E74D0496AAB6A1987E992DDC85DDDBCC4D6DD6EF2E9FC SWAP2 SWAP1 LOG2 POP JUMP JUMPDEST PUSH2 0x5872 DUP1 PUSH3 0x690 DUP4 CODECOPY ADD SWAP1 JUMP JUMPDEST DUP1 CALLDATALOAD PUSH3 0x159 DUP2 PUSH3 0x676 JUMP JUMPDEST PUSH1 0x0 DUP3 PUSH1 0x1F DUP4 ADD SLT PUSH3 0x27B JUMPI DUP1 DUP2 REVERT JUMPDEST DUP2 CALLDATALOAD PUSH1 0x20 PUSH3 0x294 PUSH3 0x28E DUP4 PUSH3 0x657 JUMP JUMPDEST PUSH3 0x632 JUMP JUMPDEST DUP3 DUP2 MSTORE DUP2 DUP2 ADD SWAP1 DUP6 DUP4 ADD DUP4 DUP6 MUL DUP8 ADD DUP5 ADD DUP9 LT ISZERO PUSH3 0x2B1 JUMPI DUP6 DUP7 REVERT JUMPDEST DUP6 JUMPDEST DUP6 DUP2 LT ISZERO PUSH3 0x2DC JUMPI DUP2 CALLDATALOAD PUSH3 0x2C9 DUP2 PUSH3 0x676 JUMP JUMPDEST DUP5 MSTORE SWAP3 DUP5 ADD SWAP3 SWAP1 DUP5 ADD SWAP1 PUSH1 0x1 ADD PUSH3 0x2B3 JUMP JUMPDEST POP SWAP1 SWAP8 SWAP7 POP POP POP POP POP POP POP JUMP JUMPDEST PUSH1 0x0 DUP3 PUSH1 0x1F DUP4 ADD SLT PUSH3 0x2FA JUMPI DUP1 DUP2 REVERT JUMPDEST DUP2 CALLDATALOAD PUSH1 0x20 PUSH3 0x30D PUSH3 0x28E DUP4 PUSH3 0x657 JUMP JUMPDEST DUP3 DUP2 MSTORE DUP2 DUP2 ADD SWAP1 DUP6 DUP4 ADD DUP4 DUP6 MUL DUP8 ADD DUP5 ADD DUP9 LT ISZERO PUSH3 0x32A JUMPI DUP6 DUP7 REVERT JUMPDEST DUP6 JUMPDEST DUP6 DUP2 LT ISZERO PUSH3 0x2DC JUMPI DUP2 CALLDATALOAD DUP5 MSTORE SWAP3 DUP5 ADD SWAP3 SWAP1 DUP5 ADD SWAP1 PUSH1 0x1 ADD PUSH3 0x32C JUMP JUMPDEST PUSH1 0x0 DUP3 PUSH1 0x1F DUP4 ADD SLT PUSH3 0x35B JUMPI DUP1 DUP2 REVERT JUMPDEST DUP2 CALLDATALOAD PUSH8 0xFFFFFFFFFFFFFFFF DUP2 GT ISZERO PUSH3 0x370 JUMPI INVALID JUMPDEST PUSH3 0x385 PUSH1 0x1F DUP3 ADD PUSH1 0x1F NOT AND PUSH1 0x20 ADD PUSH3 0x632 JUMP JUMPDEST DUP2 DUP2 MSTORE DUP5 PUSH1 0x20 DUP4 DUP7 ADD ADD GT ISZERO PUSH3 0x39A JUMPI DUP3 DUP4 REVERT JUMPDEST DUP2 PUSH1 0x20 DUP6 ADD PUSH1 0x20 DUP4 ADD CALLDATACOPY SWAP1 DUP2 ADD PUSH1 0x20 ADD SWAP2 SWAP1 SWAP2 MSTORE SWAP3 SWAP2 POP POP JUMP JUMPDEST PUSH1 0x0 PUSH1 0x20 DUP3 DUP5 SUB SLT ISZERO PUSH3 0x3C6 JUMPI DUP1 DUP2 REVERT JUMPDEST DUP2 CALLDATALOAD PUSH3 0x3D3 DUP2 PUSH3 0x676 JUMP JUMPDEST SWAP4 SWAP3 POP POP POP JUMP JUMPDEST PUSH1 0x0 DUP1 PUSH1 0x0 DUP1 PUSH1 0x0 DUP1 PUSH1 0xC0 DUP8 DUP10 SUB SLT ISZERO PUSH3 0x3F3 JUMPI DUP2 DUP3 REVERT JUMPDEST DUP7 CALLDATALOAD PUSH8 0xFFFFFFFFFFFFFFFF DUP1 DUP3 GT ISZERO PUSH3 0x40B JUMPI DUP4 DUP5 REVERT JUMPDEST PUSH3 0x419 DUP11 DUP4 DUP12 ADD PUSH3 0x34A JUMP JUMPDEST SWAP8 POP PUSH1 0x20 DUP10 ADD CALLDATALOAD SWAP2 POP DUP1 DUP3 GT ISZERO PUSH3 0x42F JUMPI DUP4 DUP5 REVERT JUMPDEST PUSH3 0x43D DUP11 DUP4 DUP12 ADD PUSH3 0x34A JUMP JUMPDEST SWAP7 POP PUSH1 0x40 DUP10 ADD CALLDATALOAD SWAP2 POP DUP1 DUP3 GT ISZERO PUSH3 0x453 JUMPI DUP4 DUP5 REVERT JUMPDEST PUSH3 0x461 DUP11 DUP4 DUP12 ADD PUSH3 0x26A JUMP JUMPDEST SWAP6 POP PUSH1 0x60 DUP10 ADD CALLDATALOAD SWAP2 POP DUP1 DUP3 GT ISZERO PUSH3 0x477 JUMPI DUP4 DUP5 REVERT JUMPDEST POP PUSH3 0x486 DUP10 DUP3 DUP11 ADD PUSH3 0x2E9 JUMP JUMPDEST SWAP4 POP POP PUSH1 0x80 DUP8 ADD CALLDATALOAD SWAP2 POP PUSH3 0x49E PUSH1 0xA0 DUP9 ADD PUSH3 0x25D JUMP JUMPDEST SWAP1 POP SWAP3 SWAP6 POP SWAP3 SWAP6 POP SWAP3 SWAP6 JUMP JUMPDEST PUSH1 0x1 PUSH1 0x1 PUSH1 0xA0 SHL SUB AND SWAP1 MSTORE JUMP JUMPDEST PUSH1 0x0 DUP2 MLOAD DUP1 DUP5 MSTORE PUSH1 0x20 DUP1 DUP6 ADD SWAP5 POP DUP1 DUP5 ADD DUP4 JUMPDEST DUP4 DUP2 LT ISZERO PUSH3 0x4E8 JUMPI DUP2 MLOAD DUP8 MSTORE SWAP6 DUP3 ADD SWAP6 SWAP1 DUP3 ADD SWAP1 PUSH1 0x1 ADD PUSH3 0x4CA JUMP JUMPDEST POP SWAP5 SWAP6 SWAP5 POP POP POP POP POP JUMP JUMPDEST PUSH1 0x0 DUP2 MLOAD DUP1 DUP5 MSTORE DUP2 JUMPDEST DUP2 DUP2 LT ISZERO PUSH3 0x51A JUMPI PUSH1 0x20 DUP2 DUP6 ADD DUP2 ADD MLOAD DUP7 DUP4 ADD DUP3 ADD MSTORE ADD PUSH3 0x4FC JUMP JUMPDEST DUP2 DUP2 GT ISZERO PUSH3 0x52C JUMPI DUP3 PUSH1 0x20 DUP4 DUP8 ADD ADD MSTORE JUMPDEST POP PUSH1 0x1F ADD PUSH1 0x1F NOT AND SWAP3 SWAP1 SWAP3 ADD PUSH1 0x20 ADD SWAP3 SWAP2 POP POP JUMP JUMPDEST PUSH1 0x1 PUSH1 0x1 PUSH1 0xA0 SHL SUB SWAP2 SWAP1 SWAP2 AND DUP2 MSTORE PUSH1 0x20 ADD SWAP1 JUMP JUMPDEST SWAP1 ISZERO ISZERO DUP2 MSTORE PUSH1 0x20 ADD SWAP1 JUMP JUMPDEST PUSH1 0x1 PUSH1 0x1 PUSH1 0xA0 SHL SUB DUP11 DUP2 AND DUP3 MSTORE PUSH2 0x120 PUSH1 0x20 DUP1 DUP5 ADD DUP3 SWAP1 MSTORE PUSH1 0x0 SWAP3 SWAP1 PUSH3 0x58A DUP6 DUP5 ADD DUP15 PUSH3 0x4F3 JUMP JUMPDEST SWAP3 POP DUP5 DUP4 SUB PUSH1 0x40 DUP7 ADD MSTORE PUSH3 0x5A0 DUP4 DUP14 PUSH3 0x4F3 JUMP JUMPDEST DUP6 DUP2 SUB PUSH1 0x60 DUP8 ADD MSTORE DUP12 MLOAD DUP1 DUP3 MSTORE DUP3 DUP14 ADD SWAP5 POP SWAP1 DUP3 ADD SWAP1 DUP6 JUMPDEST DUP2 DUP2 LT ISZERO PUSH3 0x5D8 JUMPI DUP6 MLOAD DUP6 AND DUP4 MSTORE SWAP5 DUP4 ADD SWAP5 SWAP2 DUP4 ADD SWAP2 PUSH1 0x1 ADD PUSH3 0x5B8 JUMP JUMPDEST POP POP DUP6 DUP2 SUB PUSH1 0x80 DUP8 ADD MSTORE PUSH3 0x5EE DUP2 DUP13 PUSH3 0x4B7 JUMP JUMPDEST SWAP5 POP POP POP POP POP DUP6 PUSH1 0xA0 DUP4 ADD MSTORE DUP5 PUSH1 0xC0 DUP4 ADD MSTORE DUP4 PUSH1 0xE0 DUP4 ADD MSTORE PUSH3 0x616 PUSH2 0x100 DUP4 ADD DUP5 PUSH3 0x4AA JUMP JUMPDEST SWAP11 SWAP10 POP POP POP POP POP POP POP POP POP POP JUMP JUMPDEST SWAP2 DUP3 MSTORE PUSH1 0x20 DUP3 ADD MSTORE PUSH1 0x40 ADD SWAP1 JUMP JUMPDEST PUSH1 0x40 MLOAD DUP2 DUP2 ADD PUSH8 0xFFFFFFFFFFFFFFFF DUP2 GT DUP3 DUP3 LT OR ISZERO PUSH3 0x64F JUMPI INVALID JUMPDEST PUSH1 0x40 MSTORE SWAP2 SWAP1 POP JUMP JUMPDEST PUSH1 0x0 PUSH8 0xFFFFFFFFFFFFFFFF DUP3 GT ISZERO PUSH3 0x66C JUMPI INVALID JUMPDEST POP PUSH1 0x20 SWAP1 DUP2 MUL ADD SWAP1 JUMP JUMPDEST PUSH1 0x1 PUSH1 0x1 PUSH1 0xA0 SHL SUB DUP2 AND DUP2 EQ PUSH3 0x68C JUMPI PUSH1 0x0 DUP1 REVERT JUMPDEST POP JUMP INVALID PUSH2 0x500 PUSH1 0x40 MSTORE PUSH32 0x6E71EDAE12B1B97F4D1F60370FEF10105FA2FAAE0126114A169C64845D6126C9 PUSH2 0x120 MSTORE CALLVALUE DUP1 ISZERO PUSH3 0x37 JUMPI PUSH1 0x0 DUP1 REVERT JUMPDEST POP PUSH1 0x40 MLOAD PUSH3 0x5872 CODESIZE SUB DUP1 PUSH3 0x5872 DUP4 CODECOPY DUP2 ADD PUSH1 0x40 DUP2 SWAP1 MSTORE PUSH3 0x5A SWAP2 PUSH3 0xCF6 JUMP JUMPDEST DUP9 DUP9 DUP9 DUP9 DUP8 DUP8 DUP8 DUP8 DUP8 DUP6 MLOAD PUSH1 0x2 EQ PUSH3 0x75 JUMPI PUSH1 0x1 PUSH3 0x78 JUMP JUMPDEST PUSH1 0x2 JUMPDEST PUSH1 0x40 DUP1 MLOAD DUP1 DUP3 ADD SWAP1 SWAP2 MSTORE PUSH1 0x1 DUP2 MSTORE PUSH1 0x31 PUSH1 0xF8 SHL PUSH1 0x20 DUP1 DUP4 ADD SWAP2 DUP3 MSTORE CALLER PUSH1 0x80 MSTORE PUSH1 0x1 PUSH1 0x1 PUSH1 0x60 SHL SUB NOT PUSH1 0x60 DUP8 SWAP1 SHL AND PUSH1 0xA0 MSTORE DUP12 MLOAD SWAP1 DUP13 ADD SWAP1 DUP2 KECCAK256 PUSH1 0xC0 MSTORE SWAP2 MLOAD SWAP1 KECCAK256 PUSH1 0xE0 MSTORE PUSH32 0x8B73C3C69BB8FE3D512ECC4CF759CC79239F7B179B0FFACAA9A75D522B39400F PUSH2 0x100 MSTORE DUP10 MLOAD DUP11 SWAP2 DUP11 SWAP2 DUP11 SWAP2 DUP11 SWAP2 DUP11 SWAP2 DUP11 SWAP2 DUP11 SWAP2 DUP5 SWAP2 DUP5 SWAP2 DUP11 SWAP2 DUP11 SWAP2 PUSH3 0x107 SWAP2 PUSH1 0x3 SWAP2 SWAP1 PUSH3 0xABB JUMP JUMPDEST POP DUP1 MLOAD PUSH3 0x11D SWAP1 PUSH1 0x4 SWAP1 PUSH1 0x20 DUP5 ADD SWAP1 PUSH3 0xABB JUMP JUMPDEST POP PUSH3 0x135 SWAP2 POP POP PUSH3 0x76A700 DUP4 GT ISZERO PUSH2 0x194 PUSH3 0x865 JUMP JUMPDEST PUSH3 0x149 PUSH3 0x278D00 DUP3 GT ISZERO PUSH2 0x195 PUSH3 0x865 JUMP JUMPDEST TIMESTAMP SWAP1 SWAP2 ADD PUSH2 0x140 DUP2 SWAP1 MSTORE ADD PUSH2 0x160 MSTORE DUP5 MLOAD PUSH3 0x16B SWAP1 PUSH1 0x2 GT ISZERO PUSH1 0xC8 PUSH3 0x865 JUMP JUMPDEST PUSH3 0x183 PUSH1 0x8 DUP7 MLOAD GT ISZERO PUSH1 0xC9 PUSH3 0x865 PUSH1 0x20 SHL PUSH1 0x20 SHR JUMP JUMPDEST PUSH3 0x199 DUP6 PUSH3 0x87A PUSH1 0x20 SHL PUSH3 0xD54 OR PUSH1 0x20 SHR JUMP JUMPDEST PUSH3 0x1A4 DUP5 PUSH3 0x886 JUMP JUMPDEST PUSH1 0x40 MLOAD PUSH4 0x9B2760F PUSH1 0xE0 SHL DUP2 MSTORE PUSH1 0x0 SWAP1 PUSH1 0x1 PUSH1 0x1 PUSH1 0xA0 SHL SUB DUP12 AND SWAP1 PUSH4 0x9B2760F SWAP1 PUSH3 0x1D5 SWAP1 DUP13 SWAP1 PUSH1 0x4 ADD PUSH3 0xEAB JUMP JUMPDEST PUSH1 0x20 PUSH1 0x40 MLOAD DUP1 DUP4 SUB DUP2 PUSH1 0x0 DUP8 DUP1 EXTCODESIZE ISZERO DUP1 ISZERO PUSH3 0x1F0 JUMPI PUSH1 0x0 DUP1 REVERT JUMPDEST POP GAS CALL ISZERO DUP1 ISZERO PUSH3 0x205 JUMPI RETURNDATASIZE PUSH1 0x0 DUP1 RETURNDATACOPY RETURNDATASIZE PUSH1 0x0 REVERT JUMPDEST POP POP POP POP PUSH1 0x40 MLOAD RETURNDATASIZE PUSH1 0x1F NOT PUSH1 0x1F DUP3 ADD AND DUP3 ADD DUP1 PUSH1 0x40 MSTORE POP DUP2 ADD SWAP1 PUSH3 0x22B SWAP2 SWAP1 PUSH3 0xCDD JUMP JUMPDEST SWAP1 POP DUP10 PUSH1 0x1 PUSH1 0x1 PUSH1 0xA0 SHL SUB AND PUSH4 0x66A9C7D2 DUP3 DUP9 DUP10 MLOAD PUSH1 0x1 PUSH1 0x1 PUSH1 0x40 SHL SUB DUP2 GT DUP1 ISZERO PUSH3 0x256 JUMPI PUSH1 0x0 DUP1 REVERT JUMPDEST POP PUSH1 0x40 MLOAD SWAP1 DUP1 DUP3 MSTORE DUP1 PUSH1 0x20 MUL PUSH1 0x20 ADD DUP3 ADD PUSH1 0x40 MSTORE DUP1 ISZERO PUSH3 0x281 JUMPI DUP2 PUSH1 0x20 ADD PUSH1 0x20 DUP3 MUL DUP1 CALLDATASIZE DUP4 CALLDATACOPY ADD SWAP1 POP JUMPDEST POP PUSH1 0x40 MLOAD DUP5 PUSH4 0xFFFFFFFF AND PUSH1 0xE0 SHL DUP2 MSTORE PUSH1 0x4 ADD PUSH3 0x2A2 SWAP4 SWAP3 SWAP2 SWAP1 PUSH3 0xE11 JUMP JUMPDEST PUSH1 0x0 PUSH1 0x40 MLOAD DUP1 DUP4 SUB DUP2 PUSH1 0x0 DUP8 DUP1 EXTCODESIZE ISZERO DUP1 ISZERO PUSH3 0x2BD JUMPI PUSH1 0x0 DUP1 REVERT JUMPDEST POP GAS CALL ISZERO DUP1 ISZERO PUSH3 0x2D2 JUMPI RETURNDATASIZE PUSH1 0x0 DUP1 RETURNDATACOPY RETURNDATASIZE PUSH1 0x0 REVERT JUMPDEST POP POP POP PUSH1 0x1 PUSH1 0x1 PUSH1 0x60 SHL SUB NOT PUSH1 0x60 DUP13 SWAP1 SHL AND PUSH2 0x180 MSTORE POP PUSH2 0x1A0 DUP2 SWAP1 MSTORE DUP6 MLOAD PUSH2 0x1C0 MSTORE DUP6 MLOAD PUSH3 0x304 JUMPI PUSH1 0x0 PUSH3 0x31B JUMP JUMPDEST DUP6 PUSH1 0x0 DUP2 MLOAD DUP2 LT PUSH3 0x312 JUMPI INVALID JUMPDEST PUSH1 0x20 MUL PUSH1 0x20 ADD ADD MLOAD JUMPDEST PUSH1 0x60 SHL PUSH1 0x1 PUSH1 0x1 PUSH1 0x60 SHL SUB NOT AND PUSH2 0x1E0 MSTORE DUP6 MLOAD PUSH1 0x1 LT PUSH3 0x33E JUMPI PUSH1 0x0 PUSH3 0x355 JUMP JUMPDEST DUP6 PUSH1 0x1 DUP2 MLOAD DUP2 LT PUSH3 0x34C JUMPI INVALID JUMPDEST PUSH1 0x20 MUL PUSH1 0x20 ADD ADD MLOAD JUMPDEST PUSH1 0x60 SHL PUSH1 0x1 PUSH1 0x1 PUSH1 0x60 SHL SUB NOT AND PUSH2 0x200 MSTORE DUP6 MLOAD PUSH1 0x2 LT PUSH3 0x378 JUMPI PUSH1 0x0 PUSH3 0x38F JUMP JUMPDEST DUP6 PUSH1 0x2 DUP2 MLOAD DUP2 LT PUSH3 0x386 JUMPI INVALID JUMPDEST PUSH1 0x20 MUL PUSH1 0x20 ADD ADD MLOAD JUMPDEST PUSH1 0x60 SHL PUSH1 0x1 PUSH1 0x1 PUSH1 0x60 SHL SUB NOT AND PUSH2 0x220 MSTORE DUP6 MLOAD PUSH1 0x3 LT PUSH3 0x3B2 JUMPI PUSH1 0x0 PUSH3 0x3C9 JUMP JUMPDEST DUP6 PUSH1 0x3 DUP2 MLOAD DUP2 LT PUSH3 0x3C0 JUMPI INVALID JUMPDEST PUSH1 0x20 MUL PUSH1 0x20 ADD ADD MLOAD JUMPDEST PUSH1 0x60 SHL PUSH1 0x1 PUSH1 0x1 PUSH1 0x60 SHL SUB NOT AND PUSH2 0x240 MSTORE DUP6 MLOAD PUSH1 0x4 LT PUSH3 0x3EC JUMPI PUSH1 0x0 PUSH3 0x403 JUMP JUMPDEST DUP6 PUSH1 0x4 DUP2 MLOAD DUP2 LT PUSH3 0x3FA JUMPI INVALID JUMPDEST PUSH1 0x20 MUL PUSH1 0x20 ADD ADD MLOAD JUMPDEST PUSH1 0x60 SHL PUSH1 0x1 PUSH1 0x1 PUSH1 0x60 SHL SUB NOT AND PUSH2 0x260 MSTORE DUP6 MLOAD PUSH1 0x5 LT PUSH3 0x426 JUMPI PUSH1 0x0 PUSH3 0x43D JUMP JUMPDEST DUP6 PUSH1 0x5 DUP2 MLOAD DUP2 LT PUSH3 0x434 JUMPI INVALID JUMPDEST PUSH1 0x20 MUL PUSH1 0x20 ADD ADD MLOAD JUMPDEST PUSH1 0x60 SHL PUSH1 0x1 PUSH1 0x1 PUSH1 0x60 SHL SUB NOT AND PUSH2 0x280 MSTORE DUP6 MLOAD PUSH1 0x6 LT PUSH3 0x460 JUMPI PUSH1 0x0 PUSH3 0x477 JUMP JUMPDEST DUP6 PUSH1 0x6 DUP2 MLOAD DUP2 LT PUSH3 0x46E JUMPI INVALID JUMPDEST PUSH1 0x20 MUL PUSH1 0x20 ADD ADD MLOAD JUMPDEST PUSH1 0x60 SHL PUSH1 0x1 PUSH1 0x1 PUSH1 0x60 SHL SUB NOT AND PUSH2 0x2A0 MSTORE DUP6 MLOAD PUSH1 0x7 LT PUSH3 0x49A JUMPI PUSH1 0x0 PUSH3 0x4B1 JUMP JUMPDEST DUP6 PUSH1 0x7 DUP2 MLOAD DUP2 LT PUSH3 0x4A8 JUMPI INVALID JUMPDEST PUSH1 0x20 MUL PUSH1 0x20 ADD ADD MLOAD JUMPDEST PUSH1 0x60 SHL PUSH1 0x1 PUSH1 0x1 PUSH1 0x60 SHL SUB NOT AND PUSH2 0x2C0 MSTORE DUP6 MLOAD PUSH3 0x4D1 JUMPI PUSH1 0x0 PUSH3 0x4F7 JUMP JUMPDEST PUSH3 0x4F7 DUP7 PUSH1 0x0 DUP2 MLOAD DUP2 LT PUSH3 0x4E3 JUMPI INVALID JUMPDEST PUSH1 0x20 MUL PUSH1 0x20 ADD ADD MLOAD PUSH3 0x8F5 PUSH1 0x20 SHL PUSH1 0x20 SHR JUMP JUMPDEST PUSH2 0x2E0 MSTORE DUP6 MLOAD PUSH1 0x1 LT PUSH3 0x50D JUMPI PUSH1 0x0 PUSH3 0x51F JUMP JUMPDEST PUSH3 0x51F DUP7 PUSH1 0x1 DUP2 MLOAD DUP2 LT PUSH3 0x4E3 JUMPI INVALID JUMPDEST PUSH2 0x300 MSTORE DUP6 MLOAD PUSH1 0x2 LT PUSH3 0x535 JUMPI PUSH1 0x0 PUSH3 0x547 JUMP JUMPDEST PUSH3 0x547 DUP7 PUSH1 0x2 DUP2 MLOAD DUP2 LT PUSH3 0x4E3 JUMPI INVALID JUMPDEST PUSH2 0x320 MSTORE DUP6 MLOAD PUSH1 0x3 LT PUSH3 0x55D JUMPI PUSH1 0x0 PUSH3 0x56F JUMP JUMPDEST PUSH3 0x56F DUP7 PUSH1 0x3 DUP2 MLOAD DUP2 LT PUSH3 0x4E3 JUMPI INVALID JUMPDEST PUSH2 0x340 MSTORE DUP6 MLOAD PUSH1 0x4 LT PUSH3 0x585 JUMPI PUSH1 0x0 PUSH3 0x597 JUMP JUMPDEST PUSH3 0x597 DUP7 PUSH1 0x4 DUP2 MLOAD DUP2 LT PUSH3 0x4E3 JUMPI INVALID JUMPDEST PUSH2 0x360 MSTORE DUP6 MLOAD PUSH1 0x5 LT PUSH3 0x5AD JUMPI PUSH1 0x0 PUSH3 0x5BF JUMP JUMPDEST PUSH3 0x5BF DUP7 PUSH1 0x5 DUP2 MLOAD DUP2 LT PUSH3 0x4E3 JUMPI INVALID JUMPDEST PUSH2 0x380 MSTORE DUP6 MLOAD PUSH1 0x6 LT PUSH3 0x5D5 JUMPI PUSH1 0x0 PUSH3 0x5E7 JUMP JUMPDEST PUSH3 0x5E7 DUP7 PUSH1 0x6 DUP2 MLOAD DUP2 LT PUSH3 0x4E3 JUMPI INVALID JUMPDEST PUSH2 0x3A0 MSTORE DUP6 MLOAD PUSH1 0x7 LT PUSH3 0x5FD JUMPI PUSH1 0x0 PUSH3 0x60F JUMP JUMPDEST PUSH3 0x60F DUP7 PUSH1 0x7 DUP2 MLOAD DUP2 LT PUSH3 0x4E3 JUMPI INVALID JUMPDEST PUSH2 0x3C0 DUP2 DUP2 MSTORE POP POP POP POP POP POP POP POP POP POP POP POP POP POP POP POP POP POP POP POP PUSH1 0x0 DUP7 MLOAD SWAP1 POP PUSH3 0x647 DUP2 DUP8 MLOAD PUSH3 0x999 PUSH1 0x20 SHL PUSH3 0xD62 OR PUSH1 0x20 SHR JUMP JUMPDEST PUSH1 0x0 DUP1 PUSH1 0x0 DUP1 JUMPDEST DUP5 DUP2 PUSH1 0xFF AND LT ISZERO PUSH3 0x6CD JUMPI PUSH1 0x0 DUP11 DUP3 PUSH1 0xFF AND DUP2 MLOAD DUP2 LT PUSH3 0x66C JUMPI INVALID JUMPDEST PUSH1 0x20 MUL PUSH1 0x20 ADD ADD MLOAD SWAP1 POP PUSH3 0x694 PUSH7 0x2386F26FC10000 DUP3 LT ISZERO PUSH2 0x12E PUSH3 0x865 PUSH1 0x20 SHL PUSH1 0x20 SHR JUMP JUMPDEST PUSH3 0x6AE DUP2 DUP7 PUSH3 0x9A8 PUSH1 0x20 SHL PUSH3 0xD6F OR SWAP1 SWAP2 SWAP1 PUSH1 0x20 SHR JUMP JUMPDEST SWAP5 POP DUP3 DUP2 GT ISZERO PUSH3 0x6C3 JUMPI DUP2 PUSH1 0xFF AND SWAP4 POP DUP1 SWAP3 POP JUMPDEST POP PUSH1 0x1 ADD PUSH3 0x64E JUMP JUMPDEST POP PUSH3 0x6E6 PUSH8 0xDE0B6B3A7640000 DUP5 EQ PUSH2 0x134 PUSH3 0x865 JUMP JUMPDEST PUSH2 0x3E0 DUP3 SWAP1 MSTORE DUP9 MLOAD PUSH3 0x6FB JUMPI PUSH1 0x0 PUSH3 0x712 JUMP JUMPDEST DUP9 PUSH1 0x0 DUP2 MLOAD DUP2 LT PUSH3 0x709 JUMPI INVALID JUMPDEST PUSH1 0x20 MUL PUSH1 0x20 ADD ADD MLOAD JUMPDEST PUSH2 0x400 MSTORE DUP9 MLOAD PUSH1 0x1 LT PUSH3 0x728 JUMPI PUSH1 0x0 PUSH3 0x73F JUMP JUMPDEST DUP9 PUSH1 0x1 DUP2 MLOAD DUP2 LT PUSH3 0x736 JUMPI INVALID JUMPDEST PUSH1 0x20 MUL PUSH1 0x20 ADD ADD MLOAD JUMPDEST PUSH2 0x420 MSTORE DUP9 MLOAD PUSH1 0x2 LT PUSH3 0x755 JUMPI PUSH1 0x0 PUSH3 0x76C JUMP JUMPDEST DUP9 PUSH1 0x2 DUP2 MLOAD DUP2 LT PUSH3 0x763 JUMPI INVALID JUMPDEST PUSH1 0x20 MUL PUSH1 0x20 ADD ADD MLOAD JUMPDEST PUSH2 0x440 MSTORE DUP9 MLOAD PUSH1 0x3 LT PUSH3 0x782 JUMPI PUSH1 0x0 PUSH3 0x799 JUMP JUMPDEST DUP9 PUSH1 0x3 DUP2 MLOAD DUP2 LT PUSH3 0x790 JUMPI INVALID JUMPDEST PUSH1 0x20 MUL PUSH1 0x20 ADD ADD MLOAD JUMPDEST PUSH2 0x460 MSTORE DUP9 MLOAD PUSH1 0x4 LT PUSH3 0x7AF JUMPI PUSH1 0x0 PUSH3 0x7C6 JUMP JUMPDEST DUP9 PUSH1 0x4 DUP2 MLOAD DUP2 LT PUSH3 0x7BD JUMPI INVALID JUMPDEST PUSH1 0x20 MUL PUSH1 0x20 ADD ADD MLOAD JUMPDEST PUSH2 0x480 MSTORE DUP9 MLOAD PUSH1 0x5 LT PUSH3 0x7DC JUMPI PUSH1 0x0 PUSH3 0x7F3 JUMP JUMPDEST DUP9 PUSH1 0x5 DUP2 MLOAD DUP2 LT PUSH3 0x7EA JUMPI INVALID JUMPDEST PUSH1 0x20 MUL PUSH1 0x20 ADD ADD MLOAD JUMPDEST PUSH2 0x4A0 MSTORE DUP9 MLOAD PUSH1 0x6 LT PUSH3 0x809 JUMPI PUSH1 0x0 PUSH3 0x820 JUMP JUMPDEST DUP9 PUSH1 0x6 DUP2 MLOAD DUP2 LT PUSH3 0x817 JUMPI INVALID JUMPDEST PUSH1 0x20 MUL PUSH1 0x20 ADD ADD MLOAD JUMPDEST PUSH2 0x4C0 MSTORE DUP9 MLOAD PUSH1 0x7 LT PUSH3 0x836 JUMPI PUSH1 0x0 PUSH3 0x84D JUMP JUMPDEST DUP9 PUSH1 0x7 DUP2 MLOAD DUP2 LT PUSH3 0x844 JUMPI INVALID JUMPDEST PUSH1 0x20 MUL PUSH1 0x20 ADD ADD MLOAD JUMPDEST PUSH2 0x4E0 MSTORE POP PUSH3 0xF21 SWAP12 POP POP POP POP POP POP POP POP POP POP POP POP JUMP JUMPDEST DUP2 PUSH3 0x876 JUMPI PUSH3 0x876 DUP2 PUSH3 0x9C3 JUMP JUMPDEST POP POP JUMP JUMPDEST DUP1 PUSH3 0x876 DUP2 PUSH3 0xA16 JUMP JUMPDEST PUSH3 0x89B PUSH5 0xE8D4A51000 DUP3 LT ISZERO PUSH1 0xCB PUSH3 0x865 JUMP JUMPDEST PUSH3 0x8B3 PUSH8 0x16345785D8A0000 DUP3 GT ISZERO PUSH1 0xCA PUSH3 0x865 JUMP JUMPDEST PUSH1 0x7 DUP2 SWAP1 SSTORE PUSH1 0x40 MLOAD PUSH32 0xA9BA3FFE0B6C366B81232CAAB38605A0699AD5398D6CCE76F91EE809E322DAFC SWAP1 PUSH3 0x8EA SWAP1 DUP4 SWAP1 PUSH3 0xEC0 JUMP JUMPDEST PUSH1 0x40 MLOAD DUP1 SWAP2 SUB SWAP1 LOG1 POP JUMP JUMPDEST PUSH1 0x0 DUP1 DUP3 PUSH1 0x1 PUSH1 0x1 PUSH1 0xA0 SHL SUB AND PUSH4 0x313CE567 PUSH1 0x40 MLOAD DUP2 PUSH4 0xFFFFFFFF AND PUSH1 0xE0 SHL DUP2 MSTORE PUSH1 0x4 ADD PUSH1 0x20 PUSH1 0x40 MLOAD DUP1 DUP4 SUB DUP2 DUP7 DUP1 EXTCODESIZE ISZERO DUP1 ISZERO PUSH3 0x932 JUMPI PUSH1 0x0 DUP1 REVERT JUMPDEST POP GAS STATICCALL ISZERO DUP1 ISZERO PUSH3 0x947 JUMPI RETURNDATASIZE PUSH1 0x0 DUP1 RETURNDATACOPY RETURNDATASIZE PUSH1 0x0 REVERT JUMPDEST POP POP POP POP PUSH1 0x40 MLOAD RETURNDATASIZE PUSH1 0x1F NOT PUSH1 0x1F DUP3 ADD AND DUP3 ADD DUP1 PUSH1 0x40 MSTORE POP DUP2 ADD SWAP1 PUSH3 0x96D SWAP2 SWAP1 PUSH3 0xDEE JUMP JUMPDEST PUSH1 0xFF AND SWAP1 POP PUSH1 0x0 PUSH3 0x98C PUSH1 0x12 DUP4 PUSH3 0xAA3 PUSH1 0x20 SHL PUSH3 0xD81 OR PUSH1 0x20 SHR JUMP JUMPDEST PUSH1 0xA EXP SWAP3 POP POP POP JUMPDEST SWAP2 SWAP1 POP JUMP JUMPDEST PUSH3 0x876 DUP3 DUP3 EQ PUSH1 0x67 PUSH3 0x865 JUMP JUMPDEST PUSH1 0x0 DUP3 DUP3 ADD PUSH3 0x9BC DUP5 DUP3 LT ISZERO DUP4 PUSH3 0x865 JUMP JUMPDEST SWAP4 SWAP3 POP POP POP JUMP JUMPDEST PUSH3 0x461BCD PUSH1 0xE5 SHL PUSH1 0x0 SWAP1 DUP2 MSTORE PUSH1 0x20 PUSH1 0x4 MSTORE PUSH1 0x7 PUSH1 0x24 MSTORE PUSH7 0x42414C23000030 PUSH1 0xA DUP1 DUP5 DIV DUP2 DUP2 MOD PUSH1 0x30 SWAP1 DUP2 ADD PUSH1 0x8 SHL SWAP6 DUP4 SWAP1 MOD SWAP6 SWAP1 SWAP6 ADD SWAP1 DUP3 SWAP1 DIV SWAP2 DUP3 MOD SWAP1 SWAP5 ADD PUSH1 0x10 SHL SWAP4 SWAP1 SWAP4 ADD ADD PUSH1 0xC8 SHL PUSH1 0x44 MSTORE PUSH1 0x64 SWAP1 REVERT JUMPDEST PUSH1 0x2 DUP2 MLOAD LT ISZERO PUSH3 0xA27 JUMPI PUSH3 0xAA0 JUMP JUMPDEST PUSH1 0x0 DUP2 PUSH1 0x0 DUP2 MLOAD DUP2 LT PUSH3 0xA37 JUMPI INVALID JUMPDEST PUSH1 0x20 MUL PUSH1 0x20 ADD ADD MLOAD SWAP1 POP PUSH1 0x0 PUSH1 0x1 SWAP1 POP JUMPDEST DUP3 MLOAD DUP2 LT ISZERO PUSH3 0xA9D JUMPI PUSH1 0x0 DUP4 DUP3 DUP2 MLOAD DUP2 LT PUSH3 0xA61 JUMPI INVALID JUMPDEST PUSH1 0x20 MUL PUSH1 0x20 ADD ADD MLOAD SWAP1 POP PUSH3 0xA92 DUP2 PUSH1 0x1 PUSH1 0x1 PUSH1 0xA0 SHL SUB AND DUP5 PUSH1 0x1 PUSH1 0x1 PUSH1 0xA0 SHL SUB AND LT PUSH1 0x65 PUSH3 0x865 PUSH1 0x20 SHL PUSH1 0x20 SHR JUMP JUMPDEST SWAP2 POP PUSH1 0x1 ADD PUSH3 0xA48 JUMP JUMPDEST POP POP JUMPDEST POP JUMP JUMPDEST PUSH1 0x0 PUSH3 0xAB5 DUP4 DUP4 GT ISZERO PUSH1 0x1 PUSH3 0x865 JUMP JUMPDEST POP SWAP1 SUB SWAP1 JUMP JUMPDEST DUP3 DUP1 SLOAD PUSH1 0x1 DUP2 PUSH1 0x1 AND ISZERO PUSH2 0x100 MUL SUB AND PUSH1 0x2 SWAP1 DIV SWAP1 PUSH1 0x0 MSTORE PUSH1 0x20 PUSH1 0x0 KECCAK256 SWAP1 PUSH1 0x1F ADD PUSH1 0x20 SWAP1 DIV DUP2 ADD SWAP3 DUP3 PUSH3 0xAF3 JUMPI PUSH1 0x0 DUP6 SSTORE PUSH3 0xB3E JUMP JUMPDEST DUP3 PUSH1 0x1F LT PUSH3 0xB0E JUMPI DUP1 MLOAD PUSH1 0xFF NOT AND DUP4 DUP1 ADD OR DUP6 SSTORE PUSH3 0xB3E JUMP JUMPDEST DUP3 DUP1 ADD PUSH1 0x1 ADD DUP6 SSTORE DUP3 ISZERO PUSH3 0xB3E JUMPI SWAP2 DUP3 ADD JUMPDEST DUP3 DUP2 GT ISZERO PUSH3 0xB3E JUMPI DUP3 MLOAD DUP3 SSTORE SWAP2 PUSH1 0x20 ADD SWAP2 SWAP1 PUSH1 0x1 ADD SWAP1 PUSH3 0xB21 JUMP JUMPDEST POP PUSH3 0xB4C SWAP3 SWAP2 POP PUSH3 0xB50 JUMP JUMPDEST POP SWAP1 JUMP JUMPDEST JUMPDEST DUP1 DUP3 GT ISZERO PUSH3 0xB4C JUMPI PUSH1 0x0 DUP2 SSTORE PUSH1 0x1 ADD PUSH3 0xB51 JUMP JUMPDEST DUP1 MLOAD PUSH3 0x994 DUP2 PUSH3 0xF0B JUMP JUMPDEST PUSH1 0x0 DUP3 PUSH1 0x1F DUP4 ADD SLT PUSH3 0xB85 JUMPI DUP1 DUP2 REVERT JUMPDEST DUP2 MLOAD PUSH1 0x20 PUSH3 0xB9E PUSH3 0xB98 DUP4 PUSH3 0xEED JUMP JUMPDEST PUSH3 0xEC9 JUMP JUMPDEST DUP3 DUP2 MSTORE DUP2 DUP2 ADD SWAP1 DUP6 DUP4 ADD DUP4 DUP6 MUL DUP8 ADD DUP5 ADD DUP9 LT ISZERO PUSH3 0xBBB JUMPI DUP6 DUP7 REVERT JUMPDEST DUP6 JUMPDEST DUP6 DUP2 LT ISZERO PUSH3 0xBE6 JUMPI DUP2 MLOAD PUSH3 0xBD3 DUP2 PUSH3 0xF0B JUMP JUMPDEST DUP5 MSTORE SWAP3 DUP5 ADD SWAP3 SWAP1 DUP5 ADD SWAP1 PUSH1 0x1 ADD PUSH3 0xBBD JUMP JUMPDEST POP SWAP1 SWAP8 SWAP7 POP POP POP POP POP POP POP JUMP JUMPDEST PUSH1 0x0 DUP3 PUSH1 0x1F DUP4 ADD SLT PUSH3 0xC04 JUMPI DUP1 DUP2 REVERT JUMPDEST DUP2 MLOAD PUSH1 0x20 PUSH3 0xC17 PUSH3 0xB98 DUP4 PUSH3 0xEED JUMP JUMPDEST DUP3 DUP2 MSTORE DUP2 DUP2 ADD SWAP1 DUP6 DUP4 ADD DUP4 DUP6 MUL DUP8 ADD DUP5 ADD DUP9 LT ISZERO PUSH3 0xC34 JUMPI DUP6 DUP7 REVERT JUMPDEST DUP6 JUMPDEST DUP6 DUP2 LT ISZERO PUSH3 0xBE6 JUMPI DUP2 MLOAD DUP5 MSTORE SWAP3 DUP5 ADD SWAP3 SWAP1 DUP5 ADD SWAP1 PUSH1 0x1 ADD PUSH3 0xC36 JUMP JUMPDEST PUSH1 0x0 DUP3 PUSH1 0x1F DUP4 ADD SLT PUSH3 0xC65 JUMPI DUP1 DUP2 REVERT JUMPDEST DUP2 MLOAD PUSH1 0x1 PUSH1 0x1 PUSH1 0x40 SHL SUB DUP2 GT ISZERO PUSH3 0xC79 JUMPI INVALID JUMPDEST PUSH1 0x20 PUSH3 0xC8F PUSH1 0x1F DUP4 ADD PUSH1 0x1F NOT AND DUP3 ADD PUSH3 0xEC9 JUMP JUMPDEST DUP3 DUP2 MSTORE DUP6 DUP3 DUP5 DUP8 ADD ADD GT ISZERO PUSH3 0xCA3 JUMPI DUP4 DUP5 REVERT JUMPDEST DUP4 JUMPDEST DUP4 DUP2 LT ISZERO PUSH3 0xCC2 JUMPI DUP6 DUP2 ADD DUP4 ADD MLOAD DUP3 DUP3 ADD DUP5 ADD MSTORE DUP3 ADD PUSH3 0xCA5 JUMP JUMPDEST DUP4 DUP2 GT ISZERO PUSH3 0xCD3 JUMPI DUP5 DUP4 DUP6 DUP5 ADD ADD MSTORE JUMPDEST POP SWAP6 SWAP5 POP POP POP POP POP JUMP JUMPDEST PUSH1 0x0 PUSH1 0x20 DUP3 DUP5 SUB SLT ISZERO PUSH3 0xCEF JUMPI DUP1 DUP2 REVERT JUMPDEST POP MLOAD SWAP2 SWAP1 POP JUMP JUMPDEST PUSH1 0x0 DUP1 PUSH1 0x0 DUP1 PUSH1 0x0 DUP1 PUSH1 0x0 DUP1 PUSH1 0x0 PUSH2 0x120 DUP11 DUP13 SUB SLT ISZERO PUSH3 0xD15 JUMPI DUP5 DUP6 REVERT JUMPDEST PUSH3 0xD20 DUP11 PUSH3 0xB67 JUMP JUMPDEST PUSH1 0x20 DUP12 ADD MLOAD SWAP1 SWAP10 POP PUSH1 0x1 PUSH1 0x1 PUSH1 0x40 SHL SUB DUP1 DUP3 GT ISZERO PUSH3 0xD3D JUMPI DUP7 DUP8 REVERT JUMPDEST PUSH3 0xD4B DUP14 DUP4 DUP15 ADD PUSH3 0xC54 JUMP JUMPDEST SWAP10 POP PUSH1 0x40 DUP13 ADD MLOAD SWAP2 POP DUP1 DUP3 GT ISZERO PUSH3 0xD61 JUMPI DUP7 DUP8 REVERT JUMPDEST PUSH3 0xD6F DUP14 DUP4 DUP15 ADD PUSH3 0xC54 JUMP JUMPDEST SWAP9 POP PUSH1 0x60 DUP13 ADD MLOAD SWAP2 POP DUP1 DUP3 GT ISZERO PUSH3 0xD85 JUMPI DUP7 DUP8 REVERT JUMPDEST PUSH3 0xD93 DUP14 DUP4 DUP15 ADD PUSH3 0xB74 JUMP JUMPDEST SWAP8 POP PUSH1 0x80 DUP13 ADD MLOAD SWAP2 POP DUP1 DUP3 GT ISZERO PUSH3 0xDA9 JUMPI DUP7 DUP8 REVERT JUMPDEST POP PUSH3 0xDB8 DUP13 DUP3 DUP14 ADD PUSH3 0xBF3 JUMP JUMPDEST SWAP6 POP POP PUSH1 0xA0 DUP11 ADD MLOAD SWAP4 POP PUSH1 0xC0 DUP11 ADD MLOAD SWAP3 POP PUSH1 0xE0 DUP11 ADD MLOAD SWAP2 POP PUSH3 0xDDF PUSH2 0x100 DUP12 ADD PUSH3 0xB67 JUMP JUMPDEST SWAP1 POP SWAP3 SWAP6 SWAP9 POP SWAP3 SWAP6 SWAP9 POP SWAP3 SWAP6 SWAP9 JUMP JUMPDEST PUSH1 0x0 PUSH1 0x20 DUP3 DUP5 SUB SLT ISZERO PUSH3 0xE00 JUMPI DUP1 DUP2 REVERT JUMPDEST DUP2 MLOAD PUSH1 0xFF DUP2 AND DUP2 EQ PUSH3 0x9BC JUMPI DUP2 DUP3 REVERT JUMPDEST PUSH1 0x0 PUSH1 0x60 DUP3 ADD DUP6 DUP4 MSTORE PUSH1 0x20 PUSH1 0x60 DUP2 DUP6 ADD MSTORE DUP2 DUP7 MLOAD DUP1 DUP5 MSTORE PUSH1 0x80 DUP7 ADD SWAP2 POP DUP3 DUP9 ADD SWAP4 POP DUP5 JUMPDEST DUP2 DUP2 LT ISZERO PUSH3 0xE5C JUMPI DUP5 MLOAD PUSH1 0x1 PUSH1 0x1 PUSH1 0xA0 SHL SUB AND DUP4 MSTORE SWAP4 DUP4 ADD SWAP4 SWAP2 DUP4 ADD SWAP2 PUSH1 0x1 ADD PUSH3 0xE35 JUMP JUMPDEST POP POP DUP5 DUP2 SUB PUSH1 0x40 DUP7 ADD MSTORE DUP6 MLOAD DUP1 DUP3 MSTORE SWAP1 DUP3 ADD SWAP3 POP DUP2 DUP7 ADD SWAP1 DUP5 JUMPDEST DUP2 DUP2 LT ISZERO PUSH3 0xE9D JUMPI DUP3 MLOAD PUSH1 0x1 PUSH1 0x1 PUSH1 0xA0 SHL SUB AND DUP6 MSTORE SWAP4 DUP4 ADD SWAP4 SWAP2 DUP4 ADD SWAP2 PUSH1 0x1 ADD PUSH3 0xE76 JUMP JUMPDEST POP SWAP3 SWAP9 SWAP8 POP POP POP POP POP POP POP POP JUMP JUMPDEST PUSH1 0x20 DUP2 ADD PUSH1 0x3 DUP4 LT PUSH3 0xEBA JUMPI INVALID JUMPDEST SWAP2 SWAP1 MSTORE SWAP1 JUMP JUMPDEST SWAP1 DUP2 MSTORE PUSH1 0x20 ADD SWAP1 JUMP JUMPDEST PUSH1 0x40 MLOAD DUP2 DUP2 ADD PUSH1 0x1 PUSH1 0x1 PUSH1 0x40 SHL SUB DUP2 GT DUP3 DUP3 LT OR ISZERO PUSH3 0xEE5 JUMPI INVALID JUMPDEST PUSH1 0x40 MSTORE SWAP2 SWAP1 POP JUMP JUMPDEST PUSH1 0x0 PUSH1 0x1 PUSH1 0x1 PUSH1 0x40 SHL SUB DUP3 GT ISZERO PUSH3 0xF01 JUMPI INVALID JUMPDEST POP PUSH1 0x20 SWAP1 DUP2 MUL ADD SWAP1 JUMP JUMPDEST PUSH1 0x1 PUSH1 0x1 PUSH1 0xA0 SHL SUB DUP2 AND DUP2 EQ PUSH3 0xAA0 JUMPI PUSH1 0x0 DUP1 REVERT JUMPDEST PUSH1 0x80 MLOAD PUSH1 0xA0 MLOAD PUSH1 0x60 SHR PUSH1 0xC0 MLOAD PUSH1 0xE0 MLOAD PUSH2 0x100 MLOAD PUSH2 0x120 MLOAD PUSH2 0x140 MLOAD PUSH2 0x160 MLOAD PUSH2 0x180 MLOAD PUSH1 0x60 SHR PUSH2 0x1A0 MLOAD PUSH2 0x1C0 MLOAD PUSH2 0x1E0 MLOAD PUSH1 0x60 SHR PUSH2 0x200 MLOAD PUSH1 0x60 SHR PUSH2 0x220 MLOAD PUSH1 0x60 SHR PUSH2 0x240 MLOAD PUSH1 0x60 SHR PUSH2 0x260 MLOAD PUSH1 0x60 SHR PUSH2 0x280 MLOAD PUSH1 0x60 SHR PUSH2 0x2A0 MLOAD PUSH1 0x60 SHR PUSH2 0x2C0 MLOAD PUSH1 0x60 SHR PUSH2 0x2E0 MLOAD PUSH2 0x300 MLOAD PUSH2 0x320 MLOAD PUSH2 0x340 MLOAD PUSH2 0x360 MLOAD PUSH2 0x380 MLOAD PUSH2 0x3A0 MLOAD PUSH2 0x3C0 MLOAD PUSH2 0x3E0 MLOAD PUSH2 0x400 MLOAD PUSH2 0x420 MLOAD PUSH2 0x440 MLOAD PUSH2 0x460 MLOAD PUSH2 0x480 MLOAD PUSH2 0x4A0 MLOAD PUSH2 0x4C0 MLOAD PUSH2 0x4E0 MLOAD PUSH2 0x473B PUSH3 0x1137 PUSH1 0x0 CODECOPY DUP1 PUSH2 0x1EBD MSTORE DUP1 PUSH2 0x284F MSTORE POP DUP1 PUSH2 0x1E7A MSTORE DUP1 PUSH2 0x27EE MSTORE POP DUP1 PUSH2 0x1E37 MSTORE DUP1 PUSH2 0x278D MSTORE POP DUP1 PUSH2 0x1DF4 MSTORE DUP1 PUSH2 0x272C MSTORE POP DUP1 PUSH2 0x1DB1 MSTORE DUP1 PUSH2 0x26CB MSTORE POP DUP1 PUSH2 0x1D6E MSTORE DUP1 PUSH2 0x266A MSTORE POP DUP1 PUSH2 0x1D2B MSTORE DUP1 PUSH2 0x2609 MSTORE POP DUP1 PUSH2 0x1CE8 MSTORE DUP1 PUSH2 0x25A8 MSTORE POP DUP1 PUSH2 0x22C8 MSTORE DUP1 PUSH2 0x22FC MSTORE DUP1 PUSH2 0x2338 MSTORE POP DUP1 PUSH2 0x1622 MSTORE DUP1 PUSH2 0x1B17 MSTORE POP DUP1 PUSH2 0x15DF MSTORE DUP1 PUSH2 0x1AB6 MSTORE POP DUP1 PUSH2 0x159C MSTORE DUP1 PUSH2 0x1A55 MSTORE POP DUP1 PUSH2 0x1559 MSTORE DUP1 PUSH2 0x19F4 MSTORE POP DUP1 PUSH2 0x1516 MSTORE DUP1 PUSH2 0x1993 MSTORE POP DUP1 PUSH2 0x14D3 MSTORE DUP1 PUSH2 0x1932 MSTORE POP DUP1 PUSH2 0x1490 MSTORE DUP1 PUSH2 0x18D1 MSTORE POP DUP1 PUSH2 0x143F MSTORE DUP1 PUSH2 0x1870 MSTORE POP DUP1 PUSH2 0x1ADC MSTORE DUP1 PUSH2 0x2814 MSTORE POP DUP1 PUSH2 0x1A7B MSTORE DUP1 PUSH2 0x27B3 MSTORE POP DUP1 PUSH2 0x1A1A MSTORE DUP1 PUSH2 0x2752 MSTORE POP DUP1 PUSH2 0x19B9 MSTORE DUP1 PUSH2 0x26F1 MSTORE POP DUP1 PUSH2 0x1958 MSTORE DUP1 PUSH2 0x2690 MSTORE POP DUP1 PUSH2 0x18F7 MSTORE DUP1 PUSH2 0x262F MSTORE POP DUP1 PUSH2 0x1896 MSTORE DUP1 PUSH2 0x25CE MSTORE POP DUP1 PUSH2 0x1835 MSTORE DUP1 PUSH2 0x256D MSTORE POP DUP1 PUSH2 0x10FF MSTORE POP DUP1 PUSH2 0x5D7 MSTORE POP DUP1 PUSH2 0x835 MSTORE POP DUP1 PUSH2 0xEEE MSTORE POP DUP1 PUSH2 0xECA MSTORE POP DUP1 PUSH2 0xAB4 MSTORE POP DUP1 PUSH2 0xFF1 MSTORE POP DUP1 PUSH2 0x1033 MSTORE POP DUP1 PUSH2 0x1012 MSTORE POP DUP1 PUSH2 0x811 MSTORE POP DUP1 PUSH2 0x79B MSTORE POP PUSH2 0x473B PUSH1 0x0 RETURN INVALID PUSH1 0x80 PUSH1 0x40 MSTORE CALLVALUE DUP1 ISZERO PUSH2 0x10 JUMPI PUSH1 0x0 DUP1 REVERT JUMPDEST POP PUSH1 0x4 CALLDATASIZE LT PUSH2 0x1F0 JUMPI PUSH1 0x0 CALLDATALOAD PUSH1 0xE0 SHR DUP1 PUSH4 0x7ECEBE00 GT PUSH2 0x10F JUMPI DUP1 PUSH4 0xA9059CBB GT PUSH2 0xA2 JUMPI DUP1 PUSH4 0xD5C096C4 GT PUSH2 0x71 JUMPI DUP1 PUSH4 0xD5C096C4 EQ PUSH2 0x3E6 JUMPI DUP1 PUSH4 0xD73DD623 EQ PUSH2 0x3F9 JUMPI DUP1 PUSH4 0xDD62ED3E EQ PUSH2 0x40C JUMPI DUP1 PUSH4 0xF89F27ED EQ PUSH2 0x41F JUMPI PUSH2 0x1F0 JUMP JUMPDEST DUP1 PUSH4 0xA9059CBB EQ PUSH2 0x3B0 JUMPI DUP1 PUSH4 0xAAABADC5 EQ PUSH2 0x3C3 JUMPI DUP1 PUSH4 0xC0FF1A15 EQ PUSH2 0x3CB JUMPI DUP1 PUSH4 0xD505ACCF EQ PUSH2 0x3D3 JUMPI PUSH2 0x1F0 JUMP JUMPDEST DUP1 PUSH4 0x8D928AF8 GT PUSH2 0xDE JUMPI DUP1 PUSH4 0x8D928AF8 EQ PUSH2 0x385 JUMPI DUP1 PUSH4 0x95D89B41 EQ PUSH2 0x38D JUMPI DUP1 PUSH4 0x9B02CDDE EQ PUSH2 0x395 JUMPI DUP1 PUSH4 0x9D2C110C EQ PUSH2 0x39D JUMPI PUSH2 0x1F0 JUMP JUMPDEST DUP1 PUSH4 0x7ECEBE00 EQ PUSH2 0x337 JUMPI DUP1 PUSH4 0x851C1BB3 EQ PUSH2 0x34A JUMPI DUP1 PUSH4 0x87EC6817 EQ PUSH2 0x35D JUMPI DUP1 PUSH4 0x893D20E8 EQ PUSH2 0x370 JUMPI PUSH2 0x1F0 JUMP JUMPDEST DUP1 PUSH4 0x38E9922E GT PUSH2 0x187 JUMPI DUP1 PUSH4 0x66188463 GT PUSH2 0x156 JUMPI DUP1 PUSH4 0x66188463 EQ PUSH2 0x2E8 JUMPI DUP1 PUSH4 0x679AEFCE EQ PUSH2 0x2FB JUMPI DUP1 PUSH4 0x70A08231 EQ PUSH2 0x303 JUMPI DUP1 PUSH4 0x74F3B009 EQ PUSH2 0x316 JUMPI PUSH2 0x1F0 JUMP JUMPDEST DUP1 PUSH4 0x38E9922E EQ PUSH2 0x2A4 JUMPI DUP1 PUSH4 0x38FFF2D0 EQ PUSH2 0x2B7 JUMPI DUP1 PUSH4 0x55C67628 EQ PUSH2 0x2BF JUMPI DUP1 PUSH4 0x6028BFD4 EQ PUSH2 0x2C7 JUMPI PUSH2 0x1F0 JUMP JUMPDEST DUP1 PUSH4 0x1C0DE051 GT PUSH2 0x1C3 JUMPI DUP1 PUSH4 0x1C0DE051 EQ PUSH2 0x25D JUMPI DUP1 PUSH4 0x23B872DD EQ PUSH2 0x274 JUMPI DUP1 PUSH4 0x313CE567 EQ PUSH2 0x287 JUMPI DUP1 PUSH4 0x3644E515 EQ PUSH2 0x29C JUMPI PUSH2 0x1F0 JUMP JUMPDEST DUP1 PUSH4 0x6FDDE03 EQ PUSH2 0x1F5 JUMPI DUP1 PUSH4 0x95EA7B3 EQ PUSH2 0x213 JUMPI DUP1 PUSH4 0x16C38B3C EQ PUSH2 0x233 JUMPI DUP1 PUSH4 0x18160DDD EQ PUSH2 0x248 JUMPI JUMPDEST PUSH1 0x0 DUP1 REVERT JUMPDEST PUSH2 0x1FD PUSH2 0x434 JUMP JUMPDEST PUSH1 0x40 MLOAD PUSH2 0x20A SWAP2 SWAP1 PUSH2 0x461B JUMP JUMPDEST PUSH1 0x40 MLOAD DUP1 SWAP2 SUB SWAP1 RETURN JUMPDEST PUSH2 0x226 PUSH2 0x221 CALLDATASIZE PUSH1 0x4 PUSH2 0x3FFA JUMP JUMPDEST PUSH2 0x4CB JUMP JUMPDEST PUSH1 0x40 MLOAD PUSH2 0x20A SWAP2 SWAP1 PUSH2 0x4552 JUMP JUMPDEST PUSH2 0x246 PUSH2 0x241 CALLDATASIZE PUSH1 0x4 PUSH2 0x40F0 JUMP JUMPDEST PUSH2 0x4E2 JUMP JUMPDEST STOP JUMPDEST PUSH2 0x250 PUSH2 0x4F6 JUMP JUMPDEST PUSH1 0x40 MLOAD PUSH2 0x20A SWAP2 SWAP1 PUSH2 0x4575 JUMP JUMPDEST PUSH2 0x265 PUSH2 0x4FC JUMP JUMPDEST PUSH1 0x40 MLOAD PUSH2 0x20A SWAP4 SWAP3 SWAP2 SWAP1 PUSH2 0x455D JUMP JUMPDEST PUSH2 0x226 PUSH2 0x282 CALLDATASIZE PUSH1 0x4 PUSH2 0x3F45 JUMP JUMPDEST PUSH2 0x525 JUMP JUMPDEST PUSH2 0x28F PUSH2 0x5A8 JUMP JUMPDEST PUSH1 0x40 MLOAD PUSH2 0x20A SWAP2 SWAP1 PUSH2 0x4687 JUMP JUMPDEST PUSH2 0x250 PUSH2 0x5AD JUMP JUMPDEST PUSH2 0x246 PUSH2 0x2B2 CALLDATASIZE PUSH1 0x4 PUSH2 0x4471 JUMP JUMPDEST PUSH2 0x5BC JUMP JUMPDEST PUSH2 0x250 PUSH2 0x5D5 JUMP JUMPDEST PUSH2 0x250 PUSH2 0x5F9 JUMP JUMPDEST PUSH2 0x2DA PUSH2 0x2D5 CALLDATASIZE PUSH1 0x4 PUSH2 0x4128 JUMP JUMPDEST PUSH2 0x5FF JUMP JUMPDEST PUSH1 0x40 MLOAD PUSH2 0x20A SWAP3 SWAP2 SWAP1 PUSH2 0x466E JUMP JUMPDEST PUSH2 0x226 PUSH2 0x2F6 CALLDATASIZE PUSH1 0x4 PUSH2 0x3FFA JUMP JUMPDEST PUSH2 0x636 JUMP JUMPDEST PUSH2 0x250 PUSH2 0x690 JUMP JUMPDEST PUSH2 0x250 PUSH2 0x311 CALLDATASIZE PUSH1 0x4 PUSH2 0x3EF1 JUMP JUMPDEST PUSH2 0x6BB JUMP JUMPDEST PUSH2 0x329 PUSH2 0x324 CALLDATASIZE PUSH1 0x4 PUSH2 0x4128 JUMP JUMPDEST PUSH2 0x6DA JUMP JUMPDEST PUSH1 0x40 MLOAD PUSH2 0x20A SWAP3 SWAP2 SWAP1 PUSH2 0x452D JUMP JUMPDEST PUSH2 0x250 PUSH2 0x345 CALLDATASIZE PUSH1 0x4 PUSH2 0x3EF1 JUMP JUMPDEST PUSH2 0x77C JUMP JUMPDEST PUSH2 0x250 PUSH2 0x358 CALLDATASIZE PUSH1 0x4 PUSH2 0x4224 JUMP JUMPDEST PUSH2 0x797 JUMP JUMPDEST PUSH2 0x2DA PUSH2 0x36B CALLDATASIZE PUSH1 0x4 PUSH2 0x4128 JUMP JUMPDEST PUSH2 0x7E9 JUMP JUMPDEST PUSH2 0x378 PUSH2 0x80F JUMP JUMPDEST PUSH1 0x40 MLOAD PUSH2 0x20A SWAP2 SWAP1 PUSH2 0x4506 JUMP JUMPDEST PUSH2 0x378 PUSH2 0x833 JUMP JUMPDEST PUSH2 0x1FD PUSH2 0x857 JUMP JUMPDEST PUSH2 0x250 PUSH2 0x8B8 JUMP JUMPDEST PUSH2 0x250 PUSH2 0x3AB CALLDATASIZE PUSH1 0x4 PUSH2 0x437B JUMP JUMPDEST PUSH2 0x8BE JUMP JUMPDEST PUSH2 0x226 PUSH2 0x3BE CALLDATASIZE PUSH1 0x4 PUSH2 0x3FFA JUMP JUMPDEST PUSH2 0x9A5 JUMP JUMPDEST PUSH2 0x378 PUSH2 0x9B2 JUMP JUMPDEST PUSH2 0x250 PUSH2 0x9BC JUMP JUMPDEST PUSH2 0x246 PUSH2 0x3E1 CALLDATASIZE PUSH1 0x4 PUSH2 0x3F85 JUMP JUMPDEST PUSH2 0xA7F JUMP JUMPDEST PUSH2 0x329 PUSH2 0x3F4 CALLDATASIZE PUSH1 0x4 PUSH2 0x4128 JUMP JUMPDEST PUSH2 0xBC8 JUMP JUMPDEST PUSH2 0x226 PUSH2 0x407 CALLDATASIZE PUSH1 0x4 PUSH2 0x3FFA JUMP JUMPDEST PUSH2 0xCE9 JUMP JUMPDEST PUSH2 0x250 PUSH2 0x41A CALLDATASIZE PUSH1 0x4 PUSH2 0x3F0D JUMP JUMPDEST PUSH2 0xD1F JUMP JUMPDEST PUSH2 0x427 PUSH2 0xD4A JUMP JUMPDEST PUSH1 0x40 MLOAD PUSH2 0x20A SWAP2 SWAP1 PUSH2 0x451A JUMP JUMPDEST PUSH1 0x3 DUP1 SLOAD PUSH1 0x40 DUP1 MLOAD PUSH1 0x20 PUSH1 0x1F PUSH1 0x2 PUSH1 0x0 NOT PUSH2 0x100 PUSH1 0x1 DUP9 AND ISZERO MUL ADD SWAP1 SWAP6 AND SWAP5 SWAP1 SWAP5 DIV SWAP4 DUP5 ADD DUP2 SWAP1 DIV DUP2 MUL DUP3 ADD DUP2 ADD SWAP1 SWAP3 MSTORE DUP3 DUP2 MSTORE PUSH1 0x60 SWAP4 SWAP1 SWAP3 SWAP1 SWAP2 DUP4 ADD DUP3 DUP3 DUP1 ISZERO PUSH2 0x4C0 JUMPI DUP1 PUSH1 0x1F LT PUSH2 0x495 JUMPI PUSH2 0x100 DUP1 DUP4 SLOAD DIV MUL DUP4 MSTORE SWAP2 PUSH1 0x20 ADD SWAP2 PUSH2 0x4C0 JUMP JUMPDEST DUP3 ADD SWAP2 SWAP1 PUSH1 0x0 MSTORE PUSH1 0x20 PUSH1 0x0 KECCAK256 SWAP1 JUMPDEST DUP2 SLOAD DUP2 MSTORE SWAP1 PUSH1 0x1 ADD SWAP1 PUSH1 0x20 ADD DUP1 DUP4 GT PUSH2 0x4A3 JUMPI DUP3 SWAP1 SUB PUSH1 0x1F AND DUP3 ADD SWAP2 JUMPDEST POP POP POP POP POP SWAP1 POP JUMPDEST SWAP1 JUMP JUMPDEST PUSH1 0x0 PUSH2 0x4D8 CALLER DUP5 DUP5 PUSH2 0xD97 JUMP JUMPDEST POP PUSH1 0x1 JUMPDEST SWAP3 SWAP2 POP POP JUMP JUMPDEST PUSH2 0x4EA PUSH2 0xDFF JUMP JUMPDEST PUSH2 0x4F3 DUP2 PUSH2 0xE2D JUMP JUMPDEST POP JUMP JUMPDEST PUSH1 0x2 SLOAD SWAP1 JUMP JUMPDEST PUSH1 0x0 DUP1 PUSH1 0x0 PUSH2 0x509 PUSH2 0xEAB JUMP JUMPDEST ISZERO SWAP3 POP PUSH2 0x514 PUSH2 0xEC8 JUMP JUMPDEST SWAP2 POP PUSH2 0x51E PUSH2 0xEEC JUMP JUMPDEST SWAP1 POP SWAP1 SWAP2 SWAP3 JUMP JUMPDEST PUSH1 0x1 PUSH1 0x1 PUSH1 0xA0 SHL SUB DUP4 AND PUSH1 0x0 DUP2 DUP2 MSTORE PUSH1 0x1 PUSH1 0x20 SWAP1 DUP2 MSTORE PUSH1 0x40 DUP1 DUP4 KECCAK256 CALLER DUP1 DUP6 MSTORE SWAP3 MSTORE DUP3 KECCAK256 SLOAD SWAP2 SWAP3 PUSH2 0x563 SWAP2 EQ DUP1 PUSH2 0x55B JUMPI POP DUP4 DUP3 LT ISZERO JUMPDEST PUSH2 0x197 PUSH2 0xF10 JUMP JUMPDEST PUSH2 0x56E DUP6 DUP6 DUP6 PUSH2 0xF1E JUMP JUMPDEST CALLER PUSH1 0x1 PUSH1 0x1 PUSH1 0xA0 SHL SUB DUP7 AND EQ DUP1 ISZERO SWAP1 PUSH2 0x589 JUMPI POP PUSH1 0x0 NOT DUP2 EQ ISZERO JUMPDEST ISZERO PUSH2 0x59B JUMPI PUSH2 0x59B DUP6 CALLER DUP6 DUP5 SUB PUSH2 0xD97 JUMP JUMPDEST PUSH1 0x1 SWAP2 POP POP JUMPDEST SWAP4 SWAP3 POP POP POP JUMP JUMPDEST PUSH1 0x12 SWAP1 JUMP JUMPDEST PUSH1 0x0 PUSH2 0x5B7 PUSH2 0xFED JUMP JUMPDEST SWAP1 POP SWAP1 JUMP JUMPDEST PUSH2 0x5C4 PUSH2 0xDFF JUMP JUMPDEST PUSH2 0x5CC PUSH2 0x108A JUMP JUMPDEST PUSH2 0x4F3 DUP2 PUSH2 0x109F JUMP JUMPDEST PUSH32 0x0 SWAP1 JUMP JUMPDEST PUSH1 0x7 SLOAD SWAP1 JUMP JUMPDEST PUSH1 0x0 PUSH1 0x60 PUSH2 0x615 DUP7 MLOAD PUSH2 0x610 PUSH2 0x10FD JUMP JUMPDEST PUSH2 0xD62 JUMP JUMPDEST PUSH2 0x62A DUP10 DUP10 DUP10 DUP10 DUP10 DUP10 DUP10 PUSH2 0x1121 PUSH2 0x11E8 PUSH2 0x124E JUMP JUMPDEST SWAP8 POP SWAP8 SWAP6 POP POP POP POP POP POP JUMP JUMPDEST CALLER PUSH1 0x0 SWAP1 DUP2 MSTORE PUSH1 0x1 PUSH1 0x20 SWAP1 DUP2 MSTORE PUSH1 0x40 DUP1 DUP4 KECCAK256 PUSH1 0x1 PUSH1 0x1 PUSH1 0xA0 SHL SUB DUP7 AND DUP5 MSTORE SWAP1 SWAP2 MSTORE DUP2 KECCAK256 SLOAD DUP1 DUP4 LT PUSH2 0x672 JUMPI PUSH2 0x66D CALLER DUP6 PUSH1 0x0 PUSH2 0xD97 JUMP JUMPDEST PUSH2 0x686 JUMP JUMPDEST PUSH2 0x686 CALLER DUP6 PUSH2 0x681 DUP5 DUP8 PUSH2 0xD81 JUMP JUMPDEST PUSH2 0xD97 JUMP JUMPDEST POP PUSH1 0x1 SWAP4 SWAP3 POP POP POP JUMP JUMPDEST PUSH1 0x0 PUSH2 0x5B7 PUSH2 0x69D PUSH2 0x4F6 JUMP JUMPDEST PUSH2 0x6B5 PUSH2 0x6A8 PUSH2 0x9BC JUMP JUMPDEST PUSH2 0x6B0 PUSH2 0x10FD JUMP JUMPDEST PUSH2 0x136F JUMP JUMPDEST SWAP1 PUSH2 0x1393 JUMP JUMPDEST PUSH1 0x1 PUSH1 0x1 PUSH1 0xA0 SHL SUB DUP2 AND PUSH1 0x0 SWAP1 DUP2 MSTORE PUSH1 0x20 DUP2 SWAP1 MSTORE PUSH1 0x40 SWAP1 KECCAK256 SLOAD JUMPDEST SWAP2 SWAP1 POP JUMP JUMPDEST PUSH1 0x60 DUP1 DUP9 PUSH2 0x704 PUSH2 0x6E9 PUSH2 0x833 JUMP JUMPDEST PUSH1 0x1 PUSH1 0x1 PUSH1 0xA0 SHL SUB AND CALLER PUSH1 0x1 PUSH1 0x1 PUSH1 0xA0 SHL SUB AND EQ PUSH1 0xCD PUSH2 0xF10 JUMP JUMPDEST PUSH2 0x719 PUSH2 0x70F PUSH2 0x5D5 JUMP JUMPDEST DUP3 EQ PUSH2 0x1F4 PUSH2 0xF10 JUMP JUMPDEST PUSH1 0x0 PUSH2 0x723 PUSH2 0x13E4 JUMP JUMPDEST SWAP1 POP PUSH2 0x72F DUP9 DUP3 PUSH2 0x1660 JUMP JUMPDEST PUSH1 0x0 DUP1 PUSH1 0x0 PUSH2 0x743 DUP15 DUP15 DUP15 DUP15 DUP15 DUP15 DUP15 PUSH2 0x1121 JUMP JUMPDEST SWAP3 POP SWAP3 POP SWAP3 POP PUSH2 0x753 DUP14 DUP5 PUSH2 0x16C1 JUMP JUMPDEST PUSH2 0x75D DUP3 DUP6 PUSH2 0x11E8 JUMP JUMPDEST PUSH2 0x767 DUP2 DUP6 PUSH2 0x11E8 JUMP JUMPDEST SWAP1 SWAP6 POP SWAP4 POP POP POP JUMPDEST POP SWAP8 POP SWAP8 SWAP6 POP POP POP POP POP POP JUMP JUMPDEST PUSH1 0x1 PUSH1 0x1 PUSH1 0xA0 SHL SUB AND PUSH1 0x0 SWAP1 DUP2 MSTORE PUSH1 0x5 PUSH1 0x20 MSTORE PUSH1 0x40 SWAP1 KECCAK256 SLOAD SWAP1 JUMP JUMPDEST PUSH1 0x0 PUSH32 0x0 DUP3 PUSH1 0x40 MLOAD PUSH1 0x20 ADD PUSH2 0x7CC SWAP3 SWAP2 SWAP1 PUSH2 0x44C3 JUMP JUMPDEST PUSH1 0x40 MLOAD PUSH1 0x20 DUP2 DUP4 SUB SUB DUP2 MSTORE SWAP1 PUSH1 0x40 MSTORE DUP1 MLOAD SWAP1 PUSH1 0x20 ADD KECCAK256 SWAP1 POP SWAP2 SWAP1 POP JUMP JUMPDEST PUSH1 0x0 PUSH1 0x60 PUSH2 0x7FA DUP7 MLOAD PUSH2 0x610 PUSH2 0x10FD JUMP JUMPDEST PUSH2 0x62A DUP10 DUP10 DUP10 DUP10 DUP10 DUP10 DUP10 PUSH2 0x1754 PUSH2 0x17D0 PUSH2 0x124E JUMP JUMPDEST PUSH32 0x0 SWAP1 JUMP JUMPDEST PUSH32 0x0 SWAP1 JUMP JUMPDEST PUSH1 0x4 DUP1 SLOAD PUSH1 0x40 DUP1 MLOAD PUSH1 0x20 PUSH1 0x1F PUSH1 0x2 PUSH1 0x0 NOT PUSH2 0x100 PUSH1 0x1 DUP9 AND ISZERO MUL ADD SWAP1 SWAP6 AND SWAP5 SWAP1 SWAP5 DIV SWAP4 DUP5 ADD DUP2 SWAP1 DIV DUP2 MUL DUP3 ADD DUP2 ADD SWAP1 SWAP3 MSTORE DUP3 DUP2 MSTORE PUSH1 0x60 SWAP4 SWAP1 SWAP3 SWAP1 SWAP2 DUP4 ADD DUP3 DUP3 DUP1 ISZERO PUSH2 0x4C0 JUMPI DUP1 PUSH1 0x1F LT PUSH2 0x495 JUMPI PUSH2 0x100 DUP1 DUP4 SLOAD DIV MUL DUP4 MSTORE SWAP2 PUSH1 0x20 ADD SWAP2 PUSH2 0x4C0 JUMP JUMPDEST PUSH1 0x8 SLOAD SWAP1 JUMP JUMPDEST PUSH1 0x0 DUP1 PUSH2 0x8CE DUP6 PUSH1 0x20 ADD MLOAD PUSH2 0x1831 JUMP JUMPDEST SWAP1 POP PUSH1 0x0 PUSH2 0x8DF DUP7 PUSH1 0x40 ADD MLOAD PUSH2 0x1831 JUMP JUMPDEST SWAP1 POP PUSH1 0x0 DUP7 MLOAD PUSH1 0x1 DUP2 GT ISZERO PUSH2 0x8F0 JUMPI INVALID JUMPDEST EQ ISZERO PUSH2 0x956 JUMPI PUSH2 0x903 DUP7 PUSH1 0x60 ADD MLOAD PUSH2 0x1B46 JUMP JUMPDEST PUSH1 0x60 DUP8 ADD MSTORE PUSH2 0x912 DUP6 DUP4 PUSH2 0x1B6A JUMP JUMPDEST SWAP5 POP PUSH2 0x91E DUP5 DUP3 PUSH2 0x1B6A JUMP JUMPDEST SWAP4 POP PUSH2 0x92E DUP7 PUSH1 0x60 ADD MLOAD DUP4 PUSH2 0x1B6A JUMP JUMPDEST PUSH1 0x60 DUP8 ADD MSTORE PUSH1 0x0 PUSH2 0x940 DUP8 DUP8 DUP8 PUSH2 0x1B76 JUMP JUMPDEST SWAP1 POP PUSH2 0x94C DUP2 DUP4 PUSH2 0x1BB1 JUMP JUMPDEST SWAP4 POP POP POP POP PUSH2 0x5A1 JUMP JUMPDEST PUSH2 0x960 DUP6 DUP4 PUSH2 0x1B6A JUMP JUMPDEST SWAP5 POP PUSH2 0x96C DUP5 DUP3 PUSH2 0x1B6A JUMP JUMPDEST SWAP4 POP PUSH2 0x97C DUP7 PUSH1 0x60 ADD MLOAD DUP3 PUSH2 0x1B6A JUMP JUMPDEST PUSH1 0x60 DUP8 ADD MSTORE PUSH1 0x0 PUSH2 0x98E DUP8 DUP8 DUP8 PUSH2 0x1BBD JUMP JUMPDEST SWAP1 POP PUSH2 0x99A DUP2 DUP5 PUSH2 0x1BF0 JUMP JUMPDEST SWAP1 POP PUSH2 0x94C DUP2 PUSH2 0x1BFC JUMP JUMPDEST PUSH1 0x0 PUSH2 0x4D8 CALLER DUP5 DUP5 PUSH2 0xF1E JUMP JUMPDEST PUSH1 0x0 PUSH2 0x5B7 PUSH2 0x1C13 JUMP JUMPDEST PUSH1 0x0 DUP1 PUSH2 0x9C7 PUSH2 0x833 JUMP JUMPDEST PUSH1 0x1 PUSH1 0x1 PUSH1 0xA0 SHL SUB AND PUSH4 0xF94D4668 PUSH2 0x9DD PUSH2 0x5D5 JUMP JUMPDEST PUSH1 0x40 MLOAD DUP3 PUSH4 0xFFFFFFFF AND PUSH1 0xE0 SHL DUP2 MSTORE PUSH1 0x4 ADD PUSH2 0x9F9 SWAP2 SWAP1 PUSH2 0x4575 JUMP JUMPDEST PUSH1 0x0 PUSH1 0x40 MLOAD DUP1 DUP4 SUB DUP2 DUP7 DUP1 EXTCODESIZE ISZERO DUP1 ISZERO PUSH2 0xA11 JUMPI PUSH1 0x0 DUP1 REVERT JUMPDEST POP GAS STATICCALL ISZERO DUP1 ISZERO PUSH2 0xA25 JUMPI RETURNDATASIZE PUSH1 0x0 DUP1 RETURNDATACOPY RETURNDATASIZE PUSH1 0x0 REVERT JUMPDEST POP POP POP POP PUSH1 0x40 MLOAD RETURNDATASIZE PUSH1 0x0 DUP3 RETURNDATACOPY PUSH1 0x1F RETURNDATASIZE SWAP1 DUP2 ADD PUSH1 0x1F NOT AND DUP3 ADD PUSH1 0x40 MSTORE PUSH2 0xA4D SWAP2 SWAP1 DUP2 ADD SWAP1 PUSH2 0x4025 JUMP JUMPDEST POP SWAP2 POP POP PUSH2 0xA62 DUP2 PUSH2 0xA5D PUSH2 0x13E4 JUMP JUMPDEST PUSH2 0x1660 JUMP JUMPDEST PUSH1 0x0 PUSH2 0xA6C PUSH2 0x1C8D JUMP JUMPDEST SWAP1 POP PUSH2 0xA78 DUP2 DUP4 PUSH2 0x1EE9 JUMP JUMPDEST SWAP3 POP POP POP SWAP1 JUMP JUMPDEST PUSH2 0xA8D DUP5 TIMESTAMP GT ISZERO PUSH1 0xD1 PUSH2 0xF10 JUMP JUMPDEST PUSH1 0x1 PUSH1 0x1 PUSH1 0xA0 SHL SUB DUP8 AND PUSH1 0x0 SWAP1 DUP2 MSTORE PUSH1 0x5 PUSH1 0x20 SWAP1 DUP2 MSTORE PUSH1 0x40 DUP1 DUP4 KECCAK256 SLOAD SWAP1 MLOAD SWAP1 SWAP3 SWAP2 PUSH2 0xAE4 SWAP2 PUSH32 0x0 SWAP2 DUP13 SWAP2 DUP13 SWAP2 DUP13 SWAP2 DUP9 SWAP2 DUP14 SWAP2 ADD PUSH2 0x459D JUMP JUMPDEST PUSH1 0x40 MLOAD PUSH1 0x20 DUP2 DUP4 SUB SUB DUP2 MSTORE SWAP1 PUSH1 0x40 MSTORE DUP1 MLOAD SWAP1 PUSH1 0x20 ADD KECCAK256 SWAP1 POP PUSH1 0x0 PUSH2 0xB07 DUP3 PUSH2 0x1F5B JUMP JUMPDEST SWAP1 POP PUSH1 0x0 PUSH1 0x1 DUP3 DUP9 DUP9 DUP9 PUSH1 0x40 MLOAD PUSH1 0x0 DUP2 MSTORE PUSH1 0x20 ADD PUSH1 0x40 MSTORE PUSH1 0x40 MLOAD PUSH2 0xB2E SWAP5 SWAP4 SWAP3 SWAP2 SWAP1 PUSH2 0x45FD JUMP JUMPDEST PUSH1 0x20 PUSH1 0x40 MLOAD PUSH1 0x20 DUP2 SUB SWAP1 DUP1 DUP5 SUB SWAP1 DUP6 GAS STATICCALL ISZERO DUP1 ISZERO PUSH2 0xB50 JUMPI RETURNDATASIZE PUSH1 0x0 DUP1 RETURNDATACOPY RETURNDATASIZE PUSH1 0x0 REVERT JUMPDEST POP POP PUSH1 0x40 MLOAD PUSH1 0x1F NOT ADD MLOAD SWAP2 POP PUSH2 0xB92 SWAP1 POP PUSH1 0x1 PUSH1 0x1 PUSH1 0xA0 SHL SUB DUP3 AND ISZERO DUP1 ISZERO SWAP1 PUSH2 0xB8A JUMPI POP DUP12 PUSH1 0x1 PUSH1 0x1 PUSH1 0xA0 SHL SUB AND DUP3 PUSH1 0x1 PUSH1 0x1 PUSH1 0xA0 SHL SUB AND EQ JUMPDEST PUSH2 0x1F8 PUSH2 0xF10 JUMP JUMPDEST PUSH1 0x1 PUSH1 0x1 PUSH1 0xA0 SHL SUB DUP12 AND PUSH1 0x0 SWAP1 DUP2 MSTORE PUSH1 0x5 PUSH1 0x20 MSTORE PUSH1 0x40 SWAP1 KECCAK256 PUSH1 0x1 DUP6 ADD SWAP1 SSTORE PUSH2 0xBBB DUP12 DUP12 DUP12 PUSH2 0xD97 JUMP JUMPDEST POP POP POP POP POP POP POP POP POP POP POP JUMP JUMPDEST PUSH1 0x60 DUP1 DUP9 PUSH2 0xBD7 PUSH2 0x6E9 PUSH2 0x833 JUMP JUMPDEST PUSH2 0xBE2 PUSH2 0x70F PUSH2 0x5D5 JUMP JUMPDEST PUSH1 0x0 PUSH2 0xBEC PUSH2 0x13E4 JUMP JUMPDEST SWAP1 POP PUSH2 0xBF6 PUSH2 0x4F6 JUMP JUMPDEST PUSH2 0xC9A JUMPI PUSH1 0x0 DUP1 PUSH2 0xC09 DUP14 DUP14 DUP14 DUP11 PUSH2 0x1F77 JUMP JUMPDEST SWAP2 POP SWAP2 POP PUSH2 0xC1E PUSH3 0xF4240 DUP4 LT ISZERO PUSH1 0xCC PUSH2 0xF10 JUMP JUMPDEST PUSH2 0xC2C PUSH1 0x0 PUSH3 0xF4240 PUSH2 0x2012 JUMP JUMPDEST PUSH2 0xC3B DUP12 PUSH3 0xF4240 DUP5 SUB PUSH2 0x2012 JUMP JUMPDEST PUSH2 0xC45 DUP2 DUP5 PUSH2 0x17D0 JUMP JUMPDEST DUP1 PUSH2 0xC4E PUSH2 0x10FD JUMP JUMPDEST PUSH1 0x1 PUSH1 0x1 PUSH1 0x40 SHL SUB DUP2 GT DUP1 ISZERO PUSH2 0xC63 JUMPI PUSH1 0x0 DUP1 REVERT JUMPDEST POP PUSH1 0x40 MLOAD SWAP1 DUP1 DUP3 MSTORE DUP1 PUSH1 0x20 MUL PUSH1 0x20 ADD DUP3 ADD PUSH1 0x40 MSTORE DUP1 ISZERO PUSH2 0xC8D JUMPI DUP2 PUSH1 0x20 ADD PUSH1 0x20 DUP3 MUL DUP1 CALLDATASIZE DUP4 CALLDATACOPY ADD SWAP1 POP JUMPDEST POP SWAP6 POP SWAP6 POP POP POP POP PUSH2 0x76F JUMP JUMPDEST PUSH2 0xCA4 DUP9 DUP3 PUSH2 0x1660 JUMP JUMPDEST PUSH1 0x0 DUP1 PUSH1 0x0 PUSH2 0xCB8 DUP15 DUP15 DUP15 DUP15 DUP15 DUP15 DUP15 PUSH2 0x1754 JUMP JUMPDEST SWAP3 POP SWAP3 POP SWAP3 POP PUSH2 0xCC8 DUP13 DUP5 PUSH2 0x2012 JUMP JUMPDEST PUSH2 0xCD2 DUP3 DUP6 PUSH2 0x17D0 JUMP JUMPDEST PUSH2 0xCDC DUP2 DUP6 PUSH2 0x11E8 JUMP JUMPDEST SWAP1 SWAP6 POP SWAP4 POP PUSH2 0x76F SWAP2 POP POP JUMP JUMPDEST CALLER PUSH1 0x0 DUP2 DUP2 MSTORE PUSH1 0x1 PUSH1 0x20 SWAP1 DUP2 MSTORE PUSH1 0x40 DUP1 DUP4 KECCAK256 PUSH1 0x1 PUSH1 0x1 PUSH1 0xA0 SHL SUB DUP8 AND DUP5 MSTORE SWAP1 SWAP2 MSTORE DUP2 KECCAK256 SLOAD SWAP1 SWAP2 PUSH2 0x4D8 SWAP2 DUP6 SWAP1 PUSH2 0x681 SWAP1 DUP7 PUSH2 0xD6F JUMP JUMPDEST PUSH1 0x1 PUSH1 0x1 PUSH1 0xA0 SHL SUB SWAP2 DUP3 AND PUSH1 0x0 SWAP1 DUP2 MSTORE PUSH1 0x1 PUSH1 0x20 SWAP1 DUP2 MSTORE PUSH1 0x40 DUP1 DUP4 KECCAK256 SWAP4 SWAP1 SWAP5 AND DUP3 MSTORE SWAP2 SWAP1 SWAP2 MSTORE KECCAK256 SLOAD SWAP1 JUMP JUMPDEST PUSH1 0x60 PUSH2 0x5B7 PUSH2 0x1C8D JUMP JUMPDEST DUP1 PUSH2 0xD5E DUP2 PUSH2 0x20A8 JUMP JUMPDEST POP POP JUMP JUMPDEST PUSH2 0xD5E DUP2 DUP4 EQ PUSH1 0x67 PUSH2 0xF10 JUMP JUMPDEST PUSH1 0x0 DUP3 DUP3 ADD PUSH2 0x5A1 DUP5 DUP3 LT ISZERO DUP4 PUSH2 0xF10 JUMP JUMPDEST PUSH1 0x0 PUSH2 0xD91 DUP4 DUP4 GT ISZERO PUSH1 0x1 PUSH2 0xF10 JUMP JUMPDEST POP SWAP1 SUB SWAP1 JUMP JUMPDEST PUSH1 0x1 PUSH1 0x1 PUSH1 0xA0 SHL SUB DUP1 DUP5 AND PUSH1 0x0 DUP2 DUP2 MSTORE PUSH1 0x1 PUSH1 0x20 SWAP1 DUP2 MSTORE PUSH1 0x40 DUP1 DUP4 KECCAK256 SWAP5 DUP8 AND DUP1 DUP5 MSTORE SWAP5 SWAP1 SWAP2 MSTORE SWAP1 DUP2 SWAP1 KECCAK256 DUP5 SWAP1 SSTORE MLOAD PUSH32 0x8C5BE1E5EBEC7D5BD14F71427D1E84F3DD0314C0F7B2291E5B200AC8C7C3B925 SWAP1 PUSH2 0xDF2 SWAP1 DUP6 SWAP1 PUSH2 0x4575 JUMP JUMPDEST PUSH1 0x40 MLOAD DUP1 SWAP2 SUB SWAP1 LOG3 POP POP POP JUMP JUMPDEST PUSH1 0x0 PUSH2 0xE16 PUSH1 0x0 CALLDATALOAD PUSH1 0x1 PUSH1 0x1 PUSH1 0xE0 SHL SUB NOT AND PUSH2 0x797 JUMP JUMPDEST SWAP1 POP PUSH2 0x4F3 PUSH2 0xE25 DUP3 CALLER PUSH2 0x2121 JUMP JUMPDEST PUSH2 0x191 PUSH2 0xF10 JUMP JUMPDEST DUP1 ISZERO PUSH2 0xE4D JUMPI PUSH2 0xE48 PUSH2 0xE3E PUSH2 0xEC8 JUMP JUMPDEST TIMESTAMP LT PUSH2 0x193 PUSH2 0xF10 JUMP JUMPDEST PUSH2 0xE62 JUMP JUMPDEST PUSH2 0xE62 PUSH2 0xE58 PUSH2 0xEEC JUMP JUMPDEST TIMESTAMP LT PUSH2 0x1A9 PUSH2 0xF10 JUMP JUMPDEST PUSH1 0x6 DUP1 SLOAD PUSH1 0xFF NOT AND DUP3 ISZERO ISZERO OR SWAP1 SSTORE PUSH1 0x40 MLOAD PUSH32 0x9E3A5E37224532DEA67B89FACE185703738A228A6E8A23DEE546960180D3BE64 SWAP1 PUSH2 0xEA0 SWAP1 DUP4 SWAP1 PUSH2 0x4552 JUMP JUMPDEST PUSH1 0x40 MLOAD DUP1 SWAP2 SUB SWAP1 LOG1 POP JUMP JUMPDEST PUSH1 0x0 PUSH2 0xEB5 PUSH2 0xEEC JUMP JUMPDEST TIMESTAMP GT DUP1 PUSH2 0x5B7 JUMPI POP POP PUSH1 0x6 SLOAD PUSH1 0xFF AND ISZERO SWAP1 JUMP JUMPDEST PUSH32 0x0 SWAP1 JUMP JUMPDEST PUSH32 0x0 SWAP1 JUMP JUMPDEST DUP2 PUSH2 0xD5E JUMPI PUSH2 0xD5E DUP2 PUSH2 0x2211 JUMP JUMPDEST PUSH1 0x1 PUSH1 0x1 PUSH1 0xA0 SHL SUB DUP4 AND PUSH1 0x0 SWAP1 DUP2 MSTORE PUSH1 0x20 DUP2 SWAP1 MSTORE PUSH1 0x40 SWAP1 KECCAK256 SLOAD PUSH2 0xF46 DUP3 DUP3 LT ISZERO PUSH2 0x196 PUSH2 0xF10 JUMP JUMPDEST PUSH2 0xF5D PUSH1 0x1 PUSH1 0x1 PUSH1 0xA0 SHL SUB DUP5 AND ISZERO ISZERO PUSH2 0x199 PUSH2 0xF10 JUMP JUMPDEST PUSH1 0x1 PUSH1 0x1 PUSH1 0xA0 SHL SUB DUP1 DUP6 AND PUSH1 0x0 SWAP1 DUP2 MSTORE PUSH1 0x20 DUP2 SWAP1 MSTORE PUSH1 0x40 DUP1 DUP3 KECCAK256 DUP6 DUP6 SUB SWAP1 SSTORE SWAP2 DUP6 AND DUP2 MSTORE KECCAK256 SLOAD PUSH2 0xF8D SWAP1 DUP4 PUSH2 0xD6F JUMP JUMPDEST PUSH1 0x1 PUSH1 0x1 PUSH1 0xA0 SHL SUB DUP1 DUP6 AND PUSH1 0x0 DUP2 DUP2 MSTORE PUSH1 0x20 DUP2 SWAP1 MSTORE PUSH1 0x40 SWAP1 DUP2 SWAP1 KECCAK256 SWAP4 SWAP1 SWAP4 SSTORE SWAP2 MLOAD SWAP1 DUP7 AND SWAP1 PUSH32 0xDDF252AD1BE2C89B69C2B068FC378DAA952BA7F163C4A11628F55A4DF523B3EF SWAP1 PUSH2 0xFDF SWAP1 DUP7 SWAP1 PUSH2 0x4575 JUMP JUMPDEST PUSH1 0x40 MLOAD DUP1 SWAP2 SUB SWAP1 LOG3 POP POP POP POP JUMP JUMPDEST PUSH1 0x0 PUSH32 0x0 PUSH32 0x0 PUSH32 0x0 PUSH2 0x105A PUSH2 0x2264 JUMP JUMPDEST ADDRESS PUSH1 0x40 MLOAD PUSH1 0x20 ADD PUSH2 0x106F SWAP6 SWAP5 SWAP4 SWAP3 SWAP2 SWAP1 PUSH2 0x45D1 JUMP JUMPDEST PUSH1 0x40 MLOAD PUSH1 0x20 DUP2 DUP4 SUB SUB DUP2 MSTORE SWAP1 PUSH1 0x40 MSTORE DUP1 MLOAD SWAP1 PUSH1 0x20 ADD KECCAK256 SWAP1 POP SWAP1 JUMP JUMPDEST PUSH2 0x109D PUSH2 0x1095 PUSH2 0xEAB JUMP JUMPDEST PUSH2 0x192 PUSH2 0xF10 JUMP JUMPDEST JUMP JUMPDEST PUSH2 0x10B2 PUSH5 0xE8D4A51000 DUP3 LT ISZERO PUSH1 0xCB PUSH2 0xF10 JUMP JUMPDEST PUSH2 0x10C8 PUSH8 0x16345785D8A0000 DUP3 GT ISZERO PUSH1 0xCA PUSH2 0xF10 JUMP JUMPDEST PUSH1 0x7 DUP2 SWAP1 SSTORE PUSH1 0x40 MLOAD PUSH32 0xA9BA3FFE0B6C366B81232CAAB38605A0699AD5398D6CCE76F91EE809E322DAFC SWAP1 PUSH2 0xEA0 SWAP1 DUP4 SWAP1 PUSH2 0x4575 JUMP JUMPDEST PUSH32 0x0 SWAP1 JUMP JUMPDEST PUSH1 0x0 PUSH1 0x60 DUP1 PUSH1 0x0 PUSH2 0x1130 PUSH2 0x1C8D JUMP JUMPDEST SWAP1 POP PUSH2 0x113A PUSH2 0xEAB JUMP JUMPDEST ISZERO PUSH2 0x1171 JUMPI PUSH1 0x0 PUSH2 0x114B DUP3 DUP11 PUSH2 0x1EE9 JUMP JUMPDEST SWAP1 POP PUSH2 0x115C DUP10 DUP4 PUSH1 0x8 SLOAD DUP5 DUP12 PUSH2 0x2268 JUMP JUMPDEST SWAP3 POP PUSH2 0x116B DUP10 DUP5 PUSH2 0xD81 PUSH2 0x2378 JUMP JUMPDEST POP PUSH2 0x11BC JUMP JUMPDEST PUSH2 0x1179 PUSH2 0x10FD JUMP JUMPDEST PUSH1 0x1 PUSH1 0x1 PUSH1 0x40 SHL SUB DUP2 GT DUP1 ISZERO PUSH2 0x118E JUMPI PUSH1 0x0 DUP1 REVERT JUMPDEST POP PUSH1 0x40 MLOAD SWAP1 DUP1 DUP3 MSTORE DUP1 PUSH1 0x20 MUL PUSH1 0x20 ADD DUP3 ADD PUSH1 0x40 MSTORE DUP1 ISZERO PUSH2 0x11B8 JUMPI DUP2 PUSH1 0x20 ADD PUSH1 0x20 DUP3 MUL DUP1 CALLDATASIZE DUP4 CALLDATACOPY ADD SWAP1 POP JUMPDEST POP SWAP2 POP JUMPDEST PUSH2 0x11C7 DUP9 DUP3 DUP8 PUSH2 0x23E3 JUMP JUMPDEST SWAP1 SWAP5 POP SWAP3 POP PUSH2 0x11D7 DUP9 DUP5 DUP4 PUSH2 0x2450 JUMP JUMPDEST PUSH1 0x8 SSTORE POP SWAP8 POP SWAP8 POP SWAP8 SWAP5 POP POP POP POP POP JUMP JUMPDEST PUSH1 0x0 JUMPDEST PUSH2 0x11F3 PUSH2 0x10FD JUMP JUMPDEST DUP2 LT ISZERO PUSH2 0x1249 JUMPI PUSH2 0x122A DUP4 DUP3 DUP2 MLOAD DUP2 LT PUSH2 0x1209 JUMPI INVALID JUMPDEST PUSH1 0x20 MUL PUSH1 0x20 ADD ADD MLOAD DUP4 DUP4 DUP2 MLOAD DUP2 LT PUSH2 0x121D JUMPI INVALID JUMPDEST PUSH1 0x20 MUL PUSH1 0x20 ADD ADD MLOAD PUSH2 0x2469 JUMP JUMPDEST DUP4 DUP3 DUP2 MLOAD DUP2 LT PUSH2 0x1236 JUMPI INVALID JUMPDEST PUSH1 0x20 SWAP1 DUP2 MUL SWAP2 SWAP1 SWAP2 ADD ADD MSTORE PUSH1 0x1 ADD PUSH2 0x11EB JUMP JUMPDEST POP POP POP JUMP JUMPDEST CALLER ADDRESS EQ PUSH2 0x130C JUMPI PUSH1 0x0 ADDRESS PUSH1 0x1 PUSH1 0x1 PUSH1 0xA0 SHL SUB AND PUSH1 0x0 CALLDATASIZE PUSH1 0x40 MLOAD PUSH2 0x1272 SWAP3 SWAP2 SWAP1 PUSH2 0x44DB JUMP JUMPDEST PUSH1 0x0 PUSH1 0x40 MLOAD DUP1 DUP4 SUB DUP2 PUSH1 0x0 DUP7 GAS CALL SWAP2 POP POP RETURNDATASIZE DUP1 PUSH1 0x0 DUP2 EQ PUSH2 0x12AF JUMPI PUSH1 0x40 MLOAD SWAP2 POP PUSH1 0x1F NOT PUSH1 0x3F RETURNDATASIZE ADD AND DUP3 ADD PUSH1 0x40 MSTORE RETURNDATASIZE DUP3 MSTORE RETURNDATASIZE PUSH1 0x0 PUSH1 0x20 DUP5 ADD RETURNDATACOPY PUSH2 0x12B4 JUMP JUMPDEST PUSH1 0x60 SWAP2 POP JUMPDEST POP POP SWAP1 POP DUP1 PUSH1 0x0 DUP2 EQ PUSH2 0x12C3 JUMPI INVALID JUMPDEST PUSH1 0x4 PUSH1 0x0 DUP1 RETURNDATACOPY PUSH1 0x0 MLOAD PUSH1 0x1 PUSH1 0x1 PUSH1 0xE0 SHL SUB NOT AND PUSH4 0x43ADBAFB PUSH1 0xE0 SHL DUP2 EQ PUSH2 0x12EE JUMPI RETURNDATASIZE PUSH1 0x0 DUP1 RETURNDATACOPY RETURNDATASIZE PUSH1 0x0 REVERT JUMPDEST POP PUSH1 0x20 PUSH1 0x4 PUSH1 0x0 RETURNDATACOPY PUSH1 0x40 PUSH1 0x20 MSTORE PUSH1 0x24 RETURNDATASIZE SUB PUSH1 0x24 PUSH1 0x40 RETURNDATACOPY PUSH1 0x1C RETURNDATASIZE ADD PUSH1 0x0 RETURN JUMPDEST PUSH1 0x0 PUSH2 0x1316 PUSH2 0x13E4 JUMP JUMPDEST SWAP1 POP PUSH2 0x1322 DUP8 DUP3 PUSH2 0x1660 JUMP JUMPDEST PUSH1 0x0 DUP1 PUSH2 0x1338 DUP13 DUP13 DUP13 DUP13 DUP13 DUP13 DUP13 DUP13 PUSH4 0xFFFFFFFF AND JUMP JUMPDEST POP SWAP2 POP SWAP2 POP PUSH2 0x134B DUP2 DUP5 DUP7 PUSH4 0xFFFFFFFF AND JUMP JUMPDEST DUP1 MLOAD PUSH1 0x1F NOT DUP3 ADD DUP4 SWAP1 MSTORE PUSH4 0x43ADBAFB PUSH1 0x3F NOT DUP4 ADD MSTORE PUSH1 0x20 MUL PUSH1 0x23 NOT DUP3 ADD PUSH1 0x44 DUP3 ADD DUP2 REVERT JUMPDEST PUSH1 0x0 DUP3 DUP3 MUL PUSH2 0x5A1 DUP5 ISZERO DUP1 PUSH2 0x138C JUMPI POP DUP4 DUP6 DUP4 DUP2 PUSH2 0x1389 JUMPI INVALID JUMPDEST DIV EQ JUMPDEST PUSH1 0x3 PUSH2 0xF10 JUMP JUMPDEST PUSH1 0x0 PUSH2 0x13A2 DUP3 ISZERO ISZERO PUSH1 0x4 PUSH2 0xF10 JUMP JUMPDEST DUP3 PUSH2 0x13AF JUMPI POP PUSH1 0x0 PUSH2 0x4DC JUMP JUMPDEST PUSH8 0xDE0B6B3A7640000 DUP4 DUP2 MUL SWAP1 PUSH2 0x13D2 SWAP1 DUP6 DUP4 DUP2 PUSH2 0x13C9 JUMPI INVALID JUMPDEST DIV EQ PUSH1 0x5 PUSH2 0xF10 JUMP JUMPDEST DUP3 DUP2 DUP2 PUSH2 0x13DB JUMPI INVALID JUMPDEST DIV SWAP2 POP POP PUSH2 0x4DC JUMP JUMPDEST PUSH1 0x60 PUSH1 0x0 PUSH2 0x13F0 PUSH2 0x10FD JUMP JUMPDEST SWAP1 POP PUSH1 0x0 DUP2 PUSH1 0x1 PUSH1 0x1 PUSH1 0x40 SHL SUB DUP2 GT DUP1 ISZERO PUSH2 0x140A JUMPI PUSH1 0x0 DUP1 REVERT JUMPDEST POP PUSH1 0x40 MLOAD SWAP1 DUP1 DUP3 MSTORE DUP1 PUSH1 0x20 MUL PUSH1 0x20 ADD DUP3 ADD PUSH1 0x40 MSTORE DUP1 ISZERO PUSH2 0x1434 JUMPI DUP2 PUSH1 0x20 ADD PUSH1 0x20 DUP3 MUL DUP1 CALLDATASIZE DUP4 CALLDATACOPY ADD SWAP1 POP JUMPDEST POP SWAP1 POP DUP2 ISZERO PUSH2 0x147C JUMPI PUSH32 0x0 DUP2 PUSH1 0x0 DUP2 MLOAD DUP2 LT PUSH2 0x146B JUMPI INVALID JUMPDEST PUSH1 0x20 MUL PUSH1 0x20 ADD ADD DUP2 DUP2 MSTORE POP POP PUSH2 0x1485 JUMP JUMPDEST SWAP2 POP PUSH2 0x4C8 SWAP1 POP JUMP JUMPDEST PUSH1 0x1 DUP3 GT ISZERO PUSH2 0x147C JUMPI PUSH32 0x0 DUP2 PUSH1 0x1 DUP2 MLOAD DUP2 LT PUSH2 0x14BC JUMPI INVALID JUMPDEST PUSH1 0x20 MUL PUSH1 0x20 ADD ADD DUP2 DUP2 MSTORE POP POP PUSH1 0x2 DUP3 GT ISZERO PUSH2 0x147C JUMPI PUSH32 0x0 DUP2 PUSH1 0x2 DUP2 MLOAD DUP2 LT PUSH2 0x14FF JUMPI INVALID JUMPDEST PUSH1 0x20 MUL PUSH1 0x20 ADD ADD DUP2 DUP2 MSTORE POP POP PUSH1 0x3 DUP3 GT ISZERO PUSH2 0x147C JUMPI PUSH32 0x0 DUP2 PUSH1 0x3 DUP2 MLOAD DUP2 LT PUSH2 0x1542 JUMPI INVALID JUMPDEST PUSH1 0x20 MUL PUSH1 0x20 ADD ADD DUP2 DUP2 MSTORE POP POP PUSH1 0x4 DUP3 GT ISZERO PUSH2 0x147C JUMPI PUSH32 0x0 DUP2 PUSH1 0x4 DUP2 MLOAD DUP2 LT PUSH2 0x1585 JUMPI INVALID JUMPDEST PUSH1 0x20 MUL PUSH1 0x20 ADD ADD DUP2 DUP2 MSTORE POP POP PUSH1 0x5 DUP3 GT ISZERO PUSH2 0x147C JUMPI PUSH32 0x0 DUP2 PUSH1 0x5 DUP2 MLOAD DUP2 LT PUSH2 0x15C8 JUMPI INVALID JUMPDEST PUSH1 0x20 MUL PUSH1 0x20 ADD ADD DUP2 DUP2 MSTORE POP POP PUSH1 0x6 DUP3 GT ISZERO PUSH2 0x147C JUMPI PUSH32 0x0 DUP2 PUSH1 0x6 DUP2 MLOAD DUP2 LT PUSH2 0x160B JUMPI INVALID JUMPDEST PUSH1 0x20 MUL PUSH1 0x20 ADD ADD DUP2 DUP2 MSTORE POP POP PUSH1 0x7 DUP3 GT ISZERO PUSH2 0x147C JUMPI PUSH32 0x0 DUP2 PUSH1 0x7 DUP2 MLOAD DUP2 LT PUSH2 0x164E JUMPI INVALID JUMPDEST PUSH1 0x20 MUL PUSH1 0x20 ADD ADD DUP2 DUP2 MSTORE POP POP SWAP2 POP POP SWAP1 JUMP JUMPDEST PUSH1 0x0 JUMPDEST PUSH2 0x166B PUSH2 0x10FD JUMP JUMPDEST DUP2 LT ISZERO PUSH2 0x1249 JUMPI PUSH2 0x16A2 DUP4 DUP3 DUP2 MLOAD DUP2 LT PUSH2 0x1681 JUMPI INVALID JUMPDEST PUSH1 0x20 MUL PUSH1 0x20 ADD ADD MLOAD DUP4 DUP4 DUP2 MLOAD DUP2 LT PUSH2 0x1695 JUMPI INVALID JUMPDEST PUSH1 0x20 MUL PUSH1 0x20 ADD ADD MLOAD PUSH2 0x136F JUMP JUMPDEST DUP4 DUP3 DUP2 MLOAD DUP2 LT PUSH2 0x16AE JUMPI INVALID JUMPDEST PUSH1 0x20 SWAP1 DUP2 MUL SWAP2 SWAP1 SWAP2 ADD ADD MSTORE PUSH1 0x1 ADD PUSH2 0x1663 JUMP JUMPDEST PUSH1 0x1 PUSH1 0x1 PUSH1 0xA0 SHL SUB DUP3 AND PUSH1 0x0 SWAP1 DUP2 MSTORE PUSH1 0x20 DUP2 SWAP1 MSTORE PUSH1 0x40 SWAP1 KECCAK256 SLOAD PUSH2 0x16E9 DUP3 DUP3 LT ISZERO PUSH2 0x196 PUSH2 0xF10 JUMP JUMPDEST PUSH1 0x1 PUSH1 0x1 PUSH1 0xA0 SHL SUB DUP4 AND PUSH1 0x0 SWAP1 DUP2 MSTORE PUSH1 0x20 DUP2 SWAP1 MSTORE PUSH1 0x40 SWAP1 KECCAK256 DUP3 DUP3 SUB SWAP1 SSTORE PUSH1 0x2 SLOAD PUSH2 0x1713 SWAP1 DUP4 PUSH2 0xD81 JUMP JUMPDEST PUSH1 0x2 SSTORE PUSH1 0x40 MLOAD PUSH1 0x0 SWAP1 PUSH1 0x1 PUSH1 0x1 PUSH1 0xA0 SHL SUB DUP6 AND SWAP1 PUSH32 0xDDF252AD1BE2C89B69C2B068FC378DAA952BA7F163C4A11628F55A4DF523B3EF SWAP1 PUSH2 0xDF2 SWAP1 DUP7 SWAP1 PUSH2 0x4575 JUMP JUMPDEST PUSH1 0x0 PUSH1 0x60 DUP1 PUSH2 0x1761 PUSH2 0x108A JUMP JUMPDEST PUSH1 0x0 PUSH2 0x176B PUSH2 0x1C8D JUMP JUMPDEST SWAP1 POP PUSH1 0x0 PUSH2 0x1779 DUP3 DUP11 PUSH2 0x1EE9 JUMP JUMPDEST SWAP1 POP PUSH1 0x0 PUSH2 0x178C DUP11 DUP5 PUSH1 0x8 SLOAD DUP6 DUP13 PUSH2 0x2268 JUMP JUMPDEST SWAP1 POP PUSH2 0x179B DUP11 DUP3 PUSH2 0xD81 PUSH2 0x2378 JUMP JUMPDEST PUSH1 0x0 DUP1 PUSH2 0x17A9 DUP13 DUP7 DUP12 PUSH2 0x2489 JUMP JUMPDEST SWAP2 POP SWAP2 POP PUSH2 0x17B8 DUP13 DUP3 DUP8 PUSH2 0x24E3 JUMP JUMPDEST PUSH1 0x8 SSTORE SWAP1 SWAP15 SWAP1 SWAP14 POP SWAP1 SWAP12 POP SWAP10 POP POP POP POP POP POP POP POP POP POP JUMP JUMPDEST PUSH1 0x0 JUMPDEST PUSH2 0x17DB PUSH2 0x10FD JUMP JUMPDEST DUP2 LT ISZERO PUSH2 0x1249 JUMPI PUSH2 0x1812 DUP4 DUP3 DUP2 MLOAD DUP2 LT PUSH2 0x17F1 JUMPI INVALID JUMPDEST PUSH1 0x20 MUL PUSH1 0x20 ADD ADD MLOAD DUP4 DUP4 DUP2 MLOAD DUP2 LT PUSH2 0x1805 JUMPI INVALID JUMPDEST PUSH1 0x20 MUL PUSH1 0x20 ADD ADD MLOAD PUSH2 0x24F2 JUMP JUMPDEST DUP4 DUP3 DUP2 MLOAD DUP2 LT PUSH2 0x181E JUMPI INVALID JUMPDEST PUSH1 0x20 SWAP1 DUP2 MUL SWAP2 SWAP1 SWAP2 ADD ADD MSTORE PUSH1 0x1 ADD PUSH2 0x17D3 JUMP JUMPDEST PUSH1 0x0 PUSH32 0x0 PUSH1 0x1 PUSH1 0x1 PUSH1 0xA0 SHL SUB AND DUP3 PUSH1 0x1 PUSH1 0x1 PUSH1 0xA0 SHL SUB AND EQ ISZERO PUSH2 0x1894 JUMPI POP PUSH32 0x0 PUSH2 0x6D5 JUMP JUMPDEST PUSH32 0x0 PUSH1 0x1 PUSH1 0x1 PUSH1 0xA0 SHL SUB AND DUP3 PUSH1 0x1 PUSH1 0x1 PUSH1 0xA0 SHL SUB AND EQ ISZERO PUSH2 0x18F5 JUMPI POP PUSH32 0x0 PUSH2 0x6D5 JUMP JUMPDEST PUSH32 0x0 PUSH1 0x1 PUSH1 0x1 PUSH1 0xA0 SHL SUB AND DUP3 PUSH1 0x1 PUSH1 0x1 PUSH1 0xA0 SHL SUB AND EQ ISZERO PUSH2 0x1956 JUMPI POP PUSH32 0x0 PUSH2 0x6D5 JUMP JUMPDEST PUSH32 0x0 PUSH1 0x1 PUSH1 0x1 PUSH1 0xA0 SHL SUB AND DUP3 PUSH1 0x1 PUSH1 0x1 PUSH1 0xA0 SHL SUB AND EQ ISZERO PUSH2 0x19B7 JUMPI POP PUSH32 0x0 PUSH2 0x6D5 JUMP JUMPDEST PUSH32 0x0 PUSH1 0x1 PUSH1 0x1 PUSH1 0xA0 SHL SUB AND DUP3 PUSH1 0x1 PUSH1 0x1 PUSH1 0xA0 SHL SUB AND EQ ISZERO PUSH2 0x1A18 JUMPI POP PUSH32 0x0 PUSH2 0x6D5 JUMP JUMPDEST PUSH32 0x0 PUSH1 0x1 PUSH1 0x1 PUSH1 0xA0 SHL SUB AND DUP3 PUSH1 0x1 PUSH1 0x1 PUSH1 0xA0 SHL SUB AND EQ ISZERO PUSH2 0x1A79 JUMPI POP PUSH32 0x0 PUSH2 0x6D5 JUMP JUMPDEST PUSH32 0x0 PUSH1 0x1 PUSH1 0x1 PUSH1 0xA0 SHL SUB AND DUP3 PUSH1 0x1 PUSH1 0x1 PUSH1 0xA0 SHL SUB AND EQ ISZERO PUSH2 0x1ADA JUMPI POP PUSH32 0x0 PUSH2 0x6D5 JUMP JUMPDEST PUSH32 0x0 PUSH1 0x1 PUSH1 0x1 PUSH1 0xA0 SHL SUB AND DUP3 PUSH1 0x1 PUSH1 0x1 PUSH1 0xA0 SHL SUB AND EQ ISZERO PUSH2 0x1B3B JUMPI POP PUSH32 0x0 PUSH2 0x6D5 JUMP JUMPDEST PUSH2 0x6D5 PUSH2 0x135 PUSH2 0x2211 JUMP JUMPDEST PUSH1 0x0 DUP1 PUSH2 0x1B5E PUSH1 0x7 SLOAD DUP5 PUSH2 0x2525 SWAP1 SWAP2 SWAP1 PUSH4 0xFFFFFFFF AND JUMP JUMPDEST SWAP1 POP PUSH2 0x5A1 DUP4 DUP3 PUSH2 0xD81 JUMP JUMPDEST PUSH1 0x0 PUSH2 0x5A1 DUP4 DUP4 PUSH2 0x136F JUMP JUMPDEST PUSH1 0x0 PUSH2 0x1B80 PUSH2 0x108A JUMP JUMPDEST PUSH2 0x1BA9 DUP4 PUSH2 0x1B91 DUP7 PUSH1 0x20 ADD MLOAD PUSH2 0x2569 JUMP JUMPDEST DUP5 PUSH2 0x1B9F DUP9 PUSH1 0x40 ADD MLOAD PUSH2 0x2569 JUMP JUMPDEST DUP9 PUSH1 0x60 ADD MLOAD PUSH2 0x2873 JUMP JUMPDEST SWAP5 SWAP4 POP POP POP POP JUMP JUMPDEST PUSH1 0x0 PUSH2 0x5A1 DUP4 DUP4 PUSH2 0x2469 JUMP JUMPDEST PUSH1 0x0 PUSH2 0x1BC7 PUSH2 0x108A JUMP JUMPDEST PUSH2 0x1BA9 DUP4 PUSH2 0x1BD8 DUP7 PUSH1 0x20 ADD MLOAD PUSH2 0x2569 JUMP JUMPDEST DUP5 PUSH2 0x1BE6 DUP9 PUSH1 0x40 ADD MLOAD PUSH2 0x2569 JUMP JUMPDEST DUP9 PUSH1 0x60 ADD MLOAD PUSH2 0x28EE JUMP JUMPDEST PUSH1 0x0 PUSH2 0x5A1 DUP4 DUP4 PUSH2 0x24F2 JUMP JUMPDEST PUSH1 0x0 PUSH2 0x4DC PUSH2 0x1C0C PUSH1 0x7 SLOAD PUSH2 0x2964 JUMP JUMPDEST DUP4 SWAP1 PUSH2 0x298A JUMP JUMPDEST PUSH1 0x0 PUSH2 0x1C1D PUSH2 0x833 JUMP JUMPDEST PUSH1 0x1 PUSH1 0x1 PUSH1 0xA0 SHL SUB AND PUSH4 0xAAABADC5 PUSH1 0x40 MLOAD DUP2 PUSH4 0xFFFFFFFF AND PUSH1 0xE0 SHL DUP2 MSTORE PUSH1 0x4 ADD PUSH1 0x20 PUSH1 0x40 MLOAD DUP1 DUP4 SUB DUP2 DUP7 DUP1 EXTCODESIZE ISZERO DUP1 ISZERO PUSH2 0x1C55 JUMPI PUSH1 0x0 DUP1 REVERT JUMPDEST POP GAS STATICCALL ISZERO DUP1 ISZERO PUSH2 0x1C69 JUMPI RETURNDATASIZE PUSH1 0x0 DUP1 RETURNDATACOPY RETURNDATASIZE PUSH1 0x0 REVERT JUMPDEST POP POP POP POP PUSH1 0x40 MLOAD RETURNDATASIZE PUSH1 0x1F NOT PUSH1 0x1F DUP3 ADD AND DUP3 ADD DUP1 PUSH1 0x40 MSTORE POP DUP2 ADD SWAP1 PUSH2 0x5B7 SWAP2 SWAP1 PUSH2 0x424C JUMP JUMPDEST PUSH1 0x60 PUSH1 0x0 PUSH2 0x1C99 PUSH2 0x10FD JUMP JUMPDEST SWAP1 POP PUSH1 0x0 DUP2 PUSH1 0x1 PUSH1 0x1 PUSH1 0x40 SHL SUB DUP2 GT DUP1 ISZERO PUSH2 0x1CB3 JUMPI PUSH1 0x0 DUP1 REVERT JUMPDEST POP PUSH1 0x40 MLOAD SWAP1 DUP1 DUP3 MSTORE DUP1 PUSH1 0x20 MUL PUSH1 0x20 ADD DUP3 ADD PUSH1 0x40 MSTORE DUP1 ISZERO PUSH2 0x1CDD JUMPI DUP2 PUSH1 0x20 ADD PUSH1 0x20 DUP3 MUL DUP1 CALLDATASIZE DUP4 CALLDATACOPY ADD SWAP1 POP JUMPDEST POP SWAP1 POP DUP2 ISZERO PUSH2 0x147C JUMPI PUSH32 0x0 DUP2 PUSH1 0x0 DUP2 MLOAD DUP2 LT PUSH2 0x1D14 JUMPI INVALID JUMPDEST PUSH1 0x20 MUL PUSH1 0x20 ADD ADD DUP2 DUP2 MSTORE POP POP PUSH1 0x1 DUP3 GT ISZERO PUSH2 0x147C JUMPI PUSH32 0x0 DUP2 PUSH1 0x1 DUP2 MLOAD DUP2 LT PUSH2 0x1D57 JUMPI INVALID JUMPDEST PUSH1 0x20 MUL PUSH1 0x20 ADD ADD DUP2 DUP2 MSTORE POP POP PUSH1 0x2 DUP3 GT ISZERO PUSH2 0x147C JUMPI PUSH32 0x0 DUP2 PUSH1 0x2 DUP2 MLOAD DUP2 LT PUSH2 0x1D9A JUMPI INVALID JUMPDEST PUSH1 0x20 MUL PUSH1 0x20 ADD ADD DUP2 DUP2 MSTORE POP POP PUSH1 0x3 DUP3 GT ISZERO PUSH2 0x147C JUMPI PUSH32 0x0 DUP2 PUSH1 0x3 DUP2 MLOAD DUP2 LT PUSH2 0x1DDD JUMPI INVALID JUMPDEST PUSH1 0x20 MUL PUSH1 0x20 ADD ADD DUP2 DUP2 MSTORE POP POP PUSH1 0x4 DUP3 GT ISZERO PUSH2 0x147C JUMPI PUSH32 0x0 DUP2 PUSH1 0x4 DUP2 MLOAD DUP2 LT PUSH2 0x1E20 JUMPI INVALID JUMPDEST PUSH1 0x20 MUL PUSH1 0x20 ADD ADD DUP2 DUP2 MSTORE POP POP PUSH1 0x5 DUP3 GT ISZERO PUSH2 0x147C JUMPI PUSH32 0x0 DUP2 PUSH1 0x5 DUP2 MLOAD DUP2 LT PUSH2 0x1E63 JUMPI INVALID JUMPDEST PUSH1 0x20 MUL PUSH1 0x20 ADD ADD DUP2 DUP2 MSTORE POP POP PUSH1 0x6 DUP3 GT ISZERO PUSH2 0x147C JUMPI PUSH32 0x0 DUP2 PUSH1 0x6 DUP2 MLOAD DUP2 LT PUSH2 0x1EA6 JUMPI INVALID JUMPDEST PUSH1 0x20 MUL PUSH1 0x20 ADD ADD DUP2 DUP2 MSTORE POP POP PUSH1 0x7 DUP3 GT ISZERO PUSH2 0x147C JUMPI PUSH32 0x0 DUP2 PUSH1 0x7 DUP2 MLOAD DUP2 LT PUSH2 0x164E JUMPI INVALID JUMPDEST PUSH8 0xDE0B6B3A7640000 PUSH1 0x0 JUMPDEST DUP4 MLOAD DUP2 LT ISZERO PUSH2 0x1F4B JUMPI PUSH2 0x1F41 PUSH2 0x1F3A DUP6 DUP4 DUP2 MLOAD DUP2 LT PUSH2 0x1F10 JUMPI INVALID JUMPDEST PUSH1 0x20 MUL PUSH1 0x20 ADD ADD MLOAD DUP6 DUP5 DUP2 MLOAD DUP2 LT PUSH2 0x1F24 JUMPI INVALID JUMPDEST PUSH1 0x20 MUL PUSH1 0x20 ADD ADD MLOAD PUSH2 0x29CC SWAP1 SWAP2 SWAP1 PUSH4 0xFFFFFFFF AND JUMP JUMPDEST DUP4 SWAP1 PUSH2 0x2A1B JUMP JUMPDEST SWAP2 POP PUSH1 0x1 ADD PUSH2 0x1EF5 JUMP JUMPDEST POP PUSH2 0x4DC PUSH1 0x0 DUP3 GT PUSH2 0x137 PUSH2 0xF10 JUMP JUMPDEST PUSH1 0x0 PUSH2 0x1F65 PUSH2 0xFED JUMP JUMPDEST DUP3 PUSH1 0x40 MLOAD PUSH1 0x20 ADD PUSH2 0x7CC SWAP3 SWAP2 SWAP1 PUSH2 0x44EB JUMP JUMPDEST PUSH1 0x0 PUSH1 0x60 PUSH2 0x1F83 PUSH2 0x108A JUMP JUMPDEST PUSH1 0x0 PUSH2 0x1F8E DUP5 PUSH2 0x2A47 JUMP JUMPDEST SWAP1 POP PUSH2 0x1FA9 PUSH1 0x0 DUP3 PUSH1 0x2 DUP2 GT ISZERO PUSH2 0x1FA1 JUMPI INVALID JUMPDEST EQ PUSH1 0xCE PUSH2 0xF10 JUMP JUMPDEST PUSH1 0x0 PUSH2 0x1FB4 DUP6 PUSH2 0x2A5D JUMP JUMPDEST SWAP1 POP PUSH2 0x1FC8 PUSH2 0x1FC1 PUSH2 0x10FD JUMP JUMPDEST DUP3 MLOAD PUSH2 0xD62 JUMP JUMPDEST PUSH2 0x1FD4 DUP2 PUSH2 0xA5D PUSH2 0x13E4 JUMP JUMPDEST PUSH1 0x0 PUSH2 0x1FDE PUSH2 0x1C8D JUMP JUMPDEST SWAP1 POP PUSH1 0x0 PUSH2 0x1FEC DUP3 DUP5 PUSH2 0x1EE9 JUMP JUMPDEST SWAP1 POP PUSH1 0x0 PUSH2 0x1FFC DUP3 PUSH2 0x6B0 PUSH2 0x10FD JUMP JUMPDEST PUSH1 0x8 SWAP3 SWAP1 SWAP3 SSTORE POP SWAP10 SWAP2 SWAP9 POP SWAP1 SWAP7 POP POP POP POP POP POP POP JUMP JUMPDEST PUSH1 0x1 PUSH1 0x1 PUSH1 0xA0 SHL SUB DUP3 AND PUSH1 0x0 SWAP1 DUP2 MSTORE PUSH1 0x20 DUP2 SWAP1 MSTORE PUSH1 0x40 SWAP1 KECCAK256 SLOAD PUSH2 0x2035 SWAP1 DUP3 PUSH2 0xD6F JUMP JUMPDEST PUSH1 0x1 PUSH1 0x1 PUSH1 0xA0 SHL SUB DUP4 AND PUSH1 0x0 SWAP1 DUP2 MSTORE PUSH1 0x20 DUP2 SWAP1 MSTORE PUSH1 0x40 SWAP1 KECCAK256 SSTORE PUSH1 0x2 SLOAD PUSH2 0x205B SWAP1 DUP3 PUSH2 0xD6F JUMP JUMPDEST PUSH1 0x2 SSTORE PUSH1 0x40 MLOAD PUSH1 0x1 PUSH1 0x1 PUSH1 0xA0 SHL SUB DUP4 AND SWAP1 PUSH1 0x0 SWAP1 PUSH32 0xDDF252AD1BE2C89B69C2B068FC378DAA952BA7F163C4A11628F55A4DF523B3EF SWAP1 PUSH2 0x209C SWAP1 DUP6 SWAP1 PUSH2 0x4575 JUMP JUMPDEST PUSH1 0x40 MLOAD DUP1 SWAP2 SUB SWAP1 LOG3 POP POP JUMP JUMPDEST PUSH1 0x2 DUP2 MLOAD LT ISZERO PUSH2 0x20B7 JUMPI PUSH2 0x4F3 JUMP JUMPDEST PUSH1 0x0 DUP2 PUSH1 0x0 DUP2 MLOAD DUP2 LT PUSH2 0x20C6 JUMPI INVALID JUMPDEST PUSH1 0x20 MUL PUSH1 0x20 ADD ADD MLOAD SWAP1 POP PUSH1 0x0 PUSH1 0x1 SWAP1 POP JUMPDEST DUP3 MLOAD DUP2 LT ISZERO PUSH2 0x1249 JUMPI PUSH1 0x0 DUP4 DUP3 DUP2 MLOAD DUP2 LT PUSH2 0x20EE JUMPI INVALID JUMPDEST PUSH1 0x20 MUL PUSH1 0x20 ADD ADD MLOAD SWAP1 POP PUSH2 0x2117 DUP2 PUSH1 0x1 PUSH1 0x1 PUSH1 0xA0 SHL SUB AND DUP5 PUSH1 0x1 PUSH1 0x1 PUSH1 0xA0 SHL SUB AND LT PUSH1 0x65 PUSH2 0xF10 JUMP JUMPDEST SWAP2 POP PUSH1 0x1 ADD PUSH2 0x20D7 JUMP JUMPDEST PUSH1 0x0 PUSH20 0xBA1BA1BA1BA1BA1BA1BA1BA1BA1BA1BA1BA1BA1B PUSH2 0x2140 PUSH2 0x80F JUMP JUMPDEST PUSH1 0x1 PUSH1 0x1 PUSH1 0xA0 SHL SUB AND EQ ISZERO DUP1 ISZERO PUSH2 0x215B JUMPI POP PUSH2 0x215B DUP4 PUSH2 0x2A73 JUMP JUMPDEST ISZERO PUSH2 0x2183 JUMPI PUSH2 0x2168 PUSH2 0x80F JUMP JUMPDEST PUSH1 0x1 PUSH1 0x1 PUSH1 0xA0 SHL SUB AND CALLER PUSH1 0x1 PUSH1 0x1 PUSH1 0xA0 SHL SUB AND EQ SWAP1 POP PUSH2 0x4DC JUMP JUMPDEST PUSH2 0x218B PUSH2 0x1C13 JUMP JUMPDEST PUSH1 0x1 PUSH1 0x1 PUSH1 0xA0 SHL SUB AND PUSH4 0x9BE2A884 DUP5 DUP5 ADDRESS PUSH1 0x40 MLOAD DUP5 PUSH4 0xFFFFFFFF AND PUSH1 0xE0 SHL DUP2 MSTORE PUSH1 0x4 ADD PUSH2 0x21BA SWAP4 SWAP3 SWAP2 SWAP1 PUSH2 0x457E JUMP JUMPDEST PUSH1 0x20 PUSH1 0x40 MLOAD DUP1 DUP4 SUB DUP2 DUP7 DUP1 EXTCODESIZE ISZERO DUP1 ISZERO PUSH2 0x21D2 JUMPI PUSH1 0x0 DUP1 REVERT JUMPDEST POP GAS STATICCALL ISZERO DUP1 ISZERO PUSH2 0x21E6 JUMPI RETURNDATASIZE PUSH1 0x0 DUP1 RETURNDATACOPY RETURNDATASIZE PUSH1 0x0 REVERT JUMPDEST POP POP POP POP PUSH1 0x40 MLOAD RETURNDATASIZE PUSH1 0x1F NOT PUSH1 0x1F DUP3 ADD AND DUP3 ADD DUP1 PUSH1 0x40 MSTORE POP DUP2 ADD SWAP1 PUSH2 0x220A SWAP2 SWAP1 PUSH2 0x410C JUMP JUMPDEST SWAP1 POP PUSH2 0x4DC JUMP JUMPDEST PUSH3 0x461BCD PUSH1 0xE5 SHL PUSH1 0x0 SWAP1 DUP2 MSTORE PUSH1 0x20 PUSH1 0x4 MSTORE PUSH1 0x7 PUSH1 0x24 MSTORE PUSH7 0x42414C23000030 PUSH1 0xA DUP1 DUP5 DIV DUP2 DUP2 MOD PUSH1 0x30 SWAP1 DUP2 ADD PUSH1 0x8 SHL SWAP6 DUP4 SWAP1 MOD SWAP6 SWAP1 SWAP6 ADD SWAP1 DUP3 SWAP1 DIV SWAP2 DUP3 MOD SWAP1 SWAP5 ADD PUSH1 0x10 SHL SWAP4 SWAP1 SWAP4 ADD ADD PUSH1 0xC8 SHL PUSH1 0x44 MSTORE PUSH1 0x64 SWAP1 REVERT JUMPDEST CHAINID SWAP1 JUMP JUMPDEST PUSH1 0x60 PUSH1 0x0 PUSH2 0x2274 PUSH2 0x10FD JUMP JUMPDEST PUSH1 0x1 PUSH1 0x1 PUSH1 0x40 SHL SUB DUP2 GT DUP1 ISZERO PUSH2 0x2289 JUMPI PUSH1 0x0 DUP1 REVERT JUMPDEST POP PUSH1 0x40 MLOAD SWAP1 DUP1 DUP3 MSTORE DUP1 PUSH1 0x20 MUL PUSH1 0x20 ADD DUP3 ADD PUSH1 0x40 MSTORE DUP1 ISZERO PUSH2 0x22B3 JUMPI DUP2 PUSH1 0x20 ADD PUSH1 0x20 DUP3 MUL DUP1 CALLDATASIZE DUP4 CALLDATACOPY ADD SWAP1 POP JUMPDEST POP SWAP1 POP DUP3 PUSH2 0x22C2 JUMPI SWAP1 POP PUSH2 0x236F JUMP JUMPDEST PUSH2 0x2335 DUP8 PUSH32 0x0 DUP2 MLOAD DUP2 LT PUSH2 0x22F1 JUMPI INVALID JUMPDEST PUSH1 0x20 MUL PUSH1 0x20 ADD ADD MLOAD DUP8 PUSH32 0x0 DUP2 MLOAD DUP2 LT PUSH2 0x2325 JUMPI INVALID JUMPDEST PUSH1 0x20 MUL PUSH1 0x20 ADD ADD MLOAD DUP8 DUP8 DUP8 PUSH2 0x2A8D JUMP JUMPDEST DUP2 PUSH32 0x0 DUP2 MLOAD DUP2 LT PUSH2 0x2361 JUMPI INVALID JUMPDEST PUSH1 0x20 SWAP1 DUP2 MUL SWAP2 SWAP1 SWAP2 ADD ADD MSTORE SWAP1 POP JUMPDEST SWAP6 SWAP5 POP POP POP POP POP JUMP JUMPDEST PUSH1 0x0 JUMPDEST PUSH2 0x2383 PUSH2 0x10FD JUMP JUMPDEST DUP2 LT ISZERO PUSH2 0x23DD JUMPI PUSH2 0x23BE DUP5 DUP3 DUP2 MLOAD DUP2 LT PUSH2 0x2399 JUMPI INVALID JUMPDEST PUSH1 0x20 MUL PUSH1 0x20 ADD ADD MLOAD DUP5 DUP4 DUP2 MLOAD DUP2 LT PUSH2 0x23AD JUMPI INVALID JUMPDEST PUSH1 0x20 MUL PUSH1 0x20 ADD ADD MLOAD DUP5 PUSH4 0xFFFFFFFF AND JUMP JUMPDEST DUP5 DUP3 DUP2 MLOAD DUP2 LT PUSH2 0x23CA JUMPI INVALID JUMPDEST PUSH1 0x20 SWAP1 DUP2 MUL SWAP2 SWAP1 SWAP2 ADD ADD MSTORE PUSH1 0x1 ADD PUSH2 0x237B JUMP JUMPDEST POP POP POP POP JUMP JUMPDEST PUSH1 0x0 PUSH1 0x60 PUSH1 0x0 PUSH2 0x23F2 DUP5 PUSH2 0x2A47 JUMP JUMPDEST SWAP1 POP PUSH1 0x0 DUP2 PUSH1 0x2 DUP2 GT ISZERO PUSH2 0x2402 JUMPI INVALID JUMPDEST EQ ISZERO PUSH2 0x241D JUMPI PUSH2 0x2413 DUP7 DUP7 DUP7 PUSH2 0x2B05 JUMP JUMPDEST SWAP3 POP SWAP3 POP POP PUSH2 0x2448 JUMP JUMPDEST PUSH1 0x1 DUP2 PUSH1 0x2 DUP2 GT ISZERO PUSH2 0x242B JUMPI INVALID JUMPDEST EQ ISZERO PUSH2 0x243B JUMPI PUSH2 0x2413 DUP7 DUP6 PUSH2 0x2BE2 JUMP JUMPDEST PUSH2 0x2413 DUP7 DUP7 DUP7 PUSH2 0x2C14 JUMP JUMPDEST POP JUMPDEST SWAP4 POP SWAP4 SWAP2 POP POP JUMP JUMPDEST PUSH1 0x0 PUSH2 0x245F DUP5 DUP5 PUSH2 0xD81 PUSH2 0x2378 JUMP JUMPDEST PUSH2 0x1BA9 DUP3 DUP6 PUSH2 0x1EE9 JUMP JUMPDEST PUSH1 0x0 PUSH2 0x2478 DUP3 ISZERO ISZERO PUSH1 0x4 PUSH2 0xF10 JUMP JUMPDEST DUP2 DUP4 DUP2 PUSH2 0x2481 JUMPI INVALID JUMPDEST DIV SWAP4 SWAP3 POP POP POP JUMP JUMPDEST PUSH1 0x0 PUSH1 0x60 PUSH1 0x0 PUSH2 0x2498 DUP5 PUSH2 0x2A47 JUMP JUMPDEST SWAP1 POP PUSH1 0x1 DUP2 PUSH1 0x2 DUP2 GT ISZERO PUSH2 0x24A8 JUMPI INVALID JUMPDEST EQ ISZERO PUSH2 0x24B9 JUMPI PUSH2 0x2413 DUP7 DUP7 DUP7 PUSH2 0x2C7E JUMP JUMPDEST PUSH1 0x2 DUP2 PUSH1 0x2 DUP2 GT ISZERO PUSH2 0x24C7 JUMPI INVALID JUMPDEST EQ ISZERO PUSH2 0x24D8 JUMPI PUSH2 0x2413 DUP7 DUP7 DUP7 PUSH2 0x2CD8 JUMP JUMPDEST PUSH2 0x2446 PUSH2 0x136 PUSH2 0x2211 JUMP JUMPDEST PUSH1 0x0 PUSH2 0x245F DUP5 DUP5 PUSH2 0xD6F PUSH2 0x2378 JUMP JUMPDEST PUSH1 0x0 PUSH2 0x2501 DUP3 ISZERO ISZERO PUSH1 0x4 PUSH2 0xF10 JUMP JUMPDEST DUP3 PUSH2 0x250E JUMPI POP PUSH1 0x0 PUSH2 0x4DC JUMP JUMPDEST DUP2 PUSH1 0x1 DUP5 SUB DUP2 PUSH2 0x251A JUMPI INVALID JUMPDEST DIV PUSH1 0x1 ADD SWAP1 POP PUSH2 0x4DC JUMP JUMPDEST PUSH1 0x0 DUP3 DUP3 MUL PUSH2 0x253F DUP5 ISZERO DUP1 PUSH2 0x138C JUMPI POP DUP4 DUP6 DUP4 DUP2 PUSH2 0x1389 JUMPI INVALID JUMPDEST DUP1 PUSH2 0x254E JUMPI PUSH1 0x0 SWAP2 POP POP PUSH2 0x4DC JUMP JUMPDEST PUSH8 0xDE0B6B3A7640000 PUSH1 0x0 NOT DUP3 ADD JUMPDEST DIV PUSH1 0x1 ADD SWAP2 POP POP PUSH2 0x4DC JUMP JUMPDEST PUSH1 0x0 PUSH32 0x0 PUSH1 0x1 PUSH1 0x1 PUSH1 0xA0 SHL SUB AND DUP3 PUSH1 0x1 PUSH1 0x1 PUSH1 0xA0 SHL SUB AND EQ ISZERO PUSH2 0x25CC JUMPI POP PUSH32 0x0 PUSH2 0x6D5 JUMP JUMPDEST PUSH32 0x0 PUSH1 0x1 PUSH1 0x1 PUSH1 0xA0 SHL SUB AND DUP3 PUSH1 0x1 PUSH1 0x1 PUSH1 0xA0 SHL SUB AND EQ ISZERO PUSH2 0x262D JUMPI POP PUSH32 0x0 PUSH2 0x6D5 JUMP JUMPDEST PUSH32 0x0 PUSH1 0x1 PUSH1 0x1 PUSH1 0xA0 SHL SUB AND DUP3 PUSH1 0x1 PUSH1 0x1 PUSH1 0xA0 SHL SUB AND EQ ISZERO PUSH2 0x268E JUMPI POP PUSH32 0x0 PUSH2 0x6D5 JUMP JUMPDEST PUSH32 0x0 PUSH1 0x1 PUSH1 0x1 PUSH1 0xA0 SHL SUB AND DUP3 PUSH1 0x1 PUSH1 0x1 PUSH1 0xA0 SHL SUB AND EQ ISZERO PUSH2 0x26EF JUMPI POP PUSH32 0x0 PUSH2 0x6D5 JUMP JUMPDEST PUSH32 0x0 PUSH1 0x1 PUSH1 0x1 PUSH1 0xA0 SHL SUB AND DUP3 PUSH1 0x1 PUSH1 0x1 PUSH1 0xA0 SHL SUB AND EQ ISZERO PUSH2 0x2750 JUMPI POP PUSH32 0x0 PUSH2 0x6D5 JUMP JUMPDEST PUSH32 0x0 PUSH1 0x1 PUSH1 0x1 PUSH1 0xA0 SHL SUB AND DUP3 PUSH1 0x1 PUSH1 0x1 PUSH1 0xA0 SHL SUB AND EQ ISZERO PUSH2 0x27B1 JUMPI POP PUSH32 0x0 PUSH2 0x6D5 JUMP JUMPDEST PUSH32 0x0 PUSH1 0x1 PUSH1 0x1 PUSH1 0xA0 SHL SUB AND DUP3 PUSH1 0x1 PUSH1 0x1 PUSH1 0xA0 SHL SUB AND EQ ISZERO PUSH2 0x2812 JUMPI POP PUSH32 0x0 PUSH2 0x6D5 JUMP JUMPDEST PUSH32 0x0 PUSH1 0x1 PUSH1 0x1 PUSH1 0xA0 SHL SUB AND DUP3 PUSH1 0x1 PUSH1 0x1 PUSH1 0xA0 SHL SUB AND EQ ISZERO PUSH2 0x1B3B JUMPI POP PUSH32 0x0 PUSH2 0x6D5 JUMP JUMPDEST PUSH1 0x0 PUSH2 0x2895 PUSH2 0x288A DUP8 PUSH8 0x429D069189E0000 PUSH2 0x2A1B JUMP JUMPDEST DUP4 GT ISZERO PUSH2 0x130 PUSH2 0xF10 JUMP JUMPDEST PUSH1 0x0 PUSH2 0x28A1 DUP8 DUP5 PUSH2 0xD6F JUMP JUMPDEST SWAP1 POP PUSH1 0x0 PUSH2 0x28AF DUP9 DUP4 PUSH2 0x298A JUMP JUMPDEST SWAP1 POP PUSH1 0x0 PUSH2 0x28BD DUP9 DUP8 PUSH2 0x1393 JUMP JUMPDEST SWAP1 POP PUSH1 0x0 PUSH2 0x28CB DUP4 DUP4 PUSH2 0x2D7F JUMP JUMPDEST SWAP1 POP PUSH2 0x28E0 PUSH2 0x28D9 DUP3 PUSH2 0x2964 JUMP JUMPDEST DUP10 SWAP1 PUSH2 0x2A1B JUMP JUMPDEST SWAP11 SWAP10 POP POP POP POP POP POP POP POP POP POP JUMP JUMPDEST PUSH1 0x0 PUSH2 0x2910 PUSH2 0x2905 DUP6 PUSH8 0x429D069189E0000 PUSH2 0x2A1B JUMP JUMPDEST DUP4 GT ISZERO PUSH2 0x131 PUSH2 0xF10 JUMP JUMPDEST PUSH1 0x0 PUSH2 0x2926 PUSH2 0x291F DUP7 DUP6 PUSH2 0xD81 JUMP JUMPDEST DUP7 SWAP1 PUSH2 0x298A JUMP JUMPDEST SWAP1 POP PUSH1 0x0 PUSH2 0x2934 DUP6 DUP9 PUSH2 0x298A JUMP JUMPDEST SWAP1 POP PUSH1 0x0 PUSH2 0x2942 DUP4 DUP4 PUSH2 0x2D7F JUMP JUMPDEST SWAP1 POP PUSH1 0x0 PUSH2 0x2958 DUP3 PUSH8 0xDE0B6B3A7640000 PUSH2 0xD81 JUMP JUMPDEST SWAP1 POP PUSH2 0x28E0 DUP11 DUP3 PUSH2 0x2525 JUMP JUMPDEST PUSH1 0x0 PUSH8 0xDE0B6B3A7640000 DUP3 LT PUSH2 0x297C JUMPI PUSH1 0x0 PUSH2 0x4DC JUMP JUMPDEST POP PUSH8 0xDE0B6B3A7640000 SUB SWAP1 JUMP JUMPDEST PUSH1 0x0 PUSH2 0x2999 DUP3 ISZERO ISZERO PUSH1 0x4 PUSH2 0xF10 JUMP JUMPDEST DUP3 PUSH2 0x29A6 JUMPI POP PUSH1 0x0 PUSH2 0x4DC JUMP JUMPDEST PUSH8 0xDE0B6B3A7640000 DUP4 DUP2 MUL SWAP1 PUSH2 0x29C0 SWAP1 DUP6 DUP4 DUP2 PUSH2 0x13C9 JUMPI INVALID JUMPDEST DUP3 PUSH1 0x1 DUP3 SUB DUP2 PUSH2 0x255D JUMPI INVALID JUMPDEST PUSH1 0x0 DUP1 PUSH2 0x29D9 DUP5 DUP5 PUSH2 0x2DAB JUMP JUMPDEST SWAP1 POP PUSH1 0x0 PUSH2 0x29F3 PUSH2 0x29EC DUP4 PUSH2 0x2710 PUSH2 0x2525 JUMP JUMPDEST PUSH1 0x1 PUSH2 0xD6F JUMP JUMPDEST SWAP1 POP DUP1 DUP3 LT ISZERO PUSH2 0x2A08 JUMPI PUSH1 0x0 SWAP3 POP POP POP PUSH2 0x4DC JUMP JUMPDEST PUSH2 0x2A12 DUP3 DUP3 PUSH2 0xD81 JUMP JUMPDEST SWAP3 POP POP POP PUSH2 0x4DC JUMP JUMPDEST PUSH1 0x0 DUP3 DUP3 MUL PUSH2 0x2A35 DUP5 ISZERO DUP1 PUSH2 0x138C JUMPI POP DUP4 DUP6 DUP4 DUP2 PUSH2 0x1389 JUMPI INVALID JUMPDEST PUSH8 0xDE0B6B3A7640000 SWAP1 DIV SWAP4 SWAP3 POP POP POP JUMP JUMPDEST PUSH1 0x0 DUP2 DUP1 PUSH1 0x20 ADD SWAP1 MLOAD DUP2 ADD SWAP1 PUSH2 0x4DC SWAP2 SWAP1 PUSH2 0x4268 JUMP JUMPDEST PUSH1 0x60 DUP2 DUP1 PUSH1 0x20 ADD SWAP1 MLOAD DUP2 ADD SWAP1 PUSH2 0x5A1 SWAP2 SWAP1 PUSH2 0x432D JUMP JUMPDEST PUSH1 0x0 PUSH2 0x2A85 PUSH4 0x1C74C917 PUSH1 0xE1 SHL PUSH2 0x797 JUMP JUMPDEST SWAP1 SWAP2 EQ SWAP2 SWAP1 POP JUMP JUMPDEST PUSH1 0x0 DUP4 DUP4 GT PUSH2 0x2A9E JUMPI POP PUSH1 0x0 PUSH2 0x236F JUMP JUMPDEST PUSH1 0x0 PUSH2 0x2AAA DUP6 DUP6 PUSH2 0x298A JUMP JUMPDEST SWAP1 POP PUSH1 0x0 PUSH2 0x2AC0 PUSH8 0xDE0B6B3A7640000 DUP9 PUSH2 0x1393 JUMP JUMPDEST SWAP1 POP PUSH2 0x2AD4 DUP3 PUSH8 0x9B6E64A8EC60000 PUSH2 0x2EB6 JUMP JUMPDEST SWAP2 POP PUSH1 0x0 PUSH2 0x2AE2 DUP4 DUP4 PUSH2 0x2D7F JUMP JUMPDEST SWAP1 POP PUSH1 0x0 PUSH2 0x2AF9 PUSH2 0x2AF2 DUP4 PUSH2 0x2964 JUMP JUMPDEST DUP12 SWAP1 PUSH2 0x2A1B JUMP JUMPDEST SWAP1 POP PUSH2 0x28E0 DUP2 DUP8 PUSH2 0x2A1B JUMP JUMPDEST PUSH1 0x0 PUSH1 0x60 PUSH2 0x2B11 PUSH2 0x108A JUMP JUMPDEST PUSH1 0x0 DUP1 PUSH2 0x2B1D DUP6 PUSH2 0x2ECD JUMP JUMPDEST SWAP2 POP SWAP2 POP PUSH2 0x2B35 PUSH2 0x2B2C PUSH2 0x10FD JUMP JUMPDEST DUP3 LT PUSH1 0x64 PUSH2 0xF10 JUMP JUMPDEST PUSH1 0x0 PUSH2 0x2B3F PUSH2 0x10FD JUMP JUMPDEST PUSH1 0x1 PUSH1 0x1 PUSH1 0x40 SHL SUB DUP2 GT DUP1 ISZERO PUSH2 0x2B54 JUMPI PUSH1 0x0 DUP1 REVERT JUMPDEST POP PUSH1 0x40 MLOAD SWAP1 DUP1 DUP3 MSTORE DUP1 PUSH1 0x20 MUL PUSH1 0x20 ADD DUP3 ADD PUSH1 0x40 MSTORE DUP1 ISZERO PUSH2 0x2B7E JUMPI DUP2 PUSH1 0x20 ADD PUSH1 0x20 DUP3 MUL DUP1 CALLDATASIZE DUP4 CALLDATACOPY ADD SWAP1 POP JUMPDEST POP SWAP1 POP PUSH2 0x2BBD DUP9 DUP4 DUP2 MLOAD DUP2 LT PUSH2 0x2B90 JUMPI INVALID JUMPDEST PUSH1 0x20 MUL PUSH1 0x20 ADD ADD MLOAD DUP9 DUP5 DUP2 MLOAD DUP2 LT PUSH2 0x2BA4 JUMPI INVALID JUMPDEST PUSH1 0x20 MUL PUSH1 0x20 ADD ADD MLOAD DUP6 PUSH2 0x2BB5 PUSH2 0x4F6 JUMP JUMPDEST PUSH1 0x7 SLOAD PUSH2 0x2EEF JUMP JUMPDEST DUP2 DUP4 DUP2 MLOAD DUP2 LT PUSH2 0x2BC9 JUMPI INVALID JUMPDEST PUSH1 0x20 SWAP1 DUP2 MUL SWAP2 SWAP1 SWAP2 ADD ADD MSTORE SWAP2 SWAP8 SWAP2 SWAP7 POP SWAP1 SWAP5 POP POP POP POP POP JUMP JUMPDEST PUSH1 0x0 PUSH1 0x60 PUSH1 0x0 PUSH2 0x2BF1 DUP5 PUSH2 0x2FAC JUMP JUMPDEST SWAP1 POP PUSH1 0x0 PUSH2 0x2C07 DUP7 DUP4 PUSH2 0x2C02 PUSH2 0x4F6 JUMP JUMPDEST PUSH2 0x2FC2 JUMP JUMPDEST SWAP2 SWAP7 SWAP2 SWAP6 POP SWAP1 SWAP4 POP POP POP POP JUMP JUMPDEST PUSH1 0x0 PUSH1 0x60 PUSH2 0x2C20 PUSH2 0x108A JUMP JUMPDEST PUSH1 0x0 DUP1 PUSH2 0x2C2C DUP6 PUSH2 0x3073 JUMP JUMPDEST SWAP2 POP SWAP2 POP PUSH2 0x2C3D DUP3 MLOAD PUSH2 0x610 PUSH2 0x10FD JUMP JUMPDEST PUSH2 0x2C49 DUP3 PUSH2 0xA5D PUSH2 0x13E4 JUMP JUMPDEST PUSH1 0x0 PUSH2 0x2C61 DUP9 DUP9 DUP6 PUSH2 0x2C59 PUSH2 0x4F6 JUMP JUMPDEST PUSH1 0x7 SLOAD PUSH2 0x308B JUMP JUMPDEST SWAP1 POP PUSH2 0x2C71 DUP3 DUP3 GT ISZERO PUSH1 0xCF PUSH2 0xF10 JUMP JUMPDEST SWAP8 SWAP2 SWAP7 POP SWAP1 SWAP5 POP POP POP POP POP JUMP JUMPDEST PUSH1 0x0 PUSH1 0x60 PUSH1 0x0 DUP1 PUSH2 0x2C8E DUP6 PUSH2 0x3073 JUMP JUMPDEST SWAP2 POP SWAP2 POP PUSH2 0x2CA4 PUSH2 0x2C9D PUSH2 0x10FD JUMP JUMPDEST DUP4 MLOAD PUSH2 0xD62 JUMP JUMPDEST PUSH2 0x2CB0 DUP3 PUSH2 0xA5D PUSH2 0x13E4 JUMP JUMPDEST PUSH1 0x0 PUSH2 0x2CC8 DUP9 DUP9 DUP6 PUSH2 0x2CC0 PUSH2 0x4F6 JUMP JUMPDEST PUSH1 0x7 SLOAD PUSH2 0x32AE JUMP JUMPDEST SWAP1 POP PUSH2 0x2C71 DUP3 DUP3 LT ISZERO PUSH1 0xD0 PUSH2 0xF10 JUMP JUMPDEST PUSH1 0x0 PUSH1 0x60 PUSH1 0x0 DUP1 PUSH2 0x2CE8 DUP6 PUSH2 0x2ECD JUMP JUMPDEST SWAP2 POP SWAP2 POP PUSH2 0x2CF7 PUSH2 0x2B2C PUSH2 0x10FD JUMP JUMPDEST PUSH1 0x0 PUSH2 0x2D01 PUSH2 0x10FD JUMP JUMPDEST PUSH1 0x1 PUSH1 0x1 PUSH1 0x40 SHL SUB DUP2 GT DUP1 ISZERO PUSH2 0x2D16 JUMPI PUSH1 0x0 DUP1 REVERT JUMPDEST POP PUSH1 0x40 MLOAD SWAP1 DUP1 DUP3 MSTORE DUP1 PUSH1 0x20 MUL PUSH1 0x20 ADD DUP3 ADD PUSH1 0x40 MSTORE DUP1 ISZERO PUSH2 0x2D40 JUMPI DUP2 PUSH1 0x20 ADD PUSH1 0x20 DUP3 MUL DUP1 CALLDATASIZE DUP4 CALLDATACOPY ADD SWAP1 POP JUMPDEST POP SWAP1 POP PUSH2 0x2BBD DUP9 DUP4 DUP2 MLOAD DUP2 LT PUSH2 0x2D52 JUMPI INVALID JUMPDEST PUSH1 0x20 MUL PUSH1 0x20 ADD ADD MLOAD DUP9 DUP5 DUP2 MLOAD DUP2 LT PUSH2 0x2D66 JUMPI INVALID JUMPDEST PUSH1 0x20 MUL PUSH1 0x20 ADD ADD MLOAD DUP6 PUSH2 0x2D77 PUSH2 0x4F6 JUMP JUMPDEST PUSH1 0x7 SLOAD PUSH2 0x34BD JUMP JUMPDEST PUSH1 0x0 DUP1 PUSH2 0x2D8C DUP5 DUP5 PUSH2 0x2DAB JUMP JUMPDEST SWAP1 POP PUSH1 0x0 PUSH2 0x2D9F PUSH2 0x29EC DUP4 PUSH2 0x2710 PUSH2 0x2525 JUMP JUMPDEST SWAP1 POP PUSH2 0x236F DUP3 DUP3 PUSH2 0xD6F JUMP JUMPDEST PUSH1 0x0 DUP2 PUSH2 0x2DC1 JUMPI POP PUSH8 0xDE0B6B3A7640000 PUSH2 0x4DC JUMP JUMPDEST DUP3 PUSH2 0x2DCE JUMPI POP PUSH1 0x0 PUSH2 0x4DC JUMP JUMPDEST PUSH2 0x2DDF PUSH1 0x1 PUSH1 0xFF SHL DUP5 LT PUSH1 0x6 PUSH2 0xF10 JUMP JUMPDEST DUP3 PUSH2 0x2E05 PUSH24 0xBCE5086492111AEA88F4BB1CA6BCF584181EA8059F76532 DUP5 LT PUSH1 0x7 PUSH2 0xF10 JUMP JUMPDEST DUP3 PUSH1 0x0 PUSH8 0xC7D713B49DA0000 DUP4 SGT DUP1 ISZERO PUSH2 0x2E26 JUMPI POP PUSH8 0xF43FC2C04EE0000 DUP4 SLT JUMPDEST ISZERO PUSH2 0x2E5D JUMPI PUSH1 0x0 PUSH2 0x2E36 DUP5 PUSH2 0x355F JUMP JUMPDEST SWAP1 POP PUSH8 0xDE0B6B3A7640000 DUP1 DUP3 SMOD DUP5 MUL SDIV DUP4 PUSH8 0xDE0B6B3A7640000 DUP4 SDIV MUL ADD SWAP2 POP POP PUSH2 0x2E6B JUMP JUMPDEST DUP2 PUSH2 0x2E67 DUP5 PUSH2 0x367D JUMP JUMPDEST MUL SWAP1 POP JUMPDEST PUSH8 0xDE0B6B3A7640000 SWAP1 SDIV PUSH2 0x2EA3 PUSH9 0x238FD42C5CF03FFFF NOT DUP3 SLT DUP1 ISZERO SWAP1 PUSH2 0x2E9C JUMPI POP PUSH9 0x70C1CC73B00C80000 DUP3 SGT ISZERO JUMPDEST PUSH1 0x8 PUSH2 0xF10 JUMP JUMPDEST PUSH2 0x2EAC DUP2 PUSH2 0x3A2A JUMP JUMPDEST SWAP7 SWAP6 POP POP POP POP POP POP JUMP JUMPDEST PUSH1 0x0 DUP2 DUP4 LT ISZERO PUSH2 0x2EC6 JUMPI DUP2 PUSH2 0x5A1 JUMP JUMPDEST POP SWAP1 SWAP2 SWAP1 POP JUMP JUMPDEST PUSH1 0x0 DUP1 DUP3 DUP1 PUSH1 0x20 ADD SWAP1 MLOAD DUP2 ADD SWAP1 PUSH2 0x2EE4 SWAP2 SWAP1 PUSH2 0x42F7 JUMP JUMPDEST SWAP1 SWAP6 SWAP1 SWAP5 POP SWAP3 POP POP POP JUMP JUMPDEST PUSH1 0x0 DUP1 PUSH2 0x2F06 DUP5 PUSH2 0x2F00 DUP2 DUP9 PUSH2 0xD81 JUMP JUMPDEST SWAP1 PUSH2 0x298A JUMP JUMPDEST SWAP1 POP PUSH2 0x2F1F PUSH8 0x9B6E64A8EC60000 DUP3 LT ISZERO PUSH2 0x132 PUSH2 0xF10 JUMP JUMPDEST PUSH1 0x0 PUSH2 0x2F3D PUSH2 0x2F36 PUSH8 0xDE0B6B3A7640000 DUP10 PUSH2 0x1393 JUMP JUMPDEST DUP4 SWAP1 PUSH2 0x2D7F JUMP JUMPDEST SWAP1 POP PUSH1 0x0 PUSH2 0x2F54 PUSH2 0x2F4D DUP4 PUSH2 0x2964 JUMP JUMPDEST DUP11 SWAP1 PUSH2 0x2A1B JUMP JUMPDEST SWAP1 POP PUSH1 0x0 PUSH2 0x2F61 DUP10 PUSH2 0x2964 JUMP JUMPDEST SWAP1 POP PUSH1 0x0 PUSH2 0x2F6F DUP4 DUP4 PUSH2 0x2525 JUMP JUMPDEST SWAP1 POP PUSH1 0x0 PUSH2 0x2F7D DUP5 DUP4 PUSH2 0xD81 JUMP JUMPDEST SWAP1 POP PUSH2 0x2F9C PUSH2 0x2F95 PUSH2 0x2F8E DUP11 PUSH2 0x2964 JUMP JUMPDEST DUP5 SWAP1 PUSH2 0x2A1B JUMP JUMPDEST DUP3 SWAP1 PUSH2 0xD6F JUMP JUMPDEST SWAP13 SWAP12 POP POP POP POP POP POP POP POP POP POP POP POP JUMP JUMPDEST PUSH1 0x0 DUP2 DUP1 PUSH1 0x20 ADD SWAP1 MLOAD DUP2 ADD SWAP1 PUSH2 0x5A1 SWAP2 SWAP1 PUSH2 0x42CA JUMP JUMPDEST PUSH1 0x60 PUSH1 0x0 PUSH2 0x2FD0 DUP5 DUP5 PUSH2 0x1393 JUMP JUMPDEST SWAP1 POP PUSH1 0x0 DUP6 MLOAD PUSH1 0x1 PUSH1 0x1 PUSH1 0x40 SHL SUB DUP2 GT DUP1 ISZERO PUSH2 0x2FEB JUMPI PUSH1 0x0 DUP1 REVERT JUMPDEST POP PUSH1 0x40 MLOAD SWAP1 DUP1 DUP3 MSTORE DUP1 PUSH1 0x20 MUL PUSH1 0x20 ADD DUP3 ADD PUSH1 0x40 MSTORE DUP1 ISZERO PUSH2 0x3015 JUMPI DUP2 PUSH1 0x20 ADD PUSH1 0x20 DUP3 MUL DUP1 CALLDATASIZE DUP4 CALLDATACOPY ADD SWAP1 POP JUMPDEST POP SWAP1 POP PUSH1 0x0 JUMPDEST DUP7 MLOAD DUP2 LT ISZERO PUSH2 0x3069 JUMPI PUSH2 0x304A DUP4 DUP9 DUP4 DUP2 MLOAD DUP2 LT PUSH2 0x3034 JUMPI INVALID JUMPDEST PUSH1 0x20 MUL PUSH1 0x20 ADD ADD MLOAD PUSH2 0x2A1B SWAP1 SWAP2 SWAP1 PUSH4 0xFFFFFFFF AND JUMP JUMPDEST DUP3 DUP3 DUP2 MLOAD DUP2 LT PUSH2 0x3056 JUMPI INVALID JUMPDEST PUSH1 0x20 SWAP1 DUP2 MUL SWAP2 SWAP1 SWAP2 ADD ADD MSTORE PUSH1 0x1 ADD PUSH2 0x301B JUMP JUMPDEST POP SWAP6 SWAP5 POP POP POP POP POP JUMP JUMPDEST PUSH1 0x60 PUSH1 0x0 DUP3 DUP1 PUSH1 0x20 ADD SWAP1 MLOAD DUP2 ADD SWAP1 PUSH2 0x2EE4 SWAP2 SWAP1 PUSH2 0x4284 JUMP JUMPDEST PUSH1 0x0 DUP1 DUP5 MLOAD PUSH1 0x1 PUSH1 0x1 PUSH1 0x40 SHL SUB DUP2 GT DUP1 ISZERO PUSH2 0x30A5 JUMPI PUSH1 0x0 DUP1 REVERT JUMPDEST POP PUSH1 0x40 MLOAD SWAP1 DUP1 DUP3 MSTORE DUP1 PUSH1 0x20 MUL PUSH1 0x20 ADD DUP3 ADD PUSH1 0x40 MSTORE DUP1 ISZERO PUSH2 0x30CF JUMPI DUP2 PUSH1 0x20 ADD PUSH1 0x20 DUP3 MUL DUP1 CALLDATASIZE DUP4 CALLDATACOPY ADD SWAP1 POP JUMPDEST POP SWAP1 POP PUSH1 0x0 DUP1 JUMPDEST DUP9 MLOAD DUP2 LT ISZERO PUSH2 0x3194 JUMPI PUSH2 0x312F DUP10 DUP3 DUP2 MLOAD DUP2 LT PUSH2 0x30EE JUMPI INVALID JUMPDEST PUSH1 0x20 MUL PUSH1 0x20 ADD ADD MLOAD PUSH2 0x2F00 DUP10 DUP5 DUP2 MLOAD DUP2 LT PUSH2 0x3105 JUMPI INVALID JUMPDEST PUSH1 0x20 MUL PUSH1 0x20 ADD ADD MLOAD DUP13 DUP6 DUP2 MLOAD DUP2 LT PUSH2 0x3119 JUMPI INVALID JUMPDEST PUSH1 0x20 MUL PUSH1 0x20 ADD ADD MLOAD PUSH2 0xD81 SWAP1 SWAP2 SWAP1 PUSH4 0xFFFFFFFF AND JUMP JUMPDEST DUP4 DUP3 DUP2 MLOAD DUP2 LT PUSH2 0x313B JUMPI INVALID JUMPDEST PUSH1 0x20 MUL PUSH1 0x20 ADD ADD DUP2 DUP2 MSTORE POP POP PUSH2 0x318A PUSH2 0x3183 DUP10 DUP4 DUP2 MLOAD DUP2 LT PUSH2 0x3159 JUMPI INVALID JUMPDEST PUSH1 0x20 MUL PUSH1 0x20 ADD ADD MLOAD DUP6 DUP5 DUP2 MLOAD DUP2 LT PUSH2 0x316D JUMPI INVALID JUMPDEST PUSH1 0x20 MUL PUSH1 0x20 ADD ADD MLOAD PUSH2 0x2525 SWAP1 SWAP2 SWAP1 PUSH4 0xFFFFFFFF AND JUMP JUMPDEST DUP4 SWAP1 PUSH2 0xD6F JUMP JUMPDEST SWAP2 POP PUSH1 0x1 ADD PUSH2 0x30D6 JUMP JUMPDEST POP PUSH8 0xDE0B6B3A7640000 PUSH1 0x0 JUMPDEST DUP10 MLOAD DUP2 LT ISZERO PUSH2 0x328D JUMPI PUSH1 0x0 DUP5 DUP3 DUP2 MLOAD DUP2 LT PUSH2 0x31B8 JUMPI INVALID JUMPDEST PUSH1 0x20 MUL PUSH1 0x20 ADD ADD MLOAD DUP5 GT ISZERO PUSH2 0x320F JUMPI PUSH1 0x0 PUSH2 0x31E1 PUSH2 0x31D5 DUP7 PUSH2 0x2964 JUMP JUMPDEST DUP14 DUP6 DUP2 MLOAD DUP2 LT PUSH2 0x3034 JUMPI INVALID JUMPDEST SWAP1 POP PUSH1 0x0 PUSH2 0x31F5 DUP3 DUP13 DUP7 DUP2 MLOAD DUP2 LT PUSH2 0x3119 JUMPI INVALID JUMPDEST SWAP1 POP PUSH2 0x3206 PUSH2 0x3183 PUSH2 0x1C0C DUP12 PUSH2 0x2964 JUMP JUMPDEST SWAP3 POP POP POP PUSH2 0x3226 JUMP JUMPDEST DUP9 DUP3 DUP2 MLOAD DUP2 LT PUSH2 0x321B JUMPI INVALID JUMPDEST PUSH1 0x20 MUL PUSH1 0x20 ADD ADD MLOAD SWAP1 POP JUMPDEST PUSH1 0x0 PUSH2 0x324F DUP13 DUP5 DUP2 MLOAD DUP2 LT PUSH2 0x3237 JUMPI INVALID JUMPDEST PUSH1 0x20 MUL PUSH1 0x20 ADD ADD MLOAD PUSH2 0x6B5 DUP5 DUP16 DUP8 DUP2 MLOAD DUP2 LT PUSH2 0x3119 JUMPI INVALID JUMPDEST SWAP1 POP PUSH2 0x3281 PUSH2 0x327A DUP13 DUP6 DUP2 MLOAD DUP2 LT PUSH2 0x3263 JUMPI INVALID JUMPDEST PUSH1 0x20 MUL PUSH1 0x20 ADD ADD MLOAD DUP4 PUSH2 0x29CC SWAP1 SWAP2 SWAP1 PUSH4 0xFFFFFFFF AND JUMP JUMPDEST DUP6 SWAP1 PUSH2 0x2A1B JUMP JUMPDEST SWAP4 POP POP POP PUSH1 0x1 ADD PUSH2 0x31A1 JUMP JUMPDEST POP PUSH2 0x32A1 PUSH2 0x329A DUP3 PUSH2 0x2964 JUMP JUMPDEST DUP8 SWAP1 PUSH2 0x2525 JUMP JUMPDEST SWAP10 SWAP9 POP POP POP POP POP POP POP POP POP JUMP JUMPDEST PUSH1 0x0 DUP1 DUP5 MLOAD PUSH1 0x1 PUSH1 0x1 PUSH1 0x40 SHL SUB DUP2 GT DUP1 ISZERO PUSH2 0x32C8 JUMPI PUSH1 0x0 DUP1 REVERT JUMPDEST POP PUSH1 0x40 MLOAD SWAP1 DUP1 DUP3 MSTORE DUP1 PUSH1 0x20 MUL PUSH1 0x20 ADD DUP3 ADD PUSH1 0x40 MSTORE DUP1 ISZERO PUSH2 0x32F2 JUMPI DUP2 PUSH1 0x20 ADD PUSH1 0x20 DUP3 MUL DUP1 CALLDATASIZE DUP4 CALLDATACOPY ADD SWAP1 POP JUMPDEST POP SWAP1 POP PUSH1 0x0 DUP1 JUMPDEST DUP9 MLOAD DUP2 LT ISZERO PUSH2 0x339A JUMPI PUSH2 0x3352 DUP10 DUP3 DUP2 MLOAD DUP2 LT PUSH2 0x3311 JUMPI INVALID JUMPDEST PUSH1 0x20 MUL PUSH1 0x20 ADD ADD MLOAD PUSH2 0x6B5 DUP10 DUP5 DUP2 MLOAD DUP2 LT PUSH2 0x3328 JUMPI INVALID JUMPDEST PUSH1 0x20 MUL PUSH1 0x20 ADD ADD MLOAD DUP13 DUP6 DUP2 MLOAD DUP2 LT PUSH2 0x333C JUMPI INVALID JUMPDEST PUSH1 0x20 MUL PUSH1 0x20 ADD ADD MLOAD PUSH2 0xD6F SWAP1 SWAP2 SWAP1 PUSH4 0xFFFFFFFF AND JUMP JUMPDEST DUP4 DUP3 DUP2 MLOAD DUP2 LT PUSH2 0x335E JUMPI INVALID JUMPDEST PUSH1 0x20 MUL PUSH1 0x20 ADD ADD DUP2 DUP2 MSTORE POP POP PUSH2 0x3390 PUSH2 0x3183 DUP10 DUP4 DUP2 MLOAD DUP2 LT PUSH2 0x337C JUMPI INVALID JUMPDEST PUSH1 0x20 MUL PUSH1 0x20 ADD ADD MLOAD DUP6 DUP5 DUP2 MLOAD DUP2 LT PUSH2 0x3034 JUMPI INVALID JUMPDEST SWAP2 POP PUSH1 0x1 ADD PUSH2 0x32F9 JUMP JUMPDEST POP PUSH8 0xDE0B6B3A7640000 PUSH1 0x0 JUMPDEST DUP10 MLOAD DUP2 LT ISZERO PUSH2 0x347B JUMPI PUSH1 0x0 DUP4 DUP6 DUP4 DUP2 MLOAD DUP2 LT PUSH2 0x33BF JUMPI INVALID JUMPDEST PUSH1 0x20 MUL PUSH1 0x20 ADD ADD MLOAD GT ISZERO PUSH2 0x341B JUMPI PUSH1 0x0 PUSH2 0x33E4 PUSH2 0x31D5 DUP7 PUSH8 0xDE0B6B3A7640000 PUSH2 0xD81 JUMP JUMPDEST SWAP1 POP PUSH1 0x0 PUSH2 0x33F8 DUP3 DUP13 DUP7 DUP2 MLOAD DUP2 LT PUSH2 0x3119 JUMPI INVALID JUMPDEST SWAP1 POP PUSH2 0x3412 PUSH2 0x3183 PUSH2 0x1F3A PUSH8 0xDE0B6B3A7640000 DUP13 PUSH2 0xD81 JUMP JUMPDEST SWAP3 POP POP POP PUSH2 0x3432 JUMP JUMPDEST DUP9 DUP3 DUP2 MLOAD DUP2 LT PUSH2 0x3427 JUMPI INVALID JUMPDEST PUSH1 0x20 MUL PUSH1 0x20 ADD ADD MLOAD SWAP1 POP JUMPDEST PUSH1 0x0 PUSH2 0x345B DUP13 DUP5 DUP2 MLOAD DUP2 LT PUSH2 0x3443 JUMPI INVALID JUMPDEST PUSH1 0x20 MUL PUSH1 0x20 ADD ADD MLOAD PUSH2 0x6B5 DUP5 DUP16 DUP8 DUP2 MLOAD DUP2 LT PUSH2 0x333C JUMPI INVALID JUMPDEST SWAP1 POP PUSH2 0x346F PUSH2 0x327A DUP13 DUP6 DUP2 MLOAD DUP2 LT PUSH2 0x3263 JUMPI INVALID JUMPDEST SWAP4 POP POP POP PUSH1 0x1 ADD PUSH2 0x33A7 JUMP JUMPDEST POP PUSH8 0xDE0B6B3A7640000 DUP2 LT PUSH2 0x34B1 JUMPI PUSH2 0x34A7 PUSH2 0x34A0 DUP3 PUSH8 0xDE0B6B3A7640000 PUSH2 0xD81 JUMP JUMPDEST DUP8 SWAP1 PUSH2 0x2A1B JUMP JUMPDEST SWAP4 POP POP POP POP PUSH2 0x236F JUMP JUMPDEST PUSH1 0x0 SWAP4 POP POP POP POP PUSH2 0x236F JUMP JUMPDEST PUSH1 0x0 DUP1 PUSH2 0x34CE DUP5 PUSH2 0x2F00 DUP2 DUP9 PUSH2 0xD6F JUMP JUMPDEST SWAP1 POP PUSH2 0x34E7 PUSH8 0x29A2241AF62C0000 DUP3 GT ISZERO PUSH2 0x133 PUSH2 0xF10 JUMP JUMPDEST PUSH1 0x0 PUSH2 0x34FE PUSH2 0x2F36 PUSH8 0xDE0B6B3A7640000 DUP10 PUSH2 0x298A JUMP JUMPDEST SWAP1 POP PUSH1 0x0 PUSH2 0x351E PUSH2 0x3517 DUP4 PUSH8 0xDE0B6B3A7640000 PUSH2 0xD81 JUMP JUMPDEST DUP11 SWAP1 PUSH2 0x2525 JUMP JUMPDEST SWAP1 POP PUSH1 0x0 PUSH2 0x352B DUP10 PUSH2 0x2964 JUMP JUMPDEST SWAP1 POP PUSH1 0x0 PUSH2 0x3539 DUP4 DUP4 PUSH2 0x2525 JUMP JUMPDEST SWAP1 POP PUSH1 0x0 PUSH2 0x3547 DUP5 DUP4 PUSH2 0xD81 JUMP JUMPDEST SWAP1 POP PUSH2 0x2F9C PUSH2 0x2F95 PUSH2 0x3558 DUP11 PUSH2 0x2964 JUMP JUMPDEST DUP5 SWAP1 PUSH2 0x298A JUMP JUMPDEST PUSH8 0xDE0B6B3A7640000 MUL PUSH1 0x0 DUP1 PUSH11 0xC097CE7BC90715B34B9F1 PUSH1 0x24 SHL DUP1 DUP5 ADD SWAP1 PUSH15 0xC097CE7BC90715B34B9F0FFFFFFFFF NOT DUP6 ADD MUL DUP2 PUSH2 0x359A JUMPI INVALID JUMPDEST SDIV SWAP1 POP PUSH1 0x0 PUSH11 0xC097CE7BC90715B34B9F1 PUSH1 0x24 SHL DUP3 DUP1 MUL SDIV SWAP1 POP DUP2 DUP1 PUSH11 0xC097CE7BC90715B34B9F1 PUSH1 0x24 SHL DUP2 DUP5 MUL SDIV SWAP2 POP PUSH1 0x3 DUP3 SDIV ADD PUSH11 0xC097CE7BC90715B34B9F1 PUSH1 0x24 SHL DUP3 DUP5 MUL SDIV SWAP2 POP PUSH1 0x5 DUP3 SDIV ADD PUSH11 0xC097CE7BC90715B34B9F1 PUSH1 0x24 SHL DUP3 DUP5 MUL SDIV SWAP2 POP PUSH1 0x7 DUP3 SDIV ADD PUSH11 0xC097CE7BC90715B34B9F1 PUSH1 0x24 SHL DUP3 DUP5 MUL SDIV SWAP2 POP PUSH1 0x9 DUP3 SDIV ADD PUSH11 0xC097CE7BC90715B34B9F1 PUSH1 0x24 SHL DUP3 DUP5 MUL SDIV SWAP2 POP PUSH1 0xB DUP3 SDIV ADD PUSH11 0xC097CE7BC90715B34B9F1 PUSH1 0x24 SHL DUP3 DUP5 MUL SDIV SWAP2 POP PUSH1 0xD DUP3 SDIV ADD PUSH11 0xC097CE7BC90715B34B9F1 PUSH1 0x24 SHL DUP3 DUP5 MUL SDIV SWAP2 POP PUSH1 0xF DUP3 PUSH1 0x2 SWAP2 SWAP1 SDIV SWAP2 SWAP1 SWAP2 ADD MUL SWAP6 SWAP5 POP POP POP POP POP JUMP JUMPDEST PUSH1 0x0 PUSH2 0x368D PUSH1 0x0 DUP4 SGT PUSH1 0x64 PUSH2 0xF10 JUMP JUMPDEST PUSH8 0xDE0B6B3A7640000 DUP3 SLT ISZERO PUSH2 0x36C7 JUMPI PUSH2 0x36BD DUP3 PUSH11 0xC097CE7BC90715B34B9F1 PUSH1 0x24 SHL DUP2 PUSH2 0x36B7 JUMPI INVALID JUMPDEST SDIV PUSH2 0x367D JUMP JUMPDEST PUSH1 0x0 SUB SWAP1 POP PUSH2 0x6D5 JUMP JUMPDEST PUSH1 0x0 PUSH31 0x1600EF3172E58D2E933EC884FDE10064C63B5372D805E203C0000000000000 DUP4 SLT PUSH2 0x3718 JUMPI PUSH24 0x195E54C5DD42177F53A27172FA9EC630262827000000000 DUP4 SDIV SWAP3 POP PUSH9 0x6F05B59D3B2000000 ADD JUMPDEST PUSH20 0x11798004D755D3C8BC8E03204CF44619E000000 DUP4 SLT PUSH2 0x3750 JUMPI PUSH12 0x1425982CF597CD205CEF7380 DUP4 SDIV SWAP3 POP PUSH9 0x3782DACE9D9000000 ADD JUMPDEST PUSH1 0x64 SWAP3 DUP4 MUL SWAP3 MUL PUSH15 0x1855144814A7FF805980FF0084000 DUP4 SLT PUSH2 0x3798 JUMPI PUSH15 0x1855144814A7FF805980FF0084000 PUSH9 0x56BC75E2D63100000 DUP5 MUL SDIV SWAP3 POP PUSH9 0xAD78EBC5AC62000000 ADD JUMPDEST PUSH12 0x2DF0AB5A80A22C61AB5A700 DUP4 SLT PUSH2 0x37D3 JUMPI PUSH12 0x2DF0AB5A80A22C61AB5A700 PUSH9 0x56BC75E2D63100000 DUP5 MUL SDIV SWAP3 POP PUSH9 0x56BC75E2D631000000 ADD JUMPDEST PUSH10 0x3F1FCE3DA636EA5CF850 DUP4 SLT PUSH2 0x380A JUMPI PUSH10 0x3F1FCE3DA636EA5CF850 PUSH9 0x56BC75E2D63100000 DUP5 MUL SDIV SWAP3 POP PUSH9 0x2B5E3AF16B18800000 ADD JUMPDEST PUSH10 0x127FA27722CC06CC5E2 DUP4 SLT PUSH2 0x3841 JUMPI PUSH10 0x127FA27722CC06CC5E2 PUSH9 0x56BC75E2D63100000 DUP5 MUL SDIV SWAP3 POP PUSH9 0x15AF1D78B58C400000 ADD JUMPDEST PUSH9 0x280E60114EDB805D03 DUP4 SLT PUSH2 0x3876 JUMPI PUSH9 0x280E60114EDB805D03 PUSH9 0x56BC75E2D63100000 DUP5 MUL SDIV SWAP3 POP PUSH9 0xAD78EBC5AC6200000 ADD JUMPDEST PUSH9 0xEBC5FB41746121110 DUP4 SLT PUSH2 0x38A1 JUMPI PUSH9 0xEBC5FB41746121110 PUSH9 0x56BC75E2D63100000 SWAP4 DUP5 MUL SDIV SWAP3 ADD JUMPDEST PUSH9 0x8F00F760A4B2DB55D DUP4 SLT PUSH2 0x38D6 JUMPI PUSH9 0x8F00F760A4B2DB55D PUSH9 0x56BC75E2D63100000 DUP5 MUL SDIV SWAP3 POP PUSH9 0x2B5E3AF16B1880000 ADD JUMPDEST PUSH9 0x6F5F1775788937937 DUP4 SLT PUSH2 0x390B JUMPI PUSH9 0x6F5F1775788937937 PUSH9 0x56BC75E2D63100000 DUP5 MUL SDIV SWAP3 POP PUSH9 0x15AF1D78B58C40000 ADD JUMPDEST PUSH9 0x6248F33704B286603 DUP4 SLT PUSH2 0x393F JUMPI PUSH9 0x6248F33704B286603 PUSH9 0x56BC75E2D63100000 DUP5 MUL SDIV SWAP3 POP PUSH8 0xAD78EBC5AC620000 ADD JUMPDEST PUSH9 0x5C548670B9510E7AC DUP4 SLT PUSH2 0x3973 JUMPI PUSH9 0x5C548670B9510E7AC PUSH9 0x56BC75E2D63100000 DUP5 MUL SDIV SWAP3 POP PUSH8 0x56BC75E2D6310000 ADD JUMPDEST PUSH1 0x0 PUSH9 0x56BC75E2D63100000 DUP5 ADD PUSH9 0x56BC75E2D63100000 DUP1 DUP7 SUB MUL DUP2 PUSH2 0x3996 JUMPI INVALID JUMPDEST SDIV SWAP1 POP PUSH1 0x0 PUSH9 0x56BC75E2D63100000 DUP3 DUP1 MUL SDIV SWAP1 POP DUP2 DUP1 PUSH9 0x56BC75E2D63100000 DUP2 DUP5 MUL SDIV SWAP2 POP PUSH1 0x3 DUP3 SDIV ADD PUSH9 0x56BC75E2D63100000 DUP3 DUP5 MUL SDIV SWAP2 POP PUSH1 0x5 DUP3 SDIV ADD PUSH9 0x56BC75E2D63100000 DUP3 DUP5 MUL SDIV SWAP2 POP PUSH1 0x7 DUP3 SDIV ADD PUSH9 0x56BC75E2D63100000 DUP3 DUP5 MUL SDIV SWAP2 POP PUSH1 0x9 DUP3 SDIV ADD PUSH9 0x56BC75E2D63100000 DUP3 DUP5 MUL SDIV SWAP2 POP PUSH1 0xB DUP3 SDIV ADD PUSH1 0x2 MUL PUSH1 0x64 DUP6 DUP3 ADD SDIV SWAP8 SWAP7 POP POP POP POP POP POP POP JUMP JUMPDEST PUSH1 0x0 PUSH2 0x3A59 PUSH9 0x238FD42C5CF03FFFF NOT DUP4 SLT ISZERO DUP1 ISZERO PUSH2 0x3A52 JUMPI POP PUSH9 0x70C1CC73B00C80000 DUP4 SGT ISZERO JUMPDEST PUSH1 0x9 PUSH2 0xF10 JUMP JUMPDEST PUSH1 0x0 DUP3 SLT ISZERO PUSH2 0x3A8C JUMPI PUSH2 0x3A6E DUP3 PUSH1 0x0 SUB PUSH2 0x3A2A JUMP JUMPDEST PUSH11 0xC097CE7BC90715B34B9F1 PUSH1 0x24 SHL DUP2 PUSH2 0x3A84 JUMPI INVALID JUMPDEST SDIV SWAP1 POP PUSH2 0x6D5 JUMP JUMPDEST PUSH1 0x0 PUSH9 0x6F05B59D3B2000000 DUP4 SLT PUSH2 0x3ACC JUMPI POP PUSH9 0x6F05B59D3B1FFFFFF NOT SWAP1 SWAP2 ADD SWAP1 PUSH24 0x195E54C5DD42177F53A27172FA9EC630262827000000000 PUSH2 0x3B02 JUMP JUMPDEST PUSH9 0x3782DACE9D9000000 DUP4 SLT PUSH2 0x3AFE JUMPI POP PUSH9 0x3782DACE9D8FFFFFF NOT SWAP1 SWAP2 ADD SWAP1 PUSH12 0x1425982CF597CD205CEF7380 PUSH2 0x3B02 JUMP JUMPDEST POP PUSH1 0x1 JUMPDEST PUSH1 0x64 SWAP3 SWAP1 SWAP3 MUL SWAP2 PUSH9 0x56BC75E2D63100000 PUSH9 0xAD78EBC5AC62000000 DUP5 SLT PUSH2 0x3B52 JUMPI PUSH9 0xAD78EBC5AC61FFFFFF NOT SWAP1 SWAP4 ADD SWAP3 PUSH9 0x56BC75E2D63100000 PUSH15 0x1855144814A7FF805980FF0084000 DUP3 MUL SDIV SWAP1 POP JUMPDEST PUSH9 0x56BC75E2D631000000 DUP5 SLT PUSH2 0x3B8E JUMPI PUSH9 0x56BC75E2D630FFFFFF NOT SWAP1 SWAP4 ADD SWAP3 PUSH9 0x56BC75E2D63100000 PUSH12 0x2DF0AB5A80A22C61AB5A700 DUP3 MUL SDIV SWAP1 POP JUMPDEST PUSH9 0x2B5E3AF16B18800000 DUP5 SLT PUSH2 0x3BC8 JUMPI PUSH9 0x2B5E3AF16B187FFFFF NOT SWAP1 SWAP4 ADD SWAP3 PUSH9 0x56BC75E2D63100000 PUSH10 0x3F1FCE3DA636EA5CF850 DUP3 MUL SDIV SWAP1 POP JUMPDEST PUSH9 0x15AF1D78B58C400000 DUP5 SLT PUSH2 0x3C02 JUMPI PUSH9 0x15AF1D78B58C3FFFFF NOT SWAP1 SWAP4 ADD SWAP3 PUSH9 0x56BC75E2D63100000 PUSH10 0x127FA27722CC06CC5E2 DUP3 MUL SDIV SWAP1 POP JUMPDEST PUSH9 0xAD78EBC5AC6200000 DUP5 SLT PUSH2 0x3C3B JUMPI PUSH9 0xAD78EBC5AC61FFFFF NOT SWAP1 SWAP4 ADD SWAP3 PUSH9 0x56BC75E2D63100000 PUSH9 0x280E60114EDB805D03 DUP3 MUL SDIV SWAP1 POP JUMPDEST PUSH9 0x56BC75E2D63100000 DUP5 SLT PUSH2 0x3C74 JUMPI PUSH9 0x56BC75E2D630FFFFF NOT SWAP1 SWAP4 ADD SWAP3 PUSH9 0x56BC75E2D63100000 PUSH9 0xEBC5FB41746121110 DUP3 MUL SDIV SWAP1 POP JUMPDEST PUSH9 0x2B5E3AF16B1880000 DUP5 SLT PUSH2 0x3CAD JUMPI PUSH9 0x2B5E3AF16B187FFFF NOT SWAP1 SWAP4 ADD SWAP3 PUSH9 0x56BC75E2D63100000 PUSH9 0x8F00F760A4B2DB55D DUP3 MUL SDIV SWAP1 POP JUMPDEST PUSH9 0x15AF1D78B58C40000 DUP5 SLT PUSH2 0x3CE6 JUMPI PUSH9 0x15AF1D78B58C3FFFF NOT SWAP1 SWAP4 ADD SWAP3 PUSH9 0x56BC75E2D63100000 PUSH9 0x6F5F1775788937937 DUP3 MUL SDIV SWAP1 POP JUMPDEST PUSH9 0x56BC75E2D63100000 DUP5 DUP2 ADD SWAP1 DUP6 SWAP1 PUSH1 0x2 SWAP1 DUP3 DUP1 MUL SDIV SDIV SWAP2 DUP3 ADD SWAP2 SWAP1 POP PUSH1 0x3 PUSH9 0x56BC75E2D63100000 DUP8 DUP4 MUL SDIV SDIV SWAP2 DUP3 ADD SWAP2 SWAP1 POP PUSH1 0x4 PUSH9 0x56BC75E2D63100000 DUP8 DUP4 MUL SDIV SDIV SWAP2 DUP3 ADD SWAP2 SWAP1 POP PUSH1 0x5 PUSH9 0x56BC75E2D63100000 DUP8 DUP4 MUL SDIV SDIV SWAP2 DUP3 ADD SWAP2 SWAP1 POP PUSH1 0x6 PUSH9 0x56BC75E2D63100000 DUP8 DUP4 MUL SDIV SDIV SWAP2 DUP3 ADD SWAP2 SWAP1 POP PUSH1 0x7 PUSH9 0x56BC75E2D63100000 DUP8 DUP4 MUL SDIV SDIV SWAP2 DUP3 ADD SWAP2 SWAP1 POP PUSH1 0x8 PUSH9 0x56BC75E2D63100000 DUP8 DUP4 MUL SDIV SDIV SWAP2 DUP3 ADD SWAP2 SWAP1 POP PUSH1 0x9 PUSH9 0x56BC75E2D63100000 DUP8 DUP4 MUL SDIV SDIV SWAP2 DUP3 ADD SWAP2 SWAP1 POP PUSH1 0xA PUSH9 0x56BC75E2D63100000 DUP8 DUP4 MUL SDIV SDIV SWAP2 DUP3 ADD SWAP2 SWAP1 POP PUSH1 0xB PUSH9 0x56BC75E2D63100000 DUP8 DUP4 MUL SDIV SDIV SWAP2 DUP3 ADD SWAP2 SWAP1 POP PUSH1 0xC PUSH9 0x56BC75E2D63100000 DUP8 DUP4 MUL SDIV SDIV SWAP2 DUP3 ADD SWAP2 SWAP1 POP PUSH1 0x64 PUSH9 0x56BC75E2D63100000 DUP5 DUP5 MUL SDIV DUP6 MUL SDIV SWAP7 SWAP6 POP POP POP POP POP POP JUMP JUMPDEST DUP1 CALLDATALOAD PUSH2 0x6D5 DUP2 PUSH2 0x46D5 JUMP JUMPDEST PUSH1 0x0 DUP3 PUSH1 0x1F DUP4 ADD SLT PUSH2 0x3E22 JUMPI DUP1 DUP2 REVERT JUMPDEST DUP2 MLOAD PUSH1 0x20 PUSH2 0x3E37 PUSH2 0x3E32 DUP4 PUSH2 0x46B8 JUMP JUMPDEST PUSH2 0x4695 JUMP JUMPDEST DUP3 DUP2 MSTORE DUP2 DUP2 ADD SWAP1 DUP6 DUP4 ADD DUP4 DUP6 MUL DUP8 ADD DUP5 ADD DUP9 LT ISZERO PUSH2 0x3E53 JUMPI DUP6 DUP7 REVERT JUMPDEST DUP6 JUMPDEST DUP6 DUP2 LT ISZERO PUSH2 0x3E71 JUMPI DUP2 MLOAD DUP5 MSTORE SWAP3 DUP5 ADD SWAP3 SWAP1 DUP5 ADD SWAP1 PUSH1 0x1 ADD PUSH2 0x3E55 JUMP JUMPDEST POP SWAP1 SWAP8 SWAP7 POP POP POP POP POP POP POP JUMP JUMPDEST PUSH1 0x0 DUP3 PUSH1 0x1F DUP4 ADD SLT PUSH2 0x3E8E JUMPI DUP1 DUP2 REVERT JUMPDEST DUP2 CALLDATALOAD PUSH1 0x1 PUSH1 0x1 PUSH1 0x40 SHL SUB DUP2 GT ISZERO PUSH2 0x3EA1 JUMPI INVALID JUMPDEST PUSH2 0x3EB4 PUSH1 0x1F DUP3 ADD PUSH1 0x1F NOT AND PUSH1 0x20 ADD PUSH2 0x4695 JUMP JUMPDEST DUP2 DUP2 MSTORE DUP5 PUSH1 0x20 DUP4 DUP7 ADD ADD GT ISZERO PUSH2 0x3EC8 JUMPI DUP3 DUP4 REVERT JUMPDEST DUP2 PUSH1 0x20 DUP6 ADD PUSH1 0x20 DUP4 ADD CALLDATACOPY SWAP1 DUP2 ADD PUSH1 0x20 ADD SWAP2 SWAP1 SWAP2 MSTORE SWAP3 SWAP2 POP POP JUMP JUMPDEST DUP1 CALLDATALOAD PUSH1 0x2 DUP2 LT PUSH2 0x6D5 JUMPI PUSH1 0x0 DUP1 REVERT JUMPDEST PUSH1 0x0 PUSH1 0x20 DUP3 DUP5 SUB SLT ISZERO PUSH2 0x3F02 JUMPI DUP1 DUP2 REVERT JUMPDEST DUP2 CALLDATALOAD PUSH2 0x5A1 DUP2 PUSH2 0x46D5 JUMP JUMPDEST PUSH1 0x0 DUP1 PUSH1 0x40 DUP4 DUP6 SUB SLT ISZERO PUSH2 0x3F1F JUMPI DUP1 DUP2 REVERT JUMPDEST DUP3 CALLDATALOAD PUSH2 0x3F2A DUP2 PUSH2 0x46D5 JUMP JUMPDEST SWAP2 POP PUSH1 0x20 DUP4 ADD CALLDATALOAD PUSH2 0x3F3A DUP2 PUSH2 0x46D5 JUMP JUMPDEST DUP1 SWAP2 POP POP SWAP3 POP SWAP3 SWAP1 POP JUMP JUMPDEST PUSH1 0x0 DUP1 PUSH1 0x0 PUSH1 0x60 DUP5 DUP7 SUB SLT ISZERO PUSH2 0x3F59 JUMPI DUP1 DUP2 REVERT JUMPDEST DUP4 CALLDATALOAD PUSH2 0x3F64 DUP2 PUSH2 0x46D5 JUMP JUMPDEST SWAP3 POP PUSH1 0x20 DUP5 ADD CALLDATALOAD PUSH2 0x3F74 DUP2 PUSH2 0x46D5 JUMP JUMPDEST SWAP3 SWAP6 SWAP3 SWAP5 POP POP POP PUSH1 0x40 SWAP2 SWAP1 SWAP2 ADD CALLDATALOAD SWAP1 JUMP JUMPDEST PUSH1 0x0 DUP1 PUSH1 0x0 DUP1 PUSH1 0x0 DUP1 PUSH1 0x0 PUSH1 0xE0 DUP9 DUP11 SUB SLT ISZERO PUSH2 0x3F9F JUMPI DUP5 DUP6 REVERT JUMPDEST DUP8 CALLDATALOAD PUSH2 0x3FAA DUP2 PUSH2 0x46D5 JUMP JUMPDEST SWAP7 POP PUSH1 0x20 DUP9 ADD CALLDATALOAD PUSH2 0x3FBA DUP2 PUSH2 0x46D5 JUMP JUMPDEST SWAP6 POP PUSH1 0x40 DUP9 ADD CALLDATALOAD SWAP5 POP PUSH1 0x60 DUP9 ADD CALLDATALOAD SWAP4 POP PUSH1 0x80 DUP9 ADD CALLDATALOAD PUSH1 0xFF DUP2 AND DUP2 EQ PUSH2 0x3FDD JUMPI DUP4 DUP5 REVERT JUMPDEST SWAP7 SWAP10 SWAP6 SWAP9 POP SWAP4 SWAP7 SWAP3 SWAP6 SWAP5 PUSH1 0xA0 DUP5 ADD CALLDATALOAD SWAP5 POP PUSH1 0xC0 SWAP1 SWAP4 ADD CALLDATALOAD SWAP3 SWAP2 POP POP JUMP JUMPDEST PUSH1 0x0 DUP1 PUSH1 0x40 DUP4 DUP6 SUB SLT ISZERO PUSH2 0x400C JUMPI DUP2 DUP3 REVERT JUMPDEST DUP3 CALLDATALOAD PUSH2 0x4017 DUP2 PUSH2 0x46D5 JUMP JUMPDEST SWAP5 PUSH1 0x20 SWAP4 SWAP1 SWAP4 ADD CALLDATALOAD SWAP4 POP POP POP JUMP JUMPDEST PUSH1 0x0 DUP1 PUSH1 0x0 PUSH1 0x60 DUP5 DUP7 SUB SLT ISZERO PUSH2 0x4039 JUMPI DUP1 DUP2 REVERT JUMPDEST DUP4 MLOAD PUSH1 0x1 PUSH1 0x1 PUSH1 0x40 SHL SUB DUP1 DUP3 GT ISZERO PUSH2 0x404F JUMPI DUP3 DUP4 REVERT JUMPDEST DUP2 DUP7 ADD SWAP2 POP DUP7 PUSH1 0x1F DUP4 ADD SLT PUSH2 0x4062 JUMPI DUP3 DUP4 REVERT JUMPDEST DUP2 MLOAD PUSH1 0x20 PUSH2 0x4072 PUSH2 0x3E32 DUP4 PUSH2 0x46B8 JUMP JUMPDEST DUP3 DUP2 MSTORE DUP2 DUP2 ADD SWAP1 DUP6 DUP4 ADD DUP4 DUP6 MUL DUP8 ADD DUP5 ADD DUP13 LT ISZERO PUSH2 0x408E JUMPI DUP8 DUP9 REVERT JUMPDEST DUP8 SWAP7 POP JUMPDEST DUP5 DUP8 LT ISZERO PUSH2 0x40B9 JUMPI DUP1 MLOAD PUSH2 0x40A5 DUP2 PUSH2 0x46D5 JUMP JUMPDEST DUP4 MSTORE PUSH1 0x1 SWAP7 SWAP1 SWAP7 ADD SWAP6 SWAP2 DUP4 ADD SWAP2 DUP4 ADD PUSH2 0x4092 JUMP JUMPDEST POP SWAP2 DUP10 ADD MLOAD SWAP2 SWAP8 POP SWAP1 SWAP4 POP POP POP DUP1 DUP3 GT ISZERO PUSH2 0x40D2 JUMPI DUP3 DUP4 REVERT JUMPDEST POP PUSH2 0x40DF DUP7 DUP3 DUP8 ADD PUSH2 0x3E12 JUMP JUMPDEST SWAP3 POP POP PUSH1 0x40 DUP5 ADD MLOAD SWAP1 POP SWAP3 POP SWAP3 POP SWAP3 JUMP JUMPDEST PUSH1 0x0 PUSH1 0x20 DUP3 DUP5 SUB SLT ISZERO PUSH2 0x4101 JUMPI DUP1 DUP2 REVERT JUMPDEST DUP2 CALLDATALOAD PUSH2 0x5A1 DUP2 PUSH2 0x46EA JUMP JUMPDEST PUSH1 0x0 PUSH1 0x20 DUP3 DUP5 SUB SLT ISZERO PUSH2 0x411D JUMPI DUP1 DUP2 REVERT JUMPDEST DUP2 MLOAD PUSH2 0x5A1 DUP2 PUSH2 0x46EA JUMP JUMPDEST PUSH1 0x0 DUP1 PUSH1 0x0 DUP1 PUSH1 0x0 DUP1 PUSH1 0x0 PUSH1 0xE0 DUP9 DUP11 SUB SLT ISZERO PUSH2 0x4142 JUMPI DUP1 DUP2 REVERT JUMPDEST DUP8 CALLDATALOAD SWAP7 POP PUSH1 0x20 DUP1 DUP10 ADD CALLDATALOAD PUSH2 0x4155 DUP2 PUSH2 0x46D5 JUMP JUMPDEST SWAP7 POP PUSH1 0x40 DUP10 ADD CALLDATALOAD PUSH2 0x4165 DUP2 PUSH2 0x46D5 JUMP JUMPDEST SWAP6 POP PUSH1 0x60 DUP10 ADD CALLDATALOAD PUSH1 0x1 PUSH1 0x1 PUSH1 0x40 SHL SUB DUP1 DUP3 GT ISZERO PUSH2 0x4180 JUMPI DUP4 DUP5 REVERT JUMPDEST DUP2 DUP12 ADD SWAP2 POP DUP12 PUSH1 0x1F DUP4 ADD SLT PUSH2 0x4193 JUMPI DUP4 DUP5 REVERT JUMPDEST DUP2 CALLDATALOAD PUSH2 0x41A1 PUSH2 0x3E32 DUP3 PUSH2 0x46B8 JUMP JUMPDEST DUP1 DUP3 DUP3 MSTORE DUP6 DUP3 ADD SWAP2 POP DUP6 DUP6 ADD DUP16 DUP8 DUP9 DUP7 MUL DUP9 ADD ADD GT ISZERO PUSH2 0x41BF JUMPI DUP8 DUP9 REVERT JUMPDEST DUP8 SWAP6 POP JUMPDEST DUP4 DUP7 LT ISZERO PUSH2 0x41E1 JUMPI DUP1 CALLDATALOAD DUP4 MSTORE PUSH1 0x1 SWAP6 SWAP1 SWAP6 ADD SWAP5 SWAP2 DUP7 ADD SWAP2 DUP7 ADD PUSH2 0x41C3 JUMP JUMPDEST POP SWAP9 POP POP POP PUSH1 0x80 DUP12 ADD CALLDATALOAD SWAP6 POP PUSH1 0xA0 DUP12 ADD CALLDATALOAD SWAP5 POP PUSH1 0xC0 DUP12 ADD CALLDATALOAD SWAP3 POP DUP1 DUP4 GT ISZERO PUSH2 0x4207 JUMPI DUP4 DUP5 REVERT JUMPDEST POP POP PUSH2 0x4215 DUP11 DUP3 DUP12 ADD PUSH2 0x3E7E JUMP JUMPDEST SWAP2 POP POP SWAP3 SWAP6 SWAP9 SWAP2 SWAP5 SWAP8 POP SWAP3 SWAP6 POP JUMP JUMPDEST PUSH1 0x0 PUSH1 0x20 DUP3 DUP5 SUB SLT ISZERO PUSH2 0x4235 JUMPI DUP1 DUP2 REVERT JUMPDEST DUP2 CALLDATALOAD PUSH1 0x1 PUSH1 0x1 PUSH1 0xE0 SHL SUB NOT DUP2 AND DUP2 EQ PUSH2 0x5A1 JUMPI DUP2 DUP3 REVERT JUMPDEST PUSH1 0x0 PUSH1 0x20 DUP3 DUP5 SUB SLT ISZERO PUSH2 0x425D JUMPI DUP1 DUP2 REVERT JUMPDEST DUP2 MLOAD PUSH2 0x5A1 DUP2 PUSH2 0x46D5 JUMP JUMPDEST PUSH1 0x0 PUSH1 0x20 DUP3 DUP5 SUB SLT ISZERO PUSH2 0x4279 JUMPI DUP1 DUP2 REVERT JUMPDEST DUP2 MLOAD PUSH2 0x5A1 DUP2 PUSH2 0x46F8 JUMP JUMPDEST PUSH1 0x0 DUP1 PUSH1 0x0 PUSH1 0x60 DUP5 DUP7 SUB SLT ISZERO PUSH2 0x4298 JUMPI DUP1 DUP2 REVERT JUMPDEST DUP4 MLOAD PUSH2 0x42A3 DUP2 PUSH2 0x46F8 JUMP JUMPDEST PUSH1 0x20 DUP6 ADD MLOAD SWAP1 SWAP4 POP PUSH1 0x1 PUSH1 0x1 PUSH1 0x40 SHL SUB DUP2 GT ISZERO PUSH2 0x42BE JUMPI DUP2 DUP3 REVERT JUMPDEST PUSH2 0x40DF DUP7 DUP3 DUP8 ADD PUSH2 0x3E12 JUMP JUMPDEST PUSH1 0x0 DUP1 PUSH1 0x40 DUP4 DUP6 SUB SLT ISZERO PUSH2 0x42DC JUMPI DUP2 DUP3 REVERT JUMPDEST DUP3 MLOAD PUSH2 0x42E7 DUP2 PUSH2 0x46F8 JUMP JUMPDEST PUSH1 0x20 SWAP4 SWAP1 SWAP4 ADD MLOAD SWAP3 SWAP5 SWAP3 SWAP4 POP POP POP JUMP JUMPDEST PUSH1 0x0 DUP1 PUSH1 0x0 PUSH1 0x60 DUP5 DUP7 SUB SLT ISZERO PUSH2 0x430B JUMPI DUP1 DUP2 REVERT JUMPDEST DUP4 MLOAD PUSH2 0x4316 DUP2 PUSH2 0x46F8 JUMP JUMPDEST PUSH1 0x20 DUP6 ADD MLOAD PUSH1 0x40 SWAP1 SWAP6 ADD MLOAD SWAP1 SWAP7 SWAP5 SWAP6 POP SWAP4 SWAP3 POP POP POP JUMP JUMPDEST PUSH1 0x0 DUP1 PUSH1 0x40 DUP4 DUP6 SUB SLT ISZERO PUSH2 0x433F JUMPI DUP2 DUP3 REVERT JUMPDEST DUP3 MLOAD PUSH2 0x434A DUP2 PUSH2 0x46F8 JUMP JUMPDEST PUSH1 0x20 DUP5 ADD MLOAD SWAP1 SWAP3 POP PUSH1 0x1 PUSH1 0x1 PUSH1 0x40 SHL SUB DUP2 GT ISZERO PUSH2 0x4365 JUMPI DUP2 DUP3 REVERT JUMPDEST PUSH2 0x4371 DUP6 DUP3 DUP7 ADD PUSH2 0x3E12 JUMP JUMPDEST SWAP2 POP POP SWAP3 POP SWAP3 SWAP1 POP JUMP JUMPDEST PUSH1 0x0 DUP1 PUSH1 0x0 PUSH1 0x60 DUP5 DUP7 SUB SLT ISZERO PUSH2 0x438F JUMPI DUP1 DUP2 REVERT JUMPDEST DUP4 CALLDATALOAD PUSH1 0x1 PUSH1 0x1 PUSH1 0x40 SHL SUB DUP1 DUP3 GT ISZERO PUSH2 0x43A5 JUMPI DUP3 DUP4 REVERT JUMPDEST DUP2 DUP7 ADD SWAP2 POP PUSH2 0x120 DUP1 DUP4 DUP10 SUB SLT ISZERO PUSH2 0x43BB JUMPI DUP4 DUP5 REVERT JUMPDEST PUSH2 0x43C4 DUP2 PUSH2 0x4695 JUMP JUMPDEST SWAP1 POP PUSH2 0x43CF DUP4 PUSH2 0x3EE2 JUMP JUMPDEST DUP2 MSTORE PUSH2 0x43DD PUSH1 0x20 DUP5 ADD PUSH2 0x3E07 JUMP JUMPDEST PUSH1 0x20 DUP3 ADD MSTORE PUSH2 0x43EE PUSH1 0x40 DUP5 ADD PUSH2 0x3E07 JUMP JUMPDEST PUSH1 0x40 DUP3 ADD MSTORE PUSH1 0x60 DUP4 ADD CALLDATALOAD PUSH1 0x60 DUP3 ADD MSTORE PUSH1 0x80 DUP4 ADD CALLDATALOAD PUSH1 0x80 DUP3 ADD MSTORE PUSH1 0xA0 DUP4 ADD CALLDATALOAD PUSH1 0xA0 DUP3 ADD MSTORE PUSH2 0x441D PUSH1 0xC0 DUP5 ADD PUSH2 0x3E07 JUMP JUMPDEST PUSH1 0xC0 DUP3 ADD MSTORE PUSH2 0x442E PUSH1 0xE0 DUP5 ADD PUSH2 0x3E07 JUMP JUMPDEST PUSH1 0xE0 DUP3 ADD MSTORE PUSH2 0x100 DUP1 DUP5 ADD CALLDATALOAD DUP4 DUP2 GT ISZERO PUSH2 0x4446 JUMPI DUP6 DUP7 REVERT JUMPDEST PUSH2 0x4452 DUP11 DUP3 DUP8 ADD PUSH2 0x3E7E JUMP JUMPDEST SWAP2 DUP4 ADD SWAP2 SWAP1 SWAP2 MSTORE POP SWAP8 PUSH1 0x20 DUP8 ADD CALLDATALOAD SWAP8 POP PUSH1 0x40 SWAP1 SWAP7 ADD CALLDATALOAD SWAP6 SWAP5 POP POP POP POP POP JUMP JUMPDEST PUSH1 0x0 PUSH1 0x20 DUP3 DUP5 SUB SLT ISZERO PUSH2 0x4482 JUMPI DUP1 DUP2 REVERT JUMPDEST POP CALLDATALOAD SWAP2 SWAP1 POP JUMP JUMPDEST PUSH1 0x0 DUP2 MLOAD DUP1 DUP5 MSTORE PUSH1 0x20 DUP1 DUP6 ADD SWAP5 POP DUP1 DUP5 ADD DUP4 JUMPDEST DUP4 DUP2 LT ISZERO PUSH2 0x44B8 JUMPI DUP2 MLOAD DUP8 MSTORE SWAP6 DUP3 ADD SWAP6 SWAP1 DUP3 ADD SWAP1 PUSH1 0x1 ADD PUSH2 0x449C JUMP JUMPDEST POP SWAP5 SWAP6 SWAP5 POP POP POP POP POP JUMP JUMPDEST SWAP2 DUP3 MSTORE PUSH1 0x1 PUSH1 0x1 PUSH1 0xE0 SHL SUB NOT AND PUSH1 0x20 DUP3 ADD MSTORE PUSH1 0x24 ADD SWAP1 JUMP JUMPDEST PUSH1 0x0 DUP3 DUP5 DUP4 CALLDATACOPY SWAP2 ADD SWAP1 DUP2 MSTORE SWAP2 SWAP1 POP JUMP JUMPDEST PUSH2 0x1901 PUSH1 0xF0 SHL DUP2 MSTORE PUSH1 0x2 DUP2 ADD SWAP3 SWAP1 SWAP3 MSTORE PUSH1 0x22 DUP3 ADD MSTORE PUSH1 0x42 ADD SWAP1 JUMP JUMPDEST PUSH1 0x1 PUSH1 0x1 PUSH1 0xA0 SHL SUB SWAP2 SWAP1 SWAP2 AND DUP2 MSTORE PUSH1 0x20 ADD SWAP1 JUMP JUMPDEST PUSH1 0x0 PUSH1 0x20 DUP3 MSTORE PUSH2 0x5A1 PUSH1 0x20 DUP4 ADD DUP5 PUSH2 0x4489 JUMP JUMPDEST PUSH1 0x0 PUSH1 0x40 DUP3 MSTORE PUSH2 0x4540 PUSH1 0x40 DUP4 ADD DUP6 PUSH2 0x4489 JUMP JUMPDEST DUP3 DUP2 SUB PUSH1 0x20 DUP5 ADD MSTORE PUSH2 0x236F DUP2 DUP6 PUSH2 0x4489 JUMP JUMPDEST SWAP1 ISZERO ISZERO DUP2 MSTORE PUSH1 0x20 ADD SWAP1 JUMP JUMPDEST SWAP3 ISZERO ISZERO DUP4 MSTORE PUSH1 0x20 DUP4 ADD SWAP2 SWAP1 SWAP2 MSTORE PUSH1 0x40 DUP3 ADD MSTORE PUSH1 0x60 ADD SWAP1 JUMP JUMPDEST SWAP1 DUP2 MSTORE PUSH1 0x20 ADD SWAP1 JUMP JUMPDEST SWAP3 DUP4 MSTORE PUSH1 0x1 PUSH1 0x1 PUSH1 0xA0 SHL SUB SWAP2 DUP3 AND PUSH1 0x20 DUP5 ADD MSTORE AND PUSH1 0x40 DUP3 ADD MSTORE PUSH1 0x60 ADD SWAP1 JUMP JUMPDEST SWAP6 DUP7 MSTORE PUSH1 0x1 PUSH1 0x1 PUSH1 0xA0 SHL SUB SWAP5 DUP6 AND PUSH1 0x20 DUP8 ADD MSTORE SWAP3 SWAP1 SWAP4 AND PUSH1 0x40 DUP6 ADD MSTORE PUSH1 0x60 DUP5 ADD MSTORE PUSH1 0x80 DUP4 ADD SWAP2 SWAP1 SWAP2 MSTORE PUSH1 0xA0 DUP3 ADD MSTORE PUSH1 0xC0 ADD SWAP1 JUMP JUMPDEST SWAP5 DUP6 MSTORE PUSH1 0x20 DUP6 ADD SWAP4 SWAP1 SWAP4 MSTORE PUSH1 0x40 DUP5 ADD SWAP2 SWAP1 SWAP2 MSTORE PUSH1 0x60 DUP4 ADD MSTORE PUSH1 0x1 PUSH1 0x1 PUSH1 0xA0 SHL SUB AND PUSH1 0x80 DUP3 ADD MSTORE PUSH1 0xA0 ADD SWAP1 JUMP JUMPDEST SWAP4 DUP5 MSTORE PUSH1 0xFF SWAP3 SWAP1 SWAP3 AND PUSH1 0x20 DUP5 ADD MSTORE PUSH1 0x40 DUP4 ADD MSTORE PUSH1 0x60 DUP3 ADD MSTORE PUSH1 0x80 ADD SWAP1 JUMP JUMPDEST PUSH1 0x0 PUSH1 0x20 DUP1 DUP4 MSTORE DUP4 MLOAD DUP1 DUP3 DUP6 ADD MSTORE DUP3 JUMPDEST DUP2 DUP2 LT ISZERO PUSH2 0x4647 JUMPI DUP6 DUP2 ADD DUP4 ADD MLOAD DUP6 DUP3 ADD PUSH1 0x40 ADD MSTORE DUP3 ADD PUSH2 0x462B JUMP JUMPDEST DUP2 DUP2 GT ISZERO PUSH2 0x4658 JUMPI DUP4 PUSH1 0x40 DUP4 DUP8 ADD ADD MSTORE JUMPDEST POP PUSH1 0x1F ADD PUSH1 0x1F NOT AND SWAP3 SWAP1 SWAP3 ADD PUSH1 0x40 ADD SWAP4 SWAP3 POP POP POP JUMP JUMPDEST PUSH1 0x0 DUP4 DUP3 MSTORE PUSH1 0x40 PUSH1 0x20 DUP4 ADD MSTORE PUSH2 0x1BA9 PUSH1 0x40 DUP4 ADD DUP5 PUSH2 0x4489 JUMP JUMPDEST PUSH1 0xFF SWAP2 SWAP1 SWAP2 AND DUP2 MSTORE PUSH1 0x20 ADD SWAP1 JUMP JUMPDEST PUSH1 0x40 MLOAD DUP2 DUP2 ADD PUSH1 0x1 PUSH1 0x1 PUSH1 0x40 SHL SUB DUP2 GT DUP3 DUP3 LT OR ISZERO PUSH2 0x46B0 JUMPI INVALID JUMPDEST PUSH1 0x40 MSTORE SWAP2 SWAP1 POP JUMP JUMPDEST PUSH1 0x0 PUSH1 0x1 PUSH1 0x1 PUSH1 0x40 SHL SUB DUP3 GT ISZERO PUSH2 0x46CB JUMPI INVALID JUMPDEST POP PUSH1 0x20 SWAP1 DUP2 MUL ADD SWAP1 JUMP JUMPDEST PUSH1 0x1 PUSH1 0x1 PUSH1 0xA0 SHL SUB DUP2 AND DUP2 EQ PUSH2 0x4F3 JUMPI PUSH1 0x0 DUP1 REVERT JUMPDEST DUP1 ISZERO ISZERO DUP2 EQ PUSH2 0x4F3 JUMPI PUSH1 0x0 DUP1 REVERT JUMPDEST PUSH1 0x3 DUP2 LT PUSH2 0x4F3 JUMPI PUSH1 0x0 DUP1 REVERT INVALID LOG2 PUSH5 0x6970667358 0x22 SLT KECCAK256 GASPRICE 0xDE 0xE9 PUSH11 0x347055AB1F51D62FAE7405 DUP14 0x2B 0x4A 0xED 0xC5 PUSH14 0xBB80F0FB536AD5CDC0982A64736F PUSH13 0x63430007060033A26469706673 PC 0x22 SLT KECCAK256 0xC3 0xAF 0xF 0xE5 NUMBER 0x22 0xFB 0xE9 0xD 0x25 PUSH12 0x24C8B87C67DD09B5FBA6FB90 0xB1 SDIV SIGNEXTEND MOD SSTORE DUP16 0xBF DUP15 PUSH28 0x64736F6C634300070600330000000000000000000000000000000000 "
		},
		"gasEstimates": {
			"creation": {
				"codeDepositCost": "4875000",
				"executionCost": "infinite",
				"totalCost": "infinite"
			},
			"external": {
				"create(string,string,address[],uint256[],uint256,address)": "infinite",
				"getPauseConfiguration()": "infinite",
				"getVault()": "infinite",
				"isPoolFromFactory(address)": "1288"
			}
		},
		"methodIdentifiers": {
			"create(string,string,address[],uint256[],uint256,address)": "fbce0393",
			"getPauseConfiguration()": "2da47c40",
			"getVault()": "8d928af8",
			"isPoolFromFactory(address)": "6634b753"
		}
	},
	"abi": [
		{
			"inputs": [
				{
					"internalType": "contract IVault",
					"name": "vault",
					"type": "address"
				}
			],
			"stateMutability": "nonpayable",
			"type": "constructor"
		},
		{
			"anonymous": false,
			"inputs": [
				{
					"indexed": true,
					"internalType": "address",
					"name": "pool",
					"type": "address"
				}
			],
			"name": "PoolCreated",
			"type": "event"
		},
		{
			"inputs": [
				{
					"internalType": "string",
					"name": "name",
					"type": "string"
				},
				{
					"internalType": "string",
					"name": "symbol",
					"type": "string"
				},
				{
					"internalType": "contract IERC20[]",
					"name": "tokens",
					"type": "address[]"
				},
				{
					"internalType": "uint256[]",
					"name": "weights",
					"type": "uint256[]"
				},
				{
					"internalType": "uint256",
					"name": "swapFeePercentage",
					"type": "uint256"
				},
				{
					"internalType": "address",
					"name": "owner",
					"type": "address"
				}
			],
			"name": "create",
			"outputs": [
				{
					"internalType": "address",
					"name": "",
					"type": "address"
				}
			],
			"stateMutability": "nonpayable",
			"type": "function"
		},
		{
			"inputs": [],
			"name": "getPauseConfiguration",
			"outputs": [
				{
					"internalType": "uint256",
					"name": "pauseWindowDuration",
					"type": "uint256"
				},
				{
					"internalType": "uint256",
					"name": "bufferPeriodDuration",
					"type": "uint256"
				}
			],
			"stateMutability": "view",
			"type": "function"
		},
		{
			"inputs": [],
			"name": "getVault",
			"outputs": [
				{
					"internalType": "contract IVault",
					"name": "",
					"type": "address"
				}
			],
			"stateMutability": "view",
			"type": "function"
		},
		{
			"inputs": [
				{
					"internalType": "address",
					"name": "pool",
					"type": "address"
				}
			],
			"name": "isPoolFromFactory",
			"outputs": [
				{
					"internalType": "bool",
					"name": "",
					"type": "bool"
				}
			],
			"stateMutability": "view",
			"type": "function"
		}
	]
}