{
	"data": {
		"bytecode": {
			"linkReferences": {},
			"object": "60806040526000600a553480156200001657600080fd5b506040516200227f3803806200227f83398101604081905262000039916200014b565b6200004433620000fb565b6753444835ec580000821115620000bc5760405162461bcd60e51b815260206004820152603260248201527f6d6178696d756d20656d697373696f6e2072617465206f6620362077766c74206044820152711c195c88189b1bd8dac8195e18d95959195960721b606482015260840160405180910390fd5b600180546001600160a01b039586166001600160a01b0319918216179091556002805494909516931692909217909255600391909155600b55620001b1565b600080546001600160a01b038381166001600160a01b0319831681178455604051919092169283917f8be0079c531659141344cd1fd0a4f28419497f9722a3daafe3b4186f6b6457e09190a35050565b600080600080608085870312156200016257600080fd5b84516200016f8162000198565b6020860151909450620001828162000198565b6040860151606090960151949790965092505050565b6001600160a01b0381168114620001ae57600080fd5b50565b6120be80620001c16000396000f3fe608060405234801561001057600080fd5b50600436106101a95760003560e01c806351eb05a6116100f9578063ab7de09811610097578063d1abb90711610071578063d1abb907146103b2578063e9dab85d146103c5578063f2fde38b146103d8578063f4de2cbc146103eb57600080fd5b8063ab7de09814610379578063c346253d1461038c578063c5f956af1461039f57600080fd5b806388bba42f116100d357806388bba42f146102fb5780638da5cb5b1461030e5780638dbdbe6d1461031f57806393f1a40b1461033257600080fd5b806351eb05a6146102ab57806357a5b58c146102e0578063715018a6146102f357600080fd5b80631bb5e2dc11610166578063329494fe11610140578063329494fe1461027d57806339e5f4ff1461028657806348cd4cb11461028f5780634bf37df61461029857600080fd5b80631bb5e2dc1461022c5780632d809cb6146102575780632f940c701461026a57600080fd5b8063081e3eda146101ae5780630ba84cd2146101c55780631526fe27146101da578063173b31d81461020857806317caf6f11461021057806318fccc7614610219575b600080fd5b6004545b6040519081526020015b60405180910390f35b6101d86101d3366004611dbe565b6103fe565b005b6101ed6101e8366004611dbe565b6104e1565b604080519384526020840192909252908201526060016101bc565b6101b2608081565b6101b2600a5481565b6101d8610227366004611df0565b610514565b61023f61023a366004611dbe565b610665565b6040516001600160a01b0390911681526020016101bc565b6101d8610265366004611ceb565b61068f565b6101d8610278366004611df0565b610705565b6101b260035481565b6101b261036881565b6101b2600b5481565b6101d86102a6366004611d4a565b610850565b6102be6102b9366004611dbe565b6108da565b60408051825181526020808401519082015291810151908201526060016101bc565b6101d86102ee366004611d08565b610c09565b6101d8610c47565b6101d8610309366004611e85565b610c7d565b6000546001600160a01b031661023f565b6101d861032d366004611e57565b610e51565b610364610340366004611df0565b60096020908152600092835260408084209091529082529020805460019091015482565b604080519283526020830191909152016101bc565b6101d8610387366004611e20565b610fef565b61023f61039a366004611dbe565b6112ea565b60025461023f906001600160a01b031681565b6101d86103c0366004611e57565b6112fa565b60015461023f906001600160a01b031681565b6101d86103e6366004611ceb565b611544565b6101b26103f9366004611df0565b6115df565b6000546001600160a01b031633146104315760405162461bcd60e51b815260040161042890611f1e565b60405180910390fd5b6753444835ec5800008111156104a45760405162461bcd60e51b815260206004820152603260248201527f6d6178696d756d20656d697373696f6e2072617465206f6620362077766c74206044820152711c195c88189b1bd8dac8195e18d95959195960721b6064820152608401610428565b600381905560405181815233907fe2492e003bbe8afa53088b406f0c1cb5d9e280370fc72a74cf116ffd343c40539060200160405180910390a250565b600481815481106104f157600080fd5b600091825260209091206003909102018054600182015460029092015490925083565b600061051f836108da565b6000848152600960209081526040808320338452909152808220908301518154939450909264e8d4a510009161055491611fbc565b61055e9190611f9a565b905060008260010154826105729190611fdb565b600184018390559050801561058b5761058b85826117a2565b6000600887815481106105a0576105a061204f565b6000918252602090912001546001600160a01b031690508015610625578354604051634ef6145560e01b81526001600160a01b03831691634ef61455916105f2918b9133918c91899190600401611f53565b600060405180830381600087803b15801561060c57600080fd5b505af1158015610620573d6000803e3d6000fd5b505050505b604051828152879033907f71bab65ced2e5750775a0613be067df48ef06cf92a496ebf7663ae06609249549060200160405180910390a350505050505050565b6005818154811061067557600080fd5b6000918252602090912001546001600160a01b0316905081565b6000546001600160a01b031633146106b95760405162461bcd60e51b815260040161042890611f1e565b600280546001600160a01b0319166001600160a01b03831690811790915560405181907f61885cdba916be748ff3e3f6f15e4206153b8ea3b7acabade9d04b4063a8351090600090a350565b600082815260096020908152604080832033845290915281208054828255600182018390556008805492939192869081106107425761074261204f565b6000918252602090912001546001600160a01b0316905080156107c757604051634ef6145560e01b81526001600160a01b03821690634ef6145590610794908890339089906000908190600401611f53565b600060405180830381600087803b1580156107ae57600080fd5b505af11580156107c2573d6000803e3d6000fd5b505050505b6107fb8483600588815481106107df576107df61204f565b6000918252602090912001546001600160a01b031691906118ed565b836001600160a01b031685336001600160a01b03167f2cac5e20e1541d836381527a43f651851e302817b71dc8e810284e69210c1c6b8560405161084191815260200190565b60405180910390a45050505050565b60005b828110156108d4576000600960008686858181106108735761087361204f565b60209081029290920135835250818101929092526040908101600090812033825290925290205411156108c2576108c28484838181106108b5576108b561204f565b9050602002013583610514565b806108cc8161201e565b915050610853565b50505050565b6108fe60405180606001604052806000815260200160008152602001600081525090565b600482815481106109115761091161204f565b600091825260209182902060408051606081018252600390930290910180548352600181015493830184905260020154908201529150431115610c04576000600583815481106109635761096361204f565b6000918252602090912001546040516370a0823160e01b81523060048201526001600160a01b03909116906370a082319060240160206040518083038186803b1580156109af57600080fd5b505afa1580156109c3573d6000803e3d6000fd5b505050506040513d601f19601f820116820180604052508101906109e79190611dd7565b90508015610b74576000826020015143610a019190611fdb565b600a548451600354929350600092610a199085611fbc565b610a239190611fbc565b610a2d9190611f9a565b905060006103e8610a4061036884611fbc565b610a4a9190611f9a565b6001546002549192506001600160a01b03908116916340c10f1991166103e8610a74608087611fbc565b610a7e9190611f9a565b6040516001600160e01b031960e085901b1681526001600160a01b0390921660048301526024820152604401600060405180830381600087803b158015610ac457600080fd5b505af1158015610ad8573d6000803e3d6000fd5b50506001546040516340c10f1960e01b8152306004820152602481018590526001600160a01b0390911692506340c10f199150604401600060405180830381600087803b158015610b2857600080fd5b505af1158015610b3c573d6000803e3d6000fd5b505050508364e8d4a5100082610b529190611fbc565b610b5c9190611f9a565b8560400151610b6b9190611f82565b60408601525050505b4360208301526004805483919085908110610b9157610b9161204f565b60009182526020918290208351600390920201908155828201516001820155604092830151600290910155838101518483015183519182529181018490529182015283907fcb7325664a4a3b7c7223eefc492a97ca4fdf94d46884621e5a8fae5a04b2b9d29060600160405180910390a2505b919050565b8060005b818110156108d457610c36848483818110610c2a57610c2a61204f565b905060200201356108da565b50610c408161201e565b9050610c0d565b6000546001600160a01b03163314610c715760405162461bcd60e51b815260040161042890611f1e565b610c7b6000611950565b565b6000546001600160a01b03163314610ca75760405162461bcd60e51b815260040161042890611f1e565b813b151580610cbd57506001600160a01b038216155b610d185760405162461bcd60e51b815260206004820152602660248201527f7365743a207265776172646572206d75737420626520636f6e7472616374206f60448201526572207a65726f60d01b6064820152608401610428565b8260048581548110610d2c57610d2c61204f565b906000526020600020906003020160000154600a54610d4b9190611fdb565b610d559190611f82565b600a819055508260048581548110610d6f57610d6f61204f565b60009182526020909120600390910201558015610dc9578160088581548110610d9a57610d9a61204f565b9060005260206000200160006101000a8154816001600160a01b0302191690836001600160a01b031602179055505b80610dfb5760088481548110610de157610de161204f565b6000918252602090912001546001600160a01b0316610dfd565b815b6001600160a01b0316847f95895a6ab1df54420d241b55243258a33e61b2194db66c1179ec521aae8e18658584604051610e439291909182521515602082015260400190565b60405180910390a350505050565b6000610e5c846108da565b60008581526009602090815260408083206001600160a01b03871684529091529020805491925090610e8f908590611f82565b8155604082015164e8d4a5100090610ea79086611fbc565b610eb19190611f9a565b8160010154610ec09190611f82565b8160010181905550600060088681548110610edd57610edd61204f565b6000918252602090912001546001600160a01b031690508015610f63578154604051634ef6145560e01b81526001600160a01b03831691634ef6145591610f30918a918991829160009190600401611f53565b600060405180830381600087803b158015610f4a57600080fd5b505af1158015610f5e573d6000803e3d6000fd5b505050505b610f9933308760058a81548110610f7c57610f7c61204f565b6000918252602090912001546001600160a01b03169291906119a0565b836001600160a01b031686336001600160a01b03167f02d7e648dd130fc184d383e55bb126ac4c9c60e8f94bf05acdf557ba2d540b4788604051610fdf91815260200190565b60405180910390a4505050505050565b6000546001600160a01b031633146110195760405162461bcd60e51b815260040161042890611f1e565b813b6110765760405162461bcd60e51b815260206004820152602660248201527f6164643a204c5020746f6b656e206d75737420626520612076616c696420636f6044820152651b9d1c9858dd60d21b6064820152608401610428565b803b15158061108c57506001600160a01b038116155b6110e75760405162461bcd60e51b815260206004820152602660248201527f6164643a207265776172646572206d75737420626520636f6e7472616374206f60448201526572207a65726f60d01b6064820152608401610428565b6110f26006836119d8565b156111375760405162461bcd60e51b81526020600482015260156024820152741859190e88131408185b1c9958591e481859191959605a1b6044820152606401610428565b6000600b54431161114a57600b5461114c565b435b905083600a5461115c9190611f82565b600a55600580546001810182556000919091527f036b6384b5eca791c62761152d0c79bb0604c104a5fb6f4eb0703f3154bb3db00180546001600160a01b0319166001600160a01b0385161790556111b56006846119ff565b506008805460018082019092557ff3f7a9fe364faab93b216da50a3214154f22a0a2b415b23a84c8169e8b636ee30180546001600160a01b0319166001600160a01b0385811691821790925560408051606081018252888152602081018681526000928201838152600480548089018255945291517f8a35acfbc15ff81a39ae7d344fd709f28e8600b4aa8c65c6b64bfe7fe36bd19b600390940293840155517f8a35acfbc15ff81a39ae7d344fd709f28e8600b4aa8c65c6b64bfe7fe36bd19c830155517f8a35acfbc15ff81a39ae7d344fd709f28e8600b4aa8c65c6b64bfe7fe36bd19d909101556005549092918616916112b191611fdb565b6040518781527f81ee0f8c5c46e2cb41984886f77a84181724abb86c32a5f6de539b07509d45e59060200160405180910390a450505050565b6008818154811061067557600080fd5b6000611305846108da565b6000858152600960209081526040808320338452909152902080549192509084111561137f5760405162461bcd60e51b815260206004820152602360248201527f63616e6e6f74207769746864726177206d6f7265207468616e206465706f73696044820152621d195960ea1b6064820152608401610428565b600064e8d4a510008360400151836000015461139b9190611fbc565b6113a59190611f9a565b905060008260010154826113b99190611fdb565b905064e8d4a510008460400151876113d19190611fbc565b6113db9190611f9a565b6113e59083611fdb565b600184015582546113f7908790611fdb565b835561140385826117a2565b6000600888815481106114185761141861204f565b6000918252602090912001546001600160a01b03169050801561149d578354604051634ef6145560e01b81526001600160a01b03831691634ef614559161146a918c9133918c91899190600401611f53565b600060405180830381600087803b15801561148457600080fd5b505af1158015611498573d6000803e3d6000fd5b505050505b6114b5868860058b815481106107df576107df61204f565b856001600160a01b031688336001600160a01b03167f8166bf25f8a2b7ed3c85049207da4358d16edbed977d23fa2ee6f0dde3ec21328a6040516114fb91815260200190565b60405180910390a4604051828152889033907f71bab65ced2e5750775a0613be067df48ef06cf92a496ebf7663ae06609249549060200160405180910390a35050505050505050565b6000546001600160a01b0316331461156e5760405162461bcd60e51b815260040161042890611f1e565b6001600160a01b0381166115d35760405162461bcd60e51b815260206004820152602660248201527f4f776e61626c653a206e6577206f776e657220697320746865207a65726f206160448201526564647265737360d01b6064820152608401610428565b6115dc81611950565b50565b600080600484815481106115f5576115f561204f565b600091825260208083208784526009825260408085206001600160a01b038916865290925290832060039290920201600281015460058054929550929390929091889081106116465761164661204f565b6000918252602090912001546040516370a0823160e01b81523060048201526001600160a01b03909116906370a082319060240160206040518083038186803b15801561169257600080fd5b505afa1580156116a6573d6000803e3d6000fd5b505050506040513d601f19601f820116820180604052508101906116ca9190611dd7565b90508360010154431180156116de57508015155b1561176a5760008460010154436116f59190611fdb565b600a54865460035492935060009261170d9085611fbc565b6117179190611fbc565b6117219190611f9a565b905060006103e861173461036884611fbc565b61173e9190611f9a565b90508361175064e8d4a5100083611fbc565b61175a9190611f9a565b6117649086611f82565b94505050505b6001830154835464e8d4a5100090611783908590611fbc565b61178d9190611f9a565b6117979190611fdb565b979650505050505050565b6001546040516370a0823160e01b81523060048201526000916001600160a01b0316906370a082319060240160206040518083038186803b1580156117e657600080fd5b505afa1580156117fa573d6000803e3d6000fd5b505050506040513d601f19601f8201168201806040525081019061181e9190611dd7565b9050808211156118af5760015460405163a9059cbb60e01b81526001600160a01b038581166004830152602482018490529091169063a9059cbb906044015b602060405180830381600087803b15801561187757600080fd5b505af115801561188b573d6000803e3d6000fd5b505050506040513d601f19601f820116820180604052508101906108d49190611da1565b60015460405163a9059cbb60e01b81526001600160a01b038581166004830152602482018590529091169063a9059cbb9060440161185d565b505050565b6040516001600160a01b0383166024820152604481018290526118e890849063a9059cbb60e01b906064015b60408051601f198184030181529190526020810180516001600160e01b03166001600160e01b031990931692909217909152611a14565b600080546001600160a01b038381166001600160a01b0319831681178455604051919092169283917f8be0079c531659141344cd1fd0a4f28419497f9722a3daafe3b4186f6b6457e09190a35050565b6040516001600160a01b03808516602483015283166044820152606481018290526108d49085906323b872dd60e01b90608401611919565b6001600160a01b038116600090815260018301602052604081205415155b90505b92915050565b60006119f6836001600160a01b038416611ae6565b6000611a69826040518060400160405280602081526020017f5361666545524332303a206c6f772d6c6576656c2063616c6c206661696c6564815250856001600160a01b0316611b359092919063ffffffff16565b8051909150156118e85780806020019051810190611a879190611da1565b6118e85760405162461bcd60e51b815260206004820152602a60248201527f5361666545524332303a204552433230206f7065726174696f6e20646964206e6044820152691bdd081cdd58d8d9595960b21b6064820152608401610428565b6000818152600183016020526040812054611b2d575081546001818101845560008481526020808220909301849055845484825282860190935260409020919091556119f9565b5060006119f9565b6060611b448484600085611b4e565b90505b9392505050565b606082471015611baf5760405162461bcd60e51b815260206004820152602660248201527f416464726573733a20696e73756666696369656e742062616c616e636520666f6044820152651c8818d85b1b60d21b6064820152608401610428565b843b611bfd5760405162461bcd60e51b815260206004820152601d60248201527f416464726573733a2063616c6c20746f206e6f6e2d636f6e74726163740000006044820152606401610428565b600080866001600160a01b03168587604051611c199190611ecf565b60006040518083038185875af1925050503d8060008114611c56576040519150601f19603f3d011682016040523d82523d6000602084013e611c5b565b606091505b509150915061179782828660608315611c75575081611b47565b825115611c855782518084602001fd5b8160405162461bcd60e51b81526004016104289190611eeb565b60008083601f840112611cb157600080fd5b50813567ffffffffffffffff811115611cc957600080fd5b6020830191508360208260051b8501011115611ce457600080fd5b9250929050565b600060208284031215611cfd57600080fd5b8135611b4781612065565b60008060208385031215611d1b57600080fd5b823567ffffffffffffffff811115611d3257600080fd5b611d3e85828601611c9f565b90969095509350505050565b600080600060408486031215611d5f57600080fd5b833567ffffffffffffffff811115611d7657600080fd5b611d8286828701611c9f565b9094509250506020840135611d9681612065565b809150509250925092565b600060208284031215611db357600080fd5b8151611b478161207a565b600060208284031215611dd057600080fd5b5035919050565b600060208284031215611de957600080fd5b5051919050565b60008060408385031215611e0357600080fd5b823591506020830135611e1581612065565b809150509250929050565b600080600060608486031215611e3557600080fd5b833592506020840135611e4781612065565b91506040840135611d9681612065565b600080600060608486031215611e6c57600080fd5b83359250602084013591506040840135611d9681612065565b60008060008060808587031215611e9b57600080fd5b84359350602085013592506040850135611eb481612065565b91506060850135611ec48161207a565b939692955090935050565b60008251611ee1818460208701611ff2565b9190910192915050565b6020815260008251806020840152611f0a816040850160208701611ff2565b601f01601f19169190910160400192915050565b6020808252818101527f4f776e61626c653a2063616c6c6572206973206e6f7420746865206f776e6572604082015260600190565b9485526001600160a01b0393841660208601529190921660408401526060830191909152608082015260a00190565b60008219821115611f9557611f95612039565b500190565b600082611fb757634e487b7160e01b600052601260045260246000fd5b500490565b6000816000190483118215151615611fd657611fd6612039565b500290565b600082821015611fed57611fed612039565b500390565b60005b8381101561200d578181015183820152602001611ff5565b838111156108d45750506000910152565b600060001982141561203257612032612039565b5060010190565b634e487b7160e01b600052601160045260246000fd5b634e487b7160e01b600052603260045260246000fd5b6001600160a01b03811681146115dc57600080fd5b80151581146115dc57600080fdfea2646970667358221220ed6c756c715674bb39c26b5124a0d8dd704be5660c0740b29f77f3c29af114b964736f6c63430008070033",
			"opcodes": "PUSH1 0x80 PUSH1 0x40 MSTORE PUSH1 0x0 PUSH1 0xA SSTORE CALLVALUE DUP1 ISZERO PUSH3 0x16 JUMPI PUSH1 0x0 DUP1 REVERT JUMPDEST POP PUSH1 0x40 MLOAD PUSH3 0x227F CODESIZE SUB DUP1 PUSH3 0x227F DUP4 CODECOPY DUP2 ADD PUSH1 0x40 DUP2 SWAP1 MSTORE PUSH3 0x39 SWAP2 PUSH3 0x14B JUMP JUMPDEST PUSH3 0x44 CALLER PUSH3 0xFB JUMP JUMPDEST PUSH8 0x53444835EC580000 DUP3 GT ISZERO PUSH3 0xBC JUMPI PUSH1 0x40 MLOAD PUSH3 0x461BCD PUSH1 0xE5 SHL DUP2 MSTORE PUSH1 0x20 PUSH1 0x4 DUP3 ADD MSTORE PUSH1 0x32 PUSH1 0x24 DUP3 ADD MSTORE PUSH32 0x6D6178696D756D20656D697373696F6E2072617465206F6620362077766C7420 PUSH1 0x44 DUP3 ADD MSTORE PUSH18 0x1C195C88189B1BD8DAC8195E18D959591959 PUSH1 0x72 SHL PUSH1 0x64 DUP3 ADD MSTORE PUSH1 0x84 ADD PUSH1 0x40 MLOAD DUP1 SWAP2 SUB SWAP1 REVERT JUMPDEST PUSH1 0x1 DUP1 SLOAD PUSH1 0x1 PUSH1 0x1 PUSH1 0xA0 SHL SUB SWAP6 DUP7 AND PUSH1 0x1 PUSH1 0x1 PUSH1 0xA0 SHL SUB NOT SWAP2 DUP3 AND OR SWAP1 SWAP2 SSTORE PUSH1 0x2 DUP1 SLOAD SWAP5 SWAP1 SWAP6 AND SWAP4 AND SWAP3 SWAP1 SWAP3 OR SWAP1 SWAP3 SSTORE PUSH1 0x3 SWAP2 SWAP1 SWAP2 SSTORE PUSH1 0xB SSTORE PUSH3 0x1B1 JUMP JUMPDEST PUSH1 0x0 DUP1 SLOAD PUSH1 0x1 PUSH1 0x1 PUSH1 0xA0 SHL SUB DUP4 DUP2 AND PUSH1 0x1 PUSH1 0x1 PUSH1 0xA0 SHL SUB NOT DUP4 AND DUP2 OR DUP5 SSTORE PUSH1 0x40 MLOAD SWAP2 SWAP1 SWAP3 AND SWAP3 DUP4 SWAP2 PUSH32 0x8BE0079C531659141344CD1FD0A4F28419497F9722A3DAAFE3B4186F6B6457E0 SWAP2 SWAP1 LOG3 POP POP JUMP JUMPDEST PUSH1 0x0 DUP1 PUSH1 0x0 DUP1 PUSH1 0x80 DUP6 DUP8 SUB SLT ISZERO PUSH3 0x162 JUMPI PUSH1 0x0 DUP1 REVERT JUMPDEST DUP5 MLOAD PUSH3 0x16F DUP2 PUSH3 0x198 JUMP JUMPDEST PUSH1 0x20 DUP7 ADD MLOAD SWAP1 SWAP5 POP PUSH3 0x182 DUP2 PUSH3 0x198 JUMP JUMPDEST PUSH1 0x40 DUP7 ADD MLOAD PUSH1 0x60 SWAP1 SWAP7 ADD MLOAD SWAP5 SWAP8 SWAP1 SWAP7 POP SWAP3 POP POP POP JUMP JUMPDEST PUSH1 0x1 PUSH1 0x1 PUSH1 0xA0 SHL SUB DUP2 AND DUP2 EQ PUSH3 0x1AE JUMPI PUSH1 0x0 DUP1 REVERT JUMPDEST POP JUMP JUMPDEST PUSH2 0x20BE DUP1 PUSH3 0x1C1 PUSH1 0x0 CODECOPY PUSH1 0x0 RETURN INVALID PUSH1 0x80 PUSH1 0x40 MSTORE CALLVALUE DUP1 ISZERO PUSH2 0x10 JUMPI PUSH1 0x0 DUP1 REVERT JUMPDEST POP PUSH1 0x4 CALLDATASIZE LT PUSH2 0x1A9 JUMPI PUSH1 0x0 CALLDATALOAD PUSH1 0xE0 SHR DUP1 PUSH4 0x51EB05A6 GT PUSH2 0xF9 JUMPI DUP1 PUSH4 0xAB7DE098 GT PUSH2 0x97 JUMPI DUP1 PUSH4 0xD1ABB907 GT PUSH2 0x71 JUMPI DUP1 PUSH4 0xD1ABB907 EQ PUSH2 0x3B2 JUMPI DUP1 PUSH4 0xE9DAB85D EQ PUSH2 0x3C5 JUMPI DUP1 PUSH4 0xF2FDE38B EQ PUSH2 0x3D8 JUMPI DUP1 PUSH4 0xF4DE2CBC EQ PUSH2 0x3EB JUMPI PUSH1 0x0 DUP1 REVERT JUMPDEST DUP1 PUSH4 0xAB7DE098 EQ PUSH2 0x379 JUMPI DUP1 PUSH4 0xC346253D EQ PUSH2 0x38C JUMPI DUP1 PUSH4 0xC5F956AF EQ PUSH2 0x39F JUMPI PUSH1 0x0 DUP1 REVERT JUMPDEST DUP1 PUSH4 0x88BBA42F GT PUSH2 0xD3 JUMPI DUP1 PUSH4 0x88BBA42F EQ PUSH2 0x2FB JUMPI DUP1 PUSH4 0x8DA5CB5B EQ PUSH2 0x30E JUMPI DUP1 PUSH4 0x8DBDBE6D EQ PUSH2 0x31F JUMPI DUP1 PUSH4 0x93F1A40B EQ PUSH2 0x332 JUMPI PUSH1 0x0 DUP1 REVERT JUMPDEST DUP1 PUSH4 0x51EB05A6 EQ PUSH2 0x2AB JUMPI DUP1 PUSH4 0x57A5B58C EQ PUSH2 0x2E0 JUMPI DUP1 PUSH4 0x715018A6 EQ PUSH2 0x2F3 JUMPI PUSH1 0x0 DUP1 REVERT JUMPDEST DUP1 PUSH4 0x1BB5E2DC GT PUSH2 0x166 JUMPI DUP1 PUSH4 0x329494FE GT PUSH2 0x140 JUMPI DUP1 PUSH4 0x329494FE EQ PUSH2 0x27D JUMPI DUP1 PUSH4 0x39E5F4FF EQ PUSH2 0x286 JUMPI DUP1 PUSH4 0x48CD4CB1 EQ PUSH2 0x28F JUMPI DUP1 PUSH4 0x4BF37DF6 EQ PUSH2 0x298 JUMPI PUSH1 0x0 DUP1 REVERT JUMPDEST DUP1 PUSH4 0x1BB5E2DC EQ PUSH2 0x22C JUMPI DUP1 PUSH4 0x2D809CB6 EQ PUSH2 0x257 JUMPI DUP1 PUSH4 0x2F940C70 EQ PUSH2 0x26A JUMPI PUSH1 0x0 DUP1 REVERT JUMPDEST DUP1 PUSH4 0x81E3EDA EQ PUSH2 0x1AE JUMPI DUP1 PUSH4 0xBA84CD2 EQ PUSH2 0x1C5 JUMPI DUP1 PUSH4 0x1526FE27 EQ PUSH2 0x1DA JUMPI DUP1 PUSH4 0x173B31D8 EQ PUSH2 0x208 JUMPI DUP1 PUSH4 0x17CAF6F1 EQ PUSH2 0x210 JUMPI DUP1 PUSH4 0x18FCCC76 EQ PUSH2 0x219 JUMPI JUMPDEST PUSH1 0x0 DUP1 REVERT JUMPDEST PUSH1 0x4 SLOAD JUMPDEST PUSH1 0x40 MLOAD SWAP1 DUP2 MSTORE PUSH1 0x20 ADD JUMPDEST PUSH1 0x40 MLOAD DUP1 SWAP2 SUB SWAP1 RETURN JUMPDEST PUSH2 0x1D8 PUSH2 0x1D3 CALLDATASIZE PUSH1 0x4 PUSH2 0x1DBE JUMP JUMPDEST PUSH2 0x3FE JUMP JUMPDEST STOP JUMPDEST PUSH2 0x1ED PUSH2 0x1E8 CALLDATASIZE PUSH1 0x4 PUSH2 0x1DBE JUMP JUMPDEST PUSH2 0x4E1 JUMP JUMPDEST PUSH1 0x40 DUP1 MLOAD SWAP4 DUP5 MSTORE PUSH1 0x20 DUP5 ADD SWAP3 SWAP1 SWAP3 MSTORE SWAP1 DUP3 ADD MSTORE PUSH1 0x60 ADD PUSH2 0x1BC JUMP JUMPDEST PUSH2 0x1B2 PUSH1 0x80 DUP2 JUMP JUMPDEST PUSH2 0x1B2 PUSH1 0xA SLOAD DUP2 JUMP JUMPDEST PUSH2 0x1D8 PUSH2 0x227 CALLDATASIZE PUSH1 0x4 PUSH2 0x1DF0 JUMP JUMPDEST PUSH2 0x514 JUMP JUMPDEST PUSH2 0x23F PUSH2 0x23A CALLDATASIZE PUSH1 0x4 PUSH2 0x1DBE JUMP JUMPDEST PUSH2 0x665 JUMP JUMPDEST PUSH1 0x40 MLOAD PUSH1 0x1 PUSH1 0x1 PUSH1 0xA0 SHL SUB SWAP1 SWAP2 AND DUP2 MSTORE PUSH1 0x20 ADD PUSH2 0x1BC JUMP JUMPDEST PUSH2 0x1D8 PUSH2 0x265 CALLDATASIZE PUSH1 0x4 PUSH2 0x1CEB JUMP JUMPDEST PUSH2 0x68F JUMP JUMPDEST PUSH2 0x1D8 PUSH2 0x278 CALLDATASIZE PUSH1 0x4 PUSH2 0x1DF0 JUMP JUMPDEST PUSH2 0x705 JUMP JUMPDEST PUSH2 0x1B2 PUSH1 0x3 SLOAD DUP2 JUMP JUMPDEST PUSH2 0x1B2 PUSH2 0x368 DUP2 JUMP JUMPDEST PUSH2 0x1B2 PUSH1 0xB SLOAD DUP2 JUMP JUMPDEST PUSH2 0x1D8 PUSH2 0x2A6 CALLDATASIZE PUSH1 0x4 PUSH2 0x1D4A JUMP JUMPDEST PUSH2 0x850 JUMP JUMPDEST PUSH2 0x2BE PUSH2 0x2B9 CALLDATASIZE PUSH1 0x4 PUSH2 0x1DBE JUMP JUMPDEST PUSH2 0x8DA JUMP JUMPDEST PUSH1 0x40 DUP1 MLOAD DUP3 MLOAD DUP2 MSTORE PUSH1 0x20 DUP1 DUP5 ADD MLOAD SWAP1 DUP3 ADD MSTORE SWAP2 DUP2 ADD MLOAD SWAP1 DUP3 ADD MSTORE PUSH1 0x60 ADD PUSH2 0x1BC JUMP JUMPDEST PUSH2 0x1D8 PUSH2 0x2EE CALLDATASIZE PUSH1 0x4 PUSH2 0x1D08 JUMP JUMPDEST PUSH2 0xC09 JUMP JUMPDEST PUSH2 0x1D8 PUSH2 0xC47 JUMP JUMPDEST PUSH2 0x1D8 PUSH2 0x309 CALLDATASIZE PUSH1 0x4 PUSH2 0x1E85 JUMP JUMPDEST PUSH2 0xC7D JUMP JUMPDEST PUSH1 0x0 SLOAD PUSH1 0x1 PUSH1 0x1 PUSH1 0xA0 SHL SUB AND PUSH2 0x23F JUMP JUMPDEST PUSH2 0x1D8 PUSH2 0x32D CALLDATASIZE PUSH1 0x4 PUSH2 0x1E57 JUMP JUMPDEST PUSH2 0xE51 JUMP JUMPDEST PUSH2 0x364 PUSH2 0x340 CALLDATASIZE PUSH1 0x4 PUSH2 0x1DF0 JUMP JUMPDEST PUSH1 0x9 PUSH1 0x20 SWAP1 DUP2 MSTORE PUSH1 0x0 SWAP3 DUP4 MSTORE PUSH1 0x40 DUP1 DUP5 KECCAK256 SWAP1 SWAP2 MSTORE SWAP1 DUP3 MSTORE SWAP1 KECCAK256 DUP1 SLOAD PUSH1 0x1 SWAP1 SWAP2 ADD SLOAD DUP3 JUMP JUMPDEST PUSH1 0x40 DUP1 MLOAD SWAP3 DUP4 MSTORE PUSH1 0x20 DUP4 ADD SWAP2 SWAP1 SWAP2 MSTORE ADD PUSH2 0x1BC JUMP JUMPDEST PUSH2 0x1D8 PUSH2 0x387 CALLDATASIZE PUSH1 0x4 PUSH2 0x1E20 JUMP JUMPDEST PUSH2 0xFEF JUMP JUMPDEST PUSH2 0x23F PUSH2 0x39A CALLDATASIZE PUSH1 0x4 PUSH2 0x1DBE JUMP JUMPDEST PUSH2 0x12EA JUMP JUMPDEST PUSH1 0x2 SLOAD PUSH2 0x23F SWAP1 PUSH1 0x1 PUSH1 0x1 PUSH1 0xA0 SHL SUB AND DUP2 JUMP JUMPDEST PUSH2 0x1D8 PUSH2 0x3C0 CALLDATASIZE PUSH1 0x4 PUSH2 0x1E57 JUMP JUMPDEST PUSH2 0x12FA JUMP JUMPDEST PUSH1 0x1 SLOAD PUSH2 0x23F SWAP1 PUSH1 0x1 PUSH1 0x1 PUSH1 0xA0 SHL SUB AND DUP2 JUMP JUMPDEST PUSH2 0x1D8 PUSH2 0x3E6 CALLDATASIZE PUSH1 0x4 PUSH2 0x1CEB JUMP JUMPDEST PUSH2 0x1544 JUMP JUMPDEST PUSH2 0x1B2 PUSH2 0x3F9 CALLDATASIZE PUSH1 0x4 PUSH2 0x1DF0 JUMP JUMPDEST PUSH2 0x15DF JUMP JUMPDEST PUSH1 0x0 SLOAD PUSH1 0x1 PUSH1 0x1 PUSH1 0xA0 SHL SUB AND CALLER EQ PUSH2 0x431 JUMPI PUSH1 0x40 MLOAD PUSH3 0x461BCD PUSH1 0xE5 SHL DUP2 MSTORE PUSH1 0x4 ADD PUSH2 0x428 SWAP1 PUSH2 0x1F1E JUMP JUMPDEST PUSH1 0x40 MLOAD DUP1 SWAP2 SUB SWAP1 REVERT JUMPDEST PUSH8 0x53444835EC580000 DUP2 GT ISZERO PUSH2 0x4A4 JUMPI PUSH1 0x40 MLOAD PUSH3 0x461BCD PUSH1 0xE5 SHL DUP2 MSTORE PUSH1 0x20 PUSH1 0x4 DUP3 ADD MSTORE PUSH1 0x32 PUSH1 0x24 DUP3 ADD MSTORE PUSH32 0x6D6178696D756D20656D697373696F6E2072617465206F6620362077766C7420 PUSH1 0x44 DUP3 ADD MSTORE PUSH18 0x1C195C88189B1BD8DAC8195E18D959591959 PUSH1 0x72 SHL PUSH1 0x64 DUP3 ADD MSTORE PUSH1 0x84 ADD PUSH2 0x428 JUMP JUMPDEST PUSH1 0x3 DUP2 SWAP1 SSTORE PUSH1 0x40 MLOAD DUP2 DUP2 MSTORE CALLER SWAP1 PUSH32 0xE2492E003BBE8AFA53088B406F0C1CB5D9E280370FC72A74CF116FFD343C4053 SWAP1 PUSH1 0x20 ADD PUSH1 0x40 MLOAD DUP1 SWAP2 SUB SWAP1 LOG2 POP JUMP JUMPDEST PUSH1 0x4 DUP2 DUP2 SLOAD DUP2 LT PUSH2 0x4F1 JUMPI PUSH1 0x0 DUP1 REVERT JUMPDEST PUSH1 0x0 SWAP2 DUP3 MSTORE PUSH1 0x20 SWAP1 SWAP2 KECCAK256 PUSH1 0x3 SWAP1 SWAP2 MUL ADD DUP1 SLOAD PUSH1 0x1 DUP3 ADD SLOAD PUSH1 0x2 SWAP1 SWAP3 ADD SLOAD SWAP1 SWAP3 POP DUP4 JUMP JUMPDEST PUSH1 0x0 PUSH2 0x51F DUP4 PUSH2 0x8DA JUMP JUMPDEST PUSH1 0x0 DUP5 DUP2 MSTORE PUSH1 0x9 PUSH1 0x20 SWAP1 DUP2 MSTORE PUSH1 0x40 DUP1 DUP4 KECCAK256 CALLER DUP5 MSTORE SWAP1 SWAP2 MSTORE DUP1 DUP3 KECCAK256 SWAP1 DUP4 ADD MLOAD DUP2 SLOAD SWAP4 SWAP5 POP SWAP1 SWAP3 PUSH5 0xE8D4A51000 SWAP2 PUSH2 0x554 SWAP2 PUSH2 0x1FBC JUMP JUMPDEST PUSH2 0x55E SWAP2 SWAP1 PUSH2 0x1F9A JUMP JUMPDEST SWAP1 POP PUSH1 0x0 DUP3 PUSH1 0x1 ADD SLOAD DUP3 PUSH2 0x572 SWAP2 SWAP1 PUSH2 0x1FDB JUMP JUMPDEST PUSH1 0x1 DUP5 ADD DUP4 SWAP1 SSTORE SWAP1 POP DUP1 ISZERO PUSH2 0x58B JUMPI PUSH2 0x58B DUP6 DUP3 PUSH2 0x17A2 JUMP JUMPDEST PUSH1 0x0 PUSH1 0x8 DUP8 DUP2 SLOAD DUP2 LT PUSH2 0x5A0 JUMPI PUSH2 0x5A0 PUSH2 0x204F JUMP JUMPDEST PUSH1 0x0 SWAP2 DUP3 MSTORE PUSH1 0x20 SWAP1 SWAP2 KECCAK256 ADD SLOAD PUSH1 0x1 PUSH1 0x1 PUSH1 0xA0 SHL SUB AND SWAP1 POP DUP1 ISZERO PUSH2 0x625 JUMPI DUP4 SLOAD PUSH1 0x40 MLOAD PUSH4 0x4EF61455 PUSH1 0xE0 SHL DUP2 MSTORE PUSH1 0x1 PUSH1 0x1 PUSH1 0xA0 SHL SUB DUP4 AND SWAP2 PUSH4 0x4EF61455 SWAP2 PUSH2 0x5F2 SWAP2 DUP12 SWAP2 CALLER SWAP2 DUP13 SWAP2 DUP10 SWAP2 SWAP1 PUSH1 0x4 ADD PUSH2 0x1F53 JUMP JUMPDEST PUSH1 0x0 PUSH1 0x40 MLOAD DUP1 DUP4 SUB DUP2 PUSH1 0x0 DUP8 DUP1 EXTCODESIZE ISZERO DUP1 ISZERO PUSH2 0x60C JUMPI PUSH1 0x0 DUP1 REVERT JUMPDEST POP GAS CALL ISZERO DUP1 ISZERO PUSH2 0x620 JUMPI RETURNDATASIZE PUSH1 0x0 DUP1 RETURNDATACOPY RETURNDATASIZE PUSH1 0x0 REVERT JUMPDEST POP POP POP POP JUMPDEST PUSH1 0x40 MLOAD DUP3 DUP2 MSTORE DUP8 SWAP1 CALLER SWAP1 PUSH32 0x71BAB65CED2E5750775A0613BE067DF48EF06CF92A496EBF7663AE0660924954 SWAP1 PUSH1 0x20 ADD PUSH1 0x40 MLOAD DUP1 SWAP2 SUB SWAP1 LOG3 POP POP POP POP POP POP POP JUMP JUMPDEST PUSH1 0x5 DUP2 DUP2 SLOAD DUP2 LT PUSH2 0x675 JUMPI PUSH1 0x0 DUP1 REVERT JUMPDEST PUSH1 0x0 SWAP2 DUP3 MSTORE PUSH1 0x20 SWAP1 SWAP2 KECCAK256 ADD SLOAD PUSH1 0x1 PUSH1 0x1 PUSH1 0xA0 SHL SUB AND SWAP1 POP DUP2 JUMP JUMPDEST PUSH1 0x0 SLOAD PUSH1 0x1 PUSH1 0x1 PUSH1 0xA0 SHL SUB AND CALLER EQ PUSH2 0x6B9 JUMPI PUSH1 0x40 MLOAD PUSH3 0x461BCD PUSH1 0xE5 SHL DUP2 MSTORE PUSH1 0x4 ADD PUSH2 0x428 SWAP1 PUSH2 0x1F1E JUMP JUMPDEST PUSH1 0x2 DUP1 SLOAD PUSH1 0x1 PUSH1 0x1 PUSH1 0xA0 SHL SUB NOT AND PUSH1 0x1 PUSH1 0x1 PUSH1 0xA0 SHL SUB DUP4 AND SWAP1 DUP2 OR SWAP1 SWAP2 SSTORE PUSH1 0x40 MLOAD DUP2 SWAP1 PUSH32 0x61885CDBA916BE748FF3E3F6F15E4206153B8EA3B7ACABADE9D04B4063A83510 SWAP1 PUSH1 0x0 SWAP1 LOG3 POP JUMP JUMPDEST PUSH1 0x0 DUP3 DUP2 MSTORE PUSH1 0x9 PUSH1 0x20 SWAP1 DUP2 MSTORE PUSH1 0x40 DUP1 DUP4 KECCAK256 CALLER DUP5 MSTORE SWAP1 SWAP2 MSTORE DUP2 KECCAK256 DUP1 SLOAD DUP3 DUP3 SSTORE PUSH1 0x1 DUP3 ADD DUP4 SWAP1 SSTORE PUSH1 0x8 DUP1 SLOAD SWAP3 SWAP4 SWAP2 SWAP3 DUP7 SWAP1 DUP2 LT PUSH2 0x742 JUMPI PUSH2 0x742 PUSH2 0x204F JUMP JUMPDEST PUSH1 0x0 SWAP2 DUP3 MSTORE PUSH1 0x20 SWAP1 SWAP2 KECCAK256 ADD SLOAD PUSH1 0x1 PUSH1 0x1 PUSH1 0xA0 SHL SUB AND SWAP1 POP DUP1 ISZERO PUSH2 0x7C7 JUMPI PUSH1 0x40 MLOAD PUSH4 0x4EF61455 PUSH1 0xE0 SHL DUP2 MSTORE PUSH1 0x1 PUSH1 0x1 PUSH1 0xA0 SHL SUB DUP3 AND SWAP1 PUSH4 0x4EF61455 SWAP1 PUSH2 0x794 SWAP1 DUP9 SWAP1 CALLER SWAP1 DUP10 SWAP1 PUSH1 0x0 SWAP1 DUP2 SWAP1 PUSH1 0x4 ADD PUSH2 0x1F53 JUMP JUMPDEST PUSH1 0x0 PUSH1 0x40 MLOAD DUP1 DUP4 SUB DUP2 PUSH1 0x0 DUP8 DUP1 EXTCODESIZE ISZERO DUP1 ISZERO PUSH2 0x7AE JUMPI PUSH1 0x0 DUP1 REVERT JUMPDEST POP GAS CALL ISZERO DUP1 ISZERO PUSH2 0x7C2 JUMPI RETURNDATASIZE PUSH1 0x0 DUP1 RETURNDATACOPY RETURNDATASIZE PUSH1 0x0 REVERT JUMPDEST POP POP POP POP JUMPDEST PUSH2 0x7FB DUP5 DUP4 PUSH1 0x5 DUP9 DUP2 SLOAD DUP2 LT PUSH2 0x7DF JUMPI PUSH2 0x7DF PUSH2 0x204F JUMP JUMPDEST PUSH1 0x0 SWAP2 DUP3 MSTORE PUSH1 0x20 SWAP1 SWAP2 KECCAK256 ADD SLOAD PUSH1 0x1 PUSH1 0x1 PUSH1 0xA0 SHL SUB AND SWAP2 SWAP1 PUSH2 0x18ED JUMP JUMPDEST DUP4 PUSH1 0x1 PUSH1 0x1 PUSH1 0xA0 SHL SUB AND DUP6 CALLER PUSH1 0x1 PUSH1 0x1 PUSH1 0xA0 SHL SUB AND PUSH32 0x2CAC5E20E1541D836381527A43F651851E302817B71DC8E810284E69210C1C6B DUP6 PUSH1 0x40 MLOAD PUSH2 0x841 SWAP2 DUP2 MSTORE PUSH1 0x20 ADD SWAP1 JUMP JUMPDEST PUSH1 0x40 MLOAD DUP1 SWAP2 SUB SWAP1 LOG4 POP POP POP POP POP JUMP JUMPDEST PUSH1 0x0 JUMPDEST DUP3 DUP2 LT ISZERO PUSH2 0x8D4 JUMPI PUSH1 0x0 PUSH1 0x9 PUSH1 0x0 DUP7 DUP7 DUP6 DUP2 DUP2 LT PUSH2 0x873 JUMPI PUSH2 0x873 PUSH2 0x204F JUMP JUMPDEST PUSH1 0x20 SWAP1 DUP2 MUL SWAP3 SWAP1 SWAP3 ADD CALLDATALOAD DUP4 MSTORE POP DUP2 DUP2 ADD SWAP3 SWAP1 SWAP3 MSTORE PUSH1 0x40 SWAP1 DUP2 ADD PUSH1 0x0 SWAP1 DUP2 KECCAK256 CALLER DUP3 MSTORE SWAP1 SWAP3 MSTORE SWAP1 KECCAK256 SLOAD GT ISZERO PUSH2 0x8C2 JUMPI PUSH2 0x8C2 DUP5 DUP5 DUP4 DUP2 DUP2 LT PUSH2 0x8B5 JUMPI PUSH2 0x8B5 PUSH2 0x204F JUMP JUMPDEST SWAP1 POP PUSH1 0x20 MUL ADD CALLDATALOAD DUP4 PUSH2 0x514 JUMP JUMPDEST DUP1 PUSH2 0x8CC DUP2 PUSH2 0x201E JUMP JUMPDEST SWAP2 POP POP PUSH2 0x853 JUMP JUMPDEST POP POP POP POP JUMP JUMPDEST PUSH2 0x8FE PUSH1 0x40 MLOAD DUP1 PUSH1 0x60 ADD PUSH1 0x40 MSTORE DUP1 PUSH1 0x0 DUP2 MSTORE PUSH1 0x20 ADD PUSH1 0x0 DUP2 MSTORE PUSH1 0x20 ADD PUSH1 0x0 DUP2 MSTORE POP SWAP1 JUMP JUMPDEST PUSH1 0x4 DUP3 DUP2 SLOAD DUP2 LT PUSH2 0x911 JUMPI PUSH2 0x911 PUSH2 0x204F JUMP JUMPDEST PUSH1 0x0 SWAP2 DUP3 MSTORE PUSH1 0x20 SWAP2 DUP3 SWAP1 KECCAK256 PUSH1 0x40 DUP1 MLOAD PUSH1 0x60 DUP2 ADD DUP3 MSTORE PUSH1 0x3 SWAP1 SWAP4 MUL SWAP1 SWAP2 ADD DUP1 SLOAD DUP4 MSTORE PUSH1 0x1 DUP2 ADD SLOAD SWAP4 DUP4 ADD DUP5 SWAP1 MSTORE PUSH1 0x2 ADD SLOAD SWAP1 DUP3 ADD MSTORE SWAP2 POP NUMBER GT ISZERO PUSH2 0xC04 JUMPI PUSH1 0x0 PUSH1 0x5 DUP4 DUP2 SLOAD DUP2 LT PUSH2 0x963 JUMPI PUSH2 0x963 PUSH2 0x204F JUMP JUMPDEST PUSH1 0x0 SWAP2 DUP3 MSTORE PUSH1 0x20 SWAP1 SWAP2 KECCAK256 ADD SLOAD PUSH1 0x40 MLOAD PUSH4 0x70A08231 PUSH1 0xE0 SHL DUP2 MSTORE ADDRESS PUSH1 0x4 DUP3 ADD MSTORE PUSH1 0x1 PUSH1 0x1 PUSH1 0xA0 SHL SUB SWAP1 SWAP2 AND SWAP1 PUSH4 0x70A08231 SWAP1 PUSH1 0x24 ADD PUSH1 0x20 PUSH1 0x40 MLOAD DUP1 DUP4 SUB DUP2 DUP7 DUP1 EXTCODESIZE ISZERO DUP1 ISZERO PUSH2 0x9AF JUMPI PUSH1 0x0 DUP1 REVERT JUMPDEST POP GAS STATICCALL ISZERO DUP1 ISZERO PUSH2 0x9C3 JUMPI RETURNDATASIZE PUSH1 0x0 DUP1 RETURNDATACOPY RETURNDATASIZE PUSH1 0x0 REVERT JUMPDEST POP POP POP POP PUSH1 0x40 MLOAD RETURNDATASIZE PUSH1 0x1F NOT PUSH1 0x1F DUP3 ADD AND DUP3 ADD DUP1 PUSH1 0x40 MSTORE POP DUP2 ADD SWAP1 PUSH2 0x9E7 SWAP2 SWAP1 PUSH2 0x1DD7 JUMP JUMPDEST SWAP1 POP DUP1 ISZERO PUSH2 0xB74 JUMPI PUSH1 0x0 DUP3 PUSH1 0x20 ADD MLOAD NUMBER PUSH2 0xA01 SWAP2 SWAP1 PUSH2 0x1FDB JUMP JUMPDEST PUSH1 0xA SLOAD DUP5 MLOAD PUSH1 0x3 SLOAD SWAP3 SWAP4 POP PUSH1 0x0 SWAP3 PUSH2 0xA19 SWAP1 DUP6 PUSH2 0x1FBC JUMP JUMPDEST PUSH2 0xA23 SWAP2 SWAP1 PUSH2 0x1FBC JUMP JUMPDEST PUSH2 0xA2D SWAP2 SWAP1 PUSH2 0x1F9A JUMP JUMPDEST SWAP1 POP PUSH1 0x0 PUSH2 0x3E8 PUSH2 0xA40 PUSH2 0x368 DUP5 PUSH2 0x1FBC JUMP JUMPDEST PUSH2 0xA4A SWAP2 SWAP1 PUSH2 0x1F9A JUMP JUMPDEST PUSH1 0x1 SLOAD PUSH1 0x2 SLOAD SWAP2 SWAP3 POP PUSH1 0x1 PUSH1 0x1 PUSH1 0xA0 SHL SUB SWAP1 DUP2 AND SWAP2 PUSH4 0x40C10F19 SWAP2 AND PUSH2 0x3E8 PUSH2 0xA74 PUSH1 0x80 DUP8 PUSH2 0x1FBC JUMP JUMPDEST PUSH2 0xA7E SWAP2 SWAP1 PUSH2 0x1F9A JUMP JUMPDEST PUSH1 0x40 MLOAD PUSH1 0x1 PUSH1 0x1 PUSH1 0xE0 SHL SUB NOT PUSH1 0xE0 DUP6 SWAP1 SHL AND DUP2 MSTORE PUSH1 0x1 PUSH1 0x1 PUSH1 0xA0 SHL SUB SWAP1 SWAP3 AND PUSH1 0x4 DUP4 ADD MSTORE PUSH1 0x24 DUP3 ADD MSTORE PUSH1 0x44 ADD PUSH1 0x0 PUSH1 0x40 MLOAD DUP1 DUP4 SUB DUP2 PUSH1 0x0 DUP8 DUP1 EXTCODESIZE ISZERO DUP1 ISZERO PUSH2 0xAC4 JUMPI PUSH1 0x0 DUP1 REVERT JUMPDEST POP GAS CALL ISZERO DUP1 ISZERO PUSH2 0xAD8 JUMPI RETURNDATASIZE PUSH1 0x0 DUP1 RETURNDATACOPY RETURNDATASIZE PUSH1 0x0 REVERT JUMPDEST POP POP PUSH1 0x1 SLOAD PUSH1 0x40 MLOAD PUSH4 0x40C10F19 PUSH1 0xE0 SHL DUP2 MSTORE ADDRESS PUSH1 0x4 DUP3 ADD MSTORE PUSH1 0x24 DUP2 ADD DUP6 SWAP1 MSTORE PUSH1 0x1 PUSH1 0x1 PUSH1 0xA0 SHL SUB SWAP1 SWAP2 AND SWAP3 POP PUSH4 0x40C10F19 SWAP2 POP PUSH1 0x44 ADD PUSH1 0x0 PUSH1 0x40 MLOAD DUP1 DUP4 SUB DUP2 PUSH1 0x0 DUP8 DUP1 EXTCODESIZE ISZERO DUP1 ISZERO PUSH2 0xB28 JUMPI PUSH1 0x0 DUP1 REVERT JUMPDEST POP GAS CALL ISZERO DUP1 ISZERO PUSH2 0xB3C JUMPI RETURNDATASIZE PUSH1 0x0 DUP1 RETURNDATACOPY RETURNDATASIZE PUSH1 0x0 REVERT JUMPDEST POP POP POP POP DUP4 PUSH5 0xE8D4A51000 DUP3 PUSH2 0xB52 SWAP2 SWAP1 PUSH2 0x1FBC JUMP JUMPDEST PUSH2 0xB5C SWAP2 SWAP1 PUSH2 0x1F9A JUMP JUMPDEST DUP6 PUSH1 0x40 ADD MLOAD PUSH2 0xB6B SWAP2 SWAP1 PUSH2 0x1F82 JUMP JUMPDEST PUSH1 0x40 DUP7 ADD MSTORE POP POP POP JUMPDEST NUMBER PUSH1 0x20 DUP4 ADD MSTORE PUSH1 0x4 DUP1 SLOAD DUP4 SWAP2 SWAP1 DUP6 SWAP1 DUP2 LT PUSH2 0xB91 JUMPI PUSH2 0xB91 PUSH2 0x204F JUMP JUMPDEST PUSH1 0x0 SWAP2 DUP3 MSTORE PUSH1 0x20 SWAP2 DUP3 SWAP1 KECCAK256 DUP4 MLOAD PUSH1 0x3 SWAP1 SWAP3 MUL ADD SWAP1 DUP2 SSTORE DUP3 DUP3 ADD MLOAD PUSH1 0x1 DUP3 ADD SSTORE PUSH1 0x40 SWAP3 DUP4 ADD MLOAD PUSH1 0x2 SWAP1 SWAP2 ADD SSTORE DUP4 DUP2 ADD MLOAD DUP5 DUP4 ADD MLOAD DUP4 MLOAD SWAP2 DUP3 MSTORE SWAP2 DUP2 ADD DUP5 SWAP1 MSTORE SWAP2 DUP3 ADD MSTORE DUP4 SWAP1 PUSH32 0xCB7325664A4A3B7C7223EEFC492A97CA4FDF94D46884621E5A8FAE5A04B2B9D2 SWAP1 PUSH1 0x60 ADD PUSH1 0x40 MLOAD DUP1 SWAP2 SUB SWAP1 LOG2 POP JUMPDEST SWAP2 SWAP1 POP JUMP JUMPDEST DUP1 PUSH1 0x0 JUMPDEST DUP2 DUP2 LT ISZERO PUSH2 0x8D4 JUMPI PUSH2 0xC36 DUP5 DUP5 DUP4 DUP2 DUP2 LT PUSH2 0xC2A JUMPI PUSH2 0xC2A PUSH2 0x204F JUMP JUMPDEST SWAP1 POP PUSH1 0x20 MUL ADD CALLDATALOAD PUSH2 0x8DA JUMP JUMPDEST POP PUSH2 0xC40 DUP2 PUSH2 0x201E JUMP JUMPDEST SWAP1 POP PUSH2 0xC0D JUMP JUMPDEST PUSH1 0x0 SLOAD PUSH1 0x1 PUSH1 0x1 PUSH1 0xA0 SHL SUB AND CALLER EQ PUSH2 0xC71 JUMPI PUSH1 0x40 MLOAD PUSH3 0x461BCD PUSH1 0xE5 SHL DUP2 MSTORE PUSH1 0x4 ADD PUSH2 0x428 SWAP1 PUSH2 0x1F1E JUMP JUMPDEST PUSH2 0xC7B PUSH1 0x0 PUSH2 0x1950 JUMP JUMPDEST JUMP JUMPDEST PUSH1 0x0 SLOAD PUSH1 0x1 PUSH1 0x1 PUSH1 0xA0 SHL SUB AND CALLER EQ PUSH2 0xCA7 JUMPI PUSH1 0x40 MLOAD PUSH3 0x461BCD PUSH1 0xE5 SHL DUP2 MSTORE PUSH1 0x4 ADD PUSH2 0x428 SWAP1 PUSH2 0x1F1E JUMP JUMPDEST DUP2 EXTCODESIZE ISZERO ISZERO DUP1 PUSH2 0xCBD JUMPI POP PUSH1 0x1 PUSH1 0x1 PUSH1 0xA0 SHL SUB DUP3 AND ISZERO JUMPDEST PUSH2 0xD18 JUMPI PUSH1 0x40 MLOAD PUSH3 0x461BCD PUSH1 0xE5 SHL DUP2 MSTORE PUSH1 0x20 PUSH1 0x4 DUP3 ADD MSTORE PUSH1 0x26 PUSH1 0x24 DUP3 ADD MSTORE PUSH32 0x7365743A207265776172646572206D75737420626520636F6E7472616374206F PUSH1 0x44 DUP3 ADD MSTORE PUSH6 0x72207A65726F PUSH1 0xD0 SHL PUSH1 0x64 DUP3 ADD MSTORE PUSH1 0x84 ADD PUSH2 0x428 JUMP JUMPDEST DUP3 PUSH1 0x4 DUP6 DUP2 SLOAD DUP2 LT PUSH2 0xD2C JUMPI PUSH2 0xD2C PUSH2 0x204F JUMP JUMPDEST SWAP1 PUSH1 0x0 MSTORE PUSH1 0x20 PUSH1 0x0 KECCAK256 SWAP1 PUSH1 0x3 MUL ADD PUSH1 0x0 ADD SLOAD PUSH1 0xA SLOAD PUSH2 0xD4B SWAP2 SWAP1 PUSH2 0x1FDB JUMP JUMPDEST PUSH2 0xD55 SWAP2 SWAP1 PUSH2 0x1F82 JUMP JUMPDEST PUSH1 0xA DUP2 SWAP1 SSTORE POP DUP3 PUSH1 0x4 DUP6 DUP2 SLOAD DUP2 LT PUSH2 0xD6F JUMPI PUSH2 0xD6F PUSH2 0x204F JUMP JUMPDEST PUSH1 0x0 SWAP2 DUP3 MSTORE PUSH1 0x20 SWAP1 SWAP2 KECCAK256 PUSH1 0x3 SWAP1 SWAP2 MUL ADD SSTORE DUP1 ISZERO PUSH2 0xDC9 JUMPI DUP2 PUSH1 0x8 DUP6 DUP2 SLOAD DUP2 LT PUSH2 0xD9A JUMPI PUSH2 0xD9A PUSH2 0x204F JUMP JUMPDEST SWAP1 PUSH1 0x0 MSTORE PUSH1 0x20 PUSH1 0x0 KECCAK256 ADD PUSH1 0x0 PUSH2 0x100 EXP DUP2 SLOAD DUP2 PUSH1 0x1 PUSH1 0x1 PUSH1 0xA0 SHL SUB MUL NOT AND SWAP1 DUP4 PUSH1 0x1 PUSH1 0x1 PUSH1 0xA0 SHL SUB AND MUL OR SWAP1 SSTORE POP JUMPDEST DUP1 PUSH2 0xDFB JUMPI PUSH1 0x8 DUP5 DUP2 SLOAD DUP2 LT PUSH2 0xDE1 JUMPI PUSH2 0xDE1 PUSH2 0x204F JUMP JUMPDEST PUSH1 0x0 SWAP2 DUP3 MSTORE PUSH1 0x20 SWAP1 SWAP2 KECCAK256 ADD SLOAD PUSH1 0x1 PUSH1 0x1 PUSH1 0xA0 SHL SUB AND PUSH2 0xDFD JUMP JUMPDEST DUP2 JUMPDEST PUSH1 0x1 PUSH1 0x1 PUSH1 0xA0 SHL SUB AND DUP5 PUSH32 0x95895A6AB1DF54420D241B55243258A33E61B2194DB66C1179EC521AAE8E1865 DUP6 DUP5 PUSH1 0x40 MLOAD PUSH2 0xE43 SWAP3 SWAP2 SWAP1 SWAP2 DUP3 MSTORE ISZERO ISZERO PUSH1 0x20 DUP3 ADD MSTORE PUSH1 0x40 ADD SWAP1 JUMP JUMPDEST PUSH1 0x40 MLOAD DUP1 SWAP2 SUB SWAP1 LOG3 POP POP POP POP JUMP JUMPDEST PUSH1 0x0 PUSH2 0xE5C DUP5 PUSH2 0x8DA JUMP JUMPDEST PUSH1 0x0 DUP6 DUP2 MSTORE PUSH1 0x9 PUSH1 0x20 SWAP1 DUP2 MSTORE PUSH1 0x40 DUP1 DUP4 KECCAK256 PUSH1 0x1 PUSH1 0x1 PUSH1 0xA0 SHL SUB DUP8 AND DUP5 MSTORE SWAP1 SWAP2 MSTORE SWAP1 KECCAK256 DUP1 SLOAD SWAP2 SWAP3 POP SWAP1 PUSH2 0xE8F SWAP1 DUP6 SWAP1 PUSH2 0x1F82 JUMP JUMPDEST DUP2 SSTORE PUSH1 0x40 DUP3 ADD MLOAD PUSH5 0xE8D4A51000 SWAP1 PUSH2 0xEA7 SWAP1 DUP7 PUSH2 0x1FBC JUMP JUMPDEST PUSH2 0xEB1 SWAP2 SWAP1 PUSH2 0x1F9A JUMP JUMPDEST DUP2 PUSH1 0x1 ADD SLOAD PUSH2 0xEC0 SWAP2 SWAP1 PUSH2 0x1F82 JUMP JUMPDEST DUP2 PUSH1 0x1 ADD DUP2 SWAP1 SSTORE POP PUSH1 0x0 PUSH1 0x8 DUP7 DUP2 SLOAD DUP2 LT PUSH2 0xEDD JUMPI PUSH2 0xEDD PUSH2 0x204F JUMP JUMPDEST PUSH1 0x0 SWAP2 DUP3 MSTORE PUSH1 0x20 SWAP1 SWAP2 KECCAK256 ADD SLOAD PUSH1 0x1 PUSH1 0x1 PUSH1 0xA0 SHL SUB AND SWAP1 POP DUP1 ISZERO PUSH2 0xF63 JUMPI DUP2 SLOAD PUSH1 0x40 MLOAD PUSH4 0x4EF61455 PUSH1 0xE0 SHL DUP2 MSTORE PUSH1 0x1 PUSH1 0x1 PUSH1 0xA0 SHL SUB DUP4 AND SWAP2 PUSH4 0x4EF61455 SWAP2 PUSH2 0xF30 SWAP2 DUP11 SWAP2 DUP10 SWAP2 DUP3 SWAP2 PUSH1 0x0 SWAP2 SWAP1 PUSH1 0x4 ADD PUSH2 0x1F53 JUMP JUMPDEST PUSH1 0x0 PUSH1 0x40 MLOAD DUP1 DUP4 SUB DUP2 PUSH1 0x0 DUP8 DUP1 EXTCODESIZE ISZERO DUP1 ISZERO PUSH2 0xF4A JUMPI PUSH1 0x0 DUP1 REVERT JUMPDEST POP GAS CALL ISZERO DUP1 ISZERO PUSH2 0xF5E JUMPI RETURNDATASIZE PUSH1 0x0 DUP1 RETURNDATACOPY RETURNDATASIZE PUSH1 0x0 REVERT JUMPDEST POP POP POP POP JUMPDEST PUSH2 0xF99 CALLER ADDRESS DUP8 PUSH1 0x5 DUP11 DUP2 SLOAD DUP2 LT PUSH2 0xF7C JUMPI PUSH2 0xF7C PUSH2 0x204F JUMP JUMPDEST PUSH1 0x0 SWAP2 DUP3 MSTORE PUSH1 0x20 SWAP1 SWAP2 KECCAK256 ADD SLOAD PUSH1 0x1 PUSH1 0x1 PUSH1 0xA0 SHL SUB AND SWAP3 SWAP2 SWAP1 PUSH2 0x19A0 JUMP JUMPDEST DUP4 PUSH1 0x1 PUSH1 0x1 PUSH1 0xA0 SHL SUB AND DUP7 CALLER PUSH1 0x1 PUSH1 0x1 PUSH1 0xA0 SHL SUB AND PUSH32 0x2D7E648DD130FC184D383E55BB126AC4C9C60E8F94BF05ACDF557BA2D540B47 DUP9 PUSH1 0x40 MLOAD PUSH2 0xFDF SWAP2 DUP2 MSTORE PUSH1 0x20 ADD SWAP1 JUMP JUMPDEST PUSH1 0x40 MLOAD DUP1 SWAP2 SUB SWAP1 LOG4 POP POP POP POP POP POP JUMP JUMPDEST PUSH1 0x0 SLOAD PUSH1 0x1 PUSH1 0x1 PUSH1 0xA0 SHL SUB AND CALLER EQ PUSH2 0x1019 JUMPI PUSH1 0x40 MLOAD PUSH3 0x461BCD PUSH1 0xE5 SHL DUP2 MSTORE PUSH1 0x4 ADD PUSH2 0x428 SWAP1 PUSH2 0x1F1E JUMP JUMPDEST DUP2 EXTCODESIZE PUSH2 0x1076 JUMPI PUSH1 0x40 MLOAD PUSH3 0x461BCD PUSH1 0xE5 SHL DUP2 MSTORE PUSH1 0x20 PUSH1 0x4 DUP3 ADD MSTORE PUSH1 0x26 PUSH1 0x24 DUP3 ADD MSTORE PUSH32 0x6164643A204C5020746F6B656E206D75737420626520612076616C696420636F PUSH1 0x44 DUP3 ADD MSTORE PUSH6 0x1B9D1C9858DD PUSH1 0xD2 SHL PUSH1 0x64 DUP3 ADD MSTORE PUSH1 0x84 ADD PUSH2 0x428 JUMP JUMPDEST DUP1 EXTCODESIZE ISZERO ISZERO DUP1 PUSH2 0x108C JUMPI POP PUSH1 0x1 PUSH1 0x1 PUSH1 0xA0 SHL SUB DUP2 AND ISZERO JUMPDEST PUSH2 0x10E7 JUMPI PUSH1 0x40 MLOAD PUSH3 0x461BCD PUSH1 0xE5 SHL DUP2 MSTORE PUSH1 0x20 PUSH1 0x4 DUP3 ADD MSTORE PUSH1 0x26 PUSH1 0x24 DUP3 ADD MSTORE PUSH32 0x6164643A207265776172646572206D75737420626520636F6E7472616374206F PUSH1 0x44 DUP3 ADD MSTORE PUSH6 0x72207A65726F PUSH1 0xD0 SHL PUSH1 0x64 DUP3 ADD MSTORE PUSH1 0x84 ADD PUSH2 0x428 JUMP JUMPDEST PUSH2 0x10F2 PUSH1 0x6 DUP4 PUSH2 0x19D8 JUMP JUMPDEST ISZERO PUSH2 0x1137 JUMPI PUSH1 0x40 MLOAD PUSH3 0x461BCD PUSH1 0xE5 SHL DUP2 MSTORE PUSH1 0x20 PUSH1 0x4 DUP3 ADD MSTORE PUSH1 0x15 PUSH1 0x24 DUP3 ADD MSTORE PUSH21 0x1859190E88131408185B1C9958591E481859191959 PUSH1 0x5A SHL PUSH1 0x44 DUP3 ADD MSTORE PUSH1 0x64 ADD PUSH2 0x428 JUMP JUMPDEST PUSH1 0x0 PUSH1 0xB SLOAD NUMBER GT PUSH2 0x114A JUMPI PUSH1 0xB SLOAD PUSH2 0x114C JUMP JUMPDEST NUMBER JUMPDEST SWAP1 POP DUP4 PUSH1 0xA SLOAD PUSH2 0x115C SWAP2 SWAP1 PUSH2 0x1F82 JUMP JUMPDEST PUSH1 0xA SSTORE PUSH1 0x5 DUP1 SLOAD PUSH1 0x1 DUP2 ADD DUP3 SSTORE PUSH1 0x0 SWAP2 SWAP1 SWAP2 MSTORE PUSH32 0x36B6384B5ECA791C62761152D0C79BB0604C104A5FB6F4EB0703F3154BB3DB0 ADD DUP1 SLOAD PUSH1 0x1 PUSH1 0x1 PUSH1 0xA0 SHL SUB NOT AND PUSH1 0x1 PUSH1 0x1 PUSH1 0xA0 SHL SUB DUP6 AND OR SWAP1 SSTORE PUSH2 0x11B5 PUSH1 0x6 DUP5 PUSH2 0x19FF JUMP JUMPDEST POP PUSH1 0x8 DUP1 SLOAD PUSH1 0x1 DUP1 DUP3 ADD SWAP1 SWAP3 SSTORE PUSH32 0xF3F7A9FE364FAAB93B216DA50A3214154F22A0A2B415B23A84C8169E8B636EE3 ADD DUP1 SLOAD PUSH1 0x1 PUSH1 0x1 PUSH1 0xA0 SHL SUB NOT AND PUSH1 0x1 PUSH1 0x1 PUSH1 0xA0 SHL SUB DUP6 DUP2 AND SWAP2 DUP3 OR SWAP1 SWAP3 SSTORE PUSH1 0x40 DUP1 MLOAD PUSH1 0x60 DUP2 ADD DUP3 MSTORE DUP9 DUP2 MSTORE PUSH1 0x20 DUP2 ADD DUP7 DUP2 MSTORE PUSH1 0x0 SWAP3 DUP3 ADD DUP4 DUP2 MSTORE PUSH1 0x4 DUP1 SLOAD DUP1 DUP10 ADD DUP3 SSTORE SWAP5 MSTORE SWAP2 MLOAD PUSH32 0x8A35ACFBC15FF81A39AE7D344FD709F28E8600B4AA8C65C6B64BFE7FE36BD19B PUSH1 0x3 SWAP1 SWAP5 MUL SWAP4 DUP5 ADD SSTORE MLOAD PUSH32 0x8A35ACFBC15FF81A39AE7D344FD709F28E8600B4AA8C65C6B64BFE7FE36BD19C DUP4 ADD SSTORE MLOAD PUSH32 0x8A35ACFBC15FF81A39AE7D344FD709F28E8600B4AA8C65C6B64BFE7FE36BD19D SWAP1 SWAP2 ADD SSTORE PUSH1 0x5 SLOAD SWAP1 SWAP3 SWAP2 DUP7 AND SWAP2 PUSH2 0x12B1 SWAP2 PUSH2 0x1FDB JUMP JUMPDEST PUSH1 0x40 MLOAD DUP8 DUP2 MSTORE PUSH32 0x81EE0F8C5C46E2CB41984886F77A84181724ABB86C32A5F6DE539B07509D45E5 SWAP1 PUSH1 0x20 ADD PUSH1 0x40 MLOAD DUP1 SWAP2 SUB SWAP1 LOG4 POP POP POP POP JUMP JUMPDEST PUSH1 0x8 DUP2 DUP2 SLOAD DUP2 LT PUSH2 0x675 JUMPI PUSH1 0x0 DUP1 REVERT JUMPDEST PUSH1 0x0 PUSH2 0x1305 DUP5 PUSH2 0x8DA JUMP JUMPDEST PUSH1 0x0 DUP6 DUP2 MSTORE PUSH1 0x9 PUSH1 0x20 SWAP1 DUP2 MSTORE PUSH1 0x40 DUP1 DUP4 KECCAK256 CALLER DUP5 MSTORE SWAP1 SWAP2 MSTORE SWAP1 KECCAK256 DUP1 SLOAD SWAP2 SWAP3 POP SWAP1 DUP5 GT ISZERO PUSH2 0x137F JUMPI PUSH1 0x40 MLOAD PUSH3 0x461BCD PUSH1 0xE5 SHL DUP2 MSTORE PUSH1 0x20 PUSH1 0x4 DUP3 ADD MSTORE PUSH1 0x23 PUSH1 0x24 DUP3 ADD MSTORE PUSH32 0x63616E6E6F74207769746864726177206D6F7265207468616E206465706F7369 PUSH1 0x44 DUP3 ADD MSTORE PUSH3 0x1D1959 PUSH1 0xEA SHL PUSH1 0x64 DUP3 ADD MSTORE PUSH1 0x84 ADD PUSH2 0x428 JUMP JUMPDEST PUSH1 0x0 PUSH5 0xE8D4A51000 DUP4 PUSH1 0x40 ADD MLOAD DUP4 PUSH1 0x0 ADD SLOAD PUSH2 0x139B SWAP2 SWAP1 PUSH2 0x1FBC JUMP JUMPDEST PUSH2 0x13A5 SWAP2 SWAP1 PUSH2 0x1F9A JUMP JUMPDEST SWAP1 POP PUSH1 0x0 DUP3 PUSH1 0x1 ADD SLOAD DUP3 PUSH2 0x13B9 SWAP2 SWAP1 PUSH2 0x1FDB JUMP JUMPDEST SWAP1 POP PUSH5 0xE8D4A51000 DUP5 PUSH1 0x40 ADD MLOAD DUP8 PUSH2 0x13D1 SWAP2 SWAP1 PUSH2 0x1FBC JUMP JUMPDEST PUSH2 0x13DB SWAP2 SWAP1 PUSH2 0x1F9A JUMP JUMPDEST PUSH2 0x13E5 SWAP1 DUP4 PUSH2 0x1FDB JUMP JUMPDEST PUSH1 0x1 DUP5 ADD SSTORE DUP3 SLOAD PUSH2 0x13F7 SWAP1 DUP8 SWAP1 PUSH2 0x1FDB JUMP JUMPDEST DUP4 SSTORE PUSH2 0x1403 DUP6 DUP3 PUSH2 0x17A2 JUMP JUMPDEST PUSH1 0x0 PUSH1 0x8 DUP9 DUP2 SLOAD DUP2 LT PUSH2 0x1418 JUMPI PUSH2 0x1418 PUSH2 0x204F JUMP JUMPDEST PUSH1 0x0 SWAP2 DUP3 MSTORE PUSH1 0x20 SWAP1 SWAP2 KECCAK256 ADD SLOAD PUSH1 0x1 PUSH1 0x1 PUSH1 0xA0 SHL SUB AND SWAP1 POP DUP1 ISZERO PUSH2 0x149D JUMPI DUP4 SLOAD PUSH1 0x40 MLOAD PUSH4 0x4EF61455 PUSH1 0xE0 SHL DUP2 MSTORE PUSH1 0x1 PUSH1 0x1 PUSH1 0xA0 SHL SUB DUP4 AND SWAP2 PUSH4 0x4EF61455 SWAP2 PUSH2 0x146A SWAP2 DUP13 SWAP2 CALLER SWAP2 DUP13 SWAP2 DUP10 SWAP2 SWAP1 PUSH1 0x4 ADD PUSH2 0x1F53 JUMP JUMPDEST PUSH1 0x0 PUSH1 0x40 MLOAD DUP1 DUP4 SUB DUP2 PUSH1 0x0 DUP8 DUP1 EXTCODESIZE ISZERO DUP1 ISZERO PUSH2 0x1484 JUMPI PUSH1 0x0 DUP1 REVERT JUMPDEST POP GAS CALL ISZERO DUP1 ISZERO PUSH2 0x1498 JUMPI RETURNDATASIZE PUSH1 0x0 DUP1 RETURNDATACOPY RETURNDATASIZE PUSH1 0x0 REVERT JUMPDEST POP POP POP POP JUMPDEST PUSH2 0x14B5 DUP7 DUP9 PUSH1 0x5 DUP12 DUP2 SLOAD DUP2 LT PUSH2 0x7DF JUMPI PUSH2 0x7DF PUSH2 0x204F JUMP JUMPDEST DUP6 PUSH1 0x1 PUSH1 0x1 PUSH1 0xA0 SHL SUB AND DUP9 CALLER PUSH1 0x1 PUSH1 0x1 PUSH1 0xA0 SHL SUB AND PUSH32 0x8166BF25F8A2B7ED3C85049207DA4358D16EDBED977D23FA2EE6F0DDE3EC2132 DUP11 PUSH1 0x40 MLOAD PUSH2 0x14FB SWAP2 DUP2 MSTORE PUSH1 0x20 ADD SWAP1 JUMP JUMPDEST PUSH1 0x40 MLOAD DUP1 SWAP2 SUB SWAP1 LOG4 PUSH1 0x40 MLOAD DUP3 DUP2 MSTORE DUP9 SWAP1 CALLER SWAP1 PUSH32 0x71BAB65CED2E5750775A0613BE067DF48EF06CF92A496EBF7663AE0660924954 SWAP1 PUSH1 0x20 ADD PUSH1 0x40 MLOAD DUP1 SWAP2 SUB SWAP1 LOG3 POP POP POP POP POP POP POP POP JUMP JUMPDEST PUSH1 0x0 SLOAD PUSH1 0x1 PUSH1 0x1 PUSH1 0xA0 SHL SUB AND CALLER EQ PUSH2 0x156E JUMPI PUSH1 0x40 MLOAD PUSH3 0x461BCD PUSH1 0xE5 SHL DUP2 MSTORE PUSH1 0x4 ADD PUSH2 0x428 SWAP1 PUSH2 0x1F1E JUMP JUMPDEST PUSH1 0x1 PUSH1 0x1 PUSH1 0xA0 SHL SUB DUP2 AND PUSH2 0x15D3 JUMPI PUSH1 0x40 MLOAD PUSH3 0x461BCD PUSH1 0xE5 SHL DUP2 MSTORE PUSH1 0x20 PUSH1 0x4 DUP3 ADD MSTORE PUSH1 0x26 PUSH1 0x24 DUP3 ADD MSTORE PUSH32 0x4F776E61626C653A206E6577206F776E657220697320746865207A65726F2061 PUSH1 0x44 DUP3 ADD MSTORE PUSH6 0x646472657373 PUSH1 0xD0 SHL PUSH1 0x64 DUP3 ADD MSTORE PUSH1 0x84 ADD PUSH2 0x428 JUMP JUMPDEST PUSH2 0x15DC DUP2 PUSH2 0x1950 JUMP JUMPDEST POP JUMP JUMPDEST PUSH1 0x0 DUP1 PUSH1 0x4 DUP5 DUP2 SLOAD DUP2 LT PUSH2 0x15F5 JUMPI PUSH2 0x15F5 PUSH2 0x204F JUMP JUMPDEST PUSH1 0x0 SWAP2 DUP3 MSTORE PUSH1 0x20 DUP1 DUP4 KECCAK256 DUP8 DUP5 MSTORE PUSH1 0x9 DUP3 MSTORE PUSH1 0x40 DUP1 DUP6 KECCAK256 PUSH1 0x1 PUSH1 0x1 PUSH1 0xA0 SHL SUB DUP10 AND DUP7 MSTORE SWAP1 SWAP3 MSTORE SWAP1 DUP4 KECCAK256 PUSH1 0x3 SWAP3 SWAP1 SWAP3 MUL ADD PUSH1 0x2 DUP2 ADD SLOAD PUSH1 0x5 DUP1 SLOAD SWAP3 SWAP6 POP SWAP3 SWAP4 SWAP1 SWAP3 SWAP1 SWAP2 DUP9 SWAP1 DUP2 LT PUSH2 0x1646 JUMPI PUSH2 0x1646 PUSH2 0x204F JUMP JUMPDEST PUSH1 0x0 SWAP2 DUP3 MSTORE PUSH1 0x20 SWAP1 SWAP2 KECCAK256 ADD SLOAD PUSH1 0x40 MLOAD PUSH4 0x70A08231 PUSH1 0xE0 SHL DUP2 MSTORE ADDRESS PUSH1 0x4 DUP3 ADD MSTORE PUSH1 0x1 PUSH1 0x1 PUSH1 0xA0 SHL SUB SWAP1 SWAP2 AND SWAP1 PUSH4 0x70A08231 SWAP1 PUSH1 0x24 ADD PUSH1 0x20 PUSH1 0x40 MLOAD DUP1 DUP4 SUB DUP2 DUP7 DUP1 EXTCODESIZE ISZERO DUP1 ISZERO PUSH2 0x1692 JUMPI PUSH1 0x0 DUP1 REVERT JUMPDEST POP GAS STATICCALL ISZERO DUP1 ISZERO PUSH2 0x16A6 JUMPI RETURNDATASIZE PUSH1 0x0 DUP1 RETURNDATACOPY RETURNDATASIZE PUSH1 0x0 REVERT JUMPDEST POP POP POP POP PUSH1 0x40 MLOAD RETURNDATASIZE PUSH1 0x1F NOT PUSH1 0x1F DUP3 ADD AND DUP3 ADD DUP1 PUSH1 0x40 MSTORE POP DUP2 ADD SWAP1 PUSH2 0x16CA SWAP2 SWAP1 PUSH2 0x1DD7 JUMP JUMPDEST SWAP1 POP DUP4 PUSH1 0x1 ADD SLOAD NUMBER GT DUP1 ISZERO PUSH2 0x16DE JUMPI POP DUP1 ISZERO ISZERO JUMPDEST ISZERO PUSH2 0x176A JUMPI PUSH1 0x0 DUP5 PUSH1 0x1 ADD SLOAD NUMBER PUSH2 0x16F5 SWAP2 SWAP1 PUSH2 0x1FDB JUMP JUMPDEST PUSH1 0xA SLOAD DUP7 SLOAD PUSH1 0x3 SLOAD SWAP3 SWAP4 POP PUSH1 0x0 SWAP3 PUSH2 0x170D SWAP1 DUP6 PUSH2 0x1FBC JUMP JUMPDEST PUSH2 0x1717 SWAP2 SWAP1 PUSH2 0x1FBC JUMP JUMPDEST PUSH2 0x1721 SWAP2 SWAP1 PUSH2 0x1F9A JUMP JUMPDEST SWAP1 POP PUSH1 0x0 PUSH2 0x3E8 PUSH2 0x1734 PUSH2 0x368 DUP5 PUSH2 0x1FBC JUMP JUMPDEST PUSH2 0x173E SWAP2 SWAP1 PUSH2 0x1F9A JUMP JUMPDEST SWAP1 POP DUP4 PUSH2 0x1750 PUSH5 0xE8D4A51000 DUP4 PUSH2 0x1FBC JUMP JUMPDEST PUSH2 0x175A SWAP2 SWAP1 PUSH2 0x1F9A JUMP JUMPDEST PUSH2 0x1764 SWAP1 DUP7 PUSH2 0x1F82 JUMP JUMPDEST SWAP5 POP POP POP POP JUMPDEST PUSH1 0x1 DUP4 ADD SLOAD DUP4 SLOAD PUSH5 0xE8D4A51000 SWAP1 PUSH2 0x1783 SWAP1 DUP6 SWAP1 PUSH2 0x1FBC JUMP JUMPDEST PUSH2 0x178D SWAP2 SWAP1 PUSH2 0x1F9A JUMP JUMPDEST PUSH2 0x1797 SWAP2 SWAP1 PUSH2 0x1FDB JUMP JUMPDEST SWAP8 SWAP7 POP POP POP POP POP POP POP JUMP JUMPDEST PUSH1 0x1 SLOAD PUSH1 0x40 MLOAD PUSH4 0x70A08231 PUSH1 0xE0 SHL DUP2 MSTORE ADDRESS PUSH1 0x4 DUP3 ADD MSTORE PUSH1 0x0 SWAP2 PUSH1 0x1 PUSH1 0x1 PUSH1 0xA0 SHL SUB AND SWAP1 PUSH4 0x70A08231 SWAP1 PUSH1 0x24 ADD PUSH1 0x20 PUSH1 0x40 MLOAD DUP1 DUP4 SUB DUP2 DUP7 DUP1 EXTCODESIZE ISZERO DUP1 ISZERO PUSH2 0x17E6 JUMPI PUSH1 0x0 DUP1 REVERT JUMPDEST POP GAS STATICCALL ISZERO DUP1 ISZERO PUSH2 0x17FA JUMPI RETURNDATASIZE PUSH1 0x0 DUP1 RETURNDATACOPY RETURNDATASIZE PUSH1 0x0 REVERT JUMPDEST POP POP POP POP PUSH1 0x40 MLOAD RETURNDATASIZE PUSH1 0x1F NOT PUSH1 0x1F DUP3 ADD AND DUP3 ADD DUP1 PUSH1 0x40 MSTORE POP DUP2 ADD SWAP1 PUSH2 0x181E SWAP2 SWAP1 PUSH2 0x1DD7 JUMP JUMPDEST SWAP1 POP DUP1 DUP3 GT ISZERO PUSH2 0x18AF JUMPI PUSH1 0x1 SLOAD PUSH1 0x40 MLOAD PUSH4 0xA9059CBB PUSH1 0xE0 SHL DUP2 MSTORE PUSH1 0x1 PUSH1 0x1 PUSH1 0xA0 SHL SUB DUP6 DUP2 AND PUSH1 0x4 DUP4 ADD MSTORE PUSH1 0x24 DUP3 ADD DUP5 SWAP1 MSTORE SWAP1 SWAP2 AND SWAP1 PUSH4 0xA9059CBB SWAP1 PUSH1 0x44 ADD JUMPDEST PUSH1 0x20 PUSH1 0x40 MLOAD DUP1 DUP4 SUB DUP2 PUSH1 0x0 DUP8 DUP1 EXTCODESIZE ISZERO DUP1 ISZERO PUSH2 0x1877 JUMPI PUSH1 0x0 DUP1 REVERT JUMPDEST POP GAS CALL ISZERO DUP1 ISZERO PUSH2 0x188B JUMPI RETURNDATASIZE PUSH1 0x0 DUP1 RETURNDATACOPY RETURNDATASIZE PUSH1 0x0 REVERT JUMPDEST POP POP POP POP PUSH1 0x40 MLOAD RETURNDATASIZE PUSH1 0x1F NOT PUSH1 0x1F DUP3 ADD AND DUP3 ADD DUP1 PUSH1 0x40 MSTORE POP DUP2 ADD SWAP1 PUSH2 0x8D4 SWAP2 SWAP1 PUSH2 0x1DA1 JUMP JUMPDEST PUSH1 0x1 SLOAD PUSH1 0x40 MLOAD PUSH4 0xA9059CBB PUSH1 0xE0 SHL DUP2 MSTORE PUSH1 0x1 PUSH1 0x1 PUSH1 0xA0 SHL SUB DUP6 DUP2 AND PUSH1 0x4 DUP4 ADD MSTORE PUSH1 0x24 DUP3 ADD DUP6 SWAP1 MSTORE SWAP1 SWAP2 AND SWAP1 PUSH4 0xA9059CBB SWAP1 PUSH1 0x44 ADD PUSH2 0x185D JUMP JUMPDEST POP POP POP JUMP JUMPDEST PUSH1 0x40 MLOAD PUSH1 0x1 PUSH1 0x1 PUSH1 0xA0 SHL SUB DUP4 AND PUSH1 0x24 DUP3 ADD MSTORE PUSH1 0x44 DUP2 ADD DUP3 SWAP1 MSTORE PUSH2 0x18E8 SWAP1 DUP5 SWAP1 PUSH4 0xA9059CBB PUSH1 0xE0 SHL SWAP1 PUSH1 0x64 ADD JUMPDEST PUSH1 0x40 DUP1 MLOAD PUSH1 0x1F NOT DUP2 DUP5 SUB ADD DUP2 MSTORE SWAP2 SWAP1 MSTORE PUSH1 0x20 DUP2 ADD DUP1 MLOAD PUSH1 0x1 PUSH1 0x1 PUSH1 0xE0 SHL SUB AND PUSH1 0x1 PUSH1 0x1 PUSH1 0xE0 SHL SUB NOT SWAP1 SWAP4 AND SWAP3 SWAP1 SWAP3 OR SWAP1 SWAP2 MSTORE PUSH2 0x1A14 JUMP JUMPDEST PUSH1 0x0 DUP1 SLOAD PUSH1 0x1 PUSH1 0x1 PUSH1 0xA0 SHL SUB DUP4 DUP2 AND PUSH1 0x1 PUSH1 0x1 PUSH1 0xA0 SHL SUB NOT DUP4 AND DUP2 OR DUP5 SSTORE PUSH1 0x40 MLOAD SWAP2 SWAP1 SWAP3 AND SWAP3 DUP4 SWAP2 PUSH32 0x8BE0079C531659141344CD1FD0A4F28419497F9722A3DAAFE3B4186F6B6457E0 SWAP2 SWAP1 LOG3 POP POP JUMP JUMPDEST PUSH1 0x40 MLOAD PUSH1 0x1 PUSH1 0x1 PUSH1 0xA0 SHL SUB DUP1 DUP6 AND PUSH1 0x24 DUP4 ADD MSTORE DUP4 AND PUSH1 0x44 DUP3 ADD MSTORE PUSH1 0x64 DUP2 ADD DUP3 SWAP1 MSTORE PUSH2 0x8D4 SWAP1 DUP6 SWAP1 PUSH4 0x23B872DD PUSH1 0xE0 SHL SWAP1 PUSH1 0x84 ADD PUSH2 0x1919 JUMP JUMPDEST PUSH1 0x1 PUSH1 0x1 PUSH1 0xA0 SHL SUB DUP2 AND PUSH1 0x0 SWAP1 DUP2 MSTORE PUSH1 0x1 DUP4 ADD PUSH1 0x20 MSTORE PUSH1 0x40 DUP2 KECCAK256 SLOAD ISZERO ISZERO JUMPDEST SWAP1 POP JUMPDEST SWAP3 SWAP2 POP POP JUMP JUMPDEST PUSH1 0x0 PUSH2 0x19F6 DUP4 PUSH1 0x1 PUSH1 0x1 PUSH1 0xA0 SHL SUB DUP5 AND PUSH2 0x1AE6 JUMP JUMPDEST PUSH1 0x0 PUSH2 0x1A69 DUP3 PUSH1 0x40 MLOAD DUP1 PUSH1 0x40 ADD PUSH1 0x40 MSTORE DUP1 PUSH1 0x20 DUP2 MSTORE PUSH1 0x20 ADD PUSH32 0x5361666545524332303A206C6F772D6C6576656C2063616C6C206661696C6564 DUP2 MSTORE POP DUP6 PUSH1 0x1 PUSH1 0x1 PUSH1 0xA0 SHL SUB AND PUSH2 0x1B35 SWAP1 SWAP3 SWAP2 SWAP1 PUSH4 0xFFFFFFFF AND JUMP JUMPDEST DUP1 MLOAD SWAP1 SWAP2 POP ISZERO PUSH2 0x18E8 JUMPI DUP1 DUP1 PUSH1 0x20 ADD SWAP1 MLOAD DUP2 ADD SWAP1 PUSH2 0x1A87 SWAP2 SWAP1 PUSH2 0x1DA1 JUMP JUMPDEST PUSH2 0x18E8 JUMPI PUSH1 0x40 MLOAD PUSH3 0x461BCD PUSH1 0xE5 SHL DUP2 MSTORE PUSH1 0x20 PUSH1 0x4 DUP3 ADD MSTORE PUSH1 0x2A PUSH1 0x24 DUP3 ADD MSTORE PUSH32 0x5361666545524332303A204552433230206F7065726174696F6E20646964206E PUSH1 0x44 DUP3 ADD MSTORE PUSH10 0x1BDD081CDD58D8D95959 PUSH1 0xB2 SHL PUSH1 0x64 DUP3 ADD MSTORE PUSH1 0x84 ADD PUSH2 0x428 JUMP JUMPDEST PUSH1 0x0 DUP2 DUP2 MSTORE PUSH1 0x1 DUP4 ADD PUSH1 0x20 MSTORE PUSH1 0x40 DUP2 KECCAK256 SLOAD PUSH2 0x1B2D JUMPI POP DUP2 SLOAD PUSH1 0x1 DUP2 DUP2 ADD DUP5 SSTORE PUSH1 0x0 DUP5 DUP2 MSTORE PUSH1 0x20 DUP1 DUP3 KECCAK256 SWAP1 SWAP4 ADD DUP5 SWAP1 SSTORE DUP5 SLOAD DUP5 DUP3 MSTORE DUP3 DUP7 ADD SWAP1 SWAP4 MSTORE PUSH1 0x40 SWAP1 KECCAK256 SWAP2 SWAP1 SWAP2 SSTORE PUSH2 0x19F9 JUMP JUMPDEST POP PUSH1 0x0 PUSH2 0x19F9 JUMP JUMPDEST PUSH1 0x60 PUSH2 0x1B44 DUP5 DUP5 PUSH1 0x0 DUP6 PUSH2 0x1B4E JUMP JUMPDEST SWAP1 POP JUMPDEST SWAP4 SWAP3 POP POP POP JUMP JUMPDEST PUSH1 0x60 DUP3 SELFBALANCE LT ISZERO PUSH2 0x1BAF JUMPI PUSH1 0x40 MLOAD PUSH3 0x461BCD PUSH1 0xE5 SHL DUP2 MSTORE PUSH1 0x20 PUSH1 0x4 DUP3 ADD MSTORE PUSH1 0x26 PUSH1 0x24 DUP3 ADD MSTORE PUSH32 0x416464726573733A20696E73756666696369656E742062616C616E636520666F PUSH1 0x44 DUP3 ADD MSTORE PUSH6 0x1C8818D85B1B PUSH1 0xD2 SHL PUSH1 0x64 DUP3 ADD MSTORE PUSH1 0x84 ADD PUSH2 0x428 JUMP JUMPDEST DUP5 EXTCODESIZE PUSH2 0x1BFD JUMPI PUSH1 0x40 MLOAD PUSH3 0x461BCD PUSH1 0xE5 SHL DUP2 MSTORE PUSH1 0x20 PUSH1 0x4 DUP3 ADD MSTORE PUSH1 0x1D PUSH1 0x24 DUP3 ADD MSTORE PUSH32 0x416464726573733A2063616C6C20746F206E6F6E2D636F6E7472616374000000 PUSH1 0x44 DUP3 ADD MSTORE PUSH1 0x64 ADD PUSH2 0x428 JUMP JUMPDEST PUSH1 0x0 DUP1 DUP7 PUSH1 0x1 PUSH1 0x1 PUSH1 0xA0 SHL SUB AND DUP6 DUP8 PUSH1 0x40 MLOAD PUSH2 0x1C19 SWAP2 SWAP1 PUSH2 0x1ECF JUMP JUMPDEST PUSH1 0x0 PUSH1 0x40 MLOAD DUP1 DUP4 SUB DUP2 DUP6 DUP8 GAS CALL SWAP3 POP POP POP RETURNDATASIZE DUP1 PUSH1 0x0 DUP2 EQ PUSH2 0x1C56 JUMPI PUSH1 0x40 MLOAD SWAP2 POP PUSH1 0x1F NOT PUSH1 0x3F RETURNDATASIZE ADD AND DUP3 ADD PUSH1 0x40 MSTORE RETURNDATASIZE DUP3 MSTORE RETURNDATASIZE PUSH1 0x0 PUSH1 0x20 DUP5 ADD RETURNDATACOPY PUSH2 0x1C5B JUMP JUMPDEST PUSH1 0x60 SWAP2 POP JUMPDEST POP SWAP2 POP SWAP2 POP PUSH2 0x1797 DUP3 DUP3 DUP7 PUSH1 0x60 DUP4 ISZERO PUSH2 0x1C75 JUMPI POP DUP2 PUSH2 0x1B47 JUMP JUMPDEST DUP3 MLOAD ISZERO PUSH2 0x1C85 JUMPI DUP3 MLOAD DUP1 DUP5 PUSH1 0x20 ADD REVERT JUMPDEST DUP2 PUSH1 0x40 MLOAD PUSH3 0x461BCD PUSH1 0xE5 SHL DUP2 MSTORE PUSH1 0x4 ADD PUSH2 0x428 SWAP2 SWAP1 PUSH2 0x1EEB JUMP JUMPDEST PUSH1 0x0 DUP1 DUP4 PUSH1 0x1F DUP5 ADD SLT PUSH2 0x1CB1 JUMPI PUSH1 0x0 DUP1 REVERT JUMPDEST POP DUP2 CALLDATALOAD PUSH8 0xFFFFFFFFFFFFFFFF DUP2 GT ISZERO PUSH2 0x1CC9 JUMPI PUSH1 0x0 DUP1 REVERT JUMPDEST PUSH1 0x20 DUP4 ADD SWAP2 POP DUP4 PUSH1 0x20 DUP3 PUSH1 0x5 SHL DUP6 ADD ADD GT ISZERO PUSH2 0x1CE4 JUMPI PUSH1 0x0 DUP1 REVERT JUMPDEST SWAP3 POP SWAP3 SWAP1 POP JUMP JUMPDEST PUSH1 0x0 PUSH1 0x20 DUP3 DUP5 SUB SLT ISZERO PUSH2 0x1CFD JUMPI PUSH1 0x0 DUP1 REVERT JUMPDEST DUP2 CALLDATALOAD PUSH2 0x1B47 DUP2 PUSH2 0x2065 JUMP JUMPDEST PUSH1 0x0 DUP1 PUSH1 0x20 DUP4 DUP6 SUB SLT ISZERO PUSH2 0x1D1B JUMPI PUSH1 0x0 DUP1 REVERT JUMPDEST DUP3 CALLDATALOAD PUSH8 0xFFFFFFFFFFFFFFFF DUP2 GT ISZERO PUSH2 0x1D32 JUMPI PUSH1 0x0 DUP1 REVERT JUMPDEST PUSH2 0x1D3E DUP6 DUP3 DUP7 ADD PUSH2 0x1C9F JUMP JUMPDEST SWAP1 SWAP7 SWAP1 SWAP6 POP SWAP4 POP POP POP POP JUMP JUMPDEST PUSH1 0x0 DUP1 PUSH1 0x0 PUSH1 0x40 DUP5 DUP7 SUB SLT ISZERO PUSH2 0x1D5F JUMPI PUSH1 0x0 DUP1 REVERT JUMPDEST DUP4 CALLDATALOAD PUSH8 0xFFFFFFFFFFFFFFFF DUP2 GT ISZERO PUSH2 0x1D76 JUMPI PUSH1 0x0 DUP1 REVERT JUMPDEST PUSH2 0x1D82 DUP7 DUP3 DUP8 ADD PUSH2 0x1C9F JUMP JUMPDEST SWAP1 SWAP5 POP SWAP3 POP POP PUSH1 0x20 DUP5 ADD CALLDATALOAD PUSH2 0x1D96 DUP2 PUSH2 0x2065 JUMP JUMPDEST DUP1 SWAP2 POP POP SWAP3 POP SWAP3 POP SWAP3 JUMP JUMPDEST PUSH1 0x0 PUSH1 0x20 DUP3 DUP5 SUB SLT ISZERO PUSH2 0x1DB3 JUMPI PUSH1 0x0 DUP1 REVERT JUMPDEST DUP2 MLOAD PUSH2 0x1B47 DUP2 PUSH2 0x207A JUMP JUMPDEST PUSH1 0x0 PUSH1 0x20 DUP3 DUP5 SUB SLT ISZERO PUSH2 0x1DD0 JUMPI PUSH1 0x0 DUP1 REVERT JUMPDEST POP CALLDATALOAD SWAP2 SWAP1 POP JUMP JUMPDEST PUSH1 0x0 PUSH1 0x20 DUP3 DUP5 SUB SLT ISZERO PUSH2 0x1DE9 JUMPI PUSH1 0x0 DUP1 REVERT JUMPDEST POP MLOAD SWAP2 SWAP1 POP JUMP JUMPDEST PUSH1 0x0 DUP1 PUSH1 0x40 DUP4 DUP6 SUB SLT ISZERO PUSH2 0x1E03 JUMPI PUSH1 0x0 DUP1 REVERT JUMPDEST DUP3 CALLDATALOAD SWAP2 POP PUSH1 0x20 DUP4 ADD CALLDATALOAD PUSH2 0x1E15 DUP2 PUSH2 0x2065 JUMP JUMPDEST DUP1 SWAP2 POP POP SWAP3 POP SWAP3 SWAP1 POP JUMP JUMPDEST PUSH1 0x0 DUP1 PUSH1 0x0 PUSH1 0x60 DUP5 DUP7 SUB SLT ISZERO PUSH2 0x1E35 JUMPI PUSH1 0x0 DUP1 REVERT JUMPDEST DUP4 CALLDATALOAD SWAP3 POP PUSH1 0x20 DUP5 ADD CALLDATALOAD PUSH2 0x1E47 DUP2 PUSH2 0x2065 JUMP JUMPDEST SWAP2 POP PUSH1 0x40 DUP5 ADD CALLDATALOAD PUSH2 0x1D96 DUP2 PUSH2 0x2065 JUMP JUMPDEST PUSH1 0x0 DUP1 PUSH1 0x0 PUSH1 0x60 DUP5 DUP7 SUB SLT ISZERO PUSH2 0x1E6C JUMPI PUSH1 0x0 DUP1 REVERT JUMPDEST DUP4 CALLDATALOAD SWAP3 POP PUSH1 0x20 DUP5 ADD CALLDATALOAD SWAP2 POP PUSH1 0x40 DUP5 ADD CALLDATALOAD PUSH2 0x1D96 DUP2 PUSH2 0x2065 JUMP JUMPDEST PUSH1 0x0 DUP1 PUSH1 0x0 DUP1 PUSH1 0x80 DUP6 DUP8 SUB SLT ISZERO PUSH2 0x1E9B JUMPI PUSH1 0x0 DUP1 REVERT JUMPDEST DUP5 CALLDATALOAD SWAP4 POP PUSH1 0x20 DUP6 ADD CALLDATALOAD SWAP3 POP PUSH1 0x40 DUP6 ADD CALLDATALOAD PUSH2 0x1EB4 DUP2 PUSH2 0x2065 JUMP JUMPDEST SWAP2 POP PUSH1 0x60 DUP6 ADD CALLDATALOAD PUSH2 0x1EC4 DUP2 PUSH2 0x207A JUMP JUMPDEST SWAP4 SWAP7 SWAP3 SWAP6 POP SWAP1 SWAP4 POP POP JUMP JUMPDEST PUSH1 0x0 DUP3 MLOAD PUSH2 0x1EE1 DUP2 DUP5 PUSH1 0x20 DUP8 ADD PUSH2 0x1FF2 JUMP JUMPDEST SWAP2 SWAP1 SWAP2 ADD SWAP3 SWAP2 POP POP JUMP JUMPDEST PUSH1 0x20 DUP2 MSTORE PUSH1 0x0 DUP3 MLOAD DUP1 PUSH1 0x20 DUP5 ADD MSTORE PUSH2 0x1F0A DUP2 PUSH1 0x40 DUP6 ADD PUSH1 0x20 DUP8 ADD PUSH2 0x1FF2 JUMP JUMPDEST PUSH1 0x1F ADD PUSH1 0x1F NOT AND SWAP2 SWAP1 SWAP2 ADD PUSH1 0x40 ADD SWAP3 SWAP2 POP POP JUMP JUMPDEST PUSH1 0x20 DUP1 DUP3 MSTORE DUP2 DUP2 ADD MSTORE PUSH32 0x4F776E61626C653A2063616C6C6572206973206E6F7420746865206F776E6572 PUSH1 0x40 DUP3 ADD MSTORE PUSH1 0x60 ADD SWAP1 JUMP JUMPDEST SWAP5 DUP6 MSTORE PUSH1 0x1 PUSH1 0x1 PUSH1 0xA0 SHL SUB SWAP4 DUP5 AND PUSH1 0x20 DUP7 ADD MSTORE SWAP2 SWAP1 SWAP3 AND PUSH1 0x40 DUP5 ADD MSTORE PUSH1 0x60 DUP4 ADD SWAP2 SWAP1 SWAP2 MSTORE PUSH1 0x80 DUP3 ADD MSTORE PUSH1 0xA0 ADD SWAP1 JUMP JUMPDEST PUSH1 0x0 DUP3 NOT DUP3 GT ISZERO PUSH2 0x1F95 JUMPI PUSH2 0x1F95 PUSH2 0x2039 JUMP JUMPDEST POP ADD SWAP1 JUMP JUMPDEST PUSH1 0x0 DUP3 PUSH2 0x1FB7 JUMPI PUSH4 0x4E487B71 PUSH1 0xE0 SHL PUSH1 0x0 MSTORE PUSH1 0x12 PUSH1 0x4 MSTORE PUSH1 0x24 PUSH1 0x0 REVERT JUMPDEST POP DIV SWAP1 JUMP JUMPDEST PUSH1 0x0 DUP2 PUSH1 0x0 NOT DIV DUP4 GT DUP3 ISZERO ISZERO AND ISZERO PUSH2 0x1FD6 JUMPI PUSH2 0x1FD6 PUSH2 0x2039 JUMP JUMPDEST POP MUL SWAP1 JUMP JUMPDEST PUSH1 0x0 DUP3 DUP3 LT ISZERO PUSH2 0x1FED JUMPI PUSH2 0x1FED PUSH2 0x2039 JUMP JUMPDEST POP SUB SWAP1 JUMP JUMPDEST PUSH1 0x0 JUMPDEST DUP4 DUP2 LT ISZERO PUSH2 0x200D JUMPI DUP2 DUP2 ADD MLOAD DUP4 DUP3 ADD MSTORE PUSH1 0x20 ADD PUSH2 0x1FF5 JUMP JUMPDEST DUP4 DUP2 GT ISZERO PUSH2 0x8D4 JUMPI POP POP PUSH1 0x0 SWAP2 ADD MSTORE JUMP JUMPDEST PUSH1 0x0 PUSH1 0x0 NOT DUP3 EQ ISZERO PUSH2 0x2032 JUMPI PUSH2 0x2032 PUSH2 0x2039 JUMP JUMPDEST POP PUSH1 0x1 ADD SWAP1 JUMP JUMPDEST PUSH4 0x4E487B71 PUSH1 0xE0 SHL PUSH1 0x0 MSTORE PUSH1 0x11 PUSH1 0x4 MSTORE PUSH1 0x24 PUSH1 0x0 REVERT JUMPDEST PUSH4 0x4E487B71 PUSH1 0xE0 SHL PUSH1 0x0 MSTORE PUSH1 0x32 PUSH1 0x4 MSTORE PUSH1 0x24 PUSH1 0x0 REVERT JUMPDEST PUSH1 0x1 PUSH1 0x1 PUSH1 0xA0 SHL SUB DUP2 AND DUP2 EQ PUSH2 0x15DC JUMPI PUSH1 0x0 DUP1 REVERT JUMPDEST DUP1 ISZERO ISZERO DUP2 EQ PUSH2 0x15DC JUMPI PUSH1 0x0 DUP1 REVERT INVALID LOG2 PUSH5 0x6970667358 0x22 SLT KECCAK256 0xED PUSH13 0x756C715674BB39C26B5124A0D8 0xDD PUSH17 0x4BE5660C0740B29F77F3C29AF114B96473 PUSH16 0x6C634300080700330000000000000000 "
		},
		"gasEstimates": {
			"creation": {
				"codeDepositCost": "1676400",
				"executionCost": "infinite",
				"totalCost": "infinite"
			},
			"external": {
				"POOL_PERCENTAGE()": "251",
				"TREASURY_PERCENTAGE()": "274",
				"add(uint256,address,address)": "infinite",
				"deposit(uint256,uint256,address)": "infinite",
				"emergencyWithdraw(uint256,address)": "infinite",
				"harvest(uint256,address)": "infinite",
				"harvestAll(uint256[],address)": "infinite",
				"lpTokens(uint256)": "4660",
				"massUpdatePools(uint256[])": "infinite",
				"owner()": "2398",
				"pendingWVLT(uint256,address)": "infinite",
				"poolInfo(uint256)": "8926",
				"poolLength()": "2294",
				"renounceOwnership()": "28204",
				"rewarder(uint256)": "4681",
				"set(uint256,uint256,address,bool)": "infinite",
				"startBlock()": "2373",
				"totalAllocPoint()": "2396",
				"transferOwnership(address)": "infinite",
				"treasury(address)": "28293",
				"treasuryAddress()": "2426",
				"updateEmissionRate(uint256)": "25981",
				"updatePool(uint256)": "infinite",
				"userInfo(uint256,address)": "4866",
				"withdrawAndHarvest(uint256,uint256,address)": "infinite",
				"wvlt()": "2403",
				"wvltPerBlock()": "2329"
			},
			"internal": {
				"safeWVLTTransfer(address,uint256)": "infinite"
			}
		},
		"methodIdentifiers": {
			"POOL_PERCENTAGE()": "39e5f4ff",
			"TREASURY_PERCENTAGE()": "173b31d8",
			"add(uint256,address,address)": "ab7de098",
			"deposit(uint256,uint256,address)": "8dbdbe6d",
			"emergencyWithdraw(uint256,address)": "2f940c70",
			"harvest(uint256,address)": "18fccc76",
			"harvestAll(uint256[],address)": "4bf37df6",
			"lpTokens(uint256)": "1bb5e2dc",
			"massUpdatePools(uint256[])": "57a5b58c",
			"owner()": "8da5cb5b",
			"pendingWVLT(uint256,address)": "f4de2cbc",
			"poolInfo(uint256)": "1526fe27",
			"poolLength()": "081e3eda",
			"renounceOwnership()": "715018a6",
			"rewarder(uint256)": "c346253d",
			"set(uint256,uint256,address,bool)": "88bba42f",
			"startBlock()": "48cd4cb1",
			"totalAllocPoint()": "17caf6f1",
			"transferOwnership(address)": "f2fde38b",
			"treasury(address)": "2d809cb6",
			"treasuryAddress()": "c5f956af",
			"updateEmissionRate(uint256)": "0ba84cd2",
			"updatePool(uint256)": "51eb05a6",
			"userInfo(uint256,address)": "93f1a40b",
			"withdrawAndHarvest(uint256,uint256,address)": "d1abb907",
			"wvlt()": "e9dab85d",
			"wvltPerBlock()": "329494fe"
		}
	},
	"abi": [
		{
			"inputs": [
				{
					"internalType": "contract WVLTToken",
					"name": "_wvlt",
					"type": "address"
				},
				{
					"internalType": "address",
					"name": "_treasuryAddress",
					"type": "address"
				},
				{
					"internalType": "uint256",
					"name": "_wvltPerBlock",
					"type": "uint256"
				},
				{
					"internalType": "uint256",
					"name": "_startBlock",
					"type": "uint256"
				}
			],
			"stateMutability": "nonpayable",
			"type": "constructor"
		},
		{
			"anonymous": false,
			"inputs": [
				{
					"indexed": true,
					"internalType": "address",
					"name": "user",
					"type": "address"
				},
				{
					"indexed": true,
					"internalType": "uint256",
					"name": "pid",
					"type": "uint256"
				},
				{
					"indexed": false,
					"internalType": "uint256",
					"name": "amount",
					"type": "uint256"
				},
				{
					"indexed": true,
					"internalType": "address",
					"name": "to",
					"type": "address"
				}
			],
			"name": "Deposit",
			"type": "event"
		},
		{
			"anonymous": false,
			"inputs": [
				{
					"indexed": true,
					"internalType": "address",
					"name": "user",
					"type": "address"
				},
				{
					"indexed": true,
					"internalType": "uint256",
					"name": "pid",
					"type": "uint256"
				},
				{
					"indexed": false,
					"internalType": "uint256",
					"name": "amount",
					"type": "uint256"
				},
				{
					"indexed": true,
					"internalType": "address",
					"name": "to",
					"type": "address"
				}
			],
			"name": "EmergencyWithdraw",
			"type": "event"
		},
		{
			"anonymous": false,
			"inputs": [
				{
					"indexed": true,
					"internalType": "address",
					"name": "user",
					"type": "address"
				},
				{
					"indexed": true,
					"internalType": "uint256",
					"name": "pid",
					"type": "uint256"
				},
				{
					"indexed": false,
					"internalType": "uint256",
					"name": "amount",
					"type": "uint256"
				}
			],
			"name": "Harvest",
			"type": "event"
		},
		{
			"anonymous": false,
			"inputs": [
				{
					"indexed": true,
					"internalType": "uint256",
					"name": "pid",
					"type": "uint256"
				},
				{
					"indexed": false,
					"internalType": "uint256",
					"name": "allocPoint",
					"type": "uint256"
				},
				{
					"indexed": true,
					"internalType": "contract IERC20",
					"name": "lpToken",
					"type": "address"
				},
				{
					"indexed": true,
					"internalType": "contract IRewarder",
					"name": "rewarder",
					"type": "address"
				}
			],
			"name": "LogPoolAddition",
			"type": "event"
		},
		{
			"anonymous": false,
			"inputs": [
				{
					"indexed": true,
					"internalType": "uint256",
					"name": "pid",
					"type": "uint256"
				},
				{
					"indexed": false,
					"internalType": "uint256",
					"name": "allocPoint",
					"type": "uint256"
				},
				{
					"indexed": true,
					"internalType": "contract IRewarder",
					"name": "rewarder",
					"type": "address"
				},
				{
					"indexed": false,
					"internalType": "bool",
					"name": "overwrite",
					"type": "bool"
				}
			],
			"name": "LogSetPool",
			"type": "event"
		},
		{
			"anonymous": false,
			"inputs": [
				{
					"indexed": true,
					"internalType": "uint256",
					"name": "pid",
					"type": "uint256"
				},
				{
					"indexed": false,
					"internalType": "uint256",
					"name": "lastRewardBlock",
					"type": "uint256"
				},
				{
					"indexed": false,
					"internalType": "uint256",
					"name": "lpSupply",
					"type": "uint256"
				},
				{
					"indexed": false,
					"internalType": "uint256",
					"name": "accWVLTPerShare",
					"type": "uint256"
				}
			],
			"name": "LogUpdatePool",
			"type": "event"
		},
		{
			"anonymous": false,
			"inputs": [
				{
					"indexed": true,
					"internalType": "address",
					"name": "previousOwner",
					"type": "address"
				},
				{
					"indexed": true,
					"internalType": "address",
					"name": "newOwner",
					"type": "address"
				}
			],
			"name": "OwnershipTransferred",
			"type": "event"
		},
		{
			"anonymous": false,
			"inputs": [
				{
					"indexed": true,
					"internalType": "address",
					"name": "oldAddress",
					"type": "address"
				},
				{
					"indexed": true,
					"internalType": "address",
					"name": "newAddress",
					"type": "address"
				}
			],
			"name": "SetTreasuryAddress",
			"type": "event"
		},
		{
			"anonymous": false,
			"inputs": [
				{
					"indexed": true,
					"internalType": "address",
					"name": "user",
					"type": "address"
				},
				{
					"indexed": false,
					"internalType": "uint256",
					"name": "_wvltPerSec",
					"type": "uint256"
				}
			],
			"name": "UpdateEmissionRate",
			"type": "event"
		},
		{
			"anonymous": false,
			"inputs": [
				{
					"indexed": true,
					"internalType": "address",
					"name": "user",
					"type": "address"
				},
				{
					"indexed": true,
					"internalType": "uint256",
					"name": "pid",
					"type": "uint256"
				},
				{
					"indexed": false,
					"internalType": "uint256",
					"name": "amount",
					"type": "uint256"
				},
				{
					"indexed": true,
					"internalType": "address",
					"name": "to",
					"type": "address"
				}
			],
			"name": "Withdraw",
			"type": "event"
		},
		{
			"inputs": [],
			"name": "POOL_PERCENTAGE",
			"outputs": [
				{
					"internalType": "uint256",
					"name": "",
					"type": "uint256"
				}
			],
			"stateMutability": "view",
			"type": "function"
		},
		{
			"inputs": [],
			"name": "TREASURY_PERCENTAGE",
			"outputs": [
				{
					"internalType": "uint256",
					"name": "",
					"type": "uint256"
				}
			],
			"stateMutability": "view",
			"type": "function"
		},
		{
			"inputs": [
				{
					"internalType": "uint256",
					"name": "_allocPoint",
					"type": "uint256"
				},
				{
					"internalType": "contract IERC20",
					"name": "_lpToken",
					"type": "address"
				},
				{
					"internalType": "contract IRewarder",
					"name": "_rewarder",
					"type": "address"
				}
			],
			"name": "add",
			"outputs": [],
			"stateMutability": "nonpayable",
			"type": "function"
		},
		{
			"inputs": [
				{
					"internalType": "uint256",
					"name": "_pid",
					"type": "uint256"
				},
				{
					"internalType": "uint256",
					"name": "_amount",
					"type": "uint256"
				},
				{
					"internalType": "address",
					"name": "_to",
					"type": "address"
				}
			],
			"name": "deposit",
			"outputs": [],
			"stateMutability": "nonpayable",
			"type": "function"
		},
		{
			"inputs": [
				{
					"internalType": "uint256",
					"name": "_pid",
					"type": "uint256"
				},
				{
					"internalType": "address",
					"name": "_to",
					"type": "address"
				}
			],
			"name": "emergencyWithdraw",
			"outputs": [],
			"stateMutability": "nonpayable",
			"type": "function"
		},
		{
			"inputs": [
				{
					"internalType": "uint256",
					"name": "_pid",
					"type": "uint256"
				},
				{
					"internalType": "address",
					"name": "_to",
					"type": "address"
				}
			],
			"name": "harvest",
			"outputs": [],
			"stateMutability": "nonpayable",
			"type": "function"
		},
		{
			"inputs": [
				{
					"internalType": "uint256[]",
					"name": "_pids",
					"type": "uint256[]"
				},
				{
					"internalType": "address",
					"name": "_to",
					"type": "address"
				}
			],
			"name": "harvestAll",
			"outputs": [],
			"stateMutability": "nonpayable",
			"type": "function"
		},
		{
			"inputs": [
				{
					"internalType": "uint256",
					"name": "",
					"type": "uint256"
				}
			],
			"name": "lpTokens",
			"outputs": [
				{
					"internalType": "contract IERC20",
					"name": "",
					"type": "address"
				}
			],
			"stateMutability": "view",
			"type": "function"
		},
		{
			"inputs": [
				{
					"internalType": "uint256[]",
					"name": "pids",
					"type": "uint256[]"
				}
			],
			"name": "massUpdatePools",
			"outputs": [],
			"stateMutability": "nonpayable",
			"type": "function"
		},
		{
			"inputs": [],
			"name": "owner",
			"outputs": [
				{
					"internalType": "address",
					"name": "",
					"type": "address"
				}
			],
			"stateMutability": "view",
			"type": "function"
		},
		{
			"inputs": [
				{
					"internalType": "uint256",
					"name": "_pid",
					"type": "uint256"
				},
				{
					"internalType": "address",
					"name": "_user",
					"type": "address"
				}
			],
			"name": "pendingWVLT",
			"outputs": [
				{
					"internalType": "uint256",
					"name": "pending",
					"type": "uint256"
				}
			],
			"stateMutability": "view",
			"type": "function"
		},
		{
			"inputs": [
				{
					"internalType": "uint256",
					"name": "",
					"type": "uint256"
				}
			],
			"name": "poolInfo",
			"outputs": [
				{
					"internalType": "uint256",
					"name": "allocPoint",
					"type": "uint256"
				},
				{
					"internalType": "uint256",
					"name": "lastRewardBlock",
					"type": "uint256"
				},
				{
					"internalType": "uint256",
					"name": "accWVLTPerShare",
					"type": "uint256"
				}
			],
			"stateMutability": "view",
			"type": "function"
		},
		{
			"inputs": [],
			"name": "poolLength",
			"outputs": [
				{
					"internalType": "uint256",
					"name": "",
					"type": "uint256"
				}
			],
			"stateMutability": "view",
			"type": "function"
		},
		{
			"inputs": [],
			"name": "renounceOwnership",
			"outputs": [],
			"stateMutability": "nonpayable",
			"type": "function"
		},
		{
			"inputs": [
				{
					"internalType": "uint256",
					"name": "",
					"type": "uint256"
				}
			],
			"name": "rewarder",
			"outputs": [
				{
					"internalType": "contract IRewarder",
					"name": "",
					"type": "address"
				}
			],
			"stateMutability": "view",
			"type": "function"
		},
		{
			"inputs": [
				{
					"internalType": "uint256",
					"name": "_pid",
					"type": "uint256"
				},
				{
					"internalType": "uint256",
					"name": "_allocPoint",
					"type": "uint256"
				},
				{
					"internalType": "contract IRewarder",
					"name": "_rewarder",
					"type": "address"
				},
				{
					"internalType": "bool",
					"name": "overwrite",
					"type": "bool"
				}
			],
			"name": "set",
			"outputs": [],
			"stateMutability": "nonpayable",
			"type": "function"
		},
		{
			"inputs": [],
			"name": "startBlock",
			"outputs": [
				{
					"internalType": "uint256",
					"name": "",
					"type": "uint256"
				}
			],
			"stateMutability": "view",
			"type": "function"
		},
		{
			"inputs": [],
			"name": "totalAllocPoint",
			"outputs": [
				{
					"internalType": "uint256",
					"name": "",
					"type": "uint256"
				}
			],
			"stateMutability": "view",
			"type": "function"
		},
		{
			"inputs": [
				{
					"internalType": "address",
					"name": "newOwner",
					"type": "address"
				}
			],
			"name": "transferOwnership",
			"outputs": [],
			"stateMutability": "nonpayable",
			"type": "function"
		},
		{
			"inputs": [
				{
					"internalType": "address",
					"name": "_treasuryAddress",
					"type": "address"
				}
			],
			"name": "treasury",
			"outputs": [],
			"stateMutability": "nonpayable",
			"type": "function"
		},
		{
			"inputs": [],
			"name": "treasuryAddress",
			"outputs": [
				{
					"internalType": "address",
					"name": "",
					"type": "address"
				}
			],
			"stateMutability": "view",
			"type": "function"
		},
		{
			"inputs": [
				{
					"internalType": "uint256",
					"name": "_wvltPerBlock",
					"type": "uint256"
				}
			],
			"name": "updateEmissionRate",
			"outputs": [],
			"stateMutability": "nonpayable",
			"type": "function"
		},
		{
			"inputs": [
				{
					"internalType": "uint256",
					"name": "_pid",
					"type": "uint256"
				}
			],
			"name": "updatePool",
			"outputs": [
				{
					"components": [
						{
							"internalType": "uint256",
							"name": "allocPoint",
							"type": "uint256"
						},
						{
							"internalType": "uint256",
							"name": "lastRewardBlock",
							"type": "uint256"
						},
						{
							"internalType": "uint256",
							"name": "accWVLTPerShare",
							"type": "uint256"
						}
					],
					"internalType": "struct WVLTMasterChef.PoolInfo",
					"name": "pool",
					"type": "tuple"
				}
			],
			"stateMutability": "nonpayable",
			"type": "function"
		},
		{
			"inputs": [
				{
					"internalType": "uint256",
					"name": "",
					"type": "uint256"
				},
				{
					"internalType": "address",
					"name": "",
					"type": "address"
				}
			],
			"name": "userInfo",
			"outputs": [
				{
					"internalType": "uint256",
					"name": "amount",
					"type": "uint256"
				},
				{
					"internalType": "uint256",
					"name": "rewardDebt",
					"type": "uint256"
				}
			],
			"stateMutability": "view",
			"type": "function"
		},
		{
			"inputs": [
				{
					"internalType": "uint256",
					"name": "_pid",
					"type": "uint256"
				},
				{
					"internalType": "uint256",
					"name": "_amount",
					"type": "uint256"
				},
				{
					"internalType": "address",
					"name": "_to",
					"type": "address"
				}
			],
			"name": "withdrawAndHarvest",
			"outputs": [],
			"stateMutability": "nonpayable",
			"type": "function"
		},
		{
			"inputs": [],
			"name": "wvlt",
			"outputs": [
				{
					"internalType": "contract WVLTToken",
					"name": "",
					"type": "address"
				}
			],
			"stateMutability": "view",
			"type": "function"
		},
		{
			"inputs": [],
			"name": "wvltPerBlock",
			"outputs": [
				{
					"internalType": "uint256",
					"name": "",
					"type": "uint256"
				}
			],
			"stateMutability": "view",
			"type": "function"
		}
	]
}