{
  "_format": "hh-sol-artifact-1",
  "contractName": "BalancerPoolToken",
  "sourceName": "contracts/NoProtocolFeeLiquidityBootstrappingPoolFactory.sol",
  "abi": [
    {
      "inputs": [
        {
          "internalType": "string",
          "name": "tokenName",
          "type": "string"
        },
        {
          "internalType": "string",
          "name": "tokenSymbol",
          "type": "string"
        }
      ],
      "stateMutability": "nonpayable",
      "type": "constructor"
    },
    {
      "anonymous": false,
      "inputs": [
        {
          "indexed": true,
          "internalType": "address",
          "name": "owner",
          "type": "address"
        },
        {
          "indexed": true,
          "internalType": "address",
          "name": "spender",
          "type": "address"
        },
        {
          "indexed": false,
          "internalType": "uint256",
          "name": "value",
          "type": "uint256"
        }
      ],
      "name": "Approval",
      "type": "event"
    },
    {
      "anonymous": false,
      "inputs": [
        {
          "indexed": true,
          "internalType": "address",
          "name": "from",
          "type": "address"
        },
        {
          "indexed": true,
          "internalType": "address",
          "name": "to",
          "type": "address"
        },
        {
          "indexed": false,
          "internalType": "uint256",
          "name": "value",
          "type": "uint256"
        }
      ],
      "name": "Transfer",
      "type": "event"
    },
    {
      "inputs": [],
      "name": "DOMAIN_SEPARATOR",
      "outputs": [
        {
          "internalType": "bytes32",
          "name": "",
          "type": "bytes32"
        }
      ],
      "stateMutability": "view",
      "type": "function"
    },
    {
      "inputs": [
        {
          "internalType": "address",
          "name": "owner",
          "type": "address"
        },
        {
          "internalType": "address",
          "name": "spender",
          "type": "address"
        }
      ],
      "name": "allowance",
      "outputs": [
        {
          "internalType": "uint256",
          "name": "",
          "type": "uint256"
        }
      ],
      "stateMutability": "view",
      "type": "function"
    },
    {
      "inputs": [
        {
          "internalType": "address",
          "name": "spender",
          "type": "address"
        },
        {
          "internalType": "uint256",
          "name": "amount",
          "type": "uint256"
        }
      ],
      "name": "approve",
      "outputs": [
        {
          "internalType": "bool",
          "name": "",
          "type": "bool"
        }
      ],
      "stateMutability": "nonpayable",
      "type": "function"
    },
    {
      "inputs": [
        {
          "internalType": "address",
          "name": "account",
          "type": "address"
        }
      ],
      "name": "balanceOf",
      "outputs": [
        {
          "internalType": "uint256",
          "name": "",
          "type": "uint256"
        }
      ],
      "stateMutability": "view",
      "type": "function"
    },
    {
      "inputs": [],
      "name": "decimals",
      "outputs": [
        {
          "internalType": "uint8",
          "name": "",
          "type": "uint8"
        }
      ],
      "stateMutability": "view",
      "type": "function"
    },
    {
      "inputs": [
        {
          "internalType": "address",
          "name": "spender",
          "type": "address"
        },
        {
          "internalType": "uint256",
          "name": "amount",
          "type": "uint256"
        }
      ],
      "name": "decreaseAllowance",
      "outputs": [
        {
          "internalType": "bool",
          "name": "",
          "type": "bool"
        }
      ],
      "stateMutability": "nonpayable",
      "type": "function"
    },
    {
      "inputs": [
        {
          "internalType": "address",
          "name": "spender",
          "type": "address"
        },
        {
          "internalType": "uint256",
          "name": "addedValue",
          "type": "uint256"
        }
      ],
      "name": "increaseAllowance",
      "outputs": [
        {
          "internalType": "bool",
          "name": "",
          "type": "bool"
        }
      ],
      "stateMutability": "nonpayable",
      "type": "function"
    },
    {
      "inputs": [],
      "name": "name",
      "outputs": [
        {
          "internalType": "string",
          "name": "",
          "type": "string"
        }
      ],
      "stateMutability": "view",
      "type": "function"
    },
    {
      "inputs": [
        {
          "internalType": "address",
          "name": "owner",
          "type": "address"
        }
      ],
      "name": "nonces",
      "outputs": [
        {
          "internalType": "uint256",
          "name": "",
          "type": "uint256"
        }
      ],
      "stateMutability": "view",
      "type": "function"
    },
    {
      "inputs": [
        {
          "internalType": "address",
          "name": "owner",
          "type": "address"
        },
        {
          "internalType": "address",
          "name": "spender",
          "type": "address"
        },
        {
          "internalType": "uint256",
          "name": "value",
          "type": "uint256"
        },
        {
          "internalType": "uint256",
          "name": "deadline",
          "type": "uint256"
        },
        {
          "internalType": "uint8",
          "name": "v",
          "type": "uint8"
        },
        {
          "internalType": "bytes32",
          "name": "r",
          "type": "bytes32"
        },
        {
          "internalType": "bytes32",
          "name": "s",
          "type": "bytes32"
        }
      ],
      "name": "permit",
      "outputs": [],
      "stateMutability": "nonpayable",
      "type": "function"
    },
    {
      "inputs": [],
      "name": "symbol",
      "outputs": [
        {
          "internalType": "string",
          "name": "",
          "type": "string"
        }
      ],
      "stateMutability": "view",
      "type": "function"
    },
    {
      "inputs": [],
      "name": "totalSupply",
      "outputs": [
        {
          "internalType": "uint256",
          "name": "",
          "type": "uint256"
        }
      ],
      "stateMutability": "view",
      "type": "function"
    },
    {
      "inputs": [
        {
          "internalType": "address",
          "name": "recipient",
          "type": "address"
        },
        {
          "internalType": "uint256",
          "name": "amount",
          "type": "uint256"
        }
      ],
      "name": "transfer",
      "outputs": [
        {
          "internalType": "bool",
          "name": "",
          "type": "bool"
        }
      ],
      "stateMutability": "nonpayable",
      "type": "function"
    },
    {
      "inputs": [
        {
          "internalType": "address",
          "name": "sender",
          "type": "address"
        },
        {
          "internalType": "address",
          "name": "recipient",
          "type": "address"
        },
        {
          "internalType": "uint256",
          "name": "amount",
          "type": "uint256"
        }
      ],
      "name": "transferFrom",
      "outputs": [
        {
          "internalType": "bool",
          "name": "",
          "type": "bool"
        }
      ],
      "stateMutability": "nonpayable",
      "type": "function"
    }
  ],
  "bytecode": "0x6101006040527f6e71edae12b1b97f4d1f60370fef10105fa2faae0126114a169c64845d6126c960e0523480156200003657600080fd5b5060405162000db438038062000db483398101604081905262000059916200023c565b8180604051806040016040528060018152602001603160f81b815250848481600390805190602001906200008f929190620000f5565b508051620000a5906004906020840190620000f5565b50506005805460ff19166012179055508151602092830120608052805191012060a05250507f8b73c3c69bb8fe3d512ecc4cf759cc79239f7b179b0ffacaa9a75d522b39400f60c05250620002a3565b828054600181600116156101000203166002900490600052602060002090601f0160209004810192826200012d576000855562000178565b82601f106200014857805160ff191683800117855562000178565b8280016001018555821562000178579182015b82811115620001785782518255916020019190600101906200015b565b50620001869291506200018a565b5090565b5b808211156200018657600081556001016200018b565b600082601f830112620001b2578081fd5b81516001600160401b0380821115620001c757fe5b6040516020601f8401601f1916820181018381118382101715620001e757fe5b6040528382528584018101871015620001fe578485fd5b8492505b8383101562000221578583018101518284018201529182019162000202565b838311156200023257848185840101525b5095945050505050565b600080604083850312156200024f578182fd5b82516001600160401b038082111562000266578384fd5b6200027486838701620001a1565b935060208501519150808211156200028a578283fd5b506200029985828601620001a1565b9150509250929050565b60805160a05160c05160e051610adb620002d9600039806104655250806107025250806107445250806107235250610adb6000f3fe608060405234801561001057600080fd5b50600436106100ba5760003560e01c806306fdde03146100bf578063095ea7b3146100dd57806318160ddd146100fd57806323b872dd14610112578063313ce567146101255780633644e5151461013a578063395093511461014257806370a08231146101555780637ecebe001461016857806395d89b411461017b578063a457c2d714610183578063a9059cbb14610196578063d505accf146101a9578063dd62ed3e146101be575b600080fd5b6100c76101d1565b6040516100d49190610a44565b60405180910390f35b6100f06100eb36600461096e565b610267565b6040516100d491906109b2565b61010561027d565b6040516100d491906109bd565b6100f06101203660046108c2565b610283565b61012d6102f7565b6040516100d49190610a97565b610105610300565b6100f061015036600461096e565b61030f565b610105610163366004610876565b61034a565b610105610176366004610876565b610369565b6100c7610384565b6100f061019136600461096e565b6103e5565b6100f06101a436600461096e565b610423565b6101bc6101b73660046108fd565b610430565b005b6101056101cc366004610890565b610579565b60038054604080516020601f600260001961010060018816150201909516949094049384018190048102820181019092528281526060939092909183018282801561025d5780601f106102325761010080835404028352916020019161025d565b820191906000526020600020905b81548152906001019060200180831161024057829003601f168201915b5050505050905090565b60006102743384846105a4565b50600192915050565b60025490565b6000806102908533610579565b90506102b4336001600160a01b03871614806102ac5750838210155b61019e61060c565b6102bf85858561061e565b336001600160a01b038616148015906102da57506000198114155b156102ec576102ec85338584036105a4565b506001949350505050565b60055460ff1690565b600061030a6106fe565b905090565b3360008181526001602090815260408083206001600160a01b03871684529091528120549091610274918590610345908661079b565b6105a4565b6001600160a01b0381166000908152602081905260409020545b919050565b6001600160a01b031660009081526006602052604090205490565b60048054604080516020601f600260001961010060018816150201909516949094049384018190048102820181019092528281526060939092909183018282801561025d5780601f106102325761010080835404028352916020019161025d565b6000806103f23385610579565b905080831061040c57610407338560006105a4565b610419565b61041933858584036105a4565b5060019392505050565b600061027433848461061e565b61043e8442111560d161060c565b6001600160a01b0387166000908152600660209081526040808320549051909291610495917f0000000000000000000000000000000000000000000000000000000000000000918c918c918c9188918d91016109c6565b60405160208183030381529060405280519060200120905060006104b8826107b4565b90506000600182888888604051600081526020016040526040516104df9493929190610a26565b6020604051602081039080840390855afa158015610501573d6000803e3d6000fd5b5050604051601f190151915061054390506001600160a01b0382161580159061053b57508b6001600160a01b0316826001600160a01b0316145b6101f861060c565b6001600160a01b038b16600090815260066020526040902060018501905561056c8b8b8b6105a4565b5050505050505050505050565b6001600160a01b03918216600090815260016020908152604080832093909416825291909152205490565b6001600160a01b0380841660008181526001602090815260408083209487168084529490915290819020849055517f8c5be1e5ebec7d5bd14f71427d1e84f3dd0314c0f7b2291e5b200ac8c7c3b925906105ff9085906109bd565b60405180910390a3505050565b8161061a5761061a816107ed565b5050565b6106356001600160a01b038416151561019861060c565b61064c6001600160a01b038316151561019961060c565b610657838383610840565b6001600160a01b03831660009081526020819052604090205461067d90826101a0610845565b6001600160a01b0380851660009081526020819052604080822093909355908416815220546106ac908261079b565b6001600160a01b0380841660008181526020819052604090819020939093559151908516907fddf252ad1be2c89b69c2b068fc378daa952ba7f163c4a11628f55a4df523b3ef906105ff9085906109bd565b60007f00000000000000000000000000000000000000000000000000000000000000007f00000000000000000000000000000000000000000000000000000000000000007f000000000000000000000000000000000000000000000000000000000000000061076b61085b565b306040516020016107809594939291906109fa565b60405160208183030381529060405280519060200120905090565b60008282016107ad848210158361060c565b9392505050565b60006107be6106fe565b826040516020016107d0929190610997565b604051602081830303815290604052805190602001209050919050565b62461bcd60e51b6000908152602060045260076024526642414c23000030600a808404818106603090810160081b95839006959095019082900491820690940160101b939093010160c81b604452606490fd5b505050565b6000610854848411158361060c565b5050900390565b4690565b80356001600160a01b038116811461036457600080fd5b600060208284031215610887578081fd5b6107ad8261085f565b600080604083850312156108a2578081fd5b6108ab8361085f565b91506108b96020840161085f565b90509250929050565b6000806000606084860312156108d6578081fd5b6108df8461085f565b92506108ed6020850161085f565b9150604084013590509250925092565b600080600080600080600060e0888a031215610917578283fd5b6109208861085f565b965061092e6020890161085f565b95506040880135945060608801359350608088013560ff81168114610951578384fd5b9699959850939692959460a0840135945060c09093013592915050565b60008060408385031215610980578182fd5b6109898361085f565b946020939093013593505050565b61190160f01b81526002810192909252602282015260420190565b901515815260200190565b90815260200190565b9586526001600160a01b0394851660208701529290931660408501526060840152608083019190915260a082015260c00190565b9485526020850193909352604084019190915260608301526001600160a01b0316608082015260a00190565b93845260ff9290921660208401526040830152606082015260800190565b6000602080835283518082850152825b81811015610a7057858101830151858201604001528201610a54565b81811115610a815783604083870101525b50601f01601f1916929092016040019392505050565b60ff9190911681526020019056fea2646970667358221220f09e8866c43f4ca498daa507262cecd5384a3e364638f0354cfffc71e7aa2e9464736f6c63430007060033",
  "linkReferences": {},
  "deployedLinkReferences": {}
}