{
  "_format": "hh-sol-artifact-1",
  "contractName": "LiquidityBootstrappingPoolFactory",
  "sourceName": "contracts/NoProtocolFeeLiquidityBootstrappingPoolFactory.sol",
  "abi": [
    {
      "inputs": [
        {
          "internalType": "contract IVault",
          "name": "vault",
          "type": "address"
        },
        {
          "internalType": "address",
          "name": "defaultPoolOwner",
          "type": "address"
        }
      ],
      "stateMutability": "nonpayable",
      "type": "constructor"
    },
    {
      "anonymous": false,
      "inputs": [
        {
          "indexed": true,
          "internalType": "address",
          "name": "pool",
          "type": "address"
        }
      ],
      "name": "PoolCreated",
      "type": "event"
    },
    {
      "inputs": [
        {
          "internalType": "string",
          "name": "name",
          "type": "string"
        },
        {
          "internalType": "string",
          "name": "symbol",
          "type": "string"
        },
        {
          "internalType": "contract IERC20[]",
          "name": "tokens",
          "type": "address[]"
        },
        {
          "internalType": "uint256[]",
          "name": "weights",
          "type": "uint256[]"
        },
        {
          "internalType": "uint256",
          "name": "swapFeePercentage",
          "type": "uint256"
        },
        {
          "internalType": "bool",
          "name": "swapEnabledOnStart",
          "type": "bool"
        }
      ],
      "name": "create",
      "outputs": [
        {
          "internalType": "address",
          "name": "",
          "type": "address"
        }
      ],
      "stateMutability": "nonpayable",
      "type": "function"
    },
    {
      "inputs": [],
      "name": "getCreationCode",
      "outputs": [
        {
          "internalType": "bytes",
          "name": "",
          "type": "bytes"
        }
      ],
      "stateMutability": "view",
      "type": "function"
    },
    {
      "inputs": [],
      "name": "getCreationCodeContracts",
      "outputs": [
        {
          "internalType": "address",
          "name": "contractA",
          "type": "address"
        },
        {
          "internalType": "address",
          "name": "contractB",
          "type": "address"
        }
      ],
      "stateMutability": "view",
      "type": "function"
    },
    {
      "inputs": [],
      "name": "getDefaultPoolOwner",
      "outputs": [
        {
          "internalType": "address",
          "name": "",
          "type": "address"
        }
      ],
      "stateMutability": "view",
      "type": "function"
    },
    {
      "inputs": [],
      "name": "getPauseConfiguration",
      "outputs": [
        {
          "internalType": "uint256",
          "name": "pauseWindowDuration",
          "type": "uint256"
        },
        {
          "internalType": "uint256",
          "name": "bufferPeriodDuration",
          "type": "uint256"
        }
      ],
      "stateMutability": "view",
      "type": "function"
    },
    {
      "inputs": [],
      "name": "getVault",
      "outputs": [
        {
          "internalType": "contract IVault",
          "name": "",
          "type": "address"
        }
      ],
      "stateMutability": "view",
      "type": "function"
    },
    {
      "inputs": [
        {
          "internalType": "address",
          "name": "pool",
          "type": "address"
        }
      ],
      "name": "isPoolFromFactory",
      "outputs": [
        {
          "internalType": "bool",
          "name": "",
          "type": "bool"
        }
      ],
      "stateMutability": "view",
      "type": "function"
    }
  ],
  "bytecode": "0x6101406040523480156200001257600080fd5b506040516200687b3803806200687b8339810160408190526200003591620001e6565b81604051806020016200004890620001d8565b601f1982820381018352601f9091011660405280518390829060006002820460a081905280830360e08190528185529091508362000092816200011c602090811b620002a517901c565b60601b6001600160601b0319166080528285018051838252620000c1826200011c602090811b620002a517901c565b606090811b6001600160601b031990811660c0529690935290529690961b909116610100525050600080546001600160a01b0319166001600160a01b03929092169190911790555050506276a700420161012052506200023d565b80517f602038038060206000396000f3fefefefefefefefefefefefefefefefefefefe808352600091602081018484f090845291506200016a6001600160a01b03831615156101ac62000170565b50919050565b816200018157620001818162000185565b5050565b62461bcd60e51b6000908152602060045260076024526642414c23000030600a808404818106603090810160081b95839006959095019082900491820690940160101b939093010160c81b604452606490fd5b615c608062000c1b83390190565b60008060408385031215620001f9578182fd5b8251620002068162000224565b6020840151909250620002198162000224565b809150509250929050565b6001600160a01b03811681146200023a57600080fd5b50565b60805160601c60a05160c05160601c60e0516101005160601c6101205161097c6200029f600039806101ec52806102155250806102835250806102ff5250806101c3528061037b5250806103205250806101a25280610357525061097c6000f3fe608060405234801561001057600080fd5b506004361061007c5760003560e01c80632da47c401161005b5780632da47c40146100d55780636634b753146100eb5780637ff52b011461010b5780638d928af8146101135761007c565b8062c194db1461008157806315aa63c41461009f578063174481fa146100bf575b600080fd5b61008961011b565b6040516100969190610802565b60405180910390f35b6100b26100ad366004610670565b61013a565b60405161009691906107c9565b6100c76101a0565b6040516100969291906107dd565b6100dd6101e6565b6040516100969291906108de565b6100fe6100f9366004610654565b610250565b60405161009691906107f7565b6100b2610272565b6100b2610281565b6060610135604051806020016040528060008152506102f7565b905090565b60008060006101476101e6565b91509150610193610156610281565b8a8a8a8a8a8888610165610272565b8d60405160200161017f9a99989796959493929190610815565b6040516020818303038152906040526103d0565b9998505050505050505050565b7f00000000000000000000000000000000000000000000000000000000000000007f00000000000000000000000000000000000000000000000000000000000000009091565b600080427f000000000000000000000000000000000000000000000000000000000000000081101561024257807f000000000000000000000000000000000000000000000000000000000000000003925062278d00915061024b565b60009250600091505b509091565b6001600160a01b03811660009081526001602052604090205460ff165b919050565b6000546001600160a01b031690565b7f000000000000000000000000000000000000000000000000000000000000000090565b80517f602038038060206000396000f3fefefefefefefefefefefefefefefefefefefe808352600091602081018484f090845291506102f16001600160a01b03831615156101ac610433565b50919050565b8051604080517f00000000000000000000000000000000000000000000000000000000000000007f0000000000000000000000000000000000000000000000000000000000000000818101858101848101602090810190965280855293957f00000000000000000000000000000000000000000000000000000000000000009592947f000000000000000000000000000000000000000000000000000000000000000094938801866000828a3c846000888301883c50602089810190898501016103c2818386610445565b505050505050505050919050565b6000806103dc83610483565b6001600160a01b0381166000818152600160208190526040808320805460ff19169092179091555192935090917f83a48fbcfc991335314e74d0496aab6a1987e992ddc85dddbcc4d6dd6ef2e9fc9190a292915050565b8161044157610441816104bd565b5050565b5b60208110610465578151835260209283019290910190601f1901610446565b905182516020929092036101000a6000190180199091169116179052565b60008061048f836102f7565b905060008151602083016000f090506001600160a01b0381166104b6573d6000803e3d6000fd5b9392505050565b62461bcd60e51b6000908152602060045260076024526642414c23000030600a808404818106603090810160081b95839006959095019082900491820690940160101b939093010160c81b604452606490fd5b600082601f830112610520578081fd5b8135602061053561053083610910565b6108ec565b8281528181019085830183850287018401881015610551578586fd5b855b858110156105785781356105668161092e565b84529284019290840190600101610553565b5090979650505050505050565b600082601f830112610595578081fd5b813560206105a561053083610910565b82815281810190858301838502870184018810156105c1578586fd5b855b85811015610578578135845292840192908401906001016105c3565b8035801515811461026d57600080fd5b600082601f8301126105ff578081fd5b813567ffffffffffffffff81111561061357fe5b610626601f8201601f19166020016108ec565b81815284602083860101111561063a578283fd5b816020850160208301379081016020019190915292915050565b600060208284031215610665578081fd5b81356104b68161092e565b60008060008060008060c08789031215610688578182fd5b863567ffffffffffffffff8082111561069f578384fd5b6106ab8a838b016105ef565b975060208901359150808211156106c0578384fd5b6106cc8a838b016105ef565b965060408901359150808211156106e1578384fd5b6106ed8a838b01610510565b95506060890135915080821115610702578384fd5b5061070f89828a01610585565b9350506080870135915061072560a088016105df565b90509295509295509295565b6001600160a01b03169052565b6000815180845260208085019450808401835b8381101561076d57815187529582019590820190600101610751565b509495945050505050565b15159052565b60008151808452815b818110156107a357602081850181015186830182015201610787565b818111156107b45782602083870101525b50601f01601f19169290920160200192915050565b6001600160a01b0391909116815260200190565b6001600160a01b0392831681529116602082015260400190565b901515815260200190565b6000602082526104b6602083018461077e565b6001600160a01b038b8116825261014060208084018290526000929061083d8584018f61077e565b92508483036040860152610851838e61077e565b85810360608701528c51808252828e01945090820190855b81811015610887578551851683529483019491830191600101610869565b5050858103608087015261089b818d61073e565b9450505050508660a08301528560c08301528460e08301526108c1610100830185610731565b6108cf610120830184610778565b9b9a5050505050505050505050565b918252602082015260400190565b60405181810167ffffffffffffffff8111828210171561090857fe5b604052919050565b600067ffffffffffffffff82111561092457fe5b5060209081020190565b6001600160a01b038116811461094357600080fd5b5056fea2646970667358221220129863932cbb64ecda487d18827ff905208050ba440d75e8fee2c8836d211c6364736f6c634300070600336102e06040527f6e71edae12b1b97f4d1f60370fef10105fa2faae0126114a169c64845d6126c9610120523480156200003757600080fd5b5060405162005c6038038062005c608339810160408190526200005a9162000d51565b898989898a516001600160401b03811180156200007657600080fd5b50604051908082528060200260200182016040528015620000a1578160200160208202803683370190505b5089898989888651600214620000b9576001620000bc565b60025b8989898989898989828289898180604051806040016040528060018152602001603160f81b815250848489336001600160a01b031660001b806080818152505050806001600160a01b031660a0816001600160a01b031660601b815250505081600390805190602001906200013392919062000b05565b5080516200014990600490602084019062000b05565b50506005805460ff1916601217905550815160209283012060c052805191012060e05250507f8b73c3c69bb8fe3d512ecc4cf759cc79239f7b179b0ffacaa9a75d522b39400f6101005250620001a86276a70083111561019462000511565b620001bc62278d0082111561019562000511565b4290910161014081905201610160528551620001de906002111560c862000511565b620001f8620001ec62000526565b8751111560c962000511565b6200020e866200052b60201b62000f6b1760201c565b620002198462000537565b6040516309b2760f60e01b81526000906001600160a01b038c16906309b2760f906200024a908d9060040162000f61565b602060405180830381600087803b1580156200026557600080fd5b505af11580156200027a573d6000803e3d6000fd5b505050506040513d601f19601f82011682018060405250810190620002a0919062000d38565b604051633354e3e960e11b81529091506001600160a01b038c16906366a9c7d290620002d59084908b908b9060040162000ec7565b600060405180830381600087803b158015620002f057600080fd5b505af115801562000305573d6000803e3d6000fd5b505050508a6001600160a01b0316610180816001600160a01b031660601b81525050806101a0818152505050505050505050505050505050505050505050506001600a819055506000875190506200036a818851620005c360201b62000f751760201c565b6101c0819052875188906000906200037e57fe5b60200260200101516001600160a01b03166101e0816001600160a01b031660601b8152505087600181518110620003b157fe5b60200260200101516001600160a01b0316610200816001600160a01b031660601b8152505060028111620003e7576000620003fe565b87600281518110620003f557fe5b60200260200101515b60601b6001600160601b03191661022052600381116200042057600062000437565b876003815181106200042e57fe5b60200260200101515b6001600160a01b0316610240816001600160a01b031660601b815250506200047a886000815181106200046657fe5b6020026020010151620005d260201b60201c565b6102605287516200049390899060019081106200046657fe5b6102805260028111620004a8576000620004ba565b620004ba886002815181106200046657fe5b6102a05260038111620004cf576000620004e1565b620004e1886003815181106200046657fe5b6102c05242620004f481808a8062000683565b620004ff8362000811565b50505050505050505050505062001017565b816200052257620005228162000865565b5050565b600490565b806200052281620008b8565b6200054c64e8d4a5100082101560cb62000511565b6200056467016345785d8a000082111560ca62000511565b620005838160c06008546200094560201b62000f82179092919060201c565b6008556040517fa9ba3ffe0b6c366b81232caab38605a0699ad5398d6cce76f91ee809e322dafc90620005b890839062000f76565b60405180910390a150565b62000522828214606762000511565b600080826001600160a01b031663313ce5676040518163ffffffff1660e01b815260040160206040518083038186803b1580156200060f57600080fd5b505afa15801562000624573d6000803e3d6000fd5b505050506040513d601f19601f820116820180604052508101906200064a919062000e5d565b60ff1690506000620006696012836200095a60201b62000f971760201c565b905080600a0a670de0b6b3a764000002925050505b919050565b600b546000805b835181101562000774576000848281518110620006a357fe5b60200260200101519050620006cb662386f26fc1000082101561012e6200051160201b60201c565b6200074c620006e5826200097760201b62000fad1760201c565b83601002608001620007376200071a8a87815181106200070157fe5b6020026020010151620009b860201b62000fcd1760201c565b86601f0260040189620009e560201b62000fe9179092919060201c565b620009f760201b62000ffb179092919060201c565b935062000768818462000a0760201b6200100b1790919060201c565b9250506001016200068a565b506200078d670de0b6b3a7640000821461013462000511565b620007c68560e0620007b18960c08762000a2260201b6200101d179092919060201c565b62000a2260201b6200101d179092919060201c565b600b556040517f0f3631f9dab08169d1db21c6dc5f32536fb2b0a6b9bb5330d71c52132f968be0906200080190889088908890889062000f7f565b60405180910390a1505050505050565b62000830816000600b5462000a3460201b6200102f179092919060201c565b600b556040517f5a9e84f78f7957cb4ed7478eb0fcad35ee4ecbe2e0f298420b28a3955392573f90620005b890839062000ebc565b62461bcd60e51b6000908152602060045260076024526642414c23000030600a808404818106603090810160081b95839006959095019082900491820690940160101b939093010160c81b604452606490fd5b600281511015620008c95762000942565b600081600081518110620008d957fe5b602002602001015190506000600190505b82518110156200093f5760008382815181106200090357fe5b6020026020010151905062000934816001600160a01b0316846001600160a01b03161060656200051160201b60201c565b9150600101620008ea565b50505b50565b6001600160401b03811b1992909216911b1790565b60006200096c83831115600162000511565b508082035b92915050565b600062000971670de0b6b3a7640000620009a461ffff80168562000a5d60201b620010561790919060201c565b62000ab260201b620010a41790919060201c565b600062000971670de0b6b3a7640000620009a4637fffffff8562000a5d60201b620010561790919060201c565b637fffffff811b1992909216911b1790565b61ffff811b1992909216911b1790565b600082820162000a1b848210158362000511565b9392505050565b63ffffffff811b1992909216911b1790565b60006001821b198416828462000a4c57600062000a4f565b60015b60ff16901b17949350505050565b600082820262000a8584158062000a7d57508385838162000a7a57fe5b04145b600362000511565b8062000a9657600091505062000971565b670de0b6b3a764000060001982015b0460010191505062000971565b600062000ac3821515600462000511565b8262000ad25750600062000971565b670de0b6b3a76400008381029062000af89085838162000aee57fe5b0414600562000511565b82600182038162000aa557fe5b828054600181600116156101000203166002900490600052602060002090601f01602090048101928262000b3d576000855562000b88565b82601f1062000b5857805160ff191683800117855562000b88565b8280016001018555821562000b88579182015b8281111562000b8857825182559160200191906001019062000b6b565b5062000b9692915062000b9a565b5090565b5b8082111562000b96576000815560010162000b9b565b80516200067e8162001001565b600082601f83011262000bcf578081fd5b8151602062000be862000be28362000fe3565b62000fbf565b828152818101908583018385028701840188101562000c05578586fd5b855b8581101562000c3057815162000c1d8162001001565b8452928401929084019060010162000c07565b5090979650505050505050565b600082601f83011262000c4e578081fd5b8151602062000c6162000be28362000fe3565b828152818101908583018385028701840188101562000c7e578586fd5b855b8581101562000c305781518452928401929084019060010162000c80565b805180151581146200067e57600080fd5b600082601f83011262000cc0578081fd5b81516001600160401b0381111562000cd457fe5b602062000cea601f8301601f1916820162000fbf565b828152858284870101111562000cfe578384fd5b835b8381101562000d1d57858101830151828201840152820162000d00565b8381111562000d2e57848385840101525b5095945050505050565b60006020828403121562000d4a578081fd5b5051919050565b6000806000806000806000806000806101408b8d03121562000d71578586fd5b62000d7c8b62000bb1565b60208c0151909a506001600160401b038082111562000d99578788fd5b62000da78e838f0162000caf565b9a5060408d015191508082111562000dbd578788fd5b62000dcb8e838f0162000caf565b995060608d015191508082111562000de1578788fd5b62000def8e838f0162000bbe565b985060808d015191508082111562000e05578788fd5b5062000e148d828e0162000c3d565b96505060a08b0151945060c08b0151935060e08b0151925062000e3b6101008c0162000bb1565b915062000e4c6101208c0162000c9e565b90509295989b9194979a5092959850565b60006020828403121562000e6f578081fd5b815160ff8116811462000a1b578182fd5b6000815180845260208085019450808401835b8381101562000eb15781518752958201959082019060010162000e93565b509495945050505050565b901515815260200190565b60006060820185835260206060818501528186518084526080860191508288019350845b8181101562000f125784516001600160a01b03168352938301939183019160010162000eeb565b505084810360408601528551808252908201925081860190845b8181101562000f535782516001600160a01b03168552938301939183019160010162000f2c565b509298975050505050505050565b602081016003831062000f7057fe5b91905290565b90815260200190565b60008582528460208301526080604083015262000fa0608083018562000e80565b828103606084015262000fb4818562000e80565b979650505050505050565b6040518181016001600160401b038111828210171562000fdb57fe5b604052919050565b60006001600160401b0382111562000ff757fe5b5060209081020190565b6001600160a01b03811681146200094257600080fd5b60805160a05160601c60c05160e051610100516101205161014051610160516101805160601c6101a0516101c0516101e05160601c6102005160601c6102205160601c6102405160601c61026051610280516102a0516102c051614b436200111d6000398061139a5280611ed95250806113575280611e785250806113145280611e175250806112c35280611db6525080611e9e5280612d94525080611e3d5280612d52525080611ddc5280612d10525080611d7b5280612cce5250806115fe52508061067a525080610a18525080611246525080611222525080610cd65250806114ca52508061150c5250806114eb5250806109f452508061097e5250614b436000f3fe608060405234801561001057600080fd5b50600436106102325760003560e01c806374f3b009116101305780639d2c110c116100b8578063d505accf1161007c578063d505accf14610482578063d5c096c414610495578063dd62ed3e146104a8578063e01af92c146104bb578063f89f27ed146104ce57610232565b80639d2c110c14610439578063a457c2d71461044c578063a9059cbb1461045f578063aaabadc514610472578063c0ff1a151461047a57610232565b806387ec6817116100ff57806387ec6817146103f9578063893d20e81461040c5780638d928af81461042157806395d89b41146104295780639b02cdde1461043157610232565b806374f3b0091461039b5780637beed220146103bc5780637ecebe00146103d3578063851c1bb3146103e657610232565b806338e9922e116101be57806350dd6ed91161018257806350dd6ed91461034457806355c67628146103575780636028bfd41461035f578063679aefce1461038057806370a082311461038857610232565b806338e9922e146102fb57806338fff2d01461030e57806339509351146103165780633e5692051461032957806347bc4d921461033c57610232565b80631c0de051116102055780631c0de0511461029f5780631dd746ea146102b657806323b872dd146102cb578063313ce567146102de5780633644e515146102f357610232565b806306fdde0314610237578063095ea7b31461025557806316c38b3c1461027557806318160ddd1461028a575b600080fd5b61023f6104d6565b60405161024c9190614a13565b60405180910390f35b610268610263366004614301565b61056d565b60405161024c919061491a565b6102886102833660046143f7565b610584565b005b610292610598565b60405161024c919061493d565b6102a761059e565b60405161024c93929190614925565b6102be6105c7565b60405161024c91906148e2565b6102686102d936600461424c565b6105d6565b6102e661064c565b60405161024c9190614a8f565b610292610655565b610288610309366004614761565b61065f565b610292610678565b610268610324366004614301565b61069c565b610288610337366004614779565b6106d7565b61026861073e565b610288610352366004614515565b61074e565b61029261076c565b61037261036d36600461442f565b61077d565b60405161024c929190614a26565b6102926107b4565b6102926103963660046141f8565b6107df565b6103ae6103a936600461442f565b6107fe565b60405161024c9291906148f5565b6103c46108a1565b60405161024c93929190614a3f565b6102926103e13660046141f8565b61095f565b6102926103f43660046144d1565b61097a565b61037261040736600461442f565b6109cc565b6104146109f2565b60405161024c91906148ce565b610414610a16565b61023f610a3a565b610292610a9b565b61029261044736600461466b565b610aa1565b61026861045a366004614301565b610b88565b61026861046d366004614301565b610bc6565b610414610bd3565b610292610bdd565b61028861049036600461428c565b610ca1565b6103ae6104a336600461442f565b610dea565b6102926104b6366004614214565b610f0d565b6102886104c93660046143f7565b610f38565b6102be610f61565b60038054604080516020601f60026000196101006001881615020190951694909404938401819004810282018101909252828152606093909290918301828280156105625780601f1061053757610100808354040283529160200191610562565b820191906000526020600020905b81548152906001019060200180831161054557829003601f168201915b505050505090505b90565b600061057a3384846110ef565b5060015b92915050565b61058c611157565b61059581611185565b50565b60025490565b60008060006105ab611203565b1592506105b6611220565b91506105c0611244565b9050909192565b60606105d1611268565b905090565b6000806105e38533610f0d565b9050610607336001600160a01b03871614806105ff5750838210155b61019e6113d8565b6106128585856113e6565b336001600160a01b0386161480159061062d57506000198114155b1561063f5761063f85338584036110ef565b60019150505b9392505050565b60055460ff1690565b60006105d16114c6565b610667611157565b61066f611563565b61059581611578565b7f000000000000000000000000000000000000000000000000000000000000000090565b3360008181526001602090815260408083206001600160a01b0387168452909152812054909161057a9185906106d2908661100b565b6110ef565b6106df611157565b6106e7611563565b6106ef6115e3565b6107016106fa6115fc565b8251610f75565b4261070c8185611620565b935061071d838511156101466113d8565b610730848461072a611637565b8561174a565b5061073961185f565b505050565b600b546000906105d19082611866565b610756611157565b61075e611563565b6107688282611870565b5050565b6008546000906105d19060c061196f565b60006060610793865161078e6115fc565b610f75565b6107a88989898989898961197c611a4a611aab565b97509795505050505050565b60006105d16107c1610598565b6107d96107cc610bdd565b6107d46115fc565b611bcd565b90611be7565b6001600160a01b0381166000908152602081905260409020545b919050565b6060808861082861080d610a16565b6001600160a01b0316336001600160a01b03161460cd6113d8565b61083d610833610678565b82146101f46113d8565b6000610847611268565b90506108538882611c2f565b60008060006108688e8e8e8e8e8e8a8f61197c565b9250925092506108788d84611c90565b6108828285611a4a565b61088c8185611a4a565b909550935050505b5097509795505050505050565b600b5460009081906060906108b78160c0611c9a565b93506108c48160e0611c9a565b925060006108d06115fc565b9050806001600160401b03811180156108e857600080fd5b50604051908082528060200260200182016040528015610912578160200160208202803683370190505b50925060005b81811015610957576109386109338460806010850201611ca4565b611cac565b84828151811061094457fe5b6020908102919091010152600101610918565b505050909192565b6001600160a01b031660009081526006602052604090205490565b60007f0000000000000000000000000000000000000000000000000000000000000000826040516020016109af92919061488b565b604051602081830303815290604052805190602001209050919050565b600060606109dd865161078e6115fc565b6107a889898989898989611cc6611d16611aab565b7f000000000000000000000000000000000000000000000000000000000000000090565b7f000000000000000000000000000000000000000000000000000000000000000090565b60048054604080516020601f60026000196101006001881615020190951694909404938401819004810282018101909252828152606093909290918301828280156105625780601f1061053757610100808354040283529160200191610562565b60095490565b600080610ab18560200151611d77565b90506000610ac28660400151611d77565b9050600086516001811115610ad357fe5b1415610b3957610ae68660600151611f08565b6060870152610af58583611f29565b9450610b018482611f29565b9350610b11866060015183611f29565b60608701526000610b23878787611f35565b9050610b2f8183611f5d565b9350505050610645565b610b438583611f29565b9450610b4f8482611f29565b9350610b5f866060015182611f29565b60608701526000610b71878787611f69565b9050610b7d8184611f81565b9050610b2f81611f8d565b600080610b953385610f0d565b9050808310610baf57610baa338560006110ef565b610bbc565b610bbc33858584036110ef565b5060019392505050565b600061057a3384846113e6565b60006105d1611fb3565b600080610be8610a16565b6001600160a01b031663f94d4668610bfe610678565b6040518263ffffffff1660e01b8152600401610c1a919061493d565b60006040518083038186803b158015610c3257600080fd5b505afa158015610c46573d6000803e3d6000fd5b505050506040513d6000823e601f3d908101601f19168201604052610c6e919081019061432c565b50915050610c8381610c7e611268565b611c2f565b6000610c8d61202d565b509050610c9a81836120ab565b9250505090565b610caf8442111560d16113d8565b6001600160a01b0387166000908152600660209081526040808320549051909291610d06917f0000000000000000000000000000000000000000000000000000000000000000918c918c918c9188918d9101614965565b6040516020818303038152906040528051906020012090506000610d298261211d565b9050600060018288888860405160008152602001604052604051610d5094939291906149f5565b6020604051602081039080840390855afa158015610d72573d6000803e3d6000fd5b5050604051601f1901519150610db490506001600160a01b03821615801590610dac57508b6001600160a01b0316826001600160a01b0316145b6101f86113d8565b6001600160a01b038b166000908152600660205260409020600185019055610ddd8b8b8b6110ef565b5050505050505050505050565b60608088610df961080d610a16565b610e04610833610678565b6000610e0e611268565b9050610e18610598565b610ebd57600080610e2c8d8d8d868b612139565b91509150610e41620f424083101560cc6113d8565b610e4f6000620f424061217f565b610e5e8b620f4240840361217f565b610e688184611d16565b80610e716115fc565b6001600160401b0381118015610e8657600080fd5b50604051908082528060200260200182016040528015610eb0578160200160208202803683370190505b5095509550505050610894565b610ec78882611c2f565b6000806000610edc8e8e8e8e8e8e8a8f611cc6565b925092509250610eec8c8461217f565b610ef68285611d16565b610f008185611a4a565b9095509350610894915050565b6001600160a01b03918216600090815260016020908152604080832093909416825291909152205490565b610f40611157565b610f48611563565b610f506115e3565b610f5981612189565b61059561185f565b60606105d1611637565b80610768816121cb565b61076881831460676113d8565b6001600160401b03811b1992909216911b1790565b6000610fa78383111560016113d8565b50900390565b600061057e670de0b6b3a7640000610fc78461ffff611056565b906110a4565b600061057e670de0b6b3a7640000610fc784637fffffff611056565b637fffffff811b1992909216911b1790565b61ffff811b1992909216911b1790565b600082820161064584821015836113d8565b63ffffffff811b1992909216911b1790565b60006001821b1984168284611045576000611048565b60015b60ff16901b17949350505050565b600082820261107a84158061107357508385838161107057fe5b04145b60036113d8565b8061108957600091505061057e565b670de0b6b3a764000060001982015b0460010191505061057e565b60006110b382151560046113d8565b826110c05750600061057e565b670de0b6b3a7640000838102906110e3908583816110da57fe5b041460056113d8565b82600182038161109857fe5b6001600160a01b0380841660008181526001602090815260408083209487168084529490915290819020849055517f8c5be1e5ebec7d5bd14f71427d1e84f3dd0314c0f7b2291e5b200ac8c7c3b9259061114a90859061493d565b60405180910390a3505050565b600061116e6000356001600160e01b03191661097a565b905061059561117d8233612244565b6101916113d8565b80156111a5576111a0611196611220565b42106101936113d8565b6111ba565b6111ba6111b0611244565b42106101a96113d8565b6007805460ff19168215151790556040517f9e3a5e37224532dea67b89face185703738a228a6e8a23dee546960180d3be64906111f890839061491a565b60405180910390a150565b600061120d611244565b4211806105d157505060075460ff161590565b7f000000000000000000000000000000000000000000000000000000000000000090565b7f000000000000000000000000000000000000000000000000000000000000000090565b606060006112746115fc565b90506000816001600160401b038111801561128e57600080fd5b506040519080825280602002602001820160405280156112b8578160200160208202803683370190505b5090508115611300577f0000000000000000000000000000000000000000000000000000000000000000816000815181106112ef57fe5b602002602001018181525050611309565b915061056a9050565b6001821115611300577f00000000000000000000000000000000000000000000000000000000000000008160018151811061134057fe5b6020026020010181815250506002821115611300577f00000000000000000000000000000000000000000000000000000000000000008160028151811061138357fe5b6020026020010181815250506003821115611300577f0000000000000000000000000000000000000000000000000000000000000000816003815181106113c657fe5b60200260200101818152505091505090565b816107685761076881612334565b6113fd6001600160a01b03841615156101986113d8565b6114146001600160a01b03831615156101996113d8565b61141f838383610739565b6001600160a01b03831660009081526020819052604090205461144590826101a0612387565b6001600160a01b038085166000908152602081905260408082209390935590841681522054611474908261100b565b6001600160a01b0380841660008181526020819052604090819020939093559151908516907fddf252ad1be2c89b69c2b068fc378daa952ba7f163c4a11628f55a4df523b3ef9061114a90859061493d565b60007f00000000000000000000000000000000000000000000000000000000000000007f00000000000000000000000000000000000000000000000000000000000000007f000000000000000000000000000000000000000000000000000000000000000061153361239d565b30604051602001611548959493929190614999565b60405160208183030381529060405280519060200120905090565b61157661156e611203565b6101926113d8565b565b61158b64e8d4a5100082101560cb6113d8565b6115a167016345785d8a000082111560ca6113d8565b6008546115b0908260c0610f82565b6008556040517fa9ba3ffe0b6c366b81232caab38605a0699ad5398d6cce76f91ee809e322dafc906111f890839061493d565b6115f56002600a5414156101906113d8565b6002600a55565b7f000000000000000000000000000000000000000000000000000000000000000090565b6000818310156116305781610645565b5090919050565b606060006116436115fc565b90506000816001600160401b038111801561165d57600080fd5b50604051908082528060200260200182016040528015611687578160200160208202803683370190505b50600b549091506116996000826123a1565b826000815181106116a657fe5b6020026020010181815250506116bd6001826123a1565b826001815181106116ca57fe5b60200260200101818152505082600214156116e95750915061056a9050565b6116f46002826123a1565b8260028151811061170157fe5b60200260200101818152505082600314156117205750915061056a9050565b61172b6003826123a1565b8260038151811061173857fe5b60209081029190910101525091505090565b600b546000805b83518110156117e657600084828151811061176857fe5b60200260200101519050611788662386f26fc1000082101561012e6113d8565b6117cf61179482610fad565b836010026080016117c86117ba8a87815181106117ad57fe5b6020026020010151610fcd565b88906004601f890201610fe9565b9190610ffb565b93506117db838261100b565b925050600101611751565b506117fd670de0b6b3a764000082146101346113d8565b6118168560e061180f858a60c061101d565b919061101d565b600b556040517f0f3631f9dab08169d1db21c6dc5f32536fb2b0a6b9bb5330d71c52132f968be09061184f908890889088908890614a5e565b60405180910390a1505050505050565b6001600a55565b1c60019081161490565b600061187a610678565b90506000611886610a16565b6001600160a01b031663b05f8e4883866040518363ffffffff1660e01b81526004016118b39291906149de565b60806040518083038186803b1580156118cb57600080fd5b505afa1580156118df573d6000803e3d6000fd5b505050506040513d601f19601f8201168201806040525081019061190391906147c6565b604051630639cdb560e21b81529094506001600160a01b03851693506318e736d492506119379150859087906004016149c5565b600060405180830381600087803b15801561195157600080fd5b505af1158015611965573d6000803e3d6000fd5b5050505050505050565b1c6001600160401b031690565b600060608060008061198c61202d565b91509150611998611203565b156119d05760006119a9838c6120ab565b90506119bb8b8484600954858e6123f7565b93506119ca8b85610f976124a6565b50611a1b565b6119d86115fc565b6001600160401b03811180156119ed57600080fd5b50604051908082528060200260200182016040528015611a17578160200160208202803683370190505b5092505b611a278a838989612511565b9095509350611a378a8584612580565b6009555050985098509895505050505050565b60005b611a556115fc565b81101561073957611a8c838281518110611a6b57fe5b6020026020010151838381518110611a7f57fe5b6020026020010151611be7565b838281518110611a9857fe5b6020908102919091010152600101611a4d565b333014611b69576000306001600160a01b0316600036604051611acf9291906148a3565b6000604051808303816000865af19150503d8060008114611b0c576040519150601f19603f3d011682016040523d82523d6000602084013e611b11565b606091505b505090508060008114611b2057fe5b60046000803e6000516001600160e01b0319166343adbafb60e01b8114611b4b573d6000803e3d6000fd5b506020600460003e604060205260243d03602460403e601c3d016000f35b6000611b73611268565b9050611b7f8782611c2f565b600080611b968c8c8c8c8c8c898d8d63ffffffff16565b5091509150611ba981848663ffffffff16565b8051601f1982018390526343adbafb603f1983015260200260231982016044820181fd5b600082820261064584158061107357508385838161107057fe5b6000611bf682151560046113d8565b82611c035750600061057e565b670de0b6b3a764000083810290611c1d908583816110da57fe5b828181611c2657fe5b0491505061057e565b60005b611c3a6115fc565b81101561073957611c71838281518110611c5057fe5b6020026020010151838381518110611c6457fe5b6020026020010151612599565b838281518110611c7d57fe5b6020908102919091010152600101611c32565b61076882826125c5565b1c63ffffffff1690565b1c61ffff1690565b600061057e61ffff610fc784670de0b6b3a7640000611056565b6000606080611cf2611cd66109f2565b6001600160a01b03168b6001600160a01b0316146101486113d8565b611d028b8b8b8b8b8b8b8b612681565b925092509250985098509895505050505050565b60005b611d216115fc565b81101561073957611d58838281518110611d3757fe5b6020026020010151838381518110611d4b57fe5b60200260200101516110a4565b838281518110611d6457fe5b6020908102919091010152600101611d19565b60007f00000000000000000000000000000000000000000000000000000000000000006001600160a01b0316826001600160a01b03161415611dda57507f00000000000000000000000000000000000000000000000000000000000000006107f9565b7f00000000000000000000000000000000000000000000000000000000000000006001600160a01b0316826001600160a01b03161415611e3b57507f00000000000000000000000000000000000000000000000000000000000000006107f9565b7f00000000000000000000000000000000000000000000000000000000000000006001600160a01b0316826001600160a01b03161415611e9c57507f00000000000000000000000000000000000000000000000000000000000000006107f9565b7f00000000000000000000000000000000000000000000000000000000000000006001600160a01b0316826001600160a01b03161415611efd57507f00000000000000000000000000000000000000000000000000000000000000006107f9565b6107f9610135612334565b600080611f1d611f1661076c565b8490611056565b90506106458382610f97565b60006106458383612599565b6000611f4a611f4261073e565b6101476113d8565b611f55848484612705565b949350505050565b60006106458383611be7565b6000611f76611f4261073e565b611f55848484612738565b600061064583836110a4565b600061057e611fac611f9d61076c565b670de0b6b3a764000090610f97565b83906110a4565b6000611fbd610a16565b6001600160a01b031663aaabadc56040518163ffffffff1660e01b815260040160206040518083038186803b158015611ff557600080fd5b505afa158015612009573d6000803e3d6000fd5b505050506040513d601f19601f820116820180604052508101906105d191906144f9565b60606000612039611637565b91506000905060008260008151811061204e57fe5b602002602001015190506000600190505b83518110156120a5578184828151811061207557fe5b6020026020010151111561209d5780925083818151811061209257fe5b602002602001015191505b60010161205f565b50509091565b670de0b6b3a764000060005b835181101561210d576121036120fc8583815181106120d257fe5b60200260200101518584815181106120e657fe5b602002602001015161276b90919063ffffffff16565b8390612599565b91506001016120b7565b5061057e600082116101376113d8565b60006121276114c6565b826040516020016109af9291906148b3565b600060606121646121486109f2565b6001600160a01b0316876001600160a01b0316146101486113d8565b61217187878787876127ba565b915091509550959350505050565b610768828261284e565b600b546121989082600061102f565b600b556040517f5a9e84f78f7957cb4ed7478eb0fcad35ee4ecbe2e0f298420b28a3955392573f906111f890839061491a565b6002815110156121da57610595565b6000816000815181106121e957fe5b602002602001015190506000600190505b825181101561073957600083828151811061221157fe5b6020026020010151905061223a816001600160a01b0316846001600160a01b03161060656113d8565b91506001016121fa565b600073ba1ba1ba1ba1ba1ba1ba1ba1ba1ba1ba1ba1ba1b6122636109f2565b6001600160a01b03161415801561227e575061227e836128dc565b156122a65761228b6109f2565b6001600160a01b0316336001600160a01b031614905061057e565b6122ae611fb3565b6001600160a01b0316639be2a8848484306040518463ffffffff1660e01b81526004016122dd93929190614946565b60206040518083038186803b1580156122f557600080fd5b505afa158015612309573d6000803e3d6000fd5b505050506040513d601f19601f8201168201806040525081019061232d9190614413565b905061057e565b62461bcd60e51b6000908152602060045260076024526642414c23000030600a808404818106603090810160081b95839006959095019082900491820690940160101b939093010160c81b604452606490fd5b600061239684841115836113d8565b5050900390565b4690565b6000806123bc6123b7846004601f880201612918565b612922565b905060006123d36109338560806010890201611ca4565b905060006123e08561293e565b90506123ed8383836129bd565b9695505050505050565b606060006124036115fc565b6001600160401b038111801561241857600080fd5b50604051908082528060200260200182016040528015612442578160200160208202803683370190505b509050826124515790506123ed565b61248488878151811061246057fe5b602002602001015188888151811061247457fe5b6020026020010151878787612a31565b81878151811061249057fe5b6020908102919091010152979650505050505050565b60005b6124b16115fc565b81101561250b576124ec8482815181106124c757fe5b60200260200101518483815181106124db57fe5b60200260200101518463ffffffff16565b8482815181106124f857fe5b60209081029190910101526001016124a9565b50505050565b60006060600061252084612ab9565b9050600081600281111561253057fe5b141561254b57612541878786612acf565b9250925050612577565b600181600281111561255957fe5b1415612569576125418785612bb1565b61254187878787612be3565b505b94509492505050565b600061258f8484610f976124a6565b611f5582856120ab565b60008282026125b384158061107357508385838161107057fe5b670de0b6b3a764000090049392505050565b6125dc6001600160a01b038316151561019b6113d8565b6125e882600083610739565b6001600160a01b03821660009081526020819052604090205461260e90826101a1612387565b6001600160a01b0383166000908152602081905260409020556002546126349082612c51565b6002556040516000906001600160a01b038416907fddf252ad1be2c89b69c2b068fc378daa952ba7f163c4a11628f55a4df523b3ef9061267590859061493d565b60405180910390a35050565b600060608061268e611563565b60008061269961202d565b9150915060006126a9838c6120ab565b905060006126bd8c8585600954868f6123f7565b90506126cc8c82610f976124a6565b6000806126db8e878d8d612c5f565b915091506126ea8e8288612cba565b60095590975095509350505050985098509895505050505050565b600061270f611563565b611f55836127208660200151612cc9565b8461272e8860400151612cc9565b8860600151612deb565b6000612742611563565b611f55836127538660200151612cc9565b846127618860400151612cc9565b8860600151612e58565b6000806127788484612ece565b9050600061279261278b83612710611056565b600161100b565b9050808210156127a75760009250505061057e565b6127b18282610f97565b9250505061057e565b600060606127c6611563565b60006127d184612ab9565b90506127ec60008260028111156127e457fe5b1460ce6113d8565b60006127f785612fcf565b90506128046106fa6115fc565b61280e8187611c2f565b600061281861202d565b509050600061282782846120ab565b90506000612837826107d46115fc565b600992909255509a91995090975050505050505050565b61285a60008383610739565b600254612867908261100b565b6002556001600160a01b03821660009081526020819052604090205461288d908261100b565b6001600160a01b0383166000818152602081905260408082209390935591519091907fddf252ad1be2c89b69c2b068fc378daa952ba7f163c4a11628f55a4df523b3ef9061267590859061493d565b60006128ee633806be4b60e21b61097a565b8214806129095750612906633e56920560e01b61097a565b82145b8061057e575061057e82612fe5565b1c637fffffff1690565b600061057e637fffffff610fc784670de0b6b3a7640000611056565b6000428161294d8460c0611c9a565b9050600061295c8560e0611c9a565b90508083111561297957670de0b6b3a764000093505050506107f9565b8183101561298d57600093505050506107f9565b81810382840381156129a8576129a38183611be7565b6129b2565b670de0b6b3a76400005b979650505050505050565b60008115806129cb57508284145b156129d7575082610645565b670de0b6b3a764000082106129ed575081610645565b82841115612a17576000612a0383858703612599565b9050612a0f8582610f97565b915050610645565b6000612a2583868603612599565b9050612a0f858261100b565b6000838311612a4257506000612ab0565b6000612a4e85856110a4565b90506000612a64670de0b6b3a764000088611be7565b9050612a78826709b6e64a8ec60000611620565b91506000612a868383613017565b90506000612a9d612a9683613043565b8b90612599565b9050612aa98187612599565b9450505050505b95945050505050565b60008180602001905181019061057e9190614562565b60006060612adb611563565b600080612ae785613069565b91509150612aff612af66115fc565b821060646113d8565b6000612b096115fc565b6001600160401b0381118015612b1e57600080fd5b50604051908082528060200260200182016040528015612b48578160200160208202803683370190505b509050612b8c888381518110612b5a57fe5b6020026020010151888481518110612b6e57fe5b602002602001015185612b7f610598565b612b8761076c565b61308b565b818381518110612b9857fe5b6020908102919091010152919791965090945050505050565b600060606000612bc08461314b565b90506000612bd68683612bd1610598565b613161565b9196919550909350505050565b60006060612bef611563565b600080612bfb85613212565b91509150612c0c825161078e6115fc565b612c168287611c2f565b6000612c33898985612c26610598565b612c2e61076c565b61322a565b9050612c438282111560cf6113d8565b989197509095505050505050565b600061064583836001612387565b600060606000612c6e84612ab9565b90506001816002811115612c7e57fe5b1415612c905761254187878787613456565b6002816002811115612c9e57fe5b1415612caf576125418787866134b3565b612575610136612334565b600061258f848461100b6124a6565b6000807f00000000000000000000000000000000000000000000000000000000000000006001600160a01b0316836001600160a01b03161415612d0e57506000612ddf565b7f00000000000000000000000000000000000000000000000000000000000000006001600160a01b0316836001600160a01b03161415612d5057506001612ddf565b7f00000000000000000000000000000000000000000000000000000000000000006001600160a01b0316836001600160a01b03161415612d9257506002612ddf565b7f00000000000000000000000000000000000000000000000000000000000000006001600160a01b0316836001600160a01b03161415612dd457506003612ddf565b612ddf610135612334565b61064581600b546123a1565b6000612e0d612e0287670429d069189e0000612599565b8311156101306113d8565b6000612e19878461100b565b90506000612e2788836110a4565b90506000612e358887611be7565b90506000612e438383613017565b9050612aa9612e5182613043565b8990612599565b6000612e7a612e6f85670429d069189e0000612599565b8311156101316113d8565b6000612e90612e898685610f97565b86906110a4565b90506000612e9e85886110a4565b90506000612eac8383613017565b90506000612ec282670de0b6b3a7640000610f97565b9050612aa98a82611056565b600081612ee45750670de0b6b3a764000061057e565b82612ef15750600061057e565b612f02600160ff1b841060066113d8565b82612f28770bce5086492111aea88f4bb1ca6bcf584181ea8059f76532841060076113d8565b826000670c7d713b49da000083138015612f495750670f43fc2c04ee000083125b15612f80576000612f598461355f565b9050670de0b6b3a764000080820784020583670de0b6b3a764000083050201915050612f8e565b81612f8a8461367d565b0290505b670de0b6b3a76400009005612fc6680238fd42c5cf03ffff198212801590612fbf575068070c1cc73b00c800008213155b60086113d8565b6123ed81613a1c565b6060818060200190518101906106459190614627565b6000612ff7631c74c91760e11b61097a565b82148061057e575061300f6350dd6ed960e01b61097a565b909114919050565b6000806130248484612ece565b9050600061303761278b83612710611056565b9050612ab0828261100b565b6000670de0b6b3a7640000821061305b57600061057e565b50670de0b6b3a76400000390565b6000808280602001905181019061308091906145f1565b909590945092505050565b60008061309c84610fc78188610f97565b90506130b56709b6e64a8ec600008210156101326113d8565b60006130d36130cc670de0b6b3a764000089611be7565b8390613017565b905060006130ea6130e383613043565b8a90612599565b905060006130f789613043565b905060006131058383611056565b905060006131138483610f97565b905061313b61313461312d670de0b6b3a76400008b610f97565b8490612599565b829061100b565b9c9b505050505050505050505050565b60008180602001905181019061064591906145c4565b6060600061316f8484611be7565b9050600085516001600160401b038111801561318a57600080fd5b506040519080825280602002602001820160405280156131b4578160200160208202803683370190505b50905060005b8651811015613208576131e9838883815181106131d357fe5b602002602001015161259990919063ffffffff16565b8282815181106131f557fe5b60209081029190910101526001016131ba565b5095945050505050565b6060600082806020019051810190613080919061457e565b60008084516001600160401b038111801561324457600080fd5b5060405190808252806020026020018201604052801561326e578160200160208202803683370190505b5090506000805b8851811015613333576132ce89828151811061328d57fe5b6020026020010151610fc78984815181106132a457fe5b60200260200101518c85815181106132b857fe5b6020026020010151610f9790919063ffffffff16565b8382815181106132da57fe5b6020026020010181815250506133296133228983815181106132f857fe5b602002602001015185848151811061330c57fe5b602002602001015161105690919063ffffffff16565b839061100b565b9150600101613275565b50670de0b6b3a764000060005b895181101561343557600084828151811061335757fe5b60200260200101518411156133b757600061338061337486613043565b8d85815181106131d357fe5b90506000613394828c86815181106132b857fe5b90506133ae613322611fac670de0b6b3a76400008c610f97565b925050506133ce565b8882815181106133c357fe5b602002602001015190505b60006133f78c84815181106133df57fe5b60200260200101516107d9848f87815181106132b857fe5b90506134296134228c858151811061340b57fe5b60200260200101518361276b90919063ffffffff16565b8590612599565b93505050600101613340565b5061344961344282613043565b8790611056565b9998505050505050505050565b6000606060008061346685613212565b9150915061347c6134756115fc565b8351610f75565b6134868287611c2f565b60006134a3898985613496610598565b61349e61076c565b613df9565b9050612c438282101560d06113d8565b600060606000806134c385613069565b915091506134d2612af66115fc565b60006134dc6115fc565b6001600160401b03811180156134f157600080fd5b5060405190808252806020026020018201604052801561351b578160200160208202803683370190505b509050612b8c88838151811061352d57fe5b602002602001015188848151811061354157fe5b602002602001015185613552610598565b61355a61076c565b614009565b670de0b6b3a7640000026000806a0c097ce7bc90715b34b9f160241b808401906ec097ce7bc90715b34b9f0fffffffff198501028161359a57fe5b05905060006a0c097ce7bc90715b34b9f160241b82800205905081806a0c097ce7bc90715b34b9f160241b81840205915060038205016a0c097ce7bc90715b34b9f160241b82840205915060058205016a0c097ce7bc90715b34b9f160241b82840205915060078205016a0c097ce7bc90715b34b9f160241b82840205915060098205016a0c097ce7bc90715b34b9f160241b828402059150600b8205016a0c097ce7bc90715b34b9f160241b828402059150600d8205016a0c097ce7bc90715b34b9f160241b828402059150600f826002919005919091010295945050505050565b6000670de0b6b3a76400008212156136b9576136af826a0c097ce7bc90715b34b9f160241b816136a957fe5b0561367d565b60000390506107f9565b60007e1600ef3172e58d2e933ec884fde10064c63b5372d805e203c0000000000000831261370a57770195e54c5dd42177f53a27172fa9ec630262827000000000830592506806f05b59d3b2000000015b73011798004d755d3c8bc8e03204cf44619e0000008312613742576b1425982cf597cd205cef7380830592506803782dace9d9000000015b606492830292026e01855144814a7ff805980ff0084000831261378a576e01855144814a7ff805980ff008400068056bc75e2d63100000840205925068ad78ebc5ac62000000015b6b02df0ab5a80a22c61ab5a70083126137c5576b02df0ab5a80a22c61ab5a70068056bc75e2d6310000084020592506856bc75e2d631000000015b693f1fce3da636ea5cf85083126137fc57693f1fce3da636ea5cf85068056bc75e2d631000008402059250682b5e3af16b18800000015b690127fa27722cc06cc5e2831261383357690127fa27722cc06cc5e268056bc75e2d6310000084020592506815af1d78b58c400000015b68280e60114edb805d0383126138685768280e60114edb805d0368056bc75e2d631000008402059250680ad78ebc5ac6200000015b680ebc5fb41746121110831261389357680ebc5fb4174612111068056bc75e2d631000009384020592015b6808f00f760a4b2db55d83126138c8576808f00f760a4b2db55d68056bc75e2d6310000084020592506802b5e3af16b1880000015b6806f5f177578893793783126138fd576806f5f177578893793768056bc75e2d63100000840205925068015af1d78b58c40000015b6806248f33704b2866038312613931576806248f33704b28660368056bc75e2d63100000840205925067ad78ebc5ac620000015b6805c548670b9510e7ac8312613965576805c548670b9510e7ac68056bc75e2d6310000084020592506756bc75e2d6310000015b600068056bc75e2d63100000840168056bc75e2d63100000808603028161398857fe5b059050600068056bc75e2d63100000828002059050818068056bc75e2d63100000818402059150600382050168056bc75e2d63100000828402059150600582050168056bc75e2d63100000828402059150600782050168056bc75e2d63100000828402059150600982050168056bc75e2d63100000828402059150600b820501600202606485820105979650505050505050565b6000613a4b680238fd42c5cf03ffff198312158015613a44575068070c1cc73b00c800008313155b60096113d8565b6000821215613a7e57613a6082600003613a1c565b6a0c097ce7bc90715b34b9f160241b81613a7657fe5b0590506107f9565b60006806f05b59d3b20000008312613abe57506806f05b59d3b1ffffff1990910190770195e54c5dd42177f53a27172fa9ec630262827000000000613af4565b6803782dace9d90000008312613af057506803782dace9d8ffffff19909101906b1425982cf597cd205cef7380613af4565b5060015b6064929092029168056bc75e2d6310000068ad78ebc5ac620000008412613b445768ad78ebc5ac61ffffff199093019268056bc75e2d631000006e01855144814a7ff805980ff008400082020590505b6856bc75e2d6310000008412613b80576856bc75e2d630ffffff199093019268056bc75e2d631000006b02df0ab5a80a22c61ab5a70082020590505b682b5e3af16b188000008412613bba57682b5e3af16b187fffff199093019268056bc75e2d63100000693f1fce3da636ea5cf85082020590505b6815af1d78b58c4000008412613bf4576815af1d78b58c3fffff199093019268056bc75e2d63100000690127fa27722cc06cc5e282020590505b680ad78ebc5ac62000008412613c2d57680ad78ebc5ac61fffff199093019268056bc75e2d6310000068280e60114edb805d0382020590505b68056bc75e2d631000008412613c665768056bc75e2d630fffff199093019268056bc75e2d63100000680ebc5fb4174612111082020590505b6802b5e3af16b18800008412613c9f576802b5e3af16b187ffff199093019268056bc75e2d631000006808f00f760a4b2db55d82020590505b68015af1d78b58c400008412613cd85768015af1d78b58c3ffff199093019268056bc75e2d631000006806f5f177578893793782020590505b68056bc75e2d631000008481019085906002908280020505918201919050600368056bc75e2d631000008783020505918201919050600468056bc75e2d631000008783020505918201919050600568056bc75e2d631000008783020505918201919050600668056bc75e2d631000008783020505918201919050600768056bc75e2d631000008783020505918201919050600868056bc75e2d631000008783020505918201919050600968056bc75e2d631000008783020505918201919050600a68056bc75e2d631000008783020505918201919050600b68056bc75e2d631000008783020505918201919050600c68056bc75e2d631000008783020505918201919050606468056bc75e2d63100000848402058502059695505050505050565b60008084516001600160401b0381118015613e1357600080fd5b50604051908082528060200260200182016040528015613e3d578160200160208202803683370190505b5090506000805b8851811015613ee557613e9d898281518110613e5c57fe5b60200260200101516107d9898481518110613e7357fe5b60200260200101518c8581518110613e8757fe5b602002602001015161100b90919063ffffffff16565b838281518110613ea957fe5b602002602001018181525050613edb613322898381518110613ec757fe5b60200260200101518584815181106131d357fe5b9150600101613e44565b50670de0b6b3a764000060005b8951811015613fc657600083858381518110613f0a57fe5b60200260200101511115613f66576000613f2f61337486670de0b6b3a7640000610f97565b90506000613f43828c86815181106132b857fe5b9050613f5d6133226120fc670de0b6b3a76400008c610f97565b92505050613f7d565b888281518110613f7257fe5b602002602001015190505b6000613fa68c8481518110613f8e57fe5b60200260200101516107d9848f8781518110613e8757fe5b9050613fba6134228c858151811061340b57fe5b93505050600101613ef2565b50670de0b6b3a7640000811115613ffd57613ff3613fec82670de0b6b3a7640000610f97565b8790612599565b9350505050612ab0565b60009350505050612ab0565b60008061401a84610fc7818861100b565b90506140336729a2241af62c00008211156101336113d8565b600061404a6130cc670de0b6b3a7640000896110a4565b9050600061406a61406383670de0b6b3a7640000610f97565b8a90611056565b9050600061407789613043565b905060006140858383611056565b905060006140938483610f97565b905061313b6131346140ad670de0b6b3a76400008b610f97565b84906110a4565b80356107f981614add565b600082601f8301126140cf578081fd5b813560206140e46140df83614ac0565b614a9d565b8281528181019085830183850287018401881015614100578586fd5b855b8581101561411e57813584529284019290840190600101614102565b5090979650505050505050565b600082601f83011261413b578081fd5b8151602061414b6140df83614ac0565b8281528181019085830183850287018401881015614167578586fd5b855b8581101561411e57815184529284019290840190600101614169565b600082601f830112614195578081fd5b81356001600160401b038111156141a857fe5b6141bb601f8201601f1916602001614a9d565b8181528460208386010111156141cf578283fd5b816020850160208301379081016020019190915292915050565b8035600281106107f957600080fd5b600060208284031215614209578081fd5b813561064581614add565b60008060408385031215614226578081fd5b823561423181614add565b9150602083013561424181614add565b809150509250929050565b600080600060608486031215614260578081fd5b833561426b81614add565b9250602084013561427b81614add565b929592945050506040919091013590565b600080600080600080600060e0888a0312156142a6578485fd5b87356142b181614add565b965060208801356142c181614add565b95506040880135945060608801359350608088013560ff811681146142e4578384fd5b9699959850939692959460a0840135945060c09093013592915050565b60008060408385031215614313578182fd5b823561431e81614add565b946020939093013593505050565b600080600060608486031215614340578081fd5b83516001600160401b0380821115614356578283fd5b818601915086601f830112614369578283fd5b815160206143796140df83614ac0565b82815281810190858301838502870184018c1015614395578788fd5b8796505b848710156143c05780516143ac81614add565b835260019690960195918301918301614399565b50918901519197509093505050808211156143d9578283fd5b506143e68682870161412b565b925050604084015190509250925092565b600060208284031215614408578081fd5b813561064581614af2565b600060208284031215614424578081fd5b815161064581614af2565b600080600080600080600060e0888a031215614449578081fd5b87359650602088013561445b81614add565b9550604088013561446b81614add565b945060608801356001600160401b0380821115614486578283fd5b6144928b838c016140bf565b955060808a0135945060a08a0135935060c08a01359150808211156144b5578283fd5b506144c28a828b01614185565b91505092959891949750929550565b6000602082840312156144e2578081fd5b81356001600160e01b031981168114610645578182fd5b60006020828403121561450a578081fd5b815161064581614add565b60008060408385031215614527578182fd5b823561453281614add565b915060208301356001600160401b0381111561454c578182fd5b61455885828601614185565b9150509250929050565b600060208284031215614573578081fd5b815161064581614b00565b600080600060608486031215614592578081fd5b835161459d81614b00565b60208501519093506001600160401b038111156145b8578182fd5b6143e68682870161412b565b600080604083850312156145d6578182fd5b82516145e181614b00565b6020939093015192949293505050565b600080600060608486031215614605578081fd5b835161461081614b00565b602085015160409095015190969495509392505050565b60008060408385031215614639578182fd5b825161464481614b00565b60208401519092506001600160401b0381111561465f578182fd5b6145588582860161412b565b60008060006060848603121561467f578081fd5b83356001600160401b0380821115614695578283fd5b81860191506101208083890312156146ab578384fd5b6146b481614a9d565b90506146bf836141e9565b81526146cd602084016140b4565b60208201526146de604084016140b4565b6040820152606083013560608201526080830135608082015260a083013560a082015261470d60c084016140b4565b60c082015261471e60e084016140b4565b60e08201526101008084013583811115614736578586fd5b6147428a828701614185565b9183019190915250976020870135975060409096013595945050505050565b600060208284031215614772578081fd5b5035919050565b60008060006060848603121561478d578081fd5b833592506020840135915060408401356001600160401b038111156147b0578182fd5b6147bc868287016140bf565b9150509250925092565b600080600080608085870312156147db578182fd5b84519350602085015192506040850151915060608501516147fb81614add565b939692955090935050565b6000815180845260208085019450808401835b8381101561483557815187529582019590820190600101614819565b509495945050505050565b60008151808452815b8181101561486557602081850181015186830182015201614849565b818111156148765782602083870101525b50601f01601f19169290920160200192915050565b9182526001600160e01b031916602082015260240190565b6000828483379101908152919050565b61190160f01b81526002810192909252602282015260420190565b6001600160a01b0391909116815260200190565b6000602082526106456020830184614806565b6000604082526149086040830185614806565b8281036020840152612ab08185614806565b901515815260200190565b92151583526020830191909152604082015260600190565b90815260200190565b9283526001600160a01b03918216602084015216604082015260600190565b9586526001600160a01b0394851660208701529290931660408501526060840152608083019190915260a082015260c00190565b9485526020850193909352604084019190915260608301526001600160a01b0316608082015260a00190565b600083825260406020830152611f556040830184614840565b9182526001600160a01b0316602082015260400190565b93845260ff9290921660208401526040830152606082015260800190565b6000602082526106456020830184614840565b600083825260406020830152611f556040830184614806565b600084825283602083015260606040830152612ab06060830184614806565b600085825284602083015260806040830152614a7d6080830185614806565b82810360608401526129b28185614806565b60ff91909116815260200190565b6040518181016001600160401b0381118282101715614ab857fe5b604052919050565b60006001600160401b03821115614ad357fe5b5060209081020190565b6001600160a01b038116811461059557600080fd5b801515811461059557600080fd5b6003811061059557600080fdfea264697066735822122037f9e812a1fddb94c73fdf91e38e3f45db1fa859adb0540e80f71887267b49fc64736f6c63430007060033",
  "linkReferences": {},
  "deployedLinkReferences": {}
}