{
  "_format": "hh-sol-artifact-1",
  "contractName": "MockWeightedPool2Tokens",
  "sourceName": "contracts/NoProtocolFeeLiquidityBootstrappingPoolFactory.sol",
  "abi": [
    {
      "inputs": [
        {
          "components": [
            {
              "internalType": "contract IVault",
              "name": "vault",
              "type": "address"
            },
            {
              "internalType": "string",
              "name": "name",
              "type": "string"
            },
            {
              "internalType": "string",
              "name": "symbol",
              "type": "string"
            },
            {
              "internalType": "contract IERC20",
              "name": "token0",
              "type": "address"
            },
            {
              "internalType": "contract IERC20",
              "name": "token1",
              "type": "address"
            },
            {
              "internalType": "uint256",
              "name": "normalizedWeight0",
              "type": "uint256"
            },
            {
              "internalType": "uint256",
              "name": "normalizedWeight1",
              "type": "uint256"
            },
            {
              "internalType": "uint256",
              "name": "swapFeePercentage",
              "type": "uint256"
            },
            {
              "internalType": "uint256",
              "name": "pauseWindowDuration",
              "type": "uint256"
            },
            {
              "internalType": "uint256",
              "name": "bufferPeriodDuration",
              "type": "uint256"
            },
            {
              "internalType": "bool",
              "name": "oracleEnabled",
              "type": "bool"
            },
            {
              "internalType": "address",
              "name": "owner",
              "type": "address"
            }
          ],
          "internalType": "struct WeightedPool2Tokens.NewPoolParams",
          "name": "params",
          "type": "tuple"
        }
      ],
      "stateMutability": "nonpayable",
      "type": "constructor"
    },
    {
      "anonymous": false,
      "inputs": [
        {
          "indexed": true,
          "internalType": "address",
          "name": "owner",
          "type": "address"
        },
        {
          "indexed": true,
          "internalType": "address",
          "name": "spender",
          "type": "address"
        },
        {
          "indexed": false,
          "internalType": "uint256",
          "name": "value",
          "type": "uint256"
        }
      ],
      "name": "Approval",
      "type": "event"
    },
    {
      "anonymous": false,
      "inputs": [
        {
          "indexed": false,
          "internalType": "bool",
          "name": "enabled",
          "type": "bool"
        }
      ],
      "name": "OracleEnabledChanged",
      "type": "event"
    },
    {
      "anonymous": false,
      "inputs": [
        {
          "indexed": false,
          "internalType": "bool",
          "name": "paused",
          "type": "bool"
        }
      ],
      "name": "PausedStateChanged",
      "type": "event"
    },
    {
      "anonymous": false,
      "inputs": [
        {
          "indexed": false,
          "internalType": "bool",
          "name": "newSample",
          "type": "bool"
        },
        {
          "indexed": false,
          "internalType": "uint256",
          "name": "sampleIndex",
          "type": "uint256"
        }
      ],
      "name": "PriceDataProcessed",
      "type": "event"
    },
    {
      "anonymous": false,
      "inputs": [
        {
          "indexed": false,
          "internalType": "uint256",
          "name": "swapFeePercentage",
          "type": "uint256"
        }
      ],
      "name": "SwapFeePercentageChanged",
      "type": "event"
    },
    {
      "anonymous": false,
      "inputs": [
        {
          "indexed": true,
          "internalType": "address",
          "name": "from",
          "type": "address"
        },
        {
          "indexed": true,
          "internalType": "address",
          "name": "to",
          "type": "address"
        },
        {
          "indexed": false,
          "internalType": "uint256",
          "name": "value",
          "type": "uint256"
        }
      ],
      "name": "Transfer",
      "type": "event"
    },
    {
      "inputs": [],
      "name": "DOMAIN_SEPARATOR",
      "outputs": [
        {
          "internalType": "bytes32",
          "name": "",
          "type": "bytes32"
        }
      ],
      "stateMutability": "view",
      "type": "function"
    },
    {
      "inputs": [
        {
          "internalType": "address",
          "name": "owner",
          "type": "address"
        },
        {
          "internalType": "address",
          "name": "spender",
          "type": "address"
        }
      ],
      "name": "allowance",
      "outputs": [
        {
          "internalType": "uint256",
          "name": "",
          "type": "uint256"
        }
      ],
      "stateMutability": "view",
      "type": "function"
    },
    {
      "inputs": [
        {
          "internalType": "address",
          "name": "spender",
          "type": "address"
        },
        {
          "internalType": "uint256",
          "name": "amount",
          "type": "uint256"
        }
      ],
      "name": "approve",
      "outputs": [
        {
          "internalType": "bool",
          "name": "",
          "type": "bool"
        }
      ],
      "stateMutability": "nonpayable",
      "type": "function"
    },
    {
      "inputs": [
        {
          "internalType": "address",
          "name": "account",
          "type": "address"
        }
      ],
      "name": "balanceOf",
      "outputs": [
        {
          "internalType": "uint256",
          "name": "",
          "type": "uint256"
        }
      ],
      "stateMutability": "view",
      "type": "function"
    },
    {
      "inputs": [
        {
          "internalType": "uint256",
          "name": "normalizedWeight",
          "type": "uint256"
        },
        {
          "internalType": "uint256",
          "name": "balance",
          "type": "uint256"
        },
        {
          "internalType": "int256",
          "name": "bptTotalSupplyLn",
          "type": "int256"
        }
      ],
      "name": "calcLogBPTPrice",
      "outputs": [
        {
          "internalType": "int256",
          "name": "",
          "type": "int256"
        }
      ],
      "stateMutability": "pure",
      "type": "function"
    },
    {
      "inputs": [
        {
          "internalType": "uint256",
          "name": "normalizedWeightA",
          "type": "uint256"
        },
        {
          "internalType": "uint256",
          "name": "balanceA",
          "type": "uint256"
        },
        {
          "internalType": "uint256",
          "name": "normalizedWeightB",
          "type": "uint256"
        },
        {
          "internalType": "uint256",
          "name": "balanceB",
          "type": "uint256"
        }
      ],
      "name": "calcLogSpotPrice",
      "outputs": [
        {
          "internalType": "int256",
          "name": "",
          "type": "int256"
        }
      ],
      "stateMutability": "pure",
      "type": "function"
    },
    {
      "inputs": [],
      "name": "decimals",
      "outputs": [
        {
          "internalType": "uint8",
          "name": "",
          "type": "uint8"
        }
      ],
      "stateMutability": "view",
      "type": "function"
    },
    {
      "inputs": [
        {
          "internalType": "bytes32",
          "name": "sample",
          "type": "bytes32"
        }
      ],
      "name": "decode",
      "outputs": [
        {
          "components": [
            {
              "internalType": "int256",
              "name": "logPairPrice",
              "type": "int256"
            },
            {
              "internalType": "int256",
              "name": "accLogPairPrice",
              "type": "int256"
            },
            {
              "internalType": "int256",
              "name": "logBptPrice",
              "type": "int256"
            },
            {
              "internalType": "int256",
              "name": "accLogBptPrice",
              "type": "int256"
            },
            {
              "internalType": "int256",
              "name": "logInvariant",
              "type": "int256"
            },
            {
              "internalType": "int256",
              "name": "accLogInvariant",
              "type": "int256"
            },
            {
              "internalType": "uint256",
              "name": "timestamp",
              "type": "uint256"
            }
          ],
          "internalType": "struct MockSamples.Sample",
          "name": "",
          "type": "tuple"
        }
      ],
      "stateMutability": "pure",
      "type": "function"
    },
    {
      "inputs": [
        {
          "internalType": "address",
          "name": "spender",
          "type": "address"
        },
        {
          "internalType": "uint256",
          "name": "amount",
          "type": "uint256"
        }
      ],
      "name": "decreaseAllowance",
      "outputs": [
        {
          "internalType": "bool",
          "name": "",
          "type": "bool"
        }
      ],
      "stateMutability": "nonpayable",
      "type": "function"
    },
    {
      "inputs": [],
      "name": "enableOracle",
      "outputs": [],
      "stateMutability": "nonpayable",
      "type": "function"
    },
    {
      "inputs": [
        {
          "components": [
            {
              "internalType": "int256",
              "name": "logPairPrice",
              "type": "int256"
            },
            {
              "internalType": "int256",
              "name": "accLogPairPrice",
              "type": "int256"
            },
            {
              "internalType": "int256",
              "name": "logBptPrice",
              "type": "int256"
            },
            {
              "internalType": "int256",
              "name": "accLogBptPrice",
              "type": "int256"
            },
            {
              "internalType": "int256",
              "name": "logInvariant",
              "type": "int256"
            },
            {
              "internalType": "int256",
              "name": "accLogInvariant",
              "type": "int256"
            },
            {
              "internalType": "uint256",
              "name": "timestamp",
              "type": "uint256"
            }
          ],
          "internalType": "struct MockSamples.Sample",
          "name": "sample",
          "type": "tuple"
        }
      ],
      "name": "encode",
      "outputs": [
        {
          "internalType": "bytes32",
          "name": "",
          "type": "bytes32"
        }
      ],
      "stateMutability": "pure",
      "type": "function"
    },
    {
      "inputs": [
        {
          "internalType": "uint256[]",
          "name": "dates",
          "type": "uint256[]"
        },
        {
          "internalType": "uint256",
          "name": "offset",
          "type": "uint256"
        }
      ],
      "name": "findNearestSamplesTimestamp",
      "outputs": [
        {
          "components": [
            {
              "internalType": "uint256",
              "name": "prev",
              "type": "uint256"
            },
            {
              "internalType": "uint256",
              "name": "next",
              "type": "uint256"
            }
          ],
          "internalType": "struct MockPoolPriceOracle.BinarySearchResult[]",
          "name": "results",
          "type": "tuple[]"
        }
      ],
      "stateMutability": "view",
      "type": "function"
    },
    {
      "inputs": [
        {
          "internalType": "int256",
          "name": "value",
          "type": "int256"
        }
      ],
      "name": "fromLowResLog",
      "outputs": [
        {
          "internalType": "uint256",
          "name": "",
          "type": "uint256"
        }
      ],
      "stateMutability": "pure",
      "type": "function"
    },
    {
      "inputs": [
        {
          "internalType": "bytes4",
          "name": "selector",
          "type": "bytes4"
        }
      ],
      "name": "getActionId",
      "outputs": [
        {
          "internalType": "bytes32",
          "name": "",
          "type": "bytes32"
        }
      ],
      "stateMutability": "view",
      "type": "function"
    },
    {
      "inputs": [],
      "name": "getAuthorizer",
      "outputs": [
        {
          "internalType": "contract IAuthorizer",
          "name": "",
          "type": "address"
        }
      ],
      "stateMutability": "view",
      "type": "function"
    },
    {
      "inputs": [],
      "name": "getInvariant",
      "outputs": [
        {
          "internalType": "uint256",
          "name": "",
          "type": "uint256"
        }
      ],
      "stateMutability": "view",
      "type": "function"
    },
    {
      "inputs": [],
      "name": "getLargestSafeQueryWindow",
      "outputs": [
        {
          "internalType": "uint256",
          "name": "",
          "type": "uint256"
        }
      ],
      "stateMutability": "pure",
      "type": "function"
    },
    {
      "inputs": [],
      "name": "getLastInvariant",
      "outputs": [
        {
          "internalType": "uint256",
          "name": "",
          "type": "uint256"
        }
      ],
      "stateMutability": "view",
      "type": "function"
    },
    {
      "inputs": [
        {
          "internalType": "enum IPriceOracle.Variable",
          "name": "variable",
          "type": "uint8"
        }
      ],
      "name": "getLatest",
      "outputs": [
        {
          "internalType": "uint256",
          "name": "",
          "type": "uint256"
        }
      ],
      "stateMutability": "view",
      "type": "function"
    },
    {
      "inputs": [],
      "name": "getMiscData",
      "outputs": [
        {
          "internalType": "int256",
          "name": "logInvariant",
          "type": "int256"
        },
        {
          "internalType": "int256",
          "name": "logTotalSupply",
          "type": "int256"
        },
        {
          "internalType": "uint256",
          "name": "oracleSampleCreationTimestamp",
          "type": "uint256"
        },
        {
          "internalType": "uint256",
          "name": "oracleIndex",
          "type": "uint256"
        },
        {
          "internalType": "bool",
          "name": "oracleEnabled",
          "type": "bool"
        },
        {
          "internalType": "uint256",
          "name": "swapFeePercentage",
          "type": "uint256"
        }
      ],
      "stateMutability": "view",
      "type": "function"
    },
    {
      "inputs": [],
      "name": "getNormalizedWeights",
      "outputs": [
        {
          "internalType": "uint256[]",
          "name": "",
          "type": "uint256[]"
        }
      ],
      "stateMutability": "view",
      "type": "function"
    },
    {
      "inputs": [],
      "name": "getOwner",
      "outputs": [
        {
          "internalType": "address",
          "name": "",
          "type": "address"
        }
      ],
      "stateMutability": "view",
      "type": "function"
    },
    {
      "inputs": [
        {
          "internalType": "enum IPriceOracle.Variable",
          "name": "variable",
          "type": "uint8"
        },
        {
          "internalType": "uint256",
          "name": "currentIndex",
          "type": "uint256"
        },
        {
          "internalType": "uint256",
          "name": "timestamp",
          "type": "uint256"
        }
      ],
      "name": "getPastAccumulator",
      "outputs": [
        {
          "internalType": "int256",
          "name": "",
          "type": "int256"
        }
      ],
      "stateMutability": "view",
      "type": "function"
    },
    {
      "inputs": [
        {
          "components": [
            {
              "internalType": "enum IPriceOracle.Variable",
              "name": "variable",
              "type": "uint8"
            },
            {
              "internalType": "uint256",
              "name": "ago",
              "type": "uint256"
            }
          ],
          "internalType": "struct IPriceOracle.OracleAccumulatorQuery[]",
          "name": "queries",
          "type": "tuple[]"
        }
      ],
      "name": "getPastAccumulators",
      "outputs": [
        {
          "internalType": "int256[]",
          "name": "results",
          "type": "int256[]"
        }
      ],
      "stateMutability": "view",
      "type": "function"
    },
    {
      "inputs": [],
      "name": "getPausedState",
      "outputs": [
        {
          "internalType": "bool",
          "name": "paused",
          "type": "bool"
        },
        {
          "internalType": "uint256",
          "name": "pauseWindowEndTime",
          "type": "uint256"
        },
        {
          "internalType": "uint256",
          "name": "bufferPeriodEndTime",
          "type": "uint256"
        }
      ],
      "stateMutability": "view",
      "type": "function"
    },
    {
      "inputs": [],
      "name": "getPoolId",
      "outputs": [
        {
          "internalType": "bytes32",
          "name": "",
          "type": "bytes32"
        }
      ],
      "stateMutability": "view",
      "type": "function"
    },
    {
      "inputs": [],
      "name": "getRate",
      "outputs": [
        {
          "internalType": "uint256",
          "name": "",
          "type": "uint256"
        }
      ],
      "stateMutability": "view",
      "type": "function"
    },
    {
      "inputs": [
        {
          "internalType": "uint256",
          "name": "index",
          "type": "uint256"
        }
      ],
      "name": "getSample",
      "outputs": [
        {
          "internalType": "int256",
          "name": "logPairPrice",
          "type": "int256"
        },
        {
          "internalType": "int256",
          "name": "accLogPairPrice",
          "type": "int256"
        },
        {
          "internalType": "int256",
          "name": "logBptPrice",
          "type": "int256"
        },
        {
          "internalType": "int256",
          "name": "accLogBptPrice",
          "type": "int256"
        },
        {
          "internalType": "int256",
          "name": "logInvariant",
          "type": "int256"
        },
        {
          "internalType": "int256",
          "name": "accLogInvariant",
          "type": "int256"
        },
        {
          "internalType": "uint256",
          "name": "timestamp",
          "type": "uint256"
        }
      ],
      "stateMutability": "view",
      "type": "function"
    },
    {
      "inputs": [],
      "name": "getSwapFeePercentage",
      "outputs": [
        {
          "internalType": "uint256",
          "name": "",
          "type": "uint256"
        }
      ],
      "stateMutability": "view",
      "type": "function"
    },
    {
      "inputs": [
        {
          "components": [
            {
              "internalType": "enum IPriceOracle.Variable",
              "name": "variable",
              "type": "uint8"
            },
            {
              "internalType": "uint256",
              "name": "secs",
              "type": "uint256"
            },
            {
              "internalType": "uint256",
              "name": "ago",
              "type": "uint256"
            }
          ],
          "internalType": "struct IPriceOracle.OracleAverageQuery[]",
          "name": "queries",
          "type": "tuple[]"
        }
      ],
      "name": "getTimeWeightedAverage",
      "outputs": [
        {
          "internalType": "uint256[]",
          "name": "results",
          "type": "uint256[]"
        }
      ],
      "stateMutability": "view",
      "type": "function"
    },
    {
      "inputs": [],
      "name": "getTotalSamples",
      "outputs": [
        {
          "internalType": "uint256",
          "name": "",
          "type": "uint256"
        }
      ],
      "stateMutability": "pure",
      "type": "function"
    },
    {
      "inputs": [],
      "name": "getVault",
      "outputs": [
        {
          "internalType": "contract IVault",
          "name": "",
          "type": "address"
        }
      ],
      "stateMutability": "view",
      "type": "function"
    },
    {
      "inputs": [
        {
          "internalType": "address",
          "name": "spender",
          "type": "address"
        },
        {
          "internalType": "uint256",
          "name": "addedValue",
          "type": "uint256"
        }
      ],
      "name": "increaseAllowance",
      "outputs": [
        {
          "internalType": "bool",
          "name": "",
          "type": "bool"
        }
      ],
      "stateMutability": "nonpayable",
      "type": "function"
    },
    {
      "inputs": [
        {
          "components": [
            {
              "internalType": "int256",
              "name": "logInvariant",
              "type": "int256"
            },
            {
              "internalType": "int256",
              "name": "logTotalSupply",
              "type": "int256"
            },
            {
              "internalType": "uint256",
              "name": "oracleSampleCreationTimestamp",
              "type": "uint256"
            },
            {
              "internalType": "uint256",
              "name": "oracleIndex",
              "type": "uint256"
            },
            {
              "internalType": "bool",
              "name": "oracleEnabled",
              "type": "bool"
            },
            {
              "internalType": "uint256",
              "name": "swapFeePercentage",
              "type": "uint256"
            }
          ],
          "internalType": "struct MockWeightedPool2Tokens.MiscData",
          "name": "miscData",
          "type": "tuple"
        }
      ],
      "name": "mockMiscData",
      "outputs": [],
      "stateMutability": "nonpayable",
      "type": "function"
    },
    {
      "inputs": [],
      "name": "mockOracleDisabled",
      "outputs": [],
      "stateMutability": "nonpayable",
      "type": "function"
    },
    {
      "inputs": [
        {
          "internalType": "uint256",
          "name": "index",
          "type": "uint256"
        }
      ],
      "name": "mockOracleIndex",
      "outputs": [],
      "stateMutability": "nonpayable",
      "type": "function"
    },
    {
      "inputs": [
        {
          "internalType": "uint256",
          "name": "index",
          "type": "uint256"
        },
        {
          "components": [
            {
              "internalType": "int256",
              "name": "logPairPrice",
              "type": "int256"
            },
            {
              "internalType": "int256",
              "name": "accLogPairPrice",
              "type": "int256"
            },
            {
              "internalType": "int256",
              "name": "logBptPrice",
              "type": "int256"
            },
            {
              "internalType": "int256",
              "name": "accLogBptPrice",
              "type": "int256"
            },
            {
              "internalType": "int256",
              "name": "logInvariant",
              "type": "int256"
            },
            {
              "internalType": "int256",
              "name": "accLogInvariant",
              "type": "int256"
            },
            {
              "internalType": "uint256",
              "name": "timestamp",
              "type": "uint256"
            }
          ],
          "internalType": "struct MockSamples.Sample",
          "name": "sample",
          "type": "tuple"
        }
      ],
      "name": "mockSample",
      "outputs": [],
      "stateMutability": "nonpayable",
      "type": "function"
    },
    {
      "inputs": [
        {
          "internalType": "uint256[]",
          "name": "indexes",
          "type": "uint256[]"
        },
        {
          "components": [
            {
              "internalType": "int256",
              "name": "logPairPrice",
              "type": "int256"
            },
            {
              "internalType": "int256",
              "name": "accLogPairPrice",
              "type": "int256"
            },
            {
              "internalType": "int256",
              "name": "logBptPrice",
              "type": "int256"
            },
            {
              "internalType": "int256",
              "name": "accLogBptPrice",
              "type": "int256"
            },
            {
              "internalType": "int256",
              "name": "logInvariant",
              "type": "int256"
            },
            {
              "internalType": "int256",
              "name": "accLogInvariant",
              "type": "int256"
            },
            {
              "internalType": "uint256",
              "name": "timestamp",
              "type": "uint256"
            }
          ],
          "internalType": "struct MockSamples.Sample[]",
          "name": "samples",
          "type": "tuple[]"
        }
      ],
      "name": "mockSamples",
      "outputs": [],
      "stateMutability": "nonpayable",
      "type": "function"
    },
    {
      "inputs": [],
      "name": "name",
      "outputs": [
        {
          "internalType": "string",
          "name": "",
          "type": "string"
        }
      ],
      "stateMutability": "view",
      "type": "function"
    },
    {
      "inputs": [
        {
          "internalType": "address",
          "name": "owner",
          "type": "address"
        }
      ],
      "name": "nonces",
      "outputs": [
        {
          "internalType": "uint256",
          "name": "",
          "type": "uint256"
        }
      ],
      "stateMutability": "view",
      "type": "function"
    },
    {
      "inputs": [
        {
          "internalType": "bytes32",
          "name": "poolId",
          "type": "bytes32"
        },
        {
          "internalType": "address",
          "name": "sender",
          "type": "address"
        },
        {
          "internalType": "address",
          "name": "recipient",
          "type": "address"
        },
        {
          "internalType": "uint256[]",
          "name": "balances",
          "type": "uint256[]"
        },
        {
          "internalType": "uint256",
          "name": "lastChangeBlock",
          "type": "uint256"
        },
        {
          "internalType": "uint256",
          "name": "protocolSwapFeePercentage",
          "type": "uint256"
        },
        {
          "internalType": "bytes",
          "name": "userData",
          "type": "bytes"
        }
      ],
      "name": "onExitPool",
      "outputs": [
        {
          "internalType": "uint256[]",
          "name": "",
          "type": "uint256[]"
        },
        {
          "internalType": "uint256[]",
          "name": "",
          "type": "uint256[]"
        }
      ],
      "stateMutability": "nonpayable",
      "type": "function"
    },
    {
      "inputs": [
        {
          "internalType": "bytes32",
          "name": "poolId",
          "type": "bytes32"
        },
        {
          "internalType": "address",
          "name": "sender",
          "type": "address"
        },
        {
          "internalType": "address",
          "name": "recipient",
          "type": "address"
        },
        {
          "internalType": "uint256[]",
          "name": "balances",
          "type": "uint256[]"
        },
        {
          "internalType": "uint256",
          "name": "lastChangeBlock",
          "type": "uint256"
        },
        {
          "internalType": "uint256",
          "name": "protocolSwapFeePercentage",
          "type": "uint256"
        },
        {
          "internalType": "bytes",
          "name": "userData",
          "type": "bytes"
        }
      ],
      "name": "onJoinPool",
      "outputs": [
        {
          "internalType": "uint256[]",
          "name": "amountsIn",
          "type": "uint256[]"
        },
        {
          "internalType": "uint256[]",
          "name": "dueProtocolFeeAmounts",
          "type": "uint256[]"
        }
      ],
      "stateMutability": "nonpayable",
      "type": "function"
    },
    {
      "inputs": [
        {
          "components": [
            {
              "internalType": "enum IVault.SwapKind",
              "name": "kind",
              "type": "uint8"
            },
            {
              "internalType": "contract IERC20",
              "name": "tokenIn",
              "type": "address"
            },
            {
              "internalType": "contract IERC20",
              "name": "tokenOut",
              "type": "address"
            },
            {
              "internalType": "uint256",
              "name": "amount",
              "type": "uint256"
            },
            {
              "internalType": "bytes32",
              "name": "poolId",
              "type": "bytes32"
            },
            {
              "internalType": "uint256",
              "name": "lastChangeBlock",
              "type": "uint256"
            },
            {
              "internalType": "address",
              "name": "from",
              "type": "address"
            },
            {
              "internalType": "address",
              "name": "to",
              "type": "address"
            },
            {
              "internalType": "bytes",
              "name": "userData",
              "type": "bytes"
            }
          ],
          "internalType": "struct IPoolSwapStructs.SwapRequest",
          "name": "request",
          "type": "tuple"
        },
        {
          "internalType": "uint256",
          "name": "balanceTokenIn",
          "type": "uint256"
        },
        {
          "internalType": "uint256",
          "name": "balanceTokenOut",
          "type": "uint256"
        }
      ],
      "name": "onSwap",
      "outputs": [
        {
          "internalType": "uint256",
          "name": "",
          "type": "uint256"
        }
      ],
      "stateMutability": "nonpayable",
      "type": "function"
    },
    {
      "inputs": [
        {
          "internalType": "address",
          "name": "owner",
          "type": "address"
        },
        {
          "internalType": "address",
          "name": "spender",
          "type": "address"
        },
        {
          "internalType": "uint256",
          "name": "value",
          "type": "uint256"
        },
        {
          "internalType": "uint256",
          "name": "deadline",
          "type": "uint256"
        },
        {
          "internalType": "uint8",
          "name": "v",
          "type": "uint8"
        },
        {
          "internalType": "bytes32",
          "name": "r",
          "type": "bytes32"
        },
        {
          "internalType": "bytes32",
          "name": "s",
          "type": "bytes32"
        }
      ],
      "name": "permit",
      "outputs": [],
      "stateMutability": "nonpayable",
      "type": "function"
    },
    {
      "inputs": [
        {
          "internalType": "uint256",
          "name": "elapsed",
          "type": "uint256"
        },
        {
          "internalType": "uint256",
          "name": "currentIndex",
          "type": "uint256"
        },
        {
          "internalType": "int256",
          "name": "logPairPrice",
          "type": "int256"
        },
        {
          "internalType": "int256",
          "name": "logBptPrice",
          "type": "int256"
        },
        {
          "internalType": "int256",
          "name": "logInvariant",
          "type": "int256"
        }
      ],
      "name": "processPriceData",
      "outputs": [],
      "stateMutability": "nonpayable",
      "type": "function"
    },
    {
      "inputs": [
        {
          "internalType": "bytes32",
          "name": "poolId",
          "type": "bytes32"
        },
        {
          "internalType": "address",
          "name": "sender",
          "type": "address"
        },
        {
          "internalType": "address",
          "name": "recipient",
          "type": "address"
        },
        {
          "internalType": "uint256[]",
          "name": "balances",
          "type": "uint256[]"
        },
        {
          "internalType": "uint256",
          "name": "lastChangeBlock",
          "type": "uint256"
        },
        {
          "internalType": "uint256",
          "name": "protocolSwapFeePercentage",
          "type": "uint256"
        },
        {
          "internalType": "bytes",
          "name": "userData",
          "type": "bytes"
        }
      ],
      "name": "queryExit",
      "outputs": [
        {
          "internalType": "uint256",
          "name": "bptIn",
          "type": "uint256"
        },
        {
          "internalType": "uint256[]",
          "name": "amountsOut",
          "type": "uint256[]"
        }
      ],
      "stateMutability": "nonpayable",
      "type": "function"
    },
    {
      "inputs": [
        {
          "internalType": "bytes32",
          "name": "poolId",
          "type": "bytes32"
        },
        {
          "internalType": "address",
          "name": "sender",
          "type": "address"
        },
        {
          "internalType": "address",
          "name": "recipient",
          "type": "address"
        },
        {
          "internalType": "uint256[]",
          "name": "balances",
          "type": "uint256[]"
        },
        {
          "internalType": "uint256",
          "name": "lastChangeBlock",
          "type": "uint256"
        },
        {
          "internalType": "uint256",
          "name": "protocolSwapFeePercentage",
          "type": "uint256"
        },
        {
          "internalType": "bytes",
          "name": "userData",
          "type": "bytes"
        }
      ],
      "name": "queryJoin",
      "outputs": [
        {
          "internalType": "uint256",
          "name": "bptOut",
          "type": "uint256"
        },
        {
          "internalType": "uint256[]",
          "name": "amountsIn",
          "type": "uint256[]"
        }
      ],
      "stateMutability": "nonpayable",
      "type": "function"
    },
    {
      "inputs": [
        {
          "internalType": "bool",
          "name": "paused",
          "type": "bool"
        }
      ],
      "name": "setPaused",
      "outputs": [],
      "stateMutability": "nonpayable",
      "type": "function"
    },
    {
      "inputs": [
        {
          "internalType": "uint256",
          "name": "swapFeePercentage",
          "type": "uint256"
        }
      ],
      "name": "setSwapFeePercentage",
      "outputs": [],
      "stateMutability": "nonpayable",
      "type": "function"
    },
    {
      "inputs": [],
      "name": "symbol",
      "outputs": [
        {
          "internalType": "string",
          "name": "",
          "type": "string"
        }
      ],
      "stateMutability": "view",
      "type": "function"
    },
    {
      "inputs": [
        {
          "internalType": "uint256",
          "name": "value",
          "type": "uint256"
        }
      ],
      "name": "toLowResLog",
      "outputs": [
        {
          "internalType": "int256",
          "name": "",
          "type": "int256"
        }
      ],
      "stateMutability": "pure",
      "type": "function"
    },
    {
      "inputs": [],
      "name": "totalSupply",
      "outputs": [
        {
          "internalType": "uint256",
          "name": "",
          "type": "uint256"
        }
      ],
      "stateMutability": "view",
      "type": "function"
    },
    {
      "inputs": [
        {
          "internalType": "address",
          "name": "recipient",
          "type": "address"
        },
        {
          "internalType": "uint256",
          "name": "amount",
          "type": "uint256"
        }
      ],
      "name": "transfer",
      "outputs": [
        {
          "internalType": "bool",
          "name": "",
          "type": "bool"
        }
      ],
      "stateMutability": "nonpayable",
      "type": "function"
    },
    {
      "inputs": [
        {
          "internalType": "address",
          "name": "sender",
          "type": "address"
        },
        {
          "internalType": "address",
          "name": "recipient",
          "type": "address"
        },
        {
          "internalType": "uint256",
          "name": "amount",
          "type": "uint256"
        }
      ],
      "name": "transferFrom",
      "outputs": [
        {
          "internalType": "bool",
          "name": "",
          "type": "bool"
        }
      ],
      "stateMutability": "nonpayable",
      "type": "function"
    },
    {
      "inputs": [
        {
          "internalType": "bytes32",
          "name": "sample",
          "type": "bytes32"
        },
        {
          "internalType": "int256",
          "name": "logPairPrice",
          "type": "int256"
        },
        {
          "internalType": "int256",
          "name": "logBptPrice",
          "type": "int256"
        },
        {
          "internalType": "int256",
          "name": "logInvariant",
          "type": "int256"
        },
        {
          "internalType": "uint256",
          "name": "timestamp",
          "type": "uint256"
        }
      ],
      "name": "update",
      "outputs": [
        {
          "components": [
            {
              "internalType": "int256",
              "name": "logPairPrice",
              "type": "int256"
            },
            {
              "internalType": "int256",
              "name": "accLogPairPrice",
              "type": "int256"
            },
            {
              "internalType": "int256",
              "name": "logBptPrice",
              "type": "int256"
            },
            {
              "internalType": "int256",
              "name": "accLogBptPrice",
              "type": "int256"
            },
            {
              "internalType": "int256",
              "name": "logInvariant",
              "type": "int256"
            },
            {
              "internalType": "int256",
              "name": "accLogInvariant",
              "type": "int256"
            },
            {
              "internalType": "uint256",
              "name": "timestamp",
              "type": "uint256"
            }
          ],
          "internalType": "struct MockSamples.Sample",
          "name": "",
          "type": "tuple"
        }
      ],
      "stateMutability": "pure",
      "type": "function"
    }
  ],
  "bytecode": "0x6102a06040527f6e71edae12b1b97f4d1f60370fef10105fa2faae0126114a169c64845d6126c9610120523480156200003757600080fd5b5060405162006144380380620061448339810160408190526200005a9162000830565b610100810151610120820151602080840151604080860151815180830190925260018252603160f81b828501526101608701513360805260601b6001600160601b03191660a05282518796959491928492839283918691620000c39160039190850190620006b9565b508051620000d9906004906020840190620006b9565b50506005805460ff1916601217905550815160209283012060c052805191012060e05250507f8b73c3c69bb8fe3d512ecc4cf759cc79239f7b179b0ffacaa9a75d522b39400f6101005250620001386276a70083111561019462000424565b6200014c62278d0082111561019562000424565b429091016101408181529101610160528101516200016a9062000439565b60e08101516200017a9062000495565b80516040516309b2760f60e01b81526000916001600160a01b0316906309b2760f90620001ad9060029060040162000a2f565b602060405180830381600087803b158015620001c857600080fd5b505af1158015620001dd573d6000803e3d6000fd5b505050506040513d601f19601f8201168201806040525081019062000203919062000817565b60408051600280825260608201835292935060009290916020830190803683370190505090508260600151816000815181106200023c57fe5b60200260200101906001600160a01b031690816001600160a01b0316815250508260800151816001815181106200026f57fe5b6001600160a01b0392831660209182029290920101528351166366a9c7d283836002604051908082528060200260200182016040528015620002bb578160200160208202803683370190505b506040518463ffffffff1660e01b8152600401620002dc9392919062000995565b600060405180830381600087803b158015620002f757600080fd5b505af11580156200030c573d6000803e3d6000fd5b505084516001600160601b0319606091821b8116610180526101a08690528187018051831b82166101c052608088015190921b166101e05251620003539250905062000513565b610260526080830151620003679062000513565b6102805260a08301516200038890662386f26fc10000111561012e62000424565b620003aa662386f26fc100008460c00151101561012e6200042460201b60201c565b6000620003ce8460c001518560a00151620005b760201b620016d51790919060201c565b9050620003e8670de0b6b3a7640000821461013462000424565b60a0840180516102005260c0850180516102205251905110156200040e57600162000411565b60005b60ff16610240525062000a719350505050565b8162000435576200043581620005d2565b5050565b62000455816009546200062560201b620016e71790919060201c565b6009556040517f3e350b41e86a8e10f804ade6d35340d620be35569cc75ac943e8bb14ab80ead1906200048a9083906200098a565b60405180910390a150565b620004aa64e8d4a5100082101560cb62000424565b620004c267016345785d8a000082111560ca62000424565b620004de816009546200064460201b620016f51790919060201c565b6009556040517fa9ba3ffe0b6c366b81232caab38605a0699ad5398d6cce76f91ee809e322dafc906200048a90839062000a44565b600080826001600160a01b031663313ce5676040518163ffffffff1660e01b815260040160206040518083038186803b1580156200055057600080fd5b505afa15801562000565573d6000803e3d6000fd5b505050506040513d601f19601f820116820180604052508101906200058b919062000967565b60ff1690506000620005aa6012836200066360201b620017031760201c565b600a0a925050505b919050565b6000828201620005cb848210158362000424565b9392505050565b62461bcd60e51b6000908152602060045260076024526642414c23000030600a808404818106603090810160081b95839006959095019082900491820690940160101b939093010160c81b604452606490fd5b6000620005cb826055856200067b60201b62001719179092919060201c565b6000620005cb82605685620006a460201b62001740179092919060201c565b60006200067583831115600162000424565b50900390565b60006001821b19841682846200069357600062000696565b60015b60ff16901b17949350505050565b6001600160401b03811b1992909216911b1790565b828054600181600116156101000203166002900490600052602060002090601f016020900481019282620006f157600085556200073c565b82601f106200070c57805160ff19168380011785556200073c565b828001600101855582156200073c579182015b828111156200073c5782518255916020019190600101906200071f565b506200074a9291506200074e565b5090565b5b808211156200074a57600081556001016200074f565b80516001600160a01b0381168114620005b257600080fd5b80518015158114620005b257600080fd5b600082601f8301126200079f578081fd5b81516001600160401b03811115620007b357fe5b6020620007c9601f8301601f1916820162000a4d565b8281528582848701011115620007dd578384fd5b835b83811015620007fc578581018301518282018401528201620007df565b838111156200080d57848385840101525b5095945050505050565b60006020828403121562000829578081fd5b5051919050565b60006020828403121562000842578081fd5b81516001600160401b038082111562000859578283fd5b818401915061018080838703121562000870578384fd5b6200087b8162000a4d565b9050620008888362000765565b81526020830151828111156200089c578485fd5b620008aa878286016200078e565b602083015250604083015182811115620008c2578485fd5b620008d0878286016200078e565b604083015250620008e46060840162000765565b6060820152620008f76080840162000765565b608082015260a0838101519082015260c0808401519082015260e08084015190820152610100808401519082015261012080840151908201526101409150620009428284016200077d565b8282015261016091506200095882840162000765565b91810191909152949350505050565b60006020828403121562000979578081fd5b815160ff81168114620005cb578182fd5b901515815260200190565b60006060820185835260206060818501528186518084526080860191508288019350845b81811015620009e05784516001600160a01b031683529383019391830191600101620009b9565b505084810360408601528551808252908201925081860190845b8181101562000a215782516001600160a01b031685529383019391830191600101620009fa565b509298975050505050505050565b602081016003831062000a3e57fe5b91905290565b90815260200190565b6040518181016001600160401b038111828210171562000a6957fe5b604052919050565b60805160a05160601c60c05160e051610100516101205161014051610160516101805160601c6101a0516101c05160601c6101e05160601c61020051610220516102405161026051610280516155fb62000b496000398061224f52508061227652508061307152806130a552806130e15250806122a3528061233f5250806122ca528061231d528061236d52505080610f12525080610a80525080610e605250806118ac525080611888525080611395525080611bbf525080611c01525080611be0525080610e3c525080610dc752506155fb6000f3fe608060405234801561001057600080fd5b506004361061035d5760003560e01c80637ecebe00116101d3578063be7a6d1e11610104578063d5125db6116100a2578063e5fe5f3c1161007c578063e5fe5f3c14610735578063f89f27ed14610748578063ff7b6f1e14610750578063ffd088eb146107635761035d565b8063d5125db6146106fc578063d5c096c41461070f578063dd62ed3e146107225761035d565b8063c3748ef1116100de578063c3748ef114610696578063c519a075146106b6578063d4376804146106c9578063d505accf146106e95761035d565b8063be7a6d1e14610668578063bf3386661461067b578063c0ff1a151461068e5761035d565b80639d2c110c11610171578063aaabadc51161014b578063aaabadc514610632578063abb9d0d51461063a578063b10be7391461064d578063b48b5b40146106605761035d565b80639d2c110c146105f9578063a457c2d71461060c578063a9059cbb1461061f5761035d565b8063893d20e8116101ad578063893d20e8146105cc5780638d928af8146105e157806395d89b41146105e95780639b02cdde146105f15761035d565b80637ecebe0014610593578063851c1bb3146105a657806387ec6817146105b95761035d565b806338e9922e116102ad5780636028bfd41161024b57806368a54df21161022557806368a54df21461052c5780636b8432391461053f57806370a082311461055f57806374f3b009146105725761035d565b80636028bfd4146104dd57806360d1507c146104fe578063679aefce146105245761035d565b80633d48f8c1116102875780633d48f8c1146104955780634a6b0b15146104a857806355c67628146104c257806357aad013146104ca5761035d565b806338e9922e1461046757806338fff2d01461047a57806339509351146104825761035d565b806323b872dd1161031a578063292c914a116102f4578063292c914a1461043a5780633081bfee14610442578063313ce5671461044a5780633644e5151461045f5761035d565b806323b872dd14610401578063259efd1614610414578063264959fb146104275761035d565b806306fdde0314610362578063095ea7b31461038057806316c38b3c146103a057806318160ddd146103b55780631c0de051146103ca5780631dccd830146103e1575b600080fd5b61036a61076b565b604051610377919061548d565b60405180910390f35b61039361038e36600461497d565b610801565b604051610377919061535a565b6103b36103ae366004614d17565b610818565b005b6103bd61082c565b604051610377919061538d565b6103d2610832565b60405161037793929190615375565b6103f46103ef366004614b43565b61085b565b6040516103779190615322565b61039361040f3660046148c8565b610963565b6103b3610422366004615175565b6109d9565b6103bd610435366004614fb6565b6109f8565b6103b3610a0f565b6103b3610a43565b610452610a4d565b6040516103779190615547565b6103bd610a56565b6103b3610475366004614d4f565b610a65565b6103bd610a7e565b61039361049036600461497d565b610aa2565b6103bd6104a3366004615064565b610add565b6104b0610b12565b60405161037796959493929190615463565b6103bd610b6d565b6103bd6104d8366004614d4f565b610b7a565b6104f06104eb366004614d67565b610b85565b60405161037792919061552e565b61051161050c366004614d4f565b610bb6565b6040516103779796959493929190615433565b6103bd610bff565b6103b361053a366004614d4f565b610c24565b61055261054d366004614a73565b610c37565b604051610377919061528f565b6103bd61056d366004614874565b610ce8565b610585610580366004614d67565b610d03565b604051610377929190615335565b6103bd6105a1366004614874565b610da8565b6103bd6105b4366004614e43565b610dc3565b6104f06105c7366004614d67565b610e15565b6105d4610e3a565b604051610377919061527b565b6105d4610e5e565b61036a610e82565b6103bd610ee3565b6103bd61060736600461507f565b610ee9565b61039361061a36600461497d565b611098565b61039361062d36600461497d565b6110d6565b6105d46110e3565b6103bd610648366004614d4f565b6110ed565b6103bd61065b366004614f9a565b6110f8565b6103bd61111a565b6103bd6106763660046151a2565b611120565b6103b3610689366004614fea565b61112d565b6103bd611136565b6106a96106a4366004614d4f565b6111f1565b60405161037791906154e0565b6103bd6106c43660046151cd565b611276565b6106dc6106d7366004614cd5565b61128d565b60405161037791906152d3565b6103b36106f7366004614908565b611360565b6103b361070a366004614e09565b6114a9565b61058561071d366004614d67565b611503565b6103bd610730366004614890565b611623565b6103b3610743366004614c11565b61164e565b6103f4611697565b6106a961075e366004614e09565b6116a1565b6103bd6116ce565b60038054604080516020601f60026000196101006001881615020190951694909404938401819004810282018101909252828152606093909290918301828280156107f75780601f106107cc576101008083540402835291602001916107f7565b820191906000526020600020905b8154815290600101906020018083116107da57829003601f168201915b5050505050905090565b600061080e338484611755565b5060015b92915050565b6108206117bd565b610829816117eb565b50565b60025490565b600080600061083f611869565b15925061084a611886565b91506108546118aa565b9050909192565b606081516001600160401b038111801561087457600080fd5b5060405190808252806020026020018201604052801561089e578160200160208202803683370190505b50905060006108ae6009546118ce565b90506108b8614624565b60005b845181101561095b578481815181106108d057fe5b602002602001015191506108ee82602001516000141561013c6118db565b600061090983600001518585602001518660400151016118ed565b9050600061092084600001518686604001516118ed565b905061093a84602001518383038161093457fe5b05611a33565b86848151811061094657fe5b602090810291909101015250506001016108bb565b505050919050565b6000806109708533611623565b9050610994336001600160a01b038716148061098c5750838210155b61019e6118db565b61099f858585611a46565b336001600160a01b038616148015906109ba57506000198114155b156109cc576109cc8533858403611755565b60019150505b9392505050565b6109e281610add565b6000928352600860205260409092209190915550565b6000610a0784848442036118ed565b949350505050565b610a17611b26565b610a1f6117bd565b610a296001611b39565b6000610a3361082c565b1115610a4157610a41611b79565b565b610a416000611b39565b60055460ff1690565b6000610a60611bbb565b905090565b610a6d6117bd565b610a75611b26565b61082981611c58565b7f000000000000000000000000000000000000000000000000000000000000000090565b3360008181526001602090815260408083206001600160a01b0387168452909152812054909161080e918590610ad890866116d5565b611755565b6000610b0a826000015183602001518460400151856060015186608001518760a001518860c00151611cc1565b90505b919050565b60008060008060008060006009549050610b2b81611d21565b9650610b3681611d2d565b9550610b4181611d3a565b9450610b4c816118ce565b9350610b5781611d47565b9250610b6281611d54565b915050909192939495565b6000610a60600954611d54565b6000610b0a82611d61565b60006060610b9586516002611da1565b610baa89898989898989611dae611e68611ee6565b97509795505050505050565b6000806000806000806000610bd1610400891061013b6118db565b6000610bdc89612004565b9050610be781612016565b959f949e50929c50909a509850965090945092505050565b6000610a60610c0c61082c565b610c1e610c17611136565b6002612079565b9061209d565b600954610c3190826120ee565b60095550565b606081516001600160401b0381118015610c5057600080fd5b50604051908082528060200260200182016040528015610c7a578160200160208202803683370190505b5090506000610c8a6009546118ce565b9050610c94614646565b60005b845181101561095b57848181518110610cac57fe5b60200260200101519150610cc982600001518484602001516118ed565b848281518110610cd557fe5b6020908102919091010152600101610c97565b6001600160a01b031660009081526020819052604090205490565b60608088610d2d610d12610e5e565b6001600160a01b0316336001600160a01b03161460cd6118db565b610d42610d38610a7e565b82146101f46118db565b610d4b876120fc565b6000806000610d5f8d8d8d8d8d8d8d611dae565b925092509250610d6f8c8461215e565b610d7882611e68565b610d8181611e68565b610d89611869565b15610d9657610d96611b79565b909c909b509950505050505050505050565b6001600160a01b031660009081526006602052604090205490565b60007f000000000000000000000000000000000000000000000000000000000000000082604051602001610df8929190615238565b604051602081830303815290604052805190602001209050919050565b60006060610e2586516002611da1565b610baa898989898989896121686121e8611ee6565b7f000000000000000000000000000000000000000000000000000000000000000090565b7f000000000000000000000000000000000000000000000000000000000000000090565b60048054604080516020601f60026000196101006001881615020190951694909404938401819004810282018101909252828152606093909290918301828280156107f75780601f106107cc576101008083540402835291602001916107f7565b600a5490565b6000610ef3611b26565b8360800151610f03610d12610e5e565b610f0e610d38610a7e565b60007f00000000000000000000000000000000000000000000000000000000000000006001600160a01b031686602001516001600160a01b03161490506000610f5682612246565b90506000610f648315612246565b90506000610f718461229a565b90506000610f7f851561229a565b9050610f8b89856122ee565b9850610f9788846122ee565b9750610fc08a60a0015186610fac5789610fae565b8a5b87610fb9578b610fbb565b8a5b6122fa565b60008a516001811115610fcf57fe5b141561103d576000610fed610fe2610b6d565b60608d015190612400565b905061100f611009828d6060015161170390919063ffffffff16565b866122ee565b60608c015260006110238c8c8c8787612444565b905061102f8186612461565b985050505050505050611090565b61104b8a60600151846122ee565b60608b0152600061105f8b8b8b868661246d565b905061106b8186612480565b905061108761108061107b610b6d565b61248c565b82906124b2565b97505050505050505b509392505050565b6000806110a53385611623565b90508083106110bf576110ba33856000611755565b6110cc565b6110cc3385858403611755565b5060019392505050565b600061080e338484611a46565b6000610a606124f4565b6000610b0a82611a33565b60008061110f8361110a6009546118ce565b61256e565b90506109d281611a33565b61040090565b6000610a0784848461259d565b610c31816125c4565b600080611141610e5e565b6001600160a01b031663f94d4668611157610a7e565b6040518263ffffffff1660e01b8152600401611173919061538d565b60006040518083038186803b15801561118b57600080fd5b505afa15801561119f573d6000803e3d6000fd5b505050506040513d6000823e601f3d908101601f191682016040526111c791908101906149a8565b509150506111d4816120fc565b60006111de612651565b90506111ea81836126c0565b9250505090565b6111f961465d565b6040805160e0810190915280611210846000612732565b815260200161122084600061277d565b8152602001611230846001612732565b815260200161124084600161277d565b8152602001611250846002612732565b815260200161126084600261277d565b815260200161126e846127c1565b905292915050565b6000611284858585856127cd565b95945050505050565b606082516001600160401b03811180156112a657600080fd5b506040519080825280602002602001820160405280156112e057816020015b6112cd61469a565b8152602001906001900390816112c55790505b50905060005b83518110156113595760008061130f86848151811061130157fe5b6020026020010151866127f8565b915091506040518060400160405280611327846127c1565b8152602001611335836127c1565b81525084848151811061134457fe5b602090810291909101015250506001016112e6565b5092915050565b61136e8442111560d16118db565b6001600160a01b03871660009081526006602090815260408083205490519092916113c5917f0000000000000000000000000000000000000000000000000000000000000000918c918c918c9188918d91016153b5565b60405160208183030381529060405280519060200120905060006113e8826128ab565b905060006001828888886040516000815260200160405260405161140f9493929190615415565b6020604051602081039080840390855afa158015611431573d6000803e3d6000fd5b5050604051601f190151915061147390506001600160a01b0382161580159061146b57508b6001600160a01b0316826001600160a01b0316145b6101f86118db565b6001600160a01b038b16600090815260066020526040902060018501905561149c8b8b8b611755565b5050505050505050505050565b4285900360006114bc82878787876128c7565b90507fa7f3e984c65d79d0fa58244dddb6522f661c9dea23fe4940801cbfe08810750686821415826040516114f2929190615365565b60405180910390a150505050505050565b60608088611512610d12610e5e565b61151d610d38610a7e565b611525611b26565b600061152f61082c565b61159f5761153f8b8b8b8861291e565b94509050611554620f424082101560cc6118db565b6115626000620f42406129a7565b61157189620f424083036129a7565b61157a846121e8565b604080516002808252606082018352909160208301908036833701905050925061160d565b6115a8886120fc565b6115db87896000815181106115b957fe5b60200260200101518a6001815181106115ce57fe5b60200260200101516122fa565b6115ea8b8b8b8b8b8b8b612168565b909550935090506115fb89826129a7565b611604846121e8565b61160d83611e68565b611615611b79565b505097509795505050505050565b6001600160a01b03918216600090815260016020908152604080832093909416825291909152205490565b60005b82518110156116925761168a83828151811061166957fe5b602002602001015183838151811061167d57fe5b60200260200101516109d9565b600101611651565b505050565b6060610a60612651565b6116a961465d565b60006116b887878787876129b1565b90506116c3816111f1565b979650505050505050565b6201de2090565b60008282016109d284821015836118db565b60006109d283836055611719565b60006109d283836056611740565b60006117138383111560016118db565b50900390565b60006001821b198416828461172f576000611732565b60015b60ff16901b17949350505050565b6001600160401b03811b1992909216911b1790565b6001600160a01b0380841660008181526001602090815260408083209487168084529490915290819020849055517f8c5be1e5ebec7d5bd14f71427d1e84f3dd0314c0f7b2291e5b200ac8c7c3b925906117b090859061538d565b60405180910390a3505050565b60006117d46000356001600160e01b031916610dc3565b90506108296117e38233612a11565b6101916118db565b801561180b576118066117fc611886565b42106101936118db565b611820565b6118206118166118aa565b42106101a96118db565b6007805460ff19168215151790556040517f9e3a5e37224532dea67b89face185703738a228a6e8a23dee546960180d3be649061185e90839061535a565b60405180910390a150565b60006118736118aa565b421180610a6057505060075460ff161590565b7f000000000000000000000000000000000000000000000000000000000000000090565b7f000000000000000000000000000000000000000000000000000000000000000090565b6000610b0a82604b612afa565b816118e9576118e981612b02565b5050565b60006118fe824210156101386118db565b42829003600061190d85612004565b9050600061191a826127c1565b905061192b600082116101396118db565b8281116119575780830380611940848a612732565b0261194b848a61277d565b019450505050506109d2565b600061196287612b55565b9050600061196f82612004565b9050600061197c826127c1565b905061198d600082116101396118db565b61199c8682111561013a6118db565b50506000806119ab86846127f8565b9150915060006119ba836127c1565b6119c3836127c1565b0390508015611a1b5760006119d8848d61277d565b6119e2848e61277d565b03905060006119f0856127c1565b8903905082818302816119ff57fe5b05611a0a868f61277d565b0199505050505050505050506109d2565b611a25838c61277d565b9750505050505050506109d2565b6000610b0a655af3107a40008302612b62565b611a5d6001600160a01b03841615156101986118db565b611a746001600160a01b03831615156101996118db565b611a7f838383611692565b6001600160a01b038316600090815260208190526040902054611aa590826101a0612f3f565b6001600160a01b038085166000908152602081905260408082209390935590841681522054611ad490826116d5565b6001600160a01b0380841660008181526020819052604090819020939093559151908516907fddf252ad1be2c89b69c2b068fc378daa952ba7f163c4a11628f55a4df523b3ef906117b090859061538d565b610a41611b31611869565b6101926118db565b600954611b4690826116e7565b6009556040517f3e350b41e86a8e10f804ade6d35340d620be35569cc75ac943e8bb14ab80ead19061185e90839061535a565b600954611b8581611d47565b1561082957611b9f611b98600a54611d61565b8290612f55565b9050610c31611bb4611baf61082c565b611d61565b8290612f62565b60007f00000000000000000000000000000000000000000000000000000000000000007f00000000000000000000000000000000000000000000000000000000000000007f0000000000000000000000000000000000000000000000000000000000000000611c28612f70565b30604051602001611c3d9594939291906153e9565b60405160208183030381529060405280519060200120905090565b611c6b64e8d4a5100082101560cb6118db565b611c8167016345785d8a000082111560ca6118db565b600954611c8e90826116f5565b6009556040517fa9ba3ffe0b6c366b81232caab38605a0699ad5398d6cce76f91ee809e322dafc9061185e90839061538d565b6000611ccd8282612f74565b611cd884601f612f78565b611ce3866054612f89565b611cee88606a612f78565b611cf98a609f612f89565b611d048c60b5612f78565b611d0f8e60ea612f89565b17171717171798975050505050505050565b6000610b0a8282612f96565b6000610b0a826016612f96565b6000610b0a82602c612fbd565b6000610b0a826055612fc7565b6000610b0a826056612fd1565b600080611d6d83612fde565b90506000808213611d8657652d79883d20008203611d90565b652d79883d200082015b655af3107a40009005949350505050565b6118e981831460676118db565b60006060806000611dbd612651565b9050611dc7611869565b15611e0f57611ddd87896000815181106115b957fe5b6000611de9828a6126c0565b9050611dfa8983600a54848b61303a565b9250611e09898461170361311f565b50611e30565b60408051600280825260608201835290916020830190803683370190505091505b611e3b8882876131b1565b9094509250611e4d888461170361311f565b611e5781896126c0565b600a55509750975097945050505050565b611e8f81600081518110611e7857fe5b6020026020010151611e8a6001612246565b61321e565b81600081518110611e9c57fe5b602002602001018181525050611eca81600181518110611eb857fe5b6020026020010151611e8a6000612246565b81600181518110611ed757fe5b60200260200101818152505050565b333014611fa4576000306001600160a01b0316600036604051611f0a929190615250565b6000604051808303816000865af19150503d8060008114611f47576040519150601f19603f3d011682016040523d82523d6000602084013e611f4c565b606091505b505090508060008114611f5b57fe5b60046000803e6000516001600160e01b0319166343adbafb60e01b8114611f86573d6000803e3d6000fd5b506020600460003e604060205260243d03602460403e601c3d016000f35b611fad866120fc565b600080611fc38b8b8b8b8b8b8b8b63ffffffff16565b5091509150611fd5818463ffffffff16565b8051601f1982018390526343adbafb603f1983015260200260231982016044820181fd5b505050505050505050565b60009081526008602052604090205490565b600080600080600080600061202a8861323e565b96506120358861324b565b955061204088613258565b945061204b88613265565b935061205688613272565b92506120618861327f565b915061206c886127c1565b9050919395979092949650565b60008282026109d284158061209657508385838161209357fe5b04145b60036118db565b60006120ac82151560046118db565b826120b957506000610812565b670de0b6b3a7640000838102906120dc908583816120d357fe5b041460056118db565b8281816120e557fe5b04915050610812565b60006109d28383604b61328c565b6121238160008151811061210c57fe5b602002602001015161211e6001612246565b612079565b8160008151811061213057fe5b602002602001018181525050611eca8160018151811061214c57fe5b602002602001015161211e6000612246565b6118e9828261329c565b60006060806000612177612651565b90506000612185828a6126c0565b905060006121988a84600a54858c61303a565b90506121a78a8261170361311f565b6000806121b58c868b613358565b915091506121c68c826116d561311f565b6121d0858d6126c0565b600a55909e909d50909b509950505050505050505050565b61220f816000815181106121f857fe5b602002602001015161220a6001612246565b6133b2565b8160008151811061221c57fe5b602002602001018181525050611eca8160018151811061223857fe5b602002602001015161220a60005b600081612273577f0000000000000000000000000000000000000000000000000000000000000000610b0a565b507f0000000000000000000000000000000000000000000000000000000000000000919050565b6000816122c7577f0000000000000000000000000000000000000000000000000000000000000000610b0a565b507f0000000000000000000000000000000000000000000000000000000000000000919050565b60006109d28383612079565b60095461230681611d47565b801561231157508343115b156123fa5760006123647f0000000000000000000000000000000000000000000000000000000000000000857f0000000000000000000000000000000000000000000000000000000000000000866127cd565b9050600061239b7f00000000000000000000000000000000000000000000000000000000000000008661239686611d2d565b61259d565b905060006123a8846118ce565b905060006123b585611d3a565b905060006123ce828487876123c98b611d21565b6128c7565b9050808314611ff9576123e186826120ee565b95506123ed86426133e5565b6009819055955050505050505b50505050565b600082820261241a84158061209657508385838161209357fe5b80612429576000915050610812565b670de0b6b3a764000060001982015b04600101915050610812565b6000612457858486858a606001516133f3565b9695505050505050565b60006109d2838361321e565b6000612457858486858a60600151613460565b60006109d283836133b2565b6000670de0b6b3a764000082106124a4576000610b0a565b50670de0b6b3a76400000390565b60006124c182151560046118db565b826124ce57506000610812565b670de0b6b3a7640000838102906124e8908583816120d357fe5b82600182038161243857fe5b60006124fe610e5e565b6001600160a01b031663aaabadc56040518163ffffffff1660e01b815260040160206040518083038186803b15801561253657600080fd5b505afa15801561254a573d6000803e3d6000fd5b505050506040513d601f19601f82011682018060405250810190610a609190614e6b565b60008061257a83612004565b9050612593600061258a836127c1565b116101396118db565b610a078185612732565b6000806125aa84866124b2565b905060006125b782611d61565b9390930395945050505050565b60006125dd8260a00151826116f590919063ffffffff16565b90506125f68260800151826116e790919063ffffffff16565b905061260f8260600151826120ee90919063ffffffff16565b90506126288260400151826133e590919063ffffffff16565b9050612641826020015182612f6290919063ffffffff16565b8251909150610b0a908290612f55565b60408051600280825260608083018452926000929190602083019080368337019050509050612680600161229a565b8160008151811061268d57fe5b6020026020010181815250506126a3600061229a565b816001815181106126b057fe5b6020908102919091010152905090565b670de0b6b3a764000060005b8351811015612722576127186127118583815181106126e757fe5b60200260200101518584815181106126fb57fe5b60200260200101516134d690919063ffffffff16565b8390613525565b91506001016126cc565b50610812600082116101376118db565b60008082600281111561274157fe5b1415612757576127508361323e565b9050610812565b600182600281111561276557fe5b14156127745761275083613258565b61275083613272565b60008082600281111561278c57fe5b141561279b576127508361324b565b60018260028111156127a957fe5b14156127b85761275083613265565b6127508361327f565b6000610b0a8282612fbd565b6000806127ed6127dd84866124b2565b6127e787896124b2565b906124b2565b905061245781611d61565b600080806103ff8180805b83851161286f5760028585010461281a818a613551565b935061282584612004565b9250612830836127c1565b91508982101561284557806001019550612869565b8982111561285857600181039450612869565b8283975097505050505050506128a4565b50612803565b88811061288d5761288761288284613562565b612004565b8261289a565b8161289a61288285612b55565b9650965050505050505b9250929050565b60006128b5611bbb565b82604051602001610df8929190615260565b6000806128e3858585426128da8b612004565b939291906129b1565b90506078428890031015806128f85786612901565b61290187612b55565b600081815260086020526040902092909255509695505050505050565b60006060600061292d8461356f565b9050612948600082600281111561294057fe5b1460ce6118db565b600061295385613585565b905061296181516002611da1565b61296a816120fc565b6000612974612651565b9050600061298282846126c0565b90506000612991826002612079565b600a929092555099919850909650505050505050565b6118e9828261359b565b6000806129bd876127c1565b8303905060008187026129cf8961324b565b01905060008287026129e08a613265565b01905060008387026129f18b61327f565b019050612a0389848a858b868c611cc1565b9a9950505050505050505050565b600073ba1ba1ba1ba1ba1ba1ba1ba1ba1ba1ba1ba1ba1b612a30610e3a565b6001600160a01b031614158015612a4b5750612a4b83613629565b15612a7357612a58610e3a565b6001600160a01b0316336001600160a01b0316149050610812565b612a7b6124f4565b6001600160a01b0316639be2a8848484306040518463ffffffff1660e01b8152600401612aaa93929190615396565b60206040518083038186803b158015612ac257600080fd5b505afa158015612ad6573d6000803e3d6000fd5b505050506040513d601f19601f820116820180604052508101906127509190614d33565b1c6103ff1690565b62461bcd60e51b6000908152602060045260076024526642414c23000030600a808404818106603090810160081b95839006959095019082900491820690940160101b939093010160c81b604452606490fd5b6000610b0a826001613551565b6000612b91680238fd42c5cf03ffff198312158015612b8a575068070c1cc73b00c800008313155b60096118db565b6000821215612bc457612ba682600003612b62565b6a0c097ce7bc90715b34b9f160241b81612bbc57fe5b059050610b0d565b60006806f05b59d3b20000008312612c0457506806f05b59d3b1ffffff1990910190770195e54c5dd42177f53a27172fa9ec630262827000000000612c3a565b6803782dace9d90000008312612c3657506803782dace9d8ffffff19909101906b1425982cf597cd205cef7380612c3a565b5060015b6064929092029168056bc75e2d6310000068ad78ebc5ac620000008412612c8a5768ad78ebc5ac61ffffff199093019268056bc75e2d631000006e01855144814a7ff805980ff008400082020590505b6856bc75e2d6310000008412612cc6576856bc75e2d630ffffff199093019268056bc75e2d631000006b02df0ab5a80a22c61ab5a70082020590505b682b5e3af16b188000008412612d0057682b5e3af16b187fffff199093019268056bc75e2d63100000693f1fce3da636ea5cf85082020590505b6815af1d78b58c4000008412612d3a576815af1d78b58c3fffff199093019268056bc75e2d63100000690127fa27722cc06cc5e282020590505b680ad78ebc5ac62000008412612d7357680ad78ebc5ac61fffff199093019268056bc75e2d6310000068280e60114edb805d0382020590505b68056bc75e2d631000008412612dac5768056bc75e2d630fffff199093019268056bc75e2d63100000680ebc5fb4174612111082020590505b6802b5e3af16b18800008412612de5576802b5e3af16b187ffff199093019268056bc75e2d631000006808f00f760a4b2db55d82020590505b68015af1d78b58c400008412612e1e5768015af1d78b58c3ffff199093019268056bc75e2d631000006806f5f177578893793782020590505b68056bc75e2d631000008481019085906002908280020505918201919050600368056bc75e2d631000008783020505918201919050600468056bc75e2d631000008783020505918201919050600568056bc75e2d631000008783020505918201919050600668056bc75e2d631000008783020505918201919050600768056bc75e2d631000008783020505918201919050600868056bc75e2d631000008783020505918201919050600968056bc75e2d631000008783020505918201919050600a68056bc75e2d631000008783020505918201919050600b68056bc75e2d631000008783020505918201919050600c68056bc75e2d631000008783020505918201919050606468056bc75e2d63100000848402058502059695505050505050565b6000612f4e84841115836118db565b5050900390565b60006109d283838361365b565b60006109d28383601661365b565b4690565b1b90565b661fffffffffffff91909116901b90565b623fffff91909116901b90565b600082821c623fffff16621fffff8113612fb05780610a07565b623fffff19179392505050565b1c637fffffff1690565b1c60019081161490565b1c6001600160401b031690565b6000612fee6000831360646118db565b670c7d713b49da00008213801561300c5750670f43fc2c04ee000082125b1561302a57670de0b6b3a764000061302383613672565b81612bbc57fe5b61303382613790565b9050610b0d565b604080516002808252606080830184529260009291906020830190803683370190505090508261306b579050611284565b6130de877f00000000000000000000000000000000000000000000000000000000000000008151811061309a57fe5b6020026020010151877f0000000000000000000000000000000000000000000000000000000000000000815181106130ce57fe5b6020026020010151878787613b2f565b817f00000000000000000000000000000000000000000000000000000000000000008151811061310a57fe5b60209081029190910101529695505050505050565b6131558360008151811061312f57fe5b60200260200101518360008151811061314457fe5b60200260200101518363ffffffff16565b8360008151811061316257fe5b6020026020010181815250506131938360018151811061317e57fe5b60200260200101518360018151811061314457fe5b836001815181106131a057fe5b602002602001018181525050505050565b6000606060006131c08461356f565b905060008160028111156131d057fe5b14156131eb576131e1868686613ba7565b9250925050613216565b60018160028111156131f957fe5b1415613209576131e18685613c58565b6131e1868686613c8a565b505b935093915050565b600061322d82151560046118db565b81838161323657fe5b049392505050565b6000610b0a8260ea612f96565b6000610b0a8260b5613cf5565b6000610b0a82609f612f96565b6000610b0a82606a613cf5565b6000610b0a826054612f96565b6000610b0a82601f613cf5565b6103ff811b1992909216911b1790565b6132b36001600160a01b038316151561019b6118db565b6132bf82600083611692565b6001600160a01b0382166000908152602081905260409020546132e590826101a1612f3f565b6001600160a01b03831660009081526020819052604090205560025461330b9082613d28565b6002556040516000906001600160a01b038416907fddf252ad1be2c89b69c2b068fc378daa952ba7f163c4a11628f55a4df523b3ef9061334c90859061538d565b60405180910390a35050565b6000606060006133678461356f565b9050600181600281111561337757fe5b1415613388576131e1868686613d36565b600281600281111561339657fe5b14156133a7576131e1868686613d8c565b613214610136612b02565b60006133c182151560046118db565b826133ce57506000610812565b8160018403816133da57fe5b046001019050610812565b60006109d28383602c613e10565b600061341561340a87670429d069189e0000613525565b8311156101306118db565b600061342187846116d5565b9050600061342f88836124b2565b9050600061343d888761209d565b9050600061344b8383613e22565b9050612a036134598261248c565b8990613525565b600061348261347785670429d069189e0000613525565b8311156101316118db565b60006134986134918685611703565b86906124b2565b905060006134a685886124b2565b905060006134b48383613e22565b905060006134ca82670de0b6b3a7640000611703565b9050612a038a82612400565b6000806134e38484613e4e565b905060006134fd6134f683612710612400565b60016116d5565b90508082101561351257600092505050610812565b61351c8282611703565b92505050610812565b600082820261353f84158061209657508385838161209357fe5b670de0b6b3a764000090049392505050565b60006104008383015b069392505050565b6000610b0a826001613f4f565b600081806020019051810190610b0a9190614e87565b6060818060200190518101906109d29190614f4c565b6135a760008383611692565b6002546135b490826116d5565b6002556001600160a01b0382166000908152602081905260409020546135da90826116d5565b6001600160a01b0383166000818152602081905260408082209390935591519091907fddf252ad1be2c89b69c2b068fc378daa952ba7f163c4a11628f55a4df523b3ef9061334c90859061538d565b600061363b631c74c91760e11b610dc3565b821480610b0a57506136536350dd6ed960e01b610dc3565b909114919050565b623fffff828116821b90821b198416179392505050565b670de0b6b3a7640000026000806a0c097ce7bc90715b34b9f160241b808401906ec097ce7bc90715b34b9f0fffffffff19850102816136ad57fe5b05905060006a0c097ce7bc90715b34b9f160241b82800205905081806a0c097ce7bc90715b34b9f160241b81840205915060038205016a0c097ce7bc90715b34b9f160241b82840205915060058205016a0c097ce7bc90715b34b9f160241b82840205915060078205016a0c097ce7bc90715b34b9f160241b82840205915060098205016a0c097ce7bc90715b34b9f160241b828402059150600b8205016a0c097ce7bc90715b34b9f160241b828402059150600d8205016a0c097ce7bc90715b34b9f160241b828402059150600f826002919005919091010295945050505050565b6000670de0b6b3a76400008212156137cc576137c2826a0c097ce7bc90715b34b9f160241b816137bc57fe5b05613790565b6000039050610b0d565b60007e1600ef3172e58d2e933ec884fde10064c63b5372d805e203c0000000000000831261381d57770195e54c5dd42177f53a27172fa9ec630262827000000000830592506806f05b59d3b2000000015b73011798004d755d3c8bc8e03204cf44619e0000008312613855576b1425982cf597cd205cef7380830592506803782dace9d9000000015b606492830292026e01855144814a7ff805980ff0084000831261389d576e01855144814a7ff805980ff008400068056bc75e2d63100000840205925068ad78ebc5ac62000000015b6b02df0ab5a80a22c61ab5a70083126138d8576b02df0ab5a80a22c61ab5a70068056bc75e2d6310000084020592506856bc75e2d631000000015b693f1fce3da636ea5cf850831261390f57693f1fce3da636ea5cf85068056bc75e2d631000008402059250682b5e3af16b18800000015b690127fa27722cc06cc5e2831261394657690127fa27722cc06cc5e268056bc75e2d6310000084020592506815af1d78b58c400000015b68280e60114edb805d03831261397b5768280e60114edb805d0368056bc75e2d631000008402059250680ad78ebc5ac6200000015b680ebc5fb4174612111083126139a657680ebc5fb4174612111068056bc75e2d631000009384020592015b6808f00f760a4b2db55d83126139db576808f00f760a4b2db55d68056bc75e2d6310000084020592506802b5e3af16b1880000015b6806f5f17757889379378312613a10576806f5f177578893793768056bc75e2d63100000840205925068015af1d78b58c40000015b6806248f33704b2866038312613a44576806248f33704b28660368056bc75e2d63100000840205925067ad78ebc5ac620000015b6805c548670b9510e7ac8312613a78576805c548670b9510e7ac68056bc75e2d6310000084020592506756bc75e2d6310000015b600068056bc75e2d63100000840168056bc75e2d631000008086030281613a9b57fe5b059050600068056bc75e2d63100000828002059050818068056bc75e2d63100000818402059150600382050168056bc75e2d63100000828402059150600582050168056bc75e2d63100000828402059150600782050168056bc75e2d63100000828402059150600982050168056bc75e2d63100000828402059150600b820501600202606485820105979650505050505050565b6000838311613b4057506000611284565b6000613b4c85856124b2565b90506000613b62670de0b6b3a76400008861209d565b9050613b76826709b6e64a8ec60000613f5e565b91506000613b848383613e22565b90506000613b9b613b948361248c565b8b90613525565b9050612a038187613525565b60006060613bb3611b26565b600080613bbf85613f75565b91509150613bd16002821060646118db565b604080516002808252606082018352600092602083019080368337019050509050613c33888381518110613c0157fe5b6020026020010151888481518110613c1557fe5b602002602001015185613c2661082c565b613c2e610b6d565b613f97565b818381518110613c3f57fe5b6020908102919091010152919791965090945050505050565b600060606000613c6784614057565b90506000613c7d8683613c7861082c565b61406d565b9196919550909350505050565b60006060613c96611b26565b600080613ca28561411e565b91509150613cb282516002611da1565b613cbb826120fc565b6000613cd8888885613ccb61082c565b613cd3610b6d565b614136565b9050613ce88282111560cf6118db565b9791965090945050505050565b600082821c661fffffffffffff16660fffffffffffff8113613d175780610a07565b661fffffffffffff19179392505050565b60006109d283836001612f3f565b60006060600080613d468561411e565b91509150613d5682516002611da1565b613d5f826120fc565b6000613d7c888885613d6f61082c565b613d77610b6d565b614369565b9050613ce88282101560d06118db565b60006060600080613d9c85613f75565b91509150613dae6002821060646118db565b604080516002808252606082018352600092602083019080368337019050509050613c33888381518110613dde57fe5b6020026020010151888481518110613df257fe5b602002602001015185613e0361082c565b613e0b610b6d565b614579565b637fffffff811b1992909216911b1790565b600080613e2f8484613e4e565b90506000613e426134f683612710612400565b905061128482826116d5565b600081613e645750670de0b6b3a7640000610812565b82613e7157506000610812565b613e82600160ff1b841060066118db565b82613ea8770bce5086492111aea88f4bb1ca6bcf584181ea8059f76532841060076118db565b826000670c7d713b49da000083138015613ec95750670f43fc2c04ee000083125b15613f00576000613ed984613672565b9050670de0b6b3a764000080820784020583670de0b6b3a764000083050201915050613f0e565b81613f0a84613790565b0290505b670de0b6b3a76400009005613f46680238fd42c5cf03ffff198212801590613f3f575068070c1cc73b00c800008213155b60086118db565b61245781612b62565b6000610400828403810161355a565b600081831015613f6e57816109d2565b5090919050565b60008082806020019051810190613f8c9190614f16565b909590945092505050565b600080613fa8846127e78188611703565b9050613fc16709b6e64a8ec600008210156101326118db565b6000613fdf613fd8670de0b6b3a76400008961209d565b8390613e22565b90506000613ff6613fef8361248c565b8a90613525565b905060006140038961248c565b905060006140118383612400565b9050600061401f8483611703565b9050614047614040614039670de0b6b3a76400008b611703565b8490613525565b82906116d5565b9c9b505050505050505050505050565b6000818060200190518101906109d29190614ee9565b6060600061407b848461209d565b9050600085516001600160401b038111801561409657600080fd5b506040519080825280602002602001820160405280156140c0578160200160208202803683370190505b50905060005b8651811015614114576140f5838883815181106140df57fe5b602002602001015161352590919063ffffffff16565b82828151811061410157fe5b60209081029190910101526001016140c6565b5095945050505050565b6060600082806020019051810190613f8c9190614ea3565b60008084516001600160401b038111801561415057600080fd5b5060405190808252806020026020018201604052801561417a578160200160208202803683370190505b5090506000805b885181101561423f576141da89828151811061419957fe5b60200260200101516127e78984815181106141b057fe5b60200260200101518c85815181106141c457fe5b602002602001015161170390919063ffffffff16565b8382815181106141e657fe5b60200260200101818152505061423561422e89838151811061420457fe5b602002602001015185848151811061421857fe5b602002602001015161240090919063ffffffff16565b83906116d5565b9150600101614181565b50670de0b6b3a764000060005b895181101561434857600084828151811061426357fe5b60200260200101518411156142ca57600061428c6142808661248c565b8d85815181106140df57fe5b905060006142a0828c86815181106141c457fe5b90506142c161422e6142ba670de0b6b3a76400008c611703565b83906124b2565b925050506142e1565b8882815181106142d657fe5b602002602001015190505b600061430a8c84815181106142f257fe5b6020026020010151610c1e848f87815181106141c457fe5b905061433c6143358c858151811061431e57fe5b6020026020010151836134d690919063ffffffff16565b8590613525565b9350505060010161424c565b5061435c6143558261248c565b8790612400565b9998505050505050505050565b60008084516001600160401b038111801561438357600080fd5b506040519080825280602002602001820160405280156143ad578160200160208202803683370190505b5090506000805b88518110156144555761440d8982815181106143cc57fe5b6020026020010151610c1e8984815181106143e357fe5b60200260200101518c85815181106143f757fe5b60200260200101516116d590919063ffffffff16565b83828151811061441957fe5b60200260200101818152505061444b61422e89838151811061443757fe5b60200260200101518584815181106140df57fe5b91506001016143b4565b50670de0b6b3a764000060005b89518110156145365760008385838151811061447a57fe5b602002602001015111156144d657600061449f61428086670de0b6b3a7640000611703565b905060006144b3828c86815181106141c457fe5b90506144cd61422e612711670de0b6b3a76400008c611703565b925050506144ed565b8882815181106144e257fe5b602002602001015190505b60006145168c84815181106144fe57fe5b6020026020010151610c1e848f87815181106143f757fe5b905061452a6143358c858151811061431e57fe5b93505050600101614462565b50670de0b6b3a764000081111561456d5761456361455c82670de0b6b3a7640000611703565b8790613525565b9350505050611284565b60009350505050611284565b60008061458a846127e781886116d5565b90506145a36729a2241af62c00008211156101336118db565b60006145ba613fd8670de0b6b3a7640000896124b2565b905060006145da6145d383670de0b6b3a7640000611703565b8a90612400565b905060006145e78961248c565b905060006145f58383612400565b905060006146038483611703565b905061404761404061461d670de0b6b3a76400008b611703565b84906124b2565b6040805160608101909152806000815260200160008152602001600081525090565b604080518082019091526000808252602082015290565b6040518060e00160405280600081526020016000815260200160008152602001600081526020016000815260200160008152602001600081525090565b604051806040016040528060008152602001600081525090565b8035610b0d81615595565b600082601f8301126146cf578081fd5b813560206146e46146df83615578565b615555565b8281528181019085830183850287018401881015614700578586fd5b855b8581101561471e57813584529284019290840190600101614702565b5090979650505050505050565b600082601f83011261473b578081fd5b8151602061474b6146df83615578565b8281528181019085830183850287018401881015614767578586fd5b855b8581101561471e57815184529284019290840190600101614769565b600082601f830112614795578081fd5b81356001600160401b038111156147a857fe5b6147bb601f8201601f1916602001615555565b8181528460208386010111156147cf578283fd5b816020850160208301379081016020019190915292915050565b803560028110610b0d57600080fd5b600060e08284031215614809578081fd5b60405160e081018181106001600160401b038211171561482557fe5b8060405250809150823581526020830135602082015260408301356040820152606083013560608201526080830135608082015260a083013560a082015260c083013560c08201525092915050565b600060208284031215614885578081fd5b81356109d281615595565b600080604083850312156148a2578081fd5b82356148ad81615595565b915060208301356148bd81615595565b809150509250929050565b6000806000606084860312156148dc578081fd5b83356148e781615595565b925060208401356148f781615595565b929592945050506040919091013590565b600080600080600080600060e0888a031215614922578485fd5b873561492d81615595565b9650602088013561493d81615595565b95506040880135945060608801359350608088013560ff81168114614960578384fd5b9699959850939692959460a0840135945060c09093013592915050565b6000806040838503121561498f578182fd5b823561499a81615595565b946020939093013593505050565b6000806000606084860312156149bc578081fd5b83516001600160401b03808211156149d2578283fd5b818601915086601f8301126149e5578283fd5b815160206149f56146df83615578565b82815281810190858301838502870184018c1015614a11578788fd5b8796505b84871015614a3c578051614a2881615595565b835260019690960195918301918301614a15565b5091890151919750909350505080821115614a55578283fd5b50614a628682870161472b565b925050604084015190509250925092565b60006020808385031215614a85578182fd5b82356001600160401b0380821115614a9b578384fd5b818501915085601f830112614aae578384fd5b8135614abc6146df82615578565b818152848101908486016040808502870188018b1015614ada578889fd5b8896505b84871015614b345780828c031215614af4578889fd5b80518181018181108882111715614b0757fe5b82528235614b14816155b8565b815282890135898201528452600196909601959287019290810190614ade565b50909998505050505050505050565b60006020808385031215614b55578182fd5b82356001600160401b0380821115614b6b578384fd5b818501915085601f830112614b7e578384fd5b8135614b8c6146df82615578565b818152848101908486016060808502870188018b1015614baa578889fd5b8896505b84871015614b345780828c031215614bc4578889fd5b604080518281018181108982111715614bd957fe5b82528335614be6816155b8565b8152838a01358a82015281840135918101919091528452600196909601959287019290810190614bae565b60008060408385031215614c23578182fd5b82356001600160401b0380821115614c39578384fd5b614c45868387016146bf565b9350602091508185013581811115614c5b578384fd5b85019050601f81018613614c6d578283fd5b8035614c7b6146df82615578565b8181528381019083850160e0808502860187018b1015614c99578788fd5b8795505b84861015614cc557614caf8b836147f8565b8452600195909501949286019290810190614c9d565b5096999098509650505050505050565b60008060408385031215614ce7578182fd5b82356001600160401b03811115614cfc578283fd5b614d08858286016146bf565b95602094909401359450505050565b600060208284031215614d28578081fd5b81356109d2816155aa565b600060208284031215614d44578081fd5b81516109d2816155aa565b600060208284031215614d60578081fd5b5035919050565b600080600080600080600060e0888a031215614d81578081fd5b873596506020880135614d9381615595565b95506040880135614da381615595565b945060608801356001600160401b0380821115614dbe578283fd5b614dca8b838c016146bf565b955060808a0135945060a08a0135935060c08a0135915080821115614ded578283fd5b50614dfa8a828b01614785565b91505092959891949750929550565b600080600080600060a08688031215614e20578283fd5b505083359560208501359550604085013594606081013594506080013592509050565b600060208284031215614e54578081fd5b81356001600160e01b0319811681146109d2578182fd5b600060208284031215614e7c578081fd5b81516109d281615595565b600060208284031215614e98578081fd5b81516109d2816155b8565b600080600060608486031215614eb7578081fd5b8351614ec2816155b8565b60208501519093506001600160401b03811115614edd578182fd5b614a628682870161472b565b60008060408385031215614efb578182fd5b8251614f06816155b8565b6020939093015192949293505050565b600080600060608486031215614f2a578081fd5b8351614f35816155b8565b602085015160409095015190969495509392505050565b60008060408385031215614f5e578182fd5b8251614f69816155b8565b60208401519092506001600160401b03811115614f84578182fd5b614f908582860161472b565b9150509250929050565b600060208284031215614fab578081fd5b81356109d2816155b8565b600080600060608486031215614fca578081fd5b8335614fd5816155b8565b95602085013595506040909401359392505050565b600060c08284031215614ffb578081fd5b60405160c081018181106001600160401b038211171561501757fe5b806040525082358152602083013560208201526040830135604082015260608301356060820152608083013561504c816155aa565b608082015260a0928301359281019290925250919050565b600060e08284031215615075578081fd5b6109d283836147f8565b600080600060608486031215615093578081fd5b83356001600160401b03808211156150a9578283fd5b81860191506101208083890312156150bf578384fd5b6150c881615555565b90506150d3836147e9565b81526150e1602084016146b4565b60208201526150f2604084016146b4565b6040820152606083013560608201526080830135608082015260a083013560a082015261512160c084016146b4565b60c082015261513260e084016146b4565b60e0820152610100808401358381111561514a578586fd5b6151568a828701614785565b9183019190915250976020870135975060409096013595945050505050565b6000806101008385031215615188578182fd5b8235915061519984602085016147f8565b90509250929050565b6000806000606084860312156151b6578081fd5b505081359360208301359350604090920135919050565b600080600080608085870312156151e2578182fd5b5050823594602084013594506040840135936060013592509050565b6000815180845260208085019450808401835b8381101561522d57815187529582019590820190600101615211565b509495945050505050565b9182526001600160e01b031916602082015260240190565b6000828483379101908152919050565b61190160f01b81526002810192909252602282015260420190565b6001600160a01b0391909116815260200190565b6020808252825182820181905260009190848201906040850190845b818110156152c7578351835292840192918401916001016152ab565b50909695505050505050565b602080825282518282018190526000919060409081850190868401855b82811015615315578151805185528601518685015292840192908501906001016152f0565b5091979650505050505050565b6000602082526109d260208301846151fe565b60006040825261534860408301856151fe565b828103602084015261128481856151fe565b901515815260200190565b9115158252602082015260400190565b92151583526020830191909152604082015260600190565b90815260200190565b9283526001600160a01b03918216602084015216604082015260600190565b9586526001600160a01b0394851660208701529290931660408501526060840152608083019190915260a082015260c00190565b9485526020850193909352604084019190915260608301526001600160a01b0316608082015260a00190565b93845260ff9290921660208401526040830152606082015260800190565b968752602087019590955260408601939093526060850191909152608084015260a083015260c082015260e00190565b9586526020860194909452604085019290925260608401521515608083015260a082015260c00190565b6000602080835283518082850152825b818110156154b95785810183015185820160400152820161549d565b818111156154ca5783604083870101525b50601f01601f1916929092016040019392505050565b600060e082019050825182526020830151602083015260408301516040830152606083015160608301526080830151608083015260a083015160a083015260c083015160c083015292915050565b600083825260406020830152610a0760408301846151fe565b60ff91909116815260200190565b6040518181016001600160401b038111828210171561557057fe5b604052919050565b60006001600160401b0382111561558b57fe5b5060209081020190565b6001600160a01b038116811461082957600080fd5b801515811461082957600080fd5b6003811061082957600080fdfea264697066735822122073822111d58a8fb411367191627daef293be765a064ec56eaf636b15e135408a64736f6c63430007060033",
  "linkReferences": {},
  "deployedLinkReferences": {}
}