{
  "_format": "hh-sol-artifact-1",
  "contractName": "MockWeightedPool2Tokens",
  "sourceName": "contracts/NoProtocolFeeLiquidityBootstrappingPoolFactory.sol",
  "abi": [
    {
      "inputs": [
        {
          "components": [
            {
              "internalType": "contract IVault",
              "name": "vault",
              "type": "address"
            },
            {
              "internalType": "string",
              "name": "name",
              "type": "string"
            },
            {
              "internalType": "string",
              "name": "symbol",
              "type": "string"
            },
            {
              "internalType": "contract IERC20",
              "name": "token0",
              "type": "address"
            },
            {
              "internalType": "contract IERC20",
              "name": "token1",
              "type": "address"
            },
            {
              "internalType": "uint256",
              "name": "normalizedWeight0",
              "type": "uint256"
            },
            {
              "internalType": "uint256",
              "name": "normalizedWeight1",
              "type": "uint256"
            },
            {
              "internalType": "uint256",
              "name": "swapFeePercentage",
              "type": "uint256"
            },
            {
              "internalType": "uint256",
              "name": "pauseWindowDuration",
              "type": "uint256"
            },
            {
              "internalType": "uint256",
              "name": "bufferPeriodDuration",
              "type": "uint256"
            },
            {
              "internalType": "bool",
              "name": "oracleEnabled",
              "type": "bool"
            },
            {
              "internalType": "address",
              "name": "owner",
              "type": "address"
            }
          ],
          "internalType": "struct WeightedPool2Tokens.NewPoolParams",
          "name": "params",
          "type": "tuple"
        }
      ],
      "stateMutability": "nonpayable",
      "type": "constructor"
    },
    {
      "anonymous": false,
      "inputs": [
        {
          "indexed": true,
          "internalType": "address",
          "name": "owner",
          "type": "address"
        },
        {
          "indexed": true,
          "internalType": "address",
          "name": "spender",
          "type": "address"
        },
        {
          "indexed": false,
          "internalType": "uint256",
          "name": "value",
          "type": "uint256"
        }
      ],
      "name": "Approval",
      "type": "event"
    },
    {
      "anonymous": false,
      "inputs": [
        {
          "indexed": false,
          "internalType": "bool",
          "name": "enabled",
          "type": "bool"
        }
      ],
      "name": "OracleEnabledChanged",
      "type": "event"
    },
    {
      "anonymous": false,
      "inputs": [
        {
          "indexed": false,
          "internalType": "bool",
          "name": "paused",
          "type": "bool"
        }
      ],
      "name": "PausedStateChanged",
      "type": "event"
    },
    {
      "anonymous": false,
      "inputs": [
        {
          "indexed": false,
          "internalType": "bool",
          "name": "newSample",
          "type": "bool"
        },
        {
          "indexed": false,
          "internalType": "uint256",
          "name": "sampleIndex",
          "type": "uint256"
        }
      ],
      "name": "PriceDataProcessed",
      "type": "event"
    },
    {
      "anonymous": false,
      "inputs": [
        {
          "indexed": false,
          "internalType": "uint256",
          "name": "swapFeePercentage",
          "type": "uint256"
        }
      ],
      "name": "SwapFeePercentageChanged",
      "type": "event"
    },
    {
      "anonymous": false,
      "inputs": [
        {
          "indexed": true,
          "internalType": "address",
          "name": "from",
          "type": "address"
        },
        {
          "indexed": true,
          "internalType": "address",
          "name": "to",
          "type": "address"
        },
        {
          "indexed": false,
          "internalType": "uint256",
          "name": "value",
          "type": "uint256"
        }
      ],
      "name": "Transfer",
      "type": "event"
    },
    {
      "inputs": [],
      "name": "DOMAIN_SEPARATOR",
      "outputs": [
        {
          "internalType": "bytes32",
          "name": "",
          "type": "bytes32"
        }
      ],
      "stateMutability": "view",
      "type": "function"
    },
    {
      "inputs": [
        {
          "internalType": "address",
          "name": "owner",
          "type": "address"
        },
        {
          "internalType": "address",
          "name": "spender",
          "type": "address"
        }
      ],
      "name": "allowance",
      "outputs": [
        {
          "internalType": "uint256",
          "name": "",
          "type": "uint256"
        }
      ],
      "stateMutability": "view",
      "type": "function"
    },
    {
      "inputs": [
        {
          "internalType": "address",
          "name": "spender",
          "type": "address"
        },
        {
          "internalType": "uint256",
          "name": "amount",
          "type": "uint256"
        }
      ],
      "name": "approve",
      "outputs": [
        {
          "internalType": "bool",
          "name": "",
          "type": "bool"
        }
      ],
      "stateMutability": "nonpayable",
      "type": "function"
    },
    {
      "inputs": [
        {
          "internalType": "address",
          "name": "account",
          "type": "address"
        }
      ],
      "name": "balanceOf",
      "outputs": [
        {
          "internalType": "uint256",
          "name": "",
          "type": "uint256"
        }
      ],
      "stateMutability": "view",
      "type": "function"
    },
    {
      "inputs": [
        {
          "internalType": "uint256",
          "name": "normalizedWeight",
          "type": "uint256"
        },
        {
          "internalType": "uint256",
          "name": "balance",
          "type": "uint256"
        },
        {
          "internalType": "int256",
          "name": "bptTotalSupplyLn",
          "type": "int256"
        }
      ],
      "name": "calcLogBPTPrice",
      "outputs": [
        {
          "internalType": "int256",
          "name": "",
          "type": "int256"
        }
      ],
      "stateMutability": "pure",
      "type": "function"
    },
    {
      "inputs": [
        {
          "internalType": "uint256",
          "name": "normalizedWeightA",
          "type": "uint256"
        },
        {
          "internalType": "uint256",
          "name": "balanceA",
          "type": "uint256"
        },
        {
          "internalType": "uint256",
          "name": "normalizedWeightB",
          "type": "uint256"
        },
        {
          "internalType": "uint256",
          "name": "balanceB",
          "type": "uint256"
        }
      ],
      "name": "calcLogSpotPrice",
      "outputs": [
        {
          "internalType": "int256",
          "name": "",
          "type": "int256"
        }
      ],
      "stateMutability": "pure",
      "type": "function"
    },
    {
      "inputs": [],
      "name": "decimals",
      "outputs": [
        {
          "internalType": "uint8",
          "name": "",
          "type": "uint8"
        }
      ],
      "stateMutability": "view",
      "type": "function"
    },
    {
      "inputs": [
        {
          "internalType": "bytes32",
          "name": "sample",
          "type": "bytes32"
        }
      ],
      "name": "decode",
      "outputs": [
        {
          "components": [
            {
              "internalType": "int256",
              "name": "logPairPrice",
              "type": "int256"
            },
            {
              "internalType": "int256",
              "name": "accLogPairPrice",
              "type": "int256"
            },
            {
              "internalType": "int256",
              "name": "logBptPrice",
              "type": "int256"
            },
            {
              "internalType": "int256",
              "name": "accLogBptPrice",
              "type": "int256"
            },
            {
              "internalType": "int256",
              "name": "logInvariant",
              "type": "int256"
            },
            {
              "internalType": "int256",
              "name": "accLogInvariant",
              "type": "int256"
            },
            {
              "internalType": "uint256",
              "name": "timestamp",
              "type": "uint256"
            }
          ],
          "internalType": "struct MockSamples.Sample",
          "name": "",
          "type": "tuple"
        }
      ],
      "stateMutability": "pure",
      "type": "function"
    },
    {
      "inputs": [
        {
          "internalType": "address",
          "name": "spender",
          "type": "address"
        },
        {
          "internalType": "uint256",
          "name": "amount",
          "type": "uint256"
        }
      ],
      "name": "decreaseAllowance",
      "outputs": [
        {
          "internalType": "bool",
          "name": "",
          "type": "bool"
        }
      ],
      "stateMutability": "nonpayable",
      "type": "function"
    },
    {
      "inputs": [],
      "name": "enableOracle",
      "outputs": [],
      "stateMutability": "nonpayable",
      "type": "function"
    },
    {
      "inputs": [
        {
          "components": [
            {
              "internalType": "int256",
              "name": "logPairPrice",
              "type": "int256"
            },
            {
              "internalType": "int256",
              "name": "accLogPairPrice",
              "type": "int256"
            },
            {
              "internalType": "int256",
              "name": "logBptPrice",
              "type": "int256"
            },
            {
              "internalType": "int256",
              "name": "accLogBptPrice",
              "type": "int256"
            },
            {
              "internalType": "int256",
              "name": "logInvariant",
              "type": "int256"
            },
            {
              "internalType": "int256",
              "name": "accLogInvariant",
              "type": "int256"
            },
            {
              "internalType": "uint256",
              "name": "timestamp",
              "type": "uint256"
            }
          ],
          "internalType": "struct MockSamples.Sample",
          "name": "sample",
          "type": "tuple"
        }
      ],
      "name": "encode",
      "outputs": [
        {
          "internalType": "bytes32",
          "name": "",
          "type": "bytes32"
        }
      ],
      "stateMutability": "pure",
      "type": "function"
    },
    {
      "inputs": [
        {
          "internalType": "uint256[]",
          "name": "dates",
          "type": "uint256[]"
        },
        {
          "internalType": "uint256",
          "name": "offset",
          "type": "uint256"
        }
      ],
      "name": "findNearestSamplesTimestamp",
      "outputs": [
        {
          "components": [
            {
              "internalType": "uint256",
              "name": "prev",
              "type": "uint256"
            },
            {
              "internalType": "uint256",
              "name": "next",
              "type": "uint256"
            }
          ],
          "internalType": "struct MockPoolPriceOracle.BinarySearchResult[]",
          "name": "results",
          "type": "tuple[]"
        }
      ],
      "stateMutability": "view",
      "type": "function"
    },
    {
      "inputs": [
        {
          "internalType": "int256",
          "name": "value",
          "type": "int256"
        }
      ],
      "name": "fromLowResLog",
      "outputs": [
        {
          "internalType": "uint256",
          "name": "",
          "type": "uint256"
        }
      ],
      "stateMutability": "pure",
      "type": "function"
    },
    {
      "inputs": [
        {
          "internalType": "bytes4",
          "name": "selector",
          "type": "bytes4"
        }
      ],
      "name": "getActionId",
      "outputs": [
        {
          "internalType": "bytes32",
          "name": "",
          "type": "bytes32"
        }
      ],
      "stateMutability": "view",
      "type": "function"
    },
    {
      "inputs": [],
      "name": "getAuthorizer",
      "outputs": [
        {
          "internalType": "contract IAuthorizer",
          "name": "",
          "type": "address"
        }
      ],
      "stateMutability": "view",
      "type": "function"
    },
    {
      "inputs": [],
      "name": "getInvariant",
      "outputs": [
        {
          "internalType": "uint256",
          "name": "",
          "type": "uint256"
        }
      ],
      "stateMutability": "view",
      "type": "function"
    },
    {
      "inputs": [],
      "name": "getLargestSafeQueryWindow",
      "outputs": [
        {
          "internalType": "uint256",
          "name": "",
          "type": "uint256"
        }
      ],
      "stateMutability": "pure",
      "type": "function"
    },
    {
      "inputs": [],
      "name": "getLastInvariant",
      "outputs": [
        {
          "internalType": "uint256",
          "name": "",
          "type": "uint256"
        }
      ],
      "stateMutability": "view",
      "type": "function"
    },
    {
      "inputs": [
        {
          "internalType": "enum IPriceOracle.Variable",
          "name": "variable",
          "type": "uint8"
        }
      ],
      "name": "getLatest",
      "outputs": [
        {
          "internalType": "uint256",
          "name": "",
          "type": "uint256"
        }
      ],
      "stateMutability": "view",
      "type": "function"
    },
    {
      "inputs": [],
      "name": "getMiscData",
      "outputs": [
        {
          "internalType": "int256",
          "name": "logInvariant",
          "type": "int256"
        },
        {
          "internalType": "int256",
          "name": "logTotalSupply",
          "type": "int256"
        },
        {
          "internalType": "uint256",
          "name": "oracleSampleCreationTimestamp",
          "type": "uint256"
        },
        {
          "internalType": "uint256",
          "name": "oracleIndex",
          "type": "uint256"
        },
        {
          "internalType": "bool",
          "name": "oracleEnabled",
          "type": "bool"
        },
        {
          "internalType": "uint256",
          "name": "swapFeePercentage",
          "type": "uint256"
        }
      ],
      "stateMutability": "view",
      "type": "function"
    },
    {
      "inputs": [],
      "name": "getNormalizedWeights",
      "outputs": [
        {
          "internalType": "uint256[]",
          "name": "",
          "type": "uint256[]"
        }
      ],
      "stateMutability": "view",
      "type": "function"
    },
    {
      "inputs": [],
      "name": "getOwner",
      "outputs": [
        {
          "internalType": "address",
          "name": "",
          "type": "address"
        }
      ],
      "stateMutability": "view",
      "type": "function"
    },
    {
      "inputs": [
        {
          "internalType": "enum IPriceOracle.Variable",
          "name": "variable",
          "type": "uint8"
        },
        {
          "internalType": "uint256",
          "name": "currentIndex",
          "type": "uint256"
        },
        {
          "internalType": "uint256",
          "name": "timestamp",
          "type": "uint256"
        }
      ],
      "name": "getPastAccumulator",
      "outputs": [
        {
          "internalType": "int256",
          "name": "",
          "type": "int256"
        }
      ],
      "stateMutability": "view",
      "type": "function"
    },
    {
      "inputs": [
        {
          "components": [
            {
              "internalType": "enum IPriceOracle.Variable",
              "name": "variable",
              "type": "uint8"
            },
            {
              "internalType": "uint256",
              "name": "ago",
              "type": "uint256"
            }
          ],
          "internalType": "struct IPriceOracle.OracleAccumulatorQuery[]",
          "name": "queries",
          "type": "tuple[]"
        }
      ],
      "name": "getPastAccumulators",
      "outputs": [
        {
          "internalType": "int256[]",
          "name": "results",
          "type": "int256[]"
        }
      ],
      "stateMutability": "view",
      "type": "function"
    },
    {
      "inputs": [],
      "name": "getPausedState",
      "outputs": [
        {
          "internalType": "bool",
          "name": "paused",
          "type": "bool"
        },
        {
          "internalType": "uint256",
          "name": "pauseWindowEndTime",
          "type": "uint256"
        },
        {
          "internalType": "uint256",
          "name": "bufferPeriodEndTime",
          "type": "uint256"
        }
      ],
      "stateMutability": "view",
      "type": "function"
    },
    {
      "inputs": [],
      "name": "getPoolId",
      "outputs": [
        {
          "internalType": "bytes32",
          "name": "",
          "type": "bytes32"
        }
      ],
      "stateMutability": "view",
      "type": "function"
    },
    {
      "inputs": [],
      "name": "getRate",
      "outputs": [
        {
          "internalType": "uint256",
          "name": "",
          "type": "uint256"
        }
      ],
      "stateMutability": "view",
      "type": "function"
    },
    {
      "inputs": [
        {
          "internalType": "uint256",
          "name": "index",
          "type": "uint256"
        }
      ],
      "name": "getSample",
      "outputs": [
        {
          "internalType": "int256",
          "name": "logPairPrice",
          "type": "int256"
        },
        {
          "internalType": "int256",
          "name": "accLogPairPrice",
          "type": "int256"
        },
        {
          "internalType": "int256",
          "name": "logBptPrice",
          "type": "int256"
        },
        {
          "internalType": "int256",
          "name": "accLogBptPrice",
          "type": "int256"
        },
        {
          "internalType": "int256",
          "name": "logInvariant",
          "type": "int256"
        },
        {
          "internalType": "int256",
          "name": "accLogInvariant",
          "type": "int256"
        },
        {
          "internalType": "uint256",
          "name": "timestamp",
          "type": "uint256"
        }
      ],
      "stateMutability": "view",
      "type": "function"
    },
    {
      "inputs": [],
      "name": "getSwapFeePercentage",
      "outputs": [
        {
          "internalType": "uint256",
          "name": "",
          "type": "uint256"
        }
      ],
      "stateMutability": "view",
      "type": "function"
    },
    {
      "inputs": [
        {
          "components": [
            {
              "internalType": "enum IPriceOracle.Variable",
              "name": "variable",
              "type": "uint8"
            },
            {
              "internalType": "uint256",
              "name": "secs",
              "type": "uint256"
            },
            {
              "internalType": "uint256",
              "name": "ago",
              "type": "uint256"
            }
          ],
          "internalType": "struct IPriceOracle.OracleAverageQuery[]",
          "name": "queries",
          "type": "tuple[]"
        }
      ],
      "name": "getTimeWeightedAverage",
      "outputs": [
        {
          "internalType": "uint256[]",
          "name": "results",
          "type": "uint256[]"
        }
      ],
      "stateMutability": "view",
      "type": "function"
    },
    {
      "inputs": [],
      "name": "getTotalSamples",
      "outputs": [
        {
          "internalType": "uint256",
          "name": "",
          "type": "uint256"
        }
      ],
      "stateMutability": "pure",
      "type": "function"
    },
    {
      "inputs": [],
      "name": "getVault",
      "outputs": [
        {
          "internalType": "contract IVault",
          "name": "",
          "type": "address"
        }
      ],
      "stateMutability": "view",
      "type": "function"
    },
    {
      "inputs": [
        {
          "internalType": "address",
          "name": "spender",
          "type": "address"
        },
        {
          "internalType": "uint256",
          "name": "addedValue",
          "type": "uint256"
        }
      ],
      "name": "increaseAllowance",
      "outputs": [
        {
          "internalType": "bool",
          "name": "",
          "type": "bool"
        }
      ],
      "stateMutability": "nonpayable",
      "type": "function"
    },
    {
      "inputs": [
        {
          "components": [
            {
              "internalType": "int256",
              "name": "logInvariant",
              "type": "int256"
            },
            {
              "internalType": "int256",
              "name": "logTotalSupply",
              "type": "int256"
            },
            {
              "internalType": "uint256",
              "name": "oracleSampleCreationTimestamp",
              "type": "uint256"
            },
            {
              "internalType": "uint256",
              "name": "oracleIndex",
              "type": "uint256"
            },
            {
              "internalType": "bool",
              "name": "oracleEnabled",
              "type": "bool"
            },
            {
              "internalType": "uint256",
              "name": "swapFeePercentage",
              "type": "uint256"
            }
          ],
          "internalType": "struct MockWeightedPool2Tokens.MiscData",
          "name": "miscData",
          "type": "tuple"
        }
      ],
      "name": "mockMiscData",
      "outputs": [],
      "stateMutability": "nonpayable",
      "type": "function"
    },
    {
      "inputs": [],
      "name": "mockOracleDisabled",
      "outputs": [],
      "stateMutability": "nonpayable",
      "type": "function"
    },
    {
      "inputs": [
        {
          "internalType": "uint256",
          "name": "index",
          "type": "uint256"
        }
      ],
      "name": "mockOracleIndex",
      "outputs": [],
      "stateMutability": "nonpayable",
      "type": "function"
    },
    {
      "inputs": [
        {
          "internalType": "uint256",
          "name": "index",
          "type": "uint256"
        },
        {
          "components": [
            {
              "internalType": "int256",
              "name": "logPairPrice",
              "type": "int256"
            },
            {
              "internalType": "int256",
              "name": "accLogPairPrice",
              "type": "int256"
            },
            {
              "internalType": "int256",
              "name": "logBptPrice",
              "type": "int256"
            },
            {
              "internalType": "int256",
              "name": "accLogBptPrice",
              "type": "int256"
            },
            {
              "internalType": "int256",
              "name": "logInvariant",
              "type": "int256"
            },
            {
              "internalType": "int256",
              "name": "accLogInvariant",
              "type": "int256"
            },
            {
              "internalType": "uint256",
              "name": "timestamp",
              "type": "uint256"
            }
          ],
          "internalType": "struct MockSamples.Sample",
          "name": "sample",
          "type": "tuple"
        }
      ],
      "name": "mockSample",
      "outputs": [],
      "stateMutability": "nonpayable",
      "type": "function"
    },
    {
      "inputs": [
        {
          "internalType": "uint256[]",
          "name": "indexes",
          "type": "uint256[]"
        },
        {
          "components": [
            {
              "internalType": "int256",
              "name": "logPairPrice",
              "type": "int256"
            },
            {
              "internalType": "int256",
              "name": "accLogPairPrice",
              "type": "int256"
            },
            {
              "internalType": "int256",
              "name": "logBptPrice",
              "type": "int256"
            },
            {
              "internalType": "int256",
              "name": "accLogBptPrice",
              "type": "int256"
            },
            {
              "internalType": "int256",
              "name": "logInvariant",
              "type": "int256"
            },
            {
              "internalType": "int256",
              "name": "accLogInvariant",
              "type": "int256"
            },
            {
              "internalType": "uint256",
              "name": "timestamp",
              "type": "uint256"
            }
          ],
          "internalType": "struct MockSamples.Sample[]",
          "name": "samples",
          "type": "tuple[]"
        }
      ],
      "name": "mockSamples",
      "outputs": [],
      "stateMutability": "nonpayable",
      "type": "function"
    },
    {
      "inputs": [],
      "name": "name",
      "outputs": [
        {
          "internalType": "string",
          "name": "",
          "type": "string"
        }
      ],
      "stateMutability": "view",
      "type": "function"
    },
    {
      "inputs": [
        {
          "internalType": "address",
          "name": "owner",
          "type": "address"
        }
      ],
      "name": "nonces",
      "outputs": [
        {
          "internalType": "uint256",
          "name": "",
          "type": "uint256"
        }
      ],
      "stateMutability": "view",
      "type": "function"
    },
    {
      "inputs": [
        {
          "internalType": "bytes32",
          "name": "poolId",
          "type": "bytes32"
        },
        {
          "internalType": "address",
          "name": "sender",
          "type": "address"
        },
        {
          "internalType": "address",
          "name": "recipient",
          "type": "address"
        },
        {
          "internalType": "uint256[]",
          "name": "balances",
          "type": "uint256[]"
        },
        {
          "internalType": "uint256",
          "name": "lastChangeBlock",
          "type": "uint256"
        },
        {
          "internalType": "uint256",
          "name": "protocolSwapFeePercentage",
          "type": "uint256"
        },
        {
          "internalType": "bytes",
          "name": "userData",
          "type": "bytes"
        }
      ],
      "name": "onExitPool",
      "outputs": [
        {
          "internalType": "uint256[]",
          "name": "",
          "type": "uint256[]"
        },
        {
          "internalType": "uint256[]",
          "name": "",
          "type": "uint256[]"
        }
      ],
      "stateMutability": "nonpayable",
      "type": "function"
    },
    {
      "inputs": [
        {
          "internalType": "bytes32",
          "name": "poolId",
          "type": "bytes32"
        },
        {
          "internalType": "address",
          "name": "sender",
          "type": "address"
        },
        {
          "internalType": "address",
          "name": "recipient",
          "type": "address"
        },
        {
          "internalType": "uint256[]",
          "name": "balances",
          "type": "uint256[]"
        },
        {
          "internalType": "uint256",
          "name": "lastChangeBlock",
          "type": "uint256"
        },
        {
          "internalType": "uint256",
          "name": "protocolSwapFeePercentage",
          "type": "uint256"
        },
        {
          "internalType": "bytes",
          "name": "userData",
          "type": "bytes"
        }
      ],
      "name": "onJoinPool",
      "outputs": [
        {
          "internalType": "uint256[]",
          "name": "amountsIn",
          "type": "uint256[]"
        },
        {
          "internalType": "uint256[]",
          "name": "dueProtocolFeeAmounts",
          "type": "uint256[]"
        }
      ],
      "stateMutability": "nonpayable",
      "type": "function"
    },
    {
      "inputs": [
        {
          "components": [
            {
              "internalType": "enum IVault.SwapKind",
              "name": "kind",
              "type": "uint8"
            },
            {
              "internalType": "contract IERC20",
              "name": "tokenIn",
              "type": "address"
            },
            {
              "internalType": "contract IERC20",
              "name": "tokenOut",
              "type": "address"
            },
            {
              "internalType": "uint256",
              "name": "amount",
              "type": "uint256"
            },
            {
              "internalType": "bytes32",
              "name": "poolId",
              "type": "bytes32"
            },
            {
              "internalType": "uint256",
              "name": "lastChangeBlock",
              "type": "uint256"
            },
            {
              "internalType": "address",
              "name": "from",
              "type": "address"
            },
            {
              "internalType": "address",
              "name": "to",
              "type": "address"
            },
            {
              "internalType": "bytes",
              "name": "userData",
              "type": "bytes"
            }
          ],
          "internalType": "struct IPoolSwapStructs.SwapRequest",
          "name": "request",
          "type": "tuple"
        },
        {
          "internalType": "uint256",
          "name": "balanceTokenIn",
          "type": "uint256"
        },
        {
          "internalType": "uint256",
          "name": "balanceTokenOut",
          "type": "uint256"
        }
      ],
      "name": "onSwap",
      "outputs": [
        {
          "internalType": "uint256",
          "name": "",
          "type": "uint256"
        }
      ],
      "stateMutability": "nonpayable",
      "type": "function"
    },
    {
      "inputs": [
        {
          "internalType": "address",
          "name": "owner",
          "type": "address"
        },
        {
          "internalType": "address",
          "name": "spender",
          "type": "address"
        },
        {
          "internalType": "uint256",
          "name": "value",
          "type": "uint256"
        },
        {
          "internalType": "uint256",
          "name": "deadline",
          "type": "uint256"
        },
        {
          "internalType": "uint8",
          "name": "v",
          "type": "uint8"
        },
        {
          "internalType": "bytes32",
          "name": "r",
          "type": "bytes32"
        },
        {
          "internalType": "bytes32",
          "name": "s",
          "type": "bytes32"
        }
      ],
      "name": "permit",
      "outputs": [],
      "stateMutability": "nonpayable",
      "type": "function"
    },
    {
      "inputs": [
        {
          "internalType": "uint256",
          "name": "elapsed",
          "type": "uint256"
        },
        {
          "internalType": "uint256",
          "name": "currentIndex",
          "type": "uint256"
        },
        {
          "internalType": "int256",
          "name": "logPairPrice",
          "type": "int256"
        },
        {
          "internalType": "int256",
          "name": "logBptPrice",
          "type": "int256"
        },
        {
          "internalType": "int256",
          "name": "logInvariant",
          "type": "int256"
        }
      ],
      "name": "processPriceData",
      "outputs": [],
      "stateMutability": "nonpayable",
      "type": "function"
    },
    {
      "inputs": [
        {
          "internalType": "bytes32",
          "name": "poolId",
          "type": "bytes32"
        },
        {
          "internalType": "address",
          "name": "sender",
          "type": "address"
        },
        {
          "internalType": "address",
          "name": "recipient",
          "type": "address"
        },
        {
          "internalType": "uint256[]",
          "name": "balances",
          "type": "uint256[]"
        },
        {
          "internalType": "uint256",
          "name": "lastChangeBlock",
          "type": "uint256"
        },
        {
          "internalType": "uint256",
          "name": "protocolSwapFeePercentage",
          "type": "uint256"
        },
        {
          "internalType": "bytes",
          "name": "userData",
          "type": "bytes"
        }
      ],
      "name": "queryExit",
      "outputs": [
        {
          "internalType": "uint256",
          "name": "bptIn",
          "type": "uint256"
        },
        {
          "internalType": "uint256[]",
          "name": "amountsOut",
          "type": "uint256[]"
        }
      ],
      "stateMutability": "nonpayable",
      "type": "function"
    },
    {
      "inputs": [
        {
          "internalType": "bytes32",
          "name": "poolId",
          "type": "bytes32"
        },
        {
          "internalType": "address",
          "name": "sender",
          "type": "address"
        },
        {
          "internalType": "address",
          "name": "recipient",
          "type": "address"
        },
        {
          "internalType": "uint256[]",
          "name": "balances",
          "type": "uint256[]"
        },
        {
          "internalType": "uint256",
          "name": "lastChangeBlock",
          "type": "uint256"
        },
        {
          "internalType": "uint256",
          "name": "protocolSwapFeePercentage",
          "type": "uint256"
        },
        {
          "internalType": "bytes",
          "name": "userData",
          "type": "bytes"
        }
      ],
      "name": "queryJoin",
      "outputs": [
        {
          "internalType": "uint256",
          "name": "bptOut",
          "type": "uint256"
        },
        {
          "internalType": "uint256[]",
          "name": "amountsIn",
          "type": "uint256[]"
        }
      ],
      "stateMutability": "nonpayable",
      "type": "function"
    },
    {
      "inputs": [
        {
          "internalType": "bool",
          "name": "paused",
          "type": "bool"
        }
      ],
      "name": "setPaused",
      "outputs": [],
      "stateMutability": "nonpayable",
      "type": "function"
    },
    {
      "inputs": [
        {
          "internalType": "uint256",
          "name": "swapFeePercentage",
          "type": "uint256"
        }
      ],
      "name": "setSwapFeePercentage",
      "outputs": [],
      "stateMutability": "nonpayable",
      "type": "function"
    },
    {
      "inputs": [],
      "name": "symbol",
      "outputs": [
        {
          "internalType": "string",
          "name": "",
          "type": "string"
        }
      ],
      "stateMutability": "view",
      "type": "function"
    },
    {
      "inputs": [
        {
          "internalType": "uint256",
          "name": "value",
          "type": "uint256"
        }
      ],
      "name": "toLowResLog",
      "outputs": [
        {
          "internalType": "int256",
          "name": "",
          "type": "int256"
        }
      ],
      "stateMutability": "pure",
      "type": "function"
    },
    {
      "inputs": [],
      "name": "totalSupply",
      "outputs": [
        {
          "internalType": "uint256",
          "name": "",
          "type": "uint256"
        }
      ],
      "stateMutability": "view",
      "type": "function"
    },
    {
      "inputs": [
        {
          "internalType": "address",
          "name": "recipient",
          "type": "address"
        },
        {
          "internalType": "uint256",
          "name": "amount",
          "type": "uint256"
        }
      ],
      "name": "transfer",
      "outputs": [
        {
          "internalType": "bool",
          "name": "",
          "type": "bool"
        }
      ],
      "stateMutability": "nonpayable",
      "type": "function"
    },
    {
      "inputs": [
        {
          "internalType": "address",
          "name": "sender",
          "type": "address"
        },
        {
          "internalType": "address",
          "name": "recipient",
          "type": "address"
        },
        {
          "internalType": "uint256",
          "name": "amount",
          "type": "uint256"
        }
      ],
      "name": "transferFrom",
      "outputs": [
        {
          "internalType": "bool",
          "name": "",
          "type": "bool"
        }
      ],
      "stateMutability": "nonpayable",
      "type": "function"
    },
    {
      "inputs": [
        {
          "internalType": "bytes32",
          "name": "sample",
          "type": "bytes32"
        },
        {
          "internalType": "int256",
          "name": "logPairPrice",
          "type": "int256"
        },
        {
          "internalType": "int256",
          "name": "logBptPrice",
          "type": "int256"
        },
        {
          "internalType": "int256",
          "name": "logInvariant",
          "type": "int256"
        },
        {
          "internalType": "uint256",
          "name": "timestamp",
          "type": "uint256"
        }
      ],
      "name": "update",
      "outputs": [
        {
          "components": [
            {
              "internalType": "int256",
              "name": "logPairPrice",
              "type": "int256"
            },
            {
              "internalType": "int256",
              "name": "accLogPairPrice",
              "type": "int256"
            },
            {
              "internalType": "int256",
              "name": "logBptPrice",
              "type": "int256"
            },
            {
              "internalType": "int256",
              "name": "accLogBptPrice",
              "type": "int256"
            },
            {
              "internalType": "int256",
              "name": "logInvariant",
              "type": "int256"
            },
            {
              "internalType": "int256",
              "name": "accLogInvariant",
              "type": "int256"
            },
            {
              "internalType": "uint256",
              "name": "timestamp",
              "type": "uint256"
            }
          ],
          "internalType": "struct MockSamples.Sample",
          "name": "",
          "type": "tuple"
        }
      ],
      "stateMutability": "pure",
      "type": "function"
    }
  ],
  "bytecode": "0x6102a06040527f6e71edae12b1b97f4d1f60370fef10105fa2faae0126114a169c64845d6126c9610120523480156200003757600080fd5b5060405162006076380380620060768339810160408190526200005a9162000830565b610100810151610120820151602080840151604080860151815180830190925260018252603160f81b828501526101608701513360805260601b6001600160601b03191660a05282518796959491928492839283918691620000c39160039190850190620006b9565b508051620000d9906004906020840190620006b9565b50506005805460ff1916601217905550815160209283012060c052805191012060e05250507f8b73c3c69bb8fe3d512ecc4cf759cc79239f7b179b0ffacaa9a75d522b39400f6101005250620001386276a70083111561019462000424565b6200014c62278d0082111561019562000424565b429091016101408181529101610160528101516200016a9062000439565b60e08101516200017a9062000495565b80516040516309b2760f60e01b81526000916001600160a01b0316906309b2760f90620001ad9060029060040162000a2f565b602060405180830381600087803b158015620001c857600080fd5b505af1158015620001dd573d6000803e3d6000fd5b505050506040513d601f19601f8201168201806040525081019062000203919062000817565b60408051600280825260608201835292935060009290916020830190803683370190505090508260600151816000815181106200023c57fe5b60200260200101906001600160a01b031690816001600160a01b0316815250508260800151816001815181106200026f57fe5b6001600160a01b0392831660209182029290920101528351166366a9c7d283836002604051908082528060200260200182016040528015620002bb578160200160208202803683370190505b506040518463ffffffff1660e01b8152600401620002dc9392919062000995565b600060405180830381600087803b158015620002f757600080fd5b505af11580156200030c573d6000803e3d6000fd5b505084516001600160601b0319606091821b8116610180526101a08690528187018051831b82166101c052608088015190921b166101e05251620003539250905062000513565b610260526080830151620003679062000513565b6102805260a08301516200038890662386f26fc10000111561012e62000424565b620003aa662386f26fc100008460c00151101561012e6200042460201b60201c565b6000620003ce8460c001518560a00151620005b760201b620016251790919060201c565b9050620003e8670de0b6b3a7640000821461013462000424565b60a0840180516102005260c0850180516102205251905110156200040e57600162000411565b60005b60ff16610240525062000a719350505050565b8162000435576200043581620005d2565b5050565b62000455816009546200062560201b620016371790919060201c565b6009556040517f3e350b41e86a8e10f804ade6d35340d620be35569cc75ac943e8bb14ab80ead1906200048a9083906200098a565b60405180910390a150565b620004aa64e8d4a5100082101560cb62000424565b620004c267016345785d8a000082111560ca62000424565b620004de816009546200064460201b620016451790919060201c565b6009556040517fa9ba3ffe0b6c366b81232caab38605a0699ad5398d6cce76f91ee809e322dafc906200048a90839062000a44565b600080826001600160a01b031663313ce5676040518163ffffffff1660e01b815260040160206040518083038186803b1580156200055057600080fd5b505afa15801562000565573d6000803e3d6000fd5b505050506040513d601f19601f820116820180604052508101906200058b919062000967565b60ff1690506000620005aa6012836200066360201b620016531760201c565b600a0a925050505b919050565b6000828201620005cb848210158362000424565b9392505050565b62461bcd60e51b6000908152602060045260076024526642414c23000030600a808404818106603090810160081b95839006959095019082900491820690940160101b939093010160c81b604452606490fd5b6000620005cb826055856200067b60201b62001669179092919060201c565b6000620005cb82605685620006a460201b62001690179092919060201c565b60006200067583831115600162000424565b50900390565b60006001821b19841682846200069357600062000696565b60015b60ff16901b17949350505050565b6001600160401b03811b1992909216911b1790565b828054600181600116156101000203166002900490600052602060002090601f016020900481019282620006f157600085556200073c565b82601f106200070c57805160ff19168380011785556200073c565b828001600101855582156200073c579182015b828111156200073c5782518255916020019190600101906200071f565b506200074a9291506200074e565b5090565b5b808211156200074a57600081556001016200074f565b80516001600160a01b0381168114620005b257600080fd5b80518015158114620005b257600080fd5b600082601f8301126200079f578081fd5b81516001600160401b03811115620007b357fe5b6020620007c9601f8301601f1916820162000a4d565b8281528582848701011115620007dd578384fd5b835b83811015620007fc578581018301518282018401528201620007df565b838111156200080d57848385840101525b5095945050505050565b60006020828403121562000829578081fd5b5051919050565b60006020828403121562000842578081fd5b81516001600160401b038082111562000859578283fd5b818401915061018080838703121562000870578384fd5b6200087b8162000a4d565b9050620008888362000765565b81526020830151828111156200089c578485fd5b620008aa878286016200078e565b602083015250604083015182811115620008c2578485fd5b620008d0878286016200078e565b604083015250620008e46060840162000765565b6060820152620008f76080840162000765565b608082015260a0838101519082015260c0808401519082015260e08084015190820152610100808401519082015261012080840151908201526101409150620009428284016200077d565b8282015261016091506200095882840162000765565b91810191909152949350505050565b60006020828403121562000979578081fd5b815160ff81168114620005cb578182fd5b901515815260200190565b60006060820185835260206060818501528186518084526080860191508288019350845b81811015620009e05784516001600160a01b031683529383019391830191600101620009b9565b505084810360408601528551808252908201925081860190845b8181101562000a215782516001600160a01b031685529383019391830191600101620009fa565b509298975050505050505050565b602081016003831062000a3e57fe5b91905290565b90815260200190565b6040518181016001600160401b038111828210171562000a6957fe5b604052919050565b60805160a05160601c60c05160e051610100516101205161014051610160516101805160601c6101a0516101c05160601c6101e05160601c610200516102205161024051610260516102805161552d62000b496000398061218d5250806121b4525080612fad5280612fe1528061301d5250806121e1528061227d525080612208528061225b52806122ab52505080610e625250806109d0525080610db05250806117fc5250806117d85250806112e5525080611afd525080611b3f525080611b1e525080610d8c525080610d17525061552d6000f3fe608060405234801561001057600080fd5b50600436106102ad5760003560e01c80637ecebe0011610173578063be7a6d1e116100d4578063be7a6d1e146105b8578063bf338666146105cb578063c0ff1a15146105de578063c3748ef1146105e6578063c519a07514610606578063d437680414610619578063d505accf14610639578063d5125db61461064c578063d5c096c41461065f578063dd62ed3e14610672578063e5fe5f3c14610685578063f89f27ed14610698578063ff7b6f1e146106a0578063ffd088eb146106b3576102ad565b80637ecebe00146104e3578063851c1bb3146104f657806387ec681714610509578063893d20e81461051c5780638d928af81461053157806395d89b41146105395780639b02cdde146105415780639d2c110c14610549578063a457c2d71461055c578063a9059cbb1461056f578063aaabadc514610582578063abb9d0d51461058a578063b10be7391461059d578063b48b5b40146105b0576102ad565b806338e9922e1161021d57806338e9922e146103b757806338fff2d0146103ca57806339509351146103d25780633d48f8c1146103e55780634a6b0b15146103f857806355c676281461041257806357aad0131461041a5780636028bfd41461042d57806360d1507c1461044e578063679aefce1461047457806368a54df21461047c5780636b8432391461048f57806370a08231146104af57806374f3b009146104c2576102ad565b806306fdde03146102b2578063095ea7b3146102d057806316c38b3c146102f057806318160ddd146103055780631c0de0511461031a5780631dccd8301461033157806323b872dd14610351578063259efd1614610364578063264959fb14610377578063292c914a1461038a5780633081bfee14610392578063313ce5671461039a5780633644e515146103af575b600080fd5b6102ba6106bb565b6040516102c7919061539f565b60405180910390f35b6102e36102de36600461488f565b610751565b6040516102c7919061526c565b6103036102fe366004614c29565b610768565b005b61030d61077c565b6040516102c7919061529f565b610322610782565b6040516102c793929190615287565b61034461033f366004614a55565b6107ab565b6040516102c79190615234565b6102e361035f3660046147da565b6108b3565b610303610372366004615087565b610929565b61030d610385366004614ec8565b610948565b61030361095f565b610303610993565b6103a261099d565b6040516102c79190615459565b61030d6109a6565b6103036103c5366004614c61565b6109b5565b61030d6109ce565b6102e36103e036600461488f565b6109f2565b61030d6103f3366004614f76565b610a2d565b610400610a62565b6040516102c796959493929190615375565b61030d610abd565b61030d610428366004614c61565b610aca565b61044061043b366004614c79565b610ad5565b6040516102c7929190615440565b61046161045c366004614c61565b610b06565b6040516102c79796959493929190615345565b61030d610b4f565b61030361048a366004614c61565b610b74565b6104a261049d366004614985565b610b87565b6040516102c791906151a1565b61030d6104bd366004614786565b610c38565b6104d56104d0366004614c79565b610c53565b6040516102c7929190615247565b61030d6104f1366004614786565b610cf8565b61030d610504366004614d55565b610d13565b610440610517366004614c79565b610d65565b610524610d8a565b6040516102c7919061518d565b610524610dae565b6102ba610dd2565b61030d610e33565b61030d610557366004614f91565b610e39565b6102e361056a36600461488f565b610fe8565b6102e361057d36600461488f565b611026565b610524611033565b61030d610598366004614c61565b61103d565b61030d6105ab366004614eac565b611048565b61030d61106a565b61030d6105c63660046150b4565b611070565b6103036105d9366004614efc565b61107d565b61030d611086565b6105f96105f4366004614c61565b611141565b6040516102c791906153f2565b61030d6106143660046150df565b6111c6565b61062c610627366004614be7565b6111dd565b6040516102c791906151e5565b61030361064736600461481a565b6112b0565b61030361065a366004614d1b565b6113f9565b6104d561066d366004614c79565b611453565b61030d6106803660046147a2565b611573565b610303610693366004614b23565b61159e565b6103446115e7565b6105f96106ae366004614d1b565b6115f1565b61030d61161e565b60038054604080516020601f60026000196101006001881615020190951694909404938401819004810282018101909252828152606093909290918301828280156107475780601f1061071c57610100808354040283529160200191610747565b820191906000526020600020905b81548152906001019060200180831161072a57829003601f168201915b5050505050905090565b600061075e3384846116a5565b5060015b92915050565b61077061170d565b6107798161173b565b50565b60025490565b600080600061078f6117b9565b15925061079a6117d6565b91506107a46117fa565b9050909192565b606081516001600160401b03811180156107c457600080fd5b506040519080825280602002602001820160405280156107ee578160200160208202803683370190505b50905060006107fe60095461181e565b9050610808614536565b60005b84518110156108ab5784818151811061082057fe5b6020026020010151915061083e82602001516000141561013c61182b565b6000610859836000015185856020015186604001510161183d565b90506000610870846000015186866040015161183d565b905061088a84602001518383038161088457fe5b05611983565b86848151811061089657fe5b6020908102919091010152505060010161080b565b505050919050565b6000806108c08533611573565b90506108e4336001600160a01b03871614806108dc5750838210155b61019e61182b565b6108ef858585611996565b336001600160a01b0386161480159061090a57506000198114155b1561091c5761091c85338584036116a5565b60019150505b9392505050565b61093281610a2d565b6000928352600860205260409092209190915550565b6000610957848484420361183d565b949350505050565b610967611a64565b61096f61170d565b6109796001611a77565b600061098361077c565b111561099157610991611ab7565b565b6109916000611a77565b60055460ff1690565b60006109b0611af9565b905090565b6109bd61170d565b6109c5611a64565b61077981611b96565b7f000000000000000000000000000000000000000000000000000000000000000090565b3360008181526001602090815260408083206001600160a01b0387168452909152812054909161075e918590610a289086611625565b6116a5565b6000610a5a826000015183602001518460400151856060015186608001518760a001518860c00151611bff565b90505b919050565b60008060008060008060006009549050610a7b81611c5f565b9650610a8681611c6b565b9550610a9181611c78565b9450610a9c8161181e565b9350610aa781611c85565b9250610ab281611c92565b915050909192939495565b60006109b0600954611c92565b6000610a5a82611c9f565b60006060610ae586516002611cdf565b610afa89898989898989611cec611da6611e24565b97509795505050505050565b6000806000806000806000610b21610400891061013b61182b565b6000610b2c89611f42565b9050610b3781611f54565b959f949e50929c50909a509850965090945092505050565b60006109b0610b5c61077c565b610b6e610b67611086565b6002611fb7565b90611fdb565b600954610b81908261202c565b60095550565b606081516001600160401b0381118015610ba057600080fd5b50604051908082528060200260200182016040528015610bca578160200160208202803683370190505b5090506000610bda60095461181e565b9050610be4614558565b60005b84518110156108ab57848181518110610bfc57fe5b60200260200101519150610c19826000015184846020015161183d565b848281518110610c2557fe5b6020908102919091010152600101610be7565b6001600160a01b031660009081526020819052604090205490565b60608088610c7d610c62610dae565b6001600160a01b0316336001600160a01b03161460cd61182b565b610c92610c886109ce565b82146101f461182b565b610c9b8761203a565b6000806000610caf8d8d8d8d8d8d8d611cec565b925092509250610cbf8c8461209c565b610cc882611da6565b610cd181611da6565b610cd96117b9565b15610ce657610ce6611ab7565b909c909b509950505050505050505050565b6001600160a01b031660009081526006602052604090205490565b60007f000000000000000000000000000000000000000000000000000000000000000082604051602001610d4892919061514a565b604051602081830303815290604052805190602001209050919050565b60006060610d7586516002611cdf565b610afa898989898989896120a6612126611e24565b7f000000000000000000000000000000000000000000000000000000000000000090565b7f000000000000000000000000000000000000000000000000000000000000000090565b60048054604080516020601f60026000196101006001881615020190951694909404938401819004810282018101909252828152606093909290918301828280156107475780601f1061071c57610100808354040283529160200191610747565b600a5490565b6000610e43611a64565b8360800151610e53610c62610dae565b610e5e610c886109ce565b60007f00000000000000000000000000000000000000000000000000000000000000006001600160a01b031686602001516001600160a01b03161490506000610ea682612184565b90506000610eb48315612184565b90506000610ec1846121d8565b90506000610ecf85156121d8565b9050610edb898561222c565b9850610ee7888461222c565b9750610f108a60a0015186610efc5789610efe565b8a5b87610f09578b610f0b565b8a5b612238565b60008a516001811115610f1f57fe5b1415610f8d576000610f3d610f32610abd565b60608d01519061233e565b9050610f5f610f59828d6060015161165390919063ffffffff16565b8661222c565b60608c01526000610f738c8c8c8787612382565b9050610f7f818661239f565b985050505050505050610fe0565b610f9b8a606001518461222c565b60608b01526000610faf8b8b8b86866123ab565b9050610fbb81866123be565b9050610fd7610fd0610fcb610abd565b6123ca565b82906123f0565b97505050505050505b509392505050565b600080610ff53385611573565b905080831061100f5761100a338560006116a5565b61101c565b61101c33858584036116a5565b5060019392505050565b600061075e338484611996565b60006109b0612432565b6000610a5a82611983565b60008061105f8361105a60095461181e565b6124ac565b905061092281611983565b61040090565b60006109578484846124db565b610b8181612502565b600080611091610dae565b6001600160a01b031663f94d46686110a76109ce565b6040518263ffffffff1660e01b81526004016110c3919061529f565b60006040518083038186803b1580156110db57600080fd5b505afa1580156110ef573d6000803e3d6000fd5b505050506040513d6000823e601f3d908101601f1916820160405261111791908101906148ba565b509150506111248161203a565b600061112e61258f565b905061113a81836125fe565b9250505090565b61114961456f565b6040805160e0810190915280611160846000612670565b81526020016111708460006126bb565b8152602001611180846001612670565b81526020016111908460016126bb565b81526020016111a0846002612670565b81526020016111b08460026126bb565b81526020016111be846126ff565b905292915050565b60006111d48585858561270b565b95945050505050565b606082516001600160401b03811180156111f657600080fd5b5060405190808252806020026020018201604052801561123057816020015b61121d6145ac565b8152602001906001900390816112155790505b50905060005b83518110156112a95760008061125f86848151811061125157fe5b602002602001015186612736565b915091506040518060400160405280611277846126ff565b8152602001611285836126ff565b81525084848151811061129457fe5b60209081029190910101525050600101611236565b5092915050565b6112be8442111560d161182b565b6001600160a01b0387166000908152600660209081526040808320549051909291611315917f0000000000000000000000000000000000000000000000000000000000000000918c918c918c9188918d91016152c7565b6040516020818303038152906040528051906020012090506000611338826127e9565b905060006001828888886040516000815260200160405260405161135f9493929190615327565b6020604051602081039080840390855afa158015611381573d6000803e3d6000fd5b5050604051601f19015191506113c390506001600160a01b038216158015906113bb57508b6001600160a01b0316826001600160a01b0316145b6101f861182b565b6001600160a01b038b1660009081526006602052604090206001850190556113ec8b8b8b6116a5565b5050505050505050505050565b42859003600061140c8287878787612805565b90507fa7f3e984c65d79d0fa58244dddb6522f661c9dea23fe4940801cbfe0881075068682141582604051611442929190615277565b60405180910390a150505050505050565b60608088611462610c62610dae565b61146d610c886109ce565b611475611a64565b600061147f61077c565b6114ef5761148f8b8b8b8861285c565b945090506114a4620f424082101560cc61182b565b6114b26000620f42406128e5565b6114c189620f424083036128e5565b6114ca84612126565b604080516002808252606082018352909160208301908036833701905050925061155d565b6114f88861203a565b61152b878960008151811061150957fe5b60200260200101518a60018151811061151e57fe5b6020026020010151612238565b61153a8b8b8b8b8b8b8b6120a6565b9095509350905061154b89826128e5565b61155484612126565b61155d83611da6565b611565611ab7565b505097509795505050505050565b6001600160a01b03918216600090815260016020908152604080832093909416825291909152205490565b60005b82518110156115e2576115da8382815181106115b957fe5b60200260200101518383815181106115cd57fe5b6020026020010151610929565b6001016115a1565b505050565b60606109b061258f565b6115f961456f565b600061160887878787876128ef565b905061161381611141565b979650505050505050565b6201de2090565b6000828201610922848210158361182b565b600061092283836055611669565b600061092283836056611690565b600061166383831115600161182b565b50900390565b60006001821b198416828461167f576000611682565b60015b60ff16901b17949350505050565b6001600160401b03811b1992909216911b1790565b6001600160a01b0380841660008181526001602090815260408083209487168084529490915290819020849055517f8c5be1e5ebec7d5bd14f71427d1e84f3dd0314c0f7b2291e5b200ac8c7c3b9259061170090859061529f565b60405180910390a3505050565b60006117246000356001600160e01b031916610d13565b9050610779611733823361294f565b61019161182b565b801561175b5761175661174c6117d6565b421061019361182b565b611770565b6117706117666117fa565b42106101a961182b565b6007805460ff19168215151790556040517f9e3a5e37224532dea67b89face185703738a228a6e8a23dee546960180d3be64906117ae90839061526c565b60405180910390a150565b60006117c36117fa565b4211806109b057505060075460ff161590565b7f000000000000000000000000000000000000000000000000000000000000000090565b7f000000000000000000000000000000000000000000000000000000000000000090565b6000610a5a82604b612a38565b816118395761183981612a40565b5050565b600061184e8242101561013861182b565b42829003600061185d85611f42565b9050600061186a826126ff565b905061187b6000821161013961182b565b8281116118a75780830380611890848a612670565b0261189b848a6126bb565b01945050505050610922565b60006118b287612a93565b905060006118bf82611f42565b905060006118cc826126ff565b90506118dd6000821161013961182b565b6118ec8682111561013a61182b565b50506000806118fb8684612736565b91509150600061190a836126ff565b611913836126ff565b039050801561196b576000611928848d6126bb565b611932848e6126bb565b0390506000611940856126ff565b89039050828183028161194f57fe5b0561195a868f6126bb565b019950505050505050505050610922565b611975838c6126bb565b975050505050505050610922565b6000610a5a655af3107a40008302612aa0565b6119ad6001600160a01b038416151561019861182b565b6119c46001600160a01b038316151561019961182b565b6119cf8383836115e2565b6001600160a01b0383166000908152602081905260409020546119f590826101a0612e7b565b6001600160a01b038085166000908152602081905260408082209390935590841681522054611a249082611625565b6001600160a01b0380841660008181526020819052604090819020939093559151908516906000805160206154d88339815191529061170090859061529f565b610991611a6f6117b9565b61019261182b565b600954611a849082611637565b6009556040517f3e350b41e86a8e10f804ade6d35340d620be35569cc75ac943e8bb14ab80ead1906117ae90839061526c565b600954611ac381611c85565b1561077957611add611ad6600a54611c9f565b8290612e91565b9050610b81611af2611aed61077c565b611c9f565b8290612e9e565b60007f00000000000000000000000000000000000000000000000000000000000000007f00000000000000000000000000000000000000000000000000000000000000007f0000000000000000000000000000000000000000000000000000000000000000611b66612eac565b30604051602001611b7b9594939291906152fb565b60405160208183030381529060405280519060200120905090565b611ba964e8d4a5100082101560cb61182b565b611bbf67016345785d8a000082111560ca61182b565b600954611bcc9082611645565b6009556040517fa9ba3ffe0b6c366b81232caab38605a0699ad5398d6cce76f91ee809e322dafc906117ae90839061529f565b6000611c0b8282612eb0565b611c1684601f612eb4565b611c21866054612ec5565b611c2c88606a612eb4565b611c378a609f612ec5565b611c428c60b5612eb4565b611c4d8e60ea612ec5565b17171717171798975050505050505050565b6000610a5a8282612ed2565b6000610a5a826016612ed2565b6000610a5a82602c612ef9565b6000610a5a826055612f03565b6000610a5a826056612f0d565b600080611cab83612f1a565b90506000808213611cc457652d79883d20008203611cce565b652d79883d200082015b655af3107a40009005949350505050565b611839818314606761182b565b60006060806000611cfb61258f565b9050611d056117b9565b15611d4d57611d1b878960008151811061150957fe5b6000611d27828a6125fe565b9050611d388983600a54848b612f76565b9250611d47898461165361305b565b50611d6e565b60408051600280825260608201835290916020830190803683370190505091505b611d798882876130ed565b9094509250611d8b888461165361305b565b611d9581896125fe565b600a55509750975097945050505050565b611dcd81600081518110611db657fe5b6020026020010151611dc86001612184565b61315a565b81600081518110611dda57fe5b602002602001018181525050611e0881600181518110611df657fe5b6020026020010151611dc86000612184565b81600181518110611e1557fe5b60200260200101818152505050565b333014611ee2576000306001600160a01b0316600036604051611e48929190615162565b6000604051808303816000865af19150503d8060008114611e85576040519150601f19603f3d011682016040523d82523d6000602084013e611e8a565b606091505b505090508060008114611e9957fe5b60046000803e6000516001600160e01b0319166343adbafb60e01b8114611ec4573d6000803e3d6000fd5b506020600460003e604060205260243d03602460403e601c3d016000f35b611eeb8661203a565b600080611f018b8b8b8b8b8b8b8b63ffffffff16565b5091509150611f13818463ffffffff16565b8051601f1982018390526343adbafb603f1983015260200260231982016044820181fd5b505050505050505050565b60009081526008602052604090205490565b6000806000806000806000611f688861317a565b9650611f7388613187565b9550611f7e88613194565b9450611f89886131a1565b9350611f94886131ae565b9250611f9f886131bb565b9150611faa886126ff565b9050919395979092949650565b6000828202610922841580611fd4575083858381611fd157fe5b04145b600361182b565b6000611fea821515600461182b565b82611ff757506000610762565b670de0b6b3a76400008381029061201a9085838161201157fe5b0414600561182b565b82818161202357fe5b04915050610762565b60006109228383604b6131c8565b6120618160008151811061204a57fe5b602002602001015161205c6001612184565b611fb7565b8160008151811061206e57fe5b602002602001018181525050611e088160018151811061208a57fe5b602002602001015161205c6000612184565b61183982826131d8565b600060608060006120b561258f565b905060006120c3828a6125fe565b905060006120d68a84600a54858c612f76565b90506120e58a8261165361305b565b6000806120f38c868b613282565b915091506121048c8261162561305b565b61210e858d6125fe565b600a55909e909d50909b509950505050505050505050565b61214d8160008151811061213657fe5b60200260200101516121486001612184565b6132dc565b8160008151811061215a57fe5b602002602001018181525050611e088160018151811061217657fe5b602002602001015161214860005b6000816121b1577f0000000000000000000000000000000000000000000000000000000000000000610a5a565b507f0000000000000000000000000000000000000000000000000000000000000000919050565b600081612205577f0000000000000000000000000000000000000000000000000000000000000000610a5a565b507f0000000000000000000000000000000000000000000000000000000000000000919050565b60006109228383611fb7565b60095461224481611c85565b801561224f57508343115b156123385760006122a27f0000000000000000000000000000000000000000000000000000000000000000857f00000000000000000000000000000000000000000000000000000000000000008661270b565b905060006122d97f0000000000000000000000000000000000000000000000000000000000000000866122d486611c6b565b6124db565b905060006122e68461181e565b905060006122f385611c78565b9050600061230c828487876123078b611c5f565b612805565b9050808314611f375761231f868261202c565b955061232b864261330f565b6009819055955050505050505b50505050565b6000828202612358841580611fd4575083858381611fd157fe5b80612367576000915050610762565b670de0b6b3a764000060001982015b04600101915050610762565b6000612395858486858a6060015161331d565b9695505050505050565b6000610922838361315a565b6000612395858486858a6060015161338a565b600061092283836132dc565b6000670de0b6b3a764000082106123e2576000610a5a565b50670de0b6b3a76400000390565b60006123ff821515600461182b565b8261240c57506000610762565b670de0b6b3a7640000838102906124269085838161201157fe5b82600182038161237657fe5b600061243c610dae565b6001600160a01b031663aaabadc56040518163ffffffff1660e01b815260040160206040518083038186803b15801561247457600080fd5b505afa158015612488573d6000803e3d6000fd5b505050506040513d601f19601f820116820180604052508101906109b09190614d7d565b6000806124b883611f42565b90506124d160006124c8836126ff565b1161013961182b565b6109578185612670565b6000806124e884866123f0565b905060006124f582611c9f565b9390930395945050505050565b600061251b8260a001518261164590919063ffffffff16565b905061253482608001518261163790919063ffffffff16565b905061254d82606001518261202c90919063ffffffff16565b905061256682604001518261330f90919063ffffffff16565b905061257f826020015182612e9e90919063ffffffff16565b8251909150610a5a908290612e91565b604080516002808252606080830184529260009291906020830190803683370190505090506125be60016121d8565b816000815181106125cb57fe5b6020026020010181815250506125e160006121d8565b816001815181106125ee57fe5b6020908102919091010152905090565b670de0b6b3a764000060005b83518110156126605761265661264f85838151811061262557fe5b602002602001015185848151811061263957fe5b602002602001015161340090919063ffffffff16565b839061344f565b915060010161260a565b506107626000821161013761182b565b60008082600281111561267f57fe5b14156126955761268e8361317a565b9050610762565b60018260028111156126a357fe5b14156126b25761268e83613194565b61268e836131ae565b6000808260028111156126ca57fe5b14156126d95761268e83613187565b60018260028111156126e757fe5b14156126f65761268e836131a1565b61268e836131bb565b6000610a5a8282612ef9565b60008061272b61271b84866123f0565b61272587896123f0565b906123f0565b905061239581611c9f565b600080806103ff8180805b8385116127ad57600285850104612758818a61347b565b935061276384611f42565b925061276e836126ff565b915089821015612783578060010195506127a7565b89821115612796576001810394506127a7565b8283975097505050505050506127e2565b50612741565b8881106127cb576127c56127c08461348c565b611f42565b826127d8565b816127d86127c085612a93565b9650965050505050505b9250929050565b60006127f3611af9565b82604051602001610d48929190615172565b600080612821858585426128188b611f42565b939291906128ef565b9050607842889003101580612836578661283f565b61283f87612a93565b600081815260086020526040902092909255509695505050505050565b60006060600061286b84613499565b9050612886600082600281111561287e57fe5b1460ce61182b565b6000612891856134af565b905061289f81516002611cdf565b6128a88161203a565b60006128b261258f565b905060006128c082846125fe565b905060006128cf826002611fb7565b600a929092555099919850909650505050505050565b61183982826134c5565b6000806128fb876126ff565b83039050600081870261290d89613187565b019050600082870261291e8a6131a1565b019050600083870261292f8b6131bb565b01905061294189848a858b868c611bff565b9a9950505050505050505050565b600073ba1ba1ba1ba1ba1ba1ba1ba1ba1ba1ba1ba1ba1b61296e610d8a565b6001600160a01b031614158015612989575061298983613541565b156129b157612996610d8a565b6001600160a01b0316336001600160a01b0316149050610762565b6129b9612432565b6001600160a01b0316639be2a8848484306040518463ffffffff1660e01b81526004016129e8939291906152a8565b60206040518083038186803b158015612a0057600080fd5b505afa158015612a14573d6000803e3d6000fd5b505050506040513d601f19601f8201168201806040525081019061268e9190614c45565b1c6103ff1690565b62461bcd60e51b6000908152602060045260076024526642414c23000030600a808404818106603090810160081b95839006959095019082900491820690940160101b939093010160c81b604452606490fd5b6000610a5a82600161347b565b6000612acf680238fd42c5cf03ffff198312158015612ac8575068070c1cc73b00c800008313155b600961182b565b6000821215612b0257612ae482600003612aa0565b6a0c097ce7bc90715b34b9f160241b81612afa57fe5b059050610a5d565b60006806f05b59d3b20000008312612b4057506806f05b59d3b1ffffff199091019072195e54c5dd42177f53a27172fa9ec63026282760241b612b76565b6803782dace9d90000008312612b7257506803782dace9d8ffffff19909101906b1425982cf597cd205cef7380612b76565b5060015b6064929092029168056bc75e2d6310000068ad78ebc5ac620000008412612bc65768ad78ebc5ac61ffffff199093019268056bc75e2d631000006e01855144814a7ff805980ff008400082020590505b6856bc75e2d6310000008412612c02576856bc75e2d630ffffff199093019268056bc75e2d631000006b02df0ab5a80a22c61ab5a70082020590505b682b5e3af16b188000008412612c3c57682b5e3af16b187fffff199093019268056bc75e2d63100000693f1fce3da636ea5cf85082020590505b6815af1d78b58c4000008412612c76576815af1d78b58c3fffff199093019268056bc75e2d63100000690127fa27722cc06cc5e282020590505b680ad78ebc5ac62000008412612caf57680ad78ebc5ac61fffff199093019268056bc75e2d6310000068280e60114edb805d0382020590505b68056bc75e2d631000008412612ce85768056bc75e2d630fffff199093019268056bc75e2d63100000680ebc5fb4174612111082020590505b6802b5e3af16b18800008412612d21576802b5e3af16b187ffff199093019268056bc75e2d631000006808f00f760a4b2db55d82020590505b68015af1d78b58c400008412612d5a5768015af1d78b58c3ffff199093019268056bc75e2d631000006806f5f177578893793782020590505b68056bc75e2d631000008481019085906002908280020505918201919050600368056bc75e2d631000008783020505918201919050600468056bc75e2d631000008783020505918201919050600568056bc75e2d631000008783020505918201919050600668056bc75e2d631000008783020505918201919050600768056bc75e2d631000008783020505918201919050600868056bc75e2d631000008783020505918201919050600968056bc75e2d631000008783020505918201919050600a68056bc75e2d631000008783020505918201919050600b68056bc75e2d631000008783020505918201919050600c68056bc75e2d631000008783020505918201919050606468056bc75e2d63100000848402058502059695505050505050565b6000612e8a848411158361182b565b5050900390565b6000610922838383613573565b600061092283836016613573565b4690565b1b90565b661fffffffffffff91909116901b90565b623fffff91909116901b90565b600082821c623fffff16621fffff8113612eec5780610957565b623fffff19179392505050565b1c637fffffff1690565b1c60019081161490565b1c6001600160401b031690565b6000612f2a60008313606461182b565b670c7d713b49da000082138015612f485750670f43fc2c04ee000082125b15612f6657670de0b6b3a7640000612f5f8361358a565b81612afa57fe5b612f6f826136a8565b9050610a5d565b6040805160028082526060808301845292600092919060208301908036833701905050905082612fa75790506111d4565b61301a877f000000000000000000000000000000000000000000000000000000000000000081518110612fd657fe5b6020026020010151877f00000000000000000000000000000000000000000000000000000000000000008151811061300a57fe5b6020026020010151878787613a41565b817f00000000000000000000000000000000000000000000000000000000000000008151811061304657fe5b60209081029190910101529695505050505050565b6130918360008151811061306b57fe5b60200260200101518360008151811061308057fe5b60200260200101518363ffffffff16565b8360008151811061309e57fe5b6020026020010181815250506130cf836001815181106130ba57fe5b60200260200101518360018151811061308057fe5b836001815181106130dc57fe5b602002602001018181525050505050565b6000606060006130fc84613499565b9050600081600281111561310c57fe5b14156131275761311d868686613ab9565b9250925050613152565b600181600281111561313557fe5b14156131455761311d8685613b6a565b61311d868686613b9c565b505b935093915050565b6000613169821515600461182b565b81838161317257fe5b049392505050565b6000610a5a8260ea612ed2565b6000610a5a8260b5613c07565b6000610a5a82609f612ed2565b6000610a5a82606a613c07565b6000610a5a826054612ed2565b6000610a5a82601f613c07565b6103ff811b1992909216911b1790565b6131ef6001600160a01b038316151561019b61182b565b6131fb826000836115e2565b6001600160a01b03821660009081526020819052604090205461322190826101a1612e7b565b6001600160a01b0383166000908152602081905260409020556002546132479082613c3a565b6002556040516000906001600160a01b038416906000805160206154d88339815191529061327690859061529f565b60405180910390a35050565b60006060600061329184613499565b905060018160028111156132a157fe5b14156132b25761311d868686613c48565b60028160028111156132c057fe5b14156132d15761311d868686613c9e565b613150610136612a40565b60006132eb821515600461182b565b826132f857506000610762565b81600184038161330457fe5b046001019050610762565b60006109228383602c613d22565b600061333f61333487670429d069189e000061344f565b83111561013061182b565b600061334b8784611625565b9050600061335988836123f0565b905060006133678887611fdb565b905060006133758383613d34565b9050612941613383826123ca565b899061344f565b60006133ac6133a185670429d069189e000061344f565b83111561013161182b565b60006133c26133bb8685611653565b86906123f0565b905060006133d085886123f0565b905060006133de8383613d34565b905060006133f482670de0b6b3a7640000611653565b90506129418a8261233e565b60008061340d8484613d60565b905060006134276134208361271061233e565b6001611625565b90508082101561343c57600092505050610762565b6134468282611653565b92505050610762565b6000828202613469841580611fd4575083858381611fd157fe5b670de0b6b3a764000090049392505050565b60006104008383015b069392505050565b6000610a5a826001613e61565b600081806020019051810190610a5a9190614d99565b6060818060200190518101906109229190614e5e565b6134d1600083836115e2565b6002546134de9082611625565b6002556001600160a01b0382166000908152602081905260409020546135049082611625565b6001600160a01b0383166000818152602081905260408082209390935591519091906000805160206154d88339815191529061327690859061529f565b6000613553631c74c91760e11b610d13565b821480610a5a575061356b6350dd6ed960e01b610d13565b909114919050565b623fffff828116821b90821b198416179392505050565b670de0b6b3a7640000026000806a0c097ce7bc90715b34b9f160241b808401906ec097ce7bc90715b34b9f0fffffffff19850102816135c557fe5b05905060006a0c097ce7bc90715b34b9f160241b82800205905081806a0c097ce7bc90715b34b9f160241b81840205915060038205016a0c097ce7bc90715b34b9f160241b82840205915060058205016a0c097ce7bc90715b34b9f160241b82840205915060078205016a0c097ce7bc90715b34b9f160241b82840205915060098205016a0c097ce7bc90715b34b9f160241b828402059150600b8205016a0c097ce7bc90715b34b9f160241b828402059150600d8205016a0c097ce7bc90715b34b9f160241b828402059150600f826002919005919091010295945050505050565b6000670de0b6b3a76400008212156136e4576136da826a0c097ce7bc90715b34b9f160241b816136d457fe5b056136a8565b6000039050610a5d565b6000775803bcc5cb9634ba4cfb2213f784019318ed4dcb6017880f60361b831261372f5772195e54c5dd42177f53a27172fa9ec63026282760241b830592506806f05b59d3b2000000015b73011798004d755d3c8bc8e03204cf44619e0000008312613767576b1425982cf597cd205cef7380830592506803782dace9d9000000015b606492830292026e01855144814a7ff805980ff008400083126137af576e01855144814a7ff805980ff008400068056bc75e2d63100000840205925068ad78ebc5ac62000000015b6b02df0ab5a80a22c61ab5a70083126137ea576b02df0ab5a80a22c61ab5a70068056bc75e2d6310000084020592506856bc75e2d631000000015b693f1fce3da636ea5cf850831261382157693f1fce3da636ea5cf85068056bc75e2d631000008402059250682b5e3af16b18800000015b690127fa27722cc06cc5e2831261385857690127fa27722cc06cc5e268056bc75e2d6310000084020592506815af1d78b58c400000015b68280e60114edb805d03831261388d5768280e60114edb805d0368056bc75e2d631000008402059250680ad78ebc5ac6200000015b680ebc5fb4174612111083126138b857680ebc5fb4174612111068056bc75e2d631000009384020592015b6808f00f760a4b2db55d83126138ed576808f00f760a4b2db55d68056bc75e2d6310000084020592506802b5e3af16b1880000015b6806f5f17757889379378312613922576806f5f177578893793768056bc75e2d63100000840205925068015af1d78b58c40000015b6806248f33704b2866038312613956576806248f33704b28660368056bc75e2d63100000840205925067ad78ebc5ac620000015b6805c548670b9510e7ac831261398a576805c548670b9510e7ac68056bc75e2d6310000084020592506756bc75e2d6310000015b600068056bc75e2d63100000840168056bc75e2d6310000080860302816139ad57fe5b059050600068056bc75e2d63100000828002059050818068056bc75e2d63100000818402059150600382050168056bc75e2d63100000828402059150600582050168056bc75e2d63100000828402059150600782050168056bc75e2d63100000828402059150600982050168056bc75e2d63100000828402059150600b820501600202606485820105979650505050505050565b6000838311613a52575060006111d4565b6000613a5e85856123f0565b90506000613a74670de0b6b3a764000088611fdb565b9050613a88826709b6e64a8ec60000613e70565b91506000613a968383613d34565b90506000613aad613aa6836123ca565b8b9061344f565b9050612941818761344f565b60006060613ac5611a64565b600080613ad185613e87565b91509150613ae360028210606461182b565b604080516002808252606082018352600092602083019080368337019050509050613b45888381518110613b1357fe5b6020026020010151888481518110613b2757fe5b602002602001015185613b3861077c565b613b40610abd565b613ea9565b818381518110613b5157fe5b6020908102919091010152919791965090945050505050565b600060606000613b7984613f69565b90506000613b8f8683613b8a61077c565b613f7f565b9196919550909350505050565b60006060613ba8611a64565b600080613bb485614030565b91509150613bc482516002611cdf565b613bcd8261203a565b6000613bea888885613bdd61077c565b613be5610abd565b614048565b9050613bfa8282111560cf61182b565b9791965090945050505050565b600082821c661fffffffffffff16660fffffffffffff8113613c295780610957565b661fffffffffffff19179392505050565b600061092283836001612e7b565b60006060600080613c5885614030565b91509150613c6882516002611cdf565b613c718261203a565b6000613c8e888885613c8161077c565b613c89610abd565b61427b565b9050613bfa8282101560d061182b565b60006060600080613cae85613e87565b91509150613cc060028210606461182b565b604080516002808252606082018352600092602083019080368337019050509050613b45888381518110613cf057fe5b6020026020010151888481518110613d0457fe5b602002602001015185613d1561077c565b613d1d610abd565b61448b565b637fffffff811b1992909216911b1790565b600080613d418484613d60565b90506000613d546134208361271061233e565b90506111d48282611625565b600081613d765750670de0b6b3a7640000610762565b82613d8357506000610762565b613d94600160ff1b8410600661182b565b82613dba770bce5086492111aea88f4bb1ca6bcf584181ea8059f765328410600761182b565b826000670c7d713b49da000083138015613ddb5750670f43fc2c04ee000083125b15613e12576000613deb8461358a565b9050670de0b6b3a764000080820784020583670de0b6b3a764000083050201915050613e20565b81613e1c846136a8565b0290505b670de0b6b3a76400009005613e58680238fd42c5cf03ffff198212801590613e51575068070c1cc73b00c800008213155b600861182b565b61239581612aa0565b60006104008284038101613484565b600081831015613e805781610922565b5090919050565b60008082806020019051810190613e9e9190614e28565b909590945092505050565b600080613eba846127258188611653565b9050613ed36709b6e64a8ec6000082101561013261182b565b6000613ef1613eea670de0b6b3a764000089611fdb565b8390613d34565b90506000613f08613f01836123ca565b8a9061344f565b90506000613f15896123ca565b90506000613f23838361233e565b90506000613f318483611653565b9050613f59613f52613f4b670de0b6b3a76400008b611653565b849061344f565b8290611625565b9c9b505050505050505050505050565b6000818060200190518101906109229190614dfb565b60606000613f8d8484611fdb565b9050600085516001600160401b0381118015613fa857600080fd5b50604051908082528060200260200182016040528015613fd2578160200160208202803683370190505b50905060005b86518110156140265761400783888381518110613ff157fe5b602002602001015161344f90919063ffffffff16565b82828151811061401357fe5b6020908102919091010152600101613fd8565b5095945050505050565b6060600082806020019051810190613e9e9190614db5565b60008084516001600160401b038111801561406257600080fd5b5060405190808252806020026020018201604052801561408c578160200160208202803683370190505b5090506000805b8851811015614151576140ec8982815181106140ab57fe5b60200260200101516127258984815181106140c257fe5b60200260200101518c85815181106140d657fe5b602002602001015161165390919063ffffffff16565b8382815181106140f857fe5b60200260200101818152505061414761414089838151811061411657fe5b602002602001015185848151811061412a57fe5b602002602001015161233e90919063ffffffff16565b8390611625565b9150600101614093565b50670de0b6b3a764000060005b895181101561425a57600084828151811061417557fe5b60200260200101518411156141dc57600061419e614192866123ca565b8d8581518110613ff157fe5b905060006141b2828c86815181106140d657fe5b90506141d36141406141cc670de0b6b3a76400008c611653565b83906123f0565b925050506141f3565b8882815181106141e857fe5b602002602001015190505b600061421c8c848151811061420457fe5b6020026020010151610b6e848f87815181106140d657fe5b905061424e6142478c858151811061423057fe5b60200260200101518361340090919063ffffffff16565b859061344f565b9350505060010161415e565b5061426e614267826123ca565b879061233e565b9998505050505050505050565b60008084516001600160401b038111801561429557600080fd5b506040519080825280602002602001820160405280156142bf578160200160208202803683370190505b5090506000805b88518110156143675761431f8982815181106142de57fe5b6020026020010151610b6e8984815181106142f557fe5b60200260200101518c858151811061430957fe5b602002602001015161162590919063ffffffff16565b83828151811061432b57fe5b60200260200101818152505061435d61414089838151811061434957fe5b6020026020010151858481518110613ff157fe5b91506001016142c6565b50670de0b6b3a764000060005b89518110156144485760008385838151811061438c57fe5b602002602001015111156143e85760006143b161419286670de0b6b3a7640000611653565b905060006143c5828c86815181106140d657fe5b90506143df61414061264f670de0b6b3a76400008c611653565b925050506143ff565b8882815181106143f457fe5b602002602001015190505b60006144288c848151811061441057fe5b6020026020010151610b6e848f878151811061430957fe5b905061443c6142478c858151811061423057fe5b93505050600101614374565b50670de0b6b3a764000081111561447f5761447561446e82670de0b6b3a7640000611653565b879061344f565b93505050506111d4565b600093505050506111d4565b60008061449c846127258188611625565b90506144b56729a2241af62c000082111561013361182b565b60006144cc613eea670de0b6b3a7640000896123f0565b905060006144ec6144e583670de0b6b3a7640000611653565b8a9061233e565b905060006144f9896123ca565b90506000614507838361233e565b905060006145158483611653565b9050613f59613f5261452f670de0b6b3a76400008b611653565b84906123f0565b6040805160608101909152806000815260200160008152602001600081525090565b604080518082019091526000808252602082015290565b6040518060e00160405280600081526020016000815260200160008152602001600081526020016000815260200160008152602001600081525090565b604051806040016040528060008152602001600081525090565b8035610a5d816154a7565b600082601f8301126145e1578081fd5b813560206145f66145f18361548a565b615467565b8281528181019085830183850287018401881015614612578586fd5b855b8581101561463057813584529284019290840190600101614614565b5090979650505050505050565b600082601f83011261464d578081fd5b8151602061465d6145f18361548a565b8281528181019085830183850287018401881015614679578586fd5b855b858110156146305781518452928401929084019060010161467b565b600082601f8301126146a7578081fd5b81356001600160401b038111156146ba57fe5b6146cd601f8201601f1916602001615467565b8181528460208386010111156146e1578283fd5b816020850160208301379081016020019190915292915050565b803560028110610a5d57600080fd5b600060e0828403121561471b578081fd5b60405160e081018181106001600160401b038211171561473757fe5b8060405250809150823581526020830135602082015260408301356040820152606083013560608201526080830135608082015260a083013560a082015260c083013560c08201525092915050565b600060208284031215614797578081fd5b8135610922816154a7565b600080604083850312156147b4578081fd5b82356147bf816154a7565b915060208301356147cf816154a7565b809150509250929050565b6000806000606084860312156147ee578081fd5b83356147f9816154a7565b92506020840135614809816154a7565b929592945050506040919091013590565b600080600080600080600060e0888a031215614834578485fd5b873561483f816154a7565b9650602088013561484f816154a7565b95506040880135945060608801359350608088013560ff81168114614872578384fd5b9699959850939692959460a0840135945060c09093013592915050565b600080604083850312156148a1578182fd5b82356148ac816154a7565b946020939093013593505050565b6000806000606084860312156148ce578081fd5b83516001600160401b03808211156148e4578283fd5b818601915086601f8301126148f7578283fd5b815160206149076145f18361548a565b82815281810190858301838502870184018c1015614923578788fd5b8796505b8487101561494e57805161493a816154a7565b835260019690960195918301918301614927565b5091890151919750909350505080821115614967578283fd5b506149748682870161463d565b925050604084015190509250925092565b60006020808385031215614997578182fd5b82356001600160401b03808211156149ad578384fd5b818501915085601f8301126149c0578384fd5b81356149ce6145f18261548a565b818152848101908486016040808502870188018b10156149ec578889fd5b8896505b84871015614a465780828c031215614a06578889fd5b80518181018181108882111715614a1957fe5b82528235614a26816154ca565b8152828901358982015284526001969096019592870192908101906149f0565b50909998505050505050505050565b60006020808385031215614a67578182fd5b82356001600160401b0380821115614a7d578384fd5b818501915085601f830112614a90578384fd5b8135614a9e6145f18261548a565b818152848101908486016060808502870188018b1015614abc578889fd5b8896505b84871015614a465780828c031215614ad6578889fd5b604080518281018181108982111715614aeb57fe5b82528335614af8816154ca565b8152838a01358a82015281840135918101919091528452600196909601959287019290810190614ac0565b60008060408385031215614b35578182fd5b82356001600160401b0380821115614b4b578384fd5b614b57868387016145d1565b9350602091508185013581811115614b6d578384fd5b85019050601f81018613614b7f578283fd5b8035614b8d6145f18261548a565b8181528381019083850160e0808502860187018b1015614bab578788fd5b8795505b84861015614bd757614bc18b8361470a565b8452600195909501949286019290810190614baf565b5096999098509650505050505050565b60008060408385031215614bf9578182fd5b82356001600160401b03811115614c0e578283fd5b614c1a858286016145d1565b95602094909401359450505050565b600060208284031215614c3a578081fd5b8135610922816154bc565b600060208284031215614c56578081fd5b8151610922816154bc565b600060208284031215614c72578081fd5b5035919050565b600080600080600080600060e0888a031215614c93578081fd5b873596506020880135614ca5816154a7565b95506040880135614cb5816154a7565b945060608801356001600160401b0380821115614cd0578283fd5b614cdc8b838c016145d1565b955060808a0135945060a08a0135935060c08a0135915080821115614cff578283fd5b50614d0c8a828b01614697565b91505092959891949750929550565b600080600080600060a08688031215614d32578283fd5b505083359560208501359550604085013594606081013594506080013592509050565b600060208284031215614d66578081fd5b81356001600160e01b031981168114610922578182fd5b600060208284031215614d8e578081fd5b8151610922816154a7565b600060208284031215614daa578081fd5b8151610922816154ca565b600080600060608486031215614dc9578081fd5b8351614dd4816154ca565b60208501519093506001600160401b03811115614def578182fd5b6149748682870161463d565b60008060408385031215614e0d578182fd5b8251614e18816154ca565b6020939093015192949293505050565b600080600060608486031215614e3c578081fd5b8351614e47816154ca565b602085015160409095015190969495509392505050565b60008060408385031215614e70578182fd5b8251614e7b816154ca565b60208401519092506001600160401b03811115614e96578182fd5b614ea28582860161463d565b9150509250929050565b600060208284031215614ebd578081fd5b8135610922816154ca565b600080600060608486031215614edc578081fd5b8335614ee7816154ca565b95602085013595506040909401359392505050565b600060c08284031215614f0d578081fd5b60405160c081018181106001600160401b0382111715614f2957fe5b8060405250823581526020830135602082015260408301356040820152606083013560608201526080830135614f5e816154bc565b608082015260a0928301359281019290925250919050565b600060e08284031215614f87578081fd5b610922838361470a565b600080600060608486031215614fa5578081fd5b83356001600160401b0380821115614fbb578283fd5b8186019150610120808389031215614fd1578384fd5b614fda81615467565b9050614fe5836146fb565b8152614ff3602084016145c6565b6020820152615004604084016145c6565b6040820152606083013560608201526080830135608082015260a083013560a082015261503360c084016145c6565b60c082015261504460e084016145c6565b60e0820152610100808401358381111561505c578586fd5b6150688a828701614697565b9183019190915250976020870135975060409096013595945050505050565b600080610100838503121561509a578182fd5b823591506150ab846020850161470a565b90509250929050565b6000806000606084860312156150c8578081fd5b505081359360208301359350604090920135919050565b600080600080608085870312156150f4578182fd5b5050823594602084013594506040840135936060013592509050565b6000815180845260208085019450808401835b8381101561513f57815187529582019590820190600101615123565b509495945050505050565b9182526001600160e01b031916602082015260240190565b6000828483379101908152919050565b61190160f01b81526002810192909252602282015260420190565b6001600160a01b0391909116815260200190565b6020808252825182820181905260009190848201906040850190845b818110156151d9578351835292840192918401916001016151bd565b50909695505050505050565b602080825282518282018190526000919060409081850190868401855b8281101561522757815180518552860151868501529284019290850190600101615202565b5091979650505050505050565b6000602082526109226020830184615110565b60006040825261525a6040830185615110565b82810360208401526111d48185615110565b901515815260200190565b9115158252602082015260400190565b92151583526020830191909152604082015260600190565b90815260200190565b9283526001600160a01b03918216602084015216604082015260600190565b9586526001600160a01b0394851660208701529290931660408501526060840152608083019190915260a082015260c00190565b9485526020850193909352604084019190915260608301526001600160a01b0316608082015260a00190565b93845260ff9290921660208401526040830152606082015260800190565b968752602087019590955260408601939093526060850191909152608084015260a083015260c082015260e00190565b9586526020860194909452604085019290925260608401521515608083015260a082015260c00190565b6000602080835283518082850152825b818110156153cb578581018301518582016040015282016153af565b818111156153dc5783604083870101525b50601f01601f1916929092016040019392505050565b600060e082019050825182526020830151602083015260408301516040830152606083015160608301526080830151608083015260a083015160a083015260c083015160c083015292915050565b6000838252604060208301526109576040830184615110565b60ff91909116815260200190565b6040518181016001600160401b038111828210171561548257fe5b604052919050565b60006001600160401b0382111561549d57fe5b5060209081020190565b6001600160a01b038116811461077957600080fd5b801515811461077957600080fd5b6003811061077957600080fdfeddf252ad1be2c89b69c2b068fc378daa952ba7f163c4a11628f55a4df523b3efa2646970667358221220f93af63b7d9b7f249f97a039817de9d0028aa4e45bfe707207a4692a52ed64e664736f6c63430007060033",
  "linkReferences": {},
  "deployedLinkReferences": {}
}