{
  "_format": "hh-sol-artifact-1",
  "contractName": "MockWeightedMath",
  "sourceName": "contracts/NoProtocolFeeLiquidityBootstrappingPoolFactory.sol",
  "abi": [
    {
      "inputs": [
        {
          "internalType": "uint256[]",
          "name": "balances",
          "type": "uint256[]"
        },
        {
          "internalType": "uint256[]",
          "name": "normalizedWeights",
          "type": "uint256[]"
        },
        {
          "internalType": "uint256[]",
          "name": "amountsOut",
          "type": "uint256[]"
        },
        {
          "internalType": "uint256",
          "name": "bptTotalSupply",
          "type": "uint256"
        },
        {
          "internalType": "uint256",
          "name": "swapFee",
          "type": "uint256"
        }
      ],
      "name": "bptInForExactTokensOut",
      "outputs": [
        {
          "internalType": "uint256",
          "name": "",
          "type": "uint256"
        }
      ],
      "stateMutability": "pure",
      "type": "function"
    },
    {
      "inputs": [
        {
          "internalType": "uint256",
          "name": "balance",
          "type": "uint256"
        },
        {
          "internalType": "uint256",
          "name": "normalizedWeight",
          "type": "uint256"
        },
        {
          "internalType": "uint256",
          "name": "previousInvariant",
          "type": "uint256"
        },
        {
          "internalType": "uint256",
          "name": "currentInvariant",
          "type": "uint256"
        },
        {
          "internalType": "uint256",
          "name": "protocolSwapFeePercentage",
          "type": "uint256"
        }
      ],
      "name": "calculateDueTokenProtocolSwapFeeAmount",
      "outputs": [
        {
          "internalType": "uint256",
          "name": "",
          "type": "uint256"
        }
      ],
      "stateMutability": "pure",
      "type": "function"
    },
    {
      "inputs": [
        {
          "internalType": "uint256",
          "name": "tokenBalance",
          "type": "uint256"
        },
        {
          "internalType": "uint256",
          "name": "tokenNormalizedWeight",
          "type": "uint256"
        },
        {
          "internalType": "uint256",
          "name": "bptAmountIn",
          "type": "uint256"
        },
        {
          "internalType": "uint256",
          "name": "bptTotalSupply",
          "type": "uint256"
        },
        {
          "internalType": "uint256",
          "name": "swapFee",
          "type": "uint256"
        }
      ],
      "name": "exactBPTInForTokenOut",
      "outputs": [
        {
          "internalType": "uint256",
          "name": "",
          "type": "uint256"
        }
      ],
      "stateMutability": "pure",
      "type": "function"
    },
    {
      "inputs": [
        {
          "internalType": "uint256[]",
          "name": "currentBalances",
          "type": "uint256[]"
        },
        {
          "internalType": "uint256",
          "name": "bptAmountIn",
          "type": "uint256"
        },
        {
          "internalType": "uint256",
          "name": "totalBPT",
          "type": "uint256"
        }
      ],
      "name": "exactBPTInForTokensOut",
      "outputs": [
        {
          "internalType": "uint256[]",
          "name": "",
          "type": "uint256[]"
        }
      ],
      "stateMutability": "pure",
      "type": "function"
    },
    {
      "inputs": [
        {
          "internalType": "uint256[]",
          "name": "balances",
          "type": "uint256[]"
        },
        {
          "internalType": "uint256[]",
          "name": "normalizedWeights",
          "type": "uint256[]"
        },
        {
          "internalType": "uint256[]",
          "name": "amountsIn",
          "type": "uint256[]"
        },
        {
          "internalType": "uint256",
          "name": "bptTotalSupply",
          "type": "uint256"
        },
        {
          "internalType": "uint256",
          "name": "swapFee",
          "type": "uint256"
        }
      ],
      "name": "exactTokensInForBPTOut",
      "outputs": [
        {
          "internalType": "uint256",
          "name": "",
          "type": "uint256"
        }
      ],
      "stateMutability": "pure",
      "type": "function"
    },
    {
      "inputs": [
        {
          "internalType": "uint256",
          "name": "tokenBalanceIn",
          "type": "uint256"
        },
        {
          "internalType": "uint256",
          "name": "tokenWeightIn",
          "type": "uint256"
        },
        {
          "internalType": "uint256",
          "name": "tokenBalanceOut",
          "type": "uint256"
        },
        {
          "internalType": "uint256",
          "name": "tokenWeightOut",
          "type": "uint256"
        },
        {
          "internalType": "uint256",
          "name": "tokenAmountOut",
          "type": "uint256"
        }
      ],
      "name": "inGivenOut",
      "outputs": [
        {
          "internalType": "uint256",
          "name": "",
          "type": "uint256"
        }
      ],
      "stateMutability": "pure",
      "type": "function"
    },
    {
      "inputs": [
        {
          "internalType": "uint256[]",
          "name": "normalizedWeights",
          "type": "uint256[]"
        },
        {
          "internalType": "uint256[]",
          "name": "balances",
          "type": "uint256[]"
        }
      ],
      "name": "invariant",
      "outputs": [
        {
          "internalType": "uint256",
          "name": "",
          "type": "uint256"
        }
      ],
      "stateMutability": "pure",
      "type": "function"
    },
    {
      "inputs": [
        {
          "internalType": "uint256",
          "name": "tokenBalanceIn",
          "type": "uint256"
        },
        {
          "internalType": "uint256",
          "name": "tokenWeightIn",
          "type": "uint256"
        },
        {
          "internalType": "uint256",
          "name": "tokenBalanceOut",
          "type": "uint256"
        },
        {
          "internalType": "uint256",
          "name": "tokenWeightOut",
          "type": "uint256"
        },
        {
          "internalType": "uint256",
          "name": "tokenAmountIn",
          "type": "uint256"
        }
      ],
      "name": "outGivenIn",
      "outputs": [
        {
          "internalType": "uint256",
          "name": "",
          "type": "uint256"
        }
      ],
      "stateMutability": "pure",
      "type": "function"
    },
    {
      "inputs": [
        {
          "internalType": "uint256",
          "name": "tokenBalance",
          "type": "uint256"
        },
        {
          "internalType": "uint256",
          "name": "tokenNormalizedWeight",
          "type": "uint256"
        },
        {
          "internalType": "uint256",
          "name": "bptAmountOut",
          "type": "uint256"
        },
        {
          "internalType": "uint256",
          "name": "bptTotalSupply",
          "type": "uint256"
        },
        {
          "internalType": "uint256",
          "name": "swapFee",
          "type": "uint256"
        }
      ],
      "name": "tokenInForExactBPTOut",
      "outputs": [
        {
          "internalType": "uint256",
          "name": "",
          "type": "uint256"
        }
      ],
      "stateMutability": "pure",
      "type": "function"
    }
  ],
  "bytecode": "0x608060405234801561001057600080fd5b506118d7806100206000396000f3fe608060405234801561001057600080fd5b50600436106100935760003560e01c8063567853711161006657806356785371146101075780635b55b24a1461011a57806398f59bca1461012d578063c2546cc314610140578063fab3b9d71461015357610093565b80631b02e9a8146100985780631c855fa6146100c15780632e752149146100e15780634b114ddf146100f4575b600080fd5b6100ab6100a636600461181a565b610166565b6040516100b89190611898565b60405180910390f35b6100d46100cf3660046117ce565b610181565b6040516100b89190611854565b6100ab6100ef366004611738565b610196565b6100ab61010236600461181a565b6101a5565b6100ab6101153660046116d7565b6101b4565b6100ab61012836600461181a565b6101c9565b6100ab61013b366004611738565b6101d8565b6100ab61014e36600461181a565b6101e7565b6100ab61016136600461181a565b6101f6565b60006101758686868686610205565b90505b95945050505050565b606061018e848484610289565b949350505050565b6000610175868686868661033b565b600061017586868686866105a0565b60006101c0838361060d565b90505b92915050565b60006101758686868686610678565b6000610175868686868661073e565b6000610175868686868661092b565b600061017586868686866109d6565b600061022761021c85670429d069189e0000610a4a565b831115610131610a80565b600061023d6102368685610a92565b8690610aa8565b9050600061024b8588610aa8565b905060006102598383610aff565b9050600061026f82670de0b6b3a7640000610a92565b905061027b8a82610b32565b9a9950505050505050505050565b606060006102978484610b6e565b90506000855167ffffffffffffffff811180156102b357600080fd5b506040519080825280602002602001820160405280156102dd578160200160208202803683370190505b50905060005b865181101561033157610312838883815181106102fc57fe5b6020026020010151610a4a90919063ffffffff16565b82828151811061031e57fe5b60209081029190910101526001016102e3565b5095945050505050565b600080845167ffffffffffffffff8111801561035657600080fd5b50604051908082528060200260200182016040528015610380578160200160208202803683370190505b5090506000805b8851811015610435576103e689828151811061039f57fe5b60200260200101516103e08984815181106103b657fe5b60200260200101518c85815181106103ca57fe5b6020026020010151610bb690919063ffffffff16565b90610b6e565b8382815181106103f257fe5b60200260200101818152505061042b61042489838151811061041057fe5b60200260200101518584815181106102fc57fe5b8390610bb6565b9150600101610387565b50670de0b6b3a764000060005b895181101561055d5760008385838151811061045a57fe5b602002602001015111156104df57600061048b61047f86670de0b6b3a7640000610a92565b8d85815181106102fc57fe5b905060006104b5828c868151811061049f57fe5b6020026020010151610a9290919063ffffffff16565b90506104d66104246104cf670de0b6b3a76400008c610a92565b8390610a4a565b925050506104f6565b8882815181106104eb57fe5b602002602001015190505b600061051f8c848151811061050757fe5b60200260200101516103e0848f87815181106103ca57fe5b905061055161054a8c858151811061053357fe5b602002602001015183610bc890919063ffffffff16565b8590610a4a565b93505050600101610442565b50670de0b6b3a76400008111156105945761058a61058382670de0b6b3a7640000610a92565b8790610a4a565b9350505050610178565b60009350505050610178565b60006105c26105b787670429d069189e0000610a4a565b831115610130610a80565b60006105ce8784610bb6565b905060006105dc8883610aa8565b905060006105ea8887610b6e565b905060006105f88383610aff565b905061027b61060682610c10565b8990610a4a565b670de0b6b3a764000060005b83518110156106685761065e6104cf85838151811061063457fe5b602002602001015185848151811061064857fe5b6020026020010151610bc890919063ffffffff16565b9150600101610619565b506101c360008211610137610a80565b60008061068f846106898188610a92565b90610aa8565b90506106a86709b6e64a8ec60000821015610132610a80565b60006106c66106bf670de0b6b3a764000089610b6e565b8390610aff565b905060006106dd6106d683610c10565b8a90610a4a565b905060006106ea89610c10565b905060006106f88383610b32565b905060006107068483610a92565b905061072e610727610720670de0b6b3a76400008b610a92565b8490610a4a565b8290610bb6565b9c9b505050505050505050505050565b600080845167ffffffffffffffff8111801561075957600080fd5b50604051908082528060200260200182016040528015610783578160200160208202803683370190505b5090506000805b885181101561082b576107cd8982815181106107a257fe5b60200260200101516106898984815181106107b957fe5b60200260200101518c858151811061049f57fe5b8382815181106107d957fe5b6020026020010181815250506108216104248983815181106107f757fe5b602002602001015185848151811061080b57fe5b6020026020010151610b3290919063ffffffff16565b915060010161078a565b50670de0b6b3a764000060005b895181101561090a57600084828151811061084f57fe5b60200260200101518411156108aa57600061086c61047f86610c10565b90506000610880828c868151811061049f57fe5b90506108a161042461089a670de0b6b3a76400008c610a92565b8390610aa8565b925050506108c1565b8882815181106108b657fe5b602002602001015190505b60006108ea8c84815181106108d257fe5b60200260200101516103e0848f878151811061049f57fe5b90506108fe61054a8c858151811061053357fe5b93505050600101610838565b5061091e61091782610c10565b8790610b32565b9998505050505050505050565b60008061093c846106898188610bb6565b90506109556729a2241af62c0000821115610133610a80565b600061096c6106bf670de0b6b3a764000089610aa8565b9050600061098c61098583670de0b6b3a7640000610a92565b8a90610b32565b9050600061099989610c10565b905060006109a78383610b32565b905060006109b58483610a92565b905061072e6107276109cf670de0b6b3a76400008b610a92565b8490610aa8565b60008383116109e757506000610178565b60006109f38585610aa8565b90506000610a09670de0b6b3a764000088610b6e565b9050610a1d826709b6e64a8ec60000610c3c565b91506000610a2b8383610aff565b90506000610a42610a3b83610c10565b8b90610a4a565b905061027b81875b6000828202610a6e841580610a67575083858381610a6457fe5b04145b6003610a80565b670de0b6b3a764000090049392505050565b81610a8e57610a8e81610c53565b5050565b6000610aa2838311156001610a80565b50900390565b6000610ab78215156004610a80565b82610ac4575060006101c3565b670de0b6b3a764000083810290610ae790858381610ade57fe5b04146005610a80565b826001820381610af357fe5b046001019150506101c3565b600080610b0c8484610ca6565b90506000610b26610b1f83612710610b32565b6001610bb6565b90506101788282610bb6565b6000828202610b4c841580610a67575083858381610a6457fe5b80610b5b5760009150506101c3565b670de0b6b3a76400006000198201610af3565b6000610b7d8215156004610a80565b82610b8a575060006101c3565b670de0b6b3a764000083810290610ba490858381610ade57fe5b828181610bad57fe5b049150506101c3565b60008282016101c08482101583610a80565b600080610bd58484610ca6565b90506000610be8610b1f83612710610b32565b905080821015610bfd576000925050506101c3565b610c078282610a92565b925050506101c3565b6000670de0b6b3a76400008210610c28576000610c34565b81670de0b6b3a7640000035b90505b919050565b600081831015610c4c57816101c0565b5090919050565b62461bcd60e51b6000908152602060045260076024526642414c23000030600a808404818106603090810160081b95839006959095019082900491820690940160101b939093010160c81b604452606490fd5b600081610cbc5750670de0b6b3a76400006101c3565b82610cc9575060006101c3565b610cda600160ff1b84106006610a80565b82610d00770bce5086492111aea88f4bb1ca6bcf584181ea8059f7653284106007610a80565b826000670c7d713b49da000083138015610d215750670f43fc2c04ee000083125b15610d58576000610d3184610db1565b9050670de0b6b3a764000080820784020583670de0b6b3a764000083050201915050610d66565b81610d6284610ecf565b0290505b670de0b6b3a76400009005610d9e680238fd42c5cf03ffff198212801590610d97575068070c1cc73b00c800008213155b6008610a80565b610da78161126e565b9695505050505050565b670de0b6b3a7640000026000806a0c097ce7bc90715b34b9f160241b808401906ec097ce7bc90715b34b9f0fffffffff1985010281610dec57fe5b05905060006a0c097ce7bc90715b34b9f160241b82800205905081806a0c097ce7bc90715b34b9f160241b81840205915060038205016a0c097ce7bc90715b34b9f160241b82840205915060058205016a0c097ce7bc90715b34b9f160241b82840205915060078205016a0c097ce7bc90715b34b9f160241b82840205915060098205016a0c097ce7bc90715b34b9f160241b828402059150600b8205016a0c097ce7bc90715b34b9f160241b828402059150600d8205016a0c097ce7bc90715b34b9f160241b828402059150600f826002919005919091010295945050505050565b6000670de0b6b3a7640000821215610f0b57610f01826a0c097ce7bc90715b34b9f160241b81610efb57fe5b05610ecf565b6000039050610c37565b60007e1600ef3172e58d2e933ec884fde10064c63b5372d805e203c00000000000008312610f5c57770195e54c5dd42177f53a27172fa9ec630262827000000000830592506806f05b59d3b2000000015b73011798004d755d3c8bc8e03204cf44619e0000008312610f94576b1425982cf597cd205cef7380830592506803782dace9d9000000015b606492830292026e01855144814a7ff805980ff00840008312610fdc576e01855144814a7ff805980ff008400068056bc75e2d63100000840205925068ad78ebc5ac62000000015b6b02df0ab5a80a22c61ab5a7008312611017576b02df0ab5a80a22c61ab5a70068056bc75e2d6310000084020592506856bc75e2d631000000015b693f1fce3da636ea5cf850831261104e57693f1fce3da636ea5cf85068056bc75e2d631000008402059250682b5e3af16b18800000015b690127fa27722cc06cc5e2831261108557690127fa27722cc06cc5e268056bc75e2d6310000084020592506815af1d78b58c400000015b68280e60114edb805d0383126110ba5768280e60114edb805d0368056bc75e2d631000008402059250680ad78ebc5ac6200000015b680ebc5fb4174612111083126110e557680ebc5fb4174612111068056bc75e2d631000009384020592015b6808f00f760a4b2db55d831261111a576808f00f760a4b2db55d68056bc75e2d6310000084020592506802b5e3af16b1880000015b6806f5f1775788937937831261114f576806f5f177578893793768056bc75e2d63100000840205925068015af1d78b58c40000015b6806248f33704b2866038312611183576806248f33704b28660368056bc75e2d63100000840205925067ad78ebc5ac620000015b6805c548670b9510e7ac83126111b7576805c548670b9510e7ac68056bc75e2d6310000084020592506756bc75e2d6310000015b600068056bc75e2d63100000840168056bc75e2d6310000080860302816111da57fe5b059050600068056bc75e2d63100000828002059050818068056bc75e2d63100000818402059150600382050168056bc75e2d63100000828402059150600582050168056bc75e2d63100000828402059150600782050168056bc75e2d63100000828402059150600982050168056bc75e2d63100000828402059150600b820501600202606485820105979650505050505050565b600061129d680238fd42c5cf03ffff198312158015611296575068070c1cc73b00c800008313155b6009610a80565b60008212156112d0576112b28260000361126e565b6a0c097ce7bc90715b34b9f160241b816112c857fe5b059050610c37565b60006806f05b59d3b2000000831261131057506806f05b59d3b1ffffff1990910190770195e54c5dd42177f53a27172fa9ec630262827000000000611346565b6803782dace9d9000000831261134257506803782dace9d8ffffff19909101906b1425982cf597cd205cef7380611346565b5060015b6064929092029168056bc75e2d6310000068ad78ebc5ac6200000084126113965768ad78ebc5ac61ffffff199093019268056bc75e2d631000006e01855144814a7ff805980ff008400082020590505b6856bc75e2d63100000084126113d2576856bc75e2d630ffffff199093019268056bc75e2d631000006b02df0ab5a80a22c61ab5a70082020590505b682b5e3af16b18800000841261140c57682b5e3af16b187fffff199093019268056bc75e2d63100000693f1fce3da636ea5cf85082020590505b6815af1d78b58c4000008412611446576815af1d78b58c3fffff199093019268056bc75e2d63100000690127fa27722cc06cc5e282020590505b680ad78ebc5ac6200000841261147f57680ad78ebc5ac61fffff199093019268056bc75e2d6310000068280e60114edb805d0382020590505b68056bc75e2d6310000084126114b85768056bc75e2d630fffff199093019268056bc75e2d63100000680ebc5fb4174612111082020590505b6802b5e3af16b188000084126114f1576802b5e3af16b187ffff199093019268056bc75e2d631000006808f00f760a4b2db55d82020590505b68015af1d78b58c40000841261152a5768015af1d78b58c3ffff199093019268056bc75e2d631000006806f5f177578893793782020590505b68056bc75e2d631000008481019085906002908280020505918201919050600368056bc75e2d631000008783020505918201919050600468056bc75e2d631000008783020505918201919050600568056bc75e2d631000008783020505918201919050600668056bc75e2d631000008783020505918201919050600768056bc75e2d631000008783020505918201919050600868056bc75e2d631000008783020505918201919050600968056bc75e2d631000008783020505918201919050600a68056bc75e2d631000008783020505918201919050600b68056bc75e2d631000008783020505918201919050600c68056bc75e2d631000008783020505918201919050606468056bc75e2d63100000848402058502059695505050505050565b600082601f83011261165b578081fd5b8135602067ffffffffffffffff8083111561167257fe5b8183026040518382820101818110848211171561168b57fe5b604052848152838101925086840182880185018910156116a9578687fd5b8692505b858310156116cb5780358452928401926001929092019184016116ad565b50979650505050505050565b600080604083850312156116e9578182fd5b823567ffffffffffffffff80821115611700578384fd5b61170c8683870161164b565b93506020850135915080821115611721578283fd5b5061172e8582860161164b565b9150509250929050565b600080600080600060a0868803121561174f578081fd5b853567ffffffffffffffff80821115611766578283fd5b61177289838a0161164b565b96506020880135915080821115611787578283fd5b61179389838a0161164b565b955060408801359150808211156117a8578283fd5b506117b58882890161164b565b9598949750949560608101359550608001359392505050565b6000806000606084860312156117e2578283fd5b833567ffffffffffffffff8111156117f8578384fd5b6118048682870161164b565b9660208601359650604090950135949350505050565b600080600080600060a08688031215611831578081fd5b505083359560208501359550604085013594606081013594506080013592509050565b6020808252825182820181905260009190848201906040850190845b8181101561188c57835183529284019291840191600101611870565b50909695505050505050565b9081526020019056fea26469706673582212208c2421158134d2c821aeb2de975a5630723a30bb00f22299fb0a738c62da5fe264736f6c63430007060033",
  "linkReferences": {},
  "deployedLinkReferences": {}
}