{
  "_format": "hh-sol-artifact-1",
  "contractName": "MockSamples",
  "sourceName": "contracts/NoProtocolFeeLiquidityBootstrappingPoolFactory.sol",
  "abi": [
    {
      "inputs": [
        {
          "internalType": "bytes32",
          "name": "sample",
          "type": "bytes32"
        }
      ],
      "name": "decode",
      "outputs": [
        {
          "components": [
            {
              "internalType": "int256",
              "name": "logPairPrice",
              "type": "int256"
            },
            {
              "internalType": "int256",
              "name": "accLogPairPrice",
              "type": "int256"
            },
            {
              "internalType": "int256",
              "name": "logBptPrice",
              "type": "int256"
            },
            {
              "internalType": "int256",
              "name": "accLogBptPrice",
              "type": "int256"
            },
            {
              "internalType": "int256",
              "name": "logInvariant",
              "type": "int256"
            },
            {
              "internalType": "int256",
              "name": "accLogInvariant",
              "type": "int256"
            },
            {
              "internalType": "uint256",
              "name": "timestamp",
              "type": "uint256"
            }
          ],
          "internalType": "struct MockSamples.Sample",
          "name": "",
          "type": "tuple"
        }
      ],
      "stateMutability": "pure",
      "type": "function"
    },
    {
      "inputs": [
        {
          "components": [
            {
              "internalType": "int256",
              "name": "logPairPrice",
              "type": "int256"
            },
            {
              "internalType": "int256",
              "name": "accLogPairPrice",
              "type": "int256"
            },
            {
              "internalType": "int256",
              "name": "logBptPrice",
              "type": "int256"
            },
            {
              "internalType": "int256",
              "name": "accLogBptPrice",
              "type": "int256"
            },
            {
              "internalType": "int256",
              "name": "logInvariant",
              "type": "int256"
            },
            {
              "internalType": "int256",
              "name": "accLogInvariant",
              "type": "int256"
            },
            {
              "internalType": "uint256",
              "name": "timestamp",
              "type": "uint256"
            }
          ],
          "internalType": "struct MockSamples.Sample",
          "name": "sample",
          "type": "tuple"
        }
      ],
      "name": "encode",
      "outputs": [
        {
          "internalType": "bytes32",
          "name": "",
          "type": "bytes32"
        }
      ],
      "stateMutability": "pure",
      "type": "function"
    },
    {
      "inputs": [
        {
          "internalType": "bytes32",
          "name": "sample",
          "type": "bytes32"
        },
        {
          "internalType": "int256",
          "name": "logPairPrice",
          "type": "int256"
        },
        {
          "internalType": "int256",
          "name": "logBptPrice",
          "type": "int256"
        },
        {
          "internalType": "int256",
          "name": "logInvariant",
          "type": "int256"
        },
        {
          "internalType": "uint256",
          "name": "timestamp",
          "type": "uint256"
        }
      ],
      "name": "update",
      "outputs": [
        {
          "components": [
            {
              "internalType": "int256",
              "name": "logPairPrice",
              "type": "int256"
            },
            {
              "internalType": "int256",
              "name": "accLogPairPrice",
              "type": "int256"
            },
            {
              "internalType": "int256",
              "name": "logBptPrice",
              "type": "int256"
            },
            {
              "internalType": "int256",
              "name": "accLogBptPrice",
              "type": "int256"
            },
            {
              "internalType": "int256",
              "name": "logInvariant",
              "type": "int256"
            },
            {
              "internalType": "int256",
              "name": "accLogInvariant",
              "type": "int256"
            },
            {
              "internalType": "uint256",
              "name": "timestamp",
              "type": "uint256"
            }
          ],
          "internalType": "struct MockSamples.Sample",
          "name": "",
          "type": "tuple"
        }
      ],
      "stateMutability": "pure",
      "type": "function"
    }
  ],
  "bytecode": "0x608060405234801561001057600080fd5b50610552806100206000396000f3fe608060405234801561001057600080fd5b50600436106100415760003560e01c80633d48f8c114610046578063c3748ef11461006f578063ff7b6f1e1461008f575b600080fd5b610059610054366004610448565b6100a2565b60405161006691906104c5565b60405180910390f35b61008261007d3660046103f6565b6100d5565b60405161006691906104ce565b61008261009d36600461040e565b61015a565b60006100cf826000015183602001518460400151856060015186608001518760a001518860c00151610187565b92915050565b6100dd6103b9565b6040805160e08101909152806100f48460006101e7565b8152602001610104846000610232565b81526020016101148460016101e7565b8152602001610124846001610232565b81526020016101348460026101e7565b8152602001610144846002610232565b815260200161015284610276565b905292915050565b6101626103b9565b60006101718787878787610282565b905061017c816100d5565b979650505050505050565b600061019382826102e2565b61019e84601f6102e6565b6101a98660546102f7565b6101b488606a6102e6565b6101bf8a609f6102f7565b6101ca8c60b56102e6565b6101d58e60ea6102f7565b17171717171798975050505050505050565b6000808260028111156101f657fe5b141561020c5761020583610304565b90506100cf565b600182600281111561021a57fe5b14156102295761020583610311565b6102058361031e565b60008082600281111561024157fe5b1415610250576102058361032b565b600182600281111561025e57fe5b141561026d5761020583610338565b61020583610345565b60006100cf8282610352565b60008061028e87610276565b8303905060008187026102a08961032b565b01905060008287026102b18a610338565b01905060008387026102c28b610345565b0190506102d489848a858b868c610187565b9a9950505050505050505050565b1b90565b661fffffffffffff91909116901b90565b623fffff91909116901b90565b60006100cf8260ea61035c565b60006100cf82609f61035c565b60006100cf82605461035c565b60006100cf8260b5610386565b60006100cf82606a610386565b60006100cf82601f610386565b1c637fffffff1690565b600082821c623fffff16621fffff8113610376578061037e565b623fffff1981175b949350505050565b600082821c661fffffffffffff16660fffffffffffff81136103a8578061037e565b661fffffffffffff19179392505050565b6040518060e00160405280600081526020016000815260200160008152602001600081526020016000815260200160008152602001600081525090565b600060208284031215610407578081fd5b5035919050565b600080600080600060a08688031215610425578081fd5b505083359560208501359550604085013594606081013594506080013592509050565b600060e08284031215610459578081fd5b60405160e0810181811067ffffffffffffffff8211171561047657fe5b8060405250823581526020830135602082015260408301356040820152606083013560608201526080830135608082015260a083013560a082015260c083013560c08201528091505092915050565b90815260200190565b600060e082019050825182526020830151602083015260408301516040830152606083015160608301526080830151608083015260a083015160a083015260c083015160c08301529291505056fea26469706673582212207214ce918687c9e6e16743e7b472770f37627f31adcbe8afbf427774b96931f364736f6c63430007060033",
  "linkReferences": {},
  "deployedLinkReferences": {}
}