{
  "_format": "hh-sol-artifact-1",
  "contractName": "NoProtocolFeeLiquidityBootstrappingPool",
  "sourceName": "contracts/NoProtocolFeeLiquidityBootstrappingPoolFactory.sol",
  "abi": [
    {
      "inputs": [
        {
          "internalType": "contract IVault",
          "name": "vault",
          "type": "address"
        },
        {
          "internalType": "string",
          "name": "name",
          "type": "string"
        },
        {
          "internalType": "string",
          "name": "symbol",
          "type": "string"
        },
        {
          "internalType": "contract IERC20[]",
          "name": "tokens",
          "type": "address[]"
        },
        {
          "internalType": "uint256[]",
          "name": "normalizedWeights",
          "type": "uint256[]"
        },
        {
          "internalType": "uint256",
          "name": "swapFeePercentage",
          "type": "uint256"
        },
        {
          "internalType": "uint256",
          "name": "pauseWindowDuration",
          "type": "uint256"
        },
        {
          "internalType": "uint256",
          "name": "bufferPeriodDuration",
          "type": "uint256"
        },
        {
          "internalType": "address",
          "name": "owner",
          "type": "address"
        },
        {
          "internalType": "bool",
          "name": "swapEnabledOnStart",
          "type": "bool"
        }
      ],
      "stateMutability": "nonpayable",
      "type": "constructor"
    },
    {
      "anonymous": false,
      "inputs": [
        {
          "indexed": true,
          "internalType": "address",
          "name": "owner",
          "type": "address"
        },
        {
          "indexed": true,
          "internalType": "address",
          "name": "spender",
          "type": "address"
        },
        {
          "indexed": false,
          "internalType": "uint256",
          "name": "value",
          "type": "uint256"
        }
      ],
      "name": "Approval",
      "type": "event"
    },
    {
      "anonymous": false,
      "inputs": [
        {
          "indexed": false,
          "internalType": "uint256",
          "name": "startTime",
          "type": "uint256"
        },
        {
          "indexed": false,
          "internalType": "uint256",
          "name": "endTime",
          "type": "uint256"
        },
        {
          "indexed": false,
          "internalType": "uint256[]",
          "name": "startWeights",
          "type": "uint256[]"
        },
        {
          "indexed": false,
          "internalType": "uint256[]",
          "name": "endWeights",
          "type": "uint256[]"
        }
      ],
      "name": "GradualWeightUpdateScheduled",
      "type": "event"
    },
    {
      "anonymous": false,
      "inputs": [
        {
          "indexed": false,
          "internalType": "bool",
          "name": "paused",
          "type": "bool"
        }
      ],
      "name": "PausedStateChanged",
      "type": "event"
    },
    {
      "anonymous": false,
      "inputs": [
        {
          "indexed": false,
          "internalType": "bool",
          "name": "swapEnabled",
          "type": "bool"
        }
      ],
      "name": "SwapEnabledSet",
      "type": "event"
    },
    {
      "anonymous": false,
      "inputs": [
        {
          "indexed": false,
          "internalType": "uint256",
          "name": "swapFeePercentage",
          "type": "uint256"
        }
      ],
      "name": "SwapFeePercentageChanged",
      "type": "event"
    },
    {
      "anonymous": false,
      "inputs": [
        {
          "indexed": true,
          "internalType": "address",
          "name": "from",
          "type": "address"
        },
        {
          "indexed": true,
          "internalType": "address",
          "name": "to",
          "type": "address"
        },
        {
          "indexed": false,
          "internalType": "uint256",
          "name": "value",
          "type": "uint256"
        }
      ],
      "name": "Transfer",
      "type": "event"
    },
    {
      "inputs": [],
      "name": "DOMAIN_SEPARATOR",
      "outputs": [
        {
          "internalType": "bytes32",
          "name": "",
          "type": "bytes32"
        }
      ],
      "stateMutability": "view",
      "type": "function"
    },
    {
      "inputs": [
        {
          "internalType": "address",
          "name": "owner",
          "type": "address"
        },
        {
          "internalType": "address",
          "name": "spender",
          "type": "address"
        }
      ],
      "name": "allowance",
      "outputs": [
        {
          "internalType": "uint256",
          "name": "",
          "type": "uint256"
        }
      ],
      "stateMutability": "view",
      "type": "function"
    },
    {
      "inputs": [
        {
          "internalType": "address",
          "name": "spender",
          "type": "address"
        },
        {
          "internalType": "uint256",
          "name": "amount",
          "type": "uint256"
        }
      ],
      "name": "approve",
      "outputs": [
        {
          "internalType": "bool",
          "name": "",
          "type": "bool"
        }
      ],
      "stateMutability": "nonpayable",
      "type": "function"
    },
    {
      "inputs": [
        {
          "internalType": "address",
          "name": "account",
          "type": "address"
        }
      ],
      "name": "balanceOf",
      "outputs": [
        {
          "internalType": "uint256",
          "name": "",
          "type": "uint256"
        }
      ],
      "stateMutability": "view",
      "type": "function"
    },
    {
      "inputs": [],
      "name": "decimals",
      "outputs": [
        {
          "internalType": "uint8",
          "name": "",
          "type": "uint8"
        }
      ],
      "stateMutability": "view",
      "type": "function"
    },
    {
      "inputs": [
        {
          "internalType": "address",
          "name": "spender",
          "type": "address"
        },
        {
          "internalType": "uint256",
          "name": "amount",
          "type": "uint256"
        }
      ],
      "name": "decreaseAllowance",
      "outputs": [
        {
          "internalType": "bool",
          "name": "",
          "type": "bool"
        }
      ],
      "stateMutability": "nonpayable",
      "type": "function"
    },
    {
      "inputs": [
        {
          "internalType": "bytes4",
          "name": "selector",
          "type": "bytes4"
        }
      ],
      "name": "getActionId",
      "outputs": [
        {
          "internalType": "bytes32",
          "name": "",
          "type": "bytes32"
        }
      ],
      "stateMutability": "view",
      "type": "function"
    },
    {
      "inputs": [],
      "name": "getAuthorizer",
      "outputs": [
        {
          "internalType": "contract IAuthorizer",
          "name": "",
          "type": "address"
        }
      ],
      "stateMutability": "view",
      "type": "function"
    },
    {
      "inputs": [],
      "name": "getGradualWeightUpdateParams",
      "outputs": [
        {
          "internalType": "uint256",
          "name": "startTime",
          "type": "uint256"
        },
        {
          "internalType": "uint256",
          "name": "endTime",
          "type": "uint256"
        },
        {
          "internalType": "uint256[]",
          "name": "endWeights",
          "type": "uint256[]"
        }
      ],
      "stateMutability": "view",
      "type": "function"
    },
    {
      "inputs": [],
      "name": "getInvariant",
      "outputs": [
        {
          "internalType": "uint256",
          "name": "",
          "type": "uint256"
        }
      ],
      "stateMutability": "view",
      "type": "function"
    },
    {
      "inputs": [],
      "name": "getLastInvariant",
      "outputs": [
        {
          "internalType": "uint256",
          "name": "",
          "type": "uint256"
        }
      ],
      "stateMutability": "view",
      "type": "function"
    },
    {
      "inputs": [],
      "name": "getNormalizedWeights",
      "outputs": [
        {
          "internalType": "uint256[]",
          "name": "",
          "type": "uint256[]"
        }
      ],
      "stateMutability": "view",
      "type": "function"
    },
    {
      "inputs": [],
      "name": "getOwner",
      "outputs": [
        {
          "internalType": "address",
          "name": "",
          "type": "address"
        }
      ],
      "stateMutability": "view",
      "type": "function"
    },
    {
      "inputs": [],
      "name": "getPausedState",
      "outputs": [
        {
          "internalType": "bool",
          "name": "paused",
          "type": "bool"
        },
        {
          "internalType": "uint256",
          "name": "pauseWindowEndTime",
          "type": "uint256"
        },
        {
          "internalType": "uint256",
          "name": "bufferPeriodEndTime",
          "type": "uint256"
        }
      ],
      "stateMutability": "view",
      "type": "function"
    },
    {
      "inputs": [],
      "name": "getPoolId",
      "outputs": [
        {
          "internalType": "bytes32",
          "name": "",
          "type": "bytes32"
        }
      ],
      "stateMutability": "view",
      "type": "function"
    },
    {
      "inputs": [],
      "name": "getRate",
      "outputs": [
        {
          "internalType": "uint256",
          "name": "",
          "type": "uint256"
        }
      ],
      "stateMutability": "view",
      "type": "function"
    },
    {
      "inputs": [],
      "name": "getScalingFactors",
      "outputs": [
        {
          "internalType": "uint256[]",
          "name": "",
          "type": "uint256[]"
        }
      ],
      "stateMutability": "view",
      "type": "function"
    },
    {
      "inputs": [],
      "name": "getSwapEnabled",
      "outputs": [
        {
          "internalType": "bool",
          "name": "",
          "type": "bool"
        }
      ],
      "stateMutability": "view",
      "type": "function"
    },
    {
      "inputs": [],
      "name": "getSwapFeePercentage",
      "outputs": [
        {
          "internalType": "uint256",
          "name": "",
          "type": "uint256"
        }
      ],
      "stateMutability": "view",
      "type": "function"
    },
    {
      "inputs": [],
      "name": "getVault",
      "outputs": [
        {
          "internalType": "contract IVault",
          "name": "",
          "type": "address"
        }
      ],
      "stateMutability": "view",
      "type": "function"
    },
    {
      "inputs": [
        {
          "internalType": "address",
          "name": "spender",
          "type": "address"
        },
        {
          "internalType": "uint256",
          "name": "addedValue",
          "type": "uint256"
        }
      ],
      "name": "increaseAllowance",
      "outputs": [
        {
          "internalType": "bool",
          "name": "",
          "type": "bool"
        }
      ],
      "stateMutability": "nonpayable",
      "type": "function"
    },
    {
      "inputs": [],
      "name": "name",
      "outputs": [
        {
          "internalType": "string",
          "name": "",
          "type": "string"
        }
      ],
      "stateMutability": "view",
      "type": "function"
    },
    {
      "inputs": [
        {
          "internalType": "address",
          "name": "owner",
          "type": "address"
        }
      ],
      "name": "nonces",
      "outputs": [
        {
          "internalType": "uint256",
          "name": "",
          "type": "uint256"
        }
      ],
      "stateMutability": "view",
      "type": "function"
    },
    {
      "inputs": [
        {
          "internalType": "bytes32",
          "name": "poolId",
          "type": "bytes32"
        },
        {
          "internalType": "address",
          "name": "sender",
          "type": "address"
        },
        {
          "internalType": "address",
          "name": "recipient",
          "type": "address"
        },
        {
          "internalType": "uint256[]",
          "name": "balances",
          "type": "uint256[]"
        },
        {
          "internalType": "uint256",
          "name": "lastChangeBlock",
          "type": "uint256"
        },
        {
          "internalType": "uint256",
          "name": "",
          "type": "uint256"
        },
        {
          "internalType": "bytes",
          "name": "userData",
          "type": "bytes"
        }
      ],
      "name": "onExitPool",
      "outputs": [
        {
          "internalType": "uint256[]",
          "name": "",
          "type": "uint256[]"
        },
        {
          "internalType": "uint256[]",
          "name": "",
          "type": "uint256[]"
        }
      ],
      "stateMutability": "nonpayable",
      "type": "function"
    },
    {
      "inputs": [
        {
          "internalType": "bytes32",
          "name": "poolId",
          "type": "bytes32"
        },
        {
          "internalType": "address",
          "name": "sender",
          "type": "address"
        },
        {
          "internalType": "address",
          "name": "recipient",
          "type": "address"
        },
        {
          "internalType": "uint256[]",
          "name": "balances",
          "type": "uint256[]"
        },
        {
          "internalType": "uint256",
          "name": "lastChangeBlock",
          "type": "uint256"
        },
        {
          "internalType": "uint256",
          "name": "",
          "type": "uint256"
        },
        {
          "internalType": "bytes",
          "name": "userData",
          "type": "bytes"
        }
      ],
      "name": "onJoinPool",
      "outputs": [
        {
          "internalType": "uint256[]",
          "name": "",
          "type": "uint256[]"
        },
        {
          "internalType": "uint256[]",
          "name": "",
          "type": "uint256[]"
        }
      ],
      "stateMutability": "nonpayable",
      "type": "function"
    },
    {
      "inputs": [
        {
          "components": [
            {
              "internalType": "enum IVault.SwapKind",
              "name": "kind",
              "type": "uint8"
            },
            {
              "internalType": "contract IERC20",
              "name": "tokenIn",
              "type": "address"
            },
            {
              "internalType": "contract IERC20",
              "name": "tokenOut",
              "type": "address"
            },
            {
              "internalType": "uint256",
              "name": "amount",
              "type": "uint256"
            },
            {
              "internalType": "bytes32",
              "name": "poolId",
              "type": "bytes32"
            },
            {
              "internalType": "uint256",
              "name": "lastChangeBlock",
              "type": "uint256"
            },
            {
              "internalType": "address",
              "name": "from",
              "type": "address"
            },
            {
              "internalType": "address",
              "name": "to",
              "type": "address"
            },
            {
              "internalType": "bytes",
              "name": "userData",
              "type": "bytes"
            }
          ],
          "internalType": "struct IPoolSwapStructs.SwapRequest",
          "name": "request",
          "type": "tuple"
        },
        {
          "internalType": "uint256",
          "name": "balanceTokenIn",
          "type": "uint256"
        },
        {
          "internalType": "uint256",
          "name": "balanceTokenOut",
          "type": "uint256"
        }
      ],
      "name": "onSwap",
      "outputs": [
        {
          "internalType": "uint256",
          "name": "",
          "type": "uint256"
        }
      ],
      "stateMutability": "nonpayable",
      "type": "function"
    },
    {
      "inputs": [
        {
          "internalType": "address",
          "name": "owner",
          "type": "address"
        },
        {
          "internalType": "address",
          "name": "spender",
          "type": "address"
        },
        {
          "internalType": "uint256",
          "name": "value",
          "type": "uint256"
        },
        {
          "internalType": "uint256",
          "name": "deadline",
          "type": "uint256"
        },
        {
          "internalType": "uint8",
          "name": "v",
          "type": "uint8"
        },
        {
          "internalType": "bytes32",
          "name": "r",
          "type": "bytes32"
        },
        {
          "internalType": "bytes32",
          "name": "s",
          "type": "bytes32"
        }
      ],
      "name": "permit",
      "outputs": [],
      "stateMutability": "nonpayable",
      "type": "function"
    },
    {
      "inputs": [
        {
          "internalType": "bytes32",
          "name": "poolId",
          "type": "bytes32"
        },
        {
          "internalType": "address",
          "name": "sender",
          "type": "address"
        },
        {
          "internalType": "address",
          "name": "recipient",
          "type": "address"
        },
        {
          "internalType": "uint256[]",
          "name": "balances",
          "type": "uint256[]"
        },
        {
          "internalType": "uint256",
          "name": "lastChangeBlock",
          "type": "uint256"
        },
        {
          "internalType": "uint256",
          "name": "protocolSwapFeePercentage",
          "type": "uint256"
        },
        {
          "internalType": "bytes",
          "name": "userData",
          "type": "bytes"
        }
      ],
      "name": "queryExit",
      "outputs": [
        {
          "internalType": "uint256",
          "name": "bptIn",
          "type": "uint256"
        },
        {
          "internalType": "uint256[]",
          "name": "amountsOut",
          "type": "uint256[]"
        }
      ],
      "stateMutability": "nonpayable",
      "type": "function"
    },
    {
      "inputs": [
        {
          "internalType": "bytes32",
          "name": "poolId",
          "type": "bytes32"
        },
        {
          "internalType": "address",
          "name": "sender",
          "type": "address"
        },
        {
          "internalType": "address",
          "name": "recipient",
          "type": "address"
        },
        {
          "internalType": "uint256[]",
          "name": "balances",
          "type": "uint256[]"
        },
        {
          "internalType": "uint256",
          "name": "lastChangeBlock",
          "type": "uint256"
        },
        {
          "internalType": "uint256",
          "name": "protocolSwapFeePercentage",
          "type": "uint256"
        },
        {
          "internalType": "bytes",
          "name": "userData",
          "type": "bytes"
        }
      ],
      "name": "queryJoin",
      "outputs": [
        {
          "internalType": "uint256",
          "name": "bptOut",
          "type": "uint256"
        },
        {
          "internalType": "uint256[]",
          "name": "amountsIn",
          "type": "uint256[]"
        }
      ],
      "stateMutability": "nonpayable",
      "type": "function"
    },
    {
      "inputs": [
        {
          "internalType": "contract IERC20",
          "name": "token",
          "type": "address"
        },
        {
          "internalType": "bytes",
          "name": "poolConfig",
          "type": "bytes"
        }
      ],
      "name": "setAssetManagerPoolConfig",
      "outputs": [],
      "stateMutability": "nonpayable",
      "type": "function"
    },
    {
      "inputs": [
        {
          "internalType": "bool",
          "name": "paused",
          "type": "bool"
        }
      ],
      "name": "setPaused",
      "outputs": [],
      "stateMutability": "nonpayable",
      "type": "function"
    },
    {
      "inputs": [
        {
          "internalType": "bool",
          "name": "swapEnabled",
          "type": "bool"
        }
      ],
      "name": "setSwapEnabled",
      "outputs": [],
      "stateMutability": "nonpayable",
      "type": "function"
    },
    {
      "inputs": [
        {
          "internalType": "uint256",
          "name": "swapFeePercentage",
          "type": "uint256"
        }
      ],
      "name": "setSwapFeePercentage",
      "outputs": [],
      "stateMutability": "nonpayable",
      "type": "function"
    },
    {
      "inputs": [],
      "name": "symbol",
      "outputs": [
        {
          "internalType": "string",
          "name": "",
          "type": "string"
        }
      ],
      "stateMutability": "view",
      "type": "function"
    },
    {
      "inputs": [],
      "name": "totalSupply",
      "outputs": [
        {
          "internalType": "uint256",
          "name": "",
          "type": "uint256"
        }
      ],
      "stateMutability": "view",
      "type": "function"
    },
    {
      "inputs": [
        {
          "internalType": "address",
          "name": "recipient",
          "type": "address"
        },
        {
          "internalType": "uint256",
          "name": "amount",
          "type": "uint256"
        }
      ],
      "name": "transfer",
      "outputs": [
        {
          "internalType": "bool",
          "name": "",
          "type": "bool"
        }
      ],
      "stateMutability": "nonpayable",
      "type": "function"
    },
    {
      "inputs": [
        {
          "internalType": "address",
          "name": "sender",
          "type": "address"
        },
        {
          "internalType": "address",
          "name": "recipient",
          "type": "address"
        },
        {
          "internalType": "uint256",
          "name": "amount",
          "type": "uint256"
        }
      ],
      "name": "transferFrom",
      "outputs": [
        {
          "internalType": "bool",
          "name": "",
          "type": "bool"
        }
      ],
      "stateMutability": "nonpayable",
      "type": "function"
    },
    {
      "inputs": [
        {
          "internalType": "uint256",
          "name": "startTime",
          "type": "uint256"
        },
        {
          "internalType": "uint256",
          "name": "endTime",
          "type": "uint256"
        },
        {
          "internalType": "uint256[]",
          "name": "endWeights",
          "type": "uint256[]"
        }
      ],
      "name": "updateWeightsGradually",
      "outputs": [],
      "stateMutability": "nonpayable",
      "type": "function"
    }
  ],
  "bytecode": "0x6102e06040527f6e71edae12b1b97f4d1f60370fef10105fa2faae0126114a169c64845d6126c9610120523480156200003757600080fd5b5060405162005caa38038062005caa8339810160408190526200005a9162000d65565b89898989898989898989898989898a516001600160401b03811180156200008057600080fd5b50604051908082528060200260200182016040528015620000ab578160200160208202803683370190505b5089898989888651600214620000c3576001620000c6565b60025b8989898989898989828289898180604051806040016040528060018152602001603160f81b815250848489336001600160a01b031660001b806080818152505050806001600160a01b031660a0816001600160a01b031660601b815250505081600390805190602001906200013d92919062000b19565b5080516200015390600490602084019062000b19565b50506005805460ff1916601217905550815160209283012060c052805191012060e05250507f8b73c3c69bb8fe3d512ecc4cf759cc79239f7b179b0ffacaa9a75d522b39400f6101005250620001b26276a70083111561019462000525565b620001c662278d0082111561019562000525565b4290910161014081905201610160528551620001e8906002111560c862000525565b62000202620001f66200053a565b8751111560c962000525565b62000218866200053f60201b62000ddb1760201c565b62000223846200054b565b6040516309b2760f60e01b81526000906001600160a01b038c16906309b2760f9062000254908d9060040162000f75565b602060405180830381600087803b1580156200026f57600080fd5b505af115801562000284573d6000803e3d6000fd5b505050506040513d601f19601f82011682018060405250810190620002aa919062000d4c565b604051633354e3e960e11b81529091506001600160a01b038c16906366a9c7d290620002df9084908b908b9060040162000edb565b600060405180830381600087803b158015620002fa57600080fd5b505af11580156200030f573d6000803e3d6000fd5b505050508a6001600160a01b0316610180816001600160a01b031660601b81525050806101a0818152505050505050505050505050505050505050505050506001600a8190555060008751905062000374818851620005d760201b62000de51760201c565b6101c0819052875188906000906200038857fe5b60200260200101516001600160a01b03166101e0816001600160a01b031660601b8152505087600181518110620003bb57fe5b60200260200101516001600160a01b0316610200816001600160a01b031660601b8152505060028111620003f157600062000408565b87600281518110620003ff57fe5b60200260200101515b60601b6001600160601b03191661022052600381116200042a57600062000441565b876003815181106200043857fe5b60200260200101515b6001600160a01b0316610240816001600160a01b031660601b8152505062000484886000815181106200047057fe5b6020026020010151620005e660201b60201c565b6102605287516200049d90899060019081106200047057fe5b6102805260028111620004b2576000620004c4565b620004c4886002815181106200047057fe5b6102a05260038111620004d9576000620004eb565b620004eb886003815181106200047057fe5b6102c05242620004fe81808a8062000697565b620005098362000825565b505050505050505050505050505050505050505050506200102b565b816200053657620005368162000879565b5050565b600490565b806200053681620008cc565b6200056064e8d4a5100082101560cb62000525565b6200057867016345785d8a000082111560ca62000525565b620005978160c06008546200095960201b62000df2179092919060201c565b6008556040517fa9ba3ffe0b6c366b81232caab38605a0699ad5398d6cce76f91ee809e322dafc90620005cc90839062000f8a565b60405180910390a150565b62000536828214606762000525565b600080826001600160a01b031663313ce5676040518163ffffffff1660e01b815260040160206040518083038186803b1580156200062357600080fd5b505afa15801562000638573d6000803e3d6000fd5b505050506040513d601f19601f820116820180604052508101906200065e919062000e71565b60ff16905060006200067d6012836200096e60201b62000e071760201c565b905080600a0a670de0b6b3a764000002925050505b919050565b600b546000805b835181101562000788576000848281518110620006b757fe5b60200260200101519050620006df662386f26fc1000082101561012e6200052560201b60201c565b62000760620006f9826200098b60201b62000e1d1760201c565b836010026080016200074b6200072e8a87815181106200071557fe5b6020026020010151620009cc60201b62000e3d1760201c565b86601f0260040189620009f960201b62000e59179092919060201c565b62000a0b60201b62000e6b179092919060201c565b93506200077c818462000a1b60201b62000e7b1790919060201c565b9250506001016200069e565b50620007a1670de0b6b3a7640000821461013462000525565b620007da8560e0620007c58960c08762000a3660201b62000e8d179092919060201c565b62000a3660201b62000e8d179092919060201c565b600b556040517f0f3631f9dab08169d1db21c6dc5f32536fb2b0a6b9bb5330d71c52132f968be0906200081590889088908890889062000f93565b60405180910390a1505050505050565b62000844816000600b5462000a4860201b62000e9f179092919060201c565b600b556040517f5a9e84f78f7957cb4ed7478eb0fcad35ee4ecbe2e0f298420b28a3955392573f90620005cc90839062000ed0565b62461bcd60e51b6000908152602060045260076024526642414c23000030600a808404818106603090810160081b95839006959095019082900491820690940160101b939093010160c81b604452606490fd5b600281511015620008dd5762000956565b600081600081518110620008ed57fe5b602002602001015190506000600190505b8251811015620009535760008382815181106200091757fe5b6020026020010151905062000948816001600160a01b0316846001600160a01b03161060656200052560201b60201c565b9150600101620008fe565b50505b50565b6001600160401b03811b1992909216911b1790565b60006200098083831115600162000525565b508082035b92915050565b600062000985670de0b6b3a7640000620009b861ffff80168562000a7160201b62000ec61790919060201c565b62000ac660201b62000f141790919060201c565b600062000985670de0b6b3a7640000620009b8637fffffff8562000a7160201b62000ec61790919060201c565b637fffffff811b1992909216911b1790565b61ffff811b1992909216911b1790565b600082820162000a2f848210158362000525565b9392505050565b63ffffffff811b1992909216911b1790565b60006001821b198416828462000a6057600062000a63565b60015b60ff16901b17949350505050565b600082820262000a9984158062000a9157508385838162000a8e57fe5b04145b600362000525565b8062000aaa57600091505062000985565b670de0b6b3a764000060001982015b0460010191505062000985565b600062000ad7821515600462000525565b8262000ae65750600062000985565b670de0b6b3a76400008381029062000b0c9085838162000b0257fe5b0414600562000525565b82600182038162000ab957fe5b828054600181600116156101000203166002900490600052602060002090601f01602090048101928262000b51576000855562000b9c565b82601f1062000b6c57805160ff191683800117855562000b9c565b8280016001018555821562000b9c579182015b8281111562000b9c57825182559160200191906001019062000b7f565b5062000baa92915062000bae565b5090565b5b8082111562000baa576000815560010162000baf565b8051620006928162001015565b600082601f83011262000be3578081fd5b8151602062000bfc62000bf68362000ff7565b62000fd3565b828152818101908583018385028701840188101562000c19578586fd5b855b8581101562000c4457815162000c318162001015565b8452928401929084019060010162000c1b565b5090979650505050505050565b600082601f83011262000c62578081fd5b8151602062000c7562000bf68362000ff7565b828152818101908583018385028701840188101562000c92578586fd5b855b8581101562000c445781518452928401929084019060010162000c94565b805180151581146200069257600080fd5b600082601f83011262000cd4578081fd5b81516001600160401b0381111562000ce857fe5b602062000cfe601f8301601f1916820162000fd3565b828152858284870101111562000d12578384fd5b835b8381101562000d3157858101830151828201840152820162000d14565b8381111562000d4257848385840101525b5095945050505050565b60006020828403121562000d5e578081fd5b5051919050565b6000806000806000806000806000806101408b8d03121562000d85578586fd5b62000d908b62000bc5565b60208c0151909a506001600160401b038082111562000dad578788fd5b62000dbb8e838f0162000cc3565b9a5060408d015191508082111562000dd1578788fd5b62000ddf8e838f0162000cc3565b995060608d015191508082111562000df5578788fd5b62000e038e838f0162000bd2565b985060808d015191508082111562000e19578788fd5b5062000e288d828e0162000c51565b96505060a08b0151945060c08b0151935060e08b0151925062000e4f6101008c0162000bc5565b915062000e606101208c0162000cb2565b90509295989b9194979a5092959850565b60006020828403121562000e83578081fd5b815160ff8116811462000a2f578182fd5b6000815180845260208085019450808401835b8381101562000ec55781518752958201959082019060010162000ea7565b509495945050505050565b901515815260200190565b60006060820185835260206060818501528186518084526080860191508288019350845b8181101562000f265784516001600160a01b03168352938301939183019160010162000eff565b505084810360408601528551808252908201925081860190845b8181101562000f675782516001600160a01b03168552938301939183019160010162000f40565b509298975050505050505050565b602081016003831062000f8457fe5b91905290565b90815260200190565b60008582528460208301526080604083015262000fb4608083018562000e94565b828103606084015262000fc8818562000e94565b979650505050505050565b6040518181016001600160401b038111828210171562000fef57fe5b604052919050565b60006001600160401b038211156200100b57fe5b5060209081020190565b6001600160a01b03811681146200095657600080fd5b60805160a05160601c60c05160e051610100516101205161014051610160516101805160601c6101a0516101c0516101e05160601c6102005160601c6102205160601c6102405160601c61026051610280516102a0516102c051614b79620011316000398061120a5280611d815250806111c75280611d205250806111845280611cbf5250806111335280611c5e525080611d465280612c9a525080611ce55280612c58525080611c845280612c16525080611c235280612bd452508061146e52508061067a5250806109985250806110b6525080611092525080610c5652508061133a52508061137c52508061135b5250806109745250806108fe5250614b796000f3fe608060405234801561001057600080fd5b50600436106102325760003560e01c806374f3b009116101305780639d2c110c116100b8578063d505accf1161007c578063d505accf14610482578063d5c096c414610495578063dd62ed3e146104a8578063e01af92c146104bb578063f89f27ed146104ce57610232565b80639d2c110c14610439578063a457c2d71461044c578063a9059cbb1461045f578063aaabadc514610472578063c0ff1a151461047a57610232565b806387ec6817116100ff57806387ec6817146103f9578063893d20e81461040c5780638d928af81461042157806395d89b41146104295780639b02cdde1461043157610232565b806374f3b0091461039b5780637beed220146103bc5780637ecebe00146103d3578063851c1bb3146103e657610232565b806338e9922e116101be57806350dd6ed91161018257806350dd6ed91461034457806355c67628146103575780636028bfd41461035f578063679aefce1461038057806370a082311461038857610232565b806338e9922e146102fb57806338fff2d01461030e57806339509351146103165780633e5692051461032957806347bc4d921461033c57610232565b80631c0de051116102055780631c0de0511461029f5780631dd746ea146102b657806323b872dd146102cb578063313ce567146102de5780633644e515146102f357610232565b806306fdde0314610237578063095ea7b31461025557806316c38b3c1461027557806318160ddd1461028a575b600080fd5b61023f6104d6565b60405161024c9190614a49565b60405180910390f35b610268610263366004614337565b61056d565b60405161024c9190614950565b61028861028336600461442d565b610584565b005b610292610598565b60405161024c9190614973565b6102a761059e565b60405161024c9392919061495b565b6102be6105c7565b60405161024c9190614918565b6102686102d9366004614282565b6105d6565b6102e661064c565b60405161024c9190614ac5565b610292610655565b610288610309366004614797565b61065f565b610292610678565b610268610324366004614337565b61069c565b6102886103373660046147af565b6106d7565b61026861073e565b61028861035236600461454b565b61074e565b61029261076c565b61037261036d366004614465565b61077d565b60405161024c929190614a5c565b6102926107b4565b61029261039636600461422e565b6107df565b6103ae6103a9366004614465565b6107fe565b60405161024c92919061492b565b6103c4610821565b60405161024c93929190614a75565b6102926103e136600461422e565b6108df565b6102926103f4366004614507565b6108fa565b610372610407366004614465565b61094c565b610414610972565b60405161024c9190614904565b610414610996565b61023f6109ba565b610292610a1b565b6102926104473660046146a1565b610a21565b61026861045a366004614337565b610b08565b61026861046d366004614337565b610b46565b610414610b53565b610292610b5d565b6102886104903660046142c2565b610c21565b6103ae6104a3366004614465565b610d6a565b6102926104b636600461424a565b610d7d565b6102886104c936600461442d565b610da8565b6102be610dd1565b60038054604080516020601f60026000196101006001881615020190951694909404938401819004810282018101909252828152606093909290918301828280156105625780601f1061053757610100808354040283529160200191610562565b820191906000526020600020905b81548152906001019060200180831161054557829003601f168201915b505050505090505b90565b600061057a338484610f5f565b5060015b92915050565b61058c610fc7565b61059581610ff5565b50565b60025490565b60008060006105ab611073565b1592506105b6611090565b91506105c06110b4565b9050909192565b60606105d16110d8565b905090565b6000806105e38533610d7d565b9050610607336001600160a01b03871614806105ff5750838210155b61019e611248565b610612858585611256565b336001600160a01b0386161480159061062d57506000198114155b1561063f5761063f8533858403610f5f565b60019150505b9392505050565b60055460ff1690565b60006105d1611336565b610667610fc7565b61066f6113d3565b610595816113e8565b7f000000000000000000000000000000000000000000000000000000000000000090565b3360008181526001602090815260408083206001600160a01b0387168452909152812054909161057a9185906106d29086610e7b565b610f5f565b6106df610fc7565b6106e76113d3565b6106ef611453565b6107016106fa61146c565b8251610de5565b4261070c8185611490565b935061071d83851115610146611248565b610730848461072a6114a7565b856115ba565b506107396116cf565b505050565b600b546000906105d190826116d6565b610756610fc7565b61075e6113d3565b61076882826116e0565b5050565b6008546000906105d19060c06117df565b60006060610793865161078e61146c565b610de5565b6107a8898989898989896117ec6118ba61191b565b97509795505050505050565b60006105d16107c1610598565b6107d96107cc610b5d565b6107d461146c565b611a3d565b90611a57565b6001600160a01b0381166000908152602081905260409020545b919050565b6060806108118989898989600089611a9f565b9150915097509795505050505050565b600b5460009081906060906108378160c0611b42565b93506108448160e0611b42565b9250600061085061146c565b9050806001600160401b038111801561086857600080fd5b50604051908082528060200260200182016040528015610892578160200160208202803683370190505b50925060005b818110156108d7576108b86108b38460806010850201611b4c565b611b54565b8482815181106108c457fe5b6020908102919091010152600101610898565b505050909192565b6001600160a01b031660009081526006602052604090205490565b60007f00000000000000000000000000000000000000000000000000000000000000008260405160200161092f9291906148c1565b604051602081830303815290604052805190602001209050919050565b6000606061095d865161078e61146c565b6107a889898989898989611b6e611bbe61191b565b7f000000000000000000000000000000000000000000000000000000000000000090565b7f000000000000000000000000000000000000000000000000000000000000000090565b60048054604080516020601f60026000196101006001881615020190951694909404938401819004810282018101909252828152606093909290918301828280156105625780601f1061053757610100808354040283529160200191610562565b60095490565b600080610a318560200151611c1f565b90506000610a428660400151611c1f565b9050600086516001811115610a5357fe5b1415610ab957610a668660600151611db0565b6060870152610a758583611dd1565b9450610a818482611dd1565b9350610a91866060015183611dd1565b60608701526000610aa3878787611ddd565b9050610aaf8183611e05565b9350505050610645565b610ac38583611dd1565b9450610acf8482611dd1565b9350610adf866060015182611dd1565b60608701526000610af1878787611e11565b9050610afd8184611e29565b9050610aaf81611e35565b600080610b153385610d7d565b9050808310610b2f57610b2a33856000610f5f565b610b3c565b610b3c3385858403610f5f565b5060019392505050565b600061057a338484611256565b60006105d1611e5b565b600080610b68610996565b6001600160a01b031663f94d4668610b7e610678565b6040518263ffffffff1660e01b8152600401610b9a9190614973565b60006040518083038186803b158015610bb257600080fd5b505afa158015610bc6573d6000803e3d6000fd5b505050506040513d6000823e601f3d908101601f19168201604052610bee9190810190614362565b50915050610c0381610bfe6110d8565b611ed5565b6000610c0d611f36565b509050610c1a8183611fb4565b9250505090565b610c2f8442111560d1611248565b6001600160a01b0387166000908152600660209081526040808320549051909291610c86917f0000000000000000000000000000000000000000000000000000000000000000918c918c918c9188918d910161499b565b6040516020818303038152906040528051906020012090506000610ca982612026565b9050600060018288888860405160008152602001604052604051610cd09493929190614a2b565b6020604051602081039080840390855afa158015610cf2573d6000803e3d6000fd5b5050604051601f1901519150610d3490506001600160a01b03821615801590610d2c57508b6001600160a01b0316826001600160a01b0316145b6101f8611248565b6001600160a01b038b166000908152600660205260409020600185019055610d5d8b8b8b610f5f565b5050505050505050505050565b6060806108118989898989600089612042565b6001600160a01b03918216600090815260016020908152604080832093909416825291909152205490565b610db0610fc7565b610db86113d3565b610dc0611453565b610dc981612165565b6105956116cf565b60606105d16114a7565b80610768816121a7565b6107688183146067611248565b6001600160401b03811b1992909216911b1790565b6000610e17838311156001611248565b50900390565b600061057e670de0b6b3a7640000610e378461ffff610ec6565b90610f14565b600061057e670de0b6b3a7640000610e3784637fffffff610ec6565b637fffffff811b1992909216911b1790565b61ffff811b1992909216911b1790565b60008282016106458482101583611248565b63ffffffff811b1992909216911b1790565b60006001821b1984168284610eb5576000610eb8565b60015b60ff16901b17949350505050565b6000828202610eea841580610ee3575083858381610ee057fe5b04145b6003611248565b80610ef957600091505061057e565b670de0b6b3a764000060001982015b0460010191505061057e565b6000610f238215156004611248565b82610f305750600061057e565b670de0b6b3a764000083810290610f5390858381610f4a57fe5b04146005611248565b826001820381610f0857fe5b6001600160a01b0380841660008181526001602090815260408083209487168084529490915290819020849055517f8c5be1e5ebec7d5bd14f71427d1e84f3dd0314c0f7b2291e5b200ac8c7c3b92590610fba908590614973565b60405180910390a3505050565b6000610fde6000356001600160e01b0319166108fa565b9050610595610fed8233612220565b610191611248565b801561101557611010611006611090565b4210610193611248565b61102a565b61102a6110206110b4565b42106101a9611248565b6007805460ff19168215151790556040517f9e3a5e37224532dea67b89face185703738a228a6e8a23dee546960180d3be6490611068908390614950565b60405180910390a150565b600061107d6110b4565b4211806105d157505060075460ff161590565b7f000000000000000000000000000000000000000000000000000000000000000090565b7f000000000000000000000000000000000000000000000000000000000000000090565b606060006110e461146c565b90506000816001600160401b03811180156110fe57600080fd5b50604051908082528060200260200182016040528015611128578160200160208202803683370190505b5090508115611170577f00000000000000000000000000000000000000000000000000000000000000008160008151811061115f57fe5b602002602001018181525050611179565b915061056a9050565b6001821115611170577f0000000000000000000000000000000000000000000000000000000000000000816001815181106111b057fe5b6020026020010181815250506002821115611170577f0000000000000000000000000000000000000000000000000000000000000000816002815181106111f357fe5b6020026020010181815250506003821115611170577f00000000000000000000000000000000000000000000000000000000000000008160038151811061123657fe5b60200260200101818152505091505090565b816107685761076881612310565b61126d6001600160a01b0384161515610198611248565b6112846001600160a01b0383161515610199611248565b61128f838383610739565b6001600160a01b0383166000908152602081905260409020546112b590826101a0612363565b6001600160a01b0380851660009081526020819052604080822093909355908416815220546112e49082610e7b565b6001600160a01b0380841660008181526020819052604090819020939093559151908516907fddf252ad1be2c89b69c2b068fc378daa952ba7f163c4a11628f55a4df523b3ef90610fba908590614973565b60007f00000000000000000000000000000000000000000000000000000000000000007f00000000000000000000000000000000000000000000000000000000000000007f00000000000000000000000000000000000000000000000000000000000000006113a3612379565b306040516020016113b89594939291906149cf565b60405160208183030381529060405280519060200120905090565b6113e66113de611073565b610192611248565b565b6113fb64e8d4a5100082101560cb611248565b61141167016345785d8a000082111560ca611248565b600854611420908260c0610df2565b6008556040517fa9ba3ffe0b6c366b81232caab38605a0699ad5398d6cce76f91ee809e322dafc90611068908390614973565b6114656002600a541415610190611248565b6002600a55565b7f000000000000000000000000000000000000000000000000000000000000000090565b6000818310156114a05781610645565b5090919050565b606060006114b361146c565b90506000816001600160401b03811180156114cd57600080fd5b506040519080825280602002602001820160405280156114f7578160200160208202803683370190505b50600b5490915061150960008261237d565b8260008151811061151657fe5b60200260200101818152505061152d60018261237d565b8260018151811061153a57fe5b60200260200101818152505082600214156115595750915061056a9050565b61156460028261237d565b8260028151811061157157fe5b60200260200101818152505082600314156115905750915061056a9050565b61159b60038261237d565b826003815181106115a857fe5b60209081029190910101525091505090565b600b546000805b83518110156116565760008482815181106115d857fe5b602002602001015190506115f8662386f26fc1000082101561012e611248565b61163f61160482610e1d565b8360100260800161163861162a8a878151811061161d57fe5b6020026020010151610e3d565b88906004601f890201610e59565b9190610e6b565b935061164b8382610e7b565b9250506001016115c1565b5061166d670de0b6b3a76400008214610134611248565b6116868560e061167f858a60c0610e8d565b9190610e8d565b600b556040517f0f3631f9dab08169d1db21c6dc5f32536fb2b0a6b9bb5330d71c52132f968be0906116bf908890889088908890614a94565b60405180910390a1505050505050565b6001600a55565b1c60019081161490565b60006116ea610678565b905060006116f6610996565b6001600160a01b031663b05f8e4883866040518363ffffffff1660e01b8152600401611723929190614a14565b60806040518083038186803b15801561173b57600080fd5b505afa15801561174f573d6000803e3d6000fd5b505050506040513d601f19601f8201168201806040525081019061177391906147fc565b604051630639cdb560e21b81529094506001600160a01b03851693506318e736d492506117a79150859087906004016149fb565b600060405180830381600087803b1580156117c157600080fd5b505af11580156117d5573d6000803e3d6000fd5b5050505050505050565b1c6001600160401b031690565b60006060806000806117fc611f36565b91509150611808611073565b15611840576000611819838c611fb4565b905061182b8b8484600954858e6123d3565b935061183a8b85610e07612482565b5061188b565b61184861146c565b6001600160401b038111801561185d57600080fd5b50604051908082528060200260200182016040528015611887578160200160208202803683370190505b5092505b6118978a8389896124ed565b90955093506118a78a858461255c565b6009555050985098509895505050505050565b60005b6118c561146c565b811015610739576118fc8382815181106118db57fe5b60200260200101518383815181106118ef57fe5b6020026020010151611a57565b83828151811061190857fe5b60209081029190910101526001016118bd565b3330146119d9576000306001600160a01b031660003660405161193f9291906148d9565b6000604051808303816000865af19150503d806000811461197c576040519150601f19603f3d011682016040523d82523d6000602084013e611981565b606091505b50509050806000811461199057fe5b60046000803e6000516001600160e01b0319166343adbafb60e01b81146119bb573d6000803e3d6000fd5b506020600460003e604060205260243d03602460403e601c3d016000f35b60006119e36110d8565b90506119ef8782611ed5565b600080611a068c8c8c8c8c8c898d8d63ffffffff16565b5091509150611a1981848663ffffffff16565b8051601f1982018390526343adbafb603f1983015260200260231982016044820181fd5b6000828202610645841580610ee3575083858381610ee057fe5b6000611a668215156004611248565b82611a735750600061057e565b670de0b6b3a764000083810290611a8d90858381610f4a57fe5b828181611a9657fe5b0491505061057e565b60608088611ac9611aae610996565b6001600160a01b0316336001600160a01b03161460cd611248565b611ade611ad4610678565b82146101f4611248565b6000611ae86110d8565b9050611af48882611ed5565b6000806000611b098e8e8e8e8e8e8a8f6117ec565b925092509250611b198d84612575565b611b2382856118ba565b611b2d81856118ba565b909550935050505b5097509795505050505050565b1c63ffffffff1690565b1c61ffff1690565b600061057e61ffff610e3784670de0b6b3a7640000610ec6565b6000606080611b9a611b7e610972565b6001600160a01b03168b6001600160a01b031614610148611248565b611baa8b8b8b8b8b8b8b8b61257f565b925092509250985098509895505050505050565b60005b611bc961146c565b81101561073957611c00838281518110611bdf57fe5b6020026020010151838381518110611bf357fe5b6020026020010151610f14565b838281518110611c0c57fe5b6020908102919091010152600101611bc1565b60007f00000000000000000000000000000000000000000000000000000000000000006001600160a01b0316826001600160a01b03161415611c8257507f00000000000000000000000000000000000000000000000000000000000000006107f9565b7f00000000000000000000000000000000000000000000000000000000000000006001600160a01b0316826001600160a01b03161415611ce357507f00000000000000000000000000000000000000000000000000000000000000006107f9565b7f00000000000000000000000000000000000000000000000000000000000000006001600160a01b0316826001600160a01b03161415611d4457507f00000000000000000000000000000000000000000000000000000000000000006107f9565b7f00000000000000000000000000000000000000000000000000000000000000006001600160a01b0316826001600160a01b03161415611da557507f00000000000000000000000000000000000000000000000000000000000000006107f9565b6107f9610135612310565b600080611dc5611dbe61076c565b8490610ec6565b90506106458382610e07565b60006106458383612603565b6000611df2611dea61073e565b610147611248565b611dfd84848461262f565b949350505050565b60006106458383611a57565b6000611e1e611dea61073e565b611dfd848484612662565b60006106458383610f14565b600061057e611e54611e4561076c565b670de0b6b3a764000090610e07565b8390610f14565b6000611e65610996565b6001600160a01b031663aaabadc56040518163ffffffff1660e01b815260040160206040518083038186803b158015611e9d57600080fd5b505afa158015611eb1573d6000803e3d6000fd5b505050506040513d601f19601f820116820180604052508101906105d1919061452f565b60005b611ee061146c565b81101561073957611f17838281518110611ef657fe5b6020026020010151838381518110611f0a57fe5b6020026020010151612603565b838281518110611f2357fe5b6020908102919091010152600101611ed8565b60606000611f426114a7565b915060009050600082600081518110611f5757fe5b602002602001015190506000600190505b8351811015611fae5781848281518110611f7e57fe5b60200260200101511115611fa657809250838181518110611f9b57fe5b602002602001015191505b600101611f68565b50509091565b670de0b6b3a764000060005b83518110156120165761200c612005858381518110611fdb57fe5b6020026020010151858481518110611fef57fe5b602002602001015161269590919063ffffffff16565b8390612603565b9150600101611fc0565b5061057e60008211610137611248565b6000612030611336565b8260405160200161092f9291906148e9565b60608088612051611aae610996565b61205c611ad4610678565b60006120666110d8565b9050612070610598565b612115576000806120848d8d8d868b6126e4565b91509150612099620f424083101560cc611248565b6120a76000620f424061272a565b6120b68b620f4240840361272a565b6120c08184611bbe565b806120c961146c565b6001600160401b03811180156120de57600080fd5b50604051908082528060200260200182016040528015612108578160200160208202803683370190505b5095509550505050611b35565b61211f8882611ed5565b60008060006121348e8e8e8e8e8e8a8f611b6e565b9250925092506121448c8461272a565b61214e8285611bbe565b61215881856118ba565b9095509350611b35915050565b600b5461217490826000610e9f565b600b556040517f5a9e84f78f7957cb4ed7478eb0fcad35ee4ecbe2e0f298420b28a3955392573f90611068908390614950565b6002815110156121b657610595565b6000816000815181106121c557fe5b602002602001015190506000600190505b82518110156107395760008382815181106121ed57fe5b60200260200101519050612216816001600160a01b0316846001600160a01b0316106065611248565b91506001016121d6565b600073ba1ba1ba1ba1ba1ba1ba1ba1ba1ba1ba1ba1ba1b61223f610972565b6001600160a01b03161415801561225a575061225a83612734565b1561228257612267610972565b6001600160a01b0316336001600160a01b031614905061057e565b61228a611e5b565b6001600160a01b0316639be2a8848484306040518463ffffffff1660e01b81526004016122b99392919061497c565b60206040518083038186803b1580156122d157600080fd5b505afa1580156122e5573d6000803e3d6000fd5b505050506040513d601f19601f820116820180604052508101906123099190614449565b905061057e565b62461bcd60e51b6000908152602060045260076024526642414c23000030600a808404818106603090810160081b95839006959095019082900491820690940160101b939093010160c81b604452606490fd5b60006123728484111583611248565b5050900390565b4690565b600080612398612393846004601f880201612770565b61277a565b905060006123af6108b38560806010890201611b4c565b905060006123bc85612796565b90506123c9838383612815565b9695505050505050565b606060006123df61146c565b6001600160401b03811180156123f457600080fd5b5060405190808252806020026020018201604052801561241e578160200160208202803683370190505b5090508261242d5790506123c9565b61246088878151811061243c57fe5b602002602001015188888151811061245057fe5b6020026020010151878787612889565b81878151811061246c57fe5b6020908102919091010152979650505050505050565b60005b61248d61146c565b8110156124e7576124c88482815181106124a357fe5b60200260200101518483815181106124b757fe5b60200260200101518463ffffffff16565b8482815181106124d457fe5b6020908102919091010152600101612485565b50505050565b6000606060006124fc84612911565b9050600081600281111561250c57fe5b14156125275761251d878786612927565b9250925050612553565b600181600281111561253557fe5b14156125455761251d8785612a09565b61251d87878787612a3b565b505b94509492505050565b600061256b8484610e07612482565b611dfd8285611fb4565b6107688282612aa9565b600060608061258c6113d3565b600080612597611f36565b9150915060006125a7838c611fb4565b905060006125bb8c8585600954868f6123d3565b90506125ca8c82610e07612482565b6000806125d98e878d8d612b65565b915091506125e88e8288612bc0565b60095590975095509350505050985098509895505050505050565b600082820261261d841580610ee3575083858381610ee057fe5b670de0b6b3a764000090049392505050565b60006126396113d3565b611dfd8361264a8660200151612bcf565b846126588860400151612bcf565b8860600151612cf1565b600061266c6113d3565b611dfd8361267d8660200151612bcf565b8461268b8860400151612bcf565b8860600151612d5e565b6000806126a28484612dd4565b905060006126bc6126b583612710610ec6565b6001610e7b565b9050808210156126d15760009250505061057e565b6126db8282610e07565b9250505061057e565b6000606061270f6126f3610972565b6001600160a01b0316876001600160a01b031614610148611248565b61271c8787878787612ed5565b915091509550959350505050565b6107688282612f69565b6000612746633806be4b60e21b6108fa565b821480612761575061275e633e56920560e01b6108fa565b82145b8061057e575061057e82612ff7565b1c637fffffff1690565b600061057e637fffffff610e3784670de0b6b3a7640000610ec6565b600042816127a58460c0611b42565b905060006127b48560e0611b42565b9050808311156127d157670de0b6b3a764000093505050506107f9565b818310156127e557600093505050506107f9565b8181038284038115612800576127fb8183611a57565b61280a565b670de0b6b3a76400005b979650505050505050565b600081158061282357508284145b1561282f575082610645565b670de0b6b3a76400008210612845575081610645565b8284111561286f57600061285b83858703612603565b90506128678582610e07565b915050610645565b600061287d83868603612603565b90506128678582610e7b565b600083831161289a57506000612908565b60006128a68585610f14565b905060006128bc670de0b6b3a764000088611a57565b90506128d0826709b6e64a8ec60000611490565b915060006128de8383613029565b905060006128f56128ee83613055565b8b90612603565b90506129018187612603565b9450505050505b95945050505050565b60008180602001905181019061057e9190614598565b600060606129336113d3565b60008061293f8561307b565b9150915061295761294e61146c565b82106064611248565b600061296161146c565b6001600160401b038111801561297657600080fd5b506040519080825280602002602001820160405280156129a0578160200160208202803683370190505b5090506129e48883815181106129b257fe5b60200260200101518884815181106129c657fe5b6020026020010151856129d7610598565b6129df61076c565b61309d565b8183815181106129f057fe5b6020908102919091010152919791965090945050505050565b600060606000612a188461315d565b90506000612a2e8683612a29610598565b613173565b9196919550909350505050565b60006060612a476113d3565b600080612a5385613224565b91509150612a64825161078e61146c565b612a6e8287611ed5565b6000612a8b898985612a7e610598565b612a8661076c565b61323c565b9050612a9b8282111560cf611248565b989197509095505050505050565b612ac06001600160a01b038316151561019b611248565b612acc82600083610739565b6001600160a01b038216600090815260208190526040902054612af290826101a1612363565b6001600160a01b038316600090815260208190526040902055600254612b189082613468565b6002556040516000906001600160a01b038416907fddf252ad1be2c89b69c2b068fc378daa952ba7f163c4a11628f55a4df523b3ef90612b59908590614973565b60405180910390a35050565b600060606000612b7484612911565b90506001816002811115612b8457fe5b1415612b965761251d87878787613476565b6002816002811115612ba457fe5b1415612bb55761251d8787866134d3565b612551610136612310565b600061256b8484610e7b612482565b6000807f00000000000000000000000000000000000000000000000000000000000000006001600160a01b0316836001600160a01b03161415612c1457506000612ce5565b7f00000000000000000000000000000000000000000000000000000000000000006001600160a01b0316836001600160a01b03161415612c5657506001612ce5565b7f00000000000000000000000000000000000000000000000000000000000000006001600160a01b0316836001600160a01b03161415612c9857506002612ce5565b7f00000000000000000000000000000000000000000000000000000000000000006001600160a01b0316836001600160a01b03161415612cda57506003612ce5565b612ce5610135612310565b61064581600b5461237d565b6000612d13612d0887670429d069189e0000612603565b831115610130611248565b6000612d1f8784610e7b565b90506000612d2d8883610f14565b90506000612d3b8887611a57565b90506000612d498383613029565b9050612901612d5782613055565b8990612603565b6000612d80612d7585670429d069189e0000612603565b831115610131611248565b6000612d96612d8f8685610e07565b8690610f14565b90506000612da48588610f14565b90506000612db28383613029565b90506000612dc882670de0b6b3a7640000610e07565b90506129018a82610ec6565b600081612dea5750670de0b6b3a764000061057e565b82612df75750600061057e565b612e08600160ff1b84106006611248565b82612e2e770bce5086492111aea88f4bb1ca6bcf584181ea8059f7653284106007611248565b826000670c7d713b49da000083138015612e4f5750670f43fc2c04ee000083125b15612e86576000612e5f8461357f565b9050670de0b6b3a764000080820784020583670de0b6b3a764000083050201915050612e94565b81612e908461369d565b0290505b670de0b6b3a76400009005612ecc680238fd42c5cf03ffff198212801590612ec5575068070c1cc73b00c800008213155b6008611248565b6123c981613a3c565b60006060612ee16113d3565b6000612eec84612911565b9050612f076000826002811115612eff57fe5b1460ce611248565b6000612f1285613e19565b9050612f1f6106fa61146c565b612f298187611ed5565b6000612f33611f36565b5090506000612f428284611fb4565b90506000612f52826107d461146c565b600992909255509a91995090975050505050505050565b612f7560008383610739565b600254612f829082610e7b565b6002556001600160a01b038216600090815260208190526040902054612fa89082610e7b565b6001600160a01b0383166000818152602081905260408082209390935591519091907fddf252ad1be2c89b69c2b068fc378daa952ba7f163c4a11628f55a4df523b3ef90612b59908590614973565b6000613009631c74c91760e11b6108fa565b82148061057e57506130216350dd6ed960e01b6108fa565b909114919050565b6000806130368484612dd4565b905060006130496126b583612710610ec6565b90506129088282610e7b565b6000670de0b6b3a7640000821061306d57600061057e565b50670de0b6b3a76400000390565b600080828060200190518101906130929190614627565b909590945092505050565b6000806130ae84610e378188610e07565b90506130c76709b6e64a8ec60000821015610132611248565b60006130e56130de670de0b6b3a764000089611a57565b8390613029565b905060006130fc6130f583613055565b8a90612603565b9050600061310989613055565b905060006131178383610ec6565b905060006131258483610e07565b905061314d61314661313f670de0b6b3a76400008b610e07565b8490612603565b8290610e7b565b9c9b505050505050505050505050565b60008180602001905181019061064591906145fa565b606060006131818484611a57565b9050600085516001600160401b038111801561319c57600080fd5b506040519080825280602002602001820160405280156131c6578160200160208202803683370190505b50905060005b865181101561321a576131fb838883815181106131e557fe5b602002602001015161260390919063ffffffff16565b82828151811061320757fe5b60209081029190910101526001016131cc565b5095945050505050565b606060008280602001905181019061309291906145b4565b60008084516001600160401b038111801561325657600080fd5b50604051908082528060200260200182016040528015613280578160200160208202803683370190505b5090506000805b8851811015613345576132e089828151811061329f57fe5b6020026020010151610e378984815181106132b657fe5b60200260200101518c85815181106132ca57fe5b6020026020010151610e0790919063ffffffff16565b8382815181106132ec57fe5b60200260200101818152505061333b61333489838151811061330a57fe5b602002602001015185848151811061331e57fe5b6020026020010151610ec690919063ffffffff16565b8390610e7b565b9150600101613287565b50670de0b6b3a764000060005b895181101561344757600084828151811061336957fe5b60200260200101518411156133c957600061339261338686613055565b8d85815181106131e557fe5b905060006133a6828c86815181106132ca57fe5b90506133c0613334611e54670de0b6b3a76400008c610e07565b925050506133e0565b8882815181106133d557fe5b602002602001015190505b60006134098c84815181106133f157fe5b60200260200101516107d9848f87815181106132ca57fe5b905061343b6134348c858151811061341d57fe5b60200260200101518361269590919063ffffffff16565b8590612603565b93505050600101613352565b5061345b61345482613055565b8790610ec6565b9998505050505050505050565b600061064583836001612363565b6000606060008061348685613224565b9150915061349c61349561146c565b8351610de5565b6134a68287611ed5565b60006134c38989856134b6610598565b6134be61076c565b613e2f565b9050612a9b8282101560d0611248565b600060606000806134e38561307b565b915091506134f261294e61146c565b60006134fc61146c565b6001600160401b038111801561351157600080fd5b5060405190808252806020026020018201604052801561353b578160200160208202803683370190505b5090506129e488838151811061354d57fe5b602002602001015188848151811061356157fe5b602002602001015185613572610598565b61357a61076c565b61403f565b670de0b6b3a7640000026000806a0c097ce7bc90715b34b9f160241b808401906ec097ce7bc90715b34b9f0fffffffff19850102816135ba57fe5b05905060006a0c097ce7bc90715b34b9f160241b82800205905081806a0c097ce7bc90715b34b9f160241b81840205915060038205016a0c097ce7bc90715b34b9f160241b82840205915060058205016a0c097ce7bc90715b34b9f160241b82840205915060078205016a0c097ce7bc90715b34b9f160241b82840205915060098205016a0c097ce7bc90715b34b9f160241b828402059150600b8205016a0c097ce7bc90715b34b9f160241b828402059150600d8205016a0c097ce7bc90715b34b9f160241b828402059150600f826002919005919091010295945050505050565b6000670de0b6b3a76400008212156136d9576136cf826a0c097ce7bc90715b34b9f160241b816136c957fe5b0561369d565b60000390506107f9565b60007e1600ef3172e58d2e933ec884fde10064c63b5372d805e203c0000000000000831261372a57770195e54c5dd42177f53a27172fa9ec630262827000000000830592506806f05b59d3b2000000015b73011798004d755d3c8bc8e03204cf44619e0000008312613762576b1425982cf597cd205cef7380830592506803782dace9d9000000015b606492830292026e01855144814a7ff805980ff008400083126137aa576e01855144814a7ff805980ff008400068056bc75e2d63100000840205925068ad78ebc5ac62000000015b6b02df0ab5a80a22c61ab5a70083126137e5576b02df0ab5a80a22c61ab5a70068056bc75e2d6310000084020592506856bc75e2d631000000015b693f1fce3da636ea5cf850831261381c57693f1fce3da636ea5cf85068056bc75e2d631000008402059250682b5e3af16b18800000015b690127fa27722cc06cc5e2831261385357690127fa27722cc06cc5e268056bc75e2d6310000084020592506815af1d78b58c400000015b68280e60114edb805d0383126138885768280e60114edb805d0368056bc75e2d631000008402059250680ad78ebc5ac6200000015b680ebc5fb4174612111083126138b357680ebc5fb4174612111068056bc75e2d631000009384020592015b6808f00f760a4b2db55d83126138e8576808f00f760a4b2db55d68056bc75e2d6310000084020592506802b5e3af16b1880000015b6806f5f1775788937937831261391d576806f5f177578893793768056bc75e2d63100000840205925068015af1d78b58c40000015b6806248f33704b2866038312613951576806248f33704b28660368056bc75e2d63100000840205925067ad78ebc5ac620000015b6805c548670b9510e7ac8312613985576805c548670b9510e7ac68056bc75e2d6310000084020592506756bc75e2d6310000015b600068056bc75e2d63100000840168056bc75e2d6310000080860302816139a857fe5b059050600068056bc75e2d63100000828002059050818068056bc75e2d63100000818402059150600382050168056bc75e2d63100000828402059150600582050168056bc75e2d63100000828402059150600782050168056bc75e2d63100000828402059150600982050168056bc75e2d63100000828402059150600b820501600202606485820105979650505050505050565b6000613a6b680238fd42c5cf03ffff198312158015613a64575068070c1cc73b00c800008313155b6009611248565b6000821215613a9e57613a8082600003613a3c565b6a0c097ce7bc90715b34b9f160241b81613a9657fe5b0590506107f9565b60006806f05b59d3b20000008312613ade57506806f05b59d3b1ffffff1990910190770195e54c5dd42177f53a27172fa9ec630262827000000000613b14565b6803782dace9d90000008312613b1057506803782dace9d8ffffff19909101906b1425982cf597cd205cef7380613b14565b5060015b6064929092029168056bc75e2d6310000068ad78ebc5ac620000008412613b645768ad78ebc5ac61ffffff199093019268056bc75e2d631000006e01855144814a7ff805980ff008400082020590505b6856bc75e2d6310000008412613ba0576856bc75e2d630ffffff199093019268056bc75e2d631000006b02df0ab5a80a22c61ab5a70082020590505b682b5e3af16b188000008412613bda57682b5e3af16b187fffff199093019268056bc75e2d63100000693f1fce3da636ea5cf85082020590505b6815af1d78b58c4000008412613c14576815af1d78b58c3fffff199093019268056bc75e2d63100000690127fa27722cc06cc5e282020590505b680ad78ebc5ac62000008412613c4d57680ad78ebc5ac61fffff199093019268056bc75e2d6310000068280e60114edb805d0382020590505b68056bc75e2d631000008412613c865768056bc75e2d630fffff199093019268056bc75e2d63100000680ebc5fb4174612111082020590505b6802b5e3af16b18800008412613cbf576802b5e3af16b187ffff199093019268056bc75e2d631000006808f00f760a4b2db55d82020590505b68015af1d78b58c400008412613cf85768015af1d78b58c3ffff199093019268056bc75e2d631000006806f5f177578893793782020590505b68056bc75e2d631000008481019085906002908280020505918201919050600368056bc75e2d631000008783020505918201919050600468056bc75e2d631000008783020505918201919050600568056bc75e2d631000008783020505918201919050600668056bc75e2d631000008783020505918201919050600768056bc75e2d631000008783020505918201919050600868056bc75e2d631000008783020505918201919050600968056bc75e2d631000008783020505918201919050600a68056bc75e2d631000008783020505918201919050600b68056bc75e2d631000008783020505918201919050600c68056bc75e2d631000008783020505918201919050606468056bc75e2d63100000848402058502059695505050505050565b606081806020019051810190610645919061465d565b60008084516001600160401b0381118015613e4957600080fd5b50604051908082528060200260200182016040528015613e73578160200160208202803683370190505b5090506000805b8851811015613f1b57613ed3898281518110613e9257fe5b60200260200101516107d9898481518110613ea957fe5b60200260200101518c8581518110613ebd57fe5b6020026020010151610e7b90919063ffffffff16565b838281518110613edf57fe5b602002602001018181525050613f11613334898381518110613efd57fe5b60200260200101518584815181106131e557fe5b9150600101613e7a565b50670de0b6b3a764000060005b8951811015613ffc57600083858381518110613f4057fe5b60200260200101511115613f9c576000613f6561338686670de0b6b3a7640000610e07565b90506000613f79828c86815181106132ca57fe5b9050613f93613334612005670de0b6b3a76400008c610e07565b92505050613fb3565b888281518110613fa857fe5b602002602001015190505b6000613fdc8c8481518110613fc457fe5b60200260200101516107d9848f8781518110613ebd57fe5b9050613ff06134348c858151811061341d57fe5b93505050600101613f28565b50670de0b6b3a76400008111156140335761402961402282670de0b6b3a7640000610e07565b8790612603565b9350505050612908565b60009350505050612908565b60008061405084610e378188610e7b565b90506140696729a2241af62c0000821115610133611248565b60006140806130de670de0b6b3a764000089610f14565b905060006140a061409983670de0b6b3a7640000610e07565b8a90610ec6565b905060006140ad89613055565b905060006140bb8383610ec6565b905060006140c98483610e07565b905061314d6131466140e3670de0b6b3a76400008b610e07565b8490610f14565b80356107f981614b13565b600082601f830112614105578081fd5b8135602061411a61411583614af6565b614ad3565b8281528181019085830183850287018401881015614136578586fd5b855b8581101561415457813584529284019290840190600101614138565b5090979650505050505050565b600082601f830112614171578081fd5b8151602061418161411583614af6565b828152818101908583018385028701840188101561419d578586fd5b855b858110156141545781518452928401929084019060010161419f565b600082601f8301126141cb578081fd5b81356001600160401b038111156141de57fe5b6141f1601f8201601f1916602001614ad3565b818152846020838601011115614205578283fd5b816020850160208301379081016020019190915292915050565b8035600281106107f957600080fd5b60006020828403121561423f578081fd5b813561064581614b13565b6000806040838503121561425c578081fd5b823561426781614b13565b9150602083013561427781614b13565b809150509250929050565b600080600060608486031215614296578081fd5b83356142a181614b13565b925060208401356142b181614b13565b929592945050506040919091013590565b600080600080600080600060e0888a0312156142dc578485fd5b87356142e781614b13565b965060208801356142f781614b13565b95506040880135945060608801359350608088013560ff8116811461431a578384fd5b9699959850939692959460a0840135945060c09093013592915050565b60008060408385031215614349578182fd5b823561435481614b13565b946020939093013593505050565b600080600060608486031215614376578081fd5b83516001600160401b038082111561438c578283fd5b818601915086601f83011261439f578283fd5b815160206143af61411583614af6565b82815281810190858301838502870184018c10156143cb578788fd5b8796505b848710156143f65780516143e281614b13565b8352600196909601959183019183016143cf565b509189015191975090935050508082111561440f578283fd5b5061441c86828701614161565b925050604084015190509250925092565b60006020828403121561443e578081fd5b813561064581614b28565b60006020828403121561445a578081fd5b815161064581614b28565b600080600080600080600060e0888a03121561447f578081fd5b87359650602088013561449181614b13565b955060408801356144a181614b13565b945060608801356001600160401b03808211156144bc578283fd5b6144c88b838c016140f5565b955060808a0135945060a08a0135935060c08a01359150808211156144eb578283fd5b506144f88a828b016141bb565b91505092959891949750929550565b600060208284031215614518578081fd5b81356001600160e01b031981168114610645578182fd5b600060208284031215614540578081fd5b815161064581614b13565b6000806040838503121561455d578182fd5b823561456881614b13565b915060208301356001600160401b03811115614582578182fd5b61458e858286016141bb565b9150509250929050565b6000602082840312156145a9578081fd5b815161064581614b36565b6000806000606084860312156145c8578081fd5b83516145d381614b36565b60208501519093506001600160401b038111156145ee578182fd5b61441c86828701614161565b6000806040838503121561460c578182fd5b825161461781614b36565b6020939093015192949293505050565b60008060006060848603121561463b578081fd5b835161464681614b36565b602085015160409095015190969495509392505050565b6000806040838503121561466f578182fd5b825161467a81614b36565b60208401519092506001600160401b03811115614695578182fd5b61458e85828601614161565b6000806000606084860312156146b5578081fd5b83356001600160401b03808211156146cb578283fd5b81860191506101208083890312156146e1578384fd5b6146ea81614ad3565b90506146f58361421f565b8152614703602084016140ea565b6020820152614714604084016140ea565b6040820152606083013560608201526080830135608082015260a083013560a082015261474360c084016140ea565b60c082015261475460e084016140ea565b60e0820152610100808401358381111561476c578586fd5b6147788a8287016141bb565b9183019190915250976020870135975060409096013595945050505050565b6000602082840312156147a8578081fd5b5035919050565b6000806000606084860312156147c3578081fd5b833592506020840135915060408401356001600160401b038111156147e6578182fd5b6147f2868287016140f5565b9150509250925092565b60008060008060808587031215614811578182fd5b845193506020850151925060408501519150606085015161483181614b13565b939692955090935050565b6000815180845260208085019450808401835b8381101561486b5781518752958201959082019060010161484f565b509495945050505050565b60008151808452815b8181101561489b5760208185018101518683018201520161487f565b818111156148ac5782602083870101525b50601f01601f19169290920160200192915050565b9182526001600160e01b031916602082015260240190565b6000828483379101908152919050565b61190160f01b81526002810192909252602282015260420190565b6001600160a01b0391909116815260200190565b600060208252610645602083018461483c565b60006040825261493e604083018561483c565b8281036020840152612908818561483c565b901515815260200190565b92151583526020830191909152604082015260600190565b90815260200190565b9283526001600160a01b03918216602084015216604082015260600190565b9586526001600160a01b0394851660208701529290931660408501526060840152608083019190915260a082015260c00190565b9485526020850193909352604084019190915260608301526001600160a01b0316608082015260a00190565b600083825260406020830152611dfd6040830184614876565b9182526001600160a01b0316602082015260400190565b93845260ff9290921660208401526040830152606082015260800190565b6000602082526106456020830184614876565b600083825260406020830152611dfd604083018461483c565b600084825283602083015260606040830152612908606083018461483c565b600085825284602083015260806040830152614ab3608083018561483c565b828103606084015261280a818561483c565b60ff91909116815260200190565b6040518181016001600160401b0381118282101715614aee57fe5b604052919050565b60006001600160401b03821115614b0957fe5b5060209081020190565b6001600160a01b038116811461059557600080fd5b801515811461059557600080fd5b6003811061059557600080fdfea2646970667358221220d21be7ce4fc6aaeaa9ef25e30893f6713581cdcb4618c8029559b0242c6229dc64736f6c63430007060033",
  "linkReferences": {},
  "deployedLinkReferences": {}
}