{
  "_format": "hh-sol-artifact-1",
  "contractName": "WeightedPoolFactory",
  "sourceName": "contracts/NoProtocolFeeLiquidityBootstrappingPoolFactory.sol",
  "abi": [
    {
      "inputs": [
        {
          "internalType": "contract IVault",
          "name": "vault",
          "type": "address"
        },
        {
          "internalType": "address",
          "name": "defaultPoolOwner",
          "type": "address"
        }
      ],
      "stateMutability": "nonpayable",
      "type": "constructor"
    },
    {
      "anonymous": false,
      "inputs": [
        {
          "indexed": true,
          "internalType": "address",
          "name": "pool",
          "type": "address"
        }
      ],
      "name": "PoolCreated",
      "type": "event"
    },
    {
      "inputs": [
        {
          "internalType": "string",
          "name": "name",
          "type": "string"
        },
        {
          "internalType": "string",
          "name": "symbol",
          "type": "string"
        },
        {
          "internalType": "contract IERC20[]",
          "name": "tokens",
          "type": "address[]"
        },
        {
          "internalType": "uint256[]",
          "name": "weights",
          "type": "uint256[]"
        },
        {
          "internalType": "address[]",
          "name": "assetManagers",
          "type": "address[]"
        },
        {
          "internalType": "uint256",
          "name": "swapFeePercentage",
          "type": "uint256"
        },
        {
          "internalType": "address",
          "name": "owner",
          "type": "address"
        }
      ],
      "name": "create",
      "outputs": [
        {
          "internalType": "address",
          "name": "",
          "type": "address"
        }
      ],
      "stateMutability": "nonpayable",
      "type": "function"
    },
    {
      "inputs": [],
      "name": "getCreationCode",
      "outputs": [
        {
          "internalType": "bytes",
          "name": "",
          "type": "bytes"
        }
      ],
      "stateMutability": "view",
      "type": "function"
    },
    {
      "inputs": [],
      "name": "getCreationCodeContracts",
      "outputs": [
        {
          "internalType": "address",
          "name": "contractA",
          "type": "address"
        },
        {
          "internalType": "address",
          "name": "contractB",
          "type": "address"
        }
      ],
      "stateMutability": "view",
      "type": "function"
    },
    {
      "inputs": [],
      "name": "getDefaultPoolOwner",
      "outputs": [
        {
          "internalType": "address",
          "name": "",
          "type": "address"
        }
      ],
      "stateMutability": "view",
      "type": "function"
    },
    {
      "inputs": [],
      "name": "getPauseConfiguration",
      "outputs": [
        {
          "internalType": "uint256",
          "name": "pauseWindowDuration",
          "type": "uint256"
        },
        {
          "internalType": "uint256",
          "name": "bufferPeriodDuration",
          "type": "uint256"
        }
      ],
      "stateMutability": "view",
      "type": "function"
    },
    {
      "inputs": [],
      "name": "getVault",
      "outputs": [
        {
          "internalType": "contract IVault",
          "name": "",
          "type": "address"
        }
      ],
      "stateMutability": "view",
      "type": "function"
    },
    {
      "inputs": [
        {
          "internalType": "address",
          "name": "pool",
          "type": "address"
        }
      ],
      "name": "isPoolFromFactory",
      "outputs": [
        {
          "internalType": "bool",
          "name": "",
          "type": "bool"
        }
      ],
      "stateMutability": "view",
      "type": "function"
    }
  ],
  "bytecode": "0x6101406040523480156200001257600080fd5b5060405162008061380380620080618339810160408190526200003591620001e6565b81604051806020016200004890620001d8565b601f1982820381018352601f9091011660405280518390829060006002820460a081905280830360e08190528185529091508362000092816200011c602090811b6200029f17901c565b60601b6001600160601b0319166080528285018051838252620000c1826200011c602090811b6200029f17901c565b606090811b6001600160601b031990811660c0529690935290529690961b909116610100525050600080546001600160a01b0319166001600160a01b03929092169190911790555050506276a700420161012052506200023d565b80517f602038038060206000396000f3fefefefefefefefefefefefefefefefefefefe808352600091602081018484f090845291506200016a6001600160a01b03831615156101ac62000170565b50919050565b816200018157620001818162000185565b5050565b62461bcd60e51b6000908152602060045260076024526642414c23000030600a808404818106603090810160081b95839006959095019082900491820690940160101b939093010160c81b604452606490fd5b6173908062000cd183390190565b60008060408385031215620001f9578182fd5b8251620002068162000224565b6020840151909250620002198162000224565b809150509250929050565b6001600160a01b03811681146200023a57600080fd5b50565b60805160601c60a05160c05160601c60e0516101005160601c61012051610a326200029f6000398061018652806101af52508061027d5250806102f952508061015d528061037552508061031a52508061013c52806103515250610a326000f3fe608060405234801561001057600080fd5b506004361061007c5760003560e01c80636634b7531161005b5780636634b753146100cb5780637ff52b01146100eb57806380773a93146101005780638d928af8146101135761007c565b8062c194db14610081578063174481fa1461009f5780632da47c40146100b5575b600080fd5b61008961011b565b60405161009691906108b1565b60405180910390f35b6100a761013a565b60405161009692919061088c565b6100bd610180565b604051610096929190610994565b6100de6100d93660046106ac565b6101ea565b60405161009691906108a6565b6100f361020c565b6040516100969190610878565b6100f361010e3660046106c8565b61021b565b6100f361027b565b6060610135604051806020016040528060008152506102f1565b905090565b7f00000000000000000000000000000000000000000000000000000000000000007f00000000000000000000000000000000000000000000000000000000000000009091565b600080427f00000000000000000000000000000000000000000000000000000000000000008110156101dc57807f000000000000000000000000000000000000000000000000000000000000000003925062278d0091506101e5565b60009250600091505b509091565b6001600160a01b03811660009081526001602052604090205460ff165b919050565b6000546001600160a01b031690565b6000806000610228610180565b9150915061026d61023761027b565b8b8b8b8b8b8b89898d6040516020016102599a999897969594939291906108c4565b6040516020818303038152906040526103ca565b9a9950505050505050505050565b7f000000000000000000000000000000000000000000000000000000000000000090565b80517f602038038060206000396000f3fefefefefefefefefefefefefefefefefefefe808352600091602081018484f090845291506102eb6001600160a01b03831615156101ac61042d565b50919050565b8051604080517f00000000000000000000000000000000000000000000000000000000000000007f0000000000000000000000000000000000000000000000000000000000000000818101858101848101602090810190965280855293957f00000000000000000000000000000000000000000000000000000000000000009592947f000000000000000000000000000000000000000000000000000000000000000094938801866000828a3c846000888301883c50602089810190898501016103bc81838661043f565b505050505050505050919050565b6000806103d68361047d565b6001600160a01b0381166000818152600160208190526040808320805460ff19169092179091555192935090917f83a48fbcfc991335314e74d0496aab6a1987e992ddc85dddbcc4d6dd6ef2e9fc9190a292915050565b8161043b5761043b816104b7565b5050565b5b6020811061045f578151835260209283019290910190601f1901610440565b905182516020929092036101000a6000190180199091169116179052565b600080610489836102f1565b905060008151602083016000f090506001600160a01b0381166104b0573d6000803e3d6000fd5b9392505050565b62461bcd60e51b6000908152602060045260076024526642414c23000030600a808404818106603090810160081b95839006959095019082900491820690940160101b939093010160c81b604452606490fd5b8035610207816109e4565b600082601f830112610525578081fd5b8135602061053a610535836109c6565b6109a2565b8281528181019085830183850287018401881015610556578586fd5b855b8581101561057d57813561056b816109e4565b84529284019290840190600101610558565b5090979650505050505050565b600082601f83011261059a578081fd5b813560206105aa610535836109c6565b82815281810190858301838502870184018810156105c6578586fd5b855b8581101561057d5781356105db816109e4565b845292840192908401906001016105c8565b600082601f8301126105fd578081fd5b8135602061060d610535836109c6565b8281528181019085830183850287018401881015610629578586fd5b855b8581101561057d5781358452928401929084019060010161062b565b600082601f830112610657578081fd5b813567ffffffffffffffff81111561066b57fe5b61067e601f8201601f19166020016109a2565b818152846020838601011115610692578283fd5b816020850160208301379081016020019190915292915050565b6000602082840312156106bd578081fd5b81356104b0816109e4565b600080600080600080600060e0888a0312156106e2578283fd5b873567ffffffffffffffff808211156106f9578485fd5b6107058b838c01610647565b985060208a013591508082111561071a578485fd5b6107268b838c01610647565b975060408a013591508082111561073b578485fd5b6107478b838c0161058a565b965060608a013591508082111561075c578485fd5b6107688b838c016105ed565b955060808a013591508082111561077d578485fd5b5061078a8a828b01610515565b93505060a088013591506107a060c0890161050a565b905092959891949750929550565b6001600160a01b03169052565b6000815180845260208085019450808401835b838110156107f35781516001600160a01b0316875295820195908201906001016107ce565b509495945050505050565b6000815180845260208085019450808401835b838110156107f357815187529582019590820190600101610811565b60008151808452815b8181101561085257602081850181015186830182015201610836565b818111156108635782602083870101525b50601f01601f19169290920160200192915050565b6001600160a01b0391909116815260200190565b6001600160a01b0392831681529116602082015260400190565b901515815260200190565b6000602082526104b0602083018461082d565b6001600160a01b038b811682526101406020808401829052600092906108ec8584018f61082d565b92508483036040860152610900838e61082d565b85810360608701528c51808252828e01945090820190855b81811015610936578551851683529483019491830191600101610918565b5050858103608087015261094a818d6107fe565b935050505082810360a084015261096181896107bb565b9150508560c08301528460e0830152836101008301526109856101208301846107ae565b9b9a5050505050505050505050565b918252602082015260400190565b60405181810167ffffffffffffffff811182821017156109be57fe5b604052919050565b600067ffffffffffffffff8211156109da57fe5b5060209081020190565b6001600160a01b03811681146109f957600080fd5b5056fea2646970667358221220dc2886d417ddd9ac774a72cea2b8ef93886cd87425ff40094a5816127612313864736f6c634300070600336109806040527f6e71edae12b1b97f4d1f60370fef10105fa2faae0126114a169c64845d6126c9610120523480156200003757600080fd5b5060405162007390380380620073908339810160408190526200005a91620013e8565b8989898988888888888886516002146200007657600162000079565b60025b8989898989898989828289898180604051806040016040528060018152602001603160f81b815250848489336001600160a01b031660001b806080818152505050806001600160a01b031660a0816001600160a01b031660601b81525050508160039080519060200190620000f092919062001141565b5080516200010690600490602084019062001141565b50506005805460ff1916601217905550815160209283012060c052805191012060e05250507f8b73c3c69bb8fe3d512ecc4cf759cc79239f7b179b0ffacaa9a75d522b39400f6101005250620001656276a70083111561019462000ea7565b6200017962278d0082111561019562000ea7565b42909101610140819052016101605285516200019b906002111560c862000ea7565b620001b5620001a962000ebc565b8751111560c962000ea7565b620001cb8662000ec160201b62000d9c1760201c565b620001d68462000ecd565b6040516309b2760f60e01b81526000906001600160a01b038c16906309b2760f9062000207908d90600401620015c5565b602060405180830381600087803b1580156200022257600080fd5b505af115801562000237573d6000803e3d6000fd5b505050506040513d601f19601f820116820180604052508101906200025d9190620013cf565b604051633354e3e960e11b81529091506001600160a01b038c16906366a9c7d290620002929084908b908b906004016200152b565b600060405180830381600087803b158015620002ad57600080fd5b505af1158015620002c2573d6000803e3d6000fd5b505050508a6001600160a01b0316610180816001600160a01b031660601b81525050806101a0818152505050505050505050505050505050505050505050506000875190506200031f81885162000f5960201b62000da61760201c565b6101c081905260008080805b848160ff161015620003aa5760008b8260ff16815181106200034957fe5b6020026020010151905062000371662386f26fc1000082101561012e62000ea760201b60201c565b6200038b818662000f6860201b62000db31790919060201c565b945082811115620003a0578160ff1693508092505b506001016200032b565b50620003c3670de0b6b3a7640000841461013462000ea7565b6106e082905289518a90600090620003d757fe5b6020026020010151610700818152505089600181518110620003f557fe5b6020026020010151610720818152505060028411620004165760006200042d565b896002815181106200042457fe5b60200260200101515b61074052600384116200044257600062000459565b896003815181106200045057fe5b60200260200101515b61076052600484116200046e57600062000485565b896004815181106200047c57fe5b60200260200101515b61078052600584116200049a576000620004b1565b89600581518110620004a857fe5b60200260200101515b6107a05260068411620004c6576000620004dd565b89600681518110620004d457fe5b60200260200101515b6107c05260078411620004f257600062000509565b896007815181106200050057fe5b60200260200101515b6107e052600884116200051e57600062000535565b896008815181106200052c57fe5b60200260200101515b61080052600984116200054a57600062000561565b896009815181106200055857fe5b60200260200101515b61082052600a8411620005765760006200058d565b89600a815181106200058457fe5b60200260200101515b61084052600b8411620005a2576000620005b9565b89600b81518110620005b057fe5b60200260200101515b61086052600c8411620005ce576000620005e5565b89600c81518110620005dc57fe5b60200260200101515b61088052600d8411620005fa57600062000611565b89600d815181106200060857fe5b60200260200101515b6108a052600e8411620006265760006200063d565b89600e815181106200063457fe5b60200260200101515b6108c052600f84116200065257600062000669565b89600f815181106200066057fe5b60200260200101515b6108e052601084116200067e57600062000695565b896010815181106200068c57fe5b60200260200101515b6109005260118411620006aa576000620006c1565b89601181518110620006b857fe5b60200260200101515b6109205260128411620006d6576000620006ed565b89601281518110620006e457fe5b60200260200101515b61094052601384116200070257600062000719565b896013815181106200071057fe5b60200260200101515b610960528a518b906000906200072b57fe5b60200260200101516001600160a01b03166101e0816001600160a01b031660601b815250508a6001815181106200075e57fe5b60200260200101516001600160a01b0316610200816001600160a01b031660601b815250506002841162000794576000620007ab565b8a600281518110620007a257fe5b60200260200101515b60601b6001600160601b0319166102205260038411620007cd576000620007e4565b8a600381518110620007db57fe5b60200260200101515b60601b6001600160601b0319166102405260048411620008065760006200081d565b8a6004815181106200081457fe5b60200260200101515b60601b6001600160601b03191661026052600584116200083f57600062000856565b8a6005815181106200084d57fe5b60200260200101515b60601b6001600160601b0319166102805260068411620008785760006200088f565b8a6006815181106200088657fe5b60200260200101515b60601b6001600160601b0319166102a05260078411620008b1576000620008c8565b8a600781518110620008bf57fe5b60200260200101515b60601b6001600160601b0319166102c05260088411620008ea57600062000901565b8a600881518110620008f857fe5b60200260200101515b60601b6001600160601b0319166102e05260098411620009235760006200093a565b8a6009815181106200093157fe5b60200260200101515b60601b6001600160601b03191661030052600a84116200095c57600062000973565b8a600a815181106200096a57fe5b60200260200101515b60601b6001600160601b03191661032052600b841162000995576000620009ac565b8a600b81518110620009a357fe5b60200260200101515b60601b6001600160601b03191661034052600c8411620009ce576000620009e5565b8a600c81518110620009dc57fe5b60200260200101515b60601b6001600160601b03191661036052600d841162000a0757600062000a1e565b8a600d8151811062000a1557fe5b60200260200101515b60601b6001600160601b03191661038052600e841162000a4057600062000a57565b8a600e8151811062000a4e57fe5b60200260200101515b60601b6001600160601b0319166103a052600f841162000a7957600062000a90565b8a600f8151811062000a8757fe5b60200260200101515b60601b6001600160601b0319166103c0526010841162000ab257600062000ac9565b8a60108151811062000ac057fe5b60200260200101515b60601b6001600160601b0319166103e0526011841162000aeb57600062000b02565b8a60118151811062000af957fe5b60200260200101515b60601b6001600160601b031916610400526012841162000b2457600062000b3b565b8a60128151811062000b3257fe5b60200260200101515b60601b6001600160601b031916610420526013841162000b5d57600062000b74565b8a60138151811062000b6b57fe5b60200260200101515b6001600160a01b0316610440816001600160a01b031660601b8152505062000bb78b60008151811062000ba357fe5b602002602001015162000f8360201b60201c565b610460528a5162000bd0908c90600190811062000ba357fe5b610480526002841162000be557600062000bf7565b62000bf78b60028151811062000ba357fe5b6104a0526003841162000c0c57600062000c1e565b62000c1e8b60038151811062000ba357fe5b6104c0526004841162000c3357600062000c45565b62000c458b60048151811062000ba357fe5b6104e0526005841162000c5a57600062000c6c565b62000c6c8b60058151811062000ba357fe5b610500526006841162000c8157600062000c93565b62000c938b60068151811062000ba357fe5b610520526007841162000ca857600062000cba565b62000cba8b60078151811062000ba357fe5b610540526008841162000ccf57600062000ce1565b62000ce18b60088151811062000ba357fe5b610560526009841162000cf657600062000d08565b62000d088b60098151811062000ba357fe5b61058052600a841162000d1d57600062000d2f565b62000d2f8b600a8151811062000ba357fe5b6105a052600b841162000d4457600062000d56565b62000d568b600b8151811062000ba357fe5b6105c052600c841162000d6b57600062000d7d565b62000d7d8b600c8151811062000ba357fe5b6105e052600d841162000d9257600062000da4565b62000da48b600d8151811062000ba357fe5b61060052600e841162000db957600062000dcb565b62000dcb8b600e8151811062000ba357fe5b61062052600f841162000de057600062000df2565b62000df28b600f8151811062000ba357fe5b610640526010841162000e0757600062000e19565b62000e198b60108151811062000ba357fe5b610660526011841162000e2e57600062000e40565b62000e408b60118151811062000ba357fe5b610680526012841162000e5557600062000e67565b62000e678b60128151811062000ba357fe5b6106a0526013841162000e7c57600062000e8e565b62000e8e8b60138151811062000ba357fe5b6106c052506200163b9c50505050505050505050505050565b8162000eb85762000eb88162001034565b5050565b601490565b8062000eb88162001087565b62000ee264e8d4a5100082101560cb62000ea7565b62000efa67016345785d8a000082111560ca62000ea7565b62000f198160c06008546200111460201b62000dc5179092919060201c565b6008556040517fa9ba3ffe0b6c366b81232caab38605a0699ad5398d6cce76f91ee809e322dafc9062000f4e908390620015da565b60405180910390a150565b62000eb8828214606762000ea7565b600082820162000f7c848210158362000ea7565b9392505050565b600080826001600160a01b031663313ce5676040518163ffffffff1660e01b815260040160206040518083038186803b15801562000fc057600080fd5b505afa15801562000fd5573d6000803e3d6000fd5b505050506040513d601f19601f8201168201806040525081019062000ffb919062001508565b60ff16905060006200101a6012836200112960201b62000dda1760201c565b905080600a0a670de0b6b3a764000002925050505b919050565b62461bcd60e51b6000908152602060045260076024526642414c23000030600a808404818106603090810160081b95839006959095019082900491820690940160101b939093010160c81b604452606490fd5b600281511015620010985762001111565b600081600081518110620010a857fe5b602002602001015190506000600190505b82518110156200110e576000838281518110620010d257fe5b6020026020010151905062001103816001600160a01b0316846001600160a01b031610606562000ea760201b60201c565b9150600101620010b9565b50505b50565b6001600160401b03811b1992909216911b1790565b60006200113b83831115600162000ea7565b50900390565b828054600181600116156101000203166002900490600052602060002090601f016020900481019282620011795760008555620011c4565b82601f106200119457805160ff1916838001178555620011c4565b82800160010185558215620011c4579182015b82811115620011c4578251825591602001919060010190620011a7565b50620011d2929150620011d6565b5090565b5b80821115620011d25760008155600101620011d7565b80516200102f8162001625565b600082601f8301126200120b578081fd5b81516020620012246200121e8362001607565b620015e3565b828152818101908583018385028701840188101562001241578586fd5b855b858110156200126c578151620012598162001625565b8452928401929084019060010162001243565b5090979650505050505050565b600082601f8301126200128a578081fd5b815160206200129d6200121e8362001607565b8281528181019085830183850287018401881015620012ba578586fd5b855b858110156200126c578151620012d28162001625565b84529284019290840190600101620012bc565b600082601f830112620012f6578081fd5b81516020620013096200121e8362001607565b828152818101908583018385028701840188101562001326578586fd5b855b858110156200126c5781518452928401929084019060010162001328565b600082601f83011262001357578081fd5b81516001600160401b038111156200136b57fe5b602062001381601f8301601f19168201620015e3565b828152858284870101111562001395578384fd5b835b83811015620013b457858101830151828201840152820162001397565b83811115620013c557848385840101525b5095945050505050565b600060208284031215620013e1578081fd5b5051919050565b6000806000806000806000806000806101408b8d03121562001408578586fd5b620014138b620011ed565b60208c0151909a506001600160401b038082111562001430578788fd5b6200143e8e838f0162001346565b9a5060408d015191508082111562001454578788fd5b620014628e838f0162001346565b995060608d015191508082111562001478578788fd5b620014868e838f0162001279565b985060808d01519150808211156200149c578788fd5b620014aa8e838f01620012e5565b975060a08d0151915080821115620014c0578687fd5b50620014cf8d828e01620011fa565b95505060c08b0151935060e08b015192506101008b01519150620014f76101208c01620011ed565b90509295989b9194979a5092959850565b6000602082840312156200151a578081fd5b815160ff8116811462000f7c578182fd5b60006060820185835260206060818501528186518084526080860191508288019350845b81811015620015765784516001600160a01b0316835293830193918301916001016200154f565b505084810360408601528551808252908201925081860190845b81811015620015b75782516001600160a01b03168552938301939183019160010162001590565b509298975050505050505050565b6020810160038310620015d457fe5b91905290565b90815260200190565b6040518181016001600160401b0381118282101715620015ff57fe5b604052919050565b60006001600160401b038211156200161b57fe5b5060209081020190565b6001600160a01b03811681146200111157600080fd5b60805160a05160601c60c05160e051610100516101205161014051610160516101805160601c6101a0516101c0516101e05160601c6102005160601c6102205160601c6102405160601c6102605160601c6102805160601c6102a05160601c6102c05160601c6102e05160601c6103005160601c6103205160601c6103405160601c6103605160601c6103805160601c6103a05160601c6103c05160601c6103e05160601c6104005160601c6104205160601c6104405160601c61046051610480516104a0516104c0516104e05161050051610520516105405161056051610580516105a0516105c0516105e05161060051610620516106405161066051610680516106a0516106c0516106e05161070051610720516107405161076051610780516107a0516107c0516107e05161080051610820516108405161086051610880516108a0516108c0516108e0516109005161092051610940516109605161590962001a8760003980612c0e5280613902525080612bcb52806138a1525080612b885280613840525080612b4552806137df525080612b02528061377e525080612abf528061371d525080612a7c52806136bc525080612a39528061365b5250806129f652806135fa5250806129b35280613599525080612970528061353852508061292d52806134d75250806128ea52806134765250806128a7528061341552508061286452806133b452508061282152806133535250806127de52806132f252508061279b5280613291525080612758528061323052508061271552806131cf5250806125625250806114cb52806123d15250806114885280612370525080611445528061230f52508061140252806122ae5250806113bf528061224d52508061137c52806121ec525080611339528061218b5250806112f6528061212a5250806112b352806120c9525080611270528061206852508061122d52806120075250806111ea5280611fa65250806111a75280611f455250806111645280611ee45250806111215280611e835250806110de5280611e2252508061109b5280611dc15250806110585280611d605250806110155280611cff525080610fc45280611c9e52508061239652806138c752508061233552806138665250806122d4528061380552508061227352806137a452508061221252806137435250806121b152806136e252508061215052806136815250806120ef528061362052508061208e52806135bf52508061202d528061355e525080611fcc52806134fd525080611f6b528061349c525080611f0a528061343b525080611ea952806133da525080611e485280613379525080611de75280613318525080611d8652806132b7525080611d255280613256525080611cc452806131f5525080611c635280613194525080611822525080610609525080610872525080610f47525080610f23525080610b305250806115fb52508061163d52508061161c52508061084e5250806107d852506159096000f3fe608060405234801561001057600080fd5b50600436106102065760003560e01c806374f3b0091161011a5780639d2c110c116100ad578063c0ff1a151161007c578063c0ff1a151461041c578063d505accf14610424578063d5c096c414610437578063dd62ed3e1461044a578063f89f27ed1461045d57610206565b80639d2c110c146103db578063a457c2d7146103ee578063a9059cbb14610401578063aaabadc51461041457610206565b8063893d20e8116100e9578063893d20e8146103ae5780638d928af8146103c357806395d89b41146103cb5780639b02cdde146103d357610206565b806374f3b009146103545780637ecebe0014610375578063851c1bb31461038857806387ec68171461039b57610206565b80633644e5151161019d57806350dd6ed91161016c57806350dd6ed9146102fd57806355c67628146103105780636028bfd414610318578063679aefce1461033957806370a082311461034157610206565b80633644e515146102c757806338e9922e146102cf57806338fff2d0146102e257806339509351146102ea57610206565b80631c0de051116101d95780631c0de051146102735780631dd746ea1461028a57806323b872dd1461029f578063313ce567146102b257610206565b806306fdde031461020b578063095ea7b31461022957806316c38b3c1461024957806318160ddd1461025e575b600080fd5b610213610465565b6040516102209190615829565b60405180910390f35b61023c61023736600461510a565b6104fc565b6040516102209190615730565b61025c610257366004615200565b610513565b005b610266610527565b6040516102209190615753565b61027b61052d565b6040516102209392919061573b565b610292610556565b60405161022091906156f8565b61023c6102ad366004615055565b610565565b6102ba6105db565b6040516102209190615855565b6102666105e4565b61025c6102dd3660046155c4565b6105ee565b610266610607565b61023c6102f836600461510a565b61062b565b61025c61030b366004615378565b610666565b610266610684565b61032b610326366004615238565b610695565b60405161022092919061583c565b6102666106cc565b61026661034f366004615001565b6106f7565b610367610362366004615238565b610716565b60405161022092919061570b565b610266610383366004615001565b6107b9565b610266610396366004615334565b6107d4565b61032b6103a9366004615238565b610826565b6103b661084c565b60405161022091906156e4565b6103b6610870565b610213610894565b6102666108f5565b6102666103e93660046154ce565b6108fb565b61023c6103fc36600461510a565b6109e2565b61023c61040f36600461510a565b610a20565b6103b6610a2d565b610266610a37565b61025c610432366004615095565b610afb565b610367610445366004615238565b610c44565b61026661045836600461501d565b610d67565b610292610d92565b60038054604080516020601f60026000196101006001881615020190951694909404938401819004810282018101909252828152606093909290918301828280156104f15780601f106104c6576101008083540402835291602001916104f1565b820191906000526020600020905b8154815290600101906020018083116104d457829003601f168201915b505050505090505b90565b6000610509338484610df0565b5060015b92915050565b61051b610e58565b61052481610e86565b50565b60025490565b600080600061053a610f04565b159250610545610f21565b915061054f610f45565b9050909192565b6060610560610f69565b905090565b6000806105728533610d67565b9050610596336001600160a01b038716148061058e5750838210155b61019e611509565b6105a1858585611517565b336001600160a01b038616148015906105bc57506000198114155b156105ce576105ce8533858403610df0565b60019150505b9392505050565b60055460ff1690565b60006105606115f7565b6105f6610e58565b6105fe611694565b610524816116a9565b7f000000000000000000000000000000000000000000000000000000000000000090565b3360008181526001602090815260408083206001600160a01b038716845290915281205490916105099185906106619086610db3565b610df0565b61066e610e58565b610676611694565b6106808282611714565b5050565b6008546000906105609060c0611813565b600060606106ab86516106a6611820565b610da6565b6106c089898989898989611844611912611978565b97509795505050505050565b60006105606106d9610527565b6106f16106e4610a37565b6106ec611820565b611a9a565b90611abe565b6001600160a01b0381166000908152602081905260409020545b919050565b60608088610740610725610870565b6001600160a01b0316336001600160a01b03161460cd611509565b61075561074b610607565b82146101f4611509565b600061075f610f69565b905061076b8882611b0f565b60008060006107808e8e8e8e8e8e8a8f611844565b9250925092506107908d84611b70565b61079a8285611912565b6107a48185611912565b909550935050505b5097509795505050505050565b6001600160a01b031660009081526006602052604090205490565b60007f0000000000000000000000000000000000000000000000000000000000000000826040516020016108099291906156a1565b604051602081830303815290604052805190602001209050919050565b6000606061083786516106a6611820565b6106c089898989898989611b7a611bfe611978565b7f000000000000000000000000000000000000000000000000000000000000000090565b7f000000000000000000000000000000000000000000000000000000000000000090565b60048054604080516020601f60026000196101006001881615020190951694909404938401819004810282018101909252828152606093909290918301828280156104f15780601f106104c6576101008083540402835291602001916104f1565b60095490565b60008061090b8560200151611c5f565b9050600061091c8660400151611c5f565b905060008651600181111561092d57fe5b1415610993576109408660600151612400565b606087015261094f8583612421565b945061095b8482612421565b935061096b866060015183612421565b6060870152600061097d87878761242d565b90506109898183612468565b93505050506105d4565b61099d8583612421565b94506109a98482612421565b93506109b9866060015182612421565b606087015260006109cb878787612474565b90506109d781846124a7565b9050610989816124b3565b6000806109ef3385610d67565b9050808310610a0957610a0433856000610df0565b610a16565b610a163385858403610df0565b5060019392505050565b6000610509338484611517565b60006105606124d9565b600080610a42610870565b6001600160a01b031663f94d4668610a58610607565b6040518263ffffffff1660e01b8152600401610a749190615753565b60006040518083038186803b158015610a8c57600080fd5b505afa158015610aa0573d6000803e3d6000fd5b505050506040513d6000823e601f3d908101601f19168201604052610ac89190810190615135565b50915050610add81610ad8610f69565b611b0f565b6000610ae7612553565b509050610af48183612587565b9250505090565b610b098442111560d1611509565b6001600160a01b0387166000908152600660209081526040808320549051909291610b60917f0000000000000000000000000000000000000000000000000000000000000000918c918c918c9188918d910161577b565b6040516020818303038152906040528051906020012090506000610b83826125f9565b9050600060018288888860405160008152602001604052604051610baa949392919061580b565b6020604051602081039080840390855afa158015610bcc573d6000803e3d6000fd5b5050604051601f1901519150610c0e90506001600160a01b03821615801590610c0657508b6001600160a01b0316826001600160a01b0316145b6101f8611509565b6001600160a01b038b166000908152600660205260409020600185019055610c378b8b8b610df0565b5050505050505050505050565b60608088610c53610725610870565b610c5e61074b610607565b6000610c68610f69565b9050610c72610527565b610d1757600080610c868d8d8d868b612615565b91509150610c9b620f424083101560cc611509565b610ca96000620f42406126b0565b610cb88b620f424084036126b0565b610cc28184611bfe565b80610ccb611820565b6001600160401b0381118015610ce057600080fd5b50604051908082528060200260200182016040528015610d0a578160200160208202803683370190505b50955095505050506107ac565b610d218882611b0f565b6000806000610d368e8e8e8e8e8e8a8f611b7a565b925092509250610d468c846126b0565b610d508285611bfe565b610d5a8185611912565b90955093506107ac915050565b6001600160a01b03918216600090815260016020908152604080832093909416825291909152205490565b60606105606126ba565b8061068081612c3a565b6106808183146067611509565b60008282016105d48482101583611509565b6001600160401b03811b1992909216911b1790565b6000610dea838311156001611509565b50900390565b6001600160a01b0380841660008181526001602090815260408083209487168084529490915290819020849055517f8c5be1e5ebec7d5bd14f71427d1e84f3dd0314c0f7b2291e5b200ac8c7c3b92590610e4b908590615753565b60405180910390a3505050565b6000610e6f6000356001600160e01b0319166107d4565b9050610524610e7e8233612cb3565b610191611509565b8015610ea657610ea1610e97610f21565b4210610193611509565b610ebb565b610ebb610eb1610f45565b42106101a9611509565b6007805460ff19168215151790556040517f9e3a5e37224532dea67b89face185703738a228a6e8a23dee546960180d3be6490610ef9908390615730565b60405180910390a150565b6000610f0e610f45565b42118061056057505060075460ff161590565b7f000000000000000000000000000000000000000000000000000000000000000090565b7f000000000000000000000000000000000000000000000000000000000000000090565b60606000610f75611820565b90506000816001600160401b0381118015610f8f57600080fd5b50604051908082528060200260200182016040528015610fb9578160200160208202803683370190505b5090508115611001577f000000000000000000000000000000000000000000000000000000000000000081600081518110610ff057fe5b60200260200101818152505061100a565b91506104f99050565b6001821115611001577f00000000000000000000000000000000000000000000000000000000000000008160018151811061104157fe5b6020026020010181815250506002821115611001577f00000000000000000000000000000000000000000000000000000000000000008160028151811061108457fe5b6020026020010181815250506003821115611001577f0000000000000000000000000000000000000000000000000000000000000000816003815181106110c757fe5b6020026020010181815250506004821115611001577f00000000000000000000000000000000000000000000000000000000000000008160048151811061110a57fe5b6020026020010181815250506005821115611001577f00000000000000000000000000000000000000000000000000000000000000008160058151811061114d57fe5b6020026020010181815250506006821115611001577f00000000000000000000000000000000000000000000000000000000000000008160068151811061119057fe5b6020026020010181815250506007821115611001577f0000000000000000000000000000000000000000000000000000000000000000816007815181106111d357fe5b6020026020010181815250506008821115611001577f00000000000000000000000000000000000000000000000000000000000000008160088151811061121657fe5b6020026020010181815250506009821115611001577f00000000000000000000000000000000000000000000000000000000000000008160098151811061125957fe5b602002602001018181525050600a821115611001577f000000000000000000000000000000000000000000000000000000000000000081600a8151811061129c57fe5b602002602001018181525050600b821115611001577f000000000000000000000000000000000000000000000000000000000000000081600b815181106112df57fe5b602002602001018181525050600c821115611001577f000000000000000000000000000000000000000000000000000000000000000081600c8151811061132257fe5b602002602001018181525050600d821115611001577f000000000000000000000000000000000000000000000000000000000000000081600d8151811061136557fe5b602002602001018181525050600e821115611001577f000000000000000000000000000000000000000000000000000000000000000081600e815181106113a857fe5b602002602001018181525050600f821115611001577f000000000000000000000000000000000000000000000000000000000000000081600f815181106113eb57fe5b6020026020010181815250506010821115611001577f00000000000000000000000000000000000000000000000000000000000000008160108151811061142e57fe5b6020026020010181815250506011821115611001577f00000000000000000000000000000000000000000000000000000000000000008160118151811061147157fe5b6020026020010181815250506012821115611001577f0000000000000000000000000000000000000000000000000000000000000000816012815181106114b457fe5b6020026020010181815250506013821115611001577f0000000000000000000000000000000000000000000000000000000000000000816013815181106114f757fe5b60200260200101818152505091505090565b816106805761068081612da3565b61152e6001600160a01b0384161515610198611509565b6115456001600160a01b0383161515610199611509565b611550838383611973565b6001600160a01b03831660009081526020819052604090205461157690826101a0612df6565b6001600160a01b0380851660009081526020819052604080822093909355908416815220546115a59082610db3565b6001600160a01b0380841660008181526020819052604090819020939093559151908516907fddf252ad1be2c89b69c2b068fc378daa952ba7f163c4a11628f55a4df523b3ef90610e4b908590615753565b60007f00000000000000000000000000000000000000000000000000000000000000007f00000000000000000000000000000000000000000000000000000000000000007f0000000000000000000000000000000000000000000000000000000000000000611664612e0c565b306040516020016116799594939291906157af565b60405160208183030381529060405280519060200120905090565b6116a761169f610f04565b610192611509565b565b6116bc64e8d4a5100082101560cb611509565b6116d267016345785d8a000082111560ca611509565b6008546116e1908260c0610dc5565b6008556040517fa9ba3ffe0b6c366b81232caab38605a0699ad5398d6cce76f91ee809e322dafc90610ef9908390615753565b600061171e610607565b9050600061172a610870565b6001600160a01b031663b05f8e4883866040518363ffffffff1660e01b81526004016117579291906157f4565b60806040518083038186803b15801561176f57600080fd5b505afa158015611783573d6000803e3d6000fd5b505050506040513d601f19601f820116820180604052508101906117a791906155dc565b604051630639cdb560e21b81529094506001600160a01b03851693506318e736d492506117db9150859087906004016157db565b600060405180830381600087803b1580156117f557600080fd5b505af1158015611809573d6000803e3d6000fd5b5050505050505050565b1c6001600160401b031690565b7f000000000000000000000000000000000000000000000000000000000000000090565b6000606080600080611854612553565b91509150611860610f04565b15611898576000611871838c612587565b90506118838b8484600954858e612e10565b93506118928b85610dda612ec1565b506118e3565b6118a0611820565b6001600160401b03811180156118b557600080fd5b506040519080825280602002602001820160405280156118df578160200160208202803683370190505b5092505b6118ef8a838989612f2c565b90955093506118ff8a8584612f9b565b6009555050985098509895505050505050565b60005b61191d611820565b8110156119735761195483828151811061193357fe5b602002602001015183838151811061194757fe5b6020026020010151611abe565b83828151811061196057fe5b6020908102919091010152600101611915565b505050565b333014611a36576000306001600160a01b031660003660405161199c9291906156b9565b6000604051808303816000865af19150503d80600081146119d9576040519150601f19603f3d011682016040523d82523d6000602084013e6119de565b606091505b5050905080600081146119ed57fe5b60046000803e6000516001600160e01b0319166343adbafb60e01b8114611a18573d6000803e3d6000fd5b506020600460003e604060205260243d03602460403e601c3d016000f35b6000611a40610f69565b9050611a4c8782611b0f565b600080611a638c8c8c8c8c8c898d8d63ffffffff16565b5091509150611a7681848663ffffffff16565b8051601f1982018390526343adbafb603f1983015260200260231982016044820181fd5b60008282026105d4841580611ab7575083858381611ab457fe5b04145b6003611509565b6000611acd8215156004611509565b82611ada5750600061050d565b670de0b6b3a764000083810290611afd90858381611af457fe5b04146005611509565b828181611b0657fe5b0491505061050d565b60005b611b1a611820565b81101561197357611b51838281518110611b3057fe5b6020026020010151838381518110611b4457fe5b6020026020010151612fb4565b838281518110611b5d57fe5b6020908102919091010152600101611b12565b6106808282612fe0565b6000606080611b87611694565b600080611b92612553565b915091506000611ba2838c612587565b90506000611bb68c8585600954868f612e10565b9050611bc58c82610dda612ec1565b600080611bd48e878d8d61309c565b91509150611be38e82886130f7565b60095590975095509350505050985098509895505050505050565b60005b611c09611820565b81101561197357611c40838281518110611c1f57fe5b6020026020010151838381518110611c3357fe5b6020026020010151613106565b838281518110611c4c57fe5b6020908102919091010152600101611c01565b60007f00000000000000000000000000000000000000000000000000000000000000006001600160a01b0316826001600160a01b03161415611cc257507f0000000000000000000000000000000000000000000000000000000000000000610711565b7f00000000000000000000000000000000000000000000000000000000000000006001600160a01b0316826001600160a01b03161415611d2357507f0000000000000000000000000000000000000000000000000000000000000000610711565b7f00000000000000000000000000000000000000000000000000000000000000006001600160a01b0316826001600160a01b03161415611d8457507f0000000000000000000000000000000000000000000000000000000000000000610711565b7f00000000000000000000000000000000000000000000000000000000000000006001600160a01b0316826001600160a01b03161415611de557507f0000000000000000000000000000000000000000000000000000000000000000610711565b7f00000000000000000000000000000000000000000000000000000000000000006001600160a01b0316826001600160a01b03161415611e4657507f0000000000000000000000000000000000000000000000000000000000000000610711565b7f00000000000000000000000000000000000000000000000000000000000000006001600160a01b0316826001600160a01b03161415611ea757507f0000000000000000000000000000000000000000000000000000000000000000610711565b7f00000000000000000000000000000000000000000000000000000000000000006001600160a01b0316826001600160a01b03161415611f0857507f0000000000000000000000000000000000000000000000000000000000000000610711565b7f00000000000000000000000000000000000000000000000000000000000000006001600160a01b0316826001600160a01b03161415611f6957507f0000000000000000000000000000000000000000000000000000000000000000610711565b7f00000000000000000000000000000000000000000000000000000000000000006001600160a01b0316826001600160a01b03161415611fca57507f0000000000000000000000000000000000000000000000000000000000000000610711565b7f00000000000000000000000000000000000000000000000000000000000000006001600160a01b0316826001600160a01b0316141561202b57507f0000000000000000000000000000000000000000000000000000000000000000610711565b7f00000000000000000000000000000000000000000000000000000000000000006001600160a01b0316826001600160a01b0316141561208c57507f0000000000000000000000000000000000000000000000000000000000000000610711565b7f00000000000000000000000000000000000000000000000000000000000000006001600160a01b0316826001600160a01b031614156120ed57507f0000000000000000000000000000000000000000000000000000000000000000610711565b7f00000000000000000000000000000000000000000000000000000000000000006001600160a01b0316826001600160a01b0316141561214e57507f0000000000000000000000000000000000000000000000000000000000000000610711565b7f00000000000000000000000000000000000000000000000000000000000000006001600160a01b0316826001600160a01b031614156121af57507f0000000000000000000000000000000000000000000000000000000000000000610711565b7f00000000000000000000000000000000000000000000000000000000000000006001600160a01b0316826001600160a01b0316141561221057507f0000000000000000000000000000000000000000000000000000000000000000610711565b7f00000000000000000000000000000000000000000000000000000000000000006001600160a01b0316826001600160a01b0316141561227157507f0000000000000000000000000000000000000000000000000000000000000000610711565b7f00000000000000000000000000000000000000000000000000000000000000006001600160a01b0316826001600160a01b031614156122d257507f0000000000000000000000000000000000000000000000000000000000000000610711565b7f00000000000000000000000000000000000000000000000000000000000000006001600160a01b0316826001600160a01b0316141561233357507f0000000000000000000000000000000000000000000000000000000000000000610711565b7f00000000000000000000000000000000000000000000000000000000000000006001600160a01b0316826001600160a01b0316141561239457507f0000000000000000000000000000000000000000000000000000000000000000610711565b7f00000000000000000000000000000000000000000000000000000000000000006001600160a01b0316826001600160a01b031614156123f557507f0000000000000000000000000000000000000000000000000000000000000000610711565b610711610135612da3565b60008061241561240e610684565b8490613154565b90506105d48382610dda565b60006105d48383612fb4565b6000612437611694565b612460836124488660200151613190565b846124568860400151613190565b8860600151613926565b949350505050565b60006105d48383611abe565b600061247e611694565b6124608361248f8660200151613190565b8461249d8860400151613190565b88606001516139a3565b60006105d48383613106565b600061050d6124d26124c3610684565b670de0b6b3a764000090610dda565b8390613106565b60006124e3610870565b6001600160a01b031663aaabadc56040518163ffffffff1660e01b815260040160206040518083038186803b15801561251b57600080fd5b505afa15801561252f573d6000803e3d6000fd5b505050506040513d601f19601f82011682018060405250810190610560919061535c565b6060600061255f6126ba565b927f000000000000000000000000000000000000000000000000000000000000000092509050565b670de0b6b3a764000060005b83518110156125e9576125df6125d88583815181106125ae57fe5b60200260200101518584815181106125c257fe5b6020026020010151613a1990919063ffffffff16565b8390612fb4565b9150600101612593565b5061050d60008211610137611509565b60006126036115f7565b826040516020016108099291906156c9565b60006060612621611694565b600061262c84613a68565b9050612647600082600281111561263f57fe5b1460ce611509565b600061265285613a7e565b905061266661265f611820565b8251610da6565b6126708187611b0f565b600061267a612553565b50905060006126898284612587565b90506000612699826106ec611820565b600992909255509a91995090975050505050505050565b6106808282613a94565b606060006126c6611820565b90506000816001600160401b03811180156126e057600080fd5b5060405190808252806020026020018201604052801561270a578160200160208202803683370190505b5090508115611001577f00000000000000000000000000000000000000000000000000000000000000008160008151811061274157fe5b6020026020010181815250506001821115611001577f00000000000000000000000000000000000000000000000000000000000000008160018151811061278457fe5b6020026020010181815250506002821115611001577f0000000000000000000000000000000000000000000000000000000000000000816002815181106127c757fe5b6020026020010181815250506003821115611001577f00000000000000000000000000000000000000000000000000000000000000008160038151811061280a57fe5b6020026020010181815250506004821115611001577f00000000000000000000000000000000000000000000000000000000000000008160048151811061284d57fe5b6020026020010181815250506005821115611001577f00000000000000000000000000000000000000000000000000000000000000008160058151811061289057fe5b6020026020010181815250506006821115611001577f0000000000000000000000000000000000000000000000000000000000000000816006815181106128d357fe5b6020026020010181815250506007821115611001577f00000000000000000000000000000000000000000000000000000000000000008160078151811061291657fe5b6020026020010181815250506008821115611001577f00000000000000000000000000000000000000000000000000000000000000008160088151811061295957fe5b6020026020010181815250506009821115611001577f00000000000000000000000000000000000000000000000000000000000000008160098151811061299c57fe5b602002602001018181525050600a821115611001577f000000000000000000000000000000000000000000000000000000000000000081600a815181106129df57fe5b602002602001018181525050600b821115611001577f000000000000000000000000000000000000000000000000000000000000000081600b81518110612a2257fe5b602002602001018181525050600c821115611001577f000000000000000000000000000000000000000000000000000000000000000081600c81518110612a6557fe5b602002602001018181525050600d821115611001577f000000000000000000000000000000000000000000000000000000000000000081600d81518110612aa857fe5b602002602001018181525050600e821115611001577f000000000000000000000000000000000000000000000000000000000000000081600e81518110612aeb57fe5b602002602001018181525050600f821115611001577f000000000000000000000000000000000000000000000000000000000000000081600f81518110612b2e57fe5b6020026020010181815250506010821115611001577f000000000000000000000000000000000000000000000000000000000000000081601081518110612b7157fe5b6020026020010181815250506011821115611001577f000000000000000000000000000000000000000000000000000000000000000081601181518110612bb457fe5b6020026020010181815250506012821115611001577f000000000000000000000000000000000000000000000000000000000000000081601281518110612bf757fe5b6020026020010181815250506013821115611001577f0000000000000000000000000000000000000000000000000000000000000000816013815181106114f757fe5b600281511015612c4957610524565b600081600081518110612c5857fe5b602002602001015190506000600190505b8251811015611973576000838281518110612c8057fe5b60200260200101519050612ca9816001600160a01b0316846001600160a01b0316106065611509565b9150600101612c69565b600073ba1ba1ba1ba1ba1ba1ba1ba1ba1ba1ba1ba1ba1b612cd261084c565b6001600160a01b031614158015612ced5750612ced83613b22565b15612d1557612cfa61084c565b6001600160a01b0316336001600160a01b031614905061050d565b612d1d6124d9565b6001600160a01b0316639be2a8848484306040518463ffffffff1660e01b8152600401612d4c9392919061575c565b60206040518083038186803b158015612d6457600080fd5b505afa158015612d78573d6000803e3d6000fd5b505050506040513d601f19601f82011682018060405250810190612d9c919061521c565b905061050d565b62461bcd60e51b6000908152602060045260076024526642414c23000030600a808404818106603090810160081b95839006959095019082900491820690940160101b939093010160c81b604452606490fd5b6000612e058484111583611509565b5050900390565b4690565b60606000612e1c611820565b6001600160401b0381118015612e3157600080fd5b50604051908082528060200260200182016040528015612e5b578160200160208202803683370190505b50905082612e6a579050612eb7565b612e9d888781518110612e7957fe5b6020026020010151888881518110612e8d57fe5b6020026020010151878787613b54565b818781518110612ea957fe5b602090810291909101015290505b9695505050505050565b60005b612ecc611820565b811015612f2657612f07848281518110612ee257fe5b6020026020010151848381518110612ef657fe5b60200260200101518463ffffffff16565b848281518110612f1357fe5b6020908102919091010152600101612ec4565b50505050565b600060606000612f3b84613a68565b90506000816002811115612f4b57fe5b1415612f6657612f5c878786613bcc565b9250925050612f92565b6001816002811115612f7457fe5b1415612f8457612f5c8785613cae565b612f5c87878787613ce0565b505b94509492505050565b6000612faa8484610dda612ec1565b6124608285612587565b6000828202612fce841580611ab7575083858381611ab457fe5b670de0b6b3a764000090049392505050565b612ff76001600160a01b038316151561019b611509565b61300382600083611973565b6001600160a01b03821660009081526020819052604090205461302990826101a1612df6565b6001600160a01b03831660009081526020819052604090205560025461304f9082613d4e565b6002556040516000906001600160a01b038416907fddf252ad1be2c89b69c2b068fc378daa952ba7f163c4a11628f55a4df523b3ef90613090908590615753565b60405180910390a35050565b6000606060006130ab84613a68565b905060018160028111156130bb57fe5b14156130cd57612f5c87878787613d5c565b60028160028111156130db57fe5b14156130ec57612f5c878786613db9565b612f90610136612da3565b6000612faa8484610db3612ec1565b60006131158215156004611509565b826131225750600061050d565b670de0b6b3a76400008381029061313c90858381611af457fe5b82600182038161314857fe5b0460010191505061050d565b600082820261316e841580611ab7575083858381611ab457fe5b8061317d57600091505061050d565b670de0b6b3a76400006000198201613148565b60007f00000000000000000000000000000000000000000000000000000000000000006001600160a01b0316826001600160a01b031614156131f357507f0000000000000000000000000000000000000000000000000000000000000000610711565b7f00000000000000000000000000000000000000000000000000000000000000006001600160a01b0316826001600160a01b0316141561325457507f0000000000000000000000000000000000000000000000000000000000000000610711565b7f00000000000000000000000000000000000000000000000000000000000000006001600160a01b0316826001600160a01b031614156132b557507f0000000000000000000000000000000000000000000000000000000000000000610711565b7f00000000000000000000000000000000000000000000000000000000000000006001600160a01b0316826001600160a01b0316141561331657507f0000000000000000000000000000000000000000000000000000000000000000610711565b7f00000000000000000000000000000000000000000000000000000000000000006001600160a01b0316826001600160a01b0316141561337757507f0000000000000000000000000000000000000000000000000000000000000000610711565b7f00000000000000000000000000000000000000000000000000000000000000006001600160a01b0316826001600160a01b031614156133d857507f0000000000000000000000000000000000000000000000000000000000000000610711565b7f00000000000000000000000000000000000000000000000000000000000000006001600160a01b0316826001600160a01b0316141561343957507f0000000000000000000000000000000000000000000000000000000000000000610711565b7f00000000000000000000000000000000000000000000000000000000000000006001600160a01b0316826001600160a01b0316141561349a57507f0000000000000000000000000000000000000000000000000000000000000000610711565b7f00000000000000000000000000000000000000000000000000000000000000006001600160a01b0316826001600160a01b031614156134fb57507f0000000000000000000000000000000000000000000000000000000000000000610711565b7f00000000000000000000000000000000000000000000000000000000000000006001600160a01b0316826001600160a01b0316141561355c57507f0000000000000000000000000000000000000000000000000000000000000000610711565b7f00000000000000000000000000000000000000000000000000000000000000006001600160a01b0316826001600160a01b031614156135bd57507f0000000000000000000000000000000000000000000000000000000000000000610711565b7f00000000000000000000000000000000000000000000000000000000000000006001600160a01b0316826001600160a01b0316141561361e57507f0000000000000000000000000000000000000000000000000000000000000000610711565b7f00000000000000000000000000000000000000000000000000000000000000006001600160a01b0316826001600160a01b0316141561367f57507f0000000000000000000000000000000000000000000000000000000000000000610711565b7f00000000000000000000000000000000000000000000000000000000000000006001600160a01b0316826001600160a01b031614156136e057507f0000000000000000000000000000000000000000000000000000000000000000610711565b7f00000000000000000000000000000000000000000000000000000000000000006001600160a01b0316826001600160a01b0316141561374157507f0000000000000000000000000000000000000000000000000000000000000000610711565b7f00000000000000000000000000000000000000000000000000000000000000006001600160a01b0316826001600160a01b031614156137a257507f0000000000000000000000000000000000000000000000000000000000000000610711565b7f00000000000000000000000000000000000000000000000000000000000000006001600160a01b0316826001600160a01b0316141561380357507f0000000000000000000000000000000000000000000000000000000000000000610711565b7f00000000000000000000000000000000000000000000000000000000000000006001600160a01b0316826001600160a01b0316141561386457507f0000000000000000000000000000000000000000000000000000000000000000610711565b7f00000000000000000000000000000000000000000000000000000000000000006001600160a01b0316826001600160a01b031614156138c557507f0000000000000000000000000000000000000000000000000000000000000000610711565b7f00000000000000000000000000000000000000000000000000000000000000006001600160a01b0316826001600160a01b031614156123f557507f0000000000000000000000000000000000000000000000000000000000000000610711565b600061394861393d87670429d069189e0000612fb4565b831115610130611509565b60006139548784610db3565b905060006139628883613106565b905060006139708887611abe565b9050600061397e8383613e65565b905061399361398c82613e91565b8990612fb4565b9450505050505b95945050505050565b60006139c56139ba85670429d069189e0000612fb4565b831115610131611509565b60006139db6139d48685610dda565b8690613106565b905060006139e98588613106565b905060006139f78383613e65565b90506000613a0d82670de0b6b3a7640000610dda565b90506139938a82613154565b600080613a268484613eb7565b90506000613a40613a3983612710613154565b6001610db3565b905080821015613a555760009250505061050d565b613a5f8282610dda565b9250505061050d565b60008180602001905181019061050d91906153c5565b6060818060200190518101906105d4919061548a565b613aa060008383611973565b600254613aad9082610db3565b6002556001600160a01b038216600090815260208190526040902054613ad39082610db3565b6001600160a01b0383166000818152602081905260408082209390935591519091907fddf252ad1be2c89b69c2b068fc378daa952ba7f163c4a11628f55a4df523b3ef90613090908590615753565b6000613b34631c74c91760e11b6107d4565b82148061050d5750613b4c6350dd6ed960e01b6107d4565b909114919050565b6000838311613b655750600061399a565b6000613b718585613106565b90506000613b87670de0b6b3a764000088611abe565b9050613b9b826709b6e64a8ec60000613fb8565b91506000613ba98383613e65565b90506000613bc0613bb983613e91565b8b90612fb4565b90506139938187612fb4565b60006060613bd8611694565b600080613be485613fcf565b91509150613bfc613bf3611820565b82106064611509565b6000613c06611820565b6001600160401b0381118015613c1b57600080fd5b50604051908082528060200260200182016040528015613c45578160200160208202803683370190505b509050613c89888381518110613c5757fe5b6020026020010151888481518110613c6b57fe5b602002602001015185613c7c610527565b613c84610684565b613ff1565b818381518110613c9557fe5b6020908102919091010152919791965090945050505050565b600060606000613cbd846140b7565b90506000613cd38683613cce610527565b6140cd565b9196919550909350505050565b60006060613cec611694565b600080613cf88561417e565b91509150613d0982516106a6611820565b613d138287611b0f565b6000613d30898985613d23610527565b613d2b610684565b614196565b9050613d408282111560cf611509565b989197509095505050505050565b60006105d483836001612df6565b60006060600080613d6c8561417e565b91509150613d82613d7b611820565b8351610da6565b613d8c8287611b0f565b6000613da9898985613d9c610527565b613da4610684565b6143c2565b9050613d408282101560d0611509565b60006060600080613dc985613fcf565b91509150613dd8613bf3611820565b6000613de2611820565b6001600160401b0381118015613df757600080fd5b50604051908082528060200260200182016040528015613e21578160200160208202803683370190505b509050613c89888381518110613e3357fe5b6020026020010151888481518110613e4757fe5b602002602001015185613e58610527565b613e60610684565b6145d2565b600080613e728484613eb7565b90506000613e85613a3983612710613154565b905061399a8282610db3565b6000670de0b6b3a76400008210613ea957600061050d565b50670de0b6b3a76400000390565b600081613ecd5750670de0b6b3a764000061050d565b82613eda5750600061050d565b613eeb600160ff1b84106006611509565b82613f11770bce5086492111aea88f4bb1ca6bcf584181ea8059f7653284106007611509565b826000670c7d713b49da000083138015613f325750670f43fc2c04ee000083125b15613f69576000613f428461467d565b9050670de0b6b3a764000080820784020583670de0b6b3a764000083050201915050613f77565b81613f738461479b565b0290505b670de0b6b3a76400009005613faf680238fd42c5cf03ffff198212801590613fa8575068070c1cc73b00c800008213155b6008611509565b612eb781614b3a565b600081831015613fc857816105d4565b5090919050565b60008082806020019051810190613fe69190615454565b909590945092505050565b600080614008846140028188610dda565b90613106565b90506140216709b6e64a8ec60000821015610132611509565b600061403f614038670de0b6b3a764000089611abe565b8390613e65565b9050600061405661404f83613e91565b8a90612fb4565b9050600061406389613e91565b905060006140718383613154565b9050600061407f8483610dda565b90506140a76140a0614099670de0b6b3a76400008b610dda565b8490612fb4565b8290610db3565b9c9b505050505050505050505050565b6000818060200190518101906105d49190615427565b606060006140db8484611abe565b9050600085516001600160401b03811180156140f657600080fd5b50604051908082528060200260200182016040528015614120578160200160208202803683370190505b50905060005b8651811015614174576141558388838151811061413f57fe5b6020026020010151612fb490919063ffffffff16565b82828151811061416157fe5b6020908102919091010152600101614126565b5095945050505050565b6060600082806020019051810190613fe691906153e1565b60008084516001600160401b03811180156141b057600080fd5b506040519080825280602002602001820160405280156141da578160200160208202803683370190505b5090506000805b885181101561429f5761423a8982815181106141f957fe5b602002602001015161400289848151811061421057fe5b60200260200101518c858151811061422457fe5b6020026020010151610dda90919063ffffffff16565b83828151811061424657fe5b60200260200101818152505061429561428e89838151811061426457fe5b602002602001015185848151811061427857fe5b602002602001015161315490919063ffffffff16565b8390610db3565b91506001016141e1565b50670de0b6b3a764000060005b89518110156143a15760008482815181106142c357fe5b60200260200101518411156143235760006142ec6142e086613e91565b8d858151811061413f57fe5b90506000614300828c868151811061422457fe5b905061431a61428e6124d2670de0b6b3a76400008c610dda565b9250505061433a565b88828151811061432f57fe5b602002602001015190505b60006143638c848151811061434b57fe5b60200260200101516106f1848f878151811061422457fe5b905061439561438e8c858151811061437757fe5b602002602001015183613a1990919063ffffffff16565b8590612fb4565b935050506001016142ac565b506143b56143ae82613e91565b8790613154565b9998505050505050505050565b60008084516001600160401b03811180156143dc57600080fd5b50604051908082528060200260200182016040528015614406578160200160208202803683370190505b5090506000805b88518110156144ae5761446689828151811061442557fe5b60200260200101516106f189848151811061443c57fe5b60200260200101518c858151811061445057fe5b6020026020010151610db390919063ffffffff16565b83828151811061447257fe5b6020026020010181815250506144a461428e89838151811061449057fe5b602002602001015185848151811061413f57fe5b915060010161440d565b50670de0b6b3a764000060005b895181101561458f576000838583815181106144d357fe5b6020026020010151111561452f5760006144f86142e086670de0b6b3a7640000610dda565b9050600061450c828c868151811061422457fe5b905061452661428e6125d8670de0b6b3a76400008c610dda565b92505050614546565b88828151811061453b57fe5b602002602001015190505b600061456f8c848151811061455757fe5b60200260200101516106f1848f878151811061445057fe5b905061458361438e8c858151811061437757fe5b935050506001016144bb565b50670de0b6b3a76400008111156145c6576145bc6145b582670de0b6b3a7640000610dda565b8790612fb4565b935050505061399a565b6000935050505061399a565b6000806145e3846140028188610db3565b90506145fc6729a2241af62c0000821115610133611509565b6000614613614038670de0b6b3a764000089613106565b9050600061463361462c83670de0b6b3a7640000610dda565b8a90613154565b9050600061464089613e91565b9050600061464e8383613154565b9050600061465c8483610dda565b90506140a76140a0614676670de0b6b3a76400008b610dda565b8490613106565b670de0b6b3a7640000026000806a0c097ce7bc90715b34b9f160241b808401906ec097ce7bc90715b34b9f0fffffffff19850102816146b857fe5b05905060006a0c097ce7bc90715b34b9f160241b82800205905081806a0c097ce7bc90715b34b9f160241b81840205915060038205016a0c097ce7bc90715b34b9f160241b82840205915060058205016a0c097ce7bc90715b34b9f160241b82840205915060078205016a0c097ce7bc90715b34b9f160241b82840205915060098205016a0c097ce7bc90715b34b9f160241b828402059150600b8205016a0c097ce7bc90715b34b9f160241b828402059150600d8205016a0c097ce7bc90715b34b9f160241b828402059150600f826002919005919091010295945050505050565b6000670de0b6b3a76400008212156147d7576147cd826a0c097ce7bc90715b34b9f160241b816147c757fe5b0561479b565b6000039050610711565b60007e1600ef3172e58d2e933ec884fde10064c63b5372d805e203c0000000000000831261482857770195e54c5dd42177f53a27172fa9ec630262827000000000830592506806f05b59d3b2000000015b73011798004d755d3c8bc8e03204cf44619e0000008312614860576b1425982cf597cd205cef7380830592506803782dace9d9000000015b606492830292026e01855144814a7ff805980ff008400083126148a8576e01855144814a7ff805980ff008400068056bc75e2d63100000840205925068ad78ebc5ac62000000015b6b02df0ab5a80a22c61ab5a70083126148e3576b02df0ab5a80a22c61ab5a70068056bc75e2d6310000084020592506856bc75e2d631000000015b693f1fce3da636ea5cf850831261491a57693f1fce3da636ea5cf85068056bc75e2d631000008402059250682b5e3af16b18800000015b690127fa27722cc06cc5e2831261495157690127fa27722cc06cc5e268056bc75e2d6310000084020592506815af1d78b58c400000015b68280e60114edb805d0383126149865768280e60114edb805d0368056bc75e2d631000008402059250680ad78ebc5ac6200000015b680ebc5fb4174612111083126149b157680ebc5fb4174612111068056bc75e2d631000009384020592015b6808f00f760a4b2db55d83126149e6576808f00f760a4b2db55d68056bc75e2d6310000084020592506802b5e3af16b1880000015b6806f5f17757889379378312614a1b576806f5f177578893793768056bc75e2d63100000840205925068015af1d78b58c40000015b6806248f33704b2866038312614a4f576806248f33704b28660368056bc75e2d63100000840205925067ad78ebc5ac620000015b6805c548670b9510e7ac8312614a83576805c548670b9510e7ac68056bc75e2d6310000084020592506756bc75e2d6310000015b600068056bc75e2d63100000840168056bc75e2d631000008086030281614aa657fe5b059050600068056bc75e2d63100000828002059050818068056bc75e2d63100000818402059150600382050168056bc75e2d63100000828402059150600582050168056bc75e2d63100000828402059150600782050168056bc75e2d63100000828402059150600982050168056bc75e2d63100000828402059150600b820501600202606485820105979650505050505050565b6000614b69680238fd42c5cf03ffff198312158015614b62575068070c1cc73b00c800008313155b6009611509565b6000821215614b9c57614b7e82600003614b3a565b6a0c097ce7bc90715b34b9f160241b81614b9457fe5b059050610711565b60006806f05b59d3b20000008312614bdc57506806f05b59d3b1ffffff1990910190770195e54c5dd42177f53a27172fa9ec630262827000000000614c12565b6803782dace9d90000008312614c0e57506803782dace9d8ffffff19909101906b1425982cf597cd205cef7380614c12565b5060015b6064929092029168056bc75e2d6310000068ad78ebc5ac620000008412614c625768ad78ebc5ac61ffffff199093019268056bc75e2d631000006e01855144814a7ff805980ff008400082020590505b6856bc75e2d6310000008412614c9e576856bc75e2d630ffffff199093019268056bc75e2d631000006b02df0ab5a80a22c61ab5a70082020590505b682b5e3af16b188000008412614cd857682b5e3af16b187fffff199093019268056bc75e2d63100000693f1fce3da636ea5cf85082020590505b6815af1d78b58c4000008412614d12576815af1d78b58c3fffff199093019268056bc75e2d63100000690127fa27722cc06cc5e282020590505b680ad78ebc5ac62000008412614d4b57680ad78ebc5ac61fffff199093019268056bc75e2d6310000068280e60114edb805d0382020590505b68056bc75e2d631000008412614d845768056bc75e2d630fffff199093019268056bc75e2d63100000680ebc5fb4174612111082020590505b6802b5e3af16b18800008412614dbd576802b5e3af16b187ffff199093019268056bc75e2d631000006808f00f760a4b2db55d82020590505b68015af1d78b58c400008412614df65768015af1d78b58c3ffff199093019268056bc75e2d631000006806f5f177578893793782020590505b68056bc75e2d631000008481019085906002908280020505918201919050600368056bc75e2d631000008783020505918201919050600468056bc75e2d631000008783020505918201919050600568056bc75e2d631000008783020505918201919050600668056bc75e2d631000008783020505918201919050600768056bc75e2d631000008783020505918201919050600868056bc75e2d631000008783020505918201919050600968056bc75e2d631000008783020505918201919050600a68056bc75e2d631000008783020505918201919050600b68056bc75e2d631000008783020505918201919050600c68056bc75e2d631000008783020505918201919050606468056bc75e2d63100000848402058502059695505050505050565b8035610711816158a3565b600082601f830112614f32578081fd5b81516020614f47614f4283615886565b615863565b8281528181019085830183850287018401881015614f63578586fd5b855b85811015614f8157815184529284019290840190600101614f65565b5090979650505050505050565b600082601f830112614f9e578081fd5b81356001600160401b03811115614fb157fe5b614fc4601f8201601f1916602001615863565b818152846020838601011115614fd8578283fd5b816020850160208301379081016020019190915292915050565b80356002811061071157600080fd5b600060208284031215615012578081fd5b81356105d4816158a3565b6000806040838503121561502f578081fd5b823561503a816158a3565b9150602083013561504a816158a3565b809150509250929050565b600080600060608486031215615069578081fd5b8335615074816158a3565b92506020840135615084816158a3565b929592945050506040919091013590565b600080600080600080600060e0888a0312156150af578485fd5b87356150ba816158a3565b965060208801356150ca816158a3565b95506040880135945060608801359350608088013560ff811681146150ed578384fd5b9699959850939692959460a0840135945060c09093013592915050565b6000806040838503121561511c578182fd5b8235615127816158a3565b946020939093013593505050565b600080600060608486031215615149578081fd5b83516001600160401b038082111561515f578283fd5b818601915086601f830112615172578283fd5b81516020615182614f4283615886565b82815281810190858301838502870184018c101561519e578788fd5b8796505b848710156151c95780516151b5816158a3565b8352600196909601959183019183016151a2565b50918901519197509093505050808211156151e2578283fd5b506151ef86828701614f22565b925050604084015190509250925092565b600060208284031215615211578081fd5b81356105d4816158b8565b60006020828403121561522d578081fd5b81516105d4816158b8565b600080600080600080600060e0888a031215615252578081fd5b87359650602080890135615265816158a3565b96506040890135615275816158a3565b955060608901356001600160401b0380821115615290578384fd5b818b0191508b601f8301126152a3578384fd5b81356152b1614f4282615886565b8082825285820191508585018f8788860288010111156152cf578788fd5b8795505b838610156152f15780358352600195909501949186019186016152d3565b509850505060808b0135955060a08b0135945060c08b0135925080831115615317578384fd5b50506153258a828b01614f8e565b91505092959891949750929550565b600060208284031215615345578081fd5b81356001600160e01b0319811681146105d4578182fd5b60006020828403121561536d578081fd5b81516105d4816158a3565b6000806040838503121561538a578182fd5b8235615395816158a3565b915060208301356001600160401b038111156153af578182fd5b6153bb85828601614f8e565b9150509250929050565b6000602082840312156153d6578081fd5b81516105d4816158c6565b6000806000606084860312156153f5578081fd5b8351615400816158c6565b60208501519093506001600160401b0381111561541b578182fd5b6151ef86828701614f22565b60008060408385031215615439578182fd5b8251615444816158c6565b6020939093015192949293505050565b600080600060608486031215615468578081fd5b8351615473816158c6565b602085015160409095015190969495509392505050565b6000806040838503121561549c578182fd5b82516154a7816158c6565b60208401519092506001600160401b038111156154c2578182fd5b6153bb85828601614f22565b6000806000606084860312156154e2578081fd5b83356001600160401b03808211156154f8578283fd5b818601915061012080838903121561550e578384fd5b61551781615863565b905061552283614ff2565b815261553060208401614f17565b602082015261554160408401614f17565b6040820152606083013560608201526080830135608082015260a083013560a082015261557060c08401614f17565b60c082015261558160e08401614f17565b60e08201526101008084013583811115615599578586fd5b6155a58a828701614f8e565b9183019190915250976020870135975060409096013595945050505050565b6000602082840312156155d5578081fd5b5035919050565b600080600080608085870312156155f1578182fd5b8451935060208501519250604085015191506060850151615611816158a3565b939692955090935050565b6000815180845260208085019450808401835b8381101561564b5781518752958201959082019060010161562f565b509495945050505050565b60008151808452815b8181101561567b5760208185018101518683018201520161565f565b8181111561568c5782602083870101525b50601f01601f19169290920160200192915050565b9182526001600160e01b031916602082015260240190565b6000828483379101908152919050565b61190160f01b81526002810192909252602282015260420190565b6001600160a01b0391909116815260200190565b6000602082526105d4602083018461561c565b60006040825261571e604083018561561c565b828103602084015261399a818561561c565b901515815260200190565b92151583526020830191909152604082015260600190565b90815260200190565b9283526001600160a01b03918216602084015216604082015260600190565b9586526001600160a01b0394851660208701529290931660408501526060840152608083019190915260a082015260c00190565b9485526020850193909352604084019190915260608301526001600160a01b0316608082015260a00190565b6000838252604060208301526124606040830184615656565b9182526001600160a01b0316602082015260400190565b93845260ff9290921660208401526040830152606082015260800190565b6000602082526105d46020830184615656565b600083825260406020830152612460604083018461561c565b60ff91909116815260200190565b6040518181016001600160401b038111828210171561587e57fe5b604052919050565b60006001600160401b0382111561589957fe5b5060209081020190565b6001600160a01b038116811461052457600080fd5b801515811461052457600080fd5b6003811061052457600080fdfea2646970667358221220ec88b024d6b2fa91ae651d9320b39466d85a24caa7c08884cefc413c83ed4c6164736f6c63430007060033",
  "linkReferences": {},
  "deployedLinkReferences": {}
}