{
  "_format": "hh-sol-artifact-1",
  "contractName": "WeightedPool2Tokens",
  "sourceName": "contracts/NoProtocolFeeLiquidityBootstrappingPoolFactory.sol",
  "abi": [
    {
      "inputs": [
        {
          "components": [
            {
              "internalType": "contract IVault",
              "name": "vault",
              "type": "address"
            },
            {
              "internalType": "string",
              "name": "name",
              "type": "string"
            },
            {
              "internalType": "string",
              "name": "symbol",
              "type": "string"
            },
            {
              "internalType": "contract IERC20",
              "name": "token0",
              "type": "address"
            },
            {
              "internalType": "contract IERC20",
              "name": "token1",
              "type": "address"
            },
            {
              "internalType": "uint256",
              "name": "normalizedWeight0",
              "type": "uint256"
            },
            {
              "internalType": "uint256",
              "name": "normalizedWeight1",
              "type": "uint256"
            },
            {
              "internalType": "uint256",
              "name": "swapFeePercentage",
              "type": "uint256"
            },
            {
              "internalType": "uint256",
              "name": "pauseWindowDuration",
              "type": "uint256"
            },
            {
              "internalType": "uint256",
              "name": "bufferPeriodDuration",
              "type": "uint256"
            },
            {
              "internalType": "bool",
              "name": "oracleEnabled",
              "type": "bool"
            },
            {
              "internalType": "address",
              "name": "owner",
              "type": "address"
            }
          ],
          "internalType": "struct WeightedPool2Tokens.NewPoolParams",
          "name": "params",
          "type": "tuple"
        }
      ],
      "stateMutability": "nonpayable",
      "type": "constructor"
    },
    {
      "anonymous": false,
      "inputs": [
        {
          "indexed": true,
          "internalType": "address",
          "name": "owner",
          "type": "address"
        },
        {
          "indexed": true,
          "internalType": "address",
          "name": "spender",
          "type": "address"
        },
        {
          "indexed": false,
          "internalType": "uint256",
          "name": "value",
          "type": "uint256"
        }
      ],
      "name": "Approval",
      "type": "event"
    },
    {
      "anonymous": false,
      "inputs": [
        {
          "indexed": false,
          "internalType": "bool",
          "name": "enabled",
          "type": "bool"
        }
      ],
      "name": "OracleEnabledChanged",
      "type": "event"
    },
    {
      "anonymous": false,
      "inputs": [
        {
          "indexed": false,
          "internalType": "bool",
          "name": "paused",
          "type": "bool"
        }
      ],
      "name": "PausedStateChanged",
      "type": "event"
    },
    {
      "anonymous": false,
      "inputs": [
        {
          "indexed": false,
          "internalType": "uint256",
          "name": "swapFeePercentage",
          "type": "uint256"
        }
      ],
      "name": "SwapFeePercentageChanged",
      "type": "event"
    },
    {
      "anonymous": false,
      "inputs": [
        {
          "indexed": true,
          "internalType": "address",
          "name": "from",
          "type": "address"
        },
        {
          "indexed": true,
          "internalType": "address",
          "name": "to",
          "type": "address"
        },
        {
          "indexed": false,
          "internalType": "uint256",
          "name": "value",
          "type": "uint256"
        }
      ],
      "name": "Transfer",
      "type": "event"
    },
    {
      "inputs": [],
      "name": "DOMAIN_SEPARATOR",
      "outputs": [
        {
          "internalType": "bytes32",
          "name": "",
          "type": "bytes32"
        }
      ],
      "stateMutability": "view",
      "type": "function"
    },
    {
      "inputs": [
        {
          "internalType": "address",
          "name": "owner",
          "type": "address"
        },
        {
          "internalType": "address",
          "name": "spender",
          "type": "address"
        }
      ],
      "name": "allowance",
      "outputs": [
        {
          "internalType": "uint256",
          "name": "",
          "type": "uint256"
        }
      ],
      "stateMutability": "view",
      "type": "function"
    },
    {
      "inputs": [
        {
          "internalType": "address",
          "name": "spender",
          "type": "address"
        },
        {
          "internalType": "uint256",
          "name": "amount",
          "type": "uint256"
        }
      ],
      "name": "approve",
      "outputs": [
        {
          "internalType": "bool",
          "name": "",
          "type": "bool"
        }
      ],
      "stateMutability": "nonpayable",
      "type": "function"
    },
    {
      "inputs": [
        {
          "internalType": "address",
          "name": "account",
          "type": "address"
        }
      ],
      "name": "balanceOf",
      "outputs": [
        {
          "internalType": "uint256",
          "name": "",
          "type": "uint256"
        }
      ],
      "stateMutability": "view",
      "type": "function"
    },
    {
      "inputs": [],
      "name": "decimals",
      "outputs": [
        {
          "internalType": "uint8",
          "name": "",
          "type": "uint8"
        }
      ],
      "stateMutability": "view",
      "type": "function"
    },
    {
      "inputs": [
        {
          "internalType": "address",
          "name": "spender",
          "type": "address"
        },
        {
          "internalType": "uint256",
          "name": "amount",
          "type": "uint256"
        }
      ],
      "name": "decreaseAllowance",
      "outputs": [
        {
          "internalType": "bool",
          "name": "",
          "type": "bool"
        }
      ],
      "stateMutability": "nonpayable",
      "type": "function"
    },
    {
      "inputs": [],
      "name": "enableOracle",
      "outputs": [],
      "stateMutability": "nonpayable",
      "type": "function"
    },
    {
      "inputs": [
        {
          "internalType": "bytes4",
          "name": "selector",
          "type": "bytes4"
        }
      ],
      "name": "getActionId",
      "outputs": [
        {
          "internalType": "bytes32",
          "name": "",
          "type": "bytes32"
        }
      ],
      "stateMutability": "view",
      "type": "function"
    },
    {
      "inputs": [],
      "name": "getAuthorizer",
      "outputs": [
        {
          "internalType": "contract IAuthorizer",
          "name": "",
          "type": "address"
        }
      ],
      "stateMutability": "view",
      "type": "function"
    },
    {
      "inputs": [],
      "name": "getInvariant",
      "outputs": [
        {
          "internalType": "uint256",
          "name": "",
          "type": "uint256"
        }
      ],
      "stateMutability": "view",
      "type": "function"
    },
    {
      "inputs": [],
      "name": "getLargestSafeQueryWindow",
      "outputs": [
        {
          "internalType": "uint256",
          "name": "",
          "type": "uint256"
        }
      ],
      "stateMutability": "pure",
      "type": "function"
    },
    {
      "inputs": [],
      "name": "getLastInvariant",
      "outputs": [
        {
          "internalType": "uint256",
          "name": "",
          "type": "uint256"
        }
      ],
      "stateMutability": "view",
      "type": "function"
    },
    {
      "inputs": [
        {
          "internalType": "enum IPriceOracle.Variable",
          "name": "variable",
          "type": "uint8"
        }
      ],
      "name": "getLatest",
      "outputs": [
        {
          "internalType": "uint256",
          "name": "",
          "type": "uint256"
        }
      ],
      "stateMutability": "view",
      "type": "function"
    },
    {
      "inputs": [],
      "name": "getMiscData",
      "outputs": [
        {
          "internalType": "int256",
          "name": "logInvariant",
          "type": "int256"
        },
        {
          "internalType": "int256",
          "name": "logTotalSupply",
          "type": "int256"
        },
        {
          "internalType": "uint256",
          "name": "oracleSampleCreationTimestamp",
          "type": "uint256"
        },
        {
          "internalType": "uint256",
          "name": "oracleIndex",
          "type": "uint256"
        },
        {
          "internalType": "bool",
          "name": "oracleEnabled",
          "type": "bool"
        },
        {
          "internalType": "uint256",
          "name": "swapFeePercentage",
          "type": "uint256"
        }
      ],
      "stateMutability": "view",
      "type": "function"
    },
    {
      "inputs": [],
      "name": "getNormalizedWeights",
      "outputs": [
        {
          "internalType": "uint256[]",
          "name": "",
          "type": "uint256[]"
        }
      ],
      "stateMutability": "view",
      "type": "function"
    },
    {
      "inputs": [],
      "name": "getOwner",
      "outputs": [
        {
          "internalType": "address",
          "name": "",
          "type": "address"
        }
      ],
      "stateMutability": "view",
      "type": "function"
    },
    {
      "inputs": [
        {
          "components": [
            {
              "internalType": "enum IPriceOracle.Variable",
              "name": "variable",
              "type": "uint8"
            },
            {
              "internalType": "uint256",
              "name": "ago",
              "type": "uint256"
            }
          ],
          "internalType": "struct IPriceOracle.OracleAccumulatorQuery[]",
          "name": "queries",
          "type": "tuple[]"
        }
      ],
      "name": "getPastAccumulators",
      "outputs": [
        {
          "internalType": "int256[]",
          "name": "results",
          "type": "int256[]"
        }
      ],
      "stateMutability": "view",
      "type": "function"
    },
    {
      "inputs": [],
      "name": "getPausedState",
      "outputs": [
        {
          "internalType": "bool",
          "name": "paused",
          "type": "bool"
        },
        {
          "internalType": "uint256",
          "name": "pauseWindowEndTime",
          "type": "uint256"
        },
        {
          "internalType": "uint256",
          "name": "bufferPeriodEndTime",
          "type": "uint256"
        }
      ],
      "stateMutability": "view",
      "type": "function"
    },
    {
      "inputs": [],
      "name": "getPoolId",
      "outputs": [
        {
          "internalType": "bytes32",
          "name": "",
          "type": "bytes32"
        }
      ],
      "stateMutability": "view",
      "type": "function"
    },
    {
      "inputs": [],
      "name": "getRate",
      "outputs": [
        {
          "internalType": "uint256",
          "name": "",
          "type": "uint256"
        }
      ],
      "stateMutability": "view",
      "type": "function"
    },
    {
      "inputs": [
        {
          "internalType": "uint256",
          "name": "index",
          "type": "uint256"
        }
      ],
      "name": "getSample",
      "outputs": [
        {
          "internalType": "int256",
          "name": "logPairPrice",
          "type": "int256"
        },
        {
          "internalType": "int256",
          "name": "accLogPairPrice",
          "type": "int256"
        },
        {
          "internalType": "int256",
          "name": "logBptPrice",
          "type": "int256"
        },
        {
          "internalType": "int256",
          "name": "accLogBptPrice",
          "type": "int256"
        },
        {
          "internalType": "int256",
          "name": "logInvariant",
          "type": "int256"
        },
        {
          "internalType": "int256",
          "name": "accLogInvariant",
          "type": "int256"
        },
        {
          "internalType": "uint256",
          "name": "timestamp",
          "type": "uint256"
        }
      ],
      "stateMutability": "view",
      "type": "function"
    },
    {
      "inputs": [],
      "name": "getSwapFeePercentage",
      "outputs": [
        {
          "internalType": "uint256",
          "name": "",
          "type": "uint256"
        }
      ],
      "stateMutability": "view",
      "type": "function"
    },
    {
      "inputs": [
        {
          "components": [
            {
              "internalType": "enum IPriceOracle.Variable",
              "name": "variable",
              "type": "uint8"
            },
            {
              "internalType": "uint256",
              "name": "secs",
              "type": "uint256"
            },
            {
              "internalType": "uint256",
              "name": "ago",
              "type": "uint256"
            }
          ],
          "internalType": "struct IPriceOracle.OracleAverageQuery[]",
          "name": "queries",
          "type": "tuple[]"
        }
      ],
      "name": "getTimeWeightedAverage",
      "outputs": [
        {
          "internalType": "uint256[]",
          "name": "results",
          "type": "uint256[]"
        }
      ],
      "stateMutability": "view",
      "type": "function"
    },
    {
      "inputs": [],
      "name": "getTotalSamples",
      "outputs": [
        {
          "internalType": "uint256",
          "name": "",
          "type": "uint256"
        }
      ],
      "stateMutability": "pure",
      "type": "function"
    },
    {
      "inputs": [],
      "name": "getVault",
      "outputs": [
        {
          "internalType": "contract IVault",
          "name": "",
          "type": "address"
        }
      ],
      "stateMutability": "view",
      "type": "function"
    },
    {
      "inputs": [
        {
          "internalType": "address",
          "name": "spender",
          "type": "address"
        },
        {
          "internalType": "uint256",
          "name": "addedValue",
          "type": "uint256"
        }
      ],
      "name": "increaseAllowance",
      "outputs": [
        {
          "internalType": "bool",
          "name": "",
          "type": "bool"
        }
      ],
      "stateMutability": "nonpayable",
      "type": "function"
    },
    {
      "inputs": [],
      "name": "name",
      "outputs": [
        {
          "internalType": "string",
          "name": "",
          "type": "string"
        }
      ],
      "stateMutability": "view",
      "type": "function"
    },
    {
      "inputs": [
        {
          "internalType": "address",
          "name": "owner",
          "type": "address"
        }
      ],
      "name": "nonces",
      "outputs": [
        {
          "internalType": "uint256",
          "name": "",
          "type": "uint256"
        }
      ],
      "stateMutability": "view",
      "type": "function"
    },
    {
      "inputs": [
        {
          "internalType": "bytes32",
          "name": "poolId",
          "type": "bytes32"
        },
        {
          "internalType": "address",
          "name": "sender",
          "type": "address"
        },
        {
          "internalType": "address",
          "name": "recipient",
          "type": "address"
        },
        {
          "internalType": "uint256[]",
          "name": "balances",
          "type": "uint256[]"
        },
        {
          "internalType": "uint256",
          "name": "lastChangeBlock",
          "type": "uint256"
        },
        {
          "internalType": "uint256",
          "name": "protocolSwapFeePercentage",
          "type": "uint256"
        },
        {
          "internalType": "bytes",
          "name": "userData",
          "type": "bytes"
        }
      ],
      "name": "onExitPool",
      "outputs": [
        {
          "internalType": "uint256[]",
          "name": "",
          "type": "uint256[]"
        },
        {
          "internalType": "uint256[]",
          "name": "",
          "type": "uint256[]"
        }
      ],
      "stateMutability": "nonpayable",
      "type": "function"
    },
    {
      "inputs": [
        {
          "internalType": "bytes32",
          "name": "poolId",
          "type": "bytes32"
        },
        {
          "internalType": "address",
          "name": "sender",
          "type": "address"
        },
        {
          "internalType": "address",
          "name": "recipient",
          "type": "address"
        },
        {
          "internalType": "uint256[]",
          "name": "balances",
          "type": "uint256[]"
        },
        {
          "internalType": "uint256",
          "name": "lastChangeBlock",
          "type": "uint256"
        },
        {
          "internalType": "uint256",
          "name": "protocolSwapFeePercentage",
          "type": "uint256"
        },
        {
          "internalType": "bytes",
          "name": "userData",
          "type": "bytes"
        }
      ],
      "name": "onJoinPool",
      "outputs": [
        {
          "internalType": "uint256[]",
          "name": "amountsIn",
          "type": "uint256[]"
        },
        {
          "internalType": "uint256[]",
          "name": "dueProtocolFeeAmounts",
          "type": "uint256[]"
        }
      ],
      "stateMutability": "nonpayable",
      "type": "function"
    },
    {
      "inputs": [
        {
          "components": [
            {
              "internalType": "enum IVault.SwapKind",
              "name": "kind",
              "type": "uint8"
            },
            {
              "internalType": "contract IERC20",
              "name": "tokenIn",
              "type": "address"
            },
            {
              "internalType": "contract IERC20",
              "name": "tokenOut",
              "type": "address"
            },
            {
              "internalType": "uint256",
              "name": "amount",
              "type": "uint256"
            },
            {
              "internalType": "bytes32",
              "name": "poolId",
              "type": "bytes32"
            },
            {
              "internalType": "uint256",
              "name": "lastChangeBlock",
              "type": "uint256"
            },
            {
              "internalType": "address",
              "name": "from",
              "type": "address"
            },
            {
              "internalType": "address",
              "name": "to",
              "type": "address"
            },
            {
              "internalType": "bytes",
              "name": "userData",
              "type": "bytes"
            }
          ],
          "internalType": "struct IPoolSwapStructs.SwapRequest",
          "name": "request",
          "type": "tuple"
        },
        {
          "internalType": "uint256",
          "name": "balanceTokenIn",
          "type": "uint256"
        },
        {
          "internalType": "uint256",
          "name": "balanceTokenOut",
          "type": "uint256"
        }
      ],
      "name": "onSwap",
      "outputs": [
        {
          "internalType": "uint256",
          "name": "",
          "type": "uint256"
        }
      ],
      "stateMutability": "nonpayable",
      "type": "function"
    },
    {
      "inputs": [
        {
          "internalType": "address",
          "name": "owner",
          "type": "address"
        },
        {
          "internalType": "address",
          "name": "spender",
          "type": "address"
        },
        {
          "internalType": "uint256",
          "name": "value",
          "type": "uint256"
        },
        {
          "internalType": "uint256",
          "name": "deadline",
          "type": "uint256"
        },
        {
          "internalType": "uint8",
          "name": "v",
          "type": "uint8"
        },
        {
          "internalType": "bytes32",
          "name": "r",
          "type": "bytes32"
        },
        {
          "internalType": "bytes32",
          "name": "s",
          "type": "bytes32"
        }
      ],
      "name": "permit",
      "outputs": [],
      "stateMutability": "nonpayable",
      "type": "function"
    },
    {
      "inputs": [
        {
          "internalType": "bytes32",
          "name": "poolId",
          "type": "bytes32"
        },
        {
          "internalType": "address",
          "name": "sender",
          "type": "address"
        },
        {
          "internalType": "address",
          "name": "recipient",
          "type": "address"
        },
        {
          "internalType": "uint256[]",
          "name": "balances",
          "type": "uint256[]"
        },
        {
          "internalType": "uint256",
          "name": "lastChangeBlock",
          "type": "uint256"
        },
        {
          "internalType": "uint256",
          "name": "protocolSwapFeePercentage",
          "type": "uint256"
        },
        {
          "internalType": "bytes",
          "name": "userData",
          "type": "bytes"
        }
      ],
      "name": "queryExit",
      "outputs": [
        {
          "internalType": "uint256",
          "name": "bptIn",
          "type": "uint256"
        },
        {
          "internalType": "uint256[]",
          "name": "amountsOut",
          "type": "uint256[]"
        }
      ],
      "stateMutability": "nonpayable",
      "type": "function"
    },
    {
      "inputs": [
        {
          "internalType": "bytes32",
          "name": "poolId",
          "type": "bytes32"
        },
        {
          "internalType": "address",
          "name": "sender",
          "type": "address"
        },
        {
          "internalType": "address",
          "name": "recipient",
          "type": "address"
        },
        {
          "internalType": "uint256[]",
          "name": "balances",
          "type": "uint256[]"
        },
        {
          "internalType": "uint256",
          "name": "lastChangeBlock",
          "type": "uint256"
        },
        {
          "internalType": "uint256",
          "name": "protocolSwapFeePercentage",
          "type": "uint256"
        },
        {
          "internalType": "bytes",
          "name": "userData",
          "type": "bytes"
        }
      ],
      "name": "queryJoin",
      "outputs": [
        {
          "internalType": "uint256",
          "name": "bptOut",
          "type": "uint256"
        },
        {
          "internalType": "uint256[]",
          "name": "amountsIn",
          "type": "uint256[]"
        }
      ],
      "stateMutability": "nonpayable",
      "type": "function"
    },
    {
      "inputs": [
        {
          "internalType": "bool",
          "name": "paused",
          "type": "bool"
        }
      ],
      "name": "setPaused",
      "outputs": [],
      "stateMutability": "nonpayable",
      "type": "function"
    },
    {
      "inputs": [
        {
          "internalType": "uint256",
          "name": "swapFeePercentage",
          "type": "uint256"
        }
      ],
      "name": "setSwapFeePercentage",
      "outputs": [],
      "stateMutability": "nonpayable",
      "type": "function"
    },
    {
      "inputs": [],
      "name": "symbol",
      "outputs": [
        {
          "internalType": "string",
          "name": "",
          "type": "string"
        }
      ],
      "stateMutability": "view",
      "type": "function"
    },
    {
      "inputs": [],
      "name": "totalSupply",
      "outputs": [
        {
          "internalType": "uint256",
          "name": "",
          "type": "uint256"
        }
      ],
      "stateMutability": "view",
      "type": "function"
    },
    {
      "inputs": [
        {
          "internalType": "address",
          "name": "recipient",
          "type": "address"
        },
        {
          "internalType": "uint256",
          "name": "amount",
          "type": "uint256"
        }
      ],
      "name": "transfer",
      "outputs": [
        {
          "internalType": "bool",
          "name": "",
          "type": "bool"
        }
      ],
      "stateMutability": "nonpayable",
      "type": "function"
    },
    {
      "inputs": [
        {
          "internalType": "address",
          "name": "sender",
          "type": "address"
        },
        {
          "internalType": "address",
          "name": "recipient",
          "type": "address"
        },
        {
          "internalType": "uint256",
          "name": "amount",
          "type": "uint256"
        }
      ],
      "name": "transferFrom",
      "outputs": [
        {
          "internalType": "bool",
          "name": "",
          "type": "bool"
        }
      ],
      "stateMutability": "nonpayable",
      "type": "function"
    }
  ],
  "bytecode": "0x6102a06040527f6e71edae12b1b97f4d1f60370fef10105fa2faae0126114a169c64845d6126c9610120523480156200003757600080fd5b5060405162005793380380620057938339810160408190526200005a916200082f565b610100810151610120820151602080840151604080860151815180830190925260018252603160f81b828501526101608701513360805260601b6001600160601b03191660a05282519293909284928392909183918691620000c39160039190850190620006b8565b508051620000d9906004906020840190620006b8565b50506005805460ff1916601217905550815160209283012060c052805191012060e05250507f8b73c3c69bb8fe3d512ecc4cf759cc79239f7b179b0ffacaa9a75d522b39400f6101005250620001386276a70083111561019462000423565b6200014c62278d0082111561019562000423565b429091016101408181529101610160528101516200016a9062000438565b60e08101516200017a9062000494565b80516040516309b2760f60e01b81526000916001600160a01b0316906309b2760f90620001ad9060029060040162000a2e565b602060405180830381600087803b158015620001c857600080fd5b505af1158015620001dd573d6000803e3d6000fd5b505050506040513d601f19601f8201168201806040525081019062000203919062000816565b60408051600280825260608201835292935060009290916020830190803683370190505090508260600151816000815181106200023c57fe5b60200260200101906001600160a01b031690816001600160a01b0316815250508260800151816001815181106200026f57fe5b6001600160a01b0392831660209182029290920101528351166366a9c7d283836002604051908082528060200260200182016040528015620002bb578160200160208202803683370190505b506040518463ffffffff1660e01b8152600401620002dc9392919062000994565b600060405180830381600087803b158015620002f757600080fd5b505af11580156200030c573d6000803e3d6000fd5b505084516001600160601b0319606091821b8116610180526101a08690528187018051831b82166101c052608088015190921b166101e05251620003539250905062000512565b610260526080830151620003679062000512565b6102805260a08301516200038890662386f26fc10000111561012e62000423565b620003aa662386f26fc100008460c00151101561012e6200042360201b60201c565b6000620003ce8460c001518560a00151620005b660201b620011a51790919060201c565b9050620003e8670de0b6b3a7640000821461013462000423565b60a0840180516102005260c0850180516102205251905110156200040e57600162000411565b60005b60ff16610240525062000a7092505050565b8162000434576200043481620005d1565b5050565b62000454816009546200062460201b620011b71790919060201c565b6009556040517f3e350b41e86a8e10f804ade6d35340d620be35569cc75ac943e8bb14ab80ead1906200048990839062000989565b60405180910390a150565b620004a964e8d4a5100082101560cb62000423565b620004c167016345785d8a000082111560ca62000423565b620004dd816009546200064360201b620011c51790919060201c565b6009556040517fa9ba3ffe0b6c366b81232caab38605a0699ad5398d6cce76f91ee809e322dafc906200048990839062000a43565b600080826001600160a01b031663313ce5676040518163ffffffff1660e01b815260040160206040518083038186803b1580156200054f57600080fd5b505afa15801562000564573d6000803e3d6000fd5b505050506040513d601f19601f820116820180604052508101906200058a919062000966565b60ff1690506000620005a96012836200066260201b620011d31760201c565b600a0a925050505b919050565b6000828201620005ca848210158362000423565b9392505050565b62461bcd60e51b6000908152602060045260076024526642414c23000030600a808404818106603090810160081b95839006959095019082900491820690940160101b939093010160c81b604452606490fd5b6000620005ca826055856200067a60201b620011e9179092919060201c565b6000620005ca82605685620006a360201b62001210179092919060201c565b60006200067483831115600162000423565b50900390565b60006001821b19841682846200069257600062000695565b60015b60ff16901b17949350505050565b6001600160401b03811b1992909216911b1790565b828054600181600116156101000203166002900490600052602060002090601f016020900481019282620006f057600085556200073b565b82601f106200070b57805160ff19168380011785556200073b565b828001600101855582156200073b579182015b828111156200073b5782518255916020019190600101906200071e565b50620007499291506200074d565b5090565b5b808211156200074957600081556001016200074e565b80516001600160a01b0381168114620005b157600080fd5b80518015158114620005b157600080fd5b600082601f8301126200079e578081fd5b81516001600160401b03811115620007b257fe5b6020620007c8601f8301601f1916820162000a4c565b8281528582848701011115620007dc578384fd5b835b83811015620007fb578581018301518282018401528201620007de565b838111156200080c57848385840101525b5095945050505050565b60006020828403121562000828578081fd5b5051919050565b60006020828403121562000841578081fd5b81516001600160401b038082111562000858578283fd5b81840191506101808083870312156200086f578384fd5b6200087a8162000a4c565b9050620008878362000764565b81526020830151828111156200089b578485fd5b620008a9878286016200078d565b602083015250604083015182811115620008c1578485fd5b620008cf878286016200078d565b604083015250620008e36060840162000764565b6060820152620008f66080840162000764565b608082015260a0838101519082015260c0808401519082015260e08084015190820152610100808401519082015261012080840151908201526101409150620009418284016200077c565b8282015261016091506200095782840162000764565b91810191909152949350505050565b60006020828403121562000978578081fd5b815160ff81168114620005ca578182fd5b901515815260200190565b60006060820185835260206060818501528186518084526080860191508288019350845b81811015620009df5784516001600160a01b031683529383019391830191600101620009b8565b505084810360408601528551808252908201925081860190845b8181101562000a205782516001600160a01b031685529383019391830191600101620009f9565b509298975050505050505050565b602081016003831062000a3d57fe5b91905290565b90815260200190565b6040518181016001600160401b038111828210171562000a6857fe5b604052919050565b60805160a05160601c60c05160e051610100516101205161014051610160516101805160601c6101a0516101c05160601c6101e05160601c6102005161022051610240516102605161028051614c4b62000b4860003980611c77525080611c9e5250806128d452806129085280612944525080611ccb5280611d67525080611cf25280611d455280611d9552505080610c425250806107ff525080610b9052508061137c525080611358525080610f355250806116955250806116d75250806116b6525080610b6c525080610af75250614c4b6000f3fe608060405234801561001057600080fd5b50600436106102485760003560e01c806374f3b0091161013b578063a9059cbb116100b8578063d505accf1161007c578063d505accf146104e1578063d5c096c4146104f4578063dd62ed3e14610507578063f89f27ed1461051a578063ffd088eb1461052257610248565b8063a9059cbb146104a3578063aaabadc5146104b6578063b10be739146104be578063b48b5b40146104d1578063c0ff1a15146104d957610248565b80638d928af8116100ff5780638d928af81461046557806395d89b411461046d5780639b02cdde146104755780639d2c110c1461047d578063a457c2d71461049057610248565b806374f3b009146103f65780637ecebe0014610417578063851c1bb31461042a57806387ec68171461043d578063893d20e81461045057610248565b806338e9922e116101c95780636028bfd41161018d5780636028bfd41461037457806360d1507c14610395578063679aefce146103bb5780636b843239146103c357806370a08231146103e357610248565b806338e9922e1461032457806338fff2d014610337578063395093511461033f5780634a6b0b151461035257806355c676281461036c57610248565b80631dccd830116102105780631dccd830146102cc57806323b872dd146102ec578063292c914a146102ff578063313ce567146103075780633644e5151461031c57610248565b806306fdde031461024d578063095ea7b31461026b57806316c38b3c1461028b57806318160ddd146102a05780631c0de051146102b5575b600080fd5b61025561052a565b6040516102629190614b2b565b60405180910390f35b61027e6102793660046142b2565b6105c0565b6040516102629190614a08565b61029e610299366004614546565b6105d7565b005b6102a86105eb565b6040516102629190614a2b565b6102bd6105f1565b60405161026293929190614a13565b6102df6102da366004614478565b61061a565b60405161026291906149d0565b61027e6102fa3660046141fd565b610722565b61029e610798565b61030f6107cc565b6040516102629190614b97565b6102a86107d5565b61029e6103323660046148e3565b6107e4565b6102a86107fd565b61027e61034d3660046142b2565b610821565b61035a61085c565b60405161026296959493929190614b01565b6102a86108b7565b61038761038236600461457e565b6108c4565b604051610262929190614b7e565b6103a86103a33660046148e3565b6108f5565b6040516102629796959493929190614ad1565b6102a861093e565b6103d66103d13660046143a8565b610963565b604051610262919061498c565b6102a86103f13660046141a9565b610a14565b61040961040436600461457e565b610a33565b6040516102629291906149e3565b6102a86104253660046141a9565b610ad8565b6102a861043836600461467a565b610af3565b61038761044b36600461457e565b610b45565b610458610b6a565b6040516102629190614978565b610458610b8e565b610255610bb2565b6102a8610c13565b6102a861048b3660046147ed565b610c19565b61027e61049e3660046142b2565b610dc8565b61027e6104b13660046142b2565b610e06565b610458610e13565b6102a86104cc3660046147d1565b610e1d565b6102a8610e3f565b6102a8610e45565b61029e6104ef36600461423d565b610f00565b61040961050236600461457e565b611049565b6102a86105153660046141c5565b611169565b6102df611194565b6102a861119e565b60038054604080516020601f60026000196101006001881615020190951694909404938401819004810282018101909252828152606093909290918301828280156105b65780601f1061058b576101008083540402835291602001916105b6565b820191906000526020600020905b81548152906001019060200180831161059957829003601f168201915b5050505050905090565b60006105cd338484611225565b5060015b92915050565b6105df61128d565b6105e8816112bb565b50565b60025490565b60008060006105fe611339565b159250610609611356565b915061061361137a565b9050909192565b606081516001600160401b038111801561063357600080fd5b5060405190808252806020026020018201604052801561065d578160200160208202803683370190505b509050600061066d60095461139e565b9050610677614086565b60005b845181101561071a5784818151811061068f57fe5b602002602001015191506106ad82602001516000141561013c6113ab565b60006106c883600001518585602001518660400151016113bd565b905060006106df84600001518686604001516113bd565b90506106f98460200151838303816106f357fe5b05611503565b86848151811061070557fe5b6020908102919091010152505060010161067a565b505050919050565b60008061072f8533611169565b9050610753336001600160a01b038716148061074b5750838210155b61019e6113ab565b61075e858585611516565b336001600160a01b0386161480159061077957506000198114155b1561078b5761078b8533858403611225565b60019150505b9392505050565b6107a06115f6565b6107a861128d565b6107b26001611609565b60006107bc6105eb565b11156107ca576107ca611649565b565b60055460ff1690565b60006107df611691565b905090565b6107ec61128d565b6107f46115f6565b6105e88161172e565b7f000000000000000000000000000000000000000000000000000000000000000090565b3360008181526001602090815260408083206001600160a01b038716845290915281205490916105cd91859061085790866111a5565b611225565b6000806000806000806000600954905061087581611797565b9650610880816117a3565b955061088b816117b0565b94506108968161139e565b93506108a1816117bd565b92506108ac816117ca565b915050909192939495565b60006107df6009546117ca565b600060606108d4865160026117d7565b6108e9898989898989896117e461189e61191c565b97509795505050505050565b6000806000806000806000610910610400891061013b6113ab565b600061091b89611a3a565b905061092681611a4c565b959f949e50929c50909a509850965090945092505050565b60006107df61094b6105eb565b61095d610956610e45565b6002611aaf565b90611ad3565b606081516001600160401b038111801561097c57600080fd5b506040519080825280602002602001820160405280156109a6578160200160208202803683370190505b50905060006109b660095461139e565b90506109c06140a8565b60005b845181101561071a578481815181106109d857fe5b602002602001015191506109f582600001518484602001516113bd565b848281518110610a0157fe5b60209081029190910101526001016109c3565b6001600160a01b0381166000908152602081905260409020545b919050565b60608088610a5d610a42610b8e565b6001600160a01b0316336001600160a01b03161460cd6113ab565b610a72610a686107fd565b82146101f46113ab565b610a7b87611b24565b6000806000610a8f8d8d8d8d8d8d8d6117e4565b925092509250610a9f8c84611b86565b610aa88261189e565b610ab18161189e565b610ab9611339565b15610ac657610ac6611649565b909c909b509950505050505050505050565b6001600160a01b031660009081526006602052604090205490565b60007f000000000000000000000000000000000000000000000000000000000000000082604051602001610b28929190614935565b604051602081830303815290604052805190602001209050919050565b60006060610b55865160026117d7565b6108e989898989898989611b90611c1061191c565b7f000000000000000000000000000000000000000000000000000000000000000090565b7f000000000000000000000000000000000000000000000000000000000000000090565b60048054604080516020601f60026000196101006001881615020190951694909404938401819004810282018101909252828152606093909290918301828280156105b65780601f1061058b576101008083540402835291602001916105b6565b600a5490565b6000610c236115f6565b8360800151610c33610a42610b8e565b610c3e610a686107fd565b60007f00000000000000000000000000000000000000000000000000000000000000006001600160a01b031686602001516001600160a01b03161490506000610c8682611c6e565b90506000610c948315611c6e565b90506000610ca184611cc2565b90506000610caf8515611cc2565b9050610cbb8985611d16565b9850610cc78884611d16565b9750610cf08a60a0015186610cdc5789610cde565b8a5b87610ce9578b610ceb565b8a5b611d22565b60008a516001811115610cff57fe5b1415610d6d576000610d1d610d126108b7565b60608d015190611e28565b9050610d3f610d39828d606001516111d390919063ffffffff16565b86611d16565b60608c01526000610d538c8c8c8787611e6c565b9050610d5f8186611e8b565b985050505050505050610dc0565b610d7b8a6060015184611d16565b60608b01526000610d8f8b8b8b8686611e97565b9050610d9b8186611eaa565b9050610db7610db0610dab6108b7565b611eb6565b8290611edc565b97505050505050505b509392505050565b600080610dd53385611169565b9050808310610def57610dea33856000611225565b610dfc565b610dfc3385858403611225565b5060019392505050565b60006105cd338484611516565b60006107df611f1e565b600080610e3483610e2f60095461139e565b611f98565b905061079181611503565b61040090565b600080610e50610b8e565b6001600160a01b031663f94d4668610e666107fd565b6040518263ffffffff1660e01b8152600401610e829190614a2b565b60006040518083038186803b158015610e9a57600080fd5b505afa158015610eae573d6000803e3d6000fd5b505050506040513d6000823e601f3d908101601f19168201604052610ed691908101906142dd565b50915050610ee381611b24565b6000610eed611fcf565b9050610ef9818361203e565b9250505090565b610f0e8442111560d16113ab565b6001600160a01b0387166000908152600660209081526040808320549051909291610f65917f0000000000000000000000000000000000000000000000000000000000000000918c918c918c9188918d9101614a53565b6040516020818303038152906040528051906020012090506000610f88826120b0565b9050600060018288888860405160008152602001604052604051610faf9493929190614ab3565b6020604051602081039080840390855afa158015610fd1573d6000803e3d6000fd5b5050604051601f190151915061101390506001600160a01b0382161580159061100b57508b6001600160a01b0316826001600160a01b0316145b6101f86113ab565b6001600160a01b038b16600090815260066020526040902060018501905561103c8b8b8b611225565b5050505050505050505050565b60608088611058610a42610b8e565b611063610a686107fd565b61106b6115f6565b60006110756105eb565b6110e5576110858b8b8b886120cc565b9450905061109a620f424082101560cc6113ab565b6110a86000620f4240612155565b6110b789620f42408303612155565b6110c084611c10565b6040805160028082526060820183529091602083019080368337019050509250611153565b6110ee88611b24565b61112187896000815181106110ff57fe5b60200260200101518a60018151811061111457fe5b6020026020010151611d22565b6111308b8b8b8b8b8b8b611b90565b909550935090506111418982612155565b61114a84611c10565b6111538361189e565b61115b611649565b505097509795505050505050565b6001600160a01b03918216600090815260016020908152604080832093909416825291909152205490565b60606107df611fcf565b6201de2090565b600082820161079184821015836113ab565b6000610791838360556111e9565b600061079183836056611210565b60006111e38383111560016113ab565b50900390565b60006001821b19841682846111ff576000611202565b60015b60ff16901b17949350505050565b6001600160401b03811b1992909216911b1790565b6001600160a01b0380841660008181526001602090815260408083209487168084529490915290819020849055517f8c5be1e5ebec7d5bd14f71427d1e84f3dd0314c0f7b2291e5b200ac8c7c3b92590611280908590614a2b565b60405180910390a3505050565b60006112a46000356001600160e01b031916610af3565b90506105e86112b3823361215f565b6101916113ab565b80156112db576112d66112cc611356565b42106101936113ab565b6112f0565b6112f06112e661137a565b42106101a96113ab565b6007805460ff19168215151790556040517f9e3a5e37224532dea67b89face185703738a228a6e8a23dee546960180d3be649061132e908390614a08565b60405180910390a150565b600061134361137a565b4211806107df57505060075460ff161590565b7f000000000000000000000000000000000000000000000000000000000000000090565b7f000000000000000000000000000000000000000000000000000000000000000090565b60006105d182604b61224f565b816113b9576113b981612257565b5050565b60006113ce824210156101386113ab565b4282900360006113dd85611a3a565b905060006113ea826122aa565b90506113fb600082116101396113ab565b8281116114275780830380611410848a6122b6565b0261141b848a6122fa565b01945050505050610791565b60006114328761233e565b9050600061143f82611a3a565b9050600061144c826122aa565b905061145d600082116101396113ab565b61146c8682111561013a6113ab565b505060008061147b868461234b565b91509150600061148a836122aa565b611493836122aa565b03905080156114eb5760006114a8848d6122fa565b6114b2848e6122fa565b03905060006114c0856122aa565b8903905082818302816114cf57fe5b056114da868f6122fa565b019950505050505050505050610791565b6114f5838c6122fa565b975050505050505050610791565b60006105d1655af3107a400083026123fe565b61152d6001600160a01b03841615156101986113ab565b6115446001600160a01b03831615156101996113ab565b61154f8383836127db565b6001600160a01b03831660009081526020819052604090205461157590826101a06127e0565b6001600160a01b0380851660009081526020819052604080822093909355908416815220546115a490826111a5565b6001600160a01b0380841660008181526020819052604090819020939093559151908516907fddf252ad1be2c89b69c2b068fc378daa952ba7f163c4a11628f55a4df523b3ef90611280908590614a2b565b6107ca611601611339565b6101926113ab565b60095461161690826111b7565b6009556040517f3e350b41e86a8e10f804ade6d35340d620be35569cc75ac943e8bb14ab80ead19061132e908390614a08565b600954611655816117bd565b156105e85761166f611668600a546127f6565b8290612836565b905061168b61168461167f6105eb565b6127f6565b8290612843565b60095550565b60007f00000000000000000000000000000000000000000000000000000000000000007f00000000000000000000000000000000000000000000000000000000000000007f00000000000000000000000000000000000000000000000000000000000000006116fe612851565b30604051602001611713959493929190614a87565b60405160208183030381529060405280519060200120905090565b61174164e8d4a5100082101560cb6113ab565b61175767016345785d8a000082111560ca6113ab565b60095461176490826111c5565b6009556040517fa9ba3ffe0b6c366b81232caab38605a0699ad5398d6cce76f91ee809e322dafc9061132e908390614a2b565b60006105d18282612855565b60006105d1826016612855565b60006105d182602c61287c565b60006105d1826055612886565b60006105d1826056612890565b6113b981831460676113ab565b600060608060006117f3611fcf565b90506117fd611339565b156118455761181387896000815181106110ff57fe5b600061181f828a61203e565b90506118308983600a54848b61289d565b925061183f89846111d3612982565b50611866565b60408051600280825260608201835290916020830190803683370190505091505b611871888287612a14565b909450925061188388846111d3612982565b61188d818961203e565b600a55509750975097945050505050565b6118c5816000815181106118ae57fe5b60200260200101516118c06001611c6e565b612a81565b816000815181106118d257fe5b602002602001018181525050611900816001815181106118ee57fe5b60200260200101516118c06000611c6e565b8160018151811061190d57fe5b60200260200101818152505050565b3330146119da576000306001600160a01b031660003660405161194092919061494d565b6000604051808303816000865af19150503d806000811461197d576040519150601f19603f3d011682016040523d82523d6000602084013e611982565b606091505b50509050806000811461199157fe5b60046000803e6000516001600160e01b0319166343adbafb60e01b81146119bc573d6000803e3d6000fd5b506020600460003e604060205260243d03602460403e601c3d016000f35b6119e386611b24565b6000806119f98b8b8b8b8b8b8b8b63ffffffff16565b5091509150611a0b818463ffffffff16565b8051601f1982018390526343adbafb603f1983015260200260231982016044820181fd5b505050505050505050565b60009081526008602052604090205490565b6000806000806000806000611a6088612aa1565b9650611a6b88612aae565b9550611a7688612abb565b9450611a8188612ac8565b9350611a8c88612ad5565b9250611a9788612ae2565b9150611aa2886122aa565b9050919395979092949650565b6000828202610791841580611acc575083858381611ac957fe5b04145b60036113ab565b6000611ae282151560046113ab565b82611aef575060006105d1565b670de0b6b3a764000083810290611b1290858381611b0957fe5b041460056113ab565b828181611b1b57fe5b049150506105d1565b611b4b81600081518110611b3457fe5b6020026020010151611b466001611c6e565b611aaf565b81600081518110611b5857fe5b60200260200101818152505061190081600181518110611b7457fe5b6020026020010151611b466000611c6e565b6113b98282612aef565b60006060806000611b9f611fcf565b90506000611bad828a61203e565b90506000611bc08a84600a54858c61289d565b9050611bcf8a826111d3612982565b600080611bdd8c868b612bab565b91509150611bee8c826111a5612982565b611bf8858d61203e565b600a55909e909d50909b509950505050505050505050565b611c3781600081518110611c2057fe5b6020026020010151611c326001611c6e565b612c05565b81600081518110611c4457fe5b60200260200101818152505061190081600181518110611c6057fe5b6020026020010151611c3260005b600081611c9b577f00000000000000000000000000000000000000000000000000000000000000006105d1565b507f0000000000000000000000000000000000000000000000000000000000000000919050565b600081611cef577f00000000000000000000000000000000000000000000000000000000000000006105d1565b507f0000000000000000000000000000000000000000000000000000000000000000919050565b60006107918383611aaf565b600954611d2e816117bd565b8015611d3957508343115b15611e22576000611d8c7f0000000000000000000000000000000000000000000000000000000000000000857f000000000000000000000000000000000000000000000000000000000000000086612c38565b90506000611dc37f000000000000000000000000000000000000000000000000000000000000000086611dbe866117a3565b612c6d565b90506000611dd08461139e565b90506000611ddd856117b0565b90506000611df682848787611df18b611797565b612c94565b9050808314611a2f57611e098682612ceb565b9550611e158642612cf9565b6009819055955050505050505b50505050565b6000828202611e42841580611acc575083858381611ac957fe5b80611e515760009150506105d1565b670de0b6b3a764000060001982015b046001019150506105d1565b6000611e7f858486858a60600151612d07565b90505b95945050505050565b60006107918383612a81565b6000611e7f858486858a60600151612d82565b60006107918383612c05565b6000670de0b6b3a76400008210611ece5760006105d1565b50670de0b6b3a76400000390565b6000611eeb82151560046113ab565b82611ef8575060006105d1565b670de0b6b3a764000083810290611f1290858381611b0957fe5b826001820381611e6057fe5b6000611f28610b8e565b6001600160a01b031663aaabadc56040518163ffffffff1660e01b815260040160206040518083038186803b158015611f6057600080fd5b505afa158015611f74573d6000803e3d6000fd5b505050506040513d601f19601f820116820180604052508101906107df91906146a2565b600080611fa483611a3a565b9050611fbd6000611fb4836122aa565b116101396113ab565b611fc781856122b6565b949350505050565b60408051600280825260608083018452926000929190602083019080368337019050509050611ffe6001611cc2565b8160008151811061200b57fe5b6020026020010181815250506120216000611cc2565b8160018151811061202e57fe5b6020908102919091010152905090565b670de0b6b3a764000060005b83518110156120a05761209661208f85838151811061206557fe5b602002602001015185848151811061207957fe5b6020026020010151612df890919063ffffffff16565b8390612e47565b915060010161204a565b506105d1600082116101376113ab565b60006120ba611691565b82604051602001610b2892919061495d565b6000606060006120db84612e73565b90506120f660008260028111156120ee57fe5b1460ce6113ab565b600061210185612e89565b905061210f815160026117d7565b61211881611b24565b6000612122611fcf565b90506000612130828461203e565b9050600061213f826002611aaf565b600a929092555099919850909650505050505050565b6113b98282612e9f565b600073ba1ba1ba1ba1ba1ba1ba1ba1ba1ba1ba1ba1ba1b61217e610b6a565b6001600160a01b031614158015612199575061219983612f2d565b156121c1576121a6610b6a565b6001600160a01b0316336001600160a01b03161490506105d1565b6121c9611f1e565b6001600160a01b0316639be2a8848484306040518463ffffffff1660e01b81526004016121f893929190614a34565b60206040518083038186803b15801561221057600080fd5b505afa158015612224573d6000803e3d6000fd5b505050506040513d601f19601f820116820180604052508101906122489190614562565b90506105d1565b1c6103ff1690565b62461bcd60e51b6000908152602060045260076024526642414c23000030600a808404818106603090810160081b95839006959095019082900491820690940160101b939093010160c81b604452606490fd5b60006105d1828261287c565b6000808260028111156122c557fe5b14156122d45761224883612aa1565b60018260028111156122e257fe5b14156122f15761224883612abb565b61224883612ad5565b60008082600281111561230957fe5b14156123185761224883612aae565b600182600281111561232657fe5b14156123355761224883612ac8565b61224883612ae2565b60006105d1826001612f5f565b600080806103ff8180805b8385116123c25760028585010461236d818a612f5f565b935061237884611a3a565b9250612383836122aa565b915089821015612398578060010195506123bc565b898211156123ab576001810394506123bc565b8283975097505050505050506123f7565b50612356565b8881106123e0576123da6123d584612f70565b611a3a565b826123ed565b816123ed6123d58561233e565b9650965050505050505b9250929050565b600061242d680238fd42c5cf03ffff198312158015612426575068070c1cc73b00c800008313155b60096113ab565b600082121561246057612442826000036123fe565b6a0c097ce7bc90715b34b9f160241b8161245857fe5b059050610a2e565b60006806f05b59d3b200000083126124a057506806f05b59d3b1ffffff1990910190770195e54c5dd42177f53a27172fa9ec6302628270000000006124d6565b6803782dace9d900000083126124d257506803782dace9d8ffffff19909101906b1425982cf597cd205cef73806124d6565b5060015b6064929092029168056bc75e2d6310000068ad78ebc5ac6200000084126125265768ad78ebc5ac61ffffff199093019268056bc75e2d631000006e01855144814a7ff805980ff008400082020590505b6856bc75e2d6310000008412612562576856bc75e2d630ffffff199093019268056bc75e2d631000006b02df0ab5a80a22c61ab5a70082020590505b682b5e3af16b18800000841261259c57682b5e3af16b187fffff199093019268056bc75e2d63100000693f1fce3da636ea5cf85082020590505b6815af1d78b58c40000084126125d6576815af1d78b58c3fffff199093019268056bc75e2d63100000690127fa27722cc06cc5e282020590505b680ad78ebc5ac6200000841261260f57680ad78ebc5ac61fffff199093019268056bc75e2d6310000068280e60114edb805d0382020590505b68056bc75e2d6310000084126126485768056bc75e2d630fffff199093019268056bc75e2d63100000680ebc5fb4174612111082020590505b6802b5e3af16b18800008412612681576802b5e3af16b187ffff199093019268056bc75e2d631000006808f00f760a4b2db55d82020590505b68015af1d78b58c4000084126126ba5768015af1d78b58c3ffff199093019268056bc75e2d631000006806f5f177578893793782020590505b68056bc75e2d631000008481019085906002908280020505918201919050600368056bc75e2d631000008783020505918201919050600468056bc75e2d631000008783020505918201919050600568056bc75e2d631000008783020505918201919050600668056bc75e2d631000008783020505918201919050600768056bc75e2d631000008783020505918201919050600868056bc75e2d631000008783020505918201919050600968056bc75e2d631000008783020505918201919050600a68056bc75e2d631000008783020505918201919050600b68056bc75e2d631000008783020505918201919050600c68056bc75e2d631000008783020505918201919050606468056bc75e2d63100000848402058502059695505050505050565b505050565b60006127ef84841115836113ab565b5050900390565b60008061280283612f7d565b9050600080821361281b57652d79883d20008203612825565b652d79883d200082015b655af3107a40009005949350505050565b6000610791838383612fd9565b600061079183836016612fd9565b4690565b600082821c623fffff16621fffff811361286f5780611fc7565b623fffff19179392505050565b1c637fffffff1690565b1c60019081161490565b1c6001600160401b031690565b60408051600280825260608083018452926000929190602083019080368337019050509050826128ce579050611e82565b612941877f0000000000000000000000000000000000000000000000000000000000000000815181106128fd57fe5b6020026020010151877f00000000000000000000000000000000000000000000000000000000000000008151811061293157fe5b6020026020010151878787612ff0565b817f00000000000000000000000000000000000000000000000000000000000000008151811061296d57fe5b60209081029190910101529695505050505050565b6129b88360008151811061299257fe5b6020026020010151836000815181106129a757fe5b60200260200101518363ffffffff16565b836000815181106129c557fe5b6020026020010181815250506129f6836001815181106129e157fe5b6020026020010151836001815181106129a757fe5b83600181518110612a0357fe5b602002602001018181525050505050565b600060606000612a2384612e73565b90506000816002811115612a3357fe5b1415612a4e57612a44868686613068565b9250925050612a79565b6001816002811115612a5c57fe5b1415612a6c57612a448685613119565b612a4486868661314b565b505b935093915050565b6000612a9082151560046113ab565b818381612a9957fe5b049392505050565b60006105d18260ea612855565b60006105d18260b56131b6565b60006105d182609f612855565b60006105d182606a6131b6565b60006105d1826054612855565b60006105d182601f6131b6565b612b066001600160a01b038316151561019b6113ab565b612b12826000836127db565b6001600160a01b038216600090815260208190526040902054612b3890826101a16127e0565b6001600160a01b038316600090815260208190526040902055600254612b5e90826131e9565b6002556040516000906001600160a01b038416907fddf252ad1be2c89b69c2b068fc378daa952ba7f163c4a11628f55a4df523b3ef90612b9f908590614a2b565b60405180910390a35050565b600060606000612bba84612e73565b90506001816002811115612bca57fe5b1415612bdb57612a448686866131f7565b6002816002811115612be957fe5b1415612bfa57612a4486868661324d565b612a77610136612257565b6000612c1482151560046113ab565b82612c21575060006105d1565b816001840381612c2d57fe5b0460010190506105d1565b600080612c58612c488486611edc565b612c528789611edc565b90611edc565b9050612c63816127f6565b9695505050505050565b600080612c7a8486611edc565b90506000612c87826127f6565b9390930395945050505050565b600080612cb085858542612ca78b611a3a565b939291906132d1565b9050607842889003101580612cc55786612cce565b612cce8761233e565b600081815260086020526040902092909255509695505050505050565b60006107918383604b613323565b60006107918383602c613333565b6000612d29612d1e87670429d069189e0000612e47565b8311156101306113ab565b6000612d3587846111a5565b90506000612d438883611edc565b90506000612d518887611ad3565b90506000612d5f8383613345565b9050612d74612d6d82611eb6565b8990612e47565b9a9950505050505050505050565b6000612da4612d9985670429d069189e0000612e47565b8311156101316113ab565b6000612dba612db386856111d3565b8690611edc565b90506000612dc88588611edc565b90506000612dd68383613345565b90506000612dec82670de0b6b3a76400006111d3565b9050612d748a82611e28565b600080612e058484613371565b90506000612e1f612e1883612710611e28565b60016111a5565b905080821015612e34576000925050506105d1565b612e3e82826111d3565b925050506105d1565b6000828202612e61841580611acc575083858381611ac957fe5b670de0b6b3a764000090049392505050565b6000818060200190518101906105d191906146be565b6060818060200190518101906107919190614783565b612eab600083836127db565b600254612eb890826111a5565b6002556001600160a01b038216600090815260208190526040902054612ede90826111a5565b6001600160a01b0383166000818152602081905260408082209390935591519091907fddf252ad1be2c89b69c2b068fc378daa952ba7f163c4a11628f55a4df523b3ef90612b9f908590614a2b565b6000612f3f631c74c91760e11b610af3565b8214806105d15750612f576350dd6ed960e01b610af3565b909114919050565b60006104008383015b069392505050565b60006105d1826001613472565b6000612f8d6000831360646113ab565b670c7d713b49da000082138015612fab5750670f43fc2c04ee000082125b15612fc957670de0b6b3a7640000612fc283613481565b8161245857fe5b612fd28261359f565b9050610a2e565b623fffff828116821b90821b198416179392505050565b600083831161300157506000611e82565b600061300d8585611edc565b90506000613023670de0b6b3a764000088611ad3565b9050613037826709b6e64a8ec6000061393e565b915060006130458383613345565b9050600061305c61305583611eb6565b8b90612e47565b9050612d748187612e47565b600060606130746115f6565b60008061308085613955565b915091506130926002821060646113ab565b6040805160028082526060820183526000926020830190803683370190505090506130f48883815181106130c257fe5b60200260200101518884815181106130d657fe5b6020026020010151856130e76105eb565b6130ef6108b7565b613977565b81838151811061310057fe5b6020908102919091010152919791965090945050505050565b60006060600061312884613a37565b9050600061313e86836131396105eb565b613a4d565b9196919550909350505050565b600060606131576115f6565b60008061316385613afe565b91509150613173825160026117d7565b61317c82611b24565b600061319988888561318c6105eb565b6131946108b7565b613b16565b90506131a98282111560cf6113ab565b9791965090945050505050565b600082821c661fffffffffffff16660fffffffffffff81136131d85780611fc7565b661fffffffffffff19179392505050565b6000610791838360016127e0565b6000606060008061320785613afe565b91509150613217825160026117d7565b61322082611b24565b600061323d8888856132306105eb565b6132386108b7565b613d49565b90506131a98282101560d06113ab565b6000606060008061325d85613955565b9150915061326f6002821060646113ab565b6040805160028082526060820183526000926020830190803683370190505090506130f488838151811061329f57fe5b60200260200101518884815181106132b357fe5b6020026020010151856132c46105eb565b6132cc6108b7565b613f59565b6000806132dd876122aa565b8303905060008187026132ef89612aae565b01905060008287026133008a612ac8565b01905060008387026133118b612ae2565b019050612d7489848a858b868c614004565b6103ff811b1992909216911b1790565b637fffffff811b1992909216911b1790565b6000806133528484613371565b90506000613365612e1883612710611e28565b9050611e8282826111a5565b6000816133875750670de0b6b3a76400006105d1565b82613394575060006105d1565b6133a5600160ff1b841060066113ab565b826133cb770bce5086492111aea88f4bb1ca6bcf584181ea8059f76532841060076113ab565b826000670c7d713b49da0000831380156133ec5750670f43fc2c04ee000083125b156134235760006133fc84613481565b9050670de0b6b3a764000080820784020583670de0b6b3a764000083050201915050613431565b8161342d8461359f565b0290505b670de0b6b3a76400009005613469680238fd42c5cf03ffff198212801590613462575068070c1cc73b00c800008213155b60086113ab565b612c63816123fe565b60006104008284038101612f68565b670de0b6b3a7640000026000806a0c097ce7bc90715b34b9f160241b808401906ec097ce7bc90715b34b9f0fffffffff19850102816134bc57fe5b05905060006a0c097ce7bc90715b34b9f160241b82800205905081806a0c097ce7bc90715b34b9f160241b81840205915060038205016a0c097ce7bc90715b34b9f160241b82840205915060058205016a0c097ce7bc90715b34b9f160241b82840205915060078205016a0c097ce7bc90715b34b9f160241b82840205915060098205016a0c097ce7bc90715b34b9f160241b828402059150600b8205016a0c097ce7bc90715b34b9f160241b828402059150600d8205016a0c097ce7bc90715b34b9f160241b828402059150600f826002919005919091010295945050505050565b6000670de0b6b3a76400008212156135db576135d1826a0c097ce7bc90715b34b9f160241b816135cb57fe5b0561359f565b6000039050610a2e565b60007e1600ef3172e58d2e933ec884fde10064c63b5372d805e203c0000000000000831261362c57770195e54c5dd42177f53a27172fa9ec630262827000000000830592506806f05b59d3b2000000015b73011798004d755d3c8bc8e03204cf44619e0000008312613664576b1425982cf597cd205cef7380830592506803782dace9d9000000015b606492830292026e01855144814a7ff805980ff008400083126136ac576e01855144814a7ff805980ff008400068056bc75e2d63100000840205925068ad78ebc5ac62000000015b6b02df0ab5a80a22c61ab5a70083126136e7576b02df0ab5a80a22c61ab5a70068056bc75e2d6310000084020592506856bc75e2d631000000015b693f1fce3da636ea5cf850831261371e57693f1fce3da636ea5cf85068056bc75e2d631000008402059250682b5e3af16b18800000015b690127fa27722cc06cc5e2831261375557690127fa27722cc06cc5e268056bc75e2d6310000084020592506815af1d78b58c400000015b68280e60114edb805d03831261378a5768280e60114edb805d0368056bc75e2d631000008402059250680ad78ebc5ac6200000015b680ebc5fb4174612111083126137b557680ebc5fb4174612111068056bc75e2d631000009384020592015b6808f00f760a4b2db55d83126137ea576808f00f760a4b2db55d68056bc75e2d6310000084020592506802b5e3af16b1880000015b6806f5f1775788937937831261381f576806f5f177578893793768056bc75e2d63100000840205925068015af1d78b58c40000015b6806248f33704b2866038312613853576806248f33704b28660368056bc75e2d63100000840205925067ad78ebc5ac620000015b6805c548670b9510e7ac8312613887576805c548670b9510e7ac68056bc75e2d6310000084020592506756bc75e2d6310000015b600068056bc75e2d63100000840168056bc75e2d6310000080860302816138aa57fe5b059050600068056bc75e2d63100000828002059050818068056bc75e2d63100000818402059150600382050168056bc75e2d63100000828402059150600582050168056bc75e2d63100000828402059150600782050168056bc75e2d63100000828402059150600982050168056bc75e2d63100000828402059150600b820501600202606485820105979650505050505050565b60008183101561394e5781610791565b5090919050565b6000808280602001905181019061396c919061474d565b909590945092505050565b60008061398884612c5281886111d3565b90506139a16709b6e64a8ec600008210156101326113ab565b60006139bf6139b8670de0b6b3a764000089611ad3565b8390613345565b905060006139d66139cf83611eb6565b8a90612e47565b905060006139e389611eb6565b905060006139f18383611e28565b905060006139ff84836111d3565b9050613a27613a20613a19670de0b6b3a76400008b6111d3565b8490612e47565b82906111a5565b9c9b505050505050505050505050565b6000818060200190518101906107919190614720565b60606000613a5b8484611ad3565b9050600085516001600160401b0381118015613a7657600080fd5b50604051908082528060200260200182016040528015613aa0578160200160208202803683370190505b50905060005b8651811015613af457613ad583888381518110613abf57fe5b6020026020010151612e4790919063ffffffff16565b828281518110613ae157fe5b6020908102919091010152600101613aa6565b5095945050505050565b606060008280602001905181019061396c91906146da565b60008084516001600160401b0381118015613b3057600080fd5b50604051908082528060200260200182016040528015613b5a578160200160208202803683370190505b5090506000805b8851811015613c1f57613bba898281518110613b7957fe5b6020026020010151612c52898481518110613b9057fe5b60200260200101518c8581518110613ba457fe5b60200260200101516111d390919063ffffffff16565b838281518110613bc657fe5b602002602001018181525050613c15613c0e898381518110613be457fe5b6020026020010151858481518110613bf857fe5b6020026020010151611e2890919063ffffffff16565b83906111a5565b9150600101613b61565b50670de0b6b3a764000060005b8951811015613d28576000848281518110613c4357fe5b6020026020010151841115613caa576000613c6c613c6086611eb6565b8d8581518110613abf57fe5b90506000613c80828c8681518110613ba457fe5b9050613ca1613c0e613c9a670de0b6b3a76400008c6111d3565b8390611edc565b92505050613cc1565b888281518110613cb657fe5b602002602001015190505b6000613cea8c8481518110613cd257fe5b602002602001015161095d848f8781518110613ba457fe5b9050613d1c613d158c8581518110613cfe57fe5b602002602001015183612df890919063ffffffff16565b8590612e47565b93505050600101613c2c565b50613d3c613d3582611eb6565b8790611e28565b9998505050505050505050565b60008084516001600160401b0381118015613d6357600080fd5b50604051908082528060200260200182016040528015613d8d578160200160208202803683370190505b5090506000805b8851811015613e3557613ded898281518110613dac57fe5b602002602001015161095d898481518110613dc357fe5b60200260200101518c8581518110613dd757fe5b60200260200101516111a590919063ffffffff16565b838281518110613df957fe5b602002602001018181525050613e2b613c0e898381518110613e1757fe5b6020026020010151858481518110613abf57fe5b9150600101613d94565b50670de0b6b3a764000060005b8951811015613f1657600083858381518110613e5a57fe5b60200260200101511115613eb6576000613e7f613c6086670de0b6b3a76400006111d3565b90506000613e93828c8681518110613ba457fe5b9050613ead613c0e61208f670de0b6b3a76400008c6111d3565b92505050613ecd565b888281518110613ec257fe5b602002602001015190505b6000613ef68c8481518110613ede57fe5b602002602001015161095d848f8781518110613dd757fe5b9050613f0a613d158c8581518110613cfe57fe5b93505050600101613e42565b50670de0b6b3a7640000811115613f4d57613f43613f3c82670de0b6b3a76400006111d3565b8790612e47565b9350505050611e82565b60009350505050611e82565b600080613f6a84612c5281886111a5565b9050613f836729a2241af62c00008211156101336113ab565b6000613f9a6139b8670de0b6b3a764000089611edc565b90506000613fba613fb383670de0b6b3a76400006111d3565b8a90611e28565b90506000613fc789611eb6565b90506000613fd58383611e28565b90506000613fe384836111d3565b9050613a27613a20613ffd670de0b6b3a76400008b6111d3565b8490611edc565b60006140108282614064565b61401b84601f614068565b614026866054614079565b61403188606a614068565b61403c8a609f614079565b6140478c60b5614068565b6140528e60ea614079565b17171717171798975050505050505050565b1b90565b661fffffffffffff91909116901b90565b623fffff91909116901b90565b6040805160608101909152806000815260200160008152602001600081525090565b604080518082019091526000808252602082015290565b8035610a2e81614be5565b600082601f8301126140da578081fd5b815160206140ef6140ea83614bc8565b614ba5565b828152818101908583018385028701840188101561410b578586fd5b855b858110156141295781518452928401929084019060010161410d565b5090979650505050505050565b600082601f830112614146578081fd5b81356001600160401b0381111561415957fe5b61416c601f8201601f1916602001614ba5565b818152846020838601011115614180578283fd5b816020850160208301379081016020019190915292915050565b803560028110610a2e57600080fd5b6000602082840312156141ba578081fd5b813561079181614be5565b600080604083850312156141d7578081fd5b82356141e281614be5565b915060208301356141f281614be5565b809150509250929050565b600080600060608486031215614211578081fd5b833561421c81614be5565b9250602084013561422c81614be5565b929592945050506040919091013590565b600080600080600080600060e0888a031215614257578485fd5b873561426281614be5565b9650602088013561427281614be5565b95506040880135945060608801359350608088013560ff81168114614295578384fd5b9699959850939692959460a0840135945060c09093013592915050565b600080604083850312156142c4578182fd5b82356142cf81614be5565b946020939093013593505050565b6000806000606084860312156142f1578081fd5b83516001600160401b0380821115614307578283fd5b818601915086601f83011261431a578283fd5b8151602061432a6140ea83614bc8565b82815281810190858301838502870184018c1015614346578788fd5b8796505b8487101561437157805161435d81614be5565b83526001969096019591830191830161434a565b509189015191975090935050508082111561438a578283fd5b50614397868287016140ca565b925050604084015190509250925092565b600060208083850312156143ba578182fd5b82356001600160401b03808211156143d0578384fd5b818501915085601f8301126143e3578384fd5b81356143f16140ea82614bc8565b818152848101908486016040808502870188018b101561440f578889fd5b8896505b848710156144695780828c031215614429578889fd5b8051818101818110888211171561443c57fe5b8252823561444981614c08565b815282890135898201528452600196909601959287019290810190614413565b50909998505050505050505050565b6000602080838503121561448a578182fd5b82356001600160401b03808211156144a0578384fd5b818501915085601f8301126144b3578384fd5b81356144c16140ea82614bc8565b818152848101908486016060808502870188018b10156144df578889fd5b8896505b848710156144695780828c0312156144f9578889fd5b60408051828101818110898211171561450e57fe5b8252833561451b81614c08565b8152838a01358a820152818401359181019190915284526001969096019592870192908101906144e3565b600060208284031215614557578081fd5b813561079181614bfa565b600060208284031215614573578081fd5b815161079181614bfa565b600080600080600080600060e0888a031215614598578081fd5b873596506020808901356145ab81614be5565b965060408901356145bb81614be5565b955060608901356001600160401b03808211156145d6578384fd5b818b0191508b601f8301126145e9578384fd5b81356145f76140ea82614bc8565b8082825285820191508585018f878886028801011115614615578788fd5b8795505b83861015614637578035835260019590950194918601918601614619565b509850505060808b0135955060a08b0135945060c08b013592508083111561465d578384fd5b505061466b8a828b01614136565b91505092959891949750929550565b60006020828403121561468b578081fd5b81356001600160e01b031981168114610791578182fd5b6000602082840312156146b3578081fd5b815161079181614be5565b6000602082840312156146cf578081fd5b815161079181614c08565b6000806000606084860312156146ee578081fd5b83516146f981614c08565b60208501519093506001600160401b03811115614714578182fd5b614397868287016140ca565b60008060408385031215614732578182fd5b825161473d81614c08565b6020939093015192949293505050565b600080600060608486031215614761578081fd5b835161476c81614c08565b602085015160409095015190969495509392505050565b60008060408385031215614795578182fd5b82516147a081614c08565b60208401519092506001600160401b038111156147bb578182fd5b6147c7858286016140ca565b9150509250929050565b6000602082840312156147e2578081fd5b813561079181614c08565b600080600060608486031215614801578081fd5b83356001600160401b0380821115614817578283fd5b818601915061012080838903121561482d578384fd5b61483681614ba5565b90506148418361419a565b815261484f602084016140bf565b6020820152614860604084016140bf565b6040820152606083013560608201526080830135608082015260a083013560a082015261488f60c084016140bf565b60c08201526148a060e084016140bf565b60e082015261010080840135838111156148b8578586fd5b6148c48a828701614136565b9183019190915250976020870135975060409096013595945050505050565b6000602082840312156148f4578081fd5b5035919050565b6000815180845260208085019450808401835b8381101561492a5781518752958201959082019060010161490e565b509495945050505050565b9182526001600160e01b031916602082015260240190565b6000828483379101908152919050565b61190160f01b81526002810192909252602282015260420190565b6001600160a01b0391909116815260200190565b6020808252825182820181905260009190848201906040850190845b818110156149c4578351835292840192918401916001016149a8565b50909695505050505050565b60006020825261079160208301846148fb565b6000604082526149f660408301856148fb565b8281036020840152611e8281856148fb565b901515815260200190565b92151583526020830191909152604082015260600190565b90815260200190565b9283526001600160a01b03918216602084015216604082015260600190565b9586526001600160a01b0394851660208701529290931660408501526060840152608083019190915260a082015260c00190565b9485526020850193909352604084019190915260608301526001600160a01b0316608082015260a00190565b93845260ff9290921660208401526040830152606082015260800190565b968752602087019590955260408601939093526060850191909152608084015260a083015260c082015260e00190565b9586526020860194909452604085019290925260608401521515608083015260a082015260c00190565b6000602080835283518082850152825b81811015614b5757858101830151858201604001528201614b3b565b81811115614b685783604083870101525b50601f01601f1916929092016040019392505050565b600083825260406020830152611fc760408301846148fb565b60ff91909116815260200190565b6040518181016001600160401b0381118282101715614bc057fe5b604052919050565b60006001600160401b03821115614bdb57fe5b5060209081020190565b6001600160a01b03811681146105e857600080fd5b80151581146105e857600080fd5b600381106105e857600080fdfea2646970667358221220c3f9f572d8ae2abea844b899720d6680dd4d0a64ed30f5b5d0ff5a64188aa52e64736f6c63430007060033",
  "linkReferences": {},
  "deployedLinkReferences": {}
}