{
  "_format": "hh-sol-artifact-1",
  "contractName": "WeightedPool",
  "sourceName": "contracts/NoProtocolFeeLiquidityBootstrappingPoolFactory.sol",
  "abi": [
    {
      "inputs": [
        {
          "internalType": "contract IVault",
          "name": "vault",
          "type": "address"
        },
        {
          "internalType": "string",
          "name": "name",
          "type": "string"
        },
        {
          "internalType": "string",
          "name": "symbol",
          "type": "string"
        },
        {
          "internalType": "contract IERC20[]",
          "name": "tokens",
          "type": "address[]"
        },
        {
          "internalType": "uint256[]",
          "name": "normalizedWeights",
          "type": "uint256[]"
        },
        {
          "internalType": "address[]",
          "name": "assetManagers",
          "type": "address[]"
        },
        {
          "internalType": "uint256",
          "name": "swapFeePercentage",
          "type": "uint256"
        },
        {
          "internalType": "uint256",
          "name": "pauseWindowDuration",
          "type": "uint256"
        },
        {
          "internalType": "uint256",
          "name": "bufferPeriodDuration",
          "type": "uint256"
        },
        {
          "internalType": "address",
          "name": "owner",
          "type": "address"
        }
      ],
      "stateMutability": "nonpayable",
      "type": "constructor"
    },
    {
      "anonymous": false,
      "inputs": [
        {
          "indexed": true,
          "internalType": "address",
          "name": "owner",
          "type": "address"
        },
        {
          "indexed": true,
          "internalType": "address",
          "name": "spender",
          "type": "address"
        },
        {
          "indexed": false,
          "internalType": "uint256",
          "name": "value",
          "type": "uint256"
        }
      ],
      "name": "Approval",
      "type": "event"
    },
    {
      "anonymous": false,
      "inputs": [
        {
          "indexed": false,
          "internalType": "bool",
          "name": "paused",
          "type": "bool"
        }
      ],
      "name": "PausedStateChanged",
      "type": "event"
    },
    {
      "anonymous": false,
      "inputs": [
        {
          "indexed": false,
          "internalType": "uint256",
          "name": "swapFeePercentage",
          "type": "uint256"
        }
      ],
      "name": "SwapFeePercentageChanged",
      "type": "event"
    },
    {
      "anonymous": false,
      "inputs": [
        {
          "indexed": true,
          "internalType": "address",
          "name": "from",
          "type": "address"
        },
        {
          "indexed": true,
          "internalType": "address",
          "name": "to",
          "type": "address"
        },
        {
          "indexed": false,
          "internalType": "uint256",
          "name": "value",
          "type": "uint256"
        }
      ],
      "name": "Transfer",
      "type": "event"
    },
    {
      "inputs": [],
      "name": "DOMAIN_SEPARATOR",
      "outputs": [
        {
          "internalType": "bytes32",
          "name": "",
          "type": "bytes32"
        }
      ],
      "stateMutability": "view",
      "type": "function"
    },
    {
      "inputs": [
        {
          "internalType": "address",
          "name": "owner",
          "type": "address"
        },
        {
          "internalType": "address",
          "name": "spender",
          "type": "address"
        }
      ],
      "name": "allowance",
      "outputs": [
        {
          "internalType": "uint256",
          "name": "",
          "type": "uint256"
        }
      ],
      "stateMutability": "view",
      "type": "function"
    },
    {
      "inputs": [
        {
          "internalType": "address",
          "name": "spender",
          "type": "address"
        },
        {
          "internalType": "uint256",
          "name": "amount",
          "type": "uint256"
        }
      ],
      "name": "approve",
      "outputs": [
        {
          "internalType": "bool",
          "name": "",
          "type": "bool"
        }
      ],
      "stateMutability": "nonpayable",
      "type": "function"
    },
    {
      "inputs": [
        {
          "internalType": "address",
          "name": "account",
          "type": "address"
        }
      ],
      "name": "balanceOf",
      "outputs": [
        {
          "internalType": "uint256",
          "name": "",
          "type": "uint256"
        }
      ],
      "stateMutability": "view",
      "type": "function"
    },
    {
      "inputs": [],
      "name": "decimals",
      "outputs": [
        {
          "internalType": "uint8",
          "name": "",
          "type": "uint8"
        }
      ],
      "stateMutability": "view",
      "type": "function"
    },
    {
      "inputs": [
        {
          "internalType": "address",
          "name": "spender",
          "type": "address"
        },
        {
          "internalType": "uint256",
          "name": "amount",
          "type": "uint256"
        }
      ],
      "name": "decreaseAllowance",
      "outputs": [
        {
          "internalType": "bool",
          "name": "",
          "type": "bool"
        }
      ],
      "stateMutability": "nonpayable",
      "type": "function"
    },
    {
      "inputs": [
        {
          "internalType": "bytes4",
          "name": "selector",
          "type": "bytes4"
        }
      ],
      "name": "getActionId",
      "outputs": [
        {
          "internalType": "bytes32",
          "name": "",
          "type": "bytes32"
        }
      ],
      "stateMutability": "view",
      "type": "function"
    },
    {
      "inputs": [],
      "name": "getAuthorizer",
      "outputs": [
        {
          "internalType": "contract IAuthorizer",
          "name": "",
          "type": "address"
        }
      ],
      "stateMutability": "view",
      "type": "function"
    },
    {
      "inputs": [],
      "name": "getInvariant",
      "outputs": [
        {
          "internalType": "uint256",
          "name": "",
          "type": "uint256"
        }
      ],
      "stateMutability": "view",
      "type": "function"
    },
    {
      "inputs": [],
      "name": "getLastInvariant",
      "outputs": [
        {
          "internalType": "uint256",
          "name": "",
          "type": "uint256"
        }
      ],
      "stateMutability": "view",
      "type": "function"
    },
    {
      "inputs": [],
      "name": "getNormalizedWeights",
      "outputs": [
        {
          "internalType": "uint256[]",
          "name": "",
          "type": "uint256[]"
        }
      ],
      "stateMutability": "view",
      "type": "function"
    },
    {
      "inputs": [],
      "name": "getOwner",
      "outputs": [
        {
          "internalType": "address",
          "name": "",
          "type": "address"
        }
      ],
      "stateMutability": "view",
      "type": "function"
    },
    {
      "inputs": [],
      "name": "getPausedState",
      "outputs": [
        {
          "internalType": "bool",
          "name": "paused",
          "type": "bool"
        },
        {
          "internalType": "uint256",
          "name": "pauseWindowEndTime",
          "type": "uint256"
        },
        {
          "internalType": "uint256",
          "name": "bufferPeriodEndTime",
          "type": "uint256"
        }
      ],
      "stateMutability": "view",
      "type": "function"
    },
    {
      "inputs": [],
      "name": "getPoolId",
      "outputs": [
        {
          "internalType": "bytes32",
          "name": "",
          "type": "bytes32"
        }
      ],
      "stateMutability": "view",
      "type": "function"
    },
    {
      "inputs": [],
      "name": "getRate",
      "outputs": [
        {
          "internalType": "uint256",
          "name": "",
          "type": "uint256"
        }
      ],
      "stateMutability": "view",
      "type": "function"
    },
    {
      "inputs": [],
      "name": "getScalingFactors",
      "outputs": [
        {
          "internalType": "uint256[]",
          "name": "",
          "type": "uint256[]"
        }
      ],
      "stateMutability": "view",
      "type": "function"
    },
    {
      "inputs": [],
      "name": "getSwapFeePercentage",
      "outputs": [
        {
          "internalType": "uint256",
          "name": "",
          "type": "uint256"
        }
      ],
      "stateMutability": "view",
      "type": "function"
    },
    {
      "inputs": [],
      "name": "getVault",
      "outputs": [
        {
          "internalType": "contract IVault",
          "name": "",
          "type": "address"
        }
      ],
      "stateMutability": "view",
      "type": "function"
    },
    {
      "inputs": [
        {
          "internalType": "address",
          "name": "spender",
          "type": "address"
        },
        {
          "internalType": "uint256",
          "name": "addedValue",
          "type": "uint256"
        }
      ],
      "name": "increaseAllowance",
      "outputs": [
        {
          "internalType": "bool",
          "name": "",
          "type": "bool"
        }
      ],
      "stateMutability": "nonpayable",
      "type": "function"
    },
    {
      "inputs": [],
      "name": "name",
      "outputs": [
        {
          "internalType": "string",
          "name": "",
          "type": "string"
        }
      ],
      "stateMutability": "view",
      "type": "function"
    },
    {
      "inputs": [
        {
          "internalType": "address",
          "name": "owner",
          "type": "address"
        }
      ],
      "name": "nonces",
      "outputs": [
        {
          "internalType": "uint256",
          "name": "",
          "type": "uint256"
        }
      ],
      "stateMutability": "view",
      "type": "function"
    },
    {
      "inputs": [
        {
          "internalType": "bytes32",
          "name": "poolId",
          "type": "bytes32"
        },
        {
          "internalType": "address",
          "name": "sender",
          "type": "address"
        },
        {
          "internalType": "address",
          "name": "recipient",
          "type": "address"
        },
        {
          "internalType": "uint256[]",
          "name": "balances",
          "type": "uint256[]"
        },
        {
          "internalType": "uint256",
          "name": "lastChangeBlock",
          "type": "uint256"
        },
        {
          "internalType": "uint256",
          "name": "protocolSwapFeePercentage",
          "type": "uint256"
        },
        {
          "internalType": "bytes",
          "name": "userData",
          "type": "bytes"
        }
      ],
      "name": "onExitPool",
      "outputs": [
        {
          "internalType": "uint256[]",
          "name": "",
          "type": "uint256[]"
        },
        {
          "internalType": "uint256[]",
          "name": "",
          "type": "uint256[]"
        }
      ],
      "stateMutability": "nonpayable",
      "type": "function"
    },
    {
      "inputs": [
        {
          "internalType": "bytes32",
          "name": "poolId",
          "type": "bytes32"
        },
        {
          "internalType": "address",
          "name": "sender",
          "type": "address"
        },
        {
          "internalType": "address",
          "name": "recipient",
          "type": "address"
        },
        {
          "internalType": "uint256[]",
          "name": "balances",
          "type": "uint256[]"
        },
        {
          "internalType": "uint256",
          "name": "lastChangeBlock",
          "type": "uint256"
        },
        {
          "internalType": "uint256",
          "name": "protocolSwapFeePercentage",
          "type": "uint256"
        },
        {
          "internalType": "bytes",
          "name": "userData",
          "type": "bytes"
        }
      ],
      "name": "onJoinPool",
      "outputs": [
        {
          "internalType": "uint256[]",
          "name": "",
          "type": "uint256[]"
        },
        {
          "internalType": "uint256[]",
          "name": "",
          "type": "uint256[]"
        }
      ],
      "stateMutability": "nonpayable",
      "type": "function"
    },
    {
      "inputs": [
        {
          "components": [
            {
              "internalType": "enum IVault.SwapKind",
              "name": "kind",
              "type": "uint8"
            },
            {
              "internalType": "contract IERC20",
              "name": "tokenIn",
              "type": "address"
            },
            {
              "internalType": "contract IERC20",
              "name": "tokenOut",
              "type": "address"
            },
            {
              "internalType": "uint256",
              "name": "amount",
              "type": "uint256"
            },
            {
              "internalType": "bytes32",
              "name": "poolId",
              "type": "bytes32"
            },
            {
              "internalType": "uint256",
              "name": "lastChangeBlock",
              "type": "uint256"
            },
            {
              "internalType": "address",
              "name": "from",
              "type": "address"
            },
            {
              "internalType": "address",
              "name": "to",
              "type": "address"
            },
            {
              "internalType": "bytes",
              "name": "userData",
              "type": "bytes"
            }
          ],
          "internalType": "struct IPoolSwapStructs.SwapRequest",
          "name": "request",
          "type": "tuple"
        },
        {
          "internalType": "uint256",
          "name": "balanceTokenIn",
          "type": "uint256"
        },
        {
          "internalType": "uint256",
          "name": "balanceTokenOut",
          "type": "uint256"
        }
      ],
      "name": "onSwap",
      "outputs": [
        {
          "internalType": "uint256",
          "name": "",
          "type": "uint256"
        }
      ],
      "stateMutability": "nonpayable",
      "type": "function"
    },
    {
      "inputs": [
        {
          "internalType": "address",
          "name": "owner",
          "type": "address"
        },
        {
          "internalType": "address",
          "name": "spender",
          "type": "address"
        },
        {
          "internalType": "uint256",
          "name": "value",
          "type": "uint256"
        },
        {
          "internalType": "uint256",
          "name": "deadline",
          "type": "uint256"
        },
        {
          "internalType": "uint8",
          "name": "v",
          "type": "uint8"
        },
        {
          "internalType": "bytes32",
          "name": "r",
          "type": "bytes32"
        },
        {
          "internalType": "bytes32",
          "name": "s",
          "type": "bytes32"
        }
      ],
      "name": "permit",
      "outputs": [],
      "stateMutability": "nonpayable",
      "type": "function"
    },
    {
      "inputs": [
        {
          "internalType": "bytes32",
          "name": "poolId",
          "type": "bytes32"
        },
        {
          "internalType": "address",
          "name": "sender",
          "type": "address"
        },
        {
          "internalType": "address",
          "name": "recipient",
          "type": "address"
        },
        {
          "internalType": "uint256[]",
          "name": "balances",
          "type": "uint256[]"
        },
        {
          "internalType": "uint256",
          "name": "lastChangeBlock",
          "type": "uint256"
        },
        {
          "internalType": "uint256",
          "name": "protocolSwapFeePercentage",
          "type": "uint256"
        },
        {
          "internalType": "bytes",
          "name": "userData",
          "type": "bytes"
        }
      ],
      "name": "queryExit",
      "outputs": [
        {
          "internalType": "uint256",
          "name": "bptIn",
          "type": "uint256"
        },
        {
          "internalType": "uint256[]",
          "name": "amountsOut",
          "type": "uint256[]"
        }
      ],
      "stateMutability": "nonpayable",
      "type": "function"
    },
    {
      "inputs": [
        {
          "internalType": "bytes32",
          "name": "poolId",
          "type": "bytes32"
        },
        {
          "internalType": "address",
          "name": "sender",
          "type": "address"
        },
        {
          "internalType": "address",
          "name": "recipient",
          "type": "address"
        },
        {
          "internalType": "uint256[]",
          "name": "balances",
          "type": "uint256[]"
        },
        {
          "internalType": "uint256",
          "name": "lastChangeBlock",
          "type": "uint256"
        },
        {
          "internalType": "uint256",
          "name": "protocolSwapFeePercentage",
          "type": "uint256"
        },
        {
          "internalType": "bytes",
          "name": "userData",
          "type": "bytes"
        }
      ],
      "name": "queryJoin",
      "outputs": [
        {
          "internalType": "uint256",
          "name": "bptOut",
          "type": "uint256"
        },
        {
          "internalType": "uint256[]",
          "name": "amountsIn",
          "type": "uint256[]"
        }
      ],
      "stateMutability": "nonpayable",
      "type": "function"
    },
    {
      "inputs": [
        {
          "internalType": "contract IERC20",
          "name": "token",
          "type": "address"
        },
        {
          "internalType": "bytes",
          "name": "poolConfig",
          "type": "bytes"
        }
      ],
      "name": "setAssetManagerPoolConfig",
      "outputs": [],
      "stateMutability": "nonpayable",
      "type": "function"
    },
    {
      "inputs": [
        {
          "internalType": "bool",
          "name": "paused",
          "type": "bool"
        }
      ],
      "name": "setPaused",
      "outputs": [],
      "stateMutability": "nonpayable",
      "type": "function"
    },
    {
      "inputs": [
        {
          "internalType": "uint256",
          "name": "swapFeePercentage",
          "type": "uint256"
        }
      ],
      "name": "setSwapFeePercentage",
      "outputs": [],
      "stateMutability": "nonpayable",
      "type": "function"
    },
    {
      "inputs": [],
      "name": "symbol",
      "outputs": [
        {
          "internalType": "string",
          "name": "",
          "type": "string"
        }
      ],
      "stateMutability": "view",
      "type": "function"
    },
    {
      "inputs": [],
      "name": "totalSupply",
      "outputs": [
        {
          "internalType": "uint256",
          "name": "",
          "type": "uint256"
        }
      ],
      "stateMutability": "view",
      "type": "function"
    },
    {
      "inputs": [
        {
          "internalType": "address",
          "name": "recipient",
          "type": "address"
        },
        {
          "internalType": "uint256",
          "name": "amount",
          "type": "uint256"
        }
      ],
      "name": "transfer",
      "outputs": [
        {
          "internalType": "bool",
          "name": "",
          "type": "bool"
        }
      ],
      "stateMutability": "nonpayable",
      "type": "function"
    },
    {
      "inputs": [
        {
          "internalType": "address",
          "name": "sender",
          "type": "address"
        },
        {
          "internalType": "address",
          "name": "recipient",
          "type": "address"
        },
        {
          "internalType": "uint256",
          "name": "amount",
          "type": "uint256"
        }
      ],
      "name": "transferFrom",
      "outputs": [
        {
          "internalType": "bool",
          "name": "",
          "type": "bool"
        }
      ],
      "stateMutability": "nonpayable",
      "type": "function"
    }
  ],
  "bytecode": "0x6109806040527f6e71edae12b1b97f4d1f60370fef10105fa2faae0126114a169c64845d6126c9610120523480156200003757600080fd5b5060405162007332380380620073328339810160408190526200005a91620013e8565b8989898988888888888886516002146200007657600162000079565b60025b8989898989898989828289898180604051806040016040528060018152602001603160f81b815250848489336001600160a01b031660001b806080818152505050806001600160a01b031660a0816001600160a01b031660601b81525050508160039080519060200190620000f092919062001141565b5080516200010690600490602084019062001141565b50506005805460ff1916601217905550815160209283012060c052805191012060e05250507f8b73c3c69bb8fe3d512ecc4cf759cc79239f7b179b0ffacaa9a75d522b39400f6101005250620001656276a70083111561019462000ea7565b6200017962278d0082111561019562000ea7565b42909101610140819052016101605285516200019b906002111560c862000ea7565b620001b5620001a962000ebc565b8751111560c962000ea7565b620001cb8662000ec160201b62000d5c1760201c565b620001d68462000ecd565b6040516309b2760f60e01b81526000906001600160a01b038c16906309b2760f9062000207908d90600401620015c5565b602060405180830381600087803b1580156200022257600080fd5b505af115801562000237573d6000803e3d6000fd5b505050506040513d601f19601f820116820180604052508101906200025d9190620013cf565b604051633354e3e960e11b81529091506001600160a01b038c16906366a9c7d290620002929084908b908b906004016200152b565b600060405180830381600087803b158015620002ad57600080fd5b505af1158015620002c2573d6000803e3d6000fd5b505050508a6001600160a01b0316610180816001600160a01b031660601b81525050806101a0818152505050505050505050505050505050505050505050506000875190506200031f81885162000f5960201b62000d661760201c565b6101c081905260008080805b848160ff161015620003aa5760008b8260ff16815181106200034957fe5b6020026020010151905062000371662386f26fc1000082101561012e62000ea760201b60201c565b6200038b818662000f6860201b62000d731790919060201c565b945082811115620003a0578160ff1693508092505b506001016200032b565b50620003c3670de0b6b3a7640000841461013462000ea7565b6106e082905289518a90600090620003d757fe5b6020026020010151610700818152505089600181518110620003f557fe5b6020026020010151610720818152505060028411620004165760006200042d565b896002815181106200042457fe5b60200260200101515b61074052600384116200044257600062000459565b896003815181106200045057fe5b60200260200101515b61076052600484116200046e57600062000485565b896004815181106200047c57fe5b60200260200101515b61078052600584116200049a576000620004b1565b89600581518110620004a857fe5b60200260200101515b6107a05260068411620004c6576000620004dd565b89600681518110620004d457fe5b60200260200101515b6107c05260078411620004f257600062000509565b896007815181106200050057fe5b60200260200101515b6107e052600884116200051e57600062000535565b896008815181106200052c57fe5b60200260200101515b61080052600984116200054a57600062000561565b896009815181106200055857fe5b60200260200101515b61082052600a8411620005765760006200058d565b89600a815181106200058457fe5b60200260200101515b61084052600b8411620005a2576000620005b9565b89600b81518110620005b057fe5b60200260200101515b61086052600c8411620005ce576000620005e5565b89600c81518110620005dc57fe5b60200260200101515b61088052600d8411620005fa57600062000611565b89600d815181106200060857fe5b60200260200101515b6108a052600e8411620006265760006200063d565b89600e815181106200063457fe5b60200260200101515b6108c052600f84116200065257600062000669565b89600f815181106200066057fe5b60200260200101515b6108e052601084116200067e57600062000695565b896010815181106200068c57fe5b60200260200101515b6109005260118411620006aa576000620006c1565b89601181518110620006b857fe5b60200260200101515b6109205260128411620006d6576000620006ed565b89601281518110620006e457fe5b60200260200101515b61094052601384116200070257600062000719565b896013815181106200071057fe5b60200260200101515b610960528a518b906000906200072b57fe5b60200260200101516001600160a01b03166101e0816001600160a01b031660601b815250508a6001815181106200075e57fe5b60200260200101516001600160a01b0316610200816001600160a01b031660601b815250506002841162000794576000620007ab565b8a600281518110620007a257fe5b60200260200101515b60601b6001600160601b0319166102205260038411620007cd576000620007e4565b8a600381518110620007db57fe5b60200260200101515b60601b6001600160601b0319166102405260048411620008065760006200081d565b8a6004815181106200081457fe5b60200260200101515b60601b6001600160601b03191661026052600584116200083f57600062000856565b8a6005815181106200084d57fe5b60200260200101515b60601b6001600160601b0319166102805260068411620008785760006200088f565b8a6006815181106200088657fe5b60200260200101515b60601b6001600160601b0319166102a05260078411620008b1576000620008c8565b8a600781518110620008bf57fe5b60200260200101515b60601b6001600160601b0319166102c05260088411620008ea57600062000901565b8a600881518110620008f857fe5b60200260200101515b60601b6001600160601b0319166102e05260098411620009235760006200093a565b8a6009815181106200093157fe5b60200260200101515b60601b6001600160601b03191661030052600a84116200095c57600062000973565b8a600a815181106200096a57fe5b60200260200101515b60601b6001600160601b03191661032052600b841162000995576000620009ac565b8a600b81518110620009a357fe5b60200260200101515b60601b6001600160601b03191661034052600c8411620009ce576000620009e5565b8a600c81518110620009dc57fe5b60200260200101515b60601b6001600160601b03191661036052600d841162000a0757600062000a1e565b8a600d8151811062000a1557fe5b60200260200101515b60601b6001600160601b03191661038052600e841162000a4057600062000a57565b8a600e8151811062000a4e57fe5b60200260200101515b60601b6001600160601b0319166103a052600f841162000a7957600062000a90565b8a600f8151811062000a8757fe5b60200260200101515b60601b6001600160601b0319166103c0526010841162000ab257600062000ac9565b8a60108151811062000ac057fe5b60200260200101515b60601b6001600160601b0319166103e0526011841162000aeb57600062000b02565b8a60118151811062000af957fe5b60200260200101515b60601b6001600160601b031916610400526012841162000b2457600062000b3b565b8a60128151811062000b3257fe5b60200260200101515b60601b6001600160601b031916610420526013841162000b5d57600062000b74565b8a60138151811062000b6b57fe5b60200260200101515b6001600160a01b0316610440816001600160a01b031660601b8152505062000bb78b60008151811062000ba357fe5b602002602001015162000f8360201b60201c565b610460528a5162000bd0908c90600190811062000ba357fe5b610480526002841162000be557600062000bf7565b62000bf78b60028151811062000ba357fe5b6104a0526003841162000c0c57600062000c1e565b62000c1e8b60038151811062000ba357fe5b6104c0526004841162000c3357600062000c45565b62000c458b60048151811062000ba357fe5b6104e0526005841162000c5a57600062000c6c565b62000c6c8b60058151811062000ba357fe5b610500526006841162000c8157600062000c93565b62000c938b60068151811062000ba357fe5b610520526007841162000ca857600062000cba565b62000cba8b60078151811062000ba357fe5b610540526008841162000ccf57600062000ce1565b62000ce18b60088151811062000ba357fe5b610560526009841162000cf657600062000d08565b62000d088b60098151811062000ba357fe5b61058052600a841162000d1d57600062000d2f565b62000d2f8b600a8151811062000ba357fe5b6105a052600b841162000d4457600062000d56565b62000d568b600b8151811062000ba357fe5b6105c052600c841162000d6b57600062000d7d565b62000d7d8b600c8151811062000ba357fe5b6105e052600d841162000d9257600062000da4565b62000da48b600d8151811062000ba357fe5b61060052600e841162000db957600062000dcb565b62000dcb8b600e8151811062000ba357fe5b61062052600f841162000de057600062000df2565b62000df28b600f8151811062000ba357fe5b610640526010841162000e0757600062000e19565b62000e198b60108151811062000ba357fe5b610660526011841162000e2e57600062000e40565b62000e408b60118151811062000ba357fe5b610680526012841162000e5557600062000e67565b62000e678b60128151811062000ba357fe5b6106a0526013841162000e7c57600062000e8e565b62000e8e8b60138151811062000ba357fe5b6106c052506200163b9c50505050505050505050505050565b8162000eb85762000eb88162001034565b5050565b601490565b8062000eb88162001087565b62000ee264e8d4a5100082101560cb62000ea7565b62000efa67016345785d8a000082111560ca62000ea7565b62000f198160c06008546200111460201b62000d85179092919060201c565b6008556040517fa9ba3ffe0b6c366b81232caab38605a0699ad5398d6cce76f91ee809e322dafc9062000f4e908390620015da565b60405180910390a150565b62000eb8828214606762000ea7565b600082820162000f7c848210158362000ea7565b9392505050565b600080826001600160a01b031663313ce5676040518163ffffffff1660e01b815260040160206040518083038186803b15801562000fc057600080fd5b505afa15801562000fd5573d6000803e3d6000fd5b505050506040513d601f19601f8201168201806040525081019062000ffb919062001508565b60ff16905060006200101a6012836200112960201b62000d9a1760201c565b905080600a0a670de0b6b3a764000002925050505b919050565b62461bcd60e51b6000908152602060045260076024526642414c23000030600a808404818106603090810160081b95839006959095019082900491820690940160101b939093010160c81b604452606490fd5b600281511015620010985762001111565b600081600081518110620010a857fe5b602002602001015190506000600190505b82518110156200110e576000838281518110620010d257fe5b6020026020010151905062001103816001600160a01b0316846001600160a01b031610606562000ea760201b60201c565b9150600101620010b9565b50505b50565b6001600160401b03811b1992909216911b1790565b60006200113b83831115600162000ea7565b50900390565b828054600181600116156101000203166002900490600052602060002090601f016020900481019282620011795760008555620011c4565b82601f106200119457805160ff1916838001178555620011c4565b82800160010185558215620011c4579182015b82811115620011c4578251825591602001919060010190620011a7565b50620011d2929150620011d6565b5090565b5b80821115620011d25760008155600101620011d7565b80516200102f8162001625565b600082601f8301126200120b578081fd5b81516020620012246200121e8362001607565b620015e3565b828152818101908583018385028701840188101562001241578586fd5b855b858110156200126c578151620012598162001625565b8452928401929084019060010162001243565b5090979650505050505050565b600082601f8301126200128a578081fd5b815160206200129d6200121e8362001607565b8281528181019085830183850287018401881015620012ba578586fd5b855b858110156200126c578151620012d28162001625565b84529284019290840190600101620012bc565b600082601f830112620012f6578081fd5b81516020620013096200121e8362001607565b828152818101908583018385028701840188101562001326578586fd5b855b858110156200126c5781518452928401929084019060010162001328565b600082601f83011262001357578081fd5b81516001600160401b038111156200136b57fe5b602062001381601f8301601f19168201620015e3565b828152858284870101111562001395578384fd5b835b83811015620013b457858101830151828201840152820162001397565b83811115620013c557848385840101525b5095945050505050565b600060208284031215620013e1578081fd5b5051919050565b6000806000806000806000806000806101408b8d03121562001408578586fd5b620014138b620011ed565b60208c0151909a506001600160401b038082111562001430578788fd5b6200143e8e838f0162001346565b9a5060408d015191508082111562001454578788fd5b620014628e838f0162001346565b995060608d015191508082111562001478578788fd5b620014868e838f0162001279565b985060808d01519150808211156200149c578788fd5b620014aa8e838f01620012e5565b975060a08d0151915080821115620014c0578687fd5b50620014cf8d828e01620011fa565b95505060c08b0151935060e08b015192506101008b01519150620014f76101208c01620011ed565b90509295989b9194979a5092959850565b6000602082840312156200151a578081fd5b815160ff8116811462000f7c578182fd5b60006060820185835260206060818501528186518084526080860191508288019350845b81811015620015765784516001600160a01b0316835293830193918301916001016200154f565b505084810360408601528551808252908201925081860190845b81811015620015b75782516001600160a01b03168552938301939183019160010162001590565b509298975050505050505050565b6020810160038310620015d457fe5b91905290565b90815260200190565b6040518181016001600160401b0381118282101715620015ff57fe5b604052919050565b60006001600160401b038211156200161b57fe5b5060209081020190565b6001600160a01b03811681146200111157600080fd5b60805160a05160601c60c05160e051610100516101205161014051610160516101805160601c6101a0516101c0516101e05160601c6102005160601c6102205160601c6102405160601c6102605160601c6102805160601c6102a05160601c6102c05160601c6102e05160601c6103005160601c6103205160601c6103405160601c6103605160601c6103805160601c6103a05160601c6103c05160601c6103e05160601c6104005160601c6104205160601c6104405160601c61046051610480516104a0516104c0516104e05161050051610520516105405161056051610580516105a0516105c0516105e05161060051610620516106405161066051610680516106a0516106c0516106e05161070051610720516107405161076051610780516107a0516107c0516107e05161080051610820516108405161086051610880516108a0516108c0516108e051610900516109205161094051610960516158ab62001a8760003980612bbc528061389e525080612b79528061383d525080612b3652806137dc525080612af3528061377b525080612ab0528061371a525080612a6d52806136b9525080612a2a52806136585250806129e752806135f75250806129a45280613596525080612961528061353552508061291e52806134d45250806128db5280613473525080612898528061341252508061285552806133b152508061281252806133505250806127cf52806132ef52508061278c528061328e525080612749528061322d52508061270652806131cc5250806126c3528061316b52508061251052508061148b528061237f525080611448528061231e52508061140552806122bd5250806113c2528061225c52508061137f52806121fb52508061133c528061219a5250806112f952806121395250806112b652806120d8525080611273528061207752508061123052806120165250806111ed5280611fb55250806111aa5280611f545250806111675280611ef35250806111245280611e925250806110e15280611e3152508061109e5280611dd052508061105b5280611d6f5250806110185280611d0e525080610fd55280611cad525080610f845280611c4c52508061234452806138635250806122e3528061380252508061228252806137a152508061222152806137405250806121c052806136df52508061215f528061367e5250806120fe528061361d52508061209d52806135bc52508061203c528061355b525080611fdb52806134fa525080611f7a5280613499525080611f195280613438525080611eb852806133d7525080611e575280613376525080611df65280613315525080611d9552806132b4525080611d345280613253525080611cd352806131f2525080611c725280613191525080611c1152806131305250806117d05250806105c9525080610832525080610f07525080610ee3525080610af05250806115a95250806115eb5250806115ca52508061080e52508061079852506158ab6000f3fe608060405234801561001057600080fd5b50600436106101c65760003560e01c806374f3b009116100fa5780639d2c110c1161009d5780639d2c110c1461039b578063a457c2d7146103ae578063a9059cbb146103c1578063aaabadc5146103d4578063c0ff1a15146103dc578063d505accf146103e4578063d5c096c4146103f7578063dd62ed3e1461040a578063f89f27ed1461041d576101c6565b806374f3b009146103145780637ecebe0014610335578063851c1bb31461034857806387ec68171461035b578063893d20e81461036e5780638d928af81461038357806395d89b411461038b5780639b02cdde14610393576101c6565b80633644e5151161016d5780633644e5151461028757806338e9922e1461028f57806338fff2d0146102a257806339509351146102aa57806350dd6ed9146102bd57806355c67628146102d05780636028bfd4146102d8578063679aefce146102f957806370a0823114610301576101c6565b806306fdde03146101cb578063095ea7b3146101e957806316c38b3c1461020957806318160ddd1461021e5780631c0de051146102335780631dd746ea1461024a57806323b872dd1461025f578063313ce56714610272575b600080fd5b6101d3610425565b6040516101e091906157ab565b60405180910390f35b6101fc6101f736600461508c565b6104bc565b6040516101e091906156b2565b61021c610217366004615182565b6104d3565b005b6102266104e7565b6040516101e091906156d5565b61023b6104ed565b6040516101e0939291906156bd565b610252610516565b6040516101e0919061567a565b6101fc61026d366004614fd7565b610525565b61027a61059b565b6040516101e091906157d7565b6102266105a4565b61021c61029d366004615546565b6105ae565b6102266105c7565b6101fc6102b836600461508c565b6105eb565b61021c6102cb3660046152fa565b610626565b610226610644565b6102eb6102e63660046151ba565b610655565b6040516101e09291906157be565b61022661068c565b61022661030f366004614f83565b6106b7565b6103276103223660046151ba565b6106d6565b6040516101e092919061568d565b610226610343366004614f83565b610779565b6102266103563660046152b6565b610794565b6102eb6103693660046151ba565b6107e6565b61037661080c565b6040516101e09190615666565b610376610830565b6101d3610854565b6102266108b5565b6102266103a9366004615450565b6108bb565b6101fc6103bc36600461508c565b6109a2565b6101fc6103cf36600461508c565b6109e0565b6103766109ed565b6102266109f7565b61021c6103f2366004615017565b610abb565b6103276104053660046151ba565b610c04565b610226610418366004614f9f565b610d27565b610252610d52565b60038054604080516020601f60026000196101006001881615020190951694909404938401819004810282018101909252828152606093909290918301828280156104b15780601f10610486576101008083540402835291602001916104b1565b820191906000526020600020905b81548152906001019060200180831161049457829003601f168201915b505050505090505b90565b60006104c9338484610db0565b5060015b92915050565b6104db610e18565b6104e481610e46565b50565b60025490565b60008060006104fa610ec4565b159250610505610ee1565b915061050f610f05565b9050909192565b6060610520610f29565b905090565b6000806105328533610d27565b9050610556336001600160a01b038716148061054e5750838210155b61019e6114c9565b6105618585856114d7565b336001600160a01b0386161480159061057c57506000198114155b1561058e5761058e8533858403610db0565b60019150505b9392505050565b60055460ff1690565b60006105206115a5565b6105b6610e18565b6105be611642565b6104e481611657565b7f000000000000000000000000000000000000000000000000000000000000000090565b3360008181526001602090815260408083206001600160a01b038716845290915281205490916104c99185906106219086610d73565b610db0565b61062e610e18565b610636611642565b61064082826116c2565b5050565b6008546000906105209060c06117c1565b6000606061066b86516106666117ce565b610d66565b610680898989898989896117f26118c0611926565b97509795505050505050565b60006105206106996104e7565b6106b16106a46109f7565b6106ac6117ce565b611a48565b90611a6c565b6001600160a01b0381166000908152602081905260409020545b919050565b606080886107006106e5610830565b6001600160a01b0316336001600160a01b03161460cd6114c9565b61071561070b6105c7565b82146101f46114c9565b600061071f610f29565b905061072b8882611abd565b60008060006107408e8e8e8e8e8e8a8f6117f2565b9250925092506107508d84611b1e565b61075a82856118c0565b61076481856118c0565b909550935050505b5097509795505050505050565b6001600160a01b031660009081526006602052604090205490565b60007f0000000000000000000000000000000000000000000000000000000000000000826040516020016107c9929190615623565b604051602081830303815290604052805190602001209050919050565b600060606107f786516106666117ce565b61068089898989898989611b28611bac611926565b7f000000000000000000000000000000000000000000000000000000000000000090565b7f000000000000000000000000000000000000000000000000000000000000000090565b60048054604080516020601f60026000196101006001881615020190951694909404938401819004810282018101909252828152606093909290918301828280156104b15780601f10610486576101008083540402835291602001916104b1565b60095490565b6000806108cb8560200151611c0d565b905060006108dc8660400151611c0d565b90506000865160018111156108ed57fe5b14156109535761090086606001516123ae565b606087015261090f85836123cf565b945061091b84826123cf565b935061092b8660600151836123cf565b6060870152600061093d8787876123db565b90506109498183612416565b9350505050610594565b61095d85836123cf565b945061096984826123cf565b93506109798660600151826123cf565b6060870152600061098b878787612422565b90506109978184612455565b905061094981612461565b6000806109af3385610d27565b90508083106109c9576109c433856000610db0565b6109d6565b6109d63385858403610db0565b5060019392505050565b60006104c93384846114d7565b6000610520612487565b600080610a02610830565b6001600160a01b031663f94d4668610a186105c7565b6040518263ffffffff1660e01b8152600401610a3491906156d5565b60006040518083038186803b158015610a4c57600080fd5b505afa158015610a60573d6000803e3d6000fd5b505050506040513d6000823e601f3d908101601f19168201604052610a8891908101906150b7565b50915050610a9d81610a98610f29565b611abd565b6000610aa7612501565b509050610ab48183612535565b9250505090565b610ac98442111560d16114c9565b6001600160a01b0387166000908152600660209081526040808320549051909291610b20917f0000000000000000000000000000000000000000000000000000000000000000918c918c918c9188918d91016156fd565b6040516020818303038152906040528051906020012090506000610b43826125a7565b9050600060018288888860405160008152602001604052604051610b6a949392919061578d565b6020604051602081039080840390855afa158015610b8c573d6000803e3d6000fd5b5050604051601f1901519150610bce90506001600160a01b03821615801590610bc657508b6001600160a01b0316826001600160a01b0316145b6101f86114c9565b6001600160a01b038b166000908152600660205260409020600185019055610bf78b8b8b610db0565b5050505050505050505050565b60608088610c136106e5610830565b610c1e61070b6105c7565b6000610c28610f29565b9050610c326104e7565b610cd757600080610c468d8d8d868b6125c3565b91509150610c5b620f424083101560cc6114c9565b610c696000620f424061265e565b610c788b620f4240840361265e565b610c828184611bac565b80610c8b6117ce565b6001600160401b0381118015610ca057600080fd5b50604051908082528060200260200182016040528015610cca578160200160208202803683370190505b509550955050505061076c565b610ce18882611abd565b6000806000610cf68e8e8e8e8e8e8a8f611b28565b925092509250610d068c8461265e565b610d108285611bac565b610d1a81856118c0565b909550935061076c915050565b6001600160a01b03918216600090815260016020908152604080832093909416825291909152205490565b6060610520612668565b8061064081612be8565b61064081831460676114c9565b600082820161059484821015836114c9565b6001600160401b03811b1992909216911b1790565b6000610daa8383111560016114c9565b50900390565b6001600160a01b0380841660008181526001602090815260408083209487168084529490915290819020849055517f8c5be1e5ebec7d5bd14f71427d1e84f3dd0314c0f7b2291e5b200ac8c7c3b92590610e0b9085906156d5565b60405180910390a3505050565b6000610e2f6000356001600160e01b031916610794565b90506104e4610e3e8233612c61565b6101916114c9565b8015610e6657610e61610e57610ee1565b42106101936114c9565b610e7b565b610e7b610e71610f05565b42106101a96114c9565b6007805460ff19168215151790556040517f9e3a5e37224532dea67b89face185703738a228a6e8a23dee546960180d3be6490610eb99083906156b2565b60405180910390a150565b6000610ece610f05565b42118061052057505060075460ff161590565b7f000000000000000000000000000000000000000000000000000000000000000090565b7f000000000000000000000000000000000000000000000000000000000000000090565b60606000610f356117ce565b90506000816001600160401b0381118015610f4f57600080fd5b50604051908082528060200260200182016040528015610f79578160200160208202803683370190505b5090508115610fc1577f000000000000000000000000000000000000000000000000000000000000000081600081518110610fb057fe5b602002602001018181525050610fca565b91506104b99050565b6001821115610fc1577f00000000000000000000000000000000000000000000000000000000000000008160018151811061100157fe5b6020026020010181815250506002821115610fc1577f00000000000000000000000000000000000000000000000000000000000000008160028151811061104457fe5b6020026020010181815250506003821115610fc1577f00000000000000000000000000000000000000000000000000000000000000008160038151811061108757fe5b6020026020010181815250506004821115610fc1577f0000000000000000000000000000000000000000000000000000000000000000816004815181106110ca57fe5b6020026020010181815250506005821115610fc1577f00000000000000000000000000000000000000000000000000000000000000008160058151811061110d57fe5b6020026020010181815250506006821115610fc1577f00000000000000000000000000000000000000000000000000000000000000008160068151811061115057fe5b6020026020010181815250506007821115610fc1577f00000000000000000000000000000000000000000000000000000000000000008160078151811061119357fe5b6020026020010181815250506008821115610fc1577f0000000000000000000000000000000000000000000000000000000000000000816008815181106111d657fe5b6020026020010181815250506009821115610fc1577f00000000000000000000000000000000000000000000000000000000000000008160098151811061121957fe5b602002602001018181525050600a821115610fc1577f000000000000000000000000000000000000000000000000000000000000000081600a8151811061125c57fe5b602002602001018181525050600b821115610fc1577f000000000000000000000000000000000000000000000000000000000000000081600b8151811061129f57fe5b602002602001018181525050600c821115610fc1577f000000000000000000000000000000000000000000000000000000000000000081600c815181106112e257fe5b602002602001018181525050600d821115610fc1577f000000000000000000000000000000000000000000000000000000000000000081600d8151811061132557fe5b602002602001018181525050600e821115610fc1577f000000000000000000000000000000000000000000000000000000000000000081600e8151811061136857fe5b602002602001018181525050600f821115610fc1577f000000000000000000000000000000000000000000000000000000000000000081600f815181106113ab57fe5b6020026020010181815250506010821115610fc1577f0000000000000000000000000000000000000000000000000000000000000000816010815181106113ee57fe5b6020026020010181815250506011821115610fc1577f00000000000000000000000000000000000000000000000000000000000000008160118151811061143157fe5b6020026020010181815250506012821115610fc1577f00000000000000000000000000000000000000000000000000000000000000008160128151811061147457fe5b6020026020010181815250506013821115610fc1577f0000000000000000000000000000000000000000000000000000000000000000816013815181106114b757fe5b60200260200101818152505091505090565b816106405761064081612d51565b6114ee6001600160a01b03841615156101986114c9565b6115056001600160a01b03831615156101996114c9565b611510838383611921565b6001600160a01b03831660009081526020819052604090205461153690826101a0612da4565b6001600160a01b0380851660009081526020819052604080822093909355908416815220546115659082610d73565b6001600160a01b03808416600081815260208190526040908190209390935591519085169060008051602061585683398151915290610e0b9085906156d5565b60007f00000000000000000000000000000000000000000000000000000000000000007f00000000000000000000000000000000000000000000000000000000000000007f0000000000000000000000000000000000000000000000000000000000000000611612612dba565b30604051602001611627959493929190615731565b60405160208183030381529060405280519060200120905090565b61165561164d610ec4565b6101926114c9565b565b61166a64e8d4a5100082101560cb6114c9565b61168067016345785d8a000082111560ca6114c9565b60085461168f908260c0610d85565b6008556040517fa9ba3ffe0b6c366b81232caab38605a0699ad5398d6cce76f91ee809e322dafc90610eb99083906156d5565b60006116cc6105c7565b905060006116d8610830565b6001600160a01b031663b05f8e4883866040518363ffffffff1660e01b8152600401611705929190615776565b60806040518083038186803b15801561171d57600080fd5b505afa158015611731573d6000803e3d6000fd5b505050506040513d601f19601f82011682018060405250810190611755919061555e565b604051630639cdb560e21b81529094506001600160a01b03851693506318e736d4925061178991508590879060040161575d565b600060405180830381600087803b1580156117a357600080fd5b505af11580156117b7573d6000803e3d6000fd5b5050505050505050565b1c6001600160401b031690565b7f000000000000000000000000000000000000000000000000000000000000000090565b6000606080600080611802612501565b9150915061180e610ec4565b1561184657600061181f838c612535565b90506118318b8484600954858e612dbe565b93506118408b85610d9a612e6f565b50611891565b61184e6117ce565b6001600160401b038111801561186357600080fd5b5060405190808252806020026020018201604052801561188d578160200160208202803683370190505b5092505b61189d8a838989612eda565b90955093506118ad8a8584612f49565b6009555050985098509895505050505050565b60005b6118cb6117ce565b811015611921576119028382815181106118e157fe5b60200260200101518383815181106118f557fe5b6020026020010151611a6c565b83828151811061190e57fe5b60209081029190910101526001016118c3565b505050565b3330146119e4576000306001600160a01b031660003660405161194a92919061563b565b6000604051808303816000865af19150503d8060008114611987576040519150601f19603f3d011682016040523d82523d6000602084013e61198c565b606091505b50509050806000811461199b57fe5b60046000803e6000516001600160e01b0319166343adbafb60e01b81146119c6573d6000803e3d6000fd5b506020600460003e604060205260243d03602460403e601c3d016000f35b60006119ee610f29565b90506119fa8782611abd565b600080611a118c8c8c8c8c8c898d8d63ffffffff16565b5091509150611a2481848663ffffffff16565b8051601f1982018390526343adbafb603f1983015260200260231982016044820181fd5b6000828202610594841580611a65575083858381611a6257fe5b04145b60036114c9565b6000611a7b82151560046114c9565b82611a88575060006104cd565b670de0b6b3a764000083810290611aab90858381611aa257fe5b041460056114c9565b828181611ab457fe5b049150506104cd565b60005b611ac86117ce565b81101561192157611aff838281518110611ade57fe5b6020026020010151838381518110611af257fe5b6020026020010151612f62565b838281518110611b0b57fe5b6020908102919091010152600101611ac0565b6106408282612f8e565b6000606080611b35611642565b600080611b40612501565b915091506000611b50838c612535565b90506000611b648c8585600954868f612dbe565b9050611b738c82610d9a612e6f565b600080611b828e878d8d613038565b91509150611b918e8288613093565b60095590975095509350505050985098509895505050505050565b60005b611bb76117ce565b81101561192157611bee838281518110611bcd57fe5b6020026020010151838381518110611be157fe5b60200260200101516130a2565b838281518110611bfa57fe5b6020908102919091010152600101611baf565b60007f00000000000000000000000000000000000000000000000000000000000000006001600160a01b0316826001600160a01b03161415611c7057507f00000000000000000000000000000000000000000000000000000000000000006106d1565b7f00000000000000000000000000000000000000000000000000000000000000006001600160a01b0316826001600160a01b03161415611cd157507f00000000000000000000000000000000000000000000000000000000000000006106d1565b7f00000000000000000000000000000000000000000000000000000000000000006001600160a01b0316826001600160a01b03161415611d3257507f00000000000000000000000000000000000000000000000000000000000000006106d1565b7f00000000000000000000000000000000000000000000000000000000000000006001600160a01b0316826001600160a01b03161415611d9357507f00000000000000000000000000000000000000000000000000000000000000006106d1565b7f00000000000000000000000000000000000000000000000000000000000000006001600160a01b0316826001600160a01b03161415611df457507f00000000000000000000000000000000000000000000000000000000000000006106d1565b7f00000000000000000000000000000000000000000000000000000000000000006001600160a01b0316826001600160a01b03161415611e5557507f00000000000000000000000000000000000000000000000000000000000000006106d1565b7f00000000000000000000000000000000000000000000000000000000000000006001600160a01b0316826001600160a01b03161415611eb657507f00000000000000000000000000000000000000000000000000000000000000006106d1565b7f00000000000000000000000000000000000000000000000000000000000000006001600160a01b0316826001600160a01b03161415611f1757507f00000000000000000000000000000000000000000000000000000000000000006106d1565b7f00000000000000000000000000000000000000000000000000000000000000006001600160a01b0316826001600160a01b03161415611f7857507f00000000000000000000000000000000000000000000000000000000000000006106d1565b7f00000000000000000000000000000000000000000000000000000000000000006001600160a01b0316826001600160a01b03161415611fd957507f00000000000000000000000000000000000000000000000000000000000000006106d1565b7f00000000000000000000000000000000000000000000000000000000000000006001600160a01b0316826001600160a01b0316141561203a57507f00000000000000000000000000000000000000000000000000000000000000006106d1565b7f00000000000000000000000000000000000000000000000000000000000000006001600160a01b0316826001600160a01b0316141561209b57507f00000000000000000000000000000000000000000000000000000000000000006106d1565b7f00000000000000000000000000000000000000000000000000000000000000006001600160a01b0316826001600160a01b031614156120fc57507f00000000000000000000000000000000000000000000000000000000000000006106d1565b7f00000000000000000000000000000000000000000000000000000000000000006001600160a01b0316826001600160a01b0316141561215d57507f00000000000000000000000000000000000000000000000000000000000000006106d1565b7f00000000000000000000000000000000000000000000000000000000000000006001600160a01b0316826001600160a01b031614156121be57507f00000000000000000000000000000000000000000000000000000000000000006106d1565b7f00000000000000000000000000000000000000000000000000000000000000006001600160a01b0316826001600160a01b0316141561221f57507f00000000000000000000000000000000000000000000000000000000000000006106d1565b7f00000000000000000000000000000000000000000000000000000000000000006001600160a01b0316826001600160a01b0316141561228057507f00000000000000000000000000000000000000000000000000000000000000006106d1565b7f00000000000000000000000000000000000000000000000000000000000000006001600160a01b0316826001600160a01b031614156122e157507f00000000000000000000000000000000000000000000000000000000000000006106d1565b7f00000000000000000000000000000000000000000000000000000000000000006001600160a01b0316826001600160a01b0316141561234257507f00000000000000000000000000000000000000000000000000000000000000006106d1565b7f00000000000000000000000000000000000000000000000000000000000000006001600160a01b0316826001600160a01b031614156123a357507f00000000000000000000000000000000000000000000000000000000000000006106d1565b6106d1610135612d51565b6000806123c36123bc610644565b84906130f0565b90506105948382610d9a565b60006105948383612f62565b60006123e5611642565b61240e836123f6866020015161312c565b84612404886040015161312c565b88606001516138c2565b949350505050565b60006105948383611a6c565b600061242c611642565b61240e8361243d866020015161312c565b8461244b886040015161312c565b886060015161393f565b600061059483836130a2565b60006104cd612480612471610644565b670de0b6b3a764000090610d9a565b83906130a2565b6000612491610830565b6001600160a01b031663aaabadc56040518163ffffffff1660e01b815260040160206040518083038186803b1580156124c957600080fd5b505afa1580156124dd573d6000803e3d6000fd5b505050506040513d601f19601f8201168201806040525081019061052091906152de565b6060600061250d612668565b927f000000000000000000000000000000000000000000000000000000000000000092509050565b670de0b6b3a764000060005b83518110156125975761258d61258685838151811061255c57fe5b602002602001015185848151811061257057fe5b60200260200101516139b590919063ffffffff16565b8390612f62565b9150600101612541565b506104cd600082116101376114c9565b60006125b16115a5565b826040516020016107c992919061564b565b600060606125cf611642565b60006125da84613a04565b90506125f560008260028111156125ed57fe5b1460ce6114c9565b600061260085613a1a565b905061261461260d6117ce565b8251610d66565b61261e8187611abd565b6000612628612501565b50905060006126378284612535565b90506000612647826106ac6117ce565b600992909255509a91995090975050505050505050565b6106408282613a30565b606060006126746117ce565b90506000816001600160401b038111801561268e57600080fd5b506040519080825280602002602001820160405280156126b8578160200160208202803683370190505b5090508115610fc1577f0000000000000000000000000000000000000000000000000000000000000000816000815181106126ef57fe5b6020026020010181815250506001821115610fc1577f00000000000000000000000000000000000000000000000000000000000000008160018151811061273257fe5b6020026020010181815250506002821115610fc1577f00000000000000000000000000000000000000000000000000000000000000008160028151811061277557fe5b6020026020010181815250506003821115610fc1577f0000000000000000000000000000000000000000000000000000000000000000816003815181106127b857fe5b6020026020010181815250506004821115610fc1577f0000000000000000000000000000000000000000000000000000000000000000816004815181106127fb57fe5b6020026020010181815250506005821115610fc1577f00000000000000000000000000000000000000000000000000000000000000008160058151811061283e57fe5b6020026020010181815250506006821115610fc1577f00000000000000000000000000000000000000000000000000000000000000008160068151811061288157fe5b6020026020010181815250506007821115610fc1577f0000000000000000000000000000000000000000000000000000000000000000816007815181106128c457fe5b6020026020010181815250506008821115610fc1577f00000000000000000000000000000000000000000000000000000000000000008160088151811061290757fe5b6020026020010181815250506009821115610fc1577f00000000000000000000000000000000000000000000000000000000000000008160098151811061294a57fe5b602002602001018181525050600a821115610fc1577f000000000000000000000000000000000000000000000000000000000000000081600a8151811061298d57fe5b602002602001018181525050600b821115610fc1577f000000000000000000000000000000000000000000000000000000000000000081600b815181106129d057fe5b602002602001018181525050600c821115610fc1577f000000000000000000000000000000000000000000000000000000000000000081600c81518110612a1357fe5b602002602001018181525050600d821115610fc1577f000000000000000000000000000000000000000000000000000000000000000081600d81518110612a5657fe5b602002602001018181525050600e821115610fc1577f000000000000000000000000000000000000000000000000000000000000000081600e81518110612a9957fe5b602002602001018181525050600f821115610fc1577f000000000000000000000000000000000000000000000000000000000000000081600f81518110612adc57fe5b6020026020010181815250506010821115610fc1577f000000000000000000000000000000000000000000000000000000000000000081601081518110612b1f57fe5b6020026020010181815250506011821115610fc1577f000000000000000000000000000000000000000000000000000000000000000081601181518110612b6257fe5b6020026020010181815250506012821115610fc1577f000000000000000000000000000000000000000000000000000000000000000081601281518110612ba557fe5b6020026020010181815250506013821115610fc1577f0000000000000000000000000000000000000000000000000000000000000000816013815181106114b757fe5b600281511015612bf7576104e4565b600081600081518110612c0657fe5b602002602001015190506000600190505b8251811015611921576000838281518110612c2e57fe5b60200260200101519050612c57816001600160a01b0316846001600160a01b03161060656114c9565b9150600101612c17565b600073ba1ba1ba1ba1ba1ba1ba1ba1ba1ba1ba1ba1ba1b612c8061080c565b6001600160a01b031614158015612c9b5750612c9b83613aac565b15612cc357612ca861080c565b6001600160a01b0316336001600160a01b03161490506104cd565b612ccb612487565b6001600160a01b0316639be2a8848484306040518463ffffffff1660e01b8152600401612cfa939291906156de565b60206040518083038186803b158015612d1257600080fd5b505afa158015612d26573d6000803e3d6000fd5b505050506040513d601f19601f82011682018060405250810190612d4a919061519e565b90506104cd565b62461bcd60e51b6000908152602060045260076024526642414c23000030600a808404818106603090810160081b95839006959095019082900491820690940160101b939093010160c81b604452606490fd5b6000612db384841115836114c9565b5050900390565b4690565b60606000612dca6117ce565b6001600160401b0381118015612ddf57600080fd5b50604051908082528060200260200182016040528015612e09578160200160208202803683370190505b50905082612e18579050612e65565b612e4b888781518110612e2757fe5b6020026020010151888881518110612e3b57fe5b6020026020010151878787613ade565b818781518110612e5757fe5b602090810291909101015290505b9695505050505050565b60005b612e7a6117ce565b811015612ed457612eb5848281518110612e9057fe5b6020026020010151848381518110612ea457fe5b60200260200101518463ffffffff16565b848281518110612ec157fe5b6020908102919091010152600101612e72565b50505050565b600060606000612ee984613a04565b90506000816002811115612ef957fe5b1415612f1457612f0a878786613b56565b9250925050612f40565b6001816002811115612f2257fe5b1415612f3257612f0a8785613c38565b612f0a87878787613c6a565b505b94509492505050565b6000612f588484610d9a612e6f565b61240e8285612535565b6000828202612f7c841580611a65575083858381611a6257fe5b670de0b6b3a764000090049392505050565b612fa56001600160a01b038316151561019b6114c9565b612fb182600083611921565b6001600160a01b038216600090815260208190526040902054612fd790826101a1612da4565b6001600160a01b038316600090815260208190526040902055600254612ffd9082613cd8565b6002556040516000906001600160a01b038416906000805160206158568339815191529061302c9085906156d5565b60405180910390a35050565b60006060600061304784613a04565b9050600181600281111561305757fe5b141561306957612f0a87878787613ce6565b600281600281111561307757fe5b141561308857612f0a878786613d43565b612f3e610136612d51565b6000612f588484610d73612e6f565b60006130b182151560046114c9565b826130be575060006104cd565b670de0b6b3a7640000838102906130d890858381611aa257fe5b8260018203816130e457fe5b046001019150506104cd565b600082820261310a841580611a65575083858381611a6257fe5b806131195760009150506104cd565b670de0b6b3a764000060001982016130e4565b60007f00000000000000000000000000000000000000000000000000000000000000006001600160a01b0316826001600160a01b0316141561318f57507f00000000000000000000000000000000000000000000000000000000000000006106d1565b7f00000000000000000000000000000000000000000000000000000000000000006001600160a01b0316826001600160a01b031614156131f057507f00000000000000000000000000000000000000000000000000000000000000006106d1565b7f00000000000000000000000000000000000000000000000000000000000000006001600160a01b0316826001600160a01b0316141561325157507f00000000000000000000000000000000000000000000000000000000000000006106d1565b7f00000000000000000000000000000000000000000000000000000000000000006001600160a01b0316826001600160a01b031614156132b257507f00000000000000000000000000000000000000000000000000000000000000006106d1565b7f00000000000000000000000000000000000000000000000000000000000000006001600160a01b0316826001600160a01b0316141561331357507f00000000000000000000000000000000000000000000000000000000000000006106d1565b7f00000000000000000000000000000000000000000000000000000000000000006001600160a01b0316826001600160a01b0316141561337457507f00000000000000000000000000000000000000000000000000000000000000006106d1565b7f00000000000000000000000000000000000000000000000000000000000000006001600160a01b0316826001600160a01b031614156133d557507f00000000000000000000000000000000000000000000000000000000000000006106d1565b7f00000000000000000000000000000000000000000000000000000000000000006001600160a01b0316826001600160a01b0316141561343657507f00000000000000000000000000000000000000000000000000000000000000006106d1565b7f00000000000000000000000000000000000000000000000000000000000000006001600160a01b0316826001600160a01b0316141561349757507f00000000000000000000000000000000000000000000000000000000000000006106d1565b7f00000000000000000000000000000000000000000000000000000000000000006001600160a01b0316826001600160a01b031614156134f857507f00000000000000000000000000000000000000000000000000000000000000006106d1565b7f00000000000000000000000000000000000000000000000000000000000000006001600160a01b0316826001600160a01b0316141561355957507f00000000000000000000000000000000000000000000000000000000000000006106d1565b7f00000000000000000000000000000000000000000000000000000000000000006001600160a01b0316826001600160a01b031614156135ba57507f00000000000000000000000000000000000000000000000000000000000000006106d1565b7f00000000000000000000000000000000000000000000000000000000000000006001600160a01b0316826001600160a01b0316141561361b57507f00000000000000000000000000000000000000000000000000000000000000006106d1565b7f00000000000000000000000000000000000000000000000000000000000000006001600160a01b0316826001600160a01b0316141561367c57507f00000000000000000000000000000000000000000000000000000000000000006106d1565b7f00000000000000000000000000000000000000000000000000000000000000006001600160a01b0316826001600160a01b031614156136dd57507f00000000000000000000000000000000000000000000000000000000000000006106d1565b7f00000000000000000000000000000000000000000000000000000000000000006001600160a01b0316826001600160a01b0316141561373e57507f00000000000000000000000000000000000000000000000000000000000000006106d1565b7f00000000000000000000000000000000000000000000000000000000000000006001600160a01b0316826001600160a01b0316141561379f57507f00000000000000000000000000000000000000000000000000000000000000006106d1565b7f00000000000000000000000000000000000000000000000000000000000000006001600160a01b0316826001600160a01b0316141561380057507f00000000000000000000000000000000000000000000000000000000000000006106d1565b7f00000000000000000000000000000000000000000000000000000000000000006001600160a01b0316826001600160a01b0316141561386157507f00000000000000000000000000000000000000000000000000000000000000006106d1565b7f00000000000000000000000000000000000000000000000000000000000000006001600160a01b0316826001600160a01b031614156123a357507f00000000000000000000000000000000000000000000000000000000000000006106d1565b60006138e46138d987670429d069189e0000612f62565b8311156101306114c9565b60006138f08784610d73565b905060006138fe88836130a2565b9050600061390c8887611a6c565b9050600061391a8383613def565b905061392f61392882613e1b565b8990612f62565b9450505050505b95945050505050565b600061396161395685670429d069189e0000612f62565b8311156101316114c9565b60006139776139708685610d9a565b86906130a2565b9050600061398585886130a2565b905060006139938383613def565b905060006139a982670de0b6b3a7640000610d9a565b905061392f8a826130f0565b6000806139c28484613e41565b905060006139dc6139d5836127106130f0565b6001610d73565b9050808210156139f1576000925050506104cd565b6139fb8282610d9a565b925050506104cd565b6000818060200190518101906104cd9190615347565b606081806020019051810190610594919061540c565b613a3c60008383611921565b600254613a499082610d73565b6002556001600160a01b038216600090815260208190526040902054613a6f9082610d73565b6001600160a01b0383166000818152602081905260408082209390935591519091906000805160206158568339815191529061302c9085906156d5565b6000613abe631c74c91760e11b610794565b8214806104cd5750613ad66350dd6ed960e01b610794565b909114919050565b6000838311613aef57506000613936565b6000613afb85856130a2565b90506000613b11670de0b6b3a764000088611a6c565b9050613b25826709b6e64a8ec60000613f42565b91506000613b338383613def565b90506000613b4a613b4383613e1b565b8b90612f62565b905061392f8187612f62565b60006060613b62611642565b600080613b6e85613f59565b91509150613b86613b7d6117ce565b821060646114c9565b6000613b906117ce565b6001600160401b0381118015613ba557600080fd5b50604051908082528060200260200182016040528015613bcf578160200160208202803683370190505b509050613c13888381518110613be157fe5b6020026020010151888481518110613bf557fe5b602002602001015185613c066104e7565b613c0e610644565b613f7b565b818381518110613c1f57fe5b6020908102919091010152919791965090945050505050565b600060606000613c4784614041565b90506000613c5d8683613c586104e7565b614057565b9196919550909350505050565b60006060613c76611642565b600080613c8285614108565b91509150613c9382516106666117ce565b613c9d8287611abd565b6000613cba898985613cad6104e7565b613cb5610644565b614120565b9050613cca8282111560cf6114c9565b989197509095505050505050565b600061059483836001612da4565b60006060600080613cf685614108565b91509150613d0c613d056117ce565b8351610d66565b613d168287611abd565b6000613d33898985613d266104e7565b613d2e610644565b61434c565b9050613cca8282101560d06114c9565b60006060600080613d5385613f59565b91509150613d62613b7d6117ce565b6000613d6c6117ce565b6001600160401b0381118015613d8157600080fd5b50604051908082528060200260200182016040528015613dab578160200160208202803683370190505b509050613c13888381518110613dbd57fe5b6020026020010151888481518110613dd157fe5b602002602001015185613de26104e7565b613dea610644565b61455c565b600080613dfc8484613e41565b90506000613e0f6139d5836127106130f0565b90506139368282610d73565b6000670de0b6b3a76400008210613e335760006104cd565b50670de0b6b3a76400000390565b600081613e575750670de0b6b3a76400006104cd565b82613e64575060006104cd565b613e75600160ff1b841060066114c9565b82613e9b770bce5086492111aea88f4bb1ca6bcf584181ea8059f76532841060076114c9565b826000670c7d713b49da000083138015613ebc5750670f43fc2c04ee000083125b15613ef3576000613ecc84614607565b9050670de0b6b3a764000080820784020583670de0b6b3a764000083050201915050613f01565b81613efd84614725565b0290505b670de0b6b3a76400009005613f39680238fd42c5cf03ffff198212801590613f32575068070c1cc73b00c800008213155b60086114c9565b612e6581614abe565b600081831015613f525781610594565b5090919050565b60008082806020019051810190613f7091906153d6565b909590945092505050565b600080613f9284613f8c8188610d9a565b906130a2565b9050613fab6709b6e64a8ec600008210156101326114c9565b6000613fc9613fc2670de0b6b3a764000089611a6c565b8390613def565b90506000613fe0613fd983613e1b565b8a90612f62565b90506000613fed89613e1b565b90506000613ffb83836130f0565b905060006140098483610d9a565b905061403161402a614023670de0b6b3a76400008b610d9a565b8490612f62565b8290610d73565b9c9b505050505050505050505050565b60008180602001905181019061059491906153a9565b606060006140658484611a6c565b9050600085516001600160401b038111801561408057600080fd5b506040519080825280602002602001820160405280156140aa578160200160208202803683370190505b50905060005b86518110156140fe576140df838883815181106140c957fe5b6020026020010151612f6290919063ffffffff16565b8282815181106140eb57fe5b60209081029190910101526001016140b0565b5095945050505050565b6060600082806020019051810190613f709190615363565b60008084516001600160401b038111801561413a57600080fd5b50604051908082528060200260200182016040528015614164578160200160208202803683370190505b5090506000805b8851811015614229576141c489828151811061418357fe5b6020026020010151613f8c89848151811061419a57fe5b60200260200101518c85815181106141ae57fe5b6020026020010151610d9a90919063ffffffff16565b8382815181106141d057fe5b60200260200101818152505061421f6142188983815181106141ee57fe5b602002602001015185848151811061420257fe5b60200260200101516130f090919063ffffffff16565b8390610d73565b915060010161416b565b50670de0b6b3a764000060005b895181101561432b57600084828151811061424d57fe5b60200260200101518411156142ad57600061427661426a86613e1b565b8d85815181106140c957fe5b9050600061428a828c86815181106141ae57fe5b90506142a4614218612480670de0b6b3a76400008c610d9a565b925050506142c4565b8882815181106142b957fe5b602002602001015190505b60006142ed8c84815181106142d557fe5b60200260200101516106b1848f87815181106141ae57fe5b905061431f6143188c858151811061430157fe5b6020026020010151836139b590919063ffffffff16565b8590612f62565b93505050600101614236565b5061433f61433882613e1b565b87906130f0565b9998505050505050505050565b60008084516001600160401b038111801561436657600080fd5b50604051908082528060200260200182016040528015614390578160200160208202803683370190505b5090506000805b8851811015614438576143f08982815181106143af57fe5b60200260200101516106b18984815181106143c657fe5b60200260200101518c85815181106143da57fe5b6020026020010151610d7390919063ffffffff16565b8382815181106143fc57fe5b60200260200101818152505061442e61421889838151811061441a57fe5b60200260200101518584815181106140c957fe5b9150600101614397565b50670de0b6b3a764000060005b89518110156145195760008385838151811061445d57fe5b602002602001015111156144b957600061448261426a86670de0b6b3a7640000610d9a565b90506000614496828c86815181106141ae57fe5b90506144b0614218612586670de0b6b3a76400008c610d9a565b925050506144d0565b8882815181106144c557fe5b602002602001015190505b60006144f98c84815181106144e157fe5b60200260200101516106b1848f87815181106143da57fe5b905061450d6143188c858151811061430157fe5b93505050600101614445565b50670de0b6b3a76400008111156145505761454661453f82670de0b6b3a7640000610d9a565b8790612f62565b9350505050613936565b60009350505050613936565b60008061456d84613f8c8188610d73565b90506145866729a2241af62c00008211156101336114c9565b600061459d613fc2670de0b6b3a7640000896130a2565b905060006145bd6145b683670de0b6b3a7640000610d9a565b8a906130f0565b905060006145ca89613e1b565b905060006145d883836130f0565b905060006145e68483610d9a565b905061403161402a614600670de0b6b3a76400008b610d9a565b84906130a2565b670de0b6b3a7640000026000806a0c097ce7bc90715b34b9f160241b808401906ec097ce7bc90715b34b9f0fffffffff198501028161464257fe5b05905060006a0c097ce7bc90715b34b9f160241b82800205905081806a0c097ce7bc90715b34b9f160241b81840205915060038205016a0c097ce7bc90715b34b9f160241b82840205915060058205016a0c097ce7bc90715b34b9f160241b82840205915060078205016a0c097ce7bc90715b34b9f160241b82840205915060098205016a0c097ce7bc90715b34b9f160241b828402059150600b8205016a0c097ce7bc90715b34b9f160241b828402059150600d8205016a0c097ce7bc90715b34b9f160241b828402059150600f826002919005919091010295945050505050565b6000670de0b6b3a764000082121561476157614757826a0c097ce7bc90715b34b9f160241b8161475157fe5b05614725565b60000390506106d1565b6000775803bcc5cb9634ba4cfb2213f784019318ed4dcb6017880f60361b83126147ac5772195e54c5dd42177f53a27172fa9ec63026282760241b830592506806f05b59d3b2000000015b73011798004d755d3c8bc8e03204cf44619e00000083126147e4576b1425982cf597cd205cef7380830592506803782dace9d9000000015b606492830292026e01855144814a7ff805980ff0084000831261482c576e01855144814a7ff805980ff008400068056bc75e2d63100000840205925068ad78ebc5ac62000000015b6b02df0ab5a80a22c61ab5a7008312614867576b02df0ab5a80a22c61ab5a70068056bc75e2d6310000084020592506856bc75e2d631000000015b693f1fce3da636ea5cf850831261489e57693f1fce3da636ea5cf85068056bc75e2d631000008402059250682b5e3af16b18800000015b690127fa27722cc06cc5e283126148d557690127fa27722cc06cc5e268056bc75e2d6310000084020592506815af1d78b58c400000015b68280e60114edb805d03831261490a5768280e60114edb805d0368056bc75e2d631000008402059250680ad78ebc5ac6200000015b680ebc5fb41746121110831261493557680ebc5fb4174612111068056bc75e2d631000009384020592015b6808f00f760a4b2db55d831261496a576808f00f760a4b2db55d68056bc75e2d6310000084020592506802b5e3af16b1880000015b6806f5f1775788937937831261499f576806f5f177578893793768056bc75e2d63100000840205925068015af1d78b58c40000015b6806248f33704b28660383126149d3576806248f33704b28660368056bc75e2d63100000840205925067ad78ebc5ac620000015b6805c548670b9510e7ac8312614a07576805c548670b9510e7ac68056bc75e2d6310000084020592506756bc75e2d6310000015b600068056bc75e2d63100000840168056bc75e2d631000008086030281614a2a57fe5b059050600068056bc75e2d63100000828002059050818068056bc75e2d63100000818402059150600382050168056bc75e2d63100000828402059150600582050168056bc75e2d63100000828402059150600782050168056bc75e2d63100000828402059150600982050168056bc75e2d63100000828402059150600b820501600202606485820105979650505050505050565b6000614aed680238fd42c5cf03ffff198312158015614ae6575068070c1cc73b00c800008313155b60096114c9565b6000821215614b2057614b0282600003614abe565b6a0c097ce7bc90715b34b9f160241b81614b1857fe5b0590506106d1565b60006806f05b59d3b20000008312614b5e57506806f05b59d3b1ffffff199091019072195e54c5dd42177f53a27172fa9ec63026282760241b614b94565b6803782dace9d90000008312614b9057506803782dace9d8ffffff19909101906b1425982cf597cd205cef7380614b94565b5060015b6064929092029168056bc75e2d6310000068ad78ebc5ac620000008412614be45768ad78ebc5ac61ffffff199093019268056bc75e2d631000006e01855144814a7ff805980ff008400082020590505b6856bc75e2d6310000008412614c20576856bc75e2d630ffffff199093019268056bc75e2d631000006b02df0ab5a80a22c61ab5a70082020590505b682b5e3af16b188000008412614c5a57682b5e3af16b187fffff199093019268056bc75e2d63100000693f1fce3da636ea5cf85082020590505b6815af1d78b58c4000008412614c94576815af1d78b58c3fffff199093019268056bc75e2d63100000690127fa27722cc06cc5e282020590505b680ad78ebc5ac62000008412614ccd57680ad78ebc5ac61fffff199093019268056bc75e2d6310000068280e60114edb805d0382020590505b68056bc75e2d631000008412614d065768056bc75e2d630fffff199093019268056bc75e2d63100000680ebc5fb4174612111082020590505b6802b5e3af16b18800008412614d3f576802b5e3af16b187ffff199093019268056bc75e2d631000006808f00f760a4b2db55d82020590505b68015af1d78b58c400008412614d785768015af1d78b58c3ffff199093019268056bc75e2d631000006806f5f177578893793782020590505b68056bc75e2d631000008481019085906002908280020505918201919050600368056bc75e2d631000008783020505918201919050600468056bc75e2d631000008783020505918201919050600568056bc75e2d631000008783020505918201919050600668056bc75e2d631000008783020505918201919050600768056bc75e2d631000008783020505918201919050600868056bc75e2d631000008783020505918201919050600968056bc75e2d631000008783020505918201919050600a68056bc75e2d631000008783020505918201919050600b68056bc75e2d631000008783020505918201919050600c68056bc75e2d631000008783020505918201919050606468056bc75e2d63100000848402058502059695505050505050565b80356106d181615825565b600082601f830112614eb4578081fd5b81516020614ec9614ec483615808565b6157e5565b8281528181019085830183850287018401881015614ee5578586fd5b855b85811015614f0357815184529284019290840190600101614ee7565b5090979650505050505050565b600082601f830112614f20578081fd5b81356001600160401b03811115614f3357fe5b614f46601f8201601f19166020016157e5565b818152846020838601011115614f5a578283fd5b816020850160208301379081016020019190915292915050565b8035600281106106d157600080fd5b600060208284031215614f94578081fd5b813561059481615825565b60008060408385031215614fb1578081fd5b8235614fbc81615825565b91506020830135614fcc81615825565b809150509250929050565b600080600060608486031215614feb578081fd5b8335614ff681615825565b9250602084013561500681615825565b929592945050506040919091013590565b600080600080600080600060e0888a031215615031578485fd5b873561503c81615825565b9650602088013561504c81615825565b95506040880135945060608801359350608088013560ff8116811461506f578384fd5b9699959850939692959460a0840135945060c09093013592915050565b6000806040838503121561509e578182fd5b82356150a981615825565b946020939093013593505050565b6000806000606084860312156150cb578081fd5b83516001600160401b03808211156150e1578283fd5b818601915086601f8301126150f4578283fd5b81516020615104614ec483615808565b82815281810190858301838502870184018c1015615120578788fd5b8796505b8487101561514b57805161513781615825565b835260019690960195918301918301615124565b5091890151919750909350505080821115615164578283fd5b5061517186828701614ea4565b925050604084015190509250925092565b600060208284031215615193578081fd5b81356105948161583a565b6000602082840312156151af578081fd5b81516105948161583a565b600080600080600080600060e0888a0312156151d4578081fd5b873596506020808901356151e781615825565b965060408901356151f781615825565b955060608901356001600160401b0380821115615212578384fd5b818b0191508b601f830112615225578384fd5b8135615233614ec482615808565b8082825285820191508585018f878886028801011115615251578788fd5b8795505b83861015615273578035835260019590950194918601918601615255565b509850505060808b0135955060a08b0135945060c08b0135925080831115615299578384fd5b50506152a78a828b01614f10565b91505092959891949750929550565b6000602082840312156152c7578081fd5b81356001600160e01b031981168114610594578182fd5b6000602082840312156152ef578081fd5b815161059481615825565b6000806040838503121561530c578182fd5b823561531781615825565b915060208301356001600160401b03811115615331578182fd5b61533d85828601614f10565b9150509250929050565b600060208284031215615358578081fd5b815161059481615848565b600080600060608486031215615377578081fd5b835161538281615848565b60208501519093506001600160401b0381111561539d578182fd5b61517186828701614ea4565b600080604083850312156153bb578182fd5b82516153c681615848565b6020939093015192949293505050565b6000806000606084860312156153ea578081fd5b83516153f581615848565b602085015160409095015190969495509392505050565b6000806040838503121561541e578182fd5b825161542981615848565b60208401519092506001600160401b03811115615444578182fd5b61533d85828601614ea4565b600080600060608486031215615464578081fd5b83356001600160401b038082111561547a578283fd5b8186019150610120808389031215615490578384fd5b615499816157e5565b90506154a483614f74565b81526154b260208401614e99565b60208201526154c360408401614e99565b6040820152606083013560608201526080830135608082015260a083013560a08201526154f260c08401614e99565b60c082015261550360e08401614e99565b60e0820152610100808401358381111561551b578586fd5b6155278a828701614f10565b9183019190915250976020870135975060409096013595945050505050565b600060208284031215615557578081fd5b5035919050565b60008060008060808587031215615573578182fd5b845193506020850151925060408501519150606085015161559381615825565b939692955090935050565b6000815180845260208085019450808401835b838110156155cd578151875295820195908201906001016155b1565b509495945050505050565b60008151808452815b818110156155fd576020818501810151868301820152016155e1565b8181111561560e5782602083870101525b50601f01601f19169290920160200192915050565b9182526001600160e01b031916602082015260240190565b6000828483379101908152919050565b61190160f01b81526002810192909252602282015260420190565b6001600160a01b0391909116815260200190565b600060208252610594602083018461559e565b6000604082526156a0604083018561559e565b8281036020840152613936818561559e565b901515815260200190565b92151583526020830191909152604082015260600190565b90815260200190565b9283526001600160a01b03918216602084015216604082015260600190565b9586526001600160a01b0394851660208701529290931660408501526060840152608083019190915260a082015260c00190565b9485526020850193909352604084019190915260608301526001600160a01b0316608082015260a00190565b60008382526040602083015261240e60408301846155d8565b9182526001600160a01b0316602082015260400190565b93845260ff9290921660208401526040830152606082015260800190565b60006020825261059460208301846155d8565b60008382526040602083015261240e604083018461559e565b60ff91909116815260200190565b6040518181016001600160401b038111828210171561580057fe5b604052919050565b60006001600160401b0382111561581b57fe5b5060209081020190565b6001600160a01b03811681146104e457600080fd5b80151581146104e457600080fd5b600381106104e457600080fdfeddf252ad1be2c89b69c2b068fc378daa952ba7f163c4a11628f55a4df523b3efa2646970667358221220712ceddc043d4802e8c18b908c49c5399b4f4d32f021265b699e34bd94126e4264736f6c63430007060033",
  "linkReferences": {},
  "deployedLinkReferences": {}
}