{
  "_format": "hh-sol-artifact-1",
  "contractName": "BalancerRelayer",
  "sourceName": "contracts/BatchRelayerLibrary.sol",
  "abi": [
    {
      "inputs": [
        {
          "internalType": "contract IVault",
          "name": "vault",
          "type": "address"
        },
        {
          "internalType": "address",
          "name": "libraryAddress",
          "type": "address"
        }
      ],
      "stateMutability": "nonpayable",
      "type": "constructor"
    },
    {
      "inputs": [],
      "name": "getLibrary",
      "outputs": [
        {
          "internalType": "address",
          "name": "",
          "type": "address"
        }
      ],
      "stateMutability": "view",
      "type": "function"
    },
    {
      "inputs": [],
      "name": "getVault",
      "outputs": [
        {
          "internalType": "contract IVault",
          "name": "",
          "type": "address"
        }
      ],
      "stateMutability": "view",
      "type": "function"
    },
    {
      "inputs": [
        {
          "internalType": "bytes[]",
          "name": "data",
          "type": "bytes[]"
        }
      ],
      "name": "multicall",
      "outputs": [
        {
          "internalType": "bytes[]",
          "name": "results",
          "type": "bytes[]"
        }
      ],
      "stateMutability": "payable",
      "type": "function"
    },
    {
      "stateMutability": "payable",
      "type": "receive"
    }
  ],
  "bytecode": "0x60c060405234801561001057600080fd5b5060405161069938038061069983398101604081905261002f91610052565b60016000556001600160601b0319606092831b8116608052911b1660a0526100a3565b60008060408385031215610064578182fd5b825161006f8161008b565b60208401519092506100808161008b565b809150509250929050565b6001600160a01b03811681146100a057600080fd5b50565b60805160601c60a05160601c6105c56100d46000398060ef52806101f5525080604b528061011352506105c56000f3fe6080604052600436106100385760003560e01c80637678922e1461007b5780638d928af8146100a6578063ac9650d8146100bb57610076565b3661007657610074336001600160a01b037f000000000000000000000000000000000000000000000000000000000000000016146102066100db565b005b600080fd5b34801561008757600080fd5b506100906100ed565b60405161009d9190610487565b60405180910390f35b3480156100b257600080fd5b50610090610111565b6100ce6100c93660046103f9565b610135565b60405161009d919061049b565b816100e9576100e981610254565b5050565b7f000000000000000000000000000000000000000000000000000000000000000090565b7f000000000000000000000000000000000000000000000000000000000000000090565b606061013f6102a7565b8167ffffffffffffffff8111801561015657600080fd5b5060405190808252806020026020018201604052801561018a57816020015b60608152602001906001900390816101755790505b50905060005b8281101561023d5761021e8484838181106101a757fe5b90506020028101906101b99190610513565b8080601f016020809104026020016040519081016040528093929190818152602001838380828437600092019190915250506001600160a01b037f000000000000000000000000000000000000000000000000000000000000000016929150506102c0565b82828151811061022a57fe5b6020908102919091010152600101610190565b50610246610335565b61024e610349565b92915050565b62461bcd60e51b6000908152602060045260076024526642414c23000030600a808404818106603090810160081b95839006959095019082900491820690940160101b939093010160c81b604452606490fd5b6102b9600260005414156101906100db565b6002600055565b6060600080846001600160a01b0316846040516102dd9190610468565b600060405180830381855af49150503d8060008114610318576040519150601f19603f3d011682016040523d82523d6000602084013e61031d565b606091505b509150915061032c8282610350565b95945050505050565b47801561034657610346338261037a565b50565b6001600055565b6060821561035f57508061024e565b81511561036f5781518083602001fd5b61024e6101ae610254565b610389814710156101a36100db565b6000826001600160a01b0316826040516103a290610484565b60006040518083038185875af1925050503d80600081146103df576040519150601f19603f3d011682016040523d82523d6000602084013e6103e4565b606091505b505090506103f4816101a46100db565b505050565b6000806020838503121561040b578182fd5b823567ffffffffffffffff80821115610422578384fd5b818501915085601f830112610435578384fd5b813581811115610443578485fd5b8660208083028501011115610456578485fd5b60209290920196919550909350505050565b6000825161047a81846020870161055f565b9190910192915050565b90565b6001600160a01b0391909116815260200190565b6000602080830181845280855180835260408601915060408482028701019250838701855b8281101561050657878503603f19018452815180518087526104e7818989018a850161055f565b601f01601f1916959095018601945092850192908501906001016104c0565b5092979650505050505050565b6000808335601e19843603018112610529578283fd5b83018035915067ffffffffffffffff821115610543578283fd5b60200191503681900382131561055857600080fd5b9250929050565b60005b8381101561057a578181015183820152602001610562565b83811115610589576000848401525b5050505056fea2646970667358221220159dd672d42e9f3feb72b160544bf67f46239124a7de8c39682e3bee515f86ff64736f6c63430007060033",
  "linkReferences": {},
  "deployedLinkReferences": {}
}