{
  "_format": "hh-sol-artifact-1",
  "contractName": "BatchRelayerLibrary",
  "sourceName": "contracts/BatchRelayerLibrary.sol",
  "abi": [
    {
      "inputs": [
        {
          "internalType": "contract IVault",
          "name": "vault",
          "type": "address"
        },
        {
          "internalType": "contract IERC20",
          "name": "wstETH",
          "type": "address"
        }
      ],
      "stateMutability": "nonpayable",
      "type": "constructor"
    },
    {
      "inputs": [
        {
          "internalType": "contract IERC20",
          "name": "token",
          "type": "address"
        },
        {
          "internalType": "uint256",
          "name": "amount",
          "type": "uint256"
        }
      ],
      "name": "approveVault",
      "outputs": [],
      "stateMutability": "nonpayable",
      "type": "function"
    },
    {
      "inputs": [
        {
          "internalType": "enum IVault.SwapKind",
          "name": "kind",
          "type": "uint8"
        },
        {
          "components": [
            {
              "internalType": "bytes32",
              "name": "poolId",
              "type": "bytes32"
            },
            {
              "internalType": "uint256",
              "name": "assetInIndex",
              "type": "uint256"
            },
            {
              "internalType": "uint256",
              "name": "assetOutIndex",
              "type": "uint256"
            },
            {
              "internalType": "uint256",
              "name": "amount",
              "type": "uint256"
            },
            {
              "internalType": "bytes",
              "name": "userData",
              "type": "bytes"
            }
          ],
          "internalType": "struct IVault.BatchSwapStep[]",
          "name": "swaps",
          "type": "tuple[]"
        },
        {
          "internalType": "contract IAsset[]",
          "name": "assets",
          "type": "address[]"
        },
        {
          "components": [
            {
              "internalType": "address",
              "name": "sender",
              "type": "address"
            },
            {
              "internalType": "bool",
              "name": "fromInternalBalance",
              "type": "bool"
            },
            {
              "internalType": "address payable",
              "name": "recipient",
              "type": "address"
            },
            {
              "internalType": "bool",
              "name": "toInternalBalance",
              "type": "bool"
            }
          ],
          "internalType": "struct IVault.FundManagement",
          "name": "funds",
          "type": "tuple"
        },
        {
          "internalType": "int256[]",
          "name": "limits",
          "type": "int256[]"
        },
        {
          "internalType": "uint256",
          "name": "deadline",
          "type": "uint256"
        },
        {
          "internalType": "uint256",
          "name": "value",
          "type": "uint256"
        },
        {
          "components": [
            {
              "internalType": "uint256",
              "name": "index",
              "type": "uint256"
            },
            {
              "internalType": "uint256",
              "name": "key",
              "type": "uint256"
            }
          ],
          "internalType": "struct VaultActions.OutputReference[]",
          "name": "outputReferences",
          "type": "tuple[]"
        }
      ],
      "name": "batchSwap",
      "outputs": [
        {
          "internalType": "int256[]",
          "name": "",
          "type": "int256[]"
        }
      ],
      "stateMutability": "payable",
      "type": "function"
    },
    {
      "inputs": [
        {
          "internalType": "bytes32",
          "name": "poolId",
          "type": "bytes32"
        },
        {
          "internalType": "enum VaultActions.PoolKind",
          "name": "kind",
          "type": "uint8"
        },
        {
          "internalType": "address",
          "name": "sender",
          "type": "address"
        },
        {
          "internalType": "address payable",
          "name": "recipient",
          "type": "address"
        },
        {
          "components": [
            {
              "internalType": "contract IAsset[]",
              "name": "assets",
              "type": "address[]"
            },
            {
              "internalType": "uint256[]",
              "name": "minAmountsOut",
              "type": "uint256[]"
            },
            {
              "internalType": "bytes",
              "name": "userData",
              "type": "bytes"
            },
            {
              "internalType": "bool",
              "name": "toInternalBalance",
              "type": "bool"
            }
          ],
          "internalType": "struct IVault.ExitPoolRequest",
          "name": "request",
          "type": "tuple"
        },
        {
          "components": [
            {
              "internalType": "uint256",
              "name": "index",
              "type": "uint256"
            },
            {
              "internalType": "uint256",
              "name": "key",
              "type": "uint256"
            }
          ],
          "internalType": "struct VaultActions.OutputReference[]",
          "name": "outputReferences",
          "type": "tuple[]"
        }
      ],
      "name": "exitPool",
      "outputs": [],
      "stateMutability": "payable",
      "type": "function"
    },
    {
      "inputs": [],
      "name": "getEntrypoint",
      "outputs": [
        {
          "internalType": "contract IBalancerRelayer",
          "name": "",
          "type": "address"
        }
      ],
      "stateMutability": "view",
      "type": "function"
    },
    {
      "inputs": [],
      "name": "getVault",
      "outputs": [
        {
          "internalType": "contract IVault",
          "name": "",
          "type": "address"
        }
      ],
      "stateMutability": "view",
      "type": "function"
    },
    {
      "inputs": [
        {
          "internalType": "bytes32",
          "name": "poolId",
          "type": "bytes32"
        },
        {
          "internalType": "enum VaultActions.PoolKind",
          "name": "kind",
          "type": "uint8"
        },
        {
          "internalType": "address",
          "name": "sender",
          "type": "address"
        },
        {
          "internalType": "address",
          "name": "recipient",
          "type": "address"
        },
        {
          "components": [
            {
              "internalType": "contract IAsset[]",
              "name": "assets",
              "type": "address[]"
            },
            {
              "internalType": "uint256[]",
              "name": "maxAmountsIn",
              "type": "uint256[]"
            },
            {
              "internalType": "bytes",
              "name": "userData",
              "type": "bytes"
            },
            {
              "internalType": "bool",
              "name": "fromInternalBalance",
              "type": "bool"
            }
          ],
          "internalType": "struct IVault.JoinPoolRequest",
          "name": "request",
          "type": "tuple"
        },
        {
          "internalType": "uint256",
          "name": "value",
          "type": "uint256"
        },
        {
          "internalType": "uint256",
          "name": "outputReference",
          "type": "uint256"
        }
      ],
      "name": "joinPool",
      "outputs": [],
      "stateMutability": "payable",
      "type": "function"
    },
    {
      "inputs": [
        {
          "components": [
            {
              "internalType": "enum IVault.UserBalanceOpKind",
              "name": "kind",
              "type": "uint8"
            },
            {
              "internalType": "contract IAsset",
              "name": "asset",
              "type": "address"
            },
            {
              "internalType": "uint256",
              "name": "amount",
              "type": "uint256"
            },
            {
              "internalType": "address",
              "name": "sender",
              "type": "address"
            },
            {
              "internalType": "address payable",
              "name": "recipient",
              "type": "address"
            }
          ],
          "internalType": "struct IVault.UserBalanceOp[]",
          "name": "ops",
          "type": "tuple[]"
        },
        {
          "internalType": "uint256",
          "name": "value",
          "type": "uint256"
        }
      ],
      "name": "manageUserBalance",
      "outputs": [],
      "stateMutability": "payable",
      "type": "function"
    },
    {
      "inputs": [
        {
          "internalType": "address",
          "name": "relayer",
          "type": "address"
        },
        {
          "internalType": "bool",
          "name": "approved",
          "type": "bool"
        },
        {
          "internalType": "bytes",
          "name": "authorisation",
          "type": "bytes"
        }
      ],
      "name": "setRelayerApproval",
      "outputs": [],
      "stateMutability": "payable",
      "type": "function"
    },
    {
      "inputs": [
        {
          "internalType": "address",
          "name": "recipient",
          "type": "address"
        },
        {
          "internalType": "uint256",
          "name": "amount",
          "type": "uint256"
        },
        {
          "internalType": "uint256",
          "name": "outputReference",
          "type": "uint256"
        }
      ],
      "name": "stakeETH",
      "outputs": [],
      "stateMutability": "payable",
      "type": "function"
    },
    {
      "inputs": [
        {
          "internalType": "address",
          "name": "recipient",
          "type": "address"
        },
        {
          "internalType": "uint256",
          "name": "amount",
          "type": "uint256"
        },
        {
          "internalType": "uint256",
          "name": "outputReference",
          "type": "uint256"
        }
      ],
      "name": "stakeETHAndWrap",
      "outputs": [],
      "stateMutability": "payable",
      "type": "function"
    },
    {
      "inputs": [
        {
          "components": [
            {
              "internalType": "bytes32",
              "name": "poolId",
              "type": "bytes32"
            },
            {
              "internalType": "enum IVault.SwapKind",
              "name": "kind",
              "type": "uint8"
            },
            {
              "internalType": "contract IAsset",
              "name": "assetIn",
              "type": "address"
            },
            {
              "internalType": "contract IAsset",
              "name": "assetOut",
              "type": "address"
            },
            {
              "internalType": "uint256",
              "name": "amount",
              "type": "uint256"
            },
            {
              "internalType": "bytes",
              "name": "userData",
              "type": "bytes"
            }
          ],
          "internalType": "struct IVault.SingleSwap",
          "name": "singleSwap",
          "type": "tuple"
        },
        {
          "components": [
            {
              "internalType": "address",
              "name": "sender",
              "type": "address"
            },
            {
              "internalType": "bool",
              "name": "fromInternalBalance",
              "type": "bool"
            },
            {
              "internalType": "address payable",
              "name": "recipient",
              "type": "address"
            },
            {
              "internalType": "bool",
              "name": "toInternalBalance",
              "type": "bool"
            }
          ],
          "internalType": "struct IVault.FundManagement",
          "name": "funds",
          "type": "tuple"
        },
        {
          "internalType": "uint256",
          "name": "limit",
          "type": "uint256"
        },
        {
          "internalType": "uint256",
          "name": "deadline",
          "type": "uint256"
        },
        {
          "internalType": "uint256",
          "name": "value",
          "type": "uint256"
        },
        {
          "internalType": "uint256",
          "name": "outputReference",
          "type": "uint256"
        }
      ],
      "name": "swap",
      "outputs": [
        {
          "internalType": "uint256",
          "name": "",
          "type": "uint256"
        }
      ],
      "stateMutability": "payable",
      "type": "function"
    },
    {
      "inputs": [
        {
          "internalType": "contract IStaticATokenLM",
          "name": "staticToken",
          "type": "address"
        },
        {
          "internalType": "address",
          "name": "sender",
          "type": "address"
        },
        {
          "internalType": "address",
          "name": "recipient",
          "type": "address"
        },
        {
          "internalType": "uint256",
          "name": "amount",
          "type": "uint256"
        },
        {
          "internalType": "bool",
          "name": "toUnderlying",
          "type": "bool"
        },
        {
          "internalType": "uint256",
          "name": "outputReference",
          "type": "uint256"
        }
      ],
      "name": "unwrapAaveStaticToken",
      "outputs": [],
      "stateMutability": "payable",
      "type": "function"
    },
    {
      "inputs": [
        {
          "internalType": "address",
          "name": "sender",
          "type": "address"
        },
        {
          "internalType": "address",
          "name": "recipient",
          "type": "address"
        },
        {
          "internalType": "uint256",
          "name": "amount",
          "type": "uint256"
        },
        {
          "internalType": "uint256",
          "name": "outputReference",
          "type": "uint256"
        }
      ],
      "name": "unwrapWstETH",
      "outputs": [],
      "stateMutability": "payable",
      "type": "function"
    },
    {
      "inputs": [
        {
          "internalType": "contract IERC20Permit",
          "name": "token",
          "type": "address"
        },
        {
          "internalType": "address",
          "name": "owner",
          "type": "address"
        },
        {
          "internalType": "uint256",
          "name": "value",
          "type": "uint256"
        },
        {
          "internalType": "uint256",
          "name": "deadline",
          "type": "uint256"
        },
        {
          "internalType": "uint8",
          "name": "v",
          "type": "uint8"
        },
        {
          "internalType": "bytes32",
          "name": "r",
          "type": "bytes32"
        },
        {
          "internalType": "bytes32",
          "name": "s",
          "type": "bytes32"
        }
      ],
      "name": "vaultPermit",
      "outputs": [],
      "stateMutability": "payable",
      "type": "function"
    },
    {
      "inputs": [
        {
          "internalType": "contract IERC20PermitDAI",
          "name": "token",
          "type": "address"
        },
        {
          "internalType": "address",
          "name": "holder",
          "type": "address"
        },
        {
          "internalType": "uint256",
          "name": "nonce",
          "type": "uint256"
        },
        {
          "internalType": "uint256",
          "name": "expiry",
          "type": "uint256"
        },
        {
          "internalType": "bool",
          "name": "allowed",
          "type": "bool"
        },
        {
          "internalType": "uint8",
          "name": "v",
          "type": "uint8"
        },
        {
          "internalType": "bytes32",
          "name": "r",
          "type": "bytes32"
        },
        {
          "internalType": "bytes32",
          "name": "s",
          "type": "bytes32"
        }
      ],
      "name": "vaultPermitDAI",
      "outputs": [],
      "stateMutability": "payable",
      "type": "function"
    },
    {
      "inputs": [
        {
          "internalType": "contract IStaticATokenLM",
          "name": "staticToken",
          "type": "address"
        },
        {
          "internalType": "address",
          "name": "sender",
          "type": "address"
        },
        {
          "internalType": "address",
          "name": "recipient",
          "type": "address"
        },
        {
          "internalType": "uint256",
          "name": "amount",
          "type": "uint256"
        },
        {
          "internalType": "bool",
          "name": "fromUnderlying",
          "type": "bool"
        },
        {
          "internalType": "uint256",
          "name": "outputReference",
          "type": "uint256"
        }
      ],
      "name": "wrapAaveDynamicToken",
      "outputs": [],
      "stateMutability": "payable",
      "type": "function"
    },
    {
      "inputs": [
        {
          "internalType": "address",
          "name": "sender",
          "type": "address"
        },
        {
          "internalType": "address",
          "name": "recipient",
          "type": "address"
        },
        {
          "internalType": "uint256",
          "name": "amount",
          "type": "uint256"
        },
        {
          "internalType": "uint256",
          "name": "outputReference",
          "type": "uint256"
        }
      ],
      "name": "wrapStETH",
      "outputs": [],
      "stateMutability": "payable",
      "type": "function"
    }
  ],
  "bytecode": "0x6101406040527fae1dc54057af8e8e5ce068cdd4383149c7efcb30e8fb95b592ee1594367fb50960e0523480156200003657600080fd5b5060405162004119380380620041198339810160408190526200005991620001fa565b8082806001600160a01b031663ad5c46486040518163ffffffff1660e01b815260040160206040518083038186803b1580156200009557600080fd5b505afa158015620000aa573d6000803e3d6000fd5b505050506040513d601f19601f82011682018060405250810190620000d0919062000238565b6001600160601b0319606091821b81166080529082901b1660a05260405181903090620000fd90620001ec565b6200010a9291906200025e565b604051809103906000f08015801562000127573d6000803e3d6000fd5b5060601b6001600160601b03191660c052506001600160a01b03811662000150576000620001c7565b806001600160a01b031663c1fe3e486040518163ffffffff1660e01b8152600401602060405180830381600087803b1580156200018c57600080fd5b505af1158015620001a1573d6000803e3d6000fd5b505050506040513d601f19601f82011682018060405250810190620001c7919062000238565b6001600160601b0319606091821b81166101005291901b166101205250620002919050565b6106998062003a8083390190565b600080604083850312156200020d578182fd5b82516200021a8162000278565b60208401519092506200022d8162000278565b809150509250929050565b6000602082840312156200024a578081fd5b8151620002578162000278565b9392505050565b6001600160a01b0392831681529116602082015260400190565b6001600160a01b03811681146200028e57600080fd5b50565b60805160601c60a05160601c60c05160601c60e0516101005160601c6101205160601c61375f620003216000398061029c5280610330528061037d52806106f4528061078b528061083b5280611941528061198052508061068b52806106c7528061090352806109c95280611a30525080611dd3525080610eb1525080610f84528061102e52505061375f6000f3fe6080604052600436106100de5760003560e01c806380db15bd1161008557806380db15bd146101af5780638d64cfbc146101c25780638d928af8146101d55780638fe4624f146101ea578063959fc17a146101fd578063b6d2473714610210578063d80952d514610230578063db4c0e9114610243578063ecc0263714610256576100de565b80631089e5e3146100e357806318369446146100f85780631c982441146101215780632cbec84e146101345780632e6272ea14610147578063433b0865146101675780637ab6e03c1461017a5780637fd0e5d51461018d575b600080fd5b6100f66100f1366004612745565b610269565b005b61010b610106366004612c7f565b610426565b6040516101189190613264565b60405180910390f35b6100f661012f366004612674565b610633565b6100f6610142366004612745565b6108e5565b61015a610155366004612d79565b610a00565b6040516101189190613677565b6100f6610175366004612b3a565b610b2d565b6100f6610188366004612b3a565b610daa565b34801561019957600080fd5b506101a2610eaf565b60405161011891906130de565b6100f66101bd3660046126b9565b610ed3565b6100f66101d0366004612a86565b610fb2565b3480156101e157600080fd5b506101a261102c565b6100f66101f8366004612979565b611050565b6100f661020b366004612a06565b611255565b34801561021c57600080fd5b506100f661022b366004612b0f565b6112d2565b6100f661023e3660046128d3565b61135e565b6100f6610251366004612674565b6118e9565b6100f6610264366004612808565b611a67565b61027282611b5f565b156102835761028082611b77565b91505b60405162b0e38960e81b81526000906001600160a01b037f0000000000000000000000000000000000000000000000000000000000000000169063b0e38900906102d1908690600401613677565b60206040518083038186803b1580156102e957600080fd5b505afa1580156102fd573d6000803e3d6000fd5b505050506040513d601f19601f820116820180604052508101906103219190612e70565b90506103566001600160a01b037f00000000000000000000000000000000000000000000000000000000000000001684611b91565b6001600160a01b03841630146104085760405163a9059cbb60e01b81526001600160a01b037f0000000000000000000000000000000000000000000000000000000000000000169063a9059cbb906103b490879085906004016131fc565b602060405180830381600087803b1580156103ce57600080fd5b505af11580156103e2573d6000803e3d6000fd5b505050506040513d601f19601f8201168201806040525081019061040691906128b7565b505b61041182611b5f565b15610420576104208282611c0b565b50505050565b60603361043660208a018a612658565b6001600160a01b0316148061045f57503061045460208a018a612658565b6001600160a01b0316145b6104845760405162461bcd60e51b815260040161047b90613558565b60405180910390fd5b60005b8b518110156104e95760008c828151811061049e57fe5b60200260200101516060015190506104b581611b5f565b156104e0576104c381611b77565b8d83815181106104cf57fe5b602002602001015160600181815250505b50600101610487565b5060006104f461102c565b6001600160a01b031663945bcec9868f8f8f8f8f8f8f8f6040518a63ffffffff1660e01b815260040161052e98979695949392919061346e565b6000604051808303818588803b15801561054757600080fd5b505af115801561055b573d6000803e3d6000fd5b50505050506040513d6000823e601f3d908101601f191682016040526105849190810190612779565b905060005b83811015610622576105af8585838181106105a057fe5b90506040020160200135611b5f565b6105cb5760405162461bcd60e51b815260040161047b906135b9565b61061a8585838181106105da57fe5b90506040020160200135610615848888868181106105f457fe5b905060400201600001358151811061060857fe5b6020026020010151611c1e565b611c0b565b600101610589565b509c9b505050505050505050505050565b61063c82611b5f565b1561064d5761064a82611b77565b91505b6001600160a01b03841630146106b0576001600160a01b03841633146106855760405162461bcd60e51b815260040161047b90613558565b6106b0847f000000000000000000000000000000000000000000000000000000000000000084611c38565b60405163095ea7b360e01b81526001600160a01b037f0000000000000000000000000000000000000000000000000000000000000000169063095ea7b39061071e907f00000000000000000000000000000000000000000000000000000000000000009086906004016131fc565b602060405180830381600087803b15801561073857600080fd5b505af115801561074c573d6000803e3d6000fd5b505050506040513d601f19601f8201168201806040525081019061077091906128b7565b50604051630ea598cb60e41b81526000906001600160a01b037f0000000000000000000000000000000000000000000000000000000000000000169063ea598cb0906107c0908690600401613677565b602060405180830381600087803b1580156107da57600080fd5b505af11580156107ee573d6000803e3d6000fd5b505050506040513d601f19601f820116820180604052508101906108129190612e70565b90506001600160a01b03841630146108c65760405163a9059cbb60e01b81526001600160a01b037f0000000000000000000000000000000000000000000000000000000000000000169063a9059cbb9061087290879085906004016131fc565b602060405180830381600087803b15801561088c57600080fd5b505af11580156108a0573d6000803e3d6000fd5b505050506040513d601f19601f820116820180604052508101906108c491906128b7565b505b6108cf82611b5f565b156108de576108de8282611c0b565b5050505050565b6108ee82611b5f565b156108ff576108fc82611b77565b91505b60007f00000000000000000000000000000000000000000000000000000000000000006001600160a01b031663a1903eab84306040518363ffffffff1660e01b815260040161094e91906130de565b6020604051808303818588803b15801561096757600080fd5b505af115801561097b573d6000803e3d6000fd5b50505050506040513d601f19601f820116820180604052508101906109a09190612e70565b90506001600160a01b03841630146104085760405163a9059cbb60e01b81526001600160a01b037f0000000000000000000000000000000000000000000000000000000000000000169063a9059cbb906103b490879085906004016131fc565b600033610a106020880188612658565b6001600160a01b03161480610a39575030610a2e6020880188612658565b6001600160a01b0316145b610a555760405162461bcd60e51b815260040161047b90613558565b610a628760800151611b5f565b15610a7a57610a748760800151611b77565b60808801525b6000610a8461102c565b6001600160a01b03166352bbbe29858a8a8a8a6040518663ffffffff1660e01b8152600401610ab694939291906135ec565b6020604051808303818588803b158015610acf57600080fd5b505af1158015610ae3573d6000803e3d6000fd5b50505050506040513d601f19601f82011682018060405250810190610b089190612e70565b9050610b1383611b5f565b15610b2257610b228382611c0b565b979650505050505050565b610b3683611b5f565b15610b4757610b4483611b77565b92505b600082610bc657866001600160a01b03166351c0e0616040518163ffffffff1660e01b8152600401602060405180830381600087803b158015610b8957600080fd5b505af1158015610b9d573d6000803e3d6000fd5b505050506040513d601f19601f82011682018060405250810190610bc19190612af3565b610c39565b866001600160a01b0316634800d97f6040518163ffffffff1660e01b8152600401602060405180830381600087803b158015610c0157600080fd5b505af1158015610c15573d6000803e3d6000fd5b505050506040513d601f19601f82011682018060405250810190610c399190612af3565b90506001600160a01b0386163014610c7e576001600160a01b0386163314610c735760405162461bcd60e51b815260040161047b90613558565b610c7e868286611c38565b60405163095ea7b360e01b81526001600160a01b0382169063095ea7b390610cac908a9088906004016131fc565b602060405180830381600087803b158015610cc657600080fd5b505af1158015610cda573d6000803e3d6000fd5b505050506040513d601f19601f82011682018060405250810190610cfe91906128b7565b50604051632f2cab8760e01b81526000906001600160a01b03891690632f2cab8790610d34908990899086908a90600401613238565b602060405180830381600087803b158015610d4e57600080fd5b505af1158015610d62573d6000803e3d6000fd5b505050506040513d601f19601f82011682018060405250810190610d869190612e70565b9050610d9183611b5f565b15610da057610da08382611c0b565b5050505050505050565b610db383611b5f565b15610dc457610dc183611b77565b92505b6001600160a01b0385163014610e07576001600160a01b0385163314610dfc5760405162461bcd60e51b815260040161047b90613558565b610e07858785611c38565b60405163ead5d35960e01b81526000906001600160a01b0388169063ead5d35990610e3a90889088908890600401613215565b6040805180830381600087803b158015610e5357600080fd5b505af1158015610e67573d6000803e3d6000fd5b505050506040513d601f19601f82011682018060405250810190610e8b9190612e88565b915050610e9782611b5f565b15610ea657610ea68282611c0b565b50505050505050565b7f000000000000000000000000000000000000000000000000000000000000000090565b6001600160a01b038416301480610ee8575082155b610f045760405162461bcd60e51b815260040161047b90613582565b600063fa6e671d60e01b338686604051602401610f23939291906130f2565b60408051601f19818403018152918152602080830180516001600160e01b03166001600160e01b03199095169490941790935251610f659286918691016130ab565b60408051601f198184030181529190529050610faa6001600160a01b037f00000000000000000000000000000000000000000000000000000000000000001682611cd4565b505050505050565b866001600160a01b031663d505accf87610fca61102c565b88888888886040518863ffffffff1660e01b8152600401610ff197969594939291906131bb565b600060405180830381600087803b15801561100b57600080fd5b505af115801561101f573d6000803e3d6000fd5b5050505050505050505050565b7f000000000000000000000000000000000000000000000000000000000000000090565b6001600160a01b03851633148061106f57506001600160a01b03851630145b61108b5760405162461bcd60e51b815260040161047b90613558565b600061109688611d4b565b905060006110a383611b5f565b6110ae57600061112a565b6040516370a0823160e01b81526001600160a01b038316906370a08231906110da9089906004016130de565b60206040518083038186803b1580156110f257600080fd5b505afa158015611106573d6000803e3d6000fd5b505050506040513d601f19601f8201168201806040525081019061112a9190612e70565b905061113a888660400151611d51565b604086015261114761102c565b6001600160a01b031663b95cac28858b8a8a8a6040518663ffffffff1660e01b815260040161117994939291906133c8565b6000604051808303818588803b15801561119257600080fd5b505af11580156111a6573d6000803e3d6000fd5b50505050506111b483611b5f565b1561124a576040516370a0823160e01b81526000906001600160a01b038416906370a08231906111e8908a906004016130de565b60206040518083038186803b15801561120057600080fd5b505afa158015611214573d6000803e3d6000fd5b505050506040513d601f19601f820116820180604052508101906112389190612e70565b9050611248846106158385611d7f565b505b505050505050505050565b876001600160a01b0316638fcbaf0c8861126d61102c565b8989898989896040518963ffffffff1660e01b8152600401611296989796959493929190613172565b600060405180830381600087803b1580156112b057600080fd5b505af11580156112c4573d6000803e3d6000fd5b505050505050505050505050565b816001600160a01b031663095ea7b36112e961102c565b836040518363ffffffff1660e01b81526004016113079291906131fc565b602060405180830381600087803b15801561132157600080fd5b505af1158015611335573d6000803e3d6000fd5b505050506040513d601f19601f8201168201806040525081019061135991906128b7565b505050565b6001600160a01b03851633148061137d57506001600160a01b03851630145b6113995760405162461bcd60e51b815260040161047b90613558565b6000816001600160401b03811180156113b157600080fd5b506040519080825280602002602001820160405280156113db578160200160208202803683370190505b5090506000826001600160401b03811180156113f657600080fd5b50604051908082528060200260200182016040528015611420578160200160208202803683370190505b50905060005b838110156115905761143d8585838181106105a057fe5b6114595760405162461bcd60e51b815260040161047b906135b9565b855160009086868481811061146a57fe5b905060400201600001358151811061147e57fe5b602002602001015190508660600151156114cc5761149b81611d95565b8483815181106114a757fe5b60200260200101906001600160a01b031690816001600160a01b031681525050611587565b6114d581611d98565b611562576114e281611d95565b6001600160a01b03166370a08231896040518263ffffffff1660e01b815260040161150d91906130de565b60206040518083038186803b15801561152557600080fd5b505afa158015611539573d6000803e3d6000fd5b505050506040513d601f19601f8201168201806040525081019061155d9190612e70565b61156e565b876001600160a01b0316315b83838151811061157a57fe5b6020026020010181815250505b50600101611426565b50846060015115611627576115a361102c565b6001600160a01b0316630f5a6efa87846040518363ffffffff1660e01b81526004016115d0929190613116565b60006040518083038186803b1580156115e857600080fd5b505afa1580156115fc573d6000803e3d6000fd5b505050506040513d6000823e601f3d908101601f19168201604052611624919081019061287d565b90505b611635888660400151611da5565b604086015261164261102c565b6001600160a01b0316638bdb39138a8989896040518563ffffffff1660e01b815260040161167394939291906133c8565b600060405180830381600087803b15801561168d57600080fd5b505af11580156116a1573d6000803e3d6000fd5b5060009250859150506001600160401b03811180156116bf57600080fd5b506040519080825280602002602001820160405280156116e9578160200160208202803683370190505b509050856060015115611786576116fe61102c565b6001600160a01b0316630f5a6efa88856040518363ffffffff1660e01b815260040161172b929190613116565b60006040518083038186803b15801561174357600080fd5b505afa158015611757573d6000803e3d6000fd5b505050506040513d6000823e601f3d908101601f1916820160405261177f919081019061287d565b9050611884565b60005b848110156118825786516000908787848181106117a257fe5b90506040020160000135815181106117b657fe5b602002602001015190506117c981611d98565b611856576117d681611d95565b6001600160a01b03166370a082318a6040518263ffffffff1660e01b815260040161180191906130de565b60206040518083038186803b15801561181957600080fd5b505afa15801561182d573d6000803e3d6000fd5b505050506040513d601f19601f820116820180604052508101906118519190612e70565b611862565b886001600160a01b0316315b83838151811061186e57fe5b602090810291909101015250600101611789565b505b60005b8481101561101f576118e186868381811061189e57fe5b905060400201602001356106158584815181106118b757fe5b60200260200101518585815181106118cb57fe5b6020026020010151611d7f90919063ffffffff16565b600101611887565b6118f282611b5f565b156119035761190082611b77565b91505b6001600160a01b0384163014611966576001600160a01b038416331461193b5760405162461bcd60e51b815260040161047b90613558565b611966847f000000000000000000000000000000000000000000000000000000000000000084611c38565b604051636f074d1f60e11b81526000906001600160a01b037f0000000000000000000000000000000000000000000000000000000000000000169063de0e9a3e906119b5908690600401613677565b602060405180830381600087803b1580156119cf57600080fd5b505af11580156119e3573d6000803e3d6000fd5b505050506040513d601f19601f82011682018060405250810190611a079190612e70565b90506001600160a01b03841630146108c65760405163a9059cbb60e01b81526001600160a01b037f0000000000000000000000000000000000000000000000000000000000000000169063a9059cbb9061087290879085906004016131fc565b60005b82811015611afb5733848483818110611a7f57fe5b905060a002016060016020810190611a979190612658565b6001600160a01b03161480611ad7575030848483818110611ab457fe5b905060a002016060016020810190611acc9190612658565b6001600160a01b0316145b611af35760405162461bcd60e51b815260040161047b90613558565b600101611a6a565b50611b0461102c565b6001600160a01b0316630e8e3e848285856040518463ffffffff1660e01b8152600401611b329291906132a8565b6000604051808303818588803b158015611b4b57600080fd5b505af1158015610da0573d6000803e3d6000fd5b610ba160f41b6001600160f01b03198216145b919050565b600080611b8383611dcc565b805460009091559392505050565b611ba0814710156101a3611e22565b6000826001600160a01b031682604051611bb990611d95565b60006040518083038185875af1925050503d8060008114611bf6576040519150601f19603f3d011682016040523d82523d6000602084013e611bfb565b606091505b50509050611359816101a4611e22565b6000611c1683611dcc565b919091555050565b6000808213611c305781600003611c32565b815b92915050565b80611c4257611359565b604080516001808252818301909252600091602080830190803683370190505090508281600081518110611c7257fe5b6001600160a01b0392909216602092830291909101909101526040805160018082528183019092526000918160200160208202803683370190505090508281600081518110611cbd57fe5b6020026020010181815250506108de858383611e34565b6060600080846001600160a01b031684604051611cf1919061308f565b6000604051808303816000865af19150503d8060008114611d2e576040519150601f19603f3d011682016040523d82523d6000602084013e611d33565b606091505b5091509150611d428282611f6d565b95945050505050565b60601c90565b60606000838015611d5e57fe5b1415611d7457611d6d82611f97565b9050611c32565b611c32610136611fd4565b6000611d8f838311156001611e22565b50900390565b90565b6001600160a01b03161590565b60606000838015611db257fe5b1415611dc157611d6d82612027565b611c32610150611fd4565b60006001827f0000000000000000000000000000000000000000000000000000000000000000604051602001611e039291906130d0565b60408051808303601f1901815291905280516020909101200392915050565b81611e3057611e3081611fd4565b5050565b600082516001600160401b0381118015611e4d57600080fd5b50604051908082528060200260200182016040528015611e8757816020015b611e74612241565b815260200190600190039081611e6c5790505b50905060005b8351811015611f1f576040805160a081019091528060038152602001858381518110611eb557fe5b60200260200101516001600160a01b03168152602001848381518110611ed757fe5b60200260200101518152602001866001600160a01b03168152602001306001600160a01b0316815250828281518110611f0c57fe5b6020908102919091010152600101611e8d565b50611f2861102c565b6001600160a01b0316630e8e3e84826040518263ffffffff1660e01b8152600401611f539190613343565b600060405180830381600087803b158015611b4b57600080fd5b60608215611f7c575080611c32565b815115611f8c5781518083602001fd5b611c326101ae611fd4565b60606000611fa483612070565b90506001816003811115611fb457fe5b1415611fcb57611fc383612086565b915050611b72565b82915050611b72565b62461bcd60e51b6000908152602060045260076024526642414c23000030600a808404818106603090810160081b95839006959095019082900491820690940160101b939093010160c81b604452606490fd5b6060600061203483612070565b9050600081600381111561204457fe5b141561205357611fc383612134565b600181600381111561206157fe5b1415611fcb57611fc383612197565b600081806020019051810190611c329190612ba9565b6060600080612094846121ea565b915091506000805b83518110156120fa5760008482815181106120b357fe5b602002602001015190506120c681611b5f565b156120f1576120d481611b77565b8583815181106120e057fe5b602002602001018181525050600192505b5060010161209c565b50806121065784611d42565b6001838360405160200161211c9392919061343c565b60405160208183030381529060405295945050505050565b60606000806121428461220d565b9150915061214f82611b5f565b1561218d5761215d82611b77565b9150600082826040516020016121759392919061341b565b60405160208183030381529060405292505050611b72565b8392505050611b72565b606060006121a483612224565b90506121af81611b5f565b15611fcb576121bd81611b77565b90506001816040516020016121d3929190613404565b604051602081830303815290604052915050611b72565b60606000828060200190518101906122029190612c28565b909590945092505050565b600080828060200190518101906122029190612bf2565b60008180602001905181019061223a9190612bc5565b9392505050565b6040805160a081019091528060008152600060208201819052604082018190526060820181905260809091015290565b8035611b72816136f9565b60008083601f84011261228d578182fd5b5081356001600160401b038111156122a3578182fd5b60208301915083602080830285010111156122bd57600080fd5b9250929050565b600082601f8301126122d4578081fd5b813560206122e96122e4836136a3565b613680565b8281528181019085830183850287018401881015612305578586fd5b855b8581101561232c57813561231a816136f9565b84529284019290840190600101612307565b5090979650505050505050565b600082601f830112612349578081fd5b813560206123596122e4836136a3565b82815281810190858301855b8581101561232c578135880160a080601f19838d03011215612385578889fd5b604080518281016001600160401b0382821081831117156123a257fe5b8184528a8601358352838601358b840152606091508186013584840152608093508386013582840152848601359450808511156123dd578c8dfd5b50506123ed8d8a85870101612509565b91810191909152865250509284019290840190600101612365565b60008083601f840112612419578182fd5b5081356001600160401b0381111561242f578182fd5b6020830191508360206040830285010111156122bd57600080fd5b600082601f83011261245a578081fd5b8135602061246a6122e4836136a3565b8281528181019085830183850287018401881015612486578586fd5b855b8581101561232c57813584529284019290840190600101612488565b600082601f8301126124b4578081fd5b815160206124c46122e4836136a3565b82815281810190858301838502870184018810156124e0578586fd5b855b8581101561232c578151845292840192908401906001016124e2565b8035611b728161370e565b600082601f830112612519578081fd5b81356001600160401b0381111561252c57fe5b61253f601f8201601f1916602001613680565b818152846020838601011115612553578283fd5b816020850160208301379081016020019190915292915050565b803560018110611b7257600080fd5b803560028110611b7257600080fd5b60006080828403121561259c578081fd5b6125a66080613680565b905081356001600160401b03808211156125bf57600080fd5b6125cb858386016122c4565b835260208401359150808211156125e157600080fd5b6125ed8583860161244a565b6020840152604084013591508082111561260657600080fd5b5061261384828501612509565b604083015250612625606083016124fe565b606082015292915050565b600060808284031215612641578081fd5b50919050565b803560ff81168114611b7257600080fd5b600060208284031215612669578081fd5b813561223a816136f9565b60008060008060808587031215612689578283fd5b8435612694816136f9565b935060208501356126a4816136f9565b93969395505050506040820135916060013590565b600080600080606085870312156126ce578182fd5b84356126d9816136f9565b935060208501356126e98161370e565b925060408501356001600160401b0380821115612704578384fd5b818701915087601f830112612717578384fd5b813581811115612725578485fd5b886020828501011115612736578485fd5b95989497505060200194505050565b600080600060608486031215612759578081fd5b8335612764816136f9565b95602085013595506040909401359392505050565b6000602080838503121561278b578182fd5b82516001600160401b038111156127a0578283fd5b8301601f810185136127b0578283fd5b80516127be6122e4826136a3565b81815283810190838501858402850186018910156127da578687fd5b8694505b838510156127fc5780518352600194909401939185019185016127de565b50979650505050505050565b60008060006040848603121561281c578081fd5b83356001600160401b0380821115612832578283fd5b818601915086601f830112612845578283fd5b813581811115612853578384fd5b87602060a083028501011115612867578384fd5b6020928301989097509590910135949350505050565b60006020828403121561288e578081fd5b81516001600160401b038111156128a3578182fd5b6128af848285016124a4565b949350505050565b6000602082840312156128c8578081fd5b815161223a8161370e565b600080600080600080600060c0888a0312156128ed578485fd5b873596506128fd6020890161256d565b9550604088013561290d816136f9565b9450606088013561291d816136f9565b935060808801356001600160401b0380821115612938578485fd5b6129448b838c0161258b565b945060a08a0135915080821115612959578384fd5b506129668a828b01612408565b989b979a50959850939692959293505050565b600080600080600080600060e0888a031215612993578081fd5b873596506129a36020890161256d565b955060408801356129b3816136f9565b945060608801356129c3816136f9565b935060808801356001600160401b038111156129dd578182fd5b6129e98a828b0161258b565b93505060a0880135915060c0880135905092959891949750929550565b600080600080600080600080610100898b031215612a22578182fd5b8835612a2d816136f9565b97506020890135612a3d816136f9565b965060408901359550606089013594506080890135612a5b8161370e565b9350612a6960a08a01612647565b925060c0890135915060e089013590509295985092959890939650565b600080600080600080600060e0888a031215612aa0578081fd5b8735612aab816136f9565b96506020880135612abb816136f9565b95506040880135945060608801359350612ad760808901612647565b925060a0880135915060c0880135905092959891949750929550565b600060208284031215612b04578081fd5b815161223a816136f9565b60008060408385031215612b21578182fd5b8235612b2c816136f9565b946020939093013593505050565b60008060008060008060c08789031215612b52578384fd5b8635612b5d816136f9565b95506020870135612b6d816136f9565b94506040870135612b7d816136f9565b9350606087013592506080870135612b948161370e565b8092505060a087013590509295509295509295565b600060208284031215612bba578081fd5b815161223a8161371c565b60008060408385031215612bd7578182fd5b8251612be28161371c565b6020939093015192949293505050565b600080600060608486031215612c06578081fd5b8351612c118161371c565b602085015160409095015190969495509392505050565b600080600060608486031215612c3c578081fd5b8351612c478161371c565b60208501519093506001600160401b03811115612c62578182fd5b612c6e868287016124a4565b925050604084015190509250925092565b60008060008060008060008060008060006101608c8e031215612ca0578485fd5b612ca98c61257c565b9a506001600160401b038060208e01351115612cc3578586fd5b612cd38e60208f01358f01612339565b9a508060408e01351115612ce5578586fd5b612cf58e60408f01358f0161227c565b909a509850612d078e60608f01612630565b97508060e08e01351115612d19578586fd5b612d298e60e08f01358f0161227c565b90975095506101008d013594506101208d013593506101408d0135811015612d4f578283fd5b50612d618d6101408e01358e01612408565b81935080925050509295989b509295989b9093969950565b6000806000806000806101208789031215612d92578384fd5b86356001600160401b0380821115612da8578586fd5b9088019060c0828b031215612dbb578586fd5b60405160c081018181108382111715612dd057fe5b60405282358152612de36020840161257c565b6020820152612df460408401612271565b6040820152612e0560608401612271565b60608201526080830135608082015260a083013582811115612e25578788fd5b612e318c828601612509565b60a083015250809850505050612e4a8860208901612630565b959895975050505060a08401359360c08101359360e08201359350610100909101359150565b600060208284031215612e81578081fd5b5051919050565b60008060408385031215612e9a578182fd5b505080516020909101519092909150565b6001600160a01b03169052565b60008284526020808501945082825b85811015612ef5578135612eda816136f9565b6001600160a01b031687529582019590820190600101612ec7565b509495945050505050565b60008284526020808501945082825b85811015612ef557813587529582019590820190600101612f0f565b6000815180845260208085019450808401835b83811015612ef557815187529582019590820190600101612f3e565b15159052565b60008151808452612f788160208601602086016136c0565b601f01601f19169290920160200192915050565b60028110612f9657fe5b9052565b8051608080845281519084018190526000916020919082019060a0860190845b81811015612fdf5783516001600160a01b031683529284019291840191600101612fba565b505082850151915085810383870152612ff88183612f2b565b92505050604083015184820360408601526130138282612f60565b91505060608301516130286060860182612f5a565b509392505050565b803561303b816136f9565b6001600160a01b0390811683526020820135906130578261370e565b901515602084015260408201359061306e826136f9565b16604083015260608101356130828161370e565b8015156060840152505050565b600082516130a18184602087016136c0565b9190910192915050565b600084516130bd8184602089016136c0565b8201838582379092019182525092915050565b918252602082015260400190565b6001600160a01b0391909116815260200190565b6001600160a01b039384168152919092166020820152901515604082015260600190565b6001600160a01b038381168252604060208084018290528451918401829052600092858201929091906060860190855b81811015613164578551851683529483019491830191600101613146565b509098975050505050505050565b6001600160a01b039889168152969097166020870152604086019490945260608501929092521515608084015260ff1660a083015260c082015260e08101919091526101000190565b6001600160a01b0397881681529590961660208601526040850193909352606084019190915260ff16608083015260a082015260c081019190915260e00190565b6001600160a01b03929092168252602082015260400190565b6001600160a01b0393909316835260208301919091521515604082015260600190565b6001600160a01b03949094168452602084019290925261ffff1660408301521515606082015260800190565b6020808252825182820181905260009190848201906040850190845b8181101561329c57835183529284019291840191600101613280565b50909695505050505050565b6020808252818101839052600090604080840186845b8781101561232c5781356132d18161371c565b6132da816136ec565b8352818501356132e9816136f9565b6001600160a01b0390811684870152828501358585015260609081840135613310816136f9565b16908401526080613322838201612271565b61332e82860182612eab565b505060a09283019291909101906001016132be565b602080825282518282018190526000919060409081850190868401855b828110156133bb5781518051613375816136ec565b8552808701516001600160a01b03908116888701528682015187870152606080830151821690870152608091820151169085015260a09093019290850190600101613360565b5091979650505050505050565b8481526001600160a01b038481166020830152831660408201526080606082018190526000906133fa90830184612f9a565b9695505050505050565b60408101613411846136ec565b9281526020015290565b60608101613428856136ec565b938152602081019290925260409091015290565b6000613447856136ec565b8482526060602083015261345e6060830185612f2b565b9050826040830152949350505050565b6000610120808301613480848d612f8c565b6020848101929092528a5190819052610140808501928281028601909101918c8201855b828110156135075787850361013f190186528151805186528481015185870152604080820151908701526060808201519087015260809081015160a0918701829052906134f381880183612f60565b9786019796505050908301906001016134a4565b50505050838103604085015261351e818a8c612eb8565b91505061352e6060840188613030565b82810360e0840152613541818688612f00565b915050826101008301529998505050505050505050565b60208082526010908201526f24b731b7b93932b1ba1039b2b73232b960811b604082015260600190565b6020808252601f908201527f52656c617965722063616e206f6e6c7920617070726f766520697473656c6600604082015260600190565b602080825260199082015278696e76616c696420636861696e6564207265666572656e636560381b604082015260600190565b600060e08252855160e0830152602086015161360c610100840182612f8c565b5060408601516001600160a01b03908116610120840152606087015116610140830152608086015161016083015260a086015160c06101808401526136556101a0840182612f60565b9150506136656020830186613030565b60a082019390935260c0015292915050565b90815260200190565b6040518181016001600160401b038111828210171561369b57fe5b604052919050565b60006001600160401b038211156136b657fe5b5060209081020190565b60005b838110156136db5781810151838201526020016136c3565b838111156104205750506000910152565b600481106136f657fe5b50565b6001600160a01b03811681146136f657600080fd5b80151581146136f657600080fd5b600481106136f657600080fdfea2646970667358221220773e77d77db50ffdc297eff8c389561f43121af473a38be4d4adee2f8e4c23f464736f6c6343000706003360c060405234801561001057600080fd5b5060405161069938038061069983398101604081905261002f91610052565b60016000556001600160601b0319606092831b8116608052911b1660a0526100a3565b60008060408385031215610064578182fd5b825161006f8161008b565b60208401519092506100808161008b565b809150509250929050565b6001600160a01b03811681146100a057600080fd5b50565b60805160601c60a05160601c6105c56100d46000398060ef52806101f5525080604b528061011352506105c56000f3fe6080604052600436106100385760003560e01c80637678922e1461007b5780638d928af8146100a6578063ac9650d8146100bb57610076565b3661007657610074336001600160a01b037f000000000000000000000000000000000000000000000000000000000000000016146102066100db565b005b600080fd5b34801561008757600080fd5b506100906100ed565b60405161009d9190610487565b60405180910390f35b3480156100b257600080fd5b50610090610111565b6100ce6100c93660046103f9565b610135565b60405161009d919061049b565b816100e9576100e981610254565b5050565b7f000000000000000000000000000000000000000000000000000000000000000090565b7f000000000000000000000000000000000000000000000000000000000000000090565b606061013f6102a7565b8167ffffffffffffffff8111801561015657600080fd5b5060405190808252806020026020018201604052801561018a57816020015b60608152602001906001900390816101755790505b50905060005b8281101561023d5761021e8484838181106101a757fe5b90506020028101906101b99190610513565b8080601f016020809104026020016040519081016040528093929190818152602001838380828437600092019190915250506001600160a01b037f000000000000000000000000000000000000000000000000000000000000000016929150506102c0565b82828151811061022a57fe5b6020908102919091010152600101610190565b50610246610335565b61024e610349565b92915050565b62461bcd60e51b6000908152602060045260076024526642414c23000030600a808404818106603090810160081b95839006959095019082900491820690940160101b939093010160c81b604452606490fd5b6102b9600260005414156101906100db565b6002600055565b6060600080846001600160a01b0316846040516102dd9190610468565b600060405180830381855af49150503d8060008114610318576040519150601f19603f3d011682016040523d82523d6000602084013e61031d565b606091505b509150915061032c8282610350565b95945050505050565b47801561034657610346338261037a565b50565b6001600055565b6060821561035f57508061024e565b81511561036f5781518083602001fd5b61024e6101ae610254565b610389814710156101a36100db565b6000826001600160a01b0316826040516103a290610484565b60006040518083038185875af1925050503d80600081146103df576040519150601f19603f3d011682016040523d82523d6000602084013e6103e4565b606091505b505090506103f4816101a46100db565b505050565b6000806020838503121561040b578182fd5b823567ffffffffffffffff80821115610422578384fd5b818501915085601f830112610435578384fd5b813581811115610443578485fd5b8660208083028501011115610456578485fd5b60209290920196919550909350505050565b6000825161047a81846020870161055f565b9190910192915050565b90565b6001600160a01b0391909116815260200190565b6000602080830181845280855180835260408601915060408482028701019250838701855b8281101561050657878503603f19018452815180518087526104e7818989018a850161055f565b601f01601f1916959095018601945092850192908501906001016104c0565b5092979650505050505050565b6000808335601e19843603018112610529578283fd5b83018035915067ffffffffffffffff821115610543578283fd5b60200191503681900382131561055857600080fd5b9250929050565b60005b8381101561057a578181015183820152602001610562565b83811115610589576000848401525b5050505056fea2646970667358221220749ee4b3d2430dd936e54333b076f8a0286c64b21f69facb4932267e0be2f20864736f6c63430007060033",
  "linkReferences": {},
  "deployedLinkReferences": {}
}